{"bytecode":"60a06040523480156200001157600080fd5b506040516200344b3803806200344b8339810160408190526200003491620000ae565b80620000403362000053565b6001600160a01b031660805250620000e0565b600080546001600160a01b038381166201000081810262010000600160b01b0319851617855560405193049190911692909183917f8be0079c531659141344cd1fd0a4f28419497f9722a3daafe3b4186f6b6457e091a35050565b600060208284031215620000c157600080fd5b81516001600160a01b0381168114620000d957600080fd5b9392505050565b6080516133416200010a600039600081816104a00152818161053f01526105dd01526133416000f3fe608060405234801561001057600080fd5b50600436106101cf5760003560e01c80637bb759ad11610104578063af640d0f116100a2578063d693585811610071578063d6935858146104c2578063e4b16144146104ca578063f2fde38b146104dd578063feab4454146104f0576101cf565b8063af640d0f1461044f578063b03fd40d14610475578063bd28703114610488578063ccc079591461049b576101cf565b80638da5cb5b116100de5780638da5cb5b146103ee57806394f46f6f1461041957806396e4ee3d1461042c578063979620761461043f576101cf565b80637bb759ad146103b357806383e8531a146103d3578063854ba99d146103e6576101cf565b80636464b68a116101715780636968abd31161014b5780636968abd31461036f578063715018a61461038257806372ea61bf1461038a5780637af6649a14610392576101cf565b80636464b68a1461034257806365a6b3631461035c57806365e60ef214610342576101cf565b80631e8d8223116101ad5780631e8d8223146102995780632203616d146102c75780632f54bf6e146102ef5780636296514114610317576101cf565b806301ffc9a71461025457806305d6bd9c1461027c5780630df7408414610286575b6101d761051a565b60006101e7602460043684612a5e565b8080601f016020809104026020016040519081016040528093929190818152602001838380828437600092018290525060208501519495509250503660231981019150601f19016004838037816024600437600080826000875af49250505061024f816106e4565b505050005b610267610262366004612aa5565b6106fe565b60405190151581526020015b60405180910390f35b610284610735565b005b610284610294366004612ad7565b61074c565b6102ac6102a7366004612b24565b6107d3565b60408051938452602084019290925290820152606001610273565b6102da6102d5366004612b57565b610b5b565b60405163ffffffff9091168152602001610273565b6102676102fd366004612b70565b6000546201000090046001600160a01b0390811691161490565b61032a610325366004612b57565b610b6c565b6040516001600160401b039091168152602001610273565b6102ac610350366004612b8b565b60008060009250925092565b61028461036a366004612cb2565b610b9e565b6102ac61037d366004612b24565b610c85565b6102846112eb565b6102846112fd565b6103a56103a0366004612dc8565b611317565b604051908152602001610273565b6103c66103c1366004612b24565b611330565b6040516102739190612df0565b6102ac6103e1366004612e90565b61138d565b610267611544565b6000546201000090046001600160a01b03165b6040516001600160a01b039091168152602001610273565b610284610427366004612f9f565b611562565b6103a561043a366004612b8b565b6115c7565b600054610100900460ff16610267565b7f3cb99135f7a7c088d9085b446345038a22a85f4e8fe072b0e1b66d97243e74586103a5565b6103a5610483366004612fdb565b6115e6565b610284610496366004612ff6565b611600565b6104017f000000000000000000000000000000000000000000000000000000000000000081565b6102846116f2565b6103a56104d8366004613039565b61170e565b6102846104eb366004612b70565b611725565b6105036104fe366004612b57565b61179e565b60405165ffffffffffff9091168152602001610273565b6000546001600160a01b0362010000909104163314806105cd57506001600160a01b037f0000000000000000000000000000000000000000000000000000000000000000166316279055336040516001600160e01b031960e084901b1681526001600160a01b039091166004820152602401602060405180830381865afa1580156105a9573d6000803e3d6000fd5b505050506040513d601f19601f820116820180604052508101906105cd919061305f565b8061066b57506001600160a01b037f000000000000000000000000000000000000000000000000000000000000000016636d70f7ae336040516001600160e01b031960e084901b1681526001600160a01b039091166004820152602401602060405180830381865afa158015610647573d6000803e3d6000fd5b505050506040513d601f19601f8201168201806040525081019061066b919061305f565b6106e25760405162461bcd60e51b815260206004820152603960248201527f416c6c6f77616e63653a2063616c6c6572206d757374206265205265706f736960448201527f746f727920436f6e7472616374206f72204f70657261746f720000000000000060648201526084015b60405180910390fd5b565b3d6000803e8080156106f5573d6000f35b3d6000fd5b5050565b60006001600160e01b031982166301ffc9a760e01b148061072f57506001600160e01b031982166315d3789560e31b145b92915050565b61073d61051a565b6106e26000805460ff19169055565b61075461051a565b61075c612a1b565b80516001600160a01b03878116909152815190861660209182015260029082015261078684610b6c565b6001600160401b0316604082015261079d83610b6c565b6001600160401b031660608201526107b482610b6c565b6001600160401b031660808201526107cb816117af565b505050505050565b60008060008085856040516020016107ec929190613097565b60408051601f19818403018152828252805160209182012060008181526001808452848220610100870190955284546001600160a01b0390811660c08801908152918601541660e087015285526002840154919550938493849384939083019060ff16600581111561086057610860613081565b600581111561087157610871613081565b8152600291909101546001600160401b03610100820481166020840152600160481b820481166040840152600160881b82041660608301526001600160e01b0319600160c81b90910460e01b1660809091015290506005816020015160058111156108de576108de613081565b14156108f9576108ed81611c44565b9195509350915061094f565b60018160200151600581111561091157610911613081565b1415610920576108ed81611dfa565b60028160200151600581111561093857610938613081565b141561094f5761094781611dfa565b919550935091505b8215610964575091955093509150610b549050565b888a604051602001610977929190613097565b60408051601f1981840301815282825280516020918201206000818152600180845290849020610100860190945283546001600160a01b0390811660c08701908152918501541660e0860152845260028301549098509083019060ff1660058111156109e5576109e5613081565b60058111156109f6576109f6613081565b8152600291909101546001600160401b03610100820481166020840152600160481b820481166040840152600160881b82041660608301526001600160e01b0319600160c81b90910460e01b16608090910152600094508493508392509050600581602001516005811115610a6d57610a6d613081565b1415610a8857610a7c81611c44565b91955093509150610ade565b600181602001516005811115610aa057610aa0613081565b1415610aaf57610a7c81611dfa565b600281602001516005811115610ac757610ac7613081565b1415610ade57610ad681611dfa565b919550935091505b82610af85760008060009750975097505050505050610b54565b610b11846ec097ce7bc90715b34b9f10000000006130d4565b9350610b2c836ec097ce7bc90715b34b9f10000000006130d4565b9250610b47826ec097ce7bc90715b34b9f10000000006130d4565b9397509195509193505050505b9250925092565b600061072f64e8d4a51000836130d4565b600080610b7e6402540be400846130d4565b905082610b90826402540be4006130f6565b111561072f5761072f613115565b610ba661051a565b60005b81518110156106fa57610c73828281518110610bc757610bc761312b565b60200260200101516000015160000151838381518110610be957610be961312b565b60200260200101516000015160200151848481518110610c0b57610c0b61312b565b6020026020010151604001516001600160401b0316858581518110610c3257610c3261312b565b6020026020010151606001516001600160401b0316868681518110610c5957610c5961312b565b6020026020010151608001516001600160401b031661074c565b80610c7d81613141565b915050610ba9565b6000806000808585604051602001610c9e929190613097565b60408051808303601f190181529181528151602092830120600081815260019093529120600281015491925090436001600160e01b0319908116600160c81b90920460e01b161415610d9257604080516001600160a01b03808a168252881660208201527f85fe05c69e32ec3aed403e05e055faa5b8f0dec24c0f5ef97a497b8f4b8228b5910160405180910390a16002810154610d499061010090046001600160401b03166115e6565b6002820154610d6790600160481b90046001600160401b03166115e6565b6002830154610d8590600160881b90046001600160401b03166115e6565b9450945094505050610b54565b600080806005600285015460ff166005811115610db157610db1613081565b1415610e805760408051610100810190915284546001600160a01b0390811660c08301908152600187015490911660e083015281526002850154610e7491908690602083019060ff166005811115610e0b57610e0b613081565b6005811115610e1c57610e1c613081565b8152600291909101546001600160401b03610100820481166020840152600160481b820481166040840152600160881b82041660608301526001600160e01b0319600160c81b90910460e01b16608090910152611e33565b91945092509050610fda565b6001600285015460ff166005811115610e9b57610e9b613081565b1415610f5e5760408051610100810190915284546001600160a01b0390811660c08301908152600187015490911660e083015281526002850154610e7491908690602083019060ff166005811115610ef557610ef5613081565b6005811115610f0657610f06613081565b8152600291909101546001600160401b03610100820481166020840152600160481b820481166040840152600160881b82041660608301526001600160e01b0319600160c81b90910460e01b16608090910152611dfa565b60028085015460ff166005811115610f7857610f78613081565b1415610fda5760408051610100810190915284546001600160a01b0390811660c08301908152600187015490911660e083015281526002850154610fd291908690602083019060ff166005811115610ef557610ef5613081565b919450925090505b811561103257604080516001600160a01b03808d1682528b1660208201527f85fe05c69e32ec3aed403e05e055faa5b8f0dec24c0f5ef97a497b8f4b8228b5910160405180910390a191965094509250610b54915050565b888a604051602001611045929190613097565b60408051601f19818403018152918152815160209283012060008181526001909352908220909650945092508291508190506005600285015460ff16600581111561109257611092613081565b14156110f85760408051610100810190915284546001600160a01b0390811660c08301908152600187015490911660e0830152815260028501546110ec91908690602083019060ff166005811115610e0b57610e0b613081565b919450925090506111e9565b6001600285015460ff16600581111561111357611113613081565b141561116d5760408051610100810190915284546001600160a01b0390811660c08301908152600187015490911660e0830152815260028501546110ec91908690602083019060ff166005811115610ef557610ef5613081565b60028085015460ff16600581111561118757611187613081565b14156111e95760408051610100810190915284546001600160a01b0390811660c08301908152600187015490911660e0830152815260028501546111e191908690602083019060ff166005811115610ef557610ef5613081565b919450925090505b8161124657604080516001600160a01b03808d1682528b1660208201527f40431c410cc5180bf05a4efdfb1880b6095849d44d09b81b10b0aefbb6849edd910160405180910390a160008060009750975097505050505050610b54565b61125f836ec097ce7bc90715b34b9f10000000006130d4565b925061127a826ec097ce7bc90715b34b9f10000000006130d4565b9150611295816ec097ce7bc90715b34b9f10000000006130d4565b604080516001600160a01b03808e1682528c1660208201529192507f85fe05c69e32ec3aed403e05e055faa5b8f0dec24c0f5ef97a497b8f4b8228b5910160405180910390a19196509450925050509250925092565b6112f3611ecd565b6106e26000611f2e565b61130561051a565b6106e26000805460ff19166001179055565b600061072f65ffffffffffff831664174876e8006130f6565b606061138683836014600060405190808252806020026020018201604052801561138057816020015b60408051808201909152600080825260208201528152602001906001900390816113595790505b50611f89565b9392505050565b6000808080808080805b885181101561152657670de0b6b3a7640000808060005b8c85815181106113c0576113c061312b565b6020026020010151518110156114be5760008d86815181106113e4576113e461312b565b602002602001015182815181106113fd576113fd61312b565b60200260200101519050600080600061141e846000015185602001516107d3565b925092509250816000141561144a5760008060009f509f509f505050505050505050505050505061153d565b670de0b6b3a764000061145d89856130f6565b61146791906130d4565b9750670de0b6b3a764000061147c88846130f6565b61148691906130d4565b9650670de0b6b3a764000061149b87836130f6565b6114a591906130d4565b95505050505080806114b690613141565b9150506113ae565b508715806114cb57508288115b156114d4578297505b8415806114e057508085105b156114e9578094505b856114f657819650611503565b611500828861315c565b96505b8561150d81613141565b965050505050808061151e90613141565b915050611397565b5061153182846130d4565b93965092945091925050505b9193909250565b6000805460ff168061155d5750600054610100900460ff165b905090565b61156a61051a565b611572612a1b565b80516001600160a01b03858116909152815190841660209182015260019082015261159c82610b6c565b6001600160401b0316608082018190526060820181905260408201526115c1816117af565b50505050565b6000670de0b6b3a76400006115dc83856130f6565b61138691906130d4565b600061072f6001600160401b0383166402540be4006130f6565b61160861051a565b6000838360405160200161161d929190613097565b60408051808303601f19018152918152815160209283012060008181526003909352912080546001600160a01b0319166001600160a01b038516179055905081611665612a1b565b80516001600160a01b0387811690915281519086166020918201526005908201526000808061169384611c44565b9250925092506116a283610b6c565b6001600160401b031660408501526116b982610b6c565b6001600160401b031660608501526116d081610b6c565b6001600160401b031660808501526116e7846117af565b505050505050505050565b6116fa611ecd565b6106e26000805461ff001916610100179055565b600061072f63ffffffff831664e8d4a510006130f6565b61172d611ecd565b6001600160a01b0381166117925760405162461bcd60e51b815260206004820152602660248201527f4f776e61626c653a206e6577206f776e657220697320746865207a65726f206160448201526564647265737360d01b60648201526084016106d9565b61179b81611f2e565b50565b600061072f64174876e800836130d4565b805180516020918201516040516000936117cb93929101613097565b60408051601f19818403018152828252805160209182012060008181526001808452848220610100870190955284546001600160a01b0390811660c08801908152918601541660e08701528552600284015491955093929183019060ff16600581111561183a5761183a613081565b600581111561184b5761184b613081565b81526002919091015461010081046001600160401b03908116602080850191909152600160481b830482166040850152600160881b83049091166060840152600160c81b90910460e01b6001600160e01b03191660809092019190915284015190915060058111156118bf576118bf613081565b816020015160058111156118d5576118d5613081565b14611a8757825180516020909101516118ee9190612713565b82515181516001600160a01b039182169052835160209081015183519216918101919091528084015190820190600581111561192c5761192c613081565b9081600581111561193f5761193f613081565b9052508251516001600160a01b0390811660009081526002602090815260409182902086519091015191516316f4b92960e21b815260048101919091529116602482015273__Array_________________________________90635bd2e4a490604401602060405180830381865af41580156119bf573d6000803e3d6000fd5b505050506040513d601f19601f820116820180604052508101906119e3919061305f565b5082516020908101516001600160a01b039081166000908152600290925260409182902085515192516316f4b92960e21b815260048101919091529116602482015273__Array_________________________________90635bd2e4a490604401602060405180830381865af4158015611a61573d6000803e3d6000fd5b505050506040513d601f19601f82011682018060405250810190611a85919061305f565b505b6001600160e01b0319431660a0820152604080840151908201516001600160401b039081169116148015611ad4575082606001516001600160401b031681606001516001600160401b0316145b8015611af9575082608001516001600160401b031681608001516001600160401b0316145b15611b0357505050565b6040838101516001600160401b039081168383015260608086015182169084015260808086015190911690830152600083815260016020818152929091208351805182546001600160a01b03199081166001600160a01b0392831617845591850151838501805490931691161790559183015160028301805485949360ff1990911690836005811115611b9857611b98613081565b02179055506040820151600290910180546060840151608085015160a09095015160e01c600160c81b0263ffffffff60c81b196001600160401b03968716600160881b02166bffffffffffffffffffffffff60881b19928716600160481b0270ffffffffffffffff0000000000000000001997909616610100029690961670ffffffffffffffffffffffffffffffff001990931692909217939093179290921692909217179055505050565b80518051602091820151604051600093849384938493611c649301613097565b60408051601f1981840301815282825280516020918201206000818152600390925282822054633fabe5a360e21b8552925190945090926001600160a01b039092169163feaf968c9160048083019260a09291908290030181865afa158015611cd1573d6000803e3d6000fd5b505050506040513d601f19601f82011682018060405250810190611cf5919061318e565b50505091505060008113611d4b5760405162461bcd60e51b815260206004820181905260248201527f436861696e6c696e6b2071756f7465206d75737420626520706f73697469766560448201526064016106d9565b60008281526003602090815260409182902054825163313ce56760e01b8152925184936001600160a01b039092169263313ce56792600480820193918290030181865afa158015611da0573d6000803e3d6000fd5b505050506040513d601f19601f82011682018060405250810190611dc491906131de565b611dcf90600a6132e5565b611de190670de0b6b3a76400006130d4565b611deb90826130f6565b97889750879650945050505050565b6000806000611e0c84604001516115e6565b611e1985606001516115e6565b611e2686608001516115e6565b9250925092509193909250565b60008060004360001b6001600160e01b0319168460a001516001600160e01b03191614611ec0576000806000611e6887611c44565b925092509250611e7783610b6c565b6001600160401b03166040880152611e8e82610b6c565b6001600160401b03166060880152611ea581610b6c565b6001600160401b03166080880152611ebc876117af565b5050505b611e0c84604001516115e6565b6000546001600160a01b03620100009091041633146106e25760405162461bcd60e51b815260206004820152601f60248201527f416c6c6f77616e63653a2063616c6c6572206d757374206265204f776e65720060448201526064016106d9565b600080546001600160a01b038381166201000081810262010000600160b01b0319851617855560405193049190911692909183917f8be0079c531659141344cd1fd0a4f28419497f9722a3daafe3b4186f6b6457e091a35050565b6001600160a01b0384166000908152600260209081526040808320805482518185028101850190935280835260609493830182828015611ff257602002820191906000526020600020905b81546001600160a01b03168152600190910190602001808311611fd4575b509394506000935061200392505050565b60405190808252806020026020018201604052801561203657816020015b60608152602001906001900390816120215790505b50915060005b81518110156127095760005b845181101561217d57876001600160a01b031685828151811061206d5761206d61312b565b6020026020010151600001516001600160a01b03161480156120d6575082828151811061209c5761209c61312b565b60200260200101516001600160a01b03168582815181106120bf576120bf61312b565b6020026020010151602001516001600160a01b0316145b806121615750876001600160a01b03168582815181106120f8576120f861312b565b6020026020010151602001516001600160a01b031614801561216157508282815181106121275761212761312b565b60200260200101516001600160a01b031685828151811061214a5761214a61312b565b6020026020010151600001516001600160a01b0316145b1561216b5761217d565b8061217581613141565b915050612048565b845181101561218c57506126f7565b866001600160a01b03168383815181106121a8576121a861312b565b60200260200101516001600160a01b0316141561244b576000600160008a8a6040516020016121d8929190613097565b60408051601f1981840301815291815281516020928301208352908201929092520160002090506003600282015460ff16600581111561221a5761221a613081565b1415801561224157506004600282015460ff16600581111561223e5761223e613081565b14155b1561244957600086516001612256919061315c565b6001600160401b0381111561226d5761226d612bad565b6040519080825280602002602001820160405280156122b257816020015b604080518082019091526000808252602082015281526020019060019003908161228b5790505b509050600092505b865183101561230d578683815181106122d5576122d561312b565b60200260200101518184815181106122ef576122ef61312b565b6020026020010181905250828061230590613141565b9350506122ba565b898184815181106123205761232061312b565b6020026020010151600001906001600160a01b031690816001600160a01b031681525050888184815181106123575761235761312b565b6020908102919091018101516001600160a01b03909216910152855160009061238190600161315c565b6001600160401b0381111561239857612398612bad565b6040519080825280602002602001820160405280156123cb57816020015b60608152602001906001900390816123b65790505b509050600093505b8651841015612426578684815181106123ee576123ee61312b565b60200260200101518185815181106124085761240861312b565b6020026020010181905250838061241e90613141565b9450506123d3565b818188518151811061243a5761243a61312b565b60209081029190910101529550505b505b856124565750612709565b600085516001612466919061315c565b6001600160401b0381111561247d5761247d612bad565b6040519080825280602002602001820160405280156124c257816020015b604080518082019091526000808252602082015281526020019060019003908161249b5790505b509050600091505b855182101561251d578582815181106124e5576124e561312b565b60200260200101518183815181106124ff576124ff61312b565b6020026020010181905250818061251590613141565b9250506124ca565b888183815181106125305761253061312b565b60209081029190910101516001600160a01b039091169052835184908490811061255c5761255c61312b565b60200260200101518183815181106125765761257661312b565b6020026020010151602001906001600160a01b031690816001600160a01b03168152505060006125cd8585815181106125b1576125b161312b565b60200260200101518a60018b6125c791906132f4565b85611f89565b8051909150156126f3576000865182516125e7919061315c565b6001600160401b038111156125fe576125fe612bad565b60405190808252806020026020018201604052801561263157816020015b606081526020019060019003908161261c5790505b509050600093505b865184101561268c578684815181106126545761265461312b565b602002602001015181858151811061266e5761266e61312b565b6020026020010181905250838061268490613141565b945050612639565b600093505b81518410156126f0578184815181106126ac576126ac61312b565b6020026020010151818589516126c2919061315c565b815181106126d2576126d261312b565b602002602001018190525083806126e890613141565b945050612691565b95505b5050505b8061270181613141565b91505061203c565b5050949350505050565b60008282604051602001612728929190613097565b60408051601f19818403018152828252805160209182012060008181526001808452848220610100870190955284546001600160a01b0390811660c08801908152918601541660e08701528552600284015491955093929183019060ff16600581111561279757612797613081565b60058111156127a8576127a8613081565b8152600291909101546001600160401b03610100820481166020840152600160481b820481166040840152600160881b82041660608301526001600160e01b0319600160c81b90910460e01b16608090910152905060008160200151600581111561281557612815613081565b14156128215750505050565b60058160200151600581111561283957612839613081565b14156128495761284984846129cf565b8051516001600160a01b03908116600090815260026020908152604091829020845190910151915163edefe12d60e01b815260048101919091529116602482015273__Array_________________________________9063edefe12d90604401602060405180830381865af41580156128c6573d6000803e3d6000fd5b505050506040513d601f19601f820116820180604052508101906128ea919061305f565b5080516020908101516001600160a01b0390811660009081526002909252604091829020835151925163edefe12d60e01b815260048101919091529116602482015273__Array_________________________________9063edefe12d90604401602060405180830381865af4158015612968573d6000803e3d6000fd5b505050506040513d601f19601f8201168201806040525081019061298c919061305f565b5050600090815260016020819052604090912080546001600160a01b03199081168255918101805490921690915560020180546001600160e81b03191690555050565b600082826040516020016129e4929190613097565b60408051601f19818403018152918152815160209283012060009081526003909252902080546001600160a01b0319169055505050565b6040805161010081018252600060c0820181815260e08301829052825260208201819052918101829052606081018290526080810182905260a081019190915290565b60008085851115612a6e57600080fd5b83861115612a7b57600080fd5b5050820193919092039150565b80356001600160e01b031981168114612aa057600080fd5b919050565b600060208284031215612ab757600080fd5b61138682612a88565b80356001600160a01b0381168114612aa057600080fd5b600080600080600060a08688031215612aef57600080fd5b612af886612ac0565b9450612b0660208701612ac0565b94979496505050506040830135926060810135926080909101359150565b60008060408385031215612b3757600080fd5b612b4083612ac0565b9150612b4e60208401612ac0565b90509250929050565b600060208284031215612b6957600080fd5b5035919050565b600060208284031215612b8257600080fd5b61138682612ac0565b60008060408385031215612b9e57600080fd5b50508035926020909101359150565b634e487b7160e01b600052604160045260246000fd5b60405160c081016001600160401b0381118282101715612be557612be5612bad565b60405290565b604051601f8201601f191681016001600160401b0381118282101715612c1357612c13612bad565b604052919050565b60006001600160401b03821115612c3457612c34612bad565b5060051b60200190565b600060408284031215612c5057600080fd5b604051604081018181106001600160401b0382111715612c7257612c72612bad565b604052905080612c8183612ac0565b8152612c8f60208401612ac0565b60208201525092915050565b80356001600160401b0381168114612aa057600080fd5b60006020808385031215612cc557600080fd5b82356001600160401b03811115612cdb57600080fd5b8301601f81018513612cec57600080fd5b8035612cff612cfa82612c1b565b612beb565b81815260e09182028301840191848201919088841115612d1e57600080fd5b938501935b83851015612dbc5780858a031215612d3b5760008081fd5b612d43612bc3565b612d4d8a87612c3e565b815260408087013560068110612d635760008081fd5b828901526060612d74888201612c9b565b8284015260809150612d87828901612c9b565b9083015260a0612d98888201612c9b565b82840152612da860c08901612a88565b908301525083529384019391850191612d23565b50979650505050505050565b600060208284031215612dda57600080fd5b813565ffffffffffff8116811461138657600080fd5b60006020808301818452808551808352604092508286019150828160051b8701018488016000805b84811015612e8157898403603f19018652825180518086529089019089860190845b81811015612e6c57835180516001600160a01b039081168552908d0151168c840152928b0192918a0191600101612e3a565b50509689019694505091870191600101612e18565b50919998505050505050505050565b60006020808385031215612ea357600080fd5b82356001600160401b0380821115612eba57600080fd5b818501915085601f830112612ece57600080fd5b8135612edc612cfa82612c1b565b81815260059190911b83018401908481019088831115612efb57600080fd5b8585015b83811015612f9257803585811115612f175760008081fd5b8601603f81018b13612f295760008081fd5b878101356040612f3b612cfa83612c1b565b82815260069290921b83018101918a8101908e841115612f5b5760008081fd5b938201935b83851015612f8157612f728f86612c3e565b825293820193908b0190612f60565b875250505092870192508601612eff565b5098975050505050505050565b600080600060608486031215612fb457600080fd5b612fbd84612ac0565b9250612fcb60208501612ac0565b9150604084013590509250925092565b600060208284031215612fed57600080fd5b61138682612c9b565b60008060006060848603121561300b57600080fd5b61301484612ac0565b925061302260208501612ac0565b915061303060408501612ac0565b90509250925092565b60006020828403121561304b57600080fd5b813563ffffffff8116811461138657600080fd5b60006020828403121561307157600080fd5b8151801515811461138657600080fd5b634e487b7160e01b600052602160045260246000fd5b6bffffffffffffffffffffffff19606093841b811682529190921b16601482015260280190565b634e487b7160e01b600052601160045260246000fd5b6000826130f157634e487b7160e01b600052601260045260246000fd5b500490565b6000816000190483118215151615613110576131106130be565b500290565b634e487b7160e01b600052600160045260246000fd5b634e487b7160e01b600052603260045260246000fd5b6000600019821415613155576131556130be565b5060010190565b6000821982111561316f5761316f6130be565b500190565b805169ffffffffffffffffffff81168114612aa057600080fd5b600080600080600060a086880312156131a657600080fd5b6131af86613174565b94506020860151935060408601519250606086015191506131d260808701613174565b90509295509295909350565b6000602082840312156131f057600080fd5b815160ff8116811461138657600080fd5b600181815b8085111561323c578160001904821115613222576132226130be565b8085161561322f57918102915b93841c9390800290613206565b509250929050565b6000826132535750600161072f565b816132605750600061072f565b816001811461327657600281146132805761329c565b600191505061072f565b60ff841115613291576132916130be565b50506001821b61072f565b5060208310610133831016604e8410600b84101617156132bf575081810a61072f565b6132c98383613201565b80600019048211156132dd576132dd6130be565b029392505050565b600061138660ff841683613244565b600082821015613306576133066130be565b50039056fea2646970667358221220ad25cfd6b030889e3a156ddb1737581d2b438065106bb949c0ebedc14cd7ff2b64736f6c634300080b0033","bytecodeSha1":"c4488588324580b4c8002e729070bd3cc088285d","type":"contract","abi":[{"inputs":[{"internalType":"contract Repository","name":"rep_","type":"address"}],"stateMutability":"nonpayable","type":"constructor","name":"constructor"},{"anonymous":false,"inputs":[{"indexed":true,"internalType":"address","name":"previousOwner","type":"address"},{"indexed":true,"internalType":"address","name":"newOwner","type":"address"}],"name":"OwnershipTransferred","type":"event"},{"anonymous":false,"inputs":[{"indexed":true,"internalType":"address","name":"left_","type":"address"},{"indexed":true,"internalType":"address","name":"right_","type":"address"},{"indexed":false,"internalType":"enum QuoteSource","name":"source_","type":"uint8"},{"indexed":false,"internalType":"uint256","name":"_quotemin_","type":"uint256"},{"indexed":false,"internalType":"uint256","name":"_quoteavg_","type":"uint256"},{"indexed":false,"internalType":"uint256","name":"quotemax_","type":"uint256"}],"name":"Quoted","type":"event"},{"anonymous":false,"inputs":[{"indexed":false,"internalType":"address","name":"left_","type":"address"},{"indexed":false,"internalType":"address","name":"right_","type":"address"}],"name":"Resolved","type":"event"},{"anonymous":false,"inputs":[{"indexed":false,"internalType":"address","name":"left_","type":"address"},{"indexed":false,"internalType":"address","name":"right_","type":"address"}],"name":"Unresolved","type":"event"},{"stateMutability":"nonpayable","type":"fallback"},{"inputs":[],"name":"STOP","outputs":[{"internalType":"bool","name":"","type":"bool"}],"stateMutability":"view","type":"function"},{"inputs":[],"name":"STOPFOREVER","outputs":[{"internalType":"bool","name":"","type":"bool"}],"stateMutability":"view","type":"function"},{"inputs":[{"internalType":"uint256","name":"val_","type":"uint256"}],"name":"UInt256ToUInt32","outputs":[{"internalType":"uint32","name":"","type":"uint32"}],"stateMutability":"pure","type":"function"},{"inputs":[{"internalType":"uint256","name":"val_","type":"uint256"}],"name":"UInt256ToUInt48","outputs":[{"internalType":"uint48","name":"","type":"uint48"}],"stateMutability":"pure","type":"function"},{"inputs":[{"internalType":"uint256","name":"val_","type":"uint256"}],"name":"UInt256ToUInt64","outputs":[{"internalType":"uint64","name":"","type":"uint64"}],"stateMutability":"pure","type":"function"},{"inputs":[{"internalType":"uint32","name":"val_","type":"uint32"}],"name":"UInt32ToUInt256","outputs":[{"internalType":"uint256","name":"","type":"uint256"}],"stateMutability":"pure","type":"function"},{"inputs":[{"internalType":"uint48","name":"val_","type":"uint48"}],"name":"UInt48ToUInt256","outputs":[{"internalType":"uint256","name":"","type":"uint256"}],"stateMutability":"pure","type":"function"},{"inputs":[{"internalType":"uint64","name":"val_","type":"uint64"}],"name":"UInt64ToUInt256","outputs":[{"internalType":"uint256","name":"","type":"uint256"}],"stateMutability":"pure","type":"function"},{"inputs":[{"internalType":"address","name":"left_","type":"address"},{"internalType":"address","name":"right_","type":"address"},{"internalType":"address","name":"feedaddress_","type":"address"}],"name":"chainlinkSet","outputs":[],"stateMutability":"nonpayable","type":"function"},{"inputs":[{"components":[{"internalType":"address","name":"_left","type":"address"},{"internalType":"address","name":"_right","type":"address"}],"internalType":"struct QuoteRef[][]","name":"_convs","type":"tuple[][]"}],"name":"complexReadOnly","outputs":[{"internalType":"uint256","name":"","type":"uint256"},{"internalType":"uint256","name":"","type":"uint256"},{"internalType":"uint256","name":"","type":"uint256"}],"stateMutability":"view","type":"function"},{"inputs":[{"internalType":"address","name":"left_","type":"address"},{"internalType":"address","name":"right_","type":"address"}],"name":"complexSearch","outputs":[{"components":[{"internalType":"address","name":"_left","type":"address"},{"internalType":"address","name":"_right","type":"address"}],"internalType":"struct QuoteRef[][]","name":"complex_","type":"tuple[][]"}],"stateMutability":"view","type":"function"},{"inputs":[{"internalType":"uint256","name":"val_","type":"uint256"},{"internalType":"uint256","name":"quote_","type":"uint256"}],"name":"convert","outputs":[{"internalType":"uint256","name":"","type":"uint256"}],"stateMutability":"pure","type":"function"},{"inputs":[],"name":"id","outputs":[{"internalType":"bytes32","name":"","type":"bytes32"}],"stateMutability":"view","type":"function"},{"inputs":[{"components":[{"components":[{"internalType":"address","name":"_left","type":"address"},{"internalType":"address","name":"_right","type":"address"}],"internalType":"struct QuoteRef","name":"_ref","type":"tuple"},{"internalType":"enum QuoteSource","name":"_source","type":"uint8"},{"internalType":"uint64","name":"_quotemin","type":"uint64"},{"internalType":"uint64","name":"_quoteavg","type":"uint64"},{"internalType":"uint64","name":"_quotemax","type":"uint64"},{"internalType":"bytes4","name":"_timestamp","type":"bytes4"}],"internalType":"struct QuoteInfo[]","name":"quotes_","type":"tuple[]"}],"name":"internalMultiSet","outputs":[],"stateMutability":"nonpayable","type":"function"},{"inputs":[{"internalType":"address","name":"left_","type":"address"},{"internalType":"address","name":"right_","type":"address"},{"internalType":"uint256","name":"quotemin_","type":"uint256"},{"internalType":"uint256","name":"quoteavg_","type":"uint256"},{"internalType":"uint256","name":"quotemax_","type":"uint256"}],"name":"internalSet","outputs":[],"stateMutability":"nonpayable","type":"function"},{"inputs":[{"internalType":"address","name":"caller_","type":"address"}],"name":"isOwner","outputs":[{"internalType":"bool","name":"","type":"bool"}],"stateMutability":"view","type":"function"},{"inputs":[],"name":"owner","outputs":[{"internalType":"address","name":"","type":"address"}],"stateMutability":"view","type":"function"},{"inputs":[{"internalType":"bytes32","name":"left_","type":"bytes32"},{"internalType":"bytes32","name":"right_","type":"bytes32"}],"name":"read","outputs":[{"internalType":"uint256","name":"","type":"uint256"},{"internalType":"uint256","name":"","type":"uint256"},{"internalType":"uint256","name":"","type":"uint256"}],"stateMutability":"nonpayable","type":"function"},{"inputs":[{"internalType":"address","name":"left_","type":"address"},{"internalType":"address","name":"right_","type":"address"}],"name":"read","outputs":[{"internalType":"uint256","name":"","type":"uint256"},{"internalType":"uint256","name":"","type":"uint256"},{"internalType":"uint256","name":"","type":"uint256"}],"stateMutability":"nonpayable","type":"function"},{"inputs":[{"internalType":"address","name":"left_","type":"address"},{"internalType":"address","name":"right_","type":"address"}],"name":"readOnly","outputs":[{"internalType":"uint256","name":"","type":"uint256"},{"internalType":"uint256","name":"","type":"uint256"},{"internalType":"uint256","name":"","type":"uint256"}],"stateMutability":"view","type":"function"},{"inputs":[{"internalType":"bytes32","name":"left_","type":"bytes32"},{"internalType":"bytes32","name":"right_","type":"bytes32"}],"name":"readOnly","outputs":[{"internalType":"uint256","name":"","type":"uint256"},{"internalType":"uint256","name":"","type":"uint256"},{"internalType":"uint256","name":"","type":"uint256"}],"stateMutability":"view","type":"function"},{"inputs":[],"name":"renounceOwnership","outputs":[],"stateMutability":"nonpayable","type":"function"},{"inputs":[],"name":"rep","outputs":[{"internalType":"contract Repository","name":"","type":"address"}],"stateMutability":"view","type":"function"},{"inputs":[],"name":"setSTOP","outputs":[],"stateMutability":"nonpayable","type":"function"},{"inputs":[],"name":"setSTOPFOREVER","outputs":[],"stateMutability":"nonpayable","type":"function"},{"inputs":[{"internalType":"address","name":"left_","type":"address"},{"internalType":"address","name":"right_","type":"address"},{"internalType":"uint256","name":"quote_","type":"uint256"}],"name":"staticSet","outputs":[],"stateMutability":"nonpayable","type":"function"},{"inputs":[{"internalType":"bytes4","name":"interfaceId","type":"bytes4"}],"name":"supportsInterface","outputs":[{"internalType":"bool","name":"","type":"bool"}],"stateMutability":"view","type":"function"},{"inputs":[{"internalType":"address","name":"newOwner","type":"address"}],"name":"transferOwnership","outputs":[],"stateMutability":"nonpayable","type":"function"},{"inputs":[],"name":"unsetSTOP","outputs":[],"stateMutability":"nonpayable","type":"function"}],"compiler":{"version":"0.8.11+commit.d7f03943","evm_version":"istanbul","optimizer":{"enabled":true,"runs":200}},"contractName":"Quotator","deployedBytecode":"608060405234801561001057600080fd5b50600436106101cf5760003560e01c80637bb759ad11610104578063af640d0f116100a2578063d693585811610071578063d6935858146104c2578063e4b16144146104ca578063f2fde38b146104dd578063feab4454146104f0576101cf565b8063af640d0f1461044f578063b03fd40d14610475578063bd28703114610488578063ccc079591461049b576101cf565b80638da5cb5b116100de5780638da5cb5b146103ee57806394f46f6f1461041957806396e4ee3d1461042c578063979620761461043f576101cf565b80637bb759ad146103b357806383e8531a146103d3578063854ba99d146103e6576101cf565b80636464b68a116101715780636968abd31161014b5780636968abd31461036f578063715018a61461038257806372ea61bf1461038a5780637af6649a14610392576101cf565b80636464b68a1461034257806365a6b3631461035c57806365e60ef214610342576101cf565b80631e8d8223116101ad5780631e8d8223146102995780632203616d146102c75780632f54bf6e146102ef5780636296514114610317576101cf565b806301ffc9a71461025457806305d6bd9c1461027c5780630df7408414610286575b6101d761051a565b60006101e7602460043684612a5e565b8080601f016020809104026020016040519081016040528093929190818152602001838380828437600092018290525060208501519495509250503660231981019150601f19016004838037816024600437600080826000875af49250505061024f816106e4565b505050005b610267610262366004612aa5565b6106fe565b60405190151581526020015b60405180910390f35b610284610735565b005b610284610294366004612ad7565b61074c565b6102ac6102a7366004612b24565b6107d3565b60408051938452602084019290925290820152606001610273565b6102da6102d5366004612b57565b610b5b565b60405163ffffffff9091168152602001610273565b6102676102fd366004612b70565b6000546201000090046001600160a01b0390811691161490565b61032a610325366004612b57565b610b6c565b6040516001600160401b039091168152602001610273565b6102ac610350366004612b8b565b60008060009250925092565b61028461036a366004612cb2565b610b9e565b6102ac61037d366004612b24565b610c85565b6102846112eb565b6102846112fd565b6103a56103a0366004612dc8565b611317565b604051908152602001610273565b6103c66103c1366004612b24565b611330565b6040516102739190612df0565b6102ac6103e1366004612e90565b61138d565b610267611544565b6000546201000090046001600160a01b03165b6040516001600160a01b039091168152602001610273565b610284610427366004612f9f565b611562565b6103a561043a366004612b8b565b6115c7565b600054610100900460ff16610267565b7f3cb99135f7a7c088d9085b446345038a22a85f4e8fe072b0e1b66d97243e74586103a5565b6103a5610483366004612fdb565b6115e6565b610284610496366004612ff6565b611600565b6104017f000000000000000000000000000000000000000000000000000000000000000081565b6102846116f2565b6103a56104d8366004613039565b61170e565b6102846104eb366004612b70565b611725565b6105036104fe366004612b57565b61179e565b60405165ffffffffffff9091168152602001610273565b6000546001600160a01b0362010000909104163314806105cd57506001600160a01b037f0000000000000000000000000000000000000000000000000000000000000000166316279055336040516001600160e01b031960e084901b1681526001600160a01b039091166004820152602401602060405180830381865afa1580156105a9573d6000803e3d6000fd5b505050506040513d601f19601f820116820180604052508101906105cd919061305f565b8061066b57506001600160a01b037f000000000000000000000000000000000000000000000000000000000000000016636d70f7ae336040516001600160e01b031960e084901b1681526001600160a01b039091166004820152602401602060405180830381865afa158015610647573d6000803e3d6000fd5b505050506040513d601f19601f8201168201806040525081019061066b919061305f565b6106e25760405162461bcd60e51b815260206004820152603960248201527f416c6c6f77616e63653a2063616c6c6572206d757374206265205265706f736960448201527f746f727920436f6e7472616374206f72204f70657261746f720000000000000060648201526084015b60405180910390fd5b565b3d6000803e8080156106f5573d6000f35b3d6000fd5b5050565b60006001600160e01b031982166301ffc9a760e01b148061072f57506001600160e01b031982166315d3789560e31b145b92915050565b61073d61051a565b6106e26000805460ff19169055565b61075461051a565b61075c612a1b565b80516001600160a01b03878116909152815190861660209182015260029082015261078684610b6c565b6001600160401b0316604082015261079d83610b6c565b6001600160401b031660608201526107b482610b6c565b6001600160401b031660808201526107cb816117af565b505050505050565b60008060008085856040516020016107ec929190613097565b60408051601f19818403018152828252805160209182012060008181526001808452848220610100870190955284546001600160a01b0390811660c08801908152918601541660e087015285526002840154919550938493849384939083019060ff16600581111561086057610860613081565b600581111561087157610871613081565b8152600291909101546001600160401b03610100820481166020840152600160481b820481166040840152600160881b82041660608301526001600160e01b0319600160c81b90910460e01b1660809091015290506005816020015160058111156108de576108de613081565b14156108f9576108ed81611c44565b9195509350915061094f565b60018160200151600581111561091157610911613081565b1415610920576108ed81611dfa565b60028160200151600581111561093857610938613081565b141561094f5761094781611dfa565b919550935091505b8215610964575091955093509150610b549050565b888a604051602001610977929190613097565b60408051601f1981840301815282825280516020918201206000818152600180845290849020610100860190945283546001600160a01b0390811660c08701908152918501541660e0860152845260028301549098509083019060ff1660058111156109e5576109e5613081565b60058111156109f6576109f6613081565b8152600291909101546001600160401b03610100820481166020840152600160481b820481166040840152600160881b82041660608301526001600160e01b0319600160c81b90910460e01b16608090910152600094508493508392509050600581602001516005811115610a6d57610a6d613081565b1415610a8857610a7c81611c44565b91955093509150610ade565b600181602001516005811115610aa057610aa0613081565b1415610aaf57610a7c81611dfa565b600281602001516005811115610ac757610ac7613081565b1415610ade57610ad681611dfa565b919550935091505b82610af85760008060009750975097505050505050610b54565b610b11846ec097ce7bc90715b34b9f10000000006130d4565b9350610b2c836ec097ce7bc90715b34b9f10000000006130d4565b9250610b47826ec097ce7bc90715b34b9f10000000006130d4565b9397509195509193505050505b9250925092565b600061072f64e8d4a51000836130d4565b600080610b7e6402540be400846130d4565b905082610b90826402540be4006130f6565b111561072f5761072f613115565b610ba661051a565b60005b81518110156106fa57610c73828281518110610bc757610bc761312b565b60200260200101516000015160000151838381518110610be957610be961312b565b60200260200101516000015160200151848481518110610c0b57610c0b61312b565b6020026020010151604001516001600160401b0316858581518110610c3257610c3261312b565b6020026020010151606001516001600160401b0316868681518110610c5957610c5961312b565b6020026020010151608001516001600160401b031661074c565b80610c7d81613141565b915050610ba9565b6000806000808585604051602001610c9e929190613097565b60408051808303601f190181529181528151602092830120600081815260019093529120600281015491925090436001600160e01b0319908116600160c81b90920460e01b161415610d9257604080516001600160a01b03808a168252881660208201527f85fe05c69e32ec3aed403e05e055faa5b8f0dec24c0f5ef97a497b8f4b8228b5910160405180910390a16002810154610d499061010090046001600160401b03166115e6565b6002820154610d6790600160481b90046001600160401b03166115e6565b6002830154610d8590600160881b90046001600160401b03166115e6565b9450945094505050610b54565b600080806005600285015460ff166005811115610db157610db1613081565b1415610e805760408051610100810190915284546001600160a01b0390811660c08301908152600187015490911660e083015281526002850154610e7491908690602083019060ff166005811115610e0b57610e0b613081565b6005811115610e1c57610e1c613081565b8152600291909101546001600160401b03610100820481166020840152600160481b820481166040840152600160881b82041660608301526001600160e01b0319600160c81b90910460e01b16608090910152611e33565b91945092509050610fda565b6001600285015460ff166005811115610e9b57610e9b613081565b1415610f5e5760408051610100810190915284546001600160a01b0390811660c08301908152600187015490911660e083015281526002850154610e7491908690602083019060ff166005811115610ef557610ef5613081565b6005811115610f0657610f06613081565b8152600291909101546001600160401b03610100820481166020840152600160481b820481166040840152600160881b82041660608301526001600160e01b0319600160c81b90910460e01b16608090910152611dfa565b60028085015460ff166005811115610f7857610f78613081565b1415610fda5760408051610100810190915284546001600160a01b0390811660c08301908152600187015490911660e083015281526002850154610fd291908690602083019060ff166005811115610ef557610ef5613081565b919450925090505b811561103257604080516001600160a01b03808d1682528b1660208201527f85fe05c69e32ec3aed403e05e055faa5b8f0dec24c0f5ef97a497b8f4b8228b5910160405180910390a191965094509250610b54915050565b888a604051602001611045929190613097565b60408051601f19818403018152918152815160209283012060008181526001909352908220909650945092508291508190506005600285015460ff16600581111561109257611092613081565b14156110f85760408051610100810190915284546001600160a01b0390811660c08301908152600187015490911660e0830152815260028501546110ec91908690602083019060ff166005811115610e0b57610e0b613081565b919450925090506111e9565b6001600285015460ff16600581111561111357611113613081565b141561116d5760408051610100810190915284546001600160a01b0390811660c08301908152600187015490911660e0830152815260028501546110ec91908690602083019060ff166005811115610ef557610ef5613081565b60028085015460ff16600581111561118757611187613081565b14156111e95760408051610100810190915284546001600160a01b0390811660c08301908152600187015490911660e0830152815260028501546111e191908690602083019060ff166005811115610ef557610ef5613081565b919450925090505b8161124657604080516001600160a01b03808d1682528b1660208201527f40431c410cc5180bf05a4efdfb1880b6095849d44d09b81b10b0aefbb6849edd910160405180910390a160008060009750975097505050505050610b54565b61125f836ec097ce7bc90715b34b9f10000000006130d4565b925061127a826ec097ce7bc90715b34b9f10000000006130d4565b9150611295816ec097ce7bc90715b34b9f10000000006130d4565b604080516001600160a01b03808e1682528c1660208201529192507f85fe05c69e32ec3aed403e05e055faa5b8f0dec24c0f5ef97a497b8f4b8228b5910160405180910390a19196509450925050509250925092565b6112f3611ecd565b6106e26000611f2e565b61130561051a565b6106e26000805460ff19166001179055565b600061072f65ffffffffffff831664174876e8006130f6565b606061138683836014600060405190808252806020026020018201604052801561138057816020015b60408051808201909152600080825260208201528152602001906001900390816113595790505b50611f89565b9392505050565b6000808080808080805b885181101561152657670de0b6b3a7640000808060005b8c85815181106113c0576113c061312b565b6020026020010151518110156114be5760008d86815181106113e4576113e461312b565b602002602001015182815181106113fd576113fd61312b565b60200260200101519050600080600061141e846000015185602001516107d3565b925092509250816000141561144a5760008060009f509f509f505050505050505050505050505061153d565b670de0b6b3a764000061145d89856130f6565b61146791906130d4565b9750670de0b6b3a764000061147c88846130f6565b61148691906130d4565b9650670de0b6b3a764000061149b87836130f6565b6114a591906130d4565b95505050505080806114b690613141565b9150506113ae565b508715806114cb57508288115b156114d4578297505b8415806114e057508085105b156114e9578094505b856114f657819650611503565b611500828861315c565b96505b8561150d81613141565b965050505050808061151e90613141565b915050611397565b5061153182846130d4565b93965092945091925050505b9193909250565b6000805460ff168061155d5750600054610100900460ff165b905090565b61156a61051a565b611572612a1b565b80516001600160a01b03858116909152815190841660209182015260019082015261159c82610b6c565b6001600160401b0316608082018190526060820181905260408201526115c1816117af565b50505050565b6000670de0b6b3a76400006115dc83856130f6565b61138691906130d4565b600061072f6001600160401b0383166402540be4006130f6565b61160861051a565b6000838360405160200161161d929190613097565b60408051808303601f19018152918152815160209283012060008181526003909352912080546001600160a01b0319166001600160a01b038516179055905081611665612a1b565b80516001600160a01b0387811690915281519086166020918201526005908201526000808061169384611c44565b9250925092506116a283610b6c565b6001600160401b031660408501526116b982610b6c565b6001600160401b031660608501526116d081610b6c565b6001600160401b031660808501526116e7846117af565b505050505050505050565b6116fa611ecd565b6106e26000805461ff001916610100179055565b600061072f63ffffffff831664e8d4a510006130f6565b61172d611ecd565b6001600160a01b0381166117925760405162461bcd60e51b815260206004820152602660248201527f4f776e61626c653a206e6577206f776e657220697320746865207a65726f206160448201526564647265737360d01b60648201526084016106d9565b61179b81611f2e565b50565b600061072f64174876e800836130d4565b805180516020918201516040516000936117cb93929101613097565b60408051601f19818403018152828252805160209182012060008181526001808452848220610100870190955284546001600160a01b0390811660c08801908152918601541660e08701528552600284015491955093929183019060ff16600581111561183a5761183a613081565b600581111561184b5761184b613081565b81526002919091015461010081046001600160401b03908116602080850191909152600160481b830482166040850152600160881b83049091166060840152600160c81b90910460e01b6001600160e01b03191660809092019190915284015190915060058111156118bf576118bf613081565b816020015160058111156118d5576118d5613081565b14611a8757825180516020909101516118ee9190612713565b82515181516001600160a01b039182169052835160209081015183519216918101919091528084015190820190600581111561192c5761192c613081565b9081600581111561193f5761193f613081565b9052508251516001600160a01b0390811660009081526002602090815260409182902086519091015191516316f4b92960e21b815260048101919091529116602482015273__$f71e59c5327218924d154e230469c101bd$__90635bd2e4a490604401602060405180830381865af41580156119bf573d6000803e3d6000fd5b505050506040513d601f19601f820116820180604052508101906119e3919061305f565b5082516020908101516001600160a01b039081166000908152600290925260409182902085515192516316f4b92960e21b815260048101919091529116602482015273__$f71e59c5327218924d154e230469c101bd$__90635bd2e4a490604401602060405180830381865af4158015611a61573d6000803e3d6000fd5b505050506040513d601f19601f82011682018060405250810190611a85919061305f565b505b6001600160e01b0319431660a0820152604080840151908201516001600160401b039081169116148015611ad4575082606001516001600160401b031681606001516001600160401b0316145b8015611af9575082608001516001600160401b031681608001516001600160401b0316145b15611b0357505050565b6040838101516001600160401b039081168383015260608086015182169084015260808086015190911690830152600083815260016020818152929091208351805182546001600160a01b03199081166001600160a01b0392831617845591850151838501805490931691161790559183015160028301805485949360ff1990911690836005811115611b9857611b98613081565b02179055506040820151600290910180546060840151608085015160a09095015160e01c600160c81b0263ffffffff60c81b196001600160401b03968716600160881b02166bffffffffffffffffffffffff60881b19928716600160481b0270ffffffffffffffff0000000000000000001997909616610100029690961670ffffffffffffffffffffffffffffffff001990931692909217939093179290921692909217179055505050565b80518051602091820151604051600093849384938493611c649301613097565b60408051601f1981840301815282825280516020918201206000818152600390925282822054633fabe5a360e21b8552925190945090926001600160a01b039092169163feaf968c9160048083019260a09291908290030181865afa158015611cd1573d6000803e3d6000fd5b505050506040513d601f19601f82011682018060405250810190611cf5919061318e565b50505091505060008113611d4b5760405162461bcd60e51b815260206004820181905260248201527f436861696e6c696e6b2071756f7465206d75737420626520706f73697469766560448201526064016106d9565b60008281526003602090815260409182902054825163313ce56760e01b8152925184936001600160a01b039092169263313ce56792600480820193918290030181865afa158015611da0573d6000803e3d6000fd5b505050506040513d601f19601f82011682018060405250810190611dc491906131de565b611dcf90600a6132e5565b611de190670de0b6b3a76400006130d4565b611deb90826130f6565b97889750879650945050505050565b6000806000611e0c84604001516115e6565b611e1985606001516115e6565b611e2686608001516115e6565b9250925092509193909250565b60008060004360001b6001600160e01b0319168460a001516001600160e01b03191614611ec0576000806000611e6887611c44565b925092509250611e7783610b6c565b6001600160401b03166040880152611e8e82610b6c565b6001600160401b03166060880152611ea581610b6c565b6001600160401b03166080880152611ebc876117af565b5050505b611e0c84604001516115e6565b6000546001600160a01b03620100009091041633146106e25760405162461bcd60e51b815260206004820152601f60248201527f416c6c6f77616e63653a2063616c6c6572206d757374206265204f776e65720060448201526064016106d9565b600080546001600160a01b038381166201000081810262010000600160b01b0319851617855560405193049190911692909183917f8be0079c531659141344cd1fd0a4f28419497f9722a3daafe3b4186f6b6457e091a35050565b6001600160a01b0384166000908152600260209081526040808320805482518185028101850190935280835260609493830182828015611ff257602002820191906000526020600020905b81546001600160a01b03168152600190910190602001808311611fd4575b509394506000935061200392505050565b60405190808252806020026020018201604052801561203657816020015b60608152602001906001900390816120215790505b50915060005b81518110156127095760005b845181101561217d57876001600160a01b031685828151811061206d5761206d61312b565b6020026020010151600001516001600160a01b03161480156120d6575082828151811061209c5761209c61312b565b60200260200101516001600160a01b03168582815181106120bf576120bf61312b565b6020026020010151602001516001600160a01b0316145b806121615750876001600160a01b03168582815181106120f8576120f861312b565b6020026020010151602001516001600160a01b031614801561216157508282815181106121275761212761312b565b60200260200101516001600160a01b031685828151811061214a5761214a61312b565b6020026020010151600001516001600160a01b0316145b1561216b5761217d565b8061217581613141565b915050612048565b845181101561218c57506126f7565b866001600160a01b03168383815181106121a8576121a861312b565b60200260200101516001600160a01b0316141561244b576000600160008a8a6040516020016121d8929190613097565b60408051601f1981840301815291815281516020928301208352908201929092520160002090506003600282015460ff16600581111561221a5761221a613081565b1415801561224157506004600282015460ff16600581111561223e5761223e613081565b14155b1561244957600086516001612256919061315c565b6001600160401b0381111561226d5761226d612bad565b6040519080825280602002602001820160405280156122b257816020015b604080518082019091526000808252602082015281526020019060019003908161228b5790505b509050600092505b865183101561230d578683815181106122d5576122d561312b565b60200260200101518184815181106122ef576122ef61312b565b6020026020010181905250828061230590613141565b9350506122ba565b898184815181106123205761232061312b565b6020026020010151600001906001600160a01b031690816001600160a01b031681525050888184815181106123575761235761312b565b6020908102919091018101516001600160a01b03909216910152855160009061238190600161315c565b6001600160401b0381111561239857612398612bad565b6040519080825280602002602001820160405280156123cb57816020015b60608152602001906001900390816123b65790505b509050600093505b8651841015612426578684815181106123ee576123ee61312b565b60200260200101518185815181106124085761240861312b565b6020026020010181905250838061241e90613141565b9450506123d3565b818188518151811061243a5761243a61312b565b60209081029190910101529550505b505b856124565750612709565b600085516001612466919061315c565b6001600160401b0381111561247d5761247d612bad565b6040519080825280602002602001820160405280156124c257816020015b604080518082019091526000808252602082015281526020019060019003908161249b5790505b509050600091505b855182101561251d578582815181106124e5576124e561312b565b60200260200101518183815181106124ff576124ff61312b565b6020026020010181905250818061251590613141565b9250506124ca565b888183815181106125305761253061312b565b60209081029190910101516001600160a01b039091169052835184908490811061255c5761255c61312b565b60200260200101518183815181106125765761257661312b565b6020026020010151602001906001600160a01b031690816001600160a01b03168152505060006125cd8585815181106125b1576125b161312b565b60200260200101518a60018b6125c791906132f4565b85611f89565b8051909150156126f3576000865182516125e7919061315c565b6001600160401b038111156125fe576125fe612bad565b60405190808252806020026020018201604052801561263157816020015b606081526020019060019003908161261c5790505b509050600093505b865184101561268c578684815181106126545761265461312b565b602002602001015181858151811061266e5761266e61312b565b6020026020010181905250838061268490613141565b945050612639565b600093505b81518410156126f0578184815181106126ac576126ac61312b565b6020026020010151818589516126c2919061315c565b815181106126d2576126d261312b565b602002602001018190525083806126e890613141565b945050612691565b95505b5050505b8061270181613141565b91505061203c565b5050949350505050565b60008282604051602001612728929190613097565b60408051601f19818403018152828252805160209182012060008181526001808452848220610100870190955284546001600160a01b0390811660c08801908152918601541660e08701528552600284015491955093929183019060ff16600581111561279757612797613081565b60058111156127a8576127a8613081565b8152600291909101546001600160401b03610100820481166020840152600160481b820481166040840152600160881b82041660608301526001600160e01b0319600160c81b90910460e01b16608090910152905060008160200151600581111561281557612815613081565b14156128215750505050565b60058160200151600581111561283957612839613081565b14156128495761284984846129cf565b8051516001600160a01b03908116600090815260026020908152604091829020845190910151915163edefe12d60e01b815260048101919091529116602482015273__$f71e59c5327218924d154e230469c101bd$__9063edefe12d90604401602060405180830381865af41580156128c6573d6000803e3d6000fd5b505050506040513d601f19601f820116820180604052508101906128ea919061305f565b5080516020908101516001600160a01b0390811660009081526002909252604091829020835151925163edefe12d60e01b815260048101919091529116602482015273__$f71e59c5327218924d154e230469c101bd$__9063edefe12d90604401602060405180830381865af4158015612968573d6000803e3d6000fd5b505050506040513d601f19601f8201168201806040525081019061298c919061305f565b5050600090815260016020819052604090912080546001600160a01b03199081168255918101805490921690915560020180546001600160e81b03191690555050565b600082826040516020016129e4929190613097565b60408051601f19818403018152918152815160209283012060009081526003909252902080546001600160a01b0319169055505050565b6040805161010081018252600060c0820181815260e08301829052825260208201819052918101829052606081018290526080810182905260a081019190915290565b60008085851115612a6e57600080fd5b83861115612a7b57600080fd5b5050820193919092039150565b80356001600160e01b031981168114612aa057600080fd5b919050565b600060208284031215612ab757600080fd5b61138682612a88565b80356001600160a01b0381168114612aa057600080fd5b600080600080600060a08688031215612aef57600080fd5b612af886612ac0565b9450612b0660208701612ac0565b94979496505050506040830135926060810135926080909101359150565b60008060408385031215612b3757600080fd5b612b4083612ac0565b9150612b4e60208401612ac0565b90509250929050565b600060208284031215612b6957600080fd5b5035919050565b600060208284031215612b8257600080fd5b61138682612ac0565b60008060408385031215612b9e57600080fd5b50508035926020909101359150565b634e487b7160e01b600052604160045260246000fd5b60405160c081016001600160401b0381118282101715612be557612be5612bad565b60405290565b604051601f8201601f191681016001600160401b0381118282101715612c1357612c13612bad565b604052919050565b60006001600160401b03821115612c3457612c34612bad565b5060051b60200190565b600060408284031215612c5057600080fd5b604051604081018181106001600160401b0382111715612c7257612c72612bad565b604052905080612c8183612ac0565b8152612c8f60208401612ac0565b60208201525092915050565b80356001600160401b0381168114612aa057600080fd5b60006020808385031215612cc557600080fd5b82356001600160401b03811115612cdb57600080fd5b8301601f81018513612cec57600080fd5b8035612cff612cfa82612c1b565b612beb565b81815260e09182028301840191848201919088841115612d1e57600080fd5b938501935b83851015612dbc5780858a031215612d3b5760008081fd5b612d43612bc3565b612d4d8a87612c3e565b815260408087013560068110612d635760008081fd5b828901526060612d74888201612c9b565b8284015260809150612d87828901612c9b565b9083015260a0612d98888201612c9b565b82840152612da860c08901612a88565b908301525083529384019391850191612d23565b50979650505050505050565b600060208284031215612dda57600080fd5b813565ffffffffffff8116811461138657600080fd5b60006020808301818452808551808352604092508286019150828160051b8701018488016000805b84811015612e8157898403603f19018652825180518086529089019089860190845b81811015612e6c57835180516001600160a01b039081168552908d0151168c840152928b0192918a0191600101612e3a565b50509689019694505091870191600101612e18565b50919998505050505050505050565b60006020808385031215612ea357600080fd5b82356001600160401b0380821115612eba57600080fd5b818501915085601f830112612ece57600080fd5b8135612edc612cfa82612c1b565b81815260059190911b83018401908481019088831115612efb57600080fd5b8585015b83811015612f9257803585811115612f175760008081fd5b8601603f81018b13612f295760008081fd5b878101356040612f3b612cfa83612c1b565b82815260069290921b83018101918a8101908e841115612f5b5760008081fd5b938201935b83851015612f8157612f728f86612c3e565b825293820193908b0190612f60565b875250505092870192508601612eff565b5098975050505050505050565b600080600060608486031215612fb457600080fd5b612fbd84612ac0565b9250612fcb60208501612ac0565b9150604084013590509250925092565b600060208284031215612fed57600080fd5b61138682612c9b565b60008060006060848603121561300b57600080fd5b61301484612ac0565b925061302260208501612ac0565b915061303060408501612ac0565b90509250925092565b60006020828403121561304b57600080fd5b813563ffffffff8116811461138657600080fd5b60006020828403121561307157600080fd5b8151801515811461138657600080fd5b634e487b7160e01b600052602160045260246000fd5b6bffffffffffffffffffffffff19606093841b811682529190921b16601482015260280190565b634e487b7160e01b600052601160045260246000fd5b6000826130f157634e487b7160e01b600052601260045260246000fd5b500490565b6000816000190483118215151615613110576131106130be565b500290565b634e487b7160e01b600052600160045260246000fd5b634e487b7160e01b600052603260045260246000fd5b6000600019821415613155576131556130be565b5060010190565b6000821982111561316f5761316f6130be565b500190565b805169ffffffffffffffffffff81168114612aa057600080fd5b600080600080600060a086880312156131a657600080fd5b6131af86613174565b94506020860151935060408601519250606086015191506131d260808701613174565b90509295509295909350565b6000602082840312156131f057600080fd5b815160ff8116811461138657600080fd5b600181815b8085111561323c578160001904821115613222576132226130be565b8085161561322f57918102915b93841c9390800290613206565b509250929050565b6000826132535750600161072f565b816132605750600061072f565b816001811461327657600281146132805761329c565b600191505061072f565b60ff841115613291576132916130be565b50506001821b61072f565b5060208310610133831016604e8410600b84101617156132bf575081810a61072f565b6132c98383613201565b80600019048211156132dd576132dd6130be565b029392505050565b600061138660ff841683613244565b600082821015613306576133066130be565b50039056fea2646970667358221220ad25cfd6b030889e3a156ddb1737581d2b438065106bb949c0ebedc14cd7ff2b64736f6c634300080b0033","language":"Solidity","natspec":{"methods":{"ownerOf()":{"details":"Returns the address of the current owner."},"renounceOwnership()":{"details":"Leaves the contract without owner. It will not be possible to call `onlyOwner` functions anymore. Can only be called by the current owner. NOTE: Renouncing ownership will leave the contract without an owner, thereby removing any functionality that is only available to the owner."},"supportsInterface(bytes4)":{"details":"Returns true if this contract implements the interface defined by `interfaceId`. See the corresponding https://eips.ethereum.org/EIPS/eip-165#how-interfaces-are-identified[EIP section] to learn more about how these ids are created. This function call must use less than 30 000 gas."},"transferOwnership(address)":{"details":"Transfers ownership of the contract to a new account (`newOwner`). Can only be called by the current owner."}},"kind":"dev","version":1},"opcodes":"PUSH1 0x80 PUSH1 0x40 MSTORE CALLVALUE DUP1 ISZERO PUSH2 0x10 JUMPI PUSH1 0x0 DUP1 REVERT JUMPDEST POP PUSH1 0x4 CALLDATASIZE LT PUSH2 0x1CF JUMPI PUSH1 0x0 CALLDATALOAD PUSH1 0xE0 SHR DUP1 PUSH4 0x7BB759AD GT PUSH2 0x104 JUMPI DUP1 PUSH4 0xAF640D0F GT PUSH2 0xA2 JUMPI DUP1 PUSH4 0xD6935858 GT PUSH2 0x71 JUMPI DUP1 PUSH4 0xD6935858 EQ PUSH2 0x4C2 JUMPI DUP1 PUSH4 0xE4B16144 EQ PUSH2 0x4CA JUMPI DUP1 PUSH4 0xF2FDE38B EQ PUSH2 0x4DD JUMPI DUP1 PUSH4 0xFEAB4454 EQ PUSH2 0x4F0 JUMPI PUSH2 0x1CF JUMP JUMPDEST DUP1 PUSH4 0xAF640D0F EQ PUSH2 0x44F JUMPI DUP1 PUSH4 0xB03FD40D EQ PUSH2 0x475 JUMPI DUP1 PUSH4 0xBD287031 EQ PUSH2 0x488 JUMPI DUP1 PUSH4 0xCCC07959 EQ PUSH2 0x49B JUMPI PUSH2 0x1CF JUMP JUMPDEST DUP1 PUSH4 0x8DA5CB5B GT PUSH2 0xDE JUMPI DUP1 PUSH4 0x8DA5CB5B EQ PUSH2 0x3EE JUMPI DUP1 PUSH4 0x94F46F6F EQ PUSH2 0x419 JUMPI DUP1 PUSH4 0x96E4EE3D EQ PUSH2 0x42C JUMPI DUP1 PUSH4 0x97962076 EQ PUSH2 0x43F JUMPI PUSH2 0x1CF JUMP JUMPDEST DUP1 PUSH4 0x7BB759AD EQ PUSH2 0x3B3 JUMPI DUP1 PUSH4 0x83E8531A EQ PUSH2 0x3D3 JUMPI DUP1 PUSH4 0x854BA99D EQ PUSH2 0x3E6 JUMPI PUSH2 0x1CF JUMP JUMPDEST DUP1 PUSH4 0x6464B68A GT PUSH2 0x171 JUMPI DUP1 PUSH4 0x6968ABD3 GT PUSH2 0x14B JUMPI DUP1 PUSH4 0x6968ABD3 EQ PUSH2 0x36F JUMPI DUP1 PUSH4 0x715018A6 EQ PUSH2 0x382 JUMPI DUP1 PUSH4 0x72EA61BF EQ PUSH2 0x38A JUMPI DUP1 PUSH4 0x7AF6649A EQ PUSH2 0x392 JUMPI PUSH2 0x1CF JUMP JUMPDEST DUP1 PUSH4 0x6464B68A EQ PUSH2 0x342 JUMPI DUP1 PUSH4 0x65A6B363 EQ PUSH2 0x35C JUMPI DUP1 PUSH4 0x65E60EF2 EQ PUSH2 0x342 JUMPI PUSH2 0x1CF JUMP JUMPDEST DUP1 PUSH4 0x1E8D8223 GT PUSH2 0x1AD JUMPI DUP1 PUSH4 0x1E8D8223 EQ PUSH2 0x299 JUMPI DUP1 PUSH4 0x2203616D EQ PUSH2 0x2C7 JUMPI DUP1 PUSH4 0x2F54BF6E EQ PUSH2 0x2EF JUMPI DUP1 PUSH4 0x62965141 EQ PUSH2 0x317 JUMPI PUSH2 0x1CF JUMP JUMPDEST DUP1 PUSH4 0x1FFC9A7 EQ PUSH2 0x254 JUMPI DUP1 PUSH4 0x5D6BD9C EQ PUSH2 0x27C JUMPI DUP1 PUSH4 0xDF74084 EQ PUSH2 0x286 JUMPI JUMPDEST PUSH2 0x1D7 PUSH2 0x51A JUMP JUMPDEST PUSH1 0x0 PUSH2 0x1E7 PUSH1 0x24 PUSH1 0x4 CALLDATASIZE DUP5 PUSH2 0x2A5E JUMP JUMPDEST DUP1 DUP1 PUSH1 0x1F ADD PUSH1 0x20 DUP1 SWAP2 DIV MUL PUSH1 0x20 ADD PUSH1 0x40 MLOAD SWAP1 DUP2 ADD PUSH1 0x40 MSTORE DUP1 SWAP4 SWAP3 SWAP2 SWAP1 DUP2 DUP2 MSTORE PUSH1 0x20 ADD DUP4 DUP4 DUP1 DUP3 DUP5 CALLDATACOPY PUSH1 0x0 SWAP3 ADD DUP3 SWAP1 MSTORE POP PUSH1 0x20 DUP6 ADD MLOAD SWAP5 SWAP6 POP SWAP3 POP POP CALLDATASIZE PUSH1 0x23 NOT DUP2 ADD SWAP2 POP PUSH1 0x1F NOT ADD PUSH1 0x4 DUP4 DUP1 CALLDATACOPY DUP2 PUSH1 0x24 PUSH1 0x4 CALLDATACOPY PUSH1 0x0 DUP1 DUP3 PUSH1 0x0 DUP8 GAS DELEGATECALL SWAP3 POP POP POP PUSH2 0x24F DUP2 PUSH2 0x6E4 JUMP JUMPDEST POP POP POP STOP JUMPDEST PUSH2 0x267 PUSH2 0x262 CALLDATASIZE PUSH1 0x4 PUSH2 0x2AA5 JUMP JUMPDEST PUSH2 0x6FE JUMP JUMPDEST PUSH1 0x40 MLOAD SWAP1 ISZERO ISZERO DUP2 MSTORE PUSH1 0x20 ADD JUMPDEST PUSH1 0x40 MLOAD DUP1 SWAP2 SUB SWAP1 RETURN JUMPDEST PUSH2 0x284 PUSH2 0x735 JUMP JUMPDEST STOP JUMPDEST PUSH2 0x284 PUSH2 0x294 CALLDATASIZE PUSH1 0x4 PUSH2 0x2AD7 JUMP JUMPDEST PUSH2 0x74C JUMP JUMPDEST PUSH2 0x2AC PUSH2 0x2A7 CALLDATASIZE PUSH1 0x4 PUSH2 0x2B24 JUMP JUMPDEST PUSH2 0x7D3 JUMP JUMPDEST PUSH1 0x40 DUP1 MLOAD SWAP4 DUP5 MSTORE PUSH1 0x20 DUP5 ADD SWAP3 SWAP1 SWAP3 MSTORE SWAP1 DUP3 ADD MSTORE PUSH1 0x60 ADD PUSH2 0x273 JUMP JUMPDEST PUSH2 0x2DA PUSH2 0x2D5 CALLDATASIZE PUSH1 0x4 PUSH2 0x2B57 JUMP JUMPDEST PUSH2 0xB5B JUMP JUMPDEST PUSH1 0x40 MLOAD PUSH4 0xFFFFFFFF SWAP1 SWAP2 AND DUP2 MSTORE PUSH1 0x20 ADD PUSH2 0x273 JUMP JUMPDEST PUSH2 0x267 PUSH2 0x2FD CALLDATASIZE PUSH1 0x4 PUSH2 0x2B70 JUMP JUMPDEST PUSH1 0x0 SLOAD PUSH3 0x10000 SWAP1 DIV PUSH1 0x1 PUSH1 0x1 PUSH1 0xA0 SHL SUB SWAP1 DUP2 AND SWAP2 AND EQ SWAP1 JUMP JUMPDEST PUSH2 0x32A PUSH2 0x325 CALLDATASIZE PUSH1 0x4 PUSH2 0x2B57 JUMP JUMPDEST PUSH2 0xB6C JUMP JUMPDEST PUSH1 0x40 MLOAD PUSH1 0x1 PUSH1 0x1 PUSH1 0x40 SHL SUB SWAP1 SWAP2 AND DUP2 MSTORE PUSH1 0x20 ADD PUSH2 0x273 JUMP JUMPDEST PUSH2 0x2AC PUSH2 0x350 CALLDATASIZE PUSH1 0x4 PUSH2 0x2B8B JUMP JUMPDEST PUSH1 0x0 DUP1 PUSH1 0x0 SWAP3 POP SWAP3 POP SWAP3 JUMP JUMPDEST PUSH2 0x284 PUSH2 0x36A CALLDATASIZE PUSH1 0x4 PUSH2 0x2CB2 JUMP JUMPDEST PUSH2 0xB9E JUMP JUMPDEST PUSH2 0x2AC PUSH2 0x37D CALLDATASIZE PUSH1 0x4 PUSH2 0x2B24 JUMP JUMPDEST PUSH2 0xC85 JUMP JUMPDEST PUSH2 0x284 PUSH2 0x12EB JUMP JUMPDEST PUSH2 0x284 PUSH2 0x12FD JUMP JUMPDEST PUSH2 0x3A5 PUSH2 0x3A0 CALLDATASIZE PUSH1 0x4 PUSH2 0x2DC8 JUMP JUMPDEST PUSH2 0x1317 JUMP JUMPDEST PUSH1 0x40 MLOAD SWAP1 DUP2 MSTORE PUSH1 0x20 ADD PUSH2 0x273 JUMP JUMPDEST PUSH2 0x3C6 PUSH2 0x3C1 CALLDATASIZE PUSH1 0x4 PUSH2 0x2B24 JUMP JUMPDEST PUSH2 0x1330 JUMP JUMPDEST PUSH1 0x40 MLOAD PUSH2 0x273 SWAP2 SWAP1 PUSH2 0x2DF0 JUMP JUMPDEST PUSH2 0x2AC PUSH2 0x3E1 CALLDATASIZE PUSH1 0x4 PUSH2 0x2E90 JUMP JUMPDEST PUSH2 0x138D JUMP JUMPDEST PUSH2 0x267 PUSH2 0x1544 JUMP JUMPDEST PUSH1 0x0 SLOAD PUSH3 0x10000 SWAP1 DIV PUSH1 0x1 PUSH1 0x1 PUSH1 0xA0 SHL SUB AND JUMPDEST PUSH1 0x40 MLOAD PUSH1 0x1 PUSH1 0x1 PUSH1 0xA0 SHL SUB SWAP1 SWAP2 AND DUP2 MSTORE PUSH1 0x20 ADD PUSH2 0x273 JUMP JUMPDEST PUSH2 0x284 PUSH2 0x427 CALLDATASIZE PUSH1 0x4 PUSH2 0x2F9F JUMP JUMPDEST PUSH2 0x1562 JUMP JUMPDEST PUSH2 0x3A5 PUSH2 0x43A CALLDATASIZE PUSH1 0x4 PUSH2 0x2B8B JUMP JUMPDEST PUSH2 0x15C7 JUMP JUMPDEST PUSH1 0x0 SLOAD PUSH2 0x100 SWAP1 DIV PUSH1 0xFF AND PUSH2 0x267 JUMP JUMPDEST PUSH32 0x3CB99135F7A7C088D9085B446345038A22A85F4E8FE072B0E1B66D97243E7458 PUSH2 0x3A5 JUMP JUMPDEST PUSH2 0x3A5 PUSH2 0x483 CALLDATASIZE PUSH1 0x4 PUSH2 0x2FDB JUMP JUMPDEST PUSH2 0x15E6 JUMP JUMPDEST PUSH2 0x284 PUSH2 0x496 CALLDATASIZE PUSH1 0x4 PUSH2 0x2FF6 JUMP JUMPDEST PUSH2 0x1600 JUMP JUMPDEST PUSH2 0x401 PUSH32 0x0 DUP2 JUMP JUMPDEST PUSH2 0x284 PUSH2 0x16F2 JUMP JUMPDEST PUSH2 0x3A5 PUSH2 0x4D8 CALLDATASIZE PUSH1 0x4 PUSH2 0x3039 JUMP JUMPDEST PUSH2 0x170E JUMP JUMPDEST PUSH2 0x284 PUSH2 0x4EB CALLDATASIZE PUSH1 0x4 PUSH2 0x2B70 JUMP JUMPDEST PUSH2 0x1725 JUMP JUMPDEST PUSH2 0x503 PUSH2 0x4FE CALLDATASIZE PUSH1 0x4 PUSH2 0x2B57 JUMP JUMPDEST PUSH2 0x179E JUMP JUMPDEST PUSH1 0x40 MLOAD PUSH6 0xFFFFFFFFFFFF SWAP1 SWAP2 AND DUP2 MSTORE PUSH1 0x20 ADD PUSH2 0x273 JUMP JUMPDEST PUSH1 0x0 SLOAD PUSH1 0x1 PUSH1 0x1 PUSH1 0xA0 SHL SUB PUSH3 0x10000 SWAP1 SWAP2 DIV AND CALLER EQ DUP1 PUSH2 0x5CD JUMPI POP PUSH1 0x1 PUSH1 0x1 PUSH1 0xA0 SHL SUB PUSH32 0x0 AND PUSH4 0x16279055 CALLER PUSH1 0x40 MLOAD PUSH1 0x1 PUSH1 0x1 PUSH1 0xE0 SHL SUB NOT PUSH1 0xE0 DUP5 SWAP1 SHL AND DUP2 MSTORE PUSH1 0x1 PUSH1 0x1 PUSH1 0xA0 SHL SUB SWAP1 SWAP2 AND PUSH1 0x4 DUP3 ADD MSTORE PUSH1 0x24 ADD PUSH1 0x20 PUSH1 0x40 MLOAD DUP1 DUP4 SUB DUP2 DUP7 GAS STATICCALL ISZERO DUP1 ISZERO PUSH2 0x5A9 JUMPI RETURNDATASIZE PUSH1 0x0 DUP1 RETURNDATACOPY RETURNDATASIZE PUSH1 0x0 REVERT JUMPDEST POP POP POP POP PUSH1 0x40 MLOAD RETURNDATASIZE PUSH1 0x1F NOT PUSH1 0x1F DUP3 ADD AND DUP3 ADD DUP1 PUSH1 0x40 MSTORE POP DUP2 ADD SWAP1 PUSH2 0x5CD SWAP2 SWAP1 PUSH2 0x305F JUMP JUMPDEST DUP1 PUSH2 0x66B JUMPI POP PUSH1 0x1 PUSH1 0x1 PUSH1 0xA0 SHL SUB PUSH32 0x0 AND PUSH4 0x6D70F7AE CALLER PUSH1 0x40 MLOAD PUSH1 0x1 PUSH1 0x1 PUSH1 0xE0 SHL SUB NOT PUSH1 0xE0 DUP5 SWAP1 SHL AND DUP2 MSTORE PUSH1 0x1 PUSH1 0x1 PUSH1 0xA0 SHL SUB SWAP1 SWAP2 AND PUSH1 0x4 DUP3 ADD MSTORE PUSH1 0x24 ADD PUSH1 0x20 PUSH1 0x40 MLOAD DUP1 DUP4 SUB DUP2 DUP7 GAS STATICCALL ISZERO DUP1 ISZERO PUSH2 0x647 JUMPI RETURNDATASIZE PUSH1 0x0 DUP1 RETURNDATACOPY RETURNDATASIZE PUSH1 0x0 REVERT JUMPDEST POP POP POP POP PUSH1 0x40 MLOAD RETURNDATASIZE PUSH1 0x1F NOT PUSH1 0x1F DUP3 ADD AND DUP3 ADD DUP1 PUSH1 0x40 MSTORE POP DUP2 ADD SWAP1 PUSH2 0x66B SWAP2 SWAP1 PUSH2 0x305F JUMP JUMPDEST PUSH2 0x6E2 JUMPI PUSH1 0x40 MLOAD PUSH3 0x461BCD PUSH1 0xE5 SHL DUP2 MSTORE PUSH1 0x20 PUSH1 0x4 DUP3 ADD MSTORE PUSH1 0x39 PUSH1 0x24 DUP3 ADD MSTORE PUSH32 0x416C6C6F77616E63653A2063616C6C6572206D757374206265205265706F7369 PUSH1 0x44 DUP3 ADD MSTORE PUSH32 0x746F727920436F6E7472616374206F72204F70657261746F7200000000000000 PUSH1 0x64 DUP3 ADD MSTORE PUSH1 0x84 ADD JUMPDEST PUSH1 0x40 MLOAD DUP1 SWAP2 SUB SWAP1 REVERT JUMPDEST JUMP JUMPDEST RETURNDATASIZE PUSH1 0x0 DUP1 RETURNDATACOPY DUP1 DUP1 ISZERO PUSH2 0x6F5 JUMPI RETURNDATASIZE PUSH1 0x0 RETURN JUMPDEST RETURNDATASIZE PUSH1 0x0 REVERT JUMPDEST POP POP JUMP JUMPDEST PUSH1 0x0 PUSH1 0x1 PUSH1 0x1 PUSH1 0xE0 SHL SUB NOT DUP3 AND PUSH4 0x1FFC9A7 PUSH1 0xE0 SHL EQ DUP1 PUSH2 0x72F JUMPI POP PUSH1 0x1 PUSH1 0x1 PUSH1 0xE0 SHL SUB NOT DUP3 AND PUSH4 0x15D37895 PUSH1 0xE3 SHL EQ JUMPDEST SWAP3 SWAP2 POP POP JUMP JUMPDEST PUSH2 0x73D PUSH2 0x51A JUMP JUMPDEST PUSH2 0x6E2 PUSH1 0x0 DUP1 SLOAD PUSH1 0xFF NOT AND SWAP1 SSTORE JUMP JUMPDEST PUSH2 0x754 PUSH2 0x51A JUMP JUMPDEST PUSH2 0x75C PUSH2 0x2A1B JUMP JUMPDEST DUP1 MLOAD PUSH1 0x1 PUSH1 0x1 PUSH1 0xA0 SHL SUB DUP8 DUP2 AND SWAP1 SWAP2 MSTORE DUP2 MLOAD SWAP1 DUP7 AND PUSH1 0x20 SWAP2 DUP3 ADD MSTORE PUSH1 0x2 SWAP1 DUP3 ADD MSTORE PUSH2 0x786 DUP5 PUSH2 0xB6C JUMP JUMPDEST PUSH1 0x1 PUSH1 0x1 PUSH1 0x40 SHL SUB AND PUSH1 0x40 DUP3 ADD MSTORE PUSH2 0x79D DUP4 PUSH2 0xB6C JUMP JUMPDEST PUSH1 0x1 PUSH1 0x1 PUSH1 0x40 SHL SUB AND PUSH1 0x60 DUP3 ADD MSTORE PUSH2 0x7B4 DUP3 PUSH2 0xB6C JUMP JUMPDEST PUSH1 0x1 PUSH1 0x1 PUSH1 0x40 SHL SUB AND PUSH1 0x80 DUP3 ADD MSTORE PUSH2 0x7CB DUP2 PUSH2 0x17AF JUMP JUMPDEST POP POP POP POP POP POP JUMP JUMPDEST PUSH1 0x0 DUP1 PUSH1 0x0 DUP1 DUP6 DUP6 PUSH1 0x40 MLOAD PUSH1 0x20 ADD PUSH2 0x7EC SWAP3 SWAP2 SWAP1 PUSH2 0x3097 JUMP JUMPDEST PUSH1 0x40 DUP1 MLOAD PUSH1 0x1F NOT DUP2 DUP5 SUB ADD DUP2 MSTORE DUP3 DUP3 MSTORE DUP1 MLOAD PUSH1 0x20 SWAP2 DUP3 ADD KECCAK256 PUSH1 0x0 DUP2 DUP2 MSTORE PUSH1 0x1 DUP1 DUP5 MSTORE DUP5 DUP3 KECCAK256 PUSH2 0x100 DUP8 ADD SWAP1 SWAP6 MSTORE DUP5 SLOAD PUSH1 0x1 PUSH1 0x1 PUSH1 0xA0 SHL SUB SWAP1 DUP2 AND PUSH1 0xC0 DUP9 ADD SWAP1 DUP2 MSTORE SWAP2 DUP7 ADD SLOAD AND PUSH1 0xE0 DUP8 ADD MSTORE DUP6 MSTORE PUSH1 0x2 DUP5 ADD SLOAD SWAP2 SWAP6 POP SWAP4 DUP5 SWAP4 DUP5 SWAP4 DUP5 SWAP4 SWAP1 DUP4 ADD SWAP1 PUSH1 0xFF AND PUSH1 0x5 DUP2 GT ISZERO PUSH2 0x860 JUMPI PUSH2 0x860 PUSH2 0x3081 JUMP JUMPDEST PUSH1 0x5 DUP2 GT ISZERO PUSH2 0x871 JUMPI PUSH2 0x871 PUSH2 0x3081 JUMP JUMPDEST DUP2 MSTORE PUSH1 0x2 SWAP2 SWAP1 SWAP2 ADD SLOAD PUSH1 0x1 PUSH1 0x1 PUSH1 0x40 SHL SUB PUSH2 0x100 DUP3 DIV DUP2 AND PUSH1 0x20 DUP5 ADD MSTORE PUSH1 0x1 PUSH1 0x48 SHL DUP3 DIV DUP2 AND PUSH1 0x40 DUP5 ADD MSTORE PUSH1 0x1 PUSH1 0x88 SHL DUP3 DIV AND PUSH1 0x60 DUP4 ADD MSTORE PUSH1 0x1 PUSH1 0x1 PUSH1 0xE0 SHL SUB NOT PUSH1 0x1 PUSH1 0xC8 SHL SWAP1 SWAP2 DIV PUSH1 0xE0 SHL AND PUSH1 0x80 SWAP1 SWAP2 ADD MSTORE SWAP1 POP PUSH1 0x5 DUP2 PUSH1 0x20 ADD MLOAD PUSH1 0x5 DUP2 GT ISZERO PUSH2 0x8DE JUMPI PUSH2 0x8DE PUSH2 0x3081 JUMP JUMPDEST EQ ISZERO PUSH2 0x8F9 JUMPI PUSH2 0x8ED DUP2 PUSH2 0x1C44 JUMP JUMPDEST SWAP2 SWAP6 POP SWAP4 POP SWAP2 POP PUSH2 0x94F JUMP JUMPDEST PUSH1 0x1 DUP2 PUSH1 0x20 ADD MLOAD PUSH1 0x5 DUP2 GT ISZERO PUSH2 0x911 JUMPI PUSH2 0x911 PUSH2 0x3081 JUMP JUMPDEST EQ ISZERO PUSH2 0x920 JUMPI PUSH2 0x8ED DUP2 PUSH2 0x1DFA JUMP JUMPDEST PUSH1 0x2 DUP2 PUSH1 0x20 ADD MLOAD PUSH1 0x5 DUP2 GT ISZERO PUSH2 0x938 JUMPI PUSH2 0x938 PUSH2 0x3081 JUMP JUMPDEST EQ ISZERO PUSH2 0x94F JUMPI PUSH2 0x947 DUP2 PUSH2 0x1DFA JUMP JUMPDEST SWAP2 SWAP6 POP SWAP4 POP SWAP2 POP JUMPDEST DUP3 ISZERO PUSH2 0x964 JUMPI POP SWAP2 SWAP6 POP SWAP4 POP SWAP2 POP PUSH2 0xB54 SWAP1 POP JUMP JUMPDEST DUP9 DUP11 PUSH1 0x40 MLOAD PUSH1 0x20 ADD PUSH2 0x977 SWAP3 SWAP2 SWAP1 PUSH2 0x3097 JUMP JUMPDEST PUSH1 0x40 DUP1 MLOAD PUSH1 0x1F NOT DUP2 DUP5 SUB ADD DUP2 MSTORE DUP3 DUP3 MSTORE DUP1 MLOAD PUSH1 0x20 SWAP2 DUP3 ADD KECCAK256 PUSH1 0x0 DUP2 DUP2 MSTORE PUSH1 0x1 DUP1 DUP5 MSTORE SWAP1 DUP5 SWAP1 KECCAK256 PUSH2 0x100 DUP7 ADD SWAP1 SWAP5 MSTORE DUP4 SLOAD PUSH1 0x1 PUSH1 0x1 PUSH1 0xA0 SHL SUB SWAP1 DUP2 AND PUSH1 0xC0 DUP8 ADD SWAP1 DUP2 MSTORE SWAP2 DUP6 ADD SLOAD AND PUSH1 0xE0 DUP7 ADD MSTORE DUP5 MSTORE PUSH1 0x2 DUP4 ADD SLOAD SWAP1 SWAP9 POP SWAP1 DUP4 ADD SWAP1 PUSH1 0xFF AND PUSH1 0x5 DUP2 GT ISZERO PUSH2 0x9E5 JUMPI PUSH2 0x9E5 PUSH2 0x3081 JUMP JUMPDEST PUSH1 0x5 DUP2 GT ISZERO PUSH2 0x9F6 JUMPI PUSH2 0x9F6 PUSH2 0x3081 JUMP JUMPDEST DUP2 MSTORE PUSH1 0x2 SWAP2 SWAP1 SWAP2 ADD SLOAD PUSH1 0x1 PUSH1 0x1 PUSH1 0x40 SHL SUB PUSH2 0x100 DUP3 DIV DUP2 AND PUSH1 0x20 DUP5 ADD MSTORE PUSH1 0x1 PUSH1 0x48 SHL DUP3 DIV DUP2 AND PUSH1 0x40 DUP5 ADD MSTORE PUSH1 0x1 PUSH1 0x88 SHL DUP3 DIV AND PUSH1 0x60 DUP4 ADD MSTORE PUSH1 0x1 PUSH1 0x1 PUSH1 0xE0 SHL SUB NOT PUSH1 0x1 PUSH1 0xC8 SHL SWAP1 SWAP2 DIV PUSH1 0xE0 SHL AND PUSH1 0x80 SWAP1 SWAP2 ADD MSTORE PUSH1 0x0 SWAP5 POP DUP5 SWAP4 POP DUP4 SWAP3 POP SWAP1 POP PUSH1 0x5 DUP2 PUSH1 0x20 ADD MLOAD PUSH1 0x5 DUP2 GT ISZERO PUSH2 0xA6D JUMPI PUSH2 0xA6D PUSH2 0x3081 JUMP JUMPDEST EQ ISZERO PUSH2 0xA88 JUMPI PUSH2 0xA7C DUP2 PUSH2 0x1C44 JUMP JUMPDEST SWAP2 SWAP6 POP SWAP4 POP SWAP2 POP PUSH2 0xADE JUMP JUMPDEST PUSH1 0x1 DUP2 PUSH1 0x20 ADD MLOAD PUSH1 0x5 DUP2 GT ISZERO PUSH2 0xAA0 JUMPI PUSH2 0xAA0 PUSH2 0x3081 JUMP JUMPDEST EQ ISZERO PUSH2 0xAAF JUMPI PUSH2 0xA7C DUP2 PUSH2 0x1DFA JUMP JUMPDEST PUSH1 0x2 DUP2 PUSH1 0x20 ADD MLOAD PUSH1 0x5 DUP2 GT ISZERO PUSH2 0xAC7 JUMPI PUSH2 0xAC7 PUSH2 0x3081 JUMP JUMPDEST EQ ISZERO PUSH2 0xADE JUMPI PUSH2 0xAD6 DUP2 PUSH2 0x1DFA JUMP JUMPDEST SWAP2 SWAP6 POP SWAP4 POP SWAP2 POP JUMPDEST DUP3 PUSH2 0xAF8 JUMPI PUSH1 0x0 DUP1 PUSH1 0x0 SWAP8 POP SWAP8 POP SWAP8 POP POP POP POP POP POP PUSH2 0xB54 JUMP JUMPDEST PUSH2 0xB11 DUP5 PUSH15 0xC097CE7BC90715B34B9F1000000000 PUSH2 0x30D4 JUMP JUMPDEST SWAP4 POP PUSH2 0xB2C DUP4 PUSH15 0xC097CE7BC90715B34B9F1000000000 PUSH2 0x30D4 JUMP JUMPDEST SWAP3 POP PUSH2 0xB47 DUP3 PUSH15 0xC097CE7BC90715B34B9F1000000000 PUSH2 0x30D4 JUMP JUMPDEST SWAP4 SWAP8 POP SWAP2 SWAP6 POP SWAP2 SWAP4 POP POP POP POP JUMPDEST SWAP3 POP SWAP3 POP SWAP3 JUMP JUMPDEST PUSH1 0x0 PUSH2 0x72F PUSH5 0xE8D4A51000 DUP4 PUSH2 0x30D4 JUMP JUMPDEST PUSH1 0x0 DUP1 PUSH2 0xB7E PUSH5 0x2540BE400 DUP5 PUSH2 0x30D4 JUMP JUMPDEST SWAP1 POP DUP3 PUSH2 0xB90 DUP3 PUSH5 0x2540BE400 PUSH2 0x30F6 JUMP JUMPDEST GT ISZERO PUSH2 0x72F JUMPI PUSH2 0x72F PUSH2 0x3115 JUMP JUMPDEST PUSH2 0xBA6 PUSH2 0x51A JUMP JUMPDEST PUSH1 0x0 JUMPDEST DUP2 MLOAD DUP2 LT ISZERO PUSH2 0x6FA JUMPI PUSH2 0xC73 DUP3 DUP3 DUP2 MLOAD DUP2 LT PUSH2 0xBC7 JUMPI PUSH2 0xBC7 PUSH2 0x312B JUMP JUMPDEST PUSH1 0x20 MUL PUSH1 0x20 ADD ADD MLOAD PUSH1 0x0 ADD MLOAD PUSH1 0x0 ADD MLOAD DUP4 DUP4 DUP2 MLOAD DUP2 LT PUSH2 0xBE9 JUMPI PUSH2 0xBE9 PUSH2 0x312B JUMP JUMPDEST PUSH1 0x20 MUL PUSH1 0x20 ADD ADD MLOAD PUSH1 0x0 ADD MLOAD PUSH1 0x20 ADD MLOAD DUP5 DUP5 DUP2 MLOAD DUP2 LT PUSH2 0xC0B JUMPI PUSH2 0xC0B PUSH2 0x312B JUMP JUMPDEST PUSH1 0x20 MUL PUSH1 0x20 ADD ADD MLOAD PUSH1 0x40 ADD MLOAD PUSH1 0x1 PUSH1 0x1 PUSH1 0x40 SHL SUB AND DUP6 DUP6 DUP2 MLOAD DUP2 LT PUSH2 0xC32 JUMPI PUSH2 0xC32 PUSH2 0x312B JUMP JUMPDEST PUSH1 0x20 MUL PUSH1 0x20 ADD ADD MLOAD PUSH1 0x60 ADD MLOAD PUSH1 0x1 PUSH1 0x1 PUSH1 0x40 SHL SUB AND DUP7 DUP7 DUP2 MLOAD DUP2 LT PUSH2 0xC59 JUMPI PUSH2 0xC59 PUSH2 0x312B JUMP JUMPDEST PUSH1 0x20 MUL PUSH1 0x20 ADD ADD MLOAD PUSH1 0x80 ADD MLOAD PUSH1 0x1 PUSH1 0x1 PUSH1 0x40 SHL SUB AND PUSH2 0x74C JUMP JUMPDEST DUP1 PUSH2 0xC7D DUP2 PUSH2 0x3141 JUMP JUMPDEST SWAP2 POP POP PUSH2 0xBA9 JUMP JUMPDEST PUSH1 0x0 DUP1 PUSH1 0x0 DUP1 DUP6 DUP6 PUSH1 0x40 MLOAD PUSH1 0x20 ADD PUSH2 0xC9E SWAP3 SWAP2 SWAP1 PUSH2 0x3097 JUMP JUMPDEST PUSH1 0x40 DUP1 MLOAD DUP1 DUP4 SUB PUSH1 0x1F NOT ADD DUP2 MSTORE SWAP2 DUP2 MSTORE DUP2 MLOAD PUSH1 0x20 SWAP3 DUP4 ADD KECCAK256 PUSH1 0x0 DUP2 DUP2 MSTORE PUSH1 0x1 SWAP1 SWAP4 MSTORE SWAP2 KECCAK256 PUSH1 0x2 DUP2 ADD SLOAD SWAP2 SWAP3 POP SWAP1 NUMBER PUSH1 0x1 PUSH1 0x1 PUSH1 0xE0 SHL SUB NOT SWAP1 DUP2 AND PUSH1 0x1 PUSH1 0xC8 SHL SWAP1 SWAP3 DIV PUSH1 0xE0 SHL AND EQ ISZERO PUSH2 0xD92 JUMPI PUSH1 0x40 DUP1 MLOAD PUSH1 0x1 PUSH1 0x1 PUSH1 0xA0 SHL SUB DUP1 DUP11 AND DUP3 MSTORE DUP9 AND PUSH1 0x20 DUP3 ADD MSTORE PUSH32 0x85FE05C69E32EC3AED403E05E055FAA5B8F0DEC24C0F5EF97A497B8F4B8228B5 SWAP2 ADD PUSH1 0x40 MLOAD DUP1 SWAP2 SUB SWAP1 LOG1 PUSH1 0x2 DUP2 ADD SLOAD PUSH2 0xD49 SWAP1 PUSH2 0x100 SWAP1 DIV PUSH1 0x1 PUSH1 0x1 PUSH1 0x40 SHL SUB AND PUSH2 0x15E6 JUMP JUMPDEST PUSH1 0x2 DUP3 ADD SLOAD PUSH2 0xD67 SWAP1 PUSH1 0x1 PUSH1 0x48 SHL SWAP1 DIV PUSH1 0x1 PUSH1 0x1 PUSH1 0x40 SHL SUB AND PUSH2 0x15E6 JUMP JUMPDEST PUSH1 0x2 DUP4 ADD SLOAD PUSH2 0xD85 SWAP1 PUSH1 0x1 PUSH1 0x88 SHL SWAP1 DIV PUSH1 0x1 PUSH1 0x1 PUSH1 0x40 SHL SUB AND PUSH2 0x15E6 JUMP JUMPDEST SWAP5 POP SWAP5 POP SWAP5 POP POP POP PUSH2 0xB54 JUMP JUMPDEST PUSH1 0x0 DUP1 DUP1 PUSH1 0x5 PUSH1 0x2 DUP6 ADD SLOAD PUSH1 0xFF AND PUSH1 0x5 DUP2 GT ISZERO PUSH2 0xDB1 JUMPI PUSH2 0xDB1 PUSH2 0x3081 JUMP JUMPDEST EQ ISZERO PUSH2 0xE80 JUMPI PUSH1 0x40 DUP1 MLOAD PUSH2 0x100 DUP2 ADD SWAP1 SWAP2 MSTORE DUP5 SLOAD PUSH1 0x1 PUSH1 0x1 PUSH1 0xA0 SHL SUB SWAP1 DUP2 AND PUSH1 0xC0 DUP4 ADD SWAP1 DUP2 MSTORE PUSH1 0x1 DUP8 ADD SLOAD SWAP1 SWAP2 AND PUSH1 0xE0 DUP4 ADD MSTORE DUP2 MSTORE PUSH1 0x2 DUP6 ADD SLOAD PUSH2 0xE74 SWAP2 SWAP1 DUP7 SWAP1 PUSH1 0x20 DUP4 ADD SWAP1 PUSH1 0xFF AND PUSH1 0x5 DUP2 GT ISZERO PUSH2 0xE0B JUMPI PUSH2 0xE0B PUSH2 0x3081 JUMP JUMPDEST PUSH1 0x5 DUP2 GT ISZERO PUSH2 0xE1C JUMPI PUSH2 0xE1C PUSH2 0x3081 JUMP JUMPDEST DUP2 MSTORE PUSH1 0x2 SWAP2 SWAP1 SWAP2 ADD SLOAD PUSH1 0x1 PUSH1 0x1 PUSH1 0x40 SHL SUB PUSH2 0x100 DUP3 DIV DUP2 AND PUSH1 0x20 DUP5 ADD MSTORE PUSH1 0x1 PUSH1 0x48 SHL DUP3 DIV DUP2 AND PUSH1 0x40 DUP5 ADD MSTORE PUSH1 0x1 PUSH1 0x88 SHL DUP3 DIV AND PUSH1 0x60 DUP4 ADD MSTORE PUSH1 0x1 PUSH1 0x1 PUSH1 0xE0 SHL SUB NOT PUSH1 0x1 PUSH1 0xC8 SHL SWAP1 SWAP2 DIV PUSH1 0xE0 SHL AND PUSH1 0x80 SWAP1 SWAP2 ADD MSTORE PUSH2 0x1E33 JUMP JUMPDEST SWAP2 SWAP5 POP SWAP3 POP SWAP1 POP PUSH2 0xFDA JUMP JUMPDEST PUSH1 0x1 PUSH1 0x2 DUP6 ADD SLOAD PUSH1 0xFF AND PUSH1 0x5 DUP2 GT ISZERO PUSH2 0xE9B JUMPI PUSH2 0xE9B PUSH2 0x3081 JUMP JUMPDEST EQ ISZERO PUSH2 0xF5E JUMPI PUSH1 0x40 DUP1 MLOAD PUSH2 0x100 DUP2 ADD SWAP1 SWAP2 MSTORE DUP5 SLOAD PUSH1 0x1 PUSH1 0x1 PUSH1 0xA0 SHL SUB SWAP1 DUP2 AND PUSH1 0xC0 DUP4 ADD SWAP1 DUP2 MSTORE PUSH1 0x1 DUP8 ADD SLOAD SWAP1 SWAP2 AND PUSH1 0xE0 DUP4 ADD MSTORE DUP2 MSTORE PUSH1 0x2 DUP6 ADD SLOAD PUSH2 0xE74 SWAP2 SWAP1 DUP7 SWAP1 PUSH1 0x20 DUP4 ADD SWAP1 PUSH1 0xFF AND PUSH1 0x5 DUP2 GT ISZERO PUSH2 0xEF5 JUMPI PUSH2 0xEF5 PUSH2 0x3081 JUMP JUMPDEST PUSH1 0x5 DUP2 GT ISZERO PUSH2 0xF06 JUMPI PUSH2 0xF06 PUSH2 0x3081 JUMP JUMPDEST DUP2 MSTORE PUSH1 0x2 SWAP2 SWAP1 SWAP2 ADD SLOAD PUSH1 0x1 PUSH1 0x1 PUSH1 0x40 SHL SUB PUSH2 0x100 DUP3 DIV DUP2 AND PUSH1 0x20 DUP5 ADD MSTORE PUSH1 0x1 PUSH1 0x48 SHL DUP3 DIV DUP2 AND PUSH1 0x40 DUP5 ADD MSTORE PUSH1 0x1 PUSH1 0x88 SHL DUP3 DIV AND PUSH1 0x60 DUP4 ADD MSTORE PUSH1 0x1 PUSH1 0x1 PUSH1 0xE0 SHL SUB NOT PUSH1 0x1 PUSH1 0xC8 SHL SWAP1 SWAP2 DIV PUSH1 0xE0 SHL AND PUSH1 0x80 SWAP1 SWAP2 ADD MSTORE PUSH2 0x1DFA JUMP JUMPDEST PUSH1 0x2 DUP1 DUP6 ADD SLOAD PUSH1 0xFF AND PUSH1 0x5 DUP2 GT ISZERO PUSH2 0xF78 JUMPI PUSH2 0xF78 PUSH2 0x3081 JUMP JUMPDEST EQ ISZERO PUSH2 0xFDA JUMPI PUSH1 0x40 DUP1 MLOAD PUSH2 0x100 DUP2 ADD SWAP1 SWAP2 MSTORE DUP5 SLOAD PUSH1 0x1 PUSH1 0x1 PUSH1 0xA0 SHL SUB SWAP1 DUP2 AND PUSH1 0xC0 DUP4 ADD SWAP1 DUP2 MSTORE PUSH1 0x1 DUP8 ADD SLOAD SWAP1 SWAP2 AND PUSH1 0xE0 DUP4 ADD MSTORE DUP2 MSTORE PUSH1 0x2 DUP6 ADD SLOAD PUSH2 0xFD2 SWAP2 SWAP1 DUP7 SWAP1 PUSH1 0x20 DUP4 ADD SWAP1 PUSH1 0xFF AND PUSH1 0x5 DUP2 GT ISZERO PUSH2 0xEF5 JUMPI PUSH2 0xEF5 PUSH2 0x3081 JUMP JUMPDEST SWAP2 SWAP5 POP SWAP3 POP SWAP1 POP JUMPDEST DUP2 ISZERO PUSH2 0x1032 JUMPI PUSH1 0x40 DUP1 MLOAD PUSH1 0x1 PUSH1 0x1 PUSH1 0xA0 SHL SUB DUP1 DUP14 AND DUP3 MSTORE DUP12 AND PUSH1 0x20 DUP3 ADD MSTORE PUSH32 0x85FE05C69E32EC3AED403E05E055FAA5B8F0DEC24C0F5EF97A497B8F4B8228B5 SWAP2 ADD PUSH1 0x40 MLOAD DUP1 SWAP2 SUB SWAP1 LOG1 SWAP2 SWAP7 POP SWAP5 POP SWAP3 POP PUSH2 0xB54 SWAP2 POP POP JUMP JUMPDEST DUP9 DUP11 PUSH1 0x40 MLOAD PUSH1 0x20 ADD PUSH2 0x1045 SWAP3 SWAP2 SWAP1 PUSH2 0x3097 JUMP JUMPDEST PUSH1 0x40 DUP1 MLOAD PUSH1 0x1F NOT DUP2 DUP5 SUB ADD DUP2 MSTORE SWAP2 DUP2 MSTORE DUP2 MLOAD PUSH1 0x20 SWAP3 DUP4 ADD KECCAK256 PUSH1 0x0 DUP2 DUP2 MSTORE PUSH1 0x1 SWAP1 SWAP4 MSTORE SWAP1 DUP3 KECCAK256 SWAP1 SWAP7 POP SWAP5 POP SWAP3 POP DUP3 SWAP2 POP DUP2 SWAP1 POP PUSH1 0x5 PUSH1 0x2 DUP6 ADD SLOAD PUSH1 0xFF AND PUSH1 0x5 DUP2 GT ISZERO PUSH2 0x1092 JUMPI PUSH2 0x1092 PUSH2 0x3081 JUMP JUMPDEST EQ ISZERO PUSH2 0x10F8 JUMPI PUSH1 0x40 DUP1 MLOAD PUSH2 0x100 DUP2 ADD SWAP1 SWAP2 MSTORE DUP5 SLOAD PUSH1 0x1 PUSH1 0x1 PUSH1 0xA0 SHL SUB SWAP1 DUP2 AND PUSH1 0xC0 DUP4 ADD SWAP1 DUP2 MSTORE PUSH1 0x1 DUP8 ADD SLOAD SWAP1 SWAP2 AND PUSH1 0xE0 DUP4 ADD MSTORE DUP2 MSTORE PUSH1 0x2 DUP6 ADD SLOAD PUSH2 0x10EC SWAP2 SWAP1 DUP7 SWAP1 PUSH1 0x20 DUP4 ADD SWAP1 PUSH1 0xFF AND PUSH1 0x5 DUP2 GT ISZERO PUSH2 0xE0B JUMPI PUSH2 0xE0B PUSH2 0x3081 JUMP JUMPDEST SWAP2 SWAP5 POP SWAP3 POP SWAP1 POP PUSH2 0x11E9 JUMP JUMPDEST PUSH1 0x1 PUSH1 0x2 DUP6 ADD SLOAD PUSH1 0xFF AND PUSH1 0x5 DUP2 GT ISZERO PUSH2 0x1113 JUMPI PUSH2 0x1113 PUSH2 0x3081 JUMP JUMPDEST EQ ISZERO PUSH2 0x116D JUMPI PUSH1 0x40 DUP1 MLOAD PUSH2 0x100 DUP2 ADD SWAP1 SWAP2 MSTORE DUP5 SLOAD PUSH1 0x1 PUSH1 0x1 PUSH1 0xA0 SHL SUB SWAP1 DUP2 AND PUSH1 0xC0 DUP4 ADD SWAP1 DUP2 MSTORE PUSH1 0x1 DUP8 ADD SLOAD SWAP1 SWAP2 AND PUSH1 0xE0 DUP4 ADD MSTORE DUP2 MSTORE PUSH1 0x2 DUP6 ADD SLOAD PUSH2 0x10EC SWAP2 SWAP1 DUP7 SWAP1 PUSH1 0x20 DUP4 ADD SWAP1 PUSH1 0xFF AND PUSH1 0x5 DUP2 GT ISZERO PUSH2 0xEF5 JUMPI PUSH2 0xEF5 PUSH2 0x3081 JUMP JUMPDEST PUSH1 0x2 DUP1 DUP6 ADD SLOAD PUSH1 0xFF AND PUSH1 0x5 DUP2 GT ISZERO PUSH2 0x1187 JUMPI PUSH2 0x1187 PUSH2 0x3081 JUMP JUMPDEST EQ ISZERO PUSH2 0x11E9 JUMPI PUSH1 0x40 DUP1 MLOAD PUSH2 0x100 DUP2 ADD SWAP1 SWAP2 MSTORE DUP5 SLOAD PUSH1 0x1 PUSH1 0x1 PUSH1 0xA0 SHL SUB SWAP1 DUP2 AND PUSH1 0xC0 DUP4 ADD SWAP1 DUP2 MSTORE PUSH1 0x1 DUP8 ADD SLOAD SWAP1 SWAP2 AND PUSH1 0xE0 DUP4 ADD MSTORE DUP2 MSTORE PUSH1 0x2 DUP6 ADD SLOAD PUSH2 0x11E1 SWAP2 SWAP1 DUP7 SWAP1 PUSH1 0x20 DUP4 ADD SWAP1 PUSH1 0xFF AND PUSH1 0x5 DUP2 GT ISZERO PUSH2 0xEF5 JUMPI PUSH2 0xEF5 PUSH2 0x3081 JUMP JUMPDEST SWAP2 SWAP5 POP SWAP3 POP SWAP1 POP JUMPDEST DUP2 PUSH2 0x1246 JUMPI PUSH1 0x40 DUP1 MLOAD PUSH1 0x1 PUSH1 0x1 PUSH1 0xA0 SHL SUB DUP1 DUP14 AND DUP3 MSTORE DUP12 AND PUSH1 0x20 DUP3 ADD MSTORE PUSH32 0x40431C410CC5180BF05A4EFDFB1880B6095849D44D09B81B10B0AEFBB6849EDD SWAP2 ADD PUSH1 0x40 MLOAD DUP1 SWAP2 SUB SWAP1 LOG1 PUSH1 0x0 DUP1 PUSH1 0x0 SWAP8 POP SWAP8 POP SWAP8 POP POP POP POP POP POP PUSH2 0xB54 JUMP JUMPDEST PUSH2 0x125F DUP4 PUSH15 0xC097CE7BC90715B34B9F1000000000 PUSH2 0x30D4 JUMP JUMPDEST SWAP3 POP PUSH2 0x127A DUP3 PUSH15 0xC097CE7BC90715B34B9F1000000000 PUSH2 0x30D4 JUMP JUMPDEST SWAP2 POP PUSH2 0x1295 DUP2 PUSH15 0xC097CE7BC90715B34B9F1000000000 PUSH2 0x30D4 JUMP JUMPDEST PUSH1 0x40 DUP1 MLOAD PUSH1 0x1 PUSH1 0x1 PUSH1 0xA0 SHL SUB DUP1 DUP15 AND DUP3 MSTORE DUP13 AND PUSH1 0x20 DUP3 ADD MSTORE SWAP2 SWAP3 POP PUSH32 0x85FE05C69E32EC3AED403E05E055FAA5B8F0DEC24C0F5EF97A497B8F4B8228B5 SWAP2 ADD PUSH1 0x40 MLOAD DUP1 SWAP2 SUB SWAP1 LOG1 SWAP2 SWAP7 POP SWAP5 POP SWAP3 POP POP POP SWAP3 POP SWAP3 POP SWAP3 JUMP JUMPDEST PUSH2 0x12F3 PUSH2 0x1ECD JUMP JUMPDEST PUSH2 0x6E2 PUSH1 0x0 PUSH2 0x1F2E JUMP JUMPDEST PUSH2 0x1305 PUSH2 0x51A JUMP JUMPDEST PUSH2 0x6E2 PUSH1 0x0 DUP1 SLOAD PUSH1 0xFF NOT AND PUSH1 0x1 OR SWAP1 SSTORE JUMP JUMPDEST PUSH1 0x0 PUSH2 0x72F PUSH6 0xFFFFFFFFFFFF DUP4 AND PUSH5 0x174876E800 PUSH2 0x30F6 JUMP JUMPDEST PUSH1 0x60 PUSH2 0x1386 DUP4 DUP4 PUSH1 0x14 PUSH1 0x0 PUSH1 0x40 MLOAD SWAP1 DUP1 DUP3 MSTORE DUP1 PUSH1 0x20 MUL PUSH1 0x20 ADD DUP3 ADD PUSH1 0x40 MSTORE DUP1 ISZERO PUSH2 0x1380 JUMPI DUP2 PUSH1 0x20 ADD JUMPDEST PUSH1 0x40 DUP1 MLOAD DUP1 DUP3 ADD SWAP1 SWAP2 MSTORE PUSH1 0x0 DUP1 DUP3 MSTORE PUSH1 0x20 DUP3 ADD MSTORE DUP2 MSTORE PUSH1 0x20 ADD SWAP1 PUSH1 0x1 SWAP1 SUB SWAP1 DUP2 PUSH2 0x1359 JUMPI SWAP1 POP JUMPDEST POP PUSH2 0x1F89 JUMP JUMPDEST SWAP4 SWAP3 POP POP POP JUMP JUMPDEST PUSH1 0x0 DUP1 DUP1 DUP1 DUP1 DUP1 DUP1 DUP1 JUMPDEST DUP9 MLOAD DUP2 LT ISZERO PUSH2 0x1526 JUMPI PUSH8 0xDE0B6B3A7640000 DUP1 DUP1 PUSH1 0x0 JUMPDEST DUP13 DUP6 DUP2 MLOAD DUP2 LT PUSH2 0x13C0 JUMPI PUSH2 0x13C0 PUSH2 0x312B JUMP JUMPDEST PUSH1 0x20 MUL PUSH1 0x20 ADD ADD MLOAD MLOAD DUP2 LT ISZERO PUSH2 0x14BE JUMPI PUSH1 0x0 DUP14 DUP7 DUP2 MLOAD DUP2 LT PUSH2 0x13E4 JUMPI PUSH2 0x13E4 PUSH2 0x312B JUMP JUMPDEST PUSH1 0x20 MUL PUSH1 0x20 ADD ADD MLOAD DUP3 DUP2 MLOAD DUP2 LT PUSH2 0x13FD JUMPI PUSH2 0x13FD PUSH2 0x312B JUMP JUMPDEST PUSH1 0x20 MUL PUSH1 0x20 ADD ADD MLOAD SWAP1 POP PUSH1 0x0 DUP1 PUSH1 0x0 PUSH2 0x141E DUP5 PUSH1 0x0 ADD MLOAD DUP6 PUSH1 0x20 ADD MLOAD PUSH2 0x7D3 JUMP JUMPDEST SWAP3 POP SWAP3 POP SWAP3 POP DUP2 PUSH1 0x0 EQ ISZERO PUSH2 0x144A JUMPI PUSH1 0x0 DUP1 PUSH1 0x0 SWAP16 POP SWAP16 POP SWAP16 POP POP POP POP POP POP POP POP POP POP POP POP POP POP PUSH2 0x153D JUMP JUMPDEST PUSH8 0xDE0B6B3A7640000 PUSH2 0x145D DUP10 DUP6 PUSH2 0x30F6 JUMP JUMPDEST PUSH2 0x1467 SWAP2 SWAP1 PUSH2 0x30D4 JUMP JUMPDEST SWAP8 POP PUSH8 0xDE0B6B3A7640000 PUSH2 0x147C DUP9 DUP5 PUSH2 0x30F6 JUMP JUMPDEST PUSH2 0x1486 SWAP2 SWAP1 PUSH2 0x30D4 JUMP JUMPDEST SWAP7 POP PUSH8 0xDE0B6B3A7640000 PUSH2 0x149B DUP8 DUP4 PUSH2 0x30F6 JUMP JUMPDEST PUSH2 0x14A5 SWAP2 SWAP1 PUSH2 0x30D4 JUMP JUMPDEST SWAP6 POP POP POP POP POP DUP1 DUP1 PUSH2 0x14B6 SWAP1 PUSH2 0x3141 JUMP JUMPDEST SWAP2 POP POP PUSH2 0x13AE JUMP JUMPDEST POP DUP8 ISZERO DUP1 PUSH2 0x14CB JUMPI POP DUP3 DUP9 GT JUMPDEST ISZERO PUSH2 0x14D4 JUMPI DUP3 SWAP8 POP JUMPDEST DUP5 ISZERO DUP1 PUSH2 0x14E0 JUMPI POP DUP1 DUP6 LT JUMPDEST ISZERO PUSH2 0x14E9 JUMPI DUP1 SWAP5 POP JUMPDEST DUP6 PUSH2 0x14F6 JUMPI DUP2 SWAP7 POP PUSH2 0x1503 JUMP JUMPDEST PUSH2 0x1500 DUP3 DUP9 PUSH2 0x315C JUMP JUMPDEST SWAP7 POP JUMPDEST DUP6 PUSH2 0x150D DUP2 PUSH2 0x3141 JUMP JUMPDEST SWAP7 POP POP POP POP POP DUP1 DUP1 PUSH2 0x151E SWAP1 PUSH2 0x3141 JUMP JUMPDEST SWAP2 POP POP PUSH2 0x1397 JUMP JUMPDEST POP PUSH2 0x1531 DUP3 DUP5 PUSH2 0x30D4 JUMP JUMPDEST SWAP4 SWAP7 POP SWAP3 SWAP5 POP SWAP2 SWAP3 POP POP POP JUMPDEST SWAP2 SWAP4 SWAP1 SWAP3 POP JUMP JUMPDEST PUSH1 0x0 DUP1 SLOAD PUSH1 0xFF AND DUP1 PUSH2 0x155D JUMPI POP PUSH1 0x0 SLOAD PUSH2 0x100 SWAP1 DIV PUSH1 0xFF AND JUMPDEST SWAP1 POP SWAP1 JUMP JUMPDEST PUSH2 0x156A PUSH2 0x51A JUMP JUMPDEST PUSH2 0x1572 PUSH2 0x2A1B JUMP JUMPDEST DUP1 MLOAD PUSH1 0x1 PUSH1 0x1 PUSH1 0xA0 SHL SUB DUP6 DUP2 AND SWAP1 SWAP2 MSTORE DUP2 MLOAD SWAP1 DUP5 AND PUSH1 0x20 SWAP2 DUP3 ADD MSTORE PUSH1 0x1 SWAP1 DUP3 ADD MSTORE PUSH2 0x159C DUP3 PUSH2 0xB6C JUMP JUMPDEST PUSH1 0x1 PUSH1 0x1 PUSH1 0x40 SHL SUB AND PUSH1 0x80 DUP3 ADD DUP2 SWAP1 MSTORE PUSH1 0x60 DUP3 ADD DUP2 SWAP1 MSTORE PUSH1 0x40 DUP3 ADD MSTORE PUSH2 0x15C1 DUP2 PUSH2 0x17AF JUMP JUMPDEST POP POP POP POP JUMP JUMPDEST PUSH1 0x0 PUSH8 0xDE0B6B3A7640000 PUSH2 0x15DC DUP4 DUP6 PUSH2 0x30F6 JUMP JUMPDEST PUSH2 0x1386 SWAP2 SWAP1 PUSH2 0x30D4 JUMP JUMPDEST PUSH1 0x0 PUSH2 0x72F PUSH1 0x1 PUSH1 0x1 PUSH1 0x40 SHL SUB DUP4 AND PUSH5 0x2540BE400 PUSH2 0x30F6 JUMP JUMPDEST PUSH2 0x1608 PUSH2 0x51A JUMP JUMPDEST PUSH1 0x0 DUP4 DUP4 PUSH1 0x40 MLOAD PUSH1 0x20 ADD PUSH2 0x161D SWAP3 SWAP2 SWAP1 PUSH2 0x3097 JUMP JUMPDEST PUSH1 0x40 DUP1 MLOAD DUP1 DUP4 SUB PUSH1 0x1F NOT ADD DUP2 MSTORE SWAP2 DUP2 MSTORE DUP2 MLOAD PUSH1 0x20 SWAP3 DUP4 ADD KECCAK256 PUSH1 0x0 DUP2 DUP2 MSTORE PUSH1 0x3 SWAP1 SWAP4 MSTORE SWAP2 KECCAK256 DUP1 SLOAD PUSH1 0x1 PUSH1 0x1 PUSH1 0xA0 SHL SUB NOT AND PUSH1 0x1 PUSH1 0x1 PUSH1 0xA0 SHL SUB DUP6 AND OR SWAP1 SSTORE SWAP1 POP DUP2 PUSH2 0x1665 PUSH2 0x2A1B JUMP JUMPDEST DUP1 MLOAD PUSH1 0x1 PUSH1 0x1 PUSH1 0xA0 SHL SUB DUP8 DUP2 AND SWAP1 SWAP2 MSTORE DUP2 MLOAD SWAP1 DUP7 AND PUSH1 0x20 SWAP2 DUP3 ADD MSTORE PUSH1 0x5 SWAP1 DUP3 ADD MSTORE PUSH1 0x0 DUP1 DUP1 PUSH2 0x1693 DUP5 PUSH2 0x1C44 JUMP JUMPDEST SWAP3 POP SWAP3 POP SWAP3 POP PUSH2 0x16A2 DUP4 PUSH2 0xB6C JUMP JUMPDEST PUSH1 0x1 PUSH1 0x1 PUSH1 0x40 SHL SUB AND PUSH1 0x40 DUP6 ADD MSTORE PUSH2 0x16B9 DUP3 PUSH2 0xB6C JUMP JUMPDEST PUSH1 0x1 PUSH1 0x1 PUSH1 0x40 SHL SUB AND PUSH1 0x60 DUP6 ADD MSTORE PUSH2 0x16D0 DUP2 PUSH2 0xB6C JUMP JUMPDEST PUSH1 0x1 PUSH1 0x1 PUSH1 0x40 SHL SUB AND PUSH1 0x80 DUP6 ADD MSTORE PUSH2 0x16E7 DUP5 PUSH2 0x17AF JUMP JUMPDEST POP POP POP POP POP POP POP POP POP JUMP JUMPDEST PUSH2 0x16FA PUSH2 0x1ECD JUMP JUMPDEST PUSH2 0x6E2 PUSH1 0x0 DUP1 SLOAD PUSH2 0xFF00 NOT AND PUSH2 0x100 OR SWAP1 SSTORE JUMP JUMPDEST PUSH1 0x0 PUSH2 0x72F PUSH4 0xFFFFFFFF DUP4 AND PUSH5 0xE8D4A51000 PUSH2 0x30F6 JUMP JUMPDEST PUSH2 0x172D PUSH2 0x1ECD JUMP JUMPDEST PUSH1 0x1 PUSH1 0x1 PUSH1 0xA0 SHL SUB DUP2 AND PUSH2 0x1792 JUMPI PUSH1 0x40 MLOAD PUSH3 0x461BCD PUSH1 0xE5 SHL DUP2 MSTORE PUSH1 0x20 PUSH1 0x4 DUP3 ADD MSTORE PUSH1 0x26 PUSH1 0x24 DUP3 ADD MSTORE PUSH32 0x4F776E61626C653A206E6577206F776E657220697320746865207A65726F2061 PUSH1 0x44 DUP3 ADD MSTORE PUSH6 0x646472657373 PUSH1 0xD0 SHL PUSH1 0x64 DUP3 ADD MSTORE PUSH1 0x84 ADD PUSH2 0x6D9 JUMP JUMPDEST PUSH2 0x179B DUP2 PUSH2 0x1F2E JUMP JUMPDEST POP JUMP JUMPDEST PUSH1 0x0 PUSH2 0x72F PUSH5 0x174876E800 DUP4 PUSH2 0x30D4 JUMP JUMPDEST DUP1 MLOAD DUP1 MLOAD PUSH1 0x20 SWAP2 DUP3 ADD MLOAD PUSH1 0x40 MLOAD PUSH1 0x0 SWAP4 PUSH2 0x17CB SWAP4 SWAP3 SWAP2 ADD PUSH2 0x3097 JUMP JUMPDEST PUSH1 0x40 DUP1 MLOAD PUSH1 0x1F NOT DUP2 DUP5 SUB ADD DUP2 MSTORE DUP3 DUP3 MSTORE DUP1 MLOAD PUSH1 0x20 SWAP2 DUP3 ADD KECCAK256 PUSH1 0x0 DUP2 DUP2 MSTORE PUSH1 0x1 DUP1 DUP5 MSTORE DUP5 DUP3 KECCAK256 PUSH2 0x100 DUP8 ADD SWAP1 SWAP6 MSTORE DUP5 SLOAD PUSH1 0x1 PUSH1 0x1 PUSH1 0xA0 SHL SUB SWAP1 DUP2 AND PUSH1 0xC0 DUP9 ADD SWAP1 DUP2 MSTORE SWAP2 DUP7 ADD SLOAD AND PUSH1 0xE0 DUP8 ADD MSTORE DUP6 MSTORE PUSH1 0x2 DUP5 ADD SLOAD SWAP2 SWAP6 POP SWAP4 SWAP3 SWAP2 DUP4 ADD SWAP1 PUSH1 0xFF AND PUSH1 0x5 DUP2 GT ISZERO PUSH2 0x183A JUMPI PUSH2 0x183A PUSH2 0x3081 JUMP JUMPDEST PUSH1 0x5 DUP2 GT ISZERO PUSH2 0x184B JUMPI PUSH2 0x184B PUSH2 0x3081 JUMP JUMPDEST DUP2 MSTORE PUSH1 0x2 SWAP2 SWAP1 SWAP2 ADD SLOAD PUSH2 0x100 DUP2 DIV PUSH1 0x1 PUSH1 0x1 PUSH1 0x40 SHL SUB SWAP1 DUP2 AND PUSH1 0x20 DUP1 DUP6 ADD SWAP2 SWAP1 SWAP2 MSTORE PUSH1 0x1 PUSH1 0x48 SHL DUP4 DIV DUP3 AND PUSH1 0x40 DUP6 ADD MSTORE PUSH1 0x1 PUSH1 0x88 SHL DUP4 DIV SWAP1 SWAP2 AND PUSH1 0x60 DUP5 ADD MSTORE PUSH1 0x1 PUSH1 0xC8 SHL SWAP1 SWAP2 DIV PUSH1 0xE0 SHL PUSH1 0x1 PUSH1 0x1 PUSH1 0xE0 SHL SUB NOT AND PUSH1 0x80 SWAP1 SWAP3 ADD SWAP2 SWAP1 SWAP2 MSTORE DUP5 ADD MLOAD SWAP1 SWAP2 POP PUSH1 0x5 DUP2 GT ISZERO PUSH2 0x18BF JUMPI PUSH2 0x18BF PUSH2 0x3081 JUMP JUMPDEST DUP2 PUSH1 0x20 ADD MLOAD PUSH1 0x5 DUP2 GT ISZERO PUSH2 0x18D5 JUMPI PUSH2 0x18D5 PUSH2 0x3081 JUMP JUMPDEST EQ PUSH2 0x1A87 JUMPI DUP3 MLOAD DUP1 MLOAD PUSH1 0x20 SWAP1 SWAP2 ADD MLOAD PUSH2 0x18EE SWAP2 SWAP1 PUSH2 0x2713 JUMP JUMPDEST DUP3 MLOAD MLOAD DUP2 MLOAD PUSH1 0x1 PUSH1 0x1 PUSH1 0xA0 SHL SUB SWAP2 DUP3 AND SWAP1 MSTORE DUP4 MLOAD PUSH1 0x20 SWAP1 DUP2 ADD MLOAD DUP4 MLOAD SWAP3 AND SWAP2 DUP2 ADD SWAP2 SWAP1 SWAP2 MSTORE DUP1 DUP5 ADD MLOAD SWAP1 DUP3 ADD SWAP1 PUSH1 0x5 DUP2 GT ISZERO PUSH2 0x192C JUMPI PUSH2 0x192C PUSH2 0x3081 JUMP JUMPDEST SWAP1 DUP2 PUSH1 0x5 DUP2 GT ISZERO PUSH2 0x193F JUMPI PUSH2 0x193F PUSH2 0x3081 JUMP JUMPDEST SWAP1 MSTORE POP DUP3 MLOAD MLOAD PUSH1 0x1 PUSH1 0x1 PUSH1 0xA0 SHL SUB SWAP1 DUP2 AND PUSH1 0x0 SWAP1 DUP2 MSTORE PUSH1 0x2 PUSH1 0x20 SWAP1 DUP2 MSTORE PUSH1 0x40 SWAP2 DUP3 SWAP1 KECCAK256 DUP7 MLOAD SWAP1 SWAP2 ADD MLOAD SWAP2 MLOAD PUSH4 0x16F4B929 PUSH1 0xE2 SHL DUP2 MSTORE PUSH1 0x4 DUP2 ADD SWAP2 SWAP1 SWAP2 MSTORE SWAP2 AND PUSH1 0x24 DUP3 ADD MSTORE PUSH20 0x0 SWAP1 PUSH4 0x5BD2E4A4 SWAP1 PUSH1 0x44 ADD PUSH1 0x20 PUSH1 0x40 MLOAD DUP1 DUP4 SUB DUP2 DUP7 GAS DELEGATECALL ISZERO DUP1 ISZERO PUSH2 0x19BF JUMPI RETURNDATASIZE PUSH1 0x0 DUP1 RETURNDATACOPY RETURNDATASIZE PUSH1 0x0 REVERT JUMPDEST POP POP POP POP PUSH1 0x40 MLOAD RETURNDATASIZE PUSH1 0x1F NOT PUSH1 0x1F DUP3 ADD AND DUP3 ADD DUP1 PUSH1 0x40 MSTORE POP DUP2 ADD SWAP1 PUSH2 0x19E3 SWAP2 SWAP1 PUSH2 0x305F JUMP JUMPDEST POP DUP3 MLOAD PUSH1 0x20 SWAP1 DUP2 ADD MLOAD PUSH1 0x1 PUSH1 0x1 PUSH1 0xA0 SHL SUB SWAP1 DUP2 AND PUSH1 0x0 SWAP1 DUP2 MSTORE PUSH1 0x2 SWAP1 SWAP3 MSTORE PUSH1 0x40 SWAP2 DUP3 SWAP1 KECCAK256 DUP6 MLOAD MLOAD SWAP3 MLOAD PUSH4 0x16F4B929 PUSH1 0xE2 SHL DUP2 MSTORE PUSH1 0x4 DUP2 ADD SWAP2 SWAP1 SWAP2 MSTORE SWAP2 AND PUSH1 0x24 DUP3 ADD MSTORE PUSH20 0x0 SWAP1 PUSH4 0x5BD2E4A4 SWAP1 PUSH1 0x44 ADD PUSH1 0x20 PUSH1 0x40 MLOAD DUP1 DUP4 SUB DUP2 DUP7 GAS DELEGATECALL ISZERO DUP1 ISZERO PUSH2 0x1A61 JUMPI RETURNDATASIZE PUSH1 0x0 DUP1 RETURNDATACOPY RETURNDATASIZE PUSH1 0x0 REVERT JUMPDEST POP POP POP POP PUSH1 0x40 MLOAD RETURNDATASIZE PUSH1 0x1F NOT PUSH1 0x1F DUP3 ADD AND DUP3 ADD DUP1 PUSH1 0x40 MSTORE POP DUP2 ADD SWAP1 PUSH2 0x1A85 SWAP2 SWAP1 PUSH2 0x305F JUMP JUMPDEST POP JUMPDEST PUSH1 0x1 PUSH1 0x1 PUSH1 0xE0 SHL SUB NOT NUMBER AND PUSH1 0xA0 DUP3 ADD MSTORE PUSH1 0x40 DUP1 DUP5 ADD MLOAD SWAP1 DUP3 ADD MLOAD PUSH1 0x1 PUSH1 0x1 PUSH1 0x40 SHL SUB SWAP1 DUP2 AND SWAP2 AND EQ DUP1 ISZERO PUSH2 0x1AD4 JUMPI POP DUP3 PUSH1 0x60 ADD MLOAD PUSH1 0x1 PUSH1 0x1 PUSH1 0x40 SHL SUB AND DUP2 PUSH1 0x60 ADD MLOAD PUSH1 0x1 PUSH1 0x1 PUSH1 0x40 SHL SUB AND EQ JUMPDEST DUP1 ISZERO PUSH2 0x1AF9 JUMPI POP DUP3 PUSH1 0x80 ADD MLOAD PUSH1 0x1 PUSH1 0x1 PUSH1 0x40 SHL SUB AND DUP2 PUSH1 0x80 ADD MLOAD PUSH1 0x1 PUSH1 0x1 PUSH1 0x40 SHL SUB AND EQ JUMPDEST ISZERO PUSH2 0x1B03 JUMPI POP POP POP JUMP JUMPDEST PUSH1 0x40 DUP4 DUP2 ADD MLOAD PUSH1 0x1 PUSH1 0x1 PUSH1 0x40 SHL SUB SWAP1 DUP2 AND DUP4 DUP4 ADD MSTORE PUSH1 0x60 DUP1 DUP7 ADD MLOAD DUP3 AND SWAP1 DUP5 ADD MSTORE PUSH1 0x80 DUP1 DUP7 ADD MLOAD SWAP1 SWAP2 AND SWAP1 DUP4 ADD MSTORE PUSH1 0x0 DUP4 DUP2 MSTORE PUSH1 0x1 PUSH1 0x20 DUP2 DUP2 MSTORE SWAP3 SWAP1 SWAP2 KECCAK256 DUP4 MLOAD DUP1 MLOAD DUP3 SLOAD PUSH1 0x1 PUSH1 0x1 PUSH1 0xA0 SHL SUB NOT SWAP1 DUP2 AND PUSH1 0x1 PUSH1 0x1 PUSH1 0xA0 SHL SUB SWAP3 DUP4 AND OR DUP5 SSTORE SWAP2 DUP6 ADD MLOAD DUP4 DUP6 ADD DUP1 SLOAD SWAP1 SWAP4 AND SWAP2 AND OR SWAP1 SSTORE SWAP2 DUP4 ADD MLOAD PUSH1 0x2 DUP4 ADD DUP1 SLOAD DUP6 SWAP5 SWAP4 PUSH1 0xFF NOT SWAP1 SWAP2 AND SWAP1 DUP4 PUSH1 0x5 DUP2 GT ISZERO PUSH2 0x1B98 JUMPI PUSH2 0x1B98 PUSH2 0x3081 JUMP JUMPDEST MUL OR SWAP1 SSTORE POP PUSH1 0x40 DUP3 ADD MLOAD PUSH1 0x2 SWAP1 SWAP2 ADD DUP1 SLOAD PUSH1 0x60 DUP5 ADD MLOAD PUSH1 0x80 DUP6 ADD MLOAD PUSH1 0xA0 SWAP1 SWAP6 ADD MLOAD PUSH1 0xE0 SHR PUSH1 0x1 PUSH1 0xC8 SHL MUL PUSH4 0xFFFFFFFF PUSH1 0xC8 SHL NOT PUSH1 0x1 PUSH1 0x1 PUSH1 0x40 SHL SUB SWAP7 DUP8 AND PUSH1 0x1 PUSH1 0x88 SHL MUL AND PUSH12 0xFFFFFFFFFFFFFFFFFFFFFFFF PUSH1 0x88 SHL NOT SWAP3 DUP8 AND PUSH1 0x1 PUSH1 0x48 SHL MUL PUSH17 0xFFFFFFFFFFFFFFFF000000000000000000 NOT SWAP8 SWAP1 SWAP7 AND PUSH2 0x100 MUL SWAP7 SWAP1 SWAP7 AND PUSH17 0xFFFFFFFFFFFFFFFFFFFFFFFFFFFFFFFF00 NOT SWAP1 SWAP4 AND SWAP3 SWAP1 SWAP3 OR SWAP4 SWAP1 SWAP4 OR SWAP3 SWAP1 SWAP3 AND SWAP3 SWAP1 SWAP3 OR OR SWAP1 SSTORE POP POP POP JUMP JUMPDEST DUP1 MLOAD DUP1 MLOAD PUSH1 0x20 SWAP2 DUP3 ADD MLOAD PUSH1 0x40 MLOAD PUSH1 0x0 SWAP4 DUP5 SWAP4 DUP5 SWAP4 DUP5 SWAP4 PUSH2 0x1C64 SWAP4 ADD PUSH2 0x3097 JUMP JUMPDEST PUSH1 0x40 DUP1 MLOAD PUSH1 0x1F NOT DUP2 DUP5 SUB ADD DUP2 MSTORE DUP3 DUP3 MSTORE DUP1 MLOAD PUSH1 0x20 SWAP2 DUP3 ADD KECCAK256 PUSH1 0x0 DUP2 DUP2 MSTORE PUSH1 0x3 SWAP1 SWAP3 MSTORE DUP3 DUP3 KECCAK256 SLOAD PUSH4 0x3FABE5A3 PUSH1 0xE2 SHL DUP6 MSTORE SWAP3 MLOAD SWAP1 SWAP5 POP SWAP1 SWAP3 PUSH1 0x1 PUSH1 0x1 PUSH1 0xA0 SHL SUB SWAP1 SWAP3 AND SWAP2 PUSH4 0xFEAF968C SWAP2 PUSH1 0x4 DUP1 DUP4 ADD SWAP3 PUSH1 0xA0 SWAP3 SWAP2 SWAP1 DUP3 SWAP1 SUB ADD DUP2 DUP7 GAS STATICCALL ISZERO DUP1 ISZERO PUSH2 0x1CD1 JUMPI RETURNDATASIZE PUSH1 0x0 DUP1 RETURNDATACOPY RETURNDATASIZE PUSH1 0x0 REVERT JUMPDEST POP POP POP POP PUSH1 0x40 MLOAD RETURNDATASIZE PUSH1 0x1F NOT PUSH1 0x1F DUP3 ADD AND DUP3 ADD DUP1 PUSH1 0x40 MSTORE POP DUP2 ADD SWAP1 PUSH2 0x1CF5 SWAP2 SWAP1 PUSH2 0x318E JUMP JUMPDEST POP POP POP SWAP2 POP POP PUSH1 0x0 DUP2 SGT PUSH2 0x1D4B JUMPI PUSH1 0x40 MLOAD PUSH3 0x461BCD PUSH1 0xE5 SHL DUP2 MSTORE PUSH1 0x20 PUSH1 0x4 DUP3 ADD DUP2 SWAP1 MSTORE PUSH1 0x24 DUP3 ADD MSTORE PUSH32 0x436861696E6C696E6B2071756F7465206D75737420626520706F736974697665 PUSH1 0x44 DUP3 ADD MSTORE PUSH1 0x64 ADD PUSH2 0x6D9 JUMP JUMPDEST PUSH1 0x0 DUP3 DUP2 MSTORE PUSH1 0x3 PUSH1 0x20 SWAP1 DUP2 MSTORE PUSH1 0x40 SWAP2 DUP3 SWAP1 KECCAK256 SLOAD DUP3 MLOAD PUSH4 0x313CE567 PUSH1 0xE0 SHL DUP2 MSTORE SWAP3 MLOAD DUP5 SWAP4 PUSH1 0x1 PUSH1 0x1 PUSH1 0xA0 SHL SUB SWAP1 SWAP3 AND SWAP3 PUSH4 0x313CE567 SWAP3 PUSH1 0x4 DUP1 DUP3 ADD SWAP4 SWAP2 DUP3 SWAP1 SUB ADD DUP2 DUP7 GAS STATICCALL ISZERO DUP1 ISZERO PUSH2 0x1DA0 JUMPI RETURNDATASIZE PUSH1 0x0 DUP1 RETURNDATACOPY RETURNDATASIZE PUSH1 0x0 REVERT JUMPDEST POP POP POP POP PUSH1 0x40 MLOAD RETURNDATASIZE PUSH1 0x1F NOT PUSH1 0x1F DUP3 ADD AND DUP3 ADD DUP1 PUSH1 0x40 MSTORE POP DUP2 ADD SWAP1 PUSH2 0x1DC4 SWAP2 SWAP1 PUSH2 0x31DE JUMP JUMPDEST PUSH2 0x1DCF SWAP1 PUSH1 0xA PUSH2 0x32E5 JUMP JUMPDEST PUSH2 0x1DE1 SWAP1 PUSH8 0xDE0B6B3A7640000 PUSH2 0x30D4 JUMP JUMPDEST PUSH2 0x1DEB SWAP1 DUP3 PUSH2 0x30F6 JUMP JUMPDEST SWAP8 DUP9 SWAP8 POP DUP8 SWAP7 POP SWAP5 POP POP POP POP POP JUMP JUMPDEST PUSH1 0x0 DUP1 PUSH1 0x0 PUSH2 0x1E0C DUP5 PUSH1 0x40 ADD MLOAD PUSH2 0x15E6 JUMP JUMPDEST PUSH2 0x1E19 DUP6 PUSH1 0x60 ADD MLOAD PUSH2 0x15E6 JUMP JUMPDEST PUSH2 0x1E26 DUP7 PUSH1 0x80 ADD MLOAD PUSH2 0x15E6 JUMP JUMPDEST SWAP3 POP SWAP3 POP SWAP3 POP SWAP2 SWAP4 SWAP1 SWAP3 POP JUMP JUMPDEST PUSH1 0x0 DUP1 PUSH1 0x0 NUMBER PUSH1 0x0 SHL PUSH1 0x1 PUSH1 0x1 PUSH1 0xE0 SHL SUB NOT AND DUP5 PUSH1 0xA0 ADD MLOAD PUSH1 0x1 PUSH1 0x1 PUSH1 0xE0 SHL SUB NOT AND EQ PUSH2 0x1EC0 JUMPI PUSH1 0x0 DUP1 PUSH1 0x0 PUSH2 0x1E68 DUP8 PUSH2 0x1C44 JUMP JUMPDEST SWAP3 POP SWAP3 POP SWAP3 POP PUSH2 0x1E77 DUP4 PUSH2 0xB6C JUMP JUMPDEST PUSH1 0x1 PUSH1 0x1 PUSH1 0x40 SHL SUB AND PUSH1 0x40 DUP9 ADD MSTORE PUSH2 0x1E8E DUP3 PUSH2 0xB6C JUMP JUMPDEST PUSH1 0x1 PUSH1 0x1 PUSH1 0x40 SHL SUB AND PUSH1 0x60 DUP9 ADD MSTORE PUSH2 0x1EA5 DUP2 PUSH2 0xB6C JUMP JUMPDEST PUSH1 0x1 PUSH1 0x1 PUSH1 0x40 SHL SUB AND PUSH1 0x80 DUP9 ADD MSTORE PUSH2 0x1EBC DUP8 PUSH2 0x17AF JUMP JUMPDEST POP POP POP JUMPDEST PUSH2 0x1E0C DUP5 PUSH1 0x40 ADD MLOAD PUSH2 0x15E6 JUMP JUMPDEST PUSH1 0x0 SLOAD PUSH1 0x1 PUSH1 0x1 PUSH1 0xA0 SHL SUB PUSH3 0x10000 SWAP1 SWAP2 DIV AND CALLER EQ PUSH2 0x6E2 JUMPI PUSH1 0x40 MLOAD PUSH3 0x461BCD PUSH1 0xE5 SHL DUP2 MSTORE PUSH1 0x20 PUSH1 0x4 DUP3 ADD MSTORE PUSH1 0x1F PUSH1 0x24 DUP3 ADD MSTORE PUSH32 0x416C6C6F77616E63653A2063616C6C6572206D757374206265204F776E657200 PUSH1 0x44 DUP3 ADD MSTORE PUSH1 0x64 ADD PUSH2 0x6D9 JUMP JUMPDEST PUSH1 0x0 DUP1 SLOAD PUSH1 0x1 PUSH1 0x1 PUSH1 0xA0 SHL SUB DUP4 DUP2 AND PUSH3 0x10000 DUP2 DUP2 MUL PUSH3 0x10000 PUSH1 0x1 PUSH1 0xB0 SHL SUB NOT DUP6 AND OR DUP6 SSTORE PUSH1 0x40 MLOAD SWAP4 DIV SWAP2 SWAP1 SWAP2 AND SWAP3 SWAP1 SWAP2 DUP4 SWAP2 PUSH32 0x8BE0079C531659141344CD1FD0A4F28419497F9722A3DAAFE3B4186F6B6457E0 SWAP2 LOG3 POP POP JUMP JUMPDEST PUSH1 0x1 PUSH1 0x1 PUSH1 0xA0 SHL SUB DUP5 AND PUSH1 0x0 SWAP1 DUP2 MSTORE PUSH1 0x2 PUSH1 0x20 SWAP1 DUP2 MSTORE PUSH1 0x40 DUP1 DUP4 KECCAK256 DUP1 SLOAD DUP3 MLOAD DUP2 DUP6 MUL DUP2 ADD DUP6 ADD SWAP1 SWAP4 MSTORE DUP1 DUP4 MSTORE PUSH1 0x60 SWAP5 SWAP4 DUP4 ADD DUP3 DUP3 DUP1 ISZERO PUSH2 0x1FF2 JUMPI PUSH1 0x20 MUL DUP3 ADD SWAP2 SWAP1 PUSH1 0x0 MSTORE PUSH1 0x20 PUSH1 0x0 KECCAK256 SWAP1 JUMPDEST DUP2 SLOAD PUSH1 0x1 PUSH1 0x1 PUSH1 0xA0 SHL SUB AND DUP2 MSTORE PUSH1 0x1 SWAP1 SWAP2 ADD SWAP1 PUSH1 0x20 ADD DUP1 DUP4 GT PUSH2 0x1FD4 JUMPI JUMPDEST POP SWAP4 SWAP5 POP PUSH1 0x0 SWAP4 POP PUSH2 0x2003 SWAP3 POP POP POP JUMP JUMPDEST PUSH1 0x40 MLOAD SWAP1 DUP1 DUP3 MSTORE DUP1 PUSH1 0x20 MUL PUSH1 0x20 ADD DUP3 ADD PUSH1 0x40 MSTORE DUP1 ISZERO PUSH2 0x2036 JUMPI DUP2 PUSH1 0x20 ADD JUMPDEST PUSH1 0x60 DUP2 MSTORE PUSH1 0x20 ADD SWAP1 PUSH1 0x1 SWAP1 SUB SWAP1 DUP2 PUSH2 0x2021 JUMPI SWAP1 POP JUMPDEST POP SWAP2 POP PUSH1 0x0 JUMPDEST DUP2 MLOAD DUP2 LT ISZERO PUSH2 0x2709 JUMPI PUSH1 0x0 JUMPDEST DUP5 MLOAD DUP2 LT ISZERO PUSH2 0x217D JUMPI DUP8 PUSH1 0x1 PUSH1 0x1 PUSH1 0xA0 SHL SUB AND DUP6 DUP3 DUP2 MLOAD DUP2 LT PUSH2 0x206D JUMPI PUSH2 0x206D PUSH2 0x312B JUMP JUMPDEST PUSH1 0x20 MUL PUSH1 0x20 ADD ADD MLOAD PUSH1 0x0 ADD MLOAD PUSH1 0x1 PUSH1 0x1 PUSH1 0xA0 SHL SUB AND EQ DUP1 ISZERO PUSH2 0x20D6 JUMPI POP DUP3 DUP3 DUP2 MLOAD DUP2 LT PUSH2 0x209C JUMPI PUSH2 0x209C PUSH2 0x312B JUMP JUMPDEST PUSH1 0x20 MUL PUSH1 0x20 ADD ADD MLOAD PUSH1 0x1 PUSH1 0x1 PUSH1 0xA0 SHL SUB AND DUP6 DUP3 DUP2 MLOAD DUP2 LT PUSH2 0x20BF JUMPI PUSH2 0x20BF PUSH2 0x312B JUMP JUMPDEST PUSH1 0x20 MUL PUSH1 0x20 ADD ADD MLOAD PUSH1 0x20 ADD MLOAD PUSH1 0x1 PUSH1 0x1 PUSH1 0xA0 SHL SUB AND EQ JUMPDEST DUP1 PUSH2 0x2161 JUMPI POP DUP8 PUSH1 0x1 PUSH1 0x1 PUSH1 0xA0 SHL SUB AND DUP6 DUP3 DUP2 MLOAD DUP2 LT PUSH2 0x20F8 JUMPI PUSH2 0x20F8 PUSH2 0x312B JUMP JUMPDEST PUSH1 0x20 MUL PUSH1 0x20 ADD ADD MLOAD PUSH1 0x20 ADD MLOAD PUSH1 0x1 PUSH1 0x1 PUSH1 0xA0 SHL SUB AND EQ DUP1 ISZERO PUSH2 0x2161 JUMPI POP DUP3 DUP3 DUP2 MLOAD DUP2 LT PUSH2 0x2127 JUMPI PUSH2 0x2127 PUSH2 0x312B JUMP JUMPDEST PUSH1 0x20 MUL PUSH1 0x20 ADD ADD MLOAD PUSH1 0x1 PUSH1 0x1 PUSH1 0xA0 SHL SUB AND DUP6 DUP3 DUP2 MLOAD DUP2 LT PUSH2 0x214A JUMPI PUSH2 0x214A PUSH2 0x312B JUMP JUMPDEST PUSH1 0x20 MUL PUSH1 0x20 ADD ADD MLOAD PUSH1 0x0 ADD MLOAD PUSH1 0x1 PUSH1 0x1 PUSH1 0xA0 SHL SUB AND EQ JUMPDEST ISZERO PUSH2 0x216B JUMPI PUSH2 0x217D JUMP JUMPDEST DUP1 PUSH2 0x2175 DUP2 PUSH2 0x3141 JUMP JUMPDEST SWAP2 POP POP PUSH2 0x2048 JUMP JUMPDEST DUP5 MLOAD DUP2 LT ISZERO PUSH2 0x218C JUMPI POP PUSH2 0x26F7 JUMP JUMPDEST DUP7 PUSH1 0x1 PUSH1 0x1 PUSH1 0xA0 SHL SUB AND DUP4 DUP4 DUP2 MLOAD DUP2 LT PUSH2 0x21A8 JUMPI PUSH2 0x21A8 PUSH2 0x312B JUMP JUMPDEST PUSH1 0x20 MUL PUSH1 0x20 ADD ADD MLOAD PUSH1 0x1 PUSH1 0x1 PUSH1 0xA0 SHL SUB AND EQ ISZERO PUSH2 0x244B JUMPI PUSH1 0x0 PUSH1 0x1 PUSH1 0x0 DUP11 DUP11 PUSH1 0x40 MLOAD PUSH1 0x20 ADD PUSH2 0x21D8 SWAP3 SWAP2 SWAP1 PUSH2 0x3097 JUMP JUMPDEST PUSH1 0x40 DUP1 MLOAD PUSH1 0x1F NOT DUP2 DUP5 SUB ADD DUP2 MSTORE SWAP2 DUP2 MSTORE DUP2 MLOAD PUSH1 0x20 SWAP3 DUP4 ADD KECCAK256 DUP4 MSTORE SWAP1 DUP3 ADD SWAP3 SWAP1 SWAP3 MSTORE ADD PUSH1 0x0 KECCAK256 SWAP1 POP PUSH1 0x3 PUSH1 0x2 DUP3 ADD SLOAD PUSH1 0xFF AND PUSH1 0x5 DUP2 GT ISZERO PUSH2 0x221A JUMPI PUSH2 0x221A PUSH2 0x3081 JUMP JUMPDEST EQ ISZERO DUP1 ISZERO PUSH2 0x2241 JUMPI POP PUSH1 0x4 PUSH1 0x2 DUP3 ADD SLOAD PUSH1 0xFF AND PUSH1 0x5 DUP2 GT ISZERO PUSH2 0x223E JUMPI PUSH2 0x223E PUSH2 0x3081 JUMP JUMPDEST EQ ISZERO JUMPDEST ISZERO PUSH2 0x2449 JUMPI PUSH1 0x0 DUP7 MLOAD PUSH1 0x1 PUSH2 0x2256 SWAP2 SWAP1 PUSH2 0x315C JUMP JUMPDEST PUSH1 0x1 PUSH1 0x1 PUSH1 0x40 SHL SUB DUP2 GT ISZERO PUSH2 0x226D JUMPI PUSH2 0x226D PUSH2 0x2BAD JUMP JUMPDEST PUSH1 0x40 MLOAD SWAP1 DUP1 DUP3 MSTORE DUP1 PUSH1 0x20 MUL PUSH1 0x20 ADD DUP3 ADD PUSH1 0x40 MSTORE DUP1 ISZERO PUSH2 0x22B2 JUMPI DUP2 PUSH1 0x20 ADD JUMPDEST PUSH1 0x40 DUP1 MLOAD DUP1 DUP3 ADD SWAP1 SWAP2 MSTORE PUSH1 0x0 DUP1 DUP3 MSTORE PUSH1 0x20 DUP3 ADD MSTORE DUP2 MSTORE PUSH1 0x20 ADD SWAP1 PUSH1 0x1 SWAP1 SUB SWAP1 DUP2 PUSH2 0x228B JUMPI SWAP1 POP JUMPDEST POP SWAP1 POP PUSH1 0x0 SWAP3 POP JUMPDEST DUP7 MLOAD DUP4 LT ISZERO PUSH2 0x230D JUMPI DUP7 DUP4 DUP2 MLOAD DUP2 LT PUSH2 0x22D5 JUMPI PUSH2 0x22D5 PUSH2 0x312B JUMP JUMPDEST PUSH1 0x20 MUL PUSH1 0x20 ADD ADD MLOAD DUP2 DUP5 DUP2 MLOAD DUP2 LT PUSH2 0x22EF JUMPI PUSH2 0x22EF PUSH2 0x312B JUMP JUMPDEST PUSH1 0x20 MUL PUSH1 0x20 ADD ADD DUP2 SWAP1 MSTORE POP DUP3 DUP1 PUSH2 0x2305 SWAP1 PUSH2 0x3141 JUMP JUMPDEST SWAP4 POP POP PUSH2 0x22BA JUMP JUMPDEST DUP10 DUP2 DUP5 DUP2 MLOAD DUP2 LT PUSH2 0x2320 JUMPI PUSH2 0x2320 PUSH2 0x312B JUMP JUMPDEST PUSH1 0x20 MUL PUSH1 0x20 ADD ADD MLOAD PUSH1 0x0 ADD SWAP1 PUSH1 0x1 PUSH1 0x1 PUSH1 0xA0 SHL SUB AND SWAP1 DUP2 PUSH1 0x1 PUSH1 0x1 PUSH1 0xA0 SHL SUB AND DUP2 MSTORE POP POP DUP9 DUP2 DUP5 DUP2 MLOAD DUP2 LT PUSH2 0x2357 JUMPI PUSH2 0x2357 PUSH2 0x312B JUMP JUMPDEST PUSH1 0x20 SWAP1 DUP2 MUL SWAP2 SWAP1 SWAP2 ADD DUP2 ADD MLOAD PUSH1 0x1 PUSH1 0x1 PUSH1 0xA0 SHL SUB SWAP1 SWAP3 AND SWAP2 ADD MSTORE DUP6 MLOAD PUSH1 0x0 SWAP1 PUSH2 0x2381 SWAP1 PUSH1 0x1 PUSH2 0x315C JUMP JUMPDEST PUSH1 0x1 PUSH1 0x1 PUSH1 0x40 SHL SUB DUP2 GT ISZERO PUSH2 0x2398 JUMPI PUSH2 0x2398 PUSH2 0x2BAD JUMP JUMPDEST PUSH1 0x40 MLOAD SWAP1 DUP1 DUP3 MSTORE DUP1 PUSH1 0x20 MUL PUSH1 0x20 ADD DUP3 ADD PUSH1 0x40 MSTORE DUP1 ISZERO PUSH2 0x23CB JUMPI DUP2 PUSH1 0x20 ADD JUMPDEST PUSH1 0x60 DUP2 MSTORE PUSH1 0x20 ADD SWAP1 PUSH1 0x1 SWAP1 SUB SWAP1 DUP2 PUSH2 0x23B6 JUMPI SWAP1 POP JUMPDEST POP SWAP1 POP PUSH1 0x0 SWAP4 POP JUMPDEST DUP7 MLOAD DUP5 LT ISZERO PUSH2 0x2426 JUMPI DUP7 DUP5 DUP2 MLOAD DUP2 LT PUSH2 0x23EE JUMPI PUSH2 0x23EE PUSH2 0x312B JUMP JUMPDEST PUSH1 0x20 MUL PUSH1 0x20 ADD ADD MLOAD DUP2 DUP6 DUP2 MLOAD DUP2 LT PUSH2 0x2408 JUMPI PUSH2 0x2408 PUSH2 0x312B JUMP JUMPDEST PUSH1 0x20 MUL PUSH1 0x20 ADD ADD DUP2 SWAP1 MSTORE POP DUP4 DUP1 PUSH2 0x241E SWAP1 PUSH2 0x3141 JUMP JUMPDEST SWAP5 POP POP PUSH2 0x23D3 JUMP JUMPDEST DUP2 DUP2 DUP9 MLOAD DUP2 MLOAD DUP2 LT PUSH2 0x243A JUMPI PUSH2 0x243A PUSH2 0x312B JUMP JUMPDEST PUSH1 0x20 SWAP1 DUP2 MUL SWAP2 SWAP1 SWAP2 ADD ADD MSTORE SWAP6 POP POP JUMPDEST POP JUMPDEST DUP6 PUSH2 0x2456 JUMPI POP PUSH2 0x2709 JUMP JUMPDEST PUSH1 0x0 DUP6 MLOAD PUSH1 0x1 PUSH2 0x2466 SWAP2 SWAP1 PUSH2 0x315C JUMP JUMPDEST PUSH1 0x1 PUSH1 0x1 PUSH1 0x40 SHL SUB DUP2 GT ISZERO PUSH2 0x247D JUMPI PUSH2 0x247D PUSH2 0x2BAD JUMP JUMPDEST PUSH1 0x40 MLOAD SWAP1 DUP1 DUP3 MSTORE DUP1 PUSH1 0x20 MUL PUSH1 0x20 ADD DUP3 ADD PUSH1 0x40 MSTORE DUP1 ISZERO PUSH2 0x24C2 JUMPI DUP2 PUSH1 0x20 ADD JUMPDEST PUSH1 0x40 DUP1 MLOAD DUP1 DUP3 ADD SWAP1 SWAP2 MSTORE PUSH1 0x0 DUP1 DUP3 MSTORE PUSH1 0x20 DUP3 ADD MSTORE DUP2 MSTORE PUSH1 0x20 ADD SWAP1 PUSH1 0x1 SWAP1 SUB SWAP1 DUP2 PUSH2 0x249B JUMPI SWAP1 POP JUMPDEST POP SWAP1 POP PUSH1 0x0 SWAP2 POP JUMPDEST DUP6 MLOAD DUP3 LT ISZERO PUSH2 0x251D JUMPI DUP6 DUP3 DUP2 MLOAD DUP2 LT PUSH2 0x24E5 JUMPI PUSH2 0x24E5 PUSH2 0x312B JUMP JUMPDEST PUSH1 0x20 MUL PUSH1 0x20 ADD ADD MLOAD DUP2 DUP4 DUP2 MLOAD DUP2 LT PUSH2 0x24FF JUMPI PUSH2 0x24FF PUSH2 0x312B JUMP JUMPDEST PUSH1 0x20 MUL PUSH1 0x20 ADD ADD DUP2 SWAP1 MSTORE POP DUP2 DUP1 PUSH2 0x2515 SWAP1 PUSH2 0x3141 JUMP JUMPDEST SWAP3 POP POP PUSH2 0x24CA JUMP JUMPDEST DUP9 DUP2 DUP4 DUP2 MLOAD DUP2 LT PUSH2 0x2530 JUMPI PUSH2 0x2530 PUSH2 0x312B JUMP JUMPDEST PUSH1 0x20 SWAP1 DUP2 MUL SWAP2 SWAP1 SWAP2 ADD ADD MLOAD PUSH1 0x1 PUSH1 0x1 PUSH1 0xA0 SHL SUB SWAP1 SWAP2 AND SWAP1 MSTORE DUP4 MLOAD DUP5 SWAP1 DUP5 SWAP1 DUP2 LT PUSH2 0x255C JUMPI PUSH2 0x255C PUSH2 0x312B JUMP JUMPDEST PUSH1 0x20 MUL PUSH1 0x20 ADD ADD MLOAD DUP2 DUP4 DUP2 MLOAD DUP2 LT PUSH2 0x2576 JUMPI PUSH2 0x2576 PUSH2 0x312B JUMP JUMPDEST PUSH1 0x20 MUL PUSH1 0x20 ADD ADD MLOAD PUSH1 0x20 ADD SWAP1 PUSH1 0x1 PUSH1 0x1 PUSH1 0xA0 SHL SUB AND SWAP1 DUP2 PUSH1 0x1 PUSH1 0x1 PUSH1 0xA0 SHL SUB AND DUP2 MSTORE POP POP PUSH1 0x0 PUSH2 0x25CD DUP6 DUP6 DUP2 MLOAD DUP2 LT PUSH2 0x25B1 JUMPI PUSH2 0x25B1 PUSH2 0x312B JUMP JUMPDEST PUSH1 0x20 MUL PUSH1 0x20 ADD ADD MLOAD DUP11 PUSH1 0x1 DUP12 PUSH2 0x25C7 SWAP2 SWAP1 PUSH2 0x32F4 JUMP JUMPDEST DUP6 PUSH2 0x1F89 JUMP JUMPDEST DUP1 MLOAD SWAP1 SWAP2 POP ISZERO PUSH2 0x26F3 JUMPI PUSH1 0x0 DUP7 MLOAD DUP3 MLOAD PUSH2 0x25E7 SWAP2 SWAP1 PUSH2 0x315C JUMP JUMPDEST PUSH1 0x1 PUSH1 0x1 PUSH1 0x40 SHL SUB DUP2 GT ISZERO PUSH2 0x25FE JUMPI PUSH2 0x25FE PUSH2 0x2BAD JUMP JUMPDEST PUSH1 0x40 MLOAD SWAP1 DUP1 DUP3 MSTORE DUP1 PUSH1 0x20 MUL PUSH1 0x20 ADD DUP3 ADD PUSH1 0x40 MSTORE DUP1 ISZERO PUSH2 0x2631 JUMPI DUP2 PUSH1 0x20 ADD JUMPDEST PUSH1 0x60 DUP2 MSTORE PUSH1 0x20 ADD SWAP1 PUSH1 0x1 SWAP1 SUB SWAP1 DUP2 PUSH2 0x261C JUMPI SWAP1 POP JUMPDEST POP SWAP1 POP PUSH1 0x0 SWAP4 POP JUMPDEST DUP7 MLOAD DUP5 LT ISZERO PUSH2 0x268C JUMPI DUP7 DUP5 DUP2 MLOAD DUP2 LT PUSH2 0x2654 JUMPI PUSH2 0x2654 PUSH2 0x312B JUMP JUMPDEST PUSH1 0x20 MUL PUSH1 0x20 ADD ADD MLOAD DUP2 DUP6 DUP2 MLOAD DUP2 LT PUSH2 0x266E JUMPI PUSH2 0x266E PUSH2 0x312B JUMP JUMPDEST PUSH1 0x20 MUL PUSH1 0x20 ADD ADD DUP2 SWAP1 MSTORE POP DUP4 DUP1 PUSH2 0x2684 SWAP1 PUSH2 0x3141 JUMP JUMPDEST SWAP5 POP POP PUSH2 0x2639 JUMP JUMPDEST PUSH1 0x0 SWAP4 POP JUMPDEST DUP2 MLOAD DUP5 LT ISZERO PUSH2 0x26F0 JUMPI DUP2 DUP5 DUP2 MLOAD DUP2 LT PUSH2 0x26AC JUMPI PUSH2 0x26AC PUSH2 0x312B JUMP JUMPDEST PUSH1 0x20 MUL PUSH1 0x20 ADD ADD MLOAD DUP2 DUP6 DUP10 MLOAD PUSH2 0x26C2 SWAP2 SWAP1 PUSH2 0x315C JUMP JUMPDEST DUP2 MLOAD DUP2 LT PUSH2 0x26D2 JUMPI PUSH2 0x26D2 PUSH2 0x312B JUMP JUMPDEST PUSH1 0x20 MUL PUSH1 0x20 ADD ADD DUP2 SWAP1 MSTORE POP DUP4 DUP1 PUSH2 0x26E8 SWAP1 PUSH2 0x3141 JUMP JUMPDEST SWAP5 POP POP PUSH2 0x2691 JUMP JUMPDEST SWAP6 POP JUMPDEST POP POP POP JUMPDEST DUP1 PUSH2 0x2701 DUP2 PUSH2 0x3141 JUMP JUMPDEST SWAP2 POP POP PUSH2 0x203C JUMP JUMPDEST POP POP SWAP5 SWAP4 POP POP POP POP JUMP JUMPDEST PUSH1 0x0 DUP3 DUP3 PUSH1 0x40 MLOAD PUSH1 0x20 ADD PUSH2 0x2728 SWAP3 SWAP2 SWAP1 PUSH2 0x3097 JUMP JUMPDEST PUSH1 0x40 DUP1 MLOAD PUSH1 0x1F NOT DUP2 DUP5 SUB ADD DUP2 MSTORE DUP3 DUP3 MSTORE DUP1 MLOAD PUSH1 0x20 SWAP2 DUP3 ADD KECCAK256 PUSH1 0x0 DUP2 DUP2 MSTORE PUSH1 0x1 DUP1 DUP5 MSTORE DUP5 DUP3 KECCAK256 PUSH2 0x100 DUP8 ADD SWAP1 SWAP6 MSTORE DUP5 SLOAD PUSH1 0x1 PUSH1 0x1 PUSH1 0xA0 SHL SUB SWAP1 DUP2 AND PUSH1 0xC0 DUP9 ADD SWAP1 DUP2 MSTORE SWAP2 DUP7 ADD SLOAD AND PUSH1 0xE0 DUP8 ADD MSTORE DUP6 MSTORE PUSH1 0x2 DUP5 ADD SLOAD SWAP2 SWAP6 POP SWAP4 SWAP3 SWAP2 DUP4 ADD SWAP1 PUSH1 0xFF AND PUSH1 0x5 DUP2 GT ISZERO PUSH2 0x2797 JUMPI PUSH2 0x2797 PUSH2 0x3081 JUMP JUMPDEST PUSH1 0x5 DUP2 GT ISZERO PUSH2 0x27A8 JUMPI PUSH2 0x27A8 PUSH2 0x3081 JUMP JUMPDEST DUP2 MSTORE PUSH1 0x2 SWAP2 SWAP1 SWAP2 ADD SLOAD PUSH1 0x1 PUSH1 0x1 PUSH1 0x40 SHL SUB PUSH2 0x100 DUP3 DIV DUP2 AND PUSH1 0x20 DUP5 ADD MSTORE PUSH1 0x1 PUSH1 0x48 SHL DUP3 DIV DUP2 AND PUSH1 0x40 DUP5 ADD MSTORE PUSH1 0x1 PUSH1 0x88 SHL DUP3 DIV AND PUSH1 0x60 DUP4 ADD MSTORE PUSH1 0x1 PUSH1 0x1 PUSH1 0xE0 SHL SUB NOT PUSH1 0x1 PUSH1 0xC8 SHL SWAP1 SWAP2 DIV PUSH1 0xE0 SHL AND PUSH1 0x80 SWAP1 SWAP2 ADD MSTORE SWAP1 POP PUSH1 0x0 DUP2 PUSH1 0x20 ADD MLOAD PUSH1 0x5 DUP2 GT ISZERO PUSH2 0x2815 JUMPI PUSH2 0x2815 PUSH2 0x3081 JUMP JUMPDEST EQ ISZERO PUSH2 0x2821 JUMPI POP POP POP POP JUMP JUMPDEST PUSH1 0x5 DUP2 PUSH1 0x20 ADD MLOAD PUSH1 0x5 DUP2 GT ISZERO PUSH2 0x2839 JUMPI PUSH2 0x2839 PUSH2 0x3081 JUMP JUMPDEST EQ ISZERO PUSH2 0x2849 JUMPI PUSH2 0x2849 DUP5 DUP5 PUSH2 0x29CF JUMP JUMPDEST DUP1 MLOAD MLOAD PUSH1 0x1 PUSH1 0x1 PUSH1 0xA0 SHL SUB SWAP1 DUP2 AND PUSH1 0x0 SWAP1 DUP2 MSTORE PUSH1 0x2 PUSH1 0x20 SWAP1 DUP2 MSTORE PUSH1 0x40 SWAP2 DUP3 SWAP1 KECCAK256 DUP5 MLOAD SWAP1 SWAP2 ADD MLOAD SWAP2 MLOAD PUSH4 0xEDEFE12D PUSH1 0xE0 SHL DUP2 MSTORE PUSH1 0x4 DUP2 ADD SWAP2 SWAP1 SWAP2 MSTORE SWAP2 AND PUSH1 0x24 DUP3 ADD MSTORE PUSH20 0x0 SWAP1 PUSH4 0xEDEFE12D SWAP1 PUSH1 0x44 ADD PUSH1 0x20 PUSH1 0x40 MLOAD DUP1 DUP4 SUB DUP2 DUP7 GAS DELEGATECALL ISZERO DUP1 ISZERO PUSH2 0x28C6 JUMPI RETURNDATASIZE PUSH1 0x0 DUP1 RETURNDATACOPY RETURNDATASIZE PUSH1 0x0 REVERT JUMPDEST POP POP POP POP PUSH1 0x40 MLOAD RETURNDATASIZE PUSH1 0x1F NOT PUSH1 0x1F DUP3 ADD AND DUP3 ADD DUP1 PUSH1 0x40 MSTORE POP DUP2 ADD SWAP1 PUSH2 0x28EA SWAP2 SWAP1 PUSH2 0x305F JUMP JUMPDEST POP DUP1 MLOAD PUSH1 0x20 SWAP1 DUP2 ADD MLOAD PUSH1 0x1 PUSH1 0x1 PUSH1 0xA0 SHL SUB SWAP1 DUP2 AND PUSH1 0x0 SWAP1 DUP2 MSTORE PUSH1 0x2 SWAP1 SWAP3 MSTORE PUSH1 0x40 SWAP2 DUP3 SWAP1 KECCAK256 DUP4 MLOAD MLOAD SWAP3 MLOAD PUSH4 0xEDEFE12D PUSH1 0xE0 SHL DUP2 MSTORE PUSH1 0x4 DUP2 ADD SWAP2 SWAP1 SWAP2 MSTORE SWAP2 AND PUSH1 0x24 DUP3 ADD MSTORE PUSH20 0x0 SWAP1 PUSH4 0xEDEFE12D SWAP1 PUSH1 0x44 ADD PUSH1 0x20 PUSH1 0x40 MLOAD DUP1 DUP4 SUB DUP2 DUP7 GAS DELEGATECALL ISZERO DUP1 ISZERO PUSH2 0x2968 JUMPI RETURNDATASIZE PUSH1 0x0 DUP1 RETURNDATACOPY RETURNDATASIZE PUSH1 0x0 REVERT JUMPDEST POP POP POP POP PUSH1 0x40 MLOAD RETURNDATASIZE PUSH1 0x1F NOT PUSH1 0x1F DUP3 ADD AND DUP3 ADD DUP1 PUSH1 0x40 MSTORE POP DUP2 ADD SWAP1 PUSH2 0x298C SWAP2 SWAP1 PUSH2 0x305F JUMP JUMPDEST POP POP PUSH1 0x0 SWAP1 DUP2 MSTORE PUSH1 0x1 PUSH1 0x20 DUP2 SWAP1 MSTORE PUSH1 0x40 SWAP1 SWAP2 KECCAK256 DUP1 SLOAD PUSH1 0x1 PUSH1 0x1 PUSH1 0xA0 SHL SUB NOT SWAP1 DUP2 AND DUP3 SSTORE SWAP2 DUP2 ADD DUP1 SLOAD SWAP1 SWAP3 AND SWAP1 SWAP2 SSTORE PUSH1 0x2 ADD DUP1 SLOAD PUSH1 0x1 PUSH1 0x1 PUSH1 0xE8 SHL SUB NOT AND SWAP1 SSTORE POP POP JUMP JUMPDEST PUSH1 0x0 DUP3 DUP3 PUSH1 0x40 MLOAD PUSH1 0x20 ADD PUSH2 0x29E4 SWAP3 SWAP2 SWAP1 PUSH2 0x3097 JUMP JUMPDEST PUSH1 0x40 DUP1 MLOAD PUSH1 0x1F NOT DUP2 DUP5 SUB ADD DUP2 MSTORE SWAP2 DUP2 MSTORE DUP2 MLOAD PUSH1 0x20 SWAP3 DUP4 ADD KECCAK256 PUSH1 0x0 SWAP1 DUP2 MSTORE PUSH1 0x3 SWAP1 SWAP3 MSTORE SWAP1 KECCAK256 DUP1 SLOAD PUSH1 0x1 PUSH1 0x1 PUSH1 0xA0 SHL SUB NOT AND SWAP1 SSTORE POP POP POP JUMP JUMPDEST PUSH1 0x40 DUP1 MLOAD PUSH2 0x100 DUP2 ADD DUP3 MSTORE PUSH1 0x0 PUSH1 0xC0 DUP3 ADD DUP2 DUP2 MSTORE PUSH1 0xE0 DUP4 ADD DUP3 SWAP1 MSTORE DUP3 MSTORE PUSH1 0x20 DUP3 ADD DUP2 SWAP1 MSTORE SWAP2 DUP2 ADD DUP3 SWAP1 MSTORE PUSH1 0x60 DUP2 ADD DUP3 SWAP1 MSTORE PUSH1 0x80 DUP2 ADD DUP3 SWAP1 MSTORE PUSH1 0xA0 DUP2 ADD SWAP2 SWAP1 SWAP2 MSTORE SWAP1 JUMP JUMPDEST PUSH1 0x0 DUP1 DUP6 DUP6 GT ISZERO PUSH2 0x2A6E JUMPI PUSH1 0x0 DUP1 REVERT JUMPDEST DUP4 DUP7 GT ISZERO PUSH2 0x2A7B JUMPI PUSH1 0x0 DUP1 REVERT JUMPDEST POP POP DUP3 ADD SWAP4 SWAP2 SWAP1 SWAP3 SUB SWAP2 POP JUMP JUMPDEST DUP1 CALLDATALOAD PUSH1 0x1 PUSH1 0x1 PUSH1 0xE0 SHL SUB NOT DUP2 AND DUP2 EQ PUSH2 0x2AA0 JUMPI PUSH1 0x0 DUP1 REVERT JUMPDEST SWAP2 SWAP1 POP JUMP JUMPDEST PUSH1 0x0 PUSH1 0x20 DUP3 DUP5 SUB SLT ISZERO PUSH2 0x2AB7 JUMPI PUSH1 0x0 DUP1 REVERT JUMPDEST PUSH2 0x1386 DUP3 PUSH2 0x2A88 JUMP JUMPDEST DUP1 CALLDATALOAD PUSH1 0x1 PUSH1 0x1 PUSH1 0xA0 SHL SUB DUP2 AND DUP2 EQ PUSH2 0x2AA0 JUMPI PUSH1 0x0 DUP1 REVERT JUMPDEST PUSH1 0x0 DUP1 PUSH1 0x0 DUP1 PUSH1 0x0 PUSH1 0xA0 DUP7 DUP9 SUB SLT ISZERO PUSH2 0x2AEF JUMPI PUSH1 0x0 DUP1 REVERT JUMPDEST PUSH2 0x2AF8 DUP7 PUSH2 0x2AC0 JUMP JUMPDEST SWAP5 POP PUSH2 0x2B06 PUSH1 0x20 DUP8 ADD PUSH2 0x2AC0 JUMP JUMPDEST SWAP5 SWAP8 SWAP5 SWAP7 POP POP POP POP PUSH1 0x40 DUP4 ADD CALLDATALOAD SWAP3 PUSH1 0x60 DUP2 ADD CALLDATALOAD SWAP3 PUSH1 0x80 SWAP1 SWAP2 ADD CALLDATALOAD SWAP2 POP JUMP JUMPDEST PUSH1 0x0 DUP1 PUSH1 0x40 DUP4 DUP6 SUB SLT ISZERO PUSH2 0x2B37 JUMPI PUSH1 0x0 DUP1 REVERT JUMPDEST PUSH2 0x2B40 DUP4 PUSH2 0x2AC0 JUMP JUMPDEST SWAP2 POP PUSH2 0x2B4E PUSH1 0x20 DUP5 ADD PUSH2 0x2AC0 JUMP JUMPDEST SWAP1 POP SWAP3 POP SWAP3 SWAP1 POP JUMP JUMPDEST PUSH1 0x0 PUSH1 0x20 DUP3 DUP5 SUB SLT ISZERO PUSH2 0x2B69 JUMPI PUSH1 0x0 DUP1 REVERT JUMPDEST POP CALLDATALOAD SWAP2 SWAP1 POP JUMP JUMPDEST PUSH1 0x0 PUSH1 0x20 DUP3 DUP5 SUB SLT ISZERO PUSH2 0x2B82 JUMPI PUSH1 0x0 DUP1 REVERT JUMPDEST PUSH2 0x1386 DUP3 PUSH2 0x2AC0 JUMP JUMPDEST PUSH1 0x0 DUP1 PUSH1 0x40 DUP4 DUP6 SUB SLT ISZERO PUSH2 0x2B9E JUMPI PUSH1 0x0 DUP1 REVERT JUMPDEST POP POP DUP1 CALLDATALOAD SWAP3 PUSH1 0x20 SWAP1 SWAP2 ADD CALLDATALOAD SWAP2 POP JUMP JUMPDEST PUSH4 0x4E487B71 PUSH1 0xE0 SHL PUSH1 0x0 MSTORE PUSH1 0x41 PUSH1 0x4 MSTORE PUSH1 0x24 PUSH1 0x0 REVERT JUMPDEST PUSH1 0x40 MLOAD PUSH1 0xC0 DUP2 ADD PUSH1 0x1 PUSH1 0x1 PUSH1 0x40 SHL SUB DUP2 GT DUP3 DUP3 LT OR ISZERO PUSH2 0x2BE5 JUMPI PUSH2 0x2BE5 PUSH2 0x2BAD JUMP JUMPDEST PUSH1 0x40 MSTORE SWAP1 JUMP JUMPDEST PUSH1 0x40 MLOAD PUSH1 0x1F DUP3 ADD PUSH1 0x1F NOT AND DUP2 ADD PUSH1 0x1 PUSH1 0x1 PUSH1 0x40 SHL SUB DUP2 GT DUP3 DUP3 LT OR ISZERO PUSH2 0x2C13 JUMPI PUSH2 0x2C13 PUSH2 0x2BAD JUMP JUMPDEST PUSH1 0x40 MSTORE SWAP2 SWAP1 POP JUMP JUMPDEST PUSH1 0x0 PUSH1 0x1 PUSH1 0x1 PUSH1 0x40 SHL SUB DUP3 GT ISZERO PUSH2 0x2C34 JUMPI PUSH2 0x2C34 PUSH2 0x2BAD JUMP JUMPDEST POP PUSH1 0x5 SHL PUSH1 0x20 ADD SWAP1 JUMP JUMPDEST PUSH1 0x0 PUSH1 0x40 DUP3 DUP5 SUB SLT ISZERO PUSH2 0x2C50 JUMPI PUSH1 0x0 DUP1 REVERT JUMPDEST PUSH1 0x40 MLOAD PUSH1 0x40 DUP2 ADD DUP2 DUP2 LT PUSH1 0x1 PUSH1 0x1 PUSH1 0x40 SHL SUB DUP3 GT OR ISZERO PUSH2 0x2C72 JUMPI PUSH2 0x2C72 PUSH2 0x2BAD JUMP JUMPDEST PUSH1 0x40 MSTORE SWAP1 POP DUP1 PUSH2 0x2C81 DUP4 PUSH2 0x2AC0 JUMP JUMPDEST DUP2 MSTORE PUSH2 0x2C8F PUSH1 0x20 DUP5 ADD PUSH2 0x2AC0 JUMP JUMPDEST PUSH1 0x20 DUP3 ADD MSTORE POP SWAP3 SWAP2 POP POP JUMP JUMPDEST DUP1 CALLDATALOAD PUSH1 0x1 PUSH1 0x1 PUSH1 0x40 SHL SUB DUP2 AND DUP2 EQ PUSH2 0x2AA0 JUMPI PUSH1 0x0 DUP1 REVERT JUMPDEST PUSH1 0x0 PUSH1 0x20 DUP1 DUP4 DUP6 SUB SLT ISZERO PUSH2 0x2CC5 JUMPI PUSH1 0x0 DUP1 REVERT JUMPDEST DUP3 CALLDATALOAD PUSH1 0x1 PUSH1 0x1 PUSH1 0x40 SHL SUB DUP2 GT ISZERO PUSH2 0x2CDB JUMPI PUSH1 0x0 DUP1 REVERT JUMPDEST DUP4 ADD PUSH1 0x1F DUP2 ADD DUP6 SGT PUSH2 0x2CEC JUMPI PUSH1 0x0 DUP1 REVERT JUMPDEST DUP1 CALLDATALOAD PUSH2 0x2CFF PUSH2 0x2CFA DUP3 PUSH2 0x2C1B JUMP JUMPDEST PUSH2 0x2BEB JUMP JUMPDEST DUP2 DUP2 MSTORE PUSH1 0xE0 SWAP2 DUP3 MUL DUP4 ADD DUP5 ADD SWAP2 DUP5 DUP3 ADD SWAP2 SWAP1 DUP9 DUP5 GT ISZERO PUSH2 0x2D1E JUMPI PUSH1 0x0 DUP1 REVERT JUMPDEST SWAP4 DUP6 ADD SWAP4 JUMPDEST DUP4 DUP6 LT ISZERO PUSH2 0x2DBC JUMPI DUP1 DUP6 DUP11 SUB SLT ISZERO PUSH2 0x2D3B JUMPI PUSH1 0x0 DUP1 DUP2 REVERT JUMPDEST PUSH2 0x2D43 PUSH2 0x2BC3 JUMP JUMPDEST PUSH2 0x2D4D DUP11 DUP8 PUSH2 0x2C3E JUMP JUMPDEST DUP2 MSTORE PUSH1 0x40 DUP1 DUP8 ADD CALLDATALOAD PUSH1 0x6 DUP2 LT PUSH2 0x2D63 JUMPI PUSH1 0x0 DUP1 DUP2 REVERT JUMPDEST DUP3 DUP10 ADD MSTORE PUSH1 0x60 PUSH2 0x2D74 DUP9 DUP3 ADD PUSH2 0x2C9B JUMP JUMPDEST DUP3 DUP5 ADD MSTORE PUSH1 0x80 SWAP2 POP PUSH2 0x2D87 DUP3 DUP10 ADD PUSH2 0x2C9B JUMP JUMPDEST SWAP1 DUP4 ADD MSTORE PUSH1 0xA0 PUSH2 0x2D98 DUP9 DUP3 ADD PUSH2 0x2C9B JUMP JUMPDEST DUP3 DUP5 ADD MSTORE PUSH2 0x2DA8 PUSH1 0xC0 DUP10 ADD PUSH2 0x2A88 JUMP JUMPDEST SWAP1 DUP4 ADD MSTORE POP DUP4 MSTORE SWAP4 DUP5 ADD SWAP4 SWAP2 DUP6 ADD SWAP2 PUSH2 0x2D23 JUMP JUMPDEST POP SWAP8 SWAP7 POP POP POP POP POP POP POP JUMP JUMPDEST PUSH1 0x0 PUSH1 0x20 DUP3 DUP5 SUB SLT ISZERO PUSH2 0x2DDA JUMPI PUSH1 0x0 DUP1 REVERT JUMPDEST DUP2 CALLDATALOAD PUSH6 0xFFFFFFFFFFFF DUP2 AND DUP2 EQ PUSH2 0x1386 JUMPI PUSH1 0x0 DUP1 REVERT JUMPDEST PUSH1 0x0 PUSH1 0x20 DUP1 DUP4 ADD DUP2 DUP5 MSTORE DUP1 DUP6 MLOAD DUP1 DUP4 MSTORE PUSH1 0x40 SWAP3 POP DUP3 DUP7 ADD SWAP2 POP DUP3 DUP2 PUSH1 0x5 SHL DUP8 ADD ADD DUP5 DUP9 ADD PUSH1 0x0 DUP1 JUMPDEST DUP5 DUP2 LT ISZERO PUSH2 0x2E81 JUMPI DUP10 DUP5 SUB PUSH1 0x3F NOT ADD DUP7 MSTORE DUP3 MLOAD DUP1 MLOAD DUP1 DUP7 MSTORE SWAP1 DUP10 ADD SWAP1 DUP10 DUP7 ADD SWAP1 DUP5 JUMPDEST DUP2 DUP2 LT ISZERO PUSH2 0x2E6C JUMPI DUP4 MLOAD DUP1 MLOAD PUSH1 0x1 PUSH1 0x1 PUSH1 0xA0 SHL SUB SWAP1 DUP2 AND DUP6 MSTORE SWAP1 DUP14 ADD MLOAD AND DUP13 DUP5 ADD MSTORE SWAP3 DUP12 ADD SWAP3 SWAP2 DUP11 ADD SWAP2 PUSH1 0x1 ADD PUSH2 0x2E3A JUMP JUMPDEST POP POP SWAP7 DUP10 ADD SWAP7 SWAP5 POP POP SWAP2 DUP8 ADD SWAP2 PUSH1 0x1 ADD PUSH2 0x2E18 JUMP JUMPDEST POP SWAP2 SWAP10 SWAP9 POP POP POP POP POP POP POP POP POP JUMP JUMPDEST PUSH1 0x0 PUSH1 0x20 DUP1 DUP4 DUP6 SUB SLT ISZERO PUSH2 0x2EA3 JUMPI PUSH1 0x0 DUP1 REVERT JUMPDEST DUP3 CALLDATALOAD PUSH1 0x1 PUSH1 0x1 PUSH1 0x40 SHL SUB DUP1 DUP3 GT ISZERO PUSH2 0x2EBA JUMPI PUSH1 0x0 DUP1 REVERT JUMPDEST DUP2 DUP6 ADD SWAP2 POP DUP6 PUSH1 0x1F DUP4 ADD SLT PUSH2 0x2ECE JUMPI PUSH1 0x0 DUP1 REVERT JUMPDEST DUP2 CALLDATALOAD PUSH2 0x2EDC PUSH2 0x2CFA DUP3 PUSH2 0x2C1B JUMP JUMPDEST DUP2 DUP2 MSTORE PUSH1 0x5 SWAP2 SWAP1 SWAP2 SHL DUP4 ADD DUP5 ADD SWAP1 DUP5 DUP2 ADD SWAP1 DUP9 DUP4 GT ISZERO PUSH2 0x2EFB JUMPI PUSH1 0x0 DUP1 REVERT JUMPDEST DUP6 DUP6 ADD JUMPDEST DUP4 DUP2 LT ISZERO PUSH2 0x2F92 JUMPI DUP1 CALLDATALOAD DUP6 DUP2 GT ISZERO PUSH2 0x2F17 JUMPI PUSH1 0x0 DUP1 DUP2 REVERT JUMPDEST DUP7 ADD PUSH1 0x3F DUP2 ADD DUP12 SGT PUSH2 0x2F29 JUMPI PUSH1 0x0 DUP1 DUP2 REVERT JUMPDEST DUP8 DUP2 ADD CALLDATALOAD PUSH1 0x40 PUSH2 0x2F3B PUSH2 0x2CFA DUP4 PUSH2 0x2C1B JUMP JUMPDEST DUP3 DUP2 MSTORE PUSH1 0x6 SWAP3 SWAP1 SWAP3 SHL DUP4 ADD DUP2 ADD SWAP2 DUP11 DUP2 ADD SWAP1 DUP15 DUP5 GT ISZERO PUSH2 0x2F5B JUMPI PUSH1 0x0 DUP1 DUP2 REVERT JUMPDEST SWAP4 DUP3 ADD SWAP4 JUMPDEST DUP4 DUP6 LT ISZERO PUSH2 0x2F81 JUMPI PUSH2 0x2F72 DUP16 DUP7 PUSH2 0x2C3E JUMP JUMPDEST DUP3 MSTORE SWAP4 DUP3 ADD SWAP4 SWAP1 DUP12 ADD SWAP1 PUSH2 0x2F60 JUMP JUMPDEST DUP8 MSTORE POP POP POP SWAP3 DUP8 ADD SWAP3 POP DUP7 ADD PUSH2 0x2EFF JUMP JUMPDEST POP SWAP9 SWAP8 POP POP POP POP POP POP POP POP JUMP JUMPDEST PUSH1 0x0 DUP1 PUSH1 0x0 PUSH1 0x60 DUP5 DUP7 SUB SLT ISZERO PUSH2 0x2FB4 JUMPI PUSH1 0x0 DUP1 REVERT JUMPDEST PUSH2 0x2FBD DUP5 PUSH2 0x2AC0 JUMP JUMPDEST SWAP3 POP PUSH2 0x2FCB PUSH1 0x20 DUP6 ADD PUSH2 0x2AC0 JUMP JUMPDEST SWAP2 POP PUSH1 0x40 DUP5 ADD CALLDATALOAD SWAP1 POP SWAP3 POP SWAP3 POP SWAP3 JUMP JUMPDEST PUSH1 0x0 PUSH1 0x20 DUP3 DUP5 SUB SLT ISZERO PUSH2 0x2FED JUMPI PUSH1 0x0 DUP1 REVERT JUMPDEST PUSH2 0x1386 DUP3 PUSH2 0x2C9B JUMP JUMPDEST PUSH1 0x0 DUP1 PUSH1 0x0 PUSH1 0x60 DUP5 DUP7 SUB SLT ISZERO PUSH2 0x300B JUMPI PUSH1 0x0 DUP1 REVERT JUMPDEST PUSH2 0x3014 DUP5 PUSH2 0x2AC0 JUMP JUMPDEST SWAP3 POP PUSH2 0x3022 PUSH1 0x20 DUP6 ADD PUSH2 0x2AC0 JUMP JUMPDEST SWAP2 POP PUSH2 0x3030 PUSH1 0x40 DUP6 ADD PUSH2 0x2AC0 JUMP JUMPDEST SWAP1 POP SWAP3 POP SWAP3 POP SWAP3 JUMP JUMPDEST PUSH1 0x0 PUSH1 0x20 DUP3 DUP5 SUB SLT ISZERO PUSH2 0x304B JUMPI PUSH1 0x0 DUP1 REVERT JUMPDEST DUP2 CALLDATALOAD PUSH4 0xFFFFFFFF DUP2 AND DUP2 EQ PUSH2 0x1386 JUMPI PUSH1 0x0 DUP1 REVERT JUMPDEST PUSH1 0x0 PUSH1 0x20 DUP3 DUP5 SUB SLT ISZERO PUSH2 0x3071 JUMPI PUSH1 0x0 DUP1 REVERT JUMPDEST DUP2 MLOAD DUP1 ISZERO ISZERO DUP2 EQ PUSH2 0x1386 JUMPI PUSH1 0x0 DUP1 REVERT JUMPDEST PUSH4 0x4E487B71 PUSH1 0xE0 SHL PUSH1 0x0 MSTORE PUSH1 0x21 PUSH1 0x4 MSTORE PUSH1 0x24 PUSH1 0x0 REVERT JUMPDEST PUSH12 0xFFFFFFFFFFFFFFFFFFFFFFFF NOT PUSH1 0x60 SWAP4 DUP5 SHL DUP2 AND DUP3 MSTORE SWAP2 SWAP1 SWAP3 SHL AND PUSH1 0x14 DUP3 ADD MSTORE PUSH1 0x28 ADD SWAP1 JUMP JUMPDEST PUSH4 0x4E487B71 PUSH1 0xE0 SHL PUSH1 0x0 MSTORE PUSH1 0x11 PUSH1 0x4 MSTORE PUSH1 0x24 PUSH1 0x0 REVERT JUMPDEST PUSH1 0x0 DUP3 PUSH2 0x30F1 JUMPI PUSH4 0x4E487B71 PUSH1 0xE0 SHL PUSH1 0x0 MSTORE PUSH1 0x12 PUSH1 0x4 MSTORE PUSH1 0x24 PUSH1 0x0 REVERT JUMPDEST POP DIV SWAP1 JUMP JUMPDEST PUSH1 0x0 DUP2 PUSH1 0x0 NOT DIV DUP4 GT DUP3 ISZERO ISZERO AND ISZERO PUSH2 0x3110 JUMPI PUSH2 0x3110 PUSH2 0x30BE JUMP JUMPDEST POP MUL SWAP1 JUMP JUMPDEST PUSH4 0x4E487B71 PUSH1 0xE0 SHL PUSH1 0x0 MSTORE PUSH1 0x1 PUSH1 0x4 MSTORE PUSH1 0x24 PUSH1 0x0 REVERT JUMPDEST PUSH4 0x4E487B71 PUSH1 0xE0 SHL PUSH1 0x0 MSTORE PUSH1 0x32 PUSH1 0x4 MSTORE PUSH1 0x24 PUSH1 0x0 REVERT JUMPDEST PUSH1 0x0 PUSH1 0x0 NOT DUP3 EQ ISZERO PUSH2 0x3155 JUMPI PUSH2 0x3155 PUSH2 0x30BE JUMP JUMPDEST POP PUSH1 0x1 ADD SWAP1 JUMP JUMPDEST PUSH1 0x0 DUP3 NOT DUP3 GT ISZERO PUSH2 0x316F JUMPI PUSH2 0x316F PUSH2 0x30BE JUMP JUMPDEST POP ADD SWAP1 JUMP JUMPDEST DUP1 MLOAD PUSH10 0xFFFFFFFFFFFFFFFFFFFF DUP2 AND DUP2 EQ PUSH2 0x2AA0 JUMPI PUSH1 0x0 DUP1 REVERT JUMPDEST PUSH1 0x0 DUP1 PUSH1 0x0 DUP1 PUSH1 0x0 PUSH1 0xA0 DUP7 DUP9 SUB SLT ISZERO PUSH2 0x31A6 JUMPI PUSH1 0x0 DUP1 REVERT JUMPDEST PUSH2 0x31AF DUP7 PUSH2 0x3174 JUMP JUMPDEST SWAP5 POP PUSH1 0x20 DUP7 ADD MLOAD SWAP4 POP PUSH1 0x40 DUP7 ADD MLOAD SWAP3 POP PUSH1 0x60 DUP7 ADD MLOAD SWAP2 POP PUSH2 0x31D2 PUSH1 0x80 DUP8 ADD PUSH2 0x3174 JUMP JUMPDEST SWAP1 POP SWAP3 SWAP6 POP SWAP3 SWAP6 SWAP1 SWAP4 POP JUMP JUMPDEST PUSH1 0x0 PUSH1 0x20 DUP3 DUP5 SUB SLT ISZERO PUSH2 0x31F0 JUMPI PUSH1 0x0 DUP1 REVERT JUMPDEST DUP2 MLOAD PUSH1 0xFF DUP2 AND DUP2 EQ PUSH2 0x1386 JUMPI PUSH1 0x0 DUP1 REVERT JUMPDEST PUSH1 0x1 DUP2 DUP2 JUMPDEST DUP1 DUP6 GT ISZERO PUSH2 0x323C JUMPI DUP2 PUSH1 0x0 NOT DIV DUP3 GT ISZERO PUSH2 0x3222 JUMPI PUSH2 0x3222 PUSH2 0x30BE JUMP JUMPDEST DUP1 DUP6 AND ISZERO PUSH2 0x322F JUMPI SWAP2 DUP2 MUL SWAP2 JUMPDEST SWAP4 DUP5 SHR SWAP4 SWAP1 DUP1 MUL SWAP1 PUSH2 0x3206 JUMP JUMPDEST POP SWAP3 POP SWAP3 SWAP1 POP JUMP JUMPDEST PUSH1 0x0 DUP3 PUSH2 0x3253 JUMPI POP PUSH1 0x1 PUSH2 0x72F JUMP JUMPDEST DUP2 PUSH2 0x3260 JUMPI POP PUSH1 0x0 PUSH2 0x72F JUMP JUMPDEST DUP2 PUSH1 0x1 DUP2 EQ PUSH2 0x3276 JUMPI PUSH1 0x2 DUP2 EQ PUSH2 0x3280 JUMPI PUSH2 0x329C JUMP JUMPDEST PUSH1 0x1 SWAP2 POP POP PUSH2 0x72F JUMP JUMPDEST PUSH1 0xFF DUP5 GT ISZERO PUSH2 0x3291 JUMPI PUSH2 0x3291 PUSH2 0x30BE JUMP JUMPDEST POP POP PUSH1 0x1 DUP3 SHL PUSH2 0x72F JUMP JUMPDEST POP PUSH1 0x20 DUP4 LT PUSH2 0x133 DUP4 LT AND PUSH1 0x4E DUP5 LT PUSH1 0xB DUP5 LT AND OR ISZERO PUSH2 0x32BF JUMPI POP DUP2 DUP2 EXP PUSH2 0x72F JUMP JUMPDEST PUSH2 0x32C9 DUP4 DUP4 PUSH2 0x3201 JUMP JUMPDEST DUP1 PUSH1 0x0 NOT DIV DUP3 GT ISZERO PUSH2 0x32DD JUMPI PUSH2 0x32DD PUSH2 0x30BE JUMP JUMPDEST MUL SWAP4 SWAP3 POP POP POP JUMP JUMPDEST PUSH1 0x0 PUSH2 0x1386 PUSH1 0xFF DUP5 AND DUP4 PUSH2 0x3244 JUMP JUMPDEST PUSH1 0x0 DUP3 DUP3 LT ISZERO PUSH2 0x3306 JUMPI PUSH2 0x3306 PUSH2 0x30BE JUMP JUMPDEST POP SUB SWAP1 JUMP INVALID LOG2 PUSH5 0x6970667358 0x22 SLT KECCAK256 0xAD 0x25 0xCF 0xD6 0xB0 ADDRESS DUP9 SWAP15 GASPRICE ISZERO PUSH14 0xDB1737581D2B438065106BB949C0 0xEB 0xED 0xC1 0x4C 0xD7 SELFDESTRUCT 0x2B PUSH5 0x736F6C6343 STOP ADDMOD SIGNEXTEND STOP CALLER ","sha1":"a5180b99b49ca185f6e38dab191ae224dc14cfae","source":"// SPDX-License-Identifier: MIT\n// Beef MarketPlace Contracts v0.0.0 hello@mcdu.com\n\npragma solidity ^0.8.0;\n\nimport \"@chainlink/contracts/src/v0.8/interfaces/AggregatorV3Interface.sol\";\nimport \"../agnostic/Array.sol\";\nimport \"../Repository/Repository.sol\";\nimport \"./QuoteLib.sol\";\nimport \"../agnostic/UIntConverter.sol\";\n\nbytes32 constant QUOTATOR = keccak256(\"Quotator\");\n\ncontract Quotator is RepositoryContract,UIntConverter {\n\n    function id() public view returns (bytes32) {return QUOTATOR;}\n\n    /////////////////////////////////////////////////////////////////////////////////////////\n    //      event\n    /////////////////////////////////////////////////////////////////////////////////////////\n    event Quoted(\n        address indexed left_,\n        address indexed right_,\n        QuoteSource source_,\n        uint256 _quotemin_,\n        uint256 _quoteavg_,\n        uint256 quotemax_\n    );\n    function _quoteChanged(address left_,address right_,uint256 quotemin_,uint256 quoteavg_,uint256 quotemax_) internal virtual\n    {\n        //address(rep).call(abi.encodeWithSelector(bytes4(keccak256(\"_quoteChanged(address,address,uint256,uint256,uint256)\")), left_,right_,quotemin_,quoteavg_,quotemax_));\n    }\n \n\n\n    constructor(Repository rep_) RepositoryContract(rep_) {\n    }\n\n    //function _liquidate() internal virtual override {}\n\n    uint256 constant MAXSTACKCALL = 20;\n    using Array for address[];\n    mapping(bytes32 => QuoteInfo) private _quotes;\n    mapping(address => address[]) private _quotetoquotes;\n\n    mapping(bytes32 => AggregatorV3Interface) private _chainlinks;\n\n    /////////////////////////////////////////////////////////////////////////////////////////\n    //      event for the Quotator Bot\n    /////////////////////////////////////////////////////////////////////////////////////////\n    event Unresolved(address left_, address right_);\n    event Resolved(address left_, address right_);\n\n    /////////////////////////////////////////////////////////////////////////////////////////\n    //      Quote\n    /////////////////////////////////////////////////////////////////////////////////////////\n\n    function __set(QuoteInfo memory quote_) private {\n        bytes32 _key = keccak256(\n            abi.encodePacked(quote_._ref._left, quote_._ref._right)\n        );\n        QuoteInfo memory _quote = _quotes[_key];\n        if (_quote._source != quote_._source) {\n            _clear(quote_._ref._left, quote_._ref._right);\n            _quote._ref._left = quote_._ref._left;\n            _quote._ref._right = quote_._ref._right;\n            _quote._source = quote_._source;\n            _quotetoquotes[quote_._ref._left].insert(quote_._ref._right);\n            _quotetoquotes[quote_._ref._right].insert(quote_._ref._left);\n        }\n        _quote._timestamp = bytes4(bytes32(block.number));\n        if (\n            _quote._quotemin == quote_._quotemin &&\n            _quote._quoteavg == quote_._quoteavg &&\n            _quote._quotemax == quote_._quotemax\n        ) return;\n        _quote._quotemin = quote_._quotemin;\n        _quote._quoteavg = quote_._quoteavg;\n        _quote._quotemax = quote_._quotemax;\n        _quotes[_key] = _quote;\n    }\n\n    function _clear(address left_, address right_)\n        private\n    {\n        bytes32 _key = keccak256(abi.encodePacked(left_, right_));\n        QuoteInfo memory _quote = _quotes[_key];\n        if (_quote._source == QuoteSource.None) return;\n        else if (_quote._source == QuoteSource.ChainLink)\n            __chainlinkClear(left_, right_);\n        //else if (_quote._source==QuoteSource.ComplexStatic||_quote._source==QuoteSource.ComplexDynamic)\n        //    __complexClear(left_,right_);\n        _quotetoquotes[_quote._ref._left].remove(_quote._ref._right);\n        _quotetoquotes[_quote._ref._right].remove(_quote._ref._left);\n\n        delete _quotes[_key];\n    }\n\n    /////////////////////////////////////////////////////////////////////////////////////////\n    //      ChainLink\n    /////////////////////////////////////////////////////////////////////////////////////////\n\n    function chainlinkSet(\n        address left_,\n        address right_,\n        address feedaddress_\n    ) external onlyContractsOrOperators {\n        bytes32 _key = keccak256(abi.encodePacked(left_, right_));\n\n        AggregatorV3Interface _feed = AggregatorV3Interface(feedaddress_);\n        _chainlinks[_key] = _feed;\n\n        QuoteInfo memory _quote;\n        _quote._ref._left = left_;\n        _quote._ref._right = right_;\n        _quote._source = QuoteSource.ChainLink;\n        (\n            uint256 _quotemin,\n            uint256 _quoteavg,\n            uint256 _quotemax\n        ) = __chainlinkReadOnly(_quote);\n        _quote._quotemin = UInt256ToUInt64(_quotemin);\n        _quote._quoteavg = UInt256ToUInt64(_quoteavg);\n        _quote._quotemax = UInt256ToUInt64(_quotemax);\n        __set(_quote);\n    }\n\n    function __chainlinkClear(address left_, address right_) private {\n        bytes32 _key = keccak256(abi.encodePacked(left_, right_));\n        delete _chainlinks[_key];\n    }\n\n    function __chainlinkReadOnly(QuoteInfo memory quote_)\n        private\n        view\n        returns (\n            uint256,\n            uint256,\n            uint256\n        )\n    {\n        bytes32 _key = keccak256(\n            abi.encodePacked(quote_._ref._left, quote_._ref._right)\n        );\n        (, int256 __answer, , , ) = _chainlinks[_key].latestRoundData();\n        require(__answer > 0, \"Chainlink quote must be positive\");\n        uint256 _answer = uint256(__answer);\n        _answer *= (10**18) / 10**_chainlinks[_key].decimals();\n        return (uint256(_answer), uint256(_answer), uint256(_answer));\n    }\n\n    function __chainlinkRead(QuoteInfo memory quote_)\n        private\n        returns (\n            uint256,\n            uint256,\n            uint256\n        )\n    {\n        if (quote_._timestamp != bytes4(bytes32(block.number))) {\n            (\n                uint256 _quotemin,\n                uint256 _quoteavg,\n                uint256 _quotemax\n            ) = __chainlinkReadOnly(quote_);\n            quote_._quotemin = UInt256ToUInt64(_quotemin);\n            quote_._quoteavg = UInt256ToUInt64(_quoteavg);\n            quote_._quotemax = UInt256ToUInt64(_quotemax);\n            __set(quote_);\n        }\n        return (\n            UInt64ToUInt256(quote_._quotemin),\n            UInt64ToUInt256(quote_._quoteavg),\n            UInt64ToUInt256(quote_._quotemax)\n        );\n    }\n\n    /////////////////////////////////////////////////////////////////////////////////////////\n    //      Static\n    /////////////////////////////////////////////////////////////////////////////////////////\n\n    function staticSet(\n        address left_,\n        address right_,\n        uint256 quote_\n    ) external onlyContractsOrOperators {\n        QuoteInfo memory _quote;\n        _quote._ref._left = left_;\n        _quote._ref._right = right_;\n        _quote._source = QuoteSource.Static;\n        _quote._quotemin = _quote._quoteavg = _quote._quotemax = UIntConverter\n            .UInt256ToUInt64(quote_);\n        __set(_quote);\n    }\n\n    function __staticRead(QuoteInfo memory _quote)\n        private\n        view\n        returns (\n            uint256,\n            uint256,\n            uint256\n        )\n    {\n        return (\n            UInt64ToUInt256(_quote._quotemin),\n            UInt64ToUInt256(_quote._quoteavg),\n            UInt64ToUInt256(_quote._quotemax)\n        );\n    }\n\n    /////////////////////////////////////////////////////////////////////////////////////////\n    //      Static\n    /////////////////////////////////////////////////////////////////////////////////////////\n\n    function internalMultiSet(QuoteInfo[] memory quotes_)\n        external\n        onlyContractsOrOperators\n    {\n        for (uint256 i; i < quotes_.length; i++)\n            internalSet(\n                quotes_[i]._ref._left,\n                quotes_[i]._ref._right,\n                quotes_[i]._quotemin,\n                quotes_[i]._quoteavg,\n                quotes_[i]._quotemax\n            );\n    }\n\n    function internalSet(\n        address left_,\n        address right_,\n        uint256 quotemin_,\n        uint256 quoteavg_,\n        uint256 quotemax_\n    ) public onlyContractsOrOperators {\n        QuoteInfo memory _quote;\n        _quote._ref._left = left_;\n        _quote._ref._right = right_;\n        _quote._source = QuoteSource.Internal;\n        _quote._quotemin = UInt256ToUInt64(quotemin_);\n        _quote._quoteavg = UInt256ToUInt64(quoteavg_);\n        _quote._quotemax = UInt256ToUInt64(quotemax_);\n        __set(_quote);\n    }\n\n    function __internalRead(QuoteInfo memory _quote)\n        private\n        view\n        returns (\n            uint256,\n            uint256,\n            uint256\n        )\n    {\n        return (\n            UInt64ToUInt256(_quote._quotemin),\n            UInt64ToUInt256(_quote._quoteavg),\n            UInt64ToUInt256(_quote._quotemax)\n        );\n    }\n\n    /////////////////////////////////////////////////////////////////////////////////////////\n    //      Complex\n    /////////////////////////////////////////////////////////////////////////////////////////\n\n    /*\n    struct QuoteRefList {\n        QuoteRef[] _list;\n    }\n    struct QuoteRefConv {\n        QuoteRefList[] _convs;\n    }\n\n    mapping(address => mapping(address => QuoteRef[][])) private _complexs;\n\n    function complexDynamicMultiSet(QuoteRef[][][] memory convs_) public onlyContractsOrOperators {\n        for (uint i;i<convs_.length;i++)\n            complexDynamicSet(convs_[i]);\n    }\n\n    function complexDynamicSet(QuoteRef[][] memory convs_) public onlyContractsOrOperators {\n\n        if (convs_.length==0) return;\n        if (convs_[0].length==0) return;\n\n\n        QuoteInfo memory _quote;\n        _quote._ref._left = convs_[0][0]._left;\n        _quote._ref._right = convs_[0][convs_[0].length-1]._right;\n        _quote._source = QuoteSource.ComplexDynamic;\n        for (uint i; i<convs_.length;i++)\n        {\n            if (convs_[i].length==0)\n                continue;\n            _complexs[_quote._ref._left][_quote._ref._right].push();\n            for (uint j;j<convs_[i].length;j++)\n            {\n                _complexs[_quote._ref._left][_quote._ref._right][i].push();\n                _complexs[_quote._ref._left][_quote._ref._right][i][j] = convs_[i][j];\n            }\n        }\n        (_quote._quotemin,_quote._quoteavg,_quote._quotemax) = __complexReadOnly(_quote);\n        __set(_quote);\n    }\n    function complexStaticMultiSet(QuoteRef[][][] memory convs_) public onlyContractsOrOperators {\n        for (uint i;i<convs_.length;i++)\n            complexStaticSet(convs_[i]);\n    }\n    function complexStaticSet(QuoteRef[][] memory convs_) public onlyContractsOrOperators {\n\n        if (convs_.length==0) return;\n        if (convs_[0].length==0) return;\n\n        QuoteInfo memory _quote;\n        _quote._ref._left = convs_[0][0]._left;\n        _quote._ref._right = convs_[0][convs_[0].length-1]._right;\n        _quote._source = QuoteSource.ComplexStatic;\n        for (uint i; i<convs_.length;i++)\n        {\n            _complexs[_quote._ref._left][_quote._ref._right].push();\n            for (uint j;j<convs_[i].length;j++)\n            {\n                _complexs[_quote._ref._left][_quote._ref._right][i].push();\n                _complexs[_quote._ref._left][_quote._ref._right][i][j] = convs_[i][j];\n            }\n        }\n        (_quote._quotemin,_quote._quoteavg,_quote._quotemax) = __complexReadOnly(_quote);\n        __set(_quote);\n    }\n    function complexGet(address left_, address right_) public view returns (QuoteRef[][] memory)\n    {\n        return _complexs[left_][right_];\n    }\n    function __complexClear(address left_, address right_) private\n    {\n        delete _complexs[left_][right_];\n    }*/\n    /*function __complexReadOnly(QuoteInfo memory quote_)\n        private view \n        returns (uint256,uint256,uint256)\n    {\n        return ___complexReadOnly(_complexs[quote_._ref._left][quote_._ref._right]);\n    }*/\n    function complexReadOnly(QuoteRef[][] memory _convs)\n        external\n        view\n        returns (\n            uint256,\n            uint256,\n            uint256\n        )\n    {\n        uint256 _quotemin = 0;\n        uint256 _quoteavg = 0;\n        uint256 _quoteavgcount = 0;\n        uint256 _quotemax = 0;\n        for (uint256 i; i < _convs.length; i++) {\n            uint256 __quotemin = 10**18;\n            uint256 __quoteavg = 10**18;\n            uint256 __quotemax = 10**18;\n            for (uint256 j = 0; j < _convs[i].length; j++) {\n                QuoteRef memory _ref = _convs[i][j];\n                (\n                    uint256 ___quotemin,\n                    uint256 ___quoteavg,\n                    uint256 ___quotemax\n                ) = readOnly(_ref._left, _ref._right);\n                if (___quoteavg == 0) return (0, 0, 0);\n                __quotemin = (___quotemin * __quotemin) / 10**18;\n                __quoteavg = (___quoteavg * __quoteavg) / 10**18;\n                __quotemax = (___quotemax * __quotemax) / 10**18;\n            }\n            if (_quotemin == 0 || _quotemin > __quotemin)\n                _quotemin = __quotemin;\n            if (_quotemax == 0 || _quotemax < __quotemax)\n                _quotemax = __quotemax;\n            if (_quoteavgcount == 0) _quoteavg = __quoteavg;\n            else _quoteavg += __quoteavg;\n            _quoteavgcount++;\n        }\n\n        _quoteavg /= _quoteavgcount;\n        return (_quotemin, _quoteavg, _quotemax);\n    }\n\n    function __complexSearch(\n        address current_,\n        address dest_,\n        uint256 callstack_,\n        QuoteRef[] memory pathused_\n    )\n        private\n        view\n        returns (\n            QuoteRef[][] memory complex_ // TODO , uint maxquote, uint minquote)\n        )\n    {\n        address[] memory __quotes = _quotetoquotes[current_];\n        complex_ = new QuoteRef[][](0);\n        for (uint256 i = 0; i < __quotes.length; i++) {\n            uint256 j;\n            // we check if the conv isnt already used in path / left to right but also right to left\n            for (j = 0; j < pathused_.length; j++)\n                if (\n                    (pathused_[j]._left == current_ &&\n                        pathused_[j]._right == __quotes[i]) ||\n                    (pathused_[j]._right == current_ &&\n                        pathused_[j]._left == __quotes[i])\n                ) break;\n            // we jump to next if used\n            if (j < pathused_.length) continue;\n\n            // did we found the resolution\n            if (__quotes[i] == dest_) {\n                QuoteInfo storage _quote = _quotes[\n                    keccak256(abi.encodePacked(current_, dest_))\n                ];\n                if (\n                    (_quote._source != QuoteSource.ComplexStatic) &&\n                    (_quote._source != QuoteSource.ComplexDynamic)\n                ) {\n                    QuoteRef[] memory newresolution_ = new QuoteRef[](\n                        pathused_.length + 1\n                    );\n                    // returns the path + this node\n                    for (j = 0; j < pathused_.length; j++)\n                        newresolution_[j] = pathused_[j];\n                    newresolution_[j]._left = current_;\n                    newresolution_[j]._right = dest_;\n\n                    QuoteRef[][] memory newcomplex_ = new QuoteRef[][](\n                        complex_.length + 1\n                    );\n                    for (j = 0; j < complex_.length; j++)\n                        newcomplex_[j] = complex_[j];\n                    newcomplex_[complex_.length] = newresolution_;\n\n                    complex_ = newcomplex_;\n                }\n            }\n            if (callstack_ == 0)\n                // we stop because if we did the max recursive, we break to check the opposite conversion if possible\n                break;\n            // we call recursive add our node to path\n            QuoteRef[] memory _newpathused = new QuoteRef[](\n                pathused_.length + 1\n            );\n            for (j = 0; j < pathused_.length; j++)\n                _newpathused[j] = pathused_[j];\n            _newpathused[j]._left = current_;\n            _newpathused[j]._right = __quotes[i];\n            QuoteRef[][] memory childcomplex_ = __complexSearch(\n                __quotes[i],\n                dest_,\n                callstack_ - 1,\n                _newpathused\n            );\n            if (childcomplex_.length > 0) {\n                QuoteRef[][] memory newcomplex_ = new QuoteRef[][](\n                    childcomplex_.length + complex_.length\n                );\n                for (j = 0; j < complex_.length; j++)\n                    newcomplex_[j] = complex_[j];\n                for (j = 0; j < childcomplex_.length; j++)\n                    newcomplex_[complex_.length + j] = childcomplex_[j];\n\n                complex_ = newcomplex_;\n            }\n        }\n\n        return complex_;\n    }\n\n    function complexSearch(address left_, address right_)\n        public\n        view\n        returns (QuoteRef[][] memory complex_)\n    {\n        return __complexSearch(left_, right_, MAXSTACKCALL, new QuoteRef[](0));\n    }\n\n    /*\n    function __complexRead(QuoteInfo memory quote_)\n        private\n        returns (uint256,uint256,uint256)\n    {\n        if (quote_._timestamp==block.number)\n            return (quote_._quotemin,quote_._quoteavg,quote_._quotemax);\n        (uint256 _quotemin,uint256 _quoteavg,uint256 _quotemax) = __complexReadOnly(quote_);\n        if (_quoteavg==0)\n        {\n            require(quote_._source == QuoteSource.ComplexDynamic,\"Quote Complex Static unresolved\");\n            //_quoteval = __complexSearchAndRead(quote_,_complexs[quote_._left][quote_._right]);\n        }\n        if (_quoteavg==0)\n        {\n            if (quote_._source == QuoteSource.ComplexDynamic)\n                clear(quote_._ref._left,quote_._ref._right);\n            return (0,0,0);\n        }\n        quote_._quotemin = _quotemin;\n        quote_._quoteavg = _quoteavg;\n        quote_._quotemax = _quotemax;\n        __set(quote_);\n        return (_quotemin,_quoteavg,_quotemax);\n    }*/\n\n    /////////////////////////////////////////////////////////////////////////////////////////\n    //      Quote\n    /////////////////////////////////////////////////////////////////////////////////////////\n    function readOnly(bytes32 left_, bytes32 right_)\n        public\n        view\n        returns (\n            uint256,\n            uint256,\n            uint256\n        )\n    {\n    }\n\n    function readOnly(address left_, address right_)\n        public\n        view\n        returns (\n            uint256,\n            uint256,\n            uint256\n        )\n    {\n        bytes32 _key = keccak256(abi.encodePacked(left_, right_));\n        uint256 _quotemin = 0;\n        uint256 _quoteavg = 0;\n        uint256 _quotemax = 0;\n        QuoteInfo memory _quote = _quotes[_key];\n        if (_quote._source == QuoteSource.ChainLink)\n            (_quotemin, _quoteavg, _quotemax) = __chainlinkReadOnly(_quote);\n        else if (_quote._source == QuoteSource.Static)\n            (_quotemin, _quoteavg, _quotemax) = __staticRead(_quote);\n        else if (_quote._source == QuoteSource.Internal)\n            (_quotemin, _quoteavg, _quotemax) = __internalRead(_quote);\n        //else if (_quote._source == QuoteSource.ComplexStatic ||_quote._source == QuoteSource.ComplexDynamic)\n        //    return __complexReadOnly(_quote);\n        if (_quoteavg != 0) {\n            return (_quotemin, _quoteavg, _quotemax);\n        }\n\n        _key = keccak256(abi.encodePacked(right_, left_));\n        _quote = _quotes[_key];\n        _quotemin = 0;\n        _quoteavg = 0;\n        _quotemax = 0;\n        if (_quote._source == QuoteSource.ChainLink)\n            (_quotemin, _quoteavg, _quotemax) = __chainlinkReadOnly(_quote);\n        else if (_quote._source == QuoteSource.Static)\n            (_quotemin, _quoteavg, _quotemax) = __staticRead(_quote);\n        else if (_quote._source == QuoteSource.Internal)\n            (_quotemin, _quoteavg, _quotemax) = __internalRead(_quote);\n        //else if (_quote._source == QuoteSource.ComplexStatic ||_quote._source == QuoteSource.ComplexDynamic)\n        //    (_quotemin,_quoteavg,_quotemax) = __complexReadOnly(_quote);\n        if (_quoteavg == 0) return (0, 0, 0);\n        _quotemin = 10**36 / _quotemin;\n        _quoteavg = 10**36 / _quoteavg;\n        _quotemax = 10**36 / _quotemax;\n        return (_quotemin, _quoteavg, _quotemax);\n    }\n\n    function read(bytes32 left_, bytes32 right_)\n        public\n        returns (\n            uint256,\n            uint256,\n            uint256\n        )\n    {\n\n    }\n    function read(address left_, address right_)\n        public\n        returns (\n            uint256,\n            uint256,\n            uint256\n        )\n    {\n        bytes32 _key = keccak256(abi.encodePacked(left_, right_));\n        QuoteInfo storage _quote = _quotes[_key];\n        if (_quote._timestamp == bytes4(bytes32(block.number))) {\n            emit Resolved(left_, right_);\n            return (\n                UInt64ToUInt256(_quote._quotemin),\n                UInt64ToUInt256(_quote._quoteavg),\n                UInt64ToUInt256(_quote._quotemax)\n            );\n        }\n        uint256 _quotemin = 0;\n        uint256 _quoteavg = 0;\n        uint256 _quotemax = 0;\n        if (_quote._source == QuoteSource.ChainLink)\n            (_quotemin, _quoteavg, _quotemax) = __chainlinkRead(_quote);\n        else if (_quote._source == QuoteSource.Static)\n            (_quotemin, _quoteavg, _quotemax) = __staticRead(_quote);\n        else if (_quote._source == QuoteSource.Internal)\n            (_quotemin, _quoteavg, _quotemax) = __internalRead(_quote);\n        //else if (_quote._source == QuoteSource.ComplexStatic ||_quote._source == QuoteSource.ComplexDynamic)\n        //    (_quotemin,_quoteavg,_quotemax) =  __complexRead(_quote);\n        if (_quoteavg != 0) {\n            emit Resolved(left_, right_);\n            return (_quotemin, _quoteavg, _quotemax);\n        }\n        _key = keccak256(abi.encodePacked(right_, left_));\n        _quote = _quotes[_key];\n        _quotemin = 0;\n        _quoteavg = 0;\n        _quotemax = 0;\n        if (_quote._source == QuoteSource.ChainLink)\n            (_quotemin, _quoteavg, _quotemax) = __chainlinkRead(_quote);\n        else if (_quote._source == QuoteSource.Static)\n            (_quotemin, _quoteavg, _quotemax) = __staticRead(_quote);\n        else if (_quote._source == QuoteSource.Internal)\n            (_quotemin, _quoteavg, _quotemax) = __internalRead(_quote);\n        //else if (_quote._source == QuoteSource.ComplexStatic ||_quote._source == QuoteSource.ComplexDynamic)\n        //    (_quotemin,_quoteavg,_quotemax) = __complexRead(_quote);\n        if (_quoteavg == 0) {\n            emit Unresolved(left_, right_);\n            return (0, 0, 0);\n        }\n        _quotemin = 10**36 / _quotemin;\n        _quoteavg = 10**36 / _quoteavg;\n        _quotemax = 10**36 / _quotemax;\n        emit Resolved(left_, right_);\n        return (_quotemin, _quoteavg, _quotemax);\n    }\n\n    function convert(uint256 val_, uint256 quote_)\n        public\n        pure\n        returns (uint256)\n    {\n        return (val_ * quote_) / 10**18;\n    }\n}\n","sourcePath":"contracts/Quote/Quotator.sol","deployment":{"address":"0x16744d3f0Aaf475d4BAd646e41610180ed614C96","chainid":"9997","blockHeight":25152}}