{"abi":[{"inputs":[{"components":[{"internalType":"uint256","name":"qty","type":"uint256"},{"components":[{"internalType":"uint256","name":"quotemin","type":"uint256"},{"internalType":"uint256","name":"quoteavg","type":"uint256"},{"internalType":"uint256","name":"quotemax","type":"uint256"}],"internalType":"struct Quote","name":"quote","type":"tuple"},{"components":[{"internalType":"bytes32[]","name":"path","type":"bytes32[]"},{"internalType":"uint256","name":"qty","type":"uint256"},{"components":[{"internalType":"uint256","name":"quotemin","type":"uint256"},{"internalType":"uint256","name":"quoteavg","type":"uint256"},{"internalType":"uint256","name":"quotemax","type":"uint256"}],"internalType":"struct Quote","name":"quote","type":"tuple"},{"internalType":"uint256","name":"start","type":"uint256"},{"internalType":"uint256","name":"count","type":"uint256"},{"internalType":"uint256[]","name":"offset","type":"uint256[]"}],"internalType":"struct SolutionSetDesc[]","name":"descs","type":"tuple[]"},{"components":[{"internalType":"uint256","name":"orderid","type":"uint256"},{"internalType":"bytes32","name":"addr","type":"bytes32"},{"internalType":"uint256","name":"qty","type":"uint256"},{"internalType":"uint256","name":"granularity","type":"uint256"},{"internalType":"uint256","name":"quote","type":"uint256"},{"internalType":"uint256[]","name":"delivery","type":"uint256[]"}],"internalType":"struct Solution[]","name":"solutions","type":"tuple[]"}],"internalType":"struct SolutionSet","name":"set_","type":"tuple"},{"components":[{"internalType":"bytes32[]","name":"path","type":"bytes32[]"},{"internalType":"uint256","name":"qty","type":"uint256"},{"components":[{"internalType":"uint256","name":"quotemin","type":"uint256"},{"internalType":"uint256","name":"quoteavg","type":"uint256"},{"internalType":"uint256","name":"quotemax","type":"uint256"}],"internalType":"struct Quote","name":"quote","type":"tuple"},{"internalType":"uint256","name":"start","type":"uint256"},{"internalType":"uint256","name":"count","type":"uint256"},{"internalType":"uint256[]","name":"offset","type":"uint256[]"}],"internalType":"struct SolutionSetDesc","name":"desc_","type":"tuple"},{"components":[{"internalType":"uint256","name":"orderid","type":"uint256"},{"internalType":"bytes32","name":"addr","type":"bytes32"},{"internalType":"uint256","name":"qty","type":"uint256"},{"internalType":"uint256","name":"granularity","type":"uint256"},{"internalType":"uint256","name":"quote","type":"uint256"},{"internalType":"uint256[]","name":"delivery","type":"uint256[]"}],"internalType":"struct Solution[]","name":"solutions_","type":"tuple[]"}],"name":"add","outputs":[{"components":[{"internalType":"uint256","name":"qty","type":"uint256"},{"components":[{"internalType":"uint256","name":"quotemin","type":"uint256"},{"internalType":"uint256","name":"quoteavg","type":"uint256"},{"internalType":"uint256","name":"quotemax","type":"uint256"}],"internalType":"struct Quote","name":"quote","type":"tuple"},{"components":[{"internalType":"bytes32[]","name":"path","type":"bytes32[]"},{"internalType":"uint256","name":"qty","type":"uint256"},{"components":[{"internalType":"uint256","name":"quotemin","type":"uint256"},{"internalType":"uint256","name":"quoteavg","type":"uint256"},{"internalType":"uint256","name":"quotemax","type":"uint256"}],"internalType":"struct Quote","name":"quote","type":"tuple"},{"internalType":"uint256","name":"start","type":"uint256"},{"internalType":"uint256","name":"count","type":"uint256"},{"internalType":"uint256[]","name":"offset","type":"uint256[]"}],"internalType":"struct SolutionSetDesc[]","name":"descs","type":"tuple[]"},{"components":[{"internalType":"uint256","name":"orderid","type":"uint256"},{"internalType":"bytes32","name":"addr","type":"bytes32"},{"internalType":"uint256","name":"qty","type":"uint256"},{"internalType":"uint256","name":"granularity","type":"uint256"},{"internalType":"uint256","name":"quote","type":"uint256"},{"internalType":"uint256[]","name":"delivery","type":"uint256[]"}],"internalType":"struct Solution[]","name":"solutions","type":"tuple[]"}],"internalType":"struct SolutionSet","name":"out_","type":"tuple"}],"stateMutability":"pure","type":"function"},{"inputs":[{"components":[{"internalType":"uint256","name":"qty","type":"uint256"},{"components":[{"internalType":"uint256","name":"quotemin","type":"uint256"},{"internalType":"uint256","name":"quoteavg","type":"uint256"},{"internalType":"uint256","name":"quotemax","type":"uint256"}],"internalType":"struct Quote","name":"quote","type":"tuple"},{"components":[{"internalType":"bytes32[]","name":"path","type":"bytes32[]"},{"internalType":"uint256","name":"qty","type":"uint256"},{"components":[{"internalType":"uint256","name":"quotemin","type":"uint256"},{"internalType":"uint256","name":"quoteavg","type":"uint256"},{"internalType":"uint256","name":"quotemax","type":"uint256"}],"internalType":"struct Quote","name":"quote","type":"tuple"},{"internalType":"uint256","name":"start","type":"uint256"},{"internalType":"uint256","name":"count","type":"uint256"},{"internalType":"uint256[]","name":"offset","type":"uint256[]"}],"internalType":"struct SolutionSetDesc[]","name":"descs","type":"tuple[]"},{"components":[{"internalType":"uint256","name":"orderid","type":"uint256"},{"internalType":"bytes32","name":"addr","type":"bytes32"},{"internalType":"uint256","name":"qty","type":"uint256"},{"internalType":"uint256","name":"granularity","type":"uint256"},{"internalType":"uint256","name":"quote","type":"uint256"},{"internalType":"uint256[]","name":"delivery","type":"uint256[]"}],"internalType":"struct Solution[]","name":"solutions","type":"tuple[]"}],"internalType":"struct SolutionSet","name":"set_","type":"tuple"},{"components":[{"internalType":"uint256","name":"qty","type":"uint256"},{"components":[{"internalType":"uint256","name":"quotemin","type":"uint256"},{"internalType":"uint256","name":"quoteavg","type":"uint256"},{"internalType":"uint256","name":"quotemax","type":"uint256"}],"internalType":"struct Quote","name":"quote","type":"tuple"},{"components":[{"internalType":"bytes32[]","name":"path","type":"bytes32[]"},{"internalType":"uint256","name":"qty","type":"uint256"},{"components":[{"internalType":"uint256","name":"quotemin","type":"uint256"},{"internalType":"uint256","name":"quoteavg","type":"uint256"},{"internalType":"uint256","name":"quotemax","type":"uint256"}],"internalType":"struct Quote","name":"quote","type":"tuple"},{"internalType":"uint256","name":"start","type":"uint256"},{"internalType":"uint256","name":"count","type":"uint256"},{"internalType":"uint256[]","name":"offset","type":"uint256[]"}],"internalType":"struct SolutionSetDesc[]","name":"descs","type":"tuple[]"},{"components":[{"internalType":"uint256","name":"orderid","type":"uint256"},{"internalType":"bytes32","name":"addr","type":"bytes32"},{"internalType":"uint256","name":"qty","type":"uint256"},{"internalType":"uint256","name":"granularity","type":"uint256"},{"internalType":"uint256","name":"quote","type":"uint256"},{"internalType":"uint256[]","name":"delivery","type":"uint256[]"}],"internalType":"struct Solution[]","name":"solutions","type":"tuple[]"}],"internalType":"struct SolutionSet","name":"from_","type":"tuple"}],"name":"add","outputs":[{"components":[{"internalType":"uint256","name":"qty","type":"uint256"},{"components":[{"internalType":"uint256","name":"quotemin","type":"uint256"},{"internalType":"uint256","name":"quoteavg","type":"uint256"},{"internalType":"uint256","name":"quotemax","type":"uint256"}],"internalType":"struct Quote","name":"quote","type":"tuple"},{"components":[{"internalType":"bytes32[]","name":"path","type":"bytes32[]"},{"internalType":"uint256","name":"qty","type":"uint256"},{"components":[{"internalType":"uint256","name":"quotemin","type":"uint256"},{"internalType":"uint256","name":"quoteavg","type":"uint256"},{"internalType":"uint256","name":"quotemax","type":"uint256"}],"internalType":"struct Quote","name":"quote","type":"tuple"},{"internalType":"uint256","name":"start","type":"uint256"},{"internalType":"uint256","name":"count","type":"uint256"},{"internalType":"uint256[]","name":"offset","type":"uint256[]"}],"internalType":"struct SolutionSetDesc[]","name":"descs","type":"tuple[]"},{"components":[{"internalType":"uint256","name":"orderid","type":"uint256"},{"internalType":"bytes32","name":"addr","type":"bytes32"},{"internalType":"uint256","name":"qty","type":"uint256"},{"internalType":"uint256","name":"granularity","type":"uint256"},{"internalType":"uint256","name":"quote","type":"uint256"},{"internalType":"uint256[]","name":"delivery","type":"uint256[]"}],"internalType":"struct Solution[]","name":"solutions","type":"tuple[]"}],"internalType":"struct SolutionSet","name":"out_","type":"tuple"}],"stateMutability":"pure","type":"function"},{"inputs":[{"components":[{"internalType":"uint256","name":"orderid","type":"uint256"},{"internalType":"bytes32","name":"addr","type":"bytes32"},{"internalType":"uint256","name":"qty","type":"uint256"},{"internalType":"uint256","name":"granularity","type":"uint256"},{"internalType":"uint256","name":"quote","type":"uint256"},{"internalType":"uint256[]","name":"delivery","type":"uint256[]"}],"internalType":"struct Solution[]","name":"sols_","type":"tuple[]"},{"components":[{"internalType":"uint256","name":"orderid","type":"uint256"},{"internalType":"bytes32","name":"addr","type":"bytes32"},{"internalType":"uint256","name":"qty","type":"uint256"},{"internalType":"uint256","name":"granularity","type":"uint256"},{"internalType":"uint256","name":"quote","type":"uint256"},{"internalType":"uint256[]","name":"delivery","type":"uint256[]"}],"internalType":"struct Solution[]","name":"sol_","type":"tuple[]"}],"name":"add","outputs":[{"components":[{"internalType":"uint256","name":"orderid","type":"uint256"},{"internalType":"bytes32","name":"addr","type":"bytes32"},{"internalType":"uint256","name":"qty","type":"uint256"},{"internalType":"uint256","name":"granularity","type":"uint256"},{"internalType":"uint256","name":"quote","type":"uint256"},{"internalType":"uint256[]","name":"delivery","type":"uint256[]"}],"internalType":"struct Solution[]","name":"out_","type":"tuple[]"}],"stateMutability":"pure","type":"function"},{"inputs":[{"components":[{"internalType":"bytes32","name":"currency","type":"bytes32"},{"internalType":"uint256","name":"qty","type":"uint256"}],"internalType":"struct Remainer[]","name":"remainer_","type":"tuple[]"},{"internalType":"bytes32","name":"currency_","type":"bytes32"},{"internalType":"uint256","name":"qty_","type":"uint256"}],"name":"add","outputs":[{"components":[{"internalType":"bytes32","name":"currency","type":"bytes32"},{"internalType":"uint256","name":"qty","type":"uint256"}],"internalType":"struct Remainer[]","name":"out_","type":"tuple[]"}],"stateMutability":"pure","type":"function"},{"inputs":[{"components":[{"internalType":"uint256","name":"orderid","type":"uint256"},{"internalType":"bytes32","name":"addr","type":"bytes32"},{"internalType":"uint256","name":"qty","type":"uint256"},{"internalType":"uint256","name":"granularity","type":"uint256"},{"internalType":"uint256","name":"quote","type":"uint256"},{"internalType":"uint256[]","name":"delivery","type":"uint256[]"}],"internalType":"struct Solution[]","name":"sols_","type":"tuple[]"},{"components":[{"internalType":"uint256","name":"orderid","type":"uint256"},{"internalType":"bytes32","name":"addr","type":"bytes32"},{"internalType":"uint256","name":"qty","type":"uint256"},{"internalType":"uint256","name":"granularity","type":"uint256"},{"internalType":"uint256","name":"quote","type":"uint256"},{"internalType":"uint256[]","name":"delivery","type":"uint256[]"}],"internalType":"struct Solution","name":"sol_","type":"tuple"}],"name":"add","outputs":[{"components":[{"internalType":"uint256","name":"orderid","type":"uint256"},{"internalType":"bytes32","name":"addr","type":"bytes32"},{"internalType":"uint256","name":"qty","type":"uint256"},{"internalType":"uint256","name":"granularity","type":"uint256"},{"internalType":"uint256","name":"quote","type":"uint256"},{"internalType":"uint256[]","name":"delivery","type":"uint256[]"}],"internalType":"struct Solution[]","name":"out_","type":"tuple[]"}],"stateMutability":"pure","type":"function"},{"inputs":[{"components":[{"internalType":"uint256","name":"orderid","type":"uint256"},{"internalType":"bytes32","name":"addr","type":"bytes32"},{"internalType":"uint256","name":"qty","type":"uint256"},{"internalType":"uint256","name":"granularity","type":"uint256"},{"internalType":"uint256","name":"quote","type":"uint256"},{"internalType":"uint256[]","name":"delivery","type":"uint256[]"}],"internalType":"struct Solution[]","name":"sol1_","type":"tuple[]"},{"components":[{"internalType":"uint256","name":"orderid","type":"uint256"},{"internalType":"bytes32","name":"addr","type":"bytes32"},{"internalType":"uint256","name":"qty","type":"uint256"},{"internalType":"uint256","name":"granularity","type":"uint256"},{"internalType":"uint256","name":"quote","type":"uint256"},{"internalType":"uint256[]","name":"delivery","type":"uint256[]"}],"internalType":"struct Solution[]","name":"sol2_","type":"tuple[]"}],"name":"combine","outputs":[{"components":[{"internalType":"uint256","name":"orderid","type":"uint256"},{"internalType":"bytes32","name":"addr","type":"bytes32"},{"internalType":"uint256","name":"qty","type":"uint256"},{"internalType":"uint256","name":"granularity","type":"uint256"},{"internalType":"uint256","name":"quote","type":"uint256"},{"internalType":"uint256[]","name":"delivery","type":"uint256[]"}],"internalType":"struct Solution[]","name":"out_","type":"tuple[]"}],"stateMutability":"pure","type":"function"},{"inputs":[{"components":[{"internalType":"bytes32[]","name":"path","type":"bytes32[]"},{"internalType":"uint256","name":"qty","type":"uint256"},{"components":[{"internalType":"uint256","name":"quotemin","type":"uint256"},{"internalType":"uint256","name":"quoteavg","type":"uint256"},{"internalType":"uint256","name":"quotemax","type":"uint256"}],"internalType":"struct Quote","name":"quote","type":"tuple"},{"internalType":"uint256","name":"start","type":"uint256"},{"internalType":"uint256","name":"count","type":"uint256"},{"internalType":"uint256[]","name":"offset","type":"uint256[]"}],"internalType":"struct SolutionSetDesc","name":"desc_","type":"tuple"},{"components":[{"internalType":"uint256","name":"orderid","type":"uint256"},{"internalType":"bytes32","name":"addr","type":"bytes32"},{"internalType":"uint256","name":"qty","type":"uint256"},{"internalType":"uint256","name":"granularity","type":"uint256"},{"internalType":"uint256","name":"quote","type":"uint256"},{"internalType":"uint256[]","name":"delivery","type":"uint256[]"}],"internalType":"struct Solution[]","name":"solutions_","type":"tuple[]"}],"name":"create","outputs":[{"components":[{"internalType":"uint256","name":"qty","type":"uint256"},{"components":[{"internalType":"uint256","name":"quotemin","type":"uint256"},{"internalType":"uint256","name":"quoteavg","type":"uint256"},{"internalType":"uint256","name":"quotemax","type":"uint256"}],"internalType":"struct Quote","name":"quote","type":"tuple"},{"components":[{"internalType":"bytes32[]","name":"path","type":"bytes32[]"},{"internalType":"uint256","name":"qty","type":"uint256"},{"components":[{"internalType":"uint256","name":"quotemin","type":"uint256"},{"internalType":"uint256","name":"quoteavg","type":"uint256"},{"internalType":"uint256","name":"quotemax","type":"uint256"}],"internalType":"struct Quote","name":"quote","type":"tuple"},{"internalType":"uint256","name":"start","type":"uint256"},{"internalType":"uint256","name":"count","type":"uint256"},{"internalType":"uint256[]","name":"offset","type":"uint256[]"}],"internalType":"struct SolutionSetDesc[]","name":"descs","type":"tuple[]"},{"components":[{"internalType":"uint256","name":"orderid","type":"uint256"},{"internalType":"bytes32","name":"addr","type":"bytes32"},{"internalType":"uint256","name":"qty","type":"uint256"},{"internalType":"uint256","name":"granularity","type":"uint256"},{"internalType":"uint256","name":"quote","type":"uint256"},{"internalType":"uint256[]","name":"delivery","type":"uint256[]"}],"internalType":"struct Solution[]","name":"solutions","type":"tuple[]"}],"internalType":"struct SolutionSet","name":"out_","type":"tuple"}],"stateMutability":"pure","type":"function"},{"inputs":[{"components":[{"internalType":"bytes32[]","name":"path","type":"bytes32[]"},{"internalType":"uint256","name":"qty","type":"uint256"},{"components":[{"internalType":"uint256","name":"quotemin","type":"uint256"},{"internalType":"uint256","name":"quoteavg","type":"uint256"},{"internalType":"uint256","name":"quotemax","type":"uint256"}],"internalType":"struct Quote","name":"quote","type":"tuple"},{"internalType":"uint256","name":"start","type":"uint256"},{"internalType":"uint256","name":"count","type":"uint256"},{"internalType":"uint256[]","name":"offset","type":"uint256[]"}],"internalType":"struct SolutionSetDesc","name":"in_","type":"tuple"},{"components":[{"internalType":"uint256","name":"orderid","type":"uint256"},{"internalType":"bytes32","name":"addr","type":"bytes32"},{"internalType":"uint256","name":"qty","type":"uint256"},{"internalType":"uint256","name":"granularity","type":"uint256"},{"internalType":"uint256","name":"quote","type":"uint256"},{"internalType":"uint256[]","name":"delivery","type":"uint256[]"}],"internalType":"struct Solution[]","name":"solin_","type":"tuple[]"},{"internalType":"bytes32","name":"currency_","type":"bytes32"},{"components":[{"internalType":"uint256","name":"orderid","type":"uint256"},{"internalType":"bytes32","name":"addr","type":"bytes32"},{"internalType":"uint256","name":"qty","type":"uint256"},{"internalType":"uint256","name":"granularity","type":"uint256"},{"internalType":"uint256","name":"quote","type":"uint256"},{"internalType":"uint256[]","name":"delivery","type":"uint256[]"}],"internalType":"struct Solution[]","name":"sol_","type":"tuple[]"}],"name":"descAddOffset","outputs":[{"components":[{"internalType":"bytes32[]","name":"path","type":"bytes32[]"},{"internalType":"uint256","name":"qty","type":"uint256"},{"components":[{"internalType":"uint256","name":"quotemin","type":"uint256"},{"internalType":"uint256","name":"quoteavg","type":"uint256"},{"internalType":"uint256","name":"quotemax","type":"uint256"}],"internalType":"struct Quote","name":"quote","type":"tuple"},{"internalType":"uint256","name":"start","type":"uint256"},{"internalType":"uint256","name":"count","type":"uint256"},{"internalType":"uint256[]","name":"offset","type":"uint256[]"}],"internalType":"struct SolutionSetDesc","name":"out_","type":"tuple"},{"components":[{"internalType":"uint256","name":"orderid","type":"uint256"},{"internalType":"bytes32","name":"addr","type":"bytes32"},{"internalType":"uint256","name":"qty","type":"uint256"},{"internalType":"uint256","name":"granularity","type":"uint256"},{"internalType":"uint256","name":"quote","type":"uint256"},{"internalType":"uint256[]","name":"delivery","type":"uint256[]"}],"internalType":"struct Solution[]","name":"solout_","type":"tuple[]"}],"stateMutability":"pure","type":"function"},{"inputs":[{"components":[{"internalType":"bytes32[]","name":"path","type":"bytes32[]"},{"internalType":"uint256","name":"qty","type":"uint256"},{"components":[{"internalType":"uint256","name":"quotemin","type":"uint256"},{"internalType":"uint256","name":"quoteavg","type":"uint256"},{"internalType":"uint256","name":"quotemax","type":"uint256"}],"internalType":"struct Quote","name":"quote","type":"tuple"},{"internalType":"uint256","name":"start","type":"uint256"},{"internalType":"uint256","name":"count","type":"uint256"},{"internalType":"uint256[]","name":"offset","type":"uint256[]"}],"internalType":"struct SolutionSetDesc","name":"desc_","type":"tuple"},{"internalType":"bytes32","name":"from_","type":"bytes32"},{"internalType":"bytes32","name":"to_","type":"bytes32"}],"name":"descCreateFromTo","outputs":[{"components":[{"internalType":"bytes32[]","name":"path","type":"bytes32[]"},{"internalType":"uint256","name":"qty","type":"uint256"},{"components":[{"internalType":"uint256","name":"quotemin","type":"uint256"},{"internalType":"uint256","name":"quoteavg","type":"uint256"},{"internalType":"uint256","name":"quotemax","type":"uint256"}],"internalType":"struct Quote","name":"quote","type":"tuple"},{"internalType":"uint256","name":"start","type":"uint256"},{"internalType":"uint256","name":"count","type":"uint256"},{"internalType":"uint256[]","name":"offset","type":"uint256[]"}],"internalType":"struct SolutionSetDesc","name":"out_","type":"tuple"}],"stateMutability":"pure","type":"function"},{"inputs":[{"components":[{"internalType":"uint256","name":"orderid","type":"uint256"},{"internalType":"bytes32","name":"addr","type":"bytes32"},{"internalType":"uint256","name":"qty","type":"uint256"},{"internalType":"uint256","name":"granularity","type":"uint256"},{"internalType":"uint256","name":"quote","type":"uint256"},{"internalType":"uint256[]","name":"delivery","type":"uint256[]"}],"internalType":"struct Solution[]","name":"sol_","type":"tuple[]"}],"name":"duplicate","outputs":[{"components":[{"internalType":"uint256","name":"orderid","type":"uint256"},{"internalType":"bytes32","name":"addr","type":"bytes32"},{"internalType":"uint256","name":"qty","type":"uint256"},{"internalType":"uint256","name":"granularity","type":"uint256"},{"internalType":"uint256","name":"quote","type":"uint256"},{"internalType":"uint256[]","name":"delivery","type":"uint256[]"}],"internalType":"struct Solution[]","name":"out_","type":"tuple[]"}],"stateMutability":"pure","type":"function"},{"inputs":[{"components":[{"internalType":"uint256","name":"orderid","type":"uint256"},{"internalType":"bytes32","name":"addr","type":"bytes32"},{"internalType":"uint256","name":"qty","type":"uint256"},{"internalType":"uint256","name":"granularity","type":"uint256"},{"internalType":"uint256","name":"quote","type":"uint256"},{"internalType":"uint256[]","name":"delivery","type":"uint256[]"}],"internalType":"struct Solution","name":"sol_","type":"tuple"}],"name":"duplicate","outputs":[{"components":[{"internalType":"uint256","name":"orderid","type":"uint256"},{"internalType":"bytes32","name":"addr","type":"bytes32"},{"internalType":"uint256","name":"qty","type":"uint256"},{"internalType":"uint256","name":"granularity","type":"uint256"},{"internalType":"uint256","name":"quote","type":"uint256"},{"internalType":"uint256[]","name":"delivery","type":"uint256[]"}],"internalType":"struct Solution","name":"out_","type":"tuple"}],"stateMutability":"pure","type":"function"},{"inputs":[{"components":[{"internalType":"uint256","name":"orderid","type":"uint256"},{"internalType":"bytes32","name":"addr","type":"bytes32"},{"internalType":"uint256","name":"qty","type":"uint256"},{"internalType":"uint256","name":"granularity","type":"uint256"},{"internalType":"uint256","name":"quote","type":"uint256"},{"internalType":"uint256[]","name":"delivery","type":"uint256[]"}],"internalType":"struct Solution[]","name":"sol_","type":"tuple[]"},{"internalType":"uint256","name":"start_","type":"uint256"},{"internalType":"uint256","name":"count_","type":"uint256"}],"name":"duplicate","outputs":[{"components":[{"internalType":"uint256","name":"orderid","type":"uint256"},{"internalType":"bytes32","name":"addr","type":"bytes32"},{"internalType":"uint256","name":"qty","type":"uint256"},{"internalType":"uint256","name":"granularity","type":"uint256"},{"internalType":"uint256","name":"quote","type":"uint256"},{"internalType":"uint256[]","name":"delivery","type":"uint256[]"}],"internalType":"struct Solution[]","name":"out_","type":"tuple[]"}],"stateMutability":"pure","type":"function"},{"inputs":[{"components":[{"internalType":"uint256","name":"orderid","type":"uint256"},{"internalType":"bytes32","name":"addr","type":"bytes32"},{"internalType":"uint256","name":"qty","type":"uint256"},{"internalType":"uint256","name":"granularity","type":"uint256"},{"internalType":"uint256","name":"quote","type":"uint256"},{"internalType":"uint256[]","name":"delivery","type":"uint256[]"}],"internalType":"struct Solution[]","name":"sol_","type":"tuple[]"},{"components":[{"internalType":"uint256","name":"orderid","type":"uint256"},{"internalType":"bytes32","name":"addr","type":"bytes32"},{"internalType":"uint256","name":"qty","type":"uint256"},{"internalType":"uint256","name":"granularity","type":"uint256"},{"internalType":"uint256","name":"quote","type":"uint256"},{"internalType":"uint256[]","name":"delivery","type":"uint256[]"}],"internalType":"struct Solution[]","name":"used_","type":"tuple[]"}],"name":"filterUsed","outputs":[{"components":[{"internalType":"uint256","name":"orderid","type":"uint256"},{"internalType":"bytes32","name":"addr","type":"bytes32"},{"internalType":"uint256","name":"qty","type":"uint256"},{"internalType":"uint256","name":"granularity","type":"uint256"},{"internalType":"uint256","name":"quote","type":"uint256"},{"internalType":"uint256[]","name":"delivery","type":"uint256[]"}],"internalType":"struct Solution[]","name":"out_","type":"tuple[]"}],"stateMutability":"pure","type":"function"},{"inputs":[{"components":[{"internalType":"bytes32","name":"currency","type":"bytes32"},{"internalType":"uint256","name":"qty","type":"uint256"}],"internalType":"struct Remainer[]","name":"remainer_","type":"tuple[]"},{"internalType":"bytes32","name":"currency_","type":"bytes32"}],"name":"get","outputs":[{"internalType":"uint256","name":"qty_","type":"uint256"}],"stateMutability":"pure","type":"function"},{"inputs":[{"components":[{"internalType":"uint256","name":"orderid","type":"uint256"},{"internalType":"bytes32","name":"addr","type":"bytes32"},{"internalType":"uint256","name":"qty","type":"uint256"},{"internalType":"uint256","name":"granularity","type":"uint256"},{"internalType":"uint256","name":"quote","type":"uint256"},{"internalType":"uint256[]","name":"delivery","type":"uint256[]"}],"internalType":"struct Solution[]","name":"sol_","type":"tuple[]"}],"name":"getAvg","outputs":[{"internalType":"uint256","name":"quote_","type":"uint256"}],"stateMutability":"pure","type":"function"},{"inputs":[{"components":[{"internalType":"uint256","name":"orderid","type":"uint256"},{"internalType":"bytes32","name":"addr","type":"bytes32"},{"internalType":"uint256","name":"qty","type":"uint256"},{"internalType":"uint256","name":"granularity","type":"uint256"},{"internalType":"uint256","name":"quote","type":"uint256"},{"internalType":"uint256[]","name":"delivery","type":"uint256[]"}],"internalType":"struct Solution[]","name":"sol_","type":"tuple[]"},{"internalType":"uint256","name":"count_","type":"uint256"}],"name":"getAvg","outputs":[{"internalType":"uint256","name":"quote_","type":"uint256"}],"stateMutability":"pure","type":"function"},{"inputs":[{"components":[{"internalType":"uint256","name":"orderid","type":"uint256"},{"internalType":"bytes32","name":"addr","type":"bytes32"},{"internalType":"uint256","name":"qty","type":"uint256"},{"internalType":"uint256","name":"granularity","type":"uint256"},{"internalType":"uint256","name":"quote","type":"uint256"},{"internalType":"uint256[]","name":"delivery","type":"uint256[]"}],"internalType":"struct Solution[]","name":"sol_","type":"tuple[]"}],"name":"getHasQty","outputs":[{"internalType":"bool","name":"","type":"bool"}],"stateMutability":"pure","type":"function"},{"inputs":[{"components":[{"internalType":"uint256","name":"orderid","type":"uint256"},{"internalType":"bytes32","name":"addr","type":"bytes32"},{"internalType":"uint256","name":"qty","type":"uint256"},{"internalType":"uint256","name":"granularity","type":"uint256"},{"internalType":"uint256","name":"quote","type":"uint256"},{"internalType":"uint256[]","name":"delivery","type":"uint256[]"}],"internalType":"struct Solution[]","name":"sol_","type":"tuple[]"},{"internalType":"uint256","name":"count_","type":"uint256"}],"name":"getHasQty","outputs":[{"internalType":"bool","name":"","type":"bool"}],"stateMutability":"pure","type":"function"},{"inputs":[{"components":[{"internalType":"uint256","name":"orderid","type":"uint256"},{"internalType":"bytes32","name":"addr","type":"bytes32"},{"internalType":"uint256","name":"qty","type":"uint256"},{"internalType":"uint256","name":"granularity","type":"uint256"},{"internalType":"uint256","name":"quote","type":"uint256"},{"internalType":"uint256[]","name":"delivery","type":"uint256[]"}],"internalType":"struct Solution[]","name":"sol_","type":"tuple[]"},{"internalType":"uint256","name":"orderid_","type":"uint256"}],"name":"getIdQty","outputs":[{"internalType":"uint256","name":"qty_","type":"uint256"}],"stateMutability":"pure","type":"function"},{"inputs":[{"components":[{"internalType":"uint256","name":"orderid","type":"uint256"},{"internalType":"bytes32","name":"addr","type":"bytes32"},{"internalType":"uint256","name":"qty","type":"uint256"},{"internalType":"uint256","name":"granularity","type":"uint256"},{"internalType":"uint256","name":"quote","type":"uint256"},{"internalType":"uint256[]","name":"delivery","type":"uint256[]"}],"internalType":"struct Solution[]","name":"sol_","type":"tuple[]"},{"internalType":"uint256","name":"count_","type":"uint256"}],"name":"getQty","outputs":[{"internalType":"uint256","name":"qty_","type":"uint256"}],"stateMutability":"pure","type":"function"},{"inputs":[{"components":[{"internalType":"uint256","name":"orderid","type":"uint256"},{"internalType":"bytes32","name":"addr","type":"bytes32"},{"internalType":"uint256","name":"qty","type":"uint256"},{"internalType":"uint256","name":"granularity","type":"uint256"},{"internalType":"uint256","name":"quote","type":"uint256"},{"internalType":"uint256[]","name":"delivery","type":"uint256[]"}],"internalType":"struct Solution[]","name":"sol_","type":"tuple[]"}],"name":"getQty","outputs":[{"internalType":"uint256","name":"qty_","type":"uint256"}],"stateMutability":"pure","type":"function"},{"inputs":[{"components":[{"internalType":"uint256","name":"orderid","type":"uint256"},{"internalType":"bytes32","name":"addr","type":"bytes32"},{"internalType":"uint256","name":"qty","type":"uint256"},{"internalType":"uint256","name":"granularity","type":"uint256"},{"internalType":"uint256","name":"quote","type":"uint256"},{"internalType":"uint256[]","name":"delivery","type":"uint256[]"}],"internalType":"struct Solution[]","name":"sol_","type":"tuple[]"},{"internalType":"uint256","name":"count_","type":"uint256"}],"name":"getQtyQuote","outputs":[{"internalType":"uint256","name":"qty_","type":"uint256"},{"components":[{"internalType":"uint256","name":"quotemin","type":"uint256"},{"internalType":"uint256","name":"quoteavg","type":"uint256"},{"internalType":"uint256","name":"quotemax","type":"uint256"}],"internalType":"struct Quote","name":"quote_","type":"tuple"}],"stateMutability":"pure","type":"function"},{"inputs":[{"components":[{"internalType":"uint256","name":"orderid","type":"uint256"},{"internalType":"bytes32","name":"addr","type":"bytes32"},{"internalType":"uint256","name":"qty","type":"uint256"},{"internalType":"uint256","name":"granularity","type":"uint256"},{"internalType":"uint256","name":"quote","type":"uint256"},{"internalType":"uint256[]","name":"delivery","type":"uint256[]"}],"internalType":"struct Solution[]","name":"sol_","type":"tuple[]"}],"name":"getQtyQuote","outputs":[{"internalType":"uint256","name":"qty_","type":"uint256"},{"components":[{"internalType":"uint256","name":"quotemin","type":"uint256"},{"internalType":"uint256","name":"quoteavg","type":"uint256"},{"internalType":"uint256","name":"quotemax","type":"uint256"}],"internalType":"struct Quote","name":"quote_","type":"tuple"}],"stateMutability":"pure","type":"function"},{"inputs":[{"components":[{"internalType":"uint256","name":"orderid","type":"uint256"},{"internalType":"bytes32","name":"addr","type":"bytes32"},{"internalType":"uint256","name":"qty","type":"uint256"},{"internalType":"uint256","name":"granularity","type":"uint256"},{"internalType":"uint256","name":"quote","type":"uint256"},{"internalType":"uint256[]","name":"delivery","type":"uint256[]"}],"internalType":"struct Solution[]","name":"sol_","type":"tuple[]"}],"name":"getTotal","outputs":[{"internalType":"uint256","name":"total_","type":"uint256"}],"stateMutability":"pure","type":"function"},{"inputs":[{"components":[{"internalType":"uint256","name":"orderid","type":"uint256"},{"internalType":"bytes32","name":"addr","type":"bytes32"},{"internalType":"uint256","name":"qty","type":"uint256"},{"internalType":"uint256","name":"granularity","type":"uint256"},{"internalType":"uint256","name":"quote","type":"uint256"},{"internalType":"uint256[]","name":"delivery","type":"uint256[]"}],"internalType":"struct Solution[]","name":"sol_","type":"tuple[]"},{"internalType":"uint256","name":"count_","type":"uint256"}],"name":"getTotal","outputs":[{"internalType":"uint256","name":"total_","type":"uint256"}],"stateMutability":"pure","type":"function"},{"inputs":[{"components":[{"internalType":"uint256","name":"orderid","type":"uint256"},{"internalType":"bytes32","name":"addr","type":"bytes32"},{"internalType":"uint256","name":"qty","type":"uint256"},{"internalType":"uint256","name":"granularity","type":"uint256"},{"internalType":"uint256","name":"quote","type":"uint256"},{"internalType":"uint256[]","name":"delivery","type":"uint256[]"}],"internalType":"struct Solution[]","name":"sol_","type":"tuple[]"}],"name":"order","outputs":[{"components":[{"internalType":"uint256","name":"orderid","type":"uint256"},{"internalType":"bytes32","name":"addr","type":"bytes32"},{"internalType":"uint256","name":"qty","type":"uint256"},{"internalType":"uint256","name":"granularity","type":"uint256"},{"internalType":"uint256","name":"quote","type":"uint256"},{"internalType":"uint256[]","name":"delivery","type":"uint256[]"}],"internalType":"struct Solution[]","name":"out_","type":"tuple[]"}],"stateMutability":"pure","type":"function"},{"inputs":[{"components":[{"internalType":"uint256","name":"orderid","type":"uint256"},{"internalType":"bytes32","name":"addr","type":"bytes32"},{"internalType":"uint256","name":"qty","type":"uint256"},{"internalType":"uint256","name":"granularity","type":"uint256"},{"internalType":"uint256","name":"quote","type":"uint256"},{"internalType":"uint256[]","name":"delivery","type":"uint256[]"}],"internalType":"struct Solution[]","name":"sol_","type":"tuple[]"}],"name":"orderGranularity","outputs":[{"components":[{"internalType":"uint256","name":"orderid","type":"uint256"},{"internalType":"bytes32","name":"addr","type":"bytes32"},{"internalType":"uint256","name":"qty","type":"uint256"},{"internalType":"uint256","name":"granularity","type":"uint256"},{"internalType":"uint256","name":"quote","type":"uint256"},{"internalType":"uint256[]","name":"delivery","type":"uint256[]"}],"internalType":"struct Solution[]","name":"out_","type":"tuple[]"}],"stateMutability":"pure","type":"function"},{"inputs":[{"components":[{"internalType":"bytes32","name":"currency","type":"bytes32"},{"internalType":"uint256","name":"qty","type":"uint256"}],"internalType":"struct Remainer[]","name":"remainer_","type":"tuple[]"},{"internalType":"bytes32","name":"currency_","type":"bytes32"},{"internalType":"uint256","name":"qty_","type":"uint256"}],"name":"remove","outputs":[{"components":[{"internalType":"bytes32","name":"currency","type":"bytes32"},{"internalType":"uint256","name":"qty","type":"uint256"}],"internalType":"struct Remainer[]","name":"out_","type":"tuple[]"}],"stateMutability":"pure","type":"function"},{"inputs":[{"components":[{"internalType":"bytes32","name":"currency","type":"bytes32"},{"internalType":"uint256","name":"qty","type":"uint256"}],"internalType":"struct Remainer[]","name":"remainer_","type":"tuple[]"},{"components":[{"internalType":"bytes32[]","name":"path","type":"bytes32[]"},{"internalType":"uint256","name":"qty","type":"uint256"},{"components":[{"internalType":"uint256","name":"quotemin","type":"uint256"},{"internalType":"uint256","name":"quoteavg","type":"uint256"},{"internalType":"uint256","name":"quotemax","type":"uint256"}],"internalType":"struct Quote","name":"quote","type":"tuple"},{"internalType":"uint256","name":"start","type":"uint256"},{"internalType":"uint256","name":"count","type":"uint256"},{"internalType":"uint256[]","name":"offset","type":"uint256[]"}],"internalType":"struct SolutionSetDesc","name":"in_","type":"tuple"},{"components":[{"internalType":"uint256","name":"orderid","type":"uint256"},{"internalType":"bytes32","name":"addr","type":"bytes32"},{"internalType":"uint256","name":"qty","type":"uint256"},{"internalType":"uint256","name":"granularity","type":"uint256"},{"internalType":"uint256","name":"quote","type":"uint256"},{"internalType":"uint256[]","name":"delivery","type":"uint256[]"}],"internalType":"struct Solution[]","name":"solin_","type":"tuple[]"}],"name":"update","outputs":[{"components":[{"internalType":"bytes32","name":"currency","type":"bytes32"},{"internalType":"uint256","name":"qty","type":"uint256"}],"internalType":"struct Remainer[]","name":"remainerout_","type":"tuple[]"}],"stateMutability":"pure","type":"function"}],"bytecode":"612f8361003a600b82828239805160001a60731461002d57634e487b7160e01b600052600060045260246000fd5b30600052607381538281f3fe73000000000000000000000000000000000000000030146080604052600436106101d95760003560e01c8063782b27be1161010e578063d24d63fe116100ac578063ec2dda4b1161007b578063ec2dda4b1461043d578063f31d34b214610450578063f4f1c9dd14610463578063f7eb9bb61461047657600080fd5b8063d24d63fe146103f1578063d6fd91f014610404578063e060df6614610417578063e23edbef1461042a57600080fd5b80639fab220f116100e85780639fab220f146103a5578063a76345c5146103b8578063a9c9269a146103cb578063bf07928f146103de57600080fd5b8063782b27be1461036c578063970bc4a31461037f5780639b19f22c1461039257600080fd5b806365d9bcb91161017b5780636cc184b0116101555780636cc184b0146103065780637071133e14610319578063742228d7146103395780637513ce1b1461034c57600080fd5b806365d9bcb9146102c057806366628d27146102d35780636c1922c8146102e657600080fd5b806334157036116101b7578063341570361461024a5780634bd40d431461026b57806350308ede1461028c5780635640453d146102ad57600080fd5b80632a30a85c146101de5780632edb2199146102075780632fbf1f931461022a575b600080fd5b6101f16101ec3660046124a0565b610489565b6040516101fe91906125da565b60405180910390f35b61021a6102153660046125ed565b6105ad565b60405190151581526020016101fe565b61023d61023836600461270f565b6105c0565b6040516101fe91906127f8565b61025d61025836600461280b565b610634565b6040516101fe92919061284f565b61027e6102793660046125ed565b610804565b6040519081526020016101fe565b61029f61029a366004612877565b610811565b6040516101fe929190612908565b61027e6102bb36600461280b565b610a29565b6101f16102ce3660046125ed565b610aa0565b61027e6102e136600461280b565b610aaf565b6102f96102f436600461292d565b610af8565b6040516101fe9190612961565b61021a61031436600461280b565b610b3c565b61032c6103273660046129f3565b610b94565b6040516101fe9190612a7a565b61025d6103473660046125ed565b610d55565b61035f61035a366004612bb7565b610d8f565b6040516101fe9190612c37565b6101f161037a3660046125ed565b61111e565b61027e61038d3660046125ed565b611365565b61027e6103a036600461280b565b61136e565b61035f6103b3366004612ce7565b61144a565b61032c6103c6366004612d40565b611826565b61035f6103d9366004612d77565b6119ba565b6101f16103ec3660046124a0565b611a68565b61027e6103ff36600461280b565b611aac565b61032c610412366004612d40565b611b2f565b61027e6104253660046125ed565b611cbb565b61027e610438366004612dad565b611cc8565b6101f161044b366004612de2565b611d32565b6101f161045e366004612e3b565b611e15565b6101f16104713660046124a0565b611ec4565b6101f16104843660046125ed565b611fdc565b606082516001600160401b038111156104a4576104a4612268565b6040519080825280602002602001820160405280156104dd57816020015b6104ca61218d565b8152602001906001900390816104c25790505b5090506000805b84518110156105a457600061051186838151811061050457610504612e72565b6020026020010151610af8565b90506000610523868360000151610a29565b905081604001518110610537575050610592565b80826040018181516105499190612e9e565b905250606082015160408301511015610563575050610592565b8185858151811061057657610576612e72565b6020026020010181905250838061058c90612eb5565b94505050505b8061059c81612eb5565b9150506104e4565b50815292915050565b60006105ba828351610b3c565b92915050565b6105c86121c6565b50604080516002808252606082018352859260208301908036833750505080825280518491906000906105fd576105fd612e72565b60200260200101818152505081816000015160018151811061062157610621612e72565b6020026020010181815250509392505050565b600061065a60405180606001604052806000815260200160008152602001600081525090565b60005b838110156107c65781511580610693575084818151811061068057610680612e72565b6020026020010151608001518260000151115b156106bc578481815181106106aa576106aa612e72565b60209081029190910101516080015182525b604082015115806106ed57508481815181106106da576106da612e72565b6020026020010151608001518260400151105b1561071a5784818151811061070457610704612e72565b6020026020010151608001518260400181815250505b670de0b6b3a764000085828151811061073557610735612e72565b60200260200101516080015186838151811061075357610753612e72565b6020026020010151604001516107699190612ed0565b6107739190612eef565b826020018181516107849190612f11565b905250845185908290811061079b5761079b612e72565b602002602001015160400151836107b29190612f11565b9250806107be81612eb5565b91505061065d565b50816107d35760006107f6565b818160200151670de0b6b3a76400006107ec9190612ed0565b6107f69190612eef565b602082015290939092509050565b60006105ba828351611aac565b6108196121c6565b602080860151908201526040808601519082015284515160609061083e906001612f11565b6001600160401b0381111561085557610855612268565b60405190808252806020026020018201604052801561087e578160200160208202803683370190505b50825260005b8651518110156108e95786518051829081106108a2576108a2612e72565b602002602001015183600001518260016108bc9190612f11565b815181106108cc576108cc612e72565b6020908102919091010152806108e181612eb5565b915050610884565b5083826000015160008151811061090257610902612e72565b602090810291909101015260a08601515161091e906001612f11565b6001600160401b0381111561093557610935612268565b60405190808252806020026020018201604052801561095e578160200160208202803683370190505b5060a083015260005b8660a00151518110156109db5783518760a00151828151811061098c5761098c612e72565b602002602001015161099e9190612f11565b60a08401516109ae836001612f11565b815181106109be576109be612e72565b6020908102919091010152806109d381612eb5565b915050610967565b5082518260a001516000815181106109f5576109f5612e72565b60200260200101818152505084518351610a0f9190612f11565b6080830152610a1e8386611ec4565b905094509492505050565b6000805b8351811015610a995782848281518110610a4957610a49612e72565b6020026020010151600001511415610a8757838181518110610a6d57610a6d612e72565b60200260200101516040015182610a849190612f11565b91505b80610a9181612eb5565b915050610a2d565b5092915050565b60606105ba8260008451611e15565b6000805b82811015610a9957838181518110610acd57610acd612e72565b60200260200101516040015182610ae49190612f11565b915080610af081612eb5565b915050610ab3565b610b0061218d565b815181526020808301519082015260408083015190820152606080830151908201526080808301519082015260a0918201519181019190915290565b6000805b82811015610b8a576000848281518110610b5c57610b5c612e72565b6020026020010151604001511115610b785760019150506105ba565b80610b8281612eb5565b915050610b40565b5060009392505050565b60a082015151839080610ba75750610d4e565b8251600090815b610bb9846001612f11565b811015610d4957600084821415610bd257506000610c08565b60a088015182610be3600188612e9e565b610bed9190612e9e565b81518110610bfd57610bfd612e72565b602002602001015190505b600080825b85811015610cb757898181518110610c2757610c27612e72565b60200260200101516040015182610c3e9190612f11565b9150670de0b6b3a76400008a8281518110610c5b57610c5b612e72565b6020026020010151608001518b8381518110610c7957610c79612e72565b602002602001015160400151610c8f9190612ed0565b610c999190612eef565b610ca39084612f11565b925080610caf81612eb5565b915050610c0d565b508315610d325789518051600091908690610cd490600190612e9e565b610cde9190612e9e565b81518110610cee57610cee612e72565b6020026020010151905086821115610d1657610d0f89826104128a86612e9e565b9850610d30565b86821015610d3057610d2d89826103c6858b612e9e565b98505b505b509350915080610d4181612eb5565b915050610bae565b505050505b9392505050565b6000610d7b60405180606001604052806000815260200160008152602001600081525090565b610d86838451610634565b91509150915091565b610d9761221e565b83518152602080850151908201526080830151606085015151610dba9190612f11565b6001600160401b03811115610dd157610dd1612268565b604051908082528060200260200182016040528015610e0a57816020015b610df761218d565b815260200190600190039081610def5790505b50606082015260005b846060015151811015610e725784606001518181518110610e3657610e36612e72565b602002602001015182606001518281518110610e5457610e54612e72565b60200260200101819052508080610e6a90612eb5565b915050610e13565b5060005b8360800151811015610eef5782818560600151610e939190612f11565b81518110610ea357610ea3612e72565b6020026020010151826060015182876060015151610ec19190612f11565b81518110610ed157610ed1612e72565b60200260200101819052508080610ee790612eb5565b915050610e76565b50604084015151610f01906001612f11565b6001600160401b03811115610f1857610f18612268565b604051908082528060200260200182016040528015610f5157816020015b610f3e6121c6565b815260200190600190039081610f365790505b50604082015260005b846040015151811015610fb95784604001518181518110610f7d57610f7d612e72565b602002602001015182604001518281518110610f9b57610f9b612e72565b60200260200101819052508080610fb190612eb5565b915050610f5a565b5082816040015185604001515181518110610fd657610fd6612e72565b602002602001018190525083606001515181604001518560400151518151811061100257611002612e72565b6020908102919091010151606001526040840151511561104357604083015151602082015151116110385760208101515161104a565b60408301515161104a565b6040830151515b6020820180519190915260408085015181015191510151106110745780602001516040015161107e565b8260400151604001515b60208083015160400191909152830151815161109a9190612f11565b6110a55760006110f6565b602083015181516110b69190612f11565b83602001518460400151602001516110ce9190612ed0565b825160208085015101516110e29190612ed0565b6110ec9190612f11565b6110f69190612eef565b60208083015181019190915283015181518290611114908390612f11565b9052509392505050565b606081516001600160401b0381111561113957611139612268565b60405190808252806020026020018201604052801561117257816020015b61115f61218d565b8152602001906001900390816111575790505b5090506000805b835181101561135e57600084828151811061119657611196612e72565b6020026020010151905060005b838163ffffffff1610156112b3578160600151858263ffffffff16815181106111ce576111ce612e72565b602002602001015160600151108061123d57508160600151858263ffffffff16815181106111fe576111fe612e72565b60200260200101516060015114801561123d57508160800151858263ffffffff168151811061122f5761122f612e72565b602002602001015160800151115b156112a1576000858263ffffffff168151811061125c5761125c612e72565b6020026020010151905082868363ffffffff168151811061127f5761127f612e72565b6020026020010181905250809250818061129890612f29565b925050506112b3565b806112ab81612f29565b9150506111a3565b838163ffffffff16101561131d576000858263ffffffff16815181106112db576112db612e72565b6020026020010151905082868363ffffffff16815181106112fe576112fe612e72565b602090810291909101015291508061131581612f29565b9150506112b3565b8185858151811061133057611330612e72565b6020026020010181905250838061134690612eb5565b9450505050808061135690612eb5565b915050611179565b5050919050565b60006105ba8283515b60008060005b8381101561141e57670de0b6b3a764000085828151811061139757611397612e72565b6020026020010151608001518683815181106113b5576113b5612e72565b6020026020010151604001516113cb9190612ed0565b6113d59190612eef565b6113df9084612f11565b92508481815181106113f3576113f3612e72565b6020026020010151604001518261140a9190612f11565b91508061141681612eb5565b915050611374565b508015610a99578061143883670de0b6b3a7640000612ed0565b6114429190612eef565b949350505050565b61145261221e565b82518152602080840151908201526040808301515190840151516114769190612f11565b6001600160401b0381111561148d5761148d612268565b6040519080825280602002602001820160405280156114c657816020015b6114b36121c6565b8152602001906001900390816114ab5790505b50604082015260005b83604001515181101561152e57836040015181815181106114f2576114f2612e72565b60200260200101518260400151828151811061151057611510612e72565b6020026020010181905250808061152690612eb5565b9150506114cf565b5060005b8260400151518110156115e7578260400151818151811061155557611555612e72565b60200260200101518260400151828660400151516115739190612f11565b8151811061158357611583612e72565b60200260200101819052508360600151518260400151828660400151516115aa9190612f11565b815181106115ba576115ba612e72565b60200260200101516060018181516115d29190612f11565b905250806115df81612eb5565b915050611532565b508160600151518360600151516115fe9190612f11565b6001600160401b0381111561161557611615612268565b60405190808252806020026020018201604052801561164e57816020015b61163b61218d565b8152602001906001900390816116335790505b50606082015260005b8360600151518110156116b6578360600151818151811061167a5761167a612e72565b60200260200101518260600151828151811061169857611698612e72565b602002602001018190525080806116ae90612eb5565b915050611657565b5060005b82606001515181101561172957826060015181815181106116dd576116dd612e72565b60200260200101518260600151828660600151516116fb9190612f11565b8151811061170b5761170b612e72565b6020026020010181905250808061172190612eb5565b9150506116ba565b506040830151511561175c576020808301515190820151511161175157602081015151611763565b602082015151611763565b6020820151515b6020808301805192909252830151604090810151915101511061178e57806020015160400151611798565b8160200151604001515b602082015160400152815181516117af9190612f11565b6117ba576000611804565b815181516117c89190612f11565b825160208085015101516117dc9190612ed0565b825160208085015101516117f09190612ed0565b6117fa9190612f11565b6118049190612eef565b602080830151015281518151829061181d908390612f11565b90525092915050565b8260005b81518110156119b2578382828151811061184657611846612e72565b60200260200101516000015114156119a0578282828151811061186b5761186b612e72565b60200260200101516020015110156118e15760405162461bcd60e51b815260206004820152602f60248201527f52656d61696e65722072656d6f766520717479206973207375706572696f722060448201526e746f2072656d61696e65722071747960881b606482015260840160405180910390fd5b828282815181106118f4576118f4612e72565b602002602001015160200181815161190c9190612e9e565b905250815182908290811061192357611923612e72565b6020026020010151602001516000141561199a576001825111156119865781600183516119509190612e9e565b8151811061196057611960612e72565b602002602001015182828151811061197a5761197a612e72565b60200260200101819052505b6000600183516119969190612e9e565b8352505b50610d4e565b806119aa81612eb5565b91505061182a565b509392505050565b6119c261221e565b6119cb82610aa0565b606082015260408051600180825281830190925290816020015b6119ed6121c6565b8152602001906001900390816119e5575050604082018190528051849190600090611a1a57611a1a612e72565b602002602001018190525060008160400151600081518110611a3e57611a3e612e72565b60209081029190910181015160600191909152838101518252604090930151928101929092525090565b8160005b8251811015610a9957611a9882848381518110611a8b57611a8b612e72565b6020026020010151611d32565b915080611aa481612eb5565b915050611a6c565b6000805b82811015610a9957670de0b6b3a7640000848281518110611ad357611ad3612e72565b602002602001015160800151858381518110611af157611af1612e72565b602002602001015160400151611b079190612ed0565b611b119190612eef565b611b1b9083612f11565b915080611b2781612eb5565b915050611ab0565b8260005b8151811015611ba85783828281518110611b4f57611b4f612e72565b6020026020010151600001511415611b965782828281518110611b7457611b74612e72565b6020026020010151602001818151611b8c9190612f11565b905250610d4e9050565b80611ba081612eb5565b915050611b33565b508351611bb6906001612f11565b6001600160401b03811115611bcd57611bcd612268565b604051908082528060200260200182016040528015611c1257816020015b6040805180820190915260008082526020820152815260200190600190039081611beb5790505b50905060005b8451811015611c6b57848181518110611c3357611c33612e72565b6020026020010151828281518110611c4d57611c4d612e72565b60200260200101819052508080611c6390612eb5565b915050611c18565b508281855181518110611c8057611c80612e72565b602002602001015160000181815250508181855181518110611ca457611ca4612e72565b602002602001015160200181815250509392505050565b60006105ba828351610aaf565b6000805b8351811015610b8a5782848281518110611ce857611ce8612e72565b6020026020010151600001511415611d2057838181518110611d0c57611d0c612e72565b6020026020010151602001519150506105ba565b80611d2a81612eb5565b915050611ccc565b606060005b8351811015611db7578260000151848281518110611d5757611d57612e72565b6020026020010151600001511415611da5578260400151848281518110611d8057611d80612e72565b6020026020010151604001818151611d989190612f11565b9052508391506105ba9050565b80611daf81612eb5565b915050611d37565b50604080516001808252818301909252600091816020015b611dd761218d565b815260200190600190039081611dcf5790505090508281600081518110611e0057611e00612e72565b60200260200101819052506114428482611ec4565b6060816001600160401b03811115611e2f57611e2f612268565b604051908082528060200260200182016040528015611e6857816020015b611e5561218d565b815260200190600190039081611e4d5790505b50905060005b828110156119b257611e9485611e848387612f11565b8151811061050457610504612e72565b828281518110611ea657611ea6612e72565b60200260200101819052508080611ebc90612eb5565b915050611e6e565b8151815160609190611ed68183612f11565b6001600160401b03811115611eed57611eed612268565b604051908082528060200260200182016040528015611f2657816020015b611f1361218d565b815260200190600190039081611f0b5790505b50925060005b82811015611f7957611f4986828151811061050457610504612e72565b848281518110611f5b57611f5b612e72565b60200260200101819052508080611f7190612eb5565b915050611f2c565b5060005b81811015611fd357611f9a85828151811061050457610504612e72565b84611fa58386612f11565b81518110611fb557611fb5612e72565b60200260200101819052508080611fcb90612eb5565b915050611f7d565b50505092915050565b606081516001600160401b03811115611ff757611ff7612268565b60405190808252806020026020018201604052801561203057816020015b61201d61218d565b8152602001906001900390816120155790505b5090506000805b835181101561135e57600084828151811061205457612054612e72565b6020026020010151905060005b838110156120f757816080015185828151811061208057612080612e72565b60200260200101516080015111156120e55760008582815181106120a6576120a6612e72565b60200260200101519050828683815181106120c3576120c3612e72565b602002602001018190525080925081806120dc90612eb5565b925050506120f7565b806120ef81612eb5565b915050612061565b8381101561214f57600085828151811061211357612113612e72565b602002602001015190508286838151811061213057612130612e72565b602090810291909101015291508061214781612eb5565b9150506120f7565b81858561215b81612eb5565b96508151811061216d5761216d612e72565b60200260200101819052505050808061218590612eb5565b915050612037565b6040518060c001604052806000815260200160008019168152602001600081526020016000815260200160008152602001606081525090565b6040518060c00160405280606081526020016000815260200161220360405180606001604052806000815260200160008152602001600081525090565b81526020016000815260200160008152602001606081525090565b60405180608001604052806000815260200161225460405180606001604052806000815260200160008152602001600081525090565b815260200160608152602001606081525090565b634e487b7160e01b600052604160045260246000fd5b60405160c081016001600160401b03811182821017156122a0576122a0612268565b60405290565b604080519081016001600160401b03811182821017156122a0576122a0612268565b604051608081016001600160401b03811182821017156122a0576122a0612268565b604051601f8201601f191681016001600160401b038111828210171561231257612312612268565b604052919050565b60006001600160401b0382111561233357612333612268565b5060051b60200190565b600082601f83011261234e57600080fd5b8135602061236361235e8361231a565b6122ea565b82815260059290921b8401810191818101908684111561238257600080fd5b8286015b8481101561239d5780358352918301918301612386565b509695505050505050565b600060c082840312156123ba57600080fd5b6123c261227e565b9050813581526020820135602082015260408201356040820152606082013560608201526080820135608082015260a08201356001600160401b0381111561240957600080fd5b6124158482850161233d565b60a08301525092915050565b600082601f83011261243257600080fd5b8135602061244261235e8361231a565b82815260059290921b8401810191818101908684111561246157600080fd5b8286015b8481101561239d5780356001600160401b038111156124845760008081fd5b6124928986838b01016123a8565b845250918301918301612465565b600080604083850312156124b357600080fd5b82356001600160401b03808211156124ca57600080fd5b6124d686838701612421565b935060208501359150808211156124ec57600080fd5b506124f985828601612421565b9150509250929050565b600081518084526020808501945080840160005b8381101561253357815187529582019590820190600101612517565b509495945050505050565b8051825260208101516020830152604081015160408301526060810151606083015260808101516080830152600060a082015160c060a085015261144260c0850182612503565b600081518084526020808501808196508360051b8101915082860160005b858110156125cd5782840389526125bb84835161253e565b988501989350908401906001016125a3565b5091979650505050505050565b602081526000610d4e6020830184612585565b6000602082840312156125ff57600080fd5b81356001600160401b0381111561261557600080fd5b61144284828501612421565b60006060828403121561263357600080fd5b604051606081018181106001600160401b038211171561265557612655612268565b80604052508091508235815260208301356020820152604083013560408201525092915050565b6000610100828403121561268f57600080fd5b61269761227e565b905081356001600160401b03808211156126b057600080fd5b6126bc8583860161233d565b8352602084013560208401526126d58560408601612621565b604084015260a0840135606084015260c0840135608084015260e084013591508082111561270257600080fd5b506124158482850161233d565b60008060006060848603121561272457600080fd5b83356001600160401b0381111561273a57600080fd5b6127468682870161267c565b9660208601359650604090950135949350505050565b80516101008084528151908401819052600091610120850191602091820190845b818110156127995782518552938301939183019160010161277d565b50505083810151908501526040808401518051828701526020810151606087015290810151608086015250606083015160a0850152608083015160c085015260a083015184820360e08601526127ef8282612503565b95945050505050565b602081526000610d4e602083018461275c565b6000806040838503121561281e57600080fd5b82356001600160401b0381111561283457600080fd5b61284085828601612421565b95602094909401359450505050565b82815260808101610d4e60208301848051825260208082015190830152604090810151910152565b6000806000806080858703121561288d57600080fd5b84356001600160401b03808211156128a457600080fd5b6128b08883890161267c565b955060208701359150808211156128c657600080fd5b6128d288838901612421565b94506040870135935060608701359150808211156128ef57600080fd5b506128fc87828801612421565b91505092959194509250565b60408152600061291b604083018561275c565b82810360208401526127ef8185612585565b60006020828403121561293f57600080fd5b81356001600160401b0381111561295557600080fd5b611442848285016123a8565b602081526000610d4e602083018461253e565b600082601f83011261298557600080fd5b8135602061299561235e8361231a565b82815260069290921b840181019181810190868411156129b457600080fd5b8286015b8481101561239d57604081890312156129d15760008081fd5b6129d96122a6565b8135815284820135858201528352918301916040016129b8565b600080600060608486031215612a0857600080fd5b83356001600160401b0380821115612a1f57600080fd5b612a2b87838801612974565b94506020860135915080821115612a4157600080fd5b612a4d8783880161267c565b93506040860135915080821115612a6357600080fd5b50612a7086828701612421565b9150509250925092565b602080825282518282018190526000919060409081850190868401855b828110156125cd57815180518552860151868501529284019290850190600101612a97565b600060c08284031215612ace57600080fd5b612ad66122c8565b9050813581526020612aea84828501612621565b8183015260808301356001600160401b0380821115612b0857600080fd5b818501915085601f830112612b1c57600080fd5b8135612b2a61235e8261231a565b81815260059190911b83018401908481019088831115612b4957600080fd5b8585015b83811015612b8157803585811115612b655760008081fd5b612b738b89838a010161267c565b845250918601918601612b4d565b506040870152505060a0850135925080831115612b9d57600080fd5b5050612bab84828501612421565b60608301525092915050565b600080600060608486031215612bcc57600080fd5b83356001600160401b0380821115612be357600080fd5b612a2b87838801612abc565b600081518084526020808501808196508360051b8101915082860160005b858110156125cd578284038952612c2584835161253e565b98850198935090840190600101612c0d565b6000602080835260e0830184518285015281850151612c6d60408601828051825260208082015190830152604090810151910152565b50604085015160c060a0860152805191829052610100600583901b8601810192918401919086019060005b81811015612cc65760ff19888603018352612cb485855161275c565b94509285019291850191600101612c98565b505050506060850151848203601f190160c086015291506127ef8183612bef565b60008060408385031215612cfa57600080fd5b82356001600160401b0380821115612d1157600080fd5b612d1d86838701612abc565b93506020850135915080821115612d3357600080fd5b506124f985828601612abc565b600080600060608486031215612d5557600080fd5b83356001600160401b03811115612d6b57600080fd5b61274686828701612974565b60008060408385031215612d8a57600080fd5b82356001600160401b0380821115612da157600080fd5b6124d68683870161267c565b60008060408385031215612dc057600080fd5b82356001600160401b03811115612dd657600080fd5b61284085828601612974565b60008060408385031215612df557600080fd5b82356001600160401b0380821115612e0c57600080fd5b612e1886838701612421565b93506020850135915080821115612e2e57600080fd5b506124f9858286016123a8565b600080600060608486031215612e5057600080fd5b83356001600160401b03811115612e6657600080fd5b61274686828701612421565b634e487b7160e01b600052603260045260246000fd5b634e487b7160e01b600052601160045260246000fd5b600082821015612eb057612eb0612e88565b500390565b6000600019821415612ec957612ec9612e88565b5060010190565b6000816000190483118215151615612eea57612eea612e88565b500290565b600082612f0c57634e487b7160e01b600052601260045260246000fd5b500490565b60008219821115612f2457612f24612e88565b500190565b600063ffffffff80831681811415612f4357612f43612e88565b600101939250505056fea2646970667358221220faeb71e7fd9761acf6338204925e31ea52e54a6342f0de7a6a4070acd26a158f64736f6c634300080b0033","bytecodeSha1":"33f3da494d17bc65062f61a28feddd786723392d","compiler":{"evm_version":"istanbul","optimizer":{"enabled":true,"runs":200},"version":"0.8.11+commit.d7f03943"},"contractName":"MarketLib","language":"Solidity","natspec":{"kind":"dev","methods":{},"version":1},"opcodes":"PUSH20 0x0 ADDRESS EQ PUSH1 0x80 PUSH1 0x40 MSTORE PUSH1 0x4 CALLDATASIZE LT PUSH2 0x1D9 JUMPI PUSH1 0x0 CALLDATALOAD PUSH1 0xE0 SHR DUP1 PUSH4 0x782B27BE GT PUSH2 0x10E JUMPI DUP1 PUSH4 0xD24D63FE GT PUSH2 0xAC JUMPI DUP1 PUSH4 0xEC2DDA4B GT PUSH2 0x7B JUMPI DUP1 PUSH4 0xEC2DDA4B EQ PUSH2 0x43D JUMPI DUP1 PUSH4 0xF31D34B2 EQ PUSH2 0x450 JUMPI DUP1 PUSH4 0xF4F1C9DD EQ PUSH2 0x463 JUMPI DUP1 PUSH4 0xF7EB9BB6 EQ PUSH2 0x476 JUMPI PUSH1 0x0 DUP1 REVERT JUMPDEST DUP1 PUSH4 0xD24D63FE EQ PUSH2 0x3F1 JUMPI DUP1 PUSH4 0xD6FD91F0 EQ PUSH2 0x404 JUMPI DUP1 PUSH4 0xE060DF66 EQ PUSH2 0x417 JUMPI DUP1 PUSH4 0xE23EDBEF EQ PUSH2 0x42A JUMPI PUSH1 0x0 DUP1 REVERT JUMPDEST DUP1 PUSH4 0x9FAB220F GT PUSH2 0xE8 JUMPI DUP1 PUSH4 0x9FAB220F EQ PUSH2 0x3A5 JUMPI DUP1 PUSH4 0xA76345C5 EQ PUSH2 0x3B8 JUMPI DUP1 PUSH4 0xA9C9269A EQ PUSH2 0x3CB JUMPI DUP1 PUSH4 0xBF07928F EQ PUSH2 0x3DE JUMPI PUSH1 0x0 DUP1 REVERT JUMPDEST DUP1 PUSH4 0x782B27BE EQ PUSH2 0x36C JUMPI DUP1 PUSH4 0x970BC4A3 EQ PUSH2 0x37F JUMPI DUP1 PUSH4 0x9B19F22C EQ PUSH2 0x392 JUMPI PUSH1 0x0 DUP1 REVERT JUMPDEST DUP1 PUSH4 0x65D9BCB9 GT PUSH2 0x17B JUMPI DUP1 PUSH4 0x6CC184B0 GT PUSH2 0x155 JUMPI DUP1 PUSH4 0x6CC184B0 EQ PUSH2 0x306 JUMPI DUP1 PUSH4 0x7071133E EQ PUSH2 0x319 JUMPI DUP1 PUSH4 0x742228D7 EQ PUSH2 0x339 JUMPI DUP1 PUSH4 0x7513CE1B EQ PUSH2 0x34C JUMPI PUSH1 0x0 DUP1 REVERT JUMPDEST DUP1 PUSH4 0x65D9BCB9 EQ PUSH2 0x2C0 JUMPI DUP1 PUSH4 0x66628D27 EQ PUSH2 0x2D3 JUMPI DUP1 PUSH4 0x6C1922C8 EQ PUSH2 0x2E6 JUMPI PUSH1 0x0 DUP1 REVERT JUMPDEST DUP1 PUSH4 0x34157036 GT PUSH2 0x1B7 JUMPI DUP1 PUSH4 0x34157036 EQ PUSH2 0x24A JUMPI DUP1 PUSH4 0x4BD40D43 EQ PUSH2 0x26B JUMPI DUP1 PUSH4 0x50308EDE EQ PUSH2 0x28C JUMPI DUP1 PUSH4 0x5640453D EQ PUSH2 0x2AD JUMPI PUSH1 0x0 DUP1 REVERT JUMPDEST DUP1 PUSH4 0x2A30A85C EQ PUSH2 0x1DE JUMPI DUP1 PUSH4 0x2EDB2199 EQ PUSH2 0x207 JUMPI DUP1 PUSH4 0x2FBF1F93 EQ PUSH2 0x22A JUMPI JUMPDEST PUSH1 0x0 DUP1 REVERT JUMPDEST PUSH2 0x1F1 PUSH2 0x1EC CALLDATASIZE PUSH1 0x4 PUSH2 0x24A0 JUMP JUMPDEST PUSH2 0x489 JUMP JUMPDEST PUSH1 0x40 MLOAD PUSH2 0x1FE SWAP2 SWAP1 PUSH2 0x25DA JUMP JUMPDEST PUSH1 0x40 MLOAD DUP1 SWAP2 SUB SWAP1 RETURN JUMPDEST PUSH2 0x21A PUSH2 0x215 CALLDATASIZE PUSH1 0x4 PUSH2 0x25ED JUMP JUMPDEST PUSH2 0x5AD JUMP JUMPDEST PUSH1 0x40 MLOAD SWAP1 ISZERO ISZERO DUP2 MSTORE PUSH1 0x20 ADD PUSH2 0x1FE JUMP JUMPDEST PUSH2 0x23D PUSH2 0x238 CALLDATASIZE PUSH1 0x4 PUSH2 0x270F JUMP JUMPDEST PUSH2 0x5C0 JUMP JUMPDEST PUSH1 0x40 MLOAD PUSH2 0x1FE SWAP2 SWAP1 PUSH2 0x27F8 JUMP JUMPDEST PUSH2 0x25D PUSH2 0x258 CALLDATASIZE PUSH1 0x4 PUSH2 0x280B JUMP JUMPDEST PUSH2 0x634 JUMP JUMPDEST PUSH1 0x40 MLOAD PUSH2 0x1FE SWAP3 SWAP2 SWAP1 PUSH2 0x284F JUMP JUMPDEST PUSH2 0x27E PUSH2 0x279 CALLDATASIZE PUSH1 0x4 PUSH2 0x25ED JUMP JUMPDEST PUSH2 0x804 JUMP JUMPDEST PUSH1 0x40 MLOAD SWAP1 DUP2 MSTORE PUSH1 0x20 ADD PUSH2 0x1FE JUMP JUMPDEST PUSH2 0x29F PUSH2 0x29A CALLDATASIZE PUSH1 0x4 PUSH2 0x2877 JUMP JUMPDEST PUSH2 0x811 JUMP JUMPDEST PUSH1 0x40 MLOAD PUSH2 0x1FE SWAP3 SWAP2 SWAP1 PUSH2 0x2908 JUMP JUMPDEST PUSH2 0x27E PUSH2 0x2BB CALLDATASIZE PUSH1 0x4 PUSH2 0x280B JUMP JUMPDEST PUSH2 0xA29 JUMP JUMPDEST PUSH2 0x1F1 PUSH2 0x2CE CALLDATASIZE PUSH1 0x4 PUSH2 0x25ED JUMP JUMPDEST PUSH2 0xAA0 JUMP JUMPDEST PUSH2 0x27E PUSH2 0x2E1 CALLDATASIZE PUSH1 0x4 PUSH2 0x280B JUMP JUMPDEST PUSH2 0xAAF JUMP JUMPDEST PUSH2 0x2F9 PUSH2 0x2F4 CALLDATASIZE PUSH1 0x4 PUSH2 0x292D JUMP JUMPDEST PUSH2 0xAF8 JUMP JUMPDEST PUSH1 0x40 MLOAD PUSH2 0x1FE SWAP2 SWAP1 PUSH2 0x2961 JUMP JUMPDEST PUSH2 0x21A PUSH2 0x314 CALLDATASIZE PUSH1 0x4 PUSH2 0x280B JUMP JUMPDEST PUSH2 0xB3C JUMP JUMPDEST PUSH2 0x32C PUSH2 0x327 CALLDATASIZE PUSH1 0x4 PUSH2 0x29F3 JUMP JUMPDEST PUSH2 0xB94 JUMP JUMPDEST PUSH1 0x40 MLOAD PUSH2 0x1FE SWAP2 SWAP1 PUSH2 0x2A7A JUMP JUMPDEST PUSH2 0x25D PUSH2 0x347 CALLDATASIZE PUSH1 0x4 PUSH2 0x25ED JUMP JUMPDEST PUSH2 0xD55 JUMP JUMPDEST PUSH2 0x35F PUSH2 0x35A CALLDATASIZE PUSH1 0x4 PUSH2 0x2BB7 JUMP JUMPDEST PUSH2 0xD8F JUMP JUMPDEST PUSH1 0x40 MLOAD PUSH2 0x1FE SWAP2 SWAP1 PUSH2 0x2C37 JUMP JUMPDEST PUSH2 0x1F1 PUSH2 0x37A CALLDATASIZE PUSH1 0x4 PUSH2 0x25ED JUMP JUMPDEST PUSH2 0x111E JUMP JUMPDEST PUSH2 0x27E PUSH2 0x38D CALLDATASIZE PUSH1 0x4 PUSH2 0x25ED JUMP JUMPDEST PUSH2 0x1365 JUMP JUMPDEST PUSH2 0x27E PUSH2 0x3A0 CALLDATASIZE PUSH1 0x4 PUSH2 0x280B JUMP JUMPDEST PUSH2 0x136E JUMP JUMPDEST PUSH2 0x35F PUSH2 0x3B3 CALLDATASIZE PUSH1 0x4 PUSH2 0x2CE7 JUMP JUMPDEST PUSH2 0x144A JUMP JUMPDEST PUSH2 0x32C PUSH2 0x3C6 CALLDATASIZE PUSH1 0x4 PUSH2 0x2D40 JUMP JUMPDEST PUSH2 0x1826 JUMP JUMPDEST PUSH2 0x35F PUSH2 0x3D9 CALLDATASIZE PUSH1 0x4 PUSH2 0x2D77 JUMP JUMPDEST PUSH2 0x19BA JUMP JUMPDEST PUSH2 0x1F1 PUSH2 0x3EC CALLDATASIZE PUSH1 0x4 PUSH2 0x24A0 JUMP JUMPDEST PUSH2 0x1A68 JUMP JUMPDEST PUSH2 0x27E PUSH2 0x3FF CALLDATASIZE PUSH1 0x4 PUSH2 0x280B JUMP JUMPDEST PUSH2 0x1AAC JUMP JUMPDEST PUSH2 0x32C PUSH2 0x412 CALLDATASIZE PUSH1 0x4 PUSH2 0x2D40 JUMP JUMPDEST PUSH2 0x1B2F JUMP JUMPDEST PUSH2 0x27E PUSH2 0x425 CALLDATASIZE PUSH1 0x4 PUSH2 0x25ED JUMP JUMPDEST PUSH2 0x1CBB JUMP JUMPDEST PUSH2 0x27E PUSH2 0x438 CALLDATASIZE PUSH1 0x4 PUSH2 0x2DAD JUMP JUMPDEST PUSH2 0x1CC8 JUMP JUMPDEST PUSH2 0x1F1 PUSH2 0x44B CALLDATASIZE PUSH1 0x4 PUSH2 0x2DE2 JUMP JUMPDEST PUSH2 0x1D32 JUMP JUMPDEST PUSH2 0x1F1 PUSH2 0x45E CALLDATASIZE PUSH1 0x4 PUSH2 0x2E3B JUMP JUMPDEST PUSH2 0x1E15 JUMP JUMPDEST PUSH2 0x1F1 PUSH2 0x471 CALLDATASIZE PUSH1 0x4 PUSH2 0x24A0 JUMP JUMPDEST PUSH2 0x1EC4 JUMP JUMPDEST PUSH2 0x1F1 PUSH2 0x484 CALLDATASIZE PUSH1 0x4 PUSH2 0x25ED JUMP JUMPDEST PUSH2 0x1FDC JUMP JUMPDEST PUSH1 0x60 DUP3 MLOAD PUSH1 0x1 PUSH1 0x1 PUSH1 0x40 SHL SUB DUP2 GT ISZERO PUSH2 0x4A4 JUMPI PUSH2 0x4A4 PUSH2 0x2268 JUMP JUMPDEST PUSH1 0x40 MLOAD SWAP1 DUP1 DUP3 MSTORE DUP1 PUSH1 0x20 MUL PUSH1 0x20 ADD DUP3 ADD PUSH1 0x40 MSTORE DUP1 ISZERO PUSH2 0x4DD JUMPI DUP2 PUSH1 0x20 ADD JUMPDEST PUSH2 0x4CA PUSH2 0x218D JUMP JUMPDEST DUP2 MSTORE PUSH1 0x20 ADD SWAP1 PUSH1 0x1 SWAP1 SUB SWAP1 DUP2 PUSH2 0x4C2 JUMPI SWAP1 POP JUMPDEST POP SWAP1 POP PUSH1 0x0 DUP1 JUMPDEST DUP5 MLOAD DUP2 LT ISZERO PUSH2 0x5A4 JUMPI PUSH1 0x0 PUSH2 0x511 DUP7 DUP4 DUP2 MLOAD DUP2 LT PUSH2 0x504 JUMPI PUSH2 0x504 PUSH2 0x2E72 JUMP JUMPDEST PUSH1 0x20 MUL PUSH1 0x20 ADD ADD MLOAD PUSH2 0xAF8 JUMP JUMPDEST SWAP1 POP PUSH1 0x0 PUSH2 0x523 DUP7 DUP4 PUSH1 0x0 ADD MLOAD PUSH2 0xA29 JUMP JUMPDEST SWAP1 POP DUP2 PUSH1 0x40 ADD MLOAD DUP2 LT PUSH2 0x537 JUMPI POP POP PUSH2 0x592 JUMP JUMPDEST DUP1 DUP3 PUSH1 0x40 ADD DUP2 DUP2 MLOAD PUSH2 0x549 SWAP2 SWAP1 PUSH2 0x2E9E JUMP JUMPDEST SWAP1 MSTORE POP PUSH1 0x60 DUP3 ADD MLOAD PUSH1 0x40 DUP4 ADD MLOAD LT ISZERO PUSH2 0x563 JUMPI POP POP PUSH2 0x592 JUMP JUMPDEST DUP2 DUP6 DUP6 DUP2 MLOAD DUP2 LT PUSH2 0x576 JUMPI PUSH2 0x576 PUSH2 0x2E72 JUMP JUMPDEST PUSH1 0x20 MUL PUSH1 0x20 ADD ADD DUP2 SWAP1 MSTORE POP DUP4 DUP1 PUSH2 0x58C SWAP1 PUSH2 0x2EB5 JUMP JUMPDEST SWAP5 POP POP POP POP JUMPDEST DUP1 PUSH2 0x59C DUP2 PUSH2 0x2EB5 JUMP JUMPDEST SWAP2 POP POP PUSH2 0x4E4 JUMP JUMPDEST POP DUP2 MSTORE SWAP3 SWAP2 POP POP JUMP JUMPDEST PUSH1 0x0 PUSH2 0x5BA DUP3 DUP4 MLOAD PUSH2 0xB3C JUMP JUMPDEST SWAP3 SWAP2 POP POP JUMP JUMPDEST PUSH2 0x5C8 PUSH2 0x21C6 JUMP JUMPDEST POP PUSH1 0x40 DUP1 MLOAD PUSH1 0x2 DUP1 DUP3 MSTORE PUSH1 0x60 DUP3 ADD DUP4 MSTORE DUP6 SWAP3 PUSH1 0x20 DUP4 ADD SWAP1 DUP1 CALLDATASIZE DUP4 CALLDATACOPY POP POP POP DUP1 DUP3 MSTORE DUP1 MLOAD DUP5 SWAP2 SWAP1 PUSH1 0x0 SWAP1 PUSH2 0x5FD JUMPI PUSH2 0x5FD PUSH2 0x2E72 JUMP JUMPDEST PUSH1 0x20 MUL PUSH1 0x20 ADD ADD DUP2 DUP2 MSTORE POP POP DUP2 DUP2 PUSH1 0x0 ADD MLOAD PUSH1 0x1 DUP2 MLOAD DUP2 LT PUSH2 0x621 JUMPI PUSH2 0x621 PUSH2 0x2E72 JUMP JUMPDEST PUSH1 0x20 MUL PUSH1 0x20 ADD ADD DUP2 DUP2 MSTORE POP POP SWAP4 SWAP3 POP POP POP JUMP JUMPDEST PUSH1 0x0 PUSH2 0x65A PUSH1 0x40 MLOAD DUP1 PUSH1 0x60 ADD PUSH1 0x40 MSTORE DUP1 PUSH1 0x0 DUP2 MSTORE PUSH1 0x20 ADD PUSH1 0x0 DUP2 MSTORE PUSH1 0x20 ADD PUSH1 0x0 DUP2 MSTORE POP SWAP1 JUMP JUMPDEST PUSH1 0x0 JUMPDEST DUP4 DUP2 LT ISZERO PUSH2 0x7C6 JUMPI DUP2 MLOAD ISZERO DUP1 PUSH2 0x693 JUMPI POP DUP5 DUP2 DUP2 MLOAD DUP2 LT PUSH2 0x680 JUMPI PUSH2 0x680 PUSH2 0x2E72 JUMP JUMPDEST PUSH1 0x20 MUL PUSH1 0x20 ADD ADD MLOAD PUSH1 0x80 ADD MLOAD DUP3 PUSH1 0x0 ADD MLOAD GT JUMPDEST ISZERO PUSH2 0x6BC JUMPI DUP5 DUP2 DUP2 MLOAD DUP2 LT PUSH2 0x6AA JUMPI PUSH2 0x6AA PUSH2 0x2E72 JUMP JUMPDEST PUSH1 0x20 SWAP1 DUP2 MUL SWAP2 SWAP1 SWAP2 ADD ADD MLOAD PUSH1 0x80 ADD MLOAD DUP3 MSTORE JUMPDEST PUSH1 0x40 DUP3 ADD MLOAD ISZERO DUP1 PUSH2 0x6ED JUMPI POP DUP5 DUP2 DUP2 MLOAD DUP2 LT PUSH2 0x6DA JUMPI PUSH2 0x6DA PUSH2 0x2E72 JUMP JUMPDEST PUSH1 0x20 MUL PUSH1 0x20 ADD ADD MLOAD PUSH1 0x80 ADD MLOAD DUP3 PUSH1 0x40 ADD MLOAD LT JUMPDEST ISZERO PUSH2 0x71A JUMPI DUP5 DUP2 DUP2 MLOAD DUP2 LT PUSH2 0x704 JUMPI PUSH2 0x704 PUSH2 0x2E72 JUMP JUMPDEST PUSH1 0x20 MUL PUSH1 0x20 ADD ADD MLOAD PUSH1 0x80 ADD MLOAD DUP3 PUSH1 0x40 ADD DUP2 DUP2 MSTORE POP POP JUMPDEST PUSH8 0xDE0B6B3A7640000 DUP6 DUP3 DUP2 MLOAD DUP2 LT PUSH2 0x735 JUMPI PUSH2 0x735 PUSH2 0x2E72 JUMP JUMPDEST PUSH1 0x20 MUL PUSH1 0x20 ADD ADD MLOAD PUSH1 0x80 ADD MLOAD DUP7 DUP4 DUP2 MLOAD DUP2 LT PUSH2 0x753 JUMPI PUSH2 0x753 PUSH2 0x2E72 JUMP JUMPDEST PUSH1 0x20 MUL PUSH1 0x20 ADD ADD MLOAD PUSH1 0x40 ADD MLOAD PUSH2 0x769 SWAP2 SWAP1 PUSH2 0x2ED0 JUMP JUMPDEST PUSH2 0x773 SWAP2 SWAP1 PUSH2 0x2EEF JUMP JUMPDEST DUP3 PUSH1 0x20 ADD DUP2 DUP2 MLOAD PUSH2 0x784 SWAP2 SWAP1 PUSH2 0x2F11 JUMP JUMPDEST SWAP1 MSTORE POP DUP5 MLOAD DUP6 SWAP1 DUP3 SWAP1 DUP2 LT PUSH2 0x79B JUMPI PUSH2 0x79B PUSH2 0x2E72 JUMP JUMPDEST PUSH1 0x20 MUL PUSH1 0x20 ADD ADD MLOAD PUSH1 0x40 ADD MLOAD DUP4 PUSH2 0x7B2 SWAP2 SWAP1 PUSH2 0x2F11 JUMP JUMPDEST SWAP3 POP DUP1 PUSH2 0x7BE DUP2 PUSH2 0x2EB5 JUMP JUMPDEST SWAP2 POP POP PUSH2 0x65D JUMP JUMPDEST POP DUP2 PUSH2 0x7D3 JUMPI PUSH1 0x0 PUSH2 0x7F6 JUMP JUMPDEST DUP2 DUP2 PUSH1 0x20 ADD MLOAD PUSH8 0xDE0B6B3A7640000 PUSH2 0x7EC SWAP2 SWAP1 PUSH2 0x2ED0 JUMP JUMPDEST PUSH2 0x7F6 SWAP2 SWAP1 PUSH2 0x2EEF JUMP JUMPDEST PUSH1 0x20 DUP3 ADD MSTORE SWAP1 SWAP4 SWAP1 SWAP3 POP SWAP1 POP JUMP JUMPDEST PUSH1 0x0 PUSH2 0x5BA DUP3 DUP4 MLOAD PUSH2 0x1AAC JUMP JUMPDEST PUSH2 0x819 PUSH2 0x21C6 JUMP JUMPDEST PUSH1 0x20 DUP1 DUP7 ADD MLOAD SWAP1 DUP3 ADD MSTORE PUSH1 0x40 DUP1 DUP7 ADD MLOAD SWAP1 DUP3 ADD MSTORE DUP5 MLOAD MLOAD PUSH1 0x60 SWAP1 PUSH2 0x83E SWAP1 PUSH1 0x1 PUSH2 0x2F11 JUMP JUMPDEST PUSH1 0x1 PUSH1 0x1 PUSH1 0x40 SHL SUB DUP2 GT ISZERO PUSH2 0x855 JUMPI PUSH2 0x855 PUSH2 0x2268 JUMP JUMPDEST PUSH1 0x40 MLOAD SWAP1 DUP1 DUP3 MSTORE DUP1 PUSH1 0x20 MUL PUSH1 0x20 ADD DUP3 ADD PUSH1 0x40 MSTORE DUP1 ISZERO PUSH2 0x87E JUMPI DUP2 PUSH1 0x20 ADD PUSH1 0x20 DUP3 MUL DUP1 CALLDATASIZE DUP4 CALLDATACOPY ADD SWAP1 POP JUMPDEST POP DUP3 MSTORE PUSH1 0x0 JUMPDEST DUP7 MLOAD MLOAD DUP2 LT ISZERO PUSH2 0x8E9 JUMPI DUP7 MLOAD DUP1 MLOAD DUP3 SWAP1 DUP2 LT PUSH2 0x8A2 JUMPI PUSH2 0x8A2 PUSH2 0x2E72 JUMP JUMPDEST PUSH1 0x20 MUL PUSH1 0x20 ADD ADD MLOAD DUP4 PUSH1 0x0 ADD MLOAD DUP3 PUSH1 0x1 PUSH2 0x8BC SWAP2 SWAP1 PUSH2 0x2F11 JUMP JUMPDEST DUP2 MLOAD DUP2 LT PUSH2 0x8CC JUMPI PUSH2 0x8CC PUSH2 0x2E72 JUMP JUMPDEST PUSH1 0x20 SWAP1 DUP2 MUL SWAP2 SWAP1 SWAP2 ADD ADD MSTORE DUP1 PUSH2 0x8E1 DUP2 PUSH2 0x2EB5 JUMP JUMPDEST SWAP2 POP POP PUSH2 0x884 JUMP JUMPDEST POP DUP4 DUP3 PUSH1 0x0 ADD MLOAD PUSH1 0x0 DUP2 MLOAD DUP2 LT PUSH2 0x902 JUMPI PUSH2 0x902 PUSH2 0x2E72 JUMP JUMPDEST PUSH1 0x20 SWAP1 DUP2 MUL SWAP2 SWAP1 SWAP2 ADD ADD MSTORE PUSH1 0xA0 DUP7 ADD MLOAD MLOAD PUSH2 0x91E SWAP1 PUSH1 0x1 PUSH2 0x2F11 JUMP JUMPDEST PUSH1 0x1 PUSH1 0x1 PUSH1 0x40 SHL SUB DUP2 GT ISZERO PUSH2 0x935 JUMPI PUSH2 0x935 PUSH2 0x2268 JUMP JUMPDEST PUSH1 0x40 MLOAD SWAP1 DUP1 DUP3 MSTORE DUP1 PUSH1 0x20 MUL PUSH1 0x20 ADD DUP3 ADD PUSH1 0x40 MSTORE DUP1 ISZERO PUSH2 0x95E JUMPI DUP2 PUSH1 0x20 ADD PUSH1 0x20 DUP3 MUL DUP1 CALLDATASIZE DUP4 CALLDATACOPY ADD SWAP1 POP JUMPDEST POP PUSH1 0xA0 DUP4 ADD MSTORE PUSH1 0x0 JUMPDEST DUP7 PUSH1 0xA0 ADD MLOAD MLOAD DUP2 LT ISZERO PUSH2 0x9DB JUMPI DUP4 MLOAD DUP8 PUSH1 0xA0 ADD MLOAD DUP3 DUP2 MLOAD DUP2 LT PUSH2 0x98C JUMPI PUSH2 0x98C PUSH2 0x2E72 JUMP JUMPDEST PUSH1 0x20 MUL PUSH1 0x20 ADD ADD MLOAD PUSH2 0x99E SWAP2 SWAP1 PUSH2 0x2F11 JUMP JUMPDEST PUSH1 0xA0 DUP5 ADD MLOAD PUSH2 0x9AE DUP4 PUSH1 0x1 PUSH2 0x2F11 JUMP JUMPDEST DUP2 MLOAD DUP2 LT PUSH2 0x9BE JUMPI PUSH2 0x9BE PUSH2 0x2E72 JUMP JUMPDEST PUSH1 0x20 SWAP1 DUP2 MUL SWAP2 SWAP1 SWAP2 ADD ADD MSTORE DUP1 PUSH2 0x9D3 DUP2 PUSH2 0x2EB5 JUMP JUMPDEST SWAP2 POP POP PUSH2 0x967 JUMP JUMPDEST POP DUP3 MLOAD DUP3 PUSH1 0xA0 ADD MLOAD PUSH1 0x0 DUP2 MLOAD DUP2 LT PUSH2 0x9F5 JUMPI PUSH2 0x9F5 PUSH2 0x2E72 JUMP JUMPDEST PUSH1 0x20 MUL PUSH1 0x20 ADD ADD DUP2 DUP2 MSTORE POP POP DUP5 MLOAD DUP4 MLOAD PUSH2 0xA0F SWAP2 SWAP1 PUSH2 0x2F11 JUMP JUMPDEST PUSH1 0x80 DUP4 ADD MSTORE PUSH2 0xA1E DUP4 DUP7 PUSH2 0x1EC4 JUMP JUMPDEST SWAP1 POP SWAP5 POP SWAP5 SWAP3 POP POP POP JUMP JUMPDEST PUSH1 0x0 DUP1 JUMPDEST DUP4 MLOAD DUP2 LT ISZERO PUSH2 0xA99 JUMPI DUP3 DUP5 DUP3 DUP2 MLOAD DUP2 LT PUSH2 0xA49 JUMPI PUSH2 0xA49 PUSH2 0x2E72 JUMP JUMPDEST PUSH1 0x20 MUL PUSH1 0x20 ADD ADD MLOAD PUSH1 0x0 ADD MLOAD EQ ISZERO PUSH2 0xA87 JUMPI DUP4 DUP2 DUP2 MLOAD DUP2 LT PUSH2 0xA6D JUMPI PUSH2 0xA6D PUSH2 0x2E72 JUMP JUMPDEST PUSH1 0x20 MUL PUSH1 0x20 ADD ADD MLOAD PUSH1 0x40 ADD MLOAD DUP3 PUSH2 0xA84 SWAP2 SWAP1 PUSH2 0x2F11 JUMP JUMPDEST SWAP2 POP JUMPDEST DUP1 PUSH2 0xA91 DUP2 PUSH2 0x2EB5 JUMP JUMPDEST SWAP2 POP POP PUSH2 0xA2D JUMP JUMPDEST POP SWAP3 SWAP2 POP POP JUMP JUMPDEST PUSH1 0x60 PUSH2 0x5BA DUP3 PUSH1 0x0 DUP5 MLOAD PUSH2 0x1E15 JUMP JUMPDEST PUSH1 0x0 DUP1 JUMPDEST DUP3 DUP2 LT ISZERO PUSH2 0xA99 JUMPI DUP4 DUP2 DUP2 MLOAD DUP2 LT PUSH2 0xACD JUMPI PUSH2 0xACD PUSH2 0x2E72 JUMP JUMPDEST PUSH1 0x20 MUL PUSH1 0x20 ADD ADD MLOAD PUSH1 0x40 ADD MLOAD DUP3 PUSH2 0xAE4 SWAP2 SWAP1 PUSH2 0x2F11 JUMP JUMPDEST SWAP2 POP DUP1 PUSH2 0xAF0 DUP2 PUSH2 0x2EB5 JUMP JUMPDEST SWAP2 POP POP PUSH2 0xAB3 JUMP JUMPDEST PUSH2 0xB00 PUSH2 0x218D JUMP JUMPDEST DUP2 MLOAD DUP2 MSTORE PUSH1 0x20 DUP1 DUP4 ADD MLOAD SWAP1 DUP3 ADD MSTORE PUSH1 0x40 DUP1 DUP4 ADD MLOAD SWAP1 DUP3 ADD MSTORE PUSH1 0x60 DUP1 DUP4 ADD MLOAD SWAP1 DUP3 ADD MSTORE PUSH1 0x80 DUP1 DUP4 ADD MLOAD SWAP1 DUP3 ADD MSTORE PUSH1 0xA0 SWAP2 DUP3 ADD MLOAD SWAP2 DUP2 ADD SWAP2 SWAP1 SWAP2 MSTORE SWAP1 JUMP JUMPDEST PUSH1 0x0 DUP1 JUMPDEST DUP3 DUP2 LT ISZERO PUSH2 0xB8A JUMPI PUSH1 0x0 DUP5 DUP3 DUP2 MLOAD DUP2 LT PUSH2 0xB5C JUMPI PUSH2 0xB5C PUSH2 0x2E72 JUMP JUMPDEST PUSH1 0x20 MUL PUSH1 0x20 ADD ADD MLOAD PUSH1 0x40 ADD MLOAD GT ISZERO PUSH2 0xB78 JUMPI PUSH1 0x1 SWAP2 POP POP PUSH2 0x5BA JUMP JUMPDEST DUP1 PUSH2 0xB82 DUP2 PUSH2 0x2EB5 JUMP JUMPDEST SWAP2 POP POP PUSH2 0xB40 JUMP JUMPDEST POP PUSH1 0x0 SWAP4 SWAP3 POP POP POP JUMP JUMPDEST PUSH1 0xA0 DUP3 ADD MLOAD MLOAD DUP4 SWAP1 DUP1 PUSH2 0xBA7 JUMPI POP PUSH2 0xD4E JUMP JUMPDEST DUP3 MLOAD PUSH1 0x0 SWAP1 DUP2 JUMPDEST PUSH2 0xBB9 DUP5 PUSH1 0x1 PUSH2 0x2F11 JUMP JUMPDEST DUP2 LT ISZERO PUSH2 0xD49 JUMPI PUSH1 0x0 DUP5 DUP3 EQ ISZERO PUSH2 0xBD2 JUMPI POP PUSH1 0x0 PUSH2 0xC08 JUMP JUMPDEST PUSH1 0xA0 DUP9 ADD MLOAD DUP3 PUSH2 0xBE3 PUSH1 0x1 DUP9 PUSH2 0x2E9E JUMP JUMPDEST PUSH2 0xBED SWAP2 SWAP1 PUSH2 0x2E9E JUMP JUMPDEST DUP2 MLOAD DUP2 LT PUSH2 0xBFD JUMPI PUSH2 0xBFD PUSH2 0x2E72 JUMP JUMPDEST PUSH1 0x20 MUL PUSH1 0x20 ADD ADD MLOAD SWAP1 POP JUMPDEST PUSH1 0x0 DUP1 DUP3 JUMPDEST DUP6 DUP2 LT ISZERO PUSH2 0xCB7 JUMPI DUP10 DUP2 DUP2 MLOAD DUP2 LT PUSH2 0xC27 JUMPI PUSH2 0xC27 PUSH2 0x2E72 JUMP JUMPDEST PUSH1 0x20 MUL PUSH1 0x20 ADD ADD MLOAD PUSH1 0x40 ADD MLOAD DUP3 PUSH2 0xC3E SWAP2 SWAP1 PUSH2 0x2F11 JUMP JUMPDEST SWAP2 POP PUSH8 0xDE0B6B3A7640000 DUP11 DUP3 DUP2 MLOAD DUP2 LT PUSH2 0xC5B JUMPI PUSH2 0xC5B PUSH2 0x2E72 JUMP JUMPDEST PUSH1 0x20 MUL PUSH1 0x20 ADD ADD MLOAD PUSH1 0x80 ADD MLOAD DUP12 DUP4 DUP2 MLOAD DUP2 LT PUSH2 0xC79 JUMPI PUSH2 0xC79 PUSH2 0x2E72 JUMP JUMPDEST PUSH1 0x20 MUL PUSH1 0x20 ADD ADD MLOAD PUSH1 0x40 ADD MLOAD PUSH2 0xC8F SWAP2 SWAP1 PUSH2 0x2ED0 JUMP JUMPDEST PUSH2 0xC99 SWAP2 SWAP1 PUSH2 0x2EEF JUMP JUMPDEST PUSH2 0xCA3 SWAP1 DUP5 PUSH2 0x2F11 JUMP JUMPDEST SWAP3 POP DUP1 PUSH2 0xCAF DUP2 PUSH2 0x2EB5 JUMP JUMPDEST SWAP2 POP POP PUSH2 0xC0D JUMP JUMPDEST POP DUP4 ISZERO PUSH2 0xD32 JUMPI DUP10 MLOAD DUP1 MLOAD PUSH1 0x0 SWAP2 SWAP1 DUP7 SWAP1 PUSH2 0xCD4 SWAP1 PUSH1 0x1 SWAP1 PUSH2 0x2E9E JUMP JUMPDEST PUSH2 0xCDE SWAP2 SWAP1 PUSH2 0x2E9E JUMP JUMPDEST DUP2 MLOAD DUP2 LT PUSH2 0xCEE JUMPI PUSH2 0xCEE PUSH2 0x2E72 JUMP JUMPDEST PUSH1 0x20 MUL PUSH1 0x20 ADD ADD MLOAD SWAP1 POP DUP7 DUP3 GT ISZERO PUSH2 0xD16 JUMPI PUSH2 0xD0F DUP10 DUP3 PUSH2 0x412 DUP11 DUP7 PUSH2 0x2E9E JUMP JUMPDEST SWAP9 POP PUSH2 0xD30 JUMP JUMPDEST DUP7 DUP3 LT ISZERO PUSH2 0xD30 JUMPI PUSH2 0xD2D DUP10 DUP3 PUSH2 0x3C6 DUP6 DUP12 PUSH2 0x2E9E JUMP JUMPDEST SWAP9 POP JUMPDEST POP JUMPDEST POP SWAP4 POP SWAP2 POP DUP1 PUSH2 0xD41 DUP2 PUSH2 0x2EB5 JUMP JUMPDEST SWAP2 POP POP PUSH2 0xBAE JUMP JUMPDEST POP POP POP POP JUMPDEST SWAP4 SWAP3 POP POP POP JUMP JUMPDEST PUSH1 0x0 PUSH2 0xD7B PUSH1 0x40 MLOAD DUP1 PUSH1 0x60 ADD PUSH1 0x40 MSTORE DUP1 PUSH1 0x0 DUP2 MSTORE PUSH1 0x20 ADD PUSH1 0x0 DUP2 MSTORE PUSH1 0x20 ADD PUSH1 0x0 DUP2 MSTORE POP SWAP1 JUMP JUMPDEST PUSH2 0xD86 DUP4 DUP5 MLOAD PUSH2 0x634 JUMP JUMPDEST SWAP2 POP SWAP2 POP SWAP2 POP SWAP2 JUMP JUMPDEST PUSH2 0xD97 PUSH2 0x221E JUMP JUMPDEST DUP4 MLOAD DUP2 MSTORE PUSH1 0x20 DUP1 DUP6 ADD MLOAD SWAP1 DUP3 ADD MSTORE PUSH1 0x80 DUP4 ADD MLOAD PUSH1 0x60 DUP6 ADD MLOAD MLOAD PUSH2 0xDBA SWAP2 SWAP1 PUSH2 0x2F11 JUMP JUMPDEST PUSH1 0x1 PUSH1 0x1 PUSH1 0x40 SHL SUB DUP2 GT ISZERO PUSH2 0xDD1 JUMPI PUSH2 0xDD1 PUSH2 0x2268 JUMP JUMPDEST PUSH1 0x40 MLOAD SWAP1 DUP1 DUP3 MSTORE DUP1 PUSH1 0x20 MUL PUSH1 0x20 ADD DUP3 ADD PUSH1 0x40 MSTORE DUP1 ISZERO PUSH2 0xE0A JUMPI DUP2 PUSH1 0x20 ADD JUMPDEST PUSH2 0xDF7 PUSH2 0x218D JUMP JUMPDEST DUP2 MSTORE PUSH1 0x20 ADD SWAP1 PUSH1 0x1 SWAP1 SUB SWAP1 DUP2 PUSH2 0xDEF JUMPI SWAP1 POP JUMPDEST POP PUSH1 0x60 DUP3 ADD MSTORE PUSH1 0x0 JUMPDEST DUP5 PUSH1 0x60 ADD MLOAD MLOAD DUP2 LT ISZERO PUSH2 0xE72 JUMPI DUP5 PUSH1 0x60 ADD MLOAD DUP2 DUP2 MLOAD DUP2 LT PUSH2 0xE36 JUMPI PUSH2 0xE36 PUSH2 0x2E72 JUMP JUMPDEST PUSH1 0x20 MUL PUSH1 0x20 ADD ADD MLOAD DUP3 PUSH1 0x60 ADD MLOAD DUP3 DUP2 MLOAD DUP2 LT PUSH2 0xE54 JUMPI PUSH2 0xE54 PUSH2 0x2E72 JUMP JUMPDEST PUSH1 0x20 MUL PUSH1 0x20 ADD ADD DUP2 SWAP1 MSTORE POP DUP1 DUP1 PUSH2 0xE6A SWAP1 PUSH2 0x2EB5 JUMP JUMPDEST SWAP2 POP POP PUSH2 0xE13 JUMP JUMPDEST POP PUSH1 0x0 JUMPDEST DUP4 PUSH1 0x80 ADD MLOAD DUP2 LT ISZERO PUSH2 0xEEF JUMPI DUP3 DUP2 DUP6 PUSH1 0x60 ADD MLOAD PUSH2 0xE93 SWAP2 SWAP1 PUSH2 0x2F11 JUMP JUMPDEST DUP2 MLOAD DUP2 LT PUSH2 0xEA3 JUMPI PUSH2 0xEA3 PUSH2 0x2E72 JUMP JUMPDEST PUSH1 0x20 MUL PUSH1 0x20 ADD ADD MLOAD DUP3 PUSH1 0x60 ADD MLOAD DUP3 DUP8 PUSH1 0x60 ADD MLOAD MLOAD PUSH2 0xEC1 SWAP2 SWAP1 PUSH2 0x2F11 JUMP JUMPDEST DUP2 MLOAD DUP2 LT PUSH2 0xED1 JUMPI PUSH2 0xED1 PUSH2 0x2E72 JUMP JUMPDEST PUSH1 0x20 MUL PUSH1 0x20 ADD ADD DUP2 SWAP1 MSTORE POP DUP1 DUP1 PUSH2 0xEE7 SWAP1 PUSH2 0x2EB5 JUMP JUMPDEST SWAP2 POP POP PUSH2 0xE76 JUMP JUMPDEST POP PUSH1 0x40 DUP5 ADD MLOAD MLOAD PUSH2 0xF01 SWAP1 PUSH1 0x1 PUSH2 0x2F11 JUMP JUMPDEST PUSH1 0x1 PUSH1 0x1 PUSH1 0x40 SHL SUB DUP2 GT ISZERO PUSH2 0xF18 JUMPI PUSH2 0xF18 PUSH2 0x2268 JUMP JUMPDEST PUSH1 0x40 MLOAD SWAP1 DUP1 DUP3 MSTORE DUP1 PUSH1 0x20 MUL PUSH1 0x20 ADD DUP3 ADD PUSH1 0x40 MSTORE DUP1 ISZERO PUSH2 0xF51 JUMPI DUP2 PUSH1 0x20 ADD JUMPDEST PUSH2 0xF3E PUSH2 0x21C6 JUMP JUMPDEST DUP2 MSTORE PUSH1 0x20 ADD SWAP1 PUSH1 0x1 SWAP1 SUB SWAP1 DUP2 PUSH2 0xF36 JUMPI SWAP1 POP JUMPDEST POP PUSH1 0x40 DUP3 ADD MSTORE PUSH1 0x0 JUMPDEST DUP5 PUSH1 0x40 ADD MLOAD MLOAD DUP2 LT ISZERO PUSH2 0xFB9 JUMPI DUP5 PUSH1 0x40 ADD MLOAD DUP2 DUP2 MLOAD DUP2 LT PUSH2 0xF7D JUMPI PUSH2 0xF7D PUSH2 0x2E72 JUMP JUMPDEST PUSH1 0x20 MUL PUSH1 0x20 ADD ADD MLOAD DUP3 PUSH1 0x40 ADD MLOAD DUP3 DUP2 MLOAD DUP2 LT PUSH2 0xF9B JUMPI PUSH2 0xF9B PUSH2 0x2E72 JUMP JUMPDEST PUSH1 0x20 MUL PUSH1 0x20 ADD ADD DUP2 SWAP1 MSTORE POP DUP1 DUP1 PUSH2 0xFB1 SWAP1 PUSH2 0x2EB5 JUMP JUMPDEST SWAP2 POP POP PUSH2 0xF5A JUMP JUMPDEST POP DUP3 DUP2 PUSH1 0x40 ADD MLOAD DUP6 PUSH1 0x40 ADD MLOAD MLOAD DUP2 MLOAD DUP2 LT PUSH2 0xFD6 JUMPI PUSH2 0xFD6 PUSH2 0x2E72 JUMP JUMPDEST PUSH1 0x20 MUL PUSH1 0x20 ADD ADD DUP2 SWAP1 MSTORE POP DUP4 PUSH1 0x60 ADD MLOAD MLOAD DUP2 PUSH1 0x40 ADD MLOAD DUP6 PUSH1 0x40 ADD MLOAD MLOAD DUP2 MLOAD DUP2 LT PUSH2 0x1002 JUMPI PUSH2 0x1002 PUSH2 0x2E72 JUMP JUMPDEST PUSH1 0x20 SWAP1 DUP2 MUL SWAP2 SWAP1 SWAP2 ADD ADD MLOAD PUSH1 0x60 ADD MSTORE PUSH1 0x40 DUP5 ADD MLOAD MLOAD ISZERO PUSH2 0x1043 JUMPI PUSH1 0x40 DUP4 ADD MLOAD MLOAD PUSH1 0x20 DUP3 ADD MLOAD MLOAD GT PUSH2 0x1038 JUMPI PUSH1 0x20 DUP2 ADD MLOAD MLOAD PUSH2 0x104A JUMP JUMPDEST PUSH1 0x40 DUP4 ADD MLOAD MLOAD PUSH2 0x104A JUMP JUMPDEST PUSH1 0x40 DUP4 ADD MLOAD MLOAD JUMPDEST PUSH1 0x20 DUP3 ADD DUP1 MLOAD SWAP2 SWAP1 SWAP2 MSTORE PUSH1 0x40 DUP1 DUP6 ADD MLOAD DUP2 ADD MLOAD SWAP2 MLOAD ADD MLOAD LT PUSH2 0x1074 JUMPI DUP1 PUSH1 0x20 ADD MLOAD PUSH1 0x40 ADD MLOAD PUSH2 0x107E JUMP JUMPDEST DUP3 PUSH1 0x40 ADD MLOAD PUSH1 0x40 ADD MLOAD JUMPDEST PUSH1 0x20 DUP1 DUP4 ADD MLOAD PUSH1 0x40 ADD SWAP2 SWAP1 SWAP2 MSTORE DUP4 ADD MLOAD DUP2 MLOAD PUSH2 0x109A SWAP2 SWAP1 PUSH2 0x2F11 JUMP JUMPDEST PUSH2 0x10A5 JUMPI PUSH1 0x0 PUSH2 0x10F6 JUMP JUMPDEST PUSH1 0x20 DUP4 ADD MLOAD DUP2 MLOAD PUSH2 0x10B6 SWAP2 SWAP1 PUSH2 0x2F11 JUMP JUMPDEST DUP4 PUSH1 0x20 ADD MLOAD DUP5 PUSH1 0x40 ADD MLOAD PUSH1 0x20 ADD MLOAD PUSH2 0x10CE SWAP2 SWAP1 PUSH2 0x2ED0 JUMP JUMPDEST DUP3 MLOAD PUSH1 0x20 DUP1 DUP6 ADD MLOAD ADD MLOAD PUSH2 0x10E2 SWAP2 SWAP1 PUSH2 0x2ED0 JUMP JUMPDEST PUSH2 0x10EC SWAP2 SWAP1 PUSH2 0x2F11 JUMP JUMPDEST PUSH2 0x10F6 SWAP2 SWAP1 PUSH2 0x2EEF JUMP JUMPDEST PUSH1 0x20 DUP1 DUP4 ADD MLOAD DUP2 ADD SWAP2 SWAP1 SWAP2 MSTORE DUP4 ADD MLOAD DUP2 MLOAD DUP3 SWAP1 PUSH2 0x1114 SWAP1 DUP4 SWAP1 PUSH2 0x2F11 JUMP JUMPDEST SWAP1 MSTORE POP SWAP4 SWAP3 POP POP POP JUMP JUMPDEST PUSH1 0x60 DUP2 MLOAD PUSH1 0x1 PUSH1 0x1 PUSH1 0x40 SHL SUB DUP2 GT ISZERO PUSH2 0x1139 JUMPI PUSH2 0x1139 PUSH2 0x2268 JUMP JUMPDEST PUSH1 0x40 MLOAD SWAP1 DUP1 DUP3 MSTORE DUP1 PUSH1 0x20 MUL PUSH1 0x20 ADD DUP3 ADD PUSH1 0x40 MSTORE DUP1 ISZERO PUSH2 0x1172 JUMPI DUP2 PUSH1 0x20 ADD JUMPDEST PUSH2 0x115F PUSH2 0x218D JUMP JUMPDEST DUP2 MSTORE PUSH1 0x20 ADD SWAP1 PUSH1 0x1 SWAP1 SUB SWAP1 DUP2 PUSH2 0x1157 JUMPI SWAP1 POP JUMPDEST POP SWAP1 POP PUSH1 0x0 DUP1 JUMPDEST DUP4 MLOAD DUP2 LT ISZERO PUSH2 0x135E JUMPI PUSH1 0x0 DUP5 DUP3 DUP2 MLOAD DUP2 LT PUSH2 0x1196 JUMPI PUSH2 0x1196 PUSH2 0x2E72 JUMP JUMPDEST PUSH1 0x20 MUL PUSH1 0x20 ADD ADD MLOAD SWAP1 POP PUSH1 0x0 JUMPDEST DUP4 DUP2 PUSH4 0xFFFFFFFF AND LT ISZERO PUSH2 0x12B3 JUMPI DUP2 PUSH1 0x60 ADD MLOAD DUP6 DUP3 PUSH4 0xFFFFFFFF AND DUP2 MLOAD DUP2 LT PUSH2 0x11CE JUMPI PUSH2 0x11CE PUSH2 0x2E72 JUMP JUMPDEST PUSH1 0x20 MUL PUSH1 0x20 ADD ADD MLOAD PUSH1 0x60 ADD MLOAD LT DUP1 PUSH2 0x123D JUMPI POP DUP2 PUSH1 0x60 ADD MLOAD DUP6 DUP3 PUSH4 0xFFFFFFFF AND DUP2 MLOAD DUP2 LT PUSH2 0x11FE JUMPI PUSH2 0x11FE PUSH2 0x2E72 JUMP JUMPDEST PUSH1 0x20 MUL PUSH1 0x20 ADD ADD MLOAD PUSH1 0x60 ADD MLOAD EQ DUP1 ISZERO PUSH2 0x123D JUMPI POP DUP2 PUSH1 0x80 ADD MLOAD DUP6 DUP3 PUSH4 0xFFFFFFFF AND DUP2 MLOAD DUP2 LT PUSH2 0x122F JUMPI PUSH2 0x122F PUSH2 0x2E72 JUMP JUMPDEST PUSH1 0x20 MUL PUSH1 0x20 ADD ADD MLOAD PUSH1 0x80 ADD MLOAD GT JUMPDEST ISZERO PUSH2 0x12A1 JUMPI PUSH1 0x0 DUP6 DUP3 PUSH4 0xFFFFFFFF AND DUP2 MLOAD DUP2 LT PUSH2 0x125C JUMPI PUSH2 0x125C PUSH2 0x2E72 JUMP JUMPDEST PUSH1 0x20 MUL PUSH1 0x20 ADD ADD MLOAD SWAP1 POP DUP3 DUP7 DUP4 PUSH4 0xFFFFFFFF AND DUP2 MLOAD DUP2 LT PUSH2 0x127F JUMPI PUSH2 0x127F PUSH2 0x2E72 JUMP JUMPDEST PUSH1 0x20 MUL PUSH1 0x20 ADD ADD DUP2 SWAP1 MSTORE POP DUP1 SWAP3 POP DUP2 DUP1 PUSH2 0x1298 SWAP1 PUSH2 0x2F29 JUMP JUMPDEST SWAP3 POP POP POP PUSH2 0x12B3 JUMP JUMPDEST DUP1 PUSH2 0x12AB DUP2 PUSH2 0x2F29 JUMP JUMPDEST SWAP2 POP POP PUSH2 0x11A3 JUMP JUMPDEST DUP4 DUP2 PUSH4 0xFFFFFFFF AND LT ISZERO PUSH2 0x131D JUMPI PUSH1 0x0 DUP6 DUP3 PUSH4 0xFFFFFFFF AND DUP2 MLOAD DUP2 LT PUSH2 0x12DB JUMPI PUSH2 0x12DB PUSH2 0x2E72 JUMP JUMPDEST PUSH1 0x20 MUL PUSH1 0x20 ADD ADD MLOAD SWAP1 POP DUP3 DUP7 DUP4 PUSH4 0xFFFFFFFF AND DUP2 MLOAD DUP2 LT PUSH2 0x12FE JUMPI PUSH2 0x12FE PUSH2 0x2E72 JUMP JUMPDEST PUSH1 0x20 SWAP1 DUP2 MUL SWAP2 SWAP1 SWAP2 ADD ADD MSTORE SWAP2 POP DUP1 PUSH2 0x1315 DUP2 PUSH2 0x2F29 JUMP JUMPDEST SWAP2 POP POP PUSH2 0x12B3 JUMP JUMPDEST DUP2 DUP6 DUP6 DUP2 MLOAD DUP2 LT PUSH2 0x1330 JUMPI PUSH2 0x1330 PUSH2 0x2E72 JUMP JUMPDEST PUSH1 0x20 MUL PUSH1 0x20 ADD ADD DUP2 SWAP1 MSTORE POP DUP4 DUP1 PUSH2 0x1346 SWAP1 PUSH2 0x2EB5 JUMP JUMPDEST SWAP5 POP POP POP POP DUP1 DUP1 PUSH2 0x1356 SWAP1 PUSH2 0x2EB5 JUMP JUMPDEST SWAP2 POP POP PUSH2 0x1179 JUMP JUMPDEST POP POP SWAP2 SWAP1 POP JUMP JUMPDEST PUSH1 0x0 PUSH2 0x5BA DUP3 DUP4 MLOAD JUMPDEST PUSH1 0x0 DUP1 PUSH1 0x0 JUMPDEST DUP4 DUP2 LT ISZERO PUSH2 0x141E JUMPI PUSH8 0xDE0B6B3A7640000 DUP6 DUP3 DUP2 MLOAD DUP2 LT PUSH2 0x1397 JUMPI PUSH2 0x1397 PUSH2 0x2E72 JUMP JUMPDEST PUSH1 0x20 MUL PUSH1 0x20 ADD ADD MLOAD PUSH1 0x80 ADD MLOAD DUP7 DUP4 DUP2 MLOAD DUP2 LT PUSH2 0x13B5 JUMPI PUSH2 0x13B5 PUSH2 0x2E72 JUMP JUMPDEST PUSH1 0x20 MUL PUSH1 0x20 ADD ADD MLOAD PUSH1 0x40 ADD MLOAD PUSH2 0x13CB SWAP2 SWAP1 PUSH2 0x2ED0 JUMP JUMPDEST PUSH2 0x13D5 SWAP2 SWAP1 PUSH2 0x2EEF JUMP JUMPDEST PUSH2 0x13DF SWAP1 DUP5 PUSH2 0x2F11 JUMP JUMPDEST SWAP3 POP DUP5 DUP2 DUP2 MLOAD DUP2 LT PUSH2 0x13F3 JUMPI PUSH2 0x13F3 PUSH2 0x2E72 JUMP JUMPDEST PUSH1 0x20 MUL PUSH1 0x20 ADD ADD MLOAD PUSH1 0x40 ADD MLOAD DUP3 PUSH2 0x140A SWAP2 SWAP1 PUSH2 0x2F11 JUMP JUMPDEST SWAP2 POP DUP1 PUSH2 0x1416 DUP2 PUSH2 0x2EB5 JUMP JUMPDEST SWAP2 POP POP PUSH2 0x1374 JUMP JUMPDEST POP DUP1 ISZERO PUSH2 0xA99 JUMPI DUP1 PUSH2 0x1438 DUP4 PUSH8 0xDE0B6B3A7640000 PUSH2 0x2ED0 JUMP JUMPDEST PUSH2 0x1442 SWAP2 SWAP1 PUSH2 0x2EEF JUMP JUMPDEST SWAP5 SWAP4 POP POP POP POP JUMP JUMPDEST PUSH2 0x1452 PUSH2 0x221E JUMP JUMPDEST DUP3 MLOAD DUP2 MSTORE PUSH1 0x20 DUP1 DUP5 ADD MLOAD SWAP1 DUP3 ADD MSTORE PUSH1 0x40 DUP1 DUP4 ADD MLOAD MLOAD SWAP1 DUP5 ADD MLOAD MLOAD PUSH2 0x1476 SWAP2 SWAP1 PUSH2 0x2F11 JUMP JUMPDEST PUSH1 0x1 PUSH1 0x1 PUSH1 0x40 SHL SUB DUP2 GT ISZERO PUSH2 0x148D JUMPI PUSH2 0x148D PUSH2 0x2268 JUMP JUMPDEST PUSH1 0x40 MLOAD SWAP1 DUP1 DUP3 MSTORE DUP1 PUSH1 0x20 MUL PUSH1 0x20 ADD DUP3 ADD PUSH1 0x40 MSTORE DUP1 ISZERO PUSH2 0x14C6 JUMPI DUP2 PUSH1 0x20 ADD JUMPDEST PUSH2 0x14B3 PUSH2 0x21C6 JUMP JUMPDEST DUP2 MSTORE PUSH1 0x20 ADD SWAP1 PUSH1 0x1 SWAP1 SUB SWAP1 DUP2 PUSH2 0x14AB JUMPI SWAP1 POP JUMPDEST POP PUSH1 0x40 DUP3 ADD MSTORE PUSH1 0x0 JUMPDEST DUP4 PUSH1 0x40 ADD MLOAD MLOAD DUP2 LT ISZERO PUSH2 0x152E JUMPI DUP4 PUSH1 0x40 ADD MLOAD DUP2 DUP2 MLOAD DUP2 LT PUSH2 0x14F2 JUMPI PUSH2 0x14F2 PUSH2 0x2E72 JUMP JUMPDEST PUSH1 0x20 MUL PUSH1 0x20 ADD ADD MLOAD DUP3 PUSH1 0x40 ADD MLOAD DUP3 DUP2 MLOAD DUP2 LT PUSH2 0x1510 JUMPI PUSH2 0x1510 PUSH2 0x2E72 JUMP JUMPDEST PUSH1 0x20 MUL PUSH1 0x20 ADD ADD DUP2 SWAP1 MSTORE POP DUP1 DUP1 PUSH2 0x1526 SWAP1 PUSH2 0x2EB5 JUMP JUMPDEST SWAP2 POP POP PUSH2 0x14CF JUMP JUMPDEST POP PUSH1 0x0 JUMPDEST DUP3 PUSH1 0x40 ADD MLOAD MLOAD DUP2 LT ISZERO PUSH2 0x15E7 JUMPI DUP3 PUSH1 0x40 ADD MLOAD DUP2 DUP2 MLOAD DUP2 LT PUSH2 0x1555 JUMPI PUSH2 0x1555 PUSH2 0x2E72 JUMP JUMPDEST PUSH1 0x20 MUL PUSH1 0x20 ADD ADD MLOAD DUP3 PUSH1 0x40 ADD MLOAD DUP3 DUP7 PUSH1 0x40 ADD MLOAD MLOAD PUSH2 0x1573 SWAP2 SWAP1 PUSH2 0x2F11 JUMP JUMPDEST DUP2 MLOAD DUP2 LT PUSH2 0x1583 JUMPI PUSH2 0x1583 PUSH2 0x2E72 JUMP JUMPDEST PUSH1 0x20 MUL PUSH1 0x20 ADD ADD DUP2 SWAP1 MSTORE POP DUP4 PUSH1 0x60 ADD MLOAD MLOAD DUP3 PUSH1 0x40 ADD MLOAD DUP3 DUP7 PUSH1 0x40 ADD MLOAD MLOAD PUSH2 0x15AA SWAP2 SWAP1 PUSH2 0x2F11 JUMP JUMPDEST DUP2 MLOAD DUP2 LT PUSH2 0x15BA JUMPI PUSH2 0x15BA PUSH2 0x2E72 JUMP JUMPDEST PUSH1 0x20 MUL PUSH1 0x20 ADD ADD MLOAD PUSH1 0x60 ADD DUP2 DUP2 MLOAD PUSH2 0x15D2 SWAP2 SWAP1 PUSH2 0x2F11 JUMP JUMPDEST SWAP1 MSTORE POP DUP1 PUSH2 0x15DF DUP2 PUSH2 0x2EB5 JUMP JUMPDEST SWAP2 POP POP PUSH2 0x1532 JUMP JUMPDEST POP DUP2 PUSH1 0x60 ADD MLOAD MLOAD DUP4 PUSH1 0x60 ADD MLOAD MLOAD PUSH2 0x15FE SWAP2 SWAP1 PUSH2 0x2F11 JUMP JUMPDEST PUSH1 0x1 PUSH1 0x1 PUSH1 0x40 SHL SUB DUP2 GT ISZERO PUSH2 0x1615 JUMPI PUSH2 0x1615 PUSH2 0x2268 JUMP JUMPDEST PUSH1 0x40 MLOAD SWAP1 DUP1 DUP3 MSTORE DUP1 PUSH1 0x20 MUL PUSH1 0x20 ADD DUP3 ADD PUSH1 0x40 MSTORE DUP1 ISZERO PUSH2 0x164E JUMPI DUP2 PUSH1 0x20 ADD JUMPDEST PUSH2 0x163B PUSH2 0x218D JUMP JUMPDEST DUP2 MSTORE PUSH1 0x20 ADD SWAP1 PUSH1 0x1 SWAP1 SUB SWAP1 DUP2 PUSH2 0x1633 JUMPI SWAP1 POP JUMPDEST POP PUSH1 0x60 DUP3 ADD MSTORE PUSH1 0x0 JUMPDEST DUP4 PUSH1 0x60 ADD MLOAD MLOAD DUP2 LT ISZERO PUSH2 0x16B6 JUMPI DUP4 PUSH1 0x60 ADD MLOAD DUP2 DUP2 MLOAD DUP2 LT PUSH2 0x167A JUMPI PUSH2 0x167A PUSH2 0x2E72 JUMP JUMPDEST PUSH1 0x20 MUL PUSH1 0x20 ADD ADD MLOAD DUP3 PUSH1 0x60 ADD MLOAD DUP3 DUP2 MLOAD DUP2 LT PUSH2 0x1698 JUMPI PUSH2 0x1698 PUSH2 0x2E72 JUMP JUMPDEST PUSH1 0x20 MUL PUSH1 0x20 ADD ADD DUP2 SWAP1 MSTORE POP DUP1 DUP1 PUSH2 0x16AE SWAP1 PUSH2 0x2EB5 JUMP JUMPDEST SWAP2 POP POP PUSH2 0x1657 JUMP JUMPDEST POP PUSH1 0x0 JUMPDEST DUP3 PUSH1 0x60 ADD MLOAD MLOAD DUP2 LT ISZERO PUSH2 0x1729 JUMPI DUP3 PUSH1 0x60 ADD MLOAD DUP2 DUP2 MLOAD DUP2 LT PUSH2 0x16DD JUMPI PUSH2 0x16DD PUSH2 0x2E72 JUMP JUMPDEST PUSH1 0x20 MUL PUSH1 0x20 ADD ADD MLOAD DUP3 PUSH1 0x60 ADD MLOAD DUP3 DUP7 PUSH1 0x60 ADD MLOAD MLOAD PUSH2 0x16FB SWAP2 SWAP1 PUSH2 0x2F11 JUMP JUMPDEST DUP2 MLOAD DUP2 LT PUSH2 0x170B JUMPI PUSH2 0x170B PUSH2 0x2E72 JUMP JUMPDEST PUSH1 0x20 MUL PUSH1 0x20 ADD ADD DUP2 SWAP1 MSTORE POP DUP1 DUP1 PUSH2 0x1721 SWAP1 PUSH2 0x2EB5 JUMP JUMPDEST SWAP2 POP POP PUSH2 0x16BA JUMP JUMPDEST POP PUSH1 0x40 DUP4 ADD MLOAD MLOAD ISZERO PUSH2 0x175C JUMPI PUSH1 0x20 DUP1 DUP4 ADD MLOAD MLOAD SWAP1 DUP3 ADD MLOAD MLOAD GT PUSH2 0x1751 JUMPI PUSH1 0x20 DUP2 ADD MLOAD MLOAD PUSH2 0x1763 JUMP JUMPDEST PUSH1 0x20 DUP3 ADD MLOAD MLOAD PUSH2 0x1763 JUMP JUMPDEST PUSH1 0x20 DUP3 ADD MLOAD MLOAD JUMPDEST PUSH1 0x20 DUP1 DUP4 ADD DUP1 MLOAD SWAP3 SWAP1 SWAP3 MSTORE DUP4 ADD MLOAD PUSH1 0x40 SWAP1 DUP2 ADD MLOAD SWAP2 MLOAD ADD MLOAD LT PUSH2 0x178E JUMPI DUP1 PUSH1 0x20 ADD MLOAD PUSH1 0x40 ADD MLOAD PUSH2 0x1798 JUMP JUMPDEST DUP2 PUSH1 0x20 ADD MLOAD PUSH1 0x40 ADD MLOAD JUMPDEST PUSH1 0x20 DUP3 ADD MLOAD PUSH1 0x40 ADD MSTORE DUP2 MLOAD DUP2 MLOAD PUSH2 0x17AF SWAP2 SWAP1 PUSH2 0x2F11 JUMP JUMPDEST PUSH2 0x17BA JUMPI PUSH1 0x0 PUSH2 0x1804 JUMP JUMPDEST DUP2 MLOAD DUP2 MLOAD PUSH2 0x17C8 SWAP2 SWAP1 PUSH2 0x2F11 JUMP JUMPDEST DUP3 MLOAD PUSH1 0x20 DUP1 DUP6 ADD MLOAD ADD MLOAD PUSH2 0x17DC SWAP2 SWAP1 PUSH2 0x2ED0 JUMP JUMPDEST DUP3 MLOAD PUSH1 0x20 DUP1 DUP6 ADD MLOAD ADD MLOAD PUSH2 0x17F0 SWAP2 SWAP1 PUSH2 0x2ED0 JUMP JUMPDEST PUSH2 0x17FA SWAP2 SWAP1 PUSH2 0x2F11 JUMP JUMPDEST PUSH2 0x1804 SWAP2 SWAP1 PUSH2 0x2EEF JUMP JUMPDEST PUSH1 0x20 DUP1 DUP4 ADD MLOAD ADD MSTORE DUP2 MLOAD DUP2 MLOAD DUP3 SWAP1 PUSH2 0x181D SWAP1 DUP4 SWAP1 PUSH2 0x2F11 JUMP JUMPDEST SWAP1 MSTORE POP SWAP3 SWAP2 POP POP JUMP JUMPDEST DUP3 PUSH1 0x0 JUMPDEST DUP2 MLOAD DUP2 LT ISZERO PUSH2 0x19B2 JUMPI DUP4 DUP3 DUP3 DUP2 MLOAD DUP2 LT PUSH2 0x1846 JUMPI PUSH2 0x1846 PUSH2 0x2E72 JUMP JUMPDEST PUSH1 0x20 MUL PUSH1 0x20 ADD ADD MLOAD PUSH1 0x0 ADD MLOAD EQ ISZERO PUSH2 0x19A0 JUMPI DUP3 DUP3 DUP3 DUP2 MLOAD DUP2 LT PUSH2 0x186B JUMPI PUSH2 0x186B PUSH2 0x2E72 JUMP JUMPDEST PUSH1 0x20 MUL PUSH1 0x20 ADD ADD MLOAD PUSH1 0x20 ADD MLOAD LT ISZERO PUSH2 0x18E1 JUMPI PUSH1 0x40 MLOAD PUSH3 0x461BCD PUSH1 0xE5 SHL DUP2 MSTORE PUSH1 0x20 PUSH1 0x4 DUP3 ADD MSTORE PUSH1 0x2F PUSH1 0x24 DUP3 ADD MSTORE PUSH32 0x52656D61696E65722072656D6F766520717479206973207375706572696F7220 PUSH1 0x44 DUP3 ADD MSTORE PUSH15 0x746F2072656D61696E657220717479 PUSH1 0x88 SHL PUSH1 0x64 DUP3 ADD MSTORE PUSH1 0x84 ADD PUSH1 0x40 MLOAD DUP1 SWAP2 SUB SWAP1 REVERT JUMPDEST DUP3 DUP3 DUP3 DUP2 MLOAD DUP2 LT PUSH2 0x18F4 JUMPI PUSH2 0x18F4 PUSH2 0x2E72 JUMP JUMPDEST PUSH1 0x20 MUL PUSH1 0x20 ADD ADD MLOAD PUSH1 0x20 ADD DUP2 DUP2 MLOAD PUSH2 0x190C SWAP2 SWAP1 PUSH2 0x2E9E JUMP JUMPDEST SWAP1 MSTORE POP DUP2 MLOAD DUP3 SWAP1 DUP3 SWAP1 DUP2 LT PUSH2 0x1923 JUMPI PUSH2 0x1923 PUSH2 0x2E72 JUMP JUMPDEST PUSH1 0x20 MUL PUSH1 0x20 ADD ADD MLOAD PUSH1 0x20 ADD MLOAD PUSH1 0x0 EQ ISZERO PUSH2 0x199A JUMPI PUSH1 0x1 DUP3 MLOAD GT ISZERO PUSH2 0x1986 JUMPI DUP2 PUSH1 0x1 DUP4 MLOAD PUSH2 0x1950 SWAP2 SWAP1 PUSH2 0x2E9E JUMP JUMPDEST DUP2 MLOAD DUP2 LT PUSH2 0x1960 JUMPI PUSH2 0x1960 PUSH2 0x2E72 JUMP JUMPDEST PUSH1 0x20 MUL PUSH1 0x20 ADD ADD MLOAD DUP3 DUP3 DUP2 MLOAD DUP2 LT PUSH2 0x197A JUMPI PUSH2 0x197A PUSH2 0x2E72 JUMP JUMPDEST PUSH1 0x20 MUL PUSH1 0x20 ADD ADD DUP2 SWAP1 MSTORE POP JUMPDEST PUSH1 0x0 PUSH1 0x1 DUP4 MLOAD PUSH2 0x1996 SWAP2 SWAP1 PUSH2 0x2E9E JUMP JUMPDEST DUP4 MSTORE POP JUMPDEST POP PUSH2 0xD4E JUMP JUMPDEST DUP1 PUSH2 0x19AA DUP2 PUSH2 0x2EB5 JUMP JUMPDEST SWAP2 POP POP PUSH2 0x182A JUMP JUMPDEST POP SWAP4 SWAP3 POP POP POP JUMP JUMPDEST PUSH2 0x19C2 PUSH2 0x221E JUMP JUMPDEST PUSH2 0x19CB DUP3 PUSH2 0xAA0 JUMP JUMPDEST PUSH1 0x60 DUP3 ADD MSTORE PUSH1 0x40 DUP1 MLOAD PUSH1 0x1 DUP1 DUP3 MSTORE DUP2 DUP4 ADD SWAP1 SWAP3 MSTORE SWAP1 DUP2 PUSH1 0x20 ADD JUMPDEST PUSH2 0x19ED PUSH2 0x21C6 JUMP JUMPDEST DUP2 MSTORE PUSH1 0x20 ADD SWAP1 PUSH1 0x1 SWAP1 SUB SWAP1 DUP2 PUSH2 0x19E5 JUMPI POP POP PUSH1 0x40 DUP3 ADD DUP2 SWAP1 MSTORE DUP1 MLOAD DUP5 SWAP2 SWAP1 PUSH1 0x0 SWAP1 PUSH2 0x1A1A JUMPI PUSH2 0x1A1A PUSH2 0x2E72 JUMP JUMPDEST PUSH1 0x20 MUL PUSH1 0x20 ADD ADD DUP2 SWAP1 MSTORE POP PUSH1 0x0 DUP2 PUSH1 0x40 ADD MLOAD PUSH1 0x0 DUP2 MLOAD DUP2 LT PUSH2 0x1A3E JUMPI PUSH2 0x1A3E PUSH2 0x2E72 JUMP JUMPDEST PUSH1 0x20 SWAP1 DUP2 MUL SWAP2 SWAP1 SWAP2 ADD DUP2 ADD MLOAD PUSH1 0x60 ADD SWAP2 SWAP1 SWAP2 MSTORE DUP4 DUP2 ADD MLOAD DUP3 MSTORE PUSH1 0x40 SWAP1 SWAP4 ADD MLOAD SWAP3 DUP2 ADD SWAP3 SWAP1 SWAP3 MSTORE POP SWAP1 JUMP JUMPDEST DUP2 PUSH1 0x0 JUMPDEST DUP3 MLOAD DUP2 LT ISZERO PUSH2 0xA99 JUMPI PUSH2 0x1A98 DUP3 DUP5 DUP4 DUP2 MLOAD DUP2 LT PUSH2 0x1A8B JUMPI PUSH2 0x1A8B PUSH2 0x2E72 JUMP JUMPDEST PUSH1 0x20 MUL PUSH1 0x20 ADD ADD MLOAD PUSH2 0x1D32 JUMP JUMPDEST SWAP2 POP DUP1 PUSH2 0x1AA4 DUP2 PUSH2 0x2EB5 JUMP JUMPDEST SWAP2 POP POP PUSH2 0x1A6C JUMP JUMPDEST PUSH1 0x0 DUP1 JUMPDEST DUP3 DUP2 LT ISZERO PUSH2 0xA99 JUMPI PUSH8 0xDE0B6B3A7640000 DUP5 DUP3 DUP2 MLOAD DUP2 LT PUSH2 0x1AD3 JUMPI PUSH2 0x1AD3 PUSH2 0x2E72 JUMP JUMPDEST PUSH1 0x20 MUL PUSH1 0x20 ADD ADD MLOAD PUSH1 0x80 ADD MLOAD DUP6 DUP4 DUP2 MLOAD DUP2 LT PUSH2 0x1AF1 JUMPI PUSH2 0x1AF1 PUSH2 0x2E72 JUMP JUMPDEST PUSH1 0x20 MUL PUSH1 0x20 ADD ADD MLOAD PUSH1 0x40 ADD MLOAD PUSH2 0x1B07 SWAP2 SWAP1 PUSH2 0x2ED0 JUMP JUMPDEST PUSH2 0x1B11 SWAP2 SWAP1 PUSH2 0x2EEF JUMP JUMPDEST PUSH2 0x1B1B SWAP1 DUP4 PUSH2 0x2F11 JUMP JUMPDEST SWAP2 POP DUP1 PUSH2 0x1B27 DUP2 PUSH2 0x2EB5 JUMP JUMPDEST SWAP2 POP POP PUSH2 0x1AB0 JUMP JUMPDEST DUP3 PUSH1 0x0 JUMPDEST DUP2 MLOAD DUP2 LT ISZERO PUSH2 0x1BA8 JUMPI DUP4 DUP3 DUP3 DUP2 MLOAD DUP2 LT PUSH2 0x1B4F JUMPI PUSH2 0x1B4F PUSH2 0x2E72 JUMP JUMPDEST PUSH1 0x20 MUL PUSH1 0x20 ADD ADD MLOAD PUSH1 0x0 ADD MLOAD EQ ISZERO PUSH2 0x1B96 JUMPI DUP3 DUP3 DUP3 DUP2 MLOAD DUP2 LT PUSH2 0x1B74 JUMPI PUSH2 0x1B74 PUSH2 0x2E72 JUMP JUMPDEST PUSH1 0x20 MUL PUSH1 0x20 ADD ADD MLOAD PUSH1 0x20 ADD DUP2 DUP2 MLOAD PUSH2 0x1B8C SWAP2 SWAP1 PUSH2 0x2F11 JUMP JUMPDEST SWAP1 MSTORE POP PUSH2 0xD4E SWAP1 POP JUMP JUMPDEST DUP1 PUSH2 0x1BA0 DUP2 PUSH2 0x2EB5 JUMP JUMPDEST SWAP2 POP POP PUSH2 0x1B33 JUMP JUMPDEST POP DUP4 MLOAD PUSH2 0x1BB6 SWAP1 PUSH1 0x1 PUSH2 0x2F11 JUMP JUMPDEST PUSH1 0x1 PUSH1 0x1 PUSH1 0x40 SHL SUB DUP2 GT ISZERO PUSH2 0x1BCD JUMPI PUSH2 0x1BCD PUSH2 0x2268 JUMP JUMPDEST PUSH1 0x40 MLOAD SWAP1 DUP1 DUP3 MSTORE DUP1 PUSH1 0x20 MUL PUSH1 0x20 ADD DUP3 ADD PUSH1 0x40 MSTORE DUP1 ISZERO PUSH2 0x1C12 JUMPI DUP2 PUSH1 0x20 ADD JUMPDEST PUSH1 0x40 DUP1 MLOAD DUP1 DUP3 ADD SWAP1 SWAP2 MSTORE PUSH1 0x0 DUP1 DUP3 MSTORE PUSH1 0x20 DUP3 ADD MSTORE DUP2 MSTORE PUSH1 0x20 ADD SWAP1 PUSH1 0x1 SWAP1 SUB SWAP1 DUP2 PUSH2 0x1BEB JUMPI SWAP1 POP JUMPDEST POP SWAP1 POP PUSH1 0x0 JUMPDEST DUP5 MLOAD DUP2 LT ISZERO PUSH2 0x1C6B JUMPI DUP5 DUP2 DUP2 MLOAD DUP2 LT PUSH2 0x1C33 JUMPI PUSH2 0x1C33 PUSH2 0x2E72 JUMP JUMPDEST PUSH1 0x20 MUL PUSH1 0x20 ADD ADD MLOAD DUP3 DUP3 DUP2 MLOAD DUP2 LT PUSH2 0x1C4D JUMPI PUSH2 0x1C4D PUSH2 0x2E72 JUMP JUMPDEST PUSH1 0x20 MUL PUSH1 0x20 ADD ADD DUP2 SWAP1 MSTORE POP DUP1 DUP1 PUSH2 0x1C63 SWAP1 PUSH2 0x2EB5 JUMP JUMPDEST SWAP2 POP POP PUSH2 0x1C18 JUMP JUMPDEST POP DUP3 DUP2 DUP6 MLOAD DUP2 MLOAD DUP2 LT PUSH2 0x1C80 JUMPI PUSH2 0x1C80 PUSH2 0x2E72 JUMP JUMPDEST PUSH1 0x20 MUL PUSH1 0x20 ADD ADD MLOAD PUSH1 0x0 ADD DUP2 DUP2 MSTORE POP POP DUP2 DUP2 DUP6 MLOAD DUP2 MLOAD DUP2 LT PUSH2 0x1CA4 JUMPI PUSH2 0x1CA4 PUSH2 0x2E72 JUMP JUMPDEST PUSH1 0x20 MUL PUSH1 0x20 ADD ADD MLOAD PUSH1 0x20 ADD DUP2 DUP2 MSTORE POP POP SWAP4 SWAP3 POP POP POP JUMP JUMPDEST PUSH1 0x0 PUSH2 0x5BA DUP3 DUP4 MLOAD PUSH2 0xAAF JUMP JUMPDEST PUSH1 0x0 DUP1 JUMPDEST DUP4 MLOAD DUP2 LT ISZERO PUSH2 0xB8A JUMPI DUP3 DUP5 DUP3 DUP2 MLOAD DUP2 LT PUSH2 0x1CE8 JUMPI PUSH2 0x1CE8 PUSH2 0x2E72 JUMP JUMPDEST PUSH1 0x20 MUL PUSH1 0x20 ADD ADD MLOAD PUSH1 0x0 ADD MLOAD EQ ISZERO PUSH2 0x1D20 JUMPI DUP4 DUP2 DUP2 MLOAD DUP2 LT PUSH2 0x1D0C JUMPI PUSH2 0x1D0C PUSH2 0x2E72 JUMP JUMPDEST PUSH1 0x20 MUL PUSH1 0x20 ADD ADD MLOAD PUSH1 0x20 ADD MLOAD SWAP2 POP POP PUSH2 0x5BA JUMP JUMPDEST DUP1 PUSH2 0x1D2A DUP2 PUSH2 0x2EB5 JUMP JUMPDEST SWAP2 POP POP PUSH2 0x1CCC JUMP JUMPDEST PUSH1 0x60 PUSH1 0x0 JUMPDEST DUP4 MLOAD DUP2 LT ISZERO PUSH2 0x1DB7 JUMPI DUP3 PUSH1 0x0 ADD MLOAD DUP5 DUP3 DUP2 MLOAD DUP2 LT PUSH2 0x1D57 JUMPI PUSH2 0x1D57 PUSH2 0x2E72 JUMP JUMPDEST PUSH1 0x20 MUL PUSH1 0x20 ADD ADD MLOAD PUSH1 0x0 ADD MLOAD EQ ISZERO PUSH2 0x1DA5 JUMPI DUP3 PUSH1 0x40 ADD MLOAD DUP5 DUP3 DUP2 MLOAD DUP2 LT PUSH2 0x1D80 JUMPI PUSH2 0x1D80 PUSH2 0x2E72 JUMP JUMPDEST PUSH1 0x20 MUL PUSH1 0x20 ADD ADD MLOAD PUSH1 0x40 ADD DUP2 DUP2 MLOAD PUSH2 0x1D98 SWAP2 SWAP1 PUSH2 0x2F11 JUMP JUMPDEST SWAP1 MSTORE POP DUP4 SWAP2 POP PUSH2 0x5BA SWAP1 POP JUMP JUMPDEST DUP1 PUSH2 0x1DAF DUP2 PUSH2 0x2EB5 JUMP JUMPDEST SWAP2 POP POP PUSH2 0x1D37 JUMP JUMPDEST POP PUSH1 0x40 DUP1 MLOAD PUSH1 0x1 DUP1 DUP3 MSTORE DUP2 DUP4 ADD SWAP1 SWAP3 MSTORE PUSH1 0x0 SWAP2 DUP2 PUSH1 0x20 ADD JUMPDEST PUSH2 0x1DD7 PUSH2 0x218D JUMP JUMPDEST DUP2 MSTORE PUSH1 0x20 ADD SWAP1 PUSH1 0x1 SWAP1 SUB SWAP1 DUP2 PUSH2 0x1DCF JUMPI SWAP1 POP POP SWAP1 POP DUP3 DUP2 PUSH1 0x0 DUP2 MLOAD DUP2 LT PUSH2 0x1E00 JUMPI PUSH2 0x1E00 PUSH2 0x2E72 JUMP JUMPDEST PUSH1 0x20 MUL PUSH1 0x20 ADD ADD DUP2 SWAP1 MSTORE POP PUSH2 0x1442 DUP5 DUP3 PUSH2 0x1EC4 JUMP JUMPDEST PUSH1 0x60 DUP2 PUSH1 0x1 PUSH1 0x1 PUSH1 0x40 SHL SUB DUP2 GT ISZERO PUSH2 0x1E2F JUMPI PUSH2 0x1E2F PUSH2 0x2268 JUMP JUMPDEST PUSH1 0x40 MLOAD SWAP1 DUP1 DUP3 MSTORE DUP1 PUSH1 0x20 MUL PUSH1 0x20 ADD DUP3 ADD PUSH1 0x40 MSTORE DUP1 ISZERO PUSH2 0x1E68 JUMPI DUP2 PUSH1 0x20 ADD JUMPDEST PUSH2 0x1E55 PUSH2 0x218D JUMP JUMPDEST DUP2 MSTORE PUSH1 0x20 ADD SWAP1 PUSH1 0x1 SWAP1 SUB SWAP1 DUP2 PUSH2 0x1E4D JUMPI SWAP1 POP JUMPDEST POP SWAP1 POP PUSH1 0x0 JUMPDEST DUP3 DUP2 LT ISZERO PUSH2 0x19B2 JUMPI PUSH2 0x1E94 DUP6 PUSH2 0x1E84 DUP4 DUP8 PUSH2 0x2F11 JUMP JUMPDEST DUP2 MLOAD DUP2 LT PUSH2 0x504 JUMPI PUSH2 0x504 PUSH2 0x2E72 JUMP JUMPDEST DUP3 DUP3 DUP2 MLOAD DUP2 LT PUSH2 0x1EA6 JUMPI PUSH2 0x1EA6 PUSH2 0x2E72 JUMP JUMPDEST PUSH1 0x20 MUL PUSH1 0x20 ADD ADD DUP2 SWAP1 MSTORE POP DUP1 DUP1 PUSH2 0x1EBC SWAP1 PUSH2 0x2EB5 JUMP JUMPDEST SWAP2 POP POP PUSH2 0x1E6E JUMP JUMPDEST DUP2 MLOAD DUP2 MLOAD PUSH1 0x60 SWAP2 SWAP1 PUSH2 0x1ED6 DUP2 DUP4 PUSH2 0x2F11 JUMP JUMPDEST PUSH1 0x1 PUSH1 0x1 PUSH1 0x40 SHL SUB DUP2 GT ISZERO PUSH2 0x1EED JUMPI PUSH2 0x1EED PUSH2 0x2268 JUMP JUMPDEST PUSH1 0x40 MLOAD SWAP1 DUP1 DUP3 MSTORE DUP1 PUSH1 0x20 MUL PUSH1 0x20 ADD DUP3 ADD PUSH1 0x40 MSTORE DUP1 ISZERO PUSH2 0x1F26 JUMPI DUP2 PUSH1 0x20 ADD JUMPDEST PUSH2 0x1F13 PUSH2 0x218D JUMP JUMPDEST DUP2 MSTORE PUSH1 0x20 ADD SWAP1 PUSH1 0x1 SWAP1 SUB SWAP1 DUP2 PUSH2 0x1F0B JUMPI SWAP1 POP JUMPDEST POP SWAP3 POP PUSH1 0x0 JUMPDEST DUP3 DUP2 LT ISZERO PUSH2 0x1F79 JUMPI PUSH2 0x1F49 DUP7 DUP3 DUP2 MLOAD DUP2 LT PUSH2 0x504 JUMPI PUSH2 0x504 PUSH2 0x2E72 JUMP JUMPDEST DUP5 DUP3 DUP2 MLOAD DUP2 LT PUSH2 0x1F5B JUMPI PUSH2 0x1F5B PUSH2 0x2E72 JUMP JUMPDEST PUSH1 0x20 MUL PUSH1 0x20 ADD ADD DUP2 SWAP1 MSTORE POP DUP1 DUP1 PUSH2 0x1F71 SWAP1 PUSH2 0x2EB5 JUMP JUMPDEST SWAP2 POP POP PUSH2 0x1F2C JUMP JUMPDEST POP PUSH1 0x0 JUMPDEST DUP2 DUP2 LT ISZERO PUSH2 0x1FD3 JUMPI PUSH2 0x1F9A DUP6 DUP3 DUP2 MLOAD DUP2 LT PUSH2 0x504 JUMPI PUSH2 0x504 PUSH2 0x2E72 JUMP JUMPDEST DUP5 PUSH2 0x1FA5 DUP4 DUP7 PUSH2 0x2F11 JUMP JUMPDEST DUP2 MLOAD DUP2 LT PUSH2 0x1FB5 JUMPI PUSH2 0x1FB5 PUSH2 0x2E72 JUMP JUMPDEST PUSH1 0x20 MUL PUSH1 0x20 ADD ADD DUP2 SWAP1 MSTORE POP DUP1 DUP1 PUSH2 0x1FCB SWAP1 PUSH2 0x2EB5 JUMP JUMPDEST SWAP2 POP POP PUSH2 0x1F7D JUMP JUMPDEST POP POP POP SWAP3 SWAP2 POP POP JUMP JUMPDEST PUSH1 0x60 DUP2 MLOAD PUSH1 0x1 PUSH1 0x1 PUSH1 0x40 SHL SUB DUP2 GT ISZERO PUSH2 0x1FF7 JUMPI PUSH2 0x1FF7 PUSH2 0x2268 JUMP JUMPDEST PUSH1 0x40 MLOAD SWAP1 DUP1 DUP3 MSTORE DUP1 PUSH1 0x20 MUL PUSH1 0x20 ADD DUP3 ADD PUSH1 0x40 MSTORE DUP1 ISZERO PUSH2 0x2030 JUMPI DUP2 PUSH1 0x20 ADD JUMPDEST PUSH2 0x201D PUSH2 0x218D JUMP JUMPDEST DUP2 MSTORE PUSH1 0x20 ADD SWAP1 PUSH1 0x1 SWAP1 SUB SWAP1 DUP2 PUSH2 0x2015 JUMPI SWAP1 POP JUMPDEST POP SWAP1 POP PUSH1 0x0 DUP1 JUMPDEST DUP4 MLOAD DUP2 LT ISZERO PUSH2 0x135E JUMPI PUSH1 0x0 DUP5 DUP3 DUP2 MLOAD DUP2 LT PUSH2 0x2054 JUMPI PUSH2 0x2054 PUSH2 0x2E72 JUMP JUMPDEST PUSH1 0x20 MUL PUSH1 0x20 ADD ADD MLOAD SWAP1 POP PUSH1 0x0 JUMPDEST DUP4 DUP2 LT ISZERO PUSH2 0x20F7 JUMPI DUP2 PUSH1 0x80 ADD MLOAD DUP6 DUP3 DUP2 MLOAD DUP2 LT PUSH2 0x2080 JUMPI PUSH2 0x2080 PUSH2 0x2E72 JUMP JUMPDEST PUSH1 0x20 MUL PUSH1 0x20 ADD ADD MLOAD PUSH1 0x80 ADD MLOAD GT ISZERO PUSH2 0x20E5 JUMPI PUSH1 0x0 DUP6 DUP3 DUP2 MLOAD DUP2 LT PUSH2 0x20A6 JUMPI PUSH2 0x20A6 PUSH2 0x2E72 JUMP JUMPDEST PUSH1 0x20 MUL PUSH1 0x20 ADD ADD MLOAD SWAP1 POP DUP3 DUP7 DUP4 DUP2 MLOAD DUP2 LT PUSH2 0x20C3 JUMPI PUSH2 0x20C3 PUSH2 0x2E72 JUMP JUMPDEST PUSH1 0x20 MUL PUSH1 0x20 ADD ADD DUP2 SWAP1 MSTORE POP DUP1 SWAP3 POP DUP2 DUP1 PUSH2 0x20DC SWAP1 PUSH2 0x2EB5 JUMP JUMPDEST SWAP3 POP POP POP PUSH2 0x20F7 JUMP JUMPDEST DUP1 PUSH2 0x20EF DUP2 PUSH2 0x2EB5 JUMP JUMPDEST SWAP2 POP POP PUSH2 0x2061 JUMP JUMPDEST DUP4 DUP2 LT ISZERO PUSH2 0x214F JUMPI PUSH1 0x0 DUP6 DUP3 DUP2 MLOAD DUP2 LT PUSH2 0x2113 JUMPI PUSH2 0x2113 PUSH2 0x2E72 JUMP JUMPDEST PUSH1 0x20 MUL PUSH1 0x20 ADD ADD MLOAD SWAP1 POP DUP3 DUP7 DUP4 DUP2 MLOAD DUP2 LT PUSH2 0x2130 JUMPI PUSH2 0x2130 PUSH2 0x2E72 JUMP JUMPDEST PUSH1 0x20 SWAP1 DUP2 MUL SWAP2 SWAP1 SWAP2 ADD ADD MSTORE SWAP2 POP DUP1 PUSH2 0x2147 DUP2 PUSH2 0x2EB5 JUMP JUMPDEST SWAP2 POP POP PUSH2 0x20F7 JUMP JUMPDEST DUP2 DUP6 DUP6 PUSH2 0x215B DUP2 PUSH2 0x2EB5 JUMP JUMPDEST SWAP7 POP DUP2 MLOAD DUP2 LT PUSH2 0x216D JUMPI PUSH2 0x216D PUSH2 0x2E72 JUMP JUMPDEST PUSH1 0x20 MUL PUSH1 0x20 ADD ADD DUP2 SWAP1 MSTORE POP POP POP DUP1 DUP1 PUSH2 0x2185 SWAP1 PUSH2 0x2EB5 JUMP JUMPDEST SWAP2 POP POP PUSH2 0x2037 JUMP JUMPDEST PUSH1 0x40 MLOAD DUP1 PUSH1 0xC0 ADD PUSH1 0x40 MSTORE DUP1 PUSH1 0x0 DUP2 MSTORE PUSH1 0x20 ADD PUSH1 0x0 DUP1 NOT AND DUP2 MSTORE PUSH1 0x20 ADD PUSH1 0x0 DUP2 MSTORE PUSH1 0x20 ADD PUSH1 0x0 DUP2 MSTORE PUSH1 0x20 ADD PUSH1 0x0 DUP2 MSTORE PUSH1 0x20 ADD PUSH1 0x60 DUP2 MSTORE POP SWAP1 JUMP JUMPDEST PUSH1 0x40 MLOAD DUP1 PUSH1 0xC0 ADD PUSH1 0x40 MSTORE DUP1 PUSH1 0x60 DUP2 MSTORE PUSH1 0x20 ADD PUSH1 0x0 DUP2 MSTORE PUSH1 0x20 ADD PUSH2 0x2203 PUSH1 0x40 MLOAD DUP1 PUSH1 0x60 ADD PUSH1 0x40 MSTORE DUP1 PUSH1 0x0 DUP2 MSTORE PUSH1 0x20 ADD PUSH1 0x0 DUP2 MSTORE PUSH1 0x20 ADD PUSH1 0x0 DUP2 MSTORE POP SWAP1 JUMP JUMPDEST DUP2 MSTORE PUSH1 0x20 ADD PUSH1 0x0 DUP2 MSTORE PUSH1 0x20 ADD PUSH1 0x0 DUP2 MSTORE PUSH1 0x20 ADD PUSH1 0x60 DUP2 MSTORE POP SWAP1 JUMP JUMPDEST PUSH1 0x40 MLOAD DUP1 PUSH1 0x80 ADD PUSH1 0x40 MSTORE DUP1 PUSH1 0x0 DUP2 MSTORE PUSH1 0x20 ADD PUSH2 0x2254 PUSH1 0x40 MLOAD DUP1 PUSH1 0x60 ADD PUSH1 0x40 MSTORE DUP1 PUSH1 0x0 DUP2 MSTORE PUSH1 0x20 ADD PUSH1 0x0 DUP2 MSTORE PUSH1 0x20 ADD PUSH1 0x0 DUP2 MSTORE POP SWAP1 JUMP JUMPDEST DUP2 MSTORE PUSH1 0x20 ADD PUSH1 0x60 DUP2 MSTORE PUSH1 0x20 ADD PUSH1 0x60 DUP2 MSTORE POP SWAP1 JUMP JUMPDEST PUSH4 0x4E487B71 PUSH1 0xE0 SHL PUSH1 0x0 MSTORE PUSH1 0x41 PUSH1 0x4 MSTORE PUSH1 0x24 PUSH1 0x0 REVERT JUMPDEST PUSH1 0x40 MLOAD PUSH1 0xC0 DUP2 ADD PUSH1 0x1 PUSH1 0x1 PUSH1 0x40 SHL SUB DUP2 GT DUP3 DUP3 LT OR ISZERO PUSH2 0x22A0 JUMPI PUSH2 0x22A0 PUSH2 0x2268 JUMP JUMPDEST PUSH1 0x40 MSTORE SWAP1 JUMP JUMPDEST PUSH1 0x40 DUP1 MLOAD SWAP1 DUP2 ADD PUSH1 0x1 PUSH1 0x1 PUSH1 0x40 SHL SUB DUP2 GT DUP3 DUP3 LT OR ISZERO PUSH2 0x22A0 JUMPI PUSH2 0x22A0 PUSH2 0x2268 JUMP JUMPDEST PUSH1 0x40 MLOAD PUSH1 0x80 DUP2 ADD PUSH1 0x1 PUSH1 0x1 PUSH1 0x40 SHL SUB DUP2 GT DUP3 DUP3 LT OR ISZERO PUSH2 0x22A0 JUMPI PUSH2 0x22A0 PUSH2 0x2268 JUMP JUMPDEST PUSH1 0x40 MLOAD PUSH1 0x1F DUP3 ADD PUSH1 0x1F NOT AND DUP2 ADD PUSH1 0x1 PUSH1 0x1 PUSH1 0x40 SHL SUB DUP2 GT DUP3 DUP3 LT OR ISZERO PUSH2 0x2312 JUMPI PUSH2 0x2312 PUSH2 0x2268 JUMP JUMPDEST PUSH1 0x40 MSTORE SWAP2 SWAP1 POP JUMP JUMPDEST PUSH1 0x0 PUSH1 0x1 PUSH1 0x1 PUSH1 0x40 SHL SUB DUP3 GT ISZERO PUSH2 0x2333 JUMPI PUSH2 0x2333 PUSH2 0x2268 JUMP JUMPDEST POP PUSH1 0x5 SHL PUSH1 0x20 ADD SWAP1 JUMP JUMPDEST PUSH1 0x0 DUP3 PUSH1 0x1F DUP4 ADD SLT PUSH2 0x234E JUMPI PUSH1 0x0 DUP1 REVERT JUMPDEST DUP2 CALLDATALOAD PUSH1 0x20 PUSH2 0x2363 PUSH2 0x235E DUP4 PUSH2 0x231A JUMP JUMPDEST PUSH2 0x22EA JUMP JUMPDEST DUP3 DUP2 MSTORE PUSH1 0x5 SWAP3 SWAP1 SWAP3 SHL DUP5 ADD DUP2 ADD SWAP2 DUP2 DUP2 ADD SWAP1 DUP7 DUP5 GT ISZERO PUSH2 0x2382 JUMPI PUSH1 0x0 DUP1 REVERT JUMPDEST DUP3 DUP7 ADD JUMPDEST DUP5 DUP2 LT ISZERO PUSH2 0x239D JUMPI DUP1 CALLDATALOAD DUP4 MSTORE SWAP2 DUP4 ADD SWAP2 DUP4 ADD PUSH2 0x2386 JUMP JUMPDEST POP SWAP7 SWAP6 POP POP POP POP POP POP JUMP JUMPDEST PUSH1 0x0 PUSH1 0xC0 DUP3 DUP5 SUB SLT ISZERO PUSH2 0x23BA JUMPI PUSH1 0x0 DUP1 REVERT JUMPDEST PUSH2 0x23C2 PUSH2 0x227E JUMP JUMPDEST SWAP1 POP DUP2 CALLDATALOAD DUP2 MSTORE PUSH1 0x20 DUP3 ADD CALLDATALOAD PUSH1 0x20 DUP3 ADD MSTORE PUSH1 0x40 DUP3 ADD CALLDATALOAD PUSH1 0x40 DUP3 ADD MSTORE PUSH1 0x60 DUP3 ADD CALLDATALOAD PUSH1 0x60 DUP3 ADD MSTORE PUSH1 0x80 DUP3 ADD CALLDATALOAD PUSH1 0x80 DUP3 ADD MSTORE PUSH1 0xA0 DUP3 ADD CALLDATALOAD PUSH1 0x1 PUSH1 0x1 PUSH1 0x40 SHL SUB DUP2 GT ISZERO PUSH2 0x2409 JUMPI PUSH1 0x0 DUP1 REVERT JUMPDEST PUSH2 0x2415 DUP5 DUP3 DUP6 ADD PUSH2 0x233D JUMP JUMPDEST PUSH1 0xA0 DUP4 ADD MSTORE POP SWAP3 SWAP2 POP POP JUMP JUMPDEST PUSH1 0x0 DUP3 PUSH1 0x1F DUP4 ADD SLT PUSH2 0x2432 JUMPI PUSH1 0x0 DUP1 REVERT JUMPDEST DUP2 CALLDATALOAD PUSH1 0x20 PUSH2 0x2442 PUSH2 0x235E DUP4 PUSH2 0x231A JUMP JUMPDEST DUP3 DUP2 MSTORE PUSH1 0x5 SWAP3 SWAP1 SWAP3 SHL DUP5 ADD DUP2 ADD SWAP2 DUP2 DUP2 ADD SWAP1 DUP7 DUP5 GT ISZERO PUSH2 0x2461 JUMPI PUSH1 0x0 DUP1 REVERT JUMPDEST DUP3 DUP7 ADD JUMPDEST DUP5 DUP2 LT ISZERO PUSH2 0x239D JUMPI DUP1 CALLDATALOAD PUSH1 0x1 PUSH1 0x1 PUSH1 0x40 SHL SUB DUP2 GT ISZERO PUSH2 0x2484 JUMPI PUSH1 0x0 DUP1 DUP2 REVERT JUMPDEST PUSH2 0x2492 DUP10 DUP7 DUP4 DUP12 ADD ADD PUSH2 0x23A8 JUMP JUMPDEST DUP5 MSTORE POP SWAP2 DUP4 ADD SWAP2 DUP4 ADD PUSH2 0x2465 JUMP JUMPDEST PUSH1 0x0 DUP1 PUSH1 0x40 DUP4 DUP6 SUB SLT ISZERO PUSH2 0x24B3 JUMPI PUSH1 0x0 DUP1 REVERT JUMPDEST DUP3 CALLDATALOAD PUSH1 0x1 PUSH1 0x1 PUSH1 0x40 SHL SUB DUP1 DUP3 GT ISZERO PUSH2 0x24CA JUMPI PUSH1 0x0 DUP1 REVERT JUMPDEST PUSH2 0x24D6 DUP7 DUP4 DUP8 ADD PUSH2 0x2421 JUMP JUMPDEST SWAP4 POP PUSH1 0x20 DUP6 ADD CALLDATALOAD SWAP2 POP DUP1 DUP3 GT ISZERO PUSH2 0x24EC JUMPI PUSH1 0x0 DUP1 REVERT JUMPDEST POP PUSH2 0x24F9 DUP6 DUP3 DUP7 ADD PUSH2 0x2421 JUMP JUMPDEST SWAP2 POP POP SWAP3 POP SWAP3 SWAP1 POP JUMP JUMPDEST PUSH1 0x0 DUP2 MLOAD DUP1 DUP5 MSTORE PUSH1 0x20 DUP1 DUP6 ADD SWAP5 POP DUP1 DUP5 ADD PUSH1 0x0 JUMPDEST DUP4 DUP2 LT ISZERO PUSH2 0x2533 JUMPI DUP2 MLOAD DUP8 MSTORE SWAP6 DUP3 ADD SWAP6 SWAP1 DUP3 ADD SWAP1 PUSH1 0x1 ADD PUSH2 0x2517 JUMP JUMPDEST POP SWAP5 SWAP6 SWAP5 POP POP POP POP POP JUMP JUMPDEST DUP1 MLOAD DUP3 MSTORE PUSH1 0x20 DUP2 ADD MLOAD PUSH1 0x20 DUP4 ADD MSTORE PUSH1 0x40 DUP2 ADD MLOAD PUSH1 0x40 DUP4 ADD MSTORE PUSH1 0x60 DUP2 ADD MLOAD PUSH1 0x60 DUP4 ADD MSTORE PUSH1 0x80 DUP2 ADD MLOAD PUSH1 0x80 DUP4 ADD MSTORE PUSH1 0x0 PUSH1 0xA0 DUP3 ADD MLOAD PUSH1 0xC0 PUSH1 0xA0 DUP6 ADD MSTORE PUSH2 0x1442 PUSH1 0xC0 DUP6 ADD DUP3 PUSH2 0x2503 JUMP JUMPDEST PUSH1 0x0 DUP2 MLOAD DUP1 DUP5 MSTORE PUSH1 0x20 DUP1 DUP6 ADD DUP1 DUP2 SWAP7 POP DUP4 PUSH1 0x5 SHL DUP2 ADD SWAP2 POP DUP3 DUP7 ADD PUSH1 0x0 JUMPDEST DUP6 DUP2 LT ISZERO PUSH2 0x25CD JUMPI DUP3 DUP5 SUB DUP10 MSTORE PUSH2 0x25BB DUP5 DUP4 MLOAD PUSH2 0x253E JUMP JUMPDEST SWAP9 DUP6 ADD SWAP9 SWAP4 POP SWAP1 DUP5 ADD SWAP1 PUSH1 0x1 ADD PUSH2 0x25A3 JUMP JUMPDEST POP SWAP2 SWAP8 SWAP7 POP POP POP POP POP POP POP JUMP JUMPDEST PUSH1 0x20 DUP2 MSTORE PUSH1 0x0 PUSH2 0xD4E PUSH1 0x20 DUP4 ADD DUP5 PUSH2 0x2585 JUMP JUMPDEST PUSH1 0x0 PUSH1 0x20 DUP3 DUP5 SUB SLT ISZERO PUSH2 0x25FF JUMPI PUSH1 0x0 DUP1 REVERT JUMPDEST DUP2 CALLDATALOAD PUSH1 0x1 PUSH1 0x1 PUSH1 0x40 SHL SUB DUP2 GT ISZERO PUSH2 0x2615 JUMPI PUSH1 0x0 DUP1 REVERT JUMPDEST PUSH2 0x1442 DUP5 DUP3 DUP6 ADD PUSH2 0x2421 JUMP JUMPDEST PUSH1 0x0 PUSH1 0x60 DUP3 DUP5 SUB SLT ISZERO PUSH2 0x2633 JUMPI PUSH1 0x0 DUP1 REVERT JUMPDEST PUSH1 0x40 MLOAD PUSH1 0x60 DUP2 ADD DUP2 DUP2 LT PUSH1 0x1 PUSH1 0x1 PUSH1 0x40 SHL SUB DUP3 GT OR ISZERO PUSH2 0x2655 JUMPI PUSH2 0x2655 PUSH2 0x2268 JUMP JUMPDEST DUP1 PUSH1 0x40 MSTORE POP DUP1 SWAP2 POP DUP3 CALLDATALOAD DUP2 MSTORE PUSH1 0x20 DUP4 ADD CALLDATALOAD PUSH1 0x20 DUP3 ADD MSTORE PUSH1 0x40 DUP4 ADD CALLDATALOAD PUSH1 0x40 DUP3 ADD MSTORE POP SWAP3 SWAP2 POP POP JUMP JUMPDEST PUSH1 0x0 PUSH2 0x100 DUP3 DUP5 SUB SLT ISZERO PUSH2 0x268F JUMPI PUSH1 0x0 DUP1 REVERT JUMPDEST PUSH2 0x2697 PUSH2 0x227E JUMP JUMPDEST SWAP1 POP DUP2 CALLDATALOAD PUSH1 0x1 PUSH1 0x1 PUSH1 0x40 SHL SUB DUP1 DUP3 GT ISZERO PUSH2 0x26B0 JUMPI PUSH1 0x0 DUP1 REVERT JUMPDEST PUSH2 0x26BC DUP6 DUP4 DUP7 ADD PUSH2 0x233D JUMP JUMPDEST DUP4 MSTORE PUSH1 0x20 DUP5 ADD CALLDATALOAD PUSH1 0x20 DUP5 ADD MSTORE PUSH2 0x26D5 DUP6 PUSH1 0x40 DUP7 ADD PUSH2 0x2621 JUMP JUMPDEST PUSH1 0x40 DUP5 ADD MSTORE PUSH1 0xA0 DUP5 ADD CALLDATALOAD PUSH1 0x60 DUP5 ADD MSTORE PUSH1 0xC0 DUP5 ADD CALLDATALOAD PUSH1 0x80 DUP5 ADD MSTORE PUSH1 0xE0 DUP5 ADD CALLDATALOAD SWAP2 POP DUP1 DUP3 GT ISZERO PUSH2 0x2702 JUMPI PUSH1 0x0 DUP1 REVERT JUMPDEST POP PUSH2 0x2415 DUP5 DUP3 DUP6 ADD PUSH2 0x233D JUMP JUMPDEST PUSH1 0x0 DUP1 PUSH1 0x0 PUSH1 0x60 DUP5 DUP7 SUB SLT ISZERO PUSH2 0x2724 JUMPI PUSH1 0x0 DUP1 REVERT JUMPDEST DUP4 CALLDATALOAD PUSH1 0x1 PUSH1 0x1 PUSH1 0x40 SHL SUB DUP2 GT ISZERO PUSH2 0x273A JUMPI PUSH1 0x0 DUP1 REVERT JUMPDEST PUSH2 0x2746 DUP7 DUP3 DUP8 ADD PUSH2 0x267C JUMP JUMPDEST SWAP7 PUSH1 0x20 DUP7 ADD CALLDATALOAD SWAP7 POP PUSH1 0x40 SWAP1 SWAP6 ADD CALLDATALOAD SWAP5 SWAP4 POP POP POP POP JUMP JUMPDEST DUP1 MLOAD PUSH2 0x100 DUP1 DUP5 MSTORE DUP2 MLOAD SWAP1 DUP5 ADD DUP2 SWAP1 MSTORE PUSH1 0x0 SWAP2 PUSH2 0x120 DUP6 ADD SWAP2 PUSH1 0x20 SWAP2 DUP3 ADD SWAP1 DUP5 JUMPDEST DUP2 DUP2 LT ISZERO PUSH2 0x2799 JUMPI DUP3 MLOAD DUP6 MSTORE SWAP4 DUP4 ADD SWAP4 SWAP2 DUP4 ADD SWAP2 PUSH1 0x1 ADD PUSH2 0x277D JUMP JUMPDEST POP POP POP DUP4 DUP2 ADD MLOAD SWAP1 DUP6 ADD MSTORE PUSH1 0x40 DUP1 DUP5 ADD MLOAD DUP1 MLOAD DUP3 DUP8 ADD MSTORE PUSH1 0x20 DUP2 ADD MLOAD PUSH1 0x60 DUP8 ADD MSTORE SWAP1 DUP2 ADD MLOAD PUSH1 0x80 DUP7 ADD MSTORE POP PUSH1 0x60 DUP4 ADD MLOAD PUSH1 0xA0 DUP6 ADD MSTORE PUSH1 0x80 DUP4 ADD MLOAD PUSH1 0xC0 DUP6 ADD MSTORE PUSH1 0xA0 DUP4 ADD MLOAD DUP5 DUP3 SUB PUSH1 0xE0 DUP7 ADD MSTORE PUSH2 0x27EF DUP3 DUP3 PUSH2 0x2503 JUMP JUMPDEST SWAP6 SWAP5 POP POP POP POP POP JUMP JUMPDEST PUSH1 0x20 DUP2 MSTORE PUSH1 0x0 PUSH2 0xD4E PUSH1 0x20 DUP4 ADD DUP5 PUSH2 0x275C JUMP JUMPDEST PUSH1 0x0 DUP1 PUSH1 0x40 DUP4 DUP6 SUB SLT ISZERO PUSH2 0x281E JUMPI PUSH1 0x0 DUP1 REVERT JUMPDEST DUP3 CALLDATALOAD PUSH1 0x1 PUSH1 0x1 PUSH1 0x40 SHL SUB DUP2 GT ISZERO PUSH2 0x2834 JUMPI PUSH1 0x0 DUP1 REVERT JUMPDEST PUSH2 0x2840 DUP6 DUP3 DUP7 ADD PUSH2 0x2421 JUMP JUMPDEST SWAP6 PUSH1 0x20 SWAP5 SWAP1 SWAP5 ADD CALLDATALOAD SWAP5 POP POP POP POP JUMP JUMPDEST DUP3 DUP2 MSTORE PUSH1 0x80 DUP2 ADD PUSH2 0xD4E PUSH1 0x20 DUP4 ADD DUP5 DUP1 MLOAD DUP3 MSTORE PUSH1 0x20 DUP1 DUP3 ADD MLOAD SWAP1 DUP4 ADD MSTORE PUSH1 0x40 SWAP1 DUP2 ADD MLOAD SWAP2 ADD MSTORE JUMP JUMPDEST PUSH1 0x0 DUP1 PUSH1 0x0 DUP1 PUSH1 0x80 DUP6 DUP8 SUB SLT ISZERO PUSH2 0x288D JUMPI PUSH1 0x0 DUP1 REVERT JUMPDEST DUP5 CALLDATALOAD PUSH1 0x1 PUSH1 0x1 PUSH1 0x40 SHL SUB DUP1 DUP3 GT ISZERO PUSH2 0x28A4 JUMPI PUSH1 0x0 DUP1 REVERT JUMPDEST PUSH2 0x28B0 DUP9 DUP4 DUP10 ADD PUSH2 0x267C JUMP JUMPDEST SWAP6 POP PUSH1 0x20 DUP8 ADD CALLDATALOAD SWAP2 POP DUP1 DUP3 GT ISZERO PUSH2 0x28C6 JUMPI PUSH1 0x0 DUP1 REVERT JUMPDEST PUSH2 0x28D2 DUP9 DUP4 DUP10 ADD PUSH2 0x2421 JUMP JUMPDEST SWAP5 POP PUSH1 0x40 DUP8 ADD CALLDATALOAD SWAP4 POP PUSH1 0x60 DUP8 ADD CALLDATALOAD SWAP2 POP DUP1 DUP3 GT ISZERO PUSH2 0x28EF JUMPI PUSH1 0x0 DUP1 REVERT JUMPDEST POP PUSH2 0x28FC DUP8 DUP3 DUP9 ADD PUSH2 0x2421 JUMP JUMPDEST SWAP2 POP POP SWAP3 SWAP6 SWAP2 SWAP5 POP SWAP3 POP JUMP JUMPDEST PUSH1 0x40 DUP2 MSTORE PUSH1 0x0 PUSH2 0x291B PUSH1 0x40 DUP4 ADD DUP6 PUSH2 0x275C JUMP JUMPDEST DUP3 DUP2 SUB PUSH1 0x20 DUP5 ADD MSTORE PUSH2 0x27EF DUP2 DUP6 PUSH2 0x2585 JUMP JUMPDEST PUSH1 0x0 PUSH1 0x20 DUP3 DUP5 SUB SLT ISZERO PUSH2 0x293F JUMPI PUSH1 0x0 DUP1 REVERT JUMPDEST DUP2 CALLDATALOAD PUSH1 0x1 PUSH1 0x1 PUSH1 0x40 SHL SUB DUP2 GT ISZERO PUSH2 0x2955 JUMPI PUSH1 0x0 DUP1 REVERT JUMPDEST PUSH2 0x1442 DUP5 DUP3 DUP6 ADD PUSH2 0x23A8 JUMP JUMPDEST PUSH1 0x20 DUP2 MSTORE PUSH1 0x0 PUSH2 0xD4E PUSH1 0x20 DUP4 ADD DUP5 PUSH2 0x253E JUMP JUMPDEST PUSH1 0x0 DUP3 PUSH1 0x1F DUP4 ADD SLT PUSH2 0x2985 JUMPI PUSH1 0x0 DUP1 REVERT JUMPDEST DUP2 CALLDATALOAD PUSH1 0x20 PUSH2 0x2995 PUSH2 0x235E DUP4 PUSH2 0x231A JUMP JUMPDEST DUP3 DUP2 MSTORE PUSH1 0x6 SWAP3 SWAP1 SWAP3 SHL DUP5 ADD DUP2 ADD SWAP2 DUP2 DUP2 ADD SWAP1 DUP7 DUP5 GT ISZERO PUSH2 0x29B4 JUMPI PUSH1 0x0 DUP1 REVERT JUMPDEST DUP3 DUP7 ADD JUMPDEST DUP5 DUP2 LT ISZERO PUSH2 0x239D JUMPI PUSH1 0x40 DUP2 DUP10 SUB SLT ISZERO PUSH2 0x29D1 JUMPI PUSH1 0x0 DUP1 DUP2 REVERT JUMPDEST PUSH2 0x29D9 PUSH2 0x22A6 JUMP JUMPDEST DUP2 CALLDATALOAD DUP2 MSTORE DUP5 DUP3 ADD CALLDATALOAD DUP6 DUP3 ADD MSTORE DUP4 MSTORE SWAP2 DUP4 ADD SWAP2 PUSH1 0x40 ADD PUSH2 0x29B8 JUMP JUMPDEST PUSH1 0x0 DUP1 PUSH1 0x0 PUSH1 0x60 DUP5 DUP7 SUB SLT ISZERO PUSH2 0x2A08 JUMPI PUSH1 0x0 DUP1 REVERT JUMPDEST DUP4 CALLDATALOAD PUSH1 0x1 PUSH1 0x1 PUSH1 0x40 SHL SUB DUP1 DUP3 GT ISZERO PUSH2 0x2A1F JUMPI PUSH1 0x0 DUP1 REVERT JUMPDEST PUSH2 0x2A2B DUP8 DUP4 DUP9 ADD PUSH2 0x2974 JUMP JUMPDEST SWAP5 POP PUSH1 0x20 DUP7 ADD CALLDATALOAD SWAP2 POP DUP1 DUP3 GT ISZERO PUSH2 0x2A41 JUMPI PUSH1 0x0 DUP1 REVERT JUMPDEST PUSH2 0x2A4D DUP8 DUP4 DUP9 ADD PUSH2 0x267C JUMP JUMPDEST SWAP4 POP PUSH1 0x40 DUP7 ADD CALLDATALOAD SWAP2 POP DUP1 DUP3 GT ISZERO PUSH2 0x2A63 JUMPI PUSH1 0x0 DUP1 REVERT JUMPDEST POP PUSH2 0x2A70 DUP7 DUP3 DUP8 ADD PUSH2 0x2421 JUMP JUMPDEST SWAP2 POP POP SWAP3 POP SWAP3 POP SWAP3 JUMP JUMPDEST PUSH1 0x20 DUP1 DUP3 MSTORE DUP3 MLOAD DUP3 DUP3 ADD DUP2 SWAP1 MSTORE PUSH1 0x0 SWAP2 SWAP1 PUSH1 0x40 SWAP1 DUP2 DUP6 ADD SWAP1 DUP7 DUP5 ADD DUP6 JUMPDEST DUP3 DUP2 LT ISZERO PUSH2 0x25CD JUMPI DUP2 MLOAD DUP1 MLOAD DUP6 MSTORE DUP7 ADD MLOAD DUP7 DUP6 ADD MSTORE SWAP3 DUP5 ADD SWAP3 SWAP1 DUP6 ADD SWAP1 PUSH1 0x1 ADD PUSH2 0x2A97 JUMP JUMPDEST PUSH1 0x0 PUSH1 0xC0 DUP3 DUP5 SUB SLT ISZERO PUSH2 0x2ACE JUMPI PUSH1 0x0 DUP1 REVERT JUMPDEST PUSH2 0x2AD6 PUSH2 0x22C8 JUMP JUMPDEST SWAP1 POP DUP2 CALLDATALOAD DUP2 MSTORE PUSH1 0x20 PUSH2 0x2AEA DUP5 DUP3 DUP6 ADD PUSH2 0x2621 JUMP JUMPDEST DUP2 DUP4 ADD MSTORE PUSH1 0x80 DUP4 ADD CALLDATALOAD PUSH1 0x1 PUSH1 0x1 PUSH1 0x40 SHL SUB DUP1 DUP3 GT ISZERO PUSH2 0x2B08 JUMPI PUSH1 0x0 DUP1 REVERT JUMPDEST DUP2 DUP6 ADD SWAP2 POP DUP6 PUSH1 0x1F DUP4 ADD SLT PUSH2 0x2B1C JUMPI PUSH1 0x0 DUP1 REVERT JUMPDEST DUP2 CALLDATALOAD PUSH2 0x2B2A PUSH2 0x235E DUP3 PUSH2 0x231A JUMP JUMPDEST DUP2 DUP2 MSTORE PUSH1 0x5 SWAP2 SWAP1 SWAP2 SHL DUP4 ADD DUP5 ADD SWAP1 DUP5 DUP2 ADD SWAP1 DUP9 DUP4 GT ISZERO PUSH2 0x2B49 JUMPI PUSH1 0x0 DUP1 REVERT JUMPDEST DUP6 DUP6 ADD JUMPDEST DUP4 DUP2 LT ISZERO PUSH2 0x2B81 JUMPI DUP1 CALLDATALOAD DUP6 DUP2 GT ISZERO PUSH2 0x2B65 JUMPI PUSH1 0x0 DUP1 DUP2 REVERT JUMPDEST PUSH2 0x2B73 DUP12 DUP10 DUP4 DUP11 ADD ADD PUSH2 0x267C JUMP JUMPDEST DUP5 MSTORE POP SWAP2 DUP7 ADD SWAP2 DUP7 ADD PUSH2 0x2B4D JUMP JUMPDEST POP PUSH1 0x40 DUP8 ADD MSTORE POP POP PUSH1 0xA0 DUP6 ADD CALLDATALOAD SWAP3 POP DUP1 DUP4 GT ISZERO PUSH2 0x2B9D JUMPI PUSH1 0x0 DUP1 REVERT JUMPDEST POP POP PUSH2 0x2BAB DUP5 DUP3 DUP6 ADD PUSH2 0x2421 JUMP JUMPDEST PUSH1 0x60 DUP4 ADD MSTORE POP SWAP3 SWAP2 POP POP JUMP JUMPDEST PUSH1 0x0 DUP1 PUSH1 0x0 PUSH1 0x60 DUP5 DUP7 SUB SLT ISZERO PUSH2 0x2BCC JUMPI PUSH1 0x0 DUP1 REVERT JUMPDEST DUP4 CALLDATALOAD PUSH1 0x1 PUSH1 0x1 PUSH1 0x40 SHL SUB DUP1 DUP3 GT ISZERO PUSH2 0x2BE3 JUMPI PUSH1 0x0 DUP1 REVERT JUMPDEST PUSH2 0x2A2B DUP8 DUP4 DUP9 ADD PUSH2 0x2ABC JUMP JUMPDEST PUSH1 0x0 DUP2 MLOAD DUP1 DUP5 MSTORE PUSH1 0x20 DUP1 DUP6 ADD DUP1 DUP2 SWAP7 POP DUP4 PUSH1 0x5 SHL DUP2 ADD SWAP2 POP DUP3 DUP7 ADD PUSH1 0x0 JUMPDEST DUP6 DUP2 LT ISZERO PUSH2 0x25CD JUMPI DUP3 DUP5 SUB DUP10 MSTORE PUSH2 0x2C25 DUP5 DUP4 MLOAD PUSH2 0x253E JUMP JUMPDEST SWAP9 DUP6 ADD SWAP9 SWAP4 POP SWAP1 DUP5 ADD SWAP1 PUSH1 0x1 ADD PUSH2 0x2C0D JUMP JUMPDEST PUSH1 0x0 PUSH1 0x20 DUP1 DUP4 MSTORE PUSH1 0xE0 DUP4 ADD DUP5 MLOAD DUP3 DUP6 ADD MSTORE DUP2 DUP6 ADD MLOAD PUSH2 0x2C6D PUSH1 0x40 DUP7 ADD DUP3 DUP1 MLOAD DUP3 MSTORE PUSH1 0x20 DUP1 DUP3 ADD MLOAD SWAP1 DUP4 ADD MSTORE PUSH1 0x40 SWAP1 DUP2 ADD MLOAD SWAP2 ADD MSTORE JUMP JUMPDEST POP PUSH1 0x40 DUP6 ADD MLOAD PUSH1 0xC0 PUSH1 0xA0 DUP7 ADD MSTORE DUP1 MLOAD SWAP2 DUP3 SWAP1 MSTORE PUSH2 0x100 PUSH1 0x5 DUP4 SWAP1 SHL DUP7 ADD DUP2 ADD SWAP3 SWAP2 DUP5 ADD SWAP2 SWAP1 DUP7 ADD SWAP1 PUSH1 0x0 JUMPDEST DUP2 DUP2 LT ISZERO PUSH2 0x2CC6 JUMPI PUSH1 0xFF NOT DUP9 DUP7 SUB ADD DUP4 MSTORE PUSH2 0x2CB4 DUP6 DUP6 MLOAD PUSH2 0x275C JUMP JUMPDEST SWAP5 POP SWAP3 DUP6 ADD SWAP3 SWAP2 DUP6 ADD SWAP2 PUSH1 0x1 ADD PUSH2 0x2C98 JUMP JUMPDEST POP POP POP POP PUSH1 0x60 DUP6 ADD MLOAD DUP5 DUP3 SUB PUSH1 0x1F NOT ADD PUSH1 0xC0 DUP7 ADD MSTORE SWAP2 POP PUSH2 0x27EF DUP2 DUP4 PUSH2 0x2BEF JUMP JUMPDEST PUSH1 0x0 DUP1 PUSH1 0x40 DUP4 DUP6 SUB SLT ISZERO PUSH2 0x2CFA JUMPI PUSH1 0x0 DUP1 REVERT JUMPDEST DUP3 CALLDATALOAD PUSH1 0x1 PUSH1 0x1 PUSH1 0x40 SHL SUB DUP1 DUP3 GT ISZERO PUSH2 0x2D11 JUMPI PUSH1 0x0 DUP1 REVERT JUMPDEST PUSH2 0x2D1D DUP7 DUP4 DUP8 ADD PUSH2 0x2ABC JUMP JUMPDEST SWAP4 POP PUSH1 0x20 DUP6 ADD CALLDATALOAD SWAP2 POP DUP1 DUP3 GT ISZERO PUSH2 0x2D33 JUMPI PUSH1 0x0 DUP1 REVERT JUMPDEST POP PUSH2 0x24F9 DUP6 DUP3 DUP7 ADD PUSH2 0x2ABC JUMP JUMPDEST PUSH1 0x0 DUP1 PUSH1 0x0 PUSH1 0x60 DUP5 DUP7 SUB SLT ISZERO PUSH2 0x2D55 JUMPI PUSH1 0x0 DUP1 REVERT JUMPDEST DUP4 CALLDATALOAD PUSH1 0x1 PUSH1 0x1 PUSH1 0x40 SHL SUB DUP2 GT ISZERO PUSH2 0x2D6B JUMPI PUSH1 0x0 DUP1 REVERT JUMPDEST PUSH2 0x2746 DUP7 DUP3 DUP8 ADD PUSH2 0x2974 JUMP JUMPDEST PUSH1 0x0 DUP1 PUSH1 0x40 DUP4 DUP6 SUB SLT ISZERO PUSH2 0x2D8A JUMPI PUSH1 0x0 DUP1 REVERT JUMPDEST DUP3 CALLDATALOAD PUSH1 0x1 PUSH1 0x1 PUSH1 0x40 SHL SUB DUP1 DUP3 GT ISZERO PUSH2 0x2DA1 JUMPI PUSH1 0x0 DUP1 REVERT JUMPDEST PUSH2 0x24D6 DUP7 DUP4 DUP8 ADD PUSH2 0x267C JUMP JUMPDEST PUSH1 0x0 DUP1 PUSH1 0x40 DUP4 DUP6 SUB SLT ISZERO PUSH2 0x2DC0 JUMPI PUSH1 0x0 DUP1 REVERT JUMPDEST DUP3 CALLDATALOAD PUSH1 0x1 PUSH1 0x1 PUSH1 0x40 SHL SUB DUP2 GT ISZERO PUSH2 0x2DD6 JUMPI PUSH1 0x0 DUP1 REVERT JUMPDEST PUSH2 0x2840 DUP6 DUP3 DUP7 ADD PUSH2 0x2974 JUMP JUMPDEST PUSH1 0x0 DUP1 PUSH1 0x40 DUP4 DUP6 SUB SLT ISZERO PUSH2 0x2DF5 JUMPI PUSH1 0x0 DUP1 REVERT JUMPDEST DUP3 CALLDATALOAD PUSH1 0x1 PUSH1 0x1 PUSH1 0x40 SHL SUB DUP1 DUP3 GT ISZERO PUSH2 0x2E0C JUMPI PUSH1 0x0 DUP1 REVERT JUMPDEST PUSH2 0x2E18 DUP7 DUP4 DUP8 ADD PUSH2 0x2421 JUMP JUMPDEST SWAP4 POP PUSH1 0x20 DUP6 ADD CALLDATALOAD SWAP2 POP DUP1 DUP3 GT ISZERO PUSH2 0x2E2E JUMPI PUSH1 0x0 DUP1 REVERT JUMPDEST POP PUSH2 0x24F9 DUP6 DUP3 DUP7 ADD PUSH2 0x23A8 JUMP JUMPDEST PUSH1 0x0 DUP1 PUSH1 0x0 PUSH1 0x60 DUP5 DUP7 SUB SLT ISZERO PUSH2 0x2E50 JUMPI PUSH1 0x0 DUP1 REVERT JUMPDEST DUP4 CALLDATALOAD PUSH1 0x1 PUSH1 0x1 PUSH1 0x40 SHL SUB DUP2 GT ISZERO PUSH2 0x2E66 JUMPI PUSH1 0x0 DUP1 REVERT JUMPDEST PUSH2 0x2746 DUP7 DUP3 DUP8 ADD PUSH2 0x2421 JUMP JUMPDEST PUSH4 0x4E487B71 PUSH1 0xE0 SHL PUSH1 0x0 MSTORE PUSH1 0x32 PUSH1 0x4 MSTORE PUSH1 0x24 PUSH1 0x0 REVERT JUMPDEST PUSH4 0x4E487B71 PUSH1 0xE0 SHL PUSH1 0x0 MSTORE PUSH1 0x11 PUSH1 0x4 MSTORE PUSH1 0x24 PUSH1 0x0 REVERT JUMPDEST PUSH1 0x0 DUP3 DUP3 LT ISZERO PUSH2 0x2EB0 JUMPI PUSH2 0x2EB0 PUSH2 0x2E88 JUMP JUMPDEST POP SUB SWAP1 JUMP JUMPDEST PUSH1 0x0 PUSH1 0x0 NOT DUP3 EQ ISZERO PUSH2 0x2EC9 JUMPI PUSH2 0x2EC9 PUSH2 0x2E88 JUMP JUMPDEST POP PUSH1 0x1 ADD SWAP1 JUMP JUMPDEST PUSH1 0x0 DUP2 PUSH1 0x0 NOT DIV DUP4 GT DUP3 ISZERO ISZERO AND ISZERO PUSH2 0x2EEA JUMPI PUSH2 0x2EEA PUSH2 0x2E88 JUMP JUMPDEST POP MUL SWAP1 JUMP JUMPDEST PUSH1 0x0 DUP3 PUSH2 0x2F0C JUMPI PUSH4 0x4E487B71 PUSH1 0xE0 SHL PUSH1 0x0 MSTORE PUSH1 0x12 PUSH1 0x4 MSTORE PUSH1 0x24 PUSH1 0x0 REVERT JUMPDEST POP DIV SWAP1 JUMP JUMPDEST PUSH1 0x0 DUP3 NOT DUP3 GT ISZERO PUSH2 0x2F24 JUMPI PUSH2 0x2F24 PUSH2 0x2E88 JUMP JUMPDEST POP ADD SWAP1 JUMP JUMPDEST PUSH1 0x0 PUSH4 0xFFFFFFFF DUP1 DUP4 AND DUP2 DUP2 EQ ISZERO PUSH2 0x2F43 JUMPI PUSH2 0x2F43 PUSH2 0x2E88 JUMP JUMPDEST PUSH1 0x1 ADD SWAP4 SWAP3 POP POP POP JUMP INVALID LOG2 PUSH5 0x6970667358 0x22 SLT KECCAK256 STATICCALL 0xEB PUSH18 0xE7FD9761ACF6338204925E31EA52E54A6342 CREATE 0xDE PUSH27 0x6A4070ACD26A158F64736F6C634300080B00330000000000000000 ","sha1":"ea5c8a48120b49f0d6f86a79849183ede1f382ea","source":"// SPDX-License-Identifier: MIT\n// Beef Contracts v0.0.0 hello@mcdu.com\n\npragma solidity ^0.8.0;\n//import \"./MarketSearch.sol\";\nstruct Quote {\n    uint256 quotemin;\n    uint256 quoteavg;\n    uint256 quotemax;\n}\n\nstruct Remainer {\n    bytes32 currency;\n    uint256 qty;\n}\n\nstruct Solution {\n    uint256 orderid;\n    bytes32 addr;\n    uint256 qty; // can be 0 if it use remainer\n    uint256 granularity;\n    uint256 quote;\n    uint256[] delivery;\n}\nstruct SolutionSetDesc {\n    bytes32[] path;\n    uint256 qty;\n    Quote quote;\n    uint start;\n    uint count;\n    uint[] offset;\n}\nstruct SolutionSet {\n    uint256 qty;\n    Quote quote;\n    //uint256 useddescs;\n    //uint256 usedsolutions;\n    SolutionSetDesc[] descs;\n    Solution[] solutions;\n}\n\nlibrary MarketLib {\n    /*function descFrom(SolutionSetDesc memory desc_) public pure returns (bytes32) {\n        return desc_.path[0];\n    }\n    function descNext(SolutionSetDesc memory desc_) public pure returns (bytes32) {\n        return desc_.path[1];\n    }\n\n    function descTo(SolutionSetDesc memory desc_) public pure returns (bytes32) {\n        return desc_.path[desc_.path.length - 1];\n    }*/\n    function update(Remainer[] memory remainer_,SolutionSetDesc memory in_,Solution[] memory solin_)\n        public\n        pure \n        returns (Remainer[] memory remainerout_)\n    {\n        remainerout_ = remainer_;\n\n        uint len = in_.offset.length;\n        if (in_.offset.length==0)\n            return remainerout_;\n        \n        uint256 previoustotal=0;\n        uint offsetend = solin_.length;\n        for (uint i;i<len+1;i++)\n        {\n            uint offsetstart;\n            if (i==len)\n                offsetstart=0;\n            else\n                offsetstart = in_.offset[len-1-i];\n\n            uint256 total;\n            uint256 qty;\n            for (uint j=offsetstart;j<offsetend;j++)\n            {\n                qty+=solin_[j].qty;\n                total+=(solin_[j].qty*solin_[j].quote)/10**18;\n            }\n            if (i>0)\n            {\n                bytes32 addr = in_.path[in_.path.length-1-i];\n                //remainerout_ = add(remainerout_,addr,qty-previoustotal);\n\n                if (qty>previoustotal)\n                    remainerout_ = add(remainerout_,addr,qty-previoustotal);\n                else if (qty<previoustotal)\n                    remainerout_ = remove(remainerout_,addr,previoustotal-qty);\n            }\n            previoustotal = total;\n            offsetend= offsetstart;\n\n        }\n    }\n    function get(Remainer[] memory remainer_, bytes32 currency_)\n        public\n        pure\n        returns (uint256 qty_)\n    {\n        for (uint256 i; i < remainer_.length; i++)\n            if (remainer_[i].currency == currency_) return remainer_[i].qty;\n        return 0;\n    }\n\n    function add(\n        Remainer[] memory remainer_,\n        bytes32 currency_,\n        uint256 qty_\n    ) public pure returns (Remainer[] memory out_)  {\n        out_ = remainer_;\n        for (uint256 i; i < out_.length; i++)\n            if (out_[i].currency == currency_) {\n                out_[i].qty += qty_;\n                return out_;\n            }\n        out_ = new Remainer[](remainer_.length + 1);\n        for (uint256 i; i < remainer_.length; i++)\n            out_[i] = remainer_[i];\n        out_[remainer_.length].currency = currency_;\n        out_[remainer_.length].qty = qty_;\n        return out_;\n    }\n\n    function remove(\n        Remainer[] memory remainer_,\n        bytes32 currency_,\n        uint256 qty_\n    ) public pure returns (Remainer[] memory out_) {\n        out_ = remainer_;\n        for (uint256 i; i < out_.length; i++)\n            if (out_[i].currency == currency_) {\n                require(out_[i].qty>=qty_,\"Remainer remove qty is superior to remainer qty\");\n                out_[i].qty -= qty_;\n                if (out_[i].qty==0)\n                {\n                    if (out_.length>1)\n                        out_[i] = out_[out_.length-1];\n                    uint outcount = out_.length-1;\n                    assembly {\n                        mstore(out_, outcount)\n                    }\n                }\n                return out_;\n            }\n        return out_;\n    }\n\n    function descAddOffset(SolutionSetDesc memory in_,Solution[] memory solin_, bytes32 currency_, Solution[] memory sol_)\n        public\n        pure\n        returns (SolutionSetDesc memory out_,Solution[] memory solout_)\n    {\n        out_.qty = in_.qty;\n        out_.quote = in_.quote;\n        out_.path = new bytes32[](in_.path.length + 1);\n        for (uint i; i < in_.path.length; i++) out_.path[i+1] = in_.path[i];\n        out_.path[0] = currency_;\n        \n        out_.offset = new uint[](in_.offset.length+1);\n        for (uint i; i < in_.offset.length; i++) out_.offset[i+1] = in_.offset[i]+sol_.length;\n        out_.offset[0] = sol_.length;\n        out_.count = sol_.length+solin_.length;\n        solout_ = combine(sol_,solin_);\n    }\n\n    function descCreateFromTo(\n        SolutionSetDesc memory desc_,\n        bytes32 from_,\n        bytes32 to_\n    ) public pure returns (SolutionSetDesc memory out_) {\n        out_ = desc_;\n        out_.path = new bytes32[](2);\n        out_.path[0] = from_;\n        out_.path[1] = to_;\n    }\n\n    \n    function getIdQty(Solution[] memory sol_, uint256 orderid_)\n        public\n        pure\n        returns (uint256 qty_)\n    {\n        for (uint256 i; i < sol_.length; i++)\n            if (sol_[i].orderid == orderid_) qty_ += sol_[i].qty;\n    }\n    function add(Solution[] memory sols_, Solution memory sol_)\n        public\n        pure\n        returns (Solution[] memory out_)\n    {\n        for (uint256 i; i < sols_.length; i++) {\n            if (sols_[i].orderid == sol_.orderid)\n            {\n                sols_[i].qty += sol_.qty;\n                return sols_;\n            }\n        }\n        Solution[] memory sol = new Solution[](1);\n        sol[0] = sol_;\n        return combine(sols_, sol);\n    }\n    function add(Solution[] memory sols_, Solution[] memory sol_)\n        public\n        pure\n        returns (Solution[] memory out_)\n    {\n        out_ = sols_;\n        for (uint256 i; i < sol_.length; i++) {\n            out_ = add(out_,sol_[i]);\n        }\n    }\n\n    function combine(Solution[] memory sol1_, Solution[] memory sol2_)\n        public\n        pure\n        returns (Solution[] memory out_)\n    {\n        uint256 _sol1len = sol1_.length;\n        uint256 _sol2len = sol2_.length;\n\n        out_ = new Solution[](_sol1len + _sol2len);\n        for (uint256 i; i < _sol1len; i++) {\n            out_[i] = duplicate(sol1_[i]);\n        }\n        for (uint256 i; i < _sol2len; i++) {\n            out_[_sol1len + i] = duplicate(sol2_[i]);\n        }\n    }\n\n    function duplicate(Solution[] memory sol_)\n        public\n        pure\n        returns (Solution[] memory out_)\n    {\n        return duplicate(sol_, 0, sol_.length);\n    }\n\n    function duplicate(\n        Solution[] memory sol_,\n        uint256 start_,\n        uint256 count_\n    ) public pure returns (Solution[] memory out_) {\n        out_ = new Solution[](count_);\n        for (uint256 i; i < count_; i++) {\n            out_[i] = duplicate(sol_[start_ + i]);\n        }\n    }\n\n    function duplicate(Solution memory sol_)\n        public\n        pure\n        returns (Solution memory out_)\n    {\n        out_.orderid = sol_.orderid;\n        out_.addr = sol_.addr;\n        out_.qty = sol_.qty;\n        out_.granularity = sol_.granularity;\n        out_.quote = sol_.quote;\n        out_.delivery = sol_.delivery;\n    }\n\n    /*function filter(Solution[] memory sol_,\n        MarketSearch.SearchArgTarget memory target_,\n        MarketSearch.SearchArg memory searcharg_\n    )\n        public\n        pure\n        returns (Solution[] memory out_)\n    {\n        Solution[] memory _filtered = new Solution[](out_.length);\n        uint256 _count = 0;\n        for (uint256 i; i < out_.length; i++) {\n            //testing maxquote\n            if (\n                (searcharg_.maxquote != 0) &&\n                (out_[i].quote > searcharg_.maxquote)\n            ) continue;\n            if (out_[i].granularity < target_.mingranularity) continue;\n            //if (out_[i].qty < out_[i].granularity) continue;\n            if (out_[i].qty < searcharg_.used.getIdQty(out_[i].orderid))\n                continue;\n            if (\n                (out_[i].qty - searcharg_.used.getIdQty(out_[i].orderid)) <\n                out_[i].granularity\n            ) continue;\n            if (\n                target_.maxcount == 1 &&\n                searcharg_.maxavgquote != 0 &&\n                out_[i].quote > searcharg_.maxavgquote\n            ) continue;\n\n            _filtered[_count] = out_[i];\n            _count++;\n        }\n        assembly {\n            mstore(_filtered, _count)\n        }\n        out_ = _filtered;\n    }*/\n    function order(Solution[] memory sol_)\n        public\n        pure\n        returns (Solution[] memory out_)\n    {\n        out_ = new Solution[](sol_.length);\n        uint256 _count = 0;\n        for (uint256 i; i < sol_.length; i++) {\n            // bubble sort based on quote\n            Solution memory _ordertoinsert = sol_[i];\n            uint j = 0;\n            for (; j < _count; j++) {\n                if (out_[j].quote > _ordertoinsert.quote) {\n                    Solution memory _ordertosave = out_[j];\n                    out_[j] = _ordertoinsert;\n                    _ordertoinsert = _ordertosave;\n                    j++;\n                    break;\n                }\n            }\n\n            for (; j < _count; j++) {\n                Solution memory _ordertosave = out_[j];\n                out_[j] = _ordertoinsert;\n                _ordertoinsert = _ordertosave;\n            }\n\n            out_[_count++] = _ordertoinsert;\n        }\n    }\n\n    function orderGranularity(Solution[] memory sol_)\n        public\n        pure\n        returns (Solution[] memory out_)\n    {\n        out_ = new Solution[](sol_.length);\n        uint256 _count = 0;\n        for (uint256 i; i < sol_.length; i++) {\n            // bubble sort based on quote\n            Solution memory _ordertoinsert = sol_[i];\n            uint32 j = 0;\n            for (; j < _count; j++) {\n                if (\n                    (out_[j].granularity < _ordertoinsert.granularity) ||\n                    ((out_[j].granularity == _ordertoinsert.granularity) &&\n                        (out_[j].quote > _ordertoinsert.quote))\n                ) {\n                    Solution memory _ordertosave = out_[j];\n                    out_[j] = _ordertoinsert;\n                    _ordertoinsert = _ordertosave;\n                    j++;\n                    break;\n                }\n            }\n\n            for (; j < _count; j++) {\n                Solution memory _ordertosave = out_[j];\n                out_[j] = _ordertoinsert;\n                _ordertoinsert = _ordertosave;\n            }\n\n            out_[_count] = _ordertoinsert;\n            _count++;\n        }\n    }\n\n    function filterUsed(Solution[] memory sol_, Solution[] memory used_)\n        public\n        pure\n        returns (Solution[] memory out_)\n    {\n        out_ = new Solution[](sol_.length);\n        uint256 _count = 0;\n        for (uint256 i; i < sol_.length; i++) {\n            // bubble sort based on quote\n\n            Solution memory _ordertoinsert = duplicate(sol_[i]);\n            uint256 _qtyused = getIdQty(used_, _ordertoinsert.orderid);\n            if (_qtyused >= _ordertoinsert.qty) continue;\n            _ordertoinsert.qty -= _qtyused;\n            if (_ordertoinsert.qty < _ordertoinsert.granularity) continue;\n\n            out_[_count] = _ordertoinsert;\n            _count++;\n        }\n        assembly {\n            mstore(out_, _count)\n        }\n    }\n\n    function getQtyQuote(Solution[] memory sol_)\n        public\n        pure\n        returns (uint256 qty_, Quote memory quote_)\n    {\n        return getQtyQuote(sol_, sol_.length);\n    }\n\n    function getQtyQuote(Solution[] memory sol_, uint256 count_)\n        public\n        pure\n        returns (uint256 qty_, Quote memory quote_)\n    {\n        for (uint256 j = 0; j < count_; j++) {\n            if (quote_.quotemin == 0 || quote_.quotemin > sol_[j].quote)\n                quote_.quotemin = sol_[j].quote;\n            if (quote_.quotemax == 0 || quote_.quotemax < sol_[j].quote)\n                quote_.quotemax = sol_[j].quote;\n            quote_.quoteavg += (sol_[j].qty * sol_[j].quote) / 10**18;\n            qty_ += sol_[j].qty;\n        }\n        quote_.quoteavg = qty_!=0 ? (quote_.quoteavg * 10**18) / qty_ : 0;\n    }\n\n    function getQty(Solution[] memory sol_, uint256 count_)\n        public\n        pure\n        returns (uint256 qty_)\n    {\n        for (uint256 i; i < count_; i++) qty_ += sol_[i].qty;\n    }\n\n    function getQty(Solution[] memory sol_) public pure returns (uint256 qty_) {\n        return getQty(sol_, sol_.length);\n    }\n\n    function getHasQty(Solution[] memory sol_, uint256 count_)\n        public\n        pure\n        returns (bool)\n    {\n        for (uint256 i; i < count_; i++) if (sol_[i].qty > 0) return true;\n        return false;\n    }\n\n    function getHasQty(Solution[] memory sol_) public pure returns (bool) {\n        return getHasQty(sol_, sol_.length);\n    }\n\n    function getAvg(Solution[] memory sol_, uint256 count_)\n        public\n        pure\n        returns (uint256 quote_)\n    {\n        uint256 _qty;\n        for (uint256 i; i < count_; i++) {\n            quote_ += (sol_[i].qty * sol_[i].quote) / 10**18;\n            _qty += sol_[i].qty;\n        }\n        if (_qty > 0) quote_ = (quote_ * 10**18) / _qty;\n    }\n\n    function getAvg(Solution[] memory sol_)\n        public\n        pure\n        returns (uint256 quote_)\n    {\n        return getAvg(sol_, sol_.length);\n    }\n\n    function getTotal(Solution[] memory sol_, uint256 count_)\n        public\n        pure\n        returns (uint256 total_)\n    {\n        for (uint256 i; i < count_; i++)\n            total_ += (sol_[i].qty * sol_[i].quote) / 10**18;\n    }\n\n    function getTotal(Solution[] memory sol_)\n        public\n        pure\n        returns (uint256 total_)\n    {\n        return getTotal(sol_, sol_.length);\n    }\n\n    function add(SolutionSet memory set_, SolutionSet memory from_)\n        public\n        pure\n        returns (SolutionSet memory out_)\n    {\n        out_.qty = set_.qty;\n        out_.quote = set_.quote;\n        out_.descs = new SolutionSetDesc[](set_.descs.length + from_.descs.length);\n        for (uint256 i; i < set_.descs.length; i++) out_.descs[i] = set_.descs[i];\n        for (uint256 i; i < from_.descs.length; i++) {\n            out_.descs[set_.descs.length + i] = from_.descs[i];\n            out_.descs[set_.descs.length + i].start += set_.solutions.length;\n        }\n\n        out_.solutions = new Solution[](\n            set_.solutions.length + from_.solutions.length\n        );\n        for (uint256 i; i < set_.solutions.length; i++)\n            out_.solutions[i] = set_.solutions[i];\n        for (uint256 i; i < from_.solutions.length; i++)\n            out_.solutions[set_.solutions.length + i] = from_.solutions[i];\n        out_.quote.quotemin = set_.descs.length == 0 ? from_.quote.quotemin : out_.quote.quotemin>from_.quote.quotemin ? from_.quote.quotemin : out_.quote.quotemin;\n        out_.quote.quotemax = out_.quote.quotemax<from_.quote.quotemax ? from_.quote.quotemax : out_.quote.quotemax;\n        out_.quote.quoteavg = out_.qty+from_.qty!=0 ? (out_.quote.quoteavg*out_.qty + from_.quote.quoteavg*from_.qty) / (out_.qty+from_.qty) : 0;\n        out_.qty += from_.qty;\n\n    }\n    function create(\n        SolutionSetDesc memory desc_,\n        Solution[] memory solutions_\n    ) public pure returns (SolutionSet memory out_) {\n        out_.solutions = duplicate(solutions_);\n\n        out_.descs = new SolutionSetDesc[](1);\n        out_.descs[0] = desc_;\n        out_.descs[0].start = 0;\n        out_.qty = desc_.qty;\n        out_.quote = desc_.quote;\n\n    }\n\n    function add(\n        SolutionSet memory set_,\n        SolutionSetDesc memory desc_,\n        Solution[] memory solutions_\n    ) public pure returns (SolutionSet memory out_) {\n        out_.qty = set_.qty;\n        out_.quote = set_.quote;\n\n        out_.solutions = new Solution[](set_.solutions.length + desc_.count);\n        for (uint256 i; i < set_.solutions.length; i++)\n            out_.solutions[i] = set_.solutions[i];\n        for (uint256 i; i < desc_.count; i++)\n            out_.solutions[set_.solutions.length + i] = solutions_[\n                desc_.start + i\n            ];\n\n        out_.descs = new SolutionSetDesc[](set_.descs.length + 1);\n        for (uint256 i; i < set_.descs.length; i++) out_.descs[i] = set_.descs[i];\n\n        out_.descs[set_.descs.length] = desc_;\n        out_.descs[set_.descs.length].start = set_.solutions.length;\n        out_.quote.quotemin = set_.descs.length == 0 ? desc_.quote.quotemin : out_.quote.quotemin>desc_.quote.quotemin ? desc_.quote.quotemin : out_.quote.quotemin;\n        out_.quote.quotemax = out_.quote.quotemax<desc_.quote.quotemax ? desc_.quote.quotemax : out_.quote.quotemax;\n        out_.quote.quoteavg = out_.qty+desc_.qty!= 0 ? (out_.quote.quoteavg*out_.qty + desc_.quote.quoteavg*desc_.qty) / (out_.qty+desc_.qty) : 0;\n        out_.qty += desc_.qty;\n\n    }\n}\n","sourcePath":"contracts/Market/Lib.sol","type":"library","deployment":{"address":"0x18272A7E819C4cc5dd6909ccF25729535bcb2DC9","chainid":"9997","blockHeight":8868}}