{"bytecode":"60a060405234801561001057600080fd5b5060405162001da538038062001da5833981016040819052610031916100ab565b808061003c33610050565b6001600160a01b0316608052506100db9050565b600080546001600160a01b038381166201000081810262010000600160b01b0319851617855560405193049190911692909183917f8be0079c531659141344cd1fd0a4f28419497f9722a3daafe3b4186f6b6457e091a35050565b6000602082840312156100bd57600080fd5b81516001600160a01b03811681146100d457600080fd5b9392505050565b608051611c766200012f6000396000818161036d0152818161040c015281816104aa0152818161071c015281816108f9015281816109ac01528181610eb5015281816110da01526112cc0152611c766000f3fe608060405234801561001057600080fd5b50600436106101425760003560e01c80637af6649a116100b8578063b03fd40d1161007c578063b03fd40d14610355578063ccc0795914610368578063d69358581461038f578063e4b1614414610397578063f2fde38b146103aa578063feab4454146103bd57610142565b80637af6649a146102cb578063854ba99d146102ec5780638da5cb5b146102f4578063979620761461031f578063af640d0f1461032f57610142565b80632f54bf6e1161010a5780632f54bf6e146102545780635f5c5baa14610267578063629651411461026f5780636b2b091a1461029b578063715018a6146102bb57806372ea61bf146102c357610142565b806301ffc9a7146101c757806305d6bd9c146101ef5780631ef4590d146101f957806321603f431461020c5780632203616d1461022c575b61014a6103e7565b600061015a602460043684611652565b8080601f016020809104026020016040519081016040528093929190818152602001838380828437600092018290525060208501519495509250503660231981019150601f19016004838037816024600437600080826000875af4925050506101c2816105b1565b505050005b6101da6101d536600461167c565b6105c7565b60405190151581526020015b60405180910390f35b6101f76105fe565b005b6101da6102073660046116a6565b610615565b61021f61021a3660046116c8565b6106a6565b6040516101e69190611719565b61023f61023a3660046116c8565b6106b9565b60405163ffffffff90911681526020016101e6565b6101da6102623660046117e3565b6106ca565b6101f76106f7565b61028261027d3660046116c8565b61080c565b60405167ffffffffffffffff90911681526020016101e6565b6102ae6102a93660046116c8565b61083e565b6040516101e69190611800565b6101f7610c61565b6101f7610c73565b6102de6102d936600461188a565b610c8d565b6040519081526020016101e6565b6101da610ca6565b6000546201000090046001600160a01b03165b6040516001600160a01b0390911681526020016101e6565b600054610100900460ff166101da565b7feb634add73ba7469d77cb050607b9b6fce5cb49f6300323b74bb5f11f29c28416102de565b6102de6103633660046118b2565b610cc4565b6103077f000000000000000000000000000000000000000000000000000000000000000081565b6101f7610cdf565b6102de6103a53660046118dc565b610cfb565b6101f76103b83660046117e3565b610d12565b6103d06103cb3660046116c8565b610d8b565b60405165ffffffffffff90911681526020016101e6565b6000546001600160a01b03620100009091041633148061049a57506001600160a01b037f0000000000000000000000000000000000000000000000000000000000000000166316279055336040516001600160e01b031960e084901b1681526001600160a01b039091166004820152602401602060405180830381865afa158015610476573d6000803e3d6000fd5b505050506040513d601f19601f8201168201806040525081019061049a9190611902565b8061053857506001600160a01b037f000000000000000000000000000000000000000000000000000000000000000016636d70f7ae336040516001600160e01b031960e084901b1681526001600160a01b039091166004820152602401602060405180830381865afa158015610514573d6000803e3d6000fd5b505050506040513d601f19601f820116820180604052508101906105389190611902565b6105af5760405162461bcd60e51b815260206004820152603960248201527f416c6c6f77616e63653a2063616c6c6572206d757374206265205265706f736960448201527f746f727920436f6e7472616374206f72204f70657261746f720000000000000060648201526084015b60405180910390fd5b565b3d6000803e8080156105c2573d6000f35b3d6000fd5b60006001600160e01b031982166301ffc9a760e01b14806105f857506001600160e01b031982166315d3789560e31b145b92915050565b6106066103e7565b6105af6000805460ff19169055565b6000828152600160205260408082209051632be5db2360e11b815260048101919091526024810183905273__Array_________________________________906357cbb64690604401602060405180830381865af415801561067b573d6000803e3d6000fd5b505050506040513d601f19601f8201168201806040525081019061069f9190611902565b9392505050565b6106ae6115c3565b6105f8826000610d9c565b60006105f864e8d4a510008361193a565b600080546001600160a01b03838116620100009092041614156106ef57506001919050565b506000919050565b6000546001600160a01b0362010000909104163314806107aa57506001600160a01b037f000000000000000000000000000000000000000000000000000000000000000016636d70f7ae336040516001600160e01b031960e084901b1681526001600160a01b039091166004820152602401602060405180830381865afa158015610786573d6000803e3d6000fd5b505050506040513d601f19601f820116820180604052508101906107aa9190611902565b6105af5760405162461bcd60e51b815260206004820152602d60248201527f416c6c6f77616e63653a2063616c6c6572206d757374206265205265706f736960448201526c3a37b93c9027b832b930ba37b960991b60648201526084016105a6565b60008061081e6402540be4008461193a565b905082610830826402540be40061195c565b11156105f8576105f861197b565b600081815260016020908152604080832080548251818502810185019093528083526060949383018282801561089357602002820191906000526020600020905b81548152602001906001019080831161087f575b50505050509050805167ffffffffffffffff8111156108b4576108b4611991565b6040519080825280602002602001820160405280156108e757816020015b60608152602001906001900390816108d25790505b5091506000805b8251811015610c0e577f00000000000000000000000000000000000000000000000000000000000000006001600160a01b03166338a699a4848381518110610938576109386119a7565b60200260200101516040518263ffffffff1660e01b815260040161095e91815260200190565b602060405180830381865afa15801561097b573d6000803e3d6000fd5b505050506040513d601f19601f8201168201806040525081019061099f9190611902565b6109a857610bfc565b60007f00000000000000000000000000000000000000000000000000000000000000006001600160a01b03166327ee9dc28584815181106109eb576109eb6119a7565b60200260200101516040518263ffffffff1660e01b8152600401610a1191815260200190565b600060405180830381865afa158015610a2e573d6000803e3d6000fd5b505050506040513d6000823e601f3d908101601f19168201604052610a5691908101906119bd565b90506000815111610aa95760405162461bcd60e51b815260206004820152601760248201527f5f706174684c69737420706174682e6c656e6774683e3000000000000000000060448201526064016105a6565b60005b60018251610aba9190611a7b565b811015610bb457610b9973__BytesAndKeccakLib_____________________6376254ff9848481518110610af057610af06119a7565b602002602001015185856001610b069190611a92565b81518110610b1657610b166119a7565b60200260200101516040518363ffffffff1660e01b8152600401610b44929190918252602082015260400190565b602060405180830381865af4158015610b61573d6000803e3d6000fd5b505050506040513d601f19601f82011682018060405250810190610b859190611aaa565b600090815260066020526040902054151590565b610ba257610bb4565b80610bac81611ac3565b915050610aac565b60018251610bc29190611a7b565b811015610bd0575050610bfc565b818685610bdc81611ac3565b965081518110610bee57610bee6119a7565b602002602001018190525050505b80610c0681611ac3565b9150506108ee565b5080835260008111610c5a5760405162461bcd60e51b815260206004820152601560248201527405f6c6973745061746846726f6d20636f756e743e3605c1b60448201526064016105a6565b5050919050565b610c69611507565b6105af6000611568565b610c7b6103e7565b6105af6000805460ff19166001179055565b60006105f865ffffffffffff831664174876e80061195c565b6000805460ff1680610cbf5750600054610100900460ff165b905090565b60006105f867ffffffffffffffff83166402540be40061195c565b610ce7611507565b6105af6000805461ff001916610100179055565b60006105f863ffffffff831664e8d4a5100061195c565b610d1a611507565b6001600160a01b038116610d7f5760405162461bcd60e51b815260206004820152602660248201527f4f776e61626c653a206e6577206f776e657220697320746865207a65726f206160448201526564647265737360d01b60648201526084016105a6565b610d8881611568565b50565b60006105f864174876e8008361193a565b610da46115c3565b60008381526005602081815260408084208151610180810183528154815260018201546001600160a01b0381169482019490945293909291840191600160a01b900460ff1690811115610df957610df96116e1565b6005811115610e0a57610e0a6116e1565b81526001820154600160a81b900460ff1660208201526002820154604080830191909152600383015467ffffffffffffffff80821660608501526801000000000000000080830482166080860152600160801b808404831660a0870152600160c01b909304821660c086015260049586015480831660e087015290810482166101008601529190910416610120909201919091528251905163657c7e0960e01b8152918201529091507f00000000000000000000000000000000000000000000000000000000000000006001600160a01b03169063657c7e09906024016040805180830381865afa158015610f03573d6000803e3d6000fd5b505050506040513d601f19601f82011682018060405250810190610f279190611ade565b60408401526020830152608081015160608301528280610fc0575060608101516040516336181b6760e11b815260ff909116600482015273__Order_________________________________90636c3036ce90602401602060405180830381865af4158015610f9a573d6000803e3d6000fd5b505050506040513d601f19601f82011682018060405250810190610fbe9190611902565b155b156114445760208101516001600160a01b0316825260a0810151610fe390610cc4565b60808301526060810151604051632b2076e360e11b815260ff909116600482015273__Order_________________________________90635640edc690602401602060405180830381865af4158015611040573d6000803e3d6000fd5b505050506040513d601f19601f820116820180604052508101906110649190611902565b1561107857608082015160a08301526111c5565b61012081015167ffffffffffffffff16156110a55761109b816101200151610cc4565b60a08301526111c5565b60405163023aa9ab60e61b81527fcd775f2396f9f13f12bcf8ca32e21df66559a8adc3944d0591127e7731f7ab8560048201527f00000000000000000000000000000000000000000000000000000000000000006001600160a01b031690638eaa6ac090602401602060405180830381865afa158015611129573d6000803e3d6000fd5b505050506040513d601f19601f8201168201806040525081019061114d9190611b02565b6001600160a01b031663a9bf985883602001516040518263ffffffff1660e01b815260040161117e91815260200190565b602060405180830381865afa15801561119b573d6000803e3d6000fd5b505050506040513d601f19601f820116820180604052508101906111bf9190611aaa565b60a08301525b6111d28160c00151610cc4565b60c083015260e08101516111e590610cc4565b60e08301526060810151604051635b7d0f6960e11b815260ff909116600482015273__Order_________________________________9063b6fa1ed290602401602060405180830381865af4158015611242573d6000803e3d6000fd5b505050506040513d601f19601f820116820180604052508101906112669190611902565b1561142f57611279816101400151610cc4565b61012083015261016081015161128e90610cc4565b61014083015260405163023aa9ab60e61b81527f3cb99135f7a7c088d9085b446345038a22a85f4e8fe072b0e1b66d97243e745860048201526000907f00000000000000000000000000000000000000000000000000000000000000006001600160a01b031690638eaa6ac090602401602060405180830381865afa15801561131b573d6000803e3d6000fd5b505050506040513d601f19601f8201168201806040525081019061133f9190611b02565b6001600160a01b0316636464b68a846020015185604001516040518363ffffffff1660e01b815260040161137d929190918252602082015260400190565b606060405180830381865afa15801561139a573d6000803e3d6000fd5b505050506040513d601f19601f820116820180604052508101906113be9190611b1f565b50915050806114035760405162461bcd60e51b8152602060048201526011602482015270145d5bdd194e88139bdd081c5d5bdd1959607a1b60448201526064016105a6565b610140830151611413908261193a565b836101200151611423919061195c565b61010084015250611444565b61143d816101000151610cc4565b6101008301525b604051630212d6cb60e21b815273__Order_________________________________9063084b5b2c9061147b908490600401611b4d565b602060405180830381865af4158015611498573d6000803e3d6000fd5b505050506040513d601f19601f820116820180604052508101906114bc9190611aaa565b610160830152604081015161018083019060058111156114de576114de6116e1565b908160058111156114f1576114f16116e1565b9052506060015160ff166101a082015292915050565b6000546001600160a01b03620100009091041633146105af5760405162461bcd60e51b815260206004820152601f60248201527f416c6c6f77616e63653a2063616c6c6572206d757374206265204f776e65720060448201526064016105a6565b600080546001600160a01b038381166201000081810262010000600160b01b0319851617855560405193049190911692909183917f8be0079c531659141344cd1fd0a4f28419497f9722a3daafe3b4186f6b6457e091a35050565b604051806101c0016040528060006001600160a01b03168152602001600080191681526020016000801916815260200160008152602001600081526020016000815260200160008152602001600081526020016000815260200160008152602001600081526020016000815260200160006005811115611645576116456116e1565b8152600060209091015290565b6000808585111561166257600080fd5b8386111561166f57600080fd5b5050820193919092039150565b60006020828403121561168e57600080fd5b81356001600160e01b03198116811461069f57600080fd5b600080604083850312156116b957600080fd5b50508035926020909101359150565b6000602082840312156116da57600080fd5b5035919050565b634e487b7160e01b600052602160045260246000fd5b6006811061171557634e487b7160e01b600052602160045260246000fd5b9052565b81516001600160a01b031681526101c081016020830151602083015260408301516040830152606083015160608301526080830151608083015260a083015160a083015260c083015160c083015260e083015160e0830152610100808401518184015250610120808401518184015250610140808401518184015250610160808401518184015250610180808401516117b4828501826116f7565b50506101a08381015160ff8116848301525b505092915050565b6001600160a01b0381168114610d8857600080fd5b6000602082840312156117f557600080fd5b813561069f816117ce565b6000602080830181845280855180835260408601915060408160051b87010192508387016000805b8381101561187c57888603603f19018552825180518088529088019088880190845b818110156118665783518352928a0192918a019160010161184a565b5090975050509386019391860191600101611828565b509398975050505050505050565b60006020828403121561189c57600080fd5b813565ffffffffffff8116811461069f57600080fd5b6000602082840312156118c457600080fd5b813567ffffffffffffffff8116811461069f57600080fd5b6000602082840312156118ee57600080fd5b813563ffffffff8116811461069f57600080fd5b60006020828403121561191457600080fd5b8151801515811461069f57600080fd5b634e487b7160e01b600052601160045260246000fd5b60008261195757634e487b7160e01b600052601260045260246000fd5b500490565b600081600019048311821515161561197657611976611924565b500290565b634e487b7160e01b600052600160045260246000fd5b634e487b7160e01b600052604160045260246000fd5b634e487b7160e01b600052603260045260246000fd5b600060208083850312156119d057600080fd5b825167ffffffffffffffff808211156119e857600080fd5b818501915085601f8301126119fc57600080fd5b815181811115611a0e57611a0e611991565b8060051b604051601f19603f83011681018181108582111715611a3357611a33611991565b604052918252848201925083810185019188831115611a5157600080fd5b938501935b82851015611a6f57845184529385019392850192611a56565b98975050505050505050565b600082821015611a8d57611a8d611924565b500390565b60008219821115611aa557611aa5611924565b500190565b600060208284031215611abc57600080fd5b5051919050565b6000600019821415611ad757611ad7611924565b5060010190565b60008060408385031215611af157600080fd5b505080516020909101519092909150565b600060208284031215611b1457600080fd5b815161069f816117ce565b600080600060608486031215611b3457600080fd5b8351925060208401519150604084015190509250925092565b81518152602080830151610180830191611b71908401826001600160a01b03169052565b506040830151611b8460408401826116f7565b506060830151611b99606084018260ff169052565b506080830151608083015260a0830151611bbf60a084018267ffffffffffffffff169052565b5060c0830151611bdb60c084018267ffffffffffffffff169052565b5060e0830151611bf760e084018267ffffffffffffffff169052565b506101008381015167ffffffffffffffff9081169184019190915261012080850151821690840152610140808501518216908401526101608085015191821681850152906117c656fea2646970667358221220ca29b7326bcba1f3d0030966f5dda5df8004264070745b3d46fc703af01778ff64736f6c634300080b0033","bytecodeSha1":"c8c9b267a74c33833cddb759b61a111708723d60","type":"contract","abi":[{"inputs":[{"internalType":"contract Repository","name":"rep_","type":"address"}],"stateMutability":"nonpayable","type":"constructor","name":"constructor"},{"anonymous":false,"inputs":[{"indexed":true,"internalType":"address","name":"previousOwner","type":"address"},{"indexed":true,"internalType":"address","name":"newOwner","type":"address"}],"name":"OwnershipTransferred","type":"event"},{"stateMutability":"nonpayable","type":"fallback"},{"inputs":[],"name":"STOP","outputs":[{"internalType":"bool","name":"","type":"bool"}],"stateMutability":"view","type":"function"},{"inputs":[],"name":"STOPFOREVER","outputs":[{"internalType":"bool","name":"","type":"bool"}],"stateMutability":"view","type":"function"},{"inputs":[{"internalType":"uint256","name":"val_","type":"uint256"}],"name":"UInt256ToUInt32","outputs":[{"internalType":"uint32","name":"","type":"uint32"}],"stateMutability":"pure","type":"function"},{"inputs":[{"internalType":"uint256","name":"val_","type":"uint256"}],"name":"UInt256ToUInt48","outputs":[{"internalType":"uint48","name":"","type":"uint48"}],"stateMutability":"pure","type":"function"},{"inputs":[{"internalType":"uint256","name":"val_","type":"uint256"}],"name":"UInt256ToUInt64","outputs":[{"internalType":"uint64","name":"","type":"uint64"}],"stateMutability":"pure","type":"function"},{"inputs":[{"internalType":"uint32","name":"val_","type":"uint32"}],"name":"UInt32ToUInt256","outputs":[{"internalType":"uint256","name":"","type":"uint256"}],"stateMutability":"pure","type":"function"},{"inputs":[{"internalType":"uint48","name":"val_","type":"uint48"}],"name":"UInt48ToUInt256","outputs":[{"internalType":"uint256","name":"","type":"uint256"}],"stateMutability":"pure","type":"function"},{"inputs":[{"internalType":"uint64","name":"val_","type":"uint64"}],"name":"UInt64ToUInt256","outputs":[{"internalType":"uint256","name":"","type":"uint256"}],"stateMutability":"pure","type":"function"},{"inputs":[{"internalType":"bytes32","name":"_from","type":"bytes32"},{"internalType":"bytes32","name":"fromto_","type":"bytes32"}],"name":"_existPath","outputs":[{"internalType":"bool","name":"","type":"bool"}],"stateMutability":"view","type":"function"},{"inputs":[{"internalType":"bytes32","name":"from_","type":"bytes32"}],"name":"_listPathFrom","outputs":[{"internalType":"bytes32[][]","name":"out_","type":"bytes32[][]"}],"stateMutability":"view","type":"function"},{"inputs":[],"name":"checkOperators","outputs":[],"stateMutability":"view","type":"function"},{"inputs":[],"name":"id","outputs":[{"internalType":"bytes32","name":"","type":"bytes32"}],"stateMutability":"view","type":"function"},{"inputs":[{"internalType":"address","name":"caller_","type":"address"}],"name":"isOwner","outputs":[{"internalType":"bool","name":"","type":"bool"}],"stateMutability":"view","type":"function"},{"inputs":[{"internalType":"uint256","name":"order_","type":"uint256"}],"name":"order","outputs":[{"components":[{"internalType":"address","name":"account","type":"address"},{"internalType":"bytes32","name":"from","type":"bytes32"},{"internalType":"bytes32","name":"to","type":"bytes32"},{"internalType":"uint256","name":"orderid","type":"uint256"},{"internalType":"uint256","name":"qty","type":"uint256"},{"internalType":"uint256","name":"granularity","type":"uint256"},{"internalType":"uint256","name":"qtydone","type":"uint256"},{"internalType":"uint256","name":"originalqty","type":"uint256"},{"internalType":"uint256","name":"quote","type":"uint256"},{"internalType":"uint256","name":"originalquote","type":"uint256"},{"internalType":"uint256","name":"originalbasedquote","type":"uint256"},{"internalType":"uint256","name":"expire","type":"uint256"},{"internalType":"enum Order.State","name":"state","type":"uint8"},{"internalType":"uint8","name":"options","type":"uint8"}],"internalType":"struct Order.InfoPublic","name":"","type":"tuple"}],"stateMutability":"view","type":"function"},{"inputs":[],"name":"owner","outputs":[{"internalType":"address","name":"","type":"address"}],"stateMutability":"view","type":"function"},{"inputs":[],"name":"renounceOwnership","outputs":[],"stateMutability":"nonpayable","type":"function"},{"inputs":[],"name":"rep","outputs":[{"internalType":"contract Repository","name":"","type":"address"}],"stateMutability":"view","type":"function"},{"inputs":[],"name":"setSTOP","outputs":[],"stateMutability":"nonpayable","type":"function"},{"inputs":[],"name":"setSTOPFOREVER","outputs":[],"stateMutability":"nonpayable","type":"function"},{"inputs":[{"internalType":"bytes4","name":"interfaceId","type":"bytes4"}],"name":"supportsInterface","outputs":[{"internalType":"bool","name":"","type":"bool"}],"stateMutability":"view","type":"function"},{"inputs":[{"internalType":"address","name":"newOwner","type":"address"}],"name":"transferOwnership","outputs":[],"stateMutability":"nonpayable","type":"function"},{"inputs":[],"name":"unsetSTOP","outputs":[],"stateMutability":"nonpayable","type":"function"}],"compiler":{"version":"0.8.11+commit.d7f03943","evm_version":"istanbul","optimizer":{"enabled":true,"runs":200}},"contractName":"MarketSearchComplex","deployedBytecode":"608060405234801561001057600080fd5b50600436106101425760003560e01c80637af6649a116100b8578063b03fd40d1161007c578063b03fd40d14610355578063ccc0795914610368578063d69358581461038f578063e4b1614414610397578063f2fde38b146103aa578063feab4454146103bd57610142565b80637af6649a146102cb578063854ba99d146102ec5780638da5cb5b146102f4578063979620761461031f578063af640d0f1461032f57610142565b80632f54bf6e1161010a5780632f54bf6e146102545780635f5c5baa14610267578063629651411461026f5780636b2b091a1461029b578063715018a6146102bb57806372ea61bf146102c357610142565b806301ffc9a7146101c757806305d6bd9c146101ef5780631ef4590d146101f957806321603f431461020c5780632203616d1461022c575b61014a6103e7565b600061015a602460043684611652565b8080601f016020809104026020016040519081016040528093929190818152602001838380828437600092018290525060208501519495509250503660231981019150601f19016004838037816024600437600080826000875af4925050506101c2816105b1565b505050005b6101da6101d536600461167c565b6105c7565b60405190151581526020015b60405180910390f35b6101f76105fe565b005b6101da6102073660046116a6565b610615565b61021f61021a3660046116c8565b6106a6565b6040516101e69190611719565b61023f61023a3660046116c8565b6106b9565b60405163ffffffff90911681526020016101e6565b6101da6102623660046117e3565b6106ca565b6101f76106f7565b61028261027d3660046116c8565b61080c565b60405167ffffffffffffffff90911681526020016101e6565b6102ae6102a93660046116c8565b61083e565b6040516101e69190611800565b6101f7610c61565b6101f7610c73565b6102de6102d936600461188a565b610c8d565b6040519081526020016101e6565b6101da610ca6565b6000546201000090046001600160a01b03165b6040516001600160a01b0390911681526020016101e6565b600054610100900460ff166101da565b7feb634add73ba7469d77cb050607b9b6fce5cb49f6300323b74bb5f11f29c28416102de565b6102de6103633660046118b2565b610cc4565b6103077f000000000000000000000000000000000000000000000000000000000000000081565b6101f7610cdf565b6102de6103a53660046118dc565b610cfb565b6101f76103b83660046117e3565b610d12565b6103d06103cb3660046116c8565b610d8b565b60405165ffffffffffff90911681526020016101e6565b6000546001600160a01b03620100009091041633148061049a57506001600160a01b037f0000000000000000000000000000000000000000000000000000000000000000166316279055336040516001600160e01b031960e084901b1681526001600160a01b039091166004820152602401602060405180830381865afa158015610476573d6000803e3d6000fd5b505050506040513d601f19601f8201168201806040525081019061049a9190611902565b8061053857506001600160a01b037f000000000000000000000000000000000000000000000000000000000000000016636d70f7ae336040516001600160e01b031960e084901b1681526001600160a01b039091166004820152602401602060405180830381865afa158015610514573d6000803e3d6000fd5b505050506040513d601f19601f820116820180604052508101906105389190611902565b6105af5760405162461bcd60e51b815260206004820152603960248201527f416c6c6f77616e63653a2063616c6c6572206d757374206265205265706f736960448201527f746f727920436f6e7472616374206f72204f70657261746f720000000000000060648201526084015b60405180910390fd5b565b3d6000803e8080156105c2573d6000f35b3d6000fd5b60006001600160e01b031982166301ffc9a760e01b14806105f857506001600160e01b031982166315d3789560e31b145b92915050565b6106066103e7565b6105af6000805460ff19169055565b6000828152600160205260408082209051632be5db2360e11b815260048101919091526024810183905273__$f71e59c5327218924d154e230469c101bd$__906357cbb64690604401602060405180830381865af415801561067b573d6000803e3d6000fd5b505050506040513d601f19601f8201168201806040525081019061069f9190611902565b9392505050565b6106ae6115c3565b6105f8826000610d9c565b60006105f864e8d4a510008361193a565b600080546001600160a01b03838116620100009092041614156106ef57506001919050565b506000919050565b6000546001600160a01b0362010000909104163314806107aa57506001600160a01b037f000000000000000000000000000000000000000000000000000000000000000016636d70f7ae336040516001600160e01b031960e084901b1681526001600160a01b039091166004820152602401602060405180830381865afa158015610786573d6000803e3d6000fd5b505050506040513d601f19601f820116820180604052508101906107aa9190611902565b6105af5760405162461bcd60e51b815260206004820152602d60248201527f416c6c6f77616e63653a2063616c6c6572206d757374206265205265706f736960448201526c3a37b93c9027b832b930ba37b960991b60648201526084016105a6565b60008061081e6402540be4008461193a565b905082610830826402540be40061195c565b11156105f8576105f861197b565b600081815260016020908152604080832080548251818502810185019093528083526060949383018282801561089357602002820191906000526020600020905b81548152602001906001019080831161087f575b50505050509050805167ffffffffffffffff8111156108b4576108b4611991565b6040519080825280602002602001820160405280156108e757816020015b60608152602001906001900390816108d25790505b5091506000805b8251811015610c0e577f00000000000000000000000000000000000000000000000000000000000000006001600160a01b03166338a699a4848381518110610938576109386119a7565b60200260200101516040518263ffffffff1660e01b815260040161095e91815260200190565b602060405180830381865afa15801561097b573d6000803e3d6000fd5b505050506040513d601f19601f8201168201806040525081019061099f9190611902565b6109a857610bfc565b60007f00000000000000000000000000000000000000000000000000000000000000006001600160a01b03166327ee9dc28584815181106109eb576109eb6119a7565b60200260200101516040518263ffffffff1660e01b8152600401610a1191815260200190565b600060405180830381865afa158015610a2e573d6000803e3d6000fd5b505050506040513d6000823e601f3d908101601f19168201604052610a5691908101906119bd565b90506000815111610aa95760405162461bcd60e51b815260206004820152601760248201527f5f706174684c69737420706174682e6c656e6774683e3000000000000000000060448201526064016105a6565b60005b60018251610aba9190611a7b565b811015610bb457610b9973__$669c6e0eba2465bd6779ea6ec5db3af1b5$__6376254ff9848481518110610af057610af06119a7565b602002602001015185856001610b069190611a92565b81518110610b1657610b166119a7565b60200260200101516040518363ffffffff1660e01b8152600401610b44929190918252602082015260400190565b602060405180830381865af4158015610b61573d6000803e3d6000fd5b505050506040513d601f19601f82011682018060405250810190610b859190611aaa565b600090815260066020526040902054151590565b610ba257610bb4565b80610bac81611ac3565b915050610aac565b60018251610bc29190611a7b565b811015610bd0575050610bfc565b818685610bdc81611ac3565b965081518110610bee57610bee6119a7565b602002602001018190525050505b80610c0681611ac3565b9150506108ee565b5080835260008111610c5a5760405162461bcd60e51b815260206004820152601560248201527405f6c6973745061746846726f6d20636f756e743e3605c1b60448201526064016105a6565b5050919050565b610c69611507565b6105af6000611568565b610c7b6103e7565b6105af6000805460ff19166001179055565b60006105f865ffffffffffff831664174876e80061195c565b6000805460ff1680610cbf5750600054610100900460ff165b905090565b60006105f867ffffffffffffffff83166402540be40061195c565b610ce7611507565b6105af6000805461ff001916610100179055565b60006105f863ffffffff831664e8d4a5100061195c565b610d1a611507565b6001600160a01b038116610d7f5760405162461bcd60e51b815260206004820152602660248201527f4f776e61626c653a206e6577206f776e657220697320746865207a65726f206160448201526564647265737360d01b60648201526084016105a6565b610d8881611568565b50565b60006105f864174876e8008361193a565b610da46115c3565b60008381526005602081815260408084208151610180810183528154815260018201546001600160a01b0381169482019490945293909291840191600160a01b900460ff1690811115610df957610df96116e1565b6005811115610e0a57610e0a6116e1565b81526001820154600160a81b900460ff1660208201526002820154604080830191909152600383015467ffffffffffffffff80821660608501526801000000000000000080830482166080860152600160801b808404831660a0870152600160c01b909304821660c086015260049586015480831660e087015290810482166101008601529190910416610120909201919091528251905163657c7e0960e01b8152918201529091507f00000000000000000000000000000000000000000000000000000000000000006001600160a01b03169063657c7e09906024016040805180830381865afa158015610f03573d6000803e3d6000fd5b505050506040513d601f19601f82011682018060405250810190610f279190611ade565b60408401526020830152608081015160608301528280610fc0575060608101516040516336181b6760e11b815260ff909116600482015273__$f7122df39a5f3bad28f404771cd5173291$__90636c3036ce90602401602060405180830381865af4158015610f9a573d6000803e3d6000fd5b505050506040513d601f19601f82011682018060405250810190610fbe9190611902565b155b156114445760208101516001600160a01b0316825260a0810151610fe390610cc4565b60808301526060810151604051632b2076e360e11b815260ff909116600482015273__$f7122df39a5f3bad28f404771cd5173291$__90635640edc690602401602060405180830381865af4158015611040573d6000803e3d6000fd5b505050506040513d601f19601f820116820180604052508101906110649190611902565b1561107857608082015160a08301526111c5565b61012081015167ffffffffffffffff16156110a55761109b816101200151610cc4565b60a08301526111c5565b60405163023aa9ab60e61b81527fcd775f2396f9f13f12bcf8ca32e21df66559a8adc3944d0591127e7731f7ab8560048201527f00000000000000000000000000000000000000000000000000000000000000006001600160a01b031690638eaa6ac090602401602060405180830381865afa158015611129573d6000803e3d6000fd5b505050506040513d601f19601f8201168201806040525081019061114d9190611b02565b6001600160a01b031663a9bf985883602001516040518263ffffffff1660e01b815260040161117e91815260200190565b602060405180830381865afa15801561119b573d6000803e3d6000fd5b505050506040513d601f19601f820116820180604052508101906111bf9190611aaa565b60a08301525b6111d28160c00151610cc4565b60c083015260e08101516111e590610cc4565b60e08301526060810151604051635b7d0f6960e11b815260ff909116600482015273__$f7122df39a5f3bad28f404771cd5173291$__9063b6fa1ed290602401602060405180830381865af4158015611242573d6000803e3d6000fd5b505050506040513d601f19601f820116820180604052508101906112669190611902565b1561142f57611279816101400151610cc4565b61012083015261016081015161128e90610cc4565b61014083015260405163023aa9ab60e61b81527f3cb99135f7a7c088d9085b446345038a22a85f4e8fe072b0e1b66d97243e745860048201526000907f00000000000000000000000000000000000000000000000000000000000000006001600160a01b031690638eaa6ac090602401602060405180830381865afa15801561131b573d6000803e3d6000fd5b505050506040513d601f19601f8201168201806040525081019061133f9190611b02565b6001600160a01b0316636464b68a846020015185604001516040518363ffffffff1660e01b815260040161137d929190918252602082015260400190565b606060405180830381865afa15801561139a573d6000803e3d6000fd5b505050506040513d601f19601f820116820180604052508101906113be9190611b1f565b50915050806114035760405162461bcd60e51b8152602060048201526011602482015270145d5bdd194e88139bdd081c5d5bdd1959607a1b60448201526064016105a6565b610140830151611413908261193a565b836101200151611423919061195c565b61010084015250611444565b61143d816101000151610cc4565b6101008301525b604051630212d6cb60e21b815273__$f7122df39a5f3bad28f404771cd5173291$__9063084b5b2c9061147b908490600401611b4d565b602060405180830381865af4158015611498573d6000803e3d6000fd5b505050506040513d601f19601f820116820180604052508101906114bc9190611aaa565b610160830152604081015161018083019060058111156114de576114de6116e1565b908160058111156114f1576114f16116e1565b9052506060015160ff166101a082015292915050565b6000546001600160a01b03620100009091041633146105af5760405162461bcd60e51b815260206004820152601f60248201527f416c6c6f77616e63653a2063616c6c6572206d757374206265204f776e65720060448201526064016105a6565b600080546001600160a01b038381166201000081810262010000600160b01b0319851617855560405193049190911692909183917f8be0079c531659141344cd1fd0a4f28419497f9722a3daafe3b4186f6b6457e091a35050565b604051806101c0016040528060006001600160a01b03168152602001600080191681526020016000801916815260200160008152602001600081526020016000815260200160008152602001600081526020016000815260200160008152602001600081526020016000815260200160006005811115611645576116456116e1565b8152600060209091015290565b6000808585111561166257600080fd5b8386111561166f57600080fd5b5050820193919092039150565b60006020828403121561168e57600080fd5b81356001600160e01b03198116811461069f57600080fd5b600080604083850312156116b957600080fd5b50508035926020909101359150565b6000602082840312156116da57600080fd5b5035919050565b634e487b7160e01b600052602160045260246000fd5b6006811061171557634e487b7160e01b600052602160045260246000fd5b9052565b81516001600160a01b031681526101c081016020830151602083015260408301516040830152606083015160608301526080830151608083015260a083015160a083015260c083015160c083015260e083015160e0830152610100808401518184015250610120808401518184015250610140808401518184015250610160808401518184015250610180808401516117b4828501826116f7565b50506101a08381015160ff8116848301525b505092915050565b6001600160a01b0381168114610d8857600080fd5b6000602082840312156117f557600080fd5b813561069f816117ce565b6000602080830181845280855180835260408601915060408160051b87010192508387016000805b8381101561187c57888603603f19018552825180518088529088019088880190845b818110156118665783518352928a0192918a019160010161184a565b5090975050509386019391860191600101611828565b509398975050505050505050565b60006020828403121561189c57600080fd5b813565ffffffffffff8116811461069f57600080fd5b6000602082840312156118c457600080fd5b813567ffffffffffffffff8116811461069f57600080fd5b6000602082840312156118ee57600080fd5b813563ffffffff8116811461069f57600080fd5b60006020828403121561191457600080fd5b8151801515811461069f57600080fd5b634e487b7160e01b600052601160045260246000fd5b60008261195757634e487b7160e01b600052601260045260246000fd5b500490565b600081600019048311821515161561197657611976611924565b500290565b634e487b7160e01b600052600160045260246000fd5b634e487b7160e01b600052604160045260246000fd5b634e487b7160e01b600052603260045260246000fd5b600060208083850312156119d057600080fd5b825167ffffffffffffffff808211156119e857600080fd5b818501915085601f8301126119fc57600080fd5b815181811115611a0e57611a0e611991565b8060051b604051601f19603f83011681018181108582111715611a3357611a33611991565b604052918252848201925083810185019188831115611a5157600080fd5b938501935b82851015611a6f57845184529385019392850192611a56565b98975050505050505050565b600082821015611a8d57611a8d611924565b500390565b60008219821115611aa557611aa5611924565b500190565b600060208284031215611abc57600080fd5b5051919050565b6000600019821415611ad757611ad7611924565b5060010190565b60008060408385031215611af157600080fd5b505080516020909101519092909150565b600060208284031215611b1457600080fd5b815161069f816117ce565b600080600060608486031215611b3457600080fd5b8351925060208401519150604084015190509250925092565b81518152602080830151610180830191611b71908401826001600160a01b03169052565b506040830151611b8460408401826116f7565b506060830151611b99606084018260ff169052565b506080830151608083015260a0830151611bbf60a084018267ffffffffffffffff169052565b5060c0830151611bdb60c084018267ffffffffffffffff169052565b5060e0830151611bf760e084018267ffffffffffffffff169052565b506101008381015167ffffffffffffffff9081169184019190915261012080850151821690840152610140808501518216908401526101608085015191821681850152906117c656fea2646970667358221220ca29b7326bcba1f3d0030966f5dda5df8004264070745b3d46fc703af01778ff64736f6c634300080b0033","language":"Solidity","natspec":{"methods":{"ownerOf()":{"details":"Returns the address of the current owner."},"renounceOwnership()":{"details":"Leaves the contract without owner. It will not be possible to call `onlyOwner` functions anymore. Can only be called by the current owner. NOTE: Renouncing ownership will leave the contract without an owner, thereby removing any functionality that is only available to the owner."},"supportsInterface(bytes4)":{"details":"Returns true if this contract implements the interface defined by `interfaceId`. See the corresponding https://eips.ethereum.org/EIPS/eip-165#how-interfaces-are-identified[EIP section] to learn more about how these ids are created. This function call must use less than 30 000 gas."},"transferOwnership(address)":{"details":"Transfers ownership of the contract to a new account (`newOwner`). Can only be called by the current owner."}},"kind":"dev","version":1},"opcodes":"PUSH1 0x80 PUSH1 0x40 MSTORE CALLVALUE DUP1 ISZERO PUSH2 0x10 JUMPI PUSH1 0x0 DUP1 REVERT JUMPDEST POP PUSH1 0x4 CALLDATASIZE LT PUSH2 0x142 JUMPI PUSH1 0x0 CALLDATALOAD PUSH1 0xE0 SHR DUP1 PUSH4 0x7AF6649A GT PUSH2 0xB8 JUMPI DUP1 PUSH4 0xB03FD40D GT PUSH2 0x7C JUMPI DUP1 PUSH4 0xB03FD40D EQ PUSH2 0x355 JUMPI DUP1 PUSH4 0xCCC07959 EQ PUSH2 0x368 JUMPI DUP1 PUSH4 0xD6935858 EQ PUSH2 0x38F JUMPI DUP1 PUSH4 0xE4B16144 EQ PUSH2 0x397 JUMPI DUP1 PUSH4 0xF2FDE38B EQ PUSH2 0x3AA JUMPI DUP1 PUSH4 0xFEAB4454 EQ PUSH2 0x3BD JUMPI PUSH2 0x142 JUMP JUMPDEST DUP1 PUSH4 0x7AF6649A EQ PUSH2 0x2CB JUMPI DUP1 PUSH4 0x854BA99D EQ PUSH2 0x2EC JUMPI DUP1 PUSH4 0x8DA5CB5B EQ PUSH2 0x2F4 JUMPI DUP1 PUSH4 0x97962076 EQ PUSH2 0x31F JUMPI DUP1 PUSH4 0xAF640D0F EQ PUSH2 0x32F JUMPI PUSH2 0x142 JUMP JUMPDEST DUP1 PUSH4 0x2F54BF6E GT PUSH2 0x10A JUMPI DUP1 PUSH4 0x2F54BF6E EQ PUSH2 0x254 JUMPI DUP1 PUSH4 0x5F5C5BAA EQ PUSH2 0x267 JUMPI DUP1 PUSH4 0x62965141 EQ PUSH2 0x26F JUMPI DUP1 PUSH4 0x6B2B091A EQ PUSH2 0x29B JUMPI DUP1 PUSH4 0x715018A6 EQ PUSH2 0x2BB JUMPI DUP1 PUSH4 0x72EA61BF EQ PUSH2 0x2C3 JUMPI PUSH2 0x142 JUMP JUMPDEST DUP1 PUSH4 0x1FFC9A7 EQ PUSH2 0x1C7 JUMPI DUP1 PUSH4 0x5D6BD9C EQ PUSH2 0x1EF JUMPI DUP1 PUSH4 0x1EF4590D EQ PUSH2 0x1F9 JUMPI DUP1 PUSH4 0x21603F43 EQ PUSH2 0x20C JUMPI DUP1 PUSH4 0x2203616D EQ PUSH2 0x22C JUMPI JUMPDEST PUSH2 0x14A PUSH2 0x3E7 JUMP JUMPDEST PUSH1 0x0 PUSH2 0x15A PUSH1 0x24 PUSH1 0x4 CALLDATASIZE DUP5 PUSH2 0x1652 JUMP JUMPDEST DUP1 DUP1 PUSH1 0x1F ADD PUSH1 0x20 DUP1 SWAP2 DIV MUL PUSH1 0x20 ADD PUSH1 0x40 MLOAD SWAP1 DUP2 ADD PUSH1 0x40 MSTORE DUP1 SWAP4 SWAP3 SWAP2 SWAP1 DUP2 DUP2 MSTORE PUSH1 0x20 ADD DUP4 DUP4 DUP1 DUP3 DUP5 CALLDATACOPY PUSH1 0x0 SWAP3 ADD DUP3 SWAP1 MSTORE POP PUSH1 0x20 DUP6 ADD MLOAD SWAP5 SWAP6 POP SWAP3 POP POP CALLDATASIZE PUSH1 0x23 NOT DUP2 ADD SWAP2 POP PUSH1 0x1F NOT ADD PUSH1 0x4 DUP4 DUP1 CALLDATACOPY DUP2 PUSH1 0x24 PUSH1 0x4 CALLDATACOPY PUSH1 0x0 DUP1 DUP3 PUSH1 0x0 DUP8 GAS DELEGATECALL SWAP3 POP POP POP PUSH2 0x1C2 DUP2 PUSH2 0x5B1 JUMP JUMPDEST POP POP POP STOP JUMPDEST PUSH2 0x1DA PUSH2 0x1D5 CALLDATASIZE PUSH1 0x4 PUSH2 0x167C JUMP JUMPDEST PUSH2 0x5C7 JUMP JUMPDEST PUSH1 0x40 MLOAD SWAP1 ISZERO ISZERO DUP2 MSTORE PUSH1 0x20 ADD JUMPDEST PUSH1 0x40 MLOAD DUP1 SWAP2 SUB SWAP1 RETURN JUMPDEST PUSH2 0x1F7 PUSH2 0x5FE JUMP JUMPDEST STOP JUMPDEST PUSH2 0x1DA PUSH2 0x207 CALLDATASIZE PUSH1 0x4 PUSH2 0x16A6 JUMP JUMPDEST PUSH2 0x615 JUMP JUMPDEST PUSH2 0x21F PUSH2 0x21A CALLDATASIZE PUSH1 0x4 PUSH2 0x16C8 JUMP JUMPDEST PUSH2 0x6A6 JUMP JUMPDEST PUSH1 0x40 MLOAD PUSH2 0x1E6 SWAP2 SWAP1 PUSH2 0x1719 JUMP JUMPDEST PUSH2 0x23F PUSH2 0x23A CALLDATASIZE PUSH1 0x4 PUSH2 0x16C8 JUMP JUMPDEST PUSH2 0x6B9 JUMP JUMPDEST PUSH1 0x40 MLOAD PUSH4 0xFFFFFFFF SWAP1 SWAP2 AND DUP2 MSTORE PUSH1 0x20 ADD PUSH2 0x1E6 JUMP JUMPDEST PUSH2 0x1DA PUSH2 0x262 CALLDATASIZE PUSH1 0x4 PUSH2 0x17E3 JUMP JUMPDEST PUSH2 0x6CA JUMP JUMPDEST PUSH2 0x1F7 PUSH2 0x6F7 JUMP JUMPDEST PUSH2 0x282 PUSH2 0x27D CALLDATASIZE PUSH1 0x4 PUSH2 0x16C8 JUMP JUMPDEST PUSH2 0x80C JUMP JUMPDEST PUSH1 0x40 MLOAD PUSH8 0xFFFFFFFFFFFFFFFF SWAP1 SWAP2 AND DUP2 MSTORE PUSH1 0x20 ADD PUSH2 0x1E6 JUMP JUMPDEST PUSH2 0x2AE PUSH2 0x2A9 CALLDATASIZE PUSH1 0x4 PUSH2 0x16C8 JUMP JUMPDEST PUSH2 0x83E JUMP JUMPDEST PUSH1 0x40 MLOAD PUSH2 0x1E6 SWAP2 SWAP1 PUSH2 0x1800 JUMP JUMPDEST PUSH2 0x1F7 PUSH2 0xC61 JUMP JUMPDEST PUSH2 0x1F7 PUSH2 0xC73 JUMP JUMPDEST PUSH2 0x2DE PUSH2 0x2D9 CALLDATASIZE PUSH1 0x4 PUSH2 0x188A JUMP JUMPDEST PUSH2 0xC8D JUMP JUMPDEST PUSH1 0x40 MLOAD SWAP1 DUP2 MSTORE PUSH1 0x20 ADD PUSH2 0x1E6 JUMP JUMPDEST PUSH2 0x1DA PUSH2 0xCA6 JUMP JUMPDEST PUSH1 0x0 SLOAD PUSH3 0x10000 SWAP1 DIV PUSH1 0x1 PUSH1 0x1 PUSH1 0xA0 SHL SUB AND JUMPDEST PUSH1 0x40 MLOAD PUSH1 0x1 PUSH1 0x1 PUSH1 0xA0 SHL SUB SWAP1 SWAP2 AND DUP2 MSTORE PUSH1 0x20 ADD PUSH2 0x1E6 JUMP JUMPDEST PUSH1 0x0 SLOAD PUSH2 0x100 SWAP1 DIV PUSH1 0xFF AND PUSH2 0x1DA JUMP JUMPDEST PUSH32 0xEB634ADD73BA7469D77CB050607B9B6FCE5CB49F6300323B74BB5F11F29C2841 PUSH2 0x2DE JUMP JUMPDEST PUSH2 0x2DE PUSH2 0x363 CALLDATASIZE PUSH1 0x4 PUSH2 0x18B2 JUMP JUMPDEST PUSH2 0xCC4 JUMP JUMPDEST PUSH2 0x307 PUSH32 0x0 DUP2 JUMP JUMPDEST PUSH2 0x1F7 PUSH2 0xCDF JUMP JUMPDEST PUSH2 0x2DE PUSH2 0x3A5 CALLDATASIZE PUSH1 0x4 PUSH2 0x18DC JUMP JUMPDEST PUSH2 0xCFB JUMP JUMPDEST PUSH2 0x1F7 PUSH2 0x3B8 CALLDATASIZE PUSH1 0x4 PUSH2 0x17E3 JUMP JUMPDEST PUSH2 0xD12 JUMP JUMPDEST PUSH2 0x3D0 PUSH2 0x3CB CALLDATASIZE PUSH1 0x4 PUSH2 0x16C8 JUMP JUMPDEST PUSH2 0xD8B JUMP JUMPDEST PUSH1 0x40 MLOAD PUSH6 0xFFFFFFFFFFFF SWAP1 SWAP2 AND DUP2 MSTORE PUSH1 0x20 ADD PUSH2 0x1E6 JUMP JUMPDEST PUSH1 0x0 SLOAD PUSH1 0x1 PUSH1 0x1 PUSH1 0xA0 SHL SUB PUSH3 0x10000 SWAP1 SWAP2 DIV AND CALLER EQ DUP1 PUSH2 0x49A JUMPI POP PUSH1 0x1 PUSH1 0x1 PUSH1 0xA0 SHL SUB PUSH32 0x0 AND PUSH4 0x16279055 CALLER PUSH1 0x40 MLOAD PUSH1 0x1 PUSH1 0x1 PUSH1 0xE0 SHL SUB NOT PUSH1 0xE0 DUP5 SWAP1 SHL AND DUP2 MSTORE PUSH1 0x1 PUSH1 0x1 PUSH1 0xA0 SHL SUB SWAP1 SWAP2 AND PUSH1 0x4 DUP3 ADD MSTORE PUSH1 0x24 ADD PUSH1 0x20 PUSH1 0x40 MLOAD DUP1 DUP4 SUB DUP2 DUP7 GAS STATICCALL ISZERO DUP1 ISZERO PUSH2 0x476 JUMPI RETURNDATASIZE PUSH1 0x0 DUP1 RETURNDATACOPY RETURNDATASIZE PUSH1 0x0 REVERT JUMPDEST POP POP POP POP PUSH1 0x40 MLOAD RETURNDATASIZE PUSH1 0x1F NOT PUSH1 0x1F DUP3 ADD AND DUP3 ADD DUP1 PUSH1 0x40 MSTORE POP DUP2 ADD SWAP1 PUSH2 0x49A SWAP2 SWAP1 PUSH2 0x1902 JUMP JUMPDEST DUP1 PUSH2 0x538 JUMPI POP PUSH1 0x1 PUSH1 0x1 PUSH1 0xA0 SHL SUB PUSH32 0x0 AND PUSH4 0x6D70F7AE CALLER PUSH1 0x40 MLOAD PUSH1 0x1 PUSH1 0x1 PUSH1 0xE0 SHL SUB NOT PUSH1 0xE0 DUP5 SWAP1 SHL AND DUP2 MSTORE PUSH1 0x1 PUSH1 0x1 PUSH1 0xA0 SHL SUB SWAP1 SWAP2 AND PUSH1 0x4 DUP3 ADD MSTORE PUSH1 0x24 ADD PUSH1 0x20 PUSH1 0x40 MLOAD DUP1 DUP4 SUB DUP2 DUP7 GAS STATICCALL ISZERO DUP1 ISZERO PUSH2 0x514 JUMPI RETURNDATASIZE PUSH1 0x0 DUP1 RETURNDATACOPY RETURNDATASIZE PUSH1 0x0 REVERT JUMPDEST POP POP POP POP PUSH1 0x40 MLOAD RETURNDATASIZE PUSH1 0x1F NOT PUSH1 0x1F DUP3 ADD AND DUP3 ADD DUP1 PUSH1 0x40 MSTORE POP DUP2 ADD SWAP1 PUSH2 0x538 SWAP2 SWAP1 PUSH2 0x1902 JUMP JUMPDEST PUSH2 0x5AF JUMPI PUSH1 0x40 MLOAD PUSH3 0x461BCD PUSH1 0xE5 SHL DUP2 MSTORE PUSH1 0x20 PUSH1 0x4 DUP3 ADD MSTORE PUSH1 0x39 PUSH1 0x24 DUP3 ADD MSTORE PUSH32 0x416C6C6F77616E63653A2063616C6C6572206D757374206265205265706F7369 PUSH1 0x44 DUP3 ADD MSTORE PUSH32 0x746F727920436F6E7472616374206F72204F70657261746F7200000000000000 PUSH1 0x64 DUP3 ADD MSTORE PUSH1 0x84 ADD JUMPDEST PUSH1 0x40 MLOAD DUP1 SWAP2 SUB SWAP1 REVERT JUMPDEST JUMP JUMPDEST RETURNDATASIZE PUSH1 0x0 DUP1 RETURNDATACOPY DUP1 DUP1 ISZERO PUSH2 0x5C2 JUMPI RETURNDATASIZE PUSH1 0x0 RETURN JUMPDEST RETURNDATASIZE PUSH1 0x0 REVERT JUMPDEST PUSH1 0x0 PUSH1 0x1 PUSH1 0x1 PUSH1 0xE0 SHL SUB NOT DUP3 AND PUSH4 0x1FFC9A7 PUSH1 0xE0 SHL EQ DUP1 PUSH2 0x5F8 JUMPI POP PUSH1 0x1 PUSH1 0x1 PUSH1 0xE0 SHL SUB NOT DUP3 AND PUSH4 0x15D37895 PUSH1 0xE3 SHL EQ JUMPDEST SWAP3 SWAP2 POP POP JUMP JUMPDEST PUSH2 0x606 PUSH2 0x3E7 JUMP JUMPDEST PUSH2 0x5AF PUSH1 0x0 DUP1 SLOAD PUSH1 0xFF NOT AND SWAP1 SSTORE JUMP JUMPDEST PUSH1 0x0 DUP3 DUP2 MSTORE PUSH1 0x1 PUSH1 0x20 MSTORE PUSH1 0x40 DUP1 DUP3 KECCAK256 SWAP1 MLOAD PUSH4 0x2BE5DB23 PUSH1 0xE1 SHL DUP2 MSTORE PUSH1 0x4 DUP2 ADD SWAP2 SWAP1 SWAP2 MSTORE PUSH1 0x24 DUP2 ADD DUP4 SWAP1 MSTORE PUSH20 0x0 SWAP1 PUSH4 0x57CBB646 SWAP1 PUSH1 0x44 ADD PUSH1 0x20 PUSH1 0x40 MLOAD DUP1 DUP4 SUB DUP2 DUP7 GAS DELEGATECALL ISZERO DUP1 ISZERO PUSH2 0x67B JUMPI RETURNDATASIZE PUSH1 0x0 DUP1 RETURNDATACOPY RETURNDATASIZE PUSH1 0x0 REVERT JUMPDEST POP POP POP POP PUSH1 0x40 MLOAD RETURNDATASIZE PUSH1 0x1F NOT PUSH1 0x1F DUP3 ADD AND DUP3 ADD DUP1 PUSH1 0x40 MSTORE POP DUP2 ADD SWAP1 PUSH2 0x69F SWAP2 SWAP1 PUSH2 0x1902 JUMP JUMPDEST SWAP4 SWAP3 POP POP POP JUMP JUMPDEST PUSH2 0x6AE PUSH2 0x15C3 JUMP JUMPDEST PUSH2 0x5F8 DUP3 PUSH1 0x0 PUSH2 0xD9C JUMP JUMPDEST PUSH1 0x0 PUSH2 0x5F8 PUSH5 0xE8D4A51000 DUP4 PUSH2 0x193A JUMP JUMPDEST PUSH1 0x0 DUP1 SLOAD PUSH1 0x1 PUSH1 0x1 PUSH1 0xA0 SHL SUB DUP4 DUP2 AND PUSH3 0x10000 SWAP1 SWAP3 DIV AND EQ ISZERO PUSH2 0x6EF JUMPI POP PUSH1 0x1 SWAP2 SWAP1 POP JUMP JUMPDEST POP PUSH1 0x0 SWAP2 SWAP1 POP JUMP JUMPDEST PUSH1 0x0 SLOAD PUSH1 0x1 PUSH1 0x1 PUSH1 0xA0 SHL SUB PUSH3 0x10000 SWAP1 SWAP2 DIV AND CALLER EQ DUP1 PUSH2 0x7AA JUMPI POP PUSH1 0x1 PUSH1 0x1 PUSH1 0xA0 SHL SUB PUSH32 0x0 AND PUSH4 0x6D70F7AE CALLER PUSH1 0x40 MLOAD PUSH1 0x1 PUSH1 0x1 PUSH1 0xE0 SHL SUB NOT PUSH1 0xE0 DUP5 SWAP1 SHL AND DUP2 MSTORE PUSH1 0x1 PUSH1 0x1 PUSH1 0xA0 SHL SUB SWAP1 SWAP2 AND PUSH1 0x4 DUP3 ADD MSTORE PUSH1 0x24 ADD PUSH1 0x20 PUSH1 0x40 MLOAD DUP1 DUP4 SUB DUP2 DUP7 GAS STATICCALL ISZERO DUP1 ISZERO PUSH2 0x786 JUMPI RETURNDATASIZE PUSH1 0x0 DUP1 RETURNDATACOPY RETURNDATASIZE PUSH1 0x0 REVERT JUMPDEST POP POP POP POP PUSH1 0x40 MLOAD RETURNDATASIZE PUSH1 0x1F NOT PUSH1 0x1F DUP3 ADD AND DUP3 ADD DUP1 PUSH1 0x40 MSTORE POP DUP2 ADD SWAP1 PUSH2 0x7AA SWAP2 SWAP1 PUSH2 0x1902 JUMP JUMPDEST PUSH2 0x5AF JUMPI PUSH1 0x40 MLOAD PUSH3 0x461BCD PUSH1 0xE5 SHL DUP2 MSTORE PUSH1 0x20 PUSH1 0x4 DUP3 ADD MSTORE PUSH1 0x2D PUSH1 0x24 DUP3 ADD MSTORE PUSH32 0x416C6C6F77616E63653A2063616C6C6572206D757374206265205265706F7369 PUSH1 0x44 DUP3 ADD MSTORE PUSH13 0x3A37B93C9027B832B930BA37B9 PUSH1 0x99 SHL PUSH1 0x64 DUP3 ADD MSTORE PUSH1 0x84 ADD PUSH2 0x5A6 JUMP JUMPDEST PUSH1 0x0 DUP1 PUSH2 0x81E PUSH5 0x2540BE400 DUP5 PUSH2 0x193A JUMP JUMPDEST SWAP1 POP DUP3 PUSH2 0x830 DUP3 PUSH5 0x2540BE400 PUSH2 0x195C JUMP JUMPDEST GT ISZERO PUSH2 0x5F8 JUMPI PUSH2 0x5F8 PUSH2 0x197B JUMP JUMPDEST PUSH1 0x0 DUP2 DUP2 MSTORE PUSH1 0x1 PUSH1 0x20 SWAP1 DUP2 MSTORE PUSH1 0x40 DUP1 DUP4 KECCAK256 DUP1 SLOAD DUP3 MLOAD DUP2 DUP6 MUL DUP2 ADD DUP6 ADD SWAP1 SWAP4 MSTORE DUP1 DUP4 MSTORE PUSH1 0x60 SWAP5 SWAP4 DUP4 ADD DUP3 DUP3 DUP1 ISZERO PUSH2 0x893 JUMPI PUSH1 0x20 MUL DUP3 ADD SWAP2 SWAP1 PUSH1 0x0 MSTORE PUSH1 0x20 PUSH1 0x0 KECCAK256 SWAP1 JUMPDEST DUP2 SLOAD DUP2 MSTORE PUSH1 0x20 ADD SWAP1 PUSH1 0x1 ADD SWAP1 DUP1 DUP4 GT PUSH2 0x87F JUMPI JUMPDEST POP POP POP POP POP SWAP1 POP DUP1 MLOAD PUSH8 0xFFFFFFFFFFFFFFFF DUP2 GT ISZERO PUSH2 0x8B4 JUMPI PUSH2 0x8B4 PUSH2 0x1991 JUMP JUMPDEST PUSH1 0x40 MLOAD SWAP1 DUP1 DUP3 MSTORE DUP1 PUSH1 0x20 MUL PUSH1 0x20 ADD DUP3 ADD PUSH1 0x40 MSTORE DUP1 ISZERO PUSH2 0x8E7 JUMPI DUP2 PUSH1 0x20 ADD JUMPDEST PUSH1 0x60 DUP2 MSTORE PUSH1 0x20 ADD SWAP1 PUSH1 0x1 SWAP1 SUB SWAP1 DUP2 PUSH2 0x8D2 JUMPI SWAP1 POP JUMPDEST POP SWAP2 POP PUSH1 0x0 DUP1 JUMPDEST DUP3 MLOAD DUP2 LT ISZERO PUSH2 0xC0E JUMPI PUSH32 0x0 PUSH1 0x1 PUSH1 0x1 PUSH1 0xA0 SHL SUB AND PUSH4 0x38A699A4 DUP5 DUP4 DUP2 MLOAD DUP2 LT PUSH2 0x938 JUMPI PUSH2 0x938 PUSH2 0x19A7 JUMP JUMPDEST PUSH1 0x20 MUL PUSH1 0x20 ADD ADD MLOAD PUSH1 0x40 MLOAD DUP3 PUSH4 0xFFFFFFFF AND PUSH1 0xE0 SHL DUP2 MSTORE PUSH1 0x4 ADD PUSH2 0x95E SWAP2 DUP2 MSTORE PUSH1 0x20 ADD SWAP1 JUMP JUMPDEST PUSH1 0x20 PUSH1 0x40 MLOAD DUP1 DUP4 SUB DUP2 DUP7 GAS STATICCALL ISZERO DUP1 ISZERO PUSH2 0x97B JUMPI RETURNDATASIZE PUSH1 0x0 DUP1 RETURNDATACOPY RETURNDATASIZE PUSH1 0x0 REVERT JUMPDEST POP POP POP POP PUSH1 0x40 MLOAD RETURNDATASIZE PUSH1 0x1F NOT PUSH1 0x1F DUP3 ADD AND DUP3 ADD DUP1 PUSH1 0x40 MSTORE POP DUP2 ADD SWAP1 PUSH2 0x99F SWAP2 SWAP1 PUSH2 0x1902 JUMP JUMPDEST PUSH2 0x9A8 JUMPI PUSH2 0xBFC JUMP JUMPDEST PUSH1 0x0 PUSH32 0x0 PUSH1 0x1 PUSH1 0x1 PUSH1 0xA0 SHL SUB AND PUSH4 0x27EE9DC2 DUP6 DUP5 DUP2 MLOAD DUP2 LT PUSH2 0x9EB JUMPI PUSH2 0x9EB PUSH2 0x19A7 JUMP JUMPDEST PUSH1 0x20 MUL PUSH1 0x20 ADD ADD MLOAD PUSH1 0x40 MLOAD DUP3 PUSH4 0xFFFFFFFF AND PUSH1 0xE0 SHL DUP2 MSTORE PUSH1 0x4 ADD PUSH2 0xA11 SWAP2 DUP2 MSTORE PUSH1 0x20 ADD SWAP1 JUMP JUMPDEST PUSH1 0x0 PUSH1 0x40 MLOAD DUP1 DUP4 SUB DUP2 DUP7 GAS STATICCALL ISZERO DUP1 ISZERO PUSH2 0xA2E JUMPI RETURNDATASIZE PUSH1 0x0 DUP1 RETURNDATACOPY RETURNDATASIZE PUSH1 0x0 REVERT JUMPDEST POP POP POP POP PUSH1 0x40 MLOAD RETURNDATASIZE PUSH1 0x0 DUP3 RETURNDATACOPY PUSH1 0x1F RETURNDATASIZE SWAP1 DUP2 ADD PUSH1 0x1F NOT AND DUP3 ADD PUSH1 0x40 MSTORE PUSH2 0xA56 SWAP2 SWAP1 DUP2 ADD SWAP1 PUSH2 0x19BD JUMP JUMPDEST SWAP1 POP PUSH1 0x0 DUP2 MLOAD GT PUSH2 0xAA9 JUMPI PUSH1 0x40 MLOAD PUSH3 0x461BCD PUSH1 0xE5 SHL DUP2 MSTORE PUSH1 0x20 PUSH1 0x4 DUP3 ADD MSTORE PUSH1 0x17 PUSH1 0x24 DUP3 ADD MSTORE PUSH32 0x5F706174684C69737420706174682E6C656E6774683E30000000000000000000 PUSH1 0x44 DUP3 ADD MSTORE PUSH1 0x64 ADD PUSH2 0x5A6 JUMP JUMPDEST PUSH1 0x0 JUMPDEST PUSH1 0x1 DUP3 MLOAD PUSH2 0xABA SWAP2 SWAP1 PUSH2 0x1A7B JUMP JUMPDEST DUP2 LT ISZERO PUSH2 0xBB4 JUMPI PUSH2 0xB99 PUSH20 0x0 PUSH4 0x76254FF9 DUP5 DUP5 DUP2 MLOAD DUP2 LT PUSH2 0xAF0 JUMPI PUSH2 0xAF0 PUSH2 0x19A7 JUMP JUMPDEST PUSH1 0x20 MUL PUSH1 0x20 ADD ADD MLOAD DUP6 DUP6 PUSH1 0x1 PUSH2 0xB06 SWAP2 SWAP1 PUSH2 0x1A92 JUMP JUMPDEST DUP2 MLOAD DUP2 LT PUSH2 0xB16 JUMPI PUSH2 0xB16 PUSH2 0x19A7 JUMP JUMPDEST PUSH1 0x20 MUL PUSH1 0x20 ADD ADD MLOAD PUSH1 0x40 MLOAD DUP4 PUSH4 0xFFFFFFFF AND PUSH1 0xE0 SHL DUP2 MSTORE PUSH1 0x4 ADD PUSH2 0xB44 SWAP3 SWAP2 SWAP1 SWAP2 DUP3 MSTORE PUSH1 0x20 DUP3 ADD MSTORE PUSH1 0x40 ADD SWAP1 JUMP JUMPDEST PUSH1 0x20 PUSH1 0x40 MLOAD DUP1 DUP4 SUB DUP2 DUP7 GAS DELEGATECALL ISZERO DUP1 ISZERO PUSH2 0xB61 JUMPI RETURNDATASIZE PUSH1 0x0 DUP1 RETURNDATACOPY RETURNDATASIZE PUSH1 0x0 REVERT JUMPDEST POP POP POP POP PUSH1 0x40 MLOAD RETURNDATASIZE PUSH1 0x1F NOT PUSH1 0x1F DUP3 ADD AND DUP3 ADD DUP1 PUSH1 0x40 MSTORE POP DUP2 ADD SWAP1 PUSH2 0xB85 SWAP2 SWAP1 PUSH2 0x1AAA JUMP JUMPDEST PUSH1 0x0 SWAP1 DUP2 MSTORE PUSH1 0x6 PUSH1 0x20 MSTORE PUSH1 0x40 SWAP1 KECCAK256 SLOAD ISZERO ISZERO SWAP1 JUMP JUMPDEST PUSH2 0xBA2 JUMPI PUSH2 0xBB4 JUMP JUMPDEST DUP1 PUSH2 0xBAC DUP2 PUSH2 0x1AC3 JUMP JUMPDEST SWAP2 POP POP PUSH2 0xAAC JUMP JUMPDEST PUSH1 0x1 DUP3 MLOAD PUSH2 0xBC2 SWAP2 SWAP1 PUSH2 0x1A7B JUMP JUMPDEST DUP2 LT ISZERO PUSH2 0xBD0 JUMPI POP POP PUSH2 0xBFC JUMP JUMPDEST DUP2 DUP7 DUP6 PUSH2 0xBDC DUP2 PUSH2 0x1AC3 JUMP JUMPDEST SWAP7 POP DUP2 MLOAD DUP2 LT PUSH2 0xBEE JUMPI PUSH2 0xBEE PUSH2 0x19A7 JUMP JUMPDEST PUSH1 0x20 MUL PUSH1 0x20 ADD ADD DUP2 SWAP1 MSTORE POP POP POP JUMPDEST DUP1 PUSH2 0xC06 DUP2 PUSH2 0x1AC3 JUMP JUMPDEST SWAP2 POP POP PUSH2 0x8EE JUMP JUMPDEST POP DUP1 DUP4 MSTORE PUSH1 0x0 DUP2 GT PUSH2 0xC5A JUMPI PUSH1 0x40 MLOAD PUSH3 0x461BCD PUSH1 0xE5 SHL DUP2 MSTORE PUSH1 0x20 PUSH1 0x4 DUP3 ADD MSTORE PUSH1 0x15 PUSH1 0x24 DUP3 ADD MSTORE PUSH21 0x5F6C6973745061746846726F6D20636F756E743E3 PUSH1 0x5C SHL PUSH1 0x44 DUP3 ADD MSTORE PUSH1 0x64 ADD PUSH2 0x5A6 JUMP JUMPDEST POP POP SWAP2 SWAP1 POP JUMP JUMPDEST PUSH2 0xC69 PUSH2 0x1507 JUMP JUMPDEST PUSH2 0x5AF PUSH1 0x0 PUSH2 0x1568 JUMP JUMPDEST PUSH2 0xC7B PUSH2 0x3E7 JUMP JUMPDEST PUSH2 0x5AF PUSH1 0x0 DUP1 SLOAD PUSH1 0xFF NOT AND PUSH1 0x1 OR SWAP1 SSTORE JUMP JUMPDEST PUSH1 0x0 PUSH2 0x5F8 PUSH6 0xFFFFFFFFFFFF DUP4 AND PUSH5 0x174876E800 PUSH2 0x195C JUMP JUMPDEST PUSH1 0x0 DUP1 SLOAD PUSH1 0xFF AND DUP1 PUSH2 0xCBF JUMPI POP PUSH1 0x0 SLOAD PUSH2 0x100 SWAP1 DIV PUSH1 0xFF AND JUMPDEST SWAP1 POP SWAP1 JUMP JUMPDEST PUSH1 0x0 PUSH2 0x5F8 PUSH8 0xFFFFFFFFFFFFFFFF DUP4 AND PUSH5 0x2540BE400 PUSH2 0x195C JUMP JUMPDEST PUSH2 0xCE7 PUSH2 0x1507 JUMP JUMPDEST PUSH2 0x5AF PUSH1 0x0 DUP1 SLOAD PUSH2 0xFF00 NOT AND PUSH2 0x100 OR SWAP1 SSTORE JUMP JUMPDEST PUSH1 0x0 PUSH2 0x5F8 PUSH4 0xFFFFFFFF DUP4 AND PUSH5 0xE8D4A51000 PUSH2 0x195C JUMP JUMPDEST PUSH2 0xD1A PUSH2 0x1507 JUMP JUMPDEST PUSH1 0x1 PUSH1 0x1 PUSH1 0xA0 SHL SUB DUP2 AND PUSH2 0xD7F JUMPI PUSH1 0x40 MLOAD PUSH3 0x461BCD PUSH1 0xE5 SHL DUP2 MSTORE PUSH1 0x20 PUSH1 0x4 DUP3 ADD MSTORE PUSH1 0x26 PUSH1 0x24 DUP3 ADD MSTORE PUSH32 0x4F776E61626C653A206E6577206F776E657220697320746865207A65726F2061 PUSH1 0x44 DUP3 ADD MSTORE PUSH6 0x646472657373 PUSH1 0xD0 SHL PUSH1 0x64 DUP3 ADD MSTORE PUSH1 0x84 ADD PUSH2 0x5A6 JUMP JUMPDEST PUSH2 0xD88 DUP2 PUSH2 0x1568 JUMP JUMPDEST POP JUMP JUMPDEST PUSH1 0x0 PUSH2 0x5F8 PUSH5 0x174876E800 DUP4 PUSH2 0x193A JUMP JUMPDEST PUSH2 0xDA4 PUSH2 0x15C3 JUMP JUMPDEST PUSH1 0x0 DUP4 DUP2 MSTORE PUSH1 0x5 PUSH1 0x20 DUP2 DUP2 MSTORE PUSH1 0x40 DUP1 DUP5 KECCAK256 DUP2 MLOAD PUSH2 0x180 DUP2 ADD DUP4 MSTORE DUP2 SLOAD DUP2 MSTORE PUSH1 0x1 DUP3 ADD SLOAD PUSH1 0x1 PUSH1 0x1 PUSH1 0xA0 SHL SUB DUP2 AND SWAP5 DUP3 ADD SWAP5 SWAP1 SWAP5 MSTORE SWAP4 SWAP1 SWAP3 SWAP2 DUP5 ADD SWAP2 PUSH1 0x1 PUSH1 0xA0 SHL SWAP1 DIV PUSH1 0xFF AND SWAP1 DUP2 GT ISZERO PUSH2 0xDF9 JUMPI PUSH2 0xDF9 PUSH2 0x16E1 JUMP JUMPDEST PUSH1 0x5 DUP2 GT ISZERO PUSH2 0xE0A JUMPI PUSH2 0xE0A PUSH2 0x16E1 JUMP JUMPDEST DUP2 MSTORE PUSH1 0x1 DUP3 ADD SLOAD PUSH1 0x1 PUSH1 0xA8 SHL SWAP1 DIV PUSH1 0xFF AND PUSH1 0x20 DUP3 ADD MSTORE PUSH1 0x2 DUP3 ADD SLOAD PUSH1 0x40 DUP1 DUP4 ADD SWAP2 SWAP1 SWAP2 MSTORE PUSH1 0x3 DUP4 ADD SLOAD PUSH8 0xFFFFFFFFFFFFFFFF DUP1 DUP3 AND PUSH1 0x60 DUP6 ADD MSTORE PUSH9 0x10000000000000000 DUP1 DUP4 DIV DUP3 AND PUSH1 0x80 DUP7 ADD MSTORE PUSH1 0x1 PUSH1 0x80 SHL DUP1 DUP5 DIV DUP4 AND PUSH1 0xA0 DUP8 ADD MSTORE PUSH1 0x1 PUSH1 0xC0 SHL SWAP1 SWAP4 DIV DUP3 AND PUSH1 0xC0 DUP7 ADD MSTORE PUSH1 0x4 SWAP6 DUP7 ADD SLOAD DUP1 DUP4 AND PUSH1 0xE0 DUP8 ADD MSTORE SWAP1 DUP2 DIV DUP3 AND PUSH2 0x100 DUP7 ADD MSTORE SWAP2 SWAP1 SWAP2 DIV AND PUSH2 0x120 SWAP1 SWAP3 ADD SWAP2 SWAP1 SWAP2 MSTORE DUP3 MLOAD SWAP1 MLOAD PUSH4 0x657C7E09 PUSH1 0xE0 SHL DUP2 MSTORE SWAP2 DUP3 ADD MSTORE SWAP1 SWAP2 POP PUSH32 0x0 PUSH1 0x1 PUSH1 0x1 PUSH1 0xA0 SHL SUB AND SWAP1 PUSH4 0x657C7E09 SWAP1 PUSH1 0x24 ADD PUSH1 0x40 DUP1 MLOAD DUP1 DUP4 SUB DUP2 DUP7 GAS STATICCALL ISZERO DUP1 ISZERO PUSH2 0xF03 JUMPI RETURNDATASIZE PUSH1 0x0 DUP1 RETURNDATACOPY RETURNDATASIZE PUSH1 0x0 REVERT JUMPDEST POP POP POP POP PUSH1 0x40 MLOAD RETURNDATASIZE PUSH1 0x1F NOT PUSH1 0x1F DUP3 ADD AND DUP3 ADD DUP1 PUSH1 0x40 MSTORE POP DUP2 ADD SWAP1 PUSH2 0xF27 SWAP2 SWAP1 PUSH2 0x1ADE JUMP JUMPDEST PUSH1 0x40 DUP5 ADD MSTORE PUSH1 0x20 DUP4 ADD MSTORE PUSH1 0x80 DUP2 ADD MLOAD PUSH1 0x60 DUP4 ADD MSTORE DUP3 DUP1 PUSH2 0xFC0 JUMPI POP PUSH1 0x60 DUP2 ADD MLOAD PUSH1 0x40 MLOAD PUSH4 0x36181B67 PUSH1 0xE1 SHL DUP2 MSTORE PUSH1 0xFF SWAP1 SWAP2 AND PUSH1 0x4 DUP3 ADD MSTORE PUSH20 0x0 SWAP1 PUSH4 0x6C3036CE SWAP1 PUSH1 0x24 ADD PUSH1 0x20 PUSH1 0x40 MLOAD DUP1 DUP4 SUB DUP2 DUP7 GAS DELEGATECALL ISZERO DUP1 ISZERO PUSH2 0xF9A JUMPI RETURNDATASIZE PUSH1 0x0 DUP1 RETURNDATACOPY RETURNDATASIZE PUSH1 0x0 REVERT JUMPDEST POP POP POP POP PUSH1 0x40 MLOAD RETURNDATASIZE PUSH1 0x1F NOT PUSH1 0x1F DUP3 ADD AND DUP3 ADD DUP1 PUSH1 0x40 MSTORE POP DUP2 ADD SWAP1 PUSH2 0xFBE SWAP2 SWAP1 PUSH2 0x1902 JUMP JUMPDEST ISZERO JUMPDEST ISZERO PUSH2 0x1444 JUMPI PUSH1 0x20 DUP2 ADD MLOAD PUSH1 0x1 PUSH1 0x1 PUSH1 0xA0 SHL SUB AND DUP3 MSTORE PUSH1 0xA0 DUP2 ADD MLOAD PUSH2 0xFE3 SWAP1 PUSH2 0xCC4 JUMP JUMPDEST PUSH1 0x80 DUP4 ADD MSTORE PUSH1 0x60 DUP2 ADD MLOAD PUSH1 0x40 MLOAD PUSH4 0x2B2076E3 PUSH1 0xE1 SHL DUP2 MSTORE PUSH1 0xFF SWAP1 SWAP2 AND PUSH1 0x4 DUP3 ADD MSTORE PUSH20 0x0 SWAP1 PUSH4 0x5640EDC6 SWAP1 PUSH1 0x24 ADD PUSH1 0x20 PUSH1 0x40 MLOAD DUP1 DUP4 SUB DUP2 DUP7 GAS DELEGATECALL ISZERO DUP1 ISZERO PUSH2 0x1040 JUMPI RETURNDATASIZE PUSH1 0x0 DUP1 RETURNDATACOPY RETURNDATASIZE PUSH1 0x0 REVERT JUMPDEST POP POP POP POP PUSH1 0x40 MLOAD RETURNDATASIZE PUSH1 0x1F NOT PUSH1 0x1F DUP3 ADD AND DUP3 ADD DUP1 PUSH1 0x40 MSTORE POP DUP2 ADD SWAP1 PUSH2 0x1064 SWAP2 SWAP1 PUSH2 0x1902 JUMP JUMPDEST ISZERO PUSH2 0x1078 JUMPI PUSH1 0x80 DUP3 ADD MLOAD PUSH1 0xA0 DUP4 ADD MSTORE PUSH2 0x11C5 JUMP JUMPDEST PUSH2 0x120 DUP2 ADD MLOAD PUSH8 0xFFFFFFFFFFFFFFFF AND ISZERO PUSH2 0x10A5 JUMPI PUSH2 0x109B DUP2 PUSH2 0x120 ADD MLOAD PUSH2 0xCC4 JUMP JUMPDEST PUSH1 0xA0 DUP4 ADD MSTORE PUSH2 0x11C5 JUMP JUMPDEST PUSH1 0x40 MLOAD PUSH4 0x23AA9AB PUSH1 0xE6 SHL DUP2 MSTORE PUSH32 0xCD775F2396F9F13F12BCF8CA32E21DF66559A8ADC3944D0591127E7731F7AB85 PUSH1 0x4 DUP3 ADD MSTORE PUSH32 0x0 PUSH1 0x1 PUSH1 0x1 PUSH1 0xA0 SHL SUB AND SWAP1 PUSH4 0x8EAA6AC0 SWAP1 PUSH1 0x24 ADD PUSH1 0x20 PUSH1 0x40 MLOAD DUP1 DUP4 SUB DUP2 DUP7 GAS STATICCALL ISZERO DUP1 ISZERO PUSH2 0x1129 JUMPI RETURNDATASIZE PUSH1 0x0 DUP1 RETURNDATACOPY RETURNDATASIZE PUSH1 0x0 REVERT JUMPDEST POP POP POP POP PUSH1 0x40 MLOAD RETURNDATASIZE PUSH1 0x1F NOT PUSH1 0x1F DUP3 ADD AND DUP3 ADD DUP1 PUSH1 0x40 MSTORE POP DUP2 ADD SWAP1 PUSH2 0x114D SWAP2 SWAP1 PUSH2 0x1B02 JUMP JUMPDEST PUSH1 0x1 PUSH1 0x1 PUSH1 0xA0 SHL SUB AND PUSH4 0xA9BF9858 DUP4 PUSH1 0x20 ADD MLOAD PUSH1 0x40 MLOAD DUP3 PUSH4 0xFFFFFFFF AND PUSH1 0xE0 SHL DUP2 MSTORE PUSH1 0x4 ADD PUSH2 0x117E SWAP2 DUP2 MSTORE PUSH1 0x20 ADD SWAP1 JUMP JUMPDEST PUSH1 0x20 PUSH1 0x40 MLOAD DUP1 DUP4 SUB DUP2 DUP7 GAS STATICCALL ISZERO DUP1 ISZERO PUSH2 0x119B JUMPI RETURNDATASIZE PUSH1 0x0 DUP1 RETURNDATACOPY RETURNDATASIZE PUSH1 0x0 REVERT JUMPDEST POP POP POP POP PUSH1 0x40 MLOAD RETURNDATASIZE PUSH1 0x1F NOT PUSH1 0x1F DUP3 ADD AND DUP3 ADD DUP1 PUSH1 0x40 MSTORE POP DUP2 ADD SWAP1 PUSH2 0x11BF SWAP2 SWAP1 PUSH2 0x1AAA JUMP JUMPDEST PUSH1 0xA0 DUP4 ADD MSTORE JUMPDEST PUSH2 0x11D2 DUP2 PUSH1 0xC0 ADD MLOAD PUSH2 0xCC4 JUMP JUMPDEST PUSH1 0xC0 DUP4 ADD MSTORE PUSH1 0xE0 DUP2 ADD MLOAD PUSH2 0x11E5 SWAP1 PUSH2 0xCC4 JUMP JUMPDEST PUSH1 0xE0 DUP4 ADD MSTORE PUSH1 0x60 DUP2 ADD MLOAD PUSH1 0x40 MLOAD PUSH4 0x5B7D0F69 PUSH1 0xE1 SHL DUP2 MSTORE PUSH1 0xFF SWAP1 SWAP2 AND PUSH1 0x4 DUP3 ADD MSTORE PUSH20 0x0 SWAP1 PUSH4 0xB6FA1ED2 SWAP1 PUSH1 0x24 ADD PUSH1 0x20 PUSH1 0x40 MLOAD DUP1 DUP4 SUB DUP2 DUP7 GAS DELEGATECALL ISZERO DUP1 ISZERO PUSH2 0x1242 JUMPI RETURNDATASIZE PUSH1 0x0 DUP1 RETURNDATACOPY RETURNDATASIZE PUSH1 0x0 REVERT JUMPDEST POP POP POP POP PUSH1 0x40 MLOAD RETURNDATASIZE PUSH1 0x1F NOT PUSH1 0x1F DUP3 ADD AND DUP3 ADD DUP1 PUSH1 0x40 MSTORE POP DUP2 ADD SWAP1 PUSH2 0x1266 SWAP2 SWAP1 PUSH2 0x1902 JUMP JUMPDEST ISZERO PUSH2 0x142F JUMPI PUSH2 0x1279 DUP2 PUSH2 0x140 ADD MLOAD PUSH2 0xCC4 JUMP JUMPDEST PUSH2 0x120 DUP4 ADD MSTORE PUSH2 0x160 DUP2 ADD MLOAD PUSH2 0x128E SWAP1 PUSH2 0xCC4 JUMP JUMPDEST PUSH2 0x140 DUP4 ADD MSTORE PUSH1 0x40 MLOAD PUSH4 0x23AA9AB PUSH1 0xE6 SHL DUP2 MSTORE PUSH32 0x3CB99135F7A7C088D9085B446345038A22A85F4E8FE072B0E1B66D97243E7458 PUSH1 0x4 DUP3 ADD MSTORE PUSH1 0x0 SWAP1 PUSH32 0x0 PUSH1 0x1 PUSH1 0x1 PUSH1 0xA0 SHL SUB AND SWAP1 PUSH4 0x8EAA6AC0 SWAP1 PUSH1 0x24 ADD PUSH1 0x20 PUSH1 0x40 MLOAD DUP1 DUP4 SUB DUP2 DUP7 GAS STATICCALL ISZERO DUP1 ISZERO PUSH2 0x131B JUMPI RETURNDATASIZE PUSH1 0x0 DUP1 RETURNDATACOPY RETURNDATASIZE PUSH1 0x0 REVERT JUMPDEST POP POP POP POP PUSH1 0x40 MLOAD RETURNDATASIZE PUSH1 0x1F NOT PUSH1 0x1F DUP3 ADD AND DUP3 ADD DUP1 PUSH1 0x40 MSTORE POP DUP2 ADD SWAP1 PUSH2 0x133F SWAP2 SWAP1 PUSH2 0x1B02 JUMP JUMPDEST PUSH1 0x1 PUSH1 0x1 PUSH1 0xA0 SHL SUB AND PUSH4 0x6464B68A DUP5 PUSH1 0x20 ADD MLOAD DUP6 PUSH1 0x40 ADD MLOAD PUSH1 0x40 MLOAD DUP4 PUSH4 0xFFFFFFFF AND PUSH1 0xE0 SHL DUP2 MSTORE PUSH1 0x4 ADD PUSH2 0x137D SWAP3 SWAP2 SWAP1 SWAP2 DUP3 MSTORE PUSH1 0x20 DUP3 ADD MSTORE PUSH1 0x40 ADD SWAP1 JUMP JUMPDEST PUSH1 0x60 PUSH1 0x40 MLOAD DUP1 DUP4 SUB DUP2 DUP7 GAS STATICCALL ISZERO DUP1 ISZERO PUSH2 0x139A JUMPI RETURNDATASIZE PUSH1 0x0 DUP1 RETURNDATACOPY RETURNDATASIZE PUSH1 0x0 REVERT JUMPDEST POP POP POP POP PUSH1 0x40 MLOAD RETURNDATASIZE PUSH1 0x1F NOT PUSH1 0x1F DUP3 ADD AND DUP3 ADD DUP1 PUSH1 0x40 MSTORE POP DUP2 ADD SWAP1 PUSH2 0x13BE SWAP2 SWAP1 PUSH2 0x1B1F JUMP JUMPDEST POP SWAP2 POP POP DUP1 PUSH2 0x1403 JUMPI PUSH1 0x40 MLOAD PUSH3 0x461BCD PUSH1 0xE5 SHL DUP2 MSTORE PUSH1 0x20 PUSH1 0x4 DUP3 ADD MSTORE PUSH1 0x11 PUSH1 0x24 DUP3 ADD MSTORE PUSH17 0x145D5BDD194E88139BDD081C5D5BDD1959 PUSH1 0x7A SHL PUSH1 0x44 DUP3 ADD MSTORE PUSH1 0x64 ADD PUSH2 0x5A6 JUMP JUMPDEST PUSH2 0x140 DUP4 ADD MLOAD PUSH2 0x1413 SWAP1 DUP3 PUSH2 0x193A JUMP JUMPDEST DUP4 PUSH2 0x120 ADD MLOAD PUSH2 0x1423 SWAP2 SWAP1 PUSH2 0x195C JUMP JUMPDEST PUSH2 0x100 DUP5 ADD MSTORE POP PUSH2 0x1444 JUMP JUMPDEST PUSH2 0x143D DUP2 PUSH2 0x100 ADD MLOAD PUSH2 0xCC4 JUMP JUMPDEST PUSH2 0x100 DUP4 ADD MSTORE JUMPDEST PUSH1 0x40 MLOAD PUSH4 0x212D6CB PUSH1 0xE2 SHL DUP2 MSTORE PUSH20 0x0 SWAP1 PUSH4 0x84B5B2C SWAP1 PUSH2 0x147B SWAP1 DUP5 SWAP1 PUSH1 0x4 ADD PUSH2 0x1B4D JUMP JUMPDEST PUSH1 0x20 PUSH1 0x40 MLOAD DUP1 DUP4 SUB DUP2 DUP7 GAS DELEGATECALL ISZERO DUP1 ISZERO PUSH2 0x1498 JUMPI RETURNDATASIZE PUSH1 0x0 DUP1 RETURNDATACOPY RETURNDATASIZE PUSH1 0x0 REVERT JUMPDEST POP POP POP POP PUSH1 0x40 MLOAD RETURNDATASIZE PUSH1 0x1F NOT PUSH1 0x1F DUP3 ADD AND DUP3 ADD DUP1 PUSH1 0x40 MSTORE POP DUP2 ADD SWAP1 PUSH2 0x14BC SWAP2 SWAP1 PUSH2 0x1AAA JUMP JUMPDEST PUSH2 0x160 DUP4 ADD MSTORE PUSH1 0x40 DUP2 ADD MLOAD PUSH2 0x180 DUP4 ADD SWAP1 PUSH1 0x5 DUP2 GT ISZERO PUSH2 0x14DE JUMPI PUSH2 0x14DE PUSH2 0x16E1 JUMP JUMPDEST SWAP1 DUP2 PUSH1 0x5 DUP2 GT ISZERO PUSH2 0x14F1 JUMPI PUSH2 0x14F1 PUSH2 0x16E1 JUMP JUMPDEST SWAP1 MSTORE POP PUSH1 0x60 ADD MLOAD PUSH1 0xFF AND PUSH2 0x1A0 DUP3 ADD MSTORE SWAP3 SWAP2 POP POP JUMP JUMPDEST PUSH1 0x0 SLOAD PUSH1 0x1 PUSH1 0x1 PUSH1 0xA0 SHL SUB PUSH3 0x10000 SWAP1 SWAP2 DIV AND CALLER EQ PUSH2 0x5AF JUMPI PUSH1 0x40 MLOAD PUSH3 0x461BCD PUSH1 0xE5 SHL DUP2 MSTORE PUSH1 0x20 PUSH1 0x4 DUP3 ADD MSTORE PUSH1 0x1F PUSH1 0x24 DUP3 ADD MSTORE PUSH32 0x416C6C6F77616E63653A2063616C6C6572206D757374206265204F776E657200 PUSH1 0x44 DUP3 ADD MSTORE PUSH1 0x64 ADD PUSH2 0x5A6 JUMP JUMPDEST PUSH1 0x0 DUP1 SLOAD PUSH1 0x1 PUSH1 0x1 PUSH1 0xA0 SHL SUB DUP4 DUP2 AND PUSH3 0x10000 DUP2 DUP2 MUL PUSH3 0x10000 PUSH1 0x1 PUSH1 0xB0 SHL SUB NOT DUP6 AND OR DUP6 SSTORE PUSH1 0x40 MLOAD SWAP4 DIV SWAP2 SWAP1 SWAP2 AND SWAP3 SWAP1 SWAP2 DUP4 SWAP2 PUSH32 0x8BE0079C531659141344CD1FD0A4F28419497F9722A3DAAFE3B4186F6B6457E0 SWAP2 LOG3 POP POP JUMP JUMPDEST PUSH1 0x40 MLOAD DUP1 PUSH2 0x1C0 ADD PUSH1 0x40 MSTORE DUP1 PUSH1 0x0 PUSH1 0x1 PUSH1 0x1 PUSH1 0xA0 SHL SUB AND DUP2 MSTORE PUSH1 0x20 ADD PUSH1 0x0 DUP1 NOT AND DUP2 MSTORE PUSH1 0x20 ADD PUSH1 0x0 DUP1 NOT AND DUP2 MSTORE PUSH1 0x20 ADD PUSH1 0x0 DUP2 MSTORE PUSH1 0x20 ADD PUSH1 0x0 DUP2 MSTORE PUSH1 0x20 ADD PUSH1 0x0 DUP2 MSTORE PUSH1 0x20 ADD PUSH1 0x0 DUP2 MSTORE PUSH1 0x20 ADD PUSH1 0x0 DUP2 MSTORE PUSH1 0x20 ADD PUSH1 0x0 DUP2 MSTORE PUSH1 0x20 ADD PUSH1 0x0 DUP2 MSTORE PUSH1 0x20 ADD PUSH1 0x0 DUP2 MSTORE PUSH1 0x20 ADD PUSH1 0x0 DUP2 MSTORE PUSH1 0x20 ADD PUSH1 0x0 PUSH1 0x5 DUP2 GT ISZERO PUSH2 0x1645 JUMPI PUSH2 0x1645 PUSH2 0x16E1 JUMP JUMPDEST DUP2 MSTORE PUSH1 0x0 PUSH1 0x20 SWAP1 SWAP2 ADD MSTORE SWAP1 JUMP JUMPDEST PUSH1 0x0 DUP1 DUP6 DUP6 GT ISZERO PUSH2 0x1662 JUMPI PUSH1 0x0 DUP1 REVERT JUMPDEST DUP4 DUP7 GT ISZERO PUSH2 0x166F JUMPI PUSH1 0x0 DUP1 REVERT JUMPDEST POP POP DUP3 ADD SWAP4 SWAP2 SWAP1 SWAP3 SUB SWAP2 POP JUMP JUMPDEST PUSH1 0x0 PUSH1 0x20 DUP3 DUP5 SUB SLT ISZERO PUSH2 0x168E JUMPI PUSH1 0x0 DUP1 REVERT JUMPDEST DUP2 CALLDATALOAD PUSH1 0x1 PUSH1 0x1 PUSH1 0xE0 SHL SUB NOT DUP2 AND DUP2 EQ PUSH2 0x69F JUMPI PUSH1 0x0 DUP1 REVERT JUMPDEST PUSH1 0x0 DUP1 PUSH1 0x40 DUP4 DUP6 SUB SLT ISZERO PUSH2 0x16B9 JUMPI PUSH1 0x0 DUP1 REVERT JUMPDEST POP POP DUP1 CALLDATALOAD SWAP3 PUSH1 0x20 SWAP1 SWAP2 ADD CALLDATALOAD SWAP2 POP JUMP JUMPDEST PUSH1 0x0 PUSH1 0x20 DUP3 DUP5 SUB SLT ISZERO PUSH2 0x16DA JUMPI PUSH1 0x0 DUP1 REVERT JUMPDEST POP CALLDATALOAD SWAP2 SWAP1 POP JUMP JUMPDEST PUSH4 0x4E487B71 PUSH1 0xE0 SHL PUSH1 0x0 MSTORE PUSH1 0x21 PUSH1 0x4 MSTORE PUSH1 0x24 PUSH1 0x0 REVERT JUMPDEST PUSH1 0x6 DUP2 LT PUSH2 0x1715 JUMPI PUSH4 0x4E487B71 PUSH1 0xE0 SHL PUSH1 0x0 MSTORE PUSH1 0x21 PUSH1 0x4 MSTORE PUSH1 0x24 PUSH1 0x0 REVERT JUMPDEST SWAP1 MSTORE JUMP JUMPDEST DUP2 MLOAD PUSH1 0x1 PUSH1 0x1 PUSH1 0xA0 SHL SUB AND DUP2 MSTORE PUSH2 0x1C0 DUP2 ADD PUSH1 0x20 DUP4 ADD MLOAD PUSH1 0x20 DUP4 ADD MSTORE PUSH1 0x40 DUP4 ADD MLOAD PUSH1 0x40 DUP4 ADD MSTORE PUSH1 0x60 DUP4 ADD MLOAD PUSH1 0x60 DUP4 ADD MSTORE PUSH1 0x80 DUP4 ADD MLOAD PUSH1 0x80 DUP4 ADD MSTORE PUSH1 0xA0 DUP4 ADD MLOAD PUSH1 0xA0 DUP4 ADD MSTORE PUSH1 0xC0 DUP4 ADD MLOAD PUSH1 0xC0 DUP4 ADD MSTORE PUSH1 0xE0 DUP4 ADD MLOAD PUSH1 0xE0 DUP4 ADD MSTORE PUSH2 0x100 DUP1 DUP5 ADD MLOAD DUP2 DUP5 ADD MSTORE POP PUSH2 0x120 DUP1 DUP5 ADD MLOAD DUP2 DUP5 ADD MSTORE POP PUSH2 0x140 DUP1 DUP5 ADD MLOAD DUP2 DUP5 ADD MSTORE POP PUSH2 0x160 DUP1 DUP5 ADD MLOAD DUP2 DUP5 ADD MSTORE POP PUSH2 0x180 DUP1 DUP5 ADD MLOAD PUSH2 0x17B4 DUP3 DUP6 ADD DUP3 PUSH2 0x16F7 JUMP JUMPDEST POP POP PUSH2 0x1A0 DUP4 DUP2 ADD MLOAD PUSH1 0xFF DUP2 AND DUP5 DUP4 ADD MSTORE JUMPDEST POP POP SWAP3 SWAP2 POP POP JUMP JUMPDEST PUSH1 0x1 PUSH1 0x1 PUSH1 0xA0 SHL SUB DUP2 AND DUP2 EQ PUSH2 0xD88 JUMPI PUSH1 0x0 DUP1 REVERT JUMPDEST PUSH1 0x0 PUSH1 0x20 DUP3 DUP5 SUB SLT ISZERO PUSH2 0x17F5 JUMPI PUSH1 0x0 DUP1 REVERT JUMPDEST DUP2 CALLDATALOAD PUSH2 0x69F DUP2 PUSH2 0x17CE JUMP JUMPDEST PUSH1 0x0 PUSH1 0x20 DUP1 DUP4 ADD DUP2 DUP5 MSTORE DUP1 DUP6 MLOAD DUP1 DUP4 MSTORE PUSH1 0x40 DUP7 ADD SWAP2 POP PUSH1 0x40 DUP2 PUSH1 0x5 SHL DUP8 ADD ADD SWAP3 POP DUP4 DUP8 ADD PUSH1 0x0 DUP1 JUMPDEST DUP4 DUP2 LT ISZERO PUSH2 0x187C JUMPI DUP9 DUP7 SUB PUSH1 0x3F NOT ADD DUP6 MSTORE DUP3 MLOAD DUP1 MLOAD DUP1 DUP9 MSTORE SWAP1 DUP9 ADD SWAP1 DUP9 DUP9 ADD SWAP1 DUP5 JUMPDEST DUP2 DUP2 LT ISZERO PUSH2 0x1866 JUMPI DUP4 MLOAD DUP4 MSTORE SWAP3 DUP11 ADD SWAP3 SWAP2 DUP11 ADD SWAP2 PUSH1 0x1 ADD PUSH2 0x184A JUMP JUMPDEST POP SWAP1 SWAP8 POP POP POP SWAP4 DUP7 ADD SWAP4 SWAP2 DUP7 ADD SWAP2 PUSH1 0x1 ADD PUSH2 0x1828 JUMP JUMPDEST POP SWAP4 SWAP9 SWAP8 POP POP POP POP POP POP POP POP JUMP JUMPDEST PUSH1 0x0 PUSH1 0x20 DUP3 DUP5 SUB SLT ISZERO PUSH2 0x189C JUMPI PUSH1 0x0 DUP1 REVERT JUMPDEST DUP2 CALLDATALOAD PUSH6 0xFFFFFFFFFFFF DUP2 AND DUP2 EQ PUSH2 0x69F JUMPI PUSH1 0x0 DUP1 REVERT JUMPDEST PUSH1 0x0 PUSH1 0x20 DUP3 DUP5 SUB SLT ISZERO PUSH2 0x18C4 JUMPI PUSH1 0x0 DUP1 REVERT JUMPDEST DUP2 CALLDATALOAD PUSH8 0xFFFFFFFFFFFFFFFF DUP2 AND DUP2 EQ PUSH2 0x69F JUMPI PUSH1 0x0 DUP1 REVERT JUMPDEST PUSH1 0x0 PUSH1 0x20 DUP3 DUP5 SUB SLT ISZERO PUSH2 0x18EE JUMPI PUSH1 0x0 DUP1 REVERT JUMPDEST DUP2 CALLDATALOAD PUSH4 0xFFFFFFFF DUP2 AND DUP2 EQ PUSH2 0x69F JUMPI PUSH1 0x0 DUP1 REVERT JUMPDEST PUSH1 0x0 PUSH1 0x20 DUP3 DUP5 SUB SLT ISZERO PUSH2 0x1914 JUMPI PUSH1 0x0 DUP1 REVERT JUMPDEST DUP2 MLOAD DUP1 ISZERO ISZERO DUP2 EQ PUSH2 0x69F JUMPI PUSH1 0x0 DUP1 REVERT JUMPDEST PUSH4 0x4E487B71 PUSH1 0xE0 SHL PUSH1 0x0 MSTORE PUSH1 0x11 PUSH1 0x4 MSTORE PUSH1 0x24 PUSH1 0x0 REVERT JUMPDEST PUSH1 0x0 DUP3 PUSH2 0x1957 JUMPI PUSH4 0x4E487B71 PUSH1 0xE0 SHL PUSH1 0x0 MSTORE PUSH1 0x12 PUSH1 0x4 MSTORE PUSH1 0x24 PUSH1 0x0 REVERT JUMPDEST POP DIV SWAP1 JUMP JUMPDEST PUSH1 0x0 DUP2 PUSH1 0x0 NOT DIV DUP4 GT DUP3 ISZERO ISZERO AND ISZERO PUSH2 0x1976 JUMPI PUSH2 0x1976 PUSH2 0x1924 JUMP JUMPDEST POP MUL SWAP1 JUMP JUMPDEST PUSH4 0x4E487B71 PUSH1 0xE0 SHL PUSH1 0x0 MSTORE PUSH1 0x1 PUSH1 0x4 MSTORE PUSH1 0x24 PUSH1 0x0 REVERT JUMPDEST PUSH4 0x4E487B71 PUSH1 0xE0 SHL PUSH1 0x0 MSTORE PUSH1 0x41 PUSH1 0x4 MSTORE PUSH1 0x24 PUSH1 0x0 REVERT JUMPDEST PUSH4 0x4E487B71 PUSH1 0xE0 SHL PUSH1 0x0 MSTORE PUSH1 0x32 PUSH1 0x4 MSTORE PUSH1 0x24 PUSH1 0x0 REVERT JUMPDEST PUSH1 0x0 PUSH1 0x20 DUP1 DUP4 DUP6 SUB SLT ISZERO PUSH2 0x19D0 JUMPI PUSH1 0x0 DUP1 REVERT JUMPDEST DUP3 MLOAD PUSH8 0xFFFFFFFFFFFFFFFF DUP1 DUP3 GT ISZERO PUSH2 0x19E8 JUMPI PUSH1 0x0 DUP1 REVERT JUMPDEST DUP2 DUP6 ADD SWAP2 POP DUP6 PUSH1 0x1F DUP4 ADD SLT PUSH2 0x19FC JUMPI PUSH1 0x0 DUP1 REVERT JUMPDEST DUP2 MLOAD DUP2 DUP2 GT ISZERO PUSH2 0x1A0E JUMPI PUSH2 0x1A0E PUSH2 0x1991 JUMP JUMPDEST DUP1 PUSH1 0x5 SHL PUSH1 0x40 MLOAD PUSH1 0x1F NOT PUSH1 0x3F DUP4 ADD AND DUP2 ADD DUP2 DUP2 LT DUP6 DUP3 GT OR ISZERO PUSH2 0x1A33 JUMPI PUSH2 0x1A33 PUSH2 0x1991 JUMP JUMPDEST PUSH1 0x40 MSTORE SWAP2 DUP3 MSTORE DUP5 DUP3 ADD SWAP3 POP DUP4 DUP2 ADD DUP6 ADD SWAP2 DUP9 DUP4 GT ISZERO PUSH2 0x1A51 JUMPI PUSH1 0x0 DUP1 REVERT JUMPDEST SWAP4 DUP6 ADD SWAP4 JUMPDEST DUP3 DUP6 LT ISZERO PUSH2 0x1A6F JUMPI DUP5 MLOAD DUP5 MSTORE SWAP4 DUP6 ADD SWAP4 SWAP3 DUP6 ADD SWAP3 PUSH2 0x1A56 JUMP JUMPDEST SWAP9 SWAP8 POP POP POP POP POP POP POP POP JUMP JUMPDEST PUSH1 0x0 DUP3 DUP3 LT ISZERO PUSH2 0x1A8D JUMPI PUSH2 0x1A8D PUSH2 0x1924 JUMP JUMPDEST POP SUB SWAP1 JUMP JUMPDEST PUSH1 0x0 DUP3 NOT DUP3 GT ISZERO PUSH2 0x1AA5 JUMPI PUSH2 0x1AA5 PUSH2 0x1924 JUMP JUMPDEST POP ADD SWAP1 JUMP JUMPDEST PUSH1 0x0 PUSH1 0x20 DUP3 DUP5 SUB SLT ISZERO PUSH2 0x1ABC JUMPI PUSH1 0x0 DUP1 REVERT JUMPDEST POP MLOAD SWAP2 SWAP1 POP JUMP JUMPDEST PUSH1 0x0 PUSH1 0x0 NOT DUP3 EQ ISZERO PUSH2 0x1AD7 JUMPI PUSH2 0x1AD7 PUSH2 0x1924 JUMP JUMPDEST POP PUSH1 0x1 ADD SWAP1 JUMP JUMPDEST PUSH1 0x0 DUP1 PUSH1 0x40 DUP4 DUP6 SUB SLT ISZERO PUSH2 0x1AF1 JUMPI PUSH1 0x0 DUP1 REVERT JUMPDEST POP POP DUP1 MLOAD PUSH1 0x20 SWAP1 SWAP2 ADD MLOAD SWAP1 SWAP3 SWAP1 SWAP2 POP JUMP JUMPDEST PUSH1 0x0 PUSH1 0x20 DUP3 DUP5 SUB SLT ISZERO PUSH2 0x1B14 JUMPI PUSH1 0x0 DUP1 REVERT JUMPDEST DUP2 MLOAD PUSH2 0x69F DUP2 PUSH2 0x17CE JUMP JUMPDEST PUSH1 0x0 DUP1 PUSH1 0x0 PUSH1 0x60 DUP5 DUP7 SUB SLT ISZERO PUSH2 0x1B34 JUMPI PUSH1 0x0 DUP1 REVERT JUMPDEST DUP4 MLOAD SWAP3 POP PUSH1 0x20 DUP5 ADD MLOAD SWAP2 POP PUSH1 0x40 DUP5 ADD MLOAD SWAP1 POP SWAP3 POP SWAP3 POP SWAP3 JUMP JUMPDEST DUP2 MLOAD DUP2 MSTORE PUSH1 0x20 DUP1 DUP4 ADD MLOAD PUSH2 0x180 DUP4 ADD SWAP2 PUSH2 0x1B71 SWAP1 DUP5 ADD DUP3 PUSH1 0x1 PUSH1 0x1 PUSH1 0xA0 SHL SUB AND SWAP1 MSTORE JUMP JUMPDEST POP PUSH1 0x40 DUP4 ADD MLOAD PUSH2 0x1B84 PUSH1 0x40 DUP5 ADD DUP3 PUSH2 0x16F7 JUMP JUMPDEST POP PUSH1 0x60 DUP4 ADD MLOAD PUSH2 0x1B99 PUSH1 0x60 DUP5 ADD DUP3 PUSH1 0xFF AND SWAP1 MSTORE JUMP JUMPDEST POP PUSH1 0x80 DUP4 ADD MLOAD PUSH1 0x80 DUP4 ADD MSTORE PUSH1 0xA0 DUP4 ADD MLOAD PUSH2 0x1BBF PUSH1 0xA0 DUP5 ADD DUP3 PUSH8 0xFFFFFFFFFFFFFFFF AND SWAP1 MSTORE JUMP JUMPDEST POP PUSH1 0xC0 DUP4 ADD MLOAD PUSH2 0x1BDB PUSH1 0xC0 DUP5 ADD DUP3 PUSH8 0xFFFFFFFFFFFFFFFF AND SWAP1 MSTORE JUMP JUMPDEST POP PUSH1 0xE0 DUP4 ADD MLOAD PUSH2 0x1BF7 PUSH1 0xE0 DUP5 ADD DUP3 PUSH8 0xFFFFFFFFFFFFFFFF AND SWAP1 MSTORE JUMP JUMPDEST POP PUSH2 0x100 DUP4 DUP2 ADD MLOAD PUSH8 0xFFFFFFFFFFFFFFFF SWAP1 DUP2 AND SWAP2 DUP5 ADD SWAP2 SWAP1 SWAP2 MSTORE PUSH2 0x120 DUP1 DUP6 ADD MLOAD DUP3 AND SWAP1 DUP5 ADD MSTORE PUSH2 0x140 DUP1 DUP6 ADD MLOAD DUP3 AND SWAP1 DUP5 ADD MSTORE PUSH2 0x160 DUP1 DUP6 ADD MLOAD SWAP2 DUP3 AND DUP2 DUP6 ADD MSTORE SWAP1 PUSH2 0x17C6 JUMP INVALID LOG2 PUSH5 0x6970667358 0x22 SLT KECCAK256 0xCA 0x29 0xB7 ORIGIN PUSH12 0xCBA1F3D0030966F5DDA5DF80 DIV 0x26 BLOCKHASH PUSH17 0x745B3D46FC703AF01778FF64736F6C6343 STOP ADDMOD SIGNEXTEND STOP CALLER ","sha1":"7c85933f06e3efcbd6d168036828cc751b8248b5","source":"// SPDX-License-Identifier: MIT\n// Beef MarketPlace Contracts v0.0.0 hello@mcdu.com\n\npragma solidity ^0.8.0;\n\nimport \"../Market.sol\";\nimport \"./SearchLib.sol\";\n\nbytes32 constant MARKETSEARCHCOMPLEX = keccak256(\"MarketSearchComplex\");\n\ncontract MarketSearchComplex is Market, MarketPathReader {\n    using Array for address[];\n    using Array for uint64[];\n    using Array for uint256[];\n    using Array for bytes32[];\n    using MarketLib for address[];\n    using MarketLib for SolutionSetDesc;\n    using MarketLib for SolutionSet;\n    using MarketLib for Remainer[];\n    using MarketLib for Solution[];\n\n    function id() public view virtual override (Market) returns (bytes32) {return MARKETSEARCHCOMPLEX;}\n\n    constructor(Repository rep_) Market(rep_) {}\n}\n","sourcePath":"contracts/Market/Reader/SearchComplex.sol","deployment":{"address":"0x31A656BDD257B307a0E24a897b9898Efe8Df5F08","chainid":"9997","blockHeight":12760}}