{"bytecode":"60a06040523480156200001157600080fd5b5060405162003547380380620035478339810160408190526200003491620000ae565b80620000403362000053565b6001600160a01b031660805250620000e0565b600080546001600160a01b038381166201000081810262010000600160b01b0319851617855560405193049190911692909183917f8be0079c531659141344cd1fd0a4f28419497f9722a3daafe3b4186f6b6457e091a35050565b600060208284031215620000c157600080fd5b81516001600160a01b0381168114620000d957600080fd5b9392505050565b60805161343662000111600039600081816104800152818161051f015281816105bd0152610b7101526134366000f3fe608060405234801561001057600080fd5b50600436106101cf5760003560e01c80637bb759ad11610104578063af640d0f116100a2578063d693585811610071578063d6935858146104a2578063e4b16144146104aa578063f2fde38b146104bd578063feab4454146104d0576101cf565b8063af640d0f1461042f578063b03fd40d14610455578063bd28703114610468578063ccc079591461047b576101cf565b80638da5cb5b116100de5780638da5cb5b146103ce57806394f46f6f146103f957806396e4ee3d1461040c578063979620761461041f576101cf565b80637bb759ad1461039357806383e8531a146103b3578063854ba99d146103c6576101cf565b80636464b68a116101715780636968abd31161014b5780636968abd31461034f578063715018a61461036257806372ea61bf1461036a5780637af6649a14610372576101cf565b80636464b68a1461032257806365a6b3631461033c57806365e60ef214610322576101cf565b80631e8d8223116101ad5780631e8d8223146102995780632203616d146102c75780635f5c5baa146102ef57806362965141146102f7576101cf565b806301ffc9a71461025457806305d6bd9c1461027c5780630df7408414610286575b6101d76104fa565b60006101e7602460043684612b53565b8080601f016020809104026020016040519081016040528093929190818152602001838380828437600092018290525060208501519495509250503660231981019150601f19016004838037816024600437600080826000875af49250505061024f816106c4565b505050005b610267610262366004612b9a565b6106de565b60405190151581526020015b60405180910390f35b610284610715565b005b610284610294366004612bcc565b61072c565b6102ac6102a7366004612c19565b6107b3565b60408051938452602084019290925290820152606001610273565b6102da6102d5366004612c4c565b610b3b565b60405163ffffffff9091168152602001610273565b610284610b4c565b61030a610305366004612c4c565b610c61565b6040516001600160401b039091168152602001610273565b6102ac610330366004612c65565b60008060009250925092565b61028461034a366004612d8c565b610c93565b6102ac61035d366004612c19565b610d7a565b6102846113e0565b6102846113f2565b610385610380366004612ea2565b61140c565b604051908152602001610273565b6103a66103a1366004612c19565b611425565b6040516102739190612eca565b6102ac6103c1366004612f6a565b611482565b610267611639565b6000546201000090046001600160a01b03165b6040516001600160a01b039091168152602001610273565b610284610407366004613079565b611657565b61038561041a366004612c65565b6116bc565b600054610100900460ff16610267565b7f3cb99135f7a7c088d9085b446345038a22a85f4e8fe072b0e1b66d97243e7458610385565b6103856104633660046130b5565b6116db565b6102846104763660046130d0565b6116f5565b6103e17f000000000000000000000000000000000000000000000000000000000000000081565b6102846117e7565b6103856104b8366004613113565b611803565b6102846104cb366004613139565b61181a565b6104e36104de366004612c4c565b611893565b60405165ffffffffffff9091168152602001610273565b6000546001600160a01b0362010000909104163314806105ad57506001600160a01b037f0000000000000000000000000000000000000000000000000000000000000000166316279055336040516001600160e01b031960e084901b1681526001600160a01b039091166004820152602401602060405180830381865afa158015610589573d6000803e3d6000fd5b505050506040513d601f19601f820116820180604052508101906105ad9190613154565b8061064b57506001600160a01b037f000000000000000000000000000000000000000000000000000000000000000016636d70f7ae336040516001600160e01b031960e084901b1681526001600160a01b039091166004820152602401602060405180830381865afa158015610627573d6000803e3d6000fd5b505050506040513d601f19601f8201168201806040525081019061064b9190613154565b6106c25760405162461bcd60e51b815260206004820152603960248201527f416c6c6f77616e63653a2063616c6c6572206d757374206265205265706f736960448201527f746f727920436f6e7472616374206f72204f70657261746f720000000000000060648201526084015b60405180910390fd5b565b3d6000803e8080156106d5573d6000f35b3d6000fd5b5050565b60006001600160e01b031982166301ffc9a760e01b148061070f57506001600160e01b031982166315d3789560e31b145b92915050565b61071d6104fa565b6106c26000805460ff19169055565b6107346104fa565b61073c612b10565b80516001600160a01b03878116909152815190861660209182015260029082015261076684610c61565b6001600160401b0316604082015261077d83610c61565b6001600160401b0316606082015261079482610c61565b6001600160401b031660808201526107ab816118a4565b505050505050565b60008060008085856040516020016107cc92919061318c565b60408051601f19818403018152828252805160209182012060008181526001808452848220610100870190955284546001600160a01b0390811660c08801908152918601541660e087015285526002840154919550938493849384939083019060ff16600581111561084057610840613176565b600581111561085157610851613176565b8152600291909101546001600160401b03610100820481166020840152600160481b820481166040840152600160881b82041660608301526001600160e01b0319600160c81b90910460e01b1660809091015290506005816020015160058111156108be576108be613176565b14156108d9576108cd81611d39565b9195509350915061092f565b6001816020015160058111156108f1576108f1613176565b1415610900576108cd81611eef565b60028160200151600581111561091857610918613176565b141561092f5761092781611eef565b919550935091505b8215610944575091955093509150610b349050565b888a60405160200161095792919061318c565b60408051601f1981840301815282825280516020918201206000818152600180845290849020610100860190945283546001600160a01b0390811660c08701908152918501541660e0860152845260028301549098509083019060ff1660058111156109c5576109c5613176565b60058111156109d6576109d6613176565b8152600291909101546001600160401b03610100820481166020840152600160481b820481166040840152600160881b82041660608301526001600160e01b0319600160c81b90910460e01b16608090910152600094508493508392509050600581602001516005811115610a4d57610a4d613176565b1415610a6857610a5c81611d39565b91955093509150610abe565b600181602001516005811115610a8057610a80613176565b1415610a8f57610a5c81611eef565b600281602001516005811115610aa757610aa7613176565b1415610abe57610ab681611eef565b919550935091505b82610ad85760008060009750975097505050505050610b34565b610af1846ec097ce7bc90715b34b9f10000000006131c9565b9350610b0c836ec097ce7bc90715b34b9f10000000006131c9565b9250610b27826ec097ce7bc90715b34b9f10000000006131c9565b9397509195509193505050505b9250925092565b600061070f64e8d4a51000836131c9565b6000546001600160a01b036201000090910416331480610bff57506001600160a01b037f000000000000000000000000000000000000000000000000000000000000000016636d70f7ae336040516001600160e01b031960e084901b1681526001600160a01b039091166004820152602401602060405180830381865afa158015610bdb573d6000803e3d6000fd5b505050506040513d601f19601f82011682018060405250810190610bff9190613154565b6106c25760405162461bcd60e51b815260206004820152602d60248201527f416c6c6f77616e63653a2063616c6c6572206d757374206265205265706f736960448201526c3a37b93c9027b832b930ba37b960991b60648201526084016106b9565b600080610c736402540be400846131c9565b905082610c85826402540be4006131eb565b111561070f5761070f61320a565b610c9b6104fa565b60005b81518110156106da57610d68828281518110610cbc57610cbc613220565b60200260200101516000015160000151838381518110610cde57610cde613220565b60200260200101516000015160200151848481518110610d0057610d00613220565b6020026020010151604001516001600160401b0316858581518110610d2757610d27613220565b6020026020010151606001516001600160401b0316868681518110610d4e57610d4e613220565b6020026020010151608001516001600160401b031661072c565b80610d7281613236565b915050610c9e565b6000806000808585604051602001610d9392919061318c565b60408051808303601f190181529181528151602092830120600081815260019093529120600281015491925090436001600160e01b0319908116600160c81b90920460e01b161415610e8757604080516001600160a01b03808a168252881660208201527f85fe05c69e32ec3aed403e05e055faa5b8f0dec24c0f5ef97a497b8f4b8228b5910160405180910390a16002810154610e3e9061010090046001600160401b03166116db565b6002820154610e5c90600160481b90046001600160401b03166116db565b6002830154610e7a90600160881b90046001600160401b03166116db565b9450945094505050610b34565b600080806005600285015460ff166005811115610ea657610ea6613176565b1415610f755760408051610100810190915284546001600160a01b0390811660c08301908152600187015490911660e083015281526002850154610f6991908690602083019060ff166005811115610f0057610f00613176565b6005811115610f1157610f11613176565b8152600291909101546001600160401b03610100820481166020840152600160481b820481166040840152600160881b82041660608301526001600160e01b0319600160c81b90910460e01b16608090910152611f28565b919450925090506110cf565b6001600285015460ff166005811115610f9057610f90613176565b14156110535760408051610100810190915284546001600160a01b0390811660c08301908152600187015490911660e083015281526002850154610f6991908690602083019060ff166005811115610fea57610fea613176565b6005811115610ffb57610ffb613176565b8152600291909101546001600160401b03610100820481166020840152600160481b820481166040840152600160881b82041660608301526001600160e01b0319600160c81b90910460e01b16608090910152611eef565b60028085015460ff16600581111561106d5761106d613176565b14156110cf5760408051610100810190915284546001600160a01b0390811660c08301908152600187015490911660e0830152815260028501546110c791908690602083019060ff166005811115610fea57610fea613176565b919450925090505b811561112757604080516001600160a01b03808d1682528b1660208201527f85fe05c69e32ec3aed403e05e055faa5b8f0dec24c0f5ef97a497b8f4b8228b5910160405180910390a191965094509250610b34915050565b888a60405160200161113a92919061318c565b60408051601f19818403018152918152815160209283012060008181526001909352908220909650945092508291508190506005600285015460ff16600581111561118757611187613176565b14156111ed5760408051610100810190915284546001600160a01b0390811660c08301908152600187015490911660e0830152815260028501546111e191908690602083019060ff166005811115610f0057610f00613176565b919450925090506112de565b6001600285015460ff16600581111561120857611208613176565b14156112625760408051610100810190915284546001600160a01b0390811660c08301908152600187015490911660e0830152815260028501546111e191908690602083019060ff166005811115610fea57610fea613176565b60028085015460ff16600581111561127c5761127c613176565b14156112de5760408051610100810190915284546001600160a01b0390811660c08301908152600187015490911660e0830152815260028501546112d691908690602083019060ff166005811115610fea57610fea613176565b919450925090505b8161133b57604080516001600160a01b03808d1682528b1660208201527f40431c410cc5180bf05a4efdfb1880b6095849d44d09b81b10b0aefbb6849edd910160405180910390a160008060009750975097505050505050610b34565b611354836ec097ce7bc90715b34b9f10000000006131c9565b925061136f826ec097ce7bc90715b34b9f10000000006131c9565b915061138a816ec097ce7bc90715b34b9f10000000006131c9565b604080516001600160a01b03808e1682528c1660208201529192507f85fe05c69e32ec3aed403e05e055faa5b8f0dec24c0f5ef97a497b8f4b8228b5910160405180910390a19196509450925050509250925092565b6113e8611fc2565b6106c26000612023565b6113fa6104fa565b6106c26000805460ff19166001179055565b600061070f65ffffffffffff831664174876e8006131eb565b606061147b83836014600060405190808252806020026020018201604052801561147557816020015b604080518082019091526000808252602082015281526020019060019003908161144e5790505b5061207e565b9392505050565b6000808080808080805b885181101561161b57670de0b6b3a7640000808060005b8c85815181106114b5576114b5613220565b6020026020010151518110156115b35760008d86815181106114d9576114d9613220565b602002602001015182815181106114f2576114f2613220565b602002602001015190506000806000611513846000015185602001516107b3565b925092509250816000141561153f5760008060009f509f509f5050505050505050505050505050611632565b670de0b6b3a764000061155289856131eb565b61155c91906131c9565b9750670de0b6b3a764000061157188846131eb565b61157b91906131c9565b9650670de0b6b3a764000061159087836131eb565b61159a91906131c9565b95505050505080806115ab90613236565b9150506114a3565b508715806115c057508288115b156115c9578297505b8415806115d557508085105b156115de578094505b856115eb578196506115f8565b6115f58288613251565b96505b8561160281613236565b965050505050808061161390613236565b91505061148c565b5061162682846131c9565b93965092945091925050505b9193909250565b6000805460ff16806116525750600054610100900460ff165b905090565b61165f6104fa565b611667612b10565b80516001600160a01b03858116909152815190841660209182015260019082015261169182610c61565b6001600160401b0316608082018190526060820181905260408201526116b6816118a4565b50505050565b6000670de0b6b3a76400006116d183856131eb565b61147b91906131c9565b600061070f6001600160401b0383166402540be4006131eb565b6116fd6104fa565b6000838360405160200161171292919061318c565b60408051808303601f19018152918152815160209283012060008181526003909352912080546001600160a01b0319166001600160a01b03851617905590508161175a612b10565b80516001600160a01b0387811690915281519086166020918201526005908201526000808061178884611d39565b92509250925061179783610c61565b6001600160401b031660408501526117ae82610c61565b6001600160401b031660608501526117c581610c61565b6001600160401b031660808501526117dc846118a4565b505050505050505050565b6117ef611fc2565b6106c26000805461ff001916610100179055565b600061070f63ffffffff831664e8d4a510006131eb565b611822611fc2565b6001600160a01b0381166118875760405162461bcd60e51b815260206004820152602660248201527f4f776e61626c653a206e6577206f776e657220697320746865207a65726f206160448201526564647265737360d01b60648201526084016106b9565b61189081612023565b50565b600061070f64174876e800836131c9565b805180516020918201516040516000936118c09392910161318c565b60408051601f19818403018152828252805160209182012060008181526001808452848220610100870190955284546001600160a01b0390811660c08801908152918601541660e08701528552600284015491955093929183019060ff16600581111561192f5761192f613176565b600581111561194057611940613176565b81526002919091015461010081046001600160401b03908116602080850191909152600160481b830482166040850152600160881b83049091166060840152600160c81b90910460e01b6001600160e01b03191660809092019190915284015190915060058111156119b4576119b4613176565b816020015160058111156119ca576119ca613176565b14611b7c57825180516020909101516119e39190612808565b82515181516001600160a01b0391821690528351602090810151835192169181019190915280840151908201906005811115611a2157611a21613176565b90816005811115611a3457611a34613176565b9052508251516001600160a01b0390811660009081526002602090815260409182902086519091015191516316f4b92960e21b815260048101919091529116602482015273__Array_________________________________90635bd2e4a490604401602060405180830381865af4158015611ab4573d6000803e3d6000fd5b505050506040513d601f19601f82011682018060405250810190611ad89190613154565b5082516020908101516001600160a01b039081166000908152600290925260409182902085515192516316f4b92960e21b815260048101919091529116602482015273__Array_________________________________90635bd2e4a490604401602060405180830381865af4158015611b56573d6000803e3d6000fd5b505050506040513d601f19601f82011682018060405250810190611b7a9190613154565b505b6001600160e01b0319431660a0820152604080840151908201516001600160401b039081169116148015611bc9575082606001516001600160401b031681606001516001600160401b0316145b8015611bee575082608001516001600160401b031681608001516001600160401b0316145b15611bf857505050565b6040838101516001600160401b039081168383015260608086015182169084015260808086015190911690830152600083815260016020818152929091208351805182546001600160a01b03199081166001600160a01b0392831617845591850151838501805490931691161790559183015160028301805485949360ff1990911690836005811115611c8d57611c8d613176565b02179055506040820151600290910180546060840151608085015160a09095015160e01c600160c81b0263ffffffff60c81b196001600160401b03968716600160881b02166bffffffffffffffffffffffff60881b19928716600160481b0270ffffffffffffffff0000000000000000001997909616610100029690961670ffffffffffffffffffffffffffffffff001990931692909217939093179290921692909217179055505050565b80518051602091820151604051600093849384938493611d59930161318c565b60408051601f1981840301815282825280516020918201206000818152600390925282822054633fabe5a360e21b8552925190945090926001600160a01b039092169163feaf968c9160048083019260a09291908290030181865afa158015611dc6573d6000803e3d6000fd5b505050506040513d601f19601f82011682018060405250810190611dea9190613283565b50505091505060008113611e405760405162461bcd60e51b815260206004820181905260248201527f436861696e6c696e6b2071756f7465206d75737420626520706f73697469766560448201526064016106b9565b60008281526003602090815260409182902054825163313ce56760e01b8152925184936001600160a01b039092169263313ce56792600480820193918290030181865afa158015611e95573d6000803e3d6000fd5b505050506040513d601f19601f82011682018060405250810190611eb991906132d3565b611ec490600a6133da565b611ed690670de0b6b3a76400006131c9565b611ee090826131eb565b97889750879650945050505050565b6000806000611f0184604001516116db565b611f0e85606001516116db565b611f1b86608001516116db565b9250925092509193909250565b60008060004360001b6001600160e01b0319168460a001516001600160e01b03191614611fb5576000806000611f5d87611d39565b925092509250611f6c83610c61565b6001600160401b03166040880152611f8382610c61565b6001600160401b03166060880152611f9a81610c61565b6001600160401b03166080880152611fb1876118a4565b5050505b611f0184604001516116db565b6000546001600160a01b03620100009091041633146106c25760405162461bcd60e51b815260206004820152601f60248201527f416c6c6f77616e63653a2063616c6c6572206d757374206265204f776e65720060448201526064016106b9565b600080546001600160a01b038381166201000081810262010000600160b01b0319851617855560405193049190911692909183917f8be0079c531659141344cd1fd0a4f28419497f9722a3daafe3b4186f6b6457e091a35050565b6001600160a01b03841660009081526002602090815260408083208054825181850281018501909352808352606094938301828280156120e757602002820191906000526020600020905b81546001600160a01b031681526001909101906020018083116120c9575b50939450600093506120f892505050565b60405190808252806020026020018201604052801561212b57816020015b60608152602001906001900390816121165790505b50915060005b81518110156127fe5760005b845181101561227257876001600160a01b031685828151811061216257612162613220565b6020026020010151600001516001600160a01b03161480156121cb575082828151811061219157612191613220565b60200260200101516001600160a01b03168582815181106121b4576121b4613220565b6020026020010151602001516001600160a01b0316145b806122565750876001600160a01b03168582815181106121ed576121ed613220565b6020026020010151602001516001600160a01b0316148015612256575082828151811061221c5761221c613220565b60200260200101516001600160a01b031685828151811061223f5761223f613220565b6020026020010151600001516001600160a01b0316145b1561226057612272565b8061226a81613236565b91505061213d565b845181101561228157506127ec565b866001600160a01b031683838151811061229d5761229d613220565b60200260200101516001600160a01b03161415612540576000600160008a8a6040516020016122cd92919061318c565b60408051601f1981840301815291815281516020928301208352908201929092520160002090506003600282015460ff16600581111561230f5761230f613176565b1415801561233657506004600282015460ff16600581111561233357612333613176565b14155b1561253e5760008651600161234b9190613251565b6001600160401b0381111561236257612362612c87565b6040519080825280602002602001820160405280156123a757816020015b60408051808201909152600080825260208201528152602001906001900390816123805790505b509050600092505b8651831015612402578683815181106123ca576123ca613220565b60200260200101518184815181106123e4576123e4613220565b602002602001018190525082806123fa90613236565b9350506123af565b8981848151811061241557612415613220565b6020026020010151600001906001600160a01b031690816001600160a01b0316815250508881848151811061244c5761244c613220565b6020908102919091018101516001600160a01b039092169101528551600090612476906001613251565b6001600160401b0381111561248d5761248d612c87565b6040519080825280602002602001820160405280156124c057816020015b60608152602001906001900390816124ab5790505b509050600093505b865184101561251b578684815181106124e3576124e3613220565b60200260200101518185815181106124fd576124fd613220565b6020026020010181905250838061251390613236565b9450506124c8565b818188518151811061252f5761252f613220565b60209081029190910101529550505b505b8561254b57506127fe565b60008551600161255b9190613251565b6001600160401b0381111561257257612572612c87565b6040519080825280602002602001820160405280156125b757816020015b60408051808201909152600080825260208201528152602001906001900390816125905790505b509050600091505b8551821015612612578582815181106125da576125da613220565b60200260200101518183815181106125f4576125f4613220565b6020026020010181905250818061260a90613236565b9250506125bf565b8881838151811061262557612625613220565b60209081029190910101516001600160a01b039091169052835184908490811061265157612651613220565b602002602001015181838151811061266b5761266b613220565b6020026020010151602001906001600160a01b031690816001600160a01b03168152505060006126c28585815181106126a6576126a6613220565b60200260200101518a60018b6126bc91906133e9565b8561207e565b8051909150156127e8576000865182516126dc9190613251565b6001600160401b038111156126f3576126f3612c87565b60405190808252806020026020018201604052801561272657816020015b60608152602001906001900390816127115790505b509050600093505b86518410156127815786848151811061274957612749613220565b602002602001015181858151811061276357612763613220565b6020026020010181905250838061277990613236565b94505061272e565b600093505b81518410156127e5578184815181106127a1576127a1613220565b6020026020010151818589516127b79190613251565b815181106127c7576127c7613220565b602002602001018190525083806127dd90613236565b945050612786565b95505b5050505b806127f681613236565b915050612131565b5050949350505050565b6000828260405160200161281d92919061318c565b60408051601f19818403018152828252805160209182012060008181526001808452848220610100870190955284546001600160a01b0390811660c08801908152918601541660e08701528552600284015491955093929183019060ff16600581111561288c5761288c613176565b600581111561289d5761289d613176565b8152600291909101546001600160401b03610100820481166020840152600160481b820481166040840152600160881b82041660608301526001600160e01b0319600160c81b90910460e01b16608090910152905060008160200151600581111561290a5761290a613176565b14156129165750505050565b60058160200151600581111561292e5761292e613176565b141561293e5761293e8484612ac4565b8051516001600160a01b03908116600090815260026020908152604091829020845190910151915163edefe12d60e01b815260048101919091529116602482015273__Array_________________________________9063edefe12d90604401602060405180830381865af41580156129bb573d6000803e3d6000fd5b505050506040513d601f19601f820116820180604052508101906129df9190613154565b5080516020908101516001600160a01b0390811660009081526002909252604091829020835151925163edefe12d60e01b815260048101919091529116602482015273__Array_________________________________9063edefe12d90604401602060405180830381865af4158015612a5d573d6000803e3d6000fd5b505050506040513d601f19601f82011682018060405250810190612a819190613154565b5050600090815260016020819052604090912080546001600160a01b03199081168255918101805490921690915560020180546001600160e81b03191690555050565b60008282604051602001612ad992919061318c565b60408051601f19818403018152918152815160209283012060009081526003909252902080546001600160a01b0319169055505050565b6040805161010081018252600060c0820181815260e08301829052825260208201819052918101829052606081018290526080810182905260a081019190915290565b60008085851115612b6357600080fd5b83861115612b7057600080fd5b5050820193919092039150565b80356001600160e01b031981168114612b9557600080fd5b919050565b600060208284031215612bac57600080fd5b61147b82612b7d565b80356001600160a01b0381168114612b9557600080fd5b600080600080600060a08688031215612be457600080fd5b612bed86612bb5565b9450612bfb60208701612bb5565b94979496505050506040830135926060810135926080909101359150565b60008060408385031215612c2c57600080fd5b612c3583612bb5565b9150612c4360208401612bb5565b90509250929050565b600060208284031215612c5e57600080fd5b5035919050565b60008060408385031215612c7857600080fd5b50508035926020909101359150565b634e487b7160e01b600052604160045260246000fd5b60405160c081016001600160401b0381118282101715612cbf57612cbf612c87565b60405290565b604051601f8201601f191681016001600160401b0381118282101715612ced57612ced612c87565b604052919050565b60006001600160401b03821115612d0e57612d0e612c87565b5060051b60200190565b600060408284031215612d2a57600080fd5b604051604081018181106001600160401b0382111715612d4c57612d4c612c87565b604052905080612d5b83612bb5565b8152612d6960208401612bb5565b60208201525092915050565b80356001600160401b0381168114612b9557600080fd5b60006020808385031215612d9f57600080fd5b82356001600160401b03811115612db557600080fd5b8301601f81018513612dc657600080fd5b8035612dd9612dd482612cf5565b612cc5565b81815260e09182028301840191848201919088841115612df857600080fd5b938501935b83851015612e965780858a031215612e155760008081fd5b612e1d612c9d565b612e278a87612d18565b815260408087013560068110612e3d5760008081fd5b828901526060612e4e888201612d75565b8284015260809150612e61828901612d75565b9083015260a0612e72888201612d75565b82840152612e8260c08901612b7d565b908301525083529384019391850191612dfd565b50979650505050505050565b600060208284031215612eb457600080fd5b813565ffffffffffff8116811461147b57600080fd5b60006020808301818452808551808352604092508286019150828160051b8701018488016000805b84811015612f5b57898403603f19018652825180518086529089019089860190845b81811015612f4657835180516001600160a01b039081168552908d0151168c840152928b0192918a0191600101612f14565b50509689019694505091870191600101612ef2565b50919998505050505050505050565b60006020808385031215612f7d57600080fd5b82356001600160401b0380821115612f9457600080fd5b818501915085601f830112612fa857600080fd5b8135612fb6612dd482612cf5565b81815260059190911b83018401908481019088831115612fd557600080fd5b8585015b8381101561306c57803585811115612ff15760008081fd5b8601603f81018b136130035760008081fd5b878101356040613015612dd483612cf5565b82815260069290921b83018101918a8101908e8411156130355760008081fd5b938201935b8385101561305b5761304c8f86612d18565b825293820193908b019061303a565b875250505092870192508601612fd9565b5098975050505050505050565b60008060006060848603121561308e57600080fd5b61309784612bb5565b92506130a560208501612bb5565b9150604084013590509250925092565b6000602082840312156130c757600080fd5b61147b82612d75565b6000806000606084860312156130e557600080fd5b6130ee84612bb5565b92506130fc60208501612bb5565b915061310a60408501612bb5565b90509250925092565b60006020828403121561312557600080fd5b813563ffffffff8116811461147b57600080fd5b60006020828403121561314b57600080fd5b61147b82612bb5565b60006020828403121561316657600080fd5b8151801515811461147b57600080fd5b634e487b7160e01b600052602160045260246000fd5b6bffffffffffffffffffffffff19606093841b811682529190921b16601482015260280190565b634e487b7160e01b600052601160045260246000fd5b6000826131e657634e487b7160e01b600052601260045260246000fd5b500490565b6000816000190483118215151615613205576132056131b3565b500290565b634e487b7160e01b600052600160045260246000fd5b634e487b7160e01b600052603260045260246000fd5b600060001982141561324a5761324a6131b3565b5060010190565b60008219821115613264576132646131b3565b500190565b805169ffffffffffffffffffff81168114612b9557600080fd5b600080600080600060a0868803121561329b57600080fd5b6132a486613269565b94506020860151935060408601519250606086015191506132c760808701613269565b90509295509295909350565b6000602082840312156132e557600080fd5b815160ff8116811461147b57600080fd5b600181815b80851115613331578160001904821115613317576133176131b3565b8085161561332457918102915b93841c93908002906132fb565b509250929050565b6000826133485750600161070f565b816133555750600061070f565b816001811461336b576002811461337557613391565b600191505061070f565b60ff841115613386576133866131b3565b50506001821b61070f565b5060208310610133831016604e8410600b84101617156133b4575081810a61070f565b6133be83836132f6565b80600019048211156133d2576133d26131b3565b029392505050565b600061147b60ff841683613339565b6000828210156133fb576133fb6131b3565b50039056fea2646970667358221220f5a1effb5addcfcb3f9bcdd4bf455ecc63eff117ffcf80b66abf52ca62b0f5fa64736f6c634300080b0033","bytecodeSha1":"c59126cda2f9491d49f19358de4c6581d61219e3","type":"contract","abi":[{"inputs":[{"internalType":"contract Repository","name":"rep_","type":"address"}],"stateMutability":"nonpayable","type":"constructor","name":"constructor"},{"anonymous":false,"inputs":[{"indexed":true,"internalType":"address","name":"previousOwner","type":"address"},{"indexed":true,"internalType":"address","name":"newOwner","type":"address"}],"name":"OwnershipTransferred","type":"event"},{"anonymous":false,"inputs":[{"indexed":true,"internalType":"address","name":"left_","type":"address"},{"indexed":true,"internalType":"address","name":"right_","type":"address"},{"indexed":false,"internalType":"enum QuoteSource","name":"source_","type":"uint8"},{"indexed":false,"internalType":"uint256","name":"_quotemin_","type":"uint256"},{"indexed":false,"internalType":"uint256","name":"_quoteavg_","type":"uint256"},{"indexed":false,"internalType":"uint256","name":"quotemax_","type":"uint256"}],"name":"Quoted","type":"event"},{"anonymous":false,"inputs":[{"indexed":false,"internalType":"address","name":"left_","type":"address"},{"indexed":false,"internalType":"address","name":"right_","type":"address"}],"name":"Resolved","type":"event"},{"anonymous":false,"inputs":[{"indexed":false,"internalType":"address","name":"left_","type":"address"},{"indexed":false,"internalType":"address","name":"right_","type":"address"}],"name":"Unresolved","type":"event"},{"stateMutability":"nonpayable","type":"fallback"},{"inputs":[],"name":"STOP","outputs":[{"internalType":"bool","name":"","type":"bool"}],"stateMutability":"view","type":"function"},{"inputs":[],"name":"STOPFOREVER","outputs":[{"internalType":"bool","name":"","type":"bool"}],"stateMutability":"view","type":"function"},{"inputs":[{"internalType":"uint256","name":"val_","type":"uint256"}],"name":"UInt256ToUInt32","outputs":[{"internalType":"uint32","name":"","type":"uint32"}],"stateMutability":"pure","type":"function"},{"inputs":[{"internalType":"uint256","name":"val_","type":"uint256"}],"name":"UInt256ToUInt48","outputs":[{"internalType":"uint48","name":"","type":"uint48"}],"stateMutability":"pure","type":"function"},{"inputs":[{"internalType":"uint256","name":"val_","type":"uint256"}],"name":"UInt256ToUInt64","outputs":[{"internalType":"uint64","name":"","type":"uint64"}],"stateMutability":"pure","type":"function"},{"inputs":[{"internalType":"uint32","name":"val_","type":"uint32"}],"name":"UInt32ToUInt256","outputs":[{"internalType":"uint256","name":"","type":"uint256"}],"stateMutability":"pure","type":"function"},{"inputs":[{"internalType":"uint48","name":"val_","type":"uint48"}],"name":"UInt48ToUInt256","outputs":[{"internalType":"uint256","name":"","type":"uint256"}],"stateMutability":"pure","type":"function"},{"inputs":[{"internalType":"uint64","name":"val_","type":"uint64"}],"name":"UInt64ToUInt256","outputs":[{"internalType":"uint256","name":"","type":"uint256"}],"stateMutability":"pure","type":"function"},{"inputs":[{"internalType":"address","name":"left_","type":"address"},{"internalType":"address","name":"right_","type":"address"},{"internalType":"address","name":"feedaddress_","type":"address"}],"name":"chainlinkSet","outputs":[],"stateMutability":"nonpayable","type":"function"},{"inputs":[],"name":"checkOperators","outputs":[],"stateMutability":"view","type":"function"},{"inputs":[{"components":[{"internalType":"address","name":"_left","type":"address"},{"internalType":"address","name":"_right","type":"address"}],"internalType":"struct QuoteRef[][]","name":"_convs","type":"tuple[][]"}],"name":"complexReadOnly","outputs":[{"internalType":"uint256","name":"","type":"uint256"},{"internalType":"uint256","name":"","type":"uint256"},{"internalType":"uint256","name":"","type":"uint256"}],"stateMutability":"view","type":"function"},{"inputs":[{"internalType":"address","name":"left_","type":"address"},{"internalType":"address","name":"right_","type":"address"}],"name":"complexSearch","outputs":[{"components":[{"internalType":"address","name":"_left","type":"address"},{"internalType":"address","name":"_right","type":"address"}],"internalType":"struct QuoteRef[][]","name":"complex_","type":"tuple[][]"}],"stateMutability":"view","type":"function"},{"inputs":[{"internalType":"uint256","name":"val_","type":"uint256"},{"internalType":"uint256","name":"quote_","type":"uint256"}],"name":"convert","outputs":[{"internalType":"uint256","name":"","type":"uint256"}],"stateMutability":"pure","type":"function"},{"inputs":[],"name":"id","outputs":[{"internalType":"bytes32","name":"","type":"bytes32"}],"stateMutability":"view","type":"function"},{"inputs":[{"components":[{"components":[{"internalType":"address","name":"_left","type":"address"},{"internalType":"address","name":"_right","type":"address"}],"internalType":"struct QuoteRef","name":"_ref","type":"tuple"},{"internalType":"enum QuoteSource","name":"_source","type":"uint8"},{"internalType":"uint64","name":"_quotemin","type":"uint64"},{"internalType":"uint64","name":"_quoteavg","type":"uint64"},{"internalType":"uint64","name":"_quotemax","type":"uint64"},{"internalType":"bytes4","name":"_timestamp","type":"bytes4"}],"internalType":"struct QuoteInfo[]","name":"quotes_","type":"tuple[]"}],"name":"internalMultiSet","outputs":[],"stateMutability":"nonpayable","type":"function"},{"inputs":[{"internalType":"address","name":"left_","type":"address"},{"internalType":"address","name":"right_","type":"address"},{"internalType":"uint256","name":"quotemin_","type":"uint256"},{"internalType":"uint256","name":"quoteavg_","type":"uint256"},{"internalType":"uint256","name":"quotemax_","type":"uint256"}],"name":"internalSet","outputs":[],"stateMutability":"nonpayable","type":"function"},{"inputs":[],"name":"owner","outputs":[{"internalType":"address","name":"","type":"address"}],"stateMutability":"view","type":"function"},{"inputs":[{"internalType":"bytes32","name":"left_","type":"bytes32"},{"internalType":"bytes32","name":"right_","type":"bytes32"}],"name":"read","outputs":[{"internalType":"uint256","name":"","type":"uint256"},{"internalType":"uint256","name":"","type":"uint256"},{"internalType":"uint256","name":"","type":"uint256"}],"stateMutability":"nonpayable","type":"function"},{"inputs":[{"internalType":"address","name":"left_","type":"address"},{"internalType":"address","name":"right_","type":"address"}],"name":"read","outputs":[{"internalType":"uint256","name":"","type":"uint256"},{"internalType":"uint256","name":"","type":"uint256"},{"internalType":"uint256","name":"","type":"uint256"}],"stateMutability":"nonpayable","type":"function"},{"inputs":[{"internalType":"address","name":"left_","type":"address"},{"internalType":"address","name":"right_","type":"address"}],"name":"readOnly","outputs":[{"internalType":"uint256","name":"","type":"uint256"},{"internalType":"uint256","name":"","type":"uint256"},{"internalType":"uint256","name":"","type":"uint256"}],"stateMutability":"view","type":"function"},{"inputs":[{"internalType":"bytes32","name":"left_","type":"bytes32"},{"internalType":"bytes32","name":"right_","type":"bytes32"}],"name":"readOnly","outputs":[{"internalType":"uint256","name":"","type":"uint256"},{"internalType":"uint256","name":"","type":"uint256"},{"internalType":"uint256","name":"","type":"uint256"}],"stateMutability":"view","type":"function"},{"inputs":[],"name":"renounceOwnership","outputs":[],"stateMutability":"nonpayable","type":"function"},{"inputs":[],"name":"rep","outputs":[{"internalType":"contract Repository","name":"","type":"address"}],"stateMutability":"view","type":"function"},{"inputs":[],"name":"setSTOP","outputs":[],"stateMutability":"nonpayable","type":"function"},{"inputs":[],"name":"setSTOPFOREVER","outputs":[],"stateMutability":"nonpayable","type":"function"},{"inputs":[{"internalType":"address","name":"left_","type":"address"},{"internalType":"address","name":"right_","type":"address"},{"internalType":"uint256","name":"quote_","type":"uint256"}],"name":"staticSet","outputs":[],"stateMutability":"nonpayable","type":"function"},{"inputs":[{"internalType":"bytes4","name":"interfaceId","type":"bytes4"}],"name":"supportsInterface","outputs":[{"internalType":"bool","name":"","type":"bool"}],"stateMutability":"view","type":"function"},{"inputs":[{"internalType":"address","name":"newOwner","type":"address"}],"name":"transferOwnership","outputs":[],"stateMutability":"nonpayable","type":"function"},{"inputs":[],"name":"unsetSTOP","outputs":[],"stateMutability":"nonpayable","type":"function"}],"compiler":{"version":"0.8.11+commit.d7f03943","evm_version":"istanbul","optimizer":{"enabled":true,"runs":200}},"contractName":"Quotator","deployedBytecode":"608060405234801561001057600080fd5b50600436106101cf5760003560e01c80637bb759ad11610104578063af640d0f116100a2578063d693585811610071578063d6935858146104a2578063e4b16144146104aa578063f2fde38b146104bd578063feab4454146104d0576101cf565b8063af640d0f1461042f578063b03fd40d14610455578063bd28703114610468578063ccc079591461047b576101cf565b80638da5cb5b116100de5780638da5cb5b146103ce57806394f46f6f146103f957806396e4ee3d1461040c578063979620761461041f576101cf565b80637bb759ad1461039357806383e8531a146103b3578063854ba99d146103c6576101cf565b80636464b68a116101715780636968abd31161014b5780636968abd31461034f578063715018a61461036257806372ea61bf1461036a5780637af6649a14610372576101cf565b80636464b68a1461032257806365a6b3631461033c57806365e60ef214610322576101cf565b80631e8d8223116101ad5780631e8d8223146102995780632203616d146102c75780635f5c5baa146102ef57806362965141146102f7576101cf565b806301ffc9a71461025457806305d6bd9c1461027c5780630df7408414610286575b6101d76104fa565b60006101e7602460043684612b53565b8080601f016020809104026020016040519081016040528093929190818152602001838380828437600092018290525060208501519495509250503660231981019150601f19016004838037816024600437600080826000875af49250505061024f816106c4565b505050005b610267610262366004612b9a565b6106de565b60405190151581526020015b60405180910390f35b610284610715565b005b610284610294366004612bcc565b61072c565b6102ac6102a7366004612c19565b6107b3565b60408051938452602084019290925290820152606001610273565b6102da6102d5366004612c4c565b610b3b565b60405163ffffffff9091168152602001610273565b610284610b4c565b61030a610305366004612c4c565b610c61565b6040516001600160401b039091168152602001610273565b6102ac610330366004612c65565b60008060009250925092565b61028461034a366004612d8c565b610c93565b6102ac61035d366004612c19565b610d7a565b6102846113e0565b6102846113f2565b610385610380366004612ea2565b61140c565b604051908152602001610273565b6103a66103a1366004612c19565b611425565b6040516102739190612eca565b6102ac6103c1366004612f6a565b611482565b610267611639565b6000546201000090046001600160a01b03165b6040516001600160a01b039091168152602001610273565b610284610407366004613079565b611657565b61038561041a366004612c65565b6116bc565b600054610100900460ff16610267565b7f3cb99135f7a7c088d9085b446345038a22a85f4e8fe072b0e1b66d97243e7458610385565b6103856104633660046130b5565b6116db565b6102846104763660046130d0565b6116f5565b6103e17f000000000000000000000000000000000000000000000000000000000000000081565b6102846117e7565b6103856104b8366004613113565b611803565b6102846104cb366004613139565b61181a565b6104e36104de366004612c4c565b611893565b60405165ffffffffffff9091168152602001610273565b6000546001600160a01b0362010000909104163314806105ad57506001600160a01b037f0000000000000000000000000000000000000000000000000000000000000000166316279055336040516001600160e01b031960e084901b1681526001600160a01b039091166004820152602401602060405180830381865afa158015610589573d6000803e3d6000fd5b505050506040513d601f19601f820116820180604052508101906105ad9190613154565b8061064b57506001600160a01b037f000000000000000000000000000000000000000000000000000000000000000016636d70f7ae336040516001600160e01b031960e084901b1681526001600160a01b039091166004820152602401602060405180830381865afa158015610627573d6000803e3d6000fd5b505050506040513d601f19601f8201168201806040525081019061064b9190613154565b6106c25760405162461bcd60e51b815260206004820152603960248201527f416c6c6f77616e63653a2063616c6c6572206d757374206265205265706f736960448201527f746f727920436f6e7472616374206f72204f70657261746f720000000000000060648201526084015b60405180910390fd5b565b3d6000803e8080156106d5573d6000f35b3d6000fd5b5050565b60006001600160e01b031982166301ffc9a760e01b148061070f57506001600160e01b031982166315d3789560e31b145b92915050565b61071d6104fa565b6106c26000805460ff19169055565b6107346104fa565b61073c612b10565b80516001600160a01b03878116909152815190861660209182015260029082015261076684610c61565b6001600160401b0316604082015261077d83610c61565b6001600160401b0316606082015261079482610c61565b6001600160401b031660808201526107ab816118a4565b505050505050565b60008060008085856040516020016107cc92919061318c565b60408051601f19818403018152828252805160209182012060008181526001808452848220610100870190955284546001600160a01b0390811660c08801908152918601541660e087015285526002840154919550938493849384939083019060ff16600581111561084057610840613176565b600581111561085157610851613176565b8152600291909101546001600160401b03610100820481166020840152600160481b820481166040840152600160881b82041660608301526001600160e01b0319600160c81b90910460e01b1660809091015290506005816020015160058111156108be576108be613176565b14156108d9576108cd81611d39565b9195509350915061092f565b6001816020015160058111156108f1576108f1613176565b1415610900576108cd81611eef565b60028160200151600581111561091857610918613176565b141561092f5761092781611eef565b919550935091505b8215610944575091955093509150610b349050565b888a60405160200161095792919061318c565b60408051601f1981840301815282825280516020918201206000818152600180845290849020610100860190945283546001600160a01b0390811660c08701908152918501541660e0860152845260028301549098509083019060ff1660058111156109c5576109c5613176565b60058111156109d6576109d6613176565b8152600291909101546001600160401b03610100820481166020840152600160481b820481166040840152600160881b82041660608301526001600160e01b0319600160c81b90910460e01b16608090910152600094508493508392509050600581602001516005811115610a4d57610a4d613176565b1415610a6857610a5c81611d39565b91955093509150610abe565b600181602001516005811115610a8057610a80613176565b1415610a8f57610a5c81611eef565b600281602001516005811115610aa757610aa7613176565b1415610abe57610ab681611eef565b919550935091505b82610ad85760008060009750975097505050505050610b34565b610af1846ec097ce7bc90715b34b9f10000000006131c9565b9350610b0c836ec097ce7bc90715b34b9f10000000006131c9565b9250610b27826ec097ce7bc90715b34b9f10000000006131c9565b9397509195509193505050505b9250925092565b600061070f64e8d4a51000836131c9565b6000546001600160a01b036201000090910416331480610bff57506001600160a01b037f000000000000000000000000000000000000000000000000000000000000000016636d70f7ae336040516001600160e01b031960e084901b1681526001600160a01b039091166004820152602401602060405180830381865afa158015610bdb573d6000803e3d6000fd5b505050506040513d601f19601f82011682018060405250810190610bff9190613154565b6106c25760405162461bcd60e51b815260206004820152602d60248201527f416c6c6f77616e63653a2063616c6c6572206d757374206265205265706f736960448201526c3a37b93c9027b832b930ba37b960991b60648201526084016106b9565b600080610c736402540be400846131c9565b905082610c85826402540be4006131eb565b111561070f5761070f61320a565b610c9b6104fa565b60005b81518110156106da57610d68828281518110610cbc57610cbc613220565b60200260200101516000015160000151838381518110610cde57610cde613220565b60200260200101516000015160200151848481518110610d0057610d00613220565b6020026020010151604001516001600160401b0316858581518110610d2757610d27613220565b6020026020010151606001516001600160401b0316868681518110610d4e57610d4e613220565b6020026020010151608001516001600160401b031661072c565b80610d7281613236565b915050610c9e565b6000806000808585604051602001610d9392919061318c565b60408051808303601f190181529181528151602092830120600081815260019093529120600281015491925090436001600160e01b0319908116600160c81b90920460e01b161415610e8757604080516001600160a01b03808a168252881660208201527f85fe05c69e32ec3aed403e05e055faa5b8f0dec24c0f5ef97a497b8f4b8228b5910160405180910390a16002810154610e3e9061010090046001600160401b03166116db565b6002820154610e5c90600160481b90046001600160401b03166116db565b6002830154610e7a90600160881b90046001600160401b03166116db565b9450945094505050610b34565b600080806005600285015460ff166005811115610ea657610ea6613176565b1415610f755760408051610100810190915284546001600160a01b0390811660c08301908152600187015490911660e083015281526002850154610f6991908690602083019060ff166005811115610f0057610f00613176565b6005811115610f1157610f11613176565b8152600291909101546001600160401b03610100820481166020840152600160481b820481166040840152600160881b82041660608301526001600160e01b0319600160c81b90910460e01b16608090910152611f28565b919450925090506110cf565b6001600285015460ff166005811115610f9057610f90613176565b14156110535760408051610100810190915284546001600160a01b0390811660c08301908152600187015490911660e083015281526002850154610f6991908690602083019060ff166005811115610fea57610fea613176565b6005811115610ffb57610ffb613176565b8152600291909101546001600160401b03610100820481166020840152600160481b820481166040840152600160881b82041660608301526001600160e01b0319600160c81b90910460e01b16608090910152611eef565b60028085015460ff16600581111561106d5761106d613176565b14156110cf5760408051610100810190915284546001600160a01b0390811660c08301908152600187015490911660e0830152815260028501546110c791908690602083019060ff166005811115610fea57610fea613176565b919450925090505b811561112757604080516001600160a01b03808d1682528b1660208201527f85fe05c69e32ec3aed403e05e055faa5b8f0dec24c0f5ef97a497b8f4b8228b5910160405180910390a191965094509250610b34915050565b888a60405160200161113a92919061318c565b60408051601f19818403018152918152815160209283012060008181526001909352908220909650945092508291508190506005600285015460ff16600581111561118757611187613176565b14156111ed5760408051610100810190915284546001600160a01b0390811660c08301908152600187015490911660e0830152815260028501546111e191908690602083019060ff166005811115610f0057610f00613176565b919450925090506112de565b6001600285015460ff16600581111561120857611208613176565b14156112625760408051610100810190915284546001600160a01b0390811660c08301908152600187015490911660e0830152815260028501546111e191908690602083019060ff166005811115610fea57610fea613176565b60028085015460ff16600581111561127c5761127c613176565b14156112de5760408051610100810190915284546001600160a01b0390811660c08301908152600187015490911660e0830152815260028501546112d691908690602083019060ff166005811115610fea57610fea613176565b919450925090505b8161133b57604080516001600160a01b03808d1682528b1660208201527f40431c410cc5180bf05a4efdfb1880b6095849d44d09b81b10b0aefbb6849edd910160405180910390a160008060009750975097505050505050610b34565b611354836ec097ce7bc90715b34b9f10000000006131c9565b925061136f826ec097ce7bc90715b34b9f10000000006131c9565b915061138a816ec097ce7bc90715b34b9f10000000006131c9565b604080516001600160a01b03808e1682528c1660208201529192507f85fe05c69e32ec3aed403e05e055faa5b8f0dec24c0f5ef97a497b8f4b8228b5910160405180910390a19196509450925050509250925092565b6113e8611fc2565b6106c26000612023565b6113fa6104fa565b6106c26000805460ff19166001179055565b600061070f65ffffffffffff831664174876e8006131eb565b606061147b83836014600060405190808252806020026020018201604052801561147557816020015b604080518082019091526000808252602082015281526020019060019003908161144e5790505b5061207e565b9392505050565b6000808080808080805b885181101561161b57670de0b6b3a7640000808060005b8c85815181106114b5576114b5613220565b6020026020010151518110156115b35760008d86815181106114d9576114d9613220565b602002602001015182815181106114f2576114f2613220565b602002602001015190506000806000611513846000015185602001516107b3565b925092509250816000141561153f5760008060009f509f509f5050505050505050505050505050611632565b670de0b6b3a764000061155289856131eb565b61155c91906131c9565b9750670de0b6b3a764000061157188846131eb565b61157b91906131c9565b9650670de0b6b3a764000061159087836131eb565b61159a91906131c9565b95505050505080806115ab90613236565b9150506114a3565b508715806115c057508288115b156115c9578297505b8415806115d557508085105b156115de578094505b856115eb578196506115f8565b6115f58288613251565b96505b8561160281613236565b965050505050808061161390613236565b91505061148c565b5061162682846131c9565b93965092945091925050505b9193909250565b6000805460ff16806116525750600054610100900460ff165b905090565b61165f6104fa565b611667612b10565b80516001600160a01b03858116909152815190841660209182015260019082015261169182610c61565b6001600160401b0316608082018190526060820181905260408201526116b6816118a4565b50505050565b6000670de0b6b3a76400006116d183856131eb565b61147b91906131c9565b600061070f6001600160401b0383166402540be4006131eb565b6116fd6104fa565b6000838360405160200161171292919061318c565b60408051808303601f19018152918152815160209283012060008181526003909352912080546001600160a01b0319166001600160a01b03851617905590508161175a612b10565b80516001600160a01b0387811690915281519086166020918201526005908201526000808061178884611d39565b92509250925061179783610c61565b6001600160401b031660408501526117ae82610c61565b6001600160401b031660608501526117c581610c61565b6001600160401b031660808501526117dc846118a4565b505050505050505050565b6117ef611fc2565b6106c26000805461ff001916610100179055565b600061070f63ffffffff831664e8d4a510006131eb565b611822611fc2565b6001600160a01b0381166118875760405162461bcd60e51b815260206004820152602660248201527f4f776e61626c653a206e6577206f776e657220697320746865207a65726f206160448201526564647265737360d01b60648201526084016106b9565b61189081612023565b50565b600061070f64174876e800836131c9565b805180516020918201516040516000936118c09392910161318c565b60408051601f19818403018152828252805160209182012060008181526001808452848220610100870190955284546001600160a01b0390811660c08801908152918601541660e08701528552600284015491955093929183019060ff16600581111561192f5761192f613176565b600581111561194057611940613176565b81526002919091015461010081046001600160401b03908116602080850191909152600160481b830482166040850152600160881b83049091166060840152600160c81b90910460e01b6001600160e01b03191660809092019190915284015190915060058111156119b4576119b4613176565b816020015160058111156119ca576119ca613176565b14611b7c57825180516020909101516119e39190612808565b82515181516001600160a01b0391821690528351602090810151835192169181019190915280840151908201906005811115611a2157611a21613176565b90816005811115611a3457611a34613176565b9052508251516001600160a01b0390811660009081526002602090815260409182902086519091015191516316f4b92960e21b815260048101919091529116602482015273__$f71e59c5327218924d154e230469c101bd$__90635bd2e4a490604401602060405180830381865af4158015611ab4573d6000803e3d6000fd5b505050506040513d601f19601f82011682018060405250810190611ad89190613154565b5082516020908101516001600160a01b039081166000908152600290925260409182902085515192516316f4b92960e21b815260048101919091529116602482015273__$f71e59c5327218924d154e230469c101bd$__90635bd2e4a490604401602060405180830381865af4158015611b56573d6000803e3d6000fd5b505050506040513d601f19601f82011682018060405250810190611b7a9190613154565b505b6001600160e01b0319431660a0820152604080840151908201516001600160401b039081169116148015611bc9575082606001516001600160401b031681606001516001600160401b0316145b8015611bee575082608001516001600160401b031681608001516001600160401b0316145b15611bf857505050565b6040838101516001600160401b039081168383015260608086015182169084015260808086015190911690830152600083815260016020818152929091208351805182546001600160a01b03199081166001600160a01b0392831617845591850151838501805490931691161790559183015160028301805485949360ff1990911690836005811115611c8d57611c8d613176565b02179055506040820151600290910180546060840151608085015160a09095015160e01c600160c81b0263ffffffff60c81b196001600160401b03968716600160881b02166bffffffffffffffffffffffff60881b19928716600160481b0270ffffffffffffffff0000000000000000001997909616610100029690961670ffffffffffffffffffffffffffffffff001990931692909217939093179290921692909217179055505050565b80518051602091820151604051600093849384938493611d59930161318c565b60408051601f1981840301815282825280516020918201206000818152600390925282822054633fabe5a360e21b8552925190945090926001600160a01b039092169163feaf968c9160048083019260a09291908290030181865afa158015611dc6573d6000803e3d6000fd5b505050506040513d601f19601f82011682018060405250810190611dea9190613283565b50505091505060008113611e405760405162461bcd60e51b815260206004820181905260248201527f436861696e6c696e6b2071756f7465206d75737420626520706f73697469766560448201526064016106b9565b60008281526003602090815260409182902054825163313ce56760e01b8152925184936001600160a01b039092169263313ce56792600480820193918290030181865afa158015611e95573d6000803e3d6000fd5b505050506040513d601f19601f82011682018060405250810190611eb991906132d3565b611ec490600a6133da565b611ed690670de0b6b3a76400006131c9565b611ee090826131eb565b97889750879650945050505050565b6000806000611f0184604001516116db565b611f0e85606001516116db565b611f1b86608001516116db565b9250925092509193909250565b60008060004360001b6001600160e01b0319168460a001516001600160e01b03191614611fb5576000806000611f5d87611d39565b925092509250611f6c83610c61565b6001600160401b03166040880152611f8382610c61565b6001600160401b03166060880152611f9a81610c61565b6001600160401b03166080880152611fb1876118a4565b5050505b611f0184604001516116db565b6000546001600160a01b03620100009091041633146106c25760405162461bcd60e51b815260206004820152601f60248201527f416c6c6f77616e63653a2063616c6c6572206d757374206265204f776e65720060448201526064016106b9565b600080546001600160a01b038381166201000081810262010000600160b01b0319851617855560405193049190911692909183917f8be0079c531659141344cd1fd0a4f28419497f9722a3daafe3b4186f6b6457e091a35050565b6001600160a01b03841660009081526002602090815260408083208054825181850281018501909352808352606094938301828280156120e757602002820191906000526020600020905b81546001600160a01b031681526001909101906020018083116120c9575b50939450600093506120f892505050565b60405190808252806020026020018201604052801561212b57816020015b60608152602001906001900390816121165790505b50915060005b81518110156127fe5760005b845181101561227257876001600160a01b031685828151811061216257612162613220565b6020026020010151600001516001600160a01b03161480156121cb575082828151811061219157612191613220565b60200260200101516001600160a01b03168582815181106121b4576121b4613220565b6020026020010151602001516001600160a01b0316145b806122565750876001600160a01b03168582815181106121ed576121ed613220565b6020026020010151602001516001600160a01b0316148015612256575082828151811061221c5761221c613220565b60200260200101516001600160a01b031685828151811061223f5761223f613220565b6020026020010151600001516001600160a01b0316145b1561226057612272565b8061226a81613236565b91505061213d565b845181101561228157506127ec565b866001600160a01b031683838151811061229d5761229d613220565b60200260200101516001600160a01b03161415612540576000600160008a8a6040516020016122cd92919061318c565b60408051601f1981840301815291815281516020928301208352908201929092520160002090506003600282015460ff16600581111561230f5761230f613176565b1415801561233657506004600282015460ff16600581111561233357612333613176565b14155b1561253e5760008651600161234b9190613251565b6001600160401b0381111561236257612362612c87565b6040519080825280602002602001820160405280156123a757816020015b60408051808201909152600080825260208201528152602001906001900390816123805790505b509050600092505b8651831015612402578683815181106123ca576123ca613220565b60200260200101518184815181106123e4576123e4613220565b602002602001018190525082806123fa90613236565b9350506123af565b8981848151811061241557612415613220565b6020026020010151600001906001600160a01b031690816001600160a01b0316815250508881848151811061244c5761244c613220565b6020908102919091018101516001600160a01b039092169101528551600090612476906001613251565b6001600160401b0381111561248d5761248d612c87565b6040519080825280602002602001820160405280156124c057816020015b60608152602001906001900390816124ab5790505b509050600093505b865184101561251b578684815181106124e3576124e3613220565b60200260200101518185815181106124fd576124fd613220565b6020026020010181905250838061251390613236565b9450506124c8565b818188518151811061252f5761252f613220565b60209081029190910101529550505b505b8561254b57506127fe565b60008551600161255b9190613251565b6001600160401b0381111561257257612572612c87565b6040519080825280602002602001820160405280156125b757816020015b60408051808201909152600080825260208201528152602001906001900390816125905790505b509050600091505b8551821015612612578582815181106125da576125da613220565b60200260200101518183815181106125f4576125f4613220565b6020026020010181905250818061260a90613236565b9250506125bf565b8881838151811061262557612625613220565b60209081029190910101516001600160a01b039091169052835184908490811061265157612651613220565b602002602001015181838151811061266b5761266b613220565b6020026020010151602001906001600160a01b031690816001600160a01b03168152505060006126c28585815181106126a6576126a6613220565b60200260200101518a60018b6126bc91906133e9565b8561207e565b8051909150156127e8576000865182516126dc9190613251565b6001600160401b038111156126f3576126f3612c87565b60405190808252806020026020018201604052801561272657816020015b60608152602001906001900390816127115790505b509050600093505b86518410156127815786848151811061274957612749613220565b602002602001015181858151811061276357612763613220565b6020026020010181905250838061277990613236565b94505061272e565b600093505b81518410156127e5578184815181106127a1576127a1613220565b6020026020010151818589516127b79190613251565b815181106127c7576127c7613220565b602002602001018190525083806127dd90613236565b945050612786565b95505b5050505b806127f681613236565b915050612131565b5050949350505050565b6000828260405160200161281d92919061318c565b60408051601f19818403018152828252805160209182012060008181526001808452848220610100870190955284546001600160a01b0390811660c08801908152918601541660e08701528552600284015491955093929183019060ff16600581111561288c5761288c613176565b600581111561289d5761289d613176565b8152600291909101546001600160401b03610100820481166020840152600160481b820481166040840152600160881b82041660608301526001600160e01b0319600160c81b90910460e01b16608090910152905060008160200151600581111561290a5761290a613176565b14156129165750505050565b60058160200151600581111561292e5761292e613176565b141561293e5761293e8484612ac4565b8051516001600160a01b03908116600090815260026020908152604091829020845190910151915163edefe12d60e01b815260048101919091529116602482015273__$f71e59c5327218924d154e230469c101bd$__9063edefe12d90604401602060405180830381865af41580156129bb573d6000803e3d6000fd5b505050506040513d601f19601f820116820180604052508101906129df9190613154565b5080516020908101516001600160a01b0390811660009081526002909252604091829020835151925163edefe12d60e01b815260048101919091529116602482015273__$f71e59c5327218924d154e230469c101bd$__9063edefe12d90604401602060405180830381865af4158015612a5d573d6000803e3d6000fd5b505050506040513d601f19601f82011682018060405250810190612a819190613154565b5050600090815260016020819052604090912080546001600160a01b03199081168255918101805490921690915560020180546001600160e81b03191690555050565b60008282604051602001612ad992919061318c565b60408051601f19818403018152918152815160209283012060009081526003909252902080546001600160a01b0319169055505050565b6040805161010081018252600060c0820181815260e08301829052825260208201819052918101829052606081018290526080810182905260a081019190915290565b60008085851115612b6357600080fd5b83861115612b7057600080fd5b5050820193919092039150565b80356001600160e01b031981168114612b9557600080fd5b919050565b600060208284031215612bac57600080fd5b61147b82612b7d565b80356001600160a01b0381168114612b9557600080fd5b600080600080600060a08688031215612be457600080fd5b612bed86612bb5565b9450612bfb60208701612bb5565b94979496505050506040830135926060810135926080909101359150565b60008060408385031215612c2c57600080fd5b612c3583612bb5565b9150612c4360208401612bb5565b90509250929050565b600060208284031215612c5e57600080fd5b5035919050565b60008060408385031215612c7857600080fd5b50508035926020909101359150565b634e487b7160e01b600052604160045260246000fd5b60405160c081016001600160401b0381118282101715612cbf57612cbf612c87565b60405290565b604051601f8201601f191681016001600160401b0381118282101715612ced57612ced612c87565b604052919050565b60006001600160401b03821115612d0e57612d0e612c87565b5060051b60200190565b600060408284031215612d2a57600080fd5b604051604081018181106001600160401b0382111715612d4c57612d4c612c87565b604052905080612d5b83612bb5565b8152612d6960208401612bb5565b60208201525092915050565b80356001600160401b0381168114612b9557600080fd5b60006020808385031215612d9f57600080fd5b82356001600160401b03811115612db557600080fd5b8301601f81018513612dc657600080fd5b8035612dd9612dd482612cf5565b612cc5565b81815260e09182028301840191848201919088841115612df857600080fd5b938501935b83851015612e965780858a031215612e155760008081fd5b612e1d612c9d565b612e278a87612d18565b815260408087013560068110612e3d5760008081fd5b828901526060612e4e888201612d75565b8284015260809150612e61828901612d75565b9083015260a0612e72888201612d75565b82840152612e8260c08901612b7d565b908301525083529384019391850191612dfd565b50979650505050505050565b600060208284031215612eb457600080fd5b813565ffffffffffff8116811461147b57600080fd5b60006020808301818452808551808352604092508286019150828160051b8701018488016000805b84811015612f5b57898403603f19018652825180518086529089019089860190845b81811015612f4657835180516001600160a01b039081168552908d0151168c840152928b0192918a0191600101612f14565b50509689019694505091870191600101612ef2565b50919998505050505050505050565b60006020808385031215612f7d57600080fd5b82356001600160401b0380821115612f9457600080fd5b818501915085601f830112612fa857600080fd5b8135612fb6612dd482612cf5565b81815260059190911b83018401908481019088831115612fd557600080fd5b8585015b8381101561306c57803585811115612ff15760008081fd5b8601603f81018b136130035760008081fd5b878101356040613015612dd483612cf5565b82815260069290921b83018101918a8101908e8411156130355760008081fd5b938201935b8385101561305b5761304c8f86612d18565b825293820193908b019061303a565b875250505092870192508601612fd9565b5098975050505050505050565b60008060006060848603121561308e57600080fd5b61309784612bb5565b92506130a560208501612bb5565b9150604084013590509250925092565b6000602082840312156130c757600080fd5b61147b82612d75565b6000806000606084860312156130e557600080fd5b6130ee84612bb5565b92506130fc60208501612bb5565b915061310a60408501612bb5565b90509250925092565b60006020828403121561312557600080fd5b813563ffffffff8116811461147b57600080fd5b60006020828403121561314b57600080fd5b61147b82612bb5565b60006020828403121561316657600080fd5b8151801515811461147b57600080fd5b634e487b7160e01b600052602160045260246000fd5b6bffffffffffffffffffffffff19606093841b811682529190921b16601482015260280190565b634e487b7160e01b600052601160045260246000fd5b6000826131e657634e487b7160e01b600052601260045260246000fd5b500490565b6000816000190483118215151615613205576132056131b3565b500290565b634e487b7160e01b600052600160045260246000fd5b634e487b7160e01b600052603260045260246000fd5b600060001982141561324a5761324a6131b3565b5060010190565b60008219821115613264576132646131b3565b500190565b805169ffffffffffffffffffff81168114612b9557600080fd5b600080600080600060a0868803121561329b57600080fd5b6132a486613269565b94506020860151935060408601519250606086015191506132c760808701613269565b90509295509295909350565b6000602082840312156132e557600080fd5b815160ff8116811461147b57600080fd5b600181815b80851115613331578160001904821115613317576133176131b3565b8085161561332457918102915b93841c93908002906132fb565b509250929050565b6000826133485750600161070f565b816133555750600061070f565b816001811461336b576002811461337557613391565b600191505061070f565b60ff841115613386576133866131b3565b50506001821b61070f565b5060208310610133831016604e8410600b84101617156133b4575081810a61070f565b6133be83836132f6565b80600019048211156133d2576133d26131b3565b029392505050565b600061147b60ff841683613339565b6000828210156133fb576133fb6131b3565b50039056fea2646970667358221220f5a1effb5addcfcb3f9bcdd4bf455ecc63eff117ffcf80b66abf52ca62b0f5fa64736f6c634300080b0033","language":"Solidity","natspec":{"methods":{"ownerOf()":{"details":"Returns the address of the current owner."},"renounceOwnership()":{"details":"Leaves the contract without owner. It will not be possible to call `onlyOwner` functions anymore. Can only be called by the current owner. NOTE: Renouncing ownership will leave the contract without an owner, thereby removing any functionality that is only available to the owner."},"supportsInterface(bytes4)":{"details":"Returns true if this contract implements the interface defined by `interfaceId`. See the corresponding https://eips.ethereum.org/EIPS/eip-165#how-interfaces-are-identified[EIP section] to learn more about how these ids are created. This function call must use less than 30 000 gas."},"transferOwnership(address)":{"details":"Transfers ownership of the contract to a new account (`newOwner`). Can only be called by the current owner."}},"kind":"dev","version":1},"opcodes":"PUSH1 0x80 PUSH1 0x40 MSTORE CALLVALUE DUP1 ISZERO PUSH2 0x10 JUMPI PUSH1 0x0 DUP1 REVERT JUMPDEST POP PUSH1 0x4 CALLDATASIZE LT PUSH2 0x1CF JUMPI PUSH1 0x0 CALLDATALOAD PUSH1 0xE0 SHR DUP1 PUSH4 0x7BB759AD GT PUSH2 0x104 JUMPI DUP1 PUSH4 0xAF640D0F GT PUSH2 0xA2 JUMPI DUP1 PUSH4 0xD6935858 GT PUSH2 0x71 JUMPI DUP1 PUSH4 0xD6935858 EQ PUSH2 0x4A2 JUMPI DUP1 PUSH4 0xE4B16144 EQ PUSH2 0x4AA JUMPI DUP1 PUSH4 0xF2FDE38B EQ PUSH2 0x4BD JUMPI DUP1 PUSH4 0xFEAB4454 EQ PUSH2 0x4D0 JUMPI PUSH2 0x1CF JUMP JUMPDEST DUP1 PUSH4 0xAF640D0F EQ PUSH2 0x42F JUMPI DUP1 PUSH4 0xB03FD40D EQ PUSH2 0x455 JUMPI DUP1 PUSH4 0xBD287031 EQ PUSH2 0x468 JUMPI DUP1 PUSH4 0xCCC07959 EQ PUSH2 0x47B JUMPI PUSH2 0x1CF JUMP JUMPDEST DUP1 PUSH4 0x8DA5CB5B GT PUSH2 0xDE JUMPI DUP1 PUSH4 0x8DA5CB5B EQ PUSH2 0x3CE JUMPI DUP1 PUSH4 0x94F46F6F EQ PUSH2 0x3F9 JUMPI DUP1 PUSH4 0x96E4EE3D EQ PUSH2 0x40C JUMPI DUP1 PUSH4 0x97962076 EQ PUSH2 0x41F JUMPI PUSH2 0x1CF JUMP JUMPDEST DUP1 PUSH4 0x7BB759AD EQ PUSH2 0x393 JUMPI DUP1 PUSH4 0x83E8531A EQ PUSH2 0x3B3 JUMPI DUP1 PUSH4 0x854BA99D EQ PUSH2 0x3C6 JUMPI PUSH2 0x1CF JUMP JUMPDEST DUP1 PUSH4 0x6464B68A GT PUSH2 0x171 JUMPI DUP1 PUSH4 0x6968ABD3 GT PUSH2 0x14B JUMPI DUP1 PUSH4 0x6968ABD3 EQ PUSH2 0x34F JUMPI DUP1 PUSH4 0x715018A6 EQ PUSH2 0x362 JUMPI DUP1 PUSH4 0x72EA61BF EQ PUSH2 0x36A JUMPI DUP1 PUSH4 0x7AF6649A EQ PUSH2 0x372 JUMPI PUSH2 0x1CF JUMP JUMPDEST DUP1 PUSH4 0x6464B68A EQ PUSH2 0x322 JUMPI DUP1 PUSH4 0x65A6B363 EQ PUSH2 0x33C JUMPI DUP1 PUSH4 0x65E60EF2 EQ PUSH2 0x322 JUMPI PUSH2 0x1CF JUMP JUMPDEST DUP1 PUSH4 0x1E8D8223 GT PUSH2 0x1AD JUMPI DUP1 PUSH4 0x1E8D8223 EQ PUSH2 0x299 JUMPI DUP1 PUSH4 0x2203616D EQ PUSH2 0x2C7 JUMPI DUP1 PUSH4 0x5F5C5BAA EQ PUSH2 0x2EF JUMPI DUP1 PUSH4 0x62965141 EQ PUSH2 0x2F7 JUMPI PUSH2 0x1CF JUMP JUMPDEST DUP1 PUSH4 0x1FFC9A7 EQ PUSH2 0x254 JUMPI DUP1 PUSH4 0x5D6BD9C EQ PUSH2 0x27C JUMPI DUP1 PUSH4 0xDF74084 EQ PUSH2 0x286 JUMPI JUMPDEST PUSH2 0x1D7 PUSH2 0x4FA JUMP JUMPDEST PUSH1 0x0 PUSH2 0x1E7 PUSH1 0x24 PUSH1 0x4 CALLDATASIZE DUP5 PUSH2 0x2B53 JUMP JUMPDEST DUP1 DUP1 PUSH1 0x1F ADD PUSH1 0x20 DUP1 SWAP2 DIV MUL PUSH1 0x20 ADD PUSH1 0x40 MLOAD SWAP1 DUP2 ADD PUSH1 0x40 MSTORE DUP1 SWAP4 SWAP3 SWAP2 SWAP1 DUP2 DUP2 MSTORE PUSH1 0x20 ADD DUP4 DUP4 DUP1 DUP3 DUP5 CALLDATACOPY PUSH1 0x0 SWAP3 ADD DUP3 SWAP1 MSTORE POP PUSH1 0x20 DUP6 ADD MLOAD SWAP5 SWAP6 POP SWAP3 POP POP CALLDATASIZE PUSH1 0x23 NOT DUP2 ADD SWAP2 POP PUSH1 0x1F NOT ADD PUSH1 0x4 DUP4 DUP1 CALLDATACOPY DUP2 PUSH1 0x24 PUSH1 0x4 CALLDATACOPY PUSH1 0x0 DUP1 DUP3 PUSH1 0x0 DUP8 GAS DELEGATECALL SWAP3 POP POP POP PUSH2 0x24F DUP2 PUSH2 0x6C4 JUMP JUMPDEST POP POP POP STOP JUMPDEST PUSH2 0x267 PUSH2 0x262 CALLDATASIZE PUSH1 0x4 PUSH2 0x2B9A JUMP JUMPDEST PUSH2 0x6DE JUMP JUMPDEST PUSH1 0x40 MLOAD SWAP1 ISZERO ISZERO DUP2 MSTORE PUSH1 0x20 ADD JUMPDEST PUSH1 0x40 MLOAD DUP1 SWAP2 SUB SWAP1 RETURN JUMPDEST PUSH2 0x284 PUSH2 0x715 JUMP JUMPDEST STOP JUMPDEST PUSH2 0x284 PUSH2 0x294 CALLDATASIZE PUSH1 0x4 PUSH2 0x2BCC JUMP JUMPDEST PUSH2 0x72C JUMP JUMPDEST PUSH2 0x2AC PUSH2 0x2A7 CALLDATASIZE PUSH1 0x4 PUSH2 0x2C19 JUMP JUMPDEST PUSH2 0x7B3 JUMP JUMPDEST PUSH1 0x40 DUP1 MLOAD SWAP4 DUP5 MSTORE PUSH1 0x20 DUP5 ADD SWAP3 SWAP1 SWAP3 MSTORE SWAP1 DUP3 ADD MSTORE PUSH1 0x60 ADD PUSH2 0x273 JUMP JUMPDEST PUSH2 0x2DA PUSH2 0x2D5 CALLDATASIZE PUSH1 0x4 PUSH2 0x2C4C JUMP JUMPDEST PUSH2 0xB3B JUMP JUMPDEST PUSH1 0x40 MLOAD PUSH4 0xFFFFFFFF SWAP1 SWAP2 AND DUP2 MSTORE PUSH1 0x20 ADD PUSH2 0x273 JUMP JUMPDEST PUSH2 0x284 PUSH2 0xB4C JUMP JUMPDEST PUSH2 0x30A PUSH2 0x305 CALLDATASIZE PUSH1 0x4 PUSH2 0x2C4C JUMP JUMPDEST PUSH2 0xC61 JUMP JUMPDEST PUSH1 0x40 MLOAD PUSH1 0x1 PUSH1 0x1 PUSH1 0x40 SHL SUB SWAP1 SWAP2 AND DUP2 MSTORE PUSH1 0x20 ADD PUSH2 0x273 JUMP JUMPDEST PUSH2 0x2AC PUSH2 0x330 CALLDATASIZE PUSH1 0x4 PUSH2 0x2C65 JUMP JUMPDEST PUSH1 0x0 DUP1 PUSH1 0x0 SWAP3 POP SWAP3 POP SWAP3 JUMP JUMPDEST PUSH2 0x284 PUSH2 0x34A CALLDATASIZE PUSH1 0x4 PUSH2 0x2D8C JUMP JUMPDEST PUSH2 0xC93 JUMP JUMPDEST PUSH2 0x2AC PUSH2 0x35D CALLDATASIZE PUSH1 0x4 PUSH2 0x2C19 JUMP JUMPDEST PUSH2 0xD7A JUMP JUMPDEST PUSH2 0x284 PUSH2 0x13E0 JUMP JUMPDEST PUSH2 0x284 PUSH2 0x13F2 JUMP JUMPDEST PUSH2 0x385 PUSH2 0x380 CALLDATASIZE PUSH1 0x4 PUSH2 0x2EA2 JUMP JUMPDEST PUSH2 0x140C JUMP JUMPDEST PUSH1 0x40 MLOAD SWAP1 DUP2 MSTORE PUSH1 0x20 ADD PUSH2 0x273 JUMP JUMPDEST PUSH2 0x3A6 PUSH2 0x3A1 CALLDATASIZE PUSH1 0x4 PUSH2 0x2C19 JUMP JUMPDEST PUSH2 0x1425 JUMP JUMPDEST PUSH1 0x40 MLOAD PUSH2 0x273 SWAP2 SWAP1 PUSH2 0x2ECA JUMP JUMPDEST PUSH2 0x2AC PUSH2 0x3C1 CALLDATASIZE PUSH1 0x4 PUSH2 0x2F6A JUMP JUMPDEST PUSH2 0x1482 JUMP JUMPDEST PUSH2 0x267 PUSH2 0x1639 JUMP JUMPDEST PUSH1 0x0 SLOAD PUSH3 0x10000 SWAP1 DIV PUSH1 0x1 PUSH1 0x1 PUSH1 0xA0 SHL SUB AND JUMPDEST PUSH1 0x40 MLOAD PUSH1 0x1 PUSH1 0x1 PUSH1 0xA0 SHL SUB SWAP1 SWAP2 AND DUP2 MSTORE PUSH1 0x20 ADD PUSH2 0x273 JUMP JUMPDEST PUSH2 0x284 PUSH2 0x407 CALLDATASIZE PUSH1 0x4 PUSH2 0x3079 JUMP JUMPDEST PUSH2 0x1657 JUMP JUMPDEST PUSH2 0x385 PUSH2 0x41A CALLDATASIZE PUSH1 0x4 PUSH2 0x2C65 JUMP JUMPDEST PUSH2 0x16BC JUMP JUMPDEST PUSH1 0x0 SLOAD PUSH2 0x100 SWAP1 DIV PUSH1 0xFF AND PUSH2 0x267 JUMP JUMPDEST PUSH32 0x3CB99135F7A7C088D9085B446345038A22A85F4E8FE072B0E1B66D97243E7458 PUSH2 0x385 JUMP JUMPDEST PUSH2 0x385 PUSH2 0x463 CALLDATASIZE PUSH1 0x4 PUSH2 0x30B5 JUMP JUMPDEST PUSH2 0x16DB JUMP JUMPDEST PUSH2 0x284 PUSH2 0x476 CALLDATASIZE PUSH1 0x4 PUSH2 0x30D0 JUMP JUMPDEST PUSH2 0x16F5 JUMP JUMPDEST PUSH2 0x3E1 PUSH32 0x0 DUP2 JUMP JUMPDEST PUSH2 0x284 PUSH2 0x17E7 JUMP JUMPDEST PUSH2 0x385 PUSH2 0x4B8 CALLDATASIZE PUSH1 0x4 PUSH2 0x3113 JUMP JUMPDEST PUSH2 0x1803 JUMP JUMPDEST PUSH2 0x284 PUSH2 0x4CB CALLDATASIZE PUSH1 0x4 PUSH2 0x3139 JUMP JUMPDEST PUSH2 0x181A JUMP JUMPDEST PUSH2 0x4E3 PUSH2 0x4DE CALLDATASIZE PUSH1 0x4 PUSH2 0x2C4C JUMP JUMPDEST PUSH2 0x1893 JUMP JUMPDEST PUSH1 0x40 MLOAD PUSH6 0xFFFFFFFFFFFF SWAP1 SWAP2 AND DUP2 MSTORE PUSH1 0x20 ADD PUSH2 0x273 JUMP JUMPDEST PUSH1 0x0 SLOAD PUSH1 0x1 PUSH1 0x1 PUSH1 0xA0 SHL SUB PUSH3 0x10000 SWAP1 SWAP2 DIV AND CALLER EQ DUP1 PUSH2 0x5AD JUMPI POP PUSH1 0x1 PUSH1 0x1 PUSH1 0xA0 SHL SUB PUSH32 0x0 AND PUSH4 0x16279055 CALLER PUSH1 0x40 MLOAD PUSH1 0x1 PUSH1 0x1 PUSH1 0xE0 SHL SUB NOT PUSH1 0xE0 DUP5 SWAP1 SHL AND DUP2 MSTORE PUSH1 0x1 PUSH1 0x1 PUSH1 0xA0 SHL SUB SWAP1 SWAP2 AND PUSH1 0x4 DUP3 ADD MSTORE PUSH1 0x24 ADD PUSH1 0x20 PUSH1 0x40 MLOAD DUP1 DUP4 SUB DUP2 DUP7 GAS STATICCALL ISZERO DUP1 ISZERO PUSH2 0x589 JUMPI RETURNDATASIZE PUSH1 0x0 DUP1 RETURNDATACOPY RETURNDATASIZE PUSH1 0x0 REVERT JUMPDEST POP POP POP POP PUSH1 0x40 MLOAD RETURNDATASIZE PUSH1 0x1F NOT PUSH1 0x1F DUP3 ADD AND DUP3 ADD DUP1 PUSH1 0x40 MSTORE POP DUP2 ADD SWAP1 PUSH2 0x5AD SWAP2 SWAP1 PUSH2 0x3154 JUMP JUMPDEST DUP1 PUSH2 0x64B JUMPI POP PUSH1 0x1 PUSH1 0x1 PUSH1 0xA0 SHL SUB PUSH32 0x0 AND PUSH4 0x6D70F7AE CALLER PUSH1 0x40 MLOAD PUSH1 0x1 PUSH1 0x1 PUSH1 0xE0 SHL SUB NOT PUSH1 0xE0 DUP5 SWAP1 SHL AND DUP2 MSTORE PUSH1 0x1 PUSH1 0x1 PUSH1 0xA0 SHL SUB SWAP1 SWAP2 AND PUSH1 0x4 DUP3 ADD MSTORE PUSH1 0x24 ADD PUSH1 0x20 PUSH1 0x40 MLOAD DUP1 DUP4 SUB DUP2 DUP7 GAS STATICCALL ISZERO DUP1 ISZERO PUSH2 0x627 JUMPI RETURNDATASIZE PUSH1 0x0 DUP1 RETURNDATACOPY RETURNDATASIZE PUSH1 0x0 REVERT JUMPDEST POP POP POP POP PUSH1 0x40 MLOAD RETURNDATASIZE PUSH1 0x1F NOT PUSH1 0x1F DUP3 ADD AND DUP3 ADD DUP1 PUSH1 0x40 MSTORE POP DUP2 ADD SWAP1 PUSH2 0x64B SWAP2 SWAP1 PUSH2 0x3154 JUMP JUMPDEST PUSH2 0x6C2 JUMPI PUSH1 0x40 MLOAD PUSH3 0x461BCD PUSH1 0xE5 SHL DUP2 MSTORE PUSH1 0x20 PUSH1 0x4 DUP3 ADD MSTORE PUSH1 0x39 PUSH1 0x24 DUP3 ADD MSTORE PUSH32 0x416C6C6F77616E63653A2063616C6C6572206D757374206265205265706F7369 PUSH1 0x44 DUP3 ADD MSTORE PUSH32 0x746F727920436F6E7472616374206F72204F70657261746F7200000000000000 PUSH1 0x64 DUP3 ADD MSTORE PUSH1 0x84 ADD JUMPDEST PUSH1 0x40 MLOAD DUP1 SWAP2 SUB SWAP1 REVERT JUMPDEST JUMP JUMPDEST RETURNDATASIZE PUSH1 0x0 DUP1 RETURNDATACOPY DUP1 DUP1 ISZERO PUSH2 0x6D5 JUMPI RETURNDATASIZE PUSH1 0x0 RETURN JUMPDEST RETURNDATASIZE PUSH1 0x0 REVERT JUMPDEST POP POP JUMP JUMPDEST PUSH1 0x0 PUSH1 0x1 PUSH1 0x1 PUSH1 0xE0 SHL SUB NOT DUP3 AND PUSH4 0x1FFC9A7 PUSH1 0xE0 SHL EQ DUP1 PUSH2 0x70F JUMPI POP PUSH1 0x1 PUSH1 0x1 PUSH1 0xE0 SHL SUB NOT DUP3 AND PUSH4 0x15D37895 PUSH1 0xE3 SHL EQ JUMPDEST SWAP3 SWAP2 POP POP JUMP JUMPDEST PUSH2 0x71D PUSH2 0x4FA JUMP JUMPDEST PUSH2 0x6C2 PUSH1 0x0 DUP1 SLOAD PUSH1 0xFF NOT AND SWAP1 SSTORE JUMP JUMPDEST PUSH2 0x734 PUSH2 0x4FA JUMP JUMPDEST PUSH2 0x73C PUSH2 0x2B10 JUMP JUMPDEST DUP1 MLOAD PUSH1 0x1 PUSH1 0x1 PUSH1 0xA0 SHL SUB DUP8 DUP2 AND SWAP1 SWAP2 MSTORE DUP2 MLOAD SWAP1 DUP7 AND PUSH1 0x20 SWAP2 DUP3 ADD MSTORE PUSH1 0x2 SWAP1 DUP3 ADD MSTORE PUSH2 0x766 DUP5 PUSH2 0xC61 JUMP JUMPDEST PUSH1 0x1 PUSH1 0x1 PUSH1 0x40 SHL SUB AND PUSH1 0x40 DUP3 ADD MSTORE PUSH2 0x77D DUP4 PUSH2 0xC61 JUMP JUMPDEST PUSH1 0x1 PUSH1 0x1 PUSH1 0x40 SHL SUB AND PUSH1 0x60 DUP3 ADD MSTORE PUSH2 0x794 DUP3 PUSH2 0xC61 JUMP JUMPDEST PUSH1 0x1 PUSH1 0x1 PUSH1 0x40 SHL SUB AND PUSH1 0x80 DUP3 ADD MSTORE PUSH2 0x7AB DUP2 PUSH2 0x18A4 JUMP JUMPDEST POP POP POP POP POP POP JUMP JUMPDEST PUSH1 0x0 DUP1 PUSH1 0x0 DUP1 DUP6 DUP6 PUSH1 0x40 MLOAD PUSH1 0x20 ADD PUSH2 0x7CC SWAP3 SWAP2 SWAP1 PUSH2 0x318C JUMP JUMPDEST PUSH1 0x40 DUP1 MLOAD PUSH1 0x1F NOT DUP2 DUP5 SUB ADD DUP2 MSTORE DUP3 DUP3 MSTORE DUP1 MLOAD PUSH1 0x20 SWAP2 DUP3 ADD KECCAK256 PUSH1 0x0 DUP2 DUP2 MSTORE PUSH1 0x1 DUP1 DUP5 MSTORE DUP5 DUP3 KECCAK256 PUSH2 0x100 DUP8 ADD SWAP1 SWAP6 MSTORE DUP5 SLOAD PUSH1 0x1 PUSH1 0x1 PUSH1 0xA0 SHL SUB SWAP1 DUP2 AND PUSH1 0xC0 DUP9 ADD SWAP1 DUP2 MSTORE SWAP2 DUP7 ADD SLOAD AND PUSH1 0xE0 DUP8 ADD MSTORE DUP6 MSTORE PUSH1 0x2 DUP5 ADD SLOAD SWAP2 SWAP6 POP SWAP4 DUP5 SWAP4 DUP5 SWAP4 DUP5 SWAP4 SWAP1 DUP4 ADD SWAP1 PUSH1 0xFF AND PUSH1 0x5 DUP2 GT ISZERO PUSH2 0x840 JUMPI PUSH2 0x840 PUSH2 0x3176 JUMP JUMPDEST PUSH1 0x5 DUP2 GT ISZERO PUSH2 0x851 JUMPI PUSH2 0x851 PUSH2 0x3176 JUMP JUMPDEST DUP2 MSTORE PUSH1 0x2 SWAP2 SWAP1 SWAP2 ADD SLOAD PUSH1 0x1 PUSH1 0x1 PUSH1 0x40 SHL SUB PUSH2 0x100 DUP3 DIV DUP2 AND PUSH1 0x20 DUP5 ADD MSTORE PUSH1 0x1 PUSH1 0x48 SHL DUP3 DIV DUP2 AND PUSH1 0x40 DUP5 ADD MSTORE PUSH1 0x1 PUSH1 0x88 SHL DUP3 DIV AND PUSH1 0x60 DUP4 ADD MSTORE PUSH1 0x1 PUSH1 0x1 PUSH1 0xE0 SHL SUB NOT PUSH1 0x1 PUSH1 0xC8 SHL SWAP1 SWAP2 DIV PUSH1 0xE0 SHL AND PUSH1 0x80 SWAP1 SWAP2 ADD MSTORE SWAP1 POP PUSH1 0x5 DUP2 PUSH1 0x20 ADD MLOAD PUSH1 0x5 DUP2 GT ISZERO PUSH2 0x8BE JUMPI PUSH2 0x8BE PUSH2 0x3176 JUMP JUMPDEST EQ ISZERO PUSH2 0x8D9 JUMPI PUSH2 0x8CD DUP2 PUSH2 0x1D39 JUMP JUMPDEST SWAP2 SWAP6 POP SWAP4 POP SWAP2 POP PUSH2 0x92F JUMP JUMPDEST PUSH1 0x1 DUP2 PUSH1 0x20 ADD MLOAD PUSH1 0x5 DUP2 GT ISZERO PUSH2 0x8F1 JUMPI PUSH2 0x8F1 PUSH2 0x3176 JUMP JUMPDEST EQ ISZERO PUSH2 0x900 JUMPI PUSH2 0x8CD DUP2 PUSH2 0x1EEF JUMP JUMPDEST PUSH1 0x2 DUP2 PUSH1 0x20 ADD MLOAD PUSH1 0x5 DUP2 GT ISZERO PUSH2 0x918 JUMPI PUSH2 0x918 PUSH2 0x3176 JUMP JUMPDEST EQ ISZERO PUSH2 0x92F JUMPI PUSH2 0x927 DUP2 PUSH2 0x1EEF JUMP JUMPDEST SWAP2 SWAP6 POP SWAP4 POP SWAP2 POP JUMPDEST DUP3 ISZERO PUSH2 0x944 JUMPI POP SWAP2 SWAP6 POP SWAP4 POP SWAP2 POP PUSH2 0xB34 SWAP1 POP JUMP JUMPDEST DUP9 DUP11 PUSH1 0x40 MLOAD PUSH1 0x20 ADD PUSH2 0x957 SWAP3 SWAP2 SWAP1 PUSH2 0x318C JUMP JUMPDEST PUSH1 0x40 DUP1 MLOAD PUSH1 0x1F NOT DUP2 DUP5 SUB ADD DUP2 MSTORE DUP3 DUP3 MSTORE DUP1 MLOAD PUSH1 0x20 SWAP2 DUP3 ADD KECCAK256 PUSH1 0x0 DUP2 DUP2 MSTORE PUSH1 0x1 DUP1 DUP5 MSTORE SWAP1 DUP5 SWAP1 KECCAK256 PUSH2 0x100 DUP7 ADD SWAP1 SWAP5 MSTORE DUP4 SLOAD PUSH1 0x1 PUSH1 0x1 PUSH1 0xA0 SHL SUB SWAP1 DUP2 AND PUSH1 0xC0 DUP8 ADD SWAP1 DUP2 MSTORE SWAP2 DUP6 ADD SLOAD AND PUSH1 0xE0 DUP7 ADD MSTORE DUP5 MSTORE PUSH1 0x2 DUP4 ADD SLOAD SWAP1 SWAP9 POP SWAP1 DUP4 ADD SWAP1 PUSH1 0xFF AND PUSH1 0x5 DUP2 GT ISZERO PUSH2 0x9C5 JUMPI PUSH2 0x9C5 PUSH2 0x3176 JUMP JUMPDEST PUSH1 0x5 DUP2 GT ISZERO PUSH2 0x9D6 JUMPI PUSH2 0x9D6 PUSH2 0x3176 JUMP JUMPDEST DUP2 MSTORE PUSH1 0x2 SWAP2 SWAP1 SWAP2 ADD SLOAD PUSH1 0x1 PUSH1 0x1 PUSH1 0x40 SHL SUB PUSH2 0x100 DUP3 DIV DUP2 AND PUSH1 0x20 DUP5 ADD MSTORE PUSH1 0x1 PUSH1 0x48 SHL DUP3 DIV DUP2 AND PUSH1 0x40 DUP5 ADD MSTORE PUSH1 0x1 PUSH1 0x88 SHL DUP3 DIV AND PUSH1 0x60 DUP4 ADD MSTORE PUSH1 0x1 PUSH1 0x1 PUSH1 0xE0 SHL SUB NOT PUSH1 0x1 PUSH1 0xC8 SHL SWAP1 SWAP2 DIV PUSH1 0xE0 SHL AND PUSH1 0x80 SWAP1 SWAP2 ADD MSTORE PUSH1 0x0 SWAP5 POP DUP5 SWAP4 POP DUP4 SWAP3 POP SWAP1 POP PUSH1 0x5 DUP2 PUSH1 0x20 ADD MLOAD PUSH1 0x5 DUP2 GT ISZERO PUSH2 0xA4D JUMPI PUSH2 0xA4D PUSH2 0x3176 JUMP JUMPDEST EQ ISZERO PUSH2 0xA68 JUMPI PUSH2 0xA5C DUP2 PUSH2 0x1D39 JUMP JUMPDEST SWAP2 SWAP6 POP SWAP4 POP SWAP2 POP PUSH2 0xABE JUMP JUMPDEST PUSH1 0x1 DUP2 PUSH1 0x20 ADD MLOAD PUSH1 0x5 DUP2 GT ISZERO PUSH2 0xA80 JUMPI PUSH2 0xA80 PUSH2 0x3176 JUMP JUMPDEST EQ ISZERO PUSH2 0xA8F JUMPI PUSH2 0xA5C DUP2 PUSH2 0x1EEF JUMP JUMPDEST PUSH1 0x2 DUP2 PUSH1 0x20 ADD MLOAD PUSH1 0x5 DUP2 GT ISZERO PUSH2 0xAA7 JUMPI PUSH2 0xAA7 PUSH2 0x3176 JUMP JUMPDEST EQ ISZERO PUSH2 0xABE JUMPI PUSH2 0xAB6 DUP2 PUSH2 0x1EEF JUMP JUMPDEST SWAP2 SWAP6 POP SWAP4 POP SWAP2 POP JUMPDEST DUP3 PUSH2 0xAD8 JUMPI PUSH1 0x0 DUP1 PUSH1 0x0 SWAP8 POP SWAP8 POP SWAP8 POP POP POP POP POP POP PUSH2 0xB34 JUMP JUMPDEST PUSH2 0xAF1 DUP5 PUSH15 0xC097CE7BC90715B34B9F1000000000 PUSH2 0x31C9 JUMP JUMPDEST SWAP4 POP PUSH2 0xB0C DUP4 PUSH15 0xC097CE7BC90715B34B9F1000000000 PUSH2 0x31C9 JUMP JUMPDEST SWAP3 POP PUSH2 0xB27 DUP3 PUSH15 0xC097CE7BC90715B34B9F1000000000 PUSH2 0x31C9 JUMP JUMPDEST SWAP4 SWAP8 POP SWAP2 SWAP6 POP SWAP2 SWAP4 POP POP POP POP JUMPDEST SWAP3 POP SWAP3 POP SWAP3 JUMP JUMPDEST PUSH1 0x0 PUSH2 0x70F PUSH5 0xE8D4A51000 DUP4 PUSH2 0x31C9 JUMP JUMPDEST PUSH1 0x0 SLOAD PUSH1 0x1 PUSH1 0x1 PUSH1 0xA0 SHL SUB PUSH3 0x10000 SWAP1 SWAP2 DIV AND CALLER EQ DUP1 PUSH2 0xBFF JUMPI POP PUSH1 0x1 PUSH1 0x1 PUSH1 0xA0 SHL SUB PUSH32 0x0 AND PUSH4 0x6D70F7AE CALLER PUSH1 0x40 MLOAD PUSH1 0x1 PUSH1 0x1 PUSH1 0xE0 SHL SUB NOT PUSH1 0xE0 DUP5 SWAP1 SHL AND DUP2 MSTORE PUSH1 0x1 PUSH1 0x1 PUSH1 0xA0 SHL SUB SWAP1 SWAP2 AND PUSH1 0x4 DUP3 ADD MSTORE PUSH1 0x24 ADD PUSH1 0x20 PUSH1 0x40 MLOAD DUP1 DUP4 SUB DUP2 DUP7 GAS STATICCALL ISZERO DUP1 ISZERO PUSH2 0xBDB JUMPI RETURNDATASIZE PUSH1 0x0 DUP1 RETURNDATACOPY RETURNDATASIZE PUSH1 0x0 REVERT JUMPDEST POP POP POP POP PUSH1 0x40 MLOAD RETURNDATASIZE PUSH1 0x1F NOT PUSH1 0x1F DUP3 ADD AND DUP3 ADD DUP1 PUSH1 0x40 MSTORE POP DUP2 ADD SWAP1 PUSH2 0xBFF SWAP2 SWAP1 PUSH2 0x3154 JUMP JUMPDEST PUSH2 0x6C2 JUMPI PUSH1 0x40 MLOAD PUSH3 0x461BCD PUSH1 0xE5 SHL DUP2 MSTORE PUSH1 0x20 PUSH1 0x4 DUP3 ADD MSTORE PUSH1 0x2D PUSH1 0x24 DUP3 ADD MSTORE PUSH32 0x416C6C6F77616E63653A2063616C6C6572206D757374206265205265706F7369 PUSH1 0x44 DUP3 ADD MSTORE PUSH13 0x3A37B93C9027B832B930BA37B9 PUSH1 0x99 SHL PUSH1 0x64 DUP3 ADD MSTORE PUSH1 0x84 ADD PUSH2 0x6B9 JUMP JUMPDEST PUSH1 0x0 DUP1 PUSH2 0xC73 PUSH5 0x2540BE400 DUP5 PUSH2 0x31C9 JUMP JUMPDEST SWAP1 POP DUP3 PUSH2 0xC85 DUP3 PUSH5 0x2540BE400 PUSH2 0x31EB JUMP JUMPDEST GT ISZERO PUSH2 0x70F JUMPI PUSH2 0x70F PUSH2 0x320A JUMP JUMPDEST PUSH2 0xC9B PUSH2 0x4FA JUMP JUMPDEST PUSH1 0x0 JUMPDEST DUP2 MLOAD DUP2 LT ISZERO PUSH2 0x6DA JUMPI PUSH2 0xD68 DUP3 DUP3 DUP2 MLOAD DUP2 LT PUSH2 0xCBC JUMPI PUSH2 0xCBC PUSH2 0x3220 JUMP JUMPDEST PUSH1 0x20 MUL PUSH1 0x20 ADD ADD MLOAD PUSH1 0x0 ADD MLOAD PUSH1 0x0 ADD MLOAD DUP4 DUP4 DUP2 MLOAD DUP2 LT PUSH2 0xCDE JUMPI PUSH2 0xCDE PUSH2 0x3220 JUMP JUMPDEST PUSH1 0x20 MUL PUSH1 0x20 ADD ADD MLOAD PUSH1 0x0 ADD MLOAD PUSH1 0x20 ADD MLOAD DUP5 DUP5 DUP2 MLOAD DUP2 LT PUSH2 0xD00 JUMPI PUSH2 0xD00 PUSH2 0x3220 JUMP JUMPDEST PUSH1 0x20 MUL PUSH1 0x20 ADD ADD MLOAD PUSH1 0x40 ADD MLOAD PUSH1 0x1 PUSH1 0x1 PUSH1 0x40 SHL SUB AND DUP6 DUP6 DUP2 MLOAD DUP2 LT PUSH2 0xD27 JUMPI PUSH2 0xD27 PUSH2 0x3220 JUMP JUMPDEST PUSH1 0x20 MUL PUSH1 0x20 ADD ADD MLOAD PUSH1 0x60 ADD MLOAD PUSH1 0x1 PUSH1 0x1 PUSH1 0x40 SHL SUB AND DUP7 DUP7 DUP2 MLOAD DUP2 LT PUSH2 0xD4E JUMPI PUSH2 0xD4E PUSH2 0x3220 JUMP JUMPDEST PUSH1 0x20 MUL PUSH1 0x20 ADD ADD MLOAD PUSH1 0x80 ADD MLOAD PUSH1 0x1 PUSH1 0x1 PUSH1 0x40 SHL SUB AND PUSH2 0x72C JUMP JUMPDEST DUP1 PUSH2 0xD72 DUP2 PUSH2 0x3236 JUMP JUMPDEST SWAP2 POP POP PUSH2 0xC9E JUMP JUMPDEST PUSH1 0x0 DUP1 PUSH1 0x0 DUP1 DUP6 DUP6 PUSH1 0x40 MLOAD PUSH1 0x20 ADD PUSH2 0xD93 SWAP3 SWAP2 SWAP1 PUSH2 0x318C JUMP JUMPDEST PUSH1 0x40 DUP1 MLOAD DUP1 DUP4 SUB PUSH1 0x1F NOT ADD DUP2 MSTORE SWAP2 DUP2 MSTORE DUP2 MLOAD PUSH1 0x20 SWAP3 DUP4 ADD KECCAK256 PUSH1 0x0 DUP2 DUP2 MSTORE PUSH1 0x1 SWAP1 SWAP4 MSTORE SWAP2 KECCAK256 PUSH1 0x2 DUP2 ADD SLOAD SWAP2 SWAP3 POP SWAP1 NUMBER PUSH1 0x1 PUSH1 0x1 PUSH1 0xE0 SHL SUB NOT SWAP1 DUP2 AND PUSH1 0x1 PUSH1 0xC8 SHL SWAP1 SWAP3 DIV PUSH1 0xE0 SHL AND EQ ISZERO PUSH2 0xE87 JUMPI PUSH1 0x40 DUP1 MLOAD PUSH1 0x1 PUSH1 0x1 PUSH1 0xA0 SHL SUB DUP1 DUP11 AND DUP3 MSTORE DUP9 AND PUSH1 0x20 DUP3 ADD MSTORE PUSH32 0x85FE05C69E32EC3AED403E05E055FAA5B8F0DEC24C0F5EF97A497B8F4B8228B5 SWAP2 ADD PUSH1 0x40 MLOAD DUP1 SWAP2 SUB SWAP1 LOG1 PUSH1 0x2 DUP2 ADD SLOAD PUSH2 0xE3E SWAP1 PUSH2 0x100 SWAP1 DIV PUSH1 0x1 PUSH1 0x1 PUSH1 0x40 SHL SUB AND PUSH2 0x16DB JUMP JUMPDEST PUSH1 0x2 DUP3 ADD SLOAD PUSH2 0xE5C SWAP1 PUSH1 0x1 PUSH1 0x48 SHL SWAP1 DIV PUSH1 0x1 PUSH1 0x1 PUSH1 0x40 SHL SUB AND PUSH2 0x16DB JUMP JUMPDEST PUSH1 0x2 DUP4 ADD SLOAD PUSH2 0xE7A SWAP1 PUSH1 0x1 PUSH1 0x88 SHL SWAP1 DIV PUSH1 0x1 PUSH1 0x1 PUSH1 0x40 SHL SUB AND PUSH2 0x16DB JUMP JUMPDEST SWAP5 POP SWAP5 POP SWAP5 POP POP POP PUSH2 0xB34 JUMP JUMPDEST PUSH1 0x0 DUP1 DUP1 PUSH1 0x5 PUSH1 0x2 DUP6 ADD SLOAD PUSH1 0xFF AND PUSH1 0x5 DUP2 GT ISZERO PUSH2 0xEA6 JUMPI PUSH2 0xEA6 PUSH2 0x3176 JUMP JUMPDEST EQ ISZERO PUSH2 0xF75 JUMPI PUSH1 0x40 DUP1 MLOAD PUSH2 0x100 DUP2 ADD SWAP1 SWAP2 MSTORE DUP5 SLOAD PUSH1 0x1 PUSH1 0x1 PUSH1 0xA0 SHL SUB SWAP1 DUP2 AND PUSH1 0xC0 DUP4 ADD SWAP1 DUP2 MSTORE PUSH1 0x1 DUP8 ADD SLOAD SWAP1 SWAP2 AND PUSH1 0xE0 DUP4 ADD MSTORE DUP2 MSTORE PUSH1 0x2 DUP6 ADD SLOAD PUSH2 0xF69 SWAP2 SWAP1 DUP7 SWAP1 PUSH1 0x20 DUP4 ADD SWAP1 PUSH1 0xFF AND PUSH1 0x5 DUP2 GT ISZERO PUSH2 0xF00 JUMPI PUSH2 0xF00 PUSH2 0x3176 JUMP JUMPDEST PUSH1 0x5 DUP2 GT ISZERO PUSH2 0xF11 JUMPI PUSH2 0xF11 PUSH2 0x3176 JUMP JUMPDEST DUP2 MSTORE PUSH1 0x2 SWAP2 SWAP1 SWAP2 ADD SLOAD PUSH1 0x1 PUSH1 0x1 PUSH1 0x40 SHL SUB PUSH2 0x100 DUP3 DIV DUP2 AND PUSH1 0x20 DUP5 ADD MSTORE PUSH1 0x1 PUSH1 0x48 SHL DUP3 DIV DUP2 AND PUSH1 0x40 DUP5 ADD MSTORE PUSH1 0x1 PUSH1 0x88 SHL DUP3 DIV AND PUSH1 0x60 DUP4 ADD MSTORE PUSH1 0x1 PUSH1 0x1 PUSH1 0xE0 SHL SUB NOT PUSH1 0x1 PUSH1 0xC8 SHL SWAP1 SWAP2 DIV PUSH1 0xE0 SHL AND PUSH1 0x80 SWAP1 SWAP2 ADD MSTORE PUSH2 0x1F28 JUMP JUMPDEST SWAP2 SWAP5 POP SWAP3 POP SWAP1 POP PUSH2 0x10CF JUMP JUMPDEST PUSH1 0x1 PUSH1 0x2 DUP6 ADD SLOAD PUSH1 0xFF AND PUSH1 0x5 DUP2 GT ISZERO PUSH2 0xF90 JUMPI PUSH2 0xF90 PUSH2 0x3176 JUMP JUMPDEST EQ ISZERO PUSH2 0x1053 JUMPI PUSH1 0x40 DUP1 MLOAD PUSH2 0x100 DUP2 ADD SWAP1 SWAP2 MSTORE DUP5 SLOAD PUSH1 0x1 PUSH1 0x1 PUSH1 0xA0 SHL SUB SWAP1 DUP2 AND PUSH1 0xC0 DUP4 ADD SWAP1 DUP2 MSTORE PUSH1 0x1 DUP8 ADD SLOAD SWAP1 SWAP2 AND PUSH1 0xE0 DUP4 ADD MSTORE DUP2 MSTORE PUSH1 0x2 DUP6 ADD SLOAD PUSH2 0xF69 SWAP2 SWAP1 DUP7 SWAP1 PUSH1 0x20 DUP4 ADD SWAP1 PUSH1 0xFF AND PUSH1 0x5 DUP2 GT ISZERO PUSH2 0xFEA JUMPI PUSH2 0xFEA PUSH2 0x3176 JUMP JUMPDEST PUSH1 0x5 DUP2 GT ISZERO PUSH2 0xFFB JUMPI PUSH2 0xFFB PUSH2 0x3176 JUMP JUMPDEST DUP2 MSTORE PUSH1 0x2 SWAP2 SWAP1 SWAP2 ADD SLOAD PUSH1 0x1 PUSH1 0x1 PUSH1 0x40 SHL SUB PUSH2 0x100 DUP3 DIV DUP2 AND PUSH1 0x20 DUP5 ADD MSTORE PUSH1 0x1 PUSH1 0x48 SHL DUP3 DIV DUP2 AND PUSH1 0x40 DUP5 ADD MSTORE PUSH1 0x1 PUSH1 0x88 SHL DUP3 DIV AND PUSH1 0x60 DUP4 ADD MSTORE PUSH1 0x1 PUSH1 0x1 PUSH1 0xE0 SHL SUB NOT PUSH1 0x1 PUSH1 0xC8 SHL SWAP1 SWAP2 DIV PUSH1 0xE0 SHL AND PUSH1 0x80 SWAP1 SWAP2 ADD MSTORE PUSH2 0x1EEF JUMP JUMPDEST PUSH1 0x2 DUP1 DUP6 ADD SLOAD PUSH1 0xFF AND PUSH1 0x5 DUP2 GT ISZERO PUSH2 0x106D JUMPI PUSH2 0x106D PUSH2 0x3176 JUMP JUMPDEST EQ ISZERO PUSH2 0x10CF JUMPI PUSH1 0x40 DUP1 MLOAD PUSH2 0x100 DUP2 ADD SWAP1 SWAP2 MSTORE DUP5 SLOAD PUSH1 0x1 PUSH1 0x1 PUSH1 0xA0 SHL SUB SWAP1 DUP2 AND PUSH1 0xC0 DUP4 ADD SWAP1 DUP2 MSTORE PUSH1 0x1 DUP8 ADD SLOAD SWAP1 SWAP2 AND PUSH1 0xE0 DUP4 ADD MSTORE DUP2 MSTORE PUSH1 0x2 DUP6 ADD SLOAD PUSH2 0x10C7 SWAP2 SWAP1 DUP7 SWAP1 PUSH1 0x20 DUP4 ADD SWAP1 PUSH1 0xFF AND PUSH1 0x5 DUP2 GT ISZERO PUSH2 0xFEA JUMPI PUSH2 0xFEA PUSH2 0x3176 JUMP JUMPDEST SWAP2 SWAP5 POP SWAP3 POP SWAP1 POP JUMPDEST DUP2 ISZERO PUSH2 0x1127 JUMPI PUSH1 0x40 DUP1 MLOAD PUSH1 0x1 PUSH1 0x1 PUSH1 0xA0 SHL SUB DUP1 DUP14 AND DUP3 MSTORE DUP12 AND PUSH1 0x20 DUP3 ADD MSTORE PUSH32 0x85FE05C69E32EC3AED403E05E055FAA5B8F0DEC24C0F5EF97A497B8F4B8228B5 SWAP2 ADD PUSH1 0x40 MLOAD DUP1 SWAP2 SUB SWAP1 LOG1 SWAP2 SWAP7 POP SWAP5 POP SWAP3 POP PUSH2 0xB34 SWAP2 POP POP JUMP JUMPDEST DUP9 DUP11 PUSH1 0x40 MLOAD PUSH1 0x20 ADD PUSH2 0x113A SWAP3 SWAP2 SWAP1 PUSH2 0x318C JUMP JUMPDEST PUSH1 0x40 DUP1 MLOAD PUSH1 0x1F NOT DUP2 DUP5 SUB ADD DUP2 MSTORE SWAP2 DUP2 MSTORE DUP2 MLOAD PUSH1 0x20 SWAP3 DUP4 ADD KECCAK256 PUSH1 0x0 DUP2 DUP2 MSTORE PUSH1 0x1 SWAP1 SWAP4 MSTORE SWAP1 DUP3 KECCAK256 SWAP1 SWAP7 POP SWAP5 POP SWAP3 POP DUP3 SWAP2 POP DUP2 SWAP1 POP PUSH1 0x5 PUSH1 0x2 DUP6 ADD SLOAD PUSH1 0xFF AND PUSH1 0x5 DUP2 GT ISZERO PUSH2 0x1187 JUMPI PUSH2 0x1187 PUSH2 0x3176 JUMP JUMPDEST EQ ISZERO PUSH2 0x11ED JUMPI PUSH1 0x40 DUP1 MLOAD PUSH2 0x100 DUP2 ADD SWAP1 SWAP2 MSTORE DUP5 SLOAD PUSH1 0x1 PUSH1 0x1 PUSH1 0xA0 SHL SUB SWAP1 DUP2 AND PUSH1 0xC0 DUP4 ADD SWAP1 DUP2 MSTORE PUSH1 0x1 DUP8 ADD SLOAD SWAP1 SWAP2 AND PUSH1 0xE0 DUP4 ADD MSTORE DUP2 MSTORE PUSH1 0x2 DUP6 ADD SLOAD PUSH2 0x11E1 SWAP2 SWAP1 DUP7 SWAP1 PUSH1 0x20 DUP4 ADD SWAP1 PUSH1 0xFF AND PUSH1 0x5 DUP2 GT ISZERO PUSH2 0xF00 JUMPI PUSH2 0xF00 PUSH2 0x3176 JUMP JUMPDEST SWAP2 SWAP5 POP SWAP3 POP SWAP1 POP PUSH2 0x12DE JUMP JUMPDEST PUSH1 0x1 PUSH1 0x2 DUP6 ADD SLOAD PUSH1 0xFF AND PUSH1 0x5 DUP2 GT ISZERO PUSH2 0x1208 JUMPI PUSH2 0x1208 PUSH2 0x3176 JUMP JUMPDEST EQ ISZERO PUSH2 0x1262 JUMPI PUSH1 0x40 DUP1 MLOAD PUSH2 0x100 DUP2 ADD SWAP1 SWAP2 MSTORE DUP5 SLOAD PUSH1 0x1 PUSH1 0x1 PUSH1 0xA0 SHL SUB SWAP1 DUP2 AND PUSH1 0xC0 DUP4 ADD SWAP1 DUP2 MSTORE PUSH1 0x1 DUP8 ADD SLOAD SWAP1 SWAP2 AND PUSH1 0xE0 DUP4 ADD MSTORE DUP2 MSTORE PUSH1 0x2 DUP6 ADD SLOAD PUSH2 0x11E1 SWAP2 SWAP1 DUP7 SWAP1 PUSH1 0x20 DUP4 ADD SWAP1 PUSH1 0xFF AND PUSH1 0x5 DUP2 GT ISZERO PUSH2 0xFEA JUMPI PUSH2 0xFEA PUSH2 0x3176 JUMP JUMPDEST PUSH1 0x2 DUP1 DUP6 ADD SLOAD PUSH1 0xFF AND PUSH1 0x5 DUP2 GT ISZERO PUSH2 0x127C JUMPI PUSH2 0x127C PUSH2 0x3176 JUMP JUMPDEST EQ ISZERO PUSH2 0x12DE JUMPI PUSH1 0x40 DUP1 MLOAD PUSH2 0x100 DUP2 ADD SWAP1 SWAP2 MSTORE DUP5 SLOAD PUSH1 0x1 PUSH1 0x1 PUSH1 0xA0 SHL SUB SWAP1 DUP2 AND PUSH1 0xC0 DUP4 ADD SWAP1 DUP2 MSTORE PUSH1 0x1 DUP8 ADD SLOAD SWAP1 SWAP2 AND PUSH1 0xE0 DUP4 ADD MSTORE DUP2 MSTORE PUSH1 0x2 DUP6 ADD SLOAD PUSH2 0x12D6 SWAP2 SWAP1 DUP7 SWAP1 PUSH1 0x20 DUP4 ADD SWAP1 PUSH1 0xFF AND PUSH1 0x5 DUP2 GT ISZERO PUSH2 0xFEA JUMPI PUSH2 0xFEA PUSH2 0x3176 JUMP JUMPDEST SWAP2 SWAP5 POP SWAP3 POP SWAP1 POP JUMPDEST DUP2 PUSH2 0x133B JUMPI PUSH1 0x40 DUP1 MLOAD PUSH1 0x1 PUSH1 0x1 PUSH1 0xA0 SHL SUB DUP1 DUP14 AND DUP3 MSTORE DUP12 AND PUSH1 0x20 DUP3 ADD MSTORE PUSH32 0x40431C410CC5180BF05A4EFDFB1880B6095849D44D09B81B10B0AEFBB6849EDD SWAP2 ADD PUSH1 0x40 MLOAD DUP1 SWAP2 SUB SWAP1 LOG1 PUSH1 0x0 DUP1 PUSH1 0x0 SWAP8 POP SWAP8 POP SWAP8 POP POP POP POP POP POP PUSH2 0xB34 JUMP JUMPDEST PUSH2 0x1354 DUP4 PUSH15 0xC097CE7BC90715B34B9F1000000000 PUSH2 0x31C9 JUMP JUMPDEST SWAP3 POP PUSH2 0x136F DUP3 PUSH15 0xC097CE7BC90715B34B9F1000000000 PUSH2 0x31C9 JUMP JUMPDEST SWAP2 POP PUSH2 0x138A DUP2 PUSH15 0xC097CE7BC90715B34B9F1000000000 PUSH2 0x31C9 JUMP JUMPDEST PUSH1 0x40 DUP1 MLOAD PUSH1 0x1 PUSH1 0x1 PUSH1 0xA0 SHL SUB DUP1 DUP15 AND DUP3 MSTORE DUP13 AND PUSH1 0x20 DUP3 ADD MSTORE SWAP2 SWAP3 POP PUSH32 0x85FE05C69E32EC3AED403E05E055FAA5B8F0DEC24C0F5EF97A497B8F4B8228B5 SWAP2 ADD PUSH1 0x40 MLOAD DUP1 SWAP2 SUB SWAP1 LOG1 SWAP2 SWAP7 POP SWAP5 POP SWAP3 POP POP POP SWAP3 POP SWAP3 POP SWAP3 JUMP JUMPDEST PUSH2 0x13E8 PUSH2 0x1FC2 JUMP JUMPDEST PUSH2 0x6C2 PUSH1 0x0 PUSH2 0x2023 JUMP JUMPDEST PUSH2 0x13FA PUSH2 0x4FA JUMP JUMPDEST PUSH2 0x6C2 PUSH1 0x0 DUP1 SLOAD PUSH1 0xFF NOT AND PUSH1 0x1 OR SWAP1 SSTORE JUMP JUMPDEST PUSH1 0x0 PUSH2 0x70F PUSH6 0xFFFFFFFFFFFF DUP4 AND PUSH5 0x174876E800 PUSH2 0x31EB JUMP JUMPDEST PUSH1 0x60 PUSH2 0x147B DUP4 DUP4 PUSH1 0x14 PUSH1 0x0 PUSH1 0x40 MLOAD SWAP1 DUP1 DUP3 MSTORE DUP1 PUSH1 0x20 MUL PUSH1 0x20 ADD DUP3 ADD PUSH1 0x40 MSTORE DUP1 ISZERO PUSH2 0x1475 JUMPI DUP2 PUSH1 0x20 ADD JUMPDEST PUSH1 0x40 DUP1 MLOAD DUP1 DUP3 ADD SWAP1 SWAP2 MSTORE PUSH1 0x0 DUP1 DUP3 MSTORE PUSH1 0x20 DUP3 ADD MSTORE DUP2 MSTORE PUSH1 0x20 ADD SWAP1 PUSH1 0x1 SWAP1 SUB SWAP1 DUP2 PUSH2 0x144E JUMPI SWAP1 POP JUMPDEST POP PUSH2 0x207E JUMP JUMPDEST SWAP4 SWAP3 POP POP POP JUMP JUMPDEST PUSH1 0x0 DUP1 DUP1 DUP1 DUP1 DUP1 DUP1 DUP1 JUMPDEST DUP9 MLOAD DUP2 LT ISZERO PUSH2 0x161B JUMPI PUSH8 0xDE0B6B3A7640000 DUP1 DUP1 PUSH1 0x0 JUMPDEST DUP13 DUP6 DUP2 MLOAD DUP2 LT PUSH2 0x14B5 JUMPI PUSH2 0x14B5 PUSH2 0x3220 JUMP JUMPDEST PUSH1 0x20 MUL PUSH1 0x20 ADD ADD MLOAD MLOAD DUP2 LT ISZERO PUSH2 0x15B3 JUMPI PUSH1 0x0 DUP14 DUP7 DUP2 MLOAD DUP2 LT PUSH2 0x14D9 JUMPI PUSH2 0x14D9 PUSH2 0x3220 JUMP JUMPDEST PUSH1 0x20 MUL PUSH1 0x20 ADD ADD MLOAD DUP3 DUP2 MLOAD DUP2 LT PUSH2 0x14F2 JUMPI PUSH2 0x14F2 PUSH2 0x3220 JUMP JUMPDEST PUSH1 0x20 MUL PUSH1 0x20 ADD ADD MLOAD SWAP1 POP PUSH1 0x0 DUP1 PUSH1 0x0 PUSH2 0x1513 DUP5 PUSH1 0x0 ADD MLOAD DUP6 PUSH1 0x20 ADD MLOAD PUSH2 0x7B3 JUMP JUMPDEST SWAP3 POP SWAP3 POP SWAP3 POP DUP2 PUSH1 0x0 EQ ISZERO PUSH2 0x153F JUMPI PUSH1 0x0 DUP1 PUSH1 0x0 SWAP16 POP SWAP16 POP SWAP16 POP POP POP POP POP POP POP POP POP POP POP POP POP POP PUSH2 0x1632 JUMP JUMPDEST PUSH8 0xDE0B6B3A7640000 PUSH2 0x1552 DUP10 DUP6 PUSH2 0x31EB JUMP JUMPDEST PUSH2 0x155C SWAP2 SWAP1 PUSH2 0x31C9 JUMP JUMPDEST SWAP8 POP PUSH8 0xDE0B6B3A7640000 PUSH2 0x1571 DUP9 DUP5 PUSH2 0x31EB JUMP JUMPDEST PUSH2 0x157B SWAP2 SWAP1 PUSH2 0x31C9 JUMP JUMPDEST SWAP7 POP PUSH8 0xDE0B6B3A7640000 PUSH2 0x1590 DUP8 DUP4 PUSH2 0x31EB JUMP JUMPDEST PUSH2 0x159A SWAP2 SWAP1 PUSH2 0x31C9 JUMP JUMPDEST SWAP6 POP POP POP POP POP DUP1 DUP1 PUSH2 0x15AB SWAP1 PUSH2 0x3236 JUMP JUMPDEST SWAP2 POP POP PUSH2 0x14A3 JUMP JUMPDEST POP DUP8 ISZERO DUP1 PUSH2 0x15C0 JUMPI POP DUP3 DUP9 GT JUMPDEST ISZERO PUSH2 0x15C9 JUMPI DUP3 SWAP8 POP JUMPDEST DUP5 ISZERO DUP1 PUSH2 0x15D5 JUMPI POP DUP1 DUP6 LT JUMPDEST ISZERO PUSH2 0x15DE JUMPI DUP1 SWAP5 POP JUMPDEST DUP6 PUSH2 0x15EB JUMPI DUP2 SWAP7 POP PUSH2 0x15F8 JUMP JUMPDEST PUSH2 0x15F5 DUP3 DUP9 PUSH2 0x3251 JUMP JUMPDEST SWAP7 POP JUMPDEST DUP6 PUSH2 0x1602 DUP2 PUSH2 0x3236 JUMP JUMPDEST SWAP7 POP POP POP POP POP DUP1 DUP1 PUSH2 0x1613 SWAP1 PUSH2 0x3236 JUMP JUMPDEST SWAP2 POP POP PUSH2 0x148C JUMP JUMPDEST POP PUSH2 0x1626 DUP3 DUP5 PUSH2 0x31C9 JUMP JUMPDEST SWAP4 SWAP7 POP SWAP3 SWAP5 POP SWAP2 SWAP3 POP POP POP JUMPDEST SWAP2 SWAP4 SWAP1 SWAP3 POP JUMP JUMPDEST PUSH1 0x0 DUP1 SLOAD PUSH1 0xFF AND DUP1 PUSH2 0x1652 JUMPI POP PUSH1 0x0 SLOAD PUSH2 0x100 SWAP1 DIV PUSH1 0xFF AND JUMPDEST SWAP1 POP SWAP1 JUMP JUMPDEST PUSH2 0x165F PUSH2 0x4FA JUMP JUMPDEST PUSH2 0x1667 PUSH2 0x2B10 JUMP JUMPDEST DUP1 MLOAD PUSH1 0x1 PUSH1 0x1 PUSH1 0xA0 SHL SUB DUP6 DUP2 AND SWAP1 SWAP2 MSTORE DUP2 MLOAD SWAP1 DUP5 AND PUSH1 0x20 SWAP2 DUP3 ADD MSTORE PUSH1 0x1 SWAP1 DUP3 ADD MSTORE PUSH2 0x1691 DUP3 PUSH2 0xC61 JUMP JUMPDEST PUSH1 0x1 PUSH1 0x1 PUSH1 0x40 SHL SUB AND PUSH1 0x80 DUP3 ADD DUP2 SWAP1 MSTORE PUSH1 0x60 DUP3 ADD DUP2 SWAP1 MSTORE PUSH1 0x40 DUP3 ADD MSTORE PUSH2 0x16B6 DUP2 PUSH2 0x18A4 JUMP JUMPDEST POP POP POP POP JUMP JUMPDEST PUSH1 0x0 PUSH8 0xDE0B6B3A7640000 PUSH2 0x16D1 DUP4 DUP6 PUSH2 0x31EB JUMP JUMPDEST PUSH2 0x147B SWAP2 SWAP1 PUSH2 0x31C9 JUMP JUMPDEST PUSH1 0x0 PUSH2 0x70F PUSH1 0x1 PUSH1 0x1 PUSH1 0x40 SHL SUB DUP4 AND PUSH5 0x2540BE400 PUSH2 0x31EB JUMP JUMPDEST PUSH2 0x16FD PUSH2 0x4FA JUMP JUMPDEST PUSH1 0x0 DUP4 DUP4 PUSH1 0x40 MLOAD PUSH1 0x20 ADD PUSH2 0x1712 SWAP3 SWAP2 SWAP1 PUSH2 0x318C JUMP JUMPDEST PUSH1 0x40 DUP1 MLOAD DUP1 DUP4 SUB PUSH1 0x1F NOT ADD DUP2 MSTORE SWAP2 DUP2 MSTORE DUP2 MLOAD PUSH1 0x20 SWAP3 DUP4 ADD KECCAK256 PUSH1 0x0 DUP2 DUP2 MSTORE PUSH1 0x3 SWAP1 SWAP4 MSTORE SWAP2 KECCAK256 DUP1 SLOAD PUSH1 0x1 PUSH1 0x1 PUSH1 0xA0 SHL SUB NOT AND PUSH1 0x1 PUSH1 0x1 PUSH1 0xA0 SHL SUB DUP6 AND OR SWAP1 SSTORE SWAP1 POP DUP2 PUSH2 0x175A PUSH2 0x2B10 JUMP JUMPDEST DUP1 MLOAD PUSH1 0x1 PUSH1 0x1 PUSH1 0xA0 SHL SUB DUP8 DUP2 AND SWAP1 SWAP2 MSTORE DUP2 MLOAD SWAP1 DUP7 AND PUSH1 0x20 SWAP2 DUP3 ADD MSTORE PUSH1 0x5 SWAP1 DUP3 ADD MSTORE PUSH1 0x0 DUP1 DUP1 PUSH2 0x1788 DUP5 PUSH2 0x1D39 JUMP JUMPDEST SWAP3 POP SWAP3 POP SWAP3 POP PUSH2 0x1797 DUP4 PUSH2 0xC61 JUMP JUMPDEST PUSH1 0x1 PUSH1 0x1 PUSH1 0x40 SHL SUB AND PUSH1 0x40 DUP6 ADD MSTORE PUSH2 0x17AE DUP3 PUSH2 0xC61 JUMP JUMPDEST PUSH1 0x1 PUSH1 0x1 PUSH1 0x40 SHL SUB AND PUSH1 0x60 DUP6 ADD MSTORE PUSH2 0x17C5 DUP2 PUSH2 0xC61 JUMP JUMPDEST PUSH1 0x1 PUSH1 0x1 PUSH1 0x40 SHL SUB AND PUSH1 0x80 DUP6 ADD MSTORE PUSH2 0x17DC DUP5 PUSH2 0x18A4 JUMP JUMPDEST POP POP POP POP POP POP POP POP POP JUMP JUMPDEST PUSH2 0x17EF PUSH2 0x1FC2 JUMP JUMPDEST PUSH2 0x6C2 PUSH1 0x0 DUP1 SLOAD PUSH2 0xFF00 NOT AND PUSH2 0x100 OR SWAP1 SSTORE JUMP JUMPDEST PUSH1 0x0 PUSH2 0x70F PUSH4 0xFFFFFFFF DUP4 AND PUSH5 0xE8D4A51000 PUSH2 0x31EB JUMP JUMPDEST PUSH2 0x1822 PUSH2 0x1FC2 JUMP JUMPDEST PUSH1 0x1 PUSH1 0x1 PUSH1 0xA0 SHL SUB DUP2 AND PUSH2 0x1887 JUMPI PUSH1 0x40 MLOAD PUSH3 0x461BCD PUSH1 0xE5 SHL DUP2 MSTORE PUSH1 0x20 PUSH1 0x4 DUP3 ADD MSTORE PUSH1 0x26 PUSH1 0x24 DUP3 ADD MSTORE PUSH32 0x4F776E61626C653A206E6577206F776E657220697320746865207A65726F2061 PUSH1 0x44 DUP3 ADD MSTORE PUSH6 0x646472657373 PUSH1 0xD0 SHL PUSH1 0x64 DUP3 ADD MSTORE PUSH1 0x84 ADD PUSH2 0x6B9 JUMP JUMPDEST PUSH2 0x1890 DUP2 PUSH2 0x2023 JUMP JUMPDEST POP JUMP JUMPDEST PUSH1 0x0 PUSH2 0x70F PUSH5 0x174876E800 DUP4 PUSH2 0x31C9 JUMP JUMPDEST DUP1 MLOAD DUP1 MLOAD PUSH1 0x20 SWAP2 DUP3 ADD MLOAD PUSH1 0x40 MLOAD PUSH1 0x0 SWAP4 PUSH2 0x18C0 SWAP4 SWAP3 SWAP2 ADD PUSH2 0x318C JUMP JUMPDEST PUSH1 0x40 DUP1 MLOAD PUSH1 0x1F NOT DUP2 DUP5 SUB ADD DUP2 MSTORE DUP3 DUP3 MSTORE DUP1 MLOAD PUSH1 0x20 SWAP2 DUP3 ADD KECCAK256 PUSH1 0x0 DUP2 DUP2 MSTORE PUSH1 0x1 DUP1 DUP5 MSTORE DUP5 DUP3 KECCAK256 PUSH2 0x100 DUP8 ADD SWAP1 SWAP6 MSTORE DUP5 SLOAD PUSH1 0x1 PUSH1 0x1 PUSH1 0xA0 SHL SUB SWAP1 DUP2 AND PUSH1 0xC0 DUP9 ADD SWAP1 DUP2 MSTORE SWAP2 DUP7 ADD SLOAD AND PUSH1 0xE0 DUP8 ADD MSTORE DUP6 MSTORE PUSH1 0x2 DUP5 ADD SLOAD SWAP2 SWAP6 POP SWAP4 SWAP3 SWAP2 DUP4 ADD SWAP1 PUSH1 0xFF AND PUSH1 0x5 DUP2 GT ISZERO PUSH2 0x192F JUMPI PUSH2 0x192F PUSH2 0x3176 JUMP JUMPDEST PUSH1 0x5 DUP2 GT ISZERO PUSH2 0x1940 JUMPI PUSH2 0x1940 PUSH2 0x3176 JUMP JUMPDEST DUP2 MSTORE PUSH1 0x2 SWAP2 SWAP1 SWAP2 ADD SLOAD PUSH2 0x100 DUP2 DIV PUSH1 0x1 PUSH1 0x1 PUSH1 0x40 SHL SUB SWAP1 DUP2 AND PUSH1 0x20 DUP1 DUP6 ADD SWAP2 SWAP1 SWAP2 MSTORE PUSH1 0x1 PUSH1 0x48 SHL DUP4 DIV DUP3 AND PUSH1 0x40 DUP6 ADD MSTORE PUSH1 0x1 PUSH1 0x88 SHL DUP4 DIV SWAP1 SWAP2 AND PUSH1 0x60 DUP5 ADD MSTORE PUSH1 0x1 PUSH1 0xC8 SHL SWAP1 SWAP2 DIV PUSH1 0xE0 SHL PUSH1 0x1 PUSH1 0x1 PUSH1 0xE0 SHL SUB NOT AND PUSH1 0x80 SWAP1 SWAP3 ADD SWAP2 SWAP1 SWAP2 MSTORE DUP5 ADD MLOAD SWAP1 SWAP2 POP PUSH1 0x5 DUP2 GT ISZERO PUSH2 0x19B4 JUMPI PUSH2 0x19B4 PUSH2 0x3176 JUMP JUMPDEST DUP2 PUSH1 0x20 ADD MLOAD PUSH1 0x5 DUP2 GT ISZERO PUSH2 0x19CA JUMPI PUSH2 0x19CA PUSH2 0x3176 JUMP JUMPDEST EQ PUSH2 0x1B7C JUMPI DUP3 MLOAD DUP1 MLOAD PUSH1 0x20 SWAP1 SWAP2 ADD MLOAD PUSH2 0x19E3 SWAP2 SWAP1 PUSH2 0x2808 JUMP JUMPDEST DUP3 MLOAD MLOAD DUP2 MLOAD PUSH1 0x1 PUSH1 0x1 PUSH1 0xA0 SHL SUB SWAP2 DUP3 AND SWAP1 MSTORE DUP4 MLOAD PUSH1 0x20 SWAP1 DUP2 ADD MLOAD DUP4 MLOAD SWAP3 AND SWAP2 DUP2 ADD SWAP2 SWAP1 SWAP2 MSTORE DUP1 DUP5 ADD MLOAD SWAP1 DUP3 ADD SWAP1 PUSH1 0x5 DUP2 GT ISZERO PUSH2 0x1A21 JUMPI PUSH2 0x1A21 PUSH2 0x3176 JUMP JUMPDEST SWAP1 DUP2 PUSH1 0x5 DUP2 GT ISZERO PUSH2 0x1A34 JUMPI PUSH2 0x1A34 PUSH2 0x3176 JUMP JUMPDEST SWAP1 MSTORE POP DUP3 MLOAD MLOAD PUSH1 0x1 PUSH1 0x1 PUSH1 0xA0 SHL SUB SWAP1 DUP2 AND PUSH1 0x0 SWAP1 DUP2 MSTORE PUSH1 0x2 PUSH1 0x20 SWAP1 DUP2 MSTORE PUSH1 0x40 SWAP2 DUP3 SWAP1 KECCAK256 DUP7 MLOAD SWAP1 SWAP2 ADD MLOAD SWAP2 MLOAD PUSH4 0x16F4B929 PUSH1 0xE2 SHL DUP2 MSTORE PUSH1 0x4 DUP2 ADD SWAP2 SWAP1 SWAP2 MSTORE SWAP2 AND PUSH1 0x24 DUP3 ADD MSTORE PUSH20 0x0 SWAP1 PUSH4 0x5BD2E4A4 SWAP1 PUSH1 0x44 ADD PUSH1 0x20 PUSH1 0x40 MLOAD DUP1 DUP4 SUB DUP2 DUP7 GAS DELEGATECALL ISZERO DUP1 ISZERO PUSH2 0x1AB4 JUMPI RETURNDATASIZE PUSH1 0x0 DUP1 RETURNDATACOPY RETURNDATASIZE PUSH1 0x0 REVERT JUMPDEST POP POP POP POP PUSH1 0x40 MLOAD RETURNDATASIZE PUSH1 0x1F NOT PUSH1 0x1F DUP3 ADD AND DUP3 ADD DUP1 PUSH1 0x40 MSTORE POP DUP2 ADD SWAP1 PUSH2 0x1AD8 SWAP2 SWAP1 PUSH2 0x3154 JUMP JUMPDEST POP DUP3 MLOAD PUSH1 0x20 SWAP1 DUP2 ADD MLOAD PUSH1 0x1 PUSH1 0x1 PUSH1 0xA0 SHL SUB SWAP1 DUP2 AND PUSH1 0x0 SWAP1 DUP2 MSTORE PUSH1 0x2 SWAP1 SWAP3 MSTORE PUSH1 0x40 SWAP2 DUP3 SWAP1 KECCAK256 DUP6 MLOAD MLOAD SWAP3 MLOAD PUSH4 0x16F4B929 PUSH1 0xE2 SHL DUP2 MSTORE PUSH1 0x4 DUP2 ADD SWAP2 SWAP1 SWAP2 MSTORE SWAP2 AND PUSH1 0x24 DUP3 ADD MSTORE PUSH20 0x0 SWAP1 PUSH4 0x5BD2E4A4 SWAP1 PUSH1 0x44 ADD PUSH1 0x20 PUSH1 0x40 MLOAD DUP1 DUP4 SUB DUP2 DUP7 GAS DELEGATECALL ISZERO DUP1 ISZERO PUSH2 0x1B56 JUMPI RETURNDATASIZE PUSH1 0x0 DUP1 RETURNDATACOPY RETURNDATASIZE PUSH1 0x0 REVERT JUMPDEST POP POP POP POP PUSH1 0x40 MLOAD RETURNDATASIZE PUSH1 0x1F NOT PUSH1 0x1F DUP3 ADD AND DUP3 ADD DUP1 PUSH1 0x40 MSTORE POP DUP2 ADD SWAP1 PUSH2 0x1B7A SWAP2 SWAP1 PUSH2 0x3154 JUMP JUMPDEST POP JUMPDEST PUSH1 0x1 PUSH1 0x1 PUSH1 0xE0 SHL SUB NOT NUMBER AND PUSH1 0xA0 DUP3 ADD MSTORE PUSH1 0x40 DUP1 DUP5 ADD MLOAD SWAP1 DUP3 ADD MLOAD PUSH1 0x1 PUSH1 0x1 PUSH1 0x40 SHL SUB SWAP1 DUP2 AND SWAP2 AND EQ DUP1 ISZERO PUSH2 0x1BC9 JUMPI POP DUP3 PUSH1 0x60 ADD MLOAD PUSH1 0x1 PUSH1 0x1 PUSH1 0x40 SHL SUB AND DUP2 PUSH1 0x60 ADD MLOAD PUSH1 0x1 PUSH1 0x1 PUSH1 0x40 SHL SUB AND EQ JUMPDEST DUP1 ISZERO PUSH2 0x1BEE JUMPI POP DUP3 PUSH1 0x80 ADD MLOAD PUSH1 0x1 PUSH1 0x1 PUSH1 0x40 SHL SUB AND DUP2 PUSH1 0x80 ADD MLOAD PUSH1 0x1 PUSH1 0x1 PUSH1 0x40 SHL SUB AND EQ JUMPDEST ISZERO PUSH2 0x1BF8 JUMPI POP POP POP JUMP JUMPDEST PUSH1 0x40 DUP4 DUP2 ADD MLOAD PUSH1 0x1 PUSH1 0x1 PUSH1 0x40 SHL SUB SWAP1 DUP2 AND DUP4 DUP4 ADD MSTORE PUSH1 0x60 DUP1 DUP7 ADD MLOAD DUP3 AND SWAP1 DUP5 ADD MSTORE PUSH1 0x80 DUP1 DUP7 ADD MLOAD SWAP1 SWAP2 AND SWAP1 DUP4 ADD MSTORE PUSH1 0x0 DUP4 DUP2 MSTORE PUSH1 0x1 PUSH1 0x20 DUP2 DUP2 MSTORE SWAP3 SWAP1 SWAP2 KECCAK256 DUP4 MLOAD DUP1 MLOAD DUP3 SLOAD PUSH1 0x1 PUSH1 0x1 PUSH1 0xA0 SHL SUB NOT SWAP1 DUP2 AND PUSH1 0x1 PUSH1 0x1 PUSH1 0xA0 SHL SUB SWAP3 DUP4 AND OR DUP5 SSTORE SWAP2 DUP6 ADD MLOAD DUP4 DUP6 ADD DUP1 SLOAD SWAP1 SWAP4 AND SWAP2 AND OR SWAP1 SSTORE SWAP2 DUP4 ADD MLOAD PUSH1 0x2 DUP4 ADD DUP1 SLOAD DUP6 SWAP5 SWAP4 PUSH1 0xFF NOT SWAP1 SWAP2 AND SWAP1 DUP4 PUSH1 0x5 DUP2 GT ISZERO PUSH2 0x1C8D JUMPI PUSH2 0x1C8D PUSH2 0x3176 JUMP JUMPDEST MUL OR SWAP1 SSTORE POP PUSH1 0x40 DUP3 ADD MLOAD PUSH1 0x2 SWAP1 SWAP2 ADD DUP1 SLOAD PUSH1 0x60 DUP5 ADD MLOAD PUSH1 0x80 DUP6 ADD MLOAD PUSH1 0xA0 SWAP1 SWAP6 ADD MLOAD PUSH1 0xE0 SHR PUSH1 0x1 PUSH1 0xC8 SHL MUL PUSH4 0xFFFFFFFF PUSH1 0xC8 SHL NOT PUSH1 0x1 PUSH1 0x1 PUSH1 0x40 SHL SUB SWAP7 DUP8 AND PUSH1 0x1 PUSH1 0x88 SHL MUL AND PUSH12 0xFFFFFFFFFFFFFFFFFFFFFFFF PUSH1 0x88 SHL NOT SWAP3 DUP8 AND PUSH1 0x1 PUSH1 0x48 SHL MUL PUSH17 0xFFFFFFFFFFFFFFFF000000000000000000 NOT SWAP8 SWAP1 SWAP7 AND PUSH2 0x100 MUL SWAP7 SWAP1 SWAP7 AND PUSH17 0xFFFFFFFFFFFFFFFFFFFFFFFFFFFFFFFF00 NOT SWAP1 SWAP4 AND SWAP3 SWAP1 SWAP3 OR SWAP4 SWAP1 SWAP4 OR SWAP3 SWAP1 SWAP3 AND SWAP3 SWAP1 SWAP3 OR OR SWAP1 SSTORE POP POP POP JUMP JUMPDEST DUP1 MLOAD DUP1 MLOAD PUSH1 0x20 SWAP2 DUP3 ADD MLOAD PUSH1 0x40 MLOAD PUSH1 0x0 SWAP4 DUP5 SWAP4 DUP5 SWAP4 DUP5 SWAP4 PUSH2 0x1D59 SWAP4 ADD PUSH2 0x318C JUMP JUMPDEST PUSH1 0x40 DUP1 MLOAD PUSH1 0x1F NOT DUP2 DUP5 SUB ADD DUP2 MSTORE DUP3 DUP3 MSTORE DUP1 MLOAD PUSH1 0x20 SWAP2 DUP3 ADD KECCAK256 PUSH1 0x0 DUP2 DUP2 MSTORE PUSH1 0x3 SWAP1 SWAP3 MSTORE DUP3 DUP3 KECCAK256 SLOAD PUSH4 0x3FABE5A3 PUSH1 0xE2 SHL DUP6 MSTORE SWAP3 MLOAD SWAP1 SWAP5 POP SWAP1 SWAP3 PUSH1 0x1 PUSH1 0x1 PUSH1 0xA0 SHL SUB SWAP1 SWAP3 AND SWAP2 PUSH4 0xFEAF968C SWAP2 PUSH1 0x4 DUP1 DUP4 ADD SWAP3 PUSH1 0xA0 SWAP3 SWAP2 SWAP1 DUP3 SWAP1 SUB ADD DUP2 DUP7 GAS STATICCALL ISZERO DUP1 ISZERO PUSH2 0x1DC6 JUMPI RETURNDATASIZE PUSH1 0x0 DUP1 RETURNDATACOPY RETURNDATASIZE PUSH1 0x0 REVERT JUMPDEST POP POP POP POP PUSH1 0x40 MLOAD RETURNDATASIZE PUSH1 0x1F NOT PUSH1 0x1F DUP3 ADD AND DUP3 ADD DUP1 PUSH1 0x40 MSTORE POP DUP2 ADD SWAP1 PUSH2 0x1DEA SWAP2 SWAP1 PUSH2 0x3283 JUMP JUMPDEST POP POP POP SWAP2 POP POP PUSH1 0x0 DUP2 SGT PUSH2 0x1E40 JUMPI PUSH1 0x40 MLOAD PUSH3 0x461BCD PUSH1 0xE5 SHL DUP2 MSTORE PUSH1 0x20 PUSH1 0x4 DUP3 ADD DUP2 SWAP1 MSTORE PUSH1 0x24 DUP3 ADD MSTORE PUSH32 0x436861696E6C696E6B2071756F7465206D75737420626520706F736974697665 PUSH1 0x44 DUP3 ADD MSTORE PUSH1 0x64 ADD PUSH2 0x6B9 JUMP JUMPDEST PUSH1 0x0 DUP3 DUP2 MSTORE PUSH1 0x3 PUSH1 0x20 SWAP1 DUP2 MSTORE PUSH1 0x40 SWAP2 DUP3 SWAP1 KECCAK256 SLOAD DUP3 MLOAD PUSH4 0x313CE567 PUSH1 0xE0 SHL DUP2 MSTORE SWAP3 MLOAD DUP5 SWAP4 PUSH1 0x1 PUSH1 0x1 PUSH1 0xA0 SHL SUB SWAP1 SWAP3 AND SWAP3 PUSH4 0x313CE567 SWAP3 PUSH1 0x4 DUP1 DUP3 ADD SWAP4 SWAP2 DUP3 SWAP1 SUB ADD DUP2 DUP7 GAS STATICCALL ISZERO DUP1 ISZERO PUSH2 0x1E95 JUMPI RETURNDATASIZE PUSH1 0x0 DUP1 RETURNDATACOPY RETURNDATASIZE PUSH1 0x0 REVERT JUMPDEST POP POP POP POP PUSH1 0x40 MLOAD RETURNDATASIZE PUSH1 0x1F NOT PUSH1 0x1F DUP3 ADD AND DUP3 ADD DUP1 PUSH1 0x40 MSTORE POP DUP2 ADD SWAP1 PUSH2 0x1EB9 SWAP2 SWAP1 PUSH2 0x32D3 JUMP JUMPDEST PUSH2 0x1EC4 SWAP1 PUSH1 0xA PUSH2 0x33DA JUMP JUMPDEST PUSH2 0x1ED6 SWAP1 PUSH8 0xDE0B6B3A7640000 PUSH2 0x31C9 JUMP JUMPDEST PUSH2 0x1EE0 SWAP1 DUP3 PUSH2 0x31EB JUMP JUMPDEST SWAP8 DUP9 SWAP8 POP DUP8 SWAP7 POP SWAP5 POP POP POP POP POP JUMP JUMPDEST PUSH1 0x0 DUP1 PUSH1 0x0 PUSH2 0x1F01 DUP5 PUSH1 0x40 ADD MLOAD PUSH2 0x16DB JUMP JUMPDEST PUSH2 0x1F0E DUP6 PUSH1 0x60 ADD MLOAD PUSH2 0x16DB JUMP JUMPDEST PUSH2 0x1F1B DUP7 PUSH1 0x80 ADD MLOAD PUSH2 0x16DB JUMP JUMPDEST SWAP3 POP SWAP3 POP SWAP3 POP SWAP2 SWAP4 SWAP1 SWAP3 POP JUMP JUMPDEST PUSH1 0x0 DUP1 PUSH1 0x0 NUMBER PUSH1 0x0 SHL PUSH1 0x1 PUSH1 0x1 PUSH1 0xE0 SHL SUB NOT AND DUP5 PUSH1 0xA0 ADD MLOAD PUSH1 0x1 PUSH1 0x1 PUSH1 0xE0 SHL SUB NOT AND EQ PUSH2 0x1FB5 JUMPI PUSH1 0x0 DUP1 PUSH1 0x0 PUSH2 0x1F5D DUP8 PUSH2 0x1D39 JUMP JUMPDEST SWAP3 POP SWAP3 POP SWAP3 POP PUSH2 0x1F6C DUP4 PUSH2 0xC61 JUMP JUMPDEST PUSH1 0x1 PUSH1 0x1 PUSH1 0x40 SHL SUB AND PUSH1 0x40 DUP9 ADD MSTORE PUSH2 0x1F83 DUP3 PUSH2 0xC61 JUMP JUMPDEST PUSH1 0x1 PUSH1 0x1 PUSH1 0x40 SHL SUB AND PUSH1 0x60 DUP9 ADD MSTORE PUSH2 0x1F9A DUP2 PUSH2 0xC61 JUMP JUMPDEST PUSH1 0x1 PUSH1 0x1 PUSH1 0x40 SHL SUB AND PUSH1 0x80 DUP9 ADD MSTORE PUSH2 0x1FB1 DUP8 PUSH2 0x18A4 JUMP JUMPDEST POP POP POP JUMPDEST PUSH2 0x1F01 DUP5 PUSH1 0x40 ADD MLOAD PUSH2 0x16DB JUMP JUMPDEST PUSH1 0x0 SLOAD PUSH1 0x1 PUSH1 0x1 PUSH1 0xA0 SHL SUB PUSH3 0x10000 SWAP1 SWAP2 DIV AND CALLER EQ PUSH2 0x6C2 JUMPI PUSH1 0x40 MLOAD PUSH3 0x461BCD PUSH1 0xE5 SHL DUP2 MSTORE PUSH1 0x20 PUSH1 0x4 DUP3 ADD MSTORE PUSH1 0x1F PUSH1 0x24 DUP3 ADD MSTORE PUSH32 0x416C6C6F77616E63653A2063616C6C6572206D757374206265204F776E657200 PUSH1 0x44 DUP3 ADD MSTORE PUSH1 0x64 ADD PUSH2 0x6B9 JUMP JUMPDEST PUSH1 0x0 DUP1 SLOAD PUSH1 0x1 PUSH1 0x1 PUSH1 0xA0 SHL SUB DUP4 DUP2 AND PUSH3 0x10000 DUP2 DUP2 MUL PUSH3 0x10000 PUSH1 0x1 PUSH1 0xB0 SHL SUB NOT DUP6 AND OR DUP6 SSTORE PUSH1 0x40 MLOAD SWAP4 DIV SWAP2 SWAP1 SWAP2 AND SWAP3 SWAP1 SWAP2 DUP4 SWAP2 PUSH32 0x8BE0079C531659141344CD1FD0A4F28419497F9722A3DAAFE3B4186F6B6457E0 SWAP2 LOG3 POP POP JUMP JUMPDEST PUSH1 0x1 PUSH1 0x1 PUSH1 0xA0 SHL SUB DUP5 AND PUSH1 0x0 SWAP1 DUP2 MSTORE PUSH1 0x2 PUSH1 0x20 SWAP1 DUP2 MSTORE PUSH1 0x40 DUP1 DUP4 KECCAK256 DUP1 SLOAD DUP3 MLOAD DUP2 DUP6 MUL DUP2 ADD DUP6 ADD SWAP1 SWAP4 MSTORE DUP1 DUP4 MSTORE PUSH1 0x60 SWAP5 SWAP4 DUP4 ADD DUP3 DUP3 DUP1 ISZERO PUSH2 0x20E7 JUMPI PUSH1 0x20 MUL DUP3 ADD SWAP2 SWAP1 PUSH1 0x0 MSTORE PUSH1 0x20 PUSH1 0x0 KECCAK256 SWAP1 JUMPDEST DUP2 SLOAD PUSH1 0x1 PUSH1 0x1 PUSH1 0xA0 SHL SUB AND DUP2 MSTORE PUSH1 0x1 SWAP1 SWAP2 ADD SWAP1 PUSH1 0x20 ADD DUP1 DUP4 GT PUSH2 0x20C9 JUMPI JUMPDEST POP SWAP4 SWAP5 POP PUSH1 0x0 SWAP4 POP PUSH2 0x20F8 SWAP3 POP POP POP JUMP JUMPDEST PUSH1 0x40 MLOAD SWAP1 DUP1 DUP3 MSTORE DUP1 PUSH1 0x20 MUL PUSH1 0x20 ADD DUP3 ADD PUSH1 0x40 MSTORE DUP1 ISZERO PUSH2 0x212B JUMPI DUP2 PUSH1 0x20 ADD JUMPDEST PUSH1 0x60 DUP2 MSTORE PUSH1 0x20 ADD SWAP1 PUSH1 0x1 SWAP1 SUB SWAP1 DUP2 PUSH2 0x2116 JUMPI SWAP1 POP JUMPDEST POP SWAP2 POP PUSH1 0x0 JUMPDEST DUP2 MLOAD DUP2 LT ISZERO PUSH2 0x27FE JUMPI PUSH1 0x0 JUMPDEST DUP5 MLOAD DUP2 LT ISZERO PUSH2 0x2272 JUMPI DUP8 PUSH1 0x1 PUSH1 0x1 PUSH1 0xA0 SHL SUB AND DUP6 DUP3 DUP2 MLOAD DUP2 LT PUSH2 0x2162 JUMPI PUSH2 0x2162 PUSH2 0x3220 JUMP JUMPDEST PUSH1 0x20 MUL PUSH1 0x20 ADD ADD MLOAD PUSH1 0x0 ADD MLOAD PUSH1 0x1 PUSH1 0x1 PUSH1 0xA0 SHL SUB AND EQ DUP1 ISZERO PUSH2 0x21CB JUMPI POP DUP3 DUP3 DUP2 MLOAD DUP2 LT PUSH2 0x2191 JUMPI PUSH2 0x2191 PUSH2 0x3220 JUMP JUMPDEST PUSH1 0x20 MUL PUSH1 0x20 ADD ADD MLOAD PUSH1 0x1 PUSH1 0x1 PUSH1 0xA0 SHL SUB AND DUP6 DUP3 DUP2 MLOAD DUP2 LT PUSH2 0x21B4 JUMPI PUSH2 0x21B4 PUSH2 0x3220 JUMP JUMPDEST PUSH1 0x20 MUL PUSH1 0x20 ADD ADD MLOAD PUSH1 0x20 ADD MLOAD PUSH1 0x1 PUSH1 0x1 PUSH1 0xA0 SHL SUB AND EQ JUMPDEST DUP1 PUSH2 0x2256 JUMPI POP DUP8 PUSH1 0x1 PUSH1 0x1 PUSH1 0xA0 SHL SUB AND DUP6 DUP3 DUP2 MLOAD DUP2 LT PUSH2 0x21ED JUMPI PUSH2 0x21ED PUSH2 0x3220 JUMP JUMPDEST PUSH1 0x20 MUL PUSH1 0x20 ADD ADD MLOAD PUSH1 0x20 ADD MLOAD PUSH1 0x1 PUSH1 0x1 PUSH1 0xA0 SHL SUB AND EQ DUP1 ISZERO PUSH2 0x2256 JUMPI POP DUP3 DUP3 DUP2 MLOAD DUP2 LT PUSH2 0x221C JUMPI PUSH2 0x221C PUSH2 0x3220 JUMP JUMPDEST PUSH1 0x20 MUL PUSH1 0x20 ADD ADD MLOAD PUSH1 0x1 PUSH1 0x1 PUSH1 0xA0 SHL SUB AND DUP6 DUP3 DUP2 MLOAD DUP2 LT PUSH2 0x223F JUMPI PUSH2 0x223F PUSH2 0x3220 JUMP JUMPDEST PUSH1 0x20 MUL PUSH1 0x20 ADD ADD MLOAD PUSH1 0x0 ADD MLOAD PUSH1 0x1 PUSH1 0x1 PUSH1 0xA0 SHL SUB AND EQ JUMPDEST ISZERO PUSH2 0x2260 JUMPI PUSH2 0x2272 JUMP JUMPDEST DUP1 PUSH2 0x226A DUP2 PUSH2 0x3236 JUMP JUMPDEST SWAP2 POP POP PUSH2 0x213D JUMP JUMPDEST DUP5 MLOAD DUP2 LT ISZERO PUSH2 0x2281 JUMPI POP PUSH2 0x27EC JUMP JUMPDEST DUP7 PUSH1 0x1 PUSH1 0x1 PUSH1 0xA0 SHL SUB AND DUP4 DUP4 DUP2 MLOAD DUP2 LT PUSH2 0x229D JUMPI PUSH2 0x229D PUSH2 0x3220 JUMP JUMPDEST PUSH1 0x20 MUL PUSH1 0x20 ADD ADD MLOAD PUSH1 0x1 PUSH1 0x1 PUSH1 0xA0 SHL SUB AND EQ ISZERO PUSH2 0x2540 JUMPI PUSH1 0x0 PUSH1 0x1 PUSH1 0x0 DUP11 DUP11 PUSH1 0x40 MLOAD PUSH1 0x20 ADD PUSH2 0x22CD SWAP3 SWAP2 SWAP1 PUSH2 0x318C JUMP JUMPDEST PUSH1 0x40 DUP1 MLOAD PUSH1 0x1F NOT DUP2 DUP5 SUB ADD DUP2 MSTORE SWAP2 DUP2 MSTORE DUP2 MLOAD PUSH1 0x20 SWAP3 DUP4 ADD KECCAK256 DUP4 MSTORE SWAP1 DUP3 ADD SWAP3 SWAP1 SWAP3 MSTORE ADD PUSH1 0x0 KECCAK256 SWAP1 POP PUSH1 0x3 PUSH1 0x2 DUP3 ADD SLOAD PUSH1 0xFF AND PUSH1 0x5 DUP2 GT ISZERO PUSH2 0x230F JUMPI PUSH2 0x230F PUSH2 0x3176 JUMP JUMPDEST EQ ISZERO DUP1 ISZERO PUSH2 0x2336 JUMPI POP PUSH1 0x4 PUSH1 0x2 DUP3 ADD SLOAD PUSH1 0xFF AND PUSH1 0x5 DUP2 GT ISZERO PUSH2 0x2333 JUMPI PUSH2 0x2333 PUSH2 0x3176 JUMP JUMPDEST EQ ISZERO JUMPDEST ISZERO PUSH2 0x253E JUMPI PUSH1 0x0 DUP7 MLOAD PUSH1 0x1 PUSH2 0x234B SWAP2 SWAP1 PUSH2 0x3251 JUMP JUMPDEST PUSH1 0x1 PUSH1 0x1 PUSH1 0x40 SHL SUB DUP2 GT ISZERO PUSH2 0x2362 JUMPI PUSH2 0x2362 PUSH2 0x2C87 JUMP JUMPDEST PUSH1 0x40 MLOAD SWAP1 DUP1 DUP3 MSTORE DUP1 PUSH1 0x20 MUL PUSH1 0x20 ADD DUP3 ADD PUSH1 0x40 MSTORE DUP1 ISZERO PUSH2 0x23A7 JUMPI DUP2 PUSH1 0x20 ADD JUMPDEST PUSH1 0x40 DUP1 MLOAD DUP1 DUP3 ADD SWAP1 SWAP2 MSTORE PUSH1 0x0 DUP1 DUP3 MSTORE PUSH1 0x20 DUP3 ADD MSTORE DUP2 MSTORE PUSH1 0x20 ADD SWAP1 PUSH1 0x1 SWAP1 SUB SWAP1 DUP2 PUSH2 0x2380 JUMPI SWAP1 POP JUMPDEST POP SWAP1 POP PUSH1 0x0 SWAP3 POP JUMPDEST DUP7 MLOAD DUP4 LT ISZERO PUSH2 0x2402 JUMPI DUP7 DUP4 DUP2 MLOAD DUP2 LT PUSH2 0x23CA JUMPI PUSH2 0x23CA PUSH2 0x3220 JUMP JUMPDEST PUSH1 0x20 MUL PUSH1 0x20 ADD ADD MLOAD DUP2 DUP5 DUP2 MLOAD DUP2 LT PUSH2 0x23E4 JUMPI PUSH2 0x23E4 PUSH2 0x3220 JUMP JUMPDEST PUSH1 0x20 MUL PUSH1 0x20 ADD ADD DUP2 SWAP1 MSTORE POP DUP3 DUP1 PUSH2 0x23FA SWAP1 PUSH2 0x3236 JUMP JUMPDEST SWAP4 POP POP PUSH2 0x23AF JUMP JUMPDEST DUP10 DUP2 DUP5 DUP2 MLOAD DUP2 LT PUSH2 0x2415 JUMPI PUSH2 0x2415 PUSH2 0x3220 JUMP JUMPDEST PUSH1 0x20 MUL PUSH1 0x20 ADD ADD MLOAD PUSH1 0x0 ADD SWAP1 PUSH1 0x1 PUSH1 0x1 PUSH1 0xA0 SHL SUB AND SWAP1 DUP2 PUSH1 0x1 PUSH1 0x1 PUSH1 0xA0 SHL SUB AND DUP2 MSTORE POP POP DUP9 DUP2 DUP5 DUP2 MLOAD DUP2 LT PUSH2 0x244C JUMPI PUSH2 0x244C PUSH2 0x3220 JUMP JUMPDEST PUSH1 0x20 SWAP1 DUP2 MUL SWAP2 SWAP1 SWAP2 ADD DUP2 ADD MLOAD PUSH1 0x1 PUSH1 0x1 PUSH1 0xA0 SHL SUB SWAP1 SWAP3 AND SWAP2 ADD MSTORE DUP6 MLOAD PUSH1 0x0 SWAP1 PUSH2 0x2476 SWAP1 PUSH1 0x1 PUSH2 0x3251 JUMP JUMPDEST PUSH1 0x1 PUSH1 0x1 PUSH1 0x40 SHL SUB DUP2 GT ISZERO PUSH2 0x248D JUMPI PUSH2 0x248D PUSH2 0x2C87 JUMP JUMPDEST PUSH1 0x40 MLOAD SWAP1 DUP1 DUP3 MSTORE DUP1 PUSH1 0x20 MUL PUSH1 0x20 ADD DUP3 ADD PUSH1 0x40 MSTORE DUP1 ISZERO PUSH2 0x24C0 JUMPI DUP2 PUSH1 0x20 ADD JUMPDEST PUSH1 0x60 DUP2 MSTORE PUSH1 0x20 ADD SWAP1 PUSH1 0x1 SWAP1 SUB SWAP1 DUP2 PUSH2 0x24AB JUMPI SWAP1 POP JUMPDEST POP SWAP1 POP PUSH1 0x0 SWAP4 POP JUMPDEST DUP7 MLOAD DUP5 LT ISZERO PUSH2 0x251B JUMPI DUP7 DUP5 DUP2 MLOAD DUP2 LT PUSH2 0x24E3 JUMPI PUSH2 0x24E3 PUSH2 0x3220 JUMP JUMPDEST PUSH1 0x20 MUL PUSH1 0x20 ADD ADD MLOAD DUP2 DUP6 DUP2 MLOAD DUP2 LT PUSH2 0x24FD JUMPI PUSH2 0x24FD PUSH2 0x3220 JUMP JUMPDEST PUSH1 0x20 MUL PUSH1 0x20 ADD ADD DUP2 SWAP1 MSTORE POP DUP4 DUP1 PUSH2 0x2513 SWAP1 PUSH2 0x3236 JUMP JUMPDEST SWAP5 POP POP PUSH2 0x24C8 JUMP JUMPDEST DUP2 DUP2 DUP9 MLOAD DUP2 MLOAD DUP2 LT PUSH2 0x252F JUMPI PUSH2 0x252F PUSH2 0x3220 JUMP JUMPDEST PUSH1 0x20 SWAP1 DUP2 MUL SWAP2 SWAP1 SWAP2 ADD ADD MSTORE SWAP6 POP POP JUMPDEST POP JUMPDEST DUP6 PUSH2 0x254B JUMPI POP PUSH2 0x27FE JUMP JUMPDEST PUSH1 0x0 DUP6 MLOAD PUSH1 0x1 PUSH2 0x255B SWAP2 SWAP1 PUSH2 0x3251 JUMP JUMPDEST PUSH1 0x1 PUSH1 0x1 PUSH1 0x40 SHL SUB DUP2 GT ISZERO PUSH2 0x2572 JUMPI PUSH2 0x2572 PUSH2 0x2C87 JUMP JUMPDEST PUSH1 0x40 MLOAD SWAP1 DUP1 DUP3 MSTORE DUP1 PUSH1 0x20 MUL PUSH1 0x20 ADD DUP3 ADD PUSH1 0x40 MSTORE DUP1 ISZERO PUSH2 0x25B7 JUMPI DUP2 PUSH1 0x20 ADD JUMPDEST PUSH1 0x40 DUP1 MLOAD DUP1 DUP3 ADD SWAP1 SWAP2 MSTORE PUSH1 0x0 DUP1 DUP3 MSTORE PUSH1 0x20 DUP3 ADD MSTORE DUP2 MSTORE PUSH1 0x20 ADD SWAP1 PUSH1 0x1 SWAP1 SUB SWAP1 DUP2 PUSH2 0x2590 JUMPI SWAP1 POP JUMPDEST POP SWAP1 POP PUSH1 0x0 SWAP2 POP JUMPDEST DUP6 MLOAD DUP3 LT ISZERO PUSH2 0x2612 JUMPI DUP6 DUP3 DUP2 MLOAD DUP2 LT PUSH2 0x25DA JUMPI PUSH2 0x25DA PUSH2 0x3220 JUMP JUMPDEST PUSH1 0x20 MUL PUSH1 0x20 ADD ADD MLOAD DUP2 DUP4 DUP2 MLOAD DUP2 LT PUSH2 0x25F4 JUMPI PUSH2 0x25F4 PUSH2 0x3220 JUMP JUMPDEST PUSH1 0x20 MUL PUSH1 0x20 ADD ADD DUP2 SWAP1 MSTORE POP DUP2 DUP1 PUSH2 0x260A SWAP1 PUSH2 0x3236 JUMP JUMPDEST SWAP3 POP POP PUSH2 0x25BF JUMP JUMPDEST DUP9 DUP2 DUP4 DUP2 MLOAD DUP2 LT PUSH2 0x2625 JUMPI PUSH2 0x2625 PUSH2 0x3220 JUMP JUMPDEST PUSH1 0x20 SWAP1 DUP2 MUL SWAP2 SWAP1 SWAP2 ADD ADD MLOAD PUSH1 0x1 PUSH1 0x1 PUSH1 0xA0 SHL SUB SWAP1 SWAP2 AND SWAP1 MSTORE DUP4 MLOAD DUP5 SWAP1 DUP5 SWAP1 DUP2 LT PUSH2 0x2651 JUMPI PUSH2 0x2651 PUSH2 0x3220 JUMP JUMPDEST PUSH1 0x20 MUL PUSH1 0x20 ADD ADD MLOAD DUP2 DUP4 DUP2 MLOAD DUP2 LT PUSH2 0x266B JUMPI PUSH2 0x266B PUSH2 0x3220 JUMP JUMPDEST PUSH1 0x20 MUL PUSH1 0x20 ADD ADD MLOAD PUSH1 0x20 ADD SWAP1 PUSH1 0x1 PUSH1 0x1 PUSH1 0xA0 SHL SUB AND SWAP1 DUP2 PUSH1 0x1 PUSH1 0x1 PUSH1 0xA0 SHL SUB AND DUP2 MSTORE POP POP PUSH1 0x0 PUSH2 0x26C2 DUP6 DUP6 DUP2 MLOAD DUP2 LT PUSH2 0x26A6 JUMPI PUSH2 0x26A6 PUSH2 0x3220 JUMP JUMPDEST PUSH1 0x20 MUL PUSH1 0x20 ADD ADD MLOAD DUP11 PUSH1 0x1 DUP12 PUSH2 0x26BC SWAP2 SWAP1 PUSH2 0x33E9 JUMP JUMPDEST DUP6 PUSH2 0x207E JUMP JUMPDEST DUP1 MLOAD SWAP1 SWAP2 POP ISZERO PUSH2 0x27E8 JUMPI PUSH1 0x0 DUP7 MLOAD DUP3 MLOAD PUSH2 0x26DC SWAP2 SWAP1 PUSH2 0x3251 JUMP JUMPDEST PUSH1 0x1 PUSH1 0x1 PUSH1 0x40 SHL SUB DUP2 GT ISZERO PUSH2 0x26F3 JUMPI PUSH2 0x26F3 PUSH2 0x2C87 JUMP JUMPDEST PUSH1 0x40 MLOAD SWAP1 DUP1 DUP3 MSTORE DUP1 PUSH1 0x20 MUL PUSH1 0x20 ADD DUP3 ADD PUSH1 0x40 MSTORE DUP1 ISZERO PUSH2 0x2726 JUMPI DUP2 PUSH1 0x20 ADD JUMPDEST PUSH1 0x60 DUP2 MSTORE PUSH1 0x20 ADD SWAP1 PUSH1 0x1 SWAP1 SUB SWAP1 DUP2 PUSH2 0x2711 JUMPI SWAP1 POP JUMPDEST POP SWAP1 POP PUSH1 0x0 SWAP4 POP JUMPDEST DUP7 MLOAD DUP5 LT ISZERO PUSH2 0x2781 JUMPI DUP7 DUP5 DUP2 MLOAD DUP2 LT PUSH2 0x2749 JUMPI PUSH2 0x2749 PUSH2 0x3220 JUMP JUMPDEST PUSH1 0x20 MUL PUSH1 0x20 ADD ADD MLOAD DUP2 DUP6 DUP2 MLOAD DUP2 LT PUSH2 0x2763 JUMPI PUSH2 0x2763 PUSH2 0x3220 JUMP JUMPDEST PUSH1 0x20 MUL PUSH1 0x20 ADD ADD DUP2 SWAP1 MSTORE POP DUP4 DUP1 PUSH2 0x2779 SWAP1 PUSH2 0x3236 JUMP JUMPDEST SWAP5 POP POP PUSH2 0x272E JUMP JUMPDEST PUSH1 0x0 SWAP4 POP JUMPDEST DUP2 MLOAD DUP5 LT ISZERO PUSH2 0x27E5 JUMPI DUP2 DUP5 DUP2 MLOAD DUP2 LT PUSH2 0x27A1 JUMPI PUSH2 0x27A1 PUSH2 0x3220 JUMP JUMPDEST PUSH1 0x20 MUL PUSH1 0x20 ADD ADD MLOAD DUP2 DUP6 DUP10 MLOAD PUSH2 0x27B7 SWAP2 SWAP1 PUSH2 0x3251 JUMP JUMPDEST DUP2 MLOAD DUP2 LT PUSH2 0x27C7 JUMPI PUSH2 0x27C7 PUSH2 0x3220 JUMP JUMPDEST PUSH1 0x20 MUL PUSH1 0x20 ADD ADD DUP2 SWAP1 MSTORE POP DUP4 DUP1 PUSH2 0x27DD SWAP1 PUSH2 0x3236 JUMP JUMPDEST SWAP5 POP POP PUSH2 0x2786 JUMP JUMPDEST SWAP6 POP JUMPDEST POP POP POP JUMPDEST DUP1 PUSH2 0x27F6 DUP2 PUSH2 0x3236 JUMP JUMPDEST SWAP2 POP POP PUSH2 0x2131 JUMP JUMPDEST POP POP SWAP5 SWAP4 POP POP POP POP JUMP JUMPDEST PUSH1 0x0 DUP3 DUP3 PUSH1 0x40 MLOAD PUSH1 0x20 ADD PUSH2 0x281D SWAP3 SWAP2 SWAP1 PUSH2 0x318C JUMP JUMPDEST PUSH1 0x40 DUP1 MLOAD PUSH1 0x1F NOT DUP2 DUP5 SUB ADD DUP2 MSTORE DUP3 DUP3 MSTORE DUP1 MLOAD PUSH1 0x20 SWAP2 DUP3 ADD KECCAK256 PUSH1 0x0 DUP2 DUP2 MSTORE PUSH1 0x1 DUP1 DUP5 MSTORE DUP5 DUP3 KECCAK256 PUSH2 0x100 DUP8 ADD SWAP1 SWAP6 MSTORE DUP5 SLOAD PUSH1 0x1 PUSH1 0x1 PUSH1 0xA0 SHL SUB SWAP1 DUP2 AND PUSH1 0xC0 DUP9 ADD SWAP1 DUP2 MSTORE SWAP2 DUP7 ADD SLOAD AND PUSH1 0xE0 DUP8 ADD MSTORE DUP6 MSTORE PUSH1 0x2 DUP5 ADD SLOAD SWAP2 SWAP6 POP SWAP4 SWAP3 SWAP2 DUP4 ADD SWAP1 PUSH1 0xFF AND PUSH1 0x5 DUP2 GT ISZERO PUSH2 0x288C JUMPI PUSH2 0x288C PUSH2 0x3176 JUMP JUMPDEST PUSH1 0x5 DUP2 GT ISZERO PUSH2 0x289D JUMPI PUSH2 0x289D PUSH2 0x3176 JUMP JUMPDEST DUP2 MSTORE PUSH1 0x2 SWAP2 SWAP1 SWAP2 ADD SLOAD PUSH1 0x1 PUSH1 0x1 PUSH1 0x40 SHL SUB PUSH2 0x100 DUP3 DIV DUP2 AND PUSH1 0x20 DUP5 ADD MSTORE PUSH1 0x1 PUSH1 0x48 SHL DUP3 DIV DUP2 AND PUSH1 0x40 DUP5 ADD MSTORE PUSH1 0x1 PUSH1 0x88 SHL DUP3 DIV AND PUSH1 0x60 DUP4 ADD MSTORE PUSH1 0x1 PUSH1 0x1 PUSH1 0xE0 SHL SUB NOT PUSH1 0x1 PUSH1 0xC8 SHL SWAP1 SWAP2 DIV PUSH1 0xE0 SHL AND PUSH1 0x80 SWAP1 SWAP2 ADD MSTORE SWAP1 POP PUSH1 0x0 DUP2 PUSH1 0x20 ADD MLOAD PUSH1 0x5 DUP2 GT ISZERO PUSH2 0x290A JUMPI PUSH2 0x290A PUSH2 0x3176 JUMP JUMPDEST EQ ISZERO PUSH2 0x2916 JUMPI POP POP POP POP JUMP JUMPDEST PUSH1 0x5 DUP2 PUSH1 0x20 ADD MLOAD PUSH1 0x5 DUP2 GT ISZERO PUSH2 0x292E JUMPI PUSH2 0x292E PUSH2 0x3176 JUMP JUMPDEST EQ ISZERO PUSH2 0x293E JUMPI PUSH2 0x293E DUP5 DUP5 PUSH2 0x2AC4 JUMP JUMPDEST DUP1 MLOAD MLOAD PUSH1 0x1 PUSH1 0x1 PUSH1 0xA0 SHL SUB SWAP1 DUP2 AND PUSH1 0x0 SWAP1 DUP2 MSTORE PUSH1 0x2 PUSH1 0x20 SWAP1 DUP2 MSTORE PUSH1 0x40 SWAP2 DUP3 SWAP1 KECCAK256 DUP5 MLOAD SWAP1 SWAP2 ADD MLOAD SWAP2 MLOAD PUSH4 0xEDEFE12D PUSH1 0xE0 SHL DUP2 MSTORE PUSH1 0x4 DUP2 ADD SWAP2 SWAP1 SWAP2 MSTORE SWAP2 AND PUSH1 0x24 DUP3 ADD MSTORE PUSH20 0x0 SWAP1 PUSH4 0xEDEFE12D SWAP1 PUSH1 0x44 ADD PUSH1 0x20 PUSH1 0x40 MLOAD DUP1 DUP4 SUB DUP2 DUP7 GAS DELEGATECALL ISZERO DUP1 ISZERO PUSH2 0x29BB JUMPI RETURNDATASIZE PUSH1 0x0 DUP1 RETURNDATACOPY RETURNDATASIZE PUSH1 0x0 REVERT JUMPDEST POP POP POP POP PUSH1 0x40 MLOAD RETURNDATASIZE PUSH1 0x1F NOT PUSH1 0x1F DUP3 ADD AND DUP3 ADD DUP1 PUSH1 0x40 MSTORE POP DUP2 ADD SWAP1 PUSH2 0x29DF SWAP2 SWAP1 PUSH2 0x3154 JUMP JUMPDEST POP DUP1 MLOAD PUSH1 0x20 SWAP1 DUP2 ADD MLOAD PUSH1 0x1 PUSH1 0x1 PUSH1 0xA0 SHL SUB SWAP1 DUP2 AND PUSH1 0x0 SWAP1 DUP2 MSTORE PUSH1 0x2 SWAP1 SWAP3 MSTORE PUSH1 0x40 SWAP2 DUP3 SWAP1 KECCAK256 DUP4 MLOAD MLOAD SWAP3 MLOAD PUSH4 0xEDEFE12D PUSH1 0xE0 SHL DUP2 MSTORE PUSH1 0x4 DUP2 ADD SWAP2 SWAP1 SWAP2 MSTORE SWAP2 AND PUSH1 0x24 DUP3 ADD MSTORE PUSH20 0x0 SWAP1 PUSH4 0xEDEFE12D SWAP1 PUSH1 0x44 ADD PUSH1 0x20 PUSH1 0x40 MLOAD DUP1 DUP4 SUB DUP2 DUP7 GAS DELEGATECALL ISZERO DUP1 ISZERO PUSH2 0x2A5D JUMPI RETURNDATASIZE PUSH1 0x0 DUP1 RETURNDATACOPY RETURNDATASIZE PUSH1 0x0 REVERT JUMPDEST POP POP POP POP PUSH1 0x40 MLOAD RETURNDATASIZE PUSH1 0x1F NOT PUSH1 0x1F DUP3 ADD AND DUP3 ADD DUP1 PUSH1 0x40 MSTORE POP DUP2 ADD SWAP1 PUSH2 0x2A81 SWAP2 SWAP1 PUSH2 0x3154 JUMP JUMPDEST POP POP PUSH1 0x0 SWAP1 DUP2 MSTORE PUSH1 0x1 PUSH1 0x20 DUP2 SWAP1 MSTORE PUSH1 0x40 SWAP1 SWAP2 KECCAK256 DUP1 SLOAD PUSH1 0x1 PUSH1 0x1 PUSH1 0xA0 SHL SUB NOT SWAP1 DUP2 AND DUP3 SSTORE SWAP2 DUP2 ADD DUP1 SLOAD SWAP1 SWAP3 AND SWAP1 SWAP2 SSTORE PUSH1 0x2 ADD DUP1 SLOAD PUSH1 0x1 PUSH1 0x1 PUSH1 0xE8 SHL SUB NOT AND SWAP1 SSTORE POP POP JUMP JUMPDEST PUSH1 0x0 DUP3 DUP3 PUSH1 0x40 MLOAD PUSH1 0x20 ADD PUSH2 0x2AD9 SWAP3 SWAP2 SWAP1 PUSH2 0x318C JUMP JUMPDEST PUSH1 0x40 DUP1 MLOAD PUSH1 0x1F NOT DUP2 DUP5 SUB ADD DUP2 MSTORE SWAP2 DUP2 MSTORE DUP2 MLOAD PUSH1 0x20 SWAP3 DUP4 ADD KECCAK256 PUSH1 0x0 SWAP1 DUP2 MSTORE PUSH1 0x3 SWAP1 SWAP3 MSTORE SWAP1 KECCAK256 DUP1 SLOAD PUSH1 0x1 PUSH1 0x1 PUSH1 0xA0 SHL SUB NOT AND SWAP1 SSTORE POP POP POP JUMP JUMPDEST PUSH1 0x40 DUP1 MLOAD PUSH2 0x100 DUP2 ADD DUP3 MSTORE PUSH1 0x0 PUSH1 0xC0 DUP3 ADD DUP2 DUP2 MSTORE PUSH1 0xE0 DUP4 ADD DUP3 SWAP1 MSTORE DUP3 MSTORE PUSH1 0x20 DUP3 ADD DUP2 SWAP1 MSTORE SWAP2 DUP2 ADD DUP3 SWAP1 MSTORE PUSH1 0x60 DUP2 ADD DUP3 SWAP1 MSTORE PUSH1 0x80 DUP2 ADD DUP3 SWAP1 MSTORE PUSH1 0xA0 DUP2 ADD SWAP2 SWAP1 SWAP2 MSTORE SWAP1 JUMP JUMPDEST PUSH1 0x0 DUP1 DUP6 DUP6 GT ISZERO PUSH2 0x2B63 JUMPI PUSH1 0x0 DUP1 REVERT JUMPDEST DUP4 DUP7 GT ISZERO PUSH2 0x2B70 JUMPI PUSH1 0x0 DUP1 REVERT JUMPDEST POP POP DUP3 ADD SWAP4 SWAP2 SWAP1 SWAP3 SUB SWAP2 POP JUMP JUMPDEST DUP1 CALLDATALOAD PUSH1 0x1 PUSH1 0x1 PUSH1 0xE0 SHL SUB NOT DUP2 AND DUP2 EQ PUSH2 0x2B95 JUMPI PUSH1 0x0 DUP1 REVERT JUMPDEST SWAP2 SWAP1 POP JUMP JUMPDEST PUSH1 0x0 PUSH1 0x20 DUP3 DUP5 SUB SLT ISZERO PUSH2 0x2BAC JUMPI PUSH1 0x0 DUP1 REVERT JUMPDEST PUSH2 0x147B DUP3 PUSH2 0x2B7D JUMP JUMPDEST DUP1 CALLDATALOAD PUSH1 0x1 PUSH1 0x1 PUSH1 0xA0 SHL SUB DUP2 AND DUP2 EQ PUSH2 0x2B95 JUMPI PUSH1 0x0 DUP1 REVERT JUMPDEST PUSH1 0x0 DUP1 PUSH1 0x0 DUP1 PUSH1 0x0 PUSH1 0xA0 DUP7 DUP9 SUB SLT ISZERO PUSH2 0x2BE4 JUMPI PUSH1 0x0 DUP1 REVERT JUMPDEST PUSH2 0x2BED DUP7 PUSH2 0x2BB5 JUMP JUMPDEST SWAP5 POP PUSH2 0x2BFB PUSH1 0x20 DUP8 ADD PUSH2 0x2BB5 JUMP JUMPDEST SWAP5 SWAP8 SWAP5 SWAP7 POP POP POP POP PUSH1 0x40 DUP4 ADD CALLDATALOAD SWAP3 PUSH1 0x60 DUP2 ADD CALLDATALOAD SWAP3 PUSH1 0x80 SWAP1 SWAP2 ADD CALLDATALOAD SWAP2 POP JUMP JUMPDEST PUSH1 0x0 DUP1 PUSH1 0x40 DUP4 DUP6 SUB SLT ISZERO PUSH2 0x2C2C JUMPI PUSH1 0x0 DUP1 REVERT JUMPDEST PUSH2 0x2C35 DUP4 PUSH2 0x2BB5 JUMP JUMPDEST SWAP2 POP PUSH2 0x2C43 PUSH1 0x20 DUP5 ADD PUSH2 0x2BB5 JUMP JUMPDEST SWAP1 POP SWAP3 POP SWAP3 SWAP1 POP JUMP JUMPDEST PUSH1 0x0 PUSH1 0x20 DUP3 DUP5 SUB SLT ISZERO PUSH2 0x2C5E JUMPI PUSH1 0x0 DUP1 REVERT JUMPDEST POP CALLDATALOAD SWAP2 SWAP1 POP JUMP JUMPDEST PUSH1 0x0 DUP1 PUSH1 0x40 DUP4 DUP6 SUB SLT ISZERO PUSH2 0x2C78 JUMPI PUSH1 0x0 DUP1 REVERT JUMPDEST POP POP DUP1 CALLDATALOAD SWAP3 PUSH1 0x20 SWAP1 SWAP2 ADD CALLDATALOAD SWAP2 POP JUMP JUMPDEST PUSH4 0x4E487B71 PUSH1 0xE0 SHL PUSH1 0x0 MSTORE PUSH1 0x41 PUSH1 0x4 MSTORE PUSH1 0x24 PUSH1 0x0 REVERT JUMPDEST PUSH1 0x40 MLOAD PUSH1 0xC0 DUP2 ADD PUSH1 0x1 PUSH1 0x1 PUSH1 0x40 SHL SUB DUP2 GT DUP3 DUP3 LT OR ISZERO PUSH2 0x2CBF JUMPI PUSH2 0x2CBF PUSH2 0x2C87 JUMP JUMPDEST PUSH1 0x40 MSTORE SWAP1 JUMP JUMPDEST PUSH1 0x40 MLOAD PUSH1 0x1F DUP3 ADD PUSH1 0x1F NOT AND DUP2 ADD PUSH1 0x1 PUSH1 0x1 PUSH1 0x40 SHL SUB DUP2 GT DUP3 DUP3 LT OR ISZERO PUSH2 0x2CED JUMPI PUSH2 0x2CED PUSH2 0x2C87 JUMP JUMPDEST PUSH1 0x40 MSTORE SWAP2 SWAP1 POP JUMP JUMPDEST PUSH1 0x0 PUSH1 0x1 PUSH1 0x1 PUSH1 0x40 SHL SUB DUP3 GT ISZERO PUSH2 0x2D0E JUMPI PUSH2 0x2D0E PUSH2 0x2C87 JUMP JUMPDEST POP PUSH1 0x5 SHL PUSH1 0x20 ADD SWAP1 JUMP JUMPDEST PUSH1 0x0 PUSH1 0x40 DUP3 DUP5 SUB SLT ISZERO PUSH2 0x2D2A JUMPI PUSH1 0x0 DUP1 REVERT JUMPDEST PUSH1 0x40 MLOAD PUSH1 0x40 DUP2 ADD DUP2 DUP2 LT PUSH1 0x1 PUSH1 0x1 PUSH1 0x40 SHL SUB DUP3 GT OR ISZERO PUSH2 0x2D4C JUMPI PUSH2 0x2D4C PUSH2 0x2C87 JUMP JUMPDEST PUSH1 0x40 MSTORE SWAP1 POP DUP1 PUSH2 0x2D5B DUP4 PUSH2 0x2BB5 JUMP JUMPDEST DUP2 MSTORE PUSH2 0x2D69 PUSH1 0x20 DUP5 ADD PUSH2 0x2BB5 JUMP JUMPDEST PUSH1 0x20 DUP3 ADD MSTORE POP SWAP3 SWAP2 POP POP JUMP JUMPDEST DUP1 CALLDATALOAD PUSH1 0x1 PUSH1 0x1 PUSH1 0x40 SHL SUB DUP2 AND DUP2 EQ PUSH2 0x2B95 JUMPI PUSH1 0x0 DUP1 REVERT JUMPDEST PUSH1 0x0 PUSH1 0x20 DUP1 DUP4 DUP6 SUB SLT ISZERO PUSH2 0x2D9F JUMPI PUSH1 0x0 DUP1 REVERT JUMPDEST DUP3 CALLDATALOAD PUSH1 0x1 PUSH1 0x1 PUSH1 0x40 SHL SUB DUP2 GT ISZERO PUSH2 0x2DB5 JUMPI PUSH1 0x0 DUP1 REVERT JUMPDEST DUP4 ADD PUSH1 0x1F DUP2 ADD DUP6 SGT PUSH2 0x2DC6 JUMPI PUSH1 0x0 DUP1 REVERT JUMPDEST DUP1 CALLDATALOAD PUSH2 0x2DD9 PUSH2 0x2DD4 DUP3 PUSH2 0x2CF5 JUMP JUMPDEST PUSH2 0x2CC5 JUMP JUMPDEST DUP2 DUP2 MSTORE PUSH1 0xE0 SWAP2 DUP3 MUL DUP4 ADD DUP5 ADD SWAP2 DUP5 DUP3 ADD SWAP2 SWAP1 DUP9 DUP5 GT ISZERO PUSH2 0x2DF8 JUMPI PUSH1 0x0 DUP1 REVERT JUMPDEST SWAP4 DUP6 ADD SWAP4 JUMPDEST DUP4 DUP6 LT ISZERO PUSH2 0x2E96 JUMPI DUP1 DUP6 DUP11 SUB SLT ISZERO PUSH2 0x2E15 JUMPI PUSH1 0x0 DUP1 DUP2 REVERT JUMPDEST PUSH2 0x2E1D PUSH2 0x2C9D JUMP JUMPDEST PUSH2 0x2E27 DUP11 DUP8 PUSH2 0x2D18 JUMP JUMPDEST DUP2 MSTORE PUSH1 0x40 DUP1 DUP8 ADD CALLDATALOAD PUSH1 0x6 DUP2 LT PUSH2 0x2E3D JUMPI PUSH1 0x0 DUP1 DUP2 REVERT JUMPDEST DUP3 DUP10 ADD MSTORE PUSH1 0x60 PUSH2 0x2E4E DUP9 DUP3 ADD PUSH2 0x2D75 JUMP JUMPDEST DUP3 DUP5 ADD MSTORE PUSH1 0x80 SWAP2 POP PUSH2 0x2E61 DUP3 DUP10 ADD PUSH2 0x2D75 JUMP JUMPDEST SWAP1 DUP4 ADD MSTORE PUSH1 0xA0 PUSH2 0x2E72 DUP9 DUP3 ADD PUSH2 0x2D75 JUMP JUMPDEST DUP3 DUP5 ADD MSTORE PUSH2 0x2E82 PUSH1 0xC0 DUP10 ADD PUSH2 0x2B7D JUMP JUMPDEST SWAP1 DUP4 ADD MSTORE POP DUP4 MSTORE SWAP4 DUP5 ADD SWAP4 SWAP2 DUP6 ADD SWAP2 PUSH2 0x2DFD JUMP JUMPDEST POP SWAP8 SWAP7 POP POP POP POP POP POP POP JUMP JUMPDEST PUSH1 0x0 PUSH1 0x20 DUP3 DUP5 SUB SLT ISZERO PUSH2 0x2EB4 JUMPI PUSH1 0x0 DUP1 REVERT JUMPDEST DUP2 CALLDATALOAD PUSH6 0xFFFFFFFFFFFF DUP2 AND DUP2 EQ PUSH2 0x147B JUMPI PUSH1 0x0 DUP1 REVERT JUMPDEST PUSH1 0x0 PUSH1 0x20 DUP1 DUP4 ADD DUP2 DUP5 MSTORE DUP1 DUP6 MLOAD DUP1 DUP4 MSTORE PUSH1 0x40 SWAP3 POP DUP3 DUP7 ADD SWAP2 POP DUP3 DUP2 PUSH1 0x5 SHL DUP8 ADD ADD DUP5 DUP9 ADD PUSH1 0x0 DUP1 JUMPDEST DUP5 DUP2 LT ISZERO PUSH2 0x2F5B JUMPI DUP10 DUP5 SUB PUSH1 0x3F NOT ADD DUP7 MSTORE DUP3 MLOAD DUP1 MLOAD DUP1 DUP7 MSTORE SWAP1 DUP10 ADD SWAP1 DUP10 DUP7 ADD SWAP1 DUP5 JUMPDEST DUP2 DUP2 LT ISZERO PUSH2 0x2F46 JUMPI DUP4 MLOAD DUP1 MLOAD PUSH1 0x1 PUSH1 0x1 PUSH1 0xA0 SHL SUB SWAP1 DUP2 AND DUP6 MSTORE SWAP1 DUP14 ADD MLOAD AND DUP13 DUP5 ADD MSTORE SWAP3 DUP12 ADD SWAP3 SWAP2 DUP11 ADD SWAP2 PUSH1 0x1 ADD PUSH2 0x2F14 JUMP JUMPDEST POP POP SWAP7 DUP10 ADD SWAP7 SWAP5 POP POP SWAP2 DUP8 ADD SWAP2 PUSH1 0x1 ADD PUSH2 0x2EF2 JUMP JUMPDEST POP SWAP2 SWAP10 SWAP9 POP POP POP POP POP POP POP POP POP JUMP JUMPDEST PUSH1 0x0 PUSH1 0x20 DUP1 DUP4 DUP6 SUB SLT ISZERO PUSH2 0x2F7D JUMPI PUSH1 0x0 DUP1 REVERT JUMPDEST DUP3 CALLDATALOAD PUSH1 0x1 PUSH1 0x1 PUSH1 0x40 SHL SUB DUP1 DUP3 GT ISZERO PUSH2 0x2F94 JUMPI PUSH1 0x0 DUP1 REVERT JUMPDEST DUP2 DUP6 ADD SWAP2 POP DUP6 PUSH1 0x1F DUP4 ADD SLT PUSH2 0x2FA8 JUMPI PUSH1 0x0 DUP1 REVERT JUMPDEST DUP2 CALLDATALOAD PUSH2 0x2FB6 PUSH2 0x2DD4 DUP3 PUSH2 0x2CF5 JUMP JUMPDEST DUP2 DUP2 MSTORE PUSH1 0x5 SWAP2 SWAP1 SWAP2 SHL DUP4 ADD DUP5 ADD SWAP1 DUP5 DUP2 ADD SWAP1 DUP9 DUP4 GT ISZERO PUSH2 0x2FD5 JUMPI PUSH1 0x0 DUP1 REVERT JUMPDEST DUP6 DUP6 ADD JUMPDEST DUP4 DUP2 LT ISZERO PUSH2 0x306C JUMPI DUP1 CALLDATALOAD DUP6 DUP2 GT ISZERO PUSH2 0x2FF1 JUMPI PUSH1 0x0 DUP1 DUP2 REVERT JUMPDEST DUP7 ADD PUSH1 0x3F DUP2 ADD DUP12 SGT PUSH2 0x3003 JUMPI PUSH1 0x0 DUP1 DUP2 REVERT JUMPDEST DUP8 DUP2 ADD CALLDATALOAD PUSH1 0x40 PUSH2 0x3015 PUSH2 0x2DD4 DUP4 PUSH2 0x2CF5 JUMP JUMPDEST DUP3 DUP2 MSTORE PUSH1 0x6 SWAP3 SWAP1 SWAP3 SHL DUP4 ADD DUP2 ADD SWAP2 DUP11 DUP2 ADD SWAP1 DUP15 DUP5 GT ISZERO PUSH2 0x3035 JUMPI PUSH1 0x0 DUP1 DUP2 REVERT JUMPDEST SWAP4 DUP3 ADD SWAP4 JUMPDEST DUP4 DUP6 LT ISZERO PUSH2 0x305B JUMPI PUSH2 0x304C DUP16 DUP7 PUSH2 0x2D18 JUMP JUMPDEST DUP3 MSTORE SWAP4 DUP3 ADD SWAP4 SWAP1 DUP12 ADD SWAP1 PUSH2 0x303A JUMP JUMPDEST DUP8 MSTORE POP POP POP SWAP3 DUP8 ADD SWAP3 POP DUP7 ADD PUSH2 0x2FD9 JUMP JUMPDEST POP SWAP9 SWAP8 POP POP POP POP POP POP POP POP JUMP JUMPDEST PUSH1 0x0 DUP1 PUSH1 0x0 PUSH1 0x60 DUP5 DUP7 SUB SLT ISZERO PUSH2 0x308E JUMPI PUSH1 0x0 DUP1 REVERT JUMPDEST PUSH2 0x3097 DUP5 PUSH2 0x2BB5 JUMP JUMPDEST SWAP3 POP PUSH2 0x30A5 PUSH1 0x20 DUP6 ADD PUSH2 0x2BB5 JUMP JUMPDEST SWAP2 POP PUSH1 0x40 DUP5 ADD CALLDATALOAD SWAP1 POP SWAP3 POP SWAP3 POP SWAP3 JUMP JUMPDEST PUSH1 0x0 PUSH1 0x20 DUP3 DUP5 SUB SLT ISZERO PUSH2 0x30C7 JUMPI PUSH1 0x0 DUP1 REVERT JUMPDEST PUSH2 0x147B DUP3 PUSH2 0x2D75 JUMP JUMPDEST PUSH1 0x0 DUP1 PUSH1 0x0 PUSH1 0x60 DUP5 DUP7 SUB SLT ISZERO PUSH2 0x30E5 JUMPI PUSH1 0x0 DUP1 REVERT JUMPDEST PUSH2 0x30EE DUP5 PUSH2 0x2BB5 JUMP JUMPDEST SWAP3 POP PUSH2 0x30FC PUSH1 0x20 DUP6 ADD PUSH2 0x2BB5 JUMP JUMPDEST SWAP2 POP PUSH2 0x310A PUSH1 0x40 DUP6 ADD PUSH2 0x2BB5 JUMP JUMPDEST SWAP1 POP SWAP3 POP SWAP3 POP SWAP3 JUMP JUMPDEST PUSH1 0x0 PUSH1 0x20 DUP3 DUP5 SUB SLT ISZERO PUSH2 0x3125 JUMPI PUSH1 0x0 DUP1 REVERT JUMPDEST DUP2 CALLDATALOAD PUSH4 0xFFFFFFFF DUP2 AND DUP2 EQ PUSH2 0x147B JUMPI PUSH1 0x0 DUP1 REVERT JUMPDEST PUSH1 0x0 PUSH1 0x20 DUP3 DUP5 SUB SLT ISZERO PUSH2 0x314B JUMPI PUSH1 0x0 DUP1 REVERT JUMPDEST PUSH2 0x147B DUP3 PUSH2 0x2BB5 JUMP JUMPDEST PUSH1 0x0 PUSH1 0x20 DUP3 DUP5 SUB SLT ISZERO PUSH2 0x3166 JUMPI PUSH1 0x0 DUP1 REVERT JUMPDEST DUP2 MLOAD DUP1 ISZERO ISZERO DUP2 EQ PUSH2 0x147B JUMPI PUSH1 0x0 DUP1 REVERT JUMPDEST PUSH4 0x4E487B71 PUSH1 0xE0 SHL PUSH1 0x0 MSTORE PUSH1 0x21 PUSH1 0x4 MSTORE PUSH1 0x24 PUSH1 0x0 REVERT JUMPDEST PUSH12 0xFFFFFFFFFFFFFFFFFFFFFFFF NOT PUSH1 0x60 SWAP4 DUP5 SHL DUP2 AND DUP3 MSTORE SWAP2 SWAP1 SWAP3 SHL AND PUSH1 0x14 DUP3 ADD MSTORE PUSH1 0x28 ADD SWAP1 JUMP JUMPDEST PUSH4 0x4E487B71 PUSH1 0xE0 SHL PUSH1 0x0 MSTORE PUSH1 0x11 PUSH1 0x4 MSTORE PUSH1 0x24 PUSH1 0x0 REVERT JUMPDEST PUSH1 0x0 DUP3 PUSH2 0x31E6 JUMPI PUSH4 0x4E487B71 PUSH1 0xE0 SHL PUSH1 0x0 MSTORE PUSH1 0x12 PUSH1 0x4 MSTORE PUSH1 0x24 PUSH1 0x0 REVERT JUMPDEST POP DIV SWAP1 JUMP JUMPDEST PUSH1 0x0 DUP2 PUSH1 0x0 NOT DIV DUP4 GT DUP3 ISZERO ISZERO AND ISZERO PUSH2 0x3205 JUMPI PUSH2 0x3205 PUSH2 0x31B3 JUMP JUMPDEST POP MUL SWAP1 JUMP JUMPDEST PUSH4 0x4E487B71 PUSH1 0xE0 SHL PUSH1 0x0 MSTORE PUSH1 0x1 PUSH1 0x4 MSTORE PUSH1 0x24 PUSH1 0x0 REVERT JUMPDEST PUSH4 0x4E487B71 PUSH1 0xE0 SHL PUSH1 0x0 MSTORE PUSH1 0x32 PUSH1 0x4 MSTORE PUSH1 0x24 PUSH1 0x0 REVERT JUMPDEST PUSH1 0x0 PUSH1 0x0 NOT DUP3 EQ ISZERO PUSH2 0x324A JUMPI PUSH2 0x324A PUSH2 0x31B3 JUMP JUMPDEST POP PUSH1 0x1 ADD SWAP1 JUMP JUMPDEST PUSH1 0x0 DUP3 NOT DUP3 GT ISZERO PUSH2 0x3264 JUMPI PUSH2 0x3264 PUSH2 0x31B3 JUMP JUMPDEST POP ADD SWAP1 JUMP JUMPDEST DUP1 MLOAD PUSH10 0xFFFFFFFFFFFFFFFFFFFF DUP2 AND DUP2 EQ PUSH2 0x2B95 JUMPI PUSH1 0x0 DUP1 REVERT JUMPDEST PUSH1 0x0 DUP1 PUSH1 0x0 DUP1 PUSH1 0x0 PUSH1 0xA0 DUP7 DUP9 SUB SLT ISZERO PUSH2 0x329B JUMPI PUSH1 0x0 DUP1 REVERT JUMPDEST PUSH2 0x32A4 DUP7 PUSH2 0x3269 JUMP JUMPDEST SWAP5 POP PUSH1 0x20 DUP7 ADD MLOAD SWAP4 POP PUSH1 0x40 DUP7 ADD MLOAD SWAP3 POP PUSH1 0x60 DUP7 ADD MLOAD SWAP2 POP PUSH2 0x32C7 PUSH1 0x80 DUP8 ADD PUSH2 0x3269 JUMP JUMPDEST SWAP1 POP SWAP3 SWAP6 POP SWAP3 SWAP6 SWAP1 SWAP4 POP JUMP JUMPDEST PUSH1 0x0 PUSH1 0x20 DUP3 DUP5 SUB SLT ISZERO PUSH2 0x32E5 JUMPI PUSH1 0x0 DUP1 REVERT JUMPDEST DUP2 MLOAD PUSH1 0xFF DUP2 AND DUP2 EQ PUSH2 0x147B JUMPI PUSH1 0x0 DUP1 REVERT JUMPDEST PUSH1 0x1 DUP2 DUP2 JUMPDEST DUP1 DUP6 GT ISZERO PUSH2 0x3331 JUMPI DUP2 PUSH1 0x0 NOT DIV DUP3 GT ISZERO PUSH2 0x3317 JUMPI PUSH2 0x3317 PUSH2 0x31B3 JUMP JUMPDEST DUP1 DUP6 AND ISZERO PUSH2 0x3324 JUMPI SWAP2 DUP2 MUL SWAP2 JUMPDEST SWAP4 DUP5 SHR SWAP4 SWAP1 DUP1 MUL SWAP1 PUSH2 0x32FB JUMP JUMPDEST POP SWAP3 POP SWAP3 SWAP1 POP JUMP JUMPDEST PUSH1 0x0 DUP3 PUSH2 0x3348 JUMPI POP PUSH1 0x1 PUSH2 0x70F JUMP JUMPDEST DUP2 PUSH2 0x3355 JUMPI POP PUSH1 0x0 PUSH2 0x70F JUMP JUMPDEST DUP2 PUSH1 0x1 DUP2 EQ PUSH2 0x336B JUMPI PUSH1 0x2 DUP2 EQ PUSH2 0x3375 JUMPI PUSH2 0x3391 JUMP JUMPDEST PUSH1 0x1 SWAP2 POP POP PUSH2 0x70F JUMP JUMPDEST PUSH1 0xFF DUP5 GT ISZERO PUSH2 0x3386 JUMPI PUSH2 0x3386 PUSH2 0x31B3 JUMP JUMPDEST POP POP PUSH1 0x1 DUP3 SHL PUSH2 0x70F JUMP JUMPDEST POP PUSH1 0x20 DUP4 LT PUSH2 0x133 DUP4 LT AND PUSH1 0x4E DUP5 LT PUSH1 0xB DUP5 LT AND OR ISZERO PUSH2 0x33B4 JUMPI POP DUP2 DUP2 EXP PUSH2 0x70F JUMP JUMPDEST PUSH2 0x33BE DUP4 DUP4 PUSH2 0x32F6 JUMP JUMPDEST DUP1 PUSH1 0x0 NOT DIV DUP3 GT ISZERO PUSH2 0x33D2 JUMPI PUSH2 0x33D2 PUSH2 0x31B3 JUMP JUMPDEST MUL SWAP4 SWAP3 POP POP POP JUMP JUMPDEST PUSH1 0x0 PUSH2 0x147B PUSH1 0xFF DUP5 AND DUP4 PUSH2 0x3339 JUMP JUMPDEST PUSH1 0x0 DUP3 DUP3 LT ISZERO PUSH2 0x33FB JUMPI PUSH2 0x33FB PUSH2 0x31B3 JUMP JUMPDEST POP SUB SWAP1 JUMP INVALID LOG2 PUSH5 0x6970667358 0x22 SLT KECCAK256 CREATE2 LOG1 0xEF 0xFB GAS 0xDD 0xCF 0xCB EXTCODEHASH SWAP12 0xCD 0xD4 0xBF GASLIMIT 0x5E 0xCC PUSH4 0xEFF117FF 0xCF DUP1 0xB6 PUSH11 0xBF52CA62B0F5FA64736F6C PUSH4 0x4300080B STOP CALLER ","sha1":"a5180b99b49ca185f6e38dab191ae224dc14cfae","source":"// SPDX-License-Identifier: MIT\n// Beef MarketPlace Contracts v0.0.0 hello@mcdu.com\n\npragma solidity ^0.8.0;\n\nimport \"@chainlink/contracts/src/v0.8/interfaces/AggregatorV3Interface.sol\";\nimport \"../agnostic/Array.sol\";\nimport \"../Repository/Repository.sol\";\nimport \"./QuoteLib.sol\";\nimport \"../agnostic/UIntConverter.sol\";\n\nbytes32 constant QUOTATOR = keccak256(\"Quotator\");\n\ncontract Quotator is RepositoryContract,UIntConverter {\n\n    function id() public view returns (bytes32) {return QUOTATOR;}\n\n    /////////////////////////////////////////////////////////////////////////////////////////\n    //      event\n    /////////////////////////////////////////////////////////////////////////////////////////\n    event Quoted(\n        address indexed left_,\n        address indexed right_,\n        QuoteSource source_,\n        uint256 _quotemin_,\n        uint256 _quoteavg_,\n        uint256 quotemax_\n    );\n    function _quoteChanged(address left_,address right_,uint256 quotemin_,uint256 quoteavg_,uint256 quotemax_) internal virtual\n    {\n        //address(rep).call(abi.encodeWithSelector(bytes4(keccak256(\"_quoteChanged(address,address,uint256,uint256,uint256)\")), left_,right_,quotemin_,quoteavg_,quotemax_));\n    }\n \n\n\n    constructor(Repository rep_) RepositoryContract(rep_) {\n    }\n\n    //function _liquidate() internal virtual override {}\n\n    uint256 constant MAXSTACKCALL = 20;\n    using Array for address[];\n    mapping(bytes32 => QuoteInfo) private _quotes;\n    mapping(address => address[]) private _quotetoquotes;\n\n    mapping(bytes32 => AggregatorV3Interface) private _chainlinks;\n\n    /////////////////////////////////////////////////////////////////////////////////////////\n    //      event for the Quotator Bot\n    /////////////////////////////////////////////////////////////////////////////////////////\n    event Unresolved(address left_, address right_);\n    event Resolved(address left_, address right_);\n\n    /////////////////////////////////////////////////////////////////////////////////////////\n    //      Quote\n    /////////////////////////////////////////////////////////////////////////////////////////\n\n    function __set(QuoteInfo memory quote_) private {\n        bytes32 _key = keccak256(\n            abi.encodePacked(quote_._ref._left, quote_._ref._right)\n        );\n        QuoteInfo memory _quote = _quotes[_key];\n        if (_quote._source != quote_._source) {\n            _clear(quote_._ref._left, quote_._ref._right);\n            _quote._ref._left = quote_._ref._left;\n            _quote._ref._right = quote_._ref._right;\n            _quote._source = quote_._source;\n            _quotetoquotes[quote_._ref._left].insert(quote_._ref._right);\n            _quotetoquotes[quote_._ref._right].insert(quote_._ref._left);\n        }\n        _quote._timestamp = bytes4(bytes32(block.number));\n        if (\n            _quote._quotemin == quote_._quotemin &&\n            _quote._quoteavg == quote_._quoteavg &&\n            _quote._quotemax == quote_._quotemax\n        ) return;\n        _quote._quotemin = quote_._quotemin;\n        _quote._quoteavg = quote_._quoteavg;\n        _quote._quotemax = quote_._quotemax;\n        _quotes[_key] = _quote;\n    }\n\n    function _clear(address left_, address right_)\n        private\n    {\n        bytes32 _key = keccak256(abi.encodePacked(left_, right_));\n        QuoteInfo memory _quote = _quotes[_key];\n        if (_quote._source == QuoteSource.None) return;\n        else if (_quote._source == QuoteSource.ChainLink)\n            __chainlinkClear(left_, right_);\n        //else if (_quote._source==QuoteSource.ComplexStatic||_quote._source==QuoteSource.ComplexDynamic)\n        //    __complexClear(left_,right_);\n        _quotetoquotes[_quote._ref._left].remove(_quote._ref._right);\n        _quotetoquotes[_quote._ref._right].remove(_quote._ref._left);\n\n        delete _quotes[_key];\n    }\n\n    /////////////////////////////////////////////////////////////////////////////////////////\n    //      ChainLink\n    /////////////////////////////////////////////////////////////////////////////////////////\n\n    function chainlinkSet(\n        address left_,\n        address right_,\n        address feedaddress_\n    ) external onlyContractsOrOperators {\n        bytes32 _key = keccak256(abi.encodePacked(left_, right_));\n\n        AggregatorV3Interface _feed = AggregatorV3Interface(feedaddress_);\n        _chainlinks[_key] = _feed;\n\n        QuoteInfo memory _quote;\n        _quote._ref._left = left_;\n        _quote._ref._right = right_;\n        _quote._source = QuoteSource.ChainLink;\n        (\n            uint256 _quotemin,\n            uint256 _quoteavg,\n            uint256 _quotemax\n        ) = __chainlinkReadOnly(_quote);\n        _quote._quotemin = UInt256ToUInt64(_quotemin);\n        _quote._quoteavg = UInt256ToUInt64(_quoteavg);\n        _quote._quotemax = UInt256ToUInt64(_quotemax);\n        __set(_quote);\n    }\n\n    function __chainlinkClear(address left_, address right_) private {\n        bytes32 _key = keccak256(abi.encodePacked(left_, right_));\n        delete _chainlinks[_key];\n    }\n\n    function __chainlinkReadOnly(QuoteInfo memory quote_)\n        private\n        view\n        returns (\n            uint256,\n            uint256,\n            uint256\n        )\n    {\n        bytes32 _key = keccak256(\n            abi.encodePacked(quote_._ref._left, quote_._ref._right)\n        );\n        (, int256 __answer, , , ) = _chainlinks[_key].latestRoundData();\n        require(__answer > 0, \"Chainlink quote must be positive\");\n        uint256 _answer = uint256(__answer);\n        _answer *= (10**18) / 10**_chainlinks[_key].decimals();\n        return (uint256(_answer), uint256(_answer), uint256(_answer));\n    }\n\n    function __chainlinkRead(QuoteInfo memory quote_)\n        private\n        returns (\n            uint256,\n            uint256,\n            uint256\n        )\n    {\n        if (quote_._timestamp != bytes4(bytes32(block.number))) {\n            (\n                uint256 _quotemin,\n                uint256 _quoteavg,\n                uint256 _quotemax\n            ) = __chainlinkReadOnly(quote_);\n            quote_._quotemin = UInt256ToUInt64(_quotemin);\n            quote_._quoteavg = UInt256ToUInt64(_quoteavg);\n            quote_._quotemax = UInt256ToUInt64(_quotemax);\n            __set(quote_);\n        }\n        return (\n            UInt64ToUInt256(quote_._quotemin),\n            UInt64ToUInt256(quote_._quoteavg),\n            UInt64ToUInt256(quote_._quotemax)\n        );\n    }\n\n    /////////////////////////////////////////////////////////////////////////////////////////\n    //      Static\n    /////////////////////////////////////////////////////////////////////////////////////////\n\n    function staticSet(\n        address left_,\n        address right_,\n        uint256 quote_\n    ) external onlyContractsOrOperators {\n        QuoteInfo memory _quote;\n        _quote._ref._left = left_;\n        _quote._ref._right = right_;\n        _quote._source = QuoteSource.Static;\n        _quote._quotemin = _quote._quoteavg = _quote._quotemax = UIntConverter\n            .UInt256ToUInt64(quote_);\n        __set(_quote);\n    }\n\n    function __staticRead(QuoteInfo memory _quote)\n        private\n        view\n        returns (\n            uint256,\n            uint256,\n            uint256\n        )\n    {\n        return (\n            UInt64ToUInt256(_quote._quotemin),\n            UInt64ToUInt256(_quote._quoteavg),\n            UInt64ToUInt256(_quote._quotemax)\n        );\n    }\n\n    /////////////////////////////////////////////////////////////////////////////////////////\n    //      Static\n    /////////////////////////////////////////////////////////////////////////////////////////\n\n    function internalMultiSet(QuoteInfo[] memory quotes_)\n        external\n        onlyContractsOrOperators\n    {\n        for (uint256 i; i < quotes_.length; i++)\n            internalSet(\n                quotes_[i]._ref._left,\n                quotes_[i]._ref._right,\n                quotes_[i]._quotemin,\n                quotes_[i]._quoteavg,\n                quotes_[i]._quotemax\n            );\n    }\n\n    function internalSet(\n        address left_,\n        address right_,\n        uint256 quotemin_,\n        uint256 quoteavg_,\n        uint256 quotemax_\n    ) public onlyContractsOrOperators {\n        QuoteInfo memory _quote;\n        _quote._ref._left = left_;\n        _quote._ref._right = right_;\n        _quote._source = QuoteSource.Internal;\n        _quote._quotemin = UInt256ToUInt64(quotemin_);\n        _quote._quoteavg = UInt256ToUInt64(quoteavg_);\n        _quote._quotemax = UInt256ToUInt64(quotemax_);\n        __set(_quote);\n    }\n\n    function __internalRead(QuoteInfo memory _quote)\n        private\n        view\n        returns (\n            uint256,\n            uint256,\n            uint256\n        )\n    {\n        return (\n            UInt64ToUInt256(_quote._quotemin),\n            UInt64ToUInt256(_quote._quoteavg),\n            UInt64ToUInt256(_quote._quotemax)\n        );\n    }\n\n    /////////////////////////////////////////////////////////////////////////////////////////\n    //      Complex\n    /////////////////////////////////////////////////////////////////////////////////////////\n\n    /*\n    struct QuoteRefList {\n        QuoteRef[] _list;\n    }\n    struct QuoteRefConv {\n        QuoteRefList[] _convs;\n    }\n\n    mapping(address => mapping(address => QuoteRef[][])) private _complexs;\n\n    function complexDynamicMultiSet(QuoteRef[][][] memory convs_) public onlyContractsOrOperators {\n        for (uint i;i<convs_.length;i++)\n            complexDynamicSet(convs_[i]);\n    }\n\n    function complexDynamicSet(QuoteRef[][] memory convs_) public onlyContractsOrOperators {\n\n        if (convs_.length==0) return;\n        if (convs_[0].length==0) return;\n\n\n        QuoteInfo memory _quote;\n        _quote._ref._left = convs_[0][0]._left;\n        _quote._ref._right = convs_[0][convs_[0].length-1]._right;\n        _quote._source = QuoteSource.ComplexDynamic;\n        for (uint i; i<convs_.length;i++)\n        {\n            if (convs_[i].length==0)\n                continue;\n            _complexs[_quote._ref._left][_quote._ref._right].push();\n            for (uint j;j<convs_[i].length;j++)\n            {\n                _complexs[_quote._ref._left][_quote._ref._right][i].push();\n                _complexs[_quote._ref._left][_quote._ref._right][i][j] = convs_[i][j];\n            }\n        }\n        (_quote._quotemin,_quote._quoteavg,_quote._quotemax) = __complexReadOnly(_quote);\n        __set(_quote);\n    }\n    function complexStaticMultiSet(QuoteRef[][][] memory convs_) public onlyContractsOrOperators {\n        for (uint i;i<convs_.length;i++)\n            complexStaticSet(convs_[i]);\n    }\n    function complexStaticSet(QuoteRef[][] memory convs_) public onlyContractsOrOperators {\n\n        if (convs_.length==0) return;\n        if (convs_[0].length==0) return;\n\n        QuoteInfo memory _quote;\n        _quote._ref._left = convs_[0][0]._left;\n        _quote._ref._right = convs_[0][convs_[0].length-1]._right;\n        _quote._source = QuoteSource.ComplexStatic;\n        for (uint i; i<convs_.length;i++)\n        {\n            _complexs[_quote._ref._left][_quote._ref._right].push();\n            for (uint j;j<convs_[i].length;j++)\n            {\n                _complexs[_quote._ref._left][_quote._ref._right][i].push();\n                _complexs[_quote._ref._left][_quote._ref._right][i][j] = convs_[i][j];\n            }\n        }\n        (_quote._quotemin,_quote._quoteavg,_quote._quotemax) = __complexReadOnly(_quote);\n        __set(_quote);\n    }\n    function complexGet(address left_, address right_) public view returns (QuoteRef[][] memory)\n    {\n        return _complexs[left_][right_];\n    }\n    function __complexClear(address left_, address right_) private\n    {\n        delete _complexs[left_][right_];\n    }*/\n    /*function __complexReadOnly(QuoteInfo memory quote_)\n        private view \n        returns (uint256,uint256,uint256)\n    {\n        return ___complexReadOnly(_complexs[quote_._ref._left][quote_._ref._right]);\n    }*/\n    function complexReadOnly(QuoteRef[][] memory _convs)\n        external\n        view\n        returns (\n            uint256,\n            uint256,\n            uint256\n        )\n    {\n        uint256 _quotemin = 0;\n        uint256 _quoteavg = 0;\n        uint256 _quoteavgcount = 0;\n        uint256 _quotemax = 0;\n        for (uint256 i; i < _convs.length; i++) {\n            uint256 __quotemin = 10**18;\n            uint256 __quoteavg = 10**18;\n            uint256 __quotemax = 10**18;\n            for (uint256 j = 0; j < _convs[i].length; j++) {\n                QuoteRef memory _ref = _convs[i][j];\n                (\n                    uint256 ___quotemin,\n                    uint256 ___quoteavg,\n                    uint256 ___quotemax\n                ) = readOnly(_ref._left, _ref._right);\n                if (___quoteavg == 0) return (0, 0, 0);\n                __quotemin = (___quotemin * __quotemin) / 10**18;\n                __quoteavg = (___quoteavg * __quoteavg) / 10**18;\n                __quotemax = (___quotemax * __quotemax) / 10**18;\n            }\n            if (_quotemin == 0 || _quotemin > __quotemin)\n                _quotemin = __quotemin;\n            if (_quotemax == 0 || _quotemax < __quotemax)\n                _quotemax = __quotemax;\n            if (_quoteavgcount == 0) _quoteavg = __quoteavg;\n            else _quoteavg += __quoteavg;\n            _quoteavgcount++;\n        }\n\n        _quoteavg /= _quoteavgcount;\n        return (_quotemin, _quoteavg, _quotemax);\n    }\n\n    function __complexSearch(\n        address current_,\n        address dest_,\n        uint256 callstack_,\n        QuoteRef[] memory pathused_\n    )\n        private\n        view\n        returns (\n            QuoteRef[][] memory complex_ // TODO , uint maxquote, uint minquote)\n        )\n    {\n        address[] memory __quotes = _quotetoquotes[current_];\n        complex_ = new QuoteRef[][](0);\n        for (uint256 i = 0; i < __quotes.length; i++) {\n            uint256 j;\n            // we check if the conv isnt already used in path / left to right but also right to left\n            for (j = 0; j < pathused_.length; j++)\n                if (\n                    (pathused_[j]._left == current_ &&\n                        pathused_[j]._right == __quotes[i]) ||\n                    (pathused_[j]._right == current_ &&\n                        pathused_[j]._left == __quotes[i])\n                ) break;\n            // we jump to next if used\n            if (j < pathused_.length) continue;\n\n            // did we found the resolution\n            if (__quotes[i] == dest_) {\n                QuoteInfo storage _quote = _quotes[\n                    keccak256(abi.encodePacked(current_, dest_))\n                ];\n                if (\n                    (_quote._source != QuoteSource.ComplexStatic) &&\n                    (_quote._source != QuoteSource.ComplexDynamic)\n                ) {\n                    QuoteRef[] memory newresolution_ = new QuoteRef[](\n                        pathused_.length + 1\n                    );\n                    // returns the path + this node\n                    for (j = 0; j < pathused_.length; j++)\n                        newresolution_[j] = pathused_[j];\n                    newresolution_[j]._left = current_;\n                    newresolution_[j]._right = dest_;\n\n                    QuoteRef[][] memory newcomplex_ = new QuoteRef[][](\n                        complex_.length + 1\n                    );\n                    for (j = 0; j < complex_.length; j++)\n                        newcomplex_[j] = complex_[j];\n                    newcomplex_[complex_.length] = newresolution_;\n\n                    complex_ = newcomplex_;\n                }\n            }\n            if (callstack_ == 0)\n                // we stop because if we did the max recursive, we break to check the opposite conversion if possible\n                break;\n            // we call recursive add our node to path\n            QuoteRef[] memory _newpathused = new QuoteRef[](\n                pathused_.length + 1\n            );\n            for (j = 0; j < pathused_.length; j++)\n                _newpathused[j] = pathused_[j];\n            _newpathused[j]._left = current_;\n            _newpathused[j]._right = __quotes[i];\n            QuoteRef[][] memory childcomplex_ = __complexSearch(\n                __quotes[i],\n                dest_,\n                callstack_ - 1,\n                _newpathused\n            );\n            if (childcomplex_.length > 0) {\n                QuoteRef[][] memory newcomplex_ = new QuoteRef[][](\n                    childcomplex_.length + complex_.length\n                );\n                for (j = 0; j < complex_.length; j++)\n                    newcomplex_[j] = complex_[j];\n                for (j = 0; j < childcomplex_.length; j++)\n                    newcomplex_[complex_.length + j] = childcomplex_[j];\n\n                complex_ = newcomplex_;\n            }\n        }\n\n        return complex_;\n    }\n\n    function complexSearch(address left_, address right_)\n        public\n        view\n        returns (QuoteRef[][] memory complex_)\n    {\n        return __complexSearch(left_, right_, MAXSTACKCALL, new QuoteRef[](0));\n    }\n\n    /*\n    function __complexRead(QuoteInfo memory quote_)\n        private\n        returns (uint256,uint256,uint256)\n    {\n        if (quote_._timestamp==block.number)\n            return (quote_._quotemin,quote_._quoteavg,quote_._quotemax);\n        (uint256 _quotemin,uint256 _quoteavg,uint256 _quotemax) = __complexReadOnly(quote_);\n        if (_quoteavg==0)\n        {\n            require(quote_._source == QuoteSource.ComplexDynamic,\"Quote Complex Static unresolved\");\n            //_quoteval = __complexSearchAndRead(quote_,_complexs[quote_._left][quote_._right]);\n        }\n        if (_quoteavg==0)\n        {\n            if (quote_._source == QuoteSource.ComplexDynamic)\n                clear(quote_._ref._left,quote_._ref._right);\n            return (0,0,0);\n        }\n        quote_._quotemin = _quotemin;\n        quote_._quoteavg = _quoteavg;\n        quote_._quotemax = _quotemax;\n        __set(quote_);\n        return (_quotemin,_quoteavg,_quotemax);\n    }*/\n\n    /////////////////////////////////////////////////////////////////////////////////////////\n    //      Quote\n    /////////////////////////////////////////////////////////////////////////////////////////\n    function readOnly(bytes32 left_, bytes32 right_)\n        public\n        view\n        returns (\n            uint256,\n            uint256,\n            uint256\n        )\n    {\n    }\n\n    function readOnly(address left_, address right_)\n        public\n        view\n        returns (\n            uint256,\n            uint256,\n            uint256\n        )\n    {\n        bytes32 _key = keccak256(abi.encodePacked(left_, right_));\n        uint256 _quotemin = 0;\n        uint256 _quoteavg = 0;\n        uint256 _quotemax = 0;\n        QuoteInfo memory _quote = _quotes[_key];\n        if (_quote._source == QuoteSource.ChainLink)\n            (_quotemin, _quoteavg, _quotemax) = __chainlinkReadOnly(_quote);\n        else if (_quote._source == QuoteSource.Static)\n            (_quotemin, _quoteavg, _quotemax) = __staticRead(_quote);\n        else if (_quote._source == QuoteSource.Internal)\n            (_quotemin, _quoteavg, _quotemax) = __internalRead(_quote);\n        //else if (_quote._source == QuoteSource.ComplexStatic ||_quote._source == QuoteSource.ComplexDynamic)\n        //    return __complexReadOnly(_quote);\n        if (_quoteavg != 0) {\n            return (_quotemin, _quoteavg, _quotemax);\n        }\n\n        _key = keccak256(abi.encodePacked(right_, left_));\n        _quote = _quotes[_key];\n        _quotemin = 0;\n        _quoteavg = 0;\n        _quotemax = 0;\n        if (_quote._source == QuoteSource.ChainLink)\n            (_quotemin, _quoteavg, _quotemax) = __chainlinkReadOnly(_quote);\n        else if (_quote._source == QuoteSource.Static)\n            (_quotemin, _quoteavg, _quotemax) = __staticRead(_quote);\n        else if (_quote._source == QuoteSource.Internal)\n            (_quotemin, _quoteavg, _quotemax) = __internalRead(_quote);\n        //else if (_quote._source == QuoteSource.ComplexStatic ||_quote._source == QuoteSource.ComplexDynamic)\n        //    (_quotemin,_quoteavg,_quotemax) = __complexReadOnly(_quote);\n        if (_quoteavg == 0) return (0, 0, 0);\n        _quotemin = 10**36 / _quotemin;\n        _quoteavg = 10**36 / _quoteavg;\n        _quotemax = 10**36 / _quotemax;\n        return (_quotemin, _quoteavg, _quotemax);\n    }\n\n    function read(bytes32 left_, bytes32 right_)\n        public\n        returns (\n            uint256,\n            uint256,\n            uint256\n        )\n    {\n\n    }\n    function read(address left_, address right_)\n        public\n        returns (\n            uint256,\n            uint256,\n            uint256\n        )\n    {\n        bytes32 _key = keccak256(abi.encodePacked(left_, right_));\n        QuoteInfo storage _quote = _quotes[_key];\n        if (_quote._timestamp == bytes4(bytes32(block.number))) {\n            emit Resolved(left_, right_);\n            return (\n                UInt64ToUInt256(_quote._quotemin),\n                UInt64ToUInt256(_quote._quoteavg),\n                UInt64ToUInt256(_quote._quotemax)\n            );\n        }\n        uint256 _quotemin = 0;\n        uint256 _quoteavg = 0;\n        uint256 _quotemax = 0;\n        if (_quote._source == QuoteSource.ChainLink)\n            (_quotemin, _quoteavg, _quotemax) = __chainlinkRead(_quote);\n        else if (_quote._source == QuoteSource.Static)\n            (_quotemin, _quoteavg, _quotemax) = __staticRead(_quote);\n        else if (_quote._source == QuoteSource.Internal)\n            (_quotemin, _quoteavg, _quotemax) = __internalRead(_quote);\n        //else if (_quote._source == QuoteSource.ComplexStatic ||_quote._source == QuoteSource.ComplexDynamic)\n        //    (_quotemin,_quoteavg,_quotemax) =  __complexRead(_quote);\n        if (_quoteavg != 0) {\n            emit Resolved(left_, right_);\n            return (_quotemin, _quoteavg, _quotemax);\n        }\n        _key = keccak256(abi.encodePacked(right_, left_));\n        _quote = _quotes[_key];\n        _quotemin = 0;\n        _quoteavg = 0;\n        _quotemax = 0;\n        if (_quote._source == QuoteSource.ChainLink)\n            (_quotemin, _quoteavg, _quotemax) = __chainlinkRead(_quote);\n        else if (_quote._source == QuoteSource.Static)\n            (_quotemin, _quoteavg, _quotemax) = __staticRead(_quote);\n        else if (_quote._source == QuoteSource.Internal)\n            (_quotemin, _quoteavg, _quotemax) = __internalRead(_quote);\n        //else if (_quote._source == QuoteSource.ComplexStatic ||_quote._source == QuoteSource.ComplexDynamic)\n        //    (_quotemin,_quoteavg,_quotemax) = __complexRead(_quote);\n        if (_quoteavg == 0) {\n            emit Unresolved(left_, right_);\n            return (0, 0, 0);\n        }\n        _quotemin = 10**36 / _quotemin;\n        _quoteavg = 10**36 / _quoteavg;\n        _quotemax = 10**36 / _quotemax;\n        emit Resolved(left_, right_);\n        return (_quotemin, _quoteavg, _quotemax);\n    }\n\n    function convert(uint256 val_, uint256 quote_)\n        public\n        pure\n        returns (uint256)\n    {\n        return (val_ * quote_) / 10**18;\n    }\n}\n","sourcePath":"contracts/Quote/Quotator.sol","deployment":{"address":"0x32ea92e7eA175397CF303fAF00C1CEc75Aa55641","chainid":"9997","blockHeight":1142}}