{"bytecode":"60c06040526007805460ff191690553480156200001b57600080fd5b506040516200439c3803806200439c8339810160408190526200003e91620000aa565b8015156080526200004f336200005a565b504360a052620000d5565b600080546001600160a01b038381166001600160a01b0319831681178455604051919092169283917f8be0079c531659141344cd1fd0a4f28419497f9722a3daafe3b4186f6b6457e09190a35050565b600060208284031215620000bd57600080fd5b81518015158114620000ce57600080fd5b9392505050565b60805160a0516142a1620000fb60003960006108270152600061089401526142a16000f3fe608060405234801561001057600080fd5b50600436106103db5760003560e01c806375f890ab1161020a578063ad0fc0cc11610125578063c5537eb7116100b8578063dbf5f2fd11610087578063dbf5f2fd14610beb578063e50d1b3e14610bfe578063e855a31314610c11578063f2fde38b14610c24578063f5dab71114610c37576103db565b8063c5537eb714610b9f578063c9c2a94014610bb2578063d47a7edd14610bc5578063d4945d0e14610bd8576103db565b8063b72a4a71116100f4578063b72a4a7114610b53578063bb7d88a914610b66578063c33470d314610b79578063c452e6b614610b8c576103db565b8063ad0fc0cc14610aea578063ad10a13514610afd578063af91558514610b10578063b305438314610b40576103db565b80639870d7fe1161019d578063a9bf98581161016c578063a9bf985814610a9e578063a9d4632614610ab1578063ababadb514610ac4578063ac8a584a14610ad7576103db565b80639870d7fe14610a525780639e9bb9c114610a65578063a663d4f514610a78578063a86eeb9114610a8b576103db565b80638d49d89b116101d95780638d49d89b146109f25780638da5cb5b14610a055780638eaa6ac014610a1657806395b5d58414610a3f576103db565b806375f890ab146109ae57806381b2490b146109c157806383350075146109d457806389765f59146109df576103db565b806338a699a4116102fa5780635b62cb701161028d57806367c51dfc1161025c57806367c51dfc1461096d5780636d70f7ae146109805780636f45768314610993578063715018a6146109a6576103db565b80635b62cb70146109155780635f5c5baa1461092857806361e99ffb14610932578063657c7e0914610945576103db565b8063509ff69b116102c9578063509ff69b146108c9578063552cdf98146108dc5780635768bbb5146108ef578063589e6a9814610902576103db565b806338a699a41461087c5780634329598c1461078b5780634635229b1461088f5780634f79b792146108b6576103db565b8063162790551161037257806324ace6721161034157806324ace6721461080f5780632558a0791461082257806327ee9dc2146108495780632f54bf6e14610869576103db565b806316279055146107ab578063184bc906146107be57806318d54cf3146107e95780631d7a3b72146107fc576103db565b806307d61085116103ae57806307d61085146107445780630ea94b9614610757578063120f6ee31461077857806312cae67b1461078b576103db565b806301ffc9a7146106b05780630221c7de146106d857806303565ea114610703578063036995df14610723575b6103e3610c4a565b60405163825998c160e01b8152600d60048201526000356001600160e01b031916602482015273__Array_________________________________9063825998c190604401602060405180830381865af4158015610445573d6000803e3d6000fd5b505050506040513d601f19601f820116820180604052508101906104699190613967565b5060005b600a548110156106ad57336001600160a01b0316600a828154811061049457610494613984565b6000918252602090912001546001600160a01b031614156104b45761069b565b6000600a82815481106104c9576104c9613984565b600091825260209182902001546040805163af640d0f60e01b815290516001600160a01b039092169263af640d0f926004808401938290030181865afa158015610517573d6000803e3d6000fd5b505050506040513d601f19601f8201168201806040525081019061053b919061399a565b905060016000828152600c602090815260408083206001600160e01b0319843516845290915290205460ff166002811115610578576105786139b3565b1415610584575061069b565b6000600a838154811061059957610599613984565b60009182526020822001546040516001600160a01b03909116916105be9136906139c9565b6000604051808303816000865af19150503d80600081146105fb576040519150601f19603f3d011682016040523d82523d6000602084013e610600565b606091505b50506000838152600c6020908152604080832083356001600160e01b03191684529091528120549192509060ff16600281111561063f5761063f6139b3565b14156106985780610651576001610654565b60025b6000838152600c602090815260408083206001600160e01b031984351684529091529020805460ff19166001836002811115610692576106926139b3565b02179055505b50505b806106a5816139ef565b91505061046d565b50005b6106c36106be366004613a22565b610cd0565b60405190151581526020015b60405180910390f35b6106eb6106e6366004613a52565b610d16565b6040516001600160401b0390911681526020016106cf565b610716610711366004613a7e565b610d43565b6040516106cf9190613a97565b610736610731366004613ac6565b610dd4565b6040519081526020016106cf565b6106c3610752366004613a7e565b610de1565b61076a610765366004613a7e565b610e0a565b6040516106cf929190613ae3565b6106eb610786366004613a7e565b610e65565b61079e610799366004613a7e565b610eb7565b6040516106cf9190613b58565b6106c36107b9366004613ac6565b610f59565b6107d16107cc366004613a7e565b610ff8565b6040516001600160a01b0390911681526020016106cf565b6106c36107f7366004613a52565b611050565b61079e61080a366004613a52565b61106b565b61073661081d366004613c16565b611379565b6107367f000000000000000000000000000000000000000000000000000000000000000081565b61085c610857366004613a7e565b6114db565b6040516106cf9190613c5e565b6106c3610877366004613ac6565b611561565b6106c361088a366004613a7e565b611588565b6106c37f000000000000000000000000000000000000000000000000000000000000000081565b6107366108c4366004613a52565b611593565b6107366108d7366004613a52565b6115c6565b6106c36108ea366004613a52565b61160b565b6107366108fd366004613ca2565b611638565b610736610910366004613c16565b6116c7565b6106c3610923366004613ac6565b6116d2565b6109306116dd565b005b610736610940366004613cd2565b61175c565b610958610953366004613a7e565b6117a2565b604080519283526020830191909152016106cf565b6106c361097b366004613a52565b611824565b6106c361098e366004613ac6565b611838565b6109306109a1366004613a52565b61189a565b610930611d36565b6109306109bc366004613ac6565b611d48565b6106c36109cf366004613a52565b612021565b60075460ff166106c3565b6106c36109ed366004613a52565b612156565b6106eb610a00366004613ac6565b61216a565b6000546001600160a01b03166107d1565b6107d1610a24366004613a7e565b6000908152600960205260409020546001600160a01b031690565b6106c3610a4d366004613ac6565b612177565b610930610a60366004613ac6565b61218a565b61079e610a73366004613a7e565b61221a565b6106c3610a86366004613d09565b612283565b610736610a99366004613a52565b6122ad565b610736610aac366004613a7e565b6122b9565b61079e610abf366004613ac6565b61230b565b6106c3610ad2366004613a52565b612318565b610930610ae5366004613ac6565b61242a565b6106c3610af8366004613a52565b612479565b6106c3610b0b366004613a52565b61259c565b610b23610b1e366004613a7e565b6125da565b604080519283526001600160a01b039091166020830152016106cf565b610736610b4e366004613d51565b61265c565b610736610b61366004613a52565b6126df565b610716610b74366004613a52565b6126eb565b6106c3610b87366004613de1565b6128e3565b6106c3610b9a366004613ac6565b61297a565b6106c3610bad366004613d09565b612987565b610736610bc0366004613a52565b6129a6565b6106c3610bd3366004613a7e565b612a51565b6106c3610be6366004613e0d565b612aa3565b6106c3610bf9366004613ac6565b612ab6565b61076a610c0c366004613a7e565b612ac9565b6106c3610c1f366004613a52565b612ad5565b610930610c32366004613ac6565b612ae9565b610716610c45366004613ac6565b612b62565b6000546001600160a01b0316331480610c675750610c6733610f59565b610cce5760405162461bcd60e51b815260206004820152602d60248201527f416c6c6f77616e63653a2063616c6c6572206d757374206265205265706f736960448201526c1d1bdc9e4810dbdb9d1c9858dd609a1b60648201526084015b60405180910390fd5b565b60006001600160e01b031982166301ffc9a760e01b1480610d0157506305b62cb760e41b6001600160e01b03198316145b80610d105750610d1082612b8a565b92915050565b60006001600160a01b038316610d2e57506001610d10565b610d3883836126eb565b604001519392505050565b60408051606081018252600080825260208201819052918101919091526000805160206141d7833981519152821415610d8157610d106000806126eb565b610d8a82610de1565b610db25750506040805160608101825260111981526000602082018190529181019190915290565b600080610dbe84610e0a565b91509150610dcc82826126eb565b949350505050565b6000610d108260006126df565b60006000805160206141d7833981519152821415610e0157506001919050565b610d1082611588565b6000806000805160206141d7833981519152831415610e2e57506000928392509050565b610e3783611588565b610e535760405162461bcd60e51b8152600401610cc590613e2a565b610e5c83612ac9565b91509150915091565b60006000805160206141d7833981519152821415610e8857610d10600080610d16565b610e9182610de1565b610e9d57506000919050565b600080610ea984610e0a565b91509150610dcc8282610d16565b6000818152600860205260409020805460609190610ed490613e61565b80601f0160208091040260200160405190810160405280929190818152602001828054610f0090613e61565b8015610f4d5780601f10610f2257610100808354040283529160200191610f4d565b820191906000526020600020905b815481529060010190602001808311610f3057829003601f168201915b50505050509050919050565b60006001600160a01b038216301415610f7457506001919050565b60405163f132566360e01b8152600a60048201526001600160a01b038316602482015273__Array_________________________________9063f1325663906044015b602060405180830381865af4158015610fd4573d6000803e3d6000fd5b505050506040513d601f19601f82011682018060405250810190610d109190613967565b60006000805160206141d783398151915282141561101857506000919050565b61102182611588565b61103d5760405162461bcd60e51b8152600401610cc590613e2a565b600061104883612ac9565b509392505050565b600061105a6116dd565b6110648383612bc0565b9392505050565b60606001600160a01b03831661109b576040518060a00160405280607581526020016141f7607591399050610d10565b60006001600073__BytesAndKeccakLib_____________________63d5f0b04d87876040518363ffffffff1660e01b81526004016110da929190613ae3565b602060405180830381865af41580156110f7573d6000803e3d6000fd5b505050506040513d601f19601f8201168201806040525081019061111b919061399a565b8152602001908152602001600020805461113490613e61565b80601f016020809104026020016040519081016040528092919081815260200182805461116090613e61565b80156111ad5780601f10611182576101008083540402835291602001916111ad565b820191906000526020600020905b81548152906001019060200180831161119057829003601f168201915b5050604080516000815260208101808352815190209596506111d59450869350019050613e96565b60405160208183030381529060405280519060200120146111f7579050610d10565b8215611358576001600073__BytesAndKeccakLib_____________________63d5f0b04d8760006040518363ffffffff1660e01b815260040161123b929190613ae3565b602060405180830381865af4158015611258573d6000803e3d6000fd5b505050506040513d601f19601f8201168201806040525081019061127c919061399a565b8152602001908152602001600020805461129590613e61565b80601f01602080910402602001604051908101604052809291908181526020018280546112c190613e61565b801561130e5780601f106112e35761010080835404028352916020019161130e565b820191906000526020600020905b8154815290600101906020018083116112f157829003601f168201915b5050604080516000815260208101808352815190209596506113369450869350019050613e96565b6040516020818303038152906040528051906020012014611358579050610d10565b6040518060a00160405280606c815260200161416b606c9139949350505050565b8051602080830191909120600081815260089092526040909120805461139e90613e61565b151590506113cb57600081815260086020908152604090912083516113c5928501906138c0565b50919050565b6000818152600860205260409020805461146d91906113e990613e61565b80601f016020809104026020016040519081016040528092919081815260200182805461141590613e61565b80156114625780601f1061143757610100808354040283529160200191611462565b820191906000526020600020905b81548152906001019060200180831161144557829003601f168201915b505050505083612e4d565b6114d65760405162461bcd60e51b815260206004820152603460248201527f4b656363616b496e766572746572204279746573206b656363616b2069736e7460448201527320756e697175652021212121212121212121212160601b6064820152608401610cc5565b919050565b60606114e682610eb7565b6040516355b04b0d60e11b815273__BytesAndKeccakLib_____________________9163ab60961a9161151c9190600401613b58565b600060405180830381865af4158015611539573d6000803e3d6000fd5b505050506040513d6000823e601f3d908101601f19168201604052610d109190810190613eb2565b600080546001600160a01b038381169116141561158057506001919050565b506000919050565b6000610d1082612edf565b600061159f83836129a6565b90506115aa81611588565b610d105760405162461bcd60e51b8152600401610cc590613e2a565b60006001600160a01b0383161580156115dd575081155b156115f757506000805160206141d7833981519152610d10565b611601838361189a565b61106483836122ad565b60006001600160a01b03831661162357506000610d10565b61162d83836126eb565b602001519392505050565b6040516318f7a7c360e21b8152600481018390526001600160a01b03821660248201526000906110649073__BytesAndKeccakLib_____________________906363de9f0c906044015b600060405180830381865af415801561169f573d6000803e3d6000fd5b505050506040513d6000823e601f3d908101601f19168201604052610b4e9190810190613eb2565b6000610d1082611379565b6000610d1082612f01565b6000546001600160a01b03163314806116fa57506116fa33611838565b610cce5760405162461bcd60e51b815260206004820152602d60248201527f416c6c6f77616e63653a2063616c6c6572206d757374206265205265706f736960448201526c3a37b93c9027b832b930ba37b960991b6064820152608401610cc5565b604051632291b3f160e21b815260048101839052602481018290526000906110649073__BytesAndKeccakLib_____________________90638a46cfc490604401611682565b6000806117ae836114db565b60405163029695c360e21b815273__BytesAndKeccakLib_____________________91630a5a570c916117e49190600401613c5e565b6040805180830381865af4158015611800573d6000803e3d6000fd5b505050506040513d601f19601f82011682018060405250810190610e5c9190613f37565b600061182e6116dd565b6110648383612f8c565b60006001600160a01b03821630141561185357506001919050565b60405163f132566360e01b8152600b60048201526001600160a01b038316602482015273__Array_________________________________9063f132566390604401610fb7565b60008073__BytesAndKeccakLib_____________________63d5f0b04d8560006040518363ffffffff1660e01b81526004016118d7929190613ae3565b602060405180830381865af41580156118f4573d6000803e3d6000fd5b505050506040513d601f19601f82011682018060405250810190611918919061399a565b600081815260036020526040902080549093509091506201000090046001600160401b0316611aaa57604051634dd11f0f60e11b81526001600160a01b0385166004820152600060248201526001604482015273__Token_________________________________90639ba23e1e90606401606060405180830381865af41580156119a7573d6000803e3d6000fd5b505050506040513d601f19601f820116820180604052508101906119cb9190613f5b565b6000828152600360209081526040918290208351815492850151948401516001600160401b0316620100000269ffffffffffffffff0000199515156101000261ffff1990941660ff90921691909117929092179390931617909155516316061a7160e21b815273__Array_________________________________9063581869c490611a67906002908590600401918252602082015260400190565b602060405180830381865af4158015611a84573d6000803e3d6000fd5b505050506040513d601f19601f82011682018060405250810190611aa89190613967565b505b81546201000090046001600160401b0316611ac757611ac7613fd3565b815462010000900461010016611add5750505050565b604080516060810182528354600081900b8252610100810460ff16151560208301526201000090046001600160401b031681830152905163d5f0b04d60e01b815273__BytesAndKeccakLib_____________________9063d5f0b04d90611b4a9088908890600401613ae3565b602060405180830381865af4158015611b67573d6000803e3d6000fd5b505050506040513d601f19601f82011682018060405250810190611b8b919061399a565b600081815260036020526040902080549094509092506201000090046001600160401b0316611d125760405163543af62760e01b815273__Token_________________________________9063543af62790611bf290889088908690600190600401613fe9565b606060405180830381865af4158015611c0f573d6000803e3d6000fd5b505050506040513d601f19601f82011682018060405250810190611c339190613f5b565b6000838152600360209081526040918290208351815492850151948401516001600160401b0316620100000269ffffffffffffffff0000199515156101000261ffff1990941660ff90921691909117929092179390931617909155516316061a7160e21b815273__Array_________________________________9063581869c490611ccf906002908690600401918252602082015260400190565b602060405180830381865af4158015611cec573d6000803e3d6000fd5b505050506040513d601f19601f82011682018060405250810190611d109190613967565b505b82546201000090046001600160401b0316611d2f57611d2f613fd3565b5050505050565b611d3e613269565b610cce60006132c3565b611d506116dd565b6040516301ffc9a760e01b81526315d3789560e31b60048201526001600160a01b038216906301ffc9a790602401602060405180830381865afa158015611d9b573d6000803e3d6000fd5b505050506040513d601f19601f82011682018060405250810190611dbf9190613967565b611e175760405162461bcd60e51b8152602060048201526024808201527f636f6e7472616374206d75737420626520495265706f7369746f7279436f6e746044820152631c9858dd60e21b6064820152608401610cc5565b60005b600d54811015611f0057600c6000836001600160a01b031663af640d0f6040518163ffffffff1660e01b8152600401602060405180830381865afa158015611e66573d6000803e3d6000fd5b505050506040513d601f19601f82011682018060405250810190611e8a919061399a565b81526020019081526020016000206000600d8381548110611ead57611ead613984565b6000918252602080832060088304015460079092166004026101000a90910460e01b6001600160e01b03191683528201929092526040019020805460ff1916905580611ef8816139ef565b915050611e1a565b506040516316f4b92960e21b8152600a60048201526001600160a01b038216602482015273__Array_________________________________90635bd2e4a490604401602060405180830381865af4158015611f60573d6000803e3d6000fd5b505050506040513d601f19601f82011682018060405250810190611f849190613967565b508060096000836001600160a01b031663af640d0f6040518163ffffffff1660e01b8152600401602060405180830381865afa158015611fc8573d6000803e3d6000fd5b505050506040513d601f19601f82011682018060405250810190611fec919061399a565b815260200190815260200160002060006101000a8154816001600160a01b0302191690836001600160a01b0316021790555050565b6004546000905b801561214c576001600160a01b0384166004612045600184614040565b8154811061205557612055613984565b60009182526020909120600290910201546001600160a01b03161480156120aa57506004612084600183614040565b8154811061209457612094613984565b9060005260206000209060020201600101546000145b8061212b57506001600160a01b03841660046120c7600184614040565b815481106120d7576120d7613984565b60009182526020909120600290910201546001600160a01b031614801561212b5750826004612107600184614040565b8154811061211757612117613984565b906000526020600020906002020160010154145b1561213a576001915050610d10565b8061214481614057565b915050612028565b5060009392505050565b60006121606116dd565b6110648383613313565b6000610d10826000610d16565b60006121816116dd565b610d108261346f565b6121926116dd565b6040516316f4b92960e21b8152600b60048201526001600160a01b038216602482015273__Array_________________________________90635bd2e4a4906044015b602060405180830381865af41580156121f2573d6000803e3d6000fd5b505050506040513d601f19601f820116820180604052508101906122169190613967565b5050565b60606000805160206141d783398151915282141561223d57610d1060008061106b565b61224682610de1565b612269576040518060a00160405280606c815260200161416b606c913992915050565b60008061227584610e0a565b91509150610dcc828261106b565b6000816001600160401b031660ff61229a85610e65565b166001600160401b031614905092915050565b6000611064838361352d565b60006000805160206141d78339815191528214156122dc57610d106000806126df565b6122e582610de1565b6122f157506001919050565b6000806122fd84610e0a565b91509150610dcc82826126df565b6060610d1082600061106b565b600654600090815b8181101561241f57846001600160a01b03166006828154811061234557612345613984565b60009182526020909120600290910201546001600160a01b031614801561239057506006818154811061237a5761237a613984565b9060005260206000209060020201600101546000145b806123fd5750846001600160a01b0316600682815481106123b3576123b3613984565b60009182526020909120600290910201546001600160a01b03161480156123fd575083600682815481106123e9576123e9613984565b906000526020600020906002020160010154145b1561240d57600192505050610d10565b80612417816139ef565b915050612320565b506000949350505050565b6124326116dd565b60405163edefe12d60e01b8152600b60048201526001600160a01b038216602482015273__Array_________________________________9063edefe12d906044016121d5565b6000612486836000612021565b1561249357506001610d10565b81156124b0576124a38383612021565b156124b057506001610d10565b6000836001600160a01b031663373a7fb46040518163ffffffff1660e01b8152600401602060405180830381865afa1580156124f0573d6000803e3d6000fd5b505050506040513d601f19601f82011682018060405250810190612514919061406e565b905061251f816116d2565b61252d576000915050610d10565b604051632b43f03360e21b81526001600160a01b0382169063ad0fc0cc9061255b9087908790600401613ae3565b602060405180830381865afa158015612578573d6000803e3d6000fd5b505050506040513d601f19601f82011682018060405250810190610dcc9190613967565b60006125a88383612318565b156125b557506000610d10565b6125bf8383612021565b156125cc57506001610d10565b60075460ff16159392505050565b6000806125e6836114db565b604051639ac1b34560e01b815273__BytesAndKeccakLib_____________________91639ac1b3459161261c9190600401613c5e565b6040805180830381865af4158015612638573d6000803e3d6000fd5b505050506040513d601f19601f82011682018060405250810190610e5c919061408b565b604051632431a7cf60e01b8152600090610d109073__BytesAndKeccakLib_____________________90632431a7cf9061269a908690600401613c5e565b600060405180830381865af41580156126b7573d6000803e3d6000fd5b505050506040513d6000823e601f3d908101601f1916820160405261081d91908101906140b0565b6000611064838361356b565b60408051606081018252600080825260208201819052918101919091526001600160a01b03831661273b575060408051606081018252601119815260006020820152600191810191909152610d10565b6003600073__BytesAndKeccakLib_____________________63d5f0b04d8660006040518363ffffffff1660e01b8152600401612779929190613ae3565b602060405180830381865af4158015612796573d6000803e3d6000fd5b505050506040513d601f19601f820116820180604052508101906127ba919061399a565b815260208082019290925260409081016000908120825160608101845290549182900b815261010080830460ff16151594820194909452620100009091046001600160401b0381169282019290925292501661281557610d10565b6003600073__BytesAndKeccakLib_____________________63d5f0b04d86866040518363ffffffff1660e01b8152600401612852929190613ae3565b602060405180830381865af415801561286f573d6000803e3d6000fd5b505050506040513d601f19601f82011682018060405250810190612893919061399a565b815260208082019290925260409081016000908120825160608101845290549182900b8152610100820460ff161515938101939093526201000090046001600160401b0316908201529392505050565b60006128f183610200612987565b6128fd57506000610d10565b61290683610ff8565b6040516301ffc9a760e01b81526001600160e01b0319841660048201526001600160a01b0391909116906301ffc9a790602401602060405180830381865afa158015612956573d6000803e3d6000fd5b505050506040513d601f19601f820116820180604052508101906110649190613967565b6000610d1082600061160b565b60008161299384610e65565b166001600160401b031615159392505050565b60006001600160a01b0383161580156129bd575081155b156129d757506000805160206141d7833981519152610d10565b60405163d5f0b04d60e01b815273__BytesAndKeccakLib_____________________9063d5f0b04d90612a109086908690600401613ae3565b602060405180830381865af4158015612a2d573d6000803e3d6000fd5b505050506040513d601f19601f82011682018060405250810190611064919061399a565b60006000805160206141d7833981519152821415612a7457610d1060008061160b565b612a7d82610de1565b612a8957506000919050565b600080612a9584610e0a565b91509150610dcc828261160b565b6000612aad6116dd565b610d10826135c3565b6000612ac06116dd565b610d10826135f5565b600080610e5c83613716565b6000612adf6116dd565b6110648383613798565b612af1613269565b6001600160a01b038116612b565760405162461bcd60e51b815260206004820152602660248201527f4f776e61626c653a206e6577206f776e657220697320746865207a65726f206160448201526564647265737360d01b6064820152608401610cc5565b612b5f816132c3565b50565b6040805160608101825260008082526020820181905291810191909152610d108260006126eb565b60006001600160e01b031982166301ffc9a760e01b1480610d1057506001600160e01b03198216632b43f03360e21b1492915050565b600654600090815b81811015612c5a57846001600160a01b031660068281548110612bed57612bed613984565b60009182526020909120600290910201546001600160a01b0316148015612c38575060068181548110612c2257612c22613984565b9060005260206000209060020201600101546000145b15612c4857600092505050610d10565b80612c52816139ef565b915050612bc8565b5082612d1a5760001981015b81811015612d1457846001600160a01b031660068281548110612c8b57612c8b613984565b60009182526020909120600290910201546001600160a01b03161415612d0b57612d0960068281548110612cc157612cc1613984565b6000918252602090912060029091020154600680546001600160a01b039092169184908110612cf257612cf2613984565b906000526020600020906002020160010154613798565b505b60001901612c66565b50612db0565b60005b81811015612dae57846001600160a01b031660068281548110612d4257612d42613984565b60009182526020909120600290910201546001600160a01b0316148015612d8c57508360068281548110612d7857612d78613984565b906000526020600020906002020160010154145b15612d9c57600092505050610d10565b80612da6816139ef565b915050612d1d565b505b604080518082019091526001600160a01b038581168252602082018581526006805460018101825560009190915292517ff652222313e28459528d920b65115c16c04f3efc82aaedc97be59f3f377c0d3f600290940293840180546001600160a01b0319169190931617909155517ff652222313e28459528d920b65115c16c04f3efc82aaedc97be59f3f377c0d40909101555060019392505050565b60008151835114612e6057506000610d10565b60005b8351811015612ed557828181518110612e7e57612e7e613984565b602001015160f81c60f81b6001600160f81b031916848281518110612ea557612ea5613984565b01602001516001600160f81b03191614612ec3576000915050610d10565b80612ecd816139ef565b915050612e63565b5060019392505050565b60008181526008602052604081208054612ef890613e61565b15159392505050565b60006001600160a01b038216301415612f1c57506001919050565b6005545b8015612f83576001600160a01b0383166005612f3d600184614040565b81548110612f4d57612f4d613984565b6000918252602090912001546001600160a01b03161415612f715750600192915050565b80612f7b81614057565b915050612f20565b50600092915050565b6004546000905b8015613036576001600160a01b0384166004612fb0600184614040565b81548110612fc057612fc0613984565b60009182526020909120600290910201546001600160a01b031614801561301557506004612fef600183614040565b81548110612fff57612fff613984565b9060005260206000209060020201600101546000145b15613024576000915050610d10565b8061302e81614057565b915050612f93565b5081613125575b6004545b8015613114576001600160a01b038416600461305e600184614040565b8154811061306e5761306e613984565b60009182526020909120600290910201546001600160a01b03161415613102576130fc600461309e600184614040565b815481106130ae576130ae613984565b60009182526020909120600290910201546001600160a01b031660046130d5600185614040565b815481106130e5576130e5613984565b906000526020600020906002020160010154613313565b50613114565b8061310c81614057565b915050613041565b8061311f57506131cd565b5061303d565b6004545b80156131cb576001600160a01b0384166004613146600184614040565b8154811061315657613156613984565b60009182526020909120600290910201546001600160a01b03161480156131aa5750826004613186600184614040565b8154811061319657613196613984565b906000526020600020906002020160010154145b156131b9576000915050610d10565b806131c381614057565b915050613129565b505b604080518082019091526001600160a01b038481168252602082018481526004805460018101825560009190915292517f8a35acfbc15ff81a39ae7d344fd709f28e8600b4aa8c65c6b64bfe7fe36bd19b600290940293840180546001600160a01b0319169190931617909155517f8a35acfbc15ff81a39ae7d344fd709f28e8600b4aa8c65c6b64bfe7fe36bd19c9091015550600192915050565b6000546001600160a01b03163314610cce5760405162461bcd60e51b815260206004820152601f60248201527f416c6c6f77616e63653a2063616c6c6572206d757374206265204f776e6572006044820152606401610cc5565b600080546001600160a01b038381166001600160a01b0319831681178455604051919092169283917f8be0079c531659141344cd1fd0a4f28419497f9722a3daafe3b4186f6b6457e09190a35050565b600454600090815b8181101561241f57846001600160a01b03166004828154811061334057613340613984565b60009182526020909120600290910201546001600160a01b031614801561338a5750836004828154811061337657613376613984565b906000526020600020906002020160010154145b1561345d5761339a600183614040565b8110156134185760046133ae600184614040565b815481106133be576133be613984565b9060005260206000209060020201600482815481106133df576133df613984565b60009182526020909120825460029092020180546001600160a01b0319166001600160a01b039092169190911781556001918201549101555b600480548061342957613429614126565b60008281526020812060026000199093019283020180546001600160a01b0319168155600101559055600192505050610d10565b80613467816139ef565b91505061331b565b6005546000905b80156134d9576001600160a01b0383166005613493600184614040565b815481106134a3576134a3613984565b6000918252602090912001546001600160a01b031614156134c75750600092915050565b806134d181614057565b915050613476565b600580546001810182556000919091527f036b6384b5eca791c62761152d0c79bb0604c104a5fb6f4eb0703f3154bb3db00180546001600160a01b0319166001600160a01b03851617905550600192915050565b600061106473__BytesAndKeccakLib_____________________630de874ed85856040518363ffffffff1660e01b8152600401611682929190613ae3565b60006001600160a01b03831661358357506001610d10565b73__Token_________________________________633646b5486135a785856126eb565b6040518263ffffffff1660e01b8152600401612a109190613a97565b60075460009060ff16151582151514156135df57506000919050565b6007805460ff1916831515179055506001919050565b600554600090815b8181101561214c57836001600160a01b03166005828154811061362257613622613984565b6000918252602090912001546001600160a01b0316141561370457613648600183614040565b8110156136c757600561365c600184614040565b8154811061366c5761366c613984565b600091825260209091200154600580546001600160a01b03909216918390811061369857613698613984565b9060005260206000200160006101000a8154816001600160a01b0302191690836001600160a01b031602179055505b60058054806136d8576136d8614126565b600082815260209020810160001990810180546001600160a01b03191690550190555060019392505050565b8061370e816139ef565b9150506135fd565b600080613722836114db565b6040516314130a7960e31b815273__BytesAndKeccakLib_____________________9163a09853c8916137589190600401613c5e565b6040805180830381865af4158015613774573d6000803e3d6000fd5b505050506040513d601f19601f82011682018060405250810190610e5c919061413c565b600654600090815b8181101561241f57846001600160a01b0316600682815481106137c5576137c5613984565b60009182526020909120600290910201546001600160a01b031614801561380f575083600682815481106137fb576137fb613984565b906000526020600020906002020160010154145b156138ae5761381f600183614040565b81101561389d576006613833600184614040565b8154811061384357613843613984565b90600052602060002090600202016006828154811061386457613864613984565b60009182526020909120825460029092020180546001600160a01b0319166001600160a01b039092169190911781556001918201549101555b600680548061342957613429614126565b806138b8816139ef565b9150506137a0565b8280546138cc90613e61565b90600052602060002090601f0160209004810192826138ee5760008555613934565b82601f1061390757805160ff1916838001178555613934565b82800160010185558215613934579182015b82811115613934578251825591602001919060010190613919565b50613940929150613944565b5090565b5b808211156139405760008155600101613945565b8015158114612b5f57600080fd5b60006020828403121561397957600080fd5b815161106481613959565b634e487b7160e01b600052603260045260246000fd5b6000602082840312156139ac57600080fd5b5051919050565b634e487b7160e01b600052602160045260246000fd5b8183823760009101908152919050565b634e487b7160e01b600052601160045260246000fd5b6000600019821415613a0357613a036139d9565b5060010190565b80356001600160e01b0319811681146114d657600080fd5b600060208284031215613a3457600080fd5b61106482613a0a565b6001600160a01b0381168114612b5f57600080fd5b60008060408385031215613a6557600080fd5b8235613a7081613a3d565b946020939093013593505050565b600060208284031215613a9057600080fd5b5035919050565b815160000b81526020808301511515908201526040808301516001600160401b03169082015260608101610d10565b600060208284031215613ad857600080fd5b813561106481613a3d565b6001600160a01b03929092168252602082015260400190565b60005b83811015613b17578181015183820152602001613aff565b83811115613b26576000848401525b50505050565b60008151808452613b44816020860160208601613afc565b601f01601f19169290920160200192915050565b6020815260006110646020830184613b2c565b634e487b7160e01b600052604160045260246000fd5b604051601f8201601f191681016001600160401b0381118282101715613ba957613ba9613b6b565b604052919050565b60006001600160401b03821115613bca57613bca613b6b565b50601f01601f191660200190565b6000613beb613be684613bb1565b613b81565b9050828152838383011115613bff57600080fd5b828260208301376000602084830101529392505050565b600060208284031215613c2857600080fd5b81356001600160401b03811115613c3e57600080fd5b8201601f81018413613c4f57600080fd5b610dcc84823560208401613bd8565b6020808252825182820181905260009190848201906040850190845b81811015613c9657835183529284019291840191600101613c7a565b50909695505050505050565b60008060408385031215613cb557600080fd5b823591506020830135613cc781613a3d565b809150509250929050565b60008060408385031215613ce557600080fd5b50508035926020909101359150565b6001600160401b0381168114612b5f57600080fd5b60008060408385031215613d1c57600080fd5b823591506020830135613cc781613cf4565b60006001600160401b03821115613d4757613d47613b6b565b5060051b60200190565b60006020808385031215613d6457600080fd5b82356001600160401b03811115613d7a57600080fd5b8301601f81018513613d8b57600080fd5b8035613d99613be682613d2e565b81815260059190911b82018301908381019087831115613db857600080fd5b928401925b82841015613dd657833582529284019290840190613dbd565b979650505050505050565b60008060408385031215613df457600080fd5b82359150613e0460208401613a0a565b90509250929050565b600060208284031215613e1f57600080fd5b813561106481613959565b60208082526017908201527f43757272656e6379206e6f742072656769737465726564000000000000000000604082015260600190565b600181811c90821680613e7557607f821691505b602082108114156113c557634e487b7160e01b600052602260045260246000fd5b60008251613ea8818460208701613afc565b9190910192915050565b60006020808385031215613ec557600080fd5b82516001600160401b03811115613edb57600080fd5b8301601f81018513613eec57600080fd5b8051613efa613be682613d2e565b81815260059190911b82018301908381019087831115613f1957600080fd5b928401925b82841015613dd657835182529284019290840190613f1e565b60008060408385031215613f4a57600080fd5b505080516020909101519092909150565b600060608284031215613f6d57600080fd5b604051606081018181106001600160401b0382111715613f8f57613f8f613b6b565b6040528251600081900b8114613fa457600080fd5b81526020830151613fb481613959565b60208201526040830151613fc781613cf4565b60408201529392505050565b634e487b7160e01b600052600160045260246000fd5b6001600160a01b03851681526020810184905260c0810161402f6040830185805160000b82526020808201511515908301526040908101516001600160401b0316910152565b82151560a083015295945050505050565b600082821015614052576140526139d9565b500390565b600081614066576140666139d9565b506000190190565b60006020828403121561408057600080fd5b815161106481613a3d565b6000806040838503121561409e57600080fd5b825191506020830151613cc781613a3d565b6000602082840312156140c257600080fd5b81516001600160401b038111156140d857600080fd5b8201601f810184136140e957600080fd5b80516140f7613be682613bb1565b81815285602083850101111561410c57600080fd5b61411d826020830160208601613afc565b95945050505050565b634e487b7160e01b600052603160045260246000fd5b6000806040838503121561414f57600080fd5b825161415a81613a3d565b602093909301519294929350505056fe68747470733a2f2f6769746875622e636f6d2f5061747269636b416c706861432f646566692d7374616b652d7969656c642d62726f776e69652d66726565636f64652f626c6f622f6d61696e2f66726f6e745f656e642f7372632f646170702e706e673f7261773d74727565ad3228b676f7d3cd4284a5443f17f1962b36e491b30a40b2405849e597ba5fb568747470733a2f2f7261772e67697468756275736572636f6e74656e742e636f6d2f5061747269636b416c706861432f646566692d7374616b652d7969656c642d62726f776e69652d66726565636f64652f6d61696e2f66726f6e745f656e642f7372632f6574682e706e673f7261773d74727565a2646970667358221220a40e95dcdb56b35918808928103515fac0a5662e7c46d4d7c4ec3dc813de760d64736f6c634300080b0033","bytecodeSha1":"e027c26ae7bf1b842c9a900ae73098300abca5f8","type":"contract","abi":[{"inputs":[{"internalType":"bool","name":"MODETEST_","type":"bool"}],"stateMutability":"nonpayable","type":"constructor","name":"constructor"},{"anonymous":false,"inputs":[{"indexed":true,"internalType":"address","name":"previousOwner","type":"address"},{"indexed":true,"internalType":"address","name":"newOwner","type":"address"}],"name":"OwnershipTransferred","type":"event"},{"stateMutability":"nonpayable","type":"fallback"},{"inputs":[{"internalType":"address","name":"addr_","type":"address"},{"internalType":"uint256","name":"v_","type":"uint256"}],"name":"AddressUInt256","outputs":[{"internalType":"bytes32","name":"k_","type":"bytes32"}],"stateMutability":"nonpayable","type":"function"},{"inputs":[{"internalType":"bytes","name":"in_","type":"bytes"}],"name":"Bytes","outputs":[{"internalType":"bytes32","name":"k_","type":"bytes32"}],"stateMutability":"nonpayable","type":"function"},{"inputs":[{"internalType":"bytes32","name":"v_","type":"bytes32"},{"internalType":"address","name":"addr_","type":"address"}],"name":"Bytes32Address","outputs":[{"internalType":"bytes32","name":"k_","type":"bytes32"}],"stateMutability":"nonpayable","type":"function"},{"inputs":[{"internalType":"bytes32[]","name":"in_","type":"bytes32[]"}],"name":"Bytes32Array","outputs":[{"internalType":"bytes32","name":"k_","type":"bytes32"}],"stateMutability":"nonpayable","type":"function"},{"inputs":[{"internalType":"bytes32","name":"v1_","type":"bytes32"},{"internalType":"bytes32","name":"v2_","type":"bytes32"}],"name":"Bytes32Bytes32","outputs":[{"internalType":"bytes32","name":"k_","type":"bytes32"}],"stateMutability":"nonpayable","type":"function"},{"inputs":[],"name":"MODETEST","outputs":[{"internalType":"bool","name":"","type":"bool"}],"stateMutability":"view","type":"function"},{"inputs":[{"internalType":"string","name":"in_","type":"string"}],"name":"String","outputs":[{"internalType":"bytes32","name":"k_","type":"bytes32"}],"stateMutability":"nonpayable","type":"function"},{"inputs":[],"name":"_originalblock","outputs":[{"internalType":"uint256","name":"","type":"uint256"}],"stateMutability":"view","type":"function"},{"inputs":[{"internalType":"address","name":"bot_","type":"address"}],"name":"addOperator","outputs":[],"stateMutability":"nonpayable","type":"function"},{"inputs":[{"internalType":"address","name":"token","type":"address"},{"internalType":"uint256","name":"tokenId","type":"uint256"}],"name":"addTokenCertified","outputs":[{"internalType":"bool","name":"","type":"bool"}],"stateMutability":"nonpayable","type":"function"},{"inputs":[{"internalType":"address","name":"certifier_","type":"address"}],"name":"addTrustedCertifier","outputs":[{"internalType":"bool","name":"","type":"bool"}],"stateMutability":"nonpayable","type":"function"},{"inputs":[{"internalType":"contract IContractCertified","name":"contractAddr_","type":"address"},{"internalType":"uint256","name":"contractId_","type":"uint256"}],"name":"certify","outputs":[{"internalType":"bool","name":"","type":"bool"}],"stateMutability":"view","type":"function"},{"inputs":[],"name":"checkOperators","outputs":[],"stateMutability":"view","type":"function"},{"inputs":[{"internalType":"address","name":"addr_","type":"address"},{"internalType":"uint256","name":"id_","type":"uint256"}],"name":"currency","outputs":[{"internalType":"bytes32","name":"k_","type":"bytes32"}],"stateMutability":"nonpayable","type":"function"},{"inputs":[{"internalType":"bytes32","name":"k_","type":"bytes32"}],"name":"exists","outputs":[{"internalType":"bool","name":"","type":"bool"}],"stateMutability":"view","type":"function"},{"inputs":[{"internalType":"bytes32","name":"tokenhash_","type":"bytes32"}],"name":"existsCurrency","outputs":[{"internalType":"bool","name":"","type":"bool"}],"stateMutability":"view","type":"function"},{"inputs":[{"internalType":"address","name":"token_","type":"address"},{"internalType":"uint256","name":"tokenId_","type":"uint256"}],"name":"features","outputs":[{"internalType":"uint64","name":"","type":"uint64"}],"stateMutability":"view","type":"function"},{"inputs":[{"internalType":"bytes32","name":"tokenhash_","type":"bytes32"}],"name":"features","outputs":[{"internalType":"uint64","name":"","type":"uint64"}],"stateMutability":"view","type":"function"},{"inputs":[{"internalType":"address","name":"token_","type":"address"}],"name":"features","outputs":[{"internalType":"uint64","name":"","type":"uint64"}],"stateMutability":"view","type":"function"},{"inputs":[{"internalType":"bytes32","name":"hash_","type":"bytes32"}],"name":"get","outputs":[{"internalType":"address","name":"","type":"address"}],"stateMutability":"view","type":"function"},{"inputs":[{"internalType":"address","name":"token_","type":"address"}],"name":"granularity","outputs":[{"internalType":"uint256","name":"","type":"uint256"}],"stateMutability":"view","type":"function"},{"inputs":[{"internalType":"bytes32","name":"tokenhash_","type":"bytes32"}],"name":"granularity","outputs":[{"internalType":"uint256","name":"","type":"uint256"}],"stateMutability":"view","type":"function"},{"inputs":[{"internalType":"address","name":"token_","type":"address"},{"internalType":"uint256","name":"tokenId_","type":"uint256"}],"name":"granularity","outputs":[{"internalType":"uint256","name":"","type":"uint256"}],"stateMutability":"view","type":"function"},{"inputs":[{"internalType":"bytes32","name":"tokenhash_","type":"bytes32"},{"internalType":"uint64","name":"feature_","type":"uint64"}],"name":"hasFeature","outputs":[{"internalType":"bool","name":"","type":"bool"}],"stateMutability":"view","type":"function"},{"inputs":[{"internalType":"address","name":"token_","type":"address"},{"internalType":"uint256","name":"tokenId_","type":"uint256"}],"name":"image","outputs":[{"internalType":"string","name":"","type":"string"}],"stateMutability":"view","type":"function"},{"inputs":[{"internalType":"bytes32","name":"tokenhash_","type":"bytes32"}],"name":"image","outputs":[{"internalType":"string","name":"","type":"string"}],"stateMutability":"view","type":"function"},{"inputs":[{"internalType":"address","name":"token_","type":"address"}],"name":"image","outputs":[{"internalType":"string","name":"","type":"string"}],"stateMutability":"view","type":"function"},{"inputs":[{"internalType":"address","name":"caller_","type":"address"}],"name":"isContract","outputs":[{"internalType":"bool","name":"","type":"bool"}],"stateMutability":"view","type":"function"},{"inputs":[{"internalType":"address","name":"contractAddr_","type":"address"},{"internalType":"uint256","name":"contractId_","type":"uint256"}],"name":"isContractAllowed","outputs":[{"internalType":"bool","name":"","type":"bool"}],"stateMutability":"view","type":"function"},{"inputs":[{"internalType":"address","name":"contractAddr_","type":"address"},{"internalType":"uint256","name":"contractId_","type":"uint256"}],"name":"isContractCertified","outputs":[{"internalType":"bool","name":"","type":"bool"}],"stateMutability":"view","type":"function"},{"inputs":[{"internalType":"address","name":"contractAddr_","type":"address"},{"internalType":"uint256","name":"contractId_","type":"uint256"}],"name":"isContractForbidden","outputs":[{"internalType":"bool","name":"","type":"bool"}],"stateMutability":"view","type":"function"},{"inputs":[],"name":"isContractForbiddenUnknown","outputs":[{"internalType":"bool","name":"","type":"bool"}],"stateMutability":"view","type":"function"},{"inputs":[{"internalType":"bytes32","name":"tokenhash_","type":"bytes32"},{"internalType":"uint64","name":"type_","type":"uint64"}],"name":"isFeatureType","outputs":[{"internalType":"bool","name":"","type":"bool"}],"stateMutability":"view","type":"function"},{"inputs":[{"internalType":"address","name":"caller_","type":"address"}],"name":"isOperator","outputs":[{"internalType":"bool","name":"","type":"bool"}],"stateMutability":"view","type":"function"},{"inputs":[{"internalType":"address","name":"caller_","type":"address"}],"name":"isOwner","outputs":[{"internalType":"bool","name":"","type":"bool"}],"stateMutability":"view","type":"function"},{"inputs":[{"internalType":"address","name":"certifier_","type":"address"}],"name":"isTrustedCertifier","outputs":[{"internalType":"bool","name":"","type":"bool"}],"stateMutability":"view","type":"function"},{"inputs":[{"internalType":"address","name":"token_","type":"address"},{"internalType":"uint256","name":"tokenId_","type":"uint256"}],"name":"nft","outputs":[{"internalType":"bool","name":"","type":"bool"}],"stateMutability":"view","type":"function"},{"inputs":[{"internalType":"address","name":"token_","type":"address"}],"name":"nft","outputs":[{"internalType":"bool","name":"","type":"bool"}],"stateMutability":"view","type":"function"},{"inputs":[{"internalType":"bytes32","name":"tokenhash_","type":"bytes32"}],"name":"nft","outputs":[{"internalType":"bool","name":"","type":"bool"}],"stateMutability":"view","type":"function"},{"inputs":[],"name":"owner","outputs":[{"internalType":"address","name":"","type":"address"}],"stateMutability":"view","type":"function"},{"inputs":[{"internalType":"address","name":"addr_","type":"address"},{"internalType":"uint256","name":"id_","type":"uint256"}],"name":"pureCurrency","outputs":[{"internalType":"bytes32","name":"k_","type":"bytes32"}],"stateMutability":"pure","type":"function"},{"inputs":[{"internalType":"address","name":"bot_","type":"address"}],"name":"removeOperator","outputs":[],"stateMutability":"nonpayable","type":"function"},{"inputs":[{"internalType":"address","name":"token","type":"address"},{"internalType":"uint256","name":"tokenId","type":"uint256"}],"name":"removeTokenCertified","outputs":[{"internalType":"bool","name":"","type":"bool"}],"stateMutability":"nonpayable","type":"function"},{"inputs":[{"internalType":"address","name":"certifier_","type":"address"}],"name":"removeTrustedCertifier","outputs":[{"internalType":"bool","name":"","type":"bool"}],"stateMutability":"nonpayable","type":"function"},{"inputs":[],"name":"renounceOwnership","outputs":[],"stateMutability":"nonpayable","type":"function"},{"inputs":[{"internalType":"bytes32","name":"k_","type":"bytes32"}],"name":"resolveAddressUInt256","outputs":[{"internalType":"address","name":"addr_","type":"address"},{"internalType":"uint256","name":"v_","type":"uint256"}],"stateMutability":"view","type":"function"},{"inputs":[{"internalType":"bytes32","name":"k_","type":"bytes32"}],"name":"resolveBytes","outputs":[{"internalType":"bytes","name":"out_","type":"bytes"}],"stateMutability":"view","type":"function"},{"inputs":[{"internalType":"bytes32","name":"k_","type":"bytes32"}],"name":"resolveBytes32Address","outputs":[{"internalType":"bytes32","name":"v_","type":"bytes32"},{"internalType":"address","name":"addr_","type":"address"}],"stateMutability":"view","type":"function"},{"inputs":[{"internalType":"bytes32","name":"k_","type":"bytes32"}],"name":"resolveBytes32Array","outputs":[{"internalType":"bytes32[]","name":"out_","type":"bytes32[]"}],"stateMutability":"view","type":"function"},{"inputs":[{"internalType":"bytes32","name":"k_","type":"bytes32"}],"name":"resolveBytes32Bytes32","outputs":[{"internalType":"bytes32","name":"v1_","type":"bytes32"},{"internalType":"bytes32","name":"v2_","type":"bytes32"}],"stateMutability":"view","type":"function"},{"inputs":[{"internalType":"bytes32","name":"tokenhash_","type":"bytes32"}],"name":"resolveCurrency","outputs":[{"internalType":"address","name":"addr","type":"address"},{"internalType":"uint256","name":"id","type":"uint256"}],"stateMutability":"view","type":"function"},{"inputs":[{"internalType":"bytes32","name":"tokenhash_","type":"bytes32"}],"name":"resolveCurrencyAddr","outputs":[{"internalType":"address","name":"","type":"address"}],"stateMutability":"view","type":"function"},{"inputs":[{"internalType":"bytes32","name":"k_","type":"bytes32"}],"name":"resolveString","outputs":[{"internalType":"string","name":"out_","type":"string"}],"stateMutability":"view","type":"function"},{"inputs":[{"internalType":"address","name":"addr_","type":"address"},{"internalType":"uint256","name":"id_","type":"uint256"}],"name":"roCurrency","outputs":[{"internalType":"bytes32","name":"k_","type":"bytes32"}],"stateMutability":"view","type":"function"},{"inputs":[{"internalType":"contract IRepositoryContract","name":"contract_","type":"address"}],"name":"setContract","outputs":[],"stateMutability":"nonpayable","type":"function"},{"inputs":[{"internalType":"bytes4","name":"interfaceId","type":"bytes4"}],"name":"supportsInterface","outputs":[{"internalType":"bool","name":"","type":"bool"}],"stateMutability":"view","type":"function"},{"inputs":[{"internalType":"bytes32","name":"tokenhash_","type":"bytes32"},{"internalType":"bytes4","name":"interfaceId","type":"bytes4"}],"name":"supportsInterface","outputs":[{"internalType":"bool","name":"","type":"bool"}],"stateMutability":"view","type":"function"},{"inputs":[{"internalType":"address","name":"token_","type":"address"},{"internalType":"uint256","name":"tokenid_","type":"uint256"}],"name":"token","outputs":[],"stateMutability":"nonpayable","type":"function"},{"inputs":[{"internalType":"address","name":"token","type":"address"},{"internalType":"uint256","name":"tokenId","type":"uint256"}],"name":"tokenForbiddenAdd","outputs":[{"internalType":"bool","name":"","type":"bool"}],"stateMutability":"nonpayable","type":"function"},{"inputs":[{"internalType":"address","name":"token","type":"address"},{"internalType":"uint256","name":"tokenId","type":"uint256"}],"name":"tokenForbiddenRemove","outputs":[{"internalType":"bool","name":"","type":"bool"}],"stateMutability":"nonpayable","type":"function"},{"inputs":[{"internalType":"bool","name":"forbiddenunknown_","type":"bool"}],"name":"tokenForbiddenUnknownSet","outputs":[{"internalType":"bool","name":"","type":"bool"}],"stateMutability":"nonpayable","type":"function"},{"inputs":[{"internalType":"bytes32","name":"tokenhash_","type":"bytes32"}],"name":"tokenInfo","outputs":[{"components":[{"internalType":"int8","name":"granularity","type":"int8"},{"internalType":"bool","name":"nft","type":"bool"},{"internalType":"uint64","name":"features","type":"uint64"}],"internalType":"struct Token.Info","name":"","type":"tuple"}],"stateMutability":"view","type":"function"},{"inputs":[{"internalType":"address","name":"token_","type":"address"},{"internalType":"uint256","name":"tokenId_","type":"uint256"}],"name":"tokenInfo","outputs":[{"components":[{"internalType":"int8","name":"granularity","type":"int8"},{"internalType":"bool","name":"nft","type":"bool"},{"internalType":"uint64","name":"features","type":"uint64"}],"internalType":"struct Token.Info","name":"out_","type":"tuple"}],"stateMutability":"view","type":"function"},{"inputs":[{"internalType":"address","name":"token_","type":"address"}],"name":"tokenInfo","outputs":[{"components":[{"internalType":"int8","name":"granularity","type":"int8"},{"internalType":"bool","name":"nft","type":"bool"},{"internalType":"uint64","name":"features","type":"uint64"}],"internalType":"struct Token.Info","name":"out_","type":"tuple"}],"stateMutability":"view","type":"function"},{"inputs":[{"internalType":"address","name":"newOwner","type":"address"}],"name":"transferOwnership","outputs":[],"stateMutability":"nonpayable","type":"function"}],"compiler":{"version":"0.8.11+commit.d7f03943","evm_version":"istanbul","optimizer":{"enabled":true,"runs":200}},"contractName":"Repository","deployedBytecode":"608060405234801561001057600080fd5b50600436106103db5760003560e01c806375f890ab1161020a578063ad0fc0cc11610125578063c5537eb7116100b8578063dbf5f2fd11610087578063dbf5f2fd14610beb578063e50d1b3e14610bfe578063e855a31314610c11578063f2fde38b14610c24578063f5dab71114610c37576103db565b8063c5537eb714610b9f578063c9c2a94014610bb2578063d47a7edd14610bc5578063d4945d0e14610bd8576103db565b8063b72a4a71116100f4578063b72a4a7114610b53578063bb7d88a914610b66578063c33470d314610b79578063c452e6b614610b8c576103db565b8063ad0fc0cc14610aea578063ad10a13514610afd578063af91558514610b10578063b305438314610b40576103db565b80639870d7fe1161019d578063a9bf98581161016c578063a9bf985814610a9e578063a9d4632614610ab1578063ababadb514610ac4578063ac8a584a14610ad7576103db565b80639870d7fe14610a525780639e9bb9c114610a65578063a663d4f514610a78578063a86eeb9114610a8b576103db565b80638d49d89b116101d95780638d49d89b146109f25780638da5cb5b14610a055780638eaa6ac014610a1657806395b5d58414610a3f576103db565b806375f890ab146109ae57806381b2490b146109c157806383350075146109d457806389765f59146109df576103db565b806338a699a4116102fa5780635b62cb701161028d57806367c51dfc1161025c57806367c51dfc1461096d5780636d70f7ae146109805780636f45768314610993578063715018a6146109a6576103db565b80635b62cb70146109155780635f5c5baa1461092857806361e99ffb14610932578063657c7e0914610945576103db565b8063509ff69b116102c9578063509ff69b146108c9578063552cdf98146108dc5780635768bbb5146108ef578063589e6a9814610902576103db565b806338a699a41461087c5780634329598c1461078b5780634635229b1461088f5780634f79b792146108b6576103db565b8063162790551161037257806324ace6721161034157806324ace6721461080f5780632558a0791461082257806327ee9dc2146108495780632f54bf6e14610869576103db565b806316279055146107ab578063184bc906146107be57806318d54cf3146107e95780631d7a3b72146107fc576103db565b806307d61085116103ae57806307d61085146107445780630ea94b9614610757578063120f6ee31461077857806312cae67b1461078b576103db565b806301ffc9a7146106b05780630221c7de146106d857806303565ea114610703578063036995df14610723575b6103e3610c4a565b60405163825998c160e01b8152600d60048201526000356001600160e01b031916602482015273__$f71e59c5327218924d154e230469c101bd$__9063825998c190604401602060405180830381865af4158015610445573d6000803e3d6000fd5b505050506040513d601f19601f820116820180604052508101906104699190613967565b5060005b600a548110156106ad57336001600160a01b0316600a828154811061049457610494613984565b6000918252602090912001546001600160a01b031614156104b45761069b565b6000600a82815481106104c9576104c9613984565b600091825260209182902001546040805163af640d0f60e01b815290516001600160a01b039092169263af640d0f926004808401938290030181865afa158015610517573d6000803e3d6000fd5b505050506040513d601f19601f8201168201806040525081019061053b919061399a565b905060016000828152600c602090815260408083206001600160e01b0319843516845290915290205460ff166002811115610578576105786139b3565b1415610584575061069b565b6000600a838154811061059957610599613984565b60009182526020822001546040516001600160a01b03909116916105be9136906139c9565b6000604051808303816000865af19150503d80600081146105fb576040519150601f19603f3d011682016040523d82523d6000602084013e610600565b606091505b50506000838152600c6020908152604080832083356001600160e01b03191684529091528120549192509060ff16600281111561063f5761063f6139b3565b14156106985780610651576001610654565b60025b6000838152600c602090815260408083206001600160e01b031984351684529091529020805460ff19166001836002811115610692576106926139b3565b02179055505b50505b806106a5816139ef565b91505061046d565b50005b6106c36106be366004613a22565b610cd0565b60405190151581526020015b60405180910390f35b6106eb6106e6366004613a52565b610d16565b6040516001600160401b0390911681526020016106cf565b610716610711366004613a7e565b610d43565b6040516106cf9190613a97565b610736610731366004613ac6565b610dd4565b6040519081526020016106cf565b6106c3610752366004613a7e565b610de1565b61076a610765366004613a7e565b610e0a565b6040516106cf929190613ae3565b6106eb610786366004613a7e565b610e65565b61079e610799366004613a7e565b610eb7565b6040516106cf9190613b58565b6106c36107b9366004613ac6565b610f59565b6107d16107cc366004613a7e565b610ff8565b6040516001600160a01b0390911681526020016106cf565b6106c36107f7366004613a52565b611050565b61079e61080a366004613a52565b61106b565b61073661081d366004613c16565b611379565b6107367f000000000000000000000000000000000000000000000000000000000000000081565b61085c610857366004613a7e565b6114db565b6040516106cf9190613c5e565b6106c3610877366004613ac6565b611561565b6106c361088a366004613a7e565b611588565b6106c37f000000000000000000000000000000000000000000000000000000000000000081565b6107366108c4366004613a52565b611593565b6107366108d7366004613a52565b6115c6565b6106c36108ea366004613a52565b61160b565b6107366108fd366004613ca2565b611638565b610736610910366004613c16565b6116c7565b6106c3610923366004613ac6565b6116d2565b6109306116dd565b005b610736610940366004613cd2565b61175c565b610958610953366004613a7e565b6117a2565b604080519283526020830191909152016106cf565b6106c361097b366004613a52565b611824565b6106c361098e366004613ac6565b611838565b6109306109a1366004613a52565b61189a565b610930611d36565b6109306109bc366004613ac6565b611d48565b6106c36109cf366004613a52565b612021565b60075460ff166106c3565b6106c36109ed366004613a52565b612156565b6106eb610a00366004613ac6565b61216a565b6000546001600160a01b03166107d1565b6107d1610a24366004613a7e565b6000908152600960205260409020546001600160a01b031690565b6106c3610a4d366004613ac6565b612177565b610930610a60366004613ac6565b61218a565b61079e610a73366004613a7e565b61221a565b6106c3610a86366004613d09565b612283565b610736610a99366004613a52565b6122ad565b610736610aac366004613a7e565b6122b9565b61079e610abf366004613ac6565b61230b565b6106c3610ad2366004613a52565b612318565b610930610ae5366004613ac6565b61242a565b6106c3610af8366004613a52565b612479565b6106c3610b0b366004613a52565b61259c565b610b23610b1e366004613a7e565b6125da565b604080519283526001600160a01b039091166020830152016106cf565b610736610b4e366004613d51565b61265c565b610736610b61366004613a52565b6126df565b610716610b74366004613a52565b6126eb565b6106c3610b87366004613de1565b6128e3565b6106c3610b9a366004613ac6565b61297a565b6106c3610bad366004613d09565b612987565b610736610bc0366004613a52565b6129a6565b6106c3610bd3366004613a7e565b612a51565b6106c3610be6366004613e0d565b612aa3565b6106c3610bf9366004613ac6565b612ab6565b61076a610c0c366004613a7e565b612ac9565b6106c3610c1f366004613a52565b612ad5565b610930610c32366004613ac6565b612ae9565b610716610c45366004613ac6565b612b62565b6000546001600160a01b0316331480610c675750610c6733610f59565b610cce5760405162461bcd60e51b815260206004820152602d60248201527f416c6c6f77616e63653a2063616c6c6572206d757374206265205265706f736960448201526c1d1bdc9e4810dbdb9d1c9858dd609a1b60648201526084015b60405180910390fd5b565b60006001600160e01b031982166301ffc9a760e01b1480610d0157506305b62cb760e41b6001600160e01b03198316145b80610d105750610d1082612b8a565b92915050565b60006001600160a01b038316610d2e57506001610d10565b610d3883836126eb565b604001519392505050565b60408051606081018252600080825260208201819052918101919091526000805160206141d7833981519152821415610d8157610d106000806126eb565b610d8a82610de1565b610db25750506040805160608101825260111981526000602082018190529181019190915290565b600080610dbe84610e0a565b91509150610dcc82826126eb565b949350505050565b6000610d108260006126df565b60006000805160206141d7833981519152821415610e0157506001919050565b610d1082611588565b6000806000805160206141d7833981519152831415610e2e57506000928392509050565b610e3783611588565b610e535760405162461bcd60e51b8152600401610cc590613e2a565b610e5c83612ac9565b91509150915091565b60006000805160206141d7833981519152821415610e8857610d10600080610d16565b610e9182610de1565b610e9d57506000919050565b600080610ea984610e0a565b91509150610dcc8282610d16565b6000818152600860205260409020805460609190610ed490613e61565b80601f0160208091040260200160405190810160405280929190818152602001828054610f0090613e61565b8015610f4d5780601f10610f2257610100808354040283529160200191610f4d565b820191906000526020600020905b815481529060010190602001808311610f3057829003601f168201915b50505050509050919050565b60006001600160a01b038216301415610f7457506001919050565b60405163f132566360e01b8152600a60048201526001600160a01b038316602482015273__$f71e59c5327218924d154e230469c101bd$__9063f1325663906044015b602060405180830381865af4158015610fd4573d6000803e3d6000fd5b505050506040513d601f19601f82011682018060405250810190610d109190613967565b60006000805160206141d783398151915282141561101857506000919050565b61102182611588565b61103d5760405162461bcd60e51b8152600401610cc590613e2a565b600061104883612ac9565b509392505050565b600061105a6116dd565b6110648383612bc0565b9392505050565b60606001600160a01b03831661109b576040518060a00160405280607581526020016141f7607591399050610d10565b60006001600073__$669c6e0eba2465bd6779ea6ec5db3af1b5$__63d5f0b04d87876040518363ffffffff1660e01b81526004016110da929190613ae3565b602060405180830381865af41580156110f7573d6000803e3d6000fd5b505050506040513d601f19601f8201168201806040525081019061111b919061399a565b8152602001908152602001600020805461113490613e61565b80601f016020809104026020016040519081016040528092919081815260200182805461116090613e61565b80156111ad5780601f10611182576101008083540402835291602001916111ad565b820191906000526020600020905b81548152906001019060200180831161119057829003601f168201915b5050604080516000815260208101808352815190209596506111d59450869350019050613e96565b60405160208183030381529060405280519060200120146111f7579050610d10565b8215611358576001600073__$669c6e0eba2465bd6779ea6ec5db3af1b5$__63d5f0b04d8760006040518363ffffffff1660e01b815260040161123b929190613ae3565b602060405180830381865af4158015611258573d6000803e3d6000fd5b505050506040513d601f19601f8201168201806040525081019061127c919061399a565b8152602001908152602001600020805461129590613e61565b80601f01602080910402602001604051908101604052809291908181526020018280546112c190613e61565b801561130e5780601f106112e35761010080835404028352916020019161130e565b820191906000526020600020905b8154815290600101906020018083116112f157829003601f168201915b5050604080516000815260208101808352815190209596506113369450869350019050613e96565b6040516020818303038152906040528051906020012014611358579050610d10565b6040518060a00160405280606c815260200161416b606c9139949350505050565b8051602080830191909120600081815260089092526040909120805461139e90613e61565b151590506113cb57600081815260086020908152604090912083516113c5928501906138c0565b50919050565b6000818152600860205260409020805461146d91906113e990613e61565b80601f016020809104026020016040519081016040528092919081815260200182805461141590613e61565b80156114625780601f1061143757610100808354040283529160200191611462565b820191906000526020600020905b81548152906001019060200180831161144557829003601f168201915b505050505083612e4d565b6114d65760405162461bcd60e51b815260206004820152603460248201527f4b656363616b496e766572746572204279746573206b656363616b2069736e7460448201527320756e697175652021212121212121212121212160601b6064820152608401610cc5565b919050565b60606114e682610eb7565b6040516355b04b0d60e11b815273__$669c6e0eba2465bd6779ea6ec5db3af1b5$__9163ab60961a9161151c9190600401613b58565b600060405180830381865af4158015611539573d6000803e3d6000fd5b505050506040513d6000823e601f3d908101601f19168201604052610d109190810190613eb2565b600080546001600160a01b038381169116141561158057506001919050565b506000919050565b6000610d1082612edf565b600061159f83836129a6565b90506115aa81611588565b610d105760405162461bcd60e51b8152600401610cc590613e2a565b60006001600160a01b0383161580156115dd575081155b156115f757506000805160206141d7833981519152610d10565b611601838361189a565b61106483836122ad565b60006001600160a01b03831661162357506000610d10565b61162d83836126eb565b602001519392505050565b6040516318f7a7c360e21b8152600481018390526001600160a01b03821660248201526000906110649073__$669c6e0eba2465bd6779ea6ec5db3af1b5$__906363de9f0c906044015b600060405180830381865af415801561169f573d6000803e3d6000fd5b505050506040513d6000823e601f3d908101601f19168201604052610b4e9190810190613eb2565b6000610d1082611379565b6000610d1082612f01565b6000546001600160a01b03163314806116fa57506116fa33611838565b610cce5760405162461bcd60e51b815260206004820152602d60248201527f416c6c6f77616e63653a2063616c6c6572206d757374206265205265706f736960448201526c3a37b93c9027b832b930ba37b960991b6064820152608401610cc5565b604051632291b3f160e21b815260048101839052602481018290526000906110649073__$669c6e0eba2465bd6779ea6ec5db3af1b5$__90638a46cfc490604401611682565b6000806117ae836114db565b60405163029695c360e21b815273__$669c6e0eba2465bd6779ea6ec5db3af1b5$__91630a5a570c916117e49190600401613c5e565b6040805180830381865af4158015611800573d6000803e3d6000fd5b505050506040513d601f19601f82011682018060405250810190610e5c9190613f37565b600061182e6116dd565b6110648383612f8c565b60006001600160a01b03821630141561185357506001919050565b60405163f132566360e01b8152600b60048201526001600160a01b038316602482015273__$f71e59c5327218924d154e230469c101bd$__9063f132566390604401610fb7565b60008073__$669c6e0eba2465bd6779ea6ec5db3af1b5$__63d5f0b04d8560006040518363ffffffff1660e01b81526004016118d7929190613ae3565b602060405180830381865af41580156118f4573d6000803e3d6000fd5b505050506040513d601f19601f82011682018060405250810190611918919061399a565b600081815260036020526040902080549093509091506201000090046001600160401b0316611aaa57604051634dd11f0f60e11b81526001600160a01b0385166004820152600060248201526001604482015273__$cc6df4ca04d157c820770f5225eff0121b$__90639ba23e1e90606401606060405180830381865af41580156119a7573d6000803e3d6000fd5b505050506040513d601f19601f820116820180604052508101906119cb9190613f5b565b6000828152600360209081526040918290208351815492850151948401516001600160401b0316620100000269ffffffffffffffff0000199515156101000261ffff1990941660ff90921691909117929092179390931617909155516316061a7160e21b815273__$f71e59c5327218924d154e230469c101bd$__9063581869c490611a67906002908590600401918252602082015260400190565b602060405180830381865af4158015611a84573d6000803e3d6000fd5b505050506040513d601f19601f82011682018060405250810190611aa89190613967565b505b81546201000090046001600160401b0316611ac757611ac7613fd3565b815462010000900461010016611add5750505050565b604080516060810182528354600081900b8252610100810460ff16151560208301526201000090046001600160401b031681830152905163d5f0b04d60e01b815273__$669c6e0eba2465bd6779ea6ec5db3af1b5$__9063d5f0b04d90611b4a9088908890600401613ae3565b602060405180830381865af4158015611b67573d6000803e3d6000fd5b505050506040513d601f19601f82011682018060405250810190611b8b919061399a565b600081815260036020526040902080549094509092506201000090046001600160401b0316611d125760405163543af62760e01b815273__$cc6df4ca04d157c820770f5225eff0121b$__9063543af62790611bf290889088908690600190600401613fe9565b606060405180830381865af4158015611c0f573d6000803e3d6000fd5b505050506040513d601f19601f82011682018060405250810190611c339190613f5b565b6000838152600360209081526040918290208351815492850151948401516001600160401b0316620100000269ffffffffffffffff0000199515156101000261ffff1990941660ff90921691909117929092179390931617909155516316061a7160e21b815273__$f71e59c5327218924d154e230469c101bd$__9063581869c490611ccf906002908690600401918252602082015260400190565b602060405180830381865af4158015611cec573d6000803e3d6000fd5b505050506040513d601f19601f82011682018060405250810190611d109190613967565b505b82546201000090046001600160401b0316611d2f57611d2f613fd3565b5050505050565b611d3e613269565b610cce60006132c3565b611d506116dd565b6040516301ffc9a760e01b81526315d3789560e31b60048201526001600160a01b038216906301ffc9a790602401602060405180830381865afa158015611d9b573d6000803e3d6000fd5b505050506040513d601f19601f82011682018060405250810190611dbf9190613967565b611e175760405162461bcd60e51b8152602060048201526024808201527f636f6e7472616374206d75737420626520495265706f7369746f7279436f6e746044820152631c9858dd60e21b6064820152608401610cc5565b60005b600d54811015611f0057600c6000836001600160a01b031663af640d0f6040518163ffffffff1660e01b8152600401602060405180830381865afa158015611e66573d6000803e3d6000fd5b505050506040513d601f19601f82011682018060405250810190611e8a919061399a565b81526020019081526020016000206000600d8381548110611ead57611ead613984565b6000918252602080832060088304015460079092166004026101000a90910460e01b6001600160e01b03191683528201929092526040019020805460ff1916905580611ef8816139ef565b915050611e1a565b506040516316f4b92960e21b8152600a60048201526001600160a01b038216602482015273__$f71e59c5327218924d154e230469c101bd$__90635bd2e4a490604401602060405180830381865af4158015611f60573d6000803e3d6000fd5b505050506040513d601f19601f82011682018060405250810190611f849190613967565b508060096000836001600160a01b031663af640d0f6040518163ffffffff1660e01b8152600401602060405180830381865afa158015611fc8573d6000803e3d6000fd5b505050506040513d601f19601f82011682018060405250810190611fec919061399a565b815260200190815260200160002060006101000a8154816001600160a01b0302191690836001600160a01b0316021790555050565b6004546000905b801561214c576001600160a01b0384166004612045600184614040565b8154811061205557612055613984565b60009182526020909120600290910201546001600160a01b03161480156120aa57506004612084600183614040565b8154811061209457612094613984565b9060005260206000209060020201600101546000145b8061212b57506001600160a01b03841660046120c7600184614040565b815481106120d7576120d7613984565b60009182526020909120600290910201546001600160a01b031614801561212b5750826004612107600184614040565b8154811061211757612117613984565b906000526020600020906002020160010154145b1561213a576001915050610d10565b8061214481614057565b915050612028565b5060009392505050565b60006121606116dd565b6110648383613313565b6000610d10826000610d16565b60006121816116dd565b610d108261346f565b6121926116dd565b6040516316f4b92960e21b8152600b60048201526001600160a01b038216602482015273__$f71e59c5327218924d154e230469c101bd$__90635bd2e4a4906044015b602060405180830381865af41580156121f2573d6000803e3d6000fd5b505050506040513d601f19601f820116820180604052508101906122169190613967565b5050565b60606000805160206141d783398151915282141561223d57610d1060008061106b565b61224682610de1565b612269576040518060a00160405280606c815260200161416b606c913992915050565b60008061227584610e0a565b91509150610dcc828261106b565b6000816001600160401b031660ff61229a85610e65565b166001600160401b031614905092915050565b6000611064838361352d565b60006000805160206141d78339815191528214156122dc57610d106000806126df565b6122e582610de1565b6122f157506001919050565b6000806122fd84610e0a565b91509150610dcc82826126df565b6060610d1082600061106b565b600654600090815b8181101561241f57846001600160a01b03166006828154811061234557612345613984565b60009182526020909120600290910201546001600160a01b031614801561239057506006818154811061237a5761237a613984565b9060005260206000209060020201600101546000145b806123fd5750846001600160a01b0316600682815481106123b3576123b3613984565b60009182526020909120600290910201546001600160a01b03161480156123fd575083600682815481106123e9576123e9613984565b906000526020600020906002020160010154145b1561240d57600192505050610d10565b80612417816139ef565b915050612320565b506000949350505050565b6124326116dd565b60405163edefe12d60e01b8152600b60048201526001600160a01b038216602482015273__$f71e59c5327218924d154e230469c101bd$__9063edefe12d906044016121d5565b6000612486836000612021565b1561249357506001610d10565b81156124b0576124a38383612021565b156124b057506001610d10565b6000836001600160a01b031663373a7fb46040518163ffffffff1660e01b8152600401602060405180830381865afa1580156124f0573d6000803e3d6000fd5b505050506040513d601f19601f82011682018060405250810190612514919061406e565b905061251f816116d2565b61252d576000915050610d10565b604051632b43f03360e21b81526001600160a01b0382169063ad0fc0cc9061255b9087908790600401613ae3565b602060405180830381865afa158015612578573d6000803e3d6000fd5b505050506040513d601f19601f82011682018060405250810190610dcc9190613967565b60006125a88383612318565b156125b557506000610d10565b6125bf8383612021565b156125cc57506001610d10565b60075460ff16159392505050565b6000806125e6836114db565b604051639ac1b34560e01b815273__$669c6e0eba2465bd6779ea6ec5db3af1b5$__91639ac1b3459161261c9190600401613c5e565b6040805180830381865af4158015612638573d6000803e3d6000fd5b505050506040513d601f19601f82011682018060405250810190610e5c919061408b565b604051632431a7cf60e01b8152600090610d109073__$669c6e0eba2465bd6779ea6ec5db3af1b5$__90632431a7cf9061269a908690600401613c5e565b600060405180830381865af41580156126b7573d6000803e3d6000fd5b505050506040513d6000823e601f3d908101601f1916820160405261081d91908101906140b0565b6000611064838361356b565b60408051606081018252600080825260208201819052918101919091526001600160a01b03831661273b575060408051606081018252601119815260006020820152600191810191909152610d10565b6003600073__$669c6e0eba2465bd6779ea6ec5db3af1b5$__63d5f0b04d8660006040518363ffffffff1660e01b8152600401612779929190613ae3565b602060405180830381865af4158015612796573d6000803e3d6000fd5b505050506040513d601f19601f820116820180604052508101906127ba919061399a565b815260208082019290925260409081016000908120825160608101845290549182900b815261010080830460ff16151594820194909452620100009091046001600160401b0381169282019290925292501661281557610d10565b6003600073__$669c6e0eba2465bd6779ea6ec5db3af1b5$__63d5f0b04d86866040518363ffffffff1660e01b8152600401612852929190613ae3565b602060405180830381865af415801561286f573d6000803e3d6000fd5b505050506040513d601f19601f82011682018060405250810190612893919061399a565b815260208082019290925260409081016000908120825160608101845290549182900b8152610100820460ff161515938101939093526201000090046001600160401b0316908201529392505050565b60006128f183610200612987565b6128fd57506000610d10565b61290683610ff8565b6040516301ffc9a760e01b81526001600160e01b0319841660048201526001600160a01b0391909116906301ffc9a790602401602060405180830381865afa158015612956573d6000803e3d6000fd5b505050506040513d601f19601f820116820180604052508101906110649190613967565b6000610d1082600061160b565b60008161299384610e65565b166001600160401b031615159392505050565b60006001600160a01b0383161580156129bd575081155b156129d757506000805160206141d7833981519152610d10565b60405163d5f0b04d60e01b815273__$669c6e0eba2465bd6779ea6ec5db3af1b5$__9063d5f0b04d90612a109086908690600401613ae3565b602060405180830381865af4158015612a2d573d6000803e3d6000fd5b505050506040513d601f19601f82011682018060405250810190611064919061399a565b60006000805160206141d7833981519152821415612a7457610d1060008061160b565b612a7d82610de1565b612a8957506000919050565b600080612a9584610e0a565b91509150610dcc828261160b565b6000612aad6116dd565b610d10826135c3565b6000612ac06116dd565b610d10826135f5565b600080610e5c83613716565b6000612adf6116dd565b6110648383613798565b612af1613269565b6001600160a01b038116612b565760405162461bcd60e51b815260206004820152602660248201527f4f776e61626c653a206e6577206f776e657220697320746865207a65726f206160448201526564647265737360d01b6064820152608401610cc5565b612b5f816132c3565b50565b6040805160608101825260008082526020820181905291810191909152610d108260006126eb565b60006001600160e01b031982166301ffc9a760e01b1480610d1057506001600160e01b03198216632b43f03360e21b1492915050565b600654600090815b81811015612c5a57846001600160a01b031660068281548110612bed57612bed613984565b60009182526020909120600290910201546001600160a01b0316148015612c38575060068181548110612c2257612c22613984565b9060005260206000209060020201600101546000145b15612c4857600092505050610d10565b80612c52816139ef565b915050612bc8565b5082612d1a5760001981015b81811015612d1457846001600160a01b031660068281548110612c8b57612c8b613984565b60009182526020909120600290910201546001600160a01b03161415612d0b57612d0960068281548110612cc157612cc1613984565b6000918252602090912060029091020154600680546001600160a01b039092169184908110612cf257612cf2613984565b906000526020600020906002020160010154613798565b505b60001901612c66565b50612db0565b60005b81811015612dae57846001600160a01b031660068281548110612d4257612d42613984565b60009182526020909120600290910201546001600160a01b0316148015612d8c57508360068281548110612d7857612d78613984565b906000526020600020906002020160010154145b15612d9c57600092505050610d10565b80612da6816139ef565b915050612d1d565b505b604080518082019091526001600160a01b038581168252602082018581526006805460018101825560009190915292517ff652222313e28459528d920b65115c16c04f3efc82aaedc97be59f3f377c0d3f600290940293840180546001600160a01b0319169190931617909155517ff652222313e28459528d920b65115c16c04f3efc82aaedc97be59f3f377c0d40909101555060019392505050565b60008151835114612e6057506000610d10565b60005b8351811015612ed557828181518110612e7e57612e7e613984565b602001015160f81c60f81b6001600160f81b031916848281518110612ea557612ea5613984565b01602001516001600160f81b03191614612ec3576000915050610d10565b80612ecd816139ef565b915050612e63565b5060019392505050565b60008181526008602052604081208054612ef890613e61565b15159392505050565b60006001600160a01b038216301415612f1c57506001919050565b6005545b8015612f83576001600160a01b0383166005612f3d600184614040565b81548110612f4d57612f4d613984565b6000918252602090912001546001600160a01b03161415612f715750600192915050565b80612f7b81614057565b915050612f20565b50600092915050565b6004546000905b8015613036576001600160a01b0384166004612fb0600184614040565b81548110612fc057612fc0613984565b60009182526020909120600290910201546001600160a01b031614801561301557506004612fef600183614040565b81548110612fff57612fff613984565b9060005260206000209060020201600101546000145b15613024576000915050610d10565b8061302e81614057565b915050612f93565b5081613125575b6004545b8015613114576001600160a01b038416600461305e600184614040565b8154811061306e5761306e613984565b60009182526020909120600290910201546001600160a01b03161415613102576130fc600461309e600184614040565b815481106130ae576130ae613984565b60009182526020909120600290910201546001600160a01b031660046130d5600185614040565b815481106130e5576130e5613984565b906000526020600020906002020160010154613313565b50613114565b8061310c81614057565b915050613041565b8061311f57506131cd565b5061303d565b6004545b80156131cb576001600160a01b0384166004613146600184614040565b8154811061315657613156613984565b60009182526020909120600290910201546001600160a01b03161480156131aa5750826004613186600184614040565b8154811061319657613196613984565b906000526020600020906002020160010154145b156131b9576000915050610d10565b806131c381614057565b915050613129565b505b604080518082019091526001600160a01b038481168252602082018481526004805460018101825560009190915292517f8a35acfbc15ff81a39ae7d344fd709f28e8600b4aa8c65c6b64bfe7fe36bd19b600290940293840180546001600160a01b0319169190931617909155517f8a35acfbc15ff81a39ae7d344fd709f28e8600b4aa8c65c6b64bfe7fe36bd19c9091015550600192915050565b6000546001600160a01b03163314610cce5760405162461bcd60e51b815260206004820152601f60248201527f416c6c6f77616e63653a2063616c6c6572206d757374206265204f776e6572006044820152606401610cc5565b600080546001600160a01b038381166001600160a01b0319831681178455604051919092169283917f8be0079c531659141344cd1fd0a4f28419497f9722a3daafe3b4186f6b6457e09190a35050565b600454600090815b8181101561241f57846001600160a01b03166004828154811061334057613340613984565b60009182526020909120600290910201546001600160a01b031614801561338a5750836004828154811061337657613376613984565b906000526020600020906002020160010154145b1561345d5761339a600183614040565b8110156134185760046133ae600184614040565b815481106133be576133be613984565b9060005260206000209060020201600482815481106133df576133df613984565b60009182526020909120825460029092020180546001600160a01b0319166001600160a01b039092169190911781556001918201549101555b600480548061342957613429614126565b60008281526020812060026000199093019283020180546001600160a01b0319168155600101559055600192505050610d10565b80613467816139ef565b91505061331b565b6005546000905b80156134d9576001600160a01b0383166005613493600184614040565b815481106134a3576134a3613984565b6000918252602090912001546001600160a01b031614156134c75750600092915050565b806134d181614057565b915050613476565b600580546001810182556000919091527f036b6384b5eca791c62761152d0c79bb0604c104a5fb6f4eb0703f3154bb3db00180546001600160a01b0319166001600160a01b03851617905550600192915050565b600061106473__$669c6e0eba2465bd6779ea6ec5db3af1b5$__630de874ed85856040518363ffffffff1660e01b8152600401611682929190613ae3565b60006001600160a01b03831661358357506001610d10565b73__$cc6df4ca04d157c820770f5225eff0121b$__633646b5486135a785856126eb565b6040518263ffffffff1660e01b8152600401612a109190613a97565b60075460009060ff16151582151514156135df57506000919050565b6007805460ff1916831515179055506001919050565b600554600090815b8181101561214c57836001600160a01b03166005828154811061362257613622613984565b6000918252602090912001546001600160a01b0316141561370457613648600183614040565b8110156136c757600561365c600184614040565b8154811061366c5761366c613984565b600091825260209091200154600580546001600160a01b03909216918390811061369857613698613984565b9060005260206000200160006101000a8154816001600160a01b0302191690836001600160a01b031602179055505b60058054806136d8576136d8614126565b600082815260209020810160001990810180546001600160a01b03191690550190555060019392505050565b8061370e816139ef565b9150506135fd565b600080613722836114db565b6040516314130a7960e31b815273__$669c6e0eba2465bd6779ea6ec5db3af1b5$__9163a09853c8916137589190600401613c5e565b6040805180830381865af4158015613774573d6000803e3d6000fd5b505050506040513d601f19601f82011682018060405250810190610e5c919061413c565b600654600090815b8181101561241f57846001600160a01b0316600682815481106137c5576137c5613984565b60009182526020909120600290910201546001600160a01b031614801561380f575083600682815481106137fb576137fb613984565b906000526020600020906002020160010154145b156138ae5761381f600183614040565b81101561389d576006613833600184614040565b8154811061384357613843613984565b90600052602060002090600202016006828154811061386457613864613984565b60009182526020909120825460029092020180546001600160a01b0319166001600160a01b039092169190911781556001918201549101555b600680548061342957613429614126565b806138b8816139ef565b9150506137a0565b8280546138cc90613e61565b90600052602060002090601f0160209004810192826138ee5760008555613934565b82601f1061390757805160ff1916838001178555613934565b82800160010185558215613934579182015b82811115613934578251825591602001919060010190613919565b50613940929150613944565b5090565b5b808211156139405760008155600101613945565b8015158114612b5f57600080fd5b60006020828403121561397957600080fd5b815161106481613959565b634e487b7160e01b600052603260045260246000fd5b6000602082840312156139ac57600080fd5b5051919050565b634e487b7160e01b600052602160045260246000fd5b8183823760009101908152919050565b634e487b7160e01b600052601160045260246000fd5b6000600019821415613a0357613a036139d9565b5060010190565b80356001600160e01b0319811681146114d657600080fd5b600060208284031215613a3457600080fd5b61106482613a0a565b6001600160a01b0381168114612b5f57600080fd5b60008060408385031215613a6557600080fd5b8235613a7081613a3d565b946020939093013593505050565b600060208284031215613a9057600080fd5b5035919050565b815160000b81526020808301511515908201526040808301516001600160401b03169082015260608101610d10565b600060208284031215613ad857600080fd5b813561106481613a3d565b6001600160a01b03929092168252602082015260400190565b60005b83811015613b17578181015183820152602001613aff565b83811115613b26576000848401525b50505050565b60008151808452613b44816020860160208601613afc565b601f01601f19169290920160200192915050565b6020815260006110646020830184613b2c565b634e487b7160e01b600052604160045260246000fd5b604051601f8201601f191681016001600160401b0381118282101715613ba957613ba9613b6b565b604052919050565b60006001600160401b03821115613bca57613bca613b6b565b50601f01601f191660200190565b6000613beb613be684613bb1565b613b81565b9050828152838383011115613bff57600080fd5b828260208301376000602084830101529392505050565b600060208284031215613c2857600080fd5b81356001600160401b03811115613c3e57600080fd5b8201601f81018413613c4f57600080fd5b610dcc84823560208401613bd8565b6020808252825182820181905260009190848201906040850190845b81811015613c9657835183529284019291840191600101613c7a565b50909695505050505050565b60008060408385031215613cb557600080fd5b823591506020830135613cc781613a3d565b809150509250929050565b60008060408385031215613ce557600080fd5b50508035926020909101359150565b6001600160401b0381168114612b5f57600080fd5b60008060408385031215613d1c57600080fd5b823591506020830135613cc781613cf4565b60006001600160401b03821115613d4757613d47613b6b565b5060051b60200190565b60006020808385031215613d6457600080fd5b82356001600160401b03811115613d7a57600080fd5b8301601f81018513613d8b57600080fd5b8035613d99613be682613d2e565b81815260059190911b82018301908381019087831115613db857600080fd5b928401925b82841015613dd657833582529284019290840190613dbd565b979650505050505050565b60008060408385031215613df457600080fd5b82359150613e0460208401613a0a565b90509250929050565b600060208284031215613e1f57600080fd5b813561106481613959565b60208082526017908201527f43757272656e6379206e6f742072656769737465726564000000000000000000604082015260600190565b600181811c90821680613e7557607f821691505b602082108114156113c557634e487b7160e01b600052602260045260246000fd5b60008251613ea8818460208701613afc565b9190910192915050565b60006020808385031215613ec557600080fd5b82516001600160401b03811115613edb57600080fd5b8301601f81018513613eec57600080fd5b8051613efa613be682613d2e565b81815260059190911b82018301908381019087831115613f1957600080fd5b928401925b82841015613dd657835182529284019290840190613f1e565b60008060408385031215613f4a57600080fd5b505080516020909101519092909150565b600060608284031215613f6d57600080fd5b604051606081018181106001600160401b0382111715613f8f57613f8f613b6b565b6040528251600081900b8114613fa457600080fd5b81526020830151613fb481613959565b60208201526040830151613fc781613cf4565b60408201529392505050565b634e487b7160e01b600052600160045260246000fd5b6001600160a01b03851681526020810184905260c0810161402f6040830185805160000b82526020808201511515908301526040908101516001600160401b0316910152565b82151560a083015295945050505050565b600082821015614052576140526139d9565b500390565b600081614066576140666139d9565b506000190190565b60006020828403121561408057600080fd5b815161106481613a3d565b6000806040838503121561409e57600080fd5b825191506020830151613cc781613a3d565b6000602082840312156140c257600080fd5b81516001600160401b038111156140d857600080fd5b8201601f810184136140e957600080fd5b80516140f7613be682613bb1565b81815285602083850101111561410c57600080fd5b61411d826020830160208601613afc565b95945050505050565b634e487b7160e01b600052603160045260246000fd5b6000806040838503121561414f57600080fd5b825161415a81613a3d565b602093909301519294929350505056fe68747470733a2f2f6769746875622e636f6d2f5061747269636b416c706861432f646566692d7374616b652d7969656c642d62726f776e69652d66726565636f64652f626c6f622f6d61696e2f66726f6e745f656e642f7372632f646170702e706e673f7261773d74727565ad3228b676f7d3cd4284a5443f17f1962b36e491b30a40b2405849e597ba5fb568747470733a2f2f7261772e67697468756275736572636f6e74656e742e636f6d2f5061747269636b416c706861432f646566692d7374616b652d7969656c642d62726f776e69652d66726565636f64652f6d61696e2f66726f6e745f656e642f7372632f6574682e706e673f7261773d74727565a2646970667358221220a40e95dcdb56b35918808928103515fac0a5662e7c46d4d7c4ec3dc813de760d64736f6c634300080b0033","language":"Solidity","natspec":{"methods":{"ownerOf()":{"details":"Returns the address of the current owner."},"renounceOwnership()":{"details":"Leaves the contract without owner. It will not be possible to call `onlyOwner` functions anymore. Can only be called by the current owner. NOTE: Renouncing ownership will leave the contract without an owner, thereby removing any functionality that is only available to the owner."},"transferOwnership(address)":{"details":"Transfers ownership of the contract to a new account (`newOwner`). Can only be called by the current owner."}},"kind":"dev","version":1},"opcodes":"PUSH1 0x80 PUSH1 0x40 MSTORE CALLVALUE DUP1 ISZERO PUSH2 0x10 JUMPI PUSH1 0x0 DUP1 REVERT JUMPDEST POP PUSH1 0x4 CALLDATASIZE LT PUSH2 0x3DB JUMPI PUSH1 0x0 CALLDATALOAD PUSH1 0xE0 SHR DUP1 PUSH4 0x75F890AB GT PUSH2 0x20A JUMPI DUP1 PUSH4 0xAD0FC0CC GT PUSH2 0x125 JUMPI DUP1 PUSH4 0xC5537EB7 GT PUSH2 0xB8 JUMPI DUP1 PUSH4 0xDBF5F2FD GT PUSH2 0x87 JUMPI DUP1 PUSH4 0xDBF5F2FD EQ PUSH2 0xBEB JUMPI DUP1 PUSH4 0xE50D1B3E EQ PUSH2 0xBFE JUMPI DUP1 PUSH4 0xE855A313 EQ PUSH2 0xC11 JUMPI DUP1 PUSH4 0xF2FDE38B EQ PUSH2 0xC24 JUMPI DUP1 PUSH4 0xF5DAB711 EQ PUSH2 0xC37 JUMPI PUSH2 0x3DB JUMP JUMPDEST DUP1 PUSH4 0xC5537EB7 EQ PUSH2 0xB9F JUMPI DUP1 PUSH4 0xC9C2A940 EQ PUSH2 0xBB2 JUMPI DUP1 PUSH4 0xD47A7EDD EQ PUSH2 0xBC5 JUMPI DUP1 PUSH4 0xD4945D0E EQ PUSH2 0xBD8 JUMPI PUSH2 0x3DB JUMP JUMPDEST DUP1 PUSH4 0xB72A4A71 GT PUSH2 0xF4 JUMPI DUP1 PUSH4 0xB72A4A71 EQ PUSH2 0xB53 JUMPI DUP1 PUSH4 0xBB7D88A9 EQ PUSH2 0xB66 JUMPI DUP1 PUSH4 0xC33470D3 EQ PUSH2 0xB79 JUMPI DUP1 PUSH4 0xC452E6B6 EQ PUSH2 0xB8C JUMPI PUSH2 0x3DB JUMP JUMPDEST DUP1 PUSH4 0xAD0FC0CC EQ PUSH2 0xAEA JUMPI DUP1 PUSH4 0xAD10A135 EQ PUSH2 0xAFD JUMPI DUP1 PUSH4 0xAF915585 EQ PUSH2 0xB10 JUMPI DUP1 PUSH4 0xB3054383 EQ PUSH2 0xB40 JUMPI PUSH2 0x3DB JUMP JUMPDEST DUP1 PUSH4 0x9870D7FE GT PUSH2 0x19D JUMPI DUP1 PUSH4 0xA9BF9858 GT PUSH2 0x16C JUMPI DUP1 PUSH4 0xA9BF9858 EQ PUSH2 0xA9E JUMPI DUP1 PUSH4 0xA9D46326 EQ PUSH2 0xAB1 JUMPI DUP1 PUSH4 0xABABADB5 EQ PUSH2 0xAC4 JUMPI DUP1 PUSH4 0xAC8A584A EQ PUSH2 0xAD7 JUMPI PUSH2 0x3DB JUMP JUMPDEST DUP1 PUSH4 0x9870D7FE EQ PUSH2 0xA52 JUMPI DUP1 PUSH4 0x9E9BB9C1 EQ PUSH2 0xA65 JUMPI DUP1 PUSH4 0xA663D4F5 EQ PUSH2 0xA78 JUMPI DUP1 PUSH4 0xA86EEB91 EQ PUSH2 0xA8B JUMPI PUSH2 0x3DB JUMP JUMPDEST DUP1 PUSH4 0x8D49D89B GT PUSH2 0x1D9 JUMPI DUP1 PUSH4 0x8D49D89B EQ PUSH2 0x9F2 JUMPI DUP1 PUSH4 0x8DA5CB5B EQ PUSH2 0xA05 JUMPI DUP1 PUSH4 0x8EAA6AC0 EQ PUSH2 0xA16 JUMPI DUP1 PUSH4 0x95B5D584 EQ PUSH2 0xA3F JUMPI PUSH2 0x3DB JUMP JUMPDEST DUP1 PUSH4 0x75F890AB EQ PUSH2 0x9AE JUMPI DUP1 PUSH4 0x81B2490B EQ PUSH2 0x9C1 JUMPI DUP1 PUSH4 0x83350075 EQ PUSH2 0x9D4 JUMPI DUP1 PUSH4 0x89765F59 EQ PUSH2 0x9DF JUMPI PUSH2 0x3DB JUMP JUMPDEST DUP1 PUSH4 0x38A699A4 GT PUSH2 0x2FA JUMPI DUP1 PUSH4 0x5B62CB70 GT PUSH2 0x28D JUMPI DUP1 PUSH4 0x67C51DFC GT PUSH2 0x25C JUMPI DUP1 PUSH4 0x67C51DFC EQ PUSH2 0x96D JUMPI DUP1 PUSH4 0x6D70F7AE EQ PUSH2 0x980 JUMPI DUP1 PUSH4 0x6F457683 EQ PUSH2 0x993 JUMPI DUP1 PUSH4 0x715018A6 EQ PUSH2 0x9A6 JUMPI PUSH2 0x3DB JUMP JUMPDEST DUP1 PUSH4 0x5B62CB70 EQ PUSH2 0x915 JUMPI DUP1 PUSH4 0x5F5C5BAA EQ PUSH2 0x928 JUMPI DUP1 PUSH4 0x61E99FFB EQ PUSH2 0x932 JUMPI DUP1 PUSH4 0x657C7E09 EQ PUSH2 0x945 JUMPI PUSH2 0x3DB JUMP JUMPDEST DUP1 PUSH4 0x509FF69B GT PUSH2 0x2C9 JUMPI DUP1 PUSH4 0x509FF69B EQ PUSH2 0x8C9 JUMPI DUP1 PUSH4 0x552CDF98 EQ PUSH2 0x8DC JUMPI DUP1 PUSH4 0x5768BBB5 EQ PUSH2 0x8EF JUMPI DUP1 PUSH4 0x589E6A98 EQ PUSH2 0x902 JUMPI PUSH2 0x3DB JUMP JUMPDEST DUP1 PUSH4 0x38A699A4 EQ PUSH2 0x87C JUMPI DUP1 PUSH4 0x4329598C EQ PUSH2 0x78B JUMPI DUP1 PUSH4 0x4635229B EQ PUSH2 0x88F JUMPI DUP1 PUSH4 0x4F79B792 EQ PUSH2 0x8B6 JUMPI PUSH2 0x3DB JUMP JUMPDEST DUP1 PUSH4 0x16279055 GT PUSH2 0x372 JUMPI DUP1 PUSH4 0x24ACE672 GT PUSH2 0x341 JUMPI DUP1 PUSH4 0x24ACE672 EQ PUSH2 0x80F JUMPI DUP1 PUSH4 0x2558A079 EQ PUSH2 0x822 JUMPI DUP1 PUSH4 0x27EE9DC2 EQ PUSH2 0x849 JUMPI DUP1 PUSH4 0x2F54BF6E EQ PUSH2 0x869 JUMPI PUSH2 0x3DB JUMP JUMPDEST DUP1 PUSH4 0x16279055 EQ PUSH2 0x7AB JUMPI DUP1 PUSH4 0x184BC906 EQ PUSH2 0x7BE JUMPI DUP1 PUSH4 0x18D54CF3 EQ PUSH2 0x7E9 JUMPI DUP1 PUSH4 0x1D7A3B72 EQ PUSH2 0x7FC JUMPI PUSH2 0x3DB JUMP JUMPDEST DUP1 PUSH4 0x7D61085 GT PUSH2 0x3AE JUMPI DUP1 PUSH4 0x7D61085 EQ PUSH2 0x744 JUMPI DUP1 PUSH4 0xEA94B96 EQ PUSH2 0x757 JUMPI DUP1 PUSH4 0x120F6EE3 EQ PUSH2 0x778 JUMPI DUP1 PUSH4 0x12CAE67B EQ PUSH2 0x78B JUMPI PUSH2 0x3DB JUMP JUMPDEST DUP1 PUSH4 0x1FFC9A7 EQ PUSH2 0x6B0 JUMPI DUP1 PUSH4 0x221C7DE EQ PUSH2 0x6D8 JUMPI DUP1 PUSH4 0x3565EA1 EQ PUSH2 0x703 JUMPI DUP1 PUSH4 0x36995DF EQ PUSH2 0x723 JUMPI JUMPDEST PUSH2 0x3E3 PUSH2 0xC4A JUMP JUMPDEST PUSH1 0x40 MLOAD PUSH4 0x825998C1 PUSH1 0xE0 SHL DUP2 MSTORE PUSH1 0xD PUSH1 0x4 DUP3 ADD MSTORE PUSH1 0x0 CALLDATALOAD PUSH1 0x1 PUSH1 0x1 PUSH1 0xE0 SHL SUB NOT AND PUSH1 0x24 DUP3 ADD MSTORE PUSH20 0x0 SWAP1 PUSH4 0x825998C1 SWAP1 PUSH1 0x44 ADD PUSH1 0x20 PUSH1 0x40 MLOAD DUP1 DUP4 SUB DUP2 DUP7 GAS DELEGATECALL ISZERO DUP1 ISZERO PUSH2 0x445 JUMPI RETURNDATASIZE PUSH1 0x0 DUP1 RETURNDATACOPY RETURNDATASIZE PUSH1 0x0 REVERT JUMPDEST POP POP POP POP PUSH1 0x40 MLOAD RETURNDATASIZE PUSH1 0x1F NOT PUSH1 0x1F DUP3 ADD AND DUP3 ADD DUP1 PUSH1 0x40 MSTORE POP DUP2 ADD SWAP1 PUSH2 0x469 SWAP2 SWAP1 PUSH2 0x3967 JUMP JUMPDEST POP PUSH1 0x0 JUMPDEST PUSH1 0xA SLOAD DUP2 LT ISZERO PUSH2 0x6AD JUMPI CALLER PUSH1 0x1 PUSH1 0x1 PUSH1 0xA0 SHL SUB AND PUSH1 0xA DUP3 DUP2 SLOAD DUP2 LT PUSH2 0x494 JUMPI PUSH2 0x494 PUSH2 0x3984 JUMP JUMPDEST PUSH1 0x0 SWAP2 DUP3 MSTORE PUSH1 0x20 SWAP1 SWAP2 KECCAK256 ADD SLOAD PUSH1 0x1 PUSH1 0x1 PUSH1 0xA0 SHL SUB AND EQ ISZERO PUSH2 0x4B4 JUMPI PUSH2 0x69B JUMP JUMPDEST PUSH1 0x0 PUSH1 0xA DUP3 DUP2 SLOAD DUP2 LT PUSH2 0x4C9 JUMPI PUSH2 0x4C9 PUSH2 0x3984 JUMP JUMPDEST PUSH1 0x0 SWAP2 DUP3 MSTORE PUSH1 0x20 SWAP2 DUP3 SWAP1 KECCAK256 ADD SLOAD PUSH1 0x40 DUP1 MLOAD PUSH4 0xAF640D0F PUSH1 0xE0 SHL DUP2 MSTORE SWAP1 MLOAD PUSH1 0x1 PUSH1 0x1 PUSH1 0xA0 SHL SUB SWAP1 SWAP3 AND SWAP3 PUSH4 0xAF640D0F SWAP3 PUSH1 0x4 DUP1 DUP5 ADD SWAP4 DUP3 SWAP1 SUB ADD DUP2 DUP7 GAS STATICCALL ISZERO DUP1 ISZERO PUSH2 0x517 JUMPI RETURNDATASIZE PUSH1 0x0 DUP1 RETURNDATACOPY RETURNDATASIZE PUSH1 0x0 REVERT JUMPDEST POP POP POP POP PUSH1 0x40 MLOAD RETURNDATASIZE PUSH1 0x1F NOT PUSH1 0x1F DUP3 ADD AND DUP3 ADD DUP1 PUSH1 0x40 MSTORE POP DUP2 ADD SWAP1 PUSH2 0x53B SWAP2 SWAP1 PUSH2 0x399A JUMP JUMPDEST SWAP1 POP PUSH1 0x1 PUSH1 0x0 DUP3 DUP2 MSTORE PUSH1 0xC PUSH1 0x20 SWAP1 DUP2 MSTORE PUSH1 0x40 DUP1 DUP4 KECCAK256 PUSH1 0x1 PUSH1 0x1 PUSH1 0xE0 SHL SUB NOT DUP5 CALLDATALOAD AND DUP5 MSTORE SWAP1 SWAP2 MSTORE SWAP1 KECCAK256 SLOAD PUSH1 0xFF AND PUSH1 0x2 DUP2 GT ISZERO PUSH2 0x578 JUMPI PUSH2 0x578 PUSH2 0x39B3 JUMP JUMPDEST EQ ISZERO PUSH2 0x584 JUMPI POP PUSH2 0x69B JUMP JUMPDEST PUSH1 0x0 PUSH1 0xA DUP4 DUP2 SLOAD DUP2 LT PUSH2 0x599 JUMPI PUSH2 0x599 PUSH2 0x3984 JUMP JUMPDEST PUSH1 0x0 SWAP2 DUP3 MSTORE PUSH1 0x20 DUP3 KECCAK256 ADD SLOAD PUSH1 0x40 MLOAD PUSH1 0x1 PUSH1 0x1 PUSH1 0xA0 SHL SUB SWAP1 SWAP2 AND SWAP2 PUSH2 0x5BE SWAP2 CALLDATASIZE SWAP1 PUSH2 0x39C9 JUMP JUMPDEST PUSH1 0x0 PUSH1 0x40 MLOAD DUP1 DUP4 SUB DUP2 PUSH1 0x0 DUP7 GAS CALL SWAP2 POP POP RETURNDATASIZE DUP1 PUSH1 0x0 DUP2 EQ PUSH2 0x5FB JUMPI PUSH1 0x40 MLOAD SWAP2 POP PUSH1 0x1F NOT PUSH1 0x3F RETURNDATASIZE ADD AND DUP3 ADD PUSH1 0x40 MSTORE RETURNDATASIZE DUP3 MSTORE RETURNDATASIZE PUSH1 0x0 PUSH1 0x20 DUP5 ADD RETURNDATACOPY PUSH2 0x600 JUMP JUMPDEST PUSH1 0x60 SWAP2 POP JUMPDEST POP POP PUSH1 0x0 DUP4 DUP2 MSTORE PUSH1 0xC PUSH1 0x20 SWAP1 DUP2 MSTORE PUSH1 0x40 DUP1 DUP4 KECCAK256 DUP4 CALLDATALOAD PUSH1 0x1 PUSH1 0x1 PUSH1 0xE0 SHL SUB NOT AND DUP5 MSTORE SWAP1 SWAP2 MSTORE DUP2 KECCAK256 SLOAD SWAP2 SWAP3 POP SWAP1 PUSH1 0xFF AND PUSH1 0x2 DUP2 GT ISZERO PUSH2 0x63F JUMPI PUSH2 0x63F PUSH2 0x39B3 JUMP JUMPDEST EQ ISZERO PUSH2 0x698 JUMPI DUP1 PUSH2 0x651 JUMPI PUSH1 0x1 PUSH2 0x654 JUMP JUMPDEST PUSH1 0x2 JUMPDEST PUSH1 0x0 DUP4 DUP2 MSTORE PUSH1 0xC PUSH1 0x20 SWAP1 DUP2 MSTORE PUSH1 0x40 DUP1 DUP4 KECCAK256 PUSH1 0x1 PUSH1 0x1 PUSH1 0xE0 SHL SUB NOT DUP5 CALLDATALOAD AND DUP5 MSTORE SWAP1 SWAP2 MSTORE SWAP1 KECCAK256 DUP1 SLOAD PUSH1 0xFF NOT AND PUSH1 0x1 DUP4 PUSH1 0x2 DUP2 GT ISZERO PUSH2 0x692 JUMPI PUSH2 0x692 PUSH2 0x39B3 JUMP JUMPDEST MUL OR SWAP1 SSTORE POP JUMPDEST POP POP JUMPDEST DUP1 PUSH2 0x6A5 DUP2 PUSH2 0x39EF JUMP JUMPDEST SWAP2 POP POP PUSH2 0x46D JUMP JUMPDEST POP STOP JUMPDEST PUSH2 0x6C3 PUSH2 0x6BE CALLDATASIZE PUSH1 0x4 PUSH2 0x3A22 JUMP JUMPDEST PUSH2 0xCD0 JUMP JUMPDEST PUSH1 0x40 MLOAD SWAP1 ISZERO ISZERO DUP2 MSTORE PUSH1 0x20 ADD JUMPDEST PUSH1 0x40 MLOAD DUP1 SWAP2 SUB SWAP1 RETURN JUMPDEST PUSH2 0x6EB PUSH2 0x6E6 CALLDATASIZE PUSH1 0x4 PUSH2 0x3A52 JUMP JUMPDEST PUSH2 0xD16 JUMP JUMPDEST PUSH1 0x40 MLOAD PUSH1 0x1 PUSH1 0x1 PUSH1 0x40 SHL SUB SWAP1 SWAP2 AND DUP2 MSTORE PUSH1 0x20 ADD PUSH2 0x6CF JUMP JUMPDEST PUSH2 0x716 PUSH2 0x711 CALLDATASIZE PUSH1 0x4 PUSH2 0x3A7E JUMP JUMPDEST PUSH2 0xD43 JUMP JUMPDEST PUSH1 0x40 MLOAD PUSH2 0x6CF SWAP2 SWAP1 PUSH2 0x3A97 JUMP JUMPDEST PUSH2 0x736 PUSH2 0x731 CALLDATASIZE PUSH1 0x4 PUSH2 0x3AC6 JUMP JUMPDEST PUSH2 0xDD4 JUMP JUMPDEST PUSH1 0x40 MLOAD SWAP1 DUP2 MSTORE PUSH1 0x20 ADD PUSH2 0x6CF JUMP JUMPDEST PUSH2 0x6C3 PUSH2 0x752 CALLDATASIZE PUSH1 0x4 PUSH2 0x3A7E JUMP JUMPDEST PUSH2 0xDE1 JUMP JUMPDEST PUSH2 0x76A PUSH2 0x765 CALLDATASIZE PUSH1 0x4 PUSH2 0x3A7E JUMP JUMPDEST PUSH2 0xE0A JUMP JUMPDEST PUSH1 0x40 MLOAD PUSH2 0x6CF SWAP3 SWAP2 SWAP1 PUSH2 0x3AE3 JUMP JUMPDEST PUSH2 0x6EB PUSH2 0x786 CALLDATASIZE PUSH1 0x4 PUSH2 0x3A7E JUMP JUMPDEST PUSH2 0xE65 JUMP JUMPDEST PUSH2 0x79E PUSH2 0x799 CALLDATASIZE PUSH1 0x4 PUSH2 0x3A7E JUMP JUMPDEST PUSH2 0xEB7 JUMP JUMPDEST PUSH1 0x40 MLOAD PUSH2 0x6CF SWAP2 SWAP1 PUSH2 0x3B58 JUMP JUMPDEST PUSH2 0x6C3 PUSH2 0x7B9 CALLDATASIZE PUSH1 0x4 PUSH2 0x3AC6 JUMP JUMPDEST PUSH2 0xF59 JUMP JUMPDEST PUSH2 0x7D1 PUSH2 0x7CC CALLDATASIZE PUSH1 0x4 PUSH2 0x3A7E JUMP JUMPDEST PUSH2 0xFF8 JUMP JUMPDEST PUSH1 0x40 MLOAD PUSH1 0x1 PUSH1 0x1 PUSH1 0xA0 SHL SUB SWAP1 SWAP2 AND DUP2 MSTORE PUSH1 0x20 ADD PUSH2 0x6CF JUMP JUMPDEST PUSH2 0x6C3 PUSH2 0x7F7 CALLDATASIZE PUSH1 0x4 PUSH2 0x3A52 JUMP JUMPDEST PUSH2 0x1050 JUMP JUMPDEST PUSH2 0x79E PUSH2 0x80A CALLDATASIZE PUSH1 0x4 PUSH2 0x3A52 JUMP JUMPDEST PUSH2 0x106B JUMP JUMPDEST PUSH2 0x736 PUSH2 0x81D CALLDATASIZE PUSH1 0x4 PUSH2 0x3C16 JUMP JUMPDEST PUSH2 0x1379 JUMP JUMPDEST PUSH2 0x736 PUSH32 0x0 DUP2 JUMP JUMPDEST PUSH2 0x85C PUSH2 0x857 CALLDATASIZE PUSH1 0x4 PUSH2 0x3A7E JUMP JUMPDEST PUSH2 0x14DB JUMP JUMPDEST PUSH1 0x40 MLOAD PUSH2 0x6CF SWAP2 SWAP1 PUSH2 0x3C5E JUMP JUMPDEST PUSH2 0x6C3 PUSH2 0x877 CALLDATASIZE PUSH1 0x4 PUSH2 0x3AC6 JUMP JUMPDEST PUSH2 0x1561 JUMP JUMPDEST PUSH2 0x6C3 PUSH2 0x88A CALLDATASIZE PUSH1 0x4 PUSH2 0x3A7E JUMP JUMPDEST PUSH2 0x1588 JUMP JUMPDEST PUSH2 0x6C3 PUSH32 0x0 DUP2 JUMP JUMPDEST PUSH2 0x736 PUSH2 0x8C4 CALLDATASIZE PUSH1 0x4 PUSH2 0x3A52 JUMP JUMPDEST PUSH2 0x1593 JUMP JUMPDEST PUSH2 0x736 PUSH2 0x8D7 CALLDATASIZE PUSH1 0x4 PUSH2 0x3A52 JUMP JUMPDEST PUSH2 0x15C6 JUMP JUMPDEST PUSH2 0x6C3 PUSH2 0x8EA CALLDATASIZE PUSH1 0x4 PUSH2 0x3A52 JUMP JUMPDEST PUSH2 0x160B JUMP JUMPDEST PUSH2 0x736 PUSH2 0x8FD CALLDATASIZE PUSH1 0x4 PUSH2 0x3CA2 JUMP JUMPDEST PUSH2 0x1638 JUMP JUMPDEST PUSH2 0x736 PUSH2 0x910 CALLDATASIZE PUSH1 0x4 PUSH2 0x3C16 JUMP JUMPDEST PUSH2 0x16C7 JUMP JUMPDEST PUSH2 0x6C3 PUSH2 0x923 CALLDATASIZE PUSH1 0x4 PUSH2 0x3AC6 JUMP JUMPDEST PUSH2 0x16D2 JUMP JUMPDEST PUSH2 0x930 PUSH2 0x16DD JUMP JUMPDEST STOP JUMPDEST PUSH2 0x736 PUSH2 0x940 CALLDATASIZE PUSH1 0x4 PUSH2 0x3CD2 JUMP JUMPDEST PUSH2 0x175C JUMP JUMPDEST PUSH2 0x958 PUSH2 0x953 CALLDATASIZE PUSH1 0x4 PUSH2 0x3A7E JUMP JUMPDEST PUSH2 0x17A2 JUMP JUMPDEST PUSH1 0x40 DUP1 MLOAD SWAP3 DUP4 MSTORE PUSH1 0x20 DUP4 ADD SWAP2 SWAP1 SWAP2 MSTORE ADD PUSH2 0x6CF JUMP JUMPDEST PUSH2 0x6C3 PUSH2 0x97B CALLDATASIZE PUSH1 0x4 PUSH2 0x3A52 JUMP JUMPDEST PUSH2 0x1824 JUMP JUMPDEST PUSH2 0x6C3 PUSH2 0x98E CALLDATASIZE PUSH1 0x4 PUSH2 0x3AC6 JUMP JUMPDEST PUSH2 0x1838 JUMP JUMPDEST PUSH2 0x930 PUSH2 0x9A1 CALLDATASIZE PUSH1 0x4 PUSH2 0x3A52 JUMP JUMPDEST PUSH2 0x189A JUMP JUMPDEST PUSH2 0x930 PUSH2 0x1D36 JUMP JUMPDEST PUSH2 0x930 PUSH2 0x9BC CALLDATASIZE PUSH1 0x4 PUSH2 0x3AC6 JUMP JUMPDEST PUSH2 0x1D48 JUMP JUMPDEST PUSH2 0x6C3 PUSH2 0x9CF CALLDATASIZE PUSH1 0x4 PUSH2 0x3A52 JUMP JUMPDEST PUSH2 0x2021 JUMP JUMPDEST PUSH1 0x7 SLOAD PUSH1 0xFF AND PUSH2 0x6C3 JUMP JUMPDEST PUSH2 0x6C3 PUSH2 0x9ED CALLDATASIZE PUSH1 0x4 PUSH2 0x3A52 JUMP JUMPDEST PUSH2 0x2156 JUMP JUMPDEST PUSH2 0x6EB PUSH2 0xA00 CALLDATASIZE PUSH1 0x4 PUSH2 0x3AC6 JUMP JUMPDEST PUSH2 0x216A JUMP JUMPDEST PUSH1 0x0 SLOAD PUSH1 0x1 PUSH1 0x1 PUSH1 0xA0 SHL SUB AND PUSH2 0x7D1 JUMP JUMPDEST PUSH2 0x7D1 PUSH2 0xA24 CALLDATASIZE PUSH1 0x4 PUSH2 0x3A7E JUMP JUMPDEST PUSH1 0x0 SWAP1 DUP2 MSTORE PUSH1 0x9 PUSH1 0x20 MSTORE PUSH1 0x40 SWAP1 KECCAK256 SLOAD PUSH1 0x1 PUSH1 0x1 PUSH1 0xA0 SHL SUB AND SWAP1 JUMP JUMPDEST PUSH2 0x6C3 PUSH2 0xA4D CALLDATASIZE PUSH1 0x4 PUSH2 0x3AC6 JUMP JUMPDEST PUSH2 0x2177 JUMP JUMPDEST PUSH2 0x930 PUSH2 0xA60 CALLDATASIZE PUSH1 0x4 PUSH2 0x3AC6 JUMP JUMPDEST PUSH2 0x218A JUMP JUMPDEST PUSH2 0x79E PUSH2 0xA73 CALLDATASIZE PUSH1 0x4 PUSH2 0x3A7E JUMP JUMPDEST PUSH2 0x221A JUMP JUMPDEST PUSH2 0x6C3 PUSH2 0xA86 CALLDATASIZE PUSH1 0x4 PUSH2 0x3D09 JUMP JUMPDEST PUSH2 0x2283 JUMP JUMPDEST PUSH2 0x736 PUSH2 0xA99 CALLDATASIZE PUSH1 0x4 PUSH2 0x3A52 JUMP JUMPDEST PUSH2 0x22AD JUMP JUMPDEST PUSH2 0x736 PUSH2 0xAAC CALLDATASIZE PUSH1 0x4 PUSH2 0x3A7E JUMP JUMPDEST PUSH2 0x22B9 JUMP JUMPDEST PUSH2 0x79E PUSH2 0xABF CALLDATASIZE PUSH1 0x4 PUSH2 0x3AC6 JUMP JUMPDEST PUSH2 0x230B JUMP JUMPDEST PUSH2 0x6C3 PUSH2 0xAD2 CALLDATASIZE PUSH1 0x4 PUSH2 0x3A52 JUMP JUMPDEST PUSH2 0x2318 JUMP JUMPDEST PUSH2 0x930 PUSH2 0xAE5 CALLDATASIZE PUSH1 0x4 PUSH2 0x3AC6 JUMP JUMPDEST PUSH2 0x242A JUMP JUMPDEST PUSH2 0x6C3 PUSH2 0xAF8 CALLDATASIZE PUSH1 0x4 PUSH2 0x3A52 JUMP JUMPDEST PUSH2 0x2479 JUMP JUMPDEST PUSH2 0x6C3 PUSH2 0xB0B CALLDATASIZE PUSH1 0x4 PUSH2 0x3A52 JUMP JUMPDEST PUSH2 0x259C JUMP JUMPDEST PUSH2 0xB23 PUSH2 0xB1E CALLDATASIZE PUSH1 0x4 PUSH2 0x3A7E JUMP JUMPDEST PUSH2 0x25DA JUMP JUMPDEST PUSH1 0x40 DUP1 MLOAD SWAP3 DUP4 MSTORE PUSH1 0x1 PUSH1 0x1 PUSH1 0xA0 SHL SUB SWAP1 SWAP2 AND PUSH1 0x20 DUP4 ADD MSTORE ADD PUSH2 0x6CF JUMP JUMPDEST PUSH2 0x736 PUSH2 0xB4E CALLDATASIZE PUSH1 0x4 PUSH2 0x3D51 JUMP JUMPDEST PUSH2 0x265C JUMP JUMPDEST PUSH2 0x736 PUSH2 0xB61 CALLDATASIZE PUSH1 0x4 PUSH2 0x3A52 JUMP JUMPDEST PUSH2 0x26DF JUMP JUMPDEST PUSH2 0x716 PUSH2 0xB74 CALLDATASIZE PUSH1 0x4 PUSH2 0x3A52 JUMP JUMPDEST PUSH2 0x26EB JUMP JUMPDEST PUSH2 0x6C3 PUSH2 0xB87 CALLDATASIZE PUSH1 0x4 PUSH2 0x3DE1 JUMP JUMPDEST PUSH2 0x28E3 JUMP JUMPDEST PUSH2 0x6C3 PUSH2 0xB9A CALLDATASIZE PUSH1 0x4 PUSH2 0x3AC6 JUMP JUMPDEST PUSH2 0x297A JUMP JUMPDEST PUSH2 0x6C3 PUSH2 0xBAD CALLDATASIZE PUSH1 0x4 PUSH2 0x3D09 JUMP JUMPDEST PUSH2 0x2987 JUMP JUMPDEST PUSH2 0x736 PUSH2 0xBC0 CALLDATASIZE PUSH1 0x4 PUSH2 0x3A52 JUMP JUMPDEST PUSH2 0x29A6 JUMP JUMPDEST PUSH2 0x6C3 PUSH2 0xBD3 CALLDATASIZE PUSH1 0x4 PUSH2 0x3A7E JUMP JUMPDEST PUSH2 0x2A51 JUMP JUMPDEST PUSH2 0x6C3 PUSH2 0xBE6 CALLDATASIZE PUSH1 0x4 PUSH2 0x3E0D JUMP JUMPDEST PUSH2 0x2AA3 JUMP JUMPDEST PUSH2 0x6C3 PUSH2 0xBF9 CALLDATASIZE PUSH1 0x4 PUSH2 0x3AC6 JUMP JUMPDEST PUSH2 0x2AB6 JUMP JUMPDEST PUSH2 0x76A PUSH2 0xC0C CALLDATASIZE PUSH1 0x4 PUSH2 0x3A7E JUMP JUMPDEST PUSH2 0x2AC9 JUMP JUMPDEST PUSH2 0x6C3 PUSH2 0xC1F CALLDATASIZE PUSH1 0x4 PUSH2 0x3A52 JUMP JUMPDEST PUSH2 0x2AD5 JUMP JUMPDEST PUSH2 0x930 PUSH2 0xC32 CALLDATASIZE PUSH1 0x4 PUSH2 0x3AC6 JUMP JUMPDEST PUSH2 0x2AE9 JUMP JUMPDEST PUSH2 0x716 PUSH2 0xC45 CALLDATASIZE PUSH1 0x4 PUSH2 0x3AC6 JUMP JUMPDEST PUSH2 0x2B62 JUMP JUMPDEST PUSH1 0x0 SLOAD PUSH1 0x1 PUSH1 0x1 PUSH1 0xA0 SHL SUB AND CALLER EQ DUP1 PUSH2 0xC67 JUMPI POP PUSH2 0xC67 CALLER PUSH2 0xF59 JUMP JUMPDEST PUSH2 0xCCE JUMPI PUSH1 0x40 MLOAD PUSH3 0x461BCD PUSH1 0xE5 SHL DUP2 MSTORE PUSH1 0x20 PUSH1 0x4 DUP3 ADD MSTORE PUSH1 0x2D PUSH1 0x24 DUP3 ADD MSTORE PUSH32 0x416C6C6F77616E63653A2063616C6C6572206D757374206265205265706F7369 PUSH1 0x44 DUP3 ADD MSTORE PUSH13 0x1D1BDC9E4810DBDB9D1C9858DD PUSH1 0x9A SHL PUSH1 0x64 DUP3 ADD MSTORE PUSH1 0x84 ADD JUMPDEST PUSH1 0x40 MLOAD DUP1 SWAP2 SUB SWAP1 REVERT JUMPDEST JUMP JUMPDEST PUSH1 0x0 PUSH1 0x1 PUSH1 0x1 PUSH1 0xE0 SHL SUB NOT DUP3 AND PUSH4 0x1FFC9A7 PUSH1 0xE0 SHL EQ DUP1 PUSH2 0xD01 JUMPI POP PUSH4 0x5B62CB7 PUSH1 0xE4 SHL PUSH1 0x1 PUSH1 0x1 PUSH1 0xE0 SHL SUB NOT DUP4 AND EQ JUMPDEST DUP1 PUSH2 0xD10 JUMPI POP PUSH2 0xD10 DUP3 PUSH2 0x2B8A JUMP JUMPDEST SWAP3 SWAP2 POP POP JUMP JUMPDEST PUSH1 0x0 PUSH1 0x1 PUSH1 0x1 PUSH1 0xA0 SHL SUB DUP4 AND PUSH2 0xD2E JUMPI POP PUSH1 0x1 PUSH2 0xD10 JUMP JUMPDEST PUSH2 0xD38 DUP4 DUP4 PUSH2 0x26EB JUMP JUMPDEST PUSH1 0x40 ADD MLOAD SWAP4 SWAP3 POP POP POP JUMP JUMPDEST PUSH1 0x40 DUP1 MLOAD PUSH1 0x60 DUP2 ADD DUP3 MSTORE PUSH1 0x0 DUP1 DUP3 MSTORE PUSH1 0x20 DUP3 ADD DUP2 SWAP1 MSTORE SWAP2 DUP2 ADD SWAP2 SWAP1 SWAP2 MSTORE PUSH1 0x0 DUP1 MLOAD PUSH1 0x20 PUSH2 0x41D7 DUP4 CODECOPY DUP2 MLOAD SWAP2 MSTORE DUP3 EQ ISZERO PUSH2 0xD81 JUMPI PUSH2 0xD10 PUSH1 0x0 DUP1 PUSH2 0x26EB JUMP JUMPDEST PUSH2 0xD8A DUP3 PUSH2 0xDE1 JUMP JUMPDEST PUSH2 0xDB2 JUMPI POP POP PUSH1 0x40 DUP1 MLOAD PUSH1 0x60 DUP2 ADD DUP3 MSTORE PUSH1 0x11 NOT DUP2 MSTORE PUSH1 0x0 PUSH1 0x20 DUP3 ADD DUP2 SWAP1 MSTORE SWAP2 DUP2 ADD SWAP2 SWAP1 SWAP2 MSTORE SWAP1 JUMP JUMPDEST PUSH1 0x0 DUP1 PUSH2 0xDBE DUP5 PUSH2 0xE0A JUMP JUMPDEST SWAP2 POP SWAP2 POP PUSH2 0xDCC DUP3 DUP3 PUSH2 0x26EB JUMP JUMPDEST SWAP5 SWAP4 POP POP POP POP JUMP JUMPDEST PUSH1 0x0 PUSH2 0xD10 DUP3 PUSH1 0x0 PUSH2 0x26DF JUMP JUMPDEST PUSH1 0x0 PUSH1 0x0 DUP1 MLOAD PUSH1 0x20 PUSH2 0x41D7 DUP4 CODECOPY DUP2 MLOAD SWAP2 MSTORE DUP3 EQ ISZERO PUSH2 0xE01 JUMPI POP PUSH1 0x1 SWAP2 SWAP1 POP JUMP JUMPDEST PUSH2 0xD10 DUP3 PUSH2 0x1588 JUMP JUMPDEST PUSH1 0x0 DUP1 PUSH1 0x0 DUP1 MLOAD PUSH1 0x20 PUSH2 0x41D7 DUP4 CODECOPY DUP2 MLOAD SWAP2 MSTORE DUP4 EQ ISZERO PUSH2 0xE2E JUMPI POP PUSH1 0x0 SWAP3 DUP4 SWAP3 POP SWAP1 POP JUMP JUMPDEST PUSH2 0xE37 DUP4 PUSH2 0x1588 JUMP JUMPDEST PUSH2 0xE53 JUMPI PUSH1 0x40 MLOAD PUSH3 0x461BCD PUSH1 0xE5 SHL DUP2 MSTORE PUSH1 0x4 ADD PUSH2 0xCC5 SWAP1 PUSH2 0x3E2A JUMP JUMPDEST PUSH2 0xE5C DUP4 PUSH2 0x2AC9 JUMP JUMPDEST SWAP2 POP SWAP2 POP SWAP2 POP SWAP2 JUMP JUMPDEST PUSH1 0x0 PUSH1 0x0 DUP1 MLOAD PUSH1 0x20 PUSH2 0x41D7 DUP4 CODECOPY DUP2 MLOAD SWAP2 MSTORE DUP3 EQ ISZERO PUSH2 0xE88 JUMPI PUSH2 0xD10 PUSH1 0x0 DUP1 PUSH2 0xD16 JUMP JUMPDEST PUSH2 0xE91 DUP3 PUSH2 0xDE1 JUMP JUMPDEST PUSH2 0xE9D JUMPI POP PUSH1 0x0 SWAP2 SWAP1 POP JUMP JUMPDEST PUSH1 0x0 DUP1 PUSH2 0xEA9 DUP5 PUSH2 0xE0A JUMP JUMPDEST SWAP2 POP SWAP2 POP PUSH2 0xDCC DUP3 DUP3 PUSH2 0xD16 JUMP JUMPDEST PUSH1 0x0 DUP2 DUP2 MSTORE PUSH1 0x8 PUSH1 0x20 MSTORE PUSH1 0x40 SWAP1 KECCAK256 DUP1 SLOAD PUSH1 0x60 SWAP2 SWAP1 PUSH2 0xED4 SWAP1 PUSH2 0x3E61 JUMP JUMPDEST DUP1 PUSH1 0x1F ADD PUSH1 0x20 DUP1 SWAP2 DIV MUL PUSH1 0x20 ADD PUSH1 0x40 MLOAD SWAP1 DUP2 ADD PUSH1 0x40 MSTORE DUP1 SWAP3 SWAP2 SWAP1 DUP2 DUP2 MSTORE PUSH1 0x20 ADD DUP3 DUP1 SLOAD PUSH2 0xF00 SWAP1 PUSH2 0x3E61 JUMP JUMPDEST DUP1 ISZERO PUSH2 0xF4D JUMPI DUP1 PUSH1 0x1F LT PUSH2 0xF22 JUMPI PUSH2 0x100 DUP1 DUP4 SLOAD DIV MUL DUP4 MSTORE SWAP2 PUSH1 0x20 ADD SWAP2 PUSH2 0xF4D JUMP JUMPDEST DUP3 ADD SWAP2 SWAP1 PUSH1 0x0 MSTORE PUSH1 0x20 PUSH1 0x0 KECCAK256 SWAP1 JUMPDEST DUP2 SLOAD DUP2 MSTORE SWAP1 PUSH1 0x1 ADD SWAP1 PUSH1 0x20 ADD DUP1 DUP4 GT PUSH2 0xF30 JUMPI DUP3 SWAP1 SUB PUSH1 0x1F AND DUP3 ADD SWAP2 JUMPDEST POP POP POP POP POP SWAP1 POP SWAP2 SWAP1 POP JUMP JUMPDEST PUSH1 0x0 PUSH1 0x1 PUSH1 0x1 PUSH1 0xA0 SHL SUB DUP3 AND ADDRESS EQ ISZERO PUSH2 0xF74 JUMPI POP PUSH1 0x1 SWAP2 SWAP1 POP JUMP JUMPDEST PUSH1 0x40 MLOAD PUSH4 0xF1325663 PUSH1 0xE0 SHL DUP2 MSTORE PUSH1 0xA PUSH1 0x4 DUP3 ADD MSTORE PUSH1 0x1 PUSH1 0x1 PUSH1 0xA0 SHL SUB DUP4 AND PUSH1 0x24 DUP3 ADD MSTORE PUSH20 0x0 SWAP1 PUSH4 0xF1325663 SWAP1 PUSH1 0x44 ADD JUMPDEST PUSH1 0x20 PUSH1 0x40 MLOAD DUP1 DUP4 SUB DUP2 DUP7 GAS DELEGATECALL ISZERO DUP1 ISZERO PUSH2 0xFD4 JUMPI RETURNDATASIZE PUSH1 0x0 DUP1 RETURNDATACOPY RETURNDATASIZE PUSH1 0x0 REVERT JUMPDEST POP POP POP POP PUSH1 0x40 MLOAD RETURNDATASIZE PUSH1 0x1F NOT PUSH1 0x1F DUP3 ADD AND DUP3 ADD DUP1 PUSH1 0x40 MSTORE POP DUP2 ADD SWAP1 PUSH2 0xD10 SWAP2 SWAP1 PUSH2 0x3967 JUMP JUMPDEST PUSH1 0x0 PUSH1 0x0 DUP1 MLOAD PUSH1 0x20 PUSH2 0x41D7 DUP4 CODECOPY DUP2 MLOAD SWAP2 MSTORE DUP3 EQ ISZERO PUSH2 0x1018 JUMPI POP PUSH1 0x0 SWAP2 SWAP1 POP JUMP JUMPDEST PUSH2 0x1021 DUP3 PUSH2 0x1588 JUMP JUMPDEST PUSH2 0x103D JUMPI PUSH1 0x40 MLOAD PUSH3 0x461BCD PUSH1 0xE5 SHL DUP2 MSTORE PUSH1 0x4 ADD PUSH2 0xCC5 SWAP1 PUSH2 0x3E2A JUMP JUMPDEST PUSH1 0x0 PUSH2 0x1048 DUP4 PUSH2 0x2AC9 JUMP JUMPDEST POP SWAP4 SWAP3 POP POP POP JUMP JUMPDEST PUSH1 0x0 PUSH2 0x105A PUSH2 0x16DD JUMP JUMPDEST PUSH2 0x1064 DUP4 DUP4 PUSH2 0x2BC0 JUMP JUMPDEST SWAP4 SWAP3 POP POP POP JUMP JUMPDEST PUSH1 0x60 PUSH1 0x1 PUSH1 0x1 PUSH1 0xA0 SHL SUB DUP4 AND PUSH2 0x109B JUMPI PUSH1 0x40 MLOAD DUP1 PUSH1 0xA0 ADD PUSH1 0x40 MSTORE DUP1 PUSH1 0x75 DUP2 MSTORE PUSH1 0x20 ADD PUSH2 0x41F7 PUSH1 0x75 SWAP2 CODECOPY SWAP1 POP PUSH2 0xD10 JUMP JUMPDEST PUSH1 0x0 PUSH1 0x1 PUSH1 0x0 PUSH20 0x0 PUSH4 0xD5F0B04D DUP8 DUP8 PUSH1 0x40 MLOAD DUP4 PUSH4 0xFFFFFFFF AND PUSH1 0xE0 SHL DUP2 MSTORE PUSH1 0x4 ADD PUSH2 0x10DA SWAP3 SWAP2 SWAP1 PUSH2 0x3AE3 JUMP JUMPDEST PUSH1 0x20 PUSH1 0x40 MLOAD DUP1 DUP4 SUB DUP2 DUP7 GAS DELEGATECALL ISZERO DUP1 ISZERO PUSH2 0x10F7 JUMPI RETURNDATASIZE PUSH1 0x0 DUP1 RETURNDATACOPY RETURNDATASIZE PUSH1 0x0 REVERT JUMPDEST POP POP POP POP PUSH1 0x40 MLOAD RETURNDATASIZE PUSH1 0x1F NOT PUSH1 0x1F DUP3 ADD AND DUP3 ADD DUP1 PUSH1 0x40 MSTORE POP DUP2 ADD SWAP1 PUSH2 0x111B SWAP2 SWAP1 PUSH2 0x399A JUMP JUMPDEST DUP2 MSTORE PUSH1 0x20 ADD SWAP1 DUP2 MSTORE PUSH1 0x20 ADD PUSH1 0x0 KECCAK256 DUP1 SLOAD PUSH2 0x1134 SWAP1 PUSH2 0x3E61 JUMP JUMPDEST DUP1 PUSH1 0x1F ADD PUSH1 0x20 DUP1 SWAP2 DIV MUL PUSH1 0x20 ADD PUSH1 0x40 MLOAD SWAP1 DUP2 ADD PUSH1 0x40 MSTORE DUP1 SWAP3 SWAP2 SWAP1 DUP2 DUP2 MSTORE PUSH1 0x20 ADD DUP3 DUP1 SLOAD PUSH2 0x1160 SWAP1 PUSH2 0x3E61 JUMP JUMPDEST DUP1 ISZERO PUSH2 0x11AD JUMPI DUP1 PUSH1 0x1F LT PUSH2 0x1182 JUMPI PUSH2 0x100 DUP1 DUP4 SLOAD DIV MUL DUP4 MSTORE SWAP2 PUSH1 0x20 ADD SWAP2 PUSH2 0x11AD JUMP JUMPDEST DUP3 ADD SWAP2 SWAP1 PUSH1 0x0 MSTORE PUSH1 0x20 PUSH1 0x0 KECCAK256 SWAP1 JUMPDEST DUP2 SLOAD DUP2 MSTORE SWAP1 PUSH1 0x1 ADD SWAP1 PUSH1 0x20 ADD DUP1 DUP4 GT PUSH2 0x1190 JUMPI DUP3 SWAP1 SUB PUSH1 0x1F AND DUP3 ADD SWAP2 JUMPDEST POP POP PUSH1 0x40 DUP1 MLOAD PUSH1 0x0 DUP2 MSTORE PUSH1 0x20 DUP2 ADD DUP1 DUP4 MSTORE DUP2 MLOAD SWAP1 KECCAK256 SWAP6 SWAP7 POP PUSH2 0x11D5 SWAP5 POP DUP7 SWAP4 POP ADD SWAP1 POP PUSH2 0x3E96 JUMP JUMPDEST PUSH1 0x40 MLOAD PUSH1 0x20 DUP2 DUP4 SUB SUB DUP2 MSTORE SWAP1 PUSH1 0x40 MSTORE DUP1 MLOAD SWAP1 PUSH1 0x20 ADD KECCAK256 EQ PUSH2 0x11F7 JUMPI SWAP1 POP PUSH2 0xD10 JUMP JUMPDEST DUP3 ISZERO PUSH2 0x1358 JUMPI PUSH1 0x1 PUSH1 0x0 PUSH20 0x0 PUSH4 0xD5F0B04D DUP8 PUSH1 0x0 PUSH1 0x40 MLOAD DUP4 PUSH4 0xFFFFFFFF AND PUSH1 0xE0 SHL DUP2 MSTORE PUSH1 0x4 ADD PUSH2 0x123B SWAP3 SWAP2 SWAP1 PUSH2 0x3AE3 JUMP JUMPDEST PUSH1 0x20 PUSH1 0x40 MLOAD DUP1 DUP4 SUB DUP2 DUP7 GAS DELEGATECALL ISZERO DUP1 ISZERO PUSH2 0x1258 JUMPI RETURNDATASIZE PUSH1 0x0 DUP1 RETURNDATACOPY RETURNDATASIZE PUSH1 0x0 REVERT JUMPDEST POP POP POP POP PUSH1 0x40 MLOAD RETURNDATASIZE PUSH1 0x1F NOT PUSH1 0x1F DUP3 ADD AND DUP3 ADD DUP1 PUSH1 0x40 MSTORE POP DUP2 ADD SWAP1 PUSH2 0x127C SWAP2 SWAP1 PUSH2 0x399A JUMP JUMPDEST DUP2 MSTORE PUSH1 0x20 ADD SWAP1 DUP2 MSTORE PUSH1 0x20 ADD PUSH1 0x0 KECCAK256 DUP1 SLOAD PUSH2 0x1295 SWAP1 PUSH2 0x3E61 JUMP JUMPDEST DUP1 PUSH1 0x1F ADD PUSH1 0x20 DUP1 SWAP2 DIV MUL PUSH1 0x20 ADD PUSH1 0x40 MLOAD SWAP1 DUP2 ADD PUSH1 0x40 MSTORE DUP1 SWAP3 SWAP2 SWAP1 DUP2 DUP2 MSTORE PUSH1 0x20 ADD DUP3 DUP1 SLOAD PUSH2 0x12C1 SWAP1 PUSH2 0x3E61 JUMP JUMPDEST DUP1 ISZERO PUSH2 0x130E JUMPI DUP1 PUSH1 0x1F LT PUSH2 0x12E3 JUMPI PUSH2 0x100 DUP1 DUP4 SLOAD DIV MUL DUP4 MSTORE SWAP2 PUSH1 0x20 ADD SWAP2 PUSH2 0x130E JUMP JUMPDEST DUP3 ADD SWAP2 SWAP1 PUSH1 0x0 MSTORE PUSH1 0x20 PUSH1 0x0 KECCAK256 SWAP1 JUMPDEST DUP2 SLOAD DUP2 MSTORE SWAP1 PUSH1 0x1 ADD SWAP1 PUSH1 0x20 ADD DUP1 DUP4 GT PUSH2 0x12F1 JUMPI DUP3 SWAP1 SUB PUSH1 0x1F AND DUP3 ADD SWAP2 JUMPDEST POP POP PUSH1 0x40 DUP1 MLOAD PUSH1 0x0 DUP2 MSTORE PUSH1 0x20 DUP2 ADD DUP1 DUP4 MSTORE DUP2 MLOAD SWAP1 KECCAK256 SWAP6 SWAP7 POP PUSH2 0x1336 SWAP5 POP DUP7 SWAP4 POP ADD SWAP1 POP PUSH2 0x3E96 JUMP JUMPDEST PUSH1 0x40 MLOAD PUSH1 0x20 DUP2 DUP4 SUB SUB DUP2 MSTORE SWAP1 PUSH1 0x40 MSTORE DUP1 MLOAD SWAP1 PUSH1 0x20 ADD KECCAK256 EQ PUSH2 0x1358 JUMPI SWAP1 POP PUSH2 0xD10 JUMP JUMPDEST PUSH1 0x40 MLOAD DUP1 PUSH1 0xA0 ADD PUSH1 0x40 MSTORE DUP1 PUSH1 0x6C DUP2 MSTORE PUSH1 0x20 ADD PUSH2 0x416B PUSH1 0x6C SWAP2 CODECOPY SWAP5 SWAP4 POP POP POP POP JUMP JUMPDEST DUP1 MLOAD PUSH1 0x20 DUP1 DUP4 ADD SWAP2 SWAP1 SWAP2 KECCAK256 PUSH1 0x0 DUP2 DUP2 MSTORE PUSH1 0x8 SWAP1 SWAP3 MSTORE PUSH1 0x40 SWAP1 SWAP2 KECCAK256 DUP1 SLOAD PUSH2 0x139E SWAP1 PUSH2 0x3E61 JUMP JUMPDEST ISZERO ISZERO SWAP1 POP PUSH2 0x13CB JUMPI PUSH1 0x0 DUP2 DUP2 MSTORE PUSH1 0x8 PUSH1 0x20 SWAP1 DUP2 MSTORE PUSH1 0x40 SWAP1 SWAP2 KECCAK256 DUP4 MLOAD PUSH2 0x13C5 SWAP3 DUP6 ADD SWAP1 PUSH2 0x38C0 JUMP JUMPDEST POP SWAP2 SWAP1 POP JUMP JUMPDEST PUSH1 0x0 DUP2 DUP2 MSTORE PUSH1 0x8 PUSH1 0x20 MSTORE PUSH1 0x40 SWAP1 KECCAK256 DUP1 SLOAD PUSH2 0x146D SWAP2 SWAP1 PUSH2 0x13E9 SWAP1 PUSH2 0x3E61 JUMP JUMPDEST DUP1 PUSH1 0x1F ADD PUSH1 0x20 DUP1 SWAP2 DIV MUL PUSH1 0x20 ADD PUSH1 0x40 MLOAD SWAP1 DUP2 ADD PUSH1 0x40 MSTORE DUP1 SWAP3 SWAP2 SWAP1 DUP2 DUP2 MSTORE PUSH1 0x20 ADD DUP3 DUP1 SLOAD PUSH2 0x1415 SWAP1 PUSH2 0x3E61 JUMP JUMPDEST DUP1 ISZERO PUSH2 0x1462 JUMPI DUP1 PUSH1 0x1F LT PUSH2 0x1437 JUMPI PUSH2 0x100 DUP1 DUP4 SLOAD DIV MUL DUP4 MSTORE SWAP2 PUSH1 0x20 ADD SWAP2 PUSH2 0x1462 JUMP JUMPDEST DUP3 ADD SWAP2 SWAP1 PUSH1 0x0 MSTORE PUSH1 0x20 PUSH1 0x0 KECCAK256 SWAP1 JUMPDEST DUP2 SLOAD DUP2 MSTORE SWAP1 PUSH1 0x1 ADD SWAP1 PUSH1 0x20 ADD DUP1 DUP4 GT PUSH2 0x1445 JUMPI DUP3 SWAP1 SUB PUSH1 0x1F AND DUP3 ADD SWAP2 JUMPDEST POP POP POP POP POP DUP4 PUSH2 0x2E4D JUMP JUMPDEST PUSH2 0x14D6 JUMPI PUSH1 0x40 MLOAD PUSH3 0x461BCD PUSH1 0xE5 SHL DUP2 MSTORE PUSH1 0x20 PUSH1 0x4 DUP3 ADD MSTORE PUSH1 0x34 PUSH1 0x24 DUP3 ADD MSTORE PUSH32 0x4B656363616B496E766572746572204279746573206B656363616B2069736E74 PUSH1 0x44 DUP3 ADD MSTORE PUSH20 0x20756E6971756520212121212121212121212121 PUSH1 0x60 SHL PUSH1 0x64 DUP3 ADD MSTORE PUSH1 0x84 ADD PUSH2 0xCC5 JUMP JUMPDEST SWAP2 SWAP1 POP JUMP JUMPDEST PUSH1 0x60 PUSH2 0x14E6 DUP3 PUSH2 0xEB7 JUMP JUMPDEST PUSH1 0x40 MLOAD PUSH4 0x55B04B0D PUSH1 0xE1 SHL DUP2 MSTORE PUSH20 0x0 SWAP2 PUSH4 0xAB60961A SWAP2 PUSH2 0x151C SWAP2 SWAP1 PUSH1 0x4 ADD PUSH2 0x3B58 JUMP JUMPDEST PUSH1 0x0 PUSH1 0x40 MLOAD DUP1 DUP4 SUB DUP2 DUP7 GAS DELEGATECALL ISZERO DUP1 ISZERO PUSH2 0x1539 JUMPI RETURNDATASIZE PUSH1 0x0 DUP1 RETURNDATACOPY RETURNDATASIZE PUSH1 0x0 REVERT JUMPDEST POP POP POP POP PUSH1 0x40 MLOAD RETURNDATASIZE PUSH1 0x0 DUP3 RETURNDATACOPY PUSH1 0x1F RETURNDATASIZE SWAP1 DUP2 ADD PUSH1 0x1F NOT AND DUP3 ADD PUSH1 0x40 MSTORE PUSH2 0xD10 SWAP2 SWAP1 DUP2 ADD SWAP1 PUSH2 0x3EB2 JUMP JUMPDEST PUSH1 0x0 DUP1 SLOAD PUSH1 0x1 PUSH1 0x1 PUSH1 0xA0 SHL SUB DUP4 DUP2 AND SWAP2 AND EQ ISZERO PUSH2 0x1580 JUMPI POP PUSH1 0x1 SWAP2 SWAP1 POP JUMP JUMPDEST POP PUSH1 0x0 SWAP2 SWAP1 POP JUMP JUMPDEST PUSH1 0x0 PUSH2 0xD10 DUP3 PUSH2 0x2EDF JUMP JUMPDEST PUSH1 0x0 PUSH2 0x159F DUP4 DUP4 PUSH2 0x29A6 JUMP JUMPDEST SWAP1 POP PUSH2 0x15AA DUP2 PUSH2 0x1588 JUMP JUMPDEST PUSH2 0xD10 JUMPI PUSH1 0x40 MLOAD PUSH3 0x461BCD PUSH1 0xE5 SHL DUP2 MSTORE PUSH1 0x4 ADD PUSH2 0xCC5 SWAP1 PUSH2 0x3E2A JUMP JUMPDEST PUSH1 0x0 PUSH1 0x1 PUSH1 0x1 PUSH1 0xA0 SHL SUB DUP4 AND ISZERO DUP1 ISZERO PUSH2 0x15DD JUMPI POP DUP2 ISZERO JUMPDEST ISZERO PUSH2 0x15F7 JUMPI POP PUSH1 0x0 DUP1 MLOAD PUSH1 0x20 PUSH2 0x41D7 DUP4 CODECOPY DUP2 MLOAD SWAP2 MSTORE PUSH2 0xD10 JUMP JUMPDEST PUSH2 0x1601 DUP4 DUP4 PUSH2 0x189A JUMP JUMPDEST PUSH2 0x1064 DUP4 DUP4 PUSH2 0x22AD JUMP JUMPDEST PUSH1 0x0 PUSH1 0x1 PUSH1 0x1 PUSH1 0xA0 SHL SUB DUP4 AND PUSH2 0x1623 JUMPI POP PUSH1 0x0 PUSH2 0xD10 JUMP JUMPDEST PUSH2 0x162D DUP4 DUP4 PUSH2 0x26EB JUMP JUMPDEST PUSH1 0x20 ADD MLOAD SWAP4 SWAP3 POP POP POP JUMP JUMPDEST PUSH1 0x40 MLOAD PUSH4 0x18F7A7C3 PUSH1 0xE2 SHL DUP2 MSTORE PUSH1 0x4 DUP2 ADD DUP4 SWAP1 MSTORE PUSH1 0x1 PUSH1 0x1 PUSH1 0xA0 SHL SUB DUP3 AND PUSH1 0x24 DUP3 ADD MSTORE PUSH1 0x0 SWAP1 PUSH2 0x1064 SWAP1 PUSH20 0x0 SWAP1 PUSH4 0x63DE9F0C SWAP1 PUSH1 0x44 ADD JUMPDEST PUSH1 0x0 PUSH1 0x40 MLOAD DUP1 DUP4 SUB DUP2 DUP7 GAS DELEGATECALL ISZERO DUP1 ISZERO PUSH2 0x169F JUMPI RETURNDATASIZE PUSH1 0x0 DUP1 RETURNDATACOPY RETURNDATASIZE PUSH1 0x0 REVERT JUMPDEST POP POP POP POP PUSH1 0x40 MLOAD RETURNDATASIZE PUSH1 0x0 DUP3 RETURNDATACOPY PUSH1 0x1F RETURNDATASIZE SWAP1 DUP2 ADD PUSH1 0x1F NOT AND DUP3 ADD PUSH1 0x40 MSTORE PUSH2 0xB4E SWAP2 SWAP1 DUP2 ADD SWAP1 PUSH2 0x3EB2 JUMP JUMPDEST PUSH1 0x0 PUSH2 0xD10 DUP3 PUSH2 0x1379 JUMP JUMPDEST PUSH1 0x0 PUSH2 0xD10 DUP3 PUSH2 0x2F01 JUMP JUMPDEST PUSH1 0x0 SLOAD PUSH1 0x1 PUSH1 0x1 PUSH1 0xA0 SHL SUB AND CALLER EQ DUP1 PUSH2 0x16FA JUMPI POP PUSH2 0x16FA CALLER PUSH2 0x1838 JUMP JUMPDEST PUSH2 0xCCE JUMPI PUSH1 0x40 MLOAD PUSH3 0x461BCD PUSH1 0xE5 SHL DUP2 MSTORE PUSH1 0x20 PUSH1 0x4 DUP3 ADD MSTORE PUSH1 0x2D PUSH1 0x24 DUP3 ADD MSTORE PUSH32 0x416C6C6F77616E63653A2063616C6C6572206D757374206265205265706F7369 PUSH1 0x44 DUP3 ADD MSTORE PUSH13 0x3A37B93C9027B832B930BA37B9 PUSH1 0x99 SHL PUSH1 0x64 DUP3 ADD MSTORE PUSH1 0x84 ADD PUSH2 0xCC5 JUMP JUMPDEST PUSH1 0x40 MLOAD PUSH4 0x2291B3F1 PUSH1 0xE2 SHL DUP2 MSTORE PUSH1 0x4 DUP2 ADD DUP4 SWAP1 MSTORE PUSH1 0x24 DUP2 ADD DUP3 SWAP1 MSTORE PUSH1 0x0 SWAP1 PUSH2 0x1064 SWAP1 PUSH20 0x0 SWAP1 PUSH4 0x8A46CFC4 SWAP1 PUSH1 0x44 ADD PUSH2 0x1682 JUMP JUMPDEST PUSH1 0x0 DUP1 PUSH2 0x17AE DUP4 PUSH2 0x14DB JUMP JUMPDEST PUSH1 0x40 MLOAD PUSH4 0x29695C3 PUSH1 0xE2 SHL DUP2 MSTORE PUSH20 0x0 SWAP2 PUSH4 0xA5A570C SWAP2 PUSH2 0x17E4 SWAP2 SWAP1 PUSH1 0x4 ADD PUSH2 0x3C5E JUMP JUMPDEST PUSH1 0x40 DUP1 MLOAD DUP1 DUP4 SUB DUP2 DUP7 GAS DELEGATECALL ISZERO DUP1 ISZERO PUSH2 0x1800 JUMPI RETURNDATASIZE PUSH1 0x0 DUP1 RETURNDATACOPY RETURNDATASIZE PUSH1 0x0 REVERT JUMPDEST POP POP POP POP PUSH1 0x40 MLOAD RETURNDATASIZE PUSH1 0x1F NOT PUSH1 0x1F DUP3 ADD AND DUP3 ADD DUP1 PUSH1 0x40 MSTORE POP DUP2 ADD SWAP1 PUSH2 0xE5C SWAP2 SWAP1 PUSH2 0x3F37 JUMP JUMPDEST PUSH1 0x0 PUSH2 0x182E PUSH2 0x16DD JUMP JUMPDEST PUSH2 0x1064 DUP4 DUP4 PUSH2 0x2F8C JUMP JUMPDEST PUSH1 0x0 PUSH1 0x1 PUSH1 0x1 PUSH1 0xA0 SHL SUB DUP3 AND ADDRESS EQ ISZERO PUSH2 0x1853 JUMPI POP PUSH1 0x1 SWAP2 SWAP1 POP JUMP JUMPDEST PUSH1 0x40 MLOAD PUSH4 0xF1325663 PUSH1 0xE0 SHL DUP2 MSTORE PUSH1 0xB PUSH1 0x4 DUP3 ADD MSTORE PUSH1 0x1 PUSH1 0x1 PUSH1 0xA0 SHL SUB DUP4 AND PUSH1 0x24 DUP3 ADD MSTORE PUSH20 0x0 SWAP1 PUSH4 0xF1325663 SWAP1 PUSH1 0x44 ADD PUSH2 0xFB7 JUMP JUMPDEST PUSH1 0x0 DUP1 PUSH20 0x0 PUSH4 0xD5F0B04D DUP6 PUSH1 0x0 PUSH1 0x40 MLOAD DUP4 PUSH4 0xFFFFFFFF AND PUSH1 0xE0 SHL DUP2 MSTORE PUSH1 0x4 ADD PUSH2 0x18D7 SWAP3 SWAP2 SWAP1 PUSH2 0x3AE3 JUMP JUMPDEST PUSH1 0x20 PUSH1 0x40 MLOAD DUP1 DUP4 SUB DUP2 DUP7 GAS DELEGATECALL ISZERO DUP1 ISZERO PUSH2 0x18F4 JUMPI RETURNDATASIZE PUSH1 0x0 DUP1 RETURNDATACOPY RETURNDATASIZE PUSH1 0x0 REVERT JUMPDEST POP POP POP POP PUSH1 0x40 MLOAD RETURNDATASIZE PUSH1 0x1F NOT PUSH1 0x1F DUP3 ADD AND DUP3 ADD DUP1 PUSH1 0x40 MSTORE POP DUP2 ADD SWAP1 PUSH2 0x1918 SWAP2 SWAP1 PUSH2 0x399A JUMP JUMPDEST PUSH1 0x0 DUP2 DUP2 MSTORE PUSH1 0x3 PUSH1 0x20 MSTORE PUSH1 0x40 SWAP1 KECCAK256 DUP1 SLOAD SWAP1 SWAP4 POP SWAP1 SWAP2 POP PUSH3 0x10000 SWAP1 DIV PUSH1 0x1 PUSH1 0x1 PUSH1 0x40 SHL SUB AND PUSH2 0x1AAA JUMPI PUSH1 0x40 MLOAD PUSH4 0x4DD11F0F PUSH1 0xE1 SHL DUP2 MSTORE PUSH1 0x1 PUSH1 0x1 PUSH1 0xA0 SHL SUB DUP6 AND PUSH1 0x4 DUP3 ADD MSTORE PUSH1 0x0 PUSH1 0x24 DUP3 ADD MSTORE PUSH1 0x1 PUSH1 0x44 DUP3 ADD MSTORE PUSH20 0x0 SWAP1 PUSH4 0x9BA23E1E SWAP1 PUSH1 0x64 ADD PUSH1 0x60 PUSH1 0x40 MLOAD DUP1 DUP4 SUB DUP2 DUP7 GAS DELEGATECALL ISZERO DUP1 ISZERO PUSH2 0x19A7 JUMPI RETURNDATASIZE PUSH1 0x0 DUP1 RETURNDATACOPY RETURNDATASIZE PUSH1 0x0 REVERT JUMPDEST POP POP POP POP PUSH1 0x40 MLOAD RETURNDATASIZE PUSH1 0x1F NOT PUSH1 0x1F DUP3 ADD AND DUP3 ADD DUP1 PUSH1 0x40 MSTORE POP DUP2 ADD SWAP1 PUSH2 0x19CB SWAP2 SWAP1 PUSH2 0x3F5B JUMP JUMPDEST PUSH1 0x0 DUP3 DUP2 MSTORE PUSH1 0x3 PUSH1 0x20 SWAP1 DUP2 MSTORE PUSH1 0x40 SWAP2 DUP3 SWAP1 KECCAK256 DUP4 MLOAD DUP2 SLOAD SWAP3 DUP6 ADD MLOAD SWAP5 DUP5 ADD MLOAD PUSH1 0x1 PUSH1 0x1 PUSH1 0x40 SHL SUB AND PUSH3 0x10000 MUL PUSH10 0xFFFFFFFFFFFFFFFF0000 NOT SWAP6 ISZERO ISZERO PUSH2 0x100 MUL PUSH2 0xFFFF NOT SWAP1 SWAP5 AND PUSH1 0xFF SWAP1 SWAP3 AND SWAP2 SWAP1 SWAP2 OR SWAP3 SWAP1 SWAP3 OR SWAP4 SWAP1 SWAP4 AND OR SWAP1 SWAP2 SSTORE MLOAD PUSH4 0x16061A71 PUSH1 0xE2 SHL DUP2 MSTORE PUSH20 0x0 SWAP1 PUSH4 0x581869C4 SWAP1 PUSH2 0x1A67 SWAP1 PUSH1 0x2 SWAP1 DUP6 SWAP1 PUSH1 0x4 ADD SWAP2 DUP3 MSTORE PUSH1 0x20 DUP3 ADD MSTORE PUSH1 0x40 ADD SWAP1 JUMP JUMPDEST PUSH1 0x20 PUSH1 0x40 MLOAD DUP1 DUP4 SUB DUP2 DUP7 GAS DELEGATECALL ISZERO DUP1 ISZERO PUSH2 0x1A84 JUMPI RETURNDATASIZE PUSH1 0x0 DUP1 RETURNDATACOPY RETURNDATASIZE PUSH1 0x0 REVERT JUMPDEST POP POP POP POP PUSH1 0x40 MLOAD RETURNDATASIZE PUSH1 0x1F NOT PUSH1 0x1F DUP3 ADD AND DUP3 ADD DUP1 PUSH1 0x40 MSTORE POP DUP2 ADD SWAP1 PUSH2 0x1AA8 SWAP2 SWAP1 PUSH2 0x3967 JUMP JUMPDEST POP JUMPDEST DUP2 SLOAD PUSH3 0x10000 SWAP1 DIV PUSH1 0x1 PUSH1 0x1 PUSH1 0x40 SHL SUB AND PUSH2 0x1AC7 JUMPI PUSH2 0x1AC7 PUSH2 0x3FD3 JUMP JUMPDEST DUP2 SLOAD PUSH3 0x10000 SWAP1 DIV PUSH2 0x100 AND PUSH2 0x1ADD JUMPI POP POP POP POP JUMP JUMPDEST PUSH1 0x40 DUP1 MLOAD PUSH1 0x60 DUP2 ADD DUP3 MSTORE DUP4 SLOAD PUSH1 0x0 DUP2 SWAP1 SIGNEXTEND DUP3 MSTORE PUSH2 0x100 DUP2 DIV PUSH1 0xFF AND ISZERO ISZERO PUSH1 0x20 DUP4 ADD MSTORE PUSH3 0x10000 SWAP1 DIV PUSH1 0x1 PUSH1 0x1 PUSH1 0x40 SHL SUB AND DUP2 DUP4 ADD MSTORE SWAP1 MLOAD PUSH4 0xD5F0B04D PUSH1 0xE0 SHL DUP2 MSTORE PUSH20 0x0 SWAP1 PUSH4 0xD5F0B04D SWAP1 PUSH2 0x1B4A SWAP1 DUP9 SWAP1 DUP9 SWAP1 PUSH1 0x4 ADD PUSH2 0x3AE3 JUMP JUMPDEST PUSH1 0x20 PUSH1 0x40 MLOAD DUP1 DUP4 SUB DUP2 DUP7 GAS DELEGATECALL ISZERO DUP1 ISZERO PUSH2 0x1B67 JUMPI RETURNDATASIZE PUSH1 0x0 DUP1 RETURNDATACOPY RETURNDATASIZE PUSH1 0x0 REVERT JUMPDEST POP POP POP POP PUSH1 0x40 MLOAD RETURNDATASIZE PUSH1 0x1F NOT PUSH1 0x1F DUP3 ADD AND DUP3 ADD DUP1 PUSH1 0x40 MSTORE POP DUP2 ADD SWAP1 PUSH2 0x1B8B SWAP2 SWAP1 PUSH2 0x399A JUMP JUMPDEST PUSH1 0x0 DUP2 DUP2 MSTORE PUSH1 0x3 PUSH1 0x20 MSTORE PUSH1 0x40 SWAP1 KECCAK256 DUP1 SLOAD SWAP1 SWAP5 POP SWAP1 SWAP3 POP PUSH3 0x10000 SWAP1 DIV PUSH1 0x1 PUSH1 0x1 PUSH1 0x40 SHL SUB AND PUSH2 0x1D12 JUMPI PUSH1 0x40 MLOAD PUSH4 0x543AF627 PUSH1 0xE0 SHL DUP2 MSTORE PUSH20 0x0 SWAP1 PUSH4 0x543AF627 SWAP1 PUSH2 0x1BF2 SWAP1 DUP9 SWAP1 DUP9 SWAP1 DUP7 SWAP1 PUSH1 0x1 SWAP1 PUSH1 0x4 ADD PUSH2 0x3FE9 JUMP JUMPDEST PUSH1 0x60 PUSH1 0x40 MLOAD DUP1 DUP4 SUB DUP2 DUP7 GAS DELEGATECALL ISZERO DUP1 ISZERO PUSH2 0x1C0F JUMPI RETURNDATASIZE PUSH1 0x0 DUP1 RETURNDATACOPY RETURNDATASIZE PUSH1 0x0 REVERT JUMPDEST POP POP POP POP PUSH1 0x40 MLOAD RETURNDATASIZE PUSH1 0x1F NOT PUSH1 0x1F DUP3 ADD AND DUP3 ADD DUP1 PUSH1 0x40 MSTORE POP DUP2 ADD SWAP1 PUSH2 0x1C33 SWAP2 SWAP1 PUSH2 0x3F5B JUMP JUMPDEST PUSH1 0x0 DUP4 DUP2 MSTORE PUSH1 0x3 PUSH1 0x20 SWAP1 DUP2 MSTORE PUSH1 0x40 SWAP2 DUP3 SWAP1 KECCAK256 DUP4 MLOAD DUP2 SLOAD SWAP3 DUP6 ADD MLOAD SWAP5 DUP5 ADD MLOAD PUSH1 0x1 PUSH1 0x1 PUSH1 0x40 SHL SUB AND PUSH3 0x10000 MUL PUSH10 0xFFFFFFFFFFFFFFFF0000 NOT SWAP6 ISZERO ISZERO PUSH2 0x100 MUL PUSH2 0xFFFF NOT SWAP1 SWAP5 AND PUSH1 0xFF SWAP1 SWAP3 AND SWAP2 SWAP1 SWAP2 OR SWAP3 SWAP1 SWAP3 OR SWAP4 SWAP1 SWAP4 AND OR SWAP1 SWAP2 SSTORE MLOAD PUSH4 0x16061A71 PUSH1 0xE2 SHL DUP2 MSTORE PUSH20 0x0 SWAP1 PUSH4 0x581869C4 SWAP1 PUSH2 0x1CCF SWAP1 PUSH1 0x2 SWAP1 DUP7 SWAP1 PUSH1 0x4 ADD SWAP2 DUP3 MSTORE PUSH1 0x20 DUP3 ADD MSTORE PUSH1 0x40 ADD SWAP1 JUMP JUMPDEST PUSH1 0x20 PUSH1 0x40 MLOAD DUP1 DUP4 SUB DUP2 DUP7 GAS DELEGATECALL ISZERO DUP1 ISZERO PUSH2 0x1CEC JUMPI RETURNDATASIZE PUSH1 0x0 DUP1 RETURNDATACOPY RETURNDATASIZE PUSH1 0x0 REVERT JUMPDEST POP POP POP POP PUSH1 0x40 MLOAD RETURNDATASIZE PUSH1 0x1F NOT PUSH1 0x1F DUP3 ADD AND DUP3 ADD DUP1 PUSH1 0x40 MSTORE POP DUP2 ADD SWAP1 PUSH2 0x1D10 SWAP2 SWAP1 PUSH2 0x3967 JUMP JUMPDEST POP JUMPDEST DUP3 SLOAD PUSH3 0x10000 SWAP1 DIV PUSH1 0x1 PUSH1 0x1 PUSH1 0x40 SHL SUB AND PUSH2 0x1D2F JUMPI PUSH2 0x1D2F PUSH2 0x3FD3 JUMP JUMPDEST POP POP POP POP POP JUMP JUMPDEST PUSH2 0x1D3E PUSH2 0x3269 JUMP JUMPDEST PUSH2 0xCCE PUSH1 0x0 PUSH2 0x32C3 JUMP JUMPDEST PUSH2 0x1D50 PUSH2 0x16DD JUMP JUMPDEST PUSH1 0x40 MLOAD PUSH4 0x1FFC9A7 PUSH1 0xE0 SHL DUP2 MSTORE PUSH4 0x15D37895 PUSH1 0xE3 SHL PUSH1 0x4 DUP3 ADD MSTORE PUSH1 0x1 PUSH1 0x1 PUSH1 0xA0 SHL SUB DUP3 AND SWAP1 PUSH4 0x1FFC9A7 SWAP1 PUSH1 0x24 ADD PUSH1 0x20 PUSH1 0x40 MLOAD DUP1 DUP4 SUB DUP2 DUP7 GAS STATICCALL ISZERO DUP1 ISZERO PUSH2 0x1D9B JUMPI RETURNDATASIZE PUSH1 0x0 DUP1 RETURNDATACOPY RETURNDATASIZE PUSH1 0x0 REVERT JUMPDEST POP POP POP POP PUSH1 0x40 MLOAD RETURNDATASIZE PUSH1 0x1F NOT PUSH1 0x1F DUP3 ADD AND DUP3 ADD DUP1 PUSH1 0x40 MSTORE POP DUP2 ADD SWAP1 PUSH2 0x1DBF SWAP2 SWAP1 PUSH2 0x3967 JUMP JUMPDEST PUSH2 0x1E17 JUMPI PUSH1 0x40 MLOAD PUSH3 0x461BCD PUSH1 0xE5 SHL DUP2 MSTORE PUSH1 0x20 PUSH1 0x4 DUP3 ADD MSTORE PUSH1 0x24 DUP1 DUP3 ADD MSTORE PUSH32 0x636F6E7472616374206D75737420626520495265706F7369746F7279436F6E74 PUSH1 0x44 DUP3 ADD MSTORE PUSH4 0x1C9858DD PUSH1 0xE2 SHL PUSH1 0x64 DUP3 ADD MSTORE PUSH1 0x84 ADD PUSH2 0xCC5 JUMP JUMPDEST PUSH1 0x0 JUMPDEST PUSH1 0xD SLOAD DUP2 LT ISZERO PUSH2 0x1F00 JUMPI PUSH1 0xC PUSH1 0x0 DUP4 PUSH1 0x1 PUSH1 0x1 PUSH1 0xA0 SHL SUB AND PUSH4 0xAF640D0F PUSH1 0x40 MLOAD DUP2 PUSH4 0xFFFFFFFF AND PUSH1 0xE0 SHL DUP2 MSTORE PUSH1 0x4 ADD PUSH1 0x20 PUSH1 0x40 MLOAD DUP1 DUP4 SUB DUP2 DUP7 GAS STATICCALL ISZERO DUP1 ISZERO PUSH2 0x1E66 JUMPI RETURNDATASIZE PUSH1 0x0 DUP1 RETURNDATACOPY RETURNDATASIZE PUSH1 0x0 REVERT JUMPDEST POP POP POP POP PUSH1 0x40 MLOAD RETURNDATASIZE PUSH1 0x1F NOT PUSH1 0x1F DUP3 ADD AND DUP3 ADD DUP1 PUSH1 0x40 MSTORE POP DUP2 ADD SWAP1 PUSH2 0x1E8A SWAP2 SWAP1 PUSH2 0x399A JUMP JUMPDEST DUP2 MSTORE PUSH1 0x20 ADD SWAP1 DUP2 MSTORE PUSH1 0x20 ADD PUSH1 0x0 KECCAK256 PUSH1 0x0 PUSH1 0xD DUP4 DUP2 SLOAD DUP2 LT PUSH2 0x1EAD JUMPI PUSH2 0x1EAD PUSH2 0x3984 JUMP JUMPDEST PUSH1 0x0 SWAP2 DUP3 MSTORE PUSH1 0x20 DUP1 DUP4 KECCAK256 PUSH1 0x8 DUP4 DIV ADD SLOAD PUSH1 0x7 SWAP1 SWAP3 AND PUSH1 0x4 MUL PUSH2 0x100 EXP SWAP1 SWAP2 DIV PUSH1 0xE0 SHL PUSH1 0x1 PUSH1 0x1 PUSH1 0xE0 SHL SUB NOT AND DUP4 MSTORE DUP3 ADD SWAP3 SWAP1 SWAP3 MSTORE PUSH1 0x40 ADD SWAP1 KECCAK256 DUP1 SLOAD PUSH1 0xFF NOT AND SWAP1 SSTORE DUP1 PUSH2 0x1EF8 DUP2 PUSH2 0x39EF JUMP JUMPDEST SWAP2 POP POP PUSH2 0x1E1A JUMP JUMPDEST POP PUSH1 0x40 MLOAD PUSH4 0x16F4B929 PUSH1 0xE2 SHL DUP2 MSTORE PUSH1 0xA PUSH1 0x4 DUP3 ADD MSTORE PUSH1 0x1 PUSH1 0x1 PUSH1 0xA0 SHL SUB DUP3 AND PUSH1 0x24 DUP3 ADD MSTORE PUSH20 0x0 SWAP1 PUSH4 0x5BD2E4A4 SWAP1 PUSH1 0x44 ADD PUSH1 0x20 PUSH1 0x40 MLOAD DUP1 DUP4 SUB DUP2 DUP7 GAS DELEGATECALL ISZERO DUP1 ISZERO PUSH2 0x1F60 JUMPI RETURNDATASIZE PUSH1 0x0 DUP1 RETURNDATACOPY RETURNDATASIZE PUSH1 0x0 REVERT JUMPDEST POP POP POP POP PUSH1 0x40 MLOAD RETURNDATASIZE PUSH1 0x1F NOT PUSH1 0x1F DUP3 ADD AND DUP3 ADD DUP1 PUSH1 0x40 MSTORE POP DUP2 ADD SWAP1 PUSH2 0x1F84 SWAP2 SWAP1 PUSH2 0x3967 JUMP JUMPDEST POP DUP1 PUSH1 0x9 PUSH1 0x0 DUP4 PUSH1 0x1 PUSH1 0x1 PUSH1 0xA0 SHL SUB AND PUSH4 0xAF640D0F PUSH1 0x40 MLOAD DUP2 PUSH4 0xFFFFFFFF AND PUSH1 0xE0 SHL DUP2 MSTORE PUSH1 0x4 ADD PUSH1 0x20 PUSH1 0x40 MLOAD DUP1 DUP4 SUB DUP2 DUP7 GAS STATICCALL ISZERO DUP1 ISZERO PUSH2 0x1FC8 JUMPI RETURNDATASIZE PUSH1 0x0 DUP1 RETURNDATACOPY RETURNDATASIZE PUSH1 0x0 REVERT JUMPDEST POP POP POP POP PUSH1 0x40 MLOAD RETURNDATASIZE PUSH1 0x1F NOT PUSH1 0x1F DUP3 ADD AND DUP3 ADD DUP1 PUSH1 0x40 MSTORE POP DUP2 ADD SWAP1 PUSH2 0x1FEC SWAP2 SWAP1 PUSH2 0x399A JUMP JUMPDEST DUP2 MSTORE PUSH1 0x20 ADD SWAP1 DUP2 MSTORE PUSH1 0x20 ADD PUSH1 0x0 KECCAK256 PUSH1 0x0 PUSH2 0x100 EXP DUP2 SLOAD DUP2 PUSH1 0x1 PUSH1 0x1 PUSH1 0xA0 SHL SUB MUL NOT AND SWAP1 DUP4 PUSH1 0x1 PUSH1 0x1 PUSH1 0xA0 SHL SUB AND MUL OR SWAP1 SSTORE POP POP JUMP JUMPDEST PUSH1 0x4 SLOAD PUSH1 0x0 SWAP1 JUMPDEST DUP1 ISZERO PUSH2 0x214C JUMPI PUSH1 0x1 PUSH1 0x1 PUSH1 0xA0 SHL SUB DUP5 AND PUSH1 0x4 PUSH2 0x2045 PUSH1 0x1 DUP5 PUSH2 0x4040 JUMP JUMPDEST DUP2 SLOAD DUP2 LT PUSH2 0x2055 JUMPI PUSH2 0x2055 PUSH2 0x3984 JUMP JUMPDEST PUSH1 0x0 SWAP2 DUP3 MSTORE PUSH1 0x20 SWAP1 SWAP2 KECCAK256 PUSH1 0x2 SWAP1 SWAP2 MUL ADD SLOAD PUSH1 0x1 PUSH1 0x1 PUSH1 0xA0 SHL SUB AND EQ DUP1 ISZERO PUSH2 0x20AA JUMPI POP PUSH1 0x4 PUSH2 0x2084 PUSH1 0x1 DUP4 PUSH2 0x4040 JUMP JUMPDEST DUP2 SLOAD DUP2 LT PUSH2 0x2094 JUMPI PUSH2 0x2094 PUSH2 0x3984 JUMP JUMPDEST SWAP1 PUSH1 0x0 MSTORE PUSH1 0x20 PUSH1 0x0 KECCAK256 SWAP1 PUSH1 0x2 MUL ADD PUSH1 0x1 ADD SLOAD PUSH1 0x0 EQ JUMPDEST DUP1 PUSH2 0x212B JUMPI POP PUSH1 0x1 PUSH1 0x1 PUSH1 0xA0 SHL SUB DUP5 AND PUSH1 0x4 PUSH2 0x20C7 PUSH1 0x1 DUP5 PUSH2 0x4040 JUMP JUMPDEST DUP2 SLOAD DUP2 LT PUSH2 0x20D7 JUMPI PUSH2 0x20D7 PUSH2 0x3984 JUMP JUMPDEST PUSH1 0x0 SWAP2 DUP3 MSTORE PUSH1 0x20 SWAP1 SWAP2 KECCAK256 PUSH1 0x2 SWAP1 SWAP2 MUL ADD SLOAD PUSH1 0x1 PUSH1 0x1 PUSH1 0xA0 SHL SUB AND EQ DUP1 ISZERO PUSH2 0x212B JUMPI POP DUP3 PUSH1 0x4 PUSH2 0x2107 PUSH1 0x1 DUP5 PUSH2 0x4040 JUMP JUMPDEST DUP2 SLOAD DUP2 LT PUSH2 0x2117 JUMPI PUSH2 0x2117 PUSH2 0x3984 JUMP JUMPDEST SWAP1 PUSH1 0x0 MSTORE PUSH1 0x20 PUSH1 0x0 KECCAK256 SWAP1 PUSH1 0x2 MUL ADD PUSH1 0x1 ADD SLOAD EQ JUMPDEST ISZERO PUSH2 0x213A JUMPI PUSH1 0x1 SWAP2 POP POP PUSH2 0xD10 JUMP JUMPDEST DUP1 PUSH2 0x2144 DUP2 PUSH2 0x4057 JUMP JUMPDEST SWAP2 POP POP PUSH2 0x2028 JUMP JUMPDEST POP PUSH1 0x0 SWAP4 SWAP3 POP POP POP JUMP JUMPDEST PUSH1 0x0 PUSH2 0x2160 PUSH2 0x16DD JUMP JUMPDEST PUSH2 0x1064 DUP4 DUP4 PUSH2 0x3313 JUMP JUMPDEST PUSH1 0x0 PUSH2 0xD10 DUP3 PUSH1 0x0 PUSH2 0xD16 JUMP JUMPDEST PUSH1 0x0 PUSH2 0x2181 PUSH2 0x16DD JUMP JUMPDEST PUSH2 0xD10 DUP3 PUSH2 0x346F JUMP JUMPDEST PUSH2 0x2192 PUSH2 0x16DD JUMP JUMPDEST PUSH1 0x40 MLOAD PUSH4 0x16F4B929 PUSH1 0xE2 SHL DUP2 MSTORE PUSH1 0xB PUSH1 0x4 DUP3 ADD MSTORE PUSH1 0x1 PUSH1 0x1 PUSH1 0xA0 SHL SUB DUP3 AND PUSH1 0x24 DUP3 ADD MSTORE PUSH20 0x0 SWAP1 PUSH4 0x5BD2E4A4 SWAP1 PUSH1 0x44 ADD JUMPDEST PUSH1 0x20 PUSH1 0x40 MLOAD DUP1 DUP4 SUB DUP2 DUP7 GAS DELEGATECALL ISZERO DUP1 ISZERO PUSH2 0x21F2 JUMPI RETURNDATASIZE PUSH1 0x0 DUP1 RETURNDATACOPY RETURNDATASIZE PUSH1 0x0 REVERT JUMPDEST POP POP POP POP PUSH1 0x40 MLOAD RETURNDATASIZE PUSH1 0x1F NOT PUSH1 0x1F DUP3 ADD AND DUP3 ADD DUP1 PUSH1 0x40 MSTORE POP DUP2 ADD SWAP1 PUSH2 0x2216 SWAP2 SWAP1 PUSH2 0x3967 JUMP JUMPDEST POP POP JUMP JUMPDEST PUSH1 0x60 PUSH1 0x0 DUP1 MLOAD PUSH1 0x20 PUSH2 0x41D7 DUP4 CODECOPY DUP2 MLOAD SWAP2 MSTORE DUP3 EQ ISZERO PUSH2 0x223D JUMPI PUSH2 0xD10 PUSH1 0x0 DUP1 PUSH2 0x106B JUMP JUMPDEST PUSH2 0x2246 DUP3 PUSH2 0xDE1 JUMP JUMPDEST PUSH2 0x2269 JUMPI PUSH1 0x40 MLOAD DUP1 PUSH1 0xA0 ADD PUSH1 0x40 MSTORE DUP1 PUSH1 0x6C DUP2 MSTORE PUSH1 0x20 ADD PUSH2 0x416B PUSH1 0x6C SWAP2 CODECOPY SWAP3 SWAP2 POP POP JUMP JUMPDEST PUSH1 0x0 DUP1 PUSH2 0x2275 DUP5 PUSH2 0xE0A JUMP JUMPDEST SWAP2 POP SWAP2 POP PUSH2 0xDCC DUP3 DUP3 PUSH2 0x106B JUMP JUMPDEST PUSH1 0x0 DUP2 PUSH1 0x1 PUSH1 0x1 PUSH1 0x40 SHL SUB AND PUSH1 0xFF PUSH2 0x229A DUP6 PUSH2 0xE65 JUMP JUMPDEST AND PUSH1 0x1 PUSH1 0x1 PUSH1 0x40 SHL SUB AND EQ SWAP1 POP SWAP3 SWAP2 POP POP JUMP JUMPDEST PUSH1 0x0 PUSH2 0x1064 DUP4 DUP4 PUSH2 0x352D JUMP JUMPDEST PUSH1 0x0 PUSH1 0x0 DUP1 MLOAD PUSH1 0x20 PUSH2 0x41D7 DUP4 CODECOPY DUP2 MLOAD SWAP2 MSTORE DUP3 EQ ISZERO PUSH2 0x22DC JUMPI PUSH2 0xD10 PUSH1 0x0 DUP1 PUSH2 0x26DF JUMP JUMPDEST PUSH2 0x22E5 DUP3 PUSH2 0xDE1 JUMP JUMPDEST PUSH2 0x22F1 JUMPI POP PUSH1 0x1 SWAP2 SWAP1 POP JUMP JUMPDEST PUSH1 0x0 DUP1 PUSH2 0x22FD DUP5 PUSH2 0xE0A JUMP JUMPDEST SWAP2 POP SWAP2 POP PUSH2 0xDCC DUP3 DUP3 PUSH2 0x26DF JUMP JUMPDEST PUSH1 0x60 PUSH2 0xD10 DUP3 PUSH1 0x0 PUSH2 0x106B JUMP JUMPDEST PUSH1 0x6 SLOAD PUSH1 0x0 SWAP1 DUP2 JUMPDEST DUP2 DUP2 LT ISZERO PUSH2 0x241F JUMPI DUP5 PUSH1 0x1 PUSH1 0x1 PUSH1 0xA0 SHL SUB AND PUSH1 0x6 DUP3 DUP2 SLOAD DUP2 LT PUSH2 0x2345 JUMPI PUSH2 0x2345 PUSH2 0x3984 JUMP JUMPDEST PUSH1 0x0 SWAP2 DUP3 MSTORE PUSH1 0x20 SWAP1 SWAP2 KECCAK256 PUSH1 0x2 SWAP1 SWAP2 MUL ADD SLOAD PUSH1 0x1 PUSH1 0x1 PUSH1 0xA0 SHL SUB AND EQ DUP1 ISZERO PUSH2 0x2390 JUMPI POP PUSH1 0x6 DUP2 DUP2 SLOAD DUP2 LT PUSH2 0x237A JUMPI PUSH2 0x237A PUSH2 0x3984 JUMP JUMPDEST SWAP1 PUSH1 0x0 MSTORE PUSH1 0x20 PUSH1 0x0 KECCAK256 SWAP1 PUSH1 0x2 MUL ADD PUSH1 0x1 ADD SLOAD PUSH1 0x0 EQ JUMPDEST DUP1 PUSH2 0x23FD JUMPI POP DUP5 PUSH1 0x1 PUSH1 0x1 PUSH1 0xA0 SHL SUB AND PUSH1 0x6 DUP3 DUP2 SLOAD DUP2 LT PUSH2 0x23B3 JUMPI PUSH2 0x23B3 PUSH2 0x3984 JUMP JUMPDEST PUSH1 0x0 SWAP2 DUP3 MSTORE PUSH1 0x20 SWAP1 SWAP2 KECCAK256 PUSH1 0x2 SWAP1 SWAP2 MUL ADD SLOAD PUSH1 0x1 PUSH1 0x1 PUSH1 0xA0 SHL SUB AND EQ DUP1 ISZERO PUSH2 0x23FD JUMPI POP DUP4 PUSH1 0x6 DUP3 DUP2 SLOAD DUP2 LT PUSH2 0x23E9 JUMPI PUSH2 0x23E9 PUSH2 0x3984 JUMP JUMPDEST SWAP1 PUSH1 0x0 MSTORE PUSH1 0x20 PUSH1 0x0 KECCAK256 SWAP1 PUSH1 0x2 MUL ADD PUSH1 0x1 ADD SLOAD EQ JUMPDEST ISZERO PUSH2 0x240D JUMPI PUSH1 0x1 SWAP3 POP POP POP PUSH2 0xD10 JUMP JUMPDEST DUP1 PUSH2 0x2417 DUP2 PUSH2 0x39EF JUMP JUMPDEST SWAP2 POP POP PUSH2 0x2320 JUMP JUMPDEST POP PUSH1 0x0 SWAP5 SWAP4 POP POP POP POP JUMP JUMPDEST PUSH2 0x2432 PUSH2 0x16DD JUMP JUMPDEST PUSH1 0x40 MLOAD PUSH4 0xEDEFE12D PUSH1 0xE0 SHL DUP2 MSTORE PUSH1 0xB PUSH1 0x4 DUP3 ADD MSTORE PUSH1 0x1 PUSH1 0x1 PUSH1 0xA0 SHL SUB DUP3 AND PUSH1 0x24 DUP3 ADD MSTORE PUSH20 0x0 SWAP1 PUSH4 0xEDEFE12D SWAP1 PUSH1 0x44 ADD PUSH2 0x21D5 JUMP JUMPDEST PUSH1 0x0 PUSH2 0x2486 DUP4 PUSH1 0x0 PUSH2 0x2021 JUMP JUMPDEST ISZERO PUSH2 0x2493 JUMPI POP PUSH1 0x1 PUSH2 0xD10 JUMP JUMPDEST DUP2 ISZERO PUSH2 0x24B0 JUMPI PUSH2 0x24A3 DUP4 DUP4 PUSH2 0x2021 JUMP JUMPDEST ISZERO PUSH2 0x24B0 JUMPI POP PUSH1 0x1 PUSH2 0xD10 JUMP JUMPDEST PUSH1 0x0 DUP4 PUSH1 0x1 PUSH1 0x1 PUSH1 0xA0 SHL SUB AND PUSH4 0x373A7FB4 PUSH1 0x40 MLOAD DUP2 PUSH4 0xFFFFFFFF AND PUSH1 0xE0 SHL DUP2 MSTORE PUSH1 0x4 ADD PUSH1 0x20 PUSH1 0x40 MLOAD DUP1 DUP4 SUB DUP2 DUP7 GAS STATICCALL ISZERO DUP1 ISZERO PUSH2 0x24F0 JUMPI RETURNDATASIZE PUSH1 0x0 DUP1 RETURNDATACOPY RETURNDATASIZE PUSH1 0x0 REVERT JUMPDEST POP POP POP POP PUSH1 0x40 MLOAD RETURNDATASIZE PUSH1 0x1F NOT PUSH1 0x1F DUP3 ADD AND DUP3 ADD DUP1 PUSH1 0x40 MSTORE POP DUP2 ADD SWAP1 PUSH2 0x2514 SWAP2 SWAP1 PUSH2 0x406E JUMP JUMPDEST SWAP1 POP PUSH2 0x251F DUP2 PUSH2 0x16D2 JUMP JUMPDEST PUSH2 0x252D JUMPI PUSH1 0x0 SWAP2 POP POP PUSH2 0xD10 JUMP JUMPDEST PUSH1 0x40 MLOAD PUSH4 0x2B43F033 PUSH1 0xE2 SHL DUP2 MSTORE PUSH1 0x1 PUSH1 0x1 PUSH1 0xA0 SHL SUB DUP3 AND SWAP1 PUSH4 0xAD0FC0CC SWAP1 PUSH2 0x255B SWAP1 DUP8 SWAP1 DUP8 SWAP1 PUSH1 0x4 ADD PUSH2 0x3AE3 JUMP JUMPDEST PUSH1 0x20 PUSH1 0x40 MLOAD DUP1 DUP4 SUB DUP2 DUP7 GAS STATICCALL ISZERO DUP1 ISZERO PUSH2 0x2578 JUMPI RETURNDATASIZE PUSH1 0x0 DUP1 RETURNDATACOPY RETURNDATASIZE PUSH1 0x0 REVERT JUMPDEST POP POP POP POP PUSH1 0x40 MLOAD RETURNDATASIZE PUSH1 0x1F NOT PUSH1 0x1F DUP3 ADD AND DUP3 ADD DUP1 PUSH1 0x40 MSTORE POP DUP2 ADD SWAP1 PUSH2 0xDCC SWAP2 SWAP1 PUSH2 0x3967 JUMP JUMPDEST PUSH1 0x0 PUSH2 0x25A8 DUP4 DUP4 PUSH2 0x2318 JUMP JUMPDEST ISZERO PUSH2 0x25B5 JUMPI POP PUSH1 0x0 PUSH2 0xD10 JUMP JUMPDEST PUSH2 0x25BF DUP4 DUP4 PUSH2 0x2021 JUMP JUMPDEST ISZERO PUSH2 0x25CC JUMPI POP PUSH1 0x1 PUSH2 0xD10 JUMP JUMPDEST PUSH1 0x7 SLOAD PUSH1 0xFF AND ISZERO SWAP4 SWAP3 POP POP POP JUMP JUMPDEST PUSH1 0x0 DUP1 PUSH2 0x25E6 DUP4 PUSH2 0x14DB JUMP JUMPDEST PUSH1 0x40 MLOAD PUSH4 0x9AC1B345 PUSH1 0xE0 SHL DUP2 MSTORE PUSH20 0x0 SWAP2 PUSH4 0x9AC1B345 SWAP2 PUSH2 0x261C SWAP2 SWAP1 PUSH1 0x4 ADD PUSH2 0x3C5E JUMP JUMPDEST PUSH1 0x40 DUP1 MLOAD DUP1 DUP4 SUB DUP2 DUP7 GAS DELEGATECALL ISZERO DUP1 ISZERO PUSH2 0x2638 JUMPI RETURNDATASIZE PUSH1 0x0 DUP1 RETURNDATACOPY RETURNDATASIZE PUSH1 0x0 REVERT JUMPDEST POP POP POP POP PUSH1 0x40 MLOAD RETURNDATASIZE PUSH1 0x1F NOT PUSH1 0x1F DUP3 ADD AND DUP3 ADD DUP1 PUSH1 0x40 MSTORE POP DUP2 ADD SWAP1 PUSH2 0xE5C SWAP2 SWAP1 PUSH2 0x408B JUMP JUMPDEST PUSH1 0x40 MLOAD PUSH4 0x2431A7CF PUSH1 0xE0 SHL DUP2 MSTORE PUSH1 0x0 SWAP1 PUSH2 0xD10 SWAP1 PUSH20 0x0 SWAP1 PUSH4 0x2431A7CF SWAP1 PUSH2 0x269A SWAP1 DUP7 SWAP1 PUSH1 0x4 ADD PUSH2 0x3C5E JUMP JUMPDEST PUSH1 0x0 PUSH1 0x40 MLOAD DUP1 DUP4 SUB DUP2 DUP7 GAS DELEGATECALL ISZERO DUP1 ISZERO PUSH2 0x26B7 JUMPI RETURNDATASIZE PUSH1 0x0 DUP1 RETURNDATACOPY RETURNDATASIZE PUSH1 0x0 REVERT JUMPDEST POP POP POP POP PUSH1 0x40 MLOAD RETURNDATASIZE PUSH1 0x0 DUP3 RETURNDATACOPY PUSH1 0x1F RETURNDATASIZE SWAP1 DUP2 ADD PUSH1 0x1F NOT AND DUP3 ADD PUSH1 0x40 MSTORE PUSH2 0x81D SWAP2 SWAP1 DUP2 ADD SWAP1 PUSH2 0x40B0 JUMP JUMPDEST PUSH1 0x0 PUSH2 0x1064 DUP4 DUP4 PUSH2 0x356B JUMP JUMPDEST PUSH1 0x40 DUP1 MLOAD PUSH1 0x60 DUP2 ADD DUP3 MSTORE PUSH1 0x0 DUP1 DUP3 MSTORE PUSH1 0x20 DUP3 ADD DUP2 SWAP1 MSTORE SWAP2 DUP2 ADD SWAP2 SWAP1 SWAP2 MSTORE PUSH1 0x1 PUSH1 0x1 PUSH1 0xA0 SHL SUB DUP4 AND PUSH2 0x273B JUMPI POP PUSH1 0x40 DUP1 MLOAD PUSH1 0x60 DUP2 ADD DUP3 MSTORE PUSH1 0x11 NOT DUP2 MSTORE PUSH1 0x0 PUSH1 0x20 DUP3 ADD MSTORE PUSH1 0x1 SWAP2 DUP2 ADD SWAP2 SWAP1 SWAP2 MSTORE PUSH2 0xD10 JUMP JUMPDEST PUSH1 0x3 PUSH1 0x0 PUSH20 0x0 PUSH4 0xD5F0B04D DUP7 PUSH1 0x0 PUSH1 0x40 MLOAD DUP4 PUSH4 0xFFFFFFFF AND PUSH1 0xE0 SHL DUP2 MSTORE PUSH1 0x4 ADD PUSH2 0x2779 SWAP3 SWAP2 SWAP1 PUSH2 0x3AE3 JUMP JUMPDEST PUSH1 0x20 PUSH1 0x40 MLOAD DUP1 DUP4 SUB DUP2 DUP7 GAS DELEGATECALL ISZERO DUP1 ISZERO PUSH2 0x2796 JUMPI RETURNDATASIZE PUSH1 0x0 DUP1 RETURNDATACOPY RETURNDATASIZE PUSH1 0x0 REVERT JUMPDEST POP POP POP POP PUSH1 0x40 MLOAD RETURNDATASIZE PUSH1 0x1F NOT PUSH1 0x1F DUP3 ADD AND DUP3 ADD DUP1 PUSH1 0x40 MSTORE POP DUP2 ADD SWAP1 PUSH2 0x27BA SWAP2 SWAP1 PUSH2 0x399A JUMP JUMPDEST DUP2 MSTORE PUSH1 0x20 DUP1 DUP3 ADD SWAP3 SWAP1 SWAP3 MSTORE PUSH1 0x40 SWAP1 DUP2 ADD PUSH1 0x0 SWAP1 DUP2 KECCAK256 DUP3 MLOAD PUSH1 0x60 DUP2 ADD DUP5 MSTORE SWAP1 SLOAD SWAP2 DUP3 SWAP1 SIGNEXTEND DUP2 MSTORE PUSH2 0x100 DUP1 DUP4 DIV PUSH1 0xFF AND ISZERO ISZERO SWAP5 DUP3 ADD SWAP5 SWAP1 SWAP5 MSTORE PUSH3 0x10000 SWAP1 SWAP2 DIV PUSH1 0x1 PUSH1 0x1 PUSH1 0x40 SHL SUB DUP2 AND SWAP3 DUP3 ADD SWAP3 SWAP1 SWAP3 MSTORE SWAP3 POP AND PUSH2 0x2815 JUMPI PUSH2 0xD10 JUMP JUMPDEST PUSH1 0x3 PUSH1 0x0 PUSH20 0x0 PUSH4 0xD5F0B04D DUP7 DUP7 PUSH1 0x40 MLOAD DUP4 PUSH4 0xFFFFFFFF AND PUSH1 0xE0 SHL DUP2 MSTORE PUSH1 0x4 ADD PUSH2 0x2852 SWAP3 SWAP2 SWAP1 PUSH2 0x3AE3 JUMP JUMPDEST PUSH1 0x20 PUSH1 0x40 MLOAD DUP1 DUP4 SUB DUP2 DUP7 GAS DELEGATECALL ISZERO DUP1 ISZERO PUSH2 0x286F JUMPI RETURNDATASIZE PUSH1 0x0 DUP1 RETURNDATACOPY RETURNDATASIZE PUSH1 0x0 REVERT JUMPDEST POP POP POP POP PUSH1 0x40 MLOAD RETURNDATASIZE PUSH1 0x1F NOT PUSH1 0x1F DUP3 ADD AND DUP3 ADD DUP1 PUSH1 0x40 MSTORE POP DUP2 ADD SWAP1 PUSH2 0x2893 SWAP2 SWAP1 PUSH2 0x399A JUMP JUMPDEST DUP2 MSTORE PUSH1 0x20 DUP1 DUP3 ADD SWAP3 SWAP1 SWAP3 MSTORE PUSH1 0x40 SWAP1 DUP2 ADD PUSH1 0x0 SWAP1 DUP2 KECCAK256 DUP3 MLOAD PUSH1 0x60 DUP2 ADD DUP5 MSTORE SWAP1 SLOAD SWAP2 DUP3 SWAP1 SIGNEXTEND DUP2 MSTORE PUSH2 0x100 DUP3 DIV PUSH1 0xFF AND ISZERO ISZERO SWAP4 DUP2 ADD SWAP4 SWAP1 SWAP4 MSTORE PUSH3 0x10000 SWAP1 DIV PUSH1 0x1 PUSH1 0x1 PUSH1 0x40 SHL SUB AND SWAP1 DUP3 ADD MSTORE SWAP4 SWAP3 POP POP POP JUMP JUMPDEST PUSH1 0x0 PUSH2 0x28F1 DUP4 PUSH2 0x200 PUSH2 0x2987 JUMP JUMPDEST PUSH2 0x28FD JUMPI POP PUSH1 0x0 PUSH2 0xD10 JUMP JUMPDEST PUSH2 0x2906 DUP4 PUSH2 0xFF8 JUMP JUMPDEST PUSH1 0x40 MLOAD PUSH4 0x1FFC9A7 PUSH1 0xE0 SHL DUP2 MSTORE PUSH1 0x1 PUSH1 0x1 PUSH1 0xE0 SHL SUB NOT DUP5 AND PUSH1 0x4 DUP3 ADD MSTORE PUSH1 0x1 PUSH1 0x1 PUSH1 0xA0 SHL SUB SWAP2 SWAP1 SWAP2 AND SWAP1 PUSH4 0x1FFC9A7 SWAP1 PUSH1 0x24 ADD PUSH1 0x20 PUSH1 0x40 MLOAD DUP1 DUP4 SUB DUP2 DUP7 GAS STATICCALL ISZERO DUP1 ISZERO PUSH2 0x2956 JUMPI RETURNDATASIZE PUSH1 0x0 DUP1 RETURNDATACOPY RETURNDATASIZE PUSH1 0x0 REVERT JUMPDEST POP POP POP POP PUSH1 0x40 MLOAD RETURNDATASIZE PUSH1 0x1F NOT PUSH1 0x1F DUP3 ADD AND DUP3 ADD DUP1 PUSH1 0x40 MSTORE POP DUP2 ADD SWAP1 PUSH2 0x1064 SWAP2 SWAP1 PUSH2 0x3967 JUMP JUMPDEST PUSH1 0x0 PUSH2 0xD10 DUP3 PUSH1 0x0 PUSH2 0x160B JUMP JUMPDEST PUSH1 0x0 DUP2 PUSH2 0x2993 DUP5 PUSH2 0xE65 JUMP JUMPDEST AND PUSH1 0x1 PUSH1 0x1 PUSH1 0x40 SHL SUB AND ISZERO ISZERO SWAP4 SWAP3 POP POP POP JUMP JUMPDEST PUSH1 0x0 PUSH1 0x1 PUSH1 0x1 PUSH1 0xA0 SHL SUB DUP4 AND ISZERO DUP1 ISZERO PUSH2 0x29BD JUMPI POP DUP2 ISZERO JUMPDEST ISZERO PUSH2 0x29D7 JUMPI POP PUSH1 0x0 DUP1 MLOAD PUSH1 0x20 PUSH2 0x41D7 DUP4 CODECOPY DUP2 MLOAD SWAP2 MSTORE PUSH2 0xD10 JUMP JUMPDEST PUSH1 0x40 MLOAD PUSH4 0xD5F0B04D PUSH1 0xE0 SHL DUP2 MSTORE PUSH20 0x0 SWAP1 PUSH4 0xD5F0B04D SWAP1 PUSH2 0x2A10 SWAP1 DUP7 SWAP1 DUP7 SWAP1 PUSH1 0x4 ADD PUSH2 0x3AE3 JUMP JUMPDEST PUSH1 0x20 PUSH1 0x40 MLOAD DUP1 DUP4 SUB DUP2 DUP7 GAS DELEGATECALL ISZERO DUP1 ISZERO PUSH2 0x2A2D JUMPI RETURNDATASIZE PUSH1 0x0 DUP1 RETURNDATACOPY RETURNDATASIZE PUSH1 0x0 REVERT JUMPDEST POP POP POP POP PUSH1 0x40 MLOAD RETURNDATASIZE PUSH1 0x1F NOT PUSH1 0x1F DUP3 ADD AND DUP3 ADD DUP1 PUSH1 0x40 MSTORE POP DUP2 ADD SWAP1 PUSH2 0x1064 SWAP2 SWAP1 PUSH2 0x399A JUMP JUMPDEST PUSH1 0x0 PUSH1 0x0 DUP1 MLOAD PUSH1 0x20 PUSH2 0x41D7 DUP4 CODECOPY DUP2 MLOAD SWAP2 MSTORE DUP3 EQ ISZERO PUSH2 0x2A74 JUMPI PUSH2 0xD10 PUSH1 0x0 DUP1 PUSH2 0x160B JUMP JUMPDEST PUSH2 0x2A7D DUP3 PUSH2 0xDE1 JUMP JUMPDEST PUSH2 0x2A89 JUMPI POP PUSH1 0x0 SWAP2 SWAP1 POP JUMP JUMPDEST PUSH1 0x0 DUP1 PUSH2 0x2A95 DUP5 PUSH2 0xE0A JUMP JUMPDEST SWAP2 POP SWAP2 POP PUSH2 0xDCC DUP3 DUP3 PUSH2 0x160B JUMP JUMPDEST PUSH1 0x0 PUSH2 0x2AAD PUSH2 0x16DD JUMP JUMPDEST PUSH2 0xD10 DUP3 PUSH2 0x35C3 JUMP JUMPDEST PUSH1 0x0 PUSH2 0x2AC0 PUSH2 0x16DD JUMP JUMPDEST PUSH2 0xD10 DUP3 PUSH2 0x35F5 JUMP JUMPDEST PUSH1 0x0 DUP1 PUSH2 0xE5C DUP4 PUSH2 0x3716 JUMP JUMPDEST PUSH1 0x0 PUSH2 0x2ADF PUSH2 0x16DD JUMP JUMPDEST PUSH2 0x1064 DUP4 DUP4 PUSH2 0x3798 JUMP JUMPDEST PUSH2 0x2AF1 PUSH2 0x3269 JUMP JUMPDEST PUSH1 0x1 PUSH1 0x1 PUSH1 0xA0 SHL SUB DUP2 AND PUSH2 0x2B56 JUMPI PUSH1 0x40 MLOAD PUSH3 0x461BCD PUSH1 0xE5 SHL DUP2 MSTORE PUSH1 0x20 PUSH1 0x4 DUP3 ADD MSTORE PUSH1 0x26 PUSH1 0x24 DUP3 ADD MSTORE PUSH32 0x4F776E61626C653A206E6577206F776E657220697320746865207A65726F2061 PUSH1 0x44 DUP3 ADD MSTORE PUSH6 0x646472657373 PUSH1 0xD0 SHL PUSH1 0x64 DUP3 ADD MSTORE PUSH1 0x84 ADD PUSH2 0xCC5 JUMP JUMPDEST PUSH2 0x2B5F DUP2 PUSH2 0x32C3 JUMP JUMPDEST POP JUMP JUMPDEST PUSH1 0x40 DUP1 MLOAD PUSH1 0x60 DUP2 ADD DUP3 MSTORE PUSH1 0x0 DUP1 DUP3 MSTORE PUSH1 0x20 DUP3 ADD DUP2 SWAP1 MSTORE SWAP2 DUP2 ADD SWAP2 SWAP1 SWAP2 MSTORE PUSH2 0xD10 DUP3 PUSH1 0x0 PUSH2 0x26EB JUMP JUMPDEST PUSH1 0x0 PUSH1 0x1 PUSH1 0x1 PUSH1 0xE0 SHL SUB NOT DUP3 AND PUSH4 0x1FFC9A7 PUSH1 0xE0 SHL EQ DUP1 PUSH2 0xD10 JUMPI POP PUSH1 0x1 PUSH1 0x1 PUSH1 0xE0 SHL SUB NOT DUP3 AND PUSH4 0x2B43F033 PUSH1 0xE2 SHL EQ SWAP3 SWAP2 POP POP JUMP JUMPDEST PUSH1 0x6 SLOAD PUSH1 0x0 SWAP1 DUP2 JUMPDEST DUP2 DUP2 LT ISZERO PUSH2 0x2C5A JUMPI DUP5 PUSH1 0x1 PUSH1 0x1 PUSH1 0xA0 SHL SUB AND PUSH1 0x6 DUP3 DUP2 SLOAD DUP2 LT PUSH2 0x2BED JUMPI PUSH2 0x2BED PUSH2 0x3984 JUMP JUMPDEST PUSH1 0x0 SWAP2 DUP3 MSTORE PUSH1 0x20 SWAP1 SWAP2 KECCAK256 PUSH1 0x2 SWAP1 SWAP2 MUL ADD SLOAD PUSH1 0x1 PUSH1 0x1 PUSH1 0xA0 SHL SUB AND EQ DUP1 ISZERO PUSH2 0x2C38 JUMPI POP PUSH1 0x6 DUP2 DUP2 SLOAD DUP2 LT PUSH2 0x2C22 JUMPI PUSH2 0x2C22 PUSH2 0x3984 JUMP JUMPDEST SWAP1 PUSH1 0x0 MSTORE PUSH1 0x20 PUSH1 0x0 KECCAK256 SWAP1 PUSH1 0x2 MUL ADD PUSH1 0x1 ADD SLOAD PUSH1 0x0 EQ JUMPDEST ISZERO PUSH2 0x2C48 JUMPI PUSH1 0x0 SWAP3 POP POP POP PUSH2 0xD10 JUMP JUMPDEST DUP1 PUSH2 0x2C52 DUP2 PUSH2 0x39EF JUMP JUMPDEST SWAP2 POP POP PUSH2 0x2BC8 JUMP JUMPDEST POP DUP3 PUSH2 0x2D1A JUMPI PUSH1 0x0 NOT DUP2 ADD JUMPDEST DUP2 DUP2 LT ISZERO PUSH2 0x2D14 JUMPI DUP5 PUSH1 0x1 PUSH1 0x1 PUSH1 0xA0 SHL SUB AND PUSH1 0x6 DUP3 DUP2 SLOAD DUP2 LT PUSH2 0x2C8B JUMPI PUSH2 0x2C8B PUSH2 0x3984 JUMP JUMPDEST PUSH1 0x0 SWAP2 DUP3 MSTORE PUSH1 0x20 SWAP1 SWAP2 KECCAK256 PUSH1 0x2 SWAP1 SWAP2 MUL ADD SLOAD PUSH1 0x1 PUSH1 0x1 PUSH1 0xA0 SHL SUB AND EQ ISZERO PUSH2 0x2D0B JUMPI PUSH2 0x2D09 PUSH1 0x6 DUP3 DUP2 SLOAD DUP2 LT PUSH2 0x2CC1 JUMPI PUSH2 0x2CC1 PUSH2 0x3984 JUMP JUMPDEST PUSH1 0x0 SWAP2 DUP3 MSTORE PUSH1 0x20 SWAP1 SWAP2 KECCAK256 PUSH1 0x2 SWAP1 SWAP2 MUL ADD SLOAD PUSH1 0x6 DUP1 SLOAD PUSH1 0x1 PUSH1 0x1 PUSH1 0xA0 SHL SUB SWAP1 SWAP3 AND SWAP2 DUP5 SWAP1 DUP2 LT PUSH2 0x2CF2 JUMPI PUSH2 0x2CF2 PUSH2 0x3984 JUMP JUMPDEST SWAP1 PUSH1 0x0 MSTORE PUSH1 0x20 PUSH1 0x0 KECCAK256 SWAP1 PUSH1 0x2 MUL ADD PUSH1 0x1 ADD SLOAD PUSH2 0x3798 JUMP JUMPDEST POP JUMPDEST PUSH1 0x0 NOT ADD PUSH2 0x2C66 JUMP JUMPDEST POP PUSH2 0x2DB0 JUMP JUMPDEST PUSH1 0x0 JUMPDEST DUP2 DUP2 LT ISZERO PUSH2 0x2DAE JUMPI DUP5 PUSH1 0x1 PUSH1 0x1 PUSH1 0xA0 SHL SUB AND PUSH1 0x6 DUP3 DUP2 SLOAD DUP2 LT PUSH2 0x2D42 JUMPI PUSH2 0x2D42 PUSH2 0x3984 JUMP JUMPDEST PUSH1 0x0 SWAP2 DUP3 MSTORE PUSH1 0x20 SWAP1 SWAP2 KECCAK256 PUSH1 0x2 SWAP1 SWAP2 MUL ADD SLOAD PUSH1 0x1 PUSH1 0x1 PUSH1 0xA0 SHL SUB AND EQ DUP1 ISZERO PUSH2 0x2D8C JUMPI POP DUP4 PUSH1 0x6 DUP3 DUP2 SLOAD DUP2 LT PUSH2 0x2D78 JUMPI PUSH2 0x2D78 PUSH2 0x3984 JUMP JUMPDEST SWAP1 PUSH1 0x0 MSTORE PUSH1 0x20 PUSH1 0x0 KECCAK256 SWAP1 PUSH1 0x2 MUL ADD PUSH1 0x1 ADD SLOAD EQ JUMPDEST ISZERO PUSH2 0x2D9C JUMPI PUSH1 0x0 SWAP3 POP POP POP PUSH2 0xD10 JUMP JUMPDEST DUP1 PUSH2 0x2DA6 DUP2 PUSH2 0x39EF JUMP JUMPDEST SWAP2 POP POP PUSH2 0x2D1D JUMP JUMPDEST POP JUMPDEST PUSH1 0x40 DUP1 MLOAD DUP1 DUP3 ADD SWAP1 SWAP2 MSTORE PUSH1 0x1 PUSH1 0x1 PUSH1 0xA0 SHL SUB DUP6 DUP2 AND DUP3 MSTORE PUSH1 0x20 DUP3 ADD DUP6 DUP2 MSTORE PUSH1 0x6 DUP1 SLOAD PUSH1 0x1 DUP2 ADD DUP3 SSTORE PUSH1 0x0 SWAP2 SWAP1 SWAP2 MSTORE SWAP3 MLOAD PUSH32 0xF652222313E28459528D920B65115C16C04F3EFC82AAEDC97BE59F3F377C0D3F PUSH1 0x2 SWAP1 SWAP5 MUL SWAP4 DUP5 ADD DUP1 SLOAD PUSH1 0x1 PUSH1 0x1 PUSH1 0xA0 SHL SUB NOT AND SWAP2 SWAP1 SWAP4 AND OR SWAP1 SWAP2 SSTORE MLOAD PUSH32 0xF652222313E28459528D920B65115C16C04F3EFC82AAEDC97BE59F3F377C0D40 SWAP1 SWAP2 ADD SSTORE POP PUSH1 0x1 SWAP4 SWAP3 POP POP POP JUMP JUMPDEST PUSH1 0x0 DUP2 MLOAD DUP4 MLOAD EQ PUSH2 0x2E60 JUMPI POP PUSH1 0x0 PUSH2 0xD10 JUMP JUMPDEST PUSH1 0x0 JUMPDEST DUP4 MLOAD DUP2 LT ISZERO PUSH2 0x2ED5 JUMPI DUP3 DUP2 DUP2 MLOAD DUP2 LT PUSH2 0x2E7E JUMPI PUSH2 0x2E7E PUSH2 0x3984 JUMP JUMPDEST PUSH1 0x20 ADD ADD MLOAD PUSH1 0xF8 SHR PUSH1 0xF8 SHL PUSH1 0x1 PUSH1 0x1 PUSH1 0xF8 SHL SUB NOT AND DUP5 DUP3 DUP2 MLOAD DUP2 LT PUSH2 0x2EA5 JUMPI PUSH2 0x2EA5 PUSH2 0x3984 JUMP JUMPDEST ADD PUSH1 0x20 ADD MLOAD PUSH1 0x1 PUSH1 0x1 PUSH1 0xF8 SHL SUB NOT AND EQ PUSH2 0x2EC3 JUMPI PUSH1 0x0 SWAP2 POP POP PUSH2 0xD10 JUMP JUMPDEST DUP1 PUSH2 0x2ECD DUP2 PUSH2 0x39EF JUMP JUMPDEST SWAP2 POP POP PUSH2 0x2E63 JUMP JUMPDEST POP PUSH1 0x1 SWAP4 SWAP3 POP POP POP JUMP JUMPDEST PUSH1 0x0 DUP2 DUP2 MSTORE PUSH1 0x8 PUSH1 0x20 MSTORE PUSH1 0x40 DUP2 KECCAK256 DUP1 SLOAD PUSH2 0x2EF8 SWAP1 PUSH2 0x3E61 JUMP JUMPDEST ISZERO ISZERO SWAP4 SWAP3 POP POP POP JUMP JUMPDEST PUSH1 0x0 PUSH1 0x1 PUSH1 0x1 PUSH1 0xA0 SHL SUB DUP3 AND ADDRESS EQ ISZERO PUSH2 0x2F1C JUMPI POP PUSH1 0x1 SWAP2 SWAP1 POP JUMP JUMPDEST PUSH1 0x5 SLOAD JUMPDEST DUP1 ISZERO PUSH2 0x2F83 JUMPI PUSH1 0x1 PUSH1 0x1 PUSH1 0xA0 SHL SUB DUP4 AND PUSH1 0x5 PUSH2 0x2F3D PUSH1 0x1 DUP5 PUSH2 0x4040 JUMP JUMPDEST DUP2 SLOAD DUP2 LT PUSH2 0x2F4D JUMPI PUSH2 0x2F4D PUSH2 0x3984 JUMP JUMPDEST PUSH1 0x0 SWAP2 DUP3 MSTORE PUSH1 0x20 SWAP1 SWAP2 KECCAK256 ADD SLOAD PUSH1 0x1 PUSH1 0x1 PUSH1 0xA0 SHL SUB AND EQ ISZERO PUSH2 0x2F71 JUMPI POP PUSH1 0x1 SWAP3 SWAP2 POP POP JUMP JUMPDEST DUP1 PUSH2 0x2F7B DUP2 PUSH2 0x4057 JUMP JUMPDEST SWAP2 POP POP PUSH2 0x2F20 JUMP JUMPDEST POP PUSH1 0x0 SWAP3 SWAP2 POP POP JUMP JUMPDEST PUSH1 0x4 SLOAD PUSH1 0x0 SWAP1 JUMPDEST DUP1 ISZERO PUSH2 0x3036 JUMPI PUSH1 0x1 PUSH1 0x1 PUSH1 0xA0 SHL SUB DUP5 AND PUSH1 0x4 PUSH2 0x2FB0 PUSH1 0x1 DUP5 PUSH2 0x4040 JUMP JUMPDEST DUP2 SLOAD DUP2 LT PUSH2 0x2FC0 JUMPI PUSH2 0x2FC0 PUSH2 0x3984 JUMP JUMPDEST PUSH1 0x0 SWAP2 DUP3 MSTORE PUSH1 0x20 SWAP1 SWAP2 KECCAK256 PUSH1 0x2 SWAP1 SWAP2 MUL ADD SLOAD PUSH1 0x1 PUSH1 0x1 PUSH1 0xA0 SHL SUB AND EQ DUP1 ISZERO PUSH2 0x3015 JUMPI POP PUSH1 0x4 PUSH2 0x2FEF PUSH1 0x1 DUP4 PUSH2 0x4040 JUMP JUMPDEST DUP2 SLOAD DUP2 LT PUSH2 0x2FFF JUMPI PUSH2 0x2FFF PUSH2 0x3984 JUMP JUMPDEST SWAP1 PUSH1 0x0 MSTORE PUSH1 0x20 PUSH1 0x0 KECCAK256 SWAP1 PUSH1 0x2 MUL ADD PUSH1 0x1 ADD SLOAD PUSH1 0x0 EQ JUMPDEST ISZERO PUSH2 0x3024 JUMPI PUSH1 0x0 SWAP2 POP POP PUSH2 0xD10 JUMP JUMPDEST DUP1 PUSH2 0x302E DUP2 PUSH2 0x4057 JUMP JUMPDEST SWAP2 POP POP PUSH2 0x2F93 JUMP JUMPDEST POP DUP2 PUSH2 0x3125 JUMPI JUMPDEST PUSH1 0x4 SLOAD JUMPDEST DUP1 ISZERO PUSH2 0x3114 JUMPI PUSH1 0x1 PUSH1 0x1 PUSH1 0xA0 SHL SUB DUP5 AND PUSH1 0x4 PUSH2 0x305E PUSH1 0x1 DUP5 PUSH2 0x4040 JUMP JUMPDEST DUP2 SLOAD DUP2 LT PUSH2 0x306E JUMPI PUSH2 0x306E PUSH2 0x3984 JUMP JUMPDEST PUSH1 0x0 SWAP2 DUP3 MSTORE PUSH1 0x20 SWAP1 SWAP2 KECCAK256 PUSH1 0x2 SWAP1 SWAP2 MUL ADD SLOAD PUSH1 0x1 PUSH1 0x1 PUSH1 0xA0 SHL SUB AND EQ ISZERO PUSH2 0x3102 JUMPI PUSH2 0x30FC PUSH1 0x4 PUSH2 0x309E PUSH1 0x1 DUP5 PUSH2 0x4040 JUMP JUMPDEST DUP2 SLOAD DUP2 LT PUSH2 0x30AE JUMPI PUSH2 0x30AE PUSH2 0x3984 JUMP JUMPDEST PUSH1 0x0 SWAP2 DUP3 MSTORE PUSH1 0x20 SWAP1 SWAP2 KECCAK256 PUSH1 0x2 SWAP1 SWAP2 MUL ADD SLOAD PUSH1 0x1 PUSH1 0x1 PUSH1 0xA0 SHL SUB AND PUSH1 0x4 PUSH2 0x30D5 PUSH1 0x1 DUP6 PUSH2 0x4040 JUMP JUMPDEST DUP2 SLOAD DUP2 LT PUSH2 0x30E5 JUMPI PUSH2 0x30E5 PUSH2 0x3984 JUMP JUMPDEST SWAP1 PUSH1 0x0 MSTORE PUSH1 0x20 PUSH1 0x0 KECCAK256 SWAP1 PUSH1 0x2 MUL ADD PUSH1 0x1 ADD SLOAD PUSH2 0x3313 JUMP JUMPDEST POP PUSH2 0x3114 JUMP JUMPDEST DUP1 PUSH2 0x310C DUP2 PUSH2 0x4057 JUMP JUMPDEST SWAP2 POP POP PUSH2 0x3041 JUMP JUMPDEST DUP1 PUSH2 0x311F JUMPI POP PUSH2 0x31CD JUMP JUMPDEST POP PUSH2 0x303D JUMP JUMPDEST PUSH1 0x4 SLOAD JUMPDEST DUP1 ISZERO PUSH2 0x31CB JUMPI PUSH1 0x1 PUSH1 0x1 PUSH1 0xA0 SHL SUB DUP5 AND PUSH1 0x4 PUSH2 0x3146 PUSH1 0x1 DUP5 PUSH2 0x4040 JUMP JUMPDEST DUP2 SLOAD DUP2 LT PUSH2 0x3156 JUMPI PUSH2 0x3156 PUSH2 0x3984 JUMP JUMPDEST PUSH1 0x0 SWAP2 DUP3 MSTORE PUSH1 0x20 SWAP1 SWAP2 KECCAK256 PUSH1 0x2 SWAP1 SWAP2 MUL ADD SLOAD PUSH1 0x1 PUSH1 0x1 PUSH1 0xA0 SHL SUB AND EQ DUP1 ISZERO PUSH2 0x31AA JUMPI POP DUP3 PUSH1 0x4 PUSH2 0x3186 PUSH1 0x1 DUP5 PUSH2 0x4040 JUMP JUMPDEST DUP2 SLOAD DUP2 LT PUSH2 0x3196 JUMPI PUSH2 0x3196 PUSH2 0x3984 JUMP JUMPDEST SWAP1 PUSH1 0x0 MSTORE PUSH1 0x20 PUSH1 0x0 KECCAK256 SWAP1 PUSH1 0x2 MUL ADD PUSH1 0x1 ADD SLOAD EQ JUMPDEST ISZERO PUSH2 0x31B9 JUMPI PUSH1 0x0 SWAP2 POP POP PUSH2 0xD10 JUMP JUMPDEST DUP1 PUSH2 0x31C3 DUP2 PUSH2 0x4057 JUMP JUMPDEST SWAP2 POP POP PUSH2 0x3129 JUMP JUMPDEST POP JUMPDEST PUSH1 0x40 DUP1 MLOAD DUP1 DUP3 ADD SWAP1 SWAP2 MSTORE PUSH1 0x1 PUSH1 0x1 PUSH1 0xA0 SHL SUB DUP5 DUP2 AND DUP3 MSTORE PUSH1 0x20 DUP3 ADD DUP5 DUP2 MSTORE PUSH1 0x4 DUP1 SLOAD PUSH1 0x1 DUP2 ADD DUP3 SSTORE PUSH1 0x0 SWAP2 SWAP1 SWAP2 MSTORE SWAP3 MLOAD PUSH32 0x8A35ACFBC15FF81A39AE7D344FD709F28E8600B4AA8C65C6B64BFE7FE36BD19B PUSH1 0x2 SWAP1 SWAP5 MUL SWAP4 DUP5 ADD DUP1 SLOAD PUSH1 0x1 PUSH1 0x1 PUSH1 0xA0 SHL SUB NOT AND SWAP2 SWAP1 SWAP4 AND OR SWAP1 SWAP2 SSTORE MLOAD PUSH32 0x8A35ACFBC15FF81A39AE7D344FD709F28E8600B4AA8C65C6B64BFE7FE36BD19C SWAP1 SWAP2 ADD SSTORE POP PUSH1 0x1 SWAP3 SWAP2 POP POP JUMP JUMPDEST PUSH1 0x0 SLOAD PUSH1 0x1 PUSH1 0x1 PUSH1 0xA0 SHL SUB AND CALLER EQ PUSH2 0xCCE JUMPI PUSH1 0x40 MLOAD PUSH3 0x461BCD PUSH1 0xE5 SHL DUP2 MSTORE PUSH1 0x20 PUSH1 0x4 DUP3 ADD MSTORE PUSH1 0x1F PUSH1 0x24 DUP3 ADD MSTORE PUSH32 0x416C6C6F77616E63653A2063616C6C6572206D757374206265204F776E657200 PUSH1 0x44 DUP3 ADD MSTORE PUSH1 0x64 ADD PUSH2 0xCC5 JUMP JUMPDEST PUSH1 0x0 DUP1 SLOAD PUSH1 0x1 PUSH1 0x1 PUSH1 0xA0 SHL SUB DUP4 DUP2 AND PUSH1 0x1 PUSH1 0x1 PUSH1 0xA0 SHL SUB NOT DUP4 AND DUP2 OR DUP5 SSTORE PUSH1 0x40 MLOAD SWAP2 SWAP1 SWAP3 AND SWAP3 DUP4 SWAP2 PUSH32 0x8BE0079C531659141344CD1FD0A4F28419497F9722A3DAAFE3B4186F6B6457E0 SWAP2 SWAP1 LOG3 POP POP JUMP JUMPDEST PUSH1 0x4 SLOAD PUSH1 0x0 SWAP1 DUP2 JUMPDEST DUP2 DUP2 LT ISZERO PUSH2 0x241F JUMPI DUP5 PUSH1 0x1 PUSH1 0x1 PUSH1 0xA0 SHL SUB AND PUSH1 0x4 DUP3 DUP2 SLOAD DUP2 LT PUSH2 0x3340 JUMPI PUSH2 0x3340 PUSH2 0x3984 JUMP JUMPDEST PUSH1 0x0 SWAP2 DUP3 MSTORE PUSH1 0x20 SWAP1 SWAP2 KECCAK256 PUSH1 0x2 SWAP1 SWAP2 MUL ADD SLOAD PUSH1 0x1 PUSH1 0x1 PUSH1 0xA0 SHL SUB AND EQ DUP1 ISZERO PUSH2 0x338A JUMPI POP DUP4 PUSH1 0x4 DUP3 DUP2 SLOAD DUP2 LT PUSH2 0x3376 JUMPI PUSH2 0x3376 PUSH2 0x3984 JUMP JUMPDEST SWAP1 PUSH1 0x0 MSTORE PUSH1 0x20 PUSH1 0x0 KECCAK256 SWAP1 PUSH1 0x2 MUL ADD PUSH1 0x1 ADD SLOAD EQ JUMPDEST ISZERO PUSH2 0x345D JUMPI PUSH2 0x339A PUSH1 0x1 DUP4 PUSH2 0x4040 JUMP JUMPDEST DUP2 LT ISZERO PUSH2 0x3418 JUMPI PUSH1 0x4 PUSH2 0x33AE PUSH1 0x1 DUP5 PUSH2 0x4040 JUMP JUMPDEST DUP2 SLOAD DUP2 LT PUSH2 0x33BE JUMPI PUSH2 0x33BE PUSH2 0x3984 JUMP JUMPDEST SWAP1 PUSH1 0x0 MSTORE PUSH1 0x20 PUSH1 0x0 KECCAK256 SWAP1 PUSH1 0x2 MUL ADD PUSH1 0x4 DUP3 DUP2 SLOAD DUP2 LT PUSH2 0x33DF JUMPI PUSH2 0x33DF PUSH2 0x3984 JUMP JUMPDEST PUSH1 0x0 SWAP2 DUP3 MSTORE PUSH1 0x20 SWAP1 SWAP2 KECCAK256 DUP3 SLOAD PUSH1 0x2 SWAP1 SWAP3 MUL ADD DUP1 SLOAD PUSH1 0x1 PUSH1 0x1 PUSH1 0xA0 SHL SUB NOT AND PUSH1 0x1 PUSH1 0x1 PUSH1 0xA0 SHL SUB SWAP1 SWAP3 AND SWAP2 SWAP1 SWAP2 OR DUP2 SSTORE PUSH1 0x1 SWAP2 DUP3 ADD SLOAD SWAP2 ADD SSTORE JUMPDEST PUSH1 0x4 DUP1 SLOAD DUP1 PUSH2 0x3429 JUMPI PUSH2 0x3429 PUSH2 0x4126 JUMP JUMPDEST PUSH1 0x0 DUP3 DUP2 MSTORE PUSH1 0x20 DUP2 KECCAK256 PUSH1 0x2 PUSH1 0x0 NOT SWAP1 SWAP4 ADD SWAP3 DUP4 MUL ADD DUP1 SLOAD PUSH1 0x1 PUSH1 0x1 PUSH1 0xA0 SHL SUB NOT AND DUP2 SSTORE PUSH1 0x1 ADD SSTORE SWAP1 SSTORE PUSH1 0x1 SWAP3 POP POP POP PUSH2 0xD10 JUMP JUMPDEST DUP1 PUSH2 0x3467 DUP2 PUSH2 0x39EF JUMP JUMPDEST SWAP2 POP POP PUSH2 0x331B JUMP JUMPDEST PUSH1 0x5 SLOAD PUSH1 0x0 SWAP1 JUMPDEST DUP1 ISZERO PUSH2 0x34D9 JUMPI PUSH1 0x1 PUSH1 0x1 PUSH1 0xA0 SHL SUB DUP4 AND PUSH1 0x5 PUSH2 0x3493 PUSH1 0x1 DUP5 PUSH2 0x4040 JUMP JUMPDEST DUP2 SLOAD DUP2 LT PUSH2 0x34A3 JUMPI PUSH2 0x34A3 PUSH2 0x3984 JUMP JUMPDEST PUSH1 0x0 SWAP2 DUP3 MSTORE PUSH1 0x20 SWAP1 SWAP2 KECCAK256 ADD SLOAD PUSH1 0x1 PUSH1 0x1 PUSH1 0xA0 SHL SUB AND EQ ISZERO PUSH2 0x34C7 JUMPI POP PUSH1 0x0 SWAP3 SWAP2 POP POP JUMP JUMPDEST DUP1 PUSH2 0x34D1 DUP2 PUSH2 0x4057 JUMP JUMPDEST SWAP2 POP POP PUSH2 0x3476 JUMP JUMPDEST PUSH1 0x5 DUP1 SLOAD PUSH1 0x1 DUP2 ADD DUP3 SSTORE PUSH1 0x0 SWAP2 SWAP1 SWAP2 MSTORE PUSH32 0x36B6384B5ECA791C62761152D0C79BB0604C104A5FB6F4EB0703F3154BB3DB0 ADD DUP1 SLOAD PUSH1 0x1 PUSH1 0x1 PUSH1 0xA0 SHL SUB NOT AND PUSH1 0x1 PUSH1 0x1 PUSH1 0xA0 SHL SUB DUP6 AND OR SWAP1 SSTORE POP PUSH1 0x1 SWAP3 SWAP2 POP POP JUMP JUMPDEST PUSH1 0x0 PUSH2 0x1064 PUSH20 0x0 PUSH4 0xDE874ED DUP6 DUP6 PUSH1 0x40 MLOAD DUP4 PUSH4 0xFFFFFFFF AND PUSH1 0xE0 SHL DUP2 MSTORE PUSH1 0x4 ADD PUSH2 0x1682 SWAP3 SWAP2 SWAP1 PUSH2 0x3AE3 JUMP JUMPDEST PUSH1 0x0 PUSH1 0x1 PUSH1 0x1 PUSH1 0xA0 SHL SUB DUP4 AND PUSH2 0x3583 JUMPI POP PUSH1 0x1 PUSH2 0xD10 JUMP JUMPDEST PUSH20 0x0 PUSH4 0x3646B548 PUSH2 0x35A7 DUP6 DUP6 PUSH2 0x26EB JUMP JUMPDEST PUSH1 0x40 MLOAD DUP3 PUSH4 0xFFFFFFFF AND PUSH1 0xE0 SHL DUP2 MSTORE PUSH1 0x4 ADD PUSH2 0x2A10 SWAP2 SWAP1 PUSH2 0x3A97 JUMP JUMPDEST PUSH1 0x7 SLOAD PUSH1 0x0 SWAP1 PUSH1 0xFF AND ISZERO ISZERO DUP3 ISZERO ISZERO EQ ISZERO PUSH2 0x35DF JUMPI POP PUSH1 0x0 SWAP2 SWAP1 POP JUMP JUMPDEST PUSH1 0x7 DUP1 SLOAD PUSH1 0xFF NOT AND DUP4 ISZERO ISZERO OR SWAP1 SSTORE POP PUSH1 0x1 SWAP2 SWAP1 POP JUMP JUMPDEST PUSH1 0x5 SLOAD PUSH1 0x0 SWAP1 DUP2 JUMPDEST DUP2 DUP2 LT ISZERO PUSH2 0x214C JUMPI DUP4 PUSH1 0x1 PUSH1 0x1 PUSH1 0xA0 SHL SUB AND PUSH1 0x5 DUP3 DUP2 SLOAD DUP2 LT PUSH2 0x3622 JUMPI PUSH2 0x3622 PUSH2 0x3984 JUMP JUMPDEST PUSH1 0x0 SWAP2 DUP3 MSTORE PUSH1 0x20 SWAP1 SWAP2 KECCAK256 ADD SLOAD PUSH1 0x1 PUSH1 0x1 PUSH1 0xA0 SHL SUB AND EQ ISZERO PUSH2 0x3704 JUMPI PUSH2 0x3648 PUSH1 0x1 DUP4 PUSH2 0x4040 JUMP JUMPDEST DUP2 LT ISZERO PUSH2 0x36C7 JUMPI PUSH1 0x5 PUSH2 0x365C PUSH1 0x1 DUP5 PUSH2 0x4040 JUMP JUMPDEST DUP2 SLOAD DUP2 LT PUSH2 0x366C JUMPI PUSH2 0x366C PUSH2 0x3984 JUMP JUMPDEST PUSH1 0x0 SWAP2 DUP3 MSTORE PUSH1 0x20 SWAP1 SWAP2 KECCAK256 ADD SLOAD PUSH1 0x5 DUP1 SLOAD PUSH1 0x1 PUSH1 0x1 PUSH1 0xA0 SHL SUB SWAP1 SWAP3 AND SWAP2 DUP4 SWAP1 DUP2 LT PUSH2 0x3698 JUMPI PUSH2 0x3698 PUSH2 0x3984 JUMP JUMPDEST SWAP1 PUSH1 0x0 MSTORE PUSH1 0x20 PUSH1 0x0 KECCAK256 ADD PUSH1 0x0 PUSH2 0x100 EXP DUP2 SLOAD DUP2 PUSH1 0x1 PUSH1 0x1 PUSH1 0xA0 SHL SUB MUL NOT AND SWAP1 DUP4 PUSH1 0x1 PUSH1 0x1 PUSH1 0xA0 SHL SUB AND MUL OR SWAP1 SSTORE POP JUMPDEST PUSH1 0x5 DUP1 SLOAD DUP1 PUSH2 0x36D8 JUMPI PUSH2 0x36D8 PUSH2 0x4126 JUMP JUMPDEST PUSH1 0x0 DUP3 DUP2 MSTORE PUSH1 0x20 SWAP1 KECCAK256 DUP2 ADD PUSH1 0x0 NOT SWAP1 DUP2 ADD DUP1 SLOAD PUSH1 0x1 PUSH1 0x1 PUSH1 0xA0 SHL SUB NOT AND SWAP1 SSTORE ADD SWAP1 SSTORE POP PUSH1 0x1 SWAP4 SWAP3 POP POP POP JUMP JUMPDEST DUP1 PUSH2 0x370E DUP2 PUSH2 0x39EF JUMP JUMPDEST SWAP2 POP POP PUSH2 0x35FD JUMP JUMPDEST PUSH1 0x0 DUP1 PUSH2 0x3722 DUP4 PUSH2 0x14DB JUMP JUMPDEST PUSH1 0x40 MLOAD PUSH4 0x14130A79 PUSH1 0xE3 SHL DUP2 MSTORE PUSH20 0x0 SWAP2 PUSH4 0xA09853C8 SWAP2 PUSH2 0x3758 SWAP2 SWAP1 PUSH1 0x4 ADD PUSH2 0x3C5E JUMP JUMPDEST PUSH1 0x40 DUP1 MLOAD DUP1 DUP4 SUB DUP2 DUP7 GAS DELEGATECALL ISZERO DUP1 ISZERO PUSH2 0x3774 JUMPI RETURNDATASIZE PUSH1 0x0 DUP1 RETURNDATACOPY RETURNDATASIZE PUSH1 0x0 REVERT JUMPDEST POP POP POP POP PUSH1 0x40 MLOAD RETURNDATASIZE PUSH1 0x1F NOT PUSH1 0x1F DUP3 ADD AND DUP3 ADD DUP1 PUSH1 0x40 MSTORE POP DUP2 ADD SWAP1 PUSH2 0xE5C SWAP2 SWAP1 PUSH2 0x413C JUMP JUMPDEST PUSH1 0x6 SLOAD PUSH1 0x0 SWAP1 DUP2 JUMPDEST DUP2 DUP2 LT ISZERO PUSH2 0x241F JUMPI DUP5 PUSH1 0x1 PUSH1 0x1 PUSH1 0xA0 SHL SUB AND PUSH1 0x6 DUP3 DUP2 SLOAD DUP2 LT PUSH2 0x37C5 JUMPI PUSH2 0x37C5 PUSH2 0x3984 JUMP JUMPDEST PUSH1 0x0 SWAP2 DUP3 MSTORE PUSH1 0x20 SWAP1 SWAP2 KECCAK256 PUSH1 0x2 SWAP1 SWAP2 MUL ADD SLOAD PUSH1 0x1 PUSH1 0x1 PUSH1 0xA0 SHL SUB AND EQ DUP1 ISZERO PUSH2 0x380F JUMPI POP DUP4 PUSH1 0x6 DUP3 DUP2 SLOAD DUP2 LT PUSH2 0x37FB JUMPI PUSH2 0x37FB PUSH2 0x3984 JUMP JUMPDEST SWAP1 PUSH1 0x0 MSTORE PUSH1 0x20 PUSH1 0x0 KECCAK256 SWAP1 PUSH1 0x2 MUL ADD PUSH1 0x1 ADD SLOAD EQ JUMPDEST ISZERO PUSH2 0x38AE JUMPI PUSH2 0x381F PUSH1 0x1 DUP4 PUSH2 0x4040 JUMP JUMPDEST DUP2 LT ISZERO PUSH2 0x389D JUMPI PUSH1 0x6 PUSH2 0x3833 PUSH1 0x1 DUP5 PUSH2 0x4040 JUMP JUMPDEST DUP2 SLOAD DUP2 LT PUSH2 0x3843 JUMPI PUSH2 0x3843 PUSH2 0x3984 JUMP JUMPDEST SWAP1 PUSH1 0x0 MSTORE PUSH1 0x20 PUSH1 0x0 KECCAK256 SWAP1 PUSH1 0x2 MUL ADD PUSH1 0x6 DUP3 DUP2 SLOAD DUP2 LT PUSH2 0x3864 JUMPI PUSH2 0x3864 PUSH2 0x3984 JUMP JUMPDEST PUSH1 0x0 SWAP2 DUP3 MSTORE PUSH1 0x20 SWAP1 SWAP2 KECCAK256 DUP3 SLOAD PUSH1 0x2 SWAP1 SWAP3 MUL ADD DUP1 SLOAD PUSH1 0x1 PUSH1 0x1 PUSH1 0xA0 SHL SUB NOT AND PUSH1 0x1 PUSH1 0x1 PUSH1 0xA0 SHL SUB SWAP1 SWAP3 AND SWAP2 SWAP1 SWAP2 OR DUP2 SSTORE PUSH1 0x1 SWAP2 DUP3 ADD SLOAD SWAP2 ADD SSTORE JUMPDEST PUSH1 0x6 DUP1 SLOAD DUP1 PUSH2 0x3429 JUMPI PUSH2 0x3429 PUSH2 0x4126 JUMP JUMPDEST DUP1 PUSH2 0x38B8 DUP2 PUSH2 0x39EF JUMP JUMPDEST SWAP2 POP POP PUSH2 0x37A0 JUMP JUMPDEST DUP3 DUP1 SLOAD PUSH2 0x38CC SWAP1 PUSH2 0x3E61 JUMP JUMPDEST SWAP1 PUSH1 0x0 MSTORE PUSH1 0x20 PUSH1 0x0 KECCAK256 SWAP1 PUSH1 0x1F ADD PUSH1 0x20 SWAP1 DIV DUP2 ADD SWAP3 DUP3 PUSH2 0x38EE JUMPI PUSH1 0x0 DUP6 SSTORE PUSH2 0x3934 JUMP JUMPDEST DUP3 PUSH1 0x1F LT PUSH2 0x3907 JUMPI DUP1 MLOAD PUSH1 0xFF NOT AND DUP4 DUP1 ADD OR DUP6 SSTORE PUSH2 0x3934 JUMP JUMPDEST DUP3 DUP1 ADD PUSH1 0x1 ADD DUP6 SSTORE DUP3 ISZERO PUSH2 0x3934 JUMPI SWAP2 DUP3 ADD JUMPDEST DUP3 DUP2 GT ISZERO PUSH2 0x3934 JUMPI DUP3 MLOAD DUP3 SSTORE SWAP2 PUSH1 0x20 ADD SWAP2 SWAP1 PUSH1 0x1 ADD SWAP1 PUSH2 0x3919 JUMP JUMPDEST POP PUSH2 0x3940 SWAP3 SWAP2 POP PUSH2 0x3944 JUMP JUMPDEST POP SWAP1 JUMP JUMPDEST JUMPDEST DUP1 DUP3 GT ISZERO PUSH2 0x3940 JUMPI PUSH1 0x0 DUP2 SSTORE PUSH1 0x1 ADD PUSH2 0x3945 JUMP JUMPDEST DUP1 ISZERO ISZERO DUP2 EQ PUSH2 0x2B5F JUMPI PUSH1 0x0 DUP1 REVERT JUMPDEST PUSH1 0x0 PUSH1 0x20 DUP3 DUP5 SUB SLT ISZERO PUSH2 0x3979 JUMPI PUSH1 0x0 DUP1 REVERT JUMPDEST DUP2 MLOAD PUSH2 0x1064 DUP2 PUSH2 0x3959 JUMP JUMPDEST PUSH4 0x4E487B71 PUSH1 0xE0 SHL PUSH1 0x0 MSTORE PUSH1 0x32 PUSH1 0x4 MSTORE PUSH1 0x24 PUSH1 0x0 REVERT JUMPDEST PUSH1 0x0 PUSH1 0x20 DUP3 DUP5 SUB SLT ISZERO PUSH2 0x39AC JUMPI PUSH1 0x0 DUP1 REVERT JUMPDEST POP MLOAD SWAP2 SWAP1 POP JUMP JUMPDEST PUSH4 0x4E487B71 PUSH1 0xE0 SHL PUSH1 0x0 MSTORE PUSH1 0x21 PUSH1 0x4 MSTORE PUSH1 0x24 PUSH1 0x0 REVERT JUMPDEST DUP2 DUP4 DUP3 CALLDATACOPY PUSH1 0x0 SWAP2 ADD SWAP1 DUP2 MSTORE SWAP2 SWAP1 POP JUMP JUMPDEST PUSH4 0x4E487B71 PUSH1 0xE0 SHL PUSH1 0x0 MSTORE PUSH1 0x11 PUSH1 0x4 MSTORE PUSH1 0x24 PUSH1 0x0 REVERT JUMPDEST PUSH1 0x0 PUSH1 0x0 NOT DUP3 EQ ISZERO PUSH2 0x3A03 JUMPI PUSH2 0x3A03 PUSH2 0x39D9 JUMP JUMPDEST POP PUSH1 0x1 ADD SWAP1 JUMP JUMPDEST DUP1 CALLDATALOAD PUSH1 0x1 PUSH1 0x1 PUSH1 0xE0 SHL SUB NOT DUP2 AND DUP2 EQ PUSH2 0x14D6 JUMPI PUSH1 0x0 DUP1 REVERT JUMPDEST PUSH1 0x0 PUSH1 0x20 DUP3 DUP5 SUB SLT ISZERO PUSH2 0x3A34 JUMPI PUSH1 0x0 DUP1 REVERT JUMPDEST PUSH2 0x1064 DUP3 PUSH2 0x3A0A JUMP JUMPDEST PUSH1 0x1 PUSH1 0x1 PUSH1 0xA0 SHL SUB DUP2 AND DUP2 EQ PUSH2 0x2B5F JUMPI PUSH1 0x0 DUP1 REVERT JUMPDEST PUSH1 0x0 DUP1 PUSH1 0x40 DUP4 DUP6 SUB SLT ISZERO PUSH2 0x3A65 JUMPI PUSH1 0x0 DUP1 REVERT JUMPDEST DUP3 CALLDATALOAD PUSH2 0x3A70 DUP2 PUSH2 0x3A3D JUMP JUMPDEST SWAP5 PUSH1 0x20 SWAP4 SWAP1 SWAP4 ADD CALLDATALOAD SWAP4 POP POP POP JUMP JUMPDEST PUSH1 0x0 PUSH1 0x20 DUP3 DUP5 SUB SLT ISZERO PUSH2 0x3A90 JUMPI PUSH1 0x0 DUP1 REVERT JUMPDEST POP CALLDATALOAD SWAP2 SWAP1 POP JUMP JUMPDEST DUP2 MLOAD PUSH1 0x0 SIGNEXTEND DUP2 MSTORE PUSH1 0x20 DUP1 DUP4 ADD MLOAD ISZERO ISZERO SWAP1 DUP3 ADD MSTORE PUSH1 0x40 DUP1 DUP4 ADD MLOAD PUSH1 0x1 PUSH1 0x1 PUSH1 0x40 SHL SUB AND SWAP1 DUP3 ADD MSTORE PUSH1 0x60 DUP2 ADD PUSH2 0xD10 JUMP JUMPDEST PUSH1 0x0 PUSH1 0x20 DUP3 DUP5 SUB SLT ISZERO PUSH2 0x3AD8 JUMPI PUSH1 0x0 DUP1 REVERT JUMPDEST DUP2 CALLDATALOAD PUSH2 0x1064 DUP2 PUSH2 0x3A3D JUMP JUMPDEST PUSH1 0x1 PUSH1 0x1 PUSH1 0xA0 SHL SUB SWAP3 SWAP1 SWAP3 AND DUP3 MSTORE PUSH1 0x20 DUP3 ADD MSTORE PUSH1 0x40 ADD SWAP1 JUMP JUMPDEST PUSH1 0x0 JUMPDEST DUP4 DUP2 LT ISZERO PUSH2 0x3B17 JUMPI DUP2 DUP2 ADD MLOAD DUP4 DUP3 ADD MSTORE PUSH1 0x20 ADD PUSH2 0x3AFF JUMP JUMPDEST DUP4 DUP2 GT ISZERO PUSH2 0x3B26 JUMPI PUSH1 0x0 DUP5 DUP5 ADD MSTORE JUMPDEST POP POP POP POP JUMP JUMPDEST PUSH1 0x0 DUP2 MLOAD DUP1 DUP5 MSTORE PUSH2 0x3B44 DUP2 PUSH1 0x20 DUP7 ADD PUSH1 0x20 DUP7 ADD PUSH2 0x3AFC JUMP JUMPDEST PUSH1 0x1F ADD PUSH1 0x1F NOT AND SWAP3 SWAP1 SWAP3 ADD PUSH1 0x20 ADD SWAP3 SWAP2 POP POP JUMP JUMPDEST PUSH1 0x20 DUP2 MSTORE PUSH1 0x0 PUSH2 0x1064 PUSH1 0x20 DUP4 ADD DUP5 PUSH2 0x3B2C JUMP JUMPDEST PUSH4 0x4E487B71 PUSH1 0xE0 SHL PUSH1 0x0 MSTORE PUSH1 0x41 PUSH1 0x4 MSTORE PUSH1 0x24 PUSH1 0x0 REVERT JUMPDEST PUSH1 0x40 MLOAD PUSH1 0x1F DUP3 ADD PUSH1 0x1F NOT AND DUP2 ADD PUSH1 0x1 PUSH1 0x1 PUSH1 0x40 SHL SUB DUP2 GT DUP3 DUP3 LT OR ISZERO PUSH2 0x3BA9 JUMPI PUSH2 0x3BA9 PUSH2 0x3B6B JUMP JUMPDEST PUSH1 0x40 MSTORE SWAP2 SWAP1 POP JUMP JUMPDEST PUSH1 0x0 PUSH1 0x1 PUSH1 0x1 PUSH1 0x40 SHL SUB DUP3 GT ISZERO PUSH2 0x3BCA JUMPI PUSH2 0x3BCA PUSH2 0x3B6B JUMP JUMPDEST POP PUSH1 0x1F ADD PUSH1 0x1F NOT AND PUSH1 0x20 ADD SWAP1 JUMP JUMPDEST PUSH1 0x0 PUSH2 0x3BEB PUSH2 0x3BE6 DUP5 PUSH2 0x3BB1 JUMP JUMPDEST PUSH2 0x3B81 JUMP JUMPDEST SWAP1 POP DUP3 DUP2 MSTORE DUP4 DUP4 DUP4 ADD GT ISZERO PUSH2 0x3BFF JUMPI PUSH1 0x0 DUP1 REVERT JUMPDEST DUP3 DUP3 PUSH1 0x20 DUP4 ADD CALLDATACOPY PUSH1 0x0 PUSH1 0x20 DUP5 DUP4 ADD ADD MSTORE SWAP4 SWAP3 POP POP POP JUMP JUMPDEST PUSH1 0x0 PUSH1 0x20 DUP3 DUP5 SUB SLT ISZERO PUSH2 0x3C28 JUMPI PUSH1 0x0 DUP1 REVERT JUMPDEST DUP2 CALLDATALOAD PUSH1 0x1 PUSH1 0x1 PUSH1 0x40 SHL SUB DUP2 GT ISZERO PUSH2 0x3C3E JUMPI PUSH1 0x0 DUP1 REVERT JUMPDEST DUP3 ADD PUSH1 0x1F DUP2 ADD DUP5 SGT PUSH2 0x3C4F JUMPI PUSH1 0x0 DUP1 REVERT JUMPDEST PUSH2 0xDCC DUP5 DUP3 CALLDATALOAD PUSH1 0x20 DUP5 ADD PUSH2 0x3BD8 JUMP JUMPDEST PUSH1 0x20 DUP1 DUP3 MSTORE DUP3 MLOAD DUP3 DUP3 ADD DUP2 SWAP1 MSTORE PUSH1 0x0 SWAP2 SWAP1 DUP5 DUP3 ADD SWAP1 PUSH1 0x40 DUP6 ADD SWAP1 DUP5 JUMPDEST DUP2 DUP2 LT ISZERO PUSH2 0x3C96 JUMPI DUP4 MLOAD DUP4 MSTORE SWAP3 DUP5 ADD SWAP3 SWAP2 DUP5 ADD SWAP2 PUSH1 0x1 ADD PUSH2 0x3C7A JUMP JUMPDEST POP SWAP1 SWAP7 SWAP6 POP POP POP POP POP POP JUMP JUMPDEST PUSH1 0x0 DUP1 PUSH1 0x40 DUP4 DUP6 SUB SLT ISZERO PUSH2 0x3CB5 JUMPI PUSH1 0x0 DUP1 REVERT JUMPDEST DUP3 CALLDATALOAD SWAP2 POP PUSH1 0x20 DUP4 ADD CALLDATALOAD PUSH2 0x3CC7 DUP2 PUSH2 0x3A3D JUMP JUMPDEST DUP1 SWAP2 POP POP SWAP3 POP SWAP3 SWAP1 POP JUMP JUMPDEST PUSH1 0x0 DUP1 PUSH1 0x40 DUP4 DUP6 SUB SLT ISZERO PUSH2 0x3CE5 JUMPI PUSH1 0x0 DUP1 REVERT JUMPDEST POP POP DUP1 CALLDATALOAD SWAP3 PUSH1 0x20 SWAP1 SWAP2 ADD CALLDATALOAD SWAP2 POP JUMP JUMPDEST PUSH1 0x1 PUSH1 0x1 PUSH1 0x40 SHL SUB DUP2 AND DUP2 EQ PUSH2 0x2B5F JUMPI PUSH1 0x0 DUP1 REVERT JUMPDEST PUSH1 0x0 DUP1 PUSH1 0x40 DUP4 DUP6 SUB SLT ISZERO PUSH2 0x3D1C JUMPI PUSH1 0x0 DUP1 REVERT JUMPDEST DUP3 CALLDATALOAD SWAP2 POP PUSH1 0x20 DUP4 ADD CALLDATALOAD PUSH2 0x3CC7 DUP2 PUSH2 0x3CF4 JUMP JUMPDEST PUSH1 0x0 PUSH1 0x1 PUSH1 0x1 PUSH1 0x40 SHL SUB DUP3 GT ISZERO PUSH2 0x3D47 JUMPI PUSH2 0x3D47 PUSH2 0x3B6B JUMP JUMPDEST POP PUSH1 0x5 SHL PUSH1 0x20 ADD SWAP1 JUMP JUMPDEST PUSH1 0x0 PUSH1 0x20 DUP1 DUP4 DUP6 SUB SLT ISZERO PUSH2 0x3D64 JUMPI PUSH1 0x0 DUP1 REVERT JUMPDEST DUP3 CALLDATALOAD PUSH1 0x1 PUSH1 0x1 PUSH1 0x40 SHL SUB DUP2 GT ISZERO PUSH2 0x3D7A JUMPI PUSH1 0x0 DUP1 REVERT JUMPDEST DUP4 ADD PUSH1 0x1F DUP2 ADD DUP6 SGT PUSH2 0x3D8B JUMPI PUSH1 0x0 DUP1 REVERT JUMPDEST DUP1 CALLDATALOAD PUSH2 0x3D99 PUSH2 0x3BE6 DUP3 PUSH2 0x3D2E JUMP JUMPDEST DUP2 DUP2 MSTORE PUSH1 0x5 SWAP2 SWAP1 SWAP2 SHL DUP3 ADD DUP4 ADD SWAP1 DUP4 DUP2 ADD SWAP1 DUP8 DUP4 GT ISZERO PUSH2 0x3DB8 JUMPI PUSH1 0x0 DUP1 REVERT JUMPDEST SWAP3 DUP5 ADD SWAP3 JUMPDEST DUP3 DUP5 LT ISZERO PUSH2 0x3DD6 JUMPI DUP4 CALLDATALOAD DUP3 MSTORE SWAP3 DUP5 ADD SWAP3 SWAP1 DUP5 ADD SWAP1 PUSH2 0x3DBD JUMP JUMPDEST SWAP8 SWAP7 POP POP POP POP POP POP POP JUMP JUMPDEST PUSH1 0x0 DUP1 PUSH1 0x40 DUP4 DUP6 SUB SLT ISZERO PUSH2 0x3DF4 JUMPI PUSH1 0x0 DUP1 REVERT JUMPDEST DUP3 CALLDATALOAD SWAP2 POP PUSH2 0x3E04 PUSH1 0x20 DUP5 ADD PUSH2 0x3A0A JUMP JUMPDEST SWAP1 POP SWAP3 POP SWAP3 SWAP1 POP JUMP JUMPDEST PUSH1 0x0 PUSH1 0x20 DUP3 DUP5 SUB SLT ISZERO PUSH2 0x3E1F JUMPI PUSH1 0x0 DUP1 REVERT JUMPDEST DUP2 CALLDATALOAD PUSH2 0x1064 DUP2 PUSH2 0x3959 JUMP JUMPDEST PUSH1 0x20 DUP1 DUP3 MSTORE PUSH1 0x17 SWAP1 DUP3 ADD MSTORE PUSH32 0x43757272656E6379206E6F742072656769737465726564000000000000000000 PUSH1 0x40 DUP3 ADD MSTORE PUSH1 0x60 ADD SWAP1 JUMP JUMPDEST PUSH1 0x1 DUP2 DUP2 SHR SWAP1 DUP3 AND DUP1 PUSH2 0x3E75 JUMPI PUSH1 0x7F DUP3 AND SWAP2 POP JUMPDEST PUSH1 0x20 DUP3 LT DUP2 EQ ISZERO PUSH2 0x13C5 JUMPI PUSH4 0x4E487B71 PUSH1 0xE0 SHL PUSH1 0x0 MSTORE PUSH1 0x22 PUSH1 0x4 MSTORE PUSH1 0x24 PUSH1 0x0 REVERT JUMPDEST PUSH1 0x0 DUP3 MLOAD PUSH2 0x3EA8 DUP2 DUP5 PUSH1 0x20 DUP8 ADD PUSH2 0x3AFC JUMP JUMPDEST SWAP2 SWAP1 SWAP2 ADD SWAP3 SWAP2 POP POP JUMP JUMPDEST PUSH1 0x0 PUSH1 0x20 DUP1 DUP4 DUP6 SUB SLT ISZERO PUSH2 0x3EC5 JUMPI PUSH1 0x0 DUP1 REVERT JUMPDEST DUP3 MLOAD PUSH1 0x1 PUSH1 0x1 PUSH1 0x40 SHL SUB DUP2 GT ISZERO PUSH2 0x3EDB JUMPI PUSH1 0x0 DUP1 REVERT JUMPDEST DUP4 ADD PUSH1 0x1F DUP2 ADD DUP6 SGT PUSH2 0x3EEC JUMPI PUSH1 0x0 DUP1 REVERT JUMPDEST DUP1 MLOAD PUSH2 0x3EFA PUSH2 0x3BE6 DUP3 PUSH2 0x3D2E JUMP JUMPDEST DUP2 DUP2 MSTORE PUSH1 0x5 SWAP2 SWAP1 SWAP2 SHL DUP3 ADD DUP4 ADD SWAP1 DUP4 DUP2 ADD SWAP1 DUP8 DUP4 GT ISZERO PUSH2 0x3F19 JUMPI PUSH1 0x0 DUP1 REVERT JUMPDEST SWAP3 DUP5 ADD SWAP3 JUMPDEST DUP3 DUP5 LT ISZERO PUSH2 0x3DD6 JUMPI DUP4 MLOAD DUP3 MSTORE SWAP3 DUP5 ADD SWAP3 SWAP1 DUP5 ADD SWAP1 PUSH2 0x3F1E JUMP JUMPDEST PUSH1 0x0 DUP1 PUSH1 0x40 DUP4 DUP6 SUB SLT ISZERO PUSH2 0x3F4A JUMPI PUSH1 0x0 DUP1 REVERT JUMPDEST POP POP DUP1 MLOAD PUSH1 0x20 SWAP1 SWAP2 ADD MLOAD SWAP1 SWAP3 SWAP1 SWAP2 POP JUMP JUMPDEST PUSH1 0x0 PUSH1 0x60 DUP3 DUP5 SUB SLT ISZERO PUSH2 0x3F6D JUMPI PUSH1 0x0 DUP1 REVERT JUMPDEST PUSH1 0x40 MLOAD PUSH1 0x60 DUP2 ADD DUP2 DUP2 LT PUSH1 0x1 PUSH1 0x1 PUSH1 0x40 SHL SUB DUP3 GT OR ISZERO PUSH2 0x3F8F JUMPI PUSH2 0x3F8F PUSH2 0x3B6B JUMP JUMPDEST PUSH1 0x40 MSTORE DUP3 MLOAD PUSH1 0x0 DUP2 SWAP1 SIGNEXTEND DUP2 EQ PUSH2 0x3FA4 JUMPI PUSH1 0x0 DUP1 REVERT JUMPDEST DUP2 MSTORE PUSH1 0x20 DUP4 ADD MLOAD PUSH2 0x3FB4 DUP2 PUSH2 0x3959 JUMP JUMPDEST PUSH1 0x20 DUP3 ADD MSTORE PUSH1 0x40 DUP4 ADD MLOAD PUSH2 0x3FC7 DUP2 PUSH2 0x3CF4 JUMP JUMPDEST PUSH1 0x40 DUP3 ADD MSTORE SWAP4 SWAP3 POP POP POP JUMP JUMPDEST PUSH4 0x4E487B71 PUSH1 0xE0 SHL PUSH1 0x0 MSTORE PUSH1 0x1 PUSH1 0x4 MSTORE PUSH1 0x24 PUSH1 0x0 REVERT JUMPDEST PUSH1 0x1 PUSH1 0x1 PUSH1 0xA0 SHL SUB DUP6 AND DUP2 MSTORE PUSH1 0x20 DUP2 ADD DUP5 SWAP1 MSTORE PUSH1 0xC0 DUP2 ADD PUSH2 0x402F PUSH1 0x40 DUP4 ADD DUP6 DUP1 MLOAD PUSH1 0x0 SIGNEXTEND DUP3 MSTORE PUSH1 0x20 DUP1 DUP3 ADD MLOAD ISZERO ISZERO SWAP1 DUP4 ADD MSTORE PUSH1 0x40 SWAP1 DUP2 ADD MLOAD PUSH1 0x1 PUSH1 0x1 PUSH1 0x40 SHL SUB AND SWAP2 ADD MSTORE JUMP JUMPDEST DUP3 ISZERO ISZERO PUSH1 0xA0 DUP4 ADD MSTORE SWAP6 SWAP5 POP POP POP POP POP JUMP JUMPDEST PUSH1 0x0 DUP3 DUP3 LT ISZERO PUSH2 0x4052 JUMPI PUSH2 0x4052 PUSH2 0x39D9 JUMP JUMPDEST POP SUB SWAP1 JUMP JUMPDEST PUSH1 0x0 DUP2 PUSH2 0x4066 JUMPI PUSH2 0x4066 PUSH2 0x39D9 JUMP JUMPDEST POP PUSH1 0x0 NOT ADD SWAP1 JUMP JUMPDEST PUSH1 0x0 PUSH1 0x20 DUP3 DUP5 SUB SLT ISZERO PUSH2 0x4080 JUMPI PUSH1 0x0 DUP1 REVERT JUMPDEST DUP2 MLOAD PUSH2 0x1064 DUP2 PUSH2 0x3A3D JUMP JUMPDEST PUSH1 0x0 DUP1 PUSH1 0x40 DUP4 DUP6 SUB SLT ISZERO PUSH2 0x409E JUMPI PUSH1 0x0 DUP1 REVERT JUMPDEST DUP3 MLOAD SWAP2 POP PUSH1 0x20 DUP4 ADD MLOAD PUSH2 0x3CC7 DUP2 PUSH2 0x3A3D JUMP JUMPDEST PUSH1 0x0 PUSH1 0x20 DUP3 DUP5 SUB SLT ISZERO PUSH2 0x40C2 JUMPI PUSH1 0x0 DUP1 REVERT JUMPDEST DUP2 MLOAD PUSH1 0x1 PUSH1 0x1 PUSH1 0x40 SHL SUB DUP2 GT ISZERO PUSH2 0x40D8 JUMPI PUSH1 0x0 DUP1 REVERT JUMPDEST DUP3 ADD PUSH1 0x1F DUP2 ADD DUP5 SGT PUSH2 0x40E9 JUMPI PUSH1 0x0 DUP1 REVERT JUMPDEST DUP1 MLOAD PUSH2 0x40F7 PUSH2 0x3BE6 DUP3 PUSH2 0x3BB1 JUMP JUMPDEST DUP2 DUP2 MSTORE DUP6 PUSH1 0x20 DUP4 DUP6 ADD ADD GT ISZERO PUSH2 0x410C JUMPI PUSH1 0x0 DUP1 REVERT JUMPDEST PUSH2 0x411D DUP3 PUSH1 0x20 DUP4 ADD PUSH1 0x20 DUP7 ADD PUSH2 0x3AFC JUMP JUMPDEST SWAP6 SWAP5 POP POP POP POP POP JUMP JUMPDEST PUSH4 0x4E487B71 PUSH1 0xE0 SHL PUSH1 0x0 MSTORE PUSH1 0x31 PUSH1 0x4 MSTORE PUSH1 0x24 PUSH1 0x0 REVERT JUMPDEST PUSH1 0x0 DUP1 PUSH1 0x40 DUP4 DUP6 SUB SLT ISZERO PUSH2 0x414F JUMPI PUSH1 0x0 DUP1 REVERT JUMPDEST DUP3 MLOAD PUSH2 0x415A DUP2 PUSH2 0x3A3D JUMP JUMPDEST PUSH1 0x20 SWAP4 SWAP1 SWAP4 ADD MLOAD SWAP3 SWAP5 SWAP3 SWAP4 POP POP POP JUMP INVALID PUSH9 0x747470733A2F2F6769 PUSH21 0x6875622E636F6D2F5061747269636B416C70686143 0x2F PUSH5 0x6566692D73 PUSH21 0x616B652D7969656C642D62726F776E69652D667265 PUSH6 0x636F64652F62 PUSH13 0x6F622F6D61696E2F66726F6E74 0x5F PUSH6 0x6E642F737263 0x2F PUSH5 0x6170702E70 PUSH15 0x673F7261773D74727565AD3228B676 0xF7 0xD3 0xCD TIMESTAMP DUP5 0xA5 DIFFICULTY EXTCODEHASH OR CALL SWAP7 0x2B CALLDATASIZE 0xE4 SWAP2 0xB3 EXP BLOCKHASH 0xB2 BLOCKHASH PC 0x49 0xE5 SWAP8 0xBA 0x5F 0xB5 PUSH9 0x747470733A2F2F7261 PUSH24 0x2E67697468756275736572636F6E74656E742E636F6D2F50 PUSH2 0x7472 PUSH10 0x636B416C706861432F64 PUSH6 0x66692D737461 PUSH12 0x652D7969656C642D62726F77 PUSH15 0x69652D66726565636F64652F6D6169 PUSH15 0x2F66726F6E745F656E642F7372632F PUSH6 0x74682E706E67 EXTCODEHASH PUSH19 0x61773D74727565A2646970667358221220A40E SWAP6 0xDC 0xDB JUMP 0xB3 MSIZE XOR DUP1 DUP10 0x28 LT CALLDATALOAD ISZERO STATICCALL 0xC0 0xA5 PUSH7 0x2E7C46D4D7C4EC RETURNDATASIZE 0xC8 SGT 0xDE PUSH23 0xD64736F6C634300080B00330000000000000000000000 ","sha1":"4da9bc48e27b7e4c1952486c4c8b876e3aa41f68","source":"// SPDX-License-Identifier: MIT\n// Beef MarketPlace Contracts v0.0.0 hello@mcdu.com\n\npragma solidity ^0.8.0;\n\nimport \"@openzeppelin/contracts/utils/Context.sol\";\nimport \"@openzeppelin/contracts/utils/introspection/IERC165.sol\";\nimport \"../agnostic/Ownable.sol\";\nimport \"../agnostic/Mode.sol\";\nimport \"../agnostic/Array.sol\";\nimport \"../agnostic/Mode.sol\";\nimport \"../agnostic/Keccak/KeccakInverter.sol\";\nimport \"../agnostic/Certified/CertifierAllower.sol\";\nimport \"../agnostic/Token/TokenLib.sol\";\nimport \"../agnostic/Token/TokenEquivalent.sol\";\nimport \"../agnostic/Token/Currencer.sol\";\n\n/*enum RepositoryType {\n    Bank,\n    Market,\n    MarketOrder,\n    MarketSearch,\n    Quotator,\n    Collateral,\n    Delivery,\n    Random,\n    Max\n}*/\n\nenum FuncState {\n    Unknown,\n    Absent,\n    Present\n}\ninterface IRepositoryContract is IERC165\n{\n    function supportsInterface(bytes4 interfaceId) external view returns (bool);\n    function id() external view returns (bytes32);\n\n}\n\nabstract contract RepositoryContract is IRepositoryContract, ModeStop, Context, Ownable {\n\n    Repository public immutable rep;\n\n    function supportsInterface(bytes4 interfaceId) public view virtual returns (bool)\n    {\n        return interfaceId == type(IERC165).interfaceId || interfaceId == type(IRepositoryContract).interfaceId;\n    }\n\n    constructor(Repository rep_) {\n        rep = rep_;\n    }\n\n    function repository() internal view virtual returns (Repository) {\n        return rep;\n    }\n\n    function checkRepository() private view {\n        require(\n            /*(ownerOf() == _msgSender()) ||*/ (_msgSender() == address(rep)),\n            \"Allowance: caller must be Repository\"\n        );\n    }\n\n    modifier all() {\n        _;\n    }\n    /*modifier onlyMarketOrder() virtual {\n        checkMarketOrder();\n        _;\n    }\n\n    function checkMarketOrder() internal view {\n        require((address(rep.mo()) == _msgSender()), \"Allowance: caller must be Market\");\n    }\n    modifier onlyMarket() virtual {\n        checkMarket();\n        _;\n    }\n\n    function checkMarket() internal view {\n        require((address(rep.m()) == _msgSender()), \"Allowance: caller must be Market\");\n    }*/\n\n    modifier onlyThis() virtual {\n        checkThis();\n        _;\n    }\n\n    function checkThis() internal view {\n        require((address(this) == _msgSender()), \"Allowance: caller must be this\");\n    }\n\n    modifier onlyOwner() virtual override {\n        checkOwner();\n        _;\n    }\n\n    function checkOwner() internal view {\n        require((ownerOf() == _msgSender()), \"Allowance: caller must be Owner\");\n    }\n\n    modifier onlyRepository() virtual {\n        checkRepository();\n        _;\n    }\n\n    modifier onlyContracts() {\n        checkContracts();\n        _;\n    }\n\n    function checkContracts() internal view {\n        require(\n            (ownerOf() == _msgSender()) || rep.isContract(_msgSender()),\n            \"Allowance: caller must be Repository Contract\"\n        );\n    }\n\n    modifier onlyOperators() {\n        checkOperators();\n        _;\n    }\n\n    function checkOperators() public view {\n        require(\n            (ownerOf() == _msgSender()) || rep.isOperator(_msgSender()),\n            \"Allowance: caller must be Repository Operator\"\n        );\n    }\n\n    modifier onlyContractsOrOperators() {\n        checkContractsOrOperators();\n        _;\n    }\n\n    function checkContractsOrOperators() internal view {\n        require(\n            (ownerOf() == _msgSender()) ||\n                rep.isContract(_msgSender()) ||\n                rep.isOperator(_msgSender()),\n            \"Allowance: caller must be Repository Contract or Operator\"\n        );\n    }\n\n    //bool private _liquidated;\n\n    function setSTOP() public onlyContractsOrOperators {\n        _setSTOP();\n    }\n\n    function unsetSTOP() public onlyContractsOrOperators {\n        _unsetSTOP();\n    }\n\n    function setSTOPFOREVER() public onlyOwner {\n        _setSTOPFOREVER();\n    }\n\n    /*function bytesToAddress(bytes memory bys)\n        internal\n        pure\n        returns (address addr)\n    {\n        assembly {\n            addr := mload(add(bys, 32))\n        }\n    }*/\n\n    function _return(bool result_) internal view virtual {\n        assembly {\n            returndatacopy(0, 0, returndatasize())\n            switch result_\n            case 0 {\n                revert(0, returndatasize())\n            }\n            default {\n                return(0, returndatasize())\n            }\n        }\n    }\n\n    fallback() external virtual onlyContractsOrOperators {\n        bytes memory bys = msg.data[4:36];\n        address _implementation;\n        assembly {\n            _implementation := mload(add(bys, 32))\n        }\n        //address _implementation = bytesToAddress(msg.data[4:36]);\n\n        bool _result;\n        assembly {\n            let newargumentsize := sub(calldatasize(), 36)\n            let newcalldatasize := add(newargumentsize, 4)\n\n            calldatacopy(0, 0, 4)\n            calldatacopy(4, 36, newargumentsize)\n\n            // Call the implementation.\n            // out and outsize are 0 because we don't know the size yet.\n            _result := delegatecall(\n                gas(),\n                _implementation,\n                0,\n                newcalldatasize,\n                0,\n                0\n            )\n        }\n        _return(_result);\n    }\n    //function destroy() public onlyOwner { liquidate(); _destroy(); }\n    //function _destroy() internal virtual {selfdestruct(payable(ownerOf()));}\n    //function liquidated() public view returns (bool) { return _liquidated; }\n    //function liquidate() public onlyOwner { if (_liquidated) return; _setSTOPFOREVER();_liquidated =true; _liquidate(); }\n    //function _liquidate() internal virtual {}\n}\n\ncontract Repository is IERC165,ModeTest,Ownable, Currencer, ContractForbidderCertifier, KeccakInverter { //TokenEquivalentCertifier, \n    using Array for address[];\n    using Array for bytes4[];\n    uint256 immutable public _originalblock;\n\n    mapping(bytes32 => address) _repository;\n    address[] private _contracts;//= new address[](uint256(RepositoryType.Max));\n    address[] private _operators;\n    mapping(bytes32 => mapping(bytes4 => FuncState)) private _contractfunc;\n    bytes4[] _funcs;\n\n    constructor(bool MODETEST_)\n        ModeTest(MODETEST_)\n    {\n         _originalblock=block.number;\n    }\n\n    function supportsInterface(bytes4 interfaceId)\n        public\n        view virtual override(IERC165,ContractForbidderCertifier)//,TokenEquivalentCertifier)\n        returns (bool)\n    {\n        return interfaceId == type(IERC165).interfaceId || Certifiers.supportsInterface(interfaceId) || ContractCertifier.supportsInterface(interfaceId);// || TokenEquivalentCertifier.supportsInterface(interfaceId);\n    }\n\n    function isTrustedCertifier(address certifier_) public view virtual override(ContractForbidderCertifier) returns (bool) //,ContractCertifier\n    {\n        return Certifiers.isTrustedCertifier(certifier_);\n    }\n\n\n    modifier all() {\n        _;\n    }\n\n    modifier onlyOwner() virtual override {\n        checkOwner();\n        _;\n    }\n\n    function checkOwner() internal view {\n        require((ownerOf() == _msgSender()), \"Allowance: caller must be Owner\");\n    }\n\n    modifier onlyContracts() {\n        checkContracts();\n        _;\n    }\n\n    function checkContracts() internal view {\n        require(\n            (ownerOf() == _msgSender()) || isContract(_msgSender()),\n            \"Allowance: caller must be Repository Contract\"\n        );\n    }\n\n    modifier onlyOperators() {\n        checkOperators();\n        _;\n    }\n\n    function checkOperators() public view {\n        require(\n            (ownerOf() == _msgSender()) || isOperator(_msgSender()),\n            \"Allowance: caller must be Repository Operator\"\n        );\n    }\n\n    modifier onlyContractsOrOperators() {\n        checkContractsOrOperators();\n        _;\n    }\n\n    function checkContractsOrOperators() internal view {\n        require(\n            (ownerOf() == _msgSender()) ||\n                isContract(_msgSender()) ||\n                isOperator(_msgSender()),\n            \"Allowance: caller must be Repository Contract or Operator\"\n        );\n    }\n\n    function exists(bytes32 k_) public view virtual override(Currencer,KeccakInverter) returns (bool)\n    {\n        return KeccakInverter.exists(k_);\n    }\n    function resolveAddressUInt256(bytes32 k_)\n        public\n        view virtual override (Currencer,KeccakInverter)\n        returns (address addr_, uint256 v_)\n    {\n        return KeccakInverter.resolveAddressUInt256(k_);\n    }    \n\n\n    function AddressUInt256(address addr_, uint256 v_)\n        public\n        virtual\n        override (Currencer,KeccakInverter)\n        returns (bytes32 k_)\n    {\n        return KeccakInverter.AddressUInt256(addr_, v_);\n    }\n\n\n    function isOperator(address caller_) public view returns (bool) {\n        if (caller_ == address(this)) return true;\n        return _operators.s_exist(caller_);\n    }\n\n    function isContract(address caller_) public view returns (bool) {\n        if (caller_ == address(this)) return true;\n        return _contracts.s_exist(caller_);\n    }\n\n    function removeOperator(address bot_) public onlyOperators {\n        _operators.remove(bot_);\n    }\n\n    function addOperator(address bot_) public onlyOperators {\n        _operators.insert(bot_);\n    }\n\n    function addTrustedCertifier(address certifier_) public onlyOperators  returns (bool){\n        return _addTrustedCertifier(certifier_);\n    }\n\n    function removeTrustedCertifier(address certifier_) public onlyOperators  returns (bool){\n        return _removeTrustedCertifier(certifier_);\n    }\n    function addTokenCertified(address token,uint256 tokenId) public onlyOperators returns (bool){\n        return _addContractCertified(token,tokenId);\n\n    }\n    function removeTokenCertified(address token,uint256 tokenId) public onlyOperators returns (bool){\n        return _removeContractCertified(token,tokenId);\n\n    }\n    function tokenForbiddenUnknownSet(bool forbiddenunknown_) public onlyOperators returns (bool) {\n        return _contractForbiddenUnknownSet(forbiddenunknown_);\n    }\n    function tokenForbiddenAdd(address token,uint256 tokenId) public onlyOperators returns (bool) {\n        return _contractForbiddenAdd(token,tokenId);\n    }\n    function tokenForbiddenRemove(address token,uint256 tokenId) public onlyOperators returns (bool) {\n        return _contractForbiddenRemove(token,tokenId);\n    }\n    function setContract(IRepositoryContract contract_) public onlyOperators {\n        require(contract_.supportsInterface(type(IRepositoryContract).interfaceId), \"contract must be IRepositoryContract\");\n        for (uint256 i; i < _funcs.length; i++)\n            delete _contractfunc[contract_.id()][_funcs[i]];\n        \n        _contracts.insert(address(contract_));\n        _repository[contract_.id()] = address(contract_);\n    }\n\n    function get(bytes32 hash_) public view returns (address) {\n        return _repository[hash_];\n    }\n\n    fallback() external virtual onlyContracts {\n        _funcs.insert(msg.sig);\n        for (uint256 i; i < _contracts.length; i++) {\n            if (_contracts[i] == _msgSender()) continue;\n            bytes32 contracthash = IRepositoryContract(_contracts[i]).id();\n            if (_contractfunc[contracthash][msg.sig] == FuncState.Absent) continue;\n            (bool success, ) = _contracts[i].call(msg.data);\n            if (_contractfunc[contracthash][msg.sig] == FuncState.Unknown)\n                _contractfunc[contracthash][msg.sig] = success ? FuncState.Present : FuncState.Absent;\n        }\n    }\n\n    /*function q() public view returns (address) {\n        return \n        [uint256(RepositoryType.Quotator)];\n    }\n\n    function setQuotator(address _contract) public onlyOperators {\n        set(RepositoryType.Quotator, _contract);\n    }\n\n    function r() public view returns (address) {\n        return \n        [uint256(RepositoryType.Random)];\n    }\n\n    function setRandom(address _contract) public onlyOperators {\n        set(RepositoryType.Random, _contract);\n    }\n\n    function d() public view returns (address) {\n        return \n        [uint256(RepositoryType.Delivery)];\n    }\n\n    function setDelivery(address _contract) public onlyOperators {\n        set(RepositoryType.Delivery, _contract);\n    }\n\n    function col() public view returns (address) {\n        return \n        [uint256(RepositoryType.Collateral)];\n    }\n\n    function setCollateral(address _contract) public onlyOperators {\n        set(RepositoryType.Collateral, _contract);\n    }\n\n    function b() public view returns (address) {\n        return \n        [uint256(RepositoryType.Bank)];\n    }\n\n    function setBank(address _contract) public onlyOperators {\n        set(RepositoryType.Bank, _contract);\n    }\n\n    function mo() public view returns (address) {\n        return \n        [uint256(RepositoryType.MarketOrder)];\n    }\n\n    function setMarketOrder(address _contract) public onlyOperators {\n        set(RepositoryType.MarketOrder, _contract);\n    }\n\n    function ms() public view returns (address) {\n        return \n        [uint256(RepositoryType.MarketSearch)];\n    }\n\n    function setMarketSearch(address _contract) public onlyOperators {\n        set(RepositoryType.MarketSearch, _contract);\n    }\n\n    function m() public view returns (address) {\n        return \n        [uint256(RepositoryType.Market)];\n    }\n\n    function setMarket(address _contract) public onlyOperators {\n        set(RepositoryType.Market, _contract);\n    }*/\n}\n","sourcePath":"contracts/Repository/Repository.sol","deployment":{"address":"0x338CEE1BD2Ba8FF9D8bee09FF37a8EE4e2160f76","chainid":"9997","blockHeight":12720}}