{"bytecode":"60a06040523480156200001157600080fd5b50604051620059c9380380620059c98339810160408190526200003491620000b1565b8080620000413362000056565b6001600160a01b031660805250620000e39050565b600080546001600160a01b038381166201000081810262010000600160b01b0319851617855560405193049190911692909183917f8be0079c531659141344cd1fd0a4f28419497f9722a3daafe3b4186f6b6457e091a35050565b600060208284031215620000c457600080fd5b81516001600160a01b0381168114620000dc57600080fd5b9392505050565b6080516157a462000225600039600081816104a70152818161056c0152818161060a015281816107bb01528181610a4a01528181610b6a01528181610c0401528181610e14015281816111ae01528181611307015281816113d4015281816114650152818161167a0152818161178d0152818161195001528181611ac101528181611cad015281816122210152818161239e01528181612433015281816124e50152818161257b0152818161260001528181612691015281816128f501528181612b0701528181612cf9015281816130550152818161317b01528181613284015281816133840152818161348d015281816135870152818161369101528181613853015281816139a001528181613d4501528181613dda01528181613f180152818161414001528181614471015281816147010152614a9f01526157a46000f3fe608060405234801561001057600080fd5b50600436106101e55760003560e01c8063979620761161010f578063c34fa842116100a2578063e4b1614411610071578063e4b16144146104e4578063ede8cdfe146104f7578063f2fde38b1461050a578063feab44541461051d576101e5565b8063c34fa8421461048f578063ccc07959146104a2578063d6935858146104c9578063e2d7e08e146104d1576101e5565b8063af640d0f116100de578063af640d0f14610430578063b03fd40d14610456578063b23a43fc14610469578063b791f8a01461047c576101e5565b806397962076146103e75780639bc896f9146103f7578063a5ef794a1461040a578063a6610f021461041d576101e5565b80635c42b710116101875780637a70482c116101565780637a70482c1461038e5780637af6649a146103a1578063854ba99d146103b45780638da5cb5b146103bc576101e5565b80635c42b710146103405780636296514114610353578063715018a61461037e57806372ea61bf14610386576101e5565b80631ef4590d116101c35780631ef4590d146102bd57806321603f43146102d05780632203616d146102f05780632f54bf6e14610318576101e5565b806301ffc9a71461026a57806305d6bd9c146102925780630af077bf1461029c575b6101ed610547565b60006101fd602460043684614d60565b8080601f016020809104026020016040519081016040528093929190818152602001838380828437600092018290525060208501519495509250503660231981019150601f19016004838037816024600437600080826000875af49250505061026581610711565b505050005b61027d610278366004614d8a565b61072b565b60405190151581526020015b60405180910390f35b61029a610762565b005b6102af6102aa366004614dc9565b610779565b604051908152602001610289565b61027d6102cb366004614e0d565b6108f2565b6102e36102de366004614e2f565b610983565b6040516102899190614e80565b6103036102fe366004614e2f565b610996565b60405163ffffffff9091168152602001610289565b61027d610326366004614f35565b6000546201000090046001600160a01b0390811691161490565b6102af61034e366004614f68565b6109a7565b610366610361366004614e2f565b6109c3565b6040516001600160401b039091168152602001610289565b61029a6109f5565b61029a610a07565b6102af61039c366004614dc9565b610a21565b6102af6103af366004614fb9565b61113f565b61027d611158565b6000546201000090046001600160a01b03165b6040516001600160a01b039091168152602001610289565b600054610100900460ff1661027d565b61029a610405366004614e2f565b611176565b6102af610418366004614fe1565b6112c6565b6102af61042b366004615013565b6112de565b7fc79a5c5e1c7f6fab1e75ab0e20e9522aa9eb363a0c70072c6dcb8a20f4a46ae46102af565b6102af610464366004615078565b6121c5565b6102af610477366004615013565b6121df565b6102af61048a3660046150a1565b61236f565b6102af61049d36600461510a565b6124b6565b6103cf7f000000000000000000000000000000000000000000000000000000000000000081565b61029a6125b8565b6102af6104df366004615195565b6125d4565b6102af6104f236600461520d565b61263c565b61029a610505366004614e2f565b612653565b61029a610518366004614f35565b612758565b61053061052b366004614e2f565b6127d1565b60405165ffffffffffff9091168152602001610289565b6000546001600160a01b0362010000909104163314806105fa57506001600160a01b037f0000000000000000000000000000000000000000000000000000000000000000166316279055336040516001600160e01b031960e084901b1681526001600160a01b039091166004820152602401602060405180830381865afa1580156105d6573d6000803e3d6000fd5b505050506040513d601f19601f820116820180604052508101906105fa9190615233565b8061069857506001600160a01b037f000000000000000000000000000000000000000000000000000000000000000016636d70f7ae336040516001600160e01b031960e084901b1681526001600160a01b039091166004820152602401602060405180830381865afa158015610674573d6000803e3d6000fd5b505050506040513d601f19601f820116820180604052508101906106989190615233565b61070f5760405162461bcd60e51b815260206004820152603960248201527f416c6c6f77616e63653a2063616c6c6572206d757374206265205265706f736960448201527f746f727920436f6e7472616374206f72204f70657261746f720000000000000060648201526084015b60405180910390fd5b565b3d6000803e808015610722573d6000f35b3d6000fd5b5050565b60006001600160e01b031982166301ffc9a760e01b148061075c57506001600160e01b031982166315d3789560e31b145b92915050565b61076a610547565b61070f6000805460ff19169055565b60405163023aa9ab60e61b81527f2e7a327ef83c2af7579c6634f2f5604519800c5f07626f27bd602fd11ed8e6ec600482015260009081906001600160a01b037f00000000000000000000000000000000000000000000000000000000000000001690638eaa6ac090602401602060405180830381865afa158015610802573d6000803e3d6000fd5b505050506040513d601f19601f820116820180604052508101906108269190615255565b604080513060248201526001600160a01b038a81166044830152606482018a90526084820189905260a4820188905260c48083018890528351808403909101815260e490920183526020820180516001600160e01b03166301de754d60e61b179052915192909116916108999190615272565b6000604051808303816000865af19150503d80600081146108d6576040519150601f19603f3d011682016040523d82523d6000602084013e6108db565b606091505b505090506108e881610711565b5095945050505050565b6000828152600160205260408082209051632be5db2360e11b815260048101919091526024810183905273__Array_________________________________906357cbb64690604401602060405180830381865af4158015610958573d6000803e3d6000fd5b505050506040513d601f19601f8201168201806040525081019061097c9190615233565b9392505050565b61098b614cd1565b61075c8260006127e2565b600061075c64e8d4a51000836152c3565b60006109b8338888888888886121df565b979650505050505050565b6000806109d56402540be400846152c3565b9050826109e7826402540be4006152e5565b111561075c5761075c615304565b6109fd612f34565b61070f6000612f95565b610a0f610547565b61070f6000805460ff19166001179055565b6000610a2b611158565b15610a485760405162461bcd60e51b81526004016107069061531a565b7f00000000000000000000000000000000000000000000000000000000000000006001600160a01b0316634635229b6040518163ffffffff1660e01b8152600401602060405180830381865afa158015610aa6573d6000803e3d6000fd5b505050506040513d601f19601f82011682018060405250810190610aca9190615233565b80610add57506001600160a01b03861633145b610b3f5760405162461bcd60e51b815260206004820152602d60248201527f4d757374206265206163636f756e743d3d5f6d736753656e6465722829206f7260448201526c204d6f64652054657374696e6760981b6064820152608401610706565b6000858152600560205260408082208054915163657c7e0960e01b81526004810192909252919081907f00000000000000000000000000000000000000000000000000000000000000006001600160a01b03169063657c7e09906024016040805180830381865afa158015610bb8573d6000803e3d6000fd5b505050506040513d601f19601f82011682018060405250810190610bdc9190615344565b60405163023aa9ab60e61b815260008051602061574f833981519152600482015291935091507f00000000000000000000000000000000000000000000000000000000000000006001600160a01b031690638eaa6ac090602401602060405180830381865afa158015610c53573d6000803e3d6000fd5b505050506040513d601f19601f82011682018060405250810190610c779190615255565b604051634e68f20f60e11b8152600481018390526001600160a01b038b811660248301529190911690639cd1e41e90604401602060405180830381865afa158015610cc6573d6000803e3d6000fd5b505050506040513d601f19601f82011682018060405250810190610cea9190615368565b670de0b6b3a7640000610cfd888a6152e5565b610d0791906152c3565b1115610d555760405162461bcd60e51b815260206004820152601a60248201527f42616e6b3a204e6f7420656e6f75676820617661696c61626c650000000000006044820152606401610706565b6001830154604051635b7d0f6960e11b8152600160a81b90910460ff16600482015260009073__Order_________________________________9063b6fa1ed290602401602060405180830381865af4158015610db6573d6000803e3d6000fd5b505050506040513d601f19601f82011682018060405250810190610dda9190615233565b15610f055760405163023aa9ab60e61b81527f3cb99135f7a7c088d9085b446345038a22a85f4e8fe072b0e1b66d97243e745860048201527f00000000000000000000000000000000000000000000000000000000000000006001600160a01b031690638eaa6ac090602401602060405180830381865afa158015610e63573d6000803e3d6000fd5b505050506040513d601f19601f82011682018060405250810190610e879190615255565b6040516332f3077960e11b815260048101859052602481018490526001600160a01b0391909116906365e60ef2906044016060604051808303816000875af1158015610ed7573d6000803e3d6000fd5b505050506040513d601f19601f82011682018060405250810190610efb9190615381565b509150610f269050565b6003840154610f2390600160c01b90046001600160401b03166121c5565b90505b670de0b6b3a7640000610f3987826153af565b610f4390896152e5565b610f4d91906152c3565b8111158015610f825750670de0b6b3a7640000610f6a87826153c6565b610f7490896152e5565b610f7e91906152c3565b8110155b610fce5760405162461bcd60e51b815260206004820152601c60248201527f51756f746520536c6970706564206f76657220746f6c6572616e6365000000006044820152606401610706565b600081610fdb898b6152e5565b610fe591906152c3565b600386015490915060009061101090610464906001600160401b03600160401b8204811691166153de565b90508181101561101e578091505b61102b868d60008d612ff0565b6110348a6109c3565b600387018054600890611058908490600160401b90046001600160401b0316615406565b82546101009290920a6001600160401b038181021990931691831602179091556003880154600160801b81048216600160401b909104909116141590506110a4576110a486600361378a565b6001860154604080516001600160a01b039283168152918e166020830152810184905260608101839052849086907f49da6c773c11f8e65fd2ffb9512fa3f24dc8759fbcedb687f0b59694adc1d3439060800160405180910390a360036001870154600160a01b900460ff16600581111561112157611121614e48565b1161112f5761112f86613c7c565b50979a9950505050505050505050565b600061075c65ffffffffffff831664174876e8006152e5565b6000805460ff16806111715750600054610100900460ff165b905090565b60405163023aa9ab60e61b81527f2e7a327ef83c2af7579c6634f2f5604519800c5f07626f27bd602fd11ed8e6ec60048201526000907f00000000000000000000000000000000000000000000000000000000000000006001600160a01b031690638eaa6ac090602401602060405180830381865afa1580156111fd573d6000803e3d6000fd5b505050506040513d601f19601f820116820180604052508101906112219190615255565b60408051306024820152604480820186905282518083039091018152606490910182526020810180516001600160e01b03166376f466ff60e11b17905290516001600160a01b0392909216916112779190615272565b6000604051808303816000865af19150503d80600081146112b4576040519150601f19603f3d011682016040523d82523d6000602084013e6112b9565b606091505b5050905061072781610711565b60006112d53386868686610779565b95945050505050565b60006112e8611158565b156113055760405162461bcd60e51b81526004016107069061531a565b7f00000000000000000000000000000000000000000000000000000000000000006001600160a01b0316634635229b6040518163ffffffff1660e01b8152600401602060405180830381865afa158015611363573d6000803e3d6000fd5b505050506040513d601f19601f820116820180604052508101906113879190615233565b8061139a57506001600160a01b03881633145b6113b65760405162461bcd60e51b815260040161070690615431565b60405163c5537eb760e01b81526004810188905261080060248201527f00000000000000000000000000000000000000000000000000000000000000006001600160a01b03169063c5537eb790604401602060405180830381865afa158015611423573d6000803e3d6000fd5b505050506040513d601f19601f820116820180604052508101906114479190615233565b1561166457604051630c25e48360e11b8152600481018890526000907f00000000000000000000000000000000000000000000000000000000000000006001600160a01b03169063184bc90690602401602060405180830381865afa1580156114b4573d6000803e3d6000fd5b505050506040513d601f19601f820116820180604052508101906114d89190615255565b9050806001600160a01b031663f5ac9db66040518163ffffffff1660e01b8152600401602060405180830381865afa158015611518573d6000803e3d6000fd5b505050506040513d601f19601f8201168201806040525081019061153c9190615233565b61157d5760405162461bcd60e51b815260206004820152601260248201527146726f6d206e6f7420747261646561626c6560701b6044820152606401610706565b806001600160a01b0316630e4994276040518163ffffffff1660e01b8152600401602060405180830381865afa1580156115bb573d6000803e3d6000fd5b505050506040513d601f19601f820116820180604052508101906115df9190615233565b801561160b57507fad3228b676f7d3cd4284a5443f17f1962b36e491b30a40b2405849e597ba5fb58714155b6116625760405162461bcd60e51b815260206004820152602260248201527f46726f6d206973206f6e6c7920747261646561626c6520746f2043757272656e604482015261637960f01b6064820152608401610706565b505b60405163d47a7edd60e01b8152600481018890527f00000000000000000000000000000000000000000000000000000000000000006001600160a01b03169063d47a7edd90602401602060405180830381865afa1580156116c9573d6000803e3d6000fd5b505050506040513d601f19601f820116820180604052508101906116ed9190615233565b1580611700575083670de0b6b3a7640000145b8061170a57508385145b61176a5760405162461bcd60e51b815260206004820152602b60248201527f2746726f6d27206973204e46542071747920616e64206772616e756c6172697460448201526a79206d757374206265203160a81b6064820152608401610706565b60405163023aa9ab60e61b815260008051602061574f83398151915260048201527f00000000000000000000000000000000000000000000000000000000000000006001600160a01b031690638eaa6ac090602401602060405180830381865afa1580156117dc573d6000803e3d6000fd5b505050506040513d601f19601f820116820180604052508101906118009190615255565b604051634e68f20f60e11b8152600481018990526001600160a01b038a811660248301529190911690639cd1e41e90604401602060405180830381865afa15801561184f573d6000803e3d6000fd5b505050506040513d601f19601f820116820180604052508101906118739190615368565b8411156118c25760405162461bcd60e51b815260206004820152601a60248201527f42616e6b3a204e6f7420656e6f75676820617661696c61626c650000000000006044820152606401610706565b6040805161018081018252600080825260208201819052918101829052606081018290526080810182905260a0810182905260c0810182905260e081018290526101008101829052610120810182905261014081018290526101608101919091526001600160a01b0389811660208301526040516361e99ffb60e01b8152600481018a9052602481018990527f0000000000000000000000000000000000000000000000000000000000000000909116906361e99ffb906044016020604051808303816000875af115801561199b573d6000803e3d6000fd5b505050506040513d601f19601f820116820180604052508101906119bf9190615368565b81526119ca866109c3565b6001600160401b03166101208201526119e2856109c3565b6001600160401b031660a08201526119f9846109c3565b6001600160401b03166101008201526060810151604051635b7d0f6960e11b815260ff909116600482015273__Order_________________________________9063b6fa1ed290602401602060405180830381865af4158015611a60573d6000803e3d6000fd5b505050506040513d601f19601f82011682018060405250810190611a849190615233565b15611c095760405163023aa9ab60e61b81527f3cb99135f7a7c088d9085b446345038a22a85f4e8fe072b0e1b66d97243e745860048201526000907f00000000000000000000000000000000000000000000000000000000000000006001600160a01b031690638eaa6ac090602401602060405180830381865afa158015611b10573d6000803e3d6000fd5b505050506040513d601f19601f82011682018060405250810190611b349190615255565b6040516332f3077960e11b8152600481018b9052602481018a90526001600160a01b0391909116906365e60ef2906044016060604051808303816000875af1158015611b84573d6000803e3d6000fd5b505050506040513d601f19601f82011682018060405250810190611ba89190615381565b509150611bb69050816109c3565b6001600160401b03166101608301819052611c075760405162461bcd60e51b8152602060048201526011602482015270145d5bdd194e88139bdd081c5d5bdd1959607a1b6044820152606401610706565b505b606081015160405163f0340a3760e01b815260ff909116600482015273__Order_________________________________9063f0340a3790602401602060405180830381865af4158015611c61573d6000803e3d6000fd5b505050506040513d601f19601f82011682018060405250810190611c859190615233565b15611d885760405163023aa9ab60e61b815260008051602061574f83398151915260048201527f00000000000000000000000000000000000000000000000000000000000000006001600160a01b031690638eaa6ac090602401602060405180830381865afa158015611cfc573d6000803e3d6000fd5b505050506040513d601f19601f82011682018060405250810190611d209190615255565b6001600160a01b03166356a1fd3a88836020015130896040518563ffffffff1660e01b8152600401611d55949392919061547c565b600060405180830381600087803b158015611d6f57600080fd5b505af1158015611d83573d6000803e3d6000fd5b505050505b6003805460010190555b600354158015611db5575060035460009081526005602052604090206002015415155b15611dc857600380546001019055611d92565b6003546080820181905260a08201516001600160401b0390811660e08401526004604080850191825260ff871660608601526101008501519092166101408501526000928352600560208181529290932084518155918401516001830180546001600160a01b039092166001600160a01b031983168117825592518695909391926001600160a81b03191690911790600160a01b908490811115611e6e57611e6e614e48565b0217905550606082015160018201805460ff60a81b1916600160a81b60ff90931692909202919091179055608080830151600283015560a083015160038301805460c086015160e08701516101008801516001600160401b039586166fffffffffffffffffffffffffffffffff1994851617600160401b9387168402176fffffffffffffffffffffffffffffffff16600160801b92871683026001600160c01b031617600160c01b9187169190910217909355610120870151600496870180546101408a0151610160909a015167ffffffffffffffff60801b199388169190951617988616909202979097179690961692160217909255908201516040516304132f1d60e31b815280830192909252602482015273__Array_________________________________9063209978e890604401602060405180830381865af4158015611fbe573d6000803e3d6000fd5b505050506040513d601f19601f82011682018060405250810190611fe29190615233565b50805160009081526006602052604090819020608083015191516304132f1d60e31b815273__Array_________________________________9263209978e89261203a92909190600401918252602082015260400190565b602060405180830381865af4158015612057573d6000803e3d6000fd5b505050506040513d601f19601f8201168201806040525081019061207b9190615233565b5060008881526007602052604090819020608083015191516304132f1d60e31b815273__Array_________________________________9263209978e8926120d192909190600401918252602082015260400190565b602060405180830381865af41580156120ee573d6000803e3d6000fd5b505050506040513d601f19601f820116820180604052508101906121129190615233565b5060008781526008602052604090819020608083015191516304132f1d60e31b815273__Array_________________________________9263209978e89261216892909190600401918252602082015260400190565b602060405180830381865af4158015612185573d6000803e3d6000fd5b505050506040513d601f19601f820116820180604052508101906121a99190615233565b5080516121b590613d27565b5050600354979650505050505050565b600061075c6001600160401b0383166402540be4006152e5565b60405163023aa9ab60e61b81527f2e7a327ef83c2af7579c6634f2f5604519800c5f07626f27bd602fd11ed8e6ec600482015260009081906001600160a01b037f00000000000000000000000000000000000000000000000000000000000000001690638eaa6ac090602401602060405180830381865afa158015612268573d6000803e3d6000fd5b505050506040513d601f19601f8201168201806040525081019061228c9190615255565b604080513060248201526001600160a01b038c81166044830152606482018c9052608482018b905260a482018a905260c4820189905260e4820188905260ff8716610104808401919091528351808403909101815261012490920183526020820180516001600160e01b0316635330878160e11b179052915192909116916123149190615272565b6000604051808303816000865af19150503d8060008114612351576040519150601f19603f3d011682016040523d82523d6000602084013e612356565b606091505b5050905061236381610711565b50979650505050505050565b60405163509ff69b60e01b81526001600160a01b038781166004830152600060248301819052916124aa918a917f00000000000000000000000000000000000000000000000000000000000000009091169063509ff69b906044016020604051808303816000875af11580156123e9573d6000803e3d6000fd5b505050506040513d601f19601f8201168201806040525081019061240d9190615368565b60405163509ff69b60e01b81526001600160a01b038a81166004830152600060248301527f0000000000000000000000000000000000000000000000000000000000000000169063509ff69b906044015b6020604051808303816000875af115801561247d573d6000803e3d6000fd5b505050506040513d601f19601f820116820180604052508101906124a19190615368565b888888886121df565b98975050505050505050565b60405163509ff69b60e01b81526001600160a01b038981166004830152602482018990526000916125aa918c917f00000000000000000000000000000000000000000000000000000000000000009091169063509ff69b906044015b6020604051808303816000875af1158015612531573d6000803e3d6000fd5b505050506040513d601f19601f820116820180604052508101906125559190615368565b60405163509ff69b60e01b81526001600160a01b038b81166004830152602482018b90527f0000000000000000000000000000000000000000000000000000000000000000169063509ff69b9060440161245e565b9a9950505050505050505050565b6125c0612f34565b61070f6000805461ff001916610100179055565b600061262f3360405163509ff69b60e01b81526001600160a01b038c81166004830152602482018c90527f0000000000000000000000000000000000000000000000000000000000000000169063509ff69b90604401612512565b9998505050505050505050565b600061075c63ffffffff831664e8d4a510006152e5565b61265b611158565b156126785760405162461bcd60e51b81526004016107069061531a565b60006005600083815260200190815260200160002090507f00000000000000000000000000000000000000000000000000000000000000006001600160a01b0316634635229b6040518163ffffffff1660e01b8152600401602060405180830381865afa1580156126ed573d6000803e3d6000fd5b505050506040513d601f19601f820116820180604052508101906127119190615233565b80612728575060018101546001600160a01b031633145b6127445760405162461bcd60e51b815260040161070690615431565b61274f81600161378a565b61072781613c7c565b612760612f34565b6001600160a01b0381166127c55760405162461bcd60e51b815260206004820152602660248201527f4f776e61626c653a206e6577206f776e657220697320746865207a65726f206160448201526564647265737360d01b6064820152608401610706565b6127ce81612f95565b50565b600061075c64174876e800836152c3565b6127ea614cd1565b60008381526005602081815260408084208151610180810183528154815260018201546001600160a01b0381169482019490945293909291840191600160a01b900460ff169081111561283f5761283f614e48565b600581111561285057612850614e48565b81526001820154600160a81b900460ff166020820152600282015460408083019190915260038301546001600160401b038082166060850152600160401b80830482166080860152600160801b808404831660a0870152600160c01b909304821660c086015260049586015480831660e087015290810482166101008601529190910416610120909201919091528251905163657c7e0960e01b8152918201529091507f00000000000000000000000000000000000000000000000000000000000000006001600160a01b03169063657c7e09906024016040805180830381865afa158015612943573d6000803e3d6000fd5b505050506040513d601f19601f820116820180604052508101906129679190615344565b60408401526020830152608081015160608301528280612a00575060608101516040516336181b6760e11b815260ff909116600482015273__Order_________________________________90636c3036ce90602401602060405180830381865af41580156129da573d6000803e3d6000fd5b505050506040513d601f19601f820116820180604052508101906129fe9190615233565b155b15612e715760208101516001600160a01b0316825260a0810151612a23906121c5565b60808301526060810151604051632b2076e360e11b815260ff909116600482015273__Order_________________________________90635640edc690602401602060405180830381865af4158015612a80573d6000803e3d6000fd5b505050506040513d601f19601f82011682018060405250810190612aa49190615233565b15612ab857608082015160a0830152612bf2565b6101208101516001600160401b031615612ae457612ada8161012001516121c5565b60a0830152612bf2565b60405163023aa9ab60e61b815260008051602061574f83398151915260048201527f00000000000000000000000000000000000000000000000000000000000000006001600160a01b031690638eaa6ac090602401602060405180830381865afa158015612b56573d6000803e3d6000fd5b505050506040513d601f19601f82011682018060405250810190612b7a9190615255565b6001600160a01b031663a9bf985883602001516040518263ffffffff1660e01b8152600401612bab91815260200190565b602060405180830381865afa158015612bc8573d6000803e3d6000fd5b505050506040513d601f19601f82011682018060405250810190612bec9190615368565b60a08301525b612bff8160c001516121c5565b60c083015260e0810151612c12906121c5565b60e08301526060810151604051635b7d0f6960e11b815260ff909116600482015273__Order_________________________________9063b6fa1ed290602401602060405180830381865af4158015612c6f573d6000803e3d6000fd5b505050506040513d601f19601f82011682018060405250810190612c939190615233565b15612e5c57612ca68161014001516121c5565b610120830152610160810151612cbb906121c5565b61014083015260405163023aa9ab60e61b81527f3cb99135f7a7c088d9085b446345038a22a85f4e8fe072b0e1b66d97243e745860048201526000907f00000000000000000000000000000000000000000000000000000000000000006001600160a01b031690638eaa6ac090602401602060405180830381865afa158015612d48573d6000803e3d6000fd5b505050506040513d601f19601f82011682018060405250810190612d6c9190615255565b6001600160a01b0316636464b68a846020015185604001516040518363ffffffff1660e01b8152600401612daa929190918252602082015260400190565b606060405180830381865afa158015612dc7573d6000803e3d6000fd5b505050506040513d601f19601f82011682018060405250810190612deb9190615381565b5091505080612e305760405162461bcd60e51b8152602060048201526011602482015270145d5bdd194e88139bdd081c5d5bdd1959607a1b6044820152606401610706565b610140830151612e4090826152c3565b836101200151612e5091906152e5565b61010084015250612e71565b612e6a8161010001516121c5565b6101008301525b604051630212d6cb60e21b815273__Order_________________________________9063084b5b2c90612ea89084906004016154a1565b602060405180830381865af4158015612ec5573d6000803e3d6000fd5b505050506040513d601f19601f82011682018060405250810190612ee99190615368565b61016083015260408101516101808301906005811115612f0b57612f0b614e48565b90816005811115612f1e57612f1e614e48565b9052506060015160ff166101a082015292915050565b6000546001600160a01b036201000090910416331461070f5760405162461bcd60e51b815260206004820152601f60248201527f416c6c6f77616e63653a2063616c6c6572206d757374206265204f776e6572006044820152606401610706565b600080546001600160a01b038381166201000081810262010000600160b01b0319851617855560405193049190911692909183917f8be0079c531659141344cd1fd0a4f28419497f9722a3daafe3b4186f6b6457e091a35050565b60008080600080670de0b6b3a76400006130208a60030160189054906101000a90046001600160401b03166121c5565b61302a90886152e5565b61303491906152c3565b895460405163657c7e0960e01b815291925060009182916001600160a01b037f0000000000000000000000000000000000000000000000000000000000000000169163657c7e099161308c9160040190815260200190565b6040805180830381865afa1580156130a8573d6000803e3d6000fd5b505050506040513d601f19601f820116820180604052508101906130cc9190615344565b60018d015460405163f0340a3760e01b8152600160a81b90910460ff166004820152919350915073__Order_________________________________9063f0340a3790602401602060405180830381865af415801561312f573d6000803e3d6000fd5b505050506040513d601f19601f820116820180604052508101906131539190615233565b1561325b5760405163023aa9ab60e61b815260008051602061574f83398151915260048201527f00000000000000000000000000000000000000000000000000000000000000006001600160a01b031690638eaa6ac090602401602060405180830381865afa1580156131ca573d6000803e3d6000fd5b505050506040513d601f19601f820116820180604052508101906131ee9190615255565b60018c015460405163255318af60e21b81526001600160a01b039283169263954c62bc926132289287929091169030908e9060040161547c565b600060405180830381600087803b15801561324257600080fd5b505af1158015613256573d6000803e3d6000fd5b505050505b881561335b5760405163023aa9ab60e61b815260008051602061574f83398151915260048201527f00000000000000000000000000000000000000000000000000000000000000006001600160a01b031690638eaa6ac090602401602060405180830381865afa1580156132d3573d6000803e3d6000fd5b505050506040513d601f19601f820116820180604052508101906132f79190615255565b6001600160a01b031663954c62bc828c30876040518563ffffffff1660e01b8152600401613328949392919061547c565b600060405180830381600087803b15801561334257600080fd5b505af1158015613356573d6000803e3d6000fd5b505050505b85156134645760405163023aa9ab60e61b815260008051602061574f83398151915260048201527f00000000000000000000000000000000000000000000000000000000000000006001600160a01b031690638eaa6ac090602401602060405180830381865afa1580156133d3573d6000803e3d6000fd5b505050506040513d601f19601f820116820180604052508101906133f79190615255565b60018c0154604051631c9619a760e01b81526001600160a01b0392831692631c9619a792613431928792909116908c908c9060040161547c565b600060405180830381600087803b15801561344b57600080fd5b505af115801561345f573d6000803e3d6000fd5b505050505b83156135645760405163023aa9ab60e61b815260008051602061574f83398151915260048201527f00000000000000000000000000000000000000000000000000000000000000006001600160a01b031690638eaa6ac090602401602060405180830381865afa1580156134dc573d6000803e3d6000fd5b505050506040513d601f19601f820116820180604052508101906135009190615255565b6001600160a01b0316631c9619a7828c88886040518563ffffffff1660e01b8152600401613531949392919061547c565b600060405180830381600087803b15801561354b57600080fd5b505af115801561355f573d6000803e3d6000fd5b505050505b60405163023aa9ab60e61b815260008051602061574f83398151915260048201527f00000000000000000000000000000000000000000000000000000000000000006001600160a01b031690638eaa6ac090602401602060405180830381865afa1580156135d6573d6000803e3d6000fd5b505050506040513d601f19601f820116820180604052508101906135fa9190615255565b60018c01546001600160a01b0391821691631c9619a7918591168d61361f8b8e6153af565b6040518563ffffffff1660e01b815260040161363e949392919061547c565b600060405180830381600087803b15801561365857600080fd5b505af115801561366c573d6000803e3d6000fd5b505060405163023aa9ab60e61b815260008051602061574f83398151915260048201527f00000000000000000000000000000000000000000000000000000000000000006001600160a01b03169250638eaa6ac09150602401602060405180830381865afa1580156136e2573d6000803e3d6000fd5b505050506040513d601f19601f820116820180604052508101906137069190615255565b60018c01546001600160a01b0391821691631c9619a79184918e911661372c89896153af565b6040518563ffffffff1660e01b815260040161374b949392919061547c565b600060405180830381600087803b15801561376557600080fd5b505af1158015613779573d6000803e3d6000fd5b505050505050505050505050505050565b600081600581111561379e5761379e614e48565b1180156137bd575060038160058111156137ba576137ba614e48565b11155b80156137e9575060046001830154600160a01b900460ff1660058111156137e6576137e6614e48565b10155b6138355760405162461bcd60e51b815260206004820152601d60248201527f5f6f726465725465726d696e6174652073746174652070726f626c656d0000006044820152606401610706565b815460405163657c7e0960e01b8152600481019190915260009081907f00000000000000000000000000000000000000000000000000000000000000006001600160a01b03169063657c7e09906024016040805180830381865afa1580156138a1573d6000803e3d6000fd5b505050506040513d601f19601f820116820180604052508101906138c59190615344565b600186018054929450909250849160ff60a01b1916600160a01b8360058111156138f1576138f1614e48565b0217905550600184015460405163f0340a3760e01b8152600160a81b90910460ff16600482015273__Order_________________________________9063f0340a3790602401602060405180830381865af4158015613954573d6000803e3d6000fd5b505050506040513d601f19601f820116820180604052508101906139789190615233565b15613aaf5760405163023aa9ab60e61b815260008051602061574f83398151915260048201527f00000000000000000000000000000000000000000000000000000000000000006001600160a01b031690638eaa6ac090602401602060405180830381865afa1580156139ef573d6000803e3d6000fd5b505050506040513d601f19601f82011682018060405250810190613a139190615255565b600185015460038601546001600160a01b039283169263954c62bc9285929116903090613a5d90610464906001600160401b03600160401b8204811691600160801b9004166153de565b6040518563ffffffff1660e01b8152600401613a7c949392919061547c565b600060405180830381600087803b158015613a9657600080fd5b505af1158015613aaa573d6000803e3d6000fd5b505050505b83546000908152600660205260409081902060028601549151630cef945b60e31b815273__Array_________________________________9263677ca2d892613b0692909190600401918252602082015260400190565b602060405180830381865af4158015613b23573d6000803e3d6000fd5b505050506040513d601f19601f82011682018060405250810190613b479190615233565b506000828152600760205260409081902060028601549151630cef945b60e31b815273__Array_________________________________9263677ca2d892613b9d92909190600401918252602082015260400190565b602060405180830381865af4158015613bba573d6000803e3d6000fd5b505050506040513d601f19601f82011682018060405250810190613bde9190615233565b506000818152600860205260409081902060028601549151630cef945b60e31b815273__Array_________________________________9263677ca2d892613c3492909190600401918252602082015260400190565b602060405180830381865af4158015613c51573d6000803e3d6000fd5b505050506040513d601f19601f82011682018060405250810190613c759190615233565b5050505050565b6002810154604051630cef945b60e31b8152600480820152602481019190915273__Array_________________________________9063677ca2d890604401602060405180830381865af4158015613cd8573d6000803e3d6000fd5b505050506040513d601f19601f82011682018060405250810190613cfc9190615233565b5043600090815260096020908152604082206002909301548354600181018555938352912090910155565b604051630e29a66960e21b8152600481018290526001600160a01b037f000000000000000000000000000000000000000000000000000000000000000016906338a699a490602401602060405180830381865afa158015613d8c573d6000803e3d6000fd5b505050506040513d601f19601f82011682018060405250810190613db09190615233565b613db75750565b60405163657c7e0960e01b81526004810182905260009081906001600160a01b037f0000000000000000000000000000000000000000000000000000000000000000169063657c7e09906024016040805180830381865afa158015613e20573d6000803e3d6000fd5b505050506040513d601f19601f82011682018060405250810190613e449190615344565b91509150613e5282846108f2565b15613e5c57505050565b6000818152600160209081526040808320805482518185028101850190935280835260609493830182828015613eb157602002820191906000526020600020905b815481526020019060010190808311613e9d575b5050505050905080516001600160401b03811115613ed157613ed1615590565b604051908082528060200260200182016040528015613f0457816020015b6060815260200190600190039081613eef5790505b5091506000805b82518110156140805760007f00000000000000000000000000000000000000000000000000000000000000006001600160a01b03166327ee9dc2858481518110613f5757613f576155a6565b60200260200101516040518263ffffffff1660e01b8152600401613f7d91815260200190565b600060405180830381865afa158015613f9a573d6000803e3d6000fd5b505050506040513d6000823e601f3d908101601f19168201604052613fc291908101906155bc565b604051639d84366d60e01b815290915073__Array_________________________________90639d84366d90613ffe9084908b906004016156a8565b602060405180830381865af415801561401b573d6000803e3d6000fd5b505050506040513d601f19601f8201168201806040525081019061403f9190615233565b61406d5780858461404f816156ca565b955081518110614061576140616155a6565b60200260200101819052505b5080614078816156ca565b915050613f0b565b5082525060008381526002602090815260408083208054825181850281018501909352808352606094938301828280156140d957602002820191906000526020600020905b8154815260200190600101908083116140c5575b5050505050905080516001600160401b038111156140f9576140f9615590565b60405190808252806020026020018201604052801561412c57816020015b60608152602001906001900390816141175790505b5091506000805b82518110156142a85760007f00000000000000000000000000000000000000000000000000000000000000006001600160a01b03166327ee9dc285848151811061417f5761417f6155a6565b60200260200101516040518263ffffffff1660e01b81526004016141a591815260200190565b600060405180830381865afa1580156141c2573d6000803e3d6000fd5b505050506040513d6000823e601f3d908101601f191682016040526141ea91908101906155bc565b604051639d84366d60e01b815290915073__Array_________________________________90639d84366d906142269084908b906004016156a8565b602060405180830381865af4158015614243573d6000803e3d6000fd5b505050506040513d601f19601f820116820180604052508101906142679190615233565b61429557808584614277816156ca565b955081518110614289576142896155a6565b60200260200101819052505b50806142a0816156ca565b915050614133565b508252506000848152600160205260409081902090516316061a7160e21b815260048101919091526024810186905273__Array_________________________________9063581869c490604401602060405180830381865af4158015614313573d6000803e3d6000fd5b505050506040513d601f19601f820116820180604052508101906143379190615233565b506000838152600260205260409081902090516316061a7160e21b815260048101919091526024810186905273__Array_________________________________9063581869c490604401602060405180830381865af415801561439f573d6000803e3d6000fd5b505050506040513d601f19601f820116820180604052508101906143c39190615233565b5060005b81518110156146535760008282815181106143e4576143e46155a6565b602002602001015173__Array_________________________________639b861f039091876040518363ffffffff1660e01b81526004016144269291906156a8565b600060405180830381865af4158015614443573d6000803e3d6000fd5b505050506040513d6000823e601f3d908101601f1916820160405261446b91908101906155bc565b905060007f00000000000000000000000000000000000000000000000000000000000000006001600160a01b031663b3054383836040518263ffffffff1660e01b81526004016144bb91906156e5565b6020604051808303816000875af11580156144da573d6000803e3d6000fd5b505050506040513d601f19601f820116820180604052508101906144fe9190615368565b90506001600083600081518110614517576145176155a6565b6020026020010151815260200190815260200160002073__Array_________________________________63581869c49091836040518363ffffffff1660e01b8152600401614570929190918252602082015260400190565b602060405180830381865af415801561458d573d6000803e3d6000fd5b505050506040513d601f19601f820116820180604052508101906145b19190615233565b506000868152600260205260409081902090516316061a7160e21b815260048101919091526024810182905273__Array_________________________________9063581869c490604401602060405180830381865af4158015614619573d6000803e3d6000fd5b505050506040513d601f19601f8201168201806040525081019061463d9190615233565b505050808061464b906156ca565b9150506143c7565b5060005b82518110156148f5576000838281518110614674576146746155a6565b602002602001015173__Array_________________________________633b06e74f9091886040518363ffffffff1660e01b81526004016146b69291906156a8565b600060405180830381865af41580156146d3573d6000803e3d6000fd5b505050506040513d6000823e601f3d908101601f191682016040526146fb91908101906155bc565b905060007f00000000000000000000000000000000000000000000000000000000000000006001600160a01b031663b3054383836040518263ffffffff1660e01b815260040161474b91906156e5565b6020604051808303816000875af115801561476a573d6000803e3d6000fd5b505050506040513d601f19601f8201168201806040525081019061478e9190615368565b6000888152600160205260409081902090516316061a7160e21b815291925073__Array_________________________________9163581869c4916147e0918590600401918252602082015260400190565b602060405180830381865af41580156147fd573d6000803e3d6000fd5b505050506040513d601f19601f820116820180604052508101906148219190615233565b5060026000836001855161483591906153af565b81518110614845576148456155a6565b6020026020010151815260200190815260200160002073__Array_________________________________63581869c49091836040518363ffffffff1660e01b815260040161489e929190918252602082015260400190565b602060405180830381865af41580156148bb573d6000803e3d6000fd5b505050506040513d601f19601f820116820180604052508101906148df9190615233565b50505080806148ed906156ca565b915050614657565b5060005b8151811015614cc95760005b8351811015614cb6576000848281518110614922576149226155a6565b602002602001015190506000848381518110614940576149406155a6565b6020026020010151905060005b8251811015614a07578173__Array_________________________________639d84366d9091858481518110614985576149856155a6565b60200260200101516040518363ffffffff1660e01b81526004016149aa9291906156a8565b602060405180830381865af41580156149c7573d6000803e3d6000fd5b505050506040513d601f19601f820116820180604052508101906149eb9190615233565b156149f557614a07565b806149ff816156ca565b91505061494d565b8251811015614a1857505050614ca4565b6040516302704ae960e31b815260009073__Array_________________________________90631382574890614a549087908790600401615729565b600060405180830381865af4158015614a71573d6000803e3d6000fd5b505050506040513d6000823e601f3d908101601f19168201604052614a9991908101906155bc565b905060007f00000000000000000000000000000000000000000000000000000000000000006001600160a01b031663b3054383836040518263ffffffff1660e01b8152600401614ae991906156e5565b6020604051808303816000875af1158015614b08573d6000803e3d6000fd5b505050506040513d601f19601f82011682018060405250810190614b2c9190615368565b90506001600083600081518110614b4557614b456155a6565b6020026020010151815260200190815260200160002073__Array_________________________________63581869c49091836040518363ffffffff1660e01b8152600401614b9e929190918252602082015260400190565b602060405180830381865af4158015614bbb573d6000803e3d6000fd5b505050506040513d601f19601f82011682018060405250810190614bdf9190615233565b50600260008360018551614bf391906153af565b81518110614c0357614c036155a6565b6020026020010151815260200190815260200160002073__Array_________________________________63581869c49091836040518363ffffffff1660e01b8152600401614c5c929190918252602082015260400190565b602060405180830381865af4158015614c79573d6000803e3d6000fd5b505050506040513d601f19601f82011682018060405250810190614c9d9190615233565b5050505050505b80614cae816156ca565b915050614905565b5080614cc1816156ca565b9150506148f9565b505050505050565b604051806101c0016040528060006001600160a01b03168152602001600080191681526020016000801916815260200160008152602001600081526020016000815260200160008152602001600081526020016000815260200160008152602001600081526020016000815260200160006005811115614d5357614d53614e48565b8152600060209091015290565b60008085851115614d7057600080fd5b83861115614d7d57600080fd5b5050820193919092039150565b600060208284031215614d9c57600080fd5b81356001600160e01b03198116811461097c57600080fd5b6001600160a01b03811681146127ce57600080fd5b600080600080600060a08688031215614de157600080fd5b8535614dec81614db4565b97602087013597506040870135966060810135965060800135945092505050565b60008060408385031215614e2057600080fd5b50508035926020909101359150565b600060208284031215614e4157600080fd5b5035919050565b634e487b7160e01b600052602160045260246000fd5b60068110614e7c57634e487b7160e01b600052602160045260246000fd5b9052565b81516001600160a01b031681526101c081016020830151602083015260408301516040830152606083015160608301526080830151608083015260a083015160a083015260c083015160c083015260e083015160e083015261010080840151818401525061012080840151818401525061014080840151818401525061016080840151818401525061018080840151614f1b82850182614e5e565b50506101a08381015160ff8116848301525b505092915050565b600060208284031215614f4757600080fd5b813561097c81614db4565b803560ff81168114614f6357600080fd5b919050565b60008060008060008060c08789031215614f8157600080fd5b8635955060208701359450604087013593506060870135925060808701359150614fad60a08801614f52565b90509295509295509295565b600060208284031215614fcb57600080fd5b813565ffffffffffff8116811461097c57600080fd5b60008060008060808587031215614ff757600080fd5b5050823594602084013594506040840135936060013592509050565b600080600080600080600060e0888a03121561502e57600080fd5b873561503981614db4565b96506020880135955060408801359450606088013593506080880135925060a0880135915061506a60c08901614f52565b905092959891949750929550565b60006020828403121561508a57600080fd5b81356001600160401b038116811461097c57600080fd5b600080600080600080600060e0888a0312156150bc57600080fd5b87356150c781614db4565b965060208801356150d781614db4565b955060408801356150e781614db4565b9450606088013593506080880135925060a0880135915061506a60c08901614f52565b60008060008060008060008060006101208a8c03121561512957600080fd5b893561513481614db4565b985060208a013561514481614db4565b975060408a0135965060608a013561515b81614db4565b955060808a0135945060a08a0135935060c08a0135925060e08a013591506151866101008b01614f52565b90509295985092959850929598565b600080600080600080600080610100898b0312156151b257600080fd5b88356151bd81614db4565b97506020890135965060408901356151d481614db4565b9550606089013594506080890135935060a0890135925060c089013591506151fe60e08a01614f52565b90509295985092959890939650565b60006020828403121561521f57600080fd5b813563ffffffff8116811461097c57600080fd5b60006020828403121561524557600080fd5b8151801515811461097c57600080fd5b60006020828403121561526757600080fd5b815161097c81614db4565b6000825160005b818110156152935760208186018101518583015201615279565b818111156152a2576000828501525b509190910192915050565b634e487b7160e01b600052601160045260246000fd5b6000826152e057634e487b7160e01b600052601260045260246000fd5b500490565b60008160001904831182151516156152ff576152ff6152ad565b500290565b634e487b7160e01b600052600160045260246000fd5b60208082526010908201526f10dbdb9d1c9858dd081cdd1bdc1c195960821b604082015260600190565b6000806040838503121561535757600080fd5b505080516020909101519092909150565b60006020828403121561537a57600080fd5b5051919050565b60008060006060848603121561539657600080fd5b8351925060208401519150604084015190509250925092565b6000828210156153c1576153c16152ad565b500390565b600082198211156153d9576153d96152ad565b500190565b60006001600160401b03838116908316818110156153fe576153fe6152ad565b039392505050565b60006001600160401b03808316818516808303821115615428576154286152ad565b01949350505050565b6020808252602b908201527f4d757374206265206163636f756e743d3d5f6d736753656e646572206f72204d60408201526a6f64652054657374696e6760a81b606082015260800190565b9384526001600160a01b03928316602085015291166040830152606082015260800190565b815181526020808301516101808301916154c5908401826001600160a01b03169052565b5060408301516154d86040840182614e5e565b5060608301516154ed606084018260ff169052565b506080830151608083015260a083015161551260a08401826001600160401b03169052565b5060c083015161552d60c08401826001600160401b03169052565b5060e083015161554860e08401826001600160401b03169052565b50610100838101516001600160401b03908116918401919091526101208085015182169084015261014080850151821690840152610160808501519182168185015290614f2d565b634e487b7160e01b600052604160045260246000fd5b634e487b7160e01b600052603260045260246000fd5b600060208083850312156155cf57600080fd5b82516001600160401b03808211156155e657600080fd5b818501915085601f8301126155fa57600080fd5b81518181111561560c5761560c615590565b8060051b604051601f19603f8301168101818110858211171561563157615631615590565b60405291825284820192508381018501918883111561564f57600080fd5b938501935b828510156124aa57845184529385019392850192615654565b600081518084526020808501945080840160005b8381101561569d57815187529582019590820190600101615681565b509495945050505050565b6040815260006156bb604083018561566d565b90508260208301529392505050565b60006000198214156156de576156de6152ad565b5060010190565b6020808252825182820181905260009190848201906040850190845b8181101561571d57835183529284019291840191600101615701565b50909695505050505050565b60408152600061573c604083018561566d565b82810360208401526112d5818561566d56fecd775f2396f9f13f12bcf8ca32e21df66559a8adc3944d0591127e7731f7ab85a2646970667358221220669a8955d7f4bf60187d51790f72d28918d9d03c425258194f6486d4f9bf860164736f6c634300080b0033","bytecodeSha1":"a43de88e9ce66a2b4888079699519abeeb456f3a","type":"contract","abi":[{"inputs":[{"internalType":"contract Repository","name":"rep_","type":"address"}],"stateMutability":"nonpayable","type":"constructor","name":"constructor"},{"anonymous":false,"inputs":[{"indexed":true,"internalType":"address","name":"previousOwner","type":"address"},{"indexed":true,"internalType":"address","name":"newOwner","type":"address"}],"name":"OwnershipTransferred","type":"event"},{"anonymous":false,"inputs":[{"indexed":true,"internalType":"bytes32","name":"fromk_","type":"bytes32"},{"indexed":true,"internalType":"bytes32","name":"tok_","type":"bytes32"},{"indexed":false,"internalType":"address","name":"fromaccount_","type":"address"},{"indexed":false,"internalType":"address","name":"toaccount_","type":"address"},{"indexed":false,"internalType":"uint256","name":"quote_","type":"uint256"},{"indexed":false,"internalType":"uint256","name":"qty_","type":"uint256"}],"name":"Transaction","type":"event"},{"stateMutability":"nonpayable","type":"fallback"},{"inputs":[],"name":"STOP","outputs":[{"internalType":"bool","name":"","type":"bool"}],"stateMutability":"view","type":"function"},{"inputs":[],"name":"STOPFOREVER","outputs":[{"internalType":"bool","name":"","type":"bool"}],"stateMutability":"view","type":"function"},{"inputs":[{"internalType":"uint256","name":"val_","type":"uint256"}],"name":"UInt256ToUInt32","outputs":[{"internalType":"uint32","name":"","type":"uint32"}],"stateMutability":"pure","type":"function"},{"inputs":[{"internalType":"uint256","name":"val_","type":"uint256"}],"name":"UInt256ToUInt48","outputs":[{"internalType":"uint48","name":"","type":"uint48"}],"stateMutability":"pure","type":"function"},{"inputs":[{"internalType":"uint256","name":"val_","type":"uint256"}],"name":"UInt256ToUInt64","outputs":[{"internalType":"uint64","name":"","type":"uint64"}],"stateMutability":"pure","type":"function"},{"inputs":[{"internalType":"uint32","name":"val_","type":"uint32"}],"name":"UInt32ToUInt256","outputs":[{"internalType":"uint256","name":"","type":"uint256"}],"stateMutability":"pure","type":"function"},{"inputs":[{"internalType":"uint48","name":"val_","type":"uint48"}],"name":"UInt48ToUInt256","outputs":[{"internalType":"uint256","name":"","type":"uint256"}],"stateMutability":"pure","type":"function"},{"inputs":[{"internalType":"uint64","name":"val_","type":"uint64"}],"name":"UInt64ToUInt256","outputs":[{"internalType":"uint256","name":"","type":"uint256"}],"stateMutability":"pure","type":"function"},{"inputs":[{"internalType":"bytes32","name":"_from","type":"bytes32"},{"internalType":"bytes32","name":"fromto_","type":"bytes32"}],"name":"_existPath","outputs":[{"internalType":"bool","name":"","type":"bool"}],"stateMutability":"view","type":"function"},{"inputs":[{"internalType":"uint256","name":"order_","type":"uint256"}],"name":"d_orderCancel","outputs":[],"stateMutability":"nonpayable","type":"function"},{"inputs":[{"internalType":"address","name":"account_","type":"address"},{"internalType":"uint256","name":"orderid_","type":"uint256"},{"internalType":"uint256","name":"qty_","type":"uint256"},{"internalType":"uint256","name":"quote_","type":"uint256"},{"internalType":"uint256","name":"pctslippage_","type":"uint256"}],"name":"d_orderFulfillEx","outputs":[{"internalType":"uint256","name":"qtydone_","type":"uint256"}],"stateMutability":"nonpayable","type":"function"},{"inputs":[{"internalType":"address","name":"account_","type":"address"},{"internalType":"bytes32","name":"from_","type":"bytes32"},{"internalType":"bytes32","name":"to_","type":"bytes32"},{"internalType":"uint256","name":"granularity_","type":"uint256"},{"internalType":"uint256","name":"qty_","type":"uint256"},{"internalType":"uint256","name":"quote_","type":"uint256"},{"internalType":"uint8","name":"options_","type":"uint8"}],"name":"d_orderPlace","outputs":[{"internalType":"uint256","name":"orderid_","type":"uint256"}],"stateMutability":"nonpayable","type":"function"},{"inputs":[],"name":"id","outputs":[{"internalType":"bytes32","name":"","type":"bytes32"}],"stateMutability":"view","type":"function"},{"inputs":[{"internalType":"address","name":"caller_","type":"address"}],"name":"isOwner","outputs":[{"internalType":"bool","name":"","type":"bool"}],"stateMutability":"view","type":"function"},{"inputs":[{"internalType":"uint256","name":"order_","type":"uint256"}],"name":"order","outputs":[{"components":[{"internalType":"address","name":"account","type":"address"},{"internalType":"bytes32","name":"from","type":"bytes32"},{"internalType":"bytes32","name":"to","type":"bytes32"},{"internalType":"uint256","name":"orderid","type":"uint256"},{"internalType":"uint256","name":"qty","type":"uint256"},{"internalType":"uint256","name":"granularity","type":"uint256"},{"internalType":"uint256","name":"qtydone","type":"uint256"},{"internalType":"uint256","name":"originalqty","type":"uint256"},{"internalType":"uint256","name":"quote","type":"uint256"},{"internalType":"uint256","name":"originalquote","type":"uint256"},{"internalType":"uint256","name":"originalbasedquote","type":"uint256"},{"internalType":"uint256","name":"expire","type":"uint256"},{"internalType":"enum Order.State","name":"state","type":"uint8"},{"internalType":"uint8","name":"options","type":"uint8"}],"internalType":"struct Order.InfoPublic","name":"","type":"tuple"}],"stateMutability":"view","type":"function"},{"inputs":[{"internalType":"uint256","name":"orderid_","type":"uint256"}],"name":"orderCancel","outputs":[],"stateMutability":"nonpayable","type":"function"},{"inputs":[{"internalType":"uint256","name":"orderid_","type":"uint256"},{"internalType":"uint256","name":"qty_","type":"uint256"},{"internalType":"uint256","name":"quote_","type":"uint256"},{"internalType":"uint256","name":"pctslippage_","type":"uint256"}],"name":"orderFulfill","outputs":[{"internalType":"uint256","name":"qtydone_","type":"uint256"}],"stateMutability":"nonpayable","type":"function"},{"inputs":[{"internalType":"address","name":"account_","type":"address"},{"internalType":"uint256","name":"orderid_","type":"uint256"},{"internalType":"uint256","name":"qty_","type":"uint256"},{"internalType":"uint256","name":"quote_","type":"uint256"},{"internalType":"uint256","name":"pctslippage_","type":"uint256"}],"name":"orderFulfillEx","outputs":[{"internalType":"uint256","name":"qtydone_","type":"uint256"}],"stateMutability":"nonpayable","type":"function"},{"inputs":[{"internalType":"bytes32","name":"from_","type":"bytes32"},{"internalType":"bytes32","name":"to_","type":"bytes32"},{"internalType":"uint256","name":"granularity_","type":"uint256"},{"internalType":"uint256","name":"qty_","type":"uint256"},{"internalType":"uint256","name":"quote_","type":"uint256"},{"internalType":"uint8","name":"options_","type":"uint8"}],"name":"orderPlace","outputs":[{"internalType":"uint256","name":"orderid_","type":"uint256"}],"stateMutability":"nonpayable","type":"function"},{"inputs":[{"internalType":"address","name":"account_","type":"address"},{"internalType":"bytes32","name":"from_","type":"bytes32"},{"internalType":"bytes32","name":"to_","type":"bytes32"},{"internalType":"uint256","name":"granularity_","type":"uint256"},{"internalType":"uint256","name":"qty_","type":"uint256"},{"internalType":"uint256","name":"quote_","type":"uint256"},{"internalType":"uint8","name":"options_","type":"uint8"}],"name":"orderPlace","outputs":[{"internalType":"uint256","name":"orderid_","type":"uint256"}],"stateMutability":"nonpayable","type":"function"},{"inputs":[{"internalType":"address","name":"account_","type":"address"},{"internalType":"address","name":"from_","type":"address"},{"internalType":"uint256","name":"fromid_","type":"uint256"},{"internalType":"address","name":"to_","type":"address"},{"internalType":"uint256","name":"toid_","type":"uint256"},{"internalType":"uint256","name":"granularity_","type":"uint256"},{"internalType":"uint256","name":"qty_","type":"uint256"},{"internalType":"uint256","name":"quote_","type":"uint256"},{"internalType":"uint8","name":"options_","type":"uint8"}],"name":"orderPlace","outputs":[{"internalType":"uint256","name":"orderid_","type":"uint256"}],"stateMutability":"nonpayable","type":"function"},{"inputs":[{"internalType":"address","name":"account_","type":"address"},{"internalType":"address","name":"from_","type":"address"},{"internalType":"address","name":"to_","type":"address"},{"internalType":"uint256","name":"granularity_","type":"uint256"},{"internalType":"uint256","name":"qty_","type":"uint256"},{"internalType":"uint256","name":"quote_","type":"uint256"},{"internalType":"uint8","name":"options_","type":"uint8"}],"name":"orderPlaceEx","outputs":[{"internalType":"uint256","name":"orderid_","type":"uint256"}],"stateMutability":"nonpayable","type":"function"},{"inputs":[{"internalType":"address","name":"from_","type":"address"},{"internalType":"uint256","name":"fromid_","type":"uint256"},{"internalType":"address","name":"to_","type":"address"},{"internalType":"uint256","name":"toid_","type":"uint256"},{"internalType":"uint256","name":"granularity_","type":"uint256"},{"internalType":"uint256","name":"qty_","type":"uint256"},{"internalType":"uint256","name":"quote_","type":"uint256"},{"internalType":"uint8","name":"options_","type":"uint8"}],"name":"orderPlaceEx","outputs":[{"internalType":"uint256","name":"orderid_","type":"uint256"}],"stateMutability":"nonpayable","type":"function"},{"inputs":[],"name":"owner","outputs":[{"internalType":"address","name":"","type":"address"}],"stateMutability":"view","type":"function"},{"inputs":[],"name":"renounceOwnership","outputs":[],"stateMutability":"nonpayable","type":"function"},{"inputs":[],"name":"rep","outputs":[{"internalType":"contract Repository","name":"","type":"address"}],"stateMutability":"view","type":"function"},{"inputs":[],"name":"setSTOP","outputs":[],"stateMutability":"nonpayable","type":"function"},{"inputs":[],"name":"setSTOPFOREVER","outputs":[],"stateMutability":"nonpayable","type":"function"},{"inputs":[{"internalType":"bytes4","name":"interfaceId","type":"bytes4"}],"name":"supportsInterface","outputs":[{"internalType":"bool","name":"","type":"bool"}],"stateMutability":"view","type":"function"},{"inputs":[{"internalType":"address","name":"newOwner","type":"address"}],"name":"transferOwnership","outputs":[],"stateMutability":"nonpayable","type":"function"},{"inputs":[],"name":"unsetSTOP","outputs":[],"stateMutability":"nonpayable","type":"function"}],"compiler":{"version":"0.8.11+commit.d7f03943","evm_version":"istanbul","optimizer":{"enabled":true,"runs":200}},"contractName":"MarketOrder","deployedBytecode":"608060405234801561001057600080fd5b50600436106101e55760003560e01c8063979620761161010f578063c34fa842116100a2578063e4b1614411610071578063e4b16144146104e4578063ede8cdfe146104f7578063f2fde38b1461050a578063feab44541461051d576101e5565b8063c34fa8421461048f578063ccc07959146104a2578063d6935858146104c9578063e2d7e08e146104d1576101e5565b8063af640d0f116100de578063af640d0f14610430578063b03fd40d14610456578063b23a43fc14610469578063b791f8a01461047c576101e5565b806397962076146103e75780639bc896f9146103f7578063a5ef794a1461040a578063a6610f021461041d576101e5565b80635c42b710116101875780637a70482c116101565780637a70482c1461038e5780637af6649a146103a1578063854ba99d146103b45780638da5cb5b146103bc576101e5565b80635c42b710146103405780636296514114610353578063715018a61461037e57806372ea61bf14610386576101e5565b80631ef4590d116101c35780631ef4590d146102bd57806321603f43146102d05780632203616d146102f05780632f54bf6e14610318576101e5565b806301ffc9a71461026a57806305d6bd9c146102925780630af077bf1461029c575b6101ed610547565b60006101fd602460043684614d60565b8080601f016020809104026020016040519081016040528093929190818152602001838380828437600092018290525060208501519495509250503660231981019150601f19016004838037816024600437600080826000875af49250505061026581610711565b505050005b61027d610278366004614d8a565b61072b565b60405190151581526020015b60405180910390f35b61029a610762565b005b6102af6102aa366004614dc9565b610779565b604051908152602001610289565b61027d6102cb366004614e0d565b6108f2565b6102e36102de366004614e2f565b610983565b6040516102899190614e80565b6103036102fe366004614e2f565b610996565b60405163ffffffff9091168152602001610289565b61027d610326366004614f35565b6000546201000090046001600160a01b0390811691161490565b6102af61034e366004614f68565b6109a7565b610366610361366004614e2f565b6109c3565b6040516001600160401b039091168152602001610289565b61029a6109f5565b61029a610a07565b6102af61039c366004614dc9565b610a21565b6102af6103af366004614fb9565b61113f565b61027d611158565b6000546201000090046001600160a01b03165b6040516001600160a01b039091168152602001610289565b600054610100900460ff1661027d565b61029a610405366004614e2f565b611176565b6102af610418366004614fe1565b6112c6565b6102af61042b366004615013565b6112de565b7fc79a5c5e1c7f6fab1e75ab0e20e9522aa9eb363a0c70072c6dcb8a20f4a46ae46102af565b6102af610464366004615078565b6121c5565b6102af610477366004615013565b6121df565b6102af61048a3660046150a1565b61236f565b6102af61049d36600461510a565b6124b6565b6103cf7f000000000000000000000000000000000000000000000000000000000000000081565b61029a6125b8565b6102af6104df366004615195565b6125d4565b6102af6104f236600461520d565b61263c565b61029a610505366004614e2f565b612653565b61029a610518366004614f35565b612758565b61053061052b366004614e2f565b6127d1565b60405165ffffffffffff9091168152602001610289565b6000546001600160a01b0362010000909104163314806105fa57506001600160a01b037f0000000000000000000000000000000000000000000000000000000000000000166316279055336040516001600160e01b031960e084901b1681526001600160a01b039091166004820152602401602060405180830381865afa1580156105d6573d6000803e3d6000fd5b505050506040513d601f19601f820116820180604052508101906105fa9190615233565b8061069857506001600160a01b037f000000000000000000000000000000000000000000000000000000000000000016636d70f7ae336040516001600160e01b031960e084901b1681526001600160a01b039091166004820152602401602060405180830381865afa158015610674573d6000803e3d6000fd5b505050506040513d601f19601f820116820180604052508101906106989190615233565b61070f5760405162461bcd60e51b815260206004820152603960248201527f416c6c6f77616e63653a2063616c6c6572206d757374206265205265706f736960448201527f746f727920436f6e7472616374206f72204f70657261746f720000000000000060648201526084015b60405180910390fd5b565b3d6000803e808015610722573d6000f35b3d6000fd5b5050565b60006001600160e01b031982166301ffc9a760e01b148061075c57506001600160e01b031982166315d3789560e31b145b92915050565b61076a610547565b61070f6000805460ff19169055565b60405163023aa9ab60e61b81527f2e7a327ef83c2af7579c6634f2f5604519800c5f07626f27bd602fd11ed8e6ec600482015260009081906001600160a01b037f00000000000000000000000000000000000000000000000000000000000000001690638eaa6ac090602401602060405180830381865afa158015610802573d6000803e3d6000fd5b505050506040513d601f19601f820116820180604052508101906108269190615255565b604080513060248201526001600160a01b038a81166044830152606482018a90526084820189905260a4820188905260c48083018890528351808403909101815260e490920183526020820180516001600160e01b03166301de754d60e61b179052915192909116916108999190615272565b6000604051808303816000865af19150503d80600081146108d6576040519150601f19603f3d011682016040523d82523d6000602084013e6108db565b606091505b505090506108e881610711565b5095945050505050565b6000828152600160205260408082209051632be5db2360e11b815260048101919091526024810183905273__$f71e59c5327218924d154e230469c101bd$__906357cbb64690604401602060405180830381865af4158015610958573d6000803e3d6000fd5b505050506040513d601f19601f8201168201806040525081019061097c9190615233565b9392505050565b61098b614cd1565b61075c8260006127e2565b600061075c64e8d4a51000836152c3565b60006109b8338888888888886121df565b979650505050505050565b6000806109d56402540be400846152c3565b9050826109e7826402540be4006152e5565b111561075c5761075c615304565b6109fd612f34565b61070f6000612f95565b610a0f610547565b61070f6000805460ff19166001179055565b6000610a2b611158565b15610a485760405162461bcd60e51b81526004016107069061531a565b7f00000000000000000000000000000000000000000000000000000000000000006001600160a01b0316634635229b6040518163ffffffff1660e01b8152600401602060405180830381865afa158015610aa6573d6000803e3d6000fd5b505050506040513d601f19601f82011682018060405250810190610aca9190615233565b80610add57506001600160a01b03861633145b610b3f5760405162461bcd60e51b815260206004820152602d60248201527f4d757374206265206163636f756e743d3d5f6d736753656e6465722829206f7260448201526c204d6f64652054657374696e6760981b6064820152608401610706565b6000858152600560205260408082208054915163657c7e0960e01b81526004810192909252919081907f00000000000000000000000000000000000000000000000000000000000000006001600160a01b03169063657c7e09906024016040805180830381865afa158015610bb8573d6000803e3d6000fd5b505050506040513d601f19601f82011682018060405250810190610bdc9190615344565b60405163023aa9ab60e61b815260008051602061574f833981519152600482015291935091507f00000000000000000000000000000000000000000000000000000000000000006001600160a01b031690638eaa6ac090602401602060405180830381865afa158015610c53573d6000803e3d6000fd5b505050506040513d601f19601f82011682018060405250810190610c779190615255565b604051634e68f20f60e11b8152600481018390526001600160a01b038b811660248301529190911690639cd1e41e90604401602060405180830381865afa158015610cc6573d6000803e3d6000fd5b505050506040513d601f19601f82011682018060405250810190610cea9190615368565b670de0b6b3a7640000610cfd888a6152e5565b610d0791906152c3565b1115610d555760405162461bcd60e51b815260206004820152601a60248201527f42616e6b3a204e6f7420656e6f75676820617661696c61626c650000000000006044820152606401610706565b6001830154604051635b7d0f6960e11b8152600160a81b90910460ff16600482015260009073__$f7122df39a5f3bad28f404771cd5173291$__9063b6fa1ed290602401602060405180830381865af4158015610db6573d6000803e3d6000fd5b505050506040513d601f19601f82011682018060405250810190610dda9190615233565b15610f055760405163023aa9ab60e61b81527f3cb99135f7a7c088d9085b446345038a22a85f4e8fe072b0e1b66d97243e745860048201527f00000000000000000000000000000000000000000000000000000000000000006001600160a01b031690638eaa6ac090602401602060405180830381865afa158015610e63573d6000803e3d6000fd5b505050506040513d601f19601f82011682018060405250810190610e879190615255565b6040516332f3077960e11b815260048101859052602481018490526001600160a01b0391909116906365e60ef2906044016060604051808303816000875af1158015610ed7573d6000803e3d6000fd5b505050506040513d601f19601f82011682018060405250810190610efb9190615381565b509150610f269050565b6003840154610f2390600160c01b90046001600160401b03166121c5565b90505b670de0b6b3a7640000610f3987826153af565b610f4390896152e5565b610f4d91906152c3565b8111158015610f825750670de0b6b3a7640000610f6a87826153c6565b610f7490896152e5565b610f7e91906152c3565b8110155b610fce5760405162461bcd60e51b815260206004820152601c60248201527f51756f746520536c6970706564206f76657220746f6c6572616e6365000000006044820152606401610706565b600081610fdb898b6152e5565b610fe591906152c3565b600386015490915060009061101090610464906001600160401b03600160401b8204811691166153de565b90508181101561101e578091505b61102b868d60008d612ff0565b6110348a6109c3565b600387018054600890611058908490600160401b90046001600160401b0316615406565b82546101009290920a6001600160401b038181021990931691831602179091556003880154600160801b81048216600160401b909104909116141590506110a4576110a486600361378a565b6001860154604080516001600160a01b039283168152918e166020830152810184905260608101839052849086907f49da6c773c11f8e65fd2ffb9512fa3f24dc8759fbcedb687f0b59694adc1d3439060800160405180910390a360036001870154600160a01b900460ff16600581111561112157611121614e48565b1161112f5761112f86613c7c565b50979a9950505050505050505050565b600061075c65ffffffffffff831664174876e8006152e5565b6000805460ff16806111715750600054610100900460ff165b905090565b60405163023aa9ab60e61b81527f2e7a327ef83c2af7579c6634f2f5604519800c5f07626f27bd602fd11ed8e6ec60048201526000907f00000000000000000000000000000000000000000000000000000000000000006001600160a01b031690638eaa6ac090602401602060405180830381865afa1580156111fd573d6000803e3d6000fd5b505050506040513d601f19601f820116820180604052508101906112219190615255565b60408051306024820152604480820186905282518083039091018152606490910182526020810180516001600160e01b03166376f466ff60e11b17905290516001600160a01b0392909216916112779190615272565b6000604051808303816000865af19150503d80600081146112b4576040519150601f19603f3d011682016040523d82523d6000602084013e6112b9565b606091505b5050905061072781610711565b60006112d53386868686610779565b95945050505050565b60006112e8611158565b156113055760405162461bcd60e51b81526004016107069061531a565b7f00000000000000000000000000000000000000000000000000000000000000006001600160a01b0316634635229b6040518163ffffffff1660e01b8152600401602060405180830381865afa158015611363573d6000803e3d6000fd5b505050506040513d601f19601f820116820180604052508101906113879190615233565b8061139a57506001600160a01b03881633145b6113b65760405162461bcd60e51b815260040161070690615431565b60405163c5537eb760e01b81526004810188905261080060248201527f00000000000000000000000000000000000000000000000000000000000000006001600160a01b03169063c5537eb790604401602060405180830381865afa158015611423573d6000803e3d6000fd5b505050506040513d601f19601f820116820180604052508101906114479190615233565b1561166457604051630c25e48360e11b8152600481018890526000907f00000000000000000000000000000000000000000000000000000000000000006001600160a01b03169063184bc90690602401602060405180830381865afa1580156114b4573d6000803e3d6000fd5b505050506040513d601f19601f820116820180604052508101906114d89190615255565b9050806001600160a01b031663f5ac9db66040518163ffffffff1660e01b8152600401602060405180830381865afa158015611518573d6000803e3d6000fd5b505050506040513d601f19601f8201168201806040525081019061153c9190615233565b61157d5760405162461bcd60e51b815260206004820152601260248201527146726f6d206e6f7420747261646561626c6560701b6044820152606401610706565b806001600160a01b0316630e4994276040518163ffffffff1660e01b8152600401602060405180830381865afa1580156115bb573d6000803e3d6000fd5b505050506040513d601f19601f820116820180604052508101906115df9190615233565b801561160b57507fad3228b676f7d3cd4284a5443f17f1962b36e491b30a40b2405849e597ba5fb58714155b6116625760405162461bcd60e51b815260206004820152602260248201527f46726f6d206973206f6e6c7920747261646561626c6520746f2043757272656e604482015261637960f01b6064820152608401610706565b505b60405163d47a7edd60e01b8152600481018890527f00000000000000000000000000000000000000000000000000000000000000006001600160a01b03169063d47a7edd90602401602060405180830381865afa1580156116c9573d6000803e3d6000fd5b505050506040513d601f19601f820116820180604052508101906116ed9190615233565b1580611700575083670de0b6b3a7640000145b8061170a57508385145b61176a5760405162461bcd60e51b815260206004820152602b60248201527f2746726f6d27206973204e46542071747920616e64206772616e756c6172697460448201526a79206d757374206265203160a81b6064820152608401610706565b60405163023aa9ab60e61b815260008051602061574f83398151915260048201527f00000000000000000000000000000000000000000000000000000000000000006001600160a01b031690638eaa6ac090602401602060405180830381865afa1580156117dc573d6000803e3d6000fd5b505050506040513d601f19601f820116820180604052508101906118009190615255565b604051634e68f20f60e11b8152600481018990526001600160a01b038a811660248301529190911690639cd1e41e90604401602060405180830381865afa15801561184f573d6000803e3d6000fd5b505050506040513d601f19601f820116820180604052508101906118739190615368565b8411156118c25760405162461bcd60e51b815260206004820152601a60248201527f42616e6b3a204e6f7420656e6f75676820617661696c61626c650000000000006044820152606401610706565b6040805161018081018252600080825260208201819052918101829052606081018290526080810182905260a0810182905260c0810182905260e081018290526101008101829052610120810182905261014081018290526101608101919091526001600160a01b0389811660208301526040516361e99ffb60e01b8152600481018a9052602481018990527f0000000000000000000000000000000000000000000000000000000000000000909116906361e99ffb906044016020604051808303816000875af115801561199b573d6000803e3d6000fd5b505050506040513d601f19601f820116820180604052508101906119bf9190615368565b81526119ca866109c3565b6001600160401b03166101208201526119e2856109c3565b6001600160401b031660a08201526119f9846109c3565b6001600160401b03166101008201526060810151604051635b7d0f6960e11b815260ff909116600482015273__$f7122df39a5f3bad28f404771cd5173291$__9063b6fa1ed290602401602060405180830381865af4158015611a60573d6000803e3d6000fd5b505050506040513d601f19601f82011682018060405250810190611a849190615233565b15611c095760405163023aa9ab60e61b81527f3cb99135f7a7c088d9085b446345038a22a85f4e8fe072b0e1b66d97243e745860048201526000907f00000000000000000000000000000000000000000000000000000000000000006001600160a01b031690638eaa6ac090602401602060405180830381865afa158015611b10573d6000803e3d6000fd5b505050506040513d601f19601f82011682018060405250810190611b349190615255565b6040516332f3077960e11b8152600481018b9052602481018a90526001600160a01b0391909116906365e60ef2906044016060604051808303816000875af1158015611b84573d6000803e3d6000fd5b505050506040513d601f19601f82011682018060405250810190611ba89190615381565b509150611bb69050816109c3565b6001600160401b03166101608301819052611c075760405162461bcd60e51b8152602060048201526011602482015270145d5bdd194e88139bdd081c5d5bdd1959607a1b6044820152606401610706565b505b606081015160405163f0340a3760e01b815260ff909116600482015273__$f7122df39a5f3bad28f404771cd5173291$__9063f0340a3790602401602060405180830381865af4158015611c61573d6000803e3d6000fd5b505050506040513d601f19601f82011682018060405250810190611c859190615233565b15611d885760405163023aa9ab60e61b815260008051602061574f83398151915260048201527f00000000000000000000000000000000000000000000000000000000000000006001600160a01b031690638eaa6ac090602401602060405180830381865afa158015611cfc573d6000803e3d6000fd5b505050506040513d601f19601f82011682018060405250810190611d209190615255565b6001600160a01b03166356a1fd3a88836020015130896040518563ffffffff1660e01b8152600401611d55949392919061547c565b600060405180830381600087803b158015611d6f57600080fd5b505af1158015611d83573d6000803e3d6000fd5b505050505b6003805460010190555b600354158015611db5575060035460009081526005602052604090206002015415155b15611dc857600380546001019055611d92565b6003546080820181905260a08201516001600160401b0390811660e08401526004604080850191825260ff871660608601526101008501519092166101408501526000928352600560208181529290932084518155918401516001830180546001600160a01b039092166001600160a01b031983168117825592518695909391926001600160a81b03191690911790600160a01b908490811115611e6e57611e6e614e48565b0217905550606082015160018201805460ff60a81b1916600160a81b60ff90931692909202919091179055608080830151600283015560a083015160038301805460c086015160e08701516101008801516001600160401b039586166fffffffffffffffffffffffffffffffff1994851617600160401b9387168402176fffffffffffffffffffffffffffffffff16600160801b92871683026001600160c01b031617600160c01b9187169190910217909355610120870151600496870180546101408a0151610160909a015167ffffffffffffffff60801b199388169190951617988616909202979097179690961692160217909255908201516040516304132f1d60e31b815280830192909252602482015273__$f71e59c5327218924d154e230469c101bd$__9063209978e890604401602060405180830381865af4158015611fbe573d6000803e3d6000fd5b505050506040513d601f19601f82011682018060405250810190611fe29190615233565b50805160009081526006602052604090819020608083015191516304132f1d60e31b815273__$f71e59c5327218924d154e230469c101bd$__9263209978e89261203a92909190600401918252602082015260400190565b602060405180830381865af4158015612057573d6000803e3d6000fd5b505050506040513d601f19601f8201168201806040525081019061207b9190615233565b5060008881526007602052604090819020608083015191516304132f1d60e31b815273__$f71e59c5327218924d154e230469c101bd$__9263209978e8926120d192909190600401918252602082015260400190565b602060405180830381865af41580156120ee573d6000803e3d6000fd5b505050506040513d601f19601f820116820180604052508101906121129190615233565b5060008781526008602052604090819020608083015191516304132f1d60e31b815273__$f71e59c5327218924d154e230469c101bd$__9263209978e89261216892909190600401918252602082015260400190565b602060405180830381865af4158015612185573d6000803e3d6000fd5b505050506040513d601f19601f820116820180604052508101906121a99190615233565b5080516121b590613d27565b5050600354979650505050505050565b600061075c6001600160401b0383166402540be4006152e5565b60405163023aa9ab60e61b81527f2e7a327ef83c2af7579c6634f2f5604519800c5f07626f27bd602fd11ed8e6ec600482015260009081906001600160a01b037f00000000000000000000000000000000000000000000000000000000000000001690638eaa6ac090602401602060405180830381865afa158015612268573d6000803e3d6000fd5b505050506040513d601f19601f8201168201806040525081019061228c9190615255565b604080513060248201526001600160a01b038c81166044830152606482018c9052608482018b905260a482018a905260c4820189905260e4820188905260ff8716610104808401919091528351808403909101815261012490920183526020820180516001600160e01b0316635330878160e11b179052915192909116916123149190615272565b6000604051808303816000865af19150503d8060008114612351576040519150601f19603f3d011682016040523d82523d6000602084013e612356565b606091505b5050905061236381610711565b50979650505050505050565b60405163509ff69b60e01b81526001600160a01b038781166004830152600060248301819052916124aa918a917f00000000000000000000000000000000000000000000000000000000000000009091169063509ff69b906044016020604051808303816000875af11580156123e9573d6000803e3d6000fd5b505050506040513d601f19601f8201168201806040525081019061240d9190615368565b60405163509ff69b60e01b81526001600160a01b038a81166004830152600060248301527f0000000000000000000000000000000000000000000000000000000000000000169063509ff69b906044015b6020604051808303816000875af115801561247d573d6000803e3d6000fd5b505050506040513d601f19601f820116820180604052508101906124a19190615368565b888888886121df565b98975050505050505050565b60405163509ff69b60e01b81526001600160a01b038981166004830152602482018990526000916125aa918c917f00000000000000000000000000000000000000000000000000000000000000009091169063509ff69b906044015b6020604051808303816000875af1158015612531573d6000803e3d6000fd5b505050506040513d601f19601f820116820180604052508101906125559190615368565b60405163509ff69b60e01b81526001600160a01b038b81166004830152602482018b90527f0000000000000000000000000000000000000000000000000000000000000000169063509ff69b9060440161245e565b9a9950505050505050505050565b6125c0612f34565b61070f6000805461ff001916610100179055565b600061262f3360405163509ff69b60e01b81526001600160a01b038c81166004830152602482018c90527f0000000000000000000000000000000000000000000000000000000000000000169063509ff69b90604401612512565b9998505050505050505050565b600061075c63ffffffff831664e8d4a510006152e5565b61265b611158565b156126785760405162461bcd60e51b81526004016107069061531a565b60006005600083815260200190815260200160002090507f00000000000000000000000000000000000000000000000000000000000000006001600160a01b0316634635229b6040518163ffffffff1660e01b8152600401602060405180830381865afa1580156126ed573d6000803e3d6000fd5b505050506040513d601f19601f820116820180604052508101906127119190615233565b80612728575060018101546001600160a01b031633145b6127445760405162461bcd60e51b815260040161070690615431565b61274f81600161378a565b61072781613c7c565b612760612f34565b6001600160a01b0381166127c55760405162461bcd60e51b815260206004820152602660248201527f4f776e61626c653a206e6577206f776e657220697320746865207a65726f206160448201526564647265737360d01b6064820152608401610706565b6127ce81612f95565b50565b600061075c64174876e800836152c3565b6127ea614cd1565b60008381526005602081815260408084208151610180810183528154815260018201546001600160a01b0381169482019490945293909291840191600160a01b900460ff169081111561283f5761283f614e48565b600581111561285057612850614e48565b81526001820154600160a81b900460ff166020820152600282015460408083019190915260038301546001600160401b038082166060850152600160401b80830482166080860152600160801b808404831660a0870152600160c01b909304821660c086015260049586015480831660e087015290810482166101008601529190910416610120909201919091528251905163657c7e0960e01b8152918201529091507f00000000000000000000000000000000000000000000000000000000000000006001600160a01b03169063657c7e09906024016040805180830381865afa158015612943573d6000803e3d6000fd5b505050506040513d601f19601f820116820180604052508101906129679190615344565b60408401526020830152608081015160608301528280612a00575060608101516040516336181b6760e11b815260ff909116600482015273__$f7122df39a5f3bad28f404771cd5173291$__90636c3036ce90602401602060405180830381865af41580156129da573d6000803e3d6000fd5b505050506040513d601f19601f820116820180604052508101906129fe9190615233565b155b15612e715760208101516001600160a01b0316825260a0810151612a23906121c5565b60808301526060810151604051632b2076e360e11b815260ff909116600482015273__$f7122df39a5f3bad28f404771cd5173291$__90635640edc690602401602060405180830381865af4158015612a80573d6000803e3d6000fd5b505050506040513d601f19601f82011682018060405250810190612aa49190615233565b15612ab857608082015160a0830152612bf2565b6101208101516001600160401b031615612ae457612ada8161012001516121c5565b60a0830152612bf2565b60405163023aa9ab60e61b815260008051602061574f83398151915260048201527f00000000000000000000000000000000000000000000000000000000000000006001600160a01b031690638eaa6ac090602401602060405180830381865afa158015612b56573d6000803e3d6000fd5b505050506040513d601f19601f82011682018060405250810190612b7a9190615255565b6001600160a01b031663a9bf985883602001516040518263ffffffff1660e01b8152600401612bab91815260200190565b602060405180830381865afa158015612bc8573d6000803e3d6000fd5b505050506040513d601f19601f82011682018060405250810190612bec9190615368565b60a08301525b612bff8160c001516121c5565b60c083015260e0810151612c12906121c5565b60e08301526060810151604051635b7d0f6960e11b815260ff909116600482015273__$f7122df39a5f3bad28f404771cd5173291$__9063b6fa1ed290602401602060405180830381865af4158015612c6f573d6000803e3d6000fd5b505050506040513d601f19601f82011682018060405250810190612c939190615233565b15612e5c57612ca68161014001516121c5565b610120830152610160810151612cbb906121c5565b61014083015260405163023aa9ab60e61b81527f3cb99135f7a7c088d9085b446345038a22a85f4e8fe072b0e1b66d97243e745860048201526000907f00000000000000000000000000000000000000000000000000000000000000006001600160a01b031690638eaa6ac090602401602060405180830381865afa158015612d48573d6000803e3d6000fd5b505050506040513d601f19601f82011682018060405250810190612d6c9190615255565b6001600160a01b0316636464b68a846020015185604001516040518363ffffffff1660e01b8152600401612daa929190918252602082015260400190565b606060405180830381865afa158015612dc7573d6000803e3d6000fd5b505050506040513d601f19601f82011682018060405250810190612deb9190615381565b5091505080612e305760405162461bcd60e51b8152602060048201526011602482015270145d5bdd194e88139bdd081c5d5bdd1959607a1b6044820152606401610706565b610140830151612e4090826152c3565b836101200151612e5091906152e5565b61010084015250612e71565b612e6a8161010001516121c5565b6101008301525b604051630212d6cb60e21b815273__$f7122df39a5f3bad28f404771cd5173291$__9063084b5b2c90612ea89084906004016154a1565b602060405180830381865af4158015612ec5573d6000803e3d6000fd5b505050506040513d601f19601f82011682018060405250810190612ee99190615368565b61016083015260408101516101808301906005811115612f0b57612f0b614e48565b90816005811115612f1e57612f1e614e48565b9052506060015160ff166101a082015292915050565b6000546001600160a01b036201000090910416331461070f5760405162461bcd60e51b815260206004820152601f60248201527f416c6c6f77616e63653a2063616c6c6572206d757374206265204f776e6572006044820152606401610706565b600080546001600160a01b038381166201000081810262010000600160b01b0319851617855560405193049190911692909183917f8be0079c531659141344cd1fd0a4f28419497f9722a3daafe3b4186f6b6457e091a35050565b60008080600080670de0b6b3a76400006130208a60030160189054906101000a90046001600160401b03166121c5565b61302a90886152e5565b61303491906152c3565b895460405163657c7e0960e01b815291925060009182916001600160a01b037f0000000000000000000000000000000000000000000000000000000000000000169163657c7e099161308c9160040190815260200190565b6040805180830381865afa1580156130a8573d6000803e3d6000fd5b505050506040513d601f19601f820116820180604052508101906130cc9190615344565b60018d015460405163f0340a3760e01b8152600160a81b90910460ff166004820152919350915073__$f7122df39a5f3bad28f404771cd5173291$__9063f0340a3790602401602060405180830381865af415801561312f573d6000803e3d6000fd5b505050506040513d601f19601f820116820180604052508101906131539190615233565b1561325b5760405163023aa9ab60e61b815260008051602061574f83398151915260048201527f00000000000000000000000000000000000000000000000000000000000000006001600160a01b031690638eaa6ac090602401602060405180830381865afa1580156131ca573d6000803e3d6000fd5b505050506040513d601f19601f820116820180604052508101906131ee9190615255565b60018c015460405163255318af60e21b81526001600160a01b039283169263954c62bc926132289287929091169030908e9060040161547c565b600060405180830381600087803b15801561324257600080fd5b505af1158015613256573d6000803e3d6000fd5b505050505b881561335b5760405163023aa9ab60e61b815260008051602061574f83398151915260048201527f00000000000000000000000000000000000000000000000000000000000000006001600160a01b031690638eaa6ac090602401602060405180830381865afa1580156132d3573d6000803e3d6000fd5b505050506040513d601f19601f820116820180604052508101906132f79190615255565b6001600160a01b031663954c62bc828c30876040518563ffffffff1660e01b8152600401613328949392919061547c565b600060405180830381600087803b15801561334257600080fd5b505af1158015613356573d6000803e3d6000fd5b505050505b85156134645760405163023aa9ab60e61b815260008051602061574f83398151915260048201527f00000000000000000000000000000000000000000000000000000000000000006001600160a01b031690638eaa6ac090602401602060405180830381865afa1580156133d3573d6000803e3d6000fd5b505050506040513d601f19601f820116820180604052508101906133f79190615255565b60018c0154604051631c9619a760e01b81526001600160a01b0392831692631c9619a792613431928792909116908c908c9060040161547c565b600060405180830381600087803b15801561344b57600080fd5b505af115801561345f573d6000803e3d6000fd5b505050505b83156135645760405163023aa9ab60e61b815260008051602061574f83398151915260048201527f00000000000000000000000000000000000000000000000000000000000000006001600160a01b031690638eaa6ac090602401602060405180830381865afa1580156134dc573d6000803e3d6000fd5b505050506040513d601f19601f820116820180604052508101906135009190615255565b6001600160a01b0316631c9619a7828c88886040518563ffffffff1660e01b8152600401613531949392919061547c565b600060405180830381600087803b15801561354b57600080fd5b505af115801561355f573d6000803e3d6000fd5b505050505b60405163023aa9ab60e61b815260008051602061574f83398151915260048201527f00000000000000000000000000000000000000000000000000000000000000006001600160a01b031690638eaa6ac090602401602060405180830381865afa1580156135d6573d6000803e3d6000fd5b505050506040513d601f19601f820116820180604052508101906135fa9190615255565b60018c01546001600160a01b0391821691631c9619a7918591168d61361f8b8e6153af565b6040518563ffffffff1660e01b815260040161363e949392919061547c565b600060405180830381600087803b15801561365857600080fd5b505af115801561366c573d6000803e3d6000fd5b505060405163023aa9ab60e61b815260008051602061574f83398151915260048201527f00000000000000000000000000000000000000000000000000000000000000006001600160a01b03169250638eaa6ac09150602401602060405180830381865afa1580156136e2573d6000803e3d6000fd5b505050506040513d601f19601f820116820180604052508101906137069190615255565b60018c01546001600160a01b0391821691631c9619a79184918e911661372c89896153af565b6040518563ffffffff1660e01b815260040161374b949392919061547c565b600060405180830381600087803b15801561376557600080fd5b505af1158015613779573d6000803e3d6000fd5b505050505050505050505050505050565b600081600581111561379e5761379e614e48565b1180156137bd575060038160058111156137ba576137ba614e48565b11155b80156137e9575060046001830154600160a01b900460ff1660058111156137e6576137e6614e48565b10155b6138355760405162461bcd60e51b815260206004820152601d60248201527f5f6f726465725465726d696e6174652073746174652070726f626c656d0000006044820152606401610706565b815460405163657c7e0960e01b8152600481019190915260009081907f00000000000000000000000000000000000000000000000000000000000000006001600160a01b03169063657c7e09906024016040805180830381865afa1580156138a1573d6000803e3d6000fd5b505050506040513d601f19601f820116820180604052508101906138c59190615344565b600186018054929450909250849160ff60a01b1916600160a01b8360058111156138f1576138f1614e48565b0217905550600184015460405163f0340a3760e01b8152600160a81b90910460ff16600482015273__$f7122df39a5f3bad28f404771cd5173291$__9063f0340a3790602401602060405180830381865af4158015613954573d6000803e3d6000fd5b505050506040513d601f19601f820116820180604052508101906139789190615233565b15613aaf5760405163023aa9ab60e61b815260008051602061574f83398151915260048201527f00000000000000000000000000000000000000000000000000000000000000006001600160a01b031690638eaa6ac090602401602060405180830381865afa1580156139ef573d6000803e3d6000fd5b505050506040513d601f19601f82011682018060405250810190613a139190615255565b600185015460038601546001600160a01b039283169263954c62bc9285929116903090613a5d90610464906001600160401b03600160401b8204811691600160801b9004166153de565b6040518563ffffffff1660e01b8152600401613a7c949392919061547c565b600060405180830381600087803b158015613a9657600080fd5b505af1158015613aaa573d6000803e3d6000fd5b505050505b83546000908152600660205260409081902060028601549151630cef945b60e31b815273__$f71e59c5327218924d154e230469c101bd$__9263677ca2d892613b0692909190600401918252602082015260400190565b602060405180830381865af4158015613b23573d6000803e3d6000fd5b505050506040513d601f19601f82011682018060405250810190613b479190615233565b506000828152600760205260409081902060028601549151630cef945b60e31b815273__$f71e59c5327218924d154e230469c101bd$__9263677ca2d892613b9d92909190600401918252602082015260400190565b602060405180830381865af4158015613bba573d6000803e3d6000fd5b505050506040513d601f19601f82011682018060405250810190613bde9190615233565b506000818152600860205260409081902060028601549151630cef945b60e31b815273__$f71e59c5327218924d154e230469c101bd$__9263677ca2d892613c3492909190600401918252602082015260400190565b602060405180830381865af4158015613c51573d6000803e3d6000fd5b505050506040513d601f19601f82011682018060405250810190613c759190615233565b5050505050565b6002810154604051630cef945b60e31b8152600480820152602481019190915273__$f71e59c5327218924d154e230469c101bd$__9063677ca2d890604401602060405180830381865af4158015613cd8573d6000803e3d6000fd5b505050506040513d601f19601f82011682018060405250810190613cfc9190615233565b5043600090815260096020908152604082206002909301548354600181018555938352912090910155565b604051630e29a66960e21b8152600481018290526001600160a01b037f000000000000000000000000000000000000000000000000000000000000000016906338a699a490602401602060405180830381865afa158015613d8c573d6000803e3d6000fd5b505050506040513d601f19601f82011682018060405250810190613db09190615233565b613db75750565b60405163657c7e0960e01b81526004810182905260009081906001600160a01b037f0000000000000000000000000000000000000000000000000000000000000000169063657c7e09906024016040805180830381865afa158015613e20573d6000803e3d6000fd5b505050506040513d601f19601f82011682018060405250810190613e449190615344565b91509150613e5282846108f2565b15613e5c57505050565b6000818152600160209081526040808320805482518185028101850190935280835260609493830182828015613eb157602002820191906000526020600020905b815481526020019060010190808311613e9d575b5050505050905080516001600160401b03811115613ed157613ed1615590565b604051908082528060200260200182016040528015613f0457816020015b6060815260200190600190039081613eef5790505b5091506000805b82518110156140805760007f00000000000000000000000000000000000000000000000000000000000000006001600160a01b03166327ee9dc2858481518110613f5757613f576155a6565b60200260200101516040518263ffffffff1660e01b8152600401613f7d91815260200190565b600060405180830381865afa158015613f9a573d6000803e3d6000fd5b505050506040513d6000823e601f3d908101601f19168201604052613fc291908101906155bc565b604051639d84366d60e01b815290915073__$f71e59c5327218924d154e230469c101bd$__90639d84366d90613ffe9084908b906004016156a8565b602060405180830381865af415801561401b573d6000803e3d6000fd5b505050506040513d601f19601f8201168201806040525081019061403f9190615233565b61406d5780858461404f816156ca565b955081518110614061576140616155a6565b60200260200101819052505b5080614078816156ca565b915050613f0b565b5082525060008381526002602090815260408083208054825181850281018501909352808352606094938301828280156140d957602002820191906000526020600020905b8154815260200190600101908083116140c5575b5050505050905080516001600160401b038111156140f9576140f9615590565b60405190808252806020026020018201604052801561412c57816020015b60608152602001906001900390816141175790505b5091506000805b82518110156142a85760007f00000000000000000000000000000000000000000000000000000000000000006001600160a01b03166327ee9dc285848151811061417f5761417f6155a6565b60200260200101516040518263ffffffff1660e01b81526004016141a591815260200190565b600060405180830381865afa1580156141c2573d6000803e3d6000fd5b505050506040513d6000823e601f3d908101601f191682016040526141ea91908101906155bc565b604051639d84366d60e01b815290915073__$f71e59c5327218924d154e230469c101bd$__90639d84366d906142269084908b906004016156a8565b602060405180830381865af4158015614243573d6000803e3d6000fd5b505050506040513d601f19601f820116820180604052508101906142679190615233565b61429557808584614277816156ca565b955081518110614289576142896155a6565b60200260200101819052505b50806142a0816156ca565b915050614133565b508252506000848152600160205260409081902090516316061a7160e21b815260048101919091526024810186905273__$f71e59c5327218924d154e230469c101bd$__9063581869c490604401602060405180830381865af4158015614313573d6000803e3d6000fd5b505050506040513d601f19601f820116820180604052508101906143379190615233565b506000838152600260205260409081902090516316061a7160e21b815260048101919091526024810186905273__$f71e59c5327218924d154e230469c101bd$__9063581869c490604401602060405180830381865af415801561439f573d6000803e3d6000fd5b505050506040513d601f19601f820116820180604052508101906143c39190615233565b5060005b81518110156146535760008282815181106143e4576143e46155a6565b602002602001015173__$f71e59c5327218924d154e230469c101bd$__639b861f039091876040518363ffffffff1660e01b81526004016144269291906156a8565b600060405180830381865af4158015614443573d6000803e3d6000fd5b505050506040513d6000823e601f3d908101601f1916820160405261446b91908101906155bc565b905060007f00000000000000000000000000000000000000000000000000000000000000006001600160a01b031663b3054383836040518263ffffffff1660e01b81526004016144bb91906156e5565b6020604051808303816000875af11580156144da573d6000803e3d6000fd5b505050506040513d601f19601f820116820180604052508101906144fe9190615368565b90506001600083600081518110614517576145176155a6565b6020026020010151815260200190815260200160002073__$f71e59c5327218924d154e230469c101bd$__63581869c49091836040518363ffffffff1660e01b8152600401614570929190918252602082015260400190565b602060405180830381865af415801561458d573d6000803e3d6000fd5b505050506040513d601f19601f820116820180604052508101906145b19190615233565b506000868152600260205260409081902090516316061a7160e21b815260048101919091526024810182905273__$f71e59c5327218924d154e230469c101bd$__9063581869c490604401602060405180830381865af4158015614619573d6000803e3d6000fd5b505050506040513d601f19601f8201168201806040525081019061463d9190615233565b505050808061464b906156ca565b9150506143c7565b5060005b82518110156148f5576000838281518110614674576146746155a6565b602002602001015173__$f71e59c5327218924d154e230469c101bd$__633b06e74f9091886040518363ffffffff1660e01b81526004016146b69291906156a8565b600060405180830381865af41580156146d3573d6000803e3d6000fd5b505050506040513d6000823e601f3d908101601f191682016040526146fb91908101906155bc565b905060007f00000000000000000000000000000000000000000000000000000000000000006001600160a01b031663b3054383836040518263ffffffff1660e01b815260040161474b91906156e5565b6020604051808303816000875af115801561476a573d6000803e3d6000fd5b505050506040513d601f19601f8201168201806040525081019061478e9190615368565b6000888152600160205260409081902090516316061a7160e21b815291925073__$f71e59c5327218924d154e230469c101bd$__9163581869c4916147e0918590600401918252602082015260400190565b602060405180830381865af41580156147fd573d6000803e3d6000fd5b505050506040513d601f19601f820116820180604052508101906148219190615233565b5060026000836001855161483591906153af565b81518110614845576148456155a6565b6020026020010151815260200190815260200160002073__$f71e59c5327218924d154e230469c101bd$__63581869c49091836040518363ffffffff1660e01b815260040161489e929190918252602082015260400190565b602060405180830381865af41580156148bb573d6000803e3d6000fd5b505050506040513d601f19601f820116820180604052508101906148df9190615233565b50505080806148ed906156ca565b915050614657565b5060005b8151811015614cc95760005b8351811015614cb6576000848281518110614922576149226155a6565b602002602001015190506000848381518110614940576149406155a6565b6020026020010151905060005b8251811015614a07578173__$f71e59c5327218924d154e230469c101bd$__639d84366d9091858481518110614985576149856155a6565b60200260200101516040518363ffffffff1660e01b81526004016149aa9291906156a8565b602060405180830381865af41580156149c7573d6000803e3d6000fd5b505050506040513d601f19601f820116820180604052508101906149eb9190615233565b156149f557614a07565b806149ff816156ca565b91505061494d565b8251811015614a1857505050614ca4565b6040516302704ae960e31b815260009073__$f71e59c5327218924d154e230469c101bd$__90631382574890614a549087908790600401615729565b600060405180830381865af4158015614a71573d6000803e3d6000fd5b505050506040513d6000823e601f3d908101601f19168201604052614a9991908101906155bc565b905060007f00000000000000000000000000000000000000000000000000000000000000006001600160a01b031663b3054383836040518263ffffffff1660e01b8152600401614ae991906156e5565b6020604051808303816000875af1158015614b08573d6000803e3d6000fd5b505050506040513d601f19601f82011682018060405250810190614b2c9190615368565b90506001600083600081518110614b4557614b456155a6565b6020026020010151815260200190815260200160002073__$f71e59c5327218924d154e230469c101bd$__63581869c49091836040518363ffffffff1660e01b8152600401614b9e929190918252602082015260400190565b602060405180830381865af4158015614bbb573d6000803e3d6000fd5b505050506040513d601f19601f82011682018060405250810190614bdf9190615233565b50600260008360018551614bf391906153af565b81518110614c0357614c036155a6565b6020026020010151815260200190815260200160002073__$f71e59c5327218924d154e230469c101bd$__63581869c49091836040518363ffffffff1660e01b8152600401614c5c929190918252602082015260400190565b602060405180830381865af4158015614c79573d6000803e3d6000fd5b505050506040513d601f19601f82011682018060405250810190614c9d9190615233565b5050505050505b80614cae816156ca565b915050614905565b5080614cc1816156ca565b9150506148f9565b505050505050565b604051806101c0016040528060006001600160a01b03168152602001600080191681526020016000801916815260200160008152602001600081526020016000815260200160008152602001600081526020016000815260200160008152602001600081526020016000815260200160006005811115614d5357614d53614e48565b8152600060209091015290565b60008085851115614d7057600080fd5b83861115614d7d57600080fd5b5050820193919092039150565b600060208284031215614d9c57600080fd5b81356001600160e01b03198116811461097c57600080fd5b6001600160a01b03811681146127ce57600080fd5b600080600080600060a08688031215614de157600080fd5b8535614dec81614db4565b97602087013597506040870135966060810135965060800135945092505050565b60008060408385031215614e2057600080fd5b50508035926020909101359150565b600060208284031215614e4157600080fd5b5035919050565b634e487b7160e01b600052602160045260246000fd5b60068110614e7c57634e487b7160e01b600052602160045260246000fd5b9052565b81516001600160a01b031681526101c081016020830151602083015260408301516040830152606083015160608301526080830151608083015260a083015160a083015260c083015160c083015260e083015160e083015261010080840151818401525061012080840151818401525061014080840151818401525061016080840151818401525061018080840151614f1b82850182614e5e565b50506101a08381015160ff8116848301525b505092915050565b600060208284031215614f4757600080fd5b813561097c81614db4565b803560ff81168114614f6357600080fd5b919050565b60008060008060008060c08789031215614f8157600080fd5b8635955060208701359450604087013593506060870135925060808701359150614fad60a08801614f52565b90509295509295509295565b600060208284031215614fcb57600080fd5b813565ffffffffffff8116811461097c57600080fd5b60008060008060808587031215614ff757600080fd5b5050823594602084013594506040840135936060013592509050565b600080600080600080600060e0888a03121561502e57600080fd5b873561503981614db4565b96506020880135955060408801359450606088013593506080880135925060a0880135915061506a60c08901614f52565b905092959891949750929550565b60006020828403121561508a57600080fd5b81356001600160401b038116811461097c57600080fd5b600080600080600080600060e0888a0312156150bc57600080fd5b87356150c781614db4565b965060208801356150d781614db4565b955060408801356150e781614db4565b9450606088013593506080880135925060a0880135915061506a60c08901614f52565b60008060008060008060008060006101208a8c03121561512957600080fd5b893561513481614db4565b985060208a013561514481614db4565b975060408a0135965060608a013561515b81614db4565b955060808a0135945060a08a0135935060c08a0135925060e08a013591506151866101008b01614f52565b90509295985092959850929598565b600080600080600080600080610100898b0312156151b257600080fd5b88356151bd81614db4565b97506020890135965060408901356151d481614db4565b9550606089013594506080890135935060a0890135925060c089013591506151fe60e08a01614f52565b90509295985092959890939650565b60006020828403121561521f57600080fd5b813563ffffffff8116811461097c57600080fd5b60006020828403121561524557600080fd5b8151801515811461097c57600080fd5b60006020828403121561526757600080fd5b815161097c81614db4565b6000825160005b818110156152935760208186018101518583015201615279565b818111156152a2576000828501525b509190910192915050565b634e487b7160e01b600052601160045260246000fd5b6000826152e057634e487b7160e01b600052601260045260246000fd5b500490565b60008160001904831182151516156152ff576152ff6152ad565b500290565b634e487b7160e01b600052600160045260246000fd5b60208082526010908201526f10dbdb9d1c9858dd081cdd1bdc1c195960821b604082015260600190565b6000806040838503121561535757600080fd5b505080516020909101519092909150565b60006020828403121561537a57600080fd5b5051919050565b60008060006060848603121561539657600080fd5b8351925060208401519150604084015190509250925092565b6000828210156153c1576153c16152ad565b500390565b600082198211156153d9576153d96152ad565b500190565b60006001600160401b03838116908316818110156153fe576153fe6152ad565b039392505050565b60006001600160401b03808316818516808303821115615428576154286152ad565b01949350505050565b6020808252602b908201527f4d757374206265206163636f756e743d3d5f6d736753656e646572206f72204d60408201526a6f64652054657374696e6760a81b606082015260800190565b9384526001600160a01b03928316602085015291166040830152606082015260800190565b815181526020808301516101808301916154c5908401826001600160a01b03169052565b5060408301516154d86040840182614e5e565b5060608301516154ed606084018260ff169052565b506080830151608083015260a083015161551260a08401826001600160401b03169052565b5060c083015161552d60c08401826001600160401b03169052565b5060e083015161554860e08401826001600160401b03169052565b50610100838101516001600160401b03908116918401919091526101208085015182169084015261014080850151821690840152610160808501519182168185015290614f2d565b634e487b7160e01b600052604160045260246000fd5b634e487b7160e01b600052603260045260246000fd5b600060208083850312156155cf57600080fd5b82516001600160401b03808211156155e657600080fd5b818501915085601f8301126155fa57600080fd5b81518181111561560c5761560c615590565b8060051b604051601f19603f8301168101818110858211171561563157615631615590565b60405291825284820192508381018501918883111561564f57600080fd5b938501935b828510156124aa57845184529385019392850192615654565b600081518084526020808501945080840160005b8381101561569d57815187529582019590820190600101615681565b509495945050505050565b6040815260006156bb604083018561566d565b90508260208301529392505050565b60006000198214156156de576156de6152ad565b5060010190565b6020808252825182820181905260009190848201906040850190845b8181101561571d57835183529284019291840191600101615701565b50909695505050505050565b60408152600061573c604083018561566d565b82810360208401526112d5818561566d56fecd775f2396f9f13f12bcf8ca32e21df66559a8adc3944d0591127e7731f7ab85a2646970667358221220669a8955d7f4bf60187d51790f72d28918d9d03c425258194f6486d4f9bf860164736f6c634300080b0033","language":"Solidity","natspec":{"methods":{"ownerOf()":{"details":"Returns the address of the current owner."},"renounceOwnership()":{"details":"Leaves the contract without owner. It will not be possible to call `onlyOwner` functions anymore. Can only be called by the current owner. NOTE: Renouncing ownership will leave the contract without an owner, thereby removing any functionality that is only available to the owner."},"supportsInterface(bytes4)":{"details":"Returns true if this contract implements the interface defined by `interfaceId`. See the corresponding https://eips.ethereum.org/EIPS/eip-165#how-interfaces-are-identified[EIP section] to learn more about how these ids are created. This function call must use less than 30 000 gas."},"transferOwnership(address)":{"details":"Transfers ownership of the contract to a new account (`newOwner`). Can only be called by the current owner."}},"kind":"dev","version":1},"opcodes":"PUSH1 0x80 PUSH1 0x40 MSTORE CALLVALUE DUP1 ISZERO PUSH2 0x10 JUMPI PUSH1 0x0 DUP1 REVERT JUMPDEST POP PUSH1 0x4 CALLDATASIZE LT PUSH2 0x1E5 JUMPI PUSH1 0x0 CALLDATALOAD PUSH1 0xE0 SHR DUP1 PUSH4 0x97962076 GT PUSH2 0x10F JUMPI DUP1 PUSH4 0xC34FA842 GT PUSH2 0xA2 JUMPI DUP1 PUSH4 0xE4B16144 GT PUSH2 0x71 JUMPI DUP1 PUSH4 0xE4B16144 EQ PUSH2 0x4E4 JUMPI DUP1 PUSH4 0xEDE8CDFE EQ PUSH2 0x4F7 JUMPI DUP1 PUSH4 0xF2FDE38B EQ PUSH2 0x50A JUMPI DUP1 PUSH4 0xFEAB4454 EQ PUSH2 0x51D JUMPI PUSH2 0x1E5 JUMP JUMPDEST DUP1 PUSH4 0xC34FA842 EQ PUSH2 0x48F JUMPI DUP1 PUSH4 0xCCC07959 EQ PUSH2 0x4A2 JUMPI DUP1 PUSH4 0xD6935858 EQ PUSH2 0x4C9 JUMPI DUP1 PUSH4 0xE2D7E08E EQ PUSH2 0x4D1 JUMPI PUSH2 0x1E5 JUMP JUMPDEST DUP1 PUSH4 0xAF640D0F GT PUSH2 0xDE JUMPI DUP1 PUSH4 0xAF640D0F EQ PUSH2 0x430 JUMPI DUP1 PUSH4 0xB03FD40D EQ PUSH2 0x456 JUMPI DUP1 PUSH4 0xB23A43FC EQ PUSH2 0x469 JUMPI DUP1 PUSH4 0xB791F8A0 EQ PUSH2 0x47C JUMPI PUSH2 0x1E5 JUMP JUMPDEST DUP1 PUSH4 0x97962076 EQ PUSH2 0x3E7 JUMPI DUP1 PUSH4 0x9BC896F9 EQ PUSH2 0x3F7 JUMPI DUP1 PUSH4 0xA5EF794A EQ PUSH2 0x40A JUMPI DUP1 PUSH4 0xA6610F02 EQ PUSH2 0x41D JUMPI PUSH2 0x1E5 JUMP JUMPDEST DUP1 PUSH4 0x5C42B710 GT PUSH2 0x187 JUMPI DUP1 PUSH4 0x7A70482C GT PUSH2 0x156 JUMPI DUP1 PUSH4 0x7A70482C EQ PUSH2 0x38E JUMPI DUP1 PUSH4 0x7AF6649A EQ PUSH2 0x3A1 JUMPI DUP1 PUSH4 0x854BA99D EQ PUSH2 0x3B4 JUMPI DUP1 PUSH4 0x8DA5CB5B EQ PUSH2 0x3BC JUMPI PUSH2 0x1E5 JUMP JUMPDEST DUP1 PUSH4 0x5C42B710 EQ PUSH2 0x340 JUMPI DUP1 PUSH4 0x62965141 EQ PUSH2 0x353 JUMPI DUP1 PUSH4 0x715018A6 EQ PUSH2 0x37E JUMPI DUP1 PUSH4 0x72EA61BF EQ PUSH2 0x386 JUMPI PUSH2 0x1E5 JUMP JUMPDEST DUP1 PUSH4 0x1EF4590D GT PUSH2 0x1C3 JUMPI DUP1 PUSH4 0x1EF4590D EQ PUSH2 0x2BD JUMPI DUP1 PUSH4 0x21603F43 EQ PUSH2 0x2D0 JUMPI DUP1 PUSH4 0x2203616D EQ PUSH2 0x2F0 JUMPI DUP1 PUSH4 0x2F54BF6E EQ PUSH2 0x318 JUMPI PUSH2 0x1E5 JUMP JUMPDEST DUP1 PUSH4 0x1FFC9A7 EQ PUSH2 0x26A JUMPI DUP1 PUSH4 0x5D6BD9C EQ PUSH2 0x292 JUMPI DUP1 PUSH4 0xAF077BF EQ PUSH2 0x29C JUMPI JUMPDEST PUSH2 0x1ED PUSH2 0x547 JUMP JUMPDEST PUSH1 0x0 PUSH2 0x1FD PUSH1 0x24 PUSH1 0x4 CALLDATASIZE DUP5 PUSH2 0x4D60 JUMP JUMPDEST DUP1 DUP1 PUSH1 0x1F ADD PUSH1 0x20 DUP1 SWAP2 DIV MUL PUSH1 0x20 ADD PUSH1 0x40 MLOAD SWAP1 DUP2 ADD PUSH1 0x40 MSTORE DUP1 SWAP4 SWAP3 SWAP2 SWAP1 DUP2 DUP2 MSTORE PUSH1 0x20 ADD DUP4 DUP4 DUP1 DUP3 DUP5 CALLDATACOPY PUSH1 0x0 SWAP3 ADD DUP3 SWAP1 MSTORE POP PUSH1 0x20 DUP6 ADD MLOAD SWAP5 SWAP6 POP SWAP3 POP POP CALLDATASIZE PUSH1 0x23 NOT DUP2 ADD SWAP2 POP PUSH1 0x1F NOT ADD PUSH1 0x4 DUP4 DUP1 CALLDATACOPY DUP2 PUSH1 0x24 PUSH1 0x4 CALLDATACOPY PUSH1 0x0 DUP1 DUP3 PUSH1 0x0 DUP8 GAS DELEGATECALL SWAP3 POP POP POP PUSH2 0x265 DUP2 PUSH2 0x711 JUMP JUMPDEST POP POP POP STOP JUMPDEST PUSH2 0x27D PUSH2 0x278 CALLDATASIZE PUSH1 0x4 PUSH2 0x4D8A JUMP JUMPDEST PUSH2 0x72B JUMP JUMPDEST PUSH1 0x40 MLOAD SWAP1 ISZERO ISZERO DUP2 MSTORE PUSH1 0x20 ADD JUMPDEST PUSH1 0x40 MLOAD DUP1 SWAP2 SUB SWAP1 RETURN JUMPDEST PUSH2 0x29A PUSH2 0x762 JUMP JUMPDEST STOP JUMPDEST PUSH2 0x2AF PUSH2 0x2AA CALLDATASIZE PUSH1 0x4 PUSH2 0x4DC9 JUMP JUMPDEST PUSH2 0x779 JUMP JUMPDEST PUSH1 0x40 MLOAD SWAP1 DUP2 MSTORE PUSH1 0x20 ADD PUSH2 0x289 JUMP JUMPDEST PUSH2 0x27D PUSH2 0x2CB CALLDATASIZE PUSH1 0x4 PUSH2 0x4E0D JUMP JUMPDEST PUSH2 0x8F2 JUMP JUMPDEST PUSH2 0x2E3 PUSH2 0x2DE CALLDATASIZE PUSH1 0x4 PUSH2 0x4E2F JUMP JUMPDEST PUSH2 0x983 JUMP JUMPDEST PUSH1 0x40 MLOAD PUSH2 0x289 SWAP2 SWAP1 PUSH2 0x4E80 JUMP JUMPDEST PUSH2 0x303 PUSH2 0x2FE CALLDATASIZE PUSH1 0x4 PUSH2 0x4E2F JUMP JUMPDEST PUSH2 0x996 JUMP JUMPDEST PUSH1 0x40 MLOAD PUSH4 0xFFFFFFFF SWAP1 SWAP2 AND DUP2 MSTORE PUSH1 0x20 ADD PUSH2 0x289 JUMP JUMPDEST PUSH2 0x27D PUSH2 0x326 CALLDATASIZE PUSH1 0x4 PUSH2 0x4F35 JUMP JUMPDEST PUSH1 0x0 SLOAD PUSH3 0x10000 SWAP1 DIV PUSH1 0x1 PUSH1 0x1 PUSH1 0xA0 SHL SUB SWAP1 DUP2 AND SWAP2 AND EQ SWAP1 JUMP JUMPDEST PUSH2 0x2AF PUSH2 0x34E CALLDATASIZE PUSH1 0x4 PUSH2 0x4F68 JUMP JUMPDEST PUSH2 0x9A7 JUMP JUMPDEST PUSH2 0x366 PUSH2 0x361 CALLDATASIZE PUSH1 0x4 PUSH2 0x4E2F JUMP JUMPDEST PUSH2 0x9C3 JUMP JUMPDEST PUSH1 0x40 MLOAD PUSH1 0x1 PUSH1 0x1 PUSH1 0x40 SHL SUB SWAP1 SWAP2 AND DUP2 MSTORE PUSH1 0x20 ADD PUSH2 0x289 JUMP JUMPDEST PUSH2 0x29A PUSH2 0x9F5 JUMP JUMPDEST PUSH2 0x29A PUSH2 0xA07 JUMP JUMPDEST PUSH2 0x2AF PUSH2 0x39C CALLDATASIZE PUSH1 0x4 PUSH2 0x4DC9 JUMP JUMPDEST PUSH2 0xA21 JUMP JUMPDEST PUSH2 0x2AF PUSH2 0x3AF CALLDATASIZE PUSH1 0x4 PUSH2 0x4FB9 JUMP JUMPDEST PUSH2 0x113F JUMP JUMPDEST PUSH2 0x27D PUSH2 0x1158 JUMP JUMPDEST PUSH1 0x0 SLOAD PUSH3 0x10000 SWAP1 DIV PUSH1 0x1 PUSH1 0x1 PUSH1 0xA0 SHL SUB AND JUMPDEST PUSH1 0x40 MLOAD PUSH1 0x1 PUSH1 0x1 PUSH1 0xA0 SHL SUB SWAP1 SWAP2 AND DUP2 MSTORE PUSH1 0x20 ADD PUSH2 0x289 JUMP JUMPDEST PUSH1 0x0 SLOAD PUSH2 0x100 SWAP1 DIV PUSH1 0xFF AND PUSH2 0x27D JUMP JUMPDEST PUSH2 0x29A PUSH2 0x405 CALLDATASIZE PUSH1 0x4 PUSH2 0x4E2F JUMP JUMPDEST PUSH2 0x1176 JUMP JUMPDEST PUSH2 0x2AF PUSH2 0x418 CALLDATASIZE PUSH1 0x4 PUSH2 0x4FE1 JUMP JUMPDEST PUSH2 0x12C6 JUMP JUMPDEST PUSH2 0x2AF PUSH2 0x42B CALLDATASIZE PUSH1 0x4 PUSH2 0x5013 JUMP JUMPDEST PUSH2 0x12DE JUMP JUMPDEST PUSH32 0xC79A5C5E1C7F6FAB1E75AB0E20E9522AA9EB363A0C70072C6DCB8A20F4A46AE4 PUSH2 0x2AF JUMP JUMPDEST PUSH2 0x2AF PUSH2 0x464 CALLDATASIZE PUSH1 0x4 PUSH2 0x5078 JUMP JUMPDEST PUSH2 0x21C5 JUMP JUMPDEST PUSH2 0x2AF PUSH2 0x477 CALLDATASIZE PUSH1 0x4 PUSH2 0x5013 JUMP JUMPDEST PUSH2 0x21DF JUMP JUMPDEST PUSH2 0x2AF PUSH2 0x48A CALLDATASIZE PUSH1 0x4 PUSH2 0x50A1 JUMP JUMPDEST PUSH2 0x236F JUMP JUMPDEST PUSH2 0x2AF PUSH2 0x49D CALLDATASIZE PUSH1 0x4 PUSH2 0x510A JUMP JUMPDEST PUSH2 0x24B6 JUMP JUMPDEST PUSH2 0x3CF PUSH32 0x0 DUP2 JUMP JUMPDEST PUSH2 0x29A PUSH2 0x25B8 JUMP JUMPDEST PUSH2 0x2AF PUSH2 0x4DF CALLDATASIZE PUSH1 0x4 PUSH2 0x5195 JUMP JUMPDEST PUSH2 0x25D4 JUMP JUMPDEST PUSH2 0x2AF PUSH2 0x4F2 CALLDATASIZE PUSH1 0x4 PUSH2 0x520D JUMP JUMPDEST PUSH2 0x263C JUMP JUMPDEST PUSH2 0x29A PUSH2 0x505 CALLDATASIZE PUSH1 0x4 PUSH2 0x4E2F JUMP JUMPDEST PUSH2 0x2653 JUMP JUMPDEST PUSH2 0x29A PUSH2 0x518 CALLDATASIZE PUSH1 0x4 PUSH2 0x4F35 JUMP JUMPDEST PUSH2 0x2758 JUMP JUMPDEST PUSH2 0x530 PUSH2 0x52B CALLDATASIZE PUSH1 0x4 PUSH2 0x4E2F JUMP JUMPDEST PUSH2 0x27D1 JUMP JUMPDEST PUSH1 0x40 MLOAD PUSH6 0xFFFFFFFFFFFF SWAP1 SWAP2 AND DUP2 MSTORE PUSH1 0x20 ADD PUSH2 0x289 JUMP JUMPDEST PUSH1 0x0 SLOAD PUSH1 0x1 PUSH1 0x1 PUSH1 0xA0 SHL SUB PUSH3 0x10000 SWAP1 SWAP2 DIV AND CALLER EQ DUP1 PUSH2 0x5FA JUMPI POP PUSH1 0x1 PUSH1 0x1 PUSH1 0xA0 SHL SUB PUSH32 0x0 AND PUSH4 0x16279055 CALLER PUSH1 0x40 MLOAD PUSH1 0x1 PUSH1 0x1 PUSH1 0xE0 SHL SUB NOT PUSH1 0xE0 DUP5 SWAP1 SHL AND DUP2 MSTORE PUSH1 0x1 PUSH1 0x1 PUSH1 0xA0 SHL SUB SWAP1 SWAP2 AND PUSH1 0x4 DUP3 ADD MSTORE PUSH1 0x24 ADD PUSH1 0x20 PUSH1 0x40 MLOAD DUP1 DUP4 SUB DUP2 DUP7 GAS STATICCALL ISZERO DUP1 ISZERO PUSH2 0x5D6 JUMPI RETURNDATASIZE PUSH1 0x0 DUP1 RETURNDATACOPY RETURNDATASIZE PUSH1 0x0 REVERT JUMPDEST POP POP POP POP PUSH1 0x40 MLOAD RETURNDATASIZE PUSH1 0x1F NOT PUSH1 0x1F DUP3 ADD AND DUP3 ADD DUP1 PUSH1 0x40 MSTORE POP DUP2 ADD SWAP1 PUSH2 0x5FA SWAP2 SWAP1 PUSH2 0x5233 JUMP JUMPDEST DUP1 PUSH2 0x698 JUMPI POP PUSH1 0x1 PUSH1 0x1 PUSH1 0xA0 SHL SUB PUSH32 0x0 AND PUSH4 0x6D70F7AE CALLER PUSH1 0x40 MLOAD PUSH1 0x1 PUSH1 0x1 PUSH1 0xE0 SHL SUB NOT PUSH1 0xE0 DUP5 SWAP1 SHL AND DUP2 MSTORE PUSH1 0x1 PUSH1 0x1 PUSH1 0xA0 SHL SUB SWAP1 SWAP2 AND PUSH1 0x4 DUP3 ADD MSTORE PUSH1 0x24 ADD PUSH1 0x20 PUSH1 0x40 MLOAD DUP1 DUP4 SUB DUP2 DUP7 GAS STATICCALL ISZERO DUP1 ISZERO PUSH2 0x674 JUMPI RETURNDATASIZE PUSH1 0x0 DUP1 RETURNDATACOPY RETURNDATASIZE PUSH1 0x0 REVERT JUMPDEST POP POP POP POP PUSH1 0x40 MLOAD RETURNDATASIZE PUSH1 0x1F NOT PUSH1 0x1F DUP3 ADD AND DUP3 ADD DUP1 PUSH1 0x40 MSTORE POP DUP2 ADD SWAP1 PUSH2 0x698 SWAP2 SWAP1 PUSH2 0x5233 JUMP JUMPDEST PUSH2 0x70F JUMPI PUSH1 0x40 MLOAD PUSH3 0x461BCD PUSH1 0xE5 SHL DUP2 MSTORE PUSH1 0x20 PUSH1 0x4 DUP3 ADD MSTORE PUSH1 0x39 PUSH1 0x24 DUP3 ADD MSTORE PUSH32 0x416C6C6F77616E63653A2063616C6C6572206D757374206265205265706F7369 PUSH1 0x44 DUP3 ADD MSTORE PUSH32 0x746F727920436F6E7472616374206F72204F70657261746F7200000000000000 PUSH1 0x64 DUP3 ADD MSTORE PUSH1 0x84 ADD JUMPDEST PUSH1 0x40 MLOAD DUP1 SWAP2 SUB SWAP1 REVERT JUMPDEST JUMP JUMPDEST RETURNDATASIZE PUSH1 0x0 DUP1 RETURNDATACOPY DUP1 DUP1 ISZERO PUSH2 0x722 JUMPI RETURNDATASIZE PUSH1 0x0 RETURN JUMPDEST RETURNDATASIZE PUSH1 0x0 REVERT JUMPDEST POP POP JUMP JUMPDEST PUSH1 0x0 PUSH1 0x1 PUSH1 0x1 PUSH1 0xE0 SHL SUB NOT DUP3 AND PUSH4 0x1FFC9A7 PUSH1 0xE0 SHL EQ DUP1 PUSH2 0x75C JUMPI POP PUSH1 0x1 PUSH1 0x1 PUSH1 0xE0 SHL SUB NOT DUP3 AND PUSH4 0x15D37895 PUSH1 0xE3 SHL EQ JUMPDEST SWAP3 SWAP2 POP POP JUMP JUMPDEST PUSH2 0x76A PUSH2 0x547 JUMP JUMPDEST PUSH2 0x70F PUSH1 0x0 DUP1 SLOAD PUSH1 0xFF NOT AND SWAP1 SSTORE JUMP JUMPDEST PUSH1 0x40 MLOAD PUSH4 0x23AA9AB PUSH1 0xE6 SHL DUP2 MSTORE PUSH32 0x2E7A327EF83C2AF7579C6634F2F5604519800C5F07626F27BD602FD11ED8E6EC PUSH1 0x4 DUP3 ADD MSTORE PUSH1 0x0 SWAP1 DUP2 SWAP1 PUSH1 0x1 PUSH1 0x1 PUSH1 0xA0 SHL SUB PUSH32 0x0 AND SWAP1 PUSH4 0x8EAA6AC0 SWAP1 PUSH1 0x24 ADD PUSH1 0x20 PUSH1 0x40 MLOAD DUP1 DUP4 SUB DUP2 DUP7 GAS STATICCALL ISZERO DUP1 ISZERO PUSH2 0x802 JUMPI RETURNDATASIZE PUSH1 0x0 DUP1 RETURNDATACOPY RETURNDATASIZE PUSH1 0x0 REVERT JUMPDEST POP POP POP POP PUSH1 0x40 MLOAD RETURNDATASIZE PUSH1 0x1F NOT PUSH1 0x1F DUP3 ADD AND DUP3 ADD DUP1 PUSH1 0x40 MSTORE POP DUP2 ADD SWAP1 PUSH2 0x826 SWAP2 SWAP1 PUSH2 0x5255 JUMP JUMPDEST PUSH1 0x40 DUP1 MLOAD ADDRESS PUSH1 0x24 DUP3 ADD MSTORE PUSH1 0x1 PUSH1 0x1 PUSH1 0xA0 SHL SUB DUP11 DUP2 AND PUSH1 0x44 DUP4 ADD MSTORE PUSH1 0x64 DUP3 ADD DUP11 SWAP1 MSTORE PUSH1 0x84 DUP3 ADD DUP10 SWAP1 MSTORE PUSH1 0xA4 DUP3 ADD DUP9 SWAP1 MSTORE PUSH1 0xC4 DUP1 DUP4 ADD DUP9 SWAP1 MSTORE DUP4 MLOAD DUP1 DUP5 SUB SWAP1 SWAP2 ADD DUP2 MSTORE PUSH1 0xE4 SWAP1 SWAP3 ADD DUP4 MSTORE PUSH1 0x20 DUP3 ADD DUP1 MLOAD PUSH1 0x1 PUSH1 0x1 PUSH1 0xE0 SHL SUB AND PUSH4 0x1DE754D PUSH1 0xE6 SHL OR SWAP1 MSTORE SWAP2 MLOAD SWAP3 SWAP1 SWAP2 AND SWAP2 PUSH2 0x899 SWAP2 SWAP1 PUSH2 0x5272 JUMP JUMPDEST PUSH1 0x0 PUSH1 0x40 MLOAD DUP1 DUP4 SUB DUP2 PUSH1 0x0 DUP7 GAS CALL SWAP2 POP POP RETURNDATASIZE DUP1 PUSH1 0x0 DUP2 EQ PUSH2 0x8D6 JUMPI PUSH1 0x40 MLOAD SWAP2 POP PUSH1 0x1F NOT PUSH1 0x3F RETURNDATASIZE ADD AND DUP3 ADD PUSH1 0x40 MSTORE RETURNDATASIZE DUP3 MSTORE RETURNDATASIZE PUSH1 0x0 PUSH1 0x20 DUP5 ADD RETURNDATACOPY PUSH2 0x8DB JUMP JUMPDEST PUSH1 0x60 SWAP2 POP JUMPDEST POP POP SWAP1 POP PUSH2 0x8E8 DUP2 PUSH2 0x711 JUMP JUMPDEST POP SWAP6 SWAP5 POP POP POP POP POP JUMP JUMPDEST PUSH1 0x0 DUP3 DUP2 MSTORE PUSH1 0x1 PUSH1 0x20 MSTORE PUSH1 0x40 DUP1 DUP3 KECCAK256 SWAP1 MLOAD PUSH4 0x2BE5DB23 PUSH1 0xE1 SHL DUP2 MSTORE PUSH1 0x4 DUP2 ADD SWAP2 SWAP1 SWAP2 MSTORE PUSH1 0x24 DUP2 ADD DUP4 SWAP1 MSTORE PUSH20 0x0 SWAP1 PUSH4 0x57CBB646 SWAP1 PUSH1 0x44 ADD PUSH1 0x20 PUSH1 0x40 MLOAD DUP1 DUP4 SUB DUP2 DUP7 GAS DELEGATECALL ISZERO DUP1 ISZERO PUSH2 0x958 JUMPI RETURNDATASIZE PUSH1 0x0 DUP1 RETURNDATACOPY RETURNDATASIZE PUSH1 0x0 REVERT JUMPDEST POP POP POP POP PUSH1 0x40 MLOAD RETURNDATASIZE PUSH1 0x1F NOT PUSH1 0x1F DUP3 ADD AND DUP3 ADD DUP1 PUSH1 0x40 MSTORE POP DUP2 ADD SWAP1 PUSH2 0x97C SWAP2 SWAP1 PUSH2 0x5233 JUMP JUMPDEST SWAP4 SWAP3 POP POP POP JUMP JUMPDEST PUSH2 0x98B PUSH2 0x4CD1 JUMP JUMPDEST PUSH2 0x75C DUP3 PUSH1 0x0 PUSH2 0x27E2 JUMP JUMPDEST PUSH1 0x0 PUSH2 0x75C PUSH5 0xE8D4A51000 DUP4 PUSH2 0x52C3 JUMP JUMPDEST PUSH1 0x0 PUSH2 0x9B8 CALLER DUP9 DUP9 DUP9 DUP9 DUP9 DUP9 PUSH2 0x21DF JUMP JUMPDEST SWAP8 SWAP7 POP POP POP POP POP POP POP JUMP JUMPDEST PUSH1 0x0 DUP1 PUSH2 0x9D5 PUSH5 0x2540BE400 DUP5 PUSH2 0x52C3 JUMP JUMPDEST SWAP1 POP DUP3 PUSH2 0x9E7 DUP3 PUSH5 0x2540BE400 PUSH2 0x52E5 JUMP JUMPDEST GT ISZERO PUSH2 0x75C JUMPI PUSH2 0x75C PUSH2 0x5304 JUMP JUMPDEST PUSH2 0x9FD PUSH2 0x2F34 JUMP JUMPDEST PUSH2 0x70F PUSH1 0x0 PUSH2 0x2F95 JUMP JUMPDEST PUSH2 0xA0F PUSH2 0x547 JUMP JUMPDEST PUSH2 0x70F PUSH1 0x0 DUP1 SLOAD PUSH1 0xFF NOT AND PUSH1 0x1 OR SWAP1 SSTORE JUMP JUMPDEST PUSH1 0x0 PUSH2 0xA2B PUSH2 0x1158 JUMP JUMPDEST ISZERO PUSH2 0xA48 JUMPI PUSH1 0x40 MLOAD PUSH3 0x461BCD PUSH1 0xE5 SHL DUP2 MSTORE PUSH1 0x4 ADD PUSH2 0x706 SWAP1 PUSH2 0x531A JUMP JUMPDEST PUSH32 0x0 PUSH1 0x1 PUSH1 0x1 PUSH1 0xA0 SHL SUB AND PUSH4 0x4635229B PUSH1 0x40 MLOAD DUP2 PUSH4 0xFFFFFFFF AND PUSH1 0xE0 SHL DUP2 MSTORE PUSH1 0x4 ADD PUSH1 0x20 PUSH1 0x40 MLOAD DUP1 DUP4 SUB DUP2 DUP7 GAS STATICCALL ISZERO DUP1 ISZERO PUSH2 0xAA6 JUMPI RETURNDATASIZE PUSH1 0x0 DUP1 RETURNDATACOPY RETURNDATASIZE PUSH1 0x0 REVERT JUMPDEST POP POP POP POP PUSH1 0x40 MLOAD RETURNDATASIZE PUSH1 0x1F NOT PUSH1 0x1F DUP3 ADD AND DUP3 ADD DUP1 PUSH1 0x40 MSTORE POP DUP2 ADD SWAP1 PUSH2 0xACA SWAP2 SWAP1 PUSH2 0x5233 JUMP JUMPDEST DUP1 PUSH2 0xADD JUMPI POP PUSH1 0x1 PUSH1 0x1 PUSH1 0xA0 SHL SUB DUP7 AND CALLER EQ JUMPDEST PUSH2 0xB3F JUMPI PUSH1 0x40 MLOAD PUSH3 0x461BCD PUSH1 0xE5 SHL DUP2 MSTORE PUSH1 0x20 PUSH1 0x4 DUP3 ADD MSTORE PUSH1 0x2D PUSH1 0x24 DUP3 ADD MSTORE PUSH32 0x4D757374206265206163636F756E743D3D5F6D736753656E6465722829206F72 PUSH1 0x44 DUP3 ADD MSTORE PUSH13 0x204D6F64652054657374696E67 PUSH1 0x98 SHL PUSH1 0x64 DUP3 ADD MSTORE PUSH1 0x84 ADD PUSH2 0x706 JUMP JUMPDEST PUSH1 0x0 DUP6 DUP2 MSTORE PUSH1 0x5 PUSH1 0x20 MSTORE PUSH1 0x40 DUP1 DUP3 KECCAK256 DUP1 SLOAD SWAP2 MLOAD PUSH4 0x657C7E09 PUSH1 0xE0 SHL DUP2 MSTORE PUSH1 0x4 DUP2 ADD SWAP3 SWAP1 SWAP3 MSTORE SWAP2 SWAP1 DUP2 SWAP1 PUSH32 0x0 PUSH1 0x1 PUSH1 0x1 PUSH1 0xA0 SHL SUB AND SWAP1 PUSH4 0x657C7E09 SWAP1 PUSH1 0x24 ADD PUSH1 0x40 DUP1 MLOAD DUP1 DUP4 SUB DUP2 DUP7 GAS STATICCALL ISZERO DUP1 ISZERO PUSH2 0xBB8 JUMPI RETURNDATASIZE PUSH1 0x0 DUP1 RETURNDATACOPY RETURNDATASIZE PUSH1 0x0 REVERT JUMPDEST POP POP POP POP PUSH1 0x40 MLOAD RETURNDATASIZE PUSH1 0x1F NOT PUSH1 0x1F DUP3 ADD AND DUP3 ADD DUP1 PUSH1 0x40 MSTORE POP DUP2 ADD SWAP1 PUSH2 0xBDC SWAP2 SWAP1 PUSH2 0x5344 JUMP JUMPDEST PUSH1 0x40 MLOAD PUSH4 0x23AA9AB PUSH1 0xE6 SHL DUP2 MSTORE PUSH1 0x0 DUP1 MLOAD PUSH1 0x20 PUSH2 0x574F DUP4 CODECOPY DUP2 MLOAD SWAP2 MSTORE PUSH1 0x4 DUP3 ADD MSTORE SWAP2 SWAP4 POP SWAP2 POP PUSH32 0x0 PUSH1 0x1 PUSH1 0x1 PUSH1 0xA0 SHL SUB AND SWAP1 PUSH4 0x8EAA6AC0 SWAP1 PUSH1 0x24 ADD PUSH1 0x20 PUSH1 0x40 MLOAD DUP1 DUP4 SUB DUP2 DUP7 GAS STATICCALL ISZERO DUP1 ISZERO PUSH2 0xC53 JUMPI RETURNDATASIZE PUSH1 0x0 DUP1 RETURNDATACOPY RETURNDATASIZE PUSH1 0x0 REVERT JUMPDEST POP POP POP POP PUSH1 0x40 MLOAD RETURNDATASIZE PUSH1 0x1F NOT PUSH1 0x1F DUP3 ADD AND DUP3 ADD DUP1 PUSH1 0x40 MSTORE POP DUP2 ADD SWAP1 PUSH2 0xC77 SWAP2 SWAP1 PUSH2 0x5255 JUMP JUMPDEST PUSH1 0x40 MLOAD PUSH4 0x4E68F20F PUSH1 0xE1 SHL DUP2 MSTORE PUSH1 0x4 DUP2 ADD DUP4 SWAP1 MSTORE PUSH1 0x1 PUSH1 0x1 PUSH1 0xA0 SHL SUB DUP12 DUP2 AND PUSH1 0x24 DUP4 ADD MSTORE SWAP2 SWAP1 SWAP2 AND SWAP1 PUSH4 0x9CD1E41E SWAP1 PUSH1 0x44 ADD PUSH1 0x20 PUSH1 0x40 MLOAD DUP1 DUP4 SUB DUP2 DUP7 GAS STATICCALL ISZERO DUP1 ISZERO PUSH2 0xCC6 JUMPI RETURNDATASIZE PUSH1 0x0 DUP1 RETURNDATACOPY RETURNDATASIZE PUSH1 0x0 REVERT JUMPDEST POP POP POP POP PUSH1 0x40 MLOAD RETURNDATASIZE PUSH1 0x1F NOT PUSH1 0x1F DUP3 ADD AND DUP3 ADD DUP1 PUSH1 0x40 MSTORE POP DUP2 ADD SWAP1 PUSH2 0xCEA SWAP2 SWAP1 PUSH2 0x5368 JUMP JUMPDEST PUSH8 0xDE0B6B3A7640000 PUSH2 0xCFD DUP9 DUP11 PUSH2 0x52E5 JUMP JUMPDEST PUSH2 0xD07 SWAP2 SWAP1 PUSH2 0x52C3 JUMP JUMPDEST GT ISZERO PUSH2 0xD55 JUMPI PUSH1 0x40 MLOAD PUSH3 0x461BCD PUSH1 0xE5 SHL DUP2 MSTORE PUSH1 0x20 PUSH1 0x4 DUP3 ADD MSTORE PUSH1 0x1A PUSH1 0x24 DUP3 ADD MSTORE PUSH32 0x42616E6B3A204E6F7420656E6F75676820617661696C61626C65000000000000 PUSH1 0x44 DUP3 ADD MSTORE PUSH1 0x64 ADD PUSH2 0x706 JUMP JUMPDEST PUSH1 0x1 DUP4 ADD SLOAD PUSH1 0x40 MLOAD PUSH4 0x5B7D0F69 PUSH1 0xE1 SHL DUP2 MSTORE PUSH1 0x1 PUSH1 0xA8 SHL SWAP1 SWAP2 DIV PUSH1 0xFF AND PUSH1 0x4 DUP3 ADD MSTORE PUSH1 0x0 SWAP1 PUSH20 0x0 SWAP1 PUSH4 0xB6FA1ED2 SWAP1 PUSH1 0x24 ADD PUSH1 0x20 PUSH1 0x40 MLOAD DUP1 DUP4 SUB DUP2 DUP7 GAS DELEGATECALL ISZERO DUP1 ISZERO PUSH2 0xDB6 JUMPI RETURNDATASIZE PUSH1 0x0 DUP1 RETURNDATACOPY RETURNDATASIZE PUSH1 0x0 REVERT JUMPDEST POP POP POP POP PUSH1 0x40 MLOAD RETURNDATASIZE PUSH1 0x1F NOT PUSH1 0x1F DUP3 ADD AND DUP3 ADD DUP1 PUSH1 0x40 MSTORE POP DUP2 ADD SWAP1 PUSH2 0xDDA SWAP2 SWAP1 PUSH2 0x5233 JUMP JUMPDEST ISZERO PUSH2 0xF05 JUMPI PUSH1 0x40 MLOAD PUSH4 0x23AA9AB PUSH1 0xE6 SHL DUP2 MSTORE PUSH32 0x3CB99135F7A7C088D9085B446345038A22A85F4E8FE072B0E1B66D97243E7458 PUSH1 0x4 DUP3 ADD MSTORE PUSH32 0x0 PUSH1 0x1 PUSH1 0x1 PUSH1 0xA0 SHL SUB AND SWAP1 PUSH4 0x8EAA6AC0 SWAP1 PUSH1 0x24 ADD PUSH1 0x20 PUSH1 0x40 MLOAD DUP1 DUP4 SUB DUP2 DUP7 GAS STATICCALL ISZERO DUP1 ISZERO PUSH2 0xE63 JUMPI RETURNDATASIZE PUSH1 0x0 DUP1 RETURNDATACOPY RETURNDATASIZE PUSH1 0x0 REVERT JUMPDEST POP POP POP POP PUSH1 0x40 MLOAD RETURNDATASIZE PUSH1 0x1F NOT PUSH1 0x1F DUP3 ADD AND DUP3 ADD DUP1 PUSH1 0x40 MSTORE POP DUP2 ADD SWAP1 PUSH2 0xE87 SWAP2 SWAP1 PUSH2 0x5255 JUMP JUMPDEST PUSH1 0x40 MLOAD PUSH4 0x32F30779 PUSH1 0xE1 SHL DUP2 MSTORE PUSH1 0x4 DUP2 ADD DUP6 SWAP1 MSTORE PUSH1 0x24 DUP2 ADD DUP5 SWAP1 MSTORE PUSH1 0x1 PUSH1 0x1 PUSH1 0xA0 SHL SUB SWAP2 SWAP1 SWAP2 AND SWAP1 PUSH4 0x65E60EF2 SWAP1 PUSH1 0x44 ADD PUSH1 0x60 PUSH1 0x40 MLOAD DUP1 DUP4 SUB DUP2 PUSH1 0x0 DUP8 GAS CALL ISZERO DUP1 ISZERO PUSH2 0xED7 JUMPI RETURNDATASIZE PUSH1 0x0 DUP1 RETURNDATACOPY RETURNDATASIZE PUSH1 0x0 REVERT JUMPDEST POP POP POP POP PUSH1 0x40 MLOAD RETURNDATASIZE PUSH1 0x1F NOT PUSH1 0x1F DUP3 ADD AND DUP3 ADD DUP1 PUSH1 0x40 MSTORE POP DUP2 ADD SWAP1 PUSH2 0xEFB SWAP2 SWAP1 PUSH2 0x5381 JUMP JUMPDEST POP SWAP2 POP PUSH2 0xF26 SWAP1 POP JUMP JUMPDEST PUSH1 0x3 DUP5 ADD SLOAD PUSH2 0xF23 SWAP1 PUSH1 0x1 PUSH1 0xC0 SHL SWAP1 DIV PUSH1 0x1 PUSH1 0x1 PUSH1 0x40 SHL SUB AND PUSH2 0x21C5 JUMP JUMPDEST SWAP1 POP JUMPDEST PUSH8 0xDE0B6B3A7640000 PUSH2 0xF39 DUP8 DUP3 PUSH2 0x53AF JUMP JUMPDEST PUSH2 0xF43 SWAP1 DUP10 PUSH2 0x52E5 JUMP JUMPDEST PUSH2 0xF4D SWAP2 SWAP1 PUSH2 0x52C3 JUMP JUMPDEST DUP2 GT ISZERO DUP1 ISZERO PUSH2 0xF82 JUMPI POP PUSH8 0xDE0B6B3A7640000 PUSH2 0xF6A DUP8 DUP3 PUSH2 0x53C6 JUMP JUMPDEST PUSH2 0xF74 SWAP1 DUP10 PUSH2 0x52E5 JUMP JUMPDEST PUSH2 0xF7E SWAP2 SWAP1 PUSH2 0x52C3 JUMP JUMPDEST DUP2 LT ISZERO JUMPDEST PUSH2 0xFCE JUMPI PUSH1 0x40 MLOAD PUSH3 0x461BCD PUSH1 0xE5 SHL DUP2 MSTORE PUSH1 0x20 PUSH1 0x4 DUP3 ADD MSTORE PUSH1 0x1C PUSH1 0x24 DUP3 ADD MSTORE PUSH32 0x51756F746520536C6970706564206F76657220746F6C6572616E636500000000 PUSH1 0x44 DUP3 ADD MSTORE PUSH1 0x64 ADD PUSH2 0x706 JUMP JUMPDEST PUSH1 0x0 DUP2 PUSH2 0xFDB DUP10 DUP12 PUSH2 0x52E5 JUMP JUMPDEST PUSH2 0xFE5 SWAP2 SWAP1 PUSH2 0x52C3 JUMP JUMPDEST PUSH1 0x3 DUP7 ADD SLOAD SWAP1 SWAP2 POP PUSH1 0x0 SWAP1 PUSH2 0x1010 SWAP1 PUSH2 0x464 SWAP1 PUSH1 0x1 PUSH1 0x1 PUSH1 0x40 SHL SUB PUSH1 0x1 PUSH1 0x40 SHL DUP3 DIV DUP2 AND SWAP2 AND PUSH2 0x53DE JUMP JUMPDEST SWAP1 POP DUP2 DUP2 LT ISZERO PUSH2 0x101E JUMPI DUP1 SWAP2 POP JUMPDEST PUSH2 0x102B DUP7 DUP14 PUSH1 0x0 DUP14 PUSH2 0x2FF0 JUMP JUMPDEST PUSH2 0x1034 DUP11 PUSH2 0x9C3 JUMP JUMPDEST PUSH1 0x3 DUP8 ADD DUP1 SLOAD PUSH1 0x8 SWAP1 PUSH2 0x1058 SWAP1 DUP5 SWAP1 PUSH1 0x1 PUSH1 0x40 SHL SWAP1 DIV PUSH1 0x1 PUSH1 0x1 PUSH1 0x40 SHL SUB AND PUSH2 0x5406 JUMP JUMPDEST DUP3 SLOAD PUSH2 0x100 SWAP3 SWAP1 SWAP3 EXP PUSH1 0x1 PUSH1 0x1 PUSH1 0x40 SHL SUB DUP2 DUP2 MUL NOT SWAP1 SWAP4 AND SWAP2 DUP4 AND MUL OR SWAP1 SWAP2 SSTORE PUSH1 0x3 DUP9 ADD SLOAD PUSH1 0x1 PUSH1 0x80 SHL DUP2 DIV DUP3 AND PUSH1 0x1 PUSH1 0x40 SHL SWAP1 SWAP2 DIV SWAP1 SWAP2 AND EQ ISZERO SWAP1 POP PUSH2 0x10A4 JUMPI PUSH2 0x10A4 DUP7 PUSH1 0x3 PUSH2 0x378A JUMP JUMPDEST PUSH1 0x1 DUP7 ADD SLOAD PUSH1 0x40 DUP1 MLOAD PUSH1 0x1 PUSH1 0x1 PUSH1 0xA0 SHL SUB SWAP3 DUP4 AND DUP2 MSTORE SWAP2 DUP15 AND PUSH1 0x20 DUP4 ADD MSTORE DUP2 ADD DUP5 SWAP1 MSTORE PUSH1 0x60 DUP2 ADD DUP4 SWAP1 MSTORE DUP5 SWAP1 DUP7 SWAP1 PUSH32 0x49DA6C773C11F8E65FD2FFB9512FA3F24DC8759FBCEDB687F0B59694ADC1D343 SWAP1 PUSH1 0x80 ADD PUSH1 0x40 MLOAD DUP1 SWAP2 SUB SWAP1 LOG3 PUSH1 0x3 PUSH1 0x1 DUP8 ADD SLOAD PUSH1 0x1 PUSH1 0xA0 SHL SWAP1 DIV PUSH1 0xFF AND PUSH1 0x5 DUP2 GT ISZERO PUSH2 0x1121 JUMPI PUSH2 0x1121 PUSH2 0x4E48 JUMP JUMPDEST GT PUSH2 0x112F JUMPI PUSH2 0x112F DUP7 PUSH2 0x3C7C JUMP JUMPDEST POP SWAP8 SWAP11 SWAP10 POP POP POP POP POP POP POP POP POP POP JUMP JUMPDEST PUSH1 0x0 PUSH2 0x75C PUSH6 0xFFFFFFFFFFFF DUP4 AND PUSH5 0x174876E800 PUSH2 0x52E5 JUMP JUMPDEST PUSH1 0x0 DUP1 SLOAD PUSH1 0xFF AND DUP1 PUSH2 0x1171 JUMPI POP PUSH1 0x0 SLOAD PUSH2 0x100 SWAP1 DIV PUSH1 0xFF AND JUMPDEST SWAP1 POP SWAP1 JUMP JUMPDEST PUSH1 0x40 MLOAD PUSH4 0x23AA9AB PUSH1 0xE6 SHL DUP2 MSTORE PUSH32 0x2E7A327EF83C2AF7579C6634F2F5604519800C5F07626F27BD602FD11ED8E6EC PUSH1 0x4 DUP3 ADD MSTORE PUSH1 0x0 SWAP1 PUSH32 0x0 PUSH1 0x1 PUSH1 0x1 PUSH1 0xA0 SHL SUB AND SWAP1 PUSH4 0x8EAA6AC0 SWAP1 PUSH1 0x24 ADD PUSH1 0x20 PUSH1 0x40 MLOAD DUP1 DUP4 SUB DUP2 DUP7 GAS STATICCALL ISZERO DUP1 ISZERO PUSH2 0x11FD JUMPI RETURNDATASIZE PUSH1 0x0 DUP1 RETURNDATACOPY RETURNDATASIZE PUSH1 0x0 REVERT JUMPDEST POP POP POP POP PUSH1 0x40 MLOAD RETURNDATASIZE PUSH1 0x1F NOT PUSH1 0x1F DUP3 ADD AND DUP3 ADD DUP1 PUSH1 0x40 MSTORE POP DUP2 ADD SWAP1 PUSH2 0x1221 SWAP2 SWAP1 PUSH2 0x5255 JUMP JUMPDEST PUSH1 0x40 DUP1 MLOAD ADDRESS PUSH1 0x24 DUP3 ADD MSTORE PUSH1 0x44 DUP1 DUP3 ADD DUP7 SWAP1 MSTORE DUP3 MLOAD DUP1 DUP4 SUB SWAP1 SWAP2 ADD DUP2 MSTORE PUSH1 0x64 SWAP1 SWAP2 ADD DUP3 MSTORE PUSH1 0x20 DUP2 ADD DUP1 MLOAD PUSH1 0x1 PUSH1 0x1 PUSH1 0xE0 SHL SUB AND PUSH4 0x76F466FF PUSH1 0xE1 SHL OR SWAP1 MSTORE SWAP1 MLOAD PUSH1 0x1 PUSH1 0x1 PUSH1 0xA0 SHL SUB SWAP3 SWAP1 SWAP3 AND SWAP2 PUSH2 0x1277 SWAP2 SWAP1 PUSH2 0x5272 JUMP JUMPDEST PUSH1 0x0 PUSH1 0x40 MLOAD DUP1 DUP4 SUB DUP2 PUSH1 0x0 DUP7 GAS CALL SWAP2 POP POP RETURNDATASIZE DUP1 PUSH1 0x0 DUP2 EQ PUSH2 0x12B4 JUMPI PUSH1 0x40 MLOAD SWAP2 POP PUSH1 0x1F NOT PUSH1 0x3F RETURNDATASIZE ADD AND DUP3 ADD PUSH1 0x40 MSTORE RETURNDATASIZE DUP3 MSTORE RETURNDATASIZE PUSH1 0x0 PUSH1 0x20 DUP5 ADD RETURNDATACOPY PUSH2 0x12B9 JUMP JUMPDEST PUSH1 0x60 SWAP2 POP JUMPDEST POP POP SWAP1 POP PUSH2 0x727 DUP2 PUSH2 0x711 JUMP JUMPDEST PUSH1 0x0 PUSH2 0x12D5 CALLER DUP7 DUP7 DUP7 DUP7 PUSH2 0x779 JUMP JUMPDEST SWAP6 SWAP5 POP POP POP POP POP JUMP JUMPDEST PUSH1 0x0 PUSH2 0x12E8 PUSH2 0x1158 JUMP JUMPDEST ISZERO PUSH2 0x1305 JUMPI PUSH1 0x40 MLOAD PUSH3 0x461BCD PUSH1 0xE5 SHL DUP2 MSTORE PUSH1 0x4 ADD PUSH2 0x706 SWAP1 PUSH2 0x531A JUMP JUMPDEST PUSH32 0x0 PUSH1 0x1 PUSH1 0x1 PUSH1 0xA0 SHL SUB AND PUSH4 0x4635229B PUSH1 0x40 MLOAD DUP2 PUSH4 0xFFFFFFFF AND PUSH1 0xE0 SHL DUP2 MSTORE PUSH1 0x4 ADD PUSH1 0x20 PUSH1 0x40 MLOAD DUP1 DUP4 SUB DUP2 DUP7 GAS STATICCALL ISZERO DUP1 ISZERO PUSH2 0x1363 JUMPI RETURNDATASIZE PUSH1 0x0 DUP1 RETURNDATACOPY RETURNDATASIZE PUSH1 0x0 REVERT JUMPDEST POP POP POP POP PUSH1 0x40 MLOAD RETURNDATASIZE PUSH1 0x1F NOT PUSH1 0x1F DUP3 ADD AND DUP3 ADD DUP1 PUSH1 0x40 MSTORE POP DUP2 ADD SWAP1 PUSH2 0x1387 SWAP2 SWAP1 PUSH2 0x5233 JUMP JUMPDEST DUP1 PUSH2 0x139A JUMPI POP PUSH1 0x1 PUSH1 0x1 PUSH1 0xA0 SHL SUB DUP9 AND CALLER EQ JUMPDEST PUSH2 0x13B6 JUMPI PUSH1 0x40 MLOAD PUSH3 0x461BCD PUSH1 0xE5 SHL DUP2 MSTORE PUSH1 0x4 ADD PUSH2 0x706 SWAP1 PUSH2 0x5431 JUMP JUMPDEST PUSH1 0x40 MLOAD PUSH4 0xC5537EB7 PUSH1 0xE0 SHL DUP2 MSTORE PUSH1 0x4 DUP2 ADD DUP9 SWAP1 MSTORE PUSH2 0x800 PUSH1 0x24 DUP3 ADD MSTORE PUSH32 0x0 PUSH1 0x1 PUSH1 0x1 PUSH1 0xA0 SHL SUB AND SWAP1 PUSH4 0xC5537EB7 SWAP1 PUSH1 0x44 ADD PUSH1 0x20 PUSH1 0x40 MLOAD DUP1 DUP4 SUB DUP2 DUP7 GAS STATICCALL ISZERO DUP1 ISZERO PUSH2 0x1423 JUMPI RETURNDATASIZE PUSH1 0x0 DUP1 RETURNDATACOPY RETURNDATASIZE PUSH1 0x0 REVERT JUMPDEST POP POP POP POP PUSH1 0x40 MLOAD RETURNDATASIZE PUSH1 0x1F NOT PUSH1 0x1F DUP3 ADD AND DUP3 ADD DUP1 PUSH1 0x40 MSTORE POP DUP2 ADD SWAP1 PUSH2 0x1447 SWAP2 SWAP1 PUSH2 0x5233 JUMP JUMPDEST ISZERO PUSH2 0x1664 JUMPI PUSH1 0x40 MLOAD PUSH4 0xC25E483 PUSH1 0xE1 SHL DUP2 MSTORE PUSH1 0x4 DUP2 ADD DUP9 SWAP1 MSTORE PUSH1 0x0 SWAP1 PUSH32 0x0 PUSH1 0x1 PUSH1 0x1 PUSH1 0xA0 SHL SUB AND SWAP1 PUSH4 0x184BC906 SWAP1 PUSH1 0x24 ADD PUSH1 0x20 PUSH1 0x40 MLOAD DUP1 DUP4 SUB DUP2 DUP7 GAS STATICCALL ISZERO DUP1 ISZERO PUSH2 0x14B4 JUMPI RETURNDATASIZE PUSH1 0x0 DUP1 RETURNDATACOPY RETURNDATASIZE PUSH1 0x0 REVERT JUMPDEST POP POP POP POP PUSH1 0x40 MLOAD RETURNDATASIZE PUSH1 0x1F NOT PUSH1 0x1F DUP3 ADD AND DUP3 ADD DUP1 PUSH1 0x40 MSTORE POP DUP2 ADD SWAP1 PUSH2 0x14D8 SWAP2 SWAP1 PUSH2 0x5255 JUMP JUMPDEST SWAP1 POP DUP1 PUSH1 0x1 PUSH1 0x1 PUSH1 0xA0 SHL SUB AND PUSH4 0xF5AC9DB6 PUSH1 0x40 MLOAD DUP2 PUSH4 0xFFFFFFFF AND PUSH1 0xE0 SHL DUP2 MSTORE PUSH1 0x4 ADD PUSH1 0x20 PUSH1 0x40 MLOAD DUP1 DUP4 SUB DUP2 DUP7 GAS STATICCALL ISZERO DUP1 ISZERO PUSH2 0x1518 JUMPI RETURNDATASIZE PUSH1 0x0 DUP1 RETURNDATACOPY RETURNDATASIZE PUSH1 0x0 REVERT JUMPDEST POP POP POP POP PUSH1 0x40 MLOAD RETURNDATASIZE PUSH1 0x1F NOT PUSH1 0x1F DUP3 ADD AND DUP3 ADD DUP1 PUSH1 0x40 MSTORE POP DUP2 ADD SWAP1 PUSH2 0x153C SWAP2 SWAP1 PUSH2 0x5233 JUMP JUMPDEST PUSH2 0x157D JUMPI PUSH1 0x40 MLOAD PUSH3 0x461BCD PUSH1 0xE5 SHL DUP2 MSTORE PUSH1 0x20 PUSH1 0x4 DUP3 ADD MSTORE PUSH1 0x12 PUSH1 0x24 DUP3 ADD MSTORE PUSH18 0x46726F6D206E6F7420747261646561626C65 PUSH1 0x70 SHL PUSH1 0x44 DUP3 ADD MSTORE PUSH1 0x64 ADD PUSH2 0x706 JUMP JUMPDEST DUP1 PUSH1 0x1 PUSH1 0x1 PUSH1 0xA0 SHL SUB AND PUSH4 0xE499427 PUSH1 0x40 MLOAD DUP2 PUSH4 0xFFFFFFFF AND PUSH1 0xE0 SHL DUP2 MSTORE PUSH1 0x4 ADD PUSH1 0x20 PUSH1 0x40 MLOAD DUP1 DUP4 SUB DUP2 DUP7 GAS STATICCALL ISZERO DUP1 ISZERO PUSH2 0x15BB JUMPI RETURNDATASIZE PUSH1 0x0 DUP1 RETURNDATACOPY RETURNDATASIZE PUSH1 0x0 REVERT JUMPDEST POP POP POP POP PUSH1 0x40 MLOAD RETURNDATASIZE PUSH1 0x1F NOT PUSH1 0x1F DUP3 ADD AND DUP3 ADD DUP1 PUSH1 0x40 MSTORE POP DUP2 ADD SWAP1 PUSH2 0x15DF SWAP2 SWAP1 PUSH2 0x5233 JUMP JUMPDEST DUP1 ISZERO PUSH2 0x160B JUMPI POP PUSH32 0xAD3228B676F7D3CD4284A5443F17F1962B36E491B30A40B2405849E597BA5FB5 DUP8 EQ ISZERO JUMPDEST PUSH2 0x1662 JUMPI PUSH1 0x40 MLOAD PUSH3 0x461BCD PUSH1 0xE5 SHL DUP2 MSTORE PUSH1 0x20 PUSH1 0x4 DUP3 ADD MSTORE PUSH1 0x22 PUSH1 0x24 DUP3 ADD MSTORE PUSH32 0x46726F6D206973206F6E6C7920747261646561626C6520746F2043757272656E PUSH1 0x44 DUP3 ADD MSTORE PUSH2 0x6379 PUSH1 0xF0 SHL PUSH1 0x64 DUP3 ADD MSTORE PUSH1 0x84 ADD PUSH2 0x706 JUMP JUMPDEST POP JUMPDEST PUSH1 0x40 MLOAD PUSH4 0xD47A7EDD PUSH1 0xE0 SHL DUP2 MSTORE PUSH1 0x4 DUP2 ADD DUP9 SWAP1 MSTORE PUSH32 0x0 PUSH1 0x1 PUSH1 0x1 PUSH1 0xA0 SHL SUB AND SWAP1 PUSH4 0xD47A7EDD SWAP1 PUSH1 0x24 ADD PUSH1 0x20 PUSH1 0x40 MLOAD DUP1 DUP4 SUB DUP2 DUP7 GAS STATICCALL ISZERO DUP1 ISZERO PUSH2 0x16C9 JUMPI RETURNDATASIZE PUSH1 0x0 DUP1 RETURNDATACOPY RETURNDATASIZE PUSH1 0x0 REVERT JUMPDEST POP POP POP POP PUSH1 0x40 MLOAD RETURNDATASIZE PUSH1 0x1F NOT PUSH1 0x1F DUP3 ADD AND DUP3 ADD DUP1 PUSH1 0x40 MSTORE POP DUP2 ADD SWAP1 PUSH2 0x16ED SWAP2 SWAP1 PUSH2 0x5233 JUMP JUMPDEST ISZERO DUP1 PUSH2 0x1700 JUMPI POP DUP4 PUSH8 0xDE0B6B3A7640000 EQ JUMPDEST DUP1 PUSH2 0x170A JUMPI POP DUP4 DUP6 EQ JUMPDEST PUSH2 0x176A JUMPI PUSH1 0x40 MLOAD PUSH3 0x461BCD PUSH1 0xE5 SHL DUP2 MSTORE PUSH1 0x20 PUSH1 0x4 DUP3 ADD MSTORE PUSH1 0x2B PUSH1 0x24 DUP3 ADD MSTORE PUSH32 0x2746726F6D27206973204E46542071747920616E64206772616E756C61726974 PUSH1 0x44 DUP3 ADD MSTORE PUSH11 0x79206D7573742062652031 PUSH1 0xA8 SHL PUSH1 0x64 DUP3 ADD MSTORE PUSH1 0x84 ADD PUSH2 0x706 JUMP JUMPDEST PUSH1 0x40 MLOAD PUSH4 0x23AA9AB PUSH1 0xE6 SHL DUP2 MSTORE PUSH1 0x0 DUP1 MLOAD PUSH1 0x20 PUSH2 0x574F DUP4 CODECOPY DUP2 MLOAD SWAP2 MSTORE PUSH1 0x4 DUP3 ADD MSTORE PUSH32 0x0 PUSH1 0x1 PUSH1 0x1 PUSH1 0xA0 SHL SUB AND SWAP1 PUSH4 0x8EAA6AC0 SWAP1 PUSH1 0x24 ADD PUSH1 0x20 PUSH1 0x40 MLOAD DUP1 DUP4 SUB DUP2 DUP7 GAS STATICCALL ISZERO DUP1 ISZERO PUSH2 0x17DC JUMPI RETURNDATASIZE PUSH1 0x0 DUP1 RETURNDATACOPY RETURNDATASIZE PUSH1 0x0 REVERT JUMPDEST POP POP POP POP PUSH1 0x40 MLOAD RETURNDATASIZE PUSH1 0x1F NOT PUSH1 0x1F DUP3 ADD AND DUP3 ADD DUP1 PUSH1 0x40 MSTORE POP DUP2 ADD SWAP1 PUSH2 0x1800 SWAP2 SWAP1 PUSH2 0x5255 JUMP JUMPDEST PUSH1 0x40 MLOAD PUSH4 0x4E68F20F PUSH1 0xE1 SHL DUP2 MSTORE PUSH1 0x4 DUP2 ADD DUP10 SWAP1 MSTORE PUSH1 0x1 PUSH1 0x1 PUSH1 0xA0 SHL SUB DUP11 DUP2 AND PUSH1 0x24 DUP4 ADD MSTORE SWAP2 SWAP1 SWAP2 AND SWAP1 PUSH4 0x9CD1E41E SWAP1 PUSH1 0x44 ADD PUSH1 0x20 PUSH1 0x40 MLOAD DUP1 DUP4 SUB DUP2 DUP7 GAS STATICCALL ISZERO DUP1 ISZERO PUSH2 0x184F JUMPI RETURNDATASIZE PUSH1 0x0 DUP1 RETURNDATACOPY RETURNDATASIZE PUSH1 0x0 REVERT JUMPDEST POP POP POP POP PUSH1 0x40 MLOAD RETURNDATASIZE PUSH1 0x1F NOT PUSH1 0x1F DUP3 ADD AND DUP3 ADD DUP1 PUSH1 0x40 MSTORE POP DUP2 ADD SWAP1 PUSH2 0x1873 SWAP2 SWAP1 PUSH2 0x5368 JUMP JUMPDEST DUP5 GT ISZERO PUSH2 0x18C2 JUMPI PUSH1 0x40 MLOAD PUSH3 0x461BCD PUSH1 0xE5 SHL DUP2 MSTORE PUSH1 0x20 PUSH1 0x4 DUP3 ADD MSTORE PUSH1 0x1A PUSH1 0x24 DUP3 ADD MSTORE PUSH32 0x42616E6B3A204E6F7420656E6F75676820617661696C61626C65000000000000 PUSH1 0x44 DUP3 ADD MSTORE PUSH1 0x64 ADD PUSH2 0x706 JUMP JUMPDEST PUSH1 0x40 DUP1 MLOAD PUSH2 0x180 DUP2 ADD DUP3 MSTORE PUSH1 0x0 DUP1 DUP3 MSTORE PUSH1 0x20 DUP3 ADD DUP2 SWAP1 MSTORE SWAP2 DUP2 ADD DUP3 SWAP1 MSTORE PUSH1 0x60 DUP2 ADD DUP3 SWAP1 MSTORE PUSH1 0x80 DUP2 ADD DUP3 SWAP1 MSTORE PUSH1 0xA0 DUP2 ADD DUP3 SWAP1 MSTORE PUSH1 0xC0 DUP2 ADD DUP3 SWAP1 MSTORE PUSH1 0xE0 DUP2 ADD DUP3 SWAP1 MSTORE PUSH2 0x100 DUP2 ADD DUP3 SWAP1 MSTORE PUSH2 0x120 DUP2 ADD DUP3 SWAP1 MSTORE PUSH2 0x140 DUP2 ADD DUP3 SWAP1 MSTORE PUSH2 0x160 DUP2 ADD SWAP2 SWAP1 SWAP2 MSTORE PUSH1 0x1 PUSH1 0x1 PUSH1 0xA0 SHL SUB DUP10 DUP2 AND PUSH1 0x20 DUP4 ADD MSTORE PUSH1 0x40 MLOAD PUSH4 0x61E99FFB PUSH1 0xE0 SHL DUP2 MSTORE PUSH1 0x4 DUP2 ADD DUP11 SWAP1 MSTORE PUSH1 0x24 DUP2 ADD DUP10 SWAP1 MSTORE PUSH32 0x0 SWAP1 SWAP2 AND SWAP1 PUSH4 0x61E99FFB SWAP1 PUSH1 0x44 ADD PUSH1 0x20 PUSH1 0x40 MLOAD DUP1 DUP4 SUB DUP2 PUSH1 0x0 DUP8 GAS CALL ISZERO DUP1 ISZERO PUSH2 0x199B JUMPI RETURNDATASIZE PUSH1 0x0 DUP1 RETURNDATACOPY RETURNDATASIZE PUSH1 0x0 REVERT JUMPDEST POP POP POP POP PUSH1 0x40 MLOAD RETURNDATASIZE PUSH1 0x1F NOT PUSH1 0x1F DUP3 ADD AND DUP3 ADD DUP1 PUSH1 0x40 MSTORE POP DUP2 ADD SWAP1 PUSH2 0x19BF SWAP2 SWAP1 PUSH2 0x5368 JUMP JUMPDEST DUP2 MSTORE PUSH2 0x19CA DUP7 PUSH2 0x9C3 JUMP JUMPDEST PUSH1 0x1 PUSH1 0x1 PUSH1 0x40 SHL SUB AND PUSH2 0x120 DUP3 ADD MSTORE PUSH2 0x19E2 DUP6 PUSH2 0x9C3 JUMP JUMPDEST PUSH1 0x1 PUSH1 0x1 PUSH1 0x40 SHL SUB AND PUSH1 0xA0 DUP3 ADD MSTORE PUSH2 0x19F9 DUP5 PUSH2 0x9C3 JUMP JUMPDEST PUSH1 0x1 PUSH1 0x1 PUSH1 0x40 SHL SUB AND PUSH2 0x100 DUP3 ADD MSTORE PUSH1 0x60 DUP2 ADD MLOAD PUSH1 0x40 MLOAD PUSH4 0x5B7D0F69 PUSH1 0xE1 SHL DUP2 MSTORE PUSH1 0xFF SWAP1 SWAP2 AND PUSH1 0x4 DUP3 ADD MSTORE PUSH20 0x0 SWAP1 PUSH4 0xB6FA1ED2 SWAP1 PUSH1 0x24 ADD PUSH1 0x20 PUSH1 0x40 MLOAD DUP1 DUP4 SUB DUP2 DUP7 GAS DELEGATECALL ISZERO DUP1 ISZERO PUSH2 0x1A60 JUMPI RETURNDATASIZE PUSH1 0x0 DUP1 RETURNDATACOPY RETURNDATASIZE PUSH1 0x0 REVERT JUMPDEST POP POP POP POP PUSH1 0x40 MLOAD RETURNDATASIZE PUSH1 0x1F NOT PUSH1 0x1F DUP3 ADD AND DUP3 ADD DUP1 PUSH1 0x40 MSTORE POP DUP2 ADD SWAP1 PUSH2 0x1A84 SWAP2 SWAP1 PUSH2 0x5233 JUMP JUMPDEST ISZERO PUSH2 0x1C09 JUMPI PUSH1 0x40 MLOAD PUSH4 0x23AA9AB PUSH1 0xE6 SHL DUP2 MSTORE PUSH32 0x3CB99135F7A7C088D9085B446345038A22A85F4E8FE072B0E1B66D97243E7458 PUSH1 0x4 DUP3 ADD MSTORE PUSH1 0x0 SWAP1 PUSH32 0x0 PUSH1 0x1 PUSH1 0x1 PUSH1 0xA0 SHL SUB AND SWAP1 PUSH4 0x8EAA6AC0 SWAP1 PUSH1 0x24 ADD PUSH1 0x20 PUSH1 0x40 MLOAD DUP1 DUP4 SUB DUP2 DUP7 GAS STATICCALL ISZERO DUP1 ISZERO PUSH2 0x1B10 JUMPI RETURNDATASIZE PUSH1 0x0 DUP1 RETURNDATACOPY RETURNDATASIZE PUSH1 0x0 REVERT JUMPDEST POP POP POP POP PUSH1 0x40 MLOAD RETURNDATASIZE PUSH1 0x1F NOT PUSH1 0x1F DUP3 ADD AND DUP3 ADD DUP1 PUSH1 0x40 MSTORE POP DUP2 ADD SWAP1 PUSH2 0x1B34 SWAP2 SWAP1 PUSH2 0x5255 JUMP JUMPDEST PUSH1 0x40 MLOAD PUSH4 0x32F30779 PUSH1 0xE1 SHL DUP2 MSTORE PUSH1 0x4 DUP2 ADD DUP12 SWAP1 MSTORE PUSH1 0x24 DUP2 ADD DUP11 SWAP1 MSTORE PUSH1 0x1 PUSH1 0x1 PUSH1 0xA0 SHL SUB SWAP2 SWAP1 SWAP2 AND SWAP1 PUSH4 0x65E60EF2 SWAP1 PUSH1 0x44 ADD PUSH1 0x60 PUSH1 0x40 MLOAD DUP1 DUP4 SUB DUP2 PUSH1 0x0 DUP8 GAS CALL ISZERO DUP1 ISZERO PUSH2 0x1B84 JUMPI RETURNDATASIZE PUSH1 0x0 DUP1 RETURNDATACOPY RETURNDATASIZE PUSH1 0x0 REVERT JUMPDEST POP POP POP POP PUSH1 0x40 MLOAD RETURNDATASIZE PUSH1 0x1F NOT PUSH1 0x1F DUP3 ADD AND DUP3 ADD DUP1 PUSH1 0x40 MSTORE POP DUP2 ADD SWAP1 PUSH2 0x1BA8 SWAP2 SWAP1 PUSH2 0x5381 JUMP JUMPDEST POP SWAP2 POP PUSH2 0x1BB6 SWAP1 POP DUP2 PUSH2 0x9C3 JUMP JUMPDEST PUSH1 0x1 PUSH1 0x1 PUSH1 0x40 SHL SUB AND PUSH2 0x160 DUP4 ADD DUP2 SWAP1 MSTORE PUSH2 0x1C07 JUMPI PUSH1 0x40 MLOAD PUSH3 0x461BCD PUSH1 0xE5 SHL DUP2 MSTORE PUSH1 0x20 PUSH1 0x4 DUP3 ADD MSTORE PUSH1 0x11 PUSH1 0x24 DUP3 ADD MSTORE PUSH17 0x145D5BDD194E88139BDD081C5D5BDD1959 PUSH1 0x7A SHL PUSH1 0x44 DUP3 ADD MSTORE PUSH1 0x64 ADD PUSH2 0x706 JUMP JUMPDEST POP JUMPDEST PUSH1 0x60 DUP2 ADD MLOAD PUSH1 0x40 MLOAD PUSH4 0xF0340A37 PUSH1 0xE0 SHL DUP2 MSTORE PUSH1 0xFF SWAP1 SWAP2 AND PUSH1 0x4 DUP3 ADD MSTORE PUSH20 0x0 SWAP1 PUSH4 0xF0340A37 SWAP1 PUSH1 0x24 ADD PUSH1 0x20 PUSH1 0x40 MLOAD DUP1 DUP4 SUB DUP2 DUP7 GAS DELEGATECALL ISZERO DUP1 ISZERO PUSH2 0x1C61 JUMPI RETURNDATASIZE PUSH1 0x0 DUP1 RETURNDATACOPY RETURNDATASIZE PUSH1 0x0 REVERT JUMPDEST POP POP POP POP PUSH1 0x40 MLOAD RETURNDATASIZE PUSH1 0x1F NOT PUSH1 0x1F DUP3 ADD AND DUP3 ADD DUP1 PUSH1 0x40 MSTORE POP DUP2 ADD SWAP1 PUSH2 0x1C85 SWAP2 SWAP1 PUSH2 0x5233 JUMP JUMPDEST ISZERO PUSH2 0x1D88 JUMPI PUSH1 0x40 MLOAD PUSH4 0x23AA9AB PUSH1 0xE6 SHL DUP2 MSTORE PUSH1 0x0 DUP1 MLOAD PUSH1 0x20 PUSH2 0x574F DUP4 CODECOPY DUP2 MLOAD SWAP2 MSTORE PUSH1 0x4 DUP3 ADD MSTORE PUSH32 0x0 PUSH1 0x1 PUSH1 0x1 PUSH1 0xA0 SHL SUB AND SWAP1 PUSH4 0x8EAA6AC0 SWAP1 PUSH1 0x24 ADD PUSH1 0x20 PUSH1 0x40 MLOAD DUP1 DUP4 SUB DUP2 DUP7 GAS STATICCALL ISZERO DUP1 ISZERO PUSH2 0x1CFC JUMPI RETURNDATASIZE PUSH1 0x0 DUP1 RETURNDATACOPY RETURNDATASIZE PUSH1 0x0 REVERT JUMPDEST POP POP POP POP PUSH1 0x40 MLOAD RETURNDATASIZE PUSH1 0x1F NOT PUSH1 0x1F DUP3 ADD AND DUP3 ADD DUP1 PUSH1 0x40 MSTORE POP DUP2 ADD SWAP1 PUSH2 0x1D20 SWAP2 SWAP1 PUSH2 0x5255 JUMP JUMPDEST PUSH1 0x1 PUSH1 0x1 PUSH1 0xA0 SHL SUB AND PUSH4 0x56A1FD3A DUP9 DUP4 PUSH1 0x20 ADD MLOAD ADDRESS DUP10 PUSH1 0x40 MLOAD DUP6 PUSH4 0xFFFFFFFF AND PUSH1 0xE0 SHL DUP2 MSTORE PUSH1 0x4 ADD PUSH2 0x1D55 SWAP5 SWAP4 SWAP3 SWAP2 SWAP1 PUSH2 0x547C JUMP JUMPDEST PUSH1 0x0 PUSH1 0x40 MLOAD DUP1 DUP4 SUB DUP2 PUSH1 0x0 DUP8 DUP1 EXTCODESIZE ISZERO DUP1 ISZERO PUSH2 0x1D6F JUMPI PUSH1 0x0 DUP1 REVERT JUMPDEST POP GAS CALL ISZERO DUP1 ISZERO PUSH2 0x1D83 JUMPI RETURNDATASIZE PUSH1 0x0 DUP1 RETURNDATACOPY RETURNDATASIZE PUSH1 0x0 REVERT JUMPDEST POP POP POP POP JUMPDEST PUSH1 0x3 DUP1 SLOAD PUSH1 0x1 ADD SWAP1 SSTORE JUMPDEST PUSH1 0x3 SLOAD ISZERO DUP1 ISZERO PUSH2 0x1DB5 JUMPI POP PUSH1 0x3 SLOAD PUSH1 0x0 SWAP1 DUP2 MSTORE PUSH1 0x5 PUSH1 0x20 MSTORE PUSH1 0x40 SWAP1 KECCAK256 PUSH1 0x2 ADD SLOAD ISZERO ISZERO JUMPDEST ISZERO PUSH2 0x1DC8 JUMPI PUSH1 0x3 DUP1 SLOAD PUSH1 0x1 ADD SWAP1 SSTORE PUSH2 0x1D92 JUMP JUMPDEST PUSH1 0x3 SLOAD PUSH1 0x80 DUP3 ADD DUP2 SWAP1 MSTORE PUSH1 0xA0 DUP3 ADD MLOAD PUSH1 0x1 PUSH1 0x1 PUSH1 0x40 SHL SUB SWAP1 DUP2 AND PUSH1 0xE0 DUP5 ADD MSTORE PUSH1 0x4 PUSH1 0x40 DUP1 DUP6 ADD SWAP2 DUP3 MSTORE PUSH1 0xFF DUP8 AND PUSH1 0x60 DUP7 ADD MSTORE PUSH2 0x100 DUP6 ADD MLOAD SWAP1 SWAP3 AND PUSH2 0x140 DUP6 ADD MSTORE PUSH1 0x0 SWAP3 DUP4 MSTORE PUSH1 0x5 PUSH1 0x20 DUP2 DUP2 MSTORE SWAP3 SWAP1 SWAP4 KECCAK256 DUP5 MLOAD DUP2 SSTORE SWAP2 DUP5 ADD MLOAD PUSH1 0x1 DUP4 ADD DUP1 SLOAD PUSH1 0x1 PUSH1 0x1 PUSH1 0xA0 SHL SUB SWAP1 SWAP3 AND PUSH1 0x1 PUSH1 0x1 PUSH1 0xA0 SHL SUB NOT DUP4 AND DUP2 OR DUP3 SSTORE SWAP3 MLOAD DUP7 SWAP6 SWAP1 SWAP4 SWAP2 SWAP3 PUSH1 0x1 PUSH1 0x1 PUSH1 0xA8 SHL SUB NOT AND SWAP1 SWAP2 OR SWAP1 PUSH1 0x1 PUSH1 0xA0 SHL SWAP1 DUP5 SWAP1 DUP2 GT ISZERO PUSH2 0x1E6E JUMPI PUSH2 0x1E6E PUSH2 0x4E48 JUMP JUMPDEST MUL OR SWAP1 SSTORE POP PUSH1 0x60 DUP3 ADD MLOAD PUSH1 0x1 DUP3 ADD DUP1 SLOAD PUSH1 0xFF PUSH1 0xA8 SHL NOT AND PUSH1 0x1 PUSH1 0xA8 SHL PUSH1 0xFF SWAP1 SWAP4 AND SWAP3 SWAP1 SWAP3 MUL SWAP2 SWAP1 SWAP2 OR SWAP1 SSTORE PUSH1 0x80 DUP1 DUP4 ADD MLOAD PUSH1 0x2 DUP4 ADD SSTORE PUSH1 0xA0 DUP4 ADD MLOAD PUSH1 0x3 DUP4 ADD DUP1 SLOAD PUSH1 0xC0 DUP7 ADD MLOAD PUSH1 0xE0 DUP8 ADD MLOAD PUSH2 0x100 DUP9 ADD MLOAD PUSH1 0x1 PUSH1 0x1 PUSH1 0x40 SHL SUB SWAP6 DUP7 AND PUSH16 0xFFFFFFFFFFFFFFFFFFFFFFFFFFFFFFFF NOT SWAP5 DUP6 AND OR PUSH1 0x1 PUSH1 0x40 SHL SWAP4 DUP8 AND DUP5 MUL OR PUSH16 0xFFFFFFFFFFFFFFFFFFFFFFFFFFFFFFFF AND PUSH1 0x1 PUSH1 0x80 SHL SWAP3 DUP8 AND DUP4 MUL PUSH1 0x1 PUSH1 0x1 PUSH1 0xC0 SHL SUB AND OR PUSH1 0x1 PUSH1 0xC0 SHL SWAP2 DUP8 AND SWAP2 SWAP1 SWAP2 MUL OR SWAP1 SWAP4 SSTORE PUSH2 0x120 DUP8 ADD MLOAD PUSH1 0x4 SWAP7 DUP8 ADD DUP1 SLOAD PUSH2 0x140 DUP11 ADD MLOAD PUSH2 0x160 SWAP1 SWAP11 ADD MLOAD PUSH8 0xFFFFFFFFFFFFFFFF PUSH1 0x80 SHL NOT SWAP4 DUP9 AND SWAP2 SWAP1 SWAP6 AND OR SWAP9 DUP7 AND SWAP1 SWAP3 MUL SWAP8 SWAP1 SWAP8 OR SWAP7 SWAP1 SWAP7 AND SWAP3 AND MUL OR SWAP1 SWAP3 SSTORE SWAP1 DUP3 ADD MLOAD PUSH1 0x40 MLOAD PUSH4 0x4132F1D PUSH1 0xE3 SHL DUP2 MSTORE DUP1 DUP4 ADD SWAP3 SWAP1 SWAP3 MSTORE PUSH1 0x24 DUP3 ADD MSTORE PUSH20 0x0 SWAP1 PUSH4 0x209978E8 SWAP1 PUSH1 0x44 ADD PUSH1 0x20 PUSH1 0x40 MLOAD DUP1 DUP4 SUB DUP2 DUP7 GAS DELEGATECALL ISZERO DUP1 ISZERO PUSH2 0x1FBE JUMPI RETURNDATASIZE PUSH1 0x0 DUP1 RETURNDATACOPY RETURNDATASIZE PUSH1 0x0 REVERT JUMPDEST POP POP POP POP PUSH1 0x40 MLOAD RETURNDATASIZE PUSH1 0x1F NOT PUSH1 0x1F DUP3 ADD AND DUP3 ADD DUP1 PUSH1 0x40 MSTORE POP DUP2 ADD SWAP1 PUSH2 0x1FE2 SWAP2 SWAP1 PUSH2 0x5233 JUMP JUMPDEST POP DUP1 MLOAD PUSH1 0x0 SWAP1 DUP2 MSTORE PUSH1 0x6 PUSH1 0x20 MSTORE PUSH1 0x40 SWAP1 DUP2 SWAP1 KECCAK256 PUSH1 0x80 DUP4 ADD MLOAD SWAP2 MLOAD PUSH4 0x4132F1D PUSH1 0xE3 SHL DUP2 MSTORE PUSH20 0x0 SWAP3 PUSH4 0x209978E8 SWAP3 PUSH2 0x203A SWAP3 SWAP1 SWAP2 SWAP1 PUSH1 0x4 ADD SWAP2 DUP3 MSTORE PUSH1 0x20 DUP3 ADD MSTORE PUSH1 0x40 ADD SWAP1 JUMP JUMPDEST PUSH1 0x20 PUSH1 0x40 MLOAD DUP1 DUP4 SUB DUP2 DUP7 GAS DELEGATECALL ISZERO DUP1 ISZERO PUSH2 0x2057 JUMPI RETURNDATASIZE PUSH1 0x0 DUP1 RETURNDATACOPY RETURNDATASIZE PUSH1 0x0 REVERT JUMPDEST POP POP POP POP PUSH1 0x40 MLOAD RETURNDATASIZE PUSH1 0x1F NOT PUSH1 0x1F DUP3 ADD AND DUP3 ADD DUP1 PUSH1 0x40 MSTORE POP DUP2 ADD SWAP1 PUSH2 0x207B SWAP2 SWAP1 PUSH2 0x5233 JUMP JUMPDEST POP PUSH1 0x0 DUP9 DUP2 MSTORE PUSH1 0x7 PUSH1 0x20 MSTORE PUSH1 0x40 SWAP1 DUP2 SWAP1 KECCAK256 PUSH1 0x80 DUP4 ADD MLOAD SWAP2 MLOAD PUSH4 0x4132F1D PUSH1 0xE3 SHL DUP2 MSTORE PUSH20 0x0 SWAP3 PUSH4 0x209978E8 SWAP3 PUSH2 0x20D1 SWAP3 SWAP1 SWAP2 SWAP1 PUSH1 0x4 ADD SWAP2 DUP3 MSTORE PUSH1 0x20 DUP3 ADD MSTORE PUSH1 0x40 ADD SWAP1 JUMP JUMPDEST PUSH1 0x20 PUSH1 0x40 MLOAD DUP1 DUP4 SUB DUP2 DUP7 GAS DELEGATECALL ISZERO DUP1 ISZERO PUSH2 0x20EE JUMPI RETURNDATASIZE PUSH1 0x0 DUP1 RETURNDATACOPY RETURNDATASIZE PUSH1 0x0 REVERT JUMPDEST POP POP POP POP PUSH1 0x40 MLOAD RETURNDATASIZE PUSH1 0x1F NOT PUSH1 0x1F DUP3 ADD AND DUP3 ADD DUP1 PUSH1 0x40 MSTORE POP DUP2 ADD SWAP1 PUSH2 0x2112 SWAP2 SWAP1 PUSH2 0x5233 JUMP JUMPDEST POP PUSH1 0x0 DUP8 DUP2 MSTORE PUSH1 0x8 PUSH1 0x20 MSTORE PUSH1 0x40 SWAP1 DUP2 SWAP1 KECCAK256 PUSH1 0x80 DUP4 ADD MLOAD SWAP2 MLOAD PUSH4 0x4132F1D PUSH1 0xE3 SHL DUP2 MSTORE PUSH20 0x0 SWAP3 PUSH4 0x209978E8 SWAP3 PUSH2 0x2168 SWAP3 SWAP1 SWAP2 SWAP1 PUSH1 0x4 ADD SWAP2 DUP3 MSTORE PUSH1 0x20 DUP3 ADD MSTORE PUSH1 0x40 ADD SWAP1 JUMP JUMPDEST PUSH1 0x20 PUSH1 0x40 MLOAD DUP1 DUP4 SUB DUP2 DUP7 GAS DELEGATECALL ISZERO DUP1 ISZERO PUSH2 0x2185 JUMPI RETURNDATASIZE PUSH1 0x0 DUP1 RETURNDATACOPY RETURNDATASIZE PUSH1 0x0 REVERT JUMPDEST POP POP POP POP PUSH1 0x40 MLOAD RETURNDATASIZE PUSH1 0x1F NOT PUSH1 0x1F DUP3 ADD AND DUP3 ADD DUP1 PUSH1 0x40 MSTORE POP DUP2 ADD SWAP1 PUSH2 0x21A9 SWAP2 SWAP1 PUSH2 0x5233 JUMP JUMPDEST POP DUP1 MLOAD PUSH2 0x21B5 SWAP1 PUSH2 0x3D27 JUMP JUMPDEST POP POP PUSH1 0x3 SLOAD SWAP8 SWAP7 POP POP POP POP POP POP POP JUMP JUMPDEST PUSH1 0x0 PUSH2 0x75C PUSH1 0x1 PUSH1 0x1 PUSH1 0x40 SHL SUB DUP4 AND PUSH5 0x2540BE400 PUSH2 0x52E5 JUMP JUMPDEST PUSH1 0x40 MLOAD PUSH4 0x23AA9AB PUSH1 0xE6 SHL DUP2 MSTORE PUSH32 0x2E7A327EF83C2AF7579C6634F2F5604519800C5F07626F27BD602FD11ED8E6EC PUSH1 0x4 DUP3 ADD MSTORE PUSH1 0x0 SWAP1 DUP2 SWAP1 PUSH1 0x1 PUSH1 0x1 PUSH1 0xA0 SHL SUB PUSH32 0x0 AND SWAP1 PUSH4 0x8EAA6AC0 SWAP1 PUSH1 0x24 ADD PUSH1 0x20 PUSH1 0x40 MLOAD DUP1 DUP4 SUB DUP2 DUP7 GAS STATICCALL ISZERO DUP1 ISZERO PUSH2 0x2268 JUMPI RETURNDATASIZE PUSH1 0x0 DUP1 RETURNDATACOPY RETURNDATASIZE PUSH1 0x0 REVERT JUMPDEST POP POP POP POP PUSH1 0x40 MLOAD RETURNDATASIZE PUSH1 0x1F NOT PUSH1 0x1F DUP3 ADD AND DUP3 ADD DUP1 PUSH1 0x40 MSTORE POP DUP2 ADD SWAP1 PUSH2 0x228C SWAP2 SWAP1 PUSH2 0x5255 JUMP JUMPDEST PUSH1 0x40 DUP1 MLOAD ADDRESS PUSH1 0x24 DUP3 ADD MSTORE PUSH1 0x1 PUSH1 0x1 PUSH1 0xA0 SHL SUB DUP13 DUP2 AND PUSH1 0x44 DUP4 ADD MSTORE PUSH1 0x64 DUP3 ADD DUP13 SWAP1 MSTORE PUSH1 0x84 DUP3 ADD DUP12 SWAP1 MSTORE PUSH1 0xA4 DUP3 ADD DUP11 SWAP1 MSTORE PUSH1 0xC4 DUP3 ADD DUP10 SWAP1 MSTORE PUSH1 0xE4 DUP3 ADD DUP9 SWAP1 MSTORE PUSH1 0xFF DUP8 AND PUSH2 0x104 DUP1 DUP5 ADD SWAP2 SWAP1 SWAP2 MSTORE DUP4 MLOAD DUP1 DUP5 SUB SWAP1 SWAP2 ADD DUP2 MSTORE PUSH2 0x124 SWAP1 SWAP3 ADD DUP4 MSTORE PUSH1 0x20 DUP3 ADD DUP1 MLOAD PUSH1 0x1 PUSH1 0x1 PUSH1 0xE0 SHL SUB AND PUSH4 0x53308781 PUSH1 0xE1 SHL OR SWAP1 MSTORE SWAP2 MLOAD SWAP3 SWAP1 SWAP2 AND SWAP2 PUSH2 0x2314 SWAP2 SWAP1 PUSH2 0x5272 JUMP JUMPDEST PUSH1 0x0 PUSH1 0x40 MLOAD DUP1 DUP4 SUB DUP2 PUSH1 0x0 DUP7 GAS CALL SWAP2 POP POP RETURNDATASIZE DUP1 PUSH1 0x0 DUP2 EQ PUSH2 0x2351 JUMPI PUSH1 0x40 MLOAD SWAP2 POP PUSH1 0x1F NOT PUSH1 0x3F RETURNDATASIZE ADD AND DUP3 ADD PUSH1 0x40 MSTORE RETURNDATASIZE DUP3 MSTORE RETURNDATASIZE PUSH1 0x0 PUSH1 0x20 DUP5 ADD RETURNDATACOPY PUSH2 0x2356 JUMP JUMPDEST PUSH1 0x60 SWAP2 POP JUMPDEST POP POP SWAP1 POP PUSH2 0x2363 DUP2 PUSH2 0x711 JUMP JUMPDEST POP SWAP8 SWAP7 POP POP POP POP POP POP POP JUMP JUMPDEST PUSH1 0x40 MLOAD PUSH4 0x509FF69B PUSH1 0xE0 SHL DUP2 MSTORE PUSH1 0x1 PUSH1 0x1 PUSH1 0xA0 SHL SUB DUP8 DUP2 AND PUSH1 0x4 DUP4 ADD MSTORE PUSH1 0x0 PUSH1 0x24 DUP4 ADD DUP2 SWAP1 MSTORE SWAP2 PUSH2 0x24AA SWAP2 DUP11 SWAP2 PUSH32 0x0 SWAP1 SWAP2 AND SWAP1 PUSH4 0x509FF69B SWAP1 PUSH1 0x44 ADD PUSH1 0x20 PUSH1 0x40 MLOAD DUP1 DUP4 SUB DUP2 PUSH1 0x0 DUP8 GAS CALL ISZERO DUP1 ISZERO PUSH2 0x23E9 JUMPI RETURNDATASIZE PUSH1 0x0 DUP1 RETURNDATACOPY RETURNDATASIZE PUSH1 0x0 REVERT JUMPDEST POP POP POP POP PUSH1 0x40 MLOAD RETURNDATASIZE PUSH1 0x1F NOT PUSH1 0x1F DUP3 ADD AND DUP3 ADD DUP1 PUSH1 0x40 MSTORE POP DUP2 ADD SWAP1 PUSH2 0x240D SWAP2 SWAP1 PUSH2 0x5368 JUMP JUMPDEST PUSH1 0x40 MLOAD PUSH4 0x509FF69B PUSH1 0xE0 SHL DUP2 MSTORE PUSH1 0x1 PUSH1 0x1 PUSH1 0xA0 SHL SUB DUP11 DUP2 AND PUSH1 0x4 DUP4 ADD MSTORE PUSH1 0x0 PUSH1 0x24 DUP4 ADD MSTORE PUSH32 0x0 AND SWAP1 PUSH4 0x509FF69B SWAP1 PUSH1 0x44 ADD JUMPDEST PUSH1 0x20 PUSH1 0x40 MLOAD DUP1 DUP4 SUB DUP2 PUSH1 0x0 DUP8 GAS CALL ISZERO DUP1 ISZERO PUSH2 0x247D JUMPI RETURNDATASIZE PUSH1 0x0 DUP1 RETURNDATACOPY RETURNDATASIZE PUSH1 0x0 REVERT JUMPDEST POP POP POP POP PUSH1 0x40 MLOAD RETURNDATASIZE PUSH1 0x1F NOT PUSH1 0x1F DUP3 ADD AND DUP3 ADD DUP1 PUSH1 0x40 MSTORE POP DUP2 ADD SWAP1 PUSH2 0x24A1 SWAP2 SWAP1 PUSH2 0x5368 JUMP JUMPDEST DUP9 DUP9 DUP9 DUP9 PUSH2 0x21DF JUMP JUMPDEST SWAP9 SWAP8 POP POP POP POP POP POP POP POP JUMP JUMPDEST PUSH1 0x40 MLOAD PUSH4 0x509FF69B PUSH1 0xE0 SHL DUP2 MSTORE PUSH1 0x1 PUSH1 0x1 PUSH1 0xA0 SHL SUB DUP10 DUP2 AND PUSH1 0x4 DUP4 ADD MSTORE PUSH1 0x24 DUP3 ADD DUP10 SWAP1 MSTORE PUSH1 0x0 SWAP2 PUSH2 0x25AA SWAP2 DUP13 SWAP2 PUSH32 0x0 SWAP1 SWAP2 AND SWAP1 PUSH4 0x509FF69B SWAP1 PUSH1 0x44 ADD JUMPDEST PUSH1 0x20 PUSH1 0x40 MLOAD DUP1 DUP4 SUB DUP2 PUSH1 0x0 DUP8 GAS CALL ISZERO DUP1 ISZERO PUSH2 0x2531 JUMPI RETURNDATASIZE PUSH1 0x0 DUP1 RETURNDATACOPY RETURNDATASIZE PUSH1 0x0 REVERT JUMPDEST POP POP POP POP PUSH1 0x40 MLOAD RETURNDATASIZE PUSH1 0x1F NOT PUSH1 0x1F DUP3 ADD AND DUP3 ADD DUP1 PUSH1 0x40 MSTORE POP DUP2 ADD SWAP1 PUSH2 0x2555 SWAP2 SWAP1 PUSH2 0x5368 JUMP JUMPDEST PUSH1 0x40 MLOAD PUSH4 0x509FF69B PUSH1 0xE0 SHL DUP2 MSTORE PUSH1 0x1 PUSH1 0x1 PUSH1 0xA0 SHL SUB DUP12 DUP2 AND PUSH1 0x4 DUP4 ADD MSTORE PUSH1 0x24 DUP3 ADD DUP12 SWAP1 MSTORE PUSH32 0x0 AND SWAP1 PUSH4 0x509FF69B SWAP1 PUSH1 0x44 ADD PUSH2 0x245E JUMP JUMPDEST SWAP11 SWAP10 POP POP POP POP POP POP POP POP POP POP JUMP JUMPDEST PUSH2 0x25C0 PUSH2 0x2F34 JUMP JUMPDEST PUSH2 0x70F PUSH1 0x0 DUP1 SLOAD PUSH2 0xFF00 NOT AND PUSH2 0x100 OR SWAP1 SSTORE JUMP JUMPDEST PUSH1 0x0 PUSH2 0x262F CALLER PUSH1 0x40 MLOAD PUSH4 0x509FF69B PUSH1 0xE0 SHL DUP2 MSTORE PUSH1 0x1 PUSH1 0x1 PUSH1 0xA0 SHL SUB DUP13 DUP2 AND PUSH1 0x4 DUP4 ADD MSTORE PUSH1 0x24 DUP3 ADD DUP13 SWAP1 MSTORE PUSH32 0x0 AND SWAP1 PUSH4 0x509FF69B SWAP1 PUSH1 0x44 ADD PUSH2 0x2512 JUMP JUMPDEST SWAP10 SWAP9 POP POP POP POP POP POP POP POP POP JUMP JUMPDEST PUSH1 0x0 PUSH2 0x75C PUSH4 0xFFFFFFFF DUP4 AND PUSH5 0xE8D4A51000 PUSH2 0x52E5 JUMP JUMPDEST PUSH2 0x265B PUSH2 0x1158 JUMP JUMPDEST ISZERO PUSH2 0x2678 JUMPI PUSH1 0x40 MLOAD PUSH3 0x461BCD PUSH1 0xE5 SHL DUP2 MSTORE PUSH1 0x4 ADD PUSH2 0x706 SWAP1 PUSH2 0x531A JUMP JUMPDEST PUSH1 0x0 PUSH1 0x5 PUSH1 0x0 DUP4 DUP2 MSTORE PUSH1 0x20 ADD SWAP1 DUP2 MSTORE PUSH1 0x20 ADD PUSH1 0x0 KECCAK256 SWAP1 POP PUSH32 0x0 PUSH1 0x1 PUSH1 0x1 PUSH1 0xA0 SHL SUB AND PUSH4 0x4635229B PUSH1 0x40 MLOAD DUP2 PUSH4 0xFFFFFFFF AND PUSH1 0xE0 SHL DUP2 MSTORE PUSH1 0x4 ADD PUSH1 0x20 PUSH1 0x40 MLOAD DUP1 DUP4 SUB DUP2 DUP7 GAS STATICCALL ISZERO DUP1 ISZERO PUSH2 0x26ED JUMPI RETURNDATASIZE PUSH1 0x0 DUP1 RETURNDATACOPY RETURNDATASIZE PUSH1 0x0 REVERT JUMPDEST POP POP POP POP PUSH1 0x40 MLOAD RETURNDATASIZE PUSH1 0x1F NOT PUSH1 0x1F DUP3 ADD AND DUP3 ADD DUP1 PUSH1 0x40 MSTORE POP DUP2 ADD SWAP1 PUSH2 0x2711 SWAP2 SWAP1 PUSH2 0x5233 JUMP JUMPDEST DUP1 PUSH2 0x2728 JUMPI POP PUSH1 0x1 DUP2 ADD SLOAD PUSH1 0x1 PUSH1 0x1 PUSH1 0xA0 SHL SUB AND CALLER EQ JUMPDEST PUSH2 0x2744 JUMPI PUSH1 0x40 MLOAD PUSH3 0x461BCD PUSH1 0xE5 SHL DUP2 MSTORE PUSH1 0x4 ADD PUSH2 0x706 SWAP1 PUSH2 0x5431 JUMP JUMPDEST PUSH2 0x274F DUP2 PUSH1 0x1 PUSH2 0x378A JUMP JUMPDEST PUSH2 0x727 DUP2 PUSH2 0x3C7C JUMP JUMPDEST PUSH2 0x2760 PUSH2 0x2F34 JUMP JUMPDEST PUSH1 0x1 PUSH1 0x1 PUSH1 0xA0 SHL SUB DUP2 AND PUSH2 0x27C5 JUMPI PUSH1 0x40 MLOAD PUSH3 0x461BCD PUSH1 0xE5 SHL DUP2 MSTORE PUSH1 0x20 PUSH1 0x4 DUP3 ADD MSTORE PUSH1 0x26 PUSH1 0x24 DUP3 ADD MSTORE PUSH32 0x4F776E61626C653A206E6577206F776E657220697320746865207A65726F2061 PUSH1 0x44 DUP3 ADD MSTORE PUSH6 0x646472657373 PUSH1 0xD0 SHL PUSH1 0x64 DUP3 ADD MSTORE PUSH1 0x84 ADD PUSH2 0x706 JUMP JUMPDEST PUSH2 0x27CE DUP2 PUSH2 0x2F95 JUMP JUMPDEST POP JUMP JUMPDEST PUSH1 0x0 PUSH2 0x75C PUSH5 0x174876E800 DUP4 PUSH2 0x52C3 JUMP JUMPDEST PUSH2 0x27EA PUSH2 0x4CD1 JUMP JUMPDEST PUSH1 0x0 DUP4 DUP2 MSTORE PUSH1 0x5 PUSH1 0x20 DUP2 DUP2 MSTORE PUSH1 0x40 DUP1 DUP5 KECCAK256 DUP2 MLOAD PUSH2 0x180 DUP2 ADD DUP4 MSTORE DUP2 SLOAD DUP2 MSTORE PUSH1 0x1 DUP3 ADD SLOAD PUSH1 0x1 PUSH1 0x1 PUSH1 0xA0 SHL SUB DUP2 AND SWAP5 DUP3 ADD SWAP5 SWAP1 SWAP5 MSTORE SWAP4 SWAP1 SWAP3 SWAP2 DUP5 ADD SWAP2 PUSH1 0x1 PUSH1 0xA0 SHL SWAP1 DIV PUSH1 0xFF AND SWAP1 DUP2 GT ISZERO PUSH2 0x283F JUMPI PUSH2 0x283F PUSH2 0x4E48 JUMP JUMPDEST PUSH1 0x5 DUP2 GT ISZERO PUSH2 0x2850 JUMPI PUSH2 0x2850 PUSH2 0x4E48 JUMP JUMPDEST DUP2 MSTORE PUSH1 0x1 DUP3 ADD SLOAD PUSH1 0x1 PUSH1 0xA8 SHL SWAP1 DIV PUSH1 0xFF AND PUSH1 0x20 DUP3 ADD MSTORE PUSH1 0x2 DUP3 ADD SLOAD PUSH1 0x40 DUP1 DUP4 ADD SWAP2 SWAP1 SWAP2 MSTORE PUSH1 0x3 DUP4 ADD SLOAD PUSH1 0x1 PUSH1 0x1 PUSH1 0x40 SHL SUB DUP1 DUP3 AND PUSH1 0x60 DUP6 ADD MSTORE PUSH1 0x1 PUSH1 0x40 SHL DUP1 DUP4 DIV DUP3 AND PUSH1 0x80 DUP7 ADD MSTORE PUSH1 0x1 PUSH1 0x80 SHL DUP1 DUP5 DIV DUP4 AND PUSH1 0xA0 DUP8 ADD MSTORE PUSH1 0x1 PUSH1 0xC0 SHL SWAP1 SWAP4 DIV DUP3 AND PUSH1 0xC0 DUP7 ADD MSTORE PUSH1 0x4 SWAP6 DUP7 ADD SLOAD DUP1 DUP4 AND PUSH1 0xE0 DUP8 ADD MSTORE SWAP1 DUP2 DIV DUP3 AND PUSH2 0x100 DUP7 ADD MSTORE SWAP2 SWAP1 SWAP2 DIV AND PUSH2 0x120 SWAP1 SWAP3 ADD SWAP2 SWAP1 SWAP2 MSTORE DUP3 MLOAD SWAP1 MLOAD PUSH4 0x657C7E09 PUSH1 0xE0 SHL DUP2 MSTORE SWAP2 DUP3 ADD MSTORE SWAP1 SWAP2 POP PUSH32 0x0 PUSH1 0x1 PUSH1 0x1 PUSH1 0xA0 SHL SUB AND SWAP1 PUSH4 0x657C7E09 SWAP1 PUSH1 0x24 ADD PUSH1 0x40 DUP1 MLOAD DUP1 DUP4 SUB DUP2 DUP7 GAS STATICCALL ISZERO DUP1 ISZERO PUSH2 0x2943 JUMPI RETURNDATASIZE PUSH1 0x0 DUP1 RETURNDATACOPY RETURNDATASIZE PUSH1 0x0 REVERT JUMPDEST POP POP POP POP PUSH1 0x40 MLOAD RETURNDATASIZE PUSH1 0x1F NOT PUSH1 0x1F DUP3 ADD AND DUP3 ADD DUP1 PUSH1 0x40 MSTORE POP DUP2 ADD SWAP1 PUSH2 0x2967 SWAP2 SWAP1 PUSH2 0x5344 JUMP JUMPDEST PUSH1 0x40 DUP5 ADD MSTORE PUSH1 0x20 DUP4 ADD MSTORE PUSH1 0x80 DUP2 ADD MLOAD PUSH1 0x60 DUP4 ADD MSTORE DUP3 DUP1 PUSH2 0x2A00 JUMPI POP PUSH1 0x60 DUP2 ADD MLOAD PUSH1 0x40 MLOAD PUSH4 0x36181B67 PUSH1 0xE1 SHL DUP2 MSTORE PUSH1 0xFF SWAP1 SWAP2 AND PUSH1 0x4 DUP3 ADD MSTORE PUSH20 0x0 SWAP1 PUSH4 0x6C3036CE SWAP1 PUSH1 0x24 ADD PUSH1 0x20 PUSH1 0x40 MLOAD DUP1 DUP4 SUB DUP2 DUP7 GAS DELEGATECALL ISZERO DUP1 ISZERO PUSH2 0x29DA JUMPI RETURNDATASIZE PUSH1 0x0 DUP1 RETURNDATACOPY RETURNDATASIZE PUSH1 0x0 REVERT JUMPDEST POP POP POP POP PUSH1 0x40 MLOAD RETURNDATASIZE PUSH1 0x1F NOT PUSH1 0x1F DUP3 ADD AND DUP3 ADD DUP1 PUSH1 0x40 MSTORE POP DUP2 ADD SWAP1 PUSH2 0x29FE SWAP2 SWAP1 PUSH2 0x5233 JUMP JUMPDEST ISZERO JUMPDEST ISZERO PUSH2 0x2E71 JUMPI PUSH1 0x20 DUP2 ADD MLOAD PUSH1 0x1 PUSH1 0x1 PUSH1 0xA0 SHL SUB AND DUP3 MSTORE PUSH1 0xA0 DUP2 ADD MLOAD PUSH2 0x2A23 SWAP1 PUSH2 0x21C5 JUMP JUMPDEST PUSH1 0x80 DUP4 ADD MSTORE PUSH1 0x60 DUP2 ADD MLOAD PUSH1 0x40 MLOAD PUSH4 0x2B2076E3 PUSH1 0xE1 SHL DUP2 MSTORE PUSH1 0xFF SWAP1 SWAP2 AND PUSH1 0x4 DUP3 ADD MSTORE PUSH20 0x0 SWAP1 PUSH4 0x5640EDC6 SWAP1 PUSH1 0x24 ADD PUSH1 0x20 PUSH1 0x40 MLOAD DUP1 DUP4 SUB DUP2 DUP7 GAS DELEGATECALL ISZERO DUP1 ISZERO PUSH2 0x2A80 JUMPI RETURNDATASIZE PUSH1 0x0 DUP1 RETURNDATACOPY RETURNDATASIZE PUSH1 0x0 REVERT JUMPDEST POP POP POP POP PUSH1 0x40 MLOAD RETURNDATASIZE PUSH1 0x1F NOT PUSH1 0x1F DUP3 ADD AND DUP3 ADD DUP1 PUSH1 0x40 MSTORE POP DUP2 ADD SWAP1 PUSH2 0x2AA4 SWAP2 SWAP1 PUSH2 0x5233 JUMP JUMPDEST ISZERO PUSH2 0x2AB8 JUMPI PUSH1 0x80 DUP3 ADD MLOAD PUSH1 0xA0 DUP4 ADD MSTORE PUSH2 0x2BF2 JUMP JUMPDEST PUSH2 0x120 DUP2 ADD MLOAD PUSH1 0x1 PUSH1 0x1 PUSH1 0x40 SHL SUB AND ISZERO PUSH2 0x2AE4 JUMPI PUSH2 0x2ADA DUP2 PUSH2 0x120 ADD MLOAD PUSH2 0x21C5 JUMP JUMPDEST PUSH1 0xA0 DUP4 ADD MSTORE PUSH2 0x2BF2 JUMP JUMPDEST PUSH1 0x40 MLOAD PUSH4 0x23AA9AB PUSH1 0xE6 SHL DUP2 MSTORE PUSH1 0x0 DUP1 MLOAD PUSH1 0x20 PUSH2 0x574F DUP4 CODECOPY DUP2 MLOAD SWAP2 MSTORE PUSH1 0x4 DUP3 ADD MSTORE PUSH32 0x0 PUSH1 0x1 PUSH1 0x1 PUSH1 0xA0 SHL SUB AND SWAP1 PUSH4 0x8EAA6AC0 SWAP1 PUSH1 0x24 ADD PUSH1 0x20 PUSH1 0x40 MLOAD DUP1 DUP4 SUB DUP2 DUP7 GAS STATICCALL ISZERO DUP1 ISZERO PUSH2 0x2B56 JUMPI RETURNDATASIZE PUSH1 0x0 DUP1 RETURNDATACOPY RETURNDATASIZE PUSH1 0x0 REVERT JUMPDEST POP POP POP POP PUSH1 0x40 MLOAD RETURNDATASIZE PUSH1 0x1F NOT PUSH1 0x1F DUP3 ADD AND DUP3 ADD DUP1 PUSH1 0x40 MSTORE POP DUP2 ADD SWAP1 PUSH2 0x2B7A SWAP2 SWAP1 PUSH2 0x5255 JUMP JUMPDEST PUSH1 0x1 PUSH1 0x1 PUSH1 0xA0 SHL SUB AND PUSH4 0xA9BF9858 DUP4 PUSH1 0x20 ADD MLOAD PUSH1 0x40 MLOAD DUP3 PUSH4 0xFFFFFFFF AND PUSH1 0xE0 SHL DUP2 MSTORE PUSH1 0x4 ADD PUSH2 0x2BAB SWAP2 DUP2 MSTORE PUSH1 0x20 ADD SWAP1 JUMP JUMPDEST PUSH1 0x20 PUSH1 0x40 MLOAD DUP1 DUP4 SUB DUP2 DUP7 GAS STATICCALL ISZERO DUP1 ISZERO PUSH2 0x2BC8 JUMPI RETURNDATASIZE PUSH1 0x0 DUP1 RETURNDATACOPY RETURNDATASIZE PUSH1 0x0 REVERT JUMPDEST POP POP POP POP PUSH1 0x40 MLOAD RETURNDATASIZE PUSH1 0x1F NOT PUSH1 0x1F DUP3 ADD AND DUP3 ADD DUP1 PUSH1 0x40 MSTORE POP DUP2 ADD SWAP1 PUSH2 0x2BEC SWAP2 SWAP1 PUSH2 0x5368 JUMP JUMPDEST PUSH1 0xA0 DUP4 ADD MSTORE JUMPDEST PUSH2 0x2BFF DUP2 PUSH1 0xC0 ADD MLOAD PUSH2 0x21C5 JUMP JUMPDEST PUSH1 0xC0 DUP4 ADD MSTORE PUSH1 0xE0 DUP2 ADD MLOAD PUSH2 0x2C12 SWAP1 PUSH2 0x21C5 JUMP JUMPDEST PUSH1 0xE0 DUP4 ADD MSTORE PUSH1 0x60 DUP2 ADD MLOAD PUSH1 0x40 MLOAD PUSH4 0x5B7D0F69 PUSH1 0xE1 SHL DUP2 MSTORE PUSH1 0xFF SWAP1 SWAP2 AND PUSH1 0x4 DUP3 ADD MSTORE PUSH20 0x0 SWAP1 PUSH4 0xB6FA1ED2 SWAP1 PUSH1 0x24 ADD PUSH1 0x20 PUSH1 0x40 MLOAD DUP1 DUP4 SUB DUP2 DUP7 GAS DELEGATECALL ISZERO DUP1 ISZERO PUSH2 0x2C6F JUMPI RETURNDATASIZE PUSH1 0x0 DUP1 RETURNDATACOPY RETURNDATASIZE PUSH1 0x0 REVERT JUMPDEST POP POP POP POP PUSH1 0x40 MLOAD RETURNDATASIZE PUSH1 0x1F NOT PUSH1 0x1F DUP3 ADD AND DUP3 ADD DUP1 PUSH1 0x40 MSTORE POP DUP2 ADD SWAP1 PUSH2 0x2C93 SWAP2 SWAP1 PUSH2 0x5233 JUMP JUMPDEST ISZERO PUSH2 0x2E5C JUMPI PUSH2 0x2CA6 DUP2 PUSH2 0x140 ADD MLOAD PUSH2 0x21C5 JUMP JUMPDEST PUSH2 0x120 DUP4 ADD MSTORE PUSH2 0x160 DUP2 ADD MLOAD PUSH2 0x2CBB SWAP1 PUSH2 0x21C5 JUMP JUMPDEST PUSH2 0x140 DUP4 ADD MSTORE PUSH1 0x40 MLOAD PUSH4 0x23AA9AB PUSH1 0xE6 SHL DUP2 MSTORE PUSH32 0x3CB99135F7A7C088D9085B446345038A22A85F4E8FE072B0E1B66D97243E7458 PUSH1 0x4 DUP3 ADD MSTORE PUSH1 0x0 SWAP1 PUSH32 0x0 PUSH1 0x1 PUSH1 0x1 PUSH1 0xA0 SHL SUB AND SWAP1 PUSH4 0x8EAA6AC0 SWAP1 PUSH1 0x24 ADD PUSH1 0x20 PUSH1 0x40 MLOAD DUP1 DUP4 SUB DUP2 DUP7 GAS STATICCALL ISZERO DUP1 ISZERO PUSH2 0x2D48 JUMPI RETURNDATASIZE PUSH1 0x0 DUP1 RETURNDATACOPY RETURNDATASIZE PUSH1 0x0 REVERT JUMPDEST POP POP POP POP PUSH1 0x40 MLOAD RETURNDATASIZE PUSH1 0x1F NOT PUSH1 0x1F DUP3 ADD AND DUP3 ADD DUP1 PUSH1 0x40 MSTORE POP DUP2 ADD SWAP1 PUSH2 0x2D6C SWAP2 SWAP1 PUSH2 0x5255 JUMP JUMPDEST PUSH1 0x1 PUSH1 0x1 PUSH1 0xA0 SHL SUB AND PUSH4 0x6464B68A DUP5 PUSH1 0x20 ADD MLOAD DUP6 PUSH1 0x40 ADD MLOAD PUSH1 0x40 MLOAD DUP4 PUSH4 0xFFFFFFFF AND PUSH1 0xE0 SHL DUP2 MSTORE PUSH1 0x4 ADD PUSH2 0x2DAA SWAP3 SWAP2 SWAP1 SWAP2 DUP3 MSTORE PUSH1 0x20 DUP3 ADD MSTORE PUSH1 0x40 ADD SWAP1 JUMP JUMPDEST PUSH1 0x60 PUSH1 0x40 MLOAD DUP1 DUP4 SUB DUP2 DUP7 GAS STATICCALL ISZERO DUP1 ISZERO PUSH2 0x2DC7 JUMPI RETURNDATASIZE PUSH1 0x0 DUP1 RETURNDATACOPY RETURNDATASIZE PUSH1 0x0 REVERT JUMPDEST POP POP POP POP PUSH1 0x40 MLOAD RETURNDATASIZE PUSH1 0x1F NOT PUSH1 0x1F DUP3 ADD AND DUP3 ADD DUP1 PUSH1 0x40 MSTORE POP DUP2 ADD SWAP1 PUSH2 0x2DEB SWAP2 SWAP1 PUSH2 0x5381 JUMP JUMPDEST POP SWAP2 POP POP DUP1 PUSH2 0x2E30 JUMPI PUSH1 0x40 MLOAD PUSH3 0x461BCD PUSH1 0xE5 SHL DUP2 MSTORE PUSH1 0x20 PUSH1 0x4 DUP3 ADD MSTORE PUSH1 0x11 PUSH1 0x24 DUP3 ADD MSTORE PUSH17 0x145D5BDD194E88139BDD081C5D5BDD1959 PUSH1 0x7A SHL PUSH1 0x44 DUP3 ADD MSTORE PUSH1 0x64 ADD PUSH2 0x706 JUMP JUMPDEST PUSH2 0x140 DUP4 ADD MLOAD PUSH2 0x2E40 SWAP1 DUP3 PUSH2 0x52C3 JUMP JUMPDEST DUP4 PUSH2 0x120 ADD MLOAD PUSH2 0x2E50 SWAP2 SWAP1 PUSH2 0x52E5 JUMP JUMPDEST PUSH2 0x100 DUP5 ADD MSTORE POP PUSH2 0x2E71 JUMP JUMPDEST PUSH2 0x2E6A DUP2 PUSH2 0x100 ADD MLOAD PUSH2 0x21C5 JUMP JUMPDEST PUSH2 0x100 DUP4 ADD MSTORE JUMPDEST PUSH1 0x40 MLOAD PUSH4 0x212D6CB PUSH1 0xE2 SHL DUP2 MSTORE PUSH20 0x0 SWAP1 PUSH4 0x84B5B2C SWAP1 PUSH2 0x2EA8 SWAP1 DUP5 SWAP1 PUSH1 0x4 ADD PUSH2 0x54A1 JUMP JUMPDEST PUSH1 0x20 PUSH1 0x40 MLOAD DUP1 DUP4 SUB DUP2 DUP7 GAS DELEGATECALL ISZERO DUP1 ISZERO PUSH2 0x2EC5 JUMPI RETURNDATASIZE PUSH1 0x0 DUP1 RETURNDATACOPY RETURNDATASIZE PUSH1 0x0 REVERT JUMPDEST POP POP POP POP PUSH1 0x40 MLOAD RETURNDATASIZE PUSH1 0x1F NOT PUSH1 0x1F DUP3 ADD AND DUP3 ADD DUP1 PUSH1 0x40 MSTORE POP DUP2 ADD SWAP1 PUSH2 0x2EE9 SWAP2 SWAP1 PUSH2 0x5368 JUMP JUMPDEST PUSH2 0x160 DUP4 ADD MSTORE PUSH1 0x40 DUP2 ADD MLOAD PUSH2 0x180 DUP4 ADD SWAP1 PUSH1 0x5 DUP2 GT ISZERO PUSH2 0x2F0B JUMPI PUSH2 0x2F0B PUSH2 0x4E48 JUMP JUMPDEST SWAP1 DUP2 PUSH1 0x5 DUP2 GT ISZERO PUSH2 0x2F1E JUMPI PUSH2 0x2F1E PUSH2 0x4E48 JUMP JUMPDEST SWAP1 MSTORE POP PUSH1 0x60 ADD MLOAD PUSH1 0xFF AND PUSH2 0x1A0 DUP3 ADD MSTORE SWAP3 SWAP2 POP POP JUMP JUMPDEST PUSH1 0x0 SLOAD PUSH1 0x1 PUSH1 0x1 PUSH1 0xA0 SHL SUB PUSH3 0x10000 SWAP1 SWAP2 DIV AND CALLER EQ PUSH2 0x70F JUMPI PUSH1 0x40 MLOAD PUSH3 0x461BCD PUSH1 0xE5 SHL DUP2 MSTORE PUSH1 0x20 PUSH1 0x4 DUP3 ADD MSTORE PUSH1 0x1F PUSH1 0x24 DUP3 ADD MSTORE PUSH32 0x416C6C6F77616E63653A2063616C6C6572206D757374206265204F776E657200 PUSH1 0x44 DUP3 ADD MSTORE PUSH1 0x64 ADD PUSH2 0x706 JUMP JUMPDEST PUSH1 0x0 DUP1 SLOAD PUSH1 0x1 PUSH1 0x1 PUSH1 0xA0 SHL SUB DUP4 DUP2 AND PUSH3 0x10000 DUP2 DUP2 MUL PUSH3 0x10000 PUSH1 0x1 PUSH1 0xB0 SHL SUB NOT DUP6 AND OR DUP6 SSTORE PUSH1 0x40 MLOAD SWAP4 DIV SWAP2 SWAP1 SWAP2 AND SWAP3 SWAP1 SWAP2 DUP4 SWAP2 PUSH32 0x8BE0079C531659141344CD1FD0A4F28419497F9722A3DAAFE3B4186F6B6457E0 SWAP2 LOG3 POP POP JUMP JUMPDEST PUSH1 0x0 DUP1 DUP1 PUSH1 0x0 DUP1 PUSH8 0xDE0B6B3A7640000 PUSH2 0x3020 DUP11 PUSH1 0x3 ADD PUSH1 0x18 SWAP1 SLOAD SWAP1 PUSH2 0x100 EXP SWAP1 DIV PUSH1 0x1 PUSH1 0x1 PUSH1 0x40 SHL SUB AND PUSH2 0x21C5 JUMP JUMPDEST PUSH2 0x302A SWAP1 DUP9 PUSH2 0x52E5 JUMP JUMPDEST PUSH2 0x3034 SWAP2 SWAP1 PUSH2 0x52C3 JUMP JUMPDEST DUP10 SLOAD PUSH1 0x40 MLOAD PUSH4 0x657C7E09 PUSH1 0xE0 SHL DUP2 MSTORE SWAP2 SWAP3 POP PUSH1 0x0 SWAP2 DUP3 SWAP2 PUSH1 0x1 PUSH1 0x1 PUSH1 0xA0 SHL SUB PUSH32 0x0 AND SWAP2 PUSH4 0x657C7E09 SWAP2 PUSH2 0x308C SWAP2 PUSH1 0x4 ADD SWAP1 DUP2 MSTORE PUSH1 0x20 ADD SWAP1 JUMP JUMPDEST PUSH1 0x40 DUP1 MLOAD DUP1 DUP4 SUB DUP2 DUP7 GAS STATICCALL ISZERO DUP1 ISZERO PUSH2 0x30A8 JUMPI RETURNDATASIZE PUSH1 0x0 DUP1 RETURNDATACOPY RETURNDATASIZE PUSH1 0x0 REVERT JUMPDEST POP POP POP POP PUSH1 0x40 MLOAD RETURNDATASIZE PUSH1 0x1F NOT PUSH1 0x1F DUP3 ADD AND DUP3 ADD DUP1 PUSH1 0x40 MSTORE POP DUP2 ADD SWAP1 PUSH2 0x30CC SWAP2 SWAP1 PUSH2 0x5344 JUMP JUMPDEST PUSH1 0x1 DUP14 ADD SLOAD PUSH1 0x40 MLOAD PUSH4 0xF0340A37 PUSH1 0xE0 SHL DUP2 MSTORE PUSH1 0x1 PUSH1 0xA8 SHL SWAP1 SWAP2 DIV PUSH1 0xFF AND PUSH1 0x4 DUP3 ADD MSTORE SWAP2 SWAP4 POP SWAP2 POP PUSH20 0x0 SWAP1 PUSH4 0xF0340A37 SWAP1 PUSH1 0x24 ADD PUSH1 0x20 PUSH1 0x40 MLOAD DUP1 DUP4 SUB DUP2 DUP7 GAS DELEGATECALL ISZERO DUP1 ISZERO PUSH2 0x312F JUMPI RETURNDATASIZE PUSH1 0x0 DUP1 RETURNDATACOPY RETURNDATASIZE PUSH1 0x0 REVERT JUMPDEST POP POP POP POP PUSH1 0x40 MLOAD RETURNDATASIZE PUSH1 0x1F NOT PUSH1 0x1F DUP3 ADD AND DUP3 ADD DUP1 PUSH1 0x40 MSTORE POP DUP2 ADD SWAP1 PUSH2 0x3153 SWAP2 SWAP1 PUSH2 0x5233 JUMP JUMPDEST ISZERO PUSH2 0x325B JUMPI PUSH1 0x40 MLOAD PUSH4 0x23AA9AB PUSH1 0xE6 SHL DUP2 MSTORE PUSH1 0x0 DUP1 MLOAD PUSH1 0x20 PUSH2 0x574F DUP4 CODECOPY DUP2 MLOAD SWAP2 MSTORE PUSH1 0x4 DUP3 ADD MSTORE PUSH32 0x0 PUSH1 0x1 PUSH1 0x1 PUSH1 0xA0 SHL SUB AND SWAP1 PUSH4 0x8EAA6AC0 SWAP1 PUSH1 0x24 ADD PUSH1 0x20 PUSH1 0x40 MLOAD DUP1 DUP4 SUB DUP2 DUP7 GAS STATICCALL ISZERO DUP1 ISZERO PUSH2 0x31CA JUMPI RETURNDATASIZE PUSH1 0x0 DUP1 RETURNDATACOPY RETURNDATASIZE PUSH1 0x0 REVERT JUMPDEST POP POP POP POP PUSH1 0x40 MLOAD RETURNDATASIZE PUSH1 0x1F NOT PUSH1 0x1F DUP3 ADD AND DUP3 ADD DUP1 PUSH1 0x40 MSTORE POP DUP2 ADD SWAP1 PUSH2 0x31EE SWAP2 SWAP1 PUSH2 0x5255 JUMP JUMPDEST PUSH1 0x1 DUP13 ADD SLOAD PUSH1 0x40 MLOAD PUSH4 0x255318AF PUSH1 0xE2 SHL DUP2 MSTORE PUSH1 0x1 PUSH1 0x1 PUSH1 0xA0 SHL SUB SWAP3 DUP4 AND SWAP3 PUSH4 0x954C62BC SWAP3 PUSH2 0x3228 SWAP3 DUP8 SWAP3 SWAP1 SWAP2 AND SWAP1 ADDRESS SWAP1 DUP15 SWAP1 PUSH1 0x4 ADD PUSH2 0x547C JUMP JUMPDEST PUSH1 0x0 PUSH1 0x40 MLOAD DUP1 DUP4 SUB DUP2 PUSH1 0x0 DUP8 DUP1 EXTCODESIZE ISZERO DUP1 ISZERO PUSH2 0x3242 JUMPI PUSH1 0x0 DUP1 REVERT JUMPDEST POP GAS CALL ISZERO DUP1 ISZERO PUSH2 0x3256 JUMPI RETURNDATASIZE PUSH1 0x0 DUP1 RETURNDATACOPY RETURNDATASIZE PUSH1 0x0 REVERT JUMPDEST POP POP POP POP JUMPDEST DUP9 ISZERO PUSH2 0x335B JUMPI PUSH1 0x40 MLOAD PUSH4 0x23AA9AB PUSH1 0xE6 SHL DUP2 MSTORE PUSH1 0x0 DUP1 MLOAD PUSH1 0x20 PUSH2 0x574F DUP4 CODECOPY DUP2 MLOAD SWAP2 MSTORE PUSH1 0x4 DUP3 ADD MSTORE PUSH32 0x0 PUSH1 0x1 PUSH1 0x1 PUSH1 0xA0 SHL SUB AND SWAP1 PUSH4 0x8EAA6AC0 SWAP1 PUSH1 0x24 ADD PUSH1 0x20 PUSH1 0x40 MLOAD DUP1 DUP4 SUB DUP2 DUP7 GAS STATICCALL ISZERO DUP1 ISZERO PUSH2 0x32D3 JUMPI RETURNDATASIZE PUSH1 0x0 DUP1 RETURNDATACOPY RETURNDATASIZE PUSH1 0x0 REVERT JUMPDEST POP POP POP POP PUSH1 0x40 MLOAD RETURNDATASIZE PUSH1 0x1F NOT PUSH1 0x1F DUP3 ADD AND DUP3 ADD DUP1 PUSH1 0x40 MSTORE POP DUP2 ADD SWAP1 PUSH2 0x32F7 SWAP2 SWAP1 PUSH2 0x5255 JUMP JUMPDEST PUSH1 0x1 PUSH1 0x1 PUSH1 0xA0 SHL SUB AND PUSH4 0x954C62BC DUP3 DUP13 ADDRESS DUP8 PUSH1 0x40 MLOAD DUP6 PUSH4 0xFFFFFFFF AND PUSH1 0xE0 SHL DUP2 MSTORE PUSH1 0x4 ADD PUSH2 0x3328 SWAP5 SWAP4 SWAP3 SWAP2 SWAP1 PUSH2 0x547C JUMP JUMPDEST PUSH1 0x0 PUSH1 0x40 MLOAD DUP1 DUP4 SUB DUP2 PUSH1 0x0 DUP8 DUP1 EXTCODESIZE ISZERO DUP1 ISZERO PUSH2 0x3342 JUMPI PUSH1 0x0 DUP1 REVERT JUMPDEST POP GAS CALL ISZERO DUP1 ISZERO PUSH2 0x3356 JUMPI RETURNDATASIZE PUSH1 0x0 DUP1 RETURNDATACOPY RETURNDATASIZE PUSH1 0x0 REVERT JUMPDEST POP POP POP POP JUMPDEST DUP6 ISZERO PUSH2 0x3464 JUMPI PUSH1 0x40 MLOAD PUSH4 0x23AA9AB PUSH1 0xE6 SHL DUP2 MSTORE PUSH1 0x0 DUP1 MLOAD PUSH1 0x20 PUSH2 0x574F DUP4 CODECOPY DUP2 MLOAD SWAP2 MSTORE PUSH1 0x4 DUP3 ADD MSTORE PUSH32 0x0 PUSH1 0x1 PUSH1 0x1 PUSH1 0xA0 SHL SUB AND SWAP1 PUSH4 0x8EAA6AC0 SWAP1 PUSH1 0x24 ADD PUSH1 0x20 PUSH1 0x40 MLOAD DUP1 DUP4 SUB DUP2 DUP7 GAS STATICCALL ISZERO DUP1 ISZERO PUSH2 0x33D3 JUMPI RETURNDATASIZE PUSH1 0x0 DUP1 RETURNDATACOPY RETURNDATASIZE PUSH1 0x0 REVERT JUMPDEST POP POP POP POP PUSH1 0x40 MLOAD RETURNDATASIZE PUSH1 0x1F NOT PUSH1 0x1F DUP3 ADD AND DUP3 ADD DUP1 PUSH1 0x40 MSTORE POP DUP2 ADD SWAP1 PUSH2 0x33F7 SWAP2 SWAP1 PUSH2 0x5255 JUMP JUMPDEST PUSH1 0x1 DUP13 ADD SLOAD PUSH1 0x40 MLOAD PUSH4 0x1C9619A7 PUSH1 0xE0 SHL DUP2 MSTORE PUSH1 0x1 PUSH1 0x1 PUSH1 0xA0 SHL SUB SWAP3 DUP4 AND SWAP3 PUSH4 0x1C9619A7 SWAP3 PUSH2 0x3431 SWAP3 DUP8 SWAP3 SWAP1 SWAP2 AND SWAP1 DUP13 SWAP1 DUP13 SWAP1 PUSH1 0x4 ADD PUSH2 0x547C JUMP JUMPDEST PUSH1 0x0 PUSH1 0x40 MLOAD DUP1 DUP4 SUB DUP2 PUSH1 0x0 DUP8 DUP1 EXTCODESIZE ISZERO DUP1 ISZERO PUSH2 0x344B JUMPI PUSH1 0x0 DUP1 REVERT JUMPDEST POP GAS CALL ISZERO DUP1 ISZERO PUSH2 0x345F JUMPI RETURNDATASIZE PUSH1 0x0 DUP1 RETURNDATACOPY RETURNDATASIZE PUSH1 0x0 REVERT JUMPDEST POP POP POP POP JUMPDEST DUP4 ISZERO PUSH2 0x3564 JUMPI PUSH1 0x40 MLOAD PUSH4 0x23AA9AB PUSH1 0xE6 SHL DUP2 MSTORE PUSH1 0x0 DUP1 MLOAD PUSH1 0x20 PUSH2 0x574F DUP4 CODECOPY DUP2 MLOAD SWAP2 MSTORE PUSH1 0x4 DUP3 ADD MSTORE PUSH32 0x0 PUSH1 0x1 PUSH1 0x1 PUSH1 0xA0 SHL SUB AND SWAP1 PUSH4 0x8EAA6AC0 SWAP1 PUSH1 0x24 ADD PUSH1 0x20 PUSH1 0x40 MLOAD DUP1 DUP4 SUB DUP2 DUP7 GAS STATICCALL ISZERO DUP1 ISZERO PUSH2 0x34DC JUMPI RETURNDATASIZE PUSH1 0x0 DUP1 RETURNDATACOPY RETURNDATASIZE PUSH1 0x0 REVERT JUMPDEST POP POP POP POP PUSH1 0x40 MLOAD RETURNDATASIZE PUSH1 0x1F NOT PUSH1 0x1F DUP3 ADD AND DUP3 ADD DUP1 PUSH1 0x40 MSTORE POP DUP2 ADD SWAP1 PUSH2 0x3500 SWAP2 SWAP1 PUSH2 0x5255 JUMP JUMPDEST PUSH1 0x1 PUSH1 0x1 PUSH1 0xA0 SHL SUB AND PUSH4 0x1C9619A7 DUP3 DUP13 DUP9 DUP9 PUSH1 0x40 MLOAD DUP6 PUSH4 0xFFFFFFFF AND PUSH1 0xE0 SHL DUP2 MSTORE PUSH1 0x4 ADD PUSH2 0x3531 SWAP5 SWAP4 SWAP3 SWAP2 SWAP1 PUSH2 0x547C JUMP JUMPDEST PUSH1 0x0 PUSH1 0x40 MLOAD DUP1 DUP4 SUB DUP2 PUSH1 0x0 DUP8 DUP1 EXTCODESIZE ISZERO DUP1 ISZERO PUSH2 0x354B JUMPI PUSH1 0x0 DUP1 REVERT JUMPDEST POP GAS CALL ISZERO DUP1 ISZERO PUSH2 0x355F JUMPI RETURNDATASIZE PUSH1 0x0 DUP1 RETURNDATACOPY RETURNDATASIZE PUSH1 0x0 REVERT JUMPDEST POP POP POP POP JUMPDEST PUSH1 0x40 MLOAD PUSH4 0x23AA9AB PUSH1 0xE6 SHL DUP2 MSTORE PUSH1 0x0 DUP1 MLOAD PUSH1 0x20 PUSH2 0x574F DUP4 CODECOPY DUP2 MLOAD SWAP2 MSTORE PUSH1 0x4 DUP3 ADD MSTORE PUSH32 0x0 PUSH1 0x1 PUSH1 0x1 PUSH1 0xA0 SHL SUB AND SWAP1 PUSH4 0x8EAA6AC0 SWAP1 PUSH1 0x24 ADD PUSH1 0x20 PUSH1 0x40 MLOAD DUP1 DUP4 SUB DUP2 DUP7 GAS STATICCALL ISZERO DUP1 ISZERO PUSH2 0x35D6 JUMPI RETURNDATASIZE PUSH1 0x0 DUP1 RETURNDATACOPY RETURNDATASIZE PUSH1 0x0 REVERT JUMPDEST POP POP POP POP PUSH1 0x40 MLOAD RETURNDATASIZE PUSH1 0x1F NOT PUSH1 0x1F DUP3 ADD AND DUP3 ADD DUP1 PUSH1 0x40 MSTORE POP DUP2 ADD SWAP1 PUSH2 0x35FA SWAP2 SWAP1 PUSH2 0x5255 JUMP JUMPDEST PUSH1 0x1 DUP13 ADD SLOAD PUSH1 0x1 PUSH1 0x1 PUSH1 0xA0 SHL SUB SWAP2 DUP3 AND SWAP2 PUSH4 0x1C9619A7 SWAP2 DUP6 SWAP2 AND DUP14 PUSH2 0x361F DUP12 DUP15 PUSH2 0x53AF JUMP JUMPDEST PUSH1 0x40 MLOAD DUP6 PUSH4 0xFFFFFFFF AND PUSH1 0xE0 SHL DUP2 MSTORE PUSH1 0x4 ADD PUSH2 0x363E SWAP5 SWAP4 SWAP3 SWAP2 SWAP1 PUSH2 0x547C JUMP JUMPDEST PUSH1 0x0 PUSH1 0x40 MLOAD DUP1 DUP4 SUB DUP2 PUSH1 0x0 DUP8 DUP1 EXTCODESIZE ISZERO DUP1 ISZERO PUSH2 0x3658 JUMPI PUSH1 0x0 DUP1 REVERT JUMPDEST POP GAS CALL ISZERO DUP1 ISZERO PUSH2 0x366C JUMPI RETURNDATASIZE PUSH1 0x0 DUP1 RETURNDATACOPY RETURNDATASIZE PUSH1 0x0 REVERT JUMPDEST POP POP PUSH1 0x40 MLOAD PUSH4 0x23AA9AB PUSH1 0xE6 SHL DUP2 MSTORE PUSH1 0x0 DUP1 MLOAD PUSH1 0x20 PUSH2 0x574F DUP4 CODECOPY DUP2 MLOAD SWAP2 MSTORE PUSH1 0x4 DUP3 ADD MSTORE PUSH32 0x0 PUSH1 0x1 PUSH1 0x1 PUSH1 0xA0 SHL SUB AND SWAP3 POP PUSH4 0x8EAA6AC0 SWAP2 POP PUSH1 0x24 ADD PUSH1 0x20 PUSH1 0x40 MLOAD DUP1 DUP4 SUB DUP2 DUP7 GAS STATICCALL ISZERO DUP1 ISZERO PUSH2 0x36E2 JUMPI RETURNDATASIZE PUSH1 0x0 DUP1 RETURNDATACOPY RETURNDATASIZE PUSH1 0x0 REVERT JUMPDEST POP POP POP POP PUSH1 0x40 MLOAD RETURNDATASIZE PUSH1 0x1F NOT PUSH1 0x1F DUP3 ADD AND DUP3 ADD DUP1 PUSH1 0x40 MSTORE POP DUP2 ADD SWAP1 PUSH2 0x3706 SWAP2 SWAP1 PUSH2 0x5255 JUMP JUMPDEST PUSH1 0x1 DUP13 ADD SLOAD PUSH1 0x1 PUSH1 0x1 PUSH1 0xA0 SHL SUB SWAP2 DUP3 AND SWAP2 PUSH4 0x1C9619A7 SWAP2 DUP5 SWAP2 DUP15 SWAP2 AND PUSH2 0x372C DUP10 DUP10 PUSH2 0x53AF JUMP JUMPDEST PUSH1 0x40 MLOAD DUP6 PUSH4 0xFFFFFFFF AND PUSH1 0xE0 SHL DUP2 MSTORE PUSH1 0x4 ADD PUSH2 0x374B SWAP5 SWAP4 SWAP3 SWAP2 SWAP1 PUSH2 0x547C JUMP JUMPDEST PUSH1 0x0 PUSH1 0x40 MLOAD DUP1 DUP4 SUB DUP2 PUSH1 0x0 DUP8 DUP1 EXTCODESIZE ISZERO DUP1 ISZERO PUSH2 0x3765 JUMPI PUSH1 0x0 DUP1 REVERT JUMPDEST POP GAS CALL ISZERO DUP1 ISZERO PUSH2 0x3779 JUMPI RETURNDATASIZE PUSH1 0x0 DUP1 RETURNDATACOPY RETURNDATASIZE PUSH1 0x0 REVERT JUMPDEST POP POP POP POP POP POP POP POP POP POP POP POP POP POP POP JUMP JUMPDEST PUSH1 0x0 DUP2 PUSH1 0x5 DUP2 GT ISZERO PUSH2 0x379E JUMPI PUSH2 0x379E PUSH2 0x4E48 JUMP JUMPDEST GT DUP1 ISZERO PUSH2 0x37BD JUMPI POP PUSH1 0x3 DUP2 PUSH1 0x5 DUP2 GT ISZERO PUSH2 0x37BA JUMPI PUSH2 0x37BA PUSH2 0x4E48 JUMP JUMPDEST GT ISZERO JUMPDEST DUP1 ISZERO PUSH2 0x37E9 JUMPI POP PUSH1 0x4 PUSH1 0x1 DUP4 ADD SLOAD PUSH1 0x1 PUSH1 0xA0 SHL SWAP1 DIV PUSH1 0xFF AND PUSH1 0x5 DUP2 GT ISZERO PUSH2 0x37E6 JUMPI PUSH2 0x37E6 PUSH2 0x4E48 JUMP JUMPDEST LT ISZERO JUMPDEST PUSH2 0x3835 JUMPI PUSH1 0x40 MLOAD PUSH3 0x461BCD PUSH1 0xE5 SHL DUP2 MSTORE PUSH1 0x20 PUSH1 0x4 DUP3 ADD MSTORE PUSH1 0x1D PUSH1 0x24 DUP3 ADD MSTORE PUSH32 0x5F6F726465725465726D696E6174652073746174652070726F626C656D000000 PUSH1 0x44 DUP3 ADD MSTORE PUSH1 0x64 ADD PUSH2 0x706 JUMP JUMPDEST DUP2 SLOAD PUSH1 0x40 MLOAD PUSH4 0x657C7E09 PUSH1 0xE0 SHL DUP2 MSTORE PUSH1 0x4 DUP2 ADD SWAP2 SWAP1 SWAP2 MSTORE PUSH1 0x0 SWAP1 DUP2 SWAP1 PUSH32 0x0 PUSH1 0x1 PUSH1 0x1 PUSH1 0xA0 SHL SUB AND SWAP1 PUSH4 0x657C7E09 SWAP1 PUSH1 0x24 ADD PUSH1 0x40 DUP1 MLOAD DUP1 DUP4 SUB DUP2 DUP7 GAS STATICCALL ISZERO DUP1 ISZERO PUSH2 0x38A1 JUMPI RETURNDATASIZE PUSH1 0x0 DUP1 RETURNDATACOPY RETURNDATASIZE PUSH1 0x0 REVERT JUMPDEST POP POP POP POP PUSH1 0x40 MLOAD RETURNDATASIZE PUSH1 0x1F NOT PUSH1 0x1F DUP3 ADD AND DUP3 ADD DUP1 PUSH1 0x40 MSTORE POP DUP2 ADD SWAP1 PUSH2 0x38C5 SWAP2 SWAP1 PUSH2 0x5344 JUMP JUMPDEST PUSH1 0x1 DUP7 ADD DUP1 SLOAD SWAP3 SWAP5 POP SWAP1 SWAP3 POP DUP5 SWAP2 PUSH1 0xFF PUSH1 0xA0 SHL NOT AND PUSH1 0x1 PUSH1 0xA0 SHL DUP4 PUSH1 0x5 DUP2 GT ISZERO PUSH2 0x38F1 JUMPI PUSH2 0x38F1 PUSH2 0x4E48 JUMP JUMPDEST MUL OR SWAP1 SSTORE POP PUSH1 0x1 DUP5 ADD SLOAD PUSH1 0x40 MLOAD PUSH4 0xF0340A37 PUSH1 0xE0 SHL DUP2 MSTORE PUSH1 0x1 PUSH1 0xA8 SHL SWAP1 SWAP2 DIV PUSH1 0xFF AND PUSH1 0x4 DUP3 ADD MSTORE PUSH20 0x0 SWAP1 PUSH4 0xF0340A37 SWAP1 PUSH1 0x24 ADD PUSH1 0x20 PUSH1 0x40 MLOAD DUP1 DUP4 SUB DUP2 DUP7 GAS DELEGATECALL ISZERO DUP1 ISZERO PUSH2 0x3954 JUMPI RETURNDATASIZE PUSH1 0x0 DUP1 RETURNDATACOPY RETURNDATASIZE PUSH1 0x0 REVERT JUMPDEST POP POP POP POP PUSH1 0x40 MLOAD RETURNDATASIZE PUSH1 0x1F NOT PUSH1 0x1F DUP3 ADD AND DUP3 ADD DUP1 PUSH1 0x40 MSTORE POP DUP2 ADD SWAP1 PUSH2 0x3978 SWAP2 SWAP1 PUSH2 0x5233 JUMP JUMPDEST ISZERO PUSH2 0x3AAF JUMPI PUSH1 0x40 MLOAD PUSH4 0x23AA9AB PUSH1 0xE6 SHL DUP2 MSTORE PUSH1 0x0 DUP1 MLOAD PUSH1 0x20 PUSH2 0x574F DUP4 CODECOPY DUP2 MLOAD SWAP2 MSTORE PUSH1 0x4 DUP3 ADD MSTORE PUSH32 0x0 PUSH1 0x1 PUSH1 0x1 PUSH1 0xA0 SHL SUB AND SWAP1 PUSH4 0x8EAA6AC0 SWAP1 PUSH1 0x24 ADD PUSH1 0x20 PUSH1 0x40 MLOAD DUP1 DUP4 SUB DUP2 DUP7 GAS STATICCALL ISZERO DUP1 ISZERO PUSH2 0x39EF JUMPI RETURNDATASIZE PUSH1 0x0 DUP1 RETURNDATACOPY RETURNDATASIZE PUSH1 0x0 REVERT JUMPDEST POP POP POP POP PUSH1 0x40 MLOAD RETURNDATASIZE PUSH1 0x1F NOT PUSH1 0x1F DUP3 ADD AND DUP3 ADD DUP1 PUSH1 0x40 MSTORE POP DUP2 ADD SWAP1 PUSH2 0x3A13 SWAP2 SWAP1 PUSH2 0x5255 JUMP JUMPDEST PUSH1 0x1 DUP6 ADD SLOAD PUSH1 0x3 DUP7 ADD SLOAD PUSH1 0x1 PUSH1 0x1 PUSH1 0xA0 SHL SUB SWAP3 DUP4 AND SWAP3 PUSH4 0x954C62BC SWAP3 DUP6 SWAP3 SWAP2 AND SWAP1 ADDRESS SWAP1 PUSH2 0x3A5D SWAP1 PUSH2 0x464 SWAP1 PUSH1 0x1 PUSH1 0x1 PUSH1 0x40 SHL SUB PUSH1 0x1 PUSH1 0x40 SHL DUP3 DIV DUP2 AND SWAP2 PUSH1 0x1 PUSH1 0x80 SHL SWAP1 DIV AND PUSH2 0x53DE JUMP JUMPDEST PUSH1 0x40 MLOAD DUP6 PUSH4 0xFFFFFFFF AND PUSH1 0xE0 SHL DUP2 MSTORE PUSH1 0x4 ADD PUSH2 0x3A7C SWAP5 SWAP4 SWAP3 SWAP2 SWAP1 PUSH2 0x547C JUMP JUMPDEST PUSH1 0x0 PUSH1 0x40 MLOAD DUP1 DUP4 SUB DUP2 PUSH1 0x0 DUP8 DUP1 EXTCODESIZE ISZERO DUP1 ISZERO PUSH2 0x3A96 JUMPI PUSH1 0x0 DUP1 REVERT JUMPDEST POP GAS CALL ISZERO DUP1 ISZERO PUSH2 0x3AAA JUMPI RETURNDATASIZE PUSH1 0x0 DUP1 RETURNDATACOPY RETURNDATASIZE PUSH1 0x0 REVERT JUMPDEST POP POP POP POP JUMPDEST DUP4 SLOAD PUSH1 0x0 SWAP1 DUP2 MSTORE PUSH1 0x6 PUSH1 0x20 MSTORE PUSH1 0x40 SWAP1 DUP2 SWAP1 KECCAK256 PUSH1 0x2 DUP7 ADD SLOAD SWAP2 MLOAD PUSH4 0xCEF945B PUSH1 0xE3 SHL DUP2 MSTORE PUSH20 0x0 SWAP3 PUSH4 0x677CA2D8 SWAP3 PUSH2 0x3B06 SWAP3 SWAP1 SWAP2 SWAP1 PUSH1 0x4 ADD SWAP2 DUP3 MSTORE PUSH1 0x20 DUP3 ADD MSTORE PUSH1 0x40 ADD SWAP1 JUMP JUMPDEST PUSH1 0x20 PUSH1 0x40 MLOAD DUP1 DUP4 SUB DUP2 DUP7 GAS DELEGATECALL ISZERO DUP1 ISZERO PUSH2 0x3B23 JUMPI RETURNDATASIZE PUSH1 0x0 DUP1 RETURNDATACOPY RETURNDATASIZE PUSH1 0x0 REVERT JUMPDEST POP POP POP POP PUSH1 0x40 MLOAD RETURNDATASIZE PUSH1 0x1F NOT PUSH1 0x1F DUP3 ADD AND DUP3 ADD DUP1 PUSH1 0x40 MSTORE POP DUP2 ADD SWAP1 PUSH2 0x3B47 SWAP2 SWAP1 PUSH2 0x5233 JUMP JUMPDEST POP PUSH1 0x0 DUP3 DUP2 MSTORE PUSH1 0x7 PUSH1 0x20 MSTORE PUSH1 0x40 SWAP1 DUP2 SWAP1 KECCAK256 PUSH1 0x2 DUP7 ADD SLOAD SWAP2 MLOAD PUSH4 0xCEF945B PUSH1 0xE3 SHL DUP2 MSTORE PUSH20 0x0 SWAP3 PUSH4 0x677CA2D8 SWAP3 PUSH2 0x3B9D SWAP3 SWAP1 SWAP2 SWAP1 PUSH1 0x4 ADD SWAP2 DUP3 MSTORE PUSH1 0x20 DUP3 ADD MSTORE PUSH1 0x40 ADD SWAP1 JUMP JUMPDEST PUSH1 0x20 PUSH1 0x40 MLOAD DUP1 DUP4 SUB DUP2 DUP7 GAS DELEGATECALL ISZERO DUP1 ISZERO PUSH2 0x3BBA JUMPI RETURNDATASIZE PUSH1 0x0 DUP1 RETURNDATACOPY RETURNDATASIZE PUSH1 0x0 REVERT JUMPDEST POP POP POP POP PUSH1 0x40 MLOAD RETURNDATASIZE PUSH1 0x1F NOT PUSH1 0x1F DUP3 ADD AND DUP3 ADD DUP1 PUSH1 0x40 MSTORE POP DUP2 ADD SWAP1 PUSH2 0x3BDE SWAP2 SWAP1 PUSH2 0x5233 JUMP JUMPDEST POP PUSH1 0x0 DUP2 DUP2 MSTORE PUSH1 0x8 PUSH1 0x20 MSTORE PUSH1 0x40 SWAP1 DUP2 SWAP1 KECCAK256 PUSH1 0x2 DUP7 ADD SLOAD SWAP2 MLOAD PUSH4 0xCEF945B PUSH1 0xE3 SHL DUP2 MSTORE PUSH20 0x0 SWAP3 PUSH4 0x677CA2D8 SWAP3 PUSH2 0x3C34 SWAP3 SWAP1 SWAP2 SWAP1 PUSH1 0x4 ADD SWAP2 DUP3 MSTORE PUSH1 0x20 DUP3 ADD MSTORE PUSH1 0x40 ADD SWAP1 JUMP JUMPDEST PUSH1 0x20 PUSH1 0x40 MLOAD DUP1 DUP4 SUB DUP2 DUP7 GAS DELEGATECALL ISZERO DUP1 ISZERO PUSH2 0x3C51 JUMPI RETURNDATASIZE PUSH1 0x0 DUP1 RETURNDATACOPY RETURNDATASIZE PUSH1 0x0 REVERT JUMPDEST POP POP POP POP PUSH1 0x40 MLOAD RETURNDATASIZE PUSH1 0x1F NOT PUSH1 0x1F DUP3 ADD AND DUP3 ADD DUP1 PUSH1 0x40 MSTORE POP DUP2 ADD SWAP1 PUSH2 0x3C75 SWAP2 SWAP1 PUSH2 0x5233 JUMP JUMPDEST POP POP POP POP POP JUMP JUMPDEST PUSH1 0x2 DUP2 ADD SLOAD PUSH1 0x40 MLOAD PUSH4 0xCEF945B PUSH1 0xE3 SHL DUP2 MSTORE PUSH1 0x4 DUP1 DUP3 ADD MSTORE PUSH1 0x24 DUP2 ADD SWAP2 SWAP1 SWAP2 MSTORE PUSH20 0x0 SWAP1 PUSH4 0x677CA2D8 SWAP1 PUSH1 0x44 ADD PUSH1 0x20 PUSH1 0x40 MLOAD DUP1 DUP4 SUB DUP2 DUP7 GAS DELEGATECALL ISZERO DUP1 ISZERO PUSH2 0x3CD8 JUMPI RETURNDATASIZE PUSH1 0x0 DUP1 RETURNDATACOPY RETURNDATASIZE PUSH1 0x0 REVERT JUMPDEST POP POP POP POP PUSH1 0x40 MLOAD RETURNDATASIZE PUSH1 0x1F NOT PUSH1 0x1F DUP3 ADD AND DUP3 ADD DUP1 PUSH1 0x40 MSTORE POP DUP2 ADD SWAP1 PUSH2 0x3CFC SWAP2 SWAP1 PUSH2 0x5233 JUMP JUMPDEST POP NUMBER PUSH1 0x0 SWAP1 DUP2 MSTORE PUSH1 0x9 PUSH1 0x20 SWAP1 DUP2 MSTORE PUSH1 0x40 DUP3 KECCAK256 PUSH1 0x2 SWAP1 SWAP4 ADD SLOAD DUP4 SLOAD PUSH1 0x1 DUP2 ADD DUP6 SSTORE SWAP4 DUP4 MSTORE SWAP2 KECCAK256 SWAP1 SWAP2 ADD SSTORE JUMP JUMPDEST PUSH1 0x40 MLOAD PUSH4 0xE29A669 PUSH1 0xE2 SHL DUP2 MSTORE PUSH1 0x4 DUP2 ADD DUP3 SWAP1 MSTORE PUSH1 0x1 PUSH1 0x1 PUSH1 0xA0 SHL SUB PUSH32 0x0 AND SWAP1 PUSH4 0x38A699A4 SWAP1 PUSH1 0x24 ADD PUSH1 0x20 PUSH1 0x40 MLOAD DUP1 DUP4 SUB DUP2 DUP7 GAS STATICCALL ISZERO DUP1 ISZERO PUSH2 0x3D8C JUMPI RETURNDATASIZE PUSH1 0x0 DUP1 RETURNDATACOPY RETURNDATASIZE PUSH1 0x0 REVERT JUMPDEST POP POP POP POP PUSH1 0x40 MLOAD RETURNDATASIZE PUSH1 0x1F NOT PUSH1 0x1F DUP3 ADD AND DUP3 ADD DUP1 PUSH1 0x40 MSTORE POP DUP2 ADD SWAP1 PUSH2 0x3DB0 SWAP2 SWAP1 PUSH2 0x5233 JUMP JUMPDEST PUSH2 0x3DB7 JUMPI POP JUMP JUMPDEST PUSH1 0x40 MLOAD PUSH4 0x657C7E09 PUSH1 0xE0 SHL DUP2 MSTORE PUSH1 0x4 DUP2 ADD DUP3 SWAP1 MSTORE PUSH1 0x0 SWAP1 DUP2 SWAP1 PUSH1 0x1 PUSH1 0x1 PUSH1 0xA0 SHL SUB PUSH32 0x0 AND SWAP1 PUSH4 0x657C7E09 SWAP1 PUSH1 0x24 ADD PUSH1 0x40 DUP1 MLOAD DUP1 DUP4 SUB DUP2 DUP7 GAS STATICCALL ISZERO DUP1 ISZERO PUSH2 0x3E20 JUMPI RETURNDATASIZE PUSH1 0x0 DUP1 RETURNDATACOPY RETURNDATASIZE PUSH1 0x0 REVERT JUMPDEST POP POP POP POP PUSH1 0x40 MLOAD RETURNDATASIZE PUSH1 0x1F NOT PUSH1 0x1F DUP3 ADD AND DUP3 ADD DUP1 PUSH1 0x40 MSTORE POP DUP2 ADD SWAP1 PUSH2 0x3E44 SWAP2 SWAP1 PUSH2 0x5344 JUMP JUMPDEST SWAP2 POP SWAP2 POP PUSH2 0x3E52 DUP3 DUP5 PUSH2 0x8F2 JUMP JUMPDEST ISZERO PUSH2 0x3E5C JUMPI POP POP POP JUMP JUMPDEST PUSH1 0x0 DUP2 DUP2 MSTORE PUSH1 0x1 PUSH1 0x20 SWAP1 DUP2 MSTORE PUSH1 0x40 DUP1 DUP4 KECCAK256 DUP1 SLOAD DUP3 MLOAD DUP2 DUP6 MUL DUP2 ADD DUP6 ADD SWAP1 SWAP4 MSTORE DUP1 DUP4 MSTORE PUSH1 0x60 SWAP5 SWAP4 DUP4 ADD DUP3 DUP3 DUP1 ISZERO PUSH2 0x3EB1 JUMPI PUSH1 0x20 MUL DUP3 ADD SWAP2 SWAP1 PUSH1 0x0 MSTORE PUSH1 0x20 PUSH1 0x0 KECCAK256 SWAP1 JUMPDEST DUP2 SLOAD DUP2 MSTORE PUSH1 0x20 ADD SWAP1 PUSH1 0x1 ADD SWAP1 DUP1 DUP4 GT PUSH2 0x3E9D JUMPI JUMPDEST POP POP POP POP POP SWAP1 POP DUP1 MLOAD PUSH1 0x1 PUSH1 0x1 PUSH1 0x40 SHL SUB DUP2 GT ISZERO PUSH2 0x3ED1 JUMPI PUSH2 0x3ED1 PUSH2 0x5590 JUMP JUMPDEST PUSH1 0x40 MLOAD SWAP1 DUP1 DUP3 MSTORE DUP1 PUSH1 0x20 MUL PUSH1 0x20 ADD DUP3 ADD PUSH1 0x40 MSTORE DUP1 ISZERO PUSH2 0x3F04 JUMPI DUP2 PUSH1 0x20 ADD JUMPDEST PUSH1 0x60 DUP2 MSTORE PUSH1 0x20 ADD SWAP1 PUSH1 0x1 SWAP1 SUB SWAP1 DUP2 PUSH2 0x3EEF JUMPI SWAP1 POP JUMPDEST POP SWAP2 POP PUSH1 0x0 DUP1 JUMPDEST DUP3 MLOAD DUP2 LT ISZERO PUSH2 0x4080 JUMPI PUSH1 0x0 PUSH32 0x0 PUSH1 0x1 PUSH1 0x1 PUSH1 0xA0 SHL SUB AND PUSH4 0x27EE9DC2 DUP6 DUP5 DUP2 MLOAD DUP2 LT PUSH2 0x3F57 JUMPI PUSH2 0x3F57 PUSH2 0x55A6 JUMP JUMPDEST PUSH1 0x20 MUL PUSH1 0x20 ADD ADD MLOAD PUSH1 0x40 MLOAD DUP3 PUSH4 0xFFFFFFFF AND PUSH1 0xE0 SHL DUP2 MSTORE PUSH1 0x4 ADD PUSH2 0x3F7D SWAP2 DUP2 MSTORE PUSH1 0x20 ADD SWAP1 JUMP JUMPDEST PUSH1 0x0 PUSH1 0x40 MLOAD DUP1 DUP4 SUB DUP2 DUP7 GAS STATICCALL ISZERO DUP1 ISZERO PUSH2 0x3F9A JUMPI RETURNDATASIZE PUSH1 0x0 DUP1 RETURNDATACOPY RETURNDATASIZE PUSH1 0x0 REVERT JUMPDEST POP POP POP POP PUSH1 0x40 MLOAD RETURNDATASIZE PUSH1 0x0 DUP3 RETURNDATACOPY PUSH1 0x1F RETURNDATASIZE SWAP1 DUP2 ADD PUSH1 0x1F NOT AND DUP3 ADD PUSH1 0x40 MSTORE PUSH2 0x3FC2 SWAP2 SWAP1 DUP2 ADD SWAP1 PUSH2 0x55BC JUMP JUMPDEST PUSH1 0x40 MLOAD PUSH4 0x9D84366D PUSH1 0xE0 SHL DUP2 MSTORE SWAP1 SWAP2 POP PUSH20 0x0 SWAP1 PUSH4 0x9D84366D SWAP1 PUSH2 0x3FFE SWAP1 DUP5 SWAP1 DUP12 SWAP1 PUSH1 0x4 ADD PUSH2 0x56A8 JUMP JUMPDEST PUSH1 0x20 PUSH1 0x40 MLOAD DUP1 DUP4 SUB DUP2 DUP7 GAS DELEGATECALL ISZERO DUP1 ISZERO PUSH2 0x401B JUMPI RETURNDATASIZE PUSH1 0x0 DUP1 RETURNDATACOPY RETURNDATASIZE PUSH1 0x0 REVERT JUMPDEST POP POP POP POP PUSH1 0x40 MLOAD RETURNDATASIZE PUSH1 0x1F NOT PUSH1 0x1F DUP3 ADD AND DUP3 ADD DUP1 PUSH1 0x40 MSTORE POP DUP2 ADD SWAP1 PUSH2 0x403F SWAP2 SWAP1 PUSH2 0x5233 JUMP JUMPDEST PUSH2 0x406D JUMPI DUP1 DUP6 DUP5 PUSH2 0x404F DUP2 PUSH2 0x56CA JUMP JUMPDEST SWAP6 POP DUP2 MLOAD DUP2 LT PUSH2 0x4061 JUMPI PUSH2 0x4061 PUSH2 0x55A6 JUMP JUMPDEST PUSH1 0x20 MUL PUSH1 0x20 ADD ADD DUP2 SWAP1 MSTORE POP JUMPDEST POP DUP1 PUSH2 0x4078 DUP2 PUSH2 0x56CA JUMP JUMPDEST SWAP2 POP POP PUSH2 0x3F0B JUMP JUMPDEST POP DUP3 MSTORE POP PUSH1 0x0 DUP4 DUP2 MSTORE PUSH1 0x2 PUSH1 0x20 SWAP1 DUP2 MSTORE PUSH1 0x40 DUP1 DUP4 KECCAK256 DUP1 SLOAD DUP3 MLOAD DUP2 DUP6 MUL DUP2 ADD DUP6 ADD SWAP1 SWAP4 MSTORE DUP1 DUP4 MSTORE PUSH1 0x60 SWAP5 SWAP4 DUP4 ADD DUP3 DUP3 DUP1 ISZERO PUSH2 0x40D9 JUMPI PUSH1 0x20 MUL DUP3 ADD SWAP2 SWAP1 PUSH1 0x0 MSTORE PUSH1 0x20 PUSH1 0x0 KECCAK256 SWAP1 JUMPDEST DUP2 SLOAD DUP2 MSTORE PUSH1 0x20 ADD SWAP1 PUSH1 0x1 ADD SWAP1 DUP1 DUP4 GT PUSH2 0x40C5 JUMPI JUMPDEST POP POP POP POP POP SWAP1 POP DUP1 MLOAD PUSH1 0x1 PUSH1 0x1 PUSH1 0x40 SHL SUB DUP2 GT ISZERO PUSH2 0x40F9 JUMPI PUSH2 0x40F9 PUSH2 0x5590 JUMP JUMPDEST PUSH1 0x40 MLOAD SWAP1 DUP1 DUP3 MSTORE DUP1 PUSH1 0x20 MUL PUSH1 0x20 ADD DUP3 ADD PUSH1 0x40 MSTORE DUP1 ISZERO PUSH2 0x412C JUMPI DUP2 PUSH1 0x20 ADD JUMPDEST PUSH1 0x60 DUP2 MSTORE PUSH1 0x20 ADD SWAP1 PUSH1 0x1 SWAP1 SUB SWAP1 DUP2 PUSH2 0x4117 JUMPI SWAP1 POP JUMPDEST POP SWAP2 POP PUSH1 0x0 DUP1 JUMPDEST DUP3 MLOAD DUP2 LT ISZERO PUSH2 0x42A8 JUMPI PUSH1 0x0 PUSH32 0x0 PUSH1 0x1 PUSH1 0x1 PUSH1 0xA0 SHL SUB AND PUSH4 0x27EE9DC2 DUP6 DUP5 DUP2 MLOAD DUP2 LT PUSH2 0x417F JUMPI PUSH2 0x417F PUSH2 0x55A6 JUMP JUMPDEST PUSH1 0x20 MUL PUSH1 0x20 ADD ADD MLOAD PUSH1 0x40 MLOAD DUP3 PUSH4 0xFFFFFFFF AND PUSH1 0xE0 SHL DUP2 MSTORE PUSH1 0x4 ADD PUSH2 0x41A5 SWAP2 DUP2 MSTORE PUSH1 0x20 ADD SWAP1 JUMP JUMPDEST PUSH1 0x0 PUSH1 0x40 MLOAD DUP1 DUP4 SUB DUP2 DUP7 GAS STATICCALL ISZERO DUP1 ISZERO PUSH2 0x41C2 JUMPI RETURNDATASIZE PUSH1 0x0 DUP1 RETURNDATACOPY RETURNDATASIZE PUSH1 0x0 REVERT JUMPDEST POP POP POP POP PUSH1 0x40 MLOAD RETURNDATASIZE PUSH1 0x0 DUP3 RETURNDATACOPY PUSH1 0x1F RETURNDATASIZE SWAP1 DUP2 ADD PUSH1 0x1F NOT AND DUP3 ADD PUSH1 0x40 MSTORE PUSH2 0x41EA SWAP2 SWAP1 DUP2 ADD SWAP1 PUSH2 0x55BC JUMP JUMPDEST PUSH1 0x40 MLOAD PUSH4 0x9D84366D PUSH1 0xE0 SHL DUP2 MSTORE SWAP1 SWAP2 POP PUSH20 0x0 SWAP1 PUSH4 0x9D84366D SWAP1 PUSH2 0x4226 SWAP1 DUP5 SWAP1 DUP12 SWAP1 PUSH1 0x4 ADD PUSH2 0x56A8 JUMP JUMPDEST PUSH1 0x20 PUSH1 0x40 MLOAD DUP1 DUP4 SUB DUP2 DUP7 GAS DELEGATECALL ISZERO DUP1 ISZERO PUSH2 0x4243 JUMPI RETURNDATASIZE PUSH1 0x0 DUP1 RETURNDATACOPY RETURNDATASIZE PUSH1 0x0 REVERT JUMPDEST POP POP POP POP PUSH1 0x40 MLOAD RETURNDATASIZE PUSH1 0x1F NOT PUSH1 0x1F DUP3 ADD AND DUP3 ADD DUP1 PUSH1 0x40 MSTORE POP DUP2 ADD SWAP1 PUSH2 0x4267 SWAP2 SWAP1 PUSH2 0x5233 JUMP JUMPDEST PUSH2 0x4295 JUMPI DUP1 DUP6 DUP5 PUSH2 0x4277 DUP2 PUSH2 0x56CA JUMP JUMPDEST SWAP6 POP DUP2 MLOAD DUP2 LT PUSH2 0x4289 JUMPI PUSH2 0x4289 PUSH2 0x55A6 JUMP JUMPDEST PUSH1 0x20 MUL PUSH1 0x20 ADD ADD DUP2 SWAP1 MSTORE POP JUMPDEST POP DUP1 PUSH2 0x42A0 DUP2 PUSH2 0x56CA JUMP JUMPDEST SWAP2 POP POP PUSH2 0x4133 JUMP JUMPDEST POP DUP3 MSTORE POP PUSH1 0x0 DUP5 DUP2 MSTORE PUSH1 0x1 PUSH1 0x20 MSTORE PUSH1 0x40 SWAP1 DUP2 SWAP1 KECCAK256 SWAP1 MLOAD PUSH4 0x16061A71 PUSH1 0xE2 SHL DUP2 MSTORE PUSH1 0x4 DUP2 ADD SWAP2 SWAP1 SWAP2 MSTORE PUSH1 0x24 DUP2 ADD DUP7 SWAP1 MSTORE PUSH20 0x0 SWAP1 PUSH4 0x581869C4 SWAP1 PUSH1 0x44 ADD PUSH1 0x20 PUSH1 0x40 MLOAD DUP1 DUP4 SUB DUP2 DUP7 GAS DELEGATECALL ISZERO DUP1 ISZERO PUSH2 0x4313 JUMPI RETURNDATASIZE PUSH1 0x0 DUP1 RETURNDATACOPY RETURNDATASIZE PUSH1 0x0 REVERT JUMPDEST POP POP POP POP PUSH1 0x40 MLOAD RETURNDATASIZE PUSH1 0x1F NOT PUSH1 0x1F DUP3 ADD AND DUP3 ADD DUP1 PUSH1 0x40 MSTORE POP DUP2 ADD SWAP1 PUSH2 0x4337 SWAP2 SWAP1 PUSH2 0x5233 JUMP JUMPDEST POP PUSH1 0x0 DUP4 DUP2 MSTORE PUSH1 0x2 PUSH1 0x20 MSTORE PUSH1 0x40 SWAP1 DUP2 SWAP1 KECCAK256 SWAP1 MLOAD PUSH4 0x16061A71 PUSH1 0xE2 SHL DUP2 MSTORE PUSH1 0x4 DUP2 ADD SWAP2 SWAP1 SWAP2 MSTORE PUSH1 0x24 DUP2 ADD DUP7 SWAP1 MSTORE PUSH20 0x0 SWAP1 PUSH4 0x581869C4 SWAP1 PUSH1 0x44 ADD PUSH1 0x20 PUSH1 0x40 MLOAD DUP1 DUP4 SUB DUP2 DUP7 GAS DELEGATECALL ISZERO DUP1 ISZERO PUSH2 0x439F JUMPI RETURNDATASIZE PUSH1 0x0 DUP1 RETURNDATACOPY RETURNDATASIZE PUSH1 0x0 REVERT JUMPDEST POP POP POP POP PUSH1 0x40 MLOAD RETURNDATASIZE PUSH1 0x1F NOT PUSH1 0x1F DUP3 ADD AND DUP3 ADD DUP1 PUSH1 0x40 MSTORE POP DUP2 ADD SWAP1 PUSH2 0x43C3 SWAP2 SWAP1 PUSH2 0x5233 JUMP JUMPDEST POP PUSH1 0x0 JUMPDEST DUP2 MLOAD DUP2 LT ISZERO PUSH2 0x4653 JUMPI PUSH1 0x0 DUP3 DUP3 DUP2 MLOAD DUP2 LT PUSH2 0x43E4 JUMPI PUSH2 0x43E4 PUSH2 0x55A6 JUMP JUMPDEST PUSH1 0x20 MUL PUSH1 0x20 ADD ADD MLOAD PUSH20 0x0 PUSH4 0x9B861F03 SWAP1 SWAP2 DUP8 PUSH1 0x40 MLOAD DUP4 PUSH4 0xFFFFFFFF AND PUSH1 0xE0 SHL DUP2 MSTORE PUSH1 0x4 ADD PUSH2 0x4426 SWAP3 SWAP2 SWAP1 PUSH2 0x56A8 JUMP JUMPDEST PUSH1 0x0 PUSH1 0x40 MLOAD DUP1 DUP4 SUB DUP2 DUP7 GAS DELEGATECALL ISZERO DUP1 ISZERO PUSH2 0x4443 JUMPI RETURNDATASIZE PUSH1 0x0 DUP1 RETURNDATACOPY RETURNDATASIZE PUSH1 0x0 REVERT JUMPDEST POP POP POP POP PUSH1 0x40 MLOAD RETURNDATASIZE PUSH1 0x0 DUP3 RETURNDATACOPY PUSH1 0x1F RETURNDATASIZE SWAP1 DUP2 ADD PUSH1 0x1F NOT AND DUP3 ADD PUSH1 0x40 MSTORE PUSH2 0x446B SWAP2 SWAP1 DUP2 ADD SWAP1 PUSH2 0x55BC JUMP JUMPDEST SWAP1 POP PUSH1 0x0 PUSH32 0x0 PUSH1 0x1 PUSH1 0x1 PUSH1 0xA0 SHL SUB AND PUSH4 0xB3054383 DUP4 PUSH1 0x40 MLOAD DUP3 PUSH4 0xFFFFFFFF AND PUSH1 0xE0 SHL DUP2 MSTORE PUSH1 0x4 ADD PUSH2 0x44BB SWAP2 SWAP1 PUSH2 0x56E5 JUMP JUMPDEST PUSH1 0x20 PUSH1 0x40 MLOAD DUP1 DUP4 SUB DUP2 PUSH1 0x0 DUP8 GAS CALL ISZERO DUP1 ISZERO PUSH2 0x44DA JUMPI RETURNDATASIZE PUSH1 0x0 DUP1 RETURNDATACOPY RETURNDATASIZE PUSH1 0x0 REVERT JUMPDEST POP POP POP POP PUSH1 0x40 MLOAD RETURNDATASIZE PUSH1 0x1F NOT PUSH1 0x1F DUP3 ADD AND DUP3 ADD DUP1 PUSH1 0x40 MSTORE POP DUP2 ADD SWAP1 PUSH2 0x44FE SWAP2 SWAP1 PUSH2 0x5368 JUMP JUMPDEST SWAP1 POP PUSH1 0x1 PUSH1 0x0 DUP4 PUSH1 0x0 DUP2 MLOAD DUP2 LT PUSH2 0x4517 JUMPI PUSH2 0x4517 PUSH2 0x55A6 JUMP JUMPDEST PUSH1 0x20 MUL PUSH1 0x20 ADD ADD MLOAD DUP2 MSTORE PUSH1 0x20 ADD SWAP1 DUP2 MSTORE PUSH1 0x20 ADD PUSH1 0x0 KECCAK256 PUSH20 0x0 PUSH4 0x581869C4 SWAP1 SWAP2 DUP4 PUSH1 0x40 MLOAD DUP4 PUSH4 0xFFFFFFFF AND PUSH1 0xE0 SHL DUP2 MSTORE PUSH1 0x4 ADD PUSH2 0x4570 SWAP3 SWAP2 SWAP1 SWAP2 DUP3 MSTORE PUSH1 0x20 DUP3 ADD MSTORE PUSH1 0x40 ADD SWAP1 JUMP JUMPDEST PUSH1 0x20 PUSH1 0x40 MLOAD DUP1 DUP4 SUB DUP2 DUP7 GAS DELEGATECALL ISZERO DUP1 ISZERO PUSH2 0x458D JUMPI RETURNDATASIZE PUSH1 0x0 DUP1 RETURNDATACOPY RETURNDATASIZE PUSH1 0x0 REVERT JUMPDEST POP POP POP POP PUSH1 0x40 MLOAD RETURNDATASIZE PUSH1 0x1F NOT PUSH1 0x1F DUP3 ADD AND DUP3 ADD DUP1 PUSH1 0x40 MSTORE POP DUP2 ADD SWAP1 PUSH2 0x45B1 SWAP2 SWAP1 PUSH2 0x5233 JUMP JUMPDEST POP PUSH1 0x0 DUP7 DUP2 MSTORE PUSH1 0x2 PUSH1 0x20 MSTORE PUSH1 0x40 SWAP1 DUP2 SWAP1 KECCAK256 SWAP1 MLOAD PUSH4 0x16061A71 PUSH1 0xE2 SHL DUP2 MSTORE PUSH1 0x4 DUP2 ADD SWAP2 SWAP1 SWAP2 MSTORE PUSH1 0x24 DUP2 ADD DUP3 SWAP1 MSTORE PUSH20 0x0 SWAP1 PUSH4 0x581869C4 SWAP1 PUSH1 0x44 ADD PUSH1 0x20 PUSH1 0x40 MLOAD DUP1 DUP4 SUB DUP2 DUP7 GAS DELEGATECALL ISZERO DUP1 ISZERO PUSH2 0x4619 JUMPI RETURNDATASIZE PUSH1 0x0 DUP1 RETURNDATACOPY RETURNDATASIZE PUSH1 0x0 REVERT JUMPDEST POP POP POP POP PUSH1 0x40 MLOAD RETURNDATASIZE PUSH1 0x1F NOT PUSH1 0x1F DUP3 ADD AND DUP3 ADD DUP1 PUSH1 0x40 MSTORE POP DUP2 ADD SWAP1 PUSH2 0x463D SWAP2 SWAP1 PUSH2 0x5233 JUMP JUMPDEST POP POP POP DUP1 DUP1 PUSH2 0x464B SWAP1 PUSH2 0x56CA JUMP JUMPDEST SWAP2 POP POP PUSH2 0x43C7 JUMP JUMPDEST POP PUSH1 0x0 JUMPDEST DUP3 MLOAD DUP2 LT ISZERO PUSH2 0x48F5 JUMPI PUSH1 0x0 DUP4 DUP3 DUP2 MLOAD DUP2 LT PUSH2 0x4674 JUMPI PUSH2 0x4674 PUSH2 0x55A6 JUMP JUMPDEST PUSH1 0x20 MUL PUSH1 0x20 ADD ADD MLOAD PUSH20 0x0 PUSH4 0x3B06E74F SWAP1 SWAP2 DUP9 PUSH1 0x40 MLOAD DUP4 PUSH4 0xFFFFFFFF AND PUSH1 0xE0 SHL DUP2 MSTORE PUSH1 0x4 ADD PUSH2 0x46B6 SWAP3 SWAP2 SWAP1 PUSH2 0x56A8 JUMP JUMPDEST PUSH1 0x0 PUSH1 0x40 MLOAD DUP1 DUP4 SUB DUP2 DUP7 GAS DELEGATECALL ISZERO DUP1 ISZERO PUSH2 0x46D3 JUMPI RETURNDATASIZE PUSH1 0x0 DUP1 RETURNDATACOPY RETURNDATASIZE PUSH1 0x0 REVERT JUMPDEST POP POP POP POP PUSH1 0x40 MLOAD RETURNDATASIZE PUSH1 0x0 DUP3 RETURNDATACOPY PUSH1 0x1F RETURNDATASIZE SWAP1 DUP2 ADD PUSH1 0x1F NOT AND DUP3 ADD PUSH1 0x40 MSTORE PUSH2 0x46FB SWAP2 SWAP1 DUP2 ADD SWAP1 PUSH2 0x55BC JUMP JUMPDEST SWAP1 POP PUSH1 0x0 PUSH32 0x0 PUSH1 0x1 PUSH1 0x1 PUSH1 0xA0 SHL SUB AND PUSH4 0xB3054383 DUP4 PUSH1 0x40 MLOAD DUP3 PUSH4 0xFFFFFFFF AND PUSH1 0xE0 SHL DUP2 MSTORE PUSH1 0x4 ADD PUSH2 0x474B SWAP2 SWAP1 PUSH2 0x56E5 JUMP JUMPDEST PUSH1 0x20 PUSH1 0x40 MLOAD DUP1 DUP4 SUB DUP2 PUSH1 0x0 DUP8 GAS CALL ISZERO DUP1 ISZERO PUSH2 0x476A JUMPI RETURNDATASIZE PUSH1 0x0 DUP1 RETURNDATACOPY RETURNDATASIZE PUSH1 0x0 REVERT JUMPDEST POP POP POP POP PUSH1 0x40 MLOAD RETURNDATASIZE PUSH1 0x1F NOT PUSH1 0x1F DUP3 ADD AND DUP3 ADD DUP1 PUSH1 0x40 MSTORE POP DUP2 ADD SWAP1 PUSH2 0x478E SWAP2 SWAP1 PUSH2 0x5368 JUMP JUMPDEST PUSH1 0x0 DUP9 DUP2 MSTORE PUSH1 0x1 PUSH1 0x20 MSTORE PUSH1 0x40 SWAP1 DUP2 SWAP1 KECCAK256 SWAP1 MLOAD PUSH4 0x16061A71 PUSH1 0xE2 SHL DUP2 MSTORE SWAP2 SWAP3 POP PUSH20 0x0 SWAP2 PUSH4 0x581869C4 SWAP2 PUSH2 0x47E0 SWAP2 DUP6 SWAP1 PUSH1 0x4 ADD SWAP2 DUP3 MSTORE PUSH1 0x20 DUP3 ADD MSTORE PUSH1 0x40 ADD SWAP1 JUMP JUMPDEST PUSH1 0x20 PUSH1 0x40 MLOAD DUP1 DUP4 SUB DUP2 DUP7 GAS DELEGATECALL ISZERO DUP1 ISZERO PUSH2 0x47FD JUMPI RETURNDATASIZE PUSH1 0x0 DUP1 RETURNDATACOPY RETURNDATASIZE PUSH1 0x0 REVERT JUMPDEST POP POP POP POP PUSH1 0x40 MLOAD RETURNDATASIZE PUSH1 0x1F NOT PUSH1 0x1F DUP3 ADD AND DUP3 ADD DUP1 PUSH1 0x40 MSTORE POP DUP2 ADD SWAP1 PUSH2 0x4821 SWAP2 SWAP1 PUSH2 0x5233 JUMP JUMPDEST POP PUSH1 0x2 PUSH1 0x0 DUP4 PUSH1 0x1 DUP6 MLOAD PUSH2 0x4835 SWAP2 SWAP1 PUSH2 0x53AF JUMP JUMPDEST DUP2 MLOAD DUP2 LT PUSH2 0x4845 JUMPI PUSH2 0x4845 PUSH2 0x55A6 JUMP JUMPDEST PUSH1 0x20 MUL PUSH1 0x20 ADD ADD MLOAD DUP2 MSTORE PUSH1 0x20 ADD SWAP1 DUP2 MSTORE PUSH1 0x20 ADD PUSH1 0x0 KECCAK256 PUSH20 0x0 PUSH4 0x581869C4 SWAP1 SWAP2 DUP4 PUSH1 0x40 MLOAD DUP4 PUSH4 0xFFFFFFFF AND PUSH1 0xE0 SHL DUP2 MSTORE PUSH1 0x4 ADD PUSH2 0x489E SWAP3 SWAP2 SWAP1 SWAP2 DUP3 MSTORE PUSH1 0x20 DUP3 ADD MSTORE PUSH1 0x40 ADD SWAP1 JUMP JUMPDEST PUSH1 0x20 PUSH1 0x40 MLOAD DUP1 DUP4 SUB DUP2 DUP7 GAS DELEGATECALL ISZERO DUP1 ISZERO PUSH2 0x48BB JUMPI RETURNDATASIZE PUSH1 0x0 DUP1 RETURNDATACOPY RETURNDATASIZE PUSH1 0x0 REVERT JUMPDEST POP POP POP POP PUSH1 0x40 MLOAD RETURNDATASIZE PUSH1 0x1F NOT PUSH1 0x1F DUP3 ADD AND DUP3 ADD DUP1 PUSH1 0x40 MSTORE POP DUP2 ADD SWAP1 PUSH2 0x48DF SWAP2 SWAP1 PUSH2 0x5233 JUMP JUMPDEST POP POP POP DUP1 DUP1 PUSH2 0x48ED SWAP1 PUSH2 0x56CA JUMP JUMPDEST SWAP2 POP POP PUSH2 0x4657 JUMP JUMPDEST POP PUSH1 0x0 JUMPDEST DUP2 MLOAD DUP2 LT ISZERO PUSH2 0x4CC9 JUMPI PUSH1 0x0 JUMPDEST DUP4 MLOAD DUP2 LT ISZERO PUSH2 0x4CB6 JUMPI PUSH1 0x0 DUP5 DUP3 DUP2 MLOAD DUP2 LT PUSH2 0x4922 JUMPI PUSH2 0x4922 PUSH2 0x55A6 JUMP JUMPDEST PUSH1 0x20 MUL PUSH1 0x20 ADD ADD MLOAD SWAP1 POP PUSH1 0x0 DUP5 DUP4 DUP2 MLOAD DUP2 LT PUSH2 0x4940 JUMPI PUSH2 0x4940 PUSH2 0x55A6 JUMP JUMPDEST PUSH1 0x20 MUL PUSH1 0x20 ADD ADD MLOAD SWAP1 POP PUSH1 0x0 JUMPDEST DUP3 MLOAD DUP2 LT ISZERO PUSH2 0x4A07 JUMPI DUP2 PUSH20 0x0 PUSH4 0x9D84366D SWAP1 SWAP2 DUP6 DUP5 DUP2 MLOAD DUP2 LT PUSH2 0x4985 JUMPI PUSH2 0x4985 PUSH2 0x55A6 JUMP JUMPDEST PUSH1 0x20 MUL PUSH1 0x20 ADD ADD MLOAD PUSH1 0x40 MLOAD DUP4 PUSH4 0xFFFFFFFF AND PUSH1 0xE0 SHL DUP2 MSTORE PUSH1 0x4 ADD PUSH2 0x49AA SWAP3 SWAP2 SWAP1 PUSH2 0x56A8 JUMP JUMPDEST PUSH1 0x20 PUSH1 0x40 MLOAD DUP1 DUP4 SUB DUP2 DUP7 GAS DELEGATECALL ISZERO DUP1 ISZERO PUSH2 0x49C7 JUMPI RETURNDATASIZE PUSH1 0x0 DUP1 RETURNDATACOPY RETURNDATASIZE PUSH1 0x0 REVERT JUMPDEST POP POP POP POP PUSH1 0x40 MLOAD RETURNDATASIZE PUSH1 0x1F NOT PUSH1 0x1F DUP3 ADD AND DUP3 ADD DUP1 PUSH1 0x40 MSTORE POP DUP2 ADD SWAP1 PUSH2 0x49EB SWAP2 SWAP1 PUSH2 0x5233 JUMP JUMPDEST ISZERO PUSH2 0x49F5 JUMPI PUSH2 0x4A07 JUMP JUMPDEST DUP1 PUSH2 0x49FF DUP2 PUSH2 0x56CA JUMP JUMPDEST SWAP2 POP POP PUSH2 0x494D JUMP JUMPDEST DUP3 MLOAD DUP2 LT ISZERO PUSH2 0x4A18 JUMPI POP POP POP PUSH2 0x4CA4 JUMP JUMPDEST PUSH1 0x40 MLOAD PUSH4 0x2704AE9 PUSH1 0xE3 SHL DUP2 MSTORE PUSH1 0x0 SWAP1 PUSH20 0x0 SWAP1 PUSH4 0x13825748 SWAP1 PUSH2 0x4A54 SWAP1 DUP8 SWAP1 DUP8 SWAP1 PUSH1 0x4 ADD PUSH2 0x5729 JUMP JUMPDEST PUSH1 0x0 PUSH1 0x40 MLOAD DUP1 DUP4 SUB DUP2 DUP7 GAS DELEGATECALL ISZERO DUP1 ISZERO PUSH2 0x4A71 JUMPI RETURNDATASIZE PUSH1 0x0 DUP1 RETURNDATACOPY RETURNDATASIZE PUSH1 0x0 REVERT JUMPDEST POP POP POP POP PUSH1 0x40 MLOAD RETURNDATASIZE PUSH1 0x0 DUP3 RETURNDATACOPY PUSH1 0x1F RETURNDATASIZE SWAP1 DUP2 ADD PUSH1 0x1F NOT AND DUP3 ADD PUSH1 0x40 MSTORE PUSH2 0x4A99 SWAP2 SWAP1 DUP2 ADD SWAP1 PUSH2 0x55BC JUMP JUMPDEST SWAP1 POP PUSH1 0x0 PUSH32 0x0 PUSH1 0x1 PUSH1 0x1 PUSH1 0xA0 SHL SUB AND PUSH4 0xB3054383 DUP4 PUSH1 0x40 MLOAD DUP3 PUSH4 0xFFFFFFFF AND PUSH1 0xE0 SHL DUP2 MSTORE PUSH1 0x4 ADD PUSH2 0x4AE9 SWAP2 SWAP1 PUSH2 0x56E5 JUMP JUMPDEST PUSH1 0x20 PUSH1 0x40 MLOAD DUP1 DUP4 SUB DUP2 PUSH1 0x0 DUP8 GAS CALL ISZERO DUP1 ISZERO PUSH2 0x4B08 JUMPI RETURNDATASIZE PUSH1 0x0 DUP1 RETURNDATACOPY RETURNDATASIZE PUSH1 0x0 REVERT JUMPDEST POP POP POP POP PUSH1 0x40 MLOAD RETURNDATASIZE PUSH1 0x1F NOT PUSH1 0x1F DUP3 ADD AND DUP3 ADD DUP1 PUSH1 0x40 MSTORE POP DUP2 ADD SWAP1 PUSH2 0x4B2C SWAP2 SWAP1 PUSH2 0x5368 JUMP JUMPDEST SWAP1 POP PUSH1 0x1 PUSH1 0x0 DUP4 PUSH1 0x0 DUP2 MLOAD DUP2 LT PUSH2 0x4B45 JUMPI PUSH2 0x4B45 PUSH2 0x55A6 JUMP JUMPDEST PUSH1 0x20 MUL PUSH1 0x20 ADD ADD MLOAD DUP2 MSTORE PUSH1 0x20 ADD SWAP1 DUP2 MSTORE PUSH1 0x20 ADD PUSH1 0x0 KECCAK256 PUSH20 0x0 PUSH4 0x581869C4 SWAP1 SWAP2 DUP4 PUSH1 0x40 MLOAD DUP4 PUSH4 0xFFFFFFFF AND PUSH1 0xE0 SHL DUP2 MSTORE PUSH1 0x4 ADD PUSH2 0x4B9E SWAP3 SWAP2 SWAP1 SWAP2 DUP3 MSTORE PUSH1 0x20 DUP3 ADD MSTORE PUSH1 0x40 ADD SWAP1 JUMP JUMPDEST PUSH1 0x20 PUSH1 0x40 MLOAD DUP1 DUP4 SUB DUP2 DUP7 GAS DELEGATECALL ISZERO DUP1 ISZERO PUSH2 0x4BBB JUMPI RETURNDATASIZE PUSH1 0x0 DUP1 RETURNDATACOPY RETURNDATASIZE PUSH1 0x0 REVERT JUMPDEST POP POP POP POP PUSH1 0x40 MLOAD RETURNDATASIZE PUSH1 0x1F NOT PUSH1 0x1F DUP3 ADD AND DUP3 ADD DUP1 PUSH1 0x40 MSTORE POP DUP2 ADD SWAP1 PUSH2 0x4BDF SWAP2 SWAP1 PUSH2 0x5233 JUMP JUMPDEST POP PUSH1 0x2 PUSH1 0x0 DUP4 PUSH1 0x1 DUP6 MLOAD PUSH2 0x4BF3 SWAP2 SWAP1 PUSH2 0x53AF JUMP JUMPDEST DUP2 MLOAD DUP2 LT PUSH2 0x4C03 JUMPI PUSH2 0x4C03 PUSH2 0x55A6 JUMP JUMPDEST PUSH1 0x20 MUL PUSH1 0x20 ADD ADD MLOAD DUP2 MSTORE PUSH1 0x20 ADD SWAP1 DUP2 MSTORE PUSH1 0x20 ADD PUSH1 0x0 KECCAK256 PUSH20 0x0 PUSH4 0x581869C4 SWAP1 SWAP2 DUP4 PUSH1 0x40 MLOAD DUP4 PUSH4 0xFFFFFFFF AND PUSH1 0xE0 SHL DUP2 MSTORE PUSH1 0x4 ADD PUSH2 0x4C5C SWAP3 SWAP2 SWAP1 SWAP2 DUP3 MSTORE PUSH1 0x20 DUP3 ADD MSTORE PUSH1 0x40 ADD SWAP1 JUMP JUMPDEST PUSH1 0x20 PUSH1 0x40 MLOAD DUP1 DUP4 SUB DUP2 DUP7 GAS DELEGATECALL ISZERO DUP1 ISZERO PUSH2 0x4C79 JUMPI RETURNDATASIZE PUSH1 0x0 DUP1 RETURNDATACOPY RETURNDATASIZE PUSH1 0x0 REVERT JUMPDEST POP POP POP POP PUSH1 0x40 MLOAD RETURNDATASIZE PUSH1 0x1F NOT PUSH1 0x1F DUP3 ADD AND DUP3 ADD DUP1 PUSH1 0x40 MSTORE POP DUP2 ADD SWAP1 PUSH2 0x4C9D SWAP2 SWAP1 PUSH2 0x5233 JUMP JUMPDEST POP POP POP POP POP POP JUMPDEST DUP1 PUSH2 0x4CAE DUP2 PUSH2 0x56CA JUMP JUMPDEST SWAP2 POP POP PUSH2 0x4905 JUMP JUMPDEST POP DUP1 PUSH2 0x4CC1 DUP2 PUSH2 0x56CA JUMP JUMPDEST SWAP2 POP POP PUSH2 0x48F9 JUMP JUMPDEST POP POP POP POP POP POP JUMP JUMPDEST PUSH1 0x40 MLOAD DUP1 PUSH2 0x1C0 ADD PUSH1 0x40 MSTORE DUP1 PUSH1 0x0 PUSH1 0x1 PUSH1 0x1 PUSH1 0xA0 SHL SUB AND DUP2 MSTORE PUSH1 0x20 ADD PUSH1 0x0 DUP1 NOT AND DUP2 MSTORE PUSH1 0x20 ADD PUSH1 0x0 DUP1 NOT AND DUP2 MSTORE PUSH1 0x20 ADD PUSH1 0x0 DUP2 MSTORE PUSH1 0x20 ADD PUSH1 0x0 DUP2 MSTORE PUSH1 0x20 ADD PUSH1 0x0 DUP2 MSTORE PUSH1 0x20 ADD PUSH1 0x0 DUP2 MSTORE PUSH1 0x20 ADD PUSH1 0x0 DUP2 MSTORE PUSH1 0x20 ADD PUSH1 0x0 DUP2 MSTORE PUSH1 0x20 ADD PUSH1 0x0 DUP2 MSTORE PUSH1 0x20 ADD PUSH1 0x0 DUP2 MSTORE PUSH1 0x20 ADD PUSH1 0x0 DUP2 MSTORE PUSH1 0x20 ADD PUSH1 0x0 PUSH1 0x5 DUP2 GT ISZERO PUSH2 0x4D53 JUMPI PUSH2 0x4D53 PUSH2 0x4E48 JUMP JUMPDEST DUP2 MSTORE PUSH1 0x0 PUSH1 0x20 SWAP1 SWAP2 ADD MSTORE SWAP1 JUMP JUMPDEST PUSH1 0x0 DUP1 DUP6 DUP6 GT ISZERO PUSH2 0x4D70 JUMPI PUSH1 0x0 DUP1 REVERT JUMPDEST DUP4 DUP7 GT ISZERO PUSH2 0x4D7D JUMPI PUSH1 0x0 DUP1 REVERT JUMPDEST POP POP DUP3 ADD SWAP4 SWAP2 SWAP1 SWAP3 SUB SWAP2 POP JUMP JUMPDEST PUSH1 0x0 PUSH1 0x20 DUP3 DUP5 SUB SLT ISZERO PUSH2 0x4D9C JUMPI PUSH1 0x0 DUP1 REVERT JUMPDEST DUP2 CALLDATALOAD PUSH1 0x1 PUSH1 0x1 PUSH1 0xE0 SHL SUB NOT DUP2 AND DUP2 EQ PUSH2 0x97C JUMPI PUSH1 0x0 DUP1 REVERT JUMPDEST PUSH1 0x1 PUSH1 0x1 PUSH1 0xA0 SHL SUB DUP2 AND DUP2 EQ PUSH2 0x27CE JUMPI PUSH1 0x0 DUP1 REVERT JUMPDEST PUSH1 0x0 DUP1 PUSH1 0x0 DUP1 PUSH1 0x0 PUSH1 0xA0 DUP7 DUP9 SUB SLT ISZERO PUSH2 0x4DE1 JUMPI PUSH1 0x0 DUP1 REVERT JUMPDEST DUP6 CALLDATALOAD PUSH2 0x4DEC DUP2 PUSH2 0x4DB4 JUMP JUMPDEST SWAP8 PUSH1 0x20 DUP8 ADD CALLDATALOAD SWAP8 POP PUSH1 0x40 DUP8 ADD CALLDATALOAD SWAP7 PUSH1 0x60 DUP2 ADD CALLDATALOAD SWAP7 POP PUSH1 0x80 ADD CALLDATALOAD SWAP5 POP SWAP3 POP POP POP JUMP JUMPDEST PUSH1 0x0 DUP1 PUSH1 0x40 DUP4 DUP6 SUB SLT ISZERO PUSH2 0x4E20 JUMPI PUSH1 0x0 DUP1 REVERT JUMPDEST POP POP DUP1 CALLDATALOAD SWAP3 PUSH1 0x20 SWAP1 SWAP2 ADD CALLDATALOAD SWAP2 POP JUMP JUMPDEST PUSH1 0x0 PUSH1 0x20 DUP3 DUP5 SUB SLT ISZERO PUSH2 0x4E41 JUMPI PUSH1 0x0 DUP1 REVERT JUMPDEST POP CALLDATALOAD SWAP2 SWAP1 POP JUMP JUMPDEST PUSH4 0x4E487B71 PUSH1 0xE0 SHL PUSH1 0x0 MSTORE PUSH1 0x21 PUSH1 0x4 MSTORE PUSH1 0x24 PUSH1 0x0 REVERT JUMPDEST PUSH1 0x6 DUP2 LT PUSH2 0x4E7C JUMPI PUSH4 0x4E487B71 PUSH1 0xE0 SHL PUSH1 0x0 MSTORE PUSH1 0x21 PUSH1 0x4 MSTORE PUSH1 0x24 PUSH1 0x0 REVERT JUMPDEST SWAP1 MSTORE JUMP JUMPDEST DUP2 MLOAD PUSH1 0x1 PUSH1 0x1 PUSH1 0xA0 SHL SUB AND DUP2 MSTORE PUSH2 0x1C0 DUP2 ADD PUSH1 0x20 DUP4 ADD MLOAD PUSH1 0x20 DUP4 ADD MSTORE PUSH1 0x40 DUP4 ADD MLOAD PUSH1 0x40 DUP4 ADD MSTORE PUSH1 0x60 DUP4 ADD MLOAD PUSH1 0x60 DUP4 ADD MSTORE PUSH1 0x80 DUP4 ADD MLOAD PUSH1 0x80 DUP4 ADD MSTORE PUSH1 0xA0 DUP4 ADD MLOAD PUSH1 0xA0 DUP4 ADD MSTORE PUSH1 0xC0 DUP4 ADD MLOAD PUSH1 0xC0 DUP4 ADD MSTORE PUSH1 0xE0 DUP4 ADD MLOAD PUSH1 0xE0 DUP4 ADD MSTORE PUSH2 0x100 DUP1 DUP5 ADD MLOAD DUP2 DUP5 ADD MSTORE POP PUSH2 0x120 DUP1 DUP5 ADD MLOAD DUP2 DUP5 ADD MSTORE POP PUSH2 0x140 DUP1 DUP5 ADD MLOAD DUP2 DUP5 ADD MSTORE POP PUSH2 0x160 DUP1 DUP5 ADD MLOAD DUP2 DUP5 ADD MSTORE POP PUSH2 0x180 DUP1 DUP5 ADD MLOAD PUSH2 0x4F1B DUP3 DUP6 ADD DUP3 PUSH2 0x4E5E JUMP JUMPDEST POP POP PUSH2 0x1A0 DUP4 DUP2 ADD MLOAD PUSH1 0xFF DUP2 AND DUP5 DUP4 ADD MSTORE JUMPDEST POP POP SWAP3 SWAP2 POP POP JUMP JUMPDEST PUSH1 0x0 PUSH1 0x20 DUP3 DUP5 SUB SLT ISZERO PUSH2 0x4F47 JUMPI PUSH1 0x0 DUP1 REVERT JUMPDEST DUP2 CALLDATALOAD PUSH2 0x97C DUP2 PUSH2 0x4DB4 JUMP JUMPDEST DUP1 CALLDATALOAD PUSH1 0xFF DUP2 AND DUP2 EQ PUSH2 0x4F63 JUMPI PUSH1 0x0 DUP1 REVERT JUMPDEST SWAP2 SWAP1 POP JUMP JUMPDEST PUSH1 0x0 DUP1 PUSH1 0x0 DUP1 PUSH1 0x0 DUP1 PUSH1 0xC0 DUP8 DUP10 SUB SLT ISZERO PUSH2 0x4F81 JUMPI PUSH1 0x0 DUP1 REVERT JUMPDEST DUP7 CALLDATALOAD SWAP6 POP PUSH1 0x20 DUP8 ADD CALLDATALOAD SWAP5 POP PUSH1 0x40 DUP8 ADD CALLDATALOAD SWAP4 POP PUSH1 0x60 DUP8 ADD CALLDATALOAD SWAP3 POP PUSH1 0x80 DUP8 ADD CALLDATALOAD SWAP2 POP PUSH2 0x4FAD PUSH1 0xA0 DUP9 ADD PUSH2 0x4F52 JUMP JUMPDEST SWAP1 POP SWAP3 SWAP6 POP SWAP3 SWAP6 POP SWAP3 SWAP6 JUMP JUMPDEST PUSH1 0x0 PUSH1 0x20 DUP3 DUP5 SUB SLT ISZERO PUSH2 0x4FCB JUMPI PUSH1 0x0 DUP1 REVERT JUMPDEST DUP2 CALLDATALOAD PUSH6 0xFFFFFFFFFFFF DUP2 AND DUP2 EQ PUSH2 0x97C JUMPI PUSH1 0x0 DUP1 REVERT JUMPDEST PUSH1 0x0 DUP1 PUSH1 0x0 DUP1 PUSH1 0x80 DUP6 DUP8 SUB SLT ISZERO PUSH2 0x4FF7 JUMPI PUSH1 0x0 DUP1 REVERT JUMPDEST POP POP DUP3 CALLDATALOAD SWAP5 PUSH1 0x20 DUP5 ADD CALLDATALOAD SWAP5 POP PUSH1 0x40 DUP5 ADD CALLDATALOAD SWAP4 PUSH1 0x60 ADD CALLDATALOAD SWAP3 POP SWAP1 POP JUMP JUMPDEST PUSH1 0x0 DUP1 PUSH1 0x0 DUP1 PUSH1 0x0 DUP1 PUSH1 0x0 PUSH1 0xE0 DUP9 DUP11 SUB SLT ISZERO PUSH2 0x502E JUMPI PUSH1 0x0 DUP1 REVERT JUMPDEST DUP8 CALLDATALOAD PUSH2 0x5039 DUP2 PUSH2 0x4DB4 JUMP JUMPDEST SWAP7 POP PUSH1 0x20 DUP9 ADD CALLDATALOAD SWAP6 POP PUSH1 0x40 DUP9 ADD CALLDATALOAD SWAP5 POP PUSH1 0x60 DUP9 ADD CALLDATALOAD SWAP4 POP PUSH1 0x80 DUP9 ADD CALLDATALOAD SWAP3 POP PUSH1 0xA0 DUP9 ADD CALLDATALOAD SWAP2 POP PUSH2 0x506A PUSH1 0xC0 DUP10 ADD PUSH2 0x4F52 JUMP JUMPDEST SWAP1 POP SWAP3 SWAP6 SWAP9 SWAP2 SWAP5 SWAP8 POP SWAP3 SWAP6 POP JUMP JUMPDEST PUSH1 0x0 PUSH1 0x20 DUP3 DUP5 SUB SLT ISZERO PUSH2 0x508A JUMPI PUSH1 0x0 DUP1 REVERT JUMPDEST DUP2 CALLDATALOAD PUSH1 0x1 PUSH1 0x1 PUSH1 0x40 SHL SUB DUP2 AND DUP2 EQ PUSH2 0x97C JUMPI PUSH1 0x0 DUP1 REVERT JUMPDEST PUSH1 0x0 DUP1 PUSH1 0x0 DUP1 PUSH1 0x0 DUP1 PUSH1 0x0 PUSH1 0xE0 DUP9 DUP11 SUB SLT ISZERO PUSH2 0x50BC JUMPI PUSH1 0x0 DUP1 REVERT JUMPDEST DUP8 CALLDATALOAD PUSH2 0x50C7 DUP2 PUSH2 0x4DB4 JUMP JUMPDEST SWAP7 POP PUSH1 0x20 DUP9 ADD CALLDATALOAD PUSH2 0x50D7 DUP2 PUSH2 0x4DB4 JUMP JUMPDEST SWAP6 POP PUSH1 0x40 DUP9 ADD CALLDATALOAD PUSH2 0x50E7 DUP2 PUSH2 0x4DB4 JUMP JUMPDEST SWAP5 POP PUSH1 0x60 DUP9 ADD CALLDATALOAD SWAP4 POP PUSH1 0x80 DUP9 ADD CALLDATALOAD SWAP3 POP PUSH1 0xA0 DUP9 ADD CALLDATALOAD SWAP2 POP PUSH2 0x506A PUSH1 0xC0 DUP10 ADD PUSH2 0x4F52 JUMP JUMPDEST PUSH1 0x0 DUP1 PUSH1 0x0 DUP1 PUSH1 0x0 DUP1 PUSH1 0x0 DUP1 PUSH1 0x0 PUSH2 0x120 DUP11 DUP13 SUB SLT ISZERO PUSH2 0x5129 JUMPI PUSH1 0x0 DUP1 REVERT JUMPDEST DUP10 CALLDATALOAD PUSH2 0x5134 DUP2 PUSH2 0x4DB4 JUMP JUMPDEST SWAP9 POP PUSH1 0x20 DUP11 ADD CALLDATALOAD PUSH2 0x5144 DUP2 PUSH2 0x4DB4 JUMP JUMPDEST SWAP8 POP PUSH1 0x40 DUP11 ADD CALLDATALOAD SWAP7 POP PUSH1 0x60 DUP11 ADD CALLDATALOAD PUSH2 0x515B DUP2 PUSH2 0x4DB4 JUMP JUMPDEST SWAP6 POP PUSH1 0x80 DUP11 ADD CALLDATALOAD SWAP5 POP PUSH1 0xA0 DUP11 ADD CALLDATALOAD SWAP4 POP PUSH1 0xC0 DUP11 ADD CALLDATALOAD SWAP3 POP PUSH1 0xE0 DUP11 ADD CALLDATALOAD SWAP2 POP PUSH2 0x5186 PUSH2 0x100 DUP12 ADD PUSH2 0x4F52 JUMP JUMPDEST SWAP1 POP SWAP3 SWAP6 SWAP9 POP SWAP3 SWAP6 SWAP9 POP SWAP3 SWAP6 SWAP9 JUMP JUMPDEST PUSH1 0x0 DUP1 PUSH1 0x0 DUP1 PUSH1 0x0 DUP1 PUSH1 0x0 DUP1 PUSH2 0x100 DUP10 DUP12 SUB SLT ISZERO PUSH2 0x51B2 JUMPI PUSH1 0x0 DUP1 REVERT JUMPDEST DUP9 CALLDATALOAD PUSH2 0x51BD DUP2 PUSH2 0x4DB4 JUMP JUMPDEST SWAP8 POP PUSH1 0x20 DUP10 ADD CALLDATALOAD SWAP7 POP PUSH1 0x40 DUP10 ADD CALLDATALOAD PUSH2 0x51D4 DUP2 PUSH2 0x4DB4 JUMP JUMPDEST SWAP6 POP PUSH1 0x60 DUP10 ADD CALLDATALOAD SWAP5 POP PUSH1 0x80 DUP10 ADD CALLDATALOAD SWAP4 POP PUSH1 0xA0 DUP10 ADD CALLDATALOAD SWAP3 POP PUSH1 0xC0 DUP10 ADD CALLDATALOAD SWAP2 POP PUSH2 0x51FE PUSH1 0xE0 DUP11 ADD PUSH2 0x4F52 JUMP JUMPDEST SWAP1 POP SWAP3 SWAP6 SWAP9 POP SWAP3 SWAP6 SWAP9 SWAP1 SWAP4 SWAP7 POP JUMP JUMPDEST PUSH1 0x0 PUSH1 0x20 DUP3 DUP5 SUB SLT ISZERO PUSH2 0x521F JUMPI PUSH1 0x0 DUP1 REVERT JUMPDEST DUP2 CALLDATALOAD PUSH4 0xFFFFFFFF DUP2 AND DUP2 EQ PUSH2 0x97C JUMPI PUSH1 0x0 DUP1 REVERT JUMPDEST PUSH1 0x0 PUSH1 0x20 DUP3 DUP5 SUB SLT ISZERO PUSH2 0x5245 JUMPI PUSH1 0x0 DUP1 REVERT JUMPDEST DUP2 MLOAD DUP1 ISZERO ISZERO DUP2 EQ PUSH2 0x97C JUMPI PUSH1 0x0 DUP1 REVERT JUMPDEST PUSH1 0x0 PUSH1 0x20 DUP3 DUP5 SUB SLT ISZERO PUSH2 0x5267 JUMPI PUSH1 0x0 DUP1 REVERT JUMPDEST DUP2 MLOAD PUSH2 0x97C DUP2 PUSH2 0x4DB4 JUMP JUMPDEST PUSH1 0x0 DUP3 MLOAD PUSH1 0x0 JUMPDEST DUP2 DUP2 LT ISZERO PUSH2 0x5293 JUMPI PUSH1 0x20 DUP2 DUP7 ADD DUP2 ADD MLOAD DUP6 DUP4 ADD MSTORE ADD PUSH2 0x5279 JUMP JUMPDEST DUP2 DUP2 GT ISZERO PUSH2 0x52A2 JUMPI PUSH1 0x0 DUP3 DUP6 ADD MSTORE JUMPDEST POP SWAP2 SWAP1 SWAP2 ADD SWAP3 SWAP2 POP POP JUMP JUMPDEST PUSH4 0x4E487B71 PUSH1 0xE0 SHL PUSH1 0x0 MSTORE PUSH1 0x11 PUSH1 0x4 MSTORE PUSH1 0x24 PUSH1 0x0 REVERT JUMPDEST PUSH1 0x0 DUP3 PUSH2 0x52E0 JUMPI PUSH4 0x4E487B71 PUSH1 0xE0 SHL PUSH1 0x0 MSTORE PUSH1 0x12 PUSH1 0x4 MSTORE PUSH1 0x24 PUSH1 0x0 REVERT JUMPDEST POP DIV SWAP1 JUMP JUMPDEST PUSH1 0x0 DUP2 PUSH1 0x0 NOT DIV DUP4 GT DUP3 ISZERO ISZERO AND ISZERO PUSH2 0x52FF JUMPI PUSH2 0x52FF PUSH2 0x52AD JUMP JUMPDEST POP MUL SWAP1 JUMP JUMPDEST PUSH4 0x4E487B71 PUSH1 0xE0 SHL PUSH1 0x0 MSTORE PUSH1 0x1 PUSH1 0x4 MSTORE PUSH1 0x24 PUSH1 0x0 REVERT JUMPDEST PUSH1 0x20 DUP1 DUP3 MSTORE PUSH1 0x10 SWAP1 DUP3 ADD MSTORE PUSH16 0x10DBDB9D1C9858DD081CDD1BDC1C1959 PUSH1 0x82 SHL PUSH1 0x40 DUP3 ADD MSTORE PUSH1 0x60 ADD SWAP1 JUMP JUMPDEST PUSH1 0x0 DUP1 PUSH1 0x40 DUP4 DUP6 SUB SLT ISZERO PUSH2 0x5357 JUMPI PUSH1 0x0 DUP1 REVERT JUMPDEST POP POP DUP1 MLOAD PUSH1 0x20 SWAP1 SWAP2 ADD MLOAD SWAP1 SWAP3 SWAP1 SWAP2 POP JUMP JUMPDEST PUSH1 0x0 PUSH1 0x20 DUP3 DUP5 SUB SLT ISZERO PUSH2 0x537A JUMPI PUSH1 0x0 DUP1 REVERT JUMPDEST POP MLOAD SWAP2 SWAP1 POP JUMP JUMPDEST PUSH1 0x0 DUP1 PUSH1 0x0 PUSH1 0x60 DUP5 DUP7 SUB SLT ISZERO PUSH2 0x5396 JUMPI PUSH1 0x0 DUP1 REVERT JUMPDEST DUP4 MLOAD SWAP3 POP PUSH1 0x20 DUP5 ADD MLOAD SWAP2 POP PUSH1 0x40 DUP5 ADD MLOAD SWAP1 POP SWAP3 POP SWAP3 POP SWAP3 JUMP JUMPDEST PUSH1 0x0 DUP3 DUP3 LT ISZERO PUSH2 0x53C1 JUMPI PUSH2 0x53C1 PUSH2 0x52AD JUMP JUMPDEST POP SUB SWAP1 JUMP JUMPDEST PUSH1 0x0 DUP3 NOT DUP3 GT ISZERO PUSH2 0x53D9 JUMPI PUSH2 0x53D9 PUSH2 0x52AD JUMP JUMPDEST POP ADD SWAP1 JUMP JUMPDEST PUSH1 0x0 PUSH1 0x1 PUSH1 0x1 PUSH1 0x40 SHL SUB DUP4 DUP2 AND SWAP1 DUP4 AND DUP2 DUP2 LT ISZERO PUSH2 0x53FE JUMPI PUSH2 0x53FE PUSH2 0x52AD JUMP JUMPDEST SUB SWAP4 SWAP3 POP POP POP JUMP JUMPDEST PUSH1 0x0 PUSH1 0x1 PUSH1 0x1 PUSH1 0x40 SHL SUB DUP1 DUP4 AND DUP2 DUP6 AND DUP1 DUP4 SUB DUP3 GT ISZERO PUSH2 0x5428 JUMPI PUSH2 0x5428 PUSH2 0x52AD JUMP JUMPDEST ADD SWAP5 SWAP4 POP POP POP POP JUMP JUMPDEST PUSH1 0x20 DUP1 DUP3 MSTORE PUSH1 0x2B SWAP1 DUP3 ADD MSTORE PUSH32 0x4D757374206265206163636F756E743D3D5F6D736753656E646572206F72204D PUSH1 0x40 DUP3 ADD MSTORE PUSH11 0x6F64652054657374696E67 PUSH1 0xA8 SHL PUSH1 0x60 DUP3 ADD MSTORE PUSH1 0x80 ADD SWAP1 JUMP JUMPDEST SWAP4 DUP5 MSTORE PUSH1 0x1 PUSH1 0x1 PUSH1 0xA0 SHL SUB SWAP3 DUP4 AND PUSH1 0x20 DUP6 ADD MSTORE SWAP2 AND PUSH1 0x40 DUP4 ADD MSTORE PUSH1 0x60 DUP3 ADD MSTORE PUSH1 0x80 ADD SWAP1 JUMP JUMPDEST DUP2 MLOAD DUP2 MSTORE PUSH1 0x20 DUP1 DUP4 ADD MLOAD PUSH2 0x180 DUP4 ADD SWAP2 PUSH2 0x54C5 SWAP1 DUP5 ADD DUP3 PUSH1 0x1 PUSH1 0x1 PUSH1 0xA0 SHL SUB AND SWAP1 MSTORE JUMP JUMPDEST POP PUSH1 0x40 DUP4 ADD MLOAD PUSH2 0x54D8 PUSH1 0x40 DUP5 ADD DUP3 PUSH2 0x4E5E JUMP JUMPDEST POP PUSH1 0x60 DUP4 ADD MLOAD PUSH2 0x54ED PUSH1 0x60 DUP5 ADD DUP3 PUSH1 0xFF AND SWAP1 MSTORE JUMP JUMPDEST POP PUSH1 0x80 DUP4 ADD MLOAD PUSH1 0x80 DUP4 ADD MSTORE PUSH1 0xA0 DUP4 ADD MLOAD PUSH2 0x5512 PUSH1 0xA0 DUP5 ADD DUP3 PUSH1 0x1 PUSH1 0x1 PUSH1 0x40 SHL SUB AND SWAP1 MSTORE JUMP JUMPDEST POP PUSH1 0xC0 DUP4 ADD MLOAD PUSH2 0x552D PUSH1 0xC0 DUP5 ADD DUP3 PUSH1 0x1 PUSH1 0x1 PUSH1 0x40 SHL SUB AND SWAP1 MSTORE JUMP JUMPDEST POP PUSH1 0xE0 DUP4 ADD MLOAD PUSH2 0x5548 PUSH1 0xE0 DUP5 ADD DUP3 PUSH1 0x1 PUSH1 0x1 PUSH1 0x40 SHL SUB AND SWAP1 MSTORE JUMP JUMPDEST POP PUSH2 0x100 DUP4 DUP2 ADD MLOAD PUSH1 0x1 PUSH1 0x1 PUSH1 0x40 SHL SUB SWAP1 DUP2 AND SWAP2 DUP5 ADD SWAP2 SWAP1 SWAP2 MSTORE PUSH2 0x120 DUP1 DUP6 ADD MLOAD DUP3 AND SWAP1 DUP5 ADD MSTORE PUSH2 0x140 DUP1 DUP6 ADD MLOAD DUP3 AND SWAP1 DUP5 ADD MSTORE PUSH2 0x160 DUP1 DUP6 ADD MLOAD SWAP2 DUP3 AND DUP2 DUP6 ADD MSTORE SWAP1 PUSH2 0x4F2D JUMP JUMPDEST PUSH4 0x4E487B71 PUSH1 0xE0 SHL PUSH1 0x0 MSTORE PUSH1 0x41 PUSH1 0x4 MSTORE PUSH1 0x24 PUSH1 0x0 REVERT JUMPDEST PUSH4 0x4E487B71 PUSH1 0xE0 SHL PUSH1 0x0 MSTORE PUSH1 0x32 PUSH1 0x4 MSTORE PUSH1 0x24 PUSH1 0x0 REVERT JUMPDEST PUSH1 0x0 PUSH1 0x20 DUP1 DUP4 DUP6 SUB SLT ISZERO PUSH2 0x55CF JUMPI PUSH1 0x0 DUP1 REVERT JUMPDEST DUP3 MLOAD PUSH1 0x1 PUSH1 0x1 PUSH1 0x40 SHL SUB DUP1 DUP3 GT ISZERO PUSH2 0x55E6 JUMPI PUSH1 0x0 DUP1 REVERT JUMPDEST DUP2 DUP6 ADD SWAP2 POP DUP6 PUSH1 0x1F DUP4 ADD SLT PUSH2 0x55FA JUMPI PUSH1 0x0 DUP1 REVERT JUMPDEST DUP2 MLOAD DUP2 DUP2 GT ISZERO PUSH2 0x560C JUMPI PUSH2 0x560C PUSH2 0x5590 JUMP JUMPDEST DUP1 PUSH1 0x5 SHL PUSH1 0x40 MLOAD PUSH1 0x1F NOT PUSH1 0x3F DUP4 ADD AND DUP2 ADD DUP2 DUP2 LT DUP6 DUP3 GT OR ISZERO PUSH2 0x5631 JUMPI PUSH2 0x5631 PUSH2 0x5590 JUMP JUMPDEST PUSH1 0x40 MSTORE SWAP2 DUP3 MSTORE DUP5 DUP3 ADD SWAP3 POP DUP4 DUP2 ADD DUP6 ADD SWAP2 DUP9 DUP4 GT ISZERO PUSH2 0x564F JUMPI PUSH1 0x0 DUP1 REVERT JUMPDEST SWAP4 DUP6 ADD SWAP4 JUMPDEST DUP3 DUP6 LT ISZERO PUSH2 0x24AA JUMPI DUP5 MLOAD DUP5 MSTORE SWAP4 DUP6 ADD SWAP4 SWAP3 DUP6 ADD SWAP3 PUSH2 0x5654 JUMP JUMPDEST PUSH1 0x0 DUP2 MLOAD DUP1 DUP5 MSTORE PUSH1 0x20 DUP1 DUP6 ADD SWAP5 POP DUP1 DUP5 ADD PUSH1 0x0 JUMPDEST DUP4 DUP2 LT ISZERO PUSH2 0x569D JUMPI DUP2 MLOAD DUP8 MSTORE SWAP6 DUP3 ADD SWAP6 SWAP1 DUP3 ADD SWAP1 PUSH1 0x1 ADD PUSH2 0x5681 JUMP JUMPDEST POP SWAP5 SWAP6 SWAP5 POP POP POP POP POP JUMP JUMPDEST PUSH1 0x40 DUP2 MSTORE PUSH1 0x0 PUSH2 0x56BB PUSH1 0x40 DUP4 ADD DUP6 PUSH2 0x566D JUMP JUMPDEST SWAP1 POP DUP3 PUSH1 0x20 DUP4 ADD MSTORE SWAP4 SWAP3 POP POP POP JUMP JUMPDEST PUSH1 0x0 PUSH1 0x0 NOT DUP3 EQ ISZERO PUSH2 0x56DE JUMPI PUSH2 0x56DE PUSH2 0x52AD JUMP JUMPDEST POP PUSH1 0x1 ADD SWAP1 JUMP JUMPDEST PUSH1 0x20 DUP1 DUP3 MSTORE DUP3 MLOAD DUP3 DUP3 ADD DUP2 SWAP1 MSTORE PUSH1 0x0 SWAP2 SWAP1 DUP5 DUP3 ADD SWAP1 PUSH1 0x40 DUP6 ADD SWAP1 DUP5 JUMPDEST DUP2 DUP2 LT ISZERO PUSH2 0x571D JUMPI DUP4 MLOAD DUP4 MSTORE SWAP3 DUP5 ADD SWAP3 SWAP2 DUP5 ADD SWAP2 PUSH1 0x1 ADD PUSH2 0x5701 JUMP JUMPDEST POP SWAP1 SWAP7 SWAP6 POP POP POP POP POP POP JUMP JUMPDEST PUSH1 0x40 DUP2 MSTORE PUSH1 0x0 PUSH2 0x573C PUSH1 0x40 DUP4 ADD DUP6 PUSH2 0x566D JUMP JUMPDEST DUP3 DUP2 SUB PUSH1 0x20 DUP5 ADD MSTORE PUSH2 0x12D5 DUP2 DUP6 PUSH2 0x566D JUMP INVALID 0xCD PUSH24 0x5F2396F9F13F12BCF8CA32E21DF66559A8ADC3944D059112 PUSH31 0x7731F7AB85A2646970667358221220669A8955D7F4BF60187D51790F72D289 XOR 0xD9 0xD0 EXTCODECOPY TIMESTAMP MSTORE PC NOT 0x4F PUSH5 0x86D4F9BF86 ADD PUSH5 0x736F6C6343 STOP ADDMOD SIGNEXTEND STOP CALLER ","sha1":"4e89b038f86179d26f5dce9507214fba47d361ce","source":"// SPDX-License-Identifier: MIT\n// Beef MarketPlace Contracts v0.0.0 hello@mcdu.com\n\npragma solidity ^0.8.0;\n\nimport \"../Market.sol\";\n\nbytes32 constant MARKETORDER = keccak256(\"MarketOrder\");\n\ncontract MarketOrder is Market, MarketPathWriter {\n    using Array for uint256[];\n    using Array for bytes32[];\n\n    function id() public view virtual override (Market) returns (bytes32) {return MARKETORDER;}\n\n    modifier onlyMarketOrder() virtual {\n        checkMarketOrder();\n        _;\n    }\n\n    function checkMarketOrder() internal view {\n        //require((address(rep.mo()) == _msgSender()), \"Allowance: caller must be Market\");\n    }\n \n    /////////////////////////////////////////////////////////////////////////////////////////\n    //      event\n    /////////////////////////////////////////////////////////////////////////////////////////\n    event Transaction(\n        bytes32 indexed fromk_,\n        bytes32 indexed tok_,\n        address fromaccount_,\n        address toaccount_,\n        uint256 quote_,\n        uint256 qty_\n    );\n\n    /////////////////////////////////////////////////////////////////////////////////////////\n    //      storage\n    /////////////////////////////////////////////////////////////////////////////////////////\n    //bool private constant _autodeleteorders = true;\n\n    constructor(Repository rep_) Market(rep_) {}\n\n    /////////////////////////////////////////////////////////////////////////////////////////\n    //      PROCESSING     internal processing\n    /////////////////////////////////////////////////////////////////////////////////////////\n    function _orderDestroy(Order.Info storage order_) internal {\n        _orderids.remove(order_.orderid);\n        _pastorders[block.number].push(order_.orderid);\n        //delete _orders[order_.orderid];\n    }\n\n    function _orderTerminate(Order.Info storage order_, Order.State newstate_)\n        internal\n    {\n        require(\n            newstate_ > Order.State.Unknown &&\n                newstate_ <= Order.State.Completed &&\n                order_.state >= Order.State.Active,\n            \"_orderTerminate state problem\"\n        );\n        (bytes32 from, bytes32 to) = rep.resolveBytes32Bytes32(order_.fromto);\n        //if (newstate_<=Order.State.Completed && order_.state>=Order.State.Active)\n        order_.state = newstate_;\n        if (Order.isReserved(order_.options))\n            Bank(rep.get(BANK))._reserveSub(\n                to,\n                order_.account,\n                address(this),\n                UInt64ToUInt256(order_.originalqty - order_.qtydone)\n            );\n        _fromtoorders[order_.fromto].remove(order_.orderid);\n        _fromorders[from].remove(order_.orderid);\n        _toorders[to].remove(order_.orderid);\n    }\n\n    /////////////////////////////////////////////////////////////////////////////////////////\n    //      PUBLIC\n    /////////////////////////////////////////////////////////////////////////////////////////\n\n    function _orderMakeTransfer(\n        Order.Info storage order_,\n        address toaccount_,\n        bool toreserve_,\n        uint256 qty_\n    ) internal {\n        address _fromfeeaccount;\n        uint256 _fromfee;\n        address _tofeeaccount;\n        uint256 _tofee;\n\n        if (_fromfeeaccount == address(0)) _fromfee = 0;\n        if (_tofeeaccount == address(0)) _tofee = 0;\n\n        uint256 _toqty = (qty_ * UInt64ToUInt256(order_.quote)) / 10**18;\n        (bytes32 from, bytes32 to) = rep.resolveBytes32Bytes32(order_.fromto);\n\n        if (Order.isReserved(order_.options))\n            Bank(rep.get(BANK))._reserveSub(\n                from,\n                order_.account,\n                address(this),\n                qty_\n            );\n        if (toreserve_)\n            Bank(rep.get(BANK))._reserveSub(to, toaccount_, address(this), _toqty);\n\n        if (_fromfee != 0)\n            Bank(rep.get(BANK))._transfer(\n                from,\n                order_.account,\n                _fromfeeaccount,\n                _fromfee\n            );\n        if (_tofee != 0)\n            Bank(rep.get(BANK))._transfer(to, toaccount_, _tofeeaccount, _tofee);\n        Bank(rep.get(BANK))._transfer(\n            from,\n            order_.account,\n            toaccount_,\n            qty_ - _fromfee\n        );\n        Bank(rep.get(BANK))._transfer(\n            to,\n            toaccount_,\n            order_.account,\n            _toqty - _tofee\n        );\n    }\n\n    function orderFulfill(\n        uint256 orderid_,\n        uint256 qty_,\n        uint256 quote_,\n        uint256 pctslippage_\n    ) public all returns (uint256 qtydone_) {\n        return\n            orderFulfillEx(_msgSender(), orderid_, qty_, quote_, pctslippage_);\n    }\n\n    function orderFulfillEx(\n        address account_,\n        uint256 orderid_,\n        uint256 qty_,\n        uint256 quote_,\n        uint256 pctslippage_\n    ) public all returns (uint256 qtydone_) {\n        (bool _result, ) = rep.get(MARKET).call(\n            abi.encodeWithSelector(\n                bytes4(\n                    keccak256(\n                        \"d_orderFulfillEx(address,uint32,uint256,uint256,uint256)\"\n                    )\n                ),\n                address(this),\n                account_,\n                orderid_,\n                qty_,\n                quote_,\n                pctslippage_\n            )\n        );\n        _return(_result);\n    }\n\n    function d_orderFulfillEx(\n        address account_,\n        uint256 orderid_,\n        uint256 qty_,\n        uint256 quote_,\n        uint256 pctslippage_\n    ) public onlyMarketOrder returns (uint256 qtydone_) {\n        require(!STOP(), \"Contract stopped\");\n        require(\n            rep.MODETEST() || account_ == _msgSender(),\n            \"Must be account==_msgSender() or Mode Testing\"\n        );\n        Order.Info storage _order = _orders[orderid_];\n        (bytes32 from, bytes32 to) = rep.resolveBytes32Bytes32(_order.fromto);\n\n        require(\n            (qty_ * quote_) / 10**18 <= Bank(rep.get(BANK)).available(to, account_),\n            \"Bank: Not enough available\"\n        );\n\n        uint256 _quote;\n        if (Order.isIndexed(_order.options)) {\n            // this must update _quote by reentrant call back\n            (, _quote, ) = Quotator(rep.get(QUOTATOR)).read(from, to);\n        } else _quote = UInt64ToUInt256(_order.quote);\n        require(\n            _quote <= (quote_ * (10**18 - pctslippage_)) / 10**18 &&\n                _quote >= (quote_ * (10**18 + pctslippage_)) / 10**18,\n            \"Quote Slipped over tolerance\"\n        );\n\n        uint256 _qty = (qty_ * quote_) / _quote;\n        uint256 _orderqty = UInt64ToUInt256(_order.qty - _order.qtydone);\n        if (_orderqty < _qty) _qty = _orderqty;\n\n        _orderMakeTransfer(_order, account_, false, qty_);\n\n        _order.qtydone += UInt256ToUInt64(qty_);\n        if (_order.qtydone == _order.originalqty)\n            _orderTerminate(_order, Order.State.Completed);\n\n        //if (!Order.isHidden(_order.options))\n        emit Transaction(from, to, _order.account, account_, _quote, _qty);\n        if (_order.state <= Order.State.Completed) _orderDestroy(_order);\n\n        return qty_;\n    }\n\n\n    function orderPlaceEx(\n        address from_,\n        uint256 fromid_,\n        address to_,\n        uint256 toid_,\n        uint256 granularity_,\n        uint256 qty_,\n        uint256 quote_,\n        uint8 options_\n    ) public all returns (uint256 orderid_) {\n        return\n            orderPlace(\n                _msgSender(),\n                rep.currency(from_, fromid_),\n                rep.currency(to_, toid_),\n                granularity_,\n                qty_,\n                quote_,\n                options_\n            );\n    }\n\n    function orderPlace(\n        address account_,\n        address from_,\n        uint256 fromid_,\n        address to_,\n        uint256 toid_,\n        uint256 granularity_,\n        uint256 qty_,\n        uint256 quote_,\n        uint8 options_\n    ) public all returns (uint256 orderid_) {\n        return\n            orderPlace(\n                account_,\n                rep.currency(from_, fromid_),\n                rep.currency(to_, toid_),\n                granularity_,\n                qty_,\n                quote_,\n                options_\n            );\n    }\n\n    function orderPlaceEx(\n        address account_,\n        address from_,\n        address to_,\n        uint256 granularity_,\n        uint256 qty_,\n        uint256 quote_,\n        uint8 options_\n    ) public all returns (uint256 orderid_) {\n        return\n            orderPlace(\n                account_,\n                rep.currency(from_, 0),\n                rep.currency(to_, 0),\n                granularity_,\n                qty_,\n                quote_,\n                options_\n            );\n    }\n\n    function orderPlace(\n        bytes32 from_,\n        bytes32 to_,\n        uint256 granularity_,\n        uint256 qty_,\n        uint256 quote_,\n        uint8 options_\n    ) public all returns (uint256 orderid_) {\n        return\n            orderPlace(\n                _msgSender(),\n                from_,\n                to_,\n                granularity_,\n                qty_,\n                quote_,\n                options_\n            );\n    }\n\n    function orderPlace(\n        address account_,\n        bytes32 from_,\n        bytes32 to_,\n        uint256 granularity_,\n        uint256 qty_,\n        uint256 quote_,\n        uint8 options_\n    ) public all returns (uint256 orderid_) {\n        (bool _result, ) = rep.get(MARKET).call(\n            abi.encodeWithSelector(\n                bytes4(\n                    keccak256(\n                        \"d_orderPlace(address,bytes32,bytes32,uint256,uint256,uint256,uint8)\"\n                    )\n                ),\n                address(this),\n                account_,\n                from_,\n                to_,\n                granularity_,\n                qty_,\n                quote_,\n                options_\n            )\n        );\n        _return(_result);\n    }\n\n    function d_orderPlace(\n        address account_,\n        bytes32 from_,\n        bytes32 to_,\n        uint256 granularity_,\n        uint256 qty_,\n        uint256 quote_,\n        uint8 options_\n    ) public onlyMarketOrder returns (uint256 orderid_) {\n        require(!STOP(), \"Contract stopped\");\n        require(\n            rep.MODETEST() || account_ == _msgSender(),\n            \"Must be account==_msgSender or Mode Testing\"\n        );\n        //require(Bank(rep.get(BANK)).features(from_) == 0,\"Bank: 'From' type unknown\");\n        //require(Bank(rep.get(BANK)).features(to_) == 0, \"Bank: 'To' type unknown\");\n        //(address from, ) = rep.resolveCurrency(from_);\n        //(address to, ) = rep.resolveCurrency(to_);\n        if (rep.hasFeature(from_,Token.SupportTradeable)) {\n            address from = rep.resolveCurrencyAddr(from_);\n            require(ITradeable(from).tradeable(), \"From not tradeable\");\n            require(\n                ITradeable(from).onlyWithCurrency() && to_ != Token.CURRENCY,\n                \"From is only tradeable to Currency\"\n            );\n        }\n        require(\n            (!rep.nft(from_)) || qty_ == 10**18 || granularity_ == qty_,\n            \"'From' is NFT qty and granularity must be 1\"\n        );\n\n        //bytes32 from = rep.currency(from, fromid_);\n        require(\n            qty_ <= Bank(rep.get(BANK)).available(from_, account_),\n            \"Bank: Not enough available\"\n        );\n\n        Order.Info memory _order;\n        /*_order.typefrom = Bank(rep.get(BANK)).tokenType(from_);\n        require(\n            _order.typefrom != Token.Type.Unknown,\n            \"Bank: 'From' type unknown\"\n        );*/\n        //if (_order.typefrom == TokenType.Polymorph && nft)\n        //    granularity_ = qty_ = IPolymorph(from).getNFTQty();\n\n        _order.account = account_;\n        _order.fromto = rep.Bytes32Bytes32(from_, to_);\n        //(bytes32 v1,bytes32 v2) = rep.resolveBytes32Bytes32(_order.fromto);\n        //require(uint256(v1)==uint256(from_) && uint256(v2)==uint256(to_),\"uint256(v1)==uint256(from_) && uint256(v2)==uint256(to_)\");\n\n        //_order.typeto = Bank(rep.get(BANK)).tokenType(to_);\n        //require(_order.typeto != Token.Type.Unknown, \"Bank: 'To' type unknown\");\n        _order.granularity = UInt256ToUInt64(granularity_);\n        _order.qty = UInt256ToUInt64(qty_);\n        /*if (_order.typefrom == Token.Type.Polymorph) {\n            require(\n                (!IPolymorph(from).isTradeableOnlyWithCurrency()) &&\n                    (_order.typeto != Token.Type.Cur),\n                \"Bank: 'From' only tradeable to Currency\"\n            );\n        }\n        if (_order.typeto == Token.Type.Polymorph)\n            require(\n                (!IPolymorph(to).isTradeableOnlyWithCurrency()) &&\n                    (_order.typefrom != Token.Type.Cur),\n                \"Bank: 'To' only tradeable from Currency\"\n            );\n        */\n        _order.quote = UInt256ToUInt64(quote_);\n\n        if (Order.isIndexed(_order.options)) {\n            uint256 _qquote;\n            (, _qquote, ) = Quotator(rep.get(QUOTATOR)).read(from_,to_);\n            _order.originalbasedquote = UInt256ToUInt64(_qquote);\n            require(_order.originalbasedquote != 0, \"Quote: Not quoted\");\n        }\n\n        if (Order.isReserved(_order.options))\n            Bank(rep.get(BANK))._reserveAdd(to_, _order.account, address(this), qty_);\n\n        // we are saving order just now is order isnt completed\n        unchecked {\n            _orderidptr++;\n            while (_orderidptr == 0 && _orders[_orderidptr].orderid != 0)\n                _orderidptr++;\n        }\n        _order.orderid = _orderidptr;\n\n        _order.originalqty = _order.qty;\n        _order.state = Order.State.Active;\n        _order.options = options_;\n        _order.originalquote = _order.quote;\n\n        _orders[_order.orderid] = _order;\n        //if (USEFROMTOORDERS)\n        _orderids.insert(_order.orderid);\n        _fromtoorders[_order.fromto].insert(_order.orderid);\n        _fromorders[from_].insert(_order.orderid);\n        _toorders[to_].insert(_order.orderid);\n        _insertPath(_order.fromto);\n        return _orderidptr;\n    }\n\n    function orderCancel(uint256 orderid_) public all {\n        (bool _result, ) = rep.get(MARKET).call(\n            abi.encodeWithSelector(\n                bytes4(keccak256(\"d_orderCancel(uint256)\")),\n                address(this),\n                orderid_\n            )\n        );\n        _return(_result);\n    }\n\n    function d_orderCancel(uint256 order_) public onlyMarketOrder {\n        require(!STOP(), \"Contract stopped\");\n        Order.Info storage _order = _orders[order_];\n        require(\n            rep.MODETEST() || _order.account == _msgSender(),\n            \"Must be account==_msgSender or Mode Testing\"\n        );\n        _orderTerminate(_order, Order.State.Cancelled);\n        _orderDestroy(_order);\n    }\n}\n","sourcePath":"contracts/Market/Order/Order.sol","deployment":{"address":"0x3A1e5b6F66b925c75ae8eE77239d77A1c21Dc3B1","chainid":"9997","blockHeight":25164}}