{"bytecode":"610b4661003a600b82828239805160001a60731461002d57634e487b7160e01b600052600060045260246000fd5b30600052607381538281f3fe73000000000000000000000000000000000000000030146080604052600436106100875760003560e01c8063bb7d88a911610065578063bb7d88a914610109578063cf131f3f1461011c578063f53612191461012f578063f5dab7111461015657600080fd5b80633646b5481461008c578063543af627146100b25780639ba23e1e146100f6575b600080fd5b61009f61009a366004610835565b610169565b6040519081526020015b60405180910390f35b6100c56100c036600461086d565b6101a8565b60408051825160000b81526020808401511515908201529181015167ffffffffffffffff16908201526060016100a9565b6100c56101043660046108bd565b6106bf565b6100c56101173660046108fd565b610710565b6100c561012a366004610927565b610739565b61009f7fad3228b676f7d3cd4284a5443f17f1962b36e491b30a40b2405849e597ba5fb581565b6100c561016436600461095e565b610762565b6000816040015167ffffffffffffffff166000141561018a57506000919050565b815161019790601261098f565b6101a290600a610ab6565b92915050565b6040805160608101825260008082526020820181905291810191909152836106b45760111981526001600160a01b0385166101e957600160408201526106b7565b6040516301ffc9a760e01b8082526001600160a01b038716916301ffc9a79161021491600401610ac5565b602060405180830381865afa92505050801561024d575060408051601f3d908101601f1916820190925261024a91810190610ada565b60015b6102565761026e565b506040810180516102001767ffffffffffffffff1690525b604081015161020016156105da576040516301ffc9a760e01b81526001600160a01b038616906301ffc9a7906102af906336372b0760e01b90600401610ac5565b602060405180830381865afa1580156102cc573d6000803e3d6000fd5b505050506040513d601f19601f820116820180604052508101906102f09190610ada565b1561030b5760408101805160021767ffffffffffffffff1690525b6040516301ffc9a760e01b81526001600160a01b038616906301ffc9a79061033e90637d0d601b60e11b90600401610ac5565b602060405180830381865afa15801561035b573d6000803e3d6000fd5b505050506040513d601f19601f8201168201806040525081019061037f9190610ada565b1561039b576040810180516108001767ffffffffffffffff1690525b6040516301ffc9a760e01b81526001600160a01b038616906301ffc9a7906103ce906336c5b61360e01b90600401610ac5565b602060405180830381865afa1580156103eb573d6000803e3d6000fd5b505050506040513d601f19601f8201168201806040525081019061040f9190610ada565b1561042b576040810180516110001767ffffffffffffffff1690525b6040516301ffc9a760e01b81526001600160a01b038616906301ffc9a79061045e906315a78eb160e31b90600401610ac5565b602060405180830381865afa15801561047b573d6000803e3d6000fd5b505050506040513d601f19601f8201168201806040525081019061049f9190610ada565b156104bb576040810180516120001767ffffffffffffffff1690525b6040516301ffc9a760e01b81526001600160a01b038616906301ffc9a7906104ee9063eeb0050b60e01b90600401610ac5565b602060405180830381865afa15801561050b573d6000803e3d6000fd5b505050506040513d601f19601f8201168201806040525081019061052f9190610ada565b1561054b576040810180516140001767ffffffffffffffff1690525b6040516301ffc9a760e01b81526001600160a01b038616906301ffc9a79061057890600090600401610ac5565b602060405180830381865afa158015610595573d6000803e3d6000fd5b505050506040513d601f19601f820116820180604052508101906105b99190610ada565b156105d5576040810180516181001767ffffffffffffffff1690525b610654565b846001600160a01b03166318160ddd6040518163ffffffff1660e01b8152600401602060405180830381865afa925050508015610634575060408051601f3d908101601f1916820190925261063191810190610af7565b60015b61063d57610654565b5060408101805160021767ffffffffffffffff1690525b604081015160ff161580156106665750815b156106af5760405162461bcd60e51b8152602060048201526015602482015274556e7265736f6c76656420746f6b656e207479706560581b604482015260640160405180910390fd5b6106b7565b50815b949350505050565b60408051606081018252600080825260208201819052918101919091526106e984600083856101a8565b6040810151909150610100161561070957610706848483856101a8565b90505b9392505050565b6040805160608101825260008082526020820181905291810191909152610709838360006106bf565b6040805160608101825260008082526020820181905291810191909152610709836000846106bf565b60408051606081018252600080825260208201819052918101919091526101a2826000806106bf565b801515811461079957600080fd5b50565b6000606082840312156107ae57600080fd5b6040516060810167ffffffffffffffff82821081831117156107e057634e487b7160e01b600052604160045260246000fd5b81604052829350843591508160000b82146107fa57600080fd5b90825260208401359061080c8261078b565b81602084015260408501359150808216821461082757600080fd5b506040919091015292915050565b60006060828403121561084757600080fd5b610709838361079c565b80356001600160a01b038116811461086857600080fd5b919050565b60008060008060c0858703121561088357600080fd5b61088c85610851565b9350602085013592506108a2866040870161079c565b915060a08501356108b28161078b565b939692955090935050565b6000806000606084860312156108d257600080fd5b6108db84610851565b92506020840135915060408401356108f28161078b565b809150509250925092565b6000806040838503121561091057600080fd5b61091983610851565b946020939093013593505050565b6000806040838503121561093a57600080fd5b61094383610851565b915060208301356109538161078b565b809150509250929050565b60006020828403121561097057600080fd5b61070982610851565b634e487b7160e01b600052601160045260246000fd5b60008160000b8360000b6000821282607f038213811516156109b3576109b3610979565b82607f190382128116156109c9576109c9610979565b50019392505050565b600181815b80851115610a0d5781600019048211156109f3576109f3610979565b80851615610a0057918102915b93841c93908002906109d7565b509250929050565b600082610a24575060016101a2565b81610a31575060006101a2565b8160018114610a475760028114610a5157610a6d565b60019150506101a2565b60ff841115610a6257610a62610979565b50506001821b6101a2565b5060208310610133831016604e8410600b8410161715610a90575081810a6101a2565b610a9a83836109d2565b8060001904821115610aae57610aae610979565b029392505050565b600061070960ff841683610a15565b6001600160e01b031991909116815260200190565b600060208284031215610aec57600080fd5b81516107098161078b565b600060208284031215610b0957600080fd5b505191905056fea26469706673582212209177e14e836470d4152f5b97920281c45529e3d382d327a3f0c5df97162caa0064736f6c634300080b0033","bytecodeSha1":"2a9f7c66662ff18e972965eb546123828334412a","type":"library","abi":[{"inputs":[],"name":"CURRENCY","outputs":[{"internalType":"bytes32","name":"","type":"bytes32"}],"stateMutability":"view","type":"function"},{"inputs":[{"components":[{"internalType":"int8","name":"granularity","type":"int8"},{"internalType":"bool","name":"nft","type":"bool"},{"internalType":"uint64","name":"features","type":"uint64"}],"internalType":"struct Token.Info","name":"info_","type":"tuple"}],"name":"granularity","outputs":[{"internalType":"uint256","name":"","type":"uint256"}],"stateMutability":"pure","type":"function"},{"inputs":[{"internalType":"address","name":"tokenaddress_","type":"address"},{"internalType":"uint256","name":"tokenid_","type":"uint256"},{"internalType":"bool","name":"canfail_","type":"bool"}],"name":"tokenInfo","outputs":[{"components":[{"internalType":"int8","name":"granularity","type":"int8"},{"internalType":"bool","name":"nft","type":"bool"},{"internalType":"uint64","name":"features","type":"uint64"}],"internalType":"struct Token.Info","name":"info_","type":"tuple"}],"stateMutability":"view","type":"function"},{"inputs":[{"internalType":"address","name":"tokenaddress_","type":"address"},{"internalType":"uint256","name":"tokenid_","type":"uint256"}],"name":"tokenInfo","outputs":[{"components":[{"internalType":"int8","name":"granularity","type":"int8"},{"internalType":"bool","name":"nft","type":"bool"},{"internalType":"uint64","name":"features","type":"uint64"}],"internalType":"struct Token.Info","name":"info_","type":"tuple"}],"stateMutability":"view","type":"function"},{"inputs":[{"internalType":"address","name":"tokenaddress_","type":"address"},{"internalType":"bool","name":"canfail_","type":"bool"}],"name":"tokenInfo","outputs":[{"components":[{"internalType":"int8","name":"granularity","type":"int8"},{"internalType":"bool","name":"nft","type":"bool"},{"internalType":"uint64","name":"features","type":"uint64"}],"internalType":"struct Token.Info","name":"info_","type":"tuple"}],"stateMutability":"view","type":"function"},{"inputs":[{"internalType":"address","name":"tokenaddress_","type":"address"}],"name":"tokenInfo","outputs":[{"components":[{"internalType":"int8","name":"granularity","type":"int8"},{"internalType":"bool","name":"nft","type":"bool"},{"internalType":"uint64","name":"features","type":"uint64"}],"internalType":"struct Token.Info","name":"info_","type":"tuple"}],"stateMutability":"view","type":"function"},{"inputs":[{"internalType":"address","name":"tokenaddress_","type":"address"},{"internalType":"uint256","name":"tokenid_","type":"uint256"},{"components":[{"internalType":"int8","name":"granularity","type":"int8"},{"internalType":"bool","name":"nft","type":"bool"},{"internalType":"uint64","name":"features","type":"uint64"}],"internalType":"struct Token.Info","name":"infoin_","type":"tuple"},{"internalType":"bool","name":"canfail_","type":"bool"}],"name":"tokenInfoEx","outputs":[{"components":[{"internalType":"int8","name":"granularity","type":"int8"},{"internalType":"bool","name":"nft","type":"bool"},{"internalType":"uint64","name":"features","type":"uint64"}],"internalType":"struct Token.Info","name":"info_","type":"tuple"}],"stateMutability":"view","type":"function"}],"compiler":{"version":"0.8.11+commit.d7f03943","evm_version":"istanbul","optimizer":{"enabled":true,"runs":200}},"contractName":"Token","language":"Solidity","natspec":{"methods":{},"kind":"dev","version":1},"opcodes":"PUSH20 0x0 ADDRESS EQ PUSH1 0x80 PUSH1 0x40 MSTORE PUSH1 0x4 CALLDATASIZE LT PUSH2 0x87 JUMPI PUSH1 0x0 CALLDATALOAD PUSH1 0xE0 SHR DUP1 PUSH4 0xBB7D88A9 GT PUSH2 0x65 JUMPI DUP1 PUSH4 0xBB7D88A9 EQ PUSH2 0x109 JUMPI DUP1 PUSH4 0xCF131F3F EQ PUSH2 0x11C JUMPI DUP1 PUSH4 0xF5361219 EQ PUSH2 0x12F JUMPI DUP1 PUSH4 0xF5DAB711 EQ PUSH2 0x156 JUMPI PUSH1 0x0 DUP1 REVERT JUMPDEST DUP1 PUSH4 0x3646B548 EQ PUSH2 0x8C JUMPI DUP1 PUSH4 0x543AF627 EQ PUSH2 0xB2 JUMPI DUP1 PUSH4 0x9BA23E1E EQ PUSH2 0xF6 JUMPI JUMPDEST PUSH1 0x0 DUP1 REVERT JUMPDEST PUSH2 0x9F PUSH2 0x9A CALLDATASIZE PUSH1 0x4 PUSH2 0x835 JUMP JUMPDEST PUSH2 0x169 JUMP JUMPDEST PUSH1 0x40 MLOAD SWAP1 DUP2 MSTORE PUSH1 0x20 ADD JUMPDEST PUSH1 0x40 MLOAD DUP1 SWAP2 SUB SWAP1 RETURN JUMPDEST PUSH2 0xC5 PUSH2 0xC0 CALLDATASIZE PUSH1 0x4 PUSH2 0x86D JUMP JUMPDEST PUSH2 0x1A8 JUMP JUMPDEST PUSH1 0x40 DUP1 MLOAD DUP3 MLOAD PUSH1 0x0 SIGNEXTEND DUP2 MSTORE PUSH1 0x20 DUP1 DUP5 ADD MLOAD ISZERO ISZERO SWAP1 DUP3 ADD MSTORE SWAP2 DUP2 ADD MLOAD PUSH8 0xFFFFFFFFFFFFFFFF AND SWAP1 DUP3 ADD MSTORE PUSH1 0x60 ADD PUSH2 0xA9 JUMP JUMPDEST PUSH2 0xC5 PUSH2 0x104 CALLDATASIZE PUSH1 0x4 PUSH2 0x8BD JUMP JUMPDEST PUSH2 0x6BF JUMP JUMPDEST PUSH2 0xC5 PUSH2 0x117 CALLDATASIZE PUSH1 0x4 PUSH2 0x8FD JUMP JUMPDEST PUSH2 0x710 JUMP JUMPDEST PUSH2 0xC5 PUSH2 0x12A CALLDATASIZE PUSH1 0x4 PUSH2 0x927 JUMP JUMPDEST PUSH2 0x739 JUMP JUMPDEST PUSH2 0x9F PUSH32 0xAD3228B676F7D3CD4284A5443F17F1962B36E491B30A40B2405849E597BA5FB5 DUP2 JUMP JUMPDEST PUSH2 0xC5 PUSH2 0x164 CALLDATASIZE PUSH1 0x4 PUSH2 0x95E JUMP JUMPDEST PUSH2 0x762 JUMP JUMPDEST PUSH1 0x0 DUP2 PUSH1 0x40 ADD MLOAD PUSH8 0xFFFFFFFFFFFFFFFF AND PUSH1 0x0 EQ ISZERO PUSH2 0x18A JUMPI POP PUSH1 0x0 SWAP2 SWAP1 POP JUMP JUMPDEST DUP2 MLOAD PUSH2 0x197 SWAP1 PUSH1 0x12 PUSH2 0x98F JUMP JUMPDEST PUSH2 0x1A2 SWAP1 PUSH1 0xA PUSH2 0xAB6 JUMP JUMPDEST SWAP3 SWAP2 POP POP JUMP JUMPDEST PUSH1 0x40 DUP1 MLOAD PUSH1 0x60 DUP2 ADD DUP3 MSTORE PUSH1 0x0 DUP1 DUP3 MSTORE PUSH1 0x20 DUP3 ADD DUP2 SWAP1 MSTORE SWAP2 DUP2 ADD SWAP2 SWAP1 SWAP2 MSTORE DUP4 PUSH2 0x6B4 JUMPI PUSH1 0x11 NOT DUP2 MSTORE PUSH1 0x1 PUSH1 0x1 PUSH1 0xA0 SHL SUB DUP6 AND PUSH2 0x1E9 JUMPI PUSH1 0x1 PUSH1 0x40 DUP3 ADD MSTORE PUSH2 0x6B7 JUMP JUMPDEST PUSH1 0x40 MLOAD PUSH4 0x1FFC9A7 PUSH1 0xE0 SHL DUP1 DUP3 MSTORE PUSH1 0x1 PUSH1 0x1 PUSH1 0xA0 SHL SUB DUP8 AND SWAP2 PUSH4 0x1FFC9A7 SWAP2 PUSH2 0x214 SWAP2 PUSH1 0x4 ADD PUSH2 0xAC5 JUMP JUMPDEST PUSH1 0x20 PUSH1 0x40 MLOAD DUP1 DUP4 SUB DUP2 DUP7 GAS STATICCALL SWAP3 POP POP POP DUP1 ISZERO PUSH2 0x24D JUMPI POP PUSH1 0x40 DUP1 MLOAD PUSH1 0x1F RETURNDATASIZE SWAP1 DUP2 ADD PUSH1 0x1F NOT AND DUP3 ADD SWAP1 SWAP3 MSTORE PUSH2 0x24A SWAP2 DUP2 ADD SWAP1 PUSH2 0xADA JUMP JUMPDEST PUSH1 0x1 JUMPDEST PUSH2 0x256 JUMPI PUSH2 0x26E JUMP JUMPDEST POP PUSH1 0x40 DUP2 ADD DUP1 MLOAD PUSH2 0x200 OR PUSH8 0xFFFFFFFFFFFFFFFF AND SWAP1 MSTORE JUMPDEST PUSH1 0x40 DUP2 ADD MLOAD PUSH2 0x200 AND ISZERO PUSH2 0x5DA JUMPI PUSH1 0x40 MLOAD PUSH4 0x1FFC9A7 PUSH1 0xE0 SHL DUP2 MSTORE PUSH1 0x1 PUSH1 0x1 PUSH1 0xA0 SHL SUB DUP7 AND SWAP1 PUSH4 0x1FFC9A7 SWAP1 PUSH2 0x2AF SWAP1 PUSH4 0x36372B07 PUSH1 0xE0 SHL SWAP1 PUSH1 0x4 ADD PUSH2 0xAC5 JUMP JUMPDEST PUSH1 0x20 PUSH1 0x40 MLOAD DUP1 DUP4 SUB DUP2 DUP7 GAS STATICCALL ISZERO DUP1 ISZERO PUSH2 0x2CC JUMPI RETURNDATASIZE PUSH1 0x0 DUP1 RETURNDATACOPY RETURNDATASIZE PUSH1 0x0 REVERT JUMPDEST POP POP POP POP PUSH1 0x40 MLOAD RETURNDATASIZE PUSH1 0x1F NOT PUSH1 0x1F DUP3 ADD AND DUP3 ADD DUP1 PUSH1 0x40 MSTORE POP DUP2 ADD SWAP1 PUSH2 0x2F0 SWAP2 SWAP1 PUSH2 0xADA JUMP JUMPDEST ISZERO PUSH2 0x30B JUMPI PUSH1 0x40 DUP2 ADD DUP1 MLOAD PUSH1 0x2 OR PUSH8 0xFFFFFFFFFFFFFFFF AND SWAP1 MSTORE JUMPDEST PUSH1 0x40 MLOAD PUSH4 0x1FFC9A7 PUSH1 0xE0 SHL DUP2 MSTORE PUSH1 0x1 PUSH1 0x1 PUSH1 0xA0 SHL SUB DUP7 AND SWAP1 PUSH4 0x1FFC9A7 SWAP1 PUSH2 0x33E SWAP1 PUSH4 0x7D0D601B PUSH1 0xE1 SHL SWAP1 PUSH1 0x4 ADD PUSH2 0xAC5 JUMP JUMPDEST PUSH1 0x20 PUSH1 0x40 MLOAD DUP1 DUP4 SUB DUP2 DUP7 GAS STATICCALL ISZERO DUP1 ISZERO PUSH2 0x35B JUMPI RETURNDATASIZE PUSH1 0x0 DUP1 RETURNDATACOPY RETURNDATASIZE PUSH1 0x0 REVERT JUMPDEST POP POP POP POP PUSH1 0x40 MLOAD RETURNDATASIZE PUSH1 0x1F NOT PUSH1 0x1F DUP3 ADD AND DUP3 ADD DUP1 PUSH1 0x40 MSTORE POP DUP2 ADD SWAP1 PUSH2 0x37F SWAP2 SWAP1 PUSH2 0xADA JUMP JUMPDEST ISZERO PUSH2 0x39B JUMPI PUSH1 0x40 DUP2 ADD DUP1 MLOAD PUSH2 0x800 OR PUSH8 0xFFFFFFFFFFFFFFFF AND SWAP1 MSTORE JUMPDEST PUSH1 0x40 MLOAD PUSH4 0x1FFC9A7 PUSH1 0xE0 SHL DUP2 MSTORE PUSH1 0x1 PUSH1 0x1 PUSH1 0xA0 SHL SUB DUP7 AND SWAP1 PUSH4 0x1FFC9A7 SWAP1 PUSH2 0x3CE SWAP1 PUSH4 0x36C5B613 PUSH1 0xE0 SHL SWAP1 PUSH1 0x4 ADD PUSH2 0xAC5 JUMP JUMPDEST PUSH1 0x20 PUSH1 0x40 MLOAD DUP1 DUP4 SUB DUP2 DUP7 GAS STATICCALL ISZERO DUP1 ISZERO PUSH2 0x3EB JUMPI RETURNDATASIZE PUSH1 0x0 DUP1 RETURNDATACOPY RETURNDATASIZE PUSH1 0x0 REVERT JUMPDEST POP POP POP POP PUSH1 0x40 MLOAD RETURNDATASIZE PUSH1 0x1F NOT PUSH1 0x1F DUP3 ADD AND DUP3 ADD DUP1 PUSH1 0x40 MSTORE POP DUP2 ADD SWAP1 PUSH2 0x40F SWAP2 SWAP1 PUSH2 0xADA JUMP JUMPDEST ISZERO PUSH2 0x42B JUMPI PUSH1 0x40 DUP2 ADD DUP1 MLOAD PUSH2 0x1000 OR PUSH8 0xFFFFFFFFFFFFFFFF AND SWAP1 MSTORE JUMPDEST PUSH1 0x40 MLOAD PUSH4 0x1FFC9A7 PUSH1 0xE0 SHL DUP2 MSTORE PUSH1 0x1 PUSH1 0x1 PUSH1 0xA0 SHL SUB DUP7 AND SWAP1 PUSH4 0x1FFC9A7 SWAP1 PUSH2 0x45E SWAP1 PUSH4 0x15A78EB1 PUSH1 0xE3 SHL SWAP1 PUSH1 0x4 ADD PUSH2 0xAC5 JUMP JUMPDEST PUSH1 0x20 PUSH1 0x40 MLOAD DUP1 DUP4 SUB DUP2 DUP7 GAS STATICCALL ISZERO DUP1 ISZERO PUSH2 0x47B JUMPI RETURNDATASIZE PUSH1 0x0 DUP1 RETURNDATACOPY RETURNDATASIZE PUSH1 0x0 REVERT JUMPDEST POP POP POP POP PUSH1 0x40 MLOAD RETURNDATASIZE PUSH1 0x1F NOT PUSH1 0x1F DUP3 ADD AND DUP3 ADD DUP1 PUSH1 0x40 MSTORE POP DUP2 ADD SWAP1 PUSH2 0x49F SWAP2 SWAP1 PUSH2 0xADA JUMP JUMPDEST ISZERO PUSH2 0x4BB JUMPI PUSH1 0x40 DUP2 ADD DUP1 MLOAD PUSH2 0x2000 OR PUSH8 0xFFFFFFFFFFFFFFFF AND SWAP1 MSTORE JUMPDEST PUSH1 0x40 MLOAD PUSH4 0x1FFC9A7 PUSH1 0xE0 SHL DUP2 MSTORE PUSH1 0x1 PUSH1 0x1 PUSH1 0xA0 SHL SUB DUP7 AND SWAP1 PUSH4 0x1FFC9A7 SWAP1 PUSH2 0x4EE SWAP1 PUSH4 0xEEB0050B PUSH1 0xE0 SHL SWAP1 PUSH1 0x4 ADD PUSH2 0xAC5 JUMP JUMPDEST PUSH1 0x20 PUSH1 0x40 MLOAD DUP1 DUP4 SUB DUP2 DUP7 GAS STATICCALL ISZERO DUP1 ISZERO PUSH2 0x50B JUMPI RETURNDATASIZE PUSH1 0x0 DUP1 RETURNDATACOPY RETURNDATASIZE PUSH1 0x0 REVERT JUMPDEST POP POP POP POP PUSH1 0x40 MLOAD RETURNDATASIZE PUSH1 0x1F NOT PUSH1 0x1F DUP3 ADD AND DUP3 ADD DUP1 PUSH1 0x40 MSTORE POP DUP2 ADD SWAP1 PUSH2 0x52F SWAP2 SWAP1 PUSH2 0xADA JUMP JUMPDEST ISZERO PUSH2 0x54B JUMPI PUSH1 0x40 DUP2 ADD DUP1 MLOAD PUSH2 0x4000 OR PUSH8 0xFFFFFFFFFFFFFFFF AND SWAP1 MSTORE JUMPDEST PUSH1 0x40 MLOAD PUSH4 0x1FFC9A7 PUSH1 0xE0 SHL DUP2 MSTORE PUSH1 0x1 PUSH1 0x1 PUSH1 0xA0 SHL SUB DUP7 AND SWAP1 PUSH4 0x1FFC9A7 SWAP1 PUSH2 0x578 SWAP1 PUSH1 0x0 SWAP1 PUSH1 0x4 ADD PUSH2 0xAC5 JUMP JUMPDEST PUSH1 0x20 PUSH1 0x40 MLOAD DUP1 DUP4 SUB DUP2 DUP7 GAS STATICCALL ISZERO DUP1 ISZERO PUSH2 0x595 JUMPI RETURNDATASIZE PUSH1 0x0 DUP1 RETURNDATACOPY RETURNDATASIZE PUSH1 0x0 REVERT JUMPDEST POP POP POP POP PUSH1 0x40 MLOAD RETURNDATASIZE PUSH1 0x1F NOT PUSH1 0x1F DUP3 ADD AND DUP3 ADD DUP1 PUSH1 0x40 MSTORE POP DUP2 ADD SWAP1 PUSH2 0x5B9 SWAP2 SWAP1 PUSH2 0xADA JUMP JUMPDEST ISZERO PUSH2 0x5D5 JUMPI PUSH1 0x40 DUP2 ADD DUP1 MLOAD PUSH2 0x8100 OR PUSH8 0xFFFFFFFFFFFFFFFF AND SWAP1 MSTORE JUMPDEST PUSH2 0x654 JUMP JUMPDEST DUP5 PUSH1 0x1 PUSH1 0x1 PUSH1 0xA0 SHL SUB AND PUSH4 0x18160DDD PUSH1 0x40 MLOAD DUP2 PUSH4 0xFFFFFFFF AND PUSH1 0xE0 SHL DUP2 MSTORE PUSH1 0x4 ADD PUSH1 0x20 PUSH1 0x40 MLOAD DUP1 DUP4 SUB DUP2 DUP7 GAS STATICCALL SWAP3 POP POP POP DUP1 ISZERO PUSH2 0x634 JUMPI POP PUSH1 0x40 DUP1 MLOAD PUSH1 0x1F RETURNDATASIZE SWAP1 DUP2 ADD PUSH1 0x1F NOT AND DUP3 ADD SWAP1 SWAP3 MSTORE PUSH2 0x631 SWAP2 DUP2 ADD SWAP1 PUSH2 0xAF7 JUMP JUMPDEST PUSH1 0x1 JUMPDEST PUSH2 0x63D JUMPI PUSH2 0x654 JUMP JUMPDEST POP PUSH1 0x40 DUP2 ADD DUP1 MLOAD PUSH1 0x2 OR PUSH8 0xFFFFFFFFFFFFFFFF AND SWAP1 MSTORE JUMPDEST PUSH1 0x40 DUP2 ADD MLOAD PUSH1 0xFF AND ISZERO DUP1 ISZERO PUSH2 0x666 JUMPI POP DUP2 JUMPDEST ISZERO PUSH2 0x6AF JUMPI PUSH1 0x40 MLOAD PUSH3 0x461BCD PUSH1 0xE5 SHL DUP2 MSTORE PUSH1 0x20 PUSH1 0x4 DUP3 ADD MSTORE PUSH1 0x15 PUSH1 0x24 DUP3 ADD MSTORE PUSH21 0x556E7265736F6C76656420746F6B656E2074797065 PUSH1 0x58 SHL PUSH1 0x44 DUP3 ADD MSTORE PUSH1 0x64 ADD PUSH1 0x40 MLOAD DUP1 SWAP2 SUB SWAP1 REVERT JUMPDEST PUSH2 0x6B7 JUMP JUMPDEST POP DUP2 JUMPDEST SWAP5 SWAP4 POP POP POP POP JUMP JUMPDEST PUSH1 0x40 DUP1 MLOAD PUSH1 0x60 DUP2 ADD DUP3 MSTORE PUSH1 0x0 DUP1 DUP3 MSTORE PUSH1 0x20 DUP3 ADD DUP2 SWAP1 MSTORE SWAP2 DUP2 ADD SWAP2 SWAP1 SWAP2 MSTORE PUSH2 0x6E9 DUP5 PUSH1 0x0 DUP4 DUP6 PUSH2 0x1A8 JUMP JUMPDEST PUSH1 0x40 DUP2 ADD MLOAD SWAP1 SWAP2 POP PUSH2 0x100 AND ISZERO PUSH2 0x709 JUMPI PUSH2 0x706 DUP5 DUP5 DUP4 DUP6 PUSH2 0x1A8 JUMP JUMPDEST SWAP1 POP JUMPDEST SWAP4 SWAP3 POP POP POP JUMP JUMPDEST PUSH1 0x40 DUP1 MLOAD PUSH1 0x60 DUP2 ADD DUP3 MSTORE PUSH1 0x0 DUP1 DUP3 MSTORE PUSH1 0x20 DUP3 ADD DUP2 SWAP1 MSTORE SWAP2 DUP2 ADD SWAP2 SWAP1 SWAP2 MSTORE PUSH2 0x709 DUP4 DUP4 PUSH1 0x0 PUSH2 0x6BF JUMP JUMPDEST PUSH1 0x40 DUP1 MLOAD PUSH1 0x60 DUP2 ADD DUP3 MSTORE PUSH1 0x0 DUP1 DUP3 MSTORE PUSH1 0x20 DUP3 ADD DUP2 SWAP1 MSTORE SWAP2 DUP2 ADD SWAP2 SWAP1 SWAP2 MSTORE PUSH2 0x709 DUP4 PUSH1 0x0 DUP5 PUSH2 0x6BF JUMP JUMPDEST PUSH1 0x40 DUP1 MLOAD PUSH1 0x60 DUP2 ADD DUP3 MSTORE PUSH1 0x0 DUP1 DUP3 MSTORE PUSH1 0x20 DUP3 ADD DUP2 SWAP1 MSTORE SWAP2 DUP2 ADD SWAP2 SWAP1 SWAP2 MSTORE PUSH2 0x1A2 DUP3 PUSH1 0x0 DUP1 PUSH2 0x6BF JUMP JUMPDEST DUP1 ISZERO ISZERO DUP2 EQ PUSH2 0x799 JUMPI PUSH1 0x0 DUP1 REVERT JUMPDEST POP JUMP JUMPDEST PUSH1 0x0 PUSH1 0x60 DUP3 DUP5 SUB SLT ISZERO PUSH2 0x7AE JUMPI PUSH1 0x0 DUP1 REVERT JUMPDEST PUSH1 0x40 MLOAD PUSH1 0x60 DUP2 ADD PUSH8 0xFFFFFFFFFFFFFFFF DUP3 DUP3 LT DUP2 DUP4 GT OR ISZERO PUSH2 0x7E0 JUMPI PUSH4 0x4E487B71 PUSH1 0xE0 SHL PUSH1 0x0 MSTORE PUSH1 0x41 PUSH1 0x4 MSTORE PUSH1 0x24 PUSH1 0x0 REVERT JUMPDEST DUP2 PUSH1 0x40 MSTORE DUP3 SWAP4 POP DUP5 CALLDATALOAD SWAP2 POP DUP2 PUSH1 0x0 SIGNEXTEND DUP3 EQ PUSH2 0x7FA JUMPI PUSH1 0x0 DUP1 REVERT JUMPDEST SWAP1 DUP3 MSTORE PUSH1 0x20 DUP5 ADD CALLDATALOAD SWAP1 PUSH2 0x80C DUP3 PUSH2 0x78B JUMP JUMPDEST DUP2 PUSH1 0x20 DUP5 ADD MSTORE PUSH1 0x40 DUP6 ADD CALLDATALOAD SWAP2 POP DUP1 DUP3 AND DUP3 EQ PUSH2 0x827 JUMPI PUSH1 0x0 DUP1 REVERT JUMPDEST POP PUSH1 0x40 SWAP2 SWAP1 SWAP2 ADD MSTORE SWAP3 SWAP2 POP POP JUMP JUMPDEST PUSH1 0x0 PUSH1 0x60 DUP3 DUP5 SUB SLT ISZERO PUSH2 0x847 JUMPI PUSH1 0x0 DUP1 REVERT JUMPDEST PUSH2 0x709 DUP4 DUP4 PUSH2 0x79C JUMP JUMPDEST DUP1 CALLDATALOAD PUSH1 0x1 PUSH1 0x1 PUSH1 0xA0 SHL SUB DUP2 AND DUP2 EQ PUSH2 0x868 JUMPI PUSH1 0x0 DUP1 REVERT JUMPDEST SWAP2 SWAP1 POP JUMP JUMPDEST PUSH1 0x0 DUP1 PUSH1 0x0 DUP1 PUSH1 0xC0 DUP6 DUP8 SUB SLT ISZERO PUSH2 0x883 JUMPI PUSH1 0x0 DUP1 REVERT JUMPDEST PUSH2 0x88C DUP6 PUSH2 0x851 JUMP JUMPDEST SWAP4 POP PUSH1 0x20 DUP6 ADD CALLDATALOAD SWAP3 POP PUSH2 0x8A2 DUP7 PUSH1 0x40 DUP8 ADD PUSH2 0x79C JUMP JUMPDEST SWAP2 POP PUSH1 0xA0 DUP6 ADD CALLDATALOAD PUSH2 0x8B2 DUP2 PUSH2 0x78B JUMP JUMPDEST SWAP4 SWAP7 SWAP3 SWAP6 POP SWAP1 SWAP4 POP POP JUMP JUMPDEST PUSH1 0x0 DUP1 PUSH1 0x0 PUSH1 0x60 DUP5 DUP7 SUB SLT ISZERO PUSH2 0x8D2 JUMPI PUSH1 0x0 DUP1 REVERT JUMPDEST PUSH2 0x8DB DUP5 PUSH2 0x851 JUMP JUMPDEST SWAP3 POP PUSH1 0x20 DUP5 ADD CALLDATALOAD SWAP2 POP PUSH1 0x40 DUP5 ADD CALLDATALOAD PUSH2 0x8F2 DUP2 PUSH2 0x78B JUMP JUMPDEST DUP1 SWAP2 POP POP SWAP3 POP SWAP3 POP SWAP3 JUMP JUMPDEST PUSH1 0x0 DUP1 PUSH1 0x40 DUP4 DUP6 SUB SLT ISZERO PUSH2 0x910 JUMPI PUSH1 0x0 DUP1 REVERT JUMPDEST PUSH2 0x919 DUP4 PUSH2 0x851 JUMP JUMPDEST SWAP5 PUSH1 0x20 SWAP4 SWAP1 SWAP4 ADD CALLDATALOAD SWAP4 POP POP POP JUMP JUMPDEST PUSH1 0x0 DUP1 PUSH1 0x40 DUP4 DUP6 SUB SLT ISZERO PUSH2 0x93A JUMPI PUSH1 0x0 DUP1 REVERT JUMPDEST PUSH2 0x943 DUP4 PUSH2 0x851 JUMP JUMPDEST SWAP2 POP PUSH1 0x20 DUP4 ADD CALLDATALOAD PUSH2 0x953 DUP2 PUSH2 0x78B JUMP JUMPDEST DUP1 SWAP2 POP POP SWAP3 POP SWAP3 SWAP1 POP JUMP JUMPDEST PUSH1 0x0 PUSH1 0x20 DUP3 DUP5 SUB SLT ISZERO PUSH2 0x970 JUMPI PUSH1 0x0 DUP1 REVERT JUMPDEST PUSH2 0x709 DUP3 PUSH2 0x851 JUMP JUMPDEST PUSH4 0x4E487B71 PUSH1 0xE0 SHL PUSH1 0x0 MSTORE PUSH1 0x11 PUSH1 0x4 MSTORE PUSH1 0x24 PUSH1 0x0 REVERT JUMPDEST PUSH1 0x0 DUP2 PUSH1 0x0 SIGNEXTEND DUP4 PUSH1 0x0 SIGNEXTEND PUSH1 0x0 DUP3 SLT DUP3 PUSH1 0x7F SUB DUP3 SGT DUP2 ISZERO AND ISZERO PUSH2 0x9B3 JUMPI PUSH2 0x9B3 PUSH2 0x979 JUMP JUMPDEST DUP3 PUSH1 0x7F NOT SUB DUP3 SLT DUP2 AND ISZERO PUSH2 0x9C9 JUMPI PUSH2 0x9C9 PUSH2 0x979 JUMP JUMPDEST POP ADD SWAP4 SWAP3 POP POP POP JUMP JUMPDEST PUSH1 0x1 DUP2 DUP2 JUMPDEST DUP1 DUP6 GT ISZERO PUSH2 0xA0D JUMPI DUP2 PUSH1 0x0 NOT DIV DUP3 GT ISZERO PUSH2 0x9F3 JUMPI PUSH2 0x9F3 PUSH2 0x979 JUMP JUMPDEST DUP1 DUP6 AND ISZERO PUSH2 0xA00 JUMPI SWAP2 DUP2 MUL SWAP2 JUMPDEST SWAP4 DUP5 SHR SWAP4 SWAP1 DUP1 MUL SWAP1 PUSH2 0x9D7 JUMP JUMPDEST POP SWAP3 POP SWAP3 SWAP1 POP JUMP JUMPDEST PUSH1 0x0 DUP3 PUSH2 0xA24 JUMPI POP PUSH1 0x1 PUSH2 0x1A2 JUMP JUMPDEST DUP2 PUSH2 0xA31 JUMPI POP PUSH1 0x0 PUSH2 0x1A2 JUMP JUMPDEST DUP2 PUSH1 0x1 DUP2 EQ PUSH2 0xA47 JUMPI PUSH1 0x2 DUP2 EQ PUSH2 0xA51 JUMPI PUSH2 0xA6D JUMP JUMPDEST PUSH1 0x1 SWAP2 POP POP PUSH2 0x1A2 JUMP JUMPDEST PUSH1 0xFF DUP5 GT ISZERO PUSH2 0xA62 JUMPI PUSH2 0xA62 PUSH2 0x979 JUMP JUMPDEST POP POP PUSH1 0x1 DUP3 SHL PUSH2 0x1A2 JUMP JUMPDEST POP PUSH1 0x20 DUP4 LT PUSH2 0x133 DUP4 LT AND PUSH1 0x4E DUP5 LT PUSH1 0xB DUP5 LT AND OR ISZERO PUSH2 0xA90 JUMPI POP DUP2 DUP2 EXP PUSH2 0x1A2 JUMP JUMPDEST PUSH2 0xA9A DUP4 DUP4 PUSH2 0x9D2 JUMP JUMPDEST DUP1 PUSH1 0x0 NOT DIV DUP3 GT ISZERO PUSH2 0xAAE JUMPI PUSH2 0xAAE PUSH2 0x979 JUMP JUMPDEST MUL SWAP4 SWAP3 POP POP POP JUMP JUMPDEST PUSH1 0x0 PUSH2 0x709 PUSH1 0xFF DUP5 AND DUP4 PUSH2 0xA15 JUMP JUMPDEST PUSH1 0x1 PUSH1 0x1 PUSH1 0xE0 SHL SUB NOT SWAP2 SWAP1 SWAP2 AND DUP2 MSTORE PUSH1 0x20 ADD SWAP1 JUMP JUMPDEST PUSH1 0x0 PUSH1 0x20 DUP3 DUP5 SUB SLT ISZERO PUSH2 0xAEC JUMPI PUSH1 0x0 DUP1 REVERT JUMPDEST DUP2 MLOAD PUSH2 0x709 DUP2 PUSH2 0x78B JUMP JUMPDEST PUSH1 0x0 PUSH1 0x20 DUP3 DUP5 SUB SLT ISZERO PUSH2 0xB09 JUMPI PUSH1 0x0 DUP1 REVERT JUMPDEST POP MLOAD SWAP2 SWAP1 POP JUMP INVALID LOG2 PUSH5 0x6970667358 0x22 SLT KECCAK256 SWAP2 PUSH24 0xE14E836470D4152F5B97920281C45529E3D382D327A3F0C5 0xDF SWAP8 AND 0x2C 0xAA STOP PUSH5 0x736F6C6343 STOP ADDMOD SIGNEXTEND STOP CALLER ","sha1":"fffa20bce2f0846400cf5a041e2c2cabfcdbf55b","source":"// SPDX-License-Identifier: MIT\n// Beef Contracts v0.0.0 hello@mcdu.com\n\npragma solidity ^0.8.0;\n\nimport \"@openzeppelin/contracts/utils/introspection/IERC165.sol\";\nimport \"@openzeppelin/contracts/token/ERC20/IERC20.sol\";\nimport \"./TradeableAndBankable.sol\";\nimport \"../../../interfaces/ITokenCertified.sol\";\nimport \"../../../interfaces/ITokenEquivalent.sol\";\nimport \"../../../interfaces/IPackedToken.sol\";\nimport \"../../../interfaces/ITokenWithId.sol\";\n\nlibrary Token {\n    /*enum Type {\n        Unknown,\n        Cur,\n        Erc20,\n        Max\n    }*/\n    bytes32 constant public CURRENCY = 0xad3228b676f7d3cd4284a5443f17f1962b36e491b30a40b2405849e597ba5fb5;\n\n    uint64 constant TypeMask =                  0xff;    // is TypeCurrency\n    uint64 constant TypeCurrency =              0x1;    // is TypeCurrency\n    uint64 constant TypeERC20 =                 0x2;    // is Test\n\n    uint64 constant isTokenWithId =          0x100;    // Contract needs tokenId\n    uint64 constant SupportERC165 =          0x200;    // Supports IERC265\n    //uint64 constant SupportERC20 =           0x400;    // Supports IERC20\n    uint64 constant SupportTradeable =       0x800;    // Supports ITradeable\n\n    uint64 constant SupportTokenCertified =  0x1000;    // Supports ITokenEquivalent\n    uint64 constant SupportTokenEquivalent = 0x2000;   // Supports ITokenEquivalent\n    uint64 constant SupportPackedToken =     0x4000;   // Supports IPackedToken\n    uint64 constant SupportTokenWithId =     0x8000;   // Supports ITokenWithId\n\n    struct Info {\n        //Type tokentype;\n        int8 granularity;\n        bool nft;\n        uint64 features;\n    }\n\n    function granularity(Info memory info_) public pure returns (uint256) {\n        if (info_.features==0)\n            return 0;\n        return 10**(uint8(18 + info_.granularity));\n    }\n    function tokenInfo(address tokenaddress_)\n        public\n        view\n        returns (Info memory info_)\n    {\n        return tokenInfo(tokenaddress_,0,false);\n    }\n    function tokenInfo(address tokenaddress_, bool canfail_)\n        public\n        view\n        returns (Info memory info_)\n    {\n        return tokenInfo(tokenaddress_,0,canfail_);\n    }\n    function tokenInfo(address tokenaddress_,uint256 tokenid_)\n        public\n        view\n        returns (Info memory info_)\n    {\n        return tokenInfo(tokenaddress_,tokenid_,false);\n    }\n    function tokenInfo(address tokenaddress_,uint256 tokenid_, bool canfail_)\n        public\n        view\n        returns (Info memory info_)\n    {\n        info_=tokenInfoEx(tokenaddress_,0,info_,canfail_);\n        if (info_.features & isTokenWithId != 0)\n            info_=tokenInfoEx(tokenaddress_,tokenid_,info_,canfail_);\n\n    }\n    function tokenInfoEx(address tokenaddress_,uint256 tokenid_, Info memory infoin_, bool canfail_)\n        public\n        view\n        returns (Info memory info_)\n    {\n        if (tokenid_==0)\n        while (true) {\n            info_.granularity = -18;\n            if (tokenaddress_ == address(0)) {\n                info_.features = TypeCurrency;\n                break;\n            }\n            try IERC165(tokenaddress_).supportsInterface(type(IERC165).interfaceId) {\n                info_.features |= SupportERC165;\n            } catch {}\n            if (info_.features & SupportERC165 != 0) {\n                if (IERC165(tokenaddress_).supportsInterface(type(IERC20).interfaceId))\n                    info_.features |= TypeERC20;\n                if (\n                    IERC165(tokenaddress_).supportsInterface(\n                        type(ITradeable).interfaceId\n                    )\n                ) info_.features |= SupportTradeable;\n                if (\n                    IERC165(tokenaddress_).supportsInterface(\n                        type(ITokenCertified).interfaceId\n                    )\n                ) info_.features |= SupportTokenCertified;\n                if (\n                    IERC165(tokenaddress_).supportsInterface(\n                        type(ITokenEquivalent).interfaceId\n                    )\n                ) info_.features |= SupportTokenEquivalent;\n                if (\n                    IERC165(tokenaddress_).supportsInterface(\n                        type(IPackedToken).interfaceId\n                    )\n                ) info_.features |= SupportPackedToken;\n                if (\n                    IERC165(tokenaddress_).supportsInterface(\n                        type(ITokenWithId).interfaceId\n                    )\n                ) info_.features |= SupportTokenWithId|isTokenWithId;\n            } else {\n                try IERC20(tokenaddress_).totalSupply() {\n                    info_.features |= TypeERC20;\n                } catch {}\n            }\n            if (info_.features&TypeMask==0&&canfail_) \n                require(false, \"Unresolved token type\");\n            break;\n        }\n        else\n        {\n            info_ = infoin_;\n        }\n    }\n}\n","sourcePath":"contracts/agnostic/Token/TokenLib.sol","deployment":{"address":"0x429Ec8d5E9C08A42BCDC4021C90604534D37b991","chainid":"9997","blockHeight":10380}}