{"bytecode":"608060405234801561001057600080fd5b50610ea0806100206000396000f3fe608060405234801561001057600080fd5b50600436106100cf5760003560e01c8063589e6a981161008c578063a86eeb9111610066578063a86eeb91146101c2578063af915585146101d5578063b305438314610205578063e50d1b3e1461021857600080fd5b8063589e6a981461017457806361e99ffb14610187578063657c7e091461019a57600080fd5b806312cae67b146100d457806324ace672146100fd57806327ee9dc21461011e57806338a699a41461013e5780634329598c146100d45780635768bbb514610161575b600080fd5b6100e76100e2366004610970565b61024a565b6040516100f491906109e5565b60405180910390f35b61011061010b366004610aa5565b6102ec565b6040519081526020016100f4565b61013161012c366004610970565b610450565b6040516100f49190610af6565b61015161014c366004610970565b6104dc565b60405190151581526020016100f4565b61011061016f366004610b52565b6104fe565b610110610182366004610aa5565b610594565b610110610195366004610b82565b61059f565b6101ad6101a8366004610970565b6105e5565b604080519283526020830191909152016100f4565b6101106101d0366004610ba4565b610670565b6101e86101e3366004610970565b6106be565b604080519283526001600160a01b039091166020830152016100f4565b610110610213366004610bf4565b610740565b61022b610226366004610970565b6107c3565b604080516001600160a01b0390931683526020830191909152016100f4565b600081815260208190526040902080546060919061026790610c85565b80601f016020809104026020016040519081016040528092919081815260200182805461029390610c85565b80156102e05780601f106102b5576101008083540402835291602001916102e0565b820191906000526020600020905b8154815290600101906020018083116102c357829003601f168201915b50505050509050919050565b80516020808301919091206000818152918290526040909120805461031090610c85565b905060000361033c576000818152602081815260409091208351610336928501906108d7565b50919050565b600081815260208190526040902080546103de919061035a90610c85565b80601f016020809104026020016040519081016040528092919081815260200182805461038690610c85565b80156103d35780601f106103a8576101008083540402835291602001916103d3565b820191906000526020600020905b8154815290600101906020018083116103b657829003601f168201915b505050505083610845565b61044b5760405162461bcd60e51b815260206004820152603460248201527f4b656363616b496e766572746572204279746573206b656363616b2069736e7460448201527320756e697175652021212121212121212121212160601b606482015260840160405180910390fd5b919050565b606061045b8261024a565b6040516355b04b0d60e11b815273__BytesAndKeccakLib_____________________9163ab60961a9161049191906004016109e5565b600060405180830381865af41580156104ae573d6000803e3d6000fd5b505050506040513d6000823e601f3d908101601f191682016040526104d69190810190610cb9565b92915050565b600081815260208190526040812080546104f590610c85565b15159392505050565b6040516318f7a7c360e21b8152600481018390526001600160a01b038216602482015260009061058d9073__BytesAndKeccakLib_____________________906363de9f0c906044015b600060405180830381865af4158015610565573d6000803e3d6000fd5b505050506040513d6000823e601f3d908101601f191682016040526102139190810190610cb9565b9392505050565b60006104d6826102ec565b604051632291b3f160e21b8152600481018390526024810182905260009061058d9073__BytesAndKeccakLib_____________________90638a46cfc490604401610548565b6000806105f183610450565b60405163029695c360e21b815273__BytesAndKeccakLib_____________________91630a5a570c916106279190600401610af6565b6040805180830381865af4158015610643573d6000803e3d6000fd5b505050506040513d601f19601f820116820180604052508101906106679190610d3f565b91509150915091565b604051630de874ed60e01b81526001600160a01b03831660048201526024810182905260009061058d9073__BytesAndKeccakLib_____________________90630de874ed90604401610548565b6000806106ca83610450565b604051639ac1b34560e01b815273__BytesAndKeccakLib_____________________91639ac1b345916107009190600401610af6565b6040805180830381865af415801561071c573d6000803e3d6000fd5b505050506040513d601f19601f820116820180604052508101906106679190610d63565b604051632431a7cf60e01b81526000906104d69073__BytesAndKeccakLib_____________________90632431a7cf9061077e908690600401610af6565b600060405180830381865af415801561079b573d6000803e3d6000fd5b505050506040513d6000823e601f3d908101601f1916820160405261010b9190810190610d88565b6000806107cf83610450565b6040516314130a7960e31b815273__BytesAndKeccakLib_____________________9163a09853c8916108059190600401610af6565b6040805180830381865af4158015610821573d6000803e3d6000fd5b505050506040513d601f19601f820116820180604052508101906106679190610dff565b60008151835114610858575060006104d6565b60005b83518110156108cd5782818151811061087657610876610e2d565b602001015160f81c60f81b6001600160f81b03191684828151811061089d5761089d610e2d565b01602001516001600160f81b031916146108bb5760009150506104d6565b806108c581610e43565b91505061085b565b5060019392505050565b8280546108e390610c85565b90600052602060002090601f016020900481019282610905576000855561094b565b82601f1061091e57805160ff191683800117855561094b565b8280016001018555821561094b579182015b8281111561094b578251825591602001919060010190610930565b5061095792915061095b565b5090565b5b80821115610957576000815560010161095c565b60006020828403121561098257600080fd5b5035919050565b60005b838110156109a457818101518382015260200161098c565b838111156109b3576000848401525b50505050565b600081518084526109d1816020860160208601610989565b601f01601f19169290920160200192915050565b60208152600061058d60208301846109b9565b634e487b7160e01b600052604160045260246000fd5b604051601f8201601f1916810167ffffffffffffffff81118282101715610a3757610a376109f8565b604052919050565b600067ffffffffffffffff821115610a5957610a596109f8565b50601f01601f191660200190565b6000610a7a610a7584610a3f565b610a0e565b9050828152838383011115610a8e57600080fd5b828260208301376000602084830101529392505050565b600060208284031215610ab757600080fd5b813567ffffffffffffffff811115610ace57600080fd5b8201601f81018413610adf57600080fd5b610aee84823560208401610a67565b949350505050565b6020808252825182820181905260009190848201906040850190845b81811015610b2e57835183529284019291840191600101610b12565b50909695505050505050565b6001600160a01b0381168114610b4f57600080fd5b50565b60008060408385031215610b6557600080fd5b823591506020830135610b7781610b3a565b809150509250929050565b60008060408385031215610b9557600080fd5b50508035926020909101359150565b60008060408385031215610bb757600080fd5b8235610bc281610b3a565b946020939093013593505050565b600067ffffffffffffffff821115610bea57610bea6109f8565b5060051b60200190565b60006020808385031215610c0757600080fd5b823567ffffffffffffffff811115610c1e57600080fd5b8301601f81018513610c2f57600080fd5b8035610c3d610a7582610bd0565b81815260059190911b82018301908381019087831115610c5c57600080fd5b928401925b82841015610c7a57833582529284019290840190610c61565b979650505050505050565b600181811c90821680610c9957607f821691505b60208210810361033657634e487b7160e01b600052602260045260246000fd5b60006020808385031215610ccc57600080fd5b825167ffffffffffffffff811115610ce357600080fd5b8301601f81018513610cf457600080fd5b8051610d02610a7582610bd0565b81815260059190911b82018301908381019087831115610d2157600080fd5b928401925b82841015610c7a57835182529284019290840190610d26565b60008060408385031215610d5257600080fd5b505080516020909101519092909150565b60008060408385031215610d7657600080fd5b825191506020830151610b7781610b3a565b600060208284031215610d9a57600080fd5b815167ffffffffffffffff811115610db157600080fd5b8201601f81018413610dc257600080fd5b8051610dd0610a7582610a3f565b818152856020838501011115610de557600080fd5b610df6826020830160208601610989565b95945050505050565b60008060408385031215610e1257600080fd5b8251610e1d81610b3a565b6020939093015192949293505050565b634e487b7160e01b600052603260045260246000fd5b600060018201610e6357634e487b7160e01b600052601160045260246000fd5b506001019056fea2646970667358221220955ca12575c12ed9f5bfd10b67a2e57c28557ed084c816be0700d6ab004f8d1f64736f6c634300080d0033","bytecodeSha1":"f832e0d07182c2b8f17bcb73591b45b028e7a97f","type":"contract","abi":[{"inputs":[{"internalType":"address","name":"addr_","type":"address"},{"internalType":"uint256","name":"v_","type":"uint256"}],"name":"AddressUInt256","outputs":[{"internalType":"bytes32","name":"k_","type":"bytes32"}],"stateMutability":"nonpayable","type":"function"},{"inputs":[{"internalType":"bytes","name":"in_","type":"bytes"}],"name":"Bytes","outputs":[{"internalType":"bytes32","name":"k_","type":"bytes32"}],"stateMutability":"nonpayable","type":"function"},{"inputs":[{"internalType":"bytes32","name":"v_","type":"bytes32"},{"internalType":"address","name":"addr_","type":"address"}],"name":"Bytes32Address","outputs":[{"internalType":"bytes32","name":"k_","type":"bytes32"}],"stateMutability":"nonpayable","type":"function"},{"inputs":[{"internalType":"bytes32[]","name":"in_","type":"bytes32[]"}],"name":"Bytes32Array","outputs":[{"internalType":"bytes32","name":"k_","type":"bytes32"}],"stateMutability":"nonpayable","type":"function"},{"inputs":[{"internalType":"bytes32","name":"v1_","type":"bytes32"},{"internalType":"bytes32","name":"v2_","type":"bytes32"}],"name":"Bytes32Bytes32","outputs":[{"internalType":"bytes32","name":"k_","type":"bytes32"}],"stateMutability":"nonpayable","type":"function"},{"inputs":[{"internalType":"string","name":"in_","type":"string"}],"name":"String","outputs":[{"internalType":"bytes32","name":"k_","type":"bytes32"}],"stateMutability":"nonpayable","type":"function"},{"inputs":[{"internalType":"bytes32","name":"k_","type":"bytes32"}],"name":"exists","outputs":[{"internalType":"bool","name":"","type":"bool"}],"stateMutability":"view","type":"function"},{"inputs":[{"internalType":"bytes32","name":"k_","type":"bytes32"}],"name":"resolveAddressUInt256","outputs":[{"internalType":"address","name":"addr_","type":"address"},{"internalType":"uint256","name":"v_","type":"uint256"}],"stateMutability":"view","type":"function"},{"inputs":[{"internalType":"bytes32","name":"k_","type":"bytes32"}],"name":"resolveBytes","outputs":[{"internalType":"bytes","name":"out_","type":"bytes"}],"stateMutability":"view","type":"function"},{"inputs":[{"internalType":"bytes32","name":"k_","type":"bytes32"}],"name":"resolveBytes32Address","outputs":[{"internalType":"bytes32","name":"v_","type":"bytes32"},{"internalType":"address","name":"addr_","type":"address"}],"stateMutability":"view","type":"function"},{"inputs":[{"internalType":"bytes32","name":"k_","type":"bytes32"}],"name":"resolveBytes32Array","outputs":[{"internalType":"bytes32[]","name":"out_","type":"bytes32[]"}],"stateMutability":"view","type":"function"},{"inputs":[{"internalType":"bytes32","name":"k_","type":"bytes32"}],"name":"resolveBytes32Bytes32","outputs":[{"internalType":"bytes32","name":"v1_","type":"bytes32"},{"internalType":"bytes32","name":"v2_","type":"bytes32"}],"stateMutability":"view","type":"function"},{"inputs":[{"internalType":"bytes32","name":"k_","type":"bytes32"}],"name":"resolveString","outputs":[{"internalType":"string","name":"out_","type":"string"}],"stateMutability":"view","type":"function"}],"compiler":{"version":"0.8.13+commit.abaa5c0e","evm_version":"istanbul","optimizer":{"enabled":true,"runs":200}},"contractName":"KeccakInverter","deployedBytecode":"608060405234801561001057600080fd5b50600436106100cf5760003560e01c8063589e6a981161008c578063a86eeb9111610066578063a86eeb91146101c2578063af915585146101d5578063b305438314610205578063e50d1b3e1461021857600080fd5b8063589e6a981461017457806361e99ffb14610187578063657c7e091461019a57600080fd5b806312cae67b146100d457806324ace672146100fd57806327ee9dc21461011e57806338a699a41461013e5780634329598c146100d45780635768bbb514610161575b600080fd5b6100e76100e2366004610970565b61024a565b6040516100f491906109e5565b60405180910390f35b61011061010b366004610aa5565b6102ec565b6040519081526020016100f4565b61013161012c366004610970565b610450565b6040516100f49190610af6565b61015161014c366004610970565b6104dc565b60405190151581526020016100f4565b61011061016f366004610b52565b6104fe565b610110610182366004610aa5565b610594565b610110610195366004610b82565b61059f565b6101ad6101a8366004610970565b6105e5565b604080519283526020830191909152016100f4565b6101106101d0366004610ba4565b610670565b6101e86101e3366004610970565b6106be565b604080519283526001600160a01b039091166020830152016100f4565b610110610213366004610bf4565b610740565b61022b610226366004610970565b6107c3565b604080516001600160a01b0390931683526020830191909152016100f4565b600081815260208190526040902080546060919061026790610c85565b80601f016020809104026020016040519081016040528092919081815260200182805461029390610c85565b80156102e05780601f106102b5576101008083540402835291602001916102e0565b820191906000526020600020905b8154815290600101906020018083116102c357829003601f168201915b50505050509050919050565b80516020808301919091206000818152918290526040909120805461031090610c85565b905060000361033c576000818152602081815260409091208351610336928501906108d7565b50919050565b600081815260208190526040902080546103de919061035a90610c85565b80601f016020809104026020016040519081016040528092919081815260200182805461038690610c85565b80156103d35780601f106103a8576101008083540402835291602001916103d3565b820191906000526020600020905b8154815290600101906020018083116103b657829003601f168201915b505050505083610845565b61044b5760405162461bcd60e51b815260206004820152603460248201527f4b656363616b496e766572746572204279746573206b656363616b2069736e7460448201527320756e697175652021212121212121212121212160601b606482015260840160405180910390fd5b919050565b606061045b8261024a565b6040516355b04b0d60e11b815273__$669c6e0eba2465bd6779ea6ec5db3af1b5$__9163ab60961a9161049191906004016109e5565b600060405180830381865af41580156104ae573d6000803e3d6000fd5b505050506040513d6000823e601f3d908101601f191682016040526104d69190810190610cb9565b92915050565b600081815260208190526040812080546104f590610c85565b15159392505050565b6040516318f7a7c360e21b8152600481018390526001600160a01b038216602482015260009061058d9073__$669c6e0eba2465bd6779ea6ec5db3af1b5$__906363de9f0c906044015b600060405180830381865af4158015610565573d6000803e3d6000fd5b505050506040513d6000823e601f3d908101601f191682016040526102139190810190610cb9565b9392505050565b60006104d6826102ec565b604051632291b3f160e21b8152600481018390526024810182905260009061058d9073__$669c6e0eba2465bd6779ea6ec5db3af1b5$__90638a46cfc490604401610548565b6000806105f183610450565b60405163029695c360e21b815273__$669c6e0eba2465bd6779ea6ec5db3af1b5$__91630a5a570c916106279190600401610af6565b6040805180830381865af4158015610643573d6000803e3d6000fd5b505050506040513d601f19601f820116820180604052508101906106679190610d3f565b91509150915091565b604051630de874ed60e01b81526001600160a01b03831660048201526024810182905260009061058d9073__$669c6e0eba2465bd6779ea6ec5db3af1b5$__90630de874ed90604401610548565b6000806106ca83610450565b604051639ac1b34560e01b815273__$669c6e0eba2465bd6779ea6ec5db3af1b5$__91639ac1b345916107009190600401610af6565b6040805180830381865af415801561071c573d6000803e3d6000fd5b505050506040513d601f19601f820116820180604052508101906106679190610d63565b604051632431a7cf60e01b81526000906104d69073__$669c6e0eba2465bd6779ea6ec5db3af1b5$__90632431a7cf9061077e908690600401610af6565b600060405180830381865af415801561079b573d6000803e3d6000fd5b505050506040513d6000823e601f3d908101601f1916820160405261010b9190810190610d88565b6000806107cf83610450565b6040516314130a7960e31b815273__$669c6e0eba2465bd6779ea6ec5db3af1b5$__9163a09853c8916108059190600401610af6565b6040805180830381865af4158015610821573d6000803e3d6000fd5b505050506040513d601f19601f820116820180604052508101906106679190610dff565b60008151835114610858575060006104d6565b60005b83518110156108cd5782818151811061087657610876610e2d565b602001015160f81c60f81b6001600160f81b03191684828151811061089d5761089d610e2d565b01602001516001600160f81b031916146108bb5760009150506104d6565b806108c581610e43565b91505061085b565b5060019392505050565b8280546108e390610c85565b90600052602060002090601f016020900481019282610905576000855561094b565b82601f1061091e57805160ff191683800117855561094b565b8280016001018555821561094b579182015b8281111561094b578251825591602001919060010190610930565b5061095792915061095b565b5090565b5b80821115610957576000815560010161095c565b60006020828403121561098257600080fd5b5035919050565b60005b838110156109a457818101518382015260200161098c565b838111156109b3576000848401525b50505050565b600081518084526109d1816020860160208601610989565b601f01601f19169290920160200192915050565b60208152600061058d60208301846109b9565b634e487b7160e01b600052604160045260246000fd5b604051601f8201601f1916810167ffffffffffffffff81118282101715610a3757610a376109f8565b604052919050565b600067ffffffffffffffff821115610a5957610a596109f8565b50601f01601f191660200190565b6000610a7a610a7584610a3f565b610a0e565b9050828152838383011115610a8e57600080fd5b828260208301376000602084830101529392505050565b600060208284031215610ab757600080fd5b813567ffffffffffffffff811115610ace57600080fd5b8201601f81018413610adf57600080fd5b610aee84823560208401610a67565b949350505050565b6020808252825182820181905260009190848201906040850190845b81811015610b2e57835183529284019291840191600101610b12565b50909695505050505050565b6001600160a01b0381168114610b4f57600080fd5b50565b60008060408385031215610b6557600080fd5b823591506020830135610b7781610b3a565b809150509250929050565b60008060408385031215610b9557600080fd5b50508035926020909101359150565b60008060408385031215610bb757600080fd5b8235610bc281610b3a565b946020939093013593505050565b600067ffffffffffffffff821115610bea57610bea6109f8565b5060051b60200190565b60006020808385031215610c0757600080fd5b823567ffffffffffffffff811115610c1e57600080fd5b8301601f81018513610c2f57600080fd5b8035610c3d610a7582610bd0565b81815260059190911b82018301908381019087831115610c5c57600080fd5b928401925b82841015610c7a57833582529284019290840190610c61565b979650505050505050565b600181811c90821680610c9957607f821691505b60208210810361033657634e487b7160e01b600052602260045260246000fd5b60006020808385031215610ccc57600080fd5b825167ffffffffffffffff811115610ce357600080fd5b8301601f81018513610cf457600080fd5b8051610d02610a7582610bd0565b81815260059190911b82018301908381019087831115610d2157600080fd5b928401925b82841015610c7a57835182529284019290840190610d26565b60008060408385031215610d5257600080fd5b505080516020909101519092909150565b60008060408385031215610d7657600080fd5b825191506020830151610b7781610b3a565b600060208284031215610d9a57600080fd5b815167ffffffffffffffff811115610db157600080fd5b8201601f81018413610dc257600080fd5b8051610dd0610a7582610a3f565b818152856020838501011115610de557600080fd5b610df6826020830160208601610989565b95945050505050565b60008060408385031215610e1257600080fd5b8251610e1d81610b3a565b6020939093015192949293505050565b634e487b7160e01b600052603260045260246000fd5b600060018201610e6357634e487b7160e01b600052601160045260246000fd5b506001019056fea2646970667358221220955ca12575c12ed9f5bfd10b67a2e57c28557ed084c816be0700d6ab004f8d1f64736f6c634300080d0033","language":"Solidity","natspec":{"methods":{},"kind":"dev","version":1},"opcodes":"PUSH1 0x80 PUSH1 0x40 MSTORE CALLVALUE DUP1 ISZERO PUSH2 0x10 JUMPI PUSH1 0x0 DUP1 REVERT JUMPDEST POP PUSH1 0x4 CALLDATASIZE LT PUSH2 0xCF JUMPI PUSH1 0x0 CALLDATALOAD PUSH1 0xE0 SHR DUP1 PUSH4 0x589E6A98 GT PUSH2 0x8C JUMPI DUP1 PUSH4 0xA86EEB91 GT PUSH2 0x66 JUMPI DUP1 PUSH4 0xA86EEB91 EQ PUSH2 0x1C2 JUMPI DUP1 PUSH4 0xAF915585 EQ PUSH2 0x1D5 JUMPI DUP1 PUSH4 0xB3054383 EQ PUSH2 0x205 JUMPI DUP1 PUSH4 0xE50D1B3E EQ PUSH2 0x218 JUMPI PUSH1 0x0 DUP1 REVERT JUMPDEST DUP1 PUSH4 0x589E6A98 EQ PUSH2 0x174 JUMPI DUP1 PUSH4 0x61E99FFB EQ PUSH2 0x187 JUMPI DUP1 PUSH4 0x657C7E09 EQ PUSH2 0x19A JUMPI PUSH1 0x0 DUP1 REVERT JUMPDEST DUP1 PUSH4 0x12CAE67B EQ PUSH2 0xD4 JUMPI DUP1 PUSH4 0x24ACE672 EQ PUSH2 0xFD JUMPI DUP1 PUSH4 0x27EE9DC2 EQ PUSH2 0x11E JUMPI DUP1 PUSH4 0x38A699A4 EQ PUSH2 0x13E JUMPI DUP1 PUSH4 0x4329598C EQ PUSH2 0xD4 JUMPI DUP1 PUSH4 0x5768BBB5 EQ PUSH2 0x161 JUMPI JUMPDEST PUSH1 0x0 DUP1 REVERT JUMPDEST PUSH2 0xE7 PUSH2 0xE2 CALLDATASIZE PUSH1 0x4 PUSH2 0x970 JUMP JUMPDEST PUSH2 0x24A JUMP JUMPDEST PUSH1 0x40 MLOAD PUSH2 0xF4 SWAP2 SWAP1 PUSH2 0x9E5 JUMP JUMPDEST PUSH1 0x40 MLOAD DUP1 SWAP2 SUB SWAP1 RETURN JUMPDEST PUSH2 0x110 PUSH2 0x10B CALLDATASIZE PUSH1 0x4 PUSH2 0xAA5 JUMP JUMPDEST PUSH2 0x2EC JUMP JUMPDEST PUSH1 0x40 MLOAD SWAP1 DUP2 MSTORE PUSH1 0x20 ADD PUSH2 0xF4 JUMP JUMPDEST PUSH2 0x131 PUSH2 0x12C CALLDATASIZE PUSH1 0x4 PUSH2 0x970 JUMP JUMPDEST PUSH2 0x450 JUMP JUMPDEST PUSH1 0x40 MLOAD PUSH2 0xF4 SWAP2 SWAP1 PUSH2 0xAF6 JUMP JUMPDEST PUSH2 0x151 PUSH2 0x14C CALLDATASIZE PUSH1 0x4 PUSH2 0x970 JUMP JUMPDEST PUSH2 0x4DC JUMP JUMPDEST PUSH1 0x40 MLOAD SWAP1 ISZERO ISZERO DUP2 MSTORE PUSH1 0x20 ADD PUSH2 0xF4 JUMP JUMPDEST PUSH2 0x110 PUSH2 0x16F CALLDATASIZE PUSH1 0x4 PUSH2 0xB52 JUMP JUMPDEST PUSH2 0x4FE JUMP JUMPDEST PUSH2 0x110 PUSH2 0x182 CALLDATASIZE PUSH1 0x4 PUSH2 0xAA5 JUMP JUMPDEST PUSH2 0x594 JUMP JUMPDEST PUSH2 0x110 PUSH2 0x195 CALLDATASIZE PUSH1 0x4 PUSH2 0xB82 JUMP JUMPDEST PUSH2 0x59F JUMP JUMPDEST PUSH2 0x1AD PUSH2 0x1A8 CALLDATASIZE PUSH1 0x4 PUSH2 0x970 JUMP JUMPDEST PUSH2 0x5E5 JUMP JUMPDEST PUSH1 0x40 DUP1 MLOAD SWAP3 DUP4 MSTORE PUSH1 0x20 DUP4 ADD SWAP2 SWAP1 SWAP2 MSTORE ADD PUSH2 0xF4 JUMP JUMPDEST PUSH2 0x110 PUSH2 0x1D0 CALLDATASIZE PUSH1 0x4 PUSH2 0xBA4 JUMP JUMPDEST PUSH2 0x670 JUMP JUMPDEST PUSH2 0x1E8 PUSH2 0x1E3 CALLDATASIZE PUSH1 0x4 PUSH2 0x970 JUMP JUMPDEST PUSH2 0x6BE JUMP JUMPDEST PUSH1 0x40 DUP1 MLOAD SWAP3 DUP4 MSTORE PUSH1 0x1 PUSH1 0x1 PUSH1 0xA0 SHL SUB SWAP1 SWAP2 AND PUSH1 0x20 DUP4 ADD MSTORE ADD PUSH2 0xF4 JUMP JUMPDEST PUSH2 0x110 PUSH2 0x213 CALLDATASIZE PUSH1 0x4 PUSH2 0xBF4 JUMP JUMPDEST PUSH2 0x740 JUMP JUMPDEST PUSH2 0x22B PUSH2 0x226 CALLDATASIZE PUSH1 0x4 PUSH2 0x970 JUMP JUMPDEST PUSH2 0x7C3 JUMP JUMPDEST PUSH1 0x40 DUP1 MLOAD PUSH1 0x1 PUSH1 0x1 PUSH1 0xA0 SHL SUB SWAP1 SWAP4 AND DUP4 MSTORE PUSH1 0x20 DUP4 ADD SWAP2 SWAP1 SWAP2 MSTORE ADD PUSH2 0xF4 JUMP JUMPDEST PUSH1 0x0 DUP2 DUP2 MSTORE PUSH1 0x20 DUP2 SWAP1 MSTORE PUSH1 0x40 SWAP1 KECCAK256 DUP1 SLOAD PUSH1 0x60 SWAP2 SWAP1 PUSH2 0x267 SWAP1 PUSH2 0xC85 JUMP JUMPDEST DUP1 PUSH1 0x1F ADD PUSH1 0x20 DUP1 SWAP2 DIV MUL PUSH1 0x20 ADD PUSH1 0x40 MLOAD SWAP1 DUP2 ADD PUSH1 0x40 MSTORE DUP1 SWAP3 SWAP2 SWAP1 DUP2 DUP2 MSTORE PUSH1 0x20 ADD DUP3 DUP1 SLOAD PUSH2 0x293 SWAP1 PUSH2 0xC85 JUMP JUMPDEST DUP1 ISZERO PUSH2 0x2E0 JUMPI DUP1 PUSH1 0x1F LT PUSH2 0x2B5 JUMPI PUSH2 0x100 DUP1 DUP4 SLOAD DIV MUL DUP4 MSTORE SWAP2 PUSH1 0x20 ADD SWAP2 PUSH2 0x2E0 JUMP JUMPDEST DUP3 ADD SWAP2 SWAP1 PUSH1 0x0 MSTORE PUSH1 0x20 PUSH1 0x0 KECCAK256 SWAP1 JUMPDEST DUP2 SLOAD DUP2 MSTORE SWAP1 PUSH1 0x1 ADD SWAP1 PUSH1 0x20 ADD DUP1 DUP4 GT PUSH2 0x2C3 JUMPI DUP3 SWAP1 SUB PUSH1 0x1F AND DUP3 ADD SWAP2 JUMPDEST POP POP POP POP POP SWAP1 POP SWAP2 SWAP1 POP JUMP JUMPDEST DUP1 MLOAD PUSH1 0x20 DUP1 DUP4 ADD SWAP2 SWAP1 SWAP2 KECCAK256 PUSH1 0x0 DUP2 DUP2 MSTORE SWAP2 DUP3 SWAP1 MSTORE PUSH1 0x40 SWAP1 SWAP2 KECCAK256 DUP1 SLOAD PUSH2 0x310 SWAP1 PUSH2 0xC85 JUMP JUMPDEST SWAP1 POP PUSH1 0x0 SUB PUSH2 0x33C JUMPI PUSH1 0x0 DUP2 DUP2 MSTORE PUSH1 0x20 DUP2 DUP2 MSTORE PUSH1 0x40 SWAP1 SWAP2 KECCAK256 DUP4 MLOAD PUSH2 0x336 SWAP3 DUP6 ADD SWAP1 PUSH2 0x8D7 JUMP JUMPDEST POP SWAP2 SWAP1 POP JUMP JUMPDEST PUSH1 0x0 DUP2 DUP2 MSTORE PUSH1 0x20 DUP2 SWAP1 MSTORE PUSH1 0x40 SWAP1 KECCAK256 DUP1 SLOAD PUSH2 0x3DE SWAP2 SWAP1 PUSH2 0x35A SWAP1 PUSH2 0xC85 JUMP JUMPDEST DUP1 PUSH1 0x1F ADD PUSH1 0x20 DUP1 SWAP2 DIV MUL PUSH1 0x20 ADD PUSH1 0x40 MLOAD SWAP1 DUP2 ADD PUSH1 0x40 MSTORE DUP1 SWAP3 SWAP2 SWAP1 DUP2 DUP2 MSTORE PUSH1 0x20 ADD DUP3 DUP1 SLOAD PUSH2 0x386 SWAP1 PUSH2 0xC85 JUMP JUMPDEST DUP1 ISZERO PUSH2 0x3D3 JUMPI DUP1 PUSH1 0x1F LT PUSH2 0x3A8 JUMPI PUSH2 0x100 DUP1 DUP4 SLOAD DIV MUL DUP4 MSTORE SWAP2 PUSH1 0x20 ADD SWAP2 PUSH2 0x3D3 JUMP JUMPDEST DUP3 ADD SWAP2 SWAP1 PUSH1 0x0 MSTORE PUSH1 0x20 PUSH1 0x0 KECCAK256 SWAP1 JUMPDEST DUP2 SLOAD DUP2 MSTORE SWAP1 PUSH1 0x1 ADD SWAP1 PUSH1 0x20 ADD DUP1 DUP4 GT PUSH2 0x3B6 JUMPI DUP3 SWAP1 SUB PUSH1 0x1F AND DUP3 ADD SWAP2 JUMPDEST POP POP POP POP POP DUP4 PUSH2 0x845 JUMP JUMPDEST PUSH2 0x44B JUMPI PUSH1 0x40 MLOAD PUSH3 0x461BCD PUSH1 0xE5 SHL DUP2 MSTORE PUSH1 0x20 PUSH1 0x4 DUP3 ADD MSTORE PUSH1 0x34 PUSH1 0x24 DUP3 ADD MSTORE PUSH32 0x4B656363616B496E766572746572204279746573206B656363616B2069736E74 PUSH1 0x44 DUP3 ADD MSTORE PUSH20 0x20756E6971756520212121212121212121212121 PUSH1 0x60 SHL PUSH1 0x64 DUP3 ADD MSTORE PUSH1 0x84 ADD PUSH1 0x40 MLOAD DUP1 SWAP2 SUB SWAP1 REVERT JUMPDEST SWAP2 SWAP1 POP JUMP JUMPDEST PUSH1 0x60 PUSH2 0x45B DUP3 PUSH2 0x24A JUMP JUMPDEST PUSH1 0x40 MLOAD PUSH4 0x55B04B0D PUSH1 0xE1 SHL DUP2 MSTORE PUSH20 0x0 SWAP2 PUSH4 0xAB60961A SWAP2 PUSH2 0x491 SWAP2 SWAP1 PUSH1 0x4 ADD PUSH2 0x9E5 JUMP JUMPDEST PUSH1 0x0 PUSH1 0x40 MLOAD DUP1 DUP4 SUB DUP2 DUP7 GAS DELEGATECALL ISZERO DUP1 ISZERO PUSH2 0x4AE JUMPI RETURNDATASIZE PUSH1 0x0 DUP1 RETURNDATACOPY RETURNDATASIZE PUSH1 0x0 REVERT JUMPDEST POP POP POP POP PUSH1 0x40 MLOAD RETURNDATASIZE PUSH1 0x0 DUP3 RETURNDATACOPY PUSH1 0x1F RETURNDATASIZE SWAP1 DUP2 ADD PUSH1 0x1F NOT AND DUP3 ADD PUSH1 0x40 MSTORE PUSH2 0x4D6 SWAP2 SWAP1 DUP2 ADD SWAP1 PUSH2 0xCB9 JUMP JUMPDEST SWAP3 SWAP2 POP POP JUMP JUMPDEST PUSH1 0x0 DUP2 DUP2 MSTORE PUSH1 0x20 DUP2 SWAP1 MSTORE PUSH1 0x40 DUP2 KECCAK256 DUP1 SLOAD PUSH2 0x4F5 SWAP1 PUSH2 0xC85 JUMP JUMPDEST ISZERO ISZERO SWAP4 SWAP3 POP POP POP JUMP JUMPDEST PUSH1 0x40 MLOAD PUSH4 0x18F7A7C3 PUSH1 0xE2 SHL DUP2 MSTORE PUSH1 0x4 DUP2 ADD DUP4 SWAP1 MSTORE PUSH1 0x1 PUSH1 0x1 PUSH1 0xA0 SHL SUB DUP3 AND PUSH1 0x24 DUP3 ADD MSTORE PUSH1 0x0 SWAP1 PUSH2 0x58D SWAP1 PUSH20 0x0 SWAP1 PUSH4 0x63DE9F0C SWAP1 PUSH1 0x44 ADD JUMPDEST PUSH1 0x0 PUSH1 0x40 MLOAD DUP1 DUP4 SUB DUP2 DUP7 GAS DELEGATECALL ISZERO DUP1 ISZERO PUSH2 0x565 JUMPI RETURNDATASIZE PUSH1 0x0 DUP1 RETURNDATACOPY RETURNDATASIZE PUSH1 0x0 REVERT JUMPDEST POP POP POP POP PUSH1 0x40 MLOAD RETURNDATASIZE PUSH1 0x0 DUP3 RETURNDATACOPY PUSH1 0x1F RETURNDATASIZE SWAP1 DUP2 ADD PUSH1 0x1F NOT AND DUP3 ADD PUSH1 0x40 MSTORE PUSH2 0x213 SWAP2 SWAP1 DUP2 ADD SWAP1 PUSH2 0xCB9 JUMP JUMPDEST SWAP4 SWAP3 POP POP POP JUMP JUMPDEST PUSH1 0x0 PUSH2 0x4D6 DUP3 PUSH2 0x2EC JUMP JUMPDEST PUSH1 0x40 MLOAD PUSH4 0x2291B3F1 PUSH1 0xE2 SHL DUP2 MSTORE PUSH1 0x4 DUP2 ADD DUP4 SWAP1 MSTORE PUSH1 0x24 DUP2 ADD DUP3 SWAP1 MSTORE PUSH1 0x0 SWAP1 PUSH2 0x58D SWAP1 PUSH20 0x0 SWAP1 PUSH4 0x8A46CFC4 SWAP1 PUSH1 0x44 ADD PUSH2 0x548 JUMP JUMPDEST PUSH1 0x0 DUP1 PUSH2 0x5F1 DUP4 PUSH2 0x450 JUMP JUMPDEST PUSH1 0x40 MLOAD PUSH4 0x29695C3 PUSH1 0xE2 SHL DUP2 MSTORE PUSH20 0x0 SWAP2 PUSH4 0xA5A570C SWAP2 PUSH2 0x627 SWAP2 SWAP1 PUSH1 0x4 ADD PUSH2 0xAF6 JUMP JUMPDEST PUSH1 0x40 DUP1 MLOAD DUP1 DUP4 SUB DUP2 DUP7 GAS DELEGATECALL ISZERO DUP1 ISZERO PUSH2 0x643 JUMPI RETURNDATASIZE PUSH1 0x0 DUP1 RETURNDATACOPY RETURNDATASIZE PUSH1 0x0 REVERT JUMPDEST POP POP POP POP PUSH1 0x40 MLOAD RETURNDATASIZE PUSH1 0x1F NOT PUSH1 0x1F DUP3 ADD AND DUP3 ADD DUP1 PUSH1 0x40 MSTORE POP DUP2 ADD SWAP1 PUSH2 0x667 SWAP2 SWAP1 PUSH2 0xD3F JUMP JUMPDEST SWAP2 POP SWAP2 POP SWAP2 POP SWAP2 JUMP JUMPDEST PUSH1 0x40 MLOAD PUSH4 0xDE874ED PUSH1 0xE0 SHL DUP2 MSTORE PUSH1 0x1 PUSH1 0x1 PUSH1 0xA0 SHL SUB DUP4 AND PUSH1 0x4 DUP3 ADD MSTORE PUSH1 0x24 DUP2 ADD DUP3 SWAP1 MSTORE PUSH1 0x0 SWAP1 PUSH2 0x58D SWAP1 PUSH20 0x0 SWAP1 PUSH4 0xDE874ED SWAP1 PUSH1 0x44 ADD PUSH2 0x548 JUMP JUMPDEST PUSH1 0x0 DUP1 PUSH2 0x6CA DUP4 PUSH2 0x450 JUMP JUMPDEST PUSH1 0x40 MLOAD PUSH4 0x9AC1B345 PUSH1 0xE0 SHL DUP2 MSTORE PUSH20 0x0 SWAP2 PUSH4 0x9AC1B345 SWAP2 PUSH2 0x700 SWAP2 SWAP1 PUSH1 0x4 ADD PUSH2 0xAF6 JUMP JUMPDEST PUSH1 0x40 DUP1 MLOAD DUP1 DUP4 SUB DUP2 DUP7 GAS DELEGATECALL ISZERO DUP1 ISZERO PUSH2 0x71C JUMPI RETURNDATASIZE PUSH1 0x0 DUP1 RETURNDATACOPY RETURNDATASIZE PUSH1 0x0 REVERT JUMPDEST POP POP POP POP PUSH1 0x40 MLOAD RETURNDATASIZE PUSH1 0x1F NOT PUSH1 0x1F DUP3 ADD AND DUP3 ADD DUP1 PUSH1 0x40 MSTORE POP DUP2 ADD SWAP1 PUSH2 0x667 SWAP2 SWAP1 PUSH2 0xD63 JUMP JUMPDEST PUSH1 0x40 MLOAD PUSH4 0x2431A7CF PUSH1 0xE0 SHL DUP2 MSTORE PUSH1 0x0 SWAP1 PUSH2 0x4D6 SWAP1 PUSH20 0x0 SWAP1 PUSH4 0x2431A7CF SWAP1 PUSH2 0x77E SWAP1 DUP7 SWAP1 PUSH1 0x4 ADD PUSH2 0xAF6 JUMP JUMPDEST PUSH1 0x0 PUSH1 0x40 MLOAD DUP1 DUP4 SUB DUP2 DUP7 GAS DELEGATECALL ISZERO DUP1 ISZERO PUSH2 0x79B JUMPI RETURNDATASIZE PUSH1 0x0 DUP1 RETURNDATACOPY RETURNDATASIZE PUSH1 0x0 REVERT JUMPDEST POP POP POP POP PUSH1 0x40 MLOAD RETURNDATASIZE PUSH1 0x0 DUP3 RETURNDATACOPY PUSH1 0x1F RETURNDATASIZE SWAP1 DUP2 ADD PUSH1 0x1F NOT AND DUP3 ADD PUSH1 0x40 MSTORE PUSH2 0x10B SWAP2 SWAP1 DUP2 ADD SWAP1 PUSH2 0xD88 JUMP JUMPDEST PUSH1 0x0 DUP1 PUSH2 0x7CF DUP4 PUSH2 0x450 JUMP JUMPDEST PUSH1 0x40 MLOAD PUSH4 0x14130A79 PUSH1 0xE3 SHL DUP2 MSTORE PUSH20 0x0 SWAP2 PUSH4 0xA09853C8 SWAP2 PUSH2 0x805 SWAP2 SWAP1 PUSH1 0x4 ADD PUSH2 0xAF6 JUMP JUMPDEST PUSH1 0x40 DUP1 MLOAD DUP1 DUP4 SUB DUP2 DUP7 GAS DELEGATECALL ISZERO DUP1 ISZERO PUSH2 0x821 JUMPI RETURNDATASIZE PUSH1 0x0 DUP1 RETURNDATACOPY RETURNDATASIZE PUSH1 0x0 REVERT JUMPDEST POP POP POP POP PUSH1 0x40 MLOAD RETURNDATASIZE PUSH1 0x1F NOT PUSH1 0x1F DUP3 ADD AND DUP3 ADD DUP1 PUSH1 0x40 MSTORE POP DUP2 ADD SWAP1 PUSH2 0x667 SWAP2 SWAP1 PUSH2 0xDFF JUMP JUMPDEST PUSH1 0x0 DUP2 MLOAD DUP4 MLOAD EQ PUSH2 0x858 JUMPI POP PUSH1 0x0 PUSH2 0x4D6 JUMP JUMPDEST PUSH1 0x0 JUMPDEST DUP4 MLOAD DUP2 LT ISZERO PUSH2 0x8CD JUMPI DUP3 DUP2 DUP2 MLOAD DUP2 LT PUSH2 0x876 JUMPI PUSH2 0x876 PUSH2 0xE2D JUMP JUMPDEST PUSH1 0x20 ADD ADD MLOAD PUSH1 0xF8 SHR PUSH1 0xF8 SHL PUSH1 0x1 PUSH1 0x1 PUSH1 0xF8 SHL SUB NOT AND DUP5 DUP3 DUP2 MLOAD DUP2 LT PUSH2 0x89D JUMPI PUSH2 0x89D PUSH2 0xE2D JUMP JUMPDEST ADD PUSH1 0x20 ADD MLOAD PUSH1 0x1 PUSH1 0x1 PUSH1 0xF8 SHL SUB NOT AND EQ PUSH2 0x8BB JUMPI PUSH1 0x0 SWAP2 POP POP PUSH2 0x4D6 JUMP JUMPDEST DUP1 PUSH2 0x8C5 DUP2 PUSH2 0xE43 JUMP JUMPDEST SWAP2 POP POP PUSH2 0x85B JUMP JUMPDEST POP PUSH1 0x1 SWAP4 SWAP3 POP POP POP JUMP JUMPDEST DUP3 DUP1 SLOAD PUSH2 0x8E3 SWAP1 PUSH2 0xC85 JUMP JUMPDEST SWAP1 PUSH1 0x0 MSTORE PUSH1 0x20 PUSH1 0x0 KECCAK256 SWAP1 PUSH1 0x1F ADD PUSH1 0x20 SWAP1 DIV DUP2 ADD SWAP3 DUP3 PUSH2 0x905 JUMPI PUSH1 0x0 DUP6 SSTORE PUSH2 0x94B JUMP JUMPDEST DUP3 PUSH1 0x1F LT PUSH2 0x91E JUMPI DUP1 MLOAD PUSH1 0xFF NOT AND DUP4 DUP1 ADD OR DUP6 SSTORE PUSH2 0x94B JUMP JUMPDEST DUP3 DUP1 ADD PUSH1 0x1 ADD DUP6 SSTORE DUP3 ISZERO PUSH2 0x94B JUMPI SWAP2 DUP3 ADD JUMPDEST DUP3 DUP2 GT ISZERO PUSH2 0x94B JUMPI DUP3 MLOAD DUP3 SSTORE SWAP2 PUSH1 0x20 ADD SWAP2 SWAP1 PUSH1 0x1 ADD SWAP1 PUSH2 0x930 JUMP JUMPDEST POP PUSH2 0x957 SWAP3 SWAP2 POP PUSH2 0x95B JUMP JUMPDEST POP SWAP1 JUMP JUMPDEST JUMPDEST DUP1 DUP3 GT ISZERO PUSH2 0x957 JUMPI PUSH1 0x0 DUP2 SSTORE PUSH1 0x1 ADD PUSH2 0x95C JUMP JUMPDEST PUSH1 0x0 PUSH1 0x20 DUP3 DUP5 SUB SLT ISZERO PUSH2 0x982 JUMPI PUSH1 0x0 DUP1 REVERT JUMPDEST POP CALLDATALOAD SWAP2 SWAP1 POP JUMP JUMPDEST PUSH1 0x0 JUMPDEST DUP4 DUP2 LT ISZERO PUSH2 0x9A4 JUMPI DUP2 DUP2 ADD MLOAD DUP4 DUP3 ADD MSTORE PUSH1 0x20 ADD PUSH2 0x98C JUMP JUMPDEST DUP4 DUP2 GT ISZERO PUSH2 0x9B3 JUMPI PUSH1 0x0 DUP5 DUP5 ADD MSTORE JUMPDEST POP POP POP POP JUMP JUMPDEST PUSH1 0x0 DUP2 MLOAD DUP1 DUP5 MSTORE PUSH2 0x9D1 DUP2 PUSH1 0x20 DUP7 ADD PUSH1 0x20 DUP7 ADD PUSH2 0x989 JUMP JUMPDEST PUSH1 0x1F ADD PUSH1 0x1F NOT AND SWAP3 SWAP1 SWAP3 ADD PUSH1 0x20 ADD SWAP3 SWAP2 POP POP JUMP JUMPDEST PUSH1 0x20 DUP2 MSTORE PUSH1 0x0 PUSH2 0x58D PUSH1 0x20 DUP4 ADD DUP5 PUSH2 0x9B9 JUMP JUMPDEST PUSH4 0x4E487B71 PUSH1 0xE0 SHL PUSH1 0x0 MSTORE PUSH1 0x41 PUSH1 0x4 MSTORE PUSH1 0x24 PUSH1 0x0 REVERT JUMPDEST PUSH1 0x40 MLOAD PUSH1 0x1F DUP3 ADD PUSH1 0x1F NOT AND DUP2 ADD PUSH8 0xFFFFFFFFFFFFFFFF DUP2 GT DUP3 DUP3 LT OR ISZERO PUSH2 0xA37 JUMPI PUSH2 0xA37 PUSH2 0x9F8 JUMP JUMPDEST PUSH1 0x40 MSTORE SWAP2 SWAP1 POP JUMP JUMPDEST PUSH1 0x0 PUSH8 0xFFFFFFFFFFFFFFFF DUP3 GT ISZERO PUSH2 0xA59 JUMPI PUSH2 0xA59 PUSH2 0x9F8 JUMP JUMPDEST POP PUSH1 0x1F ADD PUSH1 0x1F NOT AND PUSH1 0x20 ADD SWAP1 JUMP JUMPDEST PUSH1 0x0 PUSH2 0xA7A PUSH2 0xA75 DUP5 PUSH2 0xA3F JUMP JUMPDEST PUSH2 0xA0E JUMP JUMPDEST SWAP1 POP DUP3 DUP2 MSTORE DUP4 DUP4 DUP4 ADD GT ISZERO PUSH2 0xA8E JUMPI PUSH1 0x0 DUP1 REVERT JUMPDEST DUP3 DUP3 PUSH1 0x20 DUP4 ADD CALLDATACOPY PUSH1 0x0 PUSH1 0x20 DUP5 DUP4 ADD ADD MSTORE SWAP4 SWAP3 POP POP POP JUMP JUMPDEST PUSH1 0x0 PUSH1 0x20 DUP3 DUP5 SUB SLT ISZERO PUSH2 0xAB7 JUMPI PUSH1 0x0 DUP1 REVERT JUMPDEST DUP2 CALLDATALOAD PUSH8 0xFFFFFFFFFFFFFFFF DUP2 GT ISZERO PUSH2 0xACE JUMPI PUSH1 0x0 DUP1 REVERT JUMPDEST DUP3 ADD PUSH1 0x1F DUP2 ADD DUP5 SGT PUSH2 0xADF JUMPI PUSH1 0x0 DUP1 REVERT JUMPDEST PUSH2 0xAEE DUP5 DUP3 CALLDATALOAD PUSH1 0x20 DUP5 ADD PUSH2 0xA67 JUMP JUMPDEST SWAP5 SWAP4 POP POP POP POP JUMP JUMPDEST PUSH1 0x20 DUP1 DUP3 MSTORE DUP3 MLOAD DUP3 DUP3 ADD DUP2 SWAP1 MSTORE PUSH1 0x0 SWAP2 SWAP1 DUP5 DUP3 ADD SWAP1 PUSH1 0x40 DUP6 ADD SWAP1 DUP5 JUMPDEST DUP2 DUP2 LT ISZERO PUSH2 0xB2E JUMPI DUP4 MLOAD DUP4 MSTORE SWAP3 DUP5 ADD SWAP3 SWAP2 DUP5 ADD SWAP2 PUSH1 0x1 ADD PUSH2 0xB12 JUMP JUMPDEST POP SWAP1 SWAP7 SWAP6 POP POP POP POP POP POP JUMP JUMPDEST PUSH1 0x1 PUSH1 0x1 PUSH1 0xA0 SHL SUB DUP2 AND DUP2 EQ PUSH2 0xB4F JUMPI PUSH1 0x0 DUP1 REVERT JUMPDEST POP JUMP JUMPDEST PUSH1 0x0 DUP1 PUSH1 0x40 DUP4 DUP6 SUB SLT ISZERO PUSH2 0xB65 JUMPI PUSH1 0x0 DUP1 REVERT JUMPDEST DUP3 CALLDATALOAD SWAP2 POP PUSH1 0x20 DUP4 ADD CALLDATALOAD PUSH2 0xB77 DUP2 PUSH2 0xB3A JUMP JUMPDEST DUP1 SWAP2 POP POP SWAP3 POP SWAP3 SWAP1 POP JUMP JUMPDEST PUSH1 0x0 DUP1 PUSH1 0x40 DUP4 DUP6 SUB SLT ISZERO PUSH2 0xB95 JUMPI PUSH1 0x0 DUP1 REVERT JUMPDEST POP POP DUP1 CALLDATALOAD SWAP3 PUSH1 0x20 SWAP1 SWAP2 ADD CALLDATALOAD SWAP2 POP JUMP JUMPDEST PUSH1 0x0 DUP1 PUSH1 0x40 DUP4 DUP6 SUB SLT ISZERO PUSH2 0xBB7 JUMPI PUSH1 0x0 DUP1 REVERT JUMPDEST DUP3 CALLDATALOAD PUSH2 0xBC2 DUP2 PUSH2 0xB3A JUMP JUMPDEST SWAP5 PUSH1 0x20 SWAP4 SWAP1 SWAP4 ADD CALLDATALOAD SWAP4 POP POP POP JUMP JUMPDEST PUSH1 0x0 PUSH8 0xFFFFFFFFFFFFFFFF DUP3 GT ISZERO PUSH2 0xBEA JUMPI PUSH2 0xBEA PUSH2 0x9F8 JUMP JUMPDEST POP PUSH1 0x5 SHL PUSH1 0x20 ADD SWAP1 JUMP JUMPDEST PUSH1 0x0 PUSH1 0x20 DUP1 DUP4 DUP6 SUB SLT ISZERO PUSH2 0xC07 JUMPI PUSH1 0x0 DUP1 REVERT JUMPDEST DUP3 CALLDATALOAD PUSH8 0xFFFFFFFFFFFFFFFF DUP2 GT ISZERO PUSH2 0xC1E JUMPI PUSH1 0x0 DUP1 REVERT JUMPDEST DUP4 ADD PUSH1 0x1F DUP2 ADD DUP6 SGT PUSH2 0xC2F JUMPI PUSH1 0x0 DUP1 REVERT JUMPDEST DUP1 CALLDATALOAD PUSH2 0xC3D PUSH2 0xA75 DUP3 PUSH2 0xBD0 JUMP JUMPDEST DUP2 DUP2 MSTORE PUSH1 0x5 SWAP2 SWAP1 SWAP2 SHL DUP3 ADD DUP4 ADD SWAP1 DUP4 DUP2 ADD SWAP1 DUP8 DUP4 GT ISZERO PUSH2 0xC5C JUMPI PUSH1 0x0 DUP1 REVERT JUMPDEST SWAP3 DUP5 ADD SWAP3 JUMPDEST DUP3 DUP5 LT ISZERO PUSH2 0xC7A JUMPI DUP4 CALLDATALOAD DUP3 MSTORE SWAP3 DUP5 ADD SWAP3 SWAP1 DUP5 ADD SWAP1 PUSH2 0xC61 JUMP JUMPDEST SWAP8 SWAP7 POP POP POP POP POP POP POP JUMP JUMPDEST PUSH1 0x1 DUP2 DUP2 SHR SWAP1 DUP3 AND DUP1 PUSH2 0xC99 JUMPI PUSH1 0x7F DUP3 AND SWAP2 POP JUMPDEST PUSH1 0x20 DUP3 LT DUP2 SUB PUSH2 0x336 JUMPI PUSH4 0x4E487B71 PUSH1 0xE0 SHL PUSH1 0x0 MSTORE PUSH1 0x22 PUSH1 0x4 MSTORE PUSH1 0x24 PUSH1 0x0 REVERT JUMPDEST PUSH1 0x0 PUSH1 0x20 DUP1 DUP4 DUP6 SUB SLT ISZERO PUSH2 0xCCC JUMPI PUSH1 0x0 DUP1 REVERT JUMPDEST DUP3 MLOAD PUSH8 0xFFFFFFFFFFFFFFFF DUP2 GT ISZERO PUSH2 0xCE3 JUMPI PUSH1 0x0 DUP1 REVERT JUMPDEST DUP4 ADD PUSH1 0x1F DUP2 ADD DUP6 SGT PUSH2 0xCF4 JUMPI PUSH1 0x0 DUP1 REVERT JUMPDEST DUP1 MLOAD PUSH2 0xD02 PUSH2 0xA75 DUP3 PUSH2 0xBD0 JUMP JUMPDEST DUP2 DUP2 MSTORE PUSH1 0x5 SWAP2 SWAP1 SWAP2 SHL DUP3 ADD DUP4 ADD SWAP1 DUP4 DUP2 ADD SWAP1 DUP8 DUP4 GT ISZERO PUSH2 0xD21 JUMPI PUSH1 0x0 DUP1 REVERT JUMPDEST SWAP3 DUP5 ADD SWAP3 JUMPDEST DUP3 DUP5 LT ISZERO PUSH2 0xC7A JUMPI DUP4 MLOAD DUP3 MSTORE SWAP3 DUP5 ADD SWAP3 SWAP1 DUP5 ADD SWAP1 PUSH2 0xD26 JUMP JUMPDEST PUSH1 0x0 DUP1 PUSH1 0x40 DUP4 DUP6 SUB SLT ISZERO PUSH2 0xD52 JUMPI PUSH1 0x0 DUP1 REVERT JUMPDEST POP POP DUP1 MLOAD PUSH1 0x20 SWAP1 SWAP2 ADD MLOAD SWAP1 SWAP3 SWAP1 SWAP2 POP JUMP JUMPDEST PUSH1 0x0 DUP1 PUSH1 0x40 DUP4 DUP6 SUB SLT ISZERO PUSH2 0xD76 JUMPI PUSH1 0x0 DUP1 REVERT JUMPDEST DUP3 MLOAD SWAP2 POP PUSH1 0x20 DUP4 ADD MLOAD PUSH2 0xB77 DUP2 PUSH2 0xB3A JUMP JUMPDEST PUSH1 0x0 PUSH1 0x20 DUP3 DUP5 SUB SLT ISZERO PUSH2 0xD9A JUMPI PUSH1 0x0 DUP1 REVERT JUMPDEST DUP2 MLOAD PUSH8 0xFFFFFFFFFFFFFFFF DUP2 GT ISZERO PUSH2 0xDB1 JUMPI PUSH1 0x0 DUP1 REVERT JUMPDEST DUP3 ADD PUSH1 0x1F DUP2 ADD DUP5 SGT PUSH2 0xDC2 JUMPI PUSH1 0x0 DUP1 REVERT JUMPDEST DUP1 MLOAD PUSH2 0xDD0 PUSH2 0xA75 DUP3 PUSH2 0xA3F JUMP JUMPDEST DUP2 DUP2 MSTORE DUP6 PUSH1 0x20 DUP4 DUP6 ADD ADD GT ISZERO PUSH2 0xDE5 JUMPI PUSH1 0x0 DUP1 REVERT JUMPDEST PUSH2 0xDF6 DUP3 PUSH1 0x20 DUP4 ADD PUSH1 0x20 DUP7 ADD PUSH2 0x989 JUMP JUMPDEST SWAP6 SWAP5 POP POP POP POP POP JUMP JUMPDEST PUSH1 0x0 DUP1 PUSH1 0x40 DUP4 DUP6 SUB SLT ISZERO PUSH2 0xE12 JUMPI PUSH1 0x0 DUP1 REVERT JUMPDEST DUP3 MLOAD PUSH2 0xE1D DUP2 PUSH2 0xB3A JUMP JUMPDEST PUSH1 0x20 SWAP4 SWAP1 SWAP4 ADD MLOAD SWAP3 SWAP5 SWAP3 SWAP4 POP POP POP JUMP JUMPDEST PUSH4 0x4E487B71 PUSH1 0xE0 SHL PUSH1 0x0 MSTORE PUSH1 0x32 PUSH1 0x4 MSTORE PUSH1 0x24 PUSH1 0x0 REVERT JUMPDEST PUSH1 0x0 PUSH1 0x1 DUP3 ADD PUSH2 0xE63 JUMPI PUSH4 0x4E487B71 PUSH1 0xE0 SHL PUSH1 0x0 MSTORE PUSH1 0x11 PUSH1 0x4 MSTORE PUSH1 0x24 PUSH1 0x0 REVERT JUMPDEST POP PUSH1 0x1 ADD SWAP1 JUMP INVALID LOG2 PUSH5 0x6970667358 0x22 SLT KECCAK256 SWAP6 0x5C LOG1 0x25 PUSH22 0xC12ED9F5BFD10B67A2E57C28557ED084C816BE0700D6 0xAB STOP 0x4F DUP14 0x1F PUSH5 0x736F6C6343 STOP ADDMOD 0xD STOP CALLER ","sha1":"56af8328cb45af46817c98aa090c6c70437e8992","source":"// SPDX-License-Identifier: MIT\n// Beef MarketPlace Contracts v0.0.0 hello@mcdu.com\n\npragma solidity ^0.8.0;\n\nimport \"./BytesAndKeccakLib.sol\";\n\ncontract KeccakInverter {\n    using BytesAndKeccakLib for bytes32[];\n    using BytesAndKeccakLib for bytes;\n\n    mapping(bytes32 => bytes) private _keccakinverted;\n\n    function exists(bytes32 k_) public view virtual returns (bool) {\n        return _keccakinverted[k_].length != 0;\n    }\n    function equal(\n        bytes memory t1_,\n        bytes memory t2_\n    ) private pure returns (bool) {\n        if (t1_.length!=t2_.length)\n            return false;\n        for (uint i;i<t1_.length;i++)\n            if (t1_[i]!=t2_[i])\n                return false;\n        return true;\n    }\n\n    function Bytes(bytes memory in_) public virtual returns (bytes32 k_) {\n        k_ = keccak256(in_);\n        if (_keccakinverted[k_].length == 0) \n            _keccakinverted[k_] = in_;\n        else \n        {\n            require(equal(_keccakinverted[k_],in_),\"KeccakInverter Bytes keccak isnt unique !!!!!!!!!!!!\");\n            // PARANOIA\n            //while (!equal(_keccakinverted[k_],in_))\n            //    k_ = bytes32(uint256(k_)+1);\n        }\n    }\n\n\n    function String(string memory in_) public virtual returns (bytes32 k_) {\n        return Bytes(bytes(in_));\n    }\n\n\n\n    function Bytes32Array(bytes32[] memory in_) public virtual returns (bytes32 k_) {\n        return Bytes(in_.Bytes32ArrayToBytes());\n    }\n\n\n\n    function AddressUInt256(address addr_, uint256 v_)\n        public virtual\n        returns (bytes32 k_)\n    {\n        return Bytes32Array(BytesAndKeccakLib.AddressUInt256ToBytes32Array(addr_, v_));\n    }\n\n\n\n\n    function Bytes32Address(bytes32 v_, address addr_)\n        public virtual\n        returns (bytes32 k_)\n    {\n        return Bytes32Array(BytesAndKeccakLib.Bytes32AddressToBytes32Array(v_, addr_));\n    }\n\n\n\n    function Bytes32Bytes32(bytes32 v1_, bytes32 v2_)\n        public virtual\n        returns (bytes32 k_)\n    {\n        return Bytes32Array(BytesAndKeccakLib.Bytes32Bytes32ToBytes32Array(v1_, v2_));\n    }\n\n    function resolveBytes(bytes32 k_) public view returns (bytes memory out_) {\n        return _keccakinverted[k_];\n    }\n\n    function resolveString(bytes32 k_)\n        public\n        view\n        virtual\n        returns (string memory out_)\n    {\n        return string(_keccakinverted[k_]);\n    }\n\n\n    function resolveBytes32Array(bytes32 k_)\n        public\n        view virtual\n        returns (bytes32[] memory out_)\n    {\n        return resolveBytes(k_).BytesToBytes32Array();\n    }\n\n\n    function resolveAddressUInt256(bytes32 k_)\n        public\n        view virtual\n        returns (address addr_, uint256 v_)\n    {\n        return resolveBytes32Array(k_).Bytes32ArrayToAddressUInt256();\n    }\n\n\n\n    function resolveBytes32Address(bytes32 k_)\n        public\n        view virtual\n        returns (bytes32 v_, address addr_)\n    {\n        return resolveBytes32Array(k_).Bytes32ArrayToBytes32Address();\n    }\n\n    function resolveBytes32Bytes32(bytes32 k_)\n        public\n        view virtual\n        returns (bytes32 v1_, bytes32 v2_)\n    {\n        return resolveBytes32Array(k_).Bytes32ArrayToBytes32Bytes32();\n    }\n}\n","sourcePath":"contracts/agnostic/Keccak/KeccakInverter.sol","deployment":{"address":"0x46d66cd4fccfb620DAF612dC553CC37F7f94a7d3","chainid":"9997","blockHeight":3683}}