{"bytecode":"60a06040523480156200001157600080fd5b5060405162005b1038038062005b108339810160408190526200003491620000b1565b8080620000413362000056565b6001600160a01b031660805250620000e39050565b600080546001600160a01b038381166201000081810262010000600160b01b0319851617855560405193049190911692909183917f8be0079c531659141344cd1fd0a4f28419497f9722a3daafe3b4186f6b6457e091a35050565b600060208284031215620000c457600080fd5b81516001600160a01b0381168114620000dc57600080fd5b9392505050565b6080516158e46200022c600039600081816104a50152818161056a01528181610608015281816107b901528181610a1301528181610b8a01528181610caa01528181610d4401528181610f54015281816112ee0152818161144701528181611514015281816115a5015281816117ba015281816118cd01528181611a9001528181611c0101528181611ded01528181612361015281816124de0152818161257301528181612625015281816126bb01528181612740015281816127d101528181612a3501528181612c4701528181612e3901528181613195015281816132bb015281816133c4015281816134c4015281816135cd015281816136c7015281816137d10152818161399301528181613ae001528181613e8501528181613f1a0152818161405801528181614280015281816145b1015281816148410152614bdf01526158e46000f3fe608060405234801561001057600080fd5b50600436106101f05760003560e01c8063979620761161010f578063c34fa842116100a2578063e4b1614411610071578063e4b16144146104e2578063ede8cdfe146104f5578063f2fde38b14610508578063feab44541461051b576101f0565b8063c34fa8421461048d578063ccc07959146104a0578063d6935858146104c7578063e2d7e08e146104cf576101f0565b8063af640d0f116100de578063af640d0f1461042e578063b03fd40d14610454578063b23a43fc14610467578063b791f8a01461047a576101f0565b806397962076146103e55780639bc896f9146103f5578063a5ef794a14610408578063a6610f021461041b576101f0565b80635f5c5baa116101875780637a70482c116101565780637a70482c1461038c5780637af6649a1461039f578063854ba99d146103b25780638da5cb5b146103ba576101f0565b80635f5c5baa146103495780636296514114610351578063715018a61461037c57806372ea61bf14610384576101f0565b806321603f43116101c357806321603f43146102db5780632203616d146102fb5780632f54bf6e146103235780635c42b71014610336576101f0565b806301ffc9a71461027557806305d6bd9c1461029d5780630af077bf146102a75780631ef4590d146102c8575b6101f8610545565b6000610208602460043684614ea0565b8080601f016020809104026020016040519081016040528093929190818152602001838380828437600092018290525060208501519495509250503660231981019150601f19016004838037816024600437600080826000875af4925050506102708161070f565b505050005b610288610283366004614eca565b610729565b60405190151581526020015b60405180910390f35b6102a5610760565b005b6102ba6102b5366004614f09565b610777565b604051908152602001610294565b6102886102d6366004614f4d565b6108f0565b6102ee6102e9366004614f6f565b610981565b6040516102949190614fc0565b61030e610309366004614f6f565b610994565b60405163ffffffff9091168152602001610294565b610288610331366004615075565b6109a5565b6102ba6103443660046150a8565b6109d2565b6102a56109ee565b61036461035f366004614f6f565b610b03565b6040516001600160401b039091168152602001610294565b6102a5610b35565b6102a5610b47565b6102ba61039a366004614f09565b610b61565b6102ba6103ad3660046150f9565b61127f565b610288611298565b6000546201000090046001600160a01b03165b6040516001600160a01b039091168152602001610294565b600054610100900460ff16610288565b6102a5610403366004614f6f565b6112b6565b6102ba610416366004615121565b611406565b6102ba610429366004615153565b61141e565b7fc79a5c5e1c7f6fab1e75ab0e20e9522aa9eb363a0c70072c6dcb8a20f4a46ae46102ba565b6102ba6104623660046151b8565b612305565b6102ba610475366004615153565b61231f565b6102ba6104883660046151e1565b6124af565b6102ba61049b36600461524a565b6125f6565b6103cd7f000000000000000000000000000000000000000000000000000000000000000081565b6102a56126f8565b6102ba6104dd3660046152d5565b612714565b6102ba6104f036600461534d565b61277c565b6102a5610503366004614f6f565b612793565b6102a5610516366004615075565b612898565b61052e610529366004614f6f565b612911565b60405165ffffffffffff9091168152602001610294565b6000546001600160a01b0362010000909104163314806105f857506001600160a01b037f0000000000000000000000000000000000000000000000000000000000000000166316279055336040516001600160e01b031960e084901b1681526001600160a01b039091166004820152602401602060405180830381865afa1580156105d4573d6000803e3d6000fd5b505050506040513d601f19601f820116820180604052508101906105f89190615373565b8061069657506001600160a01b037f000000000000000000000000000000000000000000000000000000000000000016636d70f7ae336040516001600160e01b031960e084901b1681526001600160a01b039091166004820152602401602060405180830381865afa158015610672573d6000803e3d6000fd5b505050506040513d601f19601f820116820180604052508101906106969190615373565b61070d5760405162461bcd60e51b815260206004820152603960248201527f416c6c6f77616e63653a2063616c6c6572206d757374206265205265706f736960448201527f746f727920436f6e7472616374206f72204f70657261746f720000000000000060648201526084015b60405180910390fd5b565b3d6000803e808015610720573d6000f35b3d6000fd5b5050565b60006001600160e01b031982166301ffc9a760e01b148061075a57506001600160e01b031982166315d3789560e31b145b92915050565b610768610545565b61070d6000805460ff19169055565b60405163023aa9ab60e61b81527f2e7a327ef83c2af7579c6634f2f5604519800c5f07626f27bd602fd11ed8e6ec600482015260009081906001600160a01b037f00000000000000000000000000000000000000000000000000000000000000001690638eaa6ac090602401602060405180830381865afa158015610800573d6000803e3d6000fd5b505050506040513d601f19601f820116820180604052508101906108249190615395565b604080513060248201526001600160a01b038a81166044830152606482018a90526084820189905260a4820188905260c48083018890528351808403909101815260e490920183526020820180516001600160e01b03166301de754d60e61b1790529151929091169161089791906153b2565b6000604051808303816000865af19150503d80600081146108d4576040519150601f19603f3d011682016040523d82523d6000602084013e6108d9565b606091505b505090506108e68161070f565b5095945050505050565b6000828152600160205260408082209051632be5db2360e11b815260048101919091526024810183905273__Array_________________________________906357cbb64690604401602060405180830381865af4158015610956573d6000803e3d6000fd5b505050506040513d601f19601f8201168201806040525081019061097a9190615373565b9392505050565b610989614e11565b61075a826000612922565b600061075a64e8d4a5100083615403565b600080546001600160a01b03838116620100009092041614156109ca57506001919050565b506000919050565b60006109e33388888888888861231f565b979650505050505050565b6000546001600160a01b036201000090910416331480610aa157506001600160a01b037f000000000000000000000000000000000000000000000000000000000000000016636d70f7ae336040516001600160e01b031960e084901b1681526001600160a01b039091166004820152602401602060405180830381865afa158015610a7d573d6000803e3d6000fd5b505050506040513d601f19601f82011682018060405250810190610aa19190615373565b61070d5760405162461bcd60e51b815260206004820152602d60248201527f416c6c6f77616e63653a2063616c6c6572206d757374206265205265706f736960448201526c3a37b93c9027b832b930ba37b960991b6064820152608401610704565b600080610b156402540be40084615403565b905082610b27826402540be400615425565b111561075a5761075a615444565b610b3d613074565b61070d60006130d5565b610b4f610545565b61070d6000805460ff19166001179055565b6000610b6b611298565b15610b885760405162461bcd60e51b81526004016107049061545a565b7f00000000000000000000000000000000000000000000000000000000000000006001600160a01b0316634635229b6040518163ffffffff1660e01b8152600401602060405180830381865afa158015610be6573d6000803e3d6000fd5b505050506040513d601f19601f82011682018060405250810190610c0a9190615373565b80610c1d57506001600160a01b03861633145b610c7f5760405162461bcd60e51b815260206004820152602d60248201527f4d757374206265206163636f756e743d3d5f6d736753656e6465722829206f7260448201526c204d6f64652054657374696e6760981b6064820152608401610704565b6000858152600560205260408082208054915163657c7e0960e01b81526004810192909252919081907f00000000000000000000000000000000000000000000000000000000000000006001600160a01b03169063657c7e09906024016040805180830381865afa158015610cf8573d6000803e3d6000fd5b505050506040513d601f19601f82011682018060405250810190610d1c9190615484565b60405163023aa9ab60e61b815260008051602061588f833981519152600482015291935091507f00000000000000000000000000000000000000000000000000000000000000006001600160a01b031690638eaa6ac090602401602060405180830381865afa158015610d93573d6000803e3d6000fd5b505050506040513d601f19601f82011682018060405250810190610db79190615395565b604051634e68f20f60e11b8152600481018390526001600160a01b038b811660248301529190911690639cd1e41e90604401602060405180830381865afa158015610e06573d6000803e3d6000fd5b505050506040513d601f19601f82011682018060405250810190610e2a91906154a8565b670de0b6b3a7640000610e3d888a615425565b610e479190615403565b1115610e955760405162461bcd60e51b815260206004820152601a60248201527f42616e6b3a204e6f7420656e6f75676820617661696c61626c650000000000006044820152606401610704565b6001830154604051635b7d0f6960e11b8152600160a81b90910460ff16600482015260009073__Order_________________________________9063b6fa1ed290602401602060405180830381865af4158015610ef6573d6000803e3d6000fd5b505050506040513d601f19601f82011682018060405250810190610f1a9190615373565b156110455760405163023aa9ab60e61b81527f3cb99135f7a7c088d9085b446345038a22a85f4e8fe072b0e1b66d97243e745860048201527f00000000000000000000000000000000000000000000000000000000000000006001600160a01b031690638eaa6ac090602401602060405180830381865afa158015610fa3573d6000803e3d6000fd5b505050506040513d601f19601f82011682018060405250810190610fc79190615395565b6040516332f3077960e11b815260048101859052602481018490526001600160a01b0391909116906365e60ef2906044016060604051808303816000875af1158015611017573d6000803e3d6000fd5b505050506040513d601f19601f8201168201806040525081019061103b91906154c1565b5091506110669050565b600384015461106390600160c01b90046001600160401b0316612305565b90505b670de0b6b3a764000061107987826154ef565b6110839089615425565b61108d9190615403565b81111580156110c25750670de0b6b3a76400006110aa8782615506565b6110b49089615425565b6110be9190615403565b8110155b61110e5760405162461bcd60e51b815260206004820152601c60248201527f51756f746520536c6970706564206f76657220746f6c6572616e6365000000006044820152606401610704565b60008161111b898b615425565b6111259190615403565b600386015490915060009061115090610462906001600160401b03600160401b82048116911661551e565b90508181101561115e578091505b61116b868d60008d613130565b6111748a610b03565b600387018054600890611198908490600160401b90046001600160401b0316615546565b82546101009290920a6001600160401b038181021990931691831602179091556003880154600160801b81048216600160401b909104909116141590506111e4576111e48660036138ca565b6001860154604080516001600160a01b039283168152918e166020830152810184905260608101839052849086907f49da6c773c11f8e65fd2ffb9512fa3f24dc8759fbcedb687f0b59694adc1d3439060800160405180910390a360036001870154600160a01b900460ff16600581111561126157611261614f88565b1161126f5761126f86613dbc565b50979a9950505050505050505050565b600061075a65ffffffffffff831664174876e800615425565b6000805460ff16806112b15750600054610100900460ff165b905090565b60405163023aa9ab60e61b81527f2e7a327ef83c2af7579c6634f2f5604519800c5f07626f27bd602fd11ed8e6ec60048201526000907f00000000000000000000000000000000000000000000000000000000000000006001600160a01b031690638eaa6ac090602401602060405180830381865afa15801561133d573d6000803e3d6000fd5b505050506040513d601f19601f820116820180604052508101906113619190615395565b60408051306024820152604480820186905282518083039091018152606490910182526020810180516001600160e01b03166376f466ff60e11b17905290516001600160a01b0392909216916113b791906153b2565b6000604051808303816000865af19150503d80600081146113f4576040519150601f19603f3d011682016040523d82523d6000602084013e6113f9565b606091505b505090506107258161070f565b60006114153386868686610777565b95945050505050565b6000611428611298565b156114455760405162461bcd60e51b81526004016107049061545a565b7f00000000000000000000000000000000000000000000000000000000000000006001600160a01b0316634635229b6040518163ffffffff1660e01b8152600401602060405180830381865afa1580156114a3573d6000803e3d6000fd5b505050506040513d601f19601f820116820180604052508101906114c79190615373565b806114da57506001600160a01b03881633145b6114f65760405162461bcd60e51b815260040161070490615571565b60405163c5537eb760e01b81526004810188905261080060248201527f00000000000000000000000000000000000000000000000000000000000000006001600160a01b03169063c5537eb790604401602060405180830381865afa158015611563573d6000803e3d6000fd5b505050506040513d601f19601f820116820180604052508101906115879190615373565b156117a457604051630c25e48360e11b8152600481018890526000907f00000000000000000000000000000000000000000000000000000000000000006001600160a01b03169063184bc90690602401602060405180830381865afa1580156115f4573d6000803e3d6000fd5b505050506040513d601f19601f820116820180604052508101906116189190615395565b9050806001600160a01b031663f5ac9db66040518163ffffffff1660e01b8152600401602060405180830381865afa158015611658573d6000803e3d6000fd5b505050506040513d601f19601f8201168201806040525081019061167c9190615373565b6116bd5760405162461bcd60e51b815260206004820152601260248201527146726f6d206e6f7420747261646561626c6560701b6044820152606401610704565b806001600160a01b0316630e4994276040518163ffffffff1660e01b8152600401602060405180830381865afa1580156116fb573d6000803e3d6000fd5b505050506040513d601f19601f8201168201806040525081019061171f9190615373565b801561174b57507fad3228b676f7d3cd4284a5443f17f1962b36e491b30a40b2405849e597ba5fb58714155b6117a25760405162461bcd60e51b815260206004820152602260248201527f46726f6d206973206f6e6c7920747261646561626c6520746f2043757272656e604482015261637960f01b6064820152608401610704565b505b60405163d47a7edd60e01b8152600481018890527f00000000000000000000000000000000000000000000000000000000000000006001600160a01b03169063d47a7edd90602401602060405180830381865afa158015611809573d6000803e3d6000fd5b505050506040513d601f19601f8201168201806040525081019061182d9190615373565b1580611840575083670de0b6b3a7640000145b8061184a57508385145b6118aa5760405162461bcd60e51b815260206004820152602b60248201527f2746726f6d27206973204e46542071747920616e64206772616e756c6172697460448201526a79206d757374206265203160a81b6064820152608401610704565b60405163023aa9ab60e61b815260008051602061588f83398151915260048201527f00000000000000000000000000000000000000000000000000000000000000006001600160a01b031690638eaa6ac090602401602060405180830381865afa15801561191c573d6000803e3d6000fd5b505050506040513d601f19601f820116820180604052508101906119409190615395565b604051634e68f20f60e11b8152600481018990526001600160a01b038a811660248301529190911690639cd1e41e90604401602060405180830381865afa15801561198f573d6000803e3d6000fd5b505050506040513d601f19601f820116820180604052508101906119b391906154a8565b841115611a025760405162461bcd60e51b815260206004820152601a60248201527f42616e6b3a204e6f7420656e6f75676820617661696c61626c650000000000006044820152606401610704565b6040805161018081018252600080825260208201819052918101829052606081018290526080810182905260a0810182905260c0810182905260e081018290526101008101829052610120810182905261014081018290526101608101919091526001600160a01b0389811660208301526040516361e99ffb60e01b8152600481018a9052602481018990527f0000000000000000000000000000000000000000000000000000000000000000909116906361e99ffb906044016020604051808303816000875af1158015611adb573d6000803e3d6000fd5b505050506040513d601f19601f82011682018060405250810190611aff91906154a8565b8152611b0a86610b03565b6001600160401b0316610120820152611b2285610b03565b6001600160401b031660a0820152611b3984610b03565b6001600160401b03166101008201526060810151604051635b7d0f6960e11b815260ff909116600482015273__Order_________________________________9063b6fa1ed290602401602060405180830381865af4158015611ba0573d6000803e3d6000fd5b505050506040513d601f19601f82011682018060405250810190611bc49190615373565b15611d495760405163023aa9ab60e61b81527f3cb99135f7a7c088d9085b446345038a22a85f4e8fe072b0e1b66d97243e745860048201526000907f00000000000000000000000000000000000000000000000000000000000000006001600160a01b031690638eaa6ac090602401602060405180830381865afa158015611c50573d6000803e3d6000fd5b505050506040513d601f19601f82011682018060405250810190611c749190615395565b6040516332f3077960e11b8152600481018b9052602481018a90526001600160a01b0391909116906365e60ef2906044016060604051808303816000875af1158015611cc4573d6000803e3d6000fd5b505050506040513d601f19601f82011682018060405250810190611ce891906154c1565b509150611cf6905081610b03565b6001600160401b03166101608301819052611d475760405162461bcd60e51b8152602060048201526011602482015270145d5bdd194e88139bdd081c5d5bdd1959607a1b6044820152606401610704565b505b606081015160405163f0340a3760e01b815260ff909116600482015273__Order_________________________________9063f0340a3790602401602060405180830381865af4158015611da1573d6000803e3d6000fd5b505050506040513d601f19601f82011682018060405250810190611dc59190615373565b15611ec85760405163023aa9ab60e61b815260008051602061588f83398151915260048201527f00000000000000000000000000000000000000000000000000000000000000006001600160a01b031690638eaa6ac090602401602060405180830381865afa158015611e3c573d6000803e3d6000fd5b505050506040513d601f19601f82011682018060405250810190611e609190615395565b6001600160a01b03166356a1fd3a88836020015130896040518563ffffffff1660e01b8152600401611e9594939291906155bc565b600060405180830381600087803b158015611eaf57600080fd5b505af1158015611ec3573d6000803e3d6000fd5b505050505b6003805460010190555b600354158015611ef5575060035460009081526005602052604090206002015415155b15611f0857600380546001019055611ed2565b6003546080820181905260a08201516001600160401b0390811660e08401526004604080850191825260ff871660608601526101008501519092166101408501526000928352600560208181529290932084518155918401516001830180546001600160a01b039092166001600160a01b031983168117825592518695909391926001600160a81b03191690911790600160a01b908490811115611fae57611fae614f88565b0217905550606082015160018201805460ff60a81b1916600160a81b60ff90931692909202919091179055608080830151600283015560a083015160038301805460c086015160e08701516101008801516001600160401b039586166fffffffffffffffffffffffffffffffff1994851617600160401b9387168402176fffffffffffffffffffffffffffffffff16600160801b92871683026001600160c01b031617600160c01b9187169190910217909355610120870151600496870180546101408a0151610160909a015167ffffffffffffffff60801b199388169190951617988616909202979097179690961692160217909255908201516040516304132f1d60e31b815280830192909252602482015273__Array_________________________________9063209978e890604401602060405180830381865af41580156120fe573d6000803e3d6000fd5b505050506040513d601f19601f820116820180604052508101906121229190615373565b50805160009081526006602052604090819020608083015191516304132f1d60e31b815273__Array_________________________________9263209978e89261217a92909190600401918252602082015260400190565b602060405180830381865af4158015612197573d6000803e3d6000fd5b505050506040513d601f19601f820116820180604052508101906121bb9190615373565b5060008881526007602052604090819020608083015191516304132f1d60e31b815273__Array_________________________________9263209978e89261221192909190600401918252602082015260400190565b602060405180830381865af415801561222e573d6000803e3d6000fd5b505050506040513d601f19601f820116820180604052508101906122529190615373565b5060008781526008602052604090819020608083015191516304132f1d60e31b815273__Array_________________________________9263209978e8926122a892909190600401918252602082015260400190565b602060405180830381865af41580156122c5573d6000803e3d6000fd5b505050506040513d601f19601f820116820180604052508101906122e99190615373565b5080516122f590613e67565b5050600354979650505050505050565b600061075a6001600160401b0383166402540be400615425565b60405163023aa9ab60e61b81527f2e7a327ef83c2af7579c6634f2f5604519800c5f07626f27bd602fd11ed8e6ec600482015260009081906001600160a01b037f00000000000000000000000000000000000000000000000000000000000000001690638eaa6ac090602401602060405180830381865afa1580156123a8573d6000803e3d6000fd5b505050506040513d601f19601f820116820180604052508101906123cc9190615395565b604080513060248201526001600160a01b038c81166044830152606482018c9052608482018b905260a482018a905260c4820189905260e4820188905260ff8716610104808401919091528351808403909101815261012490920183526020820180516001600160e01b0316635330878160e11b1790529151929091169161245491906153b2565b6000604051808303816000865af19150503d8060008114612491576040519150601f19603f3d011682016040523d82523d6000602084013e612496565b606091505b505090506124a38161070f565b50979650505050505050565b60405163509ff69b60e01b81526001600160a01b038781166004830152600060248301819052916125ea918a917f00000000000000000000000000000000000000000000000000000000000000009091169063509ff69b906044016020604051808303816000875af1158015612529573d6000803e3d6000fd5b505050506040513d601f19601f8201168201806040525081019061254d91906154a8565b60405163509ff69b60e01b81526001600160a01b038a81166004830152600060248301527f0000000000000000000000000000000000000000000000000000000000000000169063509ff69b906044015b6020604051808303816000875af11580156125bd573d6000803e3d6000fd5b505050506040513d601f19601f820116820180604052508101906125e191906154a8565b8888888861231f565b98975050505050505050565b60405163509ff69b60e01b81526001600160a01b038981166004830152602482018990526000916126ea918c917f00000000000000000000000000000000000000000000000000000000000000009091169063509ff69b906044015b6020604051808303816000875af1158015612671573d6000803e3d6000fd5b505050506040513d601f19601f8201168201806040525081019061269591906154a8565b60405163509ff69b60e01b81526001600160a01b038b81166004830152602482018b90527f0000000000000000000000000000000000000000000000000000000000000000169063509ff69b9060440161259e565b9a9950505050505050505050565b612700613074565b61070d6000805461ff001916610100179055565b600061276f3360405163509ff69b60e01b81526001600160a01b038c81166004830152602482018c90527f0000000000000000000000000000000000000000000000000000000000000000169063509ff69b90604401612652565b9998505050505050505050565b600061075a63ffffffff831664e8d4a51000615425565b61279b611298565b156127b85760405162461bcd60e51b81526004016107049061545a565b60006005600083815260200190815260200160002090507f00000000000000000000000000000000000000000000000000000000000000006001600160a01b0316634635229b6040518163ffffffff1660e01b8152600401602060405180830381865afa15801561282d573d6000803e3d6000fd5b505050506040513d601f19601f820116820180604052508101906128519190615373565b80612868575060018101546001600160a01b031633145b6128845760405162461bcd60e51b815260040161070490615571565b61288f8160016138ca565b61072581613dbc565b6128a0613074565b6001600160a01b0381166129055760405162461bcd60e51b815260206004820152602660248201527f4f776e61626c653a206e6577206f776e657220697320746865207a65726f206160448201526564647265737360d01b6064820152608401610704565b61290e816130d5565b50565b600061075a64174876e80083615403565b61292a614e11565b60008381526005602081815260408084208151610180810183528154815260018201546001600160a01b0381169482019490945293909291840191600160a01b900460ff169081111561297f5761297f614f88565b600581111561299057612990614f88565b81526001820154600160a81b900460ff166020820152600282015460408083019190915260038301546001600160401b038082166060850152600160401b80830482166080860152600160801b808404831660a0870152600160c01b909304821660c086015260049586015480831660e087015290810482166101008601529190910416610120909201919091528251905163657c7e0960e01b8152918201529091507f00000000000000000000000000000000000000000000000000000000000000006001600160a01b03169063657c7e09906024016040805180830381865afa158015612a83573d6000803e3d6000fd5b505050506040513d601f19601f82011682018060405250810190612aa79190615484565b60408401526020830152608081015160608301528280612b40575060608101516040516336181b6760e11b815260ff909116600482015273__Order_________________________________90636c3036ce90602401602060405180830381865af4158015612b1a573d6000803e3d6000fd5b505050506040513d601f19601f82011682018060405250810190612b3e9190615373565b155b15612fb15760208101516001600160a01b0316825260a0810151612b6390612305565b60808301526060810151604051632b2076e360e11b815260ff909116600482015273__Order_________________________________90635640edc690602401602060405180830381865af4158015612bc0573d6000803e3d6000fd5b505050506040513d601f19601f82011682018060405250810190612be49190615373565b15612bf857608082015160a0830152612d32565b6101208101516001600160401b031615612c2457612c1a816101200151612305565b60a0830152612d32565b60405163023aa9ab60e61b815260008051602061588f83398151915260048201527f00000000000000000000000000000000000000000000000000000000000000006001600160a01b031690638eaa6ac090602401602060405180830381865afa158015612c96573d6000803e3d6000fd5b505050506040513d601f19601f82011682018060405250810190612cba9190615395565b6001600160a01b031663a9bf985883602001516040518263ffffffff1660e01b8152600401612ceb91815260200190565b602060405180830381865afa158015612d08573d6000803e3d6000fd5b505050506040513d601f19601f82011682018060405250810190612d2c91906154a8565b60a08301525b612d3f8160c00151612305565b60c083015260e0810151612d5290612305565b60e08301526060810151604051635b7d0f6960e11b815260ff909116600482015273__Order_________________________________9063b6fa1ed290602401602060405180830381865af4158015612daf573d6000803e3d6000fd5b505050506040513d601f19601f82011682018060405250810190612dd39190615373565b15612f9c57612de6816101400151612305565b610120830152610160810151612dfb90612305565b61014083015260405163023aa9ab60e61b81527f3cb99135f7a7c088d9085b446345038a22a85f4e8fe072b0e1b66d97243e745860048201526000907f00000000000000000000000000000000000000000000000000000000000000006001600160a01b031690638eaa6ac090602401602060405180830381865afa158015612e88573d6000803e3d6000fd5b505050506040513d601f19601f82011682018060405250810190612eac9190615395565b6001600160a01b0316636464b68a846020015185604001516040518363ffffffff1660e01b8152600401612eea929190918252602082015260400190565b606060405180830381865afa158015612f07573d6000803e3d6000fd5b505050506040513d601f19601f82011682018060405250810190612f2b91906154c1565b5091505080612f705760405162461bcd60e51b8152602060048201526011602482015270145d5bdd194e88139bdd081c5d5bdd1959607a1b6044820152606401610704565b610140830151612f809082615403565b836101200151612f909190615425565b61010084015250612fb1565b612faa816101000151612305565b6101008301525b604051630212d6cb60e21b815273__Order_________________________________9063084b5b2c90612fe89084906004016155e1565b602060405180830381865af4158015613005573d6000803e3d6000fd5b505050506040513d601f19601f8201168201806040525081019061302991906154a8565b6101608301526040810151610180830190600581111561304b5761304b614f88565b9081600581111561305e5761305e614f88565b9052506060015160ff166101a082015292915050565b6000546001600160a01b036201000090910416331461070d5760405162461bcd60e51b815260206004820152601f60248201527f416c6c6f77616e63653a2063616c6c6572206d757374206265204f776e6572006044820152606401610704565b600080546001600160a01b038381166201000081810262010000600160b01b0319851617855560405193049190911692909183917f8be0079c531659141344cd1fd0a4f28419497f9722a3daafe3b4186f6b6457e091a35050565b60008080600080670de0b6b3a76400006131608a60030160189054906101000a90046001600160401b0316612305565b61316a9088615425565b6131749190615403565b895460405163657c7e0960e01b815291925060009182916001600160a01b037f0000000000000000000000000000000000000000000000000000000000000000169163657c7e09916131cc9160040190815260200190565b6040805180830381865afa1580156131e8573d6000803e3d6000fd5b505050506040513d601f19601f8201168201806040525081019061320c9190615484565b60018d015460405163f0340a3760e01b8152600160a81b90910460ff166004820152919350915073__Order_________________________________9063f0340a3790602401602060405180830381865af415801561326f573d6000803e3d6000fd5b505050506040513d601f19601f820116820180604052508101906132939190615373565b1561339b5760405163023aa9ab60e61b815260008051602061588f83398151915260048201527f00000000000000000000000000000000000000000000000000000000000000006001600160a01b031690638eaa6ac090602401602060405180830381865afa15801561330a573d6000803e3d6000fd5b505050506040513d601f19601f8201168201806040525081019061332e9190615395565b60018c015460405163255318af60e21b81526001600160a01b039283169263954c62bc926133689287929091169030908e906004016155bc565b600060405180830381600087803b15801561338257600080fd5b505af1158015613396573d6000803e3d6000fd5b505050505b881561349b5760405163023aa9ab60e61b815260008051602061588f83398151915260048201527f00000000000000000000000000000000000000000000000000000000000000006001600160a01b031690638eaa6ac090602401602060405180830381865afa158015613413573d6000803e3d6000fd5b505050506040513d601f19601f820116820180604052508101906134379190615395565b6001600160a01b031663954c62bc828c30876040518563ffffffff1660e01b815260040161346894939291906155bc565b600060405180830381600087803b15801561348257600080fd5b505af1158015613496573d6000803e3d6000fd5b505050505b85156135a45760405163023aa9ab60e61b815260008051602061588f83398151915260048201527f00000000000000000000000000000000000000000000000000000000000000006001600160a01b031690638eaa6ac090602401602060405180830381865afa158015613513573d6000803e3d6000fd5b505050506040513d601f19601f820116820180604052508101906135379190615395565b60018c0154604051631c9619a760e01b81526001600160a01b0392831692631c9619a792613571928792909116908c908c906004016155bc565b600060405180830381600087803b15801561358b57600080fd5b505af115801561359f573d6000803e3d6000fd5b505050505b83156136a45760405163023aa9ab60e61b815260008051602061588f83398151915260048201527f00000000000000000000000000000000000000000000000000000000000000006001600160a01b031690638eaa6ac090602401602060405180830381865afa15801561361c573d6000803e3d6000fd5b505050506040513d601f19601f820116820180604052508101906136409190615395565b6001600160a01b0316631c9619a7828c88886040518563ffffffff1660e01b815260040161367194939291906155bc565b600060405180830381600087803b15801561368b57600080fd5b505af115801561369f573d6000803e3d6000fd5b505050505b60405163023aa9ab60e61b815260008051602061588f83398151915260048201527f00000000000000000000000000000000000000000000000000000000000000006001600160a01b031690638eaa6ac090602401602060405180830381865afa158015613716573d6000803e3d6000fd5b505050506040513d601f19601f8201168201806040525081019061373a9190615395565b60018c01546001600160a01b0391821691631c9619a7918591168d61375f8b8e6154ef565b6040518563ffffffff1660e01b815260040161377e94939291906155bc565b600060405180830381600087803b15801561379857600080fd5b505af11580156137ac573d6000803e3d6000fd5b505060405163023aa9ab60e61b815260008051602061588f83398151915260048201527f00000000000000000000000000000000000000000000000000000000000000006001600160a01b03169250638eaa6ac09150602401602060405180830381865afa158015613822573d6000803e3d6000fd5b505050506040513d601f19601f820116820180604052508101906138469190615395565b60018c01546001600160a01b0391821691631c9619a79184918e911661386c89896154ef565b6040518563ffffffff1660e01b815260040161388b94939291906155bc565b600060405180830381600087803b1580156138a557600080fd5b505af11580156138b9573d6000803e3d6000fd5b505050505050505050505050505050565b60008160058111156138de576138de614f88565b1180156138fd575060038160058111156138fa576138fa614f88565b11155b8015613929575060046001830154600160a01b900460ff16600581111561392657613926614f88565b10155b6139755760405162461bcd60e51b815260206004820152601d60248201527f5f6f726465725465726d696e6174652073746174652070726f626c656d0000006044820152606401610704565b815460405163657c7e0960e01b8152600481019190915260009081907f00000000000000000000000000000000000000000000000000000000000000006001600160a01b03169063657c7e09906024016040805180830381865afa1580156139e1573d6000803e3d6000fd5b505050506040513d601f19601f82011682018060405250810190613a059190615484565b600186018054929450909250849160ff60a01b1916600160a01b836005811115613a3157613a31614f88565b0217905550600184015460405163f0340a3760e01b8152600160a81b90910460ff16600482015273__Order_________________________________9063f0340a3790602401602060405180830381865af4158015613a94573d6000803e3d6000fd5b505050506040513d601f19601f82011682018060405250810190613ab89190615373565b15613bef5760405163023aa9ab60e61b815260008051602061588f83398151915260048201527f00000000000000000000000000000000000000000000000000000000000000006001600160a01b031690638eaa6ac090602401602060405180830381865afa158015613b2f573d6000803e3d6000fd5b505050506040513d601f19601f82011682018060405250810190613b539190615395565b600185015460038601546001600160a01b039283169263954c62bc9285929116903090613b9d90610462906001600160401b03600160401b8204811691600160801b90041661551e565b6040518563ffffffff1660e01b8152600401613bbc94939291906155bc565b600060405180830381600087803b158015613bd657600080fd5b505af1158015613bea573d6000803e3d6000fd5b505050505b83546000908152600660205260409081902060028601549151630cef945b60e31b815273__Array_________________________________9263677ca2d892613c4692909190600401918252602082015260400190565b602060405180830381865af4158015613c63573d6000803e3d6000fd5b505050506040513d601f19601f82011682018060405250810190613c879190615373565b506000828152600760205260409081902060028601549151630cef945b60e31b815273__Array_________________________________9263677ca2d892613cdd92909190600401918252602082015260400190565b602060405180830381865af4158015613cfa573d6000803e3d6000fd5b505050506040513d601f19601f82011682018060405250810190613d1e9190615373565b506000818152600860205260409081902060028601549151630cef945b60e31b815273__Array_________________________________9263677ca2d892613d7492909190600401918252602082015260400190565b602060405180830381865af4158015613d91573d6000803e3d6000fd5b505050506040513d601f19601f82011682018060405250810190613db59190615373565b5050505050565b6002810154604051630cef945b60e31b8152600480820152602481019190915273__Array_________________________________9063677ca2d890604401602060405180830381865af4158015613e18573d6000803e3d6000fd5b505050506040513d601f19601f82011682018060405250810190613e3c9190615373565b5043600090815260096020908152604082206002909301548354600181018555938352912090910155565b604051630e29a66960e21b8152600481018290526001600160a01b037f000000000000000000000000000000000000000000000000000000000000000016906338a699a490602401602060405180830381865afa158015613ecc573d6000803e3d6000fd5b505050506040513d601f19601f82011682018060405250810190613ef09190615373565b613ef75750565b60405163657c7e0960e01b81526004810182905260009081906001600160a01b037f0000000000000000000000000000000000000000000000000000000000000000169063657c7e09906024016040805180830381865afa158015613f60573d6000803e3d6000fd5b505050506040513d601f19601f82011682018060405250810190613f849190615484565b91509150613f9282846108f0565b15613f9c57505050565b6000818152600160209081526040808320805482518185028101850190935280835260609493830182828015613ff157602002820191906000526020600020905b815481526020019060010190808311613fdd575b5050505050905080516001600160401b03811115614011576140116156d0565b60405190808252806020026020018201604052801561404457816020015b606081526020019060019003908161402f5790505b5091506000805b82518110156141c05760007f00000000000000000000000000000000000000000000000000000000000000006001600160a01b03166327ee9dc2858481518110614097576140976156e6565b60200260200101516040518263ffffffff1660e01b81526004016140bd91815260200190565b600060405180830381865afa1580156140da573d6000803e3d6000fd5b505050506040513d6000823e601f3d908101601f1916820160405261410291908101906156fc565b604051639d84366d60e01b815290915073__Array_________________________________90639d84366d9061413e9084908b906004016157e8565b602060405180830381865af415801561415b573d6000803e3d6000fd5b505050506040513d601f19601f8201168201806040525081019061417f9190615373565b6141ad5780858461418f8161580a565b9550815181106141a1576141a16156e6565b60200260200101819052505b50806141b88161580a565b91505061404b565b50825250600083815260026020908152604080832080548251818502810185019093528083526060949383018282801561421957602002820191906000526020600020905b815481526020019060010190808311614205575b5050505050905080516001600160401b03811115614239576142396156d0565b60405190808252806020026020018201604052801561426c57816020015b60608152602001906001900390816142575790505b5091506000805b82518110156143e85760007f00000000000000000000000000000000000000000000000000000000000000006001600160a01b03166327ee9dc28584815181106142bf576142bf6156e6565b60200260200101516040518263ffffffff1660e01b81526004016142e591815260200190565b600060405180830381865afa158015614302573d6000803e3d6000fd5b505050506040513d6000823e601f3d908101601f1916820160405261432a91908101906156fc565b604051639d84366d60e01b815290915073__Array_________________________________90639d84366d906143669084908b906004016157e8565b602060405180830381865af4158015614383573d6000803e3d6000fd5b505050506040513d601f19601f820116820180604052508101906143a79190615373565b6143d5578085846143b78161580a565b9550815181106143c9576143c96156e6565b60200260200101819052505b50806143e08161580a565b915050614273565b508252506000848152600160205260409081902090516316061a7160e21b815260048101919091526024810186905273__Array_________________________________9063581869c490604401602060405180830381865af4158015614453573d6000803e3d6000fd5b505050506040513d601f19601f820116820180604052508101906144779190615373565b506000838152600260205260409081902090516316061a7160e21b815260048101919091526024810186905273__Array_________________________________9063581869c490604401602060405180830381865af41580156144df573d6000803e3d6000fd5b505050506040513d601f19601f820116820180604052508101906145039190615373565b5060005b8151811015614793576000828281518110614524576145246156e6565b602002602001015173__Array_________________________________639b861f039091876040518363ffffffff1660e01b81526004016145669291906157e8565b600060405180830381865af4158015614583573d6000803e3d6000fd5b505050506040513d6000823e601f3d908101601f191682016040526145ab91908101906156fc565b905060007f00000000000000000000000000000000000000000000000000000000000000006001600160a01b031663b3054383836040518263ffffffff1660e01b81526004016145fb9190615825565b6020604051808303816000875af115801561461a573d6000803e3d6000fd5b505050506040513d601f19601f8201168201806040525081019061463e91906154a8565b90506001600083600081518110614657576146576156e6565b6020026020010151815260200190815260200160002073__Array_________________________________63581869c49091836040518363ffffffff1660e01b81526004016146b0929190918252602082015260400190565b602060405180830381865af41580156146cd573d6000803e3d6000fd5b505050506040513d601f19601f820116820180604052508101906146f19190615373565b506000868152600260205260409081902090516316061a7160e21b815260048101919091526024810182905273__Array_________________________________9063581869c490604401602060405180830381865af4158015614759573d6000803e3d6000fd5b505050506040513d601f19601f8201168201806040525081019061477d9190615373565b505050808061478b9061580a565b915050614507565b5060005b8251811015614a355760008382815181106147b4576147b46156e6565b602002602001015173__Array_________________________________633b06e74f9091886040518363ffffffff1660e01b81526004016147f69291906157e8565b600060405180830381865af4158015614813573d6000803e3d6000fd5b505050506040513d6000823e601f3d908101601f1916820160405261483b91908101906156fc565b905060007f00000000000000000000000000000000000000000000000000000000000000006001600160a01b031663b3054383836040518263ffffffff1660e01b815260040161488b9190615825565b6020604051808303816000875af11580156148aa573d6000803e3d6000fd5b505050506040513d601f19601f820116820180604052508101906148ce91906154a8565b6000888152600160205260409081902090516316061a7160e21b815291925073__Array_________________________________9163581869c491614920918590600401918252602082015260400190565b602060405180830381865af415801561493d573d6000803e3d6000fd5b505050506040513d601f19601f820116820180604052508101906149619190615373565b5060026000836001855161497591906154ef565b81518110614985576149856156e6565b6020026020010151815260200190815260200160002073__Array_________________________________63581869c49091836040518363ffffffff1660e01b81526004016149de929190918252602082015260400190565b602060405180830381865af41580156149fb573d6000803e3d6000fd5b505050506040513d601f19601f82011682018060405250810190614a1f9190615373565b5050508080614a2d9061580a565b915050614797565b5060005b8151811015614e095760005b8351811015614df6576000848281518110614a6257614a626156e6565b602002602001015190506000848381518110614a8057614a806156e6565b6020026020010151905060005b8251811015614b47578173__Array_________________________________639d84366d9091858481518110614ac557614ac56156e6565b60200260200101516040518363ffffffff1660e01b8152600401614aea9291906157e8565b602060405180830381865af4158015614b07573d6000803e3d6000fd5b505050506040513d601f19601f82011682018060405250810190614b2b9190615373565b15614b3557614b47565b80614b3f8161580a565b915050614a8d565b8251811015614b5857505050614de4565b6040516302704ae960e31b815260009073__Array_________________________________90631382574890614b949087908790600401615869565b600060405180830381865af4158015614bb1573d6000803e3d6000fd5b505050506040513d6000823e601f3d908101601f19168201604052614bd991908101906156fc565b905060007f00000000000000000000000000000000000000000000000000000000000000006001600160a01b031663b3054383836040518263ffffffff1660e01b8152600401614c299190615825565b6020604051808303816000875af1158015614c48573d6000803e3d6000fd5b505050506040513d601f19601f82011682018060405250810190614c6c91906154a8565b90506001600083600081518110614c8557614c856156e6565b6020026020010151815260200190815260200160002073__Array_________________________________63581869c49091836040518363ffffffff1660e01b8152600401614cde929190918252602082015260400190565b602060405180830381865af4158015614cfb573d6000803e3d6000fd5b505050506040513d601f19601f82011682018060405250810190614d1f9190615373565b50600260008360018551614d3391906154ef565b81518110614d4357614d436156e6565b6020026020010151815260200190815260200160002073__Array_________________________________63581869c49091836040518363ffffffff1660e01b8152600401614d9c929190918252602082015260400190565b602060405180830381865af4158015614db9573d6000803e3d6000fd5b505050506040513d601f19601f82011682018060405250810190614ddd9190615373565b5050505050505b80614dee8161580a565b915050614a45565b5080614e018161580a565b915050614a39565b505050505050565b604051806101c0016040528060006001600160a01b03168152602001600080191681526020016000801916815260200160008152602001600081526020016000815260200160008152602001600081526020016000815260200160008152602001600081526020016000815260200160006005811115614e9357614e93614f88565b8152600060209091015290565b60008085851115614eb057600080fd5b83861115614ebd57600080fd5b5050820193919092039150565b600060208284031215614edc57600080fd5b81356001600160e01b03198116811461097a57600080fd5b6001600160a01b038116811461290e57600080fd5b600080600080600060a08688031215614f2157600080fd5b8535614f2c81614ef4565b97602087013597506040870135966060810135965060800135945092505050565b60008060408385031215614f6057600080fd5b50508035926020909101359150565b600060208284031215614f8157600080fd5b5035919050565b634e487b7160e01b600052602160045260246000fd5b60068110614fbc57634e487b7160e01b600052602160045260246000fd5b9052565b81516001600160a01b031681526101c081016020830151602083015260408301516040830152606083015160608301526080830151608083015260a083015160a083015260c083015160c083015260e083015160e08301526101008084015181840152506101208084015181840152506101408084015181840152506101608084015181840152506101808084015161505b82850182614f9e565b50506101a08381015160ff8116848301525b505092915050565b60006020828403121561508757600080fd5b813561097a81614ef4565b803560ff811681146150a357600080fd5b919050565b60008060008060008060c087890312156150c157600080fd5b86359550602087013594506040870135935060608701359250608087013591506150ed60a08801615092565b90509295509295509295565b60006020828403121561510b57600080fd5b813565ffffffffffff8116811461097a57600080fd5b6000806000806080858703121561513757600080fd5b5050823594602084013594506040840135936060013592509050565b600080600080600080600060e0888a03121561516e57600080fd5b873561517981614ef4565b96506020880135955060408801359450606088013593506080880135925060a088013591506151aa60c08901615092565b905092959891949750929550565b6000602082840312156151ca57600080fd5b81356001600160401b038116811461097a57600080fd5b600080600080600080600060e0888a0312156151fc57600080fd5b873561520781614ef4565b9650602088013561521781614ef4565b9550604088013561522781614ef4565b9450606088013593506080880135925060a088013591506151aa60c08901615092565b60008060008060008060008060006101208a8c03121561526957600080fd5b893561527481614ef4565b985060208a013561528481614ef4565b975060408a0135965060608a013561529b81614ef4565b955060808a0135945060a08a0135935060c08a0135925060e08a013591506152c66101008b01615092565b90509295985092959850929598565b600080600080600080600080610100898b0312156152f257600080fd5b88356152fd81614ef4565b975060208901359650604089013561531481614ef4565b9550606089013594506080890135935060a0890135925060c0890135915061533e60e08a01615092565b90509295985092959890939650565b60006020828403121561535f57600080fd5b813563ffffffff8116811461097a57600080fd5b60006020828403121561538557600080fd5b8151801515811461097a57600080fd5b6000602082840312156153a757600080fd5b815161097a81614ef4565b6000825160005b818110156153d357602081860181015185830152016153b9565b818111156153e2576000828501525b509190910192915050565b634e487b7160e01b600052601160045260246000fd5b60008261542057634e487b7160e01b600052601260045260246000fd5b500490565b600081600019048311821515161561543f5761543f6153ed565b500290565b634e487b7160e01b600052600160045260246000fd5b60208082526010908201526f10dbdb9d1c9858dd081cdd1bdc1c195960821b604082015260600190565b6000806040838503121561549757600080fd5b505080516020909101519092909150565b6000602082840312156154ba57600080fd5b5051919050565b6000806000606084860312156154d657600080fd5b8351925060208401519150604084015190509250925092565b600082821015615501576155016153ed565b500390565b60008219821115615519576155196153ed565b500190565b60006001600160401b038381169083168181101561553e5761553e6153ed565b039392505050565b60006001600160401b03808316818516808303821115615568576155686153ed565b01949350505050565b6020808252602b908201527f4d757374206265206163636f756e743d3d5f6d736753656e646572206f72204d60408201526a6f64652054657374696e6760a81b606082015260800190565b9384526001600160a01b03928316602085015291166040830152606082015260800190565b81518152602080830151610180830191615605908401826001600160a01b03169052565b5060408301516156186040840182614f9e565b50606083015161562d606084018260ff169052565b506080830151608083015260a083015161565260a08401826001600160401b03169052565b5060c083015161566d60c08401826001600160401b03169052565b5060e083015161568860e08401826001600160401b03169052565b50610100838101516001600160401b0390811691840191909152610120808501518216908401526101408085015182169084015261016080850151918216818501529061506d565b634e487b7160e01b600052604160045260246000fd5b634e487b7160e01b600052603260045260246000fd5b6000602080838503121561570f57600080fd5b82516001600160401b038082111561572657600080fd5b818501915085601f83011261573a57600080fd5b81518181111561574c5761574c6156d0565b8060051b604051601f19603f83011681018181108582111715615771576157716156d0565b60405291825284820192508381018501918883111561578f57600080fd5b938501935b828510156125ea57845184529385019392850192615794565b600081518084526020808501945080840160005b838110156157dd578151875295820195908201906001016157c1565b509495945050505050565b6040815260006157fb60408301856157ad565b90508260208301529392505050565b600060001982141561581e5761581e6153ed565b5060010190565b6020808252825182820181905260009190848201906040850190845b8181101561585d57835183529284019291840191600101615841565b50909695505050505050565b60408152600061587c60408301856157ad565b828103602084015261141581856157ad56fecd775f2396f9f13f12bcf8ca32e21df66559a8adc3944d0591127e7731f7ab85a2646970667358221220c8e7aa22b26502bfc4349f420c473c8849d73af0f4c820880d2890615e50291664736f6c634300080b0033","bytecodeSha1":"82698a3abea3bdcf7967bf43db18695974930594","type":"contract","abi":[{"inputs":[{"internalType":"contract Repository","name":"rep_","type":"address"}],"stateMutability":"nonpayable","type":"constructor","name":"constructor"},{"anonymous":false,"inputs":[{"indexed":true,"internalType":"address","name":"previousOwner","type":"address"},{"indexed":true,"internalType":"address","name":"newOwner","type":"address"}],"name":"OwnershipTransferred","type":"event"},{"anonymous":false,"inputs":[{"indexed":true,"internalType":"bytes32","name":"fromk_","type":"bytes32"},{"indexed":true,"internalType":"bytes32","name":"tok_","type":"bytes32"},{"indexed":false,"internalType":"address","name":"fromaccount_","type":"address"},{"indexed":false,"internalType":"address","name":"toaccount_","type":"address"},{"indexed":false,"internalType":"uint256","name":"quote_","type":"uint256"},{"indexed":false,"internalType":"uint256","name":"qty_","type":"uint256"}],"name":"Transaction","type":"event"},{"stateMutability":"nonpayable","type":"fallback"},{"inputs":[],"name":"STOP","outputs":[{"internalType":"bool","name":"","type":"bool"}],"stateMutability":"view","type":"function"},{"inputs":[],"name":"STOPFOREVER","outputs":[{"internalType":"bool","name":"","type":"bool"}],"stateMutability":"view","type":"function"},{"inputs":[{"internalType":"uint256","name":"val_","type":"uint256"}],"name":"UInt256ToUInt32","outputs":[{"internalType":"uint32","name":"","type":"uint32"}],"stateMutability":"pure","type":"function"},{"inputs":[{"internalType":"uint256","name":"val_","type":"uint256"}],"name":"UInt256ToUInt48","outputs":[{"internalType":"uint48","name":"","type":"uint48"}],"stateMutability":"pure","type":"function"},{"inputs":[{"internalType":"uint256","name":"val_","type":"uint256"}],"name":"UInt256ToUInt64","outputs":[{"internalType":"uint64","name":"","type":"uint64"}],"stateMutability":"pure","type":"function"},{"inputs":[{"internalType":"uint32","name":"val_","type":"uint32"}],"name":"UInt32ToUInt256","outputs":[{"internalType":"uint256","name":"","type":"uint256"}],"stateMutability":"pure","type":"function"},{"inputs":[{"internalType":"uint48","name":"val_","type":"uint48"}],"name":"UInt48ToUInt256","outputs":[{"internalType":"uint256","name":"","type":"uint256"}],"stateMutability":"pure","type":"function"},{"inputs":[{"internalType":"uint64","name":"val_","type":"uint64"}],"name":"UInt64ToUInt256","outputs":[{"internalType":"uint256","name":"","type":"uint256"}],"stateMutability":"pure","type":"function"},{"inputs":[{"internalType":"bytes32","name":"_from","type":"bytes32"},{"internalType":"bytes32","name":"fromto_","type":"bytes32"}],"name":"_existPath","outputs":[{"internalType":"bool","name":"","type":"bool"}],"stateMutability":"view","type":"function"},{"inputs":[],"name":"checkOperators","outputs":[],"stateMutability":"view","type":"function"},{"inputs":[{"internalType":"uint256","name":"order_","type":"uint256"}],"name":"d_orderCancel","outputs":[],"stateMutability":"nonpayable","type":"function"},{"inputs":[{"internalType":"address","name":"account_","type":"address"},{"internalType":"uint256","name":"orderid_","type":"uint256"},{"internalType":"uint256","name":"qty_","type":"uint256"},{"internalType":"uint256","name":"quote_","type":"uint256"},{"internalType":"uint256","name":"pctslippage_","type":"uint256"}],"name":"d_orderFulfillEx","outputs":[{"internalType":"uint256","name":"qtydone_","type":"uint256"}],"stateMutability":"nonpayable","type":"function"},{"inputs":[{"internalType":"address","name":"account_","type":"address"},{"internalType":"bytes32","name":"from_","type":"bytes32"},{"internalType":"bytes32","name":"to_","type":"bytes32"},{"internalType":"uint256","name":"granularity_","type":"uint256"},{"internalType":"uint256","name":"qty_","type":"uint256"},{"internalType":"uint256","name":"quote_","type":"uint256"},{"internalType":"uint8","name":"options_","type":"uint8"}],"name":"d_orderPlace","outputs":[{"internalType":"uint256","name":"orderid_","type":"uint256"}],"stateMutability":"nonpayable","type":"function"},{"inputs":[],"name":"id","outputs":[{"internalType":"bytes32","name":"","type":"bytes32"}],"stateMutability":"view","type":"function"},{"inputs":[{"internalType":"address","name":"caller_","type":"address"}],"name":"isOwner","outputs":[{"internalType":"bool","name":"","type":"bool"}],"stateMutability":"view","type":"function"},{"inputs":[{"internalType":"uint256","name":"order_","type":"uint256"}],"name":"order","outputs":[{"components":[{"internalType":"address","name":"account","type":"address"},{"internalType":"bytes32","name":"from","type":"bytes32"},{"internalType":"bytes32","name":"to","type":"bytes32"},{"internalType":"uint256","name":"orderid","type":"uint256"},{"internalType":"uint256","name":"qty","type":"uint256"},{"internalType":"uint256","name":"granularity","type":"uint256"},{"internalType":"uint256","name":"qtydone","type":"uint256"},{"internalType":"uint256","name":"originalqty","type":"uint256"},{"internalType":"uint256","name":"quote","type":"uint256"},{"internalType":"uint256","name":"originalquote","type":"uint256"},{"internalType":"uint256","name":"originalbasedquote","type":"uint256"},{"internalType":"uint256","name":"expire","type":"uint256"},{"internalType":"enum Order.State","name":"state","type":"uint8"},{"internalType":"uint8","name":"options","type":"uint8"}],"internalType":"struct Order.InfoPublic","name":"","type":"tuple"}],"stateMutability":"view","type":"function"},{"inputs":[{"internalType":"uint256","name":"orderid_","type":"uint256"}],"name":"orderCancel","outputs":[],"stateMutability":"nonpayable","type":"function"},{"inputs":[{"internalType":"uint256","name":"orderid_","type":"uint256"},{"internalType":"uint256","name":"qty_","type":"uint256"},{"internalType":"uint256","name":"quote_","type":"uint256"},{"internalType":"uint256","name":"pctslippage_","type":"uint256"}],"name":"orderFulfill","outputs":[{"internalType":"uint256","name":"qtydone_","type":"uint256"}],"stateMutability":"nonpayable","type":"function"},{"inputs":[{"internalType":"address","name":"account_","type":"address"},{"internalType":"uint256","name":"orderid_","type":"uint256"},{"internalType":"uint256","name":"qty_","type":"uint256"},{"internalType":"uint256","name":"quote_","type":"uint256"},{"internalType":"uint256","name":"pctslippage_","type":"uint256"}],"name":"orderFulfillEx","outputs":[{"internalType":"uint256","name":"qtydone_","type":"uint256"}],"stateMutability":"nonpayable","type":"function"},{"inputs":[{"internalType":"bytes32","name":"from_","type":"bytes32"},{"internalType":"bytes32","name":"to_","type":"bytes32"},{"internalType":"uint256","name":"granularity_","type":"uint256"},{"internalType":"uint256","name":"qty_","type":"uint256"},{"internalType":"uint256","name":"quote_","type":"uint256"},{"internalType":"uint8","name":"options_","type":"uint8"}],"name":"orderPlace","outputs":[{"internalType":"uint256","name":"orderid_","type":"uint256"}],"stateMutability":"nonpayable","type":"function"},{"inputs":[{"internalType":"address","name":"account_","type":"address"},{"internalType":"bytes32","name":"from_","type":"bytes32"},{"internalType":"bytes32","name":"to_","type":"bytes32"},{"internalType":"uint256","name":"granularity_","type":"uint256"},{"internalType":"uint256","name":"qty_","type":"uint256"},{"internalType":"uint256","name":"quote_","type":"uint256"},{"internalType":"uint8","name":"options_","type":"uint8"}],"name":"orderPlace","outputs":[{"internalType":"uint256","name":"orderid_","type":"uint256"}],"stateMutability":"nonpayable","type":"function"},{"inputs":[{"internalType":"address","name":"account_","type":"address"},{"internalType":"address","name":"from_","type":"address"},{"internalType":"uint256","name":"fromid_","type":"uint256"},{"internalType":"address","name":"to_","type":"address"},{"internalType":"uint256","name":"toid_","type":"uint256"},{"internalType":"uint256","name":"granularity_","type":"uint256"},{"internalType":"uint256","name":"qty_","type":"uint256"},{"internalType":"uint256","name":"quote_","type":"uint256"},{"internalType":"uint8","name":"options_","type":"uint8"}],"name":"orderPlace","outputs":[{"internalType":"uint256","name":"orderid_","type":"uint256"}],"stateMutability":"nonpayable","type":"function"},{"inputs":[{"internalType":"address","name":"account_","type":"address"},{"internalType":"address","name":"from_","type":"address"},{"internalType":"address","name":"to_","type":"address"},{"internalType":"uint256","name":"granularity_","type":"uint256"},{"internalType":"uint256","name":"qty_","type":"uint256"},{"internalType":"uint256","name":"quote_","type":"uint256"},{"internalType":"uint8","name":"options_","type":"uint8"}],"name":"orderPlaceEx","outputs":[{"internalType":"uint256","name":"orderid_","type":"uint256"}],"stateMutability":"nonpayable","type":"function"},{"inputs":[{"internalType":"address","name":"from_","type":"address"},{"internalType":"uint256","name":"fromid_","type":"uint256"},{"internalType":"address","name":"to_","type":"address"},{"internalType":"uint256","name":"toid_","type":"uint256"},{"internalType":"uint256","name":"granularity_","type":"uint256"},{"internalType":"uint256","name":"qty_","type":"uint256"},{"internalType":"uint256","name":"quote_","type":"uint256"},{"internalType":"uint8","name":"options_","type":"uint8"}],"name":"orderPlaceEx","outputs":[{"internalType":"uint256","name":"orderid_","type":"uint256"}],"stateMutability":"nonpayable","type":"function"},{"inputs":[],"name":"owner","outputs":[{"internalType":"address","name":"","type":"address"}],"stateMutability":"view","type":"function"},{"inputs":[],"name":"renounceOwnership","outputs":[],"stateMutability":"nonpayable","type":"function"},{"inputs":[],"name":"rep","outputs":[{"internalType":"contract Repository","name":"","type":"address"}],"stateMutability":"view","type":"function"},{"inputs":[],"name":"setSTOP","outputs":[],"stateMutability":"nonpayable","type":"function"},{"inputs":[],"name":"setSTOPFOREVER","outputs":[],"stateMutability":"nonpayable","type":"function"},{"inputs":[{"internalType":"bytes4","name":"interfaceId","type":"bytes4"}],"name":"supportsInterface","outputs":[{"internalType":"bool","name":"","type":"bool"}],"stateMutability":"view","type":"function"},{"inputs":[{"internalType":"address","name":"newOwner","type":"address"}],"name":"transferOwnership","outputs":[],"stateMutability":"nonpayable","type":"function"},{"inputs":[],"name":"unsetSTOP","outputs":[],"stateMutability":"nonpayable","type":"function"}],"compiler":{"version":"0.8.11+commit.d7f03943","evm_version":"istanbul","optimizer":{"enabled":true,"runs":200}},"contractName":"MarketOrder","deployedBytecode":"608060405234801561001057600080fd5b50600436106101f05760003560e01c8063979620761161010f578063c34fa842116100a2578063e4b1614411610071578063e4b16144146104e2578063ede8cdfe146104f5578063f2fde38b14610508578063feab44541461051b576101f0565b8063c34fa8421461048d578063ccc07959146104a0578063d6935858146104c7578063e2d7e08e146104cf576101f0565b8063af640d0f116100de578063af640d0f1461042e578063b03fd40d14610454578063b23a43fc14610467578063b791f8a01461047a576101f0565b806397962076146103e55780639bc896f9146103f5578063a5ef794a14610408578063a6610f021461041b576101f0565b80635f5c5baa116101875780637a70482c116101565780637a70482c1461038c5780637af6649a1461039f578063854ba99d146103b25780638da5cb5b146103ba576101f0565b80635f5c5baa146103495780636296514114610351578063715018a61461037c57806372ea61bf14610384576101f0565b806321603f43116101c357806321603f43146102db5780632203616d146102fb5780632f54bf6e146103235780635c42b71014610336576101f0565b806301ffc9a71461027557806305d6bd9c1461029d5780630af077bf146102a75780631ef4590d146102c8575b6101f8610545565b6000610208602460043684614ea0565b8080601f016020809104026020016040519081016040528093929190818152602001838380828437600092018290525060208501519495509250503660231981019150601f19016004838037816024600437600080826000875af4925050506102708161070f565b505050005b610288610283366004614eca565b610729565b60405190151581526020015b60405180910390f35b6102a5610760565b005b6102ba6102b5366004614f09565b610777565b604051908152602001610294565b6102886102d6366004614f4d565b6108f0565b6102ee6102e9366004614f6f565b610981565b6040516102949190614fc0565b61030e610309366004614f6f565b610994565b60405163ffffffff9091168152602001610294565b610288610331366004615075565b6109a5565b6102ba6103443660046150a8565b6109d2565b6102a56109ee565b61036461035f366004614f6f565b610b03565b6040516001600160401b039091168152602001610294565b6102a5610b35565b6102a5610b47565b6102ba61039a366004614f09565b610b61565b6102ba6103ad3660046150f9565b61127f565b610288611298565b6000546201000090046001600160a01b03165b6040516001600160a01b039091168152602001610294565b600054610100900460ff16610288565b6102a5610403366004614f6f565b6112b6565b6102ba610416366004615121565b611406565b6102ba610429366004615153565b61141e565b7fc79a5c5e1c7f6fab1e75ab0e20e9522aa9eb363a0c70072c6dcb8a20f4a46ae46102ba565b6102ba6104623660046151b8565b612305565b6102ba610475366004615153565b61231f565b6102ba6104883660046151e1565b6124af565b6102ba61049b36600461524a565b6125f6565b6103cd7f000000000000000000000000000000000000000000000000000000000000000081565b6102a56126f8565b6102ba6104dd3660046152d5565b612714565b6102ba6104f036600461534d565b61277c565b6102a5610503366004614f6f565b612793565b6102a5610516366004615075565b612898565b61052e610529366004614f6f565b612911565b60405165ffffffffffff9091168152602001610294565b6000546001600160a01b0362010000909104163314806105f857506001600160a01b037f0000000000000000000000000000000000000000000000000000000000000000166316279055336040516001600160e01b031960e084901b1681526001600160a01b039091166004820152602401602060405180830381865afa1580156105d4573d6000803e3d6000fd5b505050506040513d601f19601f820116820180604052508101906105f89190615373565b8061069657506001600160a01b037f000000000000000000000000000000000000000000000000000000000000000016636d70f7ae336040516001600160e01b031960e084901b1681526001600160a01b039091166004820152602401602060405180830381865afa158015610672573d6000803e3d6000fd5b505050506040513d601f19601f820116820180604052508101906106969190615373565b61070d5760405162461bcd60e51b815260206004820152603960248201527f416c6c6f77616e63653a2063616c6c6572206d757374206265205265706f736960448201527f746f727920436f6e7472616374206f72204f70657261746f720000000000000060648201526084015b60405180910390fd5b565b3d6000803e808015610720573d6000f35b3d6000fd5b5050565b60006001600160e01b031982166301ffc9a760e01b148061075a57506001600160e01b031982166315d3789560e31b145b92915050565b610768610545565b61070d6000805460ff19169055565b60405163023aa9ab60e61b81527f2e7a327ef83c2af7579c6634f2f5604519800c5f07626f27bd602fd11ed8e6ec600482015260009081906001600160a01b037f00000000000000000000000000000000000000000000000000000000000000001690638eaa6ac090602401602060405180830381865afa158015610800573d6000803e3d6000fd5b505050506040513d601f19601f820116820180604052508101906108249190615395565b604080513060248201526001600160a01b038a81166044830152606482018a90526084820189905260a4820188905260c48083018890528351808403909101815260e490920183526020820180516001600160e01b03166301de754d60e61b1790529151929091169161089791906153b2565b6000604051808303816000865af19150503d80600081146108d4576040519150601f19603f3d011682016040523d82523d6000602084013e6108d9565b606091505b505090506108e68161070f565b5095945050505050565b6000828152600160205260408082209051632be5db2360e11b815260048101919091526024810183905273__$f71e59c5327218924d154e230469c101bd$__906357cbb64690604401602060405180830381865af4158015610956573d6000803e3d6000fd5b505050506040513d601f19601f8201168201806040525081019061097a9190615373565b9392505050565b610989614e11565b61075a826000612922565b600061075a64e8d4a5100083615403565b600080546001600160a01b03838116620100009092041614156109ca57506001919050565b506000919050565b60006109e33388888888888861231f565b979650505050505050565b6000546001600160a01b036201000090910416331480610aa157506001600160a01b037f000000000000000000000000000000000000000000000000000000000000000016636d70f7ae336040516001600160e01b031960e084901b1681526001600160a01b039091166004820152602401602060405180830381865afa158015610a7d573d6000803e3d6000fd5b505050506040513d601f19601f82011682018060405250810190610aa19190615373565b61070d5760405162461bcd60e51b815260206004820152602d60248201527f416c6c6f77616e63653a2063616c6c6572206d757374206265205265706f736960448201526c3a37b93c9027b832b930ba37b960991b6064820152608401610704565b600080610b156402540be40084615403565b905082610b27826402540be400615425565b111561075a5761075a615444565b610b3d613074565b61070d60006130d5565b610b4f610545565b61070d6000805460ff19166001179055565b6000610b6b611298565b15610b885760405162461bcd60e51b81526004016107049061545a565b7f00000000000000000000000000000000000000000000000000000000000000006001600160a01b0316634635229b6040518163ffffffff1660e01b8152600401602060405180830381865afa158015610be6573d6000803e3d6000fd5b505050506040513d601f19601f82011682018060405250810190610c0a9190615373565b80610c1d57506001600160a01b03861633145b610c7f5760405162461bcd60e51b815260206004820152602d60248201527f4d757374206265206163636f756e743d3d5f6d736753656e6465722829206f7260448201526c204d6f64652054657374696e6760981b6064820152608401610704565b6000858152600560205260408082208054915163657c7e0960e01b81526004810192909252919081907f00000000000000000000000000000000000000000000000000000000000000006001600160a01b03169063657c7e09906024016040805180830381865afa158015610cf8573d6000803e3d6000fd5b505050506040513d601f19601f82011682018060405250810190610d1c9190615484565b60405163023aa9ab60e61b815260008051602061588f833981519152600482015291935091507f00000000000000000000000000000000000000000000000000000000000000006001600160a01b031690638eaa6ac090602401602060405180830381865afa158015610d93573d6000803e3d6000fd5b505050506040513d601f19601f82011682018060405250810190610db79190615395565b604051634e68f20f60e11b8152600481018390526001600160a01b038b811660248301529190911690639cd1e41e90604401602060405180830381865afa158015610e06573d6000803e3d6000fd5b505050506040513d601f19601f82011682018060405250810190610e2a91906154a8565b670de0b6b3a7640000610e3d888a615425565b610e479190615403565b1115610e955760405162461bcd60e51b815260206004820152601a60248201527f42616e6b3a204e6f7420656e6f75676820617661696c61626c650000000000006044820152606401610704565b6001830154604051635b7d0f6960e11b8152600160a81b90910460ff16600482015260009073__$f7122df39a5f3bad28f404771cd5173291$__9063b6fa1ed290602401602060405180830381865af4158015610ef6573d6000803e3d6000fd5b505050506040513d601f19601f82011682018060405250810190610f1a9190615373565b156110455760405163023aa9ab60e61b81527f3cb99135f7a7c088d9085b446345038a22a85f4e8fe072b0e1b66d97243e745860048201527f00000000000000000000000000000000000000000000000000000000000000006001600160a01b031690638eaa6ac090602401602060405180830381865afa158015610fa3573d6000803e3d6000fd5b505050506040513d601f19601f82011682018060405250810190610fc79190615395565b6040516332f3077960e11b815260048101859052602481018490526001600160a01b0391909116906365e60ef2906044016060604051808303816000875af1158015611017573d6000803e3d6000fd5b505050506040513d601f19601f8201168201806040525081019061103b91906154c1565b5091506110669050565b600384015461106390600160c01b90046001600160401b0316612305565b90505b670de0b6b3a764000061107987826154ef565b6110839089615425565b61108d9190615403565b81111580156110c25750670de0b6b3a76400006110aa8782615506565b6110b49089615425565b6110be9190615403565b8110155b61110e5760405162461bcd60e51b815260206004820152601c60248201527f51756f746520536c6970706564206f76657220746f6c6572616e6365000000006044820152606401610704565b60008161111b898b615425565b6111259190615403565b600386015490915060009061115090610462906001600160401b03600160401b82048116911661551e565b90508181101561115e578091505b61116b868d60008d613130565b6111748a610b03565b600387018054600890611198908490600160401b90046001600160401b0316615546565b82546101009290920a6001600160401b038181021990931691831602179091556003880154600160801b81048216600160401b909104909116141590506111e4576111e48660036138ca565b6001860154604080516001600160a01b039283168152918e166020830152810184905260608101839052849086907f49da6c773c11f8e65fd2ffb9512fa3f24dc8759fbcedb687f0b59694adc1d3439060800160405180910390a360036001870154600160a01b900460ff16600581111561126157611261614f88565b1161126f5761126f86613dbc565b50979a9950505050505050505050565b600061075a65ffffffffffff831664174876e800615425565b6000805460ff16806112b15750600054610100900460ff165b905090565b60405163023aa9ab60e61b81527f2e7a327ef83c2af7579c6634f2f5604519800c5f07626f27bd602fd11ed8e6ec60048201526000907f00000000000000000000000000000000000000000000000000000000000000006001600160a01b031690638eaa6ac090602401602060405180830381865afa15801561133d573d6000803e3d6000fd5b505050506040513d601f19601f820116820180604052508101906113619190615395565b60408051306024820152604480820186905282518083039091018152606490910182526020810180516001600160e01b03166376f466ff60e11b17905290516001600160a01b0392909216916113b791906153b2565b6000604051808303816000865af19150503d80600081146113f4576040519150601f19603f3d011682016040523d82523d6000602084013e6113f9565b606091505b505090506107258161070f565b60006114153386868686610777565b95945050505050565b6000611428611298565b156114455760405162461bcd60e51b81526004016107049061545a565b7f00000000000000000000000000000000000000000000000000000000000000006001600160a01b0316634635229b6040518163ffffffff1660e01b8152600401602060405180830381865afa1580156114a3573d6000803e3d6000fd5b505050506040513d601f19601f820116820180604052508101906114c79190615373565b806114da57506001600160a01b03881633145b6114f65760405162461bcd60e51b815260040161070490615571565b60405163c5537eb760e01b81526004810188905261080060248201527f00000000000000000000000000000000000000000000000000000000000000006001600160a01b03169063c5537eb790604401602060405180830381865afa158015611563573d6000803e3d6000fd5b505050506040513d601f19601f820116820180604052508101906115879190615373565b156117a457604051630c25e48360e11b8152600481018890526000907f00000000000000000000000000000000000000000000000000000000000000006001600160a01b03169063184bc90690602401602060405180830381865afa1580156115f4573d6000803e3d6000fd5b505050506040513d601f19601f820116820180604052508101906116189190615395565b9050806001600160a01b031663f5ac9db66040518163ffffffff1660e01b8152600401602060405180830381865afa158015611658573d6000803e3d6000fd5b505050506040513d601f19601f8201168201806040525081019061167c9190615373565b6116bd5760405162461bcd60e51b815260206004820152601260248201527146726f6d206e6f7420747261646561626c6560701b6044820152606401610704565b806001600160a01b0316630e4994276040518163ffffffff1660e01b8152600401602060405180830381865afa1580156116fb573d6000803e3d6000fd5b505050506040513d601f19601f8201168201806040525081019061171f9190615373565b801561174b57507fad3228b676f7d3cd4284a5443f17f1962b36e491b30a40b2405849e597ba5fb58714155b6117a25760405162461bcd60e51b815260206004820152602260248201527f46726f6d206973206f6e6c7920747261646561626c6520746f2043757272656e604482015261637960f01b6064820152608401610704565b505b60405163d47a7edd60e01b8152600481018890527f00000000000000000000000000000000000000000000000000000000000000006001600160a01b03169063d47a7edd90602401602060405180830381865afa158015611809573d6000803e3d6000fd5b505050506040513d601f19601f8201168201806040525081019061182d9190615373565b1580611840575083670de0b6b3a7640000145b8061184a57508385145b6118aa5760405162461bcd60e51b815260206004820152602b60248201527f2746726f6d27206973204e46542071747920616e64206772616e756c6172697460448201526a79206d757374206265203160a81b6064820152608401610704565b60405163023aa9ab60e61b815260008051602061588f83398151915260048201527f00000000000000000000000000000000000000000000000000000000000000006001600160a01b031690638eaa6ac090602401602060405180830381865afa15801561191c573d6000803e3d6000fd5b505050506040513d601f19601f820116820180604052508101906119409190615395565b604051634e68f20f60e11b8152600481018990526001600160a01b038a811660248301529190911690639cd1e41e90604401602060405180830381865afa15801561198f573d6000803e3d6000fd5b505050506040513d601f19601f820116820180604052508101906119b391906154a8565b841115611a025760405162461bcd60e51b815260206004820152601a60248201527f42616e6b3a204e6f7420656e6f75676820617661696c61626c650000000000006044820152606401610704565b6040805161018081018252600080825260208201819052918101829052606081018290526080810182905260a0810182905260c0810182905260e081018290526101008101829052610120810182905261014081018290526101608101919091526001600160a01b0389811660208301526040516361e99ffb60e01b8152600481018a9052602481018990527f0000000000000000000000000000000000000000000000000000000000000000909116906361e99ffb906044016020604051808303816000875af1158015611adb573d6000803e3d6000fd5b505050506040513d601f19601f82011682018060405250810190611aff91906154a8565b8152611b0a86610b03565b6001600160401b0316610120820152611b2285610b03565b6001600160401b031660a0820152611b3984610b03565b6001600160401b03166101008201526060810151604051635b7d0f6960e11b815260ff909116600482015273__$f7122df39a5f3bad28f404771cd5173291$__9063b6fa1ed290602401602060405180830381865af4158015611ba0573d6000803e3d6000fd5b505050506040513d601f19601f82011682018060405250810190611bc49190615373565b15611d495760405163023aa9ab60e61b81527f3cb99135f7a7c088d9085b446345038a22a85f4e8fe072b0e1b66d97243e745860048201526000907f00000000000000000000000000000000000000000000000000000000000000006001600160a01b031690638eaa6ac090602401602060405180830381865afa158015611c50573d6000803e3d6000fd5b505050506040513d601f19601f82011682018060405250810190611c749190615395565b6040516332f3077960e11b8152600481018b9052602481018a90526001600160a01b0391909116906365e60ef2906044016060604051808303816000875af1158015611cc4573d6000803e3d6000fd5b505050506040513d601f19601f82011682018060405250810190611ce891906154c1565b509150611cf6905081610b03565b6001600160401b03166101608301819052611d475760405162461bcd60e51b8152602060048201526011602482015270145d5bdd194e88139bdd081c5d5bdd1959607a1b6044820152606401610704565b505b606081015160405163f0340a3760e01b815260ff909116600482015273__$f7122df39a5f3bad28f404771cd5173291$__9063f0340a3790602401602060405180830381865af4158015611da1573d6000803e3d6000fd5b505050506040513d601f19601f82011682018060405250810190611dc59190615373565b15611ec85760405163023aa9ab60e61b815260008051602061588f83398151915260048201527f00000000000000000000000000000000000000000000000000000000000000006001600160a01b031690638eaa6ac090602401602060405180830381865afa158015611e3c573d6000803e3d6000fd5b505050506040513d601f19601f82011682018060405250810190611e609190615395565b6001600160a01b03166356a1fd3a88836020015130896040518563ffffffff1660e01b8152600401611e9594939291906155bc565b600060405180830381600087803b158015611eaf57600080fd5b505af1158015611ec3573d6000803e3d6000fd5b505050505b6003805460010190555b600354158015611ef5575060035460009081526005602052604090206002015415155b15611f0857600380546001019055611ed2565b6003546080820181905260a08201516001600160401b0390811660e08401526004604080850191825260ff871660608601526101008501519092166101408501526000928352600560208181529290932084518155918401516001830180546001600160a01b039092166001600160a01b031983168117825592518695909391926001600160a81b03191690911790600160a01b908490811115611fae57611fae614f88565b0217905550606082015160018201805460ff60a81b1916600160a81b60ff90931692909202919091179055608080830151600283015560a083015160038301805460c086015160e08701516101008801516001600160401b039586166fffffffffffffffffffffffffffffffff1994851617600160401b9387168402176fffffffffffffffffffffffffffffffff16600160801b92871683026001600160c01b031617600160c01b9187169190910217909355610120870151600496870180546101408a0151610160909a015167ffffffffffffffff60801b199388169190951617988616909202979097179690961692160217909255908201516040516304132f1d60e31b815280830192909252602482015273__$f71e59c5327218924d154e230469c101bd$__9063209978e890604401602060405180830381865af41580156120fe573d6000803e3d6000fd5b505050506040513d601f19601f820116820180604052508101906121229190615373565b50805160009081526006602052604090819020608083015191516304132f1d60e31b815273__$f71e59c5327218924d154e230469c101bd$__9263209978e89261217a92909190600401918252602082015260400190565b602060405180830381865af4158015612197573d6000803e3d6000fd5b505050506040513d601f19601f820116820180604052508101906121bb9190615373565b5060008881526007602052604090819020608083015191516304132f1d60e31b815273__$f71e59c5327218924d154e230469c101bd$__9263209978e89261221192909190600401918252602082015260400190565b602060405180830381865af415801561222e573d6000803e3d6000fd5b505050506040513d601f19601f820116820180604052508101906122529190615373565b5060008781526008602052604090819020608083015191516304132f1d60e31b815273__$f71e59c5327218924d154e230469c101bd$__9263209978e8926122a892909190600401918252602082015260400190565b602060405180830381865af41580156122c5573d6000803e3d6000fd5b505050506040513d601f19601f820116820180604052508101906122e99190615373565b5080516122f590613e67565b5050600354979650505050505050565b600061075a6001600160401b0383166402540be400615425565b60405163023aa9ab60e61b81527f2e7a327ef83c2af7579c6634f2f5604519800c5f07626f27bd602fd11ed8e6ec600482015260009081906001600160a01b037f00000000000000000000000000000000000000000000000000000000000000001690638eaa6ac090602401602060405180830381865afa1580156123a8573d6000803e3d6000fd5b505050506040513d601f19601f820116820180604052508101906123cc9190615395565b604080513060248201526001600160a01b038c81166044830152606482018c9052608482018b905260a482018a905260c4820189905260e4820188905260ff8716610104808401919091528351808403909101815261012490920183526020820180516001600160e01b0316635330878160e11b1790529151929091169161245491906153b2565b6000604051808303816000865af19150503d8060008114612491576040519150601f19603f3d011682016040523d82523d6000602084013e612496565b606091505b505090506124a38161070f565b50979650505050505050565b60405163509ff69b60e01b81526001600160a01b038781166004830152600060248301819052916125ea918a917f00000000000000000000000000000000000000000000000000000000000000009091169063509ff69b906044016020604051808303816000875af1158015612529573d6000803e3d6000fd5b505050506040513d601f19601f8201168201806040525081019061254d91906154a8565b60405163509ff69b60e01b81526001600160a01b038a81166004830152600060248301527f0000000000000000000000000000000000000000000000000000000000000000169063509ff69b906044015b6020604051808303816000875af11580156125bd573d6000803e3d6000fd5b505050506040513d601f19601f820116820180604052508101906125e191906154a8565b8888888861231f565b98975050505050505050565b60405163509ff69b60e01b81526001600160a01b038981166004830152602482018990526000916126ea918c917f00000000000000000000000000000000000000000000000000000000000000009091169063509ff69b906044015b6020604051808303816000875af1158015612671573d6000803e3d6000fd5b505050506040513d601f19601f8201168201806040525081019061269591906154a8565b60405163509ff69b60e01b81526001600160a01b038b81166004830152602482018b90527f0000000000000000000000000000000000000000000000000000000000000000169063509ff69b9060440161259e565b9a9950505050505050505050565b612700613074565b61070d6000805461ff001916610100179055565b600061276f3360405163509ff69b60e01b81526001600160a01b038c81166004830152602482018c90527f0000000000000000000000000000000000000000000000000000000000000000169063509ff69b90604401612652565b9998505050505050505050565b600061075a63ffffffff831664e8d4a51000615425565b61279b611298565b156127b85760405162461bcd60e51b81526004016107049061545a565b60006005600083815260200190815260200160002090507f00000000000000000000000000000000000000000000000000000000000000006001600160a01b0316634635229b6040518163ffffffff1660e01b8152600401602060405180830381865afa15801561282d573d6000803e3d6000fd5b505050506040513d601f19601f820116820180604052508101906128519190615373565b80612868575060018101546001600160a01b031633145b6128845760405162461bcd60e51b815260040161070490615571565b61288f8160016138ca565b61072581613dbc565b6128a0613074565b6001600160a01b0381166129055760405162461bcd60e51b815260206004820152602660248201527f4f776e61626c653a206e6577206f776e657220697320746865207a65726f206160448201526564647265737360d01b6064820152608401610704565b61290e816130d5565b50565b600061075a64174876e80083615403565b61292a614e11565b60008381526005602081815260408084208151610180810183528154815260018201546001600160a01b0381169482019490945293909291840191600160a01b900460ff169081111561297f5761297f614f88565b600581111561299057612990614f88565b81526001820154600160a81b900460ff166020820152600282015460408083019190915260038301546001600160401b038082166060850152600160401b80830482166080860152600160801b808404831660a0870152600160c01b909304821660c086015260049586015480831660e087015290810482166101008601529190910416610120909201919091528251905163657c7e0960e01b8152918201529091507f00000000000000000000000000000000000000000000000000000000000000006001600160a01b03169063657c7e09906024016040805180830381865afa158015612a83573d6000803e3d6000fd5b505050506040513d601f19601f82011682018060405250810190612aa79190615484565b60408401526020830152608081015160608301528280612b40575060608101516040516336181b6760e11b815260ff909116600482015273__$f7122df39a5f3bad28f404771cd5173291$__90636c3036ce90602401602060405180830381865af4158015612b1a573d6000803e3d6000fd5b505050506040513d601f19601f82011682018060405250810190612b3e9190615373565b155b15612fb15760208101516001600160a01b0316825260a0810151612b6390612305565b60808301526060810151604051632b2076e360e11b815260ff909116600482015273__$f7122df39a5f3bad28f404771cd5173291$__90635640edc690602401602060405180830381865af4158015612bc0573d6000803e3d6000fd5b505050506040513d601f19601f82011682018060405250810190612be49190615373565b15612bf857608082015160a0830152612d32565b6101208101516001600160401b031615612c2457612c1a816101200151612305565b60a0830152612d32565b60405163023aa9ab60e61b815260008051602061588f83398151915260048201527f00000000000000000000000000000000000000000000000000000000000000006001600160a01b031690638eaa6ac090602401602060405180830381865afa158015612c96573d6000803e3d6000fd5b505050506040513d601f19601f82011682018060405250810190612cba9190615395565b6001600160a01b031663a9bf985883602001516040518263ffffffff1660e01b8152600401612ceb91815260200190565b602060405180830381865afa158015612d08573d6000803e3d6000fd5b505050506040513d601f19601f82011682018060405250810190612d2c91906154a8565b60a08301525b612d3f8160c00151612305565b60c083015260e0810151612d5290612305565b60e08301526060810151604051635b7d0f6960e11b815260ff909116600482015273__$f7122df39a5f3bad28f404771cd5173291$__9063b6fa1ed290602401602060405180830381865af4158015612daf573d6000803e3d6000fd5b505050506040513d601f19601f82011682018060405250810190612dd39190615373565b15612f9c57612de6816101400151612305565b610120830152610160810151612dfb90612305565b61014083015260405163023aa9ab60e61b81527f3cb99135f7a7c088d9085b446345038a22a85f4e8fe072b0e1b66d97243e745860048201526000907f00000000000000000000000000000000000000000000000000000000000000006001600160a01b031690638eaa6ac090602401602060405180830381865afa158015612e88573d6000803e3d6000fd5b505050506040513d601f19601f82011682018060405250810190612eac9190615395565b6001600160a01b0316636464b68a846020015185604001516040518363ffffffff1660e01b8152600401612eea929190918252602082015260400190565b606060405180830381865afa158015612f07573d6000803e3d6000fd5b505050506040513d601f19601f82011682018060405250810190612f2b91906154c1565b5091505080612f705760405162461bcd60e51b8152602060048201526011602482015270145d5bdd194e88139bdd081c5d5bdd1959607a1b6044820152606401610704565b610140830151612f809082615403565b836101200151612f909190615425565b61010084015250612fb1565b612faa816101000151612305565b6101008301525b604051630212d6cb60e21b815273__$f7122df39a5f3bad28f404771cd5173291$__9063084b5b2c90612fe89084906004016155e1565b602060405180830381865af4158015613005573d6000803e3d6000fd5b505050506040513d601f19601f8201168201806040525081019061302991906154a8565b6101608301526040810151610180830190600581111561304b5761304b614f88565b9081600581111561305e5761305e614f88565b9052506060015160ff166101a082015292915050565b6000546001600160a01b036201000090910416331461070d5760405162461bcd60e51b815260206004820152601f60248201527f416c6c6f77616e63653a2063616c6c6572206d757374206265204f776e6572006044820152606401610704565b600080546001600160a01b038381166201000081810262010000600160b01b0319851617855560405193049190911692909183917f8be0079c531659141344cd1fd0a4f28419497f9722a3daafe3b4186f6b6457e091a35050565b60008080600080670de0b6b3a76400006131608a60030160189054906101000a90046001600160401b0316612305565b61316a9088615425565b6131749190615403565b895460405163657c7e0960e01b815291925060009182916001600160a01b037f0000000000000000000000000000000000000000000000000000000000000000169163657c7e09916131cc9160040190815260200190565b6040805180830381865afa1580156131e8573d6000803e3d6000fd5b505050506040513d601f19601f8201168201806040525081019061320c9190615484565b60018d015460405163f0340a3760e01b8152600160a81b90910460ff166004820152919350915073__$f7122df39a5f3bad28f404771cd5173291$__9063f0340a3790602401602060405180830381865af415801561326f573d6000803e3d6000fd5b505050506040513d601f19601f820116820180604052508101906132939190615373565b1561339b5760405163023aa9ab60e61b815260008051602061588f83398151915260048201527f00000000000000000000000000000000000000000000000000000000000000006001600160a01b031690638eaa6ac090602401602060405180830381865afa15801561330a573d6000803e3d6000fd5b505050506040513d601f19601f8201168201806040525081019061332e9190615395565b60018c015460405163255318af60e21b81526001600160a01b039283169263954c62bc926133689287929091169030908e906004016155bc565b600060405180830381600087803b15801561338257600080fd5b505af1158015613396573d6000803e3d6000fd5b505050505b881561349b5760405163023aa9ab60e61b815260008051602061588f83398151915260048201527f00000000000000000000000000000000000000000000000000000000000000006001600160a01b031690638eaa6ac090602401602060405180830381865afa158015613413573d6000803e3d6000fd5b505050506040513d601f19601f820116820180604052508101906134379190615395565b6001600160a01b031663954c62bc828c30876040518563ffffffff1660e01b815260040161346894939291906155bc565b600060405180830381600087803b15801561348257600080fd5b505af1158015613496573d6000803e3d6000fd5b505050505b85156135a45760405163023aa9ab60e61b815260008051602061588f83398151915260048201527f00000000000000000000000000000000000000000000000000000000000000006001600160a01b031690638eaa6ac090602401602060405180830381865afa158015613513573d6000803e3d6000fd5b505050506040513d601f19601f820116820180604052508101906135379190615395565b60018c0154604051631c9619a760e01b81526001600160a01b0392831692631c9619a792613571928792909116908c908c906004016155bc565b600060405180830381600087803b15801561358b57600080fd5b505af115801561359f573d6000803e3d6000fd5b505050505b83156136a45760405163023aa9ab60e61b815260008051602061588f83398151915260048201527f00000000000000000000000000000000000000000000000000000000000000006001600160a01b031690638eaa6ac090602401602060405180830381865afa15801561361c573d6000803e3d6000fd5b505050506040513d601f19601f820116820180604052508101906136409190615395565b6001600160a01b0316631c9619a7828c88886040518563ffffffff1660e01b815260040161367194939291906155bc565b600060405180830381600087803b15801561368b57600080fd5b505af115801561369f573d6000803e3d6000fd5b505050505b60405163023aa9ab60e61b815260008051602061588f83398151915260048201527f00000000000000000000000000000000000000000000000000000000000000006001600160a01b031690638eaa6ac090602401602060405180830381865afa158015613716573d6000803e3d6000fd5b505050506040513d601f19601f8201168201806040525081019061373a9190615395565b60018c01546001600160a01b0391821691631c9619a7918591168d61375f8b8e6154ef565b6040518563ffffffff1660e01b815260040161377e94939291906155bc565b600060405180830381600087803b15801561379857600080fd5b505af11580156137ac573d6000803e3d6000fd5b505060405163023aa9ab60e61b815260008051602061588f83398151915260048201527f00000000000000000000000000000000000000000000000000000000000000006001600160a01b03169250638eaa6ac09150602401602060405180830381865afa158015613822573d6000803e3d6000fd5b505050506040513d601f19601f820116820180604052508101906138469190615395565b60018c01546001600160a01b0391821691631c9619a79184918e911661386c89896154ef565b6040518563ffffffff1660e01b815260040161388b94939291906155bc565b600060405180830381600087803b1580156138a557600080fd5b505af11580156138b9573d6000803e3d6000fd5b505050505050505050505050505050565b60008160058111156138de576138de614f88565b1180156138fd575060038160058111156138fa576138fa614f88565b11155b8015613929575060046001830154600160a01b900460ff16600581111561392657613926614f88565b10155b6139755760405162461bcd60e51b815260206004820152601d60248201527f5f6f726465725465726d696e6174652073746174652070726f626c656d0000006044820152606401610704565b815460405163657c7e0960e01b8152600481019190915260009081907f00000000000000000000000000000000000000000000000000000000000000006001600160a01b03169063657c7e09906024016040805180830381865afa1580156139e1573d6000803e3d6000fd5b505050506040513d601f19601f82011682018060405250810190613a059190615484565b600186018054929450909250849160ff60a01b1916600160a01b836005811115613a3157613a31614f88565b0217905550600184015460405163f0340a3760e01b8152600160a81b90910460ff16600482015273__$f7122df39a5f3bad28f404771cd5173291$__9063f0340a3790602401602060405180830381865af4158015613a94573d6000803e3d6000fd5b505050506040513d601f19601f82011682018060405250810190613ab89190615373565b15613bef5760405163023aa9ab60e61b815260008051602061588f83398151915260048201527f00000000000000000000000000000000000000000000000000000000000000006001600160a01b031690638eaa6ac090602401602060405180830381865afa158015613b2f573d6000803e3d6000fd5b505050506040513d601f19601f82011682018060405250810190613b539190615395565b600185015460038601546001600160a01b039283169263954c62bc9285929116903090613b9d90610462906001600160401b03600160401b8204811691600160801b90041661551e565b6040518563ffffffff1660e01b8152600401613bbc94939291906155bc565b600060405180830381600087803b158015613bd657600080fd5b505af1158015613bea573d6000803e3d6000fd5b505050505b83546000908152600660205260409081902060028601549151630cef945b60e31b815273__$f71e59c5327218924d154e230469c101bd$__9263677ca2d892613c4692909190600401918252602082015260400190565b602060405180830381865af4158015613c63573d6000803e3d6000fd5b505050506040513d601f19601f82011682018060405250810190613c879190615373565b506000828152600760205260409081902060028601549151630cef945b60e31b815273__$f71e59c5327218924d154e230469c101bd$__9263677ca2d892613cdd92909190600401918252602082015260400190565b602060405180830381865af4158015613cfa573d6000803e3d6000fd5b505050506040513d601f19601f82011682018060405250810190613d1e9190615373565b506000818152600860205260409081902060028601549151630cef945b60e31b815273__$f71e59c5327218924d154e230469c101bd$__9263677ca2d892613d7492909190600401918252602082015260400190565b602060405180830381865af4158015613d91573d6000803e3d6000fd5b505050506040513d601f19601f82011682018060405250810190613db59190615373565b5050505050565b6002810154604051630cef945b60e31b8152600480820152602481019190915273__$f71e59c5327218924d154e230469c101bd$__9063677ca2d890604401602060405180830381865af4158015613e18573d6000803e3d6000fd5b505050506040513d601f19601f82011682018060405250810190613e3c9190615373565b5043600090815260096020908152604082206002909301548354600181018555938352912090910155565b604051630e29a66960e21b8152600481018290526001600160a01b037f000000000000000000000000000000000000000000000000000000000000000016906338a699a490602401602060405180830381865afa158015613ecc573d6000803e3d6000fd5b505050506040513d601f19601f82011682018060405250810190613ef09190615373565b613ef75750565b60405163657c7e0960e01b81526004810182905260009081906001600160a01b037f0000000000000000000000000000000000000000000000000000000000000000169063657c7e09906024016040805180830381865afa158015613f60573d6000803e3d6000fd5b505050506040513d601f19601f82011682018060405250810190613f849190615484565b91509150613f9282846108f0565b15613f9c57505050565b6000818152600160209081526040808320805482518185028101850190935280835260609493830182828015613ff157602002820191906000526020600020905b815481526020019060010190808311613fdd575b5050505050905080516001600160401b03811115614011576140116156d0565b60405190808252806020026020018201604052801561404457816020015b606081526020019060019003908161402f5790505b5091506000805b82518110156141c05760007f00000000000000000000000000000000000000000000000000000000000000006001600160a01b03166327ee9dc2858481518110614097576140976156e6565b60200260200101516040518263ffffffff1660e01b81526004016140bd91815260200190565b600060405180830381865afa1580156140da573d6000803e3d6000fd5b505050506040513d6000823e601f3d908101601f1916820160405261410291908101906156fc565b604051639d84366d60e01b815290915073__$f71e59c5327218924d154e230469c101bd$__90639d84366d9061413e9084908b906004016157e8565b602060405180830381865af415801561415b573d6000803e3d6000fd5b505050506040513d601f19601f8201168201806040525081019061417f9190615373565b6141ad5780858461418f8161580a565b9550815181106141a1576141a16156e6565b60200260200101819052505b50806141b88161580a565b91505061404b565b50825250600083815260026020908152604080832080548251818502810185019093528083526060949383018282801561421957602002820191906000526020600020905b815481526020019060010190808311614205575b5050505050905080516001600160401b03811115614239576142396156d0565b60405190808252806020026020018201604052801561426c57816020015b60608152602001906001900390816142575790505b5091506000805b82518110156143e85760007f00000000000000000000000000000000000000000000000000000000000000006001600160a01b03166327ee9dc28584815181106142bf576142bf6156e6565b60200260200101516040518263ffffffff1660e01b81526004016142e591815260200190565b600060405180830381865afa158015614302573d6000803e3d6000fd5b505050506040513d6000823e601f3d908101601f1916820160405261432a91908101906156fc565b604051639d84366d60e01b815290915073__$f71e59c5327218924d154e230469c101bd$__90639d84366d906143669084908b906004016157e8565b602060405180830381865af4158015614383573d6000803e3d6000fd5b505050506040513d601f19601f820116820180604052508101906143a79190615373565b6143d5578085846143b78161580a565b9550815181106143c9576143c96156e6565b60200260200101819052505b50806143e08161580a565b915050614273565b508252506000848152600160205260409081902090516316061a7160e21b815260048101919091526024810186905273__$f71e59c5327218924d154e230469c101bd$__9063581869c490604401602060405180830381865af4158015614453573d6000803e3d6000fd5b505050506040513d601f19601f820116820180604052508101906144779190615373565b506000838152600260205260409081902090516316061a7160e21b815260048101919091526024810186905273__$f71e59c5327218924d154e230469c101bd$__9063581869c490604401602060405180830381865af41580156144df573d6000803e3d6000fd5b505050506040513d601f19601f820116820180604052508101906145039190615373565b5060005b8151811015614793576000828281518110614524576145246156e6565b602002602001015173__$f71e59c5327218924d154e230469c101bd$__639b861f039091876040518363ffffffff1660e01b81526004016145669291906157e8565b600060405180830381865af4158015614583573d6000803e3d6000fd5b505050506040513d6000823e601f3d908101601f191682016040526145ab91908101906156fc565b905060007f00000000000000000000000000000000000000000000000000000000000000006001600160a01b031663b3054383836040518263ffffffff1660e01b81526004016145fb9190615825565b6020604051808303816000875af115801561461a573d6000803e3d6000fd5b505050506040513d601f19601f8201168201806040525081019061463e91906154a8565b90506001600083600081518110614657576146576156e6565b6020026020010151815260200190815260200160002073__$f71e59c5327218924d154e230469c101bd$__63581869c49091836040518363ffffffff1660e01b81526004016146b0929190918252602082015260400190565b602060405180830381865af41580156146cd573d6000803e3d6000fd5b505050506040513d601f19601f820116820180604052508101906146f19190615373565b506000868152600260205260409081902090516316061a7160e21b815260048101919091526024810182905273__$f71e59c5327218924d154e230469c101bd$__9063581869c490604401602060405180830381865af4158015614759573d6000803e3d6000fd5b505050506040513d601f19601f8201168201806040525081019061477d9190615373565b505050808061478b9061580a565b915050614507565b5060005b8251811015614a355760008382815181106147b4576147b46156e6565b602002602001015173__$f71e59c5327218924d154e230469c101bd$__633b06e74f9091886040518363ffffffff1660e01b81526004016147f69291906157e8565b600060405180830381865af4158015614813573d6000803e3d6000fd5b505050506040513d6000823e601f3d908101601f1916820160405261483b91908101906156fc565b905060007f00000000000000000000000000000000000000000000000000000000000000006001600160a01b031663b3054383836040518263ffffffff1660e01b815260040161488b9190615825565b6020604051808303816000875af11580156148aa573d6000803e3d6000fd5b505050506040513d601f19601f820116820180604052508101906148ce91906154a8565b6000888152600160205260409081902090516316061a7160e21b815291925073__$f71e59c5327218924d154e230469c101bd$__9163581869c491614920918590600401918252602082015260400190565b602060405180830381865af415801561493d573d6000803e3d6000fd5b505050506040513d601f19601f820116820180604052508101906149619190615373565b5060026000836001855161497591906154ef565b81518110614985576149856156e6565b6020026020010151815260200190815260200160002073__$f71e59c5327218924d154e230469c101bd$__63581869c49091836040518363ffffffff1660e01b81526004016149de929190918252602082015260400190565b602060405180830381865af41580156149fb573d6000803e3d6000fd5b505050506040513d601f19601f82011682018060405250810190614a1f9190615373565b5050508080614a2d9061580a565b915050614797565b5060005b8151811015614e095760005b8351811015614df6576000848281518110614a6257614a626156e6565b602002602001015190506000848381518110614a8057614a806156e6565b6020026020010151905060005b8251811015614b47578173__$f71e59c5327218924d154e230469c101bd$__639d84366d9091858481518110614ac557614ac56156e6565b60200260200101516040518363ffffffff1660e01b8152600401614aea9291906157e8565b602060405180830381865af4158015614b07573d6000803e3d6000fd5b505050506040513d601f19601f82011682018060405250810190614b2b9190615373565b15614b3557614b47565b80614b3f8161580a565b915050614a8d565b8251811015614b5857505050614de4565b6040516302704ae960e31b815260009073__$f71e59c5327218924d154e230469c101bd$__90631382574890614b949087908790600401615869565b600060405180830381865af4158015614bb1573d6000803e3d6000fd5b505050506040513d6000823e601f3d908101601f19168201604052614bd991908101906156fc565b905060007f00000000000000000000000000000000000000000000000000000000000000006001600160a01b031663b3054383836040518263ffffffff1660e01b8152600401614c299190615825565b6020604051808303816000875af1158015614c48573d6000803e3d6000fd5b505050506040513d601f19601f82011682018060405250810190614c6c91906154a8565b90506001600083600081518110614c8557614c856156e6565b6020026020010151815260200190815260200160002073__$f71e59c5327218924d154e230469c101bd$__63581869c49091836040518363ffffffff1660e01b8152600401614cde929190918252602082015260400190565b602060405180830381865af4158015614cfb573d6000803e3d6000fd5b505050506040513d601f19601f82011682018060405250810190614d1f9190615373565b50600260008360018551614d3391906154ef565b81518110614d4357614d436156e6565b6020026020010151815260200190815260200160002073__$f71e59c5327218924d154e230469c101bd$__63581869c49091836040518363ffffffff1660e01b8152600401614d9c929190918252602082015260400190565b602060405180830381865af4158015614db9573d6000803e3d6000fd5b505050506040513d601f19601f82011682018060405250810190614ddd9190615373565b5050505050505b80614dee8161580a565b915050614a45565b5080614e018161580a565b915050614a39565b505050505050565b604051806101c0016040528060006001600160a01b03168152602001600080191681526020016000801916815260200160008152602001600081526020016000815260200160008152602001600081526020016000815260200160008152602001600081526020016000815260200160006005811115614e9357614e93614f88565b8152600060209091015290565b60008085851115614eb057600080fd5b83861115614ebd57600080fd5b5050820193919092039150565b600060208284031215614edc57600080fd5b81356001600160e01b03198116811461097a57600080fd5b6001600160a01b038116811461290e57600080fd5b600080600080600060a08688031215614f2157600080fd5b8535614f2c81614ef4565b97602087013597506040870135966060810135965060800135945092505050565b60008060408385031215614f6057600080fd5b50508035926020909101359150565b600060208284031215614f8157600080fd5b5035919050565b634e487b7160e01b600052602160045260246000fd5b60068110614fbc57634e487b7160e01b600052602160045260246000fd5b9052565b81516001600160a01b031681526101c081016020830151602083015260408301516040830152606083015160608301526080830151608083015260a083015160a083015260c083015160c083015260e083015160e08301526101008084015181840152506101208084015181840152506101408084015181840152506101608084015181840152506101808084015161505b82850182614f9e565b50506101a08381015160ff8116848301525b505092915050565b60006020828403121561508757600080fd5b813561097a81614ef4565b803560ff811681146150a357600080fd5b919050565b60008060008060008060c087890312156150c157600080fd5b86359550602087013594506040870135935060608701359250608087013591506150ed60a08801615092565b90509295509295509295565b60006020828403121561510b57600080fd5b813565ffffffffffff8116811461097a57600080fd5b6000806000806080858703121561513757600080fd5b5050823594602084013594506040840135936060013592509050565b600080600080600080600060e0888a03121561516e57600080fd5b873561517981614ef4565b96506020880135955060408801359450606088013593506080880135925060a088013591506151aa60c08901615092565b905092959891949750929550565b6000602082840312156151ca57600080fd5b81356001600160401b038116811461097a57600080fd5b600080600080600080600060e0888a0312156151fc57600080fd5b873561520781614ef4565b9650602088013561521781614ef4565b9550604088013561522781614ef4565b9450606088013593506080880135925060a088013591506151aa60c08901615092565b60008060008060008060008060006101208a8c03121561526957600080fd5b893561527481614ef4565b985060208a013561528481614ef4565b975060408a0135965060608a013561529b81614ef4565b955060808a0135945060a08a0135935060c08a0135925060e08a013591506152c66101008b01615092565b90509295985092959850929598565b600080600080600080600080610100898b0312156152f257600080fd5b88356152fd81614ef4565b975060208901359650604089013561531481614ef4565b9550606089013594506080890135935060a0890135925060c0890135915061533e60e08a01615092565b90509295985092959890939650565b60006020828403121561535f57600080fd5b813563ffffffff8116811461097a57600080fd5b60006020828403121561538557600080fd5b8151801515811461097a57600080fd5b6000602082840312156153a757600080fd5b815161097a81614ef4565b6000825160005b818110156153d357602081860181015185830152016153b9565b818111156153e2576000828501525b509190910192915050565b634e487b7160e01b600052601160045260246000fd5b60008261542057634e487b7160e01b600052601260045260246000fd5b500490565b600081600019048311821515161561543f5761543f6153ed565b500290565b634e487b7160e01b600052600160045260246000fd5b60208082526010908201526f10dbdb9d1c9858dd081cdd1bdc1c195960821b604082015260600190565b6000806040838503121561549757600080fd5b505080516020909101519092909150565b6000602082840312156154ba57600080fd5b5051919050565b6000806000606084860312156154d657600080fd5b8351925060208401519150604084015190509250925092565b600082821015615501576155016153ed565b500390565b60008219821115615519576155196153ed565b500190565b60006001600160401b038381169083168181101561553e5761553e6153ed565b039392505050565b60006001600160401b03808316818516808303821115615568576155686153ed565b01949350505050565b6020808252602b908201527f4d757374206265206163636f756e743d3d5f6d736753656e646572206f72204d60408201526a6f64652054657374696e6760a81b606082015260800190565b9384526001600160a01b03928316602085015291166040830152606082015260800190565b81518152602080830151610180830191615605908401826001600160a01b03169052565b5060408301516156186040840182614f9e565b50606083015161562d606084018260ff169052565b506080830151608083015260a083015161565260a08401826001600160401b03169052565b5060c083015161566d60c08401826001600160401b03169052565b5060e083015161568860e08401826001600160401b03169052565b50610100838101516001600160401b0390811691840191909152610120808501518216908401526101408085015182169084015261016080850151918216818501529061506d565b634e487b7160e01b600052604160045260246000fd5b634e487b7160e01b600052603260045260246000fd5b6000602080838503121561570f57600080fd5b82516001600160401b038082111561572657600080fd5b818501915085601f83011261573a57600080fd5b81518181111561574c5761574c6156d0565b8060051b604051601f19603f83011681018181108582111715615771576157716156d0565b60405291825284820192508381018501918883111561578f57600080fd5b938501935b828510156125ea57845184529385019392850192615794565b600081518084526020808501945080840160005b838110156157dd578151875295820195908201906001016157c1565b509495945050505050565b6040815260006157fb60408301856157ad565b90508260208301529392505050565b600060001982141561581e5761581e6153ed565b5060010190565b6020808252825182820181905260009190848201906040850190845b8181101561585d57835183529284019291840191600101615841565b50909695505050505050565b60408152600061587c60408301856157ad565b828103602084015261141581856157ad56fecd775f2396f9f13f12bcf8ca32e21df66559a8adc3944d0591127e7731f7ab85a2646970667358221220c8e7aa22b26502bfc4349f420c473c8849d73af0f4c820880d2890615e50291664736f6c634300080b0033","language":"Solidity","natspec":{"methods":{"ownerOf()":{"details":"Returns the address of the current owner."},"renounceOwnership()":{"details":"Leaves the contract without owner. It will not be possible to call `onlyOwner` functions anymore. Can only be called by the current owner. NOTE: Renouncing ownership will leave the contract without an owner, thereby removing any functionality that is only available to the owner."},"supportsInterface(bytes4)":{"details":"Returns true if this contract implements the interface defined by `interfaceId`. See the corresponding https://eips.ethereum.org/EIPS/eip-165#how-interfaces-are-identified[EIP section] to learn more about how these ids are created. This function call must use less than 30 000 gas."},"transferOwnership(address)":{"details":"Transfers ownership of the contract to a new account (`newOwner`). Can only be called by the current owner."}},"kind":"dev","version":1},"opcodes":"PUSH1 0x80 PUSH1 0x40 MSTORE CALLVALUE DUP1 ISZERO PUSH2 0x10 JUMPI PUSH1 0x0 DUP1 REVERT JUMPDEST POP PUSH1 0x4 CALLDATASIZE LT PUSH2 0x1F0 JUMPI PUSH1 0x0 CALLDATALOAD PUSH1 0xE0 SHR DUP1 PUSH4 0x97962076 GT PUSH2 0x10F JUMPI DUP1 PUSH4 0xC34FA842 GT PUSH2 0xA2 JUMPI DUP1 PUSH4 0xE4B16144 GT PUSH2 0x71 JUMPI DUP1 PUSH4 0xE4B16144 EQ PUSH2 0x4E2 JUMPI DUP1 PUSH4 0xEDE8CDFE EQ PUSH2 0x4F5 JUMPI DUP1 PUSH4 0xF2FDE38B EQ PUSH2 0x508 JUMPI DUP1 PUSH4 0xFEAB4454 EQ PUSH2 0x51B JUMPI PUSH2 0x1F0 JUMP JUMPDEST DUP1 PUSH4 0xC34FA842 EQ PUSH2 0x48D JUMPI DUP1 PUSH4 0xCCC07959 EQ PUSH2 0x4A0 JUMPI DUP1 PUSH4 0xD6935858 EQ PUSH2 0x4C7 JUMPI DUP1 PUSH4 0xE2D7E08E EQ PUSH2 0x4CF JUMPI PUSH2 0x1F0 JUMP JUMPDEST DUP1 PUSH4 0xAF640D0F GT PUSH2 0xDE JUMPI DUP1 PUSH4 0xAF640D0F EQ PUSH2 0x42E JUMPI DUP1 PUSH4 0xB03FD40D EQ PUSH2 0x454 JUMPI DUP1 PUSH4 0xB23A43FC EQ PUSH2 0x467 JUMPI DUP1 PUSH4 0xB791F8A0 EQ PUSH2 0x47A JUMPI PUSH2 0x1F0 JUMP JUMPDEST DUP1 PUSH4 0x97962076 EQ PUSH2 0x3E5 JUMPI DUP1 PUSH4 0x9BC896F9 EQ PUSH2 0x3F5 JUMPI DUP1 PUSH4 0xA5EF794A EQ PUSH2 0x408 JUMPI DUP1 PUSH4 0xA6610F02 EQ PUSH2 0x41B JUMPI PUSH2 0x1F0 JUMP JUMPDEST DUP1 PUSH4 0x5F5C5BAA GT PUSH2 0x187 JUMPI DUP1 PUSH4 0x7A70482C GT PUSH2 0x156 JUMPI DUP1 PUSH4 0x7A70482C EQ PUSH2 0x38C JUMPI DUP1 PUSH4 0x7AF6649A EQ PUSH2 0x39F JUMPI DUP1 PUSH4 0x854BA99D EQ PUSH2 0x3B2 JUMPI DUP1 PUSH4 0x8DA5CB5B EQ PUSH2 0x3BA JUMPI PUSH2 0x1F0 JUMP JUMPDEST DUP1 PUSH4 0x5F5C5BAA EQ PUSH2 0x349 JUMPI DUP1 PUSH4 0x62965141 EQ PUSH2 0x351 JUMPI DUP1 PUSH4 0x715018A6 EQ PUSH2 0x37C JUMPI DUP1 PUSH4 0x72EA61BF EQ PUSH2 0x384 JUMPI PUSH2 0x1F0 JUMP JUMPDEST DUP1 PUSH4 0x21603F43 GT PUSH2 0x1C3 JUMPI DUP1 PUSH4 0x21603F43 EQ PUSH2 0x2DB JUMPI DUP1 PUSH4 0x2203616D EQ PUSH2 0x2FB JUMPI DUP1 PUSH4 0x2F54BF6E EQ PUSH2 0x323 JUMPI DUP1 PUSH4 0x5C42B710 EQ PUSH2 0x336 JUMPI PUSH2 0x1F0 JUMP JUMPDEST DUP1 PUSH4 0x1FFC9A7 EQ PUSH2 0x275 JUMPI DUP1 PUSH4 0x5D6BD9C EQ PUSH2 0x29D JUMPI DUP1 PUSH4 0xAF077BF EQ PUSH2 0x2A7 JUMPI DUP1 PUSH4 0x1EF4590D EQ PUSH2 0x2C8 JUMPI JUMPDEST PUSH2 0x1F8 PUSH2 0x545 JUMP JUMPDEST PUSH1 0x0 PUSH2 0x208 PUSH1 0x24 PUSH1 0x4 CALLDATASIZE DUP5 PUSH2 0x4EA0 JUMP JUMPDEST DUP1 DUP1 PUSH1 0x1F ADD PUSH1 0x20 DUP1 SWAP2 DIV MUL PUSH1 0x20 ADD PUSH1 0x40 MLOAD SWAP1 DUP2 ADD PUSH1 0x40 MSTORE DUP1 SWAP4 SWAP3 SWAP2 SWAP1 DUP2 DUP2 MSTORE PUSH1 0x20 ADD DUP4 DUP4 DUP1 DUP3 DUP5 CALLDATACOPY PUSH1 0x0 SWAP3 ADD DUP3 SWAP1 MSTORE POP PUSH1 0x20 DUP6 ADD MLOAD SWAP5 SWAP6 POP SWAP3 POP POP CALLDATASIZE PUSH1 0x23 NOT DUP2 ADD SWAP2 POP PUSH1 0x1F NOT ADD PUSH1 0x4 DUP4 DUP1 CALLDATACOPY DUP2 PUSH1 0x24 PUSH1 0x4 CALLDATACOPY PUSH1 0x0 DUP1 DUP3 PUSH1 0x0 DUP8 GAS DELEGATECALL SWAP3 POP POP POP PUSH2 0x270 DUP2 PUSH2 0x70F JUMP JUMPDEST POP POP POP STOP JUMPDEST PUSH2 0x288 PUSH2 0x283 CALLDATASIZE PUSH1 0x4 PUSH2 0x4ECA JUMP JUMPDEST PUSH2 0x729 JUMP JUMPDEST PUSH1 0x40 MLOAD SWAP1 ISZERO ISZERO DUP2 MSTORE PUSH1 0x20 ADD JUMPDEST PUSH1 0x40 MLOAD DUP1 SWAP2 SUB SWAP1 RETURN JUMPDEST PUSH2 0x2A5 PUSH2 0x760 JUMP JUMPDEST STOP JUMPDEST PUSH2 0x2BA PUSH2 0x2B5 CALLDATASIZE PUSH1 0x4 PUSH2 0x4F09 JUMP JUMPDEST PUSH2 0x777 JUMP JUMPDEST PUSH1 0x40 MLOAD SWAP1 DUP2 MSTORE PUSH1 0x20 ADD PUSH2 0x294 JUMP JUMPDEST PUSH2 0x288 PUSH2 0x2D6 CALLDATASIZE PUSH1 0x4 PUSH2 0x4F4D JUMP JUMPDEST PUSH2 0x8F0 JUMP JUMPDEST PUSH2 0x2EE PUSH2 0x2E9 CALLDATASIZE PUSH1 0x4 PUSH2 0x4F6F JUMP JUMPDEST PUSH2 0x981 JUMP JUMPDEST PUSH1 0x40 MLOAD PUSH2 0x294 SWAP2 SWAP1 PUSH2 0x4FC0 JUMP JUMPDEST PUSH2 0x30E PUSH2 0x309 CALLDATASIZE PUSH1 0x4 PUSH2 0x4F6F JUMP JUMPDEST PUSH2 0x994 JUMP JUMPDEST PUSH1 0x40 MLOAD PUSH4 0xFFFFFFFF SWAP1 SWAP2 AND DUP2 MSTORE PUSH1 0x20 ADD PUSH2 0x294 JUMP JUMPDEST PUSH2 0x288 PUSH2 0x331 CALLDATASIZE PUSH1 0x4 PUSH2 0x5075 JUMP JUMPDEST PUSH2 0x9A5 JUMP JUMPDEST PUSH2 0x2BA PUSH2 0x344 CALLDATASIZE PUSH1 0x4 PUSH2 0x50A8 JUMP JUMPDEST PUSH2 0x9D2 JUMP JUMPDEST PUSH2 0x2A5 PUSH2 0x9EE JUMP JUMPDEST PUSH2 0x364 PUSH2 0x35F CALLDATASIZE PUSH1 0x4 PUSH2 0x4F6F JUMP JUMPDEST PUSH2 0xB03 JUMP JUMPDEST PUSH1 0x40 MLOAD PUSH1 0x1 PUSH1 0x1 PUSH1 0x40 SHL SUB SWAP1 SWAP2 AND DUP2 MSTORE PUSH1 0x20 ADD PUSH2 0x294 JUMP JUMPDEST PUSH2 0x2A5 PUSH2 0xB35 JUMP JUMPDEST PUSH2 0x2A5 PUSH2 0xB47 JUMP JUMPDEST PUSH2 0x2BA PUSH2 0x39A CALLDATASIZE PUSH1 0x4 PUSH2 0x4F09 JUMP JUMPDEST PUSH2 0xB61 JUMP JUMPDEST PUSH2 0x2BA PUSH2 0x3AD CALLDATASIZE PUSH1 0x4 PUSH2 0x50F9 JUMP JUMPDEST PUSH2 0x127F JUMP JUMPDEST PUSH2 0x288 PUSH2 0x1298 JUMP JUMPDEST PUSH1 0x0 SLOAD PUSH3 0x10000 SWAP1 DIV PUSH1 0x1 PUSH1 0x1 PUSH1 0xA0 SHL SUB AND JUMPDEST PUSH1 0x40 MLOAD PUSH1 0x1 PUSH1 0x1 PUSH1 0xA0 SHL SUB SWAP1 SWAP2 AND DUP2 MSTORE PUSH1 0x20 ADD PUSH2 0x294 JUMP JUMPDEST PUSH1 0x0 SLOAD PUSH2 0x100 SWAP1 DIV PUSH1 0xFF AND PUSH2 0x288 JUMP JUMPDEST PUSH2 0x2A5 PUSH2 0x403 CALLDATASIZE PUSH1 0x4 PUSH2 0x4F6F JUMP JUMPDEST PUSH2 0x12B6 JUMP JUMPDEST PUSH2 0x2BA PUSH2 0x416 CALLDATASIZE PUSH1 0x4 PUSH2 0x5121 JUMP JUMPDEST PUSH2 0x1406 JUMP JUMPDEST PUSH2 0x2BA PUSH2 0x429 CALLDATASIZE PUSH1 0x4 PUSH2 0x5153 JUMP JUMPDEST PUSH2 0x141E JUMP JUMPDEST PUSH32 0xC79A5C5E1C7F6FAB1E75AB0E20E9522AA9EB363A0C70072C6DCB8A20F4A46AE4 PUSH2 0x2BA JUMP JUMPDEST PUSH2 0x2BA PUSH2 0x462 CALLDATASIZE PUSH1 0x4 PUSH2 0x51B8 JUMP JUMPDEST PUSH2 0x2305 JUMP JUMPDEST PUSH2 0x2BA PUSH2 0x475 CALLDATASIZE PUSH1 0x4 PUSH2 0x5153 JUMP JUMPDEST PUSH2 0x231F JUMP JUMPDEST PUSH2 0x2BA PUSH2 0x488 CALLDATASIZE PUSH1 0x4 PUSH2 0x51E1 JUMP JUMPDEST PUSH2 0x24AF JUMP JUMPDEST PUSH2 0x2BA PUSH2 0x49B CALLDATASIZE PUSH1 0x4 PUSH2 0x524A JUMP JUMPDEST PUSH2 0x25F6 JUMP JUMPDEST PUSH2 0x3CD PUSH32 0x0 DUP2 JUMP JUMPDEST PUSH2 0x2A5 PUSH2 0x26F8 JUMP JUMPDEST PUSH2 0x2BA PUSH2 0x4DD CALLDATASIZE PUSH1 0x4 PUSH2 0x52D5 JUMP JUMPDEST PUSH2 0x2714 JUMP JUMPDEST PUSH2 0x2BA PUSH2 0x4F0 CALLDATASIZE PUSH1 0x4 PUSH2 0x534D JUMP JUMPDEST PUSH2 0x277C JUMP JUMPDEST PUSH2 0x2A5 PUSH2 0x503 CALLDATASIZE PUSH1 0x4 PUSH2 0x4F6F JUMP JUMPDEST PUSH2 0x2793 JUMP JUMPDEST PUSH2 0x2A5 PUSH2 0x516 CALLDATASIZE PUSH1 0x4 PUSH2 0x5075 JUMP JUMPDEST PUSH2 0x2898 JUMP JUMPDEST PUSH2 0x52E PUSH2 0x529 CALLDATASIZE PUSH1 0x4 PUSH2 0x4F6F JUMP JUMPDEST PUSH2 0x2911 JUMP JUMPDEST PUSH1 0x40 MLOAD PUSH6 0xFFFFFFFFFFFF SWAP1 SWAP2 AND DUP2 MSTORE PUSH1 0x20 ADD PUSH2 0x294 JUMP JUMPDEST PUSH1 0x0 SLOAD PUSH1 0x1 PUSH1 0x1 PUSH1 0xA0 SHL SUB PUSH3 0x10000 SWAP1 SWAP2 DIV AND CALLER EQ DUP1 PUSH2 0x5F8 JUMPI POP PUSH1 0x1 PUSH1 0x1 PUSH1 0xA0 SHL SUB PUSH32 0x0 AND PUSH4 0x16279055 CALLER PUSH1 0x40 MLOAD PUSH1 0x1 PUSH1 0x1 PUSH1 0xE0 SHL SUB NOT PUSH1 0xE0 DUP5 SWAP1 SHL AND DUP2 MSTORE PUSH1 0x1 PUSH1 0x1 PUSH1 0xA0 SHL SUB SWAP1 SWAP2 AND PUSH1 0x4 DUP3 ADD MSTORE PUSH1 0x24 ADD PUSH1 0x20 PUSH1 0x40 MLOAD DUP1 DUP4 SUB DUP2 DUP7 GAS STATICCALL ISZERO DUP1 ISZERO PUSH2 0x5D4 JUMPI RETURNDATASIZE PUSH1 0x0 DUP1 RETURNDATACOPY RETURNDATASIZE PUSH1 0x0 REVERT JUMPDEST POP POP POP POP PUSH1 0x40 MLOAD RETURNDATASIZE PUSH1 0x1F NOT PUSH1 0x1F DUP3 ADD AND DUP3 ADD DUP1 PUSH1 0x40 MSTORE POP DUP2 ADD SWAP1 PUSH2 0x5F8 SWAP2 SWAP1 PUSH2 0x5373 JUMP JUMPDEST DUP1 PUSH2 0x696 JUMPI POP PUSH1 0x1 PUSH1 0x1 PUSH1 0xA0 SHL SUB PUSH32 0x0 AND PUSH4 0x6D70F7AE CALLER PUSH1 0x40 MLOAD PUSH1 0x1 PUSH1 0x1 PUSH1 0xE0 SHL SUB NOT PUSH1 0xE0 DUP5 SWAP1 SHL AND DUP2 MSTORE PUSH1 0x1 PUSH1 0x1 PUSH1 0xA0 SHL SUB SWAP1 SWAP2 AND PUSH1 0x4 DUP3 ADD MSTORE PUSH1 0x24 ADD PUSH1 0x20 PUSH1 0x40 MLOAD DUP1 DUP4 SUB DUP2 DUP7 GAS STATICCALL ISZERO DUP1 ISZERO PUSH2 0x672 JUMPI RETURNDATASIZE PUSH1 0x0 DUP1 RETURNDATACOPY RETURNDATASIZE PUSH1 0x0 REVERT JUMPDEST POP POP POP POP PUSH1 0x40 MLOAD RETURNDATASIZE PUSH1 0x1F NOT PUSH1 0x1F DUP3 ADD AND DUP3 ADD DUP1 PUSH1 0x40 MSTORE POP DUP2 ADD SWAP1 PUSH2 0x696 SWAP2 SWAP1 PUSH2 0x5373 JUMP JUMPDEST PUSH2 0x70D JUMPI PUSH1 0x40 MLOAD PUSH3 0x461BCD PUSH1 0xE5 SHL DUP2 MSTORE PUSH1 0x20 PUSH1 0x4 DUP3 ADD MSTORE PUSH1 0x39 PUSH1 0x24 DUP3 ADD MSTORE PUSH32 0x416C6C6F77616E63653A2063616C6C6572206D757374206265205265706F7369 PUSH1 0x44 DUP3 ADD MSTORE PUSH32 0x746F727920436F6E7472616374206F72204F70657261746F7200000000000000 PUSH1 0x64 DUP3 ADD MSTORE PUSH1 0x84 ADD JUMPDEST PUSH1 0x40 MLOAD DUP1 SWAP2 SUB SWAP1 REVERT JUMPDEST JUMP JUMPDEST RETURNDATASIZE PUSH1 0x0 DUP1 RETURNDATACOPY DUP1 DUP1 ISZERO PUSH2 0x720 JUMPI RETURNDATASIZE PUSH1 0x0 RETURN JUMPDEST RETURNDATASIZE PUSH1 0x0 REVERT JUMPDEST POP POP JUMP JUMPDEST PUSH1 0x0 PUSH1 0x1 PUSH1 0x1 PUSH1 0xE0 SHL SUB NOT DUP3 AND PUSH4 0x1FFC9A7 PUSH1 0xE0 SHL EQ DUP1 PUSH2 0x75A JUMPI POP PUSH1 0x1 PUSH1 0x1 PUSH1 0xE0 SHL SUB NOT DUP3 AND PUSH4 0x15D37895 PUSH1 0xE3 SHL EQ JUMPDEST SWAP3 SWAP2 POP POP JUMP JUMPDEST PUSH2 0x768 PUSH2 0x545 JUMP JUMPDEST PUSH2 0x70D PUSH1 0x0 DUP1 SLOAD PUSH1 0xFF NOT AND SWAP1 SSTORE JUMP JUMPDEST PUSH1 0x40 MLOAD PUSH4 0x23AA9AB PUSH1 0xE6 SHL DUP2 MSTORE PUSH32 0x2E7A327EF83C2AF7579C6634F2F5604519800C5F07626F27BD602FD11ED8E6EC PUSH1 0x4 DUP3 ADD MSTORE PUSH1 0x0 SWAP1 DUP2 SWAP1 PUSH1 0x1 PUSH1 0x1 PUSH1 0xA0 SHL SUB PUSH32 0x0 AND SWAP1 PUSH4 0x8EAA6AC0 SWAP1 PUSH1 0x24 ADD PUSH1 0x20 PUSH1 0x40 MLOAD DUP1 DUP4 SUB DUP2 DUP7 GAS STATICCALL ISZERO DUP1 ISZERO PUSH2 0x800 JUMPI RETURNDATASIZE PUSH1 0x0 DUP1 RETURNDATACOPY RETURNDATASIZE PUSH1 0x0 REVERT JUMPDEST POP POP POP POP PUSH1 0x40 MLOAD RETURNDATASIZE PUSH1 0x1F NOT PUSH1 0x1F DUP3 ADD AND DUP3 ADD DUP1 PUSH1 0x40 MSTORE POP DUP2 ADD SWAP1 PUSH2 0x824 SWAP2 SWAP1 PUSH2 0x5395 JUMP JUMPDEST PUSH1 0x40 DUP1 MLOAD ADDRESS PUSH1 0x24 DUP3 ADD MSTORE PUSH1 0x1 PUSH1 0x1 PUSH1 0xA0 SHL SUB DUP11 DUP2 AND PUSH1 0x44 DUP4 ADD MSTORE PUSH1 0x64 DUP3 ADD DUP11 SWAP1 MSTORE PUSH1 0x84 DUP3 ADD DUP10 SWAP1 MSTORE PUSH1 0xA4 DUP3 ADD DUP9 SWAP1 MSTORE PUSH1 0xC4 DUP1 DUP4 ADD DUP9 SWAP1 MSTORE DUP4 MLOAD DUP1 DUP5 SUB SWAP1 SWAP2 ADD DUP2 MSTORE PUSH1 0xE4 SWAP1 SWAP3 ADD DUP4 MSTORE PUSH1 0x20 DUP3 ADD DUP1 MLOAD PUSH1 0x1 PUSH1 0x1 PUSH1 0xE0 SHL SUB AND PUSH4 0x1DE754D PUSH1 0xE6 SHL OR SWAP1 MSTORE SWAP2 MLOAD SWAP3 SWAP1 SWAP2 AND SWAP2 PUSH2 0x897 SWAP2 SWAP1 PUSH2 0x53B2 JUMP JUMPDEST PUSH1 0x0 PUSH1 0x40 MLOAD DUP1 DUP4 SUB DUP2 PUSH1 0x0 DUP7 GAS CALL SWAP2 POP POP RETURNDATASIZE DUP1 PUSH1 0x0 DUP2 EQ PUSH2 0x8D4 JUMPI PUSH1 0x40 MLOAD SWAP2 POP PUSH1 0x1F NOT PUSH1 0x3F RETURNDATASIZE ADD AND DUP3 ADD PUSH1 0x40 MSTORE RETURNDATASIZE DUP3 MSTORE RETURNDATASIZE PUSH1 0x0 PUSH1 0x20 DUP5 ADD RETURNDATACOPY PUSH2 0x8D9 JUMP JUMPDEST PUSH1 0x60 SWAP2 POP JUMPDEST POP POP SWAP1 POP PUSH2 0x8E6 DUP2 PUSH2 0x70F JUMP JUMPDEST POP SWAP6 SWAP5 POP POP POP POP POP JUMP JUMPDEST PUSH1 0x0 DUP3 DUP2 MSTORE PUSH1 0x1 PUSH1 0x20 MSTORE PUSH1 0x40 DUP1 DUP3 KECCAK256 SWAP1 MLOAD PUSH4 0x2BE5DB23 PUSH1 0xE1 SHL DUP2 MSTORE PUSH1 0x4 DUP2 ADD SWAP2 SWAP1 SWAP2 MSTORE PUSH1 0x24 DUP2 ADD DUP4 SWAP1 MSTORE PUSH20 0x0 SWAP1 PUSH4 0x57CBB646 SWAP1 PUSH1 0x44 ADD PUSH1 0x20 PUSH1 0x40 MLOAD DUP1 DUP4 SUB DUP2 DUP7 GAS DELEGATECALL ISZERO DUP1 ISZERO PUSH2 0x956 JUMPI RETURNDATASIZE PUSH1 0x0 DUP1 RETURNDATACOPY RETURNDATASIZE PUSH1 0x0 REVERT JUMPDEST POP POP POP POP PUSH1 0x40 MLOAD RETURNDATASIZE PUSH1 0x1F NOT PUSH1 0x1F DUP3 ADD AND DUP3 ADD DUP1 PUSH1 0x40 MSTORE POP DUP2 ADD SWAP1 PUSH2 0x97A SWAP2 SWAP1 PUSH2 0x5373 JUMP JUMPDEST SWAP4 SWAP3 POP POP POP JUMP JUMPDEST PUSH2 0x989 PUSH2 0x4E11 JUMP JUMPDEST PUSH2 0x75A DUP3 PUSH1 0x0 PUSH2 0x2922 JUMP JUMPDEST PUSH1 0x0 PUSH2 0x75A PUSH5 0xE8D4A51000 DUP4 PUSH2 0x5403 JUMP JUMPDEST PUSH1 0x0 DUP1 SLOAD PUSH1 0x1 PUSH1 0x1 PUSH1 0xA0 SHL SUB DUP4 DUP2 AND PUSH3 0x10000 SWAP1 SWAP3 DIV AND EQ ISZERO PUSH2 0x9CA JUMPI POP PUSH1 0x1 SWAP2 SWAP1 POP JUMP JUMPDEST POP PUSH1 0x0 SWAP2 SWAP1 POP JUMP JUMPDEST PUSH1 0x0 PUSH2 0x9E3 CALLER DUP9 DUP9 DUP9 DUP9 DUP9 DUP9 PUSH2 0x231F JUMP JUMPDEST SWAP8 SWAP7 POP POP POP POP POP POP POP JUMP JUMPDEST PUSH1 0x0 SLOAD PUSH1 0x1 PUSH1 0x1 PUSH1 0xA0 SHL SUB PUSH3 0x10000 SWAP1 SWAP2 DIV AND CALLER EQ DUP1 PUSH2 0xAA1 JUMPI POP PUSH1 0x1 PUSH1 0x1 PUSH1 0xA0 SHL SUB PUSH32 0x0 AND PUSH4 0x6D70F7AE CALLER PUSH1 0x40 MLOAD PUSH1 0x1 PUSH1 0x1 PUSH1 0xE0 SHL SUB NOT PUSH1 0xE0 DUP5 SWAP1 SHL AND DUP2 MSTORE PUSH1 0x1 PUSH1 0x1 PUSH1 0xA0 SHL SUB SWAP1 SWAP2 AND PUSH1 0x4 DUP3 ADD MSTORE PUSH1 0x24 ADD PUSH1 0x20 PUSH1 0x40 MLOAD DUP1 DUP4 SUB DUP2 DUP7 GAS STATICCALL ISZERO DUP1 ISZERO PUSH2 0xA7D JUMPI RETURNDATASIZE PUSH1 0x0 DUP1 RETURNDATACOPY RETURNDATASIZE PUSH1 0x0 REVERT JUMPDEST POP POP POP POP PUSH1 0x40 MLOAD RETURNDATASIZE PUSH1 0x1F NOT PUSH1 0x1F DUP3 ADD AND DUP3 ADD DUP1 PUSH1 0x40 MSTORE POP DUP2 ADD SWAP1 PUSH2 0xAA1 SWAP2 SWAP1 PUSH2 0x5373 JUMP JUMPDEST PUSH2 0x70D JUMPI PUSH1 0x40 MLOAD PUSH3 0x461BCD PUSH1 0xE5 SHL DUP2 MSTORE PUSH1 0x20 PUSH1 0x4 DUP3 ADD MSTORE PUSH1 0x2D PUSH1 0x24 DUP3 ADD MSTORE PUSH32 0x416C6C6F77616E63653A2063616C6C6572206D757374206265205265706F7369 PUSH1 0x44 DUP3 ADD MSTORE PUSH13 0x3A37B93C9027B832B930BA37B9 PUSH1 0x99 SHL PUSH1 0x64 DUP3 ADD MSTORE PUSH1 0x84 ADD PUSH2 0x704 JUMP JUMPDEST PUSH1 0x0 DUP1 PUSH2 0xB15 PUSH5 0x2540BE400 DUP5 PUSH2 0x5403 JUMP JUMPDEST SWAP1 POP DUP3 PUSH2 0xB27 DUP3 PUSH5 0x2540BE400 PUSH2 0x5425 JUMP JUMPDEST GT ISZERO PUSH2 0x75A JUMPI PUSH2 0x75A PUSH2 0x5444 JUMP JUMPDEST PUSH2 0xB3D PUSH2 0x3074 JUMP JUMPDEST PUSH2 0x70D PUSH1 0x0 PUSH2 0x30D5 JUMP JUMPDEST PUSH2 0xB4F PUSH2 0x545 JUMP JUMPDEST PUSH2 0x70D PUSH1 0x0 DUP1 SLOAD PUSH1 0xFF NOT AND PUSH1 0x1 OR SWAP1 SSTORE JUMP JUMPDEST PUSH1 0x0 PUSH2 0xB6B PUSH2 0x1298 JUMP JUMPDEST ISZERO PUSH2 0xB88 JUMPI PUSH1 0x40 MLOAD PUSH3 0x461BCD PUSH1 0xE5 SHL DUP2 MSTORE PUSH1 0x4 ADD PUSH2 0x704 SWAP1 PUSH2 0x545A JUMP JUMPDEST PUSH32 0x0 PUSH1 0x1 PUSH1 0x1 PUSH1 0xA0 SHL SUB AND PUSH4 0x4635229B PUSH1 0x40 MLOAD DUP2 PUSH4 0xFFFFFFFF AND PUSH1 0xE0 SHL DUP2 MSTORE PUSH1 0x4 ADD PUSH1 0x20 PUSH1 0x40 MLOAD DUP1 DUP4 SUB DUP2 DUP7 GAS STATICCALL ISZERO DUP1 ISZERO PUSH2 0xBE6 JUMPI RETURNDATASIZE PUSH1 0x0 DUP1 RETURNDATACOPY RETURNDATASIZE PUSH1 0x0 REVERT JUMPDEST POP POP POP POP PUSH1 0x40 MLOAD RETURNDATASIZE PUSH1 0x1F NOT PUSH1 0x1F DUP3 ADD AND DUP3 ADD DUP1 PUSH1 0x40 MSTORE POP DUP2 ADD SWAP1 PUSH2 0xC0A SWAP2 SWAP1 PUSH2 0x5373 JUMP JUMPDEST DUP1 PUSH2 0xC1D JUMPI POP PUSH1 0x1 PUSH1 0x1 PUSH1 0xA0 SHL SUB DUP7 AND CALLER EQ JUMPDEST PUSH2 0xC7F JUMPI PUSH1 0x40 MLOAD PUSH3 0x461BCD PUSH1 0xE5 SHL DUP2 MSTORE PUSH1 0x20 PUSH1 0x4 DUP3 ADD MSTORE PUSH1 0x2D PUSH1 0x24 DUP3 ADD MSTORE PUSH32 0x4D757374206265206163636F756E743D3D5F6D736753656E6465722829206F72 PUSH1 0x44 DUP3 ADD MSTORE PUSH13 0x204D6F64652054657374696E67 PUSH1 0x98 SHL PUSH1 0x64 DUP3 ADD MSTORE PUSH1 0x84 ADD PUSH2 0x704 JUMP JUMPDEST PUSH1 0x0 DUP6 DUP2 MSTORE PUSH1 0x5 PUSH1 0x20 MSTORE PUSH1 0x40 DUP1 DUP3 KECCAK256 DUP1 SLOAD SWAP2 MLOAD PUSH4 0x657C7E09 PUSH1 0xE0 SHL DUP2 MSTORE PUSH1 0x4 DUP2 ADD SWAP3 SWAP1 SWAP3 MSTORE SWAP2 SWAP1 DUP2 SWAP1 PUSH32 0x0 PUSH1 0x1 PUSH1 0x1 PUSH1 0xA0 SHL SUB AND SWAP1 PUSH4 0x657C7E09 SWAP1 PUSH1 0x24 ADD PUSH1 0x40 DUP1 MLOAD DUP1 DUP4 SUB DUP2 DUP7 GAS STATICCALL ISZERO DUP1 ISZERO PUSH2 0xCF8 JUMPI RETURNDATASIZE PUSH1 0x0 DUP1 RETURNDATACOPY RETURNDATASIZE PUSH1 0x0 REVERT JUMPDEST POP POP POP POP PUSH1 0x40 MLOAD RETURNDATASIZE PUSH1 0x1F NOT PUSH1 0x1F DUP3 ADD AND DUP3 ADD DUP1 PUSH1 0x40 MSTORE POP DUP2 ADD SWAP1 PUSH2 0xD1C SWAP2 SWAP1 PUSH2 0x5484 JUMP JUMPDEST PUSH1 0x40 MLOAD PUSH4 0x23AA9AB PUSH1 0xE6 SHL DUP2 MSTORE PUSH1 0x0 DUP1 MLOAD PUSH1 0x20 PUSH2 0x588F DUP4 CODECOPY DUP2 MLOAD SWAP2 MSTORE PUSH1 0x4 DUP3 ADD MSTORE SWAP2 SWAP4 POP SWAP2 POP PUSH32 0x0 PUSH1 0x1 PUSH1 0x1 PUSH1 0xA0 SHL SUB AND SWAP1 PUSH4 0x8EAA6AC0 SWAP1 PUSH1 0x24 ADD PUSH1 0x20 PUSH1 0x40 MLOAD DUP1 DUP4 SUB DUP2 DUP7 GAS STATICCALL ISZERO DUP1 ISZERO PUSH2 0xD93 JUMPI RETURNDATASIZE PUSH1 0x0 DUP1 RETURNDATACOPY RETURNDATASIZE PUSH1 0x0 REVERT JUMPDEST POP POP POP POP PUSH1 0x40 MLOAD RETURNDATASIZE PUSH1 0x1F NOT PUSH1 0x1F DUP3 ADD AND DUP3 ADD DUP1 PUSH1 0x40 MSTORE POP DUP2 ADD SWAP1 PUSH2 0xDB7 SWAP2 SWAP1 PUSH2 0x5395 JUMP JUMPDEST PUSH1 0x40 MLOAD PUSH4 0x4E68F20F PUSH1 0xE1 SHL DUP2 MSTORE PUSH1 0x4 DUP2 ADD DUP4 SWAP1 MSTORE PUSH1 0x1 PUSH1 0x1 PUSH1 0xA0 SHL SUB DUP12 DUP2 AND PUSH1 0x24 DUP4 ADD MSTORE SWAP2 SWAP1 SWAP2 AND SWAP1 PUSH4 0x9CD1E41E SWAP1 PUSH1 0x44 ADD PUSH1 0x20 PUSH1 0x40 MLOAD DUP1 DUP4 SUB DUP2 DUP7 GAS STATICCALL ISZERO DUP1 ISZERO PUSH2 0xE06 JUMPI RETURNDATASIZE PUSH1 0x0 DUP1 RETURNDATACOPY RETURNDATASIZE PUSH1 0x0 REVERT JUMPDEST POP POP POP POP PUSH1 0x40 MLOAD RETURNDATASIZE PUSH1 0x1F NOT PUSH1 0x1F DUP3 ADD AND DUP3 ADD DUP1 PUSH1 0x40 MSTORE POP DUP2 ADD SWAP1 PUSH2 0xE2A SWAP2 SWAP1 PUSH2 0x54A8 JUMP JUMPDEST PUSH8 0xDE0B6B3A7640000 PUSH2 0xE3D DUP9 DUP11 PUSH2 0x5425 JUMP JUMPDEST PUSH2 0xE47 SWAP2 SWAP1 PUSH2 0x5403 JUMP JUMPDEST GT ISZERO PUSH2 0xE95 JUMPI PUSH1 0x40 MLOAD PUSH3 0x461BCD PUSH1 0xE5 SHL DUP2 MSTORE PUSH1 0x20 PUSH1 0x4 DUP3 ADD MSTORE PUSH1 0x1A PUSH1 0x24 DUP3 ADD MSTORE PUSH32 0x42616E6B3A204E6F7420656E6F75676820617661696C61626C65000000000000 PUSH1 0x44 DUP3 ADD MSTORE PUSH1 0x64 ADD PUSH2 0x704 JUMP JUMPDEST PUSH1 0x1 DUP4 ADD SLOAD PUSH1 0x40 MLOAD PUSH4 0x5B7D0F69 PUSH1 0xE1 SHL DUP2 MSTORE PUSH1 0x1 PUSH1 0xA8 SHL SWAP1 SWAP2 DIV PUSH1 0xFF AND PUSH1 0x4 DUP3 ADD MSTORE PUSH1 0x0 SWAP1 PUSH20 0x0 SWAP1 PUSH4 0xB6FA1ED2 SWAP1 PUSH1 0x24 ADD PUSH1 0x20 PUSH1 0x40 MLOAD DUP1 DUP4 SUB DUP2 DUP7 GAS DELEGATECALL ISZERO DUP1 ISZERO PUSH2 0xEF6 JUMPI RETURNDATASIZE PUSH1 0x0 DUP1 RETURNDATACOPY RETURNDATASIZE PUSH1 0x0 REVERT JUMPDEST POP POP POP POP PUSH1 0x40 MLOAD RETURNDATASIZE PUSH1 0x1F NOT PUSH1 0x1F DUP3 ADD AND DUP3 ADD DUP1 PUSH1 0x40 MSTORE POP DUP2 ADD SWAP1 PUSH2 0xF1A SWAP2 SWAP1 PUSH2 0x5373 JUMP JUMPDEST ISZERO PUSH2 0x1045 JUMPI PUSH1 0x40 MLOAD PUSH4 0x23AA9AB PUSH1 0xE6 SHL DUP2 MSTORE PUSH32 0x3CB99135F7A7C088D9085B446345038A22A85F4E8FE072B0E1B66D97243E7458 PUSH1 0x4 DUP3 ADD MSTORE PUSH32 0x0 PUSH1 0x1 PUSH1 0x1 PUSH1 0xA0 SHL SUB AND SWAP1 PUSH4 0x8EAA6AC0 SWAP1 PUSH1 0x24 ADD PUSH1 0x20 PUSH1 0x40 MLOAD DUP1 DUP4 SUB DUP2 DUP7 GAS STATICCALL ISZERO DUP1 ISZERO PUSH2 0xFA3 JUMPI RETURNDATASIZE PUSH1 0x0 DUP1 RETURNDATACOPY RETURNDATASIZE PUSH1 0x0 REVERT JUMPDEST POP POP POP POP PUSH1 0x40 MLOAD RETURNDATASIZE PUSH1 0x1F NOT PUSH1 0x1F DUP3 ADD AND DUP3 ADD DUP1 PUSH1 0x40 MSTORE POP DUP2 ADD SWAP1 PUSH2 0xFC7 SWAP2 SWAP1 PUSH2 0x5395 JUMP JUMPDEST PUSH1 0x40 MLOAD PUSH4 0x32F30779 PUSH1 0xE1 SHL DUP2 MSTORE PUSH1 0x4 DUP2 ADD DUP6 SWAP1 MSTORE PUSH1 0x24 DUP2 ADD DUP5 SWAP1 MSTORE PUSH1 0x1 PUSH1 0x1 PUSH1 0xA0 SHL SUB SWAP2 SWAP1 SWAP2 AND SWAP1 PUSH4 0x65E60EF2 SWAP1 PUSH1 0x44 ADD PUSH1 0x60 PUSH1 0x40 MLOAD DUP1 DUP4 SUB DUP2 PUSH1 0x0 DUP8 GAS CALL ISZERO DUP1 ISZERO PUSH2 0x1017 JUMPI RETURNDATASIZE PUSH1 0x0 DUP1 RETURNDATACOPY RETURNDATASIZE PUSH1 0x0 REVERT JUMPDEST POP POP POP POP PUSH1 0x40 MLOAD RETURNDATASIZE PUSH1 0x1F NOT PUSH1 0x1F DUP3 ADD AND DUP3 ADD DUP1 PUSH1 0x40 MSTORE POP DUP2 ADD SWAP1 PUSH2 0x103B SWAP2 SWAP1 PUSH2 0x54C1 JUMP JUMPDEST POP SWAP2 POP PUSH2 0x1066 SWAP1 POP JUMP JUMPDEST PUSH1 0x3 DUP5 ADD SLOAD PUSH2 0x1063 SWAP1 PUSH1 0x1 PUSH1 0xC0 SHL SWAP1 DIV PUSH1 0x1 PUSH1 0x1 PUSH1 0x40 SHL SUB AND PUSH2 0x2305 JUMP JUMPDEST SWAP1 POP JUMPDEST PUSH8 0xDE0B6B3A7640000 PUSH2 0x1079 DUP8 DUP3 PUSH2 0x54EF JUMP JUMPDEST PUSH2 0x1083 SWAP1 DUP10 PUSH2 0x5425 JUMP JUMPDEST PUSH2 0x108D SWAP2 SWAP1 PUSH2 0x5403 JUMP JUMPDEST DUP2 GT ISZERO DUP1 ISZERO PUSH2 0x10C2 JUMPI POP PUSH8 0xDE0B6B3A7640000 PUSH2 0x10AA DUP8 DUP3 PUSH2 0x5506 JUMP JUMPDEST PUSH2 0x10B4 SWAP1 DUP10 PUSH2 0x5425 JUMP JUMPDEST PUSH2 0x10BE SWAP2 SWAP1 PUSH2 0x5403 JUMP JUMPDEST DUP2 LT ISZERO JUMPDEST PUSH2 0x110E JUMPI PUSH1 0x40 MLOAD PUSH3 0x461BCD PUSH1 0xE5 SHL DUP2 MSTORE PUSH1 0x20 PUSH1 0x4 DUP3 ADD MSTORE PUSH1 0x1C PUSH1 0x24 DUP3 ADD MSTORE PUSH32 0x51756F746520536C6970706564206F76657220746F6C6572616E636500000000 PUSH1 0x44 DUP3 ADD MSTORE PUSH1 0x64 ADD PUSH2 0x704 JUMP JUMPDEST PUSH1 0x0 DUP2 PUSH2 0x111B DUP10 DUP12 PUSH2 0x5425 JUMP JUMPDEST PUSH2 0x1125 SWAP2 SWAP1 PUSH2 0x5403 JUMP JUMPDEST PUSH1 0x3 DUP7 ADD SLOAD SWAP1 SWAP2 POP PUSH1 0x0 SWAP1 PUSH2 0x1150 SWAP1 PUSH2 0x462 SWAP1 PUSH1 0x1 PUSH1 0x1 PUSH1 0x40 SHL SUB PUSH1 0x1 PUSH1 0x40 SHL DUP3 DIV DUP2 AND SWAP2 AND PUSH2 0x551E JUMP JUMPDEST SWAP1 POP DUP2 DUP2 LT ISZERO PUSH2 0x115E JUMPI DUP1 SWAP2 POP JUMPDEST PUSH2 0x116B DUP7 DUP14 PUSH1 0x0 DUP14 PUSH2 0x3130 JUMP JUMPDEST PUSH2 0x1174 DUP11 PUSH2 0xB03 JUMP JUMPDEST PUSH1 0x3 DUP8 ADD DUP1 SLOAD PUSH1 0x8 SWAP1 PUSH2 0x1198 SWAP1 DUP5 SWAP1 PUSH1 0x1 PUSH1 0x40 SHL SWAP1 DIV PUSH1 0x1 PUSH1 0x1 PUSH1 0x40 SHL SUB AND PUSH2 0x5546 JUMP JUMPDEST DUP3 SLOAD PUSH2 0x100 SWAP3 SWAP1 SWAP3 EXP PUSH1 0x1 PUSH1 0x1 PUSH1 0x40 SHL SUB DUP2 DUP2 MUL NOT SWAP1 SWAP4 AND SWAP2 DUP4 AND MUL OR SWAP1 SWAP2 SSTORE PUSH1 0x3 DUP9 ADD SLOAD PUSH1 0x1 PUSH1 0x80 SHL DUP2 DIV DUP3 AND PUSH1 0x1 PUSH1 0x40 SHL SWAP1 SWAP2 DIV SWAP1 SWAP2 AND EQ ISZERO SWAP1 POP PUSH2 0x11E4 JUMPI PUSH2 0x11E4 DUP7 PUSH1 0x3 PUSH2 0x38CA JUMP JUMPDEST PUSH1 0x1 DUP7 ADD SLOAD PUSH1 0x40 DUP1 MLOAD PUSH1 0x1 PUSH1 0x1 PUSH1 0xA0 SHL SUB SWAP3 DUP4 AND DUP2 MSTORE SWAP2 DUP15 AND PUSH1 0x20 DUP4 ADD MSTORE DUP2 ADD DUP5 SWAP1 MSTORE PUSH1 0x60 DUP2 ADD DUP4 SWAP1 MSTORE DUP5 SWAP1 DUP7 SWAP1 PUSH32 0x49DA6C773C11F8E65FD2FFB9512FA3F24DC8759FBCEDB687F0B59694ADC1D343 SWAP1 PUSH1 0x80 ADD PUSH1 0x40 MLOAD DUP1 SWAP2 SUB SWAP1 LOG3 PUSH1 0x3 PUSH1 0x1 DUP8 ADD SLOAD PUSH1 0x1 PUSH1 0xA0 SHL SWAP1 DIV PUSH1 0xFF AND PUSH1 0x5 DUP2 GT ISZERO PUSH2 0x1261 JUMPI PUSH2 0x1261 PUSH2 0x4F88 JUMP JUMPDEST GT PUSH2 0x126F JUMPI PUSH2 0x126F DUP7 PUSH2 0x3DBC JUMP JUMPDEST POP SWAP8 SWAP11 SWAP10 POP POP POP POP POP POP POP POP POP POP JUMP JUMPDEST PUSH1 0x0 PUSH2 0x75A PUSH6 0xFFFFFFFFFFFF DUP4 AND PUSH5 0x174876E800 PUSH2 0x5425 JUMP JUMPDEST PUSH1 0x0 DUP1 SLOAD PUSH1 0xFF AND DUP1 PUSH2 0x12B1 JUMPI POP PUSH1 0x0 SLOAD PUSH2 0x100 SWAP1 DIV PUSH1 0xFF AND JUMPDEST SWAP1 POP SWAP1 JUMP JUMPDEST PUSH1 0x40 MLOAD PUSH4 0x23AA9AB PUSH1 0xE6 SHL DUP2 MSTORE PUSH32 0x2E7A327EF83C2AF7579C6634F2F5604519800C5F07626F27BD602FD11ED8E6EC PUSH1 0x4 DUP3 ADD MSTORE PUSH1 0x0 SWAP1 PUSH32 0x0 PUSH1 0x1 PUSH1 0x1 PUSH1 0xA0 SHL SUB AND SWAP1 PUSH4 0x8EAA6AC0 SWAP1 PUSH1 0x24 ADD PUSH1 0x20 PUSH1 0x40 MLOAD DUP1 DUP4 SUB DUP2 DUP7 GAS STATICCALL ISZERO DUP1 ISZERO PUSH2 0x133D JUMPI RETURNDATASIZE PUSH1 0x0 DUP1 RETURNDATACOPY RETURNDATASIZE PUSH1 0x0 REVERT JUMPDEST POP POP POP POP PUSH1 0x40 MLOAD RETURNDATASIZE PUSH1 0x1F NOT PUSH1 0x1F DUP3 ADD AND DUP3 ADD DUP1 PUSH1 0x40 MSTORE POP DUP2 ADD SWAP1 PUSH2 0x1361 SWAP2 SWAP1 PUSH2 0x5395 JUMP JUMPDEST PUSH1 0x40 DUP1 MLOAD ADDRESS PUSH1 0x24 DUP3 ADD MSTORE PUSH1 0x44 DUP1 DUP3 ADD DUP7 SWAP1 MSTORE DUP3 MLOAD DUP1 DUP4 SUB SWAP1 SWAP2 ADD DUP2 MSTORE PUSH1 0x64 SWAP1 SWAP2 ADD DUP3 MSTORE PUSH1 0x20 DUP2 ADD DUP1 MLOAD PUSH1 0x1 PUSH1 0x1 PUSH1 0xE0 SHL SUB AND PUSH4 0x76F466FF PUSH1 0xE1 SHL OR SWAP1 MSTORE SWAP1 MLOAD PUSH1 0x1 PUSH1 0x1 PUSH1 0xA0 SHL SUB SWAP3 SWAP1 SWAP3 AND SWAP2 PUSH2 0x13B7 SWAP2 SWAP1 PUSH2 0x53B2 JUMP JUMPDEST PUSH1 0x0 PUSH1 0x40 MLOAD DUP1 DUP4 SUB DUP2 PUSH1 0x0 DUP7 GAS CALL SWAP2 POP POP RETURNDATASIZE DUP1 PUSH1 0x0 DUP2 EQ PUSH2 0x13F4 JUMPI PUSH1 0x40 MLOAD SWAP2 POP PUSH1 0x1F NOT PUSH1 0x3F RETURNDATASIZE ADD AND DUP3 ADD PUSH1 0x40 MSTORE RETURNDATASIZE DUP3 MSTORE RETURNDATASIZE PUSH1 0x0 PUSH1 0x20 DUP5 ADD RETURNDATACOPY PUSH2 0x13F9 JUMP JUMPDEST PUSH1 0x60 SWAP2 POP JUMPDEST POP POP SWAP1 POP PUSH2 0x725 DUP2 PUSH2 0x70F JUMP JUMPDEST PUSH1 0x0 PUSH2 0x1415 CALLER DUP7 DUP7 DUP7 DUP7 PUSH2 0x777 JUMP JUMPDEST SWAP6 SWAP5 POP POP POP POP POP JUMP JUMPDEST PUSH1 0x0 PUSH2 0x1428 PUSH2 0x1298 JUMP JUMPDEST ISZERO PUSH2 0x1445 JUMPI PUSH1 0x40 MLOAD PUSH3 0x461BCD PUSH1 0xE5 SHL DUP2 MSTORE PUSH1 0x4 ADD PUSH2 0x704 SWAP1 PUSH2 0x545A JUMP JUMPDEST PUSH32 0x0 PUSH1 0x1 PUSH1 0x1 PUSH1 0xA0 SHL SUB AND PUSH4 0x4635229B PUSH1 0x40 MLOAD DUP2 PUSH4 0xFFFFFFFF AND PUSH1 0xE0 SHL DUP2 MSTORE PUSH1 0x4 ADD PUSH1 0x20 PUSH1 0x40 MLOAD DUP1 DUP4 SUB DUP2 DUP7 GAS STATICCALL ISZERO DUP1 ISZERO PUSH2 0x14A3 JUMPI RETURNDATASIZE PUSH1 0x0 DUP1 RETURNDATACOPY RETURNDATASIZE PUSH1 0x0 REVERT JUMPDEST POP POP POP POP PUSH1 0x40 MLOAD RETURNDATASIZE PUSH1 0x1F NOT PUSH1 0x1F DUP3 ADD AND DUP3 ADD DUP1 PUSH1 0x40 MSTORE POP DUP2 ADD SWAP1 PUSH2 0x14C7 SWAP2 SWAP1 PUSH2 0x5373 JUMP JUMPDEST DUP1 PUSH2 0x14DA JUMPI POP PUSH1 0x1 PUSH1 0x1 PUSH1 0xA0 SHL SUB DUP9 AND CALLER EQ JUMPDEST PUSH2 0x14F6 JUMPI PUSH1 0x40 MLOAD PUSH3 0x461BCD PUSH1 0xE5 SHL DUP2 MSTORE PUSH1 0x4 ADD PUSH2 0x704 SWAP1 PUSH2 0x5571 JUMP JUMPDEST PUSH1 0x40 MLOAD PUSH4 0xC5537EB7 PUSH1 0xE0 SHL DUP2 MSTORE PUSH1 0x4 DUP2 ADD DUP9 SWAP1 MSTORE PUSH2 0x800 PUSH1 0x24 DUP3 ADD MSTORE PUSH32 0x0 PUSH1 0x1 PUSH1 0x1 PUSH1 0xA0 SHL SUB AND SWAP1 PUSH4 0xC5537EB7 SWAP1 PUSH1 0x44 ADD PUSH1 0x20 PUSH1 0x40 MLOAD DUP1 DUP4 SUB DUP2 DUP7 GAS STATICCALL ISZERO DUP1 ISZERO PUSH2 0x1563 JUMPI RETURNDATASIZE PUSH1 0x0 DUP1 RETURNDATACOPY RETURNDATASIZE PUSH1 0x0 REVERT JUMPDEST POP POP POP POP PUSH1 0x40 MLOAD RETURNDATASIZE PUSH1 0x1F NOT PUSH1 0x1F DUP3 ADD AND DUP3 ADD DUP1 PUSH1 0x40 MSTORE POP DUP2 ADD SWAP1 PUSH2 0x1587 SWAP2 SWAP1 PUSH2 0x5373 JUMP JUMPDEST ISZERO PUSH2 0x17A4 JUMPI PUSH1 0x40 MLOAD PUSH4 0xC25E483 PUSH1 0xE1 SHL DUP2 MSTORE PUSH1 0x4 DUP2 ADD DUP9 SWAP1 MSTORE PUSH1 0x0 SWAP1 PUSH32 0x0 PUSH1 0x1 PUSH1 0x1 PUSH1 0xA0 SHL SUB AND SWAP1 PUSH4 0x184BC906 SWAP1 PUSH1 0x24 ADD PUSH1 0x20 PUSH1 0x40 MLOAD DUP1 DUP4 SUB DUP2 DUP7 GAS STATICCALL ISZERO DUP1 ISZERO PUSH2 0x15F4 JUMPI RETURNDATASIZE PUSH1 0x0 DUP1 RETURNDATACOPY RETURNDATASIZE PUSH1 0x0 REVERT JUMPDEST POP POP POP POP PUSH1 0x40 MLOAD RETURNDATASIZE PUSH1 0x1F NOT PUSH1 0x1F DUP3 ADD AND DUP3 ADD DUP1 PUSH1 0x40 MSTORE POP DUP2 ADD SWAP1 PUSH2 0x1618 SWAP2 SWAP1 PUSH2 0x5395 JUMP JUMPDEST SWAP1 POP DUP1 PUSH1 0x1 PUSH1 0x1 PUSH1 0xA0 SHL SUB AND PUSH4 0xF5AC9DB6 PUSH1 0x40 MLOAD DUP2 PUSH4 0xFFFFFFFF AND PUSH1 0xE0 SHL DUP2 MSTORE PUSH1 0x4 ADD PUSH1 0x20 PUSH1 0x40 MLOAD DUP1 DUP4 SUB DUP2 DUP7 GAS STATICCALL ISZERO DUP1 ISZERO PUSH2 0x1658 JUMPI RETURNDATASIZE PUSH1 0x0 DUP1 RETURNDATACOPY RETURNDATASIZE PUSH1 0x0 REVERT JUMPDEST POP POP POP POP PUSH1 0x40 MLOAD RETURNDATASIZE PUSH1 0x1F NOT PUSH1 0x1F DUP3 ADD AND DUP3 ADD DUP1 PUSH1 0x40 MSTORE POP DUP2 ADD SWAP1 PUSH2 0x167C SWAP2 SWAP1 PUSH2 0x5373 JUMP JUMPDEST PUSH2 0x16BD JUMPI PUSH1 0x40 MLOAD PUSH3 0x461BCD PUSH1 0xE5 SHL DUP2 MSTORE PUSH1 0x20 PUSH1 0x4 DUP3 ADD MSTORE PUSH1 0x12 PUSH1 0x24 DUP3 ADD MSTORE PUSH18 0x46726F6D206E6F7420747261646561626C65 PUSH1 0x70 SHL PUSH1 0x44 DUP3 ADD MSTORE PUSH1 0x64 ADD PUSH2 0x704 JUMP JUMPDEST DUP1 PUSH1 0x1 PUSH1 0x1 PUSH1 0xA0 SHL SUB AND PUSH4 0xE499427 PUSH1 0x40 MLOAD DUP2 PUSH4 0xFFFFFFFF AND PUSH1 0xE0 SHL DUP2 MSTORE PUSH1 0x4 ADD PUSH1 0x20 PUSH1 0x40 MLOAD DUP1 DUP4 SUB DUP2 DUP7 GAS STATICCALL ISZERO DUP1 ISZERO PUSH2 0x16FB JUMPI RETURNDATASIZE PUSH1 0x0 DUP1 RETURNDATACOPY RETURNDATASIZE PUSH1 0x0 REVERT JUMPDEST POP POP POP POP PUSH1 0x40 MLOAD RETURNDATASIZE PUSH1 0x1F NOT PUSH1 0x1F DUP3 ADD AND DUP3 ADD DUP1 PUSH1 0x40 MSTORE POP DUP2 ADD SWAP1 PUSH2 0x171F SWAP2 SWAP1 PUSH2 0x5373 JUMP JUMPDEST DUP1 ISZERO PUSH2 0x174B JUMPI POP PUSH32 0xAD3228B676F7D3CD4284A5443F17F1962B36E491B30A40B2405849E597BA5FB5 DUP8 EQ ISZERO JUMPDEST PUSH2 0x17A2 JUMPI PUSH1 0x40 MLOAD PUSH3 0x461BCD PUSH1 0xE5 SHL DUP2 MSTORE PUSH1 0x20 PUSH1 0x4 DUP3 ADD MSTORE PUSH1 0x22 PUSH1 0x24 DUP3 ADD MSTORE PUSH32 0x46726F6D206973206F6E6C7920747261646561626C6520746F2043757272656E PUSH1 0x44 DUP3 ADD MSTORE PUSH2 0x6379 PUSH1 0xF0 SHL PUSH1 0x64 DUP3 ADD MSTORE PUSH1 0x84 ADD PUSH2 0x704 JUMP JUMPDEST POP JUMPDEST PUSH1 0x40 MLOAD PUSH4 0xD47A7EDD PUSH1 0xE0 SHL DUP2 MSTORE PUSH1 0x4 DUP2 ADD DUP9 SWAP1 MSTORE PUSH32 0x0 PUSH1 0x1 PUSH1 0x1 PUSH1 0xA0 SHL SUB AND SWAP1 PUSH4 0xD47A7EDD SWAP1 PUSH1 0x24 ADD PUSH1 0x20 PUSH1 0x40 MLOAD DUP1 DUP4 SUB DUP2 DUP7 GAS STATICCALL ISZERO DUP1 ISZERO PUSH2 0x1809 JUMPI RETURNDATASIZE PUSH1 0x0 DUP1 RETURNDATACOPY RETURNDATASIZE PUSH1 0x0 REVERT JUMPDEST POP POP POP POP PUSH1 0x40 MLOAD RETURNDATASIZE PUSH1 0x1F NOT PUSH1 0x1F DUP3 ADD AND DUP3 ADD DUP1 PUSH1 0x40 MSTORE POP DUP2 ADD SWAP1 PUSH2 0x182D SWAP2 SWAP1 PUSH2 0x5373 JUMP JUMPDEST ISZERO DUP1 PUSH2 0x1840 JUMPI POP DUP4 PUSH8 0xDE0B6B3A7640000 EQ JUMPDEST DUP1 PUSH2 0x184A JUMPI POP DUP4 DUP6 EQ JUMPDEST PUSH2 0x18AA JUMPI PUSH1 0x40 MLOAD PUSH3 0x461BCD PUSH1 0xE5 SHL DUP2 MSTORE PUSH1 0x20 PUSH1 0x4 DUP3 ADD MSTORE PUSH1 0x2B PUSH1 0x24 DUP3 ADD MSTORE PUSH32 0x2746726F6D27206973204E46542071747920616E64206772616E756C61726974 PUSH1 0x44 DUP3 ADD MSTORE PUSH11 0x79206D7573742062652031 PUSH1 0xA8 SHL PUSH1 0x64 DUP3 ADD MSTORE PUSH1 0x84 ADD PUSH2 0x704 JUMP JUMPDEST PUSH1 0x40 MLOAD PUSH4 0x23AA9AB PUSH1 0xE6 SHL DUP2 MSTORE PUSH1 0x0 DUP1 MLOAD PUSH1 0x20 PUSH2 0x588F DUP4 CODECOPY DUP2 MLOAD SWAP2 MSTORE PUSH1 0x4 DUP3 ADD MSTORE PUSH32 0x0 PUSH1 0x1 PUSH1 0x1 PUSH1 0xA0 SHL SUB AND SWAP1 PUSH4 0x8EAA6AC0 SWAP1 PUSH1 0x24 ADD PUSH1 0x20 PUSH1 0x40 MLOAD DUP1 DUP4 SUB DUP2 DUP7 GAS STATICCALL ISZERO DUP1 ISZERO PUSH2 0x191C JUMPI RETURNDATASIZE PUSH1 0x0 DUP1 RETURNDATACOPY RETURNDATASIZE PUSH1 0x0 REVERT JUMPDEST POP POP POP POP PUSH1 0x40 MLOAD RETURNDATASIZE PUSH1 0x1F NOT PUSH1 0x1F DUP3 ADD AND DUP3 ADD DUP1 PUSH1 0x40 MSTORE POP DUP2 ADD SWAP1 PUSH2 0x1940 SWAP2 SWAP1 PUSH2 0x5395 JUMP JUMPDEST PUSH1 0x40 MLOAD PUSH4 0x4E68F20F PUSH1 0xE1 SHL DUP2 MSTORE PUSH1 0x4 DUP2 ADD DUP10 SWAP1 MSTORE PUSH1 0x1 PUSH1 0x1 PUSH1 0xA0 SHL SUB DUP11 DUP2 AND PUSH1 0x24 DUP4 ADD MSTORE SWAP2 SWAP1 SWAP2 AND SWAP1 PUSH4 0x9CD1E41E SWAP1 PUSH1 0x44 ADD PUSH1 0x20 PUSH1 0x40 MLOAD DUP1 DUP4 SUB DUP2 DUP7 GAS STATICCALL ISZERO DUP1 ISZERO PUSH2 0x198F JUMPI RETURNDATASIZE PUSH1 0x0 DUP1 RETURNDATACOPY RETURNDATASIZE PUSH1 0x0 REVERT JUMPDEST POP POP POP POP PUSH1 0x40 MLOAD RETURNDATASIZE PUSH1 0x1F NOT PUSH1 0x1F DUP3 ADD AND DUP3 ADD DUP1 PUSH1 0x40 MSTORE POP DUP2 ADD SWAP1 PUSH2 0x19B3 SWAP2 SWAP1 PUSH2 0x54A8 JUMP JUMPDEST DUP5 GT ISZERO PUSH2 0x1A02 JUMPI PUSH1 0x40 MLOAD PUSH3 0x461BCD PUSH1 0xE5 SHL DUP2 MSTORE PUSH1 0x20 PUSH1 0x4 DUP3 ADD MSTORE PUSH1 0x1A PUSH1 0x24 DUP3 ADD MSTORE PUSH32 0x42616E6B3A204E6F7420656E6F75676820617661696C61626C65000000000000 PUSH1 0x44 DUP3 ADD MSTORE PUSH1 0x64 ADD PUSH2 0x704 JUMP JUMPDEST PUSH1 0x40 DUP1 MLOAD PUSH2 0x180 DUP2 ADD DUP3 MSTORE PUSH1 0x0 DUP1 DUP3 MSTORE PUSH1 0x20 DUP3 ADD DUP2 SWAP1 MSTORE SWAP2 DUP2 ADD DUP3 SWAP1 MSTORE PUSH1 0x60 DUP2 ADD DUP3 SWAP1 MSTORE PUSH1 0x80 DUP2 ADD DUP3 SWAP1 MSTORE PUSH1 0xA0 DUP2 ADD DUP3 SWAP1 MSTORE PUSH1 0xC0 DUP2 ADD DUP3 SWAP1 MSTORE PUSH1 0xE0 DUP2 ADD DUP3 SWAP1 MSTORE PUSH2 0x100 DUP2 ADD DUP3 SWAP1 MSTORE PUSH2 0x120 DUP2 ADD DUP3 SWAP1 MSTORE PUSH2 0x140 DUP2 ADD DUP3 SWAP1 MSTORE PUSH2 0x160 DUP2 ADD SWAP2 SWAP1 SWAP2 MSTORE PUSH1 0x1 PUSH1 0x1 PUSH1 0xA0 SHL SUB DUP10 DUP2 AND PUSH1 0x20 DUP4 ADD MSTORE PUSH1 0x40 MLOAD PUSH4 0x61E99FFB PUSH1 0xE0 SHL DUP2 MSTORE PUSH1 0x4 DUP2 ADD DUP11 SWAP1 MSTORE PUSH1 0x24 DUP2 ADD DUP10 SWAP1 MSTORE PUSH32 0x0 SWAP1 SWAP2 AND SWAP1 PUSH4 0x61E99FFB SWAP1 PUSH1 0x44 ADD PUSH1 0x20 PUSH1 0x40 MLOAD DUP1 DUP4 SUB DUP2 PUSH1 0x0 DUP8 GAS CALL ISZERO DUP1 ISZERO PUSH2 0x1ADB JUMPI RETURNDATASIZE PUSH1 0x0 DUP1 RETURNDATACOPY RETURNDATASIZE PUSH1 0x0 REVERT JUMPDEST POP POP POP POP PUSH1 0x40 MLOAD RETURNDATASIZE PUSH1 0x1F NOT PUSH1 0x1F DUP3 ADD AND DUP3 ADD DUP1 PUSH1 0x40 MSTORE POP DUP2 ADD SWAP1 PUSH2 0x1AFF SWAP2 SWAP1 PUSH2 0x54A8 JUMP JUMPDEST DUP2 MSTORE PUSH2 0x1B0A DUP7 PUSH2 0xB03 JUMP JUMPDEST PUSH1 0x1 PUSH1 0x1 PUSH1 0x40 SHL SUB AND PUSH2 0x120 DUP3 ADD MSTORE PUSH2 0x1B22 DUP6 PUSH2 0xB03 JUMP JUMPDEST PUSH1 0x1 PUSH1 0x1 PUSH1 0x40 SHL SUB AND PUSH1 0xA0 DUP3 ADD MSTORE PUSH2 0x1B39 DUP5 PUSH2 0xB03 JUMP JUMPDEST PUSH1 0x1 PUSH1 0x1 PUSH1 0x40 SHL SUB AND PUSH2 0x100 DUP3 ADD MSTORE PUSH1 0x60 DUP2 ADD MLOAD PUSH1 0x40 MLOAD PUSH4 0x5B7D0F69 PUSH1 0xE1 SHL DUP2 MSTORE PUSH1 0xFF SWAP1 SWAP2 AND PUSH1 0x4 DUP3 ADD MSTORE PUSH20 0x0 SWAP1 PUSH4 0xB6FA1ED2 SWAP1 PUSH1 0x24 ADD PUSH1 0x20 PUSH1 0x40 MLOAD DUP1 DUP4 SUB DUP2 DUP7 GAS DELEGATECALL ISZERO DUP1 ISZERO PUSH2 0x1BA0 JUMPI RETURNDATASIZE PUSH1 0x0 DUP1 RETURNDATACOPY RETURNDATASIZE PUSH1 0x0 REVERT JUMPDEST POP POP POP POP PUSH1 0x40 MLOAD RETURNDATASIZE PUSH1 0x1F NOT PUSH1 0x1F DUP3 ADD AND DUP3 ADD DUP1 PUSH1 0x40 MSTORE POP DUP2 ADD SWAP1 PUSH2 0x1BC4 SWAP2 SWAP1 PUSH2 0x5373 JUMP JUMPDEST ISZERO PUSH2 0x1D49 JUMPI PUSH1 0x40 MLOAD PUSH4 0x23AA9AB PUSH1 0xE6 SHL DUP2 MSTORE PUSH32 0x3CB99135F7A7C088D9085B446345038A22A85F4E8FE072B0E1B66D97243E7458 PUSH1 0x4 DUP3 ADD MSTORE PUSH1 0x0 SWAP1 PUSH32 0x0 PUSH1 0x1 PUSH1 0x1 PUSH1 0xA0 SHL SUB AND SWAP1 PUSH4 0x8EAA6AC0 SWAP1 PUSH1 0x24 ADD PUSH1 0x20 PUSH1 0x40 MLOAD DUP1 DUP4 SUB DUP2 DUP7 GAS STATICCALL ISZERO DUP1 ISZERO PUSH2 0x1C50 JUMPI RETURNDATASIZE PUSH1 0x0 DUP1 RETURNDATACOPY RETURNDATASIZE PUSH1 0x0 REVERT JUMPDEST POP POP POP POP PUSH1 0x40 MLOAD RETURNDATASIZE PUSH1 0x1F NOT PUSH1 0x1F DUP3 ADD AND DUP3 ADD DUP1 PUSH1 0x40 MSTORE POP DUP2 ADD SWAP1 PUSH2 0x1C74 SWAP2 SWAP1 PUSH2 0x5395 JUMP JUMPDEST PUSH1 0x40 MLOAD PUSH4 0x32F30779 PUSH1 0xE1 SHL DUP2 MSTORE PUSH1 0x4 DUP2 ADD DUP12 SWAP1 MSTORE PUSH1 0x24 DUP2 ADD DUP11 SWAP1 MSTORE PUSH1 0x1 PUSH1 0x1 PUSH1 0xA0 SHL SUB SWAP2 SWAP1 SWAP2 AND SWAP1 PUSH4 0x65E60EF2 SWAP1 PUSH1 0x44 ADD PUSH1 0x60 PUSH1 0x40 MLOAD DUP1 DUP4 SUB DUP2 PUSH1 0x0 DUP8 GAS CALL ISZERO DUP1 ISZERO PUSH2 0x1CC4 JUMPI RETURNDATASIZE PUSH1 0x0 DUP1 RETURNDATACOPY RETURNDATASIZE PUSH1 0x0 REVERT JUMPDEST POP POP POP POP PUSH1 0x40 MLOAD RETURNDATASIZE PUSH1 0x1F NOT PUSH1 0x1F DUP3 ADD AND DUP3 ADD DUP1 PUSH1 0x40 MSTORE POP DUP2 ADD SWAP1 PUSH2 0x1CE8 SWAP2 SWAP1 PUSH2 0x54C1 JUMP JUMPDEST POP SWAP2 POP PUSH2 0x1CF6 SWAP1 POP DUP2 PUSH2 0xB03 JUMP JUMPDEST PUSH1 0x1 PUSH1 0x1 PUSH1 0x40 SHL SUB AND PUSH2 0x160 DUP4 ADD DUP2 SWAP1 MSTORE PUSH2 0x1D47 JUMPI PUSH1 0x40 MLOAD PUSH3 0x461BCD PUSH1 0xE5 SHL DUP2 MSTORE PUSH1 0x20 PUSH1 0x4 DUP3 ADD MSTORE PUSH1 0x11 PUSH1 0x24 DUP3 ADD MSTORE PUSH17 0x145D5BDD194E88139BDD081C5D5BDD1959 PUSH1 0x7A SHL PUSH1 0x44 DUP3 ADD MSTORE PUSH1 0x64 ADD PUSH2 0x704 JUMP JUMPDEST POP JUMPDEST PUSH1 0x60 DUP2 ADD MLOAD PUSH1 0x40 MLOAD PUSH4 0xF0340A37 PUSH1 0xE0 SHL DUP2 MSTORE PUSH1 0xFF SWAP1 SWAP2 AND PUSH1 0x4 DUP3 ADD MSTORE PUSH20 0x0 SWAP1 PUSH4 0xF0340A37 SWAP1 PUSH1 0x24 ADD PUSH1 0x20 PUSH1 0x40 MLOAD DUP1 DUP4 SUB DUP2 DUP7 GAS DELEGATECALL ISZERO DUP1 ISZERO PUSH2 0x1DA1 JUMPI RETURNDATASIZE PUSH1 0x0 DUP1 RETURNDATACOPY RETURNDATASIZE PUSH1 0x0 REVERT JUMPDEST POP POP POP POP PUSH1 0x40 MLOAD RETURNDATASIZE PUSH1 0x1F NOT PUSH1 0x1F DUP3 ADD AND DUP3 ADD DUP1 PUSH1 0x40 MSTORE POP DUP2 ADD SWAP1 PUSH2 0x1DC5 SWAP2 SWAP1 PUSH2 0x5373 JUMP JUMPDEST ISZERO PUSH2 0x1EC8 JUMPI PUSH1 0x40 MLOAD PUSH4 0x23AA9AB PUSH1 0xE6 SHL DUP2 MSTORE PUSH1 0x0 DUP1 MLOAD PUSH1 0x20 PUSH2 0x588F DUP4 CODECOPY DUP2 MLOAD SWAP2 MSTORE PUSH1 0x4 DUP3 ADD MSTORE PUSH32 0x0 PUSH1 0x1 PUSH1 0x1 PUSH1 0xA0 SHL SUB AND SWAP1 PUSH4 0x8EAA6AC0 SWAP1 PUSH1 0x24 ADD PUSH1 0x20 PUSH1 0x40 MLOAD DUP1 DUP4 SUB DUP2 DUP7 GAS STATICCALL ISZERO DUP1 ISZERO PUSH2 0x1E3C JUMPI RETURNDATASIZE PUSH1 0x0 DUP1 RETURNDATACOPY RETURNDATASIZE PUSH1 0x0 REVERT JUMPDEST POP POP POP POP PUSH1 0x40 MLOAD RETURNDATASIZE PUSH1 0x1F NOT PUSH1 0x1F DUP3 ADD AND DUP3 ADD DUP1 PUSH1 0x40 MSTORE POP DUP2 ADD SWAP1 PUSH2 0x1E60 SWAP2 SWAP1 PUSH2 0x5395 JUMP JUMPDEST PUSH1 0x1 PUSH1 0x1 PUSH1 0xA0 SHL SUB AND PUSH4 0x56A1FD3A DUP9 DUP4 PUSH1 0x20 ADD MLOAD ADDRESS DUP10 PUSH1 0x40 MLOAD DUP6 PUSH4 0xFFFFFFFF AND PUSH1 0xE0 SHL DUP2 MSTORE PUSH1 0x4 ADD PUSH2 0x1E95 SWAP5 SWAP4 SWAP3 SWAP2 SWAP1 PUSH2 0x55BC JUMP JUMPDEST PUSH1 0x0 PUSH1 0x40 MLOAD DUP1 DUP4 SUB DUP2 PUSH1 0x0 DUP8 DUP1 EXTCODESIZE ISZERO DUP1 ISZERO PUSH2 0x1EAF JUMPI PUSH1 0x0 DUP1 REVERT JUMPDEST POP GAS CALL ISZERO DUP1 ISZERO PUSH2 0x1EC3 JUMPI RETURNDATASIZE PUSH1 0x0 DUP1 RETURNDATACOPY RETURNDATASIZE PUSH1 0x0 REVERT JUMPDEST POP POP POP POP JUMPDEST PUSH1 0x3 DUP1 SLOAD PUSH1 0x1 ADD SWAP1 SSTORE JUMPDEST PUSH1 0x3 SLOAD ISZERO DUP1 ISZERO PUSH2 0x1EF5 JUMPI POP PUSH1 0x3 SLOAD PUSH1 0x0 SWAP1 DUP2 MSTORE PUSH1 0x5 PUSH1 0x20 MSTORE PUSH1 0x40 SWAP1 KECCAK256 PUSH1 0x2 ADD SLOAD ISZERO ISZERO JUMPDEST ISZERO PUSH2 0x1F08 JUMPI PUSH1 0x3 DUP1 SLOAD PUSH1 0x1 ADD SWAP1 SSTORE PUSH2 0x1ED2 JUMP JUMPDEST PUSH1 0x3 SLOAD PUSH1 0x80 DUP3 ADD DUP2 SWAP1 MSTORE PUSH1 0xA0 DUP3 ADD MLOAD PUSH1 0x1 PUSH1 0x1 PUSH1 0x40 SHL SUB SWAP1 DUP2 AND PUSH1 0xE0 DUP5 ADD MSTORE PUSH1 0x4 PUSH1 0x40 DUP1 DUP6 ADD SWAP2 DUP3 MSTORE PUSH1 0xFF DUP8 AND PUSH1 0x60 DUP7 ADD MSTORE PUSH2 0x100 DUP6 ADD MLOAD SWAP1 SWAP3 AND PUSH2 0x140 DUP6 ADD MSTORE PUSH1 0x0 SWAP3 DUP4 MSTORE PUSH1 0x5 PUSH1 0x20 DUP2 DUP2 MSTORE SWAP3 SWAP1 SWAP4 KECCAK256 DUP5 MLOAD DUP2 SSTORE SWAP2 DUP5 ADD MLOAD PUSH1 0x1 DUP4 ADD DUP1 SLOAD PUSH1 0x1 PUSH1 0x1 PUSH1 0xA0 SHL SUB SWAP1 SWAP3 AND PUSH1 0x1 PUSH1 0x1 PUSH1 0xA0 SHL SUB NOT DUP4 AND DUP2 OR DUP3 SSTORE SWAP3 MLOAD DUP7 SWAP6 SWAP1 SWAP4 SWAP2 SWAP3 PUSH1 0x1 PUSH1 0x1 PUSH1 0xA8 SHL SUB NOT AND SWAP1 SWAP2 OR SWAP1 PUSH1 0x1 PUSH1 0xA0 SHL SWAP1 DUP5 SWAP1 DUP2 GT ISZERO PUSH2 0x1FAE JUMPI PUSH2 0x1FAE PUSH2 0x4F88 JUMP JUMPDEST MUL OR SWAP1 SSTORE POP PUSH1 0x60 DUP3 ADD MLOAD PUSH1 0x1 DUP3 ADD DUP1 SLOAD PUSH1 0xFF PUSH1 0xA8 SHL NOT AND PUSH1 0x1 PUSH1 0xA8 SHL PUSH1 0xFF SWAP1 SWAP4 AND SWAP3 SWAP1 SWAP3 MUL SWAP2 SWAP1 SWAP2 OR SWAP1 SSTORE PUSH1 0x80 DUP1 DUP4 ADD MLOAD PUSH1 0x2 DUP4 ADD SSTORE PUSH1 0xA0 DUP4 ADD MLOAD PUSH1 0x3 DUP4 ADD DUP1 SLOAD PUSH1 0xC0 DUP7 ADD MLOAD PUSH1 0xE0 DUP8 ADD MLOAD PUSH2 0x100 DUP9 ADD MLOAD PUSH1 0x1 PUSH1 0x1 PUSH1 0x40 SHL SUB SWAP6 DUP7 AND PUSH16 0xFFFFFFFFFFFFFFFFFFFFFFFFFFFFFFFF NOT SWAP5 DUP6 AND OR PUSH1 0x1 PUSH1 0x40 SHL SWAP4 DUP8 AND DUP5 MUL OR PUSH16 0xFFFFFFFFFFFFFFFFFFFFFFFFFFFFFFFF AND PUSH1 0x1 PUSH1 0x80 SHL SWAP3 DUP8 AND DUP4 MUL PUSH1 0x1 PUSH1 0x1 PUSH1 0xC0 SHL SUB AND OR PUSH1 0x1 PUSH1 0xC0 SHL SWAP2 DUP8 AND SWAP2 SWAP1 SWAP2 MUL OR SWAP1 SWAP4 SSTORE PUSH2 0x120 DUP8 ADD MLOAD PUSH1 0x4 SWAP7 DUP8 ADD DUP1 SLOAD PUSH2 0x140 DUP11 ADD MLOAD PUSH2 0x160 SWAP1 SWAP11 ADD MLOAD PUSH8 0xFFFFFFFFFFFFFFFF PUSH1 0x80 SHL NOT SWAP4 DUP9 AND SWAP2 SWAP1 SWAP6 AND OR SWAP9 DUP7 AND SWAP1 SWAP3 MUL SWAP8 SWAP1 SWAP8 OR SWAP7 SWAP1 SWAP7 AND SWAP3 AND MUL OR SWAP1 SWAP3 SSTORE SWAP1 DUP3 ADD MLOAD PUSH1 0x40 MLOAD PUSH4 0x4132F1D PUSH1 0xE3 SHL DUP2 MSTORE DUP1 DUP4 ADD SWAP3 SWAP1 SWAP3 MSTORE PUSH1 0x24 DUP3 ADD MSTORE PUSH20 0x0 SWAP1 PUSH4 0x209978E8 SWAP1 PUSH1 0x44 ADD PUSH1 0x20 PUSH1 0x40 MLOAD DUP1 DUP4 SUB DUP2 DUP7 GAS DELEGATECALL ISZERO DUP1 ISZERO PUSH2 0x20FE JUMPI RETURNDATASIZE PUSH1 0x0 DUP1 RETURNDATACOPY RETURNDATASIZE PUSH1 0x0 REVERT JUMPDEST POP POP POP POP PUSH1 0x40 MLOAD RETURNDATASIZE PUSH1 0x1F NOT PUSH1 0x1F DUP3 ADD AND DUP3 ADD DUP1 PUSH1 0x40 MSTORE POP DUP2 ADD SWAP1 PUSH2 0x2122 SWAP2 SWAP1 PUSH2 0x5373 JUMP JUMPDEST POP DUP1 MLOAD PUSH1 0x0 SWAP1 DUP2 MSTORE PUSH1 0x6 PUSH1 0x20 MSTORE PUSH1 0x40 SWAP1 DUP2 SWAP1 KECCAK256 PUSH1 0x80 DUP4 ADD MLOAD SWAP2 MLOAD PUSH4 0x4132F1D PUSH1 0xE3 SHL DUP2 MSTORE PUSH20 0x0 SWAP3 PUSH4 0x209978E8 SWAP3 PUSH2 0x217A SWAP3 SWAP1 SWAP2 SWAP1 PUSH1 0x4 ADD SWAP2 DUP3 MSTORE PUSH1 0x20 DUP3 ADD MSTORE PUSH1 0x40 ADD SWAP1 JUMP JUMPDEST PUSH1 0x20 PUSH1 0x40 MLOAD DUP1 DUP4 SUB DUP2 DUP7 GAS DELEGATECALL ISZERO DUP1 ISZERO PUSH2 0x2197 JUMPI RETURNDATASIZE PUSH1 0x0 DUP1 RETURNDATACOPY RETURNDATASIZE PUSH1 0x0 REVERT JUMPDEST POP POP POP POP PUSH1 0x40 MLOAD RETURNDATASIZE PUSH1 0x1F NOT PUSH1 0x1F DUP3 ADD AND DUP3 ADD DUP1 PUSH1 0x40 MSTORE POP DUP2 ADD SWAP1 PUSH2 0x21BB SWAP2 SWAP1 PUSH2 0x5373 JUMP JUMPDEST POP PUSH1 0x0 DUP9 DUP2 MSTORE PUSH1 0x7 PUSH1 0x20 MSTORE PUSH1 0x40 SWAP1 DUP2 SWAP1 KECCAK256 PUSH1 0x80 DUP4 ADD MLOAD SWAP2 MLOAD PUSH4 0x4132F1D PUSH1 0xE3 SHL DUP2 MSTORE PUSH20 0x0 SWAP3 PUSH4 0x209978E8 SWAP3 PUSH2 0x2211 SWAP3 SWAP1 SWAP2 SWAP1 PUSH1 0x4 ADD SWAP2 DUP3 MSTORE PUSH1 0x20 DUP3 ADD MSTORE PUSH1 0x40 ADD SWAP1 JUMP JUMPDEST PUSH1 0x20 PUSH1 0x40 MLOAD DUP1 DUP4 SUB DUP2 DUP7 GAS DELEGATECALL ISZERO DUP1 ISZERO PUSH2 0x222E JUMPI RETURNDATASIZE PUSH1 0x0 DUP1 RETURNDATACOPY RETURNDATASIZE PUSH1 0x0 REVERT JUMPDEST POP POP POP POP PUSH1 0x40 MLOAD RETURNDATASIZE PUSH1 0x1F NOT PUSH1 0x1F DUP3 ADD AND DUP3 ADD DUP1 PUSH1 0x40 MSTORE POP DUP2 ADD SWAP1 PUSH2 0x2252 SWAP2 SWAP1 PUSH2 0x5373 JUMP JUMPDEST POP PUSH1 0x0 DUP8 DUP2 MSTORE PUSH1 0x8 PUSH1 0x20 MSTORE PUSH1 0x40 SWAP1 DUP2 SWAP1 KECCAK256 PUSH1 0x80 DUP4 ADD MLOAD SWAP2 MLOAD PUSH4 0x4132F1D PUSH1 0xE3 SHL DUP2 MSTORE PUSH20 0x0 SWAP3 PUSH4 0x209978E8 SWAP3 PUSH2 0x22A8 SWAP3 SWAP1 SWAP2 SWAP1 PUSH1 0x4 ADD SWAP2 DUP3 MSTORE PUSH1 0x20 DUP3 ADD MSTORE PUSH1 0x40 ADD SWAP1 JUMP JUMPDEST PUSH1 0x20 PUSH1 0x40 MLOAD DUP1 DUP4 SUB DUP2 DUP7 GAS DELEGATECALL ISZERO DUP1 ISZERO PUSH2 0x22C5 JUMPI RETURNDATASIZE PUSH1 0x0 DUP1 RETURNDATACOPY RETURNDATASIZE PUSH1 0x0 REVERT JUMPDEST POP POP POP POP PUSH1 0x40 MLOAD RETURNDATASIZE PUSH1 0x1F NOT PUSH1 0x1F DUP3 ADD AND DUP3 ADD DUP1 PUSH1 0x40 MSTORE POP DUP2 ADD SWAP1 PUSH2 0x22E9 SWAP2 SWAP1 PUSH2 0x5373 JUMP JUMPDEST POP DUP1 MLOAD PUSH2 0x22F5 SWAP1 PUSH2 0x3E67 JUMP JUMPDEST POP POP PUSH1 0x3 SLOAD SWAP8 SWAP7 POP POP POP POP POP POP POP JUMP JUMPDEST PUSH1 0x0 PUSH2 0x75A PUSH1 0x1 PUSH1 0x1 PUSH1 0x40 SHL SUB DUP4 AND PUSH5 0x2540BE400 PUSH2 0x5425 JUMP JUMPDEST PUSH1 0x40 MLOAD PUSH4 0x23AA9AB PUSH1 0xE6 SHL DUP2 MSTORE PUSH32 0x2E7A327EF83C2AF7579C6634F2F5604519800C5F07626F27BD602FD11ED8E6EC PUSH1 0x4 DUP3 ADD MSTORE PUSH1 0x0 SWAP1 DUP2 SWAP1 PUSH1 0x1 PUSH1 0x1 PUSH1 0xA0 SHL SUB PUSH32 0x0 AND SWAP1 PUSH4 0x8EAA6AC0 SWAP1 PUSH1 0x24 ADD PUSH1 0x20 PUSH1 0x40 MLOAD DUP1 DUP4 SUB DUP2 DUP7 GAS STATICCALL ISZERO DUP1 ISZERO PUSH2 0x23A8 JUMPI RETURNDATASIZE PUSH1 0x0 DUP1 RETURNDATACOPY RETURNDATASIZE PUSH1 0x0 REVERT JUMPDEST POP POP POP POP PUSH1 0x40 MLOAD RETURNDATASIZE PUSH1 0x1F NOT PUSH1 0x1F DUP3 ADD AND DUP3 ADD DUP1 PUSH1 0x40 MSTORE POP DUP2 ADD SWAP1 PUSH2 0x23CC SWAP2 SWAP1 PUSH2 0x5395 JUMP JUMPDEST PUSH1 0x40 DUP1 MLOAD ADDRESS PUSH1 0x24 DUP3 ADD MSTORE PUSH1 0x1 PUSH1 0x1 PUSH1 0xA0 SHL SUB DUP13 DUP2 AND PUSH1 0x44 DUP4 ADD MSTORE PUSH1 0x64 DUP3 ADD DUP13 SWAP1 MSTORE PUSH1 0x84 DUP3 ADD DUP12 SWAP1 MSTORE PUSH1 0xA4 DUP3 ADD DUP11 SWAP1 MSTORE PUSH1 0xC4 DUP3 ADD DUP10 SWAP1 MSTORE PUSH1 0xE4 DUP3 ADD DUP9 SWAP1 MSTORE PUSH1 0xFF DUP8 AND PUSH2 0x104 DUP1 DUP5 ADD SWAP2 SWAP1 SWAP2 MSTORE DUP4 MLOAD DUP1 DUP5 SUB SWAP1 SWAP2 ADD DUP2 MSTORE PUSH2 0x124 SWAP1 SWAP3 ADD DUP4 MSTORE PUSH1 0x20 DUP3 ADD DUP1 MLOAD PUSH1 0x1 PUSH1 0x1 PUSH1 0xE0 SHL SUB AND PUSH4 0x53308781 PUSH1 0xE1 SHL OR SWAP1 MSTORE SWAP2 MLOAD SWAP3 SWAP1 SWAP2 AND SWAP2 PUSH2 0x2454 SWAP2 SWAP1 PUSH2 0x53B2 JUMP JUMPDEST PUSH1 0x0 PUSH1 0x40 MLOAD DUP1 DUP4 SUB DUP2 PUSH1 0x0 DUP7 GAS CALL SWAP2 POP POP RETURNDATASIZE DUP1 PUSH1 0x0 DUP2 EQ PUSH2 0x2491 JUMPI PUSH1 0x40 MLOAD SWAP2 POP PUSH1 0x1F NOT PUSH1 0x3F RETURNDATASIZE ADD AND DUP3 ADD PUSH1 0x40 MSTORE RETURNDATASIZE DUP3 MSTORE RETURNDATASIZE PUSH1 0x0 PUSH1 0x20 DUP5 ADD RETURNDATACOPY PUSH2 0x2496 JUMP JUMPDEST PUSH1 0x60 SWAP2 POP JUMPDEST POP POP SWAP1 POP PUSH2 0x24A3 DUP2 PUSH2 0x70F JUMP JUMPDEST POP SWAP8 SWAP7 POP POP POP POP POP POP POP JUMP JUMPDEST PUSH1 0x40 MLOAD PUSH4 0x509FF69B PUSH1 0xE0 SHL DUP2 MSTORE PUSH1 0x1 PUSH1 0x1 PUSH1 0xA0 SHL SUB DUP8 DUP2 AND PUSH1 0x4 DUP4 ADD MSTORE PUSH1 0x0 PUSH1 0x24 DUP4 ADD DUP2 SWAP1 MSTORE SWAP2 PUSH2 0x25EA SWAP2 DUP11 SWAP2 PUSH32 0x0 SWAP1 SWAP2 AND SWAP1 PUSH4 0x509FF69B SWAP1 PUSH1 0x44 ADD PUSH1 0x20 PUSH1 0x40 MLOAD DUP1 DUP4 SUB DUP2 PUSH1 0x0 DUP8 GAS CALL ISZERO DUP1 ISZERO PUSH2 0x2529 JUMPI RETURNDATASIZE PUSH1 0x0 DUP1 RETURNDATACOPY RETURNDATASIZE PUSH1 0x0 REVERT JUMPDEST POP POP POP POP PUSH1 0x40 MLOAD RETURNDATASIZE PUSH1 0x1F NOT PUSH1 0x1F DUP3 ADD AND DUP3 ADD DUP1 PUSH1 0x40 MSTORE POP DUP2 ADD SWAP1 PUSH2 0x254D SWAP2 SWAP1 PUSH2 0x54A8 JUMP JUMPDEST PUSH1 0x40 MLOAD PUSH4 0x509FF69B PUSH1 0xE0 SHL DUP2 MSTORE PUSH1 0x1 PUSH1 0x1 PUSH1 0xA0 SHL SUB DUP11 DUP2 AND PUSH1 0x4 DUP4 ADD MSTORE PUSH1 0x0 PUSH1 0x24 DUP4 ADD MSTORE PUSH32 0x0 AND SWAP1 PUSH4 0x509FF69B SWAP1 PUSH1 0x44 ADD JUMPDEST PUSH1 0x20 PUSH1 0x40 MLOAD DUP1 DUP4 SUB DUP2 PUSH1 0x0 DUP8 GAS CALL ISZERO DUP1 ISZERO PUSH2 0x25BD JUMPI RETURNDATASIZE PUSH1 0x0 DUP1 RETURNDATACOPY RETURNDATASIZE PUSH1 0x0 REVERT JUMPDEST POP POP POP POP PUSH1 0x40 MLOAD RETURNDATASIZE PUSH1 0x1F NOT PUSH1 0x1F DUP3 ADD AND DUP3 ADD DUP1 PUSH1 0x40 MSTORE POP DUP2 ADD SWAP1 PUSH2 0x25E1 SWAP2 SWAP1 PUSH2 0x54A8 JUMP JUMPDEST DUP9 DUP9 DUP9 DUP9 PUSH2 0x231F JUMP JUMPDEST SWAP9 SWAP8 POP POP POP POP POP POP POP POP JUMP JUMPDEST PUSH1 0x40 MLOAD PUSH4 0x509FF69B PUSH1 0xE0 SHL DUP2 MSTORE PUSH1 0x1 PUSH1 0x1 PUSH1 0xA0 SHL SUB DUP10 DUP2 AND PUSH1 0x4 DUP4 ADD MSTORE PUSH1 0x24 DUP3 ADD DUP10 SWAP1 MSTORE PUSH1 0x0 SWAP2 PUSH2 0x26EA SWAP2 DUP13 SWAP2 PUSH32 0x0 SWAP1 SWAP2 AND SWAP1 PUSH4 0x509FF69B SWAP1 PUSH1 0x44 ADD JUMPDEST PUSH1 0x20 PUSH1 0x40 MLOAD DUP1 DUP4 SUB DUP2 PUSH1 0x0 DUP8 GAS CALL ISZERO DUP1 ISZERO PUSH2 0x2671 JUMPI RETURNDATASIZE PUSH1 0x0 DUP1 RETURNDATACOPY RETURNDATASIZE PUSH1 0x0 REVERT JUMPDEST POP POP POP POP PUSH1 0x40 MLOAD RETURNDATASIZE PUSH1 0x1F NOT PUSH1 0x1F DUP3 ADD AND DUP3 ADD DUP1 PUSH1 0x40 MSTORE POP DUP2 ADD SWAP1 PUSH2 0x2695 SWAP2 SWAP1 PUSH2 0x54A8 JUMP JUMPDEST PUSH1 0x40 MLOAD PUSH4 0x509FF69B PUSH1 0xE0 SHL DUP2 MSTORE PUSH1 0x1 PUSH1 0x1 PUSH1 0xA0 SHL SUB DUP12 DUP2 AND PUSH1 0x4 DUP4 ADD MSTORE PUSH1 0x24 DUP3 ADD DUP12 SWAP1 MSTORE PUSH32 0x0 AND SWAP1 PUSH4 0x509FF69B SWAP1 PUSH1 0x44 ADD PUSH2 0x259E JUMP JUMPDEST SWAP11 SWAP10 POP POP POP POP POP POP POP POP POP POP JUMP JUMPDEST PUSH2 0x2700 PUSH2 0x3074 JUMP JUMPDEST PUSH2 0x70D PUSH1 0x0 DUP1 SLOAD PUSH2 0xFF00 NOT AND PUSH2 0x100 OR SWAP1 SSTORE JUMP JUMPDEST PUSH1 0x0 PUSH2 0x276F CALLER PUSH1 0x40 MLOAD PUSH4 0x509FF69B PUSH1 0xE0 SHL DUP2 MSTORE PUSH1 0x1 PUSH1 0x1 PUSH1 0xA0 SHL SUB DUP13 DUP2 AND PUSH1 0x4 DUP4 ADD MSTORE PUSH1 0x24 DUP3 ADD DUP13 SWAP1 MSTORE PUSH32 0x0 AND SWAP1 PUSH4 0x509FF69B SWAP1 PUSH1 0x44 ADD PUSH2 0x2652 JUMP JUMPDEST SWAP10 SWAP9 POP POP POP POP POP POP POP POP POP JUMP JUMPDEST PUSH1 0x0 PUSH2 0x75A PUSH4 0xFFFFFFFF DUP4 AND PUSH5 0xE8D4A51000 PUSH2 0x5425 JUMP JUMPDEST PUSH2 0x279B PUSH2 0x1298 JUMP JUMPDEST ISZERO PUSH2 0x27B8 JUMPI PUSH1 0x40 MLOAD PUSH3 0x461BCD PUSH1 0xE5 SHL DUP2 MSTORE PUSH1 0x4 ADD PUSH2 0x704 SWAP1 PUSH2 0x545A JUMP JUMPDEST PUSH1 0x0 PUSH1 0x5 PUSH1 0x0 DUP4 DUP2 MSTORE PUSH1 0x20 ADD SWAP1 DUP2 MSTORE PUSH1 0x20 ADD PUSH1 0x0 KECCAK256 SWAP1 POP PUSH32 0x0 PUSH1 0x1 PUSH1 0x1 PUSH1 0xA0 SHL SUB AND PUSH4 0x4635229B PUSH1 0x40 MLOAD DUP2 PUSH4 0xFFFFFFFF AND PUSH1 0xE0 SHL DUP2 MSTORE PUSH1 0x4 ADD PUSH1 0x20 PUSH1 0x40 MLOAD DUP1 DUP4 SUB DUP2 DUP7 GAS STATICCALL ISZERO DUP1 ISZERO PUSH2 0x282D JUMPI RETURNDATASIZE PUSH1 0x0 DUP1 RETURNDATACOPY RETURNDATASIZE PUSH1 0x0 REVERT JUMPDEST POP POP POP POP PUSH1 0x40 MLOAD RETURNDATASIZE PUSH1 0x1F NOT PUSH1 0x1F DUP3 ADD AND DUP3 ADD DUP1 PUSH1 0x40 MSTORE POP DUP2 ADD SWAP1 PUSH2 0x2851 SWAP2 SWAP1 PUSH2 0x5373 JUMP JUMPDEST DUP1 PUSH2 0x2868 JUMPI POP PUSH1 0x1 DUP2 ADD SLOAD PUSH1 0x1 PUSH1 0x1 PUSH1 0xA0 SHL SUB AND CALLER EQ JUMPDEST PUSH2 0x2884 JUMPI PUSH1 0x40 MLOAD PUSH3 0x461BCD PUSH1 0xE5 SHL DUP2 MSTORE PUSH1 0x4 ADD PUSH2 0x704 SWAP1 PUSH2 0x5571 JUMP JUMPDEST PUSH2 0x288F DUP2 PUSH1 0x1 PUSH2 0x38CA JUMP JUMPDEST PUSH2 0x725 DUP2 PUSH2 0x3DBC JUMP JUMPDEST PUSH2 0x28A0 PUSH2 0x3074 JUMP JUMPDEST PUSH1 0x1 PUSH1 0x1 PUSH1 0xA0 SHL SUB DUP2 AND PUSH2 0x2905 JUMPI PUSH1 0x40 MLOAD PUSH3 0x461BCD PUSH1 0xE5 SHL DUP2 MSTORE PUSH1 0x20 PUSH1 0x4 DUP3 ADD MSTORE PUSH1 0x26 PUSH1 0x24 DUP3 ADD MSTORE PUSH32 0x4F776E61626C653A206E6577206F776E657220697320746865207A65726F2061 PUSH1 0x44 DUP3 ADD MSTORE PUSH6 0x646472657373 PUSH1 0xD0 SHL PUSH1 0x64 DUP3 ADD MSTORE PUSH1 0x84 ADD PUSH2 0x704 JUMP JUMPDEST PUSH2 0x290E DUP2 PUSH2 0x30D5 JUMP JUMPDEST POP JUMP JUMPDEST PUSH1 0x0 PUSH2 0x75A PUSH5 0x174876E800 DUP4 PUSH2 0x5403 JUMP JUMPDEST PUSH2 0x292A PUSH2 0x4E11 JUMP JUMPDEST PUSH1 0x0 DUP4 DUP2 MSTORE PUSH1 0x5 PUSH1 0x20 DUP2 DUP2 MSTORE PUSH1 0x40 DUP1 DUP5 KECCAK256 DUP2 MLOAD PUSH2 0x180 DUP2 ADD DUP4 MSTORE DUP2 SLOAD DUP2 MSTORE PUSH1 0x1 DUP3 ADD SLOAD PUSH1 0x1 PUSH1 0x1 PUSH1 0xA0 SHL SUB DUP2 AND SWAP5 DUP3 ADD SWAP5 SWAP1 SWAP5 MSTORE SWAP4 SWAP1 SWAP3 SWAP2 DUP5 ADD SWAP2 PUSH1 0x1 PUSH1 0xA0 SHL SWAP1 DIV PUSH1 0xFF AND SWAP1 DUP2 GT ISZERO PUSH2 0x297F JUMPI PUSH2 0x297F PUSH2 0x4F88 JUMP JUMPDEST PUSH1 0x5 DUP2 GT ISZERO PUSH2 0x2990 JUMPI PUSH2 0x2990 PUSH2 0x4F88 JUMP JUMPDEST DUP2 MSTORE PUSH1 0x1 DUP3 ADD SLOAD PUSH1 0x1 PUSH1 0xA8 SHL SWAP1 DIV PUSH1 0xFF AND PUSH1 0x20 DUP3 ADD MSTORE PUSH1 0x2 DUP3 ADD SLOAD PUSH1 0x40 DUP1 DUP4 ADD SWAP2 SWAP1 SWAP2 MSTORE PUSH1 0x3 DUP4 ADD SLOAD PUSH1 0x1 PUSH1 0x1 PUSH1 0x40 SHL SUB DUP1 DUP3 AND PUSH1 0x60 DUP6 ADD MSTORE PUSH1 0x1 PUSH1 0x40 SHL DUP1 DUP4 DIV DUP3 AND PUSH1 0x80 DUP7 ADD MSTORE PUSH1 0x1 PUSH1 0x80 SHL DUP1 DUP5 DIV DUP4 AND PUSH1 0xA0 DUP8 ADD MSTORE PUSH1 0x1 PUSH1 0xC0 SHL SWAP1 SWAP4 DIV DUP3 AND PUSH1 0xC0 DUP7 ADD MSTORE PUSH1 0x4 SWAP6 DUP7 ADD SLOAD DUP1 DUP4 AND PUSH1 0xE0 DUP8 ADD MSTORE SWAP1 DUP2 DIV DUP3 AND PUSH2 0x100 DUP7 ADD MSTORE SWAP2 SWAP1 SWAP2 DIV AND PUSH2 0x120 SWAP1 SWAP3 ADD SWAP2 SWAP1 SWAP2 MSTORE DUP3 MLOAD SWAP1 MLOAD PUSH4 0x657C7E09 PUSH1 0xE0 SHL DUP2 MSTORE SWAP2 DUP3 ADD MSTORE SWAP1 SWAP2 POP PUSH32 0x0 PUSH1 0x1 PUSH1 0x1 PUSH1 0xA0 SHL SUB AND SWAP1 PUSH4 0x657C7E09 SWAP1 PUSH1 0x24 ADD PUSH1 0x40 DUP1 MLOAD DUP1 DUP4 SUB DUP2 DUP7 GAS STATICCALL ISZERO DUP1 ISZERO PUSH2 0x2A83 JUMPI RETURNDATASIZE PUSH1 0x0 DUP1 RETURNDATACOPY RETURNDATASIZE PUSH1 0x0 REVERT JUMPDEST POP POP POP POP PUSH1 0x40 MLOAD RETURNDATASIZE PUSH1 0x1F NOT PUSH1 0x1F DUP3 ADD AND DUP3 ADD DUP1 PUSH1 0x40 MSTORE POP DUP2 ADD SWAP1 PUSH2 0x2AA7 SWAP2 SWAP1 PUSH2 0x5484 JUMP JUMPDEST PUSH1 0x40 DUP5 ADD MSTORE PUSH1 0x20 DUP4 ADD MSTORE PUSH1 0x80 DUP2 ADD MLOAD PUSH1 0x60 DUP4 ADD MSTORE DUP3 DUP1 PUSH2 0x2B40 JUMPI POP PUSH1 0x60 DUP2 ADD MLOAD PUSH1 0x40 MLOAD PUSH4 0x36181B67 PUSH1 0xE1 SHL DUP2 MSTORE PUSH1 0xFF SWAP1 SWAP2 AND PUSH1 0x4 DUP3 ADD MSTORE PUSH20 0x0 SWAP1 PUSH4 0x6C3036CE SWAP1 PUSH1 0x24 ADD PUSH1 0x20 PUSH1 0x40 MLOAD DUP1 DUP4 SUB DUP2 DUP7 GAS DELEGATECALL ISZERO DUP1 ISZERO PUSH2 0x2B1A JUMPI RETURNDATASIZE PUSH1 0x0 DUP1 RETURNDATACOPY RETURNDATASIZE PUSH1 0x0 REVERT JUMPDEST POP POP POP POP PUSH1 0x40 MLOAD RETURNDATASIZE PUSH1 0x1F NOT PUSH1 0x1F DUP3 ADD AND DUP3 ADD DUP1 PUSH1 0x40 MSTORE POP DUP2 ADD SWAP1 PUSH2 0x2B3E SWAP2 SWAP1 PUSH2 0x5373 JUMP JUMPDEST ISZERO JUMPDEST ISZERO PUSH2 0x2FB1 JUMPI PUSH1 0x20 DUP2 ADD MLOAD PUSH1 0x1 PUSH1 0x1 PUSH1 0xA0 SHL SUB AND DUP3 MSTORE PUSH1 0xA0 DUP2 ADD MLOAD PUSH2 0x2B63 SWAP1 PUSH2 0x2305 JUMP JUMPDEST PUSH1 0x80 DUP4 ADD MSTORE PUSH1 0x60 DUP2 ADD MLOAD PUSH1 0x40 MLOAD PUSH4 0x2B2076E3 PUSH1 0xE1 SHL DUP2 MSTORE PUSH1 0xFF SWAP1 SWAP2 AND PUSH1 0x4 DUP3 ADD MSTORE PUSH20 0x0 SWAP1 PUSH4 0x5640EDC6 SWAP1 PUSH1 0x24 ADD PUSH1 0x20 PUSH1 0x40 MLOAD DUP1 DUP4 SUB DUP2 DUP7 GAS DELEGATECALL ISZERO DUP1 ISZERO PUSH2 0x2BC0 JUMPI RETURNDATASIZE PUSH1 0x0 DUP1 RETURNDATACOPY RETURNDATASIZE PUSH1 0x0 REVERT JUMPDEST POP POP POP POP PUSH1 0x40 MLOAD RETURNDATASIZE PUSH1 0x1F NOT PUSH1 0x1F DUP3 ADD AND DUP3 ADD DUP1 PUSH1 0x40 MSTORE POP DUP2 ADD SWAP1 PUSH2 0x2BE4 SWAP2 SWAP1 PUSH2 0x5373 JUMP JUMPDEST ISZERO PUSH2 0x2BF8 JUMPI PUSH1 0x80 DUP3 ADD MLOAD PUSH1 0xA0 DUP4 ADD MSTORE PUSH2 0x2D32 JUMP JUMPDEST PUSH2 0x120 DUP2 ADD MLOAD PUSH1 0x1 PUSH1 0x1 PUSH1 0x40 SHL SUB AND ISZERO PUSH2 0x2C24 JUMPI PUSH2 0x2C1A DUP2 PUSH2 0x120 ADD MLOAD PUSH2 0x2305 JUMP JUMPDEST PUSH1 0xA0 DUP4 ADD MSTORE PUSH2 0x2D32 JUMP JUMPDEST PUSH1 0x40 MLOAD PUSH4 0x23AA9AB PUSH1 0xE6 SHL DUP2 MSTORE PUSH1 0x0 DUP1 MLOAD PUSH1 0x20 PUSH2 0x588F DUP4 CODECOPY DUP2 MLOAD SWAP2 MSTORE PUSH1 0x4 DUP3 ADD MSTORE PUSH32 0x0 PUSH1 0x1 PUSH1 0x1 PUSH1 0xA0 SHL SUB AND SWAP1 PUSH4 0x8EAA6AC0 SWAP1 PUSH1 0x24 ADD PUSH1 0x20 PUSH1 0x40 MLOAD DUP1 DUP4 SUB DUP2 DUP7 GAS STATICCALL ISZERO DUP1 ISZERO PUSH2 0x2C96 JUMPI RETURNDATASIZE PUSH1 0x0 DUP1 RETURNDATACOPY RETURNDATASIZE PUSH1 0x0 REVERT JUMPDEST POP POP POP POP PUSH1 0x40 MLOAD RETURNDATASIZE PUSH1 0x1F NOT PUSH1 0x1F DUP3 ADD AND DUP3 ADD DUP1 PUSH1 0x40 MSTORE POP DUP2 ADD SWAP1 PUSH2 0x2CBA SWAP2 SWAP1 PUSH2 0x5395 JUMP JUMPDEST PUSH1 0x1 PUSH1 0x1 PUSH1 0xA0 SHL SUB AND PUSH4 0xA9BF9858 DUP4 PUSH1 0x20 ADD MLOAD PUSH1 0x40 MLOAD DUP3 PUSH4 0xFFFFFFFF AND PUSH1 0xE0 SHL DUP2 MSTORE PUSH1 0x4 ADD PUSH2 0x2CEB SWAP2 DUP2 MSTORE PUSH1 0x20 ADD SWAP1 JUMP JUMPDEST PUSH1 0x20 PUSH1 0x40 MLOAD DUP1 DUP4 SUB DUP2 DUP7 GAS STATICCALL ISZERO DUP1 ISZERO PUSH2 0x2D08 JUMPI RETURNDATASIZE PUSH1 0x0 DUP1 RETURNDATACOPY RETURNDATASIZE PUSH1 0x0 REVERT JUMPDEST POP POP POP POP PUSH1 0x40 MLOAD RETURNDATASIZE PUSH1 0x1F NOT PUSH1 0x1F DUP3 ADD AND DUP3 ADD DUP1 PUSH1 0x40 MSTORE POP DUP2 ADD SWAP1 PUSH2 0x2D2C SWAP2 SWAP1 PUSH2 0x54A8 JUMP JUMPDEST PUSH1 0xA0 DUP4 ADD MSTORE JUMPDEST PUSH2 0x2D3F DUP2 PUSH1 0xC0 ADD MLOAD PUSH2 0x2305 JUMP JUMPDEST PUSH1 0xC0 DUP4 ADD MSTORE PUSH1 0xE0 DUP2 ADD MLOAD PUSH2 0x2D52 SWAP1 PUSH2 0x2305 JUMP JUMPDEST PUSH1 0xE0 DUP4 ADD MSTORE PUSH1 0x60 DUP2 ADD MLOAD PUSH1 0x40 MLOAD PUSH4 0x5B7D0F69 PUSH1 0xE1 SHL DUP2 MSTORE PUSH1 0xFF SWAP1 SWAP2 AND PUSH1 0x4 DUP3 ADD MSTORE PUSH20 0x0 SWAP1 PUSH4 0xB6FA1ED2 SWAP1 PUSH1 0x24 ADD PUSH1 0x20 PUSH1 0x40 MLOAD DUP1 DUP4 SUB DUP2 DUP7 GAS DELEGATECALL ISZERO DUP1 ISZERO PUSH2 0x2DAF JUMPI RETURNDATASIZE PUSH1 0x0 DUP1 RETURNDATACOPY RETURNDATASIZE PUSH1 0x0 REVERT JUMPDEST POP POP POP POP PUSH1 0x40 MLOAD RETURNDATASIZE PUSH1 0x1F NOT PUSH1 0x1F DUP3 ADD AND DUP3 ADD DUP1 PUSH1 0x40 MSTORE POP DUP2 ADD SWAP1 PUSH2 0x2DD3 SWAP2 SWAP1 PUSH2 0x5373 JUMP JUMPDEST ISZERO PUSH2 0x2F9C JUMPI PUSH2 0x2DE6 DUP2 PUSH2 0x140 ADD MLOAD PUSH2 0x2305 JUMP JUMPDEST PUSH2 0x120 DUP4 ADD MSTORE PUSH2 0x160 DUP2 ADD MLOAD PUSH2 0x2DFB SWAP1 PUSH2 0x2305 JUMP JUMPDEST PUSH2 0x140 DUP4 ADD MSTORE PUSH1 0x40 MLOAD PUSH4 0x23AA9AB PUSH1 0xE6 SHL DUP2 MSTORE PUSH32 0x3CB99135F7A7C088D9085B446345038A22A85F4E8FE072B0E1B66D97243E7458 PUSH1 0x4 DUP3 ADD MSTORE PUSH1 0x0 SWAP1 PUSH32 0x0 PUSH1 0x1 PUSH1 0x1 PUSH1 0xA0 SHL SUB AND SWAP1 PUSH4 0x8EAA6AC0 SWAP1 PUSH1 0x24 ADD PUSH1 0x20 PUSH1 0x40 MLOAD DUP1 DUP4 SUB DUP2 DUP7 GAS STATICCALL ISZERO DUP1 ISZERO PUSH2 0x2E88 JUMPI RETURNDATASIZE PUSH1 0x0 DUP1 RETURNDATACOPY RETURNDATASIZE PUSH1 0x0 REVERT JUMPDEST POP POP POP POP PUSH1 0x40 MLOAD RETURNDATASIZE PUSH1 0x1F NOT PUSH1 0x1F DUP3 ADD AND DUP3 ADD DUP1 PUSH1 0x40 MSTORE POP DUP2 ADD SWAP1 PUSH2 0x2EAC SWAP2 SWAP1 PUSH2 0x5395 JUMP JUMPDEST PUSH1 0x1 PUSH1 0x1 PUSH1 0xA0 SHL SUB AND PUSH4 0x6464B68A DUP5 PUSH1 0x20 ADD MLOAD DUP6 PUSH1 0x40 ADD MLOAD PUSH1 0x40 MLOAD DUP4 PUSH4 0xFFFFFFFF AND PUSH1 0xE0 SHL DUP2 MSTORE PUSH1 0x4 ADD PUSH2 0x2EEA SWAP3 SWAP2 SWAP1 SWAP2 DUP3 MSTORE PUSH1 0x20 DUP3 ADD MSTORE PUSH1 0x40 ADD SWAP1 JUMP JUMPDEST PUSH1 0x60 PUSH1 0x40 MLOAD DUP1 DUP4 SUB DUP2 DUP7 GAS STATICCALL ISZERO DUP1 ISZERO PUSH2 0x2F07 JUMPI RETURNDATASIZE PUSH1 0x0 DUP1 RETURNDATACOPY RETURNDATASIZE PUSH1 0x0 REVERT JUMPDEST POP POP POP POP PUSH1 0x40 MLOAD RETURNDATASIZE PUSH1 0x1F NOT PUSH1 0x1F DUP3 ADD AND DUP3 ADD DUP1 PUSH1 0x40 MSTORE POP DUP2 ADD SWAP1 PUSH2 0x2F2B SWAP2 SWAP1 PUSH2 0x54C1 JUMP JUMPDEST POP SWAP2 POP POP DUP1 PUSH2 0x2F70 JUMPI PUSH1 0x40 MLOAD PUSH3 0x461BCD PUSH1 0xE5 SHL DUP2 MSTORE PUSH1 0x20 PUSH1 0x4 DUP3 ADD MSTORE PUSH1 0x11 PUSH1 0x24 DUP3 ADD MSTORE PUSH17 0x145D5BDD194E88139BDD081C5D5BDD1959 PUSH1 0x7A SHL PUSH1 0x44 DUP3 ADD MSTORE PUSH1 0x64 ADD PUSH2 0x704 JUMP JUMPDEST PUSH2 0x140 DUP4 ADD MLOAD PUSH2 0x2F80 SWAP1 DUP3 PUSH2 0x5403 JUMP JUMPDEST DUP4 PUSH2 0x120 ADD MLOAD PUSH2 0x2F90 SWAP2 SWAP1 PUSH2 0x5425 JUMP JUMPDEST PUSH2 0x100 DUP5 ADD MSTORE POP PUSH2 0x2FB1 JUMP JUMPDEST PUSH2 0x2FAA DUP2 PUSH2 0x100 ADD MLOAD PUSH2 0x2305 JUMP JUMPDEST PUSH2 0x100 DUP4 ADD MSTORE JUMPDEST PUSH1 0x40 MLOAD PUSH4 0x212D6CB PUSH1 0xE2 SHL DUP2 MSTORE PUSH20 0x0 SWAP1 PUSH4 0x84B5B2C SWAP1 PUSH2 0x2FE8 SWAP1 DUP5 SWAP1 PUSH1 0x4 ADD PUSH2 0x55E1 JUMP JUMPDEST PUSH1 0x20 PUSH1 0x40 MLOAD DUP1 DUP4 SUB DUP2 DUP7 GAS DELEGATECALL ISZERO DUP1 ISZERO PUSH2 0x3005 JUMPI RETURNDATASIZE PUSH1 0x0 DUP1 RETURNDATACOPY RETURNDATASIZE PUSH1 0x0 REVERT JUMPDEST POP POP POP POP PUSH1 0x40 MLOAD RETURNDATASIZE PUSH1 0x1F NOT PUSH1 0x1F DUP3 ADD AND DUP3 ADD DUP1 PUSH1 0x40 MSTORE POP DUP2 ADD SWAP1 PUSH2 0x3029 SWAP2 SWAP1 PUSH2 0x54A8 JUMP JUMPDEST PUSH2 0x160 DUP4 ADD MSTORE PUSH1 0x40 DUP2 ADD MLOAD PUSH2 0x180 DUP4 ADD SWAP1 PUSH1 0x5 DUP2 GT ISZERO PUSH2 0x304B JUMPI PUSH2 0x304B PUSH2 0x4F88 JUMP JUMPDEST SWAP1 DUP2 PUSH1 0x5 DUP2 GT ISZERO PUSH2 0x305E JUMPI PUSH2 0x305E PUSH2 0x4F88 JUMP JUMPDEST SWAP1 MSTORE POP PUSH1 0x60 ADD MLOAD PUSH1 0xFF AND PUSH2 0x1A0 DUP3 ADD MSTORE SWAP3 SWAP2 POP POP JUMP JUMPDEST PUSH1 0x0 SLOAD PUSH1 0x1 PUSH1 0x1 PUSH1 0xA0 SHL SUB PUSH3 0x10000 SWAP1 SWAP2 DIV AND CALLER EQ PUSH2 0x70D JUMPI PUSH1 0x40 MLOAD PUSH3 0x461BCD PUSH1 0xE5 SHL DUP2 MSTORE PUSH1 0x20 PUSH1 0x4 DUP3 ADD MSTORE PUSH1 0x1F PUSH1 0x24 DUP3 ADD MSTORE PUSH32 0x416C6C6F77616E63653A2063616C6C6572206D757374206265204F776E657200 PUSH1 0x44 DUP3 ADD MSTORE PUSH1 0x64 ADD PUSH2 0x704 JUMP JUMPDEST PUSH1 0x0 DUP1 SLOAD PUSH1 0x1 PUSH1 0x1 PUSH1 0xA0 SHL SUB DUP4 DUP2 AND PUSH3 0x10000 DUP2 DUP2 MUL PUSH3 0x10000 PUSH1 0x1 PUSH1 0xB0 SHL SUB NOT DUP6 AND OR DUP6 SSTORE PUSH1 0x40 MLOAD SWAP4 DIV SWAP2 SWAP1 SWAP2 AND SWAP3 SWAP1 SWAP2 DUP4 SWAP2 PUSH32 0x8BE0079C531659141344CD1FD0A4F28419497F9722A3DAAFE3B4186F6B6457E0 SWAP2 LOG3 POP POP JUMP JUMPDEST PUSH1 0x0 DUP1 DUP1 PUSH1 0x0 DUP1 PUSH8 0xDE0B6B3A7640000 PUSH2 0x3160 DUP11 PUSH1 0x3 ADD PUSH1 0x18 SWAP1 SLOAD SWAP1 PUSH2 0x100 EXP SWAP1 DIV PUSH1 0x1 PUSH1 0x1 PUSH1 0x40 SHL SUB AND PUSH2 0x2305 JUMP JUMPDEST PUSH2 0x316A SWAP1 DUP9 PUSH2 0x5425 JUMP JUMPDEST PUSH2 0x3174 SWAP2 SWAP1 PUSH2 0x5403 JUMP JUMPDEST DUP10 SLOAD PUSH1 0x40 MLOAD PUSH4 0x657C7E09 PUSH1 0xE0 SHL DUP2 MSTORE SWAP2 SWAP3 POP PUSH1 0x0 SWAP2 DUP3 SWAP2 PUSH1 0x1 PUSH1 0x1 PUSH1 0xA0 SHL SUB PUSH32 0x0 AND SWAP2 PUSH4 0x657C7E09 SWAP2 PUSH2 0x31CC SWAP2 PUSH1 0x4 ADD SWAP1 DUP2 MSTORE PUSH1 0x20 ADD SWAP1 JUMP JUMPDEST PUSH1 0x40 DUP1 MLOAD DUP1 DUP4 SUB DUP2 DUP7 GAS STATICCALL ISZERO DUP1 ISZERO PUSH2 0x31E8 JUMPI RETURNDATASIZE PUSH1 0x0 DUP1 RETURNDATACOPY RETURNDATASIZE PUSH1 0x0 REVERT JUMPDEST POP POP POP POP PUSH1 0x40 MLOAD RETURNDATASIZE PUSH1 0x1F NOT PUSH1 0x1F DUP3 ADD AND DUP3 ADD DUP1 PUSH1 0x40 MSTORE POP DUP2 ADD SWAP1 PUSH2 0x320C SWAP2 SWAP1 PUSH2 0x5484 JUMP JUMPDEST PUSH1 0x1 DUP14 ADD SLOAD PUSH1 0x40 MLOAD PUSH4 0xF0340A37 PUSH1 0xE0 SHL DUP2 MSTORE PUSH1 0x1 PUSH1 0xA8 SHL SWAP1 SWAP2 DIV PUSH1 0xFF AND PUSH1 0x4 DUP3 ADD MSTORE SWAP2 SWAP4 POP SWAP2 POP PUSH20 0x0 SWAP1 PUSH4 0xF0340A37 SWAP1 PUSH1 0x24 ADD PUSH1 0x20 PUSH1 0x40 MLOAD DUP1 DUP4 SUB DUP2 DUP7 GAS DELEGATECALL ISZERO DUP1 ISZERO PUSH2 0x326F JUMPI RETURNDATASIZE PUSH1 0x0 DUP1 RETURNDATACOPY RETURNDATASIZE PUSH1 0x0 REVERT JUMPDEST POP POP POP POP PUSH1 0x40 MLOAD RETURNDATASIZE PUSH1 0x1F NOT PUSH1 0x1F DUP3 ADD AND DUP3 ADD DUP1 PUSH1 0x40 MSTORE POP DUP2 ADD SWAP1 PUSH2 0x3293 SWAP2 SWAP1 PUSH2 0x5373 JUMP JUMPDEST ISZERO PUSH2 0x339B JUMPI PUSH1 0x40 MLOAD PUSH4 0x23AA9AB PUSH1 0xE6 SHL DUP2 MSTORE PUSH1 0x0 DUP1 MLOAD PUSH1 0x20 PUSH2 0x588F DUP4 CODECOPY DUP2 MLOAD SWAP2 MSTORE PUSH1 0x4 DUP3 ADD MSTORE PUSH32 0x0 PUSH1 0x1 PUSH1 0x1 PUSH1 0xA0 SHL SUB AND SWAP1 PUSH4 0x8EAA6AC0 SWAP1 PUSH1 0x24 ADD PUSH1 0x20 PUSH1 0x40 MLOAD DUP1 DUP4 SUB DUP2 DUP7 GAS STATICCALL ISZERO DUP1 ISZERO PUSH2 0x330A JUMPI RETURNDATASIZE PUSH1 0x0 DUP1 RETURNDATACOPY RETURNDATASIZE PUSH1 0x0 REVERT JUMPDEST POP POP POP POP PUSH1 0x40 MLOAD RETURNDATASIZE PUSH1 0x1F NOT PUSH1 0x1F DUP3 ADD AND DUP3 ADD DUP1 PUSH1 0x40 MSTORE POP DUP2 ADD SWAP1 PUSH2 0x332E SWAP2 SWAP1 PUSH2 0x5395 JUMP JUMPDEST PUSH1 0x1 DUP13 ADD SLOAD PUSH1 0x40 MLOAD PUSH4 0x255318AF PUSH1 0xE2 SHL DUP2 MSTORE PUSH1 0x1 PUSH1 0x1 PUSH1 0xA0 SHL SUB SWAP3 DUP4 AND SWAP3 PUSH4 0x954C62BC SWAP3 PUSH2 0x3368 SWAP3 DUP8 SWAP3 SWAP1 SWAP2 AND SWAP1 ADDRESS SWAP1 DUP15 SWAP1 PUSH1 0x4 ADD PUSH2 0x55BC JUMP JUMPDEST PUSH1 0x0 PUSH1 0x40 MLOAD DUP1 DUP4 SUB DUP2 PUSH1 0x0 DUP8 DUP1 EXTCODESIZE ISZERO DUP1 ISZERO PUSH2 0x3382 JUMPI PUSH1 0x0 DUP1 REVERT JUMPDEST POP GAS CALL ISZERO DUP1 ISZERO PUSH2 0x3396 JUMPI RETURNDATASIZE PUSH1 0x0 DUP1 RETURNDATACOPY RETURNDATASIZE PUSH1 0x0 REVERT JUMPDEST POP POP POP POP JUMPDEST DUP9 ISZERO PUSH2 0x349B JUMPI PUSH1 0x40 MLOAD PUSH4 0x23AA9AB PUSH1 0xE6 SHL DUP2 MSTORE PUSH1 0x0 DUP1 MLOAD PUSH1 0x20 PUSH2 0x588F DUP4 CODECOPY DUP2 MLOAD SWAP2 MSTORE PUSH1 0x4 DUP3 ADD MSTORE PUSH32 0x0 PUSH1 0x1 PUSH1 0x1 PUSH1 0xA0 SHL SUB AND SWAP1 PUSH4 0x8EAA6AC0 SWAP1 PUSH1 0x24 ADD PUSH1 0x20 PUSH1 0x40 MLOAD DUP1 DUP4 SUB DUP2 DUP7 GAS STATICCALL ISZERO DUP1 ISZERO PUSH2 0x3413 JUMPI RETURNDATASIZE PUSH1 0x0 DUP1 RETURNDATACOPY RETURNDATASIZE PUSH1 0x0 REVERT JUMPDEST POP POP POP POP PUSH1 0x40 MLOAD RETURNDATASIZE PUSH1 0x1F NOT PUSH1 0x1F DUP3 ADD AND DUP3 ADD DUP1 PUSH1 0x40 MSTORE POP DUP2 ADD SWAP1 PUSH2 0x3437 SWAP2 SWAP1 PUSH2 0x5395 JUMP JUMPDEST PUSH1 0x1 PUSH1 0x1 PUSH1 0xA0 SHL SUB AND PUSH4 0x954C62BC DUP3 DUP13 ADDRESS DUP8 PUSH1 0x40 MLOAD DUP6 PUSH4 0xFFFFFFFF AND PUSH1 0xE0 SHL DUP2 MSTORE PUSH1 0x4 ADD PUSH2 0x3468 SWAP5 SWAP4 SWAP3 SWAP2 SWAP1 PUSH2 0x55BC JUMP JUMPDEST PUSH1 0x0 PUSH1 0x40 MLOAD DUP1 DUP4 SUB DUP2 PUSH1 0x0 DUP8 DUP1 EXTCODESIZE ISZERO DUP1 ISZERO PUSH2 0x3482 JUMPI PUSH1 0x0 DUP1 REVERT JUMPDEST POP GAS CALL ISZERO DUP1 ISZERO PUSH2 0x3496 JUMPI RETURNDATASIZE PUSH1 0x0 DUP1 RETURNDATACOPY RETURNDATASIZE PUSH1 0x0 REVERT JUMPDEST POP POP POP POP JUMPDEST DUP6 ISZERO PUSH2 0x35A4 JUMPI PUSH1 0x40 MLOAD PUSH4 0x23AA9AB PUSH1 0xE6 SHL DUP2 MSTORE PUSH1 0x0 DUP1 MLOAD PUSH1 0x20 PUSH2 0x588F DUP4 CODECOPY DUP2 MLOAD SWAP2 MSTORE PUSH1 0x4 DUP3 ADD MSTORE PUSH32 0x0 PUSH1 0x1 PUSH1 0x1 PUSH1 0xA0 SHL SUB AND SWAP1 PUSH4 0x8EAA6AC0 SWAP1 PUSH1 0x24 ADD PUSH1 0x20 PUSH1 0x40 MLOAD DUP1 DUP4 SUB DUP2 DUP7 GAS STATICCALL ISZERO DUP1 ISZERO PUSH2 0x3513 JUMPI RETURNDATASIZE PUSH1 0x0 DUP1 RETURNDATACOPY RETURNDATASIZE PUSH1 0x0 REVERT JUMPDEST POP POP POP POP PUSH1 0x40 MLOAD RETURNDATASIZE PUSH1 0x1F NOT PUSH1 0x1F DUP3 ADD AND DUP3 ADD DUP1 PUSH1 0x40 MSTORE POP DUP2 ADD SWAP1 PUSH2 0x3537 SWAP2 SWAP1 PUSH2 0x5395 JUMP JUMPDEST PUSH1 0x1 DUP13 ADD SLOAD PUSH1 0x40 MLOAD PUSH4 0x1C9619A7 PUSH1 0xE0 SHL DUP2 MSTORE PUSH1 0x1 PUSH1 0x1 PUSH1 0xA0 SHL SUB SWAP3 DUP4 AND SWAP3 PUSH4 0x1C9619A7 SWAP3 PUSH2 0x3571 SWAP3 DUP8 SWAP3 SWAP1 SWAP2 AND SWAP1 DUP13 SWAP1 DUP13 SWAP1 PUSH1 0x4 ADD PUSH2 0x55BC JUMP JUMPDEST PUSH1 0x0 PUSH1 0x40 MLOAD DUP1 DUP4 SUB DUP2 PUSH1 0x0 DUP8 DUP1 EXTCODESIZE ISZERO DUP1 ISZERO PUSH2 0x358B JUMPI PUSH1 0x0 DUP1 REVERT JUMPDEST POP GAS CALL ISZERO DUP1 ISZERO PUSH2 0x359F JUMPI RETURNDATASIZE PUSH1 0x0 DUP1 RETURNDATACOPY RETURNDATASIZE PUSH1 0x0 REVERT JUMPDEST POP POP POP POP JUMPDEST DUP4 ISZERO PUSH2 0x36A4 JUMPI PUSH1 0x40 MLOAD PUSH4 0x23AA9AB PUSH1 0xE6 SHL DUP2 MSTORE PUSH1 0x0 DUP1 MLOAD PUSH1 0x20 PUSH2 0x588F DUP4 CODECOPY DUP2 MLOAD SWAP2 MSTORE PUSH1 0x4 DUP3 ADD MSTORE PUSH32 0x0 PUSH1 0x1 PUSH1 0x1 PUSH1 0xA0 SHL SUB AND SWAP1 PUSH4 0x8EAA6AC0 SWAP1 PUSH1 0x24 ADD PUSH1 0x20 PUSH1 0x40 MLOAD DUP1 DUP4 SUB DUP2 DUP7 GAS STATICCALL ISZERO DUP1 ISZERO PUSH2 0x361C JUMPI RETURNDATASIZE PUSH1 0x0 DUP1 RETURNDATACOPY RETURNDATASIZE PUSH1 0x0 REVERT JUMPDEST POP POP POP POP PUSH1 0x40 MLOAD RETURNDATASIZE PUSH1 0x1F NOT PUSH1 0x1F DUP3 ADD AND DUP3 ADD DUP1 PUSH1 0x40 MSTORE POP DUP2 ADD SWAP1 PUSH2 0x3640 SWAP2 SWAP1 PUSH2 0x5395 JUMP JUMPDEST PUSH1 0x1 PUSH1 0x1 PUSH1 0xA0 SHL SUB AND PUSH4 0x1C9619A7 DUP3 DUP13 DUP9 DUP9 PUSH1 0x40 MLOAD DUP6 PUSH4 0xFFFFFFFF AND PUSH1 0xE0 SHL DUP2 MSTORE PUSH1 0x4 ADD PUSH2 0x3671 SWAP5 SWAP4 SWAP3 SWAP2 SWAP1 PUSH2 0x55BC JUMP JUMPDEST PUSH1 0x0 PUSH1 0x40 MLOAD DUP1 DUP4 SUB DUP2 PUSH1 0x0 DUP8 DUP1 EXTCODESIZE ISZERO DUP1 ISZERO PUSH2 0x368B JUMPI PUSH1 0x0 DUP1 REVERT JUMPDEST POP GAS CALL ISZERO DUP1 ISZERO PUSH2 0x369F JUMPI RETURNDATASIZE PUSH1 0x0 DUP1 RETURNDATACOPY RETURNDATASIZE PUSH1 0x0 REVERT JUMPDEST POP POP POP POP JUMPDEST PUSH1 0x40 MLOAD PUSH4 0x23AA9AB PUSH1 0xE6 SHL DUP2 MSTORE PUSH1 0x0 DUP1 MLOAD PUSH1 0x20 PUSH2 0x588F DUP4 CODECOPY DUP2 MLOAD SWAP2 MSTORE PUSH1 0x4 DUP3 ADD MSTORE PUSH32 0x0 PUSH1 0x1 PUSH1 0x1 PUSH1 0xA0 SHL SUB AND SWAP1 PUSH4 0x8EAA6AC0 SWAP1 PUSH1 0x24 ADD PUSH1 0x20 PUSH1 0x40 MLOAD DUP1 DUP4 SUB DUP2 DUP7 GAS STATICCALL ISZERO DUP1 ISZERO PUSH2 0x3716 JUMPI RETURNDATASIZE PUSH1 0x0 DUP1 RETURNDATACOPY RETURNDATASIZE PUSH1 0x0 REVERT JUMPDEST POP POP POP POP PUSH1 0x40 MLOAD RETURNDATASIZE PUSH1 0x1F NOT PUSH1 0x1F DUP3 ADD AND DUP3 ADD DUP1 PUSH1 0x40 MSTORE POP DUP2 ADD SWAP1 PUSH2 0x373A SWAP2 SWAP1 PUSH2 0x5395 JUMP JUMPDEST PUSH1 0x1 DUP13 ADD SLOAD PUSH1 0x1 PUSH1 0x1 PUSH1 0xA0 SHL SUB SWAP2 DUP3 AND SWAP2 PUSH4 0x1C9619A7 SWAP2 DUP6 SWAP2 AND DUP14 PUSH2 0x375F DUP12 DUP15 PUSH2 0x54EF JUMP JUMPDEST PUSH1 0x40 MLOAD DUP6 PUSH4 0xFFFFFFFF AND PUSH1 0xE0 SHL DUP2 MSTORE PUSH1 0x4 ADD PUSH2 0x377E SWAP5 SWAP4 SWAP3 SWAP2 SWAP1 PUSH2 0x55BC JUMP JUMPDEST PUSH1 0x0 PUSH1 0x40 MLOAD DUP1 DUP4 SUB DUP2 PUSH1 0x0 DUP8 DUP1 EXTCODESIZE ISZERO DUP1 ISZERO PUSH2 0x3798 JUMPI PUSH1 0x0 DUP1 REVERT JUMPDEST POP GAS CALL ISZERO DUP1 ISZERO PUSH2 0x37AC JUMPI RETURNDATASIZE PUSH1 0x0 DUP1 RETURNDATACOPY RETURNDATASIZE PUSH1 0x0 REVERT JUMPDEST POP POP PUSH1 0x40 MLOAD PUSH4 0x23AA9AB PUSH1 0xE6 SHL DUP2 MSTORE PUSH1 0x0 DUP1 MLOAD PUSH1 0x20 PUSH2 0x588F DUP4 CODECOPY DUP2 MLOAD SWAP2 MSTORE PUSH1 0x4 DUP3 ADD MSTORE PUSH32 0x0 PUSH1 0x1 PUSH1 0x1 PUSH1 0xA0 SHL SUB AND SWAP3 POP PUSH4 0x8EAA6AC0 SWAP2 POP PUSH1 0x24 ADD PUSH1 0x20 PUSH1 0x40 MLOAD DUP1 DUP4 SUB DUP2 DUP7 GAS STATICCALL ISZERO DUP1 ISZERO PUSH2 0x3822 JUMPI RETURNDATASIZE PUSH1 0x0 DUP1 RETURNDATACOPY RETURNDATASIZE PUSH1 0x0 REVERT JUMPDEST POP POP POP POP PUSH1 0x40 MLOAD RETURNDATASIZE PUSH1 0x1F NOT PUSH1 0x1F DUP3 ADD AND DUP3 ADD DUP1 PUSH1 0x40 MSTORE POP DUP2 ADD SWAP1 PUSH2 0x3846 SWAP2 SWAP1 PUSH2 0x5395 JUMP JUMPDEST PUSH1 0x1 DUP13 ADD SLOAD PUSH1 0x1 PUSH1 0x1 PUSH1 0xA0 SHL SUB SWAP2 DUP3 AND SWAP2 PUSH4 0x1C9619A7 SWAP2 DUP5 SWAP2 DUP15 SWAP2 AND PUSH2 0x386C DUP10 DUP10 PUSH2 0x54EF JUMP JUMPDEST PUSH1 0x40 MLOAD DUP6 PUSH4 0xFFFFFFFF AND PUSH1 0xE0 SHL DUP2 MSTORE PUSH1 0x4 ADD PUSH2 0x388B SWAP5 SWAP4 SWAP3 SWAP2 SWAP1 PUSH2 0x55BC JUMP JUMPDEST PUSH1 0x0 PUSH1 0x40 MLOAD DUP1 DUP4 SUB DUP2 PUSH1 0x0 DUP8 DUP1 EXTCODESIZE ISZERO DUP1 ISZERO PUSH2 0x38A5 JUMPI PUSH1 0x0 DUP1 REVERT JUMPDEST POP GAS CALL ISZERO DUP1 ISZERO PUSH2 0x38B9 JUMPI RETURNDATASIZE PUSH1 0x0 DUP1 RETURNDATACOPY RETURNDATASIZE PUSH1 0x0 REVERT JUMPDEST POP POP POP POP POP POP POP POP POP POP POP POP POP POP POP JUMP JUMPDEST PUSH1 0x0 DUP2 PUSH1 0x5 DUP2 GT ISZERO PUSH2 0x38DE JUMPI PUSH2 0x38DE PUSH2 0x4F88 JUMP JUMPDEST GT DUP1 ISZERO PUSH2 0x38FD JUMPI POP PUSH1 0x3 DUP2 PUSH1 0x5 DUP2 GT ISZERO PUSH2 0x38FA JUMPI PUSH2 0x38FA PUSH2 0x4F88 JUMP JUMPDEST GT ISZERO JUMPDEST DUP1 ISZERO PUSH2 0x3929 JUMPI POP PUSH1 0x4 PUSH1 0x1 DUP4 ADD SLOAD PUSH1 0x1 PUSH1 0xA0 SHL SWAP1 DIV PUSH1 0xFF AND PUSH1 0x5 DUP2 GT ISZERO PUSH2 0x3926 JUMPI PUSH2 0x3926 PUSH2 0x4F88 JUMP JUMPDEST LT ISZERO JUMPDEST PUSH2 0x3975 JUMPI PUSH1 0x40 MLOAD PUSH3 0x461BCD PUSH1 0xE5 SHL DUP2 MSTORE PUSH1 0x20 PUSH1 0x4 DUP3 ADD MSTORE PUSH1 0x1D PUSH1 0x24 DUP3 ADD MSTORE PUSH32 0x5F6F726465725465726D696E6174652073746174652070726F626C656D000000 PUSH1 0x44 DUP3 ADD MSTORE PUSH1 0x64 ADD PUSH2 0x704 JUMP JUMPDEST DUP2 SLOAD PUSH1 0x40 MLOAD PUSH4 0x657C7E09 PUSH1 0xE0 SHL DUP2 MSTORE PUSH1 0x4 DUP2 ADD SWAP2 SWAP1 SWAP2 MSTORE PUSH1 0x0 SWAP1 DUP2 SWAP1 PUSH32 0x0 PUSH1 0x1 PUSH1 0x1 PUSH1 0xA0 SHL SUB AND SWAP1 PUSH4 0x657C7E09 SWAP1 PUSH1 0x24 ADD PUSH1 0x40 DUP1 MLOAD DUP1 DUP4 SUB DUP2 DUP7 GAS STATICCALL ISZERO DUP1 ISZERO PUSH2 0x39E1 JUMPI RETURNDATASIZE PUSH1 0x0 DUP1 RETURNDATACOPY RETURNDATASIZE PUSH1 0x0 REVERT JUMPDEST POP POP POP POP PUSH1 0x40 MLOAD RETURNDATASIZE PUSH1 0x1F NOT PUSH1 0x1F DUP3 ADD AND DUP3 ADD DUP1 PUSH1 0x40 MSTORE POP DUP2 ADD SWAP1 PUSH2 0x3A05 SWAP2 SWAP1 PUSH2 0x5484 JUMP JUMPDEST PUSH1 0x1 DUP7 ADD DUP1 SLOAD SWAP3 SWAP5 POP SWAP1 SWAP3 POP DUP5 SWAP2 PUSH1 0xFF PUSH1 0xA0 SHL NOT AND PUSH1 0x1 PUSH1 0xA0 SHL DUP4 PUSH1 0x5 DUP2 GT ISZERO PUSH2 0x3A31 JUMPI PUSH2 0x3A31 PUSH2 0x4F88 JUMP JUMPDEST MUL OR SWAP1 SSTORE POP PUSH1 0x1 DUP5 ADD SLOAD PUSH1 0x40 MLOAD PUSH4 0xF0340A37 PUSH1 0xE0 SHL DUP2 MSTORE PUSH1 0x1 PUSH1 0xA8 SHL SWAP1 SWAP2 DIV PUSH1 0xFF AND PUSH1 0x4 DUP3 ADD MSTORE PUSH20 0x0 SWAP1 PUSH4 0xF0340A37 SWAP1 PUSH1 0x24 ADD PUSH1 0x20 PUSH1 0x40 MLOAD DUP1 DUP4 SUB DUP2 DUP7 GAS DELEGATECALL ISZERO DUP1 ISZERO PUSH2 0x3A94 JUMPI RETURNDATASIZE PUSH1 0x0 DUP1 RETURNDATACOPY RETURNDATASIZE PUSH1 0x0 REVERT JUMPDEST POP POP POP POP PUSH1 0x40 MLOAD RETURNDATASIZE PUSH1 0x1F NOT PUSH1 0x1F DUP3 ADD AND DUP3 ADD DUP1 PUSH1 0x40 MSTORE POP DUP2 ADD SWAP1 PUSH2 0x3AB8 SWAP2 SWAP1 PUSH2 0x5373 JUMP JUMPDEST ISZERO PUSH2 0x3BEF JUMPI PUSH1 0x40 MLOAD PUSH4 0x23AA9AB PUSH1 0xE6 SHL DUP2 MSTORE PUSH1 0x0 DUP1 MLOAD PUSH1 0x20 PUSH2 0x588F DUP4 CODECOPY DUP2 MLOAD SWAP2 MSTORE PUSH1 0x4 DUP3 ADD MSTORE PUSH32 0x0 PUSH1 0x1 PUSH1 0x1 PUSH1 0xA0 SHL SUB AND SWAP1 PUSH4 0x8EAA6AC0 SWAP1 PUSH1 0x24 ADD PUSH1 0x20 PUSH1 0x40 MLOAD DUP1 DUP4 SUB DUP2 DUP7 GAS STATICCALL ISZERO DUP1 ISZERO PUSH2 0x3B2F JUMPI RETURNDATASIZE PUSH1 0x0 DUP1 RETURNDATACOPY RETURNDATASIZE PUSH1 0x0 REVERT JUMPDEST POP POP POP POP PUSH1 0x40 MLOAD RETURNDATASIZE PUSH1 0x1F NOT PUSH1 0x1F DUP3 ADD AND DUP3 ADD DUP1 PUSH1 0x40 MSTORE POP DUP2 ADD SWAP1 PUSH2 0x3B53 SWAP2 SWAP1 PUSH2 0x5395 JUMP JUMPDEST PUSH1 0x1 DUP6 ADD SLOAD PUSH1 0x3 DUP7 ADD SLOAD PUSH1 0x1 PUSH1 0x1 PUSH1 0xA0 SHL SUB SWAP3 DUP4 AND SWAP3 PUSH4 0x954C62BC SWAP3 DUP6 SWAP3 SWAP2 AND SWAP1 ADDRESS SWAP1 PUSH2 0x3B9D SWAP1 PUSH2 0x462 SWAP1 PUSH1 0x1 PUSH1 0x1 PUSH1 0x40 SHL SUB PUSH1 0x1 PUSH1 0x40 SHL DUP3 DIV DUP2 AND SWAP2 PUSH1 0x1 PUSH1 0x80 SHL SWAP1 DIV AND PUSH2 0x551E JUMP JUMPDEST PUSH1 0x40 MLOAD DUP6 PUSH4 0xFFFFFFFF AND PUSH1 0xE0 SHL DUP2 MSTORE PUSH1 0x4 ADD PUSH2 0x3BBC SWAP5 SWAP4 SWAP3 SWAP2 SWAP1 PUSH2 0x55BC JUMP JUMPDEST PUSH1 0x0 PUSH1 0x40 MLOAD DUP1 DUP4 SUB DUP2 PUSH1 0x0 DUP8 DUP1 EXTCODESIZE ISZERO DUP1 ISZERO PUSH2 0x3BD6 JUMPI PUSH1 0x0 DUP1 REVERT JUMPDEST POP GAS CALL ISZERO DUP1 ISZERO PUSH2 0x3BEA JUMPI RETURNDATASIZE PUSH1 0x0 DUP1 RETURNDATACOPY RETURNDATASIZE PUSH1 0x0 REVERT JUMPDEST POP POP POP POP JUMPDEST DUP4 SLOAD PUSH1 0x0 SWAP1 DUP2 MSTORE PUSH1 0x6 PUSH1 0x20 MSTORE PUSH1 0x40 SWAP1 DUP2 SWAP1 KECCAK256 PUSH1 0x2 DUP7 ADD SLOAD SWAP2 MLOAD PUSH4 0xCEF945B PUSH1 0xE3 SHL DUP2 MSTORE PUSH20 0x0 SWAP3 PUSH4 0x677CA2D8 SWAP3 PUSH2 0x3C46 SWAP3 SWAP1 SWAP2 SWAP1 PUSH1 0x4 ADD SWAP2 DUP3 MSTORE PUSH1 0x20 DUP3 ADD MSTORE PUSH1 0x40 ADD SWAP1 JUMP JUMPDEST PUSH1 0x20 PUSH1 0x40 MLOAD DUP1 DUP4 SUB DUP2 DUP7 GAS DELEGATECALL ISZERO DUP1 ISZERO PUSH2 0x3C63 JUMPI RETURNDATASIZE PUSH1 0x0 DUP1 RETURNDATACOPY RETURNDATASIZE PUSH1 0x0 REVERT JUMPDEST POP POP POP POP PUSH1 0x40 MLOAD RETURNDATASIZE PUSH1 0x1F NOT PUSH1 0x1F DUP3 ADD AND DUP3 ADD DUP1 PUSH1 0x40 MSTORE POP DUP2 ADD SWAP1 PUSH2 0x3C87 SWAP2 SWAP1 PUSH2 0x5373 JUMP JUMPDEST POP PUSH1 0x0 DUP3 DUP2 MSTORE PUSH1 0x7 PUSH1 0x20 MSTORE PUSH1 0x40 SWAP1 DUP2 SWAP1 KECCAK256 PUSH1 0x2 DUP7 ADD SLOAD SWAP2 MLOAD PUSH4 0xCEF945B PUSH1 0xE3 SHL DUP2 MSTORE PUSH20 0x0 SWAP3 PUSH4 0x677CA2D8 SWAP3 PUSH2 0x3CDD SWAP3 SWAP1 SWAP2 SWAP1 PUSH1 0x4 ADD SWAP2 DUP3 MSTORE PUSH1 0x20 DUP3 ADD MSTORE PUSH1 0x40 ADD SWAP1 JUMP JUMPDEST PUSH1 0x20 PUSH1 0x40 MLOAD DUP1 DUP4 SUB DUP2 DUP7 GAS DELEGATECALL ISZERO DUP1 ISZERO PUSH2 0x3CFA JUMPI RETURNDATASIZE PUSH1 0x0 DUP1 RETURNDATACOPY RETURNDATASIZE PUSH1 0x0 REVERT JUMPDEST POP POP POP POP PUSH1 0x40 MLOAD RETURNDATASIZE PUSH1 0x1F NOT PUSH1 0x1F DUP3 ADD AND DUP3 ADD DUP1 PUSH1 0x40 MSTORE POP DUP2 ADD SWAP1 PUSH2 0x3D1E SWAP2 SWAP1 PUSH2 0x5373 JUMP JUMPDEST POP PUSH1 0x0 DUP2 DUP2 MSTORE PUSH1 0x8 PUSH1 0x20 MSTORE PUSH1 0x40 SWAP1 DUP2 SWAP1 KECCAK256 PUSH1 0x2 DUP7 ADD SLOAD SWAP2 MLOAD PUSH4 0xCEF945B PUSH1 0xE3 SHL DUP2 MSTORE PUSH20 0x0 SWAP3 PUSH4 0x677CA2D8 SWAP3 PUSH2 0x3D74 SWAP3 SWAP1 SWAP2 SWAP1 PUSH1 0x4 ADD SWAP2 DUP3 MSTORE PUSH1 0x20 DUP3 ADD MSTORE PUSH1 0x40 ADD SWAP1 JUMP JUMPDEST PUSH1 0x20 PUSH1 0x40 MLOAD DUP1 DUP4 SUB DUP2 DUP7 GAS DELEGATECALL ISZERO DUP1 ISZERO PUSH2 0x3D91 JUMPI RETURNDATASIZE PUSH1 0x0 DUP1 RETURNDATACOPY RETURNDATASIZE PUSH1 0x0 REVERT JUMPDEST POP POP POP POP PUSH1 0x40 MLOAD RETURNDATASIZE PUSH1 0x1F NOT PUSH1 0x1F DUP3 ADD AND DUP3 ADD DUP1 PUSH1 0x40 MSTORE POP DUP2 ADD SWAP1 PUSH2 0x3DB5 SWAP2 SWAP1 PUSH2 0x5373 JUMP JUMPDEST POP POP POP POP POP JUMP JUMPDEST PUSH1 0x2 DUP2 ADD SLOAD PUSH1 0x40 MLOAD PUSH4 0xCEF945B PUSH1 0xE3 SHL DUP2 MSTORE PUSH1 0x4 DUP1 DUP3 ADD MSTORE PUSH1 0x24 DUP2 ADD SWAP2 SWAP1 SWAP2 MSTORE PUSH20 0x0 SWAP1 PUSH4 0x677CA2D8 SWAP1 PUSH1 0x44 ADD PUSH1 0x20 PUSH1 0x40 MLOAD DUP1 DUP4 SUB DUP2 DUP7 GAS DELEGATECALL ISZERO DUP1 ISZERO PUSH2 0x3E18 JUMPI RETURNDATASIZE PUSH1 0x0 DUP1 RETURNDATACOPY RETURNDATASIZE PUSH1 0x0 REVERT JUMPDEST POP POP POP POP PUSH1 0x40 MLOAD RETURNDATASIZE PUSH1 0x1F NOT PUSH1 0x1F DUP3 ADD AND DUP3 ADD DUP1 PUSH1 0x40 MSTORE POP DUP2 ADD SWAP1 PUSH2 0x3E3C SWAP2 SWAP1 PUSH2 0x5373 JUMP JUMPDEST POP NUMBER PUSH1 0x0 SWAP1 DUP2 MSTORE PUSH1 0x9 PUSH1 0x20 SWAP1 DUP2 MSTORE PUSH1 0x40 DUP3 KECCAK256 PUSH1 0x2 SWAP1 SWAP4 ADD SLOAD DUP4 SLOAD PUSH1 0x1 DUP2 ADD DUP6 SSTORE SWAP4 DUP4 MSTORE SWAP2 KECCAK256 SWAP1 SWAP2 ADD SSTORE JUMP JUMPDEST PUSH1 0x40 MLOAD PUSH4 0xE29A669 PUSH1 0xE2 SHL DUP2 MSTORE PUSH1 0x4 DUP2 ADD DUP3 SWAP1 MSTORE PUSH1 0x1 PUSH1 0x1 PUSH1 0xA0 SHL SUB PUSH32 0x0 AND SWAP1 PUSH4 0x38A699A4 SWAP1 PUSH1 0x24 ADD PUSH1 0x20 PUSH1 0x40 MLOAD DUP1 DUP4 SUB DUP2 DUP7 GAS STATICCALL ISZERO DUP1 ISZERO PUSH2 0x3ECC JUMPI RETURNDATASIZE PUSH1 0x0 DUP1 RETURNDATACOPY RETURNDATASIZE PUSH1 0x0 REVERT JUMPDEST POP POP POP POP PUSH1 0x40 MLOAD RETURNDATASIZE PUSH1 0x1F NOT PUSH1 0x1F DUP3 ADD AND DUP3 ADD DUP1 PUSH1 0x40 MSTORE POP DUP2 ADD SWAP1 PUSH2 0x3EF0 SWAP2 SWAP1 PUSH2 0x5373 JUMP JUMPDEST PUSH2 0x3EF7 JUMPI POP JUMP JUMPDEST PUSH1 0x40 MLOAD PUSH4 0x657C7E09 PUSH1 0xE0 SHL DUP2 MSTORE PUSH1 0x4 DUP2 ADD DUP3 SWAP1 MSTORE PUSH1 0x0 SWAP1 DUP2 SWAP1 PUSH1 0x1 PUSH1 0x1 PUSH1 0xA0 SHL SUB PUSH32 0x0 AND SWAP1 PUSH4 0x657C7E09 SWAP1 PUSH1 0x24 ADD PUSH1 0x40 DUP1 MLOAD DUP1 DUP4 SUB DUP2 DUP7 GAS STATICCALL ISZERO DUP1 ISZERO PUSH2 0x3F60 JUMPI RETURNDATASIZE PUSH1 0x0 DUP1 RETURNDATACOPY RETURNDATASIZE PUSH1 0x0 REVERT JUMPDEST POP POP POP POP PUSH1 0x40 MLOAD RETURNDATASIZE PUSH1 0x1F NOT PUSH1 0x1F DUP3 ADD AND DUP3 ADD DUP1 PUSH1 0x40 MSTORE POP DUP2 ADD SWAP1 PUSH2 0x3F84 SWAP2 SWAP1 PUSH2 0x5484 JUMP JUMPDEST SWAP2 POP SWAP2 POP PUSH2 0x3F92 DUP3 DUP5 PUSH2 0x8F0 JUMP JUMPDEST ISZERO PUSH2 0x3F9C JUMPI POP POP POP JUMP JUMPDEST PUSH1 0x0 DUP2 DUP2 MSTORE PUSH1 0x1 PUSH1 0x20 SWAP1 DUP2 MSTORE PUSH1 0x40 DUP1 DUP4 KECCAK256 DUP1 SLOAD DUP3 MLOAD DUP2 DUP6 MUL DUP2 ADD DUP6 ADD SWAP1 SWAP4 MSTORE DUP1 DUP4 MSTORE PUSH1 0x60 SWAP5 SWAP4 DUP4 ADD DUP3 DUP3 DUP1 ISZERO PUSH2 0x3FF1 JUMPI PUSH1 0x20 MUL DUP3 ADD SWAP2 SWAP1 PUSH1 0x0 MSTORE PUSH1 0x20 PUSH1 0x0 KECCAK256 SWAP1 JUMPDEST DUP2 SLOAD DUP2 MSTORE PUSH1 0x20 ADD SWAP1 PUSH1 0x1 ADD SWAP1 DUP1 DUP4 GT PUSH2 0x3FDD JUMPI JUMPDEST POP POP POP POP POP SWAP1 POP DUP1 MLOAD PUSH1 0x1 PUSH1 0x1 PUSH1 0x40 SHL SUB DUP2 GT ISZERO PUSH2 0x4011 JUMPI PUSH2 0x4011 PUSH2 0x56D0 JUMP JUMPDEST PUSH1 0x40 MLOAD SWAP1 DUP1 DUP3 MSTORE DUP1 PUSH1 0x20 MUL PUSH1 0x20 ADD DUP3 ADD PUSH1 0x40 MSTORE DUP1 ISZERO PUSH2 0x4044 JUMPI DUP2 PUSH1 0x20 ADD JUMPDEST PUSH1 0x60 DUP2 MSTORE PUSH1 0x20 ADD SWAP1 PUSH1 0x1 SWAP1 SUB SWAP1 DUP2 PUSH2 0x402F JUMPI SWAP1 POP JUMPDEST POP SWAP2 POP PUSH1 0x0 DUP1 JUMPDEST DUP3 MLOAD DUP2 LT ISZERO PUSH2 0x41C0 JUMPI PUSH1 0x0 PUSH32 0x0 PUSH1 0x1 PUSH1 0x1 PUSH1 0xA0 SHL SUB AND PUSH4 0x27EE9DC2 DUP6 DUP5 DUP2 MLOAD DUP2 LT PUSH2 0x4097 JUMPI PUSH2 0x4097 PUSH2 0x56E6 JUMP JUMPDEST PUSH1 0x20 MUL PUSH1 0x20 ADD ADD MLOAD PUSH1 0x40 MLOAD DUP3 PUSH4 0xFFFFFFFF AND PUSH1 0xE0 SHL DUP2 MSTORE PUSH1 0x4 ADD PUSH2 0x40BD SWAP2 DUP2 MSTORE PUSH1 0x20 ADD SWAP1 JUMP JUMPDEST PUSH1 0x0 PUSH1 0x40 MLOAD DUP1 DUP4 SUB DUP2 DUP7 GAS STATICCALL ISZERO DUP1 ISZERO PUSH2 0x40DA JUMPI RETURNDATASIZE PUSH1 0x0 DUP1 RETURNDATACOPY RETURNDATASIZE PUSH1 0x0 REVERT JUMPDEST POP POP POP POP PUSH1 0x40 MLOAD RETURNDATASIZE PUSH1 0x0 DUP3 RETURNDATACOPY PUSH1 0x1F RETURNDATASIZE SWAP1 DUP2 ADD PUSH1 0x1F NOT AND DUP3 ADD PUSH1 0x40 MSTORE PUSH2 0x4102 SWAP2 SWAP1 DUP2 ADD SWAP1 PUSH2 0x56FC JUMP JUMPDEST PUSH1 0x40 MLOAD PUSH4 0x9D84366D PUSH1 0xE0 SHL DUP2 MSTORE SWAP1 SWAP2 POP PUSH20 0x0 SWAP1 PUSH4 0x9D84366D SWAP1 PUSH2 0x413E SWAP1 DUP5 SWAP1 DUP12 SWAP1 PUSH1 0x4 ADD PUSH2 0x57E8 JUMP JUMPDEST PUSH1 0x20 PUSH1 0x40 MLOAD DUP1 DUP4 SUB DUP2 DUP7 GAS DELEGATECALL ISZERO DUP1 ISZERO PUSH2 0x415B JUMPI RETURNDATASIZE PUSH1 0x0 DUP1 RETURNDATACOPY RETURNDATASIZE PUSH1 0x0 REVERT JUMPDEST POP POP POP POP PUSH1 0x40 MLOAD RETURNDATASIZE PUSH1 0x1F NOT PUSH1 0x1F DUP3 ADD AND DUP3 ADD DUP1 PUSH1 0x40 MSTORE POP DUP2 ADD SWAP1 PUSH2 0x417F SWAP2 SWAP1 PUSH2 0x5373 JUMP JUMPDEST PUSH2 0x41AD JUMPI DUP1 DUP6 DUP5 PUSH2 0x418F DUP2 PUSH2 0x580A JUMP JUMPDEST SWAP6 POP DUP2 MLOAD DUP2 LT PUSH2 0x41A1 JUMPI PUSH2 0x41A1 PUSH2 0x56E6 JUMP JUMPDEST PUSH1 0x20 MUL PUSH1 0x20 ADD ADD DUP2 SWAP1 MSTORE POP JUMPDEST POP DUP1 PUSH2 0x41B8 DUP2 PUSH2 0x580A JUMP JUMPDEST SWAP2 POP POP PUSH2 0x404B JUMP JUMPDEST POP DUP3 MSTORE POP PUSH1 0x0 DUP4 DUP2 MSTORE PUSH1 0x2 PUSH1 0x20 SWAP1 DUP2 MSTORE PUSH1 0x40 DUP1 DUP4 KECCAK256 DUP1 SLOAD DUP3 MLOAD DUP2 DUP6 MUL DUP2 ADD DUP6 ADD SWAP1 SWAP4 MSTORE DUP1 DUP4 MSTORE PUSH1 0x60 SWAP5 SWAP4 DUP4 ADD DUP3 DUP3 DUP1 ISZERO PUSH2 0x4219 JUMPI PUSH1 0x20 MUL DUP3 ADD SWAP2 SWAP1 PUSH1 0x0 MSTORE PUSH1 0x20 PUSH1 0x0 KECCAK256 SWAP1 JUMPDEST DUP2 SLOAD DUP2 MSTORE PUSH1 0x20 ADD SWAP1 PUSH1 0x1 ADD SWAP1 DUP1 DUP4 GT PUSH2 0x4205 JUMPI JUMPDEST POP POP POP POP POP SWAP1 POP DUP1 MLOAD PUSH1 0x1 PUSH1 0x1 PUSH1 0x40 SHL SUB DUP2 GT ISZERO PUSH2 0x4239 JUMPI PUSH2 0x4239 PUSH2 0x56D0 JUMP JUMPDEST PUSH1 0x40 MLOAD SWAP1 DUP1 DUP3 MSTORE DUP1 PUSH1 0x20 MUL PUSH1 0x20 ADD DUP3 ADD PUSH1 0x40 MSTORE DUP1 ISZERO PUSH2 0x426C JUMPI DUP2 PUSH1 0x20 ADD JUMPDEST PUSH1 0x60 DUP2 MSTORE PUSH1 0x20 ADD SWAP1 PUSH1 0x1 SWAP1 SUB SWAP1 DUP2 PUSH2 0x4257 JUMPI SWAP1 POP JUMPDEST POP SWAP2 POP PUSH1 0x0 DUP1 JUMPDEST DUP3 MLOAD DUP2 LT ISZERO PUSH2 0x43E8 JUMPI PUSH1 0x0 PUSH32 0x0 PUSH1 0x1 PUSH1 0x1 PUSH1 0xA0 SHL SUB AND PUSH4 0x27EE9DC2 DUP6 DUP5 DUP2 MLOAD DUP2 LT PUSH2 0x42BF JUMPI PUSH2 0x42BF PUSH2 0x56E6 JUMP JUMPDEST PUSH1 0x20 MUL PUSH1 0x20 ADD ADD MLOAD PUSH1 0x40 MLOAD DUP3 PUSH4 0xFFFFFFFF AND PUSH1 0xE0 SHL DUP2 MSTORE PUSH1 0x4 ADD PUSH2 0x42E5 SWAP2 DUP2 MSTORE PUSH1 0x20 ADD SWAP1 JUMP JUMPDEST PUSH1 0x0 PUSH1 0x40 MLOAD DUP1 DUP4 SUB DUP2 DUP7 GAS STATICCALL ISZERO DUP1 ISZERO PUSH2 0x4302 JUMPI RETURNDATASIZE PUSH1 0x0 DUP1 RETURNDATACOPY RETURNDATASIZE PUSH1 0x0 REVERT JUMPDEST POP POP POP POP PUSH1 0x40 MLOAD RETURNDATASIZE PUSH1 0x0 DUP3 RETURNDATACOPY PUSH1 0x1F RETURNDATASIZE SWAP1 DUP2 ADD PUSH1 0x1F NOT AND DUP3 ADD PUSH1 0x40 MSTORE PUSH2 0x432A SWAP2 SWAP1 DUP2 ADD SWAP1 PUSH2 0x56FC JUMP JUMPDEST PUSH1 0x40 MLOAD PUSH4 0x9D84366D PUSH1 0xE0 SHL DUP2 MSTORE SWAP1 SWAP2 POP PUSH20 0x0 SWAP1 PUSH4 0x9D84366D SWAP1 PUSH2 0x4366 SWAP1 DUP5 SWAP1 DUP12 SWAP1 PUSH1 0x4 ADD PUSH2 0x57E8 JUMP JUMPDEST PUSH1 0x20 PUSH1 0x40 MLOAD DUP1 DUP4 SUB DUP2 DUP7 GAS DELEGATECALL ISZERO DUP1 ISZERO PUSH2 0x4383 JUMPI RETURNDATASIZE PUSH1 0x0 DUP1 RETURNDATACOPY RETURNDATASIZE PUSH1 0x0 REVERT JUMPDEST POP POP POP POP PUSH1 0x40 MLOAD RETURNDATASIZE PUSH1 0x1F NOT PUSH1 0x1F DUP3 ADD AND DUP3 ADD DUP1 PUSH1 0x40 MSTORE POP DUP2 ADD SWAP1 PUSH2 0x43A7 SWAP2 SWAP1 PUSH2 0x5373 JUMP JUMPDEST PUSH2 0x43D5 JUMPI DUP1 DUP6 DUP5 PUSH2 0x43B7 DUP2 PUSH2 0x580A JUMP JUMPDEST SWAP6 POP DUP2 MLOAD DUP2 LT PUSH2 0x43C9 JUMPI PUSH2 0x43C9 PUSH2 0x56E6 JUMP JUMPDEST PUSH1 0x20 MUL PUSH1 0x20 ADD ADD DUP2 SWAP1 MSTORE POP JUMPDEST POP DUP1 PUSH2 0x43E0 DUP2 PUSH2 0x580A JUMP JUMPDEST SWAP2 POP POP PUSH2 0x4273 JUMP JUMPDEST POP DUP3 MSTORE POP PUSH1 0x0 DUP5 DUP2 MSTORE PUSH1 0x1 PUSH1 0x20 MSTORE PUSH1 0x40 SWAP1 DUP2 SWAP1 KECCAK256 SWAP1 MLOAD PUSH4 0x16061A71 PUSH1 0xE2 SHL DUP2 MSTORE PUSH1 0x4 DUP2 ADD SWAP2 SWAP1 SWAP2 MSTORE PUSH1 0x24 DUP2 ADD DUP7 SWAP1 MSTORE PUSH20 0x0 SWAP1 PUSH4 0x581869C4 SWAP1 PUSH1 0x44 ADD PUSH1 0x20 PUSH1 0x40 MLOAD DUP1 DUP4 SUB DUP2 DUP7 GAS DELEGATECALL ISZERO DUP1 ISZERO PUSH2 0x4453 JUMPI RETURNDATASIZE PUSH1 0x0 DUP1 RETURNDATACOPY RETURNDATASIZE PUSH1 0x0 REVERT JUMPDEST POP POP POP POP PUSH1 0x40 MLOAD RETURNDATASIZE PUSH1 0x1F NOT PUSH1 0x1F DUP3 ADD AND DUP3 ADD DUP1 PUSH1 0x40 MSTORE POP DUP2 ADD SWAP1 PUSH2 0x4477 SWAP2 SWAP1 PUSH2 0x5373 JUMP JUMPDEST POP PUSH1 0x0 DUP4 DUP2 MSTORE PUSH1 0x2 PUSH1 0x20 MSTORE PUSH1 0x40 SWAP1 DUP2 SWAP1 KECCAK256 SWAP1 MLOAD PUSH4 0x16061A71 PUSH1 0xE2 SHL DUP2 MSTORE PUSH1 0x4 DUP2 ADD SWAP2 SWAP1 SWAP2 MSTORE PUSH1 0x24 DUP2 ADD DUP7 SWAP1 MSTORE PUSH20 0x0 SWAP1 PUSH4 0x581869C4 SWAP1 PUSH1 0x44 ADD PUSH1 0x20 PUSH1 0x40 MLOAD DUP1 DUP4 SUB DUP2 DUP7 GAS DELEGATECALL ISZERO DUP1 ISZERO PUSH2 0x44DF JUMPI RETURNDATASIZE PUSH1 0x0 DUP1 RETURNDATACOPY RETURNDATASIZE PUSH1 0x0 REVERT JUMPDEST POP POP POP POP PUSH1 0x40 MLOAD RETURNDATASIZE PUSH1 0x1F NOT PUSH1 0x1F DUP3 ADD AND DUP3 ADD DUP1 PUSH1 0x40 MSTORE POP DUP2 ADD SWAP1 PUSH2 0x4503 SWAP2 SWAP1 PUSH2 0x5373 JUMP JUMPDEST POP PUSH1 0x0 JUMPDEST DUP2 MLOAD DUP2 LT ISZERO PUSH2 0x4793 JUMPI PUSH1 0x0 DUP3 DUP3 DUP2 MLOAD DUP2 LT PUSH2 0x4524 JUMPI PUSH2 0x4524 PUSH2 0x56E6 JUMP JUMPDEST PUSH1 0x20 MUL PUSH1 0x20 ADD ADD MLOAD PUSH20 0x0 PUSH4 0x9B861F03 SWAP1 SWAP2 DUP8 PUSH1 0x40 MLOAD DUP4 PUSH4 0xFFFFFFFF AND PUSH1 0xE0 SHL DUP2 MSTORE PUSH1 0x4 ADD PUSH2 0x4566 SWAP3 SWAP2 SWAP1 PUSH2 0x57E8 JUMP JUMPDEST PUSH1 0x0 PUSH1 0x40 MLOAD DUP1 DUP4 SUB DUP2 DUP7 GAS DELEGATECALL ISZERO DUP1 ISZERO PUSH2 0x4583 JUMPI RETURNDATASIZE PUSH1 0x0 DUP1 RETURNDATACOPY RETURNDATASIZE PUSH1 0x0 REVERT JUMPDEST POP POP POP POP PUSH1 0x40 MLOAD RETURNDATASIZE PUSH1 0x0 DUP3 RETURNDATACOPY PUSH1 0x1F RETURNDATASIZE SWAP1 DUP2 ADD PUSH1 0x1F NOT AND DUP3 ADD PUSH1 0x40 MSTORE PUSH2 0x45AB SWAP2 SWAP1 DUP2 ADD SWAP1 PUSH2 0x56FC JUMP JUMPDEST SWAP1 POP PUSH1 0x0 PUSH32 0x0 PUSH1 0x1 PUSH1 0x1 PUSH1 0xA0 SHL SUB AND PUSH4 0xB3054383 DUP4 PUSH1 0x40 MLOAD DUP3 PUSH4 0xFFFFFFFF AND PUSH1 0xE0 SHL DUP2 MSTORE PUSH1 0x4 ADD PUSH2 0x45FB SWAP2 SWAP1 PUSH2 0x5825 JUMP JUMPDEST PUSH1 0x20 PUSH1 0x40 MLOAD DUP1 DUP4 SUB DUP2 PUSH1 0x0 DUP8 GAS CALL ISZERO DUP1 ISZERO PUSH2 0x461A JUMPI RETURNDATASIZE PUSH1 0x0 DUP1 RETURNDATACOPY RETURNDATASIZE PUSH1 0x0 REVERT JUMPDEST POP POP POP POP PUSH1 0x40 MLOAD RETURNDATASIZE PUSH1 0x1F NOT PUSH1 0x1F DUP3 ADD AND DUP3 ADD DUP1 PUSH1 0x40 MSTORE POP DUP2 ADD SWAP1 PUSH2 0x463E SWAP2 SWAP1 PUSH2 0x54A8 JUMP JUMPDEST SWAP1 POP PUSH1 0x1 PUSH1 0x0 DUP4 PUSH1 0x0 DUP2 MLOAD DUP2 LT PUSH2 0x4657 JUMPI PUSH2 0x4657 PUSH2 0x56E6 JUMP JUMPDEST PUSH1 0x20 MUL PUSH1 0x20 ADD ADD MLOAD DUP2 MSTORE PUSH1 0x20 ADD SWAP1 DUP2 MSTORE PUSH1 0x20 ADD PUSH1 0x0 KECCAK256 PUSH20 0x0 PUSH4 0x581869C4 SWAP1 SWAP2 DUP4 PUSH1 0x40 MLOAD DUP4 PUSH4 0xFFFFFFFF AND PUSH1 0xE0 SHL DUP2 MSTORE PUSH1 0x4 ADD PUSH2 0x46B0 SWAP3 SWAP2 SWAP1 SWAP2 DUP3 MSTORE PUSH1 0x20 DUP3 ADD MSTORE PUSH1 0x40 ADD SWAP1 JUMP JUMPDEST PUSH1 0x20 PUSH1 0x40 MLOAD DUP1 DUP4 SUB DUP2 DUP7 GAS DELEGATECALL ISZERO DUP1 ISZERO PUSH2 0x46CD JUMPI RETURNDATASIZE PUSH1 0x0 DUP1 RETURNDATACOPY RETURNDATASIZE PUSH1 0x0 REVERT JUMPDEST POP POP POP POP PUSH1 0x40 MLOAD RETURNDATASIZE PUSH1 0x1F NOT PUSH1 0x1F DUP3 ADD AND DUP3 ADD DUP1 PUSH1 0x40 MSTORE POP DUP2 ADD SWAP1 PUSH2 0x46F1 SWAP2 SWAP1 PUSH2 0x5373 JUMP JUMPDEST POP PUSH1 0x0 DUP7 DUP2 MSTORE PUSH1 0x2 PUSH1 0x20 MSTORE PUSH1 0x40 SWAP1 DUP2 SWAP1 KECCAK256 SWAP1 MLOAD PUSH4 0x16061A71 PUSH1 0xE2 SHL DUP2 MSTORE PUSH1 0x4 DUP2 ADD SWAP2 SWAP1 SWAP2 MSTORE PUSH1 0x24 DUP2 ADD DUP3 SWAP1 MSTORE PUSH20 0x0 SWAP1 PUSH4 0x581869C4 SWAP1 PUSH1 0x44 ADD PUSH1 0x20 PUSH1 0x40 MLOAD DUP1 DUP4 SUB DUP2 DUP7 GAS DELEGATECALL ISZERO DUP1 ISZERO PUSH2 0x4759 JUMPI RETURNDATASIZE PUSH1 0x0 DUP1 RETURNDATACOPY RETURNDATASIZE PUSH1 0x0 REVERT JUMPDEST POP POP POP POP PUSH1 0x40 MLOAD RETURNDATASIZE PUSH1 0x1F NOT PUSH1 0x1F DUP3 ADD AND DUP3 ADD DUP1 PUSH1 0x40 MSTORE POP DUP2 ADD SWAP1 PUSH2 0x477D SWAP2 SWAP1 PUSH2 0x5373 JUMP JUMPDEST POP POP POP DUP1 DUP1 PUSH2 0x478B SWAP1 PUSH2 0x580A JUMP JUMPDEST SWAP2 POP POP PUSH2 0x4507 JUMP JUMPDEST POP PUSH1 0x0 JUMPDEST DUP3 MLOAD DUP2 LT ISZERO PUSH2 0x4A35 JUMPI PUSH1 0x0 DUP4 DUP3 DUP2 MLOAD DUP2 LT PUSH2 0x47B4 JUMPI PUSH2 0x47B4 PUSH2 0x56E6 JUMP JUMPDEST PUSH1 0x20 MUL PUSH1 0x20 ADD ADD MLOAD PUSH20 0x0 PUSH4 0x3B06E74F SWAP1 SWAP2 DUP9 PUSH1 0x40 MLOAD DUP4 PUSH4 0xFFFFFFFF AND PUSH1 0xE0 SHL DUP2 MSTORE PUSH1 0x4 ADD PUSH2 0x47F6 SWAP3 SWAP2 SWAP1 PUSH2 0x57E8 JUMP JUMPDEST PUSH1 0x0 PUSH1 0x40 MLOAD DUP1 DUP4 SUB DUP2 DUP7 GAS DELEGATECALL ISZERO DUP1 ISZERO PUSH2 0x4813 JUMPI RETURNDATASIZE PUSH1 0x0 DUP1 RETURNDATACOPY RETURNDATASIZE PUSH1 0x0 REVERT JUMPDEST POP POP POP POP PUSH1 0x40 MLOAD RETURNDATASIZE PUSH1 0x0 DUP3 RETURNDATACOPY PUSH1 0x1F RETURNDATASIZE SWAP1 DUP2 ADD PUSH1 0x1F NOT AND DUP3 ADD PUSH1 0x40 MSTORE PUSH2 0x483B SWAP2 SWAP1 DUP2 ADD SWAP1 PUSH2 0x56FC JUMP JUMPDEST SWAP1 POP PUSH1 0x0 PUSH32 0x0 PUSH1 0x1 PUSH1 0x1 PUSH1 0xA0 SHL SUB AND PUSH4 0xB3054383 DUP4 PUSH1 0x40 MLOAD DUP3 PUSH4 0xFFFFFFFF AND PUSH1 0xE0 SHL DUP2 MSTORE PUSH1 0x4 ADD PUSH2 0x488B SWAP2 SWAP1 PUSH2 0x5825 JUMP JUMPDEST PUSH1 0x20 PUSH1 0x40 MLOAD DUP1 DUP4 SUB DUP2 PUSH1 0x0 DUP8 GAS CALL ISZERO DUP1 ISZERO PUSH2 0x48AA JUMPI RETURNDATASIZE PUSH1 0x0 DUP1 RETURNDATACOPY RETURNDATASIZE PUSH1 0x0 REVERT JUMPDEST POP POP POP POP PUSH1 0x40 MLOAD RETURNDATASIZE PUSH1 0x1F NOT PUSH1 0x1F DUP3 ADD AND DUP3 ADD DUP1 PUSH1 0x40 MSTORE POP DUP2 ADD SWAP1 PUSH2 0x48CE SWAP2 SWAP1 PUSH2 0x54A8 JUMP JUMPDEST PUSH1 0x0 DUP9 DUP2 MSTORE PUSH1 0x1 PUSH1 0x20 MSTORE PUSH1 0x40 SWAP1 DUP2 SWAP1 KECCAK256 SWAP1 MLOAD PUSH4 0x16061A71 PUSH1 0xE2 SHL DUP2 MSTORE SWAP2 SWAP3 POP PUSH20 0x0 SWAP2 PUSH4 0x581869C4 SWAP2 PUSH2 0x4920 SWAP2 DUP6 SWAP1 PUSH1 0x4 ADD SWAP2 DUP3 MSTORE PUSH1 0x20 DUP3 ADD MSTORE PUSH1 0x40 ADD SWAP1 JUMP JUMPDEST PUSH1 0x20 PUSH1 0x40 MLOAD DUP1 DUP4 SUB DUP2 DUP7 GAS DELEGATECALL ISZERO DUP1 ISZERO PUSH2 0x493D JUMPI RETURNDATASIZE PUSH1 0x0 DUP1 RETURNDATACOPY RETURNDATASIZE PUSH1 0x0 REVERT JUMPDEST POP POP POP POP PUSH1 0x40 MLOAD RETURNDATASIZE PUSH1 0x1F NOT PUSH1 0x1F DUP3 ADD AND DUP3 ADD DUP1 PUSH1 0x40 MSTORE POP DUP2 ADD SWAP1 PUSH2 0x4961 SWAP2 SWAP1 PUSH2 0x5373 JUMP JUMPDEST POP PUSH1 0x2 PUSH1 0x0 DUP4 PUSH1 0x1 DUP6 MLOAD PUSH2 0x4975 SWAP2 SWAP1 PUSH2 0x54EF JUMP JUMPDEST DUP2 MLOAD DUP2 LT PUSH2 0x4985 JUMPI PUSH2 0x4985 PUSH2 0x56E6 JUMP JUMPDEST PUSH1 0x20 MUL PUSH1 0x20 ADD ADD MLOAD DUP2 MSTORE PUSH1 0x20 ADD SWAP1 DUP2 MSTORE PUSH1 0x20 ADD PUSH1 0x0 KECCAK256 PUSH20 0x0 PUSH4 0x581869C4 SWAP1 SWAP2 DUP4 PUSH1 0x40 MLOAD DUP4 PUSH4 0xFFFFFFFF AND PUSH1 0xE0 SHL DUP2 MSTORE PUSH1 0x4 ADD PUSH2 0x49DE SWAP3 SWAP2 SWAP1 SWAP2 DUP3 MSTORE PUSH1 0x20 DUP3 ADD MSTORE PUSH1 0x40 ADD SWAP1 JUMP JUMPDEST PUSH1 0x20 PUSH1 0x40 MLOAD DUP1 DUP4 SUB DUP2 DUP7 GAS DELEGATECALL ISZERO DUP1 ISZERO PUSH2 0x49FB JUMPI RETURNDATASIZE PUSH1 0x0 DUP1 RETURNDATACOPY RETURNDATASIZE PUSH1 0x0 REVERT JUMPDEST POP POP POP POP PUSH1 0x40 MLOAD RETURNDATASIZE PUSH1 0x1F NOT PUSH1 0x1F DUP3 ADD AND DUP3 ADD DUP1 PUSH1 0x40 MSTORE POP DUP2 ADD SWAP1 PUSH2 0x4A1F SWAP2 SWAP1 PUSH2 0x5373 JUMP JUMPDEST POP POP POP DUP1 DUP1 PUSH2 0x4A2D SWAP1 PUSH2 0x580A JUMP JUMPDEST SWAP2 POP POP PUSH2 0x4797 JUMP JUMPDEST POP PUSH1 0x0 JUMPDEST DUP2 MLOAD DUP2 LT ISZERO PUSH2 0x4E09 JUMPI PUSH1 0x0 JUMPDEST DUP4 MLOAD DUP2 LT ISZERO PUSH2 0x4DF6 JUMPI PUSH1 0x0 DUP5 DUP3 DUP2 MLOAD DUP2 LT PUSH2 0x4A62 JUMPI PUSH2 0x4A62 PUSH2 0x56E6 JUMP JUMPDEST PUSH1 0x20 MUL PUSH1 0x20 ADD ADD MLOAD SWAP1 POP PUSH1 0x0 DUP5 DUP4 DUP2 MLOAD DUP2 LT PUSH2 0x4A80 JUMPI PUSH2 0x4A80 PUSH2 0x56E6 JUMP JUMPDEST PUSH1 0x20 MUL PUSH1 0x20 ADD ADD MLOAD SWAP1 POP PUSH1 0x0 JUMPDEST DUP3 MLOAD DUP2 LT ISZERO PUSH2 0x4B47 JUMPI DUP2 PUSH20 0x0 PUSH4 0x9D84366D SWAP1 SWAP2 DUP6 DUP5 DUP2 MLOAD DUP2 LT PUSH2 0x4AC5 JUMPI PUSH2 0x4AC5 PUSH2 0x56E6 JUMP JUMPDEST PUSH1 0x20 MUL PUSH1 0x20 ADD ADD MLOAD PUSH1 0x40 MLOAD DUP4 PUSH4 0xFFFFFFFF AND PUSH1 0xE0 SHL DUP2 MSTORE PUSH1 0x4 ADD PUSH2 0x4AEA SWAP3 SWAP2 SWAP1 PUSH2 0x57E8 JUMP JUMPDEST PUSH1 0x20 PUSH1 0x40 MLOAD DUP1 DUP4 SUB DUP2 DUP7 GAS DELEGATECALL ISZERO DUP1 ISZERO PUSH2 0x4B07 JUMPI RETURNDATASIZE PUSH1 0x0 DUP1 RETURNDATACOPY RETURNDATASIZE PUSH1 0x0 REVERT JUMPDEST POP POP POP POP PUSH1 0x40 MLOAD RETURNDATASIZE PUSH1 0x1F NOT PUSH1 0x1F DUP3 ADD AND DUP3 ADD DUP1 PUSH1 0x40 MSTORE POP DUP2 ADD SWAP1 PUSH2 0x4B2B SWAP2 SWAP1 PUSH2 0x5373 JUMP JUMPDEST ISZERO PUSH2 0x4B35 JUMPI PUSH2 0x4B47 JUMP JUMPDEST DUP1 PUSH2 0x4B3F DUP2 PUSH2 0x580A JUMP JUMPDEST SWAP2 POP POP PUSH2 0x4A8D JUMP JUMPDEST DUP3 MLOAD DUP2 LT ISZERO PUSH2 0x4B58 JUMPI POP POP POP PUSH2 0x4DE4 JUMP JUMPDEST PUSH1 0x40 MLOAD PUSH4 0x2704AE9 PUSH1 0xE3 SHL DUP2 MSTORE PUSH1 0x0 SWAP1 PUSH20 0x0 SWAP1 PUSH4 0x13825748 SWAP1 PUSH2 0x4B94 SWAP1 DUP8 SWAP1 DUP8 SWAP1 PUSH1 0x4 ADD PUSH2 0x5869 JUMP JUMPDEST PUSH1 0x0 PUSH1 0x40 MLOAD DUP1 DUP4 SUB DUP2 DUP7 GAS DELEGATECALL ISZERO DUP1 ISZERO PUSH2 0x4BB1 JUMPI RETURNDATASIZE PUSH1 0x0 DUP1 RETURNDATACOPY RETURNDATASIZE PUSH1 0x0 REVERT JUMPDEST POP POP POP POP PUSH1 0x40 MLOAD RETURNDATASIZE PUSH1 0x0 DUP3 RETURNDATACOPY PUSH1 0x1F RETURNDATASIZE SWAP1 DUP2 ADD PUSH1 0x1F NOT AND DUP3 ADD PUSH1 0x40 MSTORE PUSH2 0x4BD9 SWAP2 SWAP1 DUP2 ADD SWAP1 PUSH2 0x56FC JUMP JUMPDEST SWAP1 POP PUSH1 0x0 PUSH32 0x0 PUSH1 0x1 PUSH1 0x1 PUSH1 0xA0 SHL SUB AND PUSH4 0xB3054383 DUP4 PUSH1 0x40 MLOAD DUP3 PUSH4 0xFFFFFFFF AND PUSH1 0xE0 SHL DUP2 MSTORE PUSH1 0x4 ADD PUSH2 0x4C29 SWAP2 SWAP1 PUSH2 0x5825 JUMP JUMPDEST PUSH1 0x20 PUSH1 0x40 MLOAD DUP1 DUP4 SUB DUP2 PUSH1 0x0 DUP8 GAS CALL ISZERO DUP1 ISZERO PUSH2 0x4C48 JUMPI RETURNDATASIZE PUSH1 0x0 DUP1 RETURNDATACOPY RETURNDATASIZE PUSH1 0x0 REVERT JUMPDEST POP POP POP POP PUSH1 0x40 MLOAD RETURNDATASIZE PUSH1 0x1F NOT PUSH1 0x1F DUP3 ADD AND DUP3 ADD DUP1 PUSH1 0x40 MSTORE POP DUP2 ADD SWAP1 PUSH2 0x4C6C SWAP2 SWAP1 PUSH2 0x54A8 JUMP JUMPDEST SWAP1 POP PUSH1 0x1 PUSH1 0x0 DUP4 PUSH1 0x0 DUP2 MLOAD DUP2 LT PUSH2 0x4C85 JUMPI PUSH2 0x4C85 PUSH2 0x56E6 JUMP JUMPDEST PUSH1 0x20 MUL PUSH1 0x20 ADD ADD MLOAD DUP2 MSTORE PUSH1 0x20 ADD SWAP1 DUP2 MSTORE PUSH1 0x20 ADD PUSH1 0x0 KECCAK256 PUSH20 0x0 PUSH4 0x581869C4 SWAP1 SWAP2 DUP4 PUSH1 0x40 MLOAD DUP4 PUSH4 0xFFFFFFFF AND PUSH1 0xE0 SHL DUP2 MSTORE PUSH1 0x4 ADD PUSH2 0x4CDE SWAP3 SWAP2 SWAP1 SWAP2 DUP3 MSTORE PUSH1 0x20 DUP3 ADD MSTORE PUSH1 0x40 ADD SWAP1 JUMP JUMPDEST PUSH1 0x20 PUSH1 0x40 MLOAD DUP1 DUP4 SUB DUP2 DUP7 GAS DELEGATECALL ISZERO DUP1 ISZERO PUSH2 0x4CFB JUMPI RETURNDATASIZE PUSH1 0x0 DUP1 RETURNDATACOPY RETURNDATASIZE PUSH1 0x0 REVERT JUMPDEST POP POP POP POP PUSH1 0x40 MLOAD RETURNDATASIZE PUSH1 0x1F NOT PUSH1 0x1F DUP3 ADD AND DUP3 ADD DUP1 PUSH1 0x40 MSTORE POP DUP2 ADD SWAP1 PUSH2 0x4D1F SWAP2 SWAP1 PUSH2 0x5373 JUMP JUMPDEST POP PUSH1 0x2 PUSH1 0x0 DUP4 PUSH1 0x1 DUP6 MLOAD PUSH2 0x4D33 SWAP2 SWAP1 PUSH2 0x54EF JUMP JUMPDEST DUP2 MLOAD DUP2 LT PUSH2 0x4D43 JUMPI PUSH2 0x4D43 PUSH2 0x56E6 JUMP JUMPDEST PUSH1 0x20 MUL PUSH1 0x20 ADD ADD MLOAD DUP2 MSTORE PUSH1 0x20 ADD SWAP1 DUP2 MSTORE PUSH1 0x20 ADD PUSH1 0x0 KECCAK256 PUSH20 0x0 PUSH4 0x581869C4 SWAP1 SWAP2 DUP4 PUSH1 0x40 MLOAD DUP4 PUSH4 0xFFFFFFFF AND PUSH1 0xE0 SHL DUP2 MSTORE PUSH1 0x4 ADD PUSH2 0x4D9C SWAP3 SWAP2 SWAP1 SWAP2 DUP3 MSTORE PUSH1 0x20 DUP3 ADD MSTORE PUSH1 0x40 ADD SWAP1 JUMP JUMPDEST PUSH1 0x20 PUSH1 0x40 MLOAD DUP1 DUP4 SUB DUP2 DUP7 GAS DELEGATECALL ISZERO DUP1 ISZERO PUSH2 0x4DB9 JUMPI RETURNDATASIZE PUSH1 0x0 DUP1 RETURNDATACOPY RETURNDATASIZE PUSH1 0x0 REVERT JUMPDEST POP POP POP POP PUSH1 0x40 MLOAD RETURNDATASIZE PUSH1 0x1F NOT PUSH1 0x1F DUP3 ADD AND DUP3 ADD DUP1 PUSH1 0x40 MSTORE POP DUP2 ADD SWAP1 PUSH2 0x4DDD SWAP2 SWAP1 PUSH2 0x5373 JUMP JUMPDEST POP POP POP POP POP POP JUMPDEST DUP1 PUSH2 0x4DEE DUP2 PUSH2 0x580A JUMP JUMPDEST SWAP2 POP POP PUSH2 0x4A45 JUMP JUMPDEST POP DUP1 PUSH2 0x4E01 DUP2 PUSH2 0x580A JUMP JUMPDEST SWAP2 POP POP PUSH2 0x4A39 JUMP JUMPDEST POP POP POP POP POP POP JUMP JUMPDEST PUSH1 0x40 MLOAD DUP1 PUSH2 0x1C0 ADD PUSH1 0x40 MSTORE DUP1 PUSH1 0x0 PUSH1 0x1 PUSH1 0x1 PUSH1 0xA0 SHL SUB AND DUP2 MSTORE PUSH1 0x20 ADD PUSH1 0x0 DUP1 NOT AND DUP2 MSTORE PUSH1 0x20 ADD PUSH1 0x0 DUP1 NOT AND DUP2 MSTORE PUSH1 0x20 ADD PUSH1 0x0 DUP2 MSTORE PUSH1 0x20 ADD PUSH1 0x0 DUP2 MSTORE PUSH1 0x20 ADD PUSH1 0x0 DUP2 MSTORE PUSH1 0x20 ADD PUSH1 0x0 DUP2 MSTORE PUSH1 0x20 ADD PUSH1 0x0 DUP2 MSTORE PUSH1 0x20 ADD PUSH1 0x0 DUP2 MSTORE PUSH1 0x20 ADD PUSH1 0x0 DUP2 MSTORE PUSH1 0x20 ADD PUSH1 0x0 DUP2 MSTORE PUSH1 0x20 ADD PUSH1 0x0 DUP2 MSTORE PUSH1 0x20 ADD PUSH1 0x0 PUSH1 0x5 DUP2 GT ISZERO PUSH2 0x4E93 JUMPI PUSH2 0x4E93 PUSH2 0x4F88 JUMP JUMPDEST DUP2 MSTORE PUSH1 0x0 PUSH1 0x20 SWAP1 SWAP2 ADD MSTORE SWAP1 JUMP JUMPDEST PUSH1 0x0 DUP1 DUP6 DUP6 GT ISZERO PUSH2 0x4EB0 JUMPI PUSH1 0x0 DUP1 REVERT JUMPDEST DUP4 DUP7 GT ISZERO PUSH2 0x4EBD JUMPI PUSH1 0x0 DUP1 REVERT JUMPDEST POP POP DUP3 ADD SWAP4 SWAP2 SWAP1 SWAP3 SUB SWAP2 POP JUMP JUMPDEST PUSH1 0x0 PUSH1 0x20 DUP3 DUP5 SUB SLT ISZERO PUSH2 0x4EDC JUMPI PUSH1 0x0 DUP1 REVERT JUMPDEST DUP2 CALLDATALOAD PUSH1 0x1 PUSH1 0x1 PUSH1 0xE0 SHL SUB NOT DUP2 AND DUP2 EQ PUSH2 0x97A JUMPI PUSH1 0x0 DUP1 REVERT JUMPDEST PUSH1 0x1 PUSH1 0x1 PUSH1 0xA0 SHL SUB DUP2 AND DUP2 EQ PUSH2 0x290E JUMPI PUSH1 0x0 DUP1 REVERT JUMPDEST PUSH1 0x0 DUP1 PUSH1 0x0 DUP1 PUSH1 0x0 PUSH1 0xA0 DUP7 DUP9 SUB SLT ISZERO PUSH2 0x4F21 JUMPI PUSH1 0x0 DUP1 REVERT JUMPDEST DUP6 CALLDATALOAD PUSH2 0x4F2C DUP2 PUSH2 0x4EF4 JUMP JUMPDEST SWAP8 PUSH1 0x20 DUP8 ADD CALLDATALOAD SWAP8 POP PUSH1 0x40 DUP8 ADD CALLDATALOAD SWAP7 PUSH1 0x60 DUP2 ADD CALLDATALOAD SWAP7 POP PUSH1 0x80 ADD CALLDATALOAD SWAP5 POP SWAP3 POP POP POP JUMP JUMPDEST PUSH1 0x0 DUP1 PUSH1 0x40 DUP4 DUP6 SUB SLT ISZERO PUSH2 0x4F60 JUMPI PUSH1 0x0 DUP1 REVERT JUMPDEST POP POP DUP1 CALLDATALOAD SWAP3 PUSH1 0x20 SWAP1 SWAP2 ADD CALLDATALOAD SWAP2 POP JUMP JUMPDEST PUSH1 0x0 PUSH1 0x20 DUP3 DUP5 SUB SLT ISZERO PUSH2 0x4F81 JUMPI PUSH1 0x0 DUP1 REVERT JUMPDEST POP CALLDATALOAD SWAP2 SWAP1 POP JUMP JUMPDEST PUSH4 0x4E487B71 PUSH1 0xE0 SHL PUSH1 0x0 MSTORE PUSH1 0x21 PUSH1 0x4 MSTORE PUSH1 0x24 PUSH1 0x0 REVERT JUMPDEST PUSH1 0x6 DUP2 LT PUSH2 0x4FBC JUMPI PUSH4 0x4E487B71 PUSH1 0xE0 SHL PUSH1 0x0 MSTORE PUSH1 0x21 PUSH1 0x4 MSTORE PUSH1 0x24 PUSH1 0x0 REVERT JUMPDEST SWAP1 MSTORE JUMP JUMPDEST DUP2 MLOAD PUSH1 0x1 PUSH1 0x1 PUSH1 0xA0 SHL SUB AND DUP2 MSTORE PUSH2 0x1C0 DUP2 ADD PUSH1 0x20 DUP4 ADD MLOAD PUSH1 0x20 DUP4 ADD MSTORE PUSH1 0x40 DUP4 ADD MLOAD PUSH1 0x40 DUP4 ADD MSTORE PUSH1 0x60 DUP4 ADD MLOAD PUSH1 0x60 DUP4 ADD MSTORE PUSH1 0x80 DUP4 ADD MLOAD PUSH1 0x80 DUP4 ADD MSTORE PUSH1 0xA0 DUP4 ADD MLOAD PUSH1 0xA0 DUP4 ADD MSTORE PUSH1 0xC0 DUP4 ADD MLOAD PUSH1 0xC0 DUP4 ADD MSTORE PUSH1 0xE0 DUP4 ADD MLOAD PUSH1 0xE0 DUP4 ADD MSTORE PUSH2 0x100 DUP1 DUP5 ADD MLOAD DUP2 DUP5 ADD MSTORE POP PUSH2 0x120 DUP1 DUP5 ADD MLOAD DUP2 DUP5 ADD MSTORE POP PUSH2 0x140 DUP1 DUP5 ADD MLOAD DUP2 DUP5 ADD MSTORE POP PUSH2 0x160 DUP1 DUP5 ADD MLOAD DUP2 DUP5 ADD MSTORE POP PUSH2 0x180 DUP1 DUP5 ADD MLOAD PUSH2 0x505B DUP3 DUP6 ADD DUP3 PUSH2 0x4F9E JUMP JUMPDEST POP POP PUSH2 0x1A0 DUP4 DUP2 ADD MLOAD PUSH1 0xFF DUP2 AND DUP5 DUP4 ADD MSTORE JUMPDEST POP POP SWAP3 SWAP2 POP POP JUMP JUMPDEST PUSH1 0x0 PUSH1 0x20 DUP3 DUP5 SUB SLT ISZERO PUSH2 0x5087 JUMPI PUSH1 0x0 DUP1 REVERT JUMPDEST DUP2 CALLDATALOAD PUSH2 0x97A DUP2 PUSH2 0x4EF4 JUMP JUMPDEST DUP1 CALLDATALOAD PUSH1 0xFF DUP2 AND DUP2 EQ PUSH2 0x50A3 JUMPI PUSH1 0x0 DUP1 REVERT JUMPDEST SWAP2 SWAP1 POP JUMP JUMPDEST PUSH1 0x0 DUP1 PUSH1 0x0 DUP1 PUSH1 0x0 DUP1 PUSH1 0xC0 DUP8 DUP10 SUB SLT ISZERO PUSH2 0x50C1 JUMPI PUSH1 0x0 DUP1 REVERT JUMPDEST DUP7 CALLDATALOAD SWAP6 POP PUSH1 0x20 DUP8 ADD CALLDATALOAD SWAP5 POP PUSH1 0x40 DUP8 ADD CALLDATALOAD SWAP4 POP PUSH1 0x60 DUP8 ADD CALLDATALOAD SWAP3 POP PUSH1 0x80 DUP8 ADD CALLDATALOAD SWAP2 POP PUSH2 0x50ED PUSH1 0xA0 DUP9 ADD PUSH2 0x5092 JUMP JUMPDEST SWAP1 POP SWAP3 SWAP6 POP SWAP3 SWAP6 POP SWAP3 SWAP6 JUMP JUMPDEST PUSH1 0x0 PUSH1 0x20 DUP3 DUP5 SUB SLT ISZERO PUSH2 0x510B JUMPI PUSH1 0x0 DUP1 REVERT JUMPDEST DUP2 CALLDATALOAD PUSH6 0xFFFFFFFFFFFF DUP2 AND DUP2 EQ PUSH2 0x97A JUMPI PUSH1 0x0 DUP1 REVERT JUMPDEST PUSH1 0x0 DUP1 PUSH1 0x0 DUP1 PUSH1 0x80 DUP6 DUP8 SUB SLT ISZERO PUSH2 0x5137 JUMPI PUSH1 0x0 DUP1 REVERT JUMPDEST POP POP DUP3 CALLDATALOAD SWAP5 PUSH1 0x20 DUP5 ADD CALLDATALOAD SWAP5 POP PUSH1 0x40 DUP5 ADD CALLDATALOAD SWAP4 PUSH1 0x60 ADD CALLDATALOAD SWAP3 POP SWAP1 POP JUMP JUMPDEST PUSH1 0x0 DUP1 PUSH1 0x0 DUP1 PUSH1 0x0 DUP1 PUSH1 0x0 PUSH1 0xE0 DUP9 DUP11 SUB SLT ISZERO PUSH2 0x516E JUMPI PUSH1 0x0 DUP1 REVERT JUMPDEST DUP8 CALLDATALOAD PUSH2 0x5179 DUP2 PUSH2 0x4EF4 JUMP JUMPDEST SWAP7 POP PUSH1 0x20 DUP9 ADD CALLDATALOAD SWAP6 POP PUSH1 0x40 DUP9 ADD CALLDATALOAD SWAP5 POP PUSH1 0x60 DUP9 ADD CALLDATALOAD SWAP4 POP PUSH1 0x80 DUP9 ADD CALLDATALOAD SWAP3 POP PUSH1 0xA0 DUP9 ADD CALLDATALOAD SWAP2 POP PUSH2 0x51AA PUSH1 0xC0 DUP10 ADD PUSH2 0x5092 JUMP JUMPDEST SWAP1 POP SWAP3 SWAP6 SWAP9 SWAP2 SWAP5 SWAP8 POP SWAP3 SWAP6 POP JUMP JUMPDEST PUSH1 0x0 PUSH1 0x20 DUP3 DUP5 SUB SLT ISZERO PUSH2 0x51CA JUMPI PUSH1 0x0 DUP1 REVERT JUMPDEST DUP2 CALLDATALOAD PUSH1 0x1 PUSH1 0x1 PUSH1 0x40 SHL SUB DUP2 AND DUP2 EQ PUSH2 0x97A JUMPI PUSH1 0x0 DUP1 REVERT JUMPDEST PUSH1 0x0 DUP1 PUSH1 0x0 DUP1 PUSH1 0x0 DUP1 PUSH1 0x0 PUSH1 0xE0 DUP9 DUP11 SUB SLT ISZERO PUSH2 0x51FC JUMPI PUSH1 0x0 DUP1 REVERT JUMPDEST DUP8 CALLDATALOAD PUSH2 0x5207 DUP2 PUSH2 0x4EF4 JUMP JUMPDEST SWAP7 POP PUSH1 0x20 DUP9 ADD CALLDATALOAD PUSH2 0x5217 DUP2 PUSH2 0x4EF4 JUMP JUMPDEST SWAP6 POP PUSH1 0x40 DUP9 ADD CALLDATALOAD PUSH2 0x5227 DUP2 PUSH2 0x4EF4 JUMP JUMPDEST SWAP5 POP PUSH1 0x60 DUP9 ADD CALLDATALOAD SWAP4 POP PUSH1 0x80 DUP9 ADD CALLDATALOAD SWAP3 POP PUSH1 0xA0 DUP9 ADD CALLDATALOAD SWAP2 POP PUSH2 0x51AA PUSH1 0xC0 DUP10 ADD PUSH2 0x5092 JUMP JUMPDEST PUSH1 0x0 DUP1 PUSH1 0x0 DUP1 PUSH1 0x0 DUP1 PUSH1 0x0 DUP1 PUSH1 0x0 PUSH2 0x120 DUP11 DUP13 SUB SLT ISZERO PUSH2 0x5269 JUMPI PUSH1 0x0 DUP1 REVERT JUMPDEST DUP10 CALLDATALOAD PUSH2 0x5274 DUP2 PUSH2 0x4EF4 JUMP JUMPDEST SWAP9 POP PUSH1 0x20 DUP11 ADD CALLDATALOAD PUSH2 0x5284 DUP2 PUSH2 0x4EF4 JUMP JUMPDEST SWAP8 POP PUSH1 0x40 DUP11 ADD CALLDATALOAD SWAP7 POP PUSH1 0x60 DUP11 ADD CALLDATALOAD PUSH2 0x529B DUP2 PUSH2 0x4EF4 JUMP JUMPDEST SWAP6 POP PUSH1 0x80 DUP11 ADD CALLDATALOAD SWAP5 POP PUSH1 0xA0 DUP11 ADD CALLDATALOAD SWAP4 POP PUSH1 0xC0 DUP11 ADD CALLDATALOAD SWAP3 POP PUSH1 0xE0 DUP11 ADD CALLDATALOAD SWAP2 POP PUSH2 0x52C6 PUSH2 0x100 DUP12 ADD PUSH2 0x5092 JUMP JUMPDEST SWAP1 POP SWAP3 SWAP6 SWAP9 POP SWAP3 SWAP6 SWAP9 POP SWAP3 SWAP6 SWAP9 JUMP JUMPDEST PUSH1 0x0 DUP1 PUSH1 0x0 DUP1 PUSH1 0x0 DUP1 PUSH1 0x0 DUP1 PUSH2 0x100 DUP10 DUP12 SUB SLT ISZERO PUSH2 0x52F2 JUMPI PUSH1 0x0 DUP1 REVERT JUMPDEST DUP9 CALLDATALOAD PUSH2 0x52FD DUP2 PUSH2 0x4EF4 JUMP JUMPDEST SWAP8 POP PUSH1 0x20 DUP10 ADD CALLDATALOAD SWAP7 POP PUSH1 0x40 DUP10 ADD CALLDATALOAD PUSH2 0x5314 DUP2 PUSH2 0x4EF4 JUMP JUMPDEST SWAP6 POP PUSH1 0x60 DUP10 ADD CALLDATALOAD SWAP5 POP PUSH1 0x80 DUP10 ADD CALLDATALOAD SWAP4 POP PUSH1 0xA0 DUP10 ADD CALLDATALOAD SWAP3 POP PUSH1 0xC0 DUP10 ADD CALLDATALOAD SWAP2 POP PUSH2 0x533E PUSH1 0xE0 DUP11 ADD PUSH2 0x5092 JUMP JUMPDEST SWAP1 POP SWAP3 SWAP6 SWAP9 POP SWAP3 SWAP6 SWAP9 SWAP1 SWAP4 SWAP7 POP JUMP JUMPDEST PUSH1 0x0 PUSH1 0x20 DUP3 DUP5 SUB SLT ISZERO PUSH2 0x535F JUMPI PUSH1 0x0 DUP1 REVERT JUMPDEST DUP2 CALLDATALOAD PUSH4 0xFFFFFFFF DUP2 AND DUP2 EQ PUSH2 0x97A JUMPI PUSH1 0x0 DUP1 REVERT JUMPDEST PUSH1 0x0 PUSH1 0x20 DUP3 DUP5 SUB SLT ISZERO PUSH2 0x5385 JUMPI PUSH1 0x0 DUP1 REVERT JUMPDEST DUP2 MLOAD DUP1 ISZERO ISZERO DUP2 EQ PUSH2 0x97A JUMPI PUSH1 0x0 DUP1 REVERT JUMPDEST PUSH1 0x0 PUSH1 0x20 DUP3 DUP5 SUB SLT ISZERO PUSH2 0x53A7 JUMPI PUSH1 0x0 DUP1 REVERT JUMPDEST DUP2 MLOAD PUSH2 0x97A DUP2 PUSH2 0x4EF4 JUMP JUMPDEST PUSH1 0x0 DUP3 MLOAD PUSH1 0x0 JUMPDEST DUP2 DUP2 LT ISZERO PUSH2 0x53D3 JUMPI PUSH1 0x20 DUP2 DUP7 ADD DUP2 ADD MLOAD DUP6 DUP4 ADD MSTORE ADD PUSH2 0x53B9 JUMP JUMPDEST DUP2 DUP2 GT ISZERO PUSH2 0x53E2 JUMPI PUSH1 0x0 DUP3 DUP6 ADD MSTORE JUMPDEST POP SWAP2 SWAP1 SWAP2 ADD SWAP3 SWAP2 POP POP JUMP JUMPDEST PUSH4 0x4E487B71 PUSH1 0xE0 SHL PUSH1 0x0 MSTORE PUSH1 0x11 PUSH1 0x4 MSTORE PUSH1 0x24 PUSH1 0x0 REVERT JUMPDEST PUSH1 0x0 DUP3 PUSH2 0x5420 JUMPI PUSH4 0x4E487B71 PUSH1 0xE0 SHL PUSH1 0x0 MSTORE PUSH1 0x12 PUSH1 0x4 MSTORE PUSH1 0x24 PUSH1 0x0 REVERT JUMPDEST POP DIV SWAP1 JUMP JUMPDEST PUSH1 0x0 DUP2 PUSH1 0x0 NOT DIV DUP4 GT DUP3 ISZERO ISZERO AND ISZERO PUSH2 0x543F JUMPI PUSH2 0x543F PUSH2 0x53ED JUMP JUMPDEST POP MUL SWAP1 JUMP JUMPDEST PUSH4 0x4E487B71 PUSH1 0xE0 SHL PUSH1 0x0 MSTORE PUSH1 0x1 PUSH1 0x4 MSTORE PUSH1 0x24 PUSH1 0x0 REVERT JUMPDEST PUSH1 0x20 DUP1 DUP3 MSTORE PUSH1 0x10 SWAP1 DUP3 ADD MSTORE PUSH16 0x10DBDB9D1C9858DD081CDD1BDC1C1959 PUSH1 0x82 SHL PUSH1 0x40 DUP3 ADD MSTORE PUSH1 0x60 ADD SWAP1 JUMP JUMPDEST PUSH1 0x0 DUP1 PUSH1 0x40 DUP4 DUP6 SUB SLT ISZERO PUSH2 0x5497 JUMPI PUSH1 0x0 DUP1 REVERT JUMPDEST POP POP DUP1 MLOAD PUSH1 0x20 SWAP1 SWAP2 ADD MLOAD SWAP1 SWAP3 SWAP1 SWAP2 POP JUMP JUMPDEST PUSH1 0x0 PUSH1 0x20 DUP3 DUP5 SUB SLT ISZERO PUSH2 0x54BA JUMPI PUSH1 0x0 DUP1 REVERT JUMPDEST POP MLOAD SWAP2 SWAP1 POP JUMP JUMPDEST PUSH1 0x0 DUP1 PUSH1 0x0 PUSH1 0x60 DUP5 DUP7 SUB SLT ISZERO PUSH2 0x54D6 JUMPI PUSH1 0x0 DUP1 REVERT JUMPDEST DUP4 MLOAD SWAP3 POP PUSH1 0x20 DUP5 ADD MLOAD SWAP2 POP PUSH1 0x40 DUP5 ADD MLOAD SWAP1 POP SWAP3 POP SWAP3 POP SWAP3 JUMP JUMPDEST PUSH1 0x0 DUP3 DUP3 LT ISZERO PUSH2 0x5501 JUMPI PUSH2 0x5501 PUSH2 0x53ED JUMP JUMPDEST POP SUB SWAP1 JUMP JUMPDEST PUSH1 0x0 DUP3 NOT DUP3 GT ISZERO PUSH2 0x5519 JUMPI PUSH2 0x5519 PUSH2 0x53ED JUMP JUMPDEST POP ADD SWAP1 JUMP JUMPDEST PUSH1 0x0 PUSH1 0x1 PUSH1 0x1 PUSH1 0x40 SHL SUB DUP4 DUP2 AND SWAP1 DUP4 AND DUP2 DUP2 LT ISZERO PUSH2 0x553E JUMPI PUSH2 0x553E PUSH2 0x53ED JUMP JUMPDEST SUB SWAP4 SWAP3 POP POP POP JUMP JUMPDEST PUSH1 0x0 PUSH1 0x1 PUSH1 0x1 PUSH1 0x40 SHL SUB DUP1 DUP4 AND DUP2 DUP6 AND DUP1 DUP4 SUB DUP3 GT ISZERO PUSH2 0x5568 JUMPI PUSH2 0x5568 PUSH2 0x53ED JUMP JUMPDEST ADD SWAP5 SWAP4 POP POP POP POP JUMP JUMPDEST PUSH1 0x20 DUP1 DUP3 MSTORE PUSH1 0x2B SWAP1 DUP3 ADD MSTORE PUSH32 0x4D757374206265206163636F756E743D3D5F6D736753656E646572206F72204D PUSH1 0x40 DUP3 ADD MSTORE PUSH11 0x6F64652054657374696E67 PUSH1 0xA8 SHL PUSH1 0x60 DUP3 ADD MSTORE PUSH1 0x80 ADD SWAP1 JUMP JUMPDEST SWAP4 DUP5 MSTORE PUSH1 0x1 PUSH1 0x1 PUSH1 0xA0 SHL SUB SWAP3 DUP4 AND PUSH1 0x20 DUP6 ADD MSTORE SWAP2 AND PUSH1 0x40 DUP4 ADD MSTORE PUSH1 0x60 DUP3 ADD MSTORE PUSH1 0x80 ADD SWAP1 JUMP JUMPDEST DUP2 MLOAD DUP2 MSTORE PUSH1 0x20 DUP1 DUP4 ADD MLOAD PUSH2 0x180 DUP4 ADD SWAP2 PUSH2 0x5605 SWAP1 DUP5 ADD DUP3 PUSH1 0x1 PUSH1 0x1 PUSH1 0xA0 SHL SUB AND SWAP1 MSTORE JUMP JUMPDEST POP PUSH1 0x40 DUP4 ADD MLOAD PUSH2 0x5618 PUSH1 0x40 DUP5 ADD DUP3 PUSH2 0x4F9E JUMP JUMPDEST POP PUSH1 0x60 DUP4 ADD MLOAD PUSH2 0x562D PUSH1 0x60 DUP5 ADD DUP3 PUSH1 0xFF AND SWAP1 MSTORE JUMP JUMPDEST POP PUSH1 0x80 DUP4 ADD MLOAD PUSH1 0x80 DUP4 ADD MSTORE PUSH1 0xA0 DUP4 ADD MLOAD PUSH2 0x5652 PUSH1 0xA0 DUP5 ADD DUP3 PUSH1 0x1 PUSH1 0x1 PUSH1 0x40 SHL SUB AND SWAP1 MSTORE JUMP JUMPDEST POP PUSH1 0xC0 DUP4 ADD MLOAD PUSH2 0x566D PUSH1 0xC0 DUP5 ADD DUP3 PUSH1 0x1 PUSH1 0x1 PUSH1 0x40 SHL SUB AND SWAP1 MSTORE JUMP JUMPDEST POP PUSH1 0xE0 DUP4 ADD MLOAD PUSH2 0x5688 PUSH1 0xE0 DUP5 ADD DUP3 PUSH1 0x1 PUSH1 0x1 PUSH1 0x40 SHL SUB AND SWAP1 MSTORE JUMP JUMPDEST POP PUSH2 0x100 DUP4 DUP2 ADD MLOAD PUSH1 0x1 PUSH1 0x1 PUSH1 0x40 SHL SUB SWAP1 DUP2 AND SWAP2 DUP5 ADD SWAP2 SWAP1 SWAP2 MSTORE PUSH2 0x120 DUP1 DUP6 ADD MLOAD DUP3 AND SWAP1 DUP5 ADD MSTORE PUSH2 0x140 DUP1 DUP6 ADD MLOAD DUP3 AND SWAP1 DUP5 ADD MSTORE PUSH2 0x160 DUP1 DUP6 ADD MLOAD SWAP2 DUP3 AND DUP2 DUP6 ADD MSTORE SWAP1 PUSH2 0x506D JUMP JUMPDEST PUSH4 0x4E487B71 PUSH1 0xE0 SHL PUSH1 0x0 MSTORE PUSH1 0x41 PUSH1 0x4 MSTORE PUSH1 0x24 PUSH1 0x0 REVERT JUMPDEST PUSH4 0x4E487B71 PUSH1 0xE0 SHL PUSH1 0x0 MSTORE PUSH1 0x32 PUSH1 0x4 MSTORE PUSH1 0x24 PUSH1 0x0 REVERT JUMPDEST PUSH1 0x0 PUSH1 0x20 DUP1 DUP4 DUP6 SUB SLT ISZERO PUSH2 0x570F JUMPI PUSH1 0x0 DUP1 REVERT JUMPDEST DUP3 MLOAD PUSH1 0x1 PUSH1 0x1 PUSH1 0x40 SHL SUB DUP1 DUP3 GT ISZERO PUSH2 0x5726 JUMPI PUSH1 0x0 DUP1 REVERT JUMPDEST DUP2 DUP6 ADD SWAP2 POP DUP6 PUSH1 0x1F DUP4 ADD SLT PUSH2 0x573A JUMPI PUSH1 0x0 DUP1 REVERT JUMPDEST DUP2 MLOAD DUP2 DUP2 GT ISZERO PUSH2 0x574C JUMPI PUSH2 0x574C PUSH2 0x56D0 JUMP JUMPDEST DUP1 PUSH1 0x5 SHL PUSH1 0x40 MLOAD PUSH1 0x1F NOT PUSH1 0x3F DUP4 ADD AND DUP2 ADD DUP2 DUP2 LT DUP6 DUP3 GT OR ISZERO PUSH2 0x5771 JUMPI PUSH2 0x5771 PUSH2 0x56D0 JUMP JUMPDEST PUSH1 0x40 MSTORE SWAP2 DUP3 MSTORE DUP5 DUP3 ADD SWAP3 POP DUP4 DUP2 ADD DUP6 ADD SWAP2 DUP9 DUP4 GT ISZERO PUSH2 0x578F JUMPI PUSH1 0x0 DUP1 REVERT JUMPDEST SWAP4 DUP6 ADD SWAP4 JUMPDEST DUP3 DUP6 LT ISZERO PUSH2 0x25EA JUMPI DUP5 MLOAD DUP5 MSTORE SWAP4 DUP6 ADD SWAP4 SWAP3 DUP6 ADD SWAP3 PUSH2 0x5794 JUMP JUMPDEST PUSH1 0x0 DUP2 MLOAD DUP1 DUP5 MSTORE PUSH1 0x20 DUP1 DUP6 ADD SWAP5 POP DUP1 DUP5 ADD PUSH1 0x0 JUMPDEST DUP4 DUP2 LT ISZERO PUSH2 0x57DD JUMPI DUP2 MLOAD DUP8 MSTORE SWAP6 DUP3 ADD SWAP6 SWAP1 DUP3 ADD SWAP1 PUSH1 0x1 ADD PUSH2 0x57C1 JUMP JUMPDEST POP SWAP5 SWAP6 SWAP5 POP POP POP POP POP JUMP JUMPDEST PUSH1 0x40 DUP2 MSTORE PUSH1 0x0 PUSH2 0x57FB PUSH1 0x40 DUP4 ADD DUP6 PUSH2 0x57AD JUMP JUMPDEST SWAP1 POP DUP3 PUSH1 0x20 DUP4 ADD MSTORE SWAP4 SWAP3 POP POP POP JUMP JUMPDEST PUSH1 0x0 PUSH1 0x0 NOT DUP3 EQ ISZERO PUSH2 0x581E JUMPI PUSH2 0x581E PUSH2 0x53ED JUMP JUMPDEST POP PUSH1 0x1 ADD SWAP1 JUMP JUMPDEST PUSH1 0x20 DUP1 DUP3 MSTORE DUP3 MLOAD DUP3 DUP3 ADD DUP2 SWAP1 MSTORE PUSH1 0x0 SWAP2 SWAP1 DUP5 DUP3 ADD SWAP1 PUSH1 0x40 DUP6 ADD SWAP1 DUP5 JUMPDEST DUP2 DUP2 LT ISZERO PUSH2 0x585D JUMPI DUP4 MLOAD DUP4 MSTORE SWAP3 DUP5 ADD SWAP3 SWAP2 DUP5 ADD SWAP2 PUSH1 0x1 ADD PUSH2 0x5841 JUMP JUMPDEST POP SWAP1 SWAP7 SWAP6 POP POP POP POP POP POP JUMP JUMPDEST PUSH1 0x40 DUP2 MSTORE PUSH1 0x0 PUSH2 0x587C PUSH1 0x40 DUP4 ADD DUP6 PUSH2 0x57AD JUMP JUMPDEST DUP3 DUP2 SUB PUSH1 0x20 DUP5 ADD MSTORE PUSH2 0x1415 DUP2 DUP6 PUSH2 0x57AD JUMP INVALID 0xCD PUSH24 0x5F2396F9F13F12BCF8CA32E21DF66559A8ADC3944D059112 PUSH31 0x7731F7AB85A2646970667358221220C8E7AA22B26502BFC4349F420C473C88 0x49 0xD7 GASPRICE CREATE DELEGATECALL 0xC8 KECCAK256 DUP9 0xD 0x28 SWAP1 PUSH2 0x5E50 0x29 AND PUSH5 0x736F6C6343 STOP ADDMOD SIGNEXTEND STOP CALLER ","sha1":"4e89b038f86179d26f5dce9507214fba47d361ce","source":"// SPDX-License-Identifier: MIT\n// Beef MarketPlace Contracts v0.0.0 hello@mcdu.com\n\npragma solidity ^0.8.0;\n\nimport \"../Market.sol\";\n\nbytes32 constant MARKETORDER = keccak256(\"MarketOrder\");\n\ncontract MarketOrder is Market, MarketPathWriter {\n    using Array for uint256[];\n    using Array for bytes32[];\n\n    function id() public view virtual override (Market) returns (bytes32) {return MARKETORDER;}\n\n    modifier onlyMarketOrder() virtual {\n        checkMarketOrder();\n        _;\n    }\n\n    function checkMarketOrder() internal view {\n        //require((address(rep.mo()) == _msgSender()), \"Allowance: caller must be Market\");\n    }\n \n    /////////////////////////////////////////////////////////////////////////////////////////\n    //      event\n    /////////////////////////////////////////////////////////////////////////////////////////\n    event Transaction(\n        bytes32 indexed fromk_,\n        bytes32 indexed tok_,\n        address fromaccount_,\n        address toaccount_,\n        uint256 quote_,\n        uint256 qty_\n    );\n\n    /////////////////////////////////////////////////////////////////////////////////////////\n    //      storage\n    /////////////////////////////////////////////////////////////////////////////////////////\n    //bool private constant _autodeleteorders = true;\n\n    constructor(Repository rep_) Market(rep_) {}\n\n    /////////////////////////////////////////////////////////////////////////////////////////\n    //      PROCESSING     internal processing\n    /////////////////////////////////////////////////////////////////////////////////////////\n    function _orderDestroy(Order.Info storage order_) internal {\n        _orderids.remove(order_.orderid);\n        _pastorders[block.number].push(order_.orderid);\n        //delete _orders[order_.orderid];\n    }\n\n    function _orderTerminate(Order.Info storage order_, Order.State newstate_)\n        internal\n    {\n        require(\n            newstate_ > Order.State.Unknown &&\n                newstate_ <= Order.State.Completed &&\n                order_.state >= Order.State.Active,\n            \"_orderTerminate state problem\"\n        );\n        (bytes32 from, bytes32 to) = rep.resolveBytes32Bytes32(order_.fromto);\n        //if (newstate_<=Order.State.Completed && order_.state>=Order.State.Active)\n        order_.state = newstate_;\n        if (Order.isReserved(order_.options))\n            Bank(rep.get(BANK))._reserveSub(\n                to,\n                order_.account,\n                address(this),\n                UInt64ToUInt256(order_.originalqty - order_.qtydone)\n            );\n        _fromtoorders[order_.fromto].remove(order_.orderid);\n        _fromorders[from].remove(order_.orderid);\n        _toorders[to].remove(order_.orderid);\n    }\n\n    /////////////////////////////////////////////////////////////////////////////////////////\n    //      PUBLIC\n    /////////////////////////////////////////////////////////////////////////////////////////\n\n    function _orderMakeTransfer(\n        Order.Info storage order_,\n        address toaccount_,\n        bool toreserve_,\n        uint256 qty_\n    ) internal {\n        address _fromfeeaccount;\n        uint256 _fromfee;\n        address _tofeeaccount;\n        uint256 _tofee;\n\n        if (_fromfeeaccount == address(0)) _fromfee = 0;\n        if (_tofeeaccount == address(0)) _tofee = 0;\n\n        uint256 _toqty = (qty_ * UInt64ToUInt256(order_.quote)) / 10**18;\n        (bytes32 from, bytes32 to) = rep.resolveBytes32Bytes32(order_.fromto);\n\n        if (Order.isReserved(order_.options))\n            Bank(rep.get(BANK))._reserveSub(\n                from,\n                order_.account,\n                address(this),\n                qty_\n            );\n        if (toreserve_)\n            Bank(rep.get(BANK))._reserveSub(to, toaccount_, address(this), _toqty);\n\n        if (_fromfee != 0)\n            Bank(rep.get(BANK))._transfer(\n                from,\n                order_.account,\n                _fromfeeaccount,\n                _fromfee\n            );\n        if (_tofee != 0)\n            Bank(rep.get(BANK))._transfer(to, toaccount_, _tofeeaccount, _tofee);\n        Bank(rep.get(BANK))._transfer(\n            from,\n            order_.account,\n            toaccount_,\n            qty_ - _fromfee\n        );\n        Bank(rep.get(BANK))._transfer(\n            to,\n            toaccount_,\n            order_.account,\n            _toqty - _tofee\n        );\n    }\n\n    function orderFulfill(\n        uint256 orderid_,\n        uint256 qty_,\n        uint256 quote_,\n        uint256 pctslippage_\n    ) public all returns (uint256 qtydone_) {\n        return\n            orderFulfillEx(_msgSender(), orderid_, qty_, quote_, pctslippage_);\n    }\n\n    function orderFulfillEx(\n        address account_,\n        uint256 orderid_,\n        uint256 qty_,\n        uint256 quote_,\n        uint256 pctslippage_\n    ) public all returns (uint256 qtydone_) {\n        (bool _result, ) = rep.get(MARKET).call(\n            abi.encodeWithSelector(\n                bytes4(\n                    keccak256(\n                        \"d_orderFulfillEx(address,uint32,uint256,uint256,uint256)\"\n                    )\n                ),\n                address(this),\n                account_,\n                orderid_,\n                qty_,\n                quote_,\n                pctslippage_\n            )\n        );\n        _return(_result);\n    }\n\n    function d_orderFulfillEx(\n        address account_,\n        uint256 orderid_,\n        uint256 qty_,\n        uint256 quote_,\n        uint256 pctslippage_\n    ) public onlyMarketOrder returns (uint256 qtydone_) {\n        require(!STOP(), \"Contract stopped\");\n        require(\n            rep.MODETEST() || account_ == _msgSender(),\n            \"Must be account==_msgSender() or Mode Testing\"\n        );\n        Order.Info storage _order = _orders[orderid_];\n        (bytes32 from, bytes32 to) = rep.resolveBytes32Bytes32(_order.fromto);\n\n        require(\n            (qty_ * quote_) / 10**18 <= Bank(rep.get(BANK)).available(to, account_),\n            \"Bank: Not enough available\"\n        );\n\n        uint256 _quote;\n        if (Order.isIndexed(_order.options)) {\n            // this must update _quote by reentrant call back\n            (, _quote, ) = Quotator(rep.get(QUOTATOR)).read(from, to);\n        } else _quote = UInt64ToUInt256(_order.quote);\n        require(\n            _quote <= (quote_ * (10**18 - pctslippage_)) / 10**18 &&\n                _quote >= (quote_ * (10**18 + pctslippage_)) / 10**18,\n            \"Quote Slipped over tolerance\"\n        );\n\n        uint256 _qty = (qty_ * quote_) / _quote;\n        uint256 _orderqty = UInt64ToUInt256(_order.qty - _order.qtydone);\n        if (_orderqty < _qty) _qty = _orderqty;\n\n        _orderMakeTransfer(_order, account_, false, qty_);\n\n        _order.qtydone += UInt256ToUInt64(qty_);\n        if (_order.qtydone == _order.originalqty)\n            _orderTerminate(_order, Order.State.Completed);\n\n        //if (!Order.isHidden(_order.options))\n        emit Transaction(from, to, _order.account, account_, _quote, _qty);\n        if (_order.state <= Order.State.Completed) _orderDestroy(_order);\n\n        return qty_;\n    }\n\n\n    function orderPlaceEx(\n        address from_,\n        uint256 fromid_,\n        address to_,\n        uint256 toid_,\n        uint256 granularity_,\n        uint256 qty_,\n        uint256 quote_,\n        uint8 options_\n    ) public all returns (uint256 orderid_) {\n        return\n            orderPlace(\n                _msgSender(),\n                rep.currency(from_, fromid_),\n                rep.currency(to_, toid_),\n                granularity_,\n                qty_,\n                quote_,\n                options_\n            );\n    }\n\n    function orderPlace(\n        address account_,\n        address from_,\n        uint256 fromid_,\n        address to_,\n        uint256 toid_,\n        uint256 granularity_,\n        uint256 qty_,\n        uint256 quote_,\n        uint8 options_\n    ) public all returns (uint256 orderid_) {\n        return\n            orderPlace(\n                account_,\n                rep.currency(from_, fromid_),\n                rep.currency(to_, toid_),\n                granularity_,\n                qty_,\n                quote_,\n                options_\n            );\n    }\n\n    function orderPlaceEx(\n        address account_,\n        address from_,\n        address to_,\n        uint256 granularity_,\n        uint256 qty_,\n        uint256 quote_,\n        uint8 options_\n    ) public all returns (uint256 orderid_) {\n        return\n            orderPlace(\n                account_,\n                rep.currency(from_, 0),\n                rep.currency(to_, 0),\n                granularity_,\n                qty_,\n                quote_,\n                options_\n            );\n    }\n\n    function orderPlace(\n        bytes32 from_,\n        bytes32 to_,\n        uint256 granularity_,\n        uint256 qty_,\n        uint256 quote_,\n        uint8 options_\n    ) public all returns (uint256 orderid_) {\n        return\n            orderPlace(\n                _msgSender(),\n                from_,\n                to_,\n                granularity_,\n                qty_,\n                quote_,\n                options_\n            );\n    }\n\n    function orderPlace(\n        address account_,\n        bytes32 from_,\n        bytes32 to_,\n        uint256 granularity_,\n        uint256 qty_,\n        uint256 quote_,\n        uint8 options_\n    ) public all returns (uint256 orderid_) {\n        (bool _result, ) = rep.get(MARKET).call(\n            abi.encodeWithSelector(\n                bytes4(\n                    keccak256(\n                        \"d_orderPlace(address,bytes32,bytes32,uint256,uint256,uint256,uint8)\"\n                    )\n                ),\n                address(this),\n                account_,\n                from_,\n                to_,\n                granularity_,\n                qty_,\n                quote_,\n                options_\n            )\n        );\n        _return(_result);\n    }\n\n    function d_orderPlace(\n        address account_,\n        bytes32 from_,\n        bytes32 to_,\n        uint256 granularity_,\n        uint256 qty_,\n        uint256 quote_,\n        uint8 options_\n    ) public onlyMarketOrder returns (uint256 orderid_) {\n        require(!STOP(), \"Contract stopped\");\n        require(\n            rep.MODETEST() || account_ == _msgSender(),\n            \"Must be account==_msgSender or Mode Testing\"\n        );\n        //require(Bank(rep.get(BANK)).features(from_) == 0,\"Bank: 'From' type unknown\");\n        //require(Bank(rep.get(BANK)).features(to_) == 0, \"Bank: 'To' type unknown\");\n        //(address from, ) = rep.resolveCurrency(from_);\n        //(address to, ) = rep.resolveCurrency(to_);\n        if (rep.hasFeature(from_,Token.SupportTradeable)) {\n            address from = rep.resolveCurrencyAddr(from_);\n            require(ITradeable(from).tradeable(), \"From not tradeable\");\n            require(\n                ITradeable(from).onlyWithCurrency() && to_ != Token.CURRENCY,\n                \"From is only tradeable to Currency\"\n            );\n        }\n        require(\n            (!rep.nft(from_)) || qty_ == 10**18 || granularity_ == qty_,\n            \"'From' is NFT qty and granularity must be 1\"\n        );\n\n        //bytes32 from = rep.currency(from, fromid_);\n        require(\n            qty_ <= Bank(rep.get(BANK)).available(from_, account_),\n            \"Bank: Not enough available\"\n        );\n\n        Order.Info memory _order;\n        /*_order.typefrom = Bank(rep.get(BANK)).tokenType(from_);\n        require(\n            _order.typefrom != Token.Type.Unknown,\n            \"Bank: 'From' type unknown\"\n        );*/\n        //if (_order.typefrom == TokenType.Polymorph && nft)\n        //    granularity_ = qty_ = IPolymorph(from).getNFTQty();\n\n        _order.account = account_;\n        _order.fromto = rep.Bytes32Bytes32(from_, to_);\n        //(bytes32 v1,bytes32 v2) = rep.resolveBytes32Bytes32(_order.fromto);\n        //require(uint256(v1)==uint256(from_) && uint256(v2)==uint256(to_),\"uint256(v1)==uint256(from_) && uint256(v2)==uint256(to_)\");\n\n        //_order.typeto = Bank(rep.get(BANK)).tokenType(to_);\n        //require(_order.typeto != Token.Type.Unknown, \"Bank: 'To' type unknown\");\n        _order.granularity = UInt256ToUInt64(granularity_);\n        _order.qty = UInt256ToUInt64(qty_);\n        /*if (_order.typefrom == Token.Type.Polymorph) {\n            require(\n                (!IPolymorph(from).isTradeableOnlyWithCurrency()) &&\n                    (_order.typeto != Token.Type.Cur),\n                \"Bank: 'From' only tradeable to Currency\"\n            );\n        }\n        if (_order.typeto == Token.Type.Polymorph)\n            require(\n                (!IPolymorph(to).isTradeableOnlyWithCurrency()) &&\n                    (_order.typefrom != Token.Type.Cur),\n                \"Bank: 'To' only tradeable from Currency\"\n            );\n        */\n        _order.quote = UInt256ToUInt64(quote_);\n\n        if (Order.isIndexed(_order.options)) {\n            uint256 _qquote;\n            (, _qquote, ) = Quotator(rep.get(QUOTATOR)).read(from_,to_);\n            _order.originalbasedquote = UInt256ToUInt64(_qquote);\n            require(_order.originalbasedquote != 0, \"Quote: Not quoted\");\n        }\n\n        if (Order.isReserved(_order.options))\n            Bank(rep.get(BANK))._reserveAdd(to_, _order.account, address(this), qty_);\n\n        // we are saving order just now is order isnt completed\n        unchecked {\n            _orderidptr++;\n            while (_orderidptr == 0 && _orders[_orderidptr].orderid != 0)\n                _orderidptr++;\n        }\n        _order.orderid = _orderidptr;\n\n        _order.originalqty = _order.qty;\n        _order.state = Order.State.Active;\n        _order.options = options_;\n        _order.originalquote = _order.quote;\n\n        _orders[_order.orderid] = _order;\n        //if (USEFROMTOORDERS)\n        _orderids.insert(_order.orderid);\n        _fromtoorders[_order.fromto].insert(_order.orderid);\n        _fromorders[from_].insert(_order.orderid);\n        _toorders[to_].insert(_order.orderid);\n        _insertPath(_order.fromto);\n        return _orderidptr;\n    }\n\n    function orderCancel(uint256 orderid_) public all {\n        (bool _result, ) = rep.get(MARKET).call(\n            abi.encodeWithSelector(\n                bytes4(keccak256(\"d_orderCancel(uint256)\")),\n                address(this),\n                orderid_\n            )\n        );\n        _return(_result);\n    }\n\n    function d_orderCancel(uint256 order_) public onlyMarketOrder {\n        require(!STOP(), \"Contract stopped\");\n        Order.Info storage _order = _orders[order_];\n        require(\n            rep.MODETEST() || _order.account == _msgSender(),\n            \"Must be account==_msgSender or Mode Testing\"\n        );\n        _orderTerminate(_order, Order.State.Cancelled);\n        _orderDestroy(_order);\n    }\n}\n","sourcePath":"contracts/Market/Order/Order.sol","deployment":{"address":"0x4A6E0caD5fadF48aE52bD356aF3A1f218580c506","chainid":"9997","blockHeight":12747}}