{"bytecode":"60a060405234801561001057600080fd5b506040516112b53803806112b583398101604081905261002f916100a6565b806100393361004b565b6001600160a01b0316608052506100d6565b600080546001600160a01b038381166201000081810262010000600160b01b0319851617855560405193049190911692909183917f8be0079c531659141344cd1fd0a4f28419497f9722a3daafe3b4186f6b6457e091a35050565b6000602082840312156100b857600080fd5b81516001600160a01b03811681146100cf57600080fd5b9392505050565b6080516111af610106600039600081816103bd01528181610483015281816105210152610dc801526111af6000f3fe60806040526004361061012a5760003560e01c80638da5cb5b116100ab578063ccc079591161006f578063ccc07959146103ab578063d6935858146103df578063ddca3f43146103f4578063e522538114610409578063f2fde38b1461041e578063f9c016d71461043e5761012a565b80638da5cb5b146102f05780639507d39a14610328578063979620761461033b5780639e89a35314610358578063af640d0f146103785761012a565b8063669e48aa116100f2578063669e48aa1461027157806369fe0e2d14610291578063715018a6146102b157806372ea61bf146102c6578063854ba99d146102db5761012a565b806301ffc9a7146101bc57806305d6bd9c146101f157806306661abd146102085780632f54bf6e146102275780635bf3b5c71461025c575b34801561013657600080fd5b5061013f61045e565b600061014f602460043684610f5e565b8080601f016020809104026020016040519081016040528093929190818152602001838380828437600092018290525060208501519495509250503660231981019150601f19016004838037816024600437600080826000875af4925050506101b781610628565b505050005b3480156101c857600080fd5b506101dc6101d7366004610f88565b610642565b60405190151581526020015b60405180910390f35b3480156101fd57600080fd5b50610206610679565b005b34801561021457600080fd5b506004545b6040519081526020016101e8565b34801561023357600080fd5b506101dc610242366004610fb9565b6000546201000090046001600160a01b0390811691161490565b34801561026857600080fd5b50610206610690565b61028461027f366004610fe2565b6106a5565b6040516101e89190611004565b34801561029d57600080fd5b506102066102ac366004611048565b610754565b3480156102bd57600080fd5b50610206610761565b3480156102d257600080fd5b50610206610773565b3480156102e757600080fd5b506101dc61078d565b3480156102fc57600080fd5b506000546201000090046001600160a01b03165b6040516001600160a01b0390911681526020016101e8565b610219610336366004611048565b6107ab565b34801561034757600080fd5b50600054610100900460ff166101dc565b34801561036457600080fd5b50610206610373366004611061565b6107b6565b34801561038457600080fd5b507f02dfe2d0485b616b61db1800f30f4a14b26754b328fa09ba4ec73ee7276766cc610219565b3480156103b757600080fd5b506103107f000000000000000000000000000000000000000000000000000000000000000081565b3480156103eb57600080fd5b506102066107ef565b34801561040057600080fd5b50600154610219565b34801561041557600080fd5b5061020661080b565b34801561042a57600080fd5b50610206610439366004610fb9565b610842565b34801561044a57600080fd5b50610219610459366004611048565b6108b8565b6000546001600160a01b03620100009091041633148061051157506001600160a01b037f0000000000000000000000000000000000000000000000000000000000000000166316279055336040516001600160e01b031960e084901b1681526001600160a01b039091166004820152602401602060405180830381865afa1580156104ed573d6000803e3d6000fd5b505050506040513d601f19601f82011682018060405250810190610511919061108c565b806105af57506001600160a01b037f000000000000000000000000000000000000000000000000000000000000000016636d70f7ae336040516001600160e01b031960e084901b1681526001600160a01b039091166004820152602401602060405180830381865afa15801561058b573d6000803e3d6000fd5b505050506040513d601f19601f820116820180604052508101906105af919061108c565b6106265760405162461bcd60e51b815260206004820152603960248201527f416c6c6f77616e63653a2063616c6c6572206d757374206265205265706f736960448201527f746f727920436f6e7472616374206f72204f70657261746f720000000000000060648201526084015b60405180910390fd5b565b3d6000803e808015610639573d6000f35b3d6000fd5b5050565b60006001600160e01b031982166301ffc9a760e01b148061067357506001600160e01b031982166315d3789560e31b145b92915050565b61068161045e565b6106266000805460ff19169055565b610698610a3c565b6002546003556000600455565b60608267ffffffffffffffff8111156106c0576106c06110ae565b6040519080825280602002602001820160405280156106e9578160200160208202803683370190505b50905060005b8381101561074d5761070083610a9d565b828281518110610712576107126110c4565b602002602001018181525050818181518110610730576107306110c4565b602002602001015192508080610745906110f0565b9150506106ef565b5092915050565b61075c610da3565b600155565b610769610a3c565b6106266000610eb8565b61077b61045e565b6106266000805460ff19166001179055565b6000805460ff16806107a65750600054610100900460ff165b905090565b600061067382610a9d565b6107be610da3565b600480546101009081019091556002805460018101909155600090815260076020526040902061063e918390610f13565b6107f7610a3c565b6106266000805461ff001916610100179055565b610813610a3c565b60405133904780156108fc02916000818181858888f1935050505015801561083f573d6000803e3d6000fd5b50565b61084a610a3c565b6001600160a01b0381166108af5760405162461bcd60e51b815260206004820152602660248201527f4f776e61626c653a206e6577206f776e657220697320746865207a65726f206160448201526564647265737360d01b606482015260840161061d565b61083f81610eb8565b600080601443116108ca5760016108d5565b6108d560144361110b565b90505b43811015610929578281406040516020016108fd929190918252602082015260400190565b60408051601f198184030181529190528051602090910120925080610921816110f0565b9150506108d8565b50600554604051610947918491602001918252602082015260400190565b6040516020818303038152906040528051906020012060001c915060025460035414610a3857600060025461010002838161098457610984611122565b0660ff16905060076000610100838161099f5761099f611122565b04815260200190815260200160002061010082816109bf576109bf611122565b0661010081106109d1576109d16110c4565b015492506000601443116109e65760016109eb565b601443035b90505b43811015610a3557838140604051602001610a13929190918252602082015260400190565b60408051601f19818403018152919052805160209091012093506001016109ee565b50505b5090565b6000546001600160a01b03620100009091041633146106265760405162461bcd60e51b815260206004820152601f60248201527f416c6c6f77616e63653a2063616c6c6572206d757374206265204f776e657200604482015260640161061d565b600080600a4311610aaf576001610aba565b610aba600a4361110b565b90505b43811015610b0e57828140604051602001610ae2929190918252602082015260400190565b60408051601f198184030181529190528051602090910120925080610b06816110f0565b915050610abd565b50600554604051610b2c918491602001918252602082015260400190565b60408051601f19818403018152919052805160209091012091506000610b5461010084611138565b905060045460001415610bdd57600060038190555b600254811015610b945760008181526006602052604081205580610b8c816110f0565b915050610b69565b50600254610ba49061010061115a565b60048190556040519081527f4fb4e4d112bce25d0aca6bdd84e71d7d25c103050c44fa82d66c6e954b2a15189060200160405180910390a15b60005b6101008160ff161015610d6457600354818303905b600254811015610d5a57600081815260066020526040902054600160ff84161b16610d525760008181526006602090815260408083208054600160ff881690811b9091179091556007909252909120906101008110610c5657610c566110c4565b015495506000600a4311610c6b576001610c70565b600a43035b90505b43811015610cba57868140604051602001610c98929190918252602082015260400190565b60408051601f1981840301815291905280516020909101209650600101610c73565b506005869055600480546000190190555b6003546000908152600660205260409020546000191415610cf457600380546001019055610ccb565b61010060045481610d0757610d07611122565b06610d48577f387fd79753e961348c50d7984a0e877322575e20fa9d38ad8e88747e65c893f3600454604051610d3f91815260200190565b60405180910390a15b5093949350505050565b600101610bf5565b5050600101610be0565b5060405162461bcd60e51b81526020600482015260136024820152726e6f2072616e646f6d20617661696c61626c6560681b604482015260640161061d565b6000546001600160a01b036201000090910416331480610e5657506001600160a01b037f000000000000000000000000000000000000000000000000000000000000000016636d70f7ae336040516001600160e01b031960e084901b1681526001600160a01b039091166004820152602401602060405180830381865afa158015610e32573d6000803e3d6000fd5b505050506040513d601f19601f82011682018060405250810190610e56919061108c565b6106265760405162461bcd60e51b815260206004820152602d60248201527f416c6c6f77616e63653a2063616c6c6572206d757374206265205265706f736960448201526c3a37b93c9027b832b930ba37b960991b606482015260840161061d565b600080546001600160a01b038381166201000081810262010000600160b01b0319851617855560405193049190911692909183917f8be0079c531659141344cd1fd0a4f28419497f9722a3daafe3b4186f6b6457e091a35050565b826101008101928215610f42579160200282015b82811115610f42578235825591602001919060010190610f27565b50610a389291505b80821115610a385760008155600101610f4a565b60008085851115610f6e57600080fd5b83861115610f7b57600080fd5b5050820193919092039150565b600060208284031215610f9a57600080fd5b81356001600160e01b031981168114610fb257600080fd5b9392505050565b600060208284031215610fcb57600080fd5b81356001600160a01b0381168114610fb257600080fd5b60008060408385031215610ff557600080fd5b50508035926020909101359150565b6020808252825182820181905260009190848201906040850190845b8181101561103c57835183529284019291840191600101611020565b50909695505050505050565b60006020828403121561105a57600080fd5b5035919050565b600061200080838503121561107557600080fd5b83818401111561108457600080fd5b509092915050565b60006020828403121561109e57600080fd5b81518015158114610fb257600080fd5b634e487b7160e01b600052604160045260246000fd5b634e487b7160e01b600052603260045260246000fd5b634e487b7160e01b600052601160045260246000fd5b6000600019821415611104576111046110da565b5060010190565b60008282101561111d5761111d6110da565b500390565b634e487b7160e01b600052601260045260246000fd5b60008261115557634e487b7160e01b600052601260045260246000fd5b500690565b6000816000190483118215151615611174576111746110da565b50029056fea264697066735822122075874dcca2c3a4b695fcec3fa7562a16bba323e41c431d1330a92d239ca0e57c64736f6c634300080b0033","bytecodeSha1":"9c6151928621ce346319c495212a33aea88acc81","type":"contract","abi":[{"inputs":[{"internalType":"contract Repository","name":"rep_","type":"address"}],"stateMutability":"nonpayable","type":"constructor","name":"constructor"},{"anonymous":false,"inputs":[{"indexed":true,"internalType":"address","name":"previousOwner","type":"address"},{"indexed":true,"internalType":"address","name":"newOwner","type":"address"}],"name":"OwnershipTransferred","type":"event"},{"anonymous":false,"inputs":[{"indexed":false,"internalType":"uint256","name":"count","type":"uint256"}],"name":"RandomRemaining","type":"event"},{"anonymous":false,"inputs":[{"indexed":false,"internalType":"uint256","name":"count","type":"uint256"}],"name":"RandomReset","type":"event"},{"stateMutability":"nonpayable","type":"fallback"},{"inputs":[],"name":"STOP","outputs":[{"internalType":"bool","name":"","type":"bool"}],"stateMutability":"view","type":"function"},{"inputs":[],"name":"STOPFOREVER","outputs":[{"internalType":"bool","name":"","type":"bool"}],"stateMutability":"view","type":"function"},{"inputs":[{"internalType":"uint256[256]","name":"newrandoms_","type":"uint256[256]"}],"name":"add","outputs":[],"stateMutability":"nonpayable","type":"function"},{"inputs":[],"name":"collect","outputs":[],"stateMutability":"nonpayable","type":"function"},{"inputs":[],"name":"count","outputs":[{"internalType":"uint256","name":"","type":"uint256"}],"stateMutability":"view","type":"function"},{"inputs":[],"name":"fee","outputs":[{"internalType":"uint256","name":"","type":"uint256"}],"stateMutability":"view","type":"function"},{"inputs":[{"internalType":"uint256","name":"count_","type":"uint256"},{"internalType":"uint256","name":"random_","type":"uint256"}],"name":"get","outputs":[{"internalType":"uint256[]","name":"out_","type":"uint256[]"}],"stateMutability":"payable","type":"function"},{"inputs":[{"internalType":"uint256","name":"random_","type":"uint256"}],"name":"get","outputs":[{"internalType":"uint256","name":"","type":"uint256"}],"stateMutability":"payable","type":"function"},{"inputs":[{"internalType":"uint256","name":"random_","type":"uint256"}],"name":"getfree","outputs":[{"internalType":"uint256","name":"","type":"uint256"}],"stateMutability":"view","type":"function"},{"inputs":[],"name":"id","outputs":[{"internalType":"bytes32","name":"","type":"bytes32"}],"stateMutability":"view","type":"function"},{"inputs":[{"internalType":"address","name":"caller_","type":"address"}],"name":"isOwner","outputs":[{"internalType":"bool","name":"","type":"bool"}],"stateMutability":"view","type":"function"},{"inputs":[],"name":"owner","outputs":[{"internalType":"address","name":"","type":"address"}],"stateMutability":"view","type":"function"},{"inputs":[],"name":"purgeall","outputs":[],"stateMutability":"nonpayable","type":"function"},{"inputs":[],"name":"renounceOwnership","outputs":[],"stateMutability":"nonpayable","type":"function"},{"inputs":[],"name":"rep","outputs":[{"internalType":"contract Repository","name":"","type":"address"}],"stateMutability":"view","type":"function"},{"inputs":[{"internalType":"uint256","name":"fee_","type":"uint256"}],"name":"setFee","outputs":[],"stateMutability":"nonpayable","type":"function"},{"inputs":[],"name":"setSTOP","outputs":[],"stateMutability":"nonpayable","type":"function"},{"inputs":[],"name":"setSTOPFOREVER","outputs":[],"stateMutability":"nonpayable","type":"function"},{"inputs":[{"internalType":"bytes4","name":"interfaceId","type":"bytes4"}],"name":"supportsInterface","outputs":[{"internalType":"bool","name":"","type":"bool"}],"stateMutability":"view","type":"function"},{"inputs":[{"internalType":"address","name":"newOwner","type":"address"}],"name":"transferOwnership","outputs":[],"stateMutability":"nonpayable","type":"function"},{"inputs":[],"name":"unsetSTOP","outputs":[],"stateMutability":"nonpayable","type":"function"}],"compiler":{"version":"0.8.11+commit.d7f03943","evm_version":"istanbul","optimizer":{"enabled":true,"runs":200}},"contractName":"Random","language":"Solidity","natspec":{"methods":{"ownerOf()":{"details":"Returns the address of the current owner."},"renounceOwnership()":{"details":"Leaves the contract without owner. It will not be possible to call `onlyOwner` functions anymore. Can only be called by the current owner. NOTE: Renouncing ownership will leave the contract without an owner, thereby removing any functionality that is only available to the owner."},"supportsInterface(bytes4)":{"details":"Returns true if this contract implements the interface defined by `interfaceId`. See the corresponding https://eips.ethereum.org/EIPS/eip-165#how-interfaces-are-identified[EIP section] to learn more about how these ids are created. This function call must use less than 30 000 gas."},"transferOwnership(address)":{"details":"Transfers ownership of the contract to a new account (`newOwner`). Can only be called by the current owner."}},"kind":"dev","version":1},"opcodes":"PUSH1 0x80 PUSH1 0x40 MSTORE PUSH1 0x4 CALLDATASIZE LT PUSH2 0x12A JUMPI PUSH1 0x0 CALLDATALOAD PUSH1 0xE0 SHR DUP1 PUSH4 0x8DA5CB5B GT PUSH2 0xAB JUMPI DUP1 PUSH4 0xCCC07959 GT PUSH2 0x6F JUMPI DUP1 PUSH4 0xCCC07959 EQ PUSH2 0x3AB JUMPI DUP1 PUSH4 0xD6935858 EQ PUSH2 0x3DF JUMPI DUP1 PUSH4 0xDDCA3F43 EQ PUSH2 0x3F4 JUMPI DUP1 PUSH4 0xE5225381 EQ PUSH2 0x409 JUMPI DUP1 PUSH4 0xF2FDE38B EQ PUSH2 0x41E JUMPI DUP1 PUSH4 0xF9C016D7 EQ PUSH2 0x43E JUMPI PUSH2 0x12A JUMP JUMPDEST DUP1 PUSH4 0x8DA5CB5B EQ PUSH2 0x2F0 JUMPI DUP1 PUSH4 0x9507D39A EQ PUSH2 0x328 JUMPI DUP1 PUSH4 0x97962076 EQ PUSH2 0x33B JUMPI DUP1 PUSH4 0x9E89A353 EQ PUSH2 0x358 JUMPI DUP1 PUSH4 0xAF640D0F EQ PUSH2 0x378 JUMPI PUSH2 0x12A JUMP JUMPDEST DUP1 PUSH4 0x669E48AA GT PUSH2 0xF2 JUMPI DUP1 PUSH4 0x669E48AA EQ PUSH2 0x271 JUMPI DUP1 PUSH4 0x69FE0E2D EQ PUSH2 0x291 JUMPI DUP1 PUSH4 0x715018A6 EQ PUSH2 0x2B1 JUMPI DUP1 PUSH4 0x72EA61BF EQ PUSH2 0x2C6 JUMPI DUP1 PUSH4 0x854BA99D EQ PUSH2 0x2DB JUMPI PUSH2 0x12A JUMP JUMPDEST DUP1 PUSH4 0x1FFC9A7 EQ PUSH2 0x1BC JUMPI DUP1 PUSH4 0x5D6BD9C EQ PUSH2 0x1F1 JUMPI DUP1 PUSH4 0x6661ABD EQ PUSH2 0x208 JUMPI DUP1 PUSH4 0x2F54BF6E EQ PUSH2 0x227 JUMPI DUP1 PUSH4 0x5BF3B5C7 EQ PUSH2 0x25C JUMPI JUMPDEST CALLVALUE DUP1 ISZERO PUSH2 0x136 JUMPI PUSH1 0x0 DUP1 REVERT JUMPDEST POP PUSH2 0x13F PUSH2 0x45E JUMP JUMPDEST PUSH1 0x0 PUSH2 0x14F PUSH1 0x24 PUSH1 0x4 CALLDATASIZE DUP5 PUSH2 0xF5E JUMP JUMPDEST DUP1 DUP1 PUSH1 0x1F ADD PUSH1 0x20 DUP1 SWAP2 DIV MUL PUSH1 0x20 ADD PUSH1 0x40 MLOAD SWAP1 DUP2 ADD PUSH1 0x40 MSTORE DUP1 SWAP4 SWAP3 SWAP2 SWAP1 DUP2 DUP2 MSTORE PUSH1 0x20 ADD DUP4 DUP4 DUP1 DUP3 DUP5 CALLDATACOPY PUSH1 0x0 SWAP3 ADD DUP3 SWAP1 MSTORE POP PUSH1 0x20 DUP6 ADD MLOAD SWAP5 SWAP6 POP SWAP3 POP POP CALLDATASIZE PUSH1 0x23 NOT DUP2 ADD SWAP2 POP PUSH1 0x1F NOT ADD PUSH1 0x4 DUP4 DUP1 CALLDATACOPY DUP2 PUSH1 0x24 PUSH1 0x4 CALLDATACOPY PUSH1 0x0 DUP1 DUP3 PUSH1 0x0 DUP8 GAS DELEGATECALL SWAP3 POP POP POP PUSH2 0x1B7 DUP2 PUSH2 0x628 JUMP JUMPDEST POP POP POP STOP JUMPDEST CALLVALUE DUP1 ISZERO PUSH2 0x1C8 JUMPI PUSH1 0x0 DUP1 REVERT JUMPDEST POP PUSH2 0x1DC PUSH2 0x1D7 CALLDATASIZE PUSH1 0x4 PUSH2 0xF88 JUMP JUMPDEST PUSH2 0x642 JUMP JUMPDEST PUSH1 0x40 MLOAD SWAP1 ISZERO ISZERO DUP2 MSTORE PUSH1 0x20 ADD JUMPDEST PUSH1 0x40 MLOAD DUP1 SWAP2 SUB SWAP1 RETURN JUMPDEST CALLVALUE DUP1 ISZERO PUSH2 0x1FD JUMPI PUSH1 0x0 DUP1 REVERT JUMPDEST POP PUSH2 0x206 PUSH2 0x679 JUMP JUMPDEST STOP JUMPDEST CALLVALUE DUP1 ISZERO PUSH2 0x214 JUMPI PUSH1 0x0 DUP1 REVERT JUMPDEST POP PUSH1 0x4 SLOAD JUMPDEST PUSH1 0x40 MLOAD SWAP1 DUP2 MSTORE PUSH1 0x20 ADD PUSH2 0x1E8 JUMP JUMPDEST CALLVALUE DUP1 ISZERO PUSH2 0x233 JUMPI PUSH1 0x0 DUP1 REVERT JUMPDEST POP PUSH2 0x1DC PUSH2 0x242 CALLDATASIZE PUSH1 0x4 PUSH2 0xFB9 JUMP JUMPDEST PUSH1 0x0 SLOAD PUSH3 0x10000 SWAP1 DIV PUSH1 0x1 PUSH1 0x1 PUSH1 0xA0 SHL SUB SWAP1 DUP2 AND SWAP2 AND EQ SWAP1 JUMP JUMPDEST CALLVALUE DUP1 ISZERO PUSH2 0x268 JUMPI PUSH1 0x0 DUP1 REVERT JUMPDEST POP PUSH2 0x206 PUSH2 0x690 JUMP JUMPDEST PUSH2 0x284 PUSH2 0x27F CALLDATASIZE PUSH1 0x4 PUSH2 0xFE2 JUMP JUMPDEST PUSH2 0x6A5 JUMP JUMPDEST PUSH1 0x40 MLOAD PUSH2 0x1E8 SWAP2 SWAP1 PUSH2 0x1004 JUMP JUMPDEST CALLVALUE DUP1 ISZERO PUSH2 0x29D JUMPI PUSH1 0x0 DUP1 REVERT JUMPDEST POP PUSH2 0x206 PUSH2 0x2AC CALLDATASIZE PUSH1 0x4 PUSH2 0x1048 JUMP JUMPDEST PUSH2 0x754 JUMP JUMPDEST CALLVALUE DUP1 ISZERO PUSH2 0x2BD JUMPI PUSH1 0x0 DUP1 REVERT JUMPDEST POP PUSH2 0x206 PUSH2 0x761 JUMP JUMPDEST CALLVALUE DUP1 ISZERO PUSH2 0x2D2 JUMPI PUSH1 0x0 DUP1 REVERT JUMPDEST POP PUSH2 0x206 PUSH2 0x773 JUMP JUMPDEST CALLVALUE DUP1 ISZERO PUSH2 0x2E7 JUMPI PUSH1 0x0 DUP1 REVERT JUMPDEST POP PUSH2 0x1DC PUSH2 0x78D JUMP JUMPDEST CALLVALUE DUP1 ISZERO PUSH2 0x2FC JUMPI PUSH1 0x0 DUP1 REVERT JUMPDEST POP PUSH1 0x0 SLOAD PUSH3 0x10000 SWAP1 DIV PUSH1 0x1 PUSH1 0x1 PUSH1 0xA0 SHL SUB AND JUMPDEST PUSH1 0x40 MLOAD PUSH1 0x1 PUSH1 0x1 PUSH1 0xA0 SHL SUB SWAP1 SWAP2 AND DUP2 MSTORE PUSH1 0x20 ADD PUSH2 0x1E8 JUMP JUMPDEST PUSH2 0x219 PUSH2 0x336 CALLDATASIZE PUSH1 0x4 PUSH2 0x1048 JUMP JUMPDEST PUSH2 0x7AB JUMP JUMPDEST CALLVALUE DUP1 ISZERO PUSH2 0x347 JUMPI PUSH1 0x0 DUP1 REVERT JUMPDEST POP PUSH1 0x0 SLOAD PUSH2 0x100 SWAP1 DIV PUSH1 0xFF AND PUSH2 0x1DC JUMP JUMPDEST CALLVALUE DUP1 ISZERO PUSH2 0x364 JUMPI PUSH1 0x0 DUP1 REVERT JUMPDEST POP PUSH2 0x206 PUSH2 0x373 CALLDATASIZE PUSH1 0x4 PUSH2 0x1061 JUMP JUMPDEST PUSH2 0x7B6 JUMP JUMPDEST CALLVALUE DUP1 ISZERO PUSH2 0x384 JUMPI PUSH1 0x0 DUP1 REVERT JUMPDEST POP PUSH32 0x2DFE2D0485B616B61DB1800F30F4A14B26754B328FA09BA4EC73EE7276766CC PUSH2 0x219 JUMP JUMPDEST CALLVALUE DUP1 ISZERO PUSH2 0x3B7 JUMPI PUSH1 0x0 DUP1 REVERT JUMPDEST POP PUSH2 0x310 PUSH32 0x0 DUP2 JUMP JUMPDEST CALLVALUE DUP1 ISZERO PUSH2 0x3EB JUMPI PUSH1 0x0 DUP1 REVERT JUMPDEST POP PUSH2 0x206 PUSH2 0x7EF JUMP JUMPDEST CALLVALUE DUP1 ISZERO PUSH2 0x400 JUMPI PUSH1 0x0 DUP1 REVERT JUMPDEST POP PUSH1 0x1 SLOAD PUSH2 0x219 JUMP JUMPDEST CALLVALUE DUP1 ISZERO PUSH2 0x415 JUMPI PUSH1 0x0 DUP1 REVERT JUMPDEST POP PUSH2 0x206 PUSH2 0x80B JUMP JUMPDEST CALLVALUE DUP1 ISZERO PUSH2 0x42A JUMPI PUSH1 0x0 DUP1 REVERT JUMPDEST POP PUSH2 0x206 PUSH2 0x439 CALLDATASIZE PUSH1 0x4 PUSH2 0xFB9 JUMP JUMPDEST PUSH2 0x842 JUMP JUMPDEST CALLVALUE DUP1 ISZERO PUSH2 0x44A JUMPI PUSH1 0x0 DUP1 REVERT JUMPDEST POP PUSH2 0x219 PUSH2 0x459 CALLDATASIZE PUSH1 0x4 PUSH2 0x1048 JUMP JUMPDEST PUSH2 0x8B8 JUMP JUMPDEST PUSH1 0x0 SLOAD PUSH1 0x1 PUSH1 0x1 PUSH1 0xA0 SHL SUB PUSH3 0x10000 SWAP1 SWAP2 DIV AND CALLER EQ DUP1 PUSH2 0x511 JUMPI POP PUSH1 0x1 PUSH1 0x1 PUSH1 0xA0 SHL SUB PUSH32 0x0 AND PUSH4 0x16279055 CALLER PUSH1 0x40 MLOAD PUSH1 0x1 PUSH1 0x1 PUSH1 0xE0 SHL SUB NOT PUSH1 0xE0 DUP5 SWAP1 SHL AND DUP2 MSTORE PUSH1 0x1 PUSH1 0x1 PUSH1 0xA0 SHL SUB SWAP1 SWAP2 AND PUSH1 0x4 DUP3 ADD MSTORE PUSH1 0x24 ADD PUSH1 0x20 PUSH1 0x40 MLOAD DUP1 DUP4 SUB DUP2 DUP7 GAS STATICCALL ISZERO DUP1 ISZERO PUSH2 0x4ED JUMPI RETURNDATASIZE PUSH1 0x0 DUP1 RETURNDATACOPY RETURNDATASIZE PUSH1 0x0 REVERT JUMPDEST POP POP POP POP PUSH1 0x40 MLOAD RETURNDATASIZE PUSH1 0x1F NOT PUSH1 0x1F DUP3 ADD AND DUP3 ADD DUP1 PUSH1 0x40 MSTORE POP DUP2 ADD SWAP1 PUSH2 0x511 SWAP2 SWAP1 PUSH2 0x108C JUMP JUMPDEST DUP1 PUSH2 0x5AF JUMPI POP PUSH1 0x1 PUSH1 0x1 PUSH1 0xA0 SHL SUB PUSH32 0x0 AND PUSH4 0x6D70F7AE CALLER PUSH1 0x40 MLOAD PUSH1 0x1 PUSH1 0x1 PUSH1 0xE0 SHL SUB NOT PUSH1 0xE0 DUP5 SWAP1 SHL AND DUP2 MSTORE PUSH1 0x1 PUSH1 0x1 PUSH1 0xA0 SHL SUB SWAP1 SWAP2 AND PUSH1 0x4 DUP3 ADD MSTORE PUSH1 0x24 ADD PUSH1 0x20 PUSH1 0x40 MLOAD DUP1 DUP4 SUB DUP2 DUP7 GAS STATICCALL ISZERO DUP1 ISZERO PUSH2 0x58B JUMPI RETURNDATASIZE PUSH1 0x0 DUP1 RETURNDATACOPY RETURNDATASIZE PUSH1 0x0 REVERT JUMPDEST POP POP POP POP PUSH1 0x40 MLOAD RETURNDATASIZE PUSH1 0x1F NOT PUSH1 0x1F DUP3 ADD AND DUP3 ADD DUP1 PUSH1 0x40 MSTORE POP DUP2 ADD SWAP1 PUSH2 0x5AF SWAP2 SWAP1 PUSH2 0x108C JUMP JUMPDEST PUSH2 0x626 JUMPI PUSH1 0x40 MLOAD PUSH3 0x461BCD PUSH1 0xE5 SHL DUP2 MSTORE PUSH1 0x20 PUSH1 0x4 DUP3 ADD MSTORE PUSH1 0x39 PUSH1 0x24 DUP3 ADD MSTORE PUSH32 0x416C6C6F77616E63653A2063616C6C6572206D757374206265205265706F7369 PUSH1 0x44 DUP3 ADD MSTORE PUSH32 0x746F727920436F6E7472616374206F72204F70657261746F7200000000000000 PUSH1 0x64 DUP3 ADD MSTORE PUSH1 0x84 ADD JUMPDEST PUSH1 0x40 MLOAD DUP1 SWAP2 SUB SWAP1 REVERT JUMPDEST JUMP JUMPDEST RETURNDATASIZE PUSH1 0x0 DUP1 RETURNDATACOPY DUP1 DUP1 ISZERO PUSH2 0x639 JUMPI RETURNDATASIZE PUSH1 0x0 RETURN JUMPDEST RETURNDATASIZE PUSH1 0x0 REVERT JUMPDEST POP POP JUMP JUMPDEST PUSH1 0x0 PUSH1 0x1 PUSH1 0x1 PUSH1 0xE0 SHL SUB NOT DUP3 AND PUSH4 0x1FFC9A7 PUSH1 0xE0 SHL EQ DUP1 PUSH2 0x673 JUMPI POP PUSH1 0x1 PUSH1 0x1 PUSH1 0xE0 SHL SUB NOT DUP3 AND PUSH4 0x15D37895 PUSH1 0xE3 SHL EQ JUMPDEST SWAP3 SWAP2 POP POP JUMP JUMPDEST PUSH2 0x681 PUSH2 0x45E JUMP JUMPDEST PUSH2 0x626 PUSH1 0x0 DUP1 SLOAD PUSH1 0xFF NOT AND SWAP1 SSTORE JUMP JUMPDEST PUSH2 0x698 PUSH2 0xA3C JUMP JUMPDEST PUSH1 0x2 SLOAD PUSH1 0x3 SSTORE PUSH1 0x0 PUSH1 0x4 SSTORE JUMP JUMPDEST PUSH1 0x60 DUP3 PUSH8 0xFFFFFFFFFFFFFFFF DUP2 GT ISZERO PUSH2 0x6C0 JUMPI PUSH2 0x6C0 PUSH2 0x10AE JUMP JUMPDEST PUSH1 0x40 MLOAD SWAP1 DUP1 DUP3 MSTORE DUP1 PUSH1 0x20 MUL PUSH1 0x20 ADD DUP3 ADD PUSH1 0x40 MSTORE DUP1 ISZERO PUSH2 0x6E9 JUMPI DUP2 PUSH1 0x20 ADD PUSH1 0x20 DUP3 MUL DUP1 CALLDATASIZE DUP4 CALLDATACOPY ADD SWAP1 POP JUMPDEST POP SWAP1 POP PUSH1 0x0 JUMPDEST DUP4 DUP2 LT ISZERO PUSH2 0x74D JUMPI PUSH2 0x700 DUP4 PUSH2 0xA9D JUMP JUMPDEST DUP3 DUP3 DUP2 MLOAD DUP2 LT PUSH2 0x712 JUMPI PUSH2 0x712 PUSH2 0x10C4 JUMP JUMPDEST PUSH1 0x20 MUL PUSH1 0x20 ADD ADD DUP2 DUP2 MSTORE POP POP DUP2 DUP2 DUP2 MLOAD DUP2 LT PUSH2 0x730 JUMPI PUSH2 0x730 PUSH2 0x10C4 JUMP JUMPDEST PUSH1 0x20 MUL PUSH1 0x20 ADD ADD MLOAD SWAP3 POP DUP1 DUP1 PUSH2 0x745 SWAP1 PUSH2 0x10F0 JUMP JUMPDEST SWAP2 POP POP PUSH2 0x6EF JUMP JUMPDEST POP SWAP3 SWAP2 POP POP JUMP JUMPDEST PUSH2 0x75C PUSH2 0xDA3 JUMP JUMPDEST PUSH1 0x1 SSTORE JUMP JUMPDEST PUSH2 0x769 PUSH2 0xA3C JUMP JUMPDEST PUSH2 0x626 PUSH1 0x0 PUSH2 0xEB8 JUMP JUMPDEST PUSH2 0x77B PUSH2 0x45E JUMP JUMPDEST PUSH2 0x626 PUSH1 0x0 DUP1 SLOAD PUSH1 0xFF NOT AND PUSH1 0x1 OR SWAP1 SSTORE JUMP JUMPDEST PUSH1 0x0 DUP1 SLOAD PUSH1 0xFF AND DUP1 PUSH2 0x7A6 JUMPI POP PUSH1 0x0 SLOAD PUSH2 0x100 SWAP1 DIV PUSH1 0xFF AND JUMPDEST SWAP1 POP SWAP1 JUMP JUMPDEST PUSH1 0x0 PUSH2 0x673 DUP3 PUSH2 0xA9D JUMP JUMPDEST PUSH2 0x7BE PUSH2 0xDA3 JUMP JUMPDEST PUSH1 0x4 DUP1 SLOAD PUSH2 0x100 SWAP1 DUP2 ADD SWAP1 SWAP2 SSTORE PUSH1 0x2 DUP1 SLOAD PUSH1 0x1 DUP2 ADD SWAP1 SWAP2 SSTORE PUSH1 0x0 SWAP1 DUP2 MSTORE PUSH1 0x7 PUSH1 0x20 MSTORE PUSH1 0x40 SWAP1 KECCAK256 PUSH2 0x63E SWAP2 DUP4 SWAP1 PUSH2 0xF13 JUMP JUMPDEST PUSH2 0x7F7 PUSH2 0xA3C JUMP JUMPDEST PUSH2 0x626 PUSH1 0x0 DUP1 SLOAD PUSH2 0xFF00 NOT AND PUSH2 0x100 OR SWAP1 SSTORE JUMP JUMPDEST PUSH2 0x813 PUSH2 0xA3C JUMP JUMPDEST PUSH1 0x40 MLOAD CALLER SWAP1 SELFBALANCE DUP1 ISZERO PUSH2 0x8FC MUL SWAP2 PUSH1 0x0 DUP2 DUP2 DUP2 DUP6 DUP9 DUP9 CALL SWAP4 POP POP POP POP ISZERO DUP1 ISZERO PUSH2 0x83F JUMPI RETURNDATASIZE PUSH1 0x0 DUP1 RETURNDATACOPY RETURNDATASIZE PUSH1 0x0 REVERT JUMPDEST POP JUMP JUMPDEST PUSH2 0x84A PUSH2 0xA3C JUMP JUMPDEST PUSH1 0x1 PUSH1 0x1 PUSH1 0xA0 SHL SUB DUP2 AND PUSH2 0x8AF JUMPI PUSH1 0x40 MLOAD PUSH3 0x461BCD PUSH1 0xE5 SHL DUP2 MSTORE PUSH1 0x20 PUSH1 0x4 DUP3 ADD MSTORE PUSH1 0x26 PUSH1 0x24 DUP3 ADD MSTORE PUSH32 0x4F776E61626C653A206E6577206F776E657220697320746865207A65726F2061 PUSH1 0x44 DUP3 ADD MSTORE PUSH6 0x646472657373 PUSH1 0xD0 SHL PUSH1 0x64 DUP3 ADD MSTORE PUSH1 0x84 ADD PUSH2 0x61D JUMP JUMPDEST PUSH2 0x83F DUP2 PUSH2 0xEB8 JUMP JUMPDEST PUSH1 0x0 DUP1 PUSH1 0x14 NUMBER GT PUSH2 0x8CA JUMPI PUSH1 0x1 PUSH2 0x8D5 JUMP JUMPDEST PUSH2 0x8D5 PUSH1 0x14 NUMBER PUSH2 0x110B JUMP JUMPDEST SWAP1 POP JUMPDEST NUMBER DUP2 LT ISZERO PUSH2 0x929 JUMPI DUP3 DUP2 BLOCKHASH PUSH1 0x40 MLOAD PUSH1 0x20 ADD PUSH2 0x8FD SWAP3 SWAP2 SWAP1 SWAP2 DUP3 MSTORE PUSH1 0x20 DUP3 ADD MSTORE PUSH1 0x40 ADD SWAP1 JUMP JUMPDEST PUSH1 0x40 DUP1 MLOAD PUSH1 0x1F NOT DUP2 DUP5 SUB ADD DUP2 MSTORE SWAP2 SWAP1 MSTORE DUP1 MLOAD PUSH1 0x20 SWAP1 SWAP2 ADD KECCAK256 SWAP3 POP DUP1 PUSH2 0x921 DUP2 PUSH2 0x10F0 JUMP JUMPDEST SWAP2 POP POP PUSH2 0x8D8 JUMP JUMPDEST POP PUSH1 0x5 SLOAD PUSH1 0x40 MLOAD PUSH2 0x947 SWAP2 DUP5 SWAP2 PUSH1 0x20 ADD SWAP2 DUP3 MSTORE PUSH1 0x20 DUP3 ADD MSTORE PUSH1 0x40 ADD SWAP1 JUMP JUMPDEST PUSH1 0x40 MLOAD PUSH1 0x20 DUP2 DUP4 SUB SUB DUP2 MSTORE SWAP1 PUSH1 0x40 MSTORE DUP1 MLOAD SWAP1 PUSH1 0x20 ADD KECCAK256 PUSH1 0x0 SHR SWAP2 POP PUSH1 0x2 SLOAD PUSH1 0x3 SLOAD EQ PUSH2 0xA38 JUMPI PUSH1 0x0 PUSH1 0x2 SLOAD PUSH2 0x100 MUL DUP4 DUP2 PUSH2 0x984 JUMPI PUSH2 0x984 PUSH2 0x1122 JUMP JUMPDEST MOD PUSH1 0xFF AND SWAP1 POP PUSH1 0x7 PUSH1 0x0 PUSH2 0x100 DUP4 DUP2 PUSH2 0x99F JUMPI PUSH2 0x99F PUSH2 0x1122 JUMP JUMPDEST DIV DUP2 MSTORE PUSH1 0x20 ADD SWAP1 DUP2 MSTORE PUSH1 0x20 ADD PUSH1 0x0 KECCAK256 PUSH2 0x100 DUP3 DUP2 PUSH2 0x9BF JUMPI PUSH2 0x9BF PUSH2 0x1122 JUMP JUMPDEST MOD PUSH2 0x100 DUP2 LT PUSH2 0x9D1 JUMPI PUSH2 0x9D1 PUSH2 0x10C4 JUMP JUMPDEST ADD SLOAD SWAP3 POP PUSH1 0x0 PUSH1 0x14 NUMBER GT PUSH2 0x9E6 JUMPI PUSH1 0x1 PUSH2 0x9EB JUMP JUMPDEST PUSH1 0x14 NUMBER SUB JUMPDEST SWAP1 POP JUMPDEST NUMBER DUP2 LT ISZERO PUSH2 0xA35 JUMPI DUP4 DUP2 BLOCKHASH PUSH1 0x40 MLOAD PUSH1 0x20 ADD PUSH2 0xA13 SWAP3 SWAP2 SWAP1 SWAP2 DUP3 MSTORE PUSH1 0x20 DUP3 ADD MSTORE PUSH1 0x40 ADD SWAP1 JUMP JUMPDEST PUSH1 0x40 DUP1 MLOAD PUSH1 0x1F NOT DUP2 DUP5 SUB ADD DUP2 MSTORE SWAP2 SWAP1 MSTORE DUP1 MLOAD PUSH1 0x20 SWAP1 SWAP2 ADD KECCAK256 SWAP4 POP PUSH1 0x1 ADD PUSH2 0x9EE JUMP JUMPDEST POP POP JUMPDEST POP SWAP1 JUMP JUMPDEST PUSH1 0x0 SLOAD PUSH1 0x1 PUSH1 0x1 PUSH1 0xA0 SHL SUB PUSH3 0x10000 SWAP1 SWAP2 DIV AND CALLER EQ PUSH2 0x626 JUMPI PUSH1 0x40 MLOAD PUSH3 0x461BCD PUSH1 0xE5 SHL DUP2 MSTORE PUSH1 0x20 PUSH1 0x4 DUP3 ADD MSTORE PUSH1 0x1F PUSH1 0x24 DUP3 ADD MSTORE PUSH32 0x416C6C6F77616E63653A2063616C6C6572206D757374206265204F776E657200 PUSH1 0x44 DUP3 ADD MSTORE PUSH1 0x64 ADD PUSH2 0x61D JUMP JUMPDEST PUSH1 0x0 DUP1 PUSH1 0xA NUMBER GT PUSH2 0xAAF JUMPI PUSH1 0x1 PUSH2 0xABA JUMP JUMPDEST PUSH2 0xABA PUSH1 0xA NUMBER PUSH2 0x110B JUMP JUMPDEST SWAP1 POP JUMPDEST NUMBER DUP2 LT ISZERO PUSH2 0xB0E JUMPI DUP3 DUP2 BLOCKHASH PUSH1 0x40 MLOAD PUSH1 0x20 ADD PUSH2 0xAE2 SWAP3 SWAP2 SWAP1 SWAP2 DUP3 MSTORE PUSH1 0x20 DUP3 ADD MSTORE PUSH1 0x40 ADD SWAP1 JUMP JUMPDEST PUSH1 0x40 DUP1 MLOAD PUSH1 0x1F NOT DUP2 DUP5 SUB ADD DUP2 MSTORE SWAP2 SWAP1 MSTORE DUP1 MLOAD PUSH1 0x20 SWAP1 SWAP2 ADD KECCAK256 SWAP3 POP DUP1 PUSH2 0xB06 DUP2 PUSH2 0x10F0 JUMP JUMPDEST SWAP2 POP POP PUSH2 0xABD JUMP JUMPDEST POP PUSH1 0x5 SLOAD PUSH1 0x40 MLOAD PUSH2 0xB2C SWAP2 DUP5 SWAP2 PUSH1 0x20 ADD SWAP2 DUP3 MSTORE PUSH1 0x20 DUP3 ADD MSTORE PUSH1 0x40 ADD SWAP1 JUMP JUMPDEST PUSH1 0x40 DUP1 MLOAD PUSH1 0x1F NOT DUP2 DUP5 SUB ADD DUP2 MSTORE SWAP2 SWAP1 MSTORE DUP1 MLOAD PUSH1 0x20 SWAP1 SWAP2 ADD KECCAK256 SWAP2 POP PUSH1 0x0 PUSH2 0xB54 PUSH2 0x100 DUP5 PUSH2 0x1138 JUMP JUMPDEST SWAP1 POP PUSH1 0x4 SLOAD PUSH1 0x0 EQ ISZERO PUSH2 0xBDD JUMPI PUSH1 0x0 PUSH1 0x3 DUP2 SWAP1 SSTORE JUMPDEST PUSH1 0x2 SLOAD DUP2 LT ISZERO PUSH2 0xB94 JUMPI PUSH1 0x0 DUP2 DUP2 MSTORE PUSH1 0x6 PUSH1 0x20 MSTORE PUSH1 0x40 DUP2 KECCAK256 SSTORE DUP1 PUSH2 0xB8C DUP2 PUSH2 0x10F0 JUMP JUMPDEST SWAP2 POP POP PUSH2 0xB69 JUMP JUMPDEST POP PUSH1 0x2 SLOAD PUSH2 0xBA4 SWAP1 PUSH2 0x100 PUSH2 0x115A JUMP JUMPDEST PUSH1 0x4 DUP2 SWAP1 SSTORE PUSH1 0x40 MLOAD SWAP1 DUP2 MSTORE PUSH32 0x4FB4E4D112BCE25D0ACA6BDD84E71D7D25C103050C44FA82D66C6E954B2A1518 SWAP1 PUSH1 0x20 ADD PUSH1 0x40 MLOAD DUP1 SWAP2 SUB SWAP1 LOG1 JUMPDEST PUSH1 0x0 JUMPDEST PUSH2 0x100 DUP2 PUSH1 0xFF AND LT ISZERO PUSH2 0xD64 JUMPI PUSH1 0x3 SLOAD DUP2 DUP4 SUB SWAP1 JUMPDEST PUSH1 0x2 SLOAD DUP2 LT ISZERO PUSH2 0xD5A JUMPI PUSH1 0x0 DUP2 DUP2 MSTORE PUSH1 0x6 PUSH1 0x20 MSTORE PUSH1 0x40 SWAP1 KECCAK256 SLOAD PUSH1 0x1 PUSH1 0xFF DUP5 AND SHL AND PUSH2 0xD52 JUMPI PUSH1 0x0 DUP2 DUP2 MSTORE PUSH1 0x6 PUSH1 0x20 SWAP1 DUP2 MSTORE PUSH1 0x40 DUP1 DUP4 KECCAK256 DUP1 SLOAD PUSH1 0x1 PUSH1 0xFF DUP9 AND SWAP1 DUP2 SHL SWAP1 SWAP2 OR SWAP1 SWAP2 SSTORE PUSH1 0x7 SWAP1 SWAP3 MSTORE SWAP1 SWAP2 KECCAK256 SWAP1 PUSH2 0x100 DUP2 LT PUSH2 0xC56 JUMPI PUSH2 0xC56 PUSH2 0x10C4 JUMP JUMPDEST ADD SLOAD SWAP6 POP PUSH1 0x0 PUSH1 0xA NUMBER GT PUSH2 0xC6B JUMPI PUSH1 0x1 PUSH2 0xC70 JUMP JUMPDEST PUSH1 0xA NUMBER SUB JUMPDEST SWAP1 POP JUMPDEST NUMBER DUP2 LT ISZERO PUSH2 0xCBA JUMPI DUP7 DUP2 BLOCKHASH PUSH1 0x40 MLOAD PUSH1 0x20 ADD PUSH2 0xC98 SWAP3 SWAP2 SWAP1 SWAP2 DUP3 MSTORE PUSH1 0x20 DUP3 ADD MSTORE PUSH1 0x40 ADD SWAP1 JUMP JUMPDEST PUSH1 0x40 DUP1 MLOAD PUSH1 0x1F NOT DUP2 DUP5 SUB ADD DUP2 MSTORE SWAP2 SWAP1 MSTORE DUP1 MLOAD PUSH1 0x20 SWAP1 SWAP2 ADD KECCAK256 SWAP7 POP PUSH1 0x1 ADD PUSH2 0xC73 JUMP JUMPDEST POP PUSH1 0x5 DUP7 SWAP1 SSTORE PUSH1 0x4 DUP1 SLOAD PUSH1 0x0 NOT ADD SWAP1 SSTORE JUMPDEST PUSH1 0x3 SLOAD PUSH1 0x0 SWAP1 DUP2 MSTORE PUSH1 0x6 PUSH1 0x20 MSTORE PUSH1 0x40 SWAP1 KECCAK256 SLOAD PUSH1 0x0 NOT EQ ISZERO PUSH2 0xCF4 JUMPI PUSH1 0x3 DUP1 SLOAD PUSH1 0x1 ADD SWAP1 SSTORE PUSH2 0xCCB JUMP JUMPDEST PUSH2 0x100 PUSH1 0x4 SLOAD DUP2 PUSH2 0xD07 JUMPI PUSH2 0xD07 PUSH2 0x1122 JUMP JUMPDEST MOD PUSH2 0xD48 JUMPI PUSH32 0x387FD79753E961348C50D7984A0E877322575E20FA9D38AD8E88747E65C893F3 PUSH1 0x4 SLOAD PUSH1 0x40 MLOAD PUSH2 0xD3F SWAP2 DUP2 MSTORE PUSH1 0x20 ADD SWAP1 JUMP JUMPDEST PUSH1 0x40 MLOAD DUP1 SWAP2 SUB SWAP1 LOG1 JUMPDEST POP SWAP4 SWAP5 SWAP4 POP POP POP POP JUMP JUMPDEST PUSH1 0x1 ADD PUSH2 0xBF5 JUMP JUMPDEST POP POP PUSH1 0x1 ADD PUSH2 0xBE0 JUMP JUMPDEST POP PUSH1 0x40 MLOAD PUSH3 0x461BCD PUSH1 0xE5 SHL DUP2 MSTORE PUSH1 0x20 PUSH1 0x4 DUP3 ADD MSTORE PUSH1 0x13 PUSH1 0x24 DUP3 ADD MSTORE PUSH19 0x6E6F2072616E646F6D20617661696C61626C65 PUSH1 0x68 SHL PUSH1 0x44 DUP3 ADD MSTORE PUSH1 0x64 ADD PUSH2 0x61D JUMP JUMPDEST PUSH1 0x0 SLOAD PUSH1 0x1 PUSH1 0x1 PUSH1 0xA0 SHL SUB PUSH3 0x10000 SWAP1 SWAP2 DIV AND CALLER EQ DUP1 PUSH2 0xE56 JUMPI POP PUSH1 0x1 PUSH1 0x1 PUSH1 0xA0 SHL SUB PUSH32 0x0 AND PUSH4 0x6D70F7AE CALLER PUSH1 0x40 MLOAD PUSH1 0x1 PUSH1 0x1 PUSH1 0xE0 SHL SUB NOT PUSH1 0xE0 DUP5 SWAP1 SHL AND DUP2 MSTORE PUSH1 0x1 PUSH1 0x1 PUSH1 0xA0 SHL SUB SWAP1 SWAP2 AND PUSH1 0x4 DUP3 ADD MSTORE PUSH1 0x24 ADD PUSH1 0x20 PUSH1 0x40 MLOAD DUP1 DUP4 SUB DUP2 DUP7 GAS STATICCALL ISZERO DUP1 ISZERO PUSH2 0xE32 JUMPI RETURNDATASIZE PUSH1 0x0 DUP1 RETURNDATACOPY RETURNDATASIZE PUSH1 0x0 REVERT JUMPDEST POP POP POP POP PUSH1 0x40 MLOAD RETURNDATASIZE PUSH1 0x1F NOT PUSH1 0x1F DUP3 ADD AND DUP3 ADD DUP1 PUSH1 0x40 MSTORE POP DUP2 ADD SWAP1 PUSH2 0xE56 SWAP2 SWAP1 PUSH2 0x108C JUMP JUMPDEST PUSH2 0x626 JUMPI PUSH1 0x40 MLOAD PUSH3 0x461BCD PUSH1 0xE5 SHL DUP2 MSTORE PUSH1 0x20 PUSH1 0x4 DUP3 ADD MSTORE PUSH1 0x2D PUSH1 0x24 DUP3 ADD MSTORE PUSH32 0x416C6C6F77616E63653A2063616C6C6572206D757374206265205265706F7369 PUSH1 0x44 DUP3 ADD MSTORE PUSH13 0x3A37B93C9027B832B930BA37B9 PUSH1 0x99 SHL PUSH1 0x64 DUP3 ADD MSTORE PUSH1 0x84 ADD PUSH2 0x61D JUMP JUMPDEST PUSH1 0x0 DUP1 SLOAD PUSH1 0x1 PUSH1 0x1 PUSH1 0xA0 SHL SUB DUP4 DUP2 AND PUSH3 0x10000 DUP2 DUP2 MUL PUSH3 0x10000 PUSH1 0x1 PUSH1 0xB0 SHL SUB NOT DUP6 AND OR DUP6 SSTORE PUSH1 0x40 MLOAD SWAP4 DIV SWAP2 SWAP1 SWAP2 AND SWAP3 SWAP1 SWAP2 DUP4 SWAP2 PUSH32 0x8BE0079C531659141344CD1FD0A4F28419497F9722A3DAAFE3B4186F6B6457E0 SWAP2 LOG3 POP POP JUMP JUMPDEST DUP3 PUSH2 0x100 DUP2 ADD SWAP3 DUP3 ISZERO PUSH2 0xF42 JUMPI SWAP2 PUSH1 0x20 MUL DUP3 ADD JUMPDEST DUP3 DUP2 GT ISZERO PUSH2 0xF42 JUMPI DUP3 CALLDATALOAD DUP3 SSTORE SWAP2 PUSH1 0x20 ADD SWAP2 SWAP1 PUSH1 0x1 ADD SWAP1 PUSH2 0xF27 JUMP JUMPDEST POP PUSH2 0xA38 SWAP3 SWAP2 POP JUMPDEST DUP1 DUP3 GT ISZERO PUSH2 0xA38 JUMPI PUSH1 0x0 DUP2 SSTORE PUSH1 0x1 ADD PUSH2 0xF4A JUMP JUMPDEST PUSH1 0x0 DUP1 DUP6 DUP6 GT ISZERO PUSH2 0xF6E JUMPI PUSH1 0x0 DUP1 REVERT JUMPDEST DUP4 DUP7 GT ISZERO PUSH2 0xF7B JUMPI PUSH1 0x0 DUP1 REVERT JUMPDEST POP POP DUP3 ADD SWAP4 SWAP2 SWAP1 SWAP3 SUB SWAP2 POP JUMP JUMPDEST PUSH1 0x0 PUSH1 0x20 DUP3 DUP5 SUB SLT ISZERO PUSH2 0xF9A JUMPI PUSH1 0x0 DUP1 REVERT JUMPDEST DUP2 CALLDATALOAD PUSH1 0x1 PUSH1 0x1 PUSH1 0xE0 SHL SUB NOT DUP2 AND DUP2 EQ PUSH2 0xFB2 JUMPI PUSH1 0x0 DUP1 REVERT JUMPDEST SWAP4 SWAP3 POP POP POP JUMP JUMPDEST PUSH1 0x0 PUSH1 0x20 DUP3 DUP5 SUB SLT ISZERO PUSH2 0xFCB JUMPI PUSH1 0x0 DUP1 REVERT JUMPDEST DUP2 CALLDATALOAD PUSH1 0x1 PUSH1 0x1 PUSH1 0xA0 SHL SUB DUP2 AND DUP2 EQ PUSH2 0xFB2 JUMPI PUSH1 0x0 DUP1 REVERT JUMPDEST PUSH1 0x0 DUP1 PUSH1 0x40 DUP4 DUP6 SUB SLT ISZERO PUSH2 0xFF5 JUMPI PUSH1 0x0 DUP1 REVERT JUMPDEST POP POP DUP1 CALLDATALOAD SWAP3 PUSH1 0x20 SWAP1 SWAP2 ADD CALLDATALOAD SWAP2 POP JUMP JUMPDEST PUSH1 0x20 DUP1 DUP3 MSTORE DUP3 MLOAD DUP3 DUP3 ADD DUP2 SWAP1 MSTORE PUSH1 0x0 SWAP2 SWAP1 DUP5 DUP3 ADD SWAP1 PUSH1 0x40 DUP6 ADD SWAP1 DUP5 JUMPDEST DUP2 DUP2 LT ISZERO PUSH2 0x103C JUMPI DUP4 MLOAD DUP4 MSTORE SWAP3 DUP5 ADD SWAP3 SWAP2 DUP5 ADD SWAP2 PUSH1 0x1 ADD PUSH2 0x1020 JUMP JUMPDEST POP SWAP1 SWAP7 SWAP6 POP POP POP POP POP POP JUMP JUMPDEST PUSH1 0x0 PUSH1 0x20 DUP3 DUP5 SUB SLT ISZERO PUSH2 0x105A JUMPI PUSH1 0x0 DUP1 REVERT JUMPDEST POP CALLDATALOAD SWAP2 SWAP1 POP JUMP JUMPDEST PUSH1 0x0 PUSH2 0x2000 DUP1 DUP4 DUP6 SUB SLT ISZERO PUSH2 0x1075 JUMPI PUSH1 0x0 DUP1 REVERT JUMPDEST DUP4 DUP2 DUP5 ADD GT ISZERO PUSH2 0x1084 JUMPI PUSH1 0x0 DUP1 REVERT JUMPDEST POP SWAP1 SWAP3 SWAP2 POP POP JUMP JUMPDEST PUSH1 0x0 PUSH1 0x20 DUP3 DUP5 SUB SLT ISZERO PUSH2 0x109E JUMPI PUSH1 0x0 DUP1 REVERT JUMPDEST DUP2 MLOAD DUP1 ISZERO ISZERO DUP2 EQ PUSH2 0xFB2 JUMPI PUSH1 0x0 DUP1 REVERT JUMPDEST PUSH4 0x4E487B71 PUSH1 0xE0 SHL PUSH1 0x0 MSTORE PUSH1 0x41 PUSH1 0x4 MSTORE PUSH1 0x24 PUSH1 0x0 REVERT JUMPDEST PUSH4 0x4E487B71 PUSH1 0xE0 SHL PUSH1 0x0 MSTORE PUSH1 0x32 PUSH1 0x4 MSTORE PUSH1 0x24 PUSH1 0x0 REVERT JUMPDEST PUSH4 0x4E487B71 PUSH1 0xE0 SHL PUSH1 0x0 MSTORE PUSH1 0x11 PUSH1 0x4 MSTORE PUSH1 0x24 PUSH1 0x0 REVERT JUMPDEST PUSH1 0x0 PUSH1 0x0 NOT DUP3 EQ ISZERO PUSH2 0x1104 JUMPI PUSH2 0x1104 PUSH2 0x10DA JUMP JUMPDEST POP PUSH1 0x1 ADD SWAP1 JUMP JUMPDEST PUSH1 0x0 DUP3 DUP3 LT ISZERO PUSH2 0x111D JUMPI PUSH2 0x111D PUSH2 0x10DA JUMP JUMPDEST POP SUB SWAP1 JUMP JUMPDEST PUSH4 0x4E487B71 PUSH1 0xE0 SHL PUSH1 0x0 MSTORE PUSH1 0x12 PUSH1 0x4 MSTORE PUSH1 0x24 PUSH1 0x0 REVERT JUMPDEST PUSH1 0x0 DUP3 PUSH2 0x1155 JUMPI PUSH4 0x4E487B71 PUSH1 0xE0 SHL PUSH1 0x0 MSTORE PUSH1 0x12 PUSH1 0x4 MSTORE PUSH1 0x24 PUSH1 0x0 REVERT JUMPDEST POP MOD SWAP1 JUMP JUMPDEST PUSH1 0x0 DUP2 PUSH1 0x0 NOT DIV DUP4 GT DUP3 ISZERO ISZERO AND ISZERO PUSH2 0x1174 JUMPI PUSH2 0x1174 PUSH2 0x10DA JUMP JUMPDEST POP MUL SWAP1 JUMP INVALID LOG2 PUSH5 0x6970667358 0x22 SLT KECCAK256 PUSH22 0x874DCCA2C3A4B695FCEC3FA7562A16BBA323E41C431D SGT ADDRESS 0xA9 0x2D 0x23 SWAP13 LOG0 0xE5 PUSH29 0x64736F6C634300080B0033000000000000000000000000000000000000 ","sha1":"009bc532f2e4eb38cf4becda381b78b629468f43","source":"// SPDX-License-Identifier: MIT\n// Beef MarketPlace Contracts v0.0.0 hello@mcdu.com\n\npragma solidity ^0.8.0;\n\nimport \"../Repository/Repository.sol\";\n\nbytes32 constant RANDOM = keccak256(\"Random\");\n\ncontract Random is RepositoryContract {\n\n    function id() public view returns (bytes32) {return RANDOM;}\n\n    uint256 private _fee;\n    uint256 private _ptr;\n    uint256 private _ptrstart;\n    uint256 private _count;\n    uint256 private _lastrandom;\n\n    mapping(uint256 => uint256) private _usedrandoms;\n    mapping(uint256 => uint256[256]) private _randoms;\n\n    event RandomRemaining(uint256 count);\n    event RandomReset(uint256 count);\n\n    constructor(Repository rep_) RepositoryContract(rep_) {}\n\n    function setFee(uint256 fee_) public onlyOperators {\n        _fee = fee_;\n    }\n\n    function fee() public view returns (uint256) {\n        return _fee;\n    }\n\n    function count() public view returns (uint256) {\n        return _count;\n    }\n\n    function purgeall() public onlyOwner {\n        _ptrstart = _ptr;\n        _count = 0;\n    }\n\n    function collect() public onlyOwner {\n        payable(_msgSender()).transfer(address(this).balance);\n    }\n\n    function add(uint256[256] calldata newrandoms_) public onlyOperators {\n        unchecked {\n            _count += 256;\n            _randoms[_ptr++] = newrandoms_;\n        }\n        //if (address(this).balance>=_fee*256)\n        //    payable(_msgSender()).transfer(_fee*256);\n    }\n    function get(uint256 count_,uint256 random_) public payable returns (uint256[] memory out_)\n    {\n        /*if (\n            _msgSender() != ownerOf() &&\n            !rep.isContract(_msgSender()) &&\n            !rep.isOperator(_msgSender())\n        ) {\n            require(_fee != 0, \"desactivated\");\n            require(msg.value >= _fee, \"Must pay fee\");\n            if (msg.value > _fee*count_)\n                payable(_msgSender()).transfer(msg.value-(_fee*count_));\n        }*/\n        out_ = new uint256[](count_);\n        for (uint i;i<count_;i++)\n        {\n            out_[i] = _get(random_);\n            random_ = out_[i];\n        }\n    }\n    function get(uint256 random_) public payable returns (uint256) {\n        /*if (\n            _msgSender() != ownerOf() &&\n            !rep.isContract(_msgSender()) &&\n            !rep.isOperator(_msgSender())\n        ) {\n            require(_fee != 0, \"desactivated\");\n            require(msg.value >= _fee, \"Must pay fee\");\n            if (msg.value > _fee)\n                payable(_msgSender()).transfer(msg.value-_fee);\n        }*/\n        return _get(random_);\n    }\n    function _get(uint256 random_) internal returns (uint256) {\n        for (\n            uint256 i = block.number > 10 ? block.number - 10 : 1;\n            i < block.number;\n            i++\n        ) random_ = uint256(keccak256(abi.encode(random_, blockhash(i))));\n        random_ = uint256(keccak256(abi.encode(random_, _lastrandom)));\n        uint8 k = uint8(random_ % 256);\n        if (_count == 0) {\n            _ptrstart = 0;\n            for (uint256 p = _ptrstart; p < _ptr; p++) delete _usedrandoms[p];\n            _count = _ptr * 256;\n            emit RandomReset(_count);\n        }\n        unchecked {\n            for (uint8 b = 0; b < 256; b++) {\n                uint8 ki = k - b;\n                for (uint256 p = _ptrstart; p < _ptr; p++)\n                    if (_usedrandoms[p] & (1 << ki) == 0) {\n                        _usedrandoms[p] |= 1 << ki;\n\n                        random_ = _randoms[p][ki];\n                        for (\n                            uint256 i = block.number > 10\n                                ? block.number - 10\n                                : 1;\n                            i < block.number;\n                            i++\n                        )\n                            random_ = uint256(\n                                keccak256(abi.encode(random_, blockhash(i)))\n                            );\n                        _lastrandom = random_;\n                        _count--;\n                        while (_usedrandoms[_ptrstart] == type(uint256).max)\n                            _ptrstart++;\n                        if (_count % 256 == 0) emit RandomRemaining(_count);\n                        return random_;\n                    }\n            }\n            require(false, \"no random available\");\n        }\n    }\n\n    function getfree(uint256 random_) public view returns (uint256) {\n        for (\n            uint256 i = block.number > 20 ? block.number - 20 : 1;\n            i < block.number;\n            i++\n        ) random_ = uint256(keccak256(abi.encode(random_, blockhash(i))));\n        random_ = uint256(keccak256(abi.encode(random_, _lastrandom)));\n        unchecked {\n            if (_ptrstart != _ptr) {\n                uint256 k = uint8(random_ % (256 * _ptr));\n                random_ = _randoms[k / 256][k % 256];\n                for (\n                    uint256 i = block.number > 20 ? block.number - 20 : 1;\n                    i < block.number;\n                    i++\n                )\n                    random_ = uint256(\n                        keccak256(abi.encode(random_, blockhash(i)))\n                    );\n            }\n        }\n        return random_;\n    }\n}\n","sourcePath":"contracts/Random/Random.sol","deployment":{"address":"0x56f327FAc9E97c27Af5d37BC76E97f7bfAf45b38","chainid":"9997","blockHeight":20646}}