{"bytecode":"60a06040523480156200001157600080fd5b5060405162005fcf38038062005fcf8339810160408190526200003491620000b1565b8080620000413362000056565b6001600160a01b031660805250620000e39050565b600080546001600160a01b038381166201000081810262010000600160b01b0319851617855560405193049190911692909183917f8be0079c531659141344cd1fd0a4f28419497f9722a3daafe3b4186f6b6457e091a35050565b600060208284031215620000c457600080fd5b81516001600160a01b0381168114620000dc57600080fd5b9392505050565b608051615e59620001766000396000818161043c015281816104ee0152818161058c01528181610749015281816107dc01528181610bfc01528181610dd801528181610e8b015281816111ec0152818161127d0152818161173201528181611a5d0152818161277f015281816129a301528181612b950152818161357d0152818161363001526143e70152615e596000f3fe608060405234801561001057600080fd5b50600436106101a95760003560e01c8063854ba99d116100f9578063ccbd163711610097578063e4b1614411610071578063e4b1614414610466578063e9f14ce614610479578063f2fde38b1461048c578063feab44541461049f576101a9565b8063ccbd163714610424578063ccc0795914610437578063d69358581461045e576101a9565b8063af640d0f116100d3578063af640d0f146103c5578063b03fd40d146103eb578063b9b38745146103fe578063bd0ade2b14610411576101a9565b8063854ba99d146103825780638da5cb5b1461038a57806397962076146103b5576101a9565b80632203616d116101665780636b2b091a116101405780636b2b091a14610331578063715018a61461035157806372ea61bf146103595780637af6649a14610361576101a9565b80632203616d146102d65780635f5c5baa146102fe5780636296514114610306576101a9565b806301ffc9a71461022e57806305d6bd9c1461025657806309252f02146102605780630a3550aa146102825780631ef4590d146102a357806321603f43146102b6575b6101b16104c9565b60006101c16024600436846147eb565b8080601f016020809104026020016040519081016040528093929190818152602001838380828437600092018290525060208501519495509250503660231981019150601f19016004838037816024600437600080826000875af49250505061022981610693565b505050005b61024161023c366004614815565b6106a9565b60405190151581526020015b60405180910390f35b61025e6106e0565b005b61027361026e366004614a51565b6106f7565b60405161024d93929190614ba6565b610295610290366004614be2565b610860565b60405161024d929190614c9f565b6102416102b1366004614ddc565b610b22565b6102c96102c4366004614dfe565b610bb3565b60405161024d9190614e4f565b6102e96102e4366004614dfe565b610bc6565b60405163ffffffff909116815260200161024d565b61025e610bd7565b610319610314366004614dfe565b610cec565b6040516001600160401b03909116815260200161024d565b61034461033f366004614dfe565b610d1e565b60405161024d9190614f00565b61025e61113a565b61025e61114c565b61037461036f366004614f62565b611166565b60405190815260200161024d565b61024161117f565b6000546201000090046001600160a01b03165b6040516001600160a01b03909116815260200161024d565b600054610100900460ff16610241565b7fdcf6913c74762e0b3c7f94f504bb2be7445bbd8d11abee9960f04ebf85e7a7b2610374565b6103746103f9366004614f8a565b61119d565b61029561040c366004614a51565b6111b7565b61027361041f366004614be2565b6112fe565b610295610432366004614fb3565b6115a8565b61039d7f000000000000000000000000000000000000000000000000000000000000000081565b61025e611883565b610374610474366004615016565b61189f565b610273610487366004614fb3565b6118b6565b61025e61049a36600461503c565b611baf565b6104b26104ad366004614dfe565b611c28565b60405165ffffffffffff909116815260200161024d565b6000546001600160a01b03620100009091041633148061057c57506001600160a01b037f0000000000000000000000000000000000000000000000000000000000000000166316279055336040516001600160e01b031960e084901b1681526001600160a01b039091166004820152602401602060405180830381865afa158015610558573d6000803e3d6000fd5b505050506040513d601f19601f8201168201806040525081019061057c9190615059565b8061061a57506001600160a01b037f000000000000000000000000000000000000000000000000000000000000000016636d70f7ae336040516001600160e01b031960e084901b1681526001600160a01b039091166004820152602401602060405180830381865afa1580156105f6573d6000803e3d6000fd5b505050506040513d601f19601f8201168201806040525081019061061a9190615059565b6106915760405162461bcd60e51b815260206004820152603960248201527f416c6c6f77616e63653a2063616c6c6572206d757374206265205265706f736960448201527f746f727920436f6e7472616374206f72204f70657261746f720000000000000060648201526084015b60405180910390fd5b565b3d6000803e8080156106a4573d6000f35b3d6000fd5b60006001600160e01b031982166301ffc9a760e01b14806106da57506001600160e01b031982166315d3789560e31b145b92915050565b6106e86104c9565b6106916000805460ff19169055565b6060600061071f60405180606001604052806000815260200160008152602001600081525090565b6040516327bcdbc960e11b81526001600160a01b038a81166004830152602482018a905261084e917f000000000000000000000000000000000000000000000000000000000000000090911690634f79b79290604401602060405180830381865afa158015610792573d6000803e3d6000fd5b505050506040513d601f19601f820116820180604052508101906107b69190615076565b6040516327bcdbc960e11b81526001600160a01b038a81166004830152602482018a90527f00000000000000000000000000000000000000000000000000000000000000001690634f79b79290604401602060405180830381865afa158015610823573d6000803e3d6000fd5b505050506040513d601f19601f820116820180604052508101906108479190615076565b87876118b6565b92509250925096509650969350505050565b61086861461e565b60606000835b6108796008826150a5565b8210156108c257858561088d8460086150bc565b81811061089c5761089c6150d4565b90506020020135600014156108b0576108c2565b816108ba816150ea565b92505061086e565b6000826001600160401b038111156108dc576108dc614854565b604051908082528060200260200182016040528015610905578160200160208202803683370190505b50905060005b838110156109655787876109208360086150bc565b81811061092f5761092f6150d4565b90506020020135828281518110610948576109486150d4565b60209081029190910101528061095d816150ea565b91505061090b565b50610b11896040518060e001604052808b81526020018a8a600081811061098e5761098e6150d4565b9050602002013581526020018a8a60018181106109ad576109ad6150d4565b9050602002013581526020018a8a60028181106109cc576109cc6150d4565b9050602002013560001415151581526020018a8a60038181106109f1576109f16150d4565b9050602002013560001415151581526020018a8a6007818110610a1657610a166150d4565b9050602002013581526020018481525060405180608001604052808b8b6005818110610a4457610a446150d4565b9050602002013581526020018b8b6006818110610a6357610a636150d4565b9050602002013581526020018b8b6004818110610a8257610a826150d4565b60209081029290920135835250016000604051908082528060200260200182016040528015610acb57816020015b610ab8614668565b815260200190600190039081610ab05790505b5090526040805160008082526020820190925290610b0b565b6040805180820190915260008082526020820152815260200190600190039081610ae45790505b50611c39565b945094505050505b94509492505050565b6000828152600160205260408082209051632be5db2360e11b815260048101919091526024810183905273__Array_________________________________906357cbb64690604401602060405180830381865af4158015610b88573d6000803e3d6000fd5b505050506040513d601f19601f82011682018060405250810190610bac9190615059565b9392505050565b610bbb6146a1565b6106da826000612667565b60006106da64e8d4a5100083615105565b6000546001600160a01b036201000090910416331480610c8a57506001600160a01b037f000000000000000000000000000000000000000000000000000000000000000016636d70f7ae336040516001600160e01b031960e084901b1681526001600160a01b039091166004820152602401602060405180830381865afa158015610c66573d6000803e3d6000fd5b505050506040513d601f19601f82011682018060405250810190610c8a9190615059565b6106915760405162461bcd60e51b815260206004820152602d60248201527f416c6c6f77616e63653a2063616c6c6572206d757374206265205265706f736960448201526c3a37b93c9027b832b930ba37b960991b6064820152608401610688565b600080610cfe6402540be40084615105565b905082610d10826402540be400615127565b11156106da576106da615146565b6000818152600160209081526040808320805482518185028101850190935280835260609493830182828015610d7357602002820191906000526020600020905b815481526020019060010190808311610d5f575b5050505050905080516001600160401b03811115610d9357610d93614854565b604051908082528060200260200182016040528015610dc657816020015b6060815260200190600190039081610db15790505b5091506000805b82518110156110e7577f00000000000000000000000000000000000000000000000000000000000000006001600160a01b03166338a699a4848381518110610e1757610e176150d4565b60200260200101516040518263ffffffff1660e01b8152600401610e3d91815260200190565b602060405180830381865afa158015610e5a573d6000803e3d6000fd5b505050506040513d601f19601f82011682018060405250810190610e7e9190615059565b610e87576110d5565b60007f00000000000000000000000000000000000000000000000000000000000000006001600160a01b03166327ee9dc2858481518110610eca57610eca6150d4565b60200260200101516040518263ffffffff1660e01b8152600401610ef091815260200190565b600060405180830381865afa158015610f0d573d6000803e3d6000fd5b505050506040513d6000823e601f3d908101601f19168201604052610f3591908101906151b7565b90506000815111610f825760405162461bcd60e51b815260206004820152601760248201527605f706174684c69737420706174682e6c656e6774683e3604c1b6044820152606401610688565b60005b60018251610f9391906150a5565b81101561108d5761107273__BytesAndKeccakLib_____________________6376254ff9848481518110610fc957610fc96150d4565b602002602001015185856001610fdf91906150bc565b81518110610fef57610fef6150d4565b60200260200101516040518363ffffffff1660e01b815260040161101d929190918252602082015260400190565b602060405180830381865af415801561103a573d6000803e3d6000fd5b505050506040513d601f19601f8201168201806040525081019061105e9190615076565b600090815260066020526040902054151590565b61107b5761108d565b80611085816150ea565b915050610f85565b6001825161109b91906150a5565b8110156110a95750506110d5565b8186856110b5816150ea565b9650815181106110c7576110c76150d4565b602002602001018190525050505b806110df816150ea565b915050610dcd565b50808352600081116111335760405162461bcd60e51b815260206004820152601560248201527405f6c6973745061746846726f6d20636f756e743e3605c1b6044820152606401610688565b5050919050565b611142612dd0565b6106916000612e31565b6111546104c9565b6106916000805460ff19166001179055565b60006106da65ffffffffffff831664174876e800615127565b6000805460ff16806111985750600054610100900460ff165b905090565b60006106da6001600160401b0383166402540be400615127565b6111bf61461e565b6040516327bcdbc960e11b81526001600160a01b038881166004830152602482018890526060916112ef917f00000000000000000000000000000000000000000000000000000000000000001690634f79b79290604401602060405180830381865afa158015611233573d6000803e3d6000fd5b505050506040513d601f19601f820116820180604052508101906112579190615076565b6040516327bcdbc960e11b81526001600160a01b038981166004830152602482018990527f00000000000000000000000000000000000000000000000000000000000000001690634f79b79290604401602060405180830381865afa1580156112c4573d6000803e3d6000fd5b505050506040513d601f19601f820116820180604052508101906112e89190615076565b86866115a8565b91509150965096945050505050565b6060600061132660405180606001604052806000815260200160008152602001600081525090565b6000806113346008876150a5565b90505b8082101561138157868661134c8460086150bc565b81811061135b5761135b6150d4565b905060200201356000141561136f57611381565b81611379816150ea565b925050611337565b6000826001600160401b0381111561139b5761139b614854565b6040519080825280602002602001820160405280156113c4578160200160208202803683370190505b50905060005b838110156114245788886113df8360086150bc565b8181106113ee576113ee6150d4565b90506020020135828281518110611407576114076150d4565b60209081029190910101528061141c816150ea565b9150506113ca565b506115948a6040518060e001604052808c81526020018b8b600081811061144d5761144d6150d4565b9050602002013581526020018b8b600181811061146c5761146c6150d4565b9050602002013581526020018b8b600281811061148b5761148b6150d4565b9050602002013560001415151581526020018b8b60038181106114b0576114b06150d4565b9050602002013560001415151581526020018b8b60078181106114d5576114d56150d4565b9050602002013581526020018481525060405180608001604052808c8c6005818110611503576115036150d4565b9050602002013581526020018c8c6006818110611522576115226150d4565b9050602002013581526020018c8c6004818110611541576115416150d4565b6020908102929092013583525001600060405190808252806020026020018201604052801561158a57816020015b611577614668565b81526020019060019003908161156f5790505b5090526000612e8c565b9550955095505050505b9450945094915050565b6115b061461e565b815160609060208111156116065760405162461bcd60e51b815260206004820152601d60248201527f64656c6976657279206172726179206d61782073697a652069732033320000006044820152606401610688565b61160e614730565b8551815260208087015190820152604086015161162c57600061162f565b60015b60ff166040820152606086015161164757600061164a565b60015b60ff1660608201526080868101519082015260a0808701519082015260c0808701519082015260e08087015190820152600860005b838110156116f857868181518110611699576116996150d4565b60200260200101516000146116e6578681815181106116ba576116ba6150d4565b60200260200101518383806116ce906150ea565b9450602881106116e0576116e06150d4565b60200201525b806116f0816150ea565b91505061167f565b505060405163023aa9ab60e61b81527f2e7a327ef83c2af7579c6634f2f5604519800c5f07626f27bd602fd11ed8e6ec60048201526000907f00000000000000000000000000000000000000000000000000000000000000006001600160a01b031690638eaa6ac090602401602060405180830381865afa158015611781573d6000803e3d6000fd5b505050506040513d601f19601f820116820180604052508101906117a591906151eb565b6001600160a01b03167f0a3550aabeea45f9d515c45ea5dadcd6efbe5a3c73ab07644f630de564c6515a308b8b60606028886040516024016117ec96959493929190615208565b60408051601f198184030181529181526020820180516001600160e01b03166001600160e01b031990941693909317909252905161182a919061526b565b600060405180830381855afa9150503d8060008114611865576040519150601f19603f3d011682016040523d82523d6000602084013e61186a565b606091505b5050905061187781610693565b50505094509492505050565b61188b612dd0565b6106916000805461ff001916610100179055565b60006106da63ffffffff831664e8d4a51000615127565b606060006118de60405180606001604052806000815260200160008152602001600081525090565b835160208111156119315760405162461bcd60e51b815260206004820152601d60248201527f64656c6976657279206172726179206d61782073697a652069732033320000006044820152606401610688565b611939614730565b8651815260208088015190820152604087015161195757600061195a565b60015b60ff1660408201526060870151611972576000611975565b60015b60ff1660608201526080878101519082015260a0808801519082015260c0808801519082015260e08088015190820152600860005b83811015611a23578781815181106119c4576119c46150d4565b6020026020010151600014611a11578781815181106119e5576119e56150d4565b60200260200101518383806119f9906150ea565b945060288110611a0b57611a0b6150d4565b60200201525b80611a1b816150ea565b9150506119aa565b505060405163023aa9ab60e61b81527f2e7a327ef83c2af7579c6634f2f5604519800c5f07626f27bd602fd11ed8e6ec60048201526000907f00000000000000000000000000000000000000000000000000000000000000006001600160a01b031690638eaa6ac090602401602060405180830381865afa158015611aac573d6000803e3d6000fd5b505050506040513d601f19601f82011682018060405250810190611ad091906151eb565b6001600160a01b03167fbd0ade2bcae368fca26bb02146561a2830136bf30c4a34c648255fccebbe2254308c8c6060602888604051602401611b1796959493929190615208565b60408051601f198184030181529181526020820180516001600160e01b03166001600160e01b0319909416939093179092529051611b55919061526b565b600060405180830381855afa9150503d8060008114611b90576040519150601f19603f3d011682016040523d82523d6000602084013e611b95565b606091505b50509050611ba281610693565b5050509450945094915050565b611bb7612dd0565b6001600160a01b038116611c1c5760405162461bcd60e51b815260206004820152602660248201527f4f776e61626c653a206e6577206f776e657220697320746865207a65726f206160448201526564647265737360d01b6064820152608401610688565b611c2581612e31565b50565b60006106da64174876e80083615105565b611c4161461e565b81611c4a61461e565b6000611c5a888860000151613472565b805190915060005b81811015611e0857611c7261474f565b611cfe848381518110611c8757611c876150d4565b60200260200101516002868581518110611ca357611ca36150d4565b602002602001015151611cb691906150a5565b81518110611cc657611cc66150d4565b60200260200101518b60405180608001604052806000815260200160008152602001600081526020018d606001518152506000612e8c565b60408401526020830181905215159050611d185750611df6565b838281518110611d2a57611d2a6150d4565b6020908102919091010151815273__MarketLib_____________________________637513ce1b86836000604051908082528060200260200182016040528015611d8e57816020015b611d7b614668565b815260200190600190039081611d735790505b506040518463ffffffff1660e01b8152600401611dad93929190615465565b600060405180830381865af4158015611dca573d6000803e3d6000fd5b505050506040513d6000823e601f3d908101601f19168201604052611df29190810190615692565b9450505b80611e00816150ea565b915050611c62565b50505060408101515180611e1d575050610b19565b611e256147a7565b87518152602080890151818301526040808a0151818401526060808b01511515818501526080808c015115158186015260a0808d01519086015260c0808d0151908601528251908101835260008082528185018181528285018281528385018581528e518552968e0151909152938c0151909352908a0151909252836001600160401b03811115611eb857611eb8614854565b604051908082528060200260200182016040528015611ef157816020015b611ede61461e565b815260200190600190039081611ed65790505b50905060005b89518352600160a085015260005b85811015611ff657611f3a87604001518281518110611f2657611f266150d4565b60200260200101516000015186868b613866565b838281518110611f4c57611f4c6150d4565b60200260200101819052506001838281518110611f6b57611f6b6150d4565b602002602001015160400151511115611fe45760405162461bcd60e51b815260206004820152603560248201527f504152414e4f4941205f5f73656172636843466f6c6c6f77506174682073686f604482015274756c642072657475726e206d61782031206465736360581b6064820152608401610688565b80611fee816150ea565b915050611f05565b50600019600080805b8881101561215757858181518110612019576120196150d4565b6020026020010151600001516000141561203257612145565b600019841480612062575085818151811061204f5761204f6150d4565b6020026020010151602001516000015183115b156120f75760001984141580156120995750858181518110612086576120866150d4565b6020026020010151602001516040015183105b156120a6578291506120cb565b8581815181106120b8576120b86150d4565b6020026020010151602001516040015191505b8093508581815181106120e0576120e06150d4565b602002602001015160200151600001519250612145565b858181518110612109576121096150d4565b6020026020010151602001516000015182111561214557858181518110612132576121326150d4565b6020026020010151602001516000015191505b8061214f816150ea565b915050611fff565b5060001983141561216a57505050612658565b85525061217561461e565b6121a28860400151838151811061218e5761218e6150d4565b60200260200101516000015187878c613866565b90508060400151516001146122135760405162461bcd60e51b815260206004820152603160248201527f504152414e4f4941205f5f73656172636843466f6c6c6f77506174682073686f604482015270756c642072657475726e2031206465736360781b6064820152608401610688565b80516122595760405162461bcd60e51b81526020600482015260156024820152746966202873656c65637465642e717479203d3d302960581b6044820152606401610688565b604051639fab220f60e01b815273__MarketLib_____________________________90639fab220f90612292908d9085906004016157ac565b600060405180830381865af41580156122af573d6000803e3d6000fd5b505050506040513d6000823e601f3d908101601f191682016040526122d79190810190615692565b9950806060015151836122ea91906150bc565b92508060400151600081518110612303576123036150d4565b602002602001015160a001515160001461239057806040015160008151811061232e5761232e6150d4565b602002602001015160a0015160018260400151600081518110612353576123536150d4565b602002602001015160a001515161236a91906150a5565b8151811061237a5761237a6150d4565b60200260200101518361238d91906150a5565b92505b8873__MarketLib_____________________________637071133e909183604001516000815181106123c4576123c46150d4565b602002602001015184606001516040518463ffffffff1660e01b81526004016123ef939291906157d1565b600060405180830381865af415801561240c573d6000803e3d6000fd5b505050506040513d6000823e601f3d908101601f1916820160405261243491908101906157e4565b6060808701519083015160405163bf07928f60e01b8152929b5073__MarketLib_____________________________9263bf07928f92612478929091600401615899565b600060405180830381865af4158015612495573d6000803e3d6000fd5b505050506040513d6000823e601f3d908101601f191682016040526124bd91908101906158be565b60608601528b51855260a08d015115612539578c60a0015183106125235760405162461bcd60e51b815260206004820152601f60248201527f696620286d6178636f756e743e3d7461726765745f2e6d6178636f756e7429006044820152606401610688565b828d60a0015161253391906150a5565b60a08701525b60408d0151156125ae5760408d01518151106125975760405162461bcd60e51b815260206004820152601e60248201527f6966202873656c65637465642e7174793e3d7461726765745f2e7174792900006044820152606401610688565b805160408e01516125a891906150a5565b60408701525b60408c015115612651576000670de0b6b3a76400008b60200151602001518c600001516125db9190615127565b6125e59190615105565b90508c60400151811061263a5760405162461bcd60e51b815260206004820152601f60248201527f69662028746f74616c3e3d7365617263686172675f2e6d6178746f74616c29006044820152606401610688565b808d6040015161264a91906150a5565b6040870152505b5050611ef7565b50505050505094509492505050565b61266f6146a1565b60008381526005602081815260408084208151610180810183528154815260018201546001600160a01b0381169482019490945293909291840191600160a01b900460ff16908111156126c4576126c4614e17565b60058111156126d5576126d5614e17565b81526001820154600160a81b900460ff166020820152600282015460408083019190915260038301546001600160401b0380821660608501526801000000000000000080830482166080860152600160801b808404831660a0870152600160c01b909304821660c086015260049586015480831660e087015290810482166101008601529190910416610120909201919091528251905163657c7e0960e01b8152918201529091507f00000000000000000000000000000000000000000000000000000000000000006001600160a01b03169063657c7e09906024016040805180830381865afa1580156127cd573d6000803e3d6000fd5b505050506040513d601f19601f820116820180604052508101906127f191906158f2565b6040840152602083015260808101516060830152828061288a575060608101516040516336181b6760e11b815260ff909116600482015273__Order_________________________________90636c3036ce90602401602060405180830381865af4158015612864573d6000803e3d6000fd5b505050506040513d601f19601f820116820180604052508101906128889190615059565b155b15612d0d5760208101516001600160a01b0316825260a08101516128ad9061119d565b60808301526060810151604051632b2076e360e11b815260ff909116600482015273__Order_________________________________90635640edc690602401602060405180830381865af415801561290a573d6000803e3d6000fd5b505050506040513d601f19601f8201168201806040525081019061292e9190615059565b1561294257608082015160a0830152612a8e565b6101208101516001600160401b03161561296e5761296481610120015161119d565b60a0830152612a8e565b60405163023aa9ab60e61b81527fcd775f2396f9f13f12bcf8ca32e21df66559a8adc3944d0591127e7731f7ab8560048201527f00000000000000000000000000000000000000000000000000000000000000006001600160a01b031690638eaa6ac090602401602060405180830381865afa1580156129f2573d6000803e3d6000fd5b505050506040513d601f19601f82011682018060405250810190612a1691906151eb565b6001600160a01b031663a9bf985883602001516040518263ffffffff1660e01b8152600401612a4791815260200190565b602060405180830381865afa158015612a64573d6000803e3d6000fd5b505050506040513d601f19601f82011682018060405250810190612a889190615076565b60a08301525b612a9b8160c0015161119d565b60c083015260e0810151612aae9061119d565b60e08301526060810151604051635b7d0f6960e11b815260ff909116600482015273__Order_________________________________9063b6fa1ed290602401602060405180830381865af4158015612b0b573d6000803e3d6000fd5b505050506040513d601f19601f82011682018060405250810190612b2f9190615059565b15612cf857612b4281610140015161119d565b610120830152610160810151612b579061119d565b61014083015260405163023aa9ab60e61b81527f3cb99135f7a7c088d9085b446345038a22a85f4e8fe072b0e1b66d97243e745860048201526000907f00000000000000000000000000000000000000000000000000000000000000006001600160a01b031690638eaa6ac090602401602060405180830381865afa158015612be4573d6000803e3d6000fd5b505050506040513d601f19601f82011682018060405250810190612c0891906151eb565b6001600160a01b0316636464b68a846020015185604001516040518363ffffffff1660e01b8152600401612c46929190918252602082015260400190565b606060405180830381865afa158015612c63573d6000803e3d6000fd5b505050506040513d601f19601f82011682018060405250810190612c879190615916565b5091505080612ccc5760405162461bcd60e51b8152602060048201526011602482015270145d5bdd194e88139bdd081c5d5bdd1959607a1b6044820152606401610688565b610140830151612cdc9082615105565b836101200151612cec9190615127565b61010084015250612d0d565b612d0681610100015161119d565b6101008301525b604051630212d6cb60e21b815273__Order_________________________________9063084b5b2c90612d44908490600401615944565b602060405180830381865af4158015612d61573d6000803e3d6000fd5b505050506040513d601f19601f82011682018060405250810190612d859190615076565b61016083015260408101516101808301906005811115612da757612da7614e17565b90816005811115612dba57612dba614e17565b9052506060015160ff166101a082015292915050565b6000546001600160a01b03620100009091041633146106915760405162461bcd60e51b815260206004820152601f60248201527f416c6c6f77616e63653a2063616c6c6572206d757374206265204f776e6572006044820152606401610688565b600080546001600160a01b038381166201000081810262010000600160b01b0319851617855560405193049190911692909183917f8be0079c531659141344cd1fd0a4f28419497f9722a3daafe3b4186f6b6457e091a35050565b60606000612eb460405180606001604052806000815260200160008152602001600081525090565b612eca8787600001518860c00151600080614165565b80519093506000816001600160401b03811115612ee957612ee9614854565b604051908082528060200260200182016040528015612f2257816020015b612f0f614668565b815260200190600190039081612f075790505b5090506000805b83811015613274578960000151878281518110612f4857612f486150d4565b60200260200101516020015114612fb35760405162461bcd60e51b815260206004820152602960248201527f5f5f736561726368206f75745f5b695d2e61646472203d3d207461726765745f6044820152682e63757272656e637960b81b6064820152608401610688565b885115801590612fe357508860000151878281518110612fd557612fd56150d4565b602002602001015160800151115b15612fed57613262565b8960200151878281518110613004576130046150d4565b602002602001015160600151101561301b57613262565b886060015173__MarketLib_____________________________635640453d909189848151811061304e5761304e6150d4565b6020026020010151600001516040518363ffffffff1660e01b8152600401613077929190615a33565b602060405180830381865af4158015613094573d6000803e3d6000fd5b505050506040513d601f19601f820116820180604052508101906130b89190615076565b8782815181106130ca576130ca6150d4565b60200260200101516040015110156130e157613262565b8681815181106130f3576130f36150d4565b602002602001015160600151896060015173__MarketLib_____________________________635640453d90918a8581518110613132576131326150d4565b6020026020010151600001516040518363ffffffff1660e01b815260040161315b929190615a33565b602060405180830381865af4158015613178573d6000803e3d6000fd5b505050506040513d601f19601f8201168201806040525081019061319c9190615076565b8883815181106131ae576131ae6150d4565b6020026020010151604001516131c491906150a5565b10156131cf57613262565b8960a0015160011480156131e65750602089015115155b801561321257508860200151878281518110613204576132046150d4565b602002602001015160800151115b1561321c57613262565b86818151811061322e5761322e6150d4565b6020026020010151838381518110613248576132486150d4565b6020026020010181905250818061325e906150ea565b9250505b8061326c816150ea565b915050612f29565b508152935073__MarketSearchLib_______________________905063b51b8e828460008989826040519080825280602002602001820160405280156132d457816020015b6132c1614668565b8152602001906001900390816132b95790505b506040518663ffffffff1660e01b81526004016132f5959493929190615a88565b600060405180830381865af4158015613312573d6000803e3d6000fd5b505050506040513d6000823e601f3d908101601f1916820160405261333a9190810190615b31565b919450925090508361159e57604051637bf5cddb60e11b815273__MarketLib_____________________________9063f7eb9bb69061337d908690600401615b88565b600060405180830381865af415801561339a573d6000803e3d6000fd5b505050506040513d6000823e601f3d908101601f191682016040526133c291908101906158be565b92508560a001516000141580156133dd57508560a001518351115b1561159e5760a086015180845260405163742228d760e01b815273__MarketLib_____________________________9063742228d790613421908790600401615b88565b608060405180830381865af415801561343e573d6000803e3d6000fd5b505050506040513d601f19601f820116820180604052508101906134629190615b9b565b9093509150509450945094915050565b60008281526001602090815260408083208054825181850281018501909352808352606094938301828280156134c757602002820191906000526020600020905b8154815260200190600101908083116134b3575b50505050509050600081511161351f5760405162461bcd60e51b815260206004820152601b60248201527f5f706174684c6973742066726f6d706174682e6c656e6774683e3000000000006044820152606401610688565b80516001600160401b0381111561353857613538614854565b60405190808252806020026020018201604052801561356b57816020015b60608152602001906001900390816135565790505b5091506000805b8251811015613816577f00000000000000000000000000000000000000000000000000000000000000006001600160a01b03166338a699a48483815181106135bc576135bc6150d4565b60200260200101516040518263ffffffff1660e01b81526004016135e291815260200190565b602060405180830381865afa1580156135ff573d6000803e3d6000fd5b505050506040513d601f19601f820116820180604052508101906136239190615059565b61362c57613804565b60007f00000000000000000000000000000000000000000000000000000000000000006001600160a01b03166327ee9dc285848151811061366f5761366f6150d4565b60200260200101516040518263ffffffff1660e01b815260040161369591815260200190565b600060405180830381865afa1580156136b2573d6000803e3d6000fd5b505050506040513d6000823e601f3d908101601f191682016040526136da91908101906151b7565b905060008151116137275760405162461bcd60e51b815260206004820152601760248201527605f706174684c69737420706174682e6c656e6774683e3604c1b6044820152606401610688565b85816001835161373791906150a5565b81518110613747576137476150d4565b60200260200101511461375a5750613804565b60005b6001825161376b91906150a5565b8110156137bc576137a173__BytesAndKeccakLib_____________________6376254ff9848481518110610fc957610fc96150d4565b6137aa576137bc565b806137b4816150ea565b91505061375d565b600182516137ca91906150a5565b8110156137d8575050613804565b8186856137e4816150ea565b9650815181106137f6576137f66150d4565b602002602001018190525050505b8061380e816150ea565b915050613572565b508083526000811161385e5760405162461bcd60e51b815260206004820152601160248201527005f706174684c69737420636f756e743e3607c1b6044820152606401610688565b505092915050565b61386e61461e565b6002855110156138cc5760405162461bcd60e51b815260206004820152602360248201527f5f5f73656172636843466f6c6c6f775061746820706174685f2e6c656e6774686044820152621f1e9960e91b6064820152608401610688565b8351855186906138de906001906150a5565b815181106138ee576138ee6150d4565b6020026020010151146139695760405162461bcd60e51b815260206004820152603d60248201527f5f5f73656172636843466f6c6c6f775061746820706174685f5b706174685f2e60448201527f6c656e677468202d20315d3d3d7461726765745f2e63757272656e63790000006064820152608401610688565b606061397361474f565b865160021415613a79576139b0876002895161398f91906150a5565b8151811061399f5761399f6150d4565b602002602001015187876000612e8c565b6040840152602083015280516080830152875190925073__MarketLib_____________________________90632fbf1f939083908a906139f2906002906150a5565b81518110613a0257613a026150d4565b602002602001015189600001516040518463ffffffff1660e01b8152600401613a2d93929190615bc8565b600060405180830381865af4158015613a4a573d6000803e3d6000fd5b505050506040513d6000823e601f3d908101601f19168201604052613a729190810190615bed565b90506140d8565b604085015160015b60018951613a8f91906150a5565b811015613c4c576000613b848a613aa76001856150a5565b81518110613ab757613ab76150d4565b60200260200101516040518060e001604052808d8681518110613adc57613adc6150d4565b6020026020010151815260200160008152602001600081526020016000151581526020016000151581526020016000815260200160006001600160401b03811115613b2957613b29614854565b604051908082528060200260200182016040528015613b52578160200160208202803683370190505b50815250604051806080016040528060008152602001600081526020018781526020018c606001518152506001612e8c565b5091505080613b9757505050505061415d565b8673__MarketLib_____________________________63e23edbef90918c8581518110613bc657613bc66150d4565b60200260200101516040518363ffffffff1660e01b8152600401613beb929190615c21565b602060405180830381865af4158015613c08573d6000803e3d6000fd5b505050506040513d601f19601f82011682018060405250810190613c2c9190615076565b613c3690826150bc565b9250508080613c44906150ea565b915050613a81565b50613ca68860028a51613c5f91906150a5565b81518110613c6f57613c6f6150d4565b602002602001015188604051806080016040528060008152602001600081526020018581526020018a606001518152506000612e8c565b604085015260208401819052909350613cc15750505061415d565b82516080830152875173__MarketLib_____________________________90632fbf1f939084908b90613cf6906002906150a5565b81518110613d0657613d066150d4565b60200260200101518a600001516040518463ffffffff1660e01b8152600401613d3193929190615bc8565b600060405180830381865af4158015613d4e573d6000803e3d6000fd5b505050506040513d6000823e601f3d908101601f19168201604052613d769190810190615bed565b9150670de0b6b3a76400008260400151602001518360200151613d999190615127565b613da39190615105565b9050600060028951613db591906150a5565b90505b80156140d5576060613dc861474f565b613dd06147a7565b613dfb6040518060800160405280600081526020016000815260200160008152602001606081525090565b8c8581518110613e0d57613e0d6150d4565b60200260200101518260000181815250508973__MarketLib_____________________________63e23edbef90918f8881518110613e4d57613e4d6150d4565b60200260200101516040518363ffffffff1660e01b8152600401613e72929190615c21565b602060405180830381865af4158015613e8f573d6000803e3d6000fd5b505050506040513d601f19601f82011682018060405250810190613eb39190615076565b613ebd90876150a5565b6040830152600160608084018290528c81015190830152613f05908e90613ee490886150a5565b81518110613ef457613ef46150d4565b602002602001015183836000612e8c565b60408601526020850181905290945015159150613f2990505750505050505061415d565b670de0b6b3a76400008160400151602001518260200151613f4a9190615127565b613f549190615105565b935073__MarketLib_____________________________6350308ede86888e613f7e6001896150a5565b81518110613f8e57613f8e6150d4565b6020026020010151866040518563ffffffff1660e01b8152600401613fb69493929190615c34565b600060405180830381865af4158015613fd3573d6000803e3d6000fd5b505050506040513d6000823e601f3d908101601f19168201604052613ffb9190810190615c73565b604080840151519083015151919850919650670de0b6b3a76400009161402091615127565b61402a9190615105565b60408087018051929092528281015181015191510151670de0b6b3a76400009161405391615127565b61405d9190615105565b85604001516040018181525050670de0b6b3a7640000856020015182604001516020015183602001516140909190615127565b61409a9190615105565b8660400151602001516140ad9190615127565b6140b79190615105565b604086015160200152508190506140cd81615cd6565b915050613db8565b50505b604051637513ce1b60e01b815273__MarketLib_____________________________90637513ce1b9061411390869085908790600401615465565b600060405180830381865af4158015614130573d6000803e3d6000fd5b505050506040513d6000823e601f3d908101601f191682016040526141589190810190615692565b925050505b949350505050565b606060008060006006600073__BytesAndKeccakLib_____________________6376254ff98c8c6040518363ffffffff1660e01b81526004016141b2929190918252602082015260400190565b602060405180830381865af41580156141cf573d6000803e3d6000fd5b505050506040513d601f19601f820116820180604052508101906141f39190615076565b81526020810191909152604001600020805490915085614211578095505b856001600160401b0381111561422957614229614854565b60405190808252806020026020018201604052801561426257816020015b61424f614668565b8152602001906001900390816142475790505b50945060005b8181101561460f5786841061427c5761460f565b600060056000858481548110614294576142946150d4565b90600052602060002001548152602001908152602001600020905073__Order_________________________________63084b5b2c826040518263ffffffff1660e01b81526004016142e69190615dc8565b602060405180830381865af4158015614303573d6000803e3d6000fd5b505050506040513d601f19601f820116820180604052508101906143279190615076565b15806143ab5750604051630212d6cb60e21b8152429073__Order_________________________________9063084b5b2c90614367908590600401615dc8565b602060405180830381865af4158015614384573d6000803e3d6000fd5b505050506040513d601f19601f820116820180604052508101906143a89190615076565b10155b80156144c8575060405163023aa9ab60e61b81527f33ffbdff3a4282df4353f3593b78d26aaf4c28b5786164f828858505bc5e301c60048201527f00000000000000000000000000000000000000000000000000000000000000006001600160a01b031690638eaa6ac090602401602060405180830381865afa158015614436573d6000803e3d6000fd5b505050506040513d601f19601f8201168201806040525081019061445a91906151eb565b6001600160a01b0316635aca1641828c6040518363ffffffff1660e01b8152600401614487929190615dd7565b602060405180830381865afa1580156144a4573d6000803e3d6000fd5b505050506040513d601f19601f820116820180604052508101906144c89190615059565b156145fb57856144d7816150ea565b9650508886116144e757506145fd565b60006145108584815481106144fe576144fe6150d4565b90600052602060002001546001612667565b90508060a00151816080015110156145295750506145fd565b8060600151888781518110614540576145406150d4565b602002602001015160000181815250508060400151888781518110614567576145676150d4565b602002602001015160200181815250508060a0015188878151811061458e5761458e6150d4565b6020026020010151606001818152505080608001518887815181106145b5576145b56150d4565b602002602001015160400181815250508061010001518887815181106145dd576145dd6150d4565b602090810291909101015160800152856145f6816150ea565b965050505b505b80614607816150ea565b915050614268565b50505082525095945050505050565b60405180608001604052806000815260200161465460405180606001604052806000815260200160008152602001600081525090565b815260200160608152602001606081525090565b6040518060c001604052806000815260200160008019168152602001600081526020016000815260200160008152602001606081525090565b604051806101c0016040528060006001600160a01b0316815260200160008019168152602001600080191681526020016000815260200160008152602001600081526020016000815260200160008152602001600081526020016000815260200160008152602001600081526020016000600581111561472357614723614e17565b8152600060209091015290565b6040518061050001604052806028906020820280368337509192915050565b6040518060c00160405280606081526020016000815260200161478c60405180606001604052806000815260200160008152602001600081525090565b81526020016000815260200160008152602001606081525090565b6040518060e0016040528060008019168152602001600081526020016000815260200160001515815260200160001515815260200160008152602001606081525090565b600080858511156147fb57600080fd5b8386111561480857600080fd5b5050820193919092039150565b60006020828403121561482757600080fd5b81356001600160e01b031981168114610bac57600080fd5b6001600160a01b0381168114611c2557600080fd5b634e487b7160e01b600052604160045260246000fd5b60405160c081016001600160401b038111828210171561488c5761488c614854565b60405290565b604051608081016001600160401b038111828210171561488c5761488c614854565b604080519081016001600160401b038111828210171561488c5761488c614854565b604051601f8201601f191681016001600160401b03811182821017156148fe576148fe614854565b604052919050565b8015158114611c2557600080fd5b803561491f81614906565b919050565b600061010080838503121561493857600080fd5b604051908101906001600160401b038211818310171561495a5761495a614854565b6040918252833581526020808501359082015291508201358161497c82614906565b81604082015261498e60608501614914565b60608201526080840135608082015260a084013560a082015260c084013560c082015260e084013560e0820152505092915050565b60006001600160401b038211156149dc576149dc614854565b5060051b60200190565b600082601f8301126149f757600080fd5b81356020614a0c614a07836149c3565b6148d6565b82815260059290921b84018101918181019086841115614a2b57600080fd5b8286015b84811015614a465780358352918301918301614a2f565b509695505050505050565b6000806000806000806101a08789031215614a6b57600080fd5b8635614a768161483f565b9550602087013594506040870135614a8d8161483f565b935060608701359250614aa38860808901614924565b91506101808701356001600160401b03811115614abf57600080fd5b614acb89828a016149e6565b9150509295509295509295565b600081518084526020808501945080840160005b83811015614b0857815187529582019590820190600101614aec565b509495945050505050565b600081518084526020808501808196508360051b8101915082860160005b85811015614b99578284038952815180518552858101518686015260408082015190860152606080820151908601526080808201519086015260a09081015160c091860182905290614b8581870183614ad8565b9a87019a9550505090840190600101614b31565b5091979650505050505050565b60a081526000614bb960a0830186614b13565b905083602083015261415d60408301848051825260208082015190830152604090810151910152565b60008060008060608587031215614bf857600080fd5b843593506020850135925060408501356001600160401b0380821115614c1d57600080fd5b818701915087601f830112614c3157600080fd5b813581811115614c4057600080fd5b8860208260051b8501011115614c5557600080fd5b95989497505060200194505050565b600081518084526020808501945080840160005b83811015614b08578151805188528301518388015260409096019590820190600101614c78565b600060408083526101008084018651838601526020808801516060614cda818901838051825260208082015190830152604090810151910152565b858a015160c0898101819052815195869052610120600587901b8b0181019692860194509091908a019060005b81811015614d9c578b880361011f19018352855180518a8a52614d2c8b8b0182614ad8565b905088820151898b01528b820151614d5a8d8c01828051825260208082015190830152604090810151910152565b508187015160a08b8101919091526080830151878c01529091015189820360e08b015290614d888183614ad8565b995050509486019491860191600101614d07565b50505050890151878403603f190160e08901529450614dbd90508285614b13565b935085840381870152505050614dd38185614c64565b95945050505050565b60008060408385031215614def57600080fd5b50508035926020909101359150565b600060208284031215614e1057600080fd5b5035919050565b634e487b7160e01b600052602160045260246000fd5b60068110614e4b57634e487b7160e01b600052602160045260246000fd5b9052565b81516001600160a01b031681526101c081016020830151602083015260408301516040830152606083015160608301526080830151608083015260a083015160a083015260c083015160c083015260e083015160e083015261010080840151818401525061012080840151818401525061014080840151818401525061016080840151818401525061018080840151614eea82850182614e2d565b50506101a08381015160ff81168483015261385e565b6000602080830181845280855180835260408601915060408160051b870101925083870160005b82811015614f5557603f19888603018452614f43858351614ad8565b94509285019290850190600101614f27565b5092979650505050505050565b600060208284031215614f7457600080fd5b813565ffffffffffff81168114610bac57600080fd5b600060208284031215614f9c57600080fd5b81356001600160401b0381168114610bac57600080fd5b6000806000806101608587031215614fca57600080fd5b8435935060208501359250614fe28660408701614924565b91506101408501356001600160401b03811115614ffe57600080fd5b61500a878288016149e6565b91505092959194509250565b60006020828403121561502857600080fd5b813563ffffffff81168114610bac57600080fd5b60006020828403121561504e57600080fd5b8135610bac8161483f565b60006020828403121561506b57600080fd5b8151610bac81614906565b60006020828403121561508857600080fd5b5051919050565b634e487b7160e01b600052601160045260246000fd5b6000828210156150b7576150b761508f565b500390565b600082198211156150cf576150cf61508f565b500190565b634e487b7160e01b600052603260045260246000fd5b60006000198214156150fe576150fe61508f565b5060010190565b60008261512257634e487b7160e01b600052601260045260246000fd5b500490565b60008160001904831182151516156151415761514161508f565b500290565b634e487b7160e01b600052600160045260246000fd5b600082601f83011261516d57600080fd5b8151602061517d614a07836149c3565b82815260059290921b8401810191818101908684111561519c57600080fd5b8286015b84811015614a4657805183529183019183016151a0565b6000602082840312156151c957600080fd5b81516001600160401b038111156151df57600080fd5b61415d8482850161515c565b6000602082840312156151fd57600080fd5b8151610bac8161483f565b6001600160a01b038716815260208082018790526040820186905260608201859052608082018490526105a082019060a083018460005b602881101561525c5781518352918301919083019060010161523f565b50505050979650505050505050565b6000825160005b8181101561528c5760208186018101518583015201615272565b8181111561529b576000828501525b509190910192915050565b80516101008084528151908401819052600091610120850191602091820190845b818110156152e3578251855293830193918301916001016152c7565b50505083810151908501526040808401518051828701526020810151606087015290810151608086015250606083015160a0850152608083015160c085015260a083015184820360e0860152614dd38282614ad8565b600081518084526020808501808196508360051b8101915082860160005b85811015614b99578284038952815180518552858101518686015260408082015190860152606080820151908601526080808201519086015260a09081015160c0918601829052906153ab81870183614ad8565b9a87019a9550505090840190600101615357565b600060c08301825184526020808401516153ef828701828051825260208082015190830152604090810151910152565b50604084015160c0608087015282815180855260e08801915060e08160051b8901019450838301925060005b818110156154495760df198987030183526154378685516152a6565b9550928401929184019160010161541b565b5050505050606083015184820360a0860152614dd38282615339565b60608152600061547860608301866153bf565b828103602084015261548a81866152a6565b9050828103604084015261549e8185615339565b9695505050505050565b6000606082840312156154ba57600080fd5b604051606081018181106001600160401b03821117156154dc576154dc614854565b80604052508091508251815260208301516020820152604083015160408201525092915050565b6000610100828403121561551657600080fd5b61551e61486a565b905081516001600160401b038082111561553757600080fd5b6155438583860161515c565b83526020840151602084015261555c85604086016154a8565b604084015260a0840151606084015260c0840151608084015260e084015191508082111561558957600080fd5b506155968482850161515c565b60a08301525092915050565b600082601f8301126155b357600080fd5b815160206155c3614a07836149c3565b82815260059290921b840181019181810190868411156155e257600080fd5b8286015b84811015614a465780516001600160401b03808211156156065760008081fd5b9088019060c0828b03601f19018113156156205760008081fd5b61562861486a565b87840151815260408085015189830152606080860151828401526080915081860151818401525060a080860151828401528386015193508484111561566f57600091508182fd5b61567d8e8b8689010161515c565b908301525086525050509183019183016155e6565b600060208083850312156156a557600080fd5b82516001600160401b03808211156156bc57600080fd5b9084019060c082870312156156d057600080fd5b6156d8614892565b825181526156e8878585016154a8565b848201526080830151828111156156fe57600080fd5b8301601f8101881361570f57600080fd5b805161571d614a07826149c3565b81815260059190911b8201860190868101908a83111561573c57600080fd5b8784015b83811015615774578051878111156157585760008081fd5b6157668d8b83890101615503565b845250918801918801615740565b50604085015250505060a083015193508184111561579157600080fd5b61579d878585016155a2565b60608201529695505050505050565b6040815260006157bf60408301856153bf565b8281036020840152614dd381856153bf565b6060815260006154786060830186614c64565b600060208083850312156157f757600080fd5b82516001600160401b0381111561580d57600080fd5b8301601f8101851361581e57600080fd5b805161582c614a07826149c3565b81815260069190911b8201830190838101908783111561584b57600080fd5b928401925b8284101561588e57604084890312156158695760008081fd5b6158716148b4565b845181528585015186820152825260409093019290840190615850565b979650505050505050565b6040815260006158ac6040830185615339565b8281036020840152614dd38185615339565b6000602082840312156158d057600080fd5b81516001600160401b038111156158e657600080fd5b61415d848285016155a2565b6000806040838503121561590557600080fd5b505080516020909101519092909150565b60008060006060848603121561592b57600080fd5b8351925060208401519150604084015190509250925092565b81518152602080830151610180830191615968908401826001600160a01b03169052565b50604083015161597b6040840182614e2d565b506060830151615990606084018260ff169052565b506080830151608083015260a08301516159b560a08401826001600160401b03169052565b5060c08301516159d060c08401826001600160401b03169052565b5060e08301516159eb60e08401826001600160401b03169052565b50610100838101516001600160401b0390811691840191909152610120808501518216908401526101408085015182169084015261016080850151918216818501529061385e565b604081526000615a466040830185615339565b90508260208301529392505050565b805182526020810151602083015260408101516040830152600060608201516080606085015261415d6080850182615339565b60a081526000615a9b60a0830188615339565b866020840152828103604084015285518152602086015160208201526040860151604082015260608601511515606082015260808601511515608082015260a086015160a082015260c086015160e060c0830152615afc60e0830182614ad8565b9150508281036060840152615b118186615a55565b90508281036080840152615b258185615339565b98975050505050505050565b600080600060a08486031215615b4657600080fd5b83516001600160401b03811115615b5c57600080fd5b615b68868287016155a2565b93505060208401519150615b7f85604086016154a8565b90509250925092565b602081526000610bac6020830184615339565b60008060808385031215615bae57600080fd5b82519150615bbf84602085016154a8565b90509250929050565b606081526000615bdb60608301866152a6565b60208301949094525060400152919050565b600060208284031215615bff57600080fd5b81516001600160401b03811115615c1557600080fd5b61415d84828501615503565b604081526000615a466040830185614c64565b608081526000615c4760808301876152a6565b8281036020840152615c598187615339565b9050846040840152828103606084015261588e8185615339565b60008060408385031215615c8657600080fd5b82516001600160401b0380821115615c9d57600080fd5b615ca986838701615503565b93506020850151915080821115615cbf57600080fd5b50615ccc858286016155a2565b9150509250929050565b600081615ce557615ce561508f565b506000190190565b8054825260018101546001600160a01b0381166020840152615d186040840160ff8360a01c16614e2d565b60a81c60ff1660608301526002810154608083015260038101546001600160401b0380821660a0850152604082901c811660c0850152615d6860e08501828460801c166001600160401b03169052565b60c082901c61010085015260048301546001600160401b03828216166101208601529150615da76101408501828460401c166001600160401b03169052565b615dc26101608501828460801c166001600160401b03169052565b50505050565b61018081016106da8284615ced565b60006101a0808301615de98487615ced565b6101808401919091528351908190526101c083019060209081860160005b82811015614f5557815185529383019390830190600101615e0756fea2646970667358221220320a65d0e2d793a1e6159e748a9aba561dba27d9da6042b2a6d4f4bdd3d90f8764736f6c634300080b0033","bytecodeSha1":"7b83eca8128a8cb4d8563fd185f907a4a0bbf797","type":"contract","abi":[{"inputs":[{"internalType":"contract Repository","name":"rep_","type":"address"}],"stateMutability":"nonpayable","type":"constructor","name":"constructor"},{"anonymous":false,"inputs":[{"indexed":true,"internalType":"address","name":"previousOwner","type":"address"},{"indexed":true,"internalType":"address","name":"newOwner","type":"address"}],"name":"OwnershipTransferred","type":"event"},{"stateMutability":"nonpayable","type":"fallback"},{"inputs":[],"name":"STOP","outputs":[{"internalType":"bool","name":"","type":"bool"}],"stateMutability":"view","type":"function"},{"inputs":[],"name":"STOPFOREVER","outputs":[{"internalType":"bool","name":"","type":"bool"}],"stateMutability":"view","type":"function"},{"inputs":[{"internalType":"uint256","name":"val_","type":"uint256"}],"name":"UInt256ToUInt32","outputs":[{"internalType":"uint32","name":"","type":"uint32"}],"stateMutability":"pure","type":"function"},{"inputs":[{"internalType":"uint256","name":"val_","type":"uint256"}],"name":"UInt256ToUInt48","outputs":[{"internalType":"uint48","name":"","type":"uint48"}],"stateMutability":"pure","type":"function"},{"inputs":[{"internalType":"uint256","name":"val_","type":"uint256"}],"name":"UInt256ToUInt64","outputs":[{"internalType":"uint64","name":"","type":"uint64"}],"stateMutability":"pure","type":"function"},{"inputs":[{"internalType":"uint32","name":"val_","type":"uint32"}],"name":"UInt32ToUInt256","outputs":[{"internalType":"uint256","name":"","type":"uint256"}],"stateMutability":"pure","type":"function"},{"inputs":[{"internalType":"uint48","name":"val_","type":"uint48"}],"name":"UInt48ToUInt256","outputs":[{"internalType":"uint256","name":"","type":"uint256"}],"stateMutability":"pure","type":"function"},{"inputs":[{"internalType":"uint64","name":"val_","type":"uint64"}],"name":"UInt64ToUInt256","outputs":[{"internalType":"uint256","name":"","type":"uint256"}],"stateMutability":"pure","type":"function"},{"inputs":[{"internalType":"bytes32","name":"_from","type":"bytes32"},{"internalType":"bytes32","name":"fromto_","type":"bytes32"}],"name":"_existPath","outputs":[{"internalType":"bool","name":"","type":"bool"}],"stateMutability":"view","type":"function"},{"inputs":[{"internalType":"bytes32","name":"from_","type":"bytes32"}],"name":"_listPathFrom","outputs":[{"internalType":"bytes32[][]","name":"out_","type":"bytes32[][]"}],"stateMutability":"view","type":"function"},{"inputs":[],"name":"checkOperators","outputs":[],"stateMutability":"view","type":"function"},{"inputs":[{"internalType":"bytes32","name":"from_","type":"bytes32"},{"internalType":"bytes32","name":"to_","type":"bytes32"},{"internalType":"uint256[]","name":"args_","type":"uint256[]"}],"name":"d_search","outputs":[{"components":[{"internalType":"uint256","name":"orderid","type":"uint256"},{"internalType":"bytes32","name":"addr","type":"bytes32"},{"internalType":"uint256","name":"qty","type":"uint256"},{"internalType":"uint256","name":"granularity","type":"uint256"},{"internalType":"uint256","name":"quote","type":"uint256"},{"internalType":"uint256[]","name":"delivery","type":"uint256[]"}],"internalType":"struct Solution[]","name":"out_","type":"tuple[]"},{"internalType":"uint256","name":"qty_","type":"uint256"},{"components":[{"internalType":"uint256","name":"quotemin","type":"uint256"},{"internalType":"uint256","name":"quoteavg","type":"uint256"},{"internalType":"uint256","name":"quotemax","type":"uint256"}],"internalType":"struct Quote","name":"","type":"tuple"}],"stateMutability":"view","type":"function"},{"inputs":[{"internalType":"bytes32","name":"fromcurrency_","type":"bytes32"},{"internalType":"bytes32","name":"tocurrency_","type":"bytes32"},{"internalType":"uint256[]","name":"args_","type":"uint256[]"}],"name":"d_searchC","outputs":[{"components":[{"internalType":"uint256","name":"qty","type":"uint256"},{"components":[{"internalType":"uint256","name":"quotemin","type":"uint256"},{"internalType":"uint256","name":"quoteavg","type":"uint256"},{"internalType":"uint256","name":"quotemax","type":"uint256"}],"internalType":"struct Quote","name":"quote","type":"tuple"},{"components":[{"internalType":"bytes32[]","name":"path","type":"bytes32[]"},{"internalType":"uint256","name":"qty","type":"uint256"},{"components":[{"internalType":"uint256","name":"quotemin","type":"uint256"},{"internalType":"uint256","name":"quoteavg","type":"uint256"},{"internalType":"uint256","name":"quotemax","type":"uint256"}],"internalType":"struct Quote","name":"quote","type":"tuple"},{"internalType":"uint256","name":"start","type":"uint256"},{"internalType":"uint256","name":"count","type":"uint256"},{"internalType":"uint256[]","name":"offset","type":"uint256[]"}],"internalType":"struct SolutionSetDesc[]","name":"descs","type":"tuple[]"},{"components":[{"internalType":"uint256","name":"orderid","type":"uint256"},{"internalType":"bytes32","name":"addr","type":"bytes32"},{"internalType":"uint256","name":"qty","type":"uint256"},{"internalType":"uint256","name":"granularity","type":"uint256"},{"internalType":"uint256","name":"quote","type":"uint256"},{"internalType":"uint256[]","name":"delivery","type":"uint256[]"}],"internalType":"struct Solution[]","name":"solutions","type":"tuple[]"}],"internalType":"struct SolutionSet","name":"out_","type":"tuple"},{"components":[{"internalType":"bytes32","name":"currency","type":"bytes32"},{"internalType":"uint256","name":"qty","type":"uint256"}],"internalType":"struct Remainer[]","name":"remainerout_","type":"tuple[]"}],"stateMutability":"view","type":"function"},{"inputs":[],"name":"id","outputs":[{"internalType":"bytes32","name":"","type":"bytes32"}],"stateMutability":"view","type":"function"},{"inputs":[{"internalType":"uint256","name":"order_","type":"uint256"}],"name":"order","outputs":[{"components":[{"internalType":"address","name":"account","type":"address"},{"internalType":"bytes32","name":"from","type":"bytes32"},{"internalType":"bytes32","name":"to","type":"bytes32"},{"internalType":"uint256","name":"orderid","type":"uint256"},{"internalType":"uint256","name":"qty","type":"uint256"},{"internalType":"uint256","name":"granularity","type":"uint256"},{"internalType":"uint256","name":"qtydone","type":"uint256"},{"internalType":"uint256","name":"originalqty","type":"uint256"},{"internalType":"uint256","name":"quote","type":"uint256"},{"internalType":"uint256","name":"originalquote","type":"uint256"},{"internalType":"uint256","name":"originalbasedquote","type":"uint256"},{"internalType":"uint256","name":"expire","type":"uint256"},{"internalType":"enum Order.State","name":"state","type":"uint8"},{"internalType":"uint8","name":"options","type":"uint8"}],"internalType":"struct Order.InfoPublic","name":"","type":"tuple"}],"stateMutability":"view","type":"function"},{"inputs":[],"name":"owner","outputs":[{"internalType":"address","name":"","type":"address"}],"stateMutability":"view","type":"function"},{"inputs":[],"name":"renounceOwnership","outputs":[],"stateMutability":"nonpayable","type":"function"},{"inputs":[],"name":"rep","outputs":[{"internalType":"contract Repository","name":"","type":"address"}],"stateMutability":"view","type":"function"},{"inputs":[{"internalType":"bytes32","name":"from_","type":"bytes32"},{"internalType":"bytes32","name":"to_","type":"bytes32"},{"components":[{"internalType":"uint256","name":"granularity","type":"uint256"},{"internalType":"uint256","name":"qty","type":"uint256"},{"internalType":"bool","name":"qtyismin","type":"bool"},{"internalType":"bool","name":"qtyismax","type":"bool"},{"internalType":"uint256","name":"maxtotal","type":"uint256"},{"internalType":"uint256","name":"maxquote","type":"uint256"},{"internalType":"uint256","name":"maxavgquote","type":"uint256"},{"internalType":"uint256","name":"maxcount","type":"uint256"}],"internalType":"struct MarketSearch.SearchPublicArgs","name":"args_","type":"tuple"},{"internalType":"uint256[]","name":"delivery_","type":"uint256[]"}],"name":"search","outputs":[{"components":[{"internalType":"uint256","name":"orderid","type":"uint256"},{"internalType":"bytes32","name":"addr","type":"bytes32"},{"internalType":"uint256","name":"qty","type":"uint256"},{"internalType":"uint256","name":"granularity","type":"uint256"},{"internalType":"uint256","name":"quote","type":"uint256"},{"internalType":"uint256[]","name":"delivery","type":"uint256[]"}],"internalType":"struct Solution[]","name":"","type":"tuple[]"},{"internalType":"uint256","name":"","type":"uint256"},{"components":[{"internalType":"uint256","name":"quotemin","type":"uint256"},{"internalType":"uint256","name":"quoteavg","type":"uint256"},{"internalType":"uint256","name":"quotemax","type":"uint256"}],"internalType":"struct Quote","name":"","type":"tuple"}],"stateMutability":"view","type":"function"},{"inputs":[{"internalType":"bytes32","name":"fromcurrency_","type":"bytes32"},{"internalType":"bytes32","name":"tocurrency_","type":"bytes32"},{"components":[{"internalType":"uint256","name":"granularity","type":"uint256"},{"internalType":"uint256","name":"qty","type":"uint256"},{"internalType":"bool","name":"qtyismin","type":"bool"},{"internalType":"bool","name":"qtyismax","type":"bool"},{"internalType":"uint256","name":"maxtotal","type":"uint256"},{"internalType":"uint256","name":"maxquote","type":"uint256"},{"internalType":"uint256","name":"maxavgquote","type":"uint256"},{"internalType":"uint256","name":"maxcount","type":"uint256"}],"internalType":"struct MarketSearch.SearchPublicArgs","name":"args_","type":"tuple"},{"internalType":"uint256[]","name":"delivery_","type":"uint256[]"}],"name":"searchC","outputs":[{"components":[{"internalType":"uint256","name":"qty","type":"uint256"},{"components":[{"internalType":"uint256","name":"quotemin","type":"uint256"},{"internalType":"uint256","name":"quoteavg","type":"uint256"},{"internalType":"uint256","name":"quotemax","type":"uint256"}],"internalType":"struct Quote","name":"quote","type":"tuple"},{"components":[{"internalType":"bytes32[]","name":"path","type":"bytes32[]"},{"internalType":"uint256","name":"qty","type":"uint256"},{"components":[{"internalType":"uint256","name":"quotemin","type":"uint256"},{"internalType":"uint256","name":"quoteavg","type":"uint256"},{"internalType":"uint256","name":"quotemax","type":"uint256"}],"internalType":"struct Quote","name":"quote","type":"tuple"},{"internalType":"uint256","name":"start","type":"uint256"},{"internalType":"uint256","name":"count","type":"uint256"},{"internalType":"uint256[]","name":"offset","type":"uint256[]"}],"internalType":"struct SolutionSetDesc[]","name":"descs","type":"tuple[]"},{"components":[{"internalType":"uint256","name":"orderid","type":"uint256"},{"internalType":"bytes32","name":"addr","type":"bytes32"},{"internalType":"uint256","name":"qty","type":"uint256"},{"internalType":"uint256","name":"granularity","type":"uint256"},{"internalType":"uint256","name":"quote","type":"uint256"},{"internalType":"uint256[]","name":"delivery","type":"uint256[]"}],"internalType":"struct Solution[]","name":"solutions","type":"tuple[]"}],"internalType":"struct SolutionSet","name":"","type":"tuple"},{"components":[{"internalType":"bytes32","name":"currency","type":"bytes32"},{"internalType":"uint256","name":"qty","type":"uint256"}],"internalType":"struct Remainer[]","name":"","type":"tuple[]"}],"stateMutability":"view","type":"function"},{"inputs":[{"internalType":"address","name":"from_","type":"address"},{"internalType":"uint256","name":"fromid_","type":"uint256"},{"internalType":"address","name":"to_","type":"address"},{"internalType":"uint256","name":"toid_","type":"uint256"},{"components":[{"internalType":"uint256","name":"granularity","type":"uint256"},{"internalType":"uint256","name":"qty","type":"uint256"},{"internalType":"bool","name":"qtyismin","type":"bool"},{"internalType":"bool","name":"qtyismax","type":"bool"},{"internalType":"uint256","name":"maxtotal","type":"uint256"},{"internalType":"uint256","name":"maxquote","type":"uint256"},{"internalType":"uint256","name":"maxavgquote","type":"uint256"},{"internalType":"uint256","name":"maxcount","type":"uint256"}],"internalType":"struct MarketSearch.SearchPublicArgs","name":"args_","type":"tuple"},{"internalType":"uint256[]","name":"delivery_","type":"uint256[]"}],"name":"searchCEx","outputs":[{"components":[{"internalType":"uint256","name":"qty","type":"uint256"},{"components":[{"internalType":"uint256","name":"quotemin","type":"uint256"},{"internalType":"uint256","name":"quoteavg","type":"uint256"},{"internalType":"uint256","name":"quotemax","type":"uint256"}],"internalType":"struct Quote","name":"quote","type":"tuple"},{"components":[{"internalType":"bytes32[]","name":"path","type":"bytes32[]"},{"internalType":"uint256","name":"qty","type":"uint256"},{"components":[{"internalType":"uint256","name":"quotemin","type":"uint256"},{"internalType":"uint256","name":"quoteavg","type":"uint256"},{"internalType":"uint256","name":"quotemax","type":"uint256"}],"internalType":"struct Quote","name":"quote","type":"tuple"},{"internalType":"uint256","name":"start","type":"uint256"},{"internalType":"uint256","name":"count","type":"uint256"},{"internalType":"uint256[]","name":"offset","type":"uint256[]"}],"internalType":"struct SolutionSetDesc[]","name":"descs","type":"tuple[]"},{"components":[{"internalType":"uint256","name":"orderid","type":"uint256"},{"internalType":"bytes32","name":"addr","type":"bytes32"},{"internalType":"uint256","name":"qty","type":"uint256"},{"internalType":"uint256","name":"granularity","type":"uint256"},{"internalType":"uint256","name":"quote","type":"uint256"},{"internalType":"uint256[]","name":"delivery","type":"uint256[]"}],"internalType":"struct Solution[]","name":"solutions","type":"tuple[]"}],"internalType":"struct SolutionSet","name":"","type":"tuple"},{"components":[{"internalType":"bytes32","name":"currency","type":"bytes32"},{"internalType":"uint256","name":"qty","type":"uint256"}],"internalType":"struct Remainer[]","name":"","type":"tuple[]"}],"stateMutability":"view","type":"function"},{"inputs":[{"internalType":"address","name":"from_","type":"address"},{"internalType":"uint256","name":"fromid_","type":"uint256"},{"internalType":"address","name":"to_","type":"address"},{"internalType":"uint256","name":"toid_","type":"uint256"},{"components":[{"internalType":"uint256","name":"granularity","type":"uint256"},{"internalType":"uint256","name":"qty","type":"uint256"},{"internalType":"bool","name":"qtyismin","type":"bool"},{"internalType":"bool","name":"qtyismax","type":"bool"},{"internalType":"uint256","name":"maxtotal","type":"uint256"},{"internalType":"uint256","name":"maxquote","type":"uint256"},{"internalType":"uint256","name":"maxavgquote","type":"uint256"},{"internalType":"uint256","name":"maxcount","type":"uint256"}],"internalType":"struct MarketSearch.SearchPublicArgs","name":"args_","type":"tuple"},{"internalType":"uint256[]","name":"delivery_","type":"uint256[]"}],"name":"searchEx","outputs":[{"components":[{"internalType":"uint256","name":"orderid","type":"uint256"},{"internalType":"bytes32","name":"addr","type":"bytes32"},{"internalType":"uint256","name":"qty","type":"uint256"},{"internalType":"uint256","name":"granularity","type":"uint256"},{"internalType":"uint256","name":"quote","type":"uint256"},{"internalType":"uint256[]","name":"delivery","type":"uint256[]"}],"internalType":"struct Solution[]","name":"","type":"tuple[]"},{"internalType":"uint256","name":"","type":"uint256"},{"components":[{"internalType":"uint256","name":"quotemin","type":"uint256"},{"internalType":"uint256","name":"quoteavg","type":"uint256"},{"internalType":"uint256","name":"quotemax","type":"uint256"}],"internalType":"struct Quote","name":"","type":"tuple"}],"stateMutability":"view","type":"function"},{"inputs":[],"name":"setSTOP","outputs":[],"stateMutability":"nonpayable","type":"function"},{"inputs":[],"name":"setSTOPFOREVER","outputs":[],"stateMutability":"nonpayable","type":"function"},{"inputs":[{"internalType":"bytes4","name":"interfaceId","type":"bytes4"}],"name":"supportsInterface","outputs":[{"internalType":"bool","name":"","type":"bool"}],"stateMutability":"view","type":"function"},{"inputs":[{"internalType":"address","name":"newOwner","type":"address"}],"name":"transferOwnership","outputs":[],"stateMutability":"nonpayable","type":"function"},{"inputs":[],"name":"unsetSTOP","outputs":[],"stateMutability":"nonpayable","type":"function"}],"compiler":{"version":"0.8.11+commit.d7f03943","evm_version":"istanbul","optimizer":{"enabled":true,"runs":200}},"contractName":"MarketSearch","deployedBytecode":"608060405234801561001057600080fd5b50600436106101a95760003560e01c8063854ba99d116100f9578063ccbd163711610097578063e4b1614411610071578063e4b1614414610466578063e9f14ce614610479578063f2fde38b1461048c578063feab44541461049f576101a9565b8063ccbd163714610424578063ccc0795914610437578063d69358581461045e576101a9565b8063af640d0f116100d3578063af640d0f146103c5578063b03fd40d146103eb578063b9b38745146103fe578063bd0ade2b14610411576101a9565b8063854ba99d146103825780638da5cb5b1461038a57806397962076146103b5576101a9565b80632203616d116101665780636b2b091a116101405780636b2b091a14610331578063715018a61461035157806372ea61bf146103595780637af6649a14610361576101a9565b80632203616d146102d65780635f5c5baa146102fe5780636296514114610306576101a9565b806301ffc9a71461022e57806305d6bd9c1461025657806309252f02146102605780630a3550aa146102825780631ef4590d146102a357806321603f43146102b6575b6101b16104c9565b60006101c16024600436846147eb565b8080601f016020809104026020016040519081016040528093929190818152602001838380828437600092018290525060208501519495509250503660231981019150601f19016004838037816024600437600080826000875af49250505061022981610693565b505050005b61024161023c366004614815565b6106a9565b60405190151581526020015b60405180910390f35b61025e6106e0565b005b61027361026e366004614a51565b6106f7565b60405161024d93929190614ba6565b610295610290366004614be2565b610860565b60405161024d929190614c9f565b6102416102b1366004614ddc565b610b22565b6102c96102c4366004614dfe565b610bb3565b60405161024d9190614e4f565b6102e96102e4366004614dfe565b610bc6565b60405163ffffffff909116815260200161024d565b61025e610bd7565b610319610314366004614dfe565b610cec565b6040516001600160401b03909116815260200161024d565b61034461033f366004614dfe565b610d1e565b60405161024d9190614f00565b61025e61113a565b61025e61114c565b61037461036f366004614f62565b611166565b60405190815260200161024d565b61024161117f565b6000546201000090046001600160a01b03165b6040516001600160a01b03909116815260200161024d565b600054610100900460ff16610241565b7fdcf6913c74762e0b3c7f94f504bb2be7445bbd8d11abee9960f04ebf85e7a7b2610374565b6103746103f9366004614f8a565b61119d565b61029561040c366004614a51565b6111b7565b61027361041f366004614be2565b6112fe565b610295610432366004614fb3565b6115a8565b61039d7f000000000000000000000000000000000000000000000000000000000000000081565b61025e611883565b610374610474366004615016565b61189f565b610273610487366004614fb3565b6118b6565b61025e61049a36600461503c565b611baf565b6104b26104ad366004614dfe565b611c28565b60405165ffffffffffff909116815260200161024d565b6000546001600160a01b03620100009091041633148061057c57506001600160a01b037f0000000000000000000000000000000000000000000000000000000000000000166316279055336040516001600160e01b031960e084901b1681526001600160a01b039091166004820152602401602060405180830381865afa158015610558573d6000803e3d6000fd5b505050506040513d601f19601f8201168201806040525081019061057c9190615059565b8061061a57506001600160a01b037f000000000000000000000000000000000000000000000000000000000000000016636d70f7ae336040516001600160e01b031960e084901b1681526001600160a01b039091166004820152602401602060405180830381865afa1580156105f6573d6000803e3d6000fd5b505050506040513d601f19601f8201168201806040525081019061061a9190615059565b6106915760405162461bcd60e51b815260206004820152603960248201527f416c6c6f77616e63653a2063616c6c6572206d757374206265205265706f736960448201527f746f727920436f6e7472616374206f72204f70657261746f720000000000000060648201526084015b60405180910390fd5b565b3d6000803e8080156106a4573d6000f35b3d6000fd5b60006001600160e01b031982166301ffc9a760e01b14806106da57506001600160e01b031982166315d3789560e31b145b92915050565b6106e86104c9565b6106916000805460ff19169055565b6060600061071f60405180606001604052806000815260200160008152602001600081525090565b6040516327bcdbc960e11b81526001600160a01b038a81166004830152602482018a905261084e917f000000000000000000000000000000000000000000000000000000000000000090911690634f79b79290604401602060405180830381865afa158015610792573d6000803e3d6000fd5b505050506040513d601f19601f820116820180604052508101906107b69190615076565b6040516327bcdbc960e11b81526001600160a01b038a81166004830152602482018a90527f00000000000000000000000000000000000000000000000000000000000000001690634f79b79290604401602060405180830381865afa158015610823573d6000803e3d6000fd5b505050506040513d601f19601f820116820180604052508101906108479190615076565b87876118b6565b92509250925096509650969350505050565b61086861461e565b60606000835b6108796008826150a5565b8210156108c257858561088d8460086150bc565b81811061089c5761089c6150d4565b90506020020135600014156108b0576108c2565b816108ba816150ea565b92505061086e565b6000826001600160401b038111156108dc576108dc614854565b604051908082528060200260200182016040528015610905578160200160208202803683370190505b50905060005b838110156109655787876109208360086150bc565b81811061092f5761092f6150d4565b90506020020135828281518110610948576109486150d4565b60209081029190910101528061095d816150ea565b91505061090b565b50610b11896040518060e001604052808b81526020018a8a600081811061098e5761098e6150d4565b9050602002013581526020018a8a60018181106109ad576109ad6150d4565b9050602002013581526020018a8a60028181106109cc576109cc6150d4565b9050602002013560001415151581526020018a8a60038181106109f1576109f16150d4565b9050602002013560001415151581526020018a8a6007818110610a1657610a166150d4565b9050602002013581526020018481525060405180608001604052808b8b6005818110610a4457610a446150d4565b9050602002013581526020018b8b6006818110610a6357610a636150d4565b9050602002013581526020018b8b6004818110610a8257610a826150d4565b60209081029290920135835250016000604051908082528060200260200182016040528015610acb57816020015b610ab8614668565b815260200190600190039081610ab05790505b5090526040805160008082526020820190925290610b0b565b6040805180820190915260008082526020820152815260200190600190039081610ae45790505b50611c39565b945094505050505b94509492505050565b6000828152600160205260408082209051632be5db2360e11b815260048101919091526024810183905273__$f71e59c5327218924d154e230469c101bd$__906357cbb64690604401602060405180830381865af4158015610b88573d6000803e3d6000fd5b505050506040513d601f19601f82011682018060405250810190610bac9190615059565b9392505050565b610bbb6146a1565b6106da826000612667565b60006106da64e8d4a5100083615105565b6000546001600160a01b036201000090910416331480610c8a57506001600160a01b037f000000000000000000000000000000000000000000000000000000000000000016636d70f7ae336040516001600160e01b031960e084901b1681526001600160a01b039091166004820152602401602060405180830381865afa158015610c66573d6000803e3d6000fd5b505050506040513d601f19601f82011682018060405250810190610c8a9190615059565b6106915760405162461bcd60e51b815260206004820152602d60248201527f416c6c6f77616e63653a2063616c6c6572206d757374206265205265706f736960448201526c3a37b93c9027b832b930ba37b960991b6064820152608401610688565b600080610cfe6402540be40084615105565b905082610d10826402540be400615127565b11156106da576106da615146565b6000818152600160209081526040808320805482518185028101850190935280835260609493830182828015610d7357602002820191906000526020600020905b815481526020019060010190808311610d5f575b5050505050905080516001600160401b03811115610d9357610d93614854565b604051908082528060200260200182016040528015610dc657816020015b6060815260200190600190039081610db15790505b5091506000805b82518110156110e7577f00000000000000000000000000000000000000000000000000000000000000006001600160a01b03166338a699a4848381518110610e1757610e176150d4565b60200260200101516040518263ffffffff1660e01b8152600401610e3d91815260200190565b602060405180830381865afa158015610e5a573d6000803e3d6000fd5b505050506040513d601f19601f82011682018060405250810190610e7e9190615059565b610e87576110d5565b60007f00000000000000000000000000000000000000000000000000000000000000006001600160a01b03166327ee9dc2858481518110610eca57610eca6150d4565b60200260200101516040518263ffffffff1660e01b8152600401610ef091815260200190565b600060405180830381865afa158015610f0d573d6000803e3d6000fd5b505050506040513d6000823e601f3d908101601f19168201604052610f3591908101906151b7565b90506000815111610f825760405162461bcd60e51b815260206004820152601760248201527605f706174684c69737420706174682e6c656e6774683e3604c1b6044820152606401610688565b60005b60018251610f9391906150a5565b81101561108d5761107273__$669c6e0eba2465bd6779ea6ec5db3af1b5$__6376254ff9848481518110610fc957610fc96150d4565b602002602001015185856001610fdf91906150bc565b81518110610fef57610fef6150d4565b60200260200101516040518363ffffffff1660e01b815260040161101d929190918252602082015260400190565b602060405180830381865af415801561103a573d6000803e3d6000fd5b505050506040513d601f19601f8201168201806040525081019061105e9190615076565b600090815260066020526040902054151590565b61107b5761108d565b80611085816150ea565b915050610f85565b6001825161109b91906150a5565b8110156110a95750506110d5565b8186856110b5816150ea565b9650815181106110c7576110c76150d4565b602002602001018190525050505b806110df816150ea565b915050610dcd565b50808352600081116111335760405162461bcd60e51b815260206004820152601560248201527405f6c6973745061746846726f6d20636f756e743e3605c1b6044820152606401610688565b5050919050565b611142612dd0565b6106916000612e31565b6111546104c9565b6106916000805460ff19166001179055565b60006106da65ffffffffffff831664174876e800615127565b6000805460ff16806111985750600054610100900460ff165b905090565b60006106da6001600160401b0383166402540be400615127565b6111bf61461e565b6040516327bcdbc960e11b81526001600160a01b038881166004830152602482018890526060916112ef917f00000000000000000000000000000000000000000000000000000000000000001690634f79b79290604401602060405180830381865afa158015611233573d6000803e3d6000fd5b505050506040513d601f19601f820116820180604052508101906112579190615076565b6040516327bcdbc960e11b81526001600160a01b038981166004830152602482018990527f00000000000000000000000000000000000000000000000000000000000000001690634f79b79290604401602060405180830381865afa1580156112c4573d6000803e3d6000fd5b505050506040513d601f19601f820116820180604052508101906112e89190615076565b86866115a8565b91509150965096945050505050565b6060600061132660405180606001604052806000815260200160008152602001600081525090565b6000806113346008876150a5565b90505b8082101561138157868661134c8460086150bc565b81811061135b5761135b6150d4565b905060200201356000141561136f57611381565b81611379816150ea565b925050611337565b6000826001600160401b0381111561139b5761139b614854565b6040519080825280602002602001820160405280156113c4578160200160208202803683370190505b50905060005b838110156114245788886113df8360086150bc565b8181106113ee576113ee6150d4565b90506020020135828281518110611407576114076150d4565b60209081029190910101528061141c816150ea565b9150506113ca565b506115948a6040518060e001604052808c81526020018b8b600081811061144d5761144d6150d4565b9050602002013581526020018b8b600181811061146c5761146c6150d4565b9050602002013581526020018b8b600281811061148b5761148b6150d4565b9050602002013560001415151581526020018b8b60038181106114b0576114b06150d4565b9050602002013560001415151581526020018b8b60078181106114d5576114d56150d4565b9050602002013581526020018481525060405180608001604052808c8c6005818110611503576115036150d4565b9050602002013581526020018c8c6006818110611522576115226150d4565b9050602002013581526020018c8c6004818110611541576115416150d4565b6020908102929092013583525001600060405190808252806020026020018201604052801561158a57816020015b611577614668565b81526020019060019003908161156f5790505b5090526000612e8c565b9550955095505050505b9450945094915050565b6115b061461e565b815160609060208111156116065760405162461bcd60e51b815260206004820152601d60248201527f64656c6976657279206172726179206d61782073697a652069732033320000006044820152606401610688565b61160e614730565b8551815260208087015190820152604086015161162c57600061162f565b60015b60ff166040820152606086015161164757600061164a565b60015b60ff1660608201526080868101519082015260a0808701519082015260c0808701519082015260e08087015190820152600860005b838110156116f857868181518110611699576116996150d4565b60200260200101516000146116e6578681815181106116ba576116ba6150d4565b60200260200101518383806116ce906150ea565b9450602881106116e0576116e06150d4565b60200201525b806116f0816150ea565b91505061167f565b505060405163023aa9ab60e61b81527f2e7a327ef83c2af7579c6634f2f5604519800c5f07626f27bd602fd11ed8e6ec60048201526000907f00000000000000000000000000000000000000000000000000000000000000006001600160a01b031690638eaa6ac090602401602060405180830381865afa158015611781573d6000803e3d6000fd5b505050506040513d601f19601f820116820180604052508101906117a591906151eb565b6001600160a01b03167f0a3550aabeea45f9d515c45ea5dadcd6efbe5a3c73ab07644f630de564c6515a308b8b60606028886040516024016117ec96959493929190615208565b60408051601f198184030181529181526020820180516001600160e01b03166001600160e01b031990941693909317909252905161182a919061526b565b600060405180830381855afa9150503d8060008114611865576040519150601f19603f3d011682016040523d82523d6000602084013e61186a565b606091505b5050905061187781610693565b50505094509492505050565b61188b612dd0565b6106916000805461ff001916610100179055565b60006106da63ffffffff831664e8d4a51000615127565b606060006118de60405180606001604052806000815260200160008152602001600081525090565b835160208111156119315760405162461bcd60e51b815260206004820152601d60248201527f64656c6976657279206172726179206d61782073697a652069732033320000006044820152606401610688565b611939614730565b8651815260208088015190820152604087015161195757600061195a565b60015b60ff1660408201526060870151611972576000611975565b60015b60ff1660608201526080878101519082015260a0808801519082015260c0808801519082015260e08088015190820152600860005b83811015611a23578781815181106119c4576119c46150d4565b6020026020010151600014611a11578781815181106119e5576119e56150d4565b60200260200101518383806119f9906150ea565b945060288110611a0b57611a0b6150d4565b60200201525b80611a1b816150ea565b9150506119aa565b505060405163023aa9ab60e61b81527f2e7a327ef83c2af7579c6634f2f5604519800c5f07626f27bd602fd11ed8e6ec60048201526000907f00000000000000000000000000000000000000000000000000000000000000006001600160a01b031690638eaa6ac090602401602060405180830381865afa158015611aac573d6000803e3d6000fd5b505050506040513d601f19601f82011682018060405250810190611ad091906151eb565b6001600160a01b03167fbd0ade2bcae368fca26bb02146561a2830136bf30c4a34c648255fccebbe2254308c8c6060602888604051602401611b1796959493929190615208565b60408051601f198184030181529181526020820180516001600160e01b03166001600160e01b0319909416939093179092529051611b55919061526b565b600060405180830381855afa9150503d8060008114611b90576040519150601f19603f3d011682016040523d82523d6000602084013e611b95565b606091505b50509050611ba281610693565b5050509450945094915050565b611bb7612dd0565b6001600160a01b038116611c1c5760405162461bcd60e51b815260206004820152602660248201527f4f776e61626c653a206e6577206f776e657220697320746865207a65726f206160448201526564647265737360d01b6064820152608401610688565b611c2581612e31565b50565b60006106da64174876e80083615105565b611c4161461e565b81611c4a61461e565b6000611c5a888860000151613472565b805190915060005b81811015611e0857611c7261474f565b611cfe848381518110611c8757611c876150d4565b60200260200101516002868581518110611ca357611ca36150d4565b602002602001015151611cb691906150a5565b81518110611cc657611cc66150d4565b60200260200101518b60405180608001604052806000815260200160008152602001600081526020018d606001518152506000612e8c565b60408401526020830181905215159050611d185750611df6565b838281518110611d2a57611d2a6150d4565b6020908102919091010151815273__$2fc864095126d4d9b433a37f83d02318c7$__637513ce1b86836000604051908082528060200260200182016040528015611d8e57816020015b611d7b614668565b815260200190600190039081611d735790505b506040518463ffffffff1660e01b8152600401611dad93929190615465565b600060405180830381865af4158015611dca573d6000803e3d6000fd5b505050506040513d6000823e601f3d908101601f19168201604052611df29190810190615692565b9450505b80611e00816150ea565b915050611c62565b50505060408101515180611e1d575050610b19565b611e256147a7565b87518152602080890151818301526040808a0151818401526060808b01511515818501526080808c015115158186015260a0808d01519086015260c0808d0151908601528251908101835260008082528185018181528285018281528385018581528e518552968e0151909152938c0151909352908a0151909252836001600160401b03811115611eb857611eb8614854565b604051908082528060200260200182016040528015611ef157816020015b611ede61461e565b815260200190600190039081611ed65790505b50905060005b89518352600160a085015260005b85811015611ff657611f3a87604001518281518110611f2657611f266150d4565b60200260200101516000015186868b613866565b838281518110611f4c57611f4c6150d4565b60200260200101819052506001838281518110611f6b57611f6b6150d4565b602002602001015160400151511115611fe45760405162461bcd60e51b815260206004820152603560248201527f504152414e4f4941205f5f73656172636843466f6c6c6f77506174682073686f604482015274756c642072657475726e206d61782031206465736360581b6064820152608401610688565b80611fee816150ea565b915050611f05565b50600019600080805b8881101561215757858181518110612019576120196150d4565b6020026020010151600001516000141561203257612145565b600019841480612062575085818151811061204f5761204f6150d4565b6020026020010151602001516000015183115b156120f75760001984141580156120995750858181518110612086576120866150d4565b6020026020010151602001516040015183105b156120a6578291506120cb565b8581815181106120b8576120b86150d4565b6020026020010151602001516040015191505b8093508581815181106120e0576120e06150d4565b602002602001015160200151600001519250612145565b858181518110612109576121096150d4565b6020026020010151602001516000015182111561214557858181518110612132576121326150d4565b6020026020010151602001516000015191505b8061214f816150ea565b915050611fff565b5060001983141561216a57505050612658565b85525061217561461e565b6121a28860400151838151811061218e5761218e6150d4565b60200260200101516000015187878c613866565b90508060400151516001146122135760405162461bcd60e51b815260206004820152603160248201527f504152414e4f4941205f5f73656172636843466f6c6c6f77506174682073686f604482015270756c642072657475726e2031206465736360781b6064820152608401610688565b80516122595760405162461bcd60e51b81526020600482015260156024820152746966202873656c65637465642e717479203d3d302960581b6044820152606401610688565b604051639fab220f60e01b815273__$2fc864095126d4d9b433a37f83d02318c7$__90639fab220f90612292908d9085906004016157ac565b600060405180830381865af41580156122af573d6000803e3d6000fd5b505050506040513d6000823e601f3d908101601f191682016040526122d79190810190615692565b9950806060015151836122ea91906150bc565b92508060400151600081518110612303576123036150d4565b602002602001015160a001515160001461239057806040015160008151811061232e5761232e6150d4565b602002602001015160a0015160018260400151600081518110612353576123536150d4565b602002602001015160a001515161236a91906150a5565b8151811061237a5761237a6150d4565b60200260200101518361238d91906150a5565b92505b8873__$2fc864095126d4d9b433a37f83d02318c7$__637071133e909183604001516000815181106123c4576123c46150d4565b602002602001015184606001516040518463ffffffff1660e01b81526004016123ef939291906157d1565b600060405180830381865af415801561240c573d6000803e3d6000fd5b505050506040513d6000823e601f3d908101601f1916820160405261243491908101906157e4565b6060808701519083015160405163bf07928f60e01b8152929b5073__$2fc864095126d4d9b433a37f83d02318c7$__9263bf07928f92612478929091600401615899565b600060405180830381865af4158015612495573d6000803e3d6000fd5b505050506040513d6000823e601f3d908101601f191682016040526124bd91908101906158be565b60608601528b51855260a08d015115612539578c60a0015183106125235760405162461bcd60e51b815260206004820152601f60248201527f696620286d6178636f756e743e3d7461726765745f2e6d6178636f756e7429006044820152606401610688565b828d60a0015161253391906150a5565b60a08701525b60408d0151156125ae5760408d01518151106125975760405162461bcd60e51b815260206004820152601e60248201527f6966202873656c65637465642e7174793e3d7461726765745f2e7174792900006044820152606401610688565b805160408e01516125a891906150a5565b60408701525b60408c015115612651576000670de0b6b3a76400008b60200151602001518c600001516125db9190615127565b6125e59190615105565b90508c60400151811061263a5760405162461bcd60e51b815260206004820152601f60248201527f69662028746f74616c3e3d7365617263686172675f2e6d6178746f74616c29006044820152606401610688565b808d6040015161264a91906150a5565b6040870152505b5050611ef7565b50505050505094509492505050565b61266f6146a1565b60008381526005602081815260408084208151610180810183528154815260018201546001600160a01b0381169482019490945293909291840191600160a01b900460ff16908111156126c4576126c4614e17565b60058111156126d5576126d5614e17565b81526001820154600160a81b900460ff166020820152600282015460408083019190915260038301546001600160401b0380821660608501526801000000000000000080830482166080860152600160801b808404831660a0870152600160c01b909304821660c086015260049586015480831660e087015290810482166101008601529190910416610120909201919091528251905163657c7e0960e01b8152918201529091507f00000000000000000000000000000000000000000000000000000000000000006001600160a01b03169063657c7e09906024016040805180830381865afa1580156127cd573d6000803e3d6000fd5b505050506040513d601f19601f820116820180604052508101906127f191906158f2565b6040840152602083015260808101516060830152828061288a575060608101516040516336181b6760e11b815260ff909116600482015273__$f7122df39a5f3bad28f404771cd5173291$__90636c3036ce90602401602060405180830381865af4158015612864573d6000803e3d6000fd5b505050506040513d601f19601f820116820180604052508101906128889190615059565b155b15612d0d5760208101516001600160a01b0316825260a08101516128ad9061119d565b60808301526060810151604051632b2076e360e11b815260ff909116600482015273__$f7122df39a5f3bad28f404771cd5173291$__90635640edc690602401602060405180830381865af415801561290a573d6000803e3d6000fd5b505050506040513d601f19601f8201168201806040525081019061292e9190615059565b1561294257608082015160a0830152612a8e565b6101208101516001600160401b03161561296e5761296481610120015161119d565b60a0830152612a8e565b60405163023aa9ab60e61b81527fcd775f2396f9f13f12bcf8ca32e21df66559a8adc3944d0591127e7731f7ab8560048201527f00000000000000000000000000000000000000000000000000000000000000006001600160a01b031690638eaa6ac090602401602060405180830381865afa1580156129f2573d6000803e3d6000fd5b505050506040513d601f19601f82011682018060405250810190612a1691906151eb565b6001600160a01b031663a9bf985883602001516040518263ffffffff1660e01b8152600401612a4791815260200190565b602060405180830381865afa158015612a64573d6000803e3d6000fd5b505050506040513d601f19601f82011682018060405250810190612a889190615076565b60a08301525b612a9b8160c0015161119d565b60c083015260e0810151612aae9061119d565b60e08301526060810151604051635b7d0f6960e11b815260ff909116600482015273__$f7122df39a5f3bad28f404771cd5173291$__9063b6fa1ed290602401602060405180830381865af4158015612b0b573d6000803e3d6000fd5b505050506040513d601f19601f82011682018060405250810190612b2f9190615059565b15612cf857612b4281610140015161119d565b610120830152610160810151612b579061119d565b61014083015260405163023aa9ab60e61b81527f3cb99135f7a7c088d9085b446345038a22a85f4e8fe072b0e1b66d97243e745860048201526000907f00000000000000000000000000000000000000000000000000000000000000006001600160a01b031690638eaa6ac090602401602060405180830381865afa158015612be4573d6000803e3d6000fd5b505050506040513d601f19601f82011682018060405250810190612c0891906151eb565b6001600160a01b0316636464b68a846020015185604001516040518363ffffffff1660e01b8152600401612c46929190918252602082015260400190565b606060405180830381865afa158015612c63573d6000803e3d6000fd5b505050506040513d601f19601f82011682018060405250810190612c879190615916565b5091505080612ccc5760405162461bcd60e51b8152602060048201526011602482015270145d5bdd194e88139bdd081c5d5bdd1959607a1b6044820152606401610688565b610140830151612cdc9082615105565b836101200151612cec9190615127565b61010084015250612d0d565b612d0681610100015161119d565b6101008301525b604051630212d6cb60e21b815273__$f7122df39a5f3bad28f404771cd5173291$__9063084b5b2c90612d44908490600401615944565b602060405180830381865af4158015612d61573d6000803e3d6000fd5b505050506040513d601f19601f82011682018060405250810190612d859190615076565b61016083015260408101516101808301906005811115612da757612da7614e17565b90816005811115612dba57612dba614e17565b9052506060015160ff166101a082015292915050565b6000546001600160a01b03620100009091041633146106915760405162461bcd60e51b815260206004820152601f60248201527f416c6c6f77616e63653a2063616c6c6572206d757374206265204f776e6572006044820152606401610688565b600080546001600160a01b038381166201000081810262010000600160b01b0319851617855560405193049190911692909183917f8be0079c531659141344cd1fd0a4f28419497f9722a3daafe3b4186f6b6457e091a35050565b60606000612eb460405180606001604052806000815260200160008152602001600081525090565b612eca8787600001518860c00151600080614165565b80519093506000816001600160401b03811115612ee957612ee9614854565b604051908082528060200260200182016040528015612f2257816020015b612f0f614668565b815260200190600190039081612f075790505b5090506000805b83811015613274578960000151878281518110612f4857612f486150d4565b60200260200101516020015114612fb35760405162461bcd60e51b815260206004820152602960248201527f5f5f736561726368206f75745f5b695d2e61646472203d3d207461726765745f6044820152682e63757272656e637960b81b6064820152608401610688565b885115801590612fe357508860000151878281518110612fd557612fd56150d4565b602002602001015160800151115b15612fed57613262565b8960200151878281518110613004576130046150d4565b602002602001015160600151101561301b57613262565b886060015173__$2fc864095126d4d9b433a37f83d02318c7$__635640453d909189848151811061304e5761304e6150d4565b6020026020010151600001516040518363ffffffff1660e01b8152600401613077929190615a33565b602060405180830381865af4158015613094573d6000803e3d6000fd5b505050506040513d601f19601f820116820180604052508101906130b89190615076565b8782815181106130ca576130ca6150d4565b60200260200101516040015110156130e157613262565b8681815181106130f3576130f36150d4565b602002602001015160600151896060015173__$2fc864095126d4d9b433a37f83d02318c7$__635640453d90918a8581518110613132576131326150d4565b6020026020010151600001516040518363ffffffff1660e01b815260040161315b929190615a33565b602060405180830381865af4158015613178573d6000803e3d6000fd5b505050506040513d601f19601f8201168201806040525081019061319c9190615076565b8883815181106131ae576131ae6150d4565b6020026020010151604001516131c491906150a5565b10156131cf57613262565b8960a0015160011480156131e65750602089015115155b801561321257508860200151878281518110613204576132046150d4565b602002602001015160800151115b1561321c57613262565b86818151811061322e5761322e6150d4565b6020026020010151838381518110613248576132486150d4565b6020026020010181905250818061325e906150ea565b9250505b8061326c816150ea565b915050612f29565b508152935073__$ac5a5ff32855f20cc1672b31a3944a092c$__905063b51b8e828460008989826040519080825280602002602001820160405280156132d457816020015b6132c1614668565b8152602001906001900390816132b95790505b506040518663ffffffff1660e01b81526004016132f5959493929190615a88565b600060405180830381865af4158015613312573d6000803e3d6000fd5b505050506040513d6000823e601f3d908101601f1916820160405261333a9190810190615b31565b919450925090508361159e57604051637bf5cddb60e11b815273__$2fc864095126d4d9b433a37f83d02318c7$__9063f7eb9bb69061337d908690600401615b88565b600060405180830381865af415801561339a573d6000803e3d6000fd5b505050506040513d6000823e601f3d908101601f191682016040526133c291908101906158be565b92508560a001516000141580156133dd57508560a001518351115b1561159e5760a086015180845260405163742228d760e01b815273__$2fc864095126d4d9b433a37f83d02318c7$__9063742228d790613421908790600401615b88565b608060405180830381865af415801561343e573d6000803e3d6000fd5b505050506040513d601f19601f820116820180604052508101906134629190615b9b565b9093509150509450945094915050565b60008281526001602090815260408083208054825181850281018501909352808352606094938301828280156134c757602002820191906000526020600020905b8154815260200190600101908083116134b3575b50505050509050600081511161351f5760405162461bcd60e51b815260206004820152601b60248201527f5f706174684c6973742066726f6d706174682e6c656e6774683e3000000000006044820152606401610688565b80516001600160401b0381111561353857613538614854565b60405190808252806020026020018201604052801561356b57816020015b60608152602001906001900390816135565790505b5091506000805b8251811015613816577f00000000000000000000000000000000000000000000000000000000000000006001600160a01b03166338a699a48483815181106135bc576135bc6150d4565b60200260200101516040518263ffffffff1660e01b81526004016135e291815260200190565b602060405180830381865afa1580156135ff573d6000803e3d6000fd5b505050506040513d601f19601f820116820180604052508101906136239190615059565b61362c57613804565b60007f00000000000000000000000000000000000000000000000000000000000000006001600160a01b03166327ee9dc285848151811061366f5761366f6150d4565b60200260200101516040518263ffffffff1660e01b815260040161369591815260200190565b600060405180830381865afa1580156136b2573d6000803e3d6000fd5b505050506040513d6000823e601f3d908101601f191682016040526136da91908101906151b7565b905060008151116137275760405162461bcd60e51b815260206004820152601760248201527605f706174684c69737420706174682e6c656e6774683e3604c1b6044820152606401610688565b85816001835161373791906150a5565b81518110613747576137476150d4565b60200260200101511461375a5750613804565b60005b6001825161376b91906150a5565b8110156137bc576137a173__$669c6e0eba2465bd6779ea6ec5db3af1b5$__6376254ff9848481518110610fc957610fc96150d4565b6137aa576137bc565b806137b4816150ea565b91505061375d565b600182516137ca91906150a5565b8110156137d8575050613804565b8186856137e4816150ea565b9650815181106137f6576137f66150d4565b602002602001018190525050505b8061380e816150ea565b915050613572565b508083526000811161385e5760405162461bcd60e51b815260206004820152601160248201527005f706174684c69737420636f756e743e3607c1b6044820152606401610688565b505092915050565b61386e61461e565b6002855110156138cc5760405162461bcd60e51b815260206004820152602360248201527f5f5f73656172636843466f6c6c6f775061746820706174685f2e6c656e6774686044820152621f1e9960e91b6064820152608401610688565b8351855186906138de906001906150a5565b815181106138ee576138ee6150d4565b6020026020010151146139695760405162461bcd60e51b815260206004820152603d60248201527f5f5f73656172636843466f6c6c6f775061746820706174685f5b706174685f2e60448201527f6c656e677468202d20315d3d3d7461726765745f2e63757272656e63790000006064820152608401610688565b606061397361474f565b865160021415613a79576139b0876002895161398f91906150a5565b8151811061399f5761399f6150d4565b602002602001015187876000612e8c565b6040840152602083015280516080830152875190925073__$2fc864095126d4d9b433a37f83d02318c7$__90632fbf1f939083908a906139f2906002906150a5565b81518110613a0257613a026150d4565b602002602001015189600001516040518463ffffffff1660e01b8152600401613a2d93929190615bc8565b600060405180830381865af4158015613a4a573d6000803e3d6000fd5b505050506040513d6000823e601f3d908101601f19168201604052613a729190810190615bed565b90506140d8565b604085015160015b60018951613a8f91906150a5565b811015613c4c576000613b848a613aa76001856150a5565b81518110613ab757613ab76150d4565b60200260200101516040518060e001604052808d8681518110613adc57613adc6150d4565b6020026020010151815260200160008152602001600081526020016000151581526020016000151581526020016000815260200160006001600160401b03811115613b2957613b29614854565b604051908082528060200260200182016040528015613b52578160200160208202803683370190505b50815250604051806080016040528060008152602001600081526020018781526020018c606001518152506001612e8c565b5091505080613b9757505050505061415d565b8673__$2fc864095126d4d9b433a37f83d02318c7$__63e23edbef90918c8581518110613bc657613bc66150d4565b60200260200101516040518363ffffffff1660e01b8152600401613beb929190615c21565b602060405180830381865af4158015613c08573d6000803e3d6000fd5b505050506040513d601f19601f82011682018060405250810190613c2c9190615076565b613c3690826150bc565b9250508080613c44906150ea565b915050613a81565b50613ca68860028a51613c5f91906150a5565b81518110613c6f57613c6f6150d4565b602002602001015188604051806080016040528060008152602001600081526020018581526020018a606001518152506000612e8c565b604085015260208401819052909350613cc15750505061415d565b82516080830152875173__$2fc864095126d4d9b433a37f83d02318c7$__90632fbf1f939084908b90613cf6906002906150a5565b81518110613d0657613d066150d4565b60200260200101518a600001516040518463ffffffff1660e01b8152600401613d3193929190615bc8565b600060405180830381865af4158015613d4e573d6000803e3d6000fd5b505050506040513d6000823e601f3d908101601f19168201604052613d769190810190615bed565b9150670de0b6b3a76400008260400151602001518360200151613d999190615127565b613da39190615105565b9050600060028951613db591906150a5565b90505b80156140d5576060613dc861474f565b613dd06147a7565b613dfb6040518060800160405280600081526020016000815260200160008152602001606081525090565b8c8581518110613e0d57613e0d6150d4565b60200260200101518260000181815250508973__$2fc864095126d4d9b433a37f83d02318c7$__63e23edbef90918f8881518110613e4d57613e4d6150d4565b60200260200101516040518363ffffffff1660e01b8152600401613e72929190615c21565b602060405180830381865af4158015613e8f573d6000803e3d6000fd5b505050506040513d601f19601f82011682018060405250810190613eb39190615076565b613ebd90876150a5565b6040830152600160608084018290528c81015190830152613f05908e90613ee490886150a5565b81518110613ef457613ef46150d4565b602002602001015183836000612e8c565b60408601526020850181905290945015159150613f2990505750505050505061415d565b670de0b6b3a76400008160400151602001518260200151613f4a9190615127565b613f549190615105565b935073__$2fc864095126d4d9b433a37f83d02318c7$__6350308ede86888e613f7e6001896150a5565b81518110613f8e57613f8e6150d4565b6020026020010151866040518563ffffffff1660e01b8152600401613fb69493929190615c34565b600060405180830381865af4158015613fd3573d6000803e3d6000fd5b505050506040513d6000823e601f3d908101601f19168201604052613ffb9190810190615c73565b604080840151519083015151919850919650670de0b6b3a76400009161402091615127565b61402a9190615105565b60408087018051929092528281015181015191510151670de0b6b3a76400009161405391615127565b61405d9190615105565b85604001516040018181525050670de0b6b3a7640000856020015182604001516020015183602001516140909190615127565b61409a9190615105565b8660400151602001516140ad9190615127565b6140b79190615105565b604086015160200152508190506140cd81615cd6565b915050613db8565b50505b604051637513ce1b60e01b815273__$2fc864095126d4d9b433a37f83d02318c7$__90637513ce1b9061411390869085908790600401615465565b600060405180830381865af4158015614130573d6000803e3d6000fd5b505050506040513d6000823e601f3d908101601f191682016040526141589190810190615692565b925050505b949350505050565b606060008060006006600073__$669c6e0eba2465bd6779ea6ec5db3af1b5$__6376254ff98c8c6040518363ffffffff1660e01b81526004016141b2929190918252602082015260400190565b602060405180830381865af41580156141cf573d6000803e3d6000fd5b505050506040513d601f19601f820116820180604052508101906141f39190615076565b81526020810191909152604001600020805490915085614211578095505b856001600160401b0381111561422957614229614854565b60405190808252806020026020018201604052801561426257816020015b61424f614668565b8152602001906001900390816142475790505b50945060005b8181101561460f5786841061427c5761460f565b600060056000858481548110614294576142946150d4565b90600052602060002001548152602001908152602001600020905073__$f7122df39a5f3bad28f404771cd5173291$__63084b5b2c826040518263ffffffff1660e01b81526004016142e69190615dc8565b602060405180830381865af4158015614303573d6000803e3d6000fd5b505050506040513d601f19601f820116820180604052508101906143279190615076565b15806143ab5750604051630212d6cb60e21b8152429073__$f7122df39a5f3bad28f404771cd5173291$__9063084b5b2c90614367908590600401615dc8565b602060405180830381865af4158015614384573d6000803e3d6000fd5b505050506040513d601f19601f820116820180604052508101906143a89190615076565b10155b80156144c8575060405163023aa9ab60e61b81527f33ffbdff3a4282df4353f3593b78d26aaf4c28b5786164f828858505bc5e301c60048201527f00000000000000000000000000000000000000000000000000000000000000006001600160a01b031690638eaa6ac090602401602060405180830381865afa158015614436573d6000803e3d6000fd5b505050506040513d601f19601f8201168201806040525081019061445a91906151eb565b6001600160a01b0316635aca1641828c6040518363ffffffff1660e01b8152600401614487929190615dd7565b602060405180830381865afa1580156144a4573d6000803e3d6000fd5b505050506040513d601f19601f820116820180604052508101906144c89190615059565b156145fb57856144d7816150ea565b9650508886116144e757506145fd565b60006145108584815481106144fe576144fe6150d4565b90600052602060002001546001612667565b90508060a00151816080015110156145295750506145fd565b8060600151888781518110614540576145406150d4565b602002602001015160000181815250508060400151888781518110614567576145676150d4565b602002602001015160200181815250508060a0015188878151811061458e5761458e6150d4565b6020026020010151606001818152505080608001518887815181106145b5576145b56150d4565b602002602001015160400181815250508061010001518887815181106145dd576145dd6150d4565b602090810291909101015160800152856145f6816150ea565b965050505b505b80614607816150ea565b915050614268565b50505082525095945050505050565b60405180608001604052806000815260200161465460405180606001604052806000815260200160008152602001600081525090565b815260200160608152602001606081525090565b6040518060c001604052806000815260200160008019168152602001600081526020016000815260200160008152602001606081525090565b604051806101c0016040528060006001600160a01b0316815260200160008019168152602001600080191681526020016000815260200160008152602001600081526020016000815260200160008152602001600081526020016000815260200160008152602001600081526020016000600581111561472357614723614e17565b8152600060209091015290565b6040518061050001604052806028906020820280368337509192915050565b6040518060c00160405280606081526020016000815260200161478c60405180606001604052806000815260200160008152602001600081525090565b81526020016000815260200160008152602001606081525090565b6040518060e0016040528060008019168152602001600081526020016000815260200160001515815260200160001515815260200160008152602001606081525090565b600080858511156147fb57600080fd5b8386111561480857600080fd5b5050820193919092039150565b60006020828403121561482757600080fd5b81356001600160e01b031981168114610bac57600080fd5b6001600160a01b0381168114611c2557600080fd5b634e487b7160e01b600052604160045260246000fd5b60405160c081016001600160401b038111828210171561488c5761488c614854565b60405290565b604051608081016001600160401b038111828210171561488c5761488c614854565b604080519081016001600160401b038111828210171561488c5761488c614854565b604051601f8201601f191681016001600160401b03811182821017156148fe576148fe614854565b604052919050565b8015158114611c2557600080fd5b803561491f81614906565b919050565b600061010080838503121561493857600080fd5b604051908101906001600160401b038211818310171561495a5761495a614854565b6040918252833581526020808501359082015291508201358161497c82614906565b81604082015261498e60608501614914565b60608201526080840135608082015260a084013560a082015260c084013560c082015260e084013560e0820152505092915050565b60006001600160401b038211156149dc576149dc614854565b5060051b60200190565b600082601f8301126149f757600080fd5b81356020614a0c614a07836149c3565b6148d6565b82815260059290921b84018101918181019086841115614a2b57600080fd5b8286015b84811015614a465780358352918301918301614a2f565b509695505050505050565b6000806000806000806101a08789031215614a6b57600080fd5b8635614a768161483f565b9550602087013594506040870135614a8d8161483f565b935060608701359250614aa38860808901614924565b91506101808701356001600160401b03811115614abf57600080fd5b614acb89828a016149e6565b9150509295509295509295565b600081518084526020808501945080840160005b83811015614b0857815187529582019590820190600101614aec565b509495945050505050565b600081518084526020808501808196508360051b8101915082860160005b85811015614b99578284038952815180518552858101518686015260408082015190860152606080820151908601526080808201519086015260a09081015160c091860182905290614b8581870183614ad8565b9a87019a9550505090840190600101614b31565b5091979650505050505050565b60a081526000614bb960a0830186614b13565b905083602083015261415d60408301848051825260208082015190830152604090810151910152565b60008060008060608587031215614bf857600080fd5b843593506020850135925060408501356001600160401b0380821115614c1d57600080fd5b818701915087601f830112614c3157600080fd5b813581811115614c4057600080fd5b8860208260051b8501011115614c5557600080fd5b95989497505060200194505050565b600081518084526020808501945080840160005b83811015614b08578151805188528301518388015260409096019590820190600101614c78565b600060408083526101008084018651838601526020808801516060614cda818901838051825260208082015190830152604090810151910152565b858a015160c0898101819052815195869052610120600587901b8b0181019692860194509091908a019060005b81811015614d9c578b880361011f19018352855180518a8a52614d2c8b8b0182614ad8565b905088820151898b01528b820151614d5a8d8c01828051825260208082015190830152604090810151910152565b508187015160a08b8101919091526080830151878c01529091015189820360e08b015290614d888183614ad8565b995050509486019491860191600101614d07565b50505050890151878403603f190160e08901529450614dbd90508285614b13565b935085840381870152505050614dd38185614c64565b95945050505050565b60008060408385031215614def57600080fd5b50508035926020909101359150565b600060208284031215614e1057600080fd5b5035919050565b634e487b7160e01b600052602160045260246000fd5b60068110614e4b57634e487b7160e01b600052602160045260246000fd5b9052565b81516001600160a01b031681526101c081016020830151602083015260408301516040830152606083015160608301526080830151608083015260a083015160a083015260c083015160c083015260e083015160e083015261010080840151818401525061012080840151818401525061014080840151818401525061016080840151818401525061018080840151614eea82850182614e2d565b50506101a08381015160ff81168483015261385e565b6000602080830181845280855180835260408601915060408160051b870101925083870160005b82811015614f5557603f19888603018452614f43858351614ad8565b94509285019290850190600101614f27565b5092979650505050505050565b600060208284031215614f7457600080fd5b813565ffffffffffff81168114610bac57600080fd5b600060208284031215614f9c57600080fd5b81356001600160401b0381168114610bac57600080fd5b6000806000806101608587031215614fca57600080fd5b8435935060208501359250614fe28660408701614924565b91506101408501356001600160401b03811115614ffe57600080fd5b61500a878288016149e6565b91505092959194509250565b60006020828403121561502857600080fd5b813563ffffffff81168114610bac57600080fd5b60006020828403121561504e57600080fd5b8135610bac8161483f565b60006020828403121561506b57600080fd5b8151610bac81614906565b60006020828403121561508857600080fd5b5051919050565b634e487b7160e01b600052601160045260246000fd5b6000828210156150b7576150b761508f565b500390565b600082198211156150cf576150cf61508f565b500190565b634e487b7160e01b600052603260045260246000fd5b60006000198214156150fe576150fe61508f565b5060010190565b60008261512257634e487b7160e01b600052601260045260246000fd5b500490565b60008160001904831182151516156151415761514161508f565b500290565b634e487b7160e01b600052600160045260246000fd5b600082601f83011261516d57600080fd5b8151602061517d614a07836149c3565b82815260059290921b8401810191818101908684111561519c57600080fd5b8286015b84811015614a4657805183529183019183016151a0565b6000602082840312156151c957600080fd5b81516001600160401b038111156151df57600080fd5b61415d8482850161515c565b6000602082840312156151fd57600080fd5b8151610bac8161483f565b6001600160a01b038716815260208082018790526040820186905260608201859052608082018490526105a082019060a083018460005b602881101561525c5781518352918301919083019060010161523f565b50505050979650505050505050565b6000825160005b8181101561528c5760208186018101518583015201615272565b8181111561529b576000828501525b509190910192915050565b80516101008084528151908401819052600091610120850191602091820190845b818110156152e3578251855293830193918301916001016152c7565b50505083810151908501526040808401518051828701526020810151606087015290810151608086015250606083015160a0850152608083015160c085015260a083015184820360e0860152614dd38282614ad8565b600081518084526020808501808196508360051b8101915082860160005b85811015614b99578284038952815180518552858101518686015260408082015190860152606080820151908601526080808201519086015260a09081015160c0918601829052906153ab81870183614ad8565b9a87019a9550505090840190600101615357565b600060c08301825184526020808401516153ef828701828051825260208082015190830152604090810151910152565b50604084015160c0608087015282815180855260e08801915060e08160051b8901019450838301925060005b818110156154495760df198987030183526154378685516152a6565b9550928401929184019160010161541b565b5050505050606083015184820360a0860152614dd38282615339565b60608152600061547860608301866153bf565b828103602084015261548a81866152a6565b9050828103604084015261549e8185615339565b9695505050505050565b6000606082840312156154ba57600080fd5b604051606081018181106001600160401b03821117156154dc576154dc614854565b80604052508091508251815260208301516020820152604083015160408201525092915050565b6000610100828403121561551657600080fd5b61551e61486a565b905081516001600160401b038082111561553757600080fd5b6155438583860161515c565b83526020840151602084015261555c85604086016154a8565b604084015260a0840151606084015260c0840151608084015260e084015191508082111561558957600080fd5b506155968482850161515c565b60a08301525092915050565b600082601f8301126155b357600080fd5b815160206155c3614a07836149c3565b82815260059290921b840181019181810190868411156155e257600080fd5b8286015b84811015614a465780516001600160401b03808211156156065760008081fd5b9088019060c0828b03601f19018113156156205760008081fd5b61562861486a565b87840151815260408085015189830152606080860151828401526080915081860151818401525060a080860151828401528386015193508484111561566f57600091508182fd5b61567d8e8b8689010161515c565b908301525086525050509183019183016155e6565b600060208083850312156156a557600080fd5b82516001600160401b03808211156156bc57600080fd5b9084019060c082870312156156d057600080fd5b6156d8614892565b825181526156e8878585016154a8565b848201526080830151828111156156fe57600080fd5b8301601f8101881361570f57600080fd5b805161571d614a07826149c3565b81815260059190911b8201860190868101908a83111561573c57600080fd5b8784015b83811015615774578051878111156157585760008081fd5b6157668d8b83890101615503565b845250918801918801615740565b50604085015250505060a083015193508184111561579157600080fd5b61579d878585016155a2565b60608201529695505050505050565b6040815260006157bf60408301856153bf565b8281036020840152614dd381856153bf565b6060815260006154786060830186614c64565b600060208083850312156157f757600080fd5b82516001600160401b0381111561580d57600080fd5b8301601f8101851361581e57600080fd5b805161582c614a07826149c3565b81815260069190911b8201830190838101908783111561584b57600080fd5b928401925b8284101561588e57604084890312156158695760008081fd5b6158716148b4565b845181528585015186820152825260409093019290840190615850565b979650505050505050565b6040815260006158ac6040830185615339565b8281036020840152614dd38185615339565b6000602082840312156158d057600080fd5b81516001600160401b038111156158e657600080fd5b61415d848285016155a2565b6000806040838503121561590557600080fd5b505080516020909101519092909150565b60008060006060848603121561592b57600080fd5b8351925060208401519150604084015190509250925092565b81518152602080830151610180830191615968908401826001600160a01b03169052565b50604083015161597b6040840182614e2d565b506060830151615990606084018260ff169052565b506080830151608083015260a08301516159b560a08401826001600160401b03169052565b5060c08301516159d060c08401826001600160401b03169052565b5060e08301516159eb60e08401826001600160401b03169052565b50610100838101516001600160401b0390811691840191909152610120808501518216908401526101408085015182169084015261016080850151918216818501529061385e565b604081526000615a466040830185615339565b90508260208301529392505050565b805182526020810151602083015260408101516040830152600060608201516080606085015261415d6080850182615339565b60a081526000615a9b60a0830188615339565b866020840152828103604084015285518152602086015160208201526040860151604082015260608601511515606082015260808601511515608082015260a086015160a082015260c086015160e060c0830152615afc60e0830182614ad8565b9150508281036060840152615b118186615a55565b90508281036080840152615b258185615339565b98975050505050505050565b600080600060a08486031215615b4657600080fd5b83516001600160401b03811115615b5c57600080fd5b615b68868287016155a2565b93505060208401519150615b7f85604086016154a8565b90509250925092565b602081526000610bac6020830184615339565b60008060808385031215615bae57600080fd5b82519150615bbf84602085016154a8565b90509250929050565b606081526000615bdb60608301866152a6565b60208301949094525060400152919050565b600060208284031215615bff57600080fd5b81516001600160401b03811115615c1557600080fd5b61415d84828501615503565b604081526000615a466040830185614c64565b608081526000615c4760808301876152a6565b8281036020840152615c598187615339565b9050846040840152828103606084015261588e8185615339565b60008060408385031215615c8657600080fd5b82516001600160401b0380821115615c9d57600080fd5b615ca986838701615503565b93506020850151915080821115615cbf57600080fd5b50615ccc858286016155a2565b9150509250929050565b600081615ce557615ce561508f565b506000190190565b8054825260018101546001600160a01b0381166020840152615d186040840160ff8360a01c16614e2d565b60a81c60ff1660608301526002810154608083015260038101546001600160401b0380821660a0850152604082901c811660c0850152615d6860e08501828460801c166001600160401b03169052565b60c082901c61010085015260048301546001600160401b03828216166101208601529150615da76101408501828460401c166001600160401b03169052565b615dc26101608501828460801c166001600160401b03169052565b50505050565b61018081016106da8284615ced565b60006101a0808301615de98487615ced565b6101808401919091528351908190526101c083019060209081860160005b82811015614f5557815185529383019390830190600101615e0756fea2646970667358221220320a65d0e2d793a1e6159e748a9aba561dba27d9da6042b2a6d4f4bdd3d90f8764736f6c634300080b0033","language":"Solidity","natspec":{"methods":{"ownerOf()":{"details":"Returns the address of the current owner."},"renounceOwnership()":{"details":"Leaves the contract without owner. It will not be possible to call `onlyOwner` functions anymore. Can only be called by the current owner. NOTE: Renouncing ownership will leave the contract without an owner, thereby removing any functionality that is only available to the owner."},"supportsInterface(bytes4)":{"details":"Returns true if this contract implements the interface defined by `interfaceId`. See the corresponding https://eips.ethereum.org/EIPS/eip-165#how-interfaces-are-identified[EIP section] to learn more about how these ids are created. This function call must use less than 30 000 gas."},"transferOwnership(address)":{"details":"Transfers ownership of the contract to a new account (`newOwner`). Can only be called by the current owner."}},"kind":"dev","version":1},"opcodes":"PUSH1 0x80 PUSH1 0x40 MSTORE CALLVALUE DUP1 ISZERO PUSH2 0x10 JUMPI PUSH1 0x0 DUP1 REVERT JUMPDEST POP PUSH1 0x4 CALLDATASIZE LT PUSH2 0x1A9 JUMPI PUSH1 0x0 CALLDATALOAD PUSH1 0xE0 SHR DUP1 PUSH4 0x854BA99D GT PUSH2 0xF9 JUMPI DUP1 PUSH4 0xCCBD1637 GT PUSH2 0x97 JUMPI DUP1 PUSH4 0xE4B16144 GT PUSH2 0x71 JUMPI DUP1 PUSH4 0xE4B16144 EQ PUSH2 0x466 JUMPI DUP1 PUSH4 0xE9F14CE6 EQ PUSH2 0x479 JUMPI DUP1 PUSH4 0xF2FDE38B EQ PUSH2 0x48C JUMPI DUP1 PUSH4 0xFEAB4454 EQ PUSH2 0x49F JUMPI PUSH2 0x1A9 JUMP JUMPDEST DUP1 PUSH4 0xCCBD1637 EQ PUSH2 0x424 JUMPI DUP1 PUSH4 0xCCC07959 EQ PUSH2 0x437 JUMPI DUP1 PUSH4 0xD6935858 EQ PUSH2 0x45E JUMPI PUSH2 0x1A9 JUMP JUMPDEST DUP1 PUSH4 0xAF640D0F GT PUSH2 0xD3 JUMPI DUP1 PUSH4 0xAF640D0F EQ PUSH2 0x3C5 JUMPI DUP1 PUSH4 0xB03FD40D EQ PUSH2 0x3EB JUMPI DUP1 PUSH4 0xB9B38745 EQ PUSH2 0x3FE JUMPI DUP1 PUSH4 0xBD0ADE2B EQ PUSH2 0x411 JUMPI PUSH2 0x1A9 JUMP JUMPDEST DUP1 PUSH4 0x854BA99D EQ PUSH2 0x382 JUMPI DUP1 PUSH4 0x8DA5CB5B EQ PUSH2 0x38A JUMPI DUP1 PUSH4 0x97962076 EQ PUSH2 0x3B5 JUMPI PUSH2 0x1A9 JUMP JUMPDEST DUP1 PUSH4 0x2203616D GT PUSH2 0x166 JUMPI DUP1 PUSH4 0x6B2B091A GT PUSH2 0x140 JUMPI DUP1 PUSH4 0x6B2B091A EQ PUSH2 0x331 JUMPI DUP1 PUSH4 0x715018A6 EQ PUSH2 0x351 JUMPI DUP1 PUSH4 0x72EA61BF EQ PUSH2 0x359 JUMPI DUP1 PUSH4 0x7AF6649A EQ PUSH2 0x361 JUMPI PUSH2 0x1A9 JUMP JUMPDEST DUP1 PUSH4 0x2203616D EQ PUSH2 0x2D6 JUMPI DUP1 PUSH4 0x5F5C5BAA EQ PUSH2 0x2FE JUMPI DUP1 PUSH4 0x62965141 EQ PUSH2 0x306 JUMPI PUSH2 0x1A9 JUMP JUMPDEST DUP1 PUSH4 0x1FFC9A7 EQ PUSH2 0x22E JUMPI DUP1 PUSH4 0x5D6BD9C EQ PUSH2 0x256 JUMPI DUP1 PUSH4 0x9252F02 EQ PUSH2 0x260 JUMPI DUP1 PUSH4 0xA3550AA EQ PUSH2 0x282 JUMPI DUP1 PUSH4 0x1EF4590D EQ PUSH2 0x2A3 JUMPI DUP1 PUSH4 0x21603F43 EQ PUSH2 0x2B6 JUMPI JUMPDEST PUSH2 0x1B1 PUSH2 0x4C9 JUMP JUMPDEST PUSH1 0x0 PUSH2 0x1C1 PUSH1 0x24 PUSH1 0x4 CALLDATASIZE DUP5 PUSH2 0x47EB JUMP JUMPDEST DUP1 DUP1 PUSH1 0x1F ADD PUSH1 0x20 DUP1 SWAP2 DIV MUL PUSH1 0x20 ADD PUSH1 0x40 MLOAD SWAP1 DUP2 ADD PUSH1 0x40 MSTORE DUP1 SWAP4 SWAP3 SWAP2 SWAP1 DUP2 DUP2 MSTORE PUSH1 0x20 ADD DUP4 DUP4 DUP1 DUP3 DUP5 CALLDATACOPY PUSH1 0x0 SWAP3 ADD DUP3 SWAP1 MSTORE POP PUSH1 0x20 DUP6 ADD MLOAD SWAP5 SWAP6 POP SWAP3 POP POP CALLDATASIZE PUSH1 0x23 NOT DUP2 ADD SWAP2 POP PUSH1 0x1F NOT ADD PUSH1 0x4 DUP4 DUP1 CALLDATACOPY DUP2 PUSH1 0x24 PUSH1 0x4 CALLDATACOPY PUSH1 0x0 DUP1 DUP3 PUSH1 0x0 DUP8 GAS DELEGATECALL SWAP3 POP POP POP PUSH2 0x229 DUP2 PUSH2 0x693 JUMP JUMPDEST POP POP POP STOP JUMPDEST PUSH2 0x241 PUSH2 0x23C CALLDATASIZE PUSH1 0x4 PUSH2 0x4815 JUMP JUMPDEST PUSH2 0x6A9 JUMP JUMPDEST PUSH1 0x40 MLOAD SWAP1 ISZERO ISZERO DUP2 MSTORE PUSH1 0x20 ADD JUMPDEST PUSH1 0x40 MLOAD DUP1 SWAP2 SUB SWAP1 RETURN JUMPDEST PUSH2 0x25E PUSH2 0x6E0 JUMP JUMPDEST STOP JUMPDEST PUSH2 0x273 PUSH2 0x26E CALLDATASIZE PUSH1 0x4 PUSH2 0x4A51 JUMP JUMPDEST PUSH2 0x6F7 JUMP JUMPDEST PUSH1 0x40 MLOAD PUSH2 0x24D SWAP4 SWAP3 SWAP2 SWAP1 PUSH2 0x4BA6 JUMP JUMPDEST PUSH2 0x295 PUSH2 0x290 CALLDATASIZE PUSH1 0x4 PUSH2 0x4BE2 JUMP JUMPDEST PUSH2 0x860 JUMP JUMPDEST PUSH1 0x40 MLOAD PUSH2 0x24D SWAP3 SWAP2 SWAP1 PUSH2 0x4C9F JUMP JUMPDEST PUSH2 0x241 PUSH2 0x2B1 CALLDATASIZE PUSH1 0x4 PUSH2 0x4DDC JUMP JUMPDEST PUSH2 0xB22 JUMP JUMPDEST PUSH2 0x2C9 PUSH2 0x2C4 CALLDATASIZE PUSH1 0x4 PUSH2 0x4DFE JUMP JUMPDEST PUSH2 0xBB3 JUMP JUMPDEST PUSH1 0x40 MLOAD PUSH2 0x24D SWAP2 SWAP1 PUSH2 0x4E4F JUMP JUMPDEST PUSH2 0x2E9 PUSH2 0x2E4 CALLDATASIZE PUSH1 0x4 PUSH2 0x4DFE JUMP JUMPDEST PUSH2 0xBC6 JUMP JUMPDEST PUSH1 0x40 MLOAD PUSH4 0xFFFFFFFF SWAP1 SWAP2 AND DUP2 MSTORE PUSH1 0x20 ADD PUSH2 0x24D JUMP JUMPDEST PUSH2 0x25E PUSH2 0xBD7 JUMP JUMPDEST PUSH2 0x319 PUSH2 0x314 CALLDATASIZE PUSH1 0x4 PUSH2 0x4DFE JUMP JUMPDEST PUSH2 0xCEC JUMP JUMPDEST PUSH1 0x40 MLOAD PUSH1 0x1 PUSH1 0x1 PUSH1 0x40 SHL SUB SWAP1 SWAP2 AND DUP2 MSTORE PUSH1 0x20 ADD PUSH2 0x24D JUMP JUMPDEST PUSH2 0x344 PUSH2 0x33F CALLDATASIZE PUSH1 0x4 PUSH2 0x4DFE JUMP JUMPDEST PUSH2 0xD1E JUMP JUMPDEST PUSH1 0x40 MLOAD PUSH2 0x24D SWAP2 SWAP1 PUSH2 0x4F00 JUMP JUMPDEST PUSH2 0x25E PUSH2 0x113A JUMP JUMPDEST PUSH2 0x25E PUSH2 0x114C JUMP JUMPDEST PUSH2 0x374 PUSH2 0x36F CALLDATASIZE PUSH1 0x4 PUSH2 0x4F62 JUMP JUMPDEST PUSH2 0x1166 JUMP JUMPDEST PUSH1 0x40 MLOAD SWAP1 DUP2 MSTORE PUSH1 0x20 ADD PUSH2 0x24D JUMP JUMPDEST PUSH2 0x241 PUSH2 0x117F JUMP JUMPDEST PUSH1 0x0 SLOAD PUSH3 0x10000 SWAP1 DIV PUSH1 0x1 PUSH1 0x1 PUSH1 0xA0 SHL SUB AND JUMPDEST PUSH1 0x40 MLOAD PUSH1 0x1 PUSH1 0x1 PUSH1 0xA0 SHL SUB SWAP1 SWAP2 AND DUP2 MSTORE PUSH1 0x20 ADD PUSH2 0x24D JUMP JUMPDEST PUSH1 0x0 SLOAD PUSH2 0x100 SWAP1 DIV PUSH1 0xFF AND PUSH2 0x241 JUMP JUMPDEST PUSH32 0xDCF6913C74762E0B3C7F94F504BB2BE7445BBD8D11ABEE9960F04EBF85E7A7B2 PUSH2 0x374 JUMP JUMPDEST PUSH2 0x374 PUSH2 0x3F9 CALLDATASIZE PUSH1 0x4 PUSH2 0x4F8A JUMP JUMPDEST PUSH2 0x119D JUMP JUMPDEST PUSH2 0x295 PUSH2 0x40C CALLDATASIZE PUSH1 0x4 PUSH2 0x4A51 JUMP JUMPDEST PUSH2 0x11B7 JUMP JUMPDEST PUSH2 0x273 PUSH2 0x41F CALLDATASIZE PUSH1 0x4 PUSH2 0x4BE2 JUMP JUMPDEST PUSH2 0x12FE JUMP JUMPDEST PUSH2 0x295 PUSH2 0x432 CALLDATASIZE PUSH1 0x4 PUSH2 0x4FB3 JUMP JUMPDEST PUSH2 0x15A8 JUMP JUMPDEST PUSH2 0x39D PUSH32 0x0 DUP2 JUMP JUMPDEST PUSH2 0x25E PUSH2 0x1883 JUMP JUMPDEST PUSH2 0x374 PUSH2 0x474 CALLDATASIZE PUSH1 0x4 PUSH2 0x5016 JUMP JUMPDEST PUSH2 0x189F JUMP JUMPDEST PUSH2 0x273 PUSH2 0x487 CALLDATASIZE PUSH1 0x4 PUSH2 0x4FB3 JUMP JUMPDEST PUSH2 0x18B6 JUMP JUMPDEST PUSH2 0x25E PUSH2 0x49A CALLDATASIZE PUSH1 0x4 PUSH2 0x503C JUMP JUMPDEST PUSH2 0x1BAF JUMP JUMPDEST PUSH2 0x4B2 PUSH2 0x4AD CALLDATASIZE PUSH1 0x4 PUSH2 0x4DFE JUMP JUMPDEST PUSH2 0x1C28 JUMP JUMPDEST PUSH1 0x40 MLOAD PUSH6 0xFFFFFFFFFFFF SWAP1 SWAP2 AND DUP2 MSTORE PUSH1 0x20 ADD PUSH2 0x24D JUMP JUMPDEST PUSH1 0x0 SLOAD PUSH1 0x1 PUSH1 0x1 PUSH1 0xA0 SHL SUB PUSH3 0x10000 SWAP1 SWAP2 DIV AND CALLER EQ DUP1 PUSH2 0x57C JUMPI POP PUSH1 0x1 PUSH1 0x1 PUSH1 0xA0 SHL SUB PUSH32 0x0 AND PUSH4 0x16279055 CALLER PUSH1 0x40 MLOAD PUSH1 0x1 PUSH1 0x1 PUSH1 0xE0 SHL SUB NOT PUSH1 0xE0 DUP5 SWAP1 SHL AND DUP2 MSTORE PUSH1 0x1 PUSH1 0x1 PUSH1 0xA0 SHL SUB SWAP1 SWAP2 AND PUSH1 0x4 DUP3 ADD MSTORE PUSH1 0x24 ADD PUSH1 0x20 PUSH1 0x40 MLOAD DUP1 DUP4 SUB DUP2 DUP7 GAS STATICCALL ISZERO DUP1 ISZERO PUSH2 0x558 JUMPI RETURNDATASIZE PUSH1 0x0 DUP1 RETURNDATACOPY RETURNDATASIZE PUSH1 0x0 REVERT JUMPDEST POP POP POP POP PUSH1 0x40 MLOAD RETURNDATASIZE PUSH1 0x1F NOT PUSH1 0x1F DUP3 ADD AND DUP3 ADD DUP1 PUSH1 0x40 MSTORE POP DUP2 ADD SWAP1 PUSH2 0x57C SWAP2 SWAP1 PUSH2 0x5059 JUMP JUMPDEST DUP1 PUSH2 0x61A JUMPI POP PUSH1 0x1 PUSH1 0x1 PUSH1 0xA0 SHL SUB PUSH32 0x0 AND PUSH4 0x6D70F7AE CALLER PUSH1 0x40 MLOAD PUSH1 0x1 PUSH1 0x1 PUSH1 0xE0 SHL SUB NOT PUSH1 0xE0 DUP5 SWAP1 SHL AND DUP2 MSTORE PUSH1 0x1 PUSH1 0x1 PUSH1 0xA0 SHL SUB SWAP1 SWAP2 AND PUSH1 0x4 DUP3 ADD MSTORE PUSH1 0x24 ADD PUSH1 0x20 PUSH1 0x40 MLOAD DUP1 DUP4 SUB DUP2 DUP7 GAS STATICCALL ISZERO DUP1 ISZERO PUSH2 0x5F6 JUMPI RETURNDATASIZE PUSH1 0x0 DUP1 RETURNDATACOPY RETURNDATASIZE PUSH1 0x0 REVERT JUMPDEST POP POP POP POP PUSH1 0x40 MLOAD RETURNDATASIZE PUSH1 0x1F NOT PUSH1 0x1F DUP3 ADD AND DUP3 ADD DUP1 PUSH1 0x40 MSTORE POP DUP2 ADD SWAP1 PUSH2 0x61A SWAP2 SWAP1 PUSH2 0x5059 JUMP JUMPDEST PUSH2 0x691 JUMPI PUSH1 0x40 MLOAD PUSH3 0x461BCD PUSH1 0xE5 SHL DUP2 MSTORE PUSH1 0x20 PUSH1 0x4 DUP3 ADD MSTORE PUSH1 0x39 PUSH1 0x24 DUP3 ADD MSTORE PUSH32 0x416C6C6F77616E63653A2063616C6C6572206D757374206265205265706F7369 PUSH1 0x44 DUP3 ADD MSTORE PUSH32 0x746F727920436F6E7472616374206F72204F70657261746F7200000000000000 PUSH1 0x64 DUP3 ADD MSTORE PUSH1 0x84 ADD JUMPDEST PUSH1 0x40 MLOAD DUP1 SWAP2 SUB SWAP1 REVERT JUMPDEST JUMP JUMPDEST RETURNDATASIZE PUSH1 0x0 DUP1 RETURNDATACOPY DUP1 DUP1 ISZERO PUSH2 0x6A4 JUMPI RETURNDATASIZE PUSH1 0x0 RETURN JUMPDEST RETURNDATASIZE PUSH1 0x0 REVERT JUMPDEST PUSH1 0x0 PUSH1 0x1 PUSH1 0x1 PUSH1 0xE0 SHL SUB NOT DUP3 AND PUSH4 0x1FFC9A7 PUSH1 0xE0 SHL EQ DUP1 PUSH2 0x6DA JUMPI POP PUSH1 0x1 PUSH1 0x1 PUSH1 0xE0 SHL SUB NOT DUP3 AND PUSH4 0x15D37895 PUSH1 0xE3 SHL EQ JUMPDEST SWAP3 SWAP2 POP POP JUMP JUMPDEST PUSH2 0x6E8 PUSH2 0x4C9 JUMP JUMPDEST PUSH2 0x691 PUSH1 0x0 DUP1 SLOAD PUSH1 0xFF NOT AND SWAP1 SSTORE JUMP JUMPDEST PUSH1 0x60 PUSH1 0x0 PUSH2 0x71F PUSH1 0x40 MLOAD DUP1 PUSH1 0x60 ADD PUSH1 0x40 MSTORE DUP1 PUSH1 0x0 DUP2 MSTORE PUSH1 0x20 ADD PUSH1 0x0 DUP2 MSTORE PUSH1 0x20 ADD PUSH1 0x0 DUP2 MSTORE POP SWAP1 JUMP JUMPDEST PUSH1 0x40 MLOAD PUSH4 0x27BCDBC9 PUSH1 0xE1 SHL DUP2 MSTORE PUSH1 0x1 PUSH1 0x1 PUSH1 0xA0 SHL SUB DUP11 DUP2 AND PUSH1 0x4 DUP4 ADD MSTORE PUSH1 0x24 DUP3 ADD DUP11 SWAP1 MSTORE PUSH2 0x84E SWAP2 PUSH32 0x0 SWAP1 SWAP2 AND SWAP1 PUSH4 0x4F79B792 SWAP1 PUSH1 0x44 ADD PUSH1 0x20 PUSH1 0x40 MLOAD DUP1 DUP4 SUB DUP2 DUP7 GAS STATICCALL ISZERO DUP1 ISZERO PUSH2 0x792 JUMPI RETURNDATASIZE PUSH1 0x0 DUP1 RETURNDATACOPY RETURNDATASIZE PUSH1 0x0 REVERT JUMPDEST POP POP POP POP PUSH1 0x40 MLOAD RETURNDATASIZE PUSH1 0x1F NOT PUSH1 0x1F DUP3 ADD AND DUP3 ADD DUP1 PUSH1 0x40 MSTORE POP DUP2 ADD SWAP1 PUSH2 0x7B6 SWAP2 SWAP1 PUSH2 0x5076 JUMP JUMPDEST PUSH1 0x40 MLOAD PUSH4 0x27BCDBC9 PUSH1 0xE1 SHL DUP2 MSTORE PUSH1 0x1 PUSH1 0x1 PUSH1 0xA0 SHL SUB DUP11 DUP2 AND PUSH1 0x4 DUP4 ADD MSTORE PUSH1 0x24 DUP3 ADD DUP11 SWAP1 MSTORE PUSH32 0x0 AND SWAP1 PUSH4 0x4F79B792 SWAP1 PUSH1 0x44 ADD PUSH1 0x20 PUSH1 0x40 MLOAD DUP1 DUP4 SUB DUP2 DUP7 GAS STATICCALL ISZERO DUP1 ISZERO PUSH2 0x823 JUMPI RETURNDATASIZE PUSH1 0x0 DUP1 RETURNDATACOPY RETURNDATASIZE PUSH1 0x0 REVERT JUMPDEST POP POP POP POP PUSH1 0x40 MLOAD RETURNDATASIZE PUSH1 0x1F NOT PUSH1 0x1F DUP3 ADD AND DUP3 ADD DUP1 PUSH1 0x40 MSTORE POP DUP2 ADD SWAP1 PUSH2 0x847 SWAP2 SWAP1 PUSH2 0x5076 JUMP JUMPDEST DUP8 DUP8 PUSH2 0x18B6 JUMP JUMPDEST SWAP3 POP SWAP3 POP SWAP3 POP SWAP7 POP SWAP7 POP SWAP7 SWAP4 POP POP POP POP JUMP JUMPDEST PUSH2 0x868 PUSH2 0x461E JUMP JUMPDEST PUSH1 0x60 PUSH1 0x0 DUP4 JUMPDEST PUSH2 0x879 PUSH1 0x8 DUP3 PUSH2 0x50A5 JUMP JUMPDEST DUP3 LT ISZERO PUSH2 0x8C2 JUMPI DUP6 DUP6 PUSH2 0x88D DUP5 PUSH1 0x8 PUSH2 0x50BC JUMP JUMPDEST DUP2 DUP2 LT PUSH2 0x89C JUMPI PUSH2 0x89C PUSH2 0x50D4 JUMP JUMPDEST SWAP1 POP PUSH1 0x20 MUL ADD CALLDATALOAD PUSH1 0x0 EQ ISZERO PUSH2 0x8B0 JUMPI PUSH2 0x8C2 JUMP JUMPDEST DUP2 PUSH2 0x8BA DUP2 PUSH2 0x50EA JUMP JUMPDEST SWAP3 POP POP PUSH2 0x86E JUMP JUMPDEST PUSH1 0x0 DUP3 PUSH1 0x1 PUSH1 0x1 PUSH1 0x40 SHL SUB DUP2 GT ISZERO PUSH2 0x8DC JUMPI PUSH2 0x8DC PUSH2 0x4854 JUMP JUMPDEST PUSH1 0x40 MLOAD SWAP1 DUP1 DUP3 MSTORE DUP1 PUSH1 0x20 MUL PUSH1 0x20 ADD DUP3 ADD PUSH1 0x40 MSTORE DUP1 ISZERO PUSH2 0x905 JUMPI DUP2 PUSH1 0x20 ADD PUSH1 0x20 DUP3 MUL DUP1 CALLDATASIZE DUP4 CALLDATACOPY ADD SWAP1 POP JUMPDEST POP SWAP1 POP PUSH1 0x0 JUMPDEST DUP4 DUP2 LT ISZERO PUSH2 0x965 JUMPI DUP8 DUP8 PUSH2 0x920 DUP4 PUSH1 0x8 PUSH2 0x50BC JUMP JUMPDEST DUP2 DUP2 LT PUSH2 0x92F JUMPI PUSH2 0x92F PUSH2 0x50D4 JUMP JUMPDEST SWAP1 POP PUSH1 0x20 MUL ADD CALLDATALOAD DUP3 DUP3 DUP2 MLOAD DUP2 LT PUSH2 0x948 JUMPI PUSH2 0x948 PUSH2 0x50D4 JUMP JUMPDEST PUSH1 0x20 SWAP1 DUP2 MUL SWAP2 SWAP1 SWAP2 ADD ADD MSTORE DUP1 PUSH2 0x95D DUP2 PUSH2 0x50EA JUMP JUMPDEST SWAP2 POP POP PUSH2 0x90B JUMP JUMPDEST POP PUSH2 0xB11 DUP10 PUSH1 0x40 MLOAD DUP1 PUSH1 0xE0 ADD PUSH1 0x40 MSTORE DUP1 DUP12 DUP2 MSTORE PUSH1 0x20 ADD DUP11 DUP11 PUSH1 0x0 DUP2 DUP2 LT PUSH2 0x98E JUMPI PUSH2 0x98E PUSH2 0x50D4 JUMP JUMPDEST SWAP1 POP PUSH1 0x20 MUL ADD CALLDATALOAD DUP2 MSTORE PUSH1 0x20 ADD DUP11 DUP11 PUSH1 0x1 DUP2 DUP2 LT PUSH2 0x9AD JUMPI PUSH2 0x9AD PUSH2 0x50D4 JUMP JUMPDEST SWAP1 POP PUSH1 0x20 MUL ADD CALLDATALOAD DUP2 MSTORE PUSH1 0x20 ADD DUP11 DUP11 PUSH1 0x2 DUP2 DUP2 LT PUSH2 0x9CC JUMPI PUSH2 0x9CC PUSH2 0x50D4 JUMP JUMPDEST SWAP1 POP PUSH1 0x20 MUL ADD CALLDATALOAD PUSH1 0x0 EQ ISZERO ISZERO ISZERO DUP2 MSTORE PUSH1 0x20 ADD DUP11 DUP11 PUSH1 0x3 DUP2 DUP2 LT PUSH2 0x9F1 JUMPI PUSH2 0x9F1 PUSH2 0x50D4 JUMP JUMPDEST SWAP1 POP PUSH1 0x20 MUL ADD CALLDATALOAD PUSH1 0x0 EQ ISZERO ISZERO ISZERO DUP2 MSTORE PUSH1 0x20 ADD DUP11 DUP11 PUSH1 0x7 DUP2 DUP2 LT PUSH2 0xA16 JUMPI PUSH2 0xA16 PUSH2 0x50D4 JUMP JUMPDEST SWAP1 POP PUSH1 0x20 MUL ADD CALLDATALOAD DUP2 MSTORE PUSH1 0x20 ADD DUP5 DUP2 MSTORE POP PUSH1 0x40 MLOAD DUP1 PUSH1 0x80 ADD PUSH1 0x40 MSTORE DUP1 DUP12 DUP12 PUSH1 0x5 DUP2 DUP2 LT PUSH2 0xA44 JUMPI PUSH2 0xA44 PUSH2 0x50D4 JUMP JUMPDEST SWAP1 POP PUSH1 0x20 MUL ADD CALLDATALOAD DUP2 MSTORE PUSH1 0x20 ADD DUP12 DUP12 PUSH1 0x6 DUP2 DUP2 LT PUSH2 0xA63 JUMPI PUSH2 0xA63 PUSH2 0x50D4 JUMP JUMPDEST SWAP1 POP PUSH1 0x20 MUL ADD CALLDATALOAD DUP2 MSTORE PUSH1 0x20 ADD DUP12 DUP12 PUSH1 0x4 DUP2 DUP2 LT PUSH2 0xA82 JUMPI PUSH2 0xA82 PUSH2 0x50D4 JUMP JUMPDEST PUSH1 0x20 SWAP1 DUP2 MUL SWAP3 SWAP1 SWAP3 ADD CALLDATALOAD DUP4 MSTORE POP ADD PUSH1 0x0 PUSH1 0x40 MLOAD SWAP1 DUP1 DUP3 MSTORE DUP1 PUSH1 0x20 MUL PUSH1 0x20 ADD DUP3 ADD PUSH1 0x40 MSTORE DUP1 ISZERO PUSH2 0xACB JUMPI DUP2 PUSH1 0x20 ADD JUMPDEST PUSH2 0xAB8 PUSH2 0x4668 JUMP JUMPDEST DUP2 MSTORE PUSH1 0x20 ADD SWAP1 PUSH1 0x1 SWAP1 SUB SWAP1 DUP2 PUSH2 0xAB0 JUMPI SWAP1 POP JUMPDEST POP SWAP1 MSTORE PUSH1 0x40 DUP1 MLOAD PUSH1 0x0 DUP1 DUP3 MSTORE PUSH1 0x20 DUP3 ADD SWAP1 SWAP3 MSTORE SWAP1 PUSH2 0xB0B JUMP JUMPDEST PUSH1 0x40 DUP1 MLOAD DUP1 DUP3 ADD SWAP1 SWAP2 MSTORE PUSH1 0x0 DUP1 DUP3 MSTORE PUSH1 0x20 DUP3 ADD MSTORE DUP2 MSTORE PUSH1 0x20 ADD SWAP1 PUSH1 0x1 SWAP1 SUB SWAP1 DUP2 PUSH2 0xAE4 JUMPI SWAP1 POP JUMPDEST POP PUSH2 0x1C39 JUMP JUMPDEST SWAP5 POP SWAP5 POP POP POP POP JUMPDEST SWAP5 POP SWAP5 SWAP3 POP POP POP JUMP JUMPDEST PUSH1 0x0 DUP3 DUP2 MSTORE PUSH1 0x1 PUSH1 0x20 MSTORE PUSH1 0x40 DUP1 DUP3 KECCAK256 SWAP1 MLOAD PUSH4 0x2BE5DB23 PUSH1 0xE1 SHL DUP2 MSTORE PUSH1 0x4 DUP2 ADD SWAP2 SWAP1 SWAP2 MSTORE PUSH1 0x24 DUP2 ADD DUP4 SWAP1 MSTORE PUSH20 0x0 SWAP1 PUSH4 0x57CBB646 SWAP1 PUSH1 0x44 ADD PUSH1 0x20 PUSH1 0x40 MLOAD DUP1 DUP4 SUB DUP2 DUP7 GAS DELEGATECALL ISZERO DUP1 ISZERO PUSH2 0xB88 JUMPI RETURNDATASIZE PUSH1 0x0 DUP1 RETURNDATACOPY RETURNDATASIZE PUSH1 0x0 REVERT JUMPDEST POP POP POP POP PUSH1 0x40 MLOAD RETURNDATASIZE PUSH1 0x1F NOT PUSH1 0x1F DUP3 ADD AND DUP3 ADD DUP1 PUSH1 0x40 MSTORE POP DUP2 ADD SWAP1 PUSH2 0xBAC SWAP2 SWAP1 PUSH2 0x5059 JUMP JUMPDEST SWAP4 SWAP3 POP POP POP JUMP JUMPDEST PUSH2 0xBBB PUSH2 0x46A1 JUMP JUMPDEST PUSH2 0x6DA DUP3 PUSH1 0x0 PUSH2 0x2667 JUMP JUMPDEST PUSH1 0x0 PUSH2 0x6DA PUSH5 0xE8D4A51000 DUP4 PUSH2 0x5105 JUMP JUMPDEST PUSH1 0x0 SLOAD PUSH1 0x1 PUSH1 0x1 PUSH1 0xA0 SHL SUB PUSH3 0x10000 SWAP1 SWAP2 DIV AND CALLER EQ DUP1 PUSH2 0xC8A JUMPI POP PUSH1 0x1 PUSH1 0x1 PUSH1 0xA0 SHL SUB PUSH32 0x0 AND PUSH4 0x6D70F7AE CALLER PUSH1 0x40 MLOAD PUSH1 0x1 PUSH1 0x1 PUSH1 0xE0 SHL SUB NOT PUSH1 0xE0 DUP5 SWAP1 SHL AND DUP2 MSTORE PUSH1 0x1 PUSH1 0x1 PUSH1 0xA0 SHL SUB SWAP1 SWAP2 AND PUSH1 0x4 DUP3 ADD MSTORE PUSH1 0x24 ADD PUSH1 0x20 PUSH1 0x40 MLOAD DUP1 DUP4 SUB DUP2 DUP7 GAS STATICCALL ISZERO DUP1 ISZERO PUSH2 0xC66 JUMPI RETURNDATASIZE PUSH1 0x0 DUP1 RETURNDATACOPY RETURNDATASIZE PUSH1 0x0 REVERT JUMPDEST POP POP POP POP PUSH1 0x40 MLOAD RETURNDATASIZE PUSH1 0x1F NOT PUSH1 0x1F DUP3 ADD AND DUP3 ADD DUP1 PUSH1 0x40 MSTORE POP DUP2 ADD SWAP1 PUSH2 0xC8A SWAP2 SWAP1 PUSH2 0x5059 JUMP JUMPDEST PUSH2 0x691 JUMPI PUSH1 0x40 MLOAD PUSH3 0x461BCD PUSH1 0xE5 SHL DUP2 MSTORE PUSH1 0x20 PUSH1 0x4 DUP3 ADD MSTORE PUSH1 0x2D PUSH1 0x24 DUP3 ADD MSTORE PUSH32 0x416C6C6F77616E63653A2063616C6C6572206D757374206265205265706F7369 PUSH1 0x44 DUP3 ADD MSTORE PUSH13 0x3A37B93C9027B832B930BA37B9 PUSH1 0x99 SHL PUSH1 0x64 DUP3 ADD MSTORE PUSH1 0x84 ADD PUSH2 0x688 JUMP JUMPDEST PUSH1 0x0 DUP1 PUSH2 0xCFE PUSH5 0x2540BE400 DUP5 PUSH2 0x5105 JUMP JUMPDEST SWAP1 POP DUP3 PUSH2 0xD10 DUP3 PUSH5 0x2540BE400 PUSH2 0x5127 JUMP JUMPDEST GT ISZERO PUSH2 0x6DA JUMPI PUSH2 0x6DA PUSH2 0x5146 JUMP JUMPDEST PUSH1 0x0 DUP2 DUP2 MSTORE PUSH1 0x1 PUSH1 0x20 SWAP1 DUP2 MSTORE PUSH1 0x40 DUP1 DUP4 KECCAK256 DUP1 SLOAD DUP3 MLOAD DUP2 DUP6 MUL DUP2 ADD DUP6 ADD SWAP1 SWAP4 MSTORE DUP1 DUP4 MSTORE PUSH1 0x60 SWAP5 SWAP4 DUP4 ADD DUP3 DUP3 DUP1 ISZERO PUSH2 0xD73 JUMPI PUSH1 0x20 MUL DUP3 ADD SWAP2 SWAP1 PUSH1 0x0 MSTORE PUSH1 0x20 PUSH1 0x0 KECCAK256 SWAP1 JUMPDEST DUP2 SLOAD DUP2 MSTORE PUSH1 0x20 ADD SWAP1 PUSH1 0x1 ADD SWAP1 DUP1 DUP4 GT PUSH2 0xD5F JUMPI JUMPDEST POP POP POP POP POP SWAP1 POP DUP1 MLOAD PUSH1 0x1 PUSH1 0x1 PUSH1 0x40 SHL SUB DUP2 GT ISZERO PUSH2 0xD93 JUMPI PUSH2 0xD93 PUSH2 0x4854 JUMP JUMPDEST PUSH1 0x40 MLOAD SWAP1 DUP1 DUP3 MSTORE DUP1 PUSH1 0x20 MUL PUSH1 0x20 ADD DUP3 ADD PUSH1 0x40 MSTORE DUP1 ISZERO PUSH2 0xDC6 JUMPI DUP2 PUSH1 0x20 ADD JUMPDEST PUSH1 0x60 DUP2 MSTORE PUSH1 0x20 ADD SWAP1 PUSH1 0x1 SWAP1 SUB SWAP1 DUP2 PUSH2 0xDB1 JUMPI SWAP1 POP JUMPDEST POP SWAP2 POP PUSH1 0x0 DUP1 JUMPDEST DUP3 MLOAD DUP2 LT ISZERO PUSH2 0x10E7 JUMPI PUSH32 0x0 PUSH1 0x1 PUSH1 0x1 PUSH1 0xA0 SHL SUB AND PUSH4 0x38A699A4 DUP5 DUP4 DUP2 MLOAD DUP2 LT PUSH2 0xE17 JUMPI PUSH2 0xE17 PUSH2 0x50D4 JUMP JUMPDEST PUSH1 0x20 MUL PUSH1 0x20 ADD ADD MLOAD PUSH1 0x40 MLOAD DUP3 PUSH4 0xFFFFFFFF AND PUSH1 0xE0 SHL DUP2 MSTORE PUSH1 0x4 ADD PUSH2 0xE3D SWAP2 DUP2 MSTORE PUSH1 0x20 ADD SWAP1 JUMP JUMPDEST PUSH1 0x20 PUSH1 0x40 MLOAD DUP1 DUP4 SUB DUP2 DUP7 GAS STATICCALL ISZERO DUP1 ISZERO PUSH2 0xE5A JUMPI RETURNDATASIZE PUSH1 0x0 DUP1 RETURNDATACOPY RETURNDATASIZE PUSH1 0x0 REVERT JUMPDEST POP POP POP POP PUSH1 0x40 MLOAD RETURNDATASIZE PUSH1 0x1F NOT PUSH1 0x1F DUP3 ADD AND DUP3 ADD DUP1 PUSH1 0x40 MSTORE POP DUP2 ADD SWAP1 PUSH2 0xE7E SWAP2 SWAP1 PUSH2 0x5059 JUMP JUMPDEST PUSH2 0xE87 JUMPI PUSH2 0x10D5 JUMP JUMPDEST PUSH1 0x0 PUSH32 0x0 PUSH1 0x1 PUSH1 0x1 PUSH1 0xA0 SHL SUB AND PUSH4 0x27EE9DC2 DUP6 DUP5 DUP2 MLOAD DUP2 LT PUSH2 0xECA JUMPI PUSH2 0xECA PUSH2 0x50D4 JUMP JUMPDEST PUSH1 0x20 MUL PUSH1 0x20 ADD ADD MLOAD PUSH1 0x40 MLOAD DUP3 PUSH4 0xFFFFFFFF AND PUSH1 0xE0 SHL DUP2 MSTORE PUSH1 0x4 ADD PUSH2 0xEF0 SWAP2 DUP2 MSTORE PUSH1 0x20 ADD SWAP1 JUMP JUMPDEST PUSH1 0x0 PUSH1 0x40 MLOAD DUP1 DUP4 SUB DUP2 DUP7 GAS STATICCALL ISZERO DUP1 ISZERO PUSH2 0xF0D JUMPI RETURNDATASIZE PUSH1 0x0 DUP1 RETURNDATACOPY RETURNDATASIZE PUSH1 0x0 REVERT JUMPDEST POP POP POP POP PUSH1 0x40 MLOAD RETURNDATASIZE PUSH1 0x0 DUP3 RETURNDATACOPY PUSH1 0x1F RETURNDATASIZE SWAP1 DUP2 ADD PUSH1 0x1F NOT AND DUP3 ADD PUSH1 0x40 MSTORE PUSH2 0xF35 SWAP2 SWAP1 DUP2 ADD SWAP1 PUSH2 0x51B7 JUMP JUMPDEST SWAP1 POP PUSH1 0x0 DUP2 MLOAD GT PUSH2 0xF82 JUMPI PUSH1 0x40 MLOAD PUSH3 0x461BCD PUSH1 0xE5 SHL DUP2 MSTORE PUSH1 0x20 PUSH1 0x4 DUP3 ADD MSTORE PUSH1 0x17 PUSH1 0x24 DUP3 ADD MSTORE PUSH23 0x5F706174684C69737420706174682E6C656E6774683E3 PUSH1 0x4C SHL PUSH1 0x44 DUP3 ADD MSTORE PUSH1 0x64 ADD PUSH2 0x688 JUMP JUMPDEST PUSH1 0x0 JUMPDEST PUSH1 0x1 DUP3 MLOAD PUSH2 0xF93 SWAP2 SWAP1 PUSH2 0x50A5 JUMP JUMPDEST DUP2 LT ISZERO PUSH2 0x108D JUMPI PUSH2 0x1072 PUSH20 0x0 PUSH4 0x76254FF9 DUP5 DUP5 DUP2 MLOAD DUP2 LT PUSH2 0xFC9 JUMPI PUSH2 0xFC9 PUSH2 0x50D4 JUMP JUMPDEST PUSH1 0x20 MUL PUSH1 0x20 ADD ADD MLOAD DUP6 DUP6 PUSH1 0x1 PUSH2 0xFDF SWAP2 SWAP1 PUSH2 0x50BC JUMP JUMPDEST DUP2 MLOAD DUP2 LT PUSH2 0xFEF JUMPI PUSH2 0xFEF PUSH2 0x50D4 JUMP JUMPDEST PUSH1 0x20 MUL PUSH1 0x20 ADD ADD MLOAD PUSH1 0x40 MLOAD DUP4 PUSH4 0xFFFFFFFF AND PUSH1 0xE0 SHL DUP2 MSTORE PUSH1 0x4 ADD PUSH2 0x101D SWAP3 SWAP2 SWAP1 SWAP2 DUP3 MSTORE PUSH1 0x20 DUP3 ADD MSTORE PUSH1 0x40 ADD SWAP1 JUMP JUMPDEST PUSH1 0x20 PUSH1 0x40 MLOAD DUP1 DUP4 SUB DUP2 DUP7 GAS DELEGATECALL ISZERO DUP1 ISZERO PUSH2 0x103A JUMPI RETURNDATASIZE PUSH1 0x0 DUP1 RETURNDATACOPY RETURNDATASIZE PUSH1 0x0 REVERT JUMPDEST POP POP POP POP PUSH1 0x40 MLOAD RETURNDATASIZE PUSH1 0x1F NOT PUSH1 0x1F DUP3 ADD AND DUP3 ADD DUP1 PUSH1 0x40 MSTORE POP DUP2 ADD SWAP1 PUSH2 0x105E SWAP2 SWAP1 PUSH2 0x5076 JUMP JUMPDEST PUSH1 0x0 SWAP1 DUP2 MSTORE PUSH1 0x6 PUSH1 0x20 MSTORE PUSH1 0x40 SWAP1 KECCAK256 SLOAD ISZERO ISZERO SWAP1 JUMP JUMPDEST PUSH2 0x107B JUMPI PUSH2 0x108D JUMP JUMPDEST DUP1 PUSH2 0x1085 DUP2 PUSH2 0x50EA JUMP JUMPDEST SWAP2 POP POP PUSH2 0xF85 JUMP JUMPDEST PUSH1 0x1 DUP3 MLOAD PUSH2 0x109B SWAP2 SWAP1 PUSH2 0x50A5 JUMP JUMPDEST DUP2 LT ISZERO PUSH2 0x10A9 JUMPI POP POP PUSH2 0x10D5 JUMP JUMPDEST DUP2 DUP7 DUP6 PUSH2 0x10B5 DUP2 PUSH2 0x50EA JUMP JUMPDEST SWAP7 POP DUP2 MLOAD DUP2 LT PUSH2 0x10C7 JUMPI PUSH2 0x10C7 PUSH2 0x50D4 JUMP JUMPDEST PUSH1 0x20 MUL PUSH1 0x20 ADD ADD DUP2 SWAP1 MSTORE POP POP POP JUMPDEST DUP1 PUSH2 0x10DF DUP2 PUSH2 0x50EA JUMP JUMPDEST SWAP2 POP POP PUSH2 0xDCD JUMP JUMPDEST POP DUP1 DUP4 MSTORE PUSH1 0x0 DUP2 GT PUSH2 0x1133 JUMPI PUSH1 0x40 MLOAD PUSH3 0x461BCD PUSH1 0xE5 SHL DUP2 MSTORE PUSH1 0x20 PUSH1 0x4 DUP3 ADD MSTORE PUSH1 0x15 PUSH1 0x24 DUP3 ADD MSTORE PUSH21 0x5F6C6973745061746846726F6D20636F756E743E3 PUSH1 0x5C SHL PUSH1 0x44 DUP3 ADD MSTORE PUSH1 0x64 ADD PUSH2 0x688 JUMP JUMPDEST POP POP SWAP2 SWAP1 POP JUMP JUMPDEST PUSH2 0x1142 PUSH2 0x2DD0 JUMP JUMPDEST PUSH2 0x691 PUSH1 0x0 PUSH2 0x2E31 JUMP JUMPDEST PUSH2 0x1154 PUSH2 0x4C9 JUMP JUMPDEST PUSH2 0x691 PUSH1 0x0 DUP1 SLOAD PUSH1 0xFF NOT AND PUSH1 0x1 OR SWAP1 SSTORE JUMP JUMPDEST PUSH1 0x0 PUSH2 0x6DA PUSH6 0xFFFFFFFFFFFF DUP4 AND PUSH5 0x174876E800 PUSH2 0x5127 JUMP JUMPDEST PUSH1 0x0 DUP1 SLOAD PUSH1 0xFF AND DUP1 PUSH2 0x1198 JUMPI POP PUSH1 0x0 SLOAD PUSH2 0x100 SWAP1 DIV PUSH1 0xFF AND JUMPDEST SWAP1 POP SWAP1 JUMP JUMPDEST PUSH1 0x0 PUSH2 0x6DA PUSH1 0x1 PUSH1 0x1 PUSH1 0x40 SHL SUB DUP4 AND PUSH5 0x2540BE400 PUSH2 0x5127 JUMP JUMPDEST PUSH2 0x11BF PUSH2 0x461E JUMP JUMPDEST PUSH1 0x40 MLOAD PUSH4 0x27BCDBC9 PUSH1 0xE1 SHL DUP2 MSTORE PUSH1 0x1 PUSH1 0x1 PUSH1 0xA0 SHL SUB DUP9 DUP2 AND PUSH1 0x4 DUP4 ADD MSTORE PUSH1 0x24 DUP3 ADD DUP9 SWAP1 MSTORE PUSH1 0x60 SWAP2 PUSH2 0x12EF SWAP2 PUSH32 0x0 AND SWAP1 PUSH4 0x4F79B792 SWAP1 PUSH1 0x44 ADD PUSH1 0x20 PUSH1 0x40 MLOAD DUP1 DUP4 SUB DUP2 DUP7 GAS STATICCALL ISZERO DUP1 ISZERO PUSH2 0x1233 JUMPI RETURNDATASIZE PUSH1 0x0 DUP1 RETURNDATACOPY RETURNDATASIZE PUSH1 0x0 REVERT JUMPDEST POP POP POP POP PUSH1 0x40 MLOAD RETURNDATASIZE PUSH1 0x1F NOT PUSH1 0x1F DUP3 ADD AND DUP3 ADD DUP1 PUSH1 0x40 MSTORE POP DUP2 ADD SWAP1 PUSH2 0x1257 SWAP2 SWAP1 PUSH2 0x5076 JUMP JUMPDEST PUSH1 0x40 MLOAD PUSH4 0x27BCDBC9 PUSH1 0xE1 SHL DUP2 MSTORE PUSH1 0x1 PUSH1 0x1 PUSH1 0xA0 SHL SUB DUP10 DUP2 AND PUSH1 0x4 DUP4 ADD MSTORE PUSH1 0x24 DUP3 ADD DUP10 SWAP1 MSTORE PUSH32 0x0 AND SWAP1 PUSH4 0x4F79B792 SWAP1 PUSH1 0x44 ADD PUSH1 0x20 PUSH1 0x40 MLOAD DUP1 DUP4 SUB DUP2 DUP7 GAS STATICCALL ISZERO DUP1 ISZERO PUSH2 0x12C4 JUMPI RETURNDATASIZE PUSH1 0x0 DUP1 RETURNDATACOPY RETURNDATASIZE PUSH1 0x0 REVERT JUMPDEST POP POP POP POP PUSH1 0x40 MLOAD RETURNDATASIZE PUSH1 0x1F NOT PUSH1 0x1F DUP3 ADD AND DUP3 ADD DUP1 PUSH1 0x40 MSTORE POP DUP2 ADD SWAP1 PUSH2 0x12E8 SWAP2 SWAP1 PUSH2 0x5076 JUMP JUMPDEST DUP7 DUP7 PUSH2 0x15A8 JUMP JUMPDEST SWAP2 POP SWAP2 POP SWAP7 POP SWAP7 SWAP5 POP POP POP POP POP JUMP JUMPDEST PUSH1 0x60 PUSH1 0x0 PUSH2 0x1326 PUSH1 0x40 MLOAD DUP1 PUSH1 0x60 ADD PUSH1 0x40 MSTORE DUP1 PUSH1 0x0 DUP2 MSTORE PUSH1 0x20 ADD PUSH1 0x0 DUP2 MSTORE PUSH1 0x20 ADD PUSH1 0x0 DUP2 MSTORE POP SWAP1 JUMP JUMPDEST PUSH1 0x0 DUP1 PUSH2 0x1334 PUSH1 0x8 DUP8 PUSH2 0x50A5 JUMP JUMPDEST SWAP1 POP JUMPDEST DUP1 DUP3 LT ISZERO PUSH2 0x1381 JUMPI DUP7 DUP7 PUSH2 0x134C DUP5 PUSH1 0x8 PUSH2 0x50BC JUMP JUMPDEST DUP2 DUP2 LT PUSH2 0x135B JUMPI PUSH2 0x135B PUSH2 0x50D4 JUMP JUMPDEST SWAP1 POP PUSH1 0x20 MUL ADD CALLDATALOAD PUSH1 0x0 EQ ISZERO PUSH2 0x136F JUMPI PUSH2 0x1381 JUMP JUMPDEST DUP2 PUSH2 0x1379 DUP2 PUSH2 0x50EA JUMP JUMPDEST SWAP3 POP POP PUSH2 0x1337 JUMP JUMPDEST PUSH1 0x0 DUP3 PUSH1 0x1 PUSH1 0x1 PUSH1 0x40 SHL SUB DUP2 GT ISZERO PUSH2 0x139B JUMPI PUSH2 0x139B PUSH2 0x4854 JUMP JUMPDEST PUSH1 0x40 MLOAD SWAP1 DUP1 DUP3 MSTORE DUP1 PUSH1 0x20 MUL PUSH1 0x20 ADD DUP3 ADD PUSH1 0x40 MSTORE DUP1 ISZERO PUSH2 0x13C4 JUMPI DUP2 PUSH1 0x20 ADD PUSH1 0x20 DUP3 MUL DUP1 CALLDATASIZE DUP4 CALLDATACOPY ADD SWAP1 POP JUMPDEST POP SWAP1 POP PUSH1 0x0 JUMPDEST DUP4 DUP2 LT ISZERO PUSH2 0x1424 JUMPI DUP9 DUP9 PUSH2 0x13DF DUP4 PUSH1 0x8 PUSH2 0x50BC JUMP JUMPDEST DUP2 DUP2 LT PUSH2 0x13EE JUMPI PUSH2 0x13EE PUSH2 0x50D4 JUMP JUMPDEST SWAP1 POP PUSH1 0x20 MUL ADD CALLDATALOAD DUP3 DUP3 DUP2 MLOAD DUP2 LT PUSH2 0x1407 JUMPI PUSH2 0x1407 PUSH2 0x50D4 JUMP JUMPDEST PUSH1 0x20 SWAP1 DUP2 MUL SWAP2 SWAP1 SWAP2 ADD ADD MSTORE DUP1 PUSH2 0x141C DUP2 PUSH2 0x50EA JUMP JUMPDEST SWAP2 POP POP PUSH2 0x13CA JUMP JUMPDEST POP PUSH2 0x1594 DUP11 PUSH1 0x40 MLOAD DUP1 PUSH1 0xE0 ADD PUSH1 0x40 MSTORE DUP1 DUP13 DUP2 MSTORE PUSH1 0x20 ADD DUP12 DUP12 PUSH1 0x0 DUP2 DUP2 LT PUSH2 0x144D JUMPI PUSH2 0x144D PUSH2 0x50D4 JUMP JUMPDEST SWAP1 POP PUSH1 0x20 MUL ADD CALLDATALOAD DUP2 MSTORE PUSH1 0x20 ADD DUP12 DUP12 PUSH1 0x1 DUP2 DUP2 LT PUSH2 0x146C JUMPI PUSH2 0x146C PUSH2 0x50D4 JUMP JUMPDEST SWAP1 POP PUSH1 0x20 MUL ADD CALLDATALOAD DUP2 MSTORE PUSH1 0x20 ADD DUP12 DUP12 PUSH1 0x2 DUP2 DUP2 LT PUSH2 0x148B JUMPI PUSH2 0x148B PUSH2 0x50D4 JUMP JUMPDEST SWAP1 POP PUSH1 0x20 MUL ADD CALLDATALOAD PUSH1 0x0 EQ ISZERO ISZERO ISZERO DUP2 MSTORE PUSH1 0x20 ADD DUP12 DUP12 PUSH1 0x3 DUP2 DUP2 LT PUSH2 0x14B0 JUMPI PUSH2 0x14B0 PUSH2 0x50D4 JUMP JUMPDEST SWAP1 POP PUSH1 0x20 MUL ADD CALLDATALOAD PUSH1 0x0 EQ ISZERO ISZERO ISZERO DUP2 MSTORE PUSH1 0x20 ADD DUP12 DUP12 PUSH1 0x7 DUP2 DUP2 LT PUSH2 0x14D5 JUMPI PUSH2 0x14D5 PUSH2 0x50D4 JUMP JUMPDEST SWAP1 POP PUSH1 0x20 MUL ADD CALLDATALOAD DUP2 MSTORE PUSH1 0x20 ADD DUP5 DUP2 MSTORE POP PUSH1 0x40 MLOAD DUP1 PUSH1 0x80 ADD PUSH1 0x40 MSTORE DUP1 DUP13 DUP13 PUSH1 0x5 DUP2 DUP2 LT PUSH2 0x1503 JUMPI PUSH2 0x1503 PUSH2 0x50D4 JUMP JUMPDEST SWAP1 POP PUSH1 0x20 MUL ADD CALLDATALOAD DUP2 MSTORE PUSH1 0x20 ADD DUP13 DUP13 PUSH1 0x6 DUP2 DUP2 LT PUSH2 0x1522 JUMPI PUSH2 0x1522 PUSH2 0x50D4 JUMP JUMPDEST SWAP1 POP PUSH1 0x20 MUL ADD CALLDATALOAD DUP2 MSTORE PUSH1 0x20 ADD DUP13 DUP13 PUSH1 0x4 DUP2 DUP2 LT PUSH2 0x1541 JUMPI PUSH2 0x1541 PUSH2 0x50D4 JUMP JUMPDEST PUSH1 0x20 SWAP1 DUP2 MUL SWAP3 SWAP1 SWAP3 ADD CALLDATALOAD DUP4 MSTORE POP ADD PUSH1 0x0 PUSH1 0x40 MLOAD SWAP1 DUP1 DUP3 MSTORE DUP1 PUSH1 0x20 MUL PUSH1 0x20 ADD DUP3 ADD PUSH1 0x40 MSTORE DUP1 ISZERO PUSH2 0x158A JUMPI DUP2 PUSH1 0x20 ADD JUMPDEST PUSH2 0x1577 PUSH2 0x4668 JUMP JUMPDEST DUP2 MSTORE PUSH1 0x20 ADD SWAP1 PUSH1 0x1 SWAP1 SUB SWAP1 DUP2 PUSH2 0x156F JUMPI SWAP1 POP JUMPDEST POP SWAP1 MSTORE PUSH1 0x0 PUSH2 0x2E8C JUMP JUMPDEST SWAP6 POP SWAP6 POP SWAP6 POP POP POP POP JUMPDEST SWAP5 POP SWAP5 POP SWAP5 SWAP2 POP POP JUMP JUMPDEST PUSH2 0x15B0 PUSH2 0x461E JUMP JUMPDEST DUP2 MLOAD PUSH1 0x60 SWAP1 PUSH1 0x20 DUP2 GT ISZERO PUSH2 0x1606 JUMPI PUSH1 0x40 MLOAD PUSH3 0x461BCD PUSH1 0xE5 SHL DUP2 MSTORE PUSH1 0x20 PUSH1 0x4 DUP3 ADD MSTORE PUSH1 0x1D PUSH1 0x24 DUP3 ADD MSTORE PUSH32 0x64656C6976657279206172726179206D61782073697A65206973203332000000 PUSH1 0x44 DUP3 ADD MSTORE PUSH1 0x64 ADD PUSH2 0x688 JUMP JUMPDEST PUSH2 0x160E PUSH2 0x4730 JUMP JUMPDEST DUP6 MLOAD DUP2 MSTORE PUSH1 0x20 DUP1 DUP8 ADD MLOAD SWAP1 DUP3 ADD MSTORE PUSH1 0x40 DUP7 ADD MLOAD PUSH2 0x162C JUMPI PUSH1 0x0 PUSH2 0x162F JUMP JUMPDEST PUSH1 0x1 JUMPDEST PUSH1 0xFF AND PUSH1 0x40 DUP3 ADD MSTORE PUSH1 0x60 DUP7 ADD MLOAD PUSH2 0x1647 JUMPI PUSH1 0x0 PUSH2 0x164A JUMP JUMPDEST PUSH1 0x1 JUMPDEST PUSH1 0xFF AND PUSH1 0x60 DUP3 ADD MSTORE PUSH1 0x80 DUP7 DUP2 ADD MLOAD SWAP1 DUP3 ADD MSTORE PUSH1 0xA0 DUP1 DUP8 ADD MLOAD SWAP1 DUP3 ADD MSTORE PUSH1 0xC0 DUP1 DUP8 ADD MLOAD SWAP1 DUP3 ADD MSTORE PUSH1 0xE0 DUP1 DUP8 ADD MLOAD SWAP1 DUP3 ADD MSTORE PUSH1 0x8 PUSH1 0x0 JUMPDEST DUP4 DUP2 LT ISZERO PUSH2 0x16F8 JUMPI DUP7 DUP2 DUP2 MLOAD DUP2 LT PUSH2 0x1699 JUMPI PUSH2 0x1699 PUSH2 0x50D4 JUMP JUMPDEST PUSH1 0x20 MUL PUSH1 0x20 ADD ADD MLOAD PUSH1 0x0 EQ PUSH2 0x16E6 JUMPI DUP7 DUP2 DUP2 MLOAD DUP2 LT PUSH2 0x16BA JUMPI PUSH2 0x16BA PUSH2 0x50D4 JUMP JUMPDEST PUSH1 0x20 MUL PUSH1 0x20 ADD ADD MLOAD DUP4 DUP4 DUP1 PUSH2 0x16CE SWAP1 PUSH2 0x50EA JUMP JUMPDEST SWAP5 POP PUSH1 0x28 DUP2 LT PUSH2 0x16E0 JUMPI PUSH2 0x16E0 PUSH2 0x50D4 JUMP JUMPDEST PUSH1 0x20 MUL ADD MSTORE JUMPDEST DUP1 PUSH2 0x16F0 DUP2 PUSH2 0x50EA JUMP JUMPDEST SWAP2 POP POP PUSH2 0x167F JUMP JUMPDEST POP POP PUSH1 0x40 MLOAD PUSH4 0x23AA9AB PUSH1 0xE6 SHL DUP2 MSTORE PUSH32 0x2E7A327EF83C2AF7579C6634F2F5604519800C5F07626F27BD602FD11ED8E6EC PUSH1 0x4 DUP3 ADD MSTORE PUSH1 0x0 SWAP1 PUSH32 0x0 PUSH1 0x1 PUSH1 0x1 PUSH1 0xA0 SHL SUB AND SWAP1 PUSH4 0x8EAA6AC0 SWAP1 PUSH1 0x24 ADD PUSH1 0x20 PUSH1 0x40 MLOAD DUP1 DUP4 SUB DUP2 DUP7 GAS STATICCALL ISZERO DUP1 ISZERO PUSH2 0x1781 JUMPI RETURNDATASIZE PUSH1 0x0 DUP1 RETURNDATACOPY RETURNDATASIZE PUSH1 0x0 REVERT JUMPDEST POP POP POP POP PUSH1 0x40 MLOAD RETURNDATASIZE PUSH1 0x1F NOT PUSH1 0x1F DUP3 ADD AND DUP3 ADD DUP1 PUSH1 0x40 MSTORE POP DUP2 ADD SWAP1 PUSH2 0x17A5 SWAP2 SWAP1 PUSH2 0x51EB JUMP JUMPDEST PUSH1 0x1 PUSH1 0x1 PUSH1 0xA0 SHL SUB AND PUSH32 0xA3550AABEEA45F9D515C45EA5DADCD6EFBE5A3C73AB07644F630DE564C6515A ADDRESS DUP12 DUP12 PUSH1 0x60 PUSH1 0x28 DUP9 PUSH1 0x40 MLOAD PUSH1 0x24 ADD PUSH2 0x17EC SWAP7 SWAP6 SWAP5 SWAP4 SWAP3 SWAP2 SWAP1 PUSH2 0x5208 JUMP JUMPDEST PUSH1 0x40 DUP1 MLOAD PUSH1 0x1F NOT DUP2 DUP5 SUB ADD DUP2 MSTORE SWAP2 DUP2 MSTORE PUSH1 0x20 DUP3 ADD DUP1 MLOAD PUSH1 0x1 PUSH1 0x1 PUSH1 0xE0 SHL SUB AND PUSH1 0x1 PUSH1 0x1 PUSH1 0xE0 SHL SUB NOT SWAP1 SWAP5 AND SWAP4 SWAP1 SWAP4 OR SWAP1 SWAP3 MSTORE SWAP1 MLOAD PUSH2 0x182A SWAP2 SWAP1 PUSH2 0x526B JUMP JUMPDEST PUSH1 0x0 PUSH1 0x40 MLOAD DUP1 DUP4 SUB DUP2 DUP6 GAS STATICCALL SWAP2 POP POP RETURNDATASIZE DUP1 PUSH1 0x0 DUP2 EQ PUSH2 0x1865 JUMPI PUSH1 0x40 MLOAD SWAP2 POP PUSH1 0x1F NOT PUSH1 0x3F RETURNDATASIZE ADD AND DUP3 ADD PUSH1 0x40 MSTORE RETURNDATASIZE DUP3 MSTORE RETURNDATASIZE PUSH1 0x0 PUSH1 0x20 DUP5 ADD RETURNDATACOPY PUSH2 0x186A JUMP JUMPDEST PUSH1 0x60 SWAP2 POP JUMPDEST POP POP SWAP1 POP PUSH2 0x1877 DUP2 PUSH2 0x693 JUMP JUMPDEST POP POP POP SWAP5 POP SWAP5 SWAP3 POP POP POP JUMP JUMPDEST PUSH2 0x188B PUSH2 0x2DD0 JUMP JUMPDEST PUSH2 0x691 PUSH1 0x0 DUP1 SLOAD PUSH2 0xFF00 NOT AND PUSH2 0x100 OR SWAP1 SSTORE JUMP JUMPDEST PUSH1 0x0 PUSH2 0x6DA PUSH4 0xFFFFFFFF DUP4 AND PUSH5 0xE8D4A51000 PUSH2 0x5127 JUMP JUMPDEST PUSH1 0x60 PUSH1 0x0 PUSH2 0x18DE PUSH1 0x40 MLOAD DUP1 PUSH1 0x60 ADD PUSH1 0x40 MSTORE DUP1 PUSH1 0x0 DUP2 MSTORE PUSH1 0x20 ADD PUSH1 0x0 DUP2 MSTORE PUSH1 0x20 ADD PUSH1 0x0 DUP2 MSTORE POP SWAP1 JUMP JUMPDEST DUP4 MLOAD PUSH1 0x20 DUP2 GT ISZERO PUSH2 0x1931 JUMPI PUSH1 0x40 MLOAD PUSH3 0x461BCD PUSH1 0xE5 SHL DUP2 MSTORE PUSH1 0x20 PUSH1 0x4 DUP3 ADD MSTORE PUSH1 0x1D PUSH1 0x24 DUP3 ADD MSTORE PUSH32 0x64656C6976657279206172726179206D61782073697A65206973203332000000 PUSH1 0x44 DUP3 ADD MSTORE PUSH1 0x64 ADD PUSH2 0x688 JUMP JUMPDEST PUSH2 0x1939 PUSH2 0x4730 JUMP JUMPDEST DUP7 MLOAD DUP2 MSTORE PUSH1 0x20 DUP1 DUP9 ADD MLOAD SWAP1 DUP3 ADD MSTORE PUSH1 0x40 DUP8 ADD MLOAD PUSH2 0x1957 JUMPI PUSH1 0x0 PUSH2 0x195A JUMP JUMPDEST PUSH1 0x1 JUMPDEST PUSH1 0xFF AND PUSH1 0x40 DUP3 ADD MSTORE PUSH1 0x60 DUP8 ADD MLOAD PUSH2 0x1972 JUMPI PUSH1 0x0 PUSH2 0x1975 JUMP JUMPDEST PUSH1 0x1 JUMPDEST PUSH1 0xFF AND PUSH1 0x60 DUP3 ADD MSTORE PUSH1 0x80 DUP8 DUP2 ADD MLOAD SWAP1 DUP3 ADD MSTORE PUSH1 0xA0 DUP1 DUP9 ADD MLOAD SWAP1 DUP3 ADD MSTORE PUSH1 0xC0 DUP1 DUP9 ADD MLOAD SWAP1 DUP3 ADD MSTORE PUSH1 0xE0 DUP1 DUP9 ADD MLOAD SWAP1 DUP3 ADD MSTORE PUSH1 0x8 PUSH1 0x0 JUMPDEST DUP4 DUP2 LT ISZERO PUSH2 0x1A23 JUMPI DUP8 DUP2 DUP2 MLOAD DUP2 LT PUSH2 0x19C4 JUMPI PUSH2 0x19C4 PUSH2 0x50D4 JUMP JUMPDEST PUSH1 0x20 MUL PUSH1 0x20 ADD ADD MLOAD PUSH1 0x0 EQ PUSH2 0x1A11 JUMPI DUP8 DUP2 DUP2 MLOAD DUP2 LT PUSH2 0x19E5 JUMPI PUSH2 0x19E5 PUSH2 0x50D4 JUMP JUMPDEST PUSH1 0x20 MUL PUSH1 0x20 ADD ADD MLOAD DUP4 DUP4 DUP1 PUSH2 0x19F9 SWAP1 PUSH2 0x50EA JUMP JUMPDEST SWAP5 POP PUSH1 0x28 DUP2 LT PUSH2 0x1A0B JUMPI PUSH2 0x1A0B PUSH2 0x50D4 JUMP JUMPDEST PUSH1 0x20 MUL ADD MSTORE JUMPDEST DUP1 PUSH2 0x1A1B DUP2 PUSH2 0x50EA JUMP JUMPDEST SWAP2 POP POP PUSH2 0x19AA JUMP JUMPDEST POP POP PUSH1 0x40 MLOAD PUSH4 0x23AA9AB PUSH1 0xE6 SHL DUP2 MSTORE PUSH32 0x2E7A327EF83C2AF7579C6634F2F5604519800C5F07626F27BD602FD11ED8E6EC PUSH1 0x4 DUP3 ADD MSTORE PUSH1 0x0 SWAP1 PUSH32 0x0 PUSH1 0x1 PUSH1 0x1 PUSH1 0xA0 SHL SUB AND SWAP1 PUSH4 0x8EAA6AC0 SWAP1 PUSH1 0x24 ADD PUSH1 0x20 PUSH1 0x40 MLOAD DUP1 DUP4 SUB DUP2 DUP7 GAS STATICCALL ISZERO DUP1 ISZERO PUSH2 0x1AAC JUMPI RETURNDATASIZE PUSH1 0x0 DUP1 RETURNDATACOPY RETURNDATASIZE PUSH1 0x0 REVERT JUMPDEST POP POP POP POP PUSH1 0x40 MLOAD RETURNDATASIZE PUSH1 0x1F NOT PUSH1 0x1F DUP3 ADD AND DUP3 ADD DUP1 PUSH1 0x40 MSTORE POP DUP2 ADD SWAP1 PUSH2 0x1AD0 SWAP2 SWAP1 PUSH2 0x51EB JUMP JUMPDEST PUSH1 0x1 PUSH1 0x1 PUSH1 0xA0 SHL SUB AND PUSH32 0xBD0ADE2BCAE368FCA26BB02146561A2830136BF30C4A34C648255FCCEBBE2254 ADDRESS DUP13 DUP13 PUSH1 0x60 PUSH1 0x28 DUP9 PUSH1 0x40 MLOAD PUSH1 0x24 ADD PUSH2 0x1B17 SWAP7 SWAP6 SWAP5 SWAP4 SWAP3 SWAP2 SWAP1 PUSH2 0x5208 JUMP JUMPDEST PUSH1 0x40 DUP1 MLOAD PUSH1 0x1F NOT DUP2 DUP5 SUB ADD DUP2 MSTORE SWAP2 DUP2 MSTORE PUSH1 0x20 DUP3 ADD DUP1 MLOAD PUSH1 0x1 PUSH1 0x1 PUSH1 0xE0 SHL SUB AND PUSH1 0x1 PUSH1 0x1 PUSH1 0xE0 SHL SUB NOT SWAP1 SWAP5 AND SWAP4 SWAP1 SWAP4 OR SWAP1 SWAP3 MSTORE SWAP1 MLOAD PUSH2 0x1B55 SWAP2 SWAP1 PUSH2 0x526B JUMP JUMPDEST PUSH1 0x0 PUSH1 0x40 MLOAD DUP1 DUP4 SUB DUP2 DUP6 GAS STATICCALL SWAP2 POP POP RETURNDATASIZE DUP1 PUSH1 0x0 DUP2 EQ PUSH2 0x1B90 JUMPI PUSH1 0x40 MLOAD SWAP2 POP PUSH1 0x1F NOT PUSH1 0x3F RETURNDATASIZE ADD AND DUP3 ADD PUSH1 0x40 MSTORE RETURNDATASIZE DUP3 MSTORE RETURNDATASIZE PUSH1 0x0 PUSH1 0x20 DUP5 ADD RETURNDATACOPY PUSH2 0x1B95 JUMP JUMPDEST PUSH1 0x60 SWAP2 POP JUMPDEST POP POP SWAP1 POP PUSH2 0x1BA2 DUP2 PUSH2 0x693 JUMP JUMPDEST POP POP POP SWAP5 POP SWAP5 POP SWAP5 SWAP2 POP POP JUMP JUMPDEST PUSH2 0x1BB7 PUSH2 0x2DD0 JUMP JUMPDEST PUSH1 0x1 PUSH1 0x1 PUSH1 0xA0 SHL SUB DUP2 AND PUSH2 0x1C1C JUMPI PUSH1 0x40 MLOAD PUSH3 0x461BCD PUSH1 0xE5 SHL DUP2 MSTORE PUSH1 0x20 PUSH1 0x4 DUP3 ADD MSTORE PUSH1 0x26 PUSH1 0x24 DUP3 ADD MSTORE PUSH32 0x4F776E61626C653A206E6577206F776E657220697320746865207A65726F2061 PUSH1 0x44 DUP3 ADD MSTORE PUSH6 0x646472657373 PUSH1 0xD0 SHL PUSH1 0x64 DUP3 ADD MSTORE PUSH1 0x84 ADD PUSH2 0x688 JUMP JUMPDEST PUSH2 0x1C25 DUP2 PUSH2 0x2E31 JUMP JUMPDEST POP JUMP JUMPDEST PUSH1 0x0 PUSH2 0x6DA PUSH5 0x174876E800 DUP4 PUSH2 0x5105 JUMP JUMPDEST PUSH2 0x1C41 PUSH2 0x461E JUMP JUMPDEST DUP2 PUSH2 0x1C4A PUSH2 0x461E JUMP JUMPDEST PUSH1 0x0 PUSH2 0x1C5A DUP9 DUP9 PUSH1 0x0 ADD MLOAD PUSH2 0x3472 JUMP JUMPDEST DUP1 MLOAD SWAP1 SWAP2 POP PUSH1 0x0 JUMPDEST DUP2 DUP2 LT ISZERO PUSH2 0x1E08 JUMPI PUSH2 0x1C72 PUSH2 0x474F JUMP JUMPDEST PUSH2 0x1CFE DUP5 DUP4 DUP2 MLOAD DUP2 LT PUSH2 0x1C87 JUMPI PUSH2 0x1C87 PUSH2 0x50D4 JUMP JUMPDEST PUSH1 0x20 MUL PUSH1 0x20 ADD ADD MLOAD PUSH1 0x2 DUP7 DUP6 DUP2 MLOAD DUP2 LT PUSH2 0x1CA3 JUMPI PUSH2 0x1CA3 PUSH2 0x50D4 JUMP JUMPDEST PUSH1 0x20 MUL PUSH1 0x20 ADD ADD MLOAD MLOAD PUSH2 0x1CB6 SWAP2 SWAP1 PUSH2 0x50A5 JUMP JUMPDEST DUP2 MLOAD DUP2 LT PUSH2 0x1CC6 JUMPI PUSH2 0x1CC6 PUSH2 0x50D4 JUMP JUMPDEST PUSH1 0x20 MUL PUSH1 0x20 ADD ADD MLOAD DUP12 PUSH1 0x40 MLOAD DUP1 PUSH1 0x80 ADD PUSH1 0x40 MSTORE DUP1 PUSH1 0x0 DUP2 MSTORE PUSH1 0x20 ADD PUSH1 0x0 DUP2 MSTORE PUSH1 0x20 ADD PUSH1 0x0 DUP2 MSTORE PUSH1 0x20 ADD DUP14 PUSH1 0x60 ADD MLOAD DUP2 MSTORE POP PUSH1 0x0 PUSH2 0x2E8C JUMP JUMPDEST PUSH1 0x40 DUP5 ADD MSTORE PUSH1 0x20 DUP4 ADD DUP2 SWAP1 MSTORE ISZERO ISZERO SWAP1 POP PUSH2 0x1D18 JUMPI POP PUSH2 0x1DF6 JUMP JUMPDEST DUP4 DUP3 DUP2 MLOAD DUP2 LT PUSH2 0x1D2A JUMPI PUSH2 0x1D2A PUSH2 0x50D4 JUMP JUMPDEST PUSH1 0x20 SWAP1 DUP2 MUL SWAP2 SWAP1 SWAP2 ADD ADD MLOAD DUP2 MSTORE PUSH20 0x0 PUSH4 0x7513CE1B DUP7 DUP4 PUSH1 0x0 PUSH1 0x40 MLOAD SWAP1 DUP1 DUP3 MSTORE DUP1 PUSH1 0x20 MUL PUSH1 0x20 ADD DUP3 ADD PUSH1 0x40 MSTORE DUP1 ISZERO PUSH2 0x1D8E JUMPI DUP2 PUSH1 0x20 ADD JUMPDEST PUSH2 0x1D7B PUSH2 0x4668 JUMP JUMPDEST DUP2 MSTORE PUSH1 0x20 ADD SWAP1 PUSH1 0x1 SWAP1 SUB SWAP1 DUP2 PUSH2 0x1D73 JUMPI SWAP1 POP JUMPDEST POP PUSH1 0x40 MLOAD DUP5 PUSH4 0xFFFFFFFF AND PUSH1 0xE0 SHL DUP2 MSTORE PUSH1 0x4 ADD PUSH2 0x1DAD SWAP4 SWAP3 SWAP2 SWAP1 PUSH2 0x5465 JUMP JUMPDEST PUSH1 0x0 PUSH1 0x40 MLOAD DUP1 DUP4 SUB DUP2 DUP7 GAS DELEGATECALL ISZERO DUP1 ISZERO PUSH2 0x1DCA JUMPI RETURNDATASIZE PUSH1 0x0 DUP1 RETURNDATACOPY RETURNDATASIZE PUSH1 0x0 REVERT JUMPDEST POP POP POP POP PUSH1 0x40 MLOAD RETURNDATASIZE PUSH1 0x0 DUP3 RETURNDATACOPY PUSH1 0x1F RETURNDATASIZE SWAP1 DUP2 ADD PUSH1 0x1F NOT AND DUP3 ADD PUSH1 0x40 MSTORE PUSH2 0x1DF2 SWAP2 SWAP1 DUP2 ADD SWAP1 PUSH2 0x5692 JUMP JUMPDEST SWAP5 POP POP JUMPDEST DUP1 PUSH2 0x1E00 DUP2 PUSH2 0x50EA JUMP JUMPDEST SWAP2 POP POP PUSH2 0x1C62 JUMP JUMPDEST POP POP POP PUSH1 0x40 DUP2 ADD MLOAD MLOAD DUP1 PUSH2 0x1E1D JUMPI POP POP PUSH2 0xB19 JUMP JUMPDEST PUSH2 0x1E25 PUSH2 0x47A7 JUMP JUMPDEST DUP8 MLOAD DUP2 MSTORE PUSH1 0x20 DUP1 DUP10 ADD MLOAD DUP2 DUP4 ADD MSTORE PUSH1 0x40 DUP1 DUP11 ADD MLOAD DUP2 DUP5 ADD MSTORE PUSH1 0x60 DUP1 DUP12 ADD MLOAD ISZERO ISZERO DUP2 DUP6 ADD MSTORE PUSH1 0x80 DUP1 DUP13 ADD MLOAD ISZERO ISZERO DUP2 DUP7 ADD MSTORE PUSH1 0xA0 DUP1 DUP14 ADD MLOAD SWAP1 DUP7 ADD MSTORE PUSH1 0xC0 DUP1 DUP14 ADD MLOAD SWAP1 DUP7 ADD MSTORE DUP3 MLOAD SWAP1 DUP2 ADD DUP4 MSTORE PUSH1 0x0 DUP1 DUP3 MSTORE DUP2 DUP6 ADD DUP2 DUP2 MSTORE DUP3 DUP6 ADD DUP3 DUP2 MSTORE DUP4 DUP6 ADD DUP6 DUP2 MSTORE DUP15 MLOAD DUP6 MSTORE SWAP7 DUP15 ADD MLOAD SWAP1 SWAP2 MSTORE SWAP4 DUP13 ADD MLOAD SWAP1 SWAP4 MSTORE SWAP1 DUP11 ADD MLOAD SWAP1 SWAP3 MSTORE DUP4 PUSH1 0x1 PUSH1 0x1 PUSH1 0x40 SHL SUB DUP2 GT ISZERO PUSH2 0x1EB8 JUMPI PUSH2 0x1EB8 PUSH2 0x4854 JUMP JUMPDEST PUSH1 0x40 MLOAD SWAP1 DUP1 DUP3 MSTORE DUP1 PUSH1 0x20 MUL PUSH1 0x20 ADD DUP3 ADD PUSH1 0x40 MSTORE DUP1 ISZERO PUSH2 0x1EF1 JUMPI DUP2 PUSH1 0x20 ADD JUMPDEST PUSH2 0x1EDE PUSH2 0x461E JUMP JUMPDEST DUP2 MSTORE PUSH1 0x20 ADD SWAP1 PUSH1 0x1 SWAP1 SUB SWAP1 DUP2 PUSH2 0x1ED6 JUMPI SWAP1 POP JUMPDEST POP SWAP1 POP PUSH1 0x0 JUMPDEST DUP10 MLOAD DUP4 MSTORE PUSH1 0x1 PUSH1 0xA0 DUP6 ADD MSTORE PUSH1 0x0 JUMPDEST DUP6 DUP2 LT ISZERO PUSH2 0x1FF6 JUMPI PUSH2 0x1F3A DUP8 PUSH1 0x40 ADD MLOAD DUP3 DUP2 MLOAD DUP2 LT PUSH2 0x1F26 JUMPI PUSH2 0x1F26 PUSH2 0x50D4 JUMP JUMPDEST PUSH1 0x20 MUL PUSH1 0x20 ADD ADD MLOAD PUSH1 0x0 ADD MLOAD DUP7 DUP7 DUP12 PUSH2 0x3866 JUMP JUMPDEST DUP4 DUP3 DUP2 MLOAD DUP2 LT PUSH2 0x1F4C JUMPI PUSH2 0x1F4C PUSH2 0x50D4 JUMP JUMPDEST PUSH1 0x20 MUL PUSH1 0x20 ADD ADD DUP2 SWAP1 MSTORE POP PUSH1 0x1 DUP4 DUP3 DUP2 MLOAD DUP2 LT PUSH2 0x1F6B JUMPI PUSH2 0x1F6B PUSH2 0x50D4 JUMP JUMPDEST PUSH1 0x20 MUL PUSH1 0x20 ADD ADD MLOAD PUSH1 0x40 ADD MLOAD MLOAD GT ISZERO PUSH2 0x1FE4 JUMPI PUSH1 0x40 MLOAD PUSH3 0x461BCD PUSH1 0xE5 SHL DUP2 MSTORE PUSH1 0x20 PUSH1 0x4 DUP3 ADD MSTORE PUSH1 0x35 PUSH1 0x24 DUP3 ADD MSTORE PUSH32 0x504152414E4F4941205F5F73656172636843466F6C6C6F77506174682073686F PUSH1 0x44 DUP3 ADD MSTORE PUSH21 0x756C642072657475726E206D617820312064657363 PUSH1 0x58 SHL PUSH1 0x64 DUP3 ADD MSTORE PUSH1 0x84 ADD PUSH2 0x688 JUMP JUMPDEST DUP1 PUSH2 0x1FEE DUP2 PUSH2 0x50EA JUMP JUMPDEST SWAP2 POP POP PUSH2 0x1F05 JUMP JUMPDEST POP PUSH1 0x0 NOT PUSH1 0x0 DUP1 DUP1 JUMPDEST DUP9 DUP2 LT ISZERO PUSH2 0x2157 JUMPI DUP6 DUP2 DUP2 MLOAD DUP2 LT PUSH2 0x2019 JUMPI PUSH2 0x2019 PUSH2 0x50D4 JUMP JUMPDEST PUSH1 0x20 MUL PUSH1 0x20 ADD ADD MLOAD PUSH1 0x0 ADD MLOAD PUSH1 0x0 EQ ISZERO PUSH2 0x2032 JUMPI PUSH2 0x2145 JUMP JUMPDEST PUSH1 0x0 NOT DUP5 EQ DUP1 PUSH2 0x2062 JUMPI POP DUP6 DUP2 DUP2 MLOAD DUP2 LT PUSH2 0x204F JUMPI PUSH2 0x204F PUSH2 0x50D4 JUMP JUMPDEST PUSH1 0x20 MUL PUSH1 0x20 ADD ADD MLOAD PUSH1 0x20 ADD MLOAD PUSH1 0x0 ADD MLOAD DUP4 GT JUMPDEST ISZERO PUSH2 0x20F7 JUMPI PUSH1 0x0 NOT DUP5 EQ ISZERO DUP1 ISZERO PUSH2 0x2099 JUMPI POP DUP6 DUP2 DUP2 MLOAD DUP2 LT PUSH2 0x2086 JUMPI PUSH2 0x2086 PUSH2 0x50D4 JUMP JUMPDEST PUSH1 0x20 MUL PUSH1 0x20 ADD ADD MLOAD PUSH1 0x20 ADD MLOAD PUSH1 0x40 ADD MLOAD DUP4 LT JUMPDEST ISZERO PUSH2 0x20A6 JUMPI DUP3 SWAP2 POP PUSH2 0x20CB JUMP JUMPDEST DUP6 DUP2 DUP2 MLOAD DUP2 LT PUSH2 0x20B8 JUMPI PUSH2 0x20B8 PUSH2 0x50D4 JUMP JUMPDEST PUSH1 0x20 MUL PUSH1 0x20 ADD ADD MLOAD PUSH1 0x20 ADD MLOAD PUSH1 0x40 ADD MLOAD SWAP2 POP JUMPDEST DUP1 SWAP4 POP DUP6 DUP2 DUP2 MLOAD DUP2 LT PUSH2 0x20E0 JUMPI PUSH2 0x20E0 PUSH2 0x50D4 JUMP JUMPDEST PUSH1 0x20 MUL PUSH1 0x20 ADD ADD MLOAD PUSH1 0x20 ADD MLOAD PUSH1 0x0 ADD MLOAD SWAP3 POP PUSH2 0x2145 JUMP JUMPDEST DUP6 DUP2 DUP2 MLOAD DUP2 LT PUSH2 0x2109 JUMPI PUSH2 0x2109 PUSH2 0x50D4 JUMP JUMPDEST PUSH1 0x20 MUL PUSH1 0x20 ADD ADD MLOAD PUSH1 0x20 ADD MLOAD PUSH1 0x0 ADD MLOAD DUP3 GT ISZERO PUSH2 0x2145 JUMPI DUP6 DUP2 DUP2 MLOAD DUP2 LT PUSH2 0x2132 JUMPI PUSH2 0x2132 PUSH2 0x50D4 JUMP JUMPDEST PUSH1 0x20 MUL PUSH1 0x20 ADD ADD MLOAD PUSH1 0x20 ADD MLOAD PUSH1 0x0 ADD MLOAD SWAP2 POP JUMPDEST DUP1 PUSH2 0x214F DUP2 PUSH2 0x50EA JUMP JUMPDEST SWAP2 POP POP PUSH2 0x1FFF JUMP JUMPDEST POP PUSH1 0x0 NOT DUP4 EQ ISZERO PUSH2 0x216A JUMPI POP POP POP PUSH2 0x2658 JUMP JUMPDEST DUP6 MSTORE POP PUSH2 0x2175 PUSH2 0x461E JUMP JUMPDEST PUSH2 0x21A2 DUP9 PUSH1 0x40 ADD MLOAD DUP4 DUP2 MLOAD DUP2 LT PUSH2 0x218E JUMPI PUSH2 0x218E PUSH2 0x50D4 JUMP JUMPDEST PUSH1 0x20 MUL PUSH1 0x20 ADD ADD MLOAD PUSH1 0x0 ADD MLOAD DUP8 DUP8 DUP13 PUSH2 0x3866 JUMP JUMPDEST SWAP1 POP DUP1 PUSH1 0x40 ADD MLOAD MLOAD PUSH1 0x1 EQ PUSH2 0x2213 JUMPI PUSH1 0x40 MLOAD PUSH3 0x461BCD PUSH1 0xE5 SHL DUP2 MSTORE PUSH1 0x20 PUSH1 0x4 DUP3 ADD MSTORE PUSH1 0x31 PUSH1 0x24 DUP3 ADD MSTORE PUSH32 0x504152414E4F4941205F5F73656172636843466F6C6C6F77506174682073686F PUSH1 0x44 DUP3 ADD MSTORE PUSH17 0x756C642072657475726E20312064657363 PUSH1 0x78 SHL PUSH1 0x64 DUP3 ADD MSTORE PUSH1 0x84 ADD PUSH2 0x688 JUMP JUMPDEST DUP1 MLOAD PUSH2 0x2259 JUMPI PUSH1 0x40 MLOAD PUSH3 0x461BCD PUSH1 0xE5 SHL DUP2 MSTORE PUSH1 0x20 PUSH1 0x4 DUP3 ADD MSTORE PUSH1 0x15 PUSH1 0x24 DUP3 ADD MSTORE PUSH21 0x6966202873656C65637465642E717479203D3D3029 PUSH1 0x58 SHL PUSH1 0x44 DUP3 ADD MSTORE PUSH1 0x64 ADD PUSH2 0x688 JUMP JUMPDEST PUSH1 0x40 MLOAD PUSH4 0x9FAB220F PUSH1 0xE0 SHL DUP2 MSTORE PUSH20 0x0 SWAP1 PUSH4 0x9FAB220F SWAP1 PUSH2 0x2292 SWAP1 DUP14 SWAP1 DUP6 SWAP1 PUSH1 0x4 ADD PUSH2 0x57AC JUMP JUMPDEST PUSH1 0x0 PUSH1 0x40 MLOAD DUP1 DUP4 SUB DUP2 DUP7 GAS DELEGATECALL ISZERO DUP1 ISZERO PUSH2 0x22AF JUMPI RETURNDATASIZE PUSH1 0x0 DUP1 RETURNDATACOPY RETURNDATASIZE PUSH1 0x0 REVERT JUMPDEST POP POP POP POP PUSH1 0x40 MLOAD RETURNDATASIZE PUSH1 0x0 DUP3 RETURNDATACOPY PUSH1 0x1F RETURNDATASIZE SWAP1 DUP2 ADD PUSH1 0x1F NOT AND DUP3 ADD PUSH1 0x40 MSTORE PUSH2 0x22D7 SWAP2 SWAP1 DUP2 ADD SWAP1 PUSH2 0x5692 JUMP JUMPDEST SWAP10 POP DUP1 PUSH1 0x60 ADD MLOAD MLOAD DUP4 PUSH2 0x22EA SWAP2 SWAP1 PUSH2 0x50BC JUMP JUMPDEST SWAP3 POP DUP1 PUSH1 0x40 ADD MLOAD PUSH1 0x0 DUP2 MLOAD DUP2 LT PUSH2 0x2303 JUMPI PUSH2 0x2303 PUSH2 0x50D4 JUMP JUMPDEST PUSH1 0x20 MUL PUSH1 0x20 ADD ADD MLOAD PUSH1 0xA0 ADD MLOAD MLOAD PUSH1 0x0 EQ PUSH2 0x2390 JUMPI DUP1 PUSH1 0x40 ADD MLOAD PUSH1 0x0 DUP2 MLOAD DUP2 LT PUSH2 0x232E JUMPI PUSH2 0x232E PUSH2 0x50D4 JUMP JUMPDEST PUSH1 0x20 MUL PUSH1 0x20 ADD ADD MLOAD PUSH1 0xA0 ADD MLOAD PUSH1 0x1 DUP3 PUSH1 0x40 ADD MLOAD PUSH1 0x0 DUP2 MLOAD DUP2 LT PUSH2 0x2353 JUMPI PUSH2 0x2353 PUSH2 0x50D4 JUMP JUMPDEST PUSH1 0x20 MUL PUSH1 0x20 ADD ADD MLOAD PUSH1 0xA0 ADD MLOAD MLOAD PUSH2 0x236A SWAP2 SWAP1 PUSH2 0x50A5 JUMP JUMPDEST DUP2 MLOAD DUP2 LT PUSH2 0x237A JUMPI PUSH2 0x237A PUSH2 0x50D4 JUMP JUMPDEST PUSH1 0x20 MUL PUSH1 0x20 ADD ADD MLOAD DUP4 PUSH2 0x238D SWAP2 SWAP1 PUSH2 0x50A5 JUMP JUMPDEST SWAP3 POP JUMPDEST DUP9 PUSH20 0x0 PUSH4 0x7071133E SWAP1 SWAP2 DUP4 PUSH1 0x40 ADD MLOAD PUSH1 0x0 DUP2 MLOAD DUP2 LT PUSH2 0x23C4 JUMPI PUSH2 0x23C4 PUSH2 0x50D4 JUMP JUMPDEST PUSH1 0x20 MUL PUSH1 0x20 ADD ADD MLOAD DUP5 PUSH1 0x60 ADD MLOAD PUSH1 0x40 MLOAD DUP5 PUSH4 0xFFFFFFFF AND PUSH1 0xE0 SHL DUP2 MSTORE PUSH1 0x4 ADD PUSH2 0x23EF SWAP4 SWAP3 SWAP2 SWAP1 PUSH2 0x57D1 JUMP JUMPDEST PUSH1 0x0 PUSH1 0x40 MLOAD DUP1 DUP4 SUB DUP2 DUP7 GAS DELEGATECALL ISZERO DUP1 ISZERO PUSH2 0x240C JUMPI RETURNDATASIZE PUSH1 0x0 DUP1 RETURNDATACOPY RETURNDATASIZE PUSH1 0x0 REVERT JUMPDEST POP POP POP POP PUSH1 0x40 MLOAD RETURNDATASIZE PUSH1 0x0 DUP3 RETURNDATACOPY PUSH1 0x1F RETURNDATASIZE SWAP1 DUP2 ADD PUSH1 0x1F NOT AND DUP3 ADD PUSH1 0x40 MSTORE PUSH2 0x2434 SWAP2 SWAP1 DUP2 ADD SWAP1 PUSH2 0x57E4 JUMP JUMPDEST PUSH1 0x60 DUP1 DUP8 ADD MLOAD SWAP1 DUP4 ADD MLOAD PUSH1 0x40 MLOAD PUSH4 0xBF07928F PUSH1 0xE0 SHL DUP2 MSTORE SWAP3 SWAP12 POP PUSH20 0x0 SWAP3 PUSH4 0xBF07928F SWAP3 PUSH2 0x2478 SWAP3 SWAP1 SWAP2 PUSH1 0x4 ADD PUSH2 0x5899 JUMP JUMPDEST PUSH1 0x0 PUSH1 0x40 MLOAD DUP1 DUP4 SUB DUP2 DUP7 GAS DELEGATECALL ISZERO DUP1 ISZERO PUSH2 0x2495 JUMPI RETURNDATASIZE PUSH1 0x0 DUP1 RETURNDATACOPY RETURNDATASIZE PUSH1 0x0 REVERT JUMPDEST POP POP POP POP PUSH1 0x40 MLOAD RETURNDATASIZE PUSH1 0x0 DUP3 RETURNDATACOPY PUSH1 0x1F RETURNDATASIZE SWAP1 DUP2 ADD PUSH1 0x1F NOT AND DUP3 ADD PUSH1 0x40 MSTORE PUSH2 0x24BD SWAP2 SWAP1 DUP2 ADD SWAP1 PUSH2 0x58BE JUMP JUMPDEST PUSH1 0x60 DUP7 ADD MSTORE DUP12 MLOAD DUP6 MSTORE PUSH1 0xA0 DUP14 ADD MLOAD ISZERO PUSH2 0x2539 JUMPI DUP13 PUSH1 0xA0 ADD MLOAD DUP4 LT PUSH2 0x2523 JUMPI PUSH1 0x40 MLOAD PUSH3 0x461BCD PUSH1 0xE5 SHL DUP2 MSTORE PUSH1 0x20 PUSH1 0x4 DUP3 ADD MSTORE PUSH1 0x1F PUSH1 0x24 DUP3 ADD MSTORE PUSH32 0x696620286D6178636F756E743E3D7461726765745F2E6D6178636F756E742900 PUSH1 0x44 DUP3 ADD MSTORE PUSH1 0x64 ADD PUSH2 0x688 JUMP JUMPDEST DUP3 DUP14 PUSH1 0xA0 ADD MLOAD PUSH2 0x2533 SWAP2 SWAP1 PUSH2 0x50A5 JUMP JUMPDEST PUSH1 0xA0 DUP8 ADD MSTORE JUMPDEST PUSH1 0x40 DUP14 ADD MLOAD ISZERO PUSH2 0x25AE JUMPI PUSH1 0x40 DUP14 ADD MLOAD DUP2 MLOAD LT PUSH2 0x2597 JUMPI PUSH1 0x40 MLOAD PUSH3 0x461BCD PUSH1 0xE5 SHL DUP2 MSTORE PUSH1 0x20 PUSH1 0x4 DUP3 ADD MSTORE PUSH1 0x1E PUSH1 0x24 DUP3 ADD MSTORE PUSH32 0x6966202873656C65637465642E7174793E3D7461726765745F2E717479290000 PUSH1 0x44 DUP3 ADD MSTORE PUSH1 0x64 ADD PUSH2 0x688 JUMP JUMPDEST DUP1 MLOAD PUSH1 0x40 DUP15 ADD MLOAD PUSH2 0x25A8 SWAP2 SWAP1 PUSH2 0x50A5 JUMP JUMPDEST PUSH1 0x40 DUP8 ADD MSTORE JUMPDEST PUSH1 0x40 DUP13 ADD MLOAD ISZERO PUSH2 0x2651 JUMPI PUSH1 0x0 PUSH8 0xDE0B6B3A7640000 DUP12 PUSH1 0x20 ADD MLOAD PUSH1 0x20 ADD MLOAD DUP13 PUSH1 0x0 ADD MLOAD PUSH2 0x25DB SWAP2 SWAP1 PUSH2 0x5127 JUMP JUMPDEST PUSH2 0x25E5 SWAP2 SWAP1 PUSH2 0x5105 JUMP JUMPDEST SWAP1 POP DUP13 PUSH1 0x40 ADD MLOAD DUP2 LT PUSH2 0x263A JUMPI PUSH1 0x40 MLOAD PUSH3 0x461BCD PUSH1 0xE5 SHL DUP2 MSTORE PUSH1 0x20 PUSH1 0x4 DUP3 ADD MSTORE PUSH1 0x1F PUSH1 0x24 DUP3 ADD MSTORE PUSH32 0x69662028746F74616C3E3D7365617263686172675F2E6D6178746F74616C2900 PUSH1 0x44 DUP3 ADD MSTORE PUSH1 0x64 ADD PUSH2 0x688 JUMP JUMPDEST DUP1 DUP14 PUSH1 0x40 ADD MLOAD PUSH2 0x264A SWAP2 SWAP1 PUSH2 0x50A5 JUMP JUMPDEST PUSH1 0x40 DUP8 ADD MSTORE POP JUMPDEST POP POP PUSH2 0x1EF7 JUMP JUMPDEST POP POP POP POP POP POP SWAP5 POP SWAP5 SWAP3 POP POP POP JUMP JUMPDEST PUSH2 0x266F PUSH2 0x46A1 JUMP JUMPDEST PUSH1 0x0 DUP4 DUP2 MSTORE PUSH1 0x5 PUSH1 0x20 DUP2 DUP2 MSTORE PUSH1 0x40 DUP1 DUP5 KECCAK256 DUP2 MLOAD PUSH2 0x180 DUP2 ADD DUP4 MSTORE DUP2 SLOAD DUP2 MSTORE PUSH1 0x1 DUP3 ADD SLOAD PUSH1 0x1 PUSH1 0x1 PUSH1 0xA0 SHL SUB DUP2 AND SWAP5 DUP3 ADD SWAP5 SWAP1 SWAP5 MSTORE SWAP4 SWAP1 SWAP3 SWAP2 DUP5 ADD SWAP2 PUSH1 0x1 PUSH1 0xA0 SHL SWAP1 DIV PUSH1 0xFF AND SWAP1 DUP2 GT ISZERO PUSH2 0x26C4 JUMPI PUSH2 0x26C4 PUSH2 0x4E17 JUMP JUMPDEST PUSH1 0x5 DUP2 GT ISZERO PUSH2 0x26D5 JUMPI PUSH2 0x26D5 PUSH2 0x4E17 JUMP JUMPDEST DUP2 MSTORE PUSH1 0x1 DUP3 ADD SLOAD PUSH1 0x1 PUSH1 0xA8 SHL SWAP1 DIV PUSH1 0xFF AND PUSH1 0x20 DUP3 ADD MSTORE PUSH1 0x2 DUP3 ADD SLOAD PUSH1 0x40 DUP1 DUP4 ADD SWAP2 SWAP1 SWAP2 MSTORE PUSH1 0x3 DUP4 ADD SLOAD PUSH1 0x1 PUSH1 0x1 PUSH1 0x40 SHL SUB DUP1 DUP3 AND PUSH1 0x60 DUP6 ADD MSTORE PUSH9 0x10000000000000000 DUP1 DUP4 DIV DUP3 AND PUSH1 0x80 DUP7 ADD MSTORE PUSH1 0x1 PUSH1 0x80 SHL DUP1 DUP5 DIV DUP4 AND PUSH1 0xA0 DUP8 ADD MSTORE PUSH1 0x1 PUSH1 0xC0 SHL SWAP1 SWAP4 DIV DUP3 AND PUSH1 0xC0 DUP7 ADD MSTORE PUSH1 0x4 SWAP6 DUP7 ADD SLOAD DUP1 DUP4 AND PUSH1 0xE0 DUP8 ADD MSTORE SWAP1 DUP2 DIV DUP3 AND PUSH2 0x100 DUP7 ADD MSTORE SWAP2 SWAP1 SWAP2 DIV AND PUSH2 0x120 SWAP1 SWAP3 ADD SWAP2 SWAP1 SWAP2 MSTORE DUP3 MLOAD SWAP1 MLOAD PUSH4 0x657C7E09 PUSH1 0xE0 SHL DUP2 MSTORE SWAP2 DUP3 ADD MSTORE SWAP1 SWAP2 POP PUSH32 0x0 PUSH1 0x1 PUSH1 0x1 PUSH1 0xA0 SHL SUB AND SWAP1 PUSH4 0x657C7E09 SWAP1 PUSH1 0x24 ADD PUSH1 0x40 DUP1 MLOAD DUP1 DUP4 SUB DUP2 DUP7 GAS STATICCALL ISZERO DUP1 ISZERO PUSH2 0x27CD JUMPI RETURNDATASIZE PUSH1 0x0 DUP1 RETURNDATACOPY RETURNDATASIZE PUSH1 0x0 REVERT JUMPDEST POP POP POP POP PUSH1 0x40 MLOAD RETURNDATASIZE PUSH1 0x1F NOT PUSH1 0x1F DUP3 ADD AND DUP3 ADD DUP1 PUSH1 0x40 MSTORE POP DUP2 ADD SWAP1 PUSH2 0x27F1 SWAP2 SWAP1 PUSH2 0x58F2 JUMP JUMPDEST PUSH1 0x40 DUP5 ADD MSTORE PUSH1 0x20 DUP4 ADD MSTORE PUSH1 0x80 DUP2 ADD MLOAD PUSH1 0x60 DUP4 ADD MSTORE DUP3 DUP1 PUSH2 0x288A JUMPI POP PUSH1 0x60 DUP2 ADD MLOAD PUSH1 0x40 MLOAD PUSH4 0x36181B67 PUSH1 0xE1 SHL DUP2 MSTORE PUSH1 0xFF SWAP1 SWAP2 AND PUSH1 0x4 DUP3 ADD MSTORE PUSH20 0x0 SWAP1 PUSH4 0x6C3036CE SWAP1 PUSH1 0x24 ADD PUSH1 0x20 PUSH1 0x40 MLOAD DUP1 DUP4 SUB DUP2 DUP7 GAS DELEGATECALL ISZERO DUP1 ISZERO PUSH2 0x2864 JUMPI RETURNDATASIZE PUSH1 0x0 DUP1 RETURNDATACOPY RETURNDATASIZE PUSH1 0x0 REVERT JUMPDEST POP POP POP POP PUSH1 0x40 MLOAD RETURNDATASIZE PUSH1 0x1F NOT PUSH1 0x1F DUP3 ADD AND DUP3 ADD DUP1 PUSH1 0x40 MSTORE POP DUP2 ADD SWAP1 PUSH2 0x2888 SWAP2 SWAP1 PUSH2 0x5059 JUMP JUMPDEST ISZERO JUMPDEST ISZERO PUSH2 0x2D0D JUMPI PUSH1 0x20 DUP2 ADD MLOAD PUSH1 0x1 PUSH1 0x1 PUSH1 0xA0 SHL SUB AND DUP3 MSTORE PUSH1 0xA0 DUP2 ADD MLOAD PUSH2 0x28AD SWAP1 PUSH2 0x119D JUMP JUMPDEST PUSH1 0x80 DUP4 ADD MSTORE PUSH1 0x60 DUP2 ADD MLOAD PUSH1 0x40 MLOAD PUSH4 0x2B2076E3 PUSH1 0xE1 SHL DUP2 MSTORE PUSH1 0xFF SWAP1 SWAP2 AND PUSH1 0x4 DUP3 ADD MSTORE PUSH20 0x0 SWAP1 PUSH4 0x5640EDC6 SWAP1 PUSH1 0x24 ADD PUSH1 0x20 PUSH1 0x40 MLOAD DUP1 DUP4 SUB DUP2 DUP7 GAS DELEGATECALL ISZERO DUP1 ISZERO PUSH2 0x290A JUMPI RETURNDATASIZE PUSH1 0x0 DUP1 RETURNDATACOPY RETURNDATASIZE PUSH1 0x0 REVERT JUMPDEST POP POP POP POP PUSH1 0x40 MLOAD RETURNDATASIZE PUSH1 0x1F NOT PUSH1 0x1F DUP3 ADD AND DUP3 ADD DUP1 PUSH1 0x40 MSTORE POP DUP2 ADD SWAP1 PUSH2 0x292E SWAP2 SWAP1 PUSH2 0x5059 JUMP JUMPDEST ISZERO PUSH2 0x2942 JUMPI PUSH1 0x80 DUP3 ADD MLOAD PUSH1 0xA0 DUP4 ADD MSTORE PUSH2 0x2A8E JUMP JUMPDEST PUSH2 0x120 DUP2 ADD MLOAD PUSH1 0x1 PUSH1 0x1 PUSH1 0x40 SHL SUB AND ISZERO PUSH2 0x296E JUMPI PUSH2 0x2964 DUP2 PUSH2 0x120 ADD MLOAD PUSH2 0x119D JUMP JUMPDEST PUSH1 0xA0 DUP4 ADD MSTORE PUSH2 0x2A8E JUMP JUMPDEST PUSH1 0x40 MLOAD PUSH4 0x23AA9AB PUSH1 0xE6 SHL DUP2 MSTORE PUSH32 0xCD775F2396F9F13F12BCF8CA32E21DF66559A8ADC3944D0591127E7731F7AB85 PUSH1 0x4 DUP3 ADD MSTORE PUSH32 0x0 PUSH1 0x1 PUSH1 0x1 PUSH1 0xA0 SHL SUB AND SWAP1 PUSH4 0x8EAA6AC0 SWAP1 PUSH1 0x24 ADD PUSH1 0x20 PUSH1 0x40 MLOAD DUP1 DUP4 SUB DUP2 DUP7 GAS STATICCALL ISZERO DUP1 ISZERO PUSH2 0x29F2 JUMPI RETURNDATASIZE PUSH1 0x0 DUP1 RETURNDATACOPY RETURNDATASIZE PUSH1 0x0 REVERT JUMPDEST POP POP POP POP PUSH1 0x40 MLOAD RETURNDATASIZE PUSH1 0x1F NOT PUSH1 0x1F DUP3 ADD AND DUP3 ADD DUP1 PUSH1 0x40 MSTORE POP DUP2 ADD SWAP1 PUSH2 0x2A16 SWAP2 SWAP1 PUSH2 0x51EB JUMP JUMPDEST PUSH1 0x1 PUSH1 0x1 PUSH1 0xA0 SHL SUB AND PUSH4 0xA9BF9858 DUP4 PUSH1 0x20 ADD MLOAD PUSH1 0x40 MLOAD DUP3 PUSH4 0xFFFFFFFF AND PUSH1 0xE0 SHL DUP2 MSTORE PUSH1 0x4 ADD PUSH2 0x2A47 SWAP2 DUP2 MSTORE PUSH1 0x20 ADD SWAP1 JUMP JUMPDEST PUSH1 0x20 PUSH1 0x40 MLOAD DUP1 DUP4 SUB DUP2 DUP7 GAS STATICCALL ISZERO DUP1 ISZERO PUSH2 0x2A64 JUMPI RETURNDATASIZE PUSH1 0x0 DUP1 RETURNDATACOPY RETURNDATASIZE PUSH1 0x0 REVERT JUMPDEST POP POP POP POP PUSH1 0x40 MLOAD RETURNDATASIZE PUSH1 0x1F NOT PUSH1 0x1F DUP3 ADD AND DUP3 ADD DUP1 PUSH1 0x40 MSTORE POP DUP2 ADD SWAP1 PUSH2 0x2A88 SWAP2 SWAP1 PUSH2 0x5076 JUMP JUMPDEST PUSH1 0xA0 DUP4 ADD MSTORE JUMPDEST PUSH2 0x2A9B DUP2 PUSH1 0xC0 ADD MLOAD PUSH2 0x119D JUMP JUMPDEST PUSH1 0xC0 DUP4 ADD MSTORE PUSH1 0xE0 DUP2 ADD MLOAD PUSH2 0x2AAE SWAP1 PUSH2 0x119D JUMP JUMPDEST PUSH1 0xE0 DUP4 ADD MSTORE PUSH1 0x60 DUP2 ADD MLOAD PUSH1 0x40 MLOAD PUSH4 0x5B7D0F69 PUSH1 0xE1 SHL DUP2 MSTORE PUSH1 0xFF SWAP1 SWAP2 AND PUSH1 0x4 DUP3 ADD MSTORE PUSH20 0x0 SWAP1 PUSH4 0xB6FA1ED2 SWAP1 PUSH1 0x24 ADD PUSH1 0x20 PUSH1 0x40 MLOAD DUP1 DUP4 SUB DUP2 DUP7 GAS DELEGATECALL ISZERO DUP1 ISZERO PUSH2 0x2B0B JUMPI RETURNDATASIZE PUSH1 0x0 DUP1 RETURNDATACOPY RETURNDATASIZE PUSH1 0x0 REVERT JUMPDEST POP POP POP POP PUSH1 0x40 MLOAD RETURNDATASIZE PUSH1 0x1F NOT PUSH1 0x1F DUP3 ADD AND DUP3 ADD DUP1 PUSH1 0x40 MSTORE POP DUP2 ADD SWAP1 PUSH2 0x2B2F SWAP2 SWAP1 PUSH2 0x5059 JUMP JUMPDEST ISZERO PUSH2 0x2CF8 JUMPI PUSH2 0x2B42 DUP2 PUSH2 0x140 ADD MLOAD PUSH2 0x119D JUMP JUMPDEST PUSH2 0x120 DUP4 ADD MSTORE PUSH2 0x160 DUP2 ADD MLOAD PUSH2 0x2B57 SWAP1 PUSH2 0x119D JUMP JUMPDEST PUSH2 0x140 DUP4 ADD MSTORE PUSH1 0x40 MLOAD PUSH4 0x23AA9AB PUSH1 0xE6 SHL DUP2 MSTORE PUSH32 0x3CB99135F7A7C088D9085B446345038A22A85F4E8FE072B0E1B66D97243E7458 PUSH1 0x4 DUP3 ADD MSTORE PUSH1 0x0 SWAP1 PUSH32 0x0 PUSH1 0x1 PUSH1 0x1 PUSH1 0xA0 SHL SUB AND SWAP1 PUSH4 0x8EAA6AC0 SWAP1 PUSH1 0x24 ADD PUSH1 0x20 PUSH1 0x40 MLOAD DUP1 DUP4 SUB DUP2 DUP7 GAS STATICCALL ISZERO DUP1 ISZERO PUSH2 0x2BE4 JUMPI RETURNDATASIZE PUSH1 0x0 DUP1 RETURNDATACOPY RETURNDATASIZE PUSH1 0x0 REVERT JUMPDEST POP POP POP POP PUSH1 0x40 MLOAD RETURNDATASIZE PUSH1 0x1F NOT PUSH1 0x1F DUP3 ADD AND DUP3 ADD DUP1 PUSH1 0x40 MSTORE POP DUP2 ADD SWAP1 PUSH2 0x2C08 SWAP2 SWAP1 PUSH2 0x51EB JUMP JUMPDEST PUSH1 0x1 PUSH1 0x1 PUSH1 0xA0 SHL SUB AND PUSH4 0x6464B68A DUP5 PUSH1 0x20 ADD MLOAD DUP6 PUSH1 0x40 ADD MLOAD PUSH1 0x40 MLOAD DUP4 PUSH4 0xFFFFFFFF AND PUSH1 0xE0 SHL DUP2 MSTORE PUSH1 0x4 ADD PUSH2 0x2C46 SWAP3 SWAP2 SWAP1 SWAP2 DUP3 MSTORE PUSH1 0x20 DUP3 ADD MSTORE PUSH1 0x40 ADD SWAP1 JUMP JUMPDEST PUSH1 0x60 PUSH1 0x40 MLOAD DUP1 DUP4 SUB DUP2 DUP7 GAS STATICCALL ISZERO DUP1 ISZERO PUSH2 0x2C63 JUMPI RETURNDATASIZE PUSH1 0x0 DUP1 RETURNDATACOPY RETURNDATASIZE PUSH1 0x0 REVERT JUMPDEST POP POP POP POP PUSH1 0x40 MLOAD RETURNDATASIZE PUSH1 0x1F NOT PUSH1 0x1F DUP3 ADD AND DUP3 ADD DUP1 PUSH1 0x40 MSTORE POP DUP2 ADD SWAP1 PUSH2 0x2C87 SWAP2 SWAP1 PUSH2 0x5916 JUMP JUMPDEST POP SWAP2 POP POP DUP1 PUSH2 0x2CCC JUMPI PUSH1 0x40 MLOAD PUSH3 0x461BCD PUSH1 0xE5 SHL DUP2 MSTORE PUSH1 0x20 PUSH1 0x4 DUP3 ADD MSTORE PUSH1 0x11 PUSH1 0x24 DUP3 ADD MSTORE PUSH17 0x145D5BDD194E88139BDD081C5D5BDD1959 PUSH1 0x7A SHL PUSH1 0x44 DUP3 ADD MSTORE PUSH1 0x64 ADD PUSH2 0x688 JUMP JUMPDEST PUSH2 0x140 DUP4 ADD MLOAD PUSH2 0x2CDC SWAP1 DUP3 PUSH2 0x5105 JUMP JUMPDEST DUP4 PUSH2 0x120 ADD MLOAD PUSH2 0x2CEC SWAP2 SWAP1 PUSH2 0x5127 JUMP JUMPDEST PUSH2 0x100 DUP5 ADD MSTORE POP PUSH2 0x2D0D JUMP JUMPDEST PUSH2 0x2D06 DUP2 PUSH2 0x100 ADD MLOAD PUSH2 0x119D JUMP JUMPDEST PUSH2 0x100 DUP4 ADD MSTORE JUMPDEST PUSH1 0x40 MLOAD PUSH4 0x212D6CB PUSH1 0xE2 SHL DUP2 MSTORE PUSH20 0x0 SWAP1 PUSH4 0x84B5B2C SWAP1 PUSH2 0x2D44 SWAP1 DUP5 SWAP1 PUSH1 0x4 ADD PUSH2 0x5944 JUMP JUMPDEST PUSH1 0x20 PUSH1 0x40 MLOAD DUP1 DUP4 SUB DUP2 DUP7 GAS DELEGATECALL ISZERO DUP1 ISZERO PUSH2 0x2D61 JUMPI RETURNDATASIZE PUSH1 0x0 DUP1 RETURNDATACOPY RETURNDATASIZE PUSH1 0x0 REVERT JUMPDEST POP POP POP POP PUSH1 0x40 MLOAD RETURNDATASIZE PUSH1 0x1F NOT PUSH1 0x1F DUP3 ADD AND DUP3 ADD DUP1 PUSH1 0x40 MSTORE POP DUP2 ADD SWAP1 PUSH2 0x2D85 SWAP2 SWAP1 PUSH2 0x5076 JUMP JUMPDEST PUSH2 0x160 DUP4 ADD MSTORE PUSH1 0x40 DUP2 ADD MLOAD PUSH2 0x180 DUP4 ADD SWAP1 PUSH1 0x5 DUP2 GT ISZERO PUSH2 0x2DA7 JUMPI PUSH2 0x2DA7 PUSH2 0x4E17 JUMP JUMPDEST SWAP1 DUP2 PUSH1 0x5 DUP2 GT ISZERO PUSH2 0x2DBA JUMPI PUSH2 0x2DBA PUSH2 0x4E17 JUMP JUMPDEST SWAP1 MSTORE POP PUSH1 0x60 ADD MLOAD PUSH1 0xFF AND PUSH2 0x1A0 DUP3 ADD MSTORE SWAP3 SWAP2 POP POP JUMP JUMPDEST PUSH1 0x0 SLOAD PUSH1 0x1 PUSH1 0x1 PUSH1 0xA0 SHL SUB PUSH3 0x10000 SWAP1 SWAP2 DIV AND CALLER EQ PUSH2 0x691 JUMPI PUSH1 0x40 MLOAD PUSH3 0x461BCD PUSH1 0xE5 SHL DUP2 MSTORE PUSH1 0x20 PUSH1 0x4 DUP3 ADD MSTORE PUSH1 0x1F PUSH1 0x24 DUP3 ADD MSTORE PUSH32 0x416C6C6F77616E63653A2063616C6C6572206D757374206265204F776E657200 PUSH1 0x44 DUP3 ADD MSTORE PUSH1 0x64 ADD PUSH2 0x688 JUMP JUMPDEST PUSH1 0x0 DUP1 SLOAD PUSH1 0x1 PUSH1 0x1 PUSH1 0xA0 SHL SUB DUP4 DUP2 AND PUSH3 0x10000 DUP2 DUP2 MUL PUSH3 0x10000 PUSH1 0x1 PUSH1 0xB0 SHL SUB NOT DUP6 AND OR DUP6 SSTORE PUSH1 0x40 MLOAD SWAP4 DIV SWAP2 SWAP1 SWAP2 AND SWAP3 SWAP1 SWAP2 DUP4 SWAP2 PUSH32 0x8BE0079C531659141344CD1FD0A4F28419497F9722A3DAAFE3B4186F6B6457E0 SWAP2 LOG3 POP POP JUMP JUMPDEST PUSH1 0x60 PUSH1 0x0 PUSH2 0x2EB4 PUSH1 0x40 MLOAD DUP1 PUSH1 0x60 ADD PUSH1 0x40 MSTORE DUP1 PUSH1 0x0 DUP2 MSTORE PUSH1 0x20 ADD PUSH1 0x0 DUP2 MSTORE PUSH1 0x20 ADD PUSH1 0x0 DUP2 MSTORE POP SWAP1 JUMP JUMPDEST PUSH2 0x2ECA DUP8 DUP8 PUSH1 0x0 ADD MLOAD DUP9 PUSH1 0xC0 ADD MLOAD PUSH1 0x0 DUP1 PUSH2 0x4165 JUMP JUMPDEST DUP1 MLOAD SWAP1 SWAP4 POP PUSH1 0x0 DUP2 PUSH1 0x1 PUSH1 0x1 PUSH1 0x40 SHL SUB DUP2 GT ISZERO PUSH2 0x2EE9 JUMPI PUSH2 0x2EE9 PUSH2 0x4854 JUMP JUMPDEST PUSH1 0x40 MLOAD SWAP1 DUP1 DUP3 MSTORE DUP1 PUSH1 0x20 MUL PUSH1 0x20 ADD DUP3 ADD PUSH1 0x40 MSTORE DUP1 ISZERO PUSH2 0x2F22 JUMPI DUP2 PUSH1 0x20 ADD JUMPDEST PUSH2 0x2F0F PUSH2 0x4668 JUMP JUMPDEST DUP2 MSTORE PUSH1 0x20 ADD SWAP1 PUSH1 0x1 SWAP1 SUB SWAP1 DUP2 PUSH2 0x2F07 JUMPI SWAP1 POP JUMPDEST POP SWAP1 POP PUSH1 0x0 DUP1 JUMPDEST DUP4 DUP2 LT ISZERO PUSH2 0x3274 JUMPI DUP10 PUSH1 0x0 ADD MLOAD DUP8 DUP3 DUP2 MLOAD DUP2 LT PUSH2 0x2F48 JUMPI PUSH2 0x2F48 PUSH2 0x50D4 JUMP JUMPDEST PUSH1 0x20 MUL PUSH1 0x20 ADD ADD MLOAD PUSH1 0x20 ADD MLOAD EQ PUSH2 0x2FB3 JUMPI PUSH1 0x40 MLOAD PUSH3 0x461BCD PUSH1 0xE5 SHL DUP2 MSTORE PUSH1 0x20 PUSH1 0x4 DUP3 ADD MSTORE PUSH1 0x29 PUSH1 0x24 DUP3 ADD MSTORE PUSH32 0x5F5F736561726368206F75745F5B695D2E61646472203D3D207461726765745F PUSH1 0x44 DUP3 ADD MSTORE PUSH9 0x2E63757272656E6379 PUSH1 0xB8 SHL PUSH1 0x64 DUP3 ADD MSTORE PUSH1 0x84 ADD PUSH2 0x688 JUMP JUMPDEST DUP9 MLOAD ISZERO DUP1 ISZERO SWAP1 PUSH2 0x2FE3 JUMPI POP DUP9 PUSH1 0x0 ADD MLOAD DUP8 DUP3 DUP2 MLOAD DUP2 LT PUSH2 0x2FD5 JUMPI PUSH2 0x2FD5 PUSH2 0x50D4 JUMP JUMPDEST PUSH1 0x20 MUL PUSH1 0x20 ADD ADD MLOAD PUSH1 0x80 ADD MLOAD GT JUMPDEST ISZERO PUSH2 0x2FED JUMPI PUSH2 0x3262 JUMP JUMPDEST DUP10 PUSH1 0x20 ADD MLOAD DUP8 DUP3 DUP2 MLOAD DUP2 LT PUSH2 0x3004 JUMPI PUSH2 0x3004 PUSH2 0x50D4 JUMP JUMPDEST PUSH1 0x20 MUL PUSH1 0x20 ADD ADD MLOAD PUSH1 0x60 ADD MLOAD LT ISZERO PUSH2 0x301B JUMPI PUSH2 0x3262 JUMP JUMPDEST DUP9 PUSH1 0x60 ADD MLOAD PUSH20 0x0 PUSH4 0x5640453D SWAP1 SWAP2 DUP10 DUP5 DUP2 MLOAD DUP2 LT PUSH2 0x304E JUMPI PUSH2 0x304E PUSH2 0x50D4 JUMP JUMPDEST PUSH1 0x20 MUL PUSH1 0x20 ADD ADD MLOAD PUSH1 0x0 ADD MLOAD PUSH1 0x40 MLOAD DUP4 PUSH4 0xFFFFFFFF AND PUSH1 0xE0 SHL DUP2 MSTORE PUSH1 0x4 ADD PUSH2 0x3077 SWAP3 SWAP2 SWAP1 PUSH2 0x5A33 JUMP JUMPDEST PUSH1 0x20 PUSH1 0x40 MLOAD DUP1 DUP4 SUB DUP2 DUP7 GAS DELEGATECALL ISZERO DUP1 ISZERO PUSH2 0x3094 JUMPI RETURNDATASIZE PUSH1 0x0 DUP1 RETURNDATACOPY RETURNDATASIZE PUSH1 0x0 REVERT JUMPDEST POP POP POP POP PUSH1 0x40 MLOAD RETURNDATASIZE PUSH1 0x1F NOT PUSH1 0x1F DUP3 ADD AND DUP3 ADD DUP1 PUSH1 0x40 MSTORE POP DUP2 ADD SWAP1 PUSH2 0x30B8 SWAP2 SWAP1 PUSH2 0x5076 JUMP JUMPDEST DUP8 DUP3 DUP2 MLOAD DUP2 LT PUSH2 0x30CA JUMPI PUSH2 0x30CA PUSH2 0x50D4 JUMP JUMPDEST PUSH1 0x20 MUL PUSH1 0x20 ADD ADD MLOAD PUSH1 0x40 ADD MLOAD LT ISZERO PUSH2 0x30E1 JUMPI PUSH2 0x3262 JUMP JUMPDEST DUP7 DUP2 DUP2 MLOAD DUP2 LT PUSH2 0x30F3 JUMPI PUSH2 0x30F3 PUSH2 0x50D4 JUMP JUMPDEST PUSH1 0x20 MUL PUSH1 0x20 ADD ADD MLOAD PUSH1 0x60 ADD MLOAD DUP10 PUSH1 0x60 ADD MLOAD PUSH20 0x0 PUSH4 0x5640453D SWAP1 SWAP2 DUP11 DUP6 DUP2 MLOAD DUP2 LT PUSH2 0x3132 JUMPI PUSH2 0x3132 PUSH2 0x50D4 JUMP JUMPDEST PUSH1 0x20 MUL PUSH1 0x20 ADD ADD MLOAD PUSH1 0x0 ADD MLOAD PUSH1 0x40 MLOAD DUP4 PUSH4 0xFFFFFFFF AND PUSH1 0xE0 SHL DUP2 MSTORE PUSH1 0x4 ADD PUSH2 0x315B SWAP3 SWAP2 SWAP1 PUSH2 0x5A33 JUMP JUMPDEST PUSH1 0x20 PUSH1 0x40 MLOAD DUP1 DUP4 SUB DUP2 DUP7 GAS DELEGATECALL ISZERO DUP1 ISZERO PUSH2 0x3178 JUMPI RETURNDATASIZE PUSH1 0x0 DUP1 RETURNDATACOPY RETURNDATASIZE PUSH1 0x0 REVERT JUMPDEST POP POP POP POP PUSH1 0x40 MLOAD RETURNDATASIZE PUSH1 0x1F NOT PUSH1 0x1F DUP3 ADD AND DUP3 ADD DUP1 PUSH1 0x40 MSTORE POP DUP2 ADD SWAP1 PUSH2 0x319C SWAP2 SWAP1 PUSH2 0x5076 JUMP JUMPDEST DUP9 DUP4 DUP2 MLOAD DUP2 LT PUSH2 0x31AE JUMPI PUSH2 0x31AE PUSH2 0x50D4 JUMP JUMPDEST PUSH1 0x20 MUL PUSH1 0x20 ADD ADD MLOAD PUSH1 0x40 ADD MLOAD PUSH2 0x31C4 SWAP2 SWAP1 PUSH2 0x50A5 JUMP JUMPDEST LT ISZERO PUSH2 0x31CF JUMPI PUSH2 0x3262 JUMP JUMPDEST DUP10 PUSH1 0xA0 ADD MLOAD PUSH1 0x1 EQ DUP1 ISZERO PUSH2 0x31E6 JUMPI POP PUSH1 0x20 DUP10 ADD MLOAD ISZERO ISZERO JUMPDEST DUP1 ISZERO PUSH2 0x3212 JUMPI POP DUP9 PUSH1 0x20 ADD MLOAD DUP8 DUP3 DUP2 MLOAD DUP2 LT PUSH2 0x3204 JUMPI PUSH2 0x3204 PUSH2 0x50D4 JUMP JUMPDEST PUSH1 0x20 MUL PUSH1 0x20 ADD ADD MLOAD PUSH1 0x80 ADD MLOAD GT JUMPDEST ISZERO PUSH2 0x321C JUMPI PUSH2 0x3262 JUMP JUMPDEST DUP7 DUP2 DUP2 MLOAD DUP2 LT PUSH2 0x322E JUMPI PUSH2 0x322E PUSH2 0x50D4 JUMP JUMPDEST PUSH1 0x20 MUL PUSH1 0x20 ADD ADD MLOAD DUP4 DUP4 DUP2 MLOAD DUP2 LT PUSH2 0x3248 JUMPI PUSH2 0x3248 PUSH2 0x50D4 JUMP JUMPDEST PUSH1 0x20 MUL PUSH1 0x20 ADD ADD DUP2 SWAP1 MSTORE POP DUP2 DUP1 PUSH2 0x325E SWAP1 PUSH2 0x50EA JUMP JUMPDEST SWAP3 POP POP JUMPDEST DUP1 PUSH2 0x326C DUP2 PUSH2 0x50EA JUMP JUMPDEST SWAP2 POP POP PUSH2 0x2F29 JUMP JUMPDEST POP DUP2 MSTORE SWAP4 POP PUSH20 0x0 SWAP1 POP PUSH4 0xB51B8E82 DUP5 PUSH1 0x0 DUP10 DUP10 DUP3 PUSH1 0x40 MLOAD SWAP1 DUP1 DUP3 MSTORE DUP1 PUSH1 0x20 MUL PUSH1 0x20 ADD DUP3 ADD PUSH1 0x40 MSTORE DUP1 ISZERO PUSH2 0x32D4 JUMPI DUP2 PUSH1 0x20 ADD JUMPDEST PUSH2 0x32C1 PUSH2 0x4668 JUMP JUMPDEST DUP2 MSTORE PUSH1 0x20 ADD SWAP1 PUSH1 0x1 SWAP1 SUB SWAP1 DUP2 PUSH2 0x32B9 JUMPI SWAP1 POP JUMPDEST POP PUSH1 0x40 MLOAD DUP7 PUSH4 0xFFFFFFFF AND PUSH1 0xE0 SHL DUP2 MSTORE PUSH1 0x4 ADD PUSH2 0x32F5 SWAP6 SWAP5 SWAP4 SWAP3 SWAP2 SWAP1 PUSH2 0x5A88 JUMP JUMPDEST PUSH1 0x0 PUSH1 0x40 MLOAD DUP1 DUP4 SUB DUP2 DUP7 GAS DELEGATECALL ISZERO DUP1 ISZERO PUSH2 0x3312 JUMPI RETURNDATASIZE PUSH1 0x0 DUP1 RETURNDATACOPY RETURNDATASIZE PUSH1 0x0 REVERT JUMPDEST POP POP POP POP PUSH1 0x40 MLOAD RETURNDATASIZE PUSH1 0x0 DUP3 RETURNDATACOPY PUSH1 0x1F RETURNDATASIZE SWAP1 DUP2 ADD PUSH1 0x1F NOT AND DUP3 ADD PUSH1 0x40 MSTORE PUSH2 0x333A SWAP2 SWAP1 DUP2 ADD SWAP1 PUSH2 0x5B31 JUMP JUMPDEST SWAP2 SWAP5 POP SWAP3 POP SWAP1 POP DUP4 PUSH2 0x159E JUMPI PUSH1 0x40 MLOAD PUSH4 0x7BF5CDDB PUSH1 0xE1 SHL DUP2 MSTORE PUSH20 0x0 SWAP1 PUSH4 0xF7EB9BB6 SWAP1 PUSH2 0x337D SWAP1 DUP7 SWAP1 PUSH1 0x4 ADD PUSH2 0x5B88 JUMP JUMPDEST PUSH1 0x0 PUSH1 0x40 MLOAD DUP1 DUP4 SUB DUP2 DUP7 GAS DELEGATECALL ISZERO DUP1 ISZERO PUSH2 0x339A JUMPI RETURNDATASIZE PUSH1 0x0 DUP1 RETURNDATACOPY RETURNDATASIZE PUSH1 0x0 REVERT JUMPDEST POP POP POP POP PUSH1 0x40 MLOAD RETURNDATASIZE PUSH1 0x0 DUP3 RETURNDATACOPY PUSH1 0x1F RETURNDATASIZE SWAP1 DUP2 ADD PUSH1 0x1F NOT AND DUP3 ADD PUSH1 0x40 MSTORE PUSH2 0x33C2 SWAP2 SWAP1 DUP2 ADD SWAP1 PUSH2 0x58BE JUMP JUMPDEST SWAP3 POP DUP6 PUSH1 0xA0 ADD MLOAD PUSH1 0x0 EQ ISZERO DUP1 ISZERO PUSH2 0x33DD JUMPI POP DUP6 PUSH1 0xA0 ADD MLOAD DUP4 MLOAD GT JUMPDEST ISZERO PUSH2 0x159E JUMPI PUSH1 0xA0 DUP7 ADD MLOAD DUP1 DUP5 MSTORE PUSH1 0x40 MLOAD PUSH4 0x742228D7 PUSH1 0xE0 SHL DUP2 MSTORE PUSH20 0x0 SWAP1 PUSH4 0x742228D7 SWAP1 PUSH2 0x3421 SWAP1 DUP8 SWAP1 PUSH1 0x4 ADD PUSH2 0x5B88 JUMP JUMPDEST PUSH1 0x80 PUSH1 0x40 MLOAD DUP1 DUP4 SUB DUP2 DUP7 GAS DELEGATECALL ISZERO DUP1 ISZERO PUSH2 0x343E JUMPI RETURNDATASIZE PUSH1 0x0 DUP1 RETURNDATACOPY RETURNDATASIZE PUSH1 0x0 REVERT JUMPDEST POP POP POP POP PUSH1 0x40 MLOAD RETURNDATASIZE PUSH1 0x1F NOT PUSH1 0x1F DUP3 ADD AND DUP3 ADD DUP1 PUSH1 0x40 MSTORE POP DUP2 ADD SWAP1 PUSH2 0x3462 SWAP2 SWAP1 PUSH2 0x5B9B JUMP JUMPDEST SWAP1 SWAP4 POP SWAP2 POP POP SWAP5 POP SWAP5 POP SWAP5 SWAP2 POP POP JUMP JUMPDEST PUSH1 0x0 DUP3 DUP2 MSTORE PUSH1 0x1 PUSH1 0x20 SWAP1 DUP2 MSTORE PUSH1 0x40 DUP1 DUP4 KECCAK256 DUP1 SLOAD DUP3 MLOAD DUP2 DUP6 MUL DUP2 ADD DUP6 ADD SWAP1 SWAP4 MSTORE DUP1 DUP4 MSTORE PUSH1 0x60 SWAP5 SWAP4 DUP4 ADD DUP3 DUP3 DUP1 ISZERO PUSH2 0x34C7 JUMPI PUSH1 0x20 MUL DUP3 ADD SWAP2 SWAP1 PUSH1 0x0 MSTORE PUSH1 0x20 PUSH1 0x0 KECCAK256 SWAP1 JUMPDEST DUP2 SLOAD DUP2 MSTORE PUSH1 0x20 ADD SWAP1 PUSH1 0x1 ADD SWAP1 DUP1 DUP4 GT PUSH2 0x34B3 JUMPI JUMPDEST POP POP POP POP POP SWAP1 POP PUSH1 0x0 DUP2 MLOAD GT PUSH2 0x351F JUMPI PUSH1 0x40 MLOAD PUSH3 0x461BCD PUSH1 0xE5 SHL DUP2 MSTORE PUSH1 0x20 PUSH1 0x4 DUP3 ADD MSTORE PUSH1 0x1B PUSH1 0x24 DUP3 ADD MSTORE PUSH32 0x5F706174684C6973742066726F6D706174682E6C656E6774683E300000000000 PUSH1 0x44 DUP3 ADD MSTORE PUSH1 0x64 ADD PUSH2 0x688 JUMP JUMPDEST DUP1 MLOAD PUSH1 0x1 PUSH1 0x1 PUSH1 0x40 SHL SUB DUP2 GT ISZERO PUSH2 0x3538 JUMPI PUSH2 0x3538 PUSH2 0x4854 JUMP JUMPDEST PUSH1 0x40 MLOAD SWAP1 DUP1 DUP3 MSTORE DUP1 PUSH1 0x20 MUL PUSH1 0x20 ADD DUP3 ADD PUSH1 0x40 MSTORE DUP1 ISZERO PUSH2 0x356B JUMPI DUP2 PUSH1 0x20 ADD JUMPDEST PUSH1 0x60 DUP2 MSTORE PUSH1 0x20 ADD SWAP1 PUSH1 0x1 SWAP1 SUB SWAP1 DUP2 PUSH2 0x3556 JUMPI SWAP1 POP JUMPDEST POP SWAP2 POP PUSH1 0x0 DUP1 JUMPDEST DUP3 MLOAD DUP2 LT ISZERO PUSH2 0x3816 JUMPI PUSH32 0x0 PUSH1 0x1 PUSH1 0x1 PUSH1 0xA0 SHL SUB AND PUSH4 0x38A699A4 DUP5 DUP4 DUP2 MLOAD DUP2 LT PUSH2 0x35BC JUMPI PUSH2 0x35BC PUSH2 0x50D4 JUMP JUMPDEST PUSH1 0x20 MUL PUSH1 0x20 ADD ADD MLOAD PUSH1 0x40 MLOAD DUP3 PUSH4 0xFFFFFFFF AND PUSH1 0xE0 SHL DUP2 MSTORE PUSH1 0x4 ADD PUSH2 0x35E2 SWAP2 DUP2 MSTORE PUSH1 0x20 ADD SWAP1 JUMP JUMPDEST PUSH1 0x20 PUSH1 0x40 MLOAD DUP1 DUP4 SUB DUP2 DUP7 GAS STATICCALL ISZERO DUP1 ISZERO PUSH2 0x35FF JUMPI RETURNDATASIZE PUSH1 0x0 DUP1 RETURNDATACOPY RETURNDATASIZE PUSH1 0x0 REVERT JUMPDEST POP POP POP POP PUSH1 0x40 MLOAD RETURNDATASIZE PUSH1 0x1F NOT PUSH1 0x1F DUP3 ADD AND DUP3 ADD DUP1 PUSH1 0x40 MSTORE POP DUP2 ADD SWAP1 PUSH2 0x3623 SWAP2 SWAP1 PUSH2 0x5059 JUMP JUMPDEST PUSH2 0x362C JUMPI PUSH2 0x3804 JUMP JUMPDEST PUSH1 0x0 PUSH32 0x0 PUSH1 0x1 PUSH1 0x1 PUSH1 0xA0 SHL SUB AND PUSH4 0x27EE9DC2 DUP6 DUP5 DUP2 MLOAD DUP2 LT PUSH2 0x366F JUMPI PUSH2 0x366F PUSH2 0x50D4 JUMP JUMPDEST PUSH1 0x20 MUL PUSH1 0x20 ADD ADD MLOAD PUSH1 0x40 MLOAD DUP3 PUSH4 0xFFFFFFFF AND PUSH1 0xE0 SHL DUP2 MSTORE PUSH1 0x4 ADD PUSH2 0x3695 SWAP2 DUP2 MSTORE PUSH1 0x20 ADD SWAP1 JUMP JUMPDEST PUSH1 0x0 PUSH1 0x40 MLOAD DUP1 DUP4 SUB DUP2 DUP7 GAS STATICCALL ISZERO DUP1 ISZERO PUSH2 0x36B2 JUMPI RETURNDATASIZE PUSH1 0x0 DUP1 RETURNDATACOPY RETURNDATASIZE PUSH1 0x0 REVERT JUMPDEST POP POP POP POP PUSH1 0x40 MLOAD RETURNDATASIZE PUSH1 0x0 DUP3 RETURNDATACOPY PUSH1 0x1F RETURNDATASIZE SWAP1 DUP2 ADD PUSH1 0x1F NOT AND DUP3 ADD PUSH1 0x40 MSTORE PUSH2 0x36DA SWAP2 SWAP1 DUP2 ADD SWAP1 PUSH2 0x51B7 JUMP JUMPDEST SWAP1 POP PUSH1 0x0 DUP2 MLOAD GT PUSH2 0x3727 JUMPI PUSH1 0x40 MLOAD PUSH3 0x461BCD PUSH1 0xE5 SHL DUP2 MSTORE PUSH1 0x20 PUSH1 0x4 DUP3 ADD MSTORE PUSH1 0x17 PUSH1 0x24 DUP3 ADD MSTORE PUSH23 0x5F706174684C69737420706174682E6C656E6774683E3 PUSH1 0x4C SHL PUSH1 0x44 DUP3 ADD MSTORE PUSH1 0x64 ADD PUSH2 0x688 JUMP JUMPDEST DUP6 DUP2 PUSH1 0x1 DUP4 MLOAD PUSH2 0x3737 SWAP2 SWAP1 PUSH2 0x50A5 JUMP JUMPDEST DUP2 MLOAD DUP2 LT PUSH2 0x3747 JUMPI PUSH2 0x3747 PUSH2 0x50D4 JUMP JUMPDEST PUSH1 0x20 MUL PUSH1 0x20 ADD ADD MLOAD EQ PUSH2 0x375A JUMPI POP PUSH2 0x3804 JUMP JUMPDEST PUSH1 0x0 JUMPDEST PUSH1 0x1 DUP3 MLOAD PUSH2 0x376B SWAP2 SWAP1 PUSH2 0x50A5 JUMP JUMPDEST DUP2 LT ISZERO PUSH2 0x37BC JUMPI PUSH2 0x37A1 PUSH20 0x0 PUSH4 0x76254FF9 DUP5 DUP5 DUP2 MLOAD DUP2 LT PUSH2 0xFC9 JUMPI PUSH2 0xFC9 PUSH2 0x50D4 JUMP JUMPDEST PUSH2 0x37AA JUMPI PUSH2 0x37BC JUMP JUMPDEST DUP1 PUSH2 0x37B4 DUP2 PUSH2 0x50EA JUMP JUMPDEST SWAP2 POP POP PUSH2 0x375D JUMP JUMPDEST PUSH1 0x1 DUP3 MLOAD PUSH2 0x37CA SWAP2 SWAP1 PUSH2 0x50A5 JUMP JUMPDEST DUP2 LT ISZERO PUSH2 0x37D8 JUMPI POP POP PUSH2 0x3804 JUMP JUMPDEST DUP2 DUP7 DUP6 PUSH2 0x37E4 DUP2 PUSH2 0x50EA JUMP JUMPDEST SWAP7 POP DUP2 MLOAD DUP2 LT PUSH2 0x37F6 JUMPI PUSH2 0x37F6 PUSH2 0x50D4 JUMP JUMPDEST PUSH1 0x20 MUL PUSH1 0x20 ADD ADD DUP2 SWAP1 MSTORE POP POP POP JUMPDEST DUP1 PUSH2 0x380E DUP2 PUSH2 0x50EA JUMP JUMPDEST SWAP2 POP POP PUSH2 0x3572 JUMP JUMPDEST POP DUP1 DUP4 MSTORE PUSH1 0x0 DUP2 GT PUSH2 0x385E JUMPI PUSH1 0x40 MLOAD PUSH3 0x461BCD PUSH1 0xE5 SHL DUP2 MSTORE PUSH1 0x20 PUSH1 0x4 DUP3 ADD MSTORE PUSH1 0x11 PUSH1 0x24 DUP3 ADD MSTORE PUSH17 0x5F706174684C69737420636F756E743E3 PUSH1 0x7C SHL PUSH1 0x44 DUP3 ADD MSTORE PUSH1 0x64 ADD PUSH2 0x688 JUMP JUMPDEST POP POP SWAP3 SWAP2 POP POP JUMP JUMPDEST PUSH2 0x386E PUSH2 0x461E JUMP JUMPDEST PUSH1 0x2 DUP6 MLOAD LT ISZERO PUSH2 0x38CC JUMPI PUSH1 0x40 MLOAD PUSH3 0x461BCD PUSH1 0xE5 SHL DUP2 MSTORE PUSH1 0x20 PUSH1 0x4 DUP3 ADD MSTORE PUSH1 0x23 PUSH1 0x24 DUP3 ADD MSTORE PUSH32 0x5F5F73656172636843466F6C6C6F775061746820706174685F2E6C656E677468 PUSH1 0x44 DUP3 ADD MSTORE PUSH3 0x1F1E99 PUSH1 0xE9 SHL PUSH1 0x64 DUP3 ADD MSTORE PUSH1 0x84 ADD PUSH2 0x688 JUMP JUMPDEST DUP4 MLOAD DUP6 MLOAD DUP7 SWAP1 PUSH2 0x38DE SWAP1 PUSH1 0x1 SWAP1 PUSH2 0x50A5 JUMP JUMPDEST DUP2 MLOAD DUP2 LT PUSH2 0x38EE JUMPI PUSH2 0x38EE PUSH2 0x50D4 JUMP JUMPDEST PUSH1 0x20 MUL PUSH1 0x20 ADD ADD MLOAD EQ PUSH2 0x3969 JUMPI PUSH1 0x40 MLOAD PUSH3 0x461BCD PUSH1 0xE5 SHL DUP2 MSTORE PUSH1 0x20 PUSH1 0x4 DUP3 ADD MSTORE PUSH1 0x3D PUSH1 0x24 DUP3 ADD MSTORE PUSH32 0x5F5F73656172636843466F6C6C6F775061746820706174685F5B706174685F2E PUSH1 0x44 DUP3 ADD MSTORE PUSH32 0x6C656E677468202D20315D3D3D7461726765745F2E63757272656E6379000000 PUSH1 0x64 DUP3 ADD MSTORE PUSH1 0x84 ADD PUSH2 0x688 JUMP JUMPDEST PUSH1 0x60 PUSH2 0x3973 PUSH2 0x474F JUMP JUMPDEST DUP7 MLOAD PUSH1 0x2 EQ ISZERO PUSH2 0x3A79 JUMPI PUSH2 0x39B0 DUP8 PUSH1 0x2 DUP10 MLOAD PUSH2 0x398F SWAP2 SWAP1 PUSH2 0x50A5 JUMP JUMPDEST DUP2 MLOAD DUP2 LT PUSH2 0x399F JUMPI PUSH2 0x399F PUSH2 0x50D4 JUMP JUMPDEST PUSH1 0x20 MUL PUSH1 0x20 ADD ADD MLOAD DUP8 DUP8 PUSH1 0x0 PUSH2 0x2E8C JUMP JUMPDEST PUSH1 0x40 DUP5 ADD MSTORE PUSH1 0x20 DUP4 ADD MSTORE DUP1 MLOAD PUSH1 0x80 DUP4 ADD MSTORE DUP8 MLOAD SWAP1 SWAP3 POP PUSH20 0x0 SWAP1 PUSH4 0x2FBF1F93 SWAP1 DUP4 SWAP1 DUP11 SWAP1 PUSH2 0x39F2 SWAP1 PUSH1 0x2 SWAP1 PUSH2 0x50A5 JUMP JUMPDEST DUP2 MLOAD DUP2 LT PUSH2 0x3A02 JUMPI PUSH2 0x3A02 PUSH2 0x50D4 JUMP JUMPDEST PUSH1 0x20 MUL PUSH1 0x20 ADD ADD MLOAD DUP10 PUSH1 0x0 ADD MLOAD PUSH1 0x40 MLOAD DUP5 PUSH4 0xFFFFFFFF AND PUSH1 0xE0 SHL DUP2 MSTORE PUSH1 0x4 ADD PUSH2 0x3A2D SWAP4 SWAP3 SWAP2 SWAP1 PUSH2 0x5BC8 JUMP JUMPDEST PUSH1 0x0 PUSH1 0x40 MLOAD DUP1 DUP4 SUB DUP2 DUP7 GAS DELEGATECALL ISZERO DUP1 ISZERO PUSH2 0x3A4A JUMPI RETURNDATASIZE PUSH1 0x0 DUP1 RETURNDATACOPY RETURNDATASIZE PUSH1 0x0 REVERT JUMPDEST POP POP POP POP PUSH1 0x40 MLOAD RETURNDATASIZE PUSH1 0x0 DUP3 RETURNDATACOPY PUSH1 0x1F RETURNDATASIZE SWAP1 DUP2 ADD PUSH1 0x1F NOT AND DUP3 ADD PUSH1 0x40 MSTORE PUSH2 0x3A72 SWAP2 SWAP1 DUP2 ADD SWAP1 PUSH2 0x5BED JUMP JUMPDEST SWAP1 POP PUSH2 0x40D8 JUMP JUMPDEST PUSH1 0x40 DUP6 ADD MLOAD PUSH1 0x1 JUMPDEST PUSH1 0x1 DUP10 MLOAD PUSH2 0x3A8F SWAP2 SWAP1 PUSH2 0x50A5 JUMP JUMPDEST DUP2 LT ISZERO PUSH2 0x3C4C JUMPI PUSH1 0x0 PUSH2 0x3B84 DUP11 PUSH2 0x3AA7 PUSH1 0x1 DUP6 PUSH2 0x50A5 JUMP JUMPDEST DUP2 MLOAD DUP2 LT PUSH2 0x3AB7 JUMPI PUSH2 0x3AB7 PUSH2 0x50D4 JUMP JUMPDEST PUSH1 0x20 MUL PUSH1 0x20 ADD ADD MLOAD PUSH1 0x40 MLOAD DUP1 PUSH1 0xE0 ADD PUSH1 0x40 MSTORE DUP1 DUP14 DUP7 DUP2 MLOAD DUP2 LT PUSH2 0x3ADC JUMPI PUSH2 0x3ADC PUSH2 0x50D4 JUMP JUMPDEST PUSH1 0x20 MUL PUSH1 0x20 ADD ADD MLOAD DUP2 MSTORE PUSH1 0x20 ADD PUSH1 0x0 DUP2 MSTORE PUSH1 0x20 ADD PUSH1 0x0 DUP2 MSTORE PUSH1 0x20 ADD PUSH1 0x0 ISZERO ISZERO DUP2 MSTORE PUSH1 0x20 ADD PUSH1 0x0 ISZERO ISZERO DUP2 MSTORE PUSH1 0x20 ADD PUSH1 0x0 DUP2 MSTORE PUSH1 0x20 ADD PUSH1 0x0 PUSH1 0x1 PUSH1 0x1 PUSH1 0x40 SHL SUB DUP2 GT ISZERO PUSH2 0x3B29 JUMPI PUSH2 0x3B29 PUSH2 0x4854 JUMP JUMPDEST PUSH1 0x40 MLOAD SWAP1 DUP1 DUP3 MSTORE DUP1 PUSH1 0x20 MUL PUSH1 0x20 ADD DUP3 ADD PUSH1 0x40 MSTORE DUP1 ISZERO PUSH2 0x3B52 JUMPI DUP2 PUSH1 0x20 ADD PUSH1 0x20 DUP3 MUL DUP1 CALLDATASIZE DUP4 CALLDATACOPY ADD SWAP1 POP JUMPDEST POP DUP2 MSTORE POP PUSH1 0x40 MLOAD DUP1 PUSH1 0x80 ADD PUSH1 0x40 MSTORE DUP1 PUSH1 0x0 DUP2 MSTORE PUSH1 0x20 ADD PUSH1 0x0 DUP2 MSTORE PUSH1 0x20 ADD DUP8 DUP2 MSTORE PUSH1 0x20 ADD DUP13 PUSH1 0x60 ADD MLOAD DUP2 MSTORE POP PUSH1 0x1 PUSH2 0x2E8C JUMP JUMPDEST POP SWAP2 POP POP DUP1 PUSH2 0x3B97 JUMPI POP POP POP POP POP PUSH2 0x415D JUMP JUMPDEST DUP7 PUSH20 0x0 PUSH4 0xE23EDBEF SWAP1 SWAP2 DUP13 DUP6 DUP2 MLOAD DUP2 LT PUSH2 0x3BC6 JUMPI PUSH2 0x3BC6 PUSH2 0x50D4 JUMP JUMPDEST PUSH1 0x20 MUL PUSH1 0x20 ADD ADD MLOAD PUSH1 0x40 MLOAD DUP4 PUSH4 0xFFFFFFFF AND PUSH1 0xE0 SHL DUP2 MSTORE PUSH1 0x4 ADD PUSH2 0x3BEB SWAP3 SWAP2 SWAP1 PUSH2 0x5C21 JUMP JUMPDEST PUSH1 0x20 PUSH1 0x40 MLOAD DUP1 DUP4 SUB DUP2 DUP7 GAS DELEGATECALL ISZERO DUP1 ISZERO PUSH2 0x3C08 JUMPI RETURNDATASIZE PUSH1 0x0 DUP1 RETURNDATACOPY RETURNDATASIZE PUSH1 0x0 REVERT JUMPDEST POP POP POP POP PUSH1 0x40 MLOAD RETURNDATASIZE PUSH1 0x1F NOT PUSH1 0x1F DUP3 ADD AND DUP3 ADD DUP1 PUSH1 0x40 MSTORE POP DUP2 ADD SWAP1 PUSH2 0x3C2C SWAP2 SWAP1 PUSH2 0x5076 JUMP JUMPDEST PUSH2 0x3C36 SWAP1 DUP3 PUSH2 0x50BC JUMP JUMPDEST SWAP3 POP POP DUP1 DUP1 PUSH2 0x3C44 SWAP1 PUSH2 0x50EA JUMP JUMPDEST SWAP2 POP POP PUSH2 0x3A81 JUMP JUMPDEST POP PUSH2 0x3CA6 DUP9 PUSH1 0x2 DUP11 MLOAD PUSH2 0x3C5F SWAP2 SWAP1 PUSH2 0x50A5 JUMP JUMPDEST DUP2 MLOAD DUP2 LT PUSH2 0x3C6F JUMPI PUSH2 0x3C6F PUSH2 0x50D4 JUMP JUMPDEST PUSH1 0x20 MUL PUSH1 0x20 ADD ADD MLOAD DUP9 PUSH1 0x40 MLOAD DUP1 PUSH1 0x80 ADD PUSH1 0x40 MSTORE DUP1 PUSH1 0x0 DUP2 MSTORE PUSH1 0x20 ADD PUSH1 0x0 DUP2 MSTORE PUSH1 0x20 ADD DUP6 DUP2 MSTORE PUSH1 0x20 ADD DUP11 PUSH1 0x60 ADD MLOAD DUP2 MSTORE POP PUSH1 0x0 PUSH2 0x2E8C JUMP JUMPDEST PUSH1 0x40 DUP6 ADD MSTORE PUSH1 0x20 DUP5 ADD DUP2 SWAP1 MSTORE SWAP1 SWAP4 POP PUSH2 0x3CC1 JUMPI POP POP POP PUSH2 0x415D JUMP JUMPDEST DUP3 MLOAD PUSH1 0x80 DUP4 ADD MSTORE DUP8 MLOAD PUSH20 0x0 SWAP1 PUSH4 0x2FBF1F93 SWAP1 DUP5 SWAP1 DUP12 SWAP1 PUSH2 0x3CF6 SWAP1 PUSH1 0x2 SWAP1 PUSH2 0x50A5 JUMP JUMPDEST DUP2 MLOAD DUP2 LT PUSH2 0x3D06 JUMPI PUSH2 0x3D06 PUSH2 0x50D4 JUMP JUMPDEST PUSH1 0x20 MUL PUSH1 0x20 ADD ADD MLOAD DUP11 PUSH1 0x0 ADD MLOAD PUSH1 0x40 MLOAD DUP5 PUSH4 0xFFFFFFFF AND PUSH1 0xE0 SHL DUP2 MSTORE PUSH1 0x4 ADD PUSH2 0x3D31 SWAP4 SWAP3 SWAP2 SWAP1 PUSH2 0x5BC8 JUMP JUMPDEST PUSH1 0x0 PUSH1 0x40 MLOAD DUP1 DUP4 SUB DUP2 DUP7 GAS DELEGATECALL ISZERO DUP1 ISZERO PUSH2 0x3D4E JUMPI RETURNDATASIZE PUSH1 0x0 DUP1 RETURNDATACOPY RETURNDATASIZE PUSH1 0x0 REVERT JUMPDEST POP POP POP POP PUSH1 0x40 MLOAD RETURNDATASIZE PUSH1 0x0 DUP3 RETURNDATACOPY PUSH1 0x1F RETURNDATASIZE SWAP1 DUP2 ADD PUSH1 0x1F NOT AND DUP3 ADD PUSH1 0x40 MSTORE PUSH2 0x3D76 SWAP2 SWAP1 DUP2 ADD SWAP1 PUSH2 0x5BED JUMP JUMPDEST SWAP2 POP PUSH8 0xDE0B6B3A7640000 DUP3 PUSH1 0x40 ADD MLOAD PUSH1 0x20 ADD MLOAD DUP4 PUSH1 0x20 ADD MLOAD PUSH2 0x3D99 SWAP2 SWAP1 PUSH2 0x5127 JUMP JUMPDEST PUSH2 0x3DA3 SWAP2 SWAP1 PUSH2 0x5105 JUMP JUMPDEST SWAP1 POP PUSH1 0x0 PUSH1 0x2 DUP10 MLOAD PUSH2 0x3DB5 SWAP2 SWAP1 PUSH2 0x50A5 JUMP JUMPDEST SWAP1 POP JUMPDEST DUP1 ISZERO PUSH2 0x40D5 JUMPI PUSH1 0x60 PUSH2 0x3DC8 PUSH2 0x474F JUMP JUMPDEST PUSH2 0x3DD0 PUSH2 0x47A7 JUMP JUMPDEST PUSH2 0x3DFB PUSH1 0x40 MLOAD DUP1 PUSH1 0x80 ADD PUSH1 0x40 MSTORE DUP1 PUSH1 0x0 DUP2 MSTORE PUSH1 0x20 ADD PUSH1 0x0 DUP2 MSTORE PUSH1 0x20 ADD PUSH1 0x0 DUP2 MSTORE PUSH1 0x20 ADD PUSH1 0x60 DUP2 MSTORE POP SWAP1 JUMP JUMPDEST DUP13 DUP6 DUP2 MLOAD DUP2 LT PUSH2 0x3E0D JUMPI PUSH2 0x3E0D PUSH2 0x50D4 JUMP JUMPDEST PUSH1 0x20 MUL PUSH1 0x20 ADD ADD MLOAD DUP3 PUSH1 0x0 ADD DUP2 DUP2 MSTORE POP POP DUP10 PUSH20 0x0 PUSH4 0xE23EDBEF SWAP1 SWAP2 DUP16 DUP9 DUP2 MLOAD DUP2 LT PUSH2 0x3E4D JUMPI PUSH2 0x3E4D PUSH2 0x50D4 JUMP JUMPDEST PUSH1 0x20 MUL PUSH1 0x20 ADD ADD MLOAD PUSH1 0x40 MLOAD DUP4 PUSH4 0xFFFFFFFF AND PUSH1 0xE0 SHL DUP2 MSTORE PUSH1 0x4 ADD PUSH2 0x3E72 SWAP3 SWAP2 SWAP1 PUSH2 0x5C21 JUMP JUMPDEST PUSH1 0x20 PUSH1 0x40 MLOAD DUP1 DUP4 SUB DUP2 DUP7 GAS DELEGATECALL ISZERO DUP1 ISZERO PUSH2 0x3E8F JUMPI RETURNDATASIZE PUSH1 0x0 DUP1 RETURNDATACOPY RETURNDATASIZE PUSH1 0x0 REVERT JUMPDEST POP POP POP POP PUSH1 0x40 MLOAD RETURNDATASIZE PUSH1 0x1F NOT PUSH1 0x1F DUP3 ADD AND DUP3 ADD DUP1 PUSH1 0x40 MSTORE POP DUP2 ADD SWAP1 PUSH2 0x3EB3 SWAP2 SWAP1 PUSH2 0x5076 JUMP JUMPDEST PUSH2 0x3EBD SWAP1 DUP8 PUSH2 0x50A5 JUMP JUMPDEST PUSH1 0x40 DUP4 ADD MSTORE PUSH1 0x1 PUSH1 0x60 DUP1 DUP5 ADD DUP3 SWAP1 MSTORE DUP13 DUP2 ADD MLOAD SWAP1 DUP4 ADD MSTORE PUSH2 0x3F05 SWAP1 DUP15 SWAP1 PUSH2 0x3EE4 SWAP1 DUP9 PUSH2 0x50A5 JUMP JUMPDEST DUP2 MLOAD DUP2 LT PUSH2 0x3EF4 JUMPI PUSH2 0x3EF4 PUSH2 0x50D4 JUMP JUMPDEST PUSH1 0x20 MUL PUSH1 0x20 ADD ADD MLOAD DUP4 DUP4 PUSH1 0x0 PUSH2 0x2E8C JUMP JUMPDEST PUSH1 0x40 DUP7 ADD MSTORE PUSH1 0x20 DUP6 ADD DUP2 SWAP1 MSTORE SWAP1 SWAP5 POP ISZERO ISZERO SWAP2 POP PUSH2 0x3F29 SWAP1 POP JUMPI POP POP POP POP POP POP PUSH2 0x415D JUMP JUMPDEST PUSH8 0xDE0B6B3A7640000 DUP2 PUSH1 0x40 ADD MLOAD PUSH1 0x20 ADD MLOAD DUP3 PUSH1 0x20 ADD MLOAD PUSH2 0x3F4A SWAP2 SWAP1 PUSH2 0x5127 JUMP JUMPDEST PUSH2 0x3F54 SWAP2 SWAP1 PUSH2 0x5105 JUMP JUMPDEST SWAP4 POP PUSH20 0x0 PUSH4 0x50308EDE DUP7 DUP9 DUP15 PUSH2 0x3F7E PUSH1 0x1 DUP10 PUSH2 0x50A5 JUMP JUMPDEST DUP2 MLOAD DUP2 LT PUSH2 0x3F8E JUMPI PUSH2 0x3F8E PUSH2 0x50D4 JUMP JUMPDEST PUSH1 0x20 MUL PUSH1 0x20 ADD ADD MLOAD DUP7 PUSH1 0x40 MLOAD DUP6 PUSH4 0xFFFFFFFF AND PUSH1 0xE0 SHL DUP2 MSTORE PUSH1 0x4 ADD PUSH2 0x3FB6 SWAP5 SWAP4 SWAP3 SWAP2 SWAP1 PUSH2 0x5C34 JUMP JUMPDEST PUSH1 0x0 PUSH1 0x40 MLOAD DUP1 DUP4 SUB DUP2 DUP7 GAS DELEGATECALL ISZERO DUP1 ISZERO PUSH2 0x3FD3 JUMPI RETURNDATASIZE PUSH1 0x0 DUP1 RETURNDATACOPY RETURNDATASIZE PUSH1 0x0 REVERT JUMPDEST POP POP POP POP PUSH1 0x40 MLOAD RETURNDATASIZE PUSH1 0x0 DUP3 RETURNDATACOPY PUSH1 0x1F RETURNDATASIZE SWAP1 DUP2 ADD PUSH1 0x1F NOT AND DUP3 ADD PUSH1 0x40 MSTORE PUSH2 0x3FFB SWAP2 SWAP1 DUP2 ADD SWAP1 PUSH2 0x5C73 JUMP JUMPDEST PUSH1 0x40 DUP1 DUP5 ADD MLOAD MLOAD SWAP1 DUP4 ADD MLOAD MLOAD SWAP2 SWAP9 POP SWAP2 SWAP7 POP PUSH8 0xDE0B6B3A7640000 SWAP2 PUSH2 0x4020 SWAP2 PUSH2 0x5127 JUMP JUMPDEST PUSH2 0x402A SWAP2 SWAP1 PUSH2 0x5105 JUMP JUMPDEST PUSH1 0x40 DUP1 DUP8 ADD DUP1 MLOAD SWAP3 SWAP1 SWAP3 MSTORE DUP3 DUP2 ADD MLOAD DUP2 ADD MLOAD SWAP2 MLOAD ADD MLOAD PUSH8 0xDE0B6B3A7640000 SWAP2 PUSH2 0x4053 SWAP2 PUSH2 0x5127 JUMP JUMPDEST PUSH2 0x405D SWAP2 SWAP1 PUSH2 0x5105 JUMP JUMPDEST DUP6 PUSH1 0x40 ADD MLOAD PUSH1 0x40 ADD DUP2 DUP2 MSTORE POP POP PUSH8 0xDE0B6B3A7640000 DUP6 PUSH1 0x20 ADD MLOAD DUP3 PUSH1 0x40 ADD MLOAD PUSH1 0x20 ADD MLOAD DUP4 PUSH1 0x20 ADD MLOAD PUSH2 0x4090 SWAP2 SWAP1 PUSH2 0x5127 JUMP JUMPDEST PUSH2 0x409A SWAP2 SWAP1 PUSH2 0x5105 JUMP JUMPDEST DUP7 PUSH1 0x40 ADD MLOAD PUSH1 0x20 ADD MLOAD PUSH2 0x40AD SWAP2 SWAP1 PUSH2 0x5127 JUMP JUMPDEST PUSH2 0x40B7 SWAP2 SWAP1 PUSH2 0x5105 JUMP JUMPDEST PUSH1 0x40 DUP7 ADD MLOAD PUSH1 0x20 ADD MSTORE POP DUP2 SWAP1 POP PUSH2 0x40CD DUP2 PUSH2 0x5CD6 JUMP JUMPDEST SWAP2 POP POP PUSH2 0x3DB8 JUMP JUMPDEST POP POP JUMPDEST PUSH1 0x40 MLOAD PUSH4 0x7513CE1B PUSH1 0xE0 SHL DUP2 MSTORE PUSH20 0x0 SWAP1 PUSH4 0x7513CE1B SWAP1 PUSH2 0x4113 SWAP1 DUP7 SWAP1 DUP6 SWAP1 DUP8 SWAP1 PUSH1 0x4 ADD PUSH2 0x5465 JUMP JUMPDEST PUSH1 0x0 PUSH1 0x40 MLOAD DUP1 DUP4 SUB DUP2 DUP7 GAS DELEGATECALL ISZERO DUP1 ISZERO PUSH2 0x4130 JUMPI RETURNDATASIZE PUSH1 0x0 DUP1 RETURNDATACOPY RETURNDATASIZE PUSH1 0x0 REVERT JUMPDEST POP POP POP POP PUSH1 0x40 MLOAD RETURNDATASIZE PUSH1 0x0 DUP3 RETURNDATACOPY PUSH1 0x1F RETURNDATASIZE SWAP1 DUP2 ADD PUSH1 0x1F NOT AND DUP3 ADD PUSH1 0x40 MSTORE PUSH2 0x4158 SWAP2 SWAP1 DUP2 ADD SWAP1 PUSH2 0x5692 JUMP JUMPDEST SWAP3 POP POP POP JUMPDEST SWAP5 SWAP4 POP POP POP POP JUMP JUMPDEST PUSH1 0x60 PUSH1 0x0 DUP1 PUSH1 0x0 PUSH1 0x6 PUSH1 0x0 PUSH20 0x0 PUSH4 0x76254FF9 DUP13 DUP13 PUSH1 0x40 MLOAD DUP4 PUSH4 0xFFFFFFFF AND PUSH1 0xE0 SHL DUP2 MSTORE PUSH1 0x4 ADD PUSH2 0x41B2 SWAP3 SWAP2 SWAP1 SWAP2 DUP3 MSTORE PUSH1 0x20 DUP3 ADD MSTORE PUSH1 0x40 ADD SWAP1 JUMP JUMPDEST PUSH1 0x20 PUSH1 0x40 MLOAD DUP1 DUP4 SUB DUP2 DUP7 GAS DELEGATECALL ISZERO DUP1 ISZERO PUSH2 0x41CF JUMPI RETURNDATASIZE PUSH1 0x0 DUP1 RETURNDATACOPY RETURNDATASIZE PUSH1 0x0 REVERT JUMPDEST POP POP POP POP PUSH1 0x40 MLOAD RETURNDATASIZE PUSH1 0x1F NOT PUSH1 0x1F DUP3 ADD AND DUP3 ADD DUP1 PUSH1 0x40 MSTORE POP DUP2 ADD SWAP1 PUSH2 0x41F3 SWAP2 SWAP1 PUSH2 0x5076 JUMP JUMPDEST DUP2 MSTORE PUSH1 0x20 DUP2 ADD SWAP2 SWAP1 SWAP2 MSTORE PUSH1 0x40 ADD PUSH1 0x0 KECCAK256 DUP1 SLOAD SWAP1 SWAP2 POP DUP6 PUSH2 0x4211 JUMPI DUP1 SWAP6 POP JUMPDEST DUP6 PUSH1 0x1 PUSH1 0x1 PUSH1 0x40 SHL SUB DUP2 GT ISZERO PUSH2 0x4229 JUMPI PUSH2 0x4229 PUSH2 0x4854 JUMP JUMPDEST PUSH1 0x40 MLOAD SWAP1 DUP1 DUP3 MSTORE DUP1 PUSH1 0x20 MUL PUSH1 0x20 ADD DUP3 ADD PUSH1 0x40 MSTORE DUP1 ISZERO PUSH2 0x4262 JUMPI DUP2 PUSH1 0x20 ADD JUMPDEST PUSH2 0x424F PUSH2 0x4668 JUMP JUMPDEST DUP2 MSTORE PUSH1 0x20 ADD SWAP1 PUSH1 0x1 SWAP1 SUB SWAP1 DUP2 PUSH2 0x4247 JUMPI SWAP1 POP JUMPDEST POP SWAP5 POP PUSH1 0x0 JUMPDEST DUP2 DUP2 LT ISZERO PUSH2 0x460F JUMPI DUP7 DUP5 LT PUSH2 0x427C JUMPI PUSH2 0x460F JUMP JUMPDEST PUSH1 0x0 PUSH1 0x5 PUSH1 0x0 DUP6 DUP5 DUP2 SLOAD DUP2 LT PUSH2 0x4294 JUMPI PUSH2 0x4294 PUSH2 0x50D4 JUMP JUMPDEST SWAP1 PUSH1 0x0 MSTORE PUSH1 0x20 PUSH1 0x0 KECCAK256 ADD SLOAD DUP2 MSTORE PUSH1 0x20 ADD SWAP1 DUP2 MSTORE PUSH1 0x20 ADD PUSH1 0x0 KECCAK256 SWAP1 POP PUSH20 0x0 PUSH4 0x84B5B2C DUP3 PUSH1 0x40 MLOAD DUP3 PUSH4 0xFFFFFFFF AND PUSH1 0xE0 SHL DUP2 MSTORE PUSH1 0x4 ADD PUSH2 0x42E6 SWAP2 SWAP1 PUSH2 0x5DC8 JUMP JUMPDEST PUSH1 0x20 PUSH1 0x40 MLOAD DUP1 DUP4 SUB DUP2 DUP7 GAS DELEGATECALL ISZERO DUP1 ISZERO PUSH2 0x4303 JUMPI RETURNDATASIZE PUSH1 0x0 DUP1 RETURNDATACOPY RETURNDATASIZE PUSH1 0x0 REVERT JUMPDEST POP POP POP POP PUSH1 0x40 MLOAD RETURNDATASIZE PUSH1 0x1F NOT PUSH1 0x1F DUP3 ADD AND DUP3 ADD DUP1 PUSH1 0x40 MSTORE POP DUP2 ADD SWAP1 PUSH2 0x4327 SWAP2 SWAP1 PUSH2 0x5076 JUMP JUMPDEST ISZERO DUP1 PUSH2 0x43AB JUMPI POP PUSH1 0x40 MLOAD PUSH4 0x212D6CB PUSH1 0xE2 SHL DUP2 MSTORE TIMESTAMP SWAP1 PUSH20 0x0 SWAP1 PUSH4 0x84B5B2C SWAP1 PUSH2 0x4367 SWAP1 DUP6 SWAP1 PUSH1 0x4 ADD PUSH2 0x5DC8 JUMP JUMPDEST PUSH1 0x20 PUSH1 0x40 MLOAD DUP1 DUP4 SUB DUP2 DUP7 GAS DELEGATECALL ISZERO DUP1 ISZERO PUSH2 0x4384 JUMPI RETURNDATASIZE PUSH1 0x0 DUP1 RETURNDATACOPY RETURNDATASIZE PUSH1 0x0 REVERT JUMPDEST POP POP POP POP PUSH1 0x40 MLOAD RETURNDATASIZE PUSH1 0x1F NOT PUSH1 0x1F DUP3 ADD AND DUP3 ADD DUP1 PUSH1 0x40 MSTORE POP DUP2 ADD SWAP1 PUSH2 0x43A8 SWAP2 SWAP1 PUSH2 0x5076 JUMP JUMPDEST LT ISZERO JUMPDEST DUP1 ISZERO PUSH2 0x44C8 JUMPI POP PUSH1 0x40 MLOAD PUSH4 0x23AA9AB PUSH1 0xE6 SHL DUP2 MSTORE PUSH32 0x33FFBDFF3A4282DF4353F3593B78D26AAF4C28B5786164F828858505BC5E301C PUSH1 0x4 DUP3 ADD MSTORE PUSH32 0x0 PUSH1 0x1 PUSH1 0x1 PUSH1 0xA0 SHL SUB AND SWAP1 PUSH4 0x8EAA6AC0 SWAP1 PUSH1 0x24 ADD PUSH1 0x20 PUSH1 0x40 MLOAD DUP1 DUP4 SUB DUP2 DUP7 GAS STATICCALL ISZERO DUP1 ISZERO PUSH2 0x4436 JUMPI RETURNDATASIZE PUSH1 0x0 DUP1 RETURNDATACOPY RETURNDATASIZE PUSH1 0x0 REVERT JUMPDEST POP POP POP POP PUSH1 0x40 MLOAD RETURNDATASIZE PUSH1 0x1F NOT PUSH1 0x1F DUP3 ADD AND DUP3 ADD DUP1 PUSH1 0x40 MSTORE POP DUP2 ADD SWAP1 PUSH2 0x445A SWAP2 SWAP1 PUSH2 0x51EB JUMP JUMPDEST PUSH1 0x1 PUSH1 0x1 PUSH1 0xA0 SHL SUB AND PUSH4 0x5ACA1641 DUP3 DUP13 PUSH1 0x40 MLOAD DUP4 PUSH4 0xFFFFFFFF AND PUSH1 0xE0 SHL DUP2 MSTORE PUSH1 0x4 ADD PUSH2 0x4487 SWAP3 SWAP2 SWAP1 PUSH2 0x5DD7 JUMP JUMPDEST PUSH1 0x20 PUSH1 0x40 MLOAD DUP1 DUP4 SUB DUP2 DUP7 GAS STATICCALL ISZERO DUP1 ISZERO PUSH2 0x44A4 JUMPI RETURNDATASIZE PUSH1 0x0 DUP1 RETURNDATACOPY RETURNDATASIZE PUSH1 0x0 REVERT JUMPDEST POP POP POP POP PUSH1 0x40 MLOAD RETURNDATASIZE PUSH1 0x1F NOT PUSH1 0x1F DUP3 ADD AND DUP3 ADD DUP1 PUSH1 0x40 MSTORE POP DUP2 ADD SWAP1 PUSH2 0x44C8 SWAP2 SWAP1 PUSH2 0x5059 JUMP JUMPDEST ISZERO PUSH2 0x45FB JUMPI DUP6 PUSH2 0x44D7 DUP2 PUSH2 0x50EA JUMP JUMPDEST SWAP7 POP POP DUP9 DUP7 GT PUSH2 0x44E7 JUMPI POP PUSH2 0x45FD JUMP JUMPDEST PUSH1 0x0 PUSH2 0x4510 DUP6 DUP5 DUP2 SLOAD DUP2 LT PUSH2 0x44FE JUMPI PUSH2 0x44FE PUSH2 0x50D4 JUMP JUMPDEST SWAP1 PUSH1 0x0 MSTORE PUSH1 0x20 PUSH1 0x0 KECCAK256 ADD SLOAD PUSH1 0x1 PUSH2 0x2667 JUMP JUMPDEST SWAP1 POP DUP1 PUSH1 0xA0 ADD MLOAD DUP2 PUSH1 0x80 ADD MLOAD LT ISZERO PUSH2 0x4529 JUMPI POP POP PUSH2 0x45FD JUMP JUMPDEST DUP1 PUSH1 0x60 ADD MLOAD DUP9 DUP8 DUP2 MLOAD DUP2 LT PUSH2 0x4540 JUMPI PUSH2 0x4540 PUSH2 0x50D4 JUMP JUMPDEST PUSH1 0x20 MUL PUSH1 0x20 ADD ADD MLOAD PUSH1 0x0 ADD DUP2 DUP2 MSTORE POP POP DUP1 PUSH1 0x40 ADD MLOAD DUP9 DUP8 DUP2 MLOAD DUP2 LT PUSH2 0x4567 JUMPI PUSH2 0x4567 PUSH2 0x50D4 JUMP JUMPDEST PUSH1 0x20 MUL PUSH1 0x20 ADD ADD MLOAD PUSH1 0x20 ADD DUP2 DUP2 MSTORE POP POP DUP1 PUSH1 0xA0 ADD MLOAD DUP9 DUP8 DUP2 MLOAD DUP2 LT PUSH2 0x458E JUMPI PUSH2 0x458E PUSH2 0x50D4 JUMP JUMPDEST PUSH1 0x20 MUL PUSH1 0x20 ADD ADD MLOAD PUSH1 0x60 ADD DUP2 DUP2 MSTORE POP POP DUP1 PUSH1 0x80 ADD MLOAD DUP9 DUP8 DUP2 MLOAD DUP2 LT PUSH2 0x45B5 JUMPI PUSH2 0x45B5 PUSH2 0x50D4 JUMP JUMPDEST PUSH1 0x20 MUL PUSH1 0x20 ADD ADD MLOAD PUSH1 0x40 ADD DUP2 DUP2 MSTORE POP POP DUP1 PUSH2 0x100 ADD MLOAD DUP9 DUP8 DUP2 MLOAD DUP2 LT PUSH2 0x45DD JUMPI PUSH2 0x45DD PUSH2 0x50D4 JUMP JUMPDEST PUSH1 0x20 SWAP1 DUP2 MUL SWAP2 SWAP1 SWAP2 ADD ADD MLOAD PUSH1 0x80 ADD MSTORE DUP6 PUSH2 0x45F6 DUP2 PUSH2 0x50EA JUMP JUMPDEST SWAP7 POP POP POP JUMPDEST POP JUMPDEST DUP1 PUSH2 0x4607 DUP2 PUSH2 0x50EA JUMP JUMPDEST SWAP2 POP POP PUSH2 0x4268 JUMP JUMPDEST POP POP POP DUP3 MSTORE POP SWAP6 SWAP5 POP POP POP POP POP JUMP JUMPDEST PUSH1 0x40 MLOAD DUP1 PUSH1 0x80 ADD PUSH1 0x40 MSTORE DUP1 PUSH1 0x0 DUP2 MSTORE PUSH1 0x20 ADD PUSH2 0x4654 PUSH1 0x40 MLOAD DUP1 PUSH1 0x60 ADD PUSH1 0x40 MSTORE DUP1 PUSH1 0x0 DUP2 MSTORE PUSH1 0x20 ADD PUSH1 0x0 DUP2 MSTORE PUSH1 0x20 ADD PUSH1 0x0 DUP2 MSTORE POP SWAP1 JUMP JUMPDEST DUP2 MSTORE PUSH1 0x20 ADD PUSH1 0x60 DUP2 MSTORE PUSH1 0x20 ADD PUSH1 0x60 DUP2 MSTORE POP SWAP1 JUMP JUMPDEST PUSH1 0x40 MLOAD DUP1 PUSH1 0xC0 ADD PUSH1 0x40 MSTORE DUP1 PUSH1 0x0 DUP2 MSTORE PUSH1 0x20 ADD PUSH1 0x0 DUP1 NOT AND DUP2 MSTORE PUSH1 0x20 ADD PUSH1 0x0 DUP2 MSTORE PUSH1 0x20 ADD PUSH1 0x0 DUP2 MSTORE PUSH1 0x20 ADD PUSH1 0x0 DUP2 MSTORE PUSH1 0x20 ADD PUSH1 0x60 DUP2 MSTORE POP SWAP1 JUMP JUMPDEST PUSH1 0x40 MLOAD DUP1 PUSH2 0x1C0 ADD PUSH1 0x40 MSTORE DUP1 PUSH1 0x0 PUSH1 0x1 PUSH1 0x1 PUSH1 0xA0 SHL SUB AND DUP2 MSTORE PUSH1 0x20 ADD PUSH1 0x0 DUP1 NOT AND DUP2 MSTORE PUSH1 0x20 ADD PUSH1 0x0 DUP1 NOT AND DUP2 MSTORE PUSH1 0x20 ADD PUSH1 0x0 DUP2 MSTORE PUSH1 0x20 ADD PUSH1 0x0 DUP2 MSTORE PUSH1 0x20 ADD PUSH1 0x0 DUP2 MSTORE PUSH1 0x20 ADD PUSH1 0x0 DUP2 MSTORE PUSH1 0x20 ADD PUSH1 0x0 DUP2 MSTORE PUSH1 0x20 ADD PUSH1 0x0 DUP2 MSTORE PUSH1 0x20 ADD PUSH1 0x0 DUP2 MSTORE PUSH1 0x20 ADD PUSH1 0x0 DUP2 MSTORE PUSH1 0x20 ADD PUSH1 0x0 DUP2 MSTORE PUSH1 0x20 ADD PUSH1 0x0 PUSH1 0x5 DUP2 GT ISZERO PUSH2 0x4723 JUMPI PUSH2 0x4723 PUSH2 0x4E17 JUMP JUMPDEST DUP2 MSTORE PUSH1 0x0 PUSH1 0x20 SWAP1 SWAP2 ADD MSTORE SWAP1 JUMP JUMPDEST PUSH1 0x40 MLOAD DUP1 PUSH2 0x500 ADD PUSH1 0x40 MSTORE DUP1 PUSH1 0x28 SWAP1 PUSH1 0x20 DUP3 MUL DUP1 CALLDATASIZE DUP4 CALLDATACOPY POP SWAP2 SWAP3 SWAP2 POP POP JUMP JUMPDEST PUSH1 0x40 MLOAD DUP1 PUSH1 0xC0 ADD PUSH1 0x40 MSTORE DUP1 PUSH1 0x60 DUP2 MSTORE PUSH1 0x20 ADD PUSH1 0x0 DUP2 MSTORE PUSH1 0x20 ADD PUSH2 0x478C PUSH1 0x40 MLOAD DUP1 PUSH1 0x60 ADD PUSH1 0x40 MSTORE DUP1 PUSH1 0x0 DUP2 MSTORE PUSH1 0x20 ADD PUSH1 0x0 DUP2 MSTORE PUSH1 0x20 ADD PUSH1 0x0 DUP2 MSTORE POP SWAP1 JUMP JUMPDEST DUP2 MSTORE PUSH1 0x20 ADD PUSH1 0x0 DUP2 MSTORE PUSH1 0x20 ADD PUSH1 0x0 DUP2 MSTORE PUSH1 0x20 ADD PUSH1 0x60 DUP2 MSTORE POP SWAP1 JUMP JUMPDEST PUSH1 0x40 MLOAD DUP1 PUSH1 0xE0 ADD PUSH1 0x40 MSTORE DUP1 PUSH1 0x0 DUP1 NOT AND DUP2 MSTORE PUSH1 0x20 ADD PUSH1 0x0 DUP2 MSTORE PUSH1 0x20 ADD PUSH1 0x0 DUP2 MSTORE PUSH1 0x20 ADD PUSH1 0x0 ISZERO ISZERO DUP2 MSTORE PUSH1 0x20 ADD PUSH1 0x0 ISZERO ISZERO DUP2 MSTORE PUSH1 0x20 ADD PUSH1 0x0 DUP2 MSTORE PUSH1 0x20 ADD PUSH1 0x60 DUP2 MSTORE POP SWAP1 JUMP JUMPDEST PUSH1 0x0 DUP1 DUP6 DUP6 GT ISZERO PUSH2 0x47FB JUMPI PUSH1 0x0 DUP1 REVERT JUMPDEST DUP4 DUP7 GT ISZERO PUSH2 0x4808 JUMPI PUSH1 0x0 DUP1 REVERT JUMPDEST POP POP DUP3 ADD SWAP4 SWAP2 SWAP1 SWAP3 SUB SWAP2 POP JUMP JUMPDEST PUSH1 0x0 PUSH1 0x20 DUP3 DUP5 SUB SLT ISZERO PUSH2 0x4827 JUMPI PUSH1 0x0 DUP1 REVERT JUMPDEST DUP2 CALLDATALOAD PUSH1 0x1 PUSH1 0x1 PUSH1 0xE0 SHL SUB NOT DUP2 AND DUP2 EQ PUSH2 0xBAC JUMPI PUSH1 0x0 DUP1 REVERT JUMPDEST PUSH1 0x1 PUSH1 0x1 PUSH1 0xA0 SHL SUB DUP2 AND DUP2 EQ PUSH2 0x1C25 JUMPI PUSH1 0x0 DUP1 REVERT JUMPDEST PUSH4 0x4E487B71 PUSH1 0xE0 SHL PUSH1 0x0 MSTORE PUSH1 0x41 PUSH1 0x4 MSTORE PUSH1 0x24 PUSH1 0x0 REVERT JUMPDEST PUSH1 0x40 MLOAD PUSH1 0xC0 DUP2 ADD PUSH1 0x1 PUSH1 0x1 PUSH1 0x40 SHL SUB DUP2 GT DUP3 DUP3 LT OR ISZERO PUSH2 0x488C JUMPI PUSH2 0x488C PUSH2 0x4854 JUMP JUMPDEST PUSH1 0x40 MSTORE SWAP1 JUMP JUMPDEST PUSH1 0x40 MLOAD PUSH1 0x80 DUP2 ADD PUSH1 0x1 PUSH1 0x1 PUSH1 0x40 SHL SUB DUP2 GT DUP3 DUP3 LT OR ISZERO PUSH2 0x488C JUMPI PUSH2 0x488C PUSH2 0x4854 JUMP JUMPDEST PUSH1 0x40 DUP1 MLOAD SWAP1 DUP2 ADD PUSH1 0x1 PUSH1 0x1 PUSH1 0x40 SHL SUB DUP2 GT DUP3 DUP3 LT OR ISZERO PUSH2 0x488C JUMPI PUSH2 0x488C PUSH2 0x4854 JUMP JUMPDEST PUSH1 0x40 MLOAD PUSH1 0x1F DUP3 ADD PUSH1 0x1F NOT AND DUP2 ADD PUSH1 0x1 PUSH1 0x1 PUSH1 0x40 SHL SUB DUP2 GT DUP3 DUP3 LT OR ISZERO PUSH2 0x48FE JUMPI PUSH2 0x48FE PUSH2 0x4854 JUMP JUMPDEST PUSH1 0x40 MSTORE SWAP2 SWAP1 POP JUMP JUMPDEST DUP1 ISZERO ISZERO DUP2 EQ PUSH2 0x1C25 JUMPI PUSH1 0x0 DUP1 REVERT JUMPDEST DUP1 CALLDATALOAD PUSH2 0x491F DUP2 PUSH2 0x4906 JUMP JUMPDEST SWAP2 SWAP1 POP JUMP JUMPDEST PUSH1 0x0 PUSH2 0x100 DUP1 DUP4 DUP6 SUB SLT ISZERO PUSH2 0x4938 JUMPI PUSH1 0x0 DUP1 REVERT JUMPDEST PUSH1 0x40 MLOAD SWAP1 DUP2 ADD SWAP1 PUSH1 0x1 PUSH1 0x1 PUSH1 0x40 SHL SUB DUP3 GT DUP2 DUP4 LT OR ISZERO PUSH2 0x495A JUMPI PUSH2 0x495A PUSH2 0x4854 JUMP JUMPDEST PUSH1 0x40 SWAP2 DUP3 MSTORE DUP4 CALLDATALOAD DUP2 MSTORE PUSH1 0x20 DUP1 DUP6 ADD CALLDATALOAD SWAP1 DUP3 ADD MSTORE SWAP2 POP DUP3 ADD CALLDATALOAD DUP2 PUSH2 0x497C DUP3 PUSH2 0x4906 JUMP JUMPDEST DUP2 PUSH1 0x40 DUP3 ADD MSTORE PUSH2 0x498E PUSH1 0x60 DUP6 ADD PUSH2 0x4914 JUMP JUMPDEST PUSH1 0x60 DUP3 ADD MSTORE PUSH1 0x80 DUP5 ADD CALLDATALOAD PUSH1 0x80 DUP3 ADD MSTORE PUSH1 0xA0 DUP5 ADD CALLDATALOAD PUSH1 0xA0 DUP3 ADD MSTORE PUSH1 0xC0 DUP5 ADD CALLDATALOAD PUSH1 0xC0 DUP3 ADD MSTORE PUSH1 0xE0 DUP5 ADD CALLDATALOAD PUSH1 0xE0 DUP3 ADD MSTORE POP POP SWAP3 SWAP2 POP POP JUMP JUMPDEST PUSH1 0x0 PUSH1 0x1 PUSH1 0x1 PUSH1 0x40 SHL SUB DUP3 GT ISZERO PUSH2 0x49DC JUMPI PUSH2 0x49DC PUSH2 0x4854 JUMP JUMPDEST POP PUSH1 0x5 SHL PUSH1 0x20 ADD SWAP1 JUMP JUMPDEST PUSH1 0x0 DUP3 PUSH1 0x1F DUP4 ADD SLT PUSH2 0x49F7 JUMPI PUSH1 0x0 DUP1 REVERT JUMPDEST DUP2 CALLDATALOAD PUSH1 0x20 PUSH2 0x4A0C PUSH2 0x4A07 DUP4 PUSH2 0x49C3 JUMP JUMPDEST PUSH2 0x48D6 JUMP JUMPDEST DUP3 DUP2 MSTORE PUSH1 0x5 SWAP3 SWAP1 SWAP3 SHL DUP5 ADD DUP2 ADD SWAP2 DUP2 DUP2 ADD SWAP1 DUP7 DUP5 GT ISZERO PUSH2 0x4A2B JUMPI PUSH1 0x0 DUP1 REVERT JUMPDEST DUP3 DUP7 ADD JUMPDEST DUP5 DUP2 LT ISZERO PUSH2 0x4A46 JUMPI DUP1 CALLDATALOAD DUP4 MSTORE SWAP2 DUP4 ADD SWAP2 DUP4 ADD PUSH2 0x4A2F JUMP JUMPDEST POP SWAP7 SWAP6 POP POP POP POP POP POP JUMP JUMPDEST PUSH1 0x0 DUP1 PUSH1 0x0 DUP1 PUSH1 0x0 DUP1 PUSH2 0x1A0 DUP8 DUP10 SUB SLT ISZERO PUSH2 0x4A6B JUMPI PUSH1 0x0 DUP1 REVERT JUMPDEST DUP7 CALLDATALOAD PUSH2 0x4A76 DUP2 PUSH2 0x483F JUMP JUMPDEST SWAP6 POP PUSH1 0x20 DUP8 ADD CALLDATALOAD SWAP5 POP PUSH1 0x40 DUP8 ADD CALLDATALOAD PUSH2 0x4A8D DUP2 PUSH2 0x483F JUMP JUMPDEST SWAP4 POP PUSH1 0x60 DUP8 ADD CALLDATALOAD SWAP3 POP PUSH2 0x4AA3 DUP9 PUSH1 0x80 DUP10 ADD PUSH2 0x4924 JUMP JUMPDEST SWAP2 POP PUSH2 0x180 DUP8 ADD CALLDATALOAD PUSH1 0x1 PUSH1 0x1 PUSH1 0x40 SHL SUB DUP2 GT ISZERO PUSH2 0x4ABF JUMPI PUSH1 0x0 DUP1 REVERT JUMPDEST PUSH2 0x4ACB DUP10 DUP3 DUP11 ADD PUSH2 0x49E6 JUMP JUMPDEST SWAP2 POP POP SWAP3 SWAP6 POP SWAP3 SWAP6 POP SWAP3 SWAP6 JUMP JUMPDEST PUSH1 0x0 DUP2 MLOAD DUP1 DUP5 MSTORE PUSH1 0x20 DUP1 DUP6 ADD SWAP5 POP DUP1 DUP5 ADD PUSH1 0x0 JUMPDEST DUP4 DUP2 LT ISZERO PUSH2 0x4B08 JUMPI DUP2 MLOAD DUP8 MSTORE SWAP6 DUP3 ADD SWAP6 SWAP1 DUP3 ADD SWAP1 PUSH1 0x1 ADD PUSH2 0x4AEC JUMP JUMPDEST POP SWAP5 SWAP6 SWAP5 POP POP POP POP POP JUMP JUMPDEST PUSH1 0x0 DUP2 MLOAD DUP1 DUP5 MSTORE PUSH1 0x20 DUP1 DUP6 ADD DUP1 DUP2 SWAP7 POP DUP4 PUSH1 0x5 SHL DUP2 ADD SWAP2 POP DUP3 DUP7 ADD PUSH1 0x0 JUMPDEST DUP6 DUP2 LT ISZERO PUSH2 0x4B99 JUMPI DUP3 DUP5 SUB DUP10 MSTORE DUP2 MLOAD DUP1 MLOAD DUP6 MSTORE DUP6 DUP2 ADD MLOAD DUP7 DUP7 ADD MSTORE PUSH1 0x40 DUP1 DUP3 ADD MLOAD SWAP1 DUP7 ADD MSTORE PUSH1 0x60 DUP1 DUP3 ADD MLOAD SWAP1 DUP7 ADD MSTORE PUSH1 0x80 DUP1 DUP3 ADD MLOAD SWAP1 DUP7 ADD MSTORE PUSH1 0xA0 SWAP1 DUP2 ADD MLOAD PUSH1 0xC0 SWAP2 DUP7 ADD DUP3 SWAP1 MSTORE SWAP1 PUSH2 0x4B85 DUP2 DUP8 ADD DUP4 PUSH2 0x4AD8 JUMP JUMPDEST SWAP11 DUP8 ADD SWAP11 SWAP6 POP POP POP SWAP1 DUP5 ADD SWAP1 PUSH1 0x1 ADD PUSH2 0x4B31 JUMP JUMPDEST POP SWAP2 SWAP8 SWAP7 POP POP POP POP POP POP POP JUMP JUMPDEST PUSH1 0xA0 DUP2 MSTORE PUSH1 0x0 PUSH2 0x4BB9 PUSH1 0xA0 DUP4 ADD DUP7 PUSH2 0x4B13 JUMP JUMPDEST SWAP1 POP DUP4 PUSH1 0x20 DUP4 ADD MSTORE PUSH2 0x415D PUSH1 0x40 DUP4 ADD DUP5 DUP1 MLOAD DUP3 MSTORE PUSH1 0x20 DUP1 DUP3 ADD MLOAD SWAP1 DUP4 ADD MSTORE PUSH1 0x40 SWAP1 DUP2 ADD MLOAD SWAP2 ADD MSTORE JUMP JUMPDEST PUSH1 0x0 DUP1 PUSH1 0x0 DUP1 PUSH1 0x60 DUP6 DUP8 SUB SLT ISZERO PUSH2 0x4BF8 JUMPI PUSH1 0x0 DUP1 REVERT JUMPDEST DUP5 CALLDATALOAD SWAP4 POP PUSH1 0x20 DUP6 ADD CALLDATALOAD SWAP3 POP PUSH1 0x40 DUP6 ADD CALLDATALOAD PUSH1 0x1 PUSH1 0x1 PUSH1 0x40 SHL SUB DUP1 DUP3 GT ISZERO PUSH2 0x4C1D JUMPI PUSH1 0x0 DUP1 REVERT JUMPDEST DUP2 DUP8 ADD SWAP2 POP DUP8 PUSH1 0x1F DUP4 ADD SLT PUSH2 0x4C31 JUMPI PUSH1 0x0 DUP1 REVERT JUMPDEST DUP2 CALLDATALOAD DUP2 DUP2 GT ISZERO PUSH2 0x4C40 JUMPI PUSH1 0x0 DUP1 REVERT JUMPDEST DUP9 PUSH1 0x20 DUP3 PUSH1 0x5 SHL DUP6 ADD ADD GT ISZERO PUSH2 0x4C55 JUMPI PUSH1 0x0 DUP1 REVERT JUMPDEST SWAP6 SWAP9 SWAP5 SWAP8 POP POP PUSH1 0x20 ADD SWAP5 POP POP POP JUMP JUMPDEST PUSH1 0x0 DUP2 MLOAD DUP1 DUP5 MSTORE PUSH1 0x20 DUP1 DUP6 ADD SWAP5 POP DUP1 DUP5 ADD PUSH1 0x0 JUMPDEST DUP4 DUP2 LT ISZERO PUSH2 0x4B08 JUMPI DUP2 MLOAD DUP1 MLOAD DUP9 MSTORE DUP4 ADD MLOAD DUP4 DUP9 ADD MSTORE PUSH1 0x40 SWAP1 SWAP7 ADD SWAP6 SWAP1 DUP3 ADD SWAP1 PUSH1 0x1 ADD PUSH2 0x4C78 JUMP JUMPDEST PUSH1 0x0 PUSH1 0x40 DUP1 DUP4 MSTORE PUSH2 0x100 DUP1 DUP5 ADD DUP7 MLOAD DUP4 DUP7 ADD MSTORE PUSH1 0x20 DUP1 DUP9 ADD MLOAD PUSH1 0x60 PUSH2 0x4CDA DUP2 DUP10 ADD DUP4 DUP1 MLOAD DUP3 MSTORE PUSH1 0x20 DUP1 DUP3 ADD MLOAD SWAP1 DUP4 ADD MSTORE PUSH1 0x40 SWAP1 DUP2 ADD MLOAD SWAP2 ADD MSTORE JUMP JUMPDEST DUP6 DUP11 ADD MLOAD PUSH1 0xC0 DUP10 DUP2 ADD DUP2 SWAP1 MSTORE DUP2 MLOAD SWAP6 DUP7 SWAP1 MSTORE PUSH2 0x120 PUSH1 0x5 DUP8 SWAP1 SHL DUP12 ADD DUP2 ADD SWAP7 SWAP3 DUP7 ADD SWAP5 POP SWAP1 SWAP2 SWAP1 DUP11 ADD SWAP1 PUSH1 0x0 JUMPDEST DUP2 DUP2 LT ISZERO PUSH2 0x4D9C JUMPI DUP12 DUP9 SUB PUSH2 0x11F NOT ADD DUP4 MSTORE DUP6 MLOAD DUP1 MLOAD DUP11 DUP11 MSTORE PUSH2 0x4D2C DUP12 DUP12 ADD DUP3 PUSH2 0x4AD8 JUMP JUMPDEST SWAP1 POP DUP9 DUP3 ADD MLOAD DUP10 DUP12 ADD MSTORE DUP12 DUP3 ADD MLOAD PUSH2 0x4D5A DUP14 DUP13 ADD DUP3 DUP1 MLOAD DUP3 MSTORE PUSH1 0x20 DUP1 DUP3 ADD MLOAD SWAP1 DUP4 ADD MSTORE PUSH1 0x40 SWAP1 DUP2 ADD MLOAD SWAP2 ADD MSTORE JUMP JUMPDEST POP DUP2 DUP8 ADD MLOAD PUSH1 0xA0 DUP12 DUP2 ADD SWAP2 SWAP1 SWAP2 MSTORE PUSH1 0x80 DUP4 ADD MLOAD DUP8 DUP13 ADD MSTORE SWAP1 SWAP2 ADD MLOAD DUP10 DUP3 SUB PUSH1 0xE0 DUP12 ADD MSTORE SWAP1 PUSH2 0x4D88 DUP2 DUP4 PUSH2 0x4AD8 JUMP JUMPDEST SWAP10 POP POP POP SWAP5 DUP7 ADD SWAP5 SWAP2 DUP7 ADD SWAP2 PUSH1 0x1 ADD PUSH2 0x4D07 JUMP JUMPDEST POP POP POP POP DUP10 ADD MLOAD DUP8 DUP5 SUB PUSH1 0x3F NOT ADD PUSH1 0xE0 DUP10 ADD MSTORE SWAP5 POP PUSH2 0x4DBD SWAP1 POP DUP3 DUP6 PUSH2 0x4B13 JUMP JUMPDEST SWAP4 POP DUP6 DUP5 SUB DUP2 DUP8 ADD MSTORE POP POP POP PUSH2 0x4DD3 DUP2 DUP6 PUSH2 0x4C64 JUMP JUMPDEST SWAP6 SWAP5 POP POP POP POP POP JUMP JUMPDEST PUSH1 0x0 DUP1 PUSH1 0x40 DUP4 DUP6 SUB SLT ISZERO PUSH2 0x4DEF JUMPI PUSH1 0x0 DUP1 REVERT JUMPDEST POP POP DUP1 CALLDATALOAD SWAP3 PUSH1 0x20 SWAP1 SWAP2 ADD CALLDATALOAD SWAP2 POP JUMP JUMPDEST PUSH1 0x0 PUSH1 0x20 DUP3 DUP5 SUB SLT ISZERO PUSH2 0x4E10 JUMPI PUSH1 0x0 DUP1 REVERT JUMPDEST POP CALLDATALOAD SWAP2 SWAP1 POP JUMP JUMPDEST PUSH4 0x4E487B71 PUSH1 0xE0 SHL PUSH1 0x0 MSTORE PUSH1 0x21 PUSH1 0x4 MSTORE PUSH1 0x24 PUSH1 0x0 REVERT JUMPDEST PUSH1 0x6 DUP2 LT PUSH2 0x4E4B JUMPI PUSH4 0x4E487B71 PUSH1 0xE0 SHL PUSH1 0x0 MSTORE PUSH1 0x21 PUSH1 0x4 MSTORE PUSH1 0x24 PUSH1 0x0 REVERT JUMPDEST SWAP1 MSTORE JUMP JUMPDEST DUP2 MLOAD PUSH1 0x1 PUSH1 0x1 PUSH1 0xA0 SHL SUB AND DUP2 MSTORE PUSH2 0x1C0 DUP2 ADD PUSH1 0x20 DUP4 ADD MLOAD PUSH1 0x20 DUP4 ADD MSTORE PUSH1 0x40 DUP4 ADD MLOAD PUSH1 0x40 DUP4 ADD MSTORE PUSH1 0x60 DUP4 ADD MLOAD PUSH1 0x60 DUP4 ADD MSTORE PUSH1 0x80 DUP4 ADD MLOAD PUSH1 0x80 DUP4 ADD MSTORE PUSH1 0xA0 DUP4 ADD MLOAD PUSH1 0xA0 DUP4 ADD MSTORE PUSH1 0xC0 DUP4 ADD MLOAD PUSH1 0xC0 DUP4 ADD MSTORE PUSH1 0xE0 DUP4 ADD MLOAD PUSH1 0xE0 DUP4 ADD MSTORE PUSH2 0x100 DUP1 DUP5 ADD MLOAD DUP2 DUP5 ADD MSTORE POP PUSH2 0x120 DUP1 DUP5 ADD MLOAD DUP2 DUP5 ADD MSTORE POP PUSH2 0x140 DUP1 DUP5 ADD MLOAD DUP2 DUP5 ADD MSTORE POP PUSH2 0x160 DUP1 DUP5 ADD MLOAD DUP2 DUP5 ADD MSTORE POP PUSH2 0x180 DUP1 DUP5 ADD MLOAD PUSH2 0x4EEA DUP3 DUP6 ADD DUP3 PUSH2 0x4E2D JUMP JUMPDEST POP POP PUSH2 0x1A0 DUP4 DUP2 ADD MLOAD PUSH1 0xFF DUP2 AND DUP5 DUP4 ADD MSTORE PUSH2 0x385E JUMP JUMPDEST PUSH1 0x0 PUSH1 0x20 DUP1 DUP4 ADD DUP2 DUP5 MSTORE DUP1 DUP6 MLOAD DUP1 DUP4 MSTORE PUSH1 0x40 DUP7 ADD SWAP2 POP PUSH1 0x40 DUP2 PUSH1 0x5 SHL DUP8 ADD ADD SWAP3 POP DUP4 DUP8 ADD PUSH1 0x0 JUMPDEST DUP3 DUP2 LT ISZERO PUSH2 0x4F55 JUMPI PUSH1 0x3F NOT DUP9 DUP7 SUB ADD DUP5 MSTORE PUSH2 0x4F43 DUP6 DUP4 MLOAD PUSH2 0x4AD8 JUMP JUMPDEST SWAP5 POP SWAP3 DUP6 ADD SWAP3 SWAP1 DUP6 ADD SWAP1 PUSH1 0x1 ADD PUSH2 0x4F27 JUMP JUMPDEST POP SWAP3 SWAP8 SWAP7 POP POP POP POP POP POP POP JUMP JUMPDEST PUSH1 0x0 PUSH1 0x20 DUP3 DUP5 SUB SLT ISZERO PUSH2 0x4F74 JUMPI PUSH1 0x0 DUP1 REVERT JUMPDEST DUP2 CALLDATALOAD PUSH6 0xFFFFFFFFFFFF DUP2 AND DUP2 EQ PUSH2 0xBAC JUMPI PUSH1 0x0 DUP1 REVERT JUMPDEST PUSH1 0x0 PUSH1 0x20 DUP3 DUP5 SUB SLT ISZERO PUSH2 0x4F9C JUMPI PUSH1 0x0 DUP1 REVERT JUMPDEST DUP2 CALLDATALOAD PUSH1 0x1 PUSH1 0x1 PUSH1 0x40 SHL SUB DUP2 AND DUP2 EQ PUSH2 0xBAC JUMPI PUSH1 0x0 DUP1 REVERT JUMPDEST PUSH1 0x0 DUP1 PUSH1 0x0 DUP1 PUSH2 0x160 DUP6 DUP8 SUB SLT ISZERO PUSH2 0x4FCA JUMPI PUSH1 0x0 DUP1 REVERT JUMPDEST DUP5 CALLDATALOAD SWAP4 POP PUSH1 0x20 DUP6 ADD CALLDATALOAD SWAP3 POP PUSH2 0x4FE2 DUP7 PUSH1 0x40 DUP8 ADD PUSH2 0x4924 JUMP JUMPDEST SWAP2 POP PUSH2 0x140 DUP6 ADD CALLDATALOAD PUSH1 0x1 PUSH1 0x1 PUSH1 0x40 SHL SUB DUP2 GT ISZERO PUSH2 0x4FFE JUMPI PUSH1 0x0 DUP1 REVERT JUMPDEST PUSH2 0x500A DUP8 DUP3 DUP9 ADD PUSH2 0x49E6 JUMP JUMPDEST SWAP2 POP POP SWAP3 SWAP6 SWAP2 SWAP5 POP SWAP3 POP JUMP JUMPDEST PUSH1 0x0 PUSH1 0x20 DUP3 DUP5 SUB SLT ISZERO PUSH2 0x5028 JUMPI PUSH1 0x0 DUP1 REVERT JUMPDEST DUP2 CALLDATALOAD PUSH4 0xFFFFFFFF DUP2 AND DUP2 EQ PUSH2 0xBAC JUMPI PUSH1 0x0 DUP1 REVERT JUMPDEST PUSH1 0x0 PUSH1 0x20 DUP3 DUP5 SUB SLT ISZERO PUSH2 0x504E JUMPI PUSH1 0x0 DUP1 REVERT JUMPDEST DUP2 CALLDATALOAD PUSH2 0xBAC DUP2 PUSH2 0x483F JUMP JUMPDEST PUSH1 0x0 PUSH1 0x20 DUP3 DUP5 SUB SLT ISZERO PUSH2 0x506B JUMPI PUSH1 0x0 DUP1 REVERT JUMPDEST DUP2 MLOAD PUSH2 0xBAC DUP2 PUSH2 0x4906 JUMP JUMPDEST PUSH1 0x0 PUSH1 0x20 DUP3 DUP5 SUB SLT ISZERO PUSH2 0x5088 JUMPI PUSH1 0x0 DUP1 REVERT JUMPDEST POP MLOAD SWAP2 SWAP1 POP JUMP JUMPDEST PUSH4 0x4E487B71 PUSH1 0xE0 SHL PUSH1 0x0 MSTORE PUSH1 0x11 PUSH1 0x4 MSTORE PUSH1 0x24 PUSH1 0x0 REVERT JUMPDEST PUSH1 0x0 DUP3 DUP3 LT ISZERO PUSH2 0x50B7 JUMPI PUSH2 0x50B7 PUSH2 0x508F JUMP JUMPDEST POP SUB SWAP1 JUMP JUMPDEST PUSH1 0x0 DUP3 NOT DUP3 GT ISZERO PUSH2 0x50CF JUMPI PUSH2 0x50CF PUSH2 0x508F JUMP JUMPDEST POP ADD SWAP1 JUMP JUMPDEST PUSH4 0x4E487B71 PUSH1 0xE0 SHL PUSH1 0x0 MSTORE PUSH1 0x32 PUSH1 0x4 MSTORE PUSH1 0x24 PUSH1 0x0 REVERT JUMPDEST PUSH1 0x0 PUSH1 0x0 NOT DUP3 EQ ISZERO PUSH2 0x50FE JUMPI PUSH2 0x50FE PUSH2 0x508F JUMP JUMPDEST POP PUSH1 0x1 ADD SWAP1 JUMP JUMPDEST PUSH1 0x0 DUP3 PUSH2 0x5122 JUMPI PUSH4 0x4E487B71 PUSH1 0xE0 SHL PUSH1 0x0 MSTORE PUSH1 0x12 PUSH1 0x4 MSTORE PUSH1 0x24 PUSH1 0x0 REVERT JUMPDEST POP DIV SWAP1 JUMP JUMPDEST PUSH1 0x0 DUP2 PUSH1 0x0 NOT DIV DUP4 GT DUP3 ISZERO ISZERO AND ISZERO PUSH2 0x5141 JUMPI PUSH2 0x5141 PUSH2 0x508F JUMP JUMPDEST POP MUL SWAP1 JUMP JUMPDEST PUSH4 0x4E487B71 PUSH1 0xE0 SHL PUSH1 0x0 MSTORE PUSH1 0x1 PUSH1 0x4 MSTORE PUSH1 0x24 PUSH1 0x0 REVERT JUMPDEST PUSH1 0x0 DUP3 PUSH1 0x1F DUP4 ADD SLT PUSH2 0x516D JUMPI PUSH1 0x0 DUP1 REVERT JUMPDEST DUP2 MLOAD PUSH1 0x20 PUSH2 0x517D PUSH2 0x4A07 DUP4 PUSH2 0x49C3 JUMP JUMPDEST DUP3 DUP2 MSTORE PUSH1 0x5 SWAP3 SWAP1 SWAP3 SHL DUP5 ADD DUP2 ADD SWAP2 DUP2 DUP2 ADD SWAP1 DUP7 DUP5 GT ISZERO PUSH2 0x519C JUMPI PUSH1 0x0 DUP1 REVERT JUMPDEST DUP3 DUP7 ADD JUMPDEST DUP5 DUP2 LT ISZERO PUSH2 0x4A46 JUMPI DUP1 MLOAD DUP4 MSTORE SWAP2 DUP4 ADD SWAP2 DUP4 ADD PUSH2 0x51A0 JUMP JUMPDEST PUSH1 0x0 PUSH1 0x20 DUP3 DUP5 SUB SLT ISZERO PUSH2 0x51C9 JUMPI PUSH1 0x0 DUP1 REVERT JUMPDEST DUP2 MLOAD PUSH1 0x1 PUSH1 0x1 PUSH1 0x40 SHL SUB DUP2 GT ISZERO PUSH2 0x51DF JUMPI PUSH1 0x0 DUP1 REVERT JUMPDEST PUSH2 0x415D DUP5 DUP3 DUP6 ADD PUSH2 0x515C JUMP JUMPDEST PUSH1 0x0 PUSH1 0x20 DUP3 DUP5 SUB SLT ISZERO PUSH2 0x51FD JUMPI PUSH1 0x0 DUP1 REVERT JUMPDEST DUP2 MLOAD PUSH2 0xBAC DUP2 PUSH2 0x483F JUMP JUMPDEST PUSH1 0x1 PUSH1 0x1 PUSH1 0xA0 SHL SUB DUP8 AND DUP2 MSTORE PUSH1 0x20 DUP1 DUP3 ADD DUP8 SWAP1 MSTORE PUSH1 0x40 DUP3 ADD DUP7 SWAP1 MSTORE PUSH1 0x60 DUP3 ADD DUP6 SWAP1 MSTORE PUSH1 0x80 DUP3 ADD DUP5 SWAP1 MSTORE PUSH2 0x5A0 DUP3 ADD SWAP1 PUSH1 0xA0 DUP4 ADD DUP5 PUSH1 0x0 JUMPDEST PUSH1 0x28 DUP2 LT ISZERO PUSH2 0x525C JUMPI DUP2 MLOAD DUP4 MSTORE SWAP2 DUP4 ADD SWAP2 SWAP1 DUP4 ADD SWAP1 PUSH1 0x1 ADD PUSH2 0x523F JUMP JUMPDEST POP POP POP POP SWAP8 SWAP7 POP POP POP POP POP POP POP JUMP JUMPDEST PUSH1 0x0 DUP3 MLOAD PUSH1 0x0 JUMPDEST DUP2 DUP2 LT ISZERO PUSH2 0x528C JUMPI PUSH1 0x20 DUP2 DUP7 ADD DUP2 ADD MLOAD DUP6 DUP4 ADD MSTORE ADD PUSH2 0x5272 JUMP JUMPDEST DUP2 DUP2 GT ISZERO PUSH2 0x529B JUMPI PUSH1 0x0 DUP3 DUP6 ADD MSTORE JUMPDEST POP SWAP2 SWAP1 SWAP2 ADD SWAP3 SWAP2 POP POP JUMP JUMPDEST DUP1 MLOAD PUSH2 0x100 DUP1 DUP5 MSTORE DUP2 MLOAD SWAP1 DUP5 ADD DUP2 SWAP1 MSTORE PUSH1 0x0 SWAP2 PUSH2 0x120 DUP6 ADD SWAP2 PUSH1 0x20 SWAP2 DUP3 ADD SWAP1 DUP5 JUMPDEST DUP2 DUP2 LT ISZERO PUSH2 0x52E3 JUMPI DUP3 MLOAD DUP6 MSTORE SWAP4 DUP4 ADD SWAP4 SWAP2 DUP4 ADD SWAP2 PUSH1 0x1 ADD PUSH2 0x52C7 JUMP JUMPDEST POP POP POP DUP4 DUP2 ADD MLOAD SWAP1 DUP6 ADD MSTORE PUSH1 0x40 DUP1 DUP5 ADD MLOAD DUP1 MLOAD DUP3 DUP8 ADD MSTORE PUSH1 0x20 DUP2 ADD MLOAD PUSH1 0x60 DUP8 ADD MSTORE SWAP1 DUP2 ADD MLOAD PUSH1 0x80 DUP7 ADD MSTORE POP PUSH1 0x60 DUP4 ADD MLOAD PUSH1 0xA0 DUP6 ADD MSTORE PUSH1 0x80 DUP4 ADD MLOAD PUSH1 0xC0 DUP6 ADD MSTORE PUSH1 0xA0 DUP4 ADD MLOAD DUP5 DUP3 SUB PUSH1 0xE0 DUP7 ADD MSTORE PUSH2 0x4DD3 DUP3 DUP3 PUSH2 0x4AD8 JUMP JUMPDEST PUSH1 0x0 DUP2 MLOAD DUP1 DUP5 MSTORE PUSH1 0x20 DUP1 DUP6 ADD DUP1 DUP2 SWAP7 POP DUP4 PUSH1 0x5 SHL DUP2 ADD SWAP2 POP DUP3 DUP7 ADD PUSH1 0x0 JUMPDEST DUP6 DUP2 LT ISZERO PUSH2 0x4B99 JUMPI DUP3 DUP5 SUB DUP10 MSTORE DUP2 MLOAD DUP1 MLOAD DUP6 MSTORE DUP6 DUP2 ADD MLOAD DUP7 DUP7 ADD MSTORE PUSH1 0x40 DUP1 DUP3 ADD MLOAD SWAP1 DUP7 ADD MSTORE PUSH1 0x60 DUP1 DUP3 ADD MLOAD SWAP1 DUP7 ADD MSTORE PUSH1 0x80 DUP1 DUP3 ADD MLOAD SWAP1 DUP7 ADD MSTORE PUSH1 0xA0 SWAP1 DUP2 ADD MLOAD PUSH1 0xC0 SWAP2 DUP7 ADD DUP3 SWAP1 MSTORE SWAP1 PUSH2 0x53AB DUP2 DUP8 ADD DUP4 PUSH2 0x4AD8 JUMP JUMPDEST SWAP11 DUP8 ADD SWAP11 SWAP6 POP POP POP SWAP1 DUP5 ADD SWAP1 PUSH1 0x1 ADD PUSH2 0x5357 JUMP JUMPDEST PUSH1 0x0 PUSH1 0xC0 DUP4 ADD DUP3 MLOAD DUP5 MSTORE PUSH1 0x20 DUP1 DUP5 ADD MLOAD PUSH2 0x53EF DUP3 DUP8 ADD DUP3 DUP1 MLOAD DUP3 MSTORE PUSH1 0x20 DUP1 DUP3 ADD MLOAD SWAP1 DUP4 ADD MSTORE PUSH1 0x40 SWAP1 DUP2 ADD MLOAD SWAP2 ADD MSTORE JUMP JUMPDEST POP PUSH1 0x40 DUP5 ADD MLOAD PUSH1 0xC0 PUSH1 0x80 DUP8 ADD MSTORE DUP3 DUP2 MLOAD DUP1 DUP6 MSTORE PUSH1 0xE0 DUP9 ADD SWAP2 POP PUSH1 0xE0 DUP2 PUSH1 0x5 SHL DUP10 ADD ADD SWAP5 POP DUP4 DUP4 ADD SWAP3 POP PUSH1 0x0 JUMPDEST DUP2 DUP2 LT ISZERO PUSH2 0x5449 JUMPI PUSH1 0xDF NOT DUP10 DUP8 SUB ADD DUP4 MSTORE PUSH2 0x5437 DUP7 DUP6 MLOAD PUSH2 0x52A6 JUMP JUMPDEST SWAP6 POP SWAP3 DUP5 ADD SWAP3 SWAP2 DUP5 ADD SWAP2 PUSH1 0x1 ADD PUSH2 0x541B JUMP JUMPDEST POP POP POP POP POP PUSH1 0x60 DUP4 ADD MLOAD DUP5 DUP3 SUB PUSH1 0xA0 DUP7 ADD MSTORE PUSH2 0x4DD3 DUP3 DUP3 PUSH2 0x5339 JUMP JUMPDEST PUSH1 0x60 DUP2 MSTORE PUSH1 0x0 PUSH2 0x5478 PUSH1 0x60 DUP4 ADD DUP7 PUSH2 0x53BF JUMP JUMPDEST DUP3 DUP2 SUB PUSH1 0x20 DUP5 ADD MSTORE PUSH2 0x548A DUP2 DUP7 PUSH2 0x52A6 JUMP JUMPDEST SWAP1 POP DUP3 DUP2 SUB PUSH1 0x40 DUP5 ADD MSTORE PUSH2 0x549E DUP2 DUP6 PUSH2 0x5339 JUMP JUMPDEST SWAP7 SWAP6 POP POP POP POP POP POP JUMP JUMPDEST PUSH1 0x0 PUSH1 0x60 DUP3 DUP5 SUB SLT ISZERO PUSH2 0x54BA JUMPI PUSH1 0x0 DUP1 REVERT JUMPDEST PUSH1 0x40 MLOAD PUSH1 0x60 DUP2 ADD DUP2 DUP2 LT PUSH1 0x1 PUSH1 0x1 PUSH1 0x40 SHL SUB DUP3 GT OR ISZERO PUSH2 0x54DC JUMPI PUSH2 0x54DC PUSH2 0x4854 JUMP JUMPDEST DUP1 PUSH1 0x40 MSTORE POP DUP1 SWAP2 POP DUP3 MLOAD DUP2 MSTORE PUSH1 0x20 DUP4 ADD MLOAD PUSH1 0x20 DUP3 ADD MSTORE PUSH1 0x40 DUP4 ADD MLOAD PUSH1 0x40 DUP3 ADD MSTORE POP SWAP3 SWAP2 POP POP JUMP JUMPDEST PUSH1 0x0 PUSH2 0x100 DUP3 DUP5 SUB SLT ISZERO PUSH2 0x5516 JUMPI PUSH1 0x0 DUP1 REVERT JUMPDEST PUSH2 0x551E PUSH2 0x486A JUMP JUMPDEST SWAP1 POP DUP2 MLOAD PUSH1 0x1 PUSH1 0x1 PUSH1 0x40 SHL SUB DUP1 DUP3 GT ISZERO PUSH2 0x5537 JUMPI PUSH1 0x0 DUP1 REVERT JUMPDEST PUSH2 0x5543 DUP6 DUP4 DUP7 ADD PUSH2 0x515C JUMP JUMPDEST DUP4 MSTORE PUSH1 0x20 DUP5 ADD MLOAD PUSH1 0x20 DUP5 ADD MSTORE PUSH2 0x555C DUP6 PUSH1 0x40 DUP7 ADD PUSH2 0x54A8 JUMP JUMPDEST PUSH1 0x40 DUP5 ADD MSTORE PUSH1 0xA0 DUP5 ADD MLOAD PUSH1 0x60 DUP5 ADD MSTORE PUSH1 0xC0 DUP5 ADD MLOAD PUSH1 0x80 DUP5 ADD MSTORE PUSH1 0xE0 DUP5 ADD MLOAD SWAP2 POP DUP1 DUP3 GT ISZERO PUSH2 0x5589 JUMPI PUSH1 0x0 DUP1 REVERT JUMPDEST POP PUSH2 0x5596 DUP5 DUP3 DUP6 ADD PUSH2 0x515C JUMP JUMPDEST PUSH1 0xA0 DUP4 ADD MSTORE POP SWAP3 SWAP2 POP POP JUMP JUMPDEST PUSH1 0x0 DUP3 PUSH1 0x1F DUP4 ADD SLT PUSH2 0x55B3 JUMPI PUSH1 0x0 DUP1 REVERT JUMPDEST DUP2 MLOAD PUSH1 0x20 PUSH2 0x55C3 PUSH2 0x4A07 DUP4 PUSH2 0x49C3 JUMP JUMPDEST DUP3 DUP2 MSTORE PUSH1 0x5 SWAP3 SWAP1 SWAP3 SHL DUP5 ADD DUP2 ADD SWAP2 DUP2 DUP2 ADD SWAP1 DUP7 DUP5 GT ISZERO PUSH2 0x55E2 JUMPI PUSH1 0x0 DUP1 REVERT JUMPDEST DUP3 DUP7 ADD JUMPDEST DUP5 DUP2 LT ISZERO PUSH2 0x4A46 JUMPI DUP1 MLOAD PUSH1 0x1 PUSH1 0x1 PUSH1 0x40 SHL SUB DUP1 DUP3 GT ISZERO PUSH2 0x5606 JUMPI PUSH1 0x0 DUP1 DUP2 REVERT JUMPDEST SWAP1 DUP9 ADD SWAP1 PUSH1 0xC0 DUP3 DUP12 SUB PUSH1 0x1F NOT ADD DUP2 SGT ISZERO PUSH2 0x5620 JUMPI PUSH1 0x0 DUP1 DUP2 REVERT JUMPDEST PUSH2 0x5628 PUSH2 0x486A JUMP JUMPDEST DUP8 DUP5 ADD MLOAD DUP2 MSTORE PUSH1 0x40 DUP1 DUP6 ADD MLOAD DUP10 DUP4 ADD MSTORE PUSH1 0x60 DUP1 DUP7 ADD MLOAD DUP3 DUP5 ADD MSTORE PUSH1 0x80 SWAP2 POP DUP2 DUP7 ADD MLOAD DUP2 DUP5 ADD MSTORE POP PUSH1 0xA0 DUP1 DUP7 ADD MLOAD DUP3 DUP5 ADD MSTORE DUP4 DUP7 ADD MLOAD SWAP4 POP DUP5 DUP5 GT ISZERO PUSH2 0x566F JUMPI PUSH1 0x0 SWAP2 POP DUP2 DUP3 REVERT JUMPDEST PUSH2 0x567D DUP15 DUP12 DUP7 DUP10 ADD ADD PUSH2 0x515C JUMP JUMPDEST SWAP1 DUP4 ADD MSTORE POP DUP7 MSTORE POP POP POP SWAP2 DUP4 ADD SWAP2 DUP4 ADD PUSH2 0x55E6 JUMP JUMPDEST PUSH1 0x0 PUSH1 0x20 DUP1 DUP4 DUP6 SUB SLT ISZERO PUSH2 0x56A5 JUMPI PUSH1 0x0 DUP1 REVERT JUMPDEST DUP3 MLOAD PUSH1 0x1 PUSH1 0x1 PUSH1 0x40 SHL SUB DUP1 DUP3 GT ISZERO PUSH2 0x56BC JUMPI PUSH1 0x0 DUP1 REVERT JUMPDEST SWAP1 DUP5 ADD SWAP1 PUSH1 0xC0 DUP3 DUP8 SUB SLT ISZERO PUSH2 0x56D0 JUMPI PUSH1 0x0 DUP1 REVERT JUMPDEST PUSH2 0x56D8 PUSH2 0x4892 JUMP JUMPDEST DUP3 MLOAD DUP2 MSTORE PUSH2 0x56E8 DUP8 DUP6 DUP6 ADD PUSH2 0x54A8 JUMP JUMPDEST DUP5 DUP3 ADD MSTORE PUSH1 0x80 DUP4 ADD MLOAD DUP3 DUP2 GT ISZERO PUSH2 0x56FE JUMPI PUSH1 0x0 DUP1 REVERT JUMPDEST DUP4 ADD PUSH1 0x1F DUP2 ADD DUP9 SGT PUSH2 0x570F JUMPI PUSH1 0x0 DUP1 REVERT JUMPDEST DUP1 MLOAD PUSH2 0x571D PUSH2 0x4A07 DUP3 PUSH2 0x49C3 JUMP JUMPDEST DUP2 DUP2 MSTORE PUSH1 0x5 SWAP2 SWAP1 SWAP2 SHL DUP3 ADD DUP7 ADD SWAP1 DUP7 DUP2 ADD SWAP1 DUP11 DUP4 GT ISZERO PUSH2 0x573C JUMPI PUSH1 0x0 DUP1 REVERT JUMPDEST DUP8 DUP5 ADD JUMPDEST DUP4 DUP2 LT ISZERO PUSH2 0x5774 JUMPI DUP1 MLOAD DUP8 DUP2 GT ISZERO PUSH2 0x5758 JUMPI PUSH1 0x0 DUP1 DUP2 REVERT JUMPDEST PUSH2 0x5766 DUP14 DUP12 DUP4 DUP10 ADD ADD PUSH2 0x5503 JUMP JUMPDEST DUP5 MSTORE POP SWAP2 DUP9 ADD SWAP2 DUP9 ADD PUSH2 0x5740 JUMP JUMPDEST POP PUSH1 0x40 DUP6 ADD MSTORE POP POP POP PUSH1 0xA0 DUP4 ADD MLOAD SWAP4 POP DUP2 DUP5 GT ISZERO PUSH2 0x5791 JUMPI PUSH1 0x0 DUP1 REVERT JUMPDEST PUSH2 0x579D DUP8 DUP6 DUP6 ADD PUSH2 0x55A2 JUMP JUMPDEST PUSH1 0x60 DUP3 ADD MSTORE SWAP7 SWAP6 POP POP POP POP POP POP JUMP JUMPDEST PUSH1 0x40 DUP2 MSTORE PUSH1 0x0 PUSH2 0x57BF PUSH1 0x40 DUP4 ADD DUP6 PUSH2 0x53BF JUMP JUMPDEST DUP3 DUP2 SUB PUSH1 0x20 DUP5 ADD MSTORE PUSH2 0x4DD3 DUP2 DUP6 PUSH2 0x53BF JUMP JUMPDEST PUSH1 0x60 DUP2 MSTORE PUSH1 0x0 PUSH2 0x5478 PUSH1 0x60 DUP4 ADD DUP7 PUSH2 0x4C64 JUMP JUMPDEST PUSH1 0x0 PUSH1 0x20 DUP1 DUP4 DUP6 SUB SLT ISZERO PUSH2 0x57F7 JUMPI PUSH1 0x0 DUP1 REVERT JUMPDEST DUP3 MLOAD PUSH1 0x1 PUSH1 0x1 PUSH1 0x40 SHL SUB DUP2 GT ISZERO PUSH2 0x580D JUMPI PUSH1 0x0 DUP1 REVERT JUMPDEST DUP4 ADD PUSH1 0x1F DUP2 ADD DUP6 SGT PUSH2 0x581E JUMPI PUSH1 0x0 DUP1 REVERT JUMPDEST DUP1 MLOAD PUSH2 0x582C PUSH2 0x4A07 DUP3 PUSH2 0x49C3 JUMP JUMPDEST DUP2 DUP2 MSTORE PUSH1 0x6 SWAP2 SWAP1 SWAP2 SHL DUP3 ADD DUP4 ADD SWAP1 DUP4 DUP2 ADD SWAP1 DUP8 DUP4 GT ISZERO PUSH2 0x584B JUMPI PUSH1 0x0 DUP1 REVERT JUMPDEST SWAP3 DUP5 ADD SWAP3 JUMPDEST DUP3 DUP5 LT ISZERO PUSH2 0x588E JUMPI PUSH1 0x40 DUP5 DUP10 SUB SLT ISZERO PUSH2 0x5869 JUMPI PUSH1 0x0 DUP1 DUP2 REVERT JUMPDEST PUSH2 0x5871 PUSH2 0x48B4 JUMP JUMPDEST DUP5 MLOAD DUP2 MSTORE DUP6 DUP6 ADD MLOAD DUP7 DUP3 ADD MSTORE DUP3 MSTORE PUSH1 0x40 SWAP1 SWAP4 ADD SWAP3 SWAP1 DUP5 ADD SWAP1 PUSH2 0x5850 JUMP JUMPDEST SWAP8 SWAP7 POP POP POP POP POP POP POP JUMP JUMPDEST PUSH1 0x40 DUP2 MSTORE PUSH1 0x0 PUSH2 0x58AC PUSH1 0x40 DUP4 ADD DUP6 PUSH2 0x5339 JUMP JUMPDEST DUP3 DUP2 SUB PUSH1 0x20 DUP5 ADD MSTORE PUSH2 0x4DD3 DUP2 DUP6 PUSH2 0x5339 JUMP JUMPDEST PUSH1 0x0 PUSH1 0x20 DUP3 DUP5 SUB SLT ISZERO PUSH2 0x58D0 JUMPI PUSH1 0x0 DUP1 REVERT JUMPDEST DUP2 MLOAD PUSH1 0x1 PUSH1 0x1 PUSH1 0x40 SHL SUB DUP2 GT ISZERO PUSH2 0x58E6 JUMPI PUSH1 0x0 DUP1 REVERT JUMPDEST PUSH2 0x415D DUP5 DUP3 DUP6 ADD PUSH2 0x55A2 JUMP JUMPDEST PUSH1 0x0 DUP1 PUSH1 0x40 DUP4 DUP6 SUB SLT ISZERO PUSH2 0x5905 JUMPI PUSH1 0x0 DUP1 REVERT JUMPDEST POP POP DUP1 MLOAD PUSH1 0x20 SWAP1 SWAP2 ADD MLOAD SWAP1 SWAP3 SWAP1 SWAP2 POP JUMP JUMPDEST PUSH1 0x0 DUP1 PUSH1 0x0 PUSH1 0x60 DUP5 DUP7 SUB SLT ISZERO PUSH2 0x592B JUMPI PUSH1 0x0 DUP1 REVERT JUMPDEST DUP4 MLOAD SWAP3 POP PUSH1 0x20 DUP5 ADD MLOAD SWAP2 POP PUSH1 0x40 DUP5 ADD MLOAD SWAP1 POP SWAP3 POP SWAP3 POP SWAP3 JUMP JUMPDEST DUP2 MLOAD DUP2 MSTORE PUSH1 0x20 DUP1 DUP4 ADD MLOAD PUSH2 0x180 DUP4 ADD SWAP2 PUSH2 0x5968 SWAP1 DUP5 ADD DUP3 PUSH1 0x1 PUSH1 0x1 PUSH1 0xA0 SHL SUB AND SWAP1 MSTORE JUMP JUMPDEST POP PUSH1 0x40 DUP4 ADD MLOAD PUSH2 0x597B PUSH1 0x40 DUP5 ADD DUP3 PUSH2 0x4E2D JUMP JUMPDEST POP PUSH1 0x60 DUP4 ADD MLOAD PUSH2 0x5990 PUSH1 0x60 DUP5 ADD DUP3 PUSH1 0xFF AND SWAP1 MSTORE JUMP JUMPDEST POP PUSH1 0x80 DUP4 ADD MLOAD PUSH1 0x80 DUP4 ADD MSTORE PUSH1 0xA0 DUP4 ADD MLOAD PUSH2 0x59B5 PUSH1 0xA0 DUP5 ADD DUP3 PUSH1 0x1 PUSH1 0x1 PUSH1 0x40 SHL SUB AND SWAP1 MSTORE JUMP JUMPDEST POP PUSH1 0xC0 DUP4 ADD MLOAD PUSH2 0x59D0 PUSH1 0xC0 DUP5 ADD DUP3 PUSH1 0x1 PUSH1 0x1 PUSH1 0x40 SHL SUB AND SWAP1 MSTORE JUMP JUMPDEST POP PUSH1 0xE0 DUP4 ADD MLOAD PUSH2 0x59EB PUSH1 0xE0 DUP5 ADD DUP3 PUSH1 0x1 PUSH1 0x1 PUSH1 0x40 SHL SUB AND SWAP1 MSTORE JUMP JUMPDEST POP PUSH2 0x100 DUP4 DUP2 ADD MLOAD PUSH1 0x1 PUSH1 0x1 PUSH1 0x40 SHL SUB SWAP1 DUP2 AND SWAP2 DUP5 ADD SWAP2 SWAP1 SWAP2 MSTORE PUSH2 0x120 DUP1 DUP6 ADD MLOAD DUP3 AND SWAP1 DUP5 ADD MSTORE PUSH2 0x140 DUP1 DUP6 ADD MLOAD DUP3 AND SWAP1 DUP5 ADD MSTORE PUSH2 0x160 DUP1 DUP6 ADD MLOAD SWAP2 DUP3 AND DUP2 DUP6 ADD MSTORE SWAP1 PUSH2 0x385E JUMP JUMPDEST PUSH1 0x40 DUP2 MSTORE PUSH1 0x0 PUSH2 0x5A46 PUSH1 0x40 DUP4 ADD DUP6 PUSH2 0x5339 JUMP JUMPDEST SWAP1 POP DUP3 PUSH1 0x20 DUP4 ADD MSTORE SWAP4 SWAP3 POP POP POP JUMP JUMPDEST DUP1 MLOAD DUP3 MSTORE PUSH1 0x20 DUP2 ADD MLOAD PUSH1 0x20 DUP4 ADD MSTORE PUSH1 0x40 DUP2 ADD MLOAD PUSH1 0x40 DUP4 ADD MSTORE PUSH1 0x0 PUSH1 0x60 DUP3 ADD MLOAD PUSH1 0x80 PUSH1 0x60 DUP6 ADD MSTORE PUSH2 0x415D PUSH1 0x80 DUP6 ADD DUP3 PUSH2 0x5339 JUMP JUMPDEST PUSH1 0xA0 DUP2 MSTORE PUSH1 0x0 PUSH2 0x5A9B PUSH1 0xA0 DUP4 ADD DUP9 PUSH2 0x5339 JUMP JUMPDEST DUP7 PUSH1 0x20 DUP5 ADD MSTORE DUP3 DUP2 SUB PUSH1 0x40 DUP5 ADD MSTORE DUP6 MLOAD DUP2 MSTORE PUSH1 0x20 DUP7 ADD MLOAD PUSH1 0x20 DUP3 ADD MSTORE PUSH1 0x40 DUP7 ADD MLOAD PUSH1 0x40 DUP3 ADD MSTORE PUSH1 0x60 DUP7 ADD MLOAD ISZERO ISZERO PUSH1 0x60 DUP3 ADD MSTORE PUSH1 0x80 DUP7 ADD MLOAD ISZERO ISZERO PUSH1 0x80 DUP3 ADD MSTORE PUSH1 0xA0 DUP7 ADD MLOAD PUSH1 0xA0 DUP3 ADD MSTORE PUSH1 0xC0 DUP7 ADD MLOAD PUSH1 0xE0 PUSH1 0xC0 DUP4 ADD MSTORE PUSH2 0x5AFC PUSH1 0xE0 DUP4 ADD DUP3 PUSH2 0x4AD8 JUMP JUMPDEST SWAP2 POP POP DUP3 DUP2 SUB PUSH1 0x60 DUP5 ADD MSTORE PUSH2 0x5B11 DUP2 DUP7 PUSH2 0x5A55 JUMP JUMPDEST SWAP1 POP DUP3 DUP2 SUB PUSH1 0x80 DUP5 ADD MSTORE PUSH2 0x5B25 DUP2 DUP6 PUSH2 0x5339 JUMP JUMPDEST SWAP9 SWAP8 POP POP POP POP POP POP POP POP JUMP JUMPDEST PUSH1 0x0 DUP1 PUSH1 0x0 PUSH1 0xA0 DUP5 DUP7 SUB SLT ISZERO PUSH2 0x5B46 JUMPI PUSH1 0x0 DUP1 REVERT JUMPDEST DUP4 MLOAD PUSH1 0x1 PUSH1 0x1 PUSH1 0x40 SHL SUB DUP2 GT ISZERO PUSH2 0x5B5C JUMPI PUSH1 0x0 DUP1 REVERT JUMPDEST PUSH2 0x5B68 DUP7 DUP3 DUP8 ADD PUSH2 0x55A2 JUMP JUMPDEST SWAP4 POP POP PUSH1 0x20 DUP5 ADD MLOAD SWAP2 POP PUSH2 0x5B7F DUP6 PUSH1 0x40 DUP7 ADD PUSH2 0x54A8 JUMP JUMPDEST SWAP1 POP SWAP3 POP SWAP3 POP SWAP3 JUMP JUMPDEST PUSH1 0x20 DUP2 MSTORE PUSH1 0x0 PUSH2 0xBAC PUSH1 0x20 DUP4 ADD DUP5 PUSH2 0x5339 JUMP JUMPDEST PUSH1 0x0 DUP1 PUSH1 0x80 DUP4 DUP6 SUB SLT ISZERO PUSH2 0x5BAE JUMPI PUSH1 0x0 DUP1 REVERT JUMPDEST DUP3 MLOAD SWAP2 POP PUSH2 0x5BBF DUP5 PUSH1 0x20 DUP6 ADD PUSH2 0x54A8 JUMP JUMPDEST SWAP1 POP SWAP3 POP SWAP3 SWAP1 POP JUMP JUMPDEST PUSH1 0x60 DUP2 MSTORE PUSH1 0x0 PUSH2 0x5BDB PUSH1 0x60 DUP4 ADD DUP7 PUSH2 0x52A6 JUMP JUMPDEST PUSH1 0x20 DUP4 ADD SWAP5 SWAP1 SWAP5 MSTORE POP PUSH1 0x40 ADD MSTORE SWAP2 SWAP1 POP JUMP JUMPDEST PUSH1 0x0 PUSH1 0x20 DUP3 DUP5 SUB SLT ISZERO PUSH2 0x5BFF JUMPI PUSH1 0x0 DUP1 REVERT JUMPDEST DUP2 MLOAD PUSH1 0x1 PUSH1 0x1 PUSH1 0x40 SHL SUB DUP2 GT ISZERO PUSH2 0x5C15 JUMPI PUSH1 0x0 DUP1 REVERT JUMPDEST PUSH2 0x415D DUP5 DUP3 DUP6 ADD PUSH2 0x5503 JUMP JUMPDEST PUSH1 0x40 DUP2 MSTORE PUSH1 0x0 PUSH2 0x5A46 PUSH1 0x40 DUP4 ADD DUP6 PUSH2 0x4C64 JUMP JUMPDEST PUSH1 0x80 DUP2 MSTORE PUSH1 0x0 PUSH2 0x5C47 PUSH1 0x80 DUP4 ADD DUP8 PUSH2 0x52A6 JUMP JUMPDEST DUP3 DUP2 SUB PUSH1 0x20 DUP5 ADD MSTORE PUSH2 0x5C59 DUP2 DUP8 PUSH2 0x5339 JUMP JUMPDEST SWAP1 POP DUP5 PUSH1 0x40 DUP5 ADD MSTORE DUP3 DUP2 SUB PUSH1 0x60 DUP5 ADD MSTORE PUSH2 0x588E DUP2 DUP6 PUSH2 0x5339 JUMP JUMPDEST PUSH1 0x0 DUP1 PUSH1 0x40 DUP4 DUP6 SUB SLT ISZERO PUSH2 0x5C86 JUMPI PUSH1 0x0 DUP1 REVERT JUMPDEST DUP3 MLOAD PUSH1 0x1 PUSH1 0x1 PUSH1 0x40 SHL SUB DUP1 DUP3 GT ISZERO PUSH2 0x5C9D JUMPI PUSH1 0x0 DUP1 REVERT JUMPDEST PUSH2 0x5CA9 DUP7 DUP4 DUP8 ADD PUSH2 0x5503 JUMP JUMPDEST SWAP4 POP PUSH1 0x20 DUP6 ADD MLOAD SWAP2 POP DUP1 DUP3 GT ISZERO PUSH2 0x5CBF JUMPI PUSH1 0x0 DUP1 REVERT JUMPDEST POP PUSH2 0x5CCC DUP6 DUP3 DUP7 ADD PUSH2 0x55A2 JUMP JUMPDEST SWAP2 POP POP SWAP3 POP SWAP3 SWAP1 POP JUMP JUMPDEST PUSH1 0x0 DUP2 PUSH2 0x5CE5 JUMPI PUSH2 0x5CE5 PUSH2 0x508F JUMP JUMPDEST POP PUSH1 0x0 NOT ADD SWAP1 JUMP JUMPDEST DUP1 SLOAD DUP3 MSTORE PUSH1 0x1 DUP2 ADD SLOAD PUSH1 0x1 PUSH1 0x1 PUSH1 0xA0 SHL SUB DUP2 AND PUSH1 0x20 DUP5 ADD MSTORE PUSH2 0x5D18 PUSH1 0x40 DUP5 ADD PUSH1 0xFF DUP4 PUSH1 0xA0 SHR AND PUSH2 0x4E2D JUMP JUMPDEST PUSH1 0xA8 SHR PUSH1 0xFF AND PUSH1 0x60 DUP4 ADD MSTORE PUSH1 0x2 DUP2 ADD SLOAD PUSH1 0x80 DUP4 ADD MSTORE PUSH1 0x3 DUP2 ADD SLOAD PUSH1 0x1 PUSH1 0x1 PUSH1 0x40 SHL SUB DUP1 DUP3 AND PUSH1 0xA0 DUP6 ADD MSTORE PUSH1 0x40 DUP3 SWAP1 SHR DUP2 AND PUSH1 0xC0 DUP6 ADD MSTORE PUSH2 0x5D68 PUSH1 0xE0 DUP6 ADD DUP3 DUP5 PUSH1 0x80 SHR AND PUSH1 0x1 PUSH1 0x1 PUSH1 0x40 SHL SUB AND SWAP1 MSTORE JUMP JUMPDEST PUSH1 0xC0 DUP3 SWAP1 SHR PUSH2 0x100 DUP6 ADD MSTORE PUSH1 0x4 DUP4 ADD SLOAD PUSH1 0x1 PUSH1 0x1 PUSH1 0x40 SHL SUB DUP3 DUP3 AND AND PUSH2 0x120 DUP7 ADD MSTORE SWAP2 POP PUSH2 0x5DA7 PUSH2 0x140 DUP6 ADD DUP3 DUP5 PUSH1 0x40 SHR AND PUSH1 0x1 PUSH1 0x1 PUSH1 0x40 SHL SUB AND SWAP1 MSTORE JUMP JUMPDEST PUSH2 0x5DC2 PUSH2 0x160 DUP6 ADD DUP3 DUP5 PUSH1 0x80 SHR AND PUSH1 0x1 PUSH1 0x1 PUSH1 0x40 SHL SUB AND SWAP1 MSTORE JUMP JUMPDEST POP POP POP POP JUMP JUMPDEST PUSH2 0x180 DUP2 ADD PUSH2 0x6DA DUP3 DUP5 PUSH2 0x5CED JUMP JUMPDEST PUSH1 0x0 PUSH2 0x1A0 DUP1 DUP4 ADD PUSH2 0x5DE9 DUP5 DUP8 PUSH2 0x5CED JUMP JUMPDEST PUSH2 0x180 DUP5 ADD SWAP2 SWAP1 SWAP2 MSTORE DUP4 MLOAD SWAP1 DUP2 SWAP1 MSTORE PUSH2 0x1C0 DUP4 ADD SWAP1 PUSH1 0x20 SWAP1 DUP2 DUP7 ADD PUSH1 0x0 JUMPDEST DUP3 DUP2 LT ISZERO PUSH2 0x4F55 JUMPI DUP2 MLOAD DUP6 MSTORE SWAP4 DUP4 ADD SWAP4 SWAP1 DUP4 ADD SWAP1 PUSH1 0x1 ADD PUSH2 0x5E07 JUMP INVALID LOG2 PUSH5 0x6970667358 0x22 SLT KECCAK256 ORIGIN EXP PUSH6 0xD0E2D793A1E6 ISZERO SWAP15 PUSH21 0x8A9ABA561DBA27D9DA6042B2A6D4F4BDD3D90F8764 PUSH20 0x6F6C634300080B00330000000000000000000000 ","sha1":"afee29c64ccbc12f65b80ae1241a2aaa77c2e817","source":"// SPDX-License-Identifier: MIT\n// Beef MarketPlace Contracts v0.0.0 hello@mcdu.com\n\npragma solidity ^0.8.0;\n\nimport \"../Market.sol\";\nimport \"./SearchLib.sol\";\n\nbytes32 constant MARKETSEARCH = keccak256(\"MarketSearch\");\n\ncontract MarketSearch is Market, MarketPathReader {\n    using Array for address[];\n    using Array for uint64[];\n    using Array for uint256[];\n    using Array for bytes32[];\n    using MarketLib for address[];\n    using MarketLib for SolutionSetDesc;\n    using MarketLib for SolutionSet;\n    using MarketLib for Remainer[];\n    using MarketLib for Solution[];\n\n    function id() public view virtual override (Market) returns (bytes32) {return MARKETSEARCH;}\n\n    constructor(Repository rep_) Market(rep_) {}\n\n    uint256 constant MAXRECURSECALL = 20;\n\n    struct SearchArgTarget {\n        bytes32 currency;\n        uint256 mingranularity;\n        uint256 qty;\n        bool qtyismin;\n        bool qtyismax;\n        uint256 maxcount;\n        uint256[] delivery;\n    }\n    struct SearchArg {\n        uint256 maxquote;\n        uint256 maxavgquote;\n        uint256 maxtotal;\n        Solution[] used;\n    }\n    struct SearchPublicArgs {\n        uint256 granularity;\n        uint256 qty;\n        bool qtyismin;\n        bool qtyismax;\n        uint256 maxtotal;\n        uint256 maxquote;\n        uint256 maxavgquote;\n        uint256 maxcount;\n    }\n\n/*\n    function listPathFrom(\n        bytes32 from_\n    )\n        public\n        view\n        returns (bytes32[][] memory out_)\n    {\n        (bool _result, ) = rep.get(MARKET).staticcall(\n            abi.encodeWithSelector(\n                bytes4(keccak256(\"d_listPathFrom(bytes32)\")),\n                address(this),\n                from_            )\n        );\n        _return(_result);\n    }\n    function d_listPathFrom(\n        bytes32 from_\n    )\n        public\n        view\n        returns (bytes32[][] memory out_)\n    {\n        return\n            _listPathFrom(from_);\n    }\n*/\n/*\n    function __fromToQty(bytes32 from_, bytes32 to_)\n        public\n        view\n        returns (uint256)\n    {\n        return __fromToQtyEx(from_, to_, new uint256[](0));\n    }\n\n    function __fromToQtyEx(\n        bytes32 from_,\n        bytes32 to_,\n        uint256[] memory delivery_\n    ) private view returns (uint256 qty_) {\n        uint256[] storage orderids = _fromtoorders[BytesAndKeccakLib.pureBytes32Bytes32(from_, to_)];\n        uint len = orderids.length;\n        for (uint256 i = 0; i < len; i++) {\n            Order.Info storage order = _orders[orderids[i]];\n            if (\n                (Order.isExpired(order) == 0 ||\n                    Order.isExpired(order) >= block.timestamp) &&\n                Delivery(rep.get(DELIVERY)).orderDeliveryCompatible(order, delivery_)\n            ) {\n                Order.InfoPublic memory _orderpub = __order(orderids[i], true);\n                if (_orderpub.qty < _orderpub.granularity) continue;\n                qty_ += _orderpub.qty - (_orderpub.qty % _orderpub.granularity);\n            }\n        }\n    }\n\n    function __fromToExist(bytes32 from_, bytes32 to_)\n        public\n        view\n        returns (bool)\n    {\n        return __fromToExistEx(from_, to_, new uint256[](0));\n    }\n*/\n/*\n    function __fromToExistEx(\n        bytes32 from_,\n        bytes32 to_,\n        uint256[] memory delivery_\n    ) private view returns (bool) {\n        uint256[] storage orderids = _fromtoorders[BytesAndKeccakLib.pureBytes32Bytes32(from_, to_)];\n\n        uint len = orderids.length;\n        for (uint256 i = 0; i < len; i++) {\n            Order.Info storage order = _orders[orderids[i]];\n            if (\n                (Order.isExpired(order) == 0 ||\n                    Order.isExpired(order) >= block.timestamp) &&\n                Delivery(rep.get(DELIVERY)).orderDeliveryCompatible(order, delivery_)\n            ) {\n                return true;\n            }\n        }\n        return false;\n    }\n*/\n    function __fromToListEx(\n        bytes32 from_,\n        bytes32 to_,\n        uint256[] memory delivery_,\n        uint256 start_,\n        uint256 count_\n    ) private view returns (Solution[] memory out_) {\n        uint256 startcount = 0;\n        uint256 outcount = 0;\n        uint256[] storage orderids = _fromtoorders[BytesAndKeccakLib.pureBytes32Bytes32(from_, to_)];\n\n        uint len = orderids.length;\n        if (count_ == 0) count_ = len;\n        out_ = new Solution[](count_);\n\n        for (uint256 i = 0; i < len; i++) {\n            if (outcount >= count_) break;\n            Order.Info storage order = _orders[orderids[i]];\n           if (\n                (Order.isExpired(order) == 0 ||\n                    Order.isExpired(order) >= block.timestamp) &&\n                Delivery(rep.get(DELIVERY)).orderDeliveryCompatible(order, delivery_)\n            ) {\n                startcount++;\n                if (startcount <= start_) continue;\n                Order.InfoPublic memory _orderpub = __order(orderids[i], true);\n                if (_orderpub.qty < _orderpub.granularity) continue;\n                out_[outcount].orderid = _orderpub.orderid;\n                out_[outcount].addr = _orderpub.to;\n                out_[outcount].granularity = _orderpub.granularity;\n                out_[outcount].qty = _orderpub.qty;\n                out_[outcount].quote = _orderpub.quote;\n                outcount++;\n            }\n        }\n        assembly {\n            mstore(out_, outcount)\n        }\n    }\n\n    function d_search(\n        bytes32 from_,\n        bytes32 to_,\n        uint256[] calldata args_\n    )\n        public\n        view\n        returns (\n            Solution[] memory out_,\n            uint256 qty_,\n            Quote memory\n        )\n    {\n        //args_[0] = mingranularity_;\n        //args_[1] = qty_;\n        //args_[2] = qtyismin_;\n        //args_[2] = qtyismax_;\n        //args[3] = maxtotal;\n        //args_[4] = maxquote_;\n        //args_[5] = maxavgquote_;\n        //args_[6] = maxcount_;\n        uint256 deliverycount = 0;\n        uint len = args_.length-8;\n        for (; deliverycount < len; deliverycount++)\n            if (args_[8 + deliverycount] == 0) break;\n\n        uint256[] memory delivery = new uint256[](deliverycount);\n        for (uint256 i = 0; i < deliverycount; i++)\n            delivery[i] = args_[i + 8];\n\n        return\n            __search(\n                from_,\n                SearchArgTarget(\n                    to_,\n                    args_[0],\n                    args_[1],\n                    args_[2] != 0,\n                    args_[3] != 0,\n                    args_[7],\n                    delivery\n                ),\n                SearchArg(args_[5], args_[6], args_[4], new Solution[](0)),\n                false\n            );\n    }\n\n    function searchEx(\n        address from_,\n        uint256 fromid_,\n        address to_,\n        uint256 toid_,\n        SearchPublicArgs memory args_,\n        uint256[] memory delivery_\n    )\n        public\n        view\n        returns (\n            Solution[] memory,\n            uint256,\n            Quote memory\n        )\n    {\n        return\n            search(\n                rep.roCurrency(from_, fromid_),\n                rep.roCurrency(to_, toid_),\n                args_,\n                delivery_\n            );\n    }\n\n    function search(\n        bytes32 from_,\n        bytes32 to_,\n        SearchPublicArgs memory args_,\n        uint256[] memory delivery_\n    )\n        public\n        view\n        returns (\n            Solution[] memory,\n            uint256,\n            Quote memory\n        )\n    {\n        uint len = delivery_.length;\n        require(len <= 32, \"delivery array max size is 32\");\n\n        // stack to deep hack\n        uint256[40] memory args;\n        args[0] = args_.granularity;\n        args[1] = args_.qty;\n        args[2] = args_.qtyismin ? 1 : 0;\n        args[3] = args_.qtyismax ? 1 : 0;\n        args[4] = args_.maxtotal;\n        args[5] = args_.maxquote;\n        args[6] = args_.maxavgquote;\n        args[7] = args_.maxcount;\n        {\n            uint256 argptr = 8;\n            for (uint256 i = 0; i < len; i++)\n                if (delivery_[i] != 0) args[argptr++] = delivery_[i];\n        }\n        (bool _result, ) = rep.get(MARKET).staticcall(\n            abi.encodeWithSelector(\n                bytes4(keccak256(\"d_search(bytes32,bytes32,uint256[])\")),\n                address(this),\n                from_,\n                to_,\n                uint256(32 * 3),\n                uint256(args.length),\n                args\n            )\n        );\n        _return(_result);\n    }\n\n    /**\n     * @dev we search for direct solution from_ to target_.addr\n     * from_ is the source currency , from_ directly filtered by fromToListEx\n     * target_\n     *      target_.addr                    is the searched dest currency\n     *                                          addr is directly filtered by fromToListEx\n     *      target_.mingranularity          is the minimum granularity we are searching for\n     *                                          is used by the first filter\n     *      target_.qty                     is the qty we are search, it can be overshoot is cheaper to buy more\n     *      target_.delivery                is the filter for target delivery\n     *                                          delivery is directly filtered by fromToListEx\n     * searcharg_\n     *      searcharg_.maxquote                 is used by the first filter\n     *      searcharg_.maxavgquote\n     *      searcharg_.maxcount\n     *      searcharg_.used                 memorize the used of order\n     *      searcharg_.remainer IGNORED     should be removed from target_.qty before call\n     */\n    function __search(\n        bytes32 currency_,\n        SearchArgTarget memory target_,\n        SearchArg memory searcharg_,\n        bool rawoutput_\n    )\n        private\n        view\n        returns (\n            Solution[] memory out_,\n            uint256 qty_,\n            Quote memory quote_\n        )\n    {\n        // get all orders fromTo\n        out_ = __fromToListEx(\n            currency_,\n            target_.currency,\n            target_.delivery,\n            0,\n            0\n        );\n        // filters max quote and mingranularity\n        {\n            uint len = out_.length;\n            Solution[] memory filtered = new Solution[](len);\n            uint256 count = 0;\n            for (uint256 i; i < len; i++) {\n                //testing maxquote\n                require(out_[i].addr == target_.currency,\"__search out_[i].addr == target_.currency\");\n                if (\n                    (searcharg_.maxquote != 0) &&\n                    (out_[i].quote > searcharg_.maxquote)\n                ) continue;\n                if (out_[i].granularity < target_.mingranularity) continue;\n                //if (out_[i].qty < out_[i].granularity) continue;\n                if (out_[i].qty < searcharg_.used.getIdQty(out_[i].orderid))\n                    continue;\n                if (\n                    (out_[i].qty - searcharg_.used.getIdQty(out_[i].orderid)) <\n                    out_[i].granularity\n                ) continue;\n                if (\n                    target_.maxcount == 1 &&\n                    searcharg_.maxavgquote != 0 &&\n                    out_[i].quote > searcharg_.maxavgquote\n                ) continue;\n\n                filtered[count] = out_[i];\n                count++;\n            }\n            assembly {\n                mstore(filtered, count)\n            }\n            out_ = filtered;\n        }\n\n        /*out_ = out_.orderGranularity();\n        if (target_.qty != 0 && target_.qtyismin && (!target_.qtyismax))\n        {\n            target_.qty = MarketSearchLib.recurseSearchBestQty(\n                out_,\n                0,\n                target_,\n                searcharg_,\n                0\n            );\n        }*/\n        //return (out_, target_.qty, quote_);\n        (out_, qty_, quote_) = MarketSearchLib.recurseSearch(\n            out_,\n            0,\n            target_,\n            searcharg_,\n            new Solution[](0)\n        );\n        if (!rawoutput_) {\n            // aplying searcharg_.maxcount\n            out_ = out_.order();\n            if (target_.maxcount != 0 && out_.length > target_.maxcount) {\n                uint256 count = target_.maxcount;\n                assembly {\n                    mstore(out_, count)\n                }\n                (qty_, quote_) = out_.getQtyQuote();\n            }\n        }\n    }\n\n    function d_searchC(\n        bytes32 fromcurrency_,\n        bytes32 tocurrency_,\n        uint256[] calldata args_\n    ) public view returns (SolutionSet memory out_,Remainer[] memory remainerout_) {\n        //args_[0] = mingranularity_;\n        //args_[1] = qty_;\n        //args_[2] = qtyismin_;\n        //args_[2] = qtyismax_;\n        //args_[3] = maxtotal;\n        //args_[4] = maxquote_;\n        //args_[5] = maxavgquote_;\n        //args_[6] = maxcount_;\n        uint256 deliverycount = 0;\n        uint len = args_.length;\n        for (; deliverycount < len - 8; deliverycount++)\n            if (args_[8 + deliverycount] == 0) break;\n\n        uint256[] memory delivery = new uint256[](deliverycount);\n        for (uint256 i = 0; i < deliverycount; i++)\n            delivery[i] = args_[i + 8];\n\n        return\n            __searchC(\n                fromcurrency_,\n                MarketSearch.SearchArgTarget(\n                    tocurrency_,\n                    args_[0],\n                    args_[1],\n                    args_[2] != 0,\n                    args_[3] != 0,\n                    args_[7],\n                    delivery\n                ),\n                MarketSearch.SearchArg(\n                    args_[5],\n                    args_[6],\n                    args_[4],\n                    new Solution[](0)\n                ),\n                new Remainer[](0)\n            );\n    }\n\n    function searchCEx(\n        address from_,\n        uint256 fromid_,\n        address to_,\n        uint256 toid_,\n        SearchPublicArgs memory args_,\n        uint256[] memory delivery_\n    )\n        public\n        view\n        returns (\n            SolutionSet memory,Remainer[] memory\n        )\n    {\n        return\n            searchC(\n                rep.roCurrency(from_, fromid_),\n                rep.roCurrency(to_, toid_),\n                args_,\n                delivery_\n            );\n    }\n\n    function searchC(\n        bytes32 fromcurrency_,\n        bytes32 tocurrency_,\n        SearchPublicArgs memory args_,\n        uint256[] memory delivery_\n    )\n        public\n        view\n        returns (\n            SolutionSet memory,Remainer[] memory\n        )\n    {\n        uint len = delivery_.length;\n        require(len <= 32, \"delivery array max size is 32\");\n\n        // stack to deep hack\n        uint256[40] memory args;\n        args[0] = args_.granularity;\n        args[1] = args_.qty;\n        args[2] = args_.qtyismin ? 1 : 0;\n        args[3] = args_.qtyismax ? 1 : 0;\n        args[4] = args_.maxtotal;\n        args[5] = args_.maxquote;\n        args[6] = args_.maxavgquote;\n        args[7] = args_.maxcount;\n        {\n            uint256 argptr = 8;\n            for (uint256 i = 0; i < len; i++)\n                if (delivery_[i] != 0) args[argptr++] = delivery_[i];\n        }\n        (bool _result, ) = rep.get(MARKET).staticcall(\n            abi.encodeWithSelector(\n                bytes4(keccak256(\"d_searchC(bytes32,bytes32,uint256[])\")),\n                address(this),\n                fromcurrency_,\n                tocurrency_,\n                uint256(32 * 3),\n                uint256(args.length),\n                args\n            )\n        );\n        _return(_result);\n    }\n\n    function __searchCFollowPath(\n        bytes32[] memory path_,\n        MarketSearch.SearchArgTarget memory target_,\n        MarketSearch.SearchArg memory searcharg_,\n        Remainer[] memory remainer_\n    ) private view returns (SolutionSet memory out_) {\n        //uint len = path_.length;\n        require(path_.length >= 2, \"__searchCFollowPath path_.length>=2\");\n        require(path_[path_.length - 1]==target_.currency, \"__searchCFollowPath path_[path_.length - 1]==target_.currency\");\n\n        Solution[] memory solutions;\n        SolutionSetDesc memory desc;\n            \n        if (path_.length==2)\n        {\n            // no swap ->direct offer\n            (solutions, desc.qty, desc.quote) = __search(\n                path_[path_.length - 2],\n                target_,\n                searcharg_,\n                false\n            );\n            desc.count = solutions.length;\n            desc = desc.descCreateFromTo(\n                path_[path_.length - 2],\n                target_.currency\n            );\n        }\n        else\n        {\n            // get total swap qty\n            uint256 total = searcharg_.maxtotal; //+remainer_.get(path_[0]);\n            for (uint256 i = 1; i < path_.length - 1; i++) {\n                uint256 swapqty;\n                //Quote memory swapquote;\n                (, swapqty, ) = __search(\n                    path_[i - 1],\n                    MarketSearch.SearchArgTarget(\n                        path_[i],\n                        0,\n                        0,\n                        false,\n                        false,\n                        0,\n                        new uint256[](0) //TODO only virtual\n                    ),\n                    MarketSearch.SearchArg(0, 0, total, searcharg_.used),\n                    true\n                );\n                if (swapqty == 0) return out_;\n                total = swapqty +remainer_.get(path_[i]);\n            }\n\n            //get target \n            // searcharg.maxquote ignored\n            // searcharg.maxavgquote ignored\n            {\n                (solutions, desc.qty, desc.quote) = __search(\n                    path_[path_.length - 2],\n                    target_,\n                    MarketSearch.SearchArg(0, 0, total, searcharg_.used),\n                    false\n                );\n            }\n            if (desc.qty == 0) return out_;\n\n            //creating set\n            {\n                desc.count = solutions.length;\n                desc = desc.descCreateFromTo(\n                    path_[path_.length - 2],\n                    target_.currency\n                );\n            }\n            // treating swaps\n            total = (desc.qty*desc.quote.quoteavg) / 10**18; \n            for (uint256 i = path_.length - 2; i >0 ; i--) \n            {\n                Solution[] memory swapsolutions;\n                SolutionSetDesc memory swapdesc;\n                {\n                    MarketSearch.SearchArgTarget memory target;\n                    MarketSearch.SearchArg memory search;\n                    {\n                        //target = MarketSearch.SearchArgTarget(\n                        //    path_[i],\n                        //    0,\n                        //    total-remainer_.get(path_[i - 1]),\n                        //    true,\n                        //    false,\n                        //    0,\n                        //    new uint256[](0) //TODO only virtual\n                        //);\n                        //require(total>0,\"total>0\");\n                        target.currency = path_[i];\n                        target.qty = total - remainer_.get(path_[i]);\n                        //if (i>1)\n                        //    target.qty -= remainer_.get(path_[i - 1]);\n                        target.qtyismin = true;\n                        //search = MarketSearch.SearchArg(0, 0, 0, searcharg_.used);\n                        search.used = searcharg_.used;\n                    }\n                        \n                    (swapsolutions, swapdesc.qty, swapdesc.quote) = __search(\n                        path_[i - 1],\n                        target,\n                        search,\n                        false\n                    );\n                }\n                if (swapdesc.qty == 0) return out_;\n                total = (swapdesc.qty*swapdesc.quote.quoteavg) / 10**18; \n\n                (desc, solutions) = desc.descAddOffset(solutions,path_[i - 1],swapsolutions);\n                desc.quote.quotemin = (desc.quote.quotemin*swapdesc.quote.quotemin)/10**18;\n                desc.quote.quotemax = (desc.quote.quotemax*swapdesc.quote.quotemax)/10**18;\n                desc.quote.quoteavg = (desc.quote.quoteavg*((swapdesc.qty*swapdesc.quote.quoteavg)/desc.qty))/10**18;\n            }\n\n            //resulting out\n        }\n        out_ = out_.add(desc, solutions);\n    }\n\n    function __searchC(\n        bytes32 from_,\n        MarketSearch.SearchArgTarget memory target_,\n        MarketSearch.SearchArg memory searcharg_,\n        Remainer[] memory remainer_\n    ) private view returns (SolutionSet memory out_,Remainer[] memory remainerout_) {\n        remainerout_ = remainer_;\n        SolutionSet memory solpath;\n        {\n            bytes32[][] memory paths = _listPath(from_, target_.currency);\n            uint len = paths.length;\n            for (uint256 i; i < len; i++) {\n                SolutionSetDesc memory desc;\n                (, desc.qty, desc.quote) = __search(\n                    paths[i][paths[i].length - 2],\n                    target_,\n                    MarketSearch.SearchArg(0, 0, 0, searcharg_.used),\n                    false\n                );\n                if (desc.qty == 0) continue;\n                desc.path = paths[i];\n                solpath = solpath.add(desc, new Solution[](0));\n            }\n        }\n        uint pathlen = solpath.descs.length;\n        if (pathlen==0)\n            return (out_,remainerout_);\n        //return (solpath,remainerout_);\n\n        SearchArgTarget memory target;\n        {\n            target.currency = target_.currency;\n            target.mingranularity = target_.mingranularity;\n            target.qty = target_.qty;\n            target.qtyismin = target_.qtyismin;\n            target.qtyismax = target_.qtyismax;\n            target.maxcount = target_.maxcount; \n            target.delivery = target_.delivery;\n        }\n        SearchArg memory searcharg;\n        {\n            searcharg.maxquote = searcharg_.maxquote;\n            searcharg.maxavgquote = searcharg_.maxavgquote;\n            searcharg.maxtotal = searcharg_.maxtotal;\n            searcharg.used = searcharg_.used;\n        }\n        SolutionSet[] memory pathsolutions = new SolutionSet[](pathlen);\n\n        uint maxcount;\n        while (true)\n        {\n            searcharg.maxquote = searcharg_.maxquote;\n            target.maxcount = 1;\n            for (uint i; i < pathlen; i++) {\n                pathsolutions[i] = __searchCFollowPath(\n                    solpath.descs[i].path,\n                    target,\n                    searcharg,\n                    remainerout_\n                );\n                require(pathsolutions[i].descs.length<=1,\"PARANOIA __searchCFollowPath should return max 1 desc\");\n            }\n\n            uint quotebest=type(uint).max;\n            {\n                uint256 quotemin;\n                uint256 quotemax;\n\n\n                for (uint i; i < pathlen; i++) {\n                    if (pathsolutions[i].qty==0)\n                        continue;\n                    \n                    if (quotebest==type(uint).max || quotemin>pathsolutions[i].quote.quotemin)\n                    {\n                        if (quotebest!=type(uint).max && quotemin<pathsolutions[i].quote.quotemax)\n                            quotemax = quotemin;\n                        else\n                            quotemax = pathsolutions[i].quote.quotemax;\n                        quotebest = i;\n                        quotemin = pathsolutions[i].quote.quotemin;\n                    }\n                    else if (quotemax>pathsolutions[i].quote.quotemin)\n                        quotemax = pathsolutions[i].quote.quotemin;\n                }\n                if (quotebest==type(uint).max)\n                {\n                    //require(false,\"if (quotebest==type(uint).max)\");\n                    break;\n                }\n\n                searcharg.maxquote = quotemax; \n            }\n            SolutionSet memory selected;\n            //if (searcharg.maxquote>=pathsolutions[quotebest].quote.quotemax)\n            //    selected = pathsolutions[quotebest];\n            //else\n            {\n                selected = __searchCFollowPath(\n                    solpath.descs[quotebest].path,\n                    target,\n                    searcharg,\n                    remainerout_\n                );\n                require(selected.descs.length==1,\"PARANOIA __searchCFollowPath should return 1 desc\");\n            }\n            if (selected.qty ==0)\n            {\n                require(false,\"if (selected.qty ==0)\");\n                break;\n            }\n            out_ = out_.add(selected);\n            maxcount +=selected.solutions.length;\n            if (selected.descs[0].offset.length!=0)\n                maxcount -= selected.descs[0].offset[selected.descs[0].offset.length-1];\n            remainerout_ = remainerout_.update(selected.descs[0],selected.solutions);\n\n            searcharg.used = searcharg.used.add(selected.solutions);\n            searcharg.maxquote = searcharg_.maxquote;\n\n\n            if (target_.maxcount!=0)\n            {\n                if (maxcount>=target_.maxcount)\n                {\n                    require(false,\"if (maxcount>=target_.maxcount)\");\n                    break;\n                }\n                target.maxcount = target_.maxcount-maxcount;\n            }\n            if (target_.qty!=0)\n            {\n                if (selected.qty>=target_.qty)\n                {\n                    require(false,\"if (selected.qty>=target_.qty)\");\n                    break;\n                }\n                target.qty = target_.qty-selected.qty;\n            }\n            if (searcharg_.maxtotal!=0)\n            {\n                uint256 total = (out_.qty*out_.quote.quoteavg)/10**18;\n                if (total>=searcharg_.maxtotal)\n                {\n                    require(false,\"if (total>=searcharg_.maxtotal)\");\n                    break;\n                }\n                searcharg.maxtotal = searcharg_.maxtotal-total;\n            }\n            if (searcharg_.maxavgquote!=0)\n            {\n                /*if (\n                    searcharg_.maxavgquote != 0 &&\n                    in_[i].quote > searcharg_.maxavgquote\n                ) {\n                    uint256 deltaqty = ((((stack.getQty(stackcount) *\n                        searcharg_.maxavgquote) / 10**18) -\n                        stack.getTotal(stackcount)) * 10**18) /\n                        (in_[i].quote - searcharg_.maxavgquote);\n\n                    if (qty > deltaqty)\n                        qty = deltaqty - (deltaqty % in_[i].granularity);\n                }*/\n\n            }\n            //break;\n\n        }\n\n\n    }\n}\n","sourcePath":"contracts/Market/Reader/Search.sol","deployment":{"address":"0x6DF3c13330BB77E582b7044fb0AD1450EE2a75d3","chainid":"9997","blockHeight":1163}}