{"abi":[{"inputs":[{"internalType":"bool","name":"MODETEST_","type":"bool"}],"stateMutability":"nonpayable","type":"constructor","name":"constructor"},{"anonymous":false,"inputs":[{"indexed":true,"internalType":"address","name":"previousOwner","type":"address"},{"indexed":true,"internalType":"address","name":"newOwner","type":"address"}],"name":"OwnershipTransferred","type":"event"},{"stateMutability":"nonpayable","type":"fallback"},{"inputs":[{"internalType":"address","name":"addr_","type":"address"},{"internalType":"uint256","name":"v_","type":"uint256"}],"name":"AddressUInt256","outputs":[{"internalType":"bytes32","name":"k_","type":"bytes32"}],"stateMutability":"nonpayable","type":"function"},{"inputs":[{"internalType":"bytes","name":"in_","type":"bytes"}],"name":"Bytes","outputs":[{"internalType":"bytes32","name":"k_","type":"bytes32"}],"stateMutability":"nonpayable","type":"function"},{"inputs":[{"internalType":"bytes32","name":"v_","type":"bytes32"},{"internalType":"address","name":"addr_","type":"address"}],"name":"Bytes32Address","outputs":[{"internalType":"bytes32","name":"k_","type":"bytes32"}],"stateMutability":"nonpayable","type":"function"},{"inputs":[{"internalType":"bytes32[]","name":"in_","type":"bytes32[]"}],"name":"Bytes32Array","outputs":[{"internalType":"bytes32","name":"k_","type":"bytes32"}],"stateMutability":"nonpayable","type":"function"},{"inputs":[{"internalType":"bytes32","name":"v1_","type":"bytes32"},{"internalType":"bytes32","name":"v2_","type":"bytes32"}],"name":"Bytes32Bytes32","outputs":[{"internalType":"bytes32","name":"k_","type":"bytes32"}],"stateMutability":"nonpayable","type":"function"},{"inputs":[],"name":"MODETEST","outputs":[{"internalType":"bool","name":"","type":"bool"}],"stateMutability":"view","type":"function"},{"inputs":[{"internalType":"string","name":"in_","type":"string"}],"name":"String","outputs":[{"internalType":"bytes32","name":"k_","type":"bytes32"}],"stateMutability":"nonpayable","type":"function"},{"inputs":[],"name":"_originalblock","outputs":[{"internalType":"uint256","name":"","type":"uint256"}],"stateMutability":"view","type":"function"},{"inputs":[{"internalType":"address","name":"bot_","type":"address"}],"name":"addOperator","outputs":[],"stateMutability":"nonpayable","type":"function"},{"inputs":[{"internalType":"address","name":"token","type":"address"},{"internalType":"uint256","name":"tokenId","type":"uint256"}],"name":"addTokenCertified","outputs":[{"internalType":"bool","name":"","type":"bool"}],"stateMutability":"nonpayable","type":"function"},{"inputs":[{"internalType":"address","name":"certifier_","type":"address"}],"name":"addTrustedCertifier","outputs":[{"internalType":"bool","name":"","type":"bool"}],"stateMutability":"nonpayable","type":"function"},{"inputs":[{"internalType":"contract IContractCertified","name":"contractAddr_","type":"address"},{"internalType":"uint256","name":"contractId_","type":"uint256"}],"name":"certify","outputs":[{"internalType":"bool","name":"","type":"bool"}],"stateMutability":"view","type":"function"},{"inputs":[{"internalType":"address","name":"addr_","type":"address"},{"internalType":"uint256","name":"id_","type":"uint256"}],"name":"currency","outputs":[{"internalType":"bytes32","name":"k_","type":"bytes32"}],"stateMutability":"nonpayable","type":"function"},{"inputs":[{"internalType":"bytes32","name":"k_","type":"bytes32"}],"name":"exists","outputs":[{"internalType":"bool","name":"","type":"bool"}],"stateMutability":"view","type":"function"},{"inputs":[{"internalType":"bytes32","name":"tokenhash_","type":"bytes32"}],"name":"existsCurrency","outputs":[{"internalType":"bool","name":"","type":"bool"}],"stateMutability":"view","type":"function"},{"inputs":[{"internalType":"address","name":"token_","type":"address"},{"internalType":"uint256","name":"tokenId_","type":"uint256"}],"name":"features","outputs":[{"internalType":"uint64","name":"","type":"uint64"}],"stateMutability":"view","type":"function"},{"inputs":[{"internalType":"bytes32","name":"tokenhash_","type":"bytes32"}],"name":"features","outputs":[{"internalType":"uint64","name":"","type":"uint64"}],"stateMutability":"view","type":"function"},{"inputs":[{"internalType":"address","name":"token_","type":"address"}],"name":"features","outputs":[{"internalType":"uint64","name":"","type":"uint64"}],"stateMutability":"view","type":"function"},{"inputs":[{"internalType":"bytes32","name":"hash_","type":"bytes32"}],"name":"get","outputs":[{"internalType":"address","name":"","type":"address"}],"stateMutability":"view","type":"function"},{"inputs":[{"internalType":"address","name":"token_","type":"address"}],"name":"granularity","outputs":[{"internalType":"uint256","name":"","type":"uint256"}],"stateMutability":"view","type":"function"},{"inputs":[{"internalType":"bytes32","name":"tokenhash_","type":"bytes32"}],"name":"granularity","outputs":[{"internalType":"uint256","name":"","type":"uint256"}],"stateMutability":"view","type":"function"},{"inputs":[{"internalType":"address","name":"token_","type":"address"},{"internalType":"uint256","name":"tokenId_","type":"uint256"}],"name":"granularity","outputs":[{"internalType":"uint256","name":"","type":"uint256"}],"stateMutability":"view","type":"function"},{"inputs":[{"internalType":"bytes32","name":"tokenhash_","type":"bytes32"},{"internalType":"uint64","name":"feature_","type":"uint64"}],"name":"hasFeature","outputs":[{"internalType":"bool","name":"","type":"bool"}],"stateMutability":"view","type":"function"},{"inputs":[{"internalType":"address","name":"token_","type":"address"},{"internalType":"uint256","name":"tokenId_","type":"uint256"}],"name":"image","outputs":[{"internalType":"string","name":"","type":"string"}],"stateMutability":"view","type":"function"},{"inputs":[{"internalType":"bytes32","name":"tokenhash_","type":"bytes32"}],"name":"image","outputs":[{"internalType":"string","name":"","type":"string"}],"stateMutability":"view","type":"function"},{"inputs":[{"internalType":"address","name":"token_","type":"address"}],"name":"image","outputs":[{"internalType":"string","name":"","type":"string"}],"stateMutability":"view","type":"function"},{"inputs":[{"internalType":"address","name":"caller_","type":"address"}],"name":"isContract","outputs":[{"internalType":"bool","name":"","type":"bool"}],"stateMutability":"view","type":"function"},{"inputs":[{"internalType":"address","name":"contractAddr_","type":"address"},{"internalType":"uint256","name":"contractId_","type":"uint256"}],"name":"isContractAllowed","outputs":[{"internalType":"bool","name":"","type":"bool"}],"stateMutability":"view","type":"function"},{"inputs":[{"internalType":"address","name":"contractAddr_","type":"address"},{"internalType":"uint256","name":"contractId_","type":"uint256"}],"name":"isContractCertified","outputs":[{"internalType":"bool","name":"","type":"bool"}],"stateMutability":"view","type":"function"},{"inputs":[{"internalType":"address","name":"contractAddr_","type":"address"},{"internalType":"uint256","name":"contractId_","type":"uint256"}],"name":"isContractForbidden","outputs":[{"internalType":"bool","name":"","type":"bool"}],"stateMutability":"view","type":"function"},{"inputs":[],"name":"isContractForbiddenUnknown","outputs":[{"internalType":"bool","name":"","type":"bool"}],"stateMutability":"view","type":"function"},{"inputs":[{"internalType":"bytes32","name":"tokenhash_","type":"bytes32"},{"internalType":"uint64","name":"type_","type":"uint64"}],"name":"isFeatureType","outputs":[{"internalType":"bool","name":"","type":"bool"}],"stateMutability":"view","type":"function"},{"inputs":[{"internalType":"address","name":"caller_","type":"address"}],"name":"isOperator","outputs":[{"internalType":"bool","name":"","type":"bool"}],"stateMutability":"view","type":"function"},{"inputs":[{"internalType":"address","name":"certifier_","type":"address"}],"name":"isTrustedCertifier","outputs":[{"internalType":"bool","name":"","type":"bool"}],"stateMutability":"view","type":"function"},{"inputs":[{"internalType":"address","name":"token_","type":"address"},{"internalType":"uint256","name":"tokenId_","type":"uint256"}],"name":"nft","outputs":[{"internalType":"bool","name":"","type":"bool"}],"stateMutability":"view","type":"function"},{"inputs":[{"internalType":"address","name":"token_","type":"address"}],"name":"nft","outputs":[{"internalType":"bool","name":"","type":"bool"}],"stateMutability":"view","type":"function"},{"inputs":[{"internalType":"bytes32","name":"tokenhash_","type":"bytes32"}],"name":"nft","outputs":[{"internalType":"bool","name":"","type":"bool"}],"stateMutability":"view","type":"function"},{"inputs":[],"name":"owner","outputs":[{"internalType":"address","name":"","type":"address"}],"stateMutability":"view","type":"function"},{"inputs":[{"internalType":"address","name":"addr_","type":"address"},{"internalType":"uint256","name":"id_","type":"uint256"}],"name":"pureCurrency","outputs":[{"internalType":"bytes32","name":"k_","type":"bytes32"}],"stateMutability":"pure","type":"function"},{"inputs":[{"internalType":"address","name":"bot_","type":"address"}],"name":"removeOperator","outputs":[],"stateMutability":"nonpayable","type":"function"},{"inputs":[{"internalType":"address","name":"token","type":"address"},{"internalType":"uint256","name":"tokenId","type":"uint256"}],"name":"removeTokenCertified","outputs":[{"internalType":"bool","name":"","type":"bool"}],"stateMutability":"nonpayable","type":"function"},{"inputs":[{"internalType":"address","name":"certifier_","type":"address"}],"name":"removeTrustedCertifier","outputs":[{"internalType":"bool","name":"","type":"bool"}],"stateMutability":"nonpayable","type":"function"},{"inputs":[],"name":"renounceOwnership","outputs":[],"stateMutability":"nonpayable","type":"function"},{"inputs":[{"internalType":"bytes32","name":"k_","type":"bytes32"}],"name":"resolveAddressUInt256","outputs":[{"internalType":"address","name":"addr_","type":"address"},{"internalType":"uint256","name":"v_","type":"uint256"}],"stateMutability":"view","type":"function"},{"inputs":[{"internalType":"bytes32","name":"k_","type":"bytes32"}],"name":"resolveBytes","outputs":[{"internalType":"bytes","name":"out_","type":"bytes"}],"stateMutability":"view","type":"function"},{"inputs":[{"internalType":"bytes32","name":"k_","type":"bytes32"}],"name":"resolveBytes32Address","outputs":[{"internalType":"bytes32","name":"v_","type":"bytes32"},{"internalType":"address","name":"addr_","type":"address"}],"stateMutability":"view","type":"function"},{"inputs":[{"internalType":"bytes32","name":"k_","type":"bytes32"}],"name":"resolveBytes32Array","outputs":[{"internalType":"bytes32[]","name":"out_","type":"bytes32[]"}],"stateMutability":"view","type":"function"},{"inputs":[{"internalType":"bytes32","name":"k_","type":"bytes32"}],"name":"resolveBytes32Bytes32","outputs":[{"internalType":"bytes32","name":"v1_","type":"bytes32"},{"internalType":"bytes32","name":"v2_","type":"bytes32"}],"stateMutability":"view","type":"function"},{"inputs":[{"internalType":"bytes32","name":"tokenhash_","type":"bytes32"}],"name":"resolveCurrency","outputs":[{"internalType":"address","name":"addr","type":"address"},{"internalType":"uint256","name":"id","type":"uint256"}],"stateMutability":"view","type":"function"},{"inputs":[{"internalType":"bytes32","name":"tokenhash_","type":"bytes32"}],"name":"resolveCurrencyAddr","outputs":[{"internalType":"address","name":"","type":"address"}],"stateMutability":"view","type":"function"},{"inputs":[{"internalType":"bytes32","name":"k_","type":"bytes32"}],"name":"resolveString","outputs":[{"internalType":"string","name":"out_","type":"string"}],"stateMutability":"view","type":"function"},{"inputs":[{"internalType":"address","name":"addr_","type":"address"},{"internalType":"uint256","name":"id_","type":"uint256"}],"name":"roCurrency","outputs":[{"internalType":"bytes32","name":"k_","type":"bytes32"}],"stateMutability":"view","type":"function"},{"inputs":[{"internalType":"contract IRepositoryContract","name":"contract_","type":"address"}],"name":"setContract","outputs":[],"stateMutability":"nonpayable","type":"function"},{"inputs":[{"internalType":"bytes4","name":"interfaceId","type":"bytes4"}],"name":"supportsInterface","outputs":[{"internalType":"bool","name":"","type":"bool"}],"stateMutability":"view","type":"function"},{"inputs":[{"internalType":"bytes32","name":"tokenhash_","type":"bytes32"},{"internalType":"bytes4","name":"interfaceId","type":"bytes4"}],"name":"supportsInterface","outputs":[{"internalType":"bool","name":"","type":"bool"}],"stateMutability":"view","type":"function"},{"inputs":[{"internalType":"address","name":"token_","type":"address"},{"internalType":"uint256","name":"tokenid_","type":"uint256"}],"name":"token","outputs":[],"stateMutability":"nonpayable","type":"function"},{"inputs":[{"internalType":"address","name":"token","type":"address"},{"internalType":"uint256","name":"tokenId","type":"uint256"}],"name":"tokenForbiddenAdd","outputs":[{"internalType":"bool","name":"","type":"bool"}],"stateMutability":"nonpayable","type":"function"},{"inputs":[{"internalType":"address","name":"token","type":"address"},{"internalType":"uint256","name":"tokenId","type":"uint256"}],"name":"tokenForbiddenRemove","outputs":[{"internalType":"bool","name":"","type":"bool"}],"stateMutability":"nonpayable","type":"function"},{"inputs":[{"internalType":"bool","name":"forbiddenunknown_","type":"bool"}],"name":"tokenForbiddenUnknownSet","outputs":[{"internalType":"bool","name":"","type":"bool"}],"stateMutability":"nonpayable","type":"function"},{"inputs":[{"internalType":"bytes32","name":"tokenhash_","type":"bytes32"}],"name":"tokenInfo","outputs":[{"components":[{"internalType":"int8","name":"granularity","type":"int8"},{"internalType":"bool","name":"nft","type":"bool"},{"internalType":"uint64","name":"features","type":"uint64"}],"internalType":"struct Token.Info","name":"","type":"tuple"}],"stateMutability":"view","type":"function"},{"inputs":[{"internalType":"address","name":"token_","type":"address"},{"internalType":"uint256","name":"tokenId_","type":"uint256"}],"name":"tokenInfo","outputs":[{"components":[{"internalType":"int8","name":"granularity","type":"int8"},{"internalType":"bool","name":"nft","type":"bool"},{"internalType":"uint64","name":"features","type":"uint64"}],"internalType":"struct Token.Info","name":"out_","type":"tuple"}],"stateMutability":"view","type":"function"},{"inputs":[{"internalType":"address","name":"token_","type":"address"}],"name":"tokenInfo","outputs":[{"components":[{"internalType":"int8","name":"granularity","type":"int8"},{"internalType":"bool","name":"nft","type":"bool"},{"internalType":"uint64","name":"features","type":"uint64"}],"internalType":"struct Token.Info","name":"out_","type":"tuple"}],"stateMutability":"view","type":"function"},{"inputs":[{"internalType":"address","name":"newOwner","type":"address"}],"name":"transferOwnership","outputs":[],"stateMutability":"nonpayable","type":"function"}],"bytecode":"60c06040526007805460ff191690553480156200001b57600080fd5b5060405162004344380380620043448339810160408190526200003e91620000aa565b8015156080526200004f336200005a565b504360a052620000d5565b600080546001600160a01b038381166001600160a01b0319831681178455604051919092169283917f8be0079c531659141344cd1fd0a4f28419497f9722a3daafe3b4186f6b6457e09190a35050565b600060208284031215620000bd57600080fd5b81518015158114620000ce57600080fd5b9392505050565b60805160a051614249620000fb60003960006108110152600061086b01526142496000f3fe608060405234801561001057600080fd5b50600436106103c55760003560e01c806381b2490b116101ff578063ad10a1351161011a578063c9c2a940116100ad578063e50d1b3e1161007c578063e50d1b3e14610bcd578063e855a31314610be0578063f2fde38b14610bf3578063f5dab71114610c06576103c5565b8063c9c2a94014610b81578063d47a7edd14610b94578063d4945d0e14610ba7578063dbf5f2fd14610bba576103c5565b8063bb7d88a9116100e9578063bb7d88a914610b35578063c33470d314610b48578063c452e6b614610b5b578063c5537eb714610b6e576103c5565b8063ad10a13514610acc578063af91558514610adf578063b305438314610b0f578063b72a4a7114610b22576103c5565b80639e9bb9c111610192578063a9d4632611610161578063a9d4632614610a80578063ababadb514610a93578063ac8a584a14610aa6578063ad0fc0cc14610ab9576103c5565b80639e9bb9c114610a34578063a663d4f514610a47578063a86eeb9114610a5a578063a9bf985814610a6d576103c5565b80638da5cb5b116101ce5780638da5cb5b146109d45780638eaa6ac0146109e557806395b5d58414610a0e5780639870d7fe14610a21576103c5565b806381b2490b1461099057806383350075146109a357806389765f59146109ae5780638d49d89b146109c1576103c5565b806338a699a4116102ef5780635b62cb70116102825780636d70f7ae116102515780636d70f7ae1461094d5780636f45768314610960578063715018a61461097557806375f890ab1461097d576103c5565b80635b62cb70146108ec57806361e99ffb146108ff578063657c7e091461091257806367c51dfc1461093a576103c5565b8063509ff69b116102be578063509ff69b146108a0578063552cdf98146108b35780635768bbb5146108c6578063589e6a98146108d9576103c5565b806338a699a4146108535780634329598c146107755780634635229b146108665780634f79b7921461088d576103c5565b806312cae67b116103675780631d7a3b72116103365780631d7a3b72146107e657806324ace672146107f95780632558a0791461080c57806327ee9dc214610833576103c5565b806312cae67b146107755780631627905514610795578063184bc906146107a857806318d54cf3146107d3576103c5565b8063036995df116103a3578063036995df1461070d57806307d610851461072e5780630ea94b9614610741578063120f6ee314610762576103c5565b806301ffc9a71461069a5780630221c7de146106c257806303565ea1146106ed575b6103cd610c19565b60405163825998c160e01b8152600d60048201526000356001600160e01b031916602482015273__Array_________________________________9063825998c190604401602060405180830381865af415801561042f573d6000803e3d6000fd5b505050506040513d601f19601f82011682018060405250810190610453919061390f565b5060005b600a5481101561069757336001600160a01b0316600a828154811061047e5761047e61392c565b6000918252602090912001546001600160a01b0316141561049e57610685565b6000600a82815481106104b3576104b361392c565b600091825260209182902001546040805163af640d0f60e01b815290516001600160a01b039092169263af640d0f926004808401938290030181865afa158015610501573d6000803e3d6000fd5b505050506040513d601f19601f820116820180604052508101906105259190613942565b905060016000828152600c602090815260408083206001600160e01b0319843516845290915290205460ff1660028111156105625761056261395b565b141561056e5750610685565b6000600a83815481106105835761058361392c565b60009182526020822001546040516001600160a01b03909116916105a8913690613971565b6000604051808303816000865af19150503d80600081146105e5576040519150601f19603f3d011682016040523d82523d6000602084013e6105ea565b606091505b50506000838152600c6020908152604080832083356001600160e01b03191684529091528120549192509060ff1660028111156106295761062961395b565b1415610682578061063b57600161063e565b60025b6000838152600c602090815260408083206001600160e01b031984351684529091529020805460ff1916600183600281111561067c5761067c61395b565b02179055505b50505b8061068f81613997565b915050610457565b50005b6106ad6106a83660046139ca565b610c9f565b60405190151581526020015b60405180910390f35b6106d56106d03660046139fa565b610ce5565b6040516001600160401b0390911681526020016106b9565b6107006106fb366004613a26565b610d12565b6040516106b99190613a3f565b61072061071b366004613a6e565b610da3565b6040519081526020016106b9565b6106ad61073c366004613a26565b610db0565b61075461074f366004613a26565b610dd9565b6040516106b9929190613a8b565b6106d5610770366004613a26565b610e34565b610788610783366004613a26565b610e86565b6040516106b99190613b00565b6106ad6107a3366004613a6e565b610f28565b6107bb6107b6366004613a26565b610fc7565b6040516001600160a01b0390911681526020016106b9565b6106ad6107e13660046139fa565b61101f565b6107886107f43660046139fa565b61103a565b610720610807366004613bbe565b611348565b6107207f000000000000000000000000000000000000000000000000000000000000000081565b610846610841366004613a26565b6114aa565b6040516106b99190613c06565b6106ad610861366004613a26565b611530565b6106ad7f000000000000000000000000000000000000000000000000000000000000000081565b61072061089b3660046139fa565b61153b565b6107206108ae3660046139fa565b61156e565b6106ad6108c13660046139fa565b6115b3565b6107206108d4366004613c4a565b6115e0565b6107206108e7366004613bbe565b61166f565b6106ad6108fa366004613a6e565b61167a565b61072061090d366004613c7a565b611685565b610925610920366004613a26565b6116cb565b604080519283526020830191909152016106b9565b6106ad6109483660046139fa565b61174d565b6106ad61095b366004613a6e565b611761565b61097361096e3660046139fa565b6117c3565b005b610973611c5f565b61097361098b366004613a6e565b611c71565b6106ad61099e3660046139fa565b611f4a565b60075460ff166106ad565b6106ad6109bc3660046139fa565b61207f565b6106d56109cf366004613a6e565b612093565b6000546001600160a01b03166107bb565b6107bb6109f3366004613a26565b6000908152600960205260409020546001600160a01b031690565b6106ad610a1c366004613a6e565b6120a0565b610973610a2f366004613a6e565b6120b3565b610788610a42366004613a26565b612143565b6106ad610a55366004613cb1565b6121ac565b610720610a683660046139fa565b6121d6565b610720610a7b366004613a26565b6121e2565b610788610a8e366004613a6e565b612234565b6106ad610aa13660046139fa565b612241565b610973610ab4366004613a6e565b612353565b6106ad610ac73660046139fa565b6123a2565b6106ad610ada3660046139fa565b6124c5565b610af2610aed366004613a26565b612503565b604080519283526001600160a01b039091166020830152016106b9565b610720610b1d366004613cf9565b612585565b610720610b303660046139fa565b612608565b610700610b433660046139fa565b612614565b6106ad610b56366004613d89565b61280c565b6106ad610b69366004613a6e565b6128a3565b6106ad610b7c366004613cb1565b6128b0565b610720610b8f3660046139fa565b6128cf565b6106ad610ba2366004613a26565b61297a565b6106ad610bb5366004613db5565b6129cc565b6106ad610bc8366004613a6e565b6129df565b610754610bdb366004613a26565b6129f2565b6106ad610bee3660046139fa565b6129fe565b610973610c01366004613a6e565b612a12565b610700610c14366004613a6e565b612a8b565b6000546001600160a01b0316331480610c365750610c3633610f28565b610c9d5760405162461bcd60e51b815260206004820152602d60248201527f416c6c6f77616e63653a2063616c6c6572206d757374206265205265706f736960448201526c1d1bdc9e4810dbdb9d1c9858dd609a1b60648201526084015b60405180910390fd5b565b60006001600160e01b031982166301ffc9a760e01b1480610cd057506305b62cb760e41b6001600160e01b03198316145b80610cdf5750610cdf82612ab3565b92915050565b60006001600160a01b038316610cfd57506001610cdf565b610d078383612614565b604001519392505050565b604080516060810182526000808252602082018190529181019190915260008051602061417f833981519152821415610d5057610cdf600080612614565b610d5982610db0565b610d815750506040805160608101825260111981526000602082018190529181019190915290565b600080610d8d84610dd9565b91509150610d9b8282612614565b949350505050565b6000610cdf826000612608565b600060008051602061417f833981519152821415610dd057506001919050565b610cdf82611530565b60008060008051602061417f833981519152831415610dfd57506000928392509050565b610e0683611530565b610e225760405162461bcd60e51b8152600401610c9490613dd2565b610e2b836129f2565b91509150915091565b600060008051602061417f833981519152821415610e5757610cdf600080610ce5565b610e6082610db0565b610e6c57506000919050565b600080610e7884610dd9565b91509150610d9b8282610ce5565b6000818152600860205260409020805460609190610ea390613e09565b80601f0160208091040260200160405190810160405280929190818152602001828054610ecf90613e09565b8015610f1c5780601f10610ef157610100808354040283529160200191610f1c565b820191906000526020600020905b815481529060010190602001808311610eff57829003601f168201915b50505050509050919050565b60006001600160a01b038216301415610f4357506001919050565b60405163f132566360e01b8152600a60048201526001600160a01b038316602482015273__Array_________________________________9063f1325663906044015b602060405180830381865af4158015610fa3573d6000803e3d6000fd5b505050506040513d601f19601f82011682018060405250810190610cdf919061390f565b600060008051602061417f833981519152821415610fe757506000919050565b610ff082611530565b61100c5760405162461bcd60e51b8152600401610c9490613dd2565b6000611017836129f2565b509392505050565b6000611029612ae9565b6110338383612b68565b9392505050565b60606001600160a01b03831661106a576040518060a001604052806075815260200161419f607591399050610cdf565b60006001600073__BytesAndKeccakLib_____________________63d5f0b04d87876040518363ffffffff1660e01b81526004016110a9929190613a8b565b602060405180830381865af41580156110c6573d6000803e3d6000fd5b505050506040513d601f19601f820116820180604052508101906110ea9190613942565b8152602001908152602001600020805461110390613e09565b80601f016020809104026020016040519081016040528092919081815260200182805461112f90613e09565b801561117c5780601f106111515761010080835404028352916020019161117c565b820191906000526020600020905b81548152906001019060200180831161115f57829003601f168201915b5050604080516000815260208101808352815190209596506111a49450869350019050613e3e565b60405160208183030381529060405280519060200120146111c6579050610cdf565b8215611327576001600073__BytesAndKeccakLib_____________________63d5f0b04d8760006040518363ffffffff1660e01b815260040161120a929190613a8b565b602060405180830381865af4158015611227573d6000803e3d6000fd5b505050506040513d601f19601f8201168201806040525081019061124b9190613942565b8152602001908152602001600020805461126490613e09565b80601f016020809104026020016040519081016040528092919081815260200182805461129090613e09565b80156112dd5780601f106112b2576101008083540402835291602001916112dd565b820191906000526020600020905b8154815290600101906020018083116112c057829003601f168201915b5050604080516000815260208101808352815190209596506113059450869350019050613e3e565b6040516020818303038152906040528051906020012014611327579050610cdf565b6040518060a00160405280606c8152602001614113606c9139949350505050565b8051602080830191909120600081815260089092526040909120805461136d90613e09565b1515905061139a576000818152600860209081526040909120835161139492850190613868565b50919050565b6000818152600860205260409020805461143c91906113b890613e09565b80601f01602080910402602001604051908101604052809291908181526020018280546113e490613e09565b80156114315780601f1061140657610100808354040283529160200191611431565b820191906000526020600020905b81548152906001019060200180831161141457829003601f168201915b505050505083612df5565b6114a55760405162461bcd60e51b815260206004820152603460248201527f4b656363616b496e766572746572204279746573206b656363616b2069736e7460448201527320756e697175652021212121212121212121212160601b6064820152608401610c94565b919050565b60606114b582610e86565b6040516355b04b0d60e11b815273__BytesAndKeccakLib_____________________9163ab60961a916114eb9190600401613b00565b600060405180830381865af4158015611508573d6000803e3d6000fd5b505050506040513d6000823e601f3d908101601f19168201604052610cdf9190810190613e5a565b6000610cdf82612e87565b600061154783836128cf565b905061155281611530565b610cdf5760405162461bcd60e51b8152600401610c9490613dd2565b60006001600160a01b038316158015611585575081155b1561159f575060008051602061417f833981519152610cdf565b6115a983836117c3565b61103383836121d6565b60006001600160a01b0383166115cb57506000610cdf565b6115d58383612614565b602001519392505050565b6040516318f7a7c360e21b8152600481018390526001600160a01b03821660248201526000906110339073__BytesAndKeccakLib_____________________906363de9f0c906044015b600060405180830381865af4158015611647573d6000803e3d6000fd5b505050506040513d6000823e601f3d908101601f19168201604052610b1d9190810190613e5a565b6000610cdf82611348565b6000610cdf82612ea9565b604051632291b3f160e21b815260048101839052602481018290526000906110339073__BytesAndKeccakLib_____________________90638a46cfc49060440161162a565b6000806116d7836114aa565b60405163029695c360e21b815273__BytesAndKeccakLib_____________________91630a5a570c9161170d9190600401613c06565b6040805180830381865af4158015611729573d6000803e3d6000fd5b505050506040513d601f19601f82011682018060405250810190610e2b9190613edf565b6000611757612ae9565b6110338383612f34565b60006001600160a01b03821630141561177c57506001919050565b60405163f132566360e01b8152600b60048201526001600160a01b038316602482015273__Array_________________________________9063f132566390604401610f86565b60008073__BytesAndKeccakLib_____________________63d5f0b04d8560006040518363ffffffff1660e01b8152600401611800929190613a8b565b602060405180830381865af415801561181d573d6000803e3d6000fd5b505050506040513d601f19601f820116820180604052508101906118419190613942565b600081815260036020526040902080549093509091506201000090046001600160401b03166119d357604051634dd11f0f60e11b81526001600160a01b0385166004820152600060248201526001604482015273__Token_________________________________90639ba23e1e90606401606060405180830381865af41580156118d0573d6000803e3d6000fd5b505050506040513d601f19601f820116820180604052508101906118f49190613f03565b6000828152600360209081526040918290208351815492850151948401516001600160401b0316620100000269ffffffffffffffff0000199515156101000261ffff1990941660ff90921691909117929092179390931617909155516316061a7160e21b815273__Array_________________________________9063581869c490611990906002908590600401918252602082015260400190565b602060405180830381865af41580156119ad573d6000803e3d6000fd5b505050506040513d601f19601f820116820180604052508101906119d1919061390f565b505b81546201000090046001600160401b03166119f0576119f0613f7b565b815462010000900461010016611a065750505050565b604080516060810182528354600081900b8252610100810460ff16151560208301526201000090046001600160401b031681830152905163d5f0b04d60e01b815273__BytesAndKeccakLib_____________________9063d5f0b04d90611a739088908890600401613a8b565b602060405180830381865af4158015611a90573d6000803e3d6000fd5b505050506040513d601f19601f82011682018060405250810190611ab49190613942565b600081815260036020526040902080549094509092506201000090046001600160401b0316611c3b5760405163543af62760e01b815273__Token_________________________________9063543af62790611b1b90889088908690600190600401613f91565b606060405180830381865af4158015611b38573d6000803e3d6000fd5b505050506040513d601f19601f82011682018060405250810190611b5c9190613f03565b6000838152600360209081526040918290208351815492850151948401516001600160401b0316620100000269ffffffffffffffff0000199515156101000261ffff1990941660ff90921691909117929092179390931617909155516316061a7160e21b815273__Array_________________________________9063581869c490611bf8906002908690600401918252602082015260400190565b602060405180830381865af4158015611c15573d6000803e3d6000fd5b505050506040513d601f19601f82011682018060405250810190611c39919061390f565b505b82546201000090046001600160401b0316611c5857611c58613f7b565b5050505050565b611c67613211565b610c9d600061326b565b611c79612ae9565b6040516301ffc9a760e01b81526315d3789560e31b60048201526001600160a01b038216906301ffc9a790602401602060405180830381865afa158015611cc4573d6000803e3d6000fd5b505050506040513d601f19601f82011682018060405250810190611ce8919061390f565b611d405760405162461bcd60e51b8152602060048201526024808201527f636f6e7472616374206d75737420626520495265706f7369746f7279436f6e746044820152631c9858dd60e21b6064820152608401610c94565b60005b600d54811015611e2957600c6000836001600160a01b031663af640d0f6040518163ffffffff1660e01b8152600401602060405180830381865afa158015611d8f573d6000803e3d6000fd5b505050506040513d601f19601f82011682018060405250810190611db39190613942565b81526020019081526020016000206000600d8381548110611dd657611dd661392c565b6000918252602080832060088304015460079092166004026101000a90910460e01b6001600160e01b03191683528201929092526040019020805460ff1916905580611e2181613997565b915050611d43565b506040516316f4b92960e21b8152600a60048201526001600160a01b038216602482015273__Array_________________________________90635bd2e4a490604401602060405180830381865af4158015611e89573d6000803e3d6000fd5b505050506040513d601f19601f82011682018060405250810190611ead919061390f565b508060096000836001600160a01b031663af640d0f6040518163ffffffff1660e01b8152600401602060405180830381865afa158015611ef1573d6000803e3d6000fd5b505050506040513d601f19601f82011682018060405250810190611f159190613942565b815260200190815260200160002060006101000a8154816001600160a01b0302191690836001600160a01b0316021790555050565b6004546000905b8015612075576001600160a01b0384166004611f6e600184613fe8565b81548110611f7e57611f7e61392c565b60009182526020909120600290910201546001600160a01b0316148015611fd357506004611fad600183613fe8565b81548110611fbd57611fbd61392c565b9060005260206000209060020201600101546000145b8061205457506001600160a01b0384166004611ff0600184613fe8565b815481106120005761200061392c565b60009182526020909120600290910201546001600160a01b03161480156120545750826004612030600184613fe8565b815481106120405761204061392c565b906000526020600020906002020160010154145b15612063576001915050610cdf565b8061206d81613fff565b915050611f51565b5060009392505050565b6000612089612ae9565b61103383836132bb565b6000610cdf826000610ce5565b60006120aa612ae9565b610cdf82613417565b6120bb612ae9565b6040516316f4b92960e21b8152600b60048201526001600160a01b038216602482015273__Array_________________________________90635bd2e4a4906044015b602060405180830381865af415801561211b573d6000803e3d6000fd5b505050506040513d601f19601f8201168201806040525081019061213f919061390f565b5050565b606060008051602061417f83398151915282141561216657610cdf60008061103a565b61216f82610db0565b612192576040518060a00160405280606c8152602001614113606c913992915050565b60008061219e84610dd9565b91509150610d9b828261103a565b6000816001600160401b031660ff6121c385610e34565b166001600160401b031614905092915050565b600061103383836134d5565b600060008051602061417f83398151915282141561220557610cdf600080612608565b61220e82610db0565b61221a57506001919050565b60008061222684610dd9565b91509150610d9b8282612608565b6060610cdf82600061103a565b600654600090815b8181101561234857846001600160a01b03166006828154811061226e5761226e61392c565b60009182526020909120600290910201546001600160a01b03161480156122b95750600681815481106122a3576122a361392c565b9060005260206000209060020201600101546000145b806123265750846001600160a01b0316600682815481106122dc576122dc61392c565b60009182526020909120600290910201546001600160a01b0316148015612326575083600682815481106123125761231261392c565b906000526020600020906002020160010154145b1561233657600192505050610cdf565b8061234081613997565b915050612249565b506000949350505050565b61235b612ae9565b60405163edefe12d60e01b8152600b60048201526001600160a01b038216602482015273__Array_________________________________9063edefe12d906044016120fe565b60006123af836000611f4a565b156123bc57506001610cdf565b81156123d9576123cc8383611f4a565b156123d957506001610cdf565b6000836001600160a01b031663373a7fb46040518163ffffffff1660e01b8152600401602060405180830381865afa158015612419573d6000803e3d6000fd5b505050506040513d601f19601f8201168201806040525081019061243d9190614016565b90506124488161167a565b612456576000915050610cdf565b604051632b43f03360e21b81526001600160a01b0382169063ad0fc0cc906124849087908790600401613a8b565b602060405180830381865afa1580156124a1573d6000803e3d6000fd5b505050506040513d601f19601f82011682018060405250810190610d9b919061390f565b60006124d18383612241565b156124de57506000610cdf565b6124e88383611f4a565b156124f557506001610cdf565b60075460ff16159392505050565b60008061250f836114aa565b604051639ac1b34560e01b815273__BytesAndKeccakLib_____________________91639ac1b345916125459190600401613c06565b6040805180830381865af4158015612561573d6000803e3d6000fd5b505050506040513d601f19601f82011682018060405250810190610e2b9190614033565b604051632431a7cf60e01b8152600090610cdf9073__BytesAndKeccakLib_____________________90632431a7cf906125c3908690600401613c06565b600060405180830381865af41580156125e0573d6000803e3d6000fd5b505050506040513d6000823e601f3d908101601f191682016040526108079190810190614058565b60006110338383613513565b60408051606081018252600080825260208201819052918101919091526001600160a01b038316612664575060408051606081018252601119815260006020820152600191810191909152610cdf565b6003600073__BytesAndKeccakLib_____________________63d5f0b04d8660006040518363ffffffff1660e01b81526004016126a2929190613a8b565b602060405180830381865af41580156126bf573d6000803e3d6000fd5b505050506040513d601f19601f820116820180604052508101906126e39190613942565b815260208082019290925260409081016000908120825160608101845290549182900b815261010080830460ff16151594820194909452620100009091046001600160401b0381169282019290925292501661273e57610cdf565b6003600073__BytesAndKeccakLib_____________________63d5f0b04d86866040518363ffffffff1660e01b815260040161277b929190613a8b565b602060405180830381865af4158015612798573d6000803e3d6000fd5b505050506040513d601f19601f820116820180604052508101906127bc9190613942565b815260208082019290925260409081016000908120825160608101845290549182900b8152610100820460ff161515938101939093526201000090046001600160401b0316908201529392505050565b600061281a836102006128b0565b61282657506000610cdf565b61282f83610fc7565b6040516301ffc9a760e01b81526001600160e01b0319841660048201526001600160a01b0391909116906301ffc9a790602401602060405180830381865afa15801561287f573d6000803e3d6000fd5b505050506040513d601f19601f82011682018060405250810190611033919061390f565b6000610cdf8260006115b3565b6000816128bc84610e34565b166001600160401b031615159392505050565b60006001600160a01b0383161580156128e6575081155b15612900575060008051602061417f833981519152610cdf565b60405163d5f0b04d60e01b815273__BytesAndKeccakLib_____________________9063d5f0b04d906129399086908690600401613a8b565b602060405180830381865af4158015612956573d6000803e3d6000fd5b505050506040513d601f19601f820116820180604052508101906110339190613942565b600060008051602061417f83398151915282141561299d57610cdf6000806115b3565b6129a682610db0565b6129b257506000919050565b6000806129be84610dd9565b91509150610d9b82826115b3565b60006129d6612ae9565b610cdf8261356b565b60006129e9612ae9565b610cdf8261359d565b600080610e2b836136be565b6000612a08612ae9565b6110338383613740565b612a1a613211565b6001600160a01b038116612a7f5760405162461bcd60e51b815260206004820152602660248201527f4f776e61626c653a206e6577206f776e657220697320746865207a65726f206160448201526564647265737360d01b6064820152608401610c94565b612a888161326b565b50565b6040805160608101825260008082526020820181905291810191909152610cdf826000612614565b60006001600160e01b031982166301ffc9a760e01b1480610cdf57506001600160e01b03198216632b43f03360e21b1492915050565b6000546001600160a01b0316331480612b065750612b0633611761565b610c9d5760405162461bcd60e51b815260206004820152602d60248201527f416c6c6f77616e63653a2063616c6c6572206d757374206265205265706f736960448201526c3a37b93c9027b832b930ba37b960991b6064820152608401610c94565b600654600090815b81811015612c0257846001600160a01b031660068281548110612b9557612b9561392c565b60009182526020909120600290910201546001600160a01b0316148015612be0575060068181548110612bca57612bca61392c565b9060005260206000209060020201600101546000145b15612bf057600092505050610cdf565b80612bfa81613997565b915050612b70565b5082612cc25760001981015b81811015612cbc57846001600160a01b031660068281548110612c3357612c3361392c565b60009182526020909120600290910201546001600160a01b03161415612cb357612cb160068281548110612c6957612c6961392c565b6000918252602090912060029091020154600680546001600160a01b039092169184908110612c9a57612c9a61392c565b906000526020600020906002020160010154613740565b505b60001901612c0e565b50612d58565b60005b81811015612d5657846001600160a01b031660068281548110612cea57612cea61392c565b60009182526020909120600290910201546001600160a01b0316148015612d3457508360068281548110612d2057612d2061392c565b906000526020600020906002020160010154145b15612d4457600092505050610cdf565b80612d4e81613997565b915050612cc5565b505b604080518082019091526001600160a01b038581168252602082018581526006805460018101825560009190915292517ff652222313e28459528d920b65115c16c04f3efc82aaedc97be59f3f377c0d3f600290940293840180546001600160a01b0319169190931617909155517ff652222313e28459528d920b65115c16c04f3efc82aaedc97be59f3f377c0d40909101555060019392505050565b60008151835114612e0857506000610cdf565b60005b8351811015612e7d57828181518110612e2657612e2661392c565b602001015160f81c60f81b6001600160f81b031916848281518110612e4d57612e4d61392c565b01602001516001600160f81b03191614612e6b576000915050610cdf565b80612e7581613997565b915050612e0b565b5060019392505050565b60008181526008602052604081208054612ea090613e09565b15159392505050565b60006001600160a01b038216301415612ec457506001919050565b6005545b8015612f2b576001600160a01b0383166005612ee5600184613fe8565b81548110612ef557612ef561392c565b6000918252602090912001546001600160a01b03161415612f195750600192915050565b80612f2381613fff565b915050612ec8565b50600092915050565b6004546000905b8015612fde576001600160a01b0384166004612f58600184613fe8565b81548110612f6857612f6861392c565b60009182526020909120600290910201546001600160a01b0316148015612fbd57506004612f97600183613fe8565b81548110612fa757612fa761392c565b9060005260206000209060020201600101546000145b15612fcc576000915050610cdf565b80612fd681613fff565b915050612f3b565b50816130cd575b6004545b80156130bc576001600160a01b0384166004613006600184613fe8565b815481106130165761301661392c565b60009182526020909120600290910201546001600160a01b031614156130aa576130a46004613046600184613fe8565b815481106130565761305661392c565b60009182526020909120600290910201546001600160a01b0316600461307d600185613fe8565b8154811061308d5761308d61392c565b9060005260206000209060020201600101546132bb565b506130bc565b806130b481613fff565b915050612fe9565b806130c75750613175565b50612fe5565b6004545b8015613173576001600160a01b03841660046130ee600184613fe8565b815481106130fe576130fe61392c565b60009182526020909120600290910201546001600160a01b0316148015613152575082600461312e600184613fe8565b8154811061313e5761313e61392c565b906000526020600020906002020160010154145b15613161576000915050610cdf565b8061316b81613fff565b9150506130d1565b505b604080518082019091526001600160a01b038481168252602082018481526004805460018101825560009190915292517f8a35acfbc15ff81a39ae7d344fd709f28e8600b4aa8c65c6b64bfe7fe36bd19b600290940293840180546001600160a01b0319169190931617909155517f8a35acfbc15ff81a39ae7d344fd709f28e8600b4aa8c65c6b64bfe7fe36bd19c9091015550600192915050565b6000546001600160a01b03163314610c9d5760405162461bcd60e51b815260206004820152601f60248201527f416c6c6f77616e63653a2063616c6c6572206d757374206265204f776e6572006044820152606401610c94565b600080546001600160a01b038381166001600160a01b0319831681178455604051919092169283917f8be0079c531659141344cd1fd0a4f28419497f9722a3daafe3b4186f6b6457e09190a35050565b600454600090815b8181101561234857846001600160a01b0316600482815481106132e8576132e861392c565b60009182526020909120600290910201546001600160a01b03161480156133325750836004828154811061331e5761331e61392c565b906000526020600020906002020160010154145b1561340557613342600183613fe8565b8110156133c0576004613356600184613fe8565b815481106133665761336661392c565b9060005260206000209060020201600482815481106133875761338761392c565b60009182526020909120825460029092020180546001600160a01b0319166001600160a01b039092169190911781556001918201549101555b60048054806133d1576133d16140ce565b60008281526020812060026000199093019283020180546001600160a01b0319168155600101559055600192505050610cdf565b8061340f81613997565b9150506132c3565b6005546000905b8015613481576001600160a01b038316600561343b600184613fe8565b8154811061344b5761344b61392c565b6000918252602090912001546001600160a01b0316141561346f5750600092915050565b8061347981613fff565b91505061341e565b600580546001810182556000919091527f036b6384b5eca791c62761152d0c79bb0604c104a5fb6f4eb0703f3154bb3db00180546001600160a01b0319166001600160a01b03851617905550600192915050565b600061103373__BytesAndKeccakLib_____________________630de874ed85856040518363ffffffff1660e01b815260040161162a929190613a8b565b60006001600160a01b03831661352b57506001610cdf565b73__Token_________________________________633646b54861354f8585612614565b6040518263ffffffff1660e01b81526004016129399190613a3f565b60075460009060ff161515821515141561358757506000919050565b6007805460ff1916831515179055506001919050565b600554600090815b8181101561207557836001600160a01b0316600582815481106135ca576135ca61392c565b6000918252602090912001546001600160a01b031614156136ac576135f0600183613fe8565b81101561366f576005613604600184613fe8565b815481106136145761361461392c565b600091825260209091200154600580546001600160a01b0390921691839081106136405761364061392c565b9060005260206000200160006101000a8154816001600160a01b0302191690836001600160a01b031602179055505b6005805480613680576136806140ce565b600082815260209020810160001990810180546001600160a01b03191690550190555060019392505050565b806136b681613997565b9150506135a5565b6000806136ca836114aa565b6040516314130a7960e31b815273__BytesAndKeccakLib_____________________9163a09853c8916137009190600401613c06565b6040805180830381865af415801561371c573d6000803e3d6000fd5b505050506040513d601f19601f82011682018060405250810190610e2b91906140e4565b600654600090815b8181101561234857846001600160a01b03166006828154811061376d5761376d61392c565b60009182526020909120600290910201546001600160a01b03161480156137b7575083600682815481106137a3576137a361392c565b906000526020600020906002020160010154145b15613856576137c7600183613fe8565b8110156138455760066137db600184613fe8565b815481106137eb576137eb61392c565b90600052602060002090600202016006828154811061380c5761380c61392c565b60009182526020909120825460029092020180546001600160a01b0319166001600160a01b039092169190911781556001918201549101555b60068054806133d1576133d16140ce565b8061386081613997565b915050613748565b82805461387490613e09565b90600052602060002090601f01602090048101928261389657600085556138dc565b82601f106138af57805160ff19168380011785556138dc565b828001600101855582156138dc579182015b828111156138dc5782518255916020019190600101906138c1565b506138e89291506138ec565b5090565b5b808211156138e857600081556001016138ed565b8015158114612a8857600080fd5b60006020828403121561392157600080fd5b815161103381613901565b634e487b7160e01b600052603260045260246000fd5b60006020828403121561395457600080fd5b5051919050565b634e487b7160e01b600052602160045260246000fd5b8183823760009101908152919050565b634e487b7160e01b600052601160045260246000fd5b60006000198214156139ab576139ab613981565b5060010190565b80356001600160e01b0319811681146114a557600080fd5b6000602082840312156139dc57600080fd5b611033826139b2565b6001600160a01b0381168114612a8857600080fd5b60008060408385031215613a0d57600080fd5b8235613a18816139e5565b946020939093013593505050565b600060208284031215613a3857600080fd5b5035919050565b815160000b81526020808301511515908201526040808301516001600160401b03169082015260608101610cdf565b600060208284031215613a8057600080fd5b8135611033816139e5565b6001600160a01b03929092168252602082015260400190565b60005b83811015613abf578181015183820152602001613aa7565b83811115613ace576000848401525b50505050565b60008151808452613aec816020860160208601613aa4565b601f01601f19169290920160200192915050565b6020815260006110336020830184613ad4565b634e487b7160e01b600052604160045260246000fd5b604051601f8201601f191681016001600160401b0381118282101715613b5157613b51613b13565b604052919050565b60006001600160401b03821115613b7257613b72613b13565b50601f01601f191660200190565b6000613b93613b8e84613b59565b613b29565b9050828152838383011115613ba757600080fd5b828260208301376000602084830101529392505050565b600060208284031215613bd057600080fd5b81356001600160401b03811115613be657600080fd5b8201601f81018413613bf757600080fd5b610d9b84823560208401613b80565b6020808252825182820181905260009190848201906040850190845b81811015613c3e57835183529284019291840191600101613c22565b50909695505050505050565b60008060408385031215613c5d57600080fd5b823591506020830135613c6f816139e5565b809150509250929050565b60008060408385031215613c8d57600080fd5b50508035926020909101359150565b6001600160401b0381168114612a8857600080fd5b60008060408385031215613cc457600080fd5b823591506020830135613c6f81613c9c565b60006001600160401b03821115613cef57613cef613b13565b5060051b60200190565b60006020808385031215613d0c57600080fd5b82356001600160401b03811115613d2257600080fd5b8301601f81018513613d3357600080fd5b8035613d41613b8e82613cd6565b81815260059190911b82018301908381019087831115613d6057600080fd5b928401925b82841015613d7e57833582529284019290840190613d65565b979650505050505050565b60008060408385031215613d9c57600080fd5b82359150613dac602084016139b2565b90509250929050565b600060208284031215613dc757600080fd5b813561103381613901565b60208082526017908201527f43757272656e6379206e6f742072656769737465726564000000000000000000604082015260600190565b600181811c90821680613e1d57607f821691505b6020821081141561139457634e487b7160e01b600052602260045260246000fd5b60008251613e50818460208701613aa4565b9190910192915050565b60006020808385031215613e6d57600080fd5b82516001600160401b03811115613e8357600080fd5b8301601f81018513613e9457600080fd5b8051613ea2613b8e82613cd6565b81815260059190911b82018301908381019087831115613ec157600080fd5b928401925b82841015613d7e57835182529284019290840190613ec6565b60008060408385031215613ef257600080fd5b505080516020909101519092909150565b600060608284031215613f1557600080fd5b604051606081018181106001600160401b0382111715613f3757613f37613b13565b6040528251600081900b8114613f4c57600080fd5b81526020830151613f5c81613901565b60208201526040830151613f6f81613c9c565b60408201529392505050565b634e487b7160e01b600052600160045260246000fd5b6001600160a01b03851681526020810184905260c08101613fd76040830185805160000b82526020808201511515908301526040908101516001600160401b0316910152565b82151560a083015295945050505050565b600082821015613ffa57613ffa613981565b500390565b60008161400e5761400e613981565b506000190190565b60006020828403121561402857600080fd5b8151611033816139e5565b6000806040838503121561404657600080fd5b825191506020830151613c6f816139e5565b60006020828403121561406a57600080fd5b81516001600160401b0381111561408057600080fd5b8201601f8101841361409157600080fd5b805161409f613b8e82613b59565b8181528560208385010111156140b457600080fd5b6140c5826020830160208601613aa4565b95945050505050565b634e487b7160e01b600052603160045260246000fd5b600080604083850312156140f757600080fd5b8251614102816139e5565b602093909301519294929350505056fe68747470733a2f2f6769746875622e636f6d2f5061747269636b416c706861432f646566692d7374616b652d7969656c642d62726f776e69652d66726565636f64652f626c6f622f6d61696e2f66726f6e745f656e642f7372632f646170702e706e673f7261773d74727565ad3228b676f7d3cd4284a5443f17f1962b36e491b30a40b2405849e597ba5fb568747470733a2f2f7261772e67697468756275736572636f6e74656e742e636f6d2f5061747269636b416c706861432f646566692d7374616b652d7969656c642d62726f776e69652d66726565636f64652f6d61696e2f66726f6e745f656e642f7372632f6574682e706e673f7261773d74727565a2646970667358221220875e475740f77ed3115437a62538d0a5636c5d8be3eaebfa93471ca7179c850164736f6c634300080b0033","bytecodeSha1":"793b59ce6672571d7a19d4dbaa8e679885b072fb","compiler":{"evm_version":"istanbul","optimizer":{"enabled":true,"runs":200},"version":"0.8.11+commit.d7f03943"},"contractName":"Repository","deployedBytecode":"608060405234801561001057600080fd5b50600436106103c55760003560e01c806381b2490b116101ff578063ad10a1351161011a578063c9c2a940116100ad578063e50d1b3e1161007c578063e50d1b3e14610bcd578063e855a31314610be0578063f2fde38b14610bf3578063f5dab71114610c06576103c5565b8063c9c2a94014610b81578063d47a7edd14610b94578063d4945d0e14610ba7578063dbf5f2fd14610bba576103c5565b8063bb7d88a9116100e9578063bb7d88a914610b35578063c33470d314610b48578063c452e6b614610b5b578063c5537eb714610b6e576103c5565b8063ad10a13514610acc578063af91558514610adf578063b305438314610b0f578063b72a4a7114610b22576103c5565b80639e9bb9c111610192578063a9d4632611610161578063a9d4632614610a80578063ababadb514610a93578063ac8a584a14610aa6578063ad0fc0cc14610ab9576103c5565b80639e9bb9c114610a34578063a663d4f514610a47578063a86eeb9114610a5a578063a9bf985814610a6d576103c5565b80638da5cb5b116101ce5780638da5cb5b146109d45780638eaa6ac0146109e557806395b5d58414610a0e5780639870d7fe14610a21576103c5565b806381b2490b1461099057806383350075146109a357806389765f59146109ae5780638d49d89b146109c1576103c5565b806338a699a4116102ef5780635b62cb70116102825780636d70f7ae116102515780636d70f7ae1461094d5780636f45768314610960578063715018a61461097557806375f890ab1461097d576103c5565b80635b62cb70146108ec57806361e99ffb146108ff578063657c7e091461091257806367c51dfc1461093a576103c5565b8063509ff69b116102be578063509ff69b146108a0578063552cdf98146108b35780635768bbb5146108c6578063589e6a98146108d9576103c5565b806338a699a4146108535780634329598c146107755780634635229b146108665780634f79b7921461088d576103c5565b806312cae67b116103675780631d7a3b72116103365780631d7a3b72146107e657806324ace672146107f95780632558a0791461080c57806327ee9dc214610833576103c5565b806312cae67b146107755780631627905514610795578063184bc906146107a857806318d54cf3146107d3576103c5565b8063036995df116103a3578063036995df1461070d57806307d610851461072e5780630ea94b9614610741578063120f6ee314610762576103c5565b806301ffc9a71461069a5780630221c7de146106c257806303565ea1146106ed575b6103cd610c19565b60405163825998c160e01b8152600d60048201526000356001600160e01b031916602482015273__$f71e59c5327218924d154e230469c101bd$__9063825998c190604401602060405180830381865af415801561042f573d6000803e3d6000fd5b505050506040513d601f19601f82011682018060405250810190610453919061390f565b5060005b600a5481101561069757336001600160a01b0316600a828154811061047e5761047e61392c565b6000918252602090912001546001600160a01b0316141561049e57610685565b6000600a82815481106104b3576104b361392c565b600091825260209182902001546040805163af640d0f60e01b815290516001600160a01b039092169263af640d0f926004808401938290030181865afa158015610501573d6000803e3d6000fd5b505050506040513d601f19601f820116820180604052508101906105259190613942565b905060016000828152600c602090815260408083206001600160e01b0319843516845290915290205460ff1660028111156105625761056261395b565b141561056e5750610685565b6000600a83815481106105835761058361392c565b60009182526020822001546040516001600160a01b03909116916105a8913690613971565b6000604051808303816000865af19150503d80600081146105e5576040519150601f19603f3d011682016040523d82523d6000602084013e6105ea565b606091505b50506000838152600c6020908152604080832083356001600160e01b03191684529091528120549192509060ff1660028111156106295761062961395b565b1415610682578061063b57600161063e565b60025b6000838152600c602090815260408083206001600160e01b031984351684529091529020805460ff1916600183600281111561067c5761067c61395b565b02179055505b50505b8061068f81613997565b915050610457565b50005b6106ad6106a83660046139ca565b610c9f565b60405190151581526020015b60405180910390f35b6106d56106d03660046139fa565b610ce5565b6040516001600160401b0390911681526020016106b9565b6107006106fb366004613a26565b610d12565b6040516106b99190613a3f565b61072061071b366004613a6e565b610da3565b6040519081526020016106b9565b6106ad61073c366004613a26565b610db0565b61075461074f366004613a26565b610dd9565b6040516106b9929190613a8b565b6106d5610770366004613a26565b610e34565b610788610783366004613a26565b610e86565b6040516106b99190613b00565b6106ad6107a3366004613a6e565b610f28565b6107bb6107b6366004613a26565b610fc7565b6040516001600160a01b0390911681526020016106b9565b6106ad6107e13660046139fa565b61101f565b6107886107f43660046139fa565b61103a565b610720610807366004613bbe565b611348565b6107207f000000000000000000000000000000000000000000000000000000000000000081565b610846610841366004613a26565b6114aa565b6040516106b99190613c06565b6106ad610861366004613a26565b611530565b6106ad7f000000000000000000000000000000000000000000000000000000000000000081565b61072061089b3660046139fa565b61153b565b6107206108ae3660046139fa565b61156e565b6106ad6108c13660046139fa565b6115b3565b6107206108d4366004613c4a565b6115e0565b6107206108e7366004613bbe565b61166f565b6106ad6108fa366004613a6e565b61167a565b61072061090d366004613c7a565b611685565b610925610920366004613a26565b6116cb565b604080519283526020830191909152016106b9565b6106ad6109483660046139fa565b61174d565b6106ad61095b366004613a6e565b611761565b61097361096e3660046139fa565b6117c3565b005b610973611c5f565b61097361098b366004613a6e565b611c71565b6106ad61099e3660046139fa565b611f4a565b60075460ff166106ad565b6106ad6109bc3660046139fa565b61207f565b6106d56109cf366004613a6e565b612093565b6000546001600160a01b03166107bb565b6107bb6109f3366004613a26565b6000908152600960205260409020546001600160a01b031690565b6106ad610a1c366004613a6e565b6120a0565b610973610a2f366004613a6e565b6120b3565b610788610a42366004613a26565b612143565b6106ad610a55366004613cb1565b6121ac565b610720610a683660046139fa565b6121d6565b610720610a7b366004613a26565b6121e2565b610788610a8e366004613a6e565b612234565b6106ad610aa13660046139fa565b612241565b610973610ab4366004613a6e565b612353565b6106ad610ac73660046139fa565b6123a2565b6106ad610ada3660046139fa565b6124c5565b610af2610aed366004613a26565b612503565b604080519283526001600160a01b039091166020830152016106b9565b610720610b1d366004613cf9565b612585565b610720610b303660046139fa565b612608565b610700610b433660046139fa565b612614565b6106ad610b56366004613d89565b61280c565b6106ad610b69366004613a6e565b6128a3565b6106ad610b7c366004613cb1565b6128b0565b610720610b8f3660046139fa565b6128cf565b6106ad610ba2366004613a26565b61297a565b6106ad610bb5366004613db5565b6129cc565b6106ad610bc8366004613a6e565b6129df565b610754610bdb366004613a26565b6129f2565b6106ad610bee3660046139fa565b6129fe565b610973610c01366004613a6e565b612a12565b610700610c14366004613a6e565b612a8b565b6000546001600160a01b0316331480610c365750610c3633610f28565b610c9d5760405162461bcd60e51b815260206004820152602d60248201527f416c6c6f77616e63653a2063616c6c6572206d757374206265205265706f736960448201526c1d1bdc9e4810dbdb9d1c9858dd609a1b60648201526084015b60405180910390fd5b565b60006001600160e01b031982166301ffc9a760e01b1480610cd057506305b62cb760e41b6001600160e01b03198316145b80610cdf5750610cdf82612ab3565b92915050565b60006001600160a01b038316610cfd57506001610cdf565b610d078383612614565b604001519392505050565b604080516060810182526000808252602082018190529181019190915260008051602061417f833981519152821415610d5057610cdf600080612614565b610d5982610db0565b610d815750506040805160608101825260111981526000602082018190529181019190915290565b600080610d8d84610dd9565b91509150610d9b8282612614565b949350505050565b6000610cdf826000612608565b600060008051602061417f833981519152821415610dd057506001919050565b610cdf82611530565b60008060008051602061417f833981519152831415610dfd57506000928392509050565b610e0683611530565b610e225760405162461bcd60e51b8152600401610c9490613dd2565b610e2b836129f2565b91509150915091565b600060008051602061417f833981519152821415610e5757610cdf600080610ce5565b610e6082610db0565b610e6c57506000919050565b600080610e7884610dd9565b91509150610d9b8282610ce5565b6000818152600860205260409020805460609190610ea390613e09565b80601f0160208091040260200160405190810160405280929190818152602001828054610ecf90613e09565b8015610f1c5780601f10610ef157610100808354040283529160200191610f1c565b820191906000526020600020905b815481529060010190602001808311610eff57829003601f168201915b50505050509050919050565b60006001600160a01b038216301415610f4357506001919050565b60405163f132566360e01b8152600a60048201526001600160a01b038316602482015273__$f71e59c5327218924d154e230469c101bd$__9063f1325663906044015b602060405180830381865af4158015610fa3573d6000803e3d6000fd5b505050506040513d601f19601f82011682018060405250810190610cdf919061390f565b600060008051602061417f833981519152821415610fe757506000919050565b610ff082611530565b61100c5760405162461bcd60e51b8152600401610c9490613dd2565b6000611017836129f2565b509392505050565b6000611029612ae9565b6110338383612b68565b9392505050565b60606001600160a01b03831661106a576040518060a001604052806075815260200161419f607591399050610cdf565b60006001600073__$669c6e0eba2465bd6779ea6ec5db3af1b5$__63d5f0b04d87876040518363ffffffff1660e01b81526004016110a9929190613a8b565b602060405180830381865af41580156110c6573d6000803e3d6000fd5b505050506040513d601f19601f820116820180604052508101906110ea9190613942565b8152602001908152602001600020805461110390613e09565b80601f016020809104026020016040519081016040528092919081815260200182805461112f90613e09565b801561117c5780601f106111515761010080835404028352916020019161117c565b820191906000526020600020905b81548152906001019060200180831161115f57829003601f168201915b5050604080516000815260208101808352815190209596506111a49450869350019050613e3e565b60405160208183030381529060405280519060200120146111c6579050610cdf565b8215611327576001600073__$669c6e0eba2465bd6779ea6ec5db3af1b5$__63d5f0b04d8760006040518363ffffffff1660e01b815260040161120a929190613a8b565b602060405180830381865af4158015611227573d6000803e3d6000fd5b505050506040513d601f19601f8201168201806040525081019061124b9190613942565b8152602001908152602001600020805461126490613e09565b80601f016020809104026020016040519081016040528092919081815260200182805461129090613e09565b80156112dd5780601f106112b2576101008083540402835291602001916112dd565b820191906000526020600020905b8154815290600101906020018083116112c057829003601f168201915b5050604080516000815260208101808352815190209596506113059450869350019050613e3e565b6040516020818303038152906040528051906020012014611327579050610cdf565b6040518060a00160405280606c8152602001614113606c9139949350505050565b8051602080830191909120600081815260089092526040909120805461136d90613e09565b1515905061139a576000818152600860209081526040909120835161139492850190613868565b50919050565b6000818152600860205260409020805461143c91906113b890613e09565b80601f01602080910402602001604051908101604052809291908181526020018280546113e490613e09565b80156114315780601f1061140657610100808354040283529160200191611431565b820191906000526020600020905b81548152906001019060200180831161141457829003601f168201915b505050505083612df5565b6114a55760405162461bcd60e51b815260206004820152603460248201527f4b656363616b496e766572746572204279746573206b656363616b2069736e7460448201527320756e697175652021212121212121212121212160601b6064820152608401610c94565b919050565b60606114b582610e86565b6040516355b04b0d60e11b815273__$669c6e0eba2465bd6779ea6ec5db3af1b5$__9163ab60961a916114eb9190600401613b00565b600060405180830381865af4158015611508573d6000803e3d6000fd5b505050506040513d6000823e601f3d908101601f19168201604052610cdf9190810190613e5a565b6000610cdf82612e87565b600061154783836128cf565b905061155281611530565b610cdf5760405162461bcd60e51b8152600401610c9490613dd2565b60006001600160a01b038316158015611585575081155b1561159f575060008051602061417f833981519152610cdf565b6115a983836117c3565b61103383836121d6565b60006001600160a01b0383166115cb57506000610cdf565b6115d58383612614565b602001519392505050565b6040516318f7a7c360e21b8152600481018390526001600160a01b03821660248201526000906110339073__$669c6e0eba2465bd6779ea6ec5db3af1b5$__906363de9f0c906044015b600060405180830381865af4158015611647573d6000803e3d6000fd5b505050506040513d6000823e601f3d908101601f19168201604052610b1d9190810190613e5a565b6000610cdf82611348565b6000610cdf82612ea9565b604051632291b3f160e21b815260048101839052602481018290526000906110339073__$669c6e0eba2465bd6779ea6ec5db3af1b5$__90638a46cfc49060440161162a565b6000806116d7836114aa565b60405163029695c360e21b815273__$669c6e0eba2465bd6779ea6ec5db3af1b5$__91630a5a570c9161170d9190600401613c06565b6040805180830381865af4158015611729573d6000803e3d6000fd5b505050506040513d601f19601f82011682018060405250810190610e2b9190613edf565b6000611757612ae9565b6110338383612f34565b60006001600160a01b03821630141561177c57506001919050565b60405163f132566360e01b8152600b60048201526001600160a01b038316602482015273__$f71e59c5327218924d154e230469c101bd$__9063f132566390604401610f86565b60008073__$669c6e0eba2465bd6779ea6ec5db3af1b5$__63d5f0b04d8560006040518363ffffffff1660e01b8152600401611800929190613a8b565b602060405180830381865af415801561181d573d6000803e3d6000fd5b505050506040513d601f19601f820116820180604052508101906118419190613942565b600081815260036020526040902080549093509091506201000090046001600160401b03166119d357604051634dd11f0f60e11b81526001600160a01b0385166004820152600060248201526001604482015273__$cc6df4ca04d157c820770f5225eff0121b$__90639ba23e1e90606401606060405180830381865af41580156118d0573d6000803e3d6000fd5b505050506040513d601f19601f820116820180604052508101906118f49190613f03565b6000828152600360209081526040918290208351815492850151948401516001600160401b0316620100000269ffffffffffffffff0000199515156101000261ffff1990941660ff90921691909117929092179390931617909155516316061a7160e21b815273__$f71e59c5327218924d154e230469c101bd$__9063581869c490611990906002908590600401918252602082015260400190565b602060405180830381865af41580156119ad573d6000803e3d6000fd5b505050506040513d601f19601f820116820180604052508101906119d1919061390f565b505b81546201000090046001600160401b03166119f0576119f0613f7b565b815462010000900461010016611a065750505050565b604080516060810182528354600081900b8252610100810460ff16151560208301526201000090046001600160401b031681830152905163d5f0b04d60e01b815273__$669c6e0eba2465bd6779ea6ec5db3af1b5$__9063d5f0b04d90611a739088908890600401613a8b565b602060405180830381865af4158015611a90573d6000803e3d6000fd5b505050506040513d601f19601f82011682018060405250810190611ab49190613942565b600081815260036020526040902080549094509092506201000090046001600160401b0316611c3b5760405163543af62760e01b815273__$cc6df4ca04d157c820770f5225eff0121b$__9063543af62790611b1b90889088908690600190600401613f91565b606060405180830381865af4158015611b38573d6000803e3d6000fd5b505050506040513d601f19601f82011682018060405250810190611b5c9190613f03565b6000838152600360209081526040918290208351815492850151948401516001600160401b0316620100000269ffffffffffffffff0000199515156101000261ffff1990941660ff90921691909117929092179390931617909155516316061a7160e21b815273__$f71e59c5327218924d154e230469c101bd$__9063581869c490611bf8906002908690600401918252602082015260400190565b602060405180830381865af4158015611c15573d6000803e3d6000fd5b505050506040513d601f19601f82011682018060405250810190611c39919061390f565b505b82546201000090046001600160401b0316611c5857611c58613f7b565b5050505050565b611c67613211565b610c9d600061326b565b611c79612ae9565b6040516301ffc9a760e01b81526315d3789560e31b60048201526001600160a01b038216906301ffc9a790602401602060405180830381865afa158015611cc4573d6000803e3d6000fd5b505050506040513d601f19601f82011682018060405250810190611ce8919061390f565b611d405760405162461bcd60e51b8152602060048201526024808201527f636f6e7472616374206d75737420626520495265706f7369746f7279436f6e746044820152631c9858dd60e21b6064820152608401610c94565b60005b600d54811015611e2957600c6000836001600160a01b031663af640d0f6040518163ffffffff1660e01b8152600401602060405180830381865afa158015611d8f573d6000803e3d6000fd5b505050506040513d601f19601f82011682018060405250810190611db39190613942565b81526020019081526020016000206000600d8381548110611dd657611dd661392c565b6000918252602080832060088304015460079092166004026101000a90910460e01b6001600160e01b03191683528201929092526040019020805460ff1916905580611e2181613997565b915050611d43565b506040516316f4b92960e21b8152600a60048201526001600160a01b038216602482015273__$f71e59c5327218924d154e230469c101bd$__90635bd2e4a490604401602060405180830381865af4158015611e89573d6000803e3d6000fd5b505050506040513d601f19601f82011682018060405250810190611ead919061390f565b508060096000836001600160a01b031663af640d0f6040518163ffffffff1660e01b8152600401602060405180830381865afa158015611ef1573d6000803e3d6000fd5b505050506040513d601f19601f82011682018060405250810190611f159190613942565b815260200190815260200160002060006101000a8154816001600160a01b0302191690836001600160a01b0316021790555050565b6004546000905b8015612075576001600160a01b0384166004611f6e600184613fe8565b81548110611f7e57611f7e61392c565b60009182526020909120600290910201546001600160a01b0316148015611fd357506004611fad600183613fe8565b81548110611fbd57611fbd61392c565b9060005260206000209060020201600101546000145b8061205457506001600160a01b0384166004611ff0600184613fe8565b815481106120005761200061392c565b60009182526020909120600290910201546001600160a01b03161480156120545750826004612030600184613fe8565b815481106120405761204061392c565b906000526020600020906002020160010154145b15612063576001915050610cdf565b8061206d81613fff565b915050611f51565b5060009392505050565b6000612089612ae9565b61103383836132bb565b6000610cdf826000610ce5565b60006120aa612ae9565b610cdf82613417565b6120bb612ae9565b6040516316f4b92960e21b8152600b60048201526001600160a01b038216602482015273__$f71e59c5327218924d154e230469c101bd$__90635bd2e4a4906044015b602060405180830381865af415801561211b573d6000803e3d6000fd5b505050506040513d601f19601f8201168201806040525081019061213f919061390f565b5050565b606060008051602061417f83398151915282141561216657610cdf60008061103a565b61216f82610db0565b612192576040518060a00160405280606c8152602001614113606c913992915050565b60008061219e84610dd9565b91509150610d9b828261103a565b6000816001600160401b031660ff6121c385610e34565b166001600160401b031614905092915050565b600061103383836134d5565b600060008051602061417f83398151915282141561220557610cdf600080612608565b61220e82610db0565b61221a57506001919050565b60008061222684610dd9565b91509150610d9b8282612608565b6060610cdf82600061103a565b600654600090815b8181101561234857846001600160a01b03166006828154811061226e5761226e61392c565b60009182526020909120600290910201546001600160a01b03161480156122b95750600681815481106122a3576122a361392c565b9060005260206000209060020201600101546000145b806123265750846001600160a01b0316600682815481106122dc576122dc61392c565b60009182526020909120600290910201546001600160a01b0316148015612326575083600682815481106123125761231261392c565b906000526020600020906002020160010154145b1561233657600192505050610cdf565b8061234081613997565b915050612249565b506000949350505050565b61235b612ae9565b60405163edefe12d60e01b8152600b60048201526001600160a01b038216602482015273__$f71e59c5327218924d154e230469c101bd$__9063edefe12d906044016120fe565b60006123af836000611f4a565b156123bc57506001610cdf565b81156123d9576123cc8383611f4a565b156123d957506001610cdf565b6000836001600160a01b031663373a7fb46040518163ffffffff1660e01b8152600401602060405180830381865afa158015612419573d6000803e3d6000fd5b505050506040513d601f19601f8201168201806040525081019061243d9190614016565b90506124488161167a565b612456576000915050610cdf565b604051632b43f03360e21b81526001600160a01b0382169063ad0fc0cc906124849087908790600401613a8b565b602060405180830381865afa1580156124a1573d6000803e3d6000fd5b505050506040513d601f19601f82011682018060405250810190610d9b919061390f565b60006124d18383612241565b156124de57506000610cdf565b6124e88383611f4a565b156124f557506001610cdf565b60075460ff16159392505050565b60008061250f836114aa565b604051639ac1b34560e01b815273__$669c6e0eba2465bd6779ea6ec5db3af1b5$__91639ac1b345916125459190600401613c06565b6040805180830381865af4158015612561573d6000803e3d6000fd5b505050506040513d601f19601f82011682018060405250810190610e2b9190614033565b604051632431a7cf60e01b8152600090610cdf9073__$669c6e0eba2465bd6779ea6ec5db3af1b5$__90632431a7cf906125c3908690600401613c06565b600060405180830381865af41580156125e0573d6000803e3d6000fd5b505050506040513d6000823e601f3d908101601f191682016040526108079190810190614058565b60006110338383613513565b60408051606081018252600080825260208201819052918101919091526001600160a01b038316612664575060408051606081018252601119815260006020820152600191810191909152610cdf565b6003600073__$669c6e0eba2465bd6779ea6ec5db3af1b5$__63d5f0b04d8660006040518363ffffffff1660e01b81526004016126a2929190613a8b565b602060405180830381865af41580156126bf573d6000803e3d6000fd5b505050506040513d601f19601f820116820180604052508101906126e39190613942565b815260208082019290925260409081016000908120825160608101845290549182900b815261010080830460ff16151594820194909452620100009091046001600160401b0381169282019290925292501661273e57610cdf565b6003600073__$669c6e0eba2465bd6779ea6ec5db3af1b5$__63d5f0b04d86866040518363ffffffff1660e01b815260040161277b929190613a8b565b602060405180830381865af4158015612798573d6000803e3d6000fd5b505050506040513d601f19601f820116820180604052508101906127bc9190613942565b815260208082019290925260409081016000908120825160608101845290549182900b8152610100820460ff161515938101939093526201000090046001600160401b0316908201529392505050565b600061281a836102006128b0565b61282657506000610cdf565b61282f83610fc7565b6040516301ffc9a760e01b81526001600160e01b0319841660048201526001600160a01b0391909116906301ffc9a790602401602060405180830381865afa15801561287f573d6000803e3d6000fd5b505050506040513d601f19601f82011682018060405250810190611033919061390f565b6000610cdf8260006115b3565b6000816128bc84610e34565b166001600160401b031615159392505050565b60006001600160a01b0383161580156128e6575081155b15612900575060008051602061417f833981519152610cdf565b60405163d5f0b04d60e01b815273__$669c6e0eba2465bd6779ea6ec5db3af1b5$__9063d5f0b04d906129399086908690600401613a8b565b602060405180830381865af4158015612956573d6000803e3d6000fd5b505050506040513d601f19601f820116820180604052508101906110339190613942565b600060008051602061417f83398151915282141561299d57610cdf6000806115b3565b6129a682610db0565b6129b257506000919050565b6000806129be84610dd9565b91509150610d9b82826115b3565b60006129d6612ae9565b610cdf8261356b565b60006129e9612ae9565b610cdf8261359d565b600080610e2b836136be565b6000612a08612ae9565b6110338383613740565b612a1a613211565b6001600160a01b038116612a7f5760405162461bcd60e51b815260206004820152602660248201527f4f776e61626c653a206e6577206f776e657220697320746865207a65726f206160448201526564647265737360d01b6064820152608401610c94565b612a888161326b565b50565b6040805160608101825260008082526020820181905291810191909152610cdf826000612614565b60006001600160e01b031982166301ffc9a760e01b1480610cdf57506001600160e01b03198216632b43f03360e21b1492915050565b6000546001600160a01b0316331480612b065750612b0633611761565b610c9d5760405162461bcd60e51b815260206004820152602d60248201527f416c6c6f77616e63653a2063616c6c6572206d757374206265205265706f736960448201526c3a37b93c9027b832b930ba37b960991b6064820152608401610c94565b600654600090815b81811015612c0257846001600160a01b031660068281548110612b9557612b9561392c565b60009182526020909120600290910201546001600160a01b0316148015612be0575060068181548110612bca57612bca61392c565b9060005260206000209060020201600101546000145b15612bf057600092505050610cdf565b80612bfa81613997565b915050612b70565b5082612cc25760001981015b81811015612cbc57846001600160a01b031660068281548110612c3357612c3361392c565b60009182526020909120600290910201546001600160a01b03161415612cb357612cb160068281548110612c6957612c6961392c565b6000918252602090912060029091020154600680546001600160a01b039092169184908110612c9a57612c9a61392c565b906000526020600020906002020160010154613740565b505b60001901612c0e565b50612d58565b60005b81811015612d5657846001600160a01b031660068281548110612cea57612cea61392c565b60009182526020909120600290910201546001600160a01b0316148015612d3457508360068281548110612d2057612d2061392c565b906000526020600020906002020160010154145b15612d4457600092505050610cdf565b80612d4e81613997565b915050612cc5565b505b604080518082019091526001600160a01b038581168252602082018581526006805460018101825560009190915292517ff652222313e28459528d920b65115c16c04f3efc82aaedc97be59f3f377c0d3f600290940293840180546001600160a01b0319169190931617909155517ff652222313e28459528d920b65115c16c04f3efc82aaedc97be59f3f377c0d40909101555060019392505050565b60008151835114612e0857506000610cdf565b60005b8351811015612e7d57828181518110612e2657612e2661392c565b602001015160f81c60f81b6001600160f81b031916848281518110612e4d57612e4d61392c565b01602001516001600160f81b03191614612e6b576000915050610cdf565b80612e7581613997565b915050612e0b565b5060019392505050565b60008181526008602052604081208054612ea090613e09565b15159392505050565b60006001600160a01b038216301415612ec457506001919050565b6005545b8015612f2b576001600160a01b0383166005612ee5600184613fe8565b81548110612ef557612ef561392c565b6000918252602090912001546001600160a01b03161415612f195750600192915050565b80612f2381613fff565b915050612ec8565b50600092915050565b6004546000905b8015612fde576001600160a01b0384166004612f58600184613fe8565b81548110612f6857612f6861392c565b60009182526020909120600290910201546001600160a01b0316148015612fbd57506004612f97600183613fe8565b81548110612fa757612fa761392c565b9060005260206000209060020201600101546000145b15612fcc576000915050610cdf565b80612fd681613fff565b915050612f3b565b50816130cd575b6004545b80156130bc576001600160a01b0384166004613006600184613fe8565b815481106130165761301661392c565b60009182526020909120600290910201546001600160a01b031614156130aa576130a46004613046600184613fe8565b815481106130565761305661392c565b60009182526020909120600290910201546001600160a01b0316600461307d600185613fe8565b8154811061308d5761308d61392c565b9060005260206000209060020201600101546132bb565b506130bc565b806130b481613fff565b915050612fe9565b806130c75750613175565b50612fe5565b6004545b8015613173576001600160a01b03841660046130ee600184613fe8565b815481106130fe576130fe61392c565b60009182526020909120600290910201546001600160a01b0316148015613152575082600461312e600184613fe8565b8154811061313e5761313e61392c565b906000526020600020906002020160010154145b15613161576000915050610cdf565b8061316b81613fff565b9150506130d1565b505b604080518082019091526001600160a01b038481168252602082018481526004805460018101825560009190915292517f8a35acfbc15ff81a39ae7d344fd709f28e8600b4aa8c65c6b64bfe7fe36bd19b600290940293840180546001600160a01b0319169190931617909155517f8a35acfbc15ff81a39ae7d344fd709f28e8600b4aa8c65c6b64bfe7fe36bd19c9091015550600192915050565b6000546001600160a01b03163314610c9d5760405162461bcd60e51b815260206004820152601f60248201527f416c6c6f77616e63653a2063616c6c6572206d757374206265204f776e6572006044820152606401610c94565b600080546001600160a01b038381166001600160a01b0319831681178455604051919092169283917f8be0079c531659141344cd1fd0a4f28419497f9722a3daafe3b4186f6b6457e09190a35050565b600454600090815b8181101561234857846001600160a01b0316600482815481106132e8576132e861392c565b60009182526020909120600290910201546001600160a01b03161480156133325750836004828154811061331e5761331e61392c565b906000526020600020906002020160010154145b1561340557613342600183613fe8565b8110156133c0576004613356600184613fe8565b815481106133665761336661392c565b9060005260206000209060020201600482815481106133875761338761392c565b60009182526020909120825460029092020180546001600160a01b0319166001600160a01b039092169190911781556001918201549101555b60048054806133d1576133d16140ce565b60008281526020812060026000199093019283020180546001600160a01b0319168155600101559055600192505050610cdf565b8061340f81613997565b9150506132c3565b6005546000905b8015613481576001600160a01b038316600561343b600184613fe8565b8154811061344b5761344b61392c565b6000918252602090912001546001600160a01b0316141561346f5750600092915050565b8061347981613fff565b91505061341e565b600580546001810182556000919091527f036b6384b5eca791c62761152d0c79bb0604c104a5fb6f4eb0703f3154bb3db00180546001600160a01b0319166001600160a01b03851617905550600192915050565b600061103373__$669c6e0eba2465bd6779ea6ec5db3af1b5$__630de874ed85856040518363ffffffff1660e01b815260040161162a929190613a8b565b60006001600160a01b03831661352b57506001610cdf565b73__$cc6df4ca04d157c820770f5225eff0121b$__633646b54861354f8585612614565b6040518263ffffffff1660e01b81526004016129399190613a3f565b60075460009060ff161515821515141561358757506000919050565b6007805460ff1916831515179055506001919050565b600554600090815b8181101561207557836001600160a01b0316600582815481106135ca576135ca61392c565b6000918252602090912001546001600160a01b031614156136ac576135f0600183613fe8565b81101561366f576005613604600184613fe8565b815481106136145761361461392c565b600091825260209091200154600580546001600160a01b0390921691839081106136405761364061392c565b9060005260206000200160006101000a8154816001600160a01b0302191690836001600160a01b031602179055505b6005805480613680576136806140ce565b600082815260209020810160001990810180546001600160a01b03191690550190555060019392505050565b806136b681613997565b9150506135a5565b6000806136ca836114aa565b6040516314130a7960e31b815273__$669c6e0eba2465bd6779ea6ec5db3af1b5$__9163a09853c8916137009190600401613c06565b6040805180830381865af415801561371c573d6000803e3d6000fd5b505050506040513d601f19601f82011682018060405250810190610e2b91906140e4565b600654600090815b8181101561234857846001600160a01b03166006828154811061376d5761376d61392c565b60009182526020909120600290910201546001600160a01b03161480156137b7575083600682815481106137a3576137a361392c565b906000526020600020906002020160010154145b15613856576137c7600183613fe8565b8110156138455760066137db600184613fe8565b815481106137eb576137eb61392c565b90600052602060002090600202016006828154811061380c5761380c61392c565b60009182526020909120825460029092020180546001600160a01b0319166001600160a01b039092169190911781556001918201549101555b60068054806133d1576133d16140ce565b8061386081613997565b915050613748565b82805461387490613e09565b90600052602060002090601f01602090048101928261389657600085556138dc565b82601f106138af57805160ff19168380011785556138dc565b828001600101855582156138dc579182015b828111156138dc5782518255916020019190600101906138c1565b506138e89291506138ec565b5090565b5b808211156138e857600081556001016138ed565b8015158114612a8857600080fd5b60006020828403121561392157600080fd5b815161103381613901565b634e487b7160e01b600052603260045260246000fd5b60006020828403121561395457600080fd5b5051919050565b634e487b7160e01b600052602160045260246000fd5b8183823760009101908152919050565b634e487b7160e01b600052601160045260246000fd5b60006000198214156139ab576139ab613981565b5060010190565b80356001600160e01b0319811681146114a557600080fd5b6000602082840312156139dc57600080fd5b611033826139b2565b6001600160a01b0381168114612a8857600080fd5b60008060408385031215613a0d57600080fd5b8235613a18816139e5565b946020939093013593505050565b600060208284031215613a3857600080fd5b5035919050565b815160000b81526020808301511515908201526040808301516001600160401b03169082015260608101610cdf565b600060208284031215613a8057600080fd5b8135611033816139e5565b6001600160a01b03929092168252602082015260400190565b60005b83811015613abf578181015183820152602001613aa7565b83811115613ace576000848401525b50505050565b60008151808452613aec816020860160208601613aa4565b601f01601f19169290920160200192915050565b6020815260006110336020830184613ad4565b634e487b7160e01b600052604160045260246000fd5b604051601f8201601f191681016001600160401b0381118282101715613b5157613b51613b13565b604052919050565b60006001600160401b03821115613b7257613b72613b13565b50601f01601f191660200190565b6000613b93613b8e84613b59565b613b29565b9050828152838383011115613ba757600080fd5b828260208301376000602084830101529392505050565b600060208284031215613bd057600080fd5b81356001600160401b03811115613be657600080fd5b8201601f81018413613bf757600080fd5b610d9b84823560208401613b80565b6020808252825182820181905260009190848201906040850190845b81811015613c3e57835183529284019291840191600101613c22565b50909695505050505050565b60008060408385031215613c5d57600080fd5b823591506020830135613c6f816139e5565b809150509250929050565b60008060408385031215613c8d57600080fd5b50508035926020909101359150565b6001600160401b0381168114612a8857600080fd5b60008060408385031215613cc457600080fd5b823591506020830135613c6f81613c9c565b60006001600160401b03821115613cef57613cef613b13565b5060051b60200190565b60006020808385031215613d0c57600080fd5b82356001600160401b03811115613d2257600080fd5b8301601f81018513613d3357600080fd5b8035613d41613b8e82613cd6565b81815260059190911b82018301908381019087831115613d6057600080fd5b928401925b82841015613d7e57833582529284019290840190613d65565b979650505050505050565b60008060408385031215613d9c57600080fd5b82359150613dac602084016139b2565b90509250929050565b600060208284031215613dc757600080fd5b813561103381613901565b60208082526017908201527f43757272656e6379206e6f742072656769737465726564000000000000000000604082015260600190565b600181811c90821680613e1d57607f821691505b6020821081141561139457634e487b7160e01b600052602260045260246000fd5b60008251613e50818460208701613aa4565b9190910192915050565b60006020808385031215613e6d57600080fd5b82516001600160401b03811115613e8357600080fd5b8301601f81018513613e9457600080fd5b8051613ea2613b8e82613cd6565b81815260059190911b82018301908381019087831115613ec157600080fd5b928401925b82841015613d7e57835182529284019290840190613ec6565b60008060408385031215613ef257600080fd5b505080516020909101519092909150565b600060608284031215613f1557600080fd5b604051606081018181106001600160401b0382111715613f3757613f37613b13565b6040528251600081900b8114613f4c57600080fd5b81526020830151613f5c81613901565b60208201526040830151613f6f81613c9c565b60408201529392505050565b634e487b7160e01b600052600160045260246000fd5b6001600160a01b03851681526020810184905260c08101613fd76040830185805160000b82526020808201511515908301526040908101516001600160401b0316910152565b82151560a083015295945050505050565b600082821015613ffa57613ffa613981565b500390565b60008161400e5761400e613981565b506000190190565b60006020828403121561402857600080fd5b8151611033816139e5565b6000806040838503121561404657600080fd5b825191506020830151613c6f816139e5565b60006020828403121561406a57600080fd5b81516001600160401b0381111561408057600080fd5b8201601f8101841361409157600080fd5b805161409f613b8e82613b59565b8181528560208385010111156140b457600080fd5b6140c5826020830160208601613aa4565b95945050505050565b634e487b7160e01b600052603160045260246000fd5b600080604083850312156140f757600080fd5b8251614102816139e5565b602093909301519294929350505056fe68747470733a2f2f6769746875622e636f6d2f5061747269636b416c706861432f646566692d7374616b652d7969656c642d62726f776e69652d66726565636f64652f626c6f622f6d61696e2f66726f6e745f656e642f7372632f646170702e706e673f7261773d74727565ad3228b676f7d3cd4284a5443f17f1962b36e491b30a40b2405849e597ba5fb568747470733a2f2f7261772e67697468756275736572636f6e74656e742e636f6d2f5061747269636b416c706861432f646566692d7374616b652d7969656c642d62726f776e69652d66726565636f64652f6d61696e2f66726f6e745f656e642f7372632f6574682e706e673f7261773d74727565a2646970667358221220875e475740f77ed3115437a62538d0a5636c5d8be3eaebfa93471ca7179c850164736f6c634300080b0033","language":"Solidity","natspec":{"kind":"dev","methods":{"ownerOf()":{"details":"Returns the address of the current owner."},"renounceOwnership()":{"details":"Leaves the contract without owner. It will not be possible to call `onlyOwner` functions anymore. Can only be called by the current owner. NOTE: Renouncing ownership will leave the contract without an owner, thereby removing any functionality that is only available to the owner."},"transferOwnership(address)":{"details":"Transfers ownership of the contract to a new account (`newOwner`). Can only be called by the current owner."}},"version":1},"opcodes":"PUSH1 0x80 PUSH1 0x40 MSTORE CALLVALUE DUP1 ISZERO PUSH2 0x10 JUMPI PUSH1 0x0 DUP1 REVERT JUMPDEST POP PUSH1 0x4 CALLDATASIZE LT PUSH2 0x3C5 JUMPI PUSH1 0x0 CALLDATALOAD PUSH1 0xE0 SHR DUP1 PUSH4 0x81B2490B GT PUSH2 0x1FF JUMPI DUP1 PUSH4 0xAD10A135 GT PUSH2 0x11A JUMPI DUP1 PUSH4 0xC9C2A940 GT PUSH2 0xAD JUMPI DUP1 PUSH4 0xE50D1B3E GT PUSH2 0x7C JUMPI DUP1 PUSH4 0xE50D1B3E EQ PUSH2 0xBCD JUMPI DUP1 PUSH4 0xE855A313 EQ PUSH2 0xBE0 JUMPI DUP1 PUSH4 0xF2FDE38B EQ PUSH2 0xBF3 JUMPI DUP1 PUSH4 0xF5DAB711 EQ PUSH2 0xC06 JUMPI PUSH2 0x3C5 JUMP JUMPDEST DUP1 PUSH4 0xC9C2A940 EQ PUSH2 0xB81 JUMPI DUP1 PUSH4 0xD47A7EDD EQ PUSH2 0xB94 JUMPI DUP1 PUSH4 0xD4945D0E EQ PUSH2 0xBA7 JUMPI DUP1 PUSH4 0xDBF5F2FD EQ PUSH2 0xBBA JUMPI PUSH2 0x3C5 JUMP JUMPDEST DUP1 PUSH4 0xBB7D88A9 GT PUSH2 0xE9 JUMPI DUP1 PUSH4 0xBB7D88A9 EQ PUSH2 0xB35 JUMPI DUP1 PUSH4 0xC33470D3 EQ PUSH2 0xB48 JUMPI DUP1 PUSH4 0xC452E6B6 EQ PUSH2 0xB5B JUMPI DUP1 PUSH4 0xC5537EB7 EQ PUSH2 0xB6E JUMPI PUSH2 0x3C5 JUMP JUMPDEST DUP1 PUSH4 0xAD10A135 EQ PUSH2 0xACC JUMPI DUP1 PUSH4 0xAF915585 EQ PUSH2 0xADF JUMPI DUP1 PUSH4 0xB3054383 EQ PUSH2 0xB0F JUMPI DUP1 PUSH4 0xB72A4A71 EQ PUSH2 0xB22 JUMPI PUSH2 0x3C5 JUMP JUMPDEST DUP1 PUSH4 0x9E9BB9C1 GT PUSH2 0x192 JUMPI DUP1 PUSH4 0xA9D46326 GT PUSH2 0x161 JUMPI DUP1 PUSH4 0xA9D46326 EQ PUSH2 0xA80 JUMPI DUP1 PUSH4 0xABABADB5 EQ PUSH2 0xA93 JUMPI DUP1 PUSH4 0xAC8A584A EQ PUSH2 0xAA6 JUMPI DUP1 PUSH4 0xAD0FC0CC EQ PUSH2 0xAB9 JUMPI PUSH2 0x3C5 JUMP JUMPDEST DUP1 PUSH4 0x9E9BB9C1 EQ PUSH2 0xA34 JUMPI DUP1 PUSH4 0xA663D4F5 EQ PUSH2 0xA47 JUMPI DUP1 PUSH4 0xA86EEB91 EQ PUSH2 0xA5A JUMPI DUP1 PUSH4 0xA9BF9858 EQ PUSH2 0xA6D JUMPI PUSH2 0x3C5 JUMP JUMPDEST DUP1 PUSH4 0x8DA5CB5B GT PUSH2 0x1CE JUMPI DUP1 PUSH4 0x8DA5CB5B EQ PUSH2 0x9D4 JUMPI DUP1 PUSH4 0x8EAA6AC0 EQ PUSH2 0x9E5 JUMPI DUP1 PUSH4 0x95B5D584 EQ PUSH2 0xA0E JUMPI DUP1 PUSH4 0x9870D7FE EQ PUSH2 0xA21 JUMPI PUSH2 0x3C5 JUMP JUMPDEST DUP1 PUSH4 0x81B2490B EQ PUSH2 0x990 JUMPI DUP1 PUSH4 0x83350075 EQ PUSH2 0x9A3 JUMPI DUP1 PUSH4 0x89765F59 EQ PUSH2 0x9AE JUMPI DUP1 PUSH4 0x8D49D89B EQ PUSH2 0x9C1 JUMPI PUSH2 0x3C5 JUMP JUMPDEST DUP1 PUSH4 0x38A699A4 GT PUSH2 0x2EF JUMPI DUP1 PUSH4 0x5B62CB70 GT PUSH2 0x282 JUMPI DUP1 PUSH4 0x6D70F7AE GT PUSH2 0x251 JUMPI DUP1 PUSH4 0x6D70F7AE EQ PUSH2 0x94D JUMPI DUP1 PUSH4 0x6F457683 EQ PUSH2 0x960 JUMPI DUP1 PUSH4 0x715018A6 EQ PUSH2 0x975 JUMPI DUP1 PUSH4 0x75F890AB EQ PUSH2 0x97D JUMPI PUSH2 0x3C5 JUMP JUMPDEST DUP1 PUSH4 0x5B62CB70 EQ PUSH2 0x8EC JUMPI DUP1 PUSH4 0x61E99FFB EQ PUSH2 0x8FF JUMPI DUP1 PUSH4 0x657C7E09 EQ PUSH2 0x912 JUMPI DUP1 PUSH4 0x67C51DFC EQ PUSH2 0x93A JUMPI PUSH2 0x3C5 JUMP JUMPDEST DUP1 PUSH4 0x509FF69B GT PUSH2 0x2BE JUMPI DUP1 PUSH4 0x509FF69B EQ PUSH2 0x8A0 JUMPI DUP1 PUSH4 0x552CDF98 EQ PUSH2 0x8B3 JUMPI DUP1 PUSH4 0x5768BBB5 EQ PUSH2 0x8C6 JUMPI DUP1 PUSH4 0x589E6A98 EQ PUSH2 0x8D9 JUMPI PUSH2 0x3C5 JUMP JUMPDEST DUP1 PUSH4 0x38A699A4 EQ PUSH2 0x853 JUMPI DUP1 PUSH4 0x4329598C EQ PUSH2 0x775 JUMPI DUP1 PUSH4 0x4635229B EQ PUSH2 0x866 JUMPI DUP1 PUSH4 0x4F79B792 EQ PUSH2 0x88D JUMPI PUSH2 0x3C5 JUMP JUMPDEST DUP1 PUSH4 0x12CAE67B GT PUSH2 0x367 JUMPI DUP1 PUSH4 0x1D7A3B72 GT PUSH2 0x336 JUMPI DUP1 PUSH4 0x1D7A3B72 EQ PUSH2 0x7E6 JUMPI DUP1 PUSH4 0x24ACE672 EQ PUSH2 0x7F9 JUMPI DUP1 PUSH4 0x2558A079 EQ PUSH2 0x80C JUMPI DUP1 PUSH4 0x27EE9DC2 EQ PUSH2 0x833 JUMPI PUSH2 0x3C5 JUMP JUMPDEST DUP1 PUSH4 0x12CAE67B EQ PUSH2 0x775 JUMPI DUP1 PUSH4 0x16279055 EQ PUSH2 0x795 JUMPI DUP1 PUSH4 0x184BC906 EQ PUSH2 0x7A8 JUMPI DUP1 PUSH4 0x18D54CF3 EQ PUSH2 0x7D3 JUMPI PUSH2 0x3C5 JUMP JUMPDEST DUP1 PUSH4 0x36995DF GT PUSH2 0x3A3 JUMPI DUP1 PUSH4 0x36995DF EQ PUSH2 0x70D JUMPI DUP1 PUSH4 0x7D61085 EQ PUSH2 0x72E JUMPI DUP1 PUSH4 0xEA94B96 EQ PUSH2 0x741 JUMPI DUP1 PUSH4 0x120F6EE3 EQ PUSH2 0x762 JUMPI PUSH2 0x3C5 JUMP JUMPDEST DUP1 PUSH4 0x1FFC9A7 EQ PUSH2 0x69A JUMPI DUP1 PUSH4 0x221C7DE EQ PUSH2 0x6C2 JUMPI DUP1 PUSH4 0x3565EA1 EQ PUSH2 0x6ED JUMPI JUMPDEST PUSH2 0x3CD PUSH2 0xC19 JUMP JUMPDEST PUSH1 0x40 MLOAD PUSH4 0x825998C1 PUSH1 0xE0 SHL DUP2 MSTORE PUSH1 0xD PUSH1 0x4 DUP3 ADD MSTORE PUSH1 0x0 CALLDATALOAD PUSH1 0x1 PUSH1 0x1 PUSH1 0xE0 SHL SUB NOT AND PUSH1 0x24 DUP3 ADD MSTORE PUSH20 0x0 SWAP1 PUSH4 0x825998C1 SWAP1 PUSH1 0x44 ADD PUSH1 0x20 PUSH1 0x40 MLOAD DUP1 DUP4 SUB DUP2 DUP7 GAS DELEGATECALL ISZERO DUP1 ISZERO PUSH2 0x42F JUMPI RETURNDATASIZE PUSH1 0x0 DUP1 RETURNDATACOPY RETURNDATASIZE PUSH1 0x0 REVERT JUMPDEST POP POP POP POP PUSH1 0x40 MLOAD RETURNDATASIZE PUSH1 0x1F NOT PUSH1 0x1F DUP3 ADD AND DUP3 ADD DUP1 PUSH1 0x40 MSTORE POP DUP2 ADD SWAP1 PUSH2 0x453 SWAP2 SWAP1 PUSH2 0x390F JUMP JUMPDEST POP PUSH1 0x0 JUMPDEST PUSH1 0xA SLOAD DUP2 LT ISZERO PUSH2 0x697 JUMPI CALLER PUSH1 0x1 PUSH1 0x1 PUSH1 0xA0 SHL SUB AND PUSH1 0xA DUP3 DUP2 SLOAD DUP2 LT PUSH2 0x47E JUMPI PUSH2 0x47E PUSH2 0x392C JUMP JUMPDEST PUSH1 0x0 SWAP2 DUP3 MSTORE PUSH1 0x20 SWAP1 SWAP2 KECCAK256 ADD SLOAD PUSH1 0x1 PUSH1 0x1 PUSH1 0xA0 SHL SUB AND EQ ISZERO PUSH2 0x49E JUMPI PUSH2 0x685 JUMP JUMPDEST PUSH1 0x0 PUSH1 0xA DUP3 DUP2 SLOAD DUP2 LT PUSH2 0x4B3 JUMPI PUSH2 0x4B3 PUSH2 0x392C JUMP JUMPDEST PUSH1 0x0 SWAP2 DUP3 MSTORE PUSH1 0x20 SWAP2 DUP3 SWAP1 KECCAK256 ADD SLOAD PUSH1 0x40 DUP1 MLOAD PUSH4 0xAF640D0F PUSH1 0xE0 SHL DUP2 MSTORE SWAP1 MLOAD PUSH1 0x1 PUSH1 0x1 PUSH1 0xA0 SHL SUB SWAP1 SWAP3 AND SWAP3 PUSH4 0xAF640D0F SWAP3 PUSH1 0x4 DUP1 DUP5 ADD SWAP4 DUP3 SWAP1 SUB ADD DUP2 DUP7 GAS STATICCALL ISZERO DUP1 ISZERO PUSH2 0x501 JUMPI RETURNDATASIZE PUSH1 0x0 DUP1 RETURNDATACOPY RETURNDATASIZE PUSH1 0x0 REVERT JUMPDEST POP POP POP POP PUSH1 0x40 MLOAD RETURNDATASIZE PUSH1 0x1F NOT PUSH1 0x1F DUP3 ADD AND DUP3 ADD DUP1 PUSH1 0x40 MSTORE POP DUP2 ADD SWAP1 PUSH2 0x525 SWAP2 SWAP1 PUSH2 0x3942 JUMP JUMPDEST SWAP1 POP PUSH1 0x1 PUSH1 0x0 DUP3 DUP2 MSTORE PUSH1 0xC PUSH1 0x20 SWAP1 DUP2 MSTORE PUSH1 0x40 DUP1 DUP4 KECCAK256 PUSH1 0x1 PUSH1 0x1 PUSH1 0xE0 SHL SUB NOT DUP5 CALLDATALOAD AND DUP5 MSTORE SWAP1 SWAP2 MSTORE SWAP1 KECCAK256 SLOAD PUSH1 0xFF AND PUSH1 0x2 DUP2 GT ISZERO PUSH2 0x562 JUMPI PUSH2 0x562 PUSH2 0x395B JUMP JUMPDEST EQ ISZERO PUSH2 0x56E JUMPI POP PUSH2 0x685 JUMP JUMPDEST PUSH1 0x0 PUSH1 0xA DUP4 DUP2 SLOAD DUP2 LT PUSH2 0x583 JUMPI PUSH2 0x583 PUSH2 0x392C JUMP JUMPDEST PUSH1 0x0 SWAP2 DUP3 MSTORE PUSH1 0x20 DUP3 KECCAK256 ADD SLOAD PUSH1 0x40 MLOAD PUSH1 0x1 PUSH1 0x1 PUSH1 0xA0 SHL SUB SWAP1 SWAP2 AND SWAP2 PUSH2 0x5A8 SWAP2 CALLDATASIZE SWAP1 PUSH2 0x3971 JUMP JUMPDEST PUSH1 0x0 PUSH1 0x40 MLOAD DUP1 DUP4 SUB DUP2 PUSH1 0x0 DUP7 GAS CALL SWAP2 POP POP RETURNDATASIZE DUP1 PUSH1 0x0 DUP2 EQ PUSH2 0x5E5 JUMPI PUSH1 0x40 MLOAD SWAP2 POP PUSH1 0x1F NOT PUSH1 0x3F RETURNDATASIZE ADD AND DUP3 ADD PUSH1 0x40 MSTORE RETURNDATASIZE DUP3 MSTORE RETURNDATASIZE PUSH1 0x0 PUSH1 0x20 DUP5 ADD RETURNDATACOPY PUSH2 0x5EA JUMP JUMPDEST PUSH1 0x60 SWAP2 POP JUMPDEST POP POP PUSH1 0x0 DUP4 DUP2 MSTORE PUSH1 0xC PUSH1 0x20 SWAP1 DUP2 MSTORE PUSH1 0x40 DUP1 DUP4 KECCAK256 DUP4 CALLDATALOAD PUSH1 0x1 PUSH1 0x1 PUSH1 0xE0 SHL SUB NOT AND DUP5 MSTORE SWAP1 SWAP2 MSTORE DUP2 KECCAK256 SLOAD SWAP2 SWAP3 POP SWAP1 PUSH1 0xFF AND PUSH1 0x2 DUP2 GT ISZERO PUSH2 0x629 JUMPI PUSH2 0x629 PUSH2 0x395B JUMP JUMPDEST EQ ISZERO PUSH2 0x682 JUMPI DUP1 PUSH2 0x63B JUMPI PUSH1 0x1 PUSH2 0x63E JUMP JUMPDEST PUSH1 0x2 JUMPDEST PUSH1 0x0 DUP4 DUP2 MSTORE PUSH1 0xC PUSH1 0x20 SWAP1 DUP2 MSTORE PUSH1 0x40 DUP1 DUP4 KECCAK256 PUSH1 0x1 PUSH1 0x1 PUSH1 0xE0 SHL SUB NOT DUP5 CALLDATALOAD AND DUP5 MSTORE SWAP1 SWAP2 MSTORE SWAP1 KECCAK256 DUP1 SLOAD PUSH1 0xFF NOT AND PUSH1 0x1 DUP4 PUSH1 0x2 DUP2 GT ISZERO PUSH2 0x67C JUMPI PUSH2 0x67C PUSH2 0x395B JUMP JUMPDEST MUL OR SWAP1 SSTORE POP JUMPDEST POP POP JUMPDEST DUP1 PUSH2 0x68F DUP2 PUSH2 0x3997 JUMP JUMPDEST SWAP2 POP POP PUSH2 0x457 JUMP JUMPDEST POP STOP JUMPDEST PUSH2 0x6AD PUSH2 0x6A8 CALLDATASIZE PUSH1 0x4 PUSH2 0x39CA JUMP JUMPDEST PUSH2 0xC9F JUMP JUMPDEST PUSH1 0x40 MLOAD SWAP1 ISZERO ISZERO DUP2 MSTORE PUSH1 0x20 ADD JUMPDEST PUSH1 0x40 MLOAD DUP1 SWAP2 SUB SWAP1 RETURN JUMPDEST PUSH2 0x6D5 PUSH2 0x6D0 CALLDATASIZE PUSH1 0x4 PUSH2 0x39FA JUMP JUMPDEST PUSH2 0xCE5 JUMP JUMPDEST PUSH1 0x40 MLOAD PUSH1 0x1 PUSH1 0x1 PUSH1 0x40 SHL SUB SWAP1 SWAP2 AND DUP2 MSTORE PUSH1 0x20 ADD PUSH2 0x6B9 JUMP JUMPDEST PUSH2 0x700 PUSH2 0x6FB CALLDATASIZE PUSH1 0x4 PUSH2 0x3A26 JUMP JUMPDEST PUSH2 0xD12 JUMP JUMPDEST PUSH1 0x40 MLOAD PUSH2 0x6B9 SWAP2 SWAP1 PUSH2 0x3A3F JUMP JUMPDEST PUSH2 0x720 PUSH2 0x71B CALLDATASIZE PUSH1 0x4 PUSH2 0x3A6E JUMP JUMPDEST PUSH2 0xDA3 JUMP JUMPDEST PUSH1 0x40 MLOAD SWAP1 DUP2 MSTORE PUSH1 0x20 ADD PUSH2 0x6B9 JUMP JUMPDEST PUSH2 0x6AD PUSH2 0x73C CALLDATASIZE PUSH1 0x4 PUSH2 0x3A26 JUMP JUMPDEST PUSH2 0xDB0 JUMP JUMPDEST PUSH2 0x754 PUSH2 0x74F CALLDATASIZE PUSH1 0x4 PUSH2 0x3A26 JUMP JUMPDEST PUSH2 0xDD9 JUMP JUMPDEST PUSH1 0x40 MLOAD PUSH2 0x6B9 SWAP3 SWAP2 SWAP1 PUSH2 0x3A8B JUMP JUMPDEST PUSH2 0x6D5 PUSH2 0x770 CALLDATASIZE PUSH1 0x4 PUSH2 0x3A26 JUMP JUMPDEST PUSH2 0xE34 JUMP JUMPDEST PUSH2 0x788 PUSH2 0x783 CALLDATASIZE PUSH1 0x4 PUSH2 0x3A26 JUMP JUMPDEST PUSH2 0xE86 JUMP JUMPDEST PUSH1 0x40 MLOAD PUSH2 0x6B9 SWAP2 SWAP1 PUSH2 0x3B00 JUMP JUMPDEST PUSH2 0x6AD PUSH2 0x7A3 CALLDATASIZE PUSH1 0x4 PUSH2 0x3A6E JUMP JUMPDEST PUSH2 0xF28 JUMP JUMPDEST PUSH2 0x7BB PUSH2 0x7B6 CALLDATASIZE PUSH1 0x4 PUSH2 0x3A26 JUMP JUMPDEST PUSH2 0xFC7 JUMP JUMPDEST PUSH1 0x40 MLOAD PUSH1 0x1 PUSH1 0x1 PUSH1 0xA0 SHL SUB SWAP1 SWAP2 AND DUP2 MSTORE PUSH1 0x20 ADD PUSH2 0x6B9 JUMP JUMPDEST PUSH2 0x6AD PUSH2 0x7E1 CALLDATASIZE PUSH1 0x4 PUSH2 0x39FA JUMP JUMPDEST PUSH2 0x101F JUMP JUMPDEST PUSH2 0x788 PUSH2 0x7F4 CALLDATASIZE PUSH1 0x4 PUSH2 0x39FA JUMP JUMPDEST PUSH2 0x103A JUMP JUMPDEST PUSH2 0x720 PUSH2 0x807 CALLDATASIZE PUSH1 0x4 PUSH2 0x3BBE JUMP JUMPDEST PUSH2 0x1348 JUMP JUMPDEST PUSH2 0x720 PUSH32 0x0 DUP2 JUMP JUMPDEST PUSH2 0x846 PUSH2 0x841 CALLDATASIZE PUSH1 0x4 PUSH2 0x3A26 JUMP JUMPDEST PUSH2 0x14AA JUMP JUMPDEST PUSH1 0x40 MLOAD PUSH2 0x6B9 SWAP2 SWAP1 PUSH2 0x3C06 JUMP JUMPDEST PUSH2 0x6AD PUSH2 0x861 CALLDATASIZE PUSH1 0x4 PUSH2 0x3A26 JUMP JUMPDEST PUSH2 0x1530 JUMP JUMPDEST PUSH2 0x6AD PUSH32 0x0 DUP2 JUMP JUMPDEST PUSH2 0x720 PUSH2 0x89B CALLDATASIZE PUSH1 0x4 PUSH2 0x39FA JUMP JUMPDEST PUSH2 0x153B JUMP JUMPDEST PUSH2 0x720 PUSH2 0x8AE CALLDATASIZE PUSH1 0x4 PUSH2 0x39FA JUMP JUMPDEST PUSH2 0x156E JUMP JUMPDEST PUSH2 0x6AD PUSH2 0x8C1 CALLDATASIZE PUSH1 0x4 PUSH2 0x39FA JUMP JUMPDEST PUSH2 0x15B3 JUMP JUMPDEST PUSH2 0x720 PUSH2 0x8D4 CALLDATASIZE PUSH1 0x4 PUSH2 0x3C4A JUMP JUMPDEST PUSH2 0x15E0 JUMP JUMPDEST PUSH2 0x720 PUSH2 0x8E7 CALLDATASIZE PUSH1 0x4 PUSH2 0x3BBE JUMP JUMPDEST PUSH2 0x166F JUMP JUMPDEST PUSH2 0x6AD PUSH2 0x8FA CALLDATASIZE PUSH1 0x4 PUSH2 0x3A6E JUMP JUMPDEST PUSH2 0x167A JUMP JUMPDEST PUSH2 0x720 PUSH2 0x90D CALLDATASIZE PUSH1 0x4 PUSH2 0x3C7A JUMP JUMPDEST PUSH2 0x1685 JUMP JUMPDEST PUSH2 0x925 PUSH2 0x920 CALLDATASIZE PUSH1 0x4 PUSH2 0x3A26 JUMP JUMPDEST PUSH2 0x16CB JUMP JUMPDEST PUSH1 0x40 DUP1 MLOAD SWAP3 DUP4 MSTORE PUSH1 0x20 DUP4 ADD SWAP2 SWAP1 SWAP2 MSTORE ADD PUSH2 0x6B9 JUMP JUMPDEST PUSH2 0x6AD PUSH2 0x948 CALLDATASIZE PUSH1 0x4 PUSH2 0x39FA JUMP JUMPDEST PUSH2 0x174D JUMP JUMPDEST PUSH2 0x6AD PUSH2 0x95B CALLDATASIZE PUSH1 0x4 PUSH2 0x3A6E JUMP JUMPDEST PUSH2 0x1761 JUMP JUMPDEST PUSH2 0x973 PUSH2 0x96E CALLDATASIZE PUSH1 0x4 PUSH2 0x39FA JUMP JUMPDEST PUSH2 0x17C3 JUMP JUMPDEST STOP JUMPDEST PUSH2 0x973 PUSH2 0x1C5F JUMP JUMPDEST PUSH2 0x973 PUSH2 0x98B CALLDATASIZE PUSH1 0x4 PUSH2 0x3A6E JUMP JUMPDEST PUSH2 0x1C71 JUMP JUMPDEST PUSH2 0x6AD PUSH2 0x99E CALLDATASIZE PUSH1 0x4 PUSH2 0x39FA JUMP JUMPDEST PUSH2 0x1F4A JUMP JUMPDEST PUSH1 0x7 SLOAD PUSH1 0xFF AND PUSH2 0x6AD JUMP JUMPDEST PUSH2 0x6AD PUSH2 0x9BC CALLDATASIZE PUSH1 0x4 PUSH2 0x39FA JUMP JUMPDEST PUSH2 0x207F JUMP JUMPDEST PUSH2 0x6D5 PUSH2 0x9CF CALLDATASIZE PUSH1 0x4 PUSH2 0x3A6E JUMP JUMPDEST PUSH2 0x2093 JUMP JUMPDEST PUSH1 0x0 SLOAD PUSH1 0x1 PUSH1 0x1 PUSH1 0xA0 SHL SUB AND PUSH2 0x7BB JUMP JUMPDEST PUSH2 0x7BB PUSH2 0x9F3 CALLDATASIZE PUSH1 0x4 PUSH2 0x3A26 JUMP JUMPDEST PUSH1 0x0 SWAP1 DUP2 MSTORE PUSH1 0x9 PUSH1 0x20 MSTORE PUSH1 0x40 SWAP1 KECCAK256 SLOAD PUSH1 0x1 PUSH1 0x1 PUSH1 0xA0 SHL SUB AND SWAP1 JUMP JUMPDEST PUSH2 0x6AD PUSH2 0xA1C CALLDATASIZE PUSH1 0x4 PUSH2 0x3A6E JUMP JUMPDEST PUSH2 0x20A0 JUMP JUMPDEST PUSH2 0x973 PUSH2 0xA2F CALLDATASIZE PUSH1 0x4 PUSH2 0x3A6E JUMP JUMPDEST PUSH2 0x20B3 JUMP JUMPDEST PUSH2 0x788 PUSH2 0xA42 CALLDATASIZE PUSH1 0x4 PUSH2 0x3A26 JUMP JUMPDEST PUSH2 0x2143 JUMP JUMPDEST PUSH2 0x6AD PUSH2 0xA55 CALLDATASIZE PUSH1 0x4 PUSH2 0x3CB1 JUMP JUMPDEST PUSH2 0x21AC JUMP JUMPDEST PUSH2 0x720 PUSH2 0xA68 CALLDATASIZE PUSH1 0x4 PUSH2 0x39FA JUMP JUMPDEST PUSH2 0x21D6 JUMP JUMPDEST PUSH2 0x720 PUSH2 0xA7B CALLDATASIZE PUSH1 0x4 PUSH2 0x3A26 JUMP JUMPDEST PUSH2 0x21E2 JUMP JUMPDEST PUSH2 0x788 PUSH2 0xA8E CALLDATASIZE PUSH1 0x4 PUSH2 0x3A6E JUMP JUMPDEST PUSH2 0x2234 JUMP JUMPDEST PUSH2 0x6AD PUSH2 0xAA1 CALLDATASIZE PUSH1 0x4 PUSH2 0x39FA JUMP JUMPDEST PUSH2 0x2241 JUMP JUMPDEST PUSH2 0x973 PUSH2 0xAB4 CALLDATASIZE PUSH1 0x4 PUSH2 0x3A6E JUMP JUMPDEST PUSH2 0x2353 JUMP JUMPDEST PUSH2 0x6AD PUSH2 0xAC7 CALLDATASIZE PUSH1 0x4 PUSH2 0x39FA JUMP JUMPDEST PUSH2 0x23A2 JUMP JUMPDEST PUSH2 0x6AD PUSH2 0xADA CALLDATASIZE PUSH1 0x4 PUSH2 0x39FA JUMP JUMPDEST PUSH2 0x24C5 JUMP JUMPDEST PUSH2 0xAF2 PUSH2 0xAED CALLDATASIZE PUSH1 0x4 PUSH2 0x3A26 JUMP JUMPDEST PUSH2 0x2503 JUMP JUMPDEST PUSH1 0x40 DUP1 MLOAD SWAP3 DUP4 MSTORE PUSH1 0x1 PUSH1 0x1 PUSH1 0xA0 SHL SUB SWAP1 SWAP2 AND PUSH1 0x20 DUP4 ADD MSTORE ADD PUSH2 0x6B9 JUMP JUMPDEST PUSH2 0x720 PUSH2 0xB1D CALLDATASIZE PUSH1 0x4 PUSH2 0x3CF9 JUMP JUMPDEST PUSH2 0x2585 JUMP JUMPDEST PUSH2 0x720 PUSH2 0xB30 CALLDATASIZE PUSH1 0x4 PUSH2 0x39FA JUMP JUMPDEST PUSH2 0x2608 JUMP JUMPDEST PUSH2 0x700 PUSH2 0xB43 CALLDATASIZE PUSH1 0x4 PUSH2 0x39FA JUMP JUMPDEST PUSH2 0x2614 JUMP JUMPDEST PUSH2 0x6AD PUSH2 0xB56 CALLDATASIZE PUSH1 0x4 PUSH2 0x3D89 JUMP JUMPDEST PUSH2 0x280C JUMP JUMPDEST PUSH2 0x6AD PUSH2 0xB69 CALLDATASIZE PUSH1 0x4 PUSH2 0x3A6E JUMP JUMPDEST PUSH2 0x28A3 JUMP JUMPDEST PUSH2 0x6AD PUSH2 0xB7C CALLDATASIZE PUSH1 0x4 PUSH2 0x3CB1 JUMP JUMPDEST PUSH2 0x28B0 JUMP JUMPDEST PUSH2 0x720 PUSH2 0xB8F CALLDATASIZE PUSH1 0x4 PUSH2 0x39FA JUMP JUMPDEST PUSH2 0x28CF JUMP JUMPDEST PUSH2 0x6AD PUSH2 0xBA2 CALLDATASIZE PUSH1 0x4 PUSH2 0x3A26 JUMP JUMPDEST PUSH2 0x297A JUMP JUMPDEST PUSH2 0x6AD PUSH2 0xBB5 CALLDATASIZE PUSH1 0x4 PUSH2 0x3DB5 JUMP JUMPDEST PUSH2 0x29CC JUMP JUMPDEST PUSH2 0x6AD PUSH2 0xBC8 CALLDATASIZE PUSH1 0x4 PUSH2 0x3A6E JUMP JUMPDEST PUSH2 0x29DF JUMP JUMPDEST PUSH2 0x754 PUSH2 0xBDB CALLDATASIZE PUSH1 0x4 PUSH2 0x3A26 JUMP JUMPDEST PUSH2 0x29F2 JUMP JUMPDEST PUSH2 0x6AD PUSH2 0xBEE CALLDATASIZE PUSH1 0x4 PUSH2 0x39FA JUMP JUMPDEST PUSH2 0x29FE JUMP JUMPDEST PUSH2 0x973 PUSH2 0xC01 CALLDATASIZE PUSH1 0x4 PUSH2 0x3A6E JUMP JUMPDEST PUSH2 0x2A12 JUMP JUMPDEST PUSH2 0x700 PUSH2 0xC14 CALLDATASIZE PUSH1 0x4 PUSH2 0x3A6E JUMP JUMPDEST PUSH2 0x2A8B JUMP JUMPDEST PUSH1 0x0 SLOAD PUSH1 0x1 PUSH1 0x1 PUSH1 0xA0 SHL SUB AND CALLER EQ DUP1 PUSH2 0xC36 JUMPI POP PUSH2 0xC36 CALLER PUSH2 0xF28 JUMP JUMPDEST PUSH2 0xC9D JUMPI PUSH1 0x40 MLOAD PUSH3 0x461BCD PUSH1 0xE5 SHL DUP2 MSTORE PUSH1 0x20 PUSH1 0x4 DUP3 ADD MSTORE PUSH1 0x2D PUSH1 0x24 DUP3 ADD MSTORE PUSH32 0x416C6C6F77616E63653A2063616C6C6572206D757374206265205265706F7369 PUSH1 0x44 DUP3 ADD MSTORE PUSH13 0x1D1BDC9E4810DBDB9D1C9858DD PUSH1 0x9A SHL PUSH1 0x64 DUP3 ADD MSTORE PUSH1 0x84 ADD JUMPDEST PUSH1 0x40 MLOAD DUP1 SWAP2 SUB SWAP1 REVERT JUMPDEST JUMP JUMPDEST PUSH1 0x0 PUSH1 0x1 PUSH1 0x1 PUSH1 0xE0 SHL SUB NOT DUP3 AND PUSH4 0x1FFC9A7 PUSH1 0xE0 SHL EQ DUP1 PUSH2 0xCD0 JUMPI POP PUSH4 0x5B62CB7 PUSH1 0xE4 SHL PUSH1 0x1 PUSH1 0x1 PUSH1 0xE0 SHL SUB NOT DUP4 AND EQ JUMPDEST DUP1 PUSH2 0xCDF JUMPI POP PUSH2 0xCDF DUP3 PUSH2 0x2AB3 JUMP JUMPDEST SWAP3 SWAP2 POP POP JUMP JUMPDEST PUSH1 0x0 PUSH1 0x1 PUSH1 0x1 PUSH1 0xA0 SHL SUB DUP4 AND PUSH2 0xCFD JUMPI POP PUSH1 0x1 PUSH2 0xCDF JUMP JUMPDEST PUSH2 0xD07 DUP4 DUP4 PUSH2 0x2614 JUMP JUMPDEST PUSH1 0x40 ADD MLOAD SWAP4 SWAP3 POP POP POP JUMP JUMPDEST PUSH1 0x40 DUP1 MLOAD PUSH1 0x60 DUP2 ADD DUP3 MSTORE PUSH1 0x0 DUP1 DUP3 MSTORE PUSH1 0x20 DUP3 ADD DUP2 SWAP1 MSTORE SWAP2 DUP2 ADD SWAP2 SWAP1 SWAP2 MSTORE PUSH1 0x0 DUP1 MLOAD PUSH1 0x20 PUSH2 0x417F DUP4 CODECOPY DUP2 MLOAD SWAP2 MSTORE DUP3 EQ ISZERO PUSH2 0xD50 JUMPI PUSH2 0xCDF PUSH1 0x0 DUP1 PUSH2 0x2614 JUMP JUMPDEST PUSH2 0xD59 DUP3 PUSH2 0xDB0 JUMP JUMPDEST PUSH2 0xD81 JUMPI POP POP PUSH1 0x40 DUP1 MLOAD PUSH1 0x60 DUP2 ADD DUP3 MSTORE PUSH1 0x11 NOT DUP2 MSTORE PUSH1 0x0 PUSH1 0x20 DUP3 ADD DUP2 SWAP1 MSTORE SWAP2 DUP2 ADD SWAP2 SWAP1 SWAP2 MSTORE SWAP1 JUMP JUMPDEST PUSH1 0x0 DUP1 PUSH2 0xD8D DUP5 PUSH2 0xDD9 JUMP JUMPDEST SWAP2 POP SWAP2 POP PUSH2 0xD9B DUP3 DUP3 PUSH2 0x2614 JUMP JUMPDEST SWAP5 SWAP4 POP POP POP POP JUMP JUMPDEST PUSH1 0x0 PUSH2 0xCDF DUP3 PUSH1 0x0 PUSH2 0x2608 JUMP JUMPDEST PUSH1 0x0 PUSH1 0x0 DUP1 MLOAD PUSH1 0x20 PUSH2 0x417F DUP4 CODECOPY DUP2 MLOAD SWAP2 MSTORE DUP3 EQ ISZERO PUSH2 0xDD0 JUMPI POP PUSH1 0x1 SWAP2 SWAP1 POP JUMP JUMPDEST PUSH2 0xCDF DUP3 PUSH2 0x1530 JUMP JUMPDEST PUSH1 0x0 DUP1 PUSH1 0x0 DUP1 MLOAD PUSH1 0x20 PUSH2 0x417F DUP4 CODECOPY DUP2 MLOAD SWAP2 MSTORE DUP4 EQ ISZERO PUSH2 0xDFD JUMPI POP PUSH1 0x0 SWAP3 DUP4 SWAP3 POP SWAP1 POP JUMP JUMPDEST PUSH2 0xE06 DUP4 PUSH2 0x1530 JUMP JUMPDEST PUSH2 0xE22 JUMPI PUSH1 0x40 MLOAD PUSH3 0x461BCD PUSH1 0xE5 SHL DUP2 MSTORE PUSH1 0x4 ADD PUSH2 0xC94 SWAP1 PUSH2 0x3DD2 JUMP JUMPDEST PUSH2 0xE2B DUP4 PUSH2 0x29F2 JUMP JUMPDEST SWAP2 POP SWAP2 POP SWAP2 POP SWAP2 JUMP JUMPDEST PUSH1 0x0 PUSH1 0x0 DUP1 MLOAD PUSH1 0x20 PUSH2 0x417F DUP4 CODECOPY DUP2 MLOAD SWAP2 MSTORE DUP3 EQ ISZERO PUSH2 0xE57 JUMPI PUSH2 0xCDF PUSH1 0x0 DUP1 PUSH2 0xCE5 JUMP JUMPDEST PUSH2 0xE60 DUP3 PUSH2 0xDB0 JUMP JUMPDEST PUSH2 0xE6C JUMPI POP PUSH1 0x0 SWAP2 SWAP1 POP JUMP JUMPDEST PUSH1 0x0 DUP1 PUSH2 0xE78 DUP5 PUSH2 0xDD9 JUMP JUMPDEST SWAP2 POP SWAP2 POP PUSH2 0xD9B DUP3 DUP3 PUSH2 0xCE5 JUMP JUMPDEST PUSH1 0x0 DUP2 DUP2 MSTORE PUSH1 0x8 PUSH1 0x20 MSTORE PUSH1 0x40 SWAP1 KECCAK256 DUP1 SLOAD PUSH1 0x60 SWAP2 SWAP1 PUSH2 0xEA3 SWAP1 PUSH2 0x3E09 JUMP JUMPDEST DUP1 PUSH1 0x1F ADD PUSH1 0x20 DUP1 SWAP2 DIV MUL PUSH1 0x20 ADD PUSH1 0x40 MLOAD SWAP1 DUP2 ADD PUSH1 0x40 MSTORE DUP1 SWAP3 SWAP2 SWAP1 DUP2 DUP2 MSTORE PUSH1 0x20 ADD DUP3 DUP1 SLOAD PUSH2 0xECF SWAP1 PUSH2 0x3E09 JUMP JUMPDEST DUP1 ISZERO PUSH2 0xF1C JUMPI DUP1 PUSH1 0x1F LT PUSH2 0xEF1 JUMPI PUSH2 0x100 DUP1 DUP4 SLOAD DIV MUL DUP4 MSTORE SWAP2 PUSH1 0x20 ADD SWAP2 PUSH2 0xF1C JUMP JUMPDEST DUP3 ADD SWAP2 SWAP1 PUSH1 0x0 MSTORE PUSH1 0x20 PUSH1 0x0 KECCAK256 SWAP1 JUMPDEST DUP2 SLOAD DUP2 MSTORE SWAP1 PUSH1 0x1 ADD SWAP1 PUSH1 0x20 ADD DUP1 DUP4 GT PUSH2 0xEFF JUMPI DUP3 SWAP1 SUB PUSH1 0x1F AND DUP3 ADD SWAP2 JUMPDEST POP POP POP POP POP SWAP1 POP SWAP2 SWAP1 POP JUMP JUMPDEST PUSH1 0x0 PUSH1 0x1 PUSH1 0x1 PUSH1 0xA0 SHL SUB DUP3 AND ADDRESS EQ ISZERO PUSH2 0xF43 JUMPI POP PUSH1 0x1 SWAP2 SWAP1 POP JUMP JUMPDEST PUSH1 0x40 MLOAD PUSH4 0xF1325663 PUSH1 0xE0 SHL DUP2 MSTORE PUSH1 0xA PUSH1 0x4 DUP3 ADD MSTORE PUSH1 0x1 PUSH1 0x1 PUSH1 0xA0 SHL SUB DUP4 AND PUSH1 0x24 DUP3 ADD MSTORE PUSH20 0x0 SWAP1 PUSH4 0xF1325663 SWAP1 PUSH1 0x44 ADD JUMPDEST PUSH1 0x20 PUSH1 0x40 MLOAD DUP1 DUP4 SUB DUP2 DUP7 GAS DELEGATECALL ISZERO DUP1 ISZERO PUSH2 0xFA3 JUMPI RETURNDATASIZE PUSH1 0x0 DUP1 RETURNDATACOPY RETURNDATASIZE PUSH1 0x0 REVERT JUMPDEST POP POP POP POP PUSH1 0x40 MLOAD RETURNDATASIZE PUSH1 0x1F NOT PUSH1 0x1F DUP3 ADD AND DUP3 ADD DUP1 PUSH1 0x40 MSTORE POP DUP2 ADD SWAP1 PUSH2 0xCDF SWAP2 SWAP1 PUSH2 0x390F JUMP JUMPDEST PUSH1 0x0 PUSH1 0x0 DUP1 MLOAD PUSH1 0x20 PUSH2 0x417F DUP4 CODECOPY DUP2 MLOAD SWAP2 MSTORE DUP3 EQ ISZERO PUSH2 0xFE7 JUMPI POP PUSH1 0x0 SWAP2 SWAP1 POP JUMP JUMPDEST PUSH2 0xFF0 DUP3 PUSH2 0x1530 JUMP JUMPDEST PUSH2 0x100C JUMPI PUSH1 0x40 MLOAD PUSH3 0x461BCD PUSH1 0xE5 SHL DUP2 MSTORE PUSH1 0x4 ADD PUSH2 0xC94 SWAP1 PUSH2 0x3DD2 JUMP JUMPDEST PUSH1 0x0 PUSH2 0x1017 DUP4 PUSH2 0x29F2 JUMP JUMPDEST POP SWAP4 SWAP3 POP POP POP JUMP JUMPDEST PUSH1 0x0 PUSH2 0x1029 PUSH2 0x2AE9 JUMP JUMPDEST PUSH2 0x1033 DUP4 DUP4 PUSH2 0x2B68 JUMP JUMPDEST SWAP4 SWAP3 POP POP POP JUMP JUMPDEST PUSH1 0x60 PUSH1 0x1 PUSH1 0x1 PUSH1 0xA0 SHL SUB DUP4 AND PUSH2 0x106A JUMPI PUSH1 0x40 MLOAD DUP1 PUSH1 0xA0 ADD PUSH1 0x40 MSTORE DUP1 PUSH1 0x75 DUP2 MSTORE PUSH1 0x20 ADD PUSH2 0x419F PUSH1 0x75 SWAP2 CODECOPY SWAP1 POP PUSH2 0xCDF JUMP JUMPDEST PUSH1 0x0 PUSH1 0x1 PUSH1 0x0 PUSH20 0x0 PUSH4 0xD5F0B04D DUP8 DUP8 PUSH1 0x40 MLOAD DUP4 PUSH4 0xFFFFFFFF AND PUSH1 0xE0 SHL DUP2 MSTORE PUSH1 0x4 ADD PUSH2 0x10A9 SWAP3 SWAP2 SWAP1 PUSH2 0x3A8B JUMP JUMPDEST PUSH1 0x20 PUSH1 0x40 MLOAD DUP1 DUP4 SUB DUP2 DUP7 GAS DELEGATECALL ISZERO DUP1 ISZERO PUSH2 0x10C6 JUMPI RETURNDATASIZE PUSH1 0x0 DUP1 RETURNDATACOPY RETURNDATASIZE PUSH1 0x0 REVERT JUMPDEST POP POP POP POP PUSH1 0x40 MLOAD RETURNDATASIZE PUSH1 0x1F NOT PUSH1 0x1F DUP3 ADD AND DUP3 ADD DUP1 PUSH1 0x40 MSTORE POP DUP2 ADD SWAP1 PUSH2 0x10EA SWAP2 SWAP1 PUSH2 0x3942 JUMP JUMPDEST DUP2 MSTORE PUSH1 0x20 ADD SWAP1 DUP2 MSTORE PUSH1 0x20 ADD PUSH1 0x0 KECCAK256 DUP1 SLOAD PUSH2 0x1103 SWAP1 PUSH2 0x3E09 JUMP JUMPDEST DUP1 PUSH1 0x1F ADD PUSH1 0x20 DUP1 SWAP2 DIV MUL PUSH1 0x20 ADD PUSH1 0x40 MLOAD SWAP1 DUP2 ADD PUSH1 0x40 MSTORE DUP1 SWAP3 SWAP2 SWAP1 DUP2 DUP2 MSTORE PUSH1 0x20 ADD DUP3 DUP1 SLOAD PUSH2 0x112F SWAP1 PUSH2 0x3E09 JUMP JUMPDEST DUP1 ISZERO PUSH2 0x117C JUMPI DUP1 PUSH1 0x1F LT PUSH2 0x1151 JUMPI PUSH2 0x100 DUP1 DUP4 SLOAD DIV MUL DUP4 MSTORE SWAP2 PUSH1 0x20 ADD SWAP2 PUSH2 0x117C JUMP JUMPDEST DUP3 ADD SWAP2 SWAP1 PUSH1 0x0 MSTORE PUSH1 0x20 PUSH1 0x0 KECCAK256 SWAP1 JUMPDEST DUP2 SLOAD DUP2 MSTORE SWAP1 PUSH1 0x1 ADD SWAP1 PUSH1 0x20 ADD DUP1 DUP4 GT PUSH2 0x115F JUMPI DUP3 SWAP1 SUB PUSH1 0x1F AND DUP3 ADD SWAP2 JUMPDEST POP POP PUSH1 0x40 DUP1 MLOAD PUSH1 0x0 DUP2 MSTORE PUSH1 0x20 DUP2 ADD DUP1 DUP4 MSTORE DUP2 MLOAD SWAP1 KECCAK256 SWAP6 SWAP7 POP PUSH2 0x11A4 SWAP5 POP DUP7 SWAP4 POP ADD SWAP1 POP PUSH2 0x3E3E JUMP JUMPDEST PUSH1 0x40 MLOAD PUSH1 0x20 DUP2 DUP4 SUB SUB DUP2 MSTORE SWAP1 PUSH1 0x40 MSTORE DUP1 MLOAD SWAP1 PUSH1 0x20 ADD KECCAK256 EQ PUSH2 0x11C6 JUMPI SWAP1 POP PUSH2 0xCDF JUMP JUMPDEST DUP3 ISZERO PUSH2 0x1327 JUMPI PUSH1 0x1 PUSH1 0x0 PUSH20 0x0 PUSH4 0xD5F0B04D DUP8 PUSH1 0x0 PUSH1 0x40 MLOAD DUP4 PUSH4 0xFFFFFFFF AND PUSH1 0xE0 SHL DUP2 MSTORE PUSH1 0x4 ADD PUSH2 0x120A SWAP3 SWAP2 SWAP1 PUSH2 0x3A8B JUMP JUMPDEST PUSH1 0x20 PUSH1 0x40 MLOAD DUP1 DUP4 SUB DUP2 DUP7 GAS DELEGATECALL ISZERO DUP1 ISZERO PUSH2 0x1227 JUMPI RETURNDATASIZE PUSH1 0x0 DUP1 RETURNDATACOPY RETURNDATASIZE PUSH1 0x0 REVERT JUMPDEST POP POP POP POP PUSH1 0x40 MLOAD RETURNDATASIZE PUSH1 0x1F NOT PUSH1 0x1F DUP3 ADD AND DUP3 ADD DUP1 PUSH1 0x40 MSTORE POP DUP2 ADD SWAP1 PUSH2 0x124B SWAP2 SWAP1 PUSH2 0x3942 JUMP JUMPDEST DUP2 MSTORE PUSH1 0x20 ADD SWAP1 DUP2 MSTORE PUSH1 0x20 ADD PUSH1 0x0 KECCAK256 DUP1 SLOAD PUSH2 0x1264 SWAP1 PUSH2 0x3E09 JUMP JUMPDEST DUP1 PUSH1 0x1F ADD PUSH1 0x20 DUP1 SWAP2 DIV MUL PUSH1 0x20 ADD PUSH1 0x40 MLOAD SWAP1 DUP2 ADD PUSH1 0x40 MSTORE DUP1 SWAP3 SWAP2 SWAP1 DUP2 DUP2 MSTORE PUSH1 0x20 ADD DUP3 DUP1 SLOAD PUSH2 0x1290 SWAP1 PUSH2 0x3E09 JUMP JUMPDEST DUP1 ISZERO PUSH2 0x12DD JUMPI DUP1 PUSH1 0x1F LT PUSH2 0x12B2 JUMPI PUSH2 0x100 DUP1 DUP4 SLOAD DIV MUL DUP4 MSTORE SWAP2 PUSH1 0x20 ADD SWAP2 PUSH2 0x12DD JUMP JUMPDEST DUP3 ADD SWAP2 SWAP1 PUSH1 0x0 MSTORE PUSH1 0x20 PUSH1 0x0 KECCAK256 SWAP1 JUMPDEST DUP2 SLOAD DUP2 MSTORE SWAP1 PUSH1 0x1 ADD SWAP1 PUSH1 0x20 ADD DUP1 DUP4 GT PUSH2 0x12C0 JUMPI DUP3 SWAP1 SUB PUSH1 0x1F AND DUP3 ADD SWAP2 JUMPDEST POP POP PUSH1 0x40 DUP1 MLOAD PUSH1 0x0 DUP2 MSTORE PUSH1 0x20 DUP2 ADD DUP1 DUP4 MSTORE DUP2 MLOAD SWAP1 KECCAK256 SWAP6 SWAP7 POP PUSH2 0x1305 SWAP5 POP DUP7 SWAP4 POP ADD SWAP1 POP PUSH2 0x3E3E JUMP JUMPDEST PUSH1 0x40 MLOAD PUSH1 0x20 DUP2 DUP4 SUB SUB DUP2 MSTORE SWAP1 PUSH1 0x40 MSTORE DUP1 MLOAD SWAP1 PUSH1 0x20 ADD KECCAK256 EQ PUSH2 0x1327 JUMPI SWAP1 POP PUSH2 0xCDF JUMP JUMPDEST PUSH1 0x40 MLOAD DUP1 PUSH1 0xA0 ADD PUSH1 0x40 MSTORE DUP1 PUSH1 0x6C DUP2 MSTORE PUSH1 0x20 ADD PUSH2 0x4113 PUSH1 0x6C SWAP2 CODECOPY SWAP5 SWAP4 POP POP POP POP JUMP JUMPDEST DUP1 MLOAD PUSH1 0x20 DUP1 DUP4 ADD SWAP2 SWAP1 SWAP2 KECCAK256 PUSH1 0x0 DUP2 DUP2 MSTORE PUSH1 0x8 SWAP1 SWAP3 MSTORE PUSH1 0x40 SWAP1 SWAP2 KECCAK256 DUP1 SLOAD PUSH2 0x136D SWAP1 PUSH2 0x3E09 JUMP JUMPDEST ISZERO ISZERO SWAP1 POP PUSH2 0x139A JUMPI PUSH1 0x0 DUP2 DUP2 MSTORE PUSH1 0x8 PUSH1 0x20 SWAP1 DUP2 MSTORE PUSH1 0x40 SWAP1 SWAP2 KECCAK256 DUP4 MLOAD PUSH2 0x1394 SWAP3 DUP6 ADD SWAP1 PUSH2 0x3868 JUMP JUMPDEST POP SWAP2 SWAP1 POP JUMP JUMPDEST PUSH1 0x0 DUP2 DUP2 MSTORE PUSH1 0x8 PUSH1 0x20 MSTORE PUSH1 0x40 SWAP1 KECCAK256 DUP1 SLOAD PUSH2 0x143C SWAP2 SWAP1 PUSH2 0x13B8 SWAP1 PUSH2 0x3E09 JUMP JUMPDEST DUP1 PUSH1 0x1F ADD PUSH1 0x20 DUP1 SWAP2 DIV MUL PUSH1 0x20 ADD PUSH1 0x40 MLOAD SWAP1 DUP2 ADD PUSH1 0x40 MSTORE DUP1 SWAP3 SWAP2 SWAP1 DUP2 DUP2 MSTORE PUSH1 0x20 ADD DUP3 DUP1 SLOAD PUSH2 0x13E4 SWAP1 PUSH2 0x3E09 JUMP JUMPDEST DUP1 ISZERO PUSH2 0x1431 JUMPI DUP1 PUSH1 0x1F LT PUSH2 0x1406 JUMPI PUSH2 0x100 DUP1 DUP4 SLOAD DIV MUL DUP4 MSTORE SWAP2 PUSH1 0x20 ADD SWAP2 PUSH2 0x1431 JUMP JUMPDEST DUP3 ADD SWAP2 SWAP1 PUSH1 0x0 MSTORE PUSH1 0x20 PUSH1 0x0 KECCAK256 SWAP1 JUMPDEST DUP2 SLOAD DUP2 MSTORE SWAP1 PUSH1 0x1 ADD SWAP1 PUSH1 0x20 ADD DUP1 DUP4 GT PUSH2 0x1414 JUMPI DUP3 SWAP1 SUB PUSH1 0x1F AND DUP3 ADD SWAP2 JUMPDEST POP POP POP POP POP DUP4 PUSH2 0x2DF5 JUMP JUMPDEST PUSH2 0x14A5 JUMPI PUSH1 0x40 MLOAD PUSH3 0x461BCD PUSH1 0xE5 SHL DUP2 MSTORE PUSH1 0x20 PUSH1 0x4 DUP3 ADD MSTORE PUSH1 0x34 PUSH1 0x24 DUP3 ADD MSTORE PUSH32 0x4B656363616B496E766572746572204279746573206B656363616B2069736E74 PUSH1 0x44 DUP3 ADD MSTORE PUSH20 0x20756E6971756520212121212121212121212121 PUSH1 0x60 SHL PUSH1 0x64 DUP3 ADD MSTORE PUSH1 0x84 ADD PUSH2 0xC94 JUMP JUMPDEST SWAP2 SWAP1 POP JUMP JUMPDEST PUSH1 0x60 PUSH2 0x14B5 DUP3 PUSH2 0xE86 JUMP JUMPDEST PUSH1 0x40 MLOAD PUSH4 0x55B04B0D PUSH1 0xE1 SHL DUP2 MSTORE PUSH20 0x0 SWAP2 PUSH4 0xAB60961A SWAP2 PUSH2 0x14EB SWAP2 SWAP1 PUSH1 0x4 ADD PUSH2 0x3B00 JUMP JUMPDEST PUSH1 0x0 PUSH1 0x40 MLOAD DUP1 DUP4 SUB DUP2 DUP7 GAS DELEGATECALL ISZERO DUP1 ISZERO PUSH2 0x1508 JUMPI RETURNDATASIZE PUSH1 0x0 DUP1 RETURNDATACOPY RETURNDATASIZE PUSH1 0x0 REVERT JUMPDEST POP POP POP POP PUSH1 0x40 MLOAD RETURNDATASIZE PUSH1 0x0 DUP3 RETURNDATACOPY PUSH1 0x1F RETURNDATASIZE SWAP1 DUP2 ADD PUSH1 0x1F NOT AND DUP3 ADD PUSH1 0x40 MSTORE PUSH2 0xCDF SWAP2 SWAP1 DUP2 ADD SWAP1 PUSH2 0x3E5A JUMP JUMPDEST PUSH1 0x0 PUSH2 0xCDF DUP3 PUSH2 0x2E87 JUMP JUMPDEST PUSH1 0x0 PUSH2 0x1547 DUP4 DUP4 PUSH2 0x28CF JUMP JUMPDEST SWAP1 POP PUSH2 0x1552 DUP2 PUSH2 0x1530 JUMP JUMPDEST PUSH2 0xCDF JUMPI PUSH1 0x40 MLOAD PUSH3 0x461BCD PUSH1 0xE5 SHL DUP2 MSTORE PUSH1 0x4 ADD PUSH2 0xC94 SWAP1 PUSH2 0x3DD2 JUMP JUMPDEST PUSH1 0x0 PUSH1 0x1 PUSH1 0x1 PUSH1 0xA0 SHL SUB DUP4 AND ISZERO DUP1 ISZERO PUSH2 0x1585 JUMPI POP DUP2 ISZERO JUMPDEST ISZERO PUSH2 0x159F JUMPI POP PUSH1 0x0 DUP1 MLOAD PUSH1 0x20 PUSH2 0x417F DUP4 CODECOPY DUP2 MLOAD SWAP2 MSTORE PUSH2 0xCDF JUMP JUMPDEST PUSH2 0x15A9 DUP4 DUP4 PUSH2 0x17C3 JUMP JUMPDEST PUSH2 0x1033 DUP4 DUP4 PUSH2 0x21D6 JUMP JUMPDEST PUSH1 0x0 PUSH1 0x1 PUSH1 0x1 PUSH1 0xA0 SHL SUB DUP4 AND PUSH2 0x15CB JUMPI POP PUSH1 0x0 PUSH2 0xCDF JUMP JUMPDEST PUSH2 0x15D5 DUP4 DUP4 PUSH2 0x2614 JUMP JUMPDEST PUSH1 0x20 ADD MLOAD SWAP4 SWAP3 POP POP POP JUMP JUMPDEST PUSH1 0x40 MLOAD PUSH4 0x18F7A7C3 PUSH1 0xE2 SHL DUP2 MSTORE PUSH1 0x4 DUP2 ADD DUP4 SWAP1 MSTORE PUSH1 0x1 PUSH1 0x1 PUSH1 0xA0 SHL SUB DUP3 AND PUSH1 0x24 DUP3 ADD MSTORE PUSH1 0x0 SWAP1 PUSH2 0x1033 SWAP1 PUSH20 0x0 SWAP1 PUSH4 0x63DE9F0C SWAP1 PUSH1 0x44 ADD JUMPDEST PUSH1 0x0 PUSH1 0x40 MLOAD DUP1 DUP4 SUB DUP2 DUP7 GAS DELEGATECALL ISZERO DUP1 ISZERO PUSH2 0x1647 JUMPI RETURNDATASIZE PUSH1 0x0 DUP1 RETURNDATACOPY RETURNDATASIZE PUSH1 0x0 REVERT JUMPDEST POP POP POP POP PUSH1 0x40 MLOAD RETURNDATASIZE PUSH1 0x0 DUP3 RETURNDATACOPY PUSH1 0x1F RETURNDATASIZE SWAP1 DUP2 ADD PUSH1 0x1F NOT AND DUP3 ADD PUSH1 0x40 MSTORE PUSH2 0xB1D SWAP2 SWAP1 DUP2 ADD SWAP1 PUSH2 0x3E5A JUMP JUMPDEST PUSH1 0x0 PUSH2 0xCDF DUP3 PUSH2 0x1348 JUMP JUMPDEST PUSH1 0x0 PUSH2 0xCDF DUP3 PUSH2 0x2EA9 JUMP JUMPDEST PUSH1 0x40 MLOAD PUSH4 0x2291B3F1 PUSH1 0xE2 SHL DUP2 MSTORE PUSH1 0x4 DUP2 ADD DUP4 SWAP1 MSTORE PUSH1 0x24 DUP2 ADD DUP3 SWAP1 MSTORE PUSH1 0x0 SWAP1 PUSH2 0x1033 SWAP1 PUSH20 0x0 SWAP1 PUSH4 0x8A46CFC4 SWAP1 PUSH1 0x44 ADD PUSH2 0x162A JUMP JUMPDEST PUSH1 0x0 DUP1 PUSH2 0x16D7 DUP4 PUSH2 0x14AA JUMP JUMPDEST PUSH1 0x40 MLOAD PUSH4 0x29695C3 PUSH1 0xE2 SHL DUP2 MSTORE PUSH20 0x0 SWAP2 PUSH4 0xA5A570C SWAP2 PUSH2 0x170D SWAP2 SWAP1 PUSH1 0x4 ADD PUSH2 0x3C06 JUMP JUMPDEST PUSH1 0x40 DUP1 MLOAD DUP1 DUP4 SUB DUP2 DUP7 GAS DELEGATECALL ISZERO DUP1 ISZERO PUSH2 0x1729 JUMPI RETURNDATASIZE PUSH1 0x0 DUP1 RETURNDATACOPY RETURNDATASIZE PUSH1 0x0 REVERT JUMPDEST POP POP POP POP PUSH1 0x40 MLOAD RETURNDATASIZE PUSH1 0x1F NOT PUSH1 0x1F DUP3 ADD AND DUP3 ADD DUP1 PUSH1 0x40 MSTORE POP DUP2 ADD SWAP1 PUSH2 0xE2B SWAP2 SWAP1 PUSH2 0x3EDF JUMP JUMPDEST PUSH1 0x0 PUSH2 0x1757 PUSH2 0x2AE9 JUMP JUMPDEST PUSH2 0x1033 DUP4 DUP4 PUSH2 0x2F34 JUMP JUMPDEST PUSH1 0x0 PUSH1 0x1 PUSH1 0x1 PUSH1 0xA0 SHL SUB DUP3 AND ADDRESS EQ ISZERO PUSH2 0x177C JUMPI POP PUSH1 0x1 SWAP2 SWAP1 POP JUMP JUMPDEST PUSH1 0x40 MLOAD PUSH4 0xF1325663 PUSH1 0xE0 SHL DUP2 MSTORE PUSH1 0xB PUSH1 0x4 DUP3 ADD MSTORE PUSH1 0x1 PUSH1 0x1 PUSH1 0xA0 SHL SUB DUP4 AND PUSH1 0x24 DUP3 ADD MSTORE PUSH20 0x0 SWAP1 PUSH4 0xF1325663 SWAP1 PUSH1 0x44 ADD PUSH2 0xF86 JUMP JUMPDEST PUSH1 0x0 DUP1 PUSH20 0x0 PUSH4 0xD5F0B04D DUP6 PUSH1 0x0 PUSH1 0x40 MLOAD DUP4 PUSH4 0xFFFFFFFF AND PUSH1 0xE0 SHL DUP2 MSTORE PUSH1 0x4 ADD PUSH2 0x1800 SWAP3 SWAP2 SWAP1 PUSH2 0x3A8B JUMP JUMPDEST PUSH1 0x20 PUSH1 0x40 MLOAD DUP1 DUP4 SUB DUP2 DUP7 GAS DELEGATECALL ISZERO DUP1 ISZERO PUSH2 0x181D JUMPI RETURNDATASIZE PUSH1 0x0 DUP1 RETURNDATACOPY RETURNDATASIZE PUSH1 0x0 REVERT JUMPDEST POP POP POP POP PUSH1 0x40 MLOAD RETURNDATASIZE PUSH1 0x1F NOT PUSH1 0x1F DUP3 ADD AND DUP3 ADD DUP1 PUSH1 0x40 MSTORE POP DUP2 ADD SWAP1 PUSH2 0x1841 SWAP2 SWAP1 PUSH2 0x3942 JUMP JUMPDEST PUSH1 0x0 DUP2 DUP2 MSTORE PUSH1 0x3 PUSH1 0x20 MSTORE PUSH1 0x40 SWAP1 KECCAK256 DUP1 SLOAD SWAP1 SWAP4 POP SWAP1 SWAP2 POP PUSH3 0x10000 SWAP1 DIV PUSH1 0x1 PUSH1 0x1 PUSH1 0x40 SHL SUB AND PUSH2 0x19D3 JUMPI PUSH1 0x40 MLOAD PUSH4 0x4DD11F0F PUSH1 0xE1 SHL DUP2 MSTORE PUSH1 0x1 PUSH1 0x1 PUSH1 0xA0 SHL SUB DUP6 AND PUSH1 0x4 DUP3 ADD MSTORE PUSH1 0x0 PUSH1 0x24 DUP3 ADD MSTORE PUSH1 0x1 PUSH1 0x44 DUP3 ADD MSTORE PUSH20 0x0 SWAP1 PUSH4 0x9BA23E1E SWAP1 PUSH1 0x64 ADD PUSH1 0x60 PUSH1 0x40 MLOAD DUP1 DUP4 SUB DUP2 DUP7 GAS DELEGATECALL ISZERO DUP1 ISZERO PUSH2 0x18D0 JUMPI RETURNDATASIZE PUSH1 0x0 DUP1 RETURNDATACOPY RETURNDATASIZE PUSH1 0x0 REVERT JUMPDEST POP POP POP POP PUSH1 0x40 MLOAD RETURNDATASIZE PUSH1 0x1F NOT PUSH1 0x1F DUP3 ADD AND DUP3 ADD DUP1 PUSH1 0x40 MSTORE POP DUP2 ADD SWAP1 PUSH2 0x18F4 SWAP2 SWAP1 PUSH2 0x3F03 JUMP JUMPDEST PUSH1 0x0 DUP3 DUP2 MSTORE PUSH1 0x3 PUSH1 0x20 SWAP1 DUP2 MSTORE PUSH1 0x40 SWAP2 DUP3 SWAP1 KECCAK256 DUP4 MLOAD DUP2 SLOAD SWAP3 DUP6 ADD MLOAD SWAP5 DUP5 ADD MLOAD PUSH1 0x1 PUSH1 0x1 PUSH1 0x40 SHL SUB AND PUSH3 0x10000 MUL PUSH10 0xFFFFFFFFFFFFFFFF0000 NOT SWAP6 ISZERO ISZERO PUSH2 0x100 MUL PUSH2 0xFFFF NOT SWAP1 SWAP5 AND PUSH1 0xFF SWAP1 SWAP3 AND SWAP2 SWAP1 SWAP2 OR SWAP3 SWAP1 SWAP3 OR SWAP4 SWAP1 SWAP4 AND OR SWAP1 SWAP2 SSTORE MLOAD PUSH4 0x16061A71 PUSH1 0xE2 SHL DUP2 MSTORE PUSH20 0x0 SWAP1 PUSH4 0x581869C4 SWAP1 PUSH2 0x1990 SWAP1 PUSH1 0x2 SWAP1 DUP6 SWAP1 PUSH1 0x4 ADD SWAP2 DUP3 MSTORE PUSH1 0x20 DUP3 ADD MSTORE PUSH1 0x40 ADD SWAP1 JUMP JUMPDEST PUSH1 0x20 PUSH1 0x40 MLOAD DUP1 DUP4 SUB DUP2 DUP7 GAS DELEGATECALL ISZERO DUP1 ISZERO PUSH2 0x19AD JUMPI RETURNDATASIZE PUSH1 0x0 DUP1 RETURNDATACOPY RETURNDATASIZE PUSH1 0x0 REVERT JUMPDEST POP POP POP POP PUSH1 0x40 MLOAD RETURNDATASIZE PUSH1 0x1F NOT PUSH1 0x1F DUP3 ADD AND DUP3 ADD DUP1 PUSH1 0x40 MSTORE POP DUP2 ADD SWAP1 PUSH2 0x19D1 SWAP2 SWAP1 PUSH2 0x390F JUMP JUMPDEST POP JUMPDEST DUP2 SLOAD PUSH3 0x10000 SWAP1 DIV PUSH1 0x1 PUSH1 0x1 PUSH1 0x40 SHL SUB AND PUSH2 0x19F0 JUMPI PUSH2 0x19F0 PUSH2 0x3F7B JUMP JUMPDEST DUP2 SLOAD PUSH3 0x10000 SWAP1 DIV PUSH2 0x100 AND PUSH2 0x1A06 JUMPI POP POP POP POP JUMP JUMPDEST PUSH1 0x40 DUP1 MLOAD PUSH1 0x60 DUP2 ADD DUP3 MSTORE DUP4 SLOAD PUSH1 0x0 DUP2 SWAP1 SIGNEXTEND DUP3 MSTORE PUSH2 0x100 DUP2 DIV PUSH1 0xFF AND ISZERO ISZERO PUSH1 0x20 DUP4 ADD MSTORE PUSH3 0x10000 SWAP1 DIV PUSH1 0x1 PUSH1 0x1 PUSH1 0x40 SHL SUB AND DUP2 DUP4 ADD MSTORE SWAP1 MLOAD PUSH4 0xD5F0B04D PUSH1 0xE0 SHL DUP2 MSTORE PUSH20 0x0 SWAP1 PUSH4 0xD5F0B04D SWAP1 PUSH2 0x1A73 SWAP1 DUP9 SWAP1 DUP9 SWAP1 PUSH1 0x4 ADD PUSH2 0x3A8B JUMP JUMPDEST PUSH1 0x20 PUSH1 0x40 MLOAD DUP1 DUP4 SUB DUP2 DUP7 GAS DELEGATECALL ISZERO DUP1 ISZERO PUSH2 0x1A90 JUMPI RETURNDATASIZE PUSH1 0x0 DUP1 RETURNDATACOPY RETURNDATASIZE PUSH1 0x0 REVERT JUMPDEST POP POP POP POP PUSH1 0x40 MLOAD RETURNDATASIZE PUSH1 0x1F NOT PUSH1 0x1F DUP3 ADD AND DUP3 ADD DUP1 PUSH1 0x40 MSTORE POP DUP2 ADD SWAP1 PUSH2 0x1AB4 SWAP2 SWAP1 PUSH2 0x3942 JUMP JUMPDEST PUSH1 0x0 DUP2 DUP2 MSTORE PUSH1 0x3 PUSH1 0x20 MSTORE PUSH1 0x40 SWAP1 KECCAK256 DUP1 SLOAD SWAP1 SWAP5 POP SWAP1 SWAP3 POP PUSH3 0x10000 SWAP1 DIV PUSH1 0x1 PUSH1 0x1 PUSH1 0x40 SHL SUB AND PUSH2 0x1C3B JUMPI PUSH1 0x40 MLOAD PUSH4 0x543AF627 PUSH1 0xE0 SHL DUP2 MSTORE PUSH20 0x0 SWAP1 PUSH4 0x543AF627 SWAP1 PUSH2 0x1B1B SWAP1 DUP9 SWAP1 DUP9 SWAP1 DUP7 SWAP1 PUSH1 0x1 SWAP1 PUSH1 0x4 ADD PUSH2 0x3F91 JUMP JUMPDEST PUSH1 0x60 PUSH1 0x40 MLOAD DUP1 DUP4 SUB DUP2 DUP7 GAS DELEGATECALL ISZERO DUP1 ISZERO PUSH2 0x1B38 JUMPI RETURNDATASIZE PUSH1 0x0 DUP1 RETURNDATACOPY RETURNDATASIZE PUSH1 0x0 REVERT JUMPDEST POP POP POP POP PUSH1 0x40 MLOAD RETURNDATASIZE PUSH1 0x1F NOT PUSH1 0x1F DUP3 ADD AND DUP3 ADD DUP1 PUSH1 0x40 MSTORE POP DUP2 ADD SWAP1 PUSH2 0x1B5C SWAP2 SWAP1 PUSH2 0x3F03 JUMP JUMPDEST PUSH1 0x0 DUP4 DUP2 MSTORE PUSH1 0x3 PUSH1 0x20 SWAP1 DUP2 MSTORE PUSH1 0x40 SWAP2 DUP3 SWAP1 KECCAK256 DUP4 MLOAD DUP2 SLOAD SWAP3 DUP6 ADD MLOAD SWAP5 DUP5 ADD MLOAD PUSH1 0x1 PUSH1 0x1 PUSH1 0x40 SHL SUB AND PUSH3 0x10000 MUL PUSH10 0xFFFFFFFFFFFFFFFF0000 NOT SWAP6 ISZERO ISZERO PUSH2 0x100 MUL PUSH2 0xFFFF NOT SWAP1 SWAP5 AND PUSH1 0xFF SWAP1 SWAP3 AND SWAP2 SWAP1 SWAP2 OR SWAP3 SWAP1 SWAP3 OR SWAP4 SWAP1 SWAP4 AND OR SWAP1 SWAP2 SSTORE MLOAD PUSH4 0x16061A71 PUSH1 0xE2 SHL DUP2 MSTORE PUSH20 0x0 SWAP1 PUSH4 0x581869C4 SWAP1 PUSH2 0x1BF8 SWAP1 PUSH1 0x2 SWAP1 DUP7 SWAP1 PUSH1 0x4 ADD SWAP2 DUP3 MSTORE PUSH1 0x20 DUP3 ADD MSTORE PUSH1 0x40 ADD SWAP1 JUMP JUMPDEST PUSH1 0x20 PUSH1 0x40 MLOAD DUP1 DUP4 SUB DUP2 DUP7 GAS DELEGATECALL ISZERO DUP1 ISZERO PUSH2 0x1C15 JUMPI RETURNDATASIZE PUSH1 0x0 DUP1 RETURNDATACOPY RETURNDATASIZE PUSH1 0x0 REVERT JUMPDEST POP POP POP POP PUSH1 0x40 MLOAD RETURNDATASIZE PUSH1 0x1F NOT PUSH1 0x1F DUP3 ADD AND DUP3 ADD DUP1 PUSH1 0x40 MSTORE POP DUP2 ADD SWAP1 PUSH2 0x1C39 SWAP2 SWAP1 PUSH2 0x390F JUMP JUMPDEST POP JUMPDEST DUP3 SLOAD PUSH3 0x10000 SWAP1 DIV PUSH1 0x1 PUSH1 0x1 PUSH1 0x40 SHL SUB AND PUSH2 0x1C58 JUMPI PUSH2 0x1C58 PUSH2 0x3F7B JUMP JUMPDEST POP POP POP POP POP JUMP JUMPDEST PUSH2 0x1C67 PUSH2 0x3211 JUMP JUMPDEST PUSH2 0xC9D PUSH1 0x0 PUSH2 0x326B JUMP JUMPDEST PUSH2 0x1C79 PUSH2 0x2AE9 JUMP JUMPDEST PUSH1 0x40 MLOAD PUSH4 0x1FFC9A7 PUSH1 0xE0 SHL DUP2 MSTORE PUSH4 0x15D37895 PUSH1 0xE3 SHL PUSH1 0x4 DUP3 ADD MSTORE PUSH1 0x1 PUSH1 0x1 PUSH1 0xA0 SHL SUB DUP3 AND SWAP1 PUSH4 0x1FFC9A7 SWAP1 PUSH1 0x24 ADD PUSH1 0x20 PUSH1 0x40 MLOAD DUP1 DUP4 SUB DUP2 DUP7 GAS STATICCALL ISZERO DUP1 ISZERO PUSH2 0x1CC4 JUMPI RETURNDATASIZE PUSH1 0x0 DUP1 RETURNDATACOPY RETURNDATASIZE PUSH1 0x0 REVERT JUMPDEST POP POP POP POP PUSH1 0x40 MLOAD RETURNDATASIZE PUSH1 0x1F NOT PUSH1 0x1F DUP3 ADD AND DUP3 ADD DUP1 PUSH1 0x40 MSTORE POP DUP2 ADD SWAP1 PUSH2 0x1CE8 SWAP2 SWAP1 PUSH2 0x390F JUMP JUMPDEST PUSH2 0x1D40 JUMPI PUSH1 0x40 MLOAD PUSH3 0x461BCD PUSH1 0xE5 SHL DUP2 MSTORE PUSH1 0x20 PUSH1 0x4 DUP3 ADD MSTORE PUSH1 0x24 DUP1 DUP3 ADD MSTORE PUSH32 0x636F6E7472616374206D75737420626520495265706F7369746F7279436F6E74 PUSH1 0x44 DUP3 ADD MSTORE PUSH4 0x1C9858DD PUSH1 0xE2 SHL PUSH1 0x64 DUP3 ADD MSTORE PUSH1 0x84 ADD PUSH2 0xC94 JUMP JUMPDEST PUSH1 0x0 JUMPDEST PUSH1 0xD SLOAD DUP2 LT ISZERO PUSH2 0x1E29 JUMPI PUSH1 0xC PUSH1 0x0 DUP4 PUSH1 0x1 PUSH1 0x1 PUSH1 0xA0 SHL SUB AND PUSH4 0xAF640D0F PUSH1 0x40 MLOAD DUP2 PUSH4 0xFFFFFFFF AND PUSH1 0xE0 SHL DUP2 MSTORE PUSH1 0x4 ADD PUSH1 0x20 PUSH1 0x40 MLOAD DUP1 DUP4 SUB DUP2 DUP7 GAS STATICCALL ISZERO DUP1 ISZERO PUSH2 0x1D8F JUMPI RETURNDATASIZE PUSH1 0x0 DUP1 RETURNDATACOPY RETURNDATASIZE PUSH1 0x0 REVERT JUMPDEST POP POP POP POP PUSH1 0x40 MLOAD RETURNDATASIZE PUSH1 0x1F NOT PUSH1 0x1F DUP3 ADD AND DUP3 ADD DUP1 PUSH1 0x40 MSTORE POP DUP2 ADD SWAP1 PUSH2 0x1DB3 SWAP2 SWAP1 PUSH2 0x3942 JUMP JUMPDEST DUP2 MSTORE PUSH1 0x20 ADD SWAP1 DUP2 MSTORE PUSH1 0x20 ADD PUSH1 0x0 KECCAK256 PUSH1 0x0 PUSH1 0xD DUP4 DUP2 SLOAD DUP2 LT PUSH2 0x1DD6 JUMPI PUSH2 0x1DD6 PUSH2 0x392C JUMP JUMPDEST PUSH1 0x0 SWAP2 DUP3 MSTORE PUSH1 0x20 DUP1 DUP4 KECCAK256 PUSH1 0x8 DUP4 DIV ADD SLOAD PUSH1 0x7 SWAP1 SWAP3 AND PUSH1 0x4 MUL PUSH2 0x100 EXP SWAP1 SWAP2 DIV PUSH1 0xE0 SHL PUSH1 0x1 PUSH1 0x1 PUSH1 0xE0 SHL SUB NOT AND DUP4 MSTORE DUP3 ADD SWAP3 SWAP1 SWAP3 MSTORE PUSH1 0x40 ADD SWAP1 KECCAK256 DUP1 SLOAD PUSH1 0xFF NOT AND SWAP1 SSTORE DUP1 PUSH2 0x1E21 DUP2 PUSH2 0x3997 JUMP JUMPDEST SWAP2 POP POP PUSH2 0x1D43 JUMP JUMPDEST POP PUSH1 0x40 MLOAD PUSH4 0x16F4B929 PUSH1 0xE2 SHL DUP2 MSTORE PUSH1 0xA PUSH1 0x4 DUP3 ADD MSTORE PUSH1 0x1 PUSH1 0x1 PUSH1 0xA0 SHL SUB DUP3 AND PUSH1 0x24 DUP3 ADD MSTORE PUSH20 0x0 SWAP1 PUSH4 0x5BD2E4A4 SWAP1 PUSH1 0x44 ADD PUSH1 0x20 PUSH1 0x40 MLOAD DUP1 DUP4 SUB DUP2 DUP7 GAS DELEGATECALL ISZERO DUP1 ISZERO PUSH2 0x1E89 JUMPI RETURNDATASIZE PUSH1 0x0 DUP1 RETURNDATACOPY RETURNDATASIZE PUSH1 0x0 REVERT JUMPDEST POP POP POP POP PUSH1 0x40 MLOAD RETURNDATASIZE PUSH1 0x1F NOT PUSH1 0x1F DUP3 ADD AND DUP3 ADD DUP1 PUSH1 0x40 MSTORE POP DUP2 ADD SWAP1 PUSH2 0x1EAD SWAP2 SWAP1 PUSH2 0x390F JUMP JUMPDEST POP DUP1 PUSH1 0x9 PUSH1 0x0 DUP4 PUSH1 0x1 PUSH1 0x1 PUSH1 0xA0 SHL SUB AND PUSH4 0xAF640D0F PUSH1 0x40 MLOAD DUP2 PUSH4 0xFFFFFFFF AND PUSH1 0xE0 SHL DUP2 MSTORE PUSH1 0x4 ADD PUSH1 0x20 PUSH1 0x40 MLOAD DUP1 DUP4 SUB DUP2 DUP7 GAS STATICCALL ISZERO DUP1 ISZERO PUSH2 0x1EF1 JUMPI RETURNDATASIZE PUSH1 0x0 DUP1 RETURNDATACOPY RETURNDATASIZE PUSH1 0x0 REVERT JUMPDEST POP POP POP POP PUSH1 0x40 MLOAD RETURNDATASIZE PUSH1 0x1F NOT PUSH1 0x1F DUP3 ADD AND DUP3 ADD DUP1 PUSH1 0x40 MSTORE POP DUP2 ADD SWAP1 PUSH2 0x1F15 SWAP2 SWAP1 PUSH2 0x3942 JUMP JUMPDEST DUP2 MSTORE PUSH1 0x20 ADD SWAP1 DUP2 MSTORE PUSH1 0x20 ADD PUSH1 0x0 KECCAK256 PUSH1 0x0 PUSH2 0x100 EXP DUP2 SLOAD DUP2 PUSH1 0x1 PUSH1 0x1 PUSH1 0xA0 SHL SUB MUL NOT AND SWAP1 DUP4 PUSH1 0x1 PUSH1 0x1 PUSH1 0xA0 SHL SUB AND MUL OR SWAP1 SSTORE POP POP JUMP JUMPDEST PUSH1 0x4 SLOAD PUSH1 0x0 SWAP1 JUMPDEST DUP1 ISZERO PUSH2 0x2075 JUMPI PUSH1 0x1 PUSH1 0x1 PUSH1 0xA0 SHL SUB DUP5 AND PUSH1 0x4 PUSH2 0x1F6E PUSH1 0x1 DUP5 PUSH2 0x3FE8 JUMP JUMPDEST DUP2 SLOAD DUP2 LT PUSH2 0x1F7E JUMPI PUSH2 0x1F7E PUSH2 0x392C JUMP JUMPDEST PUSH1 0x0 SWAP2 DUP3 MSTORE PUSH1 0x20 SWAP1 SWAP2 KECCAK256 PUSH1 0x2 SWAP1 SWAP2 MUL ADD SLOAD PUSH1 0x1 PUSH1 0x1 PUSH1 0xA0 SHL SUB AND EQ DUP1 ISZERO PUSH2 0x1FD3 JUMPI POP PUSH1 0x4 PUSH2 0x1FAD PUSH1 0x1 DUP4 PUSH2 0x3FE8 JUMP JUMPDEST DUP2 SLOAD DUP2 LT PUSH2 0x1FBD JUMPI PUSH2 0x1FBD PUSH2 0x392C JUMP JUMPDEST SWAP1 PUSH1 0x0 MSTORE PUSH1 0x20 PUSH1 0x0 KECCAK256 SWAP1 PUSH1 0x2 MUL ADD PUSH1 0x1 ADD SLOAD PUSH1 0x0 EQ JUMPDEST DUP1 PUSH2 0x2054 JUMPI POP PUSH1 0x1 PUSH1 0x1 PUSH1 0xA0 SHL SUB DUP5 AND PUSH1 0x4 PUSH2 0x1FF0 PUSH1 0x1 DUP5 PUSH2 0x3FE8 JUMP JUMPDEST DUP2 SLOAD DUP2 LT PUSH2 0x2000 JUMPI PUSH2 0x2000 PUSH2 0x392C JUMP JUMPDEST PUSH1 0x0 SWAP2 DUP3 MSTORE PUSH1 0x20 SWAP1 SWAP2 KECCAK256 PUSH1 0x2 SWAP1 SWAP2 MUL ADD SLOAD PUSH1 0x1 PUSH1 0x1 PUSH1 0xA0 SHL SUB AND EQ DUP1 ISZERO PUSH2 0x2054 JUMPI POP DUP3 PUSH1 0x4 PUSH2 0x2030 PUSH1 0x1 DUP5 PUSH2 0x3FE8 JUMP JUMPDEST DUP2 SLOAD DUP2 LT PUSH2 0x2040 JUMPI PUSH2 0x2040 PUSH2 0x392C JUMP JUMPDEST SWAP1 PUSH1 0x0 MSTORE PUSH1 0x20 PUSH1 0x0 KECCAK256 SWAP1 PUSH1 0x2 MUL ADD PUSH1 0x1 ADD SLOAD EQ JUMPDEST ISZERO PUSH2 0x2063 JUMPI PUSH1 0x1 SWAP2 POP POP PUSH2 0xCDF JUMP JUMPDEST DUP1 PUSH2 0x206D DUP2 PUSH2 0x3FFF JUMP JUMPDEST SWAP2 POP POP PUSH2 0x1F51 JUMP JUMPDEST POP PUSH1 0x0 SWAP4 SWAP3 POP POP POP JUMP JUMPDEST PUSH1 0x0 PUSH2 0x2089 PUSH2 0x2AE9 JUMP JUMPDEST PUSH2 0x1033 DUP4 DUP4 PUSH2 0x32BB JUMP JUMPDEST PUSH1 0x0 PUSH2 0xCDF DUP3 PUSH1 0x0 PUSH2 0xCE5 JUMP JUMPDEST PUSH1 0x0 PUSH2 0x20AA PUSH2 0x2AE9 JUMP JUMPDEST PUSH2 0xCDF DUP3 PUSH2 0x3417 JUMP JUMPDEST PUSH2 0x20BB PUSH2 0x2AE9 JUMP JUMPDEST PUSH1 0x40 MLOAD PUSH4 0x16F4B929 PUSH1 0xE2 SHL DUP2 MSTORE PUSH1 0xB PUSH1 0x4 DUP3 ADD MSTORE PUSH1 0x1 PUSH1 0x1 PUSH1 0xA0 SHL SUB DUP3 AND PUSH1 0x24 DUP3 ADD MSTORE PUSH20 0x0 SWAP1 PUSH4 0x5BD2E4A4 SWAP1 PUSH1 0x44 ADD JUMPDEST PUSH1 0x20 PUSH1 0x40 MLOAD DUP1 DUP4 SUB DUP2 DUP7 GAS DELEGATECALL ISZERO DUP1 ISZERO PUSH2 0x211B JUMPI RETURNDATASIZE PUSH1 0x0 DUP1 RETURNDATACOPY RETURNDATASIZE PUSH1 0x0 REVERT JUMPDEST POP POP POP POP PUSH1 0x40 MLOAD RETURNDATASIZE PUSH1 0x1F NOT PUSH1 0x1F DUP3 ADD AND DUP3 ADD DUP1 PUSH1 0x40 MSTORE POP DUP2 ADD SWAP1 PUSH2 0x213F SWAP2 SWAP1 PUSH2 0x390F JUMP JUMPDEST POP POP JUMP JUMPDEST PUSH1 0x60 PUSH1 0x0 DUP1 MLOAD PUSH1 0x20 PUSH2 0x417F DUP4 CODECOPY DUP2 MLOAD SWAP2 MSTORE DUP3 EQ ISZERO PUSH2 0x2166 JUMPI PUSH2 0xCDF PUSH1 0x0 DUP1 PUSH2 0x103A JUMP JUMPDEST PUSH2 0x216F DUP3 PUSH2 0xDB0 JUMP JUMPDEST PUSH2 0x2192 JUMPI PUSH1 0x40 MLOAD DUP1 PUSH1 0xA0 ADD PUSH1 0x40 MSTORE DUP1 PUSH1 0x6C DUP2 MSTORE PUSH1 0x20 ADD PUSH2 0x4113 PUSH1 0x6C SWAP2 CODECOPY SWAP3 SWAP2 POP POP JUMP JUMPDEST PUSH1 0x0 DUP1 PUSH2 0x219E DUP5 PUSH2 0xDD9 JUMP JUMPDEST SWAP2 POP SWAP2 POP PUSH2 0xD9B DUP3 DUP3 PUSH2 0x103A JUMP JUMPDEST PUSH1 0x0 DUP2 PUSH1 0x1 PUSH1 0x1 PUSH1 0x40 SHL SUB AND PUSH1 0xFF PUSH2 0x21C3 DUP6 PUSH2 0xE34 JUMP JUMPDEST AND PUSH1 0x1 PUSH1 0x1 PUSH1 0x40 SHL SUB AND EQ SWAP1 POP SWAP3 SWAP2 POP POP JUMP JUMPDEST PUSH1 0x0 PUSH2 0x1033 DUP4 DUP4 PUSH2 0x34D5 JUMP JUMPDEST PUSH1 0x0 PUSH1 0x0 DUP1 MLOAD PUSH1 0x20 PUSH2 0x417F DUP4 CODECOPY DUP2 MLOAD SWAP2 MSTORE DUP3 EQ ISZERO PUSH2 0x2205 JUMPI PUSH2 0xCDF PUSH1 0x0 DUP1 PUSH2 0x2608 JUMP JUMPDEST PUSH2 0x220E DUP3 PUSH2 0xDB0 JUMP JUMPDEST PUSH2 0x221A JUMPI POP PUSH1 0x1 SWAP2 SWAP1 POP JUMP JUMPDEST PUSH1 0x0 DUP1 PUSH2 0x2226 DUP5 PUSH2 0xDD9 JUMP JUMPDEST SWAP2 POP SWAP2 POP PUSH2 0xD9B DUP3 DUP3 PUSH2 0x2608 JUMP JUMPDEST PUSH1 0x60 PUSH2 0xCDF DUP3 PUSH1 0x0 PUSH2 0x103A JUMP JUMPDEST PUSH1 0x6 SLOAD PUSH1 0x0 SWAP1 DUP2 JUMPDEST DUP2 DUP2 LT ISZERO PUSH2 0x2348 JUMPI DUP5 PUSH1 0x1 PUSH1 0x1 PUSH1 0xA0 SHL SUB AND PUSH1 0x6 DUP3 DUP2 SLOAD DUP2 LT PUSH2 0x226E JUMPI PUSH2 0x226E PUSH2 0x392C JUMP JUMPDEST PUSH1 0x0 SWAP2 DUP3 MSTORE PUSH1 0x20 SWAP1 SWAP2 KECCAK256 PUSH1 0x2 SWAP1 SWAP2 MUL ADD SLOAD PUSH1 0x1 PUSH1 0x1 PUSH1 0xA0 SHL SUB AND EQ DUP1 ISZERO PUSH2 0x22B9 JUMPI POP PUSH1 0x6 DUP2 DUP2 SLOAD DUP2 LT PUSH2 0x22A3 JUMPI PUSH2 0x22A3 PUSH2 0x392C JUMP JUMPDEST SWAP1 PUSH1 0x0 MSTORE PUSH1 0x20 PUSH1 0x0 KECCAK256 SWAP1 PUSH1 0x2 MUL ADD PUSH1 0x1 ADD SLOAD PUSH1 0x0 EQ JUMPDEST DUP1 PUSH2 0x2326 JUMPI POP DUP5 PUSH1 0x1 PUSH1 0x1 PUSH1 0xA0 SHL SUB AND PUSH1 0x6 DUP3 DUP2 SLOAD DUP2 LT PUSH2 0x22DC JUMPI PUSH2 0x22DC PUSH2 0x392C JUMP JUMPDEST PUSH1 0x0 SWAP2 DUP3 MSTORE PUSH1 0x20 SWAP1 SWAP2 KECCAK256 PUSH1 0x2 SWAP1 SWAP2 MUL ADD SLOAD PUSH1 0x1 PUSH1 0x1 PUSH1 0xA0 SHL SUB AND EQ DUP1 ISZERO PUSH2 0x2326 JUMPI POP DUP4 PUSH1 0x6 DUP3 DUP2 SLOAD DUP2 LT PUSH2 0x2312 JUMPI PUSH2 0x2312 PUSH2 0x392C JUMP JUMPDEST SWAP1 PUSH1 0x0 MSTORE PUSH1 0x20 PUSH1 0x0 KECCAK256 SWAP1 PUSH1 0x2 MUL ADD PUSH1 0x1 ADD SLOAD EQ JUMPDEST ISZERO PUSH2 0x2336 JUMPI PUSH1 0x1 SWAP3 POP POP POP PUSH2 0xCDF JUMP JUMPDEST DUP1 PUSH2 0x2340 DUP2 PUSH2 0x3997 JUMP JUMPDEST SWAP2 POP POP PUSH2 0x2249 JUMP JUMPDEST POP PUSH1 0x0 SWAP5 SWAP4 POP POP POP POP JUMP JUMPDEST PUSH2 0x235B PUSH2 0x2AE9 JUMP JUMPDEST PUSH1 0x40 MLOAD PUSH4 0xEDEFE12D PUSH1 0xE0 SHL DUP2 MSTORE PUSH1 0xB PUSH1 0x4 DUP3 ADD MSTORE PUSH1 0x1 PUSH1 0x1 PUSH1 0xA0 SHL SUB DUP3 AND PUSH1 0x24 DUP3 ADD MSTORE PUSH20 0x0 SWAP1 PUSH4 0xEDEFE12D SWAP1 PUSH1 0x44 ADD PUSH2 0x20FE JUMP JUMPDEST PUSH1 0x0 PUSH2 0x23AF DUP4 PUSH1 0x0 PUSH2 0x1F4A JUMP JUMPDEST ISZERO PUSH2 0x23BC JUMPI POP PUSH1 0x1 PUSH2 0xCDF JUMP JUMPDEST DUP2 ISZERO PUSH2 0x23D9 JUMPI PUSH2 0x23CC DUP4 DUP4 PUSH2 0x1F4A JUMP JUMPDEST ISZERO PUSH2 0x23D9 JUMPI POP PUSH1 0x1 PUSH2 0xCDF JUMP JUMPDEST PUSH1 0x0 DUP4 PUSH1 0x1 PUSH1 0x1 PUSH1 0xA0 SHL SUB AND PUSH4 0x373A7FB4 PUSH1 0x40 MLOAD DUP2 PUSH4 0xFFFFFFFF AND PUSH1 0xE0 SHL DUP2 MSTORE PUSH1 0x4 ADD PUSH1 0x20 PUSH1 0x40 MLOAD DUP1 DUP4 SUB DUP2 DUP7 GAS STATICCALL ISZERO DUP1 ISZERO PUSH2 0x2419 JUMPI RETURNDATASIZE PUSH1 0x0 DUP1 RETURNDATACOPY RETURNDATASIZE PUSH1 0x0 REVERT JUMPDEST POP POP POP POP PUSH1 0x40 MLOAD RETURNDATASIZE PUSH1 0x1F NOT PUSH1 0x1F DUP3 ADD AND DUP3 ADD DUP1 PUSH1 0x40 MSTORE POP DUP2 ADD SWAP1 PUSH2 0x243D SWAP2 SWAP1 PUSH2 0x4016 JUMP JUMPDEST SWAP1 POP PUSH2 0x2448 DUP2 PUSH2 0x167A JUMP JUMPDEST PUSH2 0x2456 JUMPI PUSH1 0x0 SWAP2 POP POP PUSH2 0xCDF JUMP JUMPDEST PUSH1 0x40 MLOAD PUSH4 0x2B43F033 PUSH1 0xE2 SHL DUP2 MSTORE PUSH1 0x1 PUSH1 0x1 PUSH1 0xA0 SHL SUB DUP3 AND SWAP1 PUSH4 0xAD0FC0CC SWAP1 PUSH2 0x2484 SWAP1 DUP8 SWAP1 DUP8 SWAP1 PUSH1 0x4 ADD PUSH2 0x3A8B JUMP JUMPDEST PUSH1 0x20 PUSH1 0x40 MLOAD DUP1 DUP4 SUB DUP2 DUP7 GAS STATICCALL ISZERO DUP1 ISZERO PUSH2 0x24A1 JUMPI RETURNDATASIZE PUSH1 0x0 DUP1 RETURNDATACOPY RETURNDATASIZE PUSH1 0x0 REVERT JUMPDEST POP POP POP POP PUSH1 0x40 MLOAD RETURNDATASIZE PUSH1 0x1F NOT PUSH1 0x1F DUP3 ADD AND DUP3 ADD DUP1 PUSH1 0x40 MSTORE POP DUP2 ADD SWAP1 PUSH2 0xD9B SWAP2 SWAP1 PUSH2 0x390F JUMP JUMPDEST PUSH1 0x0 PUSH2 0x24D1 DUP4 DUP4 PUSH2 0x2241 JUMP JUMPDEST ISZERO PUSH2 0x24DE JUMPI POP PUSH1 0x0 PUSH2 0xCDF JUMP JUMPDEST PUSH2 0x24E8 DUP4 DUP4 PUSH2 0x1F4A JUMP JUMPDEST ISZERO PUSH2 0x24F5 JUMPI POP PUSH1 0x1 PUSH2 0xCDF JUMP JUMPDEST PUSH1 0x7 SLOAD PUSH1 0xFF AND ISZERO SWAP4 SWAP3 POP POP POP JUMP JUMPDEST PUSH1 0x0 DUP1 PUSH2 0x250F DUP4 PUSH2 0x14AA JUMP JUMPDEST PUSH1 0x40 MLOAD PUSH4 0x9AC1B345 PUSH1 0xE0 SHL DUP2 MSTORE PUSH20 0x0 SWAP2 PUSH4 0x9AC1B345 SWAP2 PUSH2 0x2545 SWAP2 SWAP1 PUSH1 0x4 ADD PUSH2 0x3C06 JUMP JUMPDEST PUSH1 0x40 DUP1 MLOAD DUP1 DUP4 SUB DUP2 DUP7 GAS DELEGATECALL ISZERO DUP1 ISZERO PUSH2 0x2561 JUMPI RETURNDATASIZE PUSH1 0x0 DUP1 RETURNDATACOPY RETURNDATASIZE PUSH1 0x0 REVERT JUMPDEST POP POP POP POP PUSH1 0x40 MLOAD RETURNDATASIZE PUSH1 0x1F NOT PUSH1 0x1F DUP3 ADD AND DUP3 ADD DUP1 PUSH1 0x40 MSTORE POP DUP2 ADD SWAP1 PUSH2 0xE2B SWAP2 SWAP1 PUSH2 0x4033 JUMP JUMPDEST PUSH1 0x40 MLOAD PUSH4 0x2431A7CF PUSH1 0xE0 SHL DUP2 MSTORE PUSH1 0x0 SWAP1 PUSH2 0xCDF SWAP1 PUSH20 0x0 SWAP1 PUSH4 0x2431A7CF SWAP1 PUSH2 0x25C3 SWAP1 DUP7 SWAP1 PUSH1 0x4 ADD PUSH2 0x3C06 JUMP JUMPDEST PUSH1 0x0 PUSH1 0x40 MLOAD DUP1 DUP4 SUB DUP2 DUP7 GAS DELEGATECALL ISZERO DUP1 ISZERO PUSH2 0x25E0 JUMPI RETURNDATASIZE PUSH1 0x0 DUP1 RETURNDATACOPY RETURNDATASIZE PUSH1 0x0 REVERT JUMPDEST POP POP POP POP PUSH1 0x40 MLOAD RETURNDATASIZE PUSH1 0x0 DUP3 RETURNDATACOPY PUSH1 0x1F RETURNDATASIZE SWAP1 DUP2 ADD PUSH1 0x1F NOT AND DUP3 ADD PUSH1 0x40 MSTORE PUSH2 0x807 SWAP2 SWAP1 DUP2 ADD SWAP1 PUSH2 0x4058 JUMP JUMPDEST PUSH1 0x0 PUSH2 0x1033 DUP4 DUP4 PUSH2 0x3513 JUMP JUMPDEST PUSH1 0x40 DUP1 MLOAD PUSH1 0x60 DUP2 ADD DUP3 MSTORE PUSH1 0x0 DUP1 DUP3 MSTORE PUSH1 0x20 DUP3 ADD DUP2 SWAP1 MSTORE SWAP2 DUP2 ADD SWAP2 SWAP1 SWAP2 MSTORE PUSH1 0x1 PUSH1 0x1 PUSH1 0xA0 SHL SUB DUP4 AND PUSH2 0x2664 JUMPI POP PUSH1 0x40 DUP1 MLOAD PUSH1 0x60 DUP2 ADD DUP3 MSTORE PUSH1 0x11 NOT DUP2 MSTORE PUSH1 0x0 PUSH1 0x20 DUP3 ADD MSTORE PUSH1 0x1 SWAP2 DUP2 ADD SWAP2 SWAP1 SWAP2 MSTORE PUSH2 0xCDF JUMP JUMPDEST PUSH1 0x3 PUSH1 0x0 PUSH20 0x0 PUSH4 0xD5F0B04D DUP7 PUSH1 0x0 PUSH1 0x40 MLOAD DUP4 PUSH4 0xFFFFFFFF AND PUSH1 0xE0 SHL DUP2 MSTORE PUSH1 0x4 ADD PUSH2 0x26A2 SWAP3 SWAP2 SWAP1 PUSH2 0x3A8B JUMP JUMPDEST PUSH1 0x20 PUSH1 0x40 MLOAD DUP1 DUP4 SUB DUP2 DUP7 GAS DELEGATECALL ISZERO DUP1 ISZERO PUSH2 0x26BF JUMPI RETURNDATASIZE PUSH1 0x0 DUP1 RETURNDATACOPY RETURNDATASIZE PUSH1 0x0 REVERT JUMPDEST POP POP POP POP PUSH1 0x40 MLOAD RETURNDATASIZE PUSH1 0x1F NOT PUSH1 0x1F DUP3 ADD AND DUP3 ADD DUP1 PUSH1 0x40 MSTORE POP DUP2 ADD SWAP1 PUSH2 0x26E3 SWAP2 SWAP1 PUSH2 0x3942 JUMP JUMPDEST DUP2 MSTORE PUSH1 0x20 DUP1 DUP3 ADD SWAP3 SWAP1 SWAP3 MSTORE PUSH1 0x40 SWAP1 DUP2 ADD PUSH1 0x0 SWAP1 DUP2 KECCAK256 DUP3 MLOAD PUSH1 0x60 DUP2 ADD DUP5 MSTORE SWAP1 SLOAD SWAP2 DUP3 SWAP1 SIGNEXTEND DUP2 MSTORE PUSH2 0x100 DUP1 DUP4 DIV PUSH1 0xFF AND ISZERO ISZERO SWAP5 DUP3 ADD SWAP5 SWAP1 SWAP5 MSTORE PUSH3 0x10000 SWAP1 SWAP2 DIV PUSH1 0x1 PUSH1 0x1 PUSH1 0x40 SHL SUB DUP2 AND SWAP3 DUP3 ADD SWAP3 SWAP1 SWAP3 MSTORE SWAP3 POP AND PUSH2 0x273E JUMPI PUSH2 0xCDF JUMP JUMPDEST PUSH1 0x3 PUSH1 0x0 PUSH20 0x0 PUSH4 0xD5F0B04D DUP7 DUP7 PUSH1 0x40 MLOAD DUP4 PUSH4 0xFFFFFFFF AND PUSH1 0xE0 SHL DUP2 MSTORE PUSH1 0x4 ADD PUSH2 0x277B SWAP3 SWAP2 SWAP1 PUSH2 0x3A8B JUMP JUMPDEST PUSH1 0x20 PUSH1 0x40 MLOAD DUP1 DUP4 SUB DUP2 DUP7 GAS DELEGATECALL ISZERO DUP1 ISZERO PUSH2 0x2798 JUMPI RETURNDATASIZE PUSH1 0x0 DUP1 RETURNDATACOPY RETURNDATASIZE PUSH1 0x0 REVERT JUMPDEST POP POP POP POP PUSH1 0x40 MLOAD RETURNDATASIZE PUSH1 0x1F NOT PUSH1 0x1F DUP3 ADD AND DUP3 ADD DUP1 PUSH1 0x40 MSTORE POP DUP2 ADD SWAP1 PUSH2 0x27BC SWAP2 SWAP1 PUSH2 0x3942 JUMP JUMPDEST DUP2 MSTORE PUSH1 0x20 DUP1 DUP3 ADD SWAP3 SWAP1 SWAP3 MSTORE PUSH1 0x40 SWAP1 DUP2 ADD PUSH1 0x0 SWAP1 DUP2 KECCAK256 DUP3 MLOAD PUSH1 0x60 DUP2 ADD DUP5 MSTORE SWAP1 SLOAD SWAP2 DUP3 SWAP1 SIGNEXTEND DUP2 MSTORE PUSH2 0x100 DUP3 DIV PUSH1 0xFF AND ISZERO ISZERO SWAP4 DUP2 ADD SWAP4 SWAP1 SWAP4 MSTORE PUSH3 0x10000 SWAP1 DIV PUSH1 0x1 PUSH1 0x1 PUSH1 0x40 SHL SUB AND SWAP1 DUP3 ADD MSTORE SWAP4 SWAP3 POP POP POP JUMP JUMPDEST PUSH1 0x0 PUSH2 0x281A DUP4 PUSH2 0x200 PUSH2 0x28B0 JUMP JUMPDEST PUSH2 0x2826 JUMPI POP PUSH1 0x0 PUSH2 0xCDF JUMP JUMPDEST PUSH2 0x282F DUP4 PUSH2 0xFC7 JUMP JUMPDEST PUSH1 0x40 MLOAD PUSH4 0x1FFC9A7 PUSH1 0xE0 SHL DUP2 MSTORE PUSH1 0x1 PUSH1 0x1 PUSH1 0xE0 SHL SUB NOT DUP5 AND PUSH1 0x4 DUP3 ADD MSTORE PUSH1 0x1 PUSH1 0x1 PUSH1 0xA0 SHL SUB SWAP2 SWAP1 SWAP2 AND SWAP1 PUSH4 0x1FFC9A7 SWAP1 PUSH1 0x24 ADD PUSH1 0x20 PUSH1 0x40 MLOAD DUP1 DUP4 SUB DUP2 DUP7 GAS STATICCALL ISZERO DUP1 ISZERO PUSH2 0x287F JUMPI RETURNDATASIZE PUSH1 0x0 DUP1 RETURNDATACOPY RETURNDATASIZE PUSH1 0x0 REVERT JUMPDEST POP POP POP POP PUSH1 0x40 MLOAD RETURNDATASIZE PUSH1 0x1F NOT PUSH1 0x1F DUP3 ADD AND DUP3 ADD DUP1 PUSH1 0x40 MSTORE POP DUP2 ADD SWAP1 PUSH2 0x1033 SWAP2 SWAP1 PUSH2 0x390F JUMP JUMPDEST PUSH1 0x0 PUSH2 0xCDF DUP3 PUSH1 0x0 PUSH2 0x15B3 JUMP JUMPDEST PUSH1 0x0 DUP2 PUSH2 0x28BC DUP5 PUSH2 0xE34 JUMP JUMPDEST AND PUSH1 0x1 PUSH1 0x1 PUSH1 0x40 SHL SUB AND ISZERO ISZERO SWAP4 SWAP3 POP POP POP JUMP JUMPDEST PUSH1 0x0 PUSH1 0x1 PUSH1 0x1 PUSH1 0xA0 SHL SUB DUP4 AND ISZERO DUP1 ISZERO PUSH2 0x28E6 JUMPI POP DUP2 ISZERO JUMPDEST ISZERO PUSH2 0x2900 JUMPI POP PUSH1 0x0 DUP1 MLOAD PUSH1 0x20 PUSH2 0x417F DUP4 CODECOPY DUP2 MLOAD SWAP2 MSTORE PUSH2 0xCDF JUMP JUMPDEST PUSH1 0x40 MLOAD PUSH4 0xD5F0B04D PUSH1 0xE0 SHL DUP2 MSTORE PUSH20 0x0 SWAP1 PUSH4 0xD5F0B04D SWAP1 PUSH2 0x2939 SWAP1 DUP7 SWAP1 DUP7 SWAP1 PUSH1 0x4 ADD PUSH2 0x3A8B JUMP JUMPDEST PUSH1 0x20 PUSH1 0x40 MLOAD DUP1 DUP4 SUB DUP2 DUP7 GAS DELEGATECALL ISZERO DUP1 ISZERO PUSH2 0x2956 JUMPI RETURNDATASIZE PUSH1 0x0 DUP1 RETURNDATACOPY RETURNDATASIZE PUSH1 0x0 REVERT JUMPDEST POP POP POP POP PUSH1 0x40 MLOAD RETURNDATASIZE PUSH1 0x1F NOT PUSH1 0x1F DUP3 ADD AND DUP3 ADD DUP1 PUSH1 0x40 MSTORE POP DUP2 ADD SWAP1 PUSH2 0x1033 SWAP2 SWAP1 PUSH2 0x3942 JUMP JUMPDEST PUSH1 0x0 PUSH1 0x0 DUP1 MLOAD PUSH1 0x20 PUSH2 0x417F DUP4 CODECOPY DUP2 MLOAD SWAP2 MSTORE DUP3 EQ ISZERO PUSH2 0x299D JUMPI PUSH2 0xCDF PUSH1 0x0 DUP1 PUSH2 0x15B3 JUMP JUMPDEST PUSH2 0x29A6 DUP3 PUSH2 0xDB0 JUMP JUMPDEST PUSH2 0x29B2 JUMPI POP PUSH1 0x0 SWAP2 SWAP1 POP JUMP JUMPDEST PUSH1 0x0 DUP1 PUSH2 0x29BE DUP5 PUSH2 0xDD9 JUMP JUMPDEST SWAP2 POP SWAP2 POP PUSH2 0xD9B DUP3 DUP3 PUSH2 0x15B3 JUMP JUMPDEST PUSH1 0x0 PUSH2 0x29D6 PUSH2 0x2AE9 JUMP JUMPDEST PUSH2 0xCDF DUP3 PUSH2 0x356B JUMP JUMPDEST PUSH1 0x0 PUSH2 0x29E9 PUSH2 0x2AE9 JUMP JUMPDEST PUSH2 0xCDF DUP3 PUSH2 0x359D JUMP JUMPDEST PUSH1 0x0 DUP1 PUSH2 0xE2B DUP4 PUSH2 0x36BE JUMP JUMPDEST PUSH1 0x0 PUSH2 0x2A08 PUSH2 0x2AE9 JUMP JUMPDEST PUSH2 0x1033 DUP4 DUP4 PUSH2 0x3740 JUMP JUMPDEST PUSH2 0x2A1A PUSH2 0x3211 JUMP JUMPDEST PUSH1 0x1 PUSH1 0x1 PUSH1 0xA0 SHL SUB DUP2 AND PUSH2 0x2A7F JUMPI PUSH1 0x40 MLOAD PUSH3 0x461BCD PUSH1 0xE5 SHL DUP2 MSTORE PUSH1 0x20 PUSH1 0x4 DUP3 ADD MSTORE PUSH1 0x26 PUSH1 0x24 DUP3 ADD MSTORE PUSH32 0x4F776E61626C653A206E6577206F776E657220697320746865207A65726F2061 PUSH1 0x44 DUP3 ADD MSTORE PUSH6 0x646472657373 PUSH1 0xD0 SHL PUSH1 0x64 DUP3 ADD MSTORE PUSH1 0x84 ADD PUSH2 0xC94 JUMP JUMPDEST PUSH2 0x2A88 DUP2 PUSH2 0x326B JUMP JUMPDEST POP JUMP JUMPDEST PUSH1 0x40 DUP1 MLOAD PUSH1 0x60 DUP2 ADD DUP3 MSTORE PUSH1 0x0 DUP1 DUP3 MSTORE PUSH1 0x20 DUP3 ADD DUP2 SWAP1 MSTORE SWAP2 DUP2 ADD SWAP2 SWAP1 SWAP2 MSTORE PUSH2 0xCDF DUP3 PUSH1 0x0 PUSH2 0x2614 JUMP JUMPDEST PUSH1 0x0 PUSH1 0x1 PUSH1 0x1 PUSH1 0xE0 SHL SUB NOT DUP3 AND PUSH4 0x1FFC9A7 PUSH1 0xE0 SHL EQ DUP1 PUSH2 0xCDF JUMPI POP PUSH1 0x1 PUSH1 0x1 PUSH1 0xE0 SHL SUB NOT DUP3 AND PUSH4 0x2B43F033 PUSH1 0xE2 SHL EQ SWAP3 SWAP2 POP POP JUMP JUMPDEST PUSH1 0x0 SLOAD PUSH1 0x1 PUSH1 0x1 PUSH1 0xA0 SHL SUB AND CALLER EQ DUP1 PUSH2 0x2B06 JUMPI POP PUSH2 0x2B06 CALLER PUSH2 0x1761 JUMP JUMPDEST PUSH2 0xC9D JUMPI PUSH1 0x40 MLOAD PUSH3 0x461BCD PUSH1 0xE5 SHL DUP2 MSTORE PUSH1 0x20 PUSH1 0x4 DUP3 ADD MSTORE PUSH1 0x2D PUSH1 0x24 DUP3 ADD MSTORE PUSH32 0x416C6C6F77616E63653A2063616C6C6572206D757374206265205265706F7369 PUSH1 0x44 DUP3 ADD MSTORE PUSH13 0x3A37B93C9027B832B930BA37B9 PUSH1 0x99 SHL PUSH1 0x64 DUP3 ADD MSTORE PUSH1 0x84 ADD PUSH2 0xC94 JUMP JUMPDEST PUSH1 0x6 SLOAD PUSH1 0x0 SWAP1 DUP2 JUMPDEST DUP2 DUP2 LT ISZERO PUSH2 0x2C02 JUMPI DUP5 PUSH1 0x1 PUSH1 0x1 PUSH1 0xA0 SHL SUB AND PUSH1 0x6 DUP3 DUP2 SLOAD DUP2 LT PUSH2 0x2B95 JUMPI PUSH2 0x2B95 PUSH2 0x392C JUMP JUMPDEST PUSH1 0x0 SWAP2 DUP3 MSTORE PUSH1 0x20 SWAP1 SWAP2 KECCAK256 PUSH1 0x2 SWAP1 SWAP2 MUL ADD SLOAD PUSH1 0x1 PUSH1 0x1 PUSH1 0xA0 SHL SUB AND EQ DUP1 ISZERO PUSH2 0x2BE0 JUMPI POP PUSH1 0x6 DUP2 DUP2 SLOAD DUP2 LT PUSH2 0x2BCA JUMPI PUSH2 0x2BCA PUSH2 0x392C JUMP JUMPDEST SWAP1 PUSH1 0x0 MSTORE PUSH1 0x20 PUSH1 0x0 KECCAK256 SWAP1 PUSH1 0x2 MUL ADD PUSH1 0x1 ADD SLOAD PUSH1 0x0 EQ JUMPDEST ISZERO PUSH2 0x2BF0 JUMPI PUSH1 0x0 SWAP3 POP POP POP PUSH2 0xCDF JUMP JUMPDEST DUP1 PUSH2 0x2BFA DUP2 PUSH2 0x3997 JUMP JUMPDEST SWAP2 POP POP PUSH2 0x2B70 JUMP JUMPDEST POP DUP3 PUSH2 0x2CC2 JUMPI PUSH1 0x0 NOT DUP2 ADD JUMPDEST DUP2 DUP2 LT ISZERO PUSH2 0x2CBC JUMPI DUP5 PUSH1 0x1 PUSH1 0x1 PUSH1 0xA0 SHL SUB AND PUSH1 0x6 DUP3 DUP2 SLOAD DUP2 LT PUSH2 0x2C33 JUMPI PUSH2 0x2C33 PUSH2 0x392C JUMP JUMPDEST PUSH1 0x0 SWAP2 DUP3 MSTORE PUSH1 0x20 SWAP1 SWAP2 KECCAK256 PUSH1 0x2 SWAP1 SWAP2 MUL ADD SLOAD PUSH1 0x1 PUSH1 0x1 PUSH1 0xA0 SHL SUB AND EQ ISZERO PUSH2 0x2CB3 JUMPI PUSH2 0x2CB1 PUSH1 0x6 DUP3 DUP2 SLOAD DUP2 LT PUSH2 0x2C69 JUMPI PUSH2 0x2C69 PUSH2 0x392C JUMP JUMPDEST PUSH1 0x0 SWAP2 DUP3 MSTORE PUSH1 0x20 SWAP1 SWAP2 KECCAK256 PUSH1 0x2 SWAP1 SWAP2 MUL ADD SLOAD PUSH1 0x6 DUP1 SLOAD PUSH1 0x1 PUSH1 0x1 PUSH1 0xA0 SHL SUB SWAP1 SWAP3 AND SWAP2 DUP5 SWAP1 DUP2 LT PUSH2 0x2C9A JUMPI PUSH2 0x2C9A PUSH2 0x392C JUMP JUMPDEST SWAP1 PUSH1 0x0 MSTORE PUSH1 0x20 PUSH1 0x0 KECCAK256 SWAP1 PUSH1 0x2 MUL ADD PUSH1 0x1 ADD SLOAD PUSH2 0x3740 JUMP JUMPDEST POP JUMPDEST PUSH1 0x0 NOT ADD PUSH2 0x2C0E JUMP JUMPDEST POP PUSH2 0x2D58 JUMP JUMPDEST PUSH1 0x0 JUMPDEST DUP2 DUP2 LT ISZERO PUSH2 0x2D56 JUMPI DUP5 PUSH1 0x1 PUSH1 0x1 PUSH1 0xA0 SHL SUB AND PUSH1 0x6 DUP3 DUP2 SLOAD DUP2 LT PUSH2 0x2CEA JUMPI PUSH2 0x2CEA PUSH2 0x392C JUMP JUMPDEST PUSH1 0x0 SWAP2 DUP3 MSTORE PUSH1 0x20 SWAP1 SWAP2 KECCAK256 PUSH1 0x2 SWAP1 SWAP2 MUL ADD SLOAD PUSH1 0x1 PUSH1 0x1 PUSH1 0xA0 SHL SUB AND EQ DUP1 ISZERO PUSH2 0x2D34 JUMPI POP DUP4 PUSH1 0x6 DUP3 DUP2 SLOAD DUP2 LT PUSH2 0x2D20 JUMPI PUSH2 0x2D20 PUSH2 0x392C JUMP JUMPDEST SWAP1 PUSH1 0x0 MSTORE PUSH1 0x20 PUSH1 0x0 KECCAK256 SWAP1 PUSH1 0x2 MUL ADD PUSH1 0x1 ADD SLOAD EQ JUMPDEST ISZERO PUSH2 0x2D44 JUMPI PUSH1 0x0 SWAP3 POP POP POP PUSH2 0xCDF JUMP JUMPDEST DUP1 PUSH2 0x2D4E DUP2 PUSH2 0x3997 JUMP JUMPDEST SWAP2 POP POP PUSH2 0x2CC5 JUMP JUMPDEST POP JUMPDEST PUSH1 0x40 DUP1 MLOAD DUP1 DUP3 ADD SWAP1 SWAP2 MSTORE PUSH1 0x1 PUSH1 0x1 PUSH1 0xA0 SHL SUB DUP6 DUP2 AND DUP3 MSTORE PUSH1 0x20 DUP3 ADD DUP6 DUP2 MSTORE PUSH1 0x6 DUP1 SLOAD PUSH1 0x1 DUP2 ADD DUP3 SSTORE PUSH1 0x0 SWAP2 SWAP1 SWAP2 MSTORE SWAP3 MLOAD PUSH32 0xF652222313E28459528D920B65115C16C04F3EFC82AAEDC97BE59F3F377C0D3F PUSH1 0x2 SWAP1 SWAP5 MUL SWAP4 DUP5 ADD DUP1 SLOAD PUSH1 0x1 PUSH1 0x1 PUSH1 0xA0 SHL SUB NOT AND SWAP2 SWAP1 SWAP4 AND OR SWAP1 SWAP2 SSTORE MLOAD PUSH32 0xF652222313E28459528D920B65115C16C04F3EFC82AAEDC97BE59F3F377C0D40 SWAP1 SWAP2 ADD SSTORE POP PUSH1 0x1 SWAP4 SWAP3 POP POP POP JUMP JUMPDEST PUSH1 0x0 DUP2 MLOAD DUP4 MLOAD EQ PUSH2 0x2E08 JUMPI POP PUSH1 0x0 PUSH2 0xCDF JUMP JUMPDEST PUSH1 0x0 JUMPDEST DUP4 MLOAD DUP2 LT ISZERO PUSH2 0x2E7D JUMPI DUP3 DUP2 DUP2 MLOAD DUP2 LT PUSH2 0x2E26 JUMPI PUSH2 0x2E26 PUSH2 0x392C JUMP JUMPDEST PUSH1 0x20 ADD ADD MLOAD PUSH1 0xF8 SHR PUSH1 0xF8 SHL PUSH1 0x1 PUSH1 0x1 PUSH1 0xF8 SHL SUB NOT AND DUP5 DUP3 DUP2 MLOAD DUP2 LT PUSH2 0x2E4D JUMPI PUSH2 0x2E4D PUSH2 0x392C JUMP JUMPDEST ADD PUSH1 0x20 ADD MLOAD PUSH1 0x1 PUSH1 0x1 PUSH1 0xF8 SHL SUB NOT AND EQ PUSH2 0x2E6B JUMPI PUSH1 0x0 SWAP2 POP POP PUSH2 0xCDF JUMP JUMPDEST DUP1 PUSH2 0x2E75 DUP2 PUSH2 0x3997 JUMP JUMPDEST SWAP2 POP POP PUSH2 0x2E0B JUMP JUMPDEST POP PUSH1 0x1 SWAP4 SWAP3 POP POP POP JUMP JUMPDEST PUSH1 0x0 DUP2 DUP2 MSTORE PUSH1 0x8 PUSH1 0x20 MSTORE PUSH1 0x40 DUP2 KECCAK256 DUP1 SLOAD PUSH2 0x2EA0 SWAP1 PUSH2 0x3E09 JUMP JUMPDEST ISZERO ISZERO SWAP4 SWAP3 POP POP POP JUMP JUMPDEST PUSH1 0x0 PUSH1 0x1 PUSH1 0x1 PUSH1 0xA0 SHL SUB DUP3 AND ADDRESS EQ ISZERO PUSH2 0x2EC4 JUMPI POP PUSH1 0x1 SWAP2 SWAP1 POP JUMP JUMPDEST PUSH1 0x5 SLOAD JUMPDEST DUP1 ISZERO PUSH2 0x2F2B JUMPI PUSH1 0x1 PUSH1 0x1 PUSH1 0xA0 SHL SUB DUP4 AND PUSH1 0x5 PUSH2 0x2EE5 PUSH1 0x1 DUP5 PUSH2 0x3FE8 JUMP JUMPDEST DUP2 SLOAD DUP2 LT PUSH2 0x2EF5 JUMPI PUSH2 0x2EF5 PUSH2 0x392C JUMP JUMPDEST PUSH1 0x0 SWAP2 DUP3 MSTORE PUSH1 0x20 SWAP1 SWAP2 KECCAK256 ADD SLOAD PUSH1 0x1 PUSH1 0x1 PUSH1 0xA0 SHL SUB AND EQ ISZERO PUSH2 0x2F19 JUMPI POP PUSH1 0x1 SWAP3 SWAP2 POP POP JUMP JUMPDEST DUP1 PUSH2 0x2F23 DUP2 PUSH2 0x3FFF JUMP JUMPDEST SWAP2 POP POP PUSH2 0x2EC8 JUMP JUMPDEST POP PUSH1 0x0 SWAP3 SWAP2 POP POP JUMP JUMPDEST PUSH1 0x4 SLOAD PUSH1 0x0 SWAP1 JUMPDEST DUP1 ISZERO PUSH2 0x2FDE JUMPI PUSH1 0x1 PUSH1 0x1 PUSH1 0xA0 SHL SUB DUP5 AND PUSH1 0x4 PUSH2 0x2F58 PUSH1 0x1 DUP5 PUSH2 0x3FE8 JUMP JUMPDEST DUP2 SLOAD DUP2 LT PUSH2 0x2F68 JUMPI PUSH2 0x2F68 PUSH2 0x392C JUMP JUMPDEST PUSH1 0x0 SWAP2 DUP3 MSTORE PUSH1 0x20 SWAP1 SWAP2 KECCAK256 PUSH1 0x2 SWAP1 SWAP2 MUL ADD SLOAD PUSH1 0x1 PUSH1 0x1 PUSH1 0xA0 SHL SUB AND EQ DUP1 ISZERO PUSH2 0x2FBD JUMPI POP PUSH1 0x4 PUSH2 0x2F97 PUSH1 0x1 DUP4 PUSH2 0x3FE8 JUMP JUMPDEST DUP2 SLOAD DUP2 LT PUSH2 0x2FA7 JUMPI PUSH2 0x2FA7 PUSH2 0x392C JUMP JUMPDEST SWAP1 PUSH1 0x0 MSTORE PUSH1 0x20 PUSH1 0x0 KECCAK256 SWAP1 PUSH1 0x2 MUL ADD PUSH1 0x1 ADD SLOAD PUSH1 0x0 EQ JUMPDEST ISZERO PUSH2 0x2FCC JUMPI PUSH1 0x0 SWAP2 POP POP PUSH2 0xCDF JUMP JUMPDEST DUP1 PUSH2 0x2FD6 DUP2 PUSH2 0x3FFF JUMP JUMPDEST SWAP2 POP POP PUSH2 0x2F3B JUMP JUMPDEST POP DUP2 PUSH2 0x30CD JUMPI JUMPDEST PUSH1 0x4 SLOAD JUMPDEST DUP1 ISZERO PUSH2 0x30BC JUMPI PUSH1 0x1 PUSH1 0x1 PUSH1 0xA0 SHL SUB DUP5 AND PUSH1 0x4 PUSH2 0x3006 PUSH1 0x1 DUP5 PUSH2 0x3FE8 JUMP JUMPDEST DUP2 SLOAD DUP2 LT PUSH2 0x3016 JUMPI PUSH2 0x3016 PUSH2 0x392C JUMP JUMPDEST PUSH1 0x0 SWAP2 DUP3 MSTORE PUSH1 0x20 SWAP1 SWAP2 KECCAK256 PUSH1 0x2 SWAP1 SWAP2 MUL ADD SLOAD PUSH1 0x1 PUSH1 0x1 PUSH1 0xA0 SHL SUB AND EQ ISZERO PUSH2 0x30AA JUMPI PUSH2 0x30A4 PUSH1 0x4 PUSH2 0x3046 PUSH1 0x1 DUP5 PUSH2 0x3FE8 JUMP JUMPDEST DUP2 SLOAD DUP2 LT PUSH2 0x3056 JUMPI PUSH2 0x3056 PUSH2 0x392C JUMP JUMPDEST PUSH1 0x0 SWAP2 DUP3 MSTORE PUSH1 0x20 SWAP1 SWAP2 KECCAK256 PUSH1 0x2 SWAP1 SWAP2 MUL ADD SLOAD PUSH1 0x1 PUSH1 0x1 PUSH1 0xA0 SHL SUB AND PUSH1 0x4 PUSH2 0x307D PUSH1 0x1 DUP6 PUSH2 0x3FE8 JUMP JUMPDEST DUP2 SLOAD DUP2 LT PUSH2 0x308D JUMPI PUSH2 0x308D PUSH2 0x392C JUMP JUMPDEST SWAP1 PUSH1 0x0 MSTORE PUSH1 0x20 PUSH1 0x0 KECCAK256 SWAP1 PUSH1 0x2 MUL ADD PUSH1 0x1 ADD SLOAD PUSH2 0x32BB JUMP JUMPDEST POP PUSH2 0x30BC JUMP JUMPDEST DUP1 PUSH2 0x30B4 DUP2 PUSH2 0x3FFF JUMP JUMPDEST SWAP2 POP POP PUSH2 0x2FE9 JUMP JUMPDEST DUP1 PUSH2 0x30C7 JUMPI POP PUSH2 0x3175 JUMP JUMPDEST POP PUSH2 0x2FE5 JUMP JUMPDEST PUSH1 0x4 SLOAD JUMPDEST DUP1 ISZERO PUSH2 0x3173 JUMPI PUSH1 0x1 PUSH1 0x1 PUSH1 0xA0 SHL SUB DUP5 AND PUSH1 0x4 PUSH2 0x30EE PUSH1 0x1 DUP5 PUSH2 0x3FE8 JUMP JUMPDEST DUP2 SLOAD DUP2 LT PUSH2 0x30FE JUMPI PUSH2 0x30FE PUSH2 0x392C JUMP JUMPDEST PUSH1 0x0 SWAP2 DUP3 MSTORE PUSH1 0x20 SWAP1 SWAP2 KECCAK256 PUSH1 0x2 SWAP1 SWAP2 MUL ADD SLOAD PUSH1 0x1 PUSH1 0x1 PUSH1 0xA0 SHL SUB AND EQ DUP1 ISZERO PUSH2 0x3152 JUMPI POP DUP3 PUSH1 0x4 PUSH2 0x312E PUSH1 0x1 DUP5 PUSH2 0x3FE8 JUMP JUMPDEST DUP2 SLOAD DUP2 LT PUSH2 0x313E JUMPI PUSH2 0x313E PUSH2 0x392C JUMP JUMPDEST SWAP1 PUSH1 0x0 MSTORE PUSH1 0x20 PUSH1 0x0 KECCAK256 SWAP1 PUSH1 0x2 MUL ADD PUSH1 0x1 ADD SLOAD EQ JUMPDEST ISZERO PUSH2 0x3161 JUMPI PUSH1 0x0 SWAP2 POP POP PUSH2 0xCDF JUMP JUMPDEST DUP1 PUSH2 0x316B DUP2 PUSH2 0x3FFF JUMP JUMPDEST SWAP2 POP POP PUSH2 0x30D1 JUMP JUMPDEST POP JUMPDEST PUSH1 0x40 DUP1 MLOAD DUP1 DUP3 ADD SWAP1 SWAP2 MSTORE PUSH1 0x1 PUSH1 0x1 PUSH1 0xA0 SHL SUB DUP5 DUP2 AND DUP3 MSTORE PUSH1 0x20 DUP3 ADD DUP5 DUP2 MSTORE PUSH1 0x4 DUP1 SLOAD PUSH1 0x1 DUP2 ADD DUP3 SSTORE PUSH1 0x0 SWAP2 SWAP1 SWAP2 MSTORE SWAP3 MLOAD PUSH32 0x8A35ACFBC15FF81A39AE7D344FD709F28E8600B4AA8C65C6B64BFE7FE36BD19B PUSH1 0x2 SWAP1 SWAP5 MUL SWAP4 DUP5 ADD DUP1 SLOAD PUSH1 0x1 PUSH1 0x1 PUSH1 0xA0 SHL SUB NOT AND SWAP2 SWAP1 SWAP4 AND OR SWAP1 SWAP2 SSTORE MLOAD PUSH32 0x8A35ACFBC15FF81A39AE7D344FD709F28E8600B4AA8C65C6B64BFE7FE36BD19C SWAP1 SWAP2 ADD SSTORE POP PUSH1 0x1 SWAP3 SWAP2 POP POP JUMP JUMPDEST PUSH1 0x0 SLOAD PUSH1 0x1 PUSH1 0x1 PUSH1 0xA0 SHL SUB AND CALLER EQ PUSH2 0xC9D JUMPI PUSH1 0x40 MLOAD PUSH3 0x461BCD PUSH1 0xE5 SHL DUP2 MSTORE PUSH1 0x20 PUSH1 0x4 DUP3 ADD MSTORE PUSH1 0x1F PUSH1 0x24 DUP3 ADD MSTORE PUSH32 0x416C6C6F77616E63653A2063616C6C6572206D757374206265204F776E657200 PUSH1 0x44 DUP3 ADD MSTORE PUSH1 0x64 ADD PUSH2 0xC94 JUMP JUMPDEST PUSH1 0x0 DUP1 SLOAD PUSH1 0x1 PUSH1 0x1 PUSH1 0xA0 SHL SUB DUP4 DUP2 AND PUSH1 0x1 PUSH1 0x1 PUSH1 0xA0 SHL SUB NOT DUP4 AND DUP2 OR DUP5 SSTORE PUSH1 0x40 MLOAD SWAP2 SWAP1 SWAP3 AND SWAP3 DUP4 SWAP2 PUSH32 0x8BE0079C531659141344CD1FD0A4F28419497F9722A3DAAFE3B4186F6B6457E0 SWAP2 SWAP1 LOG3 POP POP JUMP JUMPDEST PUSH1 0x4 SLOAD PUSH1 0x0 SWAP1 DUP2 JUMPDEST DUP2 DUP2 LT ISZERO PUSH2 0x2348 JUMPI DUP5 PUSH1 0x1 PUSH1 0x1 PUSH1 0xA0 SHL SUB AND PUSH1 0x4 DUP3 DUP2 SLOAD DUP2 LT PUSH2 0x32E8 JUMPI PUSH2 0x32E8 PUSH2 0x392C JUMP JUMPDEST PUSH1 0x0 SWAP2 DUP3 MSTORE PUSH1 0x20 SWAP1 SWAP2 KECCAK256 PUSH1 0x2 SWAP1 SWAP2 MUL ADD SLOAD PUSH1 0x1 PUSH1 0x1 PUSH1 0xA0 SHL SUB AND EQ DUP1 ISZERO PUSH2 0x3332 JUMPI POP DUP4 PUSH1 0x4 DUP3 DUP2 SLOAD DUP2 LT PUSH2 0x331E JUMPI PUSH2 0x331E PUSH2 0x392C JUMP JUMPDEST SWAP1 PUSH1 0x0 MSTORE PUSH1 0x20 PUSH1 0x0 KECCAK256 SWAP1 PUSH1 0x2 MUL ADD PUSH1 0x1 ADD SLOAD EQ JUMPDEST ISZERO PUSH2 0x3405 JUMPI PUSH2 0x3342 PUSH1 0x1 DUP4 PUSH2 0x3FE8 JUMP JUMPDEST DUP2 LT ISZERO PUSH2 0x33C0 JUMPI PUSH1 0x4 PUSH2 0x3356 PUSH1 0x1 DUP5 PUSH2 0x3FE8 JUMP JUMPDEST DUP2 SLOAD DUP2 LT PUSH2 0x3366 JUMPI PUSH2 0x3366 PUSH2 0x392C JUMP JUMPDEST SWAP1 PUSH1 0x0 MSTORE PUSH1 0x20 PUSH1 0x0 KECCAK256 SWAP1 PUSH1 0x2 MUL ADD PUSH1 0x4 DUP3 DUP2 SLOAD DUP2 LT PUSH2 0x3387 JUMPI PUSH2 0x3387 PUSH2 0x392C JUMP JUMPDEST PUSH1 0x0 SWAP2 DUP3 MSTORE PUSH1 0x20 SWAP1 SWAP2 KECCAK256 DUP3 SLOAD PUSH1 0x2 SWAP1 SWAP3 MUL ADD DUP1 SLOAD PUSH1 0x1 PUSH1 0x1 PUSH1 0xA0 SHL SUB NOT AND PUSH1 0x1 PUSH1 0x1 PUSH1 0xA0 SHL SUB SWAP1 SWAP3 AND SWAP2 SWAP1 SWAP2 OR DUP2 SSTORE PUSH1 0x1 SWAP2 DUP3 ADD SLOAD SWAP2 ADD SSTORE JUMPDEST PUSH1 0x4 DUP1 SLOAD DUP1 PUSH2 0x33D1 JUMPI PUSH2 0x33D1 PUSH2 0x40CE JUMP JUMPDEST PUSH1 0x0 DUP3 DUP2 MSTORE PUSH1 0x20 DUP2 KECCAK256 PUSH1 0x2 PUSH1 0x0 NOT SWAP1 SWAP4 ADD SWAP3 DUP4 MUL ADD DUP1 SLOAD PUSH1 0x1 PUSH1 0x1 PUSH1 0xA0 SHL SUB NOT AND DUP2 SSTORE PUSH1 0x1 ADD SSTORE SWAP1 SSTORE PUSH1 0x1 SWAP3 POP POP POP PUSH2 0xCDF JUMP JUMPDEST DUP1 PUSH2 0x340F DUP2 PUSH2 0x3997 JUMP JUMPDEST SWAP2 POP POP PUSH2 0x32C3 JUMP JUMPDEST PUSH1 0x5 SLOAD PUSH1 0x0 SWAP1 JUMPDEST DUP1 ISZERO PUSH2 0x3481 JUMPI PUSH1 0x1 PUSH1 0x1 PUSH1 0xA0 SHL SUB DUP4 AND PUSH1 0x5 PUSH2 0x343B PUSH1 0x1 DUP5 PUSH2 0x3FE8 JUMP JUMPDEST DUP2 SLOAD DUP2 LT PUSH2 0x344B JUMPI PUSH2 0x344B PUSH2 0x392C JUMP JUMPDEST PUSH1 0x0 SWAP2 DUP3 MSTORE PUSH1 0x20 SWAP1 SWAP2 KECCAK256 ADD SLOAD PUSH1 0x1 PUSH1 0x1 PUSH1 0xA0 SHL SUB AND EQ ISZERO PUSH2 0x346F JUMPI POP PUSH1 0x0 SWAP3 SWAP2 POP POP JUMP JUMPDEST DUP1 PUSH2 0x3479 DUP2 PUSH2 0x3FFF JUMP JUMPDEST SWAP2 POP POP PUSH2 0x341E JUMP JUMPDEST PUSH1 0x5 DUP1 SLOAD PUSH1 0x1 DUP2 ADD DUP3 SSTORE PUSH1 0x0 SWAP2 SWAP1 SWAP2 MSTORE PUSH32 0x36B6384B5ECA791C62761152D0C79BB0604C104A5FB6F4EB0703F3154BB3DB0 ADD DUP1 SLOAD PUSH1 0x1 PUSH1 0x1 PUSH1 0xA0 SHL SUB NOT AND PUSH1 0x1 PUSH1 0x1 PUSH1 0xA0 SHL SUB DUP6 AND OR SWAP1 SSTORE POP PUSH1 0x1 SWAP3 SWAP2 POP POP JUMP JUMPDEST PUSH1 0x0 PUSH2 0x1033 PUSH20 0x0 PUSH4 0xDE874ED DUP6 DUP6 PUSH1 0x40 MLOAD DUP4 PUSH4 0xFFFFFFFF AND PUSH1 0xE0 SHL DUP2 MSTORE PUSH1 0x4 ADD PUSH2 0x162A SWAP3 SWAP2 SWAP1 PUSH2 0x3A8B JUMP JUMPDEST PUSH1 0x0 PUSH1 0x1 PUSH1 0x1 PUSH1 0xA0 SHL SUB DUP4 AND PUSH2 0x352B JUMPI POP PUSH1 0x1 PUSH2 0xCDF JUMP JUMPDEST PUSH20 0x0 PUSH4 0x3646B548 PUSH2 0x354F DUP6 DUP6 PUSH2 0x2614 JUMP JUMPDEST PUSH1 0x40 MLOAD DUP3 PUSH4 0xFFFFFFFF AND PUSH1 0xE0 SHL DUP2 MSTORE PUSH1 0x4 ADD PUSH2 0x2939 SWAP2 SWAP1 PUSH2 0x3A3F JUMP JUMPDEST PUSH1 0x7 SLOAD PUSH1 0x0 SWAP1 PUSH1 0xFF AND ISZERO ISZERO DUP3 ISZERO ISZERO EQ ISZERO PUSH2 0x3587 JUMPI POP PUSH1 0x0 SWAP2 SWAP1 POP JUMP JUMPDEST PUSH1 0x7 DUP1 SLOAD PUSH1 0xFF NOT AND DUP4 ISZERO ISZERO OR SWAP1 SSTORE POP PUSH1 0x1 SWAP2 SWAP1 POP JUMP JUMPDEST PUSH1 0x5 SLOAD PUSH1 0x0 SWAP1 DUP2 JUMPDEST DUP2 DUP2 LT ISZERO PUSH2 0x2075 JUMPI DUP4 PUSH1 0x1 PUSH1 0x1 PUSH1 0xA0 SHL SUB AND PUSH1 0x5 DUP3 DUP2 SLOAD DUP2 LT PUSH2 0x35CA JUMPI PUSH2 0x35CA PUSH2 0x392C JUMP JUMPDEST PUSH1 0x0 SWAP2 DUP3 MSTORE PUSH1 0x20 SWAP1 SWAP2 KECCAK256 ADD SLOAD PUSH1 0x1 PUSH1 0x1 PUSH1 0xA0 SHL SUB AND EQ ISZERO PUSH2 0x36AC JUMPI PUSH2 0x35F0 PUSH1 0x1 DUP4 PUSH2 0x3FE8 JUMP JUMPDEST DUP2 LT ISZERO PUSH2 0x366F JUMPI PUSH1 0x5 PUSH2 0x3604 PUSH1 0x1 DUP5 PUSH2 0x3FE8 JUMP JUMPDEST DUP2 SLOAD DUP2 LT PUSH2 0x3614 JUMPI PUSH2 0x3614 PUSH2 0x392C JUMP JUMPDEST PUSH1 0x0 SWAP2 DUP3 MSTORE PUSH1 0x20 SWAP1 SWAP2 KECCAK256 ADD SLOAD PUSH1 0x5 DUP1 SLOAD PUSH1 0x1 PUSH1 0x1 PUSH1 0xA0 SHL SUB SWAP1 SWAP3 AND SWAP2 DUP4 SWAP1 DUP2 LT PUSH2 0x3640 JUMPI PUSH2 0x3640 PUSH2 0x392C JUMP JUMPDEST SWAP1 PUSH1 0x0 MSTORE PUSH1 0x20 PUSH1 0x0 KECCAK256 ADD PUSH1 0x0 PUSH2 0x100 EXP DUP2 SLOAD DUP2 PUSH1 0x1 PUSH1 0x1 PUSH1 0xA0 SHL SUB MUL NOT AND SWAP1 DUP4 PUSH1 0x1 PUSH1 0x1 PUSH1 0xA0 SHL SUB AND MUL OR SWAP1 SSTORE POP JUMPDEST PUSH1 0x5 DUP1 SLOAD DUP1 PUSH2 0x3680 JUMPI PUSH2 0x3680 PUSH2 0x40CE JUMP JUMPDEST PUSH1 0x0 DUP3 DUP2 MSTORE PUSH1 0x20 SWAP1 KECCAK256 DUP2 ADD PUSH1 0x0 NOT SWAP1 DUP2 ADD DUP1 SLOAD PUSH1 0x1 PUSH1 0x1 PUSH1 0xA0 SHL SUB NOT AND SWAP1 SSTORE ADD SWAP1 SSTORE POP PUSH1 0x1 SWAP4 SWAP3 POP POP POP JUMP JUMPDEST DUP1 PUSH2 0x36B6 DUP2 PUSH2 0x3997 JUMP JUMPDEST SWAP2 POP POP PUSH2 0x35A5 JUMP JUMPDEST PUSH1 0x0 DUP1 PUSH2 0x36CA DUP4 PUSH2 0x14AA JUMP JUMPDEST PUSH1 0x40 MLOAD PUSH4 0x14130A79 PUSH1 0xE3 SHL DUP2 MSTORE PUSH20 0x0 SWAP2 PUSH4 0xA09853C8 SWAP2 PUSH2 0x3700 SWAP2 SWAP1 PUSH1 0x4 ADD PUSH2 0x3C06 JUMP JUMPDEST PUSH1 0x40 DUP1 MLOAD DUP1 DUP4 SUB DUP2 DUP7 GAS DELEGATECALL ISZERO DUP1 ISZERO PUSH2 0x371C JUMPI RETURNDATASIZE PUSH1 0x0 DUP1 RETURNDATACOPY RETURNDATASIZE PUSH1 0x0 REVERT JUMPDEST POP POP POP POP PUSH1 0x40 MLOAD RETURNDATASIZE PUSH1 0x1F NOT PUSH1 0x1F DUP3 ADD AND DUP3 ADD DUP1 PUSH1 0x40 MSTORE POP DUP2 ADD SWAP1 PUSH2 0xE2B SWAP2 SWAP1 PUSH2 0x40E4 JUMP JUMPDEST PUSH1 0x6 SLOAD PUSH1 0x0 SWAP1 DUP2 JUMPDEST DUP2 DUP2 LT ISZERO PUSH2 0x2348 JUMPI DUP5 PUSH1 0x1 PUSH1 0x1 PUSH1 0xA0 SHL SUB AND PUSH1 0x6 DUP3 DUP2 SLOAD DUP2 LT PUSH2 0x376D JUMPI PUSH2 0x376D PUSH2 0x392C JUMP JUMPDEST PUSH1 0x0 SWAP2 DUP3 MSTORE PUSH1 0x20 SWAP1 SWAP2 KECCAK256 PUSH1 0x2 SWAP1 SWAP2 MUL ADD SLOAD PUSH1 0x1 PUSH1 0x1 PUSH1 0xA0 SHL SUB AND EQ DUP1 ISZERO PUSH2 0x37B7 JUMPI POP DUP4 PUSH1 0x6 DUP3 DUP2 SLOAD DUP2 LT PUSH2 0x37A3 JUMPI PUSH2 0x37A3 PUSH2 0x392C JUMP JUMPDEST SWAP1 PUSH1 0x0 MSTORE PUSH1 0x20 PUSH1 0x0 KECCAK256 SWAP1 PUSH1 0x2 MUL ADD PUSH1 0x1 ADD SLOAD EQ JUMPDEST ISZERO PUSH2 0x3856 JUMPI PUSH2 0x37C7 PUSH1 0x1 DUP4 PUSH2 0x3FE8 JUMP JUMPDEST DUP2 LT ISZERO PUSH2 0x3845 JUMPI PUSH1 0x6 PUSH2 0x37DB PUSH1 0x1 DUP5 PUSH2 0x3FE8 JUMP JUMPDEST DUP2 SLOAD DUP2 LT PUSH2 0x37EB JUMPI PUSH2 0x37EB PUSH2 0x392C JUMP JUMPDEST SWAP1 PUSH1 0x0 MSTORE PUSH1 0x20 PUSH1 0x0 KECCAK256 SWAP1 PUSH1 0x2 MUL ADD PUSH1 0x6 DUP3 DUP2 SLOAD DUP2 LT PUSH2 0x380C JUMPI PUSH2 0x380C PUSH2 0x392C JUMP JUMPDEST PUSH1 0x0 SWAP2 DUP3 MSTORE PUSH1 0x20 SWAP1 SWAP2 KECCAK256 DUP3 SLOAD PUSH1 0x2 SWAP1 SWAP3 MUL ADD DUP1 SLOAD PUSH1 0x1 PUSH1 0x1 PUSH1 0xA0 SHL SUB NOT AND PUSH1 0x1 PUSH1 0x1 PUSH1 0xA0 SHL SUB SWAP1 SWAP3 AND SWAP2 SWAP1 SWAP2 OR DUP2 SSTORE PUSH1 0x1 SWAP2 DUP3 ADD SLOAD SWAP2 ADD SSTORE JUMPDEST PUSH1 0x6 DUP1 SLOAD DUP1 PUSH2 0x33D1 JUMPI PUSH2 0x33D1 PUSH2 0x40CE JUMP JUMPDEST DUP1 PUSH2 0x3860 DUP2 PUSH2 0x3997 JUMP JUMPDEST SWAP2 POP POP PUSH2 0x3748 JUMP JUMPDEST DUP3 DUP1 SLOAD PUSH2 0x3874 SWAP1 PUSH2 0x3E09 JUMP JUMPDEST SWAP1 PUSH1 0x0 MSTORE PUSH1 0x20 PUSH1 0x0 KECCAK256 SWAP1 PUSH1 0x1F ADD PUSH1 0x20 SWAP1 DIV DUP2 ADD SWAP3 DUP3 PUSH2 0x3896 JUMPI PUSH1 0x0 DUP6 SSTORE PUSH2 0x38DC JUMP JUMPDEST DUP3 PUSH1 0x1F LT PUSH2 0x38AF JUMPI DUP1 MLOAD PUSH1 0xFF NOT AND DUP4 DUP1 ADD OR DUP6 SSTORE PUSH2 0x38DC JUMP JUMPDEST DUP3 DUP1 ADD PUSH1 0x1 ADD DUP6 SSTORE DUP3 ISZERO PUSH2 0x38DC JUMPI SWAP2 DUP3 ADD JUMPDEST DUP3 DUP2 GT ISZERO PUSH2 0x38DC JUMPI DUP3 MLOAD DUP3 SSTORE SWAP2 PUSH1 0x20 ADD SWAP2 SWAP1 PUSH1 0x1 ADD SWAP1 PUSH2 0x38C1 JUMP JUMPDEST POP PUSH2 0x38E8 SWAP3 SWAP2 POP PUSH2 0x38EC JUMP JUMPDEST POP SWAP1 JUMP JUMPDEST JUMPDEST DUP1 DUP3 GT ISZERO PUSH2 0x38E8 JUMPI PUSH1 0x0 DUP2 SSTORE PUSH1 0x1 ADD PUSH2 0x38ED JUMP JUMPDEST DUP1 ISZERO ISZERO DUP2 EQ PUSH2 0x2A88 JUMPI PUSH1 0x0 DUP1 REVERT JUMPDEST PUSH1 0x0 PUSH1 0x20 DUP3 DUP5 SUB SLT ISZERO PUSH2 0x3921 JUMPI PUSH1 0x0 DUP1 REVERT JUMPDEST DUP2 MLOAD PUSH2 0x1033 DUP2 PUSH2 0x3901 JUMP JUMPDEST PUSH4 0x4E487B71 PUSH1 0xE0 SHL PUSH1 0x0 MSTORE PUSH1 0x32 PUSH1 0x4 MSTORE PUSH1 0x24 PUSH1 0x0 REVERT JUMPDEST PUSH1 0x0 PUSH1 0x20 DUP3 DUP5 SUB SLT ISZERO PUSH2 0x3954 JUMPI PUSH1 0x0 DUP1 REVERT JUMPDEST POP MLOAD SWAP2 SWAP1 POP JUMP JUMPDEST PUSH4 0x4E487B71 PUSH1 0xE0 SHL PUSH1 0x0 MSTORE PUSH1 0x21 PUSH1 0x4 MSTORE PUSH1 0x24 PUSH1 0x0 REVERT JUMPDEST DUP2 DUP4 DUP3 CALLDATACOPY PUSH1 0x0 SWAP2 ADD SWAP1 DUP2 MSTORE SWAP2 SWAP1 POP JUMP JUMPDEST PUSH4 0x4E487B71 PUSH1 0xE0 SHL PUSH1 0x0 MSTORE PUSH1 0x11 PUSH1 0x4 MSTORE PUSH1 0x24 PUSH1 0x0 REVERT JUMPDEST PUSH1 0x0 PUSH1 0x0 NOT DUP3 EQ ISZERO PUSH2 0x39AB JUMPI PUSH2 0x39AB PUSH2 0x3981 JUMP JUMPDEST POP PUSH1 0x1 ADD SWAP1 JUMP JUMPDEST DUP1 CALLDATALOAD PUSH1 0x1 PUSH1 0x1 PUSH1 0xE0 SHL SUB NOT DUP2 AND DUP2 EQ PUSH2 0x14A5 JUMPI PUSH1 0x0 DUP1 REVERT JUMPDEST PUSH1 0x0 PUSH1 0x20 DUP3 DUP5 SUB SLT ISZERO PUSH2 0x39DC JUMPI PUSH1 0x0 DUP1 REVERT JUMPDEST PUSH2 0x1033 DUP3 PUSH2 0x39B2 JUMP JUMPDEST PUSH1 0x1 PUSH1 0x1 PUSH1 0xA0 SHL SUB DUP2 AND DUP2 EQ PUSH2 0x2A88 JUMPI PUSH1 0x0 DUP1 REVERT JUMPDEST PUSH1 0x0 DUP1 PUSH1 0x40 DUP4 DUP6 SUB SLT ISZERO PUSH2 0x3A0D JUMPI PUSH1 0x0 DUP1 REVERT JUMPDEST DUP3 CALLDATALOAD PUSH2 0x3A18 DUP2 PUSH2 0x39E5 JUMP JUMPDEST SWAP5 PUSH1 0x20 SWAP4 SWAP1 SWAP4 ADD CALLDATALOAD SWAP4 POP POP POP JUMP JUMPDEST PUSH1 0x0 PUSH1 0x20 DUP3 DUP5 SUB SLT ISZERO PUSH2 0x3A38 JUMPI PUSH1 0x0 DUP1 REVERT JUMPDEST POP CALLDATALOAD SWAP2 SWAP1 POP JUMP JUMPDEST DUP2 MLOAD PUSH1 0x0 SIGNEXTEND DUP2 MSTORE PUSH1 0x20 DUP1 DUP4 ADD MLOAD ISZERO ISZERO SWAP1 DUP3 ADD MSTORE PUSH1 0x40 DUP1 DUP4 ADD MLOAD PUSH1 0x1 PUSH1 0x1 PUSH1 0x40 SHL SUB AND SWAP1 DUP3 ADD MSTORE PUSH1 0x60 DUP2 ADD PUSH2 0xCDF JUMP JUMPDEST PUSH1 0x0 PUSH1 0x20 DUP3 DUP5 SUB SLT ISZERO PUSH2 0x3A80 JUMPI PUSH1 0x0 DUP1 REVERT JUMPDEST DUP2 CALLDATALOAD PUSH2 0x1033 DUP2 PUSH2 0x39E5 JUMP JUMPDEST PUSH1 0x1 PUSH1 0x1 PUSH1 0xA0 SHL SUB SWAP3 SWAP1 SWAP3 AND DUP3 MSTORE PUSH1 0x20 DUP3 ADD MSTORE PUSH1 0x40 ADD SWAP1 JUMP JUMPDEST PUSH1 0x0 JUMPDEST DUP4 DUP2 LT ISZERO PUSH2 0x3ABF JUMPI DUP2 DUP2 ADD MLOAD DUP4 DUP3 ADD MSTORE PUSH1 0x20 ADD PUSH2 0x3AA7 JUMP JUMPDEST DUP4 DUP2 GT ISZERO PUSH2 0x3ACE JUMPI PUSH1 0x0 DUP5 DUP5 ADD MSTORE JUMPDEST POP POP POP POP JUMP JUMPDEST PUSH1 0x0 DUP2 MLOAD DUP1 DUP5 MSTORE PUSH2 0x3AEC DUP2 PUSH1 0x20 DUP7 ADD PUSH1 0x20 DUP7 ADD PUSH2 0x3AA4 JUMP JUMPDEST PUSH1 0x1F ADD PUSH1 0x1F NOT AND SWAP3 SWAP1 SWAP3 ADD PUSH1 0x20 ADD SWAP3 SWAP2 POP POP JUMP JUMPDEST PUSH1 0x20 DUP2 MSTORE PUSH1 0x0 PUSH2 0x1033 PUSH1 0x20 DUP4 ADD DUP5 PUSH2 0x3AD4 JUMP JUMPDEST PUSH4 0x4E487B71 PUSH1 0xE0 SHL PUSH1 0x0 MSTORE PUSH1 0x41 PUSH1 0x4 MSTORE PUSH1 0x24 PUSH1 0x0 REVERT JUMPDEST PUSH1 0x40 MLOAD PUSH1 0x1F DUP3 ADD PUSH1 0x1F NOT AND DUP2 ADD PUSH1 0x1 PUSH1 0x1 PUSH1 0x40 SHL SUB DUP2 GT DUP3 DUP3 LT OR ISZERO PUSH2 0x3B51 JUMPI PUSH2 0x3B51 PUSH2 0x3B13 JUMP JUMPDEST PUSH1 0x40 MSTORE SWAP2 SWAP1 POP JUMP JUMPDEST PUSH1 0x0 PUSH1 0x1 PUSH1 0x1 PUSH1 0x40 SHL SUB DUP3 GT ISZERO PUSH2 0x3B72 JUMPI PUSH2 0x3B72 PUSH2 0x3B13 JUMP JUMPDEST POP PUSH1 0x1F ADD PUSH1 0x1F NOT AND PUSH1 0x20 ADD SWAP1 JUMP JUMPDEST PUSH1 0x0 PUSH2 0x3B93 PUSH2 0x3B8E DUP5 PUSH2 0x3B59 JUMP JUMPDEST PUSH2 0x3B29 JUMP JUMPDEST SWAP1 POP DUP3 DUP2 MSTORE DUP4 DUP4 DUP4 ADD GT ISZERO PUSH2 0x3BA7 JUMPI PUSH1 0x0 DUP1 REVERT JUMPDEST DUP3 DUP3 PUSH1 0x20 DUP4 ADD CALLDATACOPY PUSH1 0x0 PUSH1 0x20 DUP5 DUP4 ADD ADD MSTORE SWAP4 SWAP3 POP POP POP JUMP JUMPDEST PUSH1 0x0 PUSH1 0x20 DUP3 DUP5 SUB SLT ISZERO PUSH2 0x3BD0 JUMPI PUSH1 0x0 DUP1 REVERT JUMPDEST DUP2 CALLDATALOAD PUSH1 0x1 PUSH1 0x1 PUSH1 0x40 SHL SUB DUP2 GT ISZERO PUSH2 0x3BE6 JUMPI PUSH1 0x0 DUP1 REVERT JUMPDEST DUP3 ADD PUSH1 0x1F DUP2 ADD DUP5 SGT PUSH2 0x3BF7 JUMPI PUSH1 0x0 DUP1 REVERT JUMPDEST PUSH2 0xD9B DUP5 DUP3 CALLDATALOAD PUSH1 0x20 DUP5 ADD PUSH2 0x3B80 JUMP JUMPDEST PUSH1 0x20 DUP1 DUP3 MSTORE DUP3 MLOAD DUP3 DUP3 ADD DUP2 SWAP1 MSTORE PUSH1 0x0 SWAP2 SWAP1 DUP5 DUP3 ADD SWAP1 PUSH1 0x40 DUP6 ADD SWAP1 DUP5 JUMPDEST DUP2 DUP2 LT ISZERO PUSH2 0x3C3E JUMPI DUP4 MLOAD DUP4 MSTORE SWAP3 DUP5 ADD SWAP3 SWAP2 DUP5 ADD SWAP2 PUSH1 0x1 ADD PUSH2 0x3C22 JUMP JUMPDEST POP SWAP1 SWAP7 SWAP6 POP POP POP POP POP POP JUMP JUMPDEST PUSH1 0x0 DUP1 PUSH1 0x40 DUP4 DUP6 SUB SLT ISZERO PUSH2 0x3C5D JUMPI PUSH1 0x0 DUP1 REVERT JUMPDEST DUP3 CALLDATALOAD SWAP2 POP PUSH1 0x20 DUP4 ADD CALLDATALOAD PUSH2 0x3C6F DUP2 PUSH2 0x39E5 JUMP JUMPDEST DUP1 SWAP2 POP POP SWAP3 POP SWAP3 SWAP1 POP JUMP JUMPDEST PUSH1 0x0 DUP1 PUSH1 0x40 DUP4 DUP6 SUB SLT ISZERO PUSH2 0x3C8D JUMPI PUSH1 0x0 DUP1 REVERT JUMPDEST POP POP DUP1 CALLDATALOAD SWAP3 PUSH1 0x20 SWAP1 SWAP2 ADD CALLDATALOAD SWAP2 POP JUMP JUMPDEST PUSH1 0x1 PUSH1 0x1 PUSH1 0x40 SHL SUB DUP2 AND DUP2 EQ PUSH2 0x2A88 JUMPI PUSH1 0x0 DUP1 REVERT JUMPDEST PUSH1 0x0 DUP1 PUSH1 0x40 DUP4 DUP6 SUB SLT ISZERO PUSH2 0x3CC4 JUMPI PUSH1 0x0 DUP1 REVERT JUMPDEST DUP3 CALLDATALOAD SWAP2 POP PUSH1 0x20 DUP4 ADD CALLDATALOAD PUSH2 0x3C6F DUP2 PUSH2 0x3C9C JUMP JUMPDEST PUSH1 0x0 PUSH1 0x1 PUSH1 0x1 PUSH1 0x40 SHL SUB DUP3 GT ISZERO PUSH2 0x3CEF JUMPI PUSH2 0x3CEF PUSH2 0x3B13 JUMP JUMPDEST POP PUSH1 0x5 SHL PUSH1 0x20 ADD SWAP1 JUMP JUMPDEST PUSH1 0x0 PUSH1 0x20 DUP1 DUP4 DUP6 SUB SLT ISZERO PUSH2 0x3D0C JUMPI PUSH1 0x0 DUP1 REVERT JUMPDEST DUP3 CALLDATALOAD PUSH1 0x1 PUSH1 0x1 PUSH1 0x40 SHL SUB DUP2 GT ISZERO PUSH2 0x3D22 JUMPI PUSH1 0x0 DUP1 REVERT JUMPDEST DUP4 ADD PUSH1 0x1F DUP2 ADD DUP6 SGT PUSH2 0x3D33 JUMPI PUSH1 0x0 DUP1 REVERT JUMPDEST DUP1 CALLDATALOAD PUSH2 0x3D41 PUSH2 0x3B8E DUP3 PUSH2 0x3CD6 JUMP JUMPDEST DUP2 DUP2 MSTORE PUSH1 0x5 SWAP2 SWAP1 SWAP2 SHL DUP3 ADD DUP4 ADD SWAP1 DUP4 DUP2 ADD SWAP1 DUP8 DUP4 GT ISZERO PUSH2 0x3D60 JUMPI PUSH1 0x0 DUP1 REVERT JUMPDEST SWAP3 DUP5 ADD SWAP3 JUMPDEST DUP3 DUP5 LT ISZERO PUSH2 0x3D7E JUMPI DUP4 CALLDATALOAD DUP3 MSTORE SWAP3 DUP5 ADD SWAP3 SWAP1 DUP5 ADD SWAP1 PUSH2 0x3D65 JUMP JUMPDEST SWAP8 SWAP7 POP POP POP POP POP POP POP JUMP JUMPDEST PUSH1 0x0 DUP1 PUSH1 0x40 DUP4 DUP6 SUB SLT ISZERO PUSH2 0x3D9C JUMPI PUSH1 0x0 DUP1 REVERT JUMPDEST DUP3 CALLDATALOAD SWAP2 POP PUSH2 0x3DAC PUSH1 0x20 DUP5 ADD PUSH2 0x39B2 JUMP JUMPDEST SWAP1 POP SWAP3 POP SWAP3 SWAP1 POP JUMP JUMPDEST PUSH1 0x0 PUSH1 0x20 DUP3 DUP5 SUB SLT ISZERO PUSH2 0x3DC7 JUMPI PUSH1 0x0 DUP1 REVERT JUMPDEST DUP2 CALLDATALOAD PUSH2 0x1033 DUP2 PUSH2 0x3901 JUMP JUMPDEST PUSH1 0x20 DUP1 DUP3 MSTORE PUSH1 0x17 SWAP1 DUP3 ADD MSTORE PUSH32 0x43757272656E6379206E6F742072656769737465726564000000000000000000 PUSH1 0x40 DUP3 ADD MSTORE PUSH1 0x60 ADD SWAP1 JUMP JUMPDEST PUSH1 0x1 DUP2 DUP2 SHR SWAP1 DUP3 AND DUP1 PUSH2 0x3E1D JUMPI PUSH1 0x7F DUP3 AND SWAP2 POP JUMPDEST PUSH1 0x20 DUP3 LT DUP2 EQ ISZERO PUSH2 0x1394 JUMPI PUSH4 0x4E487B71 PUSH1 0xE0 SHL PUSH1 0x0 MSTORE PUSH1 0x22 PUSH1 0x4 MSTORE PUSH1 0x24 PUSH1 0x0 REVERT JUMPDEST PUSH1 0x0 DUP3 MLOAD PUSH2 0x3E50 DUP2 DUP5 PUSH1 0x20 DUP8 ADD PUSH2 0x3AA4 JUMP JUMPDEST SWAP2 SWAP1 SWAP2 ADD SWAP3 SWAP2 POP POP JUMP JUMPDEST PUSH1 0x0 PUSH1 0x20 DUP1 DUP4 DUP6 SUB SLT ISZERO PUSH2 0x3E6D JUMPI PUSH1 0x0 DUP1 REVERT JUMPDEST DUP3 MLOAD PUSH1 0x1 PUSH1 0x1 PUSH1 0x40 SHL SUB DUP2 GT ISZERO PUSH2 0x3E83 JUMPI PUSH1 0x0 DUP1 REVERT JUMPDEST DUP4 ADD PUSH1 0x1F DUP2 ADD DUP6 SGT PUSH2 0x3E94 JUMPI PUSH1 0x0 DUP1 REVERT JUMPDEST DUP1 MLOAD PUSH2 0x3EA2 PUSH2 0x3B8E DUP3 PUSH2 0x3CD6 JUMP JUMPDEST DUP2 DUP2 MSTORE PUSH1 0x5 SWAP2 SWAP1 SWAP2 SHL DUP3 ADD DUP4 ADD SWAP1 DUP4 DUP2 ADD SWAP1 DUP8 DUP4 GT ISZERO PUSH2 0x3EC1 JUMPI PUSH1 0x0 DUP1 REVERT JUMPDEST SWAP3 DUP5 ADD SWAP3 JUMPDEST DUP3 DUP5 LT ISZERO PUSH2 0x3D7E JUMPI DUP4 MLOAD DUP3 MSTORE SWAP3 DUP5 ADD SWAP3 SWAP1 DUP5 ADD SWAP1 PUSH2 0x3EC6 JUMP JUMPDEST PUSH1 0x0 DUP1 PUSH1 0x40 DUP4 DUP6 SUB SLT ISZERO PUSH2 0x3EF2 JUMPI PUSH1 0x0 DUP1 REVERT JUMPDEST POP POP DUP1 MLOAD PUSH1 0x20 SWAP1 SWAP2 ADD MLOAD SWAP1 SWAP3 SWAP1 SWAP2 POP JUMP JUMPDEST PUSH1 0x0 PUSH1 0x60 DUP3 DUP5 SUB SLT ISZERO PUSH2 0x3F15 JUMPI PUSH1 0x0 DUP1 REVERT JUMPDEST PUSH1 0x40 MLOAD PUSH1 0x60 DUP2 ADD DUP2 DUP2 LT PUSH1 0x1 PUSH1 0x1 PUSH1 0x40 SHL SUB DUP3 GT OR ISZERO PUSH2 0x3F37 JUMPI PUSH2 0x3F37 PUSH2 0x3B13 JUMP JUMPDEST PUSH1 0x40 MSTORE DUP3 MLOAD PUSH1 0x0 DUP2 SWAP1 SIGNEXTEND DUP2 EQ PUSH2 0x3F4C JUMPI PUSH1 0x0 DUP1 REVERT JUMPDEST DUP2 MSTORE PUSH1 0x20 DUP4 ADD MLOAD PUSH2 0x3F5C DUP2 PUSH2 0x3901 JUMP JUMPDEST PUSH1 0x20 DUP3 ADD MSTORE PUSH1 0x40 DUP4 ADD MLOAD PUSH2 0x3F6F DUP2 PUSH2 0x3C9C JUMP JUMPDEST PUSH1 0x40 DUP3 ADD MSTORE SWAP4 SWAP3 POP POP POP JUMP JUMPDEST PUSH4 0x4E487B71 PUSH1 0xE0 SHL PUSH1 0x0 MSTORE PUSH1 0x1 PUSH1 0x4 MSTORE PUSH1 0x24 PUSH1 0x0 REVERT JUMPDEST PUSH1 0x1 PUSH1 0x1 PUSH1 0xA0 SHL SUB DUP6 AND DUP2 MSTORE PUSH1 0x20 DUP2 ADD DUP5 SWAP1 MSTORE PUSH1 0xC0 DUP2 ADD PUSH2 0x3FD7 PUSH1 0x40 DUP4 ADD DUP6 DUP1 MLOAD PUSH1 0x0 SIGNEXTEND DUP3 MSTORE PUSH1 0x20 DUP1 DUP3 ADD MLOAD ISZERO ISZERO SWAP1 DUP4 ADD MSTORE PUSH1 0x40 SWAP1 DUP2 ADD MLOAD PUSH1 0x1 PUSH1 0x1 PUSH1 0x40 SHL SUB AND SWAP2 ADD MSTORE JUMP JUMPDEST DUP3 ISZERO ISZERO PUSH1 0xA0 DUP4 ADD MSTORE SWAP6 SWAP5 POP POP POP POP POP JUMP JUMPDEST PUSH1 0x0 DUP3 DUP3 LT ISZERO PUSH2 0x3FFA JUMPI PUSH2 0x3FFA PUSH2 0x3981 JUMP JUMPDEST POP SUB SWAP1 JUMP JUMPDEST PUSH1 0x0 DUP2 PUSH2 0x400E JUMPI PUSH2 0x400E PUSH2 0x3981 JUMP JUMPDEST POP PUSH1 0x0 NOT ADD SWAP1 JUMP JUMPDEST PUSH1 0x0 PUSH1 0x20 DUP3 DUP5 SUB SLT ISZERO PUSH2 0x4028 JUMPI PUSH1 0x0 DUP1 REVERT JUMPDEST DUP2 MLOAD PUSH2 0x1033 DUP2 PUSH2 0x39E5 JUMP JUMPDEST PUSH1 0x0 DUP1 PUSH1 0x40 DUP4 DUP6 SUB SLT ISZERO PUSH2 0x4046 JUMPI PUSH1 0x0 DUP1 REVERT JUMPDEST DUP3 MLOAD SWAP2 POP PUSH1 0x20 DUP4 ADD MLOAD PUSH2 0x3C6F DUP2 PUSH2 0x39E5 JUMP JUMPDEST PUSH1 0x0 PUSH1 0x20 DUP3 DUP5 SUB SLT ISZERO PUSH2 0x406A JUMPI PUSH1 0x0 DUP1 REVERT JUMPDEST DUP2 MLOAD PUSH1 0x1 PUSH1 0x1 PUSH1 0x40 SHL SUB DUP2 GT ISZERO PUSH2 0x4080 JUMPI PUSH1 0x0 DUP1 REVERT JUMPDEST DUP3 ADD PUSH1 0x1F DUP2 ADD DUP5 SGT PUSH2 0x4091 JUMPI PUSH1 0x0 DUP1 REVERT JUMPDEST DUP1 MLOAD PUSH2 0x409F PUSH2 0x3B8E DUP3 PUSH2 0x3B59 JUMP JUMPDEST DUP2 DUP2 MSTORE DUP6 PUSH1 0x20 DUP4 DUP6 ADD ADD GT ISZERO PUSH2 0x40B4 JUMPI PUSH1 0x0 DUP1 REVERT JUMPDEST PUSH2 0x40C5 DUP3 PUSH1 0x20 DUP4 ADD PUSH1 0x20 DUP7 ADD PUSH2 0x3AA4 JUMP JUMPDEST SWAP6 SWAP5 POP POP POP POP POP JUMP JUMPDEST PUSH4 0x4E487B71 PUSH1 0xE0 SHL PUSH1 0x0 MSTORE PUSH1 0x31 PUSH1 0x4 MSTORE PUSH1 0x24 PUSH1 0x0 REVERT JUMPDEST PUSH1 0x0 DUP1 PUSH1 0x40 DUP4 DUP6 SUB SLT ISZERO PUSH2 0x40F7 JUMPI PUSH1 0x0 DUP1 REVERT JUMPDEST DUP3 MLOAD PUSH2 0x4102 DUP2 PUSH2 0x39E5 JUMP JUMPDEST PUSH1 0x20 SWAP4 SWAP1 SWAP4 ADD MLOAD SWAP3 SWAP5 SWAP3 SWAP4 POP POP POP JUMP INVALID PUSH9 0x747470733A2F2F6769 PUSH21 0x6875622E636F6D2F5061747269636B416C70686143 0x2F PUSH5 0x6566692D73 PUSH21 0x616B652D7969656C642D62726F776E69652D667265 PUSH6 0x636F64652F62 PUSH13 0x6F622F6D61696E2F66726F6E74 0x5F PUSH6 0x6E642F737263 0x2F PUSH5 0x6170702E70 PUSH15 0x673F7261773D74727565AD3228B676 0xF7 0xD3 0xCD TIMESTAMP DUP5 0xA5 DIFFICULTY EXTCODEHASH OR CALL SWAP7 0x2B CALLDATASIZE 0xE4 SWAP2 0xB3 EXP BLOCKHASH 0xB2 BLOCKHASH PC 0x49 0xE5 SWAP8 0xBA 0x5F 0xB5 PUSH9 0x747470733A2F2F7261 PUSH24 0x2E67697468756275736572636F6E74656E742E636F6D2F50 PUSH2 0x7472 PUSH10 0x636B416C706861432F64 PUSH6 0x66692D737461 PUSH12 0x652D7969656C642D62726F77 PUSH15 0x69652D66726565636F64652F6D6169 PUSH15 0x2F66726F6E745F656E642F7372632F PUSH6 0x74682E706E67 EXTCODEHASH PUSH19 0x61773D74727565A2646970667358221220875E SELFBALANCE JUMPI BLOCKHASH 0xF7 PUSH31 0xD3115437A62538D0A5636C5D8BE3EAEBFA93471CA7179C850164736F6C6343 STOP ADDMOD SIGNEXTEND STOP CALLER ","sha1":"78f3c38f5feae9e75e97c5b62c2d6deab9d10d22","source":"// SPDX-License-Identifier: MIT\n// Beef MarketPlace Contracts v0.0.0 hello@mcdu.com\n\npragma solidity ^0.8.0;\n\nimport \"@openzeppelin/contracts/utils/Context.sol\";\nimport \"@openzeppelin/contracts/utils/introspection/IERC165.sol\";\nimport \"../agnostic/Ownable.sol\";\nimport \"../agnostic/Mode.sol\";\nimport \"../agnostic/Array.sol\";\nimport \"../agnostic/Mode.sol\";\nimport \"../agnostic/Keccak/KeccakInverter.sol\";\nimport \"../agnostic/Certified/CertifierAllower.sol\";\nimport \"../agnostic/Token/TokenLib.sol\";\nimport \"../agnostic/Token/TokenEquivalent.sol\";\nimport \"../agnostic/Token/Currencer.sol\";\n\n/*enum RepositoryType {\n    Bank,\n    Market,\n    MarketOrder,\n    MarketSearch,\n    Quotator,\n    Collateral,\n    Delivery,\n    Random,\n    Max\n}*/\n\nenum FuncState {\n    Unknown,\n    Absent,\n    Present\n}\ninterface IRepositoryContract is IERC165\n{\n    function supportsInterface(bytes4 interfaceId) external view returns (bool);\n    function id() external view returns (bytes32);\n\n}\n\nabstract contract RepositoryContract is IRepositoryContract, ModeStop, Context, Ownable {\n\n    Repository public immutable rep;\n\n    function supportsInterface(bytes4 interfaceId) public view virtual returns (bool)\n    {\n        return interfaceId == type(IERC165).interfaceId || interfaceId == type(IRepositoryContract).interfaceId;\n    }\n\n    constructor(Repository rep_) {\n        rep = rep_;\n    }\n\n    function repository() internal view virtual returns (Repository) {\n        return rep;\n    }\n\n    function checkRepository() private view {\n        require(\n            /*(ownerOf() == _msgSender()) ||*/ (_msgSender() == address(rep)),\n            \"Allowance: caller must be Repository\"\n        );\n    }\n\n    modifier all() {\n        _;\n    }\n    /*modifier onlyMarketOrder() virtual {\n        checkMarketOrder();\n        _;\n    }\n\n    function checkMarketOrder() internal view {\n        require((address(rep.mo()) == _msgSender()), \"Allowance: caller must be Market\");\n    }\n    modifier onlyMarket() virtual {\n        checkMarket();\n        _;\n    }\n\n    function checkMarket() internal view {\n        require((address(rep.m()) == _msgSender()), \"Allowance: caller must be Market\");\n    }*/\n\n    modifier onlyThis() virtual {\n        checkThis();\n        _;\n    }\n\n    function checkThis() internal view {\n        require((address(this) == _msgSender()), \"Allowance: caller must be this\");\n    }\n\n    modifier onlyOwner() virtual override {\n        checkOwner();\n        _;\n    }\n\n    function checkOwner() internal view {\n        require((ownerOf() == _msgSender()), \"Allowance: caller must be Owner\");\n    }\n\n    modifier onlyRepository() virtual {\n        checkRepository();\n        _;\n    }\n\n    modifier onlyContracts() {\n        checkContracts();\n        _;\n    }\n\n    function checkContracts() internal view {\n        require(\n            (ownerOf() == _msgSender()) || rep.isContract(_msgSender()),\n            \"Allowance: caller must be Repository Contract\"\n        );\n    }\n\n    modifier onlyOperators() {\n        checkOperators();\n        _;\n    }\n\n    function checkOperators() public view {\n        require(\n            (ownerOf() == _msgSender()) || rep.isOperator(_msgSender()),\n            \"Allowance: caller must be Repository Operator\"\n        );\n    }\n\n    modifier onlyContractsOrOperators() {\n        checkContractsOrOperators();\n        _;\n    }\n\n    function checkContractsOrOperators() internal view {\n        require(\n            (ownerOf() == _msgSender()) ||\n                rep.isContract(_msgSender()) ||\n                rep.isOperator(_msgSender()),\n            \"Allowance: caller must be Repository Contract or Operator\"\n        );\n    }\n\n    //bool private _liquidated;\n\n    function setSTOP() public onlyContractsOrOperators {\n        _setSTOP();\n    }\n\n    function unsetSTOP() public onlyContractsOrOperators {\n        _unsetSTOP();\n    }\n\n    function setSTOPFOREVER() public onlyOwner {\n        _setSTOPFOREVER();\n    }\n\n    /*function bytesToAddress(bytes memory bys)\n        internal\n        pure\n        returns (address addr)\n    {\n        assembly {\n            addr := mload(add(bys, 32))\n        }\n    }*/\n\n    function _return(bool result_) internal view virtual {\n        assembly {\n            returndatacopy(0, 0, returndatasize())\n            switch result_\n            case 0 {\n                revert(0, returndatasize())\n            }\n            default {\n                return(0, returndatasize())\n            }\n        }\n    }\n\n    fallback() external virtual onlyContractsOrOperators {\n        bytes memory bys = msg.data[4:36];\n        address _implementation;\n        assembly {\n            _implementation := mload(add(bys, 32))\n        }\n        //address _implementation = bytesToAddress(msg.data[4:36]);\n\n        bool _result;\n        assembly {\n            let newargumentsize := sub(calldatasize(), 36)\n            let newcalldatasize := add(newargumentsize, 4)\n\n            calldatacopy(0, 0, 4)\n            calldatacopy(4, 36, newargumentsize)\n\n            // Call the implementation.\n            // out and outsize are 0 because we don't know the size yet.\n            _result := delegatecall(\n                gas(),\n                _implementation,\n                0,\n                newcalldatasize,\n                0,\n                0\n            )\n        }\n        _return(_result);\n    }\n    //function destroy() public onlyOwner { liquidate(); _destroy(); }\n    //function _destroy() internal virtual {selfdestruct(payable(ownerOf()));}\n    //function liquidated() public view returns (bool) { return _liquidated; }\n    //function liquidate() public onlyOwner { if (_liquidated) return; _setSTOPFOREVER();_liquidated =true; _liquidate(); }\n    //function _liquidate() internal virtual {}\n}\n\ncontract Repository is IERC165,ModeTest,Ownable, Currencer, ContractForbidderCertifier, KeccakInverter { //TokenEquivalentCertifier, \n    using Array for address[];\n    using Array for bytes4[];\n    uint256 immutable public _originalblock;\n\n    mapping(bytes32 => address) _repository;\n    address[] private _contracts;//= new address[](uint256(RepositoryType.Max));\n    address[] private _operators;\n    mapping(bytes32 => mapping(bytes4 => FuncState)) private _contractfunc;\n    bytes4[] _funcs;\n\n    constructor(bool MODETEST_)\n        ModeTest(MODETEST_)\n    {\n         _originalblock=block.number;\n    }\n\n    function supportsInterface(bytes4 interfaceId)\n        public\n        view virtual override(IERC165,ContractForbidderCertifier)//,TokenEquivalentCertifier)\n        returns (bool)\n    {\n        return interfaceId == type(IERC165).interfaceId || Certifiers.supportsInterface(interfaceId) || ContractCertifier.supportsInterface(interfaceId);// || TokenEquivalentCertifier.supportsInterface(interfaceId);\n    }\n\n    function isTrustedCertifier(address certifier_) public view virtual override(ContractForbidderCertifier) returns (bool) //,ContractCertifier\n    {\n        return Certifiers.isTrustedCertifier(certifier_);\n    }\n\n\n    modifier all() {\n        _;\n    }\n\n    modifier onlyOwner() virtual override {\n        checkOwner();\n        _;\n    }\n\n    function checkOwner() internal view {\n        require((ownerOf() == _msgSender()), \"Allowance: caller must be Owner\");\n    }\n\n    modifier onlyContracts() {\n        checkContracts();\n        _;\n    }\n\n    function checkContracts() internal view {\n        require(\n            (ownerOf() == _msgSender()) || isContract(_msgSender()),\n            \"Allowance: caller must be Repository Contract\"\n        );\n    }\n\n    modifier onlyOperators() {\n        checkOperators();\n        _;\n    }\n\n    function checkOperators() internal view {\n        require(\n            (ownerOf() == _msgSender()) || isOperator(_msgSender()),\n            \"Allowance: caller must be Repository Operator\"\n        );\n    }\n\n    modifier onlyContractsOrOperators() {\n        checkContractsOrOperators();\n        _;\n    }\n\n    function checkContractsOrOperators() internal view {\n        require(\n            (ownerOf() == _msgSender()) ||\n                isContract(_msgSender()) ||\n                isOperator(_msgSender()),\n            \"Allowance: caller must be Repository Contract or Operator\"\n        );\n    }\n\n    function exists(bytes32 k_) public view virtual override(Currencer,KeccakInverter) returns (bool)\n    {\n        return KeccakInverter.exists(k_);\n    }\n    function resolveAddressUInt256(bytes32 k_)\n        public\n        view virtual override (Currencer,KeccakInverter)\n        returns (address addr_, uint256 v_)\n    {\n        return KeccakInverter.resolveAddressUInt256(k_);\n    }    \n\n\n    function AddressUInt256(address addr_, uint256 v_)\n        public\n        virtual\n        override (Currencer,KeccakInverter)\n        returns (bytes32 k_)\n    {\n        return KeccakInverter.AddressUInt256(addr_, v_);\n    }\n\n\n    function isOperator(address caller_) public view returns (bool) {\n        if (caller_ == address(this)) return true;\n        return _operators.s_exist(caller_);\n    }\n\n    function isContract(address caller_) public view returns (bool) {\n        if (caller_ == address(this)) return true;\n        return _contracts.s_exist(caller_);\n    }\n\n    function removeOperator(address bot_) public onlyOperators {\n        _operators.remove(bot_);\n    }\n\n    function addOperator(address bot_) public onlyOperators {\n        _operators.insert(bot_);\n    }\n\n    function addTrustedCertifier(address certifier_) public onlyOperators  returns (bool){\n        return _addTrustedCertifier(certifier_);\n    }\n\n    function removeTrustedCertifier(address certifier_) public onlyOperators  returns (bool){\n        return _removeTrustedCertifier(certifier_);\n    }\n    function addTokenCertified(address token,uint256 tokenId) public onlyOperators returns (bool){\n        return _addContractCertified(token,tokenId);\n\n    }\n    function removeTokenCertified(address token,uint256 tokenId) public onlyOperators returns (bool){\n        return _removeContractCertified(token,tokenId);\n\n    }\n    function tokenForbiddenUnknownSet(bool forbiddenunknown_) public onlyOperators returns (bool) {\n        return _contractForbiddenUnknownSet(forbiddenunknown_);\n    }\n    function tokenForbiddenAdd(address token,uint256 tokenId) public onlyOperators returns (bool) {\n        return _contractForbiddenAdd(token,tokenId);\n    }\n    function tokenForbiddenRemove(address token,uint256 tokenId) public onlyOperators returns (bool) {\n        return _contractForbiddenRemove(token,tokenId);\n    }\n    function setContract(IRepositoryContract contract_) public onlyOperators {\n        require(contract_.supportsInterface(type(IRepositoryContract).interfaceId), \"contract must be IRepositoryContract\");\n        for (uint256 i; i < _funcs.length; i++)\n            delete _contractfunc[contract_.id()][_funcs[i]];\n        \n        _contracts.insert(address(contract_));\n        _repository[contract_.id()] = address(contract_);\n    }\n\n    function get(bytes32 hash_) public view returns (address) {\n        return _repository[hash_];\n    }\n\n    fallback() external virtual onlyContracts {\n        _funcs.insert(msg.sig);\n        for (uint256 i; i < _contracts.length; i++) {\n            if (_contracts[i] == _msgSender()) continue;\n            bytes32 contracthash = IRepositoryContract(_contracts[i]).id();\n            if (_contractfunc[contracthash][msg.sig] == FuncState.Absent) continue;\n            (bool success, ) = _contracts[i].call(msg.data);\n            if (_contractfunc[contracthash][msg.sig] == FuncState.Unknown)\n                _contractfunc[contracthash][msg.sig] = success ? FuncState.Present : FuncState.Absent;\n        }\n    }\n\n    /*function q() public view returns (address) {\n        return \n        [uint256(RepositoryType.Quotator)];\n    }\n\n    function setQuotator(address _contract) public onlyOperators {\n        set(RepositoryType.Quotator, _contract);\n    }\n\n    function r() public view returns (address) {\n        return \n        [uint256(RepositoryType.Random)];\n    }\n\n    function setRandom(address _contract) public onlyOperators {\n        set(RepositoryType.Random, _contract);\n    }\n\n    function d() public view returns (address) {\n        return \n        [uint256(RepositoryType.Delivery)];\n    }\n\n    function setDelivery(address _contract) public onlyOperators {\n        set(RepositoryType.Delivery, _contract);\n    }\n\n    function col() public view returns (address) {\n        return \n        [uint256(RepositoryType.Collateral)];\n    }\n\n    function setCollateral(address _contract) public onlyOperators {\n        set(RepositoryType.Collateral, _contract);\n    }\n\n    function b() public view returns (address) {\n        return \n        [uint256(RepositoryType.Bank)];\n    }\n\n    function setBank(address _contract) public onlyOperators {\n        set(RepositoryType.Bank, _contract);\n    }\n\n    function mo() public view returns (address) {\n        return \n        [uint256(RepositoryType.MarketOrder)];\n    }\n\n    function setMarketOrder(address _contract) public onlyOperators {\n        set(RepositoryType.MarketOrder, _contract);\n    }\n\n    function ms() public view returns (address) {\n        return \n        [uint256(RepositoryType.MarketSearch)];\n    }\n\n    function setMarketSearch(address _contract) public onlyOperators {\n        set(RepositoryType.MarketSearch, _contract);\n    }\n\n    function m() public view returns (address) {\n        return \n        [uint256(RepositoryType.Market)];\n    }\n\n    function setMarket(address _contract) public onlyOperators {\n        set(RepositoryType.Market, _contract);\n    }*/\n}\n","sourcePath":"contracts/Repository/Repository.sol","type":"contract","deployment":{"address":"0x6dC696232134DB550e6dF3c99a570D2cF98D51b4","chainid":"9997","blockHeight":8873}}