{"bytecode":"60c06040526007805460ff191690553480156200001b57600080fd5b506040516200438d3803806200438d8339810160408190526200003e91620000aa565b8015156080526200004f336200005a565b504360a052620000d5565b600080546001600160a01b038381166001600160a01b0319831681178455604051919092169283917f8be0079c531659141344cd1fd0a4f28419497f9722a3daafe3b4186f6b6457e09190a35050565b600060208284031215620000bd57600080fd5b81518015158114620000ce57600080fd5b9392505050565b60805160a051614292620000fb60003960006108130152600061088f01526142926000f3fe608060405234801561001057600080fd5b50600436106103d05760003560e01c806381b2490b116101ff578063ad10a1351161011a578063c9c2a940116100ad578063e50d1b3e1161007c578063e50d1b3e14610bef578063e855a31314610c02578063f2fde38b14610c15578063f5dab71114610c28576103d0565b8063c9c2a94014610ba3578063d47a7edd14610bb6578063d4945d0e14610bc9578063dbf5f2fd14610bdc576103d0565b8063bb7d88a9116100e9578063bb7d88a914610b57578063c33470d314610b6a578063c452e6b614610b7d578063c5537eb714610b90576103d0565b8063ad10a13514610aee578063af91558514610b01578063b305438314610b31578063b72a4a7114610b44576103d0565b80639e9bb9c111610192578063a9d4632611610161578063a9d4632614610aa2578063ababadb514610ab5578063ac8a584a14610ac8578063ad0fc0cc14610adb576103d0565b80639e9bb9c114610a56578063a663d4f514610a69578063a86eeb9114610a7c578063a9bf985814610a8f576103d0565b80638da5cb5b116101ce5780638da5cb5b146109f65780638eaa6ac014610a0757806395b5d58414610a305780639870d7fe14610a43576103d0565b806381b2490b146109b257806383350075146109c557806389765f59146109d05780638d49d89b146109e3576103d0565b806338a699a4116102ef5780635b62cb70116102825780636d70f7ae116102515780636d70f7ae146109715780636f45768314610984578063715018a61461099757806375f890ab1461099f576103d0565b80635b62cb701461091057806361e99ffb14610923578063657c7e091461093657806367c51dfc1461095e576103d0565b8063509ff69b116102be578063509ff69b146108c4578063552cdf98146108d75780635768bbb5146108ea578063589e6a98146108fd576103d0565b806338a699a4146108775780634329598c146107775780634635229b1461088a5780634f79b792146108b1576103d0565b8063162790551161036757806324ace6721161033657806324ace672146107fb5780632558a0791461080e57806327ee9dc2146108355780632f54bf6e14610855576103d0565b80631627905514610797578063184bc906146107aa57806318d54cf3146107d55780631d7a3b72146107e8576103d0565b806307d61085116103a357806307d61085146107305780630ea94b9614610743578063120f6ee31461076457806312cae67b14610777576103d0565b806301ffc9a71461069c5780630221c7de146106c457806303565ea1146106ef578063036995df1461070f575b6103d8610c3b565b60405163825998c160e01b8152600d60048201526000356001600160e01b031916602482015273__Array_________________________________9063825998c190604401602060405180830381865af415801561043a573d6000803e3d6000fd5b505050506040513d601f19601f8201168201806040525081019061045e919061395b565b5060005b600a5481101561069a57336001600160a01b0316600a828154811061048957610489613978565b6000918252602090912001546001600160a01b031614610688576000600a82815481106104b8576104b8613978565b600091825260209182902001546040805163af640d0f60e01b815290516001600160a01b039092169263af640d0f926004808401938290030181865afa158015610506573d6000803e3d6000fd5b505050506040513d601f19601f8201168201806040525081019061052a919061398e565b905060016000828152600c602090815260408083206001600160e01b0319843516845290915290205460ff166002811115610567576105676139a7565b036105725750610688565b6000600a838154811061058757610587613978565b60009182526020822001546040516001600160a01b03909116916105ac9136906139bd565b6000604051808303816000865af19150503d80600081146105e9576040519150601f19603f3d011682016040523d82523d6000602084013e6105ee565b606091505b50506000838152600c6020908152604080832083356001600160e01b03191684529091528120549192509060ff16600281111561062d5761062d6139a7565b03610685578061063e576001610641565b60025b6000838152600c602090815260408083206001600160e01b031984351684529091529020805460ff1916600183600281111561067f5761067f6139a7565b02179055505b50505b80610692816139e3565b915050610462565b005b6106af6106aa366004613a14565b610cc1565b60405190151581526020015b60405180910390f35b6106d76106d2366004613a44565b610d07565b6040516001600160401b0390911681526020016106bb565b6107026106fd366004613a70565b610d34565b6040516106bb9190613a89565b61072261071d366004613ab8565b610dc4565b6040519081526020016106bb565b6106af61073e366004613a70565b610dd1565b610756610751366004613a70565b610df9565b6040516106bb929190613ad5565b6106d7610772366004613a70565b610e53565b61078a610785366004613a70565b610ea4565b6040516106bb9190613b4a565b6106af6107a5366004613ab8565b610f46565b6107bd6107b8366004613a70565b610fe4565b6040516001600160a01b0390911681526020016106bb565b6106af6107e3366004613a44565b61103b565b61078a6107f6366004613a44565b611056565b610722610809366004613c08565b611364565b6107227f000000000000000000000000000000000000000000000000000000000000000081565b610848610843366004613a70565b6114c7565b6040516106bb9190613c50565b6106af610863366004613ab8565b6000546001600160a01b0391821691161490565b6106af610885366004613a70565b61154d565b6106af7f000000000000000000000000000000000000000000000000000000000000000081565b6107226108bf366004613a44565b611558565b6107226108d2366004613a44565b61158b565b6106af6108e5366004613a44565b6115e2565b6107226108f8366004613c94565b61160f565b61072261090b366004613c08565b61169e565b6106af61091e366004613ab8565b6116a9565b610722610931366004613cc4565b6116b4565b610949610944366004613a70565b6116fa565b604080519283526020830191909152016106bb565b6106af61096c366004613a44565b61177c565b6106af61097f366004613ab8565b611790565b61069a610992366004613a44565b6117f1565b61069a611c9c565b61069a6109ad366004613ab8565b611cae565b6106af6109c0366004613a44565b611f87565b60075460ff166106af565b6106af6109de366004613a44565b6120bc565b6106d76109f1366004613ab8565b6120d0565b6000546001600160a01b03166107bd565b6107bd610a15366004613a70565b6000908152600960205260409020546001600160a01b031690565b6106af610a3e366004613ab8565b6120dd565b61069a610a51366004613ab8565b6120f0565b61078a610a64366004613a70565b612180565b6106af610a77366004613cfb565b6121e8565b610722610a8a366004613a44565b612212565b610722610a9d366004613a70565b61221e565b61078a610ab0366004613ab8565b61226f565b6106af610ac3366004613a44565b61227c565b61069a610ad6366004613ab8565b61238e565b6106af610ae9366004613a44565b6123dd565b6106af610afc366004613a44565b612500565b610b14610b0f366004613a70565b61253e565b604080519283526001600160a01b039091166020830152016106bb565b610722610b3f366004613d43565b6125c0565b610722610b52366004613a44565b612643565b610702610b65366004613a44565b61264f565b6106af610b78366004613dd3565b612843565b6106af610b8b366004613ab8565b6128da565b6106af610b9e366004613cfb565b6128e7565b610722610bb1366004613a44565b612906565b6106af610bc4366004613a70565b6129c3565b6106af610bd7366004613dff565b612a14565b6106af610bea366004613ab8565b612a27565b610756610bfd366004613a70565b612a3a565b6106af610c10366004613a44565b612a46565b61069a610c23366004613ab8565b612a5a565b610702610c36366004613ab8565b612ad3565b6000546001600160a01b0316331480610c585750610c5833610f46565b610cbf5760405162461bcd60e51b815260206004820152602d60248201527f416c6c6f77616e63653a2063616c6c6572206d757374206265205265706f736960448201526c1d1bdc9e4810dbdb9d1c9858dd609a1b60648201526084015b60405180910390fd5b565b60006001600160e01b031982166301ffc9a760e01b1480610cf257506305b62cb760e41b6001600160e01b03198316145b80610d015750610d0182612afb565b92915050565b60006001600160a01b038316610d1f57506001610d01565b610d29838361264f565b604001519392505050565b60408051606081018252600080825260208201819052918101919091526000805160206141c88339815191528201610d7157610d0160008061264f565b610d7a82610dd1565b610da25750506040805160608101825260111981526000602082018190529181019190915290565b600080610dae84610df9565b91509150610dbc828261264f565b949350505050565b6000610d01826000612643565b60006000805160206141c88339815191528201610df057506001919050565b610d018261154d565b6000806000805160206141c88339815191528301610e1c57506000928392509050565b610e258361154d565b610e415760405162461bcd60e51b8152600401610cb690613e1c565b610e4a83612a3a565b91509150915091565b60006000805160206141c88339815191528201610e7557610d01600080610d07565b610e7e82610dd1565b610e8a57506000919050565b600080610e9684610df9565b91509150610dbc8282610d07565b6000818152600860205260409020805460609190610ec190613e53565b80601f0160208091040260200160405190810160405280929190818152602001828054610eed90613e53565b8015610f3a5780601f10610f0f57610100808354040283529160200191610f3a565b820191906000526020600020905b815481529060010190602001808311610f1d57829003601f168201915b50505050509050919050565b6000306001600160a01b03831603610f6057506001919050565b60405163f132566360e01b8152600a60048201526001600160a01b038316602482015273__Array_________________________________9063f1325663906044015b602060405180830381865af4158015610fc0573d6000803e3d6000fd5b505050506040513d601f19601f82011682018060405250810190610d01919061395b565b60006000805160206141c8833981519152820161100357506000919050565b61100c8261154d565b6110285760405162461bcd60e51b8152600401610cb690613e1c565b600061103383612a3a565b509392505050565b6000611045612b31565b61104f8383612bb0565b9392505050565b60606001600160a01b038316611086576040518060a00160405280607581526020016141e8607591399050610d01565b60006001600073__BytesAndKeccakLib_____________________63d5f0b04d87876040518363ffffffff1660e01b81526004016110c5929190613ad5565b602060405180830381865af41580156110e2573d6000803e3d6000fd5b505050506040513d601f19601f82011682018060405250810190611106919061398e565b8152602001908152602001600020805461111f90613e53565b80601f016020809104026020016040519081016040528092919081815260200182805461114b90613e53565b80156111985780601f1061116d57610100808354040283529160200191611198565b820191906000526020600020905b81548152906001019060200180831161117b57829003601f168201915b5050604080516000815260208101808352815190209596506111c09450869350019050613e87565b60405160208183030381529060405280519060200120146111e2579050610d01565b8215611343576001600073__BytesAndKeccakLib_____________________63d5f0b04d8760006040518363ffffffff1660e01b8152600401611226929190613ad5565b602060405180830381865af4158015611243573d6000803e3d6000fd5b505050506040513d601f19601f82011682018060405250810190611267919061398e565b8152602001908152602001600020805461128090613e53565b80601f01602080910402602001604051908101604052809291908181526020018280546112ac90613e53565b80156112f95780601f106112ce576101008083540402835291602001916112f9565b820191906000526020600020905b8154815290600101906020018083116112dc57829003601f168201915b5050604080516000815260208101808352815190209596506113219450869350019050613e87565b6040516020818303038152906040528051906020012014611343579050610d01565b6040518060a00160405280606c815260200161415c606c9139949350505050565b8051602080830191909120600081815260089092526040909120805461138990613e53565b90506000036113b757600081815260086020908152604090912083516113b1928501906138b4565b50919050565b6000818152600860205260409020805461145991906113d590613e53565b80601f016020809104026020016040519081016040528092919081815260200182805461140190613e53565b801561144e5780601f106114235761010080835404028352916020019161144e565b820191906000526020600020905b81548152906001019060200180831161143157829003601f168201915b505050505083612e3f565b6114c25760405162461bcd60e51b815260206004820152603460248201527f4b656363616b496e766572746572204279746573206b656363616b2069736e7460448201527320756e697175652021212121212121212121212160601b6064820152608401610cb6565b919050565b60606114d282610ea4565b6040516355b04b0d60e11b815273__BytesAndKeccakLib_____________________9163ab60961a916115089190600401613b4a565b600060405180830381865af4158015611525573d6000803e3d6000fd5b505050506040513d6000823e601f3d908101601f19168201604052610d019190810190613ea3565b6000610d0182612ed1565b60006115648383612906565b905061156f8161154d565b610d015760405162461bcd60e51b8152600401610cb690613e1c565b60006001600160a01b0383161580156115a2575081155b156115ce57507fad3228b676f7d3cd4284a5443f17f1962b36e491b30a40b2405849e597ba5fb5610d01565b6115d883836117f1565b61104f8383612212565b60006001600160a01b0383166115fa57506000610d01565b611604838361264f565b602001519392505050565b6040516318f7a7c360e21b8152600481018390526001600160a01b038216602482015260009061104f9073__BytesAndKeccakLib_____________________906363de9f0c906044015b600060405180830381865af4158015611676573d6000803e3d6000fd5b505050506040513d6000823e601f3d908101601f19168201604052610b3f9190810190613ea3565b6000610d0182611364565b6000610d0182612ef3565b604051632291b3f160e21b8152600481018390526024810182905260009061104f9073__BytesAndKeccakLib_____________________90638a46cfc490604401611659565b600080611706836114c7565b60405163029695c360e21b815273__BytesAndKeccakLib_____________________91630a5a570c9161173c9190600401613c50565b6040805180830381865af4158015611758573d6000803e3d6000fd5b505050506040513d601f19601f82011682018060405250810190610e4a9190613f28565b6000611786612b31565b61104f8383612f7c565b6000306001600160a01b038316036117aa57506001919050565b60405163f132566360e01b8152600b60048201526001600160a01b038316602482015273__Array_________________________________9063f132566390604401610fa3565b60008073__BytesAndKeccakLib_____________________63d5f0b04d8560006040518363ffffffff1660e01b815260040161182e929190613ad5565b602060405180830381865af415801561184b573d6000803e3d6000fd5b505050506040513d601f19601f8201168201806040525081019061186f919061398e565b60008181526003602052604081208054909450919250620100009091046001600160401b03169003611a0457604051634dd11f0f60e11b81526001600160a01b0385166004820152600060248201526001604482015273__Token_________________________________90639ba23e1e90606401606060405180830381865af4158015611901573d6000803e3d6000fd5b505050506040513d601f19601f820116820180604052508101906119259190613f4c565b6000828152600360209081526040918290208351815492850151948401516001600160401b0316620100000269ffffffffffffffff0000199515156101000261ffff1990941660ff90921691909117929092179390931617909155516316061a7160e21b815273__Array_________________________________9063581869c4906119c1906002908590600401918252602082015260400190565b602060405180830381865af41580156119de573d6000803e3d6000fd5b505050506040513d601f19601f82011682018060405250810190611a02919061395b565b505b81546201000090046001600160401b0316600003611a2457611a24613fc4565b815462010000900461010016600003611a3d5750505050565b604080516060810182528354600081900b8252610100810460ff16151560208301526201000090046001600160401b031681830152905163d5f0b04d60e01b815273__BytesAndKeccakLib_____________________9063d5f0b04d90611aaa9088908890600401613ad5565b602060405180830381865af4158015611ac7573d6000803e3d6000fd5b505050506040513d601f19601f82011682018060405250810190611aeb919061398e565b60008181526003602052604081208054909550919350620100009091046001600160401b03169003611c755760405163543af62760e01b815273__Token_________________________________9063543af62790611b5590889088908690600190600401613fda565b606060405180830381865af4158015611b72573d6000803e3d6000fd5b505050506040513d601f19601f82011682018060405250810190611b969190613f4c565b6000838152600360209081526040918290208351815492850151948401516001600160401b0316620100000269ffffffffffffffff0000199515156101000261ffff1990941660ff90921691909117929092179390931617909155516316061a7160e21b815273__Array_________________________________9063581869c490611c32906002908690600401918252602082015260400190565b602060405180830381865af4158015611c4f573d6000803e3d6000fd5b505050506040513d601f19601f82011682018060405250810190611c73919061395b565b505b82546201000090046001600160401b0316600003611c9557611c95613fc4565b5050505050565b611ca461325e565b610cbf60006132b8565b611cb6612b31565b6040516301ffc9a760e01b81526315d3789560e31b60048201526001600160a01b038216906301ffc9a790602401602060405180830381865afa158015611d01573d6000803e3d6000fd5b505050506040513d601f19601f82011682018060405250810190611d25919061395b565b611d7d5760405162461bcd60e51b8152602060048201526024808201527f636f6e7472616374206d75737420626520495265706f7369746f7279436f6e746044820152631c9858dd60e21b6064820152608401610cb6565b60005b600d54811015611e6657600c6000836001600160a01b031663af640d0f6040518163ffffffff1660e01b8152600401602060405180830381865afa158015611dcc573d6000803e3d6000fd5b505050506040513d601f19601f82011682018060405250810190611df0919061398e565b81526020019081526020016000206000600d8381548110611e1357611e13613978565b6000918252602080832060088304015460079092166004026101000a90910460e01b6001600160e01b03191683528201929092526040019020805460ff1916905580611e5e816139e3565b915050611d80565b506040516316f4b92960e21b8152600a60048201526001600160a01b038216602482015273__Array_________________________________90635bd2e4a490604401602060405180830381865af4158015611ec6573d6000803e3d6000fd5b505050506040513d601f19601f82011682018060405250810190611eea919061395b565b508060096000836001600160a01b031663af640d0f6040518163ffffffff1660e01b8152600401602060405180830381865afa158015611f2e573d6000803e3d6000fd5b505050506040513d601f19601f82011682018060405250810190611f52919061398e565b815260200190815260200160002060006101000a8154816001600160a01b0302191690836001600160a01b0316021790555050565b6004546000905b80156120b2576001600160a01b0384166004611fab600184614031565b81548110611fbb57611fbb613978565b60009182526020909120600290910201546001600160a01b031614801561201057506004611fea600183614031565b81548110611ffa57611ffa613978565b9060005260206000209060020201600101546000145b8061209157506001600160a01b038416600461202d600184614031565b8154811061203d5761203d613978565b60009182526020909120600290910201546001600160a01b0316148015612091575082600461206d600184614031565b8154811061207d5761207d613978565b906000526020600020906002020160010154145b156120a0576001915050610d01565b806120aa81614048565b915050611f8e565b5060009392505050565b60006120c6612b31565b61104f8383613308565b6000610d01826000610d07565b60006120e7612b31565b610d0182613464565b6120f8612b31565b6040516316f4b92960e21b8152600b60048201526001600160a01b038216602482015273__Array_________________________________90635bd2e4a4906044015b602060405180830381865af4158015612158573d6000803e3d6000fd5b505050506040513d601f19601f8201168201806040525081019061217c919061395b565b5050565b60606000805160206141c883398151915282016121a257610d01600080611056565b6121ab82610dd1565b6121ce576040518060a00160405280606c815260200161415c606c913992915050565b6000806121da84610df9565b91509150610dbc8282611056565b6000816001600160401b031660ff6121ff85610e53565b166001600160401b031614905092915050565b600061104f8383613521565b60006000805160206141c8833981519152820161224057610d01600080612643565b61224982610dd1565b61225557506001919050565b60008061226184610df9565b91509150610dbc8282612643565b6060610d01826000611056565b600654600090815b8181101561238357846001600160a01b0316600682815481106122a9576122a9613978565b60009182526020909120600290910201546001600160a01b03161480156122f45750600681815481106122de576122de613978565b9060005260206000209060020201600101546000145b806123615750846001600160a01b03166006828154811061231757612317613978565b60009182526020909120600290910201546001600160a01b03161480156123615750836006828154811061234d5761234d613978565b906000526020600020906002020160010154145b1561237157600192505050610d01565b8061237b816139e3565b915050612284565b506000949350505050565b612396612b31565b60405163edefe12d60e01b8152600b60048201526001600160a01b038216602482015273__Array_________________________________9063edefe12d9060440161213b565b60006123ea836000611f87565b156123f757506001610d01565b8115612414576124078383611f87565b1561241457506001610d01565b6000836001600160a01b031663373a7fb46040518163ffffffff1660e01b8152600401602060405180830381865afa158015612454573d6000803e3d6000fd5b505050506040513d601f19601f82011682018060405250810190612478919061405f565b9050612483816116a9565b612491576000915050610d01565b604051632b43f03360e21b81526001600160a01b0382169063ad0fc0cc906124bf9087908790600401613ad5565b602060405180830381865afa1580156124dc573d6000803e3d6000fd5b505050506040513d601f19601f82011682018060405250810190610dbc919061395b565b600061250c838361227c565b1561251957506000610d01565b6125238383611f87565b1561253057506001610d01565b60075460ff16159392505050565b60008061254a836114c7565b604051639ac1b34560e01b815273__BytesAndKeccakLib_____________________91639ac1b345916125809190600401613c50565b6040805180830381865af415801561259c573d6000803e3d6000fd5b505050506040513d601f19601f82011682018060405250810190610e4a919061407c565b604051632431a7cf60e01b8152600090610d019073__BytesAndKeccakLib_____________________90632431a7cf906125fe908690600401613c50565b600060405180830381865af415801561261b573d6000803e3d6000fd5b505050506040513d6000823e601f3d908101601f1916820160405261080991908101906140a1565b600061104f838361355f565b60408051606081018252600080825260208201819052918101919091526001600160a01b03831661269f575060408051606081018252601119815260006020820152600191810191909152610d01565b6003600073__BytesAndKeccakLib_____________________63d5f0b04d8660006040518363ffffffff1660e01b81526004016126dd929190613ad5565b602060405180830381865af41580156126fa573d6000803e3d6000fd5b505050506040513d601f19601f8201168201806040525081019061271e919061398e565b815260208082019290925260409081016000908120825160608101845290549182900b815261010080830460ff16151594820194909452620100009091046001600160401b0381169282019290925292501615610d01576003600073__BytesAndKeccakLib_____________________63d5f0b04d86866040518363ffffffff1660e01b81526004016127b2929190613ad5565b602060405180830381865af41580156127cf573d6000803e3d6000fd5b505050506040513d601f19601f820116820180604052508101906127f3919061398e565b815260208082019290925260409081016000908120825160608101845290549182900b8152610100820460ff161515938101939093526201000090046001600160401b0316908201529392505050565b6000612851836102006128e7565b61285d57506000610d01565b61286683610fe4565b6040516301ffc9a760e01b81526001600160e01b0319841660048201526001600160a01b0391909116906301ffc9a790602401602060405180830381865afa1580156128b6573d6000803e3d6000fd5b505050506040513d601f19601f8201168201806040525081019061104f919061395b565b6000610d018260006115e2565b6000816128f384610e53565b166001600160401b031615159392505050565b60006001600160a01b03831615801561291d575081155b1561294957507fad3228b676f7d3cd4284a5443f17f1962b36e491b30a40b2405849e597ba5fb5610d01565b60405163d5f0b04d60e01b815273__BytesAndKeccakLib_____________________9063d5f0b04d906129829086908690600401613ad5565b602060405180830381865af415801561299f573d6000803e3d6000fd5b505050506040513d601f19601f8201168201806040525081019061104f919061398e565b60006000805160206141c883398151915282016129e557610d016000806115e2565b6129ee82610dd1565b6129fa57506000919050565b600080612a0684610df9565b91509150610dbc82826115e2565b6000612a1e612b31565b610d01826135b7565b6000612a31612b31565b610d01826135ea565b600080610e4a8361370a565b6000612a50612b31565b61104f838361378c565b612a6261325e565b6001600160a01b038116612ac75760405162461bcd60e51b815260206004820152602660248201527f4f776e61626c653a206e6577206f776e657220697320746865207a65726f206160448201526564647265737360d01b6064820152608401610cb6565b612ad0816132b8565b50565b6040805160608101825260008082526020820181905291810191909152610d0182600061264f565b60006001600160e01b031982166301ffc9a760e01b1480610d0157506001600160e01b03198216632b43f03360e21b1492915050565b6000546001600160a01b0316331480612b4e5750612b4e33611790565b610cbf5760405162461bcd60e51b815260206004820152602d60248201527f416c6c6f77616e63653a2063616c6c6572206d757374206265205265706f736960448201526c3a37b93c9027b832b930ba37b960991b6064820152608401610cb6565b600654600090815b81811015612c4a57846001600160a01b031660068281548110612bdd57612bdd613978565b60009182526020909120600290910201546001600160a01b0316148015612c28575060068181548110612c1257612c12613978565b9060005260206000209060020201600101546000145b15612c3857600092505050610d01565b80612c42816139e3565b915050612bb8565b5082600003612d0c5760001981015b81811015612d0657846001600160a01b031660068281548110612c7e57612c7e613978565b60009182526020909120600290910201546001600160a01b031603612cfd57612cfb60068281548110612cb357612cb3613978565b6000918252602090912060029091020154600680546001600160a01b039092169184908110612ce457612ce4613978565b90600052602060002090600202016001015461378c565b505b60001901612c59565b50612da2565b60005b81811015612da057846001600160a01b031660068281548110612d3457612d34613978565b60009182526020909120600290910201546001600160a01b0316148015612d7e57508360068281548110612d6a57612d6a613978565b906000526020600020906002020160010154145b15612d8e57600092505050610d01565b80612d98816139e3565b915050612d0f565b505b604080518082019091526001600160a01b038581168252602082018581526006805460018101825560009190915292517ff652222313e28459528d920b65115c16c04f3efc82aaedc97be59f3f377c0d3f600290940293840180546001600160a01b0319169190931617909155517ff652222313e28459528d920b65115c16c04f3efc82aaedc97be59f3f377c0d40909101555060019392505050565b60008151835114612e5257506000610d01565b60005b8351811015612ec757828181518110612e7057612e70613978565b602001015160f81c60f81b6001600160f81b031916848281518110612e9757612e97613978565b01602001516001600160f81b03191614612eb5576000915050610d01565b80612ebf816139e3565b915050612e55565b5060019392505050565b60008181526008602052604081208054612eea90613e53565b15159392505050565b6000306001600160a01b03831603612f0d57506001919050565b6005545b8015612f73576001600160a01b0383166005612f2e600184614031565b81548110612f3e57612f3e613978565b6000918252602090912001546001600160a01b031603612f615750600192915050565b80612f6b81614048565b915050612f11565b50600092915050565b6004546000905b8015613026576001600160a01b0384166004612fa0600184614031565b81548110612fb057612fb0613978565b60009182526020909120600290910201546001600160a01b031614801561300557506004612fdf600183614031565b81548110612fef57612fef613978565b9060005260206000209060020201600101546000145b15613014576000915050610d01565b8061301e81614048565b915050612f83565b508160000361311a575b6004545b8015613106576001600160a01b0384166004613051600184614031565b8154811061306157613061613978565b60009182526020909120600290910201546001600160a01b0316036130f4576130ee6004613090600184614031565b815481106130a0576130a0613978565b60009182526020909120600290910201546001600160a01b031660046130c7600185614031565b815481106130d7576130d7613978565b906000526020600020906002020160010154613308565b50613106565b806130fe81614048565b915050613034565b8060000361311457506131c2565b50613030565b6004545b80156131c0576001600160a01b038416600461313b600184614031565b8154811061314b5761314b613978565b60009182526020909120600290910201546001600160a01b031614801561319f575082600461317b600184614031565b8154811061318b5761318b613978565b906000526020600020906002020160010154145b156131ae576000915050610d01565b806131b881614048565b91505061311e565b505b604080518082019091526001600160a01b038481168252602082018481526004805460018101825560009190915292517f8a35acfbc15ff81a39ae7d344fd709f28e8600b4aa8c65c6b64bfe7fe36bd19b600290940293840180546001600160a01b0319169190931617909155517f8a35acfbc15ff81a39ae7d344fd709f28e8600b4aa8c65c6b64bfe7fe36bd19c9091015550600192915050565b6000546001600160a01b03163314610cbf5760405162461bcd60e51b815260206004820152601f60248201527f416c6c6f77616e63653a2063616c6c6572206d757374206265204f776e6572006044820152606401610cb6565b600080546001600160a01b038381166001600160a01b0319831681178455604051919092169283917f8be0079c531659141344cd1fd0a4f28419497f9722a3daafe3b4186f6b6457e09190a35050565b600454600090815b8181101561238357846001600160a01b03166004828154811061333557613335613978565b60009182526020909120600290910201546001600160a01b031614801561337f5750836004828154811061336b5761336b613978565b906000526020600020906002020160010154145b156134525761338f600183614031565b81101561340d5760046133a3600184614031565b815481106133b3576133b3613978565b9060005260206000209060020201600482815481106133d4576133d4613978565b60009182526020909120825460029092020180546001600160a01b0319166001600160a01b039092169190911781556001918201549101555b600480548061341e5761341e614117565b60008281526020812060026000199093019283020180546001600160a01b0319168155600101559055600192505050610d01565b8061345c816139e3565b915050613310565b6005546000905b80156134cd576001600160a01b0383166005613488600184614031565b8154811061349857613498613978565b6000918252602090912001546001600160a01b0316036134bb5750600092915050565b806134c581614048565b91505061346b565b600580546001810182556000919091527f036b6384b5eca791c62761152d0c79bb0604c104a5fb6f4eb0703f3154bb3db00180546001600160a01b0319166001600160a01b03851617905550600192915050565b600061104f73__BytesAndKeccakLib_____________________630de874ed85856040518363ffffffff1660e01b8152600401611659929190613ad5565b60006001600160a01b03831661357757506001610d01565b73__Token_________________________________633646b54861359b858561264f565b6040518263ffffffff1660e01b81526004016129829190613a89565b60075460009082151560ff9091161515036135d457506000919050565b6007805460ff1916831515179055506001919050565b600554600090815b818110156120b257836001600160a01b03166005828154811061361757613617613978565b6000918252602090912001546001600160a01b0316036136f85761363c600183614031565b8110156136bb576005613650600184614031565b8154811061366057613660613978565b600091825260209091200154600580546001600160a01b03909216918390811061368c5761368c613978565b9060005260206000200160006101000a8154816001600160a01b0302191690836001600160a01b031602179055505b60058054806136cc576136cc614117565b600082815260209020810160001990810180546001600160a01b03191690550190555060019392505050565b80613702816139e3565b9150506135f2565b600080613716836114c7565b6040516314130a7960e31b815273__BytesAndKeccakLib_____________________9163a09853c89161374c9190600401613c50565b6040805180830381865af4158015613768573d6000803e3d6000fd5b505050506040513d601f19601f82011682018060405250810190610e4a919061412d565b600654600090815b8181101561238357846001600160a01b0316600682815481106137b9576137b9613978565b60009182526020909120600290910201546001600160a01b0316148015613803575083600682815481106137ef576137ef613978565b906000526020600020906002020160010154145b156138a257613813600183614031565b811015613891576006613827600184614031565b8154811061383757613837613978565b90600052602060002090600202016006828154811061385857613858613978565b60009182526020909120825460029092020180546001600160a01b0319166001600160a01b039092169190911781556001918201549101555b600680548061341e5761341e614117565b806138ac816139e3565b915050613794565b8280546138c090613e53565b90600052602060002090601f0160209004810192826138e25760008555613928565b82601f106138fb57805160ff1916838001178555613928565b82800160010185558215613928579182015b8281111561392857825182559160200191906001019061390d565b50613934929150613938565b5090565b5b808211156139345760008155600101613939565b8015158114612ad057600080fd5b60006020828403121561396d57600080fd5b815161104f8161394d565b634e487b7160e01b600052603260045260246000fd5b6000602082840312156139a057600080fd5b5051919050565b634e487b7160e01b600052602160045260246000fd5b8183823760009101908152919050565b634e487b7160e01b600052601160045260246000fd5b6000600182016139f5576139f56139cd565b5060010190565b80356001600160e01b0319811681146114c257600080fd5b600060208284031215613a2657600080fd5b61104f826139fc565b6001600160a01b0381168114612ad057600080fd5b60008060408385031215613a5757600080fd5b8235613a6281613a2f565b946020939093013593505050565b600060208284031215613a8257600080fd5b5035919050565b815160000b81526020808301511515908201526040808301516001600160401b03169082015260608101610d01565b600060208284031215613aca57600080fd5b813561104f81613a2f565b6001600160a01b03929092168252602082015260400190565b60005b83811015613b09578181015183820152602001613af1565b83811115613b18576000848401525b50505050565b60008151808452613b36816020860160208601613aee565b601f01601f19169290920160200192915050565b60208152600061104f6020830184613b1e565b634e487b7160e01b600052604160045260246000fd5b604051601f8201601f191681016001600160401b0381118282101715613b9b57613b9b613b5d565b604052919050565b60006001600160401b03821115613bbc57613bbc613b5d565b50601f01601f191660200190565b6000613bdd613bd884613ba3565b613b73565b9050828152838383011115613bf157600080fd5b828260208301376000602084830101529392505050565b600060208284031215613c1a57600080fd5b81356001600160401b03811115613c3057600080fd5b8201601f81018413613c4157600080fd5b610dbc84823560208401613bca565b6020808252825182820181905260009190848201906040850190845b81811015613c8857835183529284019291840191600101613c6c565b50909695505050505050565b60008060408385031215613ca757600080fd5b823591506020830135613cb981613a2f565b809150509250929050565b60008060408385031215613cd757600080fd5b50508035926020909101359150565b6001600160401b0381168114612ad057600080fd5b60008060408385031215613d0e57600080fd5b823591506020830135613cb981613ce6565b60006001600160401b03821115613d3957613d39613b5d565b5060051b60200190565b60006020808385031215613d5657600080fd5b82356001600160401b03811115613d6c57600080fd5b8301601f81018513613d7d57600080fd5b8035613d8b613bd882613d20565b81815260059190911b82018301908381019087831115613daa57600080fd5b928401925b82841015613dc857833582529284019290840190613daf565b979650505050505050565b60008060408385031215613de657600080fd5b82359150613df6602084016139fc565b90509250929050565b600060208284031215613e1157600080fd5b813561104f8161394d565b60208082526017908201527f43757272656e6379206e6f742072656769737465726564000000000000000000604082015260600190565b600181811c90821680613e6757607f821691505b6020821081036113b157634e487b7160e01b600052602260045260246000fd5b60008251613e99818460208701613aee565b9190910192915050565b60006020808385031215613eb657600080fd5b82516001600160401b03811115613ecc57600080fd5b8301601f81018513613edd57600080fd5b8051613eeb613bd882613d20565b81815260059190911b82018301908381019087831115613f0a57600080fd5b928401925b82841015613dc857835182529284019290840190613f0f565b60008060408385031215613f3b57600080fd5b505080516020909101519092909150565b600060608284031215613f5e57600080fd5b604051606081018181106001600160401b0382111715613f8057613f80613b5d565b6040528251600081900b8114613f9557600080fd5b81526020830151613fa58161394d565b60208201526040830151613fb881613ce6565b60408201529392505050565b634e487b7160e01b600052600160045260246000fd5b6001600160a01b03851681526020810184905260c081016140206040830185805160000b82526020808201511515908301526040908101516001600160401b0316910152565b82151560a083015295945050505050565b600082821015614043576140436139cd565b500390565b600081614057576140576139cd565b506000190190565b60006020828403121561407157600080fd5b815161104f81613a2f565b6000806040838503121561408f57600080fd5b825191506020830151613cb981613a2f565b6000602082840312156140b357600080fd5b81516001600160401b038111156140c957600080fd5b8201601f810184136140da57600080fd5b80516140e8613bd882613ba3565b8181528560208385010111156140fd57600080fd5b61410e826020830160208601613aee565b95945050505050565b634e487b7160e01b600052603160045260246000fd5b6000806040838503121561414057600080fd5b825161414b81613a2f565b602093909301519294929350505056fe68747470733a2f2f6769746875622e636f6d2f5061747269636b416c706861432f646566692d7374616b652d7969656c642d62726f776e69652d66726565636f64652f626c6f622f6d61696e2f66726f6e745f656e642f7372632f646170702e706e673f7261773d7472756552cdd74989082c32bd7b5abbc0e80e69d4c91b6e4cf5bf4dbfa7b61a6845a04b68747470733a2f2f7261772e67697468756275736572636f6e74656e742e636f6d2f5061747269636b416c706861432f646566692d7374616b652d7969656c642d62726f776e69652d66726565636f64652f6d61696e2f66726f6e745f656e642f7372632f6574682e706e673f7261773d74727565a264697066735822122080eb6d9adb687d033614c6be7379a5be834c6680926570e9e9d4a1af9dcda68364736f6c634300080d0033","bytecodeSha1":"4947042cd3279086f01fe5af9e5e0cff00c8bf74","type":"contract","abi":[{"inputs":[{"internalType":"bool","name":"MODETEST_","type":"bool"}],"stateMutability":"nonpayable","type":"constructor","name":"constructor"},{"anonymous":false,"inputs":[{"indexed":true,"internalType":"address","name":"previousOwner","type":"address"},{"indexed":true,"internalType":"address","name":"newOwner","type":"address"}],"name":"OwnershipTransferred","type":"event"},{"stateMutability":"nonpayable","type":"fallback"},{"inputs":[{"internalType":"address","name":"addr_","type":"address"},{"internalType":"uint256","name":"v_","type":"uint256"}],"name":"AddressUInt256","outputs":[{"internalType":"bytes32","name":"k_","type":"bytes32"}],"stateMutability":"nonpayable","type":"function"},{"inputs":[{"internalType":"bytes","name":"in_","type":"bytes"}],"name":"Bytes","outputs":[{"internalType":"bytes32","name":"k_","type":"bytes32"}],"stateMutability":"nonpayable","type":"function"},{"inputs":[{"internalType":"bytes32","name":"v_","type":"bytes32"},{"internalType":"address","name":"addr_","type":"address"}],"name":"Bytes32Address","outputs":[{"internalType":"bytes32","name":"k_","type":"bytes32"}],"stateMutability":"nonpayable","type":"function"},{"inputs":[{"internalType":"bytes32[]","name":"in_","type":"bytes32[]"}],"name":"Bytes32Array","outputs":[{"internalType":"bytes32","name":"k_","type":"bytes32"}],"stateMutability":"nonpayable","type":"function"},{"inputs":[{"internalType":"bytes32","name":"v1_","type":"bytes32"},{"internalType":"bytes32","name":"v2_","type":"bytes32"}],"name":"Bytes32Bytes32","outputs":[{"internalType":"bytes32","name":"k_","type":"bytes32"}],"stateMutability":"nonpayable","type":"function"},{"inputs":[],"name":"MODETEST","outputs":[{"internalType":"bool","name":"","type":"bool"}],"stateMutability":"view","type":"function"},{"inputs":[{"internalType":"string","name":"in_","type":"string"}],"name":"String","outputs":[{"internalType":"bytes32","name":"k_","type":"bytes32"}],"stateMutability":"nonpayable","type":"function"},{"inputs":[],"name":"_originalblock","outputs":[{"internalType":"uint256","name":"","type":"uint256"}],"stateMutability":"view","type":"function"},{"inputs":[{"internalType":"address","name":"bot_","type":"address"}],"name":"addOperator","outputs":[],"stateMutability":"nonpayable","type":"function"},{"inputs":[{"internalType":"address","name":"token","type":"address"},{"internalType":"uint256","name":"tokenId","type":"uint256"}],"name":"addTokenCertified","outputs":[{"internalType":"bool","name":"","type":"bool"}],"stateMutability":"nonpayable","type":"function"},{"inputs":[{"internalType":"address","name":"certifier_","type":"address"}],"name":"addTrustedCertifier","outputs":[{"internalType":"bool","name":"","type":"bool"}],"stateMutability":"nonpayable","type":"function"},{"inputs":[{"internalType":"contract IContractCertified","name":"contractAddr_","type":"address"},{"internalType":"uint256","name":"contractId_","type":"uint256"}],"name":"certify","outputs":[{"internalType":"bool","name":"","type":"bool"}],"stateMutability":"view","type":"function"},{"inputs":[{"internalType":"address","name":"addr_","type":"address"},{"internalType":"uint256","name":"id_","type":"uint256"}],"name":"currency","outputs":[{"internalType":"bytes32","name":"k_","type":"bytes32"}],"stateMutability":"nonpayable","type":"function"},{"inputs":[{"internalType":"bytes32","name":"k_","type":"bytes32"}],"name":"exists","outputs":[{"internalType":"bool","name":"","type":"bool"}],"stateMutability":"view","type":"function"},{"inputs":[{"internalType":"bytes32","name":"tokenhash_","type":"bytes32"}],"name":"existsCurrency","outputs":[{"internalType":"bool","name":"","type":"bool"}],"stateMutability":"view","type":"function"},{"inputs":[{"internalType":"address","name":"token_","type":"address"},{"internalType":"uint256","name":"tokenId_","type":"uint256"}],"name":"features","outputs":[{"internalType":"uint64","name":"","type":"uint64"}],"stateMutability":"view","type":"function"},{"inputs":[{"internalType":"bytes32","name":"tokenhash_","type":"bytes32"}],"name":"features","outputs":[{"internalType":"uint64","name":"","type":"uint64"}],"stateMutability":"view","type":"function"},{"inputs":[{"internalType":"address","name":"token_","type":"address"}],"name":"features","outputs":[{"internalType":"uint64","name":"","type":"uint64"}],"stateMutability":"view","type":"function"},{"inputs":[{"internalType":"bytes32","name":"hash_","type":"bytes32"}],"name":"get","outputs":[{"internalType":"address","name":"","type":"address"}],"stateMutability":"view","type":"function"},{"inputs":[{"internalType":"address","name":"token_","type":"address"}],"name":"granularity","outputs":[{"internalType":"uint256","name":"","type":"uint256"}],"stateMutability":"view","type":"function"},{"inputs":[{"internalType":"bytes32","name":"tokenhash_","type":"bytes32"}],"name":"granularity","outputs":[{"internalType":"uint256","name":"","type":"uint256"}],"stateMutability":"view","type":"function"},{"inputs":[{"internalType":"address","name":"token_","type":"address"},{"internalType":"uint256","name":"tokenId_","type":"uint256"}],"name":"granularity","outputs":[{"internalType":"uint256","name":"","type":"uint256"}],"stateMutability":"view","type":"function"},{"inputs":[{"internalType":"bytes32","name":"tokenhash_","type":"bytes32"},{"internalType":"uint64","name":"feature_","type":"uint64"}],"name":"hasFeature","outputs":[{"internalType":"bool","name":"","type":"bool"}],"stateMutability":"view","type":"function"},{"inputs":[{"internalType":"address","name":"token_","type":"address"},{"internalType":"uint256","name":"tokenId_","type":"uint256"}],"name":"image","outputs":[{"internalType":"string","name":"","type":"string"}],"stateMutability":"view","type":"function"},{"inputs":[{"internalType":"bytes32","name":"tokenhash_","type":"bytes32"}],"name":"image","outputs":[{"internalType":"string","name":"","type":"string"}],"stateMutability":"view","type":"function"},{"inputs":[{"internalType":"address","name":"token_","type":"address"}],"name":"image","outputs":[{"internalType":"string","name":"","type":"string"}],"stateMutability":"view","type":"function"},{"inputs":[{"internalType":"address","name":"caller_","type":"address"}],"name":"isContract","outputs":[{"internalType":"bool","name":"","type":"bool"}],"stateMutability":"view","type":"function"},{"inputs":[{"internalType":"address","name":"contractAddr_","type":"address"},{"internalType":"uint256","name":"contractId_","type":"uint256"}],"name":"isContractAllowed","outputs":[{"internalType":"bool","name":"","type":"bool"}],"stateMutability":"view","type":"function"},{"inputs":[{"internalType":"address","name":"contractAddr_","type":"address"},{"internalType":"uint256","name":"contractId_","type":"uint256"}],"name":"isContractCertified","outputs":[{"internalType":"bool","name":"","type":"bool"}],"stateMutability":"view","type":"function"},{"inputs":[{"internalType":"address","name":"contractAddr_","type":"address"},{"internalType":"uint256","name":"contractId_","type":"uint256"}],"name":"isContractForbidden","outputs":[{"internalType":"bool","name":"","type":"bool"}],"stateMutability":"view","type":"function"},{"inputs":[],"name":"isContractForbiddenUnknown","outputs":[{"internalType":"bool","name":"","type":"bool"}],"stateMutability":"view","type":"function"},{"inputs":[{"internalType":"bytes32","name":"tokenhash_","type":"bytes32"},{"internalType":"uint64","name":"type_","type":"uint64"}],"name":"isFeatureType","outputs":[{"internalType":"bool","name":"","type":"bool"}],"stateMutability":"view","type":"function"},{"inputs":[{"internalType":"address","name":"caller_","type":"address"}],"name":"isOperator","outputs":[{"internalType":"bool","name":"","type":"bool"}],"stateMutability":"view","type":"function"},{"inputs":[{"internalType":"address","name":"caller_","type":"address"}],"name":"isOwner","outputs":[{"internalType":"bool","name":"","type":"bool"}],"stateMutability":"view","type":"function"},{"inputs":[{"internalType":"address","name":"certifier_","type":"address"}],"name":"isTrustedCertifier","outputs":[{"internalType":"bool","name":"","type":"bool"}],"stateMutability":"view","type":"function"},{"inputs":[{"internalType":"address","name":"token_","type":"address"},{"internalType":"uint256","name":"tokenId_","type":"uint256"}],"name":"nft","outputs":[{"internalType":"bool","name":"","type":"bool"}],"stateMutability":"view","type":"function"},{"inputs":[{"internalType":"address","name":"token_","type":"address"}],"name":"nft","outputs":[{"internalType":"bool","name":"","type":"bool"}],"stateMutability":"view","type":"function"},{"inputs":[{"internalType":"bytes32","name":"tokenhash_","type":"bytes32"}],"name":"nft","outputs":[{"internalType":"bool","name":"","type":"bool"}],"stateMutability":"view","type":"function"},{"inputs":[],"name":"owner","outputs":[{"internalType":"address","name":"","type":"address"}],"stateMutability":"view","type":"function"},{"inputs":[{"internalType":"address","name":"addr_","type":"address"},{"internalType":"uint256","name":"id_","type":"uint256"}],"name":"pureCurrency","outputs":[{"internalType":"bytes32","name":"k_","type":"bytes32"}],"stateMutability":"pure","type":"function"},{"inputs":[{"internalType":"address","name":"bot_","type":"address"}],"name":"removeOperator","outputs":[],"stateMutability":"nonpayable","type":"function"},{"inputs":[{"internalType":"address","name":"token","type":"address"},{"internalType":"uint256","name":"tokenId","type":"uint256"}],"name":"removeTokenCertified","outputs":[{"internalType":"bool","name":"","type":"bool"}],"stateMutability":"nonpayable","type":"function"},{"inputs":[{"internalType":"address","name":"certifier_","type":"address"}],"name":"removeTrustedCertifier","outputs":[{"internalType":"bool","name":"","type":"bool"}],"stateMutability":"nonpayable","type":"function"},{"inputs":[],"name":"renounceOwnership","outputs":[],"stateMutability":"nonpayable","type":"function"},{"inputs":[{"internalType":"bytes32","name":"k_","type":"bytes32"}],"name":"resolveAddressUInt256","outputs":[{"internalType":"address","name":"addr_","type":"address"},{"internalType":"uint256","name":"v_","type":"uint256"}],"stateMutability":"view","type":"function"},{"inputs":[{"internalType":"bytes32","name":"k_","type":"bytes32"}],"name":"resolveBytes","outputs":[{"internalType":"bytes","name":"out_","type":"bytes"}],"stateMutability":"view","type":"function"},{"inputs":[{"internalType":"bytes32","name":"k_","type":"bytes32"}],"name":"resolveBytes32Address","outputs":[{"internalType":"bytes32","name":"v_","type":"bytes32"},{"internalType":"address","name":"addr_","type":"address"}],"stateMutability":"view","type":"function"},{"inputs":[{"internalType":"bytes32","name":"k_","type":"bytes32"}],"name":"resolveBytes32Array","outputs":[{"internalType":"bytes32[]","name":"out_","type":"bytes32[]"}],"stateMutability":"view","type":"function"},{"inputs":[{"internalType":"bytes32","name":"k_","type":"bytes32"}],"name":"resolveBytes32Bytes32","outputs":[{"internalType":"bytes32","name":"v1_","type":"bytes32"},{"internalType":"bytes32","name":"v2_","type":"bytes32"}],"stateMutability":"view","type":"function"},{"inputs":[{"internalType":"bytes32","name":"tokenhash_","type":"bytes32"}],"name":"resolveCurrency","outputs":[{"internalType":"address","name":"addr","type":"address"},{"internalType":"uint256","name":"id","type":"uint256"}],"stateMutability":"view","type":"function"},{"inputs":[{"internalType":"bytes32","name":"tokenhash_","type":"bytes32"}],"name":"resolveCurrencyAddr","outputs":[{"internalType":"address","name":"","type":"address"}],"stateMutability":"view","type":"function"},{"inputs":[{"internalType":"bytes32","name":"k_","type":"bytes32"}],"name":"resolveString","outputs":[{"internalType":"string","name":"out_","type":"string"}],"stateMutability":"view","type":"function"},{"inputs":[{"internalType":"address","name":"addr_","type":"address"},{"internalType":"uint256","name":"id_","type":"uint256"}],"name":"roCurrency","outputs":[{"internalType":"bytes32","name":"k_","type":"bytes32"}],"stateMutability":"view","type":"function"},{"inputs":[{"internalType":"contract IRepositoryContract","name":"contract_","type":"address"}],"name":"setContract","outputs":[],"stateMutability":"nonpayable","type":"function"},{"inputs":[{"internalType":"bytes4","name":"interfaceId","type":"bytes4"}],"name":"supportsInterface","outputs":[{"internalType":"bool","name":"","type":"bool"}],"stateMutability":"view","type":"function"},{"inputs":[{"internalType":"bytes32","name":"tokenhash_","type":"bytes32"},{"internalType":"bytes4","name":"interfaceId","type":"bytes4"}],"name":"supportsInterface","outputs":[{"internalType":"bool","name":"","type":"bool"}],"stateMutability":"view","type":"function"},{"inputs":[{"internalType":"address","name":"token_","type":"address"},{"internalType":"uint256","name":"tokenid_","type":"uint256"}],"name":"token","outputs":[],"stateMutability":"nonpayable","type":"function"},{"inputs":[{"internalType":"address","name":"token","type":"address"},{"internalType":"uint256","name":"tokenId","type":"uint256"}],"name":"tokenForbiddenAdd","outputs":[{"internalType":"bool","name":"","type":"bool"}],"stateMutability":"nonpayable","type":"function"},{"inputs":[{"internalType":"address","name":"token","type":"address"},{"internalType":"uint256","name":"tokenId","type":"uint256"}],"name":"tokenForbiddenRemove","outputs":[{"internalType":"bool","name":"","type":"bool"}],"stateMutability":"nonpayable","type":"function"},{"inputs":[{"internalType":"bool","name":"forbiddenunknown_","type":"bool"}],"name":"tokenForbiddenUnknownSet","outputs":[{"internalType":"bool","name":"","type":"bool"}],"stateMutability":"nonpayable","type":"function"},{"inputs":[{"internalType":"bytes32","name":"tokenhash_","type":"bytes32"}],"name":"tokenInfo","outputs":[{"components":[{"internalType":"int8","name":"granularity","type":"int8"},{"internalType":"bool","name":"nft","type":"bool"},{"internalType":"uint64","name":"features","type":"uint64"}],"internalType":"struct Token.Info","name":"","type":"tuple"}],"stateMutability":"view","type":"function"},{"inputs":[{"internalType":"address","name":"token_","type":"address"},{"internalType":"uint256","name":"tokenId_","type":"uint256"}],"name":"tokenInfo","outputs":[{"components":[{"internalType":"int8","name":"granularity","type":"int8"},{"internalType":"bool","name":"nft","type":"bool"},{"internalType":"uint64","name":"features","type":"uint64"}],"internalType":"struct Token.Info","name":"out_","type":"tuple"}],"stateMutability":"view","type":"function"},{"inputs":[{"internalType":"address","name":"token_","type":"address"}],"name":"tokenInfo","outputs":[{"components":[{"internalType":"int8","name":"granularity","type":"int8"},{"internalType":"bool","name":"nft","type":"bool"},{"internalType":"uint64","name":"features","type":"uint64"}],"internalType":"struct Token.Info","name":"out_","type":"tuple"}],"stateMutability":"view","type":"function"},{"inputs":[{"internalType":"address","name":"newOwner","type":"address"}],"name":"transferOwnership","outputs":[],"stateMutability":"nonpayable","type":"function"}],"compiler":{"version":"0.8.13+commit.abaa5c0e","evm_version":"istanbul","optimizer":{"enabled":true,"runs":200}},"contractName":"Repository","deployedBytecode":"608060405234801561001057600080fd5b50600436106103d05760003560e01c806381b2490b116101ff578063ad10a1351161011a578063c9c2a940116100ad578063e50d1b3e1161007c578063e50d1b3e14610bef578063e855a31314610c02578063f2fde38b14610c15578063f5dab71114610c28576103d0565b8063c9c2a94014610ba3578063d47a7edd14610bb6578063d4945d0e14610bc9578063dbf5f2fd14610bdc576103d0565b8063bb7d88a9116100e9578063bb7d88a914610b57578063c33470d314610b6a578063c452e6b614610b7d578063c5537eb714610b90576103d0565b8063ad10a13514610aee578063af91558514610b01578063b305438314610b31578063b72a4a7114610b44576103d0565b80639e9bb9c111610192578063a9d4632611610161578063a9d4632614610aa2578063ababadb514610ab5578063ac8a584a14610ac8578063ad0fc0cc14610adb576103d0565b80639e9bb9c114610a56578063a663d4f514610a69578063a86eeb9114610a7c578063a9bf985814610a8f576103d0565b80638da5cb5b116101ce5780638da5cb5b146109f65780638eaa6ac014610a0757806395b5d58414610a305780639870d7fe14610a43576103d0565b806381b2490b146109b257806383350075146109c557806389765f59146109d05780638d49d89b146109e3576103d0565b806338a699a4116102ef5780635b62cb70116102825780636d70f7ae116102515780636d70f7ae146109715780636f45768314610984578063715018a61461099757806375f890ab1461099f576103d0565b80635b62cb701461091057806361e99ffb14610923578063657c7e091461093657806367c51dfc1461095e576103d0565b8063509ff69b116102be578063509ff69b146108c4578063552cdf98146108d75780635768bbb5146108ea578063589e6a98146108fd576103d0565b806338a699a4146108775780634329598c146107775780634635229b1461088a5780634f79b792146108b1576103d0565b8063162790551161036757806324ace6721161033657806324ace672146107fb5780632558a0791461080e57806327ee9dc2146108355780632f54bf6e14610855576103d0565b80631627905514610797578063184bc906146107aa57806318d54cf3146107d55780631d7a3b72146107e8576103d0565b806307d61085116103a357806307d61085146107305780630ea94b9614610743578063120f6ee31461076457806312cae67b14610777576103d0565b806301ffc9a71461069c5780630221c7de146106c457806303565ea1146106ef578063036995df1461070f575b6103d8610c3b565b60405163825998c160e01b8152600d60048201526000356001600160e01b031916602482015273__$f71e59c5327218924d154e230469c101bd$__9063825998c190604401602060405180830381865af415801561043a573d6000803e3d6000fd5b505050506040513d601f19601f8201168201806040525081019061045e919061395b565b5060005b600a5481101561069a57336001600160a01b0316600a828154811061048957610489613978565b6000918252602090912001546001600160a01b031614610688576000600a82815481106104b8576104b8613978565b600091825260209182902001546040805163af640d0f60e01b815290516001600160a01b039092169263af640d0f926004808401938290030181865afa158015610506573d6000803e3d6000fd5b505050506040513d601f19601f8201168201806040525081019061052a919061398e565b905060016000828152600c602090815260408083206001600160e01b0319843516845290915290205460ff166002811115610567576105676139a7565b036105725750610688565b6000600a838154811061058757610587613978565b60009182526020822001546040516001600160a01b03909116916105ac9136906139bd565b6000604051808303816000865af19150503d80600081146105e9576040519150601f19603f3d011682016040523d82523d6000602084013e6105ee565b606091505b50506000838152600c6020908152604080832083356001600160e01b03191684529091528120549192509060ff16600281111561062d5761062d6139a7565b03610685578061063e576001610641565b60025b6000838152600c602090815260408083206001600160e01b031984351684529091529020805460ff1916600183600281111561067f5761067f6139a7565b02179055505b50505b80610692816139e3565b915050610462565b005b6106af6106aa366004613a14565b610cc1565b60405190151581526020015b60405180910390f35b6106d76106d2366004613a44565b610d07565b6040516001600160401b0390911681526020016106bb565b6107026106fd366004613a70565b610d34565b6040516106bb9190613a89565b61072261071d366004613ab8565b610dc4565b6040519081526020016106bb565b6106af61073e366004613a70565b610dd1565b610756610751366004613a70565b610df9565b6040516106bb929190613ad5565b6106d7610772366004613a70565b610e53565b61078a610785366004613a70565b610ea4565b6040516106bb9190613b4a565b6106af6107a5366004613ab8565b610f46565b6107bd6107b8366004613a70565b610fe4565b6040516001600160a01b0390911681526020016106bb565b6106af6107e3366004613a44565b61103b565b61078a6107f6366004613a44565b611056565b610722610809366004613c08565b611364565b6107227f000000000000000000000000000000000000000000000000000000000000000081565b610848610843366004613a70565b6114c7565b6040516106bb9190613c50565b6106af610863366004613ab8565b6000546001600160a01b0391821691161490565b6106af610885366004613a70565b61154d565b6106af7f000000000000000000000000000000000000000000000000000000000000000081565b6107226108bf366004613a44565b611558565b6107226108d2366004613a44565b61158b565b6106af6108e5366004613a44565b6115e2565b6107226108f8366004613c94565b61160f565b61072261090b366004613c08565b61169e565b6106af61091e366004613ab8565b6116a9565b610722610931366004613cc4565b6116b4565b610949610944366004613a70565b6116fa565b604080519283526020830191909152016106bb565b6106af61096c366004613a44565b61177c565b6106af61097f366004613ab8565b611790565b61069a610992366004613a44565b6117f1565b61069a611c9c565b61069a6109ad366004613ab8565b611cae565b6106af6109c0366004613a44565b611f87565b60075460ff166106af565b6106af6109de366004613a44565b6120bc565b6106d76109f1366004613ab8565b6120d0565b6000546001600160a01b03166107bd565b6107bd610a15366004613a70565b6000908152600960205260409020546001600160a01b031690565b6106af610a3e366004613ab8565b6120dd565b61069a610a51366004613ab8565b6120f0565b61078a610a64366004613a70565b612180565b6106af610a77366004613cfb565b6121e8565b610722610a8a366004613a44565b612212565b610722610a9d366004613a70565b61221e565b61078a610ab0366004613ab8565b61226f565b6106af610ac3366004613a44565b61227c565b61069a610ad6366004613ab8565b61238e565b6106af610ae9366004613a44565b6123dd565b6106af610afc366004613a44565b612500565b610b14610b0f366004613a70565b61253e565b604080519283526001600160a01b039091166020830152016106bb565b610722610b3f366004613d43565b6125c0565b610722610b52366004613a44565b612643565b610702610b65366004613a44565b61264f565b6106af610b78366004613dd3565b612843565b6106af610b8b366004613ab8565b6128da565b6106af610b9e366004613cfb565b6128e7565b610722610bb1366004613a44565b612906565b6106af610bc4366004613a70565b6129c3565b6106af610bd7366004613dff565b612a14565b6106af610bea366004613ab8565b612a27565b610756610bfd366004613a70565b612a3a565b6106af610c10366004613a44565b612a46565b61069a610c23366004613ab8565b612a5a565b610702610c36366004613ab8565b612ad3565b6000546001600160a01b0316331480610c585750610c5833610f46565b610cbf5760405162461bcd60e51b815260206004820152602d60248201527f416c6c6f77616e63653a2063616c6c6572206d757374206265205265706f736960448201526c1d1bdc9e4810dbdb9d1c9858dd609a1b60648201526084015b60405180910390fd5b565b60006001600160e01b031982166301ffc9a760e01b1480610cf257506305b62cb760e41b6001600160e01b03198316145b80610d015750610d0182612afb565b92915050565b60006001600160a01b038316610d1f57506001610d01565b610d29838361264f565b604001519392505050565b60408051606081018252600080825260208201819052918101919091526000805160206141c88339815191528201610d7157610d0160008061264f565b610d7a82610dd1565b610da25750506040805160608101825260111981526000602082018190529181019190915290565b600080610dae84610df9565b91509150610dbc828261264f565b949350505050565b6000610d01826000612643565b60006000805160206141c88339815191528201610df057506001919050565b610d018261154d565b6000806000805160206141c88339815191528301610e1c57506000928392509050565b610e258361154d565b610e415760405162461bcd60e51b8152600401610cb690613e1c565b610e4a83612a3a565b91509150915091565b60006000805160206141c88339815191528201610e7557610d01600080610d07565b610e7e82610dd1565b610e8a57506000919050565b600080610e9684610df9565b91509150610dbc8282610d07565b6000818152600860205260409020805460609190610ec190613e53565b80601f0160208091040260200160405190810160405280929190818152602001828054610eed90613e53565b8015610f3a5780601f10610f0f57610100808354040283529160200191610f3a565b820191906000526020600020905b815481529060010190602001808311610f1d57829003601f168201915b50505050509050919050565b6000306001600160a01b03831603610f6057506001919050565b60405163f132566360e01b8152600a60048201526001600160a01b038316602482015273__$f71e59c5327218924d154e230469c101bd$__9063f1325663906044015b602060405180830381865af4158015610fc0573d6000803e3d6000fd5b505050506040513d601f19601f82011682018060405250810190610d01919061395b565b60006000805160206141c8833981519152820161100357506000919050565b61100c8261154d565b6110285760405162461bcd60e51b8152600401610cb690613e1c565b600061103383612a3a565b509392505050565b6000611045612b31565b61104f8383612bb0565b9392505050565b60606001600160a01b038316611086576040518060a00160405280607581526020016141e8607591399050610d01565b60006001600073__$669c6e0eba2465bd6779ea6ec5db3af1b5$__63d5f0b04d87876040518363ffffffff1660e01b81526004016110c5929190613ad5565b602060405180830381865af41580156110e2573d6000803e3d6000fd5b505050506040513d601f19601f82011682018060405250810190611106919061398e565b8152602001908152602001600020805461111f90613e53565b80601f016020809104026020016040519081016040528092919081815260200182805461114b90613e53565b80156111985780601f1061116d57610100808354040283529160200191611198565b820191906000526020600020905b81548152906001019060200180831161117b57829003601f168201915b5050604080516000815260208101808352815190209596506111c09450869350019050613e87565b60405160208183030381529060405280519060200120146111e2579050610d01565b8215611343576001600073__$669c6e0eba2465bd6779ea6ec5db3af1b5$__63d5f0b04d8760006040518363ffffffff1660e01b8152600401611226929190613ad5565b602060405180830381865af4158015611243573d6000803e3d6000fd5b505050506040513d601f19601f82011682018060405250810190611267919061398e565b8152602001908152602001600020805461128090613e53565b80601f01602080910402602001604051908101604052809291908181526020018280546112ac90613e53565b80156112f95780601f106112ce576101008083540402835291602001916112f9565b820191906000526020600020905b8154815290600101906020018083116112dc57829003601f168201915b5050604080516000815260208101808352815190209596506113219450869350019050613e87565b6040516020818303038152906040528051906020012014611343579050610d01565b6040518060a00160405280606c815260200161415c606c9139949350505050565b8051602080830191909120600081815260089092526040909120805461138990613e53565b90506000036113b757600081815260086020908152604090912083516113b1928501906138b4565b50919050565b6000818152600860205260409020805461145991906113d590613e53565b80601f016020809104026020016040519081016040528092919081815260200182805461140190613e53565b801561144e5780601f106114235761010080835404028352916020019161144e565b820191906000526020600020905b81548152906001019060200180831161143157829003601f168201915b505050505083612e3f565b6114c25760405162461bcd60e51b815260206004820152603460248201527f4b656363616b496e766572746572204279746573206b656363616b2069736e7460448201527320756e697175652021212121212121212121212160601b6064820152608401610cb6565b919050565b60606114d282610ea4565b6040516355b04b0d60e11b815273__$669c6e0eba2465bd6779ea6ec5db3af1b5$__9163ab60961a916115089190600401613b4a565b600060405180830381865af4158015611525573d6000803e3d6000fd5b505050506040513d6000823e601f3d908101601f19168201604052610d019190810190613ea3565b6000610d0182612ed1565b60006115648383612906565b905061156f8161154d565b610d015760405162461bcd60e51b8152600401610cb690613e1c565b60006001600160a01b0383161580156115a2575081155b156115ce57507fad3228b676f7d3cd4284a5443f17f1962b36e491b30a40b2405849e597ba5fb5610d01565b6115d883836117f1565b61104f8383612212565b60006001600160a01b0383166115fa57506000610d01565b611604838361264f565b602001519392505050565b6040516318f7a7c360e21b8152600481018390526001600160a01b038216602482015260009061104f9073__$669c6e0eba2465bd6779ea6ec5db3af1b5$__906363de9f0c906044015b600060405180830381865af4158015611676573d6000803e3d6000fd5b505050506040513d6000823e601f3d908101601f19168201604052610b3f9190810190613ea3565b6000610d0182611364565b6000610d0182612ef3565b604051632291b3f160e21b8152600481018390526024810182905260009061104f9073__$669c6e0eba2465bd6779ea6ec5db3af1b5$__90638a46cfc490604401611659565b600080611706836114c7565b60405163029695c360e21b815273__$669c6e0eba2465bd6779ea6ec5db3af1b5$__91630a5a570c9161173c9190600401613c50565b6040805180830381865af4158015611758573d6000803e3d6000fd5b505050506040513d601f19601f82011682018060405250810190610e4a9190613f28565b6000611786612b31565b61104f8383612f7c565b6000306001600160a01b038316036117aa57506001919050565b60405163f132566360e01b8152600b60048201526001600160a01b038316602482015273__$f71e59c5327218924d154e230469c101bd$__9063f132566390604401610fa3565b60008073__$669c6e0eba2465bd6779ea6ec5db3af1b5$__63d5f0b04d8560006040518363ffffffff1660e01b815260040161182e929190613ad5565b602060405180830381865af415801561184b573d6000803e3d6000fd5b505050506040513d601f19601f8201168201806040525081019061186f919061398e565b60008181526003602052604081208054909450919250620100009091046001600160401b03169003611a0457604051634dd11f0f60e11b81526001600160a01b0385166004820152600060248201526001604482015273__$cc6df4ca04d157c820770f5225eff0121b$__90639ba23e1e90606401606060405180830381865af4158015611901573d6000803e3d6000fd5b505050506040513d601f19601f820116820180604052508101906119259190613f4c565b6000828152600360209081526040918290208351815492850151948401516001600160401b0316620100000269ffffffffffffffff0000199515156101000261ffff1990941660ff90921691909117929092179390931617909155516316061a7160e21b815273__$f71e59c5327218924d154e230469c101bd$__9063581869c4906119c1906002908590600401918252602082015260400190565b602060405180830381865af41580156119de573d6000803e3d6000fd5b505050506040513d601f19601f82011682018060405250810190611a02919061395b565b505b81546201000090046001600160401b0316600003611a2457611a24613fc4565b815462010000900461010016600003611a3d5750505050565b604080516060810182528354600081900b8252610100810460ff16151560208301526201000090046001600160401b031681830152905163d5f0b04d60e01b815273__$669c6e0eba2465bd6779ea6ec5db3af1b5$__9063d5f0b04d90611aaa9088908890600401613ad5565b602060405180830381865af4158015611ac7573d6000803e3d6000fd5b505050506040513d601f19601f82011682018060405250810190611aeb919061398e565b60008181526003602052604081208054909550919350620100009091046001600160401b03169003611c755760405163543af62760e01b815273__$cc6df4ca04d157c820770f5225eff0121b$__9063543af62790611b5590889088908690600190600401613fda565b606060405180830381865af4158015611b72573d6000803e3d6000fd5b505050506040513d601f19601f82011682018060405250810190611b969190613f4c565b6000838152600360209081526040918290208351815492850151948401516001600160401b0316620100000269ffffffffffffffff0000199515156101000261ffff1990941660ff90921691909117929092179390931617909155516316061a7160e21b815273__$f71e59c5327218924d154e230469c101bd$__9063581869c490611c32906002908690600401918252602082015260400190565b602060405180830381865af4158015611c4f573d6000803e3d6000fd5b505050506040513d601f19601f82011682018060405250810190611c73919061395b565b505b82546201000090046001600160401b0316600003611c9557611c95613fc4565b5050505050565b611ca461325e565b610cbf60006132b8565b611cb6612b31565b6040516301ffc9a760e01b81526315d3789560e31b60048201526001600160a01b038216906301ffc9a790602401602060405180830381865afa158015611d01573d6000803e3d6000fd5b505050506040513d601f19601f82011682018060405250810190611d25919061395b565b611d7d5760405162461bcd60e51b8152602060048201526024808201527f636f6e7472616374206d75737420626520495265706f7369746f7279436f6e746044820152631c9858dd60e21b6064820152608401610cb6565b60005b600d54811015611e6657600c6000836001600160a01b031663af640d0f6040518163ffffffff1660e01b8152600401602060405180830381865afa158015611dcc573d6000803e3d6000fd5b505050506040513d601f19601f82011682018060405250810190611df0919061398e565b81526020019081526020016000206000600d8381548110611e1357611e13613978565b6000918252602080832060088304015460079092166004026101000a90910460e01b6001600160e01b03191683528201929092526040019020805460ff1916905580611e5e816139e3565b915050611d80565b506040516316f4b92960e21b8152600a60048201526001600160a01b038216602482015273__$f71e59c5327218924d154e230469c101bd$__90635bd2e4a490604401602060405180830381865af4158015611ec6573d6000803e3d6000fd5b505050506040513d601f19601f82011682018060405250810190611eea919061395b565b508060096000836001600160a01b031663af640d0f6040518163ffffffff1660e01b8152600401602060405180830381865afa158015611f2e573d6000803e3d6000fd5b505050506040513d601f19601f82011682018060405250810190611f52919061398e565b815260200190815260200160002060006101000a8154816001600160a01b0302191690836001600160a01b0316021790555050565b6004546000905b80156120b2576001600160a01b0384166004611fab600184614031565b81548110611fbb57611fbb613978565b60009182526020909120600290910201546001600160a01b031614801561201057506004611fea600183614031565b81548110611ffa57611ffa613978565b9060005260206000209060020201600101546000145b8061209157506001600160a01b038416600461202d600184614031565b8154811061203d5761203d613978565b60009182526020909120600290910201546001600160a01b0316148015612091575082600461206d600184614031565b8154811061207d5761207d613978565b906000526020600020906002020160010154145b156120a0576001915050610d01565b806120aa81614048565b915050611f8e565b5060009392505050565b60006120c6612b31565b61104f8383613308565b6000610d01826000610d07565b60006120e7612b31565b610d0182613464565b6120f8612b31565b6040516316f4b92960e21b8152600b60048201526001600160a01b038216602482015273__$f71e59c5327218924d154e230469c101bd$__90635bd2e4a4906044015b602060405180830381865af4158015612158573d6000803e3d6000fd5b505050506040513d601f19601f8201168201806040525081019061217c919061395b565b5050565b60606000805160206141c883398151915282016121a257610d01600080611056565b6121ab82610dd1565b6121ce576040518060a00160405280606c815260200161415c606c913992915050565b6000806121da84610df9565b91509150610dbc8282611056565b6000816001600160401b031660ff6121ff85610e53565b166001600160401b031614905092915050565b600061104f8383613521565b60006000805160206141c8833981519152820161224057610d01600080612643565b61224982610dd1565b61225557506001919050565b60008061226184610df9565b91509150610dbc8282612643565b6060610d01826000611056565b600654600090815b8181101561238357846001600160a01b0316600682815481106122a9576122a9613978565b60009182526020909120600290910201546001600160a01b03161480156122f45750600681815481106122de576122de613978565b9060005260206000209060020201600101546000145b806123615750846001600160a01b03166006828154811061231757612317613978565b60009182526020909120600290910201546001600160a01b03161480156123615750836006828154811061234d5761234d613978565b906000526020600020906002020160010154145b1561237157600192505050610d01565b8061237b816139e3565b915050612284565b506000949350505050565b612396612b31565b60405163edefe12d60e01b8152600b60048201526001600160a01b038216602482015273__$f71e59c5327218924d154e230469c101bd$__9063edefe12d9060440161213b565b60006123ea836000611f87565b156123f757506001610d01565b8115612414576124078383611f87565b1561241457506001610d01565b6000836001600160a01b031663373a7fb46040518163ffffffff1660e01b8152600401602060405180830381865afa158015612454573d6000803e3d6000fd5b505050506040513d601f19601f82011682018060405250810190612478919061405f565b9050612483816116a9565b612491576000915050610d01565b604051632b43f03360e21b81526001600160a01b0382169063ad0fc0cc906124bf9087908790600401613ad5565b602060405180830381865afa1580156124dc573d6000803e3d6000fd5b505050506040513d601f19601f82011682018060405250810190610dbc919061395b565b600061250c838361227c565b1561251957506000610d01565b6125238383611f87565b1561253057506001610d01565b60075460ff16159392505050565b60008061254a836114c7565b604051639ac1b34560e01b815273__$669c6e0eba2465bd6779ea6ec5db3af1b5$__91639ac1b345916125809190600401613c50565b6040805180830381865af415801561259c573d6000803e3d6000fd5b505050506040513d601f19601f82011682018060405250810190610e4a919061407c565b604051632431a7cf60e01b8152600090610d019073__$669c6e0eba2465bd6779ea6ec5db3af1b5$__90632431a7cf906125fe908690600401613c50565b600060405180830381865af415801561261b573d6000803e3d6000fd5b505050506040513d6000823e601f3d908101601f1916820160405261080991908101906140a1565b600061104f838361355f565b60408051606081018252600080825260208201819052918101919091526001600160a01b03831661269f575060408051606081018252601119815260006020820152600191810191909152610d01565b6003600073__$669c6e0eba2465bd6779ea6ec5db3af1b5$__63d5f0b04d8660006040518363ffffffff1660e01b81526004016126dd929190613ad5565b602060405180830381865af41580156126fa573d6000803e3d6000fd5b505050506040513d601f19601f8201168201806040525081019061271e919061398e565b815260208082019290925260409081016000908120825160608101845290549182900b815261010080830460ff16151594820194909452620100009091046001600160401b0381169282019290925292501615610d01576003600073__$669c6e0eba2465bd6779ea6ec5db3af1b5$__63d5f0b04d86866040518363ffffffff1660e01b81526004016127b2929190613ad5565b602060405180830381865af41580156127cf573d6000803e3d6000fd5b505050506040513d601f19601f820116820180604052508101906127f3919061398e565b815260208082019290925260409081016000908120825160608101845290549182900b8152610100820460ff161515938101939093526201000090046001600160401b0316908201529392505050565b6000612851836102006128e7565b61285d57506000610d01565b61286683610fe4565b6040516301ffc9a760e01b81526001600160e01b0319841660048201526001600160a01b0391909116906301ffc9a790602401602060405180830381865afa1580156128b6573d6000803e3d6000fd5b505050506040513d601f19601f8201168201806040525081019061104f919061395b565b6000610d018260006115e2565b6000816128f384610e53565b166001600160401b031615159392505050565b60006001600160a01b03831615801561291d575081155b1561294957507fad3228b676f7d3cd4284a5443f17f1962b36e491b30a40b2405849e597ba5fb5610d01565b60405163d5f0b04d60e01b815273__$669c6e0eba2465bd6779ea6ec5db3af1b5$__9063d5f0b04d906129829086908690600401613ad5565b602060405180830381865af415801561299f573d6000803e3d6000fd5b505050506040513d601f19601f8201168201806040525081019061104f919061398e565b60006000805160206141c883398151915282016129e557610d016000806115e2565b6129ee82610dd1565b6129fa57506000919050565b600080612a0684610df9565b91509150610dbc82826115e2565b6000612a1e612b31565b610d01826135b7565b6000612a31612b31565b610d01826135ea565b600080610e4a8361370a565b6000612a50612b31565b61104f838361378c565b612a6261325e565b6001600160a01b038116612ac75760405162461bcd60e51b815260206004820152602660248201527f4f776e61626c653a206e6577206f776e657220697320746865207a65726f206160448201526564647265737360d01b6064820152608401610cb6565b612ad0816132b8565b50565b6040805160608101825260008082526020820181905291810191909152610d0182600061264f565b60006001600160e01b031982166301ffc9a760e01b1480610d0157506001600160e01b03198216632b43f03360e21b1492915050565b6000546001600160a01b0316331480612b4e5750612b4e33611790565b610cbf5760405162461bcd60e51b815260206004820152602d60248201527f416c6c6f77616e63653a2063616c6c6572206d757374206265205265706f736960448201526c3a37b93c9027b832b930ba37b960991b6064820152608401610cb6565b600654600090815b81811015612c4a57846001600160a01b031660068281548110612bdd57612bdd613978565b60009182526020909120600290910201546001600160a01b0316148015612c28575060068181548110612c1257612c12613978565b9060005260206000209060020201600101546000145b15612c3857600092505050610d01565b80612c42816139e3565b915050612bb8565b5082600003612d0c5760001981015b81811015612d0657846001600160a01b031660068281548110612c7e57612c7e613978565b60009182526020909120600290910201546001600160a01b031603612cfd57612cfb60068281548110612cb357612cb3613978565b6000918252602090912060029091020154600680546001600160a01b039092169184908110612ce457612ce4613978565b90600052602060002090600202016001015461378c565b505b60001901612c59565b50612da2565b60005b81811015612da057846001600160a01b031660068281548110612d3457612d34613978565b60009182526020909120600290910201546001600160a01b0316148015612d7e57508360068281548110612d6a57612d6a613978565b906000526020600020906002020160010154145b15612d8e57600092505050610d01565b80612d98816139e3565b915050612d0f565b505b604080518082019091526001600160a01b038581168252602082018581526006805460018101825560009190915292517ff652222313e28459528d920b65115c16c04f3efc82aaedc97be59f3f377c0d3f600290940293840180546001600160a01b0319169190931617909155517ff652222313e28459528d920b65115c16c04f3efc82aaedc97be59f3f377c0d40909101555060019392505050565b60008151835114612e5257506000610d01565b60005b8351811015612ec757828181518110612e7057612e70613978565b602001015160f81c60f81b6001600160f81b031916848281518110612e9757612e97613978565b01602001516001600160f81b03191614612eb5576000915050610d01565b80612ebf816139e3565b915050612e55565b5060019392505050565b60008181526008602052604081208054612eea90613e53565b15159392505050565b6000306001600160a01b03831603612f0d57506001919050565b6005545b8015612f73576001600160a01b0383166005612f2e600184614031565b81548110612f3e57612f3e613978565b6000918252602090912001546001600160a01b031603612f615750600192915050565b80612f6b81614048565b915050612f11565b50600092915050565b6004546000905b8015613026576001600160a01b0384166004612fa0600184614031565b81548110612fb057612fb0613978565b60009182526020909120600290910201546001600160a01b031614801561300557506004612fdf600183614031565b81548110612fef57612fef613978565b9060005260206000209060020201600101546000145b15613014576000915050610d01565b8061301e81614048565b915050612f83565b508160000361311a575b6004545b8015613106576001600160a01b0384166004613051600184614031565b8154811061306157613061613978565b60009182526020909120600290910201546001600160a01b0316036130f4576130ee6004613090600184614031565b815481106130a0576130a0613978565b60009182526020909120600290910201546001600160a01b031660046130c7600185614031565b815481106130d7576130d7613978565b906000526020600020906002020160010154613308565b50613106565b806130fe81614048565b915050613034565b8060000361311457506131c2565b50613030565b6004545b80156131c0576001600160a01b038416600461313b600184614031565b8154811061314b5761314b613978565b60009182526020909120600290910201546001600160a01b031614801561319f575082600461317b600184614031565b8154811061318b5761318b613978565b906000526020600020906002020160010154145b156131ae576000915050610d01565b806131b881614048565b91505061311e565b505b604080518082019091526001600160a01b038481168252602082018481526004805460018101825560009190915292517f8a35acfbc15ff81a39ae7d344fd709f28e8600b4aa8c65c6b64bfe7fe36bd19b600290940293840180546001600160a01b0319169190931617909155517f8a35acfbc15ff81a39ae7d344fd709f28e8600b4aa8c65c6b64bfe7fe36bd19c9091015550600192915050565b6000546001600160a01b03163314610cbf5760405162461bcd60e51b815260206004820152601f60248201527f416c6c6f77616e63653a2063616c6c6572206d757374206265204f776e6572006044820152606401610cb6565b600080546001600160a01b038381166001600160a01b0319831681178455604051919092169283917f8be0079c531659141344cd1fd0a4f28419497f9722a3daafe3b4186f6b6457e09190a35050565b600454600090815b8181101561238357846001600160a01b03166004828154811061333557613335613978565b60009182526020909120600290910201546001600160a01b031614801561337f5750836004828154811061336b5761336b613978565b906000526020600020906002020160010154145b156134525761338f600183614031565b81101561340d5760046133a3600184614031565b815481106133b3576133b3613978565b9060005260206000209060020201600482815481106133d4576133d4613978565b60009182526020909120825460029092020180546001600160a01b0319166001600160a01b039092169190911781556001918201549101555b600480548061341e5761341e614117565b60008281526020812060026000199093019283020180546001600160a01b0319168155600101559055600192505050610d01565b8061345c816139e3565b915050613310565b6005546000905b80156134cd576001600160a01b0383166005613488600184614031565b8154811061349857613498613978565b6000918252602090912001546001600160a01b0316036134bb5750600092915050565b806134c581614048565b91505061346b565b600580546001810182556000919091527f036b6384b5eca791c62761152d0c79bb0604c104a5fb6f4eb0703f3154bb3db00180546001600160a01b0319166001600160a01b03851617905550600192915050565b600061104f73__$669c6e0eba2465bd6779ea6ec5db3af1b5$__630de874ed85856040518363ffffffff1660e01b8152600401611659929190613ad5565b60006001600160a01b03831661357757506001610d01565b73__$cc6df4ca04d157c820770f5225eff0121b$__633646b54861359b858561264f565b6040518263ffffffff1660e01b81526004016129829190613a89565b60075460009082151560ff9091161515036135d457506000919050565b6007805460ff1916831515179055506001919050565b600554600090815b818110156120b257836001600160a01b03166005828154811061361757613617613978565b6000918252602090912001546001600160a01b0316036136f85761363c600183614031565b8110156136bb576005613650600184614031565b8154811061366057613660613978565b600091825260209091200154600580546001600160a01b03909216918390811061368c5761368c613978565b9060005260206000200160006101000a8154816001600160a01b0302191690836001600160a01b031602179055505b60058054806136cc576136cc614117565b600082815260209020810160001990810180546001600160a01b03191690550190555060019392505050565b80613702816139e3565b9150506135f2565b600080613716836114c7565b6040516314130a7960e31b815273__$669c6e0eba2465bd6779ea6ec5db3af1b5$__9163a09853c89161374c9190600401613c50565b6040805180830381865af4158015613768573d6000803e3d6000fd5b505050506040513d601f19601f82011682018060405250810190610e4a919061412d565b600654600090815b8181101561238357846001600160a01b0316600682815481106137b9576137b9613978565b60009182526020909120600290910201546001600160a01b0316148015613803575083600682815481106137ef576137ef613978565b906000526020600020906002020160010154145b156138a257613813600183614031565b811015613891576006613827600184614031565b8154811061383757613837613978565b90600052602060002090600202016006828154811061385857613858613978565b60009182526020909120825460029092020180546001600160a01b0319166001600160a01b039092169190911781556001918201549101555b600680548061341e5761341e614117565b806138ac816139e3565b915050613794565b8280546138c090613e53565b90600052602060002090601f0160209004810192826138e25760008555613928565b82601f106138fb57805160ff1916838001178555613928565b82800160010185558215613928579182015b8281111561392857825182559160200191906001019061390d565b50613934929150613938565b5090565b5b808211156139345760008155600101613939565b8015158114612ad057600080fd5b60006020828403121561396d57600080fd5b815161104f8161394d565b634e487b7160e01b600052603260045260246000fd5b6000602082840312156139a057600080fd5b5051919050565b634e487b7160e01b600052602160045260246000fd5b8183823760009101908152919050565b634e487b7160e01b600052601160045260246000fd5b6000600182016139f5576139f56139cd565b5060010190565b80356001600160e01b0319811681146114c257600080fd5b600060208284031215613a2657600080fd5b61104f826139fc565b6001600160a01b0381168114612ad057600080fd5b60008060408385031215613a5757600080fd5b8235613a6281613a2f565b946020939093013593505050565b600060208284031215613a8257600080fd5b5035919050565b815160000b81526020808301511515908201526040808301516001600160401b03169082015260608101610d01565b600060208284031215613aca57600080fd5b813561104f81613a2f565b6001600160a01b03929092168252602082015260400190565b60005b83811015613b09578181015183820152602001613af1565b83811115613b18576000848401525b50505050565b60008151808452613b36816020860160208601613aee565b601f01601f19169290920160200192915050565b60208152600061104f6020830184613b1e565b634e487b7160e01b600052604160045260246000fd5b604051601f8201601f191681016001600160401b0381118282101715613b9b57613b9b613b5d565b604052919050565b60006001600160401b03821115613bbc57613bbc613b5d565b50601f01601f191660200190565b6000613bdd613bd884613ba3565b613b73565b9050828152838383011115613bf157600080fd5b828260208301376000602084830101529392505050565b600060208284031215613c1a57600080fd5b81356001600160401b03811115613c3057600080fd5b8201601f81018413613c4157600080fd5b610dbc84823560208401613bca565b6020808252825182820181905260009190848201906040850190845b81811015613c8857835183529284019291840191600101613c6c565b50909695505050505050565b60008060408385031215613ca757600080fd5b823591506020830135613cb981613a2f565b809150509250929050565b60008060408385031215613cd757600080fd5b50508035926020909101359150565b6001600160401b0381168114612ad057600080fd5b60008060408385031215613d0e57600080fd5b823591506020830135613cb981613ce6565b60006001600160401b03821115613d3957613d39613b5d565b5060051b60200190565b60006020808385031215613d5657600080fd5b82356001600160401b03811115613d6c57600080fd5b8301601f81018513613d7d57600080fd5b8035613d8b613bd882613d20565b81815260059190911b82018301908381019087831115613daa57600080fd5b928401925b82841015613dc857833582529284019290840190613daf565b979650505050505050565b60008060408385031215613de657600080fd5b82359150613df6602084016139fc565b90509250929050565b600060208284031215613e1157600080fd5b813561104f8161394d565b60208082526017908201527f43757272656e6379206e6f742072656769737465726564000000000000000000604082015260600190565b600181811c90821680613e6757607f821691505b6020821081036113b157634e487b7160e01b600052602260045260246000fd5b60008251613e99818460208701613aee565b9190910192915050565b60006020808385031215613eb657600080fd5b82516001600160401b03811115613ecc57600080fd5b8301601f81018513613edd57600080fd5b8051613eeb613bd882613d20565b81815260059190911b82018301908381019087831115613f0a57600080fd5b928401925b82841015613dc857835182529284019290840190613f0f565b60008060408385031215613f3b57600080fd5b505080516020909101519092909150565b600060608284031215613f5e57600080fd5b604051606081018181106001600160401b0382111715613f8057613f80613b5d565b6040528251600081900b8114613f9557600080fd5b81526020830151613fa58161394d565b60208201526040830151613fb881613ce6565b60408201529392505050565b634e487b7160e01b600052600160045260246000fd5b6001600160a01b03851681526020810184905260c081016140206040830185805160000b82526020808201511515908301526040908101516001600160401b0316910152565b82151560a083015295945050505050565b600082821015614043576140436139cd565b500390565b600081614057576140576139cd565b506000190190565b60006020828403121561407157600080fd5b815161104f81613a2f565b6000806040838503121561408f57600080fd5b825191506020830151613cb981613a2f565b6000602082840312156140b357600080fd5b81516001600160401b038111156140c957600080fd5b8201601f810184136140da57600080fd5b80516140e8613bd882613ba3565b8181528560208385010111156140fd57600080fd5b61410e826020830160208601613aee565b95945050505050565b634e487b7160e01b600052603160045260246000fd5b6000806040838503121561414057600080fd5b825161414b81613a2f565b602093909301519294929350505056fe68747470733a2f2f6769746875622e636f6d2f5061747269636b416c706861432f646566692d7374616b652d7969656c642d62726f776e69652d66726565636f64652f626c6f622f6d61696e2f66726f6e745f656e642f7372632f646170702e706e673f7261773d7472756552cdd74989082c32bd7b5abbc0e80e69d4c91b6e4cf5bf4dbfa7b61a6845a04b68747470733a2f2f7261772e67697468756275736572636f6e74656e742e636f6d2f5061747269636b416c706861432f646566692d7374616b652d7969656c642d62726f776e69652d66726565636f64652f6d61696e2f66726f6e745f656e642f7372632f6574682e706e673f7261773d74727565a264697066735822122080eb6d9adb687d033614c6be7379a5be834c6680926570e9e9d4a1af9dcda68364736f6c634300080d0033","language":"Solidity","natspec":{"methods":{"ownerOf()":{"details":"Returns the address of the current owner."},"renounceOwnership()":{"details":"Leaves the contract without owner. It will not be possible to call `onlyOwner` functions anymore. Can only be called by the current owner. NOTE: Renouncing ownership will leave the contract without an owner, thereby removing any functionality that is only available to the owner."},"transferOwnership(address)":{"details":"Transfers ownership of the contract to a new account (`newOwner`). Can only be called by the current owner."}},"kind":"dev","version":1},"opcodes":"PUSH1 0x80 PUSH1 0x40 MSTORE CALLVALUE DUP1 ISZERO PUSH2 0x10 JUMPI PUSH1 0x0 DUP1 REVERT JUMPDEST POP PUSH1 0x4 CALLDATASIZE LT PUSH2 0x3D0 JUMPI PUSH1 0x0 CALLDATALOAD PUSH1 0xE0 SHR DUP1 PUSH4 0x81B2490B GT PUSH2 0x1FF JUMPI DUP1 PUSH4 0xAD10A135 GT PUSH2 0x11A JUMPI DUP1 PUSH4 0xC9C2A940 GT PUSH2 0xAD JUMPI DUP1 PUSH4 0xE50D1B3E GT PUSH2 0x7C JUMPI DUP1 PUSH4 0xE50D1B3E EQ PUSH2 0xBEF JUMPI DUP1 PUSH4 0xE855A313 EQ PUSH2 0xC02 JUMPI DUP1 PUSH4 0xF2FDE38B EQ PUSH2 0xC15 JUMPI DUP1 PUSH4 0xF5DAB711 EQ PUSH2 0xC28 JUMPI PUSH2 0x3D0 JUMP JUMPDEST DUP1 PUSH4 0xC9C2A940 EQ PUSH2 0xBA3 JUMPI DUP1 PUSH4 0xD47A7EDD EQ PUSH2 0xBB6 JUMPI DUP1 PUSH4 0xD4945D0E EQ PUSH2 0xBC9 JUMPI DUP1 PUSH4 0xDBF5F2FD EQ PUSH2 0xBDC JUMPI PUSH2 0x3D0 JUMP JUMPDEST DUP1 PUSH4 0xBB7D88A9 GT PUSH2 0xE9 JUMPI DUP1 PUSH4 0xBB7D88A9 EQ PUSH2 0xB57 JUMPI DUP1 PUSH4 0xC33470D3 EQ PUSH2 0xB6A JUMPI DUP1 PUSH4 0xC452E6B6 EQ PUSH2 0xB7D JUMPI DUP1 PUSH4 0xC5537EB7 EQ PUSH2 0xB90 JUMPI PUSH2 0x3D0 JUMP JUMPDEST DUP1 PUSH4 0xAD10A135 EQ PUSH2 0xAEE JUMPI DUP1 PUSH4 0xAF915585 EQ PUSH2 0xB01 JUMPI DUP1 PUSH4 0xB3054383 EQ PUSH2 0xB31 JUMPI DUP1 PUSH4 0xB72A4A71 EQ PUSH2 0xB44 JUMPI PUSH2 0x3D0 JUMP JUMPDEST DUP1 PUSH4 0x9E9BB9C1 GT PUSH2 0x192 JUMPI DUP1 PUSH4 0xA9D46326 GT PUSH2 0x161 JUMPI DUP1 PUSH4 0xA9D46326 EQ PUSH2 0xAA2 JUMPI DUP1 PUSH4 0xABABADB5 EQ PUSH2 0xAB5 JUMPI DUP1 PUSH4 0xAC8A584A EQ PUSH2 0xAC8 JUMPI DUP1 PUSH4 0xAD0FC0CC EQ PUSH2 0xADB JUMPI PUSH2 0x3D0 JUMP JUMPDEST DUP1 PUSH4 0x9E9BB9C1 EQ PUSH2 0xA56 JUMPI DUP1 PUSH4 0xA663D4F5 EQ PUSH2 0xA69 JUMPI DUP1 PUSH4 0xA86EEB91 EQ PUSH2 0xA7C JUMPI DUP1 PUSH4 0xA9BF9858 EQ PUSH2 0xA8F JUMPI PUSH2 0x3D0 JUMP JUMPDEST DUP1 PUSH4 0x8DA5CB5B GT PUSH2 0x1CE JUMPI DUP1 PUSH4 0x8DA5CB5B EQ PUSH2 0x9F6 JUMPI DUP1 PUSH4 0x8EAA6AC0 EQ PUSH2 0xA07 JUMPI DUP1 PUSH4 0x95B5D584 EQ PUSH2 0xA30 JUMPI DUP1 PUSH4 0x9870D7FE EQ PUSH2 0xA43 JUMPI PUSH2 0x3D0 JUMP JUMPDEST DUP1 PUSH4 0x81B2490B EQ PUSH2 0x9B2 JUMPI DUP1 PUSH4 0x83350075 EQ PUSH2 0x9C5 JUMPI DUP1 PUSH4 0x89765F59 EQ PUSH2 0x9D0 JUMPI DUP1 PUSH4 0x8D49D89B EQ PUSH2 0x9E3 JUMPI PUSH2 0x3D0 JUMP JUMPDEST DUP1 PUSH4 0x38A699A4 GT PUSH2 0x2EF JUMPI DUP1 PUSH4 0x5B62CB70 GT PUSH2 0x282 JUMPI DUP1 PUSH4 0x6D70F7AE GT PUSH2 0x251 JUMPI DUP1 PUSH4 0x6D70F7AE EQ PUSH2 0x971 JUMPI DUP1 PUSH4 0x6F457683 EQ PUSH2 0x984 JUMPI DUP1 PUSH4 0x715018A6 EQ PUSH2 0x997 JUMPI DUP1 PUSH4 0x75F890AB EQ PUSH2 0x99F JUMPI PUSH2 0x3D0 JUMP JUMPDEST DUP1 PUSH4 0x5B62CB70 EQ PUSH2 0x910 JUMPI DUP1 PUSH4 0x61E99FFB EQ PUSH2 0x923 JUMPI DUP1 PUSH4 0x657C7E09 EQ PUSH2 0x936 JUMPI DUP1 PUSH4 0x67C51DFC EQ PUSH2 0x95E JUMPI PUSH2 0x3D0 JUMP JUMPDEST DUP1 PUSH4 0x509FF69B GT PUSH2 0x2BE JUMPI DUP1 PUSH4 0x509FF69B EQ PUSH2 0x8C4 JUMPI DUP1 PUSH4 0x552CDF98 EQ PUSH2 0x8D7 JUMPI DUP1 PUSH4 0x5768BBB5 EQ PUSH2 0x8EA JUMPI DUP1 PUSH4 0x589E6A98 EQ PUSH2 0x8FD JUMPI PUSH2 0x3D0 JUMP JUMPDEST DUP1 PUSH4 0x38A699A4 EQ PUSH2 0x877 JUMPI DUP1 PUSH4 0x4329598C EQ PUSH2 0x777 JUMPI DUP1 PUSH4 0x4635229B EQ PUSH2 0x88A JUMPI DUP1 PUSH4 0x4F79B792 EQ PUSH2 0x8B1 JUMPI PUSH2 0x3D0 JUMP JUMPDEST DUP1 PUSH4 0x16279055 GT PUSH2 0x367 JUMPI DUP1 PUSH4 0x24ACE672 GT PUSH2 0x336 JUMPI DUP1 PUSH4 0x24ACE672 EQ PUSH2 0x7FB JUMPI DUP1 PUSH4 0x2558A079 EQ PUSH2 0x80E JUMPI DUP1 PUSH4 0x27EE9DC2 EQ PUSH2 0x835 JUMPI DUP1 PUSH4 0x2F54BF6E EQ PUSH2 0x855 JUMPI PUSH2 0x3D0 JUMP JUMPDEST DUP1 PUSH4 0x16279055 EQ PUSH2 0x797 JUMPI DUP1 PUSH4 0x184BC906 EQ PUSH2 0x7AA JUMPI DUP1 PUSH4 0x18D54CF3 EQ PUSH2 0x7D5 JUMPI DUP1 PUSH4 0x1D7A3B72 EQ PUSH2 0x7E8 JUMPI PUSH2 0x3D0 JUMP JUMPDEST DUP1 PUSH4 0x7D61085 GT PUSH2 0x3A3 JUMPI DUP1 PUSH4 0x7D61085 EQ PUSH2 0x730 JUMPI DUP1 PUSH4 0xEA94B96 EQ PUSH2 0x743 JUMPI DUP1 PUSH4 0x120F6EE3 EQ PUSH2 0x764 JUMPI DUP1 PUSH4 0x12CAE67B EQ PUSH2 0x777 JUMPI PUSH2 0x3D0 JUMP JUMPDEST DUP1 PUSH4 0x1FFC9A7 EQ PUSH2 0x69C JUMPI DUP1 PUSH4 0x221C7DE EQ PUSH2 0x6C4 JUMPI DUP1 PUSH4 0x3565EA1 EQ PUSH2 0x6EF JUMPI DUP1 PUSH4 0x36995DF EQ PUSH2 0x70F JUMPI JUMPDEST PUSH2 0x3D8 PUSH2 0xC3B JUMP JUMPDEST PUSH1 0x40 MLOAD PUSH4 0x825998C1 PUSH1 0xE0 SHL DUP2 MSTORE PUSH1 0xD PUSH1 0x4 DUP3 ADD MSTORE PUSH1 0x0 CALLDATALOAD PUSH1 0x1 PUSH1 0x1 PUSH1 0xE0 SHL SUB NOT AND PUSH1 0x24 DUP3 ADD MSTORE PUSH20 0x0 SWAP1 PUSH4 0x825998C1 SWAP1 PUSH1 0x44 ADD PUSH1 0x20 PUSH1 0x40 MLOAD DUP1 DUP4 SUB DUP2 DUP7 GAS DELEGATECALL ISZERO DUP1 ISZERO PUSH2 0x43A JUMPI RETURNDATASIZE PUSH1 0x0 DUP1 RETURNDATACOPY RETURNDATASIZE PUSH1 0x0 REVERT JUMPDEST POP POP POP POP PUSH1 0x40 MLOAD RETURNDATASIZE PUSH1 0x1F NOT PUSH1 0x1F DUP3 ADD AND DUP3 ADD DUP1 PUSH1 0x40 MSTORE POP DUP2 ADD SWAP1 PUSH2 0x45E SWAP2 SWAP1 PUSH2 0x395B JUMP JUMPDEST POP PUSH1 0x0 JUMPDEST PUSH1 0xA SLOAD DUP2 LT ISZERO PUSH2 0x69A JUMPI CALLER PUSH1 0x1 PUSH1 0x1 PUSH1 0xA0 SHL SUB AND PUSH1 0xA DUP3 DUP2 SLOAD DUP2 LT PUSH2 0x489 JUMPI PUSH2 0x489 PUSH2 0x3978 JUMP JUMPDEST PUSH1 0x0 SWAP2 DUP3 MSTORE PUSH1 0x20 SWAP1 SWAP2 KECCAK256 ADD SLOAD PUSH1 0x1 PUSH1 0x1 PUSH1 0xA0 SHL SUB AND EQ PUSH2 0x688 JUMPI PUSH1 0x0 PUSH1 0xA DUP3 DUP2 SLOAD DUP2 LT PUSH2 0x4B8 JUMPI PUSH2 0x4B8 PUSH2 0x3978 JUMP JUMPDEST PUSH1 0x0 SWAP2 DUP3 MSTORE PUSH1 0x20 SWAP2 DUP3 SWAP1 KECCAK256 ADD SLOAD PUSH1 0x40 DUP1 MLOAD PUSH4 0xAF640D0F PUSH1 0xE0 SHL DUP2 MSTORE SWAP1 MLOAD PUSH1 0x1 PUSH1 0x1 PUSH1 0xA0 SHL SUB SWAP1 SWAP3 AND SWAP3 PUSH4 0xAF640D0F SWAP3 PUSH1 0x4 DUP1 DUP5 ADD SWAP4 DUP3 SWAP1 SUB ADD DUP2 DUP7 GAS STATICCALL ISZERO DUP1 ISZERO PUSH2 0x506 JUMPI RETURNDATASIZE PUSH1 0x0 DUP1 RETURNDATACOPY RETURNDATASIZE PUSH1 0x0 REVERT JUMPDEST POP POP POP POP PUSH1 0x40 MLOAD RETURNDATASIZE PUSH1 0x1F NOT PUSH1 0x1F DUP3 ADD AND DUP3 ADD DUP1 PUSH1 0x40 MSTORE POP DUP2 ADD SWAP1 PUSH2 0x52A SWAP2 SWAP1 PUSH2 0x398E JUMP JUMPDEST SWAP1 POP PUSH1 0x1 PUSH1 0x0 DUP3 DUP2 MSTORE PUSH1 0xC PUSH1 0x20 SWAP1 DUP2 MSTORE PUSH1 0x40 DUP1 DUP4 KECCAK256 PUSH1 0x1 PUSH1 0x1 PUSH1 0xE0 SHL SUB NOT DUP5 CALLDATALOAD AND DUP5 MSTORE SWAP1 SWAP2 MSTORE SWAP1 KECCAK256 SLOAD PUSH1 0xFF AND PUSH1 0x2 DUP2 GT ISZERO PUSH2 0x567 JUMPI PUSH2 0x567 PUSH2 0x39A7 JUMP JUMPDEST SUB PUSH2 0x572 JUMPI POP PUSH2 0x688 JUMP JUMPDEST PUSH1 0x0 PUSH1 0xA DUP4 DUP2 SLOAD DUP2 LT PUSH2 0x587 JUMPI PUSH2 0x587 PUSH2 0x3978 JUMP JUMPDEST PUSH1 0x0 SWAP2 DUP3 MSTORE PUSH1 0x20 DUP3 KECCAK256 ADD SLOAD PUSH1 0x40 MLOAD PUSH1 0x1 PUSH1 0x1 PUSH1 0xA0 SHL SUB SWAP1 SWAP2 AND SWAP2 PUSH2 0x5AC SWAP2 CALLDATASIZE SWAP1 PUSH2 0x39BD JUMP JUMPDEST PUSH1 0x0 PUSH1 0x40 MLOAD DUP1 DUP4 SUB DUP2 PUSH1 0x0 DUP7 GAS CALL SWAP2 POP POP RETURNDATASIZE DUP1 PUSH1 0x0 DUP2 EQ PUSH2 0x5E9 JUMPI PUSH1 0x40 MLOAD SWAP2 POP PUSH1 0x1F NOT PUSH1 0x3F RETURNDATASIZE ADD AND DUP3 ADD PUSH1 0x40 MSTORE RETURNDATASIZE DUP3 MSTORE RETURNDATASIZE PUSH1 0x0 PUSH1 0x20 DUP5 ADD RETURNDATACOPY PUSH2 0x5EE JUMP JUMPDEST PUSH1 0x60 SWAP2 POP JUMPDEST POP POP PUSH1 0x0 DUP4 DUP2 MSTORE PUSH1 0xC PUSH1 0x20 SWAP1 DUP2 MSTORE PUSH1 0x40 DUP1 DUP4 KECCAK256 DUP4 CALLDATALOAD PUSH1 0x1 PUSH1 0x1 PUSH1 0xE0 SHL SUB NOT AND DUP5 MSTORE SWAP1 SWAP2 MSTORE DUP2 KECCAK256 SLOAD SWAP2 SWAP3 POP SWAP1 PUSH1 0xFF AND PUSH1 0x2 DUP2 GT ISZERO PUSH2 0x62D JUMPI PUSH2 0x62D PUSH2 0x39A7 JUMP JUMPDEST SUB PUSH2 0x685 JUMPI DUP1 PUSH2 0x63E JUMPI PUSH1 0x1 PUSH2 0x641 JUMP JUMPDEST PUSH1 0x2 JUMPDEST PUSH1 0x0 DUP4 DUP2 MSTORE PUSH1 0xC PUSH1 0x20 SWAP1 DUP2 MSTORE PUSH1 0x40 DUP1 DUP4 KECCAK256 PUSH1 0x1 PUSH1 0x1 PUSH1 0xE0 SHL SUB NOT DUP5 CALLDATALOAD AND DUP5 MSTORE SWAP1 SWAP2 MSTORE SWAP1 KECCAK256 DUP1 SLOAD PUSH1 0xFF NOT AND PUSH1 0x1 DUP4 PUSH1 0x2 DUP2 GT ISZERO PUSH2 0x67F JUMPI PUSH2 0x67F PUSH2 0x39A7 JUMP JUMPDEST MUL OR SWAP1 SSTORE POP JUMPDEST POP POP JUMPDEST DUP1 PUSH2 0x692 DUP2 PUSH2 0x39E3 JUMP JUMPDEST SWAP2 POP POP PUSH2 0x462 JUMP JUMPDEST STOP JUMPDEST PUSH2 0x6AF PUSH2 0x6AA CALLDATASIZE PUSH1 0x4 PUSH2 0x3A14 JUMP JUMPDEST PUSH2 0xCC1 JUMP JUMPDEST PUSH1 0x40 MLOAD SWAP1 ISZERO ISZERO DUP2 MSTORE PUSH1 0x20 ADD JUMPDEST PUSH1 0x40 MLOAD DUP1 SWAP2 SUB SWAP1 RETURN JUMPDEST PUSH2 0x6D7 PUSH2 0x6D2 CALLDATASIZE PUSH1 0x4 PUSH2 0x3A44 JUMP JUMPDEST PUSH2 0xD07 JUMP JUMPDEST PUSH1 0x40 MLOAD PUSH1 0x1 PUSH1 0x1 PUSH1 0x40 SHL SUB SWAP1 SWAP2 AND DUP2 MSTORE PUSH1 0x20 ADD PUSH2 0x6BB JUMP JUMPDEST PUSH2 0x702 PUSH2 0x6FD CALLDATASIZE PUSH1 0x4 PUSH2 0x3A70 JUMP JUMPDEST PUSH2 0xD34 JUMP JUMPDEST PUSH1 0x40 MLOAD PUSH2 0x6BB SWAP2 SWAP1 PUSH2 0x3A89 JUMP JUMPDEST PUSH2 0x722 PUSH2 0x71D CALLDATASIZE PUSH1 0x4 PUSH2 0x3AB8 JUMP JUMPDEST PUSH2 0xDC4 JUMP JUMPDEST PUSH1 0x40 MLOAD SWAP1 DUP2 MSTORE PUSH1 0x20 ADD PUSH2 0x6BB JUMP JUMPDEST PUSH2 0x6AF PUSH2 0x73E CALLDATASIZE PUSH1 0x4 PUSH2 0x3A70 JUMP JUMPDEST PUSH2 0xDD1 JUMP JUMPDEST PUSH2 0x756 PUSH2 0x751 CALLDATASIZE PUSH1 0x4 PUSH2 0x3A70 JUMP JUMPDEST PUSH2 0xDF9 JUMP JUMPDEST PUSH1 0x40 MLOAD PUSH2 0x6BB SWAP3 SWAP2 SWAP1 PUSH2 0x3AD5 JUMP JUMPDEST PUSH2 0x6D7 PUSH2 0x772 CALLDATASIZE PUSH1 0x4 PUSH2 0x3A70 JUMP JUMPDEST PUSH2 0xE53 JUMP JUMPDEST PUSH2 0x78A PUSH2 0x785 CALLDATASIZE PUSH1 0x4 PUSH2 0x3A70 JUMP JUMPDEST PUSH2 0xEA4 JUMP JUMPDEST PUSH1 0x40 MLOAD PUSH2 0x6BB SWAP2 SWAP1 PUSH2 0x3B4A JUMP JUMPDEST PUSH2 0x6AF PUSH2 0x7A5 CALLDATASIZE PUSH1 0x4 PUSH2 0x3AB8 JUMP JUMPDEST PUSH2 0xF46 JUMP JUMPDEST PUSH2 0x7BD PUSH2 0x7B8 CALLDATASIZE PUSH1 0x4 PUSH2 0x3A70 JUMP JUMPDEST PUSH2 0xFE4 JUMP JUMPDEST PUSH1 0x40 MLOAD PUSH1 0x1 PUSH1 0x1 PUSH1 0xA0 SHL SUB SWAP1 SWAP2 AND DUP2 MSTORE PUSH1 0x20 ADD PUSH2 0x6BB JUMP JUMPDEST PUSH2 0x6AF PUSH2 0x7E3 CALLDATASIZE PUSH1 0x4 PUSH2 0x3A44 JUMP JUMPDEST PUSH2 0x103B JUMP JUMPDEST PUSH2 0x78A PUSH2 0x7F6 CALLDATASIZE PUSH1 0x4 PUSH2 0x3A44 JUMP JUMPDEST PUSH2 0x1056 JUMP JUMPDEST PUSH2 0x722 PUSH2 0x809 CALLDATASIZE PUSH1 0x4 PUSH2 0x3C08 JUMP JUMPDEST PUSH2 0x1364 JUMP JUMPDEST PUSH2 0x722 PUSH32 0x0 DUP2 JUMP JUMPDEST PUSH2 0x848 PUSH2 0x843 CALLDATASIZE PUSH1 0x4 PUSH2 0x3A70 JUMP JUMPDEST PUSH2 0x14C7 JUMP JUMPDEST PUSH1 0x40 MLOAD PUSH2 0x6BB SWAP2 SWAP1 PUSH2 0x3C50 JUMP JUMPDEST PUSH2 0x6AF PUSH2 0x863 CALLDATASIZE PUSH1 0x4 PUSH2 0x3AB8 JUMP JUMPDEST PUSH1 0x0 SLOAD PUSH1 0x1 PUSH1 0x1 PUSH1 0xA0 SHL SUB SWAP2 DUP3 AND SWAP2 AND EQ SWAP1 JUMP JUMPDEST PUSH2 0x6AF PUSH2 0x885 CALLDATASIZE PUSH1 0x4 PUSH2 0x3A70 JUMP JUMPDEST PUSH2 0x154D JUMP JUMPDEST PUSH2 0x6AF PUSH32 0x0 DUP2 JUMP JUMPDEST PUSH2 0x722 PUSH2 0x8BF CALLDATASIZE PUSH1 0x4 PUSH2 0x3A44 JUMP JUMPDEST PUSH2 0x1558 JUMP JUMPDEST PUSH2 0x722 PUSH2 0x8D2 CALLDATASIZE PUSH1 0x4 PUSH2 0x3A44 JUMP JUMPDEST PUSH2 0x158B JUMP JUMPDEST PUSH2 0x6AF PUSH2 0x8E5 CALLDATASIZE PUSH1 0x4 PUSH2 0x3A44 JUMP JUMPDEST PUSH2 0x15E2 JUMP JUMPDEST PUSH2 0x722 PUSH2 0x8F8 CALLDATASIZE PUSH1 0x4 PUSH2 0x3C94 JUMP JUMPDEST PUSH2 0x160F JUMP JUMPDEST PUSH2 0x722 PUSH2 0x90B CALLDATASIZE PUSH1 0x4 PUSH2 0x3C08 JUMP JUMPDEST PUSH2 0x169E JUMP JUMPDEST PUSH2 0x6AF PUSH2 0x91E CALLDATASIZE PUSH1 0x4 PUSH2 0x3AB8 JUMP JUMPDEST PUSH2 0x16A9 JUMP JUMPDEST PUSH2 0x722 PUSH2 0x931 CALLDATASIZE PUSH1 0x4 PUSH2 0x3CC4 JUMP JUMPDEST PUSH2 0x16B4 JUMP JUMPDEST PUSH2 0x949 PUSH2 0x944 CALLDATASIZE PUSH1 0x4 PUSH2 0x3A70 JUMP JUMPDEST PUSH2 0x16FA JUMP JUMPDEST PUSH1 0x40 DUP1 MLOAD SWAP3 DUP4 MSTORE PUSH1 0x20 DUP4 ADD SWAP2 SWAP1 SWAP2 MSTORE ADD PUSH2 0x6BB JUMP JUMPDEST PUSH2 0x6AF PUSH2 0x96C CALLDATASIZE PUSH1 0x4 PUSH2 0x3A44 JUMP JUMPDEST PUSH2 0x177C JUMP JUMPDEST PUSH2 0x6AF PUSH2 0x97F CALLDATASIZE PUSH1 0x4 PUSH2 0x3AB8 JUMP JUMPDEST PUSH2 0x1790 JUMP JUMPDEST PUSH2 0x69A PUSH2 0x992 CALLDATASIZE PUSH1 0x4 PUSH2 0x3A44 JUMP JUMPDEST PUSH2 0x17F1 JUMP JUMPDEST PUSH2 0x69A PUSH2 0x1C9C JUMP JUMPDEST PUSH2 0x69A PUSH2 0x9AD CALLDATASIZE PUSH1 0x4 PUSH2 0x3AB8 JUMP JUMPDEST PUSH2 0x1CAE JUMP JUMPDEST PUSH2 0x6AF PUSH2 0x9C0 CALLDATASIZE PUSH1 0x4 PUSH2 0x3A44 JUMP JUMPDEST PUSH2 0x1F87 JUMP JUMPDEST PUSH1 0x7 SLOAD PUSH1 0xFF AND PUSH2 0x6AF JUMP JUMPDEST PUSH2 0x6AF PUSH2 0x9DE CALLDATASIZE PUSH1 0x4 PUSH2 0x3A44 JUMP JUMPDEST PUSH2 0x20BC JUMP JUMPDEST PUSH2 0x6D7 PUSH2 0x9F1 CALLDATASIZE PUSH1 0x4 PUSH2 0x3AB8 JUMP JUMPDEST PUSH2 0x20D0 JUMP JUMPDEST PUSH1 0x0 SLOAD PUSH1 0x1 PUSH1 0x1 PUSH1 0xA0 SHL SUB AND PUSH2 0x7BD JUMP JUMPDEST PUSH2 0x7BD PUSH2 0xA15 CALLDATASIZE PUSH1 0x4 PUSH2 0x3A70 JUMP JUMPDEST PUSH1 0x0 SWAP1 DUP2 MSTORE PUSH1 0x9 PUSH1 0x20 MSTORE PUSH1 0x40 SWAP1 KECCAK256 SLOAD PUSH1 0x1 PUSH1 0x1 PUSH1 0xA0 SHL SUB AND SWAP1 JUMP JUMPDEST PUSH2 0x6AF PUSH2 0xA3E CALLDATASIZE PUSH1 0x4 PUSH2 0x3AB8 JUMP JUMPDEST PUSH2 0x20DD JUMP JUMPDEST PUSH2 0x69A PUSH2 0xA51 CALLDATASIZE PUSH1 0x4 PUSH2 0x3AB8 JUMP JUMPDEST PUSH2 0x20F0 JUMP JUMPDEST PUSH2 0x78A PUSH2 0xA64 CALLDATASIZE PUSH1 0x4 PUSH2 0x3A70 JUMP JUMPDEST PUSH2 0x2180 JUMP JUMPDEST PUSH2 0x6AF PUSH2 0xA77 CALLDATASIZE PUSH1 0x4 PUSH2 0x3CFB JUMP JUMPDEST PUSH2 0x21E8 JUMP JUMPDEST PUSH2 0x722 PUSH2 0xA8A CALLDATASIZE PUSH1 0x4 PUSH2 0x3A44 JUMP JUMPDEST PUSH2 0x2212 JUMP JUMPDEST PUSH2 0x722 PUSH2 0xA9D CALLDATASIZE PUSH1 0x4 PUSH2 0x3A70 JUMP JUMPDEST PUSH2 0x221E JUMP JUMPDEST PUSH2 0x78A PUSH2 0xAB0 CALLDATASIZE PUSH1 0x4 PUSH2 0x3AB8 JUMP JUMPDEST PUSH2 0x226F JUMP JUMPDEST PUSH2 0x6AF PUSH2 0xAC3 CALLDATASIZE PUSH1 0x4 PUSH2 0x3A44 JUMP JUMPDEST PUSH2 0x227C JUMP JUMPDEST PUSH2 0x69A PUSH2 0xAD6 CALLDATASIZE PUSH1 0x4 PUSH2 0x3AB8 JUMP JUMPDEST PUSH2 0x238E JUMP JUMPDEST PUSH2 0x6AF PUSH2 0xAE9 CALLDATASIZE PUSH1 0x4 PUSH2 0x3A44 JUMP JUMPDEST PUSH2 0x23DD JUMP JUMPDEST PUSH2 0x6AF PUSH2 0xAFC CALLDATASIZE PUSH1 0x4 PUSH2 0x3A44 JUMP JUMPDEST PUSH2 0x2500 JUMP JUMPDEST PUSH2 0xB14 PUSH2 0xB0F CALLDATASIZE PUSH1 0x4 PUSH2 0x3A70 JUMP JUMPDEST PUSH2 0x253E JUMP JUMPDEST PUSH1 0x40 DUP1 MLOAD SWAP3 DUP4 MSTORE PUSH1 0x1 PUSH1 0x1 PUSH1 0xA0 SHL SUB SWAP1 SWAP2 AND PUSH1 0x20 DUP4 ADD MSTORE ADD PUSH2 0x6BB JUMP JUMPDEST PUSH2 0x722 PUSH2 0xB3F CALLDATASIZE PUSH1 0x4 PUSH2 0x3D43 JUMP JUMPDEST PUSH2 0x25C0 JUMP JUMPDEST PUSH2 0x722 PUSH2 0xB52 CALLDATASIZE PUSH1 0x4 PUSH2 0x3A44 JUMP JUMPDEST PUSH2 0x2643 JUMP JUMPDEST PUSH2 0x702 PUSH2 0xB65 CALLDATASIZE PUSH1 0x4 PUSH2 0x3A44 JUMP JUMPDEST PUSH2 0x264F JUMP JUMPDEST PUSH2 0x6AF PUSH2 0xB78 CALLDATASIZE PUSH1 0x4 PUSH2 0x3DD3 JUMP JUMPDEST PUSH2 0x2843 JUMP JUMPDEST PUSH2 0x6AF PUSH2 0xB8B CALLDATASIZE PUSH1 0x4 PUSH2 0x3AB8 JUMP JUMPDEST PUSH2 0x28DA JUMP JUMPDEST PUSH2 0x6AF PUSH2 0xB9E CALLDATASIZE PUSH1 0x4 PUSH2 0x3CFB JUMP JUMPDEST PUSH2 0x28E7 JUMP JUMPDEST PUSH2 0x722 PUSH2 0xBB1 CALLDATASIZE PUSH1 0x4 PUSH2 0x3A44 JUMP JUMPDEST PUSH2 0x2906 JUMP JUMPDEST PUSH2 0x6AF PUSH2 0xBC4 CALLDATASIZE PUSH1 0x4 PUSH2 0x3A70 JUMP JUMPDEST PUSH2 0x29C3 JUMP JUMPDEST PUSH2 0x6AF PUSH2 0xBD7 CALLDATASIZE PUSH1 0x4 PUSH2 0x3DFF JUMP JUMPDEST PUSH2 0x2A14 JUMP JUMPDEST PUSH2 0x6AF PUSH2 0xBEA CALLDATASIZE PUSH1 0x4 PUSH2 0x3AB8 JUMP JUMPDEST PUSH2 0x2A27 JUMP JUMPDEST PUSH2 0x756 PUSH2 0xBFD CALLDATASIZE PUSH1 0x4 PUSH2 0x3A70 JUMP JUMPDEST PUSH2 0x2A3A JUMP JUMPDEST PUSH2 0x6AF PUSH2 0xC10 CALLDATASIZE PUSH1 0x4 PUSH2 0x3A44 JUMP JUMPDEST PUSH2 0x2A46 JUMP JUMPDEST PUSH2 0x69A PUSH2 0xC23 CALLDATASIZE PUSH1 0x4 PUSH2 0x3AB8 JUMP JUMPDEST PUSH2 0x2A5A JUMP JUMPDEST PUSH2 0x702 PUSH2 0xC36 CALLDATASIZE PUSH1 0x4 PUSH2 0x3AB8 JUMP JUMPDEST PUSH2 0x2AD3 JUMP JUMPDEST PUSH1 0x0 SLOAD PUSH1 0x1 PUSH1 0x1 PUSH1 0xA0 SHL SUB AND CALLER EQ DUP1 PUSH2 0xC58 JUMPI POP PUSH2 0xC58 CALLER PUSH2 0xF46 JUMP JUMPDEST PUSH2 0xCBF JUMPI PUSH1 0x40 MLOAD PUSH3 0x461BCD PUSH1 0xE5 SHL DUP2 MSTORE PUSH1 0x20 PUSH1 0x4 DUP3 ADD MSTORE PUSH1 0x2D PUSH1 0x24 DUP3 ADD MSTORE PUSH32 0x416C6C6F77616E63653A2063616C6C6572206D757374206265205265706F7369 PUSH1 0x44 DUP3 ADD MSTORE PUSH13 0x1D1BDC9E4810DBDB9D1C9858DD PUSH1 0x9A SHL PUSH1 0x64 DUP3 ADD MSTORE PUSH1 0x84 ADD JUMPDEST PUSH1 0x40 MLOAD DUP1 SWAP2 SUB SWAP1 REVERT JUMPDEST JUMP JUMPDEST PUSH1 0x0 PUSH1 0x1 PUSH1 0x1 PUSH1 0xE0 SHL SUB NOT DUP3 AND PUSH4 0x1FFC9A7 PUSH1 0xE0 SHL EQ DUP1 PUSH2 0xCF2 JUMPI POP PUSH4 0x5B62CB7 PUSH1 0xE4 SHL PUSH1 0x1 PUSH1 0x1 PUSH1 0xE0 SHL SUB NOT DUP4 AND EQ JUMPDEST DUP1 PUSH2 0xD01 JUMPI POP PUSH2 0xD01 DUP3 PUSH2 0x2AFB JUMP JUMPDEST SWAP3 SWAP2 POP POP JUMP JUMPDEST PUSH1 0x0 PUSH1 0x1 PUSH1 0x1 PUSH1 0xA0 SHL SUB DUP4 AND PUSH2 0xD1F JUMPI POP PUSH1 0x1 PUSH2 0xD01 JUMP JUMPDEST PUSH2 0xD29 DUP4 DUP4 PUSH2 0x264F JUMP JUMPDEST PUSH1 0x40 ADD MLOAD SWAP4 SWAP3 POP POP POP JUMP JUMPDEST PUSH1 0x40 DUP1 MLOAD PUSH1 0x60 DUP2 ADD DUP3 MSTORE PUSH1 0x0 DUP1 DUP3 MSTORE PUSH1 0x20 DUP3 ADD DUP2 SWAP1 MSTORE SWAP2 DUP2 ADD SWAP2 SWAP1 SWAP2 MSTORE PUSH1 0x0 DUP1 MLOAD PUSH1 0x20 PUSH2 0x41C8 DUP4 CODECOPY DUP2 MLOAD SWAP2 MSTORE DUP3 ADD PUSH2 0xD71 JUMPI PUSH2 0xD01 PUSH1 0x0 DUP1 PUSH2 0x264F JUMP JUMPDEST PUSH2 0xD7A DUP3 PUSH2 0xDD1 JUMP JUMPDEST PUSH2 0xDA2 JUMPI POP POP PUSH1 0x40 DUP1 MLOAD PUSH1 0x60 DUP2 ADD DUP3 MSTORE PUSH1 0x11 NOT DUP2 MSTORE PUSH1 0x0 PUSH1 0x20 DUP3 ADD DUP2 SWAP1 MSTORE SWAP2 DUP2 ADD SWAP2 SWAP1 SWAP2 MSTORE SWAP1 JUMP JUMPDEST PUSH1 0x0 DUP1 PUSH2 0xDAE DUP5 PUSH2 0xDF9 JUMP JUMPDEST SWAP2 POP SWAP2 POP PUSH2 0xDBC DUP3 DUP3 PUSH2 0x264F JUMP JUMPDEST SWAP5 SWAP4 POP POP POP POP JUMP JUMPDEST PUSH1 0x0 PUSH2 0xD01 DUP3 PUSH1 0x0 PUSH2 0x2643 JUMP JUMPDEST PUSH1 0x0 PUSH1 0x0 DUP1 MLOAD PUSH1 0x20 PUSH2 0x41C8 DUP4 CODECOPY DUP2 MLOAD SWAP2 MSTORE DUP3 ADD PUSH2 0xDF0 JUMPI POP PUSH1 0x1 SWAP2 SWAP1 POP JUMP JUMPDEST PUSH2 0xD01 DUP3 PUSH2 0x154D JUMP JUMPDEST PUSH1 0x0 DUP1 PUSH1 0x0 DUP1 MLOAD PUSH1 0x20 PUSH2 0x41C8 DUP4 CODECOPY DUP2 MLOAD SWAP2 MSTORE DUP4 ADD PUSH2 0xE1C JUMPI POP PUSH1 0x0 SWAP3 DUP4 SWAP3 POP SWAP1 POP JUMP JUMPDEST PUSH2 0xE25 DUP4 PUSH2 0x154D JUMP JUMPDEST PUSH2 0xE41 JUMPI PUSH1 0x40 MLOAD PUSH3 0x461BCD PUSH1 0xE5 SHL DUP2 MSTORE PUSH1 0x4 ADD PUSH2 0xCB6 SWAP1 PUSH2 0x3E1C JUMP JUMPDEST PUSH2 0xE4A DUP4 PUSH2 0x2A3A JUMP JUMPDEST SWAP2 POP SWAP2 POP SWAP2 POP SWAP2 JUMP JUMPDEST PUSH1 0x0 PUSH1 0x0 DUP1 MLOAD PUSH1 0x20 PUSH2 0x41C8 DUP4 CODECOPY DUP2 MLOAD SWAP2 MSTORE DUP3 ADD PUSH2 0xE75 JUMPI PUSH2 0xD01 PUSH1 0x0 DUP1 PUSH2 0xD07 JUMP JUMPDEST PUSH2 0xE7E DUP3 PUSH2 0xDD1 JUMP JUMPDEST PUSH2 0xE8A JUMPI POP PUSH1 0x0 SWAP2 SWAP1 POP JUMP JUMPDEST PUSH1 0x0 DUP1 PUSH2 0xE96 DUP5 PUSH2 0xDF9 JUMP JUMPDEST SWAP2 POP SWAP2 POP PUSH2 0xDBC DUP3 DUP3 PUSH2 0xD07 JUMP JUMPDEST PUSH1 0x0 DUP2 DUP2 MSTORE PUSH1 0x8 PUSH1 0x20 MSTORE PUSH1 0x40 SWAP1 KECCAK256 DUP1 SLOAD PUSH1 0x60 SWAP2 SWAP1 PUSH2 0xEC1 SWAP1 PUSH2 0x3E53 JUMP JUMPDEST DUP1 PUSH1 0x1F ADD PUSH1 0x20 DUP1 SWAP2 DIV MUL PUSH1 0x20 ADD PUSH1 0x40 MLOAD SWAP1 DUP2 ADD PUSH1 0x40 MSTORE DUP1 SWAP3 SWAP2 SWAP1 DUP2 DUP2 MSTORE PUSH1 0x20 ADD DUP3 DUP1 SLOAD PUSH2 0xEED SWAP1 PUSH2 0x3E53 JUMP JUMPDEST DUP1 ISZERO PUSH2 0xF3A JUMPI DUP1 PUSH1 0x1F LT PUSH2 0xF0F JUMPI PUSH2 0x100 DUP1 DUP4 SLOAD DIV MUL DUP4 MSTORE SWAP2 PUSH1 0x20 ADD SWAP2 PUSH2 0xF3A JUMP JUMPDEST DUP3 ADD SWAP2 SWAP1 PUSH1 0x0 MSTORE PUSH1 0x20 PUSH1 0x0 KECCAK256 SWAP1 JUMPDEST DUP2 SLOAD DUP2 MSTORE SWAP1 PUSH1 0x1 ADD SWAP1 PUSH1 0x20 ADD DUP1 DUP4 GT PUSH2 0xF1D JUMPI DUP3 SWAP1 SUB PUSH1 0x1F AND DUP3 ADD SWAP2 JUMPDEST POP POP POP POP POP SWAP1 POP SWAP2 SWAP1 POP JUMP JUMPDEST PUSH1 0x0 ADDRESS PUSH1 0x1 PUSH1 0x1 PUSH1 0xA0 SHL SUB DUP4 AND SUB PUSH2 0xF60 JUMPI POP PUSH1 0x1 SWAP2 SWAP1 POP JUMP JUMPDEST PUSH1 0x40 MLOAD PUSH4 0xF1325663 PUSH1 0xE0 SHL DUP2 MSTORE PUSH1 0xA PUSH1 0x4 DUP3 ADD MSTORE PUSH1 0x1 PUSH1 0x1 PUSH1 0xA0 SHL SUB DUP4 AND PUSH1 0x24 DUP3 ADD MSTORE PUSH20 0x0 SWAP1 PUSH4 0xF1325663 SWAP1 PUSH1 0x44 ADD JUMPDEST PUSH1 0x20 PUSH1 0x40 MLOAD DUP1 DUP4 SUB DUP2 DUP7 GAS DELEGATECALL ISZERO DUP1 ISZERO PUSH2 0xFC0 JUMPI RETURNDATASIZE PUSH1 0x0 DUP1 RETURNDATACOPY RETURNDATASIZE PUSH1 0x0 REVERT JUMPDEST POP POP POP POP PUSH1 0x40 MLOAD RETURNDATASIZE PUSH1 0x1F NOT PUSH1 0x1F DUP3 ADD AND DUP3 ADD DUP1 PUSH1 0x40 MSTORE POP DUP2 ADD SWAP1 PUSH2 0xD01 SWAP2 SWAP1 PUSH2 0x395B JUMP JUMPDEST PUSH1 0x0 PUSH1 0x0 DUP1 MLOAD PUSH1 0x20 PUSH2 0x41C8 DUP4 CODECOPY DUP2 MLOAD SWAP2 MSTORE DUP3 ADD PUSH2 0x1003 JUMPI POP PUSH1 0x0 SWAP2 SWAP1 POP JUMP JUMPDEST PUSH2 0x100C DUP3 PUSH2 0x154D JUMP JUMPDEST PUSH2 0x1028 JUMPI PUSH1 0x40 MLOAD PUSH3 0x461BCD PUSH1 0xE5 SHL DUP2 MSTORE PUSH1 0x4 ADD PUSH2 0xCB6 SWAP1 PUSH2 0x3E1C JUMP JUMPDEST PUSH1 0x0 PUSH2 0x1033 DUP4 PUSH2 0x2A3A JUMP JUMPDEST POP SWAP4 SWAP3 POP POP POP JUMP JUMPDEST PUSH1 0x0 PUSH2 0x1045 PUSH2 0x2B31 JUMP JUMPDEST PUSH2 0x104F DUP4 DUP4 PUSH2 0x2BB0 JUMP JUMPDEST SWAP4 SWAP3 POP POP POP JUMP JUMPDEST PUSH1 0x60 PUSH1 0x1 PUSH1 0x1 PUSH1 0xA0 SHL SUB DUP4 AND PUSH2 0x1086 JUMPI PUSH1 0x40 MLOAD DUP1 PUSH1 0xA0 ADD PUSH1 0x40 MSTORE DUP1 PUSH1 0x75 DUP2 MSTORE PUSH1 0x20 ADD PUSH2 0x41E8 PUSH1 0x75 SWAP2 CODECOPY SWAP1 POP PUSH2 0xD01 JUMP JUMPDEST PUSH1 0x0 PUSH1 0x1 PUSH1 0x0 PUSH20 0x0 PUSH4 0xD5F0B04D DUP8 DUP8 PUSH1 0x40 MLOAD DUP4 PUSH4 0xFFFFFFFF AND PUSH1 0xE0 SHL DUP2 MSTORE PUSH1 0x4 ADD PUSH2 0x10C5 SWAP3 SWAP2 SWAP1 PUSH2 0x3AD5 JUMP JUMPDEST PUSH1 0x20 PUSH1 0x40 MLOAD DUP1 DUP4 SUB DUP2 DUP7 GAS DELEGATECALL ISZERO DUP1 ISZERO PUSH2 0x10E2 JUMPI RETURNDATASIZE PUSH1 0x0 DUP1 RETURNDATACOPY RETURNDATASIZE PUSH1 0x0 REVERT JUMPDEST POP POP POP POP PUSH1 0x40 MLOAD RETURNDATASIZE PUSH1 0x1F NOT PUSH1 0x1F DUP3 ADD AND DUP3 ADD DUP1 PUSH1 0x40 MSTORE POP DUP2 ADD SWAP1 PUSH2 0x1106 SWAP2 SWAP1 PUSH2 0x398E JUMP JUMPDEST DUP2 MSTORE PUSH1 0x20 ADD SWAP1 DUP2 MSTORE PUSH1 0x20 ADD PUSH1 0x0 KECCAK256 DUP1 SLOAD PUSH2 0x111F SWAP1 PUSH2 0x3E53 JUMP JUMPDEST DUP1 PUSH1 0x1F ADD PUSH1 0x20 DUP1 SWAP2 DIV MUL PUSH1 0x20 ADD PUSH1 0x40 MLOAD SWAP1 DUP2 ADD PUSH1 0x40 MSTORE DUP1 SWAP3 SWAP2 SWAP1 DUP2 DUP2 MSTORE PUSH1 0x20 ADD DUP3 DUP1 SLOAD PUSH2 0x114B SWAP1 PUSH2 0x3E53 JUMP JUMPDEST DUP1 ISZERO PUSH2 0x1198 JUMPI DUP1 PUSH1 0x1F LT PUSH2 0x116D JUMPI PUSH2 0x100 DUP1 DUP4 SLOAD DIV MUL DUP4 MSTORE SWAP2 PUSH1 0x20 ADD SWAP2 PUSH2 0x1198 JUMP JUMPDEST DUP3 ADD SWAP2 SWAP1 PUSH1 0x0 MSTORE PUSH1 0x20 PUSH1 0x0 KECCAK256 SWAP1 JUMPDEST DUP2 SLOAD DUP2 MSTORE SWAP1 PUSH1 0x1 ADD SWAP1 PUSH1 0x20 ADD DUP1 DUP4 GT PUSH2 0x117B JUMPI DUP3 SWAP1 SUB PUSH1 0x1F AND DUP3 ADD SWAP2 JUMPDEST POP POP PUSH1 0x40 DUP1 MLOAD PUSH1 0x0 DUP2 MSTORE PUSH1 0x20 DUP2 ADD DUP1 DUP4 MSTORE DUP2 MLOAD SWAP1 KECCAK256 SWAP6 SWAP7 POP PUSH2 0x11C0 SWAP5 POP DUP7 SWAP4 POP ADD SWAP1 POP PUSH2 0x3E87 JUMP JUMPDEST PUSH1 0x40 MLOAD PUSH1 0x20 DUP2 DUP4 SUB SUB DUP2 MSTORE SWAP1 PUSH1 0x40 MSTORE DUP1 MLOAD SWAP1 PUSH1 0x20 ADD KECCAK256 EQ PUSH2 0x11E2 JUMPI SWAP1 POP PUSH2 0xD01 JUMP JUMPDEST DUP3 ISZERO PUSH2 0x1343 JUMPI PUSH1 0x1 PUSH1 0x0 PUSH20 0x0 PUSH4 0xD5F0B04D DUP8 PUSH1 0x0 PUSH1 0x40 MLOAD DUP4 PUSH4 0xFFFFFFFF AND PUSH1 0xE0 SHL DUP2 MSTORE PUSH1 0x4 ADD PUSH2 0x1226 SWAP3 SWAP2 SWAP1 PUSH2 0x3AD5 JUMP JUMPDEST PUSH1 0x20 PUSH1 0x40 MLOAD DUP1 DUP4 SUB DUP2 DUP7 GAS DELEGATECALL ISZERO DUP1 ISZERO PUSH2 0x1243 JUMPI RETURNDATASIZE PUSH1 0x0 DUP1 RETURNDATACOPY RETURNDATASIZE PUSH1 0x0 REVERT JUMPDEST POP POP POP POP PUSH1 0x40 MLOAD RETURNDATASIZE PUSH1 0x1F NOT PUSH1 0x1F DUP3 ADD AND DUP3 ADD DUP1 PUSH1 0x40 MSTORE POP DUP2 ADD SWAP1 PUSH2 0x1267 SWAP2 SWAP1 PUSH2 0x398E JUMP JUMPDEST DUP2 MSTORE PUSH1 0x20 ADD SWAP1 DUP2 MSTORE PUSH1 0x20 ADD PUSH1 0x0 KECCAK256 DUP1 SLOAD PUSH2 0x1280 SWAP1 PUSH2 0x3E53 JUMP JUMPDEST DUP1 PUSH1 0x1F ADD PUSH1 0x20 DUP1 SWAP2 DIV MUL PUSH1 0x20 ADD PUSH1 0x40 MLOAD SWAP1 DUP2 ADD PUSH1 0x40 MSTORE DUP1 SWAP3 SWAP2 SWAP1 DUP2 DUP2 MSTORE PUSH1 0x20 ADD DUP3 DUP1 SLOAD PUSH2 0x12AC SWAP1 PUSH2 0x3E53 JUMP JUMPDEST DUP1 ISZERO PUSH2 0x12F9 JUMPI DUP1 PUSH1 0x1F LT PUSH2 0x12CE JUMPI PUSH2 0x100 DUP1 DUP4 SLOAD DIV MUL DUP4 MSTORE SWAP2 PUSH1 0x20 ADD SWAP2 PUSH2 0x12F9 JUMP JUMPDEST DUP3 ADD SWAP2 SWAP1 PUSH1 0x0 MSTORE PUSH1 0x20 PUSH1 0x0 KECCAK256 SWAP1 JUMPDEST DUP2 SLOAD DUP2 MSTORE SWAP1 PUSH1 0x1 ADD SWAP1 PUSH1 0x20 ADD DUP1 DUP4 GT PUSH2 0x12DC JUMPI DUP3 SWAP1 SUB PUSH1 0x1F AND DUP3 ADD SWAP2 JUMPDEST POP POP PUSH1 0x40 DUP1 MLOAD PUSH1 0x0 DUP2 MSTORE PUSH1 0x20 DUP2 ADD DUP1 DUP4 MSTORE DUP2 MLOAD SWAP1 KECCAK256 SWAP6 SWAP7 POP PUSH2 0x1321 SWAP5 POP DUP7 SWAP4 POP ADD SWAP1 POP PUSH2 0x3E87 JUMP JUMPDEST PUSH1 0x40 MLOAD PUSH1 0x20 DUP2 DUP4 SUB SUB DUP2 MSTORE SWAP1 PUSH1 0x40 MSTORE DUP1 MLOAD SWAP1 PUSH1 0x20 ADD KECCAK256 EQ PUSH2 0x1343 JUMPI SWAP1 POP PUSH2 0xD01 JUMP JUMPDEST PUSH1 0x40 MLOAD DUP1 PUSH1 0xA0 ADD PUSH1 0x40 MSTORE DUP1 PUSH1 0x6C DUP2 MSTORE PUSH1 0x20 ADD PUSH2 0x415C PUSH1 0x6C SWAP2 CODECOPY SWAP5 SWAP4 POP POP POP POP JUMP JUMPDEST DUP1 MLOAD PUSH1 0x20 DUP1 DUP4 ADD SWAP2 SWAP1 SWAP2 KECCAK256 PUSH1 0x0 DUP2 DUP2 MSTORE PUSH1 0x8 SWAP1 SWAP3 MSTORE PUSH1 0x40 SWAP1 SWAP2 KECCAK256 DUP1 SLOAD PUSH2 0x1389 SWAP1 PUSH2 0x3E53 JUMP JUMPDEST SWAP1 POP PUSH1 0x0 SUB PUSH2 0x13B7 JUMPI PUSH1 0x0 DUP2 DUP2 MSTORE PUSH1 0x8 PUSH1 0x20 SWAP1 DUP2 MSTORE PUSH1 0x40 SWAP1 SWAP2 KECCAK256 DUP4 MLOAD PUSH2 0x13B1 SWAP3 DUP6 ADD SWAP1 PUSH2 0x38B4 JUMP JUMPDEST POP SWAP2 SWAP1 POP JUMP JUMPDEST PUSH1 0x0 DUP2 DUP2 MSTORE PUSH1 0x8 PUSH1 0x20 MSTORE PUSH1 0x40 SWAP1 KECCAK256 DUP1 SLOAD PUSH2 0x1459 SWAP2 SWAP1 PUSH2 0x13D5 SWAP1 PUSH2 0x3E53 JUMP JUMPDEST DUP1 PUSH1 0x1F ADD PUSH1 0x20 DUP1 SWAP2 DIV MUL PUSH1 0x20 ADD PUSH1 0x40 MLOAD SWAP1 DUP2 ADD PUSH1 0x40 MSTORE DUP1 SWAP3 SWAP2 SWAP1 DUP2 DUP2 MSTORE PUSH1 0x20 ADD DUP3 DUP1 SLOAD PUSH2 0x1401 SWAP1 PUSH2 0x3E53 JUMP JUMPDEST DUP1 ISZERO PUSH2 0x144E JUMPI DUP1 PUSH1 0x1F LT PUSH2 0x1423 JUMPI PUSH2 0x100 DUP1 DUP4 SLOAD DIV MUL DUP4 MSTORE SWAP2 PUSH1 0x20 ADD SWAP2 PUSH2 0x144E JUMP JUMPDEST DUP3 ADD SWAP2 SWAP1 PUSH1 0x0 MSTORE PUSH1 0x20 PUSH1 0x0 KECCAK256 SWAP1 JUMPDEST DUP2 SLOAD DUP2 MSTORE SWAP1 PUSH1 0x1 ADD SWAP1 PUSH1 0x20 ADD DUP1 DUP4 GT PUSH2 0x1431 JUMPI DUP3 SWAP1 SUB PUSH1 0x1F AND DUP3 ADD SWAP2 JUMPDEST POP POP POP POP POP DUP4 PUSH2 0x2E3F JUMP JUMPDEST PUSH2 0x14C2 JUMPI PUSH1 0x40 MLOAD PUSH3 0x461BCD PUSH1 0xE5 SHL DUP2 MSTORE PUSH1 0x20 PUSH1 0x4 DUP3 ADD MSTORE PUSH1 0x34 PUSH1 0x24 DUP3 ADD MSTORE PUSH32 0x4B656363616B496E766572746572204279746573206B656363616B2069736E74 PUSH1 0x44 DUP3 ADD MSTORE PUSH20 0x20756E6971756520212121212121212121212121 PUSH1 0x60 SHL PUSH1 0x64 DUP3 ADD MSTORE PUSH1 0x84 ADD PUSH2 0xCB6 JUMP JUMPDEST SWAP2 SWAP1 POP JUMP JUMPDEST PUSH1 0x60 PUSH2 0x14D2 DUP3 PUSH2 0xEA4 JUMP JUMPDEST PUSH1 0x40 MLOAD PUSH4 0x55B04B0D PUSH1 0xE1 SHL DUP2 MSTORE PUSH20 0x0 SWAP2 PUSH4 0xAB60961A SWAP2 PUSH2 0x1508 SWAP2 SWAP1 PUSH1 0x4 ADD PUSH2 0x3B4A JUMP JUMPDEST PUSH1 0x0 PUSH1 0x40 MLOAD DUP1 DUP4 SUB DUP2 DUP7 GAS DELEGATECALL ISZERO DUP1 ISZERO PUSH2 0x1525 JUMPI RETURNDATASIZE PUSH1 0x0 DUP1 RETURNDATACOPY RETURNDATASIZE PUSH1 0x0 REVERT JUMPDEST POP POP POP POP PUSH1 0x40 MLOAD RETURNDATASIZE PUSH1 0x0 DUP3 RETURNDATACOPY PUSH1 0x1F RETURNDATASIZE SWAP1 DUP2 ADD PUSH1 0x1F NOT AND DUP3 ADD PUSH1 0x40 MSTORE PUSH2 0xD01 SWAP2 SWAP1 DUP2 ADD SWAP1 PUSH2 0x3EA3 JUMP JUMPDEST PUSH1 0x0 PUSH2 0xD01 DUP3 PUSH2 0x2ED1 JUMP JUMPDEST PUSH1 0x0 PUSH2 0x1564 DUP4 DUP4 PUSH2 0x2906 JUMP JUMPDEST SWAP1 POP PUSH2 0x156F DUP2 PUSH2 0x154D JUMP JUMPDEST PUSH2 0xD01 JUMPI PUSH1 0x40 MLOAD PUSH3 0x461BCD PUSH1 0xE5 SHL DUP2 MSTORE PUSH1 0x4 ADD PUSH2 0xCB6 SWAP1 PUSH2 0x3E1C JUMP JUMPDEST PUSH1 0x0 PUSH1 0x1 PUSH1 0x1 PUSH1 0xA0 SHL SUB DUP4 AND ISZERO DUP1 ISZERO PUSH2 0x15A2 JUMPI POP DUP2 ISZERO JUMPDEST ISZERO PUSH2 0x15CE JUMPI POP PUSH32 0xAD3228B676F7D3CD4284A5443F17F1962B36E491B30A40B2405849E597BA5FB5 PUSH2 0xD01 JUMP JUMPDEST PUSH2 0x15D8 DUP4 DUP4 PUSH2 0x17F1 JUMP JUMPDEST PUSH2 0x104F DUP4 DUP4 PUSH2 0x2212 JUMP JUMPDEST PUSH1 0x0 PUSH1 0x1 PUSH1 0x1 PUSH1 0xA0 SHL SUB DUP4 AND PUSH2 0x15FA JUMPI POP PUSH1 0x0 PUSH2 0xD01 JUMP JUMPDEST PUSH2 0x1604 DUP4 DUP4 PUSH2 0x264F JUMP JUMPDEST PUSH1 0x20 ADD MLOAD SWAP4 SWAP3 POP POP POP JUMP JUMPDEST PUSH1 0x40 MLOAD PUSH4 0x18F7A7C3 PUSH1 0xE2 SHL DUP2 MSTORE PUSH1 0x4 DUP2 ADD DUP4 SWAP1 MSTORE PUSH1 0x1 PUSH1 0x1 PUSH1 0xA0 SHL SUB DUP3 AND PUSH1 0x24 DUP3 ADD MSTORE PUSH1 0x0 SWAP1 PUSH2 0x104F SWAP1 PUSH20 0x0 SWAP1 PUSH4 0x63DE9F0C SWAP1 PUSH1 0x44 ADD JUMPDEST PUSH1 0x0 PUSH1 0x40 MLOAD DUP1 DUP4 SUB DUP2 DUP7 GAS DELEGATECALL ISZERO DUP1 ISZERO PUSH2 0x1676 JUMPI RETURNDATASIZE PUSH1 0x0 DUP1 RETURNDATACOPY RETURNDATASIZE PUSH1 0x0 REVERT JUMPDEST POP POP POP POP PUSH1 0x40 MLOAD RETURNDATASIZE PUSH1 0x0 DUP3 RETURNDATACOPY PUSH1 0x1F RETURNDATASIZE SWAP1 DUP2 ADD PUSH1 0x1F NOT AND DUP3 ADD PUSH1 0x40 MSTORE PUSH2 0xB3F SWAP2 SWAP1 DUP2 ADD SWAP1 PUSH2 0x3EA3 JUMP JUMPDEST PUSH1 0x0 PUSH2 0xD01 DUP3 PUSH2 0x1364 JUMP JUMPDEST PUSH1 0x0 PUSH2 0xD01 DUP3 PUSH2 0x2EF3 JUMP JUMPDEST PUSH1 0x40 MLOAD PUSH4 0x2291B3F1 PUSH1 0xE2 SHL DUP2 MSTORE PUSH1 0x4 DUP2 ADD DUP4 SWAP1 MSTORE PUSH1 0x24 DUP2 ADD DUP3 SWAP1 MSTORE PUSH1 0x0 SWAP1 PUSH2 0x104F SWAP1 PUSH20 0x0 SWAP1 PUSH4 0x8A46CFC4 SWAP1 PUSH1 0x44 ADD PUSH2 0x1659 JUMP JUMPDEST PUSH1 0x0 DUP1 PUSH2 0x1706 DUP4 PUSH2 0x14C7 JUMP JUMPDEST PUSH1 0x40 MLOAD PUSH4 0x29695C3 PUSH1 0xE2 SHL DUP2 MSTORE PUSH20 0x0 SWAP2 PUSH4 0xA5A570C SWAP2 PUSH2 0x173C SWAP2 SWAP1 PUSH1 0x4 ADD PUSH2 0x3C50 JUMP JUMPDEST PUSH1 0x40 DUP1 MLOAD DUP1 DUP4 SUB DUP2 DUP7 GAS DELEGATECALL ISZERO DUP1 ISZERO PUSH2 0x1758 JUMPI RETURNDATASIZE PUSH1 0x0 DUP1 RETURNDATACOPY RETURNDATASIZE PUSH1 0x0 REVERT JUMPDEST POP POP POP POP PUSH1 0x40 MLOAD RETURNDATASIZE PUSH1 0x1F NOT PUSH1 0x1F DUP3 ADD AND DUP3 ADD DUP1 PUSH1 0x40 MSTORE POP DUP2 ADD SWAP1 PUSH2 0xE4A SWAP2 SWAP1 PUSH2 0x3F28 JUMP JUMPDEST PUSH1 0x0 PUSH2 0x1786 PUSH2 0x2B31 JUMP JUMPDEST PUSH2 0x104F DUP4 DUP4 PUSH2 0x2F7C JUMP JUMPDEST PUSH1 0x0 ADDRESS PUSH1 0x1 PUSH1 0x1 PUSH1 0xA0 SHL SUB DUP4 AND SUB PUSH2 0x17AA JUMPI POP PUSH1 0x1 SWAP2 SWAP1 POP JUMP JUMPDEST PUSH1 0x40 MLOAD PUSH4 0xF1325663 PUSH1 0xE0 SHL DUP2 MSTORE PUSH1 0xB PUSH1 0x4 DUP3 ADD MSTORE PUSH1 0x1 PUSH1 0x1 PUSH1 0xA0 SHL SUB DUP4 AND PUSH1 0x24 DUP3 ADD MSTORE PUSH20 0x0 SWAP1 PUSH4 0xF1325663 SWAP1 PUSH1 0x44 ADD PUSH2 0xFA3 JUMP JUMPDEST PUSH1 0x0 DUP1 PUSH20 0x0 PUSH4 0xD5F0B04D DUP6 PUSH1 0x0 PUSH1 0x40 MLOAD DUP4 PUSH4 0xFFFFFFFF AND PUSH1 0xE0 SHL DUP2 MSTORE PUSH1 0x4 ADD PUSH2 0x182E SWAP3 SWAP2 SWAP1 PUSH2 0x3AD5 JUMP JUMPDEST PUSH1 0x20 PUSH1 0x40 MLOAD DUP1 DUP4 SUB DUP2 DUP7 GAS DELEGATECALL ISZERO DUP1 ISZERO PUSH2 0x184B JUMPI RETURNDATASIZE PUSH1 0x0 DUP1 RETURNDATACOPY RETURNDATASIZE PUSH1 0x0 REVERT JUMPDEST POP POP POP POP PUSH1 0x40 MLOAD RETURNDATASIZE PUSH1 0x1F NOT PUSH1 0x1F DUP3 ADD AND DUP3 ADD DUP1 PUSH1 0x40 MSTORE POP DUP2 ADD SWAP1 PUSH2 0x186F SWAP2 SWAP1 PUSH2 0x398E JUMP JUMPDEST PUSH1 0x0 DUP2 DUP2 MSTORE PUSH1 0x3 PUSH1 0x20 MSTORE PUSH1 0x40 DUP2 KECCAK256 DUP1 SLOAD SWAP1 SWAP5 POP SWAP2 SWAP3 POP PUSH3 0x10000 SWAP1 SWAP2 DIV PUSH1 0x1 PUSH1 0x1 PUSH1 0x40 SHL SUB AND SWAP1 SUB PUSH2 0x1A04 JUMPI PUSH1 0x40 MLOAD PUSH4 0x4DD11F0F PUSH1 0xE1 SHL DUP2 MSTORE PUSH1 0x1 PUSH1 0x1 PUSH1 0xA0 SHL SUB DUP6 AND PUSH1 0x4 DUP3 ADD MSTORE PUSH1 0x0 PUSH1 0x24 DUP3 ADD MSTORE PUSH1 0x1 PUSH1 0x44 DUP3 ADD MSTORE PUSH20 0x0 SWAP1 PUSH4 0x9BA23E1E SWAP1 PUSH1 0x64 ADD PUSH1 0x60 PUSH1 0x40 MLOAD DUP1 DUP4 SUB DUP2 DUP7 GAS DELEGATECALL ISZERO DUP1 ISZERO PUSH2 0x1901 JUMPI RETURNDATASIZE PUSH1 0x0 DUP1 RETURNDATACOPY RETURNDATASIZE PUSH1 0x0 REVERT JUMPDEST POP POP POP POP PUSH1 0x40 MLOAD RETURNDATASIZE PUSH1 0x1F NOT PUSH1 0x1F DUP3 ADD AND DUP3 ADD DUP1 PUSH1 0x40 MSTORE POP DUP2 ADD SWAP1 PUSH2 0x1925 SWAP2 SWAP1 PUSH2 0x3F4C JUMP JUMPDEST PUSH1 0x0 DUP3 DUP2 MSTORE PUSH1 0x3 PUSH1 0x20 SWAP1 DUP2 MSTORE PUSH1 0x40 SWAP2 DUP3 SWAP1 KECCAK256 DUP4 MLOAD DUP2 SLOAD SWAP3 DUP6 ADD MLOAD SWAP5 DUP5 ADD MLOAD PUSH1 0x1 PUSH1 0x1 PUSH1 0x40 SHL SUB AND PUSH3 0x10000 MUL PUSH10 0xFFFFFFFFFFFFFFFF0000 NOT SWAP6 ISZERO ISZERO PUSH2 0x100 MUL PUSH2 0xFFFF NOT SWAP1 SWAP5 AND PUSH1 0xFF SWAP1 SWAP3 AND SWAP2 SWAP1 SWAP2 OR SWAP3 SWAP1 SWAP3 OR SWAP4 SWAP1 SWAP4 AND OR SWAP1 SWAP2 SSTORE MLOAD PUSH4 0x16061A71 PUSH1 0xE2 SHL DUP2 MSTORE PUSH20 0x0 SWAP1 PUSH4 0x581869C4 SWAP1 PUSH2 0x19C1 SWAP1 PUSH1 0x2 SWAP1 DUP6 SWAP1 PUSH1 0x4 ADD SWAP2 DUP3 MSTORE PUSH1 0x20 DUP3 ADD MSTORE PUSH1 0x40 ADD SWAP1 JUMP JUMPDEST PUSH1 0x20 PUSH1 0x40 MLOAD DUP1 DUP4 SUB DUP2 DUP7 GAS DELEGATECALL ISZERO DUP1 ISZERO PUSH2 0x19DE JUMPI RETURNDATASIZE PUSH1 0x0 DUP1 RETURNDATACOPY RETURNDATASIZE PUSH1 0x0 REVERT JUMPDEST POP POP POP POP PUSH1 0x40 MLOAD RETURNDATASIZE PUSH1 0x1F NOT PUSH1 0x1F DUP3 ADD AND DUP3 ADD DUP1 PUSH1 0x40 MSTORE POP DUP2 ADD SWAP1 PUSH2 0x1A02 SWAP2 SWAP1 PUSH2 0x395B JUMP JUMPDEST POP JUMPDEST DUP2 SLOAD PUSH3 0x10000 SWAP1 DIV PUSH1 0x1 PUSH1 0x1 PUSH1 0x40 SHL SUB AND PUSH1 0x0 SUB PUSH2 0x1A24 JUMPI PUSH2 0x1A24 PUSH2 0x3FC4 JUMP JUMPDEST DUP2 SLOAD PUSH3 0x10000 SWAP1 DIV PUSH2 0x100 AND PUSH1 0x0 SUB PUSH2 0x1A3D JUMPI POP POP POP POP JUMP JUMPDEST PUSH1 0x40 DUP1 MLOAD PUSH1 0x60 DUP2 ADD DUP3 MSTORE DUP4 SLOAD PUSH1 0x0 DUP2 SWAP1 SIGNEXTEND DUP3 MSTORE PUSH2 0x100 DUP2 DIV PUSH1 0xFF AND ISZERO ISZERO PUSH1 0x20 DUP4 ADD MSTORE PUSH3 0x10000 SWAP1 DIV PUSH1 0x1 PUSH1 0x1 PUSH1 0x40 SHL SUB AND DUP2 DUP4 ADD MSTORE SWAP1 MLOAD PUSH4 0xD5F0B04D PUSH1 0xE0 SHL DUP2 MSTORE PUSH20 0x0 SWAP1 PUSH4 0xD5F0B04D SWAP1 PUSH2 0x1AAA SWAP1 DUP9 SWAP1 DUP9 SWAP1 PUSH1 0x4 ADD PUSH2 0x3AD5 JUMP JUMPDEST PUSH1 0x20 PUSH1 0x40 MLOAD DUP1 DUP4 SUB DUP2 DUP7 GAS DELEGATECALL ISZERO DUP1 ISZERO PUSH2 0x1AC7 JUMPI RETURNDATASIZE PUSH1 0x0 DUP1 RETURNDATACOPY RETURNDATASIZE PUSH1 0x0 REVERT JUMPDEST POP POP POP POP PUSH1 0x40 MLOAD RETURNDATASIZE PUSH1 0x1F NOT PUSH1 0x1F DUP3 ADD AND DUP3 ADD DUP1 PUSH1 0x40 MSTORE POP DUP2 ADD SWAP1 PUSH2 0x1AEB SWAP2 SWAP1 PUSH2 0x398E JUMP JUMPDEST PUSH1 0x0 DUP2 DUP2 MSTORE PUSH1 0x3 PUSH1 0x20 MSTORE PUSH1 0x40 DUP2 KECCAK256 DUP1 SLOAD SWAP1 SWAP6 POP SWAP2 SWAP4 POP PUSH3 0x10000 SWAP1 SWAP2 DIV PUSH1 0x1 PUSH1 0x1 PUSH1 0x40 SHL SUB AND SWAP1 SUB PUSH2 0x1C75 JUMPI PUSH1 0x40 MLOAD PUSH4 0x543AF627 PUSH1 0xE0 SHL DUP2 MSTORE PUSH20 0x0 SWAP1 PUSH4 0x543AF627 SWAP1 PUSH2 0x1B55 SWAP1 DUP9 SWAP1 DUP9 SWAP1 DUP7 SWAP1 PUSH1 0x1 SWAP1 PUSH1 0x4 ADD PUSH2 0x3FDA JUMP JUMPDEST PUSH1 0x60 PUSH1 0x40 MLOAD DUP1 DUP4 SUB DUP2 DUP7 GAS DELEGATECALL ISZERO DUP1 ISZERO PUSH2 0x1B72 JUMPI RETURNDATASIZE PUSH1 0x0 DUP1 RETURNDATACOPY RETURNDATASIZE PUSH1 0x0 REVERT JUMPDEST POP POP POP POP PUSH1 0x40 MLOAD RETURNDATASIZE PUSH1 0x1F NOT PUSH1 0x1F DUP3 ADD AND DUP3 ADD DUP1 PUSH1 0x40 MSTORE POP DUP2 ADD SWAP1 PUSH2 0x1B96 SWAP2 SWAP1 PUSH2 0x3F4C JUMP JUMPDEST PUSH1 0x0 DUP4 DUP2 MSTORE PUSH1 0x3 PUSH1 0x20 SWAP1 DUP2 MSTORE PUSH1 0x40 SWAP2 DUP3 SWAP1 KECCAK256 DUP4 MLOAD DUP2 SLOAD SWAP3 DUP6 ADD MLOAD SWAP5 DUP5 ADD MLOAD PUSH1 0x1 PUSH1 0x1 PUSH1 0x40 SHL SUB AND PUSH3 0x10000 MUL PUSH10 0xFFFFFFFFFFFFFFFF0000 NOT SWAP6 ISZERO ISZERO PUSH2 0x100 MUL PUSH2 0xFFFF NOT SWAP1 SWAP5 AND PUSH1 0xFF SWAP1 SWAP3 AND SWAP2 SWAP1 SWAP2 OR SWAP3 SWAP1 SWAP3 OR SWAP4 SWAP1 SWAP4 AND OR SWAP1 SWAP2 SSTORE MLOAD PUSH4 0x16061A71 PUSH1 0xE2 SHL DUP2 MSTORE PUSH20 0x0 SWAP1 PUSH4 0x581869C4 SWAP1 PUSH2 0x1C32 SWAP1 PUSH1 0x2 SWAP1 DUP7 SWAP1 PUSH1 0x4 ADD SWAP2 DUP3 MSTORE PUSH1 0x20 DUP3 ADD MSTORE PUSH1 0x40 ADD SWAP1 JUMP JUMPDEST PUSH1 0x20 PUSH1 0x40 MLOAD DUP1 DUP4 SUB DUP2 DUP7 GAS DELEGATECALL ISZERO DUP1 ISZERO PUSH2 0x1C4F JUMPI RETURNDATASIZE PUSH1 0x0 DUP1 RETURNDATACOPY RETURNDATASIZE PUSH1 0x0 REVERT JUMPDEST POP POP POP POP PUSH1 0x40 MLOAD RETURNDATASIZE PUSH1 0x1F NOT PUSH1 0x1F DUP3 ADD AND DUP3 ADD DUP1 PUSH1 0x40 MSTORE POP DUP2 ADD SWAP1 PUSH2 0x1C73 SWAP2 SWAP1 PUSH2 0x395B JUMP JUMPDEST POP JUMPDEST DUP3 SLOAD PUSH3 0x10000 SWAP1 DIV PUSH1 0x1 PUSH1 0x1 PUSH1 0x40 SHL SUB AND PUSH1 0x0 SUB PUSH2 0x1C95 JUMPI PUSH2 0x1C95 PUSH2 0x3FC4 JUMP JUMPDEST POP POP POP POP POP JUMP JUMPDEST PUSH2 0x1CA4 PUSH2 0x325E JUMP JUMPDEST PUSH2 0xCBF PUSH1 0x0 PUSH2 0x32B8 JUMP JUMPDEST PUSH2 0x1CB6 PUSH2 0x2B31 JUMP JUMPDEST PUSH1 0x40 MLOAD PUSH4 0x1FFC9A7 PUSH1 0xE0 SHL DUP2 MSTORE PUSH4 0x15D37895 PUSH1 0xE3 SHL PUSH1 0x4 DUP3 ADD MSTORE PUSH1 0x1 PUSH1 0x1 PUSH1 0xA0 SHL SUB DUP3 AND SWAP1 PUSH4 0x1FFC9A7 SWAP1 PUSH1 0x24 ADD PUSH1 0x20 PUSH1 0x40 MLOAD DUP1 DUP4 SUB DUP2 DUP7 GAS STATICCALL ISZERO DUP1 ISZERO PUSH2 0x1D01 JUMPI RETURNDATASIZE PUSH1 0x0 DUP1 RETURNDATACOPY RETURNDATASIZE PUSH1 0x0 REVERT JUMPDEST POP POP POP POP PUSH1 0x40 MLOAD RETURNDATASIZE PUSH1 0x1F NOT PUSH1 0x1F DUP3 ADD AND DUP3 ADD DUP1 PUSH1 0x40 MSTORE POP DUP2 ADD SWAP1 PUSH2 0x1D25 SWAP2 SWAP1 PUSH2 0x395B JUMP JUMPDEST PUSH2 0x1D7D JUMPI PUSH1 0x40 MLOAD PUSH3 0x461BCD PUSH1 0xE5 SHL DUP2 MSTORE PUSH1 0x20 PUSH1 0x4 DUP3 ADD MSTORE PUSH1 0x24 DUP1 DUP3 ADD MSTORE PUSH32 0x636F6E7472616374206D75737420626520495265706F7369746F7279436F6E74 PUSH1 0x44 DUP3 ADD MSTORE PUSH4 0x1C9858DD PUSH1 0xE2 SHL PUSH1 0x64 DUP3 ADD MSTORE PUSH1 0x84 ADD PUSH2 0xCB6 JUMP JUMPDEST PUSH1 0x0 JUMPDEST PUSH1 0xD SLOAD DUP2 LT ISZERO PUSH2 0x1E66 JUMPI PUSH1 0xC PUSH1 0x0 DUP4 PUSH1 0x1 PUSH1 0x1 PUSH1 0xA0 SHL SUB AND PUSH4 0xAF640D0F PUSH1 0x40 MLOAD DUP2 PUSH4 0xFFFFFFFF AND PUSH1 0xE0 SHL DUP2 MSTORE PUSH1 0x4 ADD PUSH1 0x20 PUSH1 0x40 MLOAD DUP1 DUP4 SUB DUP2 DUP7 GAS STATICCALL ISZERO DUP1 ISZERO PUSH2 0x1DCC JUMPI RETURNDATASIZE PUSH1 0x0 DUP1 RETURNDATACOPY RETURNDATASIZE PUSH1 0x0 REVERT JUMPDEST POP POP POP POP PUSH1 0x40 MLOAD RETURNDATASIZE PUSH1 0x1F NOT PUSH1 0x1F DUP3 ADD AND DUP3 ADD DUP1 PUSH1 0x40 MSTORE POP DUP2 ADD SWAP1 PUSH2 0x1DF0 SWAP2 SWAP1 PUSH2 0x398E JUMP JUMPDEST DUP2 MSTORE PUSH1 0x20 ADD SWAP1 DUP2 MSTORE PUSH1 0x20 ADD PUSH1 0x0 KECCAK256 PUSH1 0x0 PUSH1 0xD DUP4 DUP2 SLOAD DUP2 LT PUSH2 0x1E13 JUMPI PUSH2 0x1E13 PUSH2 0x3978 JUMP JUMPDEST PUSH1 0x0 SWAP2 DUP3 MSTORE PUSH1 0x20 DUP1 DUP4 KECCAK256 PUSH1 0x8 DUP4 DIV ADD SLOAD PUSH1 0x7 SWAP1 SWAP3 AND PUSH1 0x4 MUL PUSH2 0x100 EXP SWAP1 SWAP2 DIV PUSH1 0xE0 SHL PUSH1 0x1 PUSH1 0x1 PUSH1 0xE0 SHL SUB NOT AND DUP4 MSTORE DUP3 ADD SWAP3 SWAP1 SWAP3 MSTORE PUSH1 0x40 ADD SWAP1 KECCAK256 DUP1 SLOAD PUSH1 0xFF NOT AND SWAP1 SSTORE DUP1 PUSH2 0x1E5E DUP2 PUSH2 0x39E3 JUMP JUMPDEST SWAP2 POP POP PUSH2 0x1D80 JUMP JUMPDEST POP PUSH1 0x40 MLOAD PUSH4 0x16F4B929 PUSH1 0xE2 SHL DUP2 MSTORE PUSH1 0xA PUSH1 0x4 DUP3 ADD MSTORE PUSH1 0x1 PUSH1 0x1 PUSH1 0xA0 SHL SUB DUP3 AND PUSH1 0x24 DUP3 ADD MSTORE PUSH20 0x0 SWAP1 PUSH4 0x5BD2E4A4 SWAP1 PUSH1 0x44 ADD PUSH1 0x20 PUSH1 0x40 MLOAD DUP1 DUP4 SUB DUP2 DUP7 GAS DELEGATECALL ISZERO DUP1 ISZERO PUSH2 0x1EC6 JUMPI RETURNDATASIZE PUSH1 0x0 DUP1 RETURNDATACOPY RETURNDATASIZE PUSH1 0x0 REVERT JUMPDEST POP POP POP POP PUSH1 0x40 MLOAD RETURNDATASIZE PUSH1 0x1F NOT PUSH1 0x1F DUP3 ADD AND DUP3 ADD DUP1 PUSH1 0x40 MSTORE POP DUP2 ADD SWAP1 PUSH2 0x1EEA SWAP2 SWAP1 PUSH2 0x395B JUMP JUMPDEST POP DUP1 PUSH1 0x9 PUSH1 0x0 DUP4 PUSH1 0x1 PUSH1 0x1 PUSH1 0xA0 SHL SUB AND PUSH4 0xAF640D0F PUSH1 0x40 MLOAD DUP2 PUSH4 0xFFFFFFFF AND PUSH1 0xE0 SHL DUP2 MSTORE PUSH1 0x4 ADD PUSH1 0x20 PUSH1 0x40 MLOAD DUP1 DUP4 SUB DUP2 DUP7 GAS STATICCALL ISZERO DUP1 ISZERO PUSH2 0x1F2E JUMPI RETURNDATASIZE PUSH1 0x0 DUP1 RETURNDATACOPY RETURNDATASIZE PUSH1 0x0 REVERT JUMPDEST POP POP POP POP PUSH1 0x40 MLOAD RETURNDATASIZE PUSH1 0x1F NOT PUSH1 0x1F DUP3 ADD AND DUP3 ADD DUP1 PUSH1 0x40 MSTORE POP DUP2 ADD SWAP1 PUSH2 0x1F52 SWAP2 SWAP1 PUSH2 0x398E JUMP JUMPDEST DUP2 MSTORE PUSH1 0x20 ADD SWAP1 DUP2 MSTORE PUSH1 0x20 ADD PUSH1 0x0 KECCAK256 PUSH1 0x0 PUSH2 0x100 EXP DUP2 SLOAD DUP2 PUSH1 0x1 PUSH1 0x1 PUSH1 0xA0 SHL SUB MUL NOT AND SWAP1 DUP4 PUSH1 0x1 PUSH1 0x1 PUSH1 0xA0 SHL SUB AND MUL OR SWAP1 SSTORE POP POP JUMP JUMPDEST PUSH1 0x4 SLOAD PUSH1 0x0 SWAP1 JUMPDEST DUP1 ISZERO PUSH2 0x20B2 JUMPI PUSH1 0x1 PUSH1 0x1 PUSH1 0xA0 SHL SUB DUP5 AND PUSH1 0x4 PUSH2 0x1FAB PUSH1 0x1 DUP5 PUSH2 0x4031 JUMP JUMPDEST DUP2 SLOAD DUP2 LT PUSH2 0x1FBB JUMPI PUSH2 0x1FBB PUSH2 0x3978 JUMP JUMPDEST PUSH1 0x0 SWAP2 DUP3 MSTORE PUSH1 0x20 SWAP1 SWAP2 KECCAK256 PUSH1 0x2 SWAP1 SWAP2 MUL ADD SLOAD PUSH1 0x1 PUSH1 0x1 PUSH1 0xA0 SHL SUB AND EQ DUP1 ISZERO PUSH2 0x2010 JUMPI POP PUSH1 0x4 PUSH2 0x1FEA PUSH1 0x1 DUP4 PUSH2 0x4031 JUMP JUMPDEST DUP2 SLOAD DUP2 LT PUSH2 0x1FFA JUMPI PUSH2 0x1FFA PUSH2 0x3978 JUMP JUMPDEST SWAP1 PUSH1 0x0 MSTORE PUSH1 0x20 PUSH1 0x0 KECCAK256 SWAP1 PUSH1 0x2 MUL ADD PUSH1 0x1 ADD SLOAD PUSH1 0x0 EQ JUMPDEST DUP1 PUSH2 0x2091 JUMPI POP PUSH1 0x1 PUSH1 0x1 PUSH1 0xA0 SHL SUB DUP5 AND PUSH1 0x4 PUSH2 0x202D PUSH1 0x1 DUP5 PUSH2 0x4031 JUMP JUMPDEST DUP2 SLOAD DUP2 LT PUSH2 0x203D JUMPI PUSH2 0x203D PUSH2 0x3978 JUMP JUMPDEST PUSH1 0x0 SWAP2 DUP3 MSTORE PUSH1 0x20 SWAP1 SWAP2 KECCAK256 PUSH1 0x2 SWAP1 SWAP2 MUL ADD SLOAD PUSH1 0x1 PUSH1 0x1 PUSH1 0xA0 SHL SUB AND EQ DUP1 ISZERO PUSH2 0x2091 JUMPI POP DUP3 PUSH1 0x4 PUSH2 0x206D PUSH1 0x1 DUP5 PUSH2 0x4031 JUMP JUMPDEST DUP2 SLOAD DUP2 LT PUSH2 0x207D JUMPI PUSH2 0x207D PUSH2 0x3978 JUMP JUMPDEST SWAP1 PUSH1 0x0 MSTORE PUSH1 0x20 PUSH1 0x0 KECCAK256 SWAP1 PUSH1 0x2 MUL ADD PUSH1 0x1 ADD SLOAD EQ JUMPDEST ISZERO PUSH2 0x20A0 JUMPI PUSH1 0x1 SWAP2 POP POP PUSH2 0xD01 JUMP JUMPDEST DUP1 PUSH2 0x20AA DUP2 PUSH2 0x4048 JUMP JUMPDEST SWAP2 POP POP PUSH2 0x1F8E JUMP JUMPDEST POP PUSH1 0x0 SWAP4 SWAP3 POP POP POP JUMP JUMPDEST PUSH1 0x0 PUSH2 0x20C6 PUSH2 0x2B31 JUMP JUMPDEST PUSH2 0x104F DUP4 DUP4 PUSH2 0x3308 JUMP JUMPDEST PUSH1 0x0 PUSH2 0xD01 DUP3 PUSH1 0x0 PUSH2 0xD07 JUMP JUMPDEST PUSH1 0x0 PUSH2 0x20E7 PUSH2 0x2B31 JUMP JUMPDEST PUSH2 0xD01 DUP3 PUSH2 0x3464 JUMP JUMPDEST PUSH2 0x20F8 PUSH2 0x2B31 JUMP JUMPDEST PUSH1 0x40 MLOAD PUSH4 0x16F4B929 PUSH1 0xE2 SHL DUP2 MSTORE PUSH1 0xB PUSH1 0x4 DUP3 ADD MSTORE PUSH1 0x1 PUSH1 0x1 PUSH1 0xA0 SHL SUB DUP3 AND PUSH1 0x24 DUP3 ADD MSTORE PUSH20 0x0 SWAP1 PUSH4 0x5BD2E4A4 SWAP1 PUSH1 0x44 ADD JUMPDEST PUSH1 0x20 PUSH1 0x40 MLOAD DUP1 DUP4 SUB DUP2 DUP7 GAS DELEGATECALL ISZERO DUP1 ISZERO PUSH2 0x2158 JUMPI RETURNDATASIZE PUSH1 0x0 DUP1 RETURNDATACOPY RETURNDATASIZE PUSH1 0x0 REVERT JUMPDEST POP POP POP POP PUSH1 0x40 MLOAD RETURNDATASIZE PUSH1 0x1F NOT PUSH1 0x1F DUP3 ADD AND DUP3 ADD DUP1 PUSH1 0x40 MSTORE POP DUP2 ADD SWAP1 PUSH2 0x217C SWAP2 SWAP1 PUSH2 0x395B JUMP JUMPDEST POP POP JUMP JUMPDEST PUSH1 0x60 PUSH1 0x0 DUP1 MLOAD PUSH1 0x20 PUSH2 0x41C8 DUP4 CODECOPY DUP2 MLOAD SWAP2 MSTORE DUP3 ADD PUSH2 0x21A2 JUMPI PUSH2 0xD01 PUSH1 0x0 DUP1 PUSH2 0x1056 JUMP JUMPDEST PUSH2 0x21AB DUP3 PUSH2 0xDD1 JUMP JUMPDEST PUSH2 0x21CE JUMPI PUSH1 0x40 MLOAD DUP1 PUSH1 0xA0 ADD PUSH1 0x40 MSTORE DUP1 PUSH1 0x6C DUP2 MSTORE PUSH1 0x20 ADD PUSH2 0x415C PUSH1 0x6C SWAP2 CODECOPY SWAP3 SWAP2 POP POP JUMP JUMPDEST PUSH1 0x0 DUP1 PUSH2 0x21DA DUP5 PUSH2 0xDF9 JUMP JUMPDEST SWAP2 POP SWAP2 POP PUSH2 0xDBC DUP3 DUP3 PUSH2 0x1056 JUMP JUMPDEST PUSH1 0x0 DUP2 PUSH1 0x1 PUSH1 0x1 PUSH1 0x40 SHL SUB AND PUSH1 0xFF PUSH2 0x21FF DUP6 PUSH2 0xE53 JUMP JUMPDEST AND PUSH1 0x1 PUSH1 0x1 PUSH1 0x40 SHL SUB AND EQ SWAP1 POP SWAP3 SWAP2 POP POP JUMP JUMPDEST PUSH1 0x0 PUSH2 0x104F DUP4 DUP4 PUSH2 0x3521 JUMP JUMPDEST PUSH1 0x0 PUSH1 0x0 DUP1 MLOAD PUSH1 0x20 PUSH2 0x41C8 DUP4 CODECOPY DUP2 MLOAD SWAP2 MSTORE DUP3 ADD PUSH2 0x2240 JUMPI PUSH2 0xD01 PUSH1 0x0 DUP1 PUSH2 0x2643 JUMP JUMPDEST PUSH2 0x2249 DUP3 PUSH2 0xDD1 JUMP JUMPDEST PUSH2 0x2255 JUMPI POP PUSH1 0x1 SWAP2 SWAP1 POP JUMP JUMPDEST PUSH1 0x0 DUP1 PUSH2 0x2261 DUP5 PUSH2 0xDF9 JUMP JUMPDEST SWAP2 POP SWAP2 POP PUSH2 0xDBC DUP3 DUP3 PUSH2 0x2643 JUMP JUMPDEST PUSH1 0x60 PUSH2 0xD01 DUP3 PUSH1 0x0 PUSH2 0x1056 JUMP JUMPDEST PUSH1 0x6 SLOAD PUSH1 0x0 SWAP1 DUP2 JUMPDEST DUP2 DUP2 LT ISZERO PUSH2 0x2383 JUMPI DUP5 PUSH1 0x1 PUSH1 0x1 PUSH1 0xA0 SHL SUB AND PUSH1 0x6 DUP3 DUP2 SLOAD DUP2 LT PUSH2 0x22A9 JUMPI PUSH2 0x22A9 PUSH2 0x3978 JUMP JUMPDEST PUSH1 0x0 SWAP2 DUP3 MSTORE PUSH1 0x20 SWAP1 SWAP2 KECCAK256 PUSH1 0x2 SWAP1 SWAP2 MUL ADD SLOAD PUSH1 0x1 PUSH1 0x1 PUSH1 0xA0 SHL SUB AND EQ DUP1 ISZERO PUSH2 0x22F4 JUMPI POP PUSH1 0x6 DUP2 DUP2 SLOAD DUP2 LT PUSH2 0x22DE JUMPI PUSH2 0x22DE PUSH2 0x3978 JUMP JUMPDEST SWAP1 PUSH1 0x0 MSTORE PUSH1 0x20 PUSH1 0x0 KECCAK256 SWAP1 PUSH1 0x2 MUL ADD PUSH1 0x1 ADD SLOAD PUSH1 0x0 EQ JUMPDEST DUP1 PUSH2 0x2361 JUMPI POP DUP5 PUSH1 0x1 PUSH1 0x1 PUSH1 0xA0 SHL SUB AND PUSH1 0x6 DUP3 DUP2 SLOAD DUP2 LT PUSH2 0x2317 JUMPI PUSH2 0x2317 PUSH2 0x3978 JUMP JUMPDEST PUSH1 0x0 SWAP2 DUP3 MSTORE PUSH1 0x20 SWAP1 SWAP2 KECCAK256 PUSH1 0x2 SWAP1 SWAP2 MUL ADD SLOAD PUSH1 0x1 PUSH1 0x1 PUSH1 0xA0 SHL SUB AND EQ DUP1 ISZERO PUSH2 0x2361 JUMPI POP DUP4 PUSH1 0x6 DUP3 DUP2 SLOAD DUP2 LT PUSH2 0x234D JUMPI PUSH2 0x234D PUSH2 0x3978 JUMP JUMPDEST SWAP1 PUSH1 0x0 MSTORE PUSH1 0x20 PUSH1 0x0 KECCAK256 SWAP1 PUSH1 0x2 MUL ADD PUSH1 0x1 ADD SLOAD EQ JUMPDEST ISZERO PUSH2 0x2371 JUMPI PUSH1 0x1 SWAP3 POP POP POP PUSH2 0xD01 JUMP JUMPDEST DUP1 PUSH2 0x237B DUP2 PUSH2 0x39E3 JUMP JUMPDEST SWAP2 POP POP PUSH2 0x2284 JUMP JUMPDEST POP PUSH1 0x0 SWAP5 SWAP4 POP POP POP POP JUMP JUMPDEST PUSH2 0x2396 PUSH2 0x2B31 JUMP JUMPDEST PUSH1 0x40 MLOAD PUSH4 0xEDEFE12D PUSH1 0xE0 SHL DUP2 MSTORE PUSH1 0xB PUSH1 0x4 DUP3 ADD MSTORE PUSH1 0x1 PUSH1 0x1 PUSH1 0xA0 SHL SUB DUP3 AND PUSH1 0x24 DUP3 ADD MSTORE PUSH20 0x0 SWAP1 PUSH4 0xEDEFE12D SWAP1 PUSH1 0x44 ADD PUSH2 0x213B JUMP JUMPDEST PUSH1 0x0 PUSH2 0x23EA DUP4 PUSH1 0x0 PUSH2 0x1F87 JUMP JUMPDEST ISZERO PUSH2 0x23F7 JUMPI POP PUSH1 0x1 PUSH2 0xD01 JUMP JUMPDEST DUP2 ISZERO PUSH2 0x2414 JUMPI PUSH2 0x2407 DUP4 DUP4 PUSH2 0x1F87 JUMP JUMPDEST ISZERO PUSH2 0x2414 JUMPI POP PUSH1 0x1 PUSH2 0xD01 JUMP JUMPDEST PUSH1 0x0 DUP4 PUSH1 0x1 PUSH1 0x1 PUSH1 0xA0 SHL SUB AND PUSH4 0x373A7FB4 PUSH1 0x40 MLOAD DUP2 PUSH4 0xFFFFFFFF AND PUSH1 0xE0 SHL DUP2 MSTORE PUSH1 0x4 ADD PUSH1 0x20 PUSH1 0x40 MLOAD DUP1 DUP4 SUB DUP2 DUP7 GAS STATICCALL ISZERO DUP1 ISZERO PUSH2 0x2454 JUMPI RETURNDATASIZE PUSH1 0x0 DUP1 RETURNDATACOPY RETURNDATASIZE PUSH1 0x0 REVERT JUMPDEST POP POP POP POP PUSH1 0x40 MLOAD RETURNDATASIZE PUSH1 0x1F NOT PUSH1 0x1F DUP3 ADD AND DUP3 ADD DUP1 PUSH1 0x40 MSTORE POP DUP2 ADD SWAP1 PUSH2 0x2478 SWAP2 SWAP1 PUSH2 0x405F JUMP JUMPDEST SWAP1 POP PUSH2 0x2483 DUP2 PUSH2 0x16A9 JUMP JUMPDEST PUSH2 0x2491 JUMPI PUSH1 0x0 SWAP2 POP POP PUSH2 0xD01 JUMP JUMPDEST PUSH1 0x40 MLOAD PUSH4 0x2B43F033 PUSH1 0xE2 SHL DUP2 MSTORE PUSH1 0x1 PUSH1 0x1 PUSH1 0xA0 SHL SUB DUP3 AND SWAP1 PUSH4 0xAD0FC0CC SWAP1 PUSH2 0x24BF SWAP1 DUP8 SWAP1 DUP8 SWAP1 PUSH1 0x4 ADD PUSH2 0x3AD5 JUMP JUMPDEST PUSH1 0x20 PUSH1 0x40 MLOAD DUP1 DUP4 SUB DUP2 DUP7 GAS STATICCALL ISZERO DUP1 ISZERO PUSH2 0x24DC JUMPI RETURNDATASIZE PUSH1 0x0 DUP1 RETURNDATACOPY RETURNDATASIZE PUSH1 0x0 REVERT JUMPDEST POP POP POP POP PUSH1 0x40 MLOAD RETURNDATASIZE PUSH1 0x1F NOT PUSH1 0x1F DUP3 ADD AND DUP3 ADD DUP1 PUSH1 0x40 MSTORE POP DUP2 ADD SWAP1 PUSH2 0xDBC SWAP2 SWAP1 PUSH2 0x395B JUMP JUMPDEST PUSH1 0x0 PUSH2 0x250C DUP4 DUP4 PUSH2 0x227C JUMP JUMPDEST ISZERO PUSH2 0x2519 JUMPI POP PUSH1 0x0 PUSH2 0xD01 JUMP JUMPDEST PUSH2 0x2523 DUP4 DUP4 PUSH2 0x1F87 JUMP JUMPDEST ISZERO PUSH2 0x2530 JUMPI POP PUSH1 0x1 PUSH2 0xD01 JUMP JUMPDEST PUSH1 0x7 SLOAD PUSH1 0xFF AND ISZERO SWAP4 SWAP3 POP POP POP JUMP JUMPDEST PUSH1 0x0 DUP1 PUSH2 0x254A DUP4 PUSH2 0x14C7 JUMP JUMPDEST PUSH1 0x40 MLOAD PUSH4 0x9AC1B345 PUSH1 0xE0 SHL DUP2 MSTORE PUSH20 0x0 SWAP2 PUSH4 0x9AC1B345 SWAP2 PUSH2 0x2580 SWAP2 SWAP1 PUSH1 0x4 ADD PUSH2 0x3C50 JUMP JUMPDEST PUSH1 0x40 DUP1 MLOAD DUP1 DUP4 SUB DUP2 DUP7 GAS DELEGATECALL ISZERO DUP1 ISZERO PUSH2 0x259C JUMPI RETURNDATASIZE PUSH1 0x0 DUP1 RETURNDATACOPY RETURNDATASIZE PUSH1 0x0 REVERT JUMPDEST POP POP POP POP PUSH1 0x40 MLOAD RETURNDATASIZE PUSH1 0x1F NOT PUSH1 0x1F DUP3 ADD AND DUP3 ADD DUP1 PUSH1 0x40 MSTORE POP DUP2 ADD SWAP1 PUSH2 0xE4A SWAP2 SWAP1 PUSH2 0x407C JUMP JUMPDEST PUSH1 0x40 MLOAD PUSH4 0x2431A7CF PUSH1 0xE0 SHL DUP2 MSTORE PUSH1 0x0 SWAP1 PUSH2 0xD01 SWAP1 PUSH20 0x0 SWAP1 PUSH4 0x2431A7CF SWAP1 PUSH2 0x25FE SWAP1 DUP7 SWAP1 PUSH1 0x4 ADD PUSH2 0x3C50 JUMP JUMPDEST PUSH1 0x0 PUSH1 0x40 MLOAD DUP1 DUP4 SUB DUP2 DUP7 GAS DELEGATECALL ISZERO DUP1 ISZERO PUSH2 0x261B JUMPI RETURNDATASIZE PUSH1 0x0 DUP1 RETURNDATACOPY RETURNDATASIZE PUSH1 0x0 REVERT JUMPDEST POP POP POP POP PUSH1 0x40 MLOAD RETURNDATASIZE PUSH1 0x0 DUP3 RETURNDATACOPY PUSH1 0x1F RETURNDATASIZE SWAP1 DUP2 ADD PUSH1 0x1F NOT AND DUP3 ADD PUSH1 0x40 MSTORE PUSH2 0x809 SWAP2 SWAP1 DUP2 ADD SWAP1 PUSH2 0x40A1 JUMP JUMPDEST PUSH1 0x0 PUSH2 0x104F DUP4 DUP4 PUSH2 0x355F JUMP JUMPDEST PUSH1 0x40 DUP1 MLOAD PUSH1 0x60 DUP2 ADD DUP3 MSTORE PUSH1 0x0 DUP1 DUP3 MSTORE PUSH1 0x20 DUP3 ADD DUP2 SWAP1 MSTORE SWAP2 DUP2 ADD SWAP2 SWAP1 SWAP2 MSTORE PUSH1 0x1 PUSH1 0x1 PUSH1 0xA0 SHL SUB DUP4 AND PUSH2 0x269F JUMPI POP PUSH1 0x40 DUP1 MLOAD PUSH1 0x60 DUP2 ADD DUP3 MSTORE PUSH1 0x11 NOT DUP2 MSTORE PUSH1 0x0 PUSH1 0x20 DUP3 ADD MSTORE PUSH1 0x1 SWAP2 DUP2 ADD SWAP2 SWAP1 SWAP2 MSTORE PUSH2 0xD01 JUMP JUMPDEST PUSH1 0x3 PUSH1 0x0 PUSH20 0x0 PUSH4 0xD5F0B04D DUP7 PUSH1 0x0 PUSH1 0x40 MLOAD DUP4 PUSH4 0xFFFFFFFF AND PUSH1 0xE0 SHL DUP2 MSTORE PUSH1 0x4 ADD PUSH2 0x26DD SWAP3 SWAP2 SWAP1 PUSH2 0x3AD5 JUMP JUMPDEST PUSH1 0x20 PUSH1 0x40 MLOAD DUP1 DUP4 SUB DUP2 DUP7 GAS DELEGATECALL ISZERO DUP1 ISZERO PUSH2 0x26FA JUMPI RETURNDATASIZE PUSH1 0x0 DUP1 RETURNDATACOPY RETURNDATASIZE PUSH1 0x0 REVERT JUMPDEST POP POP POP POP PUSH1 0x40 MLOAD RETURNDATASIZE PUSH1 0x1F NOT PUSH1 0x1F DUP3 ADD AND DUP3 ADD DUP1 PUSH1 0x40 MSTORE POP DUP2 ADD SWAP1 PUSH2 0x271E SWAP2 SWAP1 PUSH2 0x398E JUMP JUMPDEST DUP2 MSTORE PUSH1 0x20 DUP1 DUP3 ADD SWAP3 SWAP1 SWAP3 MSTORE PUSH1 0x40 SWAP1 DUP2 ADD PUSH1 0x0 SWAP1 DUP2 KECCAK256 DUP3 MLOAD PUSH1 0x60 DUP2 ADD DUP5 MSTORE SWAP1 SLOAD SWAP2 DUP3 SWAP1 SIGNEXTEND DUP2 MSTORE PUSH2 0x100 DUP1 DUP4 DIV PUSH1 0xFF AND ISZERO ISZERO SWAP5 DUP3 ADD SWAP5 SWAP1 SWAP5 MSTORE PUSH3 0x10000 SWAP1 SWAP2 DIV PUSH1 0x1 PUSH1 0x1 PUSH1 0x40 SHL SUB DUP2 AND SWAP3 DUP3 ADD SWAP3 SWAP1 SWAP3 MSTORE SWAP3 POP AND ISZERO PUSH2 0xD01 JUMPI PUSH1 0x3 PUSH1 0x0 PUSH20 0x0 PUSH4 0xD5F0B04D DUP7 DUP7 PUSH1 0x40 MLOAD DUP4 PUSH4 0xFFFFFFFF AND PUSH1 0xE0 SHL DUP2 MSTORE PUSH1 0x4 ADD PUSH2 0x27B2 SWAP3 SWAP2 SWAP1 PUSH2 0x3AD5 JUMP JUMPDEST PUSH1 0x20 PUSH1 0x40 MLOAD DUP1 DUP4 SUB DUP2 DUP7 GAS DELEGATECALL ISZERO DUP1 ISZERO PUSH2 0x27CF JUMPI RETURNDATASIZE PUSH1 0x0 DUP1 RETURNDATACOPY RETURNDATASIZE PUSH1 0x0 REVERT JUMPDEST POP POP POP POP PUSH1 0x40 MLOAD RETURNDATASIZE PUSH1 0x1F NOT PUSH1 0x1F DUP3 ADD AND DUP3 ADD DUP1 PUSH1 0x40 MSTORE POP DUP2 ADD SWAP1 PUSH2 0x27F3 SWAP2 SWAP1 PUSH2 0x398E JUMP JUMPDEST DUP2 MSTORE PUSH1 0x20 DUP1 DUP3 ADD SWAP3 SWAP1 SWAP3 MSTORE PUSH1 0x40 SWAP1 DUP2 ADD PUSH1 0x0 SWAP1 DUP2 KECCAK256 DUP3 MLOAD PUSH1 0x60 DUP2 ADD DUP5 MSTORE SWAP1 SLOAD SWAP2 DUP3 SWAP1 SIGNEXTEND DUP2 MSTORE PUSH2 0x100 DUP3 DIV PUSH1 0xFF AND ISZERO ISZERO SWAP4 DUP2 ADD SWAP4 SWAP1 SWAP4 MSTORE PUSH3 0x10000 SWAP1 DIV PUSH1 0x1 PUSH1 0x1 PUSH1 0x40 SHL SUB AND SWAP1 DUP3 ADD MSTORE SWAP4 SWAP3 POP POP POP JUMP JUMPDEST PUSH1 0x0 PUSH2 0x2851 DUP4 PUSH2 0x200 PUSH2 0x28E7 JUMP JUMPDEST PUSH2 0x285D JUMPI POP PUSH1 0x0 PUSH2 0xD01 JUMP JUMPDEST PUSH2 0x2866 DUP4 PUSH2 0xFE4 JUMP JUMPDEST PUSH1 0x40 MLOAD PUSH4 0x1FFC9A7 PUSH1 0xE0 SHL DUP2 MSTORE PUSH1 0x1 PUSH1 0x1 PUSH1 0xE0 SHL SUB NOT DUP5 AND PUSH1 0x4 DUP3 ADD MSTORE PUSH1 0x1 PUSH1 0x1 PUSH1 0xA0 SHL SUB SWAP2 SWAP1 SWAP2 AND SWAP1 PUSH4 0x1FFC9A7 SWAP1 PUSH1 0x24 ADD PUSH1 0x20 PUSH1 0x40 MLOAD DUP1 DUP4 SUB DUP2 DUP7 GAS STATICCALL ISZERO DUP1 ISZERO PUSH2 0x28B6 JUMPI RETURNDATASIZE PUSH1 0x0 DUP1 RETURNDATACOPY RETURNDATASIZE PUSH1 0x0 REVERT JUMPDEST POP POP POP POP PUSH1 0x40 MLOAD RETURNDATASIZE PUSH1 0x1F NOT PUSH1 0x1F DUP3 ADD AND DUP3 ADD DUP1 PUSH1 0x40 MSTORE POP DUP2 ADD SWAP1 PUSH2 0x104F SWAP2 SWAP1 PUSH2 0x395B JUMP JUMPDEST PUSH1 0x0 PUSH2 0xD01 DUP3 PUSH1 0x0 PUSH2 0x15E2 JUMP JUMPDEST PUSH1 0x0 DUP2 PUSH2 0x28F3 DUP5 PUSH2 0xE53 JUMP JUMPDEST AND PUSH1 0x1 PUSH1 0x1 PUSH1 0x40 SHL SUB AND ISZERO ISZERO SWAP4 SWAP3 POP POP POP JUMP JUMPDEST PUSH1 0x0 PUSH1 0x1 PUSH1 0x1 PUSH1 0xA0 SHL SUB DUP4 AND ISZERO DUP1 ISZERO PUSH2 0x291D JUMPI POP DUP2 ISZERO JUMPDEST ISZERO PUSH2 0x2949 JUMPI POP PUSH32 0xAD3228B676F7D3CD4284A5443F17F1962B36E491B30A40B2405849E597BA5FB5 PUSH2 0xD01 JUMP JUMPDEST PUSH1 0x40 MLOAD PUSH4 0xD5F0B04D PUSH1 0xE0 SHL DUP2 MSTORE PUSH20 0x0 SWAP1 PUSH4 0xD5F0B04D SWAP1 PUSH2 0x2982 SWAP1 DUP7 SWAP1 DUP7 SWAP1 PUSH1 0x4 ADD PUSH2 0x3AD5 JUMP JUMPDEST PUSH1 0x20 PUSH1 0x40 MLOAD DUP1 DUP4 SUB DUP2 DUP7 GAS DELEGATECALL ISZERO DUP1 ISZERO PUSH2 0x299F JUMPI RETURNDATASIZE PUSH1 0x0 DUP1 RETURNDATACOPY RETURNDATASIZE PUSH1 0x0 REVERT JUMPDEST POP POP POP POP PUSH1 0x40 MLOAD RETURNDATASIZE PUSH1 0x1F NOT PUSH1 0x1F DUP3 ADD AND DUP3 ADD DUP1 PUSH1 0x40 MSTORE POP DUP2 ADD SWAP1 PUSH2 0x104F SWAP2 SWAP1 PUSH2 0x398E JUMP JUMPDEST PUSH1 0x0 PUSH1 0x0 DUP1 MLOAD PUSH1 0x20 PUSH2 0x41C8 DUP4 CODECOPY DUP2 MLOAD SWAP2 MSTORE DUP3 ADD PUSH2 0x29E5 JUMPI PUSH2 0xD01 PUSH1 0x0 DUP1 PUSH2 0x15E2 JUMP JUMPDEST PUSH2 0x29EE DUP3 PUSH2 0xDD1 JUMP JUMPDEST PUSH2 0x29FA JUMPI POP PUSH1 0x0 SWAP2 SWAP1 POP JUMP JUMPDEST PUSH1 0x0 DUP1 PUSH2 0x2A06 DUP5 PUSH2 0xDF9 JUMP JUMPDEST SWAP2 POP SWAP2 POP PUSH2 0xDBC DUP3 DUP3 PUSH2 0x15E2 JUMP JUMPDEST PUSH1 0x0 PUSH2 0x2A1E PUSH2 0x2B31 JUMP JUMPDEST PUSH2 0xD01 DUP3 PUSH2 0x35B7 JUMP JUMPDEST PUSH1 0x0 PUSH2 0x2A31 PUSH2 0x2B31 JUMP JUMPDEST PUSH2 0xD01 DUP3 PUSH2 0x35EA JUMP JUMPDEST PUSH1 0x0 DUP1 PUSH2 0xE4A DUP4 PUSH2 0x370A JUMP JUMPDEST PUSH1 0x0 PUSH2 0x2A50 PUSH2 0x2B31 JUMP JUMPDEST PUSH2 0x104F DUP4 DUP4 PUSH2 0x378C JUMP JUMPDEST PUSH2 0x2A62 PUSH2 0x325E JUMP JUMPDEST PUSH1 0x1 PUSH1 0x1 PUSH1 0xA0 SHL SUB DUP2 AND PUSH2 0x2AC7 JUMPI PUSH1 0x40 MLOAD PUSH3 0x461BCD PUSH1 0xE5 SHL DUP2 MSTORE PUSH1 0x20 PUSH1 0x4 DUP3 ADD MSTORE PUSH1 0x26 PUSH1 0x24 DUP3 ADD MSTORE PUSH32 0x4F776E61626C653A206E6577206F776E657220697320746865207A65726F2061 PUSH1 0x44 DUP3 ADD MSTORE PUSH6 0x646472657373 PUSH1 0xD0 SHL PUSH1 0x64 DUP3 ADD MSTORE PUSH1 0x84 ADD PUSH2 0xCB6 JUMP JUMPDEST PUSH2 0x2AD0 DUP2 PUSH2 0x32B8 JUMP JUMPDEST POP JUMP JUMPDEST PUSH1 0x40 DUP1 MLOAD PUSH1 0x60 DUP2 ADD DUP3 MSTORE PUSH1 0x0 DUP1 DUP3 MSTORE PUSH1 0x20 DUP3 ADD DUP2 SWAP1 MSTORE SWAP2 DUP2 ADD SWAP2 SWAP1 SWAP2 MSTORE PUSH2 0xD01 DUP3 PUSH1 0x0 PUSH2 0x264F JUMP JUMPDEST PUSH1 0x0 PUSH1 0x1 PUSH1 0x1 PUSH1 0xE0 SHL SUB NOT DUP3 AND PUSH4 0x1FFC9A7 PUSH1 0xE0 SHL EQ DUP1 PUSH2 0xD01 JUMPI POP PUSH1 0x1 PUSH1 0x1 PUSH1 0xE0 SHL SUB NOT DUP3 AND PUSH4 0x2B43F033 PUSH1 0xE2 SHL EQ SWAP3 SWAP2 POP POP JUMP JUMPDEST PUSH1 0x0 SLOAD PUSH1 0x1 PUSH1 0x1 PUSH1 0xA0 SHL SUB AND CALLER EQ DUP1 PUSH2 0x2B4E JUMPI POP PUSH2 0x2B4E CALLER PUSH2 0x1790 JUMP JUMPDEST PUSH2 0xCBF JUMPI PUSH1 0x40 MLOAD PUSH3 0x461BCD PUSH1 0xE5 SHL DUP2 MSTORE PUSH1 0x20 PUSH1 0x4 DUP3 ADD MSTORE PUSH1 0x2D PUSH1 0x24 DUP3 ADD MSTORE PUSH32 0x416C6C6F77616E63653A2063616C6C6572206D757374206265205265706F7369 PUSH1 0x44 DUP3 ADD MSTORE PUSH13 0x3A37B93C9027B832B930BA37B9 PUSH1 0x99 SHL PUSH1 0x64 DUP3 ADD MSTORE PUSH1 0x84 ADD PUSH2 0xCB6 JUMP JUMPDEST PUSH1 0x6 SLOAD PUSH1 0x0 SWAP1 DUP2 JUMPDEST DUP2 DUP2 LT ISZERO PUSH2 0x2C4A JUMPI DUP5 PUSH1 0x1 PUSH1 0x1 PUSH1 0xA0 SHL SUB AND PUSH1 0x6 DUP3 DUP2 SLOAD DUP2 LT PUSH2 0x2BDD JUMPI PUSH2 0x2BDD PUSH2 0x3978 JUMP JUMPDEST PUSH1 0x0 SWAP2 DUP3 MSTORE PUSH1 0x20 SWAP1 SWAP2 KECCAK256 PUSH1 0x2 SWAP1 SWAP2 MUL ADD SLOAD PUSH1 0x1 PUSH1 0x1 PUSH1 0xA0 SHL SUB AND EQ DUP1 ISZERO PUSH2 0x2C28 JUMPI POP PUSH1 0x6 DUP2 DUP2 SLOAD DUP2 LT PUSH2 0x2C12 JUMPI PUSH2 0x2C12 PUSH2 0x3978 JUMP JUMPDEST SWAP1 PUSH1 0x0 MSTORE PUSH1 0x20 PUSH1 0x0 KECCAK256 SWAP1 PUSH1 0x2 MUL ADD PUSH1 0x1 ADD SLOAD PUSH1 0x0 EQ JUMPDEST ISZERO PUSH2 0x2C38 JUMPI PUSH1 0x0 SWAP3 POP POP POP PUSH2 0xD01 JUMP JUMPDEST DUP1 PUSH2 0x2C42 DUP2 PUSH2 0x39E3 JUMP JUMPDEST SWAP2 POP POP PUSH2 0x2BB8 JUMP JUMPDEST POP DUP3 PUSH1 0x0 SUB PUSH2 0x2D0C JUMPI PUSH1 0x0 NOT DUP2 ADD JUMPDEST DUP2 DUP2 LT ISZERO PUSH2 0x2D06 JUMPI DUP5 PUSH1 0x1 PUSH1 0x1 PUSH1 0xA0 SHL SUB AND PUSH1 0x6 DUP3 DUP2 SLOAD DUP2 LT PUSH2 0x2C7E JUMPI PUSH2 0x2C7E PUSH2 0x3978 JUMP JUMPDEST PUSH1 0x0 SWAP2 DUP3 MSTORE PUSH1 0x20 SWAP1 SWAP2 KECCAK256 PUSH1 0x2 SWAP1 SWAP2 MUL ADD SLOAD PUSH1 0x1 PUSH1 0x1 PUSH1 0xA0 SHL SUB AND SUB PUSH2 0x2CFD JUMPI PUSH2 0x2CFB PUSH1 0x6 DUP3 DUP2 SLOAD DUP2 LT PUSH2 0x2CB3 JUMPI PUSH2 0x2CB3 PUSH2 0x3978 JUMP JUMPDEST PUSH1 0x0 SWAP2 DUP3 MSTORE PUSH1 0x20 SWAP1 SWAP2 KECCAK256 PUSH1 0x2 SWAP1 SWAP2 MUL ADD SLOAD PUSH1 0x6 DUP1 SLOAD PUSH1 0x1 PUSH1 0x1 PUSH1 0xA0 SHL SUB SWAP1 SWAP3 AND SWAP2 DUP5 SWAP1 DUP2 LT PUSH2 0x2CE4 JUMPI PUSH2 0x2CE4 PUSH2 0x3978 JUMP JUMPDEST SWAP1 PUSH1 0x0 MSTORE PUSH1 0x20 PUSH1 0x0 KECCAK256 SWAP1 PUSH1 0x2 MUL ADD PUSH1 0x1 ADD SLOAD PUSH2 0x378C JUMP JUMPDEST POP JUMPDEST PUSH1 0x0 NOT ADD PUSH2 0x2C59 JUMP JUMPDEST POP PUSH2 0x2DA2 JUMP JUMPDEST PUSH1 0x0 JUMPDEST DUP2 DUP2 LT ISZERO PUSH2 0x2DA0 JUMPI DUP5 PUSH1 0x1 PUSH1 0x1 PUSH1 0xA0 SHL SUB AND PUSH1 0x6 DUP3 DUP2 SLOAD DUP2 LT PUSH2 0x2D34 JUMPI PUSH2 0x2D34 PUSH2 0x3978 JUMP JUMPDEST PUSH1 0x0 SWAP2 DUP3 MSTORE PUSH1 0x20 SWAP1 SWAP2 KECCAK256 PUSH1 0x2 SWAP1 SWAP2 MUL ADD SLOAD PUSH1 0x1 PUSH1 0x1 PUSH1 0xA0 SHL SUB AND EQ DUP1 ISZERO PUSH2 0x2D7E JUMPI POP DUP4 PUSH1 0x6 DUP3 DUP2 SLOAD DUP2 LT PUSH2 0x2D6A JUMPI PUSH2 0x2D6A PUSH2 0x3978 JUMP JUMPDEST SWAP1 PUSH1 0x0 MSTORE PUSH1 0x20 PUSH1 0x0 KECCAK256 SWAP1 PUSH1 0x2 MUL ADD PUSH1 0x1 ADD SLOAD EQ JUMPDEST ISZERO PUSH2 0x2D8E JUMPI PUSH1 0x0 SWAP3 POP POP POP PUSH2 0xD01 JUMP JUMPDEST DUP1 PUSH2 0x2D98 DUP2 PUSH2 0x39E3 JUMP JUMPDEST SWAP2 POP POP PUSH2 0x2D0F JUMP JUMPDEST POP JUMPDEST PUSH1 0x40 DUP1 MLOAD DUP1 DUP3 ADD SWAP1 SWAP2 MSTORE PUSH1 0x1 PUSH1 0x1 PUSH1 0xA0 SHL SUB DUP6 DUP2 AND DUP3 MSTORE PUSH1 0x20 DUP3 ADD DUP6 DUP2 MSTORE PUSH1 0x6 DUP1 SLOAD PUSH1 0x1 DUP2 ADD DUP3 SSTORE PUSH1 0x0 SWAP2 SWAP1 SWAP2 MSTORE SWAP3 MLOAD PUSH32 0xF652222313E28459528D920B65115C16C04F3EFC82AAEDC97BE59F3F377C0D3F PUSH1 0x2 SWAP1 SWAP5 MUL SWAP4 DUP5 ADD DUP1 SLOAD PUSH1 0x1 PUSH1 0x1 PUSH1 0xA0 SHL SUB NOT AND SWAP2 SWAP1 SWAP4 AND OR SWAP1 SWAP2 SSTORE MLOAD PUSH32 0xF652222313E28459528D920B65115C16C04F3EFC82AAEDC97BE59F3F377C0D40 SWAP1 SWAP2 ADD SSTORE POP PUSH1 0x1 SWAP4 SWAP3 POP POP POP JUMP JUMPDEST PUSH1 0x0 DUP2 MLOAD DUP4 MLOAD EQ PUSH2 0x2E52 JUMPI POP PUSH1 0x0 PUSH2 0xD01 JUMP JUMPDEST PUSH1 0x0 JUMPDEST DUP4 MLOAD DUP2 LT ISZERO PUSH2 0x2EC7 JUMPI DUP3 DUP2 DUP2 MLOAD DUP2 LT PUSH2 0x2E70 JUMPI PUSH2 0x2E70 PUSH2 0x3978 JUMP JUMPDEST PUSH1 0x20 ADD ADD MLOAD PUSH1 0xF8 SHR PUSH1 0xF8 SHL PUSH1 0x1 PUSH1 0x1 PUSH1 0xF8 SHL SUB NOT AND DUP5 DUP3 DUP2 MLOAD DUP2 LT PUSH2 0x2E97 JUMPI PUSH2 0x2E97 PUSH2 0x3978 JUMP JUMPDEST ADD PUSH1 0x20 ADD MLOAD PUSH1 0x1 PUSH1 0x1 PUSH1 0xF8 SHL SUB NOT AND EQ PUSH2 0x2EB5 JUMPI PUSH1 0x0 SWAP2 POP POP PUSH2 0xD01 JUMP JUMPDEST DUP1 PUSH2 0x2EBF DUP2 PUSH2 0x39E3 JUMP JUMPDEST SWAP2 POP POP PUSH2 0x2E55 JUMP JUMPDEST POP PUSH1 0x1 SWAP4 SWAP3 POP POP POP JUMP JUMPDEST PUSH1 0x0 DUP2 DUP2 MSTORE PUSH1 0x8 PUSH1 0x20 MSTORE PUSH1 0x40 DUP2 KECCAK256 DUP1 SLOAD PUSH2 0x2EEA SWAP1 PUSH2 0x3E53 JUMP JUMPDEST ISZERO ISZERO SWAP4 SWAP3 POP POP POP JUMP JUMPDEST PUSH1 0x0 ADDRESS PUSH1 0x1 PUSH1 0x1 PUSH1 0xA0 SHL SUB DUP4 AND SUB PUSH2 0x2F0D JUMPI POP PUSH1 0x1 SWAP2 SWAP1 POP JUMP JUMPDEST PUSH1 0x5 SLOAD JUMPDEST DUP1 ISZERO PUSH2 0x2F73 JUMPI PUSH1 0x1 PUSH1 0x1 PUSH1 0xA0 SHL SUB DUP4 AND PUSH1 0x5 PUSH2 0x2F2E PUSH1 0x1 DUP5 PUSH2 0x4031 JUMP JUMPDEST DUP2 SLOAD DUP2 LT PUSH2 0x2F3E JUMPI PUSH2 0x2F3E PUSH2 0x3978 JUMP JUMPDEST PUSH1 0x0 SWAP2 DUP3 MSTORE PUSH1 0x20 SWAP1 SWAP2 KECCAK256 ADD SLOAD PUSH1 0x1 PUSH1 0x1 PUSH1 0xA0 SHL SUB AND SUB PUSH2 0x2F61 JUMPI POP PUSH1 0x1 SWAP3 SWAP2 POP POP JUMP JUMPDEST DUP1 PUSH2 0x2F6B DUP2 PUSH2 0x4048 JUMP JUMPDEST SWAP2 POP POP PUSH2 0x2F11 JUMP JUMPDEST POP PUSH1 0x0 SWAP3 SWAP2 POP POP JUMP JUMPDEST PUSH1 0x4 SLOAD PUSH1 0x0 SWAP1 JUMPDEST DUP1 ISZERO PUSH2 0x3026 JUMPI PUSH1 0x1 PUSH1 0x1 PUSH1 0xA0 SHL SUB DUP5 AND PUSH1 0x4 PUSH2 0x2FA0 PUSH1 0x1 DUP5 PUSH2 0x4031 JUMP JUMPDEST DUP2 SLOAD DUP2 LT PUSH2 0x2FB0 JUMPI PUSH2 0x2FB0 PUSH2 0x3978 JUMP JUMPDEST PUSH1 0x0 SWAP2 DUP3 MSTORE PUSH1 0x20 SWAP1 SWAP2 KECCAK256 PUSH1 0x2 SWAP1 SWAP2 MUL ADD SLOAD PUSH1 0x1 PUSH1 0x1 PUSH1 0xA0 SHL SUB AND EQ DUP1 ISZERO PUSH2 0x3005 JUMPI POP PUSH1 0x4 PUSH2 0x2FDF PUSH1 0x1 DUP4 PUSH2 0x4031 JUMP JUMPDEST DUP2 SLOAD DUP2 LT PUSH2 0x2FEF JUMPI PUSH2 0x2FEF PUSH2 0x3978 JUMP JUMPDEST SWAP1 PUSH1 0x0 MSTORE PUSH1 0x20 PUSH1 0x0 KECCAK256 SWAP1 PUSH1 0x2 MUL ADD PUSH1 0x1 ADD SLOAD PUSH1 0x0 EQ JUMPDEST ISZERO PUSH2 0x3014 JUMPI PUSH1 0x0 SWAP2 POP POP PUSH2 0xD01 JUMP JUMPDEST DUP1 PUSH2 0x301E DUP2 PUSH2 0x4048 JUMP JUMPDEST SWAP2 POP POP PUSH2 0x2F83 JUMP JUMPDEST POP DUP2 PUSH1 0x0 SUB PUSH2 0x311A JUMPI JUMPDEST PUSH1 0x4 SLOAD JUMPDEST DUP1 ISZERO PUSH2 0x3106 JUMPI PUSH1 0x1 PUSH1 0x1 PUSH1 0xA0 SHL SUB DUP5 AND PUSH1 0x4 PUSH2 0x3051 PUSH1 0x1 DUP5 PUSH2 0x4031 JUMP JUMPDEST DUP2 SLOAD DUP2 LT PUSH2 0x3061 JUMPI PUSH2 0x3061 PUSH2 0x3978 JUMP JUMPDEST PUSH1 0x0 SWAP2 DUP3 MSTORE PUSH1 0x20 SWAP1 SWAP2 KECCAK256 PUSH1 0x2 SWAP1 SWAP2 MUL ADD SLOAD PUSH1 0x1 PUSH1 0x1 PUSH1 0xA0 SHL SUB AND SUB PUSH2 0x30F4 JUMPI PUSH2 0x30EE PUSH1 0x4 PUSH2 0x3090 PUSH1 0x1 DUP5 PUSH2 0x4031 JUMP JUMPDEST DUP2 SLOAD DUP2 LT PUSH2 0x30A0 JUMPI PUSH2 0x30A0 PUSH2 0x3978 JUMP JUMPDEST PUSH1 0x0 SWAP2 DUP3 MSTORE PUSH1 0x20 SWAP1 SWAP2 KECCAK256 PUSH1 0x2 SWAP1 SWAP2 MUL ADD SLOAD PUSH1 0x1 PUSH1 0x1 PUSH1 0xA0 SHL SUB AND PUSH1 0x4 PUSH2 0x30C7 PUSH1 0x1 DUP6 PUSH2 0x4031 JUMP JUMPDEST DUP2 SLOAD DUP2 LT PUSH2 0x30D7 JUMPI PUSH2 0x30D7 PUSH2 0x3978 JUMP JUMPDEST SWAP1 PUSH1 0x0 MSTORE PUSH1 0x20 PUSH1 0x0 KECCAK256 SWAP1 PUSH1 0x2 MUL ADD PUSH1 0x1 ADD SLOAD PUSH2 0x3308 JUMP JUMPDEST POP PUSH2 0x3106 JUMP JUMPDEST DUP1 PUSH2 0x30FE DUP2 PUSH2 0x4048 JUMP JUMPDEST SWAP2 POP POP PUSH2 0x3034 JUMP JUMPDEST DUP1 PUSH1 0x0 SUB PUSH2 0x3114 JUMPI POP PUSH2 0x31C2 JUMP JUMPDEST POP PUSH2 0x3030 JUMP JUMPDEST PUSH1 0x4 SLOAD JUMPDEST DUP1 ISZERO PUSH2 0x31C0 JUMPI PUSH1 0x1 PUSH1 0x1 PUSH1 0xA0 SHL SUB DUP5 AND PUSH1 0x4 PUSH2 0x313B PUSH1 0x1 DUP5 PUSH2 0x4031 JUMP JUMPDEST DUP2 SLOAD DUP2 LT PUSH2 0x314B JUMPI PUSH2 0x314B PUSH2 0x3978 JUMP JUMPDEST PUSH1 0x0 SWAP2 DUP3 MSTORE PUSH1 0x20 SWAP1 SWAP2 KECCAK256 PUSH1 0x2 SWAP1 SWAP2 MUL ADD SLOAD PUSH1 0x1 PUSH1 0x1 PUSH1 0xA0 SHL SUB AND EQ DUP1 ISZERO PUSH2 0x319F JUMPI POP DUP3 PUSH1 0x4 PUSH2 0x317B PUSH1 0x1 DUP5 PUSH2 0x4031 JUMP JUMPDEST DUP2 SLOAD DUP2 LT PUSH2 0x318B JUMPI PUSH2 0x318B PUSH2 0x3978 JUMP JUMPDEST SWAP1 PUSH1 0x0 MSTORE PUSH1 0x20 PUSH1 0x0 KECCAK256 SWAP1 PUSH1 0x2 MUL ADD PUSH1 0x1 ADD SLOAD EQ JUMPDEST ISZERO PUSH2 0x31AE JUMPI PUSH1 0x0 SWAP2 POP POP PUSH2 0xD01 JUMP JUMPDEST DUP1 PUSH2 0x31B8 DUP2 PUSH2 0x4048 JUMP JUMPDEST SWAP2 POP POP PUSH2 0x311E JUMP JUMPDEST POP JUMPDEST PUSH1 0x40 DUP1 MLOAD DUP1 DUP3 ADD SWAP1 SWAP2 MSTORE PUSH1 0x1 PUSH1 0x1 PUSH1 0xA0 SHL SUB DUP5 DUP2 AND DUP3 MSTORE PUSH1 0x20 DUP3 ADD DUP5 DUP2 MSTORE PUSH1 0x4 DUP1 SLOAD PUSH1 0x1 DUP2 ADD DUP3 SSTORE PUSH1 0x0 SWAP2 SWAP1 SWAP2 MSTORE SWAP3 MLOAD PUSH32 0x8A35ACFBC15FF81A39AE7D344FD709F28E8600B4AA8C65C6B64BFE7FE36BD19B PUSH1 0x2 SWAP1 SWAP5 MUL SWAP4 DUP5 ADD DUP1 SLOAD PUSH1 0x1 PUSH1 0x1 PUSH1 0xA0 SHL SUB NOT AND SWAP2 SWAP1 SWAP4 AND OR SWAP1 SWAP2 SSTORE MLOAD PUSH32 0x8A35ACFBC15FF81A39AE7D344FD709F28E8600B4AA8C65C6B64BFE7FE36BD19C SWAP1 SWAP2 ADD SSTORE POP PUSH1 0x1 SWAP3 SWAP2 POP POP JUMP JUMPDEST PUSH1 0x0 SLOAD PUSH1 0x1 PUSH1 0x1 PUSH1 0xA0 SHL SUB AND CALLER EQ PUSH2 0xCBF JUMPI PUSH1 0x40 MLOAD PUSH3 0x461BCD PUSH1 0xE5 SHL DUP2 MSTORE PUSH1 0x20 PUSH1 0x4 DUP3 ADD MSTORE PUSH1 0x1F PUSH1 0x24 DUP3 ADD MSTORE PUSH32 0x416C6C6F77616E63653A2063616C6C6572206D757374206265204F776E657200 PUSH1 0x44 DUP3 ADD MSTORE PUSH1 0x64 ADD PUSH2 0xCB6 JUMP JUMPDEST PUSH1 0x0 DUP1 SLOAD PUSH1 0x1 PUSH1 0x1 PUSH1 0xA0 SHL SUB DUP4 DUP2 AND PUSH1 0x1 PUSH1 0x1 PUSH1 0xA0 SHL SUB NOT DUP4 AND DUP2 OR DUP5 SSTORE PUSH1 0x40 MLOAD SWAP2 SWAP1 SWAP3 AND SWAP3 DUP4 SWAP2 PUSH32 0x8BE0079C531659141344CD1FD0A4F28419497F9722A3DAAFE3B4186F6B6457E0 SWAP2 SWAP1 LOG3 POP POP JUMP JUMPDEST PUSH1 0x4 SLOAD PUSH1 0x0 SWAP1 DUP2 JUMPDEST DUP2 DUP2 LT ISZERO PUSH2 0x2383 JUMPI DUP5 PUSH1 0x1 PUSH1 0x1 PUSH1 0xA0 SHL SUB AND PUSH1 0x4 DUP3 DUP2 SLOAD DUP2 LT PUSH2 0x3335 JUMPI PUSH2 0x3335 PUSH2 0x3978 JUMP JUMPDEST PUSH1 0x0 SWAP2 DUP3 MSTORE PUSH1 0x20 SWAP1 SWAP2 KECCAK256 PUSH1 0x2 SWAP1 SWAP2 MUL ADD SLOAD PUSH1 0x1 PUSH1 0x1 PUSH1 0xA0 SHL SUB AND EQ DUP1 ISZERO PUSH2 0x337F JUMPI POP DUP4 PUSH1 0x4 DUP3 DUP2 SLOAD DUP2 LT PUSH2 0x336B JUMPI PUSH2 0x336B PUSH2 0x3978 JUMP JUMPDEST SWAP1 PUSH1 0x0 MSTORE PUSH1 0x20 PUSH1 0x0 KECCAK256 SWAP1 PUSH1 0x2 MUL ADD PUSH1 0x1 ADD SLOAD EQ JUMPDEST ISZERO PUSH2 0x3452 JUMPI PUSH2 0x338F PUSH1 0x1 DUP4 PUSH2 0x4031 JUMP JUMPDEST DUP2 LT ISZERO PUSH2 0x340D JUMPI PUSH1 0x4 PUSH2 0x33A3 PUSH1 0x1 DUP5 PUSH2 0x4031 JUMP JUMPDEST DUP2 SLOAD DUP2 LT PUSH2 0x33B3 JUMPI PUSH2 0x33B3 PUSH2 0x3978 JUMP JUMPDEST SWAP1 PUSH1 0x0 MSTORE PUSH1 0x20 PUSH1 0x0 KECCAK256 SWAP1 PUSH1 0x2 MUL ADD PUSH1 0x4 DUP3 DUP2 SLOAD DUP2 LT PUSH2 0x33D4 JUMPI PUSH2 0x33D4 PUSH2 0x3978 JUMP JUMPDEST PUSH1 0x0 SWAP2 DUP3 MSTORE PUSH1 0x20 SWAP1 SWAP2 KECCAK256 DUP3 SLOAD PUSH1 0x2 SWAP1 SWAP3 MUL ADD DUP1 SLOAD PUSH1 0x1 PUSH1 0x1 PUSH1 0xA0 SHL SUB NOT AND PUSH1 0x1 PUSH1 0x1 PUSH1 0xA0 SHL SUB SWAP1 SWAP3 AND SWAP2 SWAP1 SWAP2 OR DUP2 SSTORE PUSH1 0x1 SWAP2 DUP3 ADD SLOAD SWAP2 ADD SSTORE JUMPDEST PUSH1 0x4 DUP1 SLOAD DUP1 PUSH2 0x341E JUMPI PUSH2 0x341E PUSH2 0x4117 JUMP JUMPDEST PUSH1 0x0 DUP3 DUP2 MSTORE PUSH1 0x20 DUP2 KECCAK256 PUSH1 0x2 PUSH1 0x0 NOT SWAP1 SWAP4 ADD SWAP3 DUP4 MUL ADD DUP1 SLOAD PUSH1 0x1 PUSH1 0x1 PUSH1 0xA0 SHL SUB NOT AND DUP2 SSTORE PUSH1 0x1 ADD SSTORE SWAP1 SSTORE PUSH1 0x1 SWAP3 POP POP POP PUSH2 0xD01 JUMP JUMPDEST DUP1 PUSH2 0x345C DUP2 PUSH2 0x39E3 JUMP JUMPDEST SWAP2 POP POP PUSH2 0x3310 JUMP JUMPDEST PUSH1 0x5 SLOAD PUSH1 0x0 SWAP1 JUMPDEST DUP1 ISZERO PUSH2 0x34CD JUMPI PUSH1 0x1 PUSH1 0x1 PUSH1 0xA0 SHL SUB DUP4 AND PUSH1 0x5 PUSH2 0x3488 PUSH1 0x1 DUP5 PUSH2 0x4031 JUMP JUMPDEST DUP2 SLOAD DUP2 LT PUSH2 0x3498 JUMPI PUSH2 0x3498 PUSH2 0x3978 JUMP JUMPDEST PUSH1 0x0 SWAP2 DUP3 MSTORE PUSH1 0x20 SWAP1 SWAP2 KECCAK256 ADD SLOAD PUSH1 0x1 PUSH1 0x1 PUSH1 0xA0 SHL SUB AND SUB PUSH2 0x34BB JUMPI POP PUSH1 0x0 SWAP3 SWAP2 POP POP JUMP JUMPDEST DUP1 PUSH2 0x34C5 DUP2 PUSH2 0x4048 JUMP JUMPDEST SWAP2 POP POP PUSH2 0x346B JUMP JUMPDEST PUSH1 0x5 DUP1 SLOAD PUSH1 0x1 DUP2 ADD DUP3 SSTORE PUSH1 0x0 SWAP2 SWAP1 SWAP2 MSTORE PUSH32 0x36B6384B5ECA791C62761152D0C79BB0604C104A5FB6F4EB0703F3154BB3DB0 ADD DUP1 SLOAD PUSH1 0x1 PUSH1 0x1 PUSH1 0xA0 SHL SUB NOT AND PUSH1 0x1 PUSH1 0x1 PUSH1 0xA0 SHL SUB DUP6 AND OR SWAP1 SSTORE POP PUSH1 0x1 SWAP3 SWAP2 POP POP JUMP JUMPDEST PUSH1 0x0 PUSH2 0x104F PUSH20 0x0 PUSH4 0xDE874ED DUP6 DUP6 PUSH1 0x40 MLOAD DUP4 PUSH4 0xFFFFFFFF AND PUSH1 0xE0 SHL DUP2 MSTORE PUSH1 0x4 ADD PUSH2 0x1659 SWAP3 SWAP2 SWAP1 PUSH2 0x3AD5 JUMP JUMPDEST PUSH1 0x0 PUSH1 0x1 PUSH1 0x1 PUSH1 0xA0 SHL SUB DUP4 AND PUSH2 0x3577 JUMPI POP PUSH1 0x1 PUSH2 0xD01 JUMP JUMPDEST PUSH20 0x0 PUSH4 0x3646B548 PUSH2 0x359B DUP6 DUP6 PUSH2 0x264F JUMP JUMPDEST PUSH1 0x40 MLOAD DUP3 PUSH4 0xFFFFFFFF AND PUSH1 0xE0 SHL DUP2 MSTORE PUSH1 0x4 ADD PUSH2 0x2982 SWAP2 SWAP1 PUSH2 0x3A89 JUMP JUMPDEST PUSH1 0x7 SLOAD PUSH1 0x0 SWAP1 DUP3 ISZERO ISZERO PUSH1 0xFF SWAP1 SWAP2 AND ISZERO ISZERO SUB PUSH2 0x35D4 JUMPI POP PUSH1 0x0 SWAP2 SWAP1 POP JUMP JUMPDEST PUSH1 0x7 DUP1 SLOAD PUSH1 0xFF NOT AND DUP4 ISZERO ISZERO OR SWAP1 SSTORE POP PUSH1 0x1 SWAP2 SWAP1 POP JUMP JUMPDEST PUSH1 0x5 SLOAD PUSH1 0x0 SWAP1 DUP2 JUMPDEST DUP2 DUP2 LT ISZERO PUSH2 0x20B2 JUMPI DUP4 PUSH1 0x1 PUSH1 0x1 PUSH1 0xA0 SHL SUB AND PUSH1 0x5 DUP3 DUP2 SLOAD DUP2 LT PUSH2 0x3617 JUMPI PUSH2 0x3617 PUSH2 0x3978 JUMP JUMPDEST PUSH1 0x0 SWAP2 DUP3 MSTORE PUSH1 0x20 SWAP1 SWAP2 KECCAK256 ADD SLOAD PUSH1 0x1 PUSH1 0x1 PUSH1 0xA0 SHL SUB AND SUB PUSH2 0x36F8 JUMPI PUSH2 0x363C PUSH1 0x1 DUP4 PUSH2 0x4031 JUMP JUMPDEST DUP2 LT ISZERO PUSH2 0x36BB JUMPI PUSH1 0x5 PUSH2 0x3650 PUSH1 0x1 DUP5 PUSH2 0x4031 JUMP JUMPDEST DUP2 SLOAD DUP2 LT PUSH2 0x3660 JUMPI PUSH2 0x3660 PUSH2 0x3978 JUMP JUMPDEST PUSH1 0x0 SWAP2 DUP3 MSTORE PUSH1 0x20 SWAP1 SWAP2 KECCAK256 ADD SLOAD PUSH1 0x5 DUP1 SLOAD PUSH1 0x1 PUSH1 0x1 PUSH1 0xA0 SHL SUB SWAP1 SWAP3 AND SWAP2 DUP4 SWAP1 DUP2 LT PUSH2 0x368C JUMPI PUSH2 0x368C PUSH2 0x3978 JUMP JUMPDEST SWAP1 PUSH1 0x0 MSTORE PUSH1 0x20 PUSH1 0x0 KECCAK256 ADD PUSH1 0x0 PUSH2 0x100 EXP DUP2 SLOAD DUP2 PUSH1 0x1 PUSH1 0x1 PUSH1 0xA0 SHL SUB MUL NOT AND SWAP1 DUP4 PUSH1 0x1 PUSH1 0x1 PUSH1 0xA0 SHL SUB AND MUL OR SWAP1 SSTORE POP JUMPDEST PUSH1 0x5 DUP1 SLOAD DUP1 PUSH2 0x36CC JUMPI PUSH2 0x36CC PUSH2 0x4117 JUMP JUMPDEST PUSH1 0x0 DUP3 DUP2 MSTORE PUSH1 0x20 SWAP1 KECCAK256 DUP2 ADD PUSH1 0x0 NOT SWAP1 DUP2 ADD DUP1 SLOAD PUSH1 0x1 PUSH1 0x1 PUSH1 0xA0 SHL SUB NOT AND SWAP1 SSTORE ADD SWAP1 SSTORE POP PUSH1 0x1 SWAP4 SWAP3 POP POP POP JUMP JUMPDEST DUP1 PUSH2 0x3702 DUP2 PUSH2 0x39E3 JUMP JUMPDEST SWAP2 POP POP PUSH2 0x35F2 JUMP JUMPDEST PUSH1 0x0 DUP1 PUSH2 0x3716 DUP4 PUSH2 0x14C7 JUMP JUMPDEST PUSH1 0x40 MLOAD PUSH4 0x14130A79 PUSH1 0xE3 SHL DUP2 MSTORE PUSH20 0x0 SWAP2 PUSH4 0xA09853C8 SWAP2 PUSH2 0x374C SWAP2 SWAP1 PUSH1 0x4 ADD PUSH2 0x3C50 JUMP JUMPDEST PUSH1 0x40 DUP1 MLOAD DUP1 DUP4 SUB DUP2 DUP7 GAS DELEGATECALL ISZERO DUP1 ISZERO PUSH2 0x3768 JUMPI RETURNDATASIZE PUSH1 0x0 DUP1 RETURNDATACOPY RETURNDATASIZE PUSH1 0x0 REVERT JUMPDEST POP POP POP POP PUSH1 0x40 MLOAD RETURNDATASIZE PUSH1 0x1F NOT PUSH1 0x1F DUP3 ADD AND DUP3 ADD DUP1 PUSH1 0x40 MSTORE POP DUP2 ADD SWAP1 PUSH2 0xE4A SWAP2 SWAP1 PUSH2 0x412D JUMP JUMPDEST PUSH1 0x6 SLOAD PUSH1 0x0 SWAP1 DUP2 JUMPDEST DUP2 DUP2 LT ISZERO PUSH2 0x2383 JUMPI DUP5 PUSH1 0x1 PUSH1 0x1 PUSH1 0xA0 SHL SUB AND PUSH1 0x6 DUP3 DUP2 SLOAD DUP2 LT PUSH2 0x37B9 JUMPI PUSH2 0x37B9 PUSH2 0x3978 JUMP JUMPDEST PUSH1 0x0 SWAP2 DUP3 MSTORE PUSH1 0x20 SWAP1 SWAP2 KECCAK256 PUSH1 0x2 SWAP1 SWAP2 MUL ADD SLOAD PUSH1 0x1 PUSH1 0x1 PUSH1 0xA0 SHL SUB AND EQ DUP1 ISZERO PUSH2 0x3803 JUMPI POP DUP4 PUSH1 0x6 DUP3 DUP2 SLOAD DUP2 LT PUSH2 0x37EF JUMPI PUSH2 0x37EF PUSH2 0x3978 JUMP JUMPDEST SWAP1 PUSH1 0x0 MSTORE PUSH1 0x20 PUSH1 0x0 KECCAK256 SWAP1 PUSH1 0x2 MUL ADD PUSH1 0x1 ADD SLOAD EQ JUMPDEST ISZERO PUSH2 0x38A2 JUMPI PUSH2 0x3813 PUSH1 0x1 DUP4 PUSH2 0x4031 JUMP JUMPDEST DUP2 LT ISZERO PUSH2 0x3891 JUMPI PUSH1 0x6 PUSH2 0x3827 PUSH1 0x1 DUP5 PUSH2 0x4031 JUMP JUMPDEST DUP2 SLOAD DUP2 LT PUSH2 0x3837 JUMPI PUSH2 0x3837 PUSH2 0x3978 JUMP JUMPDEST SWAP1 PUSH1 0x0 MSTORE PUSH1 0x20 PUSH1 0x0 KECCAK256 SWAP1 PUSH1 0x2 MUL ADD PUSH1 0x6 DUP3 DUP2 SLOAD DUP2 LT PUSH2 0x3858 JUMPI PUSH2 0x3858 PUSH2 0x3978 JUMP JUMPDEST PUSH1 0x0 SWAP2 DUP3 MSTORE PUSH1 0x20 SWAP1 SWAP2 KECCAK256 DUP3 SLOAD PUSH1 0x2 SWAP1 SWAP3 MUL ADD DUP1 SLOAD PUSH1 0x1 PUSH1 0x1 PUSH1 0xA0 SHL SUB NOT AND PUSH1 0x1 PUSH1 0x1 PUSH1 0xA0 SHL SUB SWAP1 SWAP3 AND SWAP2 SWAP1 SWAP2 OR DUP2 SSTORE PUSH1 0x1 SWAP2 DUP3 ADD SLOAD SWAP2 ADD SSTORE JUMPDEST PUSH1 0x6 DUP1 SLOAD DUP1 PUSH2 0x341E JUMPI PUSH2 0x341E PUSH2 0x4117 JUMP JUMPDEST DUP1 PUSH2 0x38AC DUP2 PUSH2 0x39E3 JUMP JUMPDEST SWAP2 POP POP PUSH2 0x3794 JUMP JUMPDEST DUP3 DUP1 SLOAD PUSH2 0x38C0 SWAP1 PUSH2 0x3E53 JUMP JUMPDEST SWAP1 PUSH1 0x0 MSTORE PUSH1 0x20 PUSH1 0x0 KECCAK256 SWAP1 PUSH1 0x1F ADD PUSH1 0x20 SWAP1 DIV DUP2 ADD SWAP3 DUP3 PUSH2 0x38E2 JUMPI PUSH1 0x0 DUP6 SSTORE PUSH2 0x3928 JUMP JUMPDEST DUP3 PUSH1 0x1F LT PUSH2 0x38FB JUMPI DUP1 MLOAD PUSH1 0xFF NOT AND DUP4 DUP1 ADD OR DUP6 SSTORE PUSH2 0x3928 JUMP JUMPDEST DUP3 DUP1 ADD PUSH1 0x1 ADD DUP6 SSTORE DUP3 ISZERO PUSH2 0x3928 JUMPI SWAP2 DUP3 ADD JUMPDEST DUP3 DUP2 GT ISZERO PUSH2 0x3928 JUMPI DUP3 MLOAD DUP3 SSTORE SWAP2 PUSH1 0x20 ADD SWAP2 SWAP1 PUSH1 0x1 ADD SWAP1 PUSH2 0x390D JUMP JUMPDEST POP PUSH2 0x3934 SWAP3 SWAP2 POP PUSH2 0x3938 JUMP JUMPDEST POP SWAP1 JUMP JUMPDEST JUMPDEST DUP1 DUP3 GT ISZERO PUSH2 0x3934 JUMPI PUSH1 0x0 DUP2 SSTORE PUSH1 0x1 ADD PUSH2 0x3939 JUMP JUMPDEST DUP1 ISZERO ISZERO DUP2 EQ PUSH2 0x2AD0 JUMPI PUSH1 0x0 DUP1 REVERT JUMPDEST PUSH1 0x0 PUSH1 0x20 DUP3 DUP5 SUB SLT ISZERO PUSH2 0x396D JUMPI PUSH1 0x0 DUP1 REVERT JUMPDEST DUP2 MLOAD PUSH2 0x104F DUP2 PUSH2 0x394D JUMP JUMPDEST PUSH4 0x4E487B71 PUSH1 0xE0 SHL PUSH1 0x0 MSTORE PUSH1 0x32 PUSH1 0x4 MSTORE PUSH1 0x24 PUSH1 0x0 REVERT JUMPDEST PUSH1 0x0 PUSH1 0x20 DUP3 DUP5 SUB SLT ISZERO PUSH2 0x39A0 JUMPI PUSH1 0x0 DUP1 REVERT JUMPDEST POP MLOAD SWAP2 SWAP1 POP JUMP JUMPDEST PUSH4 0x4E487B71 PUSH1 0xE0 SHL PUSH1 0x0 MSTORE PUSH1 0x21 PUSH1 0x4 MSTORE PUSH1 0x24 PUSH1 0x0 REVERT JUMPDEST DUP2 DUP4 DUP3 CALLDATACOPY PUSH1 0x0 SWAP2 ADD SWAP1 DUP2 MSTORE SWAP2 SWAP1 POP JUMP JUMPDEST PUSH4 0x4E487B71 PUSH1 0xE0 SHL PUSH1 0x0 MSTORE PUSH1 0x11 PUSH1 0x4 MSTORE PUSH1 0x24 PUSH1 0x0 REVERT JUMPDEST PUSH1 0x0 PUSH1 0x1 DUP3 ADD PUSH2 0x39F5 JUMPI PUSH2 0x39F5 PUSH2 0x39CD JUMP JUMPDEST POP PUSH1 0x1 ADD SWAP1 JUMP JUMPDEST DUP1 CALLDATALOAD PUSH1 0x1 PUSH1 0x1 PUSH1 0xE0 SHL SUB NOT DUP2 AND DUP2 EQ PUSH2 0x14C2 JUMPI PUSH1 0x0 DUP1 REVERT JUMPDEST PUSH1 0x0 PUSH1 0x20 DUP3 DUP5 SUB SLT ISZERO PUSH2 0x3A26 JUMPI PUSH1 0x0 DUP1 REVERT JUMPDEST PUSH2 0x104F DUP3 PUSH2 0x39FC JUMP JUMPDEST PUSH1 0x1 PUSH1 0x1 PUSH1 0xA0 SHL SUB DUP2 AND DUP2 EQ PUSH2 0x2AD0 JUMPI PUSH1 0x0 DUP1 REVERT JUMPDEST PUSH1 0x0 DUP1 PUSH1 0x40 DUP4 DUP6 SUB SLT ISZERO PUSH2 0x3A57 JUMPI PUSH1 0x0 DUP1 REVERT JUMPDEST DUP3 CALLDATALOAD PUSH2 0x3A62 DUP2 PUSH2 0x3A2F JUMP JUMPDEST SWAP5 PUSH1 0x20 SWAP4 SWAP1 SWAP4 ADD CALLDATALOAD SWAP4 POP POP POP JUMP JUMPDEST PUSH1 0x0 PUSH1 0x20 DUP3 DUP5 SUB SLT ISZERO PUSH2 0x3A82 JUMPI PUSH1 0x0 DUP1 REVERT JUMPDEST POP CALLDATALOAD SWAP2 SWAP1 POP JUMP JUMPDEST DUP2 MLOAD PUSH1 0x0 SIGNEXTEND DUP2 MSTORE PUSH1 0x20 DUP1 DUP4 ADD MLOAD ISZERO ISZERO SWAP1 DUP3 ADD MSTORE PUSH1 0x40 DUP1 DUP4 ADD MLOAD PUSH1 0x1 PUSH1 0x1 PUSH1 0x40 SHL SUB AND SWAP1 DUP3 ADD MSTORE PUSH1 0x60 DUP2 ADD PUSH2 0xD01 JUMP JUMPDEST PUSH1 0x0 PUSH1 0x20 DUP3 DUP5 SUB SLT ISZERO PUSH2 0x3ACA JUMPI PUSH1 0x0 DUP1 REVERT JUMPDEST DUP2 CALLDATALOAD PUSH2 0x104F DUP2 PUSH2 0x3A2F JUMP JUMPDEST PUSH1 0x1 PUSH1 0x1 PUSH1 0xA0 SHL SUB SWAP3 SWAP1 SWAP3 AND DUP3 MSTORE PUSH1 0x20 DUP3 ADD MSTORE PUSH1 0x40 ADD SWAP1 JUMP JUMPDEST PUSH1 0x0 JUMPDEST DUP4 DUP2 LT ISZERO PUSH2 0x3B09 JUMPI DUP2 DUP2 ADD MLOAD DUP4 DUP3 ADD MSTORE PUSH1 0x20 ADD PUSH2 0x3AF1 JUMP JUMPDEST DUP4 DUP2 GT ISZERO PUSH2 0x3B18 JUMPI PUSH1 0x0 DUP5 DUP5 ADD MSTORE JUMPDEST POP POP POP POP JUMP JUMPDEST PUSH1 0x0 DUP2 MLOAD DUP1 DUP5 MSTORE PUSH2 0x3B36 DUP2 PUSH1 0x20 DUP7 ADD PUSH1 0x20 DUP7 ADD PUSH2 0x3AEE JUMP JUMPDEST PUSH1 0x1F ADD PUSH1 0x1F NOT AND SWAP3 SWAP1 SWAP3 ADD PUSH1 0x20 ADD SWAP3 SWAP2 POP POP JUMP JUMPDEST PUSH1 0x20 DUP2 MSTORE PUSH1 0x0 PUSH2 0x104F PUSH1 0x20 DUP4 ADD DUP5 PUSH2 0x3B1E JUMP JUMPDEST PUSH4 0x4E487B71 PUSH1 0xE0 SHL PUSH1 0x0 MSTORE PUSH1 0x41 PUSH1 0x4 MSTORE PUSH1 0x24 PUSH1 0x0 REVERT JUMPDEST PUSH1 0x40 MLOAD PUSH1 0x1F DUP3 ADD PUSH1 0x1F NOT AND DUP2 ADD PUSH1 0x1 PUSH1 0x1 PUSH1 0x40 SHL SUB DUP2 GT DUP3 DUP3 LT OR ISZERO PUSH2 0x3B9B JUMPI PUSH2 0x3B9B PUSH2 0x3B5D JUMP JUMPDEST PUSH1 0x40 MSTORE SWAP2 SWAP1 POP JUMP JUMPDEST PUSH1 0x0 PUSH1 0x1 PUSH1 0x1 PUSH1 0x40 SHL SUB DUP3 GT ISZERO PUSH2 0x3BBC JUMPI PUSH2 0x3BBC PUSH2 0x3B5D JUMP JUMPDEST POP PUSH1 0x1F ADD PUSH1 0x1F NOT AND PUSH1 0x20 ADD SWAP1 JUMP JUMPDEST PUSH1 0x0 PUSH2 0x3BDD PUSH2 0x3BD8 DUP5 PUSH2 0x3BA3 JUMP JUMPDEST PUSH2 0x3B73 JUMP JUMPDEST SWAP1 POP DUP3 DUP2 MSTORE DUP4 DUP4 DUP4 ADD GT ISZERO PUSH2 0x3BF1 JUMPI PUSH1 0x0 DUP1 REVERT JUMPDEST DUP3 DUP3 PUSH1 0x20 DUP4 ADD CALLDATACOPY PUSH1 0x0 PUSH1 0x20 DUP5 DUP4 ADD ADD MSTORE SWAP4 SWAP3 POP POP POP JUMP JUMPDEST PUSH1 0x0 PUSH1 0x20 DUP3 DUP5 SUB SLT ISZERO PUSH2 0x3C1A JUMPI PUSH1 0x0 DUP1 REVERT JUMPDEST DUP2 CALLDATALOAD PUSH1 0x1 PUSH1 0x1 PUSH1 0x40 SHL SUB DUP2 GT ISZERO PUSH2 0x3C30 JUMPI PUSH1 0x0 DUP1 REVERT JUMPDEST DUP3 ADD PUSH1 0x1F DUP2 ADD DUP5 SGT PUSH2 0x3C41 JUMPI PUSH1 0x0 DUP1 REVERT JUMPDEST PUSH2 0xDBC DUP5 DUP3 CALLDATALOAD PUSH1 0x20 DUP5 ADD PUSH2 0x3BCA JUMP JUMPDEST PUSH1 0x20 DUP1 DUP3 MSTORE DUP3 MLOAD DUP3 DUP3 ADD DUP2 SWAP1 MSTORE PUSH1 0x0 SWAP2 SWAP1 DUP5 DUP3 ADD SWAP1 PUSH1 0x40 DUP6 ADD SWAP1 DUP5 JUMPDEST DUP2 DUP2 LT ISZERO PUSH2 0x3C88 JUMPI DUP4 MLOAD DUP4 MSTORE SWAP3 DUP5 ADD SWAP3 SWAP2 DUP5 ADD SWAP2 PUSH1 0x1 ADD PUSH2 0x3C6C JUMP JUMPDEST POP SWAP1 SWAP7 SWAP6 POP POP POP POP POP POP JUMP JUMPDEST PUSH1 0x0 DUP1 PUSH1 0x40 DUP4 DUP6 SUB SLT ISZERO PUSH2 0x3CA7 JUMPI PUSH1 0x0 DUP1 REVERT JUMPDEST DUP3 CALLDATALOAD SWAP2 POP PUSH1 0x20 DUP4 ADD CALLDATALOAD PUSH2 0x3CB9 DUP2 PUSH2 0x3A2F JUMP JUMPDEST DUP1 SWAP2 POP POP SWAP3 POP SWAP3 SWAP1 POP JUMP JUMPDEST PUSH1 0x0 DUP1 PUSH1 0x40 DUP4 DUP6 SUB SLT ISZERO PUSH2 0x3CD7 JUMPI PUSH1 0x0 DUP1 REVERT JUMPDEST POP POP DUP1 CALLDATALOAD SWAP3 PUSH1 0x20 SWAP1 SWAP2 ADD CALLDATALOAD SWAP2 POP JUMP JUMPDEST PUSH1 0x1 PUSH1 0x1 PUSH1 0x40 SHL SUB DUP2 AND DUP2 EQ PUSH2 0x2AD0 JUMPI PUSH1 0x0 DUP1 REVERT JUMPDEST PUSH1 0x0 DUP1 PUSH1 0x40 DUP4 DUP6 SUB SLT ISZERO PUSH2 0x3D0E JUMPI PUSH1 0x0 DUP1 REVERT JUMPDEST DUP3 CALLDATALOAD SWAP2 POP PUSH1 0x20 DUP4 ADD CALLDATALOAD PUSH2 0x3CB9 DUP2 PUSH2 0x3CE6 JUMP JUMPDEST PUSH1 0x0 PUSH1 0x1 PUSH1 0x1 PUSH1 0x40 SHL SUB DUP3 GT ISZERO PUSH2 0x3D39 JUMPI PUSH2 0x3D39 PUSH2 0x3B5D JUMP JUMPDEST POP PUSH1 0x5 SHL PUSH1 0x20 ADD SWAP1 JUMP JUMPDEST PUSH1 0x0 PUSH1 0x20 DUP1 DUP4 DUP6 SUB SLT ISZERO PUSH2 0x3D56 JUMPI PUSH1 0x0 DUP1 REVERT JUMPDEST DUP3 CALLDATALOAD PUSH1 0x1 PUSH1 0x1 PUSH1 0x40 SHL SUB DUP2 GT ISZERO PUSH2 0x3D6C JUMPI PUSH1 0x0 DUP1 REVERT JUMPDEST DUP4 ADD PUSH1 0x1F DUP2 ADD DUP6 SGT PUSH2 0x3D7D JUMPI PUSH1 0x0 DUP1 REVERT JUMPDEST DUP1 CALLDATALOAD PUSH2 0x3D8B PUSH2 0x3BD8 DUP3 PUSH2 0x3D20 JUMP JUMPDEST DUP2 DUP2 MSTORE PUSH1 0x5 SWAP2 SWAP1 SWAP2 SHL DUP3 ADD DUP4 ADD SWAP1 DUP4 DUP2 ADD SWAP1 DUP8 DUP4 GT ISZERO PUSH2 0x3DAA JUMPI PUSH1 0x0 DUP1 REVERT JUMPDEST SWAP3 DUP5 ADD SWAP3 JUMPDEST DUP3 DUP5 LT ISZERO PUSH2 0x3DC8 JUMPI DUP4 CALLDATALOAD DUP3 MSTORE SWAP3 DUP5 ADD SWAP3 SWAP1 DUP5 ADD SWAP1 PUSH2 0x3DAF JUMP JUMPDEST SWAP8 SWAP7 POP POP POP POP POP POP POP JUMP JUMPDEST PUSH1 0x0 DUP1 PUSH1 0x40 DUP4 DUP6 SUB SLT ISZERO PUSH2 0x3DE6 JUMPI PUSH1 0x0 DUP1 REVERT JUMPDEST DUP3 CALLDATALOAD SWAP2 POP PUSH2 0x3DF6 PUSH1 0x20 DUP5 ADD PUSH2 0x39FC JUMP JUMPDEST SWAP1 POP SWAP3 POP SWAP3 SWAP1 POP JUMP JUMPDEST PUSH1 0x0 PUSH1 0x20 DUP3 DUP5 SUB SLT ISZERO PUSH2 0x3E11 JUMPI PUSH1 0x0 DUP1 REVERT JUMPDEST DUP2 CALLDATALOAD PUSH2 0x104F DUP2 PUSH2 0x394D JUMP JUMPDEST PUSH1 0x20 DUP1 DUP3 MSTORE PUSH1 0x17 SWAP1 DUP3 ADD MSTORE PUSH32 0x43757272656E6379206E6F742072656769737465726564000000000000000000 PUSH1 0x40 DUP3 ADD MSTORE PUSH1 0x60 ADD SWAP1 JUMP JUMPDEST PUSH1 0x1 DUP2 DUP2 SHR SWAP1 DUP3 AND DUP1 PUSH2 0x3E67 JUMPI PUSH1 0x7F DUP3 AND SWAP2 POP JUMPDEST PUSH1 0x20 DUP3 LT DUP2 SUB PUSH2 0x13B1 JUMPI PUSH4 0x4E487B71 PUSH1 0xE0 SHL PUSH1 0x0 MSTORE PUSH1 0x22 PUSH1 0x4 MSTORE PUSH1 0x24 PUSH1 0x0 REVERT JUMPDEST PUSH1 0x0 DUP3 MLOAD PUSH2 0x3E99 DUP2 DUP5 PUSH1 0x20 DUP8 ADD PUSH2 0x3AEE JUMP JUMPDEST SWAP2 SWAP1 SWAP2 ADD SWAP3 SWAP2 POP POP JUMP JUMPDEST PUSH1 0x0 PUSH1 0x20 DUP1 DUP4 DUP6 SUB SLT ISZERO PUSH2 0x3EB6 JUMPI PUSH1 0x0 DUP1 REVERT JUMPDEST DUP3 MLOAD PUSH1 0x1 PUSH1 0x1 PUSH1 0x40 SHL SUB DUP2 GT ISZERO PUSH2 0x3ECC JUMPI PUSH1 0x0 DUP1 REVERT JUMPDEST DUP4 ADD PUSH1 0x1F DUP2 ADD DUP6 SGT PUSH2 0x3EDD JUMPI PUSH1 0x0 DUP1 REVERT JUMPDEST DUP1 MLOAD PUSH2 0x3EEB PUSH2 0x3BD8 DUP3 PUSH2 0x3D20 JUMP JUMPDEST DUP2 DUP2 MSTORE PUSH1 0x5 SWAP2 SWAP1 SWAP2 SHL DUP3 ADD DUP4 ADD SWAP1 DUP4 DUP2 ADD SWAP1 DUP8 DUP4 GT ISZERO PUSH2 0x3F0A JUMPI PUSH1 0x0 DUP1 REVERT JUMPDEST SWAP3 DUP5 ADD SWAP3 JUMPDEST DUP3 DUP5 LT ISZERO PUSH2 0x3DC8 JUMPI DUP4 MLOAD DUP3 MSTORE SWAP3 DUP5 ADD SWAP3 SWAP1 DUP5 ADD SWAP1 PUSH2 0x3F0F JUMP JUMPDEST PUSH1 0x0 DUP1 PUSH1 0x40 DUP4 DUP6 SUB SLT ISZERO PUSH2 0x3F3B JUMPI PUSH1 0x0 DUP1 REVERT JUMPDEST POP POP DUP1 MLOAD PUSH1 0x20 SWAP1 SWAP2 ADD MLOAD SWAP1 SWAP3 SWAP1 SWAP2 POP JUMP JUMPDEST PUSH1 0x0 PUSH1 0x60 DUP3 DUP5 SUB SLT ISZERO PUSH2 0x3F5E JUMPI PUSH1 0x0 DUP1 REVERT JUMPDEST PUSH1 0x40 MLOAD PUSH1 0x60 DUP2 ADD DUP2 DUP2 LT PUSH1 0x1 PUSH1 0x1 PUSH1 0x40 SHL SUB DUP3 GT OR ISZERO PUSH2 0x3F80 JUMPI PUSH2 0x3F80 PUSH2 0x3B5D JUMP JUMPDEST PUSH1 0x40 MSTORE DUP3 MLOAD PUSH1 0x0 DUP2 SWAP1 SIGNEXTEND DUP2 EQ PUSH2 0x3F95 JUMPI PUSH1 0x0 DUP1 REVERT JUMPDEST DUP2 MSTORE PUSH1 0x20 DUP4 ADD MLOAD PUSH2 0x3FA5 DUP2 PUSH2 0x394D JUMP JUMPDEST PUSH1 0x20 DUP3 ADD MSTORE PUSH1 0x40 DUP4 ADD MLOAD PUSH2 0x3FB8 DUP2 PUSH2 0x3CE6 JUMP JUMPDEST PUSH1 0x40 DUP3 ADD MSTORE SWAP4 SWAP3 POP POP POP JUMP JUMPDEST PUSH4 0x4E487B71 PUSH1 0xE0 SHL PUSH1 0x0 MSTORE PUSH1 0x1 PUSH1 0x4 MSTORE PUSH1 0x24 PUSH1 0x0 REVERT JUMPDEST PUSH1 0x1 PUSH1 0x1 PUSH1 0xA0 SHL SUB DUP6 AND DUP2 MSTORE PUSH1 0x20 DUP2 ADD DUP5 SWAP1 MSTORE PUSH1 0xC0 DUP2 ADD PUSH2 0x4020 PUSH1 0x40 DUP4 ADD DUP6 DUP1 MLOAD PUSH1 0x0 SIGNEXTEND DUP3 MSTORE PUSH1 0x20 DUP1 DUP3 ADD MLOAD ISZERO ISZERO SWAP1 DUP4 ADD MSTORE PUSH1 0x40 SWAP1 DUP2 ADD MLOAD PUSH1 0x1 PUSH1 0x1 PUSH1 0x40 SHL SUB AND SWAP2 ADD MSTORE JUMP JUMPDEST DUP3 ISZERO ISZERO PUSH1 0xA0 DUP4 ADD MSTORE SWAP6 SWAP5 POP POP POP POP POP JUMP JUMPDEST PUSH1 0x0 DUP3 DUP3 LT ISZERO PUSH2 0x4043 JUMPI PUSH2 0x4043 PUSH2 0x39CD JUMP JUMPDEST POP SUB SWAP1 JUMP JUMPDEST PUSH1 0x0 DUP2 PUSH2 0x4057 JUMPI PUSH2 0x4057 PUSH2 0x39CD JUMP JUMPDEST POP PUSH1 0x0 NOT ADD SWAP1 JUMP JUMPDEST PUSH1 0x0 PUSH1 0x20 DUP3 DUP5 SUB SLT ISZERO PUSH2 0x4071 JUMPI PUSH1 0x0 DUP1 REVERT JUMPDEST DUP2 MLOAD PUSH2 0x104F DUP2 PUSH2 0x3A2F JUMP JUMPDEST PUSH1 0x0 DUP1 PUSH1 0x40 DUP4 DUP6 SUB SLT ISZERO PUSH2 0x408F JUMPI PUSH1 0x0 DUP1 REVERT JUMPDEST DUP3 MLOAD SWAP2 POP PUSH1 0x20 DUP4 ADD MLOAD PUSH2 0x3CB9 DUP2 PUSH2 0x3A2F JUMP JUMPDEST PUSH1 0x0 PUSH1 0x20 DUP3 DUP5 SUB SLT ISZERO PUSH2 0x40B3 JUMPI PUSH1 0x0 DUP1 REVERT JUMPDEST DUP2 MLOAD PUSH1 0x1 PUSH1 0x1 PUSH1 0x40 SHL SUB DUP2 GT ISZERO PUSH2 0x40C9 JUMPI PUSH1 0x0 DUP1 REVERT JUMPDEST DUP3 ADD PUSH1 0x1F DUP2 ADD DUP5 SGT PUSH2 0x40DA JUMPI PUSH1 0x0 DUP1 REVERT JUMPDEST DUP1 MLOAD PUSH2 0x40E8 PUSH2 0x3BD8 DUP3 PUSH2 0x3BA3 JUMP JUMPDEST DUP2 DUP2 MSTORE DUP6 PUSH1 0x20 DUP4 DUP6 ADD ADD GT ISZERO PUSH2 0x40FD JUMPI PUSH1 0x0 DUP1 REVERT JUMPDEST PUSH2 0x410E DUP3 PUSH1 0x20 DUP4 ADD PUSH1 0x20 DUP7 ADD PUSH2 0x3AEE JUMP JUMPDEST SWAP6 SWAP5 POP POP POP POP POP JUMP JUMPDEST PUSH4 0x4E487B71 PUSH1 0xE0 SHL PUSH1 0x0 MSTORE PUSH1 0x31 PUSH1 0x4 MSTORE PUSH1 0x24 PUSH1 0x0 REVERT JUMPDEST PUSH1 0x0 DUP1 PUSH1 0x40 DUP4 DUP6 SUB SLT ISZERO PUSH2 0x4140 JUMPI PUSH1 0x0 DUP1 REVERT JUMPDEST DUP3 MLOAD PUSH2 0x414B DUP2 PUSH2 0x3A2F JUMP JUMPDEST PUSH1 0x20 SWAP4 SWAP1 SWAP4 ADD MLOAD SWAP3 SWAP5 SWAP3 SWAP4 POP POP POP JUMP INVALID PUSH9 0x747470733A2F2F6769 PUSH21 0x6875622E636F6D2F5061747269636B416C70686143 0x2F PUSH5 0x6566692D73 PUSH21 0x616B652D7969656C642D62726F776E69652D667265 PUSH6 0x636F64652F62 PUSH13 0x6F622F6D61696E2F66726F6E74 0x5F PUSH6 0x6E642F737263 0x2F PUSH5 0x6170702E70 PUSH15 0x673F7261773D7472756552CDD74989 ADDMOD 0x2C ORIGIN 0xBD PUSH28 0x5ABBC0E80E69D4C91B6E4CF5BF4DBFA7B61A6845A04B68747470733A 0x2F 0x2F PUSH19 0x61772E67697468756275736572636F6E74656E PUSH21 0x2E636F6D2F5061747269636B416C706861432F6465 PUSH7 0x692D7374616B65 0x2D PUSH26 0x69656C642D62726F776E69652D66726565636F64652F6D61696E 0x2F PUSH7 0x726F6E745F656E PUSH5 0x2F7372632F PUSH6 0x74682E706E67 EXTCODEHASH PUSH19 0x61773D74727565A264697066735822122080EB PUSH14 0x9ADB687D033614C6BE7379A5BE83 0x4C PUSH7 0x80926570E9E9D4 LOG1 0xAF SWAP14 0xCD 0xA6 DUP4 PUSH5 0x736F6C6343 STOP ADDMOD 0xD STOP CALLER ","sha1":"0414406a864e2191de5c2b68ffae1e2d4ebd1158","source":"// SPDX-License-Identifier: MIT\n// Beef MarketPlace Contracts v0.0.0 hello@mcdu.com\n\npragma solidity ^0.8.0;\n\nimport \"@openzeppelin/contracts/utils/Context.sol\";\nimport \"@openzeppelin/contracts/utils/introspection/IERC165.sol\";\nimport \"../agnostic/Ownable.sol\";\nimport \"../agnostic/Mode.sol\";\nimport \"../agnostic/Array.sol\";\nimport \"../agnostic/Mode.sol\";\nimport \"../agnostic/Keccak/KeccakInverter.sol\";\nimport \"../agnostic/Certified/CertifierAllower.sol\";\nimport \"../agnostic/Token/TokenLib.sol\";\nimport \"../agnostic/Token/TokenEquivalent.sol\";\nimport \"../agnostic/Token/Currencer.sol\";\n\n/*enum RepositoryType {\n    Bank,\n    Market,\n    MarketOrder,\n    MarketSearch,\n    Quotator,\n    Collateral,\n    Delivery,\n    Random,\n    Max\n}*/\n\nenum FuncState {\n    Unknown,\n    Absent,\n    Present\n}\ninterface IRepositoryContract is IERC165\n{\n    function supportsInterface(bytes4 interfaceId) external view returns (bool);\n    function id() external view returns (bytes32);\n\n}\n\nabstract contract RepositoryContract is IRepositoryContract, ModeStop, Context, Ownable {\n\n    Repository public immutable rep;\n\n    function supportsInterface(bytes4 interfaceId) public view virtual returns (bool)\n    {\n        return interfaceId == type(IERC165).interfaceId || interfaceId == type(IRepositoryContract).interfaceId;\n    }\n\n    constructor(Repository rep_) {\n        rep = rep_;\n    }\n\n    function repository() internal view virtual returns (Repository) {\n        return rep;\n    }\n\n    function checkRepository() private view {\n        require(\n            /*(ownerOf() == _msgSender()) ||*/ (_msgSender() == address(rep)),\n            \"Allowance: caller must be Repository\"\n        );\n    }\n\n    modifier all() {\n        _;\n    }\n    /*modifier onlyMarketOrder() virtual {\n        checkMarketOrder();\n        _;\n    }\n\n    function checkMarketOrder() internal view {\n        require((address(rep.mo()) == _msgSender()), \"Allowance: caller must be Market\");\n    }\n    modifier onlyMarket() virtual {\n        checkMarket();\n        _;\n    }\n\n    function checkMarket() internal view {\n        require((address(rep.m()) == _msgSender()), \"Allowance: caller must be Market\");\n    }*/\n\n    modifier onlyThis() virtual {\n        checkThis();\n        _;\n    }\n\n    function checkThis() internal view {\n        require((address(this) == _msgSender()), \"Allowance: caller must be this\");\n    }\n\n    modifier onlyOwner() virtual override {\n        checkOwner();\n        _;\n    }\n\n    function checkOwner() internal view {\n        require((ownerOf() == _msgSender()), \"Allowance: caller must be Owner\");\n    }\n\n    modifier onlyRepository() virtual {\n        checkRepository();\n        _;\n    }\n\n    modifier onlyContracts() {\n        checkContracts();\n        _;\n    }\n\n    function checkContracts() internal view {\n        require(\n            (ownerOf() == _msgSender()) || rep.isContract(_msgSender()),\n            \"Allowance: caller must be Repository Contract\"\n        );\n    }\n\n    modifier onlyOperators() {\n        checkOperators();\n        _;\n    }\n\n    function checkOperators() internal view {\n        require(\n            (ownerOf() == _msgSender()) || rep.isOperator(_msgSender()),\n            \"Allowance: caller must be Repository Operator\"\n        );\n    }\n\n    modifier onlyContractsOrOperators() {\n        checkContractsOrOperators();\n        _;\n    }\n\n    function checkContractsOrOperators() internal view {\n        require(\n            (ownerOf() == _msgSender()) ||\n                rep.isContract(_msgSender()) ||\n                rep.isOperator(_msgSender()),\n            \"Allowance: caller must be Repository Contract or Operator\"\n        );\n    }\n\n    //bool private _liquidated;\n\n    function setSTOP() public onlyContractsOrOperators {\n        _setSTOP();\n    }\n\n    function unsetSTOP() public onlyContractsOrOperators {\n        _unsetSTOP();\n    }\n\n    function setSTOPFOREVER() public onlyOwner {\n        _setSTOPFOREVER();\n    }\n\n    /*function bytesToAddress(bytes memory bys)\n        internal\n        pure\n        returns (address addr)\n    {\n        assembly {\n            addr := mload(add(bys, 32))\n        }\n    }*/\n\n    function _return(bool result_) internal view virtual {\n        assembly {\n            returndatacopy(0, 0, returndatasize())\n            switch result_\n            case 0 {\n                revert(0, returndatasize())\n            }\n            default {\n                return(0, returndatasize())\n            }\n        }\n    }\n\n    fallback() external virtual onlyContractsOrOperators {\n        bytes memory bys = msg.data[4:36];\n        address _implementation;\n        assembly {\n            _implementation := mload(add(bys, 32))\n        }\n        //address _implementation = bytesToAddress(msg.data[4:36]);\n\n        bool _result;\n        assembly {\n            let newargumentsize := sub(calldatasize(), 36)\n            let newcalldatasize := add(newargumentsize, 4)\n\n            calldatacopy(0, 0, 4)\n            calldatacopy(4, 36, newargumentsize)\n\n            // Call the implementation.\n            // out and outsize are 0 because we don't know the size yet.\n            _result := delegatecall(\n                gas(),\n                _implementation,\n                0,\n                newcalldatasize,\n                0,\n                0\n            )\n        }\n        _return(_result);\n    }\n    //function destroy() public onlyOwner { liquidate(); _destroy(); }\n    //function _destroy() internal virtual {selfdestruct(payable(ownerOf()));}\n    //function liquidated() public view returns (bool) { return _liquidated; }\n    //function liquidate() public onlyOwner { if (_liquidated) return; _setSTOPFOREVER();_liquidated =true; _liquidate(); }\n    //function _liquidate() internal virtual {}\n}\n\ncontract Repository is IERC165,ModeTest,Ownable, Currencer, ContractForbidderCertifier, KeccakInverter { //TokenEquivalentCertifier, \n    using Array for address[];\n    using Array for bytes4[];\n    uint256 immutable public _originalblock;\n\n    mapping(bytes32 => address) _repository;\n    address[] private _contracts;//= new address[](uint256(RepositoryType.Max));\n    address[] private _operators;\n    mapping(bytes32 => mapping(bytes4 => FuncState)) private _contractfunc;\n    bytes4[] _funcs;\n\n    constructor(bool MODETEST_)\n        ModeTest(MODETEST_)\n    {\n         _originalblock=block.number;\n    }\n\n    function supportsInterface(bytes4 interfaceId)\n        public\n        view virtual override(IERC165,ContractForbidderCertifier)//,TokenEquivalentCertifier)\n        returns (bool)\n    {\n        return interfaceId == type(IERC165).interfaceId || Certifiers.supportsInterface(interfaceId) || ContractCertifier.supportsInterface(interfaceId);// || TokenEquivalentCertifier.supportsInterface(interfaceId);\n    }\n\n    function isTrustedCertifier(address certifier_) public view virtual override(ContractForbidderCertifier) returns (bool) //,ContractCertifier\n    {\n        return Certifiers.isTrustedCertifier(certifier_);\n    }\n\n\n    modifier all() {\n        _;\n    }\n\n    modifier onlyOwner() virtual override {\n        checkOwner();\n        _;\n    }\n\n    function checkOwner() internal view {\n        require((ownerOf() == _msgSender()), \"Allowance: caller must be Owner\");\n    }\n\n    modifier onlyContracts() {\n        checkContracts();\n        _;\n    }\n\n    function checkContracts() internal view {\n        require(\n            (ownerOf() == _msgSender()) || isContract(_msgSender()),\n            \"Allowance: caller must be Repository Contract\"\n        );\n    }\n\n    modifier onlyOperators() {\n        checkOperators();\n        _;\n    }\n\n    function checkOperators() internal view {\n        require(\n            (ownerOf() == _msgSender()) || isOperator(_msgSender()),\n            \"Allowance: caller must be Repository Operator\"\n        );\n    }\n\n    modifier onlyContractsOrOperators() {\n        checkContractsOrOperators();\n        _;\n    }\n\n    function checkContractsOrOperators() internal view {\n        require(\n            (ownerOf() == _msgSender()) ||\n                isContract(_msgSender()) ||\n                isOperator(_msgSender()),\n            \"Allowance: caller must be Repository Contract or Operator\"\n        );\n    }\n\n    function exists(bytes32 k_) public view virtual override(Currencer,KeccakInverter) returns (bool)\n    {\n        return KeccakInverter.exists(k_);\n    }\n    function resolveAddressUInt256(bytes32 k_)\n        public\n        view virtual override (Currencer,KeccakInverter)\n        returns (address addr_, uint256 v_)\n    {\n        return KeccakInverter.resolveAddressUInt256(k_);\n    }    \n\n\n    function AddressUInt256(address addr_, uint256 v_)\n        public\n        virtual\n        override (Currencer,KeccakInverter)\n        returns (bytes32 k_)\n    {\n        return KeccakInverter.AddressUInt256(addr_, v_);\n    }\n\n\n    function isOperator(address caller_) public view returns (bool) {\n        if (caller_ == address(this)) return true;\n        return _operators.s_exist(caller_);\n    }\n\n    function isContract(address caller_) public view returns (bool) {\n        if (caller_ == address(this)) return true;\n        return _contracts.s_exist(caller_);\n    }\n\n    function removeOperator(address bot_) public onlyOperators {\n        _operators.remove(bot_);\n    }\n\n    function addOperator(address bot_) public onlyOperators {\n        _operators.insert(bot_);\n    }\n\n    function addTrustedCertifier(address certifier_) public onlyOperators  returns (bool){\n        return _addTrustedCertifier(certifier_);\n    }\n\n    function removeTrustedCertifier(address certifier_) public onlyOperators  returns (bool){\n        return _removeTrustedCertifier(certifier_);\n    }\n    function addTokenCertified(address token,uint256 tokenId) public onlyOperators returns (bool){\n        return _addContractCertified(token,tokenId);\n\n    }\n    function removeTokenCertified(address token,uint256 tokenId) public onlyOperators returns (bool){\n        return _removeContractCertified(token,tokenId);\n\n    }\n    function tokenForbiddenUnknownSet(bool forbiddenunknown_) public onlyOperators returns (bool) {\n        return _contractForbiddenUnknownSet(forbiddenunknown_);\n    }\n    function tokenForbiddenAdd(address token,uint256 tokenId) public onlyOperators returns (bool) {\n        return _contractForbiddenAdd(token,tokenId);\n    }\n    function tokenForbiddenRemove(address token,uint256 tokenId) public onlyOperators returns (bool) {\n        return _contractForbiddenRemove(token,tokenId);\n    }\n    function setContract(IRepositoryContract contract_) public onlyOperators {\n        require(contract_.supportsInterface(type(IRepositoryContract).interfaceId), \"contract must be IRepositoryContract\");\n        for (uint256 i; i < _funcs.length; i++)\n            delete _contractfunc[contract_.id()][_funcs[i]];\n        \n        _contracts.insert(address(contract_));\n        _repository[contract_.id()] = address(contract_);\n    }\n\n    function get(bytes32 hash_) public view returns (address) {\n        return _repository[hash_];\n    }\n\n    fallback() external virtual onlyContracts {\n        _funcs.insert(msg.sig);\n        for (uint256 i; i < _contracts.length; i++) {\n            if (_contracts[i] == _msgSender()) continue;\n            bytes32 contracthash = IRepositoryContract(_contracts[i]).id();\n            if (_contractfunc[contracthash][msg.sig] == FuncState.Absent) continue;\n            (bool success, ) = _contracts[i].call(msg.data);\n            if (_contractfunc[contracthash][msg.sig] == FuncState.Unknown)\n                _contractfunc[contracthash][msg.sig] = success ? FuncState.Present : FuncState.Absent;\n        }\n    }\n\n    /*function q() public view returns (address) {\n        return \n        [uint256(RepositoryType.Quotator)];\n    }\n\n    function setQuotator(address _contract) public onlyOperators {\n        set(RepositoryType.Quotator, _contract);\n    }\n\n    function r() public view returns (address) {\n        return \n        [uint256(RepositoryType.Random)];\n    }\n\n    function setRandom(address _contract) public onlyOperators {\n        set(RepositoryType.Random, _contract);\n    }\n\n    function d() public view returns (address) {\n        return \n        [uint256(RepositoryType.Delivery)];\n    }\n\n    function setDelivery(address _contract) public onlyOperators {\n        set(RepositoryType.Delivery, _contract);\n    }\n\n    function col() public view returns (address) {\n        return \n        [uint256(RepositoryType.Collateral)];\n    }\n\n    function setCollateral(address _contract) public onlyOperators {\n        set(RepositoryType.Collateral, _contract);\n    }\n\n    function b() public view returns (address) {\n        return \n        [uint256(RepositoryType.Bank)];\n    }\n\n    function setBank(address _contract) public onlyOperators {\n        set(RepositoryType.Bank, _contract);\n    }\n\n    function mo() public view returns (address) {\n        return \n        [uint256(RepositoryType.MarketOrder)];\n    }\n\n    function setMarketOrder(address _contract) public onlyOperators {\n        set(RepositoryType.MarketOrder, _contract);\n    }\n\n    function ms() public view returns (address) {\n        return \n        [uint256(RepositoryType.MarketSearch)];\n    }\n\n    function setMarketSearch(address _contract) public onlyOperators {\n        set(RepositoryType.MarketSearch, _contract);\n    }\n\n    function m() public view returns (address) {\n        return \n        [uint256(RepositoryType.Market)];\n    }\n\n    function setMarket(address _contract) public onlyOperators {\n        set(RepositoryType.Market, _contract);\n    }*/\n}\n","sourcePath":"contracts/Repository/Repository.sol","deployment":{"address":"0x6d8D716340965984C2d4534bBfd2730D70e877e2","chainid":"9997","blockHeight":3688}}