{"abi":[{"inputs":[{"internalType":"contract Repository","name":"rep_","type":"address"}],"stateMutability":"nonpayable","type":"constructor","name":"constructor"},{"anonymous":false,"inputs":[{"indexed":true,"internalType":"address","name":"previousOwner","type":"address"},{"indexed":true,"internalType":"address","name":"newOwner","type":"address"}],"name":"OwnershipTransferred","type":"event"},{"stateMutability":"nonpayable","type":"fallback"},{"inputs":[],"name":"STOP","outputs":[{"internalType":"bool","name":"","type":"bool"}],"stateMutability":"view","type":"function"},{"inputs":[],"name":"STOPFOREVER","outputs":[{"internalType":"bool","name":"","type":"bool"}],"stateMutability":"view","type":"function"},{"inputs":[{"internalType":"uint256","name":"val_","type":"uint256"}],"name":"UInt256ToUInt32","outputs":[{"internalType":"uint32","name":"","type":"uint32"}],"stateMutability":"pure","type":"function"},{"inputs":[{"internalType":"uint256","name":"val_","type":"uint256"}],"name":"UInt256ToUInt48","outputs":[{"internalType":"uint48","name":"","type":"uint48"}],"stateMutability":"pure","type":"function"},{"inputs":[{"internalType":"uint256","name":"val_","type":"uint256"}],"name":"UInt256ToUInt64","outputs":[{"internalType":"uint64","name":"","type":"uint64"}],"stateMutability":"pure","type":"function"},{"inputs":[{"internalType":"uint32","name":"val_","type":"uint32"}],"name":"UInt32ToUInt256","outputs":[{"internalType":"uint256","name":"","type":"uint256"}],"stateMutability":"pure","type":"function"},{"inputs":[{"internalType":"uint48","name":"val_","type":"uint48"}],"name":"UInt48ToUInt256","outputs":[{"internalType":"uint256","name":"","type":"uint256"}],"stateMutability":"pure","type":"function"},{"inputs":[{"internalType":"uint64","name":"val_","type":"uint64"}],"name":"UInt64ToUInt256","outputs":[{"internalType":"uint256","name":"","type":"uint256"}],"stateMutability":"pure","type":"function"},{"inputs":[{"internalType":"bytes32","name":"_from","type":"bytes32"},{"internalType":"bytes32","name":"fromto_","type":"bytes32"}],"name":"_existPath","outputs":[{"internalType":"bool","name":"","type":"bool"}],"stateMutability":"view","type":"function"},{"inputs":[{"internalType":"bytes32","name":"from_","type":"bytes32"}],"name":"_listPathFrom","outputs":[{"internalType":"bytes32[][]","name":"out_","type":"bytes32[][]"}],"stateMutability":"view","type":"function"},{"inputs":[{"internalType":"uint256","name":"start_","type":"uint256"},{"internalType":"uint256","name":"count_","type":"uint256"}],"name":"d_list","outputs":[{"components":[{"internalType":"address","name":"account","type":"address"},{"internalType":"bytes32","name":"from","type":"bytes32"},{"internalType":"bytes32","name":"to","type":"bytes32"},{"internalType":"uint256","name":"orderid","type":"uint256"},{"internalType":"uint256","name":"qty","type":"uint256"},{"internalType":"uint256","name":"granularity","type":"uint256"},{"internalType":"uint256","name":"qtydone","type":"uint256"},{"internalType":"uint256","name":"originalqty","type":"uint256"},{"internalType":"uint256","name":"quote","type":"uint256"},{"internalType":"uint256","name":"originalquote","type":"uint256"},{"internalType":"uint256","name":"originalbasedquote","type":"uint256"},{"internalType":"uint256","name":"expire","type":"uint256"},{"internalType":"enum Order.State","name":"state","type":"uint8"},{"internalType":"uint8","name":"options","type":"uint8"}],"internalType":"struct Order.InfoPublic[]","name":"out_","type":"tuple[]"}],"stateMutability":"view","type":"function"},{"inputs":[],"name":"id","outputs":[{"internalType":"bytes32","name":"","type":"bytes32"}],"stateMutability":"view","type":"function"},{"inputs":[{"internalType":"address","name":"caller_","type":"address"}],"name":"isOwner","outputs":[{"internalType":"bool","name":"","type":"bool"}],"stateMutability":"view","type":"function"},{"inputs":[{"internalType":"uint256","name":"start_","type":"uint256"},{"internalType":"uint256","name":"count_","type":"uint256"}],"name":"list","outputs":[{"components":[{"internalType":"address","name":"account","type":"address"},{"internalType":"bytes32","name":"from","type":"bytes32"},{"internalType":"bytes32","name":"to","type":"bytes32"},{"internalType":"uint256","name":"orderid","type":"uint256"},{"internalType":"uint256","name":"qty","type":"uint256"},{"internalType":"uint256","name":"granularity","type":"uint256"},{"internalType":"uint256","name":"qtydone","type":"uint256"},{"internalType":"uint256","name":"originalqty","type":"uint256"},{"internalType":"uint256","name":"quote","type":"uint256"},{"internalType":"uint256","name":"originalquote","type":"uint256"},{"internalType":"uint256","name":"originalbasedquote","type":"uint256"},{"internalType":"uint256","name":"expire","type":"uint256"},{"internalType":"enum Order.State","name":"state","type":"uint8"},{"internalType":"uint8","name":"options","type":"uint8"}],"internalType":"struct Order.InfoPublic[]","name":"out_","type":"tuple[]"}],"stateMutability":"view","type":"function"},{"inputs":[{"internalType":"uint256","name":"order_","type":"uint256"}],"name":"order","outputs":[{"components":[{"internalType":"address","name":"account","type":"address"},{"internalType":"bytes32","name":"from","type":"bytes32"},{"internalType":"bytes32","name":"to","type":"bytes32"},{"internalType":"uint256","name":"orderid","type":"uint256"},{"internalType":"uint256","name":"qty","type":"uint256"},{"internalType":"uint256","name":"granularity","type":"uint256"},{"internalType":"uint256","name":"qtydone","type":"uint256"},{"internalType":"uint256","name":"originalqty","type":"uint256"},{"internalType":"uint256","name":"quote","type":"uint256"},{"internalType":"uint256","name":"originalquote","type":"uint256"},{"internalType":"uint256","name":"originalbasedquote","type":"uint256"},{"internalType":"uint256","name":"expire","type":"uint256"},{"internalType":"enum Order.State","name":"state","type":"uint8"},{"internalType":"uint8","name":"options","type":"uint8"}],"internalType":"struct Order.InfoPublic","name":"","type":"tuple"}],"stateMutability":"view","type":"function"},{"inputs":[],"name":"owner","outputs":[{"internalType":"address","name":"","type":"address"}],"stateMutability":"view","type":"function"},{"inputs":[],"name":"renounceOwnership","outputs":[],"stateMutability":"nonpayable","type":"function"},{"inputs":[],"name":"rep","outputs":[{"internalType":"contract Repository","name":"","type":"address"}],"stateMutability":"view","type":"function"},{"inputs":[],"name":"setSTOP","outputs":[],"stateMutability":"nonpayable","type":"function"},{"inputs":[],"name":"setSTOPFOREVER","outputs":[],"stateMutability":"nonpayable","type":"function"},{"inputs":[{"internalType":"bytes4","name":"interfaceId","type":"bytes4"}],"name":"supportsInterface","outputs":[{"internalType":"bool","name":"","type":"bool"}],"stateMutability":"view","type":"function"},{"inputs":[{"internalType":"address","name":"newOwner","type":"address"}],"name":"transferOwnership","outputs":[],"stateMutability":"nonpayable","type":"function"},{"inputs":[],"name":"unsetSTOP","outputs":[],"stateMutability":"nonpayable","type":"function"}],"bytecode":"60a06040523480156200001157600080fd5b50604051620021a4380380620021a48339810160408190526200003491620000b1565b8080620000413362000056565b6001600160a01b031660805250620000e39050565b600080546001600160a01b038381166201000081810262010000600160b01b0319851617855560405193049190911692909183917f8be0079c531659141344cd1fd0a4f28419497f9722a3daafe3b4186f6b6457e091a35050565b600060208284031215620000c457600080fd5b81516001600160a01b0381168114620000dc57600080fd5b9392505050565b60805161206d62000137600039600081816103b701528181610456015281816104f4015281816107570152818161095f01528181610a1201528181610f2501528181611149015261133b015261206d6000f3fe608060405234801561001057600080fd5b506004361061014d5760003560e01c80637af6649a116100c3578063b03fd40d1161007c578063b03fd40d1461039f578063ccc07959146103b2578063d6935858146103d9578063e4b16144146103e1578063f2fde38b146103f4578063feab4454146104075761014d565b80637af6649a14610302578063854ba99d146103235780638da5cb5b1461032b578063975bd542146103565780639796207614610369578063af640d0f146103795761014d565b80632f54bf6e116101155780632f54bf6e1461025f57806350fd73671461028757806362965141146102a75780636b2b091a146102d2578063715018a6146102f257806372ea61bf146102fa5761014d565b806301ffc9a7146101d257806305d6bd9c146101fa5780631ef4590d1461020457806321603f43146102175780632203616d14610237575b610155610431565b60006101656024600436846118e5565b8080601f016020809104026020016040519081016040528093929190818152602001838380828437600092018290525060208501519495509250503660231981019150601f19016004838037816024600437600080826000875af4925050506101cd816105fb565b505050005b6101e56101e036600461190f565b610611565b60405190151581526020015b60405180910390f35b610202610648565b005b6101e5610212366004611939565b61065f565b61022a61022536600461195b565b6106f0565b6040516101f19190611a53565b61024a61024536600461195b565b610703565b60405163ffffffff90911681526020016101f1565b6101e561026d366004611a77565b6000546201000090046001600160a01b0390811691161490565b61029a610295366004611939565b610714565b6040516101f19190611a94565b6102ba6102b536600461195b565b610873565b6040516001600160401b0390911681526020016101f1565b6102e56102e036600461195b565b6108a5565b6040516101f19190611ae3565b610202610cc7565b610202610cd9565b610315610310366004611b6d565b610cf3565b6040519081526020016101f1565b6101e5610d0c565b6000546201000090046001600160a01b03165b6040516001600160a01b0390911681526020016101f1565b61029a610364366004611939565b610d2a565b600054610100900460ff166101e5565b7f2b53f13a2ed1dacb652f78e48a76feb68150760efc65d85ec10a571b9c6348d7610315565b6103156103ad366004611b95565b610d36565b61033e7f000000000000000000000000000000000000000000000000000000000000000081565b610202610d50565b6103156103ef366004611bbe565b610d6c565b610202610402366004611a77565b610d83565b61041a61041536600461195b565b610dfc565b60405165ffffffffffff90911681526020016101f1565b6000546001600160a01b0362010000909104163314806104e457506001600160a01b037f0000000000000000000000000000000000000000000000000000000000000000166316279055336040516001600160e01b031960e084901b1681526001600160a01b039091166004820152602401602060405180830381865afa1580156104c0573d6000803e3d6000fd5b505050506040513d601f19601f820116820180604052508101906104e49190611be4565b8061058257506001600160a01b037f000000000000000000000000000000000000000000000000000000000000000016636d70f7ae336040516001600160e01b031960e084901b1681526001600160a01b039091166004820152602401602060405180830381865afa15801561055e573d6000803e3d6000fd5b505050506040513d601f19601f820116820180604052508101906105829190611be4565b6105f95760405162461bcd60e51b815260206004820152603960248201527f416c6c6f77616e63653a2063616c6c6572206d757374206265205265706f736960448201527f746f727920436f6e7472616374206f72204f70657261746f720000000000000060648201526084015b60405180910390fd5b565b3d6000803e80801561060c573d6000f35b3d6000fd5b60006001600160e01b031982166301ffc9a760e01b148061064257506001600160e01b031982166315d3789560e31b145b92915050565b610650610431565b6105f96000805460ff19169055565b6000828152600160205260408082209051632be5db2360e11b815260048101919091526024810183905273__Array_________________________________906357cbb64690604401602060405180830381865af41580156106c5573d6000803e3d6000fd5b505050506040513d601f19601f820116820180604052508101906106e99190611be4565b9392505050565b6106f8611856565b610642826000610e0d565b600061064264e8d4a5100083611c1c565b60405163023aa9ab60e61b81527f2e7a327ef83c2af7579c6634f2f5604519800c5f07626f27bd602fd11ed8e6ec60048201526060906000906001600160a01b037f00000000000000000000000000000000000000000000000000000000000000001690638eaa6ac090602401602060405180830381865afa15801561079e573d6000803e3d6000fd5b505050506040513d601f19601f820116820180604052508101906107c29190611c3e565b6040805130602482015260448101879052606480820187905282518083039091018152608490910182526020810180516001600160e01b0316634badeaa160e11b17905290516001600160a01b03929092169161081f9190611c5b565b600060405180830381855afa9150503d806000811461085a576040519150601f19603f3d011682016040523d82523d6000602084013e61085f565b606091505b5050905061086c816105fb565b5092915050565b6000806108856402540be40084611c1c565b905082610897826402540be400611c96565b111561064257610642611cb5565b60008181526001602090815260408083208054825181850281018501909352808352606094938301828280156108fa57602002820191906000526020600020905b8154815260200190600101908083116108e6575b5050505050905080516001600160401b0381111561091a5761091a611ccb565b60405190808252806020026020018201604052801561094d57816020015b60608152602001906001900390816109385790505b5091506000805b8251811015610c74577f00000000000000000000000000000000000000000000000000000000000000006001600160a01b03166338a699a484838151811061099e5761099e611ce1565b60200260200101516040518263ffffffff1660e01b81526004016109c491815260200190565b602060405180830381865afa1580156109e1573d6000803e3d6000fd5b505050506040513d601f19601f82011682018060405250810190610a059190611be4565b610a0e57610c62565b60007f00000000000000000000000000000000000000000000000000000000000000006001600160a01b03166327ee9dc2858481518110610a5157610a51611ce1565b60200260200101516040518263ffffffff1660e01b8152600401610a7791815260200190565b600060405180830381865afa158015610a94573d6000803e3d6000fd5b505050506040513d6000823e601f3d908101601f19168201604052610abc9190810190611cf7565b90506000815111610b0f5760405162461bcd60e51b815260206004820152601760248201527f5f706174684c69737420706174682e6c656e6774683e3000000000000000000060448201526064016105f0565b60005b60018251610b209190611db4565b811015610c1a57610bff73__BytesAndKeccakLib_____________________6376254ff9848481518110610b5657610b56611ce1565b602002602001015185856001610b6c9190611dcb565b81518110610b7c57610b7c611ce1565b60200260200101516040518363ffffffff1660e01b8152600401610baa929190918252602082015260400190565b602060405180830381865af4158015610bc7573d6000803e3d6000fd5b505050506040513d601f19601f82011682018060405250810190610beb9190611de3565b600090815260066020526040902054151590565b610c0857610c1a565b80610c1281611dfc565b915050610b12565b60018251610c289190611db4565b811015610c36575050610c62565b818685610c4281611dfc565b965081518110610c5457610c54611ce1565b602002602001018190525050505b80610c6c81611dfc565b915050610954565b5080835260008111610cc05760405162461bcd60e51b815260206004820152601560248201527405f6c6973745061746846726f6d20636f756e743e3605c1b60448201526064016105f0565b5050919050565b610ccf611576565b6105f960006115d7565b610ce1610431565b6105f96000805460ff19166001179055565b600061064265ffffffffffff831664174876e800611c96565b6000805460ff1680610d255750600054610100900460ff165b905090565b60606106e98383611632565b60006106426001600160401b0383166402540be400611c96565b610d58611576565b6105f96000805461ff001916610100179055565b600061064263ffffffff831664e8d4a51000611c96565b610d8b611576565b6001600160a01b038116610df05760405162461bcd60e51b815260206004820152602660248201527f4f776e61626c653a206e6577206f776e657220697320746865207a65726f206160448201526564647265737360d01b60648201526084016105f0565b610df9816115d7565b50565b600061064264174876e80083611c1c565b610e15611856565b60008381526005602081815260408084208151610180810183528154815260018201546001600160a01b0381169482019490945293909291840191600160a01b900460ff1690811115610e6a57610e6a611974565b6005811115610e7b57610e7b611974565b81526001820154600160a81b900460ff166020820152600282015460408083019190915260038301546001600160401b0380821660608501526801000000000000000080830482166080860152600160801b808404831660a0870152600160c01b909304821660c086015260049586015480831660e087015290810482166101008601529190910416610120909201919091528251905163657c7e0960e01b8152918201529091507f00000000000000000000000000000000000000000000000000000000000000006001600160a01b03169063657c7e09906024016040805180830381865afa158015610f73573d6000803e3d6000fd5b505050506040513d601f19601f82011682018060405250810190610f979190611e17565b60408401526020830152608081015160608301528280611030575060608101516040516336181b6760e11b815260ff909116600482015273__Order_________________________________90636c3036ce90602401602060405180830381865af415801561100a573d6000803e3d6000fd5b505050506040513d601f19601f8201168201806040525081019061102e9190611be4565b155b156114b35760208101516001600160a01b0316825260a081015161105390610d36565b60808301526060810151604051632b2076e360e11b815260ff909116600482015273__Order_________________________________90635640edc690602401602060405180830381865af41580156110b0573d6000803e3d6000fd5b505050506040513d601f19601f820116820180604052508101906110d49190611be4565b156110e857608082015160a0830152611234565b6101208101516001600160401b0316156111145761110a816101200151610d36565b60a0830152611234565b60405163023aa9ab60e61b81527fcd775f2396f9f13f12bcf8ca32e21df66559a8adc3944d0591127e7731f7ab8560048201527f00000000000000000000000000000000000000000000000000000000000000006001600160a01b031690638eaa6ac090602401602060405180830381865afa158015611198573d6000803e3d6000fd5b505050506040513d601f19601f820116820180604052508101906111bc9190611c3e565b6001600160a01b031663a9bf985883602001516040518263ffffffff1660e01b81526004016111ed91815260200190565b602060405180830381865afa15801561120a573d6000803e3d6000fd5b505050506040513d601f19601f8201168201806040525081019061122e9190611de3565b60a08301525b6112418160c00151610d36565b60c083015260e081015161125490610d36565b60e08301526060810151604051635b7d0f6960e11b815260ff909116600482015273__Order_________________________________9063b6fa1ed290602401602060405180830381865af41580156112b1573d6000803e3d6000fd5b505050506040513d601f19601f820116820180604052508101906112d59190611be4565b1561149e576112e8816101400151610d36565b6101208301526101608101516112fd90610d36565b61014083015260405163023aa9ab60e61b81527f3cb99135f7a7c088d9085b446345038a22a85f4e8fe072b0e1b66d97243e745860048201526000907f00000000000000000000000000000000000000000000000000000000000000006001600160a01b031690638eaa6ac090602401602060405180830381865afa15801561138a573d6000803e3d6000fd5b505050506040513d601f19601f820116820180604052508101906113ae9190611c3e565b6001600160a01b0316636464b68a846020015185604001516040518363ffffffff1660e01b81526004016113ec929190918252602082015260400190565b606060405180830381865afa158015611409573d6000803e3d6000fd5b505050506040513d601f19601f8201168201806040525081019061142d9190611e3b565b50915050806114725760405162461bcd60e51b8152602060048201526011602482015270145d5bdd194e88139bdd081c5d5bdd1959607a1b60448201526064016105f0565b6101408301516114829082611c1c565b8361012001516114929190611c96565b610100840152506114b3565b6114ac816101000151610d36565b6101008301525b604051630212d6cb60e21b815273__Order_________________________________9063084b5b2c906114ea908490600401611e69565b602060405180830381865af4158015611507573d6000803e3d6000fd5b505050506040513d601f19601f8201168201806040525081019061152b9190611de3565b6101608301526040810151610180830190600581111561154d5761154d611974565b9081600581111561156057611560611974565b9052506060015160ff166101a082015292915050565b6000546001600160a01b03620100009091041633146105f95760405162461bcd60e51b815260206004820152601f60248201527f416c6c6f77616e63653a2063616c6c6572206d757374206265204f776e65720060448201526064016105f0565b600080546001600160a01b038381166201000081810262010000600160b01b0319851617855560405193049190911692909183917f8be0079c531659141344cd1fd0a4f28419497f9722a3daafe3b4186f6b6457e091a35050565b60608161163f5760045491505b816001600160401b0381111561165757611657611ccb565b60405190808252806020026020018201604052801561169057816020015b61167d611856565b8152602001906001900390816116755790505b50600454909150600090845b8181101561184c578483106116b05761184c565b600060056000600484815481106116c9576116c9611ce1565b90600052602060002001548152602001908152602001600020905073__Order_________________________________63084b5b2c826040518263ffffffff1660e01b815260040161171b9190611f5c565b602060405180830381865af4158015611738573d6000803e3d6000fd5b505050506040513d601f19601f8201168201806040525081019061175c9190611de3565b15806117e05750604051630212d6cb60e21b8152429073__Order_________________________________9063084b5b2c9061179c908590600401611f5c565b602060405180830381865af41580156117b9573d6000803e3d6000fd5b505050506040513d601f19601f820116820180604052508101906117dd9190611de3565b10155b156118395761180d600483815481106117fb576117fb611ce1565b90600052602060002001546000610e0d565b85858151811061181f5761181f611ce1565b6020026020010181905250838061183590611dfc565b9450505b508061184481611dfc565b91505061169c565b5050815292915050565b604051806101c0016040528060006001600160a01b031681526020016000801916815260200160008019168152602001600081526020016000815260200160008152602001600081526020016000815260200160008152602001600081526020016000815260200160008152602001600060058111156118d8576118d8611974565b8152600060209091015290565b600080858511156118f557600080fd5b8386111561190257600080fd5b5050820193919092039150565b60006020828403121561192157600080fd5b81356001600160e01b0319811681146106e957600080fd5b6000806040838503121561194c57600080fd5b50508035926020909101359150565b60006020828403121561196d57600080fd5b5035919050565b634e487b7160e01b600052602160045260246000fd5b600681106119a857634e487b7160e01b600052602160045260246000fd5b9052565b80516001600160a01b031682526020810151602083015260408101516040830152606081015160608301526080810151608083015260a081015160a083015260c081015160c083015260e081015160e083015261010080820151818401525061012080820151818401525061014080820151818401525061016080820151818401525061018080820151611a428285018261198a565b50506101a09081015160ff16910152565b6101c0810161064282846119ac565b6001600160a01b0381168114610df957600080fd5b600060208284031215611a8957600080fd5b81356106e981611a62565b6020808252825182820181905260009190848201906040850190845b81811015611ad757611ac38385516119ac565b928401926101c09290920191600101611ab0565b50909695505050505050565b6000602080830181845280855180835260408601915060408160051b87010192508387016000805b83811015611b5f57888603603f19018552825180518088529088019088880190845b81811015611b495783518352928a0192918a0191600101611b2d565b5090975050509386019391860191600101611b0b565b509398975050505050505050565b600060208284031215611b7f57600080fd5b813565ffffffffffff811681146106e957600080fd5b600060208284031215611ba757600080fd5b81356001600160401b03811681146106e957600080fd5b600060208284031215611bd057600080fd5b813563ffffffff811681146106e957600080fd5b600060208284031215611bf657600080fd5b815180151581146106e957600080fd5b634e487b7160e01b600052601160045260246000fd5b600082611c3957634e487b7160e01b600052601260045260246000fd5b500490565b600060208284031215611c5057600080fd5b81516106e981611a62565b6000825160005b81811015611c7c5760208186018101518583015201611c62565b81811115611c8b576000828501525b509190910192915050565b6000816000190483118215151615611cb057611cb0611c06565b500290565b634e487b7160e01b600052600160045260246000fd5b634e487b7160e01b600052604160045260246000fd5b634e487b7160e01b600052603260045260246000fd5b60006020808385031215611d0a57600080fd5b82516001600160401b0380821115611d2157600080fd5b818501915085601f830112611d3557600080fd5b815181811115611d4757611d47611ccb565b8060051b604051601f19603f83011681018181108582111715611d6c57611d6c611ccb565b604052918252848201925083810185019188831115611d8a57600080fd5b938501935b82851015611da857845184529385019392850192611d8f565b98975050505050505050565b600082821015611dc657611dc6611c06565b500390565b60008219821115611dde57611dde611c06565b500190565b600060208284031215611df557600080fd5b5051919050565b6000600019821415611e1057611e10611c06565b5060010190565b60008060408385031215611e2a57600080fd5b505080516020909101519092909150565b600080600060608486031215611e5057600080fd5b8351925060208401519150604084015190509250925092565b81518152602080830151610180830191611e8d908401826001600160a01b03169052565b506040830151611ea0604084018261198a565b506060830151611eb5606084018260ff169052565b506080830151608083015260a0830151611eda60a08401826001600160401b03169052565b5060c0830151611ef560c08401826001600160401b03169052565b5060e0830151611f1060e08401826001600160401b03169052565b50610100838101516001600160401b039081169184019190915261012080850151821690840152610140808501518216908401526101608085015191821681850152905b505092915050565b8154815260018201546001600160a01b0381166020830152610180820190611f8d6040840160ff8360a01c1661198a565b60a81c60ff1660608301526002830154608083015260038301546001600160401b0380821660a0850152604082901c811660c0850152611fdd60e08501828460801c166001600160401b03169052565b60c082901c61010085015260048501546001600160401b0382821616610120860152915061201c6101408501828460401c166001600160401b03169052565b611f546101608501828460801c166001600160401b0316905256fea26469706673582212208f863fb9964ac7bf3c02d0b264483d2f4f5adb39e17f982033c5146f48363b9e64736f6c634300080b0033","bytecodeSha1":"6ca88a2b91754f2869ecfae43911bf9caf00ef1c","compiler":{"evm_version":"istanbul","optimizer":{"enabled":true,"runs":200},"version":"0.8.11+commit.d7f03943"},"contractName":"MarketList","deployedBytecode":"608060405234801561001057600080fd5b506004361061014d5760003560e01c80637af6649a116100c3578063b03fd40d1161007c578063b03fd40d1461039f578063ccc07959146103b2578063d6935858146103d9578063e4b16144146103e1578063f2fde38b146103f4578063feab4454146104075761014d565b80637af6649a14610302578063854ba99d146103235780638da5cb5b1461032b578063975bd542146103565780639796207614610369578063af640d0f146103795761014d565b80632f54bf6e116101155780632f54bf6e1461025f57806350fd73671461028757806362965141146102a75780636b2b091a146102d2578063715018a6146102f257806372ea61bf146102fa5761014d565b806301ffc9a7146101d257806305d6bd9c146101fa5780631ef4590d1461020457806321603f43146102175780632203616d14610237575b610155610431565b60006101656024600436846118e5565b8080601f016020809104026020016040519081016040528093929190818152602001838380828437600092018290525060208501519495509250503660231981019150601f19016004838037816024600437600080826000875af4925050506101cd816105fb565b505050005b6101e56101e036600461190f565b610611565b60405190151581526020015b60405180910390f35b610202610648565b005b6101e5610212366004611939565b61065f565b61022a61022536600461195b565b6106f0565b6040516101f19190611a53565b61024a61024536600461195b565b610703565b60405163ffffffff90911681526020016101f1565b6101e561026d366004611a77565b6000546201000090046001600160a01b0390811691161490565b61029a610295366004611939565b610714565b6040516101f19190611a94565b6102ba6102b536600461195b565b610873565b6040516001600160401b0390911681526020016101f1565b6102e56102e036600461195b565b6108a5565b6040516101f19190611ae3565b610202610cc7565b610202610cd9565b610315610310366004611b6d565b610cf3565b6040519081526020016101f1565b6101e5610d0c565b6000546201000090046001600160a01b03165b6040516001600160a01b0390911681526020016101f1565b61029a610364366004611939565b610d2a565b600054610100900460ff166101e5565b7f2b53f13a2ed1dacb652f78e48a76feb68150760efc65d85ec10a571b9c6348d7610315565b6103156103ad366004611b95565b610d36565b61033e7f000000000000000000000000000000000000000000000000000000000000000081565b610202610d50565b6103156103ef366004611bbe565b610d6c565b610202610402366004611a77565b610d83565b61041a61041536600461195b565b610dfc565b60405165ffffffffffff90911681526020016101f1565b6000546001600160a01b0362010000909104163314806104e457506001600160a01b037f0000000000000000000000000000000000000000000000000000000000000000166316279055336040516001600160e01b031960e084901b1681526001600160a01b039091166004820152602401602060405180830381865afa1580156104c0573d6000803e3d6000fd5b505050506040513d601f19601f820116820180604052508101906104e49190611be4565b8061058257506001600160a01b037f000000000000000000000000000000000000000000000000000000000000000016636d70f7ae336040516001600160e01b031960e084901b1681526001600160a01b039091166004820152602401602060405180830381865afa15801561055e573d6000803e3d6000fd5b505050506040513d601f19601f820116820180604052508101906105829190611be4565b6105f95760405162461bcd60e51b815260206004820152603960248201527f416c6c6f77616e63653a2063616c6c6572206d757374206265205265706f736960448201527f746f727920436f6e7472616374206f72204f70657261746f720000000000000060648201526084015b60405180910390fd5b565b3d6000803e80801561060c573d6000f35b3d6000fd5b60006001600160e01b031982166301ffc9a760e01b148061064257506001600160e01b031982166315d3789560e31b145b92915050565b610650610431565b6105f96000805460ff19169055565b6000828152600160205260408082209051632be5db2360e11b815260048101919091526024810183905273__$f71e59c5327218924d154e230469c101bd$__906357cbb64690604401602060405180830381865af41580156106c5573d6000803e3d6000fd5b505050506040513d601f19601f820116820180604052508101906106e99190611be4565b9392505050565b6106f8611856565b610642826000610e0d565b600061064264e8d4a5100083611c1c565b60405163023aa9ab60e61b81527f2e7a327ef83c2af7579c6634f2f5604519800c5f07626f27bd602fd11ed8e6ec60048201526060906000906001600160a01b037f00000000000000000000000000000000000000000000000000000000000000001690638eaa6ac090602401602060405180830381865afa15801561079e573d6000803e3d6000fd5b505050506040513d601f19601f820116820180604052508101906107c29190611c3e565b6040805130602482015260448101879052606480820187905282518083039091018152608490910182526020810180516001600160e01b0316634badeaa160e11b17905290516001600160a01b03929092169161081f9190611c5b565b600060405180830381855afa9150503d806000811461085a576040519150601f19603f3d011682016040523d82523d6000602084013e61085f565b606091505b5050905061086c816105fb565b5092915050565b6000806108856402540be40084611c1c565b905082610897826402540be400611c96565b111561064257610642611cb5565b60008181526001602090815260408083208054825181850281018501909352808352606094938301828280156108fa57602002820191906000526020600020905b8154815260200190600101908083116108e6575b5050505050905080516001600160401b0381111561091a5761091a611ccb565b60405190808252806020026020018201604052801561094d57816020015b60608152602001906001900390816109385790505b5091506000805b8251811015610c74577f00000000000000000000000000000000000000000000000000000000000000006001600160a01b03166338a699a484838151811061099e5761099e611ce1565b60200260200101516040518263ffffffff1660e01b81526004016109c491815260200190565b602060405180830381865afa1580156109e1573d6000803e3d6000fd5b505050506040513d601f19601f82011682018060405250810190610a059190611be4565b610a0e57610c62565b60007f00000000000000000000000000000000000000000000000000000000000000006001600160a01b03166327ee9dc2858481518110610a5157610a51611ce1565b60200260200101516040518263ffffffff1660e01b8152600401610a7791815260200190565b600060405180830381865afa158015610a94573d6000803e3d6000fd5b505050506040513d6000823e601f3d908101601f19168201604052610abc9190810190611cf7565b90506000815111610b0f5760405162461bcd60e51b815260206004820152601760248201527f5f706174684c69737420706174682e6c656e6774683e3000000000000000000060448201526064016105f0565b60005b60018251610b209190611db4565b811015610c1a57610bff73__$669c6e0eba2465bd6779ea6ec5db3af1b5$__6376254ff9848481518110610b5657610b56611ce1565b602002602001015185856001610b6c9190611dcb565b81518110610b7c57610b7c611ce1565b60200260200101516040518363ffffffff1660e01b8152600401610baa929190918252602082015260400190565b602060405180830381865af4158015610bc7573d6000803e3d6000fd5b505050506040513d601f19601f82011682018060405250810190610beb9190611de3565b600090815260066020526040902054151590565b610c0857610c1a565b80610c1281611dfc565b915050610b12565b60018251610c289190611db4565b811015610c36575050610c62565b818685610c4281611dfc565b965081518110610c5457610c54611ce1565b602002602001018190525050505b80610c6c81611dfc565b915050610954565b5080835260008111610cc05760405162461bcd60e51b815260206004820152601560248201527405f6c6973745061746846726f6d20636f756e743e3605c1b60448201526064016105f0565b5050919050565b610ccf611576565b6105f960006115d7565b610ce1610431565b6105f96000805460ff19166001179055565b600061064265ffffffffffff831664174876e800611c96565b6000805460ff1680610d255750600054610100900460ff165b905090565b60606106e98383611632565b60006106426001600160401b0383166402540be400611c96565b610d58611576565b6105f96000805461ff001916610100179055565b600061064263ffffffff831664e8d4a51000611c96565b610d8b611576565b6001600160a01b038116610df05760405162461bcd60e51b815260206004820152602660248201527f4f776e61626c653a206e6577206f776e657220697320746865207a65726f206160448201526564647265737360d01b60648201526084016105f0565b610df9816115d7565b50565b600061064264174876e80083611c1c565b610e15611856565b60008381526005602081815260408084208151610180810183528154815260018201546001600160a01b0381169482019490945293909291840191600160a01b900460ff1690811115610e6a57610e6a611974565b6005811115610e7b57610e7b611974565b81526001820154600160a81b900460ff166020820152600282015460408083019190915260038301546001600160401b0380821660608501526801000000000000000080830482166080860152600160801b808404831660a0870152600160c01b909304821660c086015260049586015480831660e087015290810482166101008601529190910416610120909201919091528251905163657c7e0960e01b8152918201529091507f00000000000000000000000000000000000000000000000000000000000000006001600160a01b03169063657c7e09906024016040805180830381865afa158015610f73573d6000803e3d6000fd5b505050506040513d601f19601f82011682018060405250810190610f979190611e17565b60408401526020830152608081015160608301528280611030575060608101516040516336181b6760e11b815260ff909116600482015273__$f7122df39a5f3bad28f404771cd5173291$__90636c3036ce90602401602060405180830381865af415801561100a573d6000803e3d6000fd5b505050506040513d601f19601f8201168201806040525081019061102e9190611be4565b155b156114b35760208101516001600160a01b0316825260a081015161105390610d36565b60808301526060810151604051632b2076e360e11b815260ff909116600482015273__$f7122df39a5f3bad28f404771cd5173291$__90635640edc690602401602060405180830381865af41580156110b0573d6000803e3d6000fd5b505050506040513d601f19601f820116820180604052508101906110d49190611be4565b156110e857608082015160a0830152611234565b6101208101516001600160401b0316156111145761110a816101200151610d36565b60a0830152611234565b60405163023aa9ab60e61b81527fcd775f2396f9f13f12bcf8ca32e21df66559a8adc3944d0591127e7731f7ab8560048201527f00000000000000000000000000000000000000000000000000000000000000006001600160a01b031690638eaa6ac090602401602060405180830381865afa158015611198573d6000803e3d6000fd5b505050506040513d601f19601f820116820180604052508101906111bc9190611c3e565b6001600160a01b031663a9bf985883602001516040518263ffffffff1660e01b81526004016111ed91815260200190565b602060405180830381865afa15801561120a573d6000803e3d6000fd5b505050506040513d601f19601f8201168201806040525081019061122e9190611de3565b60a08301525b6112418160c00151610d36565b60c083015260e081015161125490610d36565b60e08301526060810151604051635b7d0f6960e11b815260ff909116600482015273__$f7122df39a5f3bad28f404771cd5173291$__9063b6fa1ed290602401602060405180830381865af41580156112b1573d6000803e3d6000fd5b505050506040513d601f19601f820116820180604052508101906112d59190611be4565b1561149e576112e8816101400151610d36565b6101208301526101608101516112fd90610d36565b61014083015260405163023aa9ab60e61b81527f3cb99135f7a7c088d9085b446345038a22a85f4e8fe072b0e1b66d97243e745860048201526000907f00000000000000000000000000000000000000000000000000000000000000006001600160a01b031690638eaa6ac090602401602060405180830381865afa15801561138a573d6000803e3d6000fd5b505050506040513d601f19601f820116820180604052508101906113ae9190611c3e565b6001600160a01b0316636464b68a846020015185604001516040518363ffffffff1660e01b81526004016113ec929190918252602082015260400190565b606060405180830381865afa158015611409573d6000803e3d6000fd5b505050506040513d601f19601f8201168201806040525081019061142d9190611e3b565b50915050806114725760405162461bcd60e51b8152602060048201526011602482015270145d5bdd194e88139bdd081c5d5bdd1959607a1b60448201526064016105f0565b6101408301516114829082611c1c565b8361012001516114929190611c96565b610100840152506114b3565b6114ac816101000151610d36565b6101008301525b604051630212d6cb60e21b815273__$f7122df39a5f3bad28f404771cd5173291$__9063084b5b2c906114ea908490600401611e69565b602060405180830381865af4158015611507573d6000803e3d6000fd5b505050506040513d601f19601f8201168201806040525081019061152b9190611de3565b6101608301526040810151610180830190600581111561154d5761154d611974565b9081600581111561156057611560611974565b9052506060015160ff166101a082015292915050565b6000546001600160a01b03620100009091041633146105f95760405162461bcd60e51b815260206004820152601f60248201527f416c6c6f77616e63653a2063616c6c6572206d757374206265204f776e65720060448201526064016105f0565b600080546001600160a01b038381166201000081810262010000600160b01b0319851617855560405193049190911692909183917f8be0079c531659141344cd1fd0a4f28419497f9722a3daafe3b4186f6b6457e091a35050565b60608161163f5760045491505b816001600160401b0381111561165757611657611ccb565b60405190808252806020026020018201604052801561169057816020015b61167d611856565b8152602001906001900390816116755790505b50600454909150600090845b8181101561184c578483106116b05761184c565b600060056000600484815481106116c9576116c9611ce1565b90600052602060002001548152602001908152602001600020905073__$f7122df39a5f3bad28f404771cd5173291$__63084b5b2c826040518263ffffffff1660e01b815260040161171b9190611f5c565b602060405180830381865af4158015611738573d6000803e3d6000fd5b505050506040513d601f19601f8201168201806040525081019061175c9190611de3565b15806117e05750604051630212d6cb60e21b8152429073__$f7122df39a5f3bad28f404771cd5173291$__9063084b5b2c9061179c908590600401611f5c565b602060405180830381865af41580156117b9573d6000803e3d6000fd5b505050506040513d601f19601f820116820180604052508101906117dd9190611de3565b10155b156118395761180d600483815481106117fb576117fb611ce1565b90600052602060002001546000610e0d565b85858151811061181f5761181f611ce1565b6020026020010181905250838061183590611dfc565b9450505b508061184481611dfc565b91505061169c565b5050815292915050565b604051806101c0016040528060006001600160a01b031681526020016000801916815260200160008019168152602001600081526020016000815260200160008152602001600081526020016000815260200160008152602001600081526020016000815260200160008152602001600060058111156118d8576118d8611974565b8152600060209091015290565b600080858511156118f557600080fd5b8386111561190257600080fd5b5050820193919092039150565b60006020828403121561192157600080fd5b81356001600160e01b0319811681146106e957600080fd5b6000806040838503121561194c57600080fd5b50508035926020909101359150565b60006020828403121561196d57600080fd5b5035919050565b634e487b7160e01b600052602160045260246000fd5b600681106119a857634e487b7160e01b600052602160045260246000fd5b9052565b80516001600160a01b031682526020810151602083015260408101516040830152606081015160608301526080810151608083015260a081015160a083015260c081015160c083015260e081015160e083015261010080820151818401525061012080820151818401525061014080820151818401525061016080820151818401525061018080820151611a428285018261198a565b50506101a09081015160ff16910152565b6101c0810161064282846119ac565b6001600160a01b0381168114610df957600080fd5b600060208284031215611a8957600080fd5b81356106e981611a62565b6020808252825182820181905260009190848201906040850190845b81811015611ad757611ac38385516119ac565b928401926101c09290920191600101611ab0565b50909695505050505050565b6000602080830181845280855180835260408601915060408160051b87010192508387016000805b83811015611b5f57888603603f19018552825180518088529088019088880190845b81811015611b495783518352928a0192918a0191600101611b2d565b5090975050509386019391860191600101611b0b565b509398975050505050505050565b600060208284031215611b7f57600080fd5b813565ffffffffffff811681146106e957600080fd5b600060208284031215611ba757600080fd5b81356001600160401b03811681146106e957600080fd5b600060208284031215611bd057600080fd5b813563ffffffff811681146106e957600080fd5b600060208284031215611bf657600080fd5b815180151581146106e957600080fd5b634e487b7160e01b600052601160045260246000fd5b600082611c3957634e487b7160e01b600052601260045260246000fd5b500490565b600060208284031215611c5057600080fd5b81516106e981611a62565b6000825160005b81811015611c7c5760208186018101518583015201611c62565b81811115611c8b576000828501525b509190910192915050565b6000816000190483118215151615611cb057611cb0611c06565b500290565b634e487b7160e01b600052600160045260246000fd5b634e487b7160e01b600052604160045260246000fd5b634e487b7160e01b600052603260045260246000fd5b60006020808385031215611d0a57600080fd5b82516001600160401b0380821115611d2157600080fd5b818501915085601f830112611d3557600080fd5b815181811115611d4757611d47611ccb565b8060051b604051601f19603f83011681018181108582111715611d6c57611d6c611ccb565b604052918252848201925083810185019188831115611d8a57600080fd5b938501935b82851015611da857845184529385019392850192611d8f565b98975050505050505050565b600082821015611dc657611dc6611c06565b500390565b60008219821115611dde57611dde611c06565b500190565b600060208284031215611df557600080fd5b5051919050565b6000600019821415611e1057611e10611c06565b5060010190565b60008060408385031215611e2a57600080fd5b505080516020909101519092909150565b600080600060608486031215611e5057600080fd5b8351925060208401519150604084015190509250925092565b81518152602080830151610180830191611e8d908401826001600160a01b03169052565b506040830151611ea0604084018261198a565b506060830151611eb5606084018260ff169052565b506080830151608083015260a0830151611eda60a08401826001600160401b03169052565b5060c0830151611ef560c08401826001600160401b03169052565b5060e0830151611f1060e08401826001600160401b03169052565b50610100838101516001600160401b039081169184019190915261012080850151821690840152610140808501518216908401526101608085015191821681850152905b505092915050565b8154815260018201546001600160a01b0381166020830152610180820190611f8d6040840160ff8360a01c1661198a565b60a81c60ff1660608301526002830154608083015260038301546001600160401b0380821660a0850152604082901c811660c0850152611fdd60e08501828460801c166001600160401b03169052565b60c082901c61010085015260048501546001600160401b0382821616610120860152915061201c6101408501828460401c166001600160401b03169052565b611f546101608501828460801c166001600160401b0316905256fea26469706673582212208f863fb9964ac7bf3c02d0b264483d2f4f5adb39e17f982033c5146f48363b9e64736f6c634300080b0033","language":"Solidity","natspec":{"kind":"dev","methods":{"ownerOf()":{"details":"Returns the address of the current owner."},"renounceOwnership()":{"details":"Leaves the contract without owner. It will not be possible to call `onlyOwner` functions anymore. Can only be called by the current owner. NOTE: Renouncing ownership will leave the contract without an owner, thereby removing any functionality that is only available to the owner."},"supportsInterface(bytes4)":{"details":"Returns true if this contract implements the interface defined by `interfaceId`. See the corresponding https://eips.ethereum.org/EIPS/eip-165#how-interfaces-are-identified[EIP section] to learn more about how these ids are created. This function call must use less than 30 000 gas."},"transferOwnership(address)":{"details":"Transfers ownership of the contract to a new account (`newOwner`). Can only be called by the current owner."}},"version":1},"opcodes":"PUSH1 0x80 PUSH1 0x40 MSTORE CALLVALUE DUP1 ISZERO PUSH2 0x10 JUMPI PUSH1 0x0 DUP1 REVERT JUMPDEST POP PUSH1 0x4 CALLDATASIZE LT PUSH2 0x14D JUMPI PUSH1 0x0 CALLDATALOAD PUSH1 0xE0 SHR DUP1 PUSH4 0x7AF6649A GT PUSH2 0xC3 JUMPI DUP1 PUSH4 0xB03FD40D GT PUSH2 0x7C JUMPI DUP1 PUSH4 0xB03FD40D EQ PUSH2 0x39F JUMPI DUP1 PUSH4 0xCCC07959 EQ PUSH2 0x3B2 JUMPI DUP1 PUSH4 0xD6935858 EQ PUSH2 0x3D9 JUMPI DUP1 PUSH4 0xE4B16144 EQ PUSH2 0x3E1 JUMPI DUP1 PUSH4 0xF2FDE38B EQ PUSH2 0x3F4 JUMPI DUP1 PUSH4 0xFEAB4454 EQ PUSH2 0x407 JUMPI PUSH2 0x14D JUMP JUMPDEST DUP1 PUSH4 0x7AF6649A EQ PUSH2 0x302 JUMPI DUP1 PUSH4 0x854BA99D EQ PUSH2 0x323 JUMPI DUP1 PUSH4 0x8DA5CB5B EQ PUSH2 0x32B JUMPI DUP1 PUSH4 0x975BD542 EQ PUSH2 0x356 JUMPI DUP1 PUSH4 0x97962076 EQ PUSH2 0x369 JUMPI DUP1 PUSH4 0xAF640D0F EQ PUSH2 0x379 JUMPI PUSH2 0x14D JUMP JUMPDEST DUP1 PUSH4 0x2F54BF6E GT PUSH2 0x115 JUMPI DUP1 PUSH4 0x2F54BF6E EQ PUSH2 0x25F JUMPI DUP1 PUSH4 0x50FD7367 EQ PUSH2 0x287 JUMPI DUP1 PUSH4 0x62965141 EQ PUSH2 0x2A7 JUMPI DUP1 PUSH4 0x6B2B091A EQ PUSH2 0x2D2 JUMPI DUP1 PUSH4 0x715018A6 EQ PUSH2 0x2F2 JUMPI DUP1 PUSH4 0x72EA61BF EQ PUSH2 0x2FA JUMPI PUSH2 0x14D JUMP JUMPDEST DUP1 PUSH4 0x1FFC9A7 EQ PUSH2 0x1D2 JUMPI DUP1 PUSH4 0x5D6BD9C EQ PUSH2 0x1FA JUMPI DUP1 PUSH4 0x1EF4590D EQ PUSH2 0x204 JUMPI DUP1 PUSH4 0x21603F43 EQ PUSH2 0x217 JUMPI DUP1 PUSH4 0x2203616D EQ PUSH2 0x237 JUMPI JUMPDEST PUSH2 0x155 PUSH2 0x431 JUMP JUMPDEST PUSH1 0x0 PUSH2 0x165 PUSH1 0x24 PUSH1 0x4 CALLDATASIZE DUP5 PUSH2 0x18E5 JUMP JUMPDEST DUP1 DUP1 PUSH1 0x1F ADD PUSH1 0x20 DUP1 SWAP2 DIV MUL PUSH1 0x20 ADD PUSH1 0x40 MLOAD SWAP1 DUP2 ADD PUSH1 0x40 MSTORE DUP1 SWAP4 SWAP3 SWAP2 SWAP1 DUP2 DUP2 MSTORE PUSH1 0x20 ADD DUP4 DUP4 DUP1 DUP3 DUP5 CALLDATACOPY PUSH1 0x0 SWAP3 ADD DUP3 SWAP1 MSTORE POP PUSH1 0x20 DUP6 ADD MLOAD SWAP5 SWAP6 POP SWAP3 POP POP CALLDATASIZE PUSH1 0x23 NOT DUP2 ADD SWAP2 POP PUSH1 0x1F NOT ADD PUSH1 0x4 DUP4 DUP1 CALLDATACOPY DUP2 PUSH1 0x24 PUSH1 0x4 CALLDATACOPY PUSH1 0x0 DUP1 DUP3 PUSH1 0x0 DUP8 GAS DELEGATECALL SWAP3 POP POP POP PUSH2 0x1CD DUP2 PUSH2 0x5FB JUMP JUMPDEST POP POP POP STOP JUMPDEST PUSH2 0x1E5 PUSH2 0x1E0 CALLDATASIZE PUSH1 0x4 PUSH2 0x190F JUMP JUMPDEST PUSH2 0x611 JUMP JUMPDEST PUSH1 0x40 MLOAD SWAP1 ISZERO ISZERO DUP2 MSTORE PUSH1 0x20 ADD JUMPDEST PUSH1 0x40 MLOAD DUP1 SWAP2 SUB SWAP1 RETURN JUMPDEST PUSH2 0x202 PUSH2 0x648 JUMP JUMPDEST STOP JUMPDEST PUSH2 0x1E5 PUSH2 0x212 CALLDATASIZE PUSH1 0x4 PUSH2 0x1939 JUMP JUMPDEST PUSH2 0x65F JUMP JUMPDEST PUSH2 0x22A PUSH2 0x225 CALLDATASIZE PUSH1 0x4 PUSH2 0x195B JUMP JUMPDEST PUSH2 0x6F0 JUMP JUMPDEST PUSH1 0x40 MLOAD PUSH2 0x1F1 SWAP2 SWAP1 PUSH2 0x1A53 JUMP JUMPDEST PUSH2 0x24A PUSH2 0x245 CALLDATASIZE PUSH1 0x4 PUSH2 0x195B JUMP JUMPDEST PUSH2 0x703 JUMP JUMPDEST PUSH1 0x40 MLOAD PUSH4 0xFFFFFFFF SWAP1 SWAP2 AND DUP2 MSTORE PUSH1 0x20 ADD PUSH2 0x1F1 JUMP JUMPDEST PUSH2 0x1E5 PUSH2 0x26D CALLDATASIZE PUSH1 0x4 PUSH2 0x1A77 JUMP JUMPDEST PUSH1 0x0 SLOAD PUSH3 0x10000 SWAP1 DIV PUSH1 0x1 PUSH1 0x1 PUSH1 0xA0 SHL SUB SWAP1 DUP2 AND SWAP2 AND EQ SWAP1 JUMP JUMPDEST PUSH2 0x29A PUSH2 0x295 CALLDATASIZE PUSH1 0x4 PUSH2 0x1939 JUMP JUMPDEST PUSH2 0x714 JUMP JUMPDEST PUSH1 0x40 MLOAD PUSH2 0x1F1 SWAP2 SWAP1 PUSH2 0x1A94 JUMP JUMPDEST PUSH2 0x2BA PUSH2 0x2B5 CALLDATASIZE PUSH1 0x4 PUSH2 0x195B JUMP JUMPDEST PUSH2 0x873 JUMP JUMPDEST PUSH1 0x40 MLOAD PUSH1 0x1 PUSH1 0x1 PUSH1 0x40 SHL SUB SWAP1 SWAP2 AND DUP2 MSTORE PUSH1 0x20 ADD PUSH2 0x1F1 JUMP JUMPDEST PUSH2 0x2E5 PUSH2 0x2E0 CALLDATASIZE PUSH1 0x4 PUSH2 0x195B JUMP JUMPDEST PUSH2 0x8A5 JUMP JUMPDEST PUSH1 0x40 MLOAD PUSH2 0x1F1 SWAP2 SWAP1 PUSH2 0x1AE3 JUMP JUMPDEST PUSH2 0x202 PUSH2 0xCC7 JUMP JUMPDEST PUSH2 0x202 PUSH2 0xCD9 JUMP JUMPDEST PUSH2 0x315 PUSH2 0x310 CALLDATASIZE PUSH1 0x4 PUSH2 0x1B6D JUMP JUMPDEST PUSH2 0xCF3 JUMP JUMPDEST PUSH1 0x40 MLOAD SWAP1 DUP2 MSTORE PUSH1 0x20 ADD PUSH2 0x1F1 JUMP JUMPDEST PUSH2 0x1E5 PUSH2 0xD0C JUMP JUMPDEST PUSH1 0x0 SLOAD PUSH3 0x10000 SWAP1 DIV PUSH1 0x1 PUSH1 0x1 PUSH1 0xA0 SHL SUB AND JUMPDEST PUSH1 0x40 MLOAD PUSH1 0x1 PUSH1 0x1 PUSH1 0xA0 SHL SUB SWAP1 SWAP2 AND DUP2 MSTORE PUSH1 0x20 ADD PUSH2 0x1F1 JUMP JUMPDEST PUSH2 0x29A PUSH2 0x364 CALLDATASIZE PUSH1 0x4 PUSH2 0x1939 JUMP JUMPDEST PUSH2 0xD2A JUMP JUMPDEST PUSH1 0x0 SLOAD PUSH2 0x100 SWAP1 DIV PUSH1 0xFF AND PUSH2 0x1E5 JUMP JUMPDEST PUSH32 0x2B53F13A2ED1DACB652F78E48A76FEB68150760EFC65D85EC10A571B9C6348D7 PUSH2 0x315 JUMP JUMPDEST PUSH2 0x315 PUSH2 0x3AD CALLDATASIZE PUSH1 0x4 PUSH2 0x1B95 JUMP JUMPDEST PUSH2 0xD36 JUMP JUMPDEST PUSH2 0x33E PUSH32 0x0 DUP2 JUMP JUMPDEST PUSH2 0x202 PUSH2 0xD50 JUMP JUMPDEST PUSH2 0x315 PUSH2 0x3EF CALLDATASIZE PUSH1 0x4 PUSH2 0x1BBE JUMP JUMPDEST PUSH2 0xD6C JUMP JUMPDEST PUSH2 0x202 PUSH2 0x402 CALLDATASIZE PUSH1 0x4 PUSH2 0x1A77 JUMP JUMPDEST PUSH2 0xD83 JUMP JUMPDEST PUSH2 0x41A PUSH2 0x415 CALLDATASIZE PUSH1 0x4 PUSH2 0x195B JUMP JUMPDEST PUSH2 0xDFC JUMP JUMPDEST PUSH1 0x40 MLOAD PUSH6 0xFFFFFFFFFFFF SWAP1 SWAP2 AND DUP2 MSTORE PUSH1 0x20 ADD PUSH2 0x1F1 JUMP JUMPDEST PUSH1 0x0 SLOAD PUSH1 0x1 PUSH1 0x1 PUSH1 0xA0 SHL SUB PUSH3 0x10000 SWAP1 SWAP2 DIV AND CALLER EQ DUP1 PUSH2 0x4E4 JUMPI POP PUSH1 0x1 PUSH1 0x1 PUSH1 0xA0 SHL SUB PUSH32 0x0 AND PUSH4 0x16279055 CALLER PUSH1 0x40 MLOAD PUSH1 0x1 PUSH1 0x1 PUSH1 0xE0 SHL SUB NOT PUSH1 0xE0 DUP5 SWAP1 SHL AND DUP2 MSTORE PUSH1 0x1 PUSH1 0x1 PUSH1 0xA0 SHL SUB SWAP1 SWAP2 AND PUSH1 0x4 DUP3 ADD MSTORE PUSH1 0x24 ADD PUSH1 0x20 PUSH1 0x40 MLOAD DUP1 DUP4 SUB DUP2 DUP7 GAS STATICCALL ISZERO DUP1 ISZERO PUSH2 0x4C0 JUMPI RETURNDATASIZE PUSH1 0x0 DUP1 RETURNDATACOPY RETURNDATASIZE PUSH1 0x0 REVERT JUMPDEST POP POP POP POP PUSH1 0x40 MLOAD RETURNDATASIZE PUSH1 0x1F NOT PUSH1 0x1F DUP3 ADD AND DUP3 ADD DUP1 PUSH1 0x40 MSTORE POP DUP2 ADD SWAP1 PUSH2 0x4E4 SWAP2 SWAP1 PUSH2 0x1BE4 JUMP JUMPDEST DUP1 PUSH2 0x582 JUMPI POP PUSH1 0x1 PUSH1 0x1 PUSH1 0xA0 SHL SUB PUSH32 0x0 AND PUSH4 0x6D70F7AE CALLER PUSH1 0x40 MLOAD PUSH1 0x1 PUSH1 0x1 PUSH1 0xE0 SHL SUB NOT PUSH1 0xE0 DUP5 SWAP1 SHL AND DUP2 MSTORE PUSH1 0x1 PUSH1 0x1 PUSH1 0xA0 SHL SUB SWAP1 SWAP2 AND PUSH1 0x4 DUP3 ADD MSTORE PUSH1 0x24 ADD PUSH1 0x20 PUSH1 0x40 MLOAD DUP1 DUP4 SUB DUP2 DUP7 GAS STATICCALL ISZERO DUP1 ISZERO PUSH2 0x55E JUMPI RETURNDATASIZE PUSH1 0x0 DUP1 RETURNDATACOPY RETURNDATASIZE PUSH1 0x0 REVERT JUMPDEST POP POP POP POP PUSH1 0x40 MLOAD RETURNDATASIZE PUSH1 0x1F NOT PUSH1 0x1F DUP3 ADD AND DUP3 ADD DUP1 PUSH1 0x40 MSTORE POP DUP2 ADD SWAP1 PUSH2 0x582 SWAP2 SWAP1 PUSH2 0x1BE4 JUMP JUMPDEST PUSH2 0x5F9 JUMPI PUSH1 0x40 MLOAD PUSH3 0x461BCD PUSH1 0xE5 SHL DUP2 MSTORE PUSH1 0x20 PUSH1 0x4 DUP3 ADD MSTORE PUSH1 0x39 PUSH1 0x24 DUP3 ADD MSTORE PUSH32 0x416C6C6F77616E63653A2063616C6C6572206D757374206265205265706F7369 PUSH1 0x44 DUP3 ADD MSTORE PUSH32 0x746F727920436F6E7472616374206F72204F70657261746F7200000000000000 PUSH1 0x64 DUP3 ADD MSTORE PUSH1 0x84 ADD JUMPDEST PUSH1 0x40 MLOAD DUP1 SWAP2 SUB SWAP1 REVERT JUMPDEST JUMP JUMPDEST RETURNDATASIZE PUSH1 0x0 DUP1 RETURNDATACOPY DUP1 DUP1 ISZERO PUSH2 0x60C JUMPI RETURNDATASIZE PUSH1 0x0 RETURN JUMPDEST RETURNDATASIZE PUSH1 0x0 REVERT JUMPDEST PUSH1 0x0 PUSH1 0x1 PUSH1 0x1 PUSH1 0xE0 SHL SUB NOT DUP3 AND PUSH4 0x1FFC9A7 PUSH1 0xE0 SHL EQ DUP1 PUSH2 0x642 JUMPI POP PUSH1 0x1 PUSH1 0x1 PUSH1 0xE0 SHL SUB NOT DUP3 AND PUSH4 0x15D37895 PUSH1 0xE3 SHL EQ JUMPDEST SWAP3 SWAP2 POP POP JUMP JUMPDEST PUSH2 0x650 PUSH2 0x431 JUMP JUMPDEST PUSH2 0x5F9 PUSH1 0x0 DUP1 SLOAD PUSH1 0xFF NOT AND SWAP1 SSTORE JUMP JUMPDEST PUSH1 0x0 DUP3 DUP2 MSTORE PUSH1 0x1 PUSH1 0x20 MSTORE PUSH1 0x40 DUP1 DUP3 KECCAK256 SWAP1 MLOAD PUSH4 0x2BE5DB23 PUSH1 0xE1 SHL DUP2 MSTORE PUSH1 0x4 DUP2 ADD SWAP2 SWAP1 SWAP2 MSTORE PUSH1 0x24 DUP2 ADD DUP4 SWAP1 MSTORE PUSH20 0x0 SWAP1 PUSH4 0x57CBB646 SWAP1 PUSH1 0x44 ADD PUSH1 0x20 PUSH1 0x40 MLOAD DUP1 DUP4 SUB DUP2 DUP7 GAS DELEGATECALL ISZERO DUP1 ISZERO PUSH2 0x6C5 JUMPI RETURNDATASIZE PUSH1 0x0 DUP1 RETURNDATACOPY RETURNDATASIZE PUSH1 0x0 REVERT JUMPDEST POP POP POP POP PUSH1 0x40 MLOAD RETURNDATASIZE PUSH1 0x1F NOT PUSH1 0x1F DUP3 ADD AND DUP3 ADD DUP1 PUSH1 0x40 MSTORE POP DUP2 ADD SWAP1 PUSH2 0x6E9 SWAP2 SWAP1 PUSH2 0x1BE4 JUMP JUMPDEST SWAP4 SWAP3 POP POP POP JUMP JUMPDEST PUSH2 0x6F8 PUSH2 0x1856 JUMP JUMPDEST PUSH2 0x642 DUP3 PUSH1 0x0 PUSH2 0xE0D JUMP JUMPDEST PUSH1 0x0 PUSH2 0x642 PUSH5 0xE8D4A51000 DUP4 PUSH2 0x1C1C JUMP JUMPDEST PUSH1 0x40 MLOAD PUSH4 0x23AA9AB PUSH1 0xE6 SHL DUP2 MSTORE PUSH32 0x2E7A327EF83C2AF7579C6634F2F5604519800C5F07626F27BD602FD11ED8E6EC PUSH1 0x4 DUP3 ADD MSTORE PUSH1 0x60 SWAP1 PUSH1 0x0 SWAP1 PUSH1 0x1 PUSH1 0x1 PUSH1 0xA0 SHL SUB PUSH32 0x0 AND SWAP1 PUSH4 0x8EAA6AC0 SWAP1 PUSH1 0x24 ADD PUSH1 0x20 PUSH1 0x40 MLOAD DUP1 DUP4 SUB DUP2 DUP7 GAS STATICCALL ISZERO DUP1 ISZERO PUSH2 0x79E JUMPI RETURNDATASIZE PUSH1 0x0 DUP1 RETURNDATACOPY RETURNDATASIZE PUSH1 0x0 REVERT JUMPDEST POP POP POP POP PUSH1 0x40 MLOAD RETURNDATASIZE PUSH1 0x1F NOT PUSH1 0x1F DUP3 ADD AND DUP3 ADD DUP1 PUSH1 0x40 MSTORE POP DUP2 ADD SWAP1 PUSH2 0x7C2 SWAP2 SWAP1 PUSH2 0x1C3E JUMP JUMPDEST PUSH1 0x40 DUP1 MLOAD ADDRESS PUSH1 0x24 DUP3 ADD MSTORE PUSH1 0x44 DUP2 ADD DUP8 SWAP1 MSTORE PUSH1 0x64 DUP1 DUP3 ADD DUP8 SWAP1 MSTORE DUP3 MLOAD DUP1 DUP4 SUB SWAP1 SWAP2 ADD DUP2 MSTORE PUSH1 0x84 SWAP1 SWAP2 ADD DUP3 MSTORE PUSH1 0x20 DUP2 ADD DUP1 MLOAD PUSH1 0x1 PUSH1 0x1 PUSH1 0xE0 SHL SUB AND PUSH4 0x4BADEAA1 PUSH1 0xE1 SHL OR SWAP1 MSTORE SWAP1 MLOAD PUSH1 0x1 PUSH1 0x1 PUSH1 0xA0 SHL SUB SWAP3 SWAP1 SWAP3 AND SWAP2 PUSH2 0x81F SWAP2 SWAP1 PUSH2 0x1C5B JUMP JUMPDEST PUSH1 0x0 PUSH1 0x40 MLOAD DUP1 DUP4 SUB DUP2 DUP6 GAS STATICCALL SWAP2 POP POP RETURNDATASIZE DUP1 PUSH1 0x0 DUP2 EQ PUSH2 0x85A JUMPI PUSH1 0x40 MLOAD SWAP2 POP PUSH1 0x1F NOT PUSH1 0x3F RETURNDATASIZE ADD AND DUP3 ADD PUSH1 0x40 MSTORE RETURNDATASIZE DUP3 MSTORE RETURNDATASIZE PUSH1 0x0 PUSH1 0x20 DUP5 ADD RETURNDATACOPY PUSH2 0x85F JUMP JUMPDEST PUSH1 0x60 SWAP2 POP JUMPDEST POP POP SWAP1 POP PUSH2 0x86C DUP2 PUSH2 0x5FB JUMP JUMPDEST POP SWAP3 SWAP2 POP POP JUMP JUMPDEST PUSH1 0x0 DUP1 PUSH2 0x885 PUSH5 0x2540BE400 DUP5 PUSH2 0x1C1C JUMP JUMPDEST SWAP1 POP DUP3 PUSH2 0x897 DUP3 PUSH5 0x2540BE400 PUSH2 0x1C96 JUMP JUMPDEST GT ISZERO PUSH2 0x642 JUMPI PUSH2 0x642 PUSH2 0x1CB5 JUMP JUMPDEST PUSH1 0x0 DUP2 DUP2 MSTORE PUSH1 0x1 PUSH1 0x20 SWAP1 DUP2 MSTORE PUSH1 0x40 DUP1 DUP4 KECCAK256 DUP1 SLOAD DUP3 MLOAD DUP2 DUP6 MUL DUP2 ADD DUP6 ADD SWAP1 SWAP4 MSTORE DUP1 DUP4 MSTORE PUSH1 0x60 SWAP5 SWAP4 DUP4 ADD DUP3 DUP3 DUP1 ISZERO PUSH2 0x8FA JUMPI PUSH1 0x20 MUL DUP3 ADD SWAP2 SWAP1 PUSH1 0x0 MSTORE PUSH1 0x20 PUSH1 0x0 KECCAK256 SWAP1 JUMPDEST DUP2 SLOAD DUP2 MSTORE PUSH1 0x20 ADD SWAP1 PUSH1 0x1 ADD SWAP1 DUP1 DUP4 GT PUSH2 0x8E6 JUMPI JUMPDEST POP POP POP POP POP SWAP1 POP DUP1 MLOAD PUSH1 0x1 PUSH1 0x1 PUSH1 0x40 SHL SUB DUP2 GT ISZERO PUSH2 0x91A JUMPI PUSH2 0x91A PUSH2 0x1CCB JUMP JUMPDEST PUSH1 0x40 MLOAD SWAP1 DUP1 DUP3 MSTORE DUP1 PUSH1 0x20 MUL PUSH1 0x20 ADD DUP3 ADD PUSH1 0x40 MSTORE DUP1 ISZERO PUSH2 0x94D JUMPI DUP2 PUSH1 0x20 ADD JUMPDEST PUSH1 0x60 DUP2 MSTORE PUSH1 0x20 ADD SWAP1 PUSH1 0x1 SWAP1 SUB SWAP1 DUP2 PUSH2 0x938 JUMPI SWAP1 POP JUMPDEST POP SWAP2 POP PUSH1 0x0 DUP1 JUMPDEST DUP3 MLOAD DUP2 LT ISZERO PUSH2 0xC74 JUMPI PUSH32 0x0 PUSH1 0x1 PUSH1 0x1 PUSH1 0xA0 SHL SUB AND PUSH4 0x38A699A4 DUP5 DUP4 DUP2 MLOAD DUP2 LT PUSH2 0x99E JUMPI PUSH2 0x99E PUSH2 0x1CE1 JUMP JUMPDEST PUSH1 0x20 MUL PUSH1 0x20 ADD ADD MLOAD PUSH1 0x40 MLOAD DUP3 PUSH4 0xFFFFFFFF AND PUSH1 0xE0 SHL DUP2 MSTORE PUSH1 0x4 ADD PUSH2 0x9C4 SWAP2 DUP2 MSTORE PUSH1 0x20 ADD SWAP1 JUMP JUMPDEST PUSH1 0x20 PUSH1 0x40 MLOAD DUP1 DUP4 SUB DUP2 DUP7 GAS STATICCALL ISZERO DUP1 ISZERO PUSH2 0x9E1 JUMPI RETURNDATASIZE PUSH1 0x0 DUP1 RETURNDATACOPY RETURNDATASIZE PUSH1 0x0 REVERT JUMPDEST POP POP POP POP PUSH1 0x40 MLOAD RETURNDATASIZE PUSH1 0x1F NOT PUSH1 0x1F DUP3 ADD AND DUP3 ADD DUP1 PUSH1 0x40 MSTORE POP DUP2 ADD SWAP1 PUSH2 0xA05 SWAP2 SWAP1 PUSH2 0x1BE4 JUMP JUMPDEST PUSH2 0xA0E JUMPI PUSH2 0xC62 JUMP JUMPDEST PUSH1 0x0 PUSH32 0x0 PUSH1 0x1 PUSH1 0x1 PUSH1 0xA0 SHL SUB AND PUSH4 0x27EE9DC2 DUP6 DUP5 DUP2 MLOAD DUP2 LT PUSH2 0xA51 JUMPI PUSH2 0xA51 PUSH2 0x1CE1 JUMP JUMPDEST PUSH1 0x20 MUL PUSH1 0x20 ADD ADD MLOAD PUSH1 0x40 MLOAD DUP3 PUSH4 0xFFFFFFFF AND PUSH1 0xE0 SHL DUP2 MSTORE PUSH1 0x4 ADD PUSH2 0xA77 SWAP2 DUP2 MSTORE PUSH1 0x20 ADD SWAP1 JUMP JUMPDEST PUSH1 0x0 PUSH1 0x40 MLOAD DUP1 DUP4 SUB DUP2 DUP7 GAS STATICCALL ISZERO DUP1 ISZERO PUSH2 0xA94 JUMPI RETURNDATASIZE PUSH1 0x0 DUP1 RETURNDATACOPY RETURNDATASIZE PUSH1 0x0 REVERT JUMPDEST POP POP POP POP PUSH1 0x40 MLOAD RETURNDATASIZE PUSH1 0x0 DUP3 RETURNDATACOPY PUSH1 0x1F RETURNDATASIZE SWAP1 DUP2 ADD PUSH1 0x1F NOT AND DUP3 ADD PUSH1 0x40 MSTORE PUSH2 0xABC SWAP2 SWAP1 DUP2 ADD SWAP1 PUSH2 0x1CF7 JUMP JUMPDEST SWAP1 POP PUSH1 0x0 DUP2 MLOAD GT PUSH2 0xB0F JUMPI PUSH1 0x40 MLOAD PUSH3 0x461BCD PUSH1 0xE5 SHL DUP2 MSTORE PUSH1 0x20 PUSH1 0x4 DUP3 ADD MSTORE PUSH1 0x17 PUSH1 0x24 DUP3 ADD MSTORE PUSH32 0x5F706174684C69737420706174682E6C656E6774683E30000000000000000000 PUSH1 0x44 DUP3 ADD MSTORE PUSH1 0x64 ADD PUSH2 0x5F0 JUMP JUMPDEST PUSH1 0x0 JUMPDEST PUSH1 0x1 DUP3 MLOAD PUSH2 0xB20 SWAP2 SWAP1 PUSH2 0x1DB4 JUMP JUMPDEST DUP2 LT ISZERO PUSH2 0xC1A JUMPI PUSH2 0xBFF PUSH20 0x0 PUSH4 0x76254FF9 DUP5 DUP5 DUP2 MLOAD DUP2 LT PUSH2 0xB56 JUMPI PUSH2 0xB56 PUSH2 0x1CE1 JUMP JUMPDEST PUSH1 0x20 MUL PUSH1 0x20 ADD ADD MLOAD DUP6 DUP6 PUSH1 0x1 PUSH2 0xB6C SWAP2 SWAP1 PUSH2 0x1DCB JUMP JUMPDEST DUP2 MLOAD DUP2 LT PUSH2 0xB7C JUMPI PUSH2 0xB7C PUSH2 0x1CE1 JUMP JUMPDEST PUSH1 0x20 MUL PUSH1 0x20 ADD ADD MLOAD PUSH1 0x40 MLOAD DUP4 PUSH4 0xFFFFFFFF AND PUSH1 0xE0 SHL DUP2 MSTORE PUSH1 0x4 ADD PUSH2 0xBAA SWAP3 SWAP2 SWAP1 SWAP2 DUP3 MSTORE PUSH1 0x20 DUP3 ADD MSTORE PUSH1 0x40 ADD SWAP1 JUMP JUMPDEST PUSH1 0x20 PUSH1 0x40 MLOAD DUP1 DUP4 SUB DUP2 DUP7 GAS DELEGATECALL ISZERO DUP1 ISZERO PUSH2 0xBC7 JUMPI RETURNDATASIZE PUSH1 0x0 DUP1 RETURNDATACOPY RETURNDATASIZE PUSH1 0x0 REVERT JUMPDEST POP POP POP POP PUSH1 0x40 MLOAD RETURNDATASIZE PUSH1 0x1F NOT PUSH1 0x1F DUP3 ADD AND DUP3 ADD DUP1 PUSH1 0x40 MSTORE POP DUP2 ADD SWAP1 PUSH2 0xBEB SWAP2 SWAP1 PUSH2 0x1DE3 JUMP JUMPDEST PUSH1 0x0 SWAP1 DUP2 MSTORE PUSH1 0x6 PUSH1 0x20 MSTORE PUSH1 0x40 SWAP1 KECCAK256 SLOAD ISZERO ISZERO SWAP1 JUMP JUMPDEST PUSH2 0xC08 JUMPI PUSH2 0xC1A JUMP JUMPDEST DUP1 PUSH2 0xC12 DUP2 PUSH2 0x1DFC JUMP JUMPDEST SWAP2 POP POP PUSH2 0xB12 JUMP JUMPDEST PUSH1 0x1 DUP3 MLOAD PUSH2 0xC28 SWAP2 SWAP1 PUSH2 0x1DB4 JUMP JUMPDEST DUP2 LT ISZERO PUSH2 0xC36 JUMPI POP POP PUSH2 0xC62 JUMP JUMPDEST DUP2 DUP7 DUP6 PUSH2 0xC42 DUP2 PUSH2 0x1DFC JUMP JUMPDEST SWAP7 POP DUP2 MLOAD DUP2 LT PUSH2 0xC54 JUMPI PUSH2 0xC54 PUSH2 0x1CE1 JUMP JUMPDEST PUSH1 0x20 MUL PUSH1 0x20 ADD ADD DUP2 SWAP1 MSTORE POP POP POP JUMPDEST DUP1 PUSH2 0xC6C DUP2 PUSH2 0x1DFC JUMP JUMPDEST SWAP2 POP POP PUSH2 0x954 JUMP JUMPDEST POP DUP1 DUP4 MSTORE PUSH1 0x0 DUP2 GT PUSH2 0xCC0 JUMPI PUSH1 0x40 MLOAD PUSH3 0x461BCD PUSH1 0xE5 SHL DUP2 MSTORE PUSH1 0x20 PUSH1 0x4 DUP3 ADD MSTORE PUSH1 0x15 PUSH1 0x24 DUP3 ADD MSTORE PUSH21 0x5F6C6973745061746846726F6D20636F756E743E3 PUSH1 0x5C SHL PUSH1 0x44 DUP3 ADD MSTORE PUSH1 0x64 ADD PUSH2 0x5F0 JUMP JUMPDEST POP POP SWAP2 SWAP1 POP JUMP JUMPDEST PUSH2 0xCCF PUSH2 0x1576 JUMP JUMPDEST PUSH2 0x5F9 PUSH1 0x0 PUSH2 0x15D7 JUMP JUMPDEST PUSH2 0xCE1 PUSH2 0x431 JUMP JUMPDEST PUSH2 0x5F9 PUSH1 0x0 DUP1 SLOAD PUSH1 0xFF NOT AND PUSH1 0x1 OR SWAP1 SSTORE JUMP JUMPDEST PUSH1 0x0 PUSH2 0x642 PUSH6 0xFFFFFFFFFFFF DUP4 AND PUSH5 0x174876E800 PUSH2 0x1C96 JUMP JUMPDEST PUSH1 0x0 DUP1 SLOAD PUSH1 0xFF AND DUP1 PUSH2 0xD25 JUMPI POP PUSH1 0x0 SLOAD PUSH2 0x100 SWAP1 DIV PUSH1 0xFF AND JUMPDEST SWAP1 POP SWAP1 JUMP JUMPDEST PUSH1 0x60 PUSH2 0x6E9 DUP4 DUP4 PUSH2 0x1632 JUMP JUMPDEST PUSH1 0x0 PUSH2 0x642 PUSH1 0x1 PUSH1 0x1 PUSH1 0x40 SHL SUB DUP4 AND PUSH5 0x2540BE400 PUSH2 0x1C96 JUMP JUMPDEST PUSH2 0xD58 PUSH2 0x1576 JUMP JUMPDEST PUSH2 0x5F9 PUSH1 0x0 DUP1 SLOAD PUSH2 0xFF00 NOT AND PUSH2 0x100 OR SWAP1 SSTORE JUMP JUMPDEST PUSH1 0x0 PUSH2 0x642 PUSH4 0xFFFFFFFF DUP4 AND PUSH5 0xE8D4A51000 PUSH2 0x1C96 JUMP JUMPDEST PUSH2 0xD8B PUSH2 0x1576 JUMP JUMPDEST PUSH1 0x1 PUSH1 0x1 PUSH1 0xA0 SHL SUB DUP2 AND PUSH2 0xDF0 JUMPI PUSH1 0x40 MLOAD PUSH3 0x461BCD PUSH1 0xE5 SHL DUP2 MSTORE PUSH1 0x20 PUSH1 0x4 DUP3 ADD MSTORE PUSH1 0x26 PUSH1 0x24 DUP3 ADD MSTORE PUSH32 0x4F776E61626C653A206E6577206F776E657220697320746865207A65726F2061 PUSH1 0x44 DUP3 ADD MSTORE PUSH6 0x646472657373 PUSH1 0xD0 SHL PUSH1 0x64 DUP3 ADD MSTORE PUSH1 0x84 ADD PUSH2 0x5F0 JUMP JUMPDEST PUSH2 0xDF9 DUP2 PUSH2 0x15D7 JUMP JUMPDEST POP JUMP JUMPDEST PUSH1 0x0 PUSH2 0x642 PUSH5 0x174876E800 DUP4 PUSH2 0x1C1C JUMP JUMPDEST PUSH2 0xE15 PUSH2 0x1856 JUMP JUMPDEST PUSH1 0x0 DUP4 DUP2 MSTORE PUSH1 0x5 PUSH1 0x20 DUP2 DUP2 MSTORE PUSH1 0x40 DUP1 DUP5 KECCAK256 DUP2 MLOAD PUSH2 0x180 DUP2 ADD DUP4 MSTORE DUP2 SLOAD DUP2 MSTORE PUSH1 0x1 DUP3 ADD SLOAD PUSH1 0x1 PUSH1 0x1 PUSH1 0xA0 SHL SUB DUP2 AND SWAP5 DUP3 ADD SWAP5 SWAP1 SWAP5 MSTORE SWAP4 SWAP1 SWAP3 SWAP2 DUP5 ADD SWAP2 PUSH1 0x1 PUSH1 0xA0 SHL SWAP1 DIV PUSH1 0xFF AND SWAP1 DUP2 GT ISZERO PUSH2 0xE6A JUMPI PUSH2 0xE6A PUSH2 0x1974 JUMP JUMPDEST PUSH1 0x5 DUP2 GT ISZERO PUSH2 0xE7B JUMPI PUSH2 0xE7B PUSH2 0x1974 JUMP JUMPDEST DUP2 MSTORE PUSH1 0x1 DUP3 ADD SLOAD PUSH1 0x1 PUSH1 0xA8 SHL SWAP1 DIV PUSH1 0xFF AND PUSH1 0x20 DUP3 ADD MSTORE PUSH1 0x2 DUP3 ADD SLOAD PUSH1 0x40 DUP1 DUP4 ADD SWAP2 SWAP1 SWAP2 MSTORE PUSH1 0x3 DUP4 ADD SLOAD PUSH1 0x1 PUSH1 0x1 PUSH1 0x40 SHL SUB DUP1 DUP3 AND PUSH1 0x60 DUP6 ADD MSTORE PUSH9 0x10000000000000000 DUP1 DUP4 DIV DUP3 AND PUSH1 0x80 DUP7 ADD MSTORE PUSH1 0x1 PUSH1 0x80 SHL DUP1 DUP5 DIV DUP4 AND PUSH1 0xA0 DUP8 ADD MSTORE PUSH1 0x1 PUSH1 0xC0 SHL SWAP1 SWAP4 DIV DUP3 AND PUSH1 0xC0 DUP7 ADD MSTORE PUSH1 0x4 SWAP6 DUP7 ADD SLOAD DUP1 DUP4 AND PUSH1 0xE0 DUP8 ADD MSTORE SWAP1 DUP2 DIV DUP3 AND PUSH2 0x100 DUP7 ADD MSTORE SWAP2 SWAP1 SWAP2 DIV AND PUSH2 0x120 SWAP1 SWAP3 ADD SWAP2 SWAP1 SWAP2 MSTORE DUP3 MLOAD SWAP1 MLOAD PUSH4 0x657C7E09 PUSH1 0xE0 SHL DUP2 MSTORE SWAP2 DUP3 ADD MSTORE SWAP1 SWAP2 POP PUSH32 0x0 PUSH1 0x1 PUSH1 0x1 PUSH1 0xA0 SHL SUB AND SWAP1 PUSH4 0x657C7E09 SWAP1 PUSH1 0x24 ADD PUSH1 0x40 DUP1 MLOAD DUP1 DUP4 SUB DUP2 DUP7 GAS STATICCALL ISZERO DUP1 ISZERO PUSH2 0xF73 JUMPI RETURNDATASIZE PUSH1 0x0 DUP1 RETURNDATACOPY RETURNDATASIZE PUSH1 0x0 REVERT JUMPDEST POP POP POP POP PUSH1 0x40 MLOAD RETURNDATASIZE PUSH1 0x1F NOT PUSH1 0x1F DUP3 ADD AND DUP3 ADD DUP1 PUSH1 0x40 MSTORE POP DUP2 ADD SWAP1 PUSH2 0xF97 SWAP2 SWAP1 PUSH2 0x1E17 JUMP JUMPDEST PUSH1 0x40 DUP5 ADD MSTORE PUSH1 0x20 DUP4 ADD MSTORE PUSH1 0x80 DUP2 ADD MLOAD PUSH1 0x60 DUP4 ADD MSTORE DUP3 DUP1 PUSH2 0x1030 JUMPI POP PUSH1 0x60 DUP2 ADD MLOAD PUSH1 0x40 MLOAD PUSH4 0x36181B67 PUSH1 0xE1 SHL DUP2 MSTORE PUSH1 0xFF SWAP1 SWAP2 AND PUSH1 0x4 DUP3 ADD MSTORE PUSH20 0x0 SWAP1 PUSH4 0x6C3036CE SWAP1 PUSH1 0x24 ADD PUSH1 0x20 PUSH1 0x40 MLOAD DUP1 DUP4 SUB DUP2 DUP7 GAS DELEGATECALL ISZERO DUP1 ISZERO PUSH2 0x100A JUMPI RETURNDATASIZE PUSH1 0x0 DUP1 RETURNDATACOPY RETURNDATASIZE PUSH1 0x0 REVERT JUMPDEST POP POP POP POP PUSH1 0x40 MLOAD RETURNDATASIZE PUSH1 0x1F NOT PUSH1 0x1F DUP3 ADD AND DUP3 ADD DUP1 PUSH1 0x40 MSTORE POP DUP2 ADD SWAP1 PUSH2 0x102E SWAP2 SWAP1 PUSH2 0x1BE4 JUMP JUMPDEST ISZERO JUMPDEST ISZERO PUSH2 0x14B3 JUMPI PUSH1 0x20 DUP2 ADD MLOAD PUSH1 0x1 PUSH1 0x1 PUSH1 0xA0 SHL SUB AND DUP3 MSTORE PUSH1 0xA0 DUP2 ADD MLOAD PUSH2 0x1053 SWAP1 PUSH2 0xD36 JUMP JUMPDEST PUSH1 0x80 DUP4 ADD MSTORE PUSH1 0x60 DUP2 ADD MLOAD PUSH1 0x40 MLOAD PUSH4 0x2B2076E3 PUSH1 0xE1 SHL DUP2 MSTORE PUSH1 0xFF SWAP1 SWAP2 AND PUSH1 0x4 DUP3 ADD MSTORE PUSH20 0x0 SWAP1 PUSH4 0x5640EDC6 SWAP1 PUSH1 0x24 ADD PUSH1 0x20 PUSH1 0x40 MLOAD DUP1 DUP4 SUB DUP2 DUP7 GAS DELEGATECALL ISZERO DUP1 ISZERO PUSH2 0x10B0 JUMPI RETURNDATASIZE PUSH1 0x0 DUP1 RETURNDATACOPY RETURNDATASIZE PUSH1 0x0 REVERT JUMPDEST POP POP POP POP PUSH1 0x40 MLOAD RETURNDATASIZE PUSH1 0x1F NOT PUSH1 0x1F DUP3 ADD AND DUP3 ADD DUP1 PUSH1 0x40 MSTORE POP DUP2 ADD SWAP1 PUSH2 0x10D4 SWAP2 SWAP1 PUSH2 0x1BE4 JUMP JUMPDEST ISZERO PUSH2 0x10E8 JUMPI PUSH1 0x80 DUP3 ADD MLOAD PUSH1 0xA0 DUP4 ADD MSTORE PUSH2 0x1234 JUMP JUMPDEST PUSH2 0x120 DUP2 ADD MLOAD PUSH1 0x1 PUSH1 0x1 PUSH1 0x40 SHL SUB AND ISZERO PUSH2 0x1114 JUMPI PUSH2 0x110A DUP2 PUSH2 0x120 ADD MLOAD PUSH2 0xD36 JUMP JUMPDEST PUSH1 0xA0 DUP4 ADD MSTORE PUSH2 0x1234 JUMP JUMPDEST PUSH1 0x40 MLOAD PUSH4 0x23AA9AB PUSH1 0xE6 SHL DUP2 MSTORE PUSH32 0xCD775F2396F9F13F12BCF8CA32E21DF66559A8ADC3944D0591127E7731F7AB85 PUSH1 0x4 DUP3 ADD MSTORE PUSH32 0x0 PUSH1 0x1 PUSH1 0x1 PUSH1 0xA0 SHL SUB AND SWAP1 PUSH4 0x8EAA6AC0 SWAP1 PUSH1 0x24 ADD PUSH1 0x20 PUSH1 0x40 MLOAD DUP1 DUP4 SUB DUP2 DUP7 GAS STATICCALL ISZERO DUP1 ISZERO PUSH2 0x1198 JUMPI RETURNDATASIZE PUSH1 0x0 DUP1 RETURNDATACOPY RETURNDATASIZE PUSH1 0x0 REVERT JUMPDEST POP POP POP POP PUSH1 0x40 MLOAD RETURNDATASIZE PUSH1 0x1F NOT PUSH1 0x1F DUP3 ADD AND DUP3 ADD DUP1 PUSH1 0x40 MSTORE POP DUP2 ADD SWAP1 PUSH2 0x11BC SWAP2 SWAP1 PUSH2 0x1C3E JUMP JUMPDEST PUSH1 0x1 PUSH1 0x1 PUSH1 0xA0 SHL SUB AND PUSH4 0xA9BF9858 DUP4 PUSH1 0x20 ADD MLOAD PUSH1 0x40 MLOAD DUP3 PUSH4 0xFFFFFFFF AND PUSH1 0xE0 SHL DUP2 MSTORE PUSH1 0x4 ADD PUSH2 0x11ED SWAP2 DUP2 MSTORE PUSH1 0x20 ADD SWAP1 JUMP JUMPDEST PUSH1 0x20 PUSH1 0x40 MLOAD DUP1 DUP4 SUB DUP2 DUP7 GAS STATICCALL ISZERO DUP1 ISZERO PUSH2 0x120A JUMPI RETURNDATASIZE PUSH1 0x0 DUP1 RETURNDATACOPY RETURNDATASIZE PUSH1 0x0 REVERT JUMPDEST POP POP POP POP PUSH1 0x40 MLOAD RETURNDATASIZE PUSH1 0x1F NOT PUSH1 0x1F DUP3 ADD AND DUP3 ADD DUP1 PUSH1 0x40 MSTORE POP DUP2 ADD SWAP1 PUSH2 0x122E SWAP2 SWAP1 PUSH2 0x1DE3 JUMP JUMPDEST PUSH1 0xA0 DUP4 ADD MSTORE JUMPDEST PUSH2 0x1241 DUP2 PUSH1 0xC0 ADD MLOAD PUSH2 0xD36 JUMP JUMPDEST PUSH1 0xC0 DUP4 ADD MSTORE PUSH1 0xE0 DUP2 ADD MLOAD PUSH2 0x1254 SWAP1 PUSH2 0xD36 JUMP JUMPDEST PUSH1 0xE0 DUP4 ADD MSTORE PUSH1 0x60 DUP2 ADD MLOAD PUSH1 0x40 MLOAD PUSH4 0x5B7D0F69 PUSH1 0xE1 SHL DUP2 MSTORE PUSH1 0xFF SWAP1 SWAP2 AND PUSH1 0x4 DUP3 ADD MSTORE PUSH20 0x0 SWAP1 PUSH4 0xB6FA1ED2 SWAP1 PUSH1 0x24 ADD PUSH1 0x20 PUSH1 0x40 MLOAD DUP1 DUP4 SUB DUP2 DUP7 GAS DELEGATECALL ISZERO DUP1 ISZERO PUSH2 0x12B1 JUMPI RETURNDATASIZE PUSH1 0x0 DUP1 RETURNDATACOPY RETURNDATASIZE PUSH1 0x0 REVERT JUMPDEST POP POP POP POP PUSH1 0x40 MLOAD RETURNDATASIZE PUSH1 0x1F NOT PUSH1 0x1F DUP3 ADD AND DUP3 ADD DUP1 PUSH1 0x40 MSTORE POP DUP2 ADD SWAP1 PUSH2 0x12D5 SWAP2 SWAP1 PUSH2 0x1BE4 JUMP JUMPDEST ISZERO PUSH2 0x149E JUMPI PUSH2 0x12E8 DUP2 PUSH2 0x140 ADD MLOAD PUSH2 0xD36 JUMP JUMPDEST PUSH2 0x120 DUP4 ADD MSTORE PUSH2 0x160 DUP2 ADD MLOAD PUSH2 0x12FD SWAP1 PUSH2 0xD36 JUMP JUMPDEST PUSH2 0x140 DUP4 ADD MSTORE PUSH1 0x40 MLOAD PUSH4 0x23AA9AB PUSH1 0xE6 SHL DUP2 MSTORE PUSH32 0x3CB99135F7A7C088D9085B446345038A22A85F4E8FE072B0E1B66D97243E7458 PUSH1 0x4 DUP3 ADD MSTORE PUSH1 0x0 SWAP1 PUSH32 0x0 PUSH1 0x1 PUSH1 0x1 PUSH1 0xA0 SHL SUB AND SWAP1 PUSH4 0x8EAA6AC0 SWAP1 PUSH1 0x24 ADD PUSH1 0x20 PUSH1 0x40 MLOAD DUP1 DUP4 SUB DUP2 DUP7 GAS STATICCALL ISZERO DUP1 ISZERO PUSH2 0x138A JUMPI RETURNDATASIZE PUSH1 0x0 DUP1 RETURNDATACOPY RETURNDATASIZE PUSH1 0x0 REVERT JUMPDEST POP POP POP POP PUSH1 0x40 MLOAD RETURNDATASIZE PUSH1 0x1F NOT PUSH1 0x1F DUP3 ADD AND DUP3 ADD DUP1 PUSH1 0x40 MSTORE POP DUP2 ADD SWAP1 PUSH2 0x13AE SWAP2 SWAP1 PUSH2 0x1C3E JUMP JUMPDEST PUSH1 0x1 PUSH1 0x1 PUSH1 0xA0 SHL SUB AND PUSH4 0x6464B68A DUP5 PUSH1 0x20 ADD MLOAD DUP6 PUSH1 0x40 ADD MLOAD PUSH1 0x40 MLOAD DUP4 PUSH4 0xFFFFFFFF AND PUSH1 0xE0 SHL DUP2 MSTORE PUSH1 0x4 ADD PUSH2 0x13EC SWAP3 SWAP2 SWAP1 SWAP2 DUP3 MSTORE PUSH1 0x20 DUP3 ADD MSTORE PUSH1 0x40 ADD SWAP1 JUMP JUMPDEST PUSH1 0x60 PUSH1 0x40 MLOAD DUP1 DUP4 SUB DUP2 DUP7 GAS STATICCALL ISZERO DUP1 ISZERO PUSH2 0x1409 JUMPI RETURNDATASIZE PUSH1 0x0 DUP1 RETURNDATACOPY RETURNDATASIZE PUSH1 0x0 REVERT JUMPDEST POP POP POP POP PUSH1 0x40 MLOAD RETURNDATASIZE PUSH1 0x1F NOT PUSH1 0x1F DUP3 ADD AND DUP3 ADD DUP1 PUSH1 0x40 MSTORE POP DUP2 ADD SWAP1 PUSH2 0x142D SWAP2 SWAP1 PUSH2 0x1E3B JUMP JUMPDEST POP SWAP2 POP POP DUP1 PUSH2 0x1472 JUMPI PUSH1 0x40 MLOAD PUSH3 0x461BCD PUSH1 0xE5 SHL DUP2 MSTORE PUSH1 0x20 PUSH1 0x4 DUP3 ADD MSTORE PUSH1 0x11 PUSH1 0x24 DUP3 ADD MSTORE PUSH17 0x145D5BDD194E88139BDD081C5D5BDD1959 PUSH1 0x7A SHL PUSH1 0x44 DUP3 ADD MSTORE PUSH1 0x64 ADD PUSH2 0x5F0 JUMP JUMPDEST PUSH2 0x140 DUP4 ADD MLOAD PUSH2 0x1482 SWAP1 DUP3 PUSH2 0x1C1C JUMP JUMPDEST DUP4 PUSH2 0x120 ADD MLOAD PUSH2 0x1492 SWAP2 SWAP1 PUSH2 0x1C96 JUMP JUMPDEST PUSH2 0x100 DUP5 ADD MSTORE POP PUSH2 0x14B3 JUMP JUMPDEST PUSH2 0x14AC DUP2 PUSH2 0x100 ADD MLOAD PUSH2 0xD36 JUMP JUMPDEST PUSH2 0x100 DUP4 ADD MSTORE JUMPDEST PUSH1 0x40 MLOAD PUSH4 0x212D6CB PUSH1 0xE2 SHL DUP2 MSTORE PUSH20 0x0 SWAP1 PUSH4 0x84B5B2C SWAP1 PUSH2 0x14EA SWAP1 DUP5 SWAP1 PUSH1 0x4 ADD PUSH2 0x1E69 JUMP JUMPDEST PUSH1 0x20 PUSH1 0x40 MLOAD DUP1 DUP4 SUB DUP2 DUP7 GAS DELEGATECALL ISZERO DUP1 ISZERO PUSH2 0x1507 JUMPI RETURNDATASIZE PUSH1 0x0 DUP1 RETURNDATACOPY RETURNDATASIZE PUSH1 0x0 REVERT JUMPDEST POP POP POP POP PUSH1 0x40 MLOAD RETURNDATASIZE PUSH1 0x1F NOT PUSH1 0x1F DUP3 ADD AND DUP3 ADD DUP1 PUSH1 0x40 MSTORE POP DUP2 ADD SWAP1 PUSH2 0x152B SWAP2 SWAP1 PUSH2 0x1DE3 JUMP JUMPDEST PUSH2 0x160 DUP4 ADD MSTORE PUSH1 0x40 DUP2 ADD MLOAD PUSH2 0x180 DUP4 ADD SWAP1 PUSH1 0x5 DUP2 GT ISZERO PUSH2 0x154D JUMPI PUSH2 0x154D PUSH2 0x1974 JUMP JUMPDEST SWAP1 DUP2 PUSH1 0x5 DUP2 GT ISZERO PUSH2 0x1560 JUMPI PUSH2 0x1560 PUSH2 0x1974 JUMP JUMPDEST SWAP1 MSTORE POP PUSH1 0x60 ADD MLOAD PUSH1 0xFF AND PUSH2 0x1A0 DUP3 ADD MSTORE SWAP3 SWAP2 POP POP JUMP JUMPDEST PUSH1 0x0 SLOAD PUSH1 0x1 PUSH1 0x1 PUSH1 0xA0 SHL SUB PUSH3 0x10000 SWAP1 SWAP2 DIV AND CALLER EQ PUSH2 0x5F9 JUMPI PUSH1 0x40 MLOAD PUSH3 0x461BCD PUSH1 0xE5 SHL DUP2 MSTORE PUSH1 0x20 PUSH1 0x4 DUP3 ADD MSTORE PUSH1 0x1F PUSH1 0x24 DUP3 ADD MSTORE PUSH32 0x416C6C6F77616E63653A2063616C6C6572206D757374206265204F776E657200 PUSH1 0x44 DUP3 ADD MSTORE PUSH1 0x64 ADD PUSH2 0x5F0 JUMP JUMPDEST PUSH1 0x0 DUP1 SLOAD PUSH1 0x1 PUSH1 0x1 PUSH1 0xA0 SHL SUB DUP4 DUP2 AND PUSH3 0x10000 DUP2 DUP2 MUL PUSH3 0x10000 PUSH1 0x1 PUSH1 0xB0 SHL SUB NOT DUP6 AND OR DUP6 SSTORE PUSH1 0x40 MLOAD SWAP4 DIV SWAP2 SWAP1 SWAP2 AND SWAP3 SWAP1 SWAP2 DUP4 SWAP2 PUSH32 0x8BE0079C531659141344CD1FD0A4F28419497F9722A3DAAFE3B4186F6B6457E0 SWAP2 LOG3 POP POP JUMP JUMPDEST PUSH1 0x60 DUP2 PUSH2 0x163F JUMPI PUSH1 0x4 SLOAD SWAP2 POP JUMPDEST DUP2 PUSH1 0x1 PUSH1 0x1 PUSH1 0x40 SHL SUB DUP2 GT ISZERO PUSH2 0x1657 JUMPI PUSH2 0x1657 PUSH2 0x1CCB JUMP JUMPDEST PUSH1 0x40 MLOAD SWAP1 DUP1 DUP3 MSTORE DUP1 PUSH1 0x20 MUL PUSH1 0x20 ADD DUP3 ADD PUSH1 0x40 MSTORE DUP1 ISZERO PUSH2 0x1690 JUMPI DUP2 PUSH1 0x20 ADD JUMPDEST PUSH2 0x167D PUSH2 0x1856 JUMP JUMPDEST DUP2 MSTORE PUSH1 0x20 ADD SWAP1 PUSH1 0x1 SWAP1 SUB SWAP1 DUP2 PUSH2 0x1675 JUMPI SWAP1 POP JUMPDEST POP PUSH1 0x4 SLOAD SWAP1 SWAP2 POP PUSH1 0x0 SWAP1 DUP5 JUMPDEST DUP2 DUP2 LT ISZERO PUSH2 0x184C JUMPI DUP5 DUP4 LT PUSH2 0x16B0 JUMPI PUSH2 0x184C JUMP JUMPDEST PUSH1 0x0 PUSH1 0x5 PUSH1 0x0 PUSH1 0x4 DUP5 DUP2 SLOAD DUP2 LT PUSH2 0x16C9 JUMPI PUSH2 0x16C9 PUSH2 0x1CE1 JUMP JUMPDEST SWAP1 PUSH1 0x0 MSTORE PUSH1 0x20 PUSH1 0x0 KECCAK256 ADD SLOAD DUP2 MSTORE PUSH1 0x20 ADD SWAP1 DUP2 MSTORE PUSH1 0x20 ADD PUSH1 0x0 KECCAK256 SWAP1 POP PUSH20 0x0 PUSH4 0x84B5B2C DUP3 PUSH1 0x40 MLOAD DUP3 PUSH4 0xFFFFFFFF AND PUSH1 0xE0 SHL DUP2 MSTORE PUSH1 0x4 ADD PUSH2 0x171B SWAP2 SWAP1 PUSH2 0x1F5C JUMP JUMPDEST PUSH1 0x20 PUSH1 0x40 MLOAD DUP1 DUP4 SUB DUP2 DUP7 GAS DELEGATECALL ISZERO DUP1 ISZERO PUSH2 0x1738 JUMPI RETURNDATASIZE PUSH1 0x0 DUP1 RETURNDATACOPY RETURNDATASIZE PUSH1 0x0 REVERT JUMPDEST POP POP POP POP PUSH1 0x40 MLOAD RETURNDATASIZE PUSH1 0x1F NOT PUSH1 0x1F DUP3 ADD AND DUP3 ADD DUP1 PUSH1 0x40 MSTORE POP DUP2 ADD SWAP1 PUSH2 0x175C SWAP2 SWAP1 PUSH2 0x1DE3 JUMP JUMPDEST ISZERO DUP1 PUSH2 0x17E0 JUMPI POP PUSH1 0x40 MLOAD PUSH4 0x212D6CB PUSH1 0xE2 SHL DUP2 MSTORE TIMESTAMP SWAP1 PUSH20 0x0 SWAP1 PUSH4 0x84B5B2C SWAP1 PUSH2 0x179C SWAP1 DUP6 SWAP1 PUSH1 0x4 ADD PUSH2 0x1F5C JUMP JUMPDEST PUSH1 0x20 PUSH1 0x40 MLOAD DUP1 DUP4 SUB DUP2 DUP7 GAS DELEGATECALL ISZERO DUP1 ISZERO PUSH2 0x17B9 JUMPI RETURNDATASIZE PUSH1 0x0 DUP1 RETURNDATACOPY RETURNDATASIZE PUSH1 0x0 REVERT JUMPDEST POP POP POP POP PUSH1 0x40 MLOAD RETURNDATASIZE PUSH1 0x1F NOT PUSH1 0x1F DUP3 ADD AND DUP3 ADD DUP1 PUSH1 0x40 MSTORE POP DUP2 ADD SWAP1 PUSH2 0x17DD SWAP2 SWAP1 PUSH2 0x1DE3 JUMP JUMPDEST LT ISZERO JUMPDEST ISZERO PUSH2 0x1839 JUMPI PUSH2 0x180D PUSH1 0x4 DUP4 DUP2 SLOAD DUP2 LT PUSH2 0x17FB JUMPI PUSH2 0x17FB PUSH2 0x1CE1 JUMP JUMPDEST SWAP1 PUSH1 0x0 MSTORE PUSH1 0x20 PUSH1 0x0 KECCAK256 ADD SLOAD PUSH1 0x0 PUSH2 0xE0D JUMP JUMPDEST DUP6 DUP6 DUP2 MLOAD DUP2 LT PUSH2 0x181F JUMPI PUSH2 0x181F PUSH2 0x1CE1 JUMP JUMPDEST PUSH1 0x20 MUL PUSH1 0x20 ADD ADD DUP2 SWAP1 MSTORE POP DUP4 DUP1 PUSH2 0x1835 SWAP1 PUSH2 0x1DFC JUMP JUMPDEST SWAP5 POP POP JUMPDEST POP DUP1 PUSH2 0x1844 DUP2 PUSH2 0x1DFC JUMP JUMPDEST SWAP2 POP POP PUSH2 0x169C JUMP JUMPDEST POP POP DUP2 MSTORE SWAP3 SWAP2 POP POP JUMP JUMPDEST PUSH1 0x40 MLOAD DUP1 PUSH2 0x1C0 ADD PUSH1 0x40 MSTORE DUP1 PUSH1 0x0 PUSH1 0x1 PUSH1 0x1 PUSH1 0xA0 SHL SUB AND DUP2 MSTORE PUSH1 0x20 ADD PUSH1 0x0 DUP1 NOT AND DUP2 MSTORE PUSH1 0x20 ADD PUSH1 0x0 DUP1 NOT AND DUP2 MSTORE PUSH1 0x20 ADD PUSH1 0x0 DUP2 MSTORE PUSH1 0x20 ADD PUSH1 0x0 DUP2 MSTORE PUSH1 0x20 ADD PUSH1 0x0 DUP2 MSTORE PUSH1 0x20 ADD PUSH1 0x0 DUP2 MSTORE PUSH1 0x20 ADD PUSH1 0x0 DUP2 MSTORE PUSH1 0x20 ADD PUSH1 0x0 DUP2 MSTORE PUSH1 0x20 ADD PUSH1 0x0 DUP2 MSTORE PUSH1 0x20 ADD PUSH1 0x0 DUP2 MSTORE PUSH1 0x20 ADD PUSH1 0x0 DUP2 MSTORE PUSH1 0x20 ADD PUSH1 0x0 PUSH1 0x5 DUP2 GT ISZERO PUSH2 0x18D8 JUMPI PUSH2 0x18D8 PUSH2 0x1974 JUMP JUMPDEST DUP2 MSTORE PUSH1 0x0 PUSH1 0x20 SWAP1 SWAP2 ADD MSTORE SWAP1 JUMP JUMPDEST PUSH1 0x0 DUP1 DUP6 DUP6 GT ISZERO PUSH2 0x18F5 JUMPI PUSH1 0x0 DUP1 REVERT JUMPDEST DUP4 DUP7 GT ISZERO PUSH2 0x1902 JUMPI PUSH1 0x0 DUP1 REVERT JUMPDEST POP POP DUP3 ADD SWAP4 SWAP2 SWAP1 SWAP3 SUB SWAP2 POP JUMP JUMPDEST PUSH1 0x0 PUSH1 0x20 DUP3 DUP5 SUB SLT ISZERO PUSH2 0x1921 JUMPI PUSH1 0x0 DUP1 REVERT JUMPDEST DUP2 CALLDATALOAD PUSH1 0x1 PUSH1 0x1 PUSH1 0xE0 SHL SUB NOT DUP2 AND DUP2 EQ PUSH2 0x6E9 JUMPI PUSH1 0x0 DUP1 REVERT JUMPDEST PUSH1 0x0 DUP1 PUSH1 0x40 DUP4 DUP6 SUB SLT ISZERO PUSH2 0x194C JUMPI PUSH1 0x0 DUP1 REVERT JUMPDEST POP POP DUP1 CALLDATALOAD SWAP3 PUSH1 0x20 SWAP1 SWAP2 ADD CALLDATALOAD SWAP2 POP JUMP JUMPDEST PUSH1 0x0 PUSH1 0x20 DUP3 DUP5 SUB SLT ISZERO PUSH2 0x196D JUMPI PUSH1 0x0 DUP1 REVERT JUMPDEST POP CALLDATALOAD SWAP2 SWAP1 POP JUMP JUMPDEST PUSH4 0x4E487B71 PUSH1 0xE0 SHL PUSH1 0x0 MSTORE PUSH1 0x21 PUSH1 0x4 MSTORE PUSH1 0x24 PUSH1 0x0 REVERT JUMPDEST PUSH1 0x6 DUP2 LT PUSH2 0x19A8 JUMPI PUSH4 0x4E487B71 PUSH1 0xE0 SHL PUSH1 0x0 MSTORE PUSH1 0x21 PUSH1 0x4 MSTORE PUSH1 0x24 PUSH1 0x0 REVERT JUMPDEST SWAP1 MSTORE JUMP JUMPDEST DUP1 MLOAD PUSH1 0x1 PUSH1 0x1 PUSH1 0xA0 SHL SUB AND DUP3 MSTORE PUSH1 0x20 DUP2 ADD MLOAD PUSH1 0x20 DUP4 ADD MSTORE PUSH1 0x40 DUP2 ADD MLOAD PUSH1 0x40 DUP4 ADD MSTORE PUSH1 0x60 DUP2 ADD MLOAD PUSH1 0x60 DUP4 ADD MSTORE PUSH1 0x80 DUP2 ADD MLOAD PUSH1 0x80 DUP4 ADD MSTORE PUSH1 0xA0 DUP2 ADD MLOAD PUSH1 0xA0 DUP4 ADD MSTORE PUSH1 0xC0 DUP2 ADD MLOAD PUSH1 0xC0 DUP4 ADD MSTORE PUSH1 0xE0 DUP2 ADD MLOAD PUSH1 0xE0 DUP4 ADD MSTORE PUSH2 0x100 DUP1 DUP3 ADD MLOAD DUP2 DUP5 ADD MSTORE POP PUSH2 0x120 DUP1 DUP3 ADD MLOAD DUP2 DUP5 ADD MSTORE POP PUSH2 0x140 DUP1 DUP3 ADD MLOAD DUP2 DUP5 ADD MSTORE POP PUSH2 0x160 DUP1 DUP3 ADD MLOAD DUP2 DUP5 ADD MSTORE POP PUSH2 0x180 DUP1 DUP3 ADD MLOAD PUSH2 0x1A42 DUP3 DUP6 ADD DUP3 PUSH2 0x198A JUMP JUMPDEST POP POP PUSH2 0x1A0 SWAP1 DUP2 ADD MLOAD PUSH1 0xFF AND SWAP2 ADD MSTORE JUMP JUMPDEST PUSH2 0x1C0 DUP2 ADD PUSH2 0x642 DUP3 DUP5 PUSH2 0x19AC JUMP JUMPDEST PUSH1 0x1 PUSH1 0x1 PUSH1 0xA0 SHL SUB DUP2 AND DUP2 EQ PUSH2 0xDF9 JUMPI PUSH1 0x0 DUP1 REVERT JUMPDEST PUSH1 0x0 PUSH1 0x20 DUP3 DUP5 SUB SLT ISZERO PUSH2 0x1A89 JUMPI PUSH1 0x0 DUP1 REVERT JUMPDEST DUP2 CALLDATALOAD PUSH2 0x6E9 DUP2 PUSH2 0x1A62 JUMP JUMPDEST PUSH1 0x20 DUP1 DUP3 MSTORE DUP3 MLOAD DUP3 DUP3 ADD DUP2 SWAP1 MSTORE PUSH1 0x0 SWAP2 SWAP1 DUP5 DUP3 ADD SWAP1 PUSH1 0x40 DUP6 ADD SWAP1 DUP5 JUMPDEST DUP2 DUP2 LT ISZERO PUSH2 0x1AD7 JUMPI PUSH2 0x1AC3 DUP4 DUP6 MLOAD PUSH2 0x19AC JUMP JUMPDEST SWAP3 DUP5 ADD SWAP3 PUSH2 0x1C0 SWAP3 SWAP1 SWAP3 ADD SWAP2 PUSH1 0x1 ADD PUSH2 0x1AB0 JUMP JUMPDEST POP SWAP1 SWAP7 SWAP6 POP POP POP POP POP POP JUMP JUMPDEST PUSH1 0x0 PUSH1 0x20 DUP1 DUP4 ADD DUP2 DUP5 MSTORE DUP1 DUP6 MLOAD DUP1 DUP4 MSTORE PUSH1 0x40 DUP7 ADD SWAP2 POP PUSH1 0x40 DUP2 PUSH1 0x5 SHL DUP8 ADD ADD SWAP3 POP DUP4 DUP8 ADD PUSH1 0x0 DUP1 JUMPDEST DUP4 DUP2 LT ISZERO PUSH2 0x1B5F JUMPI DUP9 DUP7 SUB PUSH1 0x3F NOT ADD DUP6 MSTORE DUP3 MLOAD DUP1 MLOAD DUP1 DUP9 MSTORE SWAP1 DUP9 ADD SWAP1 DUP9 DUP9 ADD SWAP1 DUP5 JUMPDEST DUP2 DUP2 LT ISZERO PUSH2 0x1B49 JUMPI DUP4 MLOAD DUP4 MSTORE SWAP3 DUP11 ADD SWAP3 SWAP2 DUP11 ADD SWAP2 PUSH1 0x1 ADD PUSH2 0x1B2D JUMP JUMPDEST POP SWAP1 SWAP8 POP POP POP SWAP4 DUP7 ADD SWAP4 SWAP2 DUP7 ADD SWAP2 PUSH1 0x1 ADD PUSH2 0x1B0B JUMP JUMPDEST POP SWAP4 SWAP9 SWAP8 POP POP POP POP POP POP POP POP JUMP JUMPDEST PUSH1 0x0 PUSH1 0x20 DUP3 DUP5 SUB SLT ISZERO PUSH2 0x1B7F JUMPI PUSH1 0x0 DUP1 REVERT JUMPDEST DUP2 CALLDATALOAD PUSH6 0xFFFFFFFFFFFF DUP2 AND DUP2 EQ PUSH2 0x6E9 JUMPI PUSH1 0x0 DUP1 REVERT JUMPDEST PUSH1 0x0 PUSH1 0x20 DUP3 DUP5 SUB SLT ISZERO PUSH2 0x1BA7 JUMPI PUSH1 0x0 DUP1 REVERT JUMPDEST DUP2 CALLDATALOAD PUSH1 0x1 PUSH1 0x1 PUSH1 0x40 SHL SUB DUP2 AND DUP2 EQ PUSH2 0x6E9 JUMPI PUSH1 0x0 DUP1 REVERT JUMPDEST PUSH1 0x0 PUSH1 0x20 DUP3 DUP5 SUB SLT ISZERO PUSH2 0x1BD0 JUMPI PUSH1 0x0 DUP1 REVERT JUMPDEST DUP2 CALLDATALOAD PUSH4 0xFFFFFFFF DUP2 AND DUP2 EQ PUSH2 0x6E9 JUMPI PUSH1 0x0 DUP1 REVERT JUMPDEST PUSH1 0x0 PUSH1 0x20 DUP3 DUP5 SUB SLT ISZERO PUSH2 0x1BF6 JUMPI PUSH1 0x0 DUP1 REVERT JUMPDEST DUP2 MLOAD DUP1 ISZERO ISZERO DUP2 EQ PUSH2 0x6E9 JUMPI PUSH1 0x0 DUP1 REVERT JUMPDEST PUSH4 0x4E487B71 PUSH1 0xE0 SHL PUSH1 0x0 MSTORE PUSH1 0x11 PUSH1 0x4 MSTORE PUSH1 0x24 PUSH1 0x0 REVERT JUMPDEST PUSH1 0x0 DUP3 PUSH2 0x1C39 JUMPI PUSH4 0x4E487B71 PUSH1 0xE0 SHL PUSH1 0x0 MSTORE PUSH1 0x12 PUSH1 0x4 MSTORE PUSH1 0x24 PUSH1 0x0 REVERT JUMPDEST POP DIV SWAP1 JUMP JUMPDEST PUSH1 0x0 PUSH1 0x20 DUP3 DUP5 SUB SLT ISZERO PUSH2 0x1C50 JUMPI PUSH1 0x0 DUP1 REVERT JUMPDEST DUP2 MLOAD PUSH2 0x6E9 DUP2 PUSH2 0x1A62 JUMP JUMPDEST PUSH1 0x0 DUP3 MLOAD PUSH1 0x0 JUMPDEST DUP2 DUP2 LT ISZERO PUSH2 0x1C7C JUMPI PUSH1 0x20 DUP2 DUP7 ADD DUP2 ADD MLOAD DUP6 DUP4 ADD MSTORE ADD PUSH2 0x1C62 JUMP JUMPDEST DUP2 DUP2 GT ISZERO PUSH2 0x1C8B JUMPI PUSH1 0x0 DUP3 DUP6 ADD MSTORE JUMPDEST POP SWAP2 SWAP1 SWAP2 ADD SWAP3 SWAP2 POP POP JUMP JUMPDEST PUSH1 0x0 DUP2 PUSH1 0x0 NOT DIV DUP4 GT DUP3 ISZERO ISZERO AND ISZERO PUSH2 0x1CB0 JUMPI PUSH2 0x1CB0 PUSH2 0x1C06 JUMP JUMPDEST POP MUL SWAP1 JUMP JUMPDEST PUSH4 0x4E487B71 PUSH1 0xE0 SHL PUSH1 0x0 MSTORE PUSH1 0x1 PUSH1 0x4 MSTORE PUSH1 0x24 PUSH1 0x0 REVERT JUMPDEST PUSH4 0x4E487B71 PUSH1 0xE0 SHL PUSH1 0x0 MSTORE PUSH1 0x41 PUSH1 0x4 MSTORE PUSH1 0x24 PUSH1 0x0 REVERT JUMPDEST PUSH4 0x4E487B71 PUSH1 0xE0 SHL PUSH1 0x0 MSTORE PUSH1 0x32 PUSH1 0x4 MSTORE PUSH1 0x24 PUSH1 0x0 REVERT JUMPDEST PUSH1 0x0 PUSH1 0x20 DUP1 DUP4 DUP6 SUB SLT ISZERO PUSH2 0x1D0A JUMPI PUSH1 0x0 DUP1 REVERT JUMPDEST DUP3 MLOAD PUSH1 0x1 PUSH1 0x1 PUSH1 0x40 SHL SUB DUP1 DUP3 GT ISZERO PUSH2 0x1D21 JUMPI PUSH1 0x0 DUP1 REVERT JUMPDEST DUP2 DUP6 ADD SWAP2 POP DUP6 PUSH1 0x1F DUP4 ADD SLT PUSH2 0x1D35 JUMPI PUSH1 0x0 DUP1 REVERT JUMPDEST DUP2 MLOAD DUP2 DUP2 GT ISZERO PUSH2 0x1D47 JUMPI PUSH2 0x1D47 PUSH2 0x1CCB JUMP JUMPDEST DUP1 PUSH1 0x5 SHL PUSH1 0x40 MLOAD PUSH1 0x1F NOT PUSH1 0x3F DUP4 ADD AND DUP2 ADD DUP2 DUP2 LT DUP6 DUP3 GT OR ISZERO PUSH2 0x1D6C JUMPI PUSH2 0x1D6C PUSH2 0x1CCB JUMP JUMPDEST PUSH1 0x40 MSTORE SWAP2 DUP3 MSTORE DUP5 DUP3 ADD SWAP3 POP DUP4 DUP2 ADD DUP6 ADD SWAP2 DUP9 DUP4 GT ISZERO PUSH2 0x1D8A JUMPI PUSH1 0x0 DUP1 REVERT JUMPDEST SWAP4 DUP6 ADD SWAP4 JUMPDEST DUP3 DUP6 LT ISZERO PUSH2 0x1DA8 JUMPI DUP5 MLOAD DUP5 MSTORE SWAP4 DUP6 ADD SWAP4 SWAP3 DUP6 ADD SWAP3 PUSH2 0x1D8F JUMP JUMPDEST SWAP9 SWAP8 POP POP POP POP POP POP POP POP JUMP JUMPDEST PUSH1 0x0 DUP3 DUP3 LT ISZERO PUSH2 0x1DC6 JUMPI PUSH2 0x1DC6 PUSH2 0x1C06 JUMP JUMPDEST POP SUB SWAP1 JUMP JUMPDEST PUSH1 0x0 DUP3 NOT DUP3 GT ISZERO PUSH2 0x1DDE JUMPI PUSH2 0x1DDE PUSH2 0x1C06 JUMP JUMPDEST POP ADD SWAP1 JUMP JUMPDEST PUSH1 0x0 PUSH1 0x20 DUP3 DUP5 SUB SLT ISZERO PUSH2 0x1DF5 JUMPI PUSH1 0x0 DUP1 REVERT JUMPDEST POP MLOAD SWAP2 SWAP1 POP JUMP JUMPDEST PUSH1 0x0 PUSH1 0x0 NOT DUP3 EQ ISZERO PUSH2 0x1E10 JUMPI PUSH2 0x1E10 PUSH2 0x1C06 JUMP JUMPDEST POP PUSH1 0x1 ADD SWAP1 JUMP JUMPDEST PUSH1 0x0 DUP1 PUSH1 0x40 DUP4 DUP6 SUB SLT ISZERO PUSH2 0x1E2A JUMPI PUSH1 0x0 DUP1 REVERT JUMPDEST POP POP DUP1 MLOAD PUSH1 0x20 SWAP1 SWAP2 ADD MLOAD SWAP1 SWAP3 SWAP1 SWAP2 POP JUMP JUMPDEST PUSH1 0x0 DUP1 PUSH1 0x0 PUSH1 0x60 DUP5 DUP7 SUB SLT ISZERO PUSH2 0x1E50 JUMPI PUSH1 0x0 DUP1 REVERT JUMPDEST DUP4 MLOAD SWAP3 POP PUSH1 0x20 DUP5 ADD MLOAD SWAP2 POP PUSH1 0x40 DUP5 ADD MLOAD SWAP1 POP SWAP3 POP SWAP3 POP SWAP3 JUMP JUMPDEST DUP2 MLOAD DUP2 MSTORE PUSH1 0x20 DUP1 DUP4 ADD MLOAD PUSH2 0x180 DUP4 ADD SWAP2 PUSH2 0x1E8D SWAP1 DUP5 ADD DUP3 PUSH1 0x1 PUSH1 0x1 PUSH1 0xA0 SHL SUB AND SWAP1 MSTORE JUMP JUMPDEST POP PUSH1 0x40 DUP4 ADD MLOAD PUSH2 0x1EA0 PUSH1 0x40 DUP5 ADD DUP3 PUSH2 0x198A JUMP JUMPDEST POP PUSH1 0x60 DUP4 ADD MLOAD PUSH2 0x1EB5 PUSH1 0x60 DUP5 ADD DUP3 PUSH1 0xFF AND SWAP1 MSTORE JUMP JUMPDEST POP PUSH1 0x80 DUP4 ADD MLOAD PUSH1 0x80 DUP4 ADD MSTORE PUSH1 0xA0 DUP4 ADD MLOAD PUSH2 0x1EDA PUSH1 0xA0 DUP5 ADD DUP3 PUSH1 0x1 PUSH1 0x1 PUSH1 0x40 SHL SUB AND SWAP1 MSTORE JUMP JUMPDEST POP PUSH1 0xC0 DUP4 ADD MLOAD PUSH2 0x1EF5 PUSH1 0xC0 DUP5 ADD DUP3 PUSH1 0x1 PUSH1 0x1 PUSH1 0x40 SHL SUB AND SWAP1 MSTORE JUMP JUMPDEST POP PUSH1 0xE0 DUP4 ADD MLOAD PUSH2 0x1F10 PUSH1 0xE0 DUP5 ADD DUP3 PUSH1 0x1 PUSH1 0x1 PUSH1 0x40 SHL SUB AND SWAP1 MSTORE JUMP JUMPDEST POP PUSH2 0x100 DUP4 DUP2 ADD MLOAD PUSH1 0x1 PUSH1 0x1 PUSH1 0x40 SHL SUB SWAP1 DUP2 AND SWAP2 DUP5 ADD SWAP2 SWAP1 SWAP2 MSTORE PUSH2 0x120 DUP1 DUP6 ADD MLOAD DUP3 AND SWAP1 DUP5 ADD MSTORE PUSH2 0x140 DUP1 DUP6 ADD MLOAD DUP3 AND SWAP1 DUP5 ADD MSTORE PUSH2 0x160 DUP1 DUP6 ADD MLOAD SWAP2 DUP3 AND DUP2 DUP6 ADD MSTORE SWAP1 JUMPDEST POP POP SWAP3 SWAP2 POP POP JUMP JUMPDEST DUP2 SLOAD DUP2 MSTORE PUSH1 0x1 DUP3 ADD SLOAD PUSH1 0x1 PUSH1 0x1 PUSH1 0xA0 SHL SUB DUP2 AND PUSH1 0x20 DUP4 ADD MSTORE PUSH2 0x180 DUP3 ADD SWAP1 PUSH2 0x1F8D PUSH1 0x40 DUP5 ADD PUSH1 0xFF DUP4 PUSH1 0xA0 SHR AND PUSH2 0x198A JUMP JUMPDEST PUSH1 0xA8 SHR PUSH1 0xFF AND PUSH1 0x60 DUP4 ADD MSTORE PUSH1 0x2 DUP4 ADD SLOAD PUSH1 0x80 DUP4 ADD MSTORE PUSH1 0x3 DUP4 ADD SLOAD PUSH1 0x1 PUSH1 0x1 PUSH1 0x40 SHL SUB DUP1 DUP3 AND PUSH1 0xA0 DUP6 ADD MSTORE PUSH1 0x40 DUP3 SWAP1 SHR DUP2 AND PUSH1 0xC0 DUP6 ADD MSTORE PUSH2 0x1FDD PUSH1 0xE0 DUP6 ADD DUP3 DUP5 PUSH1 0x80 SHR AND PUSH1 0x1 PUSH1 0x1 PUSH1 0x40 SHL SUB AND SWAP1 MSTORE JUMP JUMPDEST PUSH1 0xC0 DUP3 SWAP1 SHR PUSH2 0x100 DUP6 ADD MSTORE PUSH1 0x4 DUP6 ADD SLOAD PUSH1 0x1 PUSH1 0x1 PUSH1 0x40 SHL SUB DUP3 DUP3 AND AND PUSH2 0x120 DUP7 ADD MSTORE SWAP2 POP PUSH2 0x201C PUSH2 0x140 DUP6 ADD DUP3 DUP5 PUSH1 0x40 SHR AND PUSH1 0x1 PUSH1 0x1 PUSH1 0x40 SHL SUB AND SWAP1 MSTORE JUMP JUMPDEST PUSH2 0x1F54 PUSH2 0x160 DUP6 ADD DUP3 DUP5 PUSH1 0x80 SHR AND PUSH1 0x1 PUSH1 0x1 PUSH1 0x40 SHL SUB AND SWAP1 MSTORE JUMP INVALID LOG2 PUSH5 0x6970667358 0x22 SLT KECCAK256 DUP16 DUP7 EXTCODEHASH 0xB9 SWAP7 0x4A 0xC7 0xBF EXTCODECOPY MUL 0xD0 0xB2 PUSH5 0x483D2F4F5A 0xDB CODECOPY 0xE1 PUSH32 0x982033C5146F48363B9E64736F6C634300080B00330000000000000000000000 ","sha1":"88db5be7ffcc1a42468bacc8c80d77cf787636ae","source":"// SPDX-License-Identifier: MIT\n// Beef MarketPlace Contracts v0.0.0 hello@mcdu.com\n\npragma solidity ^0.8.0;\n\nimport \"../Market.sol\";\n\nbytes32 constant MARKETLIST = keccak256(\"MarketList\");\n\ncontract MarketList is Market, MarketPathReader {\n    using Array for address[];\n    using Array for uint64[];\n    using Array for uint256[];\n    using Array for bytes32[];\n    using MarketLib for address[];\n    using MarketLib for SolutionSetDesc;\n    using MarketLib for SolutionSet;\n    using MarketLib for Remainer[];\n    using MarketLib for Solution[];\n\n    function id() public view virtual override (Market) returns (bytes32) {return MARKETLIST;}\n\n    constructor(Repository rep_) Market(rep_) {}\n\n    function list(\n        uint256 start_,\n        uint256 count_\n    )\n        public\n        view\n        returns (\n           Order.InfoPublic[] memory out_\n        )\n    {\n        (bool _result, ) = rep.get(MARKET).staticcall(\n            abi.encodeWithSelector(\n                bytes4(keccak256(\"d_list(uint256,uint256)\")),\n                address(this),\n                start_,\n                count_\n            )\n        );\n        _return(_result);\n    }\n\n    function d_list(\n        uint256 start_,\n        uint256 count_\n    )\n        public\n        view\n        returns (\n            Order.InfoPublic[] memory out_\n        )\n    {\n\n        return\n            __list(\n                start_,\n                count_\n            );\n    }\n\n    function __list(\n        uint256 start_,\n        uint256 count_\n    ) private view returns (Order.InfoPublic[] memory out_) {\n        if (count_ == 0) count_ = _orderids.length;\n        out_ = new Order.InfoPublic[](count_);\n\n        uint256 outcount = 0;\n        uint len = _orderids.length;\n        for (uint i = start_; i < len; i++) {\n            if (outcount >= count_) break;\n            Order.Info storage order = _orders[_orderids[i]];\n            if (\n                (Order.isExpired(order) == 0 ||\n                    Order.isExpired(order) >= block.timestamp)\n            ) {\n                out_[outcount] = __order(_orderids[i], false);\n                outcount++;\n            }\n        }\n        assembly {\n            mstore(out_, outcount)\n        }\n    }\n\n}\n","sourcePath":"contracts/Market/Reader/List.sol","type":"contract","deployment":{"address":"0x798b7093dB360D91f2dcB06a83E90E7A2665DDAd","chainid":"9997","blockHeight":32715}}