{"abi":[{"inputs":[{"internalType":"contract Repository","name":"rep_","type":"address"}],"stateMutability":"nonpayable","type":"constructor","name":"constructor"},{"anonymous":false,"inputs":[{"indexed":false,"internalType":"uint256","name":"fee","type":"uint256"}],"name":"Fee","type":"event"},{"anonymous":false,"inputs":[{"indexed":true,"internalType":"address","name":"previousOwner","type":"address"},{"indexed":true,"internalType":"address","name":"newOwner","type":"address"}],"name":"OwnershipTransferred","type":"event"},{"anonymous":false,"inputs":[{"indexed":false,"internalType":"uint256[]","name":"random","type":"uint256[]"}],"name":"Randoms","type":"event"},{"anonymous":false,"inputs":[{"indexed":false,"internalType":"uint256","name":"count","type":"uint256"}],"name":"Remaining","type":"event"},{"anonymous":false,"inputs":[{"indexed":false,"internalType":"uint256","name":"count","type":"uint256"}],"name":"Reset","type":"event"},{"stateMutability":"nonpayable","type":"fallback"},{"inputs":[],"name":"STOP","outputs":[{"internalType":"bool","name":"","type":"bool"}],"stateMutability":"view","type":"function"},{"inputs":[],"name":"STOPFOREVER","outputs":[{"internalType":"bool","name":"","type":"bool"}],"stateMutability":"view","type":"function"},{"inputs":[{"internalType":"uint256[256]","name":"newrandoms_","type":"uint256[256]"}],"name":"add","outputs":[],"stateMutability":"nonpayable","type":"function"},{"inputs":[],"name":"collect","outputs":[],"stateMutability":"nonpayable","type":"function"},{"inputs":[],"name":"count","outputs":[{"internalType":"uint256","name":"","type":"uint256"}],"stateMutability":"view","type":"function"},{"inputs":[],"name":"fee","outputs":[{"internalType":"uint256","name":"","type":"uint256"}],"stateMutability":"view","type":"function"},{"inputs":[{"internalType":"uint256","name":"count_","type":"uint256"},{"internalType":"uint256","name":"random_","type":"uint256"}],"name":"get","outputs":[{"internalType":"uint256[]","name":"out_","type":"uint256[]"}],"stateMutability":"payable","type":"function"},{"inputs":[{"internalType":"uint256","name":"random_","type":"uint256"}],"name":"get","outputs":[{"internalType":"uint256","name":"out_","type":"uint256"}],"stateMutability":"payable","type":"function"},{"inputs":[{"internalType":"uint256","name":"count_","type":"uint256"},{"internalType":"uint256","name":"random_","type":"uint256"},{"internalType":"bool","name":"event_","type":"bool"}],"name":"get","outputs":[{"internalType":"uint256[]","name":"out_","type":"uint256[]"}],"stateMutability":"payable","type":"function"},{"inputs":[{"internalType":"uint256","name":"random_","type":"uint256"},{"internalType":"bool","name":"event_","type":"bool"}],"name":"get","outputs":[{"internalType":"uint256","name":"out_","type":"uint256"}],"stateMutability":"payable","type":"function"},{"inputs":[{"internalType":"uint256","name":"count_","type":"uint256"},{"internalType":"uint256","name":"random_","type":"uint256"}],"name":"getWithEvent","outputs":[{"internalType":"uint256[]","name":"out_","type":"uint256[]"}],"stateMutability":"payable","type":"function"},{"inputs":[{"internalType":"uint256","name":"random_","type":"uint256"}],"name":"getWithEvent","outputs":[{"internalType":"uint256","name":"out_","type":"uint256"}],"stateMutability":"payable","type":"function"},{"inputs":[{"internalType":"uint256","name":"random_","type":"uint256"}],"name":"getfree","outputs":[{"internalType":"uint256","name":"","type":"uint256"}],"stateMutability":"view","type":"function"},{"inputs":[],"name":"id","outputs":[{"internalType":"bytes32","name":"","type":"bytes32"}],"stateMutability":"view","type":"function"},{"inputs":[{"internalType":"uint256","name":"fee_","type":"uint256"}],"name":"incrementFee","outputs":[],"stateMutability":"nonpayable","type":"function"},{"inputs":[{"internalType":"address","name":"caller_","type":"address"}],"name":"isOwner","outputs":[{"internalType":"bool","name":"","type":"bool"}],"stateMutability":"view","type":"function"},{"inputs":[],"name":"owner","outputs":[{"internalType":"address","name":"","type":"address"}],"stateMutability":"view","type":"function"},{"inputs":[],"name":"purgeall","outputs":[],"stateMutability":"nonpayable","type":"function"},{"inputs":[],"name":"renounceOwnership","outputs":[],"stateMutability":"nonpayable","type":"function"},{"inputs":[],"name":"rep","outputs":[{"internalType":"contract Repository","name":"","type":"address"}],"stateMutability":"view","type":"function"},{"inputs":[{"internalType":"uint256","name":"fee_","type":"uint256"}],"name":"setFee","outputs":[],"stateMutability":"nonpayable","type":"function"},{"inputs":[],"name":"setSTOP","outputs":[],"stateMutability":"nonpayable","type":"function"},{"inputs":[],"name":"setSTOPFOREVER","outputs":[],"stateMutability":"nonpayable","type":"function"},{"inputs":[{"internalType":"bytes4","name":"interfaceId","type":"bytes4"}],"name":"supportsInterface","outputs":[{"internalType":"bool","name":"","type":"bool"}],"stateMutability":"view","type":"function"},{"inputs":[{"internalType":"address","name":"newOwner","type":"address"}],"name":"transferOwnership","outputs":[],"stateMutability":"nonpayable","type":"function"},{"inputs":[],"name":"unsetSTOP","outputs":[],"stateMutability":"nonpayable","type":"function"}],"bytecode":"60a060405234801561001057600080fd5b5060405161177338038061177383398101604081905261002f916100a6565b806100393361004b565b6001600160a01b0316608052506100d6565b600080546001600160a01b038381166201000081810262010000600160b01b0319851617855560405193049190911692909183917f8be0079c531659141344cd1fd0a4f28419497f9722a3daafe3b4186f6b6457e091a35050565b6000602082840312156100b857600080fd5b81516001600160a01b03811681146100cf57600080fd5b9392505050565b60805161165f6101146000396000818161046801528181610541015281816105df01528181610920015281816109c10152610efd015261165f6000f3fe6080604052600436106101815760003560e01c80639507d39a116100d1578063ccc079591161008a578063ddca3f4311610064578063ddca3f43146104b2578063e5225381146104c7578063f2fde38b146104dc578063f9c016d7146104fc57610181565b8063ccc0795914610456578063ce97870a1461048a578063d69358581461049d57610181565b80639507d39a146103ad57806397962076146103c05780639e89a353146103dd578063aafe0008146103fd578063af640d0f14610410578063bf1f4d6e1461044357610181565b80635bf3b5c71161013e578063715018a611610118578063715018a61461033657806372ea61bf1461034b578063854ba99d146103605780638da5cb5b1461037557610181565b80635bf3b5c7146102ee578063669e48aa1461030357806369fe0e2d1461031657610181565b806301ffc9a71461021057806305d6bd9c1461024557806306661abd1461025a5780632f54bf6e1461027957806337f5df65146102ae578063414fc301146102ce575b34801561018d57600080fd5b5061019661051c565b60006101a66024600436846113a5565b8080601f016020809104026020016040519081016040528093929190818152602001838380828437600092018290525060208501519495509250503660231981019150601f19016004838037816024600437600080826000875af49250505061020e816106e6565b005b34801561021c57600080fd5b5061023061022b3660046113cf565b610700565b60405190151581526020015b60405180910390f35b34801561025157600080fd5b5061020e610737565b34801561026657600080fd5b506004545b60405190815260200161023c565b34801561028557600080fd5b506102306102943660046113f9565b6000546201000090046001600160a01b0390811691161490565b6102c16102bc366004611422565b61074e565b60405161023c9190611444565b3480156102da57600080fd5b5061020e6102e9366004611488565b610763565b3480156102fa57600080fd5b5061020e610781565b6102c1610311366004611422565b610796565b34801561032257600080fd5b5061020e610331366004611488565b6107a4565b34801561034257600080fd5b5061020e6107e7565b34801561035757600080fd5b5061020e6107f9565b34801561036c57600080fd5b50610230610813565b34801561038157600080fd5b506000546201000090046001600160a01b03165b6040516001600160a01b03909116815260200161023c565b61026b6103bb366004611488565b610831565b3480156103cc57600080fd5b50600054610100900460ff16610230565b3480156103e957600080fd5b5061020e6103f83660046114a1565b61083e565b61026b61040b366004611488565b6108d8565b34801561041c57600080fd5b507f02dfe2d0485b616b61db1800f30f4a14b26754b328fa09ba4ec73ee7276766cc61026b565b6102c16104513660046114da565b6108e5565b34801561046257600080fd5b506103957f000000000000000000000000000000000000000000000000000000000000000081565b61026b610498366004611513565b610c59565b3480156104a957600080fd5b5061020e610c8e565b3480156104be57600080fd5b5060015461026b565b3480156104d357600080fd5b5061020e610caa565b3480156104e857600080fd5b5061020e6104f73660046113f9565b610cde565b34801561050857600080fd5b5061026b610517366004611488565b610d54565b6000546001600160a01b0362010000909104163314806105cf57506001600160a01b037f0000000000000000000000000000000000000000000000000000000000000000166316279055336040516001600160e01b031960e084901b1681526001600160a01b039091166004820152602401602060405180830381865afa1580156105ab573d6000803e3d6000fd5b505050506040513d601f19601f820116820180604052508101906105cf9190611543565b8061066d57506001600160a01b037f000000000000000000000000000000000000000000000000000000000000000016636d70f7ae336040516001600160e01b031960e084901b1681526001600160a01b039091166004820152602401602060405180830381865afa158015610649573d6000803e3d6000fd5b505050506040513d601f19601f8201168201806040525081019061066d9190611543565b6106e45760405162461bcd60e51b815260206004820152603960248201527f416c6c6f77616e63653a2063616c6c6572206d757374206265205265706f736960448201527f746f727920436f6e7472616374206f72204f70657261746f720000000000000060648201526084015b60405180910390fd5b565b3d6000803e8080156106f7573d6000f35b3d6000fd5b5050565b60006001600160e01b031982166301ffc9a760e01b148061073157506001600160e01b031982166315d3789560e31b145b92915050565b61073f61051c565b6106e46000805460ff19169055565b606061075c838360016108e5565b9392505050565b61076b610ed8565b60015481111561077e5761077e816107a4565b50565b610789610ed8565b6002546003556000600455565b606061075c838360006108e5565b6107ac610ed8565b60018190556040518181527f557809284da7314475b1582804ae28e5f1349efc1fe970ea25d50fce75eb4f439060200160405180910390a150565b6107ef610fed565b6106e4600061104e565b61080161051c565b6106e46000805460ff19166001179055565b6000805460ff168061082c5750600054610100900460ff165b905090565b6000610731826000610c59565b610846610ed8565b600480546101009081019091556002805460018101909155600090815260076020526040902061087791839061135a565b5060015415801590610896575060015461089390610100611576565b47115b1561077e5760015433906108fc906108b090610100611576565b6040518115909202916000818181858888f193505050501580156106fc573d6000803e3d6000fd5b6000610731826001610c59565b6000546060906201000090046001600160a01b03166001600160a01b0316336001600160a01b0316141580156109b057506001600160a01b037f0000000000000000000000000000000000000000000000000000000000000000166316279055336040516001600160e01b031960e084901b1681526001600160a01b039091166004820152602401602060405180830381865afa15801561098a573d6000803e3d6000fd5b505050506040513d601f19601f820116820180604052508101906109ae9190611543565b155b8015610a5157506001600160a01b037f000000000000000000000000000000000000000000000000000000000000000016636d70f7ae336040516001600160e01b031960e084901b1681526001600160a01b039091166004820152602401602060405180830381865afa158015610a2b573d6000803e3d6000fd5b505050506040513d601f19601f82011682018060405250810190610a4f9190611543565b155b15610b3257600154600003610a975760405162461bcd60e51b815260206004820152600c60248201526b19195cd858dd1a5d985d195960a21b60448201526064016106db565b83600154610aa59190611576565b341015610ae35760405162461bcd60e51b815260206004820152600c60248201526b4d757374207061792066656560a01b60448201526064016106db565b336001600160a01b03166108fc85600154610afe9190611576565b610b089034611595565b6040518115909202916000818181858888f19350505050158015610b30573d6000803e3d6000fd5b505b8367ffffffffffffffff811115610b4b57610b4b6115ac565b604051908082528060200260200182016040528015610b74578160200160208202803683370190505b50905060005b84811015610bd857610b8b846110a9565b828281518110610b9d57610b9d6115c2565b602002602001018181525050818181518110610bbb57610bbb6115c2565b602002602001015193508080610bd0906115d8565b915050610b7a565b508115610c17577f228482d158a0f50bbb36e193a73e74e8cbe78aa7c3691dec54755d69991949ab81604051610c0e9190611444565b60405180910390a15b7f7e86ea37f1f829dfeea778dc1b557df43e062615f0c2f7957181b1120cd6a6e4600454604051610c4a91815260200190565b60405180910390a19392505050565b600080610c68600185856108e5565b905080600081518110610c7d57610c7d6115c2565b602002602001015191505092915050565b610c96610fed565b6106e46000805461ff001916610100179055565b610cb2610fed565b60405133904780156108fc02916000818181858888f1935050505015801561077e573d6000803e3d6000fd5b610ce6610fed565b6001600160a01b038116610d4b5760405162461bcd60e51b815260206004820152602660248201527f4f776e61626c653a206e6577206f776e657220697320746865207a65726f206160448201526564647265737360d01b60648201526084016106db565b61077e8161104e565b60008060144311610d66576001610d71565b610d71601443611595565b90505b43811015610dc557828140604051602001610d99929190918252602082015260400190565b60408051601f198184030181529190528051602090910120925080610dbd816115d8565b915050610d74565b50600554604051610de3918491602001918252602082015260400190565b6040516020818303038152906040528051906020012060001c915060025460035414610ed4576000600254610100028381610e2057610e206115f1565b0660ff169050600760006101008381610e3b57610e3b6115f1565b0481526020019081526020016000206101008281610e5b57610e5b6115f1565b066101008110610e6d57610e6d6115c2565b01549250600060144311610e82576001610e87565b601443035b90505b43811015610ed157838140604051602001610eaf929190918252602082015260400190565b60408051601f1981840301815291905280516020909101209350600101610e8a565b50505b5090565b6000546001600160a01b036201000090910416331480610f8b57506001600160a01b037f000000000000000000000000000000000000000000000000000000000000000016636d70f7ae336040516001600160e01b031960e084901b1681526001600160a01b039091166004820152602401602060405180830381865afa158015610f67573d6000803e3d6000fd5b505050506040513d601f19601f82011682018060405250810190610f8b9190611543565b6106e45760405162461bcd60e51b815260206004820152602d60248201527f416c6c6f77616e63653a2063616c6c6572206d757374206265205265706f736960448201526c3a37b93c9027b832b930ba37b960991b60648201526084016106db565b6000546001600160a01b03620100009091041633146106e45760405162461bcd60e51b815260206004820152601f60248201527f416c6c6f77616e63653a2063616c6c6572206d757374206265204f776e65720060448201526064016106db565b600080546001600160a01b038381166201000081810262010000600160b01b0319851617855560405193049190911692909183917f8be0079c531659141344cd1fd0a4f28419497f9722a3daafe3b4186f6b6457e091a35050565b600080600a43116110bb5760016110c6565b6110c6600a43611595565b90505b4381101561111a578281406040516020016110ee929190918252602082015260400190565b60408051601f198184030181529190528051602090910120925080611112816115d8565b9150506110c9565b50600554604051611138918491602001918252602082015260400190565b60408051601f1981840301815291905280516020909101209150600061116061010084611607565b90506004546000036111e857600060038190555b60025481101561119f5760008181526006602052604081205580611197816115d8565b915050611174565b506002546111af90610100611576565b60048190556040519081527f01c3cbb0d62726ab09d163873ebf9aed99dd8dc08e57bc938f458132fd178cf69060200160405180910390a15b60005b6101008160ff16101561131b57600354818303905b60025481101561131157600081815260066020526040812054600160ff85161b1690036113095760008181526006602090815260408083208054600160ff881690811b9091179091556007909252909120906101008110611263576112636115c2565b015495506000600a431161127857600161127d565b600a43035b90505b438110156112c7578681406040516020016112a5929190918252602082015260400190565b60408051601f1981840301815291905280516020909101209650600101611280565b506005869055600480546000190190555b6003546000908152600660205260409020546001016112ff576003805460010190556112d8565b5093949350505050565b600101611200565b50506001016111eb565b5060405162461bcd60e51b81526020600482015260136024820152726e6f2072616e646f6d20617661696c61626c6560681b60448201526064016106db565b826101008101928215611389579160200282015b8281111561138957823582559160200191906001019061136e565b50610ed49291505b80821115610ed45760008155600101611391565b600080858511156113b557600080fd5b838611156113c257600080fd5b5050820193919092039150565b6000602082840312156113e157600080fd5b81356001600160e01b03198116811461075c57600080fd5b60006020828403121561140b57600080fd5b81356001600160a01b038116811461075c57600080fd5b6000806040838503121561143557600080fd5b50508035926020909101359150565b6020808252825182820181905260009190848201906040850190845b8181101561147c57835183529284019291840191600101611460565b50909695505050505050565b60006020828403121561149a57600080fd5b5035919050565b60006120008083850312156114b557600080fd5b8381840111156114c457600080fd5b509092915050565b801515811461077e57600080fd5b6000806000606084860312156114ef57600080fd5b83359250602084013591506040840135611508816114cc565b809150509250925092565b6000806040838503121561152657600080fd5b823591506020830135611538816114cc565b809150509250929050565b60006020828403121561155557600080fd5b815161075c816114cc565b634e487b7160e01b600052601160045260246000fd5b600081600019048311821515161561159057611590611560565b500290565b6000828210156115a7576115a7611560565b500390565b634e487b7160e01b600052604160045260246000fd5b634e487b7160e01b600052603260045260246000fd5b6000600182016115ea576115ea611560565b5060010190565b634e487b7160e01b600052601260045260246000fd5b60008261162457634e487b7160e01b600052601260045260246000fd5b50069056fea2646970667358221220a85162862b125ec738b70486c6ad8bdd07def13a1bc58a0972e2b782df4eab5664736f6c634300080d0033","bytecodeSha1":"4d2f1238b5f92cec4b8e8686f7226508f1519e23","compiler":{"evm_version":"istanbul","optimizer":{"enabled":true,"runs":200},"version":"0.8.13+commit.abaa5c0e"},"contractName":"Random","language":"Solidity","natspec":{"kind":"dev","methods":{"ownerOf()":{"details":"Returns the address of the current owner."},"renounceOwnership()":{"details":"Leaves the contract without owner. It will not be possible to call `onlyOwner` functions anymore. Can only be called by the current owner. NOTE: Renouncing ownership will leave the contract without an owner, thereby removing any functionality that is only available to the owner."},"supportsInterface(bytes4)":{"details":"Returns true if this contract implements the interface defined by `interfaceId`. See the corresponding https://eips.ethereum.org/EIPS/eip-165#how-interfaces-are-identified[EIP section] to learn more about how these ids are created. This function call must use less than 30 000 gas."},"transferOwnership(address)":{"details":"Transfers ownership of the contract to a new account (`newOwner`). Can only be called by the current owner."}},"version":1},"opcodes":"PUSH1 0x80 PUSH1 0x40 MSTORE PUSH1 0x4 CALLDATASIZE LT PUSH2 0x181 JUMPI PUSH1 0x0 CALLDATALOAD PUSH1 0xE0 SHR DUP1 PUSH4 0x9507D39A GT PUSH2 0xD1 JUMPI DUP1 PUSH4 0xCCC07959 GT PUSH2 0x8A JUMPI DUP1 PUSH4 0xDDCA3F43 GT PUSH2 0x64 JUMPI DUP1 PUSH4 0xDDCA3F43 EQ PUSH2 0x4B2 JUMPI DUP1 PUSH4 0xE5225381 EQ PUSH2 0x4C7 JUMPI DUP1 PUSH4 0xF2FDE38B EQ PUSH2 0x4DC JUMPI DUP1 PUSH4 0xF9C016D7 EQ PUSH2 0x4FC JUMPI PUSH2 0x181 JUMP JUMPDEST DUP1 PUSH4 0xCCC07959 EQ PUSH2 0x456 JUMPI DUP1 PUSH4 0xCE97870A EQ PUSH2 0x48A JUMPI DUP1 PUSH4 0xD6935858 EQ PUSH2 0x49D JUMPI PUSH2 0x181 JUMP JUMPDEST DUP1 PUSH4 0x9507D39A EQ PUSH2 0x3AD JUMPI DUP1 PUSH4 0x97962076 EQ PUSH2 0x3C0 JUMPI DUP1 PUSH4 0x9E89A353 EQ PUSH2 0x3DD JUMPI DUP1 PUSH4 0xAAFE0008 EQ PUSH2 0x3FD JUMPI DUP1 PUSH4 0xAF640D0F EQ PUSH2 0x410 JUMPI DUP1 PUSH4 0xBF1F4D6E EQ PUSH2 0x443 JUMPI PUSH2 0x181 JUMP JUMPDEST DUP1 PUSH4 0x5BF3B5C7 GT PUSH2 0x13E JUMPI DUP1 PUSH4 0x715018A6 GT PUSH2 0x118 JUMPI DUP1 PUSH4 0x715018A6 EQ PUSH2 0x336 JUMPI DUP1 PUSH4 0x72EA61BF EQ PUSH2 0x34B JUMPI DUP1 PUSH4 0x854BA99D EQ PUSH2 0x360 JUMPI DUP1 PUSH4 0x8DA5CB5B EQ PUSH2 0x375 JUMPI PUSH2 0x181 JUMP JUMPDEST DUP1 PUSH4 0x5BF3B5C7 EQ PUSH2 0x2EE JUMPI DUP1 PUSH4 0x669E48AA EQ PUSH2 0x303 JUMPI DUP1 PUSH4 0x69FE0E2D EQ PUSH2 0x316 JUMPI PUSH2 0x181 JUMP JUMPDEST DUP1 PUSH4 0x1FFC9A7 EQ PUSH2 0x210 JUMPI DUP1 PUSH4 0x5D6BD9C EQ PUSH2 0x245 JUMPI DUP1 PUSH4 0x6661ABD EQ PUSH2 0x25A JUMPI DUP1 PUSH4 0x2F54BF6E EQ PUSH2 0x279 JUMPI DUP1 PUSH4 0x37F5DF65 EQ PUSH2 0x2AE JUMPI DUP1 PUSH4 0x414FC301 EQ PUSH2 0x2CE JUMPI JUMPDEST CALLVALUE DUP1 ISZERO PUSH2 0x18D JUMPI PUSH1 0x0 DUP1 REVERT JUMPDEST POP PUSH2 0x196 PUSH2 0x51C JUMP JUMPDEST PUSH1 0x0 PUSH2 0x1A6 PUSH1 0x24 PUSH1 0x4 CALLDATASIZE DUP5 PUSH2 0x13A5 JUMP JUMPDEST DUP1 DUP1 PUSH1 0x1F ADD PUSH1 0x20 DUP1 SWAP2 DIV MUL PUSH1 0x20 ADD PUSH1 0x40 MLOAD SWAP1 DUP2 ADD PUSH1 0x40 MSTORE DUP1 SWAP4 SWAP3 SWAP2 SWAP1 DUP2 DUP2 MSTORE PUSH1 0x20 ADD DUP4 DUP4 DUP1 DUP3 DUP5 CALLDATACOPY PUSH1 0x0 SWAP3 ADD DUP3 SWAP1 MSTORE POP PUSH1 0x20 DUP6 ADD MLOAD SWAP5 SWAP6 POP SWAP3 POP POP CALLDATASIZE PUSH1 0x23 NOT DUP2 ADD SWAP2 POP PUSH1 0x1F NOT ADD PUSH1 0x4 DUP4 DUP1 CALLDATACOPY DUP2 PUSH1 0x24 PUSH1 0x4 CALLDATACOPY PUSH1 0x0 DUP1 DUP3 PUSH1 0x0 DUP8 GAS DELEGATECALL SWAP3 POP POP POP PUSH2 0x20E DUP2 PUSH2 0x6E6 JUMP JUMPDEST STOP JUMPDEST CALLVALUE DUP1 ISZERO PUSH2 0x21C JUMPI PUSH1 0x0 DUP1 REVERT JUMPDEST POP PUSH2 0x230 PUSH2 0x22B CALLDATASIZE PUSH1 0x4 PUSH2 0x13CF JUMP JUMPDEST PUSH2 0x700 JUMP JUMPDEST PUSH1 0x40 MLOAD SWAP1 ISZERO ISZERO DUP2 MSTORE PUSH1 0x20 ADD JUMPDEST PUSH1 0x40 MLOAD DUP1 SWAP2 SUB SWAP1 RETURN JUMPDEST CALLVALUE DUP1 ISZERO PUSH2 0x251 JUMPI PUSH1 0x0 DUP1 REVERT JUMPDEST POP PUSH2 0x20E PUSH2 0x737 JUMP JUMPDEST CALLVALUE DUP1 ISZERO PUSH2 0x266 JUMPI PUSH1 0x0 DUP1 REVERT JUMPDEST POP PUSH1 0x4 SLOAD JUMPDEST PUSH1 0x40 MLOAD SWAP1 DUP2 MSTORE PUSH1 0x20 ADD PUSH2 0x23C JUMP JUMPDEST CALLVALUE DUP1 ISZERO PUSH2 0x285 JUMPI PUSH1 0x0 DUP1 REVERT JUMPDEST POP PUSH2 0x230 PUSH2 0x294 CALLDATASIZE PUSH1 0x4 PUSH2 0x13F9 JUMP JUMPDEST PUSH1 0x0 SLOAD PUSH3 0x10000 SWAP1 DIV PUSH1 0x1 PUSH1 0x1 PUSH1 0xA0 SHL SUB SWAP1 DUP2 AND SWAP2 AND EQ SWAP1 JUMP JUMPDEST PUSH2 0x2C1 PUSH2 0x2BC CALLDATASIZE PUSH1 0x4 PUSH2 0x1422 JUMP JUMPDEST PUSH2 0x74E JUMP JUMPDEST PUSH1 0x40 MLOAD PUSH2 0x23C SWAP2 SWAP1 PUSH2 0x1444 JUMP JUMPDEST CALLVALUE DUP1 ISZERO PUSH2 0x2DA JUMPI PUSH1 0x0 DUP1 REVERT JUMPDEST POP PUSH2 0x20E PUSH2 0x2E9 CALLDATASIZE PUSH1 0x4 PUSH2 0x1488 JUMP JUMPDEST PUSH2 0x763 JUMP JUMPDEST CALLVALUE DUP1 ISZERO PUSH2 0x2FA JUMPI PUSH1 0x0 DUP1 REVERT JUMPDEST POP PUSH2 0x20E PUSH2 0x781 JUMP JUMPDEST PUSH2 0x2C1 PUSH2 0x311 CALLDATASIZE PUSH1 0x4 PUSH2 0x1422 JUMP JUMPDEST PUSH2 0x796 JUMP JUMPDEST CALLVALUE DUP1 ISZERO PUSH2 0x322 JUMPI PUSH1 0x0 DUP1 REVERT JUMPDEST POP PUSH2 0x20E PUSH2 0x331 CALLDATASIZE PUSH1 0x4 PUSH2 0x1488 JUMP JUMPDEST PUSH2 0x7A4 JUMP JUMPDEST CALLVALUE DUP1 ISZERO PUSH2 0x342 JUMPI PUSH1 0x0 DUP1 REVERT JUMPDEST POP PUSH2 0x20E PUSH2 0x7E7 JUMP JUMPDEST CALLVALUE DUP1 ISZERO PUSH2 0x357 JUMPI PUSH1 0x0 DUP1 REVERT JUMPDEST POP PUSH2 0x20E PUSH2 0x7F9 JUMP JUMPDEST CALLVALUE DUP1 ISZERO PUSH2 0x36C JUMPI PUSH1 0x0 DUP1 REVERT JUMPDEST POP PUSH2 0x230 PUSH2 0x813 JUMP JUMPDEST CALLVALUE DUP1 ISZERO PUSH2 0x381 JUMPI PUSH1 0x0 DUP1 REVERT JUMPDEST POP PUSH1 0x0 SLOAD PUSH3 0x10000 SWAP1 DIV PUSH1 0x1 PUSH1 0x1 PUSH1 0xA0 SHL SUB AND JUMPDEST PUSH1 0x40 MLOAD PUSH1 0x1 PUSH1 0x1 PUSH1 0xA0 SHL SUB SWAP1 SWAP2 AND DUP2 MSTORE PUSH1 0x20 ADD PUSH2 0x23C JUMP JUMPDEST PUSH2 0x26B PUSH2 0x3BB CALLDATASIZE PUSH1 0x4 PUSH2 0x1488 JUMP JUMPDEST PUSH2 0x831 JUMP JUMPDEST CALLVALUE DUP1 ISZERO PUSH2 0x3CC JUMPI PUSH1 0x0 DUP1 REVERT JUMPDEST POP PUSH1 0x0 SLOAD PUSH2 0x100 SWAP1 DIV PUSH1 0xFF AND PUSH2 0x230 JUMP JUMPDEST CALLVALUE DUP1 ISZERO PUSH2 0x3E9 JUMPI PUSH1 0x0 DUP1 REVERT JUMPDEST POP PUSH2 0x20E PUSH2 0x3F8 CALLDATASIZE PUSH1 0x4 PUSH2 0x14A1 JUMP JUMPDEST PUSH2 0x83E JUMP JUMPDEST PUSH2 0x26B PUSH2 0x40B CALLDATASIZE PUSH1 0x4 PUSH2 0x1488 JUMP JUMPDEST PUSH2 0x8D8 JUMP JUMPDEST CALLVALUE DUP1 ISZERO PUSH2 0x41C JUMPI PUSH1 0x0 DUP1 REVERT JUMPDEST POP PUSH32 0x2DFE2D0485B616B61DB1800F30F4A14B26754B328FA09BA4EC73EE7276766CC PUSH2 0x26B JUMP JUMPDEST PUSH2 0x2C1 PUSH2 0x451 CALLDATASIZE PUSH1 0x4 PUSH2 0x14DA JUMP JUMPDEST PUSH2 0x8E5 JUMP JUMPDEST CALLVALUE DUP1 ISZERO PUSH2 0x462 JUMPI PUSH1 0x0 DUP1 REVERT JUMPDEST POP PUSH2 0x395 PUSH32 0x0 DUP2 JUMP JUMPDEST PUSH2 0x26B PUSH2 0x498 CALLDATASIZE PUSH1 0x4 PUSH2 0x1513 JUMP JUMPDEST PUSH2 0xC59 JUMP JUMPDEST CALLVALUE DUP1 ISZERO PUSH2 0x4A9 JUMPI PUSH1 0x0 DUP1 REVERT JUMPDEST POP PUSH2 0x20E PUSH2 0xC8E JUMP JUMPDEST CALLVALUE DUP1 ISZERO PUSH2 0x4BE JUMPI PUSH1 0x0 DUP1 REVERT JUMPDEST POP PUSH1 0x1 SLOAD PUSH2 0x26B JUMP JUMPDEST CALLVALUE DUP1 ISZERO PUSH2 0x4D3 JUMPI PUSH1 0x0 DUP1 REVERT JUMPDEST POP PUSH2 0x20E PUSH2 0xCAA JUMP JUMPDEST CALLVALUE DUP1 ISZERO PUSH2 0x4E8 JUMPI PUSH1 0x0 DUP1 REVERT JUMPDEST POP PUSH2 0x20E PUSH2 0x4F7 CALLDATASIZE PUSH1 0x4 PUSH2 0x13F9 JUMP JUMPDEST PUSH2 0xCDE JUMP JUMPDEST CALLVALUE DUP1 ISZERO PUSH2 0x508 JUMPI PUSH1 0x0 DUP1 REVERT JUMPDEST POP PUSH2 0x26B PUSH2 0x517 CALLDATASIZE PUSH1 0x4 PUSH2 0x1488 JUMP JUMPDEST PUSH2 0xD54 JUMP JUMPDEST PUSH1 0x0 SLOAD PUSH1 0x1 PUSH1 0x1 PUSH1 0xA0 SHL SUB PUSH3 0x10000 SWAP1 SWAP2 DIV AND CALLER EQ DUP1 PUSH2 0x5CF JUMPI POP PUSH1 0x1 PUSH1 0x1 PUSH1 0xA0 SHL SUB PUSH32 0x0 AND PUSH4 0x16279055 CALLER PUSH1 0x40 MLOAD PUSH1 0x1 PUSH1 0x1 PUSH1 0xE0 SHL SUB NOT PUSH1 0xE0 DUP5 SWAP1 SHL AND DUP2 MSTORE PUSH1 0x1 PUSH1 0x1 PUSH1 0xA0 SHL SUB SWAP1 SWAP2 AND PUSH1 0x4 DUP3 ADD MSTORE PUSH1 0x24 ADD PUSH1 0x20 PUSH1 0x40 MLOAD DUP1 DUP4 SUB DUP2 DUP7 GAS STATICCALL ISZERO DUP1 ISZERO PUSH2 0x5AB JUMPI RETURNDATASIZE PUSH1 0x0 DUP1 RETURNDATACOPY RETURNDATASIZE PUSH1 0x0 REVERT JUMPDEST POP POP POP POP PUSH1 0x40 MLOAD RETURNDATASIZE PUSH1 0x1F NOT PUSH1 0x1F DUP3 ADD AND DUP3 ADD DUP1 PUSH1 0x40 MSTORE POP DUP2 ADD SWAP1 PUSH2 0x5CF SWAP2 SWAP1 PUSH2 0x1543 JUMP JUMPDEST DUP1 PUSH2 0x66D JUMPI POP PUSH1 0x1 PUSH1 0x1 PUSH1 0xA0 SHL SUB PUSH32 0x0 AND PUSH4 0x6D70F7AE CALLER PUSH1 0x40 MLOAD PUSH1 0x1 PUSH1 0x1 PUSH1 0xE0 SHL SUB NOT PUSH1 0xE0 DUP5 SWAP1 SHL AND DUP2 MSTORE PUSH1 0x1 PUSH1 0x1 PUSH1 0xA0 SHL SUB SWAP1 SWAP2 AND PUSH1 0x4 DUP3 ADD MSTORE PUSH1 0x24 ADD PUSH1 0x20 PUSH1 0x40 MLOAD DUP1 DUP4 SUB DUP2 DUP7 GAS STATICCALL ISZERO DUP1 ISZERO PUSH2 0x649 JUMPI RETURNDATASIZE PUSH1 0x0 DUP1 RETURNDATACOPY RETURNDATASIZE PUSH1 0x0 REVERT JUMPDEST POP POP POP POP PUSH1 0x40 MLOAD RETURNDATASIZE PUSH1 0x1F NOT PUSH1 0x1F DUP3 ADD AND DUP3 ADD DUP1 PUSH1 0x40 MSTORE POP DUP2 ADD SWAP1 PUSH2 0x66D SWAP2 SWAP1 PUSH2 0x1543 JUMP JUMPDEST PUSH2 0x6E4 JUMPI PUSH1 0x40 MLOAD PUSH3 0x461BCD PUSH1 0xE5 SHL DUP2 MSTORE PUSH1 0x20 PUSH1 0x4 DUP3 ADD MSTORE PUSH1 0x39 PUSH1 0x24 DUP3 ADD MSTORE PUSH32 0x416C6C6F77616E63653A2063616C6C6572206D757374206265205265706F7369 PUSH1 0x44 DUP3 ADD MSTORE PUSH32 0x746F727920436F6E7472616374206F72204F70657261746F7200000000000000 PUSH1 0x64 DUP3 ADD MSTORE PUSH1 0x84 ADD JUMPDEST PUSH1 0x40 MLOAD DUP1 SWAP2 SUB SWAP1 REVERT JUMPDEST JUMP JUMPDEST RETURNDATASIZE PUSH1 0x0 DUP1 RETURNDATACOPY DUP1 DUP1 ISZERO PUSH2 0x6F7 JUMPI RETURNDATASIZE PUSH1 0x0 RETURN JUMPDEST RETURNDATASIZE PUSH1 0x0 REVERT JUMPDEST POP POP JUMP JUMPDEST PUSH1 0x0 PUSH1 0x1 PUSH1 0x1 PUSH1 0xE0 SHL SUB NOT DUP3 AND PUSH4 0x1FFC9A7 PUSH1 0xE0 SHL EQ DUP1 PUSH2 0x731 JUMPI POP PUSH1 0x1 PUSH1 0x1 PUSH1 0xE0 SHL SUB NOT DUP3 AND PUSH4 0x15D37895 PUSH1 0xE3 SHL EQ JUMPDEST SWAP3 SWAP2 POP POP JUMP JUMPDEST PUSH2 0x73F PUSH2 0x51C JUMP JUMPDEST PUSH2 0x6E4 PUSH1 0x0 DUP1 SLOAD PUSH1 0xFF NOT AND SWAP1 SSTORE JUMP JUMPDEST PUSH1 0x60 PUSH2 0x75C DUP4 DUP4 PUSH1 0x1 PUSH2 0x8E5 JUMP JUMPDEST SWAP4 SWAP3 POP POP POP JUMP JUMPDEST PUSH2 0x76B PUSH2 0xED8 JUMP JUMPDEST PUSH1 0x1 SLOAD DUP2 GT ISZERO PUSH2 0x77E JUMPI PUSH2 0x77E DUP2 PUSH2 0x7A4 JUMP JUMPDEST POP JUMP JUMPDEST PUSH2 0x789 PUSH2 0xED8 JUMP JUMPDEST PUSH1 0x2 SLOAD PUSH1 0x3 SSTORE PUSH1 0x0 PUSH1 0x4 SSTORE JUMP JUMPDEST PUSH1 0x60 PUSH2 0x75C DUP4 DUP4 PUSH1 0x0 PUSH2 0x8E5 JUMP JUMPDEST PUSH2 0x7AC PUSH2 0xED8 JUMP JUMPDEST PUSH1 0x1 DUP2 SWAP1 SSTORE PUSH1 0x40 MLOAD DUP2 DUP2 MSTORE PUSH32 0x557809284DA7314475B1582804AE28E5F1349EFC1FE970EA25D50FCE75EB4F43 SWAP1 PUSH1 0x20 ADD PUSH1 0x40 MLOAD DUP1 SWAP2 SUB SWAP1 LOG1 POP JUMP JUMPDEST PUSH2 0x7EF PUSH2 0xFED JUMP JUMPDEST PUSH2 0x6E4 PUSH1 0x0 PUSH2 0x104E JUMP JUMPDEST PUSH2 0x801 PUSH2 0x51C JUMP JUMPDEST PUSH2 0x6E4 PUSH1 0x0 DUP1 SLOAD PUSH1 0xFF NOT AND PUSH1 0x1 OR SWAP1 SSTORE JUMP JUMPDEST PUSH1 0x0 DUP1 SLOAD PUSH1 0xFF AND DUP1 PUSH2 0x82C JUMPI POP PUSH1 0x0 SLOAD PUSH2 0x100 SWAP1 DIV PUSH1 0xFF AND JUMPDEST SWAP1 POP SWAP1 JUMP JUMPDEST PUSH1 0x0 PUSH2 0x731 DUP3 PUSH1 0x0 PUSH2 0xC59 JUMP JUMPDEST PUSH2 0x846 PUSH2 0xED8 JUMP JUMPDEST PUSH1 0x4 DUP1 SLOAD PUSH2 0x100 SWAP1 DUP2 ADD SWAP1 SWAP2 SSTORE PUSH1 0x2 DUP1 SLOAD PUSH1 0x1 DUP2 ADD SWAP1 SWAP2 SSTORE PUSH1 0x0 SWAP1 DUP2 MSTORE PUSH1 0x7 PUSH1 0x20 MSTORE PUSH1 0x40 SWAP1 KECCAK256 PUSH2 0x877 SWAP2 DUP4 SWAP1 PUSH2 0x135A JUMP JUMPDEST POP PUSH1 0x1 SLOAD ISZERO DUP1 ISZERO SWAP1 PUSH2 0x896 JUMPI POP PUSH1 0x1 SLOAD PUSH2 0x893 SWAP1 PUSH2 0x100 PUSH2 0x1576 JUMP JUMPDEST SELFBALANCE GT JUMPDEST ISZERO PUSH2 0x77E JUMPI PUSH1 0x1 SLOAD CALLER SWAP1 PUSH2 0x8FC SWAP1 PUSH2 0x8B0 SWAP1 PUSH2 0x100 PUSH2 0x1576 JUMP JUMPDEST PUSH1 0x40 MLOAD DUP2 ISZERO SWAP1 SWAP3 MUL SWAP2 PUSH1 0x0 DUP2 DUP2 DUP2 DUP6 DUP9 DUP9 CALL SWAP4 POP POP POP POP ISZERO DUP1 ISZERO PUSH2 0x6FC JUMPI RETURNDATASIZE PUSH1 0x0 DUP1 RETURNDATACOPY RETURNDATASIZE PUSH1 0x0 REVERT JUMPDEST PUSH1 0x0 PUSH2 0x731 DUP3 PUSH1 0x1 PUSH2 0xC59 JUMP JUMPDEST PUSH1 0x0 SLOAD PUSH1 0x60 SWAP1 PUSH3 0x10000 SWAP1 DIV PUSH1 0x1 PUSH1 0x1 PUSH1 0xA0 SHL SUB AND PUSH1 0x1 PUSH1 0x1 PUSH1 0xA0 SHL SUB AND CALLER PUSH1 0x1 PUSH1 0x1 PUSH1 0xA0 SHL SUB AND EQ ISZERO DUP1 ISZERO PUSH2 0x9B0 JUMPI POP PUSH1 0x1 PUSH1 0x1 PUSH1 0xA0 SHL SUB PUSH32 0x0 AND PUSH4 0x16279055 CALLER PUSH1 0x40 MLOAD PUSH1 0x1 PUSH1 0x1 PUSH1 0xE0 SHL SUB NOT PUSH1 0xE0 DUP5 SWAP1 SHL AND DUP2 MSTORE PUSH1 0x1 PUSH1 0x1 PUSH1 0xA0 SHL SUB SWAP1 SWAP2 AND PUSH1 0x4 DUP3 ADD MSTORE PUSH1 0x24 ADD PUSH1 0x20 PUSH1 0x40 MLOAD DUP1 DUP4 SUB DUP2 DUP7 GAS STATICCALL ISZERO DUP1 ISZERO PUSH2 0x98A JUMPI RETURNDATASIZE PUSH1 0x0 DUP1 RETURNDATACOPY RETURNDATASIZE PUSH1 0x0 REVERT JUMPDEST POP POP POP POP PUSH1 0x40 MLOAD RETURNDATASIZE PUSH1 0x1F NOT PUSH1 0x1F DUP3 ADD AND DUP3 ADD DUP1 PUSH1 0x40 MSTORE POP DUP2 ADD SWAP1 PUSH2 0x9AE SWAP2 SWAP1 PUSH2 0x1543 JUMP JUMPDEST ISZERO JUMPDEST DUP1 ISZERO PUSH2 0xA51 JUMPI POP PUSH1 0x1 PUSH1 0x1 PUSH1 0xA0 SHL SUB PUSH32 0x0 AND PUSH4 0x6D70F7AE CALLER PUSH1 0x40 MLOAD PUSH1 0x1 PUSH1 0x1 PUSH1 0xE0 SHL SUB NOT PUSH1 0xE0 DUP5 SWAP1 SHL AND DUP2 MSTORE PUSH1 0x1 PUSH1 0x1 PUSH1 0xA0 SHL SUB SWAP1 SWAP2 AND PUSH1 0x4 DUP3 ADD MSTORE PUSH1 0x24 ADD PUSH1 0x20 PUSH1 0x40 MLOAD DUP1 DUP4 SUB DUP2 DUP7 GAS STATICCALL ISZERO DUP1 ISZERO PUSH2 0xA2B JUMPI RETURNDATASIZE PUSH1 0x0 DUP1 RETURNDATACOPY RETURNDATASIZE PUSH1 0x0 REVERT JUMPDEST POP POP POP POP PUSH1 0x40 MLOAD RETURNDATASIZE PUSH1 0x1F NOT PUSH1 0x1F DUP3 ADD AND DUP3 ADD DUP1 PUSH1 0x40 MSTORE POP DUP2 ADD SWAP1 PUSH2 0xA4F SWAP2 SWAP1 PUSH2 0x1543 JUMP JUMPDEST ISZERO JUMPDEST ISZERO PUSH2 0xB32 JUMPI PUSH1 0x1 SLOAD PUSH1 0x0 SUB PUSH2 0xA97 JUMPI PUSH1 0x40 MLOAD PUSH3 0x461BCD PUSH1 0xE5 SHL DUP2 MSTORE PUSH1 0x20 PUSH1 0x4 DUP3 ADD MSTORE PUSH1 0xC PUSH1 0x24 DUP3 ADD MSTORE PUSH12 0x19195CD858DD1A5D985D1959 PUSH1 0xA2 SHL PUSH1 0x44 DUP3 ADD MSTORE PUSH1 0x64 ADD PUSH2 0x6DB JUMP JUMPDEST DUP4 PUSH1 0x1 SLOAD PUSH2 0xAA5 SWAP2 SWAP1 PUSH2 0x1576 JUMP JUMPDEST CALLVALUE LT ISZERO PUSH2 0xAE3 JUMPI PUSH1 0x40 MLOAD PUSH3 0x461BCD PUSH1 0xE5 SHL DUP2 MSTORE PUSH1 0x20 PUSH1 0x4 DUP3 ADD MSTORE PUSH1 0xC PUSH1 0x24 DUP3 ADD MSTORE PUSH12 0x4D7573742070617920666565 PUSH1 0xA0 SHL PUSH1 0x44 DUP3 ADD MSTORE PUSH1 0x64 ADD PUSH2 0x6DB JUMP JUMPDEST CALLER PUSH1 0x1 PUSH1 0x1 PUSH1 0xA0 SHL SUB AND PUSH2 0x8FC DUP6 PUSH1 0x1 SLOAD PUSH2 0xAFE SWAP2 SWAP1 PUSH2 0x1576 JUMP JUMPDEST PUSH2 0xB08 SWAP1 CALLVALUE PUSH2 0x1595 JUMP JUMPDEST PUSH1 0x40 MLOAD DUP2 ISZERO SWAP1 SWAP3 MUL SWAP2 PUSH1 0x0 DUP2 DUP2 DUP2 DUP6 DUP9 DUP9 CALL SWAP4 POP POP POP POP ISZERO DUP1 ISZERO PUSH2 0xB30 JUMPI RETURNDATASIZE PUSH1 0x0 DUP1 RETURNDATACOPY RETURNDATASIZE PUSH1 0x0 REVERT JUMPDEST POP JUMPDEST DUP4 PUSH8 0xFFFFFFFFFFFFFFFF DUP2 GT ISZERO PUSH2 0xB4B JUMPI PUSH2 0xB4B PUSH2 0x15AC JUMP JUMPDEST PUSH1 0x40 MLOAD SWAP1 DUP1 DUP3 MSTORE DUP1 PUSH1 0x20 MUL PUSH1 0x20 ADD DUP3 ADD PUSH1 0x40 MSTORE DUP1 ISZERO PUSH2 0xB74 JUMPI DUP2 PUSH1 0x20 ADD PUSH1 0x20 DUP3 MUL DUP1 CALLDATASIZE DUP4 CALLDATACOPY ADD SWAP1 POP JUMPDEST POP SWAP1 POP PUSH1 0x0 JUMPDEST DUP5 DUP2 LT ISZERO PUSH2 0xBD8 JUMPI PUSH2 0xB8B DUP5 PUSH2 0x10A9 JUMP JUMPDEST DUP3 DUP3 DUP2 MLOAD DUP2 LT PUSH2 0xB9D JUMPI PUSH2 0xB9D PUSH2 0x15C2 JUMP JUMPDEST PUSH1 0x20 MUL PUSH1 0x20 ADD ADD DUP2 DUP2 MSTORE POP POP DUP2 DUP2 DUP2 MLOAD DUP2 LT PUSH2 0xBBB JUMPI PUSH2 0xBBB PUSH2 0x15C2 JUMP JUMPDEST PUSH1 0x20 MUL PUSH1 0x20 ADD ADD MLOAD SWAP4 POP DUP1 DUP1 PUSH2 0xBD0 SWAP1 PUSH2 0x15D8 JUMP JUMPDEST SWAP2 POP POP PUSH2 0xB7A JUMP JUMPDEST POP DUP2 ISZERO PUSH2 0xC17 JUMPI PUSH32 0x228482D158A0F50BBB36E193A73E74E8CBE78AA7C3691DEC54755D69991949AB DUP2 PUSH1 0x40 MLOAD PUSH2 0xC0E SWAP2 SWAP1 PUSH2 0x1444 JUMP JUMPDEST PUSH1 0x40 MLOAD DUP1 SWAP2 SUB SWAP1 LOG1 JUMPDEST PUSH32 0x7E86EA37F1F829DFEEA778DC1B557DF43E062615F0C2F7957181B1120CD6A6E4 PUSH1 0x4 SLOAD PUSH1 0x40 MLOAD PUSH2 0xC4A SWAP2 DUP2 MSTORE PUSH1 0x20 ADD SWAP1 JUMP JUMPDEST PUSH1 0x40 MLOAD DUP1 SWAP2 SUB SWAP1 LOG1 SWAP4 SWAP3 POP POP POP JUMP JUMPDEST PUSH1 0x0 DUP1 PUSH2 0xC68 PUSH1 0x1 DUP6 DUP6 PUSH2 0x8E5 JUMP JUMPDEST SWAP1 POP DUP1 PUSH1 0x0 DUP2 MLOAD DUP2 LT PUSH2 0xC7D JUMPI PUSH2 0xC7D PUSH2 0x15C2 JUMP JUMPDEST PUSH1 0x20 MUL PUSH1 0x20 ADD ADD MLOAD SWAP2 POP POP SWAP3 SWAP2 POP POP JUMP JUMPDEST PUSH2 0xC96 PUSH2 0xFED JUMP JUMPDEST PUSH2 0x6E4 PUSH1 0x0 DUP1 SLOAD PUSH2 0xFF00 NOT AND PUSH2 0x100 OR SWAP1 SSTORE JUMP JUMPDEST PUSH2 0xCB2 PUSH2 0xFED JUMP JUMPDEST PUSH1 0x40 MLOAD CALLER SWAP1 SELFBALANCE DUP1 ISZERO PUSH2 0x8FC MUL SWAP2 PUSH1 0x0 DUP2 DUP2 DUP2 DUP6 DUP9 DUP9 CALL SWAP4 POP POP POP POP ISZERO DUP1 ISZERO PUSH2 0x77E JUMPI RETURNDATASIZE PUSH1 0x0 DUP1 RETURNDATACOPY RETURNDATASIZE PUSH1 0x0 REVERT JUMPDEST PUSH2 0xCE6 PUSH2 0xFED JUMP JUMPDEST PUSH1 0x1 PUSH1 0x1 PUSH1 0xA0 SHL SUB DUP2 AND PUSH2 0xD4B JUMPI PUSH1 0x40 MLOAD PUSH3 0x461BCD PUSH1 0xE5 SHL DUP2 MSTORE PUSH1 0x20 PUSH1 0x4 DUP3 ADD MSTORE PUSH1 0x26 PUSH1 0x24 DUP3 ADD MSTORE PUSH32 0x4F776E61626C653A206E6577206F776E657220697320746865207A65726F2061 PUSH1 0x44 DUP3 ADD MSTORE PUSH6 0x646472657373 PUSH1 0xD0 SHL PUSH1 0x64 DUP3 ADD MSTORE PUSH1 0x84 ADD PUSH2 0x6DB JUMP JUMPDEST PUSH2 0x77E DUP2 PUSH2 0x104E JUMP JUMPDEST PUSH1 0x0 DUP1 PUSH1 0x14 NUMBER GT PUSH2 0xD66 JUMPI PUSH1 0x1 PUSH2 0xD71 JUMP JUMPDEST PUSH2 0xD71 PUSH1 0x14 NUMBER PUSH2 0x1595 JUMP JUMPDEST SWAP1 POP JUMPDEST NUMBER DUP2 LT ISZERO PUSH2 0xDC5 JUMPI DUP3 DUP2 BLOCKHASH PUSH1 0x40 MLOAD PUSH1 0x20 ADD PUSH2 0xD99 SWAP3 SWAP2 SWAP1 SWAP2 DUP3 MSTORE PUSH1 0x20 DUP3 ADD MSTORE PUSH1 0x40 ADD SWAP1 JUMP JUMPDEST PUSH1 0x40 DUP1 MLOAD PUSH1 0x1F NOT DUP2 DUP5 SUB ADD DUP2 MSTORE SWAP2 SWAP1 MSTORE DUP1 MLOAD PUSH1 0x20 SWAP1 SWAP2 ADD KECCAK256 SWAP3 POP DUP1 PUSH2 0xDBD DUP2 PUSH2 0x15D8 JUMP JUMPDEST SWAP2 POP POP PUSH2 0xD74 JUMP JUMPDEST POP PUSH1 0x5 SLOAD PUSH1 0x40 MLOAD PUSH2 0xDE3 SWAP2 DUP5 SWAP2 PUSH1 0x20 ADD SWAP2 DUP3 MSTORE PUSH1 0x20 DUP3 ADD MSTORE PUSH1 0x40 ADD SWAP1 JUMP JUMPDEST PUSH1 0x40 MLOAD PUSH1 0x20 DUP2 DUP4 SUB SUB DUP2 MSTORE SWAP1 PUSH1 0x40 MSTORE DUP1 MLOAD SWAP1 PUSH1 0x20 ADD KECCAK256 PUSH1 0x0 SHR SWAP2 POP PUSH1 0x2 SLOAD PUSH1 0x3 SLOAD EQ PUSH2 0xED4 JUMPI PUSH1 0x0 PUSH1 0x2 SLOAD PUSH2 0x100 MUL DUP4 DUP2 PUSH2 0xE20 JUMPI PUSH2 0xE20 PUSH2 0x15F1 JUMP JUMPDEST MOD PUSH1 0xFF AND SWAP1 POP PUSH1 0x7 PUSH1 0x0 PUSH2 0x100 DUP4 DUP2 PUSH2 0xE3B JUMPI PUSH2 0xE3B PUSH2 0x15F1 JUMP JUMPDEST DIV DUP2 MSTORE PUSH1 0x20 ADD SWAP1 DUP2 MSTORE PUSH1 0x20 ADD PUSH1 0x0 KECCAK256 PUSH2 0x100 DUP3 DUP2 PUSH2 0xE5B JUMPI PUSH2 0xE5B PUSH2 0x15F1 JUMP JUMPDEST MOD PUSH2 0x100 DUP2 LT PUSH2 0xE6D JUMPI PUSH2 0xE6D PUSH2 0x15C2 JUMP JUMPDEST ADD SLOAD SWAP3 POP PUSH1 0x0 PUSH1 0x14 NUMBER GT PUSH2 0xE82 JUMPI PUSH1 0x1 PUSH2 0xE87 JUMP JUMPDEST PUSH1 0x14 NUMBER SUB JUMPDEST SWAP1 POP JUMPDEST NUMBER DUP2 LT ISZERO PUSH2 0xED1 JUMPI DUP4 DUP2 BLOCKHASH PUSH1 0x40 MLOAD PUSH1 0x20 ADD PUSH2 0xEAF SWAP3 SWAP2 SWAP1 SWAP2 DUP3 MSTORE PUSH1 0x20 DUP3 ADD MSTORE PUSH1 0x40 ADD SWAP1 JUMP JUMPDEST PUSH1 0x40 DUP1 MLOAD PUSH1 0x1F NOT DUP2 DUP5 SUB ADD DUP2 MSTORE SWAP2 SWAP1 MSTORE DUP1 MLOAD PUSH1 0x20 SWAP1 SWAP2 ADD KECCAK256 SWAP4 POP PUSH1 0x1 ADD PUSH2 0xE8A JUMP JUMPDEST POP POP JUMPDEST POP SWAP1 JUMP JUMPDEST PUSH1 0x0 SLOAD PUSH1 0x1 PUSH1 0x1 PUSH1 0xA0 SHL SUB PUSH3 0x10000 SWAP1 SWAP2 DIV AND CALLER EQ DUP1 PUSH2 0xF8B JUMPI POP PUSH1 0x1 PUSH1 0x1 PUSH1 0xA0 SHL SUB PUSH32 0x0 AND PUSH4 0x6D70F7AE CALLER PUSH1 0x40 MLOAD PUSH1 0x1 PUSH1 0x1 PUSH1 0xE0 SHL SUB NOT PUSH1 0xE0 DUP5 SWAP1 SHL AND DUP2 MSTORE PUSH1 0x1 PUSH1 0x1 PUSH1 0xA0 SHL SUB SWAP1 SWAP2 AND PUSH1 0x4 DUP3 ADD MSTORE PUSH1 0x24 ADD PUSH1 0x20 PUSH1 0x40 MLOAD DUP1 DUP4 SUB DUP2 DUP7 GAS STATICCALL ISZERO DUP1 ISZERO PUSH2 0xF67 JUMPI RETURNDATASIZE PUSH1 0x0 DUP1 RETURNDATACOPY RETURNDATASIZE PUSH1 0x0 REVERT JUMPDEST POP POP POP POP PUSH1 0x40 MLOAD RETURNDATASIZE PUSH1 0x1F NOT PUSH1 0x1F DUP3 ADD AND DUP3 ADD DUP1 PUSH1 0x40 MSTORE POP DUP2 ADD SWAP1 PUSH2 0xF8B SWAP2 SWAP1 PUSH2 0x1543 JUMP JUMPDEST PUSH2 0x6E4 JUMPI PUSH1 0x40 MLOAD PUSH3 0x461BCD PUSH1 0xE5 SHL DUP2 MSTORE PUSH1 0x20 PUSH1 0x4 DUP3 ADD MSTORE PUSH1 0x2D PUSH1 0x24 DUP3 ADD MSTORE PUSH32 0x416C6C6F77616E63653A2063616C6C6572206D757374206265205265706F7369 PUSH1 0x44 DUP3 ADD MSTORE PUSH13 0x3A37B93C9027B832B930BA37B9 PUSH1 0x99 SHL PUSH1 0x64 DUP3 ADD MSTORE PUSH1 0x84 ADD PUSH2 0x6DB JUMP JUMPDEST PUSH1 0x0 SLOAD PUSH1 0x1 PUSH1 0x1 PUSH1 0xA0 SHL SUB PUSH3 0x10000 SWAP1 SWAP2 DIV AND CALLER EQ PUSH2 0x6E4 JUMPI PUSH1 0x40 MLOAD PUSH3 0x461BCD PUSH1 0xE5 SHL DUP2 MSTORE PUSH1 0x20 PUSH1 0x4 DUP3 ADD MSTORE PUSH1 0x1F PUSH1 0x24 DUP3 ADD MSTORE PUSH32 0x416C6C6F77616E63653A2063616C6C6572206D757374206265204F776E657200 PUSH1 0x44 DUP3 ADD MSTORE PUSH1 0x64 ADD PUSH2 0x6DB JUMP JUMPDEST PUSH1 0x0 DUP1 SLOAD PUSH1 0x1 PUSH1 0x1 PUSH1 0xA0 SHL SUB DUP4 DUP2 AND PUSH3 0x10000 DUP2 DUP2 MUL PUSH3 0x10000 PUSH1 0x1 PUSH1 0xB0 SHL SUB NOT DUP6 AND OR DUP6 SSTORE PUSH1 0x40 MLOAD SWAP4 DIV SWAP2 SWAP1 SWAP2 AND SWAP3 SWAP1 SWAP2 DUP4 SWAP2 PUSH32 0x8BE0079C531659141344CD1FD0A4F28419497F9722A3DAAFE3B4186F6B6457E0 SWAP2 LOG3 POP POP JUMP JUMPDEST PUSH1 0x0 DUP1 PUSH1 0xA NUMBER GT PUSH2 0x10BB JUMPI PUSH1 0x1 PUSH2 0x10C6 JUMP JUMPDEST PUSH2 0x10C6 PUSH1 0xA NUMBER PUSH2 0x1595 JUMP JUMPDEST SWAP1 POP JUMPDEST NUMBER DUP2 LT ISZERO PUSH2 0x111A JUMPI DUP3 DUP2 BLOCKHASH PUSH1 0x40 MLOAD PUSH1 0x20 ADD PUSH2 0x10EE SWAP3 SWAP2 SWAP1 SWAP2 DUP3 MSTORE PUSH1 0x20 DUP3 ADD MSTORE PUSH1 0x40 ADD SWAP1 JUMP JUMPDEST PUSH1 0x40 DUP1 MLOAD PUSH1 0x1F NOT DUP2 DUP5 SUB ADD DUP2 MSTORE SWAP2 SWAP1 MSTORE DUP1 MLOAD PUSH1 0x20 SWAP1 SWAP2 ADD KECCAK256 SWAP3 POP DUP1 PUSH2 0x1112 DUP2 PUSH2 0x15D8 JUMP JUMPDEST SWAP2 POP POP PUSH2 0x10C9 JUMP JUMPDEST POP PUSH1 0x5 SLOAD PUSH1 0x40 MLOAD PUSH2 0x1138 SWAP2 DUP5 SWAP2 PUSH1 0x20 ADD SWAP2 DUP3 MSTORE PUSH1 0x20 DUP3 ADD MSTORE PUSH1 0x40 ADD SWAP1 JUMP JUMPDEST PUSH1 0x40 DUP1 MLOAD PUSH1 0x1F NOT DUP2 DUP5 SUB ADD DUP2 MSTORE SWAP2 SWAP1 MSTORE DUP1 MLOAD PUSH1 0x20 SWAP1 SWAP2 ADD KECCAK256 SWAP2 POP PUSH1 0x0 PUSH2 0x1160 PUSH2 0x100 DUP5 PUSH2 0x1607 JUMP JUMPDEST SWAP1 POP PUSH1 0x4 SLOAD PUSH1 0x0 SUB PUSH2 0x11E8 JUMPI PUSH1 0x0 PUSH1 0x3 DUP2 SWAP1 SSTORE JUMPDEST PUSH1 0x2 SLOAD DUP2 LT ISZERO PUSH2 0x119F JUMPI PUSH1 0x0 DUP2 DUP2 MSTORE PUSH1 0x6 PUSH1 0x20 MSTORE PUSH1 0x40 DUP2 KECCAK256 SSTORE DUP1 PUSH2 0x1197 DUP2 PUSH2 0x15D8 JUMP JUMPDEST SWAP2 POP POP PUSH2 0x1174 JUMP JUMPDEST POP PUSH1 0x2 SLOAD PUSH2 0x11AF SWAP1 PUSH2 0x100 PUSH2 0x1576 JUMP JUMPDEST PUSH1 0x4 DUP2 SWAP1 SSTORE PUSH1 0x40 MLOAD SWAP1 DUP2 MSTORE PUSH32 0x1C3CBB0D62726AB09D163873EBF9AED99DD8DC08E57BC938F458132FD178CF6 SWAP1 PUSH1 0x20 ADD PUSH1 0x40 MLOAD DUP1 SWAP2 SUB SWAP1 LOG1 JUMPDEST PUSH1 0x0 JUMPDEST PUSH2 0x100 DUP2 PUSH1 0xFF AND LT ISZERO PUSH2 0x131B JUMPI PUSH1 0x3 SLOAD DUP2 DUP4 SUB SWAP1 JUMPDEST PUSH1 0x2 SLOAD DUP2 LT ISZERO PUSH2 0x1311 JUMPI PUSH1 0x0 DUP2 DUP2 MSTORE PUSH1 0x6 PUSH1 0x20 MSTORE PUSH1 0x40 DUP2 KECCAK256 SLOAD PUSH1 0x1 PUSH1 0xFF DUP6 AND SHL AND SWAP1 SUB PUSH2 0x1309 JUMPI PUSH1 0x0 DUP2 DUP2 MSTORE PUSH1 0x6 PUSH1 0x20 SWAP1 DUP2 MSTORE PUSH1 0x40 DUP1 DUP4 KECCAK256 DUP1 SLOAD PUSH1 0x1 PUSH1 0xFF DUP9 AND SWAP1 DUP2 SHL SWAP1 SWAP2 OR SWAP1 SWAP2 SSTORE PUSH1 0x7 SWAP1 SWAP3 MSTORE SWAP1 SWAP2 KECCAK256 SWAP1 PUSH2 0x100 DUP2 LT PUSH2 0x1263 JUMPI PUSH2 0x1263 PUSH2 0x15C2 JUMP JUMPDEST ADD SLOAD SWAP6 POP PUSH1 0x0 PUSH1 0xA NUMBER GT PUSH2 0x1278 JUMPI PUSH1 0x1 PUSH2 0x127D JUMP JUMPDEST PUSH1 0xA NUMBER SUB JUMPDEST SWAP1 POP JUMPDEST NUMBER DUP2 LT ISZERO PUSH2 0x12C7 JUMPI DUP7 DUP2 BLOCKHASH PUSH1 0x40 MLOAD PUSH1 0x20 ADD PUSH2 0x12A5 SWAP3 SWAP2 SWAP1 SWAP2 DUP3 MSTORE PUSH1 0x20 DUP3 ADD MSTORE PUSH1 0x40 ADD SWAP1 JUMP JUMPDEST PUSH1 0x40 DUP1 MLOAD PUSH1 0x1F NOT DUP2 DUP5 SUB ADD DUP2 MSTORE SWAP2 SWAP1 MSTORE DUP1 MLOAD PUSH1 0x20 SWAP1 SWAP2 ADD KECCAK256 SWAP7 POP PUSH1 0x1 ADD PUSH2 0x1280 JUMP JUMPDEST POP PUSH1 0x5 DUP7 SWAP1 SSTORE PUSH1 0x4 DUP1 SLOAD PUSH1 0x0 NOT ADD SWAP1 SSTORE JUMPDEST PUSH1 0x3 SLOAD PUSH1 0x0 SWAP1 DUP2 MSTORE PUSH1 0x6 PUSH1 0x20 MSTORE PUSH1 0x40 SWAP1 KECCAK256 SLOAD PUSH1 0x1 ADD PUSH2 0x12FF JUMPI PUSH1 0x3 DUP1 SLOAD PUSH1 0x1 ADD SWAP1 SSTORE PUSH2 0x12D8 JUMP JUMPDEST POP SWAP4 SWAP5 SWAP4 POP POP POP POP JUMP JUMPDEST PUSH1 0x1 ADD PUSH2 0x1200 JUMP JUMPDEST POP POP PUSH1 0x1 ADD PUSH2 0x11EB JUMP JUMPDEST POP PUSH1 0x40 MLOAD PUSH3 0x461BCD PUSH1 0xE5 SHL DUP2 MSTORE PUSH1 0x20 PUSH1 0x4 DUP3 ADD MSTORE PUSH1 0x13 PUSH1 0x24 DUP3 ADD MSTORE PUSH19 0x6E6F2072616E646F6D20617661696C61626C65 PUSH1 0x68 SHL PUSH1 0x44 DUP3 ADD MSTORE PUSH1 0x64 ADD PUSH2 0x6DB JUMP JUMPDEST DUP3 PUSH2 0x100 DUP2 ADD SWAP3 DUP3 ISZERO PUSH2 0x1389 JUMPI SWAP2 PUSH1 0x20 MUL DUP3 ADD JUMPDEST DUP3 DUP2 GT ISZERO PUSH2 0x1389 JUMPI DUP3 CALLDATALOAD DUP3 SSTORE SWAP2 PUSH1 0x20 ADD SWAP2 SWAP1 PUSH1 0x1 ADD SWAP1 PUSH2 0x136E JUMP JUMPDEST POP PUSH2 0xED4 SWAP3 SWAP2 POP JUMPDEST DUP1 DUP3 GT ISZERO PUSH2 0xED4 JUMPI PUSH1 0x0 DUP2 SSTORE PUSH1 0x1 ADD PUSH2 0x1391 JUMP JUMPDEST PUSH1 0x0 DUP1 DUP6 DUP6 GT ISZERO PUSH2 0x13B5 JUMPI PUSH1 0x0 DUP1 REVERT JUMPDEST DUP4 DUP7 GT ISZERO PUSH2 0x13C2 JUMPI PUSH1 0x0 DUP1 REVERT JUMPDEST POP POP DUP3 ADD SWAP4 SWAP2 SWAP1 SWAP3 SUB SWAP2 POP JUMP JUMPDEST PUSH1 0x0 PUSH1 0x20 DUP3 DUP5 SUB SLT ISZERO PUSH2 0x13E1 JUMPI PUSH1 0x0 DUP1 REVERT JUMPDEST DUP2 CALLDATALOAD PUSH1 0x1 PUSH1 0x1 PUSH1 0xE0 SHL SUB NOT DUP2 AND DUP2 EQ PUSH2 0x75C JUMPI PUSH1 0x0 DUP1 REVERT JUMPDEST PUSH1 0x0 PUSH1 0x20 DUP3 DUP5 SUB SLT ISZERO PUSH2 0x140B JUMPI PUSH1 0x0 DUP1 REVERT JUMPDEST DUP2 CALLDATALOAD PUSH1 0x1 PUSH1 0x1 PUSH1 0xA0 SHL SUB DUP2 AND DUP2 EQ PUSH2 0x75C JUMPI PUSH1 0x0 DUP1 REVERT JUMPDEST PUSH1 0x0 DUP1 PUSH1 0x40 DUP4 DUP6 SUB SLT ISZERO PUSH2 0x1435 JUMPI PUSH1 0x0 DUP1 REVERT JUMPDEST POP POP DUP1 CALLDATALOAD SWAP3 PUSH1 0x20 SWAP1 SWAP2 ADD CALLDATALOAD SWAP2 POP JUMP JUMPDEST PUSH1 0x20 DUP1 DUP3 MSTORE DUP3 MLOAD DUP3 DUP3 ADD DUP2 SWAP1 MSTORE PUSH1 0x0 SWAP2 SWAP1 DUP5 DUP3 ADD SWAP1 PUSH1 0x40 DUP6 ADD SWAP1 DUP5 JUMPDEST DUP2 DUP2 LT ISZERO PUSH2 0x147C JUMPI DUP4 MLOAD DUP4 MSTORE SWAP3 DUP5 ADD SWAP3 SWAP2 DUP5 ADD SWAP2 PUSH1 0x1 ADD PUSH2 0x1460 JUMP JUMPDEST POP SWAP1 SWAP7 SWAP6 POP POP POP POP POP POP JUMP JUMPDEST PUSH1 0x0 PUSH1 0x20 DUP3 DUP5 SUB SLT ISZERO PUSH2 0x149A JUMPI PUSH1 0x0 DUP1 REVERT JUMPDEST POP CALLDATALOAD SWAP2 SWAP1 POP JUMP JUMPDEST PUSH1 0x0 PUSH2 0x2000 DUP1 DUP4 DUP6 SUB SLT ISZERO PUSH2 0x14B5 JUMPI PUSH1 0x0 DUP1 REVERT JUMPDEST DUP4 DUP2 DUP5 ADD GT ISZERO PUSH2 0x14C4 JUMPI PUSH1 0x0 DUP1 REVERT JUMPDEST POP SWAP1 SWAP3 SWAP2 POP POP JUMP JUMPDEST DUP1 ISZERO ISZERO DUP2 EQ PUSH2 0x77E JUMPI PUSH1 0x0 DUP1 REVERT JUMPDEST PUSH1 0x0 DUP1 PUSH1 0x0 PUSH1 0x60 DUP5 DUP7 SUB SLT ISZERO PUSH2 0x14EF JUMPI PUSH1 0x0 DUP1 REVERT JUMPDEST DUP4 CALLDATALOAD SWAP3 POP PUSH1 0x20 DUP5 ADD CALLDATALOAD SWAP2 POP PUSH1 0x40 DUP5 ADD CALLDATALOAD PUSH2 0x1508 DUP2 PUSH2 0x14CC JUMP JUMPDEST DUP1 SWAP2 POP POP SWAP3 POP SWAP3 POP SWAP3 JUMP JUMPDEST PUSH1 0x0 DUP1 PUSH1 0x40 DUP4 DUP6 SUB SLT ISZERO PUSH2 0x1526 JUMPI PUSH1 0x0 DUP1 REVERT JUMPDEST DUP3 CALLDATALOAD SWAP2 POP PUSH1 0x20 DUP4 ADD CALLDATALOAD PUSH2 0x1538 DUP2 PUSH2 0x14CC JUMP JUMPDEST DUP1 SWAP2 POP POP SWAP3 POP SWAP3 SWAP1 POP JUMP JUMPDEST PUSH1 0x0 PUSH1 0x20 DUP3 DUP5 SUB SLT ISZERO PUSH2 0x1555 JUMPI PUSH1 0x0 DUP1 REVERT JUMPDEST DUP2 MLOAD PUSH2 0x75C DUP2 PUSH2 0x14CC JUMP JUMPDEST PUSH4 0x4E487B71 PUSH1 0xE0 SHL PUSH1 0x0 MSTORE PUSH1 0x11 PUSH1 0x4 MSTORE PUSH1 0x24 PUSH1 0x0 REVERT JUMPDEST PUSH1 0x0 DUP2 PUSH1 0x0 NOT DIV DUP4 GT DUP3 ISZERO ISZERO AND ISZERO PUSH2 0x1590 JUMPI PUSH2 0x1590 PUSH2 0x1560 JUMP JUMPDEST POP MUL SWAP1 JUMP JUMPDEST PUSH1 0x0 DUP3 DUP3 LT ISZERO PUSH2 0x15A7 JUMPI PUSH2 0x15A7 PUSH2 0x1560 JUMP JUMPDEST POP SUB SWAP1 JUMP JUMPDEST PUSH4 0x4E487B71 PUSH1 0xE0 SHL PUSH1 0x0 MSTORE PUSH1 0x41 PUSH1 0x4 MSTORE PUSH1 0x24 PUSH1 0x0 REVERT JUMPDEST PUSH4 0x4E487B71 PUSH1 0xE0 SHL PUSH1 0x0 MSTORE PUSH1 0x32 PUSH1 0x4 MSTORE PUSH1 0x24 PUSH1 0x0 REVERT JUMPDEST PUSH1 0x0 PUSH1 0x1 DUP3 ADD PUSH2 0x15EA JUMPI PUSH2 0x15EA PUSH2 0x1560 JUMP JUMPDEST POP PUSH1 0x1 ADD SWAP1 JUMP JUMPDEST PUSH4 0x4E487B71 PUSH1 0xE0 SHL PUSH1 0x0 MSTORE PUSH1 0x12 PUSH1 0x4 MSTORE PUSH1 0x24 PUSH1 0x0 REVERT JUMPDEST PUSH1 0x0 DUP3 PUSH2 0x1624 JUMPI PUSH4 0x4E487B71 PUSH1 0xE0 SHL PUSH1 0x0 MSTORE PUSH1 0x12 PUSH1 0x4 MSTORE PUSH1 0x24 PUSH1 0x0 REVERT JUMPDEST POP MOD SWAP1 JUMP INVALID LOG2 PUSH5 0x6970667358 0x22 SLT KECCAK256 0xA8 MLOAD PUSH3 0x862B12 0x5E 0xC7 CODESIZE 0xB7 DIV DUP7 0xC6 0xAD DUP12 0xDD SMOD 0xDE CALL GASPRICE SHL 0xC5 DUP11 MULMOD PUSH19 0xE2B782DF4EAB5664736F6C634300080D003300 ","sha1":"65ba2c1ab8b5a345a8e8044c1997ab42afb9dadc","source":"// SPDX-License-Identifier: MIT\n// Beef MarketPlace Contracts v0.0.0 hello@mcdu.com\n\npragma solidity ^0.8.0;\n\nimport \"../Repository/Repository.sol\";\n\nbytes32 constant RANDOM = keccak256(\"Random\");\n\ncontract Random is RepositoryContract {\n\n    function id() public view returns (bytes32) {return RANDOM;}\n\n    uint256 private _fee;\n    uint256 private _ptr;\n    uint256 private _ptrstart;\n    uint256 private _count;\n    uint256 private _lastrandom;\n\n    mapping(uint256 => uint256) private _usedrandoms;\n    mapping(uint256 => uint256[256]) private _randoms;\n\n    event Randoms(uint256[] random);\n    event Remaining(uint256 count);\n    event Reset(uint256 count);\n    event Fee(uint256 fee);\n\n    constructor(Repository rep_) RepositoryContract(rep_) {}\n\n    function setFee(uint256 fee_) public onlyOperators {\n        _fee = fee_;\n        emit Fee(_fee);\n    }\n    function incrementFee(uint256 fee_) public onlyOperators {\n        if (fee_>_fee)\n            setFee(fee_);\n    }\n\n    function fee() public view returns (uint256) {\n        return _fee;\n    }\n\n    function count() public view returns (uint256) {\n        return _count;\n    }\n\n    function purgeall() external onlyOperators {\n        _ptrstart = _ptr;\n        _count = 0;\n    }\n\n    function collect() external onlyOwner {\n        payable(_msgSender()).transfer(address(this).balance);\n    }\n\n    function add(uint256[256] calldata newrandoms_) external onlyOperators {\n        unchecked {\n            _count += 256;\n            _randoms[_ptr++] = newrandoms_;\n        }\n        if (_fee!=0 && address(this).balance>_fee*256)\n            payable(_msgSender()).transfer(_fee*256);\n    }\n\n    function get(uint256 count_,uint256 random_,bool event_) public payable returns (uint256[] memory out_)\n    {\n        if (\n            _msgSender() != ownerOf() &&\n            !rep.isContract(_msgSender()) &&\n            !rep.isOperator(_msgSender())\n        ) {\n            require(_fee != 0, \"desactivated\");\n            require(msg.value >= _fee*count_, \"Must pay fee\");\n            payable(_msgSender()).transfer(msg.value-(_fee*count_));\n        }\n        out_ = new uint256[](count_);\n        for (uint i;i<count_;i++)\n        {\n            out_[i] = _random(random_);\n            random_ = out_[i];\n        }\n        if (event_)\n            emit Randoms(out_);\n        emit Remaining(_count);\n    }\n    function get(uint256 count_,uint256 random_) public payable returns (uint256[] memory out_)\n    {\n        return get(count_,random_,false);\n    }\n    function getWithEvent(uint256 count_,uint256 random_) external payable returns (uint256[] memory out_)\n    {\n        return get(count_,random_,true);\n    }\n\n    function get(uint256 random_,bool event_) public payable returns (uint256 out_) {\n        uint256[] memory values = get(1,random_,event_);\n        return values[0];\n    }\n    function get(uint256 random_) public payable returns (uint256 out_) {\n        return get(random_,false);\n    }\n    function getWithEvent(uint256 random_) public payable returns (uint256 out_) {\n        return get(random_,true);\n    }\n    function _random(uint256 random_) internal returns (uint256) {\n        for (\n            uint256 i = block.number > 10 ? block.number - 10 : 1;\n            i < block.number;\n            i++\n        ) random_ = uint256(keccak256(abi.encode(random_, blockhash(i))));\n        random_ = uint256(keccak256(abi.encode(random_, _lastrandom)));\n        uint8 k = uint8(random_ % 256);\n        if (_count == 0) {\n            _ptrstart = 0;\n            for (uint256 p = _ptrstart; p < _ptr; p++) delete _usedrandoms[p];\n            _count = _ptr * 256;\n            emit Reset(_count);\n        }\n        unchecked {\n            for (uint8 b = 0; b < 256; b++) {\n                uint8 ki = k - b;\n                for (uint256 p = _ptrstart; p < _ptr; p++)\n                    if (_usedrandoms[p] & (1 << ki) == 0) {\n                        _usedrandoms[p] |= 1 << ki;\n\n                        random_ = _randoms[p][ki];\n                        for (\n                            uint256 i = block.number > 10\n                                ? block.number - 10\n                                : 1;\n                            i < block.number;\n                            i++\n                        )\n                            random_ = uint256(\n                                keccak256(abi.encode(random_, blockhash(i)))\n                            );\n                        _lastrandom = random_;\n                        _count--;\n                        while (_usedrandoms[_ptrstart] == type(uint256).max)\n                            _ptrstart++;\n                        //if (_count % 256 == 0) emit RandomRemaining(_count);\n                        return random_;\n                    }\n            }\n            require(false, \"no random available\");\n        }\n    }\n\n    function getfree(uint256 random_) public view returns (uint256) {\n        for (\n            uint256 i = block.number > 20 ? block.number - 20 : 1;\n            i < block.number;\n            i++\n        ) random_ = uint256(keccak256(abi.encode(random_, blockhash(i))));\n        random_ = uint256(keccak256(abi.encode(random_, _lastrandom)));\n        unchecked {\n            if (_ptrstart != _ptr) {\n                uint256 k = uint8(random_ % (256 * _ptr));\n                random_ = _randoms[k / 256][k % 256];\n                for (\n                    uint256 i = block.number > 20 ? block.number - 20 : 1;\n                    i < block.number;\n                    i++\n                )\n                    random_ = uint256(\n                        keccak256(abi.encode(random_, blockhash(i)))\n                    );\n            }\n        }\n        return random_;\n    }\n}\n","sourcePath":"contracts/Random/Random.sol","type":"contract","deployment":{"address":"0x7E5d684439b6A2fc5f8E725ffA80f46b7Da610B7","chainid":"9997","blockHeight":165}}