{"bytecode":"60a06040523480156200001157600080fd5b5060405162003592380380620035928339810160408190526200003491620000ae565b80620000403362000053565b6001600160a01b031660805250620000e0565b600080546001600160a01b038381166201000081810262010000600160b01b0319851617855560405193049190911692909183917f8be0079c531659141344cd1fd0a4f28419497f9722a3daafe3b4186f6b6457e091a35050565b600060208284031215620000c157600080fd5b81516001600160a01b0381168114620000d957600080fd5b9392505050565b608051613481620001116000396000818161049e0152818161053d015281816105db0152610bbc01526134816000f3fe608060405234801561001057600080fd5b50600436106101da5760003560e01c80637bb759ad11610104578063af640d0f116100a2578063d693585811610071578063d6935858146104c0578063e4b16144146104c8578063f2fde38b146104db578063feab4454146104ee576101da565b8063af640d0f1461044d578063b03fd40d14610473578063bd28703114610486578063ccc0795914610499576101da565b80638da5cb5b116100de5780638da5cb5b146103ec57806394f46f6f1461041757806396e4ee3d1461042a578063979620761461043d576101da565b80637bb759ad146103b157806383e8531a146103d1578063854ba99d146103e4576101da565b8063629651411161017c5780636968abd31161014b5780636968abd31461036d578063715018a61461038057806372ea61bf146103885780637af6649a14610390576101da565b806362965141146103155780636464b68a1461034057806365a6b3631461035a57806365e60ef214610340576101da565b80631e8d8223116101b85780631e8d8223146102a45780632203616d146102d25780632f54bf6e146102fa5780635f5c5baa1461030d576101da565b806301ffc9a71461025f57806305d6bd9c146102875780630df7408414610291575b6101e2610518565b60006101f2602460043684612b9e565b8080601f016020809104026020016040519081016040528093929190818152602001838380828437600092018290525060208501519495509250503660231981019150601f19016004838037816024600437600080826000875af49250505061025a816106e2565b505050005b61027261026d366004612be5565b6106fc565b60405190151581526020015b60405180910390f35b61028f610733565b005b61028f61029f366004612c17565b61074a565b6102b76102b2366004612c64565b6107d1565b6040805193845260208401929092529082015260600161027e565b6102e56102e0366004612c97565b610b59565b60405163ffffffff909116815260200161027e565b610272610308366004612cb0565b610b6a565b61028f610b97565b610328610323366004612c97565b610cac565b6040516001600160401b03909116815260200161027e565b6102b761034e366004612ccb565b60008060009250925092565b61028f610368366004612df2565b610cde565b6102b761037b366004612c64565b610dc5565b61028f61142b565b61028f61143d565b6103a361039e366004612f08565b611457565b60405190815260200161027e565b6103c46103bf366004612c64565b611470565b60405161027e9190612f30565b6102b76103df366004612fd0565b6114cd565b610272611684565b6000546201000090046001600160a01b03165b6040516001600160a01b03909116815260200161027e565b61028f6104253660046130df565b6116a2565b6103a3610438366004612ccb565b611707565b600054610100900460ff16610272565b7f3cb99135f7a7c088d9085b446345038a22a85f4e8fe072b0e1b66d97243e74586103a3565b6103a361048136600461311b565b611726565b61028f610494366004613136565b611740565b6103ff7f000000000000000000000000000000000000000000000000000000000000000081565b61028f611832565b6103a36104d6366004613179565b61184e565b61028f6104e9366004612cb0565b611865565b6105016104fc366004612c97565b6118de565b60405165ffffffffffff909116815260200161027e565b6000546001600160a01b0362010000909104163314806105cb57506001600160a01b037f0000000000000000000000000000000000000000000000000000000000000000166316279055336040516001600160e01b031960e084901b1681526001600160a01b039091166004820152602401602060405180830381865afa1580156105a7573d6000803e3d6000fd5b505050506040513d601f19601f820116820180604052508101906105cb919061319f565b8061066957506001600160a01b037f000000000000000000000000000000000000000000000000000000000000000016636d70f7ae336040516001600160e01b031960e084901b1681526001600160a01b039091166004820152602401602060405180830381865afa158015610645573d6000803e3d6000fd5b505050506040513d601f19601f82011682018060405250810190610669919061319f565b6106e05760405162461bcd60e51b815260206004820152603960248201527f416c6c6f77616e63653a2063616c6c6572206d757374206265205265706f736960448201527f746f727920436f6e7472616374206f72204f70657261746f720000000000000060648201526084015b60405180910390fd5b565b3d6000803e8080156106f3573d6000f35b3d6000fd5b5050565b60006001600160e01b031982166301ffc9a760e01b148061072d57506001600160e01b031982166315d3789560e31b145b92915050565b61073b610518565b6106e06000805460ff19169055565b610752610518565b61075a612b5b565b80516001600160a01b03878116909152815190861660209182015260029082015261078484610cac565b6001600160401b0316604082015261079b83610cac565b6001600160401b031660608201526107b282610cac565b6001600160401b031660808201526107c9816118ef565b505050505050565b60008060008085856040516020016107ea9291906131d7565b60408051601f19818403018152828252805160209182012060008181526001808452848220610100870190955284546001600160a01b0390811660c08801908152918601541660e087015285526002840154919550938493849384939083019060ff16600581111561085e5761085e6131c1565b600581111561086f5761086f6131c1565b8152600291909101546001600160401b03610100820481166020840152600160481b820481166040840152600160881b82041660608301526001600160e01b0319600160c81b90910460e01b1660809091015290506005816020015160058111156108dc576108dc6131c1565b14156108f7576108eb81611d84565b9195509350915061094d565b60018160200151600581111561090f5761090f6131c1565b141561091e576108eb81611f3a565b600281602001516005811115610936576109366131c1565b141561094d5761094581611f3a565b919550935091505b8215610962575091955093509150610b529050565b888a6040516020016109759291906131d7565b60408051601f1981840301815282825280516020918201206000818152600180845290849020610100860190945283546001600160a01b0390811660c08701908152918501541660e0860152845260028301549098509083019060ff1660058111156109e3576109e36131c1565b60058111156109f4576109f46131c1565b8152600291909101546001600160401b03610100820481166020840152600160481b820481166040840152600160881b82041660608301526001600160e01b0319600160c81b90910460e01b16608090910152600094508493508392509050600581602001516005811115610a6b57610a6b6131c1565b1415610a8657610a7a81611d84565b91955093509150610adc565b600181602001516005811115610a9e57610a9e6131c1565b1415610aad57610a7a81611f3a565b600281602001516005811115610ac557610ac56131c1565b1415610adc57610ad481611f3a565b919550935091505b82610af65760008060009750975097505050505050610b52565b610b0f846ec097ce7bc90715b34b9f1000000000613214565b9350610b2a836ec097ce7bc90715b34b9f1000000000613214565b9250610b45826ec097ce7bc90715b34b9f1000000000613214565b9397509195509193505050505b9250925092565b600061072d64e8d4a5100083613214565b600080546001600160a01b0383811662010000909204161415610b8f57506001919050565b506000919050565b6000546001600160a01b036201000090910416331480610c4a57506001600160a01b037f000000000000000000000000000000000000000000000000000000000000000016636d70f7ae336040516001600160e01b031960e084901b1681526001600160a01b039091166004820152602401602060405180830381865afa158015610c26573d6000803e3d6000fd5b505050506040513d601f19601f82011682018060405250810190610c4a919061319f565b6106e05760405162461bcd60e51b815260206004820152602d60248201527f416c6c6f77616e63653a2063616c6c6572206d757374206265205265706f736960448201526c3a37b93c9027b832b930ba37b960991b60648201526084016106d7565b600080610cbe6402540be40084613214565b905082610cd0826402540be400613236565b111561072d5761072d613255565b610ce6610518565b60005b81518110156106f857610db3828281518110610d0757610d0761326b565b60200260200101516000015160000151838381518110610d2957610d2961326b565b60200260200101516000015160200151848481518110610d4b57610d4b61326b565b6020026020010151604001516001600160401b0316858581518110610d7257610d7261326b565b6020026020010151606001516001600160401b0316868681518110610d9957610d9961326b565b6020026020010151608001516001600160401b031661074a565b80610dbd81613281565b915050610ce9565b6000806000808585604051602001610dde9291906131d7565b60408051808303601f190181529181528151602092830120600081815260019093529120600281015491925090436001600160e01b0319908116600160c81b90920460e01b161415610ed257604080516001600160a01b03808a168252881660208201527f85fe05c69e32ec3aed403e05e055faa5b8f0dec24c0f5ef97a497b8f4b8228b5910160405180910390a16002810154610e899061010090046001600160401b0316611726565b6002820154610ea790600160481b90046001600160401b0316611726565b6002830154610ec590600160881b90046001600160401b0316611726565b9450945094505050610b52565b600080806005600285015460ff166005811115610ef157610ef16131c1565b1415610fc05760408051610100810190915284546001600160a01b0390811660c08301908152600187015490911660e083015281526002850154610fb491908690602083019060ff166005811115610f4b57610f4b6131c1565b6005811115610f5c57610f5c6131c1565b8152600291909101546001600160401b03610100820481166020840152600160481b820481166040840152600160881b82041660608301526001600160e01b0319600160c81b90910460e01b16608090910152611f73565b9194509250905061111a565b6001600285015460ff166005811115610fdb57610fdb6131c1565b141561109e5760408051610100810190915284546001600160a01b0390811660c08301908152600187015490911660e083015281526002850154610fb491908690602083019060ff166005811115611035576110356131c1565b6005811115611046576110466131c1565b8152600291909101546001600160401b03610100820481166020840152600160481b820481166040840152600160881b82041660608301526001600160e01b0319600160c81b90910460e01b16608090910152611f3a565b60028085015460ff1660058111156110b8576110b86131c1565b141561111a5760408051610100810190915284546001600160a01b0390811660c08301908152600187015490911660e08301528152600285015461111291908690602083019060ff166005811115611035576110356131c1565b919450925090505b811561117257604080516001600160a01b03808d1682528b1660208201527f85fe05c69e32ec3aed403e05e055faa5b8f0dec24c0f5ef97a497b8f4b8228b5910160405180910390a191965094509250610b52915050565b888a6040516020016111859291906131d7565b60408051601f19818403018152918152815160209283012060008181526001909352908220909650945092508291508190506005600285015460ff1660058111156111d2576111d26131c1565b14156112385760408051610100810190915284546001600160a01b0390811660c08301908152600187015490911660e08301528152600285015461122c91908690602083019060ff166005811115610f4b57610f4b6131c1565b91945092509050611329565b6001600285015460ff166005811115611253576112536131c1565b14156112ad5760408051610100810190915284546001600160a01b0390811660c08301908152600187015490911660e08301528152600285015461122c91908690602083019060ff166005811115611035576110356131c1565b60028085015460ff1660058111156112c7576112c76131c1565b14156113295760408051610100810190915284546001600160a01b0390811660c08301908152600187015490911660e08301528152600285015461132191908690602083019060ff166005811115611035576110356131c1565b919450925090505b8161138657604080516001600160a01b03808d1682528b1660208201527f40431c410cc5180bf05a4efdfb1880b6095849d44d09b81b10b0aefbb6849edd910160405180910390a160008060009750975097505050505050610b52565b61139f836ec097ce7bc90715b34b9f1000000000613214565b92506113ba826ec097ce7bc90715b34b9f1000000000613214565b91506113d5816ec097ce7bc90715b34b9f1000000000613214565b604080516001600160a01b03808e1682528c1660208201529192507f85fe05c69e32ec3aed403e05e055faa5b8f0dec24c0f5ef97a497b8f4b8228b5910160405180910390a19196509450925050509250925092565b61143361200d565b6106e0600061206e565b611445610518565b6106e06000805460ff19166001179055565b600061072d65ffffffffffff831664174876e800613236565b60606114c68383601460006040519080825280602002602001820160405280156114c057816020015b60408051808201909152600080825260208201528152602001906001900390816114995790505b506120c9565b9392505050565b6000808080808080805b885181101561166657670de0b6b3a7640000808060005b8c85815181106115005761150061326b565b6020026020010151518110156115fe5760008d86815181106115245761152461326b565b6020026020010151828151811061153d5761153d61326b565b60200260200101519050600080600061155e846000015185602001516107d1565b925092509250816000141561158a5760008060009f509f509f505050505050505050505050505061167d565b670de0b6b3a764000061159d8985613236565b6115a79190613214565b9750670de0b6b3a76400006115bc8884613236565b6115c69190613214565b9650670de0b6b3a76400006115db8783613236565b6115e59190613214565b95505050505080806115f690613281565b9150506114ee565b5087158061160b57508288115b15611614578297505b84158061162057508085105b15611629578094505b8561163657819650611643565b611640828861329c565b96505b8561164d81613281565b965050505050808061165e90613281565b9150506114d7565b506116718284613214565b93965092945091925050505b9193909250565b6000805460ff168061169d5750600054610100900460ff165b905090565b6116aa610518565b6116b2612b5b565b80516001600160a01b0385811690915281519084166020918201526001908201526116dc82610cac565b6001600160401b031660808201819052606082018190526040820152611701816118ef565b50505050565b6000670de0b6b3a764000061171c8385613236565b6114c69190613214565b600061072d6001600160401b0383166402540be400613236565b611748610518565b6000838360405160200161175d9291906131d7565b60408051808303601f19018152918152815160209283012060008181526003909352912080546001600160a01b0319166001600160a01b0385161790559050816117a5612b5b565b80516001600160a01b038781169091528151908616602091820152600590820152600080806117d384611d84565b9250925092506117e283610cac565b6001600160401b031660408501526117f982610cac565b6001600160401b0316606085015261181081610cac565b6001600160401b03166080850152611827846118ef565b505050505050505050565b61183a61200d565b6106e06000805461ff001916610100179055565b600061072d63ffffffff831664e8d4a51000613236565b61186d61200d565b6001600160a01b0381166118d25760405162461bcd60e51b815260206004820152602660248201527f4f776e61626c653a206e6577206f776e657220697320746865207a65726f206160448201526564647265737360d01b60648201526084016106d7565b6118db8161206e565b50565b600061072d64174876e80083613214565b8051805160209182015160405160009361190b939291016131d7565b60408051601f19818403018152828252805160209182012060008181526001808452848220610100870190955284546001600160a01b0390811660c08801908152918601541660e08701528552600284015491955093929183019060ff16600581111561197a5761197a6131c1565b600581111561198b5761198b6131c1565b81526002919091015461010081046001600160401b03908116602080850191909152600160481b830482166040850152600160881b83049091166060840152600160c81b90910460e01b6001600160e01b03191660809092019190915284015190915060058111156119ff576119ff6131c1565b81602001516005811115611a1557611a156131c1565b14611bc75782518051602090910151611a2e9190612853565b82515181516001600160a01b0391821690528351602090810151835192169181019190915280840151908201906005811115611a6c57611a6c6131c1565b90816005811115611a7f57611a7f6131c1565b9052508251516001600160a01b0390811660009081526002602090815260409182902086519091015191516316f4b92960e21b815260048101919091529116602482015273__Array_________________________________90635bd2e4a490604401602060405180830381865af4158015611aff573d6000803e3d6000fd5b505050506040513d601f19601f82011682018060405250810190611b23919061319f565b5082516020908101516001600160a01b039081166000908152600290925260409182902085515192516316f4b92960e21b815260048101919091529116602482015273__Array_________________________________90635bd2e4a490604401602060405180830381865af4158015611ba1573d6000803e3d6000fd5b505050506040513d601f19601f82011682018060405250810190611bc5919061319f565b505b6001600160e01b0319431660a0820152604080840151908201516001600160401b039081169116148015611c14575082606001516001600160401b031681606001516001600160401b0316145b8015611c39575082608001516001600160401b031681608001516001600160401b0316145b15611c4357505050565b6040838101516001600160401b039081168383015260608086015182169084015260808086015190911690830152600083815260016020818152929091208351805182546001600160a01b03199081166001600160a01b0392831617845591850151838501805490931691161790559183015160028301805485949360ff1990911690836005811115611cd857611cd86131c1565b02179055506040820151600290910180546060840151608085015160a09095015160e01c600160c81b0263ffffffff60c81b196001600160401b03968716600160881b02166bffffffffffffffffffffffff60881b19928716600160481b0270ffffffffffffffff0000000000000000001997909616610100029690961670ffffffffffffffffffffffffffffffff001990931692909217939093179290921692909217179055505050565b80518051602091820151604051600093849384938493611da493016131d7565b60408051601f1981840301815282825280516020918201206000818152600390925282822054633fabe5a360e21b8552925190945090926001600160a01b039092169163feaf968c9160048083019260a09291908290030181865afa158015611e11573d6000803e3d6000fd5b505050506040513d601f19601f82011682018060405250810190611e3591906132ce565b50505091505060008113611e8b5760405162461bcd60e51b815260206004820181905260248201527f436861696e6c696e6b2071756f7465206d75737420626520706f73697469766560448201526064016106d7565b60008281526003602090815260409182902054825163313ce56760e01b8152925184936001600160a01b039092169263313ce56792600480820193918290030181865afa158015611ee0573d6000803e3d6000fd5b505050506040513d601f19601f82011682018060405250810190611f04919061331e565b611f0f90600a613425565b611f2190670de0b6b3a7640000613214565b611f2b9082613236565b97889750879650945050505050565b6000806000611f4c8460400151611726565b611f598560600151611726565b611f668660800151611726565b9250925092509193909250565b60008060004360001b6001600160e01b0319168460a001516001600160e01b03191614612000576000806000611fa887611d84565b925092509250611fb783610cac565b6001600160401b03166040880152611fce82610cac565b6001600160401b03166060880152611fe581610cac565b6001600160401b03166080880152611ffc876118ef565b5050505b611f4c8460400151611726565b6000546001600160a01b03620100009091041633146106e05760405162461bcd60e51b815260206004820152601f60248201527f416c6c6f77616e63653a2063616c6c6572206d757374206265204f776e65720060448201526064016106d7565b600080546001600160a01b038381166201000081810262010000600160b01b0319851617855560405193049190911692909183917f8be0079c531659141344cd1fd0a4f28419497f9722a3daafe3b4186f6b6457e091a35050565b6001600160a01b038416600090815260026020908152604080832080548251818502810185019093528083526060949383018282801561213257602002820191906000526020600020905b81546001600160a01b03168152600190910190602001808311612114575b509394506000935061214392505050565b60405190808252806020026020018201604052801561217657816020015b60608152602001906001900390816121615790505b50915060005b81518110156128495760005b84518110156122bd57876001600160a01b03168582815181106121ad576121ad61326b565b6020026020010151600001516001600160a01b031614801561221657508282815181106121dc576121dc61326b565b60200260200101516001600160a01b03168582815181106121ff576121ff61326b565b6020026020010151602001516001600160a01b0316145b806122a15750876001600160a01b03168582815181106122385761223861326b565b6020026020010151602001516001600160a01b03161480156122a157508282815181106122675761226761326b565b60200260200101516001600160a01b031685828151811061228a5761228a61326b565b6020026020010151600001516001600160a01b0316145b156122ab576122bd565b806122b581613281565b915050612188565b84518110156122cc5750612837565b866001600160a01b03168383815181106122e8576122e861326b565b60200260200101516001600160a01b0316141561258b576000600160008a8a6040516020016123189291906131d7565b60408051601f1981840301815291815281516020928301208352908201929092520160002090506003600282015460ff16600581111561235a5761235a6131c1565b1415801561238157506004600282015460ff16600581111561237e5761237e6131c1565b14155b1561258957600086516001612396919061329c565b6001600160401b038111156123ad576123ad612ced565b6040519080825280602002602001820160405280156123f257816020015b60408051808201909152600080825260208201528152602001906001900390816123cb5790505b509050600092505b865183101561244d578683815181106124155761241561326b565b602002602001015181848151811061242f5761242f61326b565b6020026020010181905250828061244590613281565b9350506123fa565b898184815181106124605761246061326b565b6020026020010151600001906001600160a01b031690816001600160a01b031681525050888184815181106124975761249761326b565b6020908102919091018101516001600160a01b0390921691015285516000906124c190600161329c565b6001600160401b038111156124d8576124d8612ced565b60405190808252806020026020018201604052801561250b57816020015b60608152602001906001900390816124f65790505b509050600093505b86518410156125665786848151811061252e5761252e61326b565b60200260200101518185815181106125485761254861326b565b6020026020010181905250838061255e90613281565b945050612513565b818188518151811061257a5761257a61326b565b60209081029190910101529550505b505b856125965750612849565b6000855160016125a6919061329c565b6001600160401b038111156125bd576125bd612ced565b60405190808252806020026020018201604052801561260257816020015b60408051808201909152600080825260208201528152602001906001900390816125db5790505b509050600091505b855182101561265d578582815181106126255761262561326b565b602002602001015181838151811061263f5761263f61326b565b6020026020010181905250818061265590613281565b92505061260a565b888183815181106126705761267061326b565b60209081029190910101516001600160a01b039091169052835184908490811061269c5761269c61326b565b60200260200101518183815181106126b6576126b661326b565b6020026020010151602001906001600160a01b031690816001600160a01b031681525050600061270d8585815181106126f1576126f161326b565b60200260200101518a60018b6127079190613434565b856120c9565b80519091501561283357600086518251612727919061329c565b6001600160401b0381111561273e5761273e612ced565b60405190808252806020026020018201604052801561277157816020015b606081526020019060019003908161275c5790505b509050600093505b86518410156127cc578684815181106127945761279461326b565b60200260200101518185815181106127ae576127ae61326b565b602002602001018190525083806127c490613281565b945050612779565b600093505b8151841015612830578184815181106127ec576127ec61326b565b602002602001015181858951612802919061329c565b815181106128125761281261326b565b6020026020010181905250838061282890613281565b9450506127d1565b95505b5050505b8061284181613281565b91505061217c565b5050949350505050565b600082826040516020016128689291906131d7565b60408051601f19818403018152828252805160209182012060008181526001808452848220610100870190955284546001600160a01b0390811660c08801908152918601541660e08701528552600284015491955093929183019060ff1660058111156128d7576128d76131c1565b60058111156128e8576128e86131c1565b8152600291909101546001600160401b03610100820481166020840152600160481b820481166040840152600160881b82041660608301526001600160e01b0319600160c81b90910460e01b166080909101529050600081602001516005811115612955576129556131c1565b14156129615750505050565b600581602001516005811115612979576129796131c1565b1415612989576129898484612b0f565b8051516001600160a01b03908116600090815260026020908152604091829020845190910151915163edefe12d60e01b815260048101919091529116602482015273__Array_________________________________9063edefe12d90604401602060405180830381865af4158015612a06573d6000803e3d6000fd5b505050506040513d601f19601f82011682018060405250810190612a2a919061319f565b5080516020908101516001600160a01b0390811660009081526002909252604091829020835151925163edefe12d60e01b815260048101919091529116602482015273__Array_________________________________9063edefe12d90604401602060405180830381865af4158015612aa8573d6000803e3d6000fd5b505050506040513d601f19601f82011682018060405250810190612acc919061319f565b5050600090815260016020819052604090912080546001600160a01b03199081168255918101805490921690915560020180546001600160e81b03191690555050565b60008282604051602001612b249291906131d7565b60408051601f19818403018152918152815160209283012060009081526003909252902080546001600160a01b0319169055505050565b6040805161010081018252600060c0820181815260e08301829052825260208201819052918101829052606081018290526080810182905260a081019190915290565b60008085851115612bae57600080fd5b83861115612bbb57600080fd5b5050820193919092039150565b80356001600160e01b031981168114612be057600080fd5b919050565b600060208284031215612bf757600080fd5b6114c682612bc8565b80356001600160a01b0381168114612be057600080fd5b600080600080600060a08688031215612c2f57600080fd5b612c3886612c00565b9450612c4660208701612c00565b94979496505050506040830135926060810135926080909101359150565b60008060408385031215612c7757600080fd5b612c8083612c00565b9150612c8e60208401612c00565b90509250929050565b600060208284031215612ca957600080fd5b5035919050565b600060208284031215612cc257600080fd5b6114c682612c00565b60008060408385031215612cde57600080fd5b50508035926020909101359150565b634e487b7160e01b600052604160045260246000fd5b60405160c081016001600160401b0381118282101715612d2557612d25612ced565b60405290565b604051601f8201601f191681016001600160401b0381118282101715612d5357612d53612ced565b604052919050565b60006001600160401b03821115612d7457612d74612ced565b5060051b60200190565b600060408284031215612d9057600080fd5b604051604081018181106001600160401b0382111715612db257612db2612ced565b604052905080612dc183612c00565b8152612dcf60208401612c00565b60208201525092915050565b80356001600160401b0381168114612be057600080fd5b60006020808385031215612e0557600080fd5b82356001600160401b03811115612e1b57600080fd5b8301601f81018513612e2c57600080fd5b8035612e3f612e3a82612d5b565b612d2b565b81815260e09182028301840191848201919088841115612e5e57600080fd5b938501935b83851015612efc5780858a031215612e7b5760008081fd5b612e83612d03565b612e8d8a87612d7e565b815260408087013560068110612ea35760008081fd5b828901526060612eb4888201612ddb565b8284015260809150612ec7828901612ddb565b9083015260a0612ed8888201612ddb565b82840152612ee860c08901612bc8565b908301525083529384019391850191612e63565b50979650505050505050565b600060208284031215612f1a57600080fd5b813565ffffffffffff811681146114c657600080fd5b60006020808301818452808551808352604092508286019150828160051b8701018488016000805b84811015612fc157898403603f19018652825180518086529089019089860190845b81811015612fac57835180516001600160a01b039081168552908d0151168c840152928b0192918a0191600101612f7a565b50509689019694505091870191600101612f58565b50919998505050505050505050565b60006020808385031215612fe357600080fd5b82356001600160401b0380821115612ffa57600080fd5b818501915085601f83011261300e57600080fd5b813561301c612e3a82612d5b565b81815260059190911b8301840190848101908883111561303b57600080fd5b8585015b838110156130d2578035858111156130575760008081fd5b8601603f81018b136130695760008081fd5b87810135604061307b612e3a83612d5b565b82815260069290921b83018101918a8101908e84111561309b5760008081fd5b938201935b838510156130c1576130b28f86612d7e565b825293820193908b01906130a0565b87525050509287019250860161303f565b5098975050505050505050565b6000806000606084860312156130f457600080fd5b6130fd84612c00565b925061310b60208501612c00565b9150604084013590509250925092565b60006020828403121561312d57600080fd5b6114c682612ddb565b60008060006060848603121561314b57600080fd5b61315484612c00565b925061316260208501612c00565b915061317060408501612c00565b90509250925092565b60006020828403121561318b57600080fd5b813563ffffffff811681146114c657600080fd5b6000602082840312156131b157600080fd5b815180151581146114c657600080fd5b634e487b7160e01b600052602160045260246000fd5b6bffffffffffffffffffffffff19606093841b811682529190921b16601482015260280190565b634e487b7160e01b600052601160045260246000fd5b60008261323157634e487b7160e01b600052601260045260246000fd5b500490565b6000816000190483118215151615613250576132506131fe565b500290565b634e487b7160e01b600052600160045260246000fd5b634e487b7160e01b600052603260045260246000fd5b6000600019821415613295576132956131fe565b5060010190565b600082198211156132af576132af6131fe565b500190565b805169ffffffffffffffffffff81168114612be057600080fd5b600080600080600060a086880312156132e657600080fd5b6132ef866132b4565b9450602086015193506040860151925060608601519150613312608087016132b4565b90509295509295909350565b60006020828403121561333057600080fd5b815160ff811681146114c657600080fd5b600181815b8085111561337c578160001904821115613362576133626131fe565b8085161561336f57918102915b93841c9390800290613346565b509250929050565b6000826133935750600161072d565b816133a05750600061072d565b81600181146133b657600281146133c0576133dc565b600191505061072d565b60ff8411156133d1576133d16131fe565b50506001821b61072d565b5060208310610133831016604e8410600b84101617156133ff575081810a61072d565b6134098383613341565b806000190482111561341d5761341d6131fe565b029392505050565b60006114c660ff841683613384565b600082821015613446576134466131fe565b50039056fea264697066735822122024cbd8efddfe5b8f351aa9772c082be77451328406f652bcbc7c87ebf654209464736f6c634300080b0033","bytecodeSha1":"7e0b58dcad8fa3cbea8c90e667489c9842408c07","type":"contract","abi":[{"inputs":[{"internalType":"contract Repository","name":"rep_","type":"address"}],"stateMutability":"nonpayable","type":"constructor","name":"constructor"},{"anonymous":false,"inputs":[{"indexed":true,"internalType":"address","name":"previousOwner","type":"address"},{"indexed":true,"internalType":"address","name":"newOwner","type":"address"}],"name":"OwnershipTransferred","type":"event"},{"anonymous":false,"inputs":[{"indexed":true,"internalType":"address","name":"left_","type":"address"},{"indexed":true,"internalType":"address","name":"right_","type":"address"},{"indexed":false,"internalType":"enum QuoteSource","name":"source_","type":"uint8"},{"indexed":false,"internalType":"uint256","name":"_quotemin_","type":"uint256"},{"indexed":false,"internalType":"uint256","name":"_quoteavg_","type":"uint256"},{"indexed":false,"internalType":"uint256","name":"quotemax_","type":"uint256"}],"name":"Quoted","type":"event"},{"anonymous":false,"inputs":[{"indexed":false,"internalType":"address","name":"left_","type":"address"},{"indexed":false,"internalType":"address","name":"right_","type":"address"}],"name":"Resolved","type":"event"},{"anonymous":false,"inputs":[{"indexed":false,"internalType":"address","name":"left_","type":"address"},{"indexed":false,"internalType":"address","name":"right_","type":"address"}],"name":"Unresolved","type":"event"},{"stateMutability":"nonpayable","type":"fallback"},{"inputs":[],"name":"STOP","outputs":[{"internalType":"bool","name":"","type":"bool"}],"stateMutability":"view","type":"function"},{"inputs":[],"name":"STOPFOREVER","outputs":[{"internalType":"bool","name":"","type":"bool"}],"stateMutability":"view","type":"function"},{"inputs":[{"internalType":"uint256","name":"val_","type":"uint256"}],"name":"UInt256ToUInt32","outputs":[{"internalType":"uint32","name":"","type":"uint32"}],"stateMutability":"pure","type":"function"},{"inputs":[{"internalType":"uint256","name":"val_","type":"uint256"}],"name":"UInt256ToUInt48","outputs":[{"internalType":"uint48","name":"","type":"uint48"}],"stateMutability":"pure","type":"function"},{"inputs":[{"internalType":"uint256","name":"val_","type":"uint256"}],"name":"UInt256ToUInt64","outputs":[{"internalType":"uint64","name":"","type":"uint64"}],"stateMutability":"pure","type":"function"},{"inputs":[{"internalType":"uint32","name":"val_","type":"uint32"}],"name":"UInt32ToUInt256","outputs":[{"internalType":"uint256","name":"","type":"uint256"}],"stateMutability":"pure","type":"function"},{"inputs":[{"internalType":"uint48","name":"val_","type":"uint48"}],"name":"UInt48ToUInt256","outputs":[{"internalType":"uint256","name":"","type":"uint256"}],"stateMutability":"pure","type":"function"},{"inputs":[{"internalType":"uint64","name":"val_","type":"uint64"}],"name":"UInt64ToUInt256","outputs":[{"internalType":"uint256","name":"","type":"uint256"}],"stateMutability":"pure","type":"function"},{"inputs":[{"internalType":"address","name":"left_","type":"address"},{"internalType":"address","name":"right_","type":"address"},{"internalType":"address","name":"feedaddress_","type":"address"}],"name":"chainlinkSet","outputs":[],"stateMutability":"nonpayable","type":"function"},{"inputs":[],"name":"checkOperators","outputs":[],"stateMutability":"view","type":"function"},{"inputs":[{"components":[{"internalType":"address","name":"_left","type":"address"},{"internalType":"address","name":"_right","type":"address"}],"internalType":"struct QuoteRef[][]","name":"_convs","type":"tuple[][]"}],"name":"complexReadOnly","outputs":[{"internalType":"uint256","name":"","type":"uint256"},{"internalType":"uint256","name":"","type":"uint256"},{"internalType":"uint256","name":"","type":"uint256"}],"stateMutability":"view","type":"function"},{"inputs":[{"internalType":"address","name":"left_","type":"address"},{"internalType":"address","name":"right_","type":"address"}],"name":"complexSearch","outputs":[{"components":[{"internalType":"address","name":"_left","type":"address"},{"internalType":"address","name":"_right","type":"address"}],"internalType":"struct QuoteRef[][]","name":"complex_","type":"tuple[][]"}],"stateMutability":"view","type":"function"},{"inputs":[{"internalType":"uint256","name":"val_","type":"uint256"},{"internalType":"uint256","name":"quote_","type":"uint256"}],"name":"convert","outputs":[{"internalType":"uint256","name":"","type":"uint256"}],"stateMutability":"pure","type":"function"},{"inputs":[],"name":"id","outputs":[{"internalType":"bytes32","name":"","type":"bytes32"}],"stateMutability":"view","type":"function"},{"inputs":[{"components":[{"components":[{"internalType":"address","name":"_left","type":"address"},{"internalType":"address","name":"_right","type":"address"}],"internalType":"struct QuoteRef","name":"_ref","type":"tuple"},{"internalType":"enum QuoteSource","name":"_source","type":"uint8"},{"internalType":"uint64","name":"_quotemin","type":"uint64"},{"internalType":"uint64","name":"_quoteavg","type":"uint64"},{"internalType":"uint64","name":"_quotemax","type":"uint64"},{"internalType":"bytes4","name":"_timestamp","type":"bytes4"}],"internalType":"struct QuoteInfo[]","name":"quotes_","type":"tuple[]"}],"name":"internalMultiSet","outputs":[],"stateMutability":"nonpayable","type":"function"},{"inputs":[{"internalType":"address","name":"left_","type":"address"},{"internalType":"address","name":"right_","type":"address"},{"internalType":"uint256","name":"quotemin_","type":"uint256"},{"internalType":"uint256","name":"quoteavg_","type":"uint256"},{"internalType":"uint256","name":"quotemax_","type":"uint256"}],"name":"internalSet","outputs":[],"stateMutability":"nonpayable","type":"function"},{"inputs":[{"internalType":"address","name":"caller_","type":"address"}],"name":"isOwner","outputs":[{"internalType":"bool","name":"","type":"bool"}],"stateMutability":"view","type":"function"},{"inputs":[],"name":"owner","outputs":[{"internalType":"address","name":"","type":"address"}],"stateMutability":"view","type":"function"},{"inputs":[{"internalType":"bytes32","name":"left_","type":"bytes32"},{"internalType":"bytes32","name":"right_","type":"bytes32"}],"name":"read","outputs":[{"internalType":"uint256","name":"","type":"uint256"},{"internalType":"uint256","name":"","type":"uint256"},{"internalType":"uint256","name":"","type":"uint256"}],"stateMutability":"nonpayable","type":"function"},{"inputs":[{"internalType":"address","name":"left_","type":"address"},{"internalType":"address","name":"right_","type":"address"}],"name":"read","outputs":[{"internalType":"uint256","name":"","type":"uint256"},{"internalType":"uint256","name":"","type":"uint256"},{"internalType":"uint256","name":"","type":"uint256"}],"stateMutability":"nonpayable","type":"function"},{"inputs":[{"internalType":"address","name":"left_","type":"address"},{"internalType":"address","name":"right_","type":"address"}],"name":"readOnly","outputs":[{"internalType":"uint256","name":"","type":"uint256"},{"internalType":"uint256","name":"","type":"uint256"},{"internalType":"uint256","name":"","type":"uint256"}],"stateMutability":"view","type":"function"},{"inputs":[{"internalType":"bytes32","name":"left_","type":"bytes32"},{"internalType":"bytes32","name":"right_","type":"bytes32"}],"name":"readOnly","outputs":[{"internalType":"uint256","name":"","type":"uint256"},{"internalType":"uint256","name":"","type":"uint256"},{"internalType":"uint256","name":"","type":"uint256"}],"stateMutability":"view","type":"function"},{"inputs":[],"name":"renounceOwnership","outputs":[],"stateMutability":"nonpayable","type":"function"},{"inputs":[],"name":"rep","outputs":[{"internalType":"contract Repository","name":"","type":"address"}],"stateMutability":"view","type":"function"},{"inputs":[],"name":"setSTOP","outputs":[],"stateMutability":"nonpayable","type":"function"},{"inputs":[],"name":"setSTOPFOREVER","outputs":[],"stateMutability":"nonpayable","type":"function"},{"inputs":[{"internalType":"address","name":"left_","type":"address"},{"internalType":"address","name":"right_","type":"address"},{"internalType":"uint256","name":"quote_","type":"uint256"}],"name":"staticSet","outputs":[],"stateMutability":"nonpayable","type":"function"},{"inputs":[{"internalType":"bytes4","name":"interfaceId","type":"bytes4"}],"name":"supportsInterface","outputs":[{"internalType":"bool","name":"","type":"bool"}],"stateMutability":"view","type":"function"},{"inputs":[{"internalType":"address","name":"newOwner","type":"address"}],"name":"transferOwnership","outputs":[],"stateMutability":"nonpayable","type":"function"},{"inputs":[],"name":"unsetSTOP","outputs":[],"stateMutability":"nonpayable","type":"function"}],"compiler":{"version":"0.8.11+commit.d7f03943","evm_version":"istanbul","optimizer":{"enabled":true,"runs":200}},"contractName":"Quotator","deployedBytecode":"608060405234801561001057600080fd5b50600436106101da5760003560e01c80637bb759ad11610104578063af640d0f116100a2578063d693585811610071578063d6935858146104c0578063e4b16144146104c8578063f2fde38b146104db578063feab4454146104ee576101da565b8063af640d0f1461044d578063b03fd40d14610473578063bd28703114610486578063ccc0795914610499576101da565b80638da5cb5b116100de5780638da5cb5b146103ec57806394f46f6f1461041757806396e4ee3d1461042a578063979620761461043d576101da565b80637bb759ad146103b157806383e8531a146103d1578063854ba99d146103e4576101da565b8063629651411161017c5780636968abd31161014b5780636968abd31461036d578063715018a61461038057806372ea61bf146103885780637af6649a14610390576101da565b806362965141146103155780636464b68a1461034057806365a6b3631461035a57806365e60ef214610340576101da565b80631e8d8223116101b85780631e8d8223146102a45780632203616d146102d25780632f54bf6e146102fa5780635f5c5baa1461030d576101da565b806301ffc9a71461025f57806305d6bd9c146102875780630df7408414610291575b6101e2610518565b60006101f2602460043684612b9e565b8080601f016020809104026020016040519081016040528093929190818152602001838380828437600092018290525060208501519495509250503660231981019150601f19016004838037816024600437600080826000875af49250505061025a816106e2565b505050005b61027261026d366004612be5565b6106fc565b60405190151581526020015b60405180910390f35b61028f610733565b005b61028f61029f366004612c17565b61074a565b6102b76102b2366004612c64565b6107d1565b6040805193845260208401929092529082015260600161027e565b6102e56102e0366004612c97565b610b59565b60405163ffffffff909116815260200161027e565b610272610308366004612cb0565b610b6a565b61028f610b97565b610328610323366004612c97565b610cac565b6040516001600160401b03909116815260200161027e565b6102b761034e366004612ccb565b60008060009250925092565b61028f610368366004612df2565b610cde565b6102b761037b366004612c64565b610dc5565b61028f61142b565b61028f61143d565b6103a361039e366004612f08565b611457565b60405190815260200161027e565b6103c46103bf366004612c64565b611470565b60405161027e9190612f30565b6102b76103df366004612fd0565b6114cd565b610272611684565b6000546201000090046001600160a01b03165b6040516001600160a01b03909116815260200161027e565b61028f6104253660046130df565b6116a2565b6103a3610438366004612ccb565b611707565b600054610100900460ff16610272565b7f3cb99135f7a7c088d9085b446345038a22a85f4e8fe072b0e1b66d97243e74586103a3565b6103a361048136600461311b565b611726565b61028f610494366004613136565b611740565b6103ff7f000000000000000000000000000000000000000000000000000000000000000081565b61028f611832565b6103a36104d6366004613179565b61184e565b61028f6104e9366004612cb0565b611865565b6105016104fc366004612c97565b6118de565b60405165ffffffffffff909116815260200161027e565b6000546001600160a01b0362010000909104163314806105cb57506001600160a01b037f0000000000000000000000000000000000000000000000000000000000000000166316279055336040516001600160e01b031960e084901b1681526001600160a01b039091166004820152602401602060405180830381865afa1580156105a7573d6000803e3d6000fd5b505050506040513d601f19601f820116820180604052508101906105cb919061319f565b8061066957506001600160a01b037f000000000000000000000000000000000000000000000000000000000000000016636d70f7ae336040516001600160e01b031960e084901b1681526001600160a01b039091166004820152602401602060405180830381865afa158015610645573d6000803e3d6000fd5b505050506040513d601f19601f82011682018060405250810190610669919061319f565b6106e05760405162461bcd60e51b815260206004820152603960248201527f416c6c6f77616e63653a2063616c6c6572206d757374206265205265706f736960448201527f746f727920436f6e7472616374206f72204f70657261746f720000000000000060648201526084015b60405180910390fd5b565b3d6000803e8080156106f3573d6000f35b3d6000fd5b5050565b60006001600160e01b031982166301ffc9a760e01b148061072d57506001600160e01b031982166315d3789560e31b145b92915050565b61073b610518565b6106e06000805460ff19169055565b610752610518565b61075a612b5b565b80516001600160a01b03878116909152815190861660209182015260029082015261078484610cac565b6001600160401b0316604082015261079b83610cac565b6001600160401b031660608201526107b282610cac565b6001600160401b031660808201526107c9816118ef565b505050505050565b60008060008085856040516020016107ea9291906131d7565b60408051601f19818403018152828252805160209182012060008181526001808452848220610100870190955284546001600160a01b0390811660c08801908152918601541660e087015285526002840154919550938493849384939083019060ff16600581111561085e5761085e6131c1565b600581111561086f5761086f6131c1565b8152600291909101546001600160401b03610100820481166020840152600160481b820481166040840152600160881b82041660608301526001600160e01b0319600160c81b90910460e01b1660809091015290506005816020015160058111156108dc576108dc6131c1565b14156108f7576108eb81611d84565b9195509350915061094d565b60018160200151600581111561090f5761090f6131c1565b141561091e576108eb81611f3a565b600281602001516005811115610936576109366131c1565b141561094d5761094581611f3a565b919550935091505b8215610962575091955093509150610b529050565b888a6040516020016109759291906131d7565b60408051601f1981840301815282825280516020918201206000818152600180845290849020610100860190945283546001600160a01b0390811660c08701908152918501541660e0860152845260028301549098509083019060ff1660058111156109e3576109e36131c1565b60058111156109f4576109f46131c1565b8152600291909101546001600160401b03610100820481166020840152600160481b820481166040840152600160881b82041660608301526001600160e01b0319600160c81b90910460e01b16608090910152600094508493508392509050600581602001516005811115610a6b57610a6b6131c1565b1415610a8657610a7a81611d84565b91955093509150610adc565b600181602001516005811115610a9e57610a9e6131c1565b1415610aad57610a7a81611f3a565b600281602001516005811115610ac557610ac56131c1565b1415610adc57610ad481611f3a565b919550935091505b82610af65760008060009750975097505050505050610b52565b610b0f846ec097ce7bc90715b34b9f1000000000613214565b9350610b2a836ec097ce7bc90715b34b9f1000000000613214565b9250610b45826ec097ce7bc90715b34b9f1000000000613214565b9397509195509193505050505b9250925092565b600061072d64e8d4a5100083613214565b600080546001600160a01b0383811662010000909204161415610b8f57506001919050565b506000919050565b6000546001600160a01b036201000090910416331480610c4a57506001600160a01b037f000000000000000000000000000000000000000000000000000000000000000016636d70f7ae336040516001600160e01b031960e084901b1681526001600160a01b039091166004820152602401602060405180830381865afa158015610c26573d6000803e3d6000fd5b505050506040513d601f19601f82011682018060405250810190610c4a919061319f565b6106e05760405162461bcd60e51b815260206004820152602d60248201527f416c6c6f77616e63653a2063616c6c6572206d757374206265205265706f736960448201526c3a37b93c9027b832b930ba37b960991b60648201526084016106d7565b600080610cbe6402540be40084613214565b905082610cd0826402540be400613236565b111561072d5761072d613255565b610ce6610518565b60005b81518110156106f857610db3828281518110610d0757610d0761326b565b60200260200101516000015160000151838381518110610d2957610d2961326b565b60200260200101516000015160200151848481518110610d4b57610d4b61326b565b6020026020010151604001516001600160401b0316858581518110610d7257610d7261326b565b6020026020010151606001516001600160401b0316868681518110610d9957610d9961326b565b6020026020010151608001516001600160401b031661074a565b80610dbd81613281565b915050610ce9565b6000806000808585604051602001610dde9291906131d7565b60408051808303601f190181529181528151602092830120600081815260019093529120600281015491925090436001600160e01b0319908116600160c81b90920460e01b161415610ed257604080516001600160a01b03808a168252881660208201527f85fe05c69e32ec3aed403e05e055faa5b8f0dec24c0f5ef97a497b8f4b8228b5910160405180910390a16002810154610e899061010090046001600160401b0316611726565b6002820154610ea790600160481b90046001600160401b0316611726565b6002830154610ec590600160881b90046001600160401b0316611726565b9450945094505050610b52565b600080806005600285015460ff166005811115610ef157610ef16131c1565b1415610fc05760408051610100810190915284546001600160a01b0390811660c08301908152600187015490911660e083015281526002850154610fb491908690602083019060ff166005811115610f4b57610f4b6131c1565b6005811115610f5c57610f5c6131c1565b8152600291909101546001600160401b03610100820481166020840152600160481b820481166040840152600160881b82041660608301526001600160e01b0319600160c81b90910460e01b16608090910152611f73565b9194509250905061111a565b6001600285015460ff166005811115610fdb57610fdb6131c1565b141561109e5760408051610100810190915284546001600160a01b0390811660c08301908152600187015490911660e083015281526002850154610fb491908690602083019060ff166005811115611035576110356131c1565b6005811115611046576110466131c1565b8152600291909101546001600160401b03610100820481166020840152600160481b820481166040840152600160881b82041660608301526001600160e01b0319600160c81b90910460e01b16608090910152611f3a565b60028085015460ff1660058111156110b8576110b86131c1565b141561111a5760408051610100810190915284546001600160a01b0390811660c08301908152600187015490911660e08301528152600285015461111291908690602083019060ff166005811115611035576110356131c1565b919450925090505b811561117257604080516001600160a01b03808d1682528b1660208201527f85fe05c69e32ec3aed403e05e055faa5b8f0dec24c0f5ef97a497b8f4b8228b5910160405180910390a191965094509250610b52915050565b888a6040516020016111859291906131d7565b60408051601f19818403018152918152815160209283012060008181526001909352908220909650945092508291508190506005600285015460ff1660058111156111d2576111d26131c1565b14156112385760408051610100810190915284546001600160a01b0390811660c08301908152600187015490911660e08301528152600285015461122c91908690602083019060ff166005811115610f4b57610f4b6131c1565b91945092509050611329565b6001600285015460ff166005811115611253576112536131c1565b14156112ad5760408051610100810190915284546001600160a01b0390811660c08301908152600187015490911660e08301528152600285015461122c91908690602083019060ff166005811115611035576110356131c1565b60028085015460ff1660058111156112c7576112c76131c1565b14156113295760408051610100810190915284546001600160a01b0390811660c08301908152600187015490911660e08301528152600285015461132191908690602083019060ff166005811115611035576110356131c1565b919450925090505b8161138657604080516001600160a01b03808d1682528b1660208201527f40431c410cc5180bf05a4efdfb1880b6095849d44d09b81b10b0aefbb6849edd910160405180910390a160008060009750975097505050505050610b52565b61139f836ec097ce7bc90715b34b9f1000000000613214565b92506113ba826ec097ce7bc90715b34b9f1000000000613214565b91506113d5816ec097ce7bc90715b34b9f1000000000613214565b604080516001600160a01b03808e1682528c1660208201529192507f85fe05c69e32ec3aed403e05e055faa5b8f0dec24c0f5ef97a497b8f4b8228b5910160405180910390a19196509450925050509250925092565b61143361200d565b6106e0600061206e565b611445610518565b6106e06000805460ff19166001179055565b600061072d65ffffffffffff831664174876e800613236565b60606114c68383601460006040519080825280602002602001820160405280156114c057816020015b60408051808201909152600080825260208201528152602001906001900390816114995790505b506120c9565b9392505050565b6000808080808080805b885181101561166657670de0b6b3a7640000808060005b8c85815181106115005761150061326b565b6020026020010151518110156115fe5760008d86815181106115245761152461326b565b6020026020010151828151811061153d5761153d61326b565b60200260200101519050600080600061155e846000015185602001516107d1565b925092509250816000141561158a5760008060009f509f509f505050505050505050505050505061167d565b670de0b6b3a764000061159d8985613236565b6115a79190613214565b9750670de0b6b3a76400006115bc8884613236565b6115c69190613214565b9650670de0b6b3a76400006115db8783613236565b6115e59190613214565b95505050505080806115f690613281565b9150506114ee565b5087158061160b57508288115b15611614578297505b84158061162057508085105b15611629578094505b8561163657819650611643565b611640828861329c565b96505b8561164d81613281565b965050505050808061165e90613281565b9150506114d7565b506116718284613214565b93965092945091925050505b9193909250565b6000805460ff168061169d5750600054610100900460ff165b905090565b6116aa610518565b6116b2612b5b565b80516001600160a01b0385811690915281519084166020918201526001908201526116dc82610cac565b6001600160401b031660808201819052606082018190526040820152611701816118ef565b50505050565b6000670de0b6b3a764000061171c8385613236565b6114c69190613214565b600061072d6001600160401b0383166402540be400613236565b611748610518565b6000838360405160200161175d9291906131d7565b60408051808303601f19018152918152815160209283012060008181526003909352912080546001600160a01b0319166001600160a01b0385161790559050816117a5612b5b565b80516001600160a01b038781169091528151908616602091820152600590820152600080806117d384611d84565b9250925092506117e283610cac565b6001600160401b031660408501526117f982610cac565b6001600160401b0316606085015261181081610cac565b6001600160401b03166080850152611827846118ef565b505050505050505050565b61183a61200d565b6106e06000805461ff001916610100179055565b600061072d63ffffffff831664e8d4a51000613236565b61186d61200d565b6001600160a01b0381166118d25760405162461bcd60e51b815260206004820152602660248201527f4f776e61626c653a206e6577206f776e657220697320746865207a65726f206160448201526564647265737360d01b60648201526084016106d7565b6118db8161206e565b50565b600061072d64174876e80083613214565b8051805160209182015160405160009361190b939291016131d7565b60408051601f19818403018152828252805160209182012060008181526001808452848220610100870190955284546001600160a01b0390811660c08801908152918601541660e08701528552600284015491955093929183019060ff16600581111561197a5761197a6131c1565b600581111561198b5761198b6131c1565b81526002919091015461010081046001600160401b03908116602080850191909152600160481b830482166040850152600160881b83049091166060840152600160c81b90910460e01b6001600160e01b03191660809092019190915284015190915060058111156119ff576119ff6131c1565b81602001516005811115611a1557611a156131c1565b14611bc75782518051602090910151611a2e9190612853565b82515181516001600160a01b0391821690528351602090810151835192169181019190915280840151908201906005811115611a6c57611a6c6131c1565b90816005811115611a7f57611a7f6131c1565b9052508251516001600160a01b0390811660009081526002602090815260409182902086519091015191516316f4b92960e21b815260048101919091529116602482015273__$f71e59c5327218924d154e230469c101bd$__90635bd2e4a490604401602060405180830381865af4158015611aff573d6000803e3d6000fd5b505050506040513d601f19601f82011682018060405250810190611b23919061319f565b5082516020908101516001600160a01b039081166000908152600290925260409182902085515192516316f4b92960e21b815260048101919091529116602482015273__$f71e59c5327218924d154e230469c101bd$__90635bd2e4a490604401602060405180830381865af4158015611ba1573d6000803e3d6000fd5b505050506040513d601f19601f82011682018060405250810190611bc5919061319f565b505b6001600160e01b0319431660a0820152604080840151908201516001600160401b039081169116148015611c14575082606001516001600160401b031681606001516001600160401b0316145b8015611c39575082608001516001600160401b031681608001516001600160401b0316145b15611c4357505050565b6040838101516001600160401b039081168383015260608086015182169084015260808086015190911690830152600083815260016020818152929091208351805182546001600160a01b03199081166001600160a01b0392831617845591850151838501805490931691161790559183015160028301805485949360ff1990911690836005811115611cd857611cd86131c1565b02179055506040820151600290910180546060840151608085015160a09095015160e01c600160c81b0263ffffffff60c81b196001600160401b03968716600160881b02166bffffffffffffffffffffffff60881b19928716600160481b0270ffffffffffffffff0000000000000000001997909616610100029690961670ffffffffffffffffffffffffffffffff001990931692909217939093179290921692909217179055505050565b80518051602091820151604051600093849384938493611da493016131d7565b60408051601f1981840301815282825280516020918201206000818152600390925282822054633fabe5a360e21b8552925190945090926001600160a01b039092169163feaf968c9160048083019260a09291908290030181865afa158015611e11573d6000803e3d6000fd5b505050506040513d601f19601f82011682018060405250810190611e3591906132ce565b50505091505060008113611e8b5760405162461bcd60e51b815260206004820181905260248201527f436861696e6c696e6b2071756f7465206d75737420626520706f73697469766560448201526064016106d7565b60008281526003602090815260409182902054825163313ce56760e01b8152925184936001600160a01b039092169263313ce56792600480820193918290030181865afa158015611ee0573d6000803e3d6000fd5b505050506040513d601f19601f82011682018060405250810190611f04919061331e565b611f0f90600a613425565b611f2190670de0b6b3a7640000613214565b611f2b9082613236565b97889750879650945050505050565b6000806000611f4c8460400151611726565b611f598560600151611726565b611f668660800151611726565b9250925092509193909250565b60008060004360001b6001600160e01b0319168460a001516001600160e01b03191614612000576000806000611fa887611d84565b925092509250611fb783610cac565b6001600160401b03166040880152611fce82610cac565b6001600160401b03166060880152611fe581610cac565b6001600160401b03166080880152611ffc876118ef565b5050505b611f4c8460400151611726565b6000546001600160a01b03620100009091041633146106e05760405162461bcd60e51b815260206004820152601f60248201527f416c6c6f77616e63653a2063616c6c6572206d757374206265204f776e65720060448201526064016106d7565b600080546001600160a01b038381166201000081810262010000600160b01b0319851617855560405193049190911692909183917f8be0079c531659141344cd1fd0a4f28419497f9722a3daafe3b4186f6b6457e091a35050565b6001600160a01b038416600090815260026020908152604080832080548251818502810185019093528083526060949383018282801561213257602002820191906000526020600020905b81546001600160a01b03168152600190910190602001808311612114575b509394506000935061214392505050565b60405190808252806020026020018201604052801561217657816020015b60608152602001906001900390816121615790505b50915060005b81518110156128495760005b84518110156122bd57876001600160a01b03168582815181106121ad576121ad61326b565b6020026020010151600001516001600160a01b031614801561221657508282815181106121dc576121dc61326b565b60200260200101516001600160a01b03168582815181106121ff576121ff61326b565b6020026020010151602001516001600160a01b0316145b806122a15750876001600160a01b03168582815181106122385761223861326b565b6020026020010151602001516001600160a01b03161480156122a157508282815181106122675761226761326b565b60200260200101516001600160a01b031685828151811061228a5761228a61326b565b6020026020010151600001516001600160a01b0316145b156122ab576122bd565b806122b581613281565b915050612188565b84518110156122cc5750612837565b866001600160a01b03168383815181106122e8576122e861326b565b60200260200101516001600160a01b0316141561258b576000600160008a8a6040516020016123189291906131d7565b60408051601f1981840301815291815281516020928301208352908201929092520160002090506003600282015460ff16600581111561235a5761235a6131c1565b1415801561238157506004600282015460ff16600581111561237e5761237e6131c1565b14155b1561258957600086516001612396919061329c565b6001600160401b038111156123ad576123ad612ced565b6040519080825280602002602001820160405280156123f257816020015b60408051808201909152600080825260208201528152602001906001900390816123cb5790505b509050600092505b865183101561244d578683815181106124155761241561326b565b602002602001015181848151811061242f5761242f61326b565b6020026020010181905250828061244590613281565b9350506123fa565b898184815181106124605761246061326b565b6020026020010151600001906001600160a01b031690816001600160a01b031681525050888184815181106124975761249761326b565b6020908102919091018101516001600160a01b0390921691015285516000906124c190600161329c565b6001600160401b038111156124d8576124d8612ced565b60405190808252806020026020018201604052801561250b57816020015b60608152602001906001900390816124f65790505b509050600093505b86518410156125665786848151811061252e5761252e61326b565b60200260200101518185815181106125485761254861326b565b6020026020010181905250838061255e90613281565b945050612513565b818188518151811061257a5761257a61326b565b60209081029190910101529550505b505b856125965750612849565b6000855160016125a6919061329c565b6001600160401b038111156125bd576125bd612ced565b60405190808252806020026020018201604052801561260257816020015b60408051808201909152600080825260208201528152602001906001900390816125db5790505b509050600091505b855182101561265d578582815181106126255761262561326b565b602002602001015181838151811061263f5761263f61326b565b6020026020010181905250818061265590613281565b92505061260a565b888183815181106126705761267061326b565b60209081029190910101516001600160a01b039091169052835184908490811061269c5761269c61326b565b60200260200101518183815181106126b6576126b661326b565b6020026020010151602001906001600160a01b031690816001600160a01b031681525050600061270d8585815181106126f1576126f161326b565b60200260200101518a60018b6127079190613434565b856120c9565b80519091501561283357600086518251612727919061329c565b6001600160401b0381111561273e5761273e612ced565b60405190808252806020026020018201604052801561277157816020015b606081526020019060019003908161275c5790505b509050600093505b86518410156127cc578684815181106127945761279461326b565b60200260200101518185815181106127ae576127ae61326b565b602002602001018190525083806127c490613281565b945050612779565b600093505b8151841015612830578184815181106127ec576127ec61326b565b602002602001015181858951612802919061329c565b815181106128125761281261326b565b6020026020010181905250838061282890613281565b9450506127d1565b95505b5050505b8061284181613281565b91505061217c565b5050949350505050565b600082826040516020016128689291906131d7565b60408051601f19818403018152828252805160209182012060008181526001808452848220610100870190955284546001600160a01b0390811660c08801908152918601541660e08701528552600284015491955093929183019060ff1660058111156128d7576128d76131c1565b60058111156128e8576128e86131c1565b8152600291909101546001600160401b03610100820481166020840152600160481b820481166040840152600160881b82041660608301526001600160e01b0319600160c81b90910460e01b166080909101529050600081602001516005811115612955576129556131c1565b14156129615750505050565b600581602001516005811115612979576129796131c1565b1415612989576129898484612b0f565b8051516001600160a01b03908116600090815260026020908152604091829020845190910151915163edefe12d60e01b815260048101919091529116602482015273__$f71e59c5327218924d154e230469c101bd$__9063edefe12d90604401602060405180830381865af4158015612a06573d6000803e3d6000fd5b505050506040513d601f19601f82011682018060405250810190612a2a919061319f565b5080516020908101516001600160a01b0390811660009081526002909252604091829020835151925163edefe12d60e01b815260048101919091529116602482015273__$f71e59c5327218924d154e230469c101bd$__9063edefe12d90604401602060405180830381865af4158015612aa8573d6000803e3d6000fd5b505050506040513d601f19601f82011682018060405250810190612acc919061319f565b5050600090815260016020819052604090912080546001600160a01b03199081168255918101805490921690915560020180546001600160e81b03191690555050565b60008282604051602001612b249291906131d7565b60408051601f19818403018152918152815160209283012060009081526003909252902080546001600160a01b0319169055505050565b6040805161010081018252600060c0820181815260e08301829052825260208201819052918101829052606081018290526080810182905260a081019190915290565b60008085851115612bae57600080fd5b83861115612bbb57600080fd5b5050820193919092039150565b80356001600160e01b031981168114612be057600080fd5b919050565b600060208284031215612bf757600080fd5b6114c682612bc8565b80356001600160a01b0381168114612be057600080fd5b600080600080600060a08688031215612c2f57600080fd5b612c3886612c00565b9450612c4660208701612c00565b94979496505050506040830135926060810135926080909101359150565b60008060408385031215612c7757600080fd5b612c8083612c00565b9150612c8e60208401612c00565b90509250929050565b600060208284031215612ca957600080fd5b5035919050565b600060208284031215612cc257600080fd5b6114c682612c00565b60008060408385031215612cde57600080fd5b50508035926020909101359150565b634e487b7160e01b600052604160045260246000fd5b60405160c081016001600160401b0381118282101715612d2557612d25612ced565b60405290565b604051601f8201601f191681016001600160401b0381118282101715612d5357612d53612ced565b604052919050565b60006001600160401b03821115612d7457612d74612ced565b5060051b60200190565b600060408284031215612d9057600080fd5b604051604081018181106001600160401b0382111715612db257612db2612ced565b604052905080612dc183612c00565b8152612dcf60208401612c00565b60208201525092915050565b80356001600160401b0381168114612be057600080fd5b60006020808385031215612e0557600080fd5b82356001600160401b03811115612e1b57600080fd5b8301601f81018513612e2c57600080fd5b8035612e3f612e3a82612d5b565b612d2b565b81815260e09182028301840191848201919088841115612e5e57600080fd5b938501935b83851015612efc5780858a031215612e7b5760008081fd5b612e83612d03565b612e8d8a87612d7e565b815260408087013560068110612ea35760008081fd5b828901526060612eb4888201612ddb565b8284015260809150612ec7828901612ddb565b9083015260a0612ed8888201612ddb565b82840152612ee860c08901612bc8565b908301525083529384019391850191612e63565b50979650505050505050565b600060208284031215612f1a57600080fd5b813565ffffffffffff811681146114c657600080fd5b60006020808301818452808551808352604092508286019150828160051b8701018488016000805b84811015612fc157898403603f19018652825180518086529089019089860190845b81811015612fac57835180516001600160a01b039081168552908d0151168c840152928b0192918a0191600101612f7a565b50509689019694505091870191600101612f58565b50919998505050505050505050565b60006020808385031215612fe357600080fd5b82356001600160401b0380821115612ffa57600080fd5b818501915085601f83011261300e57600080fd5b813561301c612e3a82612d5b565b81815260059190911b8301840190848101908883111561303b57600080fd5b8585015b838110156130d2578035858111156130575760008081fd5b8601603f81018b136130695760008081fd5b87810135604061307b612e3a83612d5b565b82815260069290921b83018101918a8101908e84111561309b5760008081fd5b938201935b838510156130c1576130b28f86612d7e565b825293820193908b01906130a0565b87525050509287019250860161303f565b5098975050505050505050565b6000806000606084860312156130f457600080fd5b6130fd84612c00565b925061310b60208501612c00565b9150604084013590509250925092565b60006020828403121561312d57600080fd5b6114c682612ddb565b60008060006060848603121561314b57600080fd5b61315484612c00565b925061316260208501612c00565b915061317060408501612c00565b90509250925092565b60006020828403121561318b57600080fd5b813563ffffffff811681146114c657600080fd5b6000602082840312156131b157600080fd5b815180151581146114c657600080fd5b634e487b7160e01b600052602160045260246000fd5b6bffffffffffffffffffffffff19606093841b811682529190921b16601482015260280190565b634e487b7160e01b600052601160045260246000fd5b60008261323157634e487b7160e01b600052601260045260246000fd5b500490565b6000816000190483118215151615613250576132506131fe565b500290565b634e487b7160e01b600052600160045260246000fd5b634e487b7160e01b600052603260045260246000fd5b6000600019821415613295576132956131fe565b5060010190565b600082198211156132af576132af6131fe565b500190565b805169ffffffffffffffffffff81168114612be057600080fd5b600080600080600060a086880312156132e657600080fd5b6132ef866132b4565b9450602086015193506040860151925060608601519150613312608087016132b4565b90509295509295909350565b60006020828403121561333057600080fd5b815160ff811681146114c657600080fd5b600181815b8085111561337c578160001904821115613362576133626131fe565b8085161561336f57918102915b93841c9390800290613346565b509250929050565b6000826133935750600161072d565b816133a05750600061072d565b81600181146133b657600281146133c0576133dc565b600191505061072d565b60ff8411156133d1576133d16131fe565b50506001821b61072d565b5060208310610133831016604e8410600b84101617156133ff575081810a61072d565b6134098383613341565b806000190482111561341d5761341d6131fe565b029392505050565b60006114c660ff841683613384565b600082821015613446576134466131fe565b50039056fea264697066735822122024cbd8efddfe5b8f351aa9772c082be77451328406f652bcbc7c87ebf654209464736f6c634300080b0033","language":"Solidity","natspec":{"methods":{"ownerOf()":{"details":"Returns the address of the current owner."},"renounceOwnership()":{"details":"Leaves the contract without owner. It will not be possible to call `onlyOwner` functions anymore. Can only be called by the current owner. NOTE: Renouncing ownership will leave the contract without an owner, thereby removing any functionality that is only available to the owner."},"supportsInterface(bytes4)":{"details":"Returns true if this contract implements the interface defined by `interfaceId`. See the corresponding https://eips.ethereum.org/EIPS/eip-165#how-interfaces-are-identified[EIP section] to learn more about how these ids are created. This function call must use less than 30 000 gas."},"transferOwnership(address)":{"details":"Transfers ownership of the contract to a new account (`newOwner`). Can only be called by the current owner."}},"kind":"dev","version":1},"opcodes":"PUSH1 0x80 PUSH1 0x40 MSTORE CALLVALUE DUP1 ISZERO PUSH2 0x10 JUMPI PUSH1 0x0 DUP1 REVERT JUMPDEST POP PUSH1 0x4 CALLDATASIZE LT PUSH2 0x1DA JUMPI PUSH1 0x0 CALLDATALOAD PUSH1 0xE0 SHR DUP1 PUSH4 0x7BB759AD GT PUSH2 0x104 JUMPI DUP1 PUSH4 0xAF640D0F GT PUSH2 0xA2 JUMPI DUP1 PUSH4 0xD6935858 GT PUSH2 0x71 JUMPI DUP1 PUSH4 0xD6935858 EQ PUSH2 0x4C0 JUMPI DUP1 PUSH4 0xE4B16144 EQ PUSH2 0x4C8 JUMPI DUP1 PUSH4 0xF2FDE38B EQ PUSH2 0x4DB JUMPI DUP1 PUSH4 0xFEAB4454 EQ PUSH2 0x4EE JUMPI PUSH2 0x1DA JUMP JUMPDEST DUP1 PUSH4 0xAF640D0F EQ PUSH2 0x44D JUMPI DUP1 PUSH4 0xB03FD40D EQ PUSH2 0x473 JUMPI DUP1 PUSH4 0xBD287031 EQ PUSH2 0x486 JUMPI DUP1 PUSH4 0xCCC07959 EQ PUSH2 0x499 JUMPI PUSH2 0x1DA JUMP JUMPDEST DUP1 PUSH4 0x8DA5CB5B GT PUSH2 0xDE JUMPI DUP1 PUSH4 0x8DA5CB5B EQ PUSH2 0x3EC JUMPI DUP1 PUSH4 0x94F46F6F EQ PUSH2 0x417 JUMPI DUP1 PUSH4 0x96E4EE3D EQ PUSH2 0x42A JUMPI DUP1 PUSH4 0x97962076 EQ PUSH2 0x43D JUMPI PUSH2 0x1DA JUMP JUMPDEST DUP1 PUSH4 0x7BB759AD EQ PUSH2 0x3B1 JUMPI DUP1 PUSH4 0x83E8531A EQ PUSH2 0x3D1 JUMPI DUP1 PUSH4 0x854BA99D EQ PUSH2 0x3E4 JUMPI PUSH2 0x1DA JUMP JUMPDEST DUP1 PUSH4 0x62965141 GT PUSH2 0x17C JUMPI DUP1 PUSH4 0x6968ABD3 GT PUSH2 0x14B JUMPI DUP1 PUSH4 0x6968ABD3 EQ PUSH2 0x36D JUMPI DUP1 PUSH4 0x715018A6 EQ PUSH2 0x380 JUMPI DUP1 PUSH4 0x72EA61BF EQ PUSH2 0x388 JUMPI DUP1 PUSH4 0x7AF6649A EQ PUSH2 0x390 JUMPI PUSH2 0x1DA JUMP JUMPDEST DUP1 PUSH4 0x62965141 EQ PUSH2 0x315 JUMPI DUP1 PUSH4 0x6464B68A EQ PUSH2 0x340 JUMPI DUP1 PUSH4 0x65A6B363 EQ PUSH2 0x35A JUMPI DUP1 PUSH4 0x65E60EF2 EQ PUSH2 0x340 JUMPI PUSH2 0x1DA JUMP JUMPDEST DUP1 PUSH4 0x1E8D8223 GT PUSH2 0x1B8 JUMPI DUP1 PUSH4 0x1E8D8223 EQ PUSH2 0x2A4 JUMPI DUP1 PUSH4 0x2203616D EQ PUSH2 0x2D2 JUMPI DUP1 PUSH4 0x2F54BF6E EQ PUSH2 0x2FA JUMPI DUP1 PUSH4 0x5F5C5BAA EQ PUSH2 0x30D JUMPI PUSH2 0x1DA JUMP JUMPDEST DUP1 PUSH4 0x1FFC9A7 EQ PUSH2 0x25F JUMPI DUP1 PUSH4 0x5D6BD9C EQ PUSH2 0x287 JUMPI DUP1 PUSH4 0xDF74084 EQ PUSH2 0x291 JUMPI JUMPDEST PUSH2 0x1E2 PUSH2 0x518 JUMP JUMPDEST PUSH1 0x0 PUSH2 0x1F2 PUSH1 0x24 PUSH1 0x4 CALLDATASIZE DUP5 PUSH2 0x2B9E JUMP JUMPDEST DUP1 DUP1 PUSH1 0x1F ADD PUSH1 0x20 DUP1 SWAP2 DIV MUL PUSH1 0x20 ADD PUSH1 0x40 MLOAD SWAP1 DUP2 ADD PUSH1 0x40 MSTORE DUP1 SWAP4 SWAP3 SWAP2 SWAP1 DUP2 DUP2 MSTORE PUSH1 0x20 ADD DUP4 DUP4 DUP1 DUP3 DUP5 CALLDATACOPY PUSH1 0x0 SWAP3 ADD DUP3 SWAP1 MSTORE POP PUSH1 0x20 DUP6 ADD MLOAD SWAP5 SWAP6 POP SWAP3 POP POP CALLDATASIZE PUSH1 0x23 NOT DUP2 ADD SWAP2 POP PUSH1 0x1F NOT ADD PUSH1 0x4 DUP4 DUP1 CALLDATACOPY DUP2 PUSH1 0x24 PUSH1 0x4 CALLDATACOPY PUSH1 0x0 DUP1 DUP3 PUSH1 0x0 DUP8 GAS DELEGATECALL SWAP3 POP POP POP PUSH2 0x25A DUP2 PUSH2 0x6E2 JUMP JUMPDEST POP POP POP STOP JUMPDEST PUSH2 0x272 PUSH2 0x26D CALLDATASIZE PUSH1 0x4 PUSH2 0x2BE5 JUMP JUMPDEST PUSH2 0x6FC JUMP JUMPDEST PUSH1 0x40 MLOAD SWAP1 ISZERO ISZERO DUP2 MSTORE PUSH1 0x20 ADD JUMPDEST PUSH1 0x40 MLOAD DUP1 SWAP2 SUB SWAP1 RETURN JUMPDEST PUSH2 0x28F PUSH2 0x733 JUMP JUMPDEST STOP JUMPDEST PUSH2 0x28F PUSH2 0x29F CALLDATASIZE PUSH1 0x4 PUSH2 0x2C17 JUMP JUMPDEST PUSH2 0x74A JUMP JUMPDEST PUSH2 0x2B7 PUSH2 0x2B2 CALLDATASIZE PUSH1 0x4 PUSH2 0x2C64 JUMP JUMPDEST PUSH2 0x7D1 JUMP JUMPDEST PUSH1 0x40 DUP1 MLOAD SWAP4 DUP5 MSTORE PUSH1 0x20 DUP5 ADD SWAP3 SWAP1 SWAP3 MSTORE SWAP1 DUP3 ADD MSTORE PUSH1 0x60 ADD PUSH2 0x27E JUMP JUMPDEST PUSH2 0x2E5 PUSH2 0x2E0 CALLDATASIZE PUSH1 0x4 PUSH2 0x2C97 JUMP JUMPDEST PUSH2 0xB59 JUMP JUMPDEST PUSH1 0x40 MLOAD PUSH4 0xFFFFFFFF SWAP1 SWAP2 AND DUP2 MSTORE PUSH1 0x20 ADD PUSH2 0x27E JUMP JUMPDEST PUSH2 0x272 PUSH2 0x308 CALLDATASIZE PUSH1 0x4 PUSH2 0x2CB0 JUMP JUMPDEST PUSH2 0xB6A JUMP JUMPDEST PUSH2 0x28F PUSH2 0xB97 JUMP JUMPDEST PUSH2 0x328 PUSH2 0x323 CALLDATASIZE PUSH1 0x4 PUSH2 0x2C97 JUMP JUMPDEST PUSH2 0xCAC JUMP JUMPDEST PUSH1 0x40 MLOAD PUSH1 0x1 PUSH1 0x1 PUSH1 0x40 SHL SUB SWAP1 SWAP2 AND DUP2 MSTORE PUSH1 0x20 ADD PUSH2 0x27E JUMP JUMPDEST PUSH2 0x2B7 PUSH2 0x34E CALLDATASIZE PUSH1 0x4 PUSH2 0x2CCB JUMP JUMPDEST PUSH1 0x0 DUP1 PUSH1 0x0 SWAP3 POP SWAP3 POP SWAP3 JUMP JUMPDEST PUSH2 0x28F PUSH2 0x368 CALLDATASIZE PUSH1 0x4 PUSH2 0x2DF2 JUMP JUMPDEST PUSH2 0xCDE JUMP JUMPDEST PUSH2 0x2B7 PUSH2 0x37B CALLDATASIZE PUSH1 0x4 PUSH2 0x2C64 JUMP JUMPDEST PUSH2 0xDC5 JUMP JUMPDEST PUSH2 0x28F PUSH2 0x142B JUMP JUMPDEST PUSH2 0x28F PUSH2 0x143D JUMP JUMPDEST PUSH2 0x3A3 PUSH2 0x39E CALLDATASIZE PUSH1 0x4 PUSH2 0x2F08 JUMP JUMPDEST PUSH2 0x1457 JUMP JUMPDEST PUSH1 0x40 MLOAD SWAP1 DUP2 MSTORE PUSH1 0x20 ADD PUSH2 0x27E JUMP JUMPDEST PUSH2 0x3C4 PUSH2 0x3BF CALLDATASIZE PUSH1 0x4 PUSH2 0x2C64 JUMP JUMPDEST PUSH2 0x1470 JUMP JUMPDEST PUSH1 0x40 MLOAD PUSH2 0x27E SWAP2 SWAP1 PUSH2 0x2F30 JUMP JUMPDEST PUSH2 0x2B7 PUSH2 0x3DF CALLDATASIZE PUSH1 0x4 PUSH2 0x2FD0 JUMP JUMPDEST PUSH2 0x14CD JUMP JUMPDEST PUSH2 0x272 PUSH2 0x1684 JUMP JUMPDEST PUSH1 0x0 SLOAD PUSH3 0x10000 SWAP1 DIV PUSH1 0x1 PUSH1 0x1 PUSH1 0xA0 SHL SUB AND JUMPDEST PUSH1 0x40 MLOAD PUSH1 0x1 PUSH1 0x1 PUSH1 0xA0 SHL SUB SWAP1 SWAP2 AND DUP2 MSTORE PUSH1 0x20 ADD PUSH2 0x27E JUMP JUMPDEST PUSH2 0x28F PUSH2 0x425 CALLDATASIZE PUSH1 0x4 PUSH2 0x30DF JUMP JUMPDEST PUSH2 0x16A2 JUMP JUMPDEST PUSH2 0x3A3 PUSH2 0x438 CALLDATASIZE PUSH1 0x4 PUSH2 0x2CCB JUMP JUMPDEST PUSH2 0x1707 JUMP JUMPDEST PUSH1 0x0 SLOAD PUSH2 0x100 SWAP1 DIV PUSH1 0xFF AND PUSH2 0x272 JUMP JUMPDEST PUSH32 0x3CB99135F7A7C088D9085B446345038A22A85F4E8FE072B0E1B66D97243E7458 PUSH2 0x3A3 JUMP JUMPDEST PUSH2 0x3A3 PUSH2 0x481 CALLDATASIZE PUSH1 0x4 PUSH2 0x311B JUMP JUMPDEST PUSH2 0x1726 JUMP JUMPDEST PUSH2 0x28F PUSH2 0x494 CALLDATASIZE PUSH1 0x4 PUSH2 0x3136 JUMP JUMPDEST PUSH2 0x1740 JUMP JUMPDEST PUSH2 0x3FF PUSH32 0x0 DUP2 JUMP JUMPDEST PUSH2 0x28F PUSH2 0x1832 JUMP JUMPDEST PUSH2 0x3A3 PUSH2 0x4D6 CALLDATASIZE PUSH1 0x4 PUSH2 0x3179 JUMP JUMPDEST PUSH2 0x184E JUMP JUMPDEST PUSH2 0x28F PUSH2 0x4E9 CALLDATASIZE PUSH1 0x4 PUSH2 0x2CB0 JUMP JUMPDEST PUSH2 0x1865 JUMP JUMPDEST PUSH2 0x501 PUSH2 0x4FC CALLDATASIZE PUSH1 0x4 PUSH2 0x2C97 JUMP JUMPDEST PUSH2 0x18DE JUMP JUMPDEST PUSH1 0x40 MLOAD PUSH6 0xFFFFFFFFFFFF SWAP1 SWAP2 AND DUP2 MSTORE PUSH1 0x20 ADD PUSH2 0x27E JUMP JUMPDEST PUSH1 0x0 SLOAD PUSH1 0x1 PUSH1 0x1 PUSH1 0xA0 SHL SUB PUSH3 0x10000 SWAP1 SWAP2 DIV AND CALLER EQ DUP1 PUSH2 0x5CB JUMPI POP PUSH1 0x1 PUSH1 0x1 PUSH1 0xA0 SHL SUB PUSH32 0x0 AND PUSH4 0x16279055 CALLER PUSH1 0x40 MLOAD PUSH1 0x1 PUSH1 0x1 PUSH1 0xE0 SHL SUB NOT PUSH1 0xE0 DUP5 SWAP1 SHL AND DUP2 MSTORE PUSH1 0x1 PUSH1 0x1 PUSH1 0xA0 SHL SUB SWAP1 SWAP2 AND PUSH1 0x4 DUP3 ADD MSTORE PUSH1 0x24 ADD PUSH1 0x20 PUSH1 0x40 MLOAD DUP1 DUP4 SUB DUP2 DUP7 GAS STATICCALL ISZERO DUP1 ISZERO PUSH2 0x5A7 JUMPI RETURNDATASIZE PUSH1 0x0 DUP1 RETURNDATACOPY RETURNDATASIZE PUSH1 0x0 REVERT JUMPDEST POP POP POP POP PUSH1 0x40 MLOAD RETURNDATASIZE PUSH1 0x1F NOT PUSH1 0x1F DUP3 ADD AND DUP3 ADD DUP1 PUSH1 0x40 MSTORE POP DUP2 ADD SWAP1 PUSH2 0x5CB SWAP2 SWAP1 PUSH2 0x319F JUMP JUMPDEST DUP1 PUSH2 0x669 JUMPI POP PUSH1 0x1 PUSH1 0x1 PUSH1 0xA0 SHL SUB PUSH32 0x0 AND PUSH4 0x6D70F7AE CALLER PUSH1 0x40 MLOAD PUSH1 0x1 PUSH1 0x1 PUSH1 0xE0 SHL SUB NOT PUSH1 0xE0 DUP5 SWAP1 SHL AND DUP2 MSTORE PUSH1 0x1 PUSH1 0x1 PUSH1 0xA0 SHL SUB SWAP1 SWAP2 AND PUSH1 0x4 DUP3 ADD MSTORE PUSH1 0x24 ADD PUSH1 0x20 PUSH1 0x40 MLOAD DUP1 DUP4 SUB DUP2 DUP7 GAS STATICCALL ISZERO DUP1 ISZERO PUSH2 0x645 JUMPI RETURNDATASIZE PUSH1 0x0 DUP1 RETURNDATACOPY RETURNDATASIZE PUSH1 0x0 REVERT JUMPDEST POP POP POP POP PUSH1 0x40 MLOAD RETURNDATASIZE PUSH1 0x1F NOT PUSH1 0x1F DUP3 ADD AND DUP3 ADD DUP1 PUSH1 0x40 MSTORE POP DUP2 ADD SWAP1 PUSH2 0x669 SWAP2 SWAP1 PUSH2 0x319F JUMP JUMPDEST PUSH2 0x6E0 JUMPI PUSH1 0x40 MLOAD PUSH3 0x461BCD PUSH1 0xE5 SHL DUP2 MSTORE PUSH1 0x20 PUSH1 0x4 DUP3 ADD MSTORE PUSH1 0x39 PUSH1 0x24 DUP3 ADD MSTORE PUSH32 0x416C6C6F77616E63653A2063616C6C6572206D757374206265205265706F7369 PUSH1 0x44 DUP3 ADD MSTORE PUSH32 0x746F727920436F6E7472616374206F72204F70657261746F7200000000000000 PUSH1 0x64 DUP3 ADD MSTORE PUSH1 0x84 ADD JUMPDEST PUSH1 0x40 MLOAD DUP1 SWAP2 SUB SWAP1 REVERT JUMPDEST JUMP JUMPDEST RETURNDATASIZE PUSH1 0x0 DUP1 RETURNDATACOPY DUP1 DUP1 ISZERO PUSH2 0x6F3 JUMPI RETURNDATASIZE PUSH1 0x0 RETURN JUMPDEST RETURNDATASIZE PUSH1 0x0 REVERT JUMPDEST POP POP JUMP JUMPDEST PUSH1 0x0 PUSH1 0x1 PUSH1 0x1 PUSH1 0xE0 SHL SUB NOT DUP3 AND PUSH4 0x1FFC9A7 PUSH1 0xE0 SHL EQ DUP1 PUSH2 0x72D JUMPI POP PUSH1 0x1 PUSH1 0x1 PUSH1 0xE0 SHL SUB NOT DUP3 AND PUSH4 0x15D37895 PUSH1 0xE3 SHL EQ JUMPDEST SWAP3 SWAP2 POP POP JUMP JUMPDEST PUSH2 0x73B PUSH2 0x518 JUMP JUMPDEST PUSH2 0x6E0 PUSH1 0x0 DUP1 SLOAD PUSH1 0xFF NOT AND SWAP1 SSTORE JUMP JUMPDEST PUSH2 0x752 PUSH2 0x518 JUMP JUMPDEST PUSH2 0x75A PUSH2 0x2B5B JUMP JUMPDEST DUP1 MLOAD PUSH1 0x1 PUSH1 0x1 PUSH1 0xA0 SHL SUB DUP8 DUP2 AND SWAP1 SWAP2 MSTORE DUP2 MLOAD SWAP1 DUP7 AND PUSH1 0x20 SWAP2 DUP3 ADD MSTORE PUSH1 0x2 SWAP1 DUP3 ADD MSTORE PUSH2 0x784 DUP5 PUSH2 0xCAC JUMP JUMPDEST PUSH1 0x1 PUSH1 0x1 PUSH1 0x40 SHL SUB AND PUSH1 0x40 DUP3 ADD MSTORE PUSH2 0x79B DUP4 PUSH2 0xCAC JUMP JUMPDEST PUSH1 0x1 PUSH1 0x1 PUSH1 0x40 SHL SUB AND PUSH1 0x60 DUP3 ADD MSTORE PUSH2 0x7B2 DUP3 PUSH2 0xCAC JUMP JUMPDEST PUSH1 0x1 PUSH1 0x1 PUSH1 0x40 SHL SUB AND PUSH1 0x80 DUP3 ADD MSTORE PUSH2 0x7C9 DUP2 PUSH2 0x18EF JUMP JUMPDEST POP POP POP POP POP POP JUMP JUMPDEST PUSH1 0x0 DUP1 PUSH1 0x0 DUP1 DUP6 DUP6 PUSH1 0x40 MLOAD PUSH1 0x20 ADD PUSH2 0x7EA SWAP3 SWAP2 SWAP1 PUSH2 0x31D7 JUMP JUMPDEST PUSH1 0x40 DUP1 MLOAD PUSH1 0x1F NOT DUP2 DUP5 SUB ADD DUP2 MSTORE DUP3 DUP3 MSTORE DUP1 MLOAD PUSH1 0x20 SWAP2 DUP3 ADD KECCAK256 PUSH1 0x0 DUP2 DUP2 MSTORE PUSH1 0x1 DUP1 DUP5 MSTORE DUP5 DUP3 KECCAK256 PUSH2 0x100 DUP8 ADD SWAP1 SWAP6 MSTORE DUP5 SLOAD PUSH1 0x1 PUSH1 0x1 PUSH1 0xA0 SHL SUB SWAP1 DUP2 AND PUSH1 0xC0 DUP9 ADD SWAP1 DUP2 MSTORE SWAP2 DUP7 ADD SLOAD AND PUSH1 0xE0 DUP8 ADD MSTORE DUP6 MSTORE PUSH1 0x2 DUP5 ADD SLOAD SWAP2 SWAP6 POP SWAP4 DUP5 SWAP4 DUP5 SWAP4 DUP5 SWAP4 SWAP1 DUP4 ADD SWAP1 PUSH1 0xFF AND PUSH1 0x5 DUP2 GT ISZERO PUSH2 0x85E JUMPI PUSH2 0x85E PUSH2 0x31C1 JUMP JUMPDEST PUSH1 0x5 DUP2 GT ISZERO PUSH2 0x86F JUMPI PUSH2 0x86F PUSH2 0x31C1 JUMP JUMPDEST DUP2 MSTORE PUSH1 0x2 SWAP2 SWAP1 SWAP2 ADD SLOAD PUSH1 0x1 PUSH1 0x1 PUSH1 0x40 SHL SUB PUSH2 0x100 DUP3 DIV DUP2 AND PUSH1 0x20 DUP5 ADD MSTORE PUSH1 0x1 PUSH1 0x48 SHL DUP3 DIV DUP2 AND PUSH1 0x40 DUP5 ADD MSTORE PUSH1 0x1 PUSH1 0x88 SHL DUP3 DIV AND PUSH1 0x60 DUP4 ADD MSTORE PUSH1 0x1 PUSH1 0x1 PUSH1 0xE0 SHL SUB NOT PUSH1 0x1 PUSH1 0xC8 SHL SWAP1 SWAP2 DIV PUSH1 0xE0 SHL AND PUSH1 0x80 SWAP1 SWAP2 ADD MSTORE SWAP1 POP PUSH1 0x5 DUP2 PUSH1 0x20 ADD MLOAD PUSH1 0x5 DUP2 GT ISZERO PUSH2 0x8DC JUMPI PUSH2 0x8DC PUSH2 0x31C1 JUMP JUMPDEST EQ ISZERO PUSH2 0x8F7 JUMPI PUSH2 0x8EB DUP2 PUSH2 0x1D84 JUMP JUMPDEST SWAP2 SWAP6 POP SWAP4 POP SWAP2 POP PUSH2 0x94D JUMP JUMPDEST PUSH1 0x1 DUP2 PUSH1 0x20 ADD MLOAD PUSH1 0x5 DUP2 GT ISZERO PUSH2 0x90F JUMPI PUSH2 0x90F PUSH2 0x31C1 JUMP JUMPDEST EQ ISZERO PUSH2 0x91E JUMPI PUSH2 0x8EB DUP2 PUSH2 0x1F3A JUMP JUMPDEST PUSH1 0x2 DUP2 PUSH1 0x20 ADD MLOAD PUSH1 0x5 DUP2 GT ISZERO PUSH2 0x936 JUMPI PUSH2 0x936 PUSH2 0x31C1 JUMP JUMPDEST EQ ISZERO PUSH2 0x94D JUMPI PUSH2 0x945 DUP2 PUSH2 0x1F3A JUMP JUMPDEST SWAP2 SWAP6 POP SWAP4 POP SWAP2 POP JUMPDEST DUP3 ISZERO PUSH2 0x962 JUMPI POP SWAP2 SWAP6 POP SWAP4 POP SWAP2 POP PUSH2 0xB52 SWAP1 POP JUMP JUMPDEST DUP9 DUP11 PUSH1 0x40 MLOAD PUSH1 0x20 ADD PUSH2 0x975 SWAP3 SWAP2 SWAP1 PUSH2 0x31D7 JUMP JUMPDEST PUSH1 0x40 DUP1 MLOAD PUSH1 0x1F NOT DUP2 DUP5 SUB ADD DUP2 MSTORE DUP3 DUP3 MSTORE DUP1 MLOAD PUSH1 0x20 SWAP2 DUP3 ADD KECCAK256 PUSH1 0x0 DUP2 DUP2 MSTORE PUSH1 0x1 DUP1 DUP5 MSTORE SWAP1 DUP5 SWAP1 KECCAK256 PUSH2 0x100 DUP7 ADD SWAP1 SWAP5 MSTORE DUP4 SLOAD PUSH1 0x1 PUSH1 0x1 PUSH1 0xA0 SHL SUB SWAP1 DUP2 AND PUSH1 0xC0 DUP8 ADD SWAP1 DUP2 MSTORE SWAP2 DUP6 ADD SLOAD AND PUSH1 0xE0 DUP7 ADD MSTORE DUP5 MSTORE PUSH1 0x2 DUP4 ADD SLOAD SWAP1 SWAP9 POP SWAP1 DUP4 ADD SWAP1 PUSH1 0xFF AND PUSH1 0x5 DUP2 GT ISZERO PUSH2 0x9E3 JUMPI PUSH2 0x9E3 PUSH2 0x31C1 JUMP JUMPDEST PUSH1 0x5 DUP2 GT ISZERO PUSH2 0x9F4 JUMPI PUSH2 0x9F4 PUSH2 0x31C1 JUMP JUMPDEST DUP2 MSTORE PUSH1 0x2 SWAP2 SWAP1 SWAP2 ADD SLOAD PUSH1 0x1 PUSH1 0x1 PUSH1 0x40 SHL SUB PUSH2 0x100 DUP3 DIV DUP2 AND PUSH1 0x20 DUP5 ADD MSTORE PUSH1 0x1 PUSH1 0x48 SHL DUP3 DIV DUP2 AND PUSH1 0x40 DUP5 ADD MSTORE PUSH1 0x1 PUSH1 0x88 SHL DUP3 DIV AND PUSH1 0x60 DUP4 ADD MSTORE PUSH1 0x1 PUSH1 0x1 PUSH1 0xE0 SHL SUB NOT PUSH1 0x1 PUSH1 0xC8 SHL SWAP1 SWAP2 DIV PUSH1 0xE0 SHL AND PUSH1 0x80 SWAP1 SWAP2 ADD MSTORE PUSH1 0x0 SWAP5 POP DUP5 SWAP4 POP DUP4 SWAP3 POP SWAP1 POP PUSH1 0x5 DUP2 PUSH1 0x20 ADD MLOAD PUSH1 0x5 DUP2 GT ISZERO PUSH2 0xA6B JUMPI PUSH2 0xA6B PUSH2 0x31C1 JUMP JUMPDEST EQ ISZERO PUSH2 0xA86 JUMPI PUSH2 0xA7A DUP2 PUSH2 0x1D84 JUMP JUMPDEST SWAP2 SWAP6 POP SWAP4 POP SWAP2 POP PUSH2 0xADC JUMP JUMPDEST PUSH1 0x1 DUP2 PUSH1 0x20 ADD MLOAD PUSH1 0x5 DUP2 GT ISZERO PUSH2 0xA9E JUMPI PUSH2 0xA9E PUSH2 0x31C1 JUMP JUMPDEST EQ ISZERO PUSH2 0xAAD JUMPI PUSH2 0xA7A DUP2 PUSH2 0x1F3A JUMP JUMPDEST PUSH1 0x2 DUP2 PUSH1 0x20 ADD MLOAD PUSH1 0x5 DUP2 GT ISZERO PUSH2 0xAC5 JUMPI PUSH2 0xAC5 PUSH2 0x31C1 JUMP JUMPDEST EQ ISZERO PUSH2 0xADC JUMPI PUSH2 0xAD4 DUP2 PUSH2 0x1F3A JUMP JUMPDEST SWAP2 SWAP6 POP SWAP4 POP SWAP2 POP JUMPDEST DUP3 PUSH2 0xAF6 JUMPI PUSH1 0x0 DUP1 PUSH1 0x0 SWAP8 POP SWAP8 POP SWAP8 POP POP POP POP POP POP PUSH2 0xB52 JUMP JUMPDEST PUSH2 0xB0F DUP5 PUSH15 0xC097CE7BC90715B34B9F1000000000 PUSH2 0x3214 JUMP JUMPDEST SWAP4 POP PUSH2 0xB2A DUP4 PUSH15 0xC097CE7BC90715B34B9F1000000000 PUSH2 0x3214 JUMP JUMPDEST SWAP3 POP PUSH2 0xB45 DUP3 PUSH15 0xC097CE7BC90715B34B9F1000000000 PUSH2 0x3214 JUMP JUMPDEST SWAP4 SWAP8 POP SWAP2 SWAP6 POP SWAP2 SWAP4 POP POP POP POP JUMPDEST SWAP3 POP SWAP3 POP SWAP3 JUMP JUMPDEST PUSH1 0x0 PUSH2 0x72D PUSH5 0xE8D4A51000 DUP4 PUSH2 0x3214 JUMP JUMPDEST PUSH1 0x0 DUP1 SLOAD PUSH1 0x1 PUSH1 0x1 PUSH1 0xA0 SHL SUB DUP4 DUP2 AND PUSH3 0x10000 SWAP1 SWAP3 DIV AND EQ ISZERO PUSH2 0xB8F JUMPI POP PUSH1 0x1 SWAP2 SWAP1 POP JUMP JUMPDEST POP PUSH1 0x0 SWAP2 SWAP1 POP JUMP JUMPDEST PUSH1 0x0 SLOAD PUSH1 0x1 PUSH1 0x1 PUSH1 0xA0 SHL SUB PUSH3 0x10000 SWAP1 SWAP2 DIV AND CALLER EQ DUP1 PUSH2 0xC4A JUMPI POP PUSH1 0x1 PUSH1 0x1 PUSH1 0xA0 SHL SUB PUSH32 0x0 AND PUSH4 0x6D70F7AE CALLER PUSH1 0x40 MLOAD PUSH1 0x1 PUSH1 0x1 PUSH1 0xE0 SHL SUB NOT PUSH1 0xE0 DUP5 SWAP1 SHL AND DUP2 MSTORE PUSH1 0x1 PUSH1 0x1 PUSH1 0xA0 SHL SUB SWAP1 SWAP2 AND PUSH1 0x4 DUP3 ADD MSTORE PUSH1 0x24 ADD PUSH1 0x20 PUSH1 0x40 MLOAD DUP1 DUP4 SUB DUP2 DUP7 GAS STATICCALL ISZERO DUP1 ISZERO PUSH2 0xC26 JUMPI RETURNDATASIZE PUSH1 0x0 DUP1 RETURNDATACOPY RETURNDATASIZE PUSH1 0x0 REVERT JUMPDEST POP POP POP POP PUSH1 0x40 MLOAD RETURNDATASIZE PUSH1 0x1F NOT PUSH1 0x1F DUP3 ADD AND DUP3 ADD DUP1 PUSH1 0x40 MSTORE POP DUP2 ADD SWAP1 PUSH2 0xC4A SWAP2 SWAP1 PUSH2 0x319F JUMP JUMPDEST PUSH2 0x6E0 JUMPI PUSH1 0x40 MLOAD PUSH3 0x461BCD PUSH1 0xE5 SHL DUP2 MSTORE PUSH1 0x20 PUSH1 0x4 DUP3 ADD MSTORE PUSH1 0x2D PUSH1 0x24 DUP3 ADD MSTORE PUSH32 0x416C6C6F77616E63653A2063616C6C6572206D757374206265205265706F7369 PUSH1 0x44 DUP3 ADD MSTORE PUSH13 0x3A37B93C9027B832B930BA37B9 PUSH1 0x99 SHL PUSH1 0x64 DUP3 ADD MSTORE PUSH1 0x84 ADD PUSH2 0x6D7 JUMP JUMPDEST PUSH1 0x0 DUP1 PUSH2 0xCBE PUSH5 0x2540BE400 DUP5 PUSH2 0x3214 JUMP JUMPDEST SWAP1 POP DUP3 PUSH2 0xCD0 DUP3 PUSH5 0x2540BE400 PUSH2 0x3236 JUMP JUMPDEST GT ISZERO PUSH2 0x72D JUMPI PUSH2 0x72D PUSH2 0x3255 JUMP JUMPDEST PUSH2 0xCE6 PUSH2 0x518 JUMP JUMPDEST PUSH1 0x0 JUMPDEST DUP2 MLOAD DUP2 LT ISZERO PUSH2 0x6F8 JUMPI PUSH2 0xDB3 DUP3 DUP3 DUP2 MLOAD DUP2 LT PUSH2 0xD07 JUMPI PUSH2 0xD07 PUSH2 0x326B JUMP JUMPDEST PUSH1 0x20 MUL PUSH1 0x20 ADD ADD MLOAD PUSH1 0x0 ADD MLOAD PUSH1 0x0 ADD MLOAD DUP4 DUP4 DUP2 MLOAD DUP2 LT PUSH2 0xD29 JUMPI PUSH2 0xD29 PUSH2 0x326B JUMP JUMPDEST PUSH1 0x20 MUL PUSH1 0x20 ADD ADD MLOAD PUSH1 0x0 ADD MLOAD PUSH1 0x20 ADD MLOAD DUP5 DUP5 DUP2 MLOAD DUP2 LT PUSH2 0xD4B JUMPI PUSH2 0xD4B PUSH2 0x326B JUMP JUMPDEST PUSH1 0x20 MUL PUSH1 0x20 ADD ADD MLOAD PUSH1 0x40 ADD MLOAD PUSH1 0x1 PUSH1 0x1 PUSH1 0x40 SHL SUB AND DUP6 DUP6 DUP2 MLOAD DUP2 LT PUSH2 0xD72 JUMPI PUSH2 0xD72 PUSH2 0x326B JUMP JUMPDEST PUSH1 0x20 MUL PUSH1 0x20 ADD ADD MLOAD PUSH1 0x60 ADD MLOAD PUSH1 0x1 PUSH1 0x1 PUSH1 0x40 SHL SUB AND DUP7 DUP7 DUP2 MLOAD DUP2 LT PUSH2 0xD99 JUMPI PUSH2 0xD99 PUSH2 0x326B JUMP JUMPDEST PUSH1 0x20 MUL PUSH1 0x20 ADD ADD MLOAD PUSH1 0x80 ADD MLOAD PUSH1 0x1 PUSH1 0x1 PUSH1 0x40 SHL SUB AND PUSH2 0x74A JUMP JUMPDEST DUP1 PUSH2 0xDBD DUP2 PUSH2 0x3281 JUMP JUMPDEST SWAP2 POP POP PUSH2 0xCE9 JUMP JUMPDEST PUSH1 0x0 DUP1 PUSH1 0x0 DUP1 DUP6 DUP6 PUSH1 0x40 MLOAD PUSH1 0x20 ADD PUSH2 0xDDE SWAP3 SWAP2 SWAP1 PUSH2 0x31D7 JUMP JUMPDEST PUSH1 0x40 DUP1 MLOAD DUP1 DUP4 SUB PUSH1 0x1F NOT ADD DUP2 MSTORE SWAP2 DUP2 MSTORE DUP2 MLOAD PUSH1 0x20 SWAP3 DUP4 ADD KECCAK256 PUSH1 0x0 DUP2 DUP2 MSTORE PUSH1 0x1 SWAP1 SWAP4 MSTORE SWAP2 KECCAK256 PUSH1 0x2 DUP2 ADD SLOAD SWAP2 SWAP3 POP SWAP1 NUMBER PUSH1 0x1 PUSH1 0x1 PUSH1 0xE0 SHL SUB NOT SWAP1 DUP2 AND PUSH1 0x1 PUSH1 0xC8 SHL SWAP1 SWAP3 DIV PUSH1 0xE0 SHL AND EQ ISZERO PUSH2 0xED2 JUMPI PUSH1 0x40 DUP1 MLOAD PUSH1 0x1 PUSH1 0x1 PUSH1 0xA0 SHL SUB DUP1 DUP11 AND DUP3 MSTORE DUP9 AND PUSH1 0x20 DUP3 ADD MSTORE PUSH32 0x85FE05C69E32EC3AED403E05E055FAA5B8F0DEC24C0F5EF97A497B8F4B8228B5 SWAP2 ADD PUSH1 0x40 MLOAD DUP1 SWAP2 SUB SWAP1 LOG1 PUSH1 0x2 DUP2 ADD SLOAD PUSH2 0xE89 SWAP1 PUSH2 0x100 SWAP1 DIV PUSH1 0x1 PUSH1 0x1 PUSH1 0x40 SHL SUB AND PUSH2 0x1726 JUMP JUMPDEST PUSH1 0x2 DUP3 ADD SLOAD PUSH2 0xEA7 SWAP1 PUSH1 0x1 PUSH1 0x48 SHL SWAP1 DIV PUSH1 0x1 PUSH1 0x1 PUSH1 0x40 SHL SUB AND PUSH2 0x1726 JUMP JUMPDEST PUSH1 0x2 DUP4 ADD SLOAD PUSH2 0xEC5 SWAP1 PUSH1 0x1 PUSH1 0x88 SHL SWAP1 DIV PUSH1 0x1 PUSH1 0x1 PUSH1 0x40 SHL SUB AND PUSH2 0x1726 JUMP JUMPDEST SWAP5 POP SWAP5 POP SWAP5 POP POP POP PUSH2 0xB52 JUMP JUMPDEST PUSH1 0x0 DUP1 DUP1 PUSH1 0x5 PUSH1 0x2 DUP6 ADD SLOAD PUSH1 0xFF AND PUSH1 0x5 DUP2 GT ISZERO PUSH2 0xEF1 JUMPI PUSH2 0xEF1 PUSH2 0x31C1 JUMP JUMPDEST EQ ISZERO PUSH2 0xFC0 JUMPI PUSH1 0x40 DUP1 MLOAD PUSH2 0x100 DUP2 ADD SWAP1 SWAP2 MSTORE DUP5 SLOAD PUSH1 0x1 PUSH1 0x1 PUSH1 0xA0 SHL SUB SWAP1 DUP2 AND PUSH1 0xC0 DUP4 ADD SWAP1 DUP2 MSTORE PUSH1 0x1 DUP8 ADD SLOAD SWAP1 SWAP2 AND PUSH1 0xE0 DUP4 ADD MSTORE DUP2 MSTORE PUSH1 0x2 DUP6 ADD SLOAD PUSH2 0xFB4 SWAP2 SWAP1 DUP7 SWAP1 PUSH1 0x20 DUP4 ADD SWAP1 PUSH1 0xFF AND PUSH1 0x5 DUP2 GT ISZERO PUSH2 0xF4B JUMPI PUSH2 0xF4B PUSH2 0x31C1 JUMP JUMPDEST PUSH1 0x5 DUP2 GT ISZERO PUSH2 0xF5C JUMPI PUSH2 0xF5C PUSH2 0x31C1 JUMP JUMPDEST DUP2 MSTORE PUSH1 0x2 SWAP2 SWAP1 SWAP2 ADD SLOAD PUSH1 0x1 PUSH1 0x1 PUSH1 0x40 SHL SUB PUSH2 0x100 DUP3 DIV DUP2 AND PUSH1 0x20 DUP5 ADD MSTORE PUSH1 0x1 PUSH1 0x48 SHL DUP3 DIV DUP2 AND PUSH1 0x40 DUP5 ADD MSTORE PUSH1 0x1 PUSH1 0x88 SHL DUP3 DIV AND PUSH1 0x60 DUP4 ADD MSTORE PUSH1 0x1 PUSH1 0x1 PUSH1 0xE0 SHL SUB NOT PUSH1 0x1 PUSH1 0xC8 SHL SWAP1 SWAP2 DIV PUSH1 0xE0 SHL AND PUSH1 0x80 SWAP1 SWAP2 ADD MSTORE PUSH2 0x1F73 JUMP JUMPDEST SWAP2 SWAP5 POP SWAP3 POP SWAP1 POP PUSH2 0x111A JUMP JUMPDEST PUSH1 0x1 PUSH1 0x2 DUP6 ADD SLOAD PUSH1 0xFF AND PUSH1 0x5 DUP2 GT ISZERO PUSH2 0xFDB JUMPI PUSH2 0xFDB PUSH2 0x31C1 JUMP JUMPDEST EQ ISZERO PUSH2 0x109E JUMPI PUSH1 0x40 DUP1 MLOAD PUSH2 0x100 DUP2 ADD SWAP1 SWAP2 MSTORE DUP5 SLOAD PUSH1 0x1 PUSH1 0x1 PUSH1 0xA0 SHL SUB SWAP1 DUP2 AND PUSH1 0xC0 DUP4 ADD SWAP1 DUP2 MSTORE PUSH1 0x1 DUP8 ADD SLOAD SWAP1 SWAP2 AND PUSH1 0xE0 DUP4 ADD MSTORE DUP2 MSTORE PUSH1 0x2 DUP6 ADD SLOAD PUSH2 0xFB4 SWAP2 SWAP1 DUP7 SWAP1 PUSH1 0x20 DUP4 ADD SWAP1 PUSH1 0xFF AND PUSH1 0x5 DUP2 GT ISZERO PUSH2 0x1035 JUMPI PUSH2 0x1035 PUSH2 0x31C1 JUMP JUMPDEST PUSH1 0x5 DUP2 GT ISZERO PUSH2 0x1046 JUMPI PUSH2 0x1046 PUSH2 0x31C1 JUMP JUMPDEST DUP2 MSTORE PUSH1 0x2 SWAP2 SWAP1 SWAP2 ADD SLOAD PUSH1 0x1 PUSH1 0x1 PUSH1 0x40 SHL SUB PUSH2 0x100 DUP3 DIV DUP2 AND PUSH1 0x20 DUP5 ADD MSTORE PUSH1 0x1 PUSH1 0x48 SHL DUP3 DIV DUP2 AND PUSH1 0x40 DUP5 ADD MSTORE PUSH1 0x1 PUSH1 0x88 SHL DUP3 DIV AND PUSH1 0x60 DUP4 ADD MSTORE PUSH1 0x1 PUSH1 0x1 PUSH1 0xE0 SHL SUB NOT PUSH1 0x1 PUSH1 0xC8 SHL SWAP1 SWAP2 DIV PUSH1 0xE0 SHL AND PUSH1 0x80 SWAP1 SWAP2 ADD MSTORE PUSH2 0x1F3A JUMP JUMPDEST PUSH1 0x2 DUP1 DUP6 ADD SLOAD PUSH1 0xFF AND PUSH1 0x5 DUP2 GT ISZERO PUSH2 0x10B8 JUMPI PUSH2 0x10B8 PUSH2 0x31C1 JUMP JUMPDEST EQ ISZERO PUSH2 0x111A JUMPI PUSH1 0x40 DUP1 MLOAD PUSH2 0x100 DUP2 ADD SWAP1 SWAP2 MSTORE DUP5 SLOAD PUSH1 0x1 PUSH1 0x1 PUSH1 0xA0 SHL SUB SWAP1 DUP2 AND PUSH1 0xC0 DUP4 ADD SWAP1 DUP2 MSTORE PUSH1 0x1 DUP8 ADD SLOAD SWAP1 SWAP2 AND PUSH1 0xE0 DUP4 ADD MSTORE DUP2 MSTORE PUSH1 0x2 DUP6 ADD SLOAD PUSH2 0x1112 SWAP2 SWAP1 DUP7 SWAP1 PUSH1 0x20 DUP4 ADD SWAP1 PUSH1 0xFF AND PUSH1 0x5 DUP2 GT ISZERO PUSH2 0x1035 JUMPI PUSH2 0x1035 PUSH2 0x31C1 JUMP JUMPDEST SWAP2 SWAP5 POP SWAP3 POP SWAP1 POP JUMPDEST DUP2 ISZERO PUSH2 0x1172 JUMPI PUSH1 0x40 DUP1 MLOAD PUSH1 0x1 PUSH1 0x1 PUSH1 0xA0 SHL SUB DUP1 DUP14 AND DUP3 MSTORE DUP12 AND PUSH1 0x20 DUP3 ADD MSTORE PUSH32 0x85FE05C69E32EC3AED403E05E055FAA5B8F0DEC24C0F5EF97A497B8F4B8228B5 SWAP2 ADD PUSH1 0x40 MLOAD DUP1 SWAP2 SUB SWAP1 LOG1 SWAP2 SWAP7 POP SWAP5 POP SWAP3 POP PUSH2 0xB52 SWAP2 POP POP JUMP JUMPDEST DUP9 DUP11 PUSH1 0x40 MLOAD PUSH1 0x20 ADD PUSH2 0x1185 SWAP3 SWAP2 SWAP1 PUSH2 0x31D7 JUMP JUMPDEST PUSH1 0x40 DUP1 MLOAD PUSH1 0x1F NOT DUP2 DUP5 SUB ADD DUP2 MSTORE SWAP2 DUP2 MSTORE DUP2 MLOAD PUSH1 0x20 SWAP3 DUP4 ADD KECCAK256 PUSH1 0x0 DUP2 DUP2 MSTORE PUSH1 0x1 SWAP1 SWAP4 MSTORE SWAP1 DUP3 KECCAK256 SWAP1 SWAP7 POP SWAP5 POP SWAP3 POP DUP3 SWAP2 POP DUP2 SWAP1 POP PUSH1 0x5 PUSH1 0x2 DUP6 ADD SLOAD PUSH1 0xFF AND PUSH1 0x5 DUP2 GT ISZERO PUSH2 0x11D2 JUMPI PUSH2 0x11D2 PUSH2 0x31C1 JUMP JUMPDEST EQ ISZERO PUSH2 0x1238 JUMPI PUSH1 0x40 DUP1 MLOAD PUSH2 0x100 DUP2 ADD SWAP1 SWAP2 MSTORE DUP5 SLOAD PUSH1 0x1 PUSH1 0x1 PUSH1 0xA0 SHL SUB SWAP1 DUP2 AND PUSH1 0xC0 DUP4 ADD SWAP1 DUP2 MSTORE PUSH1 0x1 DUP8 ADD SLOAD SWAP1 SWAP2 AND PUSH1 0xE0 DUP4 ADD MSTORE DUP2 MSTORE PUSH1 0x2 DUP6 ADD SLOAD PUSH2 0x122C SWAP2 SWAP1 DUP7 SWAP1 PUSH1 0x20 DUP4 ADD SWAP1 PUSH1 0xFF AND PUSH1 0x5 DUP2 GT ISZERO PUSH2 0xF4B JUMPI PUSH2 0xF4B PUSH2 0x31C1 JUMP JUMPDEST SWAP2 SWAP5 POP SWAP3 POP SWAP1 POP PUSH2 0x1329 JUMP JUMPDEST PUSH1 0x1 PUSH1 0x2 DUP6 ADD SLOAD PUSH1 0xFF AND PUSH1 0x5 DUP2 GT ISZERO PUSH2 0x1253 JUMPI PUSH2 0x1253 PUSH2 0x31C1 JUMP JUMPDEST EQ ISZERO PUSH2 0x12AD JUMPI PUSH1 0x40 DUP1 MLOAD PUSH2 0x100 DUP2 ADD SWAP1 SWAP2 MSTORE DUP5 SLOAD PUSH1 0x1 PUSH1 0x1 PUSH1 0xA0 SHL SUB SWAP1 DUP2 AND PUSH1 0xC0 DUP4 ADD SWAP1 DUP2 MSTORE PUSH1 0x1 DUP8 ADD SLOAD SWAP1 SWAP2 AND PUSH1 0xE0 DUP4 ADD MSTORE DUP2 MSTORE PUSH1 0x2 DUP6 ADD SLOAD PUSH2 0x122C SWAP2 SWAP1 DUP7 SWAP1 PUSH1 0x20 DUP4 ADD SWAP1 PUSH1 0xFF AND PUSH1 0x5 DUP2 GT ISZERO PUSH2 0x1035 JUMPI PUSH2 0x1035 PUSH2 0x31C1 JUMP JUMPDEST PUSH1 0x2 DUP1 DUP6 ADD SLOAD PUSH1 0xFF AND PUSH1 0x5 DUP2 GT ISZERO PUSH2 0x12C7 JUMPI PUSH2 0x12C7 PUSH2 0x31C1 JUMP JUMPDEST EQ ISZERO PUSH2 0x1329 JUMPI PUSH1 0x40 DUP1 MLOAD PUSH2 0x100 DUP2 ADD SWAP1 SWAP2 MSTORE DUP5 SLOAD PUSH1 0x1 PUSH1 0x1 PUSH1 0xA0 SHL SUB SWAP1 DUP2 AND PUSH1 0xC0 DUP4 ADD SWAP1 DUP2 MSTORE PUSH1 0x1 DUP8 ADD SLOAD SWAP1 SWAP2 AND PUSH1 0xE0 DUP4 ADD MSTORE DUP2 MSTORE PUSH1 0x2 DUP6 ADD SLOAD PUSH2 0x1321 SWAP2 SWAP1 DUP7 SWAP1 PUSH1 0x20 DUP4 ADD SWAP1 PUSH1 0xFF AND PUSH1 0x5 DUP2 GT ISZERO PUSH2 0x1035 JUMPI PUSH2 0x1035 PUSH2 0x31C1 JUMP JUMPDEST SWAP2 SWAP5 POP SWAP3 POP SWAP1 POP JUMPDEST DUP2 PUSH2 0x1386 JUMPI PUSH1 0x40 DUP1 MLOAD PUSH1 0x1 PUSH1 0x1 PUSH1 0xA0 SHL SUB DUP1 DUP14 AND DUP3 MSTORE DUP12 AND PUSH1 0x20 DUP3 ADD MSTORE PUSH32 0x40431C410CC5180BF05A4EFDFB1880B6095849D44D09B81B10B0AEFBB6849EDD SWAP2 ADD PUSH1 0x40 MLOAD DUP1 SWAP2 SUB SWAP1 LOG1 PUSH1 0x0 DUP1 PUSH1 0x0 SWAP8 POP SWAP8 POP SWAP8 POP POP POP POP POP POP PUSH2 0xB52 JUMP JUMPDEST PUSH2 0x139F DUP4 PUSH15 0xC097CE7BC90715B34B9F1000000000 PUSH2 0x3214 JUMP JUMPDEST SWAP3 POP PUSH2 0x13BA DUP3 PUSH15 0xC097CE7BC90715B34B9F1000000000 PUSH2 0x3214 JUMP JUMPDEST SWAP2 POP PUSH2 0x13D5 DUP2 PUSH15 0xC097CE7BC90715B34B9F1000000000 PUSH2 0x3214 JUMP JUMPDEST PUSH1 0x40 DUP1 MLOAD PUSH1 0x1 PUSH1 0x1 PUSH1 0xA0 SHL SUB DUP1 DUP15 AND DUP3 MSTORE DUP13 AND PUSH1 0x20 DUP3 ADD MSTORE SWAP2 SWAP3 POP PUSH32 0x85FE05C69E32EC3AED403E05E055FAA5B8F0DEC24C0F5EF97A497B8F4B8228B5 SWAP2 ADD PUSH1 0x40 MLOAD DUP1 SWAP2 SUB SWAP1 LOG1 SWAP2 SWAP7 POP SWAP5 POP SWAP3 POP POP POP SWAP3 POP SWAP3 POP SWAP3 JUMP JUMPDEST PUSH2 0x1433 PUSH2 0x200D JUMP JUMPDEST PUSH2 0x6E0 PUSH1 0x0 PUSH2 0x206E JUMP JUMPDEST PUSH2 0x1445 PUSH2 0x518 JUMP JUMPDEST PUSH2 0x6E0 PUSH1 0x0 DUP1 SLOAD PUSH1 0xFF NOT AND PUSH1 0x1 OR SWAP1 SSTORE JUMP JUMPDEST PUSH1 0x0 PUSH2 0x72D PUSH6 0xFFFFFFFFFFFF DUP4 AND PUSH5 0x174876E800 PUSH2 0x3236 JUMP JUMPDEST PUSH1 0x60 PUSH2 0x14C6 DUP4 DUP4 PUSH1 0x14 PUSH1 0x0 PUSH1 0x40 MLOAD SWAP1 DUP1 DUP3 MSTORE DUP1 PUSH1 0x20 MUL PUSH1 0x20 ADD DUP3 ADD PUSH1 0x40 MSTORE DUP1 ISZERO PUSH2 0x14C0 JUMPI DUP2 PUSH1 0x20 ADD JUMPDEST PUSH1 0x40 DUP1 MLOAD DUP1 DUP3 ADD SWAP1 SWAP2 MSTORE PUSH1 0x0 DUP1 DUP3 MSTORE PUSH1 0x20 DUP3 ADD MSTORE DUP2 MSTORE PUSH1 0x20 ADD SWAP1 PUSH1 0x1 SWAP1 SUB SWAP1 DUP2 PUSH2 0x1499 JUMPI SWAP1 POP JUMPDEST POP PUSH2 0x20C9 JUMP JUMPDEST SWAP4 SWAP3 POP POP POP JUMP JUMPDEST PUSH1 0x0 DUP1 DUP1 DUP1 DUP1 DUP1 DUP1 DUP1 JUMPDEST DUP9 MLOAD DUP2 LT ISZERO PUSH2 0x1666 JUMPI PUSH8 0xDE0B6B3A7640000 DUP1 DUP1 PUSH1 0x0 JUMPDEST DUP13 DUP6 DUP2 MLOAD DUP2 LT PUSH2 0x1500 JUMPI PUSH2 0x1500 PUSH2 0x326B JUMP JUMPDEST PUSH1 0x20 MUL PUSH1 0x20 ADD ADD MLOAD MLOAD DUP2 LT ISZERO PUSH2 0x15FE JUMPI PUSH1 0x0 DUP14 DUP7 DUP2 MLOAD DUP2 LT PUSH2 0x1524 JUMPI PUSH2 0x1524 PUSH2 0x326B JUMP JUMPDEST PUSH1 0x20 MUL PUSH1 0x20 ADD ADD MLOAD DUP3 DUP2 MLOAD DUP2 LT PUSH2 0x153D JUMPI PUSH2 0x153D PUSH2 0x326B JUMP JUMPDEST PUSH1 0x20 MUL PUSH1 0x20 ADD ADD MLOAD SWAP1 POP PUSH1 0x0 DUP1 PUSH1 0x0 PUSH2 0x155E DUP5 PUSH1 0x0 ADD MLOAD DUP6 PUSH1 0x20 ADD MLOAD PUSH2 0x7D1 JUMP JUMPDEST SWAP3 POP SWAP3 POP SWAP3 POP DUP2 PUSH1 0x0 EQ ISZERO PUSH2 0x158A JUMPI PUSH1 0x0 DUP1 PUSH1 0x0 SWAP16 POP SWAP16 POP SWAP16 POP POP POP POP POP POP POP POP POP POP POP POP POP POP PUSH2 0x167D JUMP JUMPDEST PUSH8 0xDE0B6B3A7640000 PUSH2 0x159D DUP10 DUP6 PUSH2 0x3236 JUMP JUMPDEST PUSH2 0x15A7 SWAP2 SWAP1 PUSH2 0x3214 JUMP JUMPDEST SWAP8 POP PUSH8 0xDE0B6B3A7640000 PUSH2 0x15BC DUP9 DUP5 PUSH2 0x3236 JUMP JUMPDEST PUSH2 0x15C6 SWAP2 SWAP1 PUSH2 0x3214 JUMP JUMPDEST SWAP7 POP PUSH8 0xDE0B6B3A7640000 PUSH2 0x15DB DUP8 DUP4 PUSH2 0x3236 JUMP JUMPDEST PUSH2 0x15E5 SWAP2 SWAP1 PUSH2 0x3214 JUMP JUMPDEST SWAP6 POP POP POP POP POP DUP1 DUP1 PUSH2 0x15F6 SWAP1 PUSH2 0x3281 JUMP JUMPDEST SWAP2 POP POP PUSH2 0x14EE JUMP JUMPDEST POP DUP8 ISZERO DUP1 PUSH2 0x160B JUMPI POP DUP3 DUP9 GT JUMPDEST ISZERO PUSH2 0x1614 JUMPI DUP3 SWAP8 POP JUMPDEST DUP5 ISZERO DUP1 PUSH2 0x1620 JUMPI POP DUP1 DUP6 LT JUMPDEST ISZERO PUSH2 0x1629 JUMPI DUP1 SWAP5 POP JUMPDEST DUP6 PUSH2 0x1636 JUMPI DUP2 SWAP7 POP PUSH2 0x1643 JUMP JUMPDEST PUSH2 0x1640 DUP3 DUP9 PUSH2 0x329C JUMP JUMPDEST SWAP7 POP JUMPDEST DUP6 PUSH2 0x164D DUP2 PUSH2 0x3281 JUMP JUMPDEST SWAP7 POP POP POP POP POP DUP1 DUP1 PUSH2 0x165E SWAP1 PUSH2 0x3281 JUMP JUMPDEST SWAP2 POP POP PUSH2 0x14D7 JUMP JUMPDEST POP PUSH2 0x1671 DUP3 DUP5 PUSH2 0x3214 JUMP JUMPDEST SWAP4 SWAP7 POP SWAP3 SWAP5 POP SWAP2 SWAP3 POP POP POP JUMPDEST SWAP2 SWAP4 SWAP1 SWAP3 POP JUMP JUMPDEST PUSH1 0x0 DUP1 SLOAD PUSH1 0xFF AND DUP1 PUSH2 0x169D JUMPI POP PUSH1 0x0 SLOAD PUSH2 0x100 SWAP1 DIV PUSH1 0xFF AND JUMPDEST SWAP1 POP SWAP1 JUMP JUMPDEST PUSH2 0x16AA PUSH2 0x518 JUMP JUMPDEST PUSH2 0x16B2 PUSH2 0x2B5B JUMP JUMPDEST DUP1 MLOAD PUSH1 0x1 PUSH1 0x1 PUSH1 0xA0 SHL SUB DUP6 DUP2 AND SWAP1 SWAP2 MSTORE DUP2 MLOAD SWAP1 DUP5 AND PUSH1 0x20 SWAP2 DUP3 ADD MSTORE PUSH1 0x1 SWAP1 DUP3 ADD MSTORE PUSH2 0x16DC DUP3 PUSH2 0xCAC JUMP JUMPDEST PUSH1 0x1 PUSH1 0x1 PUSH1 0x40 SHL SUB AND PUSH1 0x80 DUP3 ADD DUP2 SWAP1 MSTORE PUSH1 0x60 DUP3 ADD DUP2 SWAP1 MSTORE PUSH1 0x40 DUP3 ADD MSTORE PUSH2 0x1701 DUP2 PUSH2 0x18EF JUMP JUMPDEST POP POP POP POP JUMP JUMPDEST PUSH1 0x0 PUSH8 0xDE0B6B3A7640000 PUSH2 0x171C DUP4 DUP6 PUSH2 0x3236 JUMP JUMPDEST PUSH2 0x14C6 SWAP2 SWAP1 PUSH2 0x3214 JUMP JUMPDEST PUSH1 0x0 PUSH2 0x72D PUSH1 0x1 PUSH1 0x1 PUSH1 0x40 SHL SUB DUP4 AND PUSH5 0x2540BE400 PUSH2 0x3236 JUMP JUMPDEST PUSH2 0x1748 PUSH2 0x518 JUMP JUMPDEST PUSH1 0x0 DUP4 DUP4 PUSH1 0x40 MLOAD PUSH1 0x20 ADD PUSH2 0x175D SWAP3 SWAP2 SWAP1 PUSH2 0x31D7 JUMP JUMPDEST PUSH1 0x40 DUP1 MLOAD DUP1 DUP4 SUB PUSH1 0x1F NOT ADD DUP2 MSTORE SWAP2 DUP2 MSTORE DUP2 MLOAD PUSH1 0x20 SWAP3 DUP4 ADD KECCAK256 PUSH1 0x0 DUP2 DUP2 MSTORE PUSH1 0x3 SWAP1 SWAP4 MSTORE SWAP2 KECCAK256 DUP1 SLOAD PUSH1 0x1 PUSH1 0x1 PUSH1 0xA0 SHL SUB NOT AND PUSH1 0x1 PUSH1 0x1 PUSH1 0xA0 SHL SUB DUP6 AND OR SWAP1 SSTORE SWAP1 POP DUP2 PUSH2 0x17A5 PUSH2 0x2B5B JUMP JUMPDEST DUP1 MLOAD PUSH1 0x1 PUSH1 0x1 PUSH1 0xA0 SHL SUB DUP8 DUP2 AND SWAP1 SWAP2 MSTORE DUP2 MLOAD SWAP1 DUP7 AND PUSH1 0x20 SWAP2 DUP3 ADD MSTORE PUSH1 0x5 SWAP1 DUP3 ADD MSTORE PUSH1 0x0 DUP1 DUP1 PUSH2 0x17D3 DUP5 PUSH2 0x1D84 JUMP JUMPDEST SWAP3 POP SWAP3 POP SWAP3 POP PUSH2 0x17E2 DUP4 PUSH2 0xCAC JUMP JUMPDEST PUSH1 0x1 PUSH1 0x1 PUSH1 0x40 SHL SUB AND PUSH1 0x40 DUP6 ADD MSTORE PUSH2 0x17F9 DUP3 PUSH2 0xCAC JUMP JUMPDEST PUSH1 0x1 PUSH1 0x1 PUSH1 0x40 SHL SUB AND PUSH1 0x60 DUP6 ADD MSTORE PUSH2 0x1810 DUP2 PUSH2 0xCAC JUMP JUMPDEST PUSH1 0x1 PUSH1 0x1 PUSH1 0x40 SHL SUB AND PUSH1 0x80 DUP6 ADD MSTORE PUSH2 0x1827 DUP5 PUSH2 0x18EF JUMP JUMPDEST POP POP POP POP POP POP POP POP POP JUMP JUMPDEST PUSH2 0x183A PUSH2 0x200D JUMP JUMPDEST PUSH2 0x6E0 PUSH1 0x0 DUP1 SLOAD PUSH2 0xFF00 NOT AND PUSH2 0x100 OR SWAP1 SSTORE JUMP JUMPDEST PUSH1 0x0 PUSH2 0x72D PUSH4 0xFFFFFFFF DUP4 AND PUSH5 0xE8D4A51000 PUSH2 0x3236 JUMP JUMPDEST PUSH2 0x186D PUSH2 0x200D JUMP JUMPDEST PUSH1 0x1 PUSH1 0x1 PUSH1 0xA0 SHL SUB DUP2 AND PUSH2 0x18D2 JUMPI PUSH1 0x40 MLOAD PUSH3 0x461BCD PUSH1 0xE5 SHL DUP2 MSTORE PUSH1 0x20 PUSH1 0x4 DUP3 ADD MSTORE PUSH1 0x26 PUSH1 0x24 DUP3 ADD MSTORE PUSH32 0x4F776E61626C653A206E6577206F776E657220697320746865207A65726F2061 PUSH1 0x44 DUP3 ADD MSTORE PUSH6 0x646472657373 PUSH1 0xD0 SHL PUSH1 0x64 DUP3 ADD MSTORE PUSH1 0x84 ADD PUSH2 0x6D7 JUMP JUMPDEST PUSH2 0x18DB DUP2 PUSH2 0x206E JUMP JUMPDEST POP JUMP JUMPDEST PUSH1 0x0 PUSH2 0x72D PUSH5 0x174876E800 DUP4 PUSH2 0x3214 JUMP JUMPDEST DUP1 MLOAD DUP1 MLOAD PUSH1 0x20 SWAP2 DUP3 ADD MLOAD PUSH1 0x40 MLOAD PUSH1 0x0 SWAP4 PUSH2 0x190B SWAP4 SWAP3 SWAP2 ADD PUSH2 0x31D7 JUMP JUMPDEST PUSH1 0x40 DUP1 MLOAD PUSH1 0x1F NOT DUP2 DUP5 SUB ADD DUP2 MSTORE DUP3 DUP3 MSTORE DUP1 MLOAD PUSH1 0x20 SWAP2 DUP3 ADD KECCAK256 PUSH1 0x0 DUP2 DUP2 MSTORE PUSH1 0x1 DUP1 DUP5 MSTORE DUP5 DUP3 KECCAK256 PUSH2 0x100 DUP8 ADD SWAP1 SWAP6 MSTORE DUP5 SLOAD PUSH1 0x1 PUSH1 0x1 PUSH1 0xA0 SHL SUB SWAP1 DUP2 AND PUSH1 0xC0 DUP9 ADD SWAP1 DUP2 MSTORE SWAP2 DUP7 ADD SLOAD AND PUSH1 0xE0 DUP8 ADD MSTORE DUP6 MSTORE PUSH1 0x2 DUP5 ADD SLOAD SWAP2 SWAP6 POP SWAP4 SWAP3 SWAP2 DUP4 ADD SWAP1 PUSH1 0xFF AND PUSH1 0x5 DUP2 GT ISZERO PUSH2 0x197A JUMPI PUSH2 0x197A PUSH2 0x31C1 JUMP JUMPDEST PUSH1 0x5 DUP2 GT ISZERO PUSH2 0x198B JUMPI PUSH2 0x198B PUSH2 0x31C1 JUMP JUMPDEST DUP2 MSTORE PUSH1 0x2 SWAP2 SWAP1 SWAP2 ADD SLOAD PUSH2 0x100 DUP2 DIV PUSH1 0x1 PUSH1 0x1 PUSH1 0x40 SHL SUB SWAP1 DUP2 AND PUSH1 0x20 DUP1 DUP6 ADD SWAP2 SWAP1 SWAP2 MSTORE PUSH1 0x1 PUSH1 0x48 SHL DUP4 DIV DUP3 AND PUSH1 0x40 DUP6 ADD MSTORE PUSH1 0x1 PUSH1 0x88 SHL DUP4 DIV SWAP1 SWAP2 AND PUSH1 0x60 DUP5 ADD MSTORE PUSH1 0x1 PUSH1 0xC8 SHL SWAP1 SWAP2 DIV PUSH1 0xE0 SHL PUSH1 0x1 PUSH1 0x1 PUSH1 0xE0 SHL SUB NOT AND PUSH1 0x80 SWAP1 SWAP3 ADD SWAP2 SWAP1 SWAP2 MSTORE DUP5 ADD MLOAD SWAP1 SWAP2 POP PUSH1 0x5 DUP2 GT ISZERO PUSH2 0x19FF JUMPI PUSH2 0x19FF PUSH2 0x31C1 JUMP JUMPDEST DUP2 PUSH1 0x20 ADD MLOAD PUSH1 0x5 DUP2 GT ISZERO PUSH2 0x1A15 JUMPI PUSH2 0x1A15 PUSH2 0x31C1 JUMP JUMPDEST EQ PUSH2 0x1BC7 JUMPI DUP3 MLOAD DUP1 MLOAD PUSH1 0x20 SWAP1 SWAP2 ADD MLOAD PUSH2 0x1A2E SWAP2 SWAP1 PUSH2 0x2853 JUMP JUMPDEST DUP3 MLOAD MLOAD DUP2 MLOAD PUSH1 0x1 PUSH1 0x1 PUSH1 0xA0 SHL SUB SWAP2 DUP3 AND SWAP1 MSTORE DUP4 MLOAD PUSH1 0x20 SWAP1 DUP2 ADD MLOAD DUP4 MLOAD SWAP3 AND SWAP2 DUP2 ADD SWAP2 SWAP1 SWAP2 MSTORE DUP1 DUP5 ADD MLOAD SWAP1 DUP3 ADD SWAP1 PUSH1 0x5 DUP2 GT ISZERO PUSH2 0x1A6C JUMPI PUSH2 0x1A6C PUSH2 0x31C1 JUMP JUMPDEST SWAP1 DUP2 PUSH1 0x5 DUP2 GT ISZERO PUSH2 0x1A7F JUMPI PUSH2 0x1A7F PUSH2 0x31C1 JUMP JUMPDEST SWAP1 MSTORE POP DUP3 MLOAD MLOAD PUSH1 0x1 PUSH1 0x1 PUSH1 0xA0 SHL SUB SWAP1 DUP2 AND PUSH1 0x0 SWAP1 DUP2 MSTORE PUSH1 0x2 PUSH1 0x20 SWAP1 DUP2 MSTORE PUSH1 0x40 SWAP2 DUP3 SWAP1 KECCAK256 DUP7 MLOAD SWAP1 SWAP2 ADD MLOAD SWAP2 MLOAD PUSH4 0x16F4B929 PUSH1 0xE2 SHL DUP2 MSTORE PUSH1 0x4 DUP2 ADD SWAP2 SWAP1 SWAP2 MSTORE SWAP2 AND PUSH1 0x24 DUP3 ADD MSTORE PUSH20 0x0 SWAP1 PUSH4 0x5BD2E4A4 SWAP1 PUSH1 0x44 ADD PUSH1 0x20 PUSH1 0x40 MLOAD DUP1 DUP4 SUB DUP2 DUP7 GAS DELEGATECALL ISZERO DUP1 ISZERO PUSH2 0x1AFF JUMPI RETURNDATASIZE PUSH1 0x0 DUP1 RETURNDATACOPY RETURNDATASIZE PUSH1 0x0 REVERT JUMPDEST POP POP POP POP PUSH1 0x40 MLOAD RETURNDATASIZE PUSH1 0x1F NOT PUSH1 0x1F DUP3 ADD AND DUP3 ADD DUP1 PUSH1 0x40 MSTORE POP DUP2 ADD SWAP1 PUSH2 0x1B23 SWAP2 SWAP1 PUSH2 0x319F JUMP JUMPDEST POP DUP3 MLOAD PUSH1 0x20 SWAP1 DUP2 ADD MLOAD PUSH1 0x1 PUSH1 0x1 PUSH1 0xA0 SHL SUB SWAP1 DUP2 AND PUSH1 0x0 SWAP1 DUP2 MSTORE PUSH1 0x2 SWAP1 SWAP3 MSTORE PUSH1 0x40 SWAP2 DUP3 SWAP1 KECCAK256 DUP6 MLOAD MLOAD SWAP3 MLOAD PUSH4 0x16F4B929 PUSH1 0xE2 SHL DUP2 MSTORE PUSH1 0x4 DUP2 ADD SWAP2 SWAP1 SWAP2 MSTORE SWAP2 AND PUSH1 0x24 DUP3 ADD MSTORE PUSH20 0x0 SWAP1 PUSH4 0x5BD2E4A4 SWAP1 PUSH1 0x44 ADD PUSH1 0x20 PUSH1 0x40 MLOAD DUP1 DUP4 SUB DUP2 DUP7 GAS DELEGATECALL ISZERO DUP1 ISZERO PUSH2 0x1BA1 JUMPI RETURNDATASIZE PUSH1 0x0 DUP1 RETURNDATACOPY RETURNDATASIZE PUSH1 0x0 REVERT JUMPDEST POP POP POP POP PUSH1 0x40 MLOAD RETURNDATASIZE PUSH1 0x1F NOT PUSH1 0x1F DUP3 ADD AND DUP3 ADD DUP1 PUSH1 0x40 MSTORE POP DUP2 ADD SWAP1 PUSH2 0x1BC5 SWAP2 SWAP1 PUSH2 0x319F JUMP JUMPDEST POP JUMPDEST PUSH1 0x1 PUSH1 0x1 PUSH1 0xE0 SHL SUB NOT NUMBER AND PUSH1 0xA0 DUP3 ADD MSTORE PUSH1 0x40 DUP1 DUP5 ADD MLOAD SWAP1 DUP3 ADD MLOAD PUSH1 0x1 PUSH1 0x1 PUSH1 0x40 SHL SUB SWAP1 DUP2 AND SWAP2 AND EQ DUP1 ISZERO PUSH2 0x1C14 JUMPI POP DUP3 PUSH1 0x60 ADD MLOAD PUSH1 0x1 PUSH1 0x1 PUSH1 0x40 SHL SUB AND DUP2 PUSH1 0x60 ADD MLOAD PUSH1 0x1 PUSH1 0x1 PUSH1 0x40 SHL SUB AND EQ JUMPDEST DUP1 ISZERO PUSH2 0x1C39 JUMPI POP DUP3 PUSH1 0x80 ADD MLOAD PUSH1 0x1 PUSH1 0x1 PUSH1 0x40 SHL SUB AND DUP2 PUSH1 0x80 ADD MLOAD PUSH1 0x1 PUSH1 0x1 PUSH1 0x40 SHL SUB AND EQ JUMPDEST ISZERO PUSH2 0x1C43 JUMPI POP POP POP JUMP JUMPDEST PUSH1 0x40 DUP4 DUP2 ADD MLOAD PUSH1 0x1 PUSH1 0x1 PUSH1 0x40 SHL SUB SWAP1 DUP2 AND DUP4 DUP4 ADD MSTORE PUSH1 0x60 DUP1 DUP7 ADD MLOAD DUP3 AND SWAP1 DUP5 ADD MSTORE PUSH1 0x80 DUP1 DUP7 ADD MLOAD SWAP1 SWAP2 AND SWAP1 DUP4 ADD MSTORE PUSH1 0x0 DUP4 DUP2 MSTORE PUSH1 0x1 PUSH1 0x20 DUP2 DUP2 MSTORE SWAP3 SWAP1 SWAP2 KECCAK256 DUP4 MLOAD DUP1 MLOAD DUP3 SLOAD PUSH1 0x1 PUSH1 0x1 PUSH1 0xA0 SHL SUB NOT SWAP1 DUP2 AND PUSH1 0x1 PUSH1 0x1 PUSH1 0xA0 SHL SUB SWAP3 DUP4 AND OR DUP5 SSTORE SWAP2 DUP6 ADD MLOAD DUP4 DUP6 ADD DUP1 SLOAD SWAP1 SWAP4 AND SWAP2 AND OR SWAP1 SSTORE SWAP2 DUP4 ADD MLOAD PUSH1 0x2 DUP4 ADD DUP1 SLOAD DUP6 SWAP5 SWAP4 PUSH1 0xFF NOT SWAP1 SWAP2 AND SWAP1 DUP4 PUSH1 0x5 DUP2 GT ISZERO PUSH2 0x1CD8 JUMPI PUSH2 0x1CD8 PUSH2 0x31C1 JUMP JUMPDEST MUL OR SWAP1 SSTORE POP PUSH1 0x40 DUP3 ADD MLOAD PUSH1 0x2 SWAP1 SWAP2 ADD DUP1 SLOAD PUSH1 0x60 DUP5 ADD MLOAD PUSH1 0x80 DUP6 ADD MLOAD PUSH1 0xA0 SWAP1 SWAP6 ADD MLOAD PUSH1 0xE0 SHR PUSH1 0x1 PUSH1 0xC8 SHL MUL PUSH4 0xFFFFFFFF PUSH1 0xC8 SHL NOT PUSH1 0x1 PUSH1 0x1 PUSH1 0x40 SHL SUB SWAP7 DUP8 AND PUSH1 0x1 PUSH1 0x88 SHL MUL AND PUSH12 0xFFFFFFFFFFFFFFFFFFFFFFFF PUSH1 0x88 SHL NOT SWAP3 DUP8 AND PUSH1 0x1 PUSH1 0x48 SHL MUL PUSH17 0xFFFFFFFFFFFFFFFF000000000000000000 NOT SWAP8 SWAP1 SWAP7 AND PUSH2 0x100 MUL SWAP7 SWAP1 SWAP7 AND PUSH17 0xFFFFFFFFFFFFFFFFFFFFFFFFFFFFFFFF00 NOT SWAP1 SWAP4 AND SWAP3 SWAP1 SWAP3 OR SWAP4 SWAP1 SWAP4 OR SWAP3 SWAP1 SWAP3 AND SWAP3 SWAP1 SWAP3 OR OR SWAP1 SSTORE POP POP POP JUMP JUMPDEST DUP1 MLOAD DUP1 MLOAD PUSH1 0x20 SWAP2 DUP3 ADD MLOAD PUSH1 0x40 MLOAD PUSH1 0x0 SWAP4 DUP5 SWAP4 DUP5 SWAP4 DUP5 SWAP4 PUSH2 0x1DA4 SWAP4 ADD PUSH2 0x31D7 JUMP JUMPDEST PUSH1 0x40 DUP1 MLOAD PUSH1 0x1F NOT DUP2 DUP5 SUB ADD DUP2 MSTORE DUP3 DUP3 MSTORE DUP1 MLOAD PUSH1 0x20 SWAP2 DUP3 ADD KECCAK256 PUSH1 0x0 DUP2 DUP2 MSTORE PUSH1 0x3 SWAP1 SWAP3 MSTORE DUP3 DUP3 KECCAK256 SLOAD PUSH4 0x3FABE5A3 PUSH1 0xE2 SHL DUP6 MSTORE SWAP3 MLOAD SWAP1 SWAP5 POP SWAP1 SWAP3 PUSH1 0x1 PUSH1 0x1 PUSH1 0xA0 SHL SUB SWAP1 SWAP3 AND SWAP2 PUSH4 0xFEAF968C SWAP2 PUSH1 0x4 DUP1 DUP4 ADD SWAP3 PUSH1 0xA0 SWAP3 SWAP2 SWAP1 DUP3 SWAP1 SUB ADD DUP2 DUP7 GAS STATICCALL ISZERO DUP1 ISZERO PUSH2 0x1E11 JUMPI RETURNDATASIZE PUSH1 0x0 DUP1 RETURNDATACOPY RETURNDATASIZE PUSH1 0x0 REVERT JUMPDEST POP POP POP POP PUSH1 0x40 MLOAD RETURNDATASIZE PUSH1 0x1F NOT PUSH1 0x1F DUP3 ADD AND DUP3 ADD DUP1 PUSH1 0x40 MSTORE POP DUP2 ADD SWAP1 PUSH2 0x1E35 SWAP2 SWAP1 PUSH2 0x32CE JUMP JUMPDEST POP POP POP SWAP2 POP POP PUSH1 0x0 DUP2 SGT PUSH2 0x1E8B JUMPI PUSH1 0x40 MLOAD PUSH3 0x461BCD PUSH1 0xE5 SHL DUP2 MSTORE PUSH1 0x20 PUSH1 0x4 DUP3 ADD DUP2 SWAP1 MSTORE PUSH1 0x24 DUP3 ADD MSTORE PUSH32 0x436861696E6C696E6B2071756F7465206D75737420626520706F736974697665 PUSH1 0x44 DUP3 ADD MSTORE PUSH1 0x64 ADD PUSH2 0x6D7 JUMP JUMPDEST PUSH1 0x0 DUP3 DUP2 MSTORE PUSH1 0x3 PUSH1 0x20 SWAP1 DUP2 MSTORE PUSH1 0x40 SWAP2 DUP3 SWAP1 KECCAK256 SLOAD DUP3 MLOAD PUSH4 0x313CE567 PUSH1 0xE0 SHL DUP2 MSTORE SWAP3 MLOAD DUP5 SWAP4 PUSH1 0x1 PUSH1 0x1 PUSH1 0xA0 SHL SUB SWAP1 SWAP3 AND SWAP3 PUSH4 0x313CE567 SWAP3 PUSH1 0x4 DUP1 DUP3 ADD SWAP4 SWAP2 DUP3 SWAP1 SUB ADD DUP2 DUP7 GAS STATICCALL ISZERO DUP1 ISZERO PUSH2 0x1EE0 JUMPI RETURNDATASIZE PUSH1 0x0 DUP1 RETURNDATACOPY RETURNDATASIZE PUSH1 0x0 REVERT JUMPDEST POP POP POP POP PUSH1 0x40 MLOAD RETURNDATASIZE PUSH1 0x1F NOT PUSH1 0x1F DUP3 ADD AND DUP3 ADD DUP1 PUSH1 0x40 MSTORE POP DUP2 ADD SWAP1 PUSH2 0x1F04 SWAP2 SWAP1 PUSH2 0x331E JUMP JUMPDEST PUSH2 0x1F0F SWAP1 PUSH1 0xA PUSH2 0x3425 JUMP JUMPDEST PUSH2 0x1F21 SWAP1 PUSH8 0xDE0B6B3A7640000 PUSH2 0x3214 JUMP JUMPDEST PUSH2 0x1F2B SWAP1 DUP3 PUSH2 0x3236 JUMP JUMPDEST SWAP8 DUP9 SWAP8 POP DUP8 SWAP7 POP SWAP5 POP POP POP POP POP JUMP JUMPDEST PUSH1 0x0 DUP1 PUSH1 0x0 PUSH2 0x1F4C DUP5 PUSH1 0x40 ADD MLOAD PUSH2 0x1726 JUMP JUMPDEST PUSH2 0x1F59 DUP6 PUSH1 0x60 ADD MLOAD PUSH2 0x1726 JUMP JUMPDEST PUSH2 0x1F66 DUP7 PUSH1 0x80 ADD MLOAD PUSH2 0x1726 JUMP JUMPDEST SWAP3 POP SWAP3 POP SWAP3 POP SWAP2 SWAP4 SWAP1 SWAP3 POP JUMP JUMPDEST PUSH1 0x0 DUP1 PUSH1 0x0 NUMBER PUSH1 0x0 SHL PUSH1 0x1 PUSH1 0x1 PUSH1 0xE0 SHL SUB NOT AND DUP5 PUSH1 0xA0 ADD MLOAD PUSH1 0x1 PUSH1 0x1 PUSH1 0xE0 SHL SUB NOT AND EQ PUSH2 0x2000 JUMPI PUSH1 0x0 DUP1 PUSH1 0x0 PUSH2 0x1FA8 DUP8 PUSH2 0x1D84 JUMP JUMPDEST SWAP3 POP SWAP3 POP SWAP3 POP PUSH2 0x1FB7 DUP4 PUSH2 0xCAC JUMP JUMPDEST PUSH1 0x1 PUSH1 0x1 PUSH1 0x40 SHL SUB AND PUSH1 0x40 DUP9 ADD MSTORE PUSH2 0x1FCE DUP3 PUSH2 0xCAC JUMP JUMPDEST PUSH1 0x1 PUSH1 0x1 PUSH1 0x40 SHL SUB AND PUSH1 0x60 DUP9 ADD MSTORE PUSH2 0x1FE5 DUP2 PUSH2 0xCAC JUMP JUMPDEST PUSH1 0x1 PUSH1 0x1 PUSH1 0x40 SHL SUB AND PUSH1 0x80 DUP9 ADD MSTORE PUSH2 0x1FFC DUP8 PUSH2 0x18EF JUMP JUMPDEST POP POP POP JUMPDEST PUSH2 0x1F4C DUP5 PUSH1 0x40 ADD MLOAD PUSH2 0x1726 JUMP JUMPDEST PUSH1 0x0 SLOAD PUSH1 0x1 PUSH1 0x1 PUSH1 0xA0 SHL SUB PUSH3 0x10000 SWAP1 SWAP2 DIV AND CALLER EQ PUSH2 0x6E0 JUMPI PUSH1 0x40 MLOAD PUSH3 0x461BCD PUSH1 0xE5 SHL DUP2 MSTORE PUSH1 0x20 PUSH1 0x4 DUP3 ADD MSTORE PUSH1 0x1F PUSH1 0x24 DUP3 ADD MSTORE PUSH32 0x416C6C6F77616E63653A2063616C6C6572206D757374206265204F776E657200 PUSH1 0x44 DUP3 ADD MSTORE PUSH1 0x64 ADD PUSH2 0x6D7 JUMP JUMPDEST PUSH1 0x0 DUP1 SLOAD PUSH1 0x1 PUSH1 0x1 PUSH1 0xA0 SHL SUB DUP4 DUP2 AND PUSH3 0x10000 DUP2 DUP2 MUL PUSH3 0x10000 PUSH1 0x1 PUSH1 0xB0 SHL SUB NOT DUP6 AND OR DUP6 SSTORE PUSH1 0x40 MLOAD SWAP4 DIV SWAP2 SWAP1 SWAP2 AND SWAP3 SWAP1 SWAP2 DUP4 SWAP2 PUSH32 0x8BE0079C531659141344CD1FD0A4F28419497F9722A3DAAFE3B4186F6B6457E0 SWAP2 LOG3 POP POP JUMP JUMPDEST PUSH1 0x1 PUSH1 0x1 PUSH1 0xA0 SHL SUB DUP5 AND PUSH1 0x0 SWAP1 DUP2 MSTORE PUSH1 0x2 PUSH1 0x20 SWAP1 DUP2 MSTORE PUSH1 0x40 DUP1 DUP4 KECCAK256 DUP1 SLOAD DUP3 MLOAD DUP2 DUP6 MUL DUP2 ADD DUP6 ADD SWAP1 SWAP4 MSTORE DUP1 DUP4 MSTORE PUSH1 0x60 SWAP5 SWAP4 DUP4 ADD DUP3 DUP3 DUP1 ISZERO PUSH2 0x2132 JUMPI PUSH1 0x20 MUL DUP3 ADD SWAP2 SWAP1 PUSH1 0x0 MSTORE PUSH1 0x20 PUSH1 0x0 KECCAK256 SWAP1 JUMPDEST DUP2 SLOAD PUSH1 0x1 PUSH1 0x1 PUSH1 0xA0 SHL SUB AND DUP2 MSTORE PUSH1 0x1 SWAP1 SWAP2 ADD SWAP1 PUSH1 0x20 ADD DUP1 DUP4 GT PUSH2 0x2114 JUMPI JUMPDEST POP SWAP4 SWAP5 POP PUSH1 0x0 SWAP4 POP PUSH2 0x2143 SWAP3 POP POP POP JUMP JUMPDEST PUSH1 0x40 MLOAD SWAP1 DUP1 DUP3 MSTORE DUP1 PUSH1 0x20 MUL PUSH1 0x20 ADD DUP3 ADD PUSH1 0x40 MSTORE DUP1 ISZERO PUSH2 0x2176 JUMPI DUP2 PUSH1 0x20 ADD JUMPDEST PUSH1 0x60 DUP2 MSTORE PUSH1 0x20 ADD SWAP1 PUSH1 0x1 SWAP1 SUB SWAP1 DUP2 PUSH2 0x2161 JUMPI SWAP1 POP JUMPDEST POP SWAP2 POP PUSH1 0x0 JUMPDEST DUP2 MLOAD DUP2 LT ISZERO PUSH2 0x2849 JUMPI PUSH1 0x0 JUMPDEST DUP5 MLOAD DUP2 LT ISZERO PUSH2 0x22BD JUMPI DUP8 PUSH1 0x1 PUSH1 0x1 PUSH1 0xA0 SHL SUB AND DUP6 DUP3 DUP2 MLOAD DUP2 LT PUSH2 0x21AD JUMPI PUSH2 0x21AD PUSH2 0x326B JUMP JUMPDEST PUSH1 0x20 MUL PUSH1 0x20 ADD ADD MLOAD PUSH1 0x0 ADD MLOAD PUSH1 0x1 PUSH1 0x1 PUSH1 0xA0 SHL SUB AND EQ DUP1 ISZERO PUSH2 0x2216 JUMPI POP DUP3 DUP3 DUP2 MLOAD DUP2 LT PUSH2 0x21DC JUMPI PUSH2 0x21DC PUSH2 0x326B JUMP JUMPDEST PUSH1 0x20 MUL PUSH1 0x20 ADD ADD MLOAD PUSH1 0x1 PUSH1 0x1 PUSH1 0xA0 SHL SUB AND DUP6 DUP3 DUP2 MLOAD DUP2 LT PUSH2 0x21FF JUMPI PUSH2 0x21FF PUSH2 0x326B JUMP JUMPDEST PUSH1 0x20 MUL PUSH1 0x20 ADD ADD MLOAD PUSH1 0x20 ADD MLOAD PUSH1 0x1 PUSH1 0x1 PUSH1 0xA0 SHL SUB AND EQ JUMPDEST DUP1 PUSH2 0x22A1 JUMPI POP DUP8 PUSH1 0x1 PUSH1 0x1 PUSH1 0xA0 SHL SUB AND DUP6 DUP3 DUP2 MLOAD DUP2 LT PUSH2 0x2238 JUMPI PUSH2 0x2238 PUSH2 0x326B JUMP JUMPDEST PUSH1 0x20 MUL PUSH1 0x20 ADD ADD MLOAD PUSH1 0x20 ADD MLOAD PUSH1 0x1 PUSH1 0x1 PUSH1 0xA0 SHL SUB AND EQ DUP1 ISZERO PUSH2 0x22A1 JUMPI POP DUP3 DUP3 DUP2 MLOAD DUP2 LT PUSH2 0x2267 JUMPI PUSH2 0x2267 PUSH2 0x326B JUMP JUMPDEST PUSH1 0x20 MUL PUSH1 0x20 ADD ADD MLOAD PUSH1 0x1 PUSH1 0x1 PUSH1 0xA0 SHL SUB AND DUP6 DUP3 DUP2 MLOAD DUP2 LT PUSH2 0x228A JUMPI PUSH2 0x228A PUSH2 0x326B JUMP JUMPDEST PUSH1 0x20 MUL PUSH1 0x20 ADD ADD MLOAD PUSH1 0x0 ADD MLOAD PUSH1 0x1 PUSH1 0x1 PUSH1 0xA0 SHL SUB AND EQ JUMPDEST ISZERO PUSH2 0x22AB JUMPI PUSH2 0x22BD JUMP JUMPDEST DUP1 PUSH2 0x22B5 DUP2 PUSH2 0x3281 JUMP JUMPDEST SWAP2 POP POP PUSH2 0x2188 JUMP JUMPDEST DUP5 MLOAD DUP2 LT ISZERO PUSH2 0x22CC JUMPI POP PUSH2 0x2837 JUMP JUMPDEST DUP7 PUSH1 0x1 PUSH1 0x1 PUSH1 0xA0 SHL SUB AND DUP4 DUP4 DUP2 MLOAD DUP2 LT PUSH2 0x22E8 JUMPI PUSH2 0x22E8 PUSH2 0x326B JUMP JUMPDEST PUSH1 0x20 MUL PUSH1 0x20 ADD ADD MLOAD PUSH1 0x1 PUSH1 0x1 PUSH1 0xA0 SHL SUB AND EQ ISZERO PUSH2 0x258B JUMPI PUSH1 0x0 PUSH1 0x1 PUSH1 0x0 DUP11 DUP11 PUSH1 0x40 MLOAD PUSH1 0x20 ADD PUSH2 0x2318 SWAP3 SWAP2 SWAP1 PUSH2 0x31D7 JUMP JUMPDEST PUSH1 0x40 DUP1 MLOAD PUSH1 0x1F NOT DUP2 DUP5 SUB ADD DUP2 MSTORE SWAP2 DUP2 MSTORE DUP2 MLOAD PUSH1 0x20 SWAP3 DUP4 ADD KECCAK256 DUP4 MSTORE SWAP1 DUP3 ADD SWAP3 SWAP1 SWAP3 MSTORE ADD PUSH1 0x0 KECCAK256 SWAP1 POP PUSH1 0x3 PUSH1 0x2 DUP3 ADD SLOAD PUSH1 0xFF AND PUSH1 0x5 DUP2 GT ISZERO PUSH2 0x235A JUMPI PUSH2 0x235A PUSH2 0x31C1 JUMP JUMPDEST EQ ISZERO DUP1 ISZERO PUSH2 0x2381 JUMPI POP PUSH1 0x4 PUSH1 0x2 DUP3 ADD SLOAD PUSH1 0xFF AND PUSH1 0x5 DUP2 GT ISZERO PUSH2 0x237E JUMPI PUSH2 0x237E PUSH2 0x31C1 JUMP JUMPDEST EQ ISZERO JUMPDEST ISZERO PUSH2 0x2589 JUMPI PUSH1 0x0 DUP7 MLOAD PUSH1 0x1 PUSH2 0x2396 SWAP2 SWAP1 PUSH2 0x329C JUMP JUMPDEST PUSH1 0x1 PUSH1 0x1 PUSH1 0x40 SHL SUB DUP2 GT ISZERO PUSH2 0x23AD JUMPI PUSH2 0x23AD PUSH2 0x2CED JUMP JUMPDEST PUSH1 0x40 MLOAD SWAP1 DUP1 DUP3 MSTORE DUP1 PUSH1 0x20 MUL PUSH1 0x20 ADD DUP3 ADD PUSH1 0x40 MSTORE DUP1 ISZERO PUSH2 0x23F2 JUMPI DUP2 PUSH1 0x20 ADD JUMPDEST PUSH1 0x40 DUP1 MLOAD DUP1 DUP3 ADD SWAP1 SWAP2 MSTORE PUSH1 0x0 DUP1 DUP3 MSTORE PUSH1 0x20 DUP3 ADD MSTORE DUP2 MSTORE PUSH1 0x20 ADD SWAP1 PUSH1 0x1 SWAP1 SUB SWAP1 DUP2 PUSH2 0x23CB JUMPI SWAP1 POP JUMPDEST POP SWAP1 POP PUSH1 0x0 SWAP3 POP JUMPDEST DUP7 MLOAD DUP4 LT ISZERO PUSH2 0x244D JUMPI DUP7 DUP4 DUP2 MLOAD DUP2 LT PUSH2 0x2415 JUMPI PUSH2 0x2415 PUSH2 0x326B JUMP JUMPDEST PUSH1 0x20 MUL PUSH1 0x20 ADD ADD MLOAD DUP2 DUP5 DUP2 MLOAD DUP2 LT PUSH2 0x242F JUMPI PUSH2 0x242F PUSH2 0x326B JUMP JUMPDEST PUSH1 0x20 MUL PUSH1 0x20 ADD ADD DUP2 SWAP1 MSTORE POP DUP3 DUP1 PUSH2 0x2445 SWAP1 PUSH2 0x3281 JUMP JUMPDEST SWAP4 POP POP PUSH2 0x23FA JUMP JUMPDEST DUP10 DUP2 DUP5 DUP2 MLOAD DUP2 LT PUSH2 0x2460 JUMPI PUSH2 0x2460 PUSH2 0x326B JUMP JUMPDEST PUSH1 0x20 MUL PUSH1 0x20 ADD ADD MLOAD PUSH1 0x0 ADD SWAP1 PUSH1 0x1 PUSH1 0x1 PUSH1 0xA0 SHL SUB AND SWAP1 DUP2 PUSH1 0x1 PUSH1 0x1 PUSH1 0xA0 SHL SUB AND DUP2 MSTORE POP POP DUP9 DUP2 DUP5 DUP2 MLOAD DUP2 LT PUSH2 0x2497 JUMPI PUSH2 0x2497 PUSH2 0x326B JUMP JUMPDEST PUSH1 0x20 SWAP1 DUP2 MUL SWAP2 SWAP1 SWAP2 ADD DUP2 ADD MLOAD PUSH1 0x1 PUSH1 0x1 PUSH1 0xA0 SHL SUB SWAP1 SWAP3 AND SWAP2 ADD MSTORE DUP6 MLOAD PUSH1 0x0 SWAP1 PUSH2 0x24C1 SWAP1 PUSH1 0x1 PUSH2 0x329C JUMP JUMPDEST PUSH1 0x1 PUSH1 0x1 PUSH1 0x40 SHL SUB DUP2 GT ISZERO PUSH2 0x24D8 JUMPI PUSH2 0x24D8 PUSH2 0x2CED JUMP JUMPDEST PUSH1 0x40 MLOAD SWAP1 DUP1 DUP3 MSTORE DUP1 PUSH1 0x20 MUL PUSH1 0x20 ADD DUP3 ADD PUSH1 0x40 MSTORE DUP1 ISZERO PUSH2 0x250B JUMPI DUP2 PUSH1 0x20 ADD JUMPDEST PUSH1 0x60 DUP2 MSTORE PUSH1 0x20 ADD SWAP1 PUSH1 0x1 SWAP1 SUB SWAP1 DUP2 PUSH2 0x24F6 JUMPI SWAP1 POP JUMPDEST POP SWAP1 POP PUSH1 0x0 SWAP4 POP JUMPDEST DUP7 MLOAD DUP5 LT ISZERO PUSH2 0x2566 JUMPI DUP7 DUP5 DUP2 MLOAD DUP2 LT PUSH2 0x252E JUMPI PUSH2 0x252E PUSH2 0x326B JUMP JUMPDEST PUSH1 0x20 MUL PUSH1 0x20 ADD ADD MLOAD DUP2 DUP6 DUP2 MLOAD DUP2 LT PUSH2 0x2548 JUMPI PUSH2 0x2548 PUSH2 0x326B JUMP JUMPDEST PUSH1 0x20 MUL PUSH1 0x20 ADD ADD DUP2 SWAP1 MSTORE POP DUP4 DUP1 PUSH2 0x255E SWAP1 PUSH2 0x3281 JUMP JUMPDEST SWAP5 POP POP PUSH2 0x2513 JUMP JUMPDEST DUP2 DUP2 DUP9 MLOAD DUP2 MLOAD DUP2 LT PUSH2 0x257A JUMPI PUSH2 0x257A PUSH2 0x326B JUMP JUMPDEST PUSH1 0x20 SWAP1 DUP2 MUL SWAP2 SWAP1 SWAP2 ADD ADD MSTORE SWAP6 POP POP JUMPDEST POP JUMPDEST DUP6 PUSH2 0x2596 JUMPI POP PUSH2 0x2849 JUMP JUMPDEST PUSH1 0x0 DUP6 MLOAD PUSH1 0x1 PUSH2 0x25A6 SWAP2 SWAP1 PUSH2 0x329C JUMP JUMPDEST PUSH1 0x1 PUSH1 0x1 PUSH1 0x40 SHL SUB DUP2 GT ISZERO PUSH2 0x25BD JUMPI PUSH2 0x25BD PUSH2 0x2CED JUMP JUMPDEST PUSH1 0x40 MLOAD SWAP1 DUP1 DUP3 MSTORE DUP1 PUSH1 0x20 MUL PUSH1 0x20 ADD DUP3 ADD PUSH1 0x40 MSTORE DUP1 ISZERO PUSH2 0x2602 JUMPI DUP2 PUSH1 0x20 ADD JUMPDEST PUSH1 0x40 DUP1 MLOAD DUP1 DUP3 ADD SWAP1 SWAP2 MSTORE PUSH1 0x0 DUP1 DUP3 MSTORE PUSH1 0x20 DUP3 ADD MSTORE DUP2 MSTORE PUSH1 0x20 ADD SWAP1 PUSH1 0x1 SWAP1 SUB SWAP1 DUP2 PUSH2 0x25DB JUMPI SWAP1 POP JUMPDEST POP SWAP1 POP PUSH1 0x0 SWAP2 POP JUMPDEST DUP6 MLOAD DUP3 LT ISZERO PUSH2 0x265D JUMPI DUP6 DUP3 DUP2 MLOAD DUP2 LT PUSH2 0x2625 JUMPI PUSH2 0x2625 PUSH2 0x326B JUMP JUMPDEST PUSH1 0x20 MUL PUSH1 0x20 ADD ADD MLOAD DUP2 DUP4 DUP2 MLOAD DUP2 LT PUSH2 0x263F JUMPI PUSH2 0x263F PUSH2 0x326B JUMP JUMPDEST PUSH1 0x20 MUL PUSH1 0x20 ADD ADD DUP2 SWAP1 MSTORE POP DUP2 DUP1 PUSH2 0x2655 SWAP1 PUSH2 0x3281 JUMP JUMPDEST SWAP3 POP POP PUSH2 0x260A JUMP JUMPDEST DUP9 DUP2 DUP4 DUP2 MLOAD DUP2 LT PUSH2 0x2670 JUMPI PUSH2 0x2670 PUSH2 0x326B JUMP JUMPDEST PUSH1 0x20 SWAP1 DUP2 MUL SWAP2 SWAP1 SWAP2 ADD ADD MLOAD PUSH1 0x1 PUSH1 0x1 PUSH1 0xA0 SHL SUB SWAP1 SWAP2 AND SWAP1 MSTORE DUP4 MLOAD DUP5 SWAP1 DUP5 SWAP1 DUP2 LT PUSH2 0x269C JUMPI PUSH2 0x269C PUSH2 0x326B JUMP JUMPDEST PUSH1 0x20 MUL PUSH1 0x20 ADD ADD MLOAD DUP2 DUP4 DUP2 MLOAD DUP2 LT PUSH2 0x26B6 JUMPI PUSH2 0x26B6 PUSH2 0x326B JUMP JUMPDEST PUSH1 0x20 MUL PUSH1 0x20 ADD ADD MLOAD PUSH1 0x20 ADD SWAP1 PUSH1 0x1 PUSH1 0x1 PUSH1 0xA0 SHL SUB AND SWAP1 DUP2 PUSH1 0x1 PUSH1 0x1 PUSH1 0xA0 SHL SUB AND DUP2 MSTORE POP POP PUSH1 0x0 PUSH2 0x270D DUP6 DUP6 DUP2 MLOAD DUP2 LT PUSH2 0x26F1 JUMPI PUSH2 0x26F1 PUSH2 0x326B JUMP JUMPDEST PUSH1 0x20 MUL PUSH1 0x20 ADD ADD MLOAD DUP11 PUSH1 0x1 DUP12 PUSH2 0x2707 SWAP2 SWAP1 PUSH2 0x3434 JUMP JUMPDEST DUP6 PUSH2 0x20C9 JUMP JUMPDEST DUP1 MLOAD SWAP1 SWAP2 POP ISZERO PUSH2 0x2833 JUMPI PUSH1 0x0 DUP7 MLOAD DUP3 MLOAD PUSH2 0x2727 SWAP2 SWAP1 PUSH2 0x329C JUMP JUMPDEST PUSH1 0x1 PUSH1 0x1 PUSH1 0x40 SHL SUB DUP2 GT ISZERO PUSH2 0x273E JUMPI PUSH2 0x273E PUSH2 0x2CED JUMP JUMPDEST PUSH1 0x40 MLOAD SWAP1 DUP1 DUP3 MSTORE DUP1 PUSH1 0x20 MUL PUSH1 0x20 ADD DUP3 ADD PUSH1 0x40 MSTORE DUP1 ISZERO PUSH2 0x2771 JUMPI DUP2 PUSH1 0x20 ADD JUMPDEST PUSH1 0x60 DUP2 MSTORE PUSH1 0x20 ADD SWAP1 PUSH1 0x1 SWAP1 SUB SWAP1 DUP2 PUSH2 0x275C JUMPI SWAP1 POP JUMPDEST POP SWAP1 POP PUSH1 0x0 SWAP4 POP JUMPDEST DUP7 MLOAD DUP5 LT ISZERO PUSH2 0x27CC JUMPI DUP7 DUP5 DUP2 MLOAD DUP2 LT PUSH2 0x2794 JUMPI PUSH2 0x2794 PUSH2 0x326B JUMP JUMPDEST PUSH1 0x20 MUL PUSH1 0x20 ADD ADD MLOAD DUP2 DUP6 DUP2 MLOAD DUP2 LT PUSH2 0x27AE JUMPI PUSH2 0x27AE PUSH2 0x326B JUMP JUMPDEST PUSH1 0x20 MUL PUSH1 0x20 ADD ADD DUP2 SWAP1 MSTORE POP DUP4 DUP1 PUSH2 0x27C4 SWAP1 PUSH2 0x3281 JUMP JUMPDEST SWAP5 POP POP PUSH2 0x2779 JUMP JUMPDEST PUSH1 0x0 SWAP4 POP JUMPDEST DUP2 MLOAD DUP5 LT ISZERO PUSH2 0x2830 JUMPI DUP2 DUP5 DUP2 MLOAD DUP2 LT PUSH2 0x27EC JUMPI PUSH2 0x27EC PUSH2 0x326B JUMP JUMPDEST PUSH1 0x20 MUL PUSH1 0x20 ADD ADD MLOAD DUP2 DUP6 DUP10 MLOAD PUSH2 0x2802 SWAP2 SWAP1 PUSH2 0x329C JUMP JUMPDEST DUP2 MLOAD DUP2 LT PUSH2 0x2812 JUMPI PUSH2 0x2812 PUSH2 0x326B JUMP JUMPDEST PUSH1 0x20 MUL PUSH1 0x20 ADD ADD DUP2 SWAP1 MSTORE POP DUP4 DUP1 PUSH2 0x2828 SWAP1 PUSH2 0x3281 JUMP JUMPDEST SWAP5 POP POP PUSH2 0x27D1 JUMP JUMPDEST SWAP6 POP JUMPDEST POP POP POP JUMPDEST DUP1 PUSH2 0x2841 DUP2 PUSH2 0x3281 JUMP JUMPDEST SWAP2 POP POP PUSH2 0x217C JUMP JUMPDEST POP POP SWAP5 SWAP4 POP POP POP POP JUMP JUMPDEST PUSH1 0x0 DUP3 DUP3 PUSH1 0x40 MLOAD PUSH1 0x20 ADD PUSH2 0x2868 SWAP3 SWAP2 SWAP1 PUSH2 0x31D7 JUMP JUMPDEST PUSH1 0x40 DUP1 MLOAD PUSH1 0x1F NOT DUP2 DUP5 SUB ADD DUP2 MSTORE DUP3 DUP3 MSTORE DUP1 MLOAD PUSH1 0x20 SWAP2 DUP3 ADD KECCAK256 PUSH1 0x0 DUP2 DUP2 MSTORE PUSH1 0x1 DUP1 DUP5 MSTORE DUP5 DUP3 KECCAK256 PUSH2 0x100 DUP8 ADD SWAP1 SWAP6 MSTORE DUP5 SLOAD PUSH1 0x1 PUSH1 0x1 PUSH1 0xA0 SHL SUB SWAP1 DUP2 AND PUSH1 0xC0 DUP9 ADD SWAP1 DUP2 MSTORE SWAP2 DUP7 ADD SLOAD AND PUSH1 0xE0 DUP8 ADD MSTORE DUP6 MSTORE PUSH1 0x2 DUP5 ADD SLOAD SWAP2 SWAP6 POP SWAP4 SWAP3 SWAP2 DUP4 ADD SWAP1 PUSH1 0xFF AND PUSH1 0x5 DUP2 GT ISZERO PUSH2 0x28D7 JUMPI PUSH2 0x28D7 PUSH2 0x31C1 JUMP JUMPDEST PUSH1 0x5 DUP2 GT ISZERO PUSH2 0x28E8 JUMPI PUSH2 0x28E8 PUSH2 0x31C1 JUMP JUMPDEST DUP2 MSTORE PUSH1 0x2 SWAP2 SWAP1 SWAP2 ADD SLOAD PUSH1 0x1 PUSH1 0x1 PUSH1 0x40 SHL SUB PUSH2 0x100 DUP3 DIV DUP2 AND PUSH1 0x20 DUP5 ADD MSTORE PUSH1 0x1 PUSH1 0x48 SHL DUP3 DIV DUP2 AND PUSH1 0x40 DUP5 ADD MSTORE PUSH1 0x1 PUSH1 0x88 SHL DUP3 DIV AND PUSH1 0x60 DUP4 ADD MSTORE PUSH1 0x1 PUSH1 0x1 PUSH1 0xE0 SHL SUB NOT PUSH1 0x1 PUSH1 0xC8 SHL SWAP1 SWAP2 DIV PUSH1 0xE0 SHL AND PUSH1 0x80 SWAP1 SWAP2 ADD MSTORE SWAP1 POP PUSH1 0x0 DUP2 PUSH1 0x20 ADD MLOAD PUSH1 0x5 DUP2 GT ISZERO PUSH2 0x2955 JUMPI PUSH2 0x2955 PUSH2 0x31C1 JUMP JUMPDEST EQ ISZERO PUSH2 0x2961 JUMPI POP POP POP POP JUMP JUMPDEST PUSH1 0x5 DUP2 PUSH1 0x20 ADD MLOAD PUSH1 0x5 DUP2 GT ISZERO PUSH2 0x2979 JUMPI PUSH2 0x2979 PUSH2 0x31C1 JUMP JUMPDEST EQ ISZERO PUSH2 0x2989 JUMPI PUSH2 0x2989 DUP5 DUP5 PUSH2 0x2B0F JUMP JUMPDEST DUP1 MLOAD MLOAD PUSH1 0x1 PUSH1 0x1 PUSH1 0xA0 SHL SUB SWAP1 DUP2 AND PUSH1 0x0 SWAP1 DUP2 MSTORE PUSH1 0x2 PUSH1 0x20 SWAP1 DUP2 MSTORE PUSH1 0x40 SWAP2 DUP3 SWAP1 KECCAK256 DUP5 MLOAD SWAP1 SWAP2 ADD MLOAD SWAP2 MLOAD PUSH4 0xEDEFE12D PUSH1 0xE0 SHL DUP2 MSTORE PUSH1 0x4 DUP2 ADD SWAP2 SWAP1 SWAP2 MSTORE SWAP2 AND PUSH1 0x24 DUP3 ADD MSTORE PUSH20 0x0 SWAP1 PUSH4 0xEDEFE12D SWAP1 PUSH1 0x44 ADD PUSH1 0x20 PUSH1 0x40 MLOAD DUP1 DUP4 SUB DUP2 DUP7 GAS DELEGATECALL ISZERO DUP1 ISZERO PUSH2 0x2A06 JUMPI RETURNDATASIZE PUSH1 0x0 DUP1 RETURNDATACOPY RETURNDATASIZE PUSH1 0x0 REVERT JUMPDEST POP POP POP POP PUSH1 0x40 MLOAD RETURNDATASIZE PUSH1 0x1F NOT PUSH1 0x1F DUP3 ADD AND DUP3 ADD DUP1 PUSH1 0x40 MSTORE POP DUP2 ADD SWAP1 PUSH2 0x2A2A SWAP2 SWAP1 PUSH2 0x319F JUMP JUMPDEST POP DUP1 MLOAD PUSH1 0x20 SWAP1 DUP2 ADD MLOAD PUSH1 0x1 PUSH1 0x1 PUSH1 0xA0 SHL SUB SWAP1 DUP2 AND PUSH1 0x0 SWAP1 DUP2 MSTORE PUSH1 0x2 SWAP1 SWAP3 MSTORE PUSH1 0x40 SWAP2 DUP3 SWAP1 KECCAK256 DUP4 MLOAD MLOAD SWAP3 MLOAD PUSH4 0xEDEFE12D PUSH1 0xE0 SHL DUP2 MSTORE PUSH1 0x4 DUP2 ADD SWAP2 SWAP1 SWAP2 MSTORE SWAP2 AND PUSH1 0x24 DUP3 ADD MSTORE PUSH20 0x0 SWAP1 PUSH4 0xEDEFE12D SWAP1 PUSH1 0x44 ADD PUSH1 0x20 PUSH1 0x40 MLOAD DUP1 DUP4 SUB DUP2 DUP7 GAS DELEGATECALL ISZERO DUP1 ISZERO PUSH2 0x2AA8 JUMPI RETURNDATASIZE PUSH1 0x0 DUP1 RETURNDATACOPY RETURNDATASIZE PUSH1 0x0 REVERT JUMPDEST POP POP POP POP PUSH1 0x40 MLOAD RETURNDATASIZE PUSH1 0x1F NOT PUSH1 0x1F DUP3 ADD AND DUP3 ADD DUP1 PUSH1 0x40 MSTORE POP DUP2 ADD SWAP1 PUSH2 0x2ACC SWAP2 SWAP1 PUSH2 0x319F JUMP JUMPDEST POP POP PUSH1 0x0 SWAP1 DUP2 MSTORE PUSH1 0x1 PUSH1 0x20 DUP2 SWAP1 MSTORE PUSH1 0x40 SWAP1 SWAP2 KECCAK256 DUP1 SLOAD PUSH1 0x1 PUSH1 0x1 PUSH1 0xA0 SHL SUB NOT SWAP1 DUP2 AND DUP3 SSTORE SWAP2 DUP2 ADD DUP1 SLOAD SWAP1 SWAP3 AND SWAP1 SWAP2 SSTORE PUSH1 0x2 ADD DUP1 SLOAD PUSH1 0x1 PUSH1 0x1 PUSH1 0xE8 SHL SUB NOT AND SWAP1 SSTORE POP POP JUMP JUMPDEST PUSH1 0x0 DUP3 DUP3 PUSH1 0x40 MLOAD PUSH1 0x20 ADD PUSH2 0x2B24 SWAP3 SWAP2 SWAP1 PUSH2 0x31D7 JUMP JUMPDEST PUSH1 0x40 DUP1 MLOAD PUSH1 0x1F NOT DUP2 DUP5 SUB ADD DUP2 MSTORE SWAP2 DUP2 MSTORE DUP2 MLOAD PUSH1 0x20 SWAP3 DUP4 ADD KECCAK256 PUSH1 0x0 SWAP1 DUP2 MSTORE PUSH1 0x3 SWAP1 SWAP3 MSTORE SWAP1 KECCAK256 DUP1 SLOAD PUSH1 0x1 PUSH1 0x1 PUSH1 0xA0 SHL SUB NOT AND SWAP1 SSTORE POP POP POP JUMP JUMPDEST PUSH1 0x40 DUP1 MLOAD PUSH2 0x100 DUP2 ADD DUP3 MSTORE PUSH1 0x0 PUSH1 0xC0 DUP3 ADD DUP2 DUP2 MSTORE PUSH1 0xE0 DUP4 ADD DUP3 SWAP1 MSTORE DUP3 MSTORE PUSH1 0x20 DUP3 ADD DUP2 SWAP1 MSTORE SWAP2 DUP2 ADD DUP3 SWAP1 MSTORE PUSH1 0x60 DUP2 ADD DUP3 SWAP1 MSTORE PUSH1 0x80 DUP2 ADD DUP3 SWAP1 MSTORE PUSH1 0xA0 DUP2 ADD SWAP2 SWAP1 SWAP2 MSTORE SWAP1 JUMP JUMPDEST PUSH1 0x0 DUP1 DUP6 DUP6 GT ISZERO PUSH2 0x2BAE JUMPI PUSH1 0x0 DUP1 REVERT JUMPDEST DUP4 DUP7 GT ISZERO PUSH2 0x2BBB JUMPI PUSH1 0x0 DUP1 REVERT JUMPDEST POP POP DUP3 ADD SWAP4 SWAP2 SWAP1 SWAP3 SUB SWAP2 POP JUMP JUMPDEST DUP1 CALLDATALOAD PUSH1 0x1 PUSH1 0x1 PUSH1 0xE0 SHL SUB NOT DUP2 AND DUP2 EQ PUSH2 0x2BE0 JUMPI PUSH1 0x0 DUP1 REVERT JUMPDEST SWAP2 SWAP1 POP JUMP JUMPDEST PUSH1 0x0 PUSH1 0x20 DUP3 DUP5 SUB SLT ISZERO PUSH2 0x2BF7 JUMPI PUSH1 0x0 DUP1 REVERT JUMPDEST PUSH2 0x14C6 DUP3 PUSH2 0x2BC8 JUMP JUMPDEST DUP1 CALLDATALOAD PUSH1 0x1 PUSH1 0x1 PUSH1 0xA0 SHL SUB DUP2 AND DUP2 EQ PUSH2 0x2BE0 JUMPI PUSH1 0x0 DUP1 REVERT JUMPDEST PUSH1 0x0 DUP1 PUSH1 0x0 DUP1 PUSH1 0x0 PUSH1 0xA0 DUP7 DUP9 SUB SLT ISZERO PUSH2 0x2C2F JUMPI PUSH1 0x0 DUP1 REVERT JUMPDEST PUSH2 0x2C38 DUP7 PUSH2 0x2C00 JUMP JUMPDEST SWAP5 POP PUSH2 0x2C46 PUSH1 0x20 DUP8 ADD PUSH2 0x2C00 JUMP JUMPDEST SWAP5 SWAP8 SWAP5 SWAP7 POP POP POP POP PUSH1 0x40 DUP4 ADD CALLDATALOAD SWAP3 PUSH1 0x60 DUP2 ADD CALLDATALOAD SWAP3 PUSH1 0x80 SWAP1 SWAP2 ADD CALLDATALOAD SWAP2 POP JUMP JUMPDEST PUSH1 0x0 DUP1 PUSH1 0x40 DUP4 DUP6 SUB SLT ISZERO PUSH2 0x2C77 JUMPI PUSH1 0x0 DUP1 REVERT JUMPDEST PUSH2 0x2C80 DUP4 PUSH2 0x2C00 JUMP JUMPDEST SWAP2 POP PUSH2 0x2C8E PUSH1 0x20 DUP5 ADD PUSH2 0x2C00 JUMP JUMPDEST SWAP1 POP SWAP3 POP SWAP3 SWAP1 POP JUMP JUMPDEST PUSH1 0x0 PUSH1 0x20 DUP3 DUP5 SUB SLT ISZERO PUSH2 0x2CA9 JUMPI PUSH1 0x0 DUP1 REVERT JUMPDEST POP CALLDATALOAD SWAP2 SWAP1 POP JUMP JUMPDEST PUSH1 0x0 PUSH1 0x20 DUP3 DUP5 SUB SLT ISZERO PUSH2 0x2CC2 JUMPI PUSH1 0x0 DUP1 REVERT JUMPDEST PUSH2 0x14C6 DUP3 PUSH2 0x2C00 JUMP JUMPDEST PUSH1 0x0 DUP1 PUSH1 0x40 DUP4 DUP6 SUB SLT ISZERO PUSH2 0x2CDE JUMPI PUSH1 0x0 DUP1 REVERT JUMPDEST POP POP DUP1 CALLDATALOAD SWAP3 PUSH1 0x20 SWAP1 SWAP2 ADD CALLDATALOAD SWAP2 POP JUMP JUMPDEST PUSH4 0x4E487B71 PUSH1 0xE0 SHL PUSH1 0x0 MSTORE PUSH1 0x41 PUSH1 0x4 MSTORE PUSH1 0x24 PUSH1 0x0 REVERT JUMPDEST PUSH1 0x40 MLOAD PUSH1 0xC0 DUP2 ADD PUSH1 0x1 PUSH1 0x1 PUSH1 0x40 SHL SUB DUP2 GT DUP3 DUP3 LT OR ISZERO PUSH2 0x2D25 JUMPI PUSH2 0x2D25 PUSH2 0x2CED JUMP JUMPDEST PUSH1 0x40 MSTORE SWAP1 JUMP JUMPDEST PUSH1 0x40 MLOAD PUSH1 0x1F DUP3 ADD PUSH1 0x1F NOT AND DUP2 ADD PUSH1 0x1 PUSH1 0x1 PUSH1 0x40 SHL SUB DUP2 GT DUP3 DUP3 LT OR ISZERO PUSH2 0x2D53 JUMPI PUSH2 0x2D53 PUSH2 0x2CED JUMP JUMPDEST PUSH1 0x40 MSTORE SWAP2 SWAP1 POP JUMP JUMPDEST PUSH1 0x0 PUSH1 0x1 PUSH1 0x1 PUSH1 0x40 SHL SUB DUP3 GT ISZERO PUSH2 0x2D74 JUMPI PUSH2 0x2D74 PUSH2 0x2CED JUMP JUMPDEST POP PUSH1 0x5 SHL PUSH1 0x20 ADD SWAP1 JUMP JUMPDEST PUSH1 0x0 PUSH1 0x40 DUP3 DUP5 SUB SLT ISZERO PUSH2 0x2D90 JUMPI PUSH1 0x0 DUP1 REVERT JUMPDEST PUSH1 0x40 MLOAD PUSH1 0x40 DUP2 ADD DUP2 DUP2 LT PUSH1 0x1 PUSH1 0x1 PUSH1 0x40 SHL SUB DUP3 GT OR ISZERO PUSH2 0x2DB2 JUMPI PUSH2 0x2DB2 PUSH2 0x2CED JUMP JUMPDEST PUSH1 0x40 MSTORE SWAP1 POP DUP1 PUSH2 0x2DC1 DUP4 PUSH2 0x2C00 JUMP JUMPDEST DUP2 MSTORE PUSH2 0x2DCF PUSH1 0x20 DUP5 ADD PUSH2 0x2C00 JUMP JUMPDEST PUSH1 0x20 DUP3 ADD MSTORE POP SWAP3 SWAP2 POP POP JUMP JUMPDEST DUP1 CALLDATALOAD PUSH1 0x1 PUSH1 0x1 PUSH1 0x40 SHL SUB DUP2 AND DUP2 EQ PUSH2 0x2BE0 JUMPI PUSH1 0x0 DUP1 REVERT JUMPDEST PUSH1 0x0 PUSH1 0x20 DUP1 DUP4 DUP6 SUB SLT ISZERO PUSH2 0x2E05 JUMPI PUSH1 0x0 DUP1 REVERT JUMPDEST DUP3 CALLDATALOAD PUSH1 0x1 PUSH1 0x1 PUSH1 0x40 SHL SUB DUP2 GT ISZERO PUSH2 0x2E1B JUMPI PUSH1 0x0 DUP1 REVERT JUMPDEST DUP4 ADD PUSH1 0x1F DUP2 ADD DUP6 SGT PUSH2 0x2E2C JUMPI PUSH1 0x0 DUP1 REVERT JUMPDEST DUP1 CALLDATALOAD PUSH2 0x2E3F PUSH2 0x2E3A DUP3 PUSH2 0x2D5B JUMP JUMPDEST PUSH2 0x2D2B JUMP JUMPDEST DUP2 DUP2 MSTORE PUSH1 0xE0 SWAP2 DUP3 MUL DUP4 ADD DUP5 ADD SWAP2 DUP5 DUP3 ADD SWAP2 SWAP1 DUP9 DUP5 GT ISZERO PUSH2 0x2E5E JUMPI PUSH1 0x0 DUP1 REVERT JUMPDEST SWAP4 DUP6 ADD SWAP4 JUMPDEST DUP4 DUP6 LT ISZERO PUSH2 0x2EFC JUMPI DUP1 DUP6 DUP11 SUB SLT ISZERO PUSH2 0x2E7B JUMPI PUSH1 0x0 DUP1 DUP2 REVERT JUMPDEST PUSH2 0x2E83 PUSH2 0x2D03 JUMP JUMPDEST PUSH2 0x2E8D DUP11 DUP8 PUSH2 0x2D7E JUMP JUMPDEST DUP2 MSTORE PUSH1 0x40 DUP1 DUP8 ADD CALLDATALOAD PUSH1 0x6 DUP2 LT PUSH2 0x2EA3 JUMPI PUSH1 0x0 DUP1 DUP2 REVERT JUMPDEST DUP3 DUP10 ADD MSTORE PUSH1 0x60 PUSH2 0x2EB4 DUP9 DUP3 ADD PUSH2 0x2DDB JUMP JUMPDEST DUP3 DUP5 ADD MSTORE PUSH1 0x80 SWAP2 POP PUSH2 0x2EC7 DUP3 DUP10 ADD PUSH2 0x2DDB JUMP JUMPDEST SWAP1 DUP4 ADD MSTORE PUSH1 0xA0 PUSH2 0x2ED8 DUP9 DUP3 ADD PUSH2 0x2DDB JUMP JUMPDEST DUP3 DUP5 ADD MSTORE PUSH2 0x2EE8 PUSH1 0xC0 DUP10 ADD PUSH2 0x2BC8 JUMP JUMPDEST SWAP1 DUP4 ADD MSTORE POP DUP4 MSTORE SWAP4 DUP5 ADD SWAP4 SWAP2 DUP6 ADD SWAP2 PUSH2 0x2E63 JUMP JUMPDEST POP SWAP8 SWAP7 POP POP POP POP POP POP POP JUMP JUMPDEST PUSH1 0x0 PUSH1 0x20 DUP3 DUP5 SUB SLT ISZERO PUSH2 0x2F1A JUMPI PUSH1 0x0 DUP1 REVERT JUMPDEST DUP2 CALLDATALOAD PUSH6 0xFFFFFFFFFFFF DUP2 AND DUP2 EQ PUSH2 0x14C6 JUMPI PUSH1 0x0 DUP1 REVERT JUMPDEST PUSH1 0x0 PUSH1 0x20 DUP1 DUP4 ADD DUP2 DUP5 MSTORE DUP1 DUP6 MLOAD DUP1 DUP4 MSTORE PUSH1 0x40 SWAP3 POP DUP3 DUP7 ADD SWAP2 POP DUP3 DUP2 PUSH1 0x5 SHL DUP8 ADD ADD DUP5 DUP9 ADD PUSH1 0x0 DUP1 JUMPDEST DUP5 DUP2 LT ISZERO PUSH2 0x2FC1 JUMPI DUP10 DUP5 SUB PUSH1 0x3F NOT ADD DUP7 MSTORE DUP3 MLOAD DUP1 MLOAD DUP1 DUP7 MSTORE SWAP1 DUP10 ADD SWAP1 DUP10 DUP7 ADD SWAP1 DUP5 JUMPDEST DUP2 DUP2 LT ISZERO PUSH2 0x2FAC JUMPI DUP4 MLOAD DUP1 MLOAD PUSH1 0x1 PUSH1 0x1 PUSH1 0xA0 SHL SUB SWAP1 DUP2 AND DUP6 MSTORE SWAP1 DUP14 ADD MLOAD AND DUP13 DUP5 ADD MSTORE SWAP3 DUP12 ADD SWAP3 SWAP2 DUP11 ADD SWAP2 PUSH1 0x1 ADD PUSH2 0x2F7A JUMP JUMPDEST POP POP SWAP7 DUP10 ADD SWAP7 SWAP5 POP POP SWAP2 DUP8 ADD SWAP2 PUSH1 0x1 ADD PUSH2 0x2F58 JUMP JUMPDEST POP SWAP2 SWAP10 SWAP9 POP POP POP POP POP POP POP POP POP JUMP JUMPDEST PUSH1 0x0 PUSH1 0x20 DUP1 DUP4 DUP6 SUB SLT ISZERO PUSH2 0x2FE3 JUMPI PUSH1 0x0 DUP1 REVERT JUMPDEST DUP3 CALLDATALOAD PUSH1 0x1 PUSH1 0x1 PUSH1 0x40 SHL SUB DUP1 DUP3 GT ISZERO PUSH2 0x2FFA JUMPI PUSH1 0x0 DUP1 REVERT JUMPDEST DUP2 DUP6 ADD SWAP2 POP DUP6 PUSH1 0x1F DUP4 ADD SLT PUSH2 0x300E JUMPI PUSH1 0x0 DUP1 REVERT JUMPDEST DUP2 CALLDATALOAD PUSH2 0x301C PUSH2 0x2E3A DUP3 PUSH2 0x2D5B JUMP JUMPDEST DUP2 DUP2 MSTORE PUSH1 0x5 SWAP2 SWAP1 SWAP2 SHL DUP4 ADD DUP5 ADD SWAP1 DUP5 DUP2 ADD SWAP1 DUP9 DUP4 GT ISZERO PUSH2 0x303B JUMPI PUSH1 0x0 DUP1 REVERT JUMPDEST DUP6 DUP6 ADD JUMPDEST DUP4 DUP2 LT ISZERO PUSH2 0x30D2 JUMPI DUP1 CALLDATALOAD DUP6 DUP2 GT ISZERO PUSH2 0x3057 JUMPI PUSH1 0x0 DUP1 DUP2 REVERT JUMPDEST DUP7 ADD PUSH1 0x3F DUP2 ADD DUP12 SGT PUSH2 0x3069 JUMPI PUSH1 0x0 DUP1 DUP2 REVERT JUMPDEST DUP8 DUP2 ADD CALLDATALOAD PUSH1 0x40 PUSH2 0x307B PUSH2 0x2E3A DUP4 PUSH2 0x2D5B JUMP JUMPDEST DUP3 DUP2 MSTORE PUSH1 0x6 SWAP3 SWAP1 SWAP3 SHL DUP4 ADD DUP2 ADD SWAP2 DUP11 DUP2 ADD SWAP1 DUP15 DUP5 GT ISZERO PUSH2 0x309B JUMPI PUSH1 0x0 DUP1 DUP2 REVERT JUMPDEST SWAP4 DUP3 ADD SWAP4 JUMPDEST DUP4 DUP6 LT ISZERO PUSH2 0x30C1 JUMPI PUSH2 0x30B2 DUP16 DUP7 PUSH2 0x2D7E JUMP JUMPDEST DUP3 MSTORE SWAP4 DUP3 ADD SWAP4 SWAP1 DUP12 ADD SWAP1 PUSH2 0x30A0 JUMP JUMPDEST DUP8 MSTORE POP POP POP SWAP3 DUP8 ADD SWAP3 POP DUP7 ADD PUSH2 0x303F JUMP JUMPDEST POP SWAP9 SWAP8 POP POP POP POP POP POP POP POP JUMP JUMPDEST PUSH1 0x0 DUP1 PUSH1 0x0 PUSH1 0x60 DUP5 DUP7 SUB SLT ISZERO PUSH2 0x30F4 JUMPI PUSH1 0x0 DUP1 REVERT JUMPDEST PUSH2 0x30FD DUP5 PUSH2 0x2C00 JUMP JUMPDEST SWAP3 POP PUSH2 0x310B PUSH1 0x20 DUP6 ADD PUSH2 0x2C00 JUMP JUMPDEST SWAP2 POP PUSH1 0x40 DUP5 ADD CALLDATALOAD SWAP1 POP SWAP3 POP SWAP3 POP SWAP3 JUMP JUMPDEST PUSH1 0x0 PUSH1 0x20 DUP3 DUP5 SUB SLT ISZERO PUSH2 0x312D JUMPI PUSH1 0x0 DUP1 REVERT JUMPDEST PUSH2 0x14C6 DUP3 PUSH2 0x2DDB JUMP JUMPDEST PUSH1 0x0 DUP1 PUSH1 0x0 PUSH1 0x60 DUP5 DUP7 SUB SLT ISZERO PUSH2 0x314B JUMPI PUSH1 0x0 DUP1 REVERT JUMPDEST PUSH2 0x3154 DUP5 PUSH2 0x2C00 JUMP JUMPDEST SWAP3 POP PUSH2 0x3162 PUSH1 0x20 DUP6 ADD PUSH2 0x2C00 JUMP JUMPDEST SWAP2 POP PUSH2 0x3170 PUSH1 0x40 DUP6 ADD PUSH2 0x2C00 JUMP JUMPDEST SWAP1 POP SWAP3 POP SWAP3 POP SWAP3 JUMP JUMPDEST PUSH1 0x0 PUSH1 0x20 DUP3 DUP5 SUB SLT ISZERO PUSH2 0x318B JUMPI PUSH1 0x0 DUP1 REVERT JUMPDEST DUP2 CALLDATALOAD PUSH4 0xFFFFFFFF DUP2 AND DUP2 EQ PUSH2 0x14C6 JUMPI PUSH1 0x0 DUP1 REVERT JUMPDEST PUSH1 0x0 PUSH1 0x20 DUP3 DUP5 SUB SLT ISZERO PUSH2 0x31B1 JUMPI PUSH1 0x0 DUP1 REVERT JUMPDEST DUP2 MLOAD DUP1 ISZERO ISZERO DUP2 EQ PUSH2 0x14C6 JUMPI PUSH1 0x0 DUP1 REVERT JUMPDEST PUSH4 0x4E487B71 PUSH1 0xE0 SHL PUSH1 0x0 MSTORE PUSH1 0x21 PUSH1 0x4 MSTORE PUSH1 0x24 PUSH1 0x0 REVERT JUMPDEST PUSH12 0xFFFFFFFFFFFFFFFFFFFFFFFF NOT PUSH1 0x60 SWAP4 DUP5 SHL DUP2 AND DUP3 MSTORE SWAP2 SWAP1 SWAP3 SHL AND PUSH1 0x14 DUP3 ADD MSTORE PUSH1 0x28 ADD SWAP1 JUMP JUMPDEST PUSH4 0x4E487B71 PUSH1 0xE0 SHL PUSH1 0x0 MSTORE PUSH1 0x11 PUSH1 0x4 MSTORE PUSH1 0x24 PUSH1 0x0 REVERT JUMPDEST PUSH1 0x0 DUP3 PUSH2 0x3231 JUMPI PUSH4 0x4E487B71 PUSH1 0xE0 SHL PUSH1 0x0 MSTORE PUSH1 0x12 PUSH1 0x4 MSTORE PUSH1 0x24 PUSH1 0x0 REVERT JUMPDEST POP DIV SWAP1 JUMP JUMPDEST PUSH1 0x0 DUP2 PUSH1 0x0 NOT DIV DUP4 GT DUP3 ISZERO ISZERO AND ISZERO PUSH2 0x3250 JUMPI PUSH2 0x3250 PUSH2 0x31FE JUMP JUMPDEST POP MUL SWAP1 JUMP JUMPDEST PUSH4 0x4E487B71 PUSH1 0xE0 SHL PUSH1 0x0 MSTORE PUSH1 0x1 PUSH1 0x4 MSTORE PUSH1 0x24 PUSH1 0x0 REVERT JUMPDEST PUSH4 0x4E487B71 PUSH1 0xE0 SHL PUSH1 0x0 MSTORE PUSH1 0x32 PUSH1 0x4 MSTORE PUSH1 0x24 PUSH1 0x0 REVERT JUMPDEST PUSH1 0x0 PUSH1 0x0 NOT DUP3 EQ ISZERO PUSH2 0x3295 JUMPI PUSH2 0x3295 PUSH2 0x31FE JUMP JUMPDEST POP PUSH1 0x1 ADD SWAP1 JUMP JUMPDEST PUSH1 0x0 DUP3 NOT DUP3 GT ISZERO PUSH2 0x32AF JUMPI PUSH2 0x32AF PUSH2 0x31FE JUMP JUMPDEST POP ADD SWAP1 JUMP JUMPDEST DUP1 MLOAD PUSH10 0xFFFFFFFFFFFFFFFFFFFF DUP2 AND DUP2 EQ PUSH2 0x2BE0 JUMPI PUSH1 0x0 DUP1 REVERT JUMPDEST PUSH1 0x0 DUP1 PUSH1 0x0 DUP1 PUSH1 0x0 PUSH1 0xA0 DUP7 DUP9 SUB SLT ISZERO PUSH2 0x32E6 JUMPI PUSH1 0x0 DUP1 REVERT JUMPDEST PUSH2 0x32EF DUP7 PUSH2 0x32B4 JUMP JUMPDEST SWAP5 POP PUSH1 0x20 DUP7 ADD MLOAD SWAP4 POP PUSH1 0x40 DUP7 ADD MLOAD SWAP3 POP PUSH1 0x60 DUP7 ADD MLOAD SWAP2 POP PUSH2 0x3312 PUSH1 0x80 DUP8 ADD PUSH2 0x32B4 JUMP JUMPDEST SWAP1 POP SWAP3 SWAP6 POP SWAP3 SWAP6 SWAP1 SWAP4 POP JUMP JUMPDEST PUSH1 0x0 PUSH1 0x20 DUP3 DUP5 SUB SLT ISZERO PUSH2 0x3330 JUMPI PUSH1 0x0 DUP1 REVERT JUMPDEST DUP2 MLOAD PUSH1 0xFF DUP2 AND DUP2 EQ PUSH2 0x14C6 JUMPI PUSH1 0x0 DUP1 REVERT JUMPDEST PUSH1 0x1 DUP2 DUP2 JUMPDEST DUP1 DUP6 GT ISZERO PUSH2 0x337C JUMPI DUP2 PUSH1 0x0 NOT DIV DUP3 GT ISZERO PUSH2 0x3362 JUMPI PUSH2 0x3362 PUSH2 0x31FE JUMP JUMPDEST DUP1 DUP6 AND ISZERO PUSH2 0x336F JUMPI SWAP2 DUP2 MUL SWAP2 JUMPDEST SWAP4 DUP5 SHR SWAP4 SWAP1 DUP1 MUL SWAP1 PUSH2 0x3346 JUMP JUMPDEST POP SWAP3 POP SWAP3 SWAP1 POP JUMP JUMPDEST PUSH1 0x0 DUP3 PUSH2 0x3393 JUMPI POP PUSH1 0x1 PUSH2 0x72D JUMP JUMPDEST DUP2 PUSH2 0x33A0 JUMPI POP PUSH1 0x0 PUSH2 0x72D JUMP JUMPDEST DUP2 PUSH1 0x1 DUP2 EQ PUSH2 0x33B6 JUMPI PUSH1 0x2 DUP2 EQ PUSH2 0x33C0 JUMPI PUSH2 0x33DC JUMP JUMPDEST PUSH1 0x1 SWAP2 POP POP PUSH2 0x72D JUMP JUMPDEST PUSH1 0xFF DUP5 GT ISZERO PUSH2 0x33D1 JUMPI PUSH2 0x33D1 PUSH2 0x31FE JUMP JUMPDEST POP POP PUSH1 0x1 DUP3 SHL PUSH2 0x72D JUMP JUMPDEST POP PUSH1 0x20 DUP4 LT PUSH2 0x133 DUP4 LT AND PUSH1 0x4E DUP5 LT PUSH1 0xB DUP5 LT AND OR ISZERO PUSH2 0x33FF JUMPI POP DUP2 DUP2 EXP PUSH2 0x72D JUMP JUMPDEST PUSH2 0x3409 DUP4 DUP4 PUSH2 0x3341 JUMP JUMPDEST DUP1 PUSH1 0x0 NOT DIV DUP3 GT ISZERO PUSH2 0x341D JUMPI PUSH2 0x341D PUSH2 0x31FE JUMP JUMPDEST MUL SWAP4 SWAP3 POP POP POP JUMP JUMPDEST PUSH1 0x0 PUSH2 0x14C6 PUSH1 0xFF DUP5 AND DUP4 PUSH2 0x3384 JUMP JUMPDEST PUSH1 0x0 DUP3 DUP3 LT ISZERO PUSH2 0x3446 JUMPI PUSH2 0x3446 PUSH2 0x31FE JUMP JUMPDEST POP SUB SWAP1 JUMP INVALID LOG2 PUSH5 0x6970667358 0x22 SLT KECCAK256 0x24 0xCB 0xD8 0xEF 0xDD INVALID JUMPDEST DUP16 CALLDATALOAD BYTE 0xA9 PUSH24 0x2C082BE77451328406F652BCBC7C87EBF654209464736F6C PUSH4 0x4300080B STOP CALLER ","sha1":"a5180b99b49ca185f6e38dab191ae224dc14cfae","source":"// SPDX-License-Identifier: MIT\n// Beef MarketPlace Contracts v0.0.0 hello@mcdu.com\n\npragma solidity ^0.8.0;\n\nimport \"@chainlink/contracts/src/v0.8/interfaces/AggregatorV3Interface.sol\";\nimport \"../agnostic/Array.sol\";\nimport \"../Repository/Repository.sol\";\nimport \"./QuoteLib.sol\";\nimport \"../agnostic/UIntConverter.sol\";\n\nbytes32 constant QUOTATOR = keccak256(\"Quotator\");\n\ncontract Quotator is RepositoryContract,UIntConverter {\n\n    function id() public view returns (bytes32) {return QUOTATOR;}\n\n    /////////////////////////////////////////////////////////////////////////////////////////\n    //      event\n    /////////////////////////////////////////////////////////////////////////////////////////\n    event Quoted(\n        address indexed left_,\n        address indexed right_,\n        QuoteSource source_,\n        uint256 _quotemin_,\n        uint256 _quoteavg_,\n        uint256 quotemax_\n    );\n    function _quoteChanged(address left_,address right_,uint256 quotemin_,uint256 quoteavg_,uint256 quotemax_) internal virtual\n    {\n        //address(rep).call(abi.encodeWithSelector(bytes4(keccak256(\"_quoteChanged(address,address,uint256,uint256,uint256)\")), left_,right_,quotemin_,quoteavg_,quotemax_));\n    }\n \n\n\n    constructor(Repository rep_) RepositoryContract(rep_) {\n    }\n\n    //function _liquidate() internal virtual override {}\n\n    uint256 constant MAXSTACKCALL = 20;\n    using Array for address[];\n    mapping(bytes32 => QuoteInfo) private _quotes;\n    mapping(address => address[]) private _quotetoquotes;\n\n    mapping(bytes32 => AggregatorV3Interface) private _chainlinks;\n\n    /////////////////////////////////////////////////////////////////////////////////////////\n    //      event for the Quotator Bot\n    /////////////////////////////////////////////////////////////////////////////////////////\n    event Unresolved(address left_, address right_);\n    event Resolved(address left_, address right_);\n\n    /////////////////////////////////////////////////////////////////////////////////////////\n    //      Quote\n    /////////////////////////////////////////////////////////////////////////////////////////\n\n    function __set(QuoteInfo memory quote_) private {\n        bytes32 _key = keccak256(\n            abi.encodePacked(quote_._ref._left, quote_._ref._right)\n        );\n        QuoteInfo memory _quote = _quotes[_key];\n        if (_quote._source != quote_._source) {\n            _clear(quote_._ref._left, quote_._ref._right);\n            _quote._ref._left = quote_._ref._left;\n            _quote._ref._right = quote_._ref._right;\n            _quote._source = quote_._source;\n            _quotetoquotes[quote_._ref._left].insert(quote_._ref._right);\n            _quotetoquotes[quote_._ref._right].insert(quote_._ref._left);\n        }\n        _quote._timestamp = bytes4(bytes32(block.number));\n        if (\n            _quote._quotemin == quote_._quotemin &&\n            _quote._quoteavg == quote_._quoteavg &&\n            _quote._quotemax == quote_._quotemax\n        ) return;\n        _quote._quotemin = quote_._quotemin;\n        _quote._quoteavg = quote_._quoteavg;\n        _quote._quotemax = quote_._quotemax;\n        _quotes[_key] = _quote;\n    }\n\n    function _clear(address left_, address right_)\n        private\n    {\n        bytes32 _key = keccak256(abi.encodePacked(left_, right_));\n        QuoteInfo memory _quote = _quotes[_key];\n        if (_quote._source == QuoteSource.None) return;\n        else if (_quote._source == QuoteSource.ChainLink)\n            __chainlinkClear(left_, right_);\n        //else if (_quote._source==QuoteSource.ComplexStatic||_quote._source==QuoteSource.ComplexDynamic)\n        //    __complexClear(left_,right_);\n        _quotetoquotes[_quote._ref._left].remove(_quote._ref._right);\n        _quotetoquotes[_quote._ref._right].remove(_quote._ref._left);\n\n        delete _quotes[_key];\n    }\n\n    /////////////////////////////////////////////////////////////////////////////////////////\n    //      ChainLink\n    /////////////////////////////////////////////////////////////////////////////////////////\n\n    function chainlinkSet(\n        address left_,\n        address right_,\n        address feedaddress_\n    ) external onlyContractsOrOperators {\n        bytes32 _key = keccak256(abi.encodePacked(left_, right_));\n\n        AggregatorV3Interface _feed = AggregatorV3Interface(feedaddress_);\n        _chainlinks[_key] = _feed;\n\n        QuoteInfo memory _quote;\n        _quote._ref._left = left_;\n        _quote._ref._right = right_;\n        _quote._source = QuoteSource.ChainLink;\n        (\n            uint256 _quotemin,\n            uint256 _quoteavg,\n            uint256 _quotemax\n        ) = __chainlinkReadOnly(_quote);\n        _quote._quotemin = UInt256ToUInt64(_quotemin);\n        _quote._quoteavg = UInt256ToUInt64(_quoteavg);\n        _quote._quotemax = UInt256ToUInt64(_quotemax);\n        __set(_quote);\n    }\n\n    function __chainlinkClear(address left_, address right_) private {\n        bytes32 _key = keccak256(abi.encodePacked(left_, right_));\n        delete _chainlinks[_key];\n    }\n\n    function __chainlinkReadOnly(QuoteInfo memory quote_)\n        private\n        view\n        returns (\n            uint256,\n            uint256,\n            uint256\n        )\n    {\n        bytes32 _key = keccak256(\n            abi.encodePacked(quote_._ref._left, quote_._ref._right)\n        );\n        (, int256 __answer, , , ) = _chainlinks[_key].latestRoundData();\n        require(__answer > 0, \"Chainlink quote must be positive\");\n        uint256 _answer = uint256(__answer);\n        _answer *= (10**18) / 10**_chainlinks[_key].decimals();\n        return (uint256(_answer), uint256(_answer), uint256(_answer));\n    }\n\n    function __chainlinkRead(QuoteInfo memory quote_)\n        private\n        returns (\n            uint256,\n            uint256,\n            uint256\n        )\n    {\n        if (quote_._timestamp != bytes4(bytes32(block.number))) {\n            (\n                uint256 _quotemin,\n                uint256 _quoteavg,\n                uint256 _quotemax\n            ) = __chainlinkReadOnly(quote_);\n            quote_._quotemin = UInt256ToUInt64(_quotemin);\n            quote_._quoteavg = UInt256ToUInt64(_quoteavg);\n            quote_._quotemax = UInt256ToUInt64(_quotemax);\n            __set(quote_);\n        }\n        return (\n            UInt64ToUInt256(quote_._quotemin),\n            UInt64ToUInt256(quote_._quoteavg),\n            UInt64ToUInt256(quote_._quotemax)\n        );\n    }\n\n    /////////////////////////////////////////////////////////////////////////////////////////\n    //      Static\n    /////////////////////////////////////////////////////////////////////////////////////////\n\n    function staticSet(\n        address left_,\n        address right_,\n        uint256 quote_\n    ) external onlyContractsOrOperators {\n        QuoteInfo memory _quote;\n        _quote._ref._left = left_;\n        _quote._ref._right = right_;\n        _quote._source = QuoteSource.Static;\n        _quote._quotemin = _quote._quoteavg = _quote._quotemax = UIntConverter\n            .UInt256ToUInt64(quote_);\n        __set(_quote);\n    }\n\n    function __staticRead(QuoteInfo memory _quote)\n        private\n        view\n        returns (\n            uint256,\n            uint256,\n            uint256\n        )\n    {\n        return (\n            UInt64ToUInt256(_quote._quotemin),\n            UInt64ToUInt256(_quote._quoteavg),\n            UInt64ToUInt256(_quote._quotemax)\n        );\n    }\n\n    /////////////////////////////////////////////////////////////////////////////////////////\n    //      Static\n    /////////////////////////////////////////////////////////////////////////////////////////\n\n    function internalMultiSet(QuoteInfo[] memory quotes_)\n        external\n        onlyContractsOrOperators\n    {\n        for (uint256 i; i < quotes_.length; i++)\n            internalSet(\n                quotes_[i]._ref._left,\n                quotes_[i]._ref._right,\n                quotes_[i]._quotemin,\n                quotes_[i]._quoteavg,\n                quotes_[i]._quotemax\n            );\n    }\n\n    function internalSet(\n        address left_,\n        address right_,\n        uint256 quotemin_,\n        uint256 quoteavg_,\n        uint256 quotemax_\n    ) public onlyContractsOrOperators {\n        QuoteInfo memory _quote;\n        _quote._ref._left = left_;\n        _quote._ref._right = right_;\n        _quote._source = QuoteSource.Internal;\n        _quote._quotemin = UInt256ToUInt64(quotemin_);\n        _quote._quoteavg = UInt256ToUInt64(quoteavg_);\n        _quote._quotemax = UInt256ToUInt64(quotemax_);\n        __set(_quote);\n    }\n\n    function __internalRead(QuoteInfo memory _quote)\n        private\n        view\n        returns (\n            uint256,\n            uint256,\n            uint256\n        )\n    {\n        return (\n            UInt64ToUInt256(_quote._quotemin),\n            UInt64ToUInt256(_quote._quoteavg),\n            UInt64ToUInt256(_quote._quotemax)\n        );\n    }\n\n    /////////////////////////////////////////////////////////////////////////////////////////\n    //      Complex\n    /////////////////////////////////////////////////////////////////////////////////////////\n\n    /*\n    struct QuoteRefList {\n        QuoteRef[] _list;\n    }\n    struct QuoteRefConv {\n        QuoteRefList[] _convs;\n    }\n\n    mapping(address => mapping(address => QuoteRef[][])) private _complexs;\n\n    function complexDynamicMultiSet(QuoteRef[][][] memory convs_) public onlyContractsOrOperators {\n        for (uint i;i<convs_.length;i++)\n            complexDynamicSet(convs_[i]);\n    }\n\n    function complexDynamicSet(QuoteRef[][] memory convs_) public onlyContractsOrOperators {\n\n        if (convs_.length==0) return;\n        if (convs_[0].length==0) return;\n\n\n        QuoteInfo memory _quote;\n        _quote._ref._left = convs_[0][0]._left;\n        _quote._ref._right = convs_[0][convs_[0].length-1]._right;\n        _quote._source = QuoteSource.ComplexDynamic;\n        for (uint i; i<convs_.length;i++)\n        {\n            if (convs_[i].length==0)\n                continue;\n            _complexs[_quote._ref._left][_quote._ref._right].push();\n            for (uint j;j<convs_[i].length;j++)\n            {\n                _complexs[_quote._ref._left][_quote._ref._right][i].push();\n                _complexs[_quote._ref._left][_quote._ref._right][i][j] = convs_[i][j];\n            }\n        }\n        (_quote._quotemin,_quote._quoteavg,_quote._quotemax) = __complexReadOnly(_quote);\n        __set(_quote);\n    }\n    function complexStaticMultiSet(QuoteRef[][][] memory convs_) public onlyContractsOrOperators {\n        for (uint i;i<convs_.length;i++)\n            complexStaticSet(convs_[i]);\n    }\n    function complexStaticSet(QuoteRef[][] memory convs_) public onlyContractsOrOperators {\n\n        if (convs_.length==0) return;\n        if (convs_[0].length==0) return;\n\n        QuoteInfo memory _quote;\n        _quote._ref._left = convs_[0][0]._left;\n        _quote._ref._right = convs_[0][convs_[0].length-1]._right;\n        _quote._source = QuoteSource.ComplexStatic;\n        for (uint i; i<convs_.length;i++)\n        {\n            _complexs[_quote._ref._left][_quote._ref._right].push();\n            for (uint j;j<convs_[i].length;j++)\n            {\n                _complexs[_quote._ref._left][_quote._ref._right][i].push();\n                _complexs[_quote._ref._left][_quote._ref._right][i][j] = convs_[i][j];\n            }\n        }\n        (_quote._quotemin,_quote._quoteavg,_quote._quotemax) = __complexReadOnly(_quote);\n        __set(_quote);\n    }\n    function complexGet(address left_, address right_) public view returns (QuoteRef[][] memory)\n    {\n        return _complexs[left_][right_];\n    }\n    function __complexClear(address left_, address right_) private\n    {\n        delete _complexs[left_][right_];\n    }*/\n    /*function __complexReadOnly(QuoteInfo memory quote_)\n        private view \n        returns (uint256,uint256,uint256)\n    {\n        return ___complexReadOnly(_complexs[quote_._ref._left][quote_._ref._right]);\n    }*/\n    function complexReadOnly(QuoteRef[][] memory _convs)\n        external\n        view\n        returns (\n            uint256,\n            uint256,\n            uint256\n        )\n    {\n        uint256 _quotemin = 0;\n        uint256 _quoteavg = 0;\n        uint256 _quoteavgcount = 0;\n        uint256 _quotemax = 0;\n        for (uint256 i; i < _convs.length; i++) {\n            uint256 __quotemin = 10**18;\n            uint256 __quoteavg = 10**18;\n            uint256 __quotemax = 10**18;\n            for (uint256 j = 0; j < _convs[i].length; j++) {\n                QuoteRef memory _ref = _convs[i][j];\n                (\n                    uint256 ___quotemin,\n                    uint256 ___quoteavg,\n                    uint256 ___quotemax\n                ) = readOnly(_ref._left, _ref._right);\n                if (___quoteavg == 0) return (0, 0, 0);\n                __quotemin = (___quotemin * __quotemin) / 10**18;\n                __quoteavg = (___quoteavg * __quoteavg) / 10**18;\n                __quotemax = (___quotemax * __quotemax) / 10**18;\n            }\n            if (_quotemin == 0 || _quotemin > __quotemin)\n                _quotemin = __quotemin;\n            if (_quotemax == 0 || _quotemax < __quotemax)\n                _quotemax = __quotemax;\n            if (_quoteavgcount == 0) _quoteavg = __quoteavg;\n            else _quoteavg += __quoteavg;\n            _quoteavgcount++;\n        }\n\n        _quoteavg /= _quoteavgcount;\n        return (_quotemin, _quoteavg, _quotemax);\n    }\n\n    function __complexSearch(\n        address current_,\n        address dest_,\n        uint256 callstack_,\n        QuoteRef[] memory pathused_\n    )\n        private\n        view\n        returns (\n            QuoteRef[][] memory complex_ // TODO , uint maxquote, uint minquote)\n        )\n    {\n        address[] memory __quotes = _quotetoquotes[current_];\n        complex_ = new QuoteRef[][](0);\n        for (uint256 i = 0; i < __quotes.length; i++) {\n            uint256 j;\n            // we check if the conv isnt already used in path / left to right but also right to left\n            for (j = 0; j < pathused_.length; j++)\n                if (\n                    (pathused_[j]._left == current_ &&\n                        pathused_[j]._right == __quotes[i]) ||\n                    (pathused_[j]._right == current_ &&\n                        pathused_[j]._left == __quotes[i])\n                ) break;\n            // we jump to next if used\n            if (j < pathused_.length) continue;\n\n            // did we found the resolution\n            if (__quotes[i] == dest_) {\n                QuoteInfo storage _quote = _quotes[\n                    keccak256(abi.encodePacked(current_, dest_))\n                ];\n                if (\n                    (_quote._source != QuoteSource.ComplexStatic) &&\n                    (_quote._source != QuoteSource.ComplexDynamic)\n                ) {\n                    QuoteRef[] memory newresolution_ = new QuoteRef[](\n                        pathused_.length + 1\n                    );\n                    // returns the path + this node\n                    for (j = 0; j < pathused_.length; j++)\n                        newresolution_[j] = pathused_[j];\n                    newresolution_[j]._left = current_;\n                    newresolution_[j]._right = dest_;\n\n                    QuoteRef[][] memory newcomplex_ = new QuoteRef[][](\n                        complex_.length + 1\n                    );\n                    for (j = 0; j < complex_.length; j++)\n                        newcomplex_[j] = complex_[j];\n                    newcomplex_[complex_.length] = newresolution_;\n\n                    complex_ = newcomplex_;\n                }\n            }\n            if (callstack_ == 0)\n                // we stop because if we did the max recursive, we break to check the opposite conversion if possible\n                break;\n            // we call recursive add our node to path\n            QuoteRef[] memory _newpathused = new QuoteRef[](\n                pathused_.length + 1\n            );\n            for (j = 0; j < pathused_.length; j++)\n                _newpathused[j] = pathused_[j];\n            _newpathused[j]._left = current_;\n            _newpathused[j]._right = __quotes[i];\n            QuoteRef[][] memory childcomplex_ = __complexSearch(\n                __quotes[i],\n                dest_,\n                callstack_ - 1,\n                _newpathused\n            );\n            if (childcomplex_.length > 0) {\n                QuoteRef[][] memory newcomplex_ = new QuoteRef[][](\n                    childcomplex_.length + complex_.length\n                );\n                for (j = 0; j < complex_.length; j++)\n                    newcomplex_[j] = complex_[j];\n                for (j = 0; j < childcomplex_.length; j++)\n                    newcomplex_[complex_.length + j] = childcomplex_[j];\n\n                complex_ = newcomplex_;\n            }\n        }\n\n        return complex_;\n    }\n\n    function complexSearch(address left_, address right_)\n        public\n        view\n        returns (QuoteRef[][] memory complex_)\n    {\n        return __complexSearch(left_, right_, MAXSTACKCALL, new QuoteRef[](0));\n    }\n\n    /*\n    function __complexRead(QuoteInfo memory quote_)\n        private\n        returns (uint256,uint256,uint256)\n    {\n        if (quote_._timestamp==block.number)\n            return (quote_._quotemin,quote_._quoteavg,quote_._quotemax);\n        (uint256 _quotemin,uint256 _quoteavg,uint256 _quotemax) = __complexReadOnly(quote_);\n        if (_quoteavg==0)\n        {\n            require(quote_._source == QuoteSource.ComplexDynamic,\"Quote Complex Static unresolved\");\n            //_quoteval = __complexSearchAndRead(quote_,_complexs[quote_._left][quote_._right]);\n        }\n        if (_quoteavg==0)\n        {\n            if (quote_._source == QuoteSource.ComplexDynamic)\n                clear(quote_._ref._left,quote_._ref._right);\n            return (0,0,0);\n        }\n        quote_._quotemin = _quotemin;\n        quote_._quoteavg = _quoteavg;\n        quote_._quotemax = _quotemax;\n        __set(quote_);\n        return (_quotemin,_quoteavg,_quotemax);\n    }*/\n\n    /////////////////////////////////////////////////////////////////////////////////////////\n    //      Quote\n    /////////////////////////////////////////////////////////////////////////////////////////\n    function readOnly(bytes32 left_, bytes32 right_)\n        public\n        view\n        returns (\n            uint256,\n            uint256,\n            uint256\n        )\n    {\n    }\n\n    function readOnly(address left_, address right_)\n        public\n        view\n        returns (\n            uint256,\n            uint256,\n            uint256\n        )\n    {\n        bytes32 _key = keccak256(abi.encodePacked(left_, right_));\n        uint256 _quotemin = 0;\n        uint256 _quoteavg = 0;\n        uint256 _quotemax = 0;\n        QuoteInfo memory _quote = _quotes[_key];\n        if (_quote._source == QuoteSource.ChainLink)\n            (_quotemin, _quoteavg, _quotemax) = __chainlinkReadOnly(_quote);\n        else if (_quote._source == QuoteSource.Static)\n            (_quotemin, _quoteavg, _quotemax) = __staticRead(_quote);\n        else if (_quote._source == QuoteSource.Internal)\n            (_quotemin, _quoteavg, _quotemax) = __internalRead(_quote);\n        //else if (_quote._source == QuoteSource.ComplexStatic ||_quote._source == QuoteSource.ComplexDynamic)\n        //    return __complexReadOnly(_quote);\n        if (_quoteavg != 0) {\n            return (_quotemin, _quoteavg, _quotemax);\n        }\n\n        _key = keccak256(abi.encodePacked(right_, left_));\n        _quote = _quotes[_key];\n        _quotemin = 0;\n        _quoteavg = 0;\n        _quotemax = 0;\n        if (_quote._source == QuoteSource.ChainLink)\n            (_quotemin, _quoteavg, _quotemax) = __chainlinkReadOnly(_quote);\n        else if (_quote._source == QuoteSource.Static)\n            (_quotemin, _quoteavg, _quotemax) = __staticRead(_quote);\n        else if (_quote._source == QuoteSource.Internal)\n            (_quotemin, _quoteavg, _quotemax) = __internalRead(_quote);\n        //else if (_quote._source == QuoteSource.ComplexStatic ||_quote._source == QuoteSource.ComplexDynamic)\n        //    (_quotemin,_quoteavg,_quotemax) = __complexReadOnly(_quote);\n        if (_quoteavg == 0) return (0, 0, 0);\n        _quotemin = 10**36 / _quotemin;\n        _quoteavg = 10**36 / _quoteavg;\n        _quotemax = 10**36 / _quotemax;\n        return (_quotemin, _quoteavg, _quotemax);\n    }\n\n    function read(bytes32 left_, bytes32 right_)\n        public\n        returns (\n            uint256,\n            uint256,\n            uint256\n        )\n    {\n\n    }\n    function read(address left_, address right_)\n        public\n        returns (\n            uint256,\n            uint256,\n            uint256\n        )\n    {\n        bytes32 _key = keccak256(abi.encodePacked(left_, right_));\n        QuoteInfo storage _quote = _quotes[_key];\n        if (_quote._timestamp == bytes4(bytes32(block.number))) {\n            emit Resolved(left_, right_);\n            return (\n                UInt64ToUInt256(_quote._quotemin),\n                UInt64ToUInt256(_quote._quoteavg),\n                UInt64ToUInt256(_quote._quotemax)\n            );\n        }\n        uint256 _quotemin = 0;\n        uint256 _quoteavg = 0;\n        uint256 _quotemax = 0;\n        if (_quote._source == QuoteSource.ChainLink)\n            (_quotemin, _quoteavg, _quotemax) = __chainlinkRead(_quote);\n        else if (_quote._source == QuoteSource.Static)\n            (_quotemin, _quoteavg, _quotemax) = __staticRead(_quote);\n        else if (_quote._source == QuoteSource.Internal)\n            (_quotemin, _quoteavg, _quotemax) = __internalRead(_quote);\n        //else if (_quote._source == QuoteSource.ComplexStatic ||_quote._source == QuoteSource.ComplexDynamic)\n        //    (_quotemin,_quoteavg,_quotemax) =  __complexRead(_quote);\n        if (_quoteavg != 0) {\n            emit Resolved(left_, right_);\n            return (_quotemin, _quoteavg, _quotemax);\n        }\n        _key = keccak256(abi.encodePacked(right_, left_));\n        _quote = _quotes[_key];\n        _quotemin = 0;\n        _quoteavg = 0;\n        _quotemax = 0;\n        if (_quote._source == QuoteSource.ChainLink)\n            (_quotemin, _quoteavg, _quotemax) = __chainlinkRead(_quote);\n        else if (_quote._source == QuoteSource.Static)\n            (_quotemin, _quoteavg, _quotemax) = __staticRead(_quote);\n        else if (_quote._source == QuoteSource.Internal)\n            (_quotemin, _quoteavg, _quotemax) = __internalRead(_quote);\n        //else if (_quote._source == QuoteSource.ComplexStatic ||_quote._source == QuoteSource.ComplexDynamic)\n        //    (_quotemin,_quoteavg,_quotemax) = __complexRead(_quote);\n        if (_quoteavg == 0) {\n            emit Unresolved(left_, right_);\n            return (0, 0, 0);\n        }\n        _quotemin = 10**36 / _quotemin;\n        _quoteavg = 10**36 / _quoteavg;\n        _quotemax = 10**36 / _quotemax;\n        emit Resolved(left_, right_);\n        return (_quotemin, _quoteavg, _quotemax);\n    }\n\n    function convert(uint256 val_, uint256 quote_)\n        public\n        pure\n        returns (uint256)\n    {\n        return (val_ * quote_) / 10**18;\n    }\n}\n","sourcePath":"contracts/Quote/Quotator.sol","deployment":{"address":"0x80a599e7E6c36e85B836277986B592Ffc9d5e1d1","chainid":"9997","blockHeight":12732}}