{"bytecode":"60a060405234801561001057600080fd5b5060405161139638038061139683398101604081905261002f916100a6565b806100393361004b565b6001600160a01b0316608052506100d6565b600080546001600160a01b038381166201000081810262010000600160b01b0319851617855560405193049190911692909183917f8be0079c531659141344cd1fd0a4f28419497f9722a3daafe3b4186f6b6457e091a35050565b6000602082840312156100b857600080fd5b81516001600160a01b03811681146100cf57600080fd5b9392505050565b6080516112826101146000396000818161039201528181610458015281816104f60152818161070a015281816107ab0152610f1701526112826000f3fe60806040526004361061011f5760003560e01c80639507d39a116100a0578063d693585811610064578063d6935858146103b4578063ddca3f43146103c9578063e5225381146103de578063f2fde38b146103f3578063f9c016d7146104135761011f565b80639507d39a146102fd57806397962076146103105780639e89a3531461032d578063af640d0f1461034d578063ccc07959146103805761011f565b806369fe0e2d116100e757806369fe0e2d14610266578063715018a61461028657806372ea61bf1461029b578063854ba99d146102b05780638da5cb5b146102c55761011f565b806301ffc9a7146101b157806305d6bd9c146101e657806306661abd146101fd5780632f54bf6e1461021c5780635bf3b5c714610251575b34801561012b57600080fd5b50610134610433565b60006101446024600436846110ad565b8080601f016020809104026020016040519081016040528093929190818152602001838380828437600092018290525060208501519495509250503660231981019150601f19016004838037816024600437600080826000875af4925050506101ac816105fd565b505050005b3480156101bd57600080fd5b506101d16101cc3660046110d7565b610617565b60405190151581526020015b60405180910390f35b3480156101f257600080fd5b506101fb61064e565b005b34801561020957600080fd5b506004545b6040519081526020016101dd565b34801561022857600080fd5b506101d1610237366004611108565b6000546201000090046001600160a01b0390811691161490565b34801561025d57600080fd5b506101fb610665565b34801561027257600080fd5b506101fb610281366004611131565b61067a565b34801561029257600080fd5b506101fb610687565b3480156102a757600080fd5b506101fb610699565b3480156102bc57600080fd5b506101d16106b3565b3480156102d157600080fd5b506000546201000090046001600160a01b03165b6040516001600160a01b0390911681526020016101dd565b61020e61030b366004611131565b6106d1565b34801561031c57600080fd5b50600054610100900460ff166101d1565b34801561033957600080fd5b506101fb61034836600461114a565b610c0b565b34801561035957600080fd5b507f02dfe2d0485b616b61db1800f30f4a14b26754b328fa09ba4ec73ee7276766cc61020e565b34801561038c57600080fd5b506102e57f000000000000000000000000000000000000000000000000000000000000000081565b3480156103c057600080fd5b506101fb610c44565b3480156103d557600080fd5b5060015461020e565b3480156103ea57600080fd5b506101fb610c60565b3480156103ff57600080fd5b506101fb61040e366004611108565b610c97565b34801561041f57600080fd5b5061020e61042e366004611131565b610d0d565b6000546001600160a01b0362010000909104163314806104e657506001600160a01b037f0000000000000000000000000000000000000000000000000000000000000000166316279055336040516001600160e01b031960e084901b1681526001600160a01b039091166004820152602401602060405180830381865afa1580156104c2573d6000803e3d6000fd5b505050506040513d601f19601f820116820180604052508101906104e69190611175565b8061058457506001600160a01b037f000000000000000000000000000000000000000000000000000000000000000016636d70f7ae336040516001600160e01b031960e084901b1681526001600160a01b039091166004820152602401602060405180830381865afa158015610560573d6000803e3d6000fd5b505050506040513d601f19601f820116820180604052508101906105849190611175565b6105fb5760405162461bcd60e51b815260206004820152603960248201527f416c6c6f77616e63653a2063616c6c6572206d757374206265205265706f736960448201527f746f727920436f6e7472616374206f72204f70657261746f720000000000000060648201526084015b60405180910390fd5b565b3d6000803e80801561060e573d6000f35b3d6000fd5b5050565b60006001600160e01b031982166301ffc9a760e01b148061064857506001600160e01b031982166315d3789560e31b145b92915050565b610656610433565b6105fb6000805460ff19169055565b61066d610e91565b6002546003556000600455565b610682610ef2565b600155565b61068f610e91565b6105fb6000611007565b6106a1610433565b6105fb6000805460ff19166001179055565b6000805460ff16806106cc5750600054610100900460ff165b905090565b600080546201000090046001600160a01b03166001600160a01b0316336001600160a01b03161415801561079a57506001600160a01b037f0000000000000000000000000000000000000000000000000000000000000000166316279055336040516001600160e01b031960e084901b1681526001600160a01b039091166004820152602401602060405180830381865afa158015610774573d6000803e3d6000fd5b505050506040513d601f19601f820116820180604052508101906107989190611175565b155b801561083b57506001600160a01b037f000000000000000000000000000000000000000000000000000000000000000016636d70f7ae336040516001600160e01b031960e084901b1681526001600160a01b039091166004820152602401602060405180830381865afa158015610815573d6000803e3d6000fd5b505050506040513d601f19601f820116820180604052508101906108399190611175565b155b156109065760015461087e5760405162461bcd60e51b815260206004820152600c60248201526b19195cd858dd1a5d985d195960a21b60448201526064016105f2565b6001543410156108bf5760405162461bcd60e51b815260206004820152600c60248201526b4d757374207061792066656560a01b60448201526064016105f2565b6001543411156109065760015433906108fc906108dc90346111ad565b6040518115909202916000818181858888f19350505050158015610904573d6000803e3d6000fd5b505b6000600a4311610917576001610922565b610922600a436111ad565b90505b438110156109765782814060405160200161094a929190918252602082015260400190565b60408051601f19818403018152919052805160209091012092508061096e816111c4565b915050610925565b50600554604051610994918491602001918252602082015260400190565b60408051601f198184030181529190528051602090910120915060006109bc610100846111f5565b905060045460001415610a4557600060038190555b6002548110156109fc57600081815260066020526040812055806109f4816111c4565b9150506109d1565b50600254610a0c90610100611217565b60048190556040519081527f4fb4e4d112bce25d0aca6bdd84e71d7d25c103050c44fa82d66c6e954b2a15189060200160405180910390a15b60005b6101008160ff161015610bcc57600354818303905b600254811015610bc257600081815260066020526040902054600160ff84161b16610bba5760008181526006602090815260408083208054600160ff881690811b9091179091556007909252909120906101008110610abe57610abe611236565b015495506000600a4311610ad3576001610ad8565b600a43035b90505b43811015610b2257868140604051602001610b00929190918252602082015260400190565b60408051601f1981840301815291905280516020909101209650600101610adb565b506005869055600480546000190190555b6003546000908152600660205260409020546000191415610b5c57600380546001019055610b33565b61010060045481610b6f57610b6f6111df565b06610bb0577f387fd79753e961348c50d7984a0e877322575e20fa9d38ad8e88747e65c893f3600454604051610ba791815260200190565b60405180910390a15b5093949350505050565b600101610a5d565b5050600101610a48565b5060405162461bcd60e51b81526020600482015260136024820152726e6f2072616e646f6d20617661696c61626c6560681b60448201526064016105f2565b610c13610ef2565b6004805461010090810190915560028054600181019091556000908152600760205260409020610613918390611062565b610c4c610e91565b6105fb6000805461ff001916610100179055565b610c68610ef2565b60405133904780156108fc02916000818181858888f19350505050158015610c94573d6000803e3d6000fd5b50565b610c9f610e91565b6001600160a01b038116610d045760405162461bcd60e51b815260206004820152602660248201527f4f776e61626c653a206e6577206f776e657220697320746865207a65726f206160448201526564647265737360d01b60648201526084016105f2565b610c9481611007565b60008060144311610d1f576001610d2a565b610d2a6014436111ad565b90505b43811015610d7e57828140604051602001610d52929190918252602082015260400190565b60408051601f198184030181529190528051602090910120925080610d76816111c4565b915050610d2d565b50600554604051610d9c918491602001918252602082015260400190565b6040516020818303038152906040528051906020012060001c915060025460035414610e8d576000600254610100028381610dd957610dd96111df565b0660ff169050600760006101008381610df457610df46111df565b0481526020019081526020016000206101008281610e1457610e146111df565b066101008110610e2657610e26611236565b01549250600060144311610e3b576001610e40565b601443035b90505b43811015610e8a57838140604051602001610e68929190918252602082015260400190565b60408051601f1981840301815291905280516020909101209350600101610e43565b50505b5090565b6000546001600160a01b03620100009091041633146105fb5760405162461bcd60e51b815260206004820152601f60248201527f416c6c6f77616e63653a2063616c6c6572206d757374206265204f776e65720060448201526064016105f2565b6000546001600160a01b036201000090910416331480610fa557506001600160a01b037f000000000000000000000000000000000000000000000000000000000000000016636d70f7ae336040516001600160e01b031960e084901b1681526001600160a01b039091166004820152602401602060405180830381865afa158015610f81573d6000803e3d6000fd5b505050506040513d601f19601f82011682018060405250810190610fa59190611175565b6105fb5760405162461bcd60e51b815260206004820152602d60248201527f416c6c6f77616e63653a2063616c6c6572206d757374206265205265706f736960448201526c3a37b93c9027b832b930ba37b960991b60648201526084016105f2565b600080546001600160a01b038381166201000081810262010000600160b01b0319851617855560405193049190911692909183917f8be0079c531659141344cd1fd0a4f28419497f9722a3daafe3b4186f6b6457e091a35050565b826101008101928215611091579160200282015b82811115611091578235825591602001919060010190611076565b50610e8d9291505b80821115610e8d5760008155600101611099565b600080858511156110bd57600080fd5b838611156110ca57600080fd5b5050820193919092039150565b6000602082840312156110e957600080fd5b81356001600160e01b03198116811461110157600080fd5b9392505050565b60006020828403121561111a57600080fd5b81356001600160a01b038116811461110157600080fd5b60006020828403121561114357600080fd5b5035919050565b600061200080838503121561115e57600080fd5b83818401111561116d57600080fd5b509092915050565b60006020828403121561118757600080fd5b8151801515811461110157600080fd5b634e487b7160e01b600052601160045260246000fd5b6000828210156111bf576111bf611197565b500390565b60006000198214156111d8576111d8611197565b5060010190565b634e487b7160e01b600052601260045260246000fd5b60008261121257634e487b7160e01b600052601260045260246000fd5b500690565b600081600019048311821515161561123157611231611197565b500290565b634e487b7160e01b600052603260045260246000fdfea2646970667358221220a93dd0e266503c1e62318221ffe883d77d72175b1692fa96b9e1a8c6e324c5b264736f6c634300080b0033","bytecodeSha1":"b92056244b9701ae18675729c0a6ad925b892c31","type":"contract","abi":[{"inputs":[{"internalType":"contract Repository","name":"rep_","type":"address"}],"stateMutability":"nonpayable","type":"constructor","name":"constructor"},{"anonymous":false,"inputs":[{"indexed":true,"internalType":"address","name":"previousOwner","type":"address"},{"indexed":true,"internalType":"address","name":"newOwner","type":"address"}],"name":"OwnershipTransferred","type":"event"},{"anonymous":false,"inputs":[{"indexed":false,"internalType":"uint256","name":"count","type":"uint256"}],"name":"RandomRemaining","type":"event"},{"anonymous":false,"inputs":[{"indexed":false,"internalType":"uint256","name":"count","type":"uint256"}],"name":"RandomReset","type":"event"},{"stateMutability":"nonpayable","type":"fallback"},{"inputs":[],"name":"STOP","outputs":[{"internalType":"bool","name":"","type":"bool"}],"stateMutability":"view","type":"function"},{"inputs":[],"name":"STOPFOREVER","outputs":[{"internalType":"bool","name":"","type":"bool"}],"stateMutability":"view","type":"function"},{"inputs":[{"internalType":"uint256[256]","name":"newrandoms_","type":"uint256[256]"}],"name":"add","outputs":[],"stateMutability":"nonpayable","type":"function"},{"inputs":[],"name":"collect","outputs":[],"stateMutability":"nonpayable","type":"function"},{"inputs":[],"name":"count","outputs":[{"internalType":"uint256","name":"","type":"uint256"}],"stateMutability":"view","type":"function"},{"inputs":[],"name":"fee","outputs":[{"internalType":"uint256","name":"","type":"uint256"}],"stateMutability":"view","type":"function"},{"inputs":[{"internalType":"uint256","name":"random_","type":"uint256"}],"name":"get","outputs":[{"internalType":"uint256","name":"","type":"uint256"}],"stateMutability":"payable","type":"function"},{"inputs":[{"internalType":"uint256","name":"random_","type":"uint256"}],"name":"getfree","outputs":[{"internalType":"uint256","name":"","type":"uint256"}],"stateMutability":"view","type":"function"},{"inputs":[],"name":"id","outputs":[{"internalType":"bytes32","name":"","type":"bytes32"}],"stateMutability":"view","type":"function"},{"inputs":[{"internalType":"address","name":"caller_","type":"address"}],"name":"isOwner","outputs":[{"internalType":"bool","name":"","type":"bool"}],"stateMutability":"view","type":"function"},{"inputs":[],"name":"owner","outputs":[{"internalType":"address","name":"","type":"address"}],"stateMutability":"view","type":"function"},{"inputs":[],"name":"purgeall","outputs":[],"stateMutability":"nonpayable","type":"function"},{"inputs":[],"name":"renounceOwnership","outputs":[],"stateMutability":"nonpayable","type":"function"},{"inputs":[],"name":"rep","outputs":[{"internalType":"contract Repository","name":"","type":"address"}],"stateMutability":"view","type":"function"},{"inputs":[{"internalType":"uint256","name":"fee_","type":"uint256"}],"name":"setFee","outputs":[],"stateMutability":"nonpayable","type":"function"},{"inputs":[],"name":"setSTOP","outputs":[],"stateMutability":"nonpayable","type":"function"},{"inputs":[],"name":"setSTOPFOREVER","outputs":[],"stateMutability":"nonpayable","type":"function"},{"inputs":[{"internalType":"bytes4","name":"interfaceId","type":"bytes4"}],"name":"supportsInterface","outputs":[{"internalType":"bool","name":"","type":"bool"}],"stateMutability":"view","type":"function"},{"inputs":[{"internalType":"address","name":"newOwner","type":"address"}],"name":"transferOwnership","outputs":[],"stateMutability":"nonpayable","type":"function"},{"inputs":[],"name":"unsetSTOP","outputs":[],"stateMutability":"nonpayable","type":"function"}],"compiler":{"version":"0.8.11+commit.d7f03943","evm_version":"istanbul","optimizer":{"enabled":true,"runs":200}},"contractName":"Random","language":"Solidity","natspec":{"methods":{"ownerOf()":{"details":"Returns the address of the current owner."},"renounceOwnership()":{"details":"Leaves the contract without owner. It will not be possible to call `onlyOwner` functions anymore. Can only be called by the current owner. NOTE: Renouncing ownership will leave the contract without an owner, thereby removing any functionality that is only available to the owner."},"supportsInterface(bytes4)":{"details":"Returns true if this contract implements the interface defined by `interfaceId`. See the corresponding https://eips.ethereum.org/EIPS/eip-165#how-interfaces-are-identified[EIP section] to learn more about how these ids are created. This function call must use less than 30 000 gas."},"transferOwnership(address)":{"details":"Transfers ownership of the contract to a new account (`newOwner`). Can only be called by the current owner."}},"kind":"dev","version":1},"opcodes":"PUSH1 0x80 PUSH1 0x40 MSTORE PUSH1 0x4 CALLDATASIZE LT PUSH2 0x11F JUMPI PUSH1 0x0 CALLDATALOAD PUSH1 0xE0 SHR DUP1 PUSH4 0x9507D39A GT PUSH2 0xA0 JUMPI DUP1 PUSH4 0xD6935858 GT PUSH2 0x64 JUMPI DUP1 PUSH4 0xD6935858 EQ PUSH2 0x3B4 JUMPI DUP1 PUSH4 0xDDCA3F43 EQ PUSH2 0x3C9 JUMPI DUP1 PUSH4 0xE5225381 EQ PUSH2 0x3DE JUMPI DUP1 PUSH4 0xF2FDE38B EQ PUSH2 0x3F3 JUMPI DUP1 PUSH4 0xF9C016D7 EQ PUSH2 0x413 JUMPI PUSH2 0x11F JUMP JUMPDEST DUP1 PUSH4 0x9507D39A EQ PUSH2 0x2FD JUMPI DUP1 PUSH4 0x97962076 EQ PUSH2 0x310 JUMPI DUP1 PUSH4 0x9E89A353 EQ PUSH2 0x32D JUMPI DUP1 PUSH4 0xAF640D0F EQ PUSH2 0x34D JUMPI DUP1 PUSH4 0xCCC07959 EQ PUSH2 0x380 JUMPI PUSH2 0x11F JUMP JUMPDEST DUP1 PUSH4 0x69FE0E2D GT PUSH2 0xE7 JUMPI DUP1 PUSH4 0x69FE0E2D EQ PUSH2 0x266 JUMPI DUP1 PUSH4 0x715018A6 EQ PUSH2 0x286 JUMPI DUP1 PUSH4 0x72EA61BF EQ PUSH2 0x29B JUMPI DUP1 PUSH4 0x854BA99D EQ PUSH2 0x2B0 JUMPI DUP1 PUSH4 0x8DA5CB5B EQ PUSH2 0x2C5 JUMPI PUSH2 0x11F JUMP JUMPDEST DUP1 PUSH4 0x1FFC9A7 EQ PUSH2 0x1B1 JUMPI DUP1 PUSH4 0x5D6BD9C EQ PUSH2 0x1E6 JUMPI DUP1 PUSH4 0x6661ABD EQ PUSH2 0x1FD JUMPI DUP1 PUSH4 0x2F54BF6E EQ PUSH2 0x21C JUMPI DUP1 PUSH4 0x5BF3B5C7 EQ PUSH2 0x251 JUMPI JUMPDEST CALLVALUE DUP1 ISZERO PUSH2 0x12B JUMPI PUSH1 0x0 DUP1 REVERT JUMPDEST POP PUSH2 0x134 PUSH2 0x433 JUMP JUMPDEST PUSH1 0x0 PUSH2 0x144 PUSH1 0x24 PUSH1 0x4 CALLDATASIZE DUP5 PUSH2 0x10AD JUMP JUMPDEST DUP1 DUP1 PUSH1 0x1F ADD PUSH1 0x20 DUP1 SWAP2 DIV MUL PUSH1 0x20 ADD PUSH1 0x40 MLOAD SWAP1 DUP2 ADD PUSH1 0x40 MSTORE DUP1 SWAP4 SWAP3 SWAP2 SWAP1 DUP2 DUP2 MSTORE PUSH1 0x20 ADD DUP4 DUP4 DUP1 DUP3 DUP5 CALLDATACOPY PUSH1 0x0 SWAP3 ADD DUP3 SWAP1 MSTORE POP PUSH1 0x20 DUP6 ADD MLOAD SWAP5 SWAP6 POP SWAP3 POP POP CALLDATASIZE PUSH1 0x23 NOT DUP2 ADD SWAP2 POP PUSH1 0x1F NOT ADD PUSH1 0x4 DUP4 DUP1 CALLDATACOPY DUP2 PUSH1 0x24 PUSH1 0x4 CALLDATACOPY PUSH1 0x0 DUP1 DUP3 PUSH1 0x0 DUP8 GAS DELEGATECALL SWAP3 POP POP POP PUSH2 0x1AC DUP2 PUSH2 0x5FD JUMP JUMPDEST POP POP POP STOP JUMPDEST CALLVALUE DUP1 ISZERO PUSH2 0x1BD JUMPI PUSH1 0x0 DUP1 REVERT JUMPDEST POP PUSH2 0x1D1 PUSH2 0x1CC CALLDATASIZE PUSH1 0x4 PUSH2 0x10D7 JUMP JUMPDEST PUSH2 0x617 JUMP JUMPDEST PUSH1 0x40 MLOAD SWAP1 ISZERO ISZERO DUP2 MSTORE PUSH1 0x20 ADD JUMPDEST PUSH1 0x40 MLOAD DUP1 SWAP2 SUB SWAP1 RETURN JUMPDEST CALLVALUE DUP1 ISZERO PUSH2 0x1F2 JUMPI PUSH1 0x0 DUP1 REVERT JUMPDEST POP PUSH2 0x1FB PUSH2 0x64E JUMP JUMPDEST STOP JUMPDEST CALLVALUE DUP1 ISZERO PUSH2 0x209 JUMPI PUSH1 0x0 DUP1 REVERT JUMPDEST POP PUSH1 0x4 SLOAD JUMPDEST PUSH1 0x40 MLOAD SWAP1 DUP2 MSTORE PUSH1 0x20 ADD PUSH2 0x1DD JUMP JUMPDEST CALLVALUE DUP1 ISZERO PUSH2 0x228 JUMPI PUSH1 0x0 DUP1 REVERT JUMPDEST POP PUSH2 0x1D1 PUSH2 0x237 CALLDATASIZE PUSH1 0x4 PUSH2 0x1108 JUMP JUMPDEST PUSH1 0x0 SLOAD PUSH3 0x10000 SWAP1 DIV PUSH1 0x1 PUSH1 0x1 PUSH1 0xA0 SHL SUB SWAP1 DUP2 AND SWAP2 AND EQ SWAP1 JUMP JUMPDEST CALLVALUE DUP1 ISZERO PUSH2 0x25D JUMPI PUSH1 0x0 DUP1 REVERT JUMPDEST POP PUSH2 0x1FB PUSH2 0x665 JUMP JUMPDEST CALLVALUE DUP1 ISZERO PUSH2 0x272 JUMPI PUSH1 0x0 DUP1 REVERT JUMPDEST POP PUSH2 0x1FB PUSH2 0x281 CALLDATASIZE PUSH1 0x4 PUSH2 0x1131 JUMP JUMPDEST PUSH2 0x67A JUMP JUMPDEST CALLVALUE DUP1 ISZERO PUSH2 0x292 JUMPI PUSH1 0x0 DUP1 REVERT JUMPDEST POP PUSH2 0x1FB PUSH2 0x687 JUMP JUMPDEST CALLVALUE DUP1 ISZERO PUSH2 0x2A7 JUMPI PUSH1 0x0 DUP1 REVERT JUMPDEST POP PUSH2 0x1FB PUSH2 0x699 JUMP JUMPDEST CALLVALUE DUP1 ISZERO PUSH2 0x2BC JUMPI PUSH1 0x0 DUP1 REVERT JUMPDEST POP PUSH2 0x1D1 PUSH2 0x6B3 JUMP JUMPDEST CALLVALUE DUP1 ISZERO PUSH2 0x2D1 JUMPI PUSH1 0x0 DUP1 REVERT JUMPDEST POP PUSH1 0x0 SLOAD PUSH3 0x10000 SWAP1 DIV PUSH1 0x1 PUSH1 0x1 PUSH1 0xA0 SHL SUB AND JUMPDEST PUSH1 0x40 MLOAD PUSH1 0x1 PUSH1 0x1 PUSH1 0xA0 SHL SUB SWAP1 SWAP2 AND DUP2 MSTORE PUSH1 0x20 ADD PUSH2 0x1DD JUMP JUMPDEST PUSH2 0x20E PUSH2 0x30B CALLDATASIZE PUSH1 0x4 PUSH2 0x1131 JUMP JUMPDEST PUSH2 0x6D1 JUMP JUMPDEST CALLVALUE DUP1 ISZERO PUSH2 0x31C JUMPI PUSH1 0x0 DUP1 REVERT JUMPDEST POP PUSH1 0x0 SLOAD PUSH2 0x100 SWAP1 DIV PUSH1 0xFF AND PUSH2 0x1D1 JUMP JUMPDEST CALLVALUE DUP1 ISZERO PUSH2 0x339 JUMPI PUSH1 0x0 DUP1 REVERT JUMPDEST POP PUSH2 0x1FB PUSH2 0x348 CALLDATASIZE PUSH1 0x4 PUSH2 0x114A JUMP JUMPDEST PUSH2 0xC0B JUMP JUMPDEST CALLVALUE DUP1 ISZERO PUSH2 0x359 JUMPI PUSH1 0x0 DUP1 REVERT JUMPDEST POP PUSH32 0x2DFE2D0485B616B61DB1800F30F4A14B26754B328FA09BA4EC73EE7276766CC PUSH2 0x20E JUMP JUMPDEST CALLVALUE DUP1 ISZERO PUSH2 0x38C JUMPI PUSH1 0x0 DUP1 REVERT JUMPDEST POP PUSH2 0x2E5 PUSH32 0x0 DUP2 JUMP JUMPDEST CALLVALUE DUP1 ISZERO PUSH2 0x3C0 JUMPI PUSH1 0x0 DUP1 REVERT JUMPDEST POP PUSH2 0x1FB PUSH2 0xC44 JUMP JUMPDEST CALLVALUE DUP1 ISZERO PUSH2 0x3D5 JUMPI PUSH1 0x0 DUP1 REVERT JUMPDEST POP PUSH1 0x1 SLOAD PUSH2 0x20E JUMP JUMPDEST CALLVALUE DUP1 ISZERO PUSH2 0x3EA JUMPI PUSH1 0x0 DUP1 REVERT JUMPDEST POP PUSH2 0x1FB PUSH2 0xC60 JUMP JUMPDEST CALLVALUE DUP1 ISZERO PUSH2 0x3FF JUMPI PUSH1 0x0 DUP1 REVERT JUMPDEST POP PUSH2 0x1FB PUSH2 0x40E CALLDATASIZE PUSH1 0x4 PUSH2 0x1108 JUMP JUMPDEST PUSH2 0xC97 JUMP JUMPDEST CALLVALUE DUP1 ISZERO PUSH2 0x41F JUMPI PUSH1 0x0 DUP1 REVERT JUMPDEST POP PUSH2 0x20E PUSH2 0x42E CALLDATASIZE PUSH1 0x4 PUSH2 0x1131 JUMP JUMPDEST PUSH2 0xD0D JUMP JUMPDEST PUSH1 0x0 SLOAD PUSH1 0x1 PUSH1 0x1 PUSH1 0xA0 SHL SUB PUSH3 0x10000 SWAP1 SWAP2 DIV AND CALLER EQ DUP1 PUSH2 0x4E6 JUMPI POP PUSH1 0x1 PUSH1 0x1 PUSH1 0xA0 SHL SUB PUSH32 0x0 AND PUSH4 0x16279055 CALLER PUSH1 0x40 MLOAD PUSH1 0x1 PUSH1 0x1 PUSH1 0xE0 SHL SUB NOT PUSH1 0xE0 DUP5 SWAP1 SHL AND DUP2 MSTORE PUSH1 0x1 PUSH1 0x1 PUSH1 0xA0 SHL SUB SWAP1 SWAP2 AND PUSH1 0x4 DUP3 ADD MSTORE PUSH1 0x24 ADD PUSH1 0x20 PUSH1 0x40 MLOAD DUP1 DUP4 SUB DUP2 DUP7 GAS STATICCALL ISZERO DUP1 ISZERO PUSH2 0x4C2 JUMPI RETURNDATASIZE PUSH1 0x0 DUP1 RETURNDATACOPY RETURNDATASIZE PUSH1 0x0 REVERT JUMPDEST POP POP POP POP PUSH1 0x40 MLOAD RETURNDATASIZE PUSH1 0x1F NOT PUSH1 0x1F DUP3 ADD AND DUP3 ADD DUP1 PUSH1 0x40 MSTORE POP DUP2 ADD SWAP1 PUSH2 0x4E6 SWAP2 SWAP1 PUSH2 0x1175 JUMP JUMPDEST DUP1 PUSH2 0x584 JUMPI POP PUSH1 0x1 PUSH1 0x1 PUSH1 0xA0 SHL SUB PUSH32 0x0 AND PUSH4 0x6D70F7AE CALLER PUSH1 0x40 MLOAD PUSH1 0x1 PUSH1 0x1 PUSH1 0xE0 SHL SUB NOT PUSH1 0xE0 DUP5 SWAP1 SHL AND DUP2 MSTORE PUSH1 0x1 PUSH1 0x1 PUSH1 0xA0 SHL SUB SWAP1 SWAP2 AND PUSH1 0x4 DUP3 ADD MSTORE PUSH1 0x24 ADD PUSH1 0x20 PUSH1 0x40 MLOAD DUP1 DUP4 SUB DUP2 DUP7 GAS STATICCALL ISZERO DUP1 ISZERO PUSH2 0x560 JUMPI RETURNDATASIZE PUSH1 0x0 DUP1 RETURNDATACOPY RETURNDATASIZE PUSH1 0x0 REVERT JUMPDEST POP POP POP POP PUSH1 0x40 MLOAD RETURNDATASIZE PUSH1 0x1F NOT PUSH1 0x1F DUP3 ADD AND DUP3 ADD DUP1 PUSH1 0x40 MSTORE POP DUP2 ADD SWAP1 PUSH2 0x584 SWAP2 SWAP1 PUSH2 0x1175 JUMP JUMPDEST PUSH2 0x5FB JUMPI PUSH1 0x40 MLOAD PUSH3 0x461BCD PUSH1 0xE5 SHL DUP2 MSTORE PUSH1 0x20 PUSH1 0x4 DUP3 ADD MSTORE PUSH1 0x39 PUSH1 0x24 DUP3 ADD MSTORE PUSH32 0x416C6C6F77616E63653A2063616C6C6572206D757374206265205265706F7369 PUSH1 0x44 DUP3 ADD MSTORE PUSH32 0x746F727920436F6E7472616374206F72204F70657261746F7200000000000000 PUSH1 0x64 DUP3 ADD MSTORE PUSH1 0x84 ADD JUMPDEST PUSH1 0x40 MLOAD DUP1 SWAP2 SUB SWAP1 REVERT JUMPDEST JUMP JUMPDEST RETURNDATASIZE PUSH1 0x0 DUP1 RETURNDATACOPY DUP1 DUP1 ISZERO PUSH2 0x60E JUMPI RETURNDATASIZE PUSH1 0x0 RETURN JUMPDEST RETURNDATASIZE PUSH1 0x0 REVERT JUMPDEST POP POP JUMP JUMPDEST PUSH1 0x0 PUSH1 0x1 PUSH1 0x1 PUSH1 0xE0 SHL SUB NOT DUP3 AND PUSH4 0x1FFC9A7 PUSH1 0xE0 SHL EQ DUP1 PUSH2 0x648 JUMPI POP PUSH1 0x1 PUSH1 0x1 PUSH1 0xE0 SHL SUB NOT DUP3 AND PUSH4 0x15D37895 PUSH1 0xE3 SHL EQ JUMPDEST SWAP3 SWAP2 POP POP JUMP JUMPDEST PUSH2 0x656 PUSH2 0x433 JUMP JUMPDEST PUSH2 0x5FB PUSH1 0x0 DUP1 SLOAD PUSH1 0xFF NOT AND SWAP1 SSTORE JUMP JUMPDEST PUSH2 0x66D PUSH2 0xE91 JUMP JUMPDEST PUSH1 0x2 SLOAD PUSH1 0x3 SSTORE PUSH1 0x0 PUSH1 0x4 SSTORE JUMP JUMPDEST PUSH2 0x682 PUSH2 0xEF2 JUMP JUMPDEST PUSH1 0x1 SSTORE JUMP JUMPDEST PUSH2 0x68F PUSH2 0xE91 JUMP JUMPDEST PUSH2 0x5FB PUSH1 0x0 PUSH2 0x1007 JUMP JUMPDEST PUSH2 0x6A1 PUSH2 0x433 JUMP JUMPDEST PUSH2 0x5FB PUSH1 0x0 DUP1 SLOAD PUSH1 0xFF NOT AND PUSH1 0x1 OR SWAP1 SSTORE JUMP JUMPDEST PUSH1 0x0 DUP1 SLOAD PUSH1 0xFF AND DUP1 PUSH2 0x6CC JUMPI POP PUSH1 0x0 SLOAD PUSH2 0x100 SWAP1 DIV PUSH1 0xFF AND JUMPDEST SWAP1 POP SWAP1 JUMP JUMPDEST PUSH1 0x0 DUP1 SLOAD PUSH3 0x10000 SWAP1 DIV PUSH1 0x1 PUSH1 0x1 PUSH1 0xA0 SHL SUB AND PUSH1 0x1 PUSH1 0x1 PUSH1 0xA0 SHL SUB AND CALLER PUSH1 0x1 PUSH1 0x1 PUSH1 0xA0 SHL SUB AND EQ ISZERO DUP1 ISZERO PUSH2 0x79A JUMPI POP PUSH1 0x1 PUSH1 0x1 PUSH1 0xA0 SHL SUB PUSH32 0x0 AND PUSH4 0x16279055 CALLER PUSH1 0x40 MLOAD PUSH1 0x1 PUSH1 0x1 PUSH1 0xE0 SHL SUB NOT PUSH1 0xE0 DUP5 SWAP1 SHL AND DUP2 MSTORE PUSH1 0x1 PUSH1 0x1 PUSH1 0xA0 SHL SUB SWAP1 SWAP2 AND PUSH1 0x4 DUP3 ADD MSTORE PUSH1 0x24 ADD PUSH1 0x20 PUSH1 0x40 MLOAD DUP1 DUP4 SUB DUP2 DUP7 GAS STATICCALL ISZERO DUP1 ISZERO PUSH2 0x774 JUMPI RETURNDATASIZE PUSH1 0x0 DUP1 RETURNDATACOPY RETURNDATASIZE PUSH1 0x0 REVERT JUMPDEST POP POP POP POP PUSH1 0x40 MLOAD RETURNDATASIZE PUSH1 0x1F NOT PUSH1 0x1F DUP3 ADD AND DUP3 ADD DUP1 PUSH1 0x40 MSTORE POP DUP2 ADD SWAP1 PUSH2 0x798 SWAP2 SWAP1 PUSH2 0x1175 JUMP JUMPDEST ISZERO JUMPDEST DUP1 ISZERO PUSH2 0x83B JUMPI POP PUSH1 0x1 PUSH1 0x1 PUSH1 0xA0 SHL SUB PUSH32 0x0 AND PUSH4 0x6D70F7AE CALLER PUSH1 0x40 MLOAD PUSH1 0x1 PUSH1 0x1 PUSH1 0xE0 SHL SUB NOT PUSH1 0xE0 DUP5 SWAP1 SHL AND DUP2 MSTORE PUSH1 0x1 PUSH1 0x1 PUSH1 0xA0 SHL SUB SWAP1 SWAP2 AND PUSH1 0x4 DUP3 ADD MSTORE PUSH1 0x24 ADD PUSH1 0x20 PUSH1 0x40 MLOAD DUP1 DUP4 SUB DUP2 DUP7 GAS STATICCALL ISZERO DUP1 ISZERO PUSH2 0x815 JUMPI RETURNDATASIZE PUSH1 0x0 DUP1 RETURNDATACOPY RETURNDATASIZE PUSH1 0x0 REVERT JUMPDEST POP POP POP POP PUSH1 0x40 MLOAD RETURNDATASIZE PUSH1 0x1F NOT PUSH1 0x1F DUP3 ADD AND DUP3 ADD DUP1 PUSH1 0x40 MSTORE POP DUP2 ADD SWAP1 PUSH2 0x839 SWAP2 SWAP1 PUSH2 0x1175 JUMP JUMPDEST ISZERO JUMPDEST ISZERO PUSH2 0x906 JUMPI PUSH1 0x1 SLOAD PUSH2 0x87E JUMPI PUSH1 0x40 MLOAD PUSH3 0x461BCD PUSH1 0xE5 SHL DUP2 MSTORE PUSH1 0x20 PUSH1 0x4 DUP3 ADD MSTORE PUSH1 0xC PUSH1 0x24 DUP3 ADD MSTORE PUSH12 0x19195CD858DD1A5D985D1959 PUSH1 0xA2 SHL PUSH1 0x44 DUP3 ADD MSTORE PUSH1 0x64 ADD PUSH2 0x5F2 JUMP JUMPDEST PUSH1 0x1 SLOAD CALLVALUE LT ISZERO PUSH2 0x8BF JUMPI PUSH1 0x40 MLOAD PUSH3 0x461BCD PUSH1 0xE5 SHL DUP2 MSTORE PUSH1 0x20 PUSH1 0x4 DUP3 ADD MSTORE PUSH1 0xC PUSH1 0x24 DUP3 ADD MSTORE PUSH12 0x4D7573742070617920666565 PUSH1 0xA0 SHL PUSH1 0x44 DUP3 ADD MSTORE PUSH1 0x64 ADD PUSH2 0x5F2 JUMP JUMPDEST PUSH1 0x1 SLOAD CALLVALUE GT ISZERO PUSH2 0x906 JUMPI PUSH1 0x1 SLOAD CALLER SWAP1 PUSH2 0x8FC SWAP1 PUSH2 0x8DC SWAP1 CALLVALUE PUSH2 0x11AD JUMP JUMPDEST PUSH1 0x40 MLOAD DUP2 ISZERO SWAP1 SWAP3 MUL SWAP2 PUSH1 0x0 DUP2 DUP2 DUP2 DUP6 DUP9 DUP9 CALL SWAP4 POP POP POP POP ISZERO DUP1 ISZERO PUSH2 0x904 JUMPI RETURNDATASIZE PUSH1 0x0 DUP1 RETURNDATACOPY RETURNDATASIZE PUSH1 0x0 REVERT JUMPDEST POP JUMPDEST PUSH1 0x0 PUSH1 0xA NUMBER GT PUSH2 0x917 JUMPI PUSH1 0x1 PUSH2 0x922 JUMP JUMPDEST PUSH2 0x922 PUSH1 0xA NUMBER PUSH2 0x11AD JUMP JUMPDEST SWAP1 POP JUMPDEST NUMBER DUP2 LT ISZERO PUSH2 0x976 JUMPI DUP3 DUP2 BLOCKHASH PUSH1 0x40 MLOAD PUSH1 0x20 ADD PUSH2 0x94A SWAP3 SWAP2 SWAP1 SWAP2 DUP3 MSTORE PUSH1 0x20 DUP3 ADD MSTORE PUSH1 0x40 ADD SWAP1 JUMP JUMPDEST PUSH1 0x40 DUP1 MLOAD PUSH1 0x1F NOT DUP2 DUP5 SUB ADD DUP2 MSTORE SWAP2 SWAP1 MSTORE DUP1 MLOAD PUSH1 0x20 SWAP1 SWAP2 ADD KECCAK256 SWAP3 POP DUP1 PUSH2 0x96E DUP2 PUSH2 0x11C4 JUMP JUMPDEST SWAP2 POP POP PUSH2 0x925 JUMP JUMPDEST POP PUSH1 0x5 SLOAD PUSH1 0x40 MLOAD PUSH2 0x994 SWAP2 DUP5 SWAP2 PUSH1 0x20 ADD SWAP2 DUP3 MSTORE PUSH1 0x20 DUP3 ADD MSTORE PUSH1 0x40 ADD SWAP1 JUMP JUMPDEST PUSH1 0x40 DUP1 MLOAD PUSH1 0x1F NOT DUP2 DUP5 SUB ADD DUP2 MSTORE SWAP2 SWAP1 MSTORE DUP1 MLOAD PUSH1 0x20 SWAP1 SWAP2 ADD KECCAK256 SWAP2 POP PUSH1 0x0 PUSH2 0x9BC PUSH2 0x100 DUP5 PUSH2 0x11F5 JUMP JUMPDEST SWAP1 POP PUSH1 0x4 SLOAD PUSH1 0x0 EQ ISZERO PUSH2 0xA45 JUMPI PUSH1 0x0 PUSH1 0x3 DUP2 SWAP1 SSTORE JUMPDEST PUSH1 0x2 SLOAD DUP2 LT ISZERO PUSH2 0x9FC JUMPI PUSH1 0x0 DUP2 DUP2 MSTORE PUSH1 0x6 PUSH1 0x20 MSTORE PUSH1 0x40 DUP2 KECCAK256 SSTORE DUP1 PUSH2 0x9F4 DUP2 PUSH2 0x11C4 JUMP JUMPDEST SWAP2 POP POP PUSH2 0x9D1 JUMP JUMPDEST POP PUSH1 0x2 SLOAD PUSH2 0xA0C SWAP1 PUSH2 0x100 PUSH2 0x1217 JUMP JUMPDEST PUSH1 0x4 DUP2 SWAP1 SSTORE PUSH1 0x40 MLOAD SWAP1 DUP2 MSTORE PUSH32 0x4FB4E4D112BCE25D0ACA6BDD84E71D7D25C103050C44FA82D66C6E954B2A1518 SWAP1 PUSH1 0x20 ADD PUSH1 0x40 MLOAD DUP1 SWAP2 SUB SWAP1 LOG1 JUMPDEST PUSH1 0x0 JUMPDEST PUSH2 0x100 DUP2 PUSH1 0xFF AND LT ISZERO PUSH2 0xBCC JUMPI PUSH1 0x3 SLOAD DUP2 DUP4 SUB SWAP1 JUMPDEST PUSH1 0x2 SLOAD DUP2 LT ISZERO PUSH2 0xBC2 JUMPI PUSH1 0x0 DUP2 DUP2 MSTORE PUSH1 0x6 PUSH1 0x20 MSTORE PUSH1 0x40 SWAP1 KECCAK256 SLOAD PUSH1 0x1 PUSH1 0xFF DUP5 AND SHL AND PUSH2 0xBBA JUMPI PUSH1 0x0 DUP2 DUP2 MSTORE PUSH1 0x6 PUSH1 0x20 SWAP1 DUP2 MSTORE PUSH1 0x40 DUP1 DUP4 KECCAK256 DUP1 SLOAD PUSH1 0x1 PUSH1 0xFF DUP9 AND SWAP1 DUP2 SHL SWAP1 SWAP2 OR SWAP1 SWAP2 SSTORE PUSH1 0x7 SWAP1 SWAP3 MSTORE SWAP1 SWAP2 KECCAK256 SWAP1 PUSH2 0x100 DUP2 LT PUSH2 0xABE JUMPI PUSH2 0xABE PUSH2 0x1236 JUMP JUMPDEST ADD SLOAD SWAP6 POP PUSH1 0x0 PUSH1 0xA NUMBER GT PUSH2 0xAD3 JUMPI PUSH1 0x1 PUSH2 0xAD8 JUMP JUMPDEST PUSH1 0xA NUMBER SUB JUMPDEST SWAP1 POP JUMPDEST NUMBER DUP2 LT ISZERO PUSH2 0xB22 JUMPI DUP7 DUP2 BLOCKHASH PUSH1 0x40 MLOAD PUSH1 0x20 ADD PUSH2 0xB00 SWAP3 SWAP2 SWAP1 SWAP2 DUP3 MSTORE PUSH1 0x20 DUP3 ADD MSTORE PUSH1 0x40 ADD SWAP1 JUMP JUMPDEST PUSH1 0x40 DUP1 MLOAD PUSH1 0x1F NOT DUP2 DUP5 SUB ADD DUP2 MSTORE SWAP2 SWAP1 MSTORE DUP1 MLOAD PUSH1 0x20 SWAP1 SWAP2 ADD KECCAK256 SWAP7 POP PUSH1 0x1 ADD PUSH2 0xADB JUMP JUMPDEST POP PUSH1 0x5 DUP7 SWAP1 SSTORE PUSH1 0x4 DUP1 SLOAD PUSH1 0x0 NOT ADD SWAP1 SSTORE JUMPDEST PUSH1 0x3 SLOAD PUSH1 0x0 SWAP1 DUP2 MSTORE PUSH1 0x6 PUSH1 0x20 MSTORE PUSH1 0x40 SWAP1 KECCAK256 SLOAD PUSH1 0x0 NOT EQ ISZERO PUSH2 0xB5C JUMPI PUSH1 0x3 DUP1 SLOAD PUSH1 0x1 ADD SWAP1 SSTORE PUSH2 0xB33 JUMP JUMPDEST PUSH2 0x100 PUSH1 0x4 SLOAD DUP2 PUSH2 0xB6F JUMPI PUSH2 0xB6F PUSH2 0x11DF JUMP JUMPDEST MOD PUSH2 0xBB0 JUMPI PUSH32 0x387FD79753E961348C50D7984A0E877322575E20FA9D38AD8E88747E65C893F3 PUSH1 0x4 SLOAD PUSH1 0x40 MLOAD PUSH2 0xBA7 SWAP2 DUP2 MSTORE PUSH1 0x20 ADD SWAP1 JUMP JUMPDEST PUSH1 0x40 MLOAD DUP1 SWAP2 SUB SWAP1 LOG1 JUMPDEST POP SWAP4 SWAP5 SWAP4 POP POP POP POP JUMP JUMPDEST PUSH1 0x1 ADD PUSH2 0xA5D JUMP JUMPDEST POP POP PUSH1 0x1 ADD PUSH2 0xA48 JUMP JUMPDEST POP PUSH1 0x40 MLOAD PUSH3 0x461BCD PUSH1 0xE5 SHL DUP2 MSTORE PUSH1 0x20 PUSH1 0x4 DUP3 ADD MSTORE PUSH1 0x13 PUSH1 0x24 DUP3 ADD MSTORE PUSH19 0x6E6F2072616E646F6D20617661696C61626C65 PUSH1 0x68 SHL PUSH1 0x44 DUP3 ADD MSTORE PUSH1 0x64 ADD PUSH2 0x5F2 JUMP JUMPDEST PUSH2 0xC13 PUSH2 0xEF2 JUMP JUMPDEST PUSH1 0x4 DUP1 SLOAD PUSH2 0x100 SWAP1 DUP2 ADD SWAP1 SWAP2 SSTORE PUSH1 0x2 DUP1 SLOAD PUSH1 0x1 DUP2 ADD SWAP1 SWAP2 SSTORE PUSH1 0x0 SWAP1 DUP2 MSTORE PUSH1 0x7 PUSH1 0x20 MSTORE PUSH1 0x40 SWAP1 KECCAK256 PUSH2 0x613 SWAP2 DUP4 SWAP1 PUSH2 0x1062 JUMP JUMPDEST PUSH2 0xC4C PUSH2 0xE91 JUMP JUMPDEST PUSH2 0x5FB PUSH1 0x0 DUP1 SLOAD PUSH2 0xFF00 NOT AND PUSH2 0x100 OR SWAP1 SSTORE JUMP JUMPDEST PUSH2 0xC68 PUSH2 0xEF2 JUMP JUMPDEST PUSH1 0x40 MLOAD CALLER SWAP1 SELFBALANCE DUP1 ISZERO PUSH2 0x8FC MUL SWAP2 PUSH1 0x0 DUP2 DUP2 DUP2 DUP6 DUP9 DUP9 CALL SWAP4 POP POP POP POP ISZERO DUP1 ISZERO PUSH2 0xC94 JUMPI RETURNDATASIZE PUSH1 0x0 DUP1 RETURNDATACOPY RETURNDATASIZE PUSH1 0x0 REVERT JUMPDEST POP JUMP JUMPDEST PUSH2 0xC9F PUSH2 0xE91 JUMP JUMPDEST PUSH1 0x1 PUSH1 0x1 PUSH1 0xA0 SHL SUB DUP2 AND PUSH2 0xD04 JUMPI PUSH1 0x40 MLOAD PUSH3 0x461BCD PUSH1 0xE5 SHL DUP2 MSTORE PUSH1 0x20 PUSH1 0x4 DUP3 ADD MSTORE PUSH1 0x26 PUSH1 0x24 DUP3 ADD MSTORE PUSH32 0x4F776E61626C653A206E6577206F776E657220697320746865207A65726F2061 PUSH1 0x44 DUP3 ADD MSTORE PUSH6 0x646472657373 PUSH1 0xD0 SHL PUSH1 0x64 DUP3 ADD MSTORE PUSH1 0x84 ADD PUSH2 0x5F2 JUMP JUMPDEST PUSH2 0xC94 DUP2 PUSH2 0x1007 JUMP JUMPDEST PUSH1 0x0 DUP1 PUSH1 0x14 NUMBER GT PUSH2 0xD1F JUMPI PUSH1 0x1 PUSH2 0xD2A JUMP JUMPDEST PUSH2 0xD2A PUSH1 0x14 NUMBER PUSH2 0x11AD JUMP JUMPDEST SWAP1 POP JUMPDEST NUMBER DUP2 LT ISZERO PUSH2 0xD7E JUMPI DUP3 DUP2 BLOCKHASH PUSH1 0x40 MLOAD PUSH1 0x20 ADD PUSH2 0xD52 SWAP3 SWAP2 SWAP1 SWAP2 DUP3 MSTORE PUSH1 0x20 DUP3 ADD MSTORE PUSH1 0x40 ADD SWAP1 JUMP JUMPDEST PUSH1 0x40 DUP1 MLOAD PUSH1 0x1F NOT DUP2 DUP5 SUB ADD DUP2 MSTORE SWAP2 SWAP1 MSTORE DUP1 MLOAD PUSH1 0x20 SWAP1 SWAP2 ADD KECCAK256 SWAP3 POP DUP1 PUSH2 0xD76 DUP2 PUSH2 0x11C4 JUMP JUMPDEST SWAP2 POP POP PUSH2 0xD2D JUMP JUMPDEST POP PUSH1 0x5 SLOAD PUSH1 0x40 MLOAD PUSH2 0xD9C SWAP2 DUP5 SWAP2 PUSH1 0x20 ADD SWAP2 DUP3 MSTORE PUSH1 0x20 DUP3 ADD MSTORE PUSH1 0x40 ADD SWAP1 JUMP JUMPDEST PUSH1 0x40 MLOAD PUSH1 0x20 DUP2 DUP4 SUB SUB DUP2 MSTORE SWAP1 PUSH1 0x40 MSTORE DUP1 MLOAD SWAP1 PUSH1 0x20 ADD KECCAK256 PUSH1 0x0 SHR SWAP2 POP PUSH1 0x2 SLOAD PUSH1 0x3 SLOAD EQ PUSH2 0xE8D JUMPI PUSH1 0x0 PUSH1 0x2 SLOAD PUSH2 0x100 MUL DUP4 DUP2 PUSH2 0xDD9 JUMPI PUSH2 0xDD9 PUSH2 0x11DF JUMP JUMPDEST MOD PUSH1 0xFF AND SWAP1 POP PUSH1 0x7 PUSH1 0x0 PUSH2 0x100 DUP4 DUP2 PUSH2 0xDF4 JUMPI PUSH2 0xDF4 PUSH2 0x11DF JUMP JUMPDEST DIV DUP2 MSTORE PUSH1 0x20 ADD SWAP1 DUP2 MSTORE PUSH1 0x20 ADD PUSH1 0x0 KECCAK256 PUSH2 0x100 DUP3 DUP2 PUSH2 0xE14 JUMPI PUSH2 0xE14 PUSH2 0x11DF JUMP JUMPDEST MOD PUSH2 0x100 DUP2 LT PUSH2 0xE26 JUMPI PUSH2 0xE26 PUSH2 0x1236 JUMP JUMPDEST ADD SLOAD SWAP3 POP PUSH1 0x0 PUSH1 0x14 NUMBER GT PUSH2 0xE3B JUMPI PUSH1 0x1 PUSH2 0xE40 JUMP JUMPDEST PUSH1 0x14 NUMBER SUB JUMPDEST SWAP1 POP JUMPDEST NUMBER DUP2 LT ISZERO PUSH2 0xE8A JUMPI DUP4 DUP2 BLOCKHASH PUSH1 0x40 MLOAD PUSH1 0x20 ADD PUSH2 0xE68 SWAP3 SWAP2 SWAP1 SWAP2 DUP3 MSTORE PUSH1 0x20 DUP3 ADD MSTORE PUSH1 0x40 ADD SWAP1 JUMP JUMPDEST PUSH1 0x40 DUP1 MLOAD PUSH1 0x1F NOT DUP2 DUP5 SUB ADD DUP2 MSTORE SWAP2 SWAP1 MSTORE DUP1 MLOAD PUSH1 0x20 SWAP1 SWAP2 ADD KECCAK256 SWAP4 POP PUSH1 0x1 ADD PUSH2 0xE43 JUMP JUMPDEST POP POP JUMPDEST POP SWAP1 JUMP JUMPDEST PUSH1 0x0 SLOAD PUSH1 0x1 PUSH1 0x1 PUSH1 0xA0 SHL SUB PUSH3 0x10000 SWAP1 SWAP2 DIV AND CALLER EQ PUSH2 0x5FB JUMPI PUSH1 0x40 MLOAD PUSH3 0x461BCD PUSH1 0xE5 SHL DUP2 MSTORE PUSH1 0x20 PUSH1 0x4 DUP3 ADD MSTORE PUSH1 0x1F PUSH1 0x24 DUP3 ADD MSTORE PUSH32 0x416C6C6F77616E63653A2063616C6C6572206D757374206265204F776E657200 PUSH1 0x44 DUP3 ADD MSTORE PUSH1 0x64 ADD PUSH2 0x5F2 JUMP JUMPDEST PUSH1 0x0 SLOAD PUSH1 0x1 PUSH1 0x1 PUSH1 0xA0 SHL SUB PUSH3 0x10000 SWAP1 SWAP2 DIV AND CALLER EQ DUP1 PUSH2 0xFA5 JUMPI POP PUSH1 0x1 PUSH1 0x1 PUSH1 0xA0 SHL SUB PUSH32 0x0 AND PUSH4 0x6D70F7AE CALLER PUSH1 0x40 MLOAD PUSH1 0x1 PUSH1 0x1 PUSH1 0xE0 SHL SUB NOT PUSH1 0xE0 DUP5 SWAP1 SHL AND DUP2 MSTORE PUSH1 0x1 PUSH1 0x1 PUSH1 0xA0 SHL SUB SWAP1 SWAP2 AND PUSH1 0x4 DUP3 ADD MSTORE PUSH1 0x24 ADD PUSH1 0x20 PUSH1 0x40 MLOAD DUP1 DUP4 SUB DUP2 DUP7 GAS STATICCALL ISZERO DUP1 ISZERO PUSH2 0xF81 JUMPI RETURNDATASIZE PUSH1 0x0 DUP1 RETURNDATACOPY RETURNDATASIZE PUSH1 0x0 REVERT JUMPDEST POP POP POP POP PUSH1 0x40 MLOAD RETURNDATASIZE PUSH1 0x1F NOT PUSH1 0x1F DUP3 ADD AND DUP3 ADD DUP1 PUSH1 0x40 MSTORE POP DUP2 ADD SWAP1 PUSH2 0xFA5 SWAP2 SWAP1 PUSH2 0x1175 JUMP JUMPDEST PUSH2 0x5FB JUMPI PUSH1 0x40 MLOAD PUSH3 0x461BCD PUSH1 0xE5 SHL DUP2 MSTORE PUSH1 0x20 PUSH1 0x4 DUP3 ADD MSTORE PUSH1 0x2D PUSH1 0x24 DUP3 ADD MSTORE PUSH32 0x416C6C6F77616E63653A2063616C6C6572206D757374206265205265706F7369 PUSH1 0x44 DUP3 ADD MSTORE PUSH13 0x3A37B93C9027B832B930BA37B9 PUSH1 0x99 SHL PUSH1 0x64 DUP3 ADD MSTORE PUSH1 0x84 ADD PUSH2 0x5F2 JUMP JUMPDEST PUSH1 0x0 DUP1 SLOAD PUSH1 0x1 PUSH1 0x1 PUSH1 0xA0 SHL SUB DUP4 DUP2 AND PUSH3 0x10000 DUP2 DUP2 MUL PUSH3 0x10000 PUSH1 0x1 PUSH1 0xB0 SHL SUB NOT DUP6 AND OR DUP6 SSTORE PUSH1 0x40 MLOAD SWAP4 DIV SWAP2 SWAP1 SWAP2 AND SWAP3 SWAP1 SWAP2 DUP4 SWAP2 PUSH32 0x8BE0079C531659141344CD1FD0A4F28419497F9722A3DAAFE3B4186F6B6457E0 SWAP2 LOG3 POP POP JUMP JUMPDEST DUP3 PUSH2 0x100 DUP2 ADD SWAP3 DUP3 ISZERO PUSH2 0x1091 JUMPI SWAP2 PUSH1 0x20 MUL DUP3 ADD JUMPDEST DUP3 DUP2 GT ISZERO PUSH2 0x1091 JUMPI DUP3 CALLDATALOAD DUP3 SSTORE SWAP2 PUSH1 0x20 ADD SWAP2 SWAP1 PUSH1 0x1 ADD SWAP1 PUSH2 0x1076 JUMP JUMPDEST POP PUSH2 0xE8D SWAP3 SWAP2 POP JUMPDEST DUP1 DUP3 GT ISZERO PUSH2 0xE8D JUMPI PUSH1 0x0 DUP2 SSTORE PUSH1 0x1 ADD PUSH2 0x1099 JUMP JUMPDEST PUSH1 0x0 DUP1 DUP6 DUP6 GT ISZERO PUSH2 0x10BD JUMPI PUSH1 0x0 DUP1 REVERT JUMPDEST DUP4 DUP7 GT ISZERO PUSH2 0x10CA JUMPI PUSH1 0x0 DUP1 REVERT JUMPDEST POP POP DUP3 ADD SWAP4 SWAP2 SWAP1 SWAP3 SUB SWAP2 POP JUMP JUMPDEST PUSH1 0x0 PUSH1 0x20 DUP3 DUP5 SUB SLT ISZERO PUSH2 0x10E9 JUMPI PUSH1 0x0 DUP1 REVERT JUMPDEST DUP2 CALLDATALOAD PUSH1 0x1 PUSH1 0x1 PUSH1 0xE0 SHL SUB NOT DUP2 AND DUP2 EQ PUSH2 0x1101 JUMPI PUSH1 0x0 DUP1 REVERT JUMPDEST SWAP4 SWAP3 POP POP POP JUMP JUMPDEST PUSH1 0x0 PUSH1 0x20 DUP3 DUP5 SUB SLT ISZERO PUSH2 0x111A JUMPI PUSH1 0x0 DUP1 REVERT JUMPDEST DUP2 CALLDATALOAD PUSH1 0x1 PUSH1 0x1 PUSH1 0xA0 SHL SUB DUP2 AND DUP2 EQ PUSH2 0x1101 JUMPI PUSH1 0x0 DUP1 REVERT JUMPDEST PUSH1 0x0 PUSH1 0x20 DUP3 DUP5 SUB SLT ISZERO PUSH2 0x1143 JUMPI PUSH1 0x0 DUP1 REVERT JUMPDEST POP CALLDATALOAD SWAP2 SWAP1 POP JUMP JUMPDEST PUSH1 0x0 PUSH2 0x2000 DUP1 DUP4 DUP6 SUB SLT ISZERO PUSH2 0x115E JUMPI PUSH1 0x0 DUP1 REVERT JUMPDEST DUP4 DUP2 DUP5 ADD GT ISZERO PUSH2 0x116D JUMPI PUSH1 0x0 DUP1 REVERT JUMPDEST POP SWAP1 SWAP3 SWAP2 POP POP JUMP JUMPDEST PUSH1 0x0 PUSH1 0x20 DUP3 DUP5 SUB SLT ISZERO PUSH2 0x1187 JUMPI PUSH1 0x0 DUP1 REVERT JUMPDEST DUP2 MLOAD DUP1 ISZERO ISZERO DUP2 EQ PUSH2 0x1101 JUMPI PUSH1 0x0 DUP1 REVERT JUMPDEST PUSH4 0x4E487B71 PUSH1 0xE0 SHL PUSH1 0x0 MSTORE PUSH1 0x11 PUSH1 0x4 MSTORE PUSH1 0x24 PUSH1 0x0 REVERT JUMPDEST PUSH1 0x0 DUP3 DUP3 LT ISZERO PUSH2 0x11BF JUMPI PUSH2 0x11BF PUSH2 0x1197 JUMP JUMPDEST POP SUB SWAP1 JUMP JUMPDEST PUSH1 0x0 PUSH1 0x0 NOT DUP3 EQ ISZERO PUSH2 0x11D8 JUMPI PUSH2 0x11D8 PUSH2 0x1197 JUMP JUMPDEST POP PUSH1 0x1 ADD SWAP1 JUMP JUMPDEST PUSH4 0x4E487B71 PUSH1 0xE0 SHL PUSH1 0x0 MSTORE PUSH1 0x12 PUSH1 0x4 MSTORE PUSH1 0x24 PUSH1 0x0 REVERT JUMPDEST PUSH1 0x0 DUP3 PUSH2 0x1212 JUMPI PUSH4 0x4E487B71 PUSH1 0xE0 SHL PUSH1 0x0 MSTORE PUSH1 0x12 PUSH1 0x4 MSTORE PUSH1 0x24 PUSH1 0x0 REVERT JUMPDEST POP MOD SWAP1 JUMP JUMPDEST PUSH1 0x0 DUP2 PUSH1 0x0 NOT DIV DUP4 GT DUP3 ISZERO ISZERO AND ISZERO PUSH2 0x1231 JUMPI PUSH2 0x1231 PUSH2 0x1197 JUMP JUMPDEST POP MUL SWAP1 JUMP JUMPDEST PUSH4 0x4E487B71 PUSH1 0xE0 SHL PUSH1 0x0 MSTORE PUSH1 0x32 PUSH1 0x4 MSTORE PUSH1 0x24 PUSH1 0x0 REVERT INVALID LOG2 PUSH5 0x6970667358 0x22 SLT KECCAK256 0xA9 RETURNDATASIZE 0xD0 0xE2 PUSH7 0x503C1E62318221 SELFDESTRUCT 0xE8 DUP4 0xD7 PUSH30 0x72175B1692FA96B9E1A8C6E324C5B264736F6C634300080B003300000000 ","sha1":"c104c453d477db1dfd4809f6833cb22531cc63bd","source":"// SPDX-License-Identifier: MIT\n// Beef MarketPlace Contracts v0.0.0 hello@mcdu.com\n\npragma solidity ^0.8.0;\n\nimport \"../Repository/Repository.sol\";\n\nbytes32 constant RANDOM = keccak256(\"Random\");\n\ncontract Random is RepositoryContract {\n\n    function id() public view returns (bytes32) {return RANDOM;}\n\n    uint256 private _fee;\n    uint256 private _ptr;\n    uint256 private _ptrstart;\n    uint256 private _count;\n    uint256 private _lastrandom;\n\n    mapping(uint256 => uint256) private _usedrandoms;\n    mapping(uint256 => uint256[256]) private _randoms;\n\n    event RandomRemaining(uint256 count);\n    event RandomReset(uint256 count);\n\n    constructor(Repository rep_) RepositoryContract(rep_) {}\n\n    function setFee(uint256 fee_) public onlyOperators {\n        _fee = fee_;\n    }\n\n    function fee() public view returns (uint256) {\n        return _fee;\n    }\n\n    function count() public view returns (uint256) {\n        return _count;\n    }\n\n    function purgeall() public onlyOwner {\n        _ptrstart = _ptr;\n        _count = 0;\n    }\n\n    function collect() public onlyOperators {\n        payable(_msgSender()).transfer(address(this).balance);\n    }\n\n    function add(uint256[256] calldata newrandoms_) public onlyOperators {\n        unchecked {\n            _count += 256;\n            _randoms[_ptr++] = newrandoms_;\n        }\n    }\n\n    function get(uint256 random_) public payable returns (uint256) {\n        if (\n            _msgSender() != ownerOf() &&\n            !rep.isContract(_msgSender()) &&\n            !rep.isOperator(_msgSender())\n        ) {\n            require(_fee != 0, \"desactivated\");\n            require(msg.value >= _fee, \"Must pay fee\");\n            if (msg.value > _fee)\n                payable(_msgSender()).transfer(msg.value-_fee);\n        }\n        for (\n            uint256 i = block.number > 10 ? block.number - 10 : 1;\n            i < block.number;\n            i++\n        ) random_ = uint256(keccak256(abi.encode(random_, blockhash(i))));\n        random_ = uint256(keccak256(abi.encode(random_, _lastrandom)));\n        uint8 k = uint8(random_ % 256);\n        if (_count == 0) {\n            _ptrstart = 0;\n            for (uint256 p = _ptrstart; p < _ptr; p++) delete _usedrandoms[p];\n            _count = _ptr * 256;\n            emit RandomReset(_count);\n        }\n        unchecked {\n            for (uint8 b = 0; b < 256; b++) {\n                uint8 ki = k - b;\n                for (uint256 p = _ptrstart; p < _ptr; p++)\n                    if (_usedrandoms[p] & (1 << ki) == 0) {\n                        _usedrandoms[p] |= 1 << ki;\n\n                        random_ = _randoms[p][ki];\n                        for (\n                            uint256 i = block.number > 10\n                                ? block.number - 10\n                                : 1;\n                            i < block.number;\n                            i++\n                        )\n                            random_ = uint256(\n                                keccak256(abi.encode(random_, blockhash(i)))\n                            );\n                        _lastrandom = random_;\n                        _count--;\n                        while (_usedrandoms[_ptrstart] == type(uint256).max)\n                            _ptrstart++;\n                        if (_count % 256 == 0) emit RandomRemaining(_count);\n                        return random_;\n                    }\n            }\n            require(false, \"no random available\");\n        }\n    }\n\n    function getfree(uint256 random_) public view returns (uint256) {\n        for (\n            uint256 i = block.number > 20 ? block.number - 20 : 1;\n            i < block.number;\n            i++\n        ) random_ = uint256(keccak256(abi.encode(random_, blockhash(i))));\n        random_ = uint256(keccak256(abi.encode(random_, _lastrandom)));\n        unchecked {\n            if (_ptrstart != _ptr) {\n                uint256 k = uint8(random_ % (256 * _ptr));\n                random_ = _randoms[k / 256][k % 256];\n                for (\n                    uint256 i = block.number > 20 ? block.number - 20 : 1;\n                    i < block.number;\n                    i++\n                )\n                    random_ = uint256(\n                        keccak256(abi.encode(random_, blockhash(i)))\n                    );\n            }\n        }\n        return random_;\n    }\n}\n","sourcePath":"contracts/Random/Random.sol","deployment":{"address":"0x82c929b4b53e1B42aFA4d64d22488133171385b4","chainid":"9997","blockHeight":13011}}