{"bytecode":"60a06040523480156200001157600080fd5b5060405162005ed338038062005ed38339810160408190526200003491620000b1565b8080620000413362000056565b6001600160a01b031660805250620000e39050565b600080546001600160a01b038381166201000081810262010000600160b01b0319851617855560405193049190911692909183917f8be0079c531659141344cd1fd0a4f28419497f9722a3daafe3b4186f6b6457e091a35050565b600060208284031215620000c457600080fd5b81516001600160a01b0381168114620000dc57600080fd5b9392505050565b608051615d646200016f6000396000818161045c0152818161050e015281816105ac01528181610769015281816107fc01528181610ce301528181610d96015281816110f7015281816111880152818161163d015281816119680152818161268a015281816128ae01528181612aa0015281816134880152818161353b01526142f20152615d646000f3fe608060405234801561001057600080fd5b50600436106101a95760003560e01c8063854ba99d116100f9578063ccbd163711610097578063e4b1614411610071578063e4b1614414610486578063e9f14ce614610499578063f2fde38b146104ac578063feab4454146104bf576101a9565b8063ccbd163714610444578063ccc0795914610457578063d69358581461047e576101a9565b8063af640d0f116100d3578063af640d0f146103e5578063b03fd40d1461040b578063b9b387451461041e578063bd0ade2b14610431576101a9565b8063854ba99d146103a25780638da5cb5b146103aa57806397962076146103d5576101a9565b80632203616d116101665780636b2b091a116101405780636b2b091a14610351578063715018a61461037157806372ea61bf146103795780637af6649a14610381576101a9565b80632203616d146102d65780632f54bf6e146102fe5780636296514114610326576101a9565b806301ffc9a71461022e57806305d6bd9c1461025657806309252f02146102605780630a3550aa146102825780631ef4590d146102a357806321603f43146102b6575b6101b16104e9565b60006101c16024600436846146f6565b8080601f016020809104026020016040519081016040528093929190818152602001838380828437600092018290525060208501519495509250503660231981019150601f19016004838037816024600437600080826000875af492505050610229816106b3565b505050005b61024161023c366004614720565b6106c9565b60405190151581526020015b60405180910390f35b61025e610700565b005b61027361026e36600461495c565b610717565b60405161024d93929190614ab1565b610295610290366004614aed565b610880565b60405161024d929190614baa565b6102416102b1366004614ce7565b610b42565b6102c96102c4366004614d09565b610bd3565b60405161024d9190614d5a565b6102e96102e4366004614d09565b610be6565b60405163ffffffff909116815260200161024d565b61024161030c366004614e0b565b6000546201000090046001600160a01b0390811691161490565b610339610334366004614d09565b610bf7565b6040516001600160401b03909116815260200161024d565b61036461035f366004614d09565b610c29565b60405161024d9190614e28565b61025e611045565b61025e611057565b61039461038f366004614e8a565b611071565b60405190815260200161024d565b61024161108a565b6000546201000090046001600160a01b03165b6040516001600160a01b03909116815260200161024d565b600054610100900460ff16610241565b7fdcf6913c74762e0b3c7f94f504bb2be7445bbd8d11abee9960f04ebf85e7a7b2610394565b610394610419366004614eb2565b6110a8565b61029561042c36600461495c565b6110c2565b61027361043f366004614aed565b611209565b610295610452366004614edb565b6114b3565b6103bd7f000000000000000000000000000000000000000000000000000000000000000081565b61025e61178e565b610394610494366004614f3e565b6117aa565b6102736104a7366004614edb565b6117c1565b61025e6104ba366004614e0b565b611aba565b6104d26104cd366004614d09565b611b33565b60405165ffffffffffff909116815260200161024d565b6000546001600160a01b03620100009091041633148061059c57506001600160a01b037f0000000000000000000000000000000000000000000000000000000000000000166316279055336040516001600160e01b031960e084901b1681526001600160a01b039091166004820152602401602060405180830381865afa158015610578573d6000803e3d6000fd5b505050506040513d601f19601f8201168201806040525081019061059c9190614f64565b8061063a57506001600160a01b037f000000000000000000000000000000000000000000000000000000000000000016636d70f7ae336040516001600160e01b031960e084901b1681526001600160a01b039091166004820152602401602060405180830381865afa158015610616573d6000803e3d6000fd5b505050506040513d601f19601f8201168201806040525081019061063a9190614f64565b6106b15760405162461bcd60e51b815260206004820152603960248201527f416c6c6f77616e63653a2063616c6c6572206d757374206265205265706f736960448201527f746f727920436f6e7472616374206f72204f70657261746f720000000000000060648201526084015b60405180910390fd5b565b3d6000803e8080156106c4573d6000f35b3d6000fd5b60006001600160e01b031982166301ffc9a760e01b14806106fa57506001600160e01b031982166315d3789560e31b145b92915050565b6107086104e9565b6106b16000805460ff19169055565b6060600061073f60405180606001604052806000815260200160008152602001600081525090565b6040516327bcdbc960e11b81526001600160a01b038a81166004830152602482018a905261086e917f000000000000000000000000000000000000000000000000000000000000000090911690634f79b79290604401602060405180830381865afa1580156107b2573d6000803e3d6000fd5b505050506040513d601f19601f820116820180604052508101906107d69190614f81565b6040516327bcdbc960e11b81526001600160a01b038a81166004830152602482018a90527f00000000000000000000000000000000000000000000000000000000000000001690634f79b79290604401602060405180830381865afa158015610843573d6000803e3d6000fd5b505050506040513d601f19601f820116820180604052508101906108679190614f81565b87876117c1565b92509250925096509650969350505050565b610888614529565b60606000835b610899600882614fb0565b8210156108e25785856108ad846008614fc7565b8181106108bc576108bc614fdf565b90506020020135600014156108d0576108e2565b816108da81614ff5565b92505061088e565b6000826001600160401b038111156108fc576108fc61475f565b604051908082528060200260200182016040528015610925578160200160208202803683370190505b50905060005b83811015610985578787610940836008614fc7565b81811061094f5761094f614fdf565b9050602002013582828151811061096857610968614fdf565b60209081029190910101528061097d81614ff5565b91505061092b565b50610b31896040518060e001604052808b81526020018a8a60008181106109ae576109ae614fdf565b9050602002013581526020018a8a60018181106109cd576109cd614fdf565b9050602002013581526020018a8a60028181106109ec576109ec614fdf565b9050602002013560001415151581526020018a8a6003818110610a1157610a11614fdf565b9050602002013560001415151581526020018a8a6007818110610a3657610a36614fdf565b9050602002013581526020018481525060405180608001604052808b8b6005818110610a6457610a64614fdf565b9050602002013581526020018b8b6006818110610a8357610a83614fdf565b9050602002013581526020018b8b6004818110610aa257610aa2614fdf565b60209081029290920135835250016000604051908082528060200260200182016040528015610aeb57816020015b610ad8614573565b815260200190600190039081610ad05790505b5090526040805160008082526020820190925290610b2b565b6040805180820190915260008082526020820152815260200190600190039081610b045790505b50611b44565b945094505050505b94509492505050565b6000828152600160205260408082209051632be5db2360e11b815260048101919091526024810183905273__Array_________________________________906357cbb64690604401602060405180830381865af4158015610ba8573d6000803e3d6000fd5b505050506040513d601f19601f82011682018060405250810190610bcc9190614f64565b9392505050565b610bdb6145ac565b6106fa826000612572565b60006106fa64e8d4a5100083615010565b600080610c096402540be40084615010565b905082610c1b826402540be400615032565b11156106fa576106fa615051565b6000818152600160209081526040808320805482518185028101850190935280835260609493830182828015610c7e57602002820191906000526020600020905b815481526020019060010190808311610c6a575b5050505050905080516001600160401b03811115610c9e57610c9e61475f565b604051908082528060200260200182016040528015610cd157816020015b6060815260200190600190039081610cbc5790505b5091506000805b8251811015610ff2577f00000000000000000000000000000000000000000000000000000000000000006001600160a01b03166338a699a4848381518110610d2257610d22614fdf565b60200260200101516040518263ffffffff1660e01b8152600401610d4891815260200190565b602060405180830381865afa158015610d65573d6000803e3d6000fd5b505050506040513d601f19601f82011682018060405250810190610d899190614f64565b610d9257610fe0565b60007f00000000000000000000000000000000000000000000000000000000000000006001600160a01b03166327ee9dc2858481518110610dd557610dd5614fdf565b60200260200101516040518263ffffffff1660e01b8152600401610dfb91815260200190565b600060405180830381865afa158015610e18573d6000803e3d6000fd5b505050506040513d6000823e601f3d908101601f19168201604052610e4091908101906150c2565b90506000815111610e8d5760405162461bcd60e51b815260206004820152601760248201527605f706174684c69737420706174682e6c656e6774683e3604c1b60448201526064016106a8565b60005b60018251610e9e9190614fb0565b811015610f9857610f7d73__BytesAndKeccakLib_____________________6376254ff9848481518110610ed457610ed4614fdf565b602002602001015185856001610eea9190614fc7565b81518110610efa57610efa614fdf565b60200260200101516040518363ffffffff1660e01b8152600401610f28929190918252602082015260400190565b602060405180830381865af4158015610f45573d6000803e3d6000fd5b505050506040513d601f19601f82011682018060405250810190610f699190614f81565b600090815260066020526040902054151590565b610f8657610f98565b80610f9081614ff5565b915050610e90565b60018251610fa69190614fb0565b811015610fb4575050610fe0565b818685610fc081614ff5565b965081518110610fd257610fd2614fdf565b602002602001018190525050505b80610fea81614ff5565b915050610cd8565b508083526000811161103e5760405162461bcd60e51b815260206004820152601560248201527405f6c6973745061746846726f6d20636f756e743e3605c1b60448201526064016106a8565b5050919050565b61104d612cdb565b6106b16000612d3c565b61105f6104e9565b6106b16000805460ff19166001179055565b60006106fa65ffffffffffff831664174876e800615032565b6000805460ff16806110a35750600054610100900460ff165b905090565b60006106fa6001600160401b0383166402540be400615032565b6110ca614529565b6040516327bcdbc960e11b81526001600160a01b038881166004830152602482018890526060916111fa917f00000000000000000000000000000000000000000000000000000000000000001690634f79b79290604401602060405180830381865afa15801561113e573d6000803e3d6000fd5b505050506040513d601f19601f820116820180604052508101906111629190614f81565b6040516327bcdbc960e11b81526001600160a01b038981166004830152602482018990527f00000000000000000000000000000000000000000000000000000000000000001690634f79b79290604401602060405180830381865afa1580156111cf573d6000803e3d6000fd5b505050506040513d601f19601f820116820180604052508101906111f39190614f81565b86866114b3565b91509150965096945050505050565b6060600061123160405180606001604052806000815260200160008152602001600081525090565b60008061123f600887614fb0565b90505b8082101561128c578686611257846008614fc7565b81811061126657611266614fdf565b905060200201356000141561127a5761128c565b8161128481614ff5565b925050611242565b6000826001600160401b038111156112a6576112a661475f565b6040519080825280602002602001820160405280156112cf578160200160208202803683370190505b50905060005b8381101561132f5788886112ea836008614fc7565b8181106112f9576112f9614fdf565b9050602002013582828151811061131257611312614fdf565b60209081029190910101528061132781614ff5565b9150506112d5565b5061149f8a6040518060e001604052808c81526020018b8b600081811061135857611358614fdf565b9050602002013581526020018b8b600181811061137757611377614fdf565b9050602002013581526020018b8b600281811061139657611396614fdf565b9050602002013560001415151581526020018b8b60038181106113bb576113bb614fdf565b9050602002013560001415151581526020018b8b60078181106113e0576113e0614fdf565b9050602002013581526020018481525060405180608001604052808c8c600581811061140e5761140e614fdf565b9050602002013581526020018c8c600681811061142d5761142d614fdf565b9050602002013581526020018c8c600481811061144c5761144c614fdf565b6020908102929092013583525001600060405190808252806020026020018201604052801561149557816020015b611482614573565b81526020019060019003908161147a5790505b5090526000612d97565b9550955095505050505b9450945094915050565b6114bb614529565b815160609060208111156115115760405162461bcd60e51b815260206004820152601d60248201527f64656c6976657279206172726179206d61782073697a6520697320333200000060448201526064016106a8565b61151961463b565b8551815260208087015190820152604086015161153757600061153a565b60015b60ff1660408201526060860151611552576000611555565b60015b60ff1660608201526080868101519082015260a0808701519082015260c0808701519082015260e08087015190820152600860005b83811015611603578681815181106115a4576115a4614fdf565b60200260200101516000146115f1578681815181106115c5576115c5614fdf565b60200260200101518383806115d990614ff5565b9450602881106115eb576115eb614fdf565b60200201525b806115fb81614ff5565b91505061158a565b505060405163023aa9ab60e61b81527f2e7a327ef83c2af7579c6634f2f5604519800c5f07626f27bd602fd11ed8e6ec60048201526000907f00000000000000000000000000000000000000000000000000000000000000006001600160a01b031690638eaa6ac090602401602060405180830381865afa15801561168c573d6000803e3d6000fd5b505050506040513d601f19601f820116820180604052508101906116b091906150f6565b6001600160a01b03167f0a3550aabeea45f9d515c45ea5dadcd6efbe5a3c73ab07644f630de564c6515a308b8b60606028886040516024016116f796959493929190615113565b60408051601f198184030181529181526020820180516001600160e01b03166001600160e01b03199094169390931790925290516117359190615176565b600060405180830381855afa9150503d8060008114611770576040519150601f19603f3d011682016040523d82523d6000602084013e611775565b606091505b50509050611782816106b3565b50505094509492505050565b611796612cdb565b6106b16000805461ff001916610100179055565b60006106fa63ffffffff831664e8d4a51000615032565b606060006117e960405180606001604052806000815260200160008152602001600081525090565b8351602081111561183c5760405162461bcd60e51b815260206004820152601d60248201527f64656c6976657279206172726179206d61782073697a6520697320333200000060448201526064016106a8565b61184461463b565b86518152602080880151908201526040870151611862576000611865565b60015b60ff166040820152606087015161187d576000611880565b60015b60ff1660608201526080878101519082015260a0808801519082015260c0808801519082015260e08088015190820152600860005b8381101561192e578781815181106118cf576118cf614fdf565b602002602001015160001461191c578781815181106118f0576118f0614fdf565b602002602001015183838061190490614ff5565b94506028811061191657611916614fdf565b60200201525b8061192681614ff5565b9150506118b5565b505060405163023aa9ab60e61b81527f2e7a327ef83c2af7579c6634f2f5604519800c5f07626f27bd602fd11ed8e6ec60048201526000907f00000000000000000000000000000000000000000000000000000000000000006001600160a01b031690638eaa6ac090602401602060405180830381865afa1580156119b7573d6000803e3d6000fd5b505050506040513d601f19601f820116820180604052508101906119db91906150f6565b6001600160a01b03167fbd0ade2bcae368fca26bb02146561a2830136bf30c4a34c648255fccebbe2254308c8c6060602888604051602401611a2296959493929190615113565b60408051601f198184030181529181526020820180516001600160e01b03166001600160e01b0319909416939093179092529051611a609190615176565b600060405180830381855afa9150503d8060008114611a9b576040519150601f19603f3d011682016040523d82523d6000602084013e611aa0565b606091505b50509050611aad816106b3565b5050509450945094915050565b611ac2612cdb565b6001600160a01b038116611b275760405162461bcd60e51b815260206004820152602660248201527f4f776e61626c653a206e6577206f776e657220697320746865207a65726f206160448201526564647265737360d01b60648201526084016106a8565b611b3081612d3c565b50565b60006106fa64174876e80083615010565b611b4c614529565b81611b55614529565b6000611b6588886000015161337d565b805190915060005b81811015611d1357611b7d61465a565b611c09848381518110611b9257611b92614fdf565b60200260200101516002868581518110611bae57611bae614fdf565b602002602001015151611bc19190614fb0565b81518110611bd157611bd1614fdf565b60200260200101518b60405180608001604052806000815260200160008152602001600081526020018d606001518152506000612d97565b60408401526020830181905215159050611c235750611d01565b838281518110611c3557611c35614fdf565b6020908102919091010151815273__MarketLib_____________________________637513ce1b86836000604051908082528060200260200182016040528015611c9957816020015b611c86614573565b815260200190600190039081611c7e5790505b506040518463ffffffff1660e01b8152600401611cb893929190615370565b600060405180830381865af4158015611cd5573d6000803e3d6000fd5b505050506040513d6000823e601f3d908101601f19168201604052611cfd919081019061559d565b9450505b80611d0b81614ff5565b915050611b6d565b50505060408101515180611d28575050610b39565b611d306146b2565b87518152602080890151818301526040808a0151818401526060808b01511515818501526080808c015115158186015260a0808d01519086015260c0808d0151908601528251908101835260008082528185018181528285018281528385018581528e518552968e0151909152938c0151909352908a0151909252836001600160401b03811115611dc357611dc361475f565b604051908082528060200260200182016040528015611dfc57816020015b611de9614529565b815260200190600190039081611de15790505b50905060005b89518352600160a085015260005b85811015611f0157611e4587604001518281518110611e3157611e31614fdf565b60200260200101516000015186868b613771565b838281518110611e5757611e57614fdf565b60200260200101819052506001838281518110611e7657611e76614fdf565b602002602001015160400151511115611eef5760405162461bcd60e51b815260206004820152603560248201527f504152414e4f4941205f5f73656172636843466f6c6c6f77506174682073686f604482015274756c642072657475726e206d61782031206465736360581b60648201526084016106a8565b80611ef981614ff5565b915050611e10565b50600019600080805b8881101561206257858181518110611f2457611f24614fdf565b60200260200101516000015160001415611f3d57612050565b600019841480611f6d5750858181518110611f5a57611f5a614fdf565b6020026020010151602001516000015183115b15612002576000198414158015611fa45750858181518110611f9157611f91614fdf565b6020026020010151602001516040015183105b15611fb157829150611fd6565b858181518110611fc357611fc3614fdf565b6020026020010151602001516040015191505b809350858181518110611feb57611feb614fdf565b602002602001015160200151600001519250612050565b85818151811061201457612014614fdf565b602002602001015160200151600001518211156120505785818151811061203d5761203d614fdf565b6020026020010151602001516000015191505b8061205a81614ff5565b915050611f0a565b5060001983141561207557505050612563565b855250612080614529565b6120ad8860400151838151811061209957612099614fdf565b60200260200101516000015187878c613771565b905080604001515160011461211e5760405162461bcd60e51b815260206004820152603160248201527f504152414e4f4941205f5f73656172636843466f6c6c6f77506174682073686f604482015270756c642072657475726e2031206465736360781b60648201526084016106a8565b80516121645760405162461bcd60e51b81526020600482015260156024820152746966202873656c65637465642e717479203d3d302960581b60448201526064016106a8565b604051639fab220f60e01b815273__MarketLib_____________________________90639fab220f9061219d908d9085906004016156b7565b600060405180830381865af41580156121ba573d6000803e3d6000fd5b505050506040513d6000823e601f3d908101601f191682016040526121e2919081019061559d565b9950806060015151836121f59190614fc7565b9250806040015160008151811061220e5761220e614fdf565b602002602001015160a001515160001461229b57806040015160008151811061223957612239614fdf565b602002602001015160a001516001826040015160008151811061225e5761225e614fdf565b602002602001015160a00151516122759190614fb0565b8151811061228557612285614fdf565b6020026020010151836122989190614fb0565b92505b8873__MarketLib_____________________________637071133e909183604001516000815181106122cf576122cf614fdf565b602002602001015184606001516040518463ffffffff1660e01b81526004016122fa939291906156dc565b600060405180830381865af4158015612317573d6000803e3d6000fd5b505050506040513d6000823e601f3d908101601f1916820160405261233f91908101906156ef565b6060808701519083015160405163bf07928f60e01b8152929b5073__MarketLib_____________________________9263bf07928f926123839290916004016157a4565b600060405180830381865af41580156123a0573d6000803e3d6000fd5b505050506040513d6000823e601f3d908101601f191682016040526123c891908101906157c9565b60608601528b51855260a08d015115612444578c60a00151831061242e5760405162461bcd60e51b815260206004820152601f60248201527f696620286d6178636f756e743e3d7461726765745f2e6d6178636f756e74290060448201526064016106a8565b828d60a0015161243e9190614fb0565b60a08701525b60408d0151156124b95760408d01518151106124a25760405162461bcd60e51b815260206004820152601e60248201527f6966202873656c65637465642e7174793e3d7461726765745f2e71747929000060448201526064016106a8565b805160408e01516124b39190614fb0565b60408701525b60408c01511561255c576000670de0b6b3a76400008b60200151602001518c600001516124e69190615032565b6124f09190615010565b90508c6040015181106125455760405162461bcd60e51b815260206004820152601f60248201527f69662028746f74616c3e3d7365617263686172675f2e6d6178746f74616c290060448201526064016106a8565b808d604001516125559190614fb0565b6040870152505b5050611e02565b50505050505094509492505050565b61257a6145ac565b60008381526005602081815260408084208151610180810183528154815260018201546001600160a01b0381169482019490945293909291840191600160a01b900460ff16908111156125cf576125cf614d22565b60058111156125e0576125e0614d22565b81526001820154600160a81b900460ff166020820152600282015460408083019190915260038301546001600160401b0380821660608501526801000000000000000080830482166080860152600160801b808404831660a0870152600160c01b909304821660c086015260049586015480831660e087015290810482166101008601529190910416610120909201919091528251905163657c7e0960e01b8152918201529091507f00000000000000000000000000000000000000000000000000000000000000006001600160a01b03169063657c7e09906024016040805180830381865afa1580156126d8573d6000803e3d6000fd5b505050506040513d601f19601f820116820180604052508101906126fc91906157fd565b60408401526020830152608081015160608301528280612795575060608101516040516336181b6760e11b815260ff909116600482015273__Order_________________________________90636c3036ce90602401602060405180830381865af415801561276f573d6000803e3d6000fd5b505050506040513d601f19601f820116820180604052508101906127939190614f64565b155b15612c185760208101516001600160a01b0316825260a08101516127b8906110a8565b60808301526060810151604051632b2076e360e11b815260ff909116600482015273__Order_________________________________90635640edc690602401602060405180830381865af4158015612815573d6000803e3d6000fd5b505050506040513d601f19601f820116820180604052508101906128399190614f64565b1561284d57608082015160a0830152612999565b6101208101516001600160401b0316156128795761286f8161012001516110a8565b60a0830152612999565b60405163023aa9ab60e61b81527fcd775f2396f9f13f12bcf8ca32e21df66559a8adc3944d0591127e7731f7ab8560048201527f00000000000000000000000000000000000000000000000000000000000000006001600160a01b031690638eaa6ac090602401602060405180830381865afa1580156128fd573d6000803e3d6000fd5b505050506040513d601f19601f8201168201806040525081019061292191906150f6565b6001600160a01b031663a9bf985883602001516040518263ffffffff1660e01b815260040161295291815260200190565b602060405180830381865afa15801561296f573d6000803e3d6000fd5b505050506040513d601f19601f820116820180604052508101906129939190614f81565b60a08301525b6129a68160c001516110a8565b60c083015260e08101516129b9906110a8565b60e08301526060810151604051635b7d0f6960e11b815260ff909116600482015273__Order_________________________________9063b6fa1ed290602401602060405180830381865af4158015612a16573d6000803e3d6000fd5b505050506040513d601f19601f82011682018060405250810190612a3a9190614f64565b15612c0357612a4d8161014001516110a8565b610120830152610160810151612a62906110a8565b61014083015260405163023aa9ab60e61b81527f3cb99135f7a7c088d9085b446345038a22a85f4e8fe072b0e1b66d97243e745860048201526000907f00000000000000000000000000000000000000000000000000000000000000006001600160a01b031690638eaa6ac090602401602060405180830381865afa158015612aef573d6000803e3d6000fd5b505050506040513d601f19601f82011682018060405250810190612b1391906150f6565b6001600160a01b0316636464b68a846020015185604001516040518363ffffffff1660e01b8152600401612b51929190918252602082015260400190565b606060405180830381865afa158015612b6e573d6000803e3d6000fd5b505050506040513d601f19601f82011682018060405250810190612b929190615821565b5091505080612bd75760405162461bcd60e51b8152602060048201526011602482015270145d5bdd194e88139bdd081c5d5bdd1959607a1b60448201526064016106a8565b610140830151612be79082615010565b836101200151612bf79190615032565b61010084015250612c18565b612c118161010001516110a8565b6101008301525b604051630212d6cb60e21b815273__Order_________________________________9063084b5b2c90612c4f90849060040161584f565b602060405180830381865af4158015612c6c573d6000803e3d6000fd5b505050506040513d601f19601f82011682018060405250810190612c909190614f81565b61016083015260408101516101808301906005811115612cb257612cb2614d22565b90816005811115612cc557612cc5614d22565b9052506060015160ff166101a082015292915050565b6000546001600160a01b03620100009091041633146106b15760405162461bcd60e51b815260206004820152601f60248201527f416c6c6f77616e63653a2063616c6c6572206d757374206265204f776e65720060448201526064016106a8565b600080546001600160a01b038381166201000081810262010000600160b01b0319851617855560405193049190911692909183917f8be0079c531659141344cd1fd0a4f28419497f9722a3daafe3b4186f6b6457e091a35050565b60606000612dbf60405180606001604052806000815260200160008152602001600081525090565b612dd58787600001518860c00151600080614070565b80519093506000816001600160401b03811115612df457612df461475f565b604051908082528060200260200182016040528015612e2d57816020015b612e1a614573565b815260200190600190039081612e125790505b5090506000805b8381101561317f578960000151878281518110612e5357612e53614fdf565b60200260200101516020015114612ebe5760405162461bcd60e51b815260206004820152602960248201527f5f5f736561726368206f75745f5b695d2e61646472203d3d207461726765745f6044820152682e63757272656e637960b81b60648201526084016106a8565b885115801590612eee57508860000151878281518110612ee057612ee0614fdf565b602002602001015160800151115b15612ef85761316d565b8960200151878281518110612f0f57612f0f614fdf565b6020026020010151606001511015612f265761316d565b886060015173__MarketLib_____________________________635640453d9091898481518110612f5957612f59614fdf565b6020026020010151600001516040518363ffffffff1660e01b8152600401612f8292919061593e565b602060405180830381865af4158015612f9f573d6000803e3d6000fd5b505050506040513d601f19601f82011682018060405250810190612fc39190614f81565b878281518110612fd557612fd5614fdf565b6020026020010151604001511015612fec5761316d565b868181518110612ffe57612ffe614fdf565b602002602001015160600151896060015173__MarketLib_____________________________635640453d90918a858151811061303d5761303d614fdf565b6020026020010151600001516040518363ffffffff1660e01b815260040161306692919061593e565b602060405180830381865af4158015613083573d6000803e3d6000fd5b505050506040513d601f19601f820116820180604052508101906130a79190614f81565b8883815181106130b9576130b9614fdf565b6020026020010151604001516130cf9190614fb0565b10156130da5761316d565b8960a0015160011480156130f15750602089015115155b801561311d5750886020015187828151811061310f5761310f614fdf565b602002602001015160800151115b156131275761316d565b86818151811061313957613139614fdf565b602002602001015183838151811061315357613153614fdf565b6020026020010181905250818061316990614ff5565b9250505b8061317781614ff5565b915050612e34565b508152935073__MarketSearchLib_______________________905063b51b8e828460008989826040519080825280602002602001820160405280156131df57816020015b6131cc614573565b8152602001906001900390816131c45790505b506040518663ffffffff1660e01b8152600401613200959493929190615993565b600060405180830381865af415801561321d573d6000803e3d6000fd5b505050506040513d6000823e601f3d908101601f191682016040526132459190810190615a3c565b91945092509050836114a957604051637bf5cddb60e11b815273__MarketLib_____________________________9063f7eb9bb690613288908690600401615a93565b600060405180830381865af41580156132a5573d6000803e3d6000fd5b505050506040513d6000823e601f3d908101601f191682016040526132cd91908101906157c9565b92508560a001516000141580156132e857508560a001518351115b156114a95760a086015180845260405163742228d760e01b815273__MarketLib_____________________________9063742228d79061332c908790600401615a93565b608060405180830381865af4158015613349573d6000803e3d6000fd5b505050506040513d601f19601f8201168201806040525081019061336d9190615aa6565b9093509150509450945094915050565b60008281526001602090815260408083208054825181850281018501909352808352606094938301828280156133d257602002820191906000526020600020905b8154815260200190600101908083116133be575b50505050509050600081511161342a5760405162461bcd60e51b815260206004820152601b60248201527f5f706174684c6973742066726f6d706174682e6c656e6774683e30000000000060448201526064016106a8565b80516001600160401b038111156134435761344361475f565b60405190808252806020026020018201604052801561347657816020015b60608152602001906001900390816134615790505b5091506000805b8251811015613721577f00000000000000000000000000000000000000000000000000000000000000006001600160a01b03166338a699a48483815181106134c7576134c7614fdf565b60200260200101516040518263ffffffff1660e01b81526004016134ed91815260200190565b602060405180830381865afa15801561350a573d6000803e3d6000fd5b505050506040513d601f19601f8201168201806040525081019061352e9190614f64565b6135375761370f565b60007f00000000000000000000000000000000000000000000000000000000000000006001600160a01b03166327ee9dc285848151811061357a5761357a614fdf565b60200260200101516040518263ffffffff1660e01b81526004016135a091815260200190565b600060405180830381865afa1580156135bd573d6000803e3d6000fd5b505050506040513d6000823e601f3d908101601f191682016040526135e591908101906150c2565b905060008151116136325760405162461bcd60e51b815260206004820152601760248201527605f706174684c69737420706174682e6c656e6774683e3604c1b60448201526064016106a8565b8581600183516136429190614fb0565b8151811061365257613652614fdf565b602002602001015114613665575061370f565b60005b600182516136769190614fb0565b8110156136c7576136ac73__BytesAndKeccakLib_____________________6376254ff9848481518110610ed457610ed4614fdf565b6136b5576136c7565b806136bf81614ff5565b915050613668565b600182516136d59190614fb0565b8110156136e357505061370f565b8186856136ef81614ff5565b96508151811061370157613701614fdf565b602002602001018190525050505b8061371981614ff5565b91505061347d565b50808352600081116137695760405162461bcd60e51b815260206004820152601160248201527005f706174684c69737420636f756e743e3607c1b60448201526064016106a8565b505092915050565b613779614529565b6002855110156137d75760405162461bcd60e51b815260206004820152602360248201527f5f5f73656172636843466f6c6c6f775061746820706174685f2e6c656e6774686044820152621f1e9960e91b60648201526084016106a8565b8351855186906137e990600190614fb0565b815181106137f9576137f9614fdf565b6020026020010151146138745760405162461bcd60e51b815260206004820152603d60248201527f5f5f73656172636843466f6c6c6f775061746820706174685f5b706174685f2e60448201527f6c656e677468202d20315d3d3d7461726765745f2e63757272656e637900000060648201526084016106a8565b606061387e61465a565b865160021415613984576138bb876002895161389a9190614fb0565b815181106138aa576138aa614fdf565b602002602001015187876000612d97565b6040840152602083015280516080830152875190925073__MarketLib_____________________________90632fbf1f939083908a906138fd90600290614fb0565b8151811061390d5761390d614fdf565b602002602001015189600001516040518463ffffffff1660e01b815260040161393893929190615ad3565b600060405180830381865af4158015613955573d6000803e3d6000fd5b505050506040513d6000823e601f3d908101601f1916820160405261397d9190810190615af8565b9050613fe3565b604085015160015b6001895161399a9190614fb0565b811015613b57576000613a8f8a6139b2600185614fb0565b815181106139c2576139c2614fdf565b60200260200101516040518060e001604052808d86815181106139e7576139e7614fdf565b6020026020010151815260200160008152602001600081526020016000151581526020016000151581526020016000815260200160006001600160401b03811115613a3457613a3461475f565b604051908082528060200260200182016040528015613a5d578160200160208202803683370190505b50815250604051806080016040528060008152602001600081526020018781526020018c606001518152506001612d97565b5091505080613aa2575050505050614068565b8673__MarketLib_____________________________63e23edbef90918c8581518110613ad157613ad1614fdf565b60200260200101516040518363ffffffff1660e01b8152600401613af6929190615b2c565b602060405180830381865af4158015613b13573d6000803e3d6000fd5b505050506040513d601f19601f82011682018060405250810190613b379190614f81565b613b419082614fc7565b9250508080613b4f90614ff5565b91505061398c565b50613bb18860028a51613b6a9190614fb0565b81518110613b7a57613b7a614fdf565b602002602001015188604051806080016040528060008152602001600081526020018581526020018a606001518152506000612d97565b604085015260208401819052909350613bcc57505050614068565b82516080830152875173__MarketLib_____________________________90632fbf1f939084908b90613c0190600290614fb0565b81518110613c1157613c11614fdf565b60200260200101518a600001516040518463ffffffff1660e01b8152600401613c3c93929190615ad3565b600060405180830381865af4158015613c59573d6000803e3d6000fd5b505050506040513d6000823e601f3d908101601f19168201604052613c819190810190615af8565b9150670de0b6b3a76400008260400151602001518360200151613ca49190615032565b613cae9190615010565b9050600060028951613cc09190614fb0565b90505b8015613fe0576060613cd361465a565b613cdb6146b2565b613d066040518060800160405280600081526020016000815260200160008152602001606081525090565b8c8581518110613d1857613d18614fdf565b60200260200101518260000181815250508973__MarketLib_____________________________63e23edbef90918f8881518110613d5857613d58614fdf565b60200260200101516040518363ffffffff1660e01b8152600401613d7d929190615b2c565b602060405180830381865af4158015613d9a573d6000803e3d6000fd5b505050506040513d601f19601f82011682018060405250810190613dbe9190614f81565b613dc89087614fb0565b6040830152600160608084018290528c81015190830152613e10908e90613def9088614fb0565b81518110613dff57613dff614fdf565b602002602001015183836000612d97565b60408601526020850181905290945015159150613e34905057505050505050614068565b670de0b6b3a76400008160400151602001518260200151613e559190615032565b613e5f9190615010565b935073__MarketLib_____________________________6350308ede86888e613e89600189614fb0565b81518110613e9957613e99614fdf565b6020026020010151866040518563ffffffff1660e01b8152600401613ec19493929190615b3f565b600060405180830381865af4158015613ede573d6000803e3d6000fd5b505050506040513d6000823e601f3d908101601f19168201604052613f069190810190615b7e565b604080840151519083015151919850919650670de0b6b3a764000091613f2b91615032565b613f359190615010565b60408087018051929092528281015181015191510151670de0b6b3a764000091613f5e91615032565b613f689190615010565b85604001516040018181525050670de0b6b3a764000085602001518260400151602001518360200151613f9b9190615032565b613fa59190615010565b866040015160200151613fb89190615032565b613fc29190615010565b60408601516020015250819050613fd881615be1565b915050613cc3565b50505b604051637513ce1b60e01b815273__MarketLib_____________________________90637513ce1b9061401e90869085908790600401615370565b600060405180830381865af415801561403b573d6000803e3d6000fd5b505050506040513d6000823e601f3d908101601f19168201604052614063919081019061559d565b925050505b949350505050565b606060008060006006600073__BytesAndKeccakLib_____________________6376254ff98c8c6040518363ffffffff1660e01b81526004016140bd929190918252602082015260400190565b602060405180830381865af41580156140da573d6000803e3d6000fd5b505050506040513d601f19601f820116820180604052508101906140fe9190614f81565b8152602081019190915260400160002080549091508561411c578095505b856001600160401b038111156141345761413461475f565b60405190808252806020026020018201604052801561416d57816020015b61415a614573565b8152602001906001900390816141525790505b50945060005b8181101561451a578684106141875761451a565b60006005600085848154811061419f5761419f614fdf565b90600052602060002001548152602001908152602001600020905073__Order_________________________________63084b5b2c826040518263ffffffff1660e01b81526004016141f19190615cd3565b602060405180830381865af415801561420e573d6000803e3d6000fd5b505050506040513d601f19601f820116820180604052508101906142329190614f81565b15806142b65750604051630212d6cb60e21b8152429073__Order_________________________________9063084b5b2c90614272908590600401615cd3565b602060405180830381865af415801561428f573d6000803e3d6000fd5b505050506040513d601f19601f820116820180604052508101906142b39190614f81565b10155b80156143d3575060405163023aa9ab60e61b81527f33ffbdff3a4282df4353f3593b78d26aaf4c28b5786164f828858505bc5e301c60048201527f00000000000000000000000000000000000000000000000000000000000000006001600160a01b031690638eaa6ac090602401602060405180830381865afa158015614341573d6000803e3d6000fd5b505050506040513d601f19601f8201168201806040525081019061436591906150f6565b6001600160a01b0316635aca1641828c6040518363ffffffff1660e01b8152600401614392929190615ce2565b602060405180830381865afa1580156143af573d6000803e3d6000fd5b505050506040513d601f19601f820116820180604052508101906143d39190614f64565b1561450657856143e281614ff5565b9650508886116143f25750614508565b600061441b85848154811061440957614409614fdf565b90600052602060002001546001612572565b90508060a0015181608001511015614434575050614508565b806060015188878151811061444b5761444b614fdf565b60200260200101516000018181525050806040015188878151811061447257614472614fdf565b602002602001015160200181815250508060a0015188878151811061449957614499614fdf565b6020026020010151606001818152505080608001518887815181106144c0576144c0614fdf565b602002602001015160400181815250508061010001518887815181106144e8576144e8614fdf565b6020908102919091010151608001528561450181614ff5565b965050505b505b8061451281614ff5565b915050614173565b50505082525095945050505050565b60405180608001604052806000815260200161455f60405180606001604052806000815260200160008152602001600081525090565b815260200160608152602001606081525090565b6040518060c001604052806000815260200160008019168152602001600081526020016000815260200160008152602001606081525090565b604051806101c0016040528060006001600160a01b0316815260200160008019168152602001600080191681526020016000815260200160008152602001600081526020016000815260200160008152602001600081526020016000815260200160008152602001600081526020016000600581111561462e5761462e614d22565b8152600060209091015290565b6040518061050001604052806028906020820280368337509192915050565b6040518060c00160405280606081526020016000815260200161469760405180606001604052806000815260200160008152602001600081525090565b81526020016000815260200160008152602001606081525090565b6040518060e0016040528060008019168152602001600081526020016000815260200160001515815260200160001515815260200160008152602001606081525090565b6000808585111561470657600080fd5b8386111561471357600080fd5b5050820193919092039150565b60006020828403121561473257600080fd5b81356001600160e01b031981168114610bcc57600080fd5b6001600160a01b0381168114611b3057600080fd5b634e487b7160e01b600052604160045260246000fd5b60405160c081016001600160401b03811182821017156147975761479761475f565b60405290565b604051608081016001600160401b03811182821017156147975761479761475f565b604080519081016001600160401b03811182821017156147975761479761475f565b604051601f8201601f191681016001600160401b03811182821017156148095761480961475f565b604052919050565b8015158114611b3057600080fd5b803561482a81614811565b919050565b600061010080838503121561484357600080fd5b604051908101906001600160401b03821181831017156148655761486561475f565b6040918252833581526020808501359082015291508201358161488782614811565b8160408201526148996060850161481f565b60608201526080840135608082015260a084013560a082015260c084013560c082015260e084013560e0820152505092915050565b60006001600160401b038211156148e7576148e761475f565b5060051b60200190565b600082601f83011261490257600080fd5b81356020614917614912836148ce565b6147e1565b82815260059290921b8401810191818101908684111561493657600080fd5b8286015b84811015614951578035835291830191830161493a565b509695505050505050565b6000806000806000806101a0878903121561497657600080fd5b86356149818161474a565b95506020870135945060408701356149988161474a565b9350606087013592506149ae886080890161482f565b91506101808701356001600160401b038111156149ca57600080fd5b6149d689828a016148f1565b9150509295509295509295565b600081518084526020808501945080840160005b83811015614a13578151875295820195908201906001016149f7565b509495945050505050565b600081518084526020808501808196508360051b8101915082860160005b85811015614aa4578284038952815180518552858101518686015260408082015190860152606080820151908601526080808201519086015260a09081015160c091860182905290614a90818701836149e3565b9a87019a9550505090840190600101614a3c565b5091979650505050505050565b60a081526000614ac460a0830186614a1e565b905083602083015261406860408301848051825260208082015190830152604090810151910152565b60008060008060608587031215614b0357600080fd5b843593506020850135925060408501356001600160401b0380821115614b2857600080fd5b818701915087601f830112614b3c57600080fd5b813581811115614b4b57600080fd5b8860208260051b8501011115614b6057600080fd5b95989497505060200194505050565b600081518084526020808501945080840160005b83811015614a13578151805188528301518388015260409096019590820190600101614b83565b600060408083526101008084018651838601526020808801516060614be5818901838051825260208082015190830152604090810151910152565b858a015160c0898101819052815195869052610120600587901b8b0181019692860194509091908a019060005b81811015614ca7578b880361011f19018352855180518a8a52614c378b8b01826149e3565b905088820151898b01528b820151614c658d8c01828051825260208082015190830152604090810151910152565b508187015160a08b8101919091526080830151878c01529091015189820360e08b015290614c9381836149e3565b995050509486019491860191600101614c12565b50505050890151878403603f190160e08901529450614cc890508285614a1e565b935085840381870152505050614cde8185614b6f565b95945050505050565b60008060408385031215614cfa57600080fd5b50508035926020909101359150565b600060208284031215614d1b57600080fd5b5035919050565b634e487b7160e01b600052602160045260246000fd5b60068110614d5657634e487b7160e01b600052602160045260246000fd5b9052565b81516001600160a01b031681526101c081016020830151602083015260408301516040830152606083015160608301526080830151608083015260a083015160a083015260c083015160c083015260e083015160e083015261010080840151818401525061012080840151818401525061014080840151818401525061016080840151818401525061018080840151614df582850182614d38565b50506101a08381015160ff811684830152613769565b600060208284031215614e1d57600080fd5b8135610bcc8161474a565b6000602080830181845280855180835260408601915060408160051b870101925083870160005b82811015614e7d57603f19888603018452614e6b8583516149e3565b94509285019290850190600101614e4f565b5092979650505050505050565b600060208284031215614e9c57600080fd5b813565ffffffffffff81168114610bcc57600080fd5b600060208284031215614ec457600080fd5b81356001600160401b0381168114610bcc57600080fd5b6000806000806101608587031215614ef257600080fd5b8435935060208501359250614f0a866040870161482f565b91506101408501356001600160401b03811115614f2657600080fd5b614f32878288016148f1565b91505092959194509250565b600060208284031215614f5057600080fd5b813563ffffffff81168114610bcc57600080fd5b600060208284031215614f7657600080fd5b8151610bcc81614811565b600060208284031215614f9357600080fd5b5051919050565b634e487b7160e01b600052601160045260246000fd5b600082821015614fc257614fc2614f9a565b500390565b60008219821115614fda57614fda614f9a565b500190565b634e487b7160e01b600052603260045260246000fd5b600060001982141561500957615009614f9a565b5060010190565b60008261502d57634e487b7160e01b600052601260045260246000fd5b500490565b600081600019048311821515161561504c5761504c614f9a565b500290565b634e487b7160e01b600052600160045260246000fd5b600082601f83011261507857600080fd5b81516020615088614912836148ce565b82815260059290921b840181019181810190868411156150a757600080fd5b8286015b8481101561495157805183529183019183016150ab565b6000602082840312156150d457600080fd5b81516001600160401b038111156150ea57600080fd5b61406884828501615067565b60006020828403121561510857600080fd5b8151610bcc8161474a565b6001600160a01b038716815260208082018790526040820186905260608201859052608082018490526105a082019060a083018460005b60288110156151675781518352918301919083019060010161514a565b50505050979650505050505050565b6000825160005b81811015615197576020818601810151858301520161517d565b818111156151a6576000828501525b509190910192915050565b80516101008084528151908401819052600091610120850191602091820190845b818110156151ee578251855293830193918301916001016151d2565b50505083810151908501526040808401518051828701526020810151606087015290810151608086015250606083015160a0850152608083015160c085015260a083015184820360e0860152614cde82826149e3565b600081518084526020808501808196508360051b8101915082860160005b85811015614aa4578284038952815180518552858101518686015260408082015190860152606080820151908601526080808201519086015260a09081015160c0918601829052906152b6818701836149e3565b9a87019a9550505090840190600101615262565b600060c08301825184526020808401516152fa828701828051825260208082015190830152604090810151910152565b50604084015160c0608087015282815180855260e08801915060e08160051b8901019450838301925060005b818110156153545760df198987030183526153428685516151b1565b95509284019291840191600101615326565b5050505050606083015184820360a0860152614cde8282615244565b60608152600061538360608301866152ca565b828103602084015261539581866151b1565b905082810360408401526153a98185615244565b9695505050505050565b6000606082840312156153c557600080fd5b604051606081018181106001600160401b03821117156153e7576153e761475f565b80604052508091508251815260208301516020820152604083015160408201525092915050565b6000610100828403121561542157600080fd5b615429614775565b905081516001600160401b038082111561544257600080fd5b61544e85838601615067565b83526020840151602084015261546785604086016153b3565b604084015260a0840151606084015260c0840151608084015260e084015191508082111561549457600080fd5b506154a184828501615067565b60a08301525092915050565b600082601f8301126154be57600080fd5b815160206154ce614912836148ce565b82815260059290921b840181019181810190868411156154ed57600080fd5b8286015b848110156149515780516001600160401b03808211156155115760008081fd5b9088019060c0828b03601f190181131561552b5760008081fd5b615533614775565b87840151815260408085015189830152606080860151828401526080915081860151818401525060a080860151828401528386015193508484111561557a57600091508182fd5b6155888e8b86890101615067565b908301525086525050509183019183016154f1565b600060208083850312156155b057600080fd5b82516001600160401b03808211156155c757600080fd5b9084019060c082870312156155db57600080fd5b6155e361479d565b825181526155f3878585016153b3565b8482015260808301518281111561560957600080fd5b8301601f8101881361561a57600080fd5b8051615628614912826148ce565b81815260059190911b8201860190868101908a83111561564757600080fd5b8784015b8381101561567f578051878111156156635760008081fd5b6156718d8b8389010161540e565b84525091880191880161564b565b50604085015250505060a083015193508184111561569c57600080fd5b6156a8878585016154ad565b60608201529695505050505050565b6040815260006156ca60408301856152ca565b8281036020840152614cde81856152ca565b6060815260006153836060830186614b6f565b6000602080838503121561570257600080fd5b82516001600160401b0381111561571857600080fd5b8301601f8101851361572957600080fd5b8051615737614912826148ce565b81815260069190911b8201830190838101908783111561575657600080fd5b928401925b8284101561579957604084890312156157745760008081fd5b61577c6147bf565b84518152858501518682015282526040909301929084019061575b565b979650505050505050565b6040815260006157b76040830185615244565b8281036020840152614cde8185615244565b6000602082840312156157db57600080fd5b81516001600160401b038111156157f157600080fd5b614068848285016154ad565b6000806040838503121561581057600080fd5b505080516020909101519092909150565b60008060006060848603121561583657600080fd5b8351925060208401519150604084015190509250925092565b81518152602080830151610180830191615873908401826001600160a01b03169052565b5060408301516158866040840182614d38565b50606083015161589b606084018260ff169052565b506080830151608083015260a08301516158c060a08401826001600160401b03169052565b5060c08301516158db60c08401826001600160401b03169052565b5060e08301516158f660e08401826001600160401b03169052565b50610100838101516001600160401b03908116918401919091526101208085015182169084015261014080850151821690840152610160808501519182168185015290613769565b6040815260006159516040830185615244565b90508260208301529392505050565b80518252602081015160208301526040810151604083015260006060820151608060608501526140686080850182615244565b60a0815260006159a660a0830188615244565b866020840152828103604084015285518152602086015160208201526040860151604082015260608601511515606082015260808601511515608082015260a086015160a082015260c086015160e060c0830152615a0760e08301826149e3565b9150508281036060840152615a1c8186615960565b90508281036080840152615a308185615244565b98975050505050505050565b600080600060a08486031215615a5157600080fd5b83516001600160401b03811115615a6757600080fd5b615a73868287016154ad565b93505060208401519150615a8a85604086016153b3565b90509250925092565b602081526000610bcc6020830184615244565b60008060808385031215615ab957600080fd5b82519150615aca84602085016153b3565b90509250929050565b606081526000615ae660608301866151b1565b60208301949094525060400152919050565b600060208284031215615b0a57600080fd5b81516001600160401b03811115615b2057600080fd5b6140688482850161540e565b6040815260006159516040830185614b6f565b608081526000615b5260808301876151b1565b8281036020840152615b648187615244565b905084604084015282810360608401526157998185615244565b60008060408385031215615b9157600080fd5b82516001600160401b0380821115615ba857600080fd5b615bb48683870161540e565b93506020850151915080821115615bca57600080fd5b50615bd7858286016154ad565b9150509250929050565b600081615bf057615bf0614f9a565b506000190190565b8054825260018101546001600160a01b0381166020840152615c236040840160ff8360a01c16614d38565b60a81c60ff1660608301526002810154608083015260038101546001600160401b0380821660a0850152604082901c811660c0850152615c7360e08501828460801c166001600160401b03169052565b60c082901c61010085015260048301546001600160401b03828216166101208601529150615cb26101408501828460401c166001600160401b03169052565b615ccd6101608501828460801c166001600160401b03169052565b50505050565b61018081016106fa8284615bf8565b60006101a0808301615cf48487615bf8565b6101808401919091528351908190526101c083019060209081860160005b82811015614e7d57815185529383019390830190600101615d1256fea264697066735822122031f38c90b9f01713a2ccf7ea2005e67c56da08dc2fd8e47a12b5c88f0973100f64736f6c634300080b0033","bytecodeSha1":"6a5fef54c0928db02a14fdb0892795a4a6021195","type":"contract","abi":[{"inputs":[{"internalType":"contract Repository","name":"rep_","type":"address"}],"stateMutability":"nonpayable","type":"constructor","name":"constructor"},{"anonymous":false,"inputs":[{"indexed":true,"internalType":"address","name":"previousOwner","type":"address"},{"indexed":true,"internalType":"address","name":"newOwner","type":"address"}],"name":"OwnershipTransferred","type":"event"},{"stateMutability":"nonpayable","type":"fallback"},{"inputs":[],"name":"STOP","outputs":[{"internalType":"bool","name":"","type":"bool"}],"stateMutability":"view","type":"function"},{"inputs":[],"name":"STOPFOREVER","outputs":[{"internalType":"bool","name":"","type":"bool"}],"stateMutability":"view","type":"function"},{"inputs":[{"internalType":"uint256","name":"val_","type":"uint256"}],"name":"UInt256ToUInt32","outputs":[{"internalType":"uint32","name":"","type":"uint32"}],"stateMutability":"pure","type":"function"},{"inputs":[{"internalType":"uint256","name":"val_","type":"uint256"}],"name":"UInt256ToUInt48","outputs":[{"internalType":"uint48","name":"","type":"uint48"}],"stateMutability":"pure","type":"function"},{"inputs":[{"internalType":"uint256","name":"val_","type":"uint256"}],"name":"UInt256ToUInt64","outputs":[{"internalType":"uint64","name":"","type":"uint64"}],"stateMutability":"pure","type":"function"},{"inputs":[{"internalType":"uint32","name":"val_","type":"uint32"}],"name":"UInt32ToUInt256","outputs":[{"internalType":"uint256","name":"","type":"uint256"}],"stateMutability":"pure","type":"function"},{"inputs":[{"internalType":"uint48","name":"val_","type":"uint48"}],"name":"UInt48ToUInt256","outputs":[{"internalType":"uint256","name":"","type":"uint256"}],"stateMutability":"pure","type":"function"},{"inputs":[{"internalType":"uint64","name":"val_","type":"uint64"}],"name":"UInt64ToUInt256","outputs":[{"internalType":"uint256","name":"","type":"uint256"}],"stateMutability":"pure","type":"function"},{"inputs":[{"internalType":"bytes32","name":"_from","type":"bytes32"},{"internalType":"bytes32","name":"fromto_","type":"bytes32"}],"name":"_existPath","outputs":[{"internalType":"bool","name":"","type":"bool"}],"stateMutability":"view","type":"function"},{"inputs":[{"internalType":"bytes32","name":"from_","type":"bytes32"}],"name":"_listPathFrom","outputs":[{"internalType":"bytes32[][]","name":"out_","type":"bytes32[][]"}],"stateMutability":"view","type":"function"},{"inputs":[{"internalType":"bytes32","name":"from_","type":"bytes32"},{"internalType":"bytes32","name":"to_","type":"bytes32"},{"internalType":"uint256[]","name":"args_","type":"uint256[]"}],"name":"d_search","outputs":[{"components":[{"internalType":"uint256","name":"orderid","type":"uint256"},{"internalType":"bytes32","name":"addr","type":"bytes32"},{"internalType":"uint256","name":"qty","type":"uint256"},{"internalType":"uint256","name":"granularity","type":"uint256"},{"internalType":"uint256","name":"quote","type":"uint256"},{"internalType":"uint256[]","name":"delivery","type":"uint256[]"}],"internalType":"struct Solution[]","name":"out_","type":"tuple[]"},{"internalType":"uint256","name":"qty_","type":"uint256"},{"components":[{"internalType":"uint256","name":"quotemin","type":"uint256"},{"internalType":"uint256","name":"quoteavg","type":"uint256"},{"internalType":"uint256","name":"quotemax","type":"uint256"}],"internalType":"struct Quote","name":"","type":"tuple"}],"stateMutability":"view","type":"function"},{"inputs":[{"internalType":"bytes32","name":"fromcurrency_","type":"bytes32"},{"internalType":"bytes32","name":"tocurrency_","type":"bytes32"},{"internalType":"uint256[]","name":"args_","type":"uint256[]"}],"name":"d_searchC","outputs":[{"components":[{"internalType":"uint256","name":"qty","type":"uint256"},{"components":[{"internalType":"uint256","name":"quotemin","type":"uint256"},{"internalType":"uint256","name":"quoteavg","type":"uint256"},{"internalType":"uint256","name":"quotemax","type":"uint256"}],"internalType":"struct Quote","name":"quote","type":"tuple"},{"components":[{"internalType":"bytes32[]","name":"path","type":"bytes32[]"},{"internalType":"uint256","name":"qty","type":"uint256"},{"components":[{"internalType":"uint256","name":"quotemin","type":"uint256"},{"internalType":"uint256","name":"quoteavg","type":"uint256"},{"internalType":"uint256","name":"quotemax","type":"uint256"}],"internalType":"struct Quote","name":"quote","type":"tuple"},{"internalType":"uint256","name":"start","type":"uint256"},{"internalType":"uint256","name":"count","type":"uint256"},{"internalType":"uint256[]","name":"offset","type":"uint256[]"}],"internalType":"struct SolutionSetDesc[]","name":"descs","type":"tuple[]"},{"components":[{"internalType":"uint256","name":"orderid","type":"uint256"},{"internalType":"bytes32","name":"addr","type":"bytes32"},{"internalType":"uint256","name":"qty","type":"uint256"},{"internalType":"uint256","name":"granularity","type":"uint256"},{"internalType":"uint256","name":"quote","type":"uint256"},{"internalType":"uint256[]","name":"delivery","type":"uint256[]"}],"internalType":"struct Solution[]","name":"solutions","type":"tuple[]"}],"internalType":"struct SolutionSet","name":"out_","type":"tuple"},{"components":[{"internalType":"bytes32","name":"currency","type":"bytes32"},{"internalType":"uint256","name":"qty","type":"uint256"}],"internalType":"struct Remainer[]","name":"remainerout_","type":"tuple[]"}],"stateMutability":"view","type":"function"},{"inputs":[],"name":"id","outputs":[{"internalType":"bytes32","name":"","type":"bytes32"}],"stateMutability":"view","type":"function"},{"inputs":[{"internalType":"address","name":"caller_","type":"address"}],"name":"isOwner","outputs":[{"internalType":"bool","name":"","type":"bool"}],"stateMutability":"view","type":"function"},{"inputs":[{"internalType":"uint256","name":"order_","type":"uint256"}],"name":"order","outputs":[{"components":[{"internalType":"address","name":"account","type":"address"},{"internalType":"bytes32","name":"from","type":"bytes32"},{"internalType":"bytes32","name":"to","type":"bytes32"},{"internalType":"uint256","name":"orderid","type":"uint256"},{"internalType":"uint256","name":"qty","type":"uint256"},{"internalType":"uint256","name":"granularity","type":"uint256"},{"internalType":"uint256","name":"qtydone","type":"uint256"},{"internalType":"uint256","name":"originalqty","type":"uint256"},{"internalType":"uint256","name":"quote","type":"uint256"},{"internalType":"uint256","name":"originalquote","type":"uint256"},{"internalType":"uint256","name":"originalbasedquote","type":"uint256"},{"internalType":"uint256","name":"expire","type":"uint256"},{"internalType":"enum Order.State","name":"state","type":"uint8"},{"internalType":"uint8","name":"options","type":"uint8"}],"internalType":"struct Order.InfoPublic","name":"","type":"tuple"}],"stateMutability":"view","type":"function"},{"inputs":[],"name":"owner","outputs":[{"internalType":"address","name":"","type":"address"}],"stateMutability":"view","type":"function"},{"inputs":[],"name":"renounceOwnership","outputs":[],"stateMutability":"nonpayable","type":"function"},{"inputs":[],"name":"rep","outputs":[{"internalType":"contract Repository","name":"","type":"address"}],"stateMutability":"view","type":"function"},{"inputs":[{"internalType":"bytes32","name":"from_","type":"bytes32"},{"internalType":"bytes32","name":"to_","type":"bytes32"},{"components":[{"internalType":"uint256","name":"granularity","type":"uint256"},{"internalType":"uint256","name":"qty","type":"uint256"},{"internalType":"bool","name":"qtyismin","type":"bool"},{"internalType":"bool","name":"qtyismax","type":"bool"},{"internalType":"uint256","name":"maxtotal","type":"uint256"},{"internalType":"uint256","name":"maxquote","type":"uint256"},{"internalType":"uint256","name":"maxavgquote","type":"uint256"},{"internalType":"uint256","name":"maxcount","type":"uint256"}],"internalType":"struct MarketSearch.SearchPublicArgs","name":"args_","type":"tuple"},{"internalType":"uint256[]","name":"delivery_","type":"uint256[]"}],"name":"search","outputs":[{"components":[{"internalType":"uint256","name":"orderid","type":"uint256"},{"internalType":"bytes32","name":"addr","type":"bytes32"},{"internalType":"uint256","name":"qty","type":"uint256"},{"internalType":"uint256","name":"granularity","type":"uint256"},{"internalType":"uint256","name":"quote","type":"uint256"},{"internalType":"uint256[]","name":"delivery","type":"uint256[]"}],"internalType":"struct Solution[]","name":"","type":"tuple[]"},{"internalType":"uint256","name":"","type":"uint256"},{"components":[{"internalType":"uint256","name":"quotemin","type":"uint256"},{"internalType":"uint256","name":"quoteavg","type":"uint256"},{"internalType":"uint256","name":"quotemax","type":"uint256"}],"internalType":"struct Quote","name":"","type":"tuple"}],"stateMutability":"view","type":"function"},{"inputs":[{"internalType":"bytes32","name":"fromcurrency_","type":"bytes32"},{"internalType":"bytes32","name":"tocurrency_","type":"bytes32"},{"components":[{"internalType":"uint256","name":"granularity","type":"uint256"},{"internalType":"uint256","name":"qty","type":"uint256"},{"internalType":"bool","name":"qtyismin","type":"bool"},{"internalType":"bool","name":"qtyismax","type":"bool"},{"internalType":"uint256","name":"maxtotal","type":"uint256"},{"internalType":"uint256","name":"maxquote","type":"uint256"},{"internalType":"uint256","name":"maxavgquote","type":"uint256"},{"internalType":"uint256","name":"maxcount","type":"uint256"}],"internalType":"struct MarketSearch.SearchPublicArgs","name":"args_","type":"tuple"},{"internalType":"uint256[]","name":"delivery_","type":"uint256[]"}],"name":"searchC","outputs":[{"components":[{"internalType":"uint256","name":"qty","type":"uint256"},{"components":[{"internalType":"uint256","name":"quotemin","type":"uint256"},{"internalType":"uint256","name":"quoteavg","type":"uint256"},{"internalType":"uint256","name":"quotemax","type":"uint256"}],"internalType":"struct Quote","name":"quote","type":"tuple"},{"components":[{"internalType":"bytes32[]","name":"path","type":"bytes32[]"},{"internalType":"uint256","name":"qty","type":"uint256"},{"components":[{"internalType":"uint256","name":"quotemin","type":"uint256"},{"internalType":"uint256","name":"quoteavg","type":"uint256"},{"internalType":"uint256","name":"quotemax","type":"uint256"}],"internalType":"struct Quote","name":"quote","type":"tuple"},{"internalType":"uint256","name":"start","type":"uint256"},{"internalType":"uint256","name":"count","type":"uint256"},{"internalType":"uint256[]","name":"offset","type":"uint256[]"}],"internalType":"struct SolutionSetDesc[]","name":"descs","type":"tuple[]"},{"components":[{"internalType":"uint256","name":"orderid","type":"uint256"},{"internalType":"bytes32","name":"addr","type":"bytes32"},{"internalType":"uint256","name":"qty","type":"uint256"},{"internalType":"uint256","name":"granularity","type":"uint256"},{"internalType":"uint256","name":"quote","type":"uint256"},{"internalType":"uint256[]","name":"delivery","type":"uint256[]"}],"internalType":"struct Solution[]","name":"solutions","type":"tuple[]"}],"internalType":"struct SolutionSet","name":"","type":"tuple"},{"components":[{"internalType":"bytes32","name":"currency","type":"bytes32"},{"internalType":"uint256","name":"qty","type":"uint256"}],"internalType":"struct Remainer[]","name":"","type":"tuple[]"}],"stateMutability":"view","type":"function"},{"inputs":[{"internalType":"address","name":"from_","type":"address"},{"internalType":"uint256","name":"fromid_","type":"uint256"},{"internalType":"address","name":"to_","type":"address"},{"internalType":"uint256","name":"toid_","type":"uint256"},{"components":[{"internalType":"uint256","name":"granularity","type":"uint256"},{"internalType":"uint256","name":"qty","type":"uint256"},{"internalType":"bool","name":"qtyismin","type":"bool"},{"internalType":"bool","name":"qtyismax","type":"bool"},{"internalType":"uint256","name":"maxtotal","type":"uint256"},{"internalType":"uint256","name":"maxquote","type":"uint256"},{"internalType":"uint256","name":"maxavgquote","type":"uint256"},{"internalType":"uint256","name":"maxcount","type":"uint256"}],"internalType":"struct MarketSearch.SearchPublicArgs","name":"args_","type":"tuple"},{"internalType":"uint256[]","name":"delivery_","type":"uint256[]"}],"name":"searchCEx","outputs":[{"components":[{"internalType":"uint256","name":"qty","type":"uint256"},{"components":[{"internalType":"uint256","name":"quotemin","type":"uint256"},{"internalType":"uint256","name":"quoteavg","type":"uint256"},{"internalType":"uint256","name":"quotemax","type":"uint256"}],"internalType":"struct Quote","name":"quote","type":"tuple"},{"components":[{"internalType":"bytes32[]","name":"path","type":"bytes32[]"},{"internalType":"uint256","name":"qty","type":"uint256"},{"components":[{"internalType":"uint256","name":"quotemin","type":"uint256"},{"internalType":"uint256","name":"quoteavg","type":"uint256"},{"internalType":"uint256","name":"quotemax","type":"uint256"}],"internalType":"struct Quote","name":"quote","type":"tuple"},{"internalType":"uint256","name":"start","type":"uint256"},{"internalType":"uint256","name":"count","type":"uint256"},{"internalType":"uint256[]","name":"offset","type":"uint256[]"}],"internalType":"struct SolutionSetDesc[]","name":"descs","type":"tuple[]"},{"components":[{"internalType":"uint256","name":"orderid","type":"uint256"},{"internalType":"bytes32","name":"addr","type":"bytes32"},{"internalType":"uint256","name":"qty","type":"uint256"},{"internalType":"uint256","name":"granularity","type":"uint256"},{"internalType":"uint256","name":"quote","type":"uint256"},{"internalType":"uint256[]","name":"delivery","type":"uint256[]"}],"internalType":"struct Solution[]","name":"solutions","type":"tuple[]"}],"internalType":"struct SolutionSet","name":"","type":"tuple"},{"components":[{"internalType":"bytes32","name":"currency","type":"bytes32"},{"internalType":"uint256","name":"qty","type":"uint256"}],"internalType":"struct Remainer[]","name":"","type":"tuple[]"}],"stateMutability":"view","type":"function"},{"inputs":[{"internalType":"address","name":"from_","type":"address"},{"internalType":"uint256","name":"fromid_","type":"uint256"},{"internalType":"address","name":"to_","type":"address"},{"internalType":"uint256","name":"toid_","type":"uint256"},{"components":[{"internalType":"uint256","name":"granularity","type":"uint256"},{"internalType":"uint256","name":"qty","type":"uint256"},{"internalType":"bool","name":"qtyismin","type":"bool"},{"internalType":"bool","name":"qtyismax","type":"bool"},{"internalType":"uint256","name":"maxtotal","type":"uint256"},{"internalType":"uint256","name":"maxquote","type":"uint256"},{"internalType":"uint256","name":"maxavgquote","type":"uint256"},{"internalType":"uint256","name":"maxcount","type":"uint256"}],"internalType":"struct MarketSearch.SearchPublicArgs","name":"args_","type":"tuple"},{"internalType":"uint256[]","name":"delivery_","type":"uint256[]"}],"name":"searchEx","outputs":[{"components":[{"internalType":"uint256","name":"orderid","type":"uint256"},{"internalType":"bytes32","name":"addr","type":"bytes32"},{"internalType":"uint256","name":"qty","type":"uint256"},{"internalType":"uint256","name":"granularity","type":"uint256"},{"internalType":"uint256","name":"quote","type":"uint256"},{"internalType":"uint256[]","name":"delivery","type":"uint256[]"}],"internalType":"struct Solution[]","name":"","type":"tuple[]"},{"internalType":"uint256","name":"","type":"uint256"},{"components":[{"internalType":"uint256","name":"quotemin","type":"uint256"},{"internalType":"uint256","name":"quoteavg","type":"uint256"},{"internalType":"uint256","name":"quotemax","type":"uint256"}],"internalType":"struct Quote","name":"","type":"tuple"}],"stateMutability":"view","type":"function"},{"inputs":[],"name":"setSTOP","outputs":[],"stateMutability":"nonpayable","type":"function"},{"inputs":[],"name":"setSTOPFOREVER","outputs":[],"stateMutability":"nonpayable","type":"function"},{"inputs":[{"internalType":"bytes4","name":"interfaceId","type":"bytes4"}],"name":"supportsInterface","outputs":[{"internalType":"bool","name":"","type":"bool"}],"stateMutability":"view","type":"function"},{"inputs":[{"internalType":"address","name":"newOwner","type":"address"}],"name":"transferOwnership","outputs":[],"stateMutability":"nonpayable","type":"function"},{"inputs":[],"name":"unsetSTOP","outputs":[],"stateMutability":"nonpayable","type":"function"}],"compiler":{"version":"0.8.11+commit.d7f03943","evm_version":"istanbul","optimizer":{"enabled":true,"runs":200}},"contractName":"MarketSearch","deployedBytecode":"608060405234801561001057600080fd5b50600436106101a95760003560e01c8063854ba99d116100f9578063ccbd163711610097578063e4b1614411610071578063e4b1614414610486578063e9f14ce614610499578063f2fde38b146104ac578063feab4454146104bf576101a9565b8063ccbd163714610444578063ccc0795914610457578063d69358581461047e576101a9565b8063af640d0f116100d3578063af640d0f146103e5578063b03fd40d1461040b578063b9b387451461041e578063bd0ade2b14610431576101a9565b8063854ba99d146103a25780638da5cb5b146103aa57806397962076146103d5576101a9565b80632203616d116101665780636b2b091a116101405780636b2b091a14610351578063715018a61461037157806372ea61bf146103795780637af6649a14610381576101a9565b80632203616d146102d65780632f54bf6e146102fe5780636296514114610326576101a9565b806301ffc9a71461022e57806305d6bd9c1461025657806309252f02146102605780630a3550aa146102825780631ef4590d146102a357806321603f43146102b6575b6101b16104e9565b60006101c16024600436846146f6565b8080601f016020809104026020016040519081016040528093929190818152602001838380828437600092018290525060208501519495509250503660231981019150601f19016004838037816024600437600080826000875af492505050610229816106b3565b505050005b61024161023c366004614720565b6106c9565b60405190151581526020015b60405180910390f35b61025e610700565b005b61027361026e36600461495c565b610717565b60405161024d93929190614ab1565b610295610290366004614aed565b610880565b60405161024d929190614baa565b6102416102b1366004614ce7565b610b42565b6102c96102c4366004614d09565b610bd3565b60405161024d9190614d5a565b6102e96102e4366004614d09565b610be6565b60405163ffffffff909116815260200161024d565b61024161030c366004614e0b565b6000546201000090046001600160a01b0390811691161490565b610339610334366004614d09565b610bf7565b6040516001600160401b03909116815260200161024d565b61036461035f366004614d09565b610c29565b60405161024d9190614e28565b61025e611045565b61025e611057565b61039461038f366004614e8a565b611071565b60405190815260200161024d565b61024161108a565b6000546201000090046001600160a01b03165b6040516001600160a01b03909116815260200161024d565b600054610100900460ff16610241565b7fdcf6913c74762e0b3c7f94f504bb2be7445bbd8d11abee9960f04ebf85e7a7b2610394565b610394610419366004614eb2565b6110a8565b61029561042c36600461495c565b6110c2565b61027361043f366004614aed565b611209565b610295610452366004614edb565b6114b3565b6103bd7f000000000000000000000000000000000000000000000000000000000000000081565b61025e61178e565b610394610494366004614f3e565b6117aa565b6102736104a7366004614edb565b6117c1565b61025e6104ba366004614e0b565b611aba565b6104d26104cd366004614d09565b611b33565b60405165ffffffffffff909116815260200161024d565b6000546001600160a01b03620100009091041633148061059c57506001600160a01b037f0000000000000000000000000000000000000000000000000000000000000000166316279055336040516001600160e01b031960e084901b1681526001600160a01b039091166004820152602401602060405180830381865afa158015610578573d6000803e3d6000fd5b505050506040513d601f19601f8201168201806040525081019061059c9190614f64565b8061063a57506001600160a01b037f000000000000000000000000000000000000000000000000000000000000000016636d70f7ae336040516001600160e01b031960e084901b1681526001600160a01b039091166004820152602401602060405180830381865afa158015610616573d6000803e3d6000fd5b505050506040513d601f19601f8201168201806040525081019061063a9190614f64565b6106b15760405162461bcd60e51b815260206004820152603960248201527f416c6c6f77616e63653a2063616c6c6572206d757374206265205265706f736960448201527f746f727920436f6e7472616374206f72204f70657261746f720000000000000060648201526084015b60405180910390fd5b565b3d6000803e8080156106c4573d6000f35b3d6000fd5b60006001600160e01b031982166301ffc9a760e01b14806106fa57506001600160e01b031982166315d3789560e31b145b92915050565b6107086104e9565b6106b16000805460ff19169055565b6060600061073f60405180606001604052806000815260200160008152602001600081525090565b6040516327bcdbc960e11b81526001600160a01b038a81166004830152602482018a905261086e917f000000000000000000000000000000000000000000000000000000000000000090911690634f79b79290604401602060405180830381865afa1580156107b2573d6000803e3d6000fd5b505050506040513d601f19601f820116820180604052508101906107d69190614f81565b6040516327bcdbc960e11b81526001600160a01b038a81166004830152602482018a90527f00000000000000000000000000000000000000000000000000000000000000001690634f79b79290604401602060405180830381865afa158015610843573d6000803e3d6000fd5b505050506040513d601f19601f820116820180604052508101906108679190614f81565b87876117c1565b92509250925096509650969350505050565b610888614529565b60606000835b610899600882614fb0565b8210156108e25785856108ad846008614fc7565b8181106108bc576108bc614fdf565b90506020020135600014156108d0576108e2565b816108da81614ff5565b92505061088e565b6000826001600160401b038111156108fc576108fc61475f565b604051908082528060200260200182016040528015610925578160200160208202803683370190505b50905060005b83811015610985578787610940836008614fc7565b81811061094f5761094f614fdf565b9050602002013582828151811061096857610968614fdf565b60209081029190910101528061097d81614ff5565b91505061092b565b50610b31896040518060e001604052808b81526020018a8a60008181106109ae576109ae614fdf565b9050602002013581526020018a8a60018181106109cd576109cd614fdf565b9050602002013581526020018a8a60028181106109ec576109ec614fdf565b9050602002013560001415151581526020018a8a6003818110610a1157610a11614fdf565b9050602002013560001415151581526020018a8a6007818110610a3657610a36614fdf565b9050602002013581526020018481525060405180608001604052808b8b6005818110610a6457610a64614fdf565b9050602002013581526020018b8b6006818110610a8357610a83614fdf565b9050602002013581526020018b8b6004818110610aa257610aa2614fdf565b60209081029290920135835250016000604051908082528060200260200182016040528015610aeb57816020015b610ad8614573565b815260200190600190039081610ad05790505b5090526040805160008082526020820190925290610b2b565b6040805180820190915260008082526020820152815260200190600190039081610b045790505b50611b44565b945094505050505b94509492505050565b6000828152600160205260408082209051632be5db2360e11b815260048101919091526024810183905273__$f71e59c5327218924d154e230469c101bd$__906357cbb64690604401602060405180830381865af4158015610ba8573d6000803e3d6000fd5b505050506040513d601f19601f82011682018060405250810190610bcc9190614f64565b9392505050565b610bdb6145ac565b6106fa826000612572565b60006106fa64e8d4a5100083615010565b600080610c096402540be40084615010565b905082610c1b826402540be400615032565b11156106fa576106fa615051565b6000818152600160209081526040808320805482518185028101850190935280835260609493830182828015610c7e57602002820191906000526020600020905b815481526020019060010190808311610c6a575b5050505050905080516001600160401b03811115610c9e57610c9e61475f565b604051908082528060200260200182016040528015610cd157816020015b6060815260200190600190039081610cbc5790505b5091506000805b8251811015610ff2577f00000000000000000000000000000000000000000000000000000000000000006001600160a01b03166338a699a4848381518110610d2257610d22614fdf565b60200260200101516040518263ffffffff1660e01b8152600401610d4891815260200190565b602060405180830381865afa158015610d65573d6000803e3d6000fd5b505050506040513d601f19601f82011682018060405250810190610d899190614f64565b610d9257610fe0565b60007f00000000000000000000000000000000000000000000000000000000000000006001600160a01b03166327ee9dc2858481518110610dd557610dd5614fdf565b60200260200101516040518263ffffffff1660e01b8152600401610dfb91815260200190565b600060405180830381865afa158015610e18573d6000803e3d6000fd5b505050506040513d6000823e601f3d908101601f19168201604052610e4091908101906150c2565b90506000815111610e8d5760405162461bcd60e51b815260206004820152601760248201527605f706174684c69737420706174682e6c656e6774683e3604c1b60448201526064016106a8565b60005b60018251610e9e9190614fb0565b811015610f9857610f7d73__$669c6e0eba2465bd6779ea6ec5db3af1b5$__6376254ff9848481518110610ed457610ed4614fdf565b602002602001015185856001610eea9190614fc7565b81518110610efa57610efa614fdf565b60200260200101516040518363ffffffff1660e01b8152600401610f28929190918252602082015260400190565b602060405180830381865af4158015610f45573d6000803e3d6000fd5b505050506040513d601f19601f82011682018060405250810190610f699190614f81565b600090815260066020526040902054151590565b610f8657610f98565b80610f9081614ff5565b915050610e90565b60018251610fa69190614fb0565b811015610fb4575050610fe0565b818685610fc081614ff5565b965081518110610fd257610fd2614fdf565b602002602001018190525050505b80610fea81614ff5565b915050610cd8565b508083526000811161103e5760405162461bcd60e51b815260206004820152601560248201527405f6c6973745061746846726f6d20636f756e743e3605c1b60448201526064016106a8565b5050919050565b61104d612cdb565b6106b16000612d3c565b61105f6104e9565b6106b16000805460ff19166001179055565b60006106fa65ffffffffffff831664174876e800615032565b6000805460ff16806110a35750600054610100900460ff165b905090565b60006106fa6001600160401b0383166402540be400615032565b6110ca614529565b6040516327bcdbc960e11b81526001600160a01b038881166004830152602482018890526060916111fa917f00000000000000000000000000000000000000000000000000000000000000001690634f79b79290604401602060405180830381865afa15801561113e573d6000803e3d6000fd5b505050506040513d601f19601f820116820180604052508101906111629190614f81565b6040516327bcdbc960e11b81526001600160a01b038981166004830152602482018990527f00000000000000000000000000000000000000000000000000000000000000001690634f79b79290604401602060405180830381865afa1580156111cf573d6000803e3d6000fd5b505050506040513d601f19601f820116820180604052508101906111f39190614f81565b86866114b3565b91509150965096945050505050565b6060600061123160405180606001604052806000815260200160008152602001600081525090565b60008061123f600887614fb0565b90505b8082101561128c578686611257846008614fc7565b81811061126657611266614fdf565b905060200201356000141561127a5761128c565b8161128481614ff5565b925050611242565b6000826001600160401b038111156112a6576112a661475f565b6040519080825280602002602001820160405280156112cf578160200160208202803683370190505b50905060005b8381101561132f5788886112ea836008614fc7565b8181106112f9576112f9614fdf565b9050602002013582828151811061131257611312614fdf565b60209081029190910101528061132781614ff5565b9150506112d5565b5061149f8a6040518060e001604052808c81526020018b8b600081811061135857611358614fdf565b9050602002013581526020018b8b600181811061137757611377614fdf565b9050602002013581526020018b8b600281811061139657611396614fdf565b9050602002013560001415151581526020018b8b60038181106113bb576113bb614fdf565b9050602002013560001415151581526020018b8b60078181106113e0576113e0614fdf565b9050602002013581526020018481525060405180608001604052808c8c600581811061140e5761140e614fdf565b9050602002013581526020018c8c600681811061142d5761142d614fdf565b9050602002013581526020018c8c600481811061144c5761144c614fdf565b6020908102929092013583525001600060405190808252806020026020018201604052801561149557816020015b611482614573565b81526020019060019003908161147a5790505b5090526000612d97565b9550955095505050505b9450945094915050565b6114bb614529565b815160609060208111156115115760405162461bcd60e51b815260206004820152601d60248201527f64656c6976657279206172726179206d61782073697a6520697320333200000060448201526064016106a8565b61151961463b565b8551815260208087015190820152604086015161153757600061153a565b60015b60ff1660408201526060860151611552576000611555565b60015b60ff1660608201526080868101519082015260a0808701519082015260c0808701519082015260e08087015190820152600860005b83811015611603578681815181106115a4576115a4614fdf565b60200260200101516000146115f1578681815181106115c5576115c5614fdf565b60200260200101518383806115d990614ff5565b9450602881106115eb576115eb614fdf565b60200201525b806115fb81614ff5565b91505061158a565b505060405163023aa9ab60e61b81527f2e7a327ef83c2af7579c6634f2f5604519800c5f07626f27bd602fd11ed8e6ec60048201526000907f00000000000000000000000000000000000000000000000000000000000000006001600160a01b031690638eaa6ac090602401602060405180830381865afa15801561168c573d6000803e3d6000fd5b505050506040513d601f19601f820116820180604052508101906116b091906150f6565b6001600160a01b03167f0a3550aabeea45f9d515c45ea5dadcd6efbe5a3c73ab07644f630de564c6515a308b8b60606028886040516024016116f796959493929190615113565b60408051601f198184030181529181526020820180516001600160e01b03166001600160e01b03199094169390931790925290516117359190615176565b600060405180830381855afa9150503d8060008114611770576040519150601f19603f3d011682016040523d82523d6000602084013e611775565b606091505b50509050611782816106b3565b50505094509492505050565b611796612cdb565b6106b16000805461ff001916610100179055565b60006106fa63ffffffff831664e8d4a51000615032565b606060006117e960405180606001604052806000815260200160008152602001600081525090565b8351602081111561183c5760405162461bcd60e51b815260206004820152601d60248201527f64656c6976657279206172726179206d61782073697a6520697320333200000060448201526064016106a8565b61184461463b565b86518152602080880151908201526040870151611862576000611865565b60015b60ff166040820152606087015161187d576000611880565b60015b60ff1660608201526080878101519082015260a0808801519082015260c0808801519082015260e08088015190820152600860005b8381101561192e578781815181106118cf576118cf614fdf565b602002602001015160001461191c578781815181106118f0576118f0614fdf565b602002602001015183838061190490614ff5565b94506028811061191657611916614fdf565b60200201525b8061192681614ff5565b9150506118b5565b505060405163023aa9ab60e61b81527f2e7a327ef83c2af7579c6634f2f5604519800c5f07626f27bd602fd11ed8e6ec60048201526000907f00000000000000000000000000000000000000000000000000000000000000006001600160a01b031690638eaa6ac090602401602060405180830381865afa1580156119b7573d6000803e3d6000fd5b505050506040513d601f19601f820116820180604052508101906119db91906150f6565b6001600160a01b03167fbd0ade2bcae368fca26bb02146561a2830136bf30c4a34c648255fccebbe2254308c8c6060602888604051602401611a2296959493929190615113565b60408051601f198184030181529181526020820180516001600160e01b03166001600160e01b0319909416939093179092529051611a609190615176565b600060405180830381855afa9150503d8060008114611a9b576040519150601f19603f3d011682016040523d82523d6000602084013e611aa0565b606091505b50509050611aad816106b3565b5050509450945094915050565b611ac2612cdb565b6001600160a01b038116611b275760405162461bcd60e51b815260206004820152602660248201527f4f776e61626c653a206e6577206f776e657220697320746865207a65726f206160448201526564647265737360d01b60648201526084016106a8565b611b3081612d3c565b50565b60006106fa64174876e80083615010565b611b4c614529565b81611b55614529565b6000611b6588886000015161337d565b805190915060005b81811015611d1357611b7d61465a565b611c09848381518110611b9257611b92614fdf565b60200260200101516002868581518110611bae57611bae614fdf565b602002602001015151611bc19190614fb0565b81518110611bd157611bd1614fdf565b60200260200101518b60405180608001604052806000815260200160008152602001600081526020018d606001518152506000612d97565b60408401526020830181905215159050611c235750611d01565b838281518110611c3557611c35614fdf565b6020908102919091010151815273__$2fc864095126d4d9b433a37f83d02318c7$__637513ce1b86836000604051908082528060200260200182016040528015611c9957816020015b611c86614573565b815260200190600190039081611c7e5790505b506040518463ffffffff1660e01b8152600401611cb893929190615370565b600060405180830381865af4158015611cd5573d6000803e3d6000fd5b505050506040513d6000823e601f3d908101601f19168201604052611cfd919081019061559d565b9450505b80611d0b81614ff5565b915050611b6d565b50505060408101515180611d28575050610b39565b611d306146b2565b87518152602080890151818301526040808a0151818401526060808b01511515818501526080808c015115158186015260a0808d01519086015260c0808d0151908601528251908101835260008082528185018181528285018281528385018581528e518552968e0151909152938c0151909352908a0151909252836001600160401b03811115611dc357611dc361475f565b604051908082528060200260200182016040528015611dfc57816020015b611de9614529565b815260200190600190039081611de15790505b50905060005b89518352600160a085015260005b85811015611f0157611e4587604001518281518110611e3157611e31614fdf565b60200260200101516000015186868b613771565b838281518110611e5757611e57614fdf565b60200260200101819052506001838281518110611e7657611e76614fdf565b602002602001015160400151511115611eef5760405162461bcd60e51b815260206004820152603560248201527f504152414e4f4941205f5f73656172636843466f6c6c6f77506174682073686f604482015274756c642072657475726e206d61782031206465736360581b60648201526084016106a8565b80611ef981614ff5565b915050611e10565b50600019600080805b8881101561206257858181518110611f2457611f24614fdf565b60200260200101516000015160001415611f3d57612050565b600019841480611f6d5750858181518110611f5a57611f5a614fdf565b6020026020010151602001516000015183115b15612002576000198414158015611fa45750858181518110611f9157611f91614fdf565b6020026020010151602001516040015183105b15611fb157829150611fd6565b858181518110611fc357611fc3614fdf565b6020026020010151602001516040015191505b809350858181518110611feb57611feb614fdf565b602002602001015160200151600001519250612050565b85818151811061201457612014614fdf565b602002602001015160200151600001518211156120505785818151811061203d5761203d614fdf565b6020026020010151602001516000015191505b8061205a81614ff5565b915050611f0a565b5060001983141561207557505050612563565b855250612080614529565b6120ad8860400151838151811061209957612099614fdf565b60200260200101516000015187878c613771565b905080604001515160011461211e5760405162461bcd60e51b815260206004820152603160248201527f504152414e4f4941205f5f73656172636843466f6c6c6f77506174682073686f604482015270756c642072657475726e2031206465736360781b60648201526084016106a8565b80516121645760405162461bcd60e51b81526020600482015260156024820152746966202873656c65637465642e717479203d3d302960581b60448201526064016106a8565b604051639fab220f60e01b815273__$2fc864095126d4d9b433a37f83d02318c7$__90639fab220f9061219d908d9085906004016156b7565b600060405180830381865af41580156121ba573d6000803e3d6000fd5b505050506040513d6000823e601f3d908101601f191682016040526121e2919081019061559d565b9950806060015151836121f59190614fc7565b9250806040015160008151811061220e5761220e614fdf565b602002602001015160a001515160001461229b57806040015160008151811061223957612239614fdf565b602002602001015160a001516001826040015160008151811061225e5761225e614fdf565b602002602001015160a00151516122759190614fb0565b8151811061228557612285614fdf565b6020026020010151836122989190614fb0565b92505b8873__$2fc864095126d4d9b433a37f83d02318c7$__637071133e909183604001516000815181106122cf576122cf614fdf565b602002602001015184606001516040518463ffffffff1660e01b81526004016122fa939291906156dc565b600060405180830381865af4158015612317573d6000803e3d6000fd5b505050506040513d6000823e601f3d908101601f1916820160405261233f91908101906156ef565b6060808701519083015160405163bf07928f60e01b8152929b5073__$2fc864095126d4d9b433a37f83d02318c7$__9263bf07928f926123839290916004016157a4565b600060405180830381865af41580156123a0573d6000803e3d6000fd5b505050506040513d6000823e601f3d908101601f191682016040526123c891908101906157c9565b60608601528b51855260a08d015115612444578c60a00151831061242e5760405162461bcd60e51b815260206004820152601f60248201527f696620286d6178636f756e743e3d7461726765745f2e6d6178636f756e74290060448201526064016106a8565b828d60a0015161243e9190614fb0565b60a08701525b60408d0151156124b95760408d01518151106124a25760405162461bcd60e51b815260206004820152601e60248201527f6966202873656c65637465642e7174793e3d7461726765745f2e71747929000060448201526064016106a8565b805160408e01516124b39190614fb0565b60408701525b60408c01511561255c576000670de0b6b3a76400008b60200151602001518c600001516124e69190615032565b6124f09190615010565b90508c6040015181106125455760405162461bcd60e51b815260206004820152601f60248201527f69662028746f74616c3e3d7365617263686172675f2e6d6178746f74616c290060448201526064016106a8565b808d604001516125559190614fb0565b6040870152505b5050611e02565b50505050505094509492505050565b61257a6145ac565b60008381526005602081815260408084208151610180810183528154815260018201546001600160a01b0381169482019490945293909291840191600160a01b900460ff16908111156125cf576125cf614d22565b60058111156125e0576125e0614d22565b81526001820154600160a81b900460ff166020820152600282015460408083019190915260038301546001600160401b0380821660608501526801000000000000000080830482166080860152600160801b808404831660a0870152600160c01b909304821660c086015260049586015480831660e087015290810482166101008601529190910416610120909201919091528251905163657c7e0960e01b8152918201529091507f00000000000000000000000000000000000000000000000000000000000000006001600160a01b03169063657c7e09906024016040805180830381865afa1580156126d8573d6000803e3d6000fd5b505050506040513d601f19601f820116820180604052508101906126fc91906157fd565b60408401526020830152608081015160608301528280612795575060608101516040516336181b6760e11b815260ff909116600482015273__$f7122df39a5f3bad28f404771cd5173291$__90636c3036ce90602401602060405180830381865af415801561276f573d6000803e3d6000fd5b505050506040513d601f19601f820116820180604052508101906127939190614f64565b155b15612c185760208101516001600160a01b0316825260a08101516127b8906110a8565b60808301526060810151604051632b2076e360e11b815260ff909116600482015273__$f7122df39a5f3bad28f404771cd5173291$__90635640edc690602401602060405180830381865af4158015612815573d6000803e3d6000fd5b505050506040513d601f19601f820116820180604052508101906128399190614f64565b1561284d57608082015160a0830152612999565b6101208101516001600160401b0316156128795761286f8161012001516110a8565b60a0830152612999565b60405163023aa9ab60e61b81527fcd775f2396f9f13f12bcf8ca32e21df66559a8adc3944d0591127e7731f7ab8560048201527f00000000000000000000000000000000000000000000000000000000000000006001600160a01b031690638eaa6ac090602401602060405180830381865afa1580156128fd573d6000803e3d6000fd5b505050506040513d601f19601f8201168201806040525081019061292191906150f6565b6001600160a01b031663a9bf985883602001516040518263ffffffff1660e01b815260040161295291815260200190565b602060405180830381865afa15801561296f573d6000803e3d6000fd5b505050506040513d601f19601f820116820180604052508101906129939190614f81565b60a08301525b6129a68160c001516110a8565b60c083015260e08101516129b9906110a8565b60e08301526060810151604051635b7d0f6960e11b815260ff909116600482015273__$f7122df39a5f3bad28f404771cd5173291$__9063b6fa1ed290602401602060405180830381865af4158015612a16573d6000803e3d6000fd5b505050506040513d601f19601f82011682018060405250810190612a3a9190614f64565b15612c0357612a4d8161014001516110a8565b610120830152610160810151612a62906110a8565b61014083015260405163023aa9ab60e61b81527f3cb99135f7a7c088d9085b446345038a22a85f4e8fe072b0e1b66d97243e745860048201526000907f00000000000000000000000000000000000000000000000000000000000000006001600160a01b031690638eaa6ac090602401602060405180830381865afa158015612aef573d6000803e3d6000fd5b505050506040513d601f19601f82011682018060405250810190612b1391906150f6565b6001600160a01b0316636464b68a846020015185604001516040518363ffffffff1660e01b8152600401612b51929190918252602082015260400190565b606060405180830381865afa158015612b6e573d6000803e3d6000fd5b505050506040513d601f19601f82011682018060405250810190612b929190615821565b5091505080612bd75760405162461bcd60e51b8152602060048201526011602482015270145d5bdd194e88139bdd081c5d5bdd1959607a1b60448201526064016106a8565b610140830151612be79082615010565b836101200151612bf79190615032565b61010084015250612c18565b612c118161010001516110a8565b6101008301525b604051630212d6cb60e21b815273__$f7122df39a5f3bad28f404771cd5173291$__9063084b5b2c90612c4f90849060040161584f565b602060405180830381865af4158015612c6c573d6000803e3d6000fd5b505050506040513d601f19601f82011682018060405250810190612c909190614f81565b61016083015260408101516101808301906005811115612cb257612cb2614d22565b90816005811115612cc557612cc5614d22565b9052506060015160ff166101a082015292915050565b6000546001600160a01b03620100009091041633146106b15760405162461bcd60e51b815260206004820152601f60248201527f416c6c6f77616e63653a2063616c6c6572206d757374206265204f776e65720060448201526064016106a8565b600080546001600160a01b038381166201000081810262010000600160b01b0319851617855560405193049190911692909183917f8be0079c531659141344cd1fd0a4f28419497f9722a3daafe3b4186f6b6457e091a35050565b60606000612dbf60405180606001604052806000815260200160008152602001600081525090565b612dd58787600001518860c00151600080614070565b80519093506000816001600160401b03811115612df457612df461475f565b604051908082528060200260200182016040528015612e2d57816020015b612e1a614573565b815260200190600190039081612e125790505b5090506000805b8381101561317f578960000151878281518110612e5357612e53614fdf565b60200260200101516020015114612ebe5760405162461bcd60e51b815260206004820152602960248201527f5f5f736561726368206f75745f5b695d2e61646472203d3d207461726765745f6044820152682e63757272656e637960b81b60648201526084016106a8565b885115801590612eee57508860000151878281518110612ee057612ee0614fdf565b602002602001015160800151115b15612ef85761316d565b8960200151878281518110612f0f57612f0f614fdf565b6020026020010151606001511015612f265761316d565b886060015173__$2fc864095126d4d9b433a37f83d02318c7$__635640453d9091898481518110612f5957612f59614fdf565b6020026020010151600001516040518363ffffffff1660e01b8152600401612f8292919061593e565b602060405180830381865af4158015612f9f573d6000803e3d6000fd5b505050506040513d601f19601f82011682018060405250810190612fc39190614f81565b878281518110612fd557612fd5614fdf565b6020026020010151604001511015612fec5761316d565b868181518110612ffe57612ffe614fdf565b602002602001015160600151896060015173__$2fc864095126d4d9b433a37f83d02318c7$__635640453d90918a858151811061303d5761303d614fdf565b6020026020010151600001516040518363ffffffff1660e01b815260040161306692919061593e565b602060405180830381865af4158015613083573d6000803e3d6000fd5b505050506040513d601f19601f820116820180604052508101906130a79190614f81565b8883815181106130b9576130b9614fdf565b6020026020010151604001516130cf9190614fb0565b10156130da5761316d565b8960a0015160011480156130f15750602089015115155b801561311d5750886020015187828151811061310f5761310f614fdf565b602002602001015160800151115b156131275761316d565b86818151811061313957613139614fdf565b602002602001015183838151811061315357613153614fdf565b6020026020010181905250818061316990614ff5565b9250505b8061317781614ff5565b915050612e34565b508152935073__$ac5a5ff32855f20cc1672b31a3944a092c$__905063b51b8e828460008989826040519080825280602002602001820160405280156131df57816020015b6131cc614573565b8152602001906001900390816131c45790505b506040518663ffffffff1660e01b8152600401613200959493929190615993565b600060405180830381865af415801561321d573d6000803e3d6000fd5b505050506040513d6000823e601f3d908101601f191682016040526132459190810190615a3c565b91945092509050836114a957604051637bf5cddb60e11b815273__$2fc864095126d4d9b433a37f83d02318c7$__9063f7eb9bb690613288908690600401615a93565b600060405180830381865af41580156132a5573d6000803e3d6000fd5b505050506040513d6000823e601f3d908101601f191682016040526132cd91908101906157c9565b92508560a001516000141580156132e857508560a001518351115b156114a95760a086015180845260405163742228d760e01b815273__$2fc864095126d4d9b433a37f83d02318c7$__9063742228d79061332c908790600401615a93565b608060405180830381865af4158015613349573d6000803e3d6000fd5b505050506040513d601f19601f8201168201806040525081019061336d9190615aa6565b9093509150509450945094915050565b60008281526001602090815260408083208054825181850281018501909352808352606094938301828280156133d257602002820191906000526020600020905b8154815260200190600101908083116133be575b50505050509050600081511161342a5760405162461bcd60e51b815260206004820152601b60248201527f5f706174684c6973742066726f6d706174682e6c656e6774683e30000000000060448201526064016106a8565b80516001600160401b038111156134435761344361475f565b60405190808252806020026020018201604052801561347657816020015b60608152602001906001900390816134615790505b5091506000805b8251811015613721577f00000000000000000000000000000000000000000000000000000000000000006001600160a01b03166338a699a48483815181106134c7576134c7614fdf565b60200260200101516040518263ffffffff1660e01b81526004016134ed91815260200190565b602060405180830381865afa15801561350a573d6000803e3d6000fd5b505050506040513d601f19601f8201168201806040525081019061352e9190614f64565b6135375761370f565b60007f00000000000000000000000000000000000000000000000000000000000000006001600160a01b03166327ee9dc285848151811061357a5761357a614fdf565b60200260200101516040518263ffffffff1660e01b81526004016135a091815260200190565b600060405180830381865afa1580156135bd573d6000803e3d6000fd5b505050506040513d6000823e601f3d908101601f191682016040526135e591908101906150c2565b905060008151116136325760405162461bcd60e51b815260206004820152601760248201527605f706174684c69737420706174682e6c656e6774683e3604c1b60448201526064016106a8565b8581600183516136429190614fb0565b8151811061365257613652614fdf565b602002602001015114613665575061370f565b60005b600182516136769190614fb0565b8110156136c7576136ac73__$669c6e0eba2465bd6779ea6ec5db3af1b5$__6376254ff9848481518110610ed457610ed4614fdf565b6136b5576136c7565b806136bf81614ff5565b915050613668565b600182516136d59190614fb0565b8110156136e357505061370f565b8186856136ef81614ff5565b96508151811061370157613701614fdf565b602002602001018190525050505b8061371981614ff5565b91505061347d565b50808352600081116137695760405162461bcd60e51b815260206004820152601160248201527005f706174684c69737420636f756e743e3607c1b60448201526064016106a8565b505092915050565b613779614529565b6002855110156137d75760405162461bcd60e51b815260206004820152602360248201527f5f5f73656172636843466f6c6c6f775061746820706174685f2e6c656e6774686044820152621f1e9960e91b60648201526084016106a8565b8351855186906137e990600190614fb0565b815181106137f9576137f9614fdf565b6020026020010151146138745760405162461bcd60e51b815260206004820152603d60248201527f5f5f73656172636843466f6c6c6f775061746820706174685f5b706174685f2e60448201527f6c656e677468202d20315d3d3d7461726765745f2e63757272656e637900000060648201526084016106a8565b606061387e61465a565b865160021415613984576138bb876002895161389a9190614fb0565b815181106138aa576138aa614fdf565b602002602001015187876000612d97565b6040840152602083015280516080830152875190925073__$2fc864095126d4d9b433a37f83d02318c7$__90632fbf1f939083908a906138fd90600290614fb0565b8151811061390d5761390d614fdf565b602002602001015189600001516040518463ffffffff1660e01b815260040161393893929190615ad3565b600060405180830381865af4158015613955573d6000803e3d6000fd5b505050506040513d6000823e601f3d908101601f1916820160405261397d9190810190615af8565b9050613fe3565b604085015160015b6001895161399a9190614fb0565b811015613b57576000613a8f8a6139b2600185614fb0565b815181106139c2576139c2614fdf565b60200260200101516040518060e001604052808d86815181106139e7576139e7614fdf565b6020026020010151815260200160008152602001600081526020016000151581526020016000151581526020016000815260200160006001600160401b03811115613a3457613a3461475f565b604051908082528060200260200182016040528015613a5d578160200160208202803683370190505b50815250604051806080016040528060008152602001600081526020018781526020018c606001518152506001612d97565b5091505080613aa2575050505050614068565b8673__$2fc864095126d4d9b433a37f83d02318c7$__63e23edbef90918c8581518110613ad157613ad1614fdf565b60200260200101516040518363ffffffff1660e01b8152600401613af6929190615b2c565b602060405180830381865af4158015613b13573d6000803e3d6000fd5b505050506040513d601f19601f82011682018060405250810190613b379190614f81565b613b419082614fc7565b9250508080613b4f90614ff5565b91505061398c565b50613bb18860028a51613b6a9190614fb0565b81518110613b7a57613b7a614fdf565b602002602001015188604051806080016040528060008152602001600081526020018581526020018a606001518152506000612d97565b604085015260208401819052909350613bcc57505050614068565b82516080830152875173__$2fc864095126d4d9b433a37f83d02318c7$__90632fbf1f939084908b90613c0190600290614fb0565b81518110613c1157613c11614fdf565b60200260200101518a600001516040518463ffffffff1660e01b8152600401613c3c93929190615ad3565b600060405180830381865af4158015613c59573d6000803e3d6000fd5b505050506040513d6000823e601f3d908101601f19168201604052613c819190810190615af8565b9150670de0b6b3a76400008260400151602001518360200151613ca49190615032565b613cae9190615010565b9050600060028951613cc09190614fb0565b90505b8015613fe0576060613cd361465a565b613cdb6146b2565b613d066040518060800160405280600081526020016000815260200160008152602001606081525090565b8c8581518110613d1857613d18614fdf565b60200260200101518260000181815250508973__$2fc864095126d4d9b433a37f83d02318c7$__63e23edbef90918f8881518110613d5857613d58614fdf565b60200260200101516040518363ffffffff1660e01b8152600401613d7d929190615b2c565b602060405180830381865af4158015613d9a573d6000803e3d6000fd5b505050506040513d601f19601f82011682018060405250810190613dbe9190614f81565b613dc89087614fb0565b6040830152600160608084018290528c81015190830152613e10908e90613def9088614fb0565b81518110613dff57613dff614fdf565b602002602001015183836000612d97565b60408601526020850181905290945015159150613e34905057505050505050614068565b670de0b6b3a76400008160400151602001518260200151613e559190615032565b613e5f9190615010565b935073__$2fc864095126d4d9b433a37f83d02318c7$__6350308ede86888e613e89600189614fb0565b81518110613e9957613e99614fdf565b6020026020010151866040518563ffffffff1660e01b8152600401613ec19493929190615b3f565b600060405180830381865af4158015613ede573d6000803e3d6000fd5b505050506040513d6000823e601f3d908101601f19168201604052613f069190810190615b7e565b604080840151519083015151919850919650670de0b6b3a764000091613f2b91615032565b613f359190615010565b60408087018051929092528281015181015191510151670de0b6b3a764000091613f5e91615032565b613f689190615010565b85604001516040018181525050670de0b6b3a764000085602001518260400151602001518360200151613f9b9190615032565b613fa59190615010565b866040015160200151613fb89190615032565b613fc29190615010565b60408601516020015250819050613fd881615be1565b915050613cc3565b50505b604051637513ce1b60e01b815273__$2fc864095126d4d9b433a37f83d02318c7$__90637513ce1b9061401e90869085908790600401615370565b600060405180830381865af415801561403b573d6000803e3d6000fd5b505050506040513d6000823e601f3d908101601f19168201604052614063919081019061559d565b925050505b949350505050565b606060008060006006600073__$669c6e0eba2465bd6779ea6ec5db3af1b5$__6376254ff98c8c6040518363ffffffff1660e01b81526004016140bd929190918252602082015260400190565b602060405180830381865af41580156140da573d6000803e3d6000fd5b505050506040513d601f19601f820116820180604052508101906140fe9190614f81565b8152602081019190915260400160002080549091508561411c578095505b856001600160401b038111156141345761413461475f565b60405190808252806020026020018201604052801561416d57816020015b61415a614573565b8152602001906001900390816141525790505b50945060005b8181101561451a578684106141875761451a565b60006005600085848154811061419f5761419f614fdf565b90600052602060002001548152602001908152602001600020905073__$f7122df39a5f3bad28f404771cd5173291$__63084b5b2c826040518263ffffffff1660e01b81526004016141f19190615cd3565b602060405180830381865af415801561420e573d6000803e3d6000fd5b505050506040513d601f19601f820116820180604052508101906142329190614f81565b15806142b65750604051630212d6cb60e21b8152429073__$f7122df39a5f3bad28f404771cd5173291$__9063084b5b2c90614272908590600401615cd3565b602060405180830381865af415801561428f573d6000803e3d6000fd5b505050506040513d601f19601f820116820180604052508101906142b39190614f81565b10155b80156143d3575060405163023aa9ab60e61b81527f33ffbdff3a4282df4353f3593b78d26aaf4c28b5786164f828858505bc5e301c60048201527f00000000000000000000000000000000000000000000000000000000000000006001600160a01b031690638eaa6ac090602401602060405180830381865afa158015614341573d6000803e3d6000fd5b505050506040513d601f19601f8201168201806040525081019061436591906150f6565b6001600160a01b0316635aca1641828c6040518363ffffffff1660e01b8152600401614392929190615ce2565b602060405180830381865afa1580156143af573d6000803e3d6000fd5b505050506040513d601f19601f820116820180604052508101906143d39190614f64565b1561450657856143e281614ff5565b9650508886116143f25750614508565b600061441b85848154811061440957614409614fdf565b90600052602060002001546001612572565b90508060a0015181608001511015614434575050614508565b806060015188878151811061444b5761444b614fdf565b60200260200101516000018181525050806040015188878151811061447257614472614fdf565b602002602001015160200181815250508060a0015188878151811061449957614499614fdf565b6020026020010151606001818152505080608001518887815181106144c0576144c0614fdf565b602002602001015160400181815250508061010001518887815181106144e8576144e8614fdf565b6020908102919091010151608001528561450181614ff5565b965050505b505b8061451281614ff5565b915050614173565b50505082525095945050505050565b60405180608001604052806000815260200161455f60405180606001604052806000815260200160008152602001600081525090565b815260200160608152602001606081525090565b6040518060c001604052806000815260200160008019168152602001600081526020016000815260200160008152602001606081525090565b604051806101c0016040528060006001600160a01b0316815260200160008019168152602001600080191681526020016000815260200160008152602001600081526020016000815260200160008152602001600081526020016000815260200160008152602001600081526020016000600581111561462e5761462e614d22565b8152600060209091015290565b6040518061050001604052806028906020820280368337509192915050565b6040518060c00160405280606081526020016000815260200161469760405180606001604052806000815260200160008152602001600081525090565b81526020016000815260200160008152602001606081525090565b6040518060e0016040528060008019168152602001600081526020016000815260200160001515815260200160001515815260200160008152602001606081525090565b6000808585111561470657600080fd5b8386111561471357600080fd5b5050820193919092039150565b60006020828403121561473257600080fd5b81356001600160e01b031981168114610bcc57600080fd5b6001600160a01b0381168114611b3057600080fd5b634e487b7160e01b600052604160045260246000fd5b60405160c081016001600160401b03811182821017156147975761479761475f565b60405290565b604051608081016001600160401b03811182821017156147975761479761475f565b604080519081016001600160401b03811182821017156147975761479761475f565b604051601f8201601f191681016001600160401b03811182821017156148095761480961475f565b604052919050565b8015158114611b3057600080fd5b803561482a81614811565b919050565b600061010080838503121561484357600080fd5b604051908101906001600160401b03821181831017156148655761486561475f565b6040918252833581526020808501359082015291508201358161488782614811565b8160408201526148996060850161481f565b60608201526080840135608082015260a084013560a082015260c084013560c082015260e084013560e0820152505092915050565b60006001600160401b038211156148e7576148e761475f565b5060051b60200190565b600082601f83011261490257600080fd5b81356020614917614912836148ce565b6147e1565b82815260059290921b8401810191818101908684111561493657600080fd5b8286015b84811015614951578035835291830191830161493a565b509695505050505050565b6000806000806000806101a0878903121561497657600080fd5b86356149818161474a565b95506020870135945060408701356149988161474a565b9350606087013592506149ae886080890161482f565b91506101808701356001600160401b038111156149ca57600080fd5b6149d689828a016148f1565b9150509295509295509295565b600081518084526020808501945080840160005b83811015614a13578151875295820195908201906001016149f7565b509495945050505050565b600081518084526020808501808196508360051b8101915082860160005b85811015614aa4578284038952815180518552858101518686015260408082015190860152606080820151908601526080808201519086015260a09081015160c091860182905290614a90818701836149e3565b9a87019a9550505090840190600101614a3c565b5091979650505050505050565b60a081526000614ac460a0830186614a1e565b905083602083015261406860408301848051825260208082015190830152604090810151910152565b60008060008060608587031215614b0357600080fd5b843593506020850135925060408501356001600160401b0380821115614b2857600080fd5b818701915087601f830112614b3c57600080fd5b813581811115614b4b57600080fd5b8860208260051b8501011115614b6057600080fd5b95989497505060200194505050565b600081518084526020808501945080840160005b83811015614a13578151805188528301518388015260409096019590820190600101614b83565b600060408083526101008084018651838601526020808801516060614be5818901838051825260208082015190830152604090810151910152565b858a015160c0898101819052815195869052610120600587901b8b0181019692860194509091908a019060005b81811015614ca7578b880361011f19018352855180518a8a52614c378b8b01826149e3565b905088820151898b01528b820151614c658d8c01828051825260208082015190830152604090810151910152565b508187015160a08b8101919091526080830151878c01529091015189820360e08b015290614c9381836149e3565b995050509486019491860191600101614c12565b50505050890151878403603f190160e08901529450614cc890508285614a1e565b935085840381870152505050614cde8185614b6f565b95945050505050565b60008060408385031215614cfa57600080fd5b50508035926020909101359150565b600060208284031215614d1b57600080fd5b5035919050565b634e487b7160e01b600052602160045260246000fd5b60068110614d5657634e487b7160e01b600052602160045260246000fd5b9052565b81516001600160a01b031681526101c081016020830151602083015260408301516040830152606083015160608301526080830151608083015260a083015160a083015260c083015160c083015260e083015160e083015261010080840151818401525061012080840151818401525061014080840151818401525061016080840151818401525061018080840151614df582850182614d38565b50506101a08381015160ff811684830152613769565b600060208284031215614e1d57600080fd5b8135610bcc8161474a565b6000602080830181845280855180835260408601915060408160051b870101925083870160005b82811015614e7d57603f19888603018452614e6b8583516149e3565b94509285019290850190600101614e4f565b5092979650505050505050565b600060208284031215614e9c57600080fd5b813565ffffffffffff81168114610bcc57600080fd5b600060208284031215614ec457600080fd5b81356001600160401b0381168114610bcc57600080fd5b6000806000806101608587031215614ef257600080fd5b8435935060208501359250614f0a866040870161482f565b91506101408501356001600160401b03811115614f2657600080fd5b614f32878288016148f1565b91505092959194509250565b600060208284031215614f5057600080fd5b813563ffffffff81168114610bcc57600080fd5b600060208284031215614f7657600080fd5b8151610bcc81614811565b600060208284031215614f9357600080fd5b5051919050565b634e487b7160e01b600052601160045260246000fd5b600082821015614fc257614fc2614f9a565b500390565b60008219821115614fda57614fda614f9a565b500190565b634e487b7160e01b600052603260045260246000fd5b600060001982141561500957615009614f9a565b5060010190565b60008261502d57634e487b7160e01b600052601260045260246000fd5b500490565b600081600019048311821515161561504c5761504c614f9a565b500290565b634e487b7160e01b600052600160045260246000fd5b600082601f83011261507857600080fd5b81516020615088614912836148ce565b82815260059290921b840181019181810190868411156150a757600080fd5b8286015b8481101561495157805183529183019183016150ab565b6000602082840312156150d457600080fd5b81516001600160401b038111156150ea57600080fd5b61406884828501615067565b60006020828403121561510857600080fd5b8151610bcc8161474a565b6001600160a01b038716815260208082018790526040820186905260608201859052608082018490526105a082019060a083018460005b60288110156151675781518352918301919083019060010161514a565b50505050979650505050505050565b6000825160005b81811015615197576020818601810151858301520161517d565b818111156151a6576000828501525b509190910192915050565b80516101008084528151908401819052600091610120850191602091820190845b818110156151ee578251855293830193918301916001016151d2565b50505083810151908501526040808401518051828701526020810151606087015290810151608086015250606083015160a0850152608083015160c085015260a083015184820360e0860152614cde82826149e3565b600081518084526020808501808196508360051b8101915082860160005b85811015614aa4578284038952815180518552858101518686015260408082015190860152606080820151908601526080808201519086015260a09081015160c0918601829052906152b6818701836149e3565b9a87019a9550505090840190600101615262565b600060c08301825184526020808401516152fa828701828051825260208082015190830152604090810151910152565b50604084015160c0608087015282815180855260e08801915060e08160051b8901019450838301925060005b818110156153545760df198987030183526153428685516151b1565b95509284019291840191600101615326565b5050505050606083015184820360a0860152614cde8282615244565b60608152600061538360608301866152ca565b828103602084015261539581866151b1565b905082810360408401526153a98185615244565b9695505050505050565b6000606082840312156153c557600080fd5b604051606081018181106001600160401b03821117156153e7576153e761475f565b80604052508091508251815260208301516020820152604083015160408201525092915050565b6000610100828403121561542157600080fd5b615429614775565b905081516001600160401b038082111561544257600080fd5b61544e85838601615067565b83526020840151602084015261546785604086016153b3565b604084015260a0840151606084015260c0840151608084015260e084015191508082111561549457600080fd5b506154a184828501615067565b60a08301525092915050565b600082601f8301126154be57600080fd5b815160206154ce614912836148ce565b82815260059290921b840181019181810190868411156154ed57600080fd5b8286015b848110156149515780516001600160401b03808211156155115760008081fd5b9088019060c0828b03601f190181131561552b5760008081fd5b615533614775565b87840151815260408085015189830152606080860151828401526080915081860151818401525060a080860151828401528386015193508484111561557a57600091508182fd5b6155888e8b86890101615067565b908301525086525050509183019183016154f1565b600060208083850312156155b057600080fd5b82516001600160401b03808211156155c757600080fd5b9084019060c082870312156155db57600080fd5b6155e361479d565b825181526155f3878585016153b3565b8482015260808301518281111561560957600080fd5b8301601f8101881361561a57600080fd5b8051615628614912826148ce565b81815260059190911b8201860190868101908a83111561564757600080fd5b8784015b8381101561567f578051878111156156635760008081fd5b6156718d8b8389010161540e565b84525091880191880161564b565b50604085015250505060a083015193508184111561569c57600080fd5b6156a8878585016154ad565b60608201529695505050505050565b6040815260006156ca60408301856152ca565b8281036020840152614cde81856152ca565b6060815260006153836060830186614b6f565b6000602080838503121561570257600080fd5b82516001600160401b0381111561571857600080fd5b8301601f8101851361572957600080fd5b8051615737614912826148ce565b81815260069190911b8201830190838101908783111561575657600080fd5b928401925b8284101561579957604084890312156157745760008081fd5b61577c6147bf565b84518152858501518682015282526040909301929084019061575b565b979650505050505050565b6040815260006157b76040830185615244565b8281036020840152614cde8185615244565b6000602082840312156157db57600080fd5b81516001600160401b038111156157f157600080fd5b614068848285016154ad565b6000806040838503121561581057600080fd5b505080516020909101519092909150565b60008060006060848603121561583657600080fd5b8351925060208401519150604084015190509250925092565b81518152602080830151610180830191615873908401826001600160a01b03169052565b5060408301516158866040840182614d38565b50606083015161589b606084018260ff169052565b506080830151608083015260a08301516158c060a08401826001600160401b03169052565b5060c08301516158db60c08401826001600160401b03169052565b5060e08301516158f660e08401826001600160401b03169052565b50610100838101516001600160401b03908116918401919091526101208085015182169084015261014080850151821690840152610160808501519182168185015290613769565b6040815260006159516040830185615244565b90508260208301529392505050565b80518252602081015160208301526040810151604083015260006060820151608060608501526140686080850182615244565b60a0815260006159a660a0830188615244565b866020840152828103604084015285518152602086015160208201526040860151604082015260608601511515606082015260808601511515608082015260a086015160a082015260c086015160e060c0830152615a0760e08301826149e3565b9150508281036060840152615a1c8186615960565b90508281036080840152615a308185615244565b98975050505050505050565b600080600060a08486031215615a5157600080fd5b83516001600160401b03811115615a6757600080fd5b615a73868287016154ad565b93505060208401519150615a8a85604086016153b3565b90509250925092565b602081526000610bcc6020830184615244565b60008060808385031215615ab957600080fd5b82519150615aca84602085016153b3565b90509250929050565b606081526000615ae660608301866151b1565b60208301949094525060400152919050565b600060208284031215615b0a57600080fd5b81516001600160401b03811115615b2057600080fd5b6140688482850161540e565b6040815260006159516040830185614b6f565b608081526000615b5260808301876151b1565b8281036020840152615b648187615244565b905084604084015282810360608401526157998185615244565b60008060408385031215615b9157600080fd5b82516001600160401b0380821115615ba857600080fd5b615bb48683870161540e565b93506020850151915080821115615bca57600080fd5b50615bd7858286016154ad565b9150509250929050565b600081615bf057615bf0614f9a565b506000190190565b8054825260018101546001600160a01b0381166020840152615c236040840160ff8360a01c16614d38565b60a81c60ff1660608301526002810154608083015260038101546001600160401b0380821660a0850152604082901c811660c0850152615c7360e08501828460801c166001600160401b03169052565b60c082901c61010085015260048301546001600160401b03828216166101208601529150615cb26101408501828460401c166001600160401b03169052565b615ccd6101608501828460801c166001600160401b03169052565b50505050565b61018081016106fa8284615bf8565b60006101a0808301615cf48487615bf8565b6101808401919091528351908190526101c083019060209081860160005b82811015614e7d57815185529383019390830190600101615d1256fea264697066735822122031f38c90b9f01713a2ccf7ea2005e67c56da08dc2fd8e47a12b5c88f0973100f64736f6c634300080b0033","language":"Solidity","natspec":{"methods":{"ownerOf()":{"details":"Returns the address of the current owner."},"renounceOwnership()":{"details":"Leaves the contract without owner. It will not be possible to call `onlyOwner` functions anymore. Can only be called by the current owner. NOTE: Renouncing ownership will leave the contract without an owner, thereby removing any functionality that is only available to the owner."},"supportsInterface(bytes4)":{"details":"Returns true if this contract implements the interface defined by `interfaceId`. See the corresponding https://eips.ethereum.org/EIPS/eip-165#how-interfaces-are-identified[EIP section] to learn more about how these ids are created. This function call must use less than 30 000 gas."},"transferOwnership(address)":{"details":"Transfers ownership of the contract to a new account (`newOwner`). Can only be called by the current owner."}},"kind":"dev","version":1},"opcodes":"PUSH1 0x80 PUSH1 0x40 MSTORE CALLVALUE DUP1 ISZERO PUSH2 0x10 JUMPI PUSH1 0x0 DUP1 REVERT JUMPDEST POP PUSH1 0x4 CALLDATASIZE LT PUSH2 0x1A9 JUMPI PUSH1 0x0 CALLDATALOAD PUSH1 0xE0 SHR DUP1 PUSH4 0x854BA99D GT PUSH2 0xF9 JUMPI DUP1 PUSH4 0xCCBD1637 GT PUSH2 0x97 JUMPI DUP1 PUSH4 0xE4B16144 GT PUSH2 0x71 JUMPI DUP1 PUSH4 0xE4B16144 EQ PUSH2 0x486 JUMPI DUP1 PUSH4 0xE9F14CE6 EQ PUSH2 0x499 JUMPI DUP1 PUSH4 0xF2FDE38B EQ PUSH2 0x4AC JUMPI DUP1 PUSH4 0xFEAB4454 EQ PUSH2 0x4BF JUMPI PUSH2 0x1A9 JUMP JUMPDEST DUP1 PUSH4 0xCCBD1637 EQ PUSH2 0x444 JUMPI DUP1 PUSH4 0xCCC07959 EQ PUSH2 0x457 JUMPI DUP1 PUSH4 0xD6935858 EQ PUSH2 0x47E JUMPI PUSH2 0x1A9 JUMP JUMPDEST DUP1 PUSH4 0xAF640D0F GT PUSH2 0xD3 JUMPI DUP1 PUSH4 0xAF640D0F EQ PUSH2 0x3E5 JUMPI DUP1 PUSH4 0xB03FD40D EQ PUSH2 0x40B JUMPI DUP1 PUSH4 0xB9B38745 EQ PUSH2 0x41E JUMPI DUP1 PUSH4 0xBD0ADE2B EQ PUSH2 0x431 JUMPI PUSH2 0x1A9 JUMP JUMPDEST DUP1 PUSH4 0x854BA99D EQ PUSH2 0x3A2 JUMPI DUP1 PUSH4 0x8DA5CB5B EQ PUSH2 0x3AA JUMPI DUP1 PUSH4 0x97962076 EQ PUSH2 0x3D5 JUMPI PUSH2 0x1A9 JUMP JUMPDEST DUP1 PUSH4 0x2203616D GT PUSH2 0x166 JUMPI DUP1 PUSH4 0x6B2B091A GT PUSH2 0x140 JUMPI DUP1 PUSH4 0x6B2B091A EQ PUSH2 0x351 JUMPI DUP1 PUSH4 0x715018A6 EQ PUSH2 0x371 JUMPI DUP1 PUSH4 0x72EA61BF EQ PUSH2 0x379 JUMPI DUP1 PUSH4 0x7AF6649A EQ PUSH2 0x381 JUMPI PUSH2 0x1A9 JUMP JUMPDEST DUP1 PUSH4 0x2203616D EQ PUSH2 0x2D6 JUMPI DUP1 PUSH4 0x2F54BF6E EQ PUSH2 0x2FE JUMPI DUP1 PUSH4 0x62965141 EQ PUSH2 0x326 JUMPI PUSH2 0x1A9 JUMP JUMPDEST DUP1 PUSH4 0x1FFC9A7 EQ PUSH2 0x22E JUMPI DUP1 PUSH4 0x5D6BD9C EQ PUSH2 0x256 JUMPI DUP1 PUSH4 0x9252F02 EQ PUSH2 0x260 JUMPI DUP1 PUSH4 0xA3550AA EQ PUSH2 0x282 JUMPI DUP1 PUSH4 0x1EF4590D EQ PUSH2 0x2A3 JUMPI DUP1 PUSH4 0x21603F43 EQ PUSH2 0x2B6 JUMPI JUMPDEST PUSH2 0x1B1 PUSH2 0x4E9 JUMP JUMPDEST PUSH1 0x0 PUSH2 0x1C1 PUSH1 0x24 PUSH1 0x4 CALLDATASIZE DUP5 PUSH2 0x46F6 JUMP JUMPDEST DUP1 DUP1 PUSH1 0x1F ADD PUSH1 0x20 DUP1 SWAP2 DIV MUL PUSH1 0x20 ADD PUSH1 0x40 MLOAD SWAP1 DUP2 ADD PUSH1 0x40 MSTORE DUP1 SWAP4 SWAP3 SWAP2 SWAP1 DUP2 DUP2 MSTORE PUSH1 0x20 ADD DUP4 DUP4 DUP1 DUP3 DUP5 CALLDATACOPY PUSH1 0x0 SWAP3 ADD DUP3 SWAP1 MSTORE POP PUSH1 0x20 DUP6 ADD MLOAD SWAP5 SWAP6 POP SWAP3 POP POP CALLDATASIZE PUSH1 0x23 NOT DUP2 ADD SWAP2 POP PUSH1 0x1F NOT ADD PUSH1 0x4 DUP4 DUP1 CALLDATACOPY DUP2 PUSH1 0x24 PUSH1 0x4 CALLDATACOPY PUSH1 0x0 DUP1 DUP3 PUSH1 0x0 DUP8 GAS DELEGATECALL SWAP3 POP POP POP PUSH2 0x229 DUP2 PUSH2 0x6B3 JUMP JUMPDEST POP POP POP STOP JUMPDEST PUSH2 0x241 PUSH2 0x23C CALLDATASIZE PUSH1 0x4 PUSH2 0x4720 JUMP JUMPDEST PUSH2 0x6C9 JUMP JUMPDEST PUSH1 0x40 MLOAD SWAP1 ISZERO ISZERO DUP2 MSTORE PUSH1 0x20 ADD JUMPDEST PUSH1 0x40 MLOAD DUP1 SWAP2 SUB SWAP1 RETURN JUMPDEST PUSH2 0x25E PUSH2 0x700 JUMP JUMPDEST STOP JUMPDEST PUSH2 0x273 PUSH2 0x26E CALLDATASIZE PUSH1 0x4 PUSH2 0x495C JUMP JUMPDEST PUSH2 0x717 JUMP JUMPDEST PUSH1 0x40 MLOAD PUSH2 0x24D SWAP4 SWAP3 SWAP2 SWAP1 PUSH2 0x4AB1 JUMP JUMPDEST PUSH2 0x295 PUSH2 0x290 CALLDATASIZE PUSH1 0x4 PUSH2 0x4AED JUMP JUMPDEST PUSH2 0x880 JUMP JUMPDEST PUSH1 0x40 MLOAD PUSH2 0x24D SWAP3 SWAP2 SWAP1 PUSH2 0x4BAA JUMP JUMPDEST PUSH2 0x241 PUSH2 0x2B1 CALLDATASIZE PUSH1 0x4 PUSH2 0x4CE7 JUMP JUMPDEST PUSH2 0xB42 JUMP JUMPDEST PUSH2 0x2C9 PUSH2 0x2C4 CALLDATASIZE PUSH1 0x4 PUSH2 0x4D09 JUMP JUMPDEST PUSH2 0xBD3 JUMP JUMPDEST PUSH1 0x40 MLOAD PUSH2 0x24D SWAP2 SWAP1 PUSH2 0x4D5A JUMP JUMPDEST PUSH2 0x2E9 PUSH2 0x2E4 CALLDATASIZE PUSH1 0x4 PUSH2 0x4D09 JUMP JUMPDEST PUSH2 0xBE6 JUMP JUMPDEST PUSH1 0x40 MLOAD PUSH4 0xFFFFFFFF SWAP1 SWAP2 AND DUP2 MSTORE PUSH1 0x20 ADD PUSH2 0x24D JUMP JUMPDEST PUSH2 0x241 PUSH2 0x30C CALLDATASIZE PUSH1 0x4 PUSH2 0x4E0B JUMP JUMPDEST PUSH1 0x0 SLOAD PUSH3 0x10000 SWAP1 DIV PUSH1 0x1 PUSH1 0x1 PUSH1 0xA0 SHL SUB SWAP1 DUP2 AND SWAP2 AND EQ SWAP1 JUMP JUMPDEST PUSH2 0x339 PUSH2 0x334 CALLDATASIZE PUSH1 0x4 PUSH2 0x4D09 JUMP JUMPDEST PUSH2 0xBF7 JUMP JUMPDEST PUSH1 0x40 MLOAD PUSH1 0x1 PUSH1 0x1 PUSH1 0x40 SHL SUB SWAP1 SWAP2 AND DUP2 MSTORE PUSH1 0x20 ADD PUSH2 0x24D JUMP JUMPDEST PUSH2 0x364 PUSH2 0x35F CALLDATASIZE PUSH1 0x4 PUSH2 0x4D09 JUMP JUMPDEST PUSH2 0xC29 JUMP JUMPDEST PUSH1 0x40 MLOAD PUSH2 0x24D SWAP2 SWAP1 PUSH2 0x4E28 JUMP JUMPDEST PUSH2 0x25E PUSH2 0x1045 JUMP JUMPDEST PUSH2 0x25E PUSH2 0x1057 JUMP JUMPDEST PUSH2 0x394 PUSH2 0x38F CALLDATASIZE PUSH1 0x4 PUSH2 0x4E8A JUMP JUMPDEST PUSH2 0x1071 JUMP JUMPDEST PUSH1 0x40 MLOAD SWAP1 DUP2 MSTORE PUSH1 0x20 ADD PUSH2 0x24D JUMP JUMPDEST PUSH2 0x241 PUSH2 0x108A JUMP JUMPDEST PUSH1 0x0 SLOAD PUSH3 0x10000 SWAP1 DIV PUSH1 0x1 PUSH1 0x1 PUSH1 0xA0 SHL SUB AND JUMPDEST PUSH1 0x40 MLOAD PUSH1 0x1 PUSH1 0x1 PUSH1 0xA0 SHL SUB SWAP1 SWAP2 AND DUP2 MSTORE PUSH1 0x20 ADD PUSH2 0x24D JUMP JUMPDEST PUSH1 0x0 SLOAD PUSH2 0x100 SWAP1 DIV PUSH1 0xFF AND PUSH2 0x241 JUMP JUMPDEST PUSH32 0xDCF6913C74762E0B3C7F94F504BB2BE7445BBD8D11ABEE9960F04EBF85E7A7B2 PUSH2 0x394 JUMP JUMPDEST PUSH2 0x394 PUSH2 0x419 CALLDATASIZE PUSH1 0x4 PUSH2 0x4EB2 JUMP JUMPDEST PUSH2 0x10A8 JUMP JUMPDEST PUSH2 0x295 PUSH2 0x42C CALLDATASIZE PUSH1 0x4 PUSH2 0x495C JUMP JUMPDEST PUSH2 0x10C2 JUMP JUMPDEST PUSH2 0x273 PUSH2 0x43F CALLDATASIZE PUSH1 0x4 PUSH2 0x4AED JUMP JUMPDEST PUSH2 0x1209 JUMP JUMPDEST PUSH2 0x295 PUSH2 0x452 CALLDATASIZE PUSH1 0x4 PUSH2 0x4EDB JUMP JUMPDEST PUSH2 0x14B3 JUMP JUMPDEST PUSH2 0x3BD PUSH32 0x0 DUP2 JUMP JUMPDEST PUSH2 0x25E PUSH2 0x178E JUMP JUMPDEST PUSH2 0x394 PUSH2 0x494 CALLDATASIZE PUSH1 0x4 PUSH2 0x4F3E JUMP JUMPDEST PUSH2 0x17AA JUMP JUMPDEST PUSH2 0x273 PUSH2 0x4A7 CALLDATASIZE PUSH1 0x4 PUSH2 0x4EDB JUMP JUMPDEST PUSH2 0x17C1 JUMP JUMPDEST PUSH2 0x25E PUSH2 0x4BA CALLDATASIZE PUSH1 0x4 PUSH2 0x4E0B JUMP JUMPDEST PUSH2 0x1ABA JUMP JUMPDEST PUSH2 0x4D2 PUSH2 0x4CD CALLDATASIZE PUSH1 0x4 PUSH2 0x4D09 JUMP JUMPDEST PUSH2 0x1B33 JUMP JUMPDEST PUSH1 0x40 MLOAD PUSH6 0xFFFFFFFFFFFF SWAP1 SWAP2 AND DUP2 MSTORE PUSH1 0x20 ADD PUSH2 0x24D JUMP JUMPDEST PUSH1 0x0 SLOAD PUSH1 0x1 PUSH1 0x1 PUSH1 0xA0 SHL SUB PUSH3 0x10000 SWAP1 SWAP2 DIV AND CALLER EQ DUP1 PUSH2 0x59C JUMPI POP PUSH1 0x1 PUSH1 0x1 PUSH1 0xA0 SHL SUB PUSH32 0x0 AND PUSH4 0x16279055 CALLER PUSH1 0x40 MLOAD PUSH1 0x1 PUSH1 0x1 PUSH1 0xE0 SHL SUB NOT PUSH1 0xE0 DUP5 SWAP1 SHL AND DUP2 MSTORE PUSH1 0x1 PUSH1 0x1 PUSH1 0xA0 SHL SUB SWAP1 SWAP2 AND PUSH1 0x4 DUP3 ADD MSTORE PUSH1 0x24 ADD PUSH1 0x20 PUSH1 0x40 MLOAD DUP1 DUP4 SUB DUP2 DUP7 GAS STATICCALL ISZERO DUP1 ISZERO PUSH2 0x578 JUMPI RETURNDATASIZE PUSH1 0x0 DUP1 RETURNDATACOPY RETURNDATASIZE PUSH1 0x0 REVERT JUMPDEST POP POP POP POP PUSH1 0x40 MLOAD RETURNDATASIZE PUSH1 0x1F NOT PUSH1 0x1F DUP3 ADD AND DUP3 ADD DUP1 PUSH1 0x40 MSTORE POP DUP2 ADD SWAP1 PUSH2 0x59C SWAP2 SWAP1 PUSH2 0x4F64 JUMP JUMPDEST DUP1 PUSH2 0x63A JUMPI POP PUSH1 0x1 PUSH1 0x1 PUSH1 0xA0 SHL SUB PUSH32 0x0 AND PUSH4 0x6D70F7AE CALLER PUSH1 0x40 MLOAD PUSH1 0x1 PUSH1 0x1 PUSH1 0xE0 SHL SUB NOT PUSH1 0xE0 DUP5 SWAP1 SHL AND DUP2 MSTORE PUSH1 0x1 PUSH1 0x1 PUSH1 0xA0 SHL SUB SWAP1 SWAP2 AND PUSH1 0x4 DUP3 ADD MSTORE PUSH1 0x24 ADD PUSH1 0x20 PUSH1 0x40 MLOAD DUP1 DUP4 SUB DUP2 DUP7 GAS STATICCALL ISZERO DUP1 ISZERO PUSH2 0x616 JUMPI RETURNDATASIZE PUSH1 0x0 DUP1 RETURNDATACOPY RETURNDATASIZE PUSH1 0x0 REVERT JUMPDEST POP POP POP POP PUSH1 0x40 MLOAD RETURNDATASIZE PUSH1 0x1F NOT PUSH1 0x1F DUP3 ADD AND DUP3 ADD DUP1 PUSH1 0x40 MSTORE POP DUP2 ADD SWAP1 PUSH2 0x63A SWAP2 SWAP1 PUSH2 0x4F64 JUMP JUMPDEST PUSH2 0x6B1 JUMPI PUSH1 0x40 MLOAD PUSH3 0x461BCD PUSH1 0xE5 SHL DUP2 MSTORE PUSH1 0x20 PUSH1 0x4 DUP3 ADD MSTORE PUSH1 0x39 PUSH1 0x24 DUP3 ADD MSTORE PUSH32 0x416C6C6F77616E63653A2063616C6C6572206D757374206265205265706F7369 PUSH1 0x44 DUP3 ADD MSTORE PUSH32 0x746F727920436F6E7472616374206F72204F70657261746F7200000000000000 PUSH1 0x64 DUP3 ADD MSTORE PUSH1 0x84 ADD JUMPDEST PUSH1 0x40 MLOAD DUP1 SWAP2 SUB SWAP1 REVERT JUMPDEST JUMP JUMPDEST RETURNDATASIZE PUSH1 0x0 DUP1 RETURNDATACOPY DUP1 DUP1 ISZERO PUSH2 0x6C4 JUMPI RETURNDATASIZE PUSH1 0x0 RETURN JUMPDEST RETURNDATASIZE PUSH1 0x0 REVERT JUMPDEST PUSH1 0x0 PUSH1 0x1 PUSH1 0x1 PUSH1 0xE0 SHL SUB NOT DUP3 AND PUSH4 0x1FFC9A7 PUSH1 0xE0 SHL EQ DUP1 PUSH2 0x6FA JUMPI POP PUSH1 0x1 PUSH1 0x1 PUSH1 0xE0 SHL SUB NOT DUP3 AND PUSH4 0x15D37895 PUSH1 0xE3 SHL EQ JUMPDEST SWAP3 SWAP2 POP POP JUMP JUMPDEST PUSH2 0x708 PUSH2 0x4E9 JUMP JUMPDEST PUSH2 0x6B1 PUSH1 0x0 DUP1 SLOAD PUSH1 0xFF NOT AND SWAP1 SSTORE JUMP JUMPDEST PUSH1 0x60 PUSH1 0x0 PUSH2 0x73F PUSH1 0x40 MLOAD DUP1 PUSH1 0x60 ADD PUSH1 0x40 MSTORE DUP1 PUSH1 0x0 DUP2 MSTORE PUSH1 0x20 ADD PUSH1 0x0 DUP2 MSTORE PUSH1 0x20 ADD PUSH1 0x0 DUP2 MSTORE POP SWAP1 JUMP JUMPDEST PUSH1 0x40 MLOAD PUSH4 0x27BCDBC9 PUSH1 0xE1 SHL DUP2 MSTORE PUSH1 0x1 PUSH1 0x1 PUSH1 0xA0 SHL SUB DUP11 DUP2 AND PUSH1 0x4 DUP4 ADD MSTORE PUSH1 0x24 DUP3 ADD DUP11 SWAP1 MSTORE PUSH2 0x86E SWAP2 PUSH32 0x0 SWAP1 SWAP2 AND SWAP1 PUSH4 0x4F79B792 SWAP1 PUSH1 0x44 ADD PUSH1 0x20 PUSH1 0x40 MLOAD DUP1 DUP4 SUB DUP2 DUP7 GAS STATICCALL ISZERO DUP1 ISZERO PUSH2 0x7B2 JUMPI RETURNDATASIZE PUSH1 0x0 DUP1 RETURNDATACOPY RETURNDATASIZE PUSH1 0x0 REVERT JUMPDEST POP POP POP POP PUSH1 0x40 MLOAD RETURNDATASIZE PUSH1 0x1F NOT PUSH1 0x1F DUP3 ADD AND DUP3 ADD DUP1 PUSH1 0x40 MSTORE POP DUP2 ADD SWAP1 PUSH2 0x7D6 SWAP2 SWAP1 PUSH2 0x4F81 JUMP JUMPDEST PUSH1 0x40 MLOAD PUSH4 0x27BCDBC9 PUSH1 0xE1 SHL DUP2 MSTORE PUSH1 0x1 PUSH1 0x1 PUSH1 0xA0 SHL SUB DUP11 DUP2 AND PUSH1 0x4 DUP4 ADD MSTORE PUSH1 0x24 DUP3 ADD DUP11 SWAP1 MSTORE PUSH32 0x0 AND SWAP1 PUSH4 0x4F79B792 SWAP1 PUSH1 0x44 ADD PUSH1 0x20 PUSH1 0x40 MLOAD DUP1 DUP4 SUB DUP2 DUP7 GAS STATICCALL ISZERO DUP1 ISZERO PUSH2 0x843 JUMPI RETURNDATASIZE PUSH1 0x0 DUP1 RETURNDATACOPY RETURNDATASIZE PUSH1 0x0 REVERT JUMPDEST POP POP POP POP PUSH1 0x40 MLOAD RETURNDATASIZE PUSH1 0x1F NOT PUSH1 0x1F DUP3 ADD AND DUP3 ADD DUP1 PUSH1 0x40 MSTORE POP DUP2 ADD SWAP1 PUSH2 0x867 SWAP2 SWAP1 PUSH2 0x4F81 JUMP JUMPDEST DUP8 DUP8 PUSH2 0x17C1 JUMP JUMPDEST SWAP3 POP SWAP3 POP SWAP3 POP SWAP7 POP SWAP7 POP SWAP7 SWAP4 POP POP POP POP JUMP JUMPDEST PUSH2 0x888 PUSH2 0x4529 JUMP JUMPDEST PUSH1 0x60 PUSH1 0x0 DUP4 JUMPDEST PUSH2 0x899 PUSH1 0x8 DUP3 PUSH2 0x4FB0 JUMP JUMPDEST DUP3 LT ISZERO PUSH2 0x8E2 JUMPI DUP6 DUP6 PUSH2 0x8AD DUP5 PUSH1 0x8 PUSH2 0x4FC7 JUMP JUMPDEST DUP2 DUP2 LT PUSH2 0x8BC JUMPI PUSH2 0x8BC PUSH2 0x4FDF JUMP JUMPDEST SWAP1 POP PUSH1 0x20 MUL ADD CALLDATALOAD PUSH1 0x0 EQ ISZERO PUSH2 0x8D0 JUMPI PUSH2 0x8E2 JUMP JUMPDEST DUP2 PUSH2 0x8DA DUP2 PUSH2 0x4FF5 JUMP JUMPDEST SWAP3 POP POP PUSH2 0x88E JUMP JUMPDEST PUSH1 0x0 DUP3 PUSH1 0x1 PUSH1 0x1 PUSH1 0x40 SHL SUB DUP2 GT ISZERO PUSH2 0x8FC JUMPI PUSH2 0x8FC PUSH2 0x475F JUMP JUMPDEST PUSH1 0x40 MLOAD SWAP1 DUP1 DUP3 MSTORE DUP1 PUSH1 0x20 MUL PUSH1 0x20 ADD DUP3 ADD PUSH1 0x40 MSTORE DUP1 ISZERO PUSH2 0x925 JUMPI DUP2 PUSH1 0x20 ADD PUSH1 0x20 DUP3 MUL DUP1 CALLDATASIZE DUP4 CALLDATACOPY ADD SWAP1 POP JUMPDEST POP SWAP1 POP PUSH1 0x0 JUMPDEST DUP4 DUP2 LT ISZERO PUSH2 0x985 JUMPI DUP8 DUP8 PUSH2 0x940 DUP4 PUSH1 0x8 PUSH2 0x4FC7 JUMP JUMPDEST DUP2 DUP2 LT PUSH2 0x94F JUMPI PUSH2 0x94F PUSH2 0x4FDF JUMP JUMPDEST SWAP1 POP PUSH1 0x20 MUL ADD CALLDATALOAD DUP3 DUP3 DUP2 MLOAD DUP2 LT PUSH2 0x968 JUMPI PUSH2 0x968 PUSH2 0x4FDF JUMP JUMPDEST PUSH1 0x20 SWAP1 DUP2 MUL SWAP2 SWAP1 SWAP2 ADD ADD MSTORE DUP1 PUSH2 0x97D DUP2 PUSH2 0x4FF5 JUMP JUMPDEST SWAP2 POP POP PUSH2 0x92B JUMP JUMPDEST POP PUSH2 0xB31 DUP10 PUSH1 0x40 MLOAD DUP1 PUSH1 0xE0 ADD PUSH1 0x40 MSTORE DUP1 DUP12 DUP2 MSTORE PUSH1 0x20 ADD DUP11 DUP11 PUSH1 0x0 DUP2 DUP2 LT PUSH2 0x9AE JUMPI PUSH2 0x9AE PUSH2 0x4FDF JUMP JUMPDEST SWAP1 POP PUSH1 0x20 MUL ADD CALLDATALOAD DUP2 MSTORE PUSH1 0x20 ADD DUP11 DUP11 PUSH1 0x1 DUP2 DUP2 LT PUSH2 0x9CD JUMPI PUSH2 0x9CD PUSH2 0x4FDF JUMP JUMPDEST SWAP1 POP PUSH1 0x20 MUL ADD CALLDATALOAD DUP2 MSTORE PUSH1 0x20 ADD DUP11 DUP11 PUSH1 0x2 DUP2 DUP2 LT PUSH2 0x9EC JUMPI PUSH2 0x9EC PUSH2 0x4FDF JUMP JUMPDEST SWAP1 POP PUSH1 0x20 MUL ADD CALLDATALOAD PUSH1 0x0 EQ ISZERO ISZERO ISZERO DUP2 MSTORE PUSH1 0x20 ADD DUP11 DUP11 PUSH1 0x3 DUP2 DUP2 LT PUSH2 0xA11 JUMPI PUSH2 0xA11 PUSH2 0x4FDF JUMP JUMPDEST SWAP1 POP PUSH1 0x20 MUL ADD CALLDATALOAD PUSH1 0x0 EQ ISZERO ISZERO ISZERO DUP2 MSTORE PUSH1 0x20 ADD DUP11 DUP11 PUSH1 0x7 DUP2 DUP2 LT PUSH2 0xA36 JUMPI PUSH2 0xA36 PUSH2 0x4FDF JUMP JUMPDEST SWAP1 POP PUSH1 0x20 MUL ADD CALLDATALOAD DUP2 MSTORE PUSH1 0x20 ADD DUP5 DUP2 MSTORE POP PUSH1 0x40 MLOAD DUP1 PUSH1 0x80 ADD PUSH1 0x40 MSTORE DUP1 DUP12 DUP12 PUSH1 0x5 DUP2 DUP2 LT PUSH2 0xA64 JUMPI PUSH2 0xA64 PUSH2 0x4FDF JUMP JUMPDEST SWAP1 POP PUSH1 0x20 MUL ADD CALLDATALOAD DUP2 MSTORE PUSH1 0x20 ADD DUP12 DUP12 PUSH1 0x6 DUP2 DUP2 LT PUSH2 0xA83 JUMPI PUSH2 0xA83 PUSH2 0x4FDF JUMP JUMPDEST SWAP1 POP PUSH1 0x20 MUL ADD CALLDATALOAD DUP2 MSTORE PUSH1 0x20 ADD DUP12 DUP12 PUSH1 0x4 DUP2 DUP2 LT PUSH2 0xAA2 JUMPI PUSH2 0xAA2 PUSH2 0x4FDF JUMP JUMPDEST PUSH1 0x20 SWAP1 DUP2 MUL SWAP3 SWAP1 SWAP3 ADD CALLDATALOAD DUP4 MSTORE POP ADD PUSH1 0x0 PUSH1 0x40 MLOAD SWAP1 DUP1 DUP3 MSTORE DUP1 PUSH1 0x20 MUL PUSH1 0x20 ADD DUP3 ADD PUSH1 0x40 MSTORE DUP1 ISZERO PUSH2 0xAEB JUMPI DUP2 PUSH1 0x20 ADD JUMPDEST PUSH2 0xAD8 PUSH2 0x4573 JUMP JUMPDEST DUP2 MSTORE PUSH1 0x20 ADD SWAP1 PUSH1 0x1 SWAP1 SUB SWAP1 DUP2 PUSH2 0xAD0 JUMPI SWAP1 POP JUMPDEST POP SWAP1 MSTORE PUSH1 0x40 DUP1 MLOAD PUSH1 0x0 DUP1 DUP3 MSTORE PUSH1 0x20 DUP3 ADD SWAP1 SWAP3 MSTORE SWAP1 PUSH2 0xB2B JUMP JUMPDEST PUSH1 0x40 DUP1 MLOAD DUP1 DUP3 ADD SWAP1 SWAP2 MSTORE PUSH1 0x0 DUP1 DUP3 MSTORE PUSH1 0x20 DUP3 ADD MSTORE DUP2 MSTORE PUSH1 0x20 ADD SWAP1 PUSH1 0x1 SWAP1 SUB SWAP1 DUP2 PUSH2 0xB04 JUMPI SWAP1 POP JUMPDEST POP PUSH2 0x1B44 JUMP JUMPDEST SWAP5 POP SWAP5 POP POP POP POP JUMPDEST SWAP5 POP SWAP5 SWAP3 POP POP POP JUMP JUMPDEST PUSH1 0x0 DUP3 DUP2 MSTORE PUSH1 0x1 PUSH1 0x20 MSTORE PUSH1 0x40 DUP1 DUP3 KECCAK256 SWAP1 MLOAD PUSH4 0x2BE5DB23 PUSH1 0xE1 SHL DUP2 MSTORE PUSH1 0x4 DUP2 ADD SWAP2 SWAP1 SWAP2 MSTORE PUSH1 0x24 DUP2 ADD DUP4 SWAP1 MSTORE PUSH20 0x0 SWAP1 PUSH4 0x57CBB646 SWAP1 PUSH1 0x44 ADD PUSH1 0x20 PUSH1 0x40 MLOAD DUP1 DUP4 SUB DUP2 DUP7 GAS DELEGATECALL ISZERO DUP1 ISZERO PUSH2 0xBA8 JUMPI RETURNDATASIZE PUSH1 0x0 DUP1 RETURNDATACOPY RETURNDATASIZE PUSH1 0x0 REVERT JUMPDEST POP POP POP POP PUSH1 0x40 MLOAD RETURNDATASIZE PUSH1 0x1F NOT PUSH1 0x1F DUP3 ADD AND DUP3 ADD DUP1 PUSH1 0x40 MSTORE POP DUP2 ADD SWAP1 PUSH2 0xBCC SWAP2 SWAP1 PUSH2 0x4F64 JUMP JUMPDEST SWAP4 SWAP3 POP POP POP JUMP JUMPDEST PUSH2 0xBDB PUSH2 0x45AC JUMP JUMPDEST PUSH2 0x6FA DUP3 PUSH1 0x0 PUSH2 0x2572 JUMP JUMPDEST PUSH1 0x0 PUSH2 0x6FA PUSH5 0xE8D4A51000 DUP4 PUSH2 0x5010 JUMP JUMPDEST PUSH1 0x0 DUP1 PUSH2 0xC09 PUSH5 0x2540BE400 DUP5 PUSH2 0x5010 JUMP JUMPDEST SWAP1 POP DUP3 PUSH2 0xC1B DUP3 PUSH5 0x2540BE400 PUSH2 0x5032 JUMP JUMPDEST GT ISZERO PUSH2 0x6FA JUMPI PUSH2 0x6FA PUSH2 0x5051 JUMP JUMPDEST PUSH1 0x0 DUP2 DUP2 MSTORE PUSH1 0x1 PUSH1 0x20 SWAP1 DUP2 MSTORE PUSH1 0x40 DUP1 DUP4 KECCAK256 DUP1 SLOAD DUP3 MLOAD DUP2 DUP6 MUL DUP2 ADD DUP6 ADD SWAP1 SWAP4 MSTORE DUP1 DUP4 MSTORE PUSH1 0x60 SWAP5 SWAP4 DUP4 ADD DUP3 DUP3 DUP1 ISZERO PUSH2 0xC7E JUMPI PUSH1 0x20 MUL DUP3 ADD SWAP2 SWAP1 PUSH1 0x0 MSTORE PUSH1 0x20 PUSH1 0x0 KECCAK256 SWAP1 JUMPDEST DUP2 SLOAD DUP2 MSTORE PUSH1 0x20 ADD SWAP1 PUSH1 0x1 ADD SWAP1 DUP1 DUP4 GT PUSH2 0xC6A JUMPI JUMPDEST POP POP POP POP POP SWAP1 POP DUP1 MLOAD PUSH1 0x1 PUSH1 0x1 PUSH1 0x40 SHL SUB DUP2 GT ISZERO PUSH2 0xC9E JUMPI PUSH2 0xC9E PUSH2 0x475F JUMP JUMPDEST PUSH1 0x40 MLOAD SWAP1 DUP1 DUP3 MSTORE DUP1 PUSH1 0x20 MUL PUSH1 0x20 ADD DUP3 ADD PUSH1 0x40 MSTORE DUP1 ISZERO PUSH2 0xCD1 JUMPI DUP2 PUSH1 0x20 ADD JUMPDEST PUSH1 0x60 DUP2 MSTORE PUSH1 0x20 ADD SWAP1 PUSH1 0x1 SWAP1 SUB SWAP1 DUP2 PUSH2 0xCBC JUMPI SWAP1 POP JUMPDEST POP SWAP2 POP PUSH1 0x0 DUP1 JUMPDEST DUP3 MLOAD DUP2 LT ISZERO PUSH2 0xFF2 JUMPI PUSH32 0x0 PUSH1 0x1 PUSH1 0x1 PUSH1 0xA0 SHL SUB AND PUSH4 0x38A699A4 DUP5 DUP4 DUP2 MLOAD DUP2 LT PUSH2 0xD22 JUMPI PUSH2 0xD22 PUSH2 0x4FDF JUMP JUMPDEST PUSH1 0x20 MUL PUSH1 0x20 ADD ADD MLOAD PUSH1 0x40 MLOAD DUP3 PUSH4 0xFFFFFFFF AND PUSH1 0xE0 SHL DUP2 MSTORE PUSH1 0x4 ADD PUSH2 0xD48 SWAP2 DUP2 MSTORE PUSH1 0x20 ADD SWAP1 JUMP JUMPDEST PUSH1 0x20 PUSH1 0x40 MLOAD DUP1 DUP4 SUB DUP2 DUP7 GAS STATICCALL ISZERO DUP1 ISZERO PUSH2 0xD65 JUMPI RETURNDATASIZE PUSH1 0x0 DUP1 RETURNDATACOPY RETURNDATASIZE PUSH1 0x0 REVERT JUMPDEST POP POP POP POP PUSH1 0x40 MLOAD RETURNDATASIZE PUSH1 0x1F NOT PUSH1 0x1F DUP3 ADD AND DUP3 ADD DUP1 PUSH1 0x40 MSTORE POP DUP2 ADD SWAP1 PUSH2 0xD89 SWAP2 SWAP1 PUSH2 0x4F64 JUMP JUMPDEST PUSH2 0xD92 JUMPI PUSH2 0xFE0 JUMP JUMPDEST PUSH1 0x0 PUSH32 0x0 PUSH1 0x1 PUSH1 0x1 PUSH1 0xA0 SHL SUB AND PUSH4 0x27EE9DC2 DUP6 DUP5 DUP2 MLOAD DUP2 LT PUSH2 0xDD5 JUMPI PUSH2 0xDD5 PUSH2 0x4FDF JUMP JUMPDEST PUSH1 0x20 MUL PUSH1 0x20 ADD ADD MLOAD PUSH1 0x40 MLOAD DUP3 PUSH4 0xFFFFFFFF AND PUSH1 0xE0 SHL DUP2 MSTORE PUSH1 0x4 ADD PUSH2 0xDFB SWAP2 DUP2 MSTORE PUSH1 0x20 ADD SWAP1 JUMP JUMPDEST PUSH1 0x0 PUSH1 0x40 MLOAD DUP1 DUP4 SUB DUP2 DUP7 GAS STATICCALL ISZERO DUP1 ISZERO PUSH2 0xE18 JUMPI RETURNDATASIZE PUSH1 0x0 DUP1 RETURNDATACOPY RETURNDATASIZE PUSH1 0x0 REVERT JUMPDEST POP POP POP POP PUSH1 0x40 MLOAD RETURNDATASIZE PUSH1 0x0 DUP3 RETURNDATACOPY PUSH1 0x1F RETURNDATASIZE SWAP1 DUP2 ADD PUSH1 0x1F NOT AND DUP3 ADD PUSH1 0x40 MSTORE PUSH2 0xE40 SWAP2 SWAP1 DUP2 ADD SWAP1 PUSH2 0x50C2 JUMP JUMPDEST SWAP1 POP PUSH1 0x0 DUP2 MLOAD GT PUSH2 0xE8D JUMPI PUSH1 0x40 MLOAD PUSH3 0x461BCD PUSH1 0xE5 SHL DUP2 MSTORE PUSH1 0x20 PUSH1 0x4 DUP3 ADD MSTORE PUSH1 0x17 PUSH1 0x24 DUP3 ADD MSTORE PUSH23 0x5F706174684C69737420706174682E6C656E6774683E3 PUSH1 0x4C SHL PUSH1 0x44 DUP3 ADD MSTORE PUSH1 0x64 ADD PUSH2 0x6A8 JUMP JUMPDEST PUSH1 0x0 JUMPDEST PUSH1 0x1 DUP3 MLOAD PUSH2 0xE9E SWAP2 SWAP1 PUSH2 0x4FB0 JUMP JUMPDEST DUP2 LT ISZERO PUSH2 0xF98 JUMPI PUSH2 0xF7D PUSH20 0x0 PUSH4 0x76254FF9 DUP5 DUP5 DUP2 MLOAD DUP2 LT PUSH2 0xED4 JUMPI PUSH2 0xED4 PUSH2 0x4FDF JUMP JUMPDEST PUSH1 0x20 MUL PUSH1 0x20 ADD ADD MLOAD DUP6 DUP6 PUSH1 0x1 PUSH2 0xEEA SWAP2 SWAP1 PUSH2 0x4FC7 JUMP JUMPDEST DUP2 MLOAD DUP2 LT PUSH2 0xEFA JUMPI PUSH2 0xEFA PUSH2 0x4FDF JUMP JUMPDEST PUSH1 0x20 MUL PUSH1 0x20 ADD ADD MLOAD PUSH1 0x40 MLOAD DUP4 PUSH4 0xFFFFFFFF AND PUSH1 0xE0 SHL DUP2 MSTORE PUSH1 0x4 ADD PUSH2 0xF28 SWAP3 SWAP2 SWAP1 SWAP2 DUP3 MSTORE PUSH1 0x20 DUP3 ADD MSTORE PUSH1 0x40 ADD SWAP1 JUMP JUMPDEST PUSH1 0x20 PUSH1 0x40 MLOAD DUP1 DUP4 SUB DUP2 DUP7 GAS DELEGATECALL ISZERO DUP1 ISZERO PUSH2 0xF45 JUMPI RETURNDATASIZE PUSH1 0x0 DUP1 RETURNDATACOPY RETURNDATASIZE PUSH1 0x0 REVERT JUMPDEST POP POP POP POP PUSH1 0x40 MLOAD RETURNDATASIZE PUSH1 0x1F NOT PUSH1 0x1F DUP3 ADD AND DUP3 ADD DUP1 PUSH1 0x40 MSTORE POP DUP2 ADD SWAP1 PUSH2 0xF69 SWAP2 SWAP1 PUSH2 0x4F81 JUMP JUMPDEST PUSH1 0x0 SWAP1 DUP2 MSTORE PUSH1 0x6 PUSH1 0x20 MSTORE PUSH1 0x40 SWAP1 KECCAK256 SLOAD ISZERO ISZERO SWAP1 JUMP JUMPDEST PUSH2 0xF86 JUMPI PUSH2 0xF98 JUMP JUMPDEST DUP1 PUSH2 0xF90 DUP2 PUSH2 0x4FF5 JUMP JUMPDEST SWAP2 POP POP PUSH2 0xE90 JUMP JUMPDEST PUSH1 0x1 DUP3 MLOAD PUSH2 0xFA6 SWAP2 SWAP1 PUSH2 0x4FB0 JUMP JUMPDEST DUP2 LT ISZERO PUSH2 0xFB4 JUMPI POP POP PUSH2 0xFE0 JUMP JUMPDEST DUP2 DUP7 DUP6 PUSH2 0xFC0 DUP2 PUSH2 0x4FF5 JUMP JUMPDEST SWAP7 POP DUP2 MLOAD DUP2 LT PUSH2 0xFD2 JUMPI PUSH2 0xFD2 PUSH2 0x4FDF JUMP JUMPDEST PUSH1 0x20 MUL PUSH1 0x20 ADD ADD DUP2 SWAP1 MSTORE POP POP POP JUMPDEST DUP1 PUSH2 0xFEA DUP2 PUSH2 0x4FF5 JUMP JUMPDEST SWAP2 POP POP PUSH2 0xCD8 JUMP JUMPDEST POP DUP1 DUP4 MSTORE PUSH1 0x0 DUP2 GT PUSH2 0x103E JUMPI PUSH1 0x40 MLOAD PUSH3 0x461BCD PUSH1 0xE5 SHL DUP2 MSTORE PUSH1 0x20 PUSH1 0x4 DUP3 ADD MSTORE PUSH1 0x15 PUSH1 0x24 DUP3 ADD MSTORE PUSH21 0x5F6C6973745061746846726F6D20636F756E743E3 PUSH1 0x5C SHL PUSH1 0x44 DUP3 ADD MSTORE PUSH1 0x64 ADD PUSH2 0x6A8 JUMP JUMPDEST POP POP SWAP2 SWAP1 POP JUMP JUMPDEST PUSH2 0x104D PUSH2 0x2CDB JUMP JUMPDEST PUSH2 0x6B1 PUSH1 0x0 PUSH2 0x2D3C JUMP JUMPDEST PUSH2 0x105F PUSH2 0x4E9 JUMP JUMPDEST PUSH2 0x6B1 PUSH1 0x0 DUP1 SLOAD PUSH1 0xFF NOT AND PUSH1 0x1 OR SWAP1 SSTORE JUMP JUMPDEST PUSH1 0x0 PUSH2 0x6FA PUSH6 0xFFFFFFFFFFFF DUP4 AND PUSH5 0x174876E800 PUSH2 0x5032 JUMP JUMPDEST PUSH1 0x0 DUP1 SLOAD PUSH1 0xFF AND DUP1 PUSH2 0x10A3 JUMPI POP PUSH1 0x0 SLOAD PUSH2 0x100 SWAP1 DIV PUSH1 0xFF AND JUMPDEST SWAP1 POP SWAP1 JUMP JUMPDEST PUSH1 0x0 PUSH2 0x6FA PUSH1 0x1 PUSH1 0x1 PUSH1 0x40 SHL SUB DUP4 AND PUSH5 0x2540BE400 PUSH2 0x5032 JUMP JUMPDEST PUSH2 0x10CA PUSH2 0x4529 JUMP JUMPDEST PUSH1 0x40 MLOAD PUSH4 0x27BCDBC9 PUSH1 0xE1 SHL DUP2 MSTORE PUSH1 0x1 PUSH1 0x1 PUSH1 0xA0 SHL SUB DUP9 DUP2 AND PUSH1 0x4 DUP4 ADD MSTORE PUSH1 0x24 DUP3 ADD DUP9 SWAP1 MSTORE PUSH1 0x60 SWAP2 PUSH2 0x11FA SWAP2 PUSH32 0x0 AND SWAP1 PUSH4 0x4F79B792 SWAP1 PUSH1 0x44 ADD PUSH1 0x20 PUSH1 0x40 MLOAD DUP1 DUP4 SUB DUP2 DUP7 GAS STATICCALL ISZERO DUP1 ISZERO PUSH2 0x113E JUMPI RETURNDATASIZE PUSH1 0x0 DUP1 RETURNDATACOPY RETURNDATASIZE PUSH1 0x0 REVERT JUMPDEST POP POP POP POP PUSH1 0x40 MLOAD RETURNDATASIZE PUSH1 0x1F NOT PUSH1 0x1F DUP3 ADD AND DUP3 ADD DUP1 PUSH1 0x40 MSTORE POP DUP2 ADD SWAP1 PUSH2 0x1162 SWAP2 SWAP1 PUSH2 0x4F81 JUMP JUMPDEST PUSH1 0x40 MLOAD PUSH4 0x27BCDBC9 PUSH1 0xE1 SHL DUP2 MSTORE PUSH1 0x1 PUSH1 0x1 PUSH1 0xA0 SHL SUB DUP10 DUP2 AND PUSH1 0x4 DUP4 ADD MSTORE PUSH1 0x24 DUP3 ADD DUP10 SWAP1 MSTORE PUSH32 0x0 AND SWAP1 PUSH4 0x4F79B792 SWAP1 PUSH1 0x44 ADD PUSH1 0x20 PUSH1 0x40 MLOAD DUP1 DUP4 SUB DUP2 DUP7 GAS STATICCALL ISZERO DUP1 ISZERO PUSH2 0x11CF JUMPI RETURNDATASIZE PUSH1 0x0 DUP1 RETURNDATACOPY RETURNDATASIZE PUSH1 0x0 REVERT JUMPDEST POP POP POP POP PUSH1 0x40 MLOAD RETURNDATASIZE PUSH1 0x1F NOT PUSH1 0x1F DUP3 ADD AND DUP3 ADD DUP1 PUSH1 0x40 MSTORE POP DUP2 ADD SWAP1 PUSH2 0x11F3 SWAP2 SWAP1 PUSH2 0x4F81 JUMP JUMPDEST DUP7 DUP7 PUSH2 0x14B3 JUMP JUMPDEST SWAP2 POP SWAP2 POP SWAP7 POP SWAP7 SWAP5 POP POP POP POP POP JUMP JUMPDEST PUSH1 0x60 PUSH1 0x0 PUSH2 0x1231 PUSH1 0x40 MLOAD DUP1 PUSH1 0x60 ADD PUSH1 0x40 MSTORE DUP1 PUSH1 0x0 DUP2 MSTORE PUSH1 0x20 ADD PUSH1 0x0 DUP2 MSTORE PUSH1 0x20 ADD PUSH1 0x0 DUP2 MSTORE POP SWAP1 JUMP JUMPDEST PUSH1 0x0 DUP1 PUSH2 0x123F PUSH1 0x8 DUP8 PUSH2 0x4FB0 JUMP JUMPDEST SWAP1 POP JUMPDEST DUP1 DUP3 LT ISZERO PUSH2 0x128C JUMPI DUP7 DUP7 PUSH2 0x1257 DUP5 PUSH1 0x8 PUSH2 0x4FC7 JUMP JUMPDEST DUP2 DUP2 LT PUSH2 0x1266 JUMPI PUSH2 0x1266 PUSH2 0x4FDF JUMP JUMPDEST SWAP1 POP PUSH1 0x20 MUL ADD CALLDATALOAD PUSH1 0x0 EQ ISZERO PUSH2 0x127A JUMPI PUSH2 0x128C JUMP JUMPDEST DUP2 PUSH2 0x1284 DUP2 PUSH2 0x4FF5 JUMP JUMPDEST SWAP3 POP POP PUSH2 0x1242 JUMP JUMPDEST PUSH1 0x0 DUP3 PUSH1 0x1 PUSH1 0x1 PUSH1 0x40 SHL SUB DUP2 GT ISZERO PUSH2 0x12A6 JUMPI PUSH2 0x12A6 PUSH2 0x475F JUMP JUMPDEST PUSH1 0x40 MLOAD SWAP1 DUP1 DUP3 MSTORE DUP1 PUSH1 0x20 MUL PUSH1 0x20 ADD DUP3 ADD PUSH1 0x40 MSTORE DUP1 ISZERO PUSH2 0x12CF JUMPI DUP2 PUSH1 0x20 ADD PUSH1 0x20 DUP3 MUL DUP1 CALLDATASIZE DUP4 CALLDATACOPY ADD SWAP1 POP JUMPDEST POP SWAP1 POP PUSH1 0x0 JUMPDEST DUP4 DUP2 LT ISZERO PUSH2 0x132F JUMPI DUP9 DUP9 PUSH2 0x12EA DUP4 PUSH1 0x8 PUSH2 0x4FC7 JUMP JUMPDEST DUP2 DUP2 LT PUSH2 0x12F9 JUMPI PUSH2 0x12F9 PUSH2 0x4FDF JUMP JUMPDEST SWAP1 POP PUSH1 0x20 MUL ADD CALLDATALOAD DUP3 DUP3 DUP2 MLOAD DUP2 LT PUSH2 0x1312 JUMPI PUSH2 0x1312 PUSH2 0x4FDF JUMP JUMPDEST PUSH1 0x20 SWAP1 DUP2 MUL SWAP2 SWAP1 SWAP2 ADD ADD MSTORE DUP1 PUSH2 0x1327 DUP2 PUSH2 0x4FF5 JUMP JUMPDEST SWAP2 POP POP PUSH2 0x12D5 JUMP JUMPDEST POP PUSH2 0x149F DUP11 PUSH1 0x40 MLOAD DUP1 PUSH1 0xE0 ADD PUSH1 0x40 MSTORE DUP1 DUP13 DUP2 MSTORE PUSH1 0x20 ADD DUP12 DUP12 PUSH1 0x0 DUP2 DUP2 LT PUSH2 0x1358 JUMPI PUSH2 0x1358 PUSH2 0x4FDF JUMP JUMPDEST SWAP1 POP PUSH1 0x20 MUL ADD CALLDATALOAD DUP2 MSTORE PUSH1 0x20 ADD DUP12 DUP12 PUSH1 0x1 DUP2 DUP2 LT PUSH2 0x1377 JUMPI PUSH2 0x1377 PUSH2 0x4FDF JUMP JUMPDEST SWAP1 POP PUSH1 0x20 MUL ADD CALLDATALOAD DUP2 MSTORE PUSH1 0x20 ADD DUP12 DUP12 PUSH1 0x2 DUP2 DUP2 LT PUSH2 0x1396 JUMPI PUSH2 0x1396 PUSH2 0x4FDF JUMP JUMPDEST SWAP1 POP PUSH1 0x20 MUL ADD CALLDATALOAD PUSH1 0x0 EQ ISZERO ISZERO ISZERO DUP2 MSTORE PUSH1 0x20 ADD DUP12 DUP12 PUSH1 0x3 DUP2 DUP2 LT PUSH2 0x13BB JUMPI PUSH2 0x13BB PUSH2 0x4FDF JUMP JUMPDEST SWAP1 POP PUSH1 0x20 MUL ADD CALLDATALOAD PUSH1 0x0 EQ ISZERO ISZERO ISZERO DUP2 MSTORE PUSH1 0x20 ADD DUP12 DUP12 PUSH1 0x7 DUP2 DUP2 LT PUSH2 0x13E0 JUMPI PUSH2 0x13E0 PUSH2 0x4FDF JUMP JUMPDEST SWAP1 POP PUSH1 0x20 MUL ADD CALLDATALOAD DUP2 MSTORE PUSH1 0x20 ADD DUP5 DUP2 MSTORE POP PUSH1 0x40 MLOAD DUP1 PUSH1 0x80 ADD PUSH1 0x40 MSTORE DUP1 DUP13 DUP13 PUSH1 0x5 DUP2 DUP2 LT PUSH2 0x140E JUMPI PUSH2 0x140E PUSH2 0x4FDF JUMP JUMPDEST SWAP1 POP PUSH1 0x20 MUL ADD CALLDATALOAD DUP2 MSTORE PUSH1 0x20 ADD DUP13 DUP13 PUSH1 0x6 DUP2 DUP2 LT PUSH2 0x142D JUMPI PUSH2 0x142D PUSH2 0x4FDF JUMP JUMPDEST SWAP1 POP PUSH1 0x20 MUL ADD CALLDATALOAD DUP2 MSTORE PUSH1 0x20 ADD DUP13 DUP13 PUSH1 0x4 DUP2 DUP2 LT PUSH2 0x144C JUMPI PUSH2 0x144C PUSH2 0x4FDF JUMP JUMPDEST PUSH1 0x20 SWAP1 DUP2 MUL SWAP3 SWAP1 SWAP3 ADD CALLDATALOAD DUP4 MSTORE POP ADD PUSH1 0x0 PUSH1 0x40 MLOAD SWAP1 DUP1 DUP3 MSTORE DUP1 PUSH1 0x20 MUL PUSH1 0x20 ADD DUP3 ADD PUSH1 0x40 MSTORE DUP1 ISZERO PUSH2 0x1495 JUMPI DUP2 PUSH1 0x20 ADD JUMPDEST PUSH2 0x1482 PUSH2 0x4573 JUMP JUMPDEST DUP2 MSTORE PUSH1 0x20 ADD SWAP1 PUSH1 0x1 SWAP1 SUB SWAP1 DUP2 PUSH2 0x147A JUMPI SWAP1 POP JUMPDEST POP SWAP1 MSTORE PUSH1 0x0 PUSH2 0x2D97 JUMP JUMPDEST SWAP6 POP SWAP6 POP SWAP6 POP POP POP POP JUMPDEST SWAP5 POP SWAP5 POP SWAP5 SWAP2 POP POP JUMP JUMPDEST PUSH2 0x14BB PUSH2 0x4529 JUMP JUMPDEST DUP2 MLOAD PUSH1 0x60 SWAP1 PUSH1 0x20 DUP2 GT ISZERO PUSH2 0x1511 JUMPI PUSH1 0x40 MLOAD PUSH3 0x461BCD PUSH1 0xE5 SHL DUP2 MSTORE PUSH1 0x20 PUSH1 0x4 DUP3 ADD MSTORE PUSH1 0x1D PUSH1 0x24 DUP3 ADD MSTORE PUSH32 0x64656C6976657279206172726179206D61782073697A65206973203332000000 PUSH1 0x44 DUP3 ADD MSTORE PUSH1 0x64 ADD PUSH2 0x6A8 JUMP JUMPDEST PUSH2 0x1519 PUSH2 0x463B JUMP JUMPDEST DUP6 MLOAD DUP2 MSTORE PUSH1 0x20 DUP1 DUP8 ADD MLOAD SWAP1 DUP3 ADD MSTORE PUSH1 0x40 DUP7 ADD MLOAD PUSH2 0x1537 JUMPI PUSH1 0x0 PUSH2 0x153A JUMP JUMPDEST PUSH1 0x1 JUMPDEST PUSH1 0xFF AND PUSH1 0x40 DUP3 ADD MSTORE PUSH1 0x60 DUP7 ADD MLOAD PUSH2 0x1552 JUMPI PUSH1 0x0 PUSH2 0x1555 JUMP JUMPDEST PUSH1 0x1 JUMPDEST PUSH1 0xFF AND PUSH1 0x60 DUP3 ADD MSTORE PUSH1 0x80 DUP7 DUP2 ADD MLOAD SWAP1 DUP3 ADD MSTORE PUSH1 0xA0 DUP1 DUP8 ADD MLOAD SWAP1 DUP3 ADD MSTORE PUSH1 0xC0 DUP1 DUP8 ADD MLOAD SWAP1 DUP3 ADD MSTORE PUSH1 0xE0 DUP1 DUP8 ADD MLOAD SWAP1 DUP3 ADD MSTORE PUSH1 0x8 PUSH1 0x0 JUMPDEST DUP4 DUP2 LT ISZERO PUSH2 0x1603 JUMPI DUP7 DUP2 DUP2 MLOAD DUP2 LT PUSH2 0x15A4 JUMPI PUSH2 0x15A4 PUSH2 0x4FDF JUMP JUMPDEST PUSH1 0x20 MUL PUSH1 0x20 ADD ADD MLOAD PUSH1 0x0 EQ PUSH2 0x15F1 JUMPI DUP7 DUP2 DUP2 MLOAD DUP2 LT PUSH2 0x15C5 JUMPI PUSH2 0x15C5 PUSH2 0x4FDF JUMP JUMPDEST PUSH1 0x20 MUL PUSH1 0x20 ADD ADD MLOAD DUP4 DUP4 DUP1 PUSH2 0x15D9 SWAP1 PUSH2 0x4FF5 JUMP JUMPDEST SWAP5 POP PUSH1 0x28 DUP2 LT PUSH2 0x15EB JUMPI PUSH2 0x15EB PUSH2 0x4FDF JUMP JUMPDEST PUSH1 0x20 MUL ADD MSTORE JUMPDEST DUP1 PUSH2 0x15FB DUP2 PUSH2 0x4FF5 JUMP JUMPDEST SWAP2 POP POP PUSH2 0x158A JUMP JUMPDEST POP POP PUSH1 0x40 MLOAD PUSH4 0x23AA9AB PUSH1 0xE6 SHL DUP2 MSTORE PUSH32 0x2E7A327EF83C2AF7579C6634F2F5604519800C5F07626F27BD602FD11ED8E6EC PUSH1 0x4 DUP3 ADD MSTORE PUSH1 0x0 SWAP1 PUSH32 0x0 PUSH1 0x1 PUSH1 0x1 PUSH1 0xA0 SHL SUB AND SWAP1 PUSH4 0x8EAA6AC0 SWAP1 PUSH1 0x24 ADD PUSH1 0x20 PUSH1 0x40 MLOAD DUP1 DUP4 SUB DUP2 DUP7 GAS STATICCALL ISZERO DUP1 ISZERO PUSH2 0x168C JUMPI RETURNDATASIZE PUSH1 0x0 DUP1 RETURNDATACOPY RETURNDATASIZE PUSH1 0x0 REVERT JUMPDEST POP POP POP POP PUSH1 0x40 MLOAD RETURNDATASIZE PUSH1 0x1F NOT PUSH1 0x1F DUP3 ADD AND DUP3 ADD DUP1 PUSH1 0x40 MSTORE POP DUP2 ADD SWAP1 PUSH2 0x16B0 SWAP2 SWAP1 PUSH2 0x50F6 JUMP JUMPDEST PUSH1 0x1 PUSH1 0x1 PUSH1 0xA0 SHL SUB AND PUSH32 0xA3550AABEEA45F9D515C45EA5DADCD6EFBE5A3C73AB07644F630DE564C6515A ADDRESS DUP12 DUP12 PUSH1 0x60 PUSH1 0x28 DUP9 PUSH1 0x40 MLOAD PUSH1 0x24 ADD PUSH2 0x16F7 SWAP7 SWAP6 SWAP5 SWAP4 SWAP3 SWAP2 SWAP1 PUSH2 0x5113 JUMP JUMPDEST PUSH1 0x40 DUP1 MLOAD PUSH1 0x1F NOT DUP2 DUP5 SUB ADD DUP2 MSTORE SWAP2 DUP2 MSTORE PUSH1 0x20 DUP3 ADD DUP1 MLOAD PUSH1 0x1 PUSH1 0x1 PUSH1 0xE0 SHL SUB AND PUSH1 0x1 PUSH1 0x1 PUSH1 0xE0 SHL SUB NOT SWAP1 SWAP5 AND SWAP4 SWAP1 SWAP4 OR SWAP1 SWAP3 MSTORE SWAP1 MLOAD PUSH2 0x1735 SWAP2 SWAP1 PUSH2 0x5176 JUMP JUMPDEST PUSH1 0x0 PUSH1 0x40 MLOAD DUP1 DUP4 SUB DUP2 DUP6 GAS STATICCALL SWAP2 POP POP RETURNDATASIZE DUP1 PUSH1 0x0 DUP2 EQ PUSH2 0x1770 JUMPI PUSH1 0x40 MLOAD SWAP2 POP PUSH1 0x1F NOT PUSH1 0x3F RETURNDATASIZE ADD AND DUP3 ADD PUSH1 0x40 MSTORE RETURNDATASIZE DUP3 MSTORE RETURNDATASIZE PUSH1 0x0 PUSH1 0x20 DUP5 ADD RETURNDATACOPY PUSH2 0x1775 JUMP JUMPDEST PUSH1 0x60 SWAP2 POP JUMPDEST POP POP SWAP1 POP PUSH2 0x1782 DUP2 PUSH2 0x6B3 JUMP JUMPDEST POP POP POP SWAP5 POP SWAP5 SWAP3 POP POP POP JUMP JUMPDEST PUSH2 0x1796 PUSH2 0x2CDB JUMP JUMPDEST PUSH2 0x6B1 PUSH1 0x0 DUP1 SLOAD PUSH2 0xFF00 NOT AND PUSH2 0x100 OR SWAP1 SSTORE JUMP JUMPDEST PUSH1 0x0 PUSH2 0x6FA PUSH4 0xFFFFFFFF DUP4 AND PUSH5 0xE8D4A51000 PUSH2 0x5032 JUMP JUMPDEST PUSH1 0x60 PUSH1 0x0 PUSH2 0x17E9 PUSH1 0x40 MLOAD DUP1 PUSH1 0x60 ADD PUSH1 0x40 MSTORE DUP1 PUSH1 0x0 DUP2 MSTORE PUSH1 0x20 ADD PUSH1 0x0 DUP2 MSTORE PUSH1 0x20 ADD PUSH1 0x0 DUP2 MSTORE POP SWAP1 JUMP JUMPDEST DUP4 MLOAD PUSH1 0x20 DUP2 GT ISZERO PUSH2 0x183C JUMPI PUSH1 0x40 MLOAD PUSH3 0x461BCD PUSH1 0xE5 SHL DUP2 MSTORE PUSH1 0x20 PUSH1 0x4 DUP3 ADD MSTORE PUSH1 0x1D PUSH1 0x24 DUP3 ADD MSTORE PUSH32 0x64656C6976657279206172726179206D61782073697A65206973203332000000 PUSH1 0x44 DUP3 ADD MSTORE PUSH1 0x64 ADD PUSH2 0x6A8 JUMP JUMPDEST PUSH2 0x1844 PUSH2 0x463B JUMP JUMPDEST DUP7 MLOAD DUP2 MSTORE PUSH1 0x20 DUP1 DUP9 ADD MLOAD SWAP1 DUP3 ADD MSTORE PUSH1 0x40 DUP8 ADD MLOAD PUSH2 0x1862 JUMPI PUSH1 0x0 PUSH2 0x1865 JUMP JUMPDEST PUSH1 0x1 JUMPDEST PUSH1 0xFF AND PUSH1 0x40 DUP3 ADD MSTORE PUSH1 0x60 DUP8 ADD MLOAD PUSH2 0x187D JUMPI PUSH1 0x0 PUSH2 0x1880 JUMP JUMPDEST PUSH1 0x1 JUMPDEST PUSH1 0xFF AND PUSH1 0x60 DUP3 ADD MSTORE PUSH1 0x80 DUP8 DUP2 ADD MLOAD SWAP1 DUP3 ADD MSTORE PUSH1 0xA0 DUP1 DUP9 ADD MLOAD SWAP1 DUP3 ADD MSTORE PUSH1 0xC0 DUP1 DUP9 ADD MLOAD SWAP1 DUP3 ADD MSTORE PUSH1 0xE0 DUP1 DUP9 ADD MLOAD SWAP1 DUP3 ADD MSTORE PUSH1 0x8 PUSH1 0x0 JUMPDEST DUP4 DUP2 LT ISZERO PUSH2 0x192E JUMPI DUP8 DUP2 DUP2 MLOAD DUP2 LT PUSH2 0x18CF JUMPI PUSH2 0x18CF PUSH2 0x4FDF JUMP JUMPDEST PUSH1 0x20 MUL PUSH1 0x20 ADD ADD MLOAD PUSH1 0x0 EQ PUSH2 0x191C JUMPI DUP8 DUP2 DUP2 MLOAD DUP2 LT PUSH2 0x18F0 JUMPI PUSH2 0x18F0 PUSH2 0x4FDF JUMP JUMPDEST PUSH1 0x20 MUL PUSH1 0x20 ADD ADD MLOAD DUP4 DUP4 DUP1 PUSH2 0x1904 SWAP1 PUSH2 0x4FF5 JUMP JUMPDEST SWAP5 POP PUSH1 0x28 DUP2 LT PUSH2 0x1916 JUMPI PUSH2 0x1916 PUSH2 0x4FDF JUMP JUMPDEST PUSH1 0x20 MUL ADD MSTORE JUMPDEST DUP1 PUSH2 0x1926 DUP2 PUSH2 0x4FF5 JUMP JUMPDEST SWAP2 POP POP PUSH2 0x18B5 JUMP JUMPDEST POP POP PUSH1 0x40 MLOAD PUSH4 0x23AA9AB PUSH1 0xE6 SHL DUP2 MSTORE PUSH32 0x2E7A327EF83C2AF7579C6634F2F5604519800C5F07626F27BD602FD11ED8E6EC PUSH1 0x4 DUP3 ADD MSTORE PUSH1 0x0 SWAP1 PUSH32 0x0 PUSH1 0x1 PUSH1 0x1 PUSH1 0xA0 SHL SUB AND SWAP1 PUSH4 0x8EAA6AC0 SWAP1 PUSH1 0x24 ADD PUSH1 0x20 PUSH1 0x40 MLOAD DUP1 DUP4 SUB DUP2 DUP7 GAS STATICCALL ISZERO DUP1 ISZERO PUSH2 0x19B7 JUMPI RETURNDATASIZE PUSH1 0x0 DUP1 RETURNDATACOPY RETURNDATASIZE PUSH1 0x0 REVERT JUMPDEST POP POP POP POP PUSH1 0x40 MLOAD RETURNDATASIZE PUSH1 0x1F NOT PUSH1 0x1F DUP3 ADD AND DUP3 ADD DUP1 PUSH1 0x40 MSTORE POP DUP2 ADD SWAP1 PUSH2 0x19DB SWAP2 SWAP1 PUSH2 0x50F6 JUMP JUMPDEST PUSH1 0x1 PUSH1 0x1 PUSH1 0xA0 SHL SUB AND PUSH32 0xBD0ADE2BCAE368FCA26BB02146561A2830136BF30C4A34C648255FCCEBBE2254 ADDRESS DUP13 DUP13 PUSH1 0x60 PUSH1 0x28 DUP9 PUSH1 0x40 MLOAD PUSH1 0x24 ADD PUSH2 0x1A22 SWAP7 SWAP6 SWAP5 SWAP4 SWAP3 SWAP2 SWAP1 PUSH2 0x5113 JUMP JUMPDEST PUSH1 0x40 DUP1 MLOAD PUSH1 0x1F NOT DUP2 DUP5 SUB ADD DUP2 MSTORE SWAP2 DUP2 MSTORE PUSH1 0x20 DUP3 ADD DUP1 MLOAD PUSH1 0x1 PUSH1 0x1 PUSH1 0xE0 SHL SUB AND PUSH1 0x1 PUSH1 0x1 PUSH1 0xE0 SHL SUB NOT SWAP1 SWAP5 AND SWAP4 SWAP1 SWAP4 OR SWAP1 SWAP3 MSTORE SWAP1 MLOAD PUSH2 0x1A60 SWAP2 SWAP1 PUSH2 0x5176 JUMP JUMPDEST PUSH1 0x0 PUSH1 0x40 MLOAD DUP1 DUP4 SUB DUP2 DUP6 GAS STATICCALL SWAP2 POP POP RETURNDATASIZE DUP1 PUSH1 0x0 DUP2 EQ PUSH2 0x1A9B JUMPI PUSH1 0x40 MLOAD SWAP2 POP PUSH1 0x1F NOT PUSH1 0x3F RETURNDATASIZE ADD AND DUP3 ADD PUSH1 0x40 MSTORE RETURNDATASIZE DUP3 MSTORE RETURNDATASIZE PUSH1 0x0 PUSH1 0x20 DUP5 ADD RETURNDATACOPY PUSH2 0x1AA0 JUMP JUMPDEST PUSH1 0x60 SWAP2 POP JUMPDEST POP POP SWAP1 POP PUSH2 0x1AAD DUP2 PUSH2 0x6B3 JUMP JUMPDEST POP POP POP SWAP5 POP SWAP5 POP SWAP5 SWAP2 POP POP JUMP JUMPDEST PUSH2 0x1AC2 PUSH2 0x2CDB JUMP JUMPDEST PUSH1 0x1 PUSH1 0x1 PUSH1 0xA0 SHL SUB DUP2 AND PUSH2 0x1B27 JUMPI PUSH1 0x40 MLOAD PUSH3 0x461BCD PUSH1 0xE5 SHL DUP2 MSTORE PUSH1 0x20 PUSH1 0x4 DUP3 ADD MSTORE PUSH1 0x26 PUSH1 0x24 DUP3 ADD MSTORE PUSH32 0x4F776E61626C653A206E6577206F776E657220697320746865207A65726F2061 PUSH1 0x44 DUP3 ADD MSTORE PUSH6 0x646472657373 PUSH1 0xD0 SHL PUSH1 0x64 DUP3 ADD MSTORE PUSH1 0x84 ADD PUSH2 0x6A8 JUMP JUMPDEST PUSH2 0x1B30 DUP2 PUSH2 0x2D3C JUMP JUMPDEST POP JUMP JUMPDEST PUSH1 0x0 PUSH2 0x6FA PUSH5 0x174876E800 DUP4 PUSH2 0x5010 JUMP JUMPDEST PUSH2 0x1B4C PUSH2 0x4529 JUMP JUMPDEST DUP2 PUSH2 0x1B55 PUSH2 0x4529 JUMP JUMPDEST PUSH1 0x0 PUSH2 0x1B65 DUP9 DUP9 PUSH1 0x0 ADD MLOAD PUSH2 0x337D JUMP JUMPDEST DUP1 MLOAD SWAP1 SWAP2 POP PUSH1 0x0 JUMPDEST DUP2 DUP2 LT ISZERO PUSH2 0x1D13 JUMPI PUSH2 0x1B7D PUSH2 0x465A JUMP JUMPDEST PUSH2 0x1C09 DUP5 DUP4 DUP2 MLOAD DUP2 LT PUSH2 0x1B92 JUMPI PUSH2 0x1B92 PUSH2 0x4FDF JUMP JUMPDEST PUSH1 0x20 MUL PUSH1 0x20 ADD ADD MLOAD PUSH1 0x2 DUP7 DUP6 DUP2 MLOAD DUP2 LT PUSH2 0x1BAE JUMPI PUSH2 0x1BAE PUSH2 0x4FDF JUMP JUMPDEST PUSH1 0x20 MUL PUSH1 0x20 ADD ADD MLOAD MLOAD PUSH2 0x1BC1 SWAP2 SWAP1 PUSH2 0x4FB0 JUMP JUMPDEST DUP2 MLOAD DUP2 LT PUSH2 0x1BD1 JUMPI PUSH2 0x1BD1 PUSH2 0x4FDF JUMP JUMPDEST PUSH1 0x20 MUL PUSH1 0x20 ADD ADD MLOAD DUP12 PUSH1 0x40 MLOAD DUP1 PUSH1 0x80 ADD PUSH1 0x40 MSTORE DUP1 PUSH1 0x0 DUP2 MSTORE PUSH1 0x20 ADD PUSH1 0x0 DUP2 MSTORE PUSH1 0x20 ADD PUSH1 0x0 DUP2 MSTORE PUSH1 0x20 ADD DUP14 PUSH1 0x60 ADD MLOAD DUP2 MSTORE POP PUSH1 0x0 PUSH2 0x2D97 JUMP JUMPDEST PUSH1 0x40 DUP5 ADD MSTORE PUSH1 0x20 DUP4 ADD DUP2 SWAP1 MSTORE ISZERO ISZERO SWAP1 POP PUSH2 0x1C23 JUMPI POP PUSH2 0x1D01 JUMP JUMPDEST DUP4 DUP3 DUP2 MLOAD DUP2 LT PUSH2 0x1C35 JUMPI PUSH2 0x1C35 PUSH2 0x4FDF JUMP JUMPDEST PUSH1 0x20 SWAP1 DUP2 MUL SWAP2 SWAP1 SWAP2 ADD ADD MLOAD DUP2 MSTORE PUSH20 0x0 PUSH4 0x7513CE1B DUP7 DUP4 PUSH1 0x0 PUSH1 0x40 MLOAD SWAP1 DUP1 DUP3 MSTORE DUP1 PUSH1 0x20 MUL PUSH1 0x20 ADD DUP3 ADD PUSH1 0x40 MSTORE DUP1 ISZERO PUSH2 0x1C99 JUMPI DUP2 PUSH1 0x20 ADD JUMPDEST PUSH2 0x1C86 PUSH2 0x4573 JUMP JUMPDEST DUP2 MSTORE PUSH1 0x20 ADD SWAP1 PUSH1 0x1 SWAP1 SUB SWAP1 DUP2 PUSH2 0x1C7E JUMPI SWAP1 POP JUMPDEST POP PUSH1 0x40 MLOAD DUP5 PUSH4 0xFFFFFFFF AND PUSH1 0xE0 SHL DUP2 MSTORE PUSH1 0x4 ADD PUSH2 0x1CB8 SWAP4 SWAP3 SWAP2 SWAP1 PUSH2 0x5370 JUMP JUMPDEST PUSH1 0x0 PUSH1 0x40 MLOAD DUP1 DUP4 SUB DUP2 DUP7 GAS DELEGATECALL ISZERO DUP1 ISZERO PUSH2 0x1CD5 JUMPI RETURNDATASIZE PUSH1 0x0 DUP1 RETURNDATACOPY RETURNDATASIZE PUSH1 0x0 REVERT JUMPDEST POP POP POP POP PUSH1 0x40 MLOAD RETURNDATASIZE PUSH1 0x0 DUP3 RETURNDATACOPY PUSH1 0x1F RETURNDATASIZE SWAP1 DUP2 ADD PUSH1 0x1F NOT AND DUP3 ADD PUSH1 0x40 MSTORE PUSH2 0x1CFD SWAP2 SWAP1 DUP2 ADD SWAP1 PUSH2 0x559D JUMP JUMPDEST SWAP5 POP POP JUMPDEST DUP1 PUSH2 0x1D0B DUP2 PUSH2 0x4FF5 JUMP JUMPDEST SWAP2 POP POP PUSH2 0x1B6D JUMP JUMPDEST POP POP POP PUSH1 0x40 DUP2 ADD MLOAD MLOAD DUP1 PUSH2 0x1D28 JUMPI POP POP PUSH2 0xB39 JUMP JUMPDEST PUSH2 0x1D30 PUSH2 0x46B2 JUMP JUMPDEST DUP8 MLOAD DUP2 MSTORE PUSH1 0x20 DUP1 DUP10 ADD MLOAD DUP2 DUP4 ADD MSTORE PUSH1 0x40 DUP1 DUP11 ADD MLOAD DUP2 DUP5 ADD MSTORE PUSH1 0x60 DUP1 DUP12 ADD MLOAD ISZERO ISZERO DUP2 DUP6 ADD MSTORE PUSH1 0x80 DUP1 DUP13 ADD MLOAD ISZERO ISZERO DUP2 DUP7 ADD MSTORE PUSH1 0xA0 DUP1 DUP14 ADD MLOAD SWAP1 DUP7 ADD MSTORE PUSH1 0xC0 DUP1 DUP14 ADD MLOAD SWAP1 DUP7 ADD MSTORE DUP3 MLOAD SWAP1 DUP2 ADD DUP4 MSTORE PUSH1 0x0 DUP1 DUP3 MSTORE DUP2 DUP6 ADD DUP2 DUP2 MSTORE DUP3 DUP6 ADD DUP3 DUP2 MSTORE DUP4 DUP6 ADD DUP6 DUP2 MSTORE DUP15 MLOAD DUP6 MSTORE SWAP7 DUP15 ADD MLOAD SWAP1 SWAP2 MSTORE SWAP4 DUP13 ADD MLOAD SWAP1 SWAP4 MSTORE SWAP1 DUP11 ADD MLOAD SWAP1 SWAP3 MSTORE DUP4 PUSH1 0x1 PUSH1 0x1 PUSH1 0x40 SHL SUB DUP2 GT ISZERO PUSH2 0x1DC3 JUMPI PUSH2 0x1DC3 PUSH2 0x475F JUMP JUMPDEST PUSH1 0x40 MLOAD SWAP1 DUP1 DUP3 MSTORE DUP1 PUSH1 0x20 MUL PUSH1 0x20 ADD DUP3 ADD PUSH1 0x40 MSTORE DUP1 ISZERO PUSH2 0x1DFC JUMPI DUP2 PUSH1 0x20 ADD JUMPDEST PUSH2 0x1DE9 PUSH2 0x4529 JUMP JUMPDEST DUP2 MSTORE PUSH1 0x20 ADD SWAP1 PUSH1 0x1 SWAP1 SUB SWAP1 DUP2 PUSH2 0x1DE1 JUMPI SWAP1 POP JUMPDEST POP SWAP1 POP PUSH1 0x0 JUMPDEST DUP10 MLOAD DUP4 MSTORE PUSH1 0x1 PUSH1 0xA0 DUP6 ADD MSTORE PUSH1 0x0 JUMPDEST DUP6 DUP2 LT ISZERO PUSH2 0x1F01 JUMPI PUSH2 0x1E45 DUP8 PUSH1 0x40 ADD MLOAD DUP3 DUP2 MLOAD DUP2 LT PUSH2 0x1E31 JUMPI PUSH2 0x1E31 PUSH2 0x4FDF JUMP JUMPDEST PUSH1 0x20 MUL PUSH1 0x20 ADD ADD MLOAD PUSH1 0x0 ADD MLOAD DUP7 DUP7 DUP12 PUSH2 0x3771 JUMP JUMPDEST DUP4 DUP3 DUP2 MLOAD DUP2 LT PUSH2 0x1E57 JUMPI PUSH2 0x1E57 PUSH2 0x4FDF JUMP JUMPDEST PUSH1 0x20 MUL PUSH1 0x20 ADD ADD DUP2 SWAP1 MSTORE POP PUSH1 0x1 DUP4 DUP3 DUP2 MLOAD DUP2 LT PUSH2 0x1E76 JUMPI PUSH2 0x1E76 PUSH2 0x4FDF JUMP JUMPDEST PUSH1 0x20 MUL PUSH1 0x20 ADD ADD MLOAD PUSH1 0x40 ADD MLOAD MLOAD GT ISZERO PUSH2 0x1EEF JUMPI PUSH1 0x40 MLOAD PUSH3 0x461BCD PUSH1 0xE5 SHL DUP2 MSTORE PUSH1 0x20 PUSH1 0x4 DUP3 ADD MSTORE PUSH1 0x35 PUSH1 0x24 DUP3 ADD MSTORE PUSH32 0x504152414E4F4941205F5F73656172636843466F6C6C6F77506174682073686F PUSH1 0x44 DUP3 ADD MSTORE PUSH21 0x756C642072657475726E206D617820312064657363 PUSH1 0x58 SHL PUSH1 0x64 DUP3 ADD MSTORE PUSH1 0x84 ADD PUSH2 0x6A8 JUMP JUMPDEST DUP1 PUSH2 0x1EF9 DUP2 PUSH2 0x4FF5 JUMP JUMPDEST SWAP2 POP POP PUSH2 0x1E10 JUMP JUMPDEST POP PUSH1 0x0 NOT PUSH1 0x0 DUP1 DUP1 JUMPDEST DUP9 DUP2 LT ISZERO PUSH2 0x2062 JUMPI DUP6 DUP2 DUP2 MLOAD DUP2 LT PUSH2 0x1F24 JUMPI PUSH2 0x1F24 PUSH2 0x4FDF JUMP JUMPDEST PUSH1 0x20 MUL PUSH1 0x20 ADD ADD MLOAD PUSH1 0x0 ADD MLOAD PUSH1 0x0 EQ ISZERO PUSH2 0x1F3D JUMPI PUSH2 0x2050 JUMP JUMPDEST PUSH1 0x0 NOT DUP5 EQ DUP1 PUSH2 0x1F6D JUMPI POP DUP6 DUP2 DUP2 MLOAD DUP2 LT PUSH2 0x1F5A JUMPI PUSH2 0x1F5A PUSH2 0x4FDF JUMP JUMPDEST PUSH1 0x20 MUL PUSH1 0x20 ADD ADD MLOAD PUSH1 0x20 ADD MLOAD PUSH1 0x0 ADD MLOAD DUP4 GT JUMPDEST ISZERO PUSH2 0x2002 JUMPI PUSH1 0x0 NOT DUP5 EQ ISZERO DUP1 ISZERO PUSH2 0x1FA4 JUMPI POP DUP6 DUP2 DUP2 MLOAD DUP2 LT PUSH2 0x1F91 JUMPI PUSH2 0x1F91 PUSH2 0x4FDF JUMP JUMPDEST PUSH1 0x20 MUL PUSH1 0x20 ADD ADD MLOAD PUSH1 0x20 ADD MLOAD PUSH1 0x40 ADD MLOAD DUP4 LT JUMPDEST ISZERO PUSH2 0x1FB1 JUMPI DUP3 SWAP2 POP PUSH2 0x1FD6 JUMP JUMPDEST DUP6 DUP2 DUP2 MLOAD DUP2 LT PUSH2 0x1FC3 JUMPI PUSH2 0x1FC3 PUSH2 0x4FDF JUMP JUMPDEST PUSH1 0x20 MUL PUSH1 0x20 ADD ADD MLOAD PUSH1 0x20 ADD MLOAD PUSH1 0x40 ADD MLOAD SWAP2 POP JUMPDEST DUP1 SWAP4 POP DUP6 DUP2 DUP2 MLOAD DUP2 LT PUSH2 0x1FEB JUMPI PUSH2 0x1FEB PUSH2 0x4FDF JUMP JUMPDEST PUSH1 0x20 MUL PUSH1 0x20 ADD ADD MLOAD PUSH1 0x20 ADD MLOAD PUSH1 0x0 ADD MLOAD SWAP3 POP PUSH2 0x2050 JUMP JUMPDEST DUP6 DUP2 DUP2 MLOAD DUP2 LT PUSH2 0x2014 JUMPI PUSH2 0x2014 PUSH2 0x4FDF JUMP JUMPDEST PUSH1 0x20 MUL PUSH1 0x20 ADD ADD MLOAD PUSH1 0x20 ADD MLOAD PUSH1 0x0 ADD MLOAD DUP3 GT ISZERO PUSH2 0x2050 JUMPI DUP6 DUP2 DUP2 MLOAD DUP2 LT PUSH2 0x203D JUMPI PUSH2 0x203D PUSH2 0x4FDF JUMP JUMPDEST PUSH1 0x20 MUL PUSH1 0x20 ADD ADD MLOAD PUSH1 0x20 ADD MLOAD PUSH1 0x0 ADD MLOAD SWAP2 POP JUMPDEST DUP1 PUSH2 0x205A DUP2 PUSH2 0x4FF5 JUMP JUMPDEST SWAP2 POP POP PUSH2 0x1F0A JUMP JUMPDEST POP PUSH1 0x0 NOT DUP4 EQ ISZERO PUSH2 0x2075 JUMPI POP POP POP PUSH2 0x2563 JUMP JUMPDEST DUP6 MSTORE POP PUSH2 0x2080 PUSH2 0x4529 JUMP JUMPDEST PUSH2 0x20AD DUP9 PUSH1 0x40 ADD MLOAD DUP4 DUP2 MLOAD DUP2 LT PUSH2 0x2099 JUMPI PUSH2 0x2099 PUSH2 0x4FDF JUMP JUMPDEST PUSH1 0x20 MUL PUSH1 0x20 ADD ADD MLOAD PUSH1 0x0 ADD MLOAD DUP8 DUP8 DUP13 PUSH2 0x3771 JUMP JUMPDEST SWAP1 POP DUP1 PUSH1 0x40 ADD MLOAD MLOAD PUSH1 0x1 EQ PUSH2 0x211E JUMPI PUSH1 0x40 MLOAD PUSH3 0x461BCD PUSH1 0xE5 SHL DUP2 MSTORE PUSH1 0x20 PUSH1 0x4 DUP3 ADD MSTORE PUSH1 0x31 PUSH1 0x24 DUP3 ADD MSTORE PUSH32 0x504152414E4F4941205F5F73656172636843466F6C6C6F77506174682073686F PUSH1 0x44 DUP3 ADD MSTORE PUSH17 0x756C642072657475726E20312064657363 PUSH1 0x78 SHL PUSH1 0x64 DUP3 ADD MSTORE PUSH1 0x84 ADD PUSH2 0x6A8 JUMP JUMPDEST DUP1 MLOAD PUSH2 0x2164 JUMPI PUSH1 0x40 MLOAD PUSH3 0x461BCD PUSH1 0xE5 SHL DUP2 MSTORE PUSH1 0x20 PUSH1 0x4 DUP3 ADD MSTORE PUSH1 0x15 PUSH1 0x24 DUP3 ADD MSTORE PUSH21 0x6966202873656C65637465642E717479203D3D3029 PUSH1 0x58 SHL PUSH1 0x44 DUP3 ADD MSTORE PUSH1 0x64 ADD PUSH2 0x6A8 JUMP JUMPDEST PUSH1 0x40 MLOAD PUSH4 0x9FAB220F PUSH1 0xE0 SHL DUP2 MSTORE PUSH20 0x0 SWAP1 PUSH4 0x9FAB220F SWAP1 PUSH2 0x219D SWAP1 DUP14 SWAP1 DUP6 SWAP1 PUSH1 0x4 ADD PUSH2 0x56B7 JUMP JUMPDEST PUSH1 0x0 PUSH1 0x40 MLOAD DUP1 DUP4 SUB DUP2 DUP7 GAS DELEGATECALL ISZERO DUP1 ISZERO PUSH2 0x21BA JUMPI RETURNDATASIZE PUSH1 0x0 DUP1 RETURNDATACOPY RETURNDATASIZE PUSH1 0x0 REVERT JUMPDEST POP POP POP POP PUSH1 0x40 MLOAD RETURNDATASIZE PUSH1 0x0 DUP3 RETURNDATACOPY PUSH1 0x1F RETURNDATASIZE SWAP1 DUP2 ADD PUSH1 0x1F NOT AND DUP3 ADD PUSH1 0x40 MSTORE PUSH2 0x21E2 SWAP2 SWAP1 DUP2 ADD SWAP1 PUSH2 0x559D JUMP JUMPDEST SWAP10 POP DUP1 PUSH1 0x60 ADD MLOAD MLOAD DUP4 PUSH2 0x21F5 SWAP2 SWAP1 PUSH2 0x4FC7 JUMP JUMPDEST SWAP3 POP DUP1 PUSH1 0x40 ADD MLOAD PUSH1 0x0 DUP2 MLOAD DUP2 LT PUSH2 0x220E JUMPI PUSH2 0x220E PUSH2 0x4FDF JUMP JUMPDEST PUSH1 0x20 MUL PUSH1 0x20 ADD ADD MLOAD PUSH1 0xA0 ADD MLOAD MLOAD PUSH1 0x0 EQ PUSH2 0x229B JUMPI DUP1 PUSH1 0x40 ADD MLOAD PUSH1 0x0 DUP2 MLOAD DUP2 LT PUSH2 0x2239 JUMPI PUSH2 0x2239 PUSH2 0x4FDF JUMP JUMPDEST PUSH1 0x20 MUL PUSH1 0x20 ADD ADD MLOAD PUSH1 0xA0 ADD MLOAD PUSH1 0x1 DUP3 PUSH1 0x40 ADD MLOAD PUSH1 0x0 DUP2 MLOAD DUP2 LT PUSH2 0x225E JUMPI PUSH2 0x225E PUSH2 0x4FDF JUMP JUMPDEST PUSH1 0x20 MUL PUSH1 0x20 ADD ADD MLOAD PUSH1 0xA0 ADD MLOAD MLOAD PUSH2 0x2275 SWAP2 SWAP1 PUSH2 0x4FB0 JUMP JUMPDEST DUP2 MLOAD DUP2 LT PUSH2 0x2285 JUMPI PUSH2 0x2285 PUSH2 0x4FDF JUMP JUMPDEST PUSH1 0x20 MUL PUSH1 0x20 ADD ADD MLOAD DUP4 PUSH2 0x2298 SWAP2 SWAP1 PUSH2 0x4FB0 JUMP JUMPDEST SWAP3 POP JUMPDEST DUP9 PUSH20 0x0 PUSH4 0x7071133E SWAP1 SWAP2 DUP4 PUSH1 0x40 ADD MLOAD PUSH1 0x0 DUP2 MLOAD DUP2 LT PUSH2 0x22CF JUMPI PUSH2 0x22CF PUSH2 0x4FDF JUMP JUMPDEST PUSH1 0x20 MUL PUSH1 0x20 ADD ADD MLOAD DUP5 PUSH1 0x60 ADD MLOAD PUSH1 0x40 MLOAD DUP5 PUSH4 0xFFFFFFFF AND PUSH1 0xE0 SHL DUP2 MSTORE PUSH1 0x4 ADD PUSH2 0x22FA SWAP4 SWAP3 SWAP2 SWAP1 PUSH2 0x56DC JUMP JUMPDEST PUSH1 0x0 PUSH1 0x40 MLOAD DUP1 DUP4 SUB DUP2 DUP7 GAS DELEGATECALL ISZERO DUP1 ISZERO PUSH2 0x2317 JUMPI RETURNDATASIZE PUSH1 0x0 DUP1 RETURNDATACOPY RETURNDATASIZE PUSH1 0x0 REVERT JUMPDEST POP POP POP POP PUSH1 0x40 MLOAD RETURNDATASIZE PUSH1 0x0 DUP3 RETURNDATACOPY PUSH1 0x1F RETURNDATASIZE SWAP1 DUP2 ADD PUSH1 0x1F NOT AND DUP3 ADD PUSH1 0x40 MSTORE PUSH2 0x233F SWAP2 SWAP1 DUP2 ADD SWAP1 PUSH2 0x56EF JUMP JUMPDEST PUSH1 0x60 DUP1 DUP8 ADD MLOAD SWAP1 DUP4 ADD MLOAD PUSH1 0x40 MLOAD PUSH4 0xBF07928F PUSH1 0xE0 SHL DUP2 MSTORE SWAP3 SWAP12 POP PUSH20 0x0 SWAP3 PUSH4 0xBF07928F SWAP3 PUSH2 0x2383 SWAP3 SWAP1 SWAP2 PUSH1 0x4 ADD PUSH2 0x57A4 JUMP JUMPDEST PUSH1 0x0 PUSH1 0x40 MLOAD DUP1 DUP4 SUB DUP2 DUP7 GAS DELEGATECALL ISZERO DUP1 ISZERO PUSH2 0x23A0 JUMPI RETURNDATASIZE PUSH1 0x0 DUP1 RETURNDATACOPY RETURNDATASIZE PUSH1 0x0 REVERT JUMPDEST POP POP POP POP PUSH1 0x40 MLOAD RETURNDATASIZE PUSH1 0x0 DUP3 RETURNDATACOPY PUSH1 0x1F RETURNDATASIZE SWAP1 DUP2 ADD PUSH1 0x1F NOT AND DUP3 ADD PUSH1 0x40 MSTORE PUSH2 0x23C8 SWAP2 SWAP1 DUP2 ADD SWAP1 PUSH2 0x57C9 JUMP JUMPDEST PUSH1 0x60 DUP7 ADD MSTORE DUP12 MLOAD DUP6 MSTORE PUSH1 0xA0 DUP14 ADD MLOAD ISZERO PUSH2 0x2444 JUMPI DUP13 PUSH1 0xA0 ADD MLOAD DUP4 LT PUSH2 0x242E JUMPI PUSH1 0x40 MLOAD PUSH3 0x461BCD PUSH1 0xE5 SHL DUP2 MSTORE PUSH1 0x20 PUSH1 0x4 DUP3 ADD MSTORE PUSH1 0x1F PUSH1 0x24 DUP3 ADD MSTORE PUSH32 0x696620286D6178636F756E743E3D7461726765745F2E6D6178636F756E742900 PUSH1 0x44 DUP3 ADD MSTORE PUSH1 0x64 ADD PUSH2 0x6A8 JUMP JUMPDEST DUP3 DUP14 PUSH1 0xA0 ADD MLOAD PUSH2 0x243E SWAP2 SWAP1 PUSH2 0x4FB0 JUMP JUMPDEST PUSH1 0xA0 DUP8 ADD MSTORE JUMPDEST PUSH1 0x40 DUP14 ADD MLOAD ISZERO PUSH2 0x24B9 JUMPI PUSH1 0x40 DUP14 ADD MLOAD DUP2 MLOAD LT PUSH2 0x24A2 JUMPI PUSH1 0x40 MLOAD PUSH3 0x461BCD PUSH1 0xE5 SHL DUP2 MSTORE PUSH1 0x20 PUSH1 0x4 DUP3 ADD MSTORE PUSH1 0x1E PUSH1 0x24 DUP3 ADD MSTORE PUSH32 0x6966202873656C65637465642E7174793E3D7461726765745F2E717479290000 PUSH1 0x44 DUP3 ADD MSTORE PUSH1 0x64 ADD PUSH2 0x6A8 JUMP JUMPDEST DUP1 MLOAD PUSH1 0x40 DUP15 ADD MLOAD PUSH2 0x24B3 SWAP2 SWAP1 PUSH2 0x4FB0 JUMP JUMPDEST PUSH1 0x40 DUP8 ADD MSTORE JUMPDEST PUSH1 0x40 DUP13 ADD MLOAD ISZERO PUSH2 0x255C JUMPI PUSH1 0x0 PUSH8 0xDE0B6B3A7640000 DUP12 PUSH1 0x20 ADD MLOAD PUSH1 0x20 ADD MLOAD DUP13 PUSH1 0x0 ADD MLOAD PUSH2 0x24E6 SWAP2 SWAP1 PUSH2 0x5032 JUMP JUMPDEST PUSH2 0x24F0 SWAP2 SWAP1 PUSH2 0x5010 JUMP JUMPDEST SWAP1 POP DUP13 PUSH1 0x40 ADD MLOAD DUP2 LT PUSH2 0x2545 JUMPI PUSH1 0x40 MLOAD PUSH3 0x461BCD PUSH1 0xE5 SHL DUP2 MSTORE PUSH1 0x20 PUSH1 0x4 DUP3 ADD MSTORE PUSH1 0x1F PUSH1 0x24 DUP3 ADD MSTORE PUSH32 0x69662028746F74616C3E3D7365617263686172675F2E6D6178746F74616C2900 PUSH1 0x44 DUP3 ADD MSTORE PUSH1 0x64 ADD PUSH2 0x6A8 JUMP JUMPDEST DUP1 DUP14 PUSH1 0x40 ADD MLOAD PUSH2 0x2555 SWAP2 SWAP1 PUSH2 0x4FB0 JUMP JUMPDEST PUSH1 0x40 DUP8 ADD MSTORE POP JUMPDEST POP POP PUSH2 0x1E02 JUMP JUMPDEST POP POP POP POP POP POP SWAP5 POP SWAP5 SWAP3 POP POP POP JUMP JUMPDEST PUSH2 0x257A PUSH2 0x45AC JUMP JUMPDEST PUSH1 0x0 DUP4 DUP2 MSTORE PUSH1 0x5 PUSH1 0x20 DUP2 DUP2 MSTORE PUSH1 0x40 DUP1 DUP5 KECCAK256 DUP2 MLOAD PUSH2 0x180 DUP2 ADD DUP4 MSTORE DUP2 SLOAD DUP2 MSTORE PUSH1 0x1 DUP3 ADD SLOAD PUSH1 0x1 PUSH1 0x1 PUSH1 0xA0 SHL SUB DUP2 AND SWAP5 DUP3 ADD SWAP5 SWAP1 SWAP5 MSTORE SWAP4 SWAP1 SWAP3 SWAP2 DUP5 ADD SWAP2 PUSH1 0x1 PUSH1 0xA0 SHL SWAP1 DIV PUSH1 0xFF AND SWAP1 DUP2 GT ISZERO PUSH2 0x25CF JUMPI PUSH2 0x25CF PUSH2 0x4D22 JUMP JUMPDEST PUSH1 0x5 DUP2 GT ISZERO PUSH2 0x25E0 JUMPI PUSH2 0x25E0 PUSH2 0x4D22 JUMP JUMPDEST DUP2 MSTORE PUSH1 0x1 DUP3 ADD SLOAD PUSH1 0x1 PUSH1 0xA8 SHL SWAP1 DIV PUSH1 0xFF AND PUSH1 0x20 DUP3 ADD MSTORE PUSH1 0x2 DUP3 ADD SLOAD PUSH1 0x40 DUP1 DUP4 ADD SWAP2 SWAP1 SWAP2 MSTORE PUSH1 0x3 DUP4 ADD SLOAD PUSH1 0x1 PUSH1 0x1 PUSH1 0x40 SHL SUB DUP1 DUP3 AND PUSH1 0x60 DUP6 ADD MSTORE PUSH9 0x10000000000000000 DUP1 DUP4 DIV DUP3 AND PUSH1 0x80 DUP7 ADD MSTORE PUSH1 0x1 PUSH1 0x80 SHL DUP1 DUP5 DIV DUP4 AND PUSH1 0xA0 DUP8 ADD MSTORE PUSH1 0x1 PUSH1 0xC0 SHL SWAP1 SWAP4 DIV DUP3 AND PUSH1 0xC0 DUP7 ADD MSTORE PUSH1 0x4 SWAP6 DUP7 ADD SLOAD DUP1 DUP4 AND PUSH1 0xE0 DUP8 ADD MSTORE SWAP1 DUP2 DIV DUP3 AND PUSH2 0x100 DUP7 ADD MSTORE SWAP2 SWAP1 SWAP2 DIV AND PUSH2 0x120 SWAP1 SWAP3 ADD SWAP2 SWAP1 SWAP2 MSTORE DUP3 MLOAD SWAP1 MLOAD PUSH4 0x657C7E09 PUSH1 0xE0 SHL DUP2 MSTORE SWAP2 DUP3 ADD MSTORE SWAP1 SWAP2 POP PUSH32 0x0 PUSH1 0x1 PUSH1 0x1 PUSH1 0xA0 SHL SUB AND SWAP1 PUSH4 0x657C7E09 SWAP1 PUSH1 0x24 ADD PUSH1 0x40 DUP1 MLOAD DUP1 DUP4 SUB DUP2 DUP7 GAS STATICCALL ISZERO DUP1 ISZERO PUSH2 0x26D8 JUMPI RETURNDATASIZE PUSH1 0x0 DUP1 RETURNDATACOPY RETURNDATASIZE PUSH1 0x0 REVERT JUMPDEST POP POP POP POP PUSH1 0x40 MLOAD RETURNDATASIZE PUSH1 0x1F NOT PUSH1 0x1F DUP3 ADD AND DUP3 ADD DUP1 PUSH1 0x40 MSTORE POP DUP2 ADD SWAP1 PUSH2 0x26FC SWAP2 SWAP1 PUSH2 0x57FD JUMP JUMPDEST PUSH1 0x40 DUP5 ADD MSTORE PUSH1 0x20 DUP4 ADD MSTORE PUSH1 0x80 DUP2 ADD MLOAD PUSH1 0x60 DUP4 ADD MSTORE DUP3 DUP1 PUSH2 0x2795 JUMPI POP PUSH1 0x60 DUP2 ADD MLOAD PUSH1 0x40 MLOAD PUSH4 0x36181B67 PUSH1 0xE1 SHL DUP2 MSTORE PUSH1 0xFF SWAP1 SWAP2 AND PUSH1 0x4 DUP3 ADD MSTORE PUSH20 0x0 SWAP1 PUSH4 0x6C3036CE SWAP1 PUSH1 0x24 ADD PUSH1 0x20 PUSH1 0x40 MLOAD DUP1 DUP4 SUB DUP2 DUP7 GAS DELEGATECALL ISZERO DUP1 ISZERO PUSH2 0x276F JUMPI RETURNDATASIZE PUSH1 0x0 DUP1 RETURNDATACOPY RETURNDATASIZE PUSH1 0x0 REVERT JUMPDEST POP POP POP POP PUSH1 0x40 MLOAD RETURNDATASIZE PUSH1 0x1F NOT PUSH1 0x1F DUP3 ADD AND DUP3 ADD DUP1 PUSH1 0x40 MSTORE POP DUP2 ADD SWAP1 PUSH2 0x2793 SWAP2 SWAP1 PUSH2 0x4F64 JUMP JUMPDEST ISZERO JUMPDEST ISZERO PUSH2 0x2C18 JUMPI PUSH1 0x20 DUP2 ADD MLOAD PUSH1 0x1 PUSH1 0x1 PUSH1 0xA0 SHL SUB AND DUP3 MSTORE PUSH1 0xA0 DUP2 ADD MLOAD PUSH2 0x27B8 SWAP1 PUSH2 0x10A8 JUMP JUMPDEST PUSH1 0x80 DUP4 ADD MSTORE PUSH1 0x60 DUP2 ADD MLOAD PUSH1 0x40 MLOAD PUSH4 0x2B2076E3 PUSH1 0xE1 SHL DUP2 MSTORE PUSH1 0xFF SWAP1 SWAP2 AND PUSH1 0x4 DUP3 ADD MSTORE PUSH20 0x0 SWAP1 PUSH4 0x5640EDC6 SWAP1 PUSH1 0x24 ADD PUSH1 0x20 PUSH1 0x40 MLOAD DUP1 DUP4 SUB DUP2 DUP7 GAS DELEGATECALL ISZERO DUP1 ISZERO PUSH2 0x2815 JUMPI RETURNDATASIZE PUSH1 0x0 DUP1 RETURNDATACOPY RETURNDATASIZE PUSH1 0x0 REVERT JUMPDEST POP POP POP POP PUSH1 0x40 MLOAD RETURNDATASIZE PUSH1 0x1F NOT PUSH1 0x1F DUP3 ADD AND DUP3 ADD DUP1 PUSH1 0x40 MSTORE POP DUP2 ADD SWAP1 PUSH2 0x2839 SWAP2 SWAP1 PUSH2 0x4F64 JUMP JUMPDEST ISZERO PUSH2 0x284D JUMPI PUSH1 0x80 DUP3 ADD MLOAD PUSH1 0xA0 DUP4 ADD MSTORE PUSH2 0x2999 JUMP JUMPDEST PUSH2 0x120 DUP2 ADD MLOAD PUSH1 0x1 PUSH1 0x1 PUSH1 0x40 SHL SUB AND ISZERO PUSH2 0x2879 JUMPI PUSH2 0x286F DUP2 PUSH2 0x120 ADD MLOAD PUSH2 0x10A8 JUMP JUMPDEST PUSH1 0xA0 DUP4 ADD MSTORE PUSH2 0x2999 JUMP JUMPDEST PUSH1 0x40 MLOAD PUSH4 0x23AA9AB PUSH1 0xE6 SHL DUP2 MSTORE PUSH32 0xCD775F2396F9F13F12BCF8CA32E21DF66559A8ADC3944D0591127E7731F7AB85 PUSH1 0x4 DUP3 ADD MSTORE PUSH32 0x0 PUSH1 0x1 PUSH1 0x1 PUSH1 0xA0 SHL SUB AND SWAP1 PUSH4 0x8EAA6AC0 SWAP1 PUSH1 0x24 ADD PUSH1 0x20 PUSH1 0x40 MLOAD DUP1 DUP4 SUB DUP2 DUP7 GAS STATICCALL ISZERO DUP1 ISZERO PUSH2 0x28FD JUMPI RETURNDATASIZE PUSH1 0x0 DUP1 RETURNDATACOPY RETURNDATASIZE PUSH1 0x0 REVERT JUMPDEST POP POP POP POP PUSH1 0x40 MLOAD RETURNDATASIZE PUSH1 0x1F NOT PUSH1 0x1F DUP3 ADD AND DUP3 ADD DUP1 PUSH1 0x40 MSTORE POP DUP2 ADD SWAP1 PUSH2 0x2921 SWAP2 SWAP1 PUSH2 0x50F6 JUMP JUMPDEST PUSH1 0x1 PUSH1 0x1 PUSH1 0xA0 SHL SUB AND PUSH4 0xA9BF9858 DUP4 PUSH1 0x20 ADD MLOAD PUSH1 0x40 MLOAD DUP3 PUSH4 0xFFFFFFFF AND PUSH1 0xE0 SHL DUP2 MSTORE PUSH1 0x4 ADD PUSH2 0x2952 SWAP2 DUP2 MSTORE PUSH1 0x20 ADD SWAP1 JUMP JUMPDEST PUSH1 0x20 PUSH1 0x40 MLOAD DUP1 DUP4 SUB DUP2 DUP7 GAS STATICCALL ISZERO DUP1 ISZERO PUSH2 0x296F JUMPI RETURNDATASIZE PUSH1 0x0 DUP1 RETURNDATACOPY RETURNDATASIZE PUSH1 0x0 REVERT JUMPDEST POP POP POP POP PUSH1 0x40 MLOAD RETURNDATASIZE PUSH1 0x1F NOT PUSH1 0x1F DUP3 ADD AND DUP3 ADD DUP1 PUSH1 0x40 MSTORE POP DUP2 ADD SWAP1 PUSH2 0x2993 SWAP2 SWAP1 PUSH2 0x4F81 JUMP JUMPDEST PUSH1 0xA0 DUP4 ADD MSTORE JUMPDEST PUSH2 0x29A6 DUP2 PUSH1 0xC0 ADD MLOAD PUSH2 0x10A8 JUMP JUMPDEST PUSH1 0xC0 DUP4 ADD MSTORE PUSH1 0xE0 DUP2 ADD MLOAD PUSH2 0x29B9 SWAP1 PUSH2 0x10A8 JUMP JUMPDEST PUSH1 0xE0 DUP4 ADD MSTORE PUSH1 0x60 DUP2 ADD MLOAD PUSH1 0x40 MLOAD PUSH4 0x5B7D0F69 PUSH1 0xE1 SHL DUP2 MSTORE PUSH1 0xFF SWAP1 SWAP2 AND PUSH1 0x4 DUP3 ADD MSTORE PUSH20 0x0 SWAP1 PUSH4 0xB6FA1ED2 SWAP1 PUSH1 0x24 ADD PUSH1 0x20 PUSH1 0x40 MLOAD DUP1 DUP4 SUB DUP2 DUP7 GAS DELEGATECALL ISZERO DUP1 ISZERO PUSH2 0x2A16 JUMPI RETURNDATASIZE PUSH1 0x0 DUP1 RETURNDATACOPY RETURNDATASIZE PUSH1 0x0 REVERT JUMPDEST POP POP POP POP PUSH1 0x40 MLOAD RETURNDATASIZE PUSH1 0x1F NOT PUSH1 0x1F DUP3 ADD AND DUP3 ADD DUP1 PUSH1 0x40 MSTORE POP DUP2 ADD SWAP1 PUSH2 0x2A3A SWAP2 SWAP1 PUSH2 0x4F64 JUMP JUMPDEST ISZERO PUSH2 0x2C03 JUMPI PUSH2 0x2A4D DUP2 PUSH2 0x140 ADD MLOAD PUSH2 0x10A8 JUMP JUMPDEST PUSH2 0x120 DUP4 ADD MSTORE PUSH2 0x160 DUP2 ADD MLOAD PUSH2 0x2A62 SWAP1 PUSH2 0x10A8 JUMP JUMPDEST PUSH2 0x140 DUP4 ADD MSTORE PUSH1 0x40 MLOAD PUSH4 0x23AA9AB PUSH1 0xE6 SHL DUP2 MSTORE PUSH32 0x3CB99135F7A7C088D9085B446345038A22A85F4E8FE072B0E1B66D97243E7458 PUSH1 0x4 DUP3 ADD MSTORE PUSH1 0x0 SWAP1 PUSH32 0x0 PUSH1 0x1 PUSH1 0x1 PUSH1 0xA0 SHL SUB AND SWAP1 PUSH4 0x8EAA6AC0 SWAP1 PUSH1 0x24 ADD PUSH1 0x20 PUSH1 0x40 MLOAD DUP1 DUP4 SUB DUP2 DUP7 GAS STATICCALL ISZERO DUP1 ISZERO PUSH2 0x2AEF JUMPI RETURNDATASIZE PUSH1 0x0 DUP1 RETURNDATACOPY RETURNDATASIZE PUSH1 0x0 REVERT JUMPDEST POP POP POP POP PUSH1 0x40 MLOAD RETURNDATASIZE PUSH1 0x1F NOT PUSH1 0x1F DUP3 ADD AND DUP3 ADD DUP1 PUSH1 0x40 MSTORE POP DUP2 ADD SWAP1 PUSH2 0x2B13 SWAP2 SWAP1 PUSH2 0x50F6 JUMP JUMPDEST PUSH1 0x1 PUSH1 0x1 PUSH1 0xA0 SHL SUB AND PUSH4 0x6464B68A DUP5 PUSH1 0x20 ADD MLOAD DUP6 PUSH1 0x40 ADD MLOAD PUSH1 0x40 MLOAD DUP4 PUSH4 0xFFFFFFFF AND PUSH1 0xE0 SHL DUP2 MSTORE PUSH1 0x4 ADD PUSH2 0x2B51 SWAP3 SWAP2 SWAP1 SWAP2 DUP3 MSTORE PUSH1 0x20 DUP3 ADD MSTORE PUSH1 0x40 ADD SWAP1 JUMP JUMPDEST PUSH1 0x60 PUSH1 0x40 MLOAD DUP1 DUP4 SUB DUP2 DUP7 GAS STATICCALL ISZERO DUP1 ISZERO PUSH2 0x2B6E JUMPI RETURNDATASIZE PUSH1 0x0 DUP1 RETURNDATACOPY RETURNDATASIZE PUSH1 0x0 REVERT JUMPDEST POP POP POP POP PUSH1 0x40 MLOAD RETURNDATASIZE PUSH1 0x1F NOT PUSH1 0x1F DUP3 ADD AND DUP3 ADD DUP1 PUSH1 0x40 MSTORE POP DUP2 ADD SWAP1 PUSH2 0x2B92 SWAP2 SWAP1 PUSH2 0x5821 JUMP JUMPDEST POP SWAP2 POP POP DUP1 PUSH2 0x2BD7 JUMPI PUSH1 0x40 MLOAD PUSH3 0x461BCD PUSH1 0xE5 SHL DUP2 MSTORE PUSH1 0x20 PUSH1 0x4 DUP3 ADD MSTORE PUSH1 0x11 PUSH1 0x24 DUP3 ADD MSTORE PUSH17 0x145D5BDD194E88139BDD081C5D5BDD1959 PUSH1 0x7A SHL PUSH1 0x44 DUP3 ADD MSTORE PUSH1 0x64 ADD PUSH2 0x6A8 JUMP JUMPDEST PUSH2 0x140 DUP4 ADD MLOAD PUSH2 0x2BE7 SWAP1 DUP3 PUSH2 0x5010 JUMP JUMPDEST DUP4 PUSH2 0x120 ADD MLOAD PUSH2 0x2BF7 SWAP2 SWAP1 PUSH2 0x5032 JUMP JUMPDEST PUSH2 0x100 DUP5 ADD MSTORE POP PUSH2 0x2C18 JUMP JUMPDEST PUSH2 0x2C11 DUP2 PUSH2 0x100 ADD MLOAD PUSH2 0x10A8 JUMP JUMPDEST PUSH2 0x100 DUP4 ADD MSTORE JUMPDEST PUSH1 0x40 MLOAD PUSH4 0x212D6CB PUSH1 0xE2 SHL DUP2 MSTORE PUSH20 0x0 SWAP1 PUSH4 0x84B5B2C SWAP1 PUSH2 0x2C4F SWAP1 DUP5 SWAP1 PUSH1 0x4 ADD PUSH2 0x584F JUMP JUMPDEST PUSH1 0x20 PUSH1 0x40 MLOAD DUP1 DUP4 SUB DUP2 DUP7 GAS DELEGATECALL ISZERO DUP1 ISZERO PUSH2 0x2C6C JUMPI RETURNDATASIZE PUSH1 0x0 DUP1 RETURNDATACOPY RETURNDATASIZE PUSH1 0x0 REVERT JUMPDEST POP POP POP POP PUSH1 0x40 MLOAD RETURNDATASIZE PUSH1 0x1F NOT PUSH1 0x1F DUP3 ADD AND DUP3 ADD DUP1 PUSH1 0x40 MSTORE POP DUP2 ADD SWAP1 PUSH2 0x2C90 SWAP2 SWAP1 PUSH2 0x4F81 JUMP JUMPDEST PUSH2 0x160 DUP4 ADD MSTORE PUSH1 0x40 DUP2 ADD MLOAD PUSH2 0x180 DUP4 ADD SWAP1 PUSH1 0x5 DUP2 GT ISZERO PUSH2 0x2CB2 JUMPI PUSH2 0x2CB2 PUSH2 0x4D22 JUMP JUMPDEST SWAP1 DUP2 PUSH1 0x5 DUP2 GT ISZERO PUSH2 0x2CC5 JUMPI PUSH2 0x2CC5 PUSH2 0x4D22 JUMP JUMPDEST SWAP1 MSTORE POP PUSH1 0x60 ADD MLOAD PUSH1 0xFF AND PUSH2 0x1A0 DUP3 ADD MSTORE SWAP3 SWAP2 POP POP JUMP JUMPDEST PUSH1 0x0 SLOAD PUSH1 0x1 PUSH1 0x1 PUSH1 0xA0 SHL SUB PUSH3 0x10000 SWAP1 SWAP2 DIV AND CALLER EQ PUSH2 0x6B1 JUMPI PUSH1 0x40 MLOAD PUSH3 0x461BCD PUSH1 0xE5 SHL DUP2 MSTORE PUSH1 0x20 PUSH1 0x4 DUP3 ADD MSTORE PUSH1 0x1F PUSH1 0x24 DUP3 ADD MSTORE PUSH32 0x416C6C6F77616E63653A2063616C6C6572206D757374206265204F776E657200 PUSH1 0x44 DUP3 ADD MSTORE PUSH1 0x64 ADD PUSH2 0x6A8 JUMP JUMPDEST PUSH1 0x0 DUP1 SLOAD PUSH1 0x1 PUSH1 0x1 PUSH1 0xA0 SHL SUB DUP4 DUP2 AND PUSH3 0x10000 DUP2 DUP2 MUL PUSH3 0x10000 PUSH1 0x1 PUSH1 0xB0 SHL SUB NOT DUP6 AND OR DUP6 SSTORE PUSH1 0x40 MLOAD SWAP4 DIV SWAP2 SWAP1 SWAP2 AND SWAP3 SWAP1 SWAP2 DUP4 SWAP2 PUSH32 0x8BE0079C531659141344CD1FD0A4F28419497F9722A3DAAFE3B4186F6B6457E0 SWAP2 LOG3 POP POP JUMP JUMPDEST PUSH1 0x60 PUSH1 0x0 PUSH2 0x2DBF PUSH1 0x40 MLOAD DUP1 PUSH1 0x60 ADD PUSH1 0x40 MSTORE DUP1 PUSH1 0x0 DUP2 MSTORE PUSH1 0x20 ADD PUSH1 0x0 DUP2 MSTORE PUSH1 0x20 ADD PUSH1 0x0 DUP2 MSTORE POP SWAP1 JUMP JUMPDEST PUSH2 0x2DD5 DUP8 DUP8 PUSH1 0x0 ADD MLOAD DUP9 PUSH1 0xC0 ADD MLOAD PUSH1 0x0 DUP1 PUSH2 0x4070 JUMP JUMPDEST DUP1 MLOAD SWAP1 SWAP4 POP PUSH1 0x0 DUP2 PUSH1 0x1 PUSH1 0x1 PUSH1 0x40 SHL SUB DUP2 GT ISZERO PUSH2 0x2DF4 JUMPI PUSH2 0x2DF4 PUSH2 0x475F JUMP JUMPDEST PUSH1 0x40 MLOAD SWAP1 DUP1 DUP3 MSTORE DUP1 PUSH1 0x20 MUL PUSH1 0x20 ADD DUP3 ADD PUSH1 0x40 MSTORE DUP1 ISZERO PUSH2 0x2E2D JUMPI DUP2 PUSH1 0x20 ADD JUMPDEST PUSH2 0x2E1A PUSH2 0x4573 JUMP JUMPDEST DUP2 MSTORE PUSH1 0x20 ADD SWAP1 PUSH1 0x1 SWAP1 SUB SWAP1 DUP2 PUSH2 0x2E12 JUMPI SWAP1 POP JUMPDEST POP SWAP1 POP PUSH1 0x0 DUP1 JUMPDEST DUP4 DUP2 LT ISZERO PUSH2 0x317F JUMPI DUP10 PUSH1 0x0 ADD MLOAD DUP8 DUP3 DUP2 MLOAD DUP2 LT PUSH2 0x2E53 JUMPI PUSH2 0x2E53 PUSH2 0x4FDF JUMP JUMPDEST PUSH1 0x20 MUL PUSH1 0x20 ADD ADD MLOAD PUSH1 0x20 ADD MLOAD EQ PUSH2 0x2EBE JUMPI PUSH1 0x40 MLOAD PUSH3 0x461BCD PUSH1 0xE5 SHL DUP2 MSTORE PUSH1 0x20 PUSH1 0x4 DUP3 ADD MSTORE PUSH1 0x29 PUSH1 0x24 DUP3 ADD MSTORE PUSH32 0x5F5F736561726368206F75745F5B695D2E61646472203D3D207461726765745F PUSH1 0x44 DUP3 ADD MSTORE PUSH9 0x2E63757272656E6379 PUSH1 0xB8 SHL PUSH1 0x64 DUP3 ADD MSTORE PUSH1 0x84 ADD PUSH2 0x6A8 JUMP JUMPDEST DUP9 MLOAD ISZERO DUP1 ISZERO SWAP1 PUSH2 0x2EEE JUMPI POP DUP9 PUSH1 0x0 ADD MLOAD DUP8 DUP3 DUP2 MLOAD DUP2 LT PUSH2 0x2EE0 JUMPI PUSH2 0x2EE0 PUSH2 0x4FDF JUMP JUMPDEST PUSH1 0x20 MUL PUSH1 0x20 ADD ADD MLOAD PUSH1 0x80 ADD MLOAD GT JUMPDEST ISZERO PUSH2 0x2EF8 JUMPI PUSH2 0x316D JUMP JUMPDEST DUP10 PUSH1 0x20 ADD MLOAD DUP8 DUP3 DUP2 MLOAD DUP2 LT PUSH2 0x2F0F JUMPI PUSH2 0x2F0F PUSH2 0x4FDF JUMP JUMPDEST PUSH1 0x20 MUL PUSH1 0x20 ADD ADD MLOAD PUSH1 0x60 ADD MLOAD LT ISZERO PUSH2 0x2F26 JUMPI PUSH2 0x316D JUMP JUMPDEST DUP9 PUSH1 0x60 ADD MLOAD PUSH20 0x0 PUSH4 0x5640453D SWAP1 SWAP2 DUP10 DUP5 DUP2 MLOAD DUP2 LT PUSH2 0x2F59 JUMPI PUSH2 0x2F59 PUSH2 0x4FDF JUMP JUMPDEST PUSH1 0x20 MUL PUSH1 0x20 ADD ADD MLOAD PUSH1 0x0 ADD MLOAD PUSH1 0x40 MLOAD DUP4 PUSH4 0xFFFFFFFF AND PUSH1 0xE0 SHL DUP2 MSTORE PUSH1 0x4 ADD PUSH2 0x2F82 SWAP3 SWAP2 SWAP1 PUSH2 0x593E JUMP JUMPDEST PUSH1 0x20 PUSH1 0x40 MLOAD DUP1 DUP4 SUB DUP2 DUP7 GAS DELEGATECALL ISZERO DUP1 ISZERO PUSH2 0x2F9F JUMPI RETURNDATASIZE PUSH1 0x0 DUP1 RETURNDATACOPY RETURNDATASIZE PUSH1 0x0 REVERT JUMPDEST POP POP POP POP PUSH1 0x40 MLOAD RETURNDATASIZE PUSH1 0x1F NOT PUSH1 0x1F DUP3 ADD AND DUP3 ADD DUP1 PUSH1 0x40 MSTORE POP DUP2 ADD SWAP1 PUSH2 0x2FC3 SWAP2 SWAP1 PUSH2 0x4F81 JUMP JUMPDEST DUP8 DUP3 DUP2 MLOAD DUP2 LT PUSH2 0x2FD5 JUMPI PUSH2 0x2FD5 PUSH2 0x4FDF JUMP JUMPDEST PUSH1 0x20 MUL PUSH1 0x20 ADD ADD MLOAD PUSH1 0x40 ADD MLOAD LT ISZERO PUSH2 0x2FEC JUMPI PUSH2 0x316D JUMP JUMPDEST DUP7 DUP2 DUP2 MLOAD DUP2 LT PUSH2 0x2FFE JUMPI PUSH2 0x2FFE PUSH2 0x4FDF JUMP JUMPDEST PUSH1 0x20 MUL PUSH1 0x20 ADD ADD MLOAD PUSH1 0x60 ADD MLOAD DUP10 PUSH1 0x60 ADD MLOAD PUSH20 0x0 PUSH4 0x5640453D SWAP1 SWAP2 DUP11 DUP6 DUP2 MLOAD DUP2 LT PUSH2 0x303D JUMPI PUSH2 0x303D PUSH2 0x4FDF JUMP JUMPDEST PUSH1 0x20 MUL PUSH1 0x20 ADD ADD MLOAD PUSH1 0x0 ADD MLOAD PUSH1 0x40 MLOAD DUP4 PUSH4 0xFFFFFFFF AND PUSH1 0xE0 SHL DUP2 MSTORE PUSH1 0x4 ADD PUSH2 0x3066 SWAP3 SWAP2 SWAP1 PUSH2 0x593E JUMP JUMPDEST PUSH1 0x20 PUSH1 0x40 MLOAD DUP1 DUP4 SUB DUP2 DUP7 GAS DELEGATECALL ISZERO DUP1 ISZERO PUSH2 0x3083 JUMPI RETURNDATASIZE PUSH1 0x0 DUP1 RETURNDATACOPY RETURNDATASIZE PUSH1 0x0 REVERT JUMPDEST POP POP POP POP PUSH1 0x40 MLOAD RETURNDATASIZE PUSH1 0x1F NOT PUSH1 0x1F DUP3 ADD AND DUP3 ADD DUP1 PUSH1 0x40 MSTORE POP DUP2 ADD SWAP1 PUSH2 0x30A7 SWAP2 SWAP1 PUSH2 0x4F81 JUMP JUMPDEST DUP9 DUP4 DUP2 MLOAD DUP2 LT PUSH2 0x30B9 JUMPI PUSH2 0x30B9 PUSH2 0x4FDF JUMP JUMPDEST PUSH1 0x20 MUL PUSH1 0x20 ADD ADD MLOAD PUSH1 0x40 ADD MLOAD PUSH2 0x30CF SWAP2 SWAP1 PUSH2 0x4FB0 JUMP JUMPDEST LT ISZERO PUSH2 0x30DA JUMPI PUSH2 0x316D JUMP JUMPDEST DUP10 PUSH1 0xA0 ADD MLOAD PUSH1 0x1 EQ DUP1 ISZERO PUSH2 0x30F1 JUMPI POP PUSH1 0x20 DUP10 ADD MLOAD ISZERO ISZERO JUMPDEST DUP1 ISZERO PUSH2 0x311D JUMPI POP DUP9 PUSH1 0x20 ADD MLOAD DUP8 DUP3 DUP2 MLOAD DUP2 LT PUSH2 0x310F JUMPI PUSH2 0x310F PUSH2 0x4FDF JUMP JUMPDEST PUSH1 0x20 MUL PUSH1 0x20 ADD ADD MLOAD PUSH1 0x80 ADD MLOAD GT JUMPDEST ISZERO PUSH2 0x3127 JUMPI PUSH2 0x316D JUMP JUMPDEST DUP7 DUP2 DUP2 MLOAD DUP2 LT PUSH2 0x3139 JUMPI PUSH2 0x3139 PUSH2 0x4FDF JUMP JUMPDEST PUSH1 0x20 MUL PUSH1 0x20 ADD ADD MLOAD DUP4 DUP4 DUP2 MLOAD DUP2 LT PUSH2 0x3153 JUMPI PUSH2 0x3153 PUSH2 0x4FDF JUMP JUMPDEST PUSH1 0x20 MUL PUSH1 0x20 ADD ADD DUP2 SWAP1 MSTORE POP DUP2 DUP1 PUSH2 0x3169 SWAP1 PUSH2 0x4FF5 JUMP JUMPDEST SWAP3 POP POP JUMPDEST DUP1 PUSH2 0x3177 DUP2 PUSH2 0x4FF5 JUMP JUMPDEST SWAP2 POP POP PUSH2 0x2E34 JUMP JUMPDEST POP DUP2 MSTORE SWAP4 POP PUSH20 0x0 SWAP1 POP PUSH4 0xB51B8E82 DUP5 PUSH1 0x0 DUP10 DUP10 DUP3 PUSH1 0x40 MLOAD SWAP1 DUP1 DUP3 MSTORE DUP1 PUSH1 0x20 MUL PUSH1 0x20 ADD DUP3 ADD PUSH1 0x40 MSTORE DUP1 ISZERO PUSH2 0x31DF JUMPI DUP2 PUSH1 0x20 ADD JUMPDEST PUSH2 0x31CC PUSH2 0x4573 JUMP JUMPDEST DUP2 MSTORE PUSH1 0x20 ADD SWAP1 PUSH1 0x1 SWAP1 SUB SWAP1 DUP2 PUSH2 0x31C4 JUMPI SWAP1 POP JUMPDEST POP PUSH1 0x40 MLOAD DUP7 PUSH4 0xFFFFFFFF AND PUSH1 0xE0 SHL DUP2 MSTORE PUSH1 0x4 ADD PUSH2 0x3200 SWAP6 SWAP5 SWAP4 SWAP3 SWAP2 SWAP1 PUSH2 0x5993 JUMP JUMPDEST PUSH1 0x0 PUSH1 0x40 MLOAD DUP1 DUP4 SUB DUP2 DUP7 GAS DELEGATECALL ISZERO DUP1 ISZERO PUSH2 0x321D JUMPI RETURNDATASIZE PUSH1 0x0 DUP1 RETURNDATACOPY RETURNDATASIZE PUSH1 0x0 REVERT JUMPDEST POP POP POP POP PUSH1 0x40 MLOAD RETURNDATASIZE PUSH1 0x0 DUP3 RETURNDATACOPY PUSH1 0x1F RETURNDATASIZE SWAP1 DUP2 ADD PUSH1 0x1F NOT AND DUP3 ADD PUSH1 0x40 MSTORE PUSH2 0x3245 SWAP2 SWAP1 DUP2 ADD SWAP1 PUSH2 0x5A3C JUMP JUMPDEST SWAP2 SWAP5 POP SWAP3 POP SWAP1 POP DUP4 PUSH2 0x14A9 JUMPI PUSH1 0x40 MLOAD PUSH4 0x7BF5CDDB PUSH1 0xE1 SHL DUP2 MSTORE PUSH20 0x0 SWAP1 PUSH4 0xF7EB9BB6 SWAP1 PUSH2 0x3288 SWAP1 DUP7 SWAP1 PUSH1 0x4 ADD PUSH2 0x5A93 JUMP JUMPDEST PUSH1 0x0 PUSH1 0x40 MLOAD DUP1 DUP4 SUB DUP2 DUP7 GAS DELEGATECALL ISZERO DUP1 ISZERO PUSH2 0x32A5 JUMPI RETURNDATASIZE PUSH1 0x0 DUP1 RETURNDATACOPY RETURNDATASIZE PUSH1 0x0 REVERT JUMPDEST POP POP POP POP PUSH1 0x40 MLOAD RETURNDATASIZE PUSH1 0x0 DUP3 RETURNDATACOPY PUSH1 0x1F RETURNDATASIZE SWAP1 DUP2 ADD PUSH1 0x1F NOT AND DUP3 ADD PUSH1 0x40 MSTORE PUSH2 0x32CD SWAP2 SWAP1 DUP2 ADD SWAP1 PUSH2 0x57C9 JUMP JUMPDEST SWAP3 POP DUP6 PUSH1 0xA0 ADD MLOAD PUSH1 0x0 EQ ISZERO DUP1 ISZERO PUSH2 0x32E8 JUMPI POP DUP6 PUSH1 0xA0 ADD MLOAD DUP4 MLOAD GT JUMPDEST ISZERO PUSH2 0x14A9 JUMPI PUSH1 0xA0 DUP7 ADD MLOAD DUP1 DUP5 MSTORE PUSH1 0x40 MLOAD PUSH4 0x742228D7 PUSH1 0xE0 SHL DUP2 MSTORE PUSH20 0x0 SWAP1 PUSH4 0x742228D7 SWAP1 PUSH2 0x332C SWAP1 DUP8 SWAP1 PUSH1 0x4 ADD PUSH2 0x5A93 JUMP JUMPDEST PUSH1 0x80 PUSH1 0x40 MLOAD DUP1 DUP4 SUB DUP2 DUP7 GAS DELEGATECALL ISZERO DUP1 ISZERO PUSH2 0x3349 JUMPI RETURNDATASIZE PUSH1 0x0 DUP1 RETURNDATACOPY RETURNDATASIZE PUSH1 0x0 REVERT JUMPDEST POP POP POP POP PUSH1 0x40 MLOAD RETURNDATASIZE PUSH1 0x1F NOT PUSH1 0x1F DUP3 ADD AND DUP3 ADD DUP1 PUSH1 0x40 MSTORE POP DUP2 ADD SWAP1 PUSH2 0x336D SWAP2 SWAP1 PUSH2 0x5AA6 JUMP JUMPDEST SWAP1 SWAP4 POP SWAP2 POP POP SWAP5 POP SWAP5 POP SWAP5 SWAP2 POP POP JUMP JUMPDEST PUSH1 0x0 DUP3 DUP2 MSTORE PUSH1 0x1 PUSH1 0x20 SWAP1 DUP2 MSTORE PUSH1 0x40 DUP1 DUP4 KECCAK256 DUP1 SLOAD DUP3 MLOAD DUP2 DUP6 MUL DUP2 ADD DUP6 ADD SWAP1 SWAP4 MSTORE DUP1 DUP4 MSTORE PUSH1 0x60 SWAP5 SWAP4 DUP4 ADD DUP3 DUP3 DUP1 ISZERO PUSH2 0x33D2 JUMPI PUSH1 0x20 MUL DUP3 ADD SWAP2 SWAP1 PUSH1 0x0 MSTORE PUSH1 0x20 PUSH1 0x0 KECCAK256 SWAP1 JUMPDEST DUP2 SLOAD DUP2 MSTORE PUSH1 0x20 ADD SWAP1 PUSH1 0x1 ADD SWAP1 DUP1 DUP4 GT PUSH2 0x33BE JUMPI JUMPDEST POP POP POP POP POP SWAP1 POP PUSH1 0x0 DUP2 MLOAD GT PUSH2 0x342A JUMPI PUSH1 0x40 MLOAD PUSH3 0x461BCD PUSH1 0xE5 SHL DUP2 MSTORE PUSH1 0x20 PUSH1 0x4 DUP3 ADD MSTORE PUSH1 0x1B PUSH1 0x24 DUP3 ADD MSTORE PUSH32 0x5F706174684C6973742066726F6D706174682E6C656E6774683E300000000000 PUSH1 0x44 DUP3 ADD MSTORE PUSH1 0x64 ADD PUSH2 0x6A8 JUMP JUMPDEST DUP1 MLOAD PUSH1 0x1 PUSH1 0x1 PUSH1 0x40 SHL SUB DUP2 GT ISZERO PUSH2 0x3443 JUMPI PUSH2 0x3443 PUSH2 0x475F JUMP JUMPDEST PUSH1 0x40 MLOAD SWAP1 DUP1 DUP3 MSTORE DUP1 PUSH1 0x20 MUL PUSH1 0x20 ADD DUP3 ADD PUSH1 0x40 MSTORE DUP1 ISZERO PUSH2 0x3476 JUMPI DUP2 PUSH1 0x20 ADD JUMPDEST PUSH1 0x60 DUP2 MSTORE PUSH1 0x20 ADD SWAP1 PUSH1 0x1 SWAP1 SUB SWAP1 DUP2 PUSH2 0x3461 JUMPI SWAP1 POP JUMPDEST POP SWAP2 POP PUSH1 0x0 DUP1 JUMPDEST DUP3 MLOAD DUP2 LT ISZERO PUSH2 0x3721 JUMPI PUSH32 0x0 PUSH1 0x1 PUSH1 0x1 PUSH1 0xA0 SHL SUB AND PUSH4 0x38A699A4 DUP5 DUP4 DUP2 MLOAD DUP2 LT PUSH2 0x34C7 JUMPI PUSH2 0x34C7 PUSH2 0x4FDF JUMP JUMPDEST PUSH1 0x20 MUL PUSH1 0x20 ADD ADD MLOAD PUSH1 0x40 MLOAD DUP3 PUSH4 0xFFFFFFFF AND PUSH1 0xE0 SHL DUP2 MSTORE PUSH1 0x4 ADD PUSH2 0x34ED SWAP2 DUP2 MSTORE PUSH1 0x20 ADD SWAP1 JUMP JUMPDEST PUSH1 0x20 PUSH1 0x40 MLOAD DUP1 DUP4 SUB DUP2 DUP7 GAS STATICCALL ISZERO DUP1 ISZERO PUSH2 0x350A JUMPI RETURNDATASIZE PUSH1 0x0 DUP1 RETURNDATACOPY RETURNDATASIZE PUSH1 0x0 REVERT JUMPDEST POP POP POP POP PUSH1 0x40 MLOAD RETURNDATASIZE PUSH1 0x1F NOT PUSH1 0x1F DUP3 ADD AND DUP3 ADD DUP1 PUSH1 0x40 MSTORE POP DUP2 ADD SWAP1 PUSH2 0x352E SWAP2 SWAP1 PUSH2 0x4F64 JUMP JUMPDEST PUSH2 0x3537 JUMPI PUSH2 0x370F JUMP JUMPDEST PUSH1 0x0 PUSH32 0x0 PUSH1 0x1 PUSH1 0x1 PUSH1 0xA0 SHL SUB AND PUSH4 0x27EE9DC2 DUP6 DUP5 DUP2 MLOAD DUP2 LT PUSH2 0x357A JUMPI PUSH2 0x357A PUSH2 0x4FDF JUMP JUMPDEST PUSH1 0x20 MUL PUSH1 0x20 ADD ADD MLOAD PUSH1 0x40 MLOAD DUP3 PUSH4 0xFFFFFFFF AND PUSH1 0xE0 SHL DUP2 MSTORE PUSH1 0x4 ADD PUSH2 0x35A0 SWAP2 DUP2 MSTORE PUSH1 0x20 ADD SWAP1 JUMP JUMPDEST PUSH1 0x0 PUSH1 0x40 MLOAD DUP1 DUP4 SUB DUP2 DUP7 GAS STATICCALL ISZERO DUP1 ISZERO PUSH2 0x35BD JUMPI RETURNDATASIZE PUSH1 0x0 DUP1 RETURNDATACOPY RETURNDATASIZE PUSH1 0x0 REVERT JUMPDEST POP POP POP POP PUSH1 0x40 MLOAD RETURNDATASIZE PUSH1 0x0 DUP3 RETURNDATACOPY PUSH1 0x1F RETURNDATASIZE SWAP1 DUP2 ADD PUSH1 0x1F NOT AND DUP3 ADD PUSH1 0x40 MSTORE PUSH2 0x35E5 SWAP2 SWAP1 DUP2 ADD SWAP1 PUSH2 0x50C2 JUMP JUMPDEST SWAP1 POP PUSH1 0x0 DUP2 MLOAD GT PUSH2 0x3632 JUMPI PUSH1 0x40 MLOAD PUSH3 0x461BCD PUSH1 0xE5 SHL DUP2 MSTORE PUSH1 0x20 PUSH1 0x4 DUP3 ADD MSTORE PUSH1 0x17 PUSH1 0x24 DUP3 ADD MSTORE PUSH23 0x5F706174684C69737420706174682E6C656E6774683E3 PUSH1 0x4C SHL PUSH1 0x44 DUP3 ADD MSTORE PUSH1 0x64 ADD PUSH2 0x6A8 JUMP JUMPDEST DUP6 DUP2 PUSH1 0x1 DUP4 MLOAD PUSH2 0x3642 SWAP2 SWAP1 PUSH2 0x4FB0 JUMP JUMPDEST DUP2 MLOAD DUP2 LT PUSH2 0x3652 JUMPI PUSH2 0x3652 PUSH2 0x4FDF JUMP JUMPDEST PUSH1 0x20 MUL PUSH1 0x20 ADD ADD MLOAD EQ PUSH2 0x3665 JUMPI POP PUSH2 0x370F JUMP JUMPDEST PUSH1 0x0 JUMPDEST PUSH1 0x1 DUP3 MLOAD PUSH2 0x3676 SWAP2 SWAP1 PUSH2 0x4FB0 JUMP JUMPDEST DUP2 LT ISZERO PUSH2 0x36C7 JUMPI PUSH2 0x36AC PUSH20 0x0 PUSH4 0x76254FF9 DUP5 DUP5 DUP2 MLOAD DUP2 LT PUSH2 0xED4 JUMPI PUSH2 0xED4 PUSH2 0x4FDF JUMP JUMPDEST PUSH2 0x36B5 JUMPI PUSH2 0x36C7 JUMP JUMPDEST DUP1 PUSH2 0x36BF DUP2 PUSH2 0x4FF5 JUMP JUMPDEST SWAP2 POP POP PUSH2 0x3668 JUMP JUMPDEST PUSH1 0x1 DUP3 MLOAD PUSH2 0x36D5 SWAP2 SWAP1 PUSH2 0x4FB0 JUMP JUMPDEST DUP2 LT ISZERO PUSH2 0x36E3 JUMPI POP POP PUSH2 0x370F JUMP JUMPDEST DUP2 DUP7 DUP6 PUSH2 0x36EF DUP2 PUSH2 0x4FF5 JUMP JUMPDEST SWAP7 POP DUP2 MLOAD DUP2 LT PUSH2 0x3701 JUMPI PUSH2 0x3701 PUSH2 0x4FDF JUMP JUMPDEST PUSH1 0x20 MUL PUSH1 0x20 ADD ADD DUP2 SWAP1 MSTORE POP POP POP JUMPDEST DUP1 PUSH2 0x3719 DUP2 PUSH2 0x4FF5 JUMP JUMPDEST SWAP2 POP POP PUSH2 0x347D JUMP JUMPDEST POP DUP1 DUP4 MSTORE PUSH1 0x0 DUP2 GT PUSH2 0x3769 JUMPI PUSH1 0x40 MLOAD PUSH3 0x461BCD PUSH1 0xE5 SHL DUP2 MSTORE PUSH1 0x20 PUSH1 0x4 DUP3 ADD MSTORE PUSH1 0x11 PUSH1 0x24 DUP3 ADD MSTORE PUSH17 0x5F706174684C69737420636F756E743E3 PUSH1 0x7C SHL PUSH1 0x44 DUP3 ADD MSTORE PUSH1 0x64 ADD PUSH2 0x6A8 JUMP JUMPDEST POP POP SWAP3 SWAP2 POP POP JUMP JUMPDEST PUSH2 0x3779 PUSH2 0x4529 JUMP JUMPDEST PUSH1 0x2 DUP6 MLOAD LT ISZERO PUSH2 0x37D7 JUMPI PUSH1 0x40 MLOAD PUSH3 0x461BCD PUSH1 0xE5 SHL DUP2 MSTORE PUSH1 0x20 PUSH1 0x4 DUP3 ADD MSTORE PUSH1 0x23 PUSH1 0x24 DUP3 ADD MSTORE PUSH32 0x5F5F73656172636843466F6C6C6F775061746820706174685F2E6C656E677468 PUSH1 0x44 DUP3 ADD MSTORE PUSH3 0x1F1E99 PUSH1 0xE9 SHL PUSH1 0x64 DUP3 ADD MSTORE PUSH1 0x84 ADD PUSH2 0x6A8 JUMP JUMPDEST DUP4 MLOAD DUP6 MLOAD DUP7 SWAP1 PUSH2 0x37E9 SWAP1 PUSH1 0x1 SWAP1 PUSH2 0x4FB0 JUMP JUMPDEST DUP2 MLOAD DUP2 LT PUSH2 0x37F9 JUMPI PUSH2 0x37F9 PUSH2 0x4FDF JUMP JUMPDEST PUSH1 0x20 MUL PUSH1 0x20 ADD ADD MLOAD EQ PUSH2 0x3874 JUMPI PUSH1 0x40 MLOAD PUSH3 0x461BCD PUSH1 0xE5 SHL DUP2 MSTORE PUSH1 0x20 PUSH1 0x4 DUP3 ADD MSTORE PUSH1 0x3D PUSH1 0x24 DUP3 ADD MSTORE PUSH32 0x5F5F73656172636843466F6C6C6F775061746820706174685F5B706174685F2E PUSH1 0x44 DUP3 ADD MSTORE PUSH32 0x6C656E677468202D20315D3D3D7461726765745F2E63757272656E6379000000 PUSH1 0x64 DUP3 ADD MSTORE PUSH1 0x84 ADD PUSH2 0x6A8 JUMP JUMPDEST PUSH1 0x60 PUSH2 0x387E PUSH2 0x465A JUMP JUMPDEST DUP7 MLOAD PUSH1 0x2 EQ ISZERO PUSH2 0x3984 JUMPI PUSH2 0x38BB DUP8 PUSH1 0x2 DUP10 MLOAD PUSH2 0x389A SWAP2 SWAP1 PUSH2 0x4FB0 JUMP JUMPDEST DUP2 MLOAD DUP2 LT PUSH2 0x38AA JUMPI PUSH2 0x38AA PUSH2 0x4FDF JUMP JUMPDEST PUSH1 0x20 MUL PUSH1 0x20 ADD ADD MLOAD DUP8 DUP8 PUSH1 0x0 PUSH2 0x2D97 JUMP JUMPDEST PUSH1 0x40 DUP5 ADD MSTORE PUSH1 0x20 DUP4 ADD MSTORE DUP1 MLOAD PUSH1 0x80 DUP4 ADD MSTORE DUP8 MLOAD SWAP1 SWAP3 POP PUSH20 0x0 SWAP1 PUSH4 0x2FBF1F93 SWAP1 DUP4 SWAP1 DUP11 SWAP1 PUSH2 0x38FD SWAP1 PUSH1 0x2 SWAP1 PUSH2 0x4FB0 JUMP JUMPDEST DUP2 MLOAD DUP2 LT PUSH2 0x390D JUMPI PUSH2 0x390D PUSH2 0x4FDF JUMP JUMPDEST PUSH1 0x20 MUL PUSH1 0x20 ADD ADD MLOAD DUP10 PUSH1 0x0 ADD MLOAD PUSH1 0x40 MLOAD DUP5 PUSH4 0xFFFFFFFF AND PUSH1 0xE0 SHL DUP2 MSTORE PUSH1 0x4 ADD PUSH2 0x3938 SWAP4 SWAP3 SWAP2 SWAP1 PUSH2 0x5AD3 JUMP JUMPDEST PUSH1 0x0 PUSH1 0x40 MLOAD DUP1 DUP4 SUB DUP2 DUP7 GAS DELEGATECALL ISZERO DUP1 ISZERO PUSH2 0x3955 JUMPI RETURNDATASIZE PUSH1 0x0 DUP1 RETURNDATACOPY RETURNDATASIZE PUSH1 0x0 REVERT JUMPDEST POP POP POP POP PUSH1 0x40 MLOAD RETURNDATASIZE PUSH1 0x0 DUP3 RETURNDATACOPY PUSH1 0x1F RETURNDATASIZE SWAP1 DUP2 ADD PUSH1 0x1F NOT AND DUP3 ADD PUSH1 0x40 MSTORE PUSH2 0x397D SWAP2 SWAP1 DUP2 ADD SWAP1 PUSH2 0x5AF8 JUMP JUMPDEST SWAP1 POP PUSH2 0x3FE3 JUMP JUMPDEST PUSH1 0x40 DUP6 ADD MLOAD PUSH1 0x1 JUMPDEST PUSH1 0x1 DUP10 MLOAD PUSH2 0x399A SWAP2 SWAP1 PUSH2 0x4FB0 JUMP JUMPDEST DUP2 LT ISZERO PUSH2 0x3B57 JUMPI PUSH1 0x0 PUSH2 0x3A8F DUP11 PUSH2 0x39B2 PUSH1 0x1 DUP6 PUSH2 0x4FB0 JUMP JUMPDEST DUP2 MLOAD DUP2 LT PUSH2 0x39C2 JUMPI PUSH2 0x39C2 PUSH2 0x4FDF JUMP JUMPDEST PUSH1 0x20 MUL PUSH1 0x20 ADD ADD MLOAD PUSH1 0x40 MLOAD DUP1 PUSH1 0xE0 ADD PUSH1 0x40 MSTORE DUP1 DUP14 DUP7 DUP2 MLOAD DUP2 LT PUSH2 0x39E7 JUMPI PUSH2 0x39E7 PUSH2 0x4FDF JUMP JUMPDEST PUSH1 0x20 MUL PUSH1 0x20 ADD ADD MLOAD DUP2 MSTORE PUSH1 0x20 ADD PUSH1 0x0 DUP2 MSTORE PUSH1 0x20 ADD PUSH1 0x0 DUP2 MSTORE PUSH1 0x20 ADD PUSH1 0x0 ISZERO ISZERO DUP2 MSTORE PUSH1 0x20 ADD PUSH1 0x0 ISZERO ISZERO DUP2 MSTORE PUSH1 0x20 ADD PUSH1 0x0 DUP2 MSTORE PUSH1 0x20 ADD PUSH1 0x0 PUSH1 0x1 PUSH1 0x1 PUSH1 0x40 SHL SUB DUP2 GT ISZERO PUSH2 0x3A34 JUMPI PUSH2 0x3A34 PUSH2 0x475F JUMP JUMPDEST PUSH1 0x40 MLOAD SWAP1 DUP1 DUP3 MSTORE DUP1 PUSH1 0x20 MUL PUSH1 0x20 ADD DUP3 ADD PUSH1 0x40 MSTORE DUP1 ISZERO PUSH2 0x3A5D JUMPI DUP2 PUSH1 0x20 ADD PUSH1 0x20 DUP3 MUL DUP1 CALLDATASIZE DUP4 CALLDATACOPY ADD SWAP1 POP JUMPDEST POP DUP2 MSTORE POP PUSH1 0x40 MLOAD DUP1 PUSH1 0x80 ADD PUSH1 0x40 MSTORE DUP1 PUSH1 0x0 DUP2 MSTORE PUSH1 0x20 ADD PUSH1 0x0 DUP2 MSTORE PUSH1 0x20 ADD DUP8 DUP2 MSTORE PUSH1 0x20 ADD DUP13 PUSH1 0x60 ADD MLOAD DUP2 MSTORE POP PUSH1 0x1 PUSH2 0x2D97 JUMP JUMPDEST POP SWAP2 POP POP DUP1 PUSH2 0x3AA2 JUMPI POP POP POP POP POP PUSH2 0x4068 JUMP JUMPDEST DUP7 PUSH20 0x0 PUSH4 0xE23EDBEF SWAP1 SWAP2 DUP13 DUP6 DUP2 MLOAD DUP2 LT PUSH2 0x3AD1 JUMPI PUSH2 0x3AD1 PUSH2 0x4FDF JUMP JUMPDEST PUSH1 0x20 MUL PUSH1 0x20 ADD ADD MLOAD PUSH1 0x40 MLOAD DUP4 PUSH4 0xFFFFFFFF AND PUSH1 0xE0 SHL DUP2 MSTORE PUSH1 0x4 ADD PUSH2 0x3AF6 SWAP3 SWAP2 SWAP1 PUSH2 0x5B2C JUMP JUMPDEST PUSH1 0x20 PUSH1 0x40 MLOAD DUP1 DUP4 SUB DUP2 DUP7 GAS DELEGATECALL ISZERO DUP1 ISZERO PUSH2 0x3B13 JUMPI RETURNDATASIZE PUSH1 0x0 DUP1 RETURNDATACOPY RETURNDATASIZE PUSH1 0x0 REVERT JUMPDEST POP POP POP POP PUSH1 0x40 MLOAD RETURNDATASIZE PUSH1 0x1F NOT PUSH1 0x1F DUP3 ADD AND DUP3 ADD DUP1 PUSH1 0x40 MSTORE POP DUP2 ADD SWAP1 PUSH2 0x3B37 SWAP2 SWAP1 PUSH2 0x4F81 JUMP JUMPDEST PUSH2 0x3B41 SWAP1 DUP3 PUSH2 0x4FC7 JUMP JUMPDEST SWAP3 POP POP DUP1 DUP1 PUSH2 0x3B4F SWAP1 PUSH2 0x4FF5 JUMP JUMPDEST SWAP2 POP POP PUSH2 0x398C JUMP JUMPDEST POP PUSH2 0x3BB1 DUP9 PUSH1 0x2 DUP11 MLOAD PUSH2 0x3B6A SWAP2 SWAP1 PUSH2 0x4FB0 JUMP JUMPDEST DUP2 MLOAD DUP2 LT PUSH2 0x3B7A JUMPI PUSH2 0x3B7A PUSH2 0x4FDF JUMP JUMPDEST PUSH1 0x20 MUL PUSH1 0x20 ADD ADD MLOAD DUP9 PUSH1 0x40 MLOAD DUP1 PUSH1 0x80 ADD PUSH1 0x40 MSTORE DUP1 PUSH1 0x0 DUP2 MSTORE PUSH1 0x20 ADD PUSH1 0x0 DUP2 MSTORE PUSH1 0x20 ADD DUP6 DUP2 MSTORE PUSH1 0x20 ADD DUP11 PUSH1 0x60 ADD MLOAD DUP2 MSTORE POP PUSH1 0x0 PUSH2 0x2D97 JUMP JUMPDEST PUSH1 0x40 DUP6 ADD MSTORE PUSH1 0x20 DUP5 ADD DUP2 SWAP1 MSTORE SWAP1 SWAP4 POP PUSH2 0x3BCC JUMPI POP POP POP PUSH2 0x4068 JUMP JUMPDEST DUP3 MLOAD PUSH1 0x80 DUP4 ADD MSTORE DUP8 MLOAD PUSH20 0x0 SWAP1 PUSH4 0x2FBF1F93 SWAP1 DUP5 SWAP1 DUP12 SWAP1 PUSH2 0x3C01 SWAP1 PUSH1 0x2 SWAP1 PUSH2 0x4FB0 JUMP JUMPDEST DUP2 MLOAD DUP2 LT PUSH2 0x3C11 JUMPI PUSH2 0x3C11 PUSH2 0x4FDF JUMP JUMPDEST PUSH1 0x20 MUL PUSH1 0x20 ADD ADD MLOAD DUP11 PUSH1 0x0 ADD MLOAD PUSH1 0x40 MLOAD DUP5 PUSH4 0xFFFFFFFF AND PUSH1 0xE0 SHL DUP2 MSTORE PUSH1 0x4 ADD PUSH2 0x3C3C SWAP4 SWAP3 SWAP2 SWAP1 PUSH2 0x5AD3 JUMP JUMPDEST PUSH1 0x0 PUSH1 0x40 MLOAD DUP1 DUP4 SUB DUP2 DUP7 GAS DELEGATECALL ISZERO DUP1 ISZERO PUSH2 0x3C59 JUMPI RETURNDATASIZE PUSH1 0x0 DUP1 RETURNDATACOPY RETURNDATASIZE PUSH1 0x0 REVERT JUMPDEST POP POP POP POP PUSH1 0x40 MLOAD RETURNDATASIZE PUSH1 0x0 DUP3 RETURNDATACOPY PUSH1 0x1F RETURNDATASIZE SWAP1 DUP2 ADD PUSH1 0x1F NOT AND DUP3 ADD PUSH1 0x40 MSTORE PUSH2 0x3C81 SWAP2 SWAP1 DUP2 ADD SWAP1 PUSH2 0x5AF8 JUMP JUMPDEST SWAP2 POP PUSH8 0xDE0B6B3A7640000 DUP3 PUSH1 0x40 ADD MLOAD PUSH1 0x20 ADD MLOAD DUP4 PUSH1 0x20 ADD MLOAD PUSH2 0x3CA4 SWAP2 SWAP1 PUSH2 0x5032 JUMP JUMPDEST PUSH2 0x3CAE SWAP2 SWAP1 PUSH2 0x5010 JUMP JUMPDEST SWAP1 POP PUSH1 0x0 PUSH1 0x2 DUP10 MLOAD PUSH2 0x3CC0 SWAP2 SWAP1 PUSH2 0x4FB0 JUMP JUMPDEST SWAP1 POP JUMPDEST DUP1 ISZERO PUSH2 0x3FE0 JUMPI PUSH1 0x60 PUSH2 0x3CD3 PUSH2 0x465A JUMP JUMPDEST PUSH2 0x3CDB PUSH2 0x46B2 JUMP JUMPDEST PUSH2 0x3D06 PUSH1 0x40 MLOAD DUP1 PUSH1 0x80 ADD PUSH1 0x40 MSTORE DUP1 PUSH1 0x0 DUP2 MSTORE PUSH1 0x20 ADD PUSH1 0x0 DUP2 MSTORE PUSH1 0x20 ADD PUSH1 0x0 DUP2 MSTORE PUSH1 0x20 ADD PUSH1 0x60 DUP2 MSTORE POP SWAP1 JUMP JUMPDEST DUP13 DUP6 DUP2 MLOAD DUP2 LT PUSH2 0x3D18 JUMPI PUSH2 0x3D18 PUSH2 0x4FDF JUMP JUMPDEST PUSH1 0x20 MUL PUSH1 0x20 ADD ADD MLOAD DUP3 PUSH1 0x0 ADD DUP2 DUP2 MSTORE POP POP DUP10 PUSH20 0x0 PUSH4 0xE23EDBEF SWAP1 SWAP2 DUP16 DUP9 DUP2 MLOAD DUP2 LT PUSH2 0x3D58 JUMPI PUSH2 0x3D58 PUSH2 0x4FDF JUMP JUMPDEST PUSH1 0x20 MUL PUSH1 0x20 ADD ADD MLOAD PUSH1 0x40 MLOAD DUP4 PUSH4 0xFFFFFFFF AND PUSH1 0xE0 SHL DUP2 MSTORE PUSH1 0x4 ADD PUSH2 0x3D7D SWAP3 SWAP2 SWAP1 PUSH2 0x5B2C JUMP JUMPDEST PUSH1 0x20 PUSH1 0x40 MLOAD DUP1 DUP4 SUB DUP2 DUP7 GAS DELEGATECALL ISZERO DUP1 ISZERO PUSH2 0x3D9A JUMPI RETURNDATASIZE PUSH1 0x0 DUP1 RETURNDATACOPY RETURNDATASIZE PUSH1 0x0 REVERT JUMPDEST POP POP POP POP PUSH1 0x40 MLOAD RETURNDATASIZE PUSH1 0x1F NOT PUSH1 0x1F DUP3 ADD AND DUP3 ADD DUP1 PUSH1 0x40 MSTORE POP DUP2 ADD SWAP1 PUSH2 0x3DBE SWAP2 SWAP1 PUSH2 0x4F81 JUMP JUMPDEST PUSH2 0x3DC8 SWAP1 DUP8 PUSH2 0x4FB0 JUMP JUMPDEST PUSH1 0x40 DUP4 ADD MSTORE PUSH1 0x1 PUSH1 0x60 DUP1 DUP5 ADD DUP3 SWAP1 MSTORE DUP13 DUP2 ADD MLOAD SWAP1 DUP4 ADD MSTORE PUSH2 0x3E10 SWAP1 DUP15 SWAP1 PUSH2 0x3DEF SWAP1 DUP9 PUSH2 0x4FB0 JUMP JUMPDEST DUP2 MLOAD DUP2 LT PUSH2 0x3DFF JUMPI PUSH2 0x3DFF PUSH2 0x4FDF JUMP JUMPDEST PUSH1 0x20 MUL PUSH1 0x20 ADD ADD MLOAD DUP4 DUP4 PUSH1 0x0 PUSH2 0x2D97 JUMP JUMPDEST PUSH1 0x40 DUP7 ADD MSTORE PUSH1 0x20 DUP6 ADD DUP2 SWAP1 MSTORE SWAP1 SWAP5 POP ISZERO ISZERO SWAP2 POP PUSH2 0x3E34 SWAP1 POP JUMPI POP POP POP POP POP POP PUSH2 0x4068 JUMP JUMPDEST PUSH8 0xDE0B6B3A7640000 DUP2 PUSH1 0x40 ADD MLOAD PUSH1 0x20 ADD MLOAD DUP3 PUSH1 0x20 ADD MLOAD PUSH2 0x3E55 SWAP2 SWAP1 PUSH2 0x5032 JUMP JUMPDEST PUSH2 0x3E5F SWAP2 SWAP1 PUSH2 0x5010 JUMP JUMPDEST SWAP4 POP PUSH20 0x0 PUSH4 0x50308EDE DUP7 DUP9 DUP15 PUSH2 0x3E89 PUSH1 0x1 DUP10 PUSH2 0x4FB0 JUMP JUMPDEST DUP2 MLOAD DUP2 LT PUSH2 0x3E99 JUMPI PUSH2 0x3E99 PUSH2 0x4FDF JUMP JUMPDEST PUSH1 0x20 MUL PUSH1 0x20 ADD ADD MLOAD DUP7 PUSH1 0x40 MLOAD DUP6 PUSH4 0xFFFFFFFF AND PUSH1 0xE0 SHL DUP2 MSTORE PUSH1 0x4 ADD PUSH2 0x3EC1 SWAP5 SWAP4 SWAP3 SWAP2 SWAP1 PUSH2 0x5B3F JUMP JUMPDEST PUSH1 0x0 PUSH1 0x40 MLOAD DUP1 DUP4 SUB DUP2 DUP7 GAS DELEGATECALL ISZERO DUP1 ISZERO PUSH2 0x3EDE JUMPI RETURNDATASIZE PUSH1 0x0 DUP1 RETURNDATACOPY RETURNDATASIZE PUSH1 0x0 REVERT JUMPDEST POP POP POP POP PUSH1 0x40 MLOAD RETURNDATASIZE PUSH1 0x0 DUP3 RETURNDATACOPY PUSH1 0x1F RETURNDATASIZE SWAP1 DUP2 ADD PUSH1 0x1F NOT AND DUP3 ADD PUSH1 0x40 MSTORE PUSH2 0x3F06 SWAP2 SWAP1 DUP2 ADD SWAP1 PUSH2 0x5B7E JUMP JUMPDEST PUSH1 0x40 DUP1 DUP5 ADD MLOAD MLOAD SWAP1 DUP4 ADD MLOAD MLOAD SWAP2 SWAP9 POP SWAP2 SWAP7 POP PUSH8 0xDE0B6B3A7640000 SWAP2 PUSH2 0x3F2B SWAP2 PUSH2 0x5032 JUMP JUMPDEST PUSH2 0x3F35 SWAP2 SWAP1 PUSH2 0x5010 JUMP JUMPDEST PUSH1 0x40 DUP1 DUP8 ADD DUP1 MLOAD SWAP3 SWAP1 SWAP3 MSTORE DUP3 DUP2 ADD MLOAD DUP2 ADD MLOAD SWAP2 MLOAD ADD MLOAD PUSH8 0xDE0B6B3A7640000 SWAP2 PUSH2 0x3F5E SWAP2 PUSH2 0x5032 JUMP JUMPDEST PUSH2 0x3F68 SWAP2 SWAP1 PUSH2 0x5010 JUMP JUMPDEST DUP6 PUSH1 0x40 ADD MLOAD PUSH1 0x40 ADD DUP2 DUP2 MSTORE POP POP PUSH8 0xDE0B6B3A7640000 DUP6 PUSH1 0x20 ADD MLOAD DUP3 PUSH1 0x40 ADD MLOAD PUSH1 0x20 ADD MLOAD DUP4 PUSH1 0x20 ADD MLOAD PUSH2 0x3F9B SWAP2 SWAP1 PUSH2 0x5032 JUMP JUMPDEST PUSH2 0x3FA5 SWAP2 SWAP1 PUSH2 0x5010 JUMP JUMPDEST DUP7 PUSH1 0x40 ADD MLOAD PUSH1 0x20 ADD MLOAD PUSH2 0x3FB8 SWAP2 SWAP1 PUSH2 0x5032 JUMP JUMPDEST PUSH2 0x3FC2 SWAP2 SWAP1 PUSH2 0x5010 JUMP JUMPDEST PUSH1 0x40 DUP7 ADD MLOAD PUSH1 0x20 ADD MSTORE POP DUP2 SWAP1 POP PUSH2 0x3FD8 DUP2 PUSH2 0x5BE1 JUMP JUMPDEST SWAP2 POP POP PUSH2 0x3CC3 JUMP JUMPDEST POP POP JUMPDEST PUSH1 0x40 MLOAD PUSH4 0x7513CE1B PUSH1 0xE0 SHL DUP2 MSTORE PUSH20 0x0 SWAP1 PUSH4 0x7513CE1B SWAP1 PUSH2 0x401E SWAP1 DUP7 SWAP1 DUP6 SWAP1 DUP8 SWAP1 PUSH1 0x4 ADD PUSH2 0x5370 JUMP JUMPDEST PUSH1 0x0 PUSH1 0x40 MLOAD DUP1 DUP4 SUB DUP2 DUP7 GAS DELEGATECALL ISZERO DUP1 ISZERO PUSH2 0x403B JUMPI RETURNDATASIZE PUSH1 0x0 DUP1 RETURNDATACOPY RETURNDATASIZE PUSH1 0x0 REVERT JUMPDEST POP POP POP POP PUSH1 0x40 MLOAD RETURNDATASIZE PUSH1 0x0 DUP3 RETURNDATACOPY PUSH1 0x1F RETURNDATASIZE SWAP1 DUP2 ADD PUSH1 0x1F NOT AND DUP3 ADD PUSH1 0x40 MSTORE PUSH2 0x4063 SWAP2 SWAP1 DUP2 ADD SWAP1 PUSH2 0x559D JUMP JUMPDEST SWAP3 POP POP POP JUMPDEST SWAP5 SWAP4 POP POP POP POP JUMP JUMPDEST PUSH1 0x60 PUSH1 0x0 DUP1 PUSH1 0x0 PUSH1 0x6 PUSH1 0x0 PUSH20 0x0 PUSH4 0x76254FF9 DUP13 DUP13 PUSH1 0x40 MLOAD DUP4 PUSH4 0xFFFFFFFF AND PUSH1 0xE0 SHL DUP2 MSTORE PUSH1 0x4 ADD PUSH2 0x40BD SWAP3 SWAP2 SWAP1 SWAP2 DUP3 MSTORE PUSH1 0x20 DUP3 ADD MSTORE PUSH1 0x40 ADD SWAP1 JUMP JUMPDEST PUSH1 0x20 PUSH1 0x40 MLOAD DUP1 DUP4 SUB DUP2 DUP7 GAS DELEGATECALL ISZERO DUP1 ISZERO PUSH2 0x40DA JUMPI RETURNDATASIZE PUSH1 0x0 DUP1 RETURNDATACOPY RETURNDATASIZE PUSH1 0x0 REVERT JUMPDEST POP POP POP POP PUSH1 0x40 MLOAD RETURNDATASIZE PUSH1 0x1F NOT PUSH1 0x1F DUP3 ADD AND DUP3 ADD DUP1 PUSH1 0x40 MSTORE POP DUP2 ADD SWAP1 PUSH2 0x40FE SWAP2 SWAP1 PUSH2 0x4F81 JUMP JUMPDEST DUP2 MSTORE PUSH1 0x20 DUP2 ADD SWAP2 SWAP1 SWAP2 MSTORE PUSH1 0x40 ADD PUSH1 0x0 KECCAK256 DUP1 SLOAD SWAP1 SWAP2 POP DUP6 PUSH2 0x411C JUMPI DUP1 SWAP6 POP JUMPDEST DUP6 PUSH1 0x1 PUSH1 0x1 PUSH1 0x40 SHL SUB DUP2 GT ISZERO PUSH2 0x4134 JUMPI PUSH2 0x4134 PUSH2 0x475F JUMP JUMPDEST PUSH1 0x40 MLOAD SWAP1 DUP1 DUP3 MSTORE DUP1 PUSH1 0x20 MUL PUSH1 0x20 ADD DUP3 ADD PUSH1 0x40 MSTORE DUP1 ISZERO PUSH2 0x416D JUMPI DUP2 PUSH1 0x20 ADD JUMPDEST PUSH2 0x415A PUSH2 0x4573 JUMP JUMPDEST DUP2 MSTORE PUSH1 0x20 ADD SWAP1 PUSH1 0x1 SWAP1 SUB SWAP1 DUP2 PUSH2 0x4152 JUMPI SWAP1 POP JUMPDEST POP SWAP5 POP PUSH1 0x0 JUMPDEST DUP2 DUP2 LT ISZERO PUSH2 0x451A JUMPI DUP7 DUP5 LT PUSH2 0x4187 JUMPI PUSH2 0x451A JUMP JUMPDEST PUSH1 0x0 PUSH1 0x5 PUSH1 0x0 DUP6 DUP5 DUP2 SLOAD DUP2 LT PUSH2 0x419F JUMPI PUSH2 0x419F PUSH2 0x4FDF JUMP JUMPDEST SWAP1 PUSH1 0x0 MSTORE PUSH1 0x20 PUSH1 0x0 KECCAK256 ADD SLOAD DUP2 MSTORE PUSH1 0x20 ADD SWAP1 DUP2 MSTORE PUSH1 0x20 ADD PUSH1 0x0 KECCAK256 SWAP1 POP PUSH20 0x0 PUSH4 0x84B5B2C DUP3 PUSH1 0x40 MLOAD DUP3 PUSH4 0xFFFFFFFF AND PUSH1 0xE0 SHL DUP2 MSTORE PUSH1 0x4 ADD PUSH2 0x41F1 SWAP2 SWAP1 PUSH2 0x5CD3 JUMP JUMPDEST PUSH1 0x20 PUSH1 0x40 MLOAD DUP1 DUP4 SUB DUP2 DUP7 GAS DELEGATECALL ISZERO DUP1 ISZERO PUSH2 0x420E JUMPI RETURNDATASIZE PUSH1 0x0 DUP1 RETURNDATACOPY RETURNDATASIZE PUSH1 0x0 REVERT JUMPDEST POP POP POP POP PUSH1 0x40 MLOAD RETURNDATASIZE PUSH1 0x1F NOT PUSH1 0x1F DUP3 ADD AND DUP3 ADD DUP1 PUSH1 0x40 MSTORE POP DUP2 ADD SWAP1 PUSH2 0x4232 SWAP2 SWAP1 PUSH2 0x4F81 JUMP JUMPDEST ISZERO DUP1 PUSH2 0x42B6 JUMPI POP PUSH1 0x40 MLOAD PUSH4 0x212D6CB PUSH1 0xE2 SHL DUP2 MSTORE TIMESTAMP SWAP1 PUSH20 0x0 SWAP1 PUSH4 0x84B5B2C SWAP1 PUSH2 0x4272 SWAP1 DUP6 SWAP1 PUSH1 0x4 ADD PUSH2 0x5CD3 JUMP JUMPDEST PUSH1 0x20 PUSH1 0x40 MLOAD DUP1 DUP4 SUB DUP2 DUP7 GAS DELEGATECALL ISZERO DUP1 ISZERO PUSH2 0x428F JUMPI RETURNDATASIZE PUSH1 0x0 DUP1 RETURNDATACOPY RETURNDATASIZE PUSH1 0x0 REVERT JUMPDEST POP POP POP POP PUSH1 0x40 MLOAD RETURNDATASIZE PUSH1 0x1F NOT PUSH1 0x1F DUP3 ADD AND DUP3 ADD DUP1 PUSH1 0x40 MSTORE POP DUP2 ADD SWAP1 PUSH2 0x42B3 SWAP2 SWAP1 PUSH2 0x4F81 JUMP JUMPDEST LT ISZERO JUMPDEST DUP1 ISZERO PUSH2 0x43D3 JUMPI POP PUSH1 0x40 MLOAD PUSH4 0x23AA9AB PUSH1 0xE6 SHL DUP2 MSTORE PUSH32 0x33FFBDFF3A4282DF4353F3593B78D26AAF4C28B5786164F828858505BC5E301C PUSH1 0x4 DUP3 ADD MSTORE PUSH32 0x0 PUSH1 0x1 PUSH1 0x1 PUSH1 0xA0 SHL SUB AND SWAP1 PUSH4 0x8EAA6AC0 SWAP1 PUSH1 0x24 ADD PUSH1 0x20 PUSH1 0x40 MLOAD DUP1 DUP4 SUB DUP2 DUP7 GAS STATICCALL ISZERO DUP1 ISZERO PUSH2 0x4341 JUMPI RETURNDATASIZE PUSH1 0x0 DUP1 RETURNDATACOPY RETURNDATASIZE PUSH1 0x0 REVERT JUMPDEST POP POP POP POP PUSH1 0x40 MLOAD RETURNDATASIZE PUSH1 0x1F NOT PUSH1 0x1F DUP3 ADD AND DUP3 ADD DUP1 PUSH1 0x40 MSTORE POP DUP2 ADD SWAP1 PUSH2 0x4365 SWAP2 SWAP1 PUSH2 0x50F6 JUMP JUMPDEST PUSH1 0x1 PUSH1 0x1 PUSH1 0xA0 SHL SUB AND PUSH4 0x5ACA1641 DUP3 DUP13 PUSH1 0x40 MLOAD DUP4 PUSH4 0xFFFFFFFF AND PUSH1 0xE0 SHL DUP2 MSTORE PUSH1 0x4 ADD PUSH2 0x4392 SWAP3 SWAP2 SWAP1 PUSH2 0x5CE2 JUMP JUMPDEST PUSH1 0x20 PUSH1 0x40 MLOAD DUP1 DUP4 SUB DUP2 DUP7 GAS STATICCALL ISZERO DUP1 ISZERO PUSH2 0x43AF JUMPI RETURNDATASIZE PUSH1 0x0 DUP1 RETURNDATACOPY RETURNDATASIZE PUSH1 0x0 REVERT JUMPDEST POP POP POP POP PUSH1 0x40 MLOAD RETURNDATASIZE PUSH1 0x1F NOT PUSH1 0x1F DUP3 ADD AND DUP3 ADD DUP1 PUSH1 0x40 MSTORE POP DUP2 ADD SWAP1 PUSH2 0x43D3 SWAP2 SWAP1 PUSH2 0x4F64 JUMP JUMPDEST ISZERO PUSH2 0x4506 JUMPI DUP6 PUSH2 0x43E2 DUP2 PUSH2 0x4FF5 JUMP JUMPDEST SWAP7 POP POP DUP9 DUP7 GT PUSH2 0x43F2 JUMPI POP PUSH2 0x4508 JUMP JUMPDEST PUSH1 0x0 PUSH2 0x441B DUP6 DUP5 DUP2 SLOAD DUP2 LT PUSH2 0x4409 JUMPI PUSH2 0x4409 PUSH2 0x4FDF JUMP JUMPDEST SWAP1 PUSH1 0x0 MSTORE PUSH1 0x20 PUSH1 0x0 KECCAK256 ADD SLOAD PUSH1 0x1 PUSH2 0x2572 JUMP JUMPDEST SWAP1 POP DUP1 PUSH1 0xA0 ADD MLOAD DUP2 PUSH1 0x80 ADD MLOAD LT ISZERO PUSH2 0x4434 JUMPI POP POP PUSH2 0x4508 JUMP JUMPDEST DUP1 PUSH1 0x60 ADD MLOAD DUP9 DUP8 DUP2 MLOAD DUP2 LT PUSH2 0x444B JUMPI PUSH2 0x444B PUSH2 0x4FDF JUMP JUMPDEST PUSH1 0x20 MUL PUSH1 0x20 ADD ADD MLOAD PUSH1 0x0 ADD DUP2 DUP2 MSTORE POP POP DUP1 PUSH1 0x40 ADD MLOAD DUP9 DUP8 DUP2 MLOAD DUP2 LT PUSH2 0x4472 JUMPI PUSH2 0x4472 PUSH2 0x4FDF JUMP JUMPDEST PUSH1 0x20 MUL PUSH1 0x20 ADD ADD MLOAD PUSH1 0x20 ADD DUP2 DUP2 MSTORE POP POP DUP1 PUSH1 0xA0 ADD MLOAD DUP9 DUP8 DUP2 MLOAD DUP2 LT PUSH2 0x4499 JUMPI PUSH2 0x4499 PUSH2 0x4FDF JUMP JUMPDEST PUSH1 0x20 MUL PUSH1 0x20 ADD ADD MLOAD PUSH1 0x60 ADD DUP2 DUP2 MSTORE POP POP DUP1 PUSH1 0x80 ADD MLOAD DUP9 DUP8 DUP2 MLOAD DUP2 LT PUSH2 0x44C0 JUMPI PUSH2 0x44C0 PUSH2 0x4FDF JUMP JUMPDEST PUSH1 0x20 MUL PUSH1 0x20 ADD ADD MLOAD PUSH1 0x40 ADD DUP2 DUP2 MSTORE POP POP DUP1 PUSH2 0x100 ADD MLOAD DUP9 DUP8 DUP2 MLOAD DUP2 LT PUSH2 0x44E8 JUMPI PUSH2 0x44E8 PUSH2 0x4FDF JUMP JUMPDEST PUSH1 0x20 SWAP1 DUP2 MUL SWAP2 SWAP1 SWAP2 ADD ADD MLOAD PUSH1 0x80 ADD MSTORE DUP6 PUSH2 0x4501 DUP2 PUSH2 0x4FF5 JUMP JUMPDEST SWAP7 POP POP POP JUMPDEST POP JUMPDEST DUP1 PUSH2 0x4512 DUP2 PUSH2 0x4FF5 JUMP JUMPDEST SWAP2 POP POP PUSH2 0x4173 JUMP JUMPDEST POP POP POP DUP3 MSTORE POP SWAP6 SWAP5 POP POP POP POP POP JUMP JUMPDEST PUSH1 0x40 MLOAD DUP1 PUSH1 0x80 ADD PUSH1 0x40 MSTORE DUP1 PUSH1 0x0 DUP2 MSTORE PUSH1 0x20 ADD PUSH2 0x455F PUSH1 0x40 MLOAD DUP1 PUSH1 0x60 ADD PUSH1 0x40 MSTORE DUP1 PUSH1 0x0 DUP2 MSTORE PUSH1 0x20 ADD PUSH1 0x0 DUP2 MSTORE PUSH1 0x20 ADD PUSH1 0x0 DUP2 MSTORE POP SWAP1 JUMP JUMPDEST DUP2 MSTORE PUSH1 0x20 ADD PUSH1 0x60 DUP2 MSTORE PUSH1 0x20 ADD PUSH1 0x60 DUP2 MSTORE POP SWAP1 JUMP JUMPDEST PUSH1 0x40 MLOAD DUP1 PUSH1 0xC0 ADD PUSH1 0x40 MSTORE DUP1 PUSH1 0x0 DUP2 MSTORE PUSH1 0x20 ADD PUSH1 0x0 DUP1 NOT AND DUP2 MSTORE PUSH1 0x20 ADD PUSH1 0x0 DUP2 MSTORE PUSH1 0x20 ADD PUSH1 0x0 DUP2 MSTORE PUSH1 0x20 ADD PUSH1 0x0 DUP2 MSTORE PUSH1 0x20 ADD PUSH1 0x60 DUP2 MSTORE POP SWAP1 JUMP JUMPDEST PUSH1 0x40 MLOAD DUP1 PUSH2 0x1C0 ADD PUSH1 0x40 MSTORE DUP1 PUSH1 0x0 PUSH1 0x1 PUSH1 0x1 PUSH1 0xA0 SHL SUB AND DUP2 MSTORE PUSH1 0x20 ADD PUSH1 0x0 DUP1 NOT AND DUP2 MSTORE PUSH1 0x20 ADD PUSH1 0x0 DUP1 NOT AND DUP2 MSTORE PUSH1 0x20 ADD PUSH1 0x0 DUP2 MSTORE PUSH1 0x20 ADD PUSH1 0x0 DUP2 MSTORE PUSH1 0x20 ADD PUSH1 0x0 DUP2 MSTORE PUSH1 0x20 ADD PUSH1 0x0 DUP2 MSTORE PUSH1 0x20 ADD PUSH1 0x0 DUP2 MSTORE PUSH1 0x20 ADD PUSH1 0x0 DUP2 MSTORE PUSH1 0x20 ADD PUSH1 0x0 DUP2 MSTORE PUSH1 0x20 ADD PUSH1 0x0 DUP2 MSTORE PUSH1 0x20 ADD PUSH1 0x0 DUP2 MSTORE PUSH1 0x20 ADD PUSH1 0x0 PUSH1 0x5 DUP2 GT ISZERO PUSH2 0x462E JUMPI PUSH2 0x462E PUSH2 0x4D22 JUMP JUMPDEST DUP2 MSTORE PUSH1 0x0 PUSH1 0x20 SWAP1 SWAP2 ADD MSTORE SWAP1 JUMP JUMPDEST PUSH1 0x40 MLOAD DUP1 PUSH2 0x500 ADD PUSH1 0x40 MSTORE DUP1 PUSH1 0x28 SWAP1 PUSH1 0x20 DUP3 MUL DUP1 CALLDATASIZE DUP4 CALLDATACOPY POP SWAP2 SWAP3 SWAP2 POP POP JUMP JUMPDEST PUSH1 0x40 MLOAD DUP1 PUSH1 0xC0 ADD PUSH1 0x40 MSTORE DUP1 PUSH1 0x60 DUP2 MSTORE PUSH1 0x20 ADD PUSH1 0x0 DUP2 MSTORE PUSH1 0x20 ADD PUSH2 0x4697 PUSH1 0x40 MLOAD DUP1 PUSH1 0x60 ADD PUSH1 0x40 MSTORE DUP1 PUSH1 0x0 DUP2 MSTORE PUSH1 0x20 ADD PUSH1 0x0 DUP2 MSTORE PUSH1 0x20 ADD PUSH1 0x0 DUP2 MSTORE POP SWAP1 JUMP JUMPDEST DUP2 MSTORE PUSH1 0x20 ADD PUSH1 0x0 DUP2 MSTORE PUSH1 0x20 ADD PUSH1 0x0 DUP2 MSTORE PUSH1 0x20 ADD PUSH1 0x60 DUP2 MSTORE POP SWAP1 JUMP JUMPDEST PUSH1 0x40 MLOAD DUP1 PUSH1 0xE0 ADD PUSH1 0x40 MSTORE DUP1 PUSH1 0x0 DUP1 NOT AND DUP2 MSTORE PUSH1 0x20 ADD PUSH1 0x0 DUP2 MSTORE PUSH1 0x20 ADD PUSH1 0x0 DUP2 MSTORE PUSH1 0x20 ADD PUSH1 0x0 ISZERO ISZERO DUP2 MSTORE PUSH1 0x20 ADD PUSH1 0x0 ISZERO ISZERO DUP2 MSTORE PUSH1 0x20 ADD PUSH1 0x0 DUP2 MSTORE PUSH1 0x20 ADD PUSH1 0x60 DUP2 MSTORE POP SWAP1 JUMP JUMPDEST PUSH1 0x0 DUP1 DUP6 DUP6 GT ISZERO PUSH2 0x4706 JUMPI PUSH1 0x0 DUP1 REVERT JUMPDEST DUP4 DUP7 GT ISZERO PUSH2 0x4713 JUMPI PUSH1 0x0 DUP1 REVERT JUMPDEST POP POP DUP3 ADD SWAP4 SWAP2 SWAP1 SWAP3 SUB SWAP2 POP JUMP JUMPDEST PUSH1 0x0 PUSH1 0x20 DUP3 DUP5 SUB SLT ISZERO PUSH2 0x4732 JUMPI PUSH1 0x0 DUP1 REVERT JUMPDEST DUP2 CALLDATALOAD PUSH1 0x1 PUSH1 0x1 PUSH1 0xE0 SHL SUB NOT DUP2 AND DUP2 EQ PUSH2 0xBCC JUMPI PUSH1 0x0 DUP1 REVERT JUMPDEST PUSH1 0x1 PUSH1 0x1 PUSH1 0xA0 SHL SUB DUP2 AND DUP2 EQ PUSH2 0x1B30 JUMPI PUSH1 0x0 DUP1 REVERT JUMPDEST PUSH4 0x4E487B71 PUSH1 0xE0 SHL PUSH1 0x0 MSTORE PUSH1 0x41 PUSH1 0x4 MSTORE PUSH1 0x24 PUSH1 0x0 REVERT JUMPDEST PUSH1 0x40 MLOAD PUSH1 0xC0 DUP2 ADD PUSH1 0x1 PUSH1 0x1 PUSH1 0x40 SHL SUB DUP2 GT DUP3 DUP3 LT OR ISZERO PUSH2 0x4797 JUMPI PUSH2 0x4797 PUSH2 0x475F JUMP JUMPDEST PUSH1 0x40 MSTORE SWAP1 JUMP JUMPDEST PUSH1 0x40 MLOAD PUSH1 0x80 DUP2 ADD PUSH1 0x1 PUSH1 0x1 PUSH1 0x40 SHL SUB DUP2 GT DUP3 DUP3 LT OR ISZERO PUSH2 0x4797 JUMPI PUSH2 0x4797 PUSH2 0x475F JUMP JUMPDEST PUSH1 0x40 DUP1 MLOAD SWAP1 DUP2 ADD PUSH1 0x1 PUSH1 0x1 PUSH1 0x40 SHL SUB DUP2 GT DUP3 DUP3 LT OR ISZERO PUSH2 0x4797 JUMPI PUSH2 0x4797 PUSH2 0x475F JUMP JUMPDEST PUSH1 0x40 MLOAD PUSH1 0x1F DUP3 ADD PUSH1 0x1F NOT AND DUP2 ADD PUSH1 0x1 PUSH1 0x1 PUSH1 0x40 SHL SUB DUP2 GT DUP3 DUP3 LT OR ISZERO PUSH2 0x4809 JUMPI PUSH2 0x4809 PUSH2 0x475F JUMP JUMPDEST PUSH1 0x40 MSTORE SWAP2 SWAP1 POP JUMP JUMPDEST DUP1 ISZERO ISZERO DUP2 EQ PUSH2 0x1B30 JUMPI PUSH1 0x0 DUP1 REVERT JUMPDEST DUP1 CALLDATALOAD PUSH2 0x482A DUP2 PUSH2 0x4811 JUMP JUMPDEST SWAP2 SWAP1 POP JUMP JUMPDEST PUSH1 0x0 PUSH2 0x100 DUP1 DUP4 DUP6 SUB SLT ISZERO PUSH2 0x4843 JUMPI PUSH1 0x0 DUP1 REVERT JUMPDEST PUSH1 0x40 MLOAD SWAP1 DUP2 ADD SWAP1 PUSH1 0x1 PUSH1 0x1 PUSH1 0x40 SHL SUB DUP3 GT DUP2 DUP4 LT OR ISZERO PUSH2 0x4865 JUMPI PUSH2 0x4865 PUSH2 0x475F JUMP JUMPDEST PUSH1 0x40 SWAP2 DUP3 MSTORE DUP4 CALLDATALOAD DUP2 MSTORE PUSH1 0x20 DUP1 DUP6 ADD CALLDATALOAD SWAP1 DUP3 ADD MSTORE SWAP2 POP DUP3 ADD CALLDATALOAD DUP2 PUSH2 0x4887 DUP3 PUSH2 0x4811 JUMP JUMPDEST DUP2 PUSH1 0x40 DUP3 ADD MSTORE PUSH2 0x4899 PUSH1 0x60 DUP6 ADD PUSH2 0x481F JUMP JUMPDEST PUSH1 0x60 DUP3 ADD MSTORE PUSH1 0x80 DUP5 ADD CALLDATALOAD PUSH1 0x80 DUP3 ADD MSTORE PUSH1 0xA0 DUP5 ADD CALLDATALOAD PUSH1 0xA0 DUP3 ADD MSTORE PUSH1 0xC0 DUP5 ADD CALLDATALOAD PUSH1 0xC0 DUP3 ADD MSTORE PUSH1 0xE0 DUP5 ADD CALLDATALOAD PUSH1 0xE0 DUP3 ADD MSTORE POP POP SWAP3 SWAP2 POP POP JUMP JUMPDEST PUSH1 0x0 PUSH1 0x1 PUSH1 0x1 PUSH1 0x40 SHL SUB DUP3 GT ISZERO PUSH2 0x48E7 JUMPI PUSH2 0x48E7 PUSH2 0x475F JUMP JUMPDEST POP PUSH1 0x5 SHL PUSH1 0x20 ADD SWAP1 JUMP JUMPDEST PUSH1 0x0 DUP3 PUSH1 0x1F DUP4 ADD SLT PUSH2 0x4902 JUMPI PUSH1 0x0 DUP1 REVERT JUMPDEST DUP2 CALLDATALOAD PUSH1 0x20 PUSH2 0x4917 PUSH2 0x4912 DUP4 PUSH2 0x48CE JUMP JUMPDEST PUSH2 0x47E1 JUMP JUMPDEST DUP3 DUP2 MSTORE PUSH1 0x5 SWAP3 SWAP1 SWAP3 SHL DUP5 ADD DUP2 ADD SWAP2 DUP2 DUP2 ADD SWAP1 DUP7 DUP5 GT ISZERO PUSH2 0x4936 JUMPI PUSH1 0x0 DUP1 REVERT JUMPDEST DUP3 DUP7 ADD JUMPDEST DUP5 DUP2 LT ISZERO PUSH2 0x4951 JUMPI DUP1 CALLDATALOAD DUP4 MSTORE SWAP2 DUP4 ADD SWAP2 DUP4 ADD PUSH2 0x493A JUMP JUMPDEST POP SWAP7 SWAP6 POP POP POP POP POP POP JUMP JUMPDEST PUSH1 0x0 DUP1 PUSH1 0x0 DUP1 PUSH1 0x0 DUP1 PUSH2 0x1A0 DUP8 DUP10 SUB SLT ISZERO PUSH2 0x4976 JUMPI PUSH1 0x0 DUP1 REVERT JUMPDEST DUP7 CALLDATALOAD PUSH2 0x4981 DUP2 PUSH2 0x474A JUMP JUMPDEST SWAP6 POP PUSH1 0x20 DUP8 ADD CALLDATALOAD SWAP5 POP PUSH1 0x40 DUP8 ADD CALLDATALOAD PUSH2 0x4998 DUP2 PUSH2 0x474A JUMP JUMPDEST SWAP4 POP PUSH1 0x60 DUP8 ADD CALLDATALOAD SWAP3 POP PUSH2 0x49AE DUP9 PUSH1 0x80 DUP10 ADD PUSH2 0x482F JUMP JUMPDEST SWAP2 POP PUSH2 0x180 DUP8 ADD CALLDATALOAD PUSH1 0x1 PUSH1 0x1 PUSH1 0x40 SHL SUB DUP2 GT ISZERO PUSH2 0x49CA JUMPI PUSH1 0x0 DUP1 REVERT JUMPDEST PUSH2 0x49D6 DUP10 DUP3 DUP11 ADD PUSH2 0x48F1 JUMP JUMPDEST SWAP2 POP POP SWAP3 SWAP6 POP SWAP3 SWAP6 POP SWAP3 SWAP6 JUMP JUMPDEST PUSH1 0x0 DUP2 MLOAD DUP1 DUP5 MSTORE PUSH1 0x20 DUP1 DUP6 ADD SWAP5 POP DUP1 DUP5 ADD PUSH1 0x0 JUMPDEST DUP4 DUP2 LT ISZERO PUSH2 0x4A13 JUMPI DUP2 MLOAD DUP8 MSTORE SWAP6 DUP3 ADD SWAP6 SWAP1 DUP3 ADD SWAP1 PUSH1 0x1 ADD PUSH2 0x49F7 JUMP JUMPDEST POP SWAP5 SWAP6 SWAP5 POP POP POP POP POP JUMP JUMPDEST PUSH1 0x0 DUP2 MLOAD DUP1 DUP5 MSTORE PUSH1 0x20 DUP1 DUP6 ADD DUP1 DUP2 SWAP7 POP DUP4 PUSH1 0x5 SHL DUP2 ADD SWAP2 POP DUP3 DUP7 ADD PUSH1 0x0 JUMPDEST DUP6 DUP2 LT ISZERO PUSH2 0x4AA4 JUMPI DUP3 DUP5 SUB DUP10 MSTORE DUP2 MLOAD DUP1 MLOAD DUP6 MSTORE DUP6 DUP2 ADD MLOAD DUP7 DUP7 ADD MSTORE PUSH1 0x40 DUP1 DUP3 ADD MLOAD SWAP1 DUP7 ADD MSTORE PUSH1 0x60 DUP1 DUP3 ADD MLOAD SWAP1 DUP7 ADD MSTORE PUSH1 0x80 DUP1 DUP3 ADD MLOAD SWAP1 DUP7 ADD MSTORE PUSH1 0xA0 SWAP1 DUP2 ADD MLOAD PUSH1 0xC0 SWAP2 DUP7 ADD DUP3 SWAP1 MSTORE SWAP1 PUSH2 0x4A90 DUP2 DUP8 ADD DUP4 PUSH2 0x49E3 JUMP JUMPDEST SWAP11 DUP8 ADD SWAP11 SWAP6 POP POP POP SWAP1 DUP5 ADD SWAP1 PUSH1 0x1 ADD PUSH2 0x4A3C JUMP JUMPDEST POP SWAP2 SWAP8 SWAP7 POP POP POP POP POP POP POP JUMP JUMPDEST PUSH1 0xA0 DUP2 MSTORE PUSH1 0x0 PUSH2 0x4AC4 PUSH1 0xA0 DUP4 ADD DUP7 PUSH2 0x4A1E JUMP JUMPDEST SWAP1 POP DUP4 PUSH1 0x20 DUP4 ADD MSTORE PUSH2 0x4068 PUSH1 0x40 DUP4 ADD DUP5 DUP1 MLOAD DUP3 MSTORE PUSH1 0x20 DUP1 DUP3 ADD MLOAD SWAP1 DUP4 ADD MSTORE PUSH1 0x40 SWAP1 DUP2 ADD MLOAD SWAP2 ADD MSTORE JUMP JUMPDEST PUSH1 0x0 DUP1 PUSH1 0x0 DUP1 PUSH1 0x60 DUP6 DUP8 SUB SLT ISZERO PUSH2 0x4B03 JUMPI PUSH1 0x0 DUP1 REVERT JUMPDEST DUP5 CALLDATALOAD SWAP4 POP PUSH1 0x20 DUP6 ADD CALLDATALOAD SWAP3 POP PUSH1 0x40 DUP6 ADD CALLDATALOAD PUSH1 0x1 PUSH1 0x1 PUSH1 0x40 SHL SUB DUP1 DUP3 GT ISZERO PUSH2 0x4B28 JUMPI PUSH1 0x0 DUP1 REVERT JUMPDEST DUP2 DUP8 ADD SWAP2 POP DUP8 PUSH1 0x1F DUP4 ADD SLT PUSH2 0x4B3C JUMPI PUSH1 0x0 DUP1 REVERT JUMPDEST DUP2 CALLDATALOAD DUP2 DUP2 GT ISZERO PUSH2 0x4B4B JUMPI PUSH1 0x0 DUP1 REVERT JUMPDEST DUP9 PUSH1 0x20 DUP3 PUSH1 0x5 SHL DUP6 ADD ADD GT ISZERO PUSH2 0x4B60 JUMPI PUSH1 0x0 DUP1 REVERT JUMPDEST SWAP6 SWAP9 SWAP5 SWAP8 POP POP PUSH1 0x20 ADD SWAP5 POP POP POP JUMP JUMPDEST PUSH1 0x0 DUP2 MLOAD DUP1 DUP5 MSTORE PUSH1 0x20 DUP1 DUP6 ADD SWAP5 POP DUP1 DUP5 ADD PUSH1 0x0 JUMPDEST DUP4 DUP2 LT ISZERO PUSH2 0x4A13 JUMPI DUP2 MLOAD DUP1 MLOAD DUP9 MSTORE DUP4 ADD MLOAD DUP4 DUP9 ADD MSTORE PUSH1 0x40 SWAP1 SWAP7 ADD SWAP6 SWAP1 DUP3 ADD SWAP1 PUSH1 0x1 ADD PUSH2 0x4B83 JUMP JUMPDEST PUSH1 0x0 PUSH1 0x40 DUP1 DUP4 MSTORE PUSH2 0x100 DUP1 DUP5 ADD DUP7 MLOAD DUP4 DUP7 ADD MSTORE PUSH1 0x20 DUP1 DUP9 ADD MLOAD PUSH1 0x60 PUSH2 0x4BE5 DUP2 DUP10 ADD DUP4 DUP1 MLOAD DUP3 MSTORE PUSH1 0x20 DUP1 DUP3 ADD MLOAD SWAP1 DUP4 ADD MSTORE PUSH1 0x40 SWAP1 DUP2 ADD MLOAD SWAP2 ADD MSTORE JUMP JUMPDEST DUP6 DUP11 ADD MLOAD PUSH1 0xC0 DUP10 DUP2 ADD DUP2 SWAP1 MSTORE DUP2 MLOAD SWAP6 DUP7 SWAP1 MSTORE PUSH2 0x120 PUSH1 0x5 DUP8 SWAP1 SHL DUP12 ADD DUP2 ADD SWAP7 SWAP3 DUP7 ADD SWAP5 POP SWAP1 SWAP2 SWAP1 DUP11 ADD SWAP1 PUSH1 0x0 JUMPDEST DUP2 DUP2 LT ISZERO PUSH2 0x4CA7 JUMPI DUP12 DUP9 SUB PUSH2 0x11F NOT ADD DUP4 MSTORE DUP6 MLOAD DUP1 MLOAD DUP11 DUP11 MSTORE PUSH2 0x4C37 DUP12 DUP12 ADD DUP3 PUSH2 0x49E3 JUMP JUMPDEST SWAP1 POP DUP9 DUP3 ADD MLOAD DUP10 DUP12 ADD MSTORE DUP12 DUP3 ADD MLOAD PUSH2 0x4C65 DUP14 DUP13 ADD DUP3 DUP1 MLOAD DUP3 MSTORE PUSH1 0x20 DUP1 DUP3 ADD MLOAD SWAP1 DUP4 ADD MSTORE PUSH1 0x40 SWAP1 DUP2 ADD MLOAD SWAP2 ADD MSTORE JUMP JUMPDEST POP DUP2 DUP8 ADD MLOAD PUSH1 0xA0 DUP12 DUP2 ADD SWAP2 SWAP1 SWAP2 MSTORE PUSH1 0x80 DUP4 ADD MLOAD DUP8 DUP13 ADD MSTORE SWAP1 SWAP2 ADD MLOAD DUP10 DUP3 SUB PUSH1 0xE0 DUP12 ADD MSTORE SWAP1 PUSH2 0x4C93 DUP2 DUP4 PUSH2 0x49E3 JUMP JUMPDEST SWAP10 POP POP POP SWAP5 DUP7 ADD SWAP5 SWAP2 DUP7 ADD SWAP2 PUSH1 0x1 ADD PUSH2 0x4C12 JUMP JUMPDEST POP POP POP POP DUP10 ADD MLOAD DUP8 DUP5 SUB PUSH1 0x3F NOT ADD PUSH1 0xE0 DUP10 ADD MSTORE SWAP5 POP PUSH2 0x4CC8 SWAP1 POP DUP3 DUP6 PUSH2 0x4A1E JUMP JUMPDEST SWAP4 POP DUP6 DUP5 SUB DUP2 DUP8 ADD MSTORE POP POP POP PUSH2 0x4CDE DUP2 DUP6 PUSH2 0x4B6F JUMP JUMPDEST SWAP6 SWAP5 POP POP POP POP POP JUMP JUMPDEST PUSH1 0x0 DUP1 PUSH1 0x40 DUP4 DUP6 SUB SLT ISZERO PUSH2 0x4CFA JUMPI PUSH1 0x0 DUP1 REVERT JUMPDEST POP POP DUP1 CALLDATALOAD SWAP3 PUSH1 0x20 SWAP1 SWAP2 ADD CALLDATALOAD SWAP2 POP JUMP JUMPDEST PUSH1 0x0 PUSH1 0x20 DUP3 DUP5 SUB SLT ISZERO PUSH2 0x4D1B JUMPI PUSH1 0x0 DUP1 REVERT JUMPDEST POP CALLDATALOAD SWAP2 SWAP1 POP JUMP JUMPDEST PUSH4 0x4E487B71 PUSH1 0xE0 SHL PUSH1 0x0 MSTORE PUSH1 0x21 PUSH1 0x4 MSTORE PUSH1 0x24 PUSH1 0x0 REVERT JUMPDEST PUSH1 0x6 DUP2 LT PUSH2 0x4D56 JUMPI PUSH4 0x4E487B71 PUSH1 0xE0 SHL PUSH1 0x0 MSTORE PUSH1 0x21 PUSH1 0x4 MSTORE PUSH1 0x24 PUSH1 0x0 REVERT JUMPDEST SWAP1 MSTORE JUMP JUMPDEST DUP2 MLOAD PUSH1 0x1 PUSH1 0x1 PUSH1 0xA0 SHL SUB AND DUP2 MSTORE PUSH2 0x1C0 DUP2 ADD PUSH1 0x20 DUP4 ADD MLOAD PUSH1 0x20 DUP4 ADD MSTORE PUSH1 0x40 DUP4 ADD MLOAD PUSH1 0x40 DUP4 ADD MSTORE PUSH1 0x60 DUP4 ADD MLOAD PUSH1 0x60 DUP4 ADD MSTORE PUSH1 0x80 DUP4 ADD MLOAD PUSH1 0x80 DUP4 ADD MSTORE PUSH1 0xA0 DUP4 ADD MLOAD PUSH1 0xA0 DUP4 ADD MSTORE PUSH1 0xC0 DUP4 ADD MLOAD PUSH1 0xC0 DUP4 ADD MSTORE PUSH1 0xE0 DUP4 ADD MLOAD PUSH1 0xE0 DUP4 ADD MSTORE PUSH2 0x100 DUP1 DUP5 ADD MLOAD DUP2 DUP5 ADD MSTORE POP PUSH2 0x120 DUP1 DUP5 ADD MLOAD DUP2 DUP5 ADD MSTORE POP PUSH2 0x140 DUP1 DUP5 ADD MLOAD DUP2 DUP5 ADD MSTORE POP PUSH2 0x160 DUP1 DUP5 ADD MLOAD DUP2 DUP5 ADD MSTORE POP PUSH2 0x180 DUP1 DUP5 ADD MLOAD PUSH2 0x4DF5 DUP3 DUP6 ADD DUP3 PUSH2 0x4D38 JUMP JUMPDEST POP POP PUSH2 0x1A0 DUP4 DUP2 ADD MLOAD PUSH1 0xFF DUP2 AND DUP5 DUP4 ADD MSTORE PUSH2 0x3769 JUMP JUMPDEST PUSH1 0x0 PUSH1 0x20 DUP3 DUP5 SUB SLT ISZERO PUSH2 0x4E1D JUMPI PUSH1 0x0 DUP1 REVERT JUMPDEST DUP2 CALLDATALOAD PUSH2 0xBCC DUP2 PUSH2 0x474A JUMP JUMPDEST PUSH1 0x0 PUSH1 0x20 DUP1 DUP4 ADD DUP2 DUP5 MSTORE DUP1 DUP6 MLOAD DUP1 DUP4 MSTORE PUSH1 0x40 DUP7 ADD SWAP2 POP PUSH1 0x40 DUP2 PUSH1 0x5 SHL DUP8 ADD ADD SWAP3 POP DUP4 DUP8 ADD PUSH1 0x0 JUMPDEST DUP3 DUP2 LT ISZERO PUSH2 0x4E7D JUMPI PUSH1 0x3F NOT DUP9 DUP7 SUB ADD DUP5 MSTORE PUSH2 0x4E6B DUP6 DUP4 MLOAD PUSH2 0x49E3 JUMP JUMPDEST SWAP5 POP SWAP3 DUP6 ADD SWAP3 SWAP1 DUP6 ADD SWAP1 PUSH1 0x1 ADD PUSH2 0x4E4F JUMP JUMPDEST POP SWAP3 SWAP8 SWAP7 POP POP POP POP POP POP POP JUMP JUMPDEST PUSH1 0x0 PUSH1 0x20 DUP3 DUP5 SUB SLT ISZERO PUSH2 0x4E9C JUMPI PUSH1 0x0 DUP1 REVERT JUMPDEST DUP2 CALLDATALOAD PUSH6 0xFFFFFFFFFFFF DUP2 AND DUP2 EQ PUSH2 0xBCC JUMPI PUSH1 0x0 DUP1 REVERT JUMPDEST PUSH1 0x0 PUSH1 0x20 DUP3 DUP5 SUB SLT ISZERO PUSH2 0x4EC4 JUMPI PUSH1 0x0 DUP1 REVERT JUMPDEST DUP2 CALLDATALOAD PUSH1 0x1 PUSH1 0x1 PUSH1 0x40 SHL SUB DUP2 AND DUP2 EQ PUSH2 0xBCC JUMPI PUSH1 0x0 DUP1 REVERT JUMPDEST PUSH1 0x0 DUP1 PUSH1 0x0 DUP1 PUSH2 0x160 DUP6 DUP8 SUB SLT ISZERO PUSH2 0x4EF2 JUMPI PUSH1 0x0 DUP1 REVERT JUMPDEST DUP5 CALLDATALOAD SWAP4 POP PUSH1 0x20 DUP6 ADD CALLDATALOAD SWAP3 POP PUSH2 0x4F0A DUP7 PUSH1 0x40 DUP8 ADD PUSH2 0x482F JUMP JUMPDEST SWAP2 POP PUSH2 0x140 DUP6 ADD CALLDATALOAD PUSH1 0x1 PUSH1 0x1 PUSH1 0x40 SHL SUB DUP2 GT ISZERO PUSH2 0x4F26 JUMPI PUSH1 0x0 DUP1 REVERT JUMPDEST PUSH2 0x4F32 DUP8 DUP3 DUP9 ADD PUSH2 0x48F1 JUMP JUMPDEST SWAP2 POP POP SWAP3 SWAP6 SWAP2 SWAP5 POP SWAP3 POP JUMP JUMPDEST PUSH1 0x0 PUSH1 0x20 DUP3 DUP5 SUB SLT ISZERO PUSH2 0x4F50 JUMPI PUSH1 0x0 DUP1 REVERT JUMPDEST DUP2 CALLDATALOAD PUSH4 0xFFFFFFFF DUP2 AND DUP2 EQ PUSH2 0xBCC JUMPI PUSH1 0x0 DUP1 REVERT JUMPDEST PUSH1 0x0 PUSH1 0x20 DUP3 DUP5 SUB SLT ISZERO PUSH2 0x4F76 JUMPI PUSH1 0x0 DUP1 REVERT JUMPDEST DUP2 MLOAD PUSH2 0xBCC DUP2 PUSH2 0x4811 JUMP JUMPDEST PUSH1 0x0 PUSH1 0x20 DUP3 DUP5 SUB SLT ISZERO PUSH2 0x4F93 JUMPI PUSH1 0x0 DUP1 REVERT JUMPDEST POP MLOAD SWAP2 SWAP1 POP JUMP JUMPDEST PUSH4 0x4E487B71 PUSH1 0xE0 SHL PUSH1 0x0 MSTORE PUSH1 0x11 PUSH1 0x4 MSTORE PUSH1 0x24 PUSH1 0x0 REVERT JUMPDEST PUSH1 0x0 DUP3 DUP3 LT ISZERO PUSH2 0x4FC2 JUMPI PUSH2 0x4FC2 PUSH2 0x4F9A JUMP JUMPDEST POP SUB SWAP1 JUMP JUMPDEST PUSH1 0x0 DUP3 NOT DUP3 GT ISZERO PUSH2 0x4FDA JUMPI PUSH2 0x4FDA PUSH2 0x4F9A JUMP JUMPDEST POP ADD SWAP1 JUMP JUMPDEST PUSH4 0x4E487B71 PUSH1 0xE0 SHL PUSH1 0x0 MSTORE PUSH1 0x32 PUSH1 0x4 MSTORE PUSH1 0x24 PUSH1 0x0 REVERT JUMPDEST PUSH1 0x0 PUSH1 0x0 NOT DUP3 EQ ISZERO PUSH2 0x5009 JUMPI PUSH2 0x5009 PUSH2 0x4F9A JUMP JUMPDEST POP PUSH1 0x1 ADD SWAP1 JUMP JUMPDEST PUSH1 0x0 DUP3 PUSH2 0x502D JUMPI PUSH4 0x4E487B71 PUSH1 0xE0 SHL PUSH1 0x0 MSTORE PUSH1 0x12 PUSH1 0x4 MSTORE PUSH1 0x24 PUSH1 0x0 REVERT JUMPDEST POP DIV SWAP1 JUMP JUMPDEST PUSH1 0x0 DUP2 PUSH1 0x0 NOT DIV DUP4 GT DUP3 ISZERO ISZERO AND ISZERO PUSH2 0x504C JUMPI PUSH2 0x504C PUSH2 0x4F9A JUMP JUMPDEST POP MUL SWAP1 JUMP JUMPDEST PUSH4 0x4E487B71 PUSH1 0xE0 SHL PUSH1 0x0 MSTORE PUSH1 0x1 PUSH1 0x4 MSTORE PUSH1 0x24 PUSH1 0x0 REVERT JUMPDEST PUSH1 0x0 DUP3 PUSH1 0x1F DUP4 ADD SLT PUSH2 0x5078 JUMPI PUSH1 0x0 DUP1 REVERT JUMPDEST DUP2 MLOAD PUSH1 0x20 PUSH2 0x5088 PUSH2 0x4912 DUP4 PUSH2 0x48CE JUMP JUMPDEST DUP3 DUP2 MSTORE PUSH1 0x5 SWAP3 SWAP1 SWAP3 SHL DUP5 ADD DUP2 ADD SWAP2 DUP2 DUP2 ADD SWAP1 DUP7 DUP5 GT ISZERO PUSH2 0x50A7 JUMPI PUSH1 0x0 DUP1 REVERT JUMPDEST DUP3 DUP7 ADD JUMPDEST DUP5 DUP2 LT ISZERO PUSH2 0x4951 JUMPI DUP1 MLOAD DUP4 MSTORE SWAP2 DUP4 ADD SWAP2 DUP4 ADD PUSH2 0x50AB JUMP JUMPDEST PUSH1 0x0 PUSH1 0x20 DUP3 DUP5 SUB SLT ISZERO PUSH2 0x50D4 JUMPI PUSH1 0x0 DUP1 REVERT JUMPDEST DUP2 MLOAD PUSH1 0x1 PUSH1 0x1 PUSH1 0x40 SHL SUB DUP2 GT ISZERO PUSH2 0x50EA JUMPI PUSH1 0x0 DUP1 REVERT JUMPDEST PUSH2 0x4068 DUP5 DUP3 DUP6 ADD PUSH2 0x5067 JUMP JUMPDEST PUSH1 0x0 PUSH1 0x20 DUP3 DUP5 SUB SLT ISZERO PUSH2 0x5108 JUMPI PUSH1 0x0 DUP1 REVERT JUMPDEST DUP2 MLOAD PUSH2 0xBCC DUP2 PUSH2 0x474A JUMP JUMPDEST PUSH1 0x1 PUSH1 0x1 PUSH1 0xA0 SHL SUB DUP8 AND DUP2 MSTORE PUSH1 0x20 DUP1 DUP3 ADD DUP8 SWAP1 MSTORE PUSH1 0x40 DUP3 ADD DUP7 SWAP1 MSTORE PUSH1 0x60 DUP3 ADD DUP6 SWAP1 MSTORE PUSH1 0x80 DUP3 ADD DUP5 SWAP1 MSTORE PUSH2 0x5A0 DUP3 ADD SWAP1 PUSH1 0xA0 DUP4 ADD DUP5 PUSH1 0x0 JUMPDEST PUSH1 0x28 DUP2 LT ISZERO PUSH2 0x5167 JUMPI DUP2 MLOAD DUP4 MSTORE SWAP2 DUP4 ADD SWAP2 SWAP1 DUP4 ADD SWAP1 PUSH1 0x1 ADD PUSH2 0x514A JUMP JUMPDEST POP POP POP POP SWAP8 SWAP7 POP POP POP POP POP POP POP JUMP JUMPDEST PUSH1 0x0 DUP3 MLOAD PUSH1 0x0 JUMPDEST DUP2 DUP2 LT ISZERO PUSH2 0x5197 JUMPI PUSH1 0x20 DUP2 DUP7 ADD DUP2 ADD MLOAD DUP6 DUP4 ADD MSTORE ADD PUSH2 0x517D JUMP JUMPDEST DUP2 DUP2 GT ISZERO PUSH2 0x51A6 JUMPI PUSH1 0x0 DUP3 DUP6 ADD MSTORE JUMPDEST POP SWAP2 SWAP1 SWAP2 ADD SWAP3 SWAP2 POP POP JUMP JUMPDEST DUP1 MLOAD PUSH2 0x100 DUP1 DUP5 MSTORE DUP2 MLOAD SWAP1 DUP5 ADD DUP2 SWAP1 MSTORE PUSH1 0x0 SWAP2 PUSH2 0x120 DUP6 ADD SWAP2 PUSH1 0x20 SWAP2 DUP3 ADD SWAP1 DUP5 JUMPDEST DUP2 DUP2 LT ISZERO PUSH2 0x51EE JUMPI DUP3 MLOAD DUP6 MSTORE SWAP4 DUP4 ADD SWAP4 SWAP2 DUP4 ADD SWAP2 PUSH1 0x1 ADD PUSH2 0x51D2 JUMP JUMPDEST POP POP POP DUP4 DUP2 ADD MLOAD SWAP1 DUP6 ADD MSTORE PUSH1 0x40 DUP1 DUP5 ADD MLOAD DUP1 MLOAD DUP3 DUP8 ADD MSTORE PUSH1 0x20 DUP2 ADD MLOAD PUSH1 0x60 DUP8 ADD MSTORE SWAP1 DUP2 ADD MLOAD PUSH1 0x80 DUP7 ADD MSTORE POP PUSH1 0x60 DUP4 ADD MLOAD PUSH1 0xA0 DUP6 ADD MSTORE PUSH1 0x80 DUP4 ADD MLOAD PUSH1 0xC0 DUP6 ADD MSTORE PUSH1 0xA0 DUP4 ADD MLOAD DUP5 DUP3 SUB PUSH1 0xE0 DUP7 ADD MSTORE PUSH2 0x4CDE DUP3 DUP3 PUSH2 0x49E3 JUMP JUMPDEST PUSH1 0x0 DUP2 MLOAD DUP1 DUP5 MSTORE PUSH1 0x20 DUP1 DUP6 ADD DUP1 DUP2 SWAP7 POP DUP4 PUSH1 0x5 SHL DUP2 ADD SWAP2 POP DUP3 DUP7 ADD PUSH1 0x0 JUMPDEST DUP6 DUP2 LT ISZERO PUSH2 0x4AA4 JUMPI DUP3 DUP5 SUB DUP10 MSTORE DUP2 MLOAD DUP1 MLOAD DUP6 MSTORE DUP6 DUP2 ADD MLOAD DUP7 DUP7 ADD MSTORE PUSH1 0x40 DUP1 DUP3 ADD MLOAD SWAP1 DUP7 ADD MSTORE PUSH1 0x60 DUP1 DUP3 ADD MLOAD SWAP1 DUP7 ADD MSTORE PUSH1 0x80 DUP1 DUP3 ADD MLOAD SWAP1 DUP7 ADD MSTORE PUSH1 0xA0 SWAP1 DUP2 ADD MLOAD PUSH1 0xC0 SWAP2 DUP7 ADD DUP3 SWAP1 MSTORE SWAP1 PUSH2 0x52B6 DUP2 DUP8 ADD DUP4 PUSH2 0x49E3 JUMP JUMPDEST SWAP11 DUP8 ADD SWAP11 SWAP6 POP POP POP SWAP1 DUP5 ADD SWAP1 PUSH1 0x1 ADD PUSH2 0x5262 JUMP JUMPDEST PUSH1 0x0 PUSH1 0xC0 DUP4 ADD DUP3 MLOAD DUP5 MSTORE PUSH1 0x20 DUP1 DUP5 ADD MLOAD PUSH2 0x52FA DUP3 DUP8 ADD DUP3 DUP1 MLOAD DUP3 MSTORE PUSH1 0x20 DUP1 DUP3 ADD MLOAD SWAP1 DUP4 ADD MSTORE PUSH1 0x40 SWAP1 DUP2 ADD MLOAD SWAP2 ADD MSTORE JUMP JUMPDEST POP PUSH1 0x40 DUP5 ADD MLOAD PUSH1 0xC0 PUSH1 0x80 DUP8 ADD MSTORE DUP3 DUP2 MLOAD DUP1 DUP6 MSTORE PUSH1 0xE0 DUP9 ADD SWAP2 POP PUSH1 0xE0 DUP2 PUSH1 0x5 SHL DUP10 ADD ADD SWAP5 POP DUP4 DUP4 ADD SWAP3 POP PUSH1 0x0 JUMPDEST DUP2 DUP2 LT ISZERO PUSH2 0x5354 JUMPI PUSH1 0xDF NOT DUP10 DUP8 SUB ADD DUP4 MSTORE PUSH2 0x5342 DUP7 DUP6 MLOAD PUSH2 0x51B1 JUMP JUMPDEST SWAP6 POP SWAP3 DUP5 ADD SWAP3 SWAP2 DUP5 ADD SWAP2 PUSH1 0x1 ADD PUSH2 0x5326 JUMP JUMPDEST POP POP POP POP POP PUSH1 0x60 DUP4 ADD MLOAD DUP5 DUP3 SUB PUSH1 0xA0 DUP7 ADD MSTORE PUSH2 0x4CDE DUP3 DUP3 PUSH2 0x5244 JUMP JUMPDEST PUSH1 0x60 DUP2 MSTORE PUSH1 0x0 PUSH2 0x5383 PUSH1 0x60 DUP4 ADD DUP7 PUSH2 0x52CA JUMP JUMPDEST DUP3 DUP2 SUB PUSH1 0x20 DUP5 ADD MSTORE PUSH2 0x5395 DUP2 DUP7 PUSH2 0x51B1 JUMP JUMPDEST SWAP1 POP DUP3 DUP2 SUB PUSH1 0x40 DUP5 ADD MSTORE PUSH2 0x53A9 DUP2 DUP6 PUSH2 0x5244 JUMP JUMPDEST SWAP7 SWAP6 POP POP POP POP POP POP JUMP JUMPDEST PUSH1 0x0 PUSH1 0x60 DUP3 DUP5 SUB SLT ISZERO PUSH2 0x53C5 JUMPI PUSH1 0x0 DUP1 REVERT JUMPDEST PUSH1 0x40 MLOAD PUSH1 0x60 DUP2 ADD DUP2 DUP2 LT PUSH1 0x1 PUSH1 0x1 PUSH1 0x40 SHL SUB DUP3 GT OR ISZERO PUSH2 0x53E7 JUMPI PUSH2 0x53E7 PUSH2 0x475F JUMP JUMPDEST DUP1 PUSH1 0x40 MSTORE POP DUP1 SWAP2 POP DUP3 MLOAD DUP2 MSTORE PUSH1 0x20 DUP4 ADD MLOAD PUSH1 0x20 DUP3 ADD MSTORE PUSH1 0x40 DUP4 ADD MLOAD PUSH1 0x40 DUP3 ADD MSTORE POP SWAP3 SWAP2 POP POP JUMP JUMPDEST PUSH1 0x0 PUSH2 0x100 DUP3 DUP5 SUB SLT ISZERO PUSH2 0x5421 JUMPI PUSH1 0x0 DUP1 REVERT JUMPDEST PUSH2 0x5429 PUSH2 0x4775 JUMP JUMPDEST SWAP1 POP DUP2 MLOAD PUSH1 0x1 PUSH1 0x1 PUSH1 0x40 SHL SUB DUP1 DUP3 GT ISZERO PUSH2 0x5442 JUMPI PUSH1 0x0 DUP1 REVERT JUMPDEST PUSH2 0x544E DUP6 DUP4 DUP7 ADD PUSH2 0x5067 JUMP JUMPDEST DUP4 MSTORE PUSH1 0x20 DUP5 ADD MLOAD PUSH1 0x20 DUP5 ADD MSTORE PUSH2 0x5467 DUP6 PUSH1 0x40 DUP7 ADD PUSH2 0x53B3 JUMP JUMPDEST PUSH1 0x40 DUP5 ADD MSTORE PUSH1 0xA0 DUP5 ADD MLOAD PUSH1 0x60 DUP5 ADD MSTORE PUSH1 0xC0 DUP5 ADD MLOAD PUSH1 0x80 DUP5 ADD MSTORE PUSH1 0xE0 DUP5 ADD MLOAD SWAP2 POP DUP1 DUP3 GT ISZERO PUSH2 0x5494 JUMPI PUSH1 0x0 DUP1 REVERT JUMPDEST POP PUSH2 0x54A1 DUP5 DUP3 DUP6 ADD PUSH2 0x5067 JUMP JUMPDEST PUSH1 0xA0 DUP4 ADD MSTORE POP SWAP3 SWAP2 POP POP JUMP JUMPDEST PUSH1 0x0 DUP3 PUSH1 0x1F DUP4 ADD SLT PUSH2 0x54BE JUMPI PUSH1 0x0 DUP1 REVERT JUMPDEST DUP2 MLOAD PUSH1 0x20 PUSH2 0x54CE PUSH2 0x4912 DUP4 PUSH2 0x48CE JUMP JUMPDEST DUP3 DUP2 MSTORE PUSH1 0x5 SWAP3 SWAP1 SWAP3 SHL DUP5 ADD DUP2 ADD SWAP2 DUP2 DUP2 ADD SWAP1 DUP7 DUP5 GT ISZERO PUSH2 0x54ED JUMPI PUSH1 0x0 DUP1 REVERT JUMPDEST DUP3 DUP7 ADD JUMPDEST DUP5 DUP2 LT ISZERO PUSH2 0x4951 JUMPI DUP1 MLOAD PUSH1 0x1 PUSH1 0x1 PUSH1 0x40 SHL SUB DUP1 DUP3 GT ISZERO PUSH2 0x5511 JUMPI PUSH1 0x0 DUP1 DUP2 REVERT JUMPDEST SWAP1 DUP9 ADD SWAP1 PUSH1 0xC0 DUP3 DUP12 SUB PUSH1 0x1F NOT ADD DUP2 SGT ISZERO PUSH2 0x552B JUMPI PUSH1 0x0 DUP1 DUP2 REVERT JUMPDEST PUSH2 0x5533 PUSH2 0x4775 JUMP JUMPDEST DUP8 DUP5 ADD MLOAD DUP2 MSTORE PUSH1 0x40 DUP1 DUP6 ADD MLOAD DUP10 DUP4 ADD MSTORE PUSH1 0x60 DUP1 DUP7 ADD MLOAD DUP3 DUP5 ADD MSTORE PUSH1 0x80 SWAP2 POP DUP2 DUP7 ADD MLOAD DUP2 DUP5 ADD MSTORE POP PUSH1 0xA0 DUP1 DUP7 ADD MLOAD DUP3 DUP5 ADD MSTORE DUP4 DUP7 ADD MLOAD SWAP4 POP DUP5 DUP5 GT ISZERO PUSH2 0x557A JUMPI PUSH1 0x0 SWAP2 POP DUP2 DUP3 REVERT JUMPDEST PUSH2 0x5588 DUP15 DUP12 DUP7 DUP10 ADD ADD PUSH2 0x5067 JUMP JUMPDEST SWAP1 DUP4 ADD MSTORE POP DUP7 MSTORE POP POP POP SWAP2 DUP4 ADD SWAP2 DUP4 ADD PUSH2 0x54F1 JUMP JUMPDEST PUSH1 0x0 PUSH1 0x20 DUP1 DUP4 DUP6 SUB SLT ISZERO PUSH2 0x55B0 JUMPI PUSH1 0x0 DUP1 REVERT JUMPDEST DUP3 MLOAD PUSH1 0x1 PUSH1 0x1 PUSH1 0x40 SHL SUB DUP1 DUP3 GT ISZERO PUSH2 0x55C7 JUMPI PUSH1 0x0 DUP1 REVERT JUMPDEST SWAP1 DUP5 ADD SWAP1 PUSH1 0xC0 DUP3 DUP8 SUB SLT ISZERO PUSH2 0x55DB JUMPI PUSH1 0x0 DUP1 REVERT JUMPDEST PUSH2 0x55E3 PUSH2 0x479D JUMP JUMPDEST DUP3 MLOAD DUP2 MSTORE PUSH2 0x55F3 DUP8 DUP6 DUP6 ADD PUSH2 0x53B3 JUMP JUMPDEST DUP5 DUP3 ADD MSTORE PUSH1 0x80 DUP4 ADD MLOAD DUP3 DUP2 GT ISZERO PUSH2 0x5609 JUMPI PUSH1 0x0 DUP1 REVERT JUMPDEST DUP4 ADD PUSH1 0x1F DUP2 ADD DUP9 SGT PUSH2 0x561A JUMPI PUSH1 0x0 DUP1 REVERT JUMPDEST DUP1 MLOAD PUSH2 0x5628 PUSH2 0x4912 DUP3 PUSH2 0x48CE JUMP JUMPDEST DUP2 DUP2 MSTORE PUSH1 0x5 SWAP2 SWAP1 SWAP2 SHL DUP3 ADD DUP7 ADD SWAP1 DUP7 DUP2 ADD SWAP1 DUP11 DUP4 GT ISZERO PUSH2 0x5647 JUMPI PUSH1 0x0 DUP1 REVERT JUMPDEST DUP8 DUP5 ADD JUMPDEST DUP4 DUP2 LT ISZERO PUSH2 0x567F JUMPI DUP1 MLOAD DUP8 DUP2 GT ISZERO PUSH2 0x5663 JUMPI PUSH1 0x0 DUP1 DUP2 REVERT JUMPDEST PUSH2 0x5671 DUP14 DUP12 DUP4 DUP10 ADD ADD PUSH2 0x540E JUMP JUMPDEST DUP5 MSTORE POP SWAP2 DUP9 ADD SWAP2 DUP9 ADD PUSH2 0x564B JUMP JUMPDEST POP PUSH1 0x40 DUP6 ADD MSTORE POP POP POP PUSH1 0xA0 DUP4 ADD MLOAD SWAP4 POP DUP2 DUP5 GT ISZERO PUSH2 0x569C JUMPI PUSH1 0x0 DUP1 REVERT JUMPDEST PUSH2 0x56A8 DUP8 DUP6 DUP6 ADD PUSH2 0x54AD JUMP JUMPDEST PUSH1 0x60 DUP3 ADD MSTORE SWAP7 SWAP6 POP POP POP POP POP POP JUMP JUMPDEST PUSH1 0x40 DUP2 MSTORE PUSH1 0x0 PUSH2 0x56CA PUSH1 0x40 DUP4 ADD DUP6 PUSH2 0x52CA JUMP JUMPDEST DUP3 DUP2 SUB PUSH1 0x20 DUP5 ADD MSTORE PUSH2 0x4CDE DUP2 DUP6 PUSH2 0x52CA JUMP JUMPDEST PUSH1 0x60 DUP2 MSTORE PUSH1 0x0 PUSH2 0x5383 PUSH1 0x60 DUP4 ADD DUP7 PUSH2 0x4B6F JUMP JUMPDEST PUSH1 0x0 PUSH1 0x20 DUP1 DUP4 DUP6 SUB SLT ISZERO PUSH2 0x5702 JUMPI PUSH1 0x0 DUP1 REVERT JUMPDEST DUP3 MLOAD PUSH1 0x1 PUSH1 0x1 PUSH1 0x40 SHL SUB DUP2 GT ISZERO PUSH2 0x5718 JUMPI PUSH1 0x0 DUP1 REVERT JUMPDEST DUP4 ADD PUSH1 0x1F DUP2 ADD DUP6 SGT PUSH2 0x5729 JUMPI PUSH1 0x0 DUP1 REVERT JUMPDEST DUP1 MLOAD PUSH2 0x5737 PUSH2 0x4912 DUP3 PUSH2 0x48CE JUMP JUMPDEST DUP2 DUP2 MSTORE PUSH1 0x6 SWAP2 SWAP1 SWAP2 SHL DUP3 ADD DUP4 ADD SWAP1 DUP4 DUP2 ADD SWAP1 DUP8 DUP4 GT ISZERO PUSH2 0x5756 JUMPI PUSH1 0x0 DUP1 REVERT JUMPDEST SWAP3 DUP5 ADD SWAP3 JUMPDEST DUP3 DUP5 LT ISZERO PUSH2 0x5799 JUMPI PUSH1 0x40 DUP5 DUP10 SUB SLT ISZERO PUSH2 0x5774 JUMPI PUSH1 0x0 DUP1 DUP2 REVERT JUMPDEST PUSH2 0x577C PUSH2 0x47BF JUMP JUMPDEST DUP5 MLOAD DUP2 MSTORE DUP6 DUP6 ADD MLOAD DUP7 DUP3 ADD MSTORE DUP3 MSTORE PUSH1 0x40 SWAP1 SWAP4 ADD SWAP3 SWAP1 DUP5 ADD SWAP1 PUSH2 0x575B JUMP JUMPDEST SWAP8 SWAP7 POP POP POP POP POP POP POP JUMP JUMPDEST PUSH1 0x40 DUP2 MSTORE PUSH1 0x0 PUSH2 0x57B7 PUSH1 0x40 DUP4 ADD DUP6 PUSH2 0x5244 JUMP JUMPDEST DUP3 DUP2 SUB PUSH1 0x20 DUP5 ADD MSTORE PUSH2 0x4CDE DUP2 DUP6 PUSH2 0x5244 JUMP JUMPDEST PUSH1 0x0 PUSH1 0x20 DUP3 DUP5 SUB SLT ISZERO PUSH2 0x57DB JUMPI PUSH1 0x0 DUP1 REVERT JUMPDEST DUP2 MLOAD PUSH1 0x1 PUSH1 0x1 PUSH1 0x40 SHL SUB DUP2 GT ISZERO PUSH2 0x57F1 JUMPI PUSH1 0x0 DUP1 REVERT JUMPDEST PUSH2 0x4068 DUP5 DUP3 DUP6 ADD PUSH2 0x54AD JUMP JUMPDEST PUSH1 0x0 DUP1 PUSH1 0x40 DUP4 DUP6 SUB SLT ISZERO PUSH2 0x5810 JUMPI PUSH1 0x0 DUP1 REVERT JUMPDEST POP POP DUP1 MLOAD PUSH1 0x20 SWAP1 SWAP2 ADD MLOAD SWAP1 SWAP3 SWAP1 SWAP2 POP JUMP JUMPDEST PUSH1 0x0 DUP1 PUSH1 0x0 PUSH1 0x60 DUP5 DUP7 SUB SLT ISZERO PUSH2 0x5836 JUMPI PUSH1 0x0 DUP1 REVERT JUMPDEST DUP4 MLOAD SWAP3 POP PUSH1 0x20 DUP5 ADD MLOAD SWAP2 POP PUSH1 0x40 DUP5 ADD MLOAD SWAP1 POP SWAP3 POP SWAP3 POP SWAP3 JUMP JUMPDEST DUP2 MLOAD DUP2 MSTORE PUSH1 0x20 DUP1 DUP4 ADD MLOAD PUSH2 0x180 DUP4 ADD SWAP2 PUSH2 0x5873 SWAP1 DUP5 ADD DUP3 PUSH1 0x1 PUSH1 0x1 PUSH1 0xA0 SHL SUB AND SWAP1 MSTORE JUMP JUMPDEST POP PUSH1 0x40 DUP4 ADD MLOAD PUSH2 0x5886 PUSH1 0x40 DUP5 ADD DUP3 PUSH2 0x4D38 JUMP JUMPDEST POP PUSH1 0x60 DUP4 ADD MLOAD PUSH2 0x589B PUSH1 0x60 DUP5 ADD DUP3 PUSH1 0xFF AND SWAP1 MSTORE JUMP JUMPDEST POP PUSH1 0x80 DUP4 ADD MLOAD PUSH1 0x80 DUP4 ADD MSTORE PUSH1 0xA0 DUP4 ADD MLOAD PUSH2 0x58C0 PUSH1 0xA0 DUP5 ADD DUP3 PUSH1 0x1 PUSH1 0x1 PUSH1 0x40 SHL SUB AND SWAP1 MSTORE JUMP JUMPDEST POP PUSH1 0xC0 DUP4 ADD MLOAD PUSH2 0x58DB PUSH1 0xC0 DUP5 ADD DUP3 PUSH1 0x1 PUSH1 0x1 PUSH1 0x40 SHL SUB AND SWAP1 MSTORE JUMP JUMPDEST POP PUSH1 0xE0 DUP4 ADD MLOAD PUSH2 0x58F6 PUSH1 0xE0 DUP5 ADD DUP3 PUSH1 0x1 PUSH1 0x1 PUSH1 0x40 SHL SUB AND SWAP1 MSTORE JUMP JUMPDEST POP PUSH2 0x100 DUP4 DUP2 ADD MLOAD PUSH1 0x1 PUSH1 0x1 PUSH1 0x40 SHL SUB SWAP1 DUP2 AND SWAP2 DUP5 ADD SWAP2 SWAP1 SWAP2 MSTORE PUSH2 0x120 DUP1 DUP6 ADD MLOAD DUP3 AND SWAP1 DUP5 ADD MSTORE PUSH2 0x140 DUP1 DUP6 ADD MLOAD DUP3 AND SWAP1 DUP5 ADD MSTORE PUSH2 0x160 DUP1 DUP6 ADD MLOAD SWAP2 DUP3 AND DUP2 DUP6 ADD MSTORE SWAP1 PUSH2 0x3769 JUMP JUMPDEST PUSH1 0x40 DUP2 MSTORE PUSH1 0x0 PUSH2 0x5951 PUSH1 0x40 DUP4 ADD DUP6 PUSH2 0x5244 JUMP JUMPDEST SWAP1 POP DUP3 PUSH1 0x20 DUP4 ADD MSTORE SWAP4 SWAP3 POP POP POP JUMP JUMPDEST DUP1 MLOAD DUP3 MSTORE PUSH1 0x20 DUP2 ADD MLOAD PUSH1 0x20 DUP4 ADD MSTORE PUSH1 0x40 DUP2 ADD MLOAD PUSH1 0x40 DUP4 ADD MSTORE PUSH1 0x0 PUSH1 0x60 DUP3 ADD MLOAD PUSH1 0x80 PUSH1 0x60 DUP6 ADD MSTORE PUSH2 0x4068 PUSH1 0x80 DUP6 ADD DUP3 PUSH2 0x5244 JUMP JUMPDEST PUSH1 0xA0 DUP2 MSTORE PUSH1 0x0 PUSH2 0x59A6 PUSH1 0xA0 DUP4 ADD DUP9 PUSH2 0x5244 JUMP JUMPDEST DUP7 PUSH1 0x20 DUP5 ADD MSTORE DUP3 DUP2 SUB PUSH1 0x40 DUP5 ADD MSTORE DUP6 MLOAD DUP2 MSTORE PUSH1 0x20 DUP7 ADD MLOAD PUSH1 0x20 DUP3 ADD MSTORE PUSH1 0x40 DUP7 ADD MLOAD PUSH1 0x40 DUP3 ADD MSTORE PUSH1 0x60 DUP7 ADD MLOAD ISZERO ISZERO PUSH1 0x60 DUP3 ADD MSTORE PUSH1 0x80 DUP7 ADD MLOAD ISZERO ISZERO PUSH1 0x80 DUP3 ADD MSTORE PUSH1 0xA0 DUP7 ADD MLOAD PUSH1 0xA0 DUP3 ADD MSTORE PUSH1 0xC0 DUP7 ADD MLOAD PUSH1 0xE0 PUSH1 0xC0 DUP4 ADD MSTORE PUSH2 0x5A07 PUSH1 0xE0 DUP4 ADD DUP3 PUSH2 0x49E3 JUMP JUMPDEST SWAP2 POP POP DUP3 DUP2 SUB PUSH1 0x60 DUP5 ADD MSTORE PUSH2 0x5A1C DUP2 DUP7 PUSH2 0x5960 JUMP JUMPDEST SWAP1 POP DUP3 DUP2 SUB PUSH1 0x80 DUP5 ADD MSTORE PUSH2 0x5A30 DUP2 DUP6 PUSH2 0x5244 JUMP JUMPDEST SWAP9 SWAP8 POP POP POP POP POP POP POP POP JUMP JUMPDEST PUSH1 0x0 DUP1 PUSH1 0x0 PUSH1 0xA0 DUP5 DUP7 SUB SLT ISZERO PUSH2 0x5A51 JUMPI PUSH1 0x0 DUP1 REVERT JUMPDEST DUP4 MLOAD PUSH1 0x1 PUSH1 0x1 PUSH1 0x40 SHL SUB DUP2 GT ISZERO PUSH2 0x5A67 JUMPI PUSH1 0x0 DUP1 REVERT JUMPDEST PUSH2 0x5A73 DUP7 DUP3 DUP8 ADD PUSH2 0x54AD JUMP JUMPDEST SWAP4 POP POP PUSH1 0x20 DUP5 ADD MLOAD SWAP2 POP PUSH2 0x5A8A DUP6 PUSH1 0x40 DUP7 ADD PUSH2 0x53B3 JUMP JUMPDEST SWAP1 POP SWAP3 POP SWAP3 POP SWAP3 JUMP JUMPDEST PUSH1 0x20 DUP2 MSTORE PUSH1 0x0 PUSH2 0xBCC PUSH1 0x20 DUP4 ADD DUP5 PUSH2 0x5244 JUMP JUMPDEST PUSH1 0x0 DUP1 PUSH1 0x80 DUP4 DUP6 SUB SLT ISZERO PUSH2 0x5AB9 JUMPI PUSH1 0x0 DUP1 REVERT JUMPDEST DUP3 MLOAD SWAP2 POP PUSH2 0x5ACA DUP5 PUSH1 0x20 DUP6 ADD PUSH2 0x53B3 JUMP JUMPDEST SWAP1 POP SWAP3 POP SWAP3 SWAP1 POP JUMP JUMPDEST PUSH1 0x60 DUP2 MSTORE PUSH1 0x0 PUSH2 0x5AE6 PUSH1 0x60 DUP4 ADD DUP7 PUSH2 0x51B1 JUMP JUMPDEST PUSH1 0x20 DUP4 ADD SWAP5 SWAP1 SWAP5 MSTORE POP PUSH1 0x40 ADD MSTORE SWAP2 SWAP1 POP JUMP JUMPDEST PUSH1 0x0 PUSH1 0x20 DUP3 DUP5 SUB SLT ISZERO PUSH2 0x5B0A JUMPI PUSH1 0x0 DUP1 REVERT JUMPDEST DUP2 MLOAD PUSH1 0x1 PUSH1 0x1 PUSH1 0x40 SHL SUB DUP2 GT ISZERO PUSH2 0x5B20 JUMPI PUSH1 0x0 DUP1 REVERT JUMPDEST PUSH2 0x4068 DUP5 DUP3 DUP6 ADD PUSH2 0x540E JUMP JUMPDEST PUSH1 0x40 DUP2 MSTORE PUSH1 0x0 PUSH2 0x5951 PUSH1 0x40 DUP4 ADD DUP6 PUSH2 0x4B6F JUMP JUMPDEST PUSH1 0x80 DUP2 MSTORE PUSH1 0x0 PUSH2 0x5B52 PUSH1 0x80 DUP4 ADD DUP8 PUSH2 0x51B1 JUMP JUMPDEST DUP3 DUP2 SUB PUSH1 0x20 DUP5 ADD MSTORE PUSH2 0x5B64 DUP2 DUP8 PUSH2 0x5244 JUMP JUMPDEST SWAP1 POP DUP5 PUSH1 0x40 DUP5 ADD MSTORE DUP3 DUP2 SUB PUSH1 0x60 DUP5 ADD MSTORE PUSH2 0x5799 DUP2 DUP6 PUSH2 0x5244 JUMP JUMPDEST PUSH1 0x0 DUP1 PUSH1 0x40 DUP4 DUP6 SUB SLT ISZERO PUSH2 0x5B91 JUMPI PUSH1 0x0 DUP1 REVERT JUMPDEST DUP3 MLOAD PUSH1 0x1 PUSH1 0x1 PUSH1 0x40 SHL SUB DUP1 DUP3 GT ISZERO PUSH2 0x5BA8 JUMPI PUSH1 0x0 DUP1 REVERT JUMPDEST PUSH2 0x5BB4 DUP7 DUP4 DUP8 ADD PUSH2 0x540E JUMP JUMPDEST SWAP4 POP PUSH1 0x20 DUP6 ADD MLOAD SWAP2 POP DUP1 DUP3 GT ISZERO PUSH2 0x5BCA JUMPI PUSH1 0x0 DUP1 REVERT JUMPDEST POP PUSH2 0x5BD7 DUP6 DUP3 DUP7 ADD PUSH2 0x54AD JUMP JUMPDEST SWAP2 POP POP SWAP3 POP SWAP3 SWAP1 POP JUMP JUMPDEST PUSH1 0x0 DUP2 PUSH2 0x5BF0 JUMPI PUSH2 0x5BF0 PUSH2 0x4F9A JUMP JUMPDEST POP PUSH1 0x0 NOT ADD SWAP1 JUMP JUMPDEST DUP1 SLOAD DUP3 MSTORE PUSH1 0x1 DUP2 ADD SLOAD PUSH1 0x1 PUSH1 0x1 PUSH1 0xA0 SHL SUB DUP2 AND PUSH1 0x20 DUP5 ADD MSTORE PUSH2 0x5C23 PUSH1 0x40 DUP5 ADD PUSH1 0xFF DUP4 PUSH1 0xA0 SHR AND PUSH2 0x4D38 JUMP JUMPDEST PUSH1 0xA8 SHR PUSH1 0xFF AND PUSH1 0x60 DUP4 ADD MSTORE PUSH1 0x2 DUP2 ADD SLOAD PUSH1 0x80 DUP4 ADD MSTORE PUSH1 0x3 DUP2 ADD SLOAD PUSH1 0x1 PUSH1 0x1 PUSH1 0x40 SHL SUB DUP1 DUP3 AND PUSH1 0xA0 DUP6 ADD MSTORE PUSH1 0x40 DUP3 SWAP1 SHR DUP2 AND PUSH1 0xC0 DUP6 ADD MSTORE PUSH2 0x5C73 PUSH1 0xE0 DUP6 ADD DUP3 DUP5 PUSH1 0x80 SHR AND PUSH1 0x1 PUSH1 0x1 PUSH1 0x40 SHL SUB AND SWAP1 MSTORE JUMP JUMPDEST PUSH1 0xC0 DUP3 SWAP1 SHR PUSH2 0x100 DUP6 ADD MSTORE PUSH1 0x4 DUP4 ADD SLOAD PUSH1 0x1 PUSH1 0x1 PUSH1 0x40 SHL SUB DUP3 DUP3 AND AND PUSH2 0x120 DUP7 ADD MSTORE SWAP2 POP PUSH2 0x5CB2 PUSH2 0x140 DUP6 ADD DUP3 DUP5 PUSH1 0x40 SHR AND PUSH1 0x1 PUSH1 0x1 PUSH1 0x40 SHL SUB AND SWAP1 MSTORE JUMP JUMPDEST PUSH2 0x5CCD PUSH2 0x160 DUP6 ADD DUP3 DUP5 PUSH1 0x80 SHR AND PUSH1 0x1 PUSH1 0x1 PUSH1 0x40 SHL SUB AND SWAP1 MSTORE JUMP JUMPDEST POP POP POP POP JUMP JUMPDEST PUSH2 0x180 DUP2 ADD PUSH2 0x6FA DUP3 DUP5 PUSH2 0x5BF8 JUMP JUMPDEST PUSH1 0x0 PUSH2 0x1A0 DUP1 DUP4 ADD PUSH2 0x5CF4 DUP5 DUP8 PUSH2 0x5BF8 JUMP JUMPDEST PUSH2 0x180 DUP5 ADD SWAP2 SWAP1 SWAP2 MSTORE DUP4 MLOAD SWAP1 DUP2 SWAP1 MSTORE PUSH2 0x1C0 DUP4 ADD SWAP1 PUSH1 0x20 SWAP1 DUP2 DUP7 ADD PUSH1 0x0 JUMPDEST DUP3 DUP2 LT ISZERO PUSH2 0x4E7D JUMPI DUP2 MLOAD DUP6 MSTORE SWAP4 DUP4 ADD SWAP4 SWAP1 DUP4 ADD SWAP1 PUSH1 0x1 ADD PUSH2 0x5D12 JUMP INVALID LOG2 PUSH5 0x6970667358 0x22 SLT KECCAK256 BALANCE RETURN DUP13 SWAP1 0xB9 CREATE OR SGT LOG2 0xCC 0xF7 0xEA KECCAK256 SDIV 0xE6 PUSH29 0x56DA08DC2FD8E47A12B5C88F0973100F64736F6C634300080B00330000 ","sha1":"afee29c64ccbc12f65b80ae1241a2aaa77c2e817","source":"// SPDX-License-Identifier: MIT\n// Beef MarketPlace Contracts v0.0.0 hello@mcdu.com\n\npragma solidity ^0.8.0;\n\nimport \"../Market.sol\";\nimport \"./SearchLib.sol\";\n\nbytes32 constant MARKETSEARCH = keccak256(\"MarketSearch\");\n\ncontract MarketSearch is Market, MarketPathReader {\n    using Array for address[];\n    using Array for uint64[];\n    using Array for uint256[];\n    using Array for bytes32[];\n    using MarketLib for address[];\n    using MarketLib for SolutionSetDesc;\n    using MarketLib for SolutionSet;\n    using MarketLib for Remainer[];\n    using MarketLib for Solution[];\n\n    function id() public view virtual override (Market) returns (bytes32) {return MARKETSEARCH;}\n\n    constructor(Repository rep_) Market(rep_) {}\n\n    uint256 constant MAXRECURSECALL = 20;\n\n    struct SearchArgTarget {\n        bytes32 currency;\n        uint256 mingranularity;\n        uint256 qty;\n        bool qtyismin;\n        bool qtyismax;\n        uint256 maxcount;\n        uint256[] delivery;\n    }\n    struct SearchArg {\n        uint256 maxquote;\n        uint256 maxavgquote;\n        uint256 maxtotal;\n        Solution[] used;\n    }\n    struct SearchPublicArgs {\n        uint256 granularity;\n        uint256 qty;\n        bool qtyismin;\n        bool qtyismax;\n        uint256 maxtotal;\n        uint256 maxquote;\n        uint256 maxavgquote;\n        uint256 maxcount;\n    }\n\n/*\n    function listPathFrom(\n        bytes32 from_\n    )\n        public\n        view\n        returns (bytes32[][] memory out_)\n    {\n        (bool _result, ) = rep.get(MARKET).staticcall(\n            abi.encodeWithSelector(\n                bytes4(keccak256(\"d_listPathFrom(bytes32)\")),\n                address(this),\n                from_            )\n        );\n        _return(_result);\n    }\n    function d_listPathFrom(\n        bytes32 from_\n    )\n        public\n        view\n        returns (bytes32[][] memory out_)\n    {\n        return\n            _listPathFrom(from_);\n    }\n*/\n/*\n    function __fromToQty(bytes32 from_, bytes32 to_)\n        public\n        view\n        returns (uint256)\n    {\n        return __fromToQtyEx(from_, to_, new uint256[](0));\n    }\n\n    function __fromToQtyEx(\n        bytes32 from_,\n        bytes32 to_,\n        uint256[] memory delivery_\n    ) private view returns (uint256 qty_) {\n        uint256[] storage orderids = _fromtoorders[BytesAndKeccakLib.pureBytes32Bytes32(from_, to_)];\n        uint len = orderids.length;\n        for (uint256 i = 0; i < len; i++) {\n            Order.Info storage order = _orders[orderids[i]];\n            if (\n                (Order.isExpired(order) == 0 ||\n                    Order.isExpired(order) >= block.timestamp) &&\n                Delivery(rep.get(DELIVERY)).orderDeliveryCompatible(order, delivery_)\n            ) {\n                Order.InfoPublic memory _orderpub = __order(orderids[i], true);\n                if (_orderpub.qty < _orderpub.granularity) continue;\n                qty_ += _orderpub.qty - (_orderpub.qty % _orderpub.granularity);\n            }\n        }\n    }\n\n    function __fromToExist(bytes32 from_, bytes32 to_)\n        public\n        view\n        returns (bool)\n    {\n        return __fromToExistEx(from_, to_, new uint256[](0));\n    }\n*/\n/*\n    function __fromToExistEx(\n        bytes32 from_,\n        bytes32 to_,\n        uint256[] memory delivery_\n    ) private view returns (bool) {\n        uint256[] storage orderids = _fromtoorders[BytesAndKeccakLib.pureBytes32Bytes32(from_, to_)];\n\n        uint len = orderids.length;\n        for (uint256 i = 0; i < len; i++) {\n            Order.Info storage order = _orders[orderids[i]];\n            if (\n                (Order.isExpired(order) == 0 ||\n                    Order.isExpired(order) >= block.timestamp) &&\n                Delivery(rep.get(DELIVERY)).orderDeliveryCompatible(order, delivery_)\n            ) {\n                return true;\n            }\n        }\n        return false;\n    }\n*/\n    function __fromToListEx(\n        bytes32 from_,\n        bytes32 to_,\n        uint256[] memory delivery_,\n        uint256 start_,\n        uint256 count_\n    ) private view returns (Solution[] memory out_) {\n        uint256 startcount = 0;\n        uint256 outcount = 0;\n        uint256[] storage orderids = _fromtoorders[BytesAndKeccakLib.pureBytes32Bytes32(from_, to_)];\n\n        uint len = orderids.length;\n        if (count_ == 0) count_ = len;\n        out_ = new Solution[](count_);\n\n        for (uint256 i = 0; i < len; i++) {\n            if (outcount >= count_) break;\n            Order.Info storage order = _orders[orderids[i]];\n           if (\n                (Order.isExpired(order) == 0 ||\n                    Order.isExpired(order) >= block.timestamp) &&\n                Delivery(rep.get(DELIVERY)).orderDeliveryCompatible(order, delivery_)\n            ) {\n                startcount++;\n                if (startcount <= start_) continue;\n                Order.InfoPublic memory _orderpub = __order(orderids[i], true);\n                if (_orderpub.qty < _orderpub.granularity) continue;\n                out_[outcount].orderid = _orderpub.orderid;\n                out_[outcount].addr = _orderpub.to;\n                out_[outcount].granularity = _orderpub.granularity;\n                out_[outcount].qty = _orderpub.qty;\n                out_[outcount].quote = _orderpub.quote;\n                outcount++;\n            }\n        }\n        assembly {\n            mstore(out_, outcount)\n        }\n    }\n\n    function d_search(\n        bytes32 from_,\n        bytes32 to_,\n        uint256[] calldata args_\n    )\n        public\n        view\n        returns (\n            Solution[] memory out_,\n            uint256 qty_,\n            Quote memory\n        )\n    {\n        //args_[0] = mingranularity_;\n        //args_[1] = qty_;\n        //args_[2] = qtyismin_;\n        //args_[2] = qtyismax_;\n        //args[3] = maxtotal;\n        //args_[4] = maxquote_;\n        //args_[5] = maxavgquote_;\n        //args_[6] = maxcount_;\n        uint256 deliverycount = 0;\n        uint len = args_.length-8;\n        for (; deliverycount < len; deliverycount++)\n            if (args_[8 + deliverycount] == 0) break;\n\n        uint256[] memory delivery = new uint256[](deliverycount);\n        for (uint256 i = 0; i < deliverycount; i++)\n            delivery[i] = args_[i + 8];\n\n        return\n            __search(\n                from_,\n                SearchArgTarget(\n                    to_,\n                    args_[0],\n                    args_[1],\n                    args_[2] != 0,\n                    args_[3] != 0,\n                    args_[7],\n                    delivery\n                ),\n                SearchArg(args_[5], args_[6], args_[4], new Solution[](0)),\n                false\n            );\n    }\n\n    function searchEx(\n        address from_,\n        uint256 fromid_,\n        address to_,\n        uint256 toid_,\n        SearchPublicArgs memory args_,\n        uint256[] memory delivery_\n    )\n        public\n        view\n        returns (\n            Solution[] memory,\n            uint256,\n            Quote memory\n        )\n    {\n        return\n            search(\n                rep.roCurrency(from_, fromid_),\n                rep.roCurrency(to_, toid_),\n                args_,\n                delivery_\n            );\n    }\n\n    function search(\n        bytes32 from_,\n        bytes32 to_,\n        SearchPublicArgs memory args_,\n        uint256[] memory delivery_\n    )\n        public\n        view\n        returns (\n            Solution[] memory,\n            uint256,\n            Quote memory\n        )\n    {\n        uint len = delivery_.length;\n        require(len <= 32, \"delivery array max size is 32\");\n\n        // stack to deep hack\n        uint256[40] memory args;\n        args[0] = args_.granularity;\n        args[1] = args_.qty;\n        args[2] = args_.qtyismin ? 1 : 0;\n        args[3] = args_.qtyismax ? 1 : 0;\n        args[4] = args_.maxtotal;\n        args[5] = args_.maxquote;\n        args[6] = args_.maxavgquote;\n        args[7] = args_.maxcount;\n        {\n            uint256 argptr = 8;\n            for (uint256 i = 0; i < len; i++)\n                if (delivery_[i] != 0) args[argptr++] = delivery_[i];\n        }\n        (bool _result, ) = rep.get(MARKET).staticcall(\n            abi.encodeWithSelector(\n                bytes4(keccak256(\"d_search(bytes32,bytes32,uint256[])\")),\n                address(this),\n                from_,\n                to_,\n                uint256(32 * 3),\n                uint256(args.length),\n                args\n            )\n        );\n        _return(_result);\n    }\n\n    /**\n     * @dev we search for direct solution from_ to target_.addr\n     * from_ is the source currency , from_ directly filtered by fromToListEx\n     * target_\n     *      target_.addr                    is the searched dest currency\n     *                                          addr is directly filtered by fromToListEx\n     *      target_.mingranularity          is the minimum granularity we are searching for\n     *                                          is used by the first filter\n     *      target_.qty                     is the qty we are search, it can be overshoot is cheaper to buy more\n     *      target_.delivery                is the filter for target delivery\n     *                                          delivery is directly filtered by fromToListEx\n     * searcharg_\n     *      searcharg_.maxquote                 is used by the first filter\n     *      searcharg_.maxavgquote\n     *      searcharg_.maxcount\n     *      searcharg_.used                 memorize the used of order\n     *      searcharg_.remainer IGNORED     should be removed from target_.qty before call\n     */\n    function __search(\n        bytes32 currency_,\n        SearchArgTarget memory target_,\n        SearchArg memory searcharg_,\n        bool rawoutput_\n    )\n        private\n        view\n        returns (\n            Solution[] memory out_,\n            uint256 qty_,\n            Quote memory quote_\n        )\n    {\n        // get all orders fromTo\n        out_ = __fromToListEx(\n            currency_,\n            target_.currency,\n            target_.delivery,\n            0,\n            0\n        );\n        // filters max quote and mingranularity\n        {\n            uint len = out_.length;\n            Solution[] memory filtered = new Solution[](len);\n            uint256 count = 0;\n            for (uint256 i; i < len; i++) {\n                //testing maxquote\n                require(out_[i].addr == target_.currency,\"__search out_[i].addr == target_.currency\");\n                if (\n                    (searcharg_.maxquote != 0) &&\n                    (out_[i].quote > searcharg_.maxquote)\n                ) continue;\n                if (out_[i].granularity < target_.mingranularity) continue;\n                //if (out_[i].qty < out_[i].granularity) continue;\n                if (out_[i].qty < searcharg_.used.getIdQty(out_[i].orderid))\n                    continue;\n                if (\n                    (out_[i].qty - searcharg_.used.getIdQty(out_[i].orderid)) <\n                    out_[i].granularity\n                ) continue;\n                if (\n                    target_.maxcount == 1 &&\n                    searcharg_.maxavgquote != 0 &&\n                    out_[i].quote > searcharg_.maxavgquote\n                ) continue;\n\n                filtered[count] = out_[i];\n                count++;\n            }\n            assembly {\n                mstore(filtered, count)\n            }\n            out_ = filtered;\n        }\n\n        /*out_ = out_.orderGranularity();\n        if (target_.qty != 0 && target_.qtyismin && (!target_.qtyismax))\n        {\n            target_.qty = MarketSearchLib.recurseSearchBestQty(\n                out_,\n                0,\n                target_,\n                searcharg_,\n                0\n            );\n        }*/\n        //return (out_, target_.qty, quote_);\n        (out_, qty_, quote_) = MarketSearchLib.recurseSearch(\n            out_,\n            0,\n            target_,\n            searcharg_,\n            new Solution[](0)\n        );\n        if (!rawoutput_) {\n            // aplying searcharg_.maxcount\n            out_ = out_.order();\n            if (target_.maxcount != 0 && out_.length > target_.maxcount) {\n                uint256 count = target_.maxcount;\n                assembly {\n                    mstore(out_, count)\n                }\n                (qty_, quote_) = out_.getQtyQuote();\n            }\n        }\n    }\n\n    function d_searchC(\n        bytes32 fromcurrency_,\n        bytes32 tocurrency_,\n        uint256[] calldata args_\n    ) public view returns (SolutionSet memory out_,Remainer[] memory remainerout_) {\n        //args_[0] = mingranularity_;\n        //args_[1] = qty_;\n        //args_[2] = qtyismin_;\n        //args_[2] = qtyismax_;\n        //args_[3] = maxtotal;\n        //args_[4] = maxquote_;\n        //args_[5] = maxavgquote_;\n        //args_[6] = maxcount_;\n        uint256 deliverycount = 0;\n        uint len = args_.length;\n        for (; deliverycount < len - 8; deliverycount++)\n            if (args_[8 + deliverycount] == 0) break;\n\n        uint256[] memory delivery = new uint256[](deliverycount);\n        for (uint256 i = 0; i < deliverycount; i++)\n            delivery[i] = args_[i + 8];\n\n        return\n            __searchC(\n                fromcurrency_,\n                MarketSearch.SearchArgTarget(\n                    tocurrency_,\n                    args_[0],\n                    args_[1],\n                    args_[2] != 0,\n                    args_[3] != 0,\n                    args_[7],\n                    delivery\n                ),\n                MarketSearch.SearchArg(\n                    args_[5],\n                    args_[6],\n                    args_[4],\n                    new Solution[](0)\n                ),\n                new Remainer[](0)\n            );\n    }\n\n    function searchCEx(\n        address from_,\n        uint256 fromid_,\n        address to_,\n        uint256 toid_,\n        SearchPublicArgs memory args_,\n        uint256[] memory delivery_\n    )\n        public\n        view\n        returns (\n            SolutionSet memory,Remainer[] memory\n        )\n    {\n        return\n            searchC(\n                rep.roCurrency(from_, fromid_),\n                rep.roCurrency(to_, toid_),\n                args_,\n                delivery_\n            );\n    }\n\n    function searchC(\n        bytes32 fromcurrency_,\n        bytes32 tocurrency_,\n        SearchPublicArgs memory args_,\n        uint256[] memory delivery_\n    )\n        public\n        view\n        returns (\n            SolutionSet memory,Remainer[] memory\n        )\n    {\n        uint len = delivery_.length;\n        require(len <= 32, \"delivery array max size is 32\");\n\n        // stack to deep hack\n        uint256[40] memory args;\n        args[0] = args_.granularity;\n        args[1] = args_.qty;\n        args[2] = args_.qtyismin ? 1 : 0;\n        args[3] = args_.qtyismax ? 1 : 0;\n        args[4] = args_.maxtotal;\n        args[5] = args_.maxquote;\n        args[6] = args_.maxavgquote;\n        args[7] = args_.maxcount;\n        {\n            uint256 argptr = 8;\n            for (uint256 i = 0; i < len; i++)\n                if (delivery_[i] != 0) args[argptr++] = delivery_[i];\n        }\n        (bool _result, ) = rep.get(MARKET).staticcall(\n            abi.encodeWithSelector(\n                bytes4(keccak256(\"d_searchC(bytes32,bytes32,uint256[])\")),\n                address(this),\n                fromcurrency_,\n                tocurrency_,\n                uint256(32 * 3),\n                uint256(args.length),\n                args\n            )\n        );\n        _return(_result);\n    }\n\n    function __searchCFollowPath(\n        bytes32[] memory path_,\n        MarketSearch.SearchArgTarget memory target_,\n        MarketSearch.SearchArg memory searcharg_,\n        Remainer[] memory remainer_\n    ) private view returns (SolutionSet memory out_) {\n        //uint len = path_.length;\n        require(path_.length >= 2, \"__searchCFollowPath path_.length>=2\");\n        require(path_[path_.length - 1]==target_.currency, \"__searchCFollowPath path_[path_.length - 1]==target_.currency\");\n\n        Solution[] memory solutions;\n        SolutionSetDesc memory desc;\n            \n        if (path_.length==2)\n        {\n            // no swap ->direct offer\n            (solutions, desc.qty, desc.quote) = __search(\n                path_[path_.length - 2],\n                target_,\n                searcharg_,\n                false\n            );\n            desc.count = solutions.length;\n            desc = desc.descCreateFromTo(\n                path_[path_.length - 2],\n                target_.currency\n            );\n        }\n        else\n        {\n            // get total swap qty\n            uint256 total = searcharg_.maxtotal; //+remainer_.get(path_[0]);\n            for (uint256 i = 1; i < path_.length - 1; i++) {\n                uint256 swapqty;\n                //Quote memory swapquote;\n                (, swapqty, ) = __search(\n                    path_[i - 1],\n                    MarketSearch.SearchArgTarget(\n                        path_[i],\n                        0,\n                        0,\n                        false,\n                        false,\n                        0,\n                        new uint256[](0) //TODO only virtual\n                    ),\n                    MarketSearch.SearchArg(0, 0, total, searcharg_.used),\n                    true\n                );\n                if (swapqty == 0) return out_;\n                total = swapqty +remainer_.get(path_[i]);\n            }\n\n            //get target \n            // searcharg.maxquote ignored\n            // searcharg.maxavgquote ignored\n            {\n                (solutions, desc.qty, desc.quote) = __search(\n                    path_[path_.length - 2],\n                    target_,\n                    MarketSearch.SearchArg(0, 0, total, searcharg_.used),\n                    false\n                );\n            }\n            if (desc.qty == 0) return out_;\n\n            //creating set\n            {\n                desc.count = solutions.length;\n                desc = desc.descCreateFromTo(\n                    path_[path_.length - 2],\n                    target_.currency\n                );\n            }\n            // treating swaps\n            total = (desc.qty*desc.quote.quoteavg) / 10**18; \n            for (uint256 i = path_.length - 2; i >0 ; i--) \n            {\n                Solution[] memory swapsolutions;\n                SolutionSetDesc memory swapdesc;\n                {\n                    MarketSearch.SearchArgTarget memory target;\n                    MarketSearch.SearchArg memory search;\n                    {\n                        //target = MarketSearch.SearchArgTarget(\n                        //    path_[i],\n                        //    0,\n                        //    total-remainer_.get(path_[i - 1]),\n                        //    true,\n                        //    false,\n                        //    0,\n                        //    new uint256[](0) //TODO only virtual\n                        //);\n                        //require(total>0,\"total>0\");\n                        target.currency = path_[i];\n                        target.qty = total - remainer_.get(path_[i]);\n                        //if (i>1)\n                        //    target.qty -= remainer_.get(path_[i - 1]);\n                        target.qtyismin = true;\n                        //search = MarketSearch.SearchArg(0, 0, 0, searcharg_.used);\n                        search.used = searcharg_.used;\n                    }\n                        \n                    (swapsolutions, swapdesc.qty, swapdesc.quote) = __search(\n                        path_[i - 1],\n                        target,\n                        search,\n                        false\n                    );\n                }\n                if (swapdesc.qty == 0) return out_;\n                total = (swapdesc.qty*swapdesc.quote.quoteavg) / 10**18; \n\n                (desc, solutions) = desc.descAddOffset(solutions,path_[i - 1],swapsolutions);\n                desc.quote.quotemin = (desc.quote.quotemin*swapdesc.quote.quotemin)/10**18;\n                desc.quote.quotemax = (desc.quote.quotemax*swapdesc.quote.quotemax)/10**18;\n                desc.quote.quoteavg = (desc.quote.quoteavg*((swapdesc.qty*swapdesc.quote.quoteavg)/desc.qty))/10**18;\n            }\n\n            //resulting out\n        }\n        out_ = out_.add(desc, solutions);\n    }\n\n    function __searchC(\n        bytes32 from_,\n        MarketSearch.SearchArgTarget memory target_,\n        MarketSearch.SearchArg memory searcharg_,\n        Remainer[] memory remainer_\n    ) private view returns (SolutionSet memory out_,Remainer[] memory remainerout_) {\n        remainerout_ = remainer_;\n        SolutionSet memory solpath;\n        {\n            bytes32[][] memory paths = _listPath(from_, target_.currency);\n            uint len = paths.length;\n            for (uint256 i; i < len; i++) {\n                SolutionSetDesc memory desc;\n                (, desc.qty, desc.quote) = __search(\n                    paths[i][paths[i].length - 2],\n                    target_,\n                    MarketSearch.SearchArg(0, 0, 0, searcharg_.used),\n                    false\n                );\n                if (desc.qty == 0) continue;\n                desc.path = paths[i];\n                solpath = solpath.add(desc, new Solution[](0));\n            }\n        }\n        uint pathlen = solpath.descs.length;\n        if (pathlen==0)\n            return (out_,remainerout_);\n        //return (solpath,remainerout_);\n\n        SearchArgTarget memory target;\n        {\n            target.currency = target_.currency;\n            target.mingranularity = target_.mingranularity;\n            target.qty = target_.qty;\n            target.qtyismin = target_.qtyismin;\n            target.qtyismax = target_.qtyismax;\n            target.maxcount = target_.maxcount; \n            target.delivery = target_.delivery;\n        }\n        SearchArg memory searcharg;\n        {\n            searcharg.maxquote = searcharg_.maxquote;\n            searcharg.maxavgquote = searcharg_.maxavgquote;\n            searcharg.maxtotal = searcharg_.maxtotal;\n            searcharg.used = searcharg_.used;\n        }\n        SolutionSet[] memory pathsolutions = new SolutionSet[](pathlen);\n\n        uint maxcount;\n        while (true)\n        {\n            searcharg.maxquote = searcharg_.maxquote;\n            target.maxcount = 1;\n            for (uint i; i < pathlen; i++) {\n                pathsolutions[i] = __searchCFollowPath(\n                    solpath.descs[i].path,\n                    target,\n                    searcharg,\n                    remainerout_\n                );\n                require(pathsolutions[i].descs.length<=1,\"PARANOIA __searchCFollowPath should return max 1 desc\");\n            }\n\n            uint quotebest=type(uint).max;\n            {\n                uint256 quotemin;\n                uint256 quotemax;\n\n\n                for (uint i; i < pathlen; i++) {\n                    if (pathsolutions[i].qty==0)\n                        continue;\n                    \n                    if (quotebest==type(uint).max || quotemin>pathsolutions[i].quote.quotemin)\n                    {\n                        if (quotebest!=type(uint).max && quotemin<pathsolutions[i].quote.quotemax)\n                            quotemax = quotemin;\n                        else\n                            quotemax = pathsolutions[i].quote.quotemax;\n                        quotebest = i;\n                        quotemin = pathsolutions[i].quote.quotemin;\n                    }\n                    else if (quotemax>pathsolutions[i].quote.quotemin)\n                        quotemax = pathsolutions[i].quote.quotemin;\n                }\n                if (quotebest==type(uint).max)\n                {\n                    //require(false,\"if (quotebest==type(uint).max)\");\n                    break;\n                }\n\n                searcharg.maxquote = quotemax; \n            }\n            SolutionSet memory selected;\n            //if (searcharg.maxquote>=pathsolutions[quotebest].quote.quotemax)\n            //    selected = pathsolutions[quotebest];\n            //else\n            {\n                selected = __searchCFollowPath(\n                    solpath.descs[quotebest].path,\n                    target,\n                    searcharg,\n                    remainerout_\n                );\n                require(selected.descs.length==1,\"PARANOIA __searchCFollowPath should return 1 desc\");\n            }\n            if (selected.qty ==0)\n            {\n                require(false,\"if (selected.qty ==0)\");\n                break;\n            }\n            out_ = out_.add(selected);\n            maxcount +=selected.solutions.length;\n            if (selected.descs[0].offset.length!=0)\n                maxcount -= selected.descs[0].offset[selected.descs[0].offset.length-1];\n            remainerout_ = remainerout_.update(selected.descs[0],selected.solutions);\n\n            searcharg.used = searcharg.used.add(selected.solutions);\n            searcharg.maxquote = searcharg_.maxquote;\n\n\n            if (target_.maxcount!=0)\n            {\n                if (maxcount>=target_.maxcount)\n                {\n                    require(false,\"if (maxcount>=target_.maxcount)\");\n                    break;\n                }\n                target.maxcount = target_.maxcount-maxcount;\n            }\n            if (target_.qty!=0)\n            {\n                if (selected.qty>=target_.qty)\n                {\n                    require(false,\"if (selected.qty>=target_.qty)\");\n                    break;\n                }\n                target.qty = target_.qty-selected.qty;\n            }\n            if (searcharg_.maxtotal!=0)\n            {\n                uint256 total = (out_.qty*out_.quote.quoteavg)/10**18;\n                if (total>=searcharg_.maxtotal)\n                {\n                    require(false,\"if (total>=searcharg_.maxtotal)\");\n                    break;\n                }\n                searcharg.maxtotal = searcharg_.maxtotal-total;\n            }\n            if (searcharg_.maxavgquote!=0)\n            {\n                /*if (\n                    searcharg_.maxavgquote != 0 &&\n                    in_[i].quote > searcharg_.maxavgquote\n                ) {\n                    uint256 deltaqty = ((((stack.getQty(stackcount) *\n                        searcharg_.maxavgquote) / 10**18) -\n                        stack.getTotal(stackcount)) * 10**18) /\n                        (in_[i].quote - searcharg_.maxavgquote);\n\n                    if (qty > deltaqty)\n                        qty = deltaqty - (deltaqty % in_[i].granularity);\n                }*/\n\n            }\n            //break;\n\n        }\n\n\n    }\n}\n","sourcePath":"contracts/Market/Reader/Search.sol","deployment":{"address":"0x9551Ee53d31FD95e6700D3A19343DfC81086467B","chainid":"9997","blockHeight":25172}}