{"abi":[{"inputs":[{"internalType":"contract Repository","name":"rep_","type":"address"}],"stateMutability":"nonpayable","type":"constructor","name":"constructor"},{"anonymous":false,"inputs":[{"indexed":true,"internalType":"address","name":"previousOwner","type":"address"},{"indexed":true,"internalType":"address","name":"newOwner","type":"address"}],"name":"OwnershipTransferred","type":"event"},{"anonymous":false,"inputs":[{"indexed":false,"internalType":"uint256","name":"count","type":"uint256"}],"name":"RandomRemaining","type":"event"},{"anonymous":false,"inputs":[{"indexed":false,"internalType":"uint256","name":"count","type":"uint256"}],"name":"RandomReset","type":"event"},{"stateMutability":"nonpayable","type":"fallback"},{"inputs":[],"name":"STOP","outputs":[{"internalType":"bool","name":"","type":"bool"}],"stateMutability":"view","type":"function"},{"inputs":[],"name":"STOPFOREVER","outputs":[{"internalType":"bool","name":"","type":"bool"}],"stateMutability":"view","type":"function"},{"inputs":[{"internalType":"uint256[256]","name":"newrandoms_","type":"uint256[256]"}],"name":"add","outputs":[],"stateMutability":"nonpayable","type":"function"},{"inputs":[],"name":"checkOperators","outputs":[],"stateMutability":"view","type":"function"},{"inputs":[],"name":"collect","outputs":[],"stateMutability":"nonpayable","type":"function"},{"inputs":[],"name":"count","outputs":[{"internalType":"uint256","name":"","type":"uint256"}],"stateMutability":"view","type":"function"},{"inputs":[],"name":"fee","outputs":[{"internalType":"uint256","name":"","type":"uint256"}],"stateMutability":"view","type":"function"},{"inputs":[{"internalType":"uint256","name":"random_","type":"uint256"}],"name":"get","outputs":[{"internalType":"uint256","name":"","type":"uint256"}],"stateMutability":"payable","type":"function"},{"inputs":[{"internalType":"uint256","name":"random_","type":"uint256"}],"name":"getfree","outputs":[{"internalType":"uint256","name":"","type":"uint256"}],"stateMutability":"view","type":"function"},{"inputs":[],"name":"id","outputs":[{"internalType":"bytes32","name":"","type":"bytes32"}],"stateMutability":"view","type":"function"},{"inputs":[],"name":"owner","outputs":[{"internalType":"address","name":"","type":"address"}],"stateMutability":"view","type":"function"},{"inputs":[],"name":"purgeall","outputs":[],"stateMutability":"nonpayable","type":"function"},{"inputs":[],"name":"renounceOwnership","outputs":[],"stateMutability":"nonpayable","type":"function"},{"inputs":[],"name":"rep","outputs":[{"internalType":"contract Repository","name":"","type":"address"}],"stateMutability":"view","type":"function"},{"inputs":[{"internalType":"uint256","name":"fee_","type":"uint256"}],"name":"setFee","outputs":[],"stateMutability":"nonpayable","type":"function"},{"inputs":[],"name":"setSTOP","outputs":[],"stateMutability":"nonpayable","type":"function"},{"inputs":[],"name":"setSTOPFOREVER","outputs":[],"stateMutability":"nonpayable","type":"function"},{"inputs":[{"internalType":"bytes4","name":"interfaceId","type":"bytes4"}],"name":"supportsInterface","outputs":[{"internalType":"bool","name":"","type":"bool"}],"stateMutability":"view","type":"function"},{"inputs":[{"internalType":"address","name":"newOwner","type":"address"}],"name":"transferOwnership","outputs":[],"stateMutability":"nonpayable","type":"function"},{"inputs":[],"name":"unsetSTOP","outputs":[],"stateMutability":"nonpayable","type":"function"}],"bytecode":"60a060405234801561001057600080fd5b5060405161132f38038061132f83398101604081905261002f916100a6565b806100393361004b565b6001600160a01b0316608052506100d6565b600080546001600160a01b038381166201000081810262010000600160b01b0319851617855560405193049190911692909183917f8be0079c531659141344cd1fd0a4f28419497f9722a3daafe3b4186f6b6457e091a35050565b6000602082840312156100b857600080fd5b81516001600160a01b03811681146100cf57600080fd5b9392505050565b60805161121b6101146000396000818161037201528181610438015281816104d60152818161067f015281816107ff01526108a0015261121b6000f3fe60806040526004361061011f5760003560e01c80639507d39a116100a0578063d693585811610064578063d693585814610394578063ddca3f43146103a9578063e5225381146103be578063f2fde38b146103d3578063f9c016d7146103f35761011f565b80639507d39a146102dd57806397962076146102f05780639e89a3531461030d578063af640d0f1461032d578063ccc07959146103605761011f565b806369fe0e2d116100e757806369fe0e2d14610246578063715018a61461026657806372ea61bf1461027b578063854ba99d146102905780638da5cb5b146102a55761011f565b806301ffc9a7146101b157806305d6bd9c146101e657806306661abd146101fd5780635bf3b5c71461021c5780635f5c5baa14610231575b34801561012b57600080fd5b50610134610413565b6000610144602460043684611046565b8080601f016020809104026020016040519081016040528093929190818152602001838380828437600092018290525060208501519495509250503660231981019150601f19016004838037816024600437600080826000875af4925050506101ac816105dd565b505050005b3480156101bd57600080fd5b506101d16101cc366004611070565b6105f7565b60405190151581526020015b60405180910390f35b3480156101f257600080fd5b506101fb61062e565b005b34801561020957600080fd5b506004545b6040519081526020016101dd565b34801561022857600080fd5b506101fb610645565b34801561023d57600080fd5b506101fb61065a565b34801561025257600080fd5b506101fb6102613660046110a1565b61076f565b34801561027257600080fd5b506101fb61077c565b34801561028757600080fd5b506101fb61078e565b34801561029c57600080fd5b506101d16107a8565b3480156102b157600080fd5b506000546201000090046001600160a01b03165b6040516001600160a01b0390911681526020016101dd565b61020e6102eb3660046110a1565b6107c6565b3480156102fc57600080fd5b50600054610100900460ff166101d1565b34801561031957600080fd5b506101fb6103283660046110ba565b610cb9565b34801561033957600080fd5b507f02dfe2d0485b616b61db1800f30f4a14b26754b328fa09ba4ec73ee7276766cc61020e565b34801561036c57600080fd5b506102c57f000000000000000000000000000000000000000000000000000000000000000081565b3480156103a057600080fd5b506101fb610cf2565b3480156103b557600080fd5b5060015461020e565b3480156103ca57600080fd5b506101fb610d0e565b3480156103df57600080fd5b506101fb6103ee3660046110e5565b610d45565b3480156103ff57600080fd5b5061020e61040e3660046110a1565b610dbb565b6000546001600160a01b0362010000909104163314806104c657506001600160a01b037f0000000000000000000000000000000000000000000000000000000000000000166316279055336040516001600160e01b031960e084901b1681526001600160a01b039091166004820152602401602060405180830381865afa1580156104a2573d6000803e3d6000fd5b505050506040513d601f19601f820116820180604052508101906104c6919061110e565b8061056457506001600160a01b037f000000000000000000000000000000000000000000000000000000000000000016636d70f7ae336040516001600160e01b031960e084901b1681526001600160a01b039091166004820152602401602060405180830381865afa158015610540573d6000803e3d6000fd5b505050506040513d601f19601f82011682018060405250810190610564919061110e565b6105db5760405162461bcd60e51b815260206004820152603960248201527f416c6c6f77616e63653a2063616c6c6572206d757374206265205265706f736960448201527f746f727920436f6e7472616374206f72204f70657261746f720000000000000060648201526084015b60405180910390fd5b565b3d6000803e8080156105ee573d6000f35b3d6000fd5b5050565b60006001600160e01b031982166301ffc9a760e01b148061062857506001600160e01b031982166315d3789560e31b145b92915050565b610636610413565b6105db6000805460ff19169055565b61064d610f3f565b6002546003556000600455565b6000546001600160a01b03620100009091041633148061070d57506001600160a01b037f000000000000000000000000000000000000000000000000000000000000000016636d70f7ae336040516001600160e01b031960e084901b1681526001600160a01b039091166004820152602401602060405180830381865afa1580156106e9573d6000803e3d6000fd5b505050506040513d601f19601f8201168201806040525081019061070d919061110e565b6105db5760405162461bcd60e51b815260206004820152602d60248201527f416c6c6f77616e63653a2063616c6c6572206d757374206265205265706f736960448201526c3a37b93c9027b832b930ba37b960991b60648201526084016105d2565b61077761065a565b600155565b610784610f3f565b6105db6000610fa0565b610796610413565b6105db6000805460ff19166001179055565b6000805460ff16806107c15750600054610100900460ff165b905090565b600080546201000090046001600160a01b03166001600160a01b0316336001600160a01b03161415801561088f57506001600160a01b037f0000000000000000000000000000000000000000000000000000000000000000166316279055336040516001600160e01b031960e084901b1681526001600160a01b039091166004820152602401602060405180830381865afa158015610869573d6000803e3d6000fd5b505050506040513d601f19601f8201168201806040525081019061088d919061110e565b155b801561093057506001600160a01b037f000000000000000000000000000000000000000000000000000000000000000016636d70f7ae336040516001600160e01b031960e084901b1681526001600160a01b039091166004820152602401602060405180830381865afa15801561090a573d6000803e3d6000fd5b505050506040513d601f19601f8201168201806040525081019061092e919061110e565b155b156109b4576001546109735760405162461bcd60e51b815260206004820152600c60248201526b19195cd858dd1a5d985d195960a21b60448201526064016105d2565b6001543410156109b45760405162461bcd60e51b815260206004820152600c60248201526b4d757374207061792066656560a01b60448201526064016105d2565b6000600a43116109c55760016109d0565b6109d0600a43611146565b90505b43811015610a24578281406040516020016109f8929190918252602082015260400190565b60408051601f198184030181529190528051602090910120925080610a1c8161115d565b9150506109d3565b50600554604051610a42918491602001918252602082015260400190565b60408051601f19818403018152919052805160209091012091506000610a6a6101008461118e565b905060045460001415610af357600060038190555b600254811015610aaa5760008181526006602052604081205580610aa28161115d565b915050610a7f565b50600254610aba906101006111b0565b60048190556040519081527f4fb4e4d112bce25d0aca6bdd84e71d7d25c103050c44fa82d66c6e954b2a15189060200160405180910390a15b60005b6101008160ff161015610c7a57600354818303905b600254811015610c7057600081815260066020526040902054600160ff84161b16610c685760008181526006602090815260408083208054600160ff881690811b9091179091556007909252909120906101008110610b6c57610b6c6111cf565b015495506000600a4311610b81576001610b86565b600a43035b90505b43811015610bd057868140604051602001610bae929190918252602082015260400190565b60408051601f1981840301815291905280516020909101209650600101610b89565b506005869055600480546000190190555b6003546000908152600660205260409020546000191415610c0a57600380546001019055610be1565b61010060045481610c1d57610c1d611178565b06610c5e577f387fd79753e961348c50d7984a0e877322575e20fa9d38ad8e88747e65c893f3600454604051610c5591815260200190565b60405180910390a15b5093949350505050565b600101610b0b565b5050600101610af6565b5060405162461bcd60e51b81526020600482015260136024820152726e6f2072616e646f6d20617661696c61626c6560681b60448201526064016105d2565b610cc161065a565b60048054610100908101909155600280546001810190915560009081526007602052604090206105f3918390610ffb565b610cfa610f3f565b6105db6000805461ff001916610100179055565b610d16610f3f565b60405133904780156108fc02916000818181858888f19350505050158015610d42573d6000803e3d6000fd5b50565b610d4d610f3f565b6001600160a01b038116610db25760405162461bcd60e51b815260206004820152602660248201527f4f776e61626c653a206e6577206f776e657220697320746865207a65726f206160448201526564647265737360d01b60648201526084016105d2565b610d4281610fa0565b60008060144311610dcd576001610dd8565b610dd8601443611146565b90505b43811015610e2c57828140604051602001610e00929190918252602082015260400190565b60408051601f198184030181529190528051602090910120925080610e248161115d565b915050610ddb565b50600554604051610e4a918491602001918252602082015260400190565b6040516020818303038152906040528051906020012060001c915060025460035414610f3b576000600254610100028381610e8757610e87611178565b0660ff169050600760006101008381610ea257610ea2611178565b0481526020019081526020016000206101008281610ec257610ec2611178565b066101008110610ed457610ed46111cf565b01549250600060144311610ee9576001610eee565b601443035b90505b43811015610f3857838140604051602001610f16929190918252602082015260400190565b60408051601f1981840301815291905280516020909101209350600101610ef1565b50505b5090565b6000546001600160a01b03620100009091041633146105db5760405162461bcd60e51b815260206004820152601f60248201527f416c6c6f77616e63653a2063616c6c6572206d757374206265204f776e65720060448201526064016105d2565b600080546001600160a01b038381166201000081810262010000600160b01b0319851617855560405193049190911692909183917f8be0079c531659141344cd1fd0a4f28419497f9722a3daafe3b4186f6b6457e091a35050565b82610100810192821561102a579160200282015b8281111561102a57823582559160200191906001019061100f565b50610f3b9291505b80821115610f3b5760008155600101611032565b6000808585111561105657600080fd5b8386111561106357600080fd5b5050820193919092039150565b60006020828403121561108257600080fd5b81356001600160e01b03198116811461109a57600080fd5b9392505050565b6000602082840312156110b357600080fd5b5035919050565b60006120008083850312156110ce57600080fd5b8381840111156110dd57600080fd5b509092915050565b6000602082840312156110f757600080fd5b81356001600160a01b038116811461109a57600080fd5b60006020828403121561112057600080fd5b8151801515811461109a57600080fd5b634e487b7160e01b600052601160045260246000fd5b60008282101561115857611158611130565b500390565b600060001982141561117157611171611130565b5060010190565b634e487b7160e01b600052601260045260246000fd5b6000826111ab57634e487b7160e01b600052601260045260246000fd5b500690565b60008160001904831182151516156111ca576111ca611130565b500290565b634e487b7160e01b600052603260045260246000fdfea2646970667358221220dce0490be1809b3fe33680747f9e98afef4d89e5f9fdfd1048d0bdd15b87deb464736f6c634300080b0033","bytecodeSha1":"5c343e958d9718e6cb11bd0a9c5b852e554b4082","compiler":{"evm_version":"istanbul","optimizer":{"enabled":true,"runs":200},"version":"0.8.11+commit.d7f03943"},"contractName":"Random","language":"Solidity","natspec":{"kind":"dev","methods":{"ownerOf()":{"details":"Returns the address of the current owner."},"renounceOwnership()":{"details":"Leaves the contract without owner. It will not be possible to call `onlyOwner` functions anymore. Can only be called by the current owner. NOTE: Renouncing ownership will leave the contract without an owner, thereby removing any functionality that is only available to the owner."},"supportsInterface(bytes4)":{"details":"Returns true if this contract implements the interface defined by `interfaceId`. See the corresponding https://eips.ethereum.org/EIPS/eip-165#how-interfaces-are-identified[EIP section] to learn more about how these ids are created. This function call must use less than 30 000 gas."},"transferOwnership(address)":{"details":"Transfers ownership of the contract to a new account (`newOwner`). Can only be called by the current owner."}},"version":1},"opcodes":"PUSH1 0x80 PUSH1 0x40 MSTORE PUSH1 0x4 CALLDATASIZE LT PUSH2 0x11F JUMPI PUSH1 0x0 CALLDATALOAD PUSH1 0xE0 SHR DUP1 PUSH4 0x9507D39A GT PUSH2 0xA0 JUMPI DUP1 PUSH4 0xD6935858 GT PUSH2 0x64 JUMPI DUP1 PUSH4 0xD6935858 EQ PUSH2 0x394 JUMPI DUP1 PUSH4 0xDDCA3F43 EQ PUSH2 0x3A9 JUMPI DUP1 PUSH4 0xE5225381 EQ PUSH2 0x3BE JUMPI DUP1 PUSH4 0xF2FDE38B EQ PUSH2 0x3D3 JUMPI DUP1 PUSH4 0xF9C016D7 EQ PUSH2 0x3F3 JUMPI PUSH2 0x11F JUMP JUMPDEST DUP1 PUSH4 0x9507D39A EQ PUSH2 0x2DD JUMPI DUP1 PUSH4 0x97962076 EQ PUSH2 0x2F0 JUMPI DUP1 PUSH4 0x9E89A353 EQ PUSH2 0x30D JUMPI DUP1 PUSH4 0xAF640D0F EQ PUSH2 0x32D JUMPI DUP1 PUSH4 0xCCC07959 EQ PUSH2 0x360 JUMPI PUSH2 0x11F JUMP JUMPDEST DUP1 PUSH4 0x69FE0E2D GT PUSH2 0xE7 JUMPI DUP1 PUSH4 0x69FE0E2D EQ PUSH2 0x246 JUMPI DUP1 PUSH4 0x715018A6 EQ PUSH2 0x266 JUMPI DUP1 PUSH4 0x72EA61BF EQ PUSH2 0x27B JUMPI DUP1 PUSH4 0x854BA99D EQ PUSH2 0x290 JUMPI DUP1 PUSH4 0x8DA5CB5B EQ PUSH2 0x2A5 JUMPI PUSH2 0x11F JUMP JUMPDEST DUP1 PUSH4 0x1FFC9A7 EQ PUSH2 0x1B1 JUMPI DUP1 PUSH4 0x5D6BD9C EQ PUSH2 0x1E6 JUMPI DUP1 PUSH4 0x6661ABD EQ PUSH2 0x1FD JUMPI DUP1 PUSH4 0x5BF3B5C7 EQ PUSH2 0x21C JUMPI DUP1 PUSH4 0x5F5C5BAA EQ PUSH2 0x231 JUMPI JUMPDEST CALLVALUE DUP1 ISZERO PUSH2 0x12B JUMPI PUSH1 0x0 DUP1 REVERT JUMPDEST POP PUSH2 0x134 PUSH2 0x413 JUMP JUMPDEST PUSH1 0x0 PUSH2 0x144 PUSH1 0x24 PUSH1 0x4 CALLDATASIZE DUP5 PUSH2 0x1046 JUMP JUMPDEST DUP1 DUP1 PUSH1 0x1F ADD PUSH1 0x20 DUP1 SWAP2 DIV MUL PUSH1 0x20 ADD PUSH1 0x40 MLOAD SWAP1 DUP2 ADD PUSH1 0x40 MSTORE DUP1 SWAP4 SWAP3 SWAP2 SWAP1 DUP2 DUP2 MSTORE PUSH1 0x20 ADD DUP4 DUP4 DUP1 DUP3 DUP5 CALLDATACOPY PUSH1 0x0 SWAP3 ADD DUP3 SWAP1 MSTORE POP PUSH1 0x20 DUP6 ADD MLOAD SWAP5 SWAP6 POP SWAP3 POP POP CALLDATASIZE PUSH1 0x23 NOT DUP2 ADD SWAP2 POP PUSH1 0x1F NOT ADD PUSH1 0x4 DUP4 DUP1 CALLDATACOPY DUP2 PUSH1 0x24 PUSH1 0x4 CALLDATACOPY PUSH1 0x0 DUP1 DUP3 PUSH1 0x0 DUP8 GAS DELEGATECALL SWAP3 POP POP POP PUSH2 0x1AC DUP2 PUSH2 0x5DD JUMP JUMPDEST POP POP POP STOP JUMPDEST CALLVALUE DUP1 ISZERO PUSH2 0x1BD JUMPI PUSH1 0x0 DUP1 REVERT JUMPDEST POP PUSH2 0x1D1 PUSH2 0x1CC CALLDATASIZE PUSH1 0x4 PUSH2 0x1070 JUMP JUMPDEST PUSH2 0x5F7 JUMP JUMPDEST PUSH1 0x40 MLOAD SWAP1 ISZERO ISZERO DUP2 MSTORE PUSH1 0x20 ADD JUMPDEST PUSH1 0x40 MLOAD DUP1 SWAP2 SUB SWAP1 RETURN JUMPDEST CALLVALUE DUP1 ISZERO PUSH2 0x1F2 JUMPI PUSH1 0x0 DUP1 REVERT JUMPDEST POP PUSH2 0x1FB PUSH2 0x62E JUMP JUMPDEST STOP JUMPDEST CALLVALUE DUP1 ISZERO PUSH2 0x209 JUMPI PUSH1 0x0 DUP1 REVERT JUMPDEST POP PUSH1 0x4 SLOAD JUMPDEST PUSH1 0x40 MLOAD SWAP1 DUP2 MSTORE PUSH1 0x20 ADD PUSH2 0x1DD JUMP JUMPDEST CALLVALUE DUP1 ISZERO PUSH2 0x228 JUMPI PUSH1 0x0 DUP1 REVERT JUMPDEST POP PUSH2 0x1FB PUSH2 0x645 JUMP JUMPDEST CALLVALUE DUP1 ISZERO PUSH2 0x23D JUMPI PUSH1 0x0 DUP1 REVERT JUMPDEST POP PUSH2 0x1FB PUSH2 0x65A JUMP JUMPDEST CALLVALUE DUP1 ISZERO PUSH2 0x252 JUMPI PUSH1 0x0 DUP1 REVERT JUMPDEST POP PUSH2 0x1FB PUSH2 0x261 CALLDATASIZE PUSH1 0x4 PUSH2 0x10A1 JUMP JUMPDEST PUSH2 0x76F JUMP JUMPDEST CALLVALUE DUP1 ISZERO PUSH2 0x272 JUMPI PUSH1 0x0 DUP1 REVERT JUMPDEST POP PUSH2 0x1FB PUSH2 0x77C JUMP JUMPDEST CALLVALUE DUP1 ISZERO PUSH2 0x287 JUMPI PUSH1 0x0 DUP1 REVERT JUMPDEST POP PUSH2 0x1FB PUSH2 0x78E JUMP JUMPDEST CALLVALUE DUP1 ISZERO PUSH2 0x29C JUMPI PUSH1 0x0 DUP1 REVERT JUMPDEST POP PUSH2 0x1D1 PUSH2 0x7A8 JUMP JUMPDEST CALLVALUE DUP1 ISZERO PUSH2 0x2B1 JUMPI PUSH1 0x0 DUP1 REVERT JUMPDEST POP PUSH1 0x0 SLOAD PUSH3 0x10000 SWAP1 DIV PUSH1 0x1 PUSH1 0x1 PUSH1 0xA0 SHL SUB AND JUMPDEST PUSH1 0x40 MLOAD PUSH1 0x1 PUSH1 0x1 PUSH1 0xA0 SHL SUB SWAP1 SWAP2 AND DUP2 MSTORE PUSH1 0x20 ADD PUSH2 0x1DD JUMP JUMPDEST PUSH2 0x20E PUSH2 0x2EB CALLDATASIZE PUSH1 0x4 PUSH2 0x10A1 JUMP JUMPDEST PUSH2 0x7C6 JUMP JUMPDEST CALLVALUE DUP1 ISZERO PUSH2 0x2FC JUMPI PUSH1 0x0 DUP1 REVERT JUMPDEST POP PUSH1 0x0 SLOAD PUSH2 0x100 SWAP1 DIV PUSH1 0xFF AND PUSH2 0x1D1 JUMP JUMPDEST CALLVALUE DUP1 ISZERO PUSH2 0x319 JUMPI PUSH1 0x0 DUP1 REVERT JUMPDEST POP PUSH2 0x1FB PUSH2 0x328 CALLDATASIZE PUSH1 0x4 PUSH2 0x10BA JUMP JUMPDEST PUSH2 0xCB9 JUMP JUMPDEST CALLVALUE DUP1 ISZERO PUSH2 0x339 JUMPI PUSH1 0x0 DUP1 REVERT JUMPDEST POP PUSH32 0x2DFE2D0485B616B61DB1800F30F4A14B26754B328FA09BA4EC73EE7276766CC PUSH2 0x20E JUMP JUMPDEST CALLVALUE DUP1 ISZERO PUSH2 0x36C JUMPI PUSH1 0x0 DUP1 REVERT JUMPDEST POP PUSH2 0x2C5 PUSH32 0x0 DUP2 JUMP JUMPDEST CALLVALUE DUP1 ISZERO PUSH2 0x3A0 JUMPI PUSH1 0x0 DUP1 REVERT JUMPDEST POP PUSH2 0x1FB PUSH2 0xCF2 JUMP JUMPDEST CALLVALUE DUP1 ISZERO PUSH2 0x3B5 JUMPI PUSH1 0x0 DUP1 REVERT JUMPDEST POP PUSH1 0x1 SLOAD PUSH2 0x20E JUMP JUMPDEST CALLVALUE DUP1 ISZERO PUSH2 0x3CA JUMPI PUSH1 0x0 DUP1 REVERT JUMPDEST POP PUSH2 0x1FB PUSH2 0xD0E JUMP JUMPDEST CALLVALUE DUP1 ISZERO PUSH2 0x3DF JUMPI PUSH1 0x0 DUP1 REVERT JUMPDEST POP PUSH2 0x1FB PUSH2 0x3EE CALLDATASIZE PUSH1 0x4 PUSH2 0x10E5 JUMP JUMPDEST PUSH2 0xD45 JUMP JUMPDEST CALLVALUE DUP1 ISZERO PUSH2 0x3FF JUMPI PUSH1 0x0 DUP1 REVERT JUMPDEST POP PUSH2 0x20E PUSH2 0x40E CALLDATASIZE PUSH1 0x4 PUSH2 0x10A1 JUMP JUMPDEST PUSH2 0xDBB JUMP JUMPDEST PUSH1 0x0 SLOAD PUSH1 0x1 PUSH1 0x1 PUSH1 0xA0 SHL SUB PUSH3 0x10000 SWAP1 SWAP2 DIV AND CALLER EQ DUP1 PUSH2 0x4C6 JUMPI POP PUSH1 0x1 PUSH1 0x1 PUSH1 0xA0 SHL SUB PUSH32 0x0 AND PUSH4 0x16279055 CALLER PUSH1 0x40 MLOAD PUSH1 0x1 PUSH1 0x1 PUSH1 0xE0 SHL SUB NOT PUSH1 0xE0 DUP5 SWAP1 SHL AND DUP2 MSTORE PUSH1 0x1 PUSH1 0x1 PUSH1 0xA0 SHL SUB SWAP1 SWAP2 AND PUSH1 0x4 DUP3 ADD MSTORE PUSH1 0x24 ADD PUSH1 0x20 PUSH1 0x40 MLOAD DUP1 DUP4 SUB DUP2 DUP7 GAS STATICCALL ISZERO DUP1 ISZERO PUSH2 0x4A2 JUMPI RETURNDATASIZE PUSH1 0x0 DUP1 RETURNDATACOPY RETURNDATASIZE PUSH1 0x0 REVERT JUMPDEST POP POP POP POP PUSH1 0x40 MLOAD RETURNDATASIZE PUSH1 0x1F NOT PUSH1 0x1F DUP3 ADD AND DUP3 ADD DUP1 PUSH1 0x40 MSTORE POP DUP2 ADD SWAP1 PUSH2 0x4C6 SWAP2 SWAP1 PUSH2 0x110E JUMP JUMPDEST DUP1 PUSH2 0x564 JUMPI POP PUSH1 0x1 PUSH1 0x1 PUSH1 0xA0 SHL SUB PUSH32 0x0 AND PUSH4 0x6D70F7AE CALLER PUSH1 0x40 MLOAD PUSH1 0x1 PUSH1 0x1 PUSH1 0xE0 SHL SUB NOT PUSH1 0xE0 DUP5 SWAP1 SHL AND DUP2 MSTORE PUSH1 0x1 PUSH1 0x1 PUSH1 0xA0 SHL SUB SWAP1 SWAP2 AND PUSH1 0x4 DUP3 ADD MSTORE PUSH1 0x24 ADD PUSH1 0x20 PUSH1 0x40 MLOAD DUP1 DUP4 SUB DUP2 DUP7 GAS STATICCALL ISZERO DUP1 ISZERO PUSH2 0x540 JUMPI RETURNDATASIZE PUSH1 0x0 DUP1 RETURNDATACOPY RETURNDATASIZE PUSH1 0x0 REVERT JUMPDEST POP POP POP POP PUSH1 0x40 MLOAD RETURNDATASIZE PUSH1 0x1F NOT PUSH1 0x1F DUP3 ADD AND DUP3 ADD DUP1 PUSH1 0x40 MSTORE POP DUP2 ADD SWAP1 PUSH2 0x564 SWAP2 SWAP1 PUSH2 0x110E JUMP JUMPDEST PUSH2 0x5DB JUMPI PUSH1 0x40 MLOAD PUSH3 0x461BCD PUSH1 0xE5 SHL DUP2 MSTORE PUSH1 0x20 PUSH1 0x4 DUP3 ADD MSTORE PUSH1 0x39 PUSH1 0x24 DUP3 ADD MSTORE PUSH32 0x416C6C6F77616E63653A2063616C6C6572206D757374206265205265706F7369 PUSH1 0x44 DUP3 ADD MSTORE PUSH32 0x746F727920436F6E7472616374206F72204F70657261746F7200000000000000 PUSH1 0x64 DUP3 ADD MSTORE PUSH1 0x84 ADD JUMPDEST PUSH1 0x40 MLOAD DUP1 SWAP2 SUB SWAP1 REVERT JUMPDEST JUMP JUMPDEST RETURNDATASIZE PUSH1 0x0 DUP1 RETURNDATACOPY DUP1 DUP1 ISZERO PUSH2 0x5EE JUMPI RETURNDATASIZE PUSH1 0x0 RETURN JUMPDEST RETURNDATASIZE PUSH1 0x0 REVERT JUMPDEST POP POP JUMP JUMPDEST PUSH1 0x0 PUSH1 0x1 PUSH1 0x1 PUSH1 0xE0 SHL SUB NOT DUP3 AND PUSH4 0x1FFC9A7 PUSH1 0xE0 SHL EQ DUP1 PUSH2 0x628 JUMPI POP PUSH1 0x1 PUSH1 0x1 PUSH1 0xE0 SHL SUB NOT DUP3 AND PUSH4 0x15D37895 PUSH1 0xE3 SHL EQ JUMPDEST SWAP3 SWAP2 POP POP JUMP JUMPDEST PUSH2 0x636 PUSH2 0x413 JUMP JUMPDEST PUSH2 0x5DB PUSH1 0x0 DUP1 SLOAD PUSH1 0xFF NOT AND SWAP1 SSTORE JUMP JUMPDEST PUSH2 0x64D PUSH2 0xF3F JUMP JUMPDEST PUSH1 0x2 SLOAD PUSH1 0x3 SSTORE PUSH1 0x0 PUSH1 0x4 SSTORE JUMP JUMPDEST PUSH1 0x0 SLOAD PUSH1 0x1 PUSH1 0x1 PUSH1 0xA0 SHL SUB PUSH3 0x10000 SWAP1 SWAP2 DIV AND CALLER EQ DUP1 PUSH2 0x70D JUMPI POP PUSH1 0x1 PUSH1 0x1 PUSH1 0xA0 SHL SUB PUSH32 0x0 AND PUSH4 0x6D70F7AE CALLER PUSH1 0x40 MLOAD PUSH1 0x1 PUSH1 0x1 PUSH1 0xE0 SHL SUB NOT PUSH1 0xE0 DUP5 SWAP1 SHL AND DUP2 MSTORE PUSH1 0x1 PUSH1 0x1 PUSH1 0xA0 SHL SUB SWAP1 SWAP2 AND PUSH1 0x4 DUP3 ADD MSTORE PUSH1 0x24 ADD PUSH1 0x20 PUSH1 0x40 MLOAD DUP1 DUP4 SUB DUP2 DUP7 GAS STATICCALL ISZERO DUP1 ISZERO PUSH2 0x6E9 JUMPI RETURNDATASIZE PUSH1 0x0 DUP1 RETURNDATACOPY RETURNDATASIZE PUSH1 0x0 REVERT JUMPDEST POP POP POP POP PUSH1 0x40 MLOAD RETURNDATASIZE PUSH1 0x1F NOT PUSH1 0x1F DUP3 ADD AND DUP3 ADD DUP1 PUSH1 0x40 MSTORE POP DUP2 ADD SWAP1 PUSH2 0x70D SWAP2 SWAP1 PUSH2 0x110E JUMP JUMPDEST PUSH2 0x5DB JUMPI PUSH1 0x40 MLOAD PUSH3 0x461BCD PUSH1 0xE5 SHL DUP2 MSTORE PUSH1 0x20 PUSH1 0x4 DUP3 ADD MSTORE PUSH1 0x2D PUSH1 0x24 DUP3 ADD MSTORE PUSH32 0x416C6C6F77616E63653A2063616C6C6572206D757374206265205265706F7369 PUSH1 0x44 DUP3 ADD MSTORE PUSH13 0x3A37B93C9027B832B930BA37B9 PUSH1 0x99 SHL PUSH1 0x64 DUP3 ADD MSTORE PUSH1 0x84 ADD PUSH2 0x5D2 JUMP JUMPDEST PUSH2 0x777 PUSH2 0x65A JUMP JUMPDEST PUSH1 0x1 SSTORE JUMP JUMPDEST PUSH2 0x784 PUSH2 0xF3F JUMP JUMPDEST PUSH2 0x5DB PUSH1 0x0 PUSH2 0xFA0 JUMP JUMPDEST PUSH2 0x796 PUSH2 0x413 JUMP JUMPDEST PUSH2 0x5DB PUSH1 0x0 DUP1 SLOAD PUSH1 0xFF NOT AND PUSH1 0x1 OR SWAP1 SSTORE JUMP JUMPDEST PUSH1 0x0 DUP1 SLOAD PUSH1 0xFF AND DUP1 PUSH2 0x7C1 JUMPI POP PUSH1 0x0 SLOAD PUSH2 0x100 SWAP1 DIV PUSH1 0xFF AND JUMPDEST SWAP1 POP SWAP1 JUMP JUMPDEST PUSH1 0x0 DUP1 SLOAD PUSH3 0x10000 SWAP1 DIV PUSH1 0x1 PUSH1 0x1 PUSH1 0xA0 SHL SUB AND PUSH1 0x1 PUSH1 0x1 PUSH1 0xA0 SHL SUB AND CALLER PUSH1 0x1 PUSH1 0x1 PUSH1 0xA0 SHL SUB AND EQ ISZERO DUP1 ISZERO PUSH2 0x88F JUMPI POP PUSH1 0x1 PUSH1 0x1 PUSH1 0xA0 SHL SUB PUSH32 0x0 AND PUSH4 0x16279055 CALLER PUSH1 0x40 MLOAD PUSH1 0x1 PUSH1 0x1 PUSH1 0xE0 SHL SUB NOT PUSH1 0xE0 DUP5 SWAP1 SHL AND DUP2 MSTORE PUSH1 0x1 PUSH1 0x1 PUSH1 0xA0 SHL SUB SWAP1 SWAP2 AND PUSH1 0x4 DUP3 ADD MSTORE PUSH1 0x24 ADD PUSH1 0x20 PUSH1 0x40 MLOAD DUP1 DUP4 SUB DUP2 DUP7 GAS STATICCALL ISZERO DUP1 ISZERO PUSH2 0x869 JUMPI RETURNDATASIZE PUSH1 0x0 DUP1 RETURNDATACOPY RETURNDATASIZE PUSH1 0x0 REVERT JUMPDEST POP POP POP POP PUSH1 0x40 MLOAD RETURNDATASIZE PUSH1 0x1F NOT PUSH1 0x1F DUP3 ADD AND DUP3 ADD DUP1 PUSH1 0x40 MSTORE POP DUP2 ADD SWAP1 PUSH2 0x88D SWAP2 SWAP1 PUSH2 0x110E JUMP JUMPDEST ISZERO JUMPDEST DUP1 ISZERO PUSH2 0x930 JUMPI POP PUSH1 0x1 PUSH1 0x1 PUSH1 0xA0 SHL SUB PUSH32 0x0 AND PUSH4 0x6D70F7AE CALLER PUSH1 0x40 MLOAD PUSH1 0x1 PUSH1 0x1 PUSH1 0xE0 SHL SUB NOT PUSH1 0xE0 DUP5 SWAP1 SHL AND DUP2 MSTORE PUSH1 0x1 PUSH1 0x1 PUSH1 0xA0 SHL SUB SWAP1 SWAP2 AND PUSH1 0x4 DUP3 ADD MSTORE PUSH1 0x24 ADD PUSH1 0x20 PUSH1 0x40 MLOAD DUP1 DUP4 SUB DUP2 DUP7 GAS STATICCALL ISZERO DUP1 ISZERO PUSH2 0x90A JUMPI RETURNDATASIZE PUSH1 0x0 DUP1 RETURNDATACOPY RETURNDATASIZE PUSH1 0x0 REVERT JUMPDEST POP POP POP POP PUSH1 0x40 MLOAD RETURNDATASIZE PUSH1 0x1F NOT PUSH1 0x1F DUP3 ADD AND DUP3 ADD DUP1 PUSH1 0x40 MSTORE POP DUP2 ADD SWAP1 PUSH2 0x92E SWAP2 SWAP1 PUSH2 0x110E JUMP JUMPDEST ISZERO JUMPDEST ISZERO PUSH2 0x9B4 JUMPI PUSH1 0x1 SLOAD PUSH2 0x973 JUMPI PUSH1 0x40 MLOAD PUSH3 0x461BCD PUSH1 0xE5 SHL DUP2 MSTORE PUSH1 0x20 PUSH1 0x4 DUP3 ADD MSTORE PUSH1 0xC PUSH1 0x24 DUP3 ADD MSTORE PUSH12 0x19195CD858DD1A5D985D1959 PUSH1 0xA2 SHL PUSH1 0x44 DUP3 ADD MSTORE PUSH1 0x64 ADD PUSH2 0x5D2 JUMP JUMPDEST PUSH1 0x1 SLOAD CALLVALUE LT ISZERO PUSH2 0x9B4 JUMPI PUSH1 0x40 MLOAD PUSH3 0x461BCD PUSH1 0xE5 SHL DUP2 MSTORE PUSH1 0x20 PUSH1 0x4 DUP3 ADD MSTORE PUSH1 0xC PUSH1 0x24 DUP3 ADD MSTORE PUSH12 0x4D7573742070617920666565 PUSH1 0xA0 SHL PUSH1 0x44 DUP3 ADD MSTORE PUSH1 0x64 ADD PUSH2 0x5D2 JUMP JUMPDEST PUSH1 0x0 PUSH1 0xA NUMBER GT PUSH2 0x9C5 JUMPI PUSH1 0x1 PUSH2 0x9D0 JUMP JUMPDEST PUSH2 0x9D0 PUSH1 0xA NUMBER PUSH2 0x1146 JUMP JUMPDEST SWAP1 POP JUMPDEST NUMBER DUP2 LT ISZERO PUSH2 0xA24 JUMPI DUP3 DUP2 BLOCKHASH PUSH1 0x40 MLOAD PUSH1 0x20 ADD PUSH2 0x9F8 SWAP3 SWAP2 SWAP1 SWAP2 DUP3 MSTORE PUSH1 0x20 DUP3 ADD MSTORE PUSH1 0x40 ADD SWAP1 JUMP JUMPDEST PUSH1 0x40 DUP1 MLOAD PUSH1 0x1F NOT DUP2 DUP5 SUB ADD DUP2 MSTORE SWAP2 SWAP1 MSTORE DUP1 MLOAD PUSH1 0x20 SWAP1 SWAP2 ADD KECCAK256 SWAP3 POP DUP1 PUSH2 0xA1C DUP2 PUSH2 0x115D JUMP JUMPDEST SWAP2 POP POP PUSH2 0x9D3 JUMP JUMPDEST POP PUSH1 0x5 SLOAD PUSH1 0x40 MLOAD PUSH2 0xA42 SWAP2 DUP5 SWAP2 PUSH1 0x20 ADD SWAP2 DUP3 MSTORE PUSH1 0x20 DUP3 ADD MSTORE PUSH1 0x40 ADD SWAP1 JUMP JUMPDEST PUSH1 0x40 DUP1 MLOAD PUSH1 0x1F NOT DUP2 DUP5 SUB ADD DUP2 MSTORE SWAP2 SWAP1 MSTORE DUP1 MLOAD PUSH1 0x20 SWAP1 SWAP2 ADD KECCAK256 SWAP2 POP PUSH1 0x0 PUSH2 0xA6A PUSH2 0x100 DUP5 PUSH2 0x118E JUMP JUMPDEST SWAP1 POP PUSH1 0x4 SLOAD PUSH1 0x0 EQ ISZERO PUSH2 0xAF3 JUMPI PUSH1 0x0 PUSH1 0x3 DUP2 SWAP1 SSTORE JUMPDEST PUSH1 0x2 SLOAD DUP2 LT ISZERO PUSH2 0xAAA JUMPI PUSH1 0x0 DUP2 DUP2 MSTORE PUSH1 0x6 PUSH1 0x20 MSTORE PUSH1 0x40 DUP2 KECCAK256 SSTORE DUP1 PUSH2 0xAA2 DUP2 PUSH2 0x115D JUMP JUMPDEST SWAP2 POP POP PUSH2 0xA7F JUMP JUMPDEST POP PUSH1 0x2 SLOAD PUSH2 0xABA SWAP1 PUSH2 0x100 PUSH2 0x11B0 JUMP JUMPDEST PUSH1 0x4 DUP2 SWAP1 SSTORE PUSH1 0x40 MLOAD SWAP1 DUP2 MSTORE PUSH32 0x4FB4E4D112BCE25D0ACA6BDD84E71D7D25C103050C44FA82D66C6E954B2A1518 SWAP1 PUSH1 0x20 ADD PUSH1 0x40 MLOAD DUP1 SWAP2 SUB SWAP1 LOG1 JUMPDEST PUSH1 0x0 JUMPDEST PUSH2 0x100 DUP2 PUSH1 0xFF AND LT ISZERO PUSH2 0xC7A JUMPI PUSH1 0x3 SLOAD DUP2 DUP4 SUB SWAP1 JUMPDEST PUSH1 0x2 SLOAD DUP2 LT ISZERO PUSH2 0xC70 JUMPI PUSH1 0x0 DUP2 DUP2 MSTORE PUSH1 0x6 PUSH1 0x20 MSTORE PUSH1 0x40 SWAP1 KECCAK256 SLOAD PUSH1 0x1 PUSH1 0xFF DUP5 AND SHL AND PUSH2 0xC68 JUMPI PUSH1 0x0 DUP2 DUP2 MSTORE PUSH1 0x6 PUSH1 0x20 SWAP1 DUP2 MSTORE PUSH1 0x40 DUP1 DUP4 KECCAK256 DUP1 SLOAD PUSH1 0x1 PUSH1 0xFF DUP9 AND SWAP1 DUP2 SHL SWAP1 SWAP2 OR SWAP1 SWAP2 SSTORE PUSH1 0x7 SWAP1 SWAP3 MSTORE SWAP1 SWAP2 KECCAK256 SWAP1 PUSH2 0x100 DUP2 LT PUSH2 0xB6C JUMPI PUSH2 0xB6C PUSH2 0x11CF JUMP JUMPDEST ADD SLOAD SWAP6 POP PUSH1 0x0 PUSH1 0xA NUMBER GT PUSH2 0xB81 JUMPI PUSH1 0x1 PUSH2 0xB86 JUMP JUMPDEST PUSH1 0xA NUMBER SUB JUMPDEST SWAP1 POP JUMPDEST NUMBER DUP2 LT ISZERO PUSH2 0xBD0 JUMPI DUP7 DUP2 BLOCKHASH PUSH1 0x40 MLOAD PUSH1 0x20 ADD PUSH2 0xBAE SWAP3 SWAP2 SWAP1 SWAP2 DUP3 MSTORE PUSH1 0x20 DUP3 ADD MSTORE PUSH1 0x40 ADD SWAP1 JUMP JUMPDEST PUSH1 0x40 DUP1 MLOAD PUSH1 0x1F NOT DUP2 DUP5 SUB ADD DUP2 MSTORE SWAP2 SWAP1 MSTORE DUP1 MLOAD PUSH1 0x20 SWAP1 SWAP2 ADD KECCAK256 SWAP7 POP PUSH1 0x1 ADD PUSH2 0xB89 JUMP JUMPDEST POP PUSH1 0x5 DUP7 SWAP1 SSTORE PUSH1 0x4 DUP1 SLOAD PUSH1 0x0 NOT ADD SWAP1 SSTORE JUMPDEST PUSH1 0x3 SLOAD PUSH1 0x0 SWAP1 DUP2 MSTORE PUSH1 0x6 PUSH1 0x20 MSTORE PUSH1 0x40 SWAP1 KECCAK256 SLOAD PUSH1 0x0 NOT EQ ISZERO PUSH2 0xC0A JUMPI PUSH1 0x3 DUP1 SLOAD PUSH1 0x1 ADD SWAP1 SSTORE PUSH2 0xBE1 JUMP JUMPDEST PUSH2 0x100 PUSH1 0x4 SLOAD DUP2 PUSH2 0xC1D JUMPI PUSH2 0xC1D PUSH2 0x1178 JUMP JUMPDEST MOD PUSH2 0xC5E JUMPI PUSH32 0x387FD79753E961348C50D7984A0E877322575E20FA9D38AD8E88747E65C893F3 PUSH1 0x4 SLOAD PUSH1 0x40 MLOAD PUSH2 0xC55 SWAP2 DUP2 MSTORE PUSH1 0x20 ADD SWAP1 JUMP JUMPDEST PUSH1 0x40 MLOAD DUP1 SWAP2 SUB SWAP1 LOG1 JUMPDEST POP SWAP4 SWAP5 SWAP4 POP POP POP POP JUMP JUMPDEST PUSH1 0x1 ADD PUSH2 0xB0B JUMP JUMPDEST POP POP PUSH1 0x1 ADD PUSH2 0xAF6 JUMP JUMPDEST POP PUSH1 0x40 MLOAD PUSH3 0x461BCD PUSH1 0xE5 SHL DUP2 MSTORE PUSH1 0x20 PUSH1 0x4 DUP3 ADD MSTORE PUSH1 0x13 PUSH1 0x24 DUP3 ADD MSTORE PUSH19 0x6E6F2072616E646F6D20617661696C61626C65 PUSH1 0x68 SHL PUSH1 0x44 DUP3 ADD MSTORE PUSH1 0x64 ADD PUSH2 0x5D2 JUMP JUMPDEST PUSH2 0xCC1 PUSH2 0x65A JUMP JUMPDEST PUSH1 0x4 DUP1 SLOAD PUSH2 0x100 SWAP1 DUP2 ADD SWAP1 SWAP2 SSTORE PUSH1 0x2 DUP1 SLOAD PUSH1 0x1 DUP2 ADD SWAP1 SWAP2 SSTORE PUSH1 0x0 SWAP1 DUP2 MSTORE PUSH1 0x7 PUSH1 0x20 MSTORE PUSH1 0x40 SWAP1 KECCAK256 PUSH2 0x5F3 SWAP2 DUP4 SWAP1 PUSH2 0xFFB JUMP JUMPDEST PUSH2 0xCFA PUSH2 0xF3F JUMP JUMPDEST PUSH2 0x5DB PUSH1 0x0 DUP1 SLOAD PUSH2 0xFF00 NOT AND PUSH2 0x100 OR SWAP1 SSTORE JUMP JUMPDEST PUSH2 0xD16 PUSH2 0xF3F JUMP JUMPDEST PUSH1 0x40 MLOAD CALLER SWAP1 SELFBALANCE DUP1 ISZERO PUSH2 0x8FC MUL SWAP2 PUSH1 0x0 DUP2 DUP2 DUP2 DUP6 DUP9 DUP9 CALL SWAP4 POP POP POP POP ISZERO DUP1 ISZERO PUSH2 0xD42 JUMPI RETURNDATASIZE PUSH1 0x0 DUP1 RETURNDATACOPY RETURNDATASIZE PUSH1 0x0 REVERT JUMPDEST POP JUMP JUMPDEST PUSH2 0xD4D PUSH2 0xF3F JUMP JUMPDEST PUSH1 0x1 PUSH1 0x1 PUSH1 0xA0 SHL SUB DUP2 AND PUSH2 0xDB2 JUMPI PUSH1 0x40 MLOAD PUSH3 0x461BCD PUSH1 0xE5 SHL DUP2 MSTORE PUSH1 0x20 PUSH1 0x4 DUP3 ADD MSTORE PUSH1 0x26 PUSH1 0x24 DUP3 ADD MSTORE PUSH32 0x4F776E61626C653A206E6577206F776E657220697320746865207A65726F2061 PUSH1 0x44 DUP3 ADD MSTORE PUSH6 0x646472657373 PUSH1 0xD0 SHL PUSH1 0x64 DUP3 ADD MSTORE PUSH1 0x84 ADD PUSH2 0x5D2 JUMP JUMPDEST PUSH2 0xD42 DUP2 PUSH2 0xFA0 JUMP JUMPDEST PUSH1 0x0 DUP1 PUSH1 0x14 NUMBER GT PUSH2 0xDCD JUMPI PUSH1 0x1 PUSH2 0xDD8 JUMP JUMPDEST PUSH2 0xDD8 PUSH1 0x14 NUMBER PUSH2 0x1146 JUMP JUMPDEST SWAP1 POP JUMPDEST NUMBER DUP2 LT ISZERO PUSH2 0xE2C JUMPI DUP3 DUP2 BLOCKHASH PUSH1 0x40 MLOAD PUSH1 0x20 ADD PUSH2 0xE00 SWAP3 SWAP2 SWAP1 SWAP2 DUP3 MSTORE PUSH1 0x20 DUP3 ADD MSTORE PUSH1 0x40 ADD SWAP1 JUMP JUMPDEST PUSH1 0x40 DUP1 MLOAD PUSH1 0x1F NOT DUP2 DUP5 SUB ADD DUP2 MSTORE SWAP2 SWAP1 MSTORE DUP1 MLOAD PUSH1 0x20 SWAP1 SWAP2 ADD KECCAK256 SWAP3 POP DUP1 PUSH2 0xE24 DUP2 PUSH2 0x115D JUMP JUMPDEST SWAP2 POP POP PUSH2 0xDDB JUMP JUMPDEST POP PUSH1 0x5 SLOAD PUSH1 0x40 MLOAD PUSH2 0xE4A SWAP2 DUP5 SWAP2 PUSH1 0x20 ADD SWAP2 DUP3 MSTORE PUSH1 0x20 DUP3 ADD MSTORE PUSH1 0x40 ADD SWAP1 JUMP JUMPDEST PUSH1 0x40 MLOAD PUSH1 0x20 DUP2 DUP4 SUB SUB DUP2 MSTORE SWAP1 PUSH1 0x40 MSTORE DUP1 MLOAD SWAP1 PUSH1 0x20 ADD KECCAK256 PUSH1 0x0 SHR SWAP2 POP PUSH1 0x2 SLOAD PUSH1 0x3 SLOAD EQ PUSH2 0xF3B JUMPI PUSH1 0x0 PUSH1 0x2 SLOAD PUSH2 0x100 MUL DUP4 DUP2 PUSH2 0xE87 JUMPI PUSH2 0xE87 PUSH2 0x1178 JUMP JUMPDEST MOD PUSH1 0xFF AND SWAP1 POP PUSH1 0x7 PUSH1 0x0 PUSH2 0x100 DUP4 DUP2 PUSH2 0xEA2 JUMPI PUSH2 0xEA2 PUSH2 0x1178 JUMP JUMPDEST DIV DUP2 MSTORE PUSH1 0x20 ADD SWAP1 DUP2 MSTORE PUSH1 0x20 ADD PUSH1 0x0 KECCAK256 PUSH2 0x100 DUP3 DUP2 PUSH2 0xEC2 JUMPI PUSH2 0xEC2 PUSH2 0x1178 JUMP JUMPDEST MOD PUSH2 0x100 DUP2 LT PUSH2 0xED4 JUMPI PUSH2 0xED4 PUSH2 0x11CF JUMP JUMPDEST ADD SLOAD SWAP3 POP PUSH1 0x0 PUSH1 0x14 NUMBER GT PUSH2 0xEE9 JUMPI PUSH1 0x1 PUSH2 0xEEE JUMP JUMPDEST PUSH1 0x14 NUMBER SUB JUMPDEST SWAP1 POP JUMPDEST NUMBER DUP2 LT ISZERO PUSH2 0xF38 JUMPI DUP4 DUP2 BLOCKHASH PUSH1 0x40 MLOAD PUSH1 0x20 ADD PUSH2 0xF16 SWAP3 SWAP2 SWAP1 SWAP2 DUP3 MSTORE PUSH1 0x20 DUP3 ADD MSTORE PUSH1 0x40 ADD SWAP1 JUMP JUMPDEST PUSH1 0x40 DUP1 MLOAD PUSH1 0x1F NOT DUP2 DUP5 SUB ADD DUP2 MSTORE SWAP2 SWAP1 MSTORE DUP1 MLOAD PUSH1 0x20 SWAP1 SWAP2 ADD KECCAK256 SWAP4 POP PUSH1 0x1 ADD PUSH2 0xEF1 JUMP JUMPDEST POP POP JUMPDEST POP SWAP1 JUMP JUMPDEST PUSH1 0x0 SLOAD PUSH1 0x1 PUSH1 0x1 PUSH1 0xA0 SHL SUB PUSH3 0x10000 SWAP1 SWAP2 DIV AND CALLER EQ PUSH2 0x5DB JUMPI PUSH1 0x40 MLOAD PUSH3 0x461BCD PUSH1 0xE5 SHL DUP2 MSTORE PUSH1 0x20 PUSH1 0x4 DUP3 ADD MSTORE PUSH1 0x1F PUSH1 0x24 DUP3 ADD MSTORE PUSH32 0x416C6C6F77616E63653A2063616C6C6572206D757374206265204F776E657200 PUSH1 0x44 DUP3 ADD MSTORE PUSH1 0x64 ADD PUSH2 0x5D2 JUMP JUMPDEST PUSH1 0x0 DUP1 SLOAD PUSH1 0x1 PUSH1 0x1 PUSH1 0xA0 SHL SUB DUP4 DUP2 AND PUSH3 0x10000 DUP2 DUP2 MUL PUSH3 0x10000 PUSH1 0x1 PUSH1 0xB0 SHL SUB NOT DUP6 AND OR DUP6 SSTORE PUSH1 0x40 MLOAD SWAP4 DIV SWAP2 SWAP1 SWAP2 AND SWAP3 SWAP1 SWAP2 DUP4 SWAP2 PUSH32 0x8BE0079C531659141344CD1FD0A4F28419497F9722A3DAAFE3B4186F6B6457E0 SWAP2 LOG3 POP POP JUMP JUMPDEST DUP3 PUSH2 0x100 DUP2 ADD SWAP3 DUP3 ISZERO PUSH2 0x102A JUMPI SWAP2 PUSH1 0x20 MUL DUP3 ADD JUMPDEST DUP3 DUP2 GT ISZERO PUSH2 0x102A JUMPI DUP3 CALLDATALOAD DUP3 SSTORE SWAP2 PUSH1 0x20 ADD SWAP2 SWAP1 PUSH1 0x1 ADD SWAP1 PUSH2 0x100F JUMP JUMPDEST POP PUSH2 0xF3B SWAP3 SWAP2 POP JUMPDEST DUP1 DUP3 GT ISZERO PUSH2 0xF3B JUMPI PUSH1 0x0 DUP2 SSTORE PUSH1 0x1 ADD PUSH2 0x1032 JUMP JUMPDEST PUSH1 0x0 DUP1 DUP6 DUP6 GT ISZERO PUSH2 0x1056 JUMPI PUSH1 0x0 DUP1 REVERT JUMPDEST DUP4 DUP7 GT ISZERO PUSH2 0x1063 JUMPI PUSH1 0x0 DUP1 REVERT JUMPDEST POP POP DUP3 ADD SWAP4 SWAP2 SWAP1 SWAP3 SUB SWAP2 POP JUMP JUMPDEST PUSH1 0x0 PUSH1 0x20 DUP3 DUP5 SUB SLT ISZERO PUSH2 0x1082 JUMPI PUSH1 0x0 DUP1 REVERT JUMPDEST DUP2 CALLDATALOAD PUSH1 0x1 PUSH1 0x1 PUSH1 0xE0 SHL SUB NOT DUP2 AND DUP2 EQ PUSH2 0x109A JUMPI PUSH1 0x0 DUP1 REVERT JUMPDEST SWAP4 SWAP3 POP POP POP JUMP JUMPDEST PUSH1 0x0 PUSH1 0x20 DUP3 DUP5 SUB SLT ISZERO PUSH2 0x10B3 JUMPI PUSH1 0x0 DUP1 REVERT JUMPDEST POP CALLDATALOAD SWAP2 SWAP1 POP JUMP JUMPDEST PUSH1 0x0 PUSH2 0x2000 DUP1 DUP4 DUP6 SUB SLT ISZERO PUSH2 0x10CE JUMPI PUSH1 0x0 DUP1 REVERT JUMPDEST DUP4 DUP2 DUP5 ADD GT ISZERO PUSH2 0x10DD JUMPI PUSH1 0x0 DUP1 REVERT JUMPDEST POP SWAP1 SWAP3 SWAP2 POP POP JUMP JUMPDEST PUSH1 0x0 PUSH1 0x20 DUP3 DUP5 SUB SLT ISZERO PUSH2 0x10F7 JUMPI PUSH1 0x0 DUP1 REVERT JUMPDEST DUP2 CALLDATALOAD PUSH1 0x1 PUSH1 0x1 PUSH1 0xA0 SHL SUB DUP2 AND DUP2 EQ PUSH2 0x109A JUMPI PUSH1 0x0 DUP1 REVERT JUMPDEST PUSH1 0x0 PUSH1 0x20 DUP3 DUP5 SUB SLT ISZERO PUSH2 0x1120 JUMPI PUSH1 0x0 DUP1 REVERT JUMPDEST DUP2 MLOAD DUP1 ISZERO ISZERO DUP2 EQ PUSH2 0x109A JUMPI PUSH1 0x0 DUP1 REVERT JUMPDEST PUSH4 0x4E487B71 PUSH1 0xE0 SHL PUSH1 0x0 MSTORE PUSH1 0x11 PUSH1 0x4 MSTORE PUSH1 0x24 PUSH1 0x0 REVERT JUMPDEST PUSH1 0x0 DUP3 DUP3 LT ISZERO PUSH2 0x1158 JUMPI PUSH2 0x1158 PUSH2 0x1130 JUMP JUMPDEST POP SUB SWAP1 JUMP JUMPDEST PUSH1 0x0 PUSH1 0x0 NOT DUP3 EQ ISZERO PUSH2 0x1171 JUMPI PUSH2 0x1171 PUSH2 0x1130 JUMP JUMPDEST POP PUSH1 0x1 ADD SWAP1 JUMP JUMPDEST PUSH4 0x4E487B71 PUSH1 0xE0 SHL PUSH1 0x0 MSTORE PUSH1 0x12 PUSH1 0x4 MSTORE PUSH1 0x24 PUSH1 0x0 REVERT JUMPDEST PUSH1 0x0 DUP3 PUSH2 0x11AB JUMPI PUSH4 0x4E487B71 PUSH1 0xE0 SHL PUSH1 0x0 MSTORE PUSH1 0x12 PUSH1 0x4 MSTORE PUSH1 0x24 PUSH1 0x0 REVERT JUMPDEST POP MOD SWAP1 JUMP JUMPDEST PUSH1 0x0 DUP2 PUSH1 0x0 NOT DIV DUP4 GT DUP3 ISZERO ISZERO AND ISZERO PUSH2 0x11CA JUMPI PUSH2 0x11CA PUSH2 0x1130 JUMP JUMPDEST POP MUL SWAP1 JUMP JUMPDEST PUSH4 0x4E487B71 PUSH1 0xE0 SHL PUSH1 0x0 MSTORE PUSH1 0x32 PUSH1 0x4 MSTORE PUSH1 0x24 PUSH1 0x0 REVERT INVALID LOG2 PUSH5 0x6970667358 0x22 SLT KECCAK256 0xDC 0xE0 0x49 SIGNEXTEND 0xE1 DUP1 SWAP12 EXTCODEHASH 0xE3 CALLDATASIZE DUP1 PUSH21 0x7F9E98AFEF4D89E5F9FDFD1048D0BDD15B87DEB464 PUSH20 0x6F6C634300080B00330000000000000000000000 ","sha1":"9c847a15c3f68cae25e56663cc35d1617f4ab4db","source":"// SPDX-License-Identifier: MIT\n// Beef MarketPlace Contracts v0.0.0 hello@mcdu.com\n\npragma solidity ^0.8.0;\n\nimport \"../Repository/Repository.sol\";\n\nbytes32 constant RANDOM = keccak256(\"Random\");\n\ncontract Random is RepositoryContract {\n\n    function id() public view returns (bytes32) {return RANDOM;}\n\n    uint256 private _fee;\n    uint256 private _ptr;\n    uint256 private _ptrstart;\n    uint256 private _count;\n    uint256 private _lastrandom;\n\n    mapping(uint256 => uint256) private _usedrandoms;\n    mapping(uint256 => uint256[256]) private _randoms;\n\n    event RandomRemaining(uint256 count);\n    event RandomReset(uint256 count);\n\n    constructor(Repository rep_) RepositoryContract(rep_) {}\n\n    function setFee(uint256 fee_) public onlyOperators {\n        _fee = fee_;\n    }\n\n    function fee() public view returns (uint256) {\n        return _fee;\n    }\n\n    function count() public view returns (uint256) {\n        return _count;\n    }\n\n    function purgeall() public onlyOwner {\n        _ptrstart = _ptr;\n        _count = 0;\n    }\n\n    function collect() public onlyOwner {\n        payable(_msgSender()).transfer(address(this).balance);\n    }\n\n    function add(uint256[256] calldata newrandoms_) public onlyOperators {\n        unchecked {\n            _count += 256;\n            _randoms[_ptr++] = newrandoms_;\n        }\n    }\n\n    function get(uint256 random_) public payable returns (uint256) {\n        if (\n            _msgSender() != ownerOf() &&\n            !rep.isContract(_msgSender()) &&\n            !rep.isOperator(_msgSender())\n        ) {\n            require(_fee != 0, \"desactivated\");\n            require(msg.value >= _fee, \"Must pay fee\");\n        }\n        for (\n            uint256 i = block.number > 10 ? block.number - 10 : 1;\n            i < block.number;\n            i++\n        ) random_ = uint256(keccak256(abi.encode(random_, blockhash(i))));\n        random_ = uint256(keccak256(abi.encode(random_, _lastrandom)));\n        uint8 k = uint8(random_ % 256);\n        if (_count == 0) {\n            _ptrstart = 0;\n            for (uint256 p = _ptrstart; p < _ptr; p++) delete _usedrandoms[p];\n            _count = _ptr * 256;\n            emit RandomReset(_count);\n        }\n        unchecked {\n            for (uint8 b = 0; b < 256; b++) {\n                uint8 ki = k - b;\n                for (uint256 p = _ptrstart; p < _ptr; p++)\n                    if (_usedrandoms[p] & (1 << ki) == 0) {\n                        _usedrandoms[p] |= 1 << ki;\n\n                        random_ = _randoms[p][ki];\n                        for (\n                            uint256 i = block.number > 10\n                                ? block.number - 10\n                                : 1;\n                            i < block.number;\n                            i++\n                        )\n                            random_ = uint256(\n                                keccak256(abi.encode(random_, blockhash(i)))\n                            );\n                        _lastrandom = random_;\n                        _count--;\n                        while (_usedrandoms[_ptrstart] == type(uint256).max)\n                            _ptrstart++;\n                        if (_count % 256 == 0) emit RandomRemaining(_count);\n                        return random_;\n                    }\n            }\n            require(false, \"no random available\");\n        }\n    }\n\n    function getfree(uint256 random_) public view returns (uint256) {\n        for (\n            uint256 i = block.number > 20 ? block.number - 20 : 1;\n            i < block.number;\n            i++\n        ) random_ = uint256(keccak256(abi.encode(random_, blockhash(i))));\n        random_ = uint256(keccak256(abi.encode(random_, _lastrandom)));\n        unchecked {\n            if (_ptrstart != _ptr) {\n                uint256 k = uint8(random_ % (256 * _ptr));\n                random_ = _randoms[k / 256][k % 256];\n                for (\n                    uint256 i = block.number > 20 ? block.number - 20 : 1;\n                    i < block.number;\n                    i++\n                )\n                    random_ = uint256(\n                        keccak256(abi.encode(random_, blockhash(i)))\n                    );\n            }\n        }\n        return random_;\n    }\n}\n","sourcePath":"contracts/Random/Random.sol","type":"contract","deployment":{"address":"0xA7FD3e537e3a111413B9B7b4Bfe4dF757B35B782","chainid":"9997","blockHeight":8875}}