{"abi":[{"inputs":[{"internalType":"address","name":"addr_","type":"address"},{"internalType":"uint256","name":"v_","type":"uint256"}],"name":"AddressUInt256ToBytes32Array","outputs":[{"internalType":"bytes32[]","name":"out_","type":"bytes32[]"}],"stateMutability":"pure","type":"function"},{"inputs":[{"internalType":"bytes32","name":"v_","type":"bytes32"},{"internalType":"address","name":"addr_","type":"address"}],"name":"Bytes32AddressToBytes32Array","outputs":[{"internalType":"bytes32[]","name":"out_","type":"bytes32[]"}],"stateMutability":"pure","type":"function"},{"inputs":[{"internalType":"bytes32[]","name":"in_","type":"bytes32[]"}],"name":"Bytes32ArrayToAddressUInt256","outputs":[{"internalType":"address","name":"addr_","type":"address"},{"internalType":"uint256","name":"v_","type":"uint256"}],"stateMutability":"pure","type":"function"},{"inputs":[{"internalType":"bytes32[]","name":"in_","type":"bytes32[]"}],"name":"Bytes32ArrayToBytes","outputs":[{"internalType":"bytes","name":"out_","type":"bytes"}],"stateMutability":"pure","type":"function"},{"inputs":[{"internalType":"bytes32[]","name":"in_","type":"bytes32[]"}],"name":"Bytes32ArrayToBytes32Address","outputs":[{"internalType":"bytes32","name":"v_","type":"bytes32"},{"internalType":"address","name":"addr_","type":"address"}],"stateMutability":"pure","type":"function"},{"inputs":[{"internalType":"bytes32[]","name":"in_","type":"bytes32[]"}],"name":"Bytes32ArrayToBytes32Bytes32","outputs":[{"internalType":"bytes32","name":"v1_","type":"bytes32"},{"internalType":"bytes32","name":"v2_","type":"bytes32"}],"stateMutability":"pure","type":"function"},{"inputs":[{"internalType":"bytes32","name":"v1_","type":"bytes32"},{"internalType":"bytes32","name":"v2_","type":"bytes32"}],"name":"Bytes32Bytes32ToBytes32Array","outputs":[{"internalType":"bytes32[]","name":"out_","type":"bytes32[]"}],"stateMutability":"pure","type":"function"},{"inputs":[{"internalType":"bytes","name":"in_","type":"bytes"}],"name":"BytesToBytes32Array","outputs":[{"internalType":"bytes32[]","name":"out_","type":"bytes32[]"}],"stateMutability":"pure","type":"function"},{"inputs":[{"internalType":"address","name":"addr_","type":"address"},{"internalType":"uint256","name":"v_","type":"uint256"}],"name":"pureAddressUInt256","outputs":[{"internalType":"bytes32","name":"k_","type":"bytes32"}],"stateMutability":"pure","type":"function"},{"inputs":[{"internalType":"bytes","name":"in_","type":"bytes"}],"name":"pureBytes","outputs":[{"internalType":"bytes32","name":"k_","type":"bytes32"}],"stateMutability":"pure","type":"function"},{"inputs":[{"internalType":"bytes32","name":"v_","type":"bytes32"},{"internalType":"address","name":"addr_","type":"address"}],"name":"pureBytes32Address","outputs":[{"internalType":"bytes32","name":"k_","type":"bytes32"}],"stateMutability":"pure","type":"function"},{"inputs":[{"internalType":"bytes32[]","name":"in_","type":"bytes32[]"}],"name":"pureBytes32Array","outputs":[{"internalType":"bytes32","name":"k_","type":"bytes32"}],"stateMutability":"pure","type":"function"},{"inputs":[{"internalType":"bytes32","name":"v1_","type":"bytes32"},{"internalType":"bytes32","name":"v2_","type":"bytes32"}],"name":"pureBytes32Bytes32","outputs":[{"internalType":"bytes32","name":"k_","type":"bytes32"}],"stateMutability":"pure","type":"function"},{"inputs":[{"internalType":"string","name":"in_","type":"string"}],"name":"pureString","outputs":[{"internalType":"bytes32","name":"k_","type":"bytes32"}],"stateMutability":"pure","type":"function"}],"bytecode":"610b5761003a600b82828239805160001a60731461002d57634e487b7160e01b600052600060045260246000fd5b30600052607381538281f3fe73000000000000000000000000000000000000000030146080604052600436106100f45760003560e01c80638a46cfc411610096578063a09853c811610070578063a09853c81461021c578063ab60961a1461024e578063d5f0b04d14610261578063e07f20dd1461027457600080fd5b80638a46cfc4146101c65780639566d370146101d95780639ac1b345146101ec57600080fd5b80632431a7cf116100d25780632431a7cf146101675780633d98b1121461018757806363de9f0c146101a057806376254ff9146101b357600080fd5b80630a5a570c146100f95780630de874ed146101265780631eb650e714610146575b600080fd5b61010c610107366004610801565b610287565b604080519283526020830191909152015b60405180910390f35b6101396101343660046108c3565b610347565b60405161011d91906108ed565b610159610154366004610931565b6103bc565b60405190815260200161011d565b61017a610175366004610801565b6103d2565b60405161011d919061095d565b610159610195366004610a0a565b805160209091012090565b6101396101ae366004610931565b610456565b6101596101c1366004610a5b565b6104b6565b6101396101d4366004610a5b565b6104c1565b6101596101e7366004610a0a565b610515565b6101ff6101fa366004610801565b610526565b604080519283526001600160a01b0390911660208301520161011d565b61022f61022a366004610801565b6105e4565b604080516001600160a01b03909316835260208301919091520161011d565b61013961025c366004610a0a565b610693565b61015961026f3660046108c3565b61079d565b610159610282366004610801565b6107ac565b6000808251600214610308576040805162461bcd60e51b81526020600482015260248101919091527f4279746573416e644b656363616b4c696220427974657333324172726179546f60448201527f427974657333324279746573333220496e76616c6964205265736f6c76696e6760648201526084015b60405180910390fd5b8260008151811061031b5761031b610a7d565b602002602001015191508260018151811061033857610338610a7d565b60200260200101519050915091565b6040805160028082526060808301845292602083019080368337019050509050826001600160a01b031660001b8160008151811061038757610387610a7d565b6020026020010181815250508160001b816001815181106103aa576103aa610a7d565b60200260200101818152505092915050565b60006103cb6102828484610456565b9392505050565b6060815160206103e29190610aa9565b67ffffffffffffffff8111156103fa576103fa6107ba565b6040519080825280601f01601f191660200182016040528015610424576020820181803683370190505b50905060015b82518111610450576020810283810151908301528061044881610ac8565b91505061042a565b50919050565b6040805160028082526060808301845292602083019080368337019050509050828160008151811061048a5761048a610a7d565b602002602001018181525050816001600160a01b031660001b816001815181106103aa576103aa610a7d565b60006103cb61028284845b604080516002808252606080830184529260208301908036833701905050905082816000815181106104f5576104f5610a7d565b60200260200101818152505081816001815181106103aa576103aa610a7d565b805160208201206000905b92915050565b60008082516002146105a2576040805162461bcd60e51b81526020600482015260248101919091527f4279746573416e644b656363616b4c696220427974657333324172726179546f60448201527f427974657333324164647265737320496e76616c6964205265736f6c76696e6760648201526084016102ff565b826000815181106105b5576105b5610a7d565b60200260200101519150826001815181106105d2576105d2610a7d565b602002602001015160001c9050915091565b6000808251600214610660576040805162461bcd60e51b81526020600482015260248101919091527f4279746573416e644b656363616b4c696220427974657333324172726179546f60448201527f4164647265737355496e7432353620496e76616c6964205265736f6c76696e6760648201526084016102ff565b8260008151811061067357610673610a7d565b602002602001015160001c9150826001815181106105d2576105d2610a7d565b6060602082516106a39190610af9565b156107165760405162461bcd60e51b815260206004820152603760248201527f4279746573416e644b656363616b4c6962204279746573546f4279746573333260448201527f417272617920496e76616c6964205265736f6c76696e6700000000000000000060648201526084016102ff565b602082516107249190610b0d565b67ffffffffffffffff81111561073c5761073c6107ba565b604051908082528060200260200182016040528015610765578160200160208202803683370190505b50905060015b602083516107799190610b0d565b8111610450576020810283810151908301528061079581610ac8565b91505061076b565b60006103cb6102828484610347565b6000610520610195836103d2565b634e487b7160e01b600052604160045260246000fd5b604051601f8201601f1916810167ffffffffffffffff811182821017156107f9576107f96107ba565b604052919050565b6000602080838503121561081457600080fd5b823567ffffffffffffffff8082111561082c57600080fd5b818501915085601f83011261084057600080fd5b813581811115610852576108526107ba565b8060051b91506108638483016107d0565b818152918301840191848101908884111561087d57600080fd5b938501935b8385101561089b57843582529385019390850190610882565b98975050505050505050565b80356001600160a01b03811681146108be57600080fd5b919050565b600080604083850312156108d657600080fd5b6108df836108a7565b946020939093013593505050565b6020808252825182820181905260009190848201906040850190845b8181101561092557835183529284019291840191600101610909565b50909695505050505050565b6000806040838503121561094457600080fd5b82359150610954602084016108a7565b90509250929050565b600060208083528351808285015260005b8181101561098a5785810183015185820160400152820161096e565b8181111561099c576000604083870101525b50601f01601f1916929092016040019392505050565b600067ffffffffffffffff8311156109cc576109cc6107ba565b6109df601f8401601f19166020016107d0565b90508281528383830111156109f357600080fd5b828260208301376000602084830101529392505050565b600060208284031215610a1c57600080fd5b813567ffffffffffffffff811115610a3357600080fd5b8201601f81018413610a4457600080fd5b610a53848235602084016109b2565b949350505050565b60008060408385031215610a6e57600080fd5b50508035926020909101359150565b634e487b7160e01b600052603260045260246000fd5b634e487b7160e01b600052601160045260246000fd5b6000816000190483118215151615610ac357610ac3610a93565b500290565b6000600019821415610adc57610adc610a93565b5060010190565b634e487b7160e01b600052601260045260246000fd5b600082610b0857610b08610ae3565b500690565b600082610b1c57610b1c610ae3565b50049056fea2646970667358221220639f69365e3d7dc695767de3ae6d2b1dbe05df5444af94ea6f204ca01c0738d364736f6c634300080b0033","bytecodeSha1":"b4d83d9e3c570fe96dc87df597d6befd1dedff26","compiler":{"evm_version":"istanbul","optimizer":{"enabled":true,"runs":200},"version":"0.8.11+commit.d7f03943"},"contractName":"BytesAndKeccakLib","language":"Solidity","natspec":{"kind":"dev","methods":{},"version":1},"opcodes":"PUSH20 0x0 ADDRESS EQ PUSH1 0x80 PUSH1 0x40 MSTORE PUSH1 0x4 CALLDATASIZE LT PUSH2 0xF4 JUMPI PUSH1 0x0 CALLDATALOAD PUSH1 0xE0 SHR DUP1 PUSH4 0x8A46CFC4 GT PUSH2 0x96 JUMPI DUP1 PUSH4 0xA09853C8 GT PUSH2 0x70 JUMPI DUP1 PUSH4 0xA09853C8 EQ PUSH2 0x21C JUMPI DUP1 PUSH4 0xAB60961A EQ PUSH2 0x24E JUMPI DUP1 PUSH4 0xD5F0B04D EQ PUSH2 0x261 JUMPI DUP1 PUSH4 0xE07F20DD EQ PUSH2 0x274 JUMPI PUSH1 0x0 DUP1 REVERT JUMPDEST DUP1 PUSH4 0x8A46CFC4 EQ PUSH2 0x1C6 JUMPI DUP1 PUSH4 0x9566D370 EQ PUSH2 0x1D9 JUMPI DUP1 PUSH4 0x9AC1B345 EQ PUSH2 0x1EC JUMPI PUSH1 0x0 DUP1 REVERT JUMPDEST DUP1 PUSH4 0x2431A7CF GT PUSH2 0xD2 JUMPI DUP1 PUSH4 0x2431A7CF EQ PUSH2 0x167 JUMPI DUP1 PUSH4 0x3D98B112 EQ PUSH2 0x187 JUMPI DUP1 PUSH4 0x63DE9F0C EQ PUSH2 0x1A0 JUMPI DUP1 PUSH4 0x76254FF9 EQ PUSH2 0x1B3 JUMPI PUSH1 0x0 DUP1 REVERT JUMPDEST DUP1 PUSH4 0xA5A570C EQ PUSH2 0xF9 JUMPI DUP1 PUSH4 0xDE874ED EQ PUSH2 0x126 JUMPI DUP1 PUSH4 0x1EB650E7 EQ PUSH2 0x146 JUMPI JUMPDEST PUSH1 0x0 DUP1 REVERT JUMPDEST PUSH2 0x10C PUSH2 0x107 CALLDATASIZE PUSH1 0x4 PUSH2 0x801 JUMP JUMPDEST PUSH2 0x287 JUMP JUMPDEST PUSH1 0x40 DUP1 MLOAD SWAP3 DUP4 MSTORE PUSH1 0x20 DUP4 ADD SWAP2 SWAP1 SWAP2 MSTORE ADD JUMPDEST PUSH1 0x40 MLOAD DUP1 SWAP2 SUB SWAP1 RETURN JUMPDEST PUSH2 0x139 PUSH2 0x134 CALLDATASIZE PUSH1 0x4 PUSH2 0x8C3 JUMP JUMPDEST PUSH2 0x347 JUMP JUMPDEST PUSH1 0x40 MLOAD PUSH2 0x11D SWAP2 SWAP1 PUSH2 0x8ED JUMP JUMPDEST PUSH2 0x159 PUSH2 0x154 CALLDATASIZE PUSH1 0x4 PUSH2 0x931 JUMP JUMPDEST PUSH2 0x3BC JUMP JUMPDEST PUSH1 0x40 MLOAD SWAP1 DUP2 MSTORE PUSH1 0x20 ADD PUSH2 0x11D JUMP JUMPDEST PUSH2 0x17A PUSH2 0x175 CALLDATASIZE PUSH1 0x4 PUSH2 0x801 JUMP JUMPDEST PUSH2 0x3D2 JUMP JUMPDEST PUSH1 0x40 MLOAD PUSH2 0x11D SWAP2 SWAP1 PUSH2 0x95D JUMP JUMPDEST PUSH2 0x159 PUSH2 0x195 CALLDATASIZE PUSH1 0x4 PUSH2 0xA0A JUMP JUMPDEST DUP1 MLOAD PUSH1 0x20 SWAP1 SWAP2 ADD KECCAK256 SWAP1 JUMP JUMPDEST PUSH2 0x139 PUSH2 0x1AE CALLDATASIZE PUSH1 0x4 PUSH2 0x931 JUMP JUMPDEST PUSH2 0x456 JUMP JUMPDEST PUSH2 0x159 PUSH2 0x1C1 CALLDATASIZE PUSH1 0x4 PUSH2 0xA5B JUMP JUMPDEST PUSH2 0x4B6 JUMP JUMPDEST PUSH2 0x139 PUSH2 0x1D4 CALLDATASIZE PUSH1 0x4 PUSH2 0xA5B JUMP JUMPDEST PUSH2 0x4C1 JUMP JUMPDEST PUSH2 0x159 PUSH2 0x1E7 CALLDATASIZE PUSH1 0x4 PUSH2 0xA0A JUMP JUMPDEST PUSH2 0x515 JUMP JUMPDEST PUSH2 0x1FF PUSH2 0x1FA CALLDATASIZE PUSH1 0x4 PUSH2 0x801 JUMP JUMPDEST PUSH2 0x526 JUMP JUMPDEST PUSH1 0x40 DUP1 MLOAD SWAP3 DUP4 MSTORE PUSH1 0x1 PUSH1 0x1 PUSH1 0xA0 SHL SUB SWAP1 SWAP2 AND PUSH1 0x20 DUP4 ADD MSTORE ADD PUSH2 0x11D JUMP JUMPDEST PUSH2 0x22F PUSH2 0x22A CALLDATASIZE PUSH1 0x4 PUSH2 0x801 JUMP JUMPDEST PUSH2 0x5E4 JUMP JUMPDEST PUSH1 0x40 DUP1 MLOAD PUSH1 0x1 PUSH1 0x1 PUSH1 0xA0 SHL SUB SWAP1 SWAP4 AND DUP4 MSTORE PUSH1 0x20 DUP4 ADD SWAP2 SWAP1 SWAP2 MSTORE ADD PUSH2 0x11D JUMP JUMPDEST PUSH2 0x139 PUSH2 0x25C CALLDATASIZE PUSH1 0x4 PUSH2 0xA0A JUMP JUMPDEST PUSH2 0x693 JUMP JUMPDEST PUSH2 0x159 PUSH2 0x26F CALLDATASIZE PUSH1 0x4 PUSH2 0x8C3 JUMP JUMPDEST PUSH2 0x79D JUMP JUMPDEST PUSH2 0x159 PUSH2 0x282 CALLDATASIZE PUSH1 0x4 PUSH2 0x801 JUMP JUMPDEST PUSH2 0x7AC JUMP JUMPDEST PUSH1 0x0 DUP1 DUP3 MLOAD PUSH1 0x2 EQ PUSH2 0x308 JUMPI PUSH1 0x40 DUP1 MLOAD PUSH3 0x461BCD PUSH1 0xE5 SHL DUP2 MSTORE PUSH1 0x20 PUSH1 0x4 DUP3 ADD MSTORE PUSH1 0x24 DUP2 ADD SWAP2 SWAP1 SWAP2 MSTORE PUSH32 0x4279746573416E644B656363616B4C696220427974657333324172726179546F PUSH1 0x44 DUP3 ADD MSTORE PUSH32 0x427974657333324279746573333220496E76616C6964205265736F6C76696E67 PUSH1 0x64 DUP3 ADD MSTORE PUSH1 0x84 ADD JUMPDEST PUSH1 0x40 MLOAD DUP1 SWAP2 SUB SWAP1 REVERT JUMPDEST DUP3 PUSH1 0x0 DUP2 MLOAD DUP2 LT PUSH2 0x31B JUMPI PUSH2 0x31B PUSH2 0xA7D JUMP JUMPDEST PUSH1 0x20 MUL PUSH1 0x20 ADD ADD MLOAD SWAP2 POP DUP3 PUSH1 0x1 DUP2 MLOAD DUP2 LT PUSH2 0x338 JUMPI PUSH2 0x338 PUSH2 0xA7D JUMP JUMPDEST PUSH1 0x20 MUL PUSH1 0x20 ADD ADD MLOAD SWAP1 POP SWAP2 POP SWAP2 JUMP JUMPDEST PUSH1 0x40 DUP1 MLOAD PUSH1 0x2 DUP1 DUP3 MSTORE PUSH1 0x60 DUP1 DUP4 ADD DUP5 MSTORE SWAP3 PUSH1 0x20 DUP4 ADD SWAP1 DUP1 CALLDATASIZE DUP4 CALLDATACOPY ADD SWAP1 POP POP SWAP1 POP DUP3 PUSH1 0x1 PUSH1 0x1 PUSH1 0xA0 SHL SUB AND PUSH1 0x0 SHL DUP2 PUSH1 0x0 DUP2 MLOAD DUP2 LT PUSH2 0x387 JUMPI PUSH2 0x387 PUSH2 0xA7D JUMP JUMPDEST PUSH1 0x20 MUL PUSH1 0x20 ADD ADD DUP2 DUP2 MSTORE POP POP DUP2 PUSH1 0x0 SHL DUP2 PUSH1 0x1 DUP2 MLOAD DUP2 LT PUSH2 0x3AA JUMPI PUSH2 0x3AA PUSH2 0xA7D JUMP JUMPDEST PUSH1 0x20 MUL PUSH1 0x20 ADD ADD DUP2 DUP2 MSTORE POP POP SWAP3 SWAP2 POP POP JUMP JUMPDEST PUSH1 0x0 PUSH2 0x3CB PUSH2 0x282 DUP5 DUP5 PUSH2 0x456 JUMP JUMPDEST SWAP4 SWAP3 POP POP POP JUMP JUMPDEST PUSH1 0x60 DUP2 MLOAD PUSH1 0x20 PUSH2 0x3E2 SWAP2 SWAP1 PUSH2 0xAA9 JUMP JUMPDEST PUSH8 0xFFFFFFFFFFFFFFFF DUP2 GT ISZERO PUSH2 0x3FA JUMPI PUSH2 0x3FA PUSH2 0x7BA JUMP JUMPDEST PUSH1 0x40 MLOAD SWAP1 DUP1 DUP3 MSTORE DUP1 PUSH1 0x1F ADD PUSH1 0x1F NOT AND PUSH1 0x20 ADD DUP3 ADD PUSH1 0x40 MSTORE DUP1 ISZERO PUSH2 0x424 JUMPI PUSH1 0x20 DUP3 ADD DUP2 DUP1 CALLDATASIZE DUP4 CALLDATACOPY ADD SWAP1 POP JUMPDEST POP SWAP1 POP PUSH1 0x1 JUMPDEST DUP3 MLOAD DUP2 GT PUSH2 0x450 JUMPI PUSH1 0x20 DUP2 MUL DUP4 DUP2 ADD MLOAD SWAP1 DUP4 ADD MSTORE DUP1 PUSH2 0x448 DUP2 PUSH2 0xAC8 JUMP JUMPDEST SWAP2 POP POP PUSH2 0x42A JUMP JUMPDEST POP SWAP2 SWAP1 POP JUMP JUMPDEST PUSH1 0x40 DUP1 MLOAD PUSH1 0x2 DUP1 DUP3 MSTORE PUSH1 0x60 DUP1 DUP4 ADD DUP5 MSTORE SWAP3 PUSH1 0x20 DUP4 ADD SWAP1 DUP1 CALLDATASIZE DUP4 CALLDATACOPY ADD SWAP1 POP POP SWAP1 POP DUP3 DUP2 PUSH1 0x0 DUP2 MLOAD DUP2 LT PUSH2 0x48A JUMPI PUSH2 0x48A PUSH2 0xA7D JUMP JUMPDEST PUSH1 0x20 MUL PUSH1 0x20 ADD ADD DUP2 DUP2 MSTORE POP POP DUP2 PUSH1 0x1 PUSH1 0x1 PUSH1 0xA0 SHL SUB AND PUSH1 0x0 SHL DUP2 PUSH1 0x1 DUP2 MLOAD DUP2 LT PUSH2 0x3AA JUMPI PUSH2 0x3AA PUSH2 0xA7D JUMP JUMPDEST PUSH1 0x0 PUSH2 0x3CB PUSH2 0x282 DUP5 DUP5 JUMPDEST PUSH1 0x40 DUP1 MLOAD PUSH1 0x2 DUP1 DUP3 MSTORE PUSH1 0x60 DUP1 DUP4 ADD DUP5 MSTORE SWAP3 PUSH1 0x20 DUP4 ADD SWAP1 DUP1 CALLDATASIZE DUP4 CALLDATACOPY ADD SWAP1 POP POP SWAP1 POP DUP3 DUP2 PUSH1 0x0 DUP2 MLOAD DUP2 LT PUSH2 0x4F5 JUMPI PUSH2 0x4F5 PUSH2 0xA7D JUMP JUMPDEST PUSH1 0x20 MUL PUSH1 0x20 ADD ADD DUP2 DUP2 MSTORE POP POP DUP2 DUP2 PUSH1 0x1 DUP2 MLOAD DUP2 LT PUSH2 0x3AA JUMPI PUSH2 0x3AA PUSH2 0xA7D JUMP JUMPDEST DUP1 MLOAD PUSH1 0x20 DUP3 ADD KECCAK256 PUSH1 0x0 SWAP1 JUMPDEST SWAP3 SWAP2 POP POP JUMP JUMPDEST PUSH1 0x0 DUP1 DUP3 MLOAD PUSH1 0x2 EQ PUSH2 0x5A2 JUMPI PUSH1 0x40 DUP1 MLOAD PUSH3 0x461BCD PUSH1 0xE5 SHL DUP2 MSTORE PUSH1 0x20 PUSH1 0x4 DUP3 ADD MSTORE PUSH1 0x24 DUP2 ADD SWAP2 SWAP1 SWAP2 MSTORE PUSH32 0x4279746573416E644B656363616B4C696220427974657333324172726179546F PUSH1 0x44 DUP3 ADD MSTORE PUSH32 0x427974657333324164647265737320496E76616C6964205265736F6C76696E67 PUSH1 0x64 DUP3 ADD MSTORE PUSH1 0x84 ADD PUSH2 0x2FF JUMP JUMPDEST DUP3 PUSH1 0x0 DUP2 MLOAD DUP2 LT PUSH2 0x5B5 JUMPI PUSH2 0x5B5 PUSH2 0xA7D JUMP JUMPDEST PUSH1 0x20 MUL PUSH1 0x20 ADD ADD MLOAD SWAP2 POP DUP3 PUSH1 0x1 DUP2 MLOAD DUP2 LT PUSH2 0x5D2 JUMPI PUSH2 0x5D2 PUSH2 0xA7D JUMP JUMPDEST PUSH1 0x20 MUL PUSH1 0x20 ADD ADD MLOAD PUSH1 0x0 SHR SWAP1 POP SWAP2 POP SWAP2 JUMP JUMPDEST PUSH1 0x0 DUP1 DUP3 MLOAD PUSH1 0x2 EQ PUSH2 0x660 JUMPI PUSH1 0x40 DUP1 MLOAD PUSH3 0x461BCD PUSH1 0xE5 SHL DUP2 MSTORE PUSH1 0x20 PUSH1 0x4 DUP3 ADD MSTORE PUSH1 0x24 DUP2 ADD SWAP2 SWAP1 SWAP2 MSTORE PUSH32 0x4279746573416E644B656363616B4C696220427974657333324172726179546F PUSH1 0x44 DUP3 ADD MSTORE PUSH32 0x4164647265737355496E7432353620496E76616C6964205265736F6C76696E67 PUSH1 0x64 DUP3 ADD MSTORE PUSH1 0x84 ADD PUSH2 0x2FF JUMP JUMPDEST DUP3 PUSH1 0x0 DUP2 MLOAD DUP2 LT PUSH2 0x673 JUMPI PUSH2 0x673 PUSH2 0xA7D JUMP JUMPDEST PUSH1 0x20 MUL PUSH1 0x20 ADD ADD MLOAD PUSH1 0x0 SHR SWAP2 POP DUP3 PUSH1 0x1 DUP2 MLOAD DUP2 LT PUSH2 0x5D2 JUMPI PUSH2 0x5D2 PUSH2 0xA7D JUMP JUMPDEST PUSH1 0x60 PUSH1 0x20 DUP3 MLOAD PUSH2 0x6A3 SWAP2 SWAP1 PUSH2 0xAF9 JUMP JUMPDEST ISZERO PUSH2 0x716 JUMPI PUSH1 0x40 MLOAD PUSH3 0x461BCD PUSH1 0xE5 SHL DUP2 MSTORE PUSH1 0x20 PUSH1 0x4 DUP3 ADD MSTORE PUSH1 0x37 PUSH1 0x24 DUP3 ADD MSTORE PUSH32 0x4279746573416E644B656363616B4C6962204279746573546F42797465733332 PUSH1 0x44 DUP3 ADD MSTORE PUSH32 0x417272617920496E76616C6964205265736F6C76696E67000000000000000000 PUSH1 0x64 DUP3 ADD MSTORE PUSH1 0x84 ADD PUSH2 0x2FF JUMP JUMPDEST PUSH1 0x20 DUP3 MLOAD PUSH2 0x724 SWAP2 SWAP1 PUSH2 0xB0D JUMP JUMPDEST PUSH8 0xFFFFFFFFFFFFFFFF DUP2 GT ISZERO PUSH2 0x73C JUMPI PUSH2 0x73C PUSH2 0x7BA JUMP JUMPDEST PUSH1 0x40 MLOAD SWAP1 DUP1 DUP3 MSTORE DUP1 PUSH1 0x20 MUL PUSH1 0x20 ADD DUP3 ADD PUSH1 0x40 MSTORE DUP1 ISZERO PUSH2 0x765 JUMPI DUP2 PUSH1 0x20 ADD PUSH1 0x20 DUP3 MUL DUP1 CALLDATASIZE DUP4 CALLDATACOPY ADD SWAP1 POP JUMPDEST POP SWAP1 POP PUSH1 0x1 JUMPDEST PUSH1 0x20 DUP4 MLOAD PUSH2 0x779 SWAP2 SWAP1 PUSH2 0xB0D JUMP JUMPDEST DUP2 GT PUSH2 0x450 JUMPI PUSH1 0x20 DUP2 MUL DUP4 DUP2 ADD MLOAD SWAP1 DUP4 ADD MSTORE DUP1 PUSH2 0x795 DUP2 PUSH2 0xAC8 JUMP JUMPDEST SWAP2 POP POP PUSH2 0x76B JUMP JUMPDEST PUSH1 0x0 PUSH2 0x3CB PUSH2 0x282 DUP5 DUP5 PUSH2 0x347 JUMP JUMPDEST PUSH1 0x0 PUSH2 0x520 PUSH2 0x195 DUP4 PUSH2 0x3D2 JUMP JUMPDEST PUSH4 0x4E487B71 PUSH1 0xE0 SHL PUSH1 0x0 MSTORE PUSH1 0x41 PUSH1 0x4 MSTORE PUSH1 0x24 PUSH1 0x0 REVERT JUMPDEST PUSH1 0x40 MLOAD PUSH1 0x1F DUP3 ADD PUSH1 0x1F NOT AND DUP2 ADD PUSH8 0xFFFFFFFFFFFFFFFF DUP2 GT DUP3 DUP3 LT OR ISZERO PUSH2 0x7F9 JUMPI PUSH2 0x7F9 PUSH2 0x7BA JUMP JUMPDEST PUSH1 0x40 MSTORE SWAP2 SWAP1 POP JUMP JUMPDEST PUSH1 0x0 PUSH1 0x20 DUP1 DUP4 DUP6 SUB SLT ISZERO PUSH2 0x814 JUMPI PUSH1 0x0 DUP1 REVERT JUMPDEST DUP3 CALLDATALOAD PUSH8 0xFFFFFFFFFFFFFFFF DUP1 DUP3 GT ISZERO PUSH2 0x82C JUMPI PUSH1 0x0 DUP1 REVERT JUMPDEST DUP2 DUP6 ADD SWAP2 POP DUP6 PUSH1 0x1F DUP4 ADD SLT PUSH2 0x840 JUMPI PUSH1 0x0 DUP1 REVERT JUMPDEST DUP2 CALLDATALOAD DUP2 DUP2 GT ISZERO PUSH2 0x852 JUMPI PUSH2 0x852 PUSH2 0x7BA JUMP JUMPDEST DUP1 PUSH1 0x5 SHL SWAP2 POP PUSH2 0x863 DUP5 DUP4 ADD PUSH2 0x7D0 JUMP JUMPDEST DUP2 DUP2 MSTORE SWAP2 DUP4 ADD DUP5 ADD SWAP2 DUP5 DUP2 ADD SWAP1 DUP9 DUP5 GT ISZERO PUSH2 0x87D JUMPI PUSH1 0x0 DUP1 REVERT JUMPDEST SWAP4 DUP6 ADD SWAP4 JUMPDEST DUP4 DUP6 LT ISZERO PUSH2 0x89B JUMPI DUP5 CALLDATALOAD DUP3 MSTORE SWAP4 DUP6 ADD SWAP4 SWAP1 DUP6 ADD SWAP1 PUSH2 0x882 JUMP JUMPDEST SWAP9 SWAP8 POP POP POP POP POP POP POP POP JUMP JUMPDEST DUP1 CALLDATALOAD PUSH1 0x1 PUSH1 0x1 PUSH1 0xA0 SHL SUB DUP2 AND DUP2 EQ PUSH2 0x8BE JUMPI PUSH1 0x0 DUP1 REVERT JUMPDEST SWAP2 SWAP1 POP JUMP JUMPDEST PUSH1 0x0 DUP1 PUSH1 0x40 DUP4 DUP6 SUB SLT ISZERO PUSH2 0x8D6 JUMPI PUSH1 0x0 DUP1 REVERT JUMPDEST PUSH2 0x8DF DUP4 PUSH2 0x8A7 JUMP JUMPDEST SWAP5 PUSH1 0x20 SWAP4 SWAP1 SWAP4 ADD CALLDATALOAD SWAP4 POP POP POP JUMP JUMPDEST PUSH1 0x20 DUP1 DUP3 MSTORE DUP3 MLOAD DUP3 DUP3 ADD DUP2 SWAP1 MSTORE PUSH1 0x0 SWAP2 SWAP1 DUP5 DUP3 ADD SWAP1 PUSH1 0x40 DUP6 ADD SWAP1 DUP5 JUMPDEST DUP2 DUP2 LT ISZERO PUSH2 0x925 JUMPI DUP4 MLOAD DUP4 MSTORE SWAP3 DUP5 ADD SWAP3 SWAP2 DUP5 ADD SWAP2 PUSH1 0x1 ADD PUSH2 0x909 JUMP JUMPDEST POP SWAP1 SWAP7 SWAP6 POP POP POP POP POP POP JUMP JUMPDEST PUSH1 0x0 DUP1 PUSH1 0x40 DUP4 DUP6 SUB SLT ISZERO PUSH2 0x944 JUMPI PUSH1 0x0 DUP1 REVERT JUMPDEST DUP3 CALLDATALOAD SWAP2 POP PUSH2 0x954 PUSH1 0x20 DUP5 ADD PUSH2 0x8A7 JUMP JUMPDEST SWAP1 POP SWAP3 POP SWAP3 SWAP1 POP JUMP JUMPDEST PUSH1 0x0 PUSH1 0x20 DUP1 DUP4 MSTORE DUP4 MLOAD DUP1 DUP3 DUP6 ADD MSTORE PUSH1 0x0 JUMPDEST DUP2 DUP2 LT ISZERO PUSH2 0x98A JUMPI DUP6 DUP2 ADD DUP4 ADD MLOAD DUP6 DUP3 ADD PUSH1 0x40 ADD MSTORE DUP3 ADD PUSH2 0x96E JUMP JUMPDEST DUP2 DUP2 GT ISZERO PUSH2 0x99C JUMPI PUSH1 0x0 PUSH1 0x40 DUP4 DUP8 ADD ADD MSTORE JUMPDEST POP PUSH1 0x1F ADD PUSH1 0x1F NOT AND SWAP3 SWAP1 SWAP3 ADD PUSH1 0x40 ADD SWAP4 SWAP3 POP POP POP JUMP JUMPDEST PUSH1 0x0 PUSH8 0xFFFFFFFFFFFFFFFF DUP4 GT ISZERO PUSH2 0x9CC JUMPI PUSH2 0x9CC PUSH2 0x7BA JUMP JUMPDEST PUSH2 0x9DF PUSH1 0x1F DUP5 ADD PUSH1 0x1F NOT AND PUSH1 0x20 ADD PUSH2 0x7D0 JUMP JUMPDEST SWAP1 POP DUP3 DUP2 MSTORE DUP4 DUP4 DUP4 ADD GT ISZERO PUSH2 0x9F3 JUMPI PUSH1 0x0 DUP1 REVERT JUMPDEST DUP3 DUP3 PUSH1 0x20 DUP4 ADD CALLDATACOPY PUSH1 0x0 PUSH1 0x20 DUP5 DUP4 ADD ADD MSTORE SWAP4 SWAP3 POP POP POP JUMP JUMPDEST PUSH1 0x0 PUSH1 0x20 DUP3 DUP5 SUB SLT ISZERO PUSH2 0xA1C JUMPI PUSH1 0x0 DUP1 REVERT JUMPDEST DUP2 CALLDATALOAD PUSH8 0xFFFFFFFFFFFFFFFF DUP2 GT ISZERO PUSH2 0xA33 JUMPI PUSH1 0x0 DUP1 REVERT JUMPDEST DUP3 ADD PUSH1 0x1F DUP2 ADD DUP5 SGT PUSH2 0xA44 JUMPI PUSH1 0x0 DUP1 REVERT JUMPDEST PUSH2 0xA53 DUP5 DUP3 CALLDATALOAD PUSH1 0x20 DUP5 ADD PUSH2 0x9B2 JUMP JUMPDEST SWAP5 SWAP4 POP POP POP POP JUMP JUMPDEST PUSH1 0x0 DUP1 PUSH1 0x40 DUP4 DUP6 SUB SLT ISZERO PUSH2 0xA6E JUMPI PUSH1 0x0 DUP1 REVERT JUMPDEST POP POP DUP1 CALLDATALOAD SWAP3 PUSH1 0x20 SWAP1 SWAP2 ADD CALLDATALOAD SWAP2 POP JUMP JUMPDEST PUSH4 0x4E487B71 PUSH1 0xE0 SHL PUSH1 0x0 MSTORE PUSH1 0x32 PUSH1 0x4 MSTORE PUSH1 0x24 PUSH1 0x0 REVERT JUMPDEST PUSH4 0x4E487B71 PUSH1 0xE0 SHL PUSH1 0x0 MSTORE PUSH1 0x11 PUSH1 0x4 MSTORE PUSH1 0x24 PUSH1 0x0 REVERT JUMPDEST PUSH1 0x0 DUP2 PUSH1 0x0 NOT DIV DUP4 GT DUP3 ISZERO ISZERO AND ISZERO PUSH2 0xAC3 JUMPI PUSH2 0xAC3 PUSH2 0xA93 JUMP JUMPDEST POP MUL SWAP1 JUMP JUMPDEST PUSH1 0x0 PUSH1 0x0 NOT DUP3 EQ ISZERO PUSH2 0xADC JUMPI PUSH2 0xADC PUSH2 0xA93 JUMP JUMPDEST POP PUSH1 0x1 ADD SWAP1 JUMP JUMPDEST PUSH4 0x4E487B71 PUSH1 0xE0 SHL PUSH1 0x0 MSTORE PUSH1 0x12 PUSH1 0x4 MSTORE PUSH1 0x24 PUSH1 0x0 REVERT JUMPDEST PUSH1 0x0 DUP3 PUSH2 0xB08 JUMPI PUSH2 0xB08 PUSH2 0xAE3 JUMP JUMPDEST POP MOD SWAP1 JUMP JUMPDEST PUSH1 0x0 DUP3 PUSH2 0xB1C JUMPI PUSH2 0xB1C PUSH2 0xAE3 JUMP JUMPDEST POP DIV SWAP1 JUMP INVALID LOG2 PUSH5 0x6970667358 0x22 SLT KECCAK256 PUSH4 0x9F69365E RETURNDATASIZE PUSH30 0xC695767DE3AE6D2B1DBE05DF5444AF94EA6F204CA01C0738D364736F6C63 NUMBER STOP ADDMOD SIGNEXTEND STOP CALLER ","sha1":"eb467f3e8c31214d2999f7cb39085ea80a5e9d48","source":"// SPDX-License-Identifier: MIT\n// Beef MarketPlace Contracts v0.0.0 hello@mcdu.com\n\npragma solidity ^0.8.0;\n\n\nlibrary BytesAndKeccakLib {\n    function pureBytes(bytes memory in_) public pure returns (bytes32 k_) {\n        k_ = keccak256(in_);\n     }\n    function pureString(string memory in_) public pure returns (bytes32 k_) {\n        return pureBytes(bytes(in_));\n    }\n    function pureBytes32Array(bytes32[] memory in_)\n        public\n        pure\n        returns (bytes32 k_)\n    {\n        return pureBytes(Bytes32ArrayToBytes(in_));\n    }\n    function pureAddressUInt256(address addr_, uint256 v_)\n        public\n        pure\n        returns (bytes32 k_)\n    {\n        return pureBytes32Array(AddressUInt256ToBytes32Array(addr_, v_));\n    }\n    function pureBytes32Address(bytes32 v_, address addr_)\n        public\n        pure\n        returns (bytes32 k_)\n    {\n        return pureBytes32Array(Bytes32AddressToBytes32Array(v_, addr_));\n    }\n    function pureBytes32Bytes32(bytes32 v1_, bytes32 v2_)\n        public\n        pure\n        returns (bytes32 k_)\n    {\n        return pureBytes32Array(Bytes32Bytes32ToBytes32Array(v1_, v2_));\n    }\n    function Bytes32ArrayToBytes(bytes32[] memory in_)\n        public\n        pure\n        returns (bytes memory out_)\n    {\n        out_ = new bytes(in_.length * 32);\n        for (uint256 i = 1; i <= in_.length; i++)\n            assembly {\n                mstore(add(out_, mul(32, i)), mload(add(in_, mul(32, i))))\n            }\n    }\n    function AddressUInt256ToBytes32Array(address addr_, uint256 v_)\n        public\n        pure\n        returns (bytes32[] memory out_)\n    {\n        out_ = new bytes32[](2);\n        out_[0] = bytes32(uint256(uint160(addr_)));\n        out_[1] = bytes32(v_);\n    }\n    function Bytes32AddressToBytes32Array(bytes32 v_, address addr_)\n        public\n        pure\n        returns (bytes32[] memory out_)\n    {\n        out_ = new bytes32[](2);\n        out_[0] = v_;\n        out_[1] = bytes32(uint256(uint160(addr_)));\n    }\n    function Bytes32Bytes32ToBytes32Array(bytes32 v1_, bytes32 v2_)\n        public\n        pure\n        returns (bytes32[] memory out_)\n    {\n        out_ = new bytes32[](2);\n        out_[0] = v1_;\n        out_[1] = v2_;\n    }\n    function BytesToBytes32Array(bytes memory in_)\n        public\n        pure\n        returns (bytes32[] memory out_)\n    {\n        require(in_.length % 32 == 0, \"BytesAndKeccakLib BytesToBytes32Array Invalid Resolving\");\n        out_ = new bytes32[](in_.length / 32);\n        for (uint256 i = 1; i <= in_.length / 32; i++)\n            assembly {\n                mstore(add(out_, mul(32, i)), mload(add(in_, mul(32, i))))\n            }\n    }\n    function Bytes32ArrayToAddressUInt256(bytes32[] memory in_)\n        public\n        pure\n        returns (address addr_, uint256 v_)\n    {\n        require(in_.length == 2, \"BytesAndKeccakLib Bytes32ArrayToAddressUInt256 Invalid Resolving\");\n        addr_ = address(uint160(uint256(in_[0])));\n        v_ = uint256(in_[1]);\n    }\n    function Bytes32ArrayToBytes32Bytes32(bytes32[] memory in_)\n        public\n        pure\n        returns (bytes32 v1_, bytes32 v2_)\n    {\n        require(in_.length == 2, \"BytesAndKeccakLib Bytes32ArrayToBytes32Bytes32 Invalid Resolving\");\n        v1_ = in_[0];\n        v2_ = in_[1];\n    }\n    function Bytes32ArrayToBytes32Address(bytes32[] memory in_)\n        public\n        pure\n        returns (bytes32 v_, address addr_)\n    {\n        require(in_.length == 2, \"BytesAndKeccakLib Bytes32ArrayToBytes32Address Invalid Resolving\");\n        v_ = in_[0];\n        addr_ = address(uint160(uint256(in_[1])));\n    }\n\n}\n","sourcePath":"contracts/agnostic/Keccak/BytesAndKeccakLib.sol","type":"library","deployment":{"address":"0xAb3aFd79024dde203c8B579bb0215699093B595A","chainid":"9997","blockHeight":30443}}