{"bytecode":"60c06040526007805460ff191690553480156200001b57600080fd5b5060405162004357380380620043578339810160408190526200003e91620000aa565b8015156080526200004f336200005a565b504360a052620000d5565b600080546001600160a01b038381166001600160a01b0319831681178455604051919092169283917f8be0079c531659141344cd1fd0a4f28419497f9722a3daafe3b4186f6b6457e09190a35050565b600060208284031215620000bd57600080fd5b81518015158114620000ce57600080fd5b9392505050565b60805160a05161425c620000fb600039600061081c01526000610876015261425c6000f3fe608060405234801561001057600080fd5b50600436106103d05760003560e01c806381b2490b116101ff578063ad10a1351161011a578063c9c2a940116100ad578063e50d1b3e1161007c578063e50d1b3e14610be0578063e855a31314610bf3578063f2fde38b14610c06578063f5dab71114610c19576103d0565b8063c9c2a94014610b94578063d47a7edd14610ba7578063d4945d0e14610bba578063dbf5f2fd14610bcd576103d0565b8063bb7d88a9116100e9578063bb7d88a914610b48578063c33470d314610b5b578063c452e6b614610b6e578063c5537eb714610b81576103d0565b8063ad10a13514610adf578063af91558514610af2578063b305438314610b22578063b72a4a7114610b35576103d0565b80639e9bb9c111610192578063a9d4632611610161578063a9d4632614610a93578063ababadb514610aa6578063ac8a584a14610ab9578063ad0fc0cc14610acc576103d0565b80639e9bb9c114610a47578063a663d4f514610a5a578063a86eeb9114610a6d578063a9bf985814610a80576103d0565b80638da5cb5b116101ce5780638da5cb5b146109e75780638eaa6ac0146109f857806395b5d58414610a215780639870d7fe14610a34576103d0565b806381b2490b146109a357806383350075146109b657806389765f59146109c15780638d49d89b146109d4576103d0565b80634329598c116102ef5780635f5c5baa116102825780636d70f7ae116102515780636d70f7ae146109625780636f45768314610975578063715018a61461098857806375f890ab14610990576103d0565b80635f5c5baa1461090a57806361e99ffb14610914578063657c7e091461092757806367c51dfc1461094f576103d0565b8063552cdf98116102be578063552cdf98146108be5780635768bbb5146108d1578063589e6a98146108e45780635b62cb70146108f7576103d0565b80634329598c146107805780634635229b146108715780634f79b79214610898578063509ff69b146108ab576103d0565b8063162790551161036757806324ace6721161033657806324ace672146108045780632558a0791461081757806327ee9dc21461083e57806338a699a41461085e576103d0565b806316279055146107a0578063184bc906146107b357806318d54cf3146107de5780631d7a3b72146107f1576103d0565b806307d61085116103a357806307d61085146107395780630ea94b961461074c578063120f6ee31461076d57806312cae67b14610780576103d0565b806301ffc9a7146106a55780630221c7de146106cd57806303565ea1146106f8578063036995df14610718575b6103d8610c2c565b60405163825998c160e01b8152600d60048201526000356001600160e01b031916602482015273__Array_________________________________9063825998c190604401602060405180830381865af415801561043a573d6000803e3d6000fd5b505050506040513d601f19601f8201168201806040525081019061045e9190613922565b5060005b600a548110156106a257336001600160a01b0316600a82815481106104895761048961393f565b6000918252602090912001546001600160a01b031614156104a957610690565b6000600a82815481106104be576104be61393f565b600091825260209182902001546040805163af640d0f60e01b815290516001600160a01b039092169263af640d0f926004808401938290030181865afa15801561050c573d6000803e3d6000fd5b505050506040513d601f19601f820116820180604052508101906105309190613955565b905060016000828152600c602090815260408083206001600160e01b0319843516845290915290205460ff16600281111561056d5761056d61396e565b14156105795750610690565b6000600a838154811061058e5761058e61393f565b60009182526020822001546040516001600160a01b03909116916105b3913690613984565b6000604051808303816000865af19150503d80600081146105f0576040519150601f19603f3d011682016040523d82523d6000602084013e6105f5565b606091505b50506000838152600c6020908152604080832083356001600160e01b03191684529091528120549192509060ff1660028111156106345761063461396e565b141561068d5780610646576001610649565b60025b6000838152600c602090815260408083206001600160e01b031984351684529091529020805460ff191660018360028111156106875761068761396e565b02179055505b50505b8061069a816139aa565b915050610462565b50005b6106b86106b33660046139dd565b610cb2565b60405190151581526020015b60405180910390f35b6106e06106db366004613a0d565b610cf8565b6040516001600160401b0390911681526020016106c4565b61070b610706366004613a39565b610d25565b6040516106c49190613a52565b61072b610726366004613a81565b610db6565b6040519081526020016106c4565b6106b8610747366004613a39565b610dc3565b61075f61075a366004613a39565b610dec565b6040516106c4929190613a9e565b6106e061077b366004613a39565b610e47565b61079361078e366004613a39565b610e99565b6040516106c49190613b13565b6106b86107ae366004613a81565b610f3b565b6107c66107c1366004613a39565b610fda565b6040516001600160a01b0390911681526020016106c4565b6106b86107ec366004613a0d565b611032565b6107936107ff366004613a0d565b61104d565b61072b610812366004613bd1565b61135b565b61072b7f000000000000000000000000000000000000000000000000000000000000000081565b61085161084c366004613a39565b6114bd565b6040516106c49190613c19565b6106b861086c366004613a39565b611543565b6106b87f000000000000000000000000000000000000000000000000000000000000000081565b61072b6108a6366004613a0d565b61154e565b61072b6108b9366004613a0d565b611581565b6106b86108cc366004613a0d565b6115c6565b61072b6108df366004613c5d565b6115f3565b61072b6108f2366004613bd1565b611682565b6106b8610905366004613a81565b61168d565b610912611698565b005b61072b610922366004613c8d565b611717565b61093a610935366004613a39565b61175d565b604080519283526020830191909152016106c4565b6106b861095d366004613a0d565b6117df565b6106b8610970366004613a81565b6117f3565b610912610983366004613a0d565b611855565b610912611cf1565b61091261099e366004613a81565b611d03565b6106b86109b1366004613a0d565b611fdc565b60075460ff166106b8565b6106b86109cf366004613a0d565b612111565b6106e06109e2366004613a81565b612125565b6000546001600160a01b03166107c6565b6107c6610a06366004613a39565b6000908152600960205260409020546001600160a01b031690565b6106b8610a2f366004613a81565b612132565b610912610a42366004613a81565b612145565b610793610a55366004613a39565b6121d5565b6106b8610a68366004613cc4565b61223e565b61072b610a7b366004613a0d565b612268565b61072b610a8e366004613a39565b612274565b610793610aa1366004613a81565b6122c6565b6106b8610ab4366004613a0d565b6122d3565b610912610ac7366004613a81565b6123e5565b6106b8610ada366004613a0d565b612434565b6106b8610aed366004613a0d565b612557565b610b05610b00366004613a39565b612595565b604080519283526001600160a01b039091166020830152016106c4565b61072b610b30366004613d0c565b612617565b61072b610b43366004613a0d565b61269a565b61070b610b56366004613a0d565b6126a6565b6106b8610b69366004613d9c565b61289e565b6106b8610b7c366004613a81565b612935565b6106b8610b8f366004613cc4565b612942565b61072b610ba2366004613a0d565b612961565b6106b8610bb5366004613a39565b612a0c565b6106b8610bc8366004613dc8565b612a5e565b6106b8610bdb366004613a81565b612a71565b61075f610bee366004613a39565b612a84565b6106b8610c01366004613a0d565b612a90565b610912610c14366004613a81565b612aa4565b61070b610c27366004613a81565b612b1d565b6000546001600160a01b0316331480610c495750610c4933610f3b565b610cb05760405162461bcd60e51b815260206004820152602d60248201527f416c6c6f77616e63653a2063616c6c6572206d757374206265205265706f736960448201526c1d1bdc9e4810dbdb9d1c9858dd609a1b60648201526084015b60405180910390fd5b565b60006001600160e01b031982166301ffc9a760e01b1480610ce357506305b62cb760e41b6001600160e01b03198316145b80610cf25750610cf282612b45565b92915050565b60006001600160a01b038316610d1057506001610cf2565b610d1a83836126a6565b604001519392505050565b6040805160608101825260008082526020820181905291810191909152600080516020614192833981519152821415610d6357610cf26000806126a6565b610d6c82610dc3565b610d945750506040805160608101825260111981526000602082018190529181019190915290565b600080610da084610dec565b91509150610dae82826126a6565b949350505050565b6000610cf282600061269a565b6000600080516020614192833981519152821415610de357506001919050565b610cf282611543565b600080600080516020614192833981519152831415610e1057506000928392509050565b610e1983611543565b610e355760405162461bcd60e51b8152600401610ca790613de5565b610e3e83612a84565b91509150915091565b6000600080516020614192833981519152821415610e6a57610cf2600080610cf8565b610e7382610dc3565b610e7f57506000919050565b600080610e8b84610dec565b91509150610dae8282610cf8565b6000818152600860205260409020805460609190610eb690613e1c565b80601f0160208091040260200160405190810160405280929190818152602001828054610ee290613e1c565b8015610f2f5780601f10610f0457610100808354040283529160200191610f2f565b820191906000526020600020905b815481529060010190602001808311610f1257829003601f168201915b50505050509050919050565b60006001600160a01b038216301415610f5657506001919050565b60405163f132566360e01b8152600a60048201526001600160a01b038316602482015273__Array_________________________________9063f1325663906044015b602060405180830381865af4158015610fb6573d6000803e3d6000fd5b505050506040513d601f19601f82011682018060405250810190610cf29190613922565b6000600080516020614192833981519152821415610ffa57506000919050565b61100382611543565b61101f5760405162461bcd60e51b8152600401610ca790613de5565b600061102a83612a84565b509392505050565b600061103c611698565b6110468383612b7b565b9392505050565b60606001600160a01b03831661107d576040518060a00160405280607581526020016141b2607591399050610cf2565b60006001600073__BytesAndKeccakLib_____________________63d5f0b04d87876040518363ffffffff1660e01b81526004016110bc929190613a9e565b602060405180830381865af41580156110d9573d6000803e3d6000fd5b505050506040513d601f19601f820116820180604052508101906110fd9190613955565b8152602001908152602001600020805461111690613e1c565b80601f016020809104026020016040519081016040528092919081815260200182805461114290613e1c565b801561118f5780601f106111645761010080835404028352916020019161118f565b820191906000526020600020905b81548152906001019060200180831161117257829003601f168201915b5050604080516000815260208101808352815190209596506111b79450869350019050613e51565b60405160208183030381529060405280519060200120146111d9579050610cf2565b821561133a576001600073__BytesAndKeccakLib_____________________63d5f0b04d8760006040518363ffffffff1660e01b815260040161121d929190613a9e565b602060405180830381865af415801561123a573d6000803e3d6000fd5b505050506040513d601f19601f8201168201806040525081019061125e9190613955565b8152602001908152602001600020805461127790613e1c565b80601f01602080910402602001604051908101604052809291908181526020018280546112a390613e1c565b80156112f05780601f106112c5576101008083540402835291602001916112f0565b820191906000526020600020905b8154815290600101906020018083116112d357829003601f168201915b5050604080516000815260208101808352815190209596506113189450869350019050613e51565b604051602081830303815290604052805190602001201461133a579050610cf2565b6040518060a00160405280606c8152602001614126606c9139949350505050565b8051602080830191909120600081815260089092526040909120805461138090613e1c565b151590506113ad57600081815260086020908152604090912083516113a79285019061387b565b50919050565b6000818152600860205260409020805461144f91906113cb90613e1c565b80601f01602080910402602001604051908101604052809291908181526020018280546113f790613e1c565b80156114445780601f1061141957610100808354040283529160200191611444565b820191906000526020600020905b81548152906001019060200180831161142757829003601f168201915b505050505083612e08565b6114b85760405162461bcd60e51b815260206004820152603460248201527f4b656363616b496e766572746572204279746573206b656363616b2069736e7460448201527320756e697175652021212121212121212121212160601b6064820152608401610ca7565b919050565b60606114c882610e99565b6040516355b04b0d60e11b815273__BytesAndKeccakLib_____________________9163ab60961a916114fe9190600401613b13565b600060405180830381865af415801561151b573d6000803e3d6000fd5b505050506040513d6000823e601f3d908101601f19168201604052610cf29190810190613e6d565b6000610cf282612e9a565b600061155a8383612961565b905061156581611543565b610cf25760405162461bcd60e51b8152600401610ca790613de5565b60006001600160a01b038316158015611598575081155b156115b25750600080516020614192833981519152610cf2565b6115bc8383611855565b6110468383612268565b60006001600160a01b0383166115de57506000610cf2565b6115e883836126a6565b602001519392505050565b6040516318f7a7c360e21b8152600481018390526001600160a01b03821660248201526000906110469073__BytesAndKeccakLib_____________________906363de9f0c906044015b600060405180830381865af415801561165a573d6000803e3d6000fd5b505050506040513d6000823e601f3d908101601f19168201604052610b309190810190613e6d565b6000610cf28261135b565b6000610cf282612ebc565b6000546001600160a01b03163314806116b557506116b5336117f3565b610cb05760405162461bcd60e51b815260206004820152602d60248201527f416c6c6f77616e63653a2063616c6c6572206d757374206265205265706f736960448201526c3a37b93c9027b832b930ba37b960991b6064820152608401610ca7565b604051632291b3f160e21b815260048101839052602481018290526000906110469073__BytesAndKeccakLib_____________________90638a46cfc49060440161163d565b600080611769836114bd565b60405163029695c360e21b815273__BytesAndKeccakLib_____________________91630a5a570c9161179f9190600401613c19565b6040805180830381865af41580156117bb573d6000803e3d6000fd5b505050506040513d601f19601f82011682018060405250810190610e3e9190613ef2565b60006117e9611698565b6110468383612f47565b60006001600160a01b03821630141561180e57506001919050565b60405163f132566360e01b8152600b60048201526001600160a01b038316602482015273__Array_________________________________9063f132566390604401610f99565b60008073__BytesAndKeccakLib_____________________63d5f0b04d8560006040518363ffffffff1660e01b8152600401611892929190613a9e565b602060405180830381865af41580156118af573d6000803e3d6000fd5b505050506040513d601f19601f820116820180604052508101906118d39190613955565b600081815260036020526040902080549093509091506201000090046001600160401b0316611a6557604051634dd11f0f60e11b81526001600160a01b0385166004820152600060248201526001604482015273__Token_________________________________90639ba23e1e90606401606060405180830381865af4158015611962573d6000803e3d6000fd5b505050506040513d601f19601f820116820180604052508101906119869190613f16565b6000828152600360209081526040918290208351815492850151948401516001600160401b0316620100000269ffffffffffffffff0000199515156101000261ffff1990941660ff90921691909117929092179390931617909155516316061a7160e21b815273__Array_________________________________9063581869c490611a22906002908590600401918252602082015260400190565b602060405180830381865af4158015611a3f573d6000803e3d6000fd5b505050506040513d601f19601f82011682018060405250810190611a639190613922565b505b81546201000090046001600160401b0316611a8257611a82613f8e565b815462010000900461010016611a985750505050565b604080516060810182528354600081900b8252610100810460ff16151560208301526201000090046001600160401b031681830152905163d5f0b04d60e01b815273__BytesAndKeccakLib_____________________9063d5f0b04d90611b059088908890600401613a9e565b602060405180830381865af4158015611b22573d6000803e3d6000fd5b505050506040513d601f19601f82011682018060405250810190611b469190613955565b600081815260036020526040902080549094509092506201000090046001600160401b0316611ccd5760405163543af62760e01b815273__Token_________________________________9063543af62790611bad90889088908690600190600401613fa4565b606060405180830381865af4158015611bca573d6000803e3d6000fd5b505050506040513d601f19601f82011682018060405250810190611bee9190613f16565b6000838152600360209081526040918290208351815492850151948401516001600160401b0316620100000269ffffffffffffffff0000199515156101000261ffff1990941660ff90921691909117929092179390931617909155516316061a7160e21b815273__Array_________________________________9063581869c490611c8a906002908690600401918252602082015260400190565b602060405180830381865af4158015611ca7573d6000803e3d6000fd5b505050506040513d601f19601f82011682018060405250810190611ccb9190613922565b505b82546201000090046001600160401b0316611cea57611cea613f8e565b5050505050565b611cf9613224565b610cb0600061327e565b611d0b611698565b6040516301ffc9a760e01b81526315d3789560e31b60048201526001600160a01b038216906301ffc9a790602401602060405180830381865afa158015611d56573d6000803e3d6000fd5b505050506040513d601f19601f82011682018060405250810190611d7a9190613922565b611dd25760405162461bcd60e51b8152602060048201526024808201527f636f6e7472616374206d75737420626520495265706f7369746f7279436f6e746044820152631c9858dd60e21b6064820152608401610ca7565b60005b600d54811015611ebb57600c6000836001600160a01b031663af640d0f6040518163ffffffff1660e01b8152600401602060405180830381865afa158015611e21573d6000803e3d6000fd5b505050506040513d601f19601f82011682018060405250810190611e459190613955565b81526020019081526020016000206000600d8381548110611e6857611e6861393f565b6000918252602080832060088304015460079092166004026101000a90910460e01b6001600160e01b03191683528201929092526040019020805460ff1916905580611eb3816139aa565b915050611dd5565b506040516316f4b92960e21b8152600a60048201526001600160a01b038216602482015273__Array_________________________________90635bd2e4a490604401602060405180830381865af4158015611f1b573d6000803e3d6000fd5b505050506040513d601f19601f82011682018060405250810190611f3f9190613922565b508060096000836001600160a01b031663af640d0f6040518163ffffffff1660e01b8152600401602060405180830381865afa158015611f83573d6000803e3d6000fd5b505050506040513d601f19601f82011682018060405250810190611fa79190613955565b815260200190815260200160002060006101000a8154816001600160a01b0302191690836001600160a01b0316021790555050565b6004546000905b8015612107576001600160a01b0384166004612000600184613ffb565b815481106120105761201061393f565b60009182526020909120600290910201546001600160a01b03161480156120655750600461203f600183613ffb565b8154811061204f5761204f61393f565b9060005260206000209060020201600101546000145b806120e657506001600160a01b0384166004612082600184613ffb565b815481106120925761209261393f565b60009182526020909120600290910201546001600160a01b03161480156120e657508260046120c2600184613ffb565b815481106120d2576120d261393f565b906000526020600020906002020160010154145b156120f5576001915050610cf2565b806120ff81614012565b915050611fe3565b5060009392505050565b600061211b611698565b61104683836132ce565b6000610cf2826000610cf8565b600061213c611698565b610cf28261342a565b61214d611698565b6040516316f4b92960e21b8152600b60048201526001600160a01b038216602482015273__Array_________________________________90635bd2e4a4906044015b602060405180830381865af41580156121ad573d6000803e3d6000fd5b505050506040513d601f19601f820116820180604052508101906121d19190613922565b5050565b60606000805160206141928339815191528214156121f857610cf260008061104d565b61220182610dc3565b612224576040518060a00160405280606c8152602001614126606c913992915050565b60008061223084610dec565b91509150610dae828261104d565b6000816001600160401b031660ff61225585610e47565b166001600160401b031614905092915050565b600061104683836134e8565b600060008051602061419283398151915282141561229757610cf260008061269a565b6122a082610dc3565b6122ac57506001919050565b6000806122b884610dec565b91509150610dae828261269a565b6060610cf282600061104d565b600654600090815b818110156123da57846001600160a01b0316600682815481106123005761230061393f565b60009182526020909120600290910201546001600160a01b031614801561234b5750600681815481106123355761233561393f565b9060005260206000209060020201600101546000145b806123b85750846001600160a01b03166006828154811061236e5761236e61393f565b60009182526020909120600290910201546001600160a01b03161480156123b8575083600682815481106123a4576123a461393f565b906000526020600020906002020160010154145b156123c857600192505050610cf2565b806123d2816139aa565b9150506122db565b506000949350505050565b6123ed611698565b60405163edefe12d60e01b8152600b60048201526001600160a01b038216602482015273__Array_________________________________9063edefe12d90604401612190565b6000612441836000611fdc565b1561244e57506001610cf2565b811561246b5761245e8383611fdc565b1561246b57506001610cf2565b6000836001600160a01b031663373a7fb46040518163ffffffff1660e01b8152600401602060405180830381865afa1580156124ab573d6000803e3d6000fd5b505050506040513d601f19601f820116820180604052508101906124cf9190614029565b90506124da8161168d565b6124e8576000915050610cf2565b604051632b43f03360e21b81526001600160a01b0382169063ad0fc0cc906125169087908790600401613a9e565b602060405180830381865afa158015612533573d6000803e3d6000fd5b505050506040513d601f19601f82011682018060405250810190610dae9190613922565b600061256383836122d3565b1561257057506000610cf2565b61257a8383611fdc565b1561258757506001610cf2565b60075460ff16159392505050565b6000806125a1836114bd565b604051639ac1b34560e01b815273__BytesAndKeccakLib_____________________91639ac1b345916125d79190600401613c19565b6040805180830381865af41580156125f3573d6000803e3d6000fd5b505050506040513d601f19601f82011682018060405250810190610e3e9190614046565b604051632431a7cf60e01b8152600090610cf29073__BytesAndKeccakLib_____________________90632431a7cf90612655908690600401613c19565b600060405180830381865af4158015612672573d6000803e3d6000fd5b505050506040513d6000823e601f3d908101601f19168201604052610812919081019061406b565b60006110468383613526565b60408051606081018252600080825260208201819052918101919091526001600160a01b0383166126f6575060408051606081018252601119815260006020820152600191810191909152610cf2565b6003600073__BytesAndKeccakLib_____________________63d5f0b04d8660006040518363ffffffff1660e01b8152600401612734929190613a9e565b602060405180830381865af4158015612751573d6000803e3d6000fd5b505050506040513d601f19601f820116820180604052508101906127759190613955565b815260208082019290925260409081016000908120825160608101845290549182900b815261010080830460ff16151594820194909452620100009091046001600160401b038116928201929092529250166127d057610cf2565b6003600073__BytesAndKeccakLib_____________________63d5f0b04d86866040518363ffffffff1660e01b815260040161280d929190613a9e565b602060405180830381865af415801561282a573d6000803e3d6000fd5b505050506040513d601f19601f8201168201806040525081019061284e9190613955565b815260208082019290925260409081016000908120825160608101845290549182900b8152610100820460ff161515938101939093526201000090046001600160401b0316908201529392505050565b60006128ac83610200612942565b6128b857506000610cf2565b6128c183610fda565b6040516301ffc9a760e01b81526001600160e01b0319841660048201526001600160a01b0391909116906301ffc9a790602401602060405180830381865afa158015612911573d6000803e3d6000fd5b505050506040513d601f19601f820116820180604052508101906110469190613922565b6000610cf28260006115c6565b60008161294e84610e47565b166001600160401b031615159392505050565b60006001600160a01b038316158015612978575081155b156129925750600080516020614192833981519152610cf2565b60405163d5f0b04d60e01b815273__BytesAndKeccakLib_____________________9063d5f0b04d906129cb9086908690600401613a9e565b602060405180830381865af41580156129e8573d6000803e3d6000fd5b505050506040513d601f19601f820116820180604052508101906110469190613955565b6000600080516020614192833981519152821415612a2f57610cf26000806115c6565b612a3882610dc3565b612a4457506000919050565b600080612a5084610dec565b91509150610dae82826115c6565b6000612a68611698565b610cf28261357e565b6000612a7b611698565b610cf2826135b0565b600080610e3e836136d1565b6000612a9a611698565b6110468383613753565b612aac613224565b6001600160a01b038116612b115760405162461bcd60e51b815260206004820152602660248201527f4f776e61626c653a206e6577206f776e657220697320746865207a65726f206160448201526564647265737360d01b6064820152608401610ca7565b612b1a8161327e565b50565b6040805160608101825260008082526020820181905291810191909152610cf28260006126a6565b60006001600160e01b031982166301ffc9a760e01b1480610cf257506001600160e01b03198216632b43f03360e21b1492915050565b600654600090815b81811015612c1557846001600160a01b031660068281548110612ba857612ba861393f565b60009182526020909120600290910201546001600160a01b0316148015612bf3575060068181548110612bdd57612bdd61393f565b9060005260206000209060020201600101546000145b15612c0357600092505050610cf2565b80612c0d816139aa565b915050612b83565b5082612cd55760001981015b81811015612ccf57846001600160a01b031660068281548110612c4657612c4661393f565b60009182526020909120600290910201546001600160a01b03161415612cc657612cc460068281548110612c7c57612c7c61393f565b6000918252602090912060029091020154600680546001600160a01b039092169184908110612cad57612cad61393f565b906000526020600020906002020160010154613753565b505b60001901612c21565b50612d6b565b60005b81811015612d6957846001600160a01b031660068281548110612cfd57612cfd61393f565b60009182526020909120600290910201546001600160a01b0316148015612d4757508360068281548110612d3357612d3361393f565b906000526020600020906002020160010154145b15612d5757600092505050610cf2565b80612d61816139aa565b915050612cd8565b505b604080518082019091526001600160a01b038581168252602082018581526006805460018101825560009190915292517ff652222313e28459528d920b65115c16c04f3efc82aaedc97be59f3f377c0d3f600290940293840180546001600160a01b0319169190931617909155517ff652222313e28459528d920b65115c16c04f3efc82aaedc97be59f3f377c0d40909101555060019392505050565b60008151835114612e1b57506000610cf2565b60005b8351811015612e9057828181518110612e3957612e3961393f565b602001015160f81c60f81b6001600160f81b031916848281518110612e6057612e6061393f565b01602001516001600160f81b03191614612e7e576000915050610cf2565b80612e88816139aa565b915050612e1e565b5060019392505050565b60008181526008602052604081208054612eb390613e1c565b15159392505050565b60006001600160a01b038216301415612ed757506001919050565b6005545b8015612f3e576001600160a01b0383166005612ef8600184613ffb565b81548110612f0857612f0861393f565b6000918252602090912001546001600160a01b03161415612f2c5750600192915050565b80612f3681614012565b915050612edb565b50600092915050565b6004546000905b8015612ff1576001600160a01b0384166004612f6b600184613ffb565b81548110612f7b57612f7b61393f565b60009182526020909120600290910201546001600160a01b0316148015612fd057506004612faa600183613ffb565b81548110612fba57612fba61393f565b9060005260206000209060020201600101546000145b15612fdf576000915050610cf2565b80612fe981614012565b915050612f4e565b50816130e0575b6004545b80156130cf576001600160a01b0384166004613019600184613ffb565b815481106130295761302961393f565b60009182526020909120600290910201546001600160a01b031614156130bd576130b76004613059600184613ffb565b815481106130695761306961393f565b60009182526020909120600290910201546001600160a01b03166004613090600185613ffb565b815481106130a0576130a061393f565b9060005260206000209060020201600101546132ce565b506130cf565b806130c781614012565b915050612ffc565b806130da5750613188565b50612ff8565b6004545b8015613186576001600160a01b0384166004613101600184613ffb565b815481106131115761311161393f565b60009182526020909120600290910201546001600160a01b03161480156131655750826004613141600184613ffb565b815481106131515761315161393f565b906000526020600020906002020160010154145b15613174576000915050610cf2565b8061317e81614012565b9150506130e4565b505b604080518082019091526001600160a01b038481168252602082018481526004805460018101825560009190915292517f8a35acfbc15ff81a39ae7d344fd709f28e8600b4aa8c65c6b64bfe7fe36bd19b600290940293840180546001600160a01b0319169190931617909155517f8a35acfbc15ff81a39ae7d344fd709f28e8600b4aa8c65c6b64bfe7fe36bd19c9091015550600192915050565b6000546001600160a01b03163314610cb05760405162461bcd60e51b815260206004820152601f60248201527f416c6c6f77616e63653a2063616c6c6572206d757374206265204f776e6572006044820152606401610ca7565b600080546001600160a01b038381166001600160a01b0319831681178455604051919092169283917f8be0079c531659141344cd1fd0a4f28419497f9722a3daafe3b4186f6b6457e09190a35050565b600454600090815b818110156123da57846001600160a01b0316600482815481106132fb576132fb61393f565b60009182526020909120600290910201546001600160a01b0316148015613345575083600482815481106133315761333161393f565b906000526020600020906002020160010154145b1561341857613355600183613ffb565b8110156133d3576004613369600184613ffb565b815481106133795761337961393f565b90600052602060002090600202016004828154811061339a5761339a61393f565b60009182526020909120825460029092020180546001600160a01b0319166001600160a01b039092169190911781556001918201549101555b60048054806133e4576133e46140e1565b60008281526020812060026000199093019283020180546001600160a01b0319168155600101559055600192505050610cf2565b80613422816139aa565b9150506132d6565b6005546000905b8015613494576001600160a01b038316600561344e600184613ffb565b8154811061345e5761345e61393f565b6000918252602090912001546001600160a01b031614156134825750600092915050565b8061348c81614012565b915050613431565b600580546001810182556000919091527f036b6384b5eca791c62761152d0c79bb0604c104a5fb6f4eb0703f3154bb3db00180546001600160a01b0319166001600160a01b03851617905550600192915050565b600061104673__BytesAndKeccakLib_____________________630de874ed85856040518363ffffffff1660e01b815260040161163d929190613a9e565b60006001600160a01b03831661353e57506001610cf2565b73__Token_________________________________633646b54861356285856126a6565b6040518263ffffffff1660e01b81526004016129cb9190613a52565b60075460009060ff161515821515141561359a57506000919050565b6007805460ff1916831515179055506001919050565b600554600090815b8181101561210757836001600160a01b0316600582815481106135dd576135dd61393f565b6000918252602090912001546001600160a01b031614156136bf57613603600183613ffb565b811015613682576005613617600184613ffb565b815481106136275761362761393f565b600091825260209091200154600580546001600160a01b0390921691839081106136535761365361393f565b9060005260206000200160006101000a8154816001600160a01b0302191690836001600160a01b031602179055505b6005805480613693576136936140e1565b600082815260209020810160001990810180546001600160a01b03191690550190555060019392505050565b806136c9816139aa565b9150506135b8565b6000806136dd836114bd565b6040516314130a7960e31b815273__BytesAndKeccakLib_____________________9163a09853c8916137139190600401613c19565b6040805180830381865af415801561372f573d6000803e3d6000fd5b505050506040513d601f19601f82011682018060405250810190610e3e91906140f7565b600654600090815b818110156123da57846001600160a01b0316600682815481106137805761378061393f565b60009182526020909120600290910201546001600160a01b03161480156137ca575083600682815481106137b6576137b661393f565b906000526020600020906002020160010154145b15613869576137da600183613ffb565b8110156138585760066137ee600184613ffb565b815481106137fe576137fe61393f565b90600052602060002090600202016006828154811061381f5761381f61393f565b60009182526020909120825460029092020180546001600160a01b0319166001600160a01b039092169190911781556001918201549101555b60068054806133e4576133e46140e1565b80613873816139aa565b91505061375b565b82805461388790613e1c565b90600052602060002090601f0160209004810192826138a957600085556138ef565b82601f106138c257805160ff19168380011785556138ef565b828001600101855582156138ef579182015b828111156138ef5782518255916020019190600101906138d4565b506138fb9291506138ff565b5090565b5b808211156138fb5760008155600101613900565b8015158114612b1a57600080fd5b60006020828403121561393457600080fd5b815161104681613914565b634e487b7160e01b600052603260045260246000fd5b60006020828403121561396757600080fd5b5051919050565b634e487b7160e01b600052602160045260246000fd5b8183823760009101908152919050565b634e487b7160e01b600052601160045260246000fd5b60006000198214156139be576139be613994565b5060010190565b80356001600160e01b0319811681146114b857600080fd5b6000602082840312156139ef57600080fd5b611046826139c5565b6001600160a01b0381168114612b1a57600080fd5b60008060408385031215613a2057600080fd5b8235613a2b816139f8565b946020939093013593505050565b600060208284031215613a4b57600080fd5b5035919050565b815160000b81526020808301511515908201526040808301516001600160401b03169082015260608101610cf2565b600060208284031215613a9357600080fd5b8135611046816139f8565b6001600160a01b03929092168252602082015260400190565b60005b83811015613ad2578181015183820152602001613aba565b83811115613ae1576000848401525b50505050565b60008151808452613aff816020860160208601613ab7565b601f01601f19169290920160200192915050565b6020815260006110466020830184613ae7565b634e487b7160e01b600052604160045260246000fd5b604051601f8201601f191681016001600160401b0381118282101715613b6457613b64613b26565b604052919050565b60006001600160401b03821115613b8557613b85613b26565b50601f01601f191660200190565b6000613ba6613ba184613b6c565b613b3c565b9050828152838383011115613bba57600080fd5b828260208301376000602084830101529392505050565b600060208284031215613be357600080fd5b81356001600160401b03811115613bf957600080fd5b8201601f81018413613c0a57600080fd5b610dae84823560208401613b93565b6020808252825182820181905260009190848201906040850190845b81811015613c5157835183529284019291840191600101613c35565b50909695505050505050565b60008060408385031215613c7057600080fd5b823591506020830135613c82816139f8565b809150509250929050565b60008060408385031215613ca057600080fd5b50508035926020909101359150565b6001600160401b0381168114612b1a57600080fd5b60008060408385031215613cd757600080fd5b823591506020830135613c8281613caf565b60006001600160401b03821115613d0257613d02613b26565b5060051b60200190565b60006020808385031215613d1f57600080fd5b82356001600160401b03811115613d3557600080fd5b8301601f81018513613d4657600080fd5b8035613d54613ba182613ce9565b81815260059190911b82018301908381019087831115613d7357600080fd5b928401925b82841015613d9157833582529284019290840190613d78565b979650505050505050565b60008060408385031215613daf57600080fd5b82359150613dbf602084016139c5565b90509250929050565b600060208284031215613dda57600080fd5b813561104681613914565b60208082526017908201527f43757272656e6379206e6f742072656769737465726564000000000000000000604082015260600190565b600181811c90821680613e3057607f821691505b602082108114156113a757634e487b7160e01b600052602260045260246000fd5b60008251613e63818460208701613ab7565b9190910192915050565b60006020808385031215613e8057600080fd5b82516001600160401b03811115613e9657600080fd5b8301601f81018513613ea757600080fd5b8051613eb5613ba182613ce9565b81815260059190911b82018301908381019087831115613ed457600080fd5b928401925b82841015613d9157835182529284019290840190613ed9565b60008060408385031215613f0557600080fd5b505080516020909101519092909150565b600060608284031215613f2857600080fd5b604051606081018181106001600160401b0382111715613f4a57613f4a613b26565b6040528251600081900b8114613f5f57600080fd5b81526020830151613f6f81613914565b60208201526040830151613f8281613caf565b60408201529392505050565b634e487b7160e01b600052600160045260246000fd5b6001600160a01b03851681526020810184905260c08101613fea6040830185805160000b82526020808201511515908301526040908101516001600160401b0316910152565b82151560a083015295945050505050565b60008282101561400d5761400d613994565b500390565b60008161402157614021613994565b506000190190565b60006020828403121561403b57600080fd5b8151611046816139f8565b6000806040838503121561405957600080fd5b825191506020830151613c82816139f8565b60006020828403121561407d57600080fd5b81516001600160401b0381111561409357600080fd5b8201601f810184136140a457600080fd5b80516140b2613ba182613b6c565b8181528560208385010111156140c757600080fd5b6140d8826020830160208601613ab7565b95945050505050565b634e487b7160e01b600052603160045260246000fd5b6000806040838503121561410a57600080fd5b8251614115816139f8565b602093909301519294929350505056fe68747470733a2f2f6769746875622e636f6d2f5061747269636b416c706861432f646566692d7374616b652d7969656c642d62726f776e69652d66726565636f64652f626c6f622f6d61696e2f66726f6e745f656e642f7372632f646170702e706e673f7261773d74727565ad3228b676f7d3cd4284a5443f17f1962b36e491b30a40b2405849e597ba5fb568747470733a2f2f7261772e67697468756275736572636f6e74656e742e636f6d2f5061747269636b416c706861432f646566692d7374616b652d7969656c642d62726f776e69652d66726565636f64652f6d61696e2f66726f6e745f656e642f7372632f6574682e706e673f7261773d74727565a2646970667358221220140be4bdb99578763084767fcdfaa78f5c601bb80f37ba0a84bf6331d38a5e2564736f6c634300080b0033","bytecodeSha1":"ff09f4bbf566b44d41efe1cf096ffc1f16f63267","type":"contract","abi":[{"inputs":[{"internalType":"bool","name":"MODETEST_","type":"bool"}],"stateMutability":"nonpayable","type":"constructor","name":"constructor"},{"anonymous":false,"inputs":[{"indexed":true,"internalType":"address","name":"previousOwner","type":"address"},{"indexed":true,"internalType":"address","name":"newOwner","type":"address"}],"name":"OwnershipTransferred","type":"event"},{"stateMutability":"nonpayable","type":"fallback"},{"inputs":[{"internalType":"address","name":"addr_","type":"address"},{"internalType":"uint256","name":"v_","type":"uint256"}],"name":"AddressUInt256","outputs":[{"internalType":"bytes32","name":"k_","type":"bytes32"}],"stateMutability":"nonpayable","type":"function"},{"inputs":[{"internalType":"bytes","name":"in_","type":"bytes"}],"name":"Bytes","outputs":[{"internalType":"bytes32","name":"k_","type":"bytes32"}],"stateMutability":"nonpayable","type":"function"},{"inputs":[{"internalType":"bytes32","name":"v_","type":"bytes32"},{"internalType":"address","name":"addr_","type":"address"}],"name":"Bytes32Address","outputs":[{"internalType":"bytes32","name":"k_","type":"bytes32"}],"stateMutability":"nonpayable","type":"function"},{"inputs":[{"internalType":"bytes32[]","name":"in_","type":"bytes32[]"}],"name":"Bytes32Array","outputs":[{"internalType":"bytes32","name":"k_","type":"bytes32"}],"stateMutability":"nonpayable","type":"function"},{"inputs":[{"internalType":"bytes32","name":"v1_","type":"bytes32"},{"internalType":"bytes32","name":"v2_","type":"bytes32"}],"name":"Bytes32Bytes32","outputs":[{"internalType":"bytes32","name":"k_","type":"bytes32"}],"stateMutability":"nonpayable","type":"function"},{"inputs":[],"name":"MODETEST","outputs":[{"internalType":"bool","name":"","type":"bool"}],"stateMutability":"view","type":"function"},{"inputs":[{"internalType":"string","name":"in_","type":"string"}],"name":"String","outputs":[{"internalType":"bytes32","name":"k_","type":"bytes32"}],"stateMutability":"nonpayable","type":"function"},{"inputs":[],"name":"_originalblock","outputs":[{"internalType":"uint256","name":"","type":"uint256"}],"stateMutability":"view","type":"function"},{"inputs":[{"internalType":"address","name":"bot_","type":"address"}],"name":"addOperator","outputs":[],"stateMutability":"nonpayable","type":"function"},{"inputs":[{"internalType":"address","name":"token","type":"address"},{"internalType":"uint256","name":"tokenId","type":"uint256"}],"name":"addTokenCertified","outputs":[{"internalType":"bool","name":"","type":"bool"}],"stateMutability":"nonpayable","type":"function"},{"inputs":[{"internalType":"address","name":"certifier_","type":"address"}],"name":"addTrustedCertifier","outputs":[{"internalType":"bool","name":"","type":"bool"}],"stateMutability":"nonpayable","type":"function"},{"inputs":[{"internalType":"contract IContractCertified","name":"contractAddr_","type":"address"},{"internalType":"uint256","name":"contractId_","type":"uint256"}],"name":"certify","outputs":[{"internalType":"bool","name":"","type":"bool"}],"stateMutability":"view","type":"function"},{"inputs":[],"name":"checkOperators","outputs":[],"stateMutability":"view","type":"function"},{"inputs":[{"internalType":"address","name":"addr_","type":"address"},{"internalType":"uint256","name":"id_","type":"uint256"}],"name":"currency","outputs":[{"internalType":"bytes32","name":"k_","type":"bytes32"}],"stateMutability":"nonpayable","type":"function"},{"inputs":[{"internalType":"bytes32","name":"k_","type":"bytes32"}],"name":"exists","outputs":[{"internalType":"bool","name":"","type":"bool"}],"stateMutability":"view","type":"function"},{"inputs":[{"internalType":"bytes32","name":"tokenhash_","type":"bytes32"}],"name":"existsCurrency","outputs":[{"internalType":"bool","name":"","type":"bool"}],"stateMutability":"view","type":"function"},{"inputs":[{"internalType":"address","name":"token_","type":"address"},{"internalType":"uint256","name":"tokenId_","type":"uint256"}],"name":"features","outputs":[{"internalType":"uint64","name":"","type":"uint64"}],"stateMutability":"view","type":"function"},{"inputs":[{"internalType":"bytes32","name":"tokenhash_","type":"bytes32"}],"name":"features","outputs":[{"internalType":"uint64","name":"","type":"uint64"}],"stateMutability":"view","type":"function"},{"inputs":[{"internalType":"address","name":"token_","type":"address"}],"name":"features","outputs":[{"internalType":"uint64","name":"","type":"uint64"}],"stateMutability":"view","type":"function"},{"inputs":[{"internalType":"bytes32","name":"hash_","type":"bytes32"}],"name":"get","outputs":[{"internalType":"address","name":"","type":"address"}],"stateMutability":"view","type":"function"},{"inputs":[{"internalType":"address","name":"token_","type":"address"}],"name":"granularity","outputs":[{"internalType":"uint256","name":"","type":"uint256"}],"stateMutability":"view","type":"function"},{"inputs":[{"internalType":"bytes32","name":"tokenhash_","type":"bytes32"}],"name":"granularity","outputs":[{"internalType":"uint256","name":"","type":"uint256"}],"stateMutability":"view","type":"function"},{"inputs":[{"internalType":"address","name":"token_","type":"address"},{"internalType":"uint256","name":"tokenId_","type":"uint256"}],"name":"granularity","outputs":[{"internalType":"uint256","name":"","type":"uint256"}],"stateMutability":"view","type":"function"},{"inputs":[{"internalType":"bytes32","name":"tokenhash_","type":"bytes32"},{"internalType":"uint64","name":"feature_","type":"uint64"}],"name":"hasFeature","outputs":[{"internalType":"bool","name":"","type":"bool"}],"stateMutability":"view","type":"function"},{"inputs":[{"internalType":"address","name":"token_","type":"address"},{"internalType":"uint256","name":"tokenId_","type":"uint256"}],"name":"image","outputs":[{"internalType":"string","name":"","type":"string"}],"stateMutability":"view","type":"function"},{"inputs":[{"internalType":"bytes32","name":"tokenhash_","type":"bytes32"}],"name":"image","outputs":[{"internalType":"string","name":"","type":"string"}],"stateMutability":"view","type":"function"},{"inputs":[{"internalType":"address","name":"token_","type":"address"}],"name":"image","outputs":[{"internalType":"string","name":"","type":"string"}],"stateMutability":"view","type":"function"},{"inputs":[{"internalType":"address","name":"caller_","type":"address"}],"name":"isContract","outputs":[{"internalType":"bool","name":"","type":"bool"}],"stateMutability":"view","type":"function"},{"inputs":[{"internalType":"address","name":"contractAddr_","type":"address"},{"internalType":"uint256","name":"contractId_","type":"uint256"}],"name":"isContractAllowed","outputs":[{"internalType":"bool","name":"","type":"bool"}],"stateMutability":"view","type":"function"},{"inputs":[{"internalType":"address","name":"contractAddr_","type":"address"},{"internalType":"uint256","name":"contractId_","type":"uint256"}],"name":"isContractCertified","outputs":[{"internalType":"bool","name":"","type":"bool"}],"stateMutability":"view","type":"function"},{"inputs":[{"internalType":"address","name":"contractAddr_","type":"address"},{"internalType":"uint256","name":"contractId_","type":"uint256"}],"name":"isContractForbidden","outputs":[{"internalType":"bool","name":"","type":"bool"}],"stateMutability":"view","type":"function"},{"inputs":[],"name":"isContractForbiddenUnknown","outputs":[{"internalType":"bool","name":"","type":"bool"}],"stateMutability":"view","type":"function"},{"inputs":[{"internalType":"bytes32","name":"tokenhash_","type":"bytes32"},{"internalType":"uint64","name":"type_","type":"uint64"}],"name":"isFeatureType","outputs":[{"internalType":"bool","name":"","type":"bool"}],"stateMutability":"view","type":"function"},{"inputs":[{"internalType":"address","name":"caller_","type":"address"}],"name":"isOperator","outputs":[{"internalType":"bool","name":"","type":"bool"}],"stateMutability":"view","type":"function"},{"inputs":[{"internalType":"address","name":"certifier_","type":"address"}],"name":"isTrustedCertifier","outputs":[{"internalType":"bool","name":"","type":"bool"}],"stateMutability":"view","type":"function"},{"inputs":[{"internalType":"address","name":"token_","type":"address"},{"internalType":"uint256","name":"tokenId_","type":"uint256"}],"name":"nft","outputs":[{"internalType":"bool","name":"","type":"bool"}],"stateMutability":"view","type":"function"},{"inputs":[{"internalType":"address","name":"token_","type":"address"}],"name":"nft","outputs":[{"internalType":"bool","name":"","type":"bool"}],"stateMutability":"view","type":"function"},{"inputs":[{"internalType":"bytes32","name":"tokenhash_","type":"bytes32"}],"name":"nft","outputs":[{"internalType":"bool","name":"","type":"bool"}],"stateMutability":"view","type":"function"},{"inputs":[],"name":"owner","outputs":[{"internalType":"address","name":"","type":"address"}],"stateMutability":"view","type":"function"},{"inputs":[{"internalType":"address","name":"addr_","type":"address"},{"internalType":"uint256","name":"id_","type":"uint256"}],"name":"pureCurrency","outputs":[{"internalType":"bytes32","name":"k_","type":"bytes32"}],"stateMutability":"pure","type":"function"},{"inputs":[{"internalType":"address","name":"bot_","type":"address"}],"name":"removeOperator","outputs":[],"stateMutability":"nonpayable","type":"function"},{"inputs":[{"internalType":"address","name":"token","type":"address"},{"internalType":"uint256","name":"tokenId","type":"uint256"}],"name":"removeTokenCertified","outputs":[{"internalType":"bool","name":"","type":"bool"}],"stateMutability":"nonpayable","type":"function"},{"inputs":[{"internalType":"address","name":"certifier_","type":"address"}],"name":"removeTrustedCertifier","outputs":[{"internalType":"bool","name":"","type":"bool"}],"stateMutability":"nonpayable","type":"function"},{"inputs":[],"name":"renounceOwnership","outputs":[],"stateMutability":"nonpayable","type":"function"},{"inputs":[{"internalType":"bytes32","name":"k_","type":"bytes32"}],"name":"resolveAddressUInt256","outputs":[{"internalType":"address","name":"addr_","type":"address"},{"internalType":"uint256","name":"v_","type":"uint256"}],"stateMutability":"view","type":"function"},{"inputs":[{"internalType":"bytes32","name":"k_","type":"bytes32"}],"name":"resolveBytes","outputs":[{"internalType":"bytes","name":"out_","type":"bytes"}],"stateMutability":"view","type":"function"},{"inputs":[{"internalType":"bytes32","name":"k_","type":"bytes32"}],"name":"resolveBytes32Address","outputs":[{"internalType":"bytes32","name":"v_","type":"bytes32"},{"internalType":"address","name":"addr_","type":"address"}],"stateMutability":"view","type":"function"},{"inputs":[{"internalType":"bytes32","name":"k_","type":"bytes32"}],"name":"resolveBytes32Array","outputs":[{"internalType":"bytes32[]","name":"out_","type":"bytes32[]"}],"stateMutability":"view","type":"function"},{"inputs":[{"internalType":"bytes32","name":"k_","type":"bytes32"}],"name":"resolveBytes32Bytes32","outputs":[{"internalType":"bytes32","name":"v1_","type":"bytes32"},{"internalType":"bytes32","name":"v2_","type":"bytes32"}],"stateMutability":"view","type":"function"},{"inputs":[{"internalType":"bytes32","name":"tokenhash_","type":"bytes32"}],"name":"resolveCurrency","outputs":[{"internalType":"address","name":"addr","type":"address"},{"internalType":"uint256","name":"id","type":"uint256"}],"stateMutability":"view","type":"function"},{"inputs":[{"internalType":"bytes32","name":"tokenhash_","type":"bytes32"}],"name":"resolveCurrencyAddr","outputs":[{"internalType":"address","name":"","type":"address"}],"stateMutability":"view","type":"function"},{"inputs":[{"internalType":"bytes32","name":"k_","type":"bytes32"}],"name":"resolveString","outputs":[{"internalType":"string","name":"out_","type":"string"}],"stateMutability":"view","type":"function"},{"inputs":[{"internalType":"address","name":"addr_","type":"address"},{"internalType":"uint256","name":"id_","type":"uint256"}],"name":"roCurrency","outputs":[{"internalType":"bytes32","name":"k_","type":"bytes32"}],"stateMutability":"view","type":"function"},{"inputs":[{"internalType":"contract IRepositoryContract","name":"contract_","type":"address"}],"name":"setContract","outputs":[],"stateMutability":"nonpayable","type":"function"},{"inputs":[{"internalType":"bytes4","name":"interfaceId","type":"bytes4"}],"name":"supportsInterface","outputs":[{"internalType":"bool","name":"","type":"bool"}],"stateMutability":"view","type":"function"},{"inputs":[{"internalType":"bytes32","name":"tokenhash_","type":"bytes32"},{"internalType":"bytes4","name":"interfaceId","type":"bytes4"}],"name":"supportsInterface","outputs":[{"internalType":"bool","name":"","type":"bool"}],"stateMutability":"view","type":"function"},{"inputs":[{"internalType":"address","name":"token_","type":"address"},{"internalType":"uint256","name":"tokenid_","type":"uint256"}],"name":"token","outputs":[],"stateMutability":"nonpayable","type":"function"},{"inputs":[{"internalType":"address","name":"token","type":"address"},{"internalType":"uint256","name":"tokenId","type":"uint256"}],"name":"tokenForbiddenAdd","outputs":[{"internalType":"bool","name":"","type":"bool"}],"stateMutability":"nonpayable","type":"function"},{"inputs":[{"internalType":"address","name":"token","type":"address"},{"internalType":"uint256","name":"tokenId","type":"uint256"}],"name":"tokenForbiddenRemove","outputs":[{"internalType":"bool","name":"","type":"bool"}],"stateMutability":"nonpayable","type":"function"},{"inputs":[{"internalType":"bool","name":"forbiddenunknown_","type":"bool"}],"name":"tokenForbiddenUnknownSet","outputs":[{"internalType":"bool","name":"","type":"bool"}],"stateMutability":"nonpayable","type":"function"},{"inputs":[{"internalType":"bytes32","name":"tokenhash_","type":"bytes32"}],"name":"tokenInfo","outputs":[{"components":[{"internalType":"int8","name":"granularity","type":"int8"},{"internalType":"bool","name":"nft","type":"bool"},{"internalType":"uint64","name":"features","type":"uint64"}],"internalType":"struct Token.Info","name":"","type":"tuple"}],"stateMutability":"view","type":"function"},{"inputs":[{"internalType":"address","name":"token_","type":"address"},{"internalType":"uint256","name":"tokenId_","type":"uint256"}],"name":"tokenInfo","outputs":[{"components":[{"internalType":"int8","name":"granularity","type":"int8"},{"internalType":"bool","name":"nft","type":"bool"},{"internalType":"uint64","name":"features","type":"uint64"}],"internalType":"struct Token.Info","name":"out_","type":"tuple"}],"stateMutability":"view","type":"function"},{"inputs":[{"internalType":"address","name":"token_","type":"address"}],"name":"tokenInfo","outputs":[{"components":[{"internalType":"int8","name":"granularity","type":"int8"},{"internalType":"bool","name":"nft","type":"bool"},{"internalType":"uint64","name":"features","type":"uint64"}],"internalType":"struct Token.Info","name":"out_","type":"tuple"}],"stateMutability":"view","type":"function"},{"inputs":[{"internalType":"address","name":"newOwner","type":"address"}],"name":"transferOwnership","outputs":[],"stateMutability":"nonpayable","type":"function"}],"compiler":{"version":"0.8.11+commit.d7f03943","evm_version":"istanbul","optimizer":{"enabled":true,"runs":200}},"contractName":"Repository","deployedBytecode":"608060405234801561001057600080fd5b50600436106103d05760003560e01c806381b2490b116101ff578063ad10a1351161011a578063c9c2a940116100ad578063e50d1b3e1161007c578063e50d1b3e14610be0578063e855a31314610bf3578063f2fde38b14610c06578063f5dab71114610c19576103d0565b8063c9c2a94014610b94578063d47a7edd14610ba7578063d4945d0e14610bba578063dbf5f2fd14610bcd576103d0565b8063bb7d88a9116100e9578063bb7d88a914610b48578063c33470d314610b5b578063c452e6b614610b6e578063c5537eb714610b81576103d0565b8063ad10a13514610adf578063af91558514610af2578063b305438314610b22578063b72a4a7114610b35576103d0565b80639e9bb9c111610192578063a9d4632611610161578063a9d4632614610a93578063ababadb514610aa6578063ac8a584a14610ab9578063ad0fc0cc14610acc576103d0565b80639e9bb9c114610a47578063a663d4f514610a5a578063a86eeb9114610a6d578063a9bf985814610a80576103d0565b80638da5cb5b116101ce5780638da5cb5b146109e75780638eaa6ac0146109f857806395b5d58414610a215780639870d7fe14610a34576103d0565b806381b2490b146109a357806383350075146109b657806389765f59146109c15780638d49d89b146109d4576103d0565b80634329598c116102ef5780635f5c5baa116102825780636d70f7ae116102515780636d70f7ae146109625780636f45768314610975578063715018a61461098857806375f890ab14610990576103d0565b80635f5c5baa1461090a57806361e99ffb14610914578063657c7e091461092757806367c51dfc1461094f576103d0565b8063552cdf98116102be578063552cdf98146108be5780635768bbb5146108d1578063589e6a98146108e45780635b62cb70146108f7576103d0565b80634329598c146107805780634635229b146108715780634f79b79214610898578063509ff69b146108ab576103d0565b8063162790551161036757806324ace6721161033657806324ace672146108045780632558a0791461081757806327ee9dc21461083e57806338a699a41461085e576103d0565b806316279055146107a0578063184bc906146107b357806318d54cf3146107de5780631d7a3b72146107f1576103d0565b806307d61085116103a357806307d61085146107395780630ea94b961461074c578063120f6ee31461076d57806312cae67b14610780576103d0565b806301ffc9a7146106a55780630221c7de146106cd57806303565ea1146106f8578063036995df14610718575b6103d8610c2c565b60405163825998c160e01b8152600d60048201526000356001600160e01b031916602482015273__$f71e59c5327218924d154e230469c101bd$__9063825998c190604401602060405180830381865af415801561043a573d6000803e3d6000fd5b505050506040513d601f19601f8201168201806040525081019061045e9190613922565b5060005b600a548110156106a257336001600160a01b0316600a82815481106104895761048961393f565b6000918252602090912001546001600160a01b031614156104a957610690565b6000600a82815481106104be576104be61393f565b600091825260209182902001546040805163af640d0f60e01b815290516001600160a01b039092169263af640d0f926004808401938290030181865afa15801561050c573d6000803e3d6000fd5b505050506040513d601f19601f820116820180604052508101906105309190613955565b905060016000828152600c602090815260408083206001600160e01b0319843516845290915290205460ff16600281111561056d5761056d61396e565b14156105795750610690565b6000600a838154811061058e5761058e61393f565b60009182526020822001546040516001600160a01b03909116916105b3913690613984565b6000604051808303816000865af19150503d80600081146105f0576040519150601f19603f3d011682016040523d82523d6000602084013e6105f5565b606091505b50506000838152600c6020908152604080832083356001600160e01b03191684529091528120549192509060ff1660028111156106345761063461396e565b141561068d5780610646576001610649565b60025b6000838152600c602090815260408083206001600160e01b031984351684529091529020805460ff191660018360028111156106875761068761396e565b02179055505b50505b8061069a816139aa565b915050610462565b50005b6106b86106b33660046139dd565b610cb2565b60405190151581526020015b60405180910390f35b6106e06106db366004613a0d565b610cf8565b6040516001600160401b0390911681526020016106c4565b61070b610706366004613a39565b610d25565b6040516106c49190613a52565b61072b610726366004613a81565b610db6565b6040519081526020016106c4565b6106b8610747366004613a39565b610dc3565b61075f61075a366004613a39565b610dec565b6040516106c4929190613a9e565b6106e061077b366004613a39565b610e47565b61079361078e366004613a39565b610e99565b6040516106c49190613b13565b6106b86107ae366004613a81565b610f3b565b6107c66107c1366004613a39565b610fda565b6040516001600160a01b0390911681526020016106c4565b6106b86107ec366004613a0d565b611032565b6107936107ff366004613a0d565b61104d565b61072b610812366004613bd1565b61135b565b61072b7f000000000000000000000000000000000000000000000000000000000000000081565b61085161084c366004613a39565b6114bd565b6040516106c49190613c19565b6106b861086c366004613a39565b611543565b6106b87f000000000000000000000000000000000000000000000000000000000000000081565b61072b6108a6366004613a0d565b61154e565b61072b6108b9366004613a0d565b611581565b6106b86108cc366004613a0d565b6115c6565b61072b6108df366004613c5d565b6115f3565b61072b6108f2366004613bd1565b611682565b6106b8610905366004613a81565b61168d565b610912611698565b005b61072b610922366004613c8d565b611717565b61093a610935366004613a39565b61175d565b604080519283526020830191909152016106c4565b6106b861095d366004613a0d565b6117df565b6106b8610970366004613a81565b6117f3565b610912610983366004613a0d565b611855565b610912611cf1565b61091261099e366004613a81565b611d03565b6106b86109b1366004613a0d565b611fdc565b60075460ff166106b8565b6106b86109cf366004613a0d565b612111565b6106e06109e2366004613a81565b612125565b6000546001600160a01b03166107c6565b6107c6610a06366004613a39565b6000908152600960205260409020546001600160a01b031690565b6106b8610a2f366004613a81565b612132565b610912610a42366004613a81565b612145565b610793610a55366004613a39565b6121d5565b6106b8610a68366004613cc4565b61223e565b61072b610a7b366004613a0d565b612268565b61072b610a8e366004613a39565b612274565b610793610aa1366004613a81565b6122c6565b6106b8610ab4366004613a0d565b6122d3565b610912610ac7366004613a81565b6123e5565b6106b8610ada366004613a0d565b612434565b6106b8610aed366004613a0d565b612557565b610b05610b00366004613a39565b612595565b604080519283526001600160a01b039091166020830152016106c4565b61072b610b30366004613d0c565b612617565b61072b610b43366004613a0d565b61269a565b61070b610b56366004613a0d565b6126a6565b6106b8610b69366004613d9c565b61289e565b6106b8610b7c366004613a81565b612935565b6106b8610b8f366004613cc4565b612942565b61072b610ba2366004613a0d565b612961565b6106b8610bb5366004613a39565b612a0c565b6106b8610bc8366004613dc8565b612a5e565b6106b8610bdb366004613a81565b612a71565b61075f610bee366004613a39565b612a84565b6106b8610c01366004613a0d565b612a90565b610912610c14366004613a81565b612aa4565b61070b610c27366004613a81565b612b1d565b6000546001600160a01b0316331480610c495750610c4933610f3b565b610cb05760405162461bcd60e51b815260206004820152602d60248201527f416c6c6f77616e63653a2063616c6c6572206d757374206265205265706f736960448201526c1d1bdc9e4810dbdb9d1c9858dd609a1b60648201526084015b60405180910390fd5b565b60006001600160e01b031982166301ffc9a760e01b1480610ce357506305b62cb760e41b6001600160e01b03198316145b80610cf25750610cf282612b45565b92915050565b60006001600160a01b038316610d1057506001610cf2565b610d1a83836126a6565b604001519392505050565b6040805160608101825260008082526020820181905291810191909152600080516020614192833981519152821415610d6357610cf26000806126a6565b610d6c82610dc3565b610d945750506040805160608101825260111981526000602082018190529181019190915290565b600080610da084610dec565b91509150610dae82826126a6565b949350505050565b6000610cf282600061269a565b6000600080516020614192833981519152821415610de357506001919050565b610cf282611543565b600080600080516020614192833981519152831415610e1057506000928392509050565b610e1983611543565b610e355760405162461bcd60e51b8152600401610ca790613de5565b610e3e83612a84565b91509150915091565b6000600080516020614192833981519152821415610e6a57610cf2600080610cf8565b610e7382610dc3565b610e7f57506000919050565b600080610e8b84610dec565b91509150610dae8282610cf8565b6000818152600860205260409020805460609190610eb690613e1c565b80601f0160208091040260200160405190810160405280929190818152602001828054610ee290613e1c565b8015610f2f5780601f10610f0457610100808354040283529160200191610f2f565b820191906000526020600020905b815481529060010190602001808311610f1257829003601f168201915b50505050509050919050565b60006001600160a01b038216301415610f5657506001919050565b60405163f132566360e01b8152600a60048201526001600160a01b038316602482015273__$f71e59c5327218924d154e230469c101bd$__9063f1325663906044015b602060405180830381865af4158015610fb6573d6000803e3d6000fd5b505050506040513d601f19601f82011682018060405250810190610cf29190613922565b6000600080516020614192833981519152821415610ffa57506000919050565b61100382611543565b61101f5760405162461bcd60e51b8152600401610ca790613de5565b600061102a83612a84565b509392505050565b600061103c611698565b6110468383612b7b565b9392505050565b60606001600160a01b03831661107d576040518060a00160405280607581526020016141b2607591399050610cf2565b60006001600073__$669c6e0eba2465bd6779ea6ec5db3af1b5$__63d5f0b04d87876040518363ffffffff1660e01b81526004016110bc929190613a9e565b602060405180830381865af41580156110d9573d6000803e3d6000fd5b505050506040513d601f19601f820116820180604052508101906110fd9190613955565b8152602001908152602001600020805461111690613e1c565b80601f016020809104026020016040519081016040528092919081815260200182805461114290613e1c565b801561118f5780601f106111645761010080835404028352916020019161118f565b820191906000526020600020905b81548152906001019060200180831161117257829003601f168201915b5050604080516000815260208101808352815190209596506111b79450869350019050613e51565b60405160208183030381529060405280519060200120146111d9579050610cf2565b821561133a576001600073__$669c6e0eba2465bd6779ea6ec5db3af1b5$__63d5f0b04d8760006040518363ffffffff1660e01b815260040161121d929190613a9e565b602060405180830381865af415801561123a573d6000803e3d6000fd5b505050506040513d601f19601f8201168201806040525081019061125e9190613955565b8152602001908152602001600020805461127790613e1c565b80601f01602080910402602001604051908101604052809291908181526020018280546112a390613e1c565b80156112f05780601f106112c5576101008083540402835291602001916112f0565b820191906000526020600020905b8154815290600101906020018083116112d357829003601f168201915b5050604080516000815260208101808352815190209596506113189450869350019050613e51565b604051602081830303815290604052805190602001201461133a579050610cf2565b6040518060a00160405280606c8152602001614126606c9139949350505050565b8051602080830191909120600081815260089092526040909120805461138090613e1c565b151590506113ad57600081815260086020908152604090912083516113a79285019061387b565b50919050565b6000818152600860205260409020805461144f91906113cb90613e1c565b80601f01602080910402602001604051908101604052809291908181526020018280546113f790613e1c565b80156114445780601f1061141957610100808354040283529160200191611444565b820191906000526020600020905b81548152906001019060200180831161142757829003601f168201915b505050505083612e08565b6114b85760405162461bcd60e51b815260206004820152603460248201527f4b656363616b496e766572746572204279746573206b656363616b2069736e7460448201527320756e697175652021212121212121212121212160601b6064820152608401610ca7565b919050565b60606114c882610e99565b6040516355b04b0d60e11b815273__$669c6e0eba2465bd6779ea6ec5db3af1b5$__9163ab60961a916114fe9190600401613b13565b600060405180830381865af415801561151b573d6000803e3d6000fd5b505050506040513d6000823e601f3d908101601f19168201604052610cf29190810190613e6d565b6000610cf282612e9a565b600061155a8383612961565b905061156581611543565b610cf25760405162461bcd60e51b8152600401610ca790613de5565b60006001600160a01b038316158015611598575081155b156115b25750600080516020614192833981519152610cf2565b6115bc8383611855565b6110468383612268565b60006001600160a01b0383166115de57506000610cf2565b6115e883836126a6565b602001519392505050565b6040516318f7a7c360e21b8152600481018390526001600160a01b03821660248201526000906110469073__$669c6e0eba2465bd6779ea6ec5db3af1b5$__906363de9f0c906044015b600060405180830381865af415801561165a573d6000803e3d6000fd5b505050506040513d6000823e601f3d908101601f19168201604052610b309190810190613e6d565b6000610cf28261135b565b6000610cf282612ebc565b6000546001600160a01b03163314806116b557506116b5336117f3565b610cb05760405162461bcd60e51b815260206004820152602d60248201527f416c6c6f77616e63653a2063616c6c6572206d757374206265205265706f736960448201526c3a37b93c9027b832b930ba37b960991b6064820152608401610ca7565b604051632291b3f160e21b815260048101839052602481018290526000906110469073__$669c6e0eba2465bd6779ea6ec5db3af1b5$__90638a46cfc49060440161163d565b600080611769836114bd565b60405163029695c360e21b815273__$669c6e0eba2465bd6779ea6ec5db3af1b5$__91630a5a570c9161179f9190600401613c19565b6040805180830381865af41580156117bb573d6000803e3d6000fd5b505050506040513d601f19601f82011682018060405250810190610e3e9190613ef2565b60006117e9611698565b6110468383612f47565b60006001600160a01b03821630141561180e57506001919050565b60405163f132566360e01b8152600b60048201526001600160a01b038316602482015273__$f71e59c5327218924d154e230469c101bd$__9063f132566390604401610f99565b60008073__$669c6e0eba2465bd6779ea6ec5db3af1b5$__63d5f0b04d8560006040518363ffffffff1660e01b8152600401611892929190613a9e565b602060405180830381865af41580156118af573d6000803e3d6000fd5b505050506040513d601f19601f820116820180604052508101906118d39190613955565b600081815260036020526040902080549093509091506201000090046001600160401b0316611a6557604051634dd11f0f60e11b81526001600160a01b0385166004820152600060248201526001604482015273__$cc6df4ca04d157c820770f5225eff0121b$__90639ba23e1e90606401606060405180830381865af4158015611962573d6000803e3d6000fd5b505050506040513d601f19601f820116820180604052508101906119869190613f16565b6000828152600360209081526040918290208351815492850151948401516001600160401b0316620100000269ffffffffffffffff0000199515156101000261ffff1990941660ff90921691909117929092179390931617909155516316061a7160e21b815273__$f71e59c5327218924d154e230469c101bd$__9063581869c490611a22906002908590600401918252602082015260400190565b602060405180830381865af4158015611a3f573d6000803e3d6000fd5b505050506040513d601f19601f82011682018060405250810190611a639190613922565b505b81546201000090046001600160401b0316611a8257611a82613f8e565b815462010000900461010016611a985750505050565b604080516060810182528354600081900b8252610100810460ff16151560208301526201000090046001600160401b031681830152905163d5f0b04d60e01b815273__$669c6e0eba2465bd6779ea6ec5db3af1b5$__9063d5f0b04d90611b059088908890600401613a9e565b602060405180830381865af4158015611b22573d6000803e3d6000fd5b505050506040513d601f19601f82011682018060405250810190611b469190613955565b600081815260036020526040902080549094509092506201000090046001600160401b0316611ccd5760405163543af62760e01b815273__$cc6df4ca04d157c820770f5225eff0121b$__9063543af62790611bad90889088908690600190600401613fa4565b606060405180830381865af4158015611bca573d6000803e3d6000fd5b505050506040513d601f19601f82011682018060405250810190611bee9190613f16565b6000838152600360209081526040918290208351815492850151948401516001600160401b0316620100000269ffffffffffffffff0000199515156101000261ffff1990941660ff90921691909117929092179390931617909155516316061a7160e21b815273__$f71e59c5327218924d154e230469c101bd$__9063581869c490611c8a906002908690600401918252602082015260400190565b602060405180830381865af4158015611ca7573d6000803e3d6000fd5b505050506040513d601f19601f82011682018060405250810190611ccb9190613922565b505b82546201000090046001600160401b0316611cea57611cea613f8e565b5050505050565b611cf9613224565b610cb0600061327e565b611d0b611698565b6040516301ffc9a760e01b81526315d3789560e31b60048201526001600160a01b038216906301ffc9a790602401602060405180830381865afa158015611d56573d6000803e3d6000fd5b505050506040513d601f19601f82011682018060405250810190611d7a9190613922565b611dd25760405162461bcd60e51b8152602060048201526024808201527f636f6e7472616374206d75737420626520495265706f7369746f7279436f6e746044820152631c9858dd60e21b6064820152608401610ca7565b60005b600d54811015611ebb57600c6000836001600160a01b031663af640d0f6040518163ffffffff1660e01b8152600401602060405180830381865afa158015611e21573d6000803e3d6000fd5b505050506040513d601f19601f82011682018060405250810190611e459190613955565b81526020019081526020016000206000600d8381548110611e6857611e6861393f565b6000918252602080832060088304015460079092166004026101000a90910460e01b6001600160e01b03191683528201929092526040019020805460ff1916905580611eb3816139aa565b915050611dd5565b506040516316f4b92960e21b8152600a60048201526001600160a01b038216602482015273__$f71e59c5327218924d154e230469c101bd$__90635bd2e4a490604401602060405180830381865af4158015611f1b573d6000803e3d6000fd5b505050506040513d601f19601f82011682018060405250810190611f3f9190613922565b508060096000836001600160a01b031663af640d0f6040518163ffffffff1660e01b8152600401602060405180830381865afa158015611f83573d6000803e3d6000fd5b505050506040513d601f19601f82011682018060405250810190611fa79190613955565b815260200190815260200160002060006101000a8154816001600160a01b0302191690836001600160a01b0316021790555050565b6004546000905b8015612107576001600160a01b0384166004612000600184613ffb565b815481106120105761201061393f565b60009182526020909120600290910201546001600160a01b03161480156120655750600461203f600183613ffb565b8154811061204f5761204f61393f565b9060005260206000209060020201600101546000145b806120e657506001600160a01b0384166004612082600184613ffb565b815481106120925761209261393f565b60009182526020909120600290910201546001600160a01b03161480156120e657508260046120c2600184613ffb565b815481106120d2576120d261393f565b906000526020600020906002020160010154145b156120f5576001915050610cf2565b806120ff81614012565b915050611fe3565b5060009392505050565b600061211b611698565b61104683836132ce565b6000610cf2826000610cf8565b600061213c611698565b610cf28261342a565b61214d611698565b6040516316f4b92960e21b8152600b60048201526001600160a01b038216602482015273__$f71e59c5327218924d154e230469c101bd$__90635bd2e4a4906044015b602060405180830381865af41580156121ad573d6000803e3d6000fd5b505050506040513d601f19601f820116820180604052508101906121d19190613922565b5050565b60606000805160206141928339815191528214156121f857610cf260008061104d565b61220182610dc3565b612224576040518060a00160405280606c8152602001614126606c913992915050565b60008061223084610dec565b91509150610dae828261104d565b6000816001600160401b031660ff61225585610e47565b166001600160401b031614905092915050565b600061104683836134e8565b600060008051602061419283398151915282141561229757610cf260008061269a565b6122a082610dc3565b6122ac57506001919050565b6000806122b884610dec565b91509150610dae828261269a565b6060610cf282600061104d565b600654600090815b818110156123da57846001600160a01b0316600682815481106123005761230061393f565b60009182526020909120600290910201546001600160a01b031614801561234b5750600681815481106123355761233561393f565b9060005260206000209060020201600101546000145b806123b85750846001600160a01b03166006828154811061236e5761236e61393f565b60009182526020909120600290910201546001600160a01b03161480156123b8575083600682815481106123a4576123a461393f565b906000526020600020906002020160010154145b156123c857600192505050610cf2565b806123d2816139aa565b9150506122db565b506000949350505050565b6123ed611698565b60405163edefe12d60e01b8152600b60048201526001600160a01b038216602482015273__$f71e59c5327218924d154e230469c101bd$__9063edefe12d90604401612190565b6000612441836000611fdc565b1561244e57506001610cf2565b811561246b5761245e8383611fdc565b1561246b57506001610cf2565b6000836001600160a01b031663373a7fb46040518163ffffffff1660e01b8152600401602060405180830381865afa1580156124ab573d6000803e3d6000fd5b505050506040513d601f19601f820116820180604052508101906124cf9190614029565b90506124da8161168d565b6124e8576000915050610cf2565b604051632b43f03360e21b81526001600160a01b0382169063ad0fc0cc906125169087908790600401613a9e565b602060405180830381865afa158015612533573d6000803e3d6000fd5b505050506040513d601f19601f82011682018060405250810190610dae9190613922565b600061256383836122d3565b1561257057506000610cf2565b61257a8383611fdc565b1561258757506001610cf2565b60075460ff16159392505050565b6000806125a1836114bd565b604051639ac1b34560e01b815273__$669c6e0eba2465bd6779ea6ec5db3af1b5$__91639ac1b345916125d79190600401613c19565b6040805180830381865af41580156125f3573d6000803e3d6000fd5b505050506040513d601f19601f82011682018060405250810190610e3e9190614046565b604051632431a7cf60e01b8152600090610cf29073__$669c6e0eba2465bd6779ea6ec5db3af1b5$__90632431a7cf90612655908690600401613c19565b600060405180830381865af4158015612672573d6000803e3d6000fd5b505050506040513d6000823e601f3d908101601f19168201604052610812919081019061406b565b60006110468383613526565b60408051606081018252600080825260208201819052918101919091526001600160a01b0383166126f6575060408051606081018252601119815260006020820152600191810191909152610cf2565b6003600073__$669c6e0eba2465bd6779ea6ec5db3af1b5$__63d5f0b04d8660006040518363ffffffff1660e01b8152600401612734929190613a9e565b602060405180830381865af4158015612751573d6000803e3d6000fd5b505050506040513d601f19601f820116820180604052508101906127759190613955565b815260208082019290925260409081016000908120825160608101845290549182900b815261010080830460ff16151594820194909452620100009091046001600160401b038116928201929092529250166127d057610cf2565b6003600073__$669c6e0eba2465bd6779ea6ec5db3af1b5$__63d5f0b04d86866040518363ffffffff1660e01b815260040161280d929190613a9e565b602060405180830381865af415801561282a573d6000803e3d6000fd5b505050506040513d601f19601f8201168201806040525081019061284e9190613955565b815260208082019290925260409081016000908120825160608101845290549182900b8152610100820460ff161515938101939093526201000090046001600160401b0316908201529392505050565b60006128ac83610200612942565b6128b857506000610cf2565b6128c183610fda565b6040516301ffc9a760e01b81526001600160e01b0319841660048201526001600160a01b0391909116906301ffc9a790602401602060405180830381865afa158015612911573d6000803e3d6000fd5b505050506040513d601f19601f820116820180604052508101906110469190613922565b6000610cf28260006115c6565b60008161294e84610e47565b166001600160401b031615159392505050565b60006001600160a01b038316158015612978575081155b156129925750600080516020614192833981519152610cf2565b60405163d5f0b04d60e01b815273__$669c6e0eba2465bd6779ea6ec5db3af1b5$__9063d5f0b04d906129cb9086908690600401613a9e565b602060405180830381865af41580156129e8573d6000803e3d6000fd5b505050506040513d601f19601f820116820180604052508101906110469190613955565b6000600080516020614192833981519152821415612a2f57610cf26000806115c6565b612a3882610dc3565b612a4457506000919050565b600080612a5084610dec565b91509150610dae82826115c6565b6000612a68611698565b610cf28261357e565b6000612a7b611698565b610cf2826135b0565b600080610e3e836136d1565b6000612a9a611698565b6110468383613753565b612aac613224565b6001600160a01b038116612b115760405162461bcd60e51b815260206004820152602660248201527f4f776e61626c653a206e6577206f776e657220697320746865207a65726f206160448201526564647265737360d01b6064820152608401610ca7565b612b1a8161327e565b50565b6040805160608101825260008082526020820181905291810191909152610cf28260006126a6565b60006001600160e01b031982166301ffc9a760e01b1480610cf257506001600160e01b03198216632b43f03360e21b1492915050565b600654600090815b81811015612c1557846001600160a01b031660068281548110612ba857612ba861393f565b60009182526020909120600290910201546001600160a01b0316148015612bf3575060068181548110612bdd57612bdd61393f565b9060005260206000209060020201600101546000145b15612c0357600092505050610cf2565b80612c0d816139aa565b915050612b83565b5082612cd55760001981015b81811015612ccf57846001600160a01b031660068281548110612c4657612c4661393f565b60009182526020909120600290910201546001600160a01b03161415612cc657612cc460068281548110612c7c57612c7c61393f565b6000918252602090912060029091020154600680546001600160a01b039092169184908110612cad57612cad61393f565b906000526020600020906002020160010154613753565b505b60001901612c21565b50612d6b565b60005b81811015612d6957846001600160a01b031660068281548110612cfd57612cfd61393f565b60009182526020909120600290910201546001600160a01b0316148015612d4757508360068281548110612d3357612d3361393f565b906000526020600020906002020160010154145b15612d5757600092505050610cf2565b80612d61816139aa565b915050612cd8565b505b604080518082019091526001600160a01b038581168252602082018581526006805460018101825560009190915292517ff652222313e28459528d920b65115c16c04f3efc82aaedc97be59f3f377c0d3f600290940293840180546001600160a01b0319169190931617909155517ff652222313e28459528d920b65115c16c04f3efc82aaedc97be59f3f377c0d40909101555060019392505050565b60008151835114612e1b57506000610cf2565b60005b8351811015612e9057828181518110612e3957612e3961393f565b602001015160f81c60f81b6001600160f81b031916848281518110612e6057612e6061393f565b01602001516001600160f81b03191614612e7e576000915050610cf2565b80612e88816139aa565b915050612e1e565b5060019392505050565b60008181526008602052604081208054612eb390613e1c565b15159392505050565b60006001600160a01b038216301415612ed757506001919050565b6005545b8015612f3e576001600160a01b0383166005612ef8600184613ffb565b81548110612f0857612f0861393f565b6000918252602090912001546001600160a01b03161415612f2c5750600192915050565b80612f3681614012565b915050612edb565b50600092915050565b6004546000905b8015612ff1576001600160a01b0384166004612f6b600184613ffb565b81548110612f7b57612f7b61393f565b60009182526020909120600290910201546001600160a01b0316148015612fd057506004612faa600183613ffb565b81548110612fba57612fba61393f565b9060005260206000209060020201600101546000145b15612fdf576000915050610cf2565b80612fe981614012565b915050612f4e565b50816130e0575b6004545b80156130cf576001600160a01b0384166004613019600184613ffb565b815481106130295761302961393f565b60009182526020909120600290910201546001600160a01b031614156130bd576130b76004613059600184613ffb565b815481106130695761306961393f565b60009182526020909120600290910201546001600160a01b03166004613090600185613ffb565b815481106130a0576130a061393f565b9060005260206000209060020201600101546132ce565b506130cf565b806130c781614012565b915050612ffc565b806130da5750613188565b50612ff8565b6004545b8015613186576001600160a01b0384166004613101600184613ffb565b815481106131115761311161393f565b60009182526020909120600290910201546001600160a01b03161480156131655750826004613141600184613ffb565b815481106131515761315161393f565b906000526020600020906002020160010154145b15613174576000915050610cf2565b8061317e81614012565b9150506130e4565b505b604080518082019091526001600160a01b038481168252602082018481526004805460018101825560009190915292517f8a35acfbc15ff81a39ae7d344fd709f28e8600b4aa8c65c6b64bfe7fe36bd19b600290940293840180546001600160a01b0319169190931617909155517f8a35acfbc15ff81a39ae7d344fd709f28e8600b4aa8c65c6b64bfe7fe36bd19c9091015550600192915050565b6000546001600160a01b03163314610cb05760405162461bcd60e51b815260206004820152601f60248201527f416c6c6f77616e63653a2063616c6c6572206d757374206265204f776e6572006044820152606401610ca7565b600080546001600160a01b038381166001600160a01b0319831681178455604051919092169283917f8be0079c531659141344cd1fd0a4f28419497f9722a3daafe3b4186f6b6457e09190a35050565b600454600090815b818110156123da57846001600160a01b0316600482815481106132fb576132fb61393f565b60009182526020909120600290910201546001600160a01b0316148015613345575083600482815481106133315761333161393f565b906000526020600020906002020160010154145b1561341857613355600183613ffb565b8110156133d3576004613369600184613ffb565b815481106133795761337961393f565b90600052602060002090600202016004828154811061339a5761339a61393f565b60009182526020909120825460029092020180546001600160a01b0319166001600160a01b039092169190911781556001918201549101555b60048054806133e4576133e46140e1565b60008281526020812060026000199093019283020180546001600160a01b0319168155600101559055600192505050610cf2565b80613422816139aa565b9150506132d6565b6005546000905b8015613494576001600160a01b038316600561344e600184613ffb565b8154811061345e5761345e61393f565b6000918252602090912001546001600160a01b031614156134825750600092915050565b8061348c81614012565b915050613431565b600580546001810182556000919091527f036b6384b5eca791c62761152d0c79bb0604c104a5fb6f4eb0703f3154bb3db00180546001600160a01b0319166001600160a01b03851617905550600192915050565b600061104673__$669c6e0eba2465bd6779ea6ec5db3af1b5$__630de874ed85856040518363ffffffff1660e01b815260040161163d929190613a9e565b60006001600160a01b03831661353e57506001610cf2565b73__$cc6df4ca04d157c820770f5225eff0121b$__633646b54861356285856126a6565b6040518263ffffffff1660e01b81526004016129cb9190613a52565b60075460009060ff161515821515141561359a57506000919050565b6007805460ff1916831515179055506001919050565b600554600090815b8181101561210757836001600160a01b0316600582815481106135dd576135dd61393f565b6000918252602090912001546001600160a01b031614156136bf57613603600183613ffb565b811015613682576005613617600184613ffb565b815481106136275761362761393f565b600091825260209091200154600580546001600160a01b0390921691839081106136535761365361393f565b9060005260206000200160006101000a8154816001600160a01b0302191690836001600160a01b031602179055505b6005805480613693576136936140e1565b600082815260209020810160001990810180546001600160a01b03191690550190555060019392505050565b806136c9816139aa565b9150506135b8565b6000806136dd836114bd565b6040516314130a7960e31b815273__$669c6e0eba2465bd6779ea6ec5db3af1b5$__9163a09853c8916137139190600401613c19565b6040805180830381865af415801561372f573d6000803e3d6000fd5b505050506040513d601f19601f82011682018060405250810190610e3e91906140f7565b600654600090815b818110156123da57846001600160a01b0316600682815481106137805761378061393f565b60009182526020909120600290910201546001600160a01b03161480156137ca575083600682815481106137b6576137b661393f565b906000526020600020906002020160010154145b15613869576137da600183613ffb565b8110156138585760066137ee600184613ffb565b815481106137fe576137fe61393f565b90600052602060002090600202016006828154811061381f5761381f61393f565b60009182526020909120825460029092020180546001600160a01b0319166001600160a01b039092169190911781556001918201549101555b60068054806133e4576133e46140e1565b80613873816139aa565b91505061375b565b82805461388790613e1c565b90600052602060002090601f0160209004810192826138a957600085556138ef565b82601f106138c257805160ff19168380011785556138ef565b828001600101855582156138ef579182015b828111156138ef5782518255916020019190600101906138d4565b506138fb9291506138ff565b5090565b5b808211156138fb5760008155600101613900565b8015158114612b1a57600080fd5b60006020828403121561393457600080fd5b815161104681613914565b634e487b7160e01b600052603260045260246000fd5b60006020828403121561396757600080fd5b5051919050565b634e487b7160e01b600052602160045260246000fd5b8183823760009101908152919050565b634e487b7160e01b600052601160045260246000fd5b60006000198214156139be576139be613994565b5060010190565b80356001600160e01b0319811681146114b857600080fd5b6000602082840312156139ef57600080fd5b611046826139c5565b6001600160a01b0381168114612b1a57600080fd5b60008060408385031215613a2057600080fd5b8235613a2b816139f8565b946020939093013593505050565b600060208284031215613a4b57600080fd5b5035919050565b815160000b81526020808301511515908201526040808301516001600160401b03169082015260608101610cf2565b600060208284031215613a9357600080fd5b8135611046816139f8565b6001600160a01b03929092168252602082015260400190565b60005b83811015613ad2578181015183820152602001613aba565b83811115613ae1576000848401525b50505050565b60008151808452613aff816020860160208601613ab7565b601f01601f19169290920160200192915050565b6020815260006110466020830184613ae7565b634e487b7160e01b600052604160045260246000fd5b604051601f8201601f191681016001600160401b0381118282101715613b6457613b64613b26565b604052919050565b60006001600160401b03821115613b8557613b85613b26565b50601f01601f191660200190565b6000613ba6613ba184613b6c565b613b3c565b9050828152838383011115613bba57600080fd5b828260208301376000602084830101529392505050565b600060208284031215613be357600080fd5b81356001600160401b03811115613bf957600080fd5b8201601f81018413613c0a57600080fd5b610dae84823560208401613b93565b6020808252825182820181905260009190848201906040850190845b81811015613c5157835183529284019291840191600101613c35565b50909695505050505050565b60008060408385031215613c7057600080fd5b823591506020830135613c82816139f8565b809150509250929050565b60008060408385031215613ca057600080fd5b50508035926020909101359150565b6001600160401b0381168114612b1a57600080fd5b60008060408385031215613cd757600080fd5b823591506020830135613c8281613caf565b60006001600160401b03821115613d0257613d02613b26565b5060051b60200190565b60006020808385031215613d1f57600080fd5b82356001600160401b03811115613d3557600080fd5b8301601f81018513613d4657600080fd5b8035613d54613ba182613ce9565b81815260059190911b82018301908381019087831115613d7357600080fd5b928401925b82841015613d9157833582529284019290840190613d78565b979650505050505050565b60008060408385031215613daf57600080fd5b82359150613dbf602084016139c5565b90509250929050565b600060208284031215613dda57600080fd5b813561104681613914565b60208082526017908201527f43757272656e6379206e6f742072656769737465726564000000000000000000604082015260600190565b600181811c90821680613e3057607f821691505b602082108114156113a757634e487b7160e01b600052602260045260246000fd5b60008251613e63818460208701613ab7565b9190910192915050565b60006020808385031215613e8057600080fd5b82516001600160401b03811115613e9657600080fd5b8301601f81018513613ea757600080fd5b8051613eb5613ba182613ce9565b81815260059190911b82018301908381019087831115613ed457600080fd5b928401925b82841015613d9157835182529284019290840190613ed9565b60008060408385031215613f0557600080fd5b505080516020909101519092909150565b600060608284031215613f2857600080fd5b604051606081018181106001600160401b0382111715613f4a57613f4a613b26565b6040528251600081900b8114613f5f57600080fd5b81526020830151613f6f81613914565b60208201526040830151613f8281613caf565b60408201529392505050565b634e487b7160e01b600052600160045260246000fd5b6001600160a01b03851681526020810184905260c08101613fea6040830185805160000b82526020808201511515908301526040908101516001600160401b0316910152565b82151560a083015295945050505050565b60008282101561400d5761400d613994565b500390565b60008161402157614021613994565b506000190190565b60006020828403121561403b57600080fd5b8151611046816139f8565b6000806040838503121561405957600080fd5b825191506020830151613c82816139f8565b60006020828403121561407d57600080fd5b81516001600160401b0381111561409357600080fd5b8201601f810184136140a457600080fd5b80516140b2613ba182613b6c565b8181528560208385010111156140c757600080fd5b6140d8826020830160208601613ab7565b95945050505050565b634e487b7160e01b600052603160045260246000fd5b6000806040838503121561410a57600080fd5b8251614115816139f8565b602093909301519294929350505056fe68747470733a2f2f6769746875622e636f6d2f5061747269636b416c706861432f646566692d7374616b652d7969656c642d62726f776e69652d66726565636f64652f626c6f622f6d61696e2f66726f6e745f656e642f7372632f646170702e706e673f7261773d74727565ad3228b676f7d3cd4284a5443f17f1962b36e491b30a40b2405849e597ba5fb568747470733a2f2f7261772e67697468756275736572636f6e74656e742e636f6d2f5061747269636b416c706861432f646566692d7374616b652d7969656c642d62726f776e69652d66726565636f64652f6d61696e2f66726f6e745f656e642f7372632f6574682e706e673f7261773d74727565a2646970667358221220140be4bdb99578763084767fcdfaa78f5c601bb80f37ba0a84bf6331d38a5e2564736f6c634300080b0033","language":"Solidity","natspec":{"methods":{"ownerOf()":{"details":"Returns the address of the current owner."},"renounceOwnership()":{"details":"Leaves the contract without owner. It will not be possible to call `onlyOwner` functions anymore. Can only be called by the current owner. NOTE: Renouncing ownership will leave the contract without an owner, thereby removing any functionality that is only available to the owner."},"transferOwnership(address)":{"details":"Transfers ownership of the contract to a new account (`newOwner`). Can only be called by the current owner."}},"kind":"dev","version":1},"opcodes":"PUSH1 0x80 PUSH1 0x40 MSTORE CALLVALUE DUP1 ISZERO PUSH2 0x10 JUMPI PUSH1 0x0 DUP1 REVERT JUMPDEST POP PUSH1 0x4 CALLDATASIZE LT PUSH2 0x3D0 JUMPI PUSH1 0x0 CALLDATALOAD PUSH1 0xE0 SHR DUP1 PUSH4 0x81B2490B GT PUSH2 0x1FF JUMPI DUP1 PUSH4 0xAD10A135 GT PUSH2 0x11A JUMPI DUP1 PUSH4 0xC9C2A940 GT PUSH2 0xAD JUMPI DUP1 PUSH4 0xE50D1B3E GT PUSH2 0x7C JUMPI DUP1 PUSH4 0xE50D1B3E EQ PUSH2 0xBE0 JUMPI DUP1 PUSH4 0xE855A313 EQ PUSH2 0xBF3 JUMPI DUP1 PUSH4 0xF2FDE38B EQ PUSH2 0xC06 JUMPI DUP1 PUSH4 0xF5DAB711 EQ PUSH2 0xC19 JUMPI PUSH2 0x3D0 JUMP JUMPDEST DUP1 PUSH4 0xC9C2A940 EQ PUSH2 0xB94 JUMPI DUP1 PUSH4 0xD47A7EDD EQ PUSH2 0xBA7 JUMPI DUP1 PUSH4 0xD4945D0E EQ PUSH2 0xBBA JUMPI DUP1 PUSH4 0xDBF5F2FD EQ PUSH2 0xBCD JUMPI PUSH2 0x3D0 JUMP JUMPDEST DUP1 PUSH4 0xBB7D88A9 GT PUSH2 0xE9 JUMPI DUP1 PUSH4 0xBB7D88A9 EQ PUSH2 0xB48 JUMPI DUP1 PUSH4 0xC33470D3 EQ PUSH2 0xB5B JUMPI DUP1 PUSH4 0xC452E6B6 EQ PUSH2 0xB6E JUMPI DUP1 PUSH4 0xC5537EB7 EQ PUSH2 0xB81 JUMPI PUSH2 0x3D0 JUMP JUMPDEST DUP1 PUSH4 0xAD10A135 EQ PUSH2 0xADF JUMPI DUP1 PUSH4 0xAF915585 EQ PUSH2 0xAF2 JUMPI DUP1 PUSH4 0xB3054383 EQ PUSH2 0xB22 JUMPI DUP1 PUSH4 0xB72A4A71 EQ PUSH2 0xB35 JUMPI PUSH2 0x3D0 JUMP JUMPDEST DUP1 PUSH4 0x9E9BB9C1 GT PUSH2 0x192 JUMPI DUP1 PUSH4 0xA9D46326 GT PUSH2 0x161 JUMPI DUP1 PUSH4 0xA9D46326 EQ PUSH2 0xA93 JUMPI DUP1 PUSH4 0xABABADB5 EQ PUSH2 0xAA6 JUMPI DUP1 PUSH4 0xAC8A584A EQ PUSH2 0xAB9 JUMPI DUP1 PUSH4 0xAD0FC0CC EQ PUSH2 0xACC JUMPI PUSH2 0x3D0 JUMP JUMPDEST DUP1 PUSH4 0x9E9BB9C1 EQ PUSH2 0xA47 JUMPI DUP1 PUSH4 0xA663D4F5 EQ PUSH2 0xA5A JUMPI DUP1 PUSH4 0xA86EEB91 EQ PUSH2 0xA6D JUMPI DUP1 PUSH4 0xA9BF9858 EQ PUSH2 0xA80 JUMPI PUSH2 0x3D0 JUMP JUMPDEST DUP1 PUSH4 0x8DA5CB5B GT PUSH2 0x1CE JUMPI DUP1 PUSH4 0x8DA5CB5B EQ PUSH2 0x9E7 JUMPI DUP1 PUSH4 0x8EAA6AC0 EQ PUSH2 0x9F8 JUMPI DUP1 PUSH4 0x95B5D584 EQ PUSH2 0xA21 JUMPI DUP1 PUSH4 0x9870D7FE EQ PUSH2 0xA34 JUMPI PUSH2 0x3D0 JUMP JUMPDEST DUP1 PUSH4 0x81B2490B EQ PUSH2 0x9A3 JUMPI DUP1 PUSH4 0x83350075 EQ PUSH2 0x9B6 JUMPI DUP1 PUSH4 0x89765F59 EQ PUSH2 0x9C1 JUMPI DUP1 PUSH4 0x8D49D89B EQ PUSH2 0x9D4 JUMPI PUSH2 0x3D0 JUMP JUMPDEST DUP1 PUSH4 0x4329598C GT PUSH2 0x2EF JUMPI DUP1 PUSH4 0x5F5C5BAA GT PUSH2 0x282 JUMPI DUP1 PUSH4 0x6D70F7AE GT PUSH2 0x251 JUMPI DUP1 PUSH4 0x6D70F7AE EQ PUSH2 0x962 JUMPI DUP1 PUSH4 0x6F457683 EQ PUSH2 0x975 JUMPI DUP1 PUSH4 0x715018A6 EQ PUSH2 0x988 JUMPI DUP1 PUSH4 0x75F890AB EQ PUSH2 0x990 JUMPI PUSH2 0x3D0 JUMP JUMPDEST DUP1 PUSH4 0x5F5C5BAA EQ PUSH2 0x90A JUMPI DUP1 PUSH4 0x61E99FFB EQ PUSH2 0x914 JUMPI DUP1 PUSH4 0x657C7E09 EQ PUSH2 0x927 JUMPI DUP1 PUSH4 0x67C51DFC EQ PUSH2 0x94F JUMPI PUSH2 0x3D0 JUMP JUMPDEST DUP1 PUSH4 0x552CDF98 GT PUSH2 0x2BE JUMPI DUP1 PUSH4 0x552CDF98 EQ PUSH2 0x8BE JUMPI DUP1 PUSH4 0x5768BBB5 EQ PUSH2 0x8D1 JUMPI DUP1 PUSH4 0x589E6A98 EQ PUSH2 0x8E4 JUMPI DUP1 PUSH4 0x5B62CB70 EQ PUSH2 0x8F7 JUMPI PUSH2 0x3D0 JUMP JUMPDEST DUP1 PUSH4 0x4329598C EQ PUSH2 0x780 JUMPI DUP1 PUSH4 0x4635229B EQ PUSH2 0x871 JUMPI DUP1 PUSH4 0x4F79B792 EQ PUSH2 0x898 JUMPI DUP1 PUSH4 0x509FF69B EQ PUSH2 0x8AB JUMPI PUSH2 0x3D0 JUMP JUMPDEST DUP1 PUSH4 0x16279055 GT PUSH2 0x367 JUMPI DUP1 PUSH4 0x24ACE672 GT PUSH2 0x336 JUMPI DUP1 PUSH4 0x24ACE672 EQ PUSH2 0x804 JUMPI DUP1 PUSH4 0x2558A079 EQ PUSH2 0x817 JUMPI DUP1 PUSH4 0x27EE9DC2 EQ PUSH2 0x83E JUMPI DUP1 PUSH4 0x38A699A4 EQ PUSH2 0x85E JUMPI PUSH2 0x3D0 JUMP JUMPDEST DUP1 PUSH4 0x16279055 EQ PUSH2 0x7A0 JUMPI DUP1 PUSH4 0x184BC906 EQ PUSH2 0x7B3 JUMPI DUP1 PUSH4 0x18D54CF3 EQ PUSH2 0x7DE JUMPI DUP1 PUSH4 0x1D7A3B72 EQ PUSH2 0x7F1 JUMPI PUSH2 0x3D0 JUMP JUMPDEST DUP1 PUSH4 0x7D61085 GT PUSH2 0x3A3 JUMPI DUP1 PUSH4 0x7D61085 EQ PUSH2 0x739 JUMPI DUP1 PUSH4 0xEA94B96 EQ PUSH2 0x74C JUMPI DUP1 PUSH4 0x120F6EE3 EQ PUSH2 0x76D JUMPI DUP1 PUSH4 0x12CAE67B EQ PUSH2 0x780 JUMPI PUSH2 0x3D0 JUMP JUMPDEST DUP1 PUSH4 0x1FFC9A7 EQ PUSH2 0x6A5 JUMPI DUP1 PUSH4 0x221C7DE EQ PUSH2 0x6CD JUMPI DUP1 PUSH4 0x3565EA1 EQ PUSH2 0x6F8 JUMPI DUP1 PUSH4 0x36995DF EQ PUSH2 0x718 JUMPI JUMPDEST PUSH2 0x3D8 PUSH2 0xC2C JUMP JUMPDEST PUSH1 0x40 MLOAD PUSH4 0x825998C1 PUSH1 0xE0 SHL DUP2 MSTORE PUSH1 0xD PUSH1 0x4 DUP3 ADD MSTORE PUSH1 0x0 CALLDATALOAD PUSH1 0x1 PUSH1 0x1 PUSH1 0xE0 SHL SUB NOT AND PUSH1 0x24 DUP3 ADD MSTORE PUSH20 0x0 SWAP1 PUSH4 0x825998C1 SWAP1 PUSH1 0x44 ADD PUSH1 0x20 PUSH1 0x40 MLOAD DUP1 DUP4 SUB DUP2 DUP7 GAS DELEGATECALL ISZERO DUP1 ISZERO PUSH2 0x43A JUMPI RETURNDATASIZE PUSH1 0x0 DUP1 RETURNDATACOPY RETURNDATASIZE PUSH1 0x0 REVERT JUMPDEST POP POP POP POP PUSH1 0x40 MLOAD RETURNDATASIZE PUSH1 0x1F NOT PUSH1 0x1F DUP3 ADD AND DUP3 ADD DUP1 PUSH1 0x40 MSTORE POP DUP2 ADD SWAP1 PUSH2 0x45E SWAP2 SWAP1 PUSH2 0x3922 JUMP JUMPDEST POP PUSH1 0x0 JUMPDEST PUSH1 0xA SLOAD DUP2 LT ISZERO PUSH2 0x6A2 JUMPI CALLER PUSH1 0x1 PUSH1 0x1 PUSH1 0xA0 SHL SUB AND PUSH1 0xA DUP3 DUP2 SLOAD DUP2 LT PUSH2 0x489 JUMPI PUSH2 0x489 PUSH2 0x393F JUMP JUMPDEST PUSH1 0x0 SWAP2 DUP3 MSTORE PUSH1 0x20 SWAP1 SWAP2 KECCAK256 ADD SLOAD PUSH1 0x1 PUSH1 0x1 PUSH1 0xA0 SHL SUB AND EQ ISZERO PUSH2 0x4A9 JUMPI PUSH2 0x690 JUMP JUMPDEST PUSH1 0x0 PUSH1 0xA DUP3 DUP2 SLOAD DUP2 LT PUSH2 0x4BE JUMPI PUSH2 0x4BE PUSH2 0x393F JUMP JUMPDEST PUSH1 0x0 SWAP2 DUP3 MSTORE PUSH1 0x20 SWAP2 DUP3 SWAP1 KECCAK256 ADD SLOAD PUSH1 0x40 DUP1 MLOAD PUSH4 0xAF640D0F PUSH1 0xE0 SHL DUP2 MSTORE SWAP1 MLOAD PUSH1 0x1 PUSH1 0x1 PUSH1 0xA0 SHL SUB SWAP1 SWAP3 AND SWAP3 PUSH4 0xAF640D0F SWAP3 PUSH1 0x4 DUP1 DUP5 ADD SWAP4 DUP3 SWAP1 SUB ADD DUP2 DUP7 GAS STATICCALL ISZERO DUP1 ISZERO PUSH2 0x50C JUMPI RETURNDATASIZE PUSH1 0x0 DUP1 RETURNDATACOPY RETURNDATASIZE PUSH1 0x0 REVERT JUMPDEST POP POP POP POP PUSH1 0x40 MLOAD RETURNDATASIZE PUSH1 0x1F NOT PUSH1 0x1F DUP3 ADD AND DUP3 ADD DUP1 PUSH1 0x40 MSTORE POP DUP2 ADD SWAP1 PUSH2 0x530 SWAP2 SWAP1 PUSH2 0x3955 JUMP JUMPDEST SWAP1 POP PUSH1 0x1 PUSH1 0x0 DUP3 DUP2 MSTORE PUSH1 0xC PUSH1 0x20 SWAP1 DUP2 MSTORE PUSH1 0x40 DUP1 DUP4 KECCAK256 PUSH1 0x1 PUSH1 0x1 PUSH1 0xE0 SHL SUB NOT DUP5 CALLDATALOAD AND DUP5 MSTORE SWAP1 SWAP2 MSTORE SWAP1 KECCAK256 SLOAD PUSH1 0xFF AND PUSH1 0x2 DUP2 GT ISZERO PUSH2 0x56D JUMPI PUSH2 0x56D PUSH2 0x396E JUMP JUMPDEST EQ ISZERO PUSH2 0x579 JUMPI POP PUSH2 0x690 JUMP JUMPDEST PUSH1 0x0 PUSH1 0xA DUP4 DUP2 SLOAD DUP2 LT PUSH2 0x58E JUMPI PUSH2 0x58E PUSH2 0x393F JUMP JUMPDEST PUSH1 0x0 SWAP2 DUP3 MSTORE PUSH1 0x20 DUP3 KECCAK256 ADD SLOAD PUSH1 0x40 MLOAD PUSH1 0x1 PUSH1 0x1 PUSH1 0xA0 SHL SUB SWAP1 SWAP2 AND SWAP2 PUSH2 0x5B3 SWAP2 CALLDATASIZE SWAP1 PUSH2 0x3984 JUMP JUMPDEST PUSH1 0x0 PUSH1 0x40 MLOAD DUP1 DUP4 SUB DUP2 PUSH1 0x0 DUP7 GAS CALL SWAP2 POP POP RETURNDATASIZE DUP1 PUSH1 0x0 DUP2 EQ PUSH2 0x5F0 JUMPI PUSH1 0x40 MLOAD SWAP2 POP PUSH1 0x1F NOT PUSH1 0x3F RETURNDATASIZE ADD AND DUP3 ADD PUSH1 0x40 MSTORE RETURNDATASIZE DUP3 MSTORE RETURNDATASIZE PUSH1 0x0 PUSH1 0x20 DUP5 ADD RETURNDATACOPY PUSH2 0x5F5 JUMP JUMPDEST PUSH1 0x60 SWAP2 POP JUMPDEST POP POP PUSH1 0x0 DUP4 DUP2 MSTORE PUSH1 0xC PUSH1 0x20 SWAP1 DUP2 MSTORE PUSH1 0x40 DUP1 DUP4 KECCAK256 DUP4 CALLDATALOAD PUSH1 0x1 PUSH1 0x1 PUSH1 0xE0 SHL SUB NOT AND DUP5 MSTORE SWAP1 SWAP2 MSTORE DUP2 KECCAK256 SLOAD SWAP2 SWAP3 POP SWAP1 PUSH1 0xFF AND PUSH1 0x2 DUP2 GT ISZERO PUSH2 0x634 JUMPI PUSH2 0x634 PUSH2 0x396E JUMP JUMPDEST EQ ISZERO PUSH2 0x68D JUMPI DUP1 PUSH2 0x646 JUMPI PUSH1 0x1 PUSH2 0x649 JUMP JUMPDEST PUSH1 0x2 JUMPDEST PUSH1 0x0 DUP4 DUP2 MSTORE PUSH1 0xC PUSH1 0x20 SWAP1 DUP2 MSTORE PUSH1 0x40 DUP1 DUP4 KECCAK256 PUSH1 0x1 PUSH1 0x1 PUSH1 0xE0 SHL SUB NOT DUP5 CALLDATALOAD AND DUP5 MSTORE SWAP1 SWAP2 MSTORE SWAP1 KECCAK256 DUP1 SLOAD PUSH1 0xFF NOT AND PUSH1 0x1 DUP4 PUSH1 0x2 DUP2 GT ISZERO PUSH2 0x687 JUMPI PUSH2 0x687 PUSH2 0x396E JUMP JUMPDEST MUL OR SWAP1 SSTORE POP JUMPDEST POP POP JUMPDEST DUP1 PUSH2 0x69A DUP2 PUSH2 0x39AA JUMP JUMPDEST SWAP2 POP POP PUSH2 0x462 JUMP JUMPDEST POP STOP JUMPDEST PUSH2 0x6B8 PUSH2 0x6B3 CALLDATASIZE PUSH1 0x4 PUSH2 0x39DD JUMP JUMPDEST PUSH2 0xCB2 JUMP JUMPDEST PUSH1 0x40 MLOAD SWAP1 ISZERO ISZERO DUP2 MSTORE PUSH1 0x20 ADD JUMPDEST PUSH1 0x40 MLOAD DUP1 SWAP2 SUB SWAP1 RETURN JUMPDEST PUSH2 0x6E0 PUSH2 0x6DB CALLDATASIZE PUSH1 0x4 PUSH2 0x3A0D JUMP JUMPDEST PUSH2 0xCF8 JUMP JUMPDEST PUSH1 0x40 MLOAD PUSH1 0x1 PUSH1 0x1 PUSH1 0x40 SHL SUB SWAP1 SWAP2 AND DUP2 MSTORE PUSH1 0x20 ADD PUSH2 0x6C4 JUMP JUMPDEST PUSH2 0x70B PUSH2 0x706 CALLDATASIZE PUSH1 0x4 PUSH2 0x3A39 JUMP JUMPDEST PUSH2 0xD25 JUMP JUMPDEST PUSH1 0x40 MLOAD PUSH2 0x6C4 SWAP2 SWAP1 PUSH2 0x3A52 JUMP JUMPDEST PUSH2 0x72B PUSH2 0x726 CALLDATASIZE PUSH1 0x4 PUSH2 0x3A81 JUMP JUMPDEST PUSH2 0xDB6 JUMP JUMPDEST PUSH1 0x40 MLOAD SWAP1 DUP2 MSTORE PUSH1 0x20 ADD PUSH2 0x6C4 JUMP JUMPDEST PUSH2 0x6B8 PUSH2 0x747 CALLDATASIZE PUSH1 0x4 PUSH2 0x3A39 JUMP JUMPDEST PUSH2 0xDC3 JUMP JUMPDEST PUSH2 0x75F PUSH2 0x75A CALLDATASIZE PUSH1 0x4 PUSH2 0x3A39 JUMP JUMPDEST PUSH2 0xDEC JUMP JUMPDEST PUSH1 0x40 MLOAD PUSH2 0x6C4 SWAP3 SWAP2 SWAP1 PUSH2 0x3A9E JUMP JUMPDEST PUSH2 0x6E0 PUSH2 0x77B CALLDATASIZE PUSH1 0x4 PUSH2 0x3A39 JUMP JUMPDEST PUSH2 0xE47 JUMP JUMPDEST PUSH2 0x793 PUSH2 0x78E CALLDATASIZE PUSH1 0x4 PUSH2 0x3A39 JUMP JUMPDEST PUSH2 0xE99 JUMP JUMPDEST PUSH1 0x40 MLOAD PUSH2 0x6C4 SWAP2 SWAP1 PUSH2 0x3B13 JUMP JUMPDEST PUSH2 0x6B8 PUSH2 0x7AE CALLDATASIZE PUSH1 0x4 PUSH2 0x3A81 JUMP JUMPDEST PUSH2 0xF3B JUMP JUMPDEST PUSH2 0x7C6 PUSH2 0x7C1 CALLDATASIZE PUSH1 0x4 PUSH2 0x3A39 JUMP JUMPDEST PUSH2 0xFDA JUMP JUMPDEST PUSH1 0x40 MLOAD PUSH1 0x1 PUSH1 0x1 PUSH1 0xA0 SHL SUB SWAP1 SWAP2 AND DUP2 MSTORE PUSH1 0x20 ADD PUSH2 0x6C4 JUMP JUMPDEST PUSH2 0x6B8 PUSH2 0x7EC CALLDATASIZE PUSH1 0x4 PUSH2 0x3A0D JUMP JUMPDEST PUSH2 0x1032 JUMP JUMPDEST PUSH2 0x793 PUSH2 0x7FF CALLDATASIZE PUSH1 0x4 PUSH2 0x3A0D JUMP JUMPDEST PUSH2 0x104D JUMP JUMPDEST PUSH2 0x72B PUSH2 0x812 CALLDATASIZE PUSH1 0x4 PUSH2 0x3BD1 JUMP JUMPDEST PUSH2 0x135B JUMP JUMPDEST PUSH2 0x72B PUSH32 0x0 DUP2 JUMP JUMPDEST PUSH2 0x851 PUSH2 0x84C CALLDATASIZE PUSH1 0x4 PUSH2 0x3A39 JUMP JUMPDEST PUSH2 0x14BD JUMP JUMPDEST PUSH1 0x40 MLOAD PUSH2 0x6C4 SWAP2 SWAP1 PUSH2 0x3C19 JUMP JUMPDEST PUSH2 0x6B8 PUSH2 0x86C CALLDATASIZE PUSH1 0x4 PUSH2 0x3A39 JUMP JUMPDEST PUSH2 0x1543 JUMP JUMPDEST PUSH2 0x6B8 PUSH32 0x0 DUP2 JUMP JUMPDEST PUSH2 0x72B PUSH2 0x8A6 CALLDATASIZE PUSH1 0x4 PUSH2 0x3A0D JUMP JUMPDEST PUSH2 0x154E JUMP JUMPDEST PUSH2 0x72B PUSH2 0x8B9 CALLDATASIZE PUSH1 0x4 PUSH2 0x3A0D JUMP JUMPDEST PUSH2 0x1581 JUMP JUMPDEST PUSH2 0x6B8 PUSH2 0x8CC CALLDATASIZE PUSH1 0x4 PUSH2 0x3A0D JUMP JUMPDEST PUSH2 0x15C6 JUMP JUMPDEST PUSH2 0x72B PUSH2 0x8DF CALLDATASIZE PUSH1 0x4 PUSH2 0x3C5D JUMP JUMPDEST PUSH2 0x15F3 JUMP JUMPDEST PUSH2 0x72B PUSH2 0x8F2 CALLDATASIZE PUSH1 0x4 PUSH2 0x3BD1 JUMP JUMPDEST PUSH2 0x1682 JUMP JUMPDEST PUSH2 0x6B8 PUSH2 0x905 CALLDATASIZE PUSH1 0x4 PUSH2 0x3A81 JUMP JUMPDEST PUSH2 0x168D JUMP JUMPDEST PUSH2 0x912 PUSH2 0x1698 JUMP JUMPDEST STOP JUMPDEST PUSH2 0x72B PUSH2 0x922 CALLDATASIZE PUSH1 0x4 PUSH2 0x3C8D JUMP JUMPDEST PUSH2 0x1717 JUMP JUMPDEST PUSH2 0x93A PUSH2 0x935 CALLDATASIZE PUSH1 0x4 PUSH2 0x3A39 JUMP JUMPDEST PUSH2 0x175D JUMP JUMPDEST PUSH1 0x40 DUP1 MLOAD SWAP3 DUP4 MSTORE PUSH1 0x20 DUP4 ADD SWAP2 SWAP1 SWAP2 MSTORE ADD PUSH2 0x6C4 JUMP JUMPDEST PUSH2 0x6B8 PUSH2 0x95D CALLDATASIZE PUSH1 0x4 PUSH2 0x3A0D JUMP JUMPDEST PUSH2 0x17DF JUMP JUMPDEST PUSH2 0x6B8 PUSH2 0x970 CALLDATASIZE PUSH1 0x4 PUSH2 0x3A81 JUMP JUMPDEST PUSH2 0x17F3 JUMP JUMPDEST PUSH2 0x912 PUSH2 0x983 CALLDATASIZE PUSH1 0x4 PUSH2 0x3A0D JUMP JUMPDEST PUSH2 0x1855 JUMP JUMPDEST PUSH2 0x912 PUSH2 0x1CF1 JUMP JUMPDEST PUSH2 0x912 PUSH2 0x99E CALLDATASIZE PUSH1 0x4 PUSH2 0x3A81 JUMP JUMPDEST PUSH2 0x1D03 JUMP JUMPDEST PUSH2 0x6B8 PUSH2 0x9B1 CALLDATASIZE PUSH1 0x4 PUSH2 0x3A0D JUMP JUMPDEST PUSH2 0x1FDC JUMP JUMPDEST PUSH1 0x7 SLOAD PUSH1 0xFF AND PUSH2 0x6B8 JUMP JUMPDEST PUSH2 0x6B8 PUSH2 0x9CF CALLDATASIZE PUSH1 0x4 PUSH2 0x3A0D JUMP JUMPDEST PUSH2 0x2111 JUMP JUMPDEST PUSH2 0x6E0 PUSH2 0x9E2 CALLDATASIZE PUSH1 0x4 PUSH2 0x3A81 JUMP JUMPDEST PUSH2 0x2125 JUMP JUMPDEST PUSH1 0x0 SLOAD PUSH1 0x1 PUSH1 0x1 PUSH1 0xA0 SHL SUB AND PUSH2 0x7C6 JUMP JUMPDEST PUSH2 0x7C6 PUSH2 0xA06 CALLDATASIZE PUSH1 0x4 PUSH2 0x3A39 JUMP JUMPDEST PUSH1 0x0 SWAP1 DUP2 MSTORE PUSH1 0x9 PUSH1 0x20 MSTORE PUSH1 0x40 SWAP1 KECCAK256 SLOAD PUSH1 0x1 PUSH1 0x1 PUSH1 0xA0 SHL SUB AND SWAP1 JUMP JUMPDEST PUSH2 0x6B8 PUSH2 0xA2F CALLDATASIZE PUSH1 0x4 PUSH2 0x3A81 JUMP JUMPDEST PUSH2 0x2132 JUMP JUMPDEST PUSH2 0x912 PUSH2 0xA42 CALLDATASIZE PUSH1 0x4 PUSH2 0x3A81 JUMP JUMPDEST PUSH2 0x2145 JUMP JUMPDEST PUSH2 0x793 PUSH2 0xA55 CALLDATASIZE PUSH1 0x4 PUSH2 0x3A39 JUMP JUMPDEST PUSH2 0x21D5 JUMP JUMPDEST PUSH2 0x6B8 PUSH2 0xA68 CALLDATASIZE PUSH1 0x4 PUSH2 0x3CC4 JUMP JUMPDEST PUSH2 0x223E JUMP JUMPDEST PUSH2 0x72B PUSH2 0xA7B CALLDATASIZE PUSH1 0x4 PUSH2 0x3A0D JUMP JUMPDEST PUSH2 0x2268 JUMP JUMPDEST PUSH2 0x72B PUSH2 0xA8E CALLDATASIZE PUSH1 0x4 PUSH2 0x3A39 JUMP JUMPDEST PUSH2 0x2274 JUMP JUMPDEST PUSH2 0x793 PUSH2 0xAA1 CALLDATASIZE PUSH1 0x4 PUSH2 0x3A81 JUMP JUMPDEST PUSH2 0x22C6 JUMP JUMPDEST PUSH2 0x6B8 PUSH2 0xAB4 CALLDATASIZE PUSH1 0x4 PUSH2 0x3A0D JUMP JUMPDEST PUSH2 0x22D3 JUMP JUMPDEST PUSH2 0x912 PUSH2 0xAC7 CALLDATASIZE PUSH1 0x4 PUSH2 0x3A81 JUMP JUMPDEST PUSH2 0x23E5 JUMP JUMPDEST PUSH2 0x6B8 PUSH2 0xADA CALLDATASIZE PUSH1 0x4 PUSH2 0x3A0D JUMP JUMPDEST PUSH2 0x2434 JUMP JUMPDEST PUSH2 0x6B8 PUSH2 0xAED CALLDATASIZE PUSH1 0x4 PUSH2 0x3A0D JUMP JUMPDEST PUSH2 0x2557 JUMP JUMPDEST PUSH2 0xB05 PUSH2 0xB00 CALLDATASIZE PUSH1 0x4 PUSH2 0x3A39 JUMP JUMPDEST PUSH2 0x2595 JUMP JUMPDEST PUSH1 0x40 DUP1 MLOAD SWAP3 DUP4 MSTORE PUSH1 0x1 PUSH1 0x1 PUSH1 0xA0 SHL SUB SWAP1 SWAP2 AND PUSH1 0x20 DUP4 ADD MSTORE ADD PUSH2 0x6C4 JUMP JUMPDEST PUSH2 0x72B PUSH2 0xB30 CALLDATASIZE PUSH1 0x4 PUSH2 0x3D0C JUMP JUMPDEST PUSH2 0x2617 JUMP JUMPDEST PUSH2 0x72B PUSH2 0xB43 CALLDATASIZE PUSH1 0x4 PUSH2 0x3A0D JUMP JUMPDEST PUSH2 0x269A JUMP JUMPDEST PUSH2 0x70B PUSH2 0xB56 CALLDATASIZE PUSH1 0x4 PUSH2 0x3A0D JUMP JUMPDEST PUSH2 0x26A6 JUMP JUMPDEST PUSH2 0x6B8 PUSH2 0xB69 CALLDATASIZE PUSH1 0x4 PUSH2 0x3D9C JUMP JUMPDEST PUSH2 0x289E JUMP JUMPDEST PUSH2 0x6B8 PUSH2 0xB7C CALLDATASIZE PUSH1 0x4 PUSH2 0x3A81 JUMP JUMPDEST PUSH2 0x2935 JUMP JUMPDEST PUSH2 0x6B8 PUSH2 0xB8F CALLDATASIZE PUSH1 0x4 PUSH2 0x3CC4 JUMP JUMPDEST PUSH2 0x2942 JUMP JUMPDEST PUSH2 0x72B PUSH2 0xBA2 CALLDATASIZE PUSH1 0x4 PUSH2 0x3A0D JUMP JUMPDEST PUSH2 0x2961 JUMP JUMPDEST PUSH2 0x6B8 PUSH2 0xBB5 CALLDATASIZE PUSH1 0x4 PUSH2 0x3A39 JUMP JUMPDEST PUSH2 0x2A0C JUMP JUMPDEST PUSH2 0x6B8 PUSH2 0xBC8 CALLDATASIZE PUSH1 0x4 PUSH2 0x3DC8 JUMP JUMPDEST PUSH2 0x2A5E JUMP JUMPDEST PUSH2 0x6B8 PUSH2 0xBDB CALLDATASIZE PUSH1 0x4 PUSH2 0x3A81 JUMP JUMPDEST PUSH2 0x2A71 JUMP JUMPDEST PUSH2 0x75F PUSH2 0xBEE CALLDATASIZE PUSH1 0x4 PUSH2 0x3A39 JUMP JUMPDEST PUSH2 0x2A84 JUMP JUMPDEST PUSH2 0x6B8 PUSH2 0xC01 CALLDATASIZE PUSH1 0x4 PUSH2 0x3A0D JUMP JUMPDEST PUSH2 0x2A90 JUMP JUMPDEST PUSH2 0x912 PUSH2 0xC14 CALLDATASIZE PUSH1 0x4 PUSH2 0x3A81 JUMP JUMPDEST PUSH2 0x2AA4 JUMP JUMPDEST PUSH2 0x70B PUSH2 0xC27 CALLDATASIZE PUSH1 0x4 PUSH2 0x3A81 JUMP JUMPDEST PUSH2 0x2B1D JUMP JUMPDEST PUSH1 0x0 SLOAD PUSH1 0x1 PUSH1 0x1 PUSH1 0xA0 SHL SUB AND CALLER EQ DUP1 PUSH2 0xC49 JUMPI POP PUSH2 0xC49 CALLER PUSH2 0xF3B JUMP JUMPDEST PUSH2 0xCB0 JUMPI PUSH1 0x40 MLOAD PUSH3 0x461BCD PUSH1 0xE5 SHL DUP2 MSTORE PUSH1 0x20 PUSH1 0x4 DUP3 ADD MSTORE PUSH1 0x2D PUSH1 0x24 DUP3 ADD MSTORE PUSH32 0x416C6C6F77616E63653A2063616C6C6572206D757374206265205265706F7369 PUSH1 0x44 DUP3 ADD MSTORE PUSH13 0x1D1BDC9E4810DBDB9D1C9858DD PUSH1 0x9A SHL PUSH1 0x64 DUP3 ADD MSTORE PUSH1 0x84 ADD JUMPDEST PUSH1 0x40 MLOAD DUP1 SWAP2 SUB SWAP1 REVERT JUMPDEST JUMP JUMPDEST PUSH1 0x0 PUSH1 0x1 PUSH1 0x1 PUSH1 0xE0 SHL SUB NOT DUP3 AND PUSH4 0x1FFC9A7 PUSH1 0xE0 SHL EQ DUP1 PUSH2 0xCE3 JUMPI POP PUSH4 0x5B62CB7 PUSH1 0xE4 SHL PUSH1 0x1 PUSH1 0x1 PUSH1 0xE0 SHL SUB NOT DUP4 AND EQ JUMPDEST DUP1 PUSH2 0xCF2 JUMPI POP PUSH2 0xCF2 DUP3 PUSH2 0x2B45 JUMP JUMPDEST SWAP3 SWAP2 POP POP JUMP JUMPDEST PUSH1 0x0 PUSH1 0x1 PUSH1 0x1 PUSH1 0xA0 SHL SUB DUP4 AND PUSH2 0xD10 JUMPI POP PUSH1 0x1 PUSH2 0xCF2 JUMP JUMPDEST PUSH2 0xD1A DUP4 DUP4 PUSH2 0x26A6 JUMP JUMPDEST PUSH1 0x40 ADD MLOAD SWAP4 SWAP3 POP POP POP JUMP JUMPDEST PUSH1 0x40 DUP1 MLOAD PUSH1 0x60 DUP2 ADD DUP3 MSTORE PUSH1 0x0 DUP1 DUP3 MSTORE PUSH1 0x20 DUP3 ADD DUP2 SWAP1 MSTORE SWAP2 DUP2 ADD SWAP2 SWAP1 SWAP2 MSTORE PUSH1 0x0 DUP1 MLOAD PUSH1 0x20 PUSH2 0x4192 DUP4 CODECOPY DUP2 MLOAD SWAP2 MSTORE DUP3 EQ ISZERO PUSH2 0xD63 JUMPI PUSH2 0xCF2 PUSH1 0x0 DUP1 PUSH2 0x26A6 JUMP JUMPDEST PUSH2 0xD6C DUP3 PUSH2 0xDC3 JUMP JUMPDEST PUSH2 0xD94 JUMPI POP POP PUSH1 0x40 DUP1 MLOAD PUSH1 0x60 DUP2 ADD DUP3 MSTORE PUSH1 0x11 NOT DUP2 MSTORE PUSH1 0x0 PUSH1 0x20 DUP3 ADD DUP2 SWAP1 MSTORE SWAP2 DUP2 ADD SWAP2 SWAP1 SWAP2 MSTORE SWAP1 JUMP JUMPDEST PUSH1 0x0 DUP1 PUSH2 0xDA0 DUP5 PUSH2 0xDEC JUMP JUMPDEST SWAP2 POP SWAP2 POP PUSH2 0xDAE DUP3 DUP3 PUSH2 0x26A6 JUMP JUMPDEST SWAP5 SWAP4 POP POP POP POP JUMP JUMPDEST PUSH1 0x0 PUSH2 0xCF2 DUP3 PUSH1 0x0 PUSH2 0x269A JUMP JUMPDEST PUSH1 0x0 PUSH1 0x0 DUP1 MLOAD PUSH1 0x20 PUSH2 0x4192 DUP4 CODECOPY DUP2 MLOAD SWAP2 MSTORE DUP3 EQ ISZERO PUSH2 0xDE3 JUMPI POP PUSH1 0x1 SWAP2 SWAP1 POP JUMP JUMPDEST PUSH2 0xCF2 DUP3 PUSH2 0x1543 JUMP JUMPDEST PUSH1 0x0 DUP1 PUSH1 0x0 DUP1 MLOAD PUSH1 0x20 PUSH2 0x4192 DUP4 CODECOPY DUP2 MLOAD SWAP2 MSTORE DUP4 EQ ISZERO PUSH2 0xE10 JUMPI POP PUSH1 0x0 SWAP3 DUP4 SWAP3 POP SWAP1 POP JUMP JUMPDEST PUSH2 0xE19 DUP4 PUSH2 0x1543 JUMP JUMPDEST PUSH2 0xE35 JUMPI PUSH1 0x40 MLOAD PUSH3 0x461BCD PUSH1 0xE5 SHL DUP2 MSTORE PUSH1 0x4 ADD PUSH2 0xCA7 SWAP1 PUSH2 0x3DE5 JUMP JUMPDEST PUSH2 0xE3E DUP4 PUSH2 0x2A84 JUMP JUMPDEST SWAP2 POP SWAP2 POP SWAP2 POP SWAP2 JUMP JUMPDEST PUSH1 0x0 PUSH1 0x0 DUP1 MLOAD PUSH1 0x20 PUSH2 0x4192 DUP4 CODECOPY DUP2 MLOAD SWAP2 MSTORE DUP3 EQ ISZERO PUSH2 0xE6A JUMPI PUSH2 0xCF2 PUSH1 0x0 DUP1 PUSH2 0xCF8 JUMP JUMPDEST PUSH2 0xE73 DUP3 PUSH2 0xDC3 JUMP JUMPDEST PUSH2 0xE7F JUMPI POP PUSH1 0x0 SWAP2 SWAP1 POP JUMP JUMPDEST PUSH1 0x0 DUP1 PUSH2 0xE8B DUP5 PUSH2 0xDEC JUMP JUMPDEST SWAP2 POP SWAP2 POP PUSH2 0xDAE DUP3 DUP3 PUSH2 0xCF8 JUMP JUMPDEST PUSH1 0x0 DUP2 DUP2 MSTORE PUSH1 0x8 PUSH1 0x20 MSTORE PUSH1 0x40 SWAP1 KECCAK256 DUP1 SLOAD PUSH1 0x60 SWAP2 SWAP1 PUSH2 0xEB6 SWAP1 PUSH2 0x3E1C JUMP JUMPDEST DUP1 PUSH1 0x1F ADD PUSH1 0x20 DUP1 SWAP2 DIV MUL PUSH1 0x20 ADD PUSH1 0x40 MLOAD SWAP1 DUP2 ADD PUSH1 0x40 MSTORE DUP1 SWAP3 SWAP2 SWAP1 DUP2 DUP2 MSTORE PUSH1 0x20 ADD DUP3 DUP1 SLOAD PUSH2 0xEE2 SWAP1 PUSH2 0x3E1C JUMP JUMPDEST DUP1 ISZERO PUSH2 0xF2F JUMPI DUP1 PUSH1 0x1F LT PUSH2 0xF04 JUMPI PUSH2 0x100 DUP1 DUP4 SLOAD DIV MUL DUP4 MSTORE SWAP2 PUSH1 0x20 ADD SWAP2 PUSH2 0xF2F JUMP JUMPDEST DUP3 ADD SWAP2 SWAP1 PUSH1 0x0 MSTORE PUSH1 0x20 PUSH1 0x0 KECCAK256 SWAP1 JUMPDEST DUP2 SLOAD DUP2 MSTORE SWAP1 PUSH1 0x1 ADD SWAP1 PUSH1 0x20 ADD DUP1 DUP4 GT PUSH2 0xF12 JUMPI DUP3 SWAP1 SUB PUSH1 0x1F AND DUP3 ADD SWAP2 JUMPDEST POP POP POP POP POP SWAP1 POP SWAP2 SWAP1 POP JUMP JUMPDEST PUSH1 0x0 PUSH1 0x1 PUSH1 0x1 PUSH1 0xA0 SHL SUB DUP3 AND ADDRESS EQ ISZERO PUSH2 0xF56 JUMPI POP PUSH1 0x1 SWAP2 SWAP1 POP JUMP JUMPDEST PUSH1 0x40 MLOAD PUSH4 0xF1325663 PUSH1 0xE0 SHL DUP2 MSTORE PUSH1 0xA PUSH1 0x4 DUP3 ADD MSTORE PUSH1 0x1 PUSH1 0x1 PUSH1 0xA0 SHL SUB DUP4 AND PUSH1 0x24 DUP3 ADD MSTORE PUSH20 0x0 SWAP1 PUSH4 0xF1325663 SWAP1 PUSH1 0x44 ADD JUMPDEST PUSH1 0x20 PUSH1 0x40 MLOAD DUP1 DUP4 SUB DUP2 DUP7 GAS DELEGATECALL ISZERO DUP1 ISZERO PUSH2 0xFB6 JUMPI RETURNDATASIZE PUSH1 0x0 DUP1 RETURNDATACOPY RETURNDATASIZE PUSH1 0x0 REVERT JUMPDEST POP POP POP POP PUSH1 0x40 MLOAD RETURNDATASIZE PUSH1 0x1F NOT PUSH1 0x1F DUP3 ADD AND DUP3 ADD DUP1 PUSH1 0x40 MSTORE POP DUP2 ADD SWAP1 PUSH2 0xCF2 SWAP2 SWAP1 PUSH2 0x3922 JUMP JUMPDEST PUSH1 0x0 PUSH1 0x0 DUP1 MLOAD PUSH1 0x20 PUSH2 0x4192 DUP4 CODECOPY DUP2 MLOAD SWAP2 MSTORE DUP3 EQ ISZERO PUSH2 0xFFA JUMPI POP PUSH1 0x0 SWAP2 SWAP1 POP JUMP JUMPDEST PUSH2 0x1003 DUP3 PUSH2 0x1543 JUMP JUMPDEST PUSH2 0x101F JUMPI PUSH1 0x40 MLOAD PUSH3 0x461BCD PUSH1 0xE5 SHL DUP2 MSTORE PUSH1 0x4 ADD PUSH2 0xCA7 SWAP1 PUSH2 0x3DE5 JUMP JUMPDEST PUSH1 0x0 PUSH2 0x102A DUP4 PUSH2 0x2A84 JUMP JUMPDEST POP SWAP4 SWAP3 POP POP POP JUMP JUMPDEST PUSH1 0x0 PUSH2 0x103C PUSH2 0x1698 JUMP JUMPDEST PUSH2 0x1046 DUP4 DUP4 PUSH2 0x2B7B JUMP JUMPDEST SWAP4 SWAP3 POP POP POP JUMP JUMPDEST PUSH1 0x60 PUSH1 0x1 PUSH1 0x1 PUSH1 0xA0 SHL SUB DUP4 AND PUSH2 0x107D JUMPI PUSH1 0x40 MLOAD DUP1 PUSH1 0xA0 ADD PUSH1 0x40 MSTORE DUP1 PUSH1 0x75 DUP2 MSTORE PUSH1 0x20 ADD PUSH2 0x41B2 PUSH1 0x75 SWAP2 CODECOPY SWAP1 POP PUSH2 0xCF2 JUMP JUMPDEST PUSH1 0x0 PUSH1 0x1 PUSH1 0x0 PUSH20 0x0 PUSH4 0xD5F0B04D DUP8 DUP8 PUSH1 0x40 MLOAD DUP4 PUSH4 0xFFFFFFFF AND PUSH1 0xE0 SHL DUP2 MSTORE PUSH1 0x4 ADD PUSH2 0x10BC SWAP3 SWAP2 SWAP1 PUSH2 0x3A9E JUMP JUMPDEST PUSH1 0x20 PUSH1 0x40 MLOAD DUP1 DUP4 SUB DUP2 DUP7 GAS DELEGATECALL ISZERO DUP1 ISZERO PUSH2 0x10D9 JUMPI RETURNDATASIZE PUSH1 0x0 DUP1 RETURNDATACOPY RETURNDATASIZE PUSH1 0x0 REVERT JUMPDEST POP POP POP POP PUSH1 0x40 MLOAD RETURNDATASIZE PUSH1 0x1F NOT PUSH1 0x1F DUP3 ADD AND DUP3 ADD DUP1 PUSH1 0x40 MSTORE POP DUP2 ADD SWAP1 PUSH2 0x10FD SWAP2 SWAP1 PUSH2 0x3955 JUMP JUMPDEST DUP2 MSTORE PUSH1 0x20 ADD SWAP1 DUP2 MSTORE PUSH1 0x20 ADD PUSH1 0x0 KECCAK256 DUP1 SLOAD PUSH2 0x1116 SWAP1 PUSH2 0x3E1C JUMP JUMPDEST DUP1 PUSH1 0x1F ADD PUSH1 0x20 DUP1 SWAP2 DIV MUL PUSH1 0x20 ADD PUSH1 0x40 MLOAD SWAP1 DUP2 ADD PUSH1 0x40 MSTORE DUP1 SWAP3 SWAP2 SWAP1 DUP2 DUP2 MSTORE PUSH1 0x20 ADD DUP3 DUP1 SLOAD PUSH2 0x1142 SWAP1 PUSH2 0x3E1C JUMP JUMPDEST DUP1 ISZERO PUSH2 0x118F JUMPI DUP1 PUSH1 0x1F LT PUSH2 0x1164 JUMPI PUSH2 0x100 DUP1 DUP4 SLOAD DIV MUL DUP4 MSTORE SWAP2 PUSH1 0x20 ADD SWAP2 PUSH2 0x118F JUMP JUMPDEST DUP3 ADD SWAP2 SWAP1 PUSH1 0x0 MSTORE PUSH1 0x20 PUSH1 0x0 KECCAK256 SWAP1 JUMPDEST DUP2 SLOAD DUP2 MSTORE SWAP1 PUSH1 0x1 ADD SWAP1 PUSH1 0x20 ADD DUP1 DUP4 GT PUSH2 0x1172 JUMPI DUP3 SWAP1 SUB PUSH1 0x1F AND DUP3 ADD SWAP2 JUMPDEST POP POP PUSH1 0x40 DUP1 MLOAD PUSH1 0x0 DUP2 MSTORE PUSH1 0x20 DUP2 ADD DUP1 DUP4 MSTORE DUP2 MLOAD SWAP1 KECCAK256 SWAP6 SWAP7 POP PUSH2 0x11B7 SWAP5 POP DUP7 SWAP4 POP ADD SWAP1 POP PUSH2 0x3E51 JUMP JUMPDEST PUSH1 0x40 MLOAD PUSH1 0x20 DUP2 DUP4 SUB SUB DUP2 MSTORE SWAP1 PUSH1 0x40 MSTORE DUP1 MLOAD SWAP1 PUSH1 0x20 ADD KECCAK256 EQ PUSH2 0x11D9 JUMPI SWAP1 POP PUSH2 0xCF2 JUMP JUMPDEST DUP3 ISZERO PUSH2 0x133A JUMPI PUSH1 0x1 PUSH1 0x0 PUSH20 0x0 PUSH4 0xD5F0B04D DUP8 PUSH1 0x0 PUSH1 0x40 MLOAD DUP4 PUSH4 0xFFFFFFFF AND PUSH1 0xE0 SHL DUP2 MSTORE PUSH1 0x4 ADD PUSH2 0x121D SWAP3 SWAP2 SWAP1 PUSH2 0x3A9E JUMP JUMPDEST PUSH1 0x20 PUSH1 0x40 MLOAD DUP1 DUP4 SUB DUP2 DUP7 GAS DELEGATECALL ISZERO DUP1 ISZERO PUSH2 0x123A JUMPI RETURNDATASIZE PUSH1 0x0 DUP1 RETURNDATACOPY RETURNDATASIZE PUSH1 0x0 REVERT JUMPDEST POP POP POP POP PUSH1 0x40 MLOAD RETURNDATASIZE PUSH1 0x1F NOT PUSH1 0x1F DUP3 ADD AND DUP3 ADD DUP1 PUSH1 0x40 MSTORE POP DUP2 ADD SWAP1 PUSH2 0x125E SWAP2 SWAP1 PUSH2 0x3955 JUMP JUMPDEST DUP2 MSTORE PUSH1 0x20 ADD SWAP1 DUP2 MSTORE PUSH1 0x20 ADD PUSH1 0x0 KECCAK256 DUP1 SLOAD PUSH2 0x1277 SWAP1 PUSH2 0x3E1C JUMP JUMPDEST DUP1 PUSH1 0x1F ADD PUSH1 0x20 DUP1 SWAP2 DIV MUL PUSH1 0x20 ADD PUSH1 0x40 MLOAD SWAP1 DUP2 ADD PUSH1 0x40 MSTORE DUP1 SWAP3 SWAP2 SWAP1 DUP2 DUP2 MSTORE PUSH1 0x20 ADD DUP3 DUP1 SLOAD PUSH2 0x12A3 SWAP1 PUSH2 0x3E1C JUMP JUMPDEST DUP1 ISZERO PUSH2 0x12F0 JUMPI DUP1 PUSH1 0x1F LT PUSH2 0x12C5 JUMPI PUSH2 0x100 DUP1 DUP4 SLOAD DIV MUL DUP4 MSTORE SWAP2 PUSH1 0x20 ADD SWAP2 PUSH2 0x12F0 JUMP JUMPDEST DUP3 ADD SWAP2 SWAP1 PUSH1 0x0 MSTORE PUSH1 0x20 PUSH1 0x0 KECCAK256 SWAP1 JUMPDEST DUP2 SLOAD DUP2 MSTORE SWAP1 PUSH1 0x1 ADD SWAP1 PUSH1 0x20 ADD DUP1 DUP4 GT PUSH2 0x12D3 JUMPI DUP3 SWAP1 SUB PUSH1 0x1F AND DUP3 ADD SWAP2 JUMPDEST POP POP PUSH1 0x40 DUP1 MLOAD PUSH1 0x0 DUP2 MSTORE PUSH1 0x20 DUP2 ADD DUP1 DUP4 MSTORE DUP2 MLOAD SWAP1 KECCAK256 SWAP6 SWAP7 POP PUSH2 0x1318 SWAP5 POP DUP7 SWAP4 POP ADD SWAP1 POP PUSH2 0x3E51 JUMP JUMPDEST PUSH1 0x40 MLOAD PUSH1 0x20 DUP2 DUP4 SUB SUB DUP2 MSTORE SWAP1 PUSH1 0x40 MSTORE DUP1 MLOAD SWAP1 PUSH1 0x20 ADD KECCAK256 EQ PUSH2 0x133A JUMPI SWAP1 POP PUSH2 0xCF2 JUMP JUMPDEST PUSH1 0x40 MLOAD DUP1 PUSH1 0xA0 ADD PUSH1 0x40 MSTORE DUP1 PUSH1 0x6C DUP2 MSTORE PUSH1 0x20 ADD PUSH2 0x4126 PUSH1 0x6C SWAP2 CODECOPY SWAP5 SWAP4 POP POP POP POP JUMP JUMPDEST DUP1 MLOAD PUSH1 0x20 DUP1 DUP4 ADD SWAP2 SWAP1 SWAP2 KECCAK256 PUSH1 0x0 DUP2 DUP2 MSTORE PUSH1 0x8 SWAP1 SWAP3 MSTORE PUSH1 0x40 SWAP1 SWAP2 KECCAK256 DUP1 SLOAD PUSH2 0x1380 SWAP1 PUSH2 0x3E1C JUMP JUMPDEST ISZERO ISZERO SWAP1 POP PUSH2 0x13AD JUMPI PUSH1 0x0 DUP2 DUP2 MSTORE PUSH1 0x8 PUSH1 0x20 SWAP1 DUP2 MSTORE PUSH1 0x40 SWAP1 SWAP2 KECCAK256 DUP4 MLOAD PUSH2 0x13A7 SWAP3 DUP6 ADD SWAP1 PUSH2 0x387B JUMP JUMPDEST POP SWAP2 SWAP1 POP JUMP JUMPDEST PUSH1 0x0 DUP2 DUP2 MSTORE PUSH1 0x8 PUSH1 0x20 MSTORE PUSH1 0x40 SWAP1 KECCAK256 DUP1 SLOAD PUSH2 0x144F SWAP2 SWAP1 PUSH2 0x13CB SWAP1 PUSH2 0x3E1C JUMP JUMPDEST DUP1 PUSH1 0x1F ADD PUSH1 0x20 DUP1 SWAP2 DIV MUL PUSH1 0x20 ADD PUSH1 0x40 MLOAD SWAP1 DUP2 ADD PUSH1 0x40 MSTORE DUP1 SWAP3 SWAP2 SWAP1 DUP2 DUP2 MSTORE PUSH1 0x20 ADD DUP3 DUP1 SLOAD PUSH2 0x13F7 SWAP1 PUSH2 0x3E1C JUMP JUMPDEST DUP1 ISZERO PUSH2 0x1444 JUMPI DUP1 PUSH1 0x1F LT PUSH2 0x1419 JUMPI PUSH2 0x100 DUP1 DUP4 SLOAD DIV MUL DUP4 MSTORE SWAP2 PUSH1 0x20 ADD SWAP2 PUSH2 0x1444 JUMP JUMPDEST DUP3 ADD SWAP2 SWAP1 PUSH1 0x0 MSTORE PUSH1 0x20 PUSH1 0x0 KECCAK256 SWAP1 JUMPDEST DUP2 SLOAD DUP2 MSTORE SWAP1 PUSH1 0x1 ADD SWAP1 PUSH1 0x20 ADD DUP1 DUP4 GT PUSH2 0x1427 JUMPI DUP3 SWAP1 SUB PUSH1 0x1F AND DUP3 ADD SWAP2 JUMPDEST POP POP POP POP POP DUP4 PUSH2 0x2E08 JUMP JUMPDEST PUSH2 0x14B8 JUMPI PUSH1 0x40 MLOAD PUSH3 0x461BCD PUSH1 0xE5 SHL DUP2 MSTORE PUSH1 0x20 PUSH1 0x4 DUP3 ADD MSTORE PUSH1 0x34 PUSH1 0x24 DUP3 ADD MSTORE PUSH32 0x4B656363616B496E766572746572204279746573206B656363616B2069736E74 PUSH1 0x44 DUP3 ADD MSTORE PUSH20 0x20756E6971756520212121212121212121212121 PUSH1 0x60 SHL PUSH1 0x64 DUP3 ADD MSTORE PUSH1 0x84 ADD PUSH2 0xCA7 JUMP JUMPDEST SWAP2 SWAP1 POP JUMP JUMPDEST PUSH1 0x60 PUSH2 0x14C8 DUP3 PUSH2 0xE99 JUMP JUMPDEST PUSH1 0x40 MLOAD PUSH4 0x55B04B0D PUSH1 0xE1 SHL DUP2 MSTORE PUSH20 0x0 SWAP2 PUSH4 0xAB60961A SWAP2 PUSH2 0x14FE SWAP2 SWAP1 PUSH1 0x4 ADD PUSH2 0x3B13 JUMP JUMPDEST PUSH1 0x0 PUSH1 0x40 MLOAD DUP1 DUP4 SUB DUP2 DUP7 GAS DELEGATECALL ISZERO DUP1 ISZERO PUSH2 0x151B JUMPI RETURNDATASIZE PUSH1 0x0 DUP1 RETURNDATACOPY RETURNDATASIZE PUSH1 0x0 REVERT JUMPDEST POP POP POP POP PUSH1 0x40 MLOAD RETURNDATASIZE PUSH1 0x0 DUP3 RETURNDATACOPY PUSH1 0x1F RETURNDATASIZE SWAP1 DUP2 ADD PUSH1 0x1F NOT AND DUP3 ADD PUSH1 0x40 MSTORE PUSH2 0xCF2 SWAP2 SWAP1 DUP2 ADD SWAP1 PUSH2 0x3E6D JUMP JUMPDEST PUSH1 0x0 PUSH2 0xCF2 DUP3 PUSH2 0x2E9A JUMP JUMPDEST PUSH1 0x0 PUSH2 0x155A DUP4 DUP4 PUSH2 0x2961 JUMP JUMPDEST SWAP1 POP PUSH2 0x1565 DUP2 PUSH2 0x1543 JUMP JUMPDEST PUSH2 0xCF2 JUMPI PUSH1 0x40 MLOAD PUSH3 0x461BCD PUSH1 0xE5 SHL DUP2 MSTORE PUSH1 0x4 ADD PUSH2 0xCA7 SWAP1 PUSH2 0x3DE5 JUMP JUMPDEST PUSH1 0x0 PUSH1 0x1 PUSH1 0x1 PUSH1 0xA0 SHL SUB DUP4 AND ISZERO DUP1 ISZERO PUSH2 0x1598 JUMPI POP DUP2 ISZERO JUMPDEST ISZERO PUSH2 0x15B2 JUMPI POP PUSH1 0x0 DUP1 MLOAD PUSH1 0x20 PUSH2 0x4192 DUP4 CODECOPY DUP2 MLOAD SWAP2 MSTORE PUSH2 0xCF2 JUMP JUMPDEST PUSH2 0x15BC DUP4 DUP4 PUSH2 0x1855 JUMP JUMPDEST PUSH2 0x1046 DUP4 DUP4 PUSH2 0x2268 JUMP JUMPDEST PUSH1 0x0 PUSH1 0x1 PUSH1 0x1 PUSH1 0xA0 SHL SUB DUP4 AND PUSH2 0x15DE JUMPI POP PUSH1 0x0 PUSH2 0xCF2 JUMP JUMPDEST PUSH2 0x15E8 DUP4 DUP4 PUSH2 0x26A6 JUMP JUMPDEST PUSH1 0x20 ADD MLOAD SWAP4 SWAP3 POP POP POP JUMP JUMPDEST PUSH1 0x40 MLOAD PUSH4 0x18F7A7C3 PUSH1 0xE2 SHL DUP2 MSTORE PUSH1 0x4 DUP2 ADD DUP4 SWAP1 MSTORE PUSH1 0x1 PUSH1 0x1 PUSH1 0xA0 SHL SUB DUP3 AND PUSH1 0x24 DUP3 ADD MSTORE PUSH1 0x0 SWAP1 PUSH2 0x1046 SWAP1 PUSH20 0x0 SWAP1 PUSH4 0x63DE9F0C SWAP1 PUSH1 0x44 ADD JUMPDEST PUSH1 0x0 PUSH1 0x40 MLOAD DUP1 DUP4 SUB DUP2 DUP7 GAS DELEGATECALL ISZERO DUP1 ISZERO PUSH2 0x165A JUMPI RETURNDATASIZE PUSH1 0x0 DUP1 RETURNDATACOPY RETURNDATASIZE PUSH1 0x0 REVERT JUMPDEST POP POP POP POP PUSH1 0x40 MLOAD RETURNDATASIZE PUSH1 0x0 DUP3 RETURNDATACOPY PUSH1 0x1F RETURNDATASIZE SWAP1 DUP2 ADD PUSH1 0x1F NOT AND DUP3 ADD PUSH1 0x40 MSTORE PUSH2 0xB30 SWAP2 SWAP1 DUP2 ADD SWAP1 PUSH2 0x3E6D JUMP JUMPDEST PUSH1 0x0 PUSH2 0xCF2 DUP3 PUSH2 0x135B JUMP JUMPDEST PUSH1 0x0 PUSH2 0xCF2 DUP3 PUSH2 0x2EBC JUMP JUMPDEST PUSH1 0x0 SLOAD PUSH1 0x1 PUSH1 0x1 PUSH1 0xA0 SHL SUB AND CALLER EQ DUP1 PUSH2 0x16B5 JUMPI POP PUSH2 0x16B5 CALLER PUSH2 0x17F3 JUMP JUMPDEST PUSH2 0xCB0 JUMPI PUSH1 0x40 MLOAD PUSH3 0x461BCD PUSH1 0xE5 SHL DUP2 MSTORE PUSH1 0x20 PUSH1 0x4 DUP3 ADD MSTORE PUSH1 0x2D PUSH1 0x24 DUP3 ADD MSTORE PUSH32 0x416C6C6F77616E63653A2063616C6C6572206D757374206265205265706F7369 PUSH1 0x44 DUP3 ADD MSTORE PUSH13 0x3A37B93C9027B832B930BA37B9 PUSH1 0x99 SHL PUSH1 0x64 DUP3 ADD MSTORE PUSH1 0x84 ADD PUSH2 0xCA7 JUMP JUMPDEST PUSH1 0x40 MLOAD PUSH4 0x2291B3F1 PUSH1 0xE2 SHL DUP2 MSTORE PUSH1 0x4 DUP2 ADD DUP4 SWAP1 MSTORE PUSH1 0x24 DUP2 ADD DUP3 SWAP1 MSTORE PUSH1 0x0 SWAP1 PUSH2 0x1046 SWAP1 PUSH20 0x0 SWAP1 PUSH4 0x8A46CFC4 SWAP1 PUSH1 0x44 ADD PUSH2 0x163D JUMP JUMPDEST PUSH1 0x0 DUP1 PUSH2 0x1769 DUP4 PUSH2 0x14BD JUMP JUMPDEST PUSH1 0x40 MLOAD PUSH4 0x29695C3 PUSH1 0xE2 SHL DUP2 MSTORE PUSH20 0x0 SWAP2 PUSH4 0xA5A570C SWAP2 PUSH2 0x179F SWAP2 SWAP1 PUSH1 0x4 ADD PUSH2 0x3C19 JUMP JUMPDEST PUSH1 0x40 DUP1 MLOAD DUP1 DUP4 SUB DUP2 DUP7 GAS DELEGATECALL ISZERO DUP1 ISZERO PUSH2 0x17BB JUMPI RETURNDATASIZE PUSH1 0x0 DUP1 RETURNDATACOPY RETURNDATASIZE PUSH1 0x0 REVERT JUMPDEST POP POP POP POP PUSH1 0x40 MLOAD RETURNDATASIZE PUSH1 0x1F NOT PUSH1 0x1F DUP3 ADD AND DUP3 ADD DUP1 PUSH1 0x40 MSTORE POP DUP2 ADD SWAP1 PUSH2 0xE3E SWAP2 SWAP1 PUSH2 0x3EF2 JUMP JUMPDEST PUSH1 0x0 PUSH2 0x17E9 PUSH2 0x1698 JUMP JUMPDEST PUSH2 0x1046 DUP4 DUP4 PUSH2 0x2F47 JUMP JUMPDEST PUSH1 0x0 PUSH1 0x1 PUSH1 0x1 PUSH1 0xA0 SHL SUB DUP3 AND ADDRESS EQ ISZERO PUSH2 0x180E JUMPI POP PUSH1 0x1 SWAP2 SWAP1 POP JUMP JUMPDEST PUSH1 0x40 MLOAD PUSH4 0xF1325663 PUSH1 0xE0 SHL DUP2 MSTORE PUSH1 0xB PUSH1 0x4 DUP3 ADD MSTORE PUSH1 0x1 PUSH1 0x1 PUSH1 0xA0 SHL SUB DUP4 AND PUSH1 0x24 DUP3 ADD MSTORE PUSH20 0x0 SWAP1 PUSH4 0xF1325663 SWAP1 PUSH1 0x44 ADD PUSH2 0xF99 JUMP JUMPDEST PUSH1 0x0 DUP1 PUSH20 0x0 PUSH4 0xD5F0B04D DUP6 PUSH1 0x0 PUSH1 0x40 MLOAD DUP4 PUSH4 0xFFFFFFFF AND PUSH1 0xE0 SHL DUP2 MSTORE PUSH1 0x4 ADD PUSH2 0x1892 SWAP3 SWAP2 SWAP1 PUSH2 0x3A9E JUMP JUMPDEST PUSH1 0x20 PUSH1 0x40 MLOAD DUP1 DUP4 SUB DUP2 DUP7 GAS DELEGATECALL ISZERO DUP1 ISZERO PUSH2 0x18AF JUMPI RETURNDATASIZE PUSH1 0x0 DUP1 RETURNDATACOPY RETURNDATASIZE PUSH1 0x0 REVERT JUMPDEST POP POP POP POP PUSH1 0x40 MLOAD RETURNDATASIZE PUSH1 0x1F NOT PUSH1 0x1F DUP3 ADD AND DUP3 ADD DUP1 PUSH1 0x40 MSTORE POP DUP2 ADD SWAP1 PUSH2 0x18D3 SWAP2 SWAP1 PUSH2 0x3955 JUMP JUMPDEST PUSH1 0x0 DUP2 DUP2 MSTORE PUSH1 0x3 PUSH1 0x20 MSTORE PUSH1 0x40 SWAP1 KECCAK256 DUP1 SLOAD SWAP1 SWAP4 POP SWAP1 SWAP2 POP PUSH3 0x10000 SWAP1 DIV PUSH1 0x1 PUSH1 0x1 PUSH1 0x40 SHL SUB AND PUSH2 0x1A65 JUMPI PUSH1 0x40 MLOAD PUSH4 0x4DD11F0F PUSH1 0xE1 SHL DUP2 MSTORE PUSH1 0x1 PUSH1 0x1 PUSH1 0xA0 SHL SUB DUP6 AND PUSH1 0x4 DUP3 ADD MSTORE PUSH1 0x0 PUSH1 0x24 DUP3 ADD MSTORE PUSH1 0x1 PUSH1 0x44 DUP3 ADD MSTORE PUSH20 0x0 SWAP1 PUSH4 0x9BA23E1E SWAP1 PUSH1 0x64 ADD PUSH1 0x60 PUSH1 0x40 MLOAD DUP1 DUP4 SUB DUP2 DUP7 GAS DELEGATECALL ISZERO DUP1 ISZERO PUSH2 0x1962 JUMPI RETURNDATASIZE PUSH1 0x0 DUP1 RETURNDATACOPY RETURNDATASIZE PUSH1 0x0 REVERT JUMPDEST POP POP POP POP PUSH1 0x40 MLOAD RETURNDATASIZE PUSH1 0x1F NOT PUSH1 0x1F DUP3 ADD AND DUP3 ADD DUP1 PUSH1 0x40 MSTORE POP DUP2 ADD SWAP1 PUSH2 0x1986 SWAP2 SWAP1 PUSH2 0x3F16 JUMP JUMPDEST PUSH1 0x0 DUP3 DUP2 MSTORE PUSH1 0x3 PUSH1 0x20 SWAP1 DUP2 MSTORE PUSH1 0x40 SWAP2 DUP3 SWAP1 KECCAK256 DUP4 MLOAD DUP2 SLOAD SWAP3 DUP6 ADD MLOAD SWAP5 DUP5 ADD MLOAD PUSH1 0x1 PUSH1 0x1 PUSH1 0x40 SHL SUB AND PUSH3 0x10000 MUL PUSH10 0xFFFFFFFFFFFFFFFF0000 NOT SWAP6 ISZERO ISZERO PUSH2 0x100 MUL PUSH2 0xFFFF NOT SWAP1 SWAP5 AND PUSH1 0xFF SWAP1 SWAP3 AND SWAP2 SWAP1 SWAP2 OR SWAP3 SWAP1 SWAP3 OR SWAP4 SWAP1 SWAP4 AND OR SWAP1 SWAP2 SSTORE MLOAD PUSH4 0x16061A71 PUSH1 0xE2 SHL DUP2 MSTORE PUSH20 0x0 SWAP1 PUSH4 0x581869C4 SWAP1 PUSH2 0x1A22 SWAP1 PUSH1 0x2 SWAP1 DUP6 SWAP1 PUSH1 0x4 ADD SWAP2 DUP3 MSTORE PUSH1 0x20 DUP3 ADD MSTORE PUSH1 0x40 ADD SWAP1 JUMP JUMPDEST PUSH1 0x20 PUSH1 0x40 MLOAD DUP1 DUP4 SUB DUP2 DUP7 GAS DELEGATECALL ISZERO DUP1 ISZERO PUSH2 0x1A3F JUMPI RETURNDATASIZE PUSH1 0x0 DUP1 RETURNDATACOPY RETURNDATASIZE PUSH1 0x0 REVERT JUMPDEST POP POP POP POP PUSH1 0x40 MLOAD RETURNDATASIZE PUSH1 0x1F NOT PUSH1 0x1F DUP3 ADD AND DUP3 ADD DUP1 PUSH1 0x40 MSTORE POP DUP2 ADD SWAP1 PUSH2 0x1A63 SWAP2 SWAP1 PUSH2 0x3922 JUMP JUMPDEST POP JUMPDEST DUP2 SLOAD PUSH3 0x10000 SWAP1 DIV PUSH1 0x1 PUSH1 0x1 PUSH1 0x40 SHL SUB AND PUSH2 0x1A82 JUMPI PUSH2 0x1A82 PUSH2 0x3F8E JUMP JUMPDEST DUP2 SLOAD PUSH3 0x10000 SWAP1 DIV PUSH2 0x100 AND PUSH2 0x1A98 JUMPI POP POP POP POP JUMP JUMPDEST PUSH1 0x40 DUP1 MLOAD PUSH1 0x60 DUP2 ADD DUP3 MSTORE DUP4 SLOAD PUSH1 0x0 DUP2 SWAP1 SIGNEXTEND DUP3 MSTORE PUSH2 0x100 DUP2 DIV PUSH1 0xFF AND ISZERO ISZERO PUSH1 0x20 DUP4 ADD MSTORE PUSH3 0x10000 SWAP1 DIV PUSH1 0x1 PUSH1 0x1 PUSH1 0x40 SHL SUB AND DUP2 DUP4 ADD MSTORE SWAP1 MLOAD PUSH4 0xD5F0B04D PUSH1 0xE0 SHL DUP2 MSTORE PUSH20 0x0 SWAP1 PUSH4 0xD5F0B04D SWAP1 PUSH2 0x1B05 SWAP1 DUP9 SWAP1 DUP9 SWAP1 PUSH1 0x4 ADD PUSH2 0x3A9E JUMP JUMPDEST PUSH1 0x20 PUSH1 0x40 MLOAD DUP1 DUP4 SUB DUP2 DUP7 GAS DELEGATECALL ISZERO DUP1 ISZERO PUSH2 0x1B22 JUMPI RETURNDATASIZE PUSH1 0x0 DUP1 RETURNDATACOPY RETURNDATASIZE PUSH1 0x0 REVERT JUMPDEST POP POP POP POP PUSH1 0x40 MLOAD RETURNDATASIZE PUSH1 0x1F NOT PUSH1 0x1F DUP3 ADD AND DUP3 ADD DUP1 PUSH1 0x40 MSTORE POP DUP2 ADD SWAP1 PUSH2 0x1B46 SWAP2 SWAP1 PUSH2 0x3955 JUMP JUMPDEST PUSH1 0x0 DUP2 DUP2 MSTORE PUSH1 0x3 PUSH1 0x20 MSTORE PUSH1 0x40 SWAP1 KECCAK256 DUP1 SLOAD SWAP1 SWAP5 POP SWAP1 SWAP3 POP PUSH3 0x10000 SWAP1 DIV PUSH1 0x1 PUSH1 0x1 PUSH1 0x40 SHL SUB AND PUSH2 0x1CCD JUMPI PUSH1 0x40 MLOAD PUSH4 0x543AF627 PUSH1 0xE0 SHL DUP2 MSTORE PUSH20 0x0 SWAP1 PUSH4 0x543AF627 SWAP1 PUSH2 0x1BAD SWAP1 DUP9 SWAP1 DUP9 SWAP1 DUP7 SWAP1 PUSH1 0x1 SWAP1 PUSH1 0x4 ADD PUSH2 0x3FA4 JUMP JUMPDEST PUSH1 0x60 PUSH1 0x40 MLOAD DUP1 DUP4 SUB DUP2 DUP7 GAS DELEGATECALL ISZERO DUP1 ISZERO PUSH2 0x1BCA JUMPI RETURNDATASIZE PUSH1 0x0 DUP1 RETURNDATACOPY RETURNDATASIZE PUSH1 0x0 REVERT JUMPDEST POP POP POP POP PUSH1 0x40 MLOAD RETURNDATASIZE PUSH1 0x1F NOT PUSH1 0x1F DUP3 ADD AND DUP3 ADD DUP1 PUSH1 0x40 MSTORE POP DUP2 ADD SWAP1 PUSH2 0x1BEE SWAP2 SWAP1 PUSH2 0x3F16 JUMP JUMPDEST PUSH1 0x0 DUP4 DUP2 MSTORE PUSH1 0x3 PUSH1 0x20 SWAP1 DUP2 MSTORE PUSH1 0x40 SWAP2 DUP3 SWAP1 KECCAK256 DUP4 MLOAD DUP2 SLOAD SWAP3 DUP6 ADD MLOAD SWAP5 DUP5 ADD MLOAD PUSH1 0x1 PUSH1 0x1 PUSH1 0x40 SHL SUB AND PUSH3 0x10000 MUL PUSH10 0xFFFFFFFFFFFFFFFF0000 NOT SWAP6 ISZERO ISZERO PUSH2 0x100 MUL PUSH2 0xFFFF NOT SWAP1 SWAP5 AND PUSH1 0xFF SWAP1 SWAP3 AND SWAP2 SWAP1 SWAP2 OR SWAP3 SWAP1 SWAP3 OR SWAP4 SWAP1 SWAP4 AND OR SWAP1 SWAP2 SSTORE MLOAD PUSH4 0x16061A71 PUSH1 0xE2 SHL DUP2 MSTORE PUSH20 0x0 SWAP1 PUSH4 0x581869C4 SWAP1 PUSH2 0x1C8A SWAP1 PUSH1 0x2 SWAP1 DUP7 SWAP1 PUSH1 0x4 ADD SWAP2 DUP3 MSTORE PUSH1 0x20 DUP3 ADD MSTORE PUSH1 0x40 ADD SWAP1 JUMP JUMPDEST PUSH1 0x20 PUSH1 0x40 MLOAD DUP1 DUP4 SUB DUP2 DUP7 GAS DELEGATECALL ISZERO DUP1 ISZERO PUSH2 0x1CA7 JUMPI RETURNDATASIZE PUSH1 0x0 DUP1 RETURNDATACOPY RETURNDATASIZE PUSH1 0x0 REVERT JUMPDEST POP POP POP POP PUSH1 0x40 MLOAD RETURNDATASIZE PUSH1 0x1F NOT PUSH1 0x1F DUP3 ADD AND DUP3 ADD DUP1 PUSH1 0x40 MSTORE POP DUP2 ADD SWAP1 PUSH2 0x1CCB SWAP2 SWAP1 PUSH2 0x3922 JUMP JUMPDEST POP JUMPDEST DUP3 SLOAD PUSH3 0x10000 SWAP1 DIV PUSH1 0x1 PUSH1 0x1 PUSH1 0x40 SHL SUB AND PUSH2 0x1CEA JUMPI PUSH2 0x1CEA PUSH2 0x3F8E JUMP JUMPDEST POP POP POP POP POP JUMP JUMPDEST PUSH2 0x1CF9 PUSH2 0x3224 JUMP JUMPDEST PUSH2 0xCB0 PUSH1 0x0 PUSH2 0x327E JUMP JUMPDEST PUSH2 0x1D0B PUSH2 0x1698 JUMP JUMPDEST PUSH1 0x40 MLOAD PUSH4 0x1FFC9A7 PUSH1 0xE0 SHL DUP2 MSTORE PUSH4 0x15D37895 PUSH1 0xE3 SHL PUSH1 0x4 DUP3 ADD MSTORE PUSH1 0x1 PUSH1 0x1 PUSH1 0xA0 SHL SUB DUP3 AND SWAP1 PUSH4 0x1FFC9A7 SWAP1 PUSH1 0x24 ADD PUSH1 0x20 PUSH1 0x40 MLOAD DUP1 DUP4 SUB DUP2 DUP7 GAS STATICCALL ISZERO DUP1 ISZERO PUSH2 0x1D56 JUMPI RETURNDATASIZE PUSH1 0x0 DUP1 RETURNDATACOPY RETURNDATASIZE PUSH1 0x0 REVERT JUMPDEST POP POP POP POP PUSH1 0x40 MLOAD RETURNDATASIZE PUSH1 0x1F NOT PUSH1 0x1F DUP3 ADD AND DUP3 ADD DUP1 PUSH1 0x40 MSTORE POP DUP2 ADD SWAP1 PUSH2 0x1D7A SWAP2 SWAP1 PUSH2 0x3922 JUMP JUMPDEST PUSH2 0x1DD2 JUMPI PUSH1 0x40 MLOAD PUSH3 0x461BCD PUSH1 0xE5 SHL DUP2 MSTORE PUSH1 0x20 PUSH1 0x4 DUP3 ADD MSTORE PUSH1 0x24 DUP1 DUP3 ADD MSTORE PUSH32 0x636F6E7472616374206D75737420626520495265706F7369746F7279436F6E74 PUSH1 0x44 DUP3 ADD MSTORE PUSH4 0x1C9858DD PUSH1 0xE2 SHL PUSH1 0x64 DUP3 ADD MSTORE PUSH1 0x84 ADD PUSH2 0xCA7 JUMP JUMPDEST PUSH1 0x0 JUMPDEST PUSH1 0xD SLOAD DUP2 LT ISZERO PUSH2 0x1EBB JUMPI PUSH1 0xC PUSH1 0x0 DUP4 PUSH1 0x1 PUSH1 0x1 PUSH1 0xA0 SHL SUB AND PUSH4 0xAF640D0F PUSH1 0x40 MLOAD DUP2 PUSH4 0xFFFFFFFF AND PUSH1 0xE0 SHL DUP2 MSTORE PUSH1 0x4 ADD PUSH1 0x20 PUSH1 0x40 MLOAD DUP1 DUP4 SUB DUP2 DUP7 GAS STATICCALL ISZERO DUP1 ISZERO PUSH2 0x1E21 JUMPI RETURNDATASIZE PUSH1 0x0 DUP1 RETURNDATACOPY RETURNDATASIZE PUSH1 0x0 REVERT JUMPDEST POP POP POP POP PUSH1 0x40 MLOAD RETURNDATASIZE PUSH1 0x1F NOT PUSH1 0x1F DUP3 ADD AND DUP3 ADD DUP1 PUSH1 0x40 MSTORE POP DUP2 ADD SWAP1 PUSH2 0x1E45 SWAP2 SWAP1 PUSH2 0x3955 JUMP JUMPDEST DUP2 MSTORE PUSH1 0x20 ADD SWAP1 DUP2 MSTORE PUSH1 0x20 ADD PUSH1 0x0 KECCAK256 PUSH1 0x0 PUSH1 0xD DUP4 DUP2 SLOAD DUP2 LT PUSH2 0x1E68 JUMPI PUSH2 0x1E68 PUSH2 0x393F JUMP JUMPDEST PUSH1 0x0 SWAP2 DUP3 MSTORE PUSH1 0x20 DUP1 DUP4 KECCAK256 PUSH1 0x8 DUP4 DIV ADD SLOAD PUSH1 0x7 SWAP1 SWAP3 AND PUSH1 0x4 MUL PUSH2 0x100 EXP SWAP1 SWAP2 DIV PUSH1 0xE0 SHL PUSH1 0x1 PUSH1 0x1 PUSH1 0xE0 SHL SUB NOT AND DUP4 MSTORE DUP3 ADD SWAP3 SWAP1 SWAP3 MSTORE PUSH1 0x40 ADD SWAP1 KECCAK256 DUP1 SLOAD PUSH1 0xFF NOT AND SWAP1 SSTORE DUP1 PUSH2 0x1EB3 DUP2 PUSH2 0x39AA JUMP JUMPDEST SWAP2 POP POP PUSH2 0x1DD5 JUMP JUMPDEST POP PUSH1 0x40 MLOAD PUSH4 0x16F4B929 PUSH1 0xE2 SHL DUP2 MSTORE PUSH1 0xA PUSH1 0x4 DUP3 ADD MSTORE PUSH1 0x1 PUSH1 0x1 PUSH1 0xA0 SHL SUB DUP3 AND PUSH1 0x24 DUP3 ADD MSTORE PUSH20 0x0 SWAP1 PUSH4 0x5BD2E4A4 SWAP1 PUSH1 0x44 ADD PUSH1 0x20 PUSH1 0x40 MLOAD DUP1 DUP4 SUB DUP2 DUP7 GAS DELEGATECALL ISZERO DUP1 ISZERO PUSH2 0x1F1B JUMPI RETURNDATASIZE PUSH1 0x0 DUP1 RETURNDATACOPY RETURNDATASIZE PUSH1 0x0 REVERT JUMPDEST POP POP POP POP PUSH1 0x40 MLOAD RETURNDATASIZE PUSH1 0x1F NOT PUSH1 0x1F DUP3 ADD AND DUP3 ADD DUP1 PUSH1 0x40 MSTORE POP DUP2 ADD SWAP1 PUSH2 0x1F3F SWAP2 SWAP1 PUSH2 0x3922 JUMP JUMPDEST POP DUP1 PUSH1 0x9 PUSH1 0x0 DUP4 PUSH1 0x1 PUSH1 0x1 PUSH1 0xA0 SHL SUB AND PUSH4 0xAF640D0F PUSH1 0x40 MLOAD DUP2 PUSH4 0xFFFFFFFF AND PUSH1 0xE0 SHL DUP2 MSTORE PUSH1 0x4 ADD PUSH1 0x20 PUSH1 0x40 MLOAD DUP1 DUP4 SUB DUP2 DUP7 GAS STATICCALL ISZERO DUP1 ISZERO PUSH2 0x1F83 JUMPI RETURNDATASIZE PUSH1 0x0 DUP1 RETURNDATACOPY RETURNDATASIZE PUSH1 0x0 REVERT JUMPDEST POP POP POP POP PUSH1 0x40 MLOAD RETURNDATASIZE PUSH1 0x1F NOT PUSH1 0x1F DUP3 ADD AND DUP3 ADD DUP1 PUSH1 0x40 MSTORE POP DUP2 ADD SWAP1 PUSH2 0x1FA7 SWAP2 SWAP1 PUSH2 0x3955 JUMP JUMPDEST DUP2 MSTORE PUSH1 0x20 ADD SWAP1 DUP2 MSTORE PUSH1 0x20 ADD PUSH1 0x0 KECCAK256 PUSH1 0x0 PUSH2 0x100 EXP DUP2 SLOAD DUP2 PUSH1 0x1 PUSH1 0x1 PUSH1 0xA0 SHL SUB MUL NOT AND SWAP1 DUP4 PUSH1 0x1 PUSH1 0x1 PUSH1 0xA0 SHL SUB AND MUL OR SWAP1 SSTORE POP POP JUMP JUMPDEST PUSH1 0x4 SLOAD PUSH1 0x0 SWAP1 JUMPDEST DUP1 ISZERO PUSH2 0x2107 JUMPI PUSH1 0x1 PUSH1 0x1 PUSH1 0xA0 SHL SUB DUP5 AND PUSH1 0x4 PUSH2 0x2000 PUSH1 0x1 DUP5 PUSH2 0x3FFB JUMP JUMPDEST DUP2 SLOAD DUP2 LT PUSH2 0x2010 JUMPI PUSH2 0x2010 PUSH2 0x393F JUMP JUMPDEST PUSH1 0x0 SWAP2 DUP3 MSTORE PUSH1 0x20 SWAP1 SWAP2 KECCAK256 PUSH1 0x2 SWAP1 SWAP2 MUL ADD SLOAD PUSH1 0x1 PUSH1 0x1 PUSH1 0xA0 SHL SUB AND EQ DUP1 ISZERO PUSH2 0x2065 JUMPI POP PUSH1 0x4 PUSH2 0x203F PUSH1 0x1 DUP4 PUSH2 0x3FFB JUMP JUMPDEST DUP2 SLOAD DUP2 LT PUSH2 0x204F JUMPI PUSH2 0x204F PUSH2 0x393F JUMP JUMPDEST SWAP1 PUSH1 0x0 MSTORE PUSH1 0x20 PUSH1 0x0 KECCAK256 SWAP1 PUSH1 0x2 MUL ADD PUSH1 0x1 ADD SLOAD PUSH1 0x0 EQ JUMPDEST DUP1 PUSH2 0x20E6 JUMPI POP PUSH1 0x1 PUSH1 0x1 PUSH1 0xA0 SHL SUB DUP5 AND PUSH1 0x4 PUSH2 0x2082 PUSH1 0x1 DUP5 PUSH2 0x3FFB JUMP JUMPDEST DUP2 SLOAD DUP2 LT PUSH2 0x2092 JUMPI PUSH2 0x2092 PUSH2 0x393F JUMP JUMPDEST PUSH1 0x0 SWAP2 DUP3 MSTORE PUSH1 0x20 SWAP1 SWAP2 KECCAK256 PUSH1 0x2 SWAP1 SWAP2 MUL ADD SLOAD PUSH1 0x1 PUSH1 0x1 PUSH1 0xA0 SHL SUB AND EQ DUP1 ISZERO PUSH2 0x20E6 JUMPI POP DUP3 PUSH1 0x4 PUSH2 0x20C2 PUSH1 0x1 DUP5 PUSH2 0x3FFB JUMP JUMPDEST DUP2 SLOAD DUP2 LT PUSH2 0x20D2 JUMPI PUSH2 0x20D2 PUSH2 0x393F JUMP JUMPDEST SWAP1 PUSH1 0x0 MSTORE PUSH1 0x20 PUSH1 0x0 KECCAK256 SWAP1 PUSH1 0x2 MUL ADD PUSH1 0x1 ADD SLOAD EQ JUMPDEST ISZERO PUSH2 0x20F5 JUMPI PUSH1 0x1 SWAP2 POP POP PUSH2 0xCF2 JUMP JUMPDEST DUP1 PUSH2 0x20FF DUP2 PUSH2 0x4012 JUMP JUMPDEST SWAP2 POP POP PUSH2 0x1FE3 JUMP JUMPDEST POP PUSH1 0x0 SWAP4 SWAP3 POP POP POP JUMP JUMPDEST PUSH1 0x0 PUSH2 0x211B PUSH2 0x1698 JUMP JUMPDEST PUSH2 0x1046 DUP4 DUP4 PUSH2 0x32CE JUMP JUMPDEST PUSH1 0x0 PUSH2 0xCF2 DUP3 PUSH1 0x0 PUSH2 0xCF8 JUMP JUMPDEST PUSH1 0x0 PUSH2 0x213C PUSH2 0x1698 JUMP JUMPDEST PUSH2 0xCF2 DUP3 PUSH2 0x342A JUMP JUMPDEST PUSH2 0x214D PUSH2 0x1698 JUMP JUMPDEST PUSH1 0x40 MLOAD PUSH4 0x16F4B929 PUSH1 0xE2 SHL DUP2 MSTORE PUSH1 0xB PUSH1 0x4 DUP3 ADD MSTORE PUSH1 0x1 PUSH1 0x1 PUSH1 0xA0 SHL SUB DUP3 AND PUSH1 0x24 DUP3 ADD MSTORE PUSH20 0x0 SWAP1 PUSH4 0x5BD2E4A4 SWAP1 PUSH1 0x44 ADD JUMPDEST PUSH1 0x20 PUSH1 0x40 MLOAD DUP1 DUP4 SUB DUP2 DUP7 GAS DELEGATECALL ISZERO DUP1 ISZERO PUSH2 0x21AD JUMPI RETURNDATASIZE PUSH1 0x0 DUP1 RETURNDATACOPY RETURNDATASIZE PUSH1 0x0 REVERT JUMPDEST POP POP POP POP PUSH1 0x40 MLOAD RETURNDATASIZE PUSH1 0x1F NOT PUSH1 0x1F DUP3 ADD AND DUP3 ADD DUP1 PUSH1 0x40 MSTORE POP DUP2 ADD SWAP1 PUSH2 0x21D1 SWAP2 SWAP1 PUSH2 0x3922 JUMP JUMPDEST POP POP JUMP JUMPDEST PUSH1 0x60 PUSH1 0x0 DUP1 MLOAD PUSH1 0x20 PUSH2 0x4192 DUP4 CODECOPY DUP2 MLOAD SWAP2 MSTORE DUP3 EQ ISZERO PUSH2 0x21F8 JUMPI PUSH2 0xCF2 PUSH1 0x0 DUP1 PUSH2 0x104D JUMP JUMPDEST PUSH2 0x2201 DUP3 PUSH2 0xDC3 JUMP JUMPDEST PUSH2 0x2224 JUMPI PUSH1 0x40 MLOAD DUP1 PUSH1 0xA0 ADD PUSH1 0x40 MSTORE DUP1 PUSH1 0x6C DUP2 MSTORE PUSH1 0x20 ADD PUSH2 0x4126 PUSH1 0x6C SWAP2 CODECOPY SWAP3 SWAP2 POP POP JUMP JUMPDEST PUSH1 0x0 DUP1 PUSH2 0x2230 DUP5 PUSH2 0xDEC JUMP JUMPDEST SWAP2 POP SWAP2 POP PUSH2 0xDAE DUP3 DUP3 PUSH2 0x104D JUMP JUMPDEST PUSH1 0x0 DUP2 PUSH1 0x1 PUSH1 0x1 PUSH1 0x40 SHL SUB AND PUSH1 0xFF PUSH2 0x2255 DUP6 PUSH2 0xE47 JUMP JUMPDEST AND PUSH1 0x1 PUSH1 0x1 PUSH1 0x40 SHL SUB AND EQ SWAP1 POP SWAP3 SWAP2 POP POP JUMP JUMPDEST PUSH1 0x0 PUSH2 0x1046 DUP4 DUP4 PUSH2 0x34E8 JUMP JUMPDEST PUSH1 0x0 PUSH1 0x0 DUP1 MLOAD PUSH1 0x20 PUSH2 0x4192 DUP4 CODECOPY DUP2 MLOAD SWAP2 MSTORE DUP3 EQ ISZERO PUSH2 0x2297 JUMPI PUSH2 0xCF2 PUSH1 0x0 DUP1 PUSH2 0x269A JUMP JUMPDEST PUSH2 0x22A0 DUP3 PUSH2 0xDC3 JUMP JUMPDEST PUSH2 0x22AC JUMPI POP PUSH1 0x1 SWAP2 SWAP1 POP JUMP JUMPDEST PUSH1 0x0 DUP1 PUSH2 0x22B8 DUP5 PUSH2 0xDEC JUMP JUMPDEST SWAP2 POP SWAP2 POP PUSH2 0xDAE DUP3 DUP3 PUSH2 0x269A JUMP JUMPDEST PUSH1 0x60 PUSH2 0xCF2 DUP3 PUSH1 0x0 PUSH2 0x104D JUMP JUMPDEST PUSH1 0x6 SLOAD PUSH1 0x0 SWAP1 DUP2 JUMPDEST DUP2 DUP2 LT ISZERO PUSH2 0x23DA JUMPI DUP5 PUSH1 0x1 PUSH1 0x1 PUSH1 0xA0 SHL SUB AND PUSH1 0x6 DUP3 DUP2 SLOAD DUP2 LT PUSH2 0x2300 JUMPI PUSH2 0x2300 PUSH2 0x393F JUMP JUMPDEST PUSH1 0x0 SWAP2 DUP3 MSTORE PUSH1 0x20 SWAP1 SWAP2 KECCAK256 PUSH1 0x2 SWAP1 SWAP2 MUL ADD SLOAD PUSH1 0x1 PUSH1 0x1 PUSH1 0xA0 SHL SUB AND EQ DUP1 ISZERO PUSH2 0x234B JUMPI POP PUSH1 0x6 DUP2 DUP2 SLOAD DUP2 LT PUSH2 0x2335 JUMPI PUSH2 0x2335 PUSH2 0x393F JUMP JUMPDEST SWAP1 PUSH1 0x0 MSTORE PUSH1 0x20 PUSH1 0x0 KECCAK256 SWAP1 PUSH1 0x2 MUL ADD PUSH1 0x1 ADD SLOAD PUSH1 0x0 EQ JUMPDEST DUP1 PUSH2 0x23B8 JUMPI POP DUP5 PUSH1 0x1 PUSH1 0x1 PUSH1 0xA0 SHL SUB AND PUSH1 0x6 DUP3 DUP2 SLOAD DUP2 LT PUSH2 0x236E JUMPI PUSH2 0x236E PUSH2 0x393F JUMP JUMPDEST PUSH1 0x0 SWAP2 DUP3 MSTORE PUSH1 0x20 SWAP1 SWAP2 KECCAK256 PUSH1 0x2 SWAP1 SWAP2 MUL ADD SLOAD PUSH1 0x1 PUSH1 0x1 PUSH1 0xA0 SHL SUB AND EQ DUP1 ISZERO PUSH2 0x23B8 JUMPI POP DUP4 PUSH1 0x6 DUP3 DUP2 SLOAD DUP2 LT PUSH2 0x23A4 JUMPI PUSH2 0x23A4 PUSH2 0x393F JUMP JUMPDEST SWAP1 PUSH1 0x0 MSTORE PUSH1 0x20 PUSH1 0x0 KECCAK256 SWAP1 PUSH1 0x2 MUL ADD PUSH1 0x1 ADD SLOAD EQ JUMPDEST ISZERO PUSH2 0x23C8 JUMPI PUSH1 0x1 SWAP3 POP POP POP PUSH2 0xCF2 JUMP JUMPDEST DUP1 PUSH2 0x23D2 DUP2 PUSH2 0x39AA JUMP JUMPDEST SWAP2 POP POP PUSH2 0x22DB JUMP JUMPDEST POP PUSH1 0x0 SWAP5 SWAP4 POP POP POP POP JUMP JUMPDEST PUSH2 0x23ED PUSH2 0x1698 JUMP JUMPDEST PUSH1 0x40 MLOAD PUSH4 0xEDEFE12D PUSH1 0xE0 SHL DUP2 MSTORE PUSH1 0xB PUSH1 0x4 DUP3 ADD MSTORE PUSH1 0x1 PUSH1 0x1 PUSH1 0xA0 SHL SUB DUP3 AND PUSH1 0x24 DUP3 ADD MSTORE PUSH20 0x0 SWAP1 PUSH4 0xEDEFE12D SWAP1 PUSH1 0x44 ADD PUSH2 0x2190 JUMP JUMPDEST PUSH1 0x0 PUSH2 0x2441 DUP4 PUSH1 0x0 PUSH2 0x1FDC JUMP JUMPDEST ISZERO PUSH2 0x244E JUMPI POP PUSH1 0x1 PUSH2 0xCF2 JUMP JUMPDEST DUP2 ISZERO PUSH2 0x246B JUMPI PUSH2 0x245E DUP4 DUP4 PUSH2 0x1FDC JUMP JUMPDEST ISZERO PUSH2 0x246B JUMPI POP PUSH1 0x1 PUSH2 0xCF2 JUMP JUMPDEST PUSH1 0x0 DUP4 PUSH1 0x1 PUSH1 0x1 PUSH1 0xA0 SHL SUB AND PUSH4 0x373A7FB4 PUSH1 0x40 MLOAD DUP2 PUSH4 0xFFFFFFFF AND PUSH1 0xE0 SHL DUP2 MSTORE PUSH1 0x4 ADD PUSH1 0x20 PUSH1 0x40 MLOAD DUP1 DUP4 SUB DUP2 DUP7 GAS STATICCALL ISZERO DUP1 ISZERO PUSH2 0x24AB JUMPI RETURNDATASIZE PUSH1 0x0 DUP1 RETURNDATACOPY RETURNDATASIZE PUSH1 0x0 REVERT JUMPDEST POP POP POP POP PUSH1 0x40 MLOAD RETURNDATASIZE PUSH1 0x1F NOT PUSH1 0x1F DUP3 ADD AND DUP3 ADD DUP1 PUSH1 0x40 MSTORE POP DUP2 ADD SWAP1 PUSH2 0x24CF SWAP2 SWAP1 PUSH2 0x4029 JUMP JUMPDEST SWAP1 POP PUSH2 0x24DA DUP2 PUSH2 0x168D JUMP JUMPDEST PUSH2 0x24E8 JUMPI PUSH1 0x0 SWAP2 POP POP PUSH2 0xCF2 JUMP JUMPDEST PUSH1 0x40 MLOAD PUSH4 0x2B43F033 PUSH1 0xE2 SHL DUP2 MSTORE PUSH1 0x1 PUSH1 0x1 PUSH1 0xA0 SHL SUB DUP3 AND SWAP1 PUSH4 0xAD0FC0CC SWAP1 PUSH2 0x2516 SWAP1 DUP8 SWAP1 DUP8 SWAP1 PUSH1 0x4 ADD PUSH2 0x3A9E JUMP JUMPDEST PUSH1 0x20 PUSH1 0x40 MLOAD DUP1 DUP4 SUB DUP2 DUP7 GAS STATICCALL ISZERO DUP1 ISZERO PUSH2 0x2533 JUMPI RETURNDATASIZE PUSH1 0x0 DUP1 RETURNDATACOPY RETURNDATASIZE PUSH1 0x0 REVERT JUMPDEST POP POP POP POP PUSH1 0x40 MLOAD RETURNDATASIZE PUSH1 0x1F NOT PUSH1 0x1F DUP3 ADD AND DUP3 ADD DUP1 PUSH1 0x40 MSTORE POP DUP2 ADD SWAP1 PUSH2 0xDAE SWAP2 SWAP1 PUSH2 0x3922 JUMP JUMPDEST PUSH1 0x0 PUSH2 0x2563 DUP4 DUP4 PUSH2 0x22D3 JUMP JUMPDEST ISZERO PUSH2 0x2570 JUMPI POP PUSH1 0x0 PUSH2 0xCF2 JUMP JUMPDEST PUSH2 0x257A DUP4 DUP4 PUSH2 0x1FDC JUMP JUMPDEST ISZERO PUSH2 0x2587 JUMPI POP PUSH1 0x1 PUSH2 0xCF2 JUMP JUMPDEST PUSH1 0x7 SLOAD PUSH1 0xFF AND ISZERO SWAP4 SWAP3 POP POP POP JUMP JUMPDEST PUSH1 0x0 DUP1 PUSH2 0x25A1 DUP4 PUSH2 0x14BD JUMP JUMPDEST PUSH1 0x40 MLOAD PUSH4 0x9AC1B345 PUSH1 0xE0 SHL DUP2 MSTORE PUSH20 0x0 SWAP2 PUSH4 0x9AC1B345 SWAP2 PUSH2 0x25D7 SWAP2 SWAP1 PUSH1 0x4 ADD PUSH2 0x3C19 JUMP JUMPDEST PUSH1 0x40 DUP1 MLOAD DUP1 DUP4 SUB DUP2 DUP7 GAS DELEGATECALL ISZERO DUP1 ISZERO PUSH2 0x25F3 JUMPI RETURNDATASIZE PUSH1 0x0 DUP1 RETURNDATACOPY RETURNDATASIZE PUSH1 0x0 REVERT JUMPDEST POP POP POP POP PUSH1 0x40 MLOAD RETURNDATASIZE PUSH1 0x1F NOT PUSH1 0x1F DUP3 ADD AND DUP3 ADD DUP1 PUSH1 0x40 MSTORE POP DUP2 ADD SWAP1 PUSH2 0xE3E SWAP2 SWAP1 PUSH2 0x4046 JUMP JUMPDEST PUSH1 0x40 MLOAD PUSH4 0x2431A7CF PUSH1 0xE0 SHL DUP2 MSTORE PUSH1 0x0 SWAP1 PUSH2 0xCF2 SWAP1 PUSH20 0x0 SWAP1 PUSH4 0x2431A7CF SWAP1 PUSH2 0x2655 SWAP1 DUP7 SWAP1 PUSH1 0x4 ADD PUSH2 0x3C19 JUMP JUMPDEST PUSH1 0x0 PUSH1 0x40 MLOAD DUP1 DUP4 SUB DUP2 DUP7 GAS DELEGATECALL ISZERO DUP1 ISZERO PUSH2 0x2672 JUMPI RETURNDATASIZE PUSH1 0x0 DUP1 RETURNDATACOPY RETURNDATASIZE PUSH1 0x0 REVERT JUMPDEST POP POP POP POP PUSH1 0x40 MLOAD RETURNDATASIZE PUSH1 0x0 DUP3 RETURNDATACOPY PUSH1 0x1F RETURNDATASIZE SWAP1 DUP2 ADD PUSH1 0x1F NOT AND DUP3 ADD PUSH1 0x40 MSTORE PUSH2 0x812 SWAP2 SWAP1 DUP2 ADD SWAP1 PUSH2 0x406B JUMP JUMPDEST PUSH1 0x0 PUSH2 0x1046 DUP4 DUP4 PUSH2 0x3526 JUMP JUMPDEST PUSH1 0x40 DUP1 MLOAD PUSH1 0x60 DUP2 ADD DUP3 MSTORE PUSH1 0x0 DUP1 DUP3 MSTORE PUSH1 0x20 DUP3 ADD DUP2 SWAP1 MSTORE SWAP2 DUP2 ADD SWAP2 SWAP1 SWAP2 MSTORE PUSH1 0x1 PUSH1 0x1 PUSH1 0xA0 SHL SUB DUP4 AND PUSH2 0x26F6 JUMPI POP PUSH1 0x40 DUP1 MLOAD PUSH1 0x60 DUP2 ADD DUP3 MSTORE PUSH1 0x11 NOT DUP2 MSTORE PUSH1 0x0 PUSH1 0x20 DUP3 ADD MSTORE PUSH1 0x1 SWAP2 DUP2 ADD SWAP2 SWAP1 SWAP2 MSTORE PUSH2 0xCF2 JUMP JUMPDEST PUSH1 0x3 PUSH1 0x0 PUSH20 0x0 PUSH4 0xD5F0B04D DUP7 PUSH1 0x0 PUSH1 0x40 MLOAD DUP4 PUSH4 0xFFFFFFFF AND PUSH1 0xE0 SHL DUP2 MSTORE PUSH1 0x4 ADD PUSH2 0x2734 SWAP3 SWAP2 SWAP1 PUSH2 0x3A9E JUMP JUMPDEST PUSH1 0x20 PUSH1 0x40 MLOAD DUP1 DUP4 SUB DUP2 DUP7 GAS DELEGATECALL ISZERO DUP1 ISZERO PUSH2 0x2751 JUMPI RETURNDATASIZE PUSH1 0x0 DUP1 RETURNDATACOPY RETURNDATASIZE PUSH1 0x0 REVERT JUMPDEST POP POP POP POP PUSH1 0x40 MLOAD RETURNDATASIZE PUSH1 0x1F NOT PUSH1 0x1F DUP3 ADD AND DUP3 ADD DUP1 PUSH1 0x40 MSTORE POP DUP2 ADD SWAP1 PUSH2 0x2775 SWAP2 SWAP1 PUSH2 0x3955 JUMP JUMPDEST DUP2 MSTORE PUSH1 0x20 DUP1 DUP3 ADD SWAP3 SWAP1 SWAP3 MSTORE PUSH1 0x40 SWAP1 DUP2 ADD PUSH1 0x0 SWAP1 DUP2 KECCAK256 DUP3 MLOAD PUSH1 0x60 DUP2 ADD DUP5 MSTORE SWAP1 SLOAD SWAP2 DUP3 SWAP1 SIGNEXTEND DUP2 MSTORE PUSH2 0x100 DUP1 DUP4 DIV PUSH1 0xFF AND ISZERO ISZERO SWAP5 DUP3 ADD SWAP5 SWAP1 SWAP5 MSTORE PUSH3 0x10000 SWAP1 SWAP2 DIV PUSH1 0x1 PUSH1 0x1 PUSH1 0x40 SHL SUB DUP2 AND SWAP3 DUP3 ADD SWAP3 SWAP1 SWAP3 MSTORE SWAP3 POP AND PUSH2 0x27D0 JUMPI PUSH2 0xCF2 JUMP JUMPDEST PUSH1 0x3 PUSH1 0x0 PUSH20 0x0 PUSH4 0xD5F0B04D DUP7 DUP7 PUSH1 0x40 MLOAD DUP4 PUSH4 0xFFFFFFFF AND PUSH1 0xE0 SHL DUP2 MSTORE PUSH1 0x4 ADD PUSH2 0x280D SWAP3 SWAP2 SWAP1 PUSH2 0x3A9E JUMP JUMPDEST PUSH1 0x20 PUSH1 0x40 MLOAD DUP1 DUP4 SUB DUP2 DUP7 GAS DELEGATECALL ISZERO DUP1 ISZERO PUSH2 0x282A JUMPI RETURNDATASIZE PUSH1 0x0 DUP1 RETURNDATACOPY RETURNDATASIZE PUSH1 0x0 REVERT JUMPDEST POP POP POP POP PUSH1 0x40 MLOAD RETURNDATASIZE PUSH1 0x1F NOT PUSH1 0x1F DUP3 ADD AND DUP3 ADD DUP1 PUSH1 0x40 MSTORE POP DUP2 ADD SWAP1 PUSH2 0x284E SWAP2 SWAP1 PUSH2 0x3955 JUMP JUMPDEST DUP2 MSTORE PUSH1 0x20 DUP1 DUP3 ADD SWAP3 SWAP1 SWAP3 MSTORE PUSH1 0x40 SWAP1 DUP2 ADD PUSH1 0x0 SWAP1 DUP2 KECCAK256 DUP3 MLOAD PUSH1 0x60 DUP2 ADD DUP5 MSTORE SWAP1 SLOAD SWAP2 DUP3 SWAP1 SIGNEXTEND DUP2 MSTORE PUSH2 0x100 DUP3 DIV PUSH1 0xFF AND ISZERO ISZERO SWAP4 DUP2 ADD SWAP4 SWAP1 SWAP4 MSTORE PUSH3 0x10000 SWAP1 DIV PUSH1 0x1 PUSH1 0x1 PUSH1 0x40 SHL SUB AND SWAP1 DUP3 ADD MSTORE SWAP4 SWAP3 POP POP POP JUMP JUMPDEST PUSH1 0x0 PUSH2 0x28AC DUP4 PUSH2 0x200 PUSH2 0x2942 JUMP JUMPDEST PUSH2 0x28B8 JUMPI POP PUSH1 0x0 PUSH2 0xCF2 JUMP JUMPDEST PUSH2 0x28C1 DUP4 PUSH2 0xFDA JUMP JUMPDEST PUSH1 0x40 MLOAD PUSH4 0x1FFC9A7 PUSH1 0xE0 SHL DUP2 MSTORE PUSH1 0x1 PUSH1 0x1 PUSH1 0xE0 SHL SUB NOT DUP5 AND PUSH1 0x4 DUP3 ADD MSTORE PUSH1 0x1 PUSH1 0x1 PUSH1 0xA0 SHL SUB SWAP2 SWAP1 SWAP2 AND SWAP1 PUSH4 0x1FFC9A7 SWAP1 PUSH1 0x24 ADD PUSH1 0x20 PUSH1 0x40 MLOAD DUP1 DUP4 SUB DUP2 DUP7 GAS STATICCALL ISZERO DUP1 ISZERO PUSH2 0x2911 JUMPI RETURNDATASIZE PUSH1 0x0 DUP1 RETURNDATACOPY RETURNDATASIZE PUSH1 0x0 REVERT JUMPDEST POP POP POP POP PUSH1 0x40 MLOAD RETURNDATASIZE PUSH1 0x1F NOT PUSH1 0x1F DUP3 ADD AND DUP3 ADD DUP1 PUSH1 0x40 MSTORE POP DUP2 ADD SWAP1 PUSH2 0x1046 SWAP2 SWAP1 PUSH2 0x3922 JUMP JUMPDEST PUSH1 0x0 PUSH2 0xCF2 DUP3 PUSH1 0x0 PUSH2 0x15C6 JUMP JUMPDEST PUSH1 0x0 DUP2 PUSH2 0x294E DUP5 PUSH2 0xE47 JUMP JUMPDEST AND PUSH1 0x1 PUSH1 0x1 PUSH1 0x40 SHL SUB AND ISZERO ISZERO SWAP4 SWAP3 POP POP POP JUMP JUMPDEST PUSH1 0x0 PUSH1 0x1 PUSH1 0x1 PUSH1 0xA0 SHL SUB DUP4 AND ISZERO DUP1 ISZERO PUSH2 0x2978 JUMPI POP DUP2 ISZERO JUMPDEST ISZERO PUSH2 0x2992 JUMPI POP PUSH1 0x0 DUP1 MLOAD PUSH1 0x20 PUSH2 0x4192 DUP4 CODECOPY DUP2 MLOAD SWAP2 MSTORE PUSH2 0xCF2 JUMP JUMPDEST PUSH1 0x40 MLOAD PUSH4 0xD5F0B04D PUSH1 0xE0 SHL DUP2 MSTORE PUSH20 0x0 SWAP1 PUSH4 0xD5F0B04D SWAP1 PUSH2 0x29CB SWAP1 DUP7 SWAP1 DUP7 SWAP1 PUSH1 0x4 ADD PUSH2 0x3A9E JUMP JUMPDEST PUSH1 0x20 PUSH1 0x40 MLOAD DUP1 DUP4 SUB DUP2 DUP7 GAS DELEGATECALL ISZERO DUP1 ISZERO PUSH2 0x29E8 JUMPI RETURNDATASIZE PUSH1 0x0 DUP1 RETURNDATACOPY RETURNDATASIZE PUSH1 0x0 REVERT JUMPDEST POP POP POP POP PUSH1 0x40 MLOAD RETURNDATASIZE PUSH1 0x1F NOT PUSH1 0x1F DUP3 ADD AND DUP3 ADD DUP1 PUSH1 0x40 MSTORE POP DUP2 ADD SWAP1 PUSH2 0x1046 SWAP2 SWAP1 PUSH2 0x3955 JUMP JUMPDEST PUSH1 0x0 PUSH1 0x0 DUP1 MLOAD PUSH1 0x20 PUSH2 0x4192 DUP4 CODECOPY DUP2 MLOAD SWAP2 MSTORE DUP3 EQ ISZERO PUSH2 0x2A2F JUMPI PUSH2 0xCF2 PUSH1 0x0 DUP1 PUSH2 0x15C6 JUMP JUMPDEST PUSH2 0x2A38 DUP3 PUSH2 0xDC3 JUMP JUMPDEST PUSH2 0x2A44 JUMPI POP PUSH1 0x0 SWAP2 SWAP1 POP JUMP JUMPDEST PUSH1 0x0 DUP1 PUSH2 0x2A50 DUP5 PUSH2 0xDEC JUMP JUMPDEST SWAP2 POP SWAP2 POP PUSH2 0xDAE DUP3 DUP3 PUSH2 0x15C6 JUMP JUMPDEST PUSH1 0x0 PUSH2 0x2A68 PUSH2 0x1698 JUMP JUMPDEST PUSH2 0xCF2 DUP3 PUSH2 0x357E JUMP JUMPDEST PUSH1 0x0 PUSH2 0x2A7B PUSH2 0x1698 JUMP JUMPDEST PUSH2 0xCF2 DUP3 PUSH2 0x35B0 JUMP JUMPDEST PUSH1 0x0 DUP1 PUSH2 0xE3E DUP4 PUSH2 0x36D1 JUMP JUMPDEST PUSH1 0x0 PUSH2 0x2A9A PUSH2 0x1698 JUMP JUMPDEST PUSH2 0x1046 DUP4 DUP4 PUSH2 0x3753 JUMP JUMPDEST PUSH2 0x2AAC PUSH2 0x3224 JUMP JUMPDEST PUSH1 0x1 PUSH1 0x1 PUSH1 0xA0 SHL SUB DUP2 AND PUSH2 0x2B11 JUMPI PUSH1 0x40 MLOAD PUSH3 0x461BCD PUSH1 0xE5 SHL DUP2 MSTORE PUSH1 0x20 PUSH1 0x4 DUP3 ADD MSTORE PUSH1 0x26 PUSH1 0x24 DUP3 ADD MSTORE PUSH32 0x4F776E61626C653A206E6577206F776E657220697320746865207A65726F2061 PUSH1 0x44 DUP3 ADD MSTORE PUSH6 0x646472657373 PUSH1 0xD0 SHL PUSH1 0x64 DUP3 ADD MSTORE PUSH1 0x84 ADD PUSH2 0xCA7 JUMP JUMPDEST PUSH2 0x2B1A DUP2 PUSH2 0x327E JUMP JUMPDEST POP JUMP JUMPDEST PUSH1 0x40 DUP1 MLOAD PUSH1 0x60 DUP2 ADD DUP3 MSTORE PUSH1 0x0 DUP1 DUP3 MSTORE PUSH1 0x20 DUP3 ADD DUP2 SWAP1 MSTORE SWAP2 DUP2 ADD SWAP2 SWAP1 SWAP2 MSTORE PUSH2 0xCF2 DUP3 PUSH1 0x0 PUSH2 0x26A6 JUMP JUMPDEST PUSH1 0x0 PUSH1 0x1 PUSH1 0x1 PUSH1 0xE0 SHL SUB NOT DUP3 AND PUSH4 0x1FFC9A7 PUSH1 0xE0 SHL EQ DUP1 PUSH2 0xCF2 JUMPI POP PUSH1 0x1 PUSH1 0x1 PUSH1 0xE0 SHL SUB NOT DUP3 AND PUSH4 0x2B43F033 PUSH1 0xE2 SHL EQ SWAP3 SWAP2 POP POP JUMP JUMPDEST PUSH1 0x6 SLOAD PUSH1 0x0 SWAP1 DUP2 JUMPDEST DUP2 DUP2 LT ISZERO PUSH2 0x2C15 JUMPI DUP5 PUSH1 0x1 PUSH1 0x1 PUSH1 0xA0 SHL SUB AND PUSH1 0x6 DUP3 DUP2 SLOAD DUP2 LT PUSH2 0x2BA8 JUMPI PUSH2 0x2BA8 PUSH2 0x393F JUMP JUMPDEST PUSH1 0x0 SWAP2 DUP3 MSTORE PUSH1 0x20 SWAP1 SWAP2 KECCAK256 PUSH1 0x2 SWAP1 SWAP2 MUL ADD SLOAD PUSH1 0x1 PUSH1 0x1 PUSH1 0xA0 SHL SUB AND EQ DUP1 ISZERO PUSH2 0x2BF3 JUMPI POP PUSH1 0x6 DUP2 DUP2 SLOAD DUP2 LT PUSH2 0x2BDD JUMPI PUSH2 0x2BDD PUSH2 0x393F JUMP JUMPDEST SWAP1 PUSH1 0x0 MSTORE PUSH1 0x20 PUSH1 0x0 KECCAK256 SWAP1 PUSH1 0x2 MUL ADD PUSH1 0x1 ADD SLOAD PUSH1 0x0 EQ JUMPDEST ISZERO PUSH2 0x2C03 JUMPI PUSH1 0x0 SWAP3 POP POP POP PUSH2 0xCF2 JUMP JUMPDEST DUP1 PUSH2 0x2C0D DUP2 PUSH2 0x39AA JUMP JUMPDEST SWAP2 POP POP PUSH2 0x2B83 JUMP JUMPDEST POP DUP3 PUSH2 0x2CD5 JUMPI PUSH1 0x0 NOT DUP2 ADD JUMPDEST DUP2 DUP2 LT ISZERO PUSH2 0x2CCF JUMPI DUP5 PUSH1 0x1 PUSH1 0x1 PUSH1 0xA0 SHL SUB AND PUSH1 0x6 DUP3 DUP2 SLOAD DUP2 LT PUSH2 0x2C46 JUMPI PUSH2 0x2C46 PUSH2 0x393F JUMP JUMPDEST PUSH1 0x0 SWAP2 DUP3 MSTORE PUSH1 0x20 SWAP1 SWAP2 KECCAK256 PUSH1 0x2 SWAP1 SWAP2 MUL ADD SLOAD PUSH1 0x1 PUSH1 0x1 PUSH1 0xA0 SHL SUB AND EQ ISZERO PUSH2 0x2CC6 JUMPI PUSH2 0x2CC4 PUSH1 0x6 DUP3 DUP2 SLOAD DUP2 LT PUSH2 0x2C7C JUMPI PUSH2 0x2C7C PUSH2 0x393F JUMP JUMPDEST PUSH1 0x0 SWAP2 DUP3 MSTORE PUSH1 0x20 SWAP1 SWAP2 KECCAK256 PUSH1 0x2 SWAP1 SWAP2 MUL ADD SLOAD PUSH1 0x6 DUP1 SLOAD PUSH1 0x1 PUSH1 0x1 PUSH1 0xA0 SHL SUB SWAP1 SWAP3 AND SWAP2 DUP5 SWAP1 DUP2 LT PUSH2 0x2CAD JUMPI PUSH2 0x2CAD PUSH2 0x393F JUMP JUMPDEST SWAP1 PUSH1 0x0 MSTORE PUSH1 0x20 PUSH1 0x0 KECCAK256 SWAP1 PUSH1 0x2 MUL ADD PUSH1 0x1 ADD SLOAD PUSH2 0x3753 JUMP JUMPDEST POP JUMPDEST PUSH1 0x0 NOT ADD PUSH2 0x2C21 JUMP JUMPDEST POP PUSH2 0x2D6B JUMP JUMPDEST PUSH1 0x0 JUMPDEST DUP2 DUP2 LT ISZERO PUSH2 0x2D69 JUMPI DUP5 PUSH1 0x1 PUSH1 0x1 PUSH1 0xA0 SHL SUB AND PUSH1 0x6 DUP3 DUP2 SLOAD DUP2 LT PUSH2 0x2CFD JUMPI PUSH2 0x2CFD PUSH2 0x393F JUMP JUMPDEST PUSH1 0x0 SWAP2 DUP3 MSTORE PUSH1 0x20 SWAP1 SWAP2 KECCAK256 PUSH1 0x2 SWAP1 SWAP2 MUL ADD SLOAD PUSH1 0x1 PUSH1 0x1 PUSH1 0xA0 SHL SUB AND EQ DUP1 ISZERO PUSH2 0x2D47 JUMPI POP DUP4 PUSH1 0x6 DUP3 DUP2 SLOAD DUP2 LT PUSH2 0x2D33 JUMPI PUSH2 0x2D33 PUSH2 0x393F JUMP JUMPDEST SWAP1 PUSH1 0x0 MSTORE PUSH1 0x20 PUSH1 0x0 KECCAK256 SWAP1 PUSH1 0x2 MUL ADD PUSH1 0x1 ADD SLOAD EQ JUMPDEST ISZERO PUSH2 0x2D57 JUMPI PUSH1 0x0 SWAP3 POP POP POP PUSH2 0xCF2 JUMP JUMPDEST DUP1 PUSH2 0x2D61 DUP2 PUSH2 0x39AA JUMP JUMPDEST SWAP2 POP POP PUSH2 0x2CD8 JUMP JUMPDEST POP JUMPDEST PUSH1 0x40 DUP1 MLOAD DUP1 DUP3 ADD SWAP1 SWAP2 MSTORE PUSH1 0x1 PUSH1 0x1 PUSH1 0xA0 SHL SUB DUP6 DUP2 AND DUP3 MSTORE PUSH1 0x20 DUP3 ADD DUP6 DUP2 MSTORE PUSH1 0x6 DUP1 SLOAD PUSH1 0x1 DUP2 ADD DUP3 SSTORE PUSH1 0x0 SWAP2 SWAP1 SWAP2 MSTORE SWAP3 MLOAD PUSH32 0xF652222313E28459528D920B65115C16C04F3EFC82AAEDC97BE59F3F377C0D3F PUSH1 0x2 SWAP1 SWAP5 MUL SWAP4 DUP5 ADD DUP1 SLOAD PUSH1 0x1 PUSH1 0x1 PUSH1 0xA0 SHL SUB NOT AND SWAP2 SWAP1 SWAP4 AND OR SWAP1 SWAP2 SSTORE MLOAD PUSH32 0xF652222313E28459528D920B65115C16C04F3EFC82AAEDC97BE59F3F377C0D40 SWAP1 SWAP2 ADD SSTORE POP PUSH1 0x1 SWAP4 SWAP3 POP POP POP JUMP JUMPDEST PUSH1 0x0 DUP2 MLOAD DUP4 MLOAD EQ PUSH2 0x2E1B JUMPI POP PUSH1 0x0 PUSH2 0xCF2 JUMP JUMPDEST PUSH1 0x0 JUMPDEST DUP4 MLOAD DUP2 LT ISZERO PUSH2 0x2E90 JUMPI DUP3 DUP2 DUP2 MLOAD DUP2 LT PUSH2 0x2E39 JUMPI PUSH2 0x2E39 PUSH2 0x393F JUMP JUMPDEST PUSH1 0x20 ADD ADD MLOAD PUSH1 0xF8 SHR PUSH1 0xF8 SHL PUSH1 0x1 PUSH1 0x1 PUSH1 0xF8 SHL SUB NOT AND DUP5 DUP3 DUP2 MLOAD DUP2 LT PUSH2 0x2E60 JUMPI PUSH2 0x2E60 PUSH2 0x393F JUMP JUMPDEST ADD PUSH1 0x20 ADD MLOAD PUSH1 0x1 PUSH1 0x1 PUSH1 0xF8 SHL SUB NOT AND EQ PUSH2 0x2E7E JUMPI PUSH1 0x0 SWAP2 POP POP PUSH2 0xCF2 JUMP JUMPDEST DUP1 PUSH2 0x2E88 DUP2 PUSH2 0x39AA JUMP JUMPDEST SWAP2 POP POP PUSH2 0x2E1E JUMP JUMPDEST POP PUSH1 0x1 SWAP4 SWAP3 POP POP POP JUMP JUMPDEST PUSH1 0x0 DUP2 DUP2 MSTORE PUSH1 0x8 PUSH1 0x20 MSTORE PUSH1 0x40 DUP2 KECCAK256 DUP1 SLOAD PUSH2 0x2EB3 SWAP1 PUSH2 0x3E1C JUMP JUMPDEST ISZERO ISZERO SWAP4 SWAP3 POP POP POP JUMP JUMPDEST PUSH1 0x0 PUSH1 0x1 PUSH1 0x1 PUSH1 0xA0 SHL SUB DUP3 AND ADDRESS EQ ISZERO PUSH2 0x2ED7 JUMPI POP PUSH1 0x1 SWAP2 SWAP1 POP JUMP JUMPDEST PUSH1 0x5 SLOAD JUMPDEST DUP1 ISZERO PUSH2 0x2F3E JUMPI PUSH1 0x1 PUSH1 0x1 PUSH1 0xA0 SHL SUB DUP4 AND PUSH1 0x5 PUSH2 0x2EF8 PUSH1 0x1 DUP5 PUSH2 0x3FFB JUMP JUMPDEST DUP2 SLOAD DUP2 LT PUSH2 0x2F08 JUMPI PUSH2 0x2F08 PUSH2 0x393F JUMP JUMPDEST PUSH1 0x0 SWAP2 DUP3 MSTORE PUSH1 0x20 SWAP1 SWAP2 KECCAK256 ADD SLOAD PUSH1 0x1 PUSH1 0x1 PUSH1 0xA0 SHL SUB AND EQ ISZERO PUSH2 0x2F2C JUMPI POP PUSH1 0x1 SWAP3 SWAP2 POP POP JUMP JUMPDEST DUP1 PUSH2 0x2F36 DUP2 PUSH2 0x4012 JUMP JUMPDEST SWAP2 POP POP PUSH2 0x2EDB JUMP JUMPDEST POP PUSH1 0x0 SWAP3 SWAP2 POP POP JUMP JUMPDEST PUSH1 0x4 SLOAD PUSH1 0x0 SWAP1 JUMPDEST DUP1 ISZERO PUSH2 0x2FF1 JUMPI PUSH1 0x1 PUSH1 0x1 PUSH1 0xA0 SHL SUB DUP5 AND PUSH1 0x4 PUSH2 0x2F6B PUSH1 0x1 DUP5 PUSH2 0x3FFB JUMP JUMPDEST DUP2 SLOAD DUP2 LT PUSH2 0x2F7B JUMPI PUSH2 0x2F7B PUSH2 0x393F JUMP JUMPDEST PUSH1 0x0 SWAP2 DUP3 MSTORE PUSH1 0x20 SWAP1 SWAP2 KECCAK256 PUSH1 0x2 SWAP1 SWAP2 MUL ADD SLOAD PUSH1 0x1 PUSH1 0x1 PUSH1 0xA0 SHL SUB AND EQ DUP1 ISZERO PUSH2 0x2FD0 JUMPI POP PUSH1 0x4 PUSH2 0x2FAA PUSH1 0x1 DUP4 PUSH2 0x3FFB JUMP JUMPDEST DUP2 SLOAD DUP2 LT PUSH2 0x2FBA JUMPI PUSH2 0x2FBA PUSH2 0x393F JUMP JUMPDEST SWAP1 PUSH1 0x0 MSTORE PUSH1 0x20 PUSH1 0x0 KECCAK256 SWAP1 PUSH1 0x2 MUL ADD PUSH1 0x1 ADD SLOAD PUSH1 0x0 EQ JUMPDEST ISZERO PUSH2 0x2FDF JUMPI PUSH1 0x0 SWAP2 POP POP PUSH2 0xCF2 JUMP JUMPDEST DUP1 PUSH2 0x2FE9 DUP2 PUSH2 0x4012 JUMP JUMPDEST SWAP2 POP POP PUSH2 0x2F4E JUMP JUMPDEST POP DUP2 PUSH2 0x30E0 JUMPI JUMPDEST PUSH1 0x4 SLOAD JUMPDEST DUP1 ISZERO PUSH2 0x30CF JUMPI PUSH1 0x1 PUSH1 0x1 PUSH1 0xA0 SHL SUB DUP5 AND PUSH1 0x4 PUSH2 0x3019 PUSH1 0x1 DUP5 PUSH2 0x3FFB JUMP JUMPDEST DUP2 SLOAD DUP2 LT PUSH2 0x3029 JUMPI PUSH2 0x3029 PUSH2 0x393F JUMP JUMPDEST PUSH1 0x0 SWAP2 DUP3 MSTORE PUSH1 0x20 SWAP1 SWAP2 KECCAK256 PUSH1 0x2 SWAP1 SWAP2 MUL ADD SLOAD PUSH1 0x1 PUSH1 0x1 PUSH1 0xA0 SHL SUB AND EQ ISZERO PUSH2 0x30BD JUMPI PUSH2 0x30B7 PUSH1 0x4 PUSH2 0x3059 PUSH1 0x1 DUP5 PUSH2 0x3FFB JUMP JUMPDEST DUP2 SLOAD DUP2 LT PUSH2 0x3069 JUMPI PUSH2 0x3069 PUSH2 0x393F JUMP JUMPDEST PUSH1 0x0 SWAP2 DUP3 MSTORE PUSH1 0x20 SWAP1 SWAP2 KECCAK256 PUSH1 0x2 SWAP1 SWAP2 MUL ADD SLOAD PUSH1 0x1 PUSH1 0x1 PUSH1 0xA0 SHL SUB AND PUSH1 0x4 PUSH2 0x3090 PUSH1 0x1 DUP6 PUSH2 0x3FFB JUMP JUMPDEST DUP2 SLOAD DUP2 LT PUSH2 0x30A0 JUMPI PUSH2 0x30A0 PUSH2 0x393F JUMP JUMPDEST SWAP1 PUSH1 0x0 MSTORE PUSH1 0x20 PUSH1 0x0 KECCAK256 SWAP1 PUSH1 0x2 MUL ADD PUSH1 0x1 ADD SLOAD PUSH2 0x32CE JUMP JUMPDEST POP PUSH2 0x30CF JUMP JUMPDEST DUP1 PUSH2 0x30C7 DUP2 PUSH2 0x4012 JUMP JUMPDEST SWAP2 POP POP PUSH2 0x2FFC JUMP JUMPDEST DUP1 PUSH2 0x30DA JUMPI POP PUSH2 0x3188 JUMP JUMPDEST POP PUSH2 0x2FF8 JUMP JUMPDEST PUSH1 0x4 SLOAD JUMPDEST DUP1 ISZERO PUSH2 0x3186 JUMPI PUSH1 0x1 PUSH1 0x1 PUSH1 0xA0 SHL SUB DUP5 AND PUSH1 0x4 PUSH2 0x3101 PUSH1 0x1 DUP5 PUSH2 0x3FFB JUMP JUMPDEST DUP2 SLOAD DUP2 LT PUSH2 0x3111 JUMPI PUSH2 0x3111 PUSH2 0x393F JUMP JUMPDEST PUSH1 0x0 SWAP2 DUP3 MSTORE PUSH1 0x20 SWAP1 SWAP2 KECCAK256 PUSH1 0x2 SWAP1 SWAP2 MUL ADD SLOAD PUSH1 0x1 PUSH1 0x1 PUSH1 0xA0 SHL SUB AND EQ DUP1 ISZERO PUSH2 0x3165 JUMPI POP DUP3 PUSH1 0x4 PUSH2 0x3141 PUSH1 0x1 DUP5 PUSH2 0x3FFB JUMP JUMPDEST DUP2 SLOAD DUP2 LT PUSH2 0x3151 JUMPI PUSH2 0x3151 PUSH2 0x393F JUMP JUMPDEST SWAP1 PUSH1 0x0 MSTORE PUSH1 0x20 PUSH1 0x0 KECCAK256 SWAP1 PUSH1 0x2 MUL ADD PUSH1 0x1 ADD SLOAD EQ JUMPDEST ISZERO PUSH2 0x3174 JUMPI PUSH1 0x0 SWAP2 POP POP PUSH2 0xCF2 JUMP JUMPDEST DUP1 PUSH2 0x317E DUP2 PUSH2 0x4012 JUMP JUMPDEST SWAP2 POP POP PUSH2 0x30E4 JUMP JUMPDEST POP JUMPDEST PUSH1 0x40 DUP1 MLOAD DUP1 DUP3 ADD SWAP1 SWAP2 MSTORE PUSH1 0x1 PUSH1 0x1 PUSH1 0xA0 SHL SUB DUP5 DUP2 AND DUP3 MSTORE PUSH1 0x20 DUP3 ADD DUP5 DUP2 MSTORE PUSH1 0x4 DUP1 SLOAD PUSH1 0x1 DUP2 ADD DUP3 SSTORE PUSH1 0x0 SWAP2 SWAP1 SWAP2 MSTORE SWAP3 MLOAD PUSH32 0x8A35ACFBC15FF81A39AE7D344FD709F28E8600B4AA8C65C6B64BFE7FE36BD19B PUSH1 0x2 SWAP1 SWAP5 MUL SWAP4 DUP5 ADD DUP1 SLOAD PUSH1 0x1 PUSH1 0x1 PUSH1 0xA0 SHL SUB NOT AND SWAP2 SWAP1 SWAP4 AND OR SWAP1 SWAP2 SSTORE MLOAD PUSH32 0x8A35ACFBC15FF81A39AE7D344FD709F28E8600B4AA8C65C6B64BFE7FE36BD19C SWAP1 SWAP2 ADD SSTORE POP PUSH1 0x1 SWAP3 SWAP2 POP POP JUMP JUMPDEST PUSH1 0x0 SLOAD PUSH1 0x1 PUSH1 0x1 PUSH1 0xA0 SHL SUB AND CALLER EQ PUSH2 0xCB0 JUMPI PUSH1 0x40 MLOAD PUSH3 0x461BCD PUSH1 0xE5 SHL DUP2 MSTORE PUSH1 0x20 PUSH1 0x4 DUP3 ADD MSTORE PUSH1 0x1F PUSH1 0x24 DUP3 ADD MSTORE PUSH32 0x416C6C6F77616E63653A2063616C6C6572206D757374206265204F776E657200 PUSH1 0x44 DUP3 ADD MSTORE PUSH1 0x64 ADD PUSH2 0xCA7 JUMP JUMPDEST PUSH1 0x0 DUP1 SLOAD PUSH1 0x1 PUSH1 0x1 PUSH1 0xA0 SHL SUB DUP4 DUP2 AND PUSH1 0x1 PUSH1 0x1 PUSH1 0xA0 SHL SUB NOT DUP4 AND DUP2 OR DUP5 SSTORE PUSH1 0x40 MLOAD SWAP2 SWAP1 SWAP3 AND SWAP3 DUP4 SWAP2 PUSH32 0x8BE0079C531659141344CD1FD0A4F28419497F9722A3DAAFE3B4186F6B6457E0 SWAP2 SWAP1 LOG3 POP POP JUMP JUMPDEST PUSH1 0x4 SLOAD PUSH1 0x0 SWAP1 DUP2 JUMPDEST DUP2 DUP2 LT ISZERO PUSH2 0x23DA JUMPI DUP5 PUSH1 0x1 PUSH1 0x1 PUSH1 0xA0 SHL SUB AND PUSH1 0x4 DUP3 DUP2 SLOAD DUP2 LT PUSH2 0x32FB JUMPI PUSH2 0x32FB PUSH2 0x393F JUMP JUMPDEST PUSH1 0x0 SWAP2 DUP3 MSTORE PUSH1 0x20 SWAP1 SWAP2 KECCAK256 PUSH1 0x2 SWAP1 SWAP2 MUL ADD SLOAD PUSH1 0x1 PUSH1 0x1 PUSH1 0xA0 SHL SUB AND EQ DUP1 ISZERO PUSH2 0x3345 JUMPI POP DUP4 PUSH1 0x4 DUP3 DUP2 SLOAD DUP2 LT PUSH2 0x3331 JUMPI PUSH2 0x3331 PUSH2 0x393F JUMP JUMPDEST SWAP1 PUSH1 0x0 MSTORE PUSH1 0x20 PUSH1 0x0 KECCAK256 SWAP1 PUSH1 0x2 MUL ADD PUSH1 0x1 ADD SLOAD EQ JUMPDEST ISZERO PUSH2 0x3418 JUMPI PUSH2 0x3355 PUSH1 0x1 DUP4 PUSH2 0x3FFB JUMP JUMPDEST DUP2 LT ISZERO PUSH2 0x33D3 JUMPI PUSH1 0x4 PUSH2 0x3369 PUSH1 0x1 DUP5 PUSH2 0x3FFB JUMP JUMPDEST DUP2 SLOAD DUP2 LT PUSH2 0x3379 JUMPI PUSH2 0x3379 PUSH2 0x393F JUMP JUMPDEST SWAP1 PUSH1 0x0 MSTORE PUSH1 0x20 PUSH1 0x0 KECCAK256 SWAP1 PUSH1 0x2 MUL ADD PUSH1 0x4 DUP3 DUP2 SLOAD DUP2 LT PUSH2 0x339A JUMPI PUSH2 0x339A PUSH2 0x393F JUMP JUMPDEST PUSH1 0x0 SWAP2 DUP3 MSTORE PUSH1 0x20 SWAP1 SWAP2 KECCAK256 DUP3 SLOAD PUSH1 0x2 SWAP1 SWAP3 MUL ADD DUP1 SLOAD PUSH1 0x1 PUSH1 0x1 PUSH1 0xA0 SHL SUB NOT AND PUSH1 0x1 PUSH1 0x1 PUSH1 0xA0 SHL SUB SWAP1 SWAP3 AND SWAP2 SWAP1 SWAP2 OR DUP2 SSTORE PUSH1 0x1 SWAP2 DUP3 ADD SLOAD SWAP2 ADD SSTORE JUMPDEST PUSH1 0x4 DUP1 SLOAD DUP1 PUSH2 0x33E4 JUMPI PUSH2 0x33E4 PUSH2 0x40E1 JUMP JUMPDEST PUSH1 0x0 DUP3 DUP2 MSTORE PUSH1 0x20 DUP2 KECCAK256 PUSH1 0x2 PUSH1 0x0 NOT SWAP1 SWAP4 ADD SWAP3 DUP4 MUL ADD DUP1 SLOAD PUSH1 0x1 PUSH1 0x1 PUSH1 0xA0 SHL SUB NOT AND DUP2 SSTORE PUSH1 0x1 ADD SSTORE SWAP1 SSTORE PUSH1 0x1 SWAP3 POP POP POP PUSH2 0xCF2 JUMP JUMPDEST DUP1 PUSH2 0x3422 DUP2 PUSH2 0x39AA JUMP JUMPDEST SWAP2 POP POP PUSH2 0x32D6 JUMP JUMPDEST PUSH1 0x5 SLOAD PUSH1 0x0 SWAP1 JUMPDEST DUP1 ISZERO PUSH2 0x3494 JUMPI PUSH1 0x1 PUSH1 0x1 PUSH1 0xA0 SHL SUB DUP4 AND PUSH1 0x5 PUSH2 0x344E PUSH1 0x1 DUP5 PUSH2 0x3FFB JUMP JUMPDEST DUP2 SLOAD DUP2 LT PUSH2 0x345E JUMPI PUSH2 0x345E PUSH2 0x393F JUMP JUMPDEST PUSH1 0x0 SWAP2 DUP3 MSTORE PUSH1 0x20 SWAP1 SWAP2 KECCAK256 ADD SLOAD PUSH1 0x1 PUSH1 0x1 PUSH1 0xA0 SHL SUB AND EQ ISZERO PUSH2 0x3482 JUMPI POP PUSH1 0x0 SWAP3 SWAP2 POP POP JUMP JUMPDEST DUP1 PUSH2 0x348C DUP2 PUSH2 0x4012 JUMP JUMPDEST SWAP2 POP POP PUSH2 0x3431 JUMP JUMPDEST PUSH1 0x5 DUP1 SLOAD PUSH1 0x1 DUP2 ADD DUP3 SSTORE PUSH1 0x0 SWAP2 SWAP1 SWAP2 MSTORE PUSH32 0x36B6384B5ECA791C62761152D0C79BB0604C104A5FB6F4EB0703F3154BB3DB0 ADD DUP1 SLOAD PUSH1 0x1 PUSH1 0x1 PUSH1 0xA0 SHL SUB NOT AND PUSH1 0x1 PUSH1 0x1 PUSH1 0xA0 SHL SUB DUP6 AND OR SWAP1 SSTORE POP PUSH1 0x1 SWAP3 SWAP2 POP POP JUMP JUMPDEST PUSH1 0x0 PUSH2 0x1046 PUSH20 0x0 PUSH4 0xDE874ED DUP6 DUP6 PUSH1 0x40 MLOAD DUP4 PUSH4 0xFFFFFFFF AND PUSH1 0xE0 SHL DUP2 MSTORE PUSH1 0x4 ADD PUSH2 0x163D SWAP3 SWAP2 SWAP1 PUSH2 0x3A9E JUMP JUMPDEST PUSH1 0x0 PUSH1 0x1 PUSH1 0x1 PUSH1 0xA0 SHL SUB DUP4 AND PUSH2 0x353E JUMPI POP PUSH1 0x1 PUSH2 0xCF2 JUMP JUMPDEST PUSH20 0x0 PUSH4 0x3646B548 PUSH2 0x3562 DUP6 DUP6 PUSH2 0x26A6 JUMP JUMPDEST PUSH1 0x40 MLOAD DUP3 PUSH4 0xFFFFFFFF AND PUSH1 0xE0 SHL DUP2 MSTORE PUSH1 0x4 ADD PUSH2 0x29CB SWAP2 SWAP1 PUSH2 0x3A52 JUMP JUMPDEST PUSH1 0x7 SLOAD PUSH1 0x0 SWAP1 PUSH1 0xFF AND ISZERO ISZERO DUP3 ISZERO ISZERO EQ ISZERO PUSH2 0x359A JUMPI POP PUSH1 0x0 SWAP2 SWAP1 POP JUMP JUMPDEST PUSH1 0x7 DUP1 SLOAD PUSH1 0xFF NOT AND DUP4 ISZERO ISZERO OR SWAP1 SSTORE POP PUSH1 0x1 SWAP2 SWAP1 POP JUMP JUMPDEST PUSH1 0x5 SLOAD PUSH1 0x0 SWAP1 DUP2 JUMPDEST DUP2 DUP2 LT ISZERO PUSH2 0x2107 JUMPI DUP4 PUSH1 0x1 PUSH1 0x1 PUSH1 0xA0 SHL SUB AND PUSH1 0x5 DUP3 DUP2 SLOAD DUP2 LT PUSH2 0x35DD JUMPI PUSH2 0x35DD PUSH2 0x393F JUMP JUMPDEST PUSH1 0x0 SWAP2 DUP3 MSTORE PUSH1 0x20 SWAP1 SWAP2 KECCAK256 ADD SLOAD PUSH1 0x1 PUSH1 0x1 PUSH1 0xA0 SHL SUB AND EQ ISZERO PUSH2 0x36BF JUMPI PUSH2 0x3603 PUSH1 0x1 DUP4 PUSH2 0x3FFB JUMP JUMPDEST DUP2 LT ISZERO PUSH2 0x3682 JUMPI PUSH1 0x5 PUSH2 0x3617 PUSH1 0x1 DUP5 PUSH2 0x3FFB JUMP JUMPDEST DUP2 SLOAD DUP2 LT PUSH2 0x3627 JUMPI PUSH2 0x3627 PUSH2 0x393F JUMP JUMPDEST PUSH1 0x0 SWAP2 DUP3 MSTORE PUSH1 0x20 SWAP1 SWAP2 KECCAK256 ADD SLOAD PUSH1 0x5 DUP1 SLOAD PUSH1 0x1 PUSH1 0x1 PUSH1 0xA0 SHL SUB SWAP1 SWAP3 AND SWAP2 DUP4 SWAP1 DUP2 LT PUSH2 0x3653 JUMPI PUSH2 0x3653 PUSH2 0x393F JUMP JUMPDEST SWAP1 PUSH1 0x0 MSTORE PUSH1 0x20 PUSH1 0x0 KECCAK256 ADD PUSH1 0x0 PUSH2 0x100 EXP DUP2 SLOAD DUP2 PUSH1 0x1 PUSH1 0x1 PUSH1 0xA0 SHL SUB MUL NOT AND SWAP1 DUP4 PUSH1 0x1 PUSH1 0x1 PUSH1 0xA0 SHL SUB AND MUL OR SWAP1 SSTORE POP JUMPDEST PUSH1 0x5 DUP1 SLOAD DUP1 PUSH2 0x3693 JUMPI PUSH2 0x3693 PUSH2 0x40E1 JUMP JUMPDEST PUSH1 0x0 DUP3 DUP2 MSTORE PUSH1 0x20 SWAP1 KECCAK256 DUP2 ADD PUSH1 0x0 NOT SWAP1 DUP2 ADD DUP1 SLOAD PUSH1 0x1 PUSH1 0x1 PUSH1 0xA0 SHL SUB NOT AND SWAP1 SSTORE ADD SWAP1 SSTORE POP PUSH1 0x1 SWAP4 SWAP3 POP POP POP JUMP JUMPDEST DUP1 PUSH2 0x36C9 DUP2 PUSH2 0x39AA JUMP JUMPDEST SWAP2 POP POP PUSH2 0x35B8 JUMP JUMPDEST PUSH1 0x0 DUP1 PUSH2 0x36DD DUP4 PUSH2 0x14BD JUMP JUMPDEST PUSH1 0x40 MLOAD PUSH4 0x14130A79 PUSH1 0xE3 SHL DUP2 MSTORE PUSH20 0x0 SWAP2 PUSH4 0xA09853C8 SWAP2 PUSH2 0x3713 SWAP2 SWAP1 PUSH1 0x4 ADD PUSH2 0x3C19 JUMP JUMPDEST PUSH1 0x40 DUP1 MLOAD DUP1 DUP4 SUB DUP2 DUP7 GAS DELEGATECALL ISZERO DUP1 ISZERO PUSH2 0x372F JUMPI RETURNDATASIZE PUSH1 0x0 DUP1 RETURNDATACOPY RETURNDATASIZE PUSH1 0x0 REVERT JUMPDEST POP POP POP POP PUSH1 0x40 MLOAD RETURNDATASIZE PUSH1 0x1F NOT PUSH1 0x1F DUP3 ADD AND DUP3 ADD DUP1 PUSH1 0x40 MSTORE POP DUP2 ADD SWAP1 PUSH2 0xE3E SWAP2 SWAP1 PUSH2 0x40F7 JUMP JUMPDEST PUSH1 0x6 SLOAD PUSH1 0x0 SWAP1 DUP2 JUMPDEST DUP2 DUP2 LT ISZERO PUSH2 0x23DA JUMPI DUP5 PUSH1 0x1 PUSH1 0x1 PUSH1 0xA0 SHL SUB AND PUSH1 0x6 DUP3 DUP2 SLOAD DUP2 LT PUSH2 0x3780 JUMPI PUSH2 0x3780 PUSH2 0x393F JUMP JUMPDEST PUSH1 0x0 SWAP2 DUP3 MSTORE PUSH1 0x20 SWAP1 SWAP2 KECCAK256 PUSH1 0x2 SWAP1 SWAP2 MUL ADD SLOAD PUSH1 0x1 PUSH1 0x1 PUSH1 0xA0 SHL SUB AND EQ DUP1 ISZERO PUSH2 0x37CA JUMPI POP DUP4 PUSH1 0x6 DUP3 DUP2 SLOAD DUP2 LT PUSH2 0x37B6 JUMPI PUSH2 0x37B6 PUSH2 0x393F JUMP JUMPDEST SWAP1 PUSH1 0x0 MSTORE PUSH1 0x20 PUSH1 0x0 KECCAK256 SWAP1 PUSH1 0x2 MUL ADD PUSH1 0x1 ADD SLOAD EQ JUMPDEST ISZERO PUSH2 0x3869 JUMPI PUSH2 0x37DA PUSH1 0x1 DUP4 PUSH2 0x3FFB JUMP JUMPDEST DUP2 LT ISZERO PUSH2 0x3858 JUMPI PUSH1 0x6 PUSH2 0x37EE PUSH1 0x1 DUP5 PUSH2 0x3FFB JUMP JUMPDEST DUP2 SLOAD DUP2 LT PUSH2 0x37FE JUMPI PUSH2 0x37FE PUSH2 0x393F JUMP JUMPDEST SWAP1 PUSH1 0x0 MSTORE PUSH1 0x20 PUSH1 0x0 KECCAK256 SWAP1 PUSH1 0x2 MUL ADD PUSH1 0x6 DUP3 DUP2 SLOAD DUP2 LT PUSH2 0x381F JUMPI PUSH2 0x381F PUSH2 0x393F JUMP JUMPDEST PUSH1 0x0 SWAP2 DUP3 MSTORE PUSH1 0x20 SWAP1 SWAP2 KECCAK256 DUP3 SLOAD PUSH1 0x2 SWAP1 SWAP3 MUL ADD DUP1 SLOAD PUSH1 0x1 PUSH1 0x1 PUSH1 0xA0 SHL SUB NOT AND PUSH1 0x1 PUSH1 0x1 PUSH1 0xA0 SHL SUB SWAP1 SWAP3 AND SWAP2 SWAP1 SWAP2 OR DUP2 SSTORE PUSH1 0x1 SWAP2 DUP3 ADD SLOAD SWAP2 ADD SSTORE JUMPDEST PUSH1 0x6 DUP1 SLOAD DUP1 PUSH2 0x33E4 JUMPI PUSH2 0x33E4 PUSH2 0x40E1 JUMP JUMPDEST DUP1 PUSH2 0x3873 DUP2 PUSH2 0x39AA JUMP JUMPDEST SWAP2 POP POP PUSH2 0x375B JUMP JUMPDEST DUP3 DUP1 SLOAD PUSH2 0x3887 SWAP1 PUSH2 0x3E1C JUMP JUMPDEST SWAP1 PUSH1 0x0 MSTORE PUSH1 0x20 PUSH1 0x0 KECCAK256 SWAP1 PUSH1 0x1F ADD PUSH1 0x20 SWAP1 DIV DUP2 ADD SWAP3 DUP3 PUSH2 0x38A9 JUMPI PUSH1 0x0 DUP6 SSTORE PUSH2 0x38EF JUMP JUMPDEST DUP3 PUSH1 0x1F LT PUSH2 0x38C2 JUMPI DUP1 MLOAD PUSH1 0xFF NOT AND DUP4 DUP1 ADD OR DUP6 SSTORE PUSH2 0x38EF JUMP JUMPDEST DUP3 DUP1 ADD PUSH1 0x1 ADD DUP6 SSTORE DUP3 ISZERO PUSH2 0x38EF JUMPI SWAP2 DUP3 ADD JUMPDEST DUP3 DUP2 GT ISZERO PUSH2 0x38EF JUMPI DUP3 MLOAD DUP3 SSTORE SWAP2 PUSH1 0x20 ADD SWAP2 SWAP1 PUSH1 0x1 ADD SWAP1 PUSH2 0x38D4 JUMP JUMPDEST POP PUSH2 0x38FB SWAP3 SWAP2 POP PUSH2 0x38FF JUMP JUMPDEST POP SWAP1 JUMP JUMPDEST JUMPDEST DUP1 DUP3 GT ISZERO PUSH2 0x38FB JUMPI PUSH1 0x0 DUP2 SSTORE PUSH1 0x1 ADD PUSH2 0x3900 JUMP JUMPDEST DUP1 ISZERO ISZERO DUP2 EQ PUSH2 0x2B1A JUMPI PUSH1 0x0 DUP1 REVERT JUMPDEST PUSH1 0x0 PUSH1 0x20 DUP3 DUP5 SUB SLT ISZERO PUSH2 0x3934 JUMPI PUSH1 0x0 DUP1 REVERT JUMPDEST DUP2 MLOAD PUSH2 0x1046 DUP2 PUSH2 0x3914 JUMP JUMPDEST PUSH4 0x4E487B71 PUSH1 0xE0 SHL PUSH1 0x0 MSTORE PUSH1 0x32 PUSH1 0x4 MSTORE PUSH1 0x24 PUSH1 0x0 REVERT JUMPDEST PUSH1 0x0 PUSH1 0x20 DUP3 DUP5 SUB SLT ISZERO PUSH2 0x3967 JUMPI PUSH1 0x0 DUP1 REVERT JUMPDEST POP MLOAD SWAP2 SWAP1 POP JUMP JUMPDEST PUSH4 0x4E487B71 PUSH1 0xE0 SHL PUSH1 0x0 MSTORE PUSH1 0x21 PUSH1 0x4 MSTORE PUSH1 0x24 PUSH1 0x0 REVERT JUMPDEST DUP2 DUP4 DUP3 CALLDATACOPY PUSH1 0x0 SWAP2 ADD SWAP1 DUP2 MSTORE SWAP2 SWAP1 POP JUMP JUMPDEST PUSH4 0x4E487B71 PUSH1 0xE0 SHL PUSH1 0x0 MSTORE PUSH1 0x11 PUSH1 0x4 MSTORE PUSH1 0x24 PUSH1 0x0 REVERT JUMPDEST PUSH1 0x0 PUSH1 0x0 NOT DUP3 EQ ISZERO PUSH2 0x39BE JUMPI PUSH2 0x39BE PUSH2 0x3994 JUMP JUMPDEST POP PUSH1 0x1 ADD SWAP1 JUMP JUMPDEST DUP1 CALLDATALOAD PUSH1 0x1 PUSH1 0x1 PUSH1 0xE0 SHL SUB NOT DUP2 AND DUP2 EQ PUSH2 0x14B8 JUMPI PUSH1 0x0 DUP1 REVERT JUMPDEST PUSH1 0x0 PUSH1 0x20 DUP3 DUP5 SUB SLT ISZERO PUSH2 0x39EF JUMPI PUSH1 0x0 DUP1 REVERT JUMPDEST PUSH2 0x1046 DUP3 PUSH2 0x39C5 JUMP JUMPDEST PUSH1 0x1 PUSH1 0x1 PUSH1 0xA0 SHL SUB DUP2 AND DUP2 EQ PUSH2 0x2B1A JUMPI PUSH1 0x0 DUP1 REVERT JUMPDEST PUSH1 0x0 DUP1 PUSH1 0x40 DUP4 DUP6 SUB SLT ISZERO PUSH2 0x3A20 JUMPI PUSH1 0x0 DUP1 REVERT JUMPDEST DUP3 CALLDATALOAD PUSH2 0x3A2B DUP2 PUSH2 0x39F8 JUMP JUMPDEST SWAP5 PUSH1 0x20 SWAP4 SWAP1 SWAP4 ADD CALLDATALOAD SWAP4 POP POP POP JUMP JUMPDEST PUSH1 0x0 PUSH1 0x20 DUP3 DUP5 SUB SLT ISZERO PUSH2 0x3A4B JUMPI PUSH1 0x0 DUP1 REVERT JUMPDEST POP CALLDATALOAD SWAP2 SWAP1 POP JUMP JUMPDEST DUP2 MLOAD PUSH1 0x0 SIGNEXTEND DUP2 MSTORE PUSH1 0x20 DUP1 DUP4 ADD MLOAD ISZERO ISZERO SWAP1 DUP3 ADD MSTORE PUSH1 0x40 DUP1 DUP4 ADD MLOAD PUSH1 0x1 PUSH1 0x1 PUSH1 0x40 SHL SUB AND SWAP1 DUP3 ADD MSTORE PUSH1 0x60 DUP2 ADD PUSH2 0xCF2 JUMP JUMPDEST PUSH1 0x0 PUSH1 0x20 DUP3 DUP5 SUB SLT ISZERO PUSH2 0x3A93 JUMPI PUSH1 0x0 DUP1 REVERT JUMPDEST DUP2 CALLDATALOAD PUSH2 0x1046 DUP2 PUSH2 0x39F8 JUMP JUMPDEST PUSH1 0x1 PUSH1 0x1 PUSH1 0xA0 SHL SUB SWAP3 SWAP1 SWAP3 AND DUP3 MSTORE PUSH1 0x20 DUP3 ADD MSTORE PUSH1 0x40 ADD SWAP1 JUMP JUMPDEST PUSH1 0x0 JUMPDEST DUP4 DUP2 LT ISZERO PUSH2 0x3AD2 JUMPI DUP2 DUP2 ADD MLOAD DUP4 DUP3 ADD MSTORE PUSH1 0x20 ADD PUSH2 0x3ABA JUMP JUMPDEST DUP4 DUP2 GT ISZERO PUSH2 0x3AE1 JUMPI PUSH1 0x0 DUP5 DUP5 ADD MSTORE JUMPDEST POP POP POP POP JUMP JUMPDEST PUSH1 0x0 DUP2 MLOAD DUP1 DUP5 MSTORE PUSH2 0x3AFF DUP2 PUSH1 0x20 DUP7 ADD PUSH1 0x20 DUP7 ADD PUSH2 0x3AB7 JUMP JUMPDEST PUSH1 0x1F ADD PUSH1 0x1F NOT AND SWAP3 SWAP1 SWAP3 ADD PUSH1 0x20 ADD SWAP3 SWAP2 POP POP JUMP JUMPDEST PUSH1 0x20 DUP2 MSTORE PUSH1 0x0 PUSH2 0x1046 PUSH1 0x20 DUP4 ADD DUP5 PUSH2 0x3AE7 JUMP JUMPDEST PUSH4 0x4E487B71 PUSH1 0xE0 SHL PUSH1 0x0 MSTORE PUSH1 0x41 PUSH1 0x4 MSTORE PUSH1 0x24 PUSH1 0x0 REVERT JUMPDEST PUSH1 0x40 MLOAD PUSH1 0x1F DUP3 ADD PUSH1 0x1F NOT AND DUP2 ADD PUSH1 0x1 PUSH1 0x1 PUSH1 0x40 SHL SUB DUP2 GT DUP3 DUP3 LT OR ISZERO PUSH2 0x3B64 JUMPI PUSH2 0x3B64 PUSH2 0x3B26 JUMP JUMPDEST PUSH1 0x40 MSTORE SWAP2 SWAP1 POP JUMP JUMPDEST PUSH1 0x0 PUSH1 0x1 PUSH1 0x1 PUSH1 0x40 SHL SUB DUP3 GT ISZERO PUSH2 0x3B85 JUMPI PUSH2 0x3B85 PUSH2 0x3B26 JUMP JUMPDEST POP PUSH1 0x1F ADD PUSH1 0x1F NOT AND PUSH1 0x20 ADD SWAP1 JUMP JUMPDEST PUSH1 0x0 PUSH2 0x3BA6 PUSH2 0x3BA1 DUP5 PUSH2 0x3B6C JUMP JUMPDEST PUSH2 0x3B3C JUMP JUMPDEST SWAP1 POP DUP3 DUP2 MSTORE DUP4 DUP4 DUP4 ADD GT ISZERO PUSH2 0x3BBA JUMPI PUSH1 0x0 DUP1 REVERT JUMPDEST DUP3 DUP3 PUSH1 0x20 DUP4 ADD CALLDATACOPY PUSH1 0x0 PUSH1 0x20 DUP5 DUP4 ADD ADD MSTORE SWAP4 SWAP3 POP POP POP JUMP JUMPDEST PUSH1 0x0 PUSH1 0x20 DUP3 DUP5 SUB SLT ISZERO PUSH2 0x3BE3 JUMPI PUSH1 0x0 DUP1 REVERT JUMPDEST DUP2 CALLDATALOAD PUSH1 0x1 PUSH1 0x1 PUSH1 0x40 SHL SUB DUP2 GT ISZERO PUSH2 0x3BF9 JUMPI PUSH1 0x0 DUP1 REVERT JUMPDEST DUP3 ADD PUSH1 0x1F DUP2 ADD DUP5 SGT PUSH2 0x3C0A JUMPI PUSH1 0x0 DUP1 REVERT JUMPDEST PUSH2 0xDAE DUP5 DUP3 CALLDATALOAD PUSH1 0x20 DUP5 ADD PUSH2 0x3B93 JUMP JUMPDEST PUSH1 0x20 DUP1 DUP3 MSTORE DUP3 MLOAD DUP3 DUP3 ADD DUP2 SWAP1 MSTORE PUSH1 0x0 SWAP2 SWAP1 DUP5 DUP3 ADD SWAP1 PUSH1 0x40 DUP6 ADD SWAP1 DUP5 JUMPDEST DUP2 DUP2 LT ISZERO PUSH2 0x3C51 JUMPI DUP4 MLOAD DUP4 MSTORE SWAP3 DUP5 ADD SWAP3 SWAP2 DUP5 ADD SWAP2 PUSH1 0x1 ADD PUSH2 0x3C35 JUMP JUMPDEST POP SWAP1 SWAP7 SWAP6 POP POP POP POP POP POP JUMP JUMPDEST PUSH1 0x0 DUP1 PUSH1 0x40 DUP4 DUP6 SUB SLT ISZERO PUSH2 0x3C70 JUMPI PUSH1 0x0 DUP1 REVERT JUMPDEST DUP3 CALLDATALOAD SWAP2 POP PUSH1 0x20 DUP4 ADD CALLDATALOAD PUSH2 0x3C82 DUP2 PUSH2 0x39F8 JUMP JUMPDEST DUP1 SWAP2 POP POP SWAP3 POP SWAP3 SWAP1 POP JUMP JUMPDEST PUSH1 0x0 DUP1 PUSH1 0x40 DUP4 DUP6 SUB SLT ISZERO PUSH2 0x3CA0 JUMPI PUSH1 0x0 DUP1 REVERT JUMPDEST POP POP DUP1 CALLDATALOAD SWAP3 PUSH1 0x20 SWAP1 SWAP2 ADD CALLDATALOAD SWAP2 POP JUMP JUMPDEST PUSH1 0x1 PUSH1 0x1 PUSH1 0x40 SHL SUB DUP2 AND DUP2 EQ PUSH2 0x2B1A JUMPI PUSH1 0x0 DUP1 REVERT JUMPDEST PUSH1 0x0 DUP1 PUSH1 0x40 DUP4 DUP6 SUB SLT ISZERO PUSH2 0x3CD7 JUMPI PUSH1 0x0 DUP1 REVERT JUMPDEST DUP3 CALLDATALOAD SWAP2 POP PUSH1 0x20 DUP4 ADD CALLDATALOAD PUSH2 0x3C82 DUP2 PUSH2 0x3CAF JUMP JUMPDEST PUSH1 0x0 PUSH1 0x1 PUSH1 0x1 PUSH1 0x40 SHL SUB DUP3 GT ISZERO PUSH2 0x3D02 JUMPI PUSH2 0x3D02 PUSH2 0x3B26 JUMP JUMPDEST POP PUSH1 0x5 SHL PUSH1 0x20 ADD SWAP1 JUMP JUMPDEST PUSH1 0x0 PUSH1 0x20 DUP1 DUP4 DUP6 SUB SLT ISZERO PUSH2 0x3D1F JUMPI PUSH1 0x0 DUP1 REVERT JUMPDEST DUP3 CALLDATALOAD PUSH1 0x1 PUSH1 0x1 PUSH1 0x40 SHL SUB DUP2 GT ISZERO PUSH2 0x3D35 JUMPI PUSH1 0x0 DUP1 REVERT JUMPDEST DUP4 ADD PUSH1 0x1F DUP2 ADD DUP6 SGT PUSH2 0x3D46 JUMPI PUSH1 0x0 DUP1 REVERT JUMPDEST DUP1 CALLDATALOAD PUSH2 0x3D54 PUSH2 0x3BA1 DUP3 PUSH2 0x3CE9 JUMP JUMPDEST DUP2 DUP2 MSTORE PUSH1 0x5 SWAP2 SWAP1 SWAP2 SHL DUP3 ADD DUP4 ADD SWAP1 DUP4 DUP2 ADD SWAP1 DUP8 DUP4 GT ISZERO PUSH2 0x3D73 JUMPI PUSH1 0x0 DUP1 REVERT JUMPDEST SWAP3 DUP5 ADD SWAP3 JUMPDEST DUP3 DUP5 LT ISZERO PUSH2 0x3D91 JUMPI DUP4 CALLDATALOAD DUP3 MSTORE SWAP3 DUP5 ADD SWAP3 SWAP1 DUP5 ADD SWAP1 PUSH2 0x3D78 JUMP JUMPDEST SWAP8 SWAP7 POP POP POP POP POP POP POP JUMP JUMPDEST PUSH1 0x0 DUP1 PUSH1 0x40 DUP4 DUP6 SUB SLT ISZERO PUSH2 0x3DAF JUMPI PUSH1 0x0 DUP1 REVERT JUMPDEST DUP3 CALLDATALOAD SWAP2 POP PUSH2 0x3DBF PUSH1 0x20 DUP5 ADD PUSH2 0x39C5 JUMP JUMPDEST SWAP1 POP SWAP3 POP SWAP3 SWAP1 POP JUMP JUMPDEST PUSH1 0x0 PUSH1 0x20 DUP3 DUP5 SUB SLT ISZERO PUSH2 0x3DDA JUMPI PUSH1 0x0 DUP1 REVERT JUMPDEST DUP2 CALLDATALOAD PUSH2 0x1046 DUP2 PUSH2 0x3914 JUMP JUMPDEST PUSH1 0x20 DUP1 DUP3 MSTORE PUSH1 0x17 SWAP1 DUP3 ADD MSTORE PUSH32 0x43757272656E6379206E6F742072656769737465726564000000000000000000 PUSH1 0x40 DUP3 ADD MSTORE PUSH1 0x60 ADD SWAP1 JUMP JUMPDEST PUSH1 0x1 DUP2 DUP2 SHR SWAP1 DUP3 AND DUP1 PUSH2 0x3E30 JUMPI PUSH1 0x7F DUP3 AND SWAP2 POP JUMPDEST PUSH1 0x20 DUP3 LT DUP2 EQ ISZERO PUSH2 0x13A7 JUMPI PUSH4 0x4E487B71 PUSH1 0xE0 SHL PUSH1 0x0 MSTORE PUSH1 0x22 PUSH1 0x4 MSTORE PUSH1 0x24 PUSH1 0x0 REVERT JUMPDEST PUSH1 0x0 DUP3 MLOAD PUSH2 0x3E63 DUP2 DUP5 PUSH1 0x20 DUP8 ADD PUSH2 0x3AB7 JUMP JUMPDEST SWAP2 SWAP1 SWAP2 ADD SWAP3 SWAP2 POP POP JUMP JUMPDEST PUSH1 0x0 PUSH1 0x20 DUP1 DUP4 DUP6 SUB SLT ISZERO PUSH2 0x3E80 JUMPI PUSH1 0x0 DUP1 REVERT JUMPDEST DUP3 MLOAD PUSH1 0x1 PUSH1 0x1 PUSH1 0x40 SHL SUB DUP2 GT ISZERO PUSH2 0x3E96 JUMPI PUSH1 0x0 DUP1 REVERT JUMPDEST DUP4 ADD PUSH1 0x1F DUP2 ADD DUP6 SGT PUSH2 0x3EA7 JUMPI PUSH1 0x0 DUP1 REVERT JUMPDEST DUP1 MLOAD PUSH2 0x3EB5 PUSH2 0x3BA1 DUP3 PUSH2 0x3CE9 JUMP JUMPDEST DUP2 DUP2 MSTORE PUSH1 0x5 SWAP2 SWAP1 SWAP2 SHL DUP3 ADD DUP4 ADD SWAP1 DUP4 DUP2 ADD SWAP1 DUP8 DUP4 GT ISZERO PUSH2 0x3ED4 JUMPI PUSH1 0x0 DUP1 REVERT JUMPDEST SWAP3 DUP5 ADD SWAP3 JUMPDEST DUP3 DUP5 LT ISZERO PUSH2 0x3D91 JUMPI DUP4 MLOAD DUP3 MSTORE SWAP3 DUP5 ADD SWAP3 SWAP1 DUP5 ADD SWAP1 PUSH2 0x3ED9 JUMP JUMPDEST PUSH1 0x0 DUP1 PUSH1 0x40 DUP4 DUP6 SUB SLT ISZERO PUSH2 0x3F05 JUMPI PUSH1 0x0 DUP1 REVERT JUMPDEST POP POP DUP1 MLOAD PUSH1 0x20 SWAP1 SWAP2 ADD MLOAD SWAP1 SWAP3 SWAP1 SWAP2 POP JUMP JUMPDEST PUSH1 0x0 PUSH1 0x60 DUP3 DUP5 SUB SLT ISZERO PUSH2 0x3F28 JUMPI PUSH1 0x0 DUP1 REVERT JUMPDEST PUSH1 0x40 MLOAD PUSH1 0x60 DUP2 ADD DUP2 DUP2 LT PUSH1 0x1 PUSH1 0x1 PUSH1 0x40 SHL SUB DUP3 GT OR ISZERO PUSH2 0x3F4A JUMPI PUSH2 0x3F4A PUSH2 0x3B26 JUMP JUMPDEST PUSH1 0x40 MSTORE DUP3 MLOAD PUSH1 0x0 DUP2 SWAP1 SIGNEXTEND DUP2 EQ PUSH2 0x3F5F JUMPI PUSH1 0x0 DUP1 REVERT JUMPDEST DUP2 MSTORE PUSH1 0x20 DUP4 ADD MLOAD PUSH2 0x3F6F DUP2 PUSH2 0x3914 JUMP JUMPDEST PUSH1 0x20 DUP3 ADD MSTORE PUSH1 0x40 DUP4 ADD MLOAD PUSH2 0x3F82 DUP2 PUSH2 0x3CAF JUMP JUMPDEST PUSH1 0x40 DUP3 ADD MSTORE SWAP4 SWAP3 POP POP POP JUMP JUMPDEST PUSH4 0x4E487B71 PUSH1 0xE0 SHL PUSH1 0x0 MSTORE PUSH1 0x1 PUSH1 0x4 MSTORE PUSH1 0x24 PUSH1 0x0 REVERT JUMPDEST PUSH1 0x1 PUSH1 0x1 PUSH1 0xA0 SHL SUB DUP6 AND DUP2 MSTORE PUSH1 0x20 DUP2 ADD DUP5 SWAP1 MSTORE PUSH1 0xC0 DUP2 ADD PUSH2 0x3FEA PUSH1 0x40 DUP4 ADD DUP6 DUP1 MLOAD PUSH1 0x0 SIGNEXTEND DUP3 MSTORE PUSH1 0x20 DUP1 DUP3 ADD MLOAD ISZERO ISZERO SWAP1 DUP4 ADD MSTORE PUSH1 0x40 SWAP1 DUP2 ADD MLOAD PUSH1 0x1 PUSH1 0x1 PUSH1 0x40 SHL SUB AND SWAP2 ADD MSTORE JUMP JUMPDEST DUP3 ISZERO ISZERO PUSH1 0xA0 DUP4 ADD MSTORE SWAP6 SWAP5 POP POP POP POP POP JUMP JUMPDEST PUSH1 0x0 DUP3 DUP3 LT ISZERO PUSH2 0x400D JUMPI PUSH2 0x400D PUSH2 0x3994 JUMP JUMPDEST POP SUB SWAP1 JUMP JUMPDEST PUSH1 0x0 DUP2 PUSH2 0x4021 JUMPI PUSH2 0x4021 PUSH2 0x3994 JUMP JUMPDEST POP PUSH1 0x0 NOT ADD SWAP1 JUMP JUMPDEST PUSH1 0x0 PUSH1 0x20 DUP3 DUP5 SUB SLT ISZERO PUSH2 0x403B JUMPI PUSH1 0x0 DUP1 REVERT JUMPDEST DUP2 MLOAD PUSH2 0x1046 DUP2 PUSH2 0x39F8 JUMP JUMPDEST PUSH1 0x0 DUP1 PUSH1 0x40 DUP4 DUP6 SUB SLT ISZERO PUSH2 0x4059 JUMPI PUSH1 0x0 DUP1 REVERT JUMPDEST DUP3 MLOAD SWAP2 POP PUSH1 0x20 DUP4 ADD MLOAD PUSH2 0x3C82 DUP2 PUSH2 0x39F8 JUMP JUMPDEST PUSH1 0x0 PUSH1 0x20 DUP3 DUP5 SUB SLT ISZERO PUSH2 0x407D JUMPI PUSH1 0x0 DUP1 REVERT JUMPDEST DUP2 MLOAD PUSH1 0x1 PUSH1 0x1 PUSH1 0x40 SHL SUB DUP2 GT ISZERO PUSH2 0x4093 JUMPI PUSH1 0x0 DUP1 REVERT JUMPDEST DUP3 ADD PUSH1 0x1F DUP2 ADD DUP5 SGT PUSH2 0x40A4 JUMPI PUSH1 0x0 DUP1 REVERT JUMPDEST DUP1 MLOAD PUSH2 0x40B2 PUSH2 0x3BA1 DUP3 PUSH2 0x3B6C JUMP JUMPDEST DUP2 DUP2 MSTORE DUP6 PUSH1 0x20 DUP4 DUP6 ADD ADD GT ISZERO PUSH2 0x40C7 JUMPI PUSH1 0x0 DUP1 REVERT JUMPDEST PUSH2 0x40D8 DUP3 PUSH1 0x20 DUP4 ADD PUSH1 0x20 DUP7 ADD PUSH2 0x3AB7 JUMP JUMPDEST SWAP6 SWAP5 POP POP POP POP POP JUMP JUMPDEST PUSH4 0x4E487B71 PUSH1 0xE0 SHL PUSH1 0x0 MSTORE PUSH1 0x31 PUSH1 0x4 MSTORE PUSH1 0x24 PUSH1 0x0 REVERT JUMPDEST PUSH1 0x0 DUP1 PUSH1 0x40 DUP4 DUP6 SUB SLT ISZERO PUSH2 0x410A JUMPI PUSH1 0x0 DUP1 REVERT JUMPDEST DUP3 MLOAD PUSH2 0x4115 DUP2 PUSH2 0x39F8 JUMP JUMPDEST PUSH1 0x20 SWAP4 SWAP1 SWAP4 ADD MLOAD SWAP3 SWAP5 SWAP3 SWAP4 POP POP POP JUMP INVALID PUSH9 0x747470733A2F2F6769 PUSH21 0x6875622E636F6D2F5061747269636B416C70686143 0x2F PUSH5 0x6566692D73 PUSH21 0x616B652D7969656C642D62726F776E69652D667265 PUSH6 0x636F64652F62 PUSH13 0x6F622F6D61696E2F66726F6E74 0x5F PUSH6 0x6E642F737263 0x2F PUSH5 0x6170702E70 PUSH15 0x673F7261773D74727565AD3228B676 0xF7 0xD3 0xCD TIMESTAMP DUP5 0xA5 DIFFICULTY EXTCODEHASH OR CALL SWAP7 0x2B CALLDATASIZE 0xE4 SWAP2 0xB3 EXP BLOCKHASH 0xB2 BLOCKHASH PC 0x49 0xE5 SWAP8 0xBA 0x5F 0xB5 PUSH9 0x747470733A2F2F7261 PUSH24 0x2E67697468756275736572636F6E74656E742E636F6D2F50 PUSH2 0x7472 PUSH10 0x636B416C706861432F64 PUSH6 0x66692D737461 PUSH12 0x652D7969656C642D62726F77 PUSH15 0x69652D66726565636F64652F6D6169 PUSH15 0x2F66726F6E745F656E642F7372632F PUSH6 0x74682E706E67 EXTCODEHASH PUSH19 0x61773D74727565A2646970667358221220140B 0xE4 0xBD 0xB9 SWAP6 PUSH25 0x763084767FCDFAA78F5C601BB80F37BA0A84BF6331D38A5E25 PUSH5 0x736F6C6343 STOP ADDMOD SIGNEXTEND STOP CALLER ","sha1":"4da9bc48e27b7e4c1952486c4c8b876e3aa41f68","source":"// SPDX-License-Identifier: MIT\n// Beef MarketPlace Contracts v0.0.0 hello@mcdu.com\n\npragma solidity ^0.8.0;\n\nimport \"@openzeppelin/contracts/utils/Context.sol\";\nimport \"@openzeppelin/contracts/utils/introspection/IERC165.sol\";\nimport \"../agnostic/Ownable.sol\";\nimport \"../agnostic/Mode.sol\";\nimport \"../agnostic/Array.sol\";\nimport \"../agnostic/Mode.sol\";\nimport \"../agnostic/Keccak/KeccakInverter.sol\";\nimport \"../agnostic/Certified/CertifierAllower.sol\";\nimport \"../agnostic/Token/TokenLib.sol\";\nimport \"../agnostic/Token/TokenEquivalent.sol\";\nimport \"../agnostic/Token/Currencer.sol\";\n\n/*enum RepositoryType {\n    Bank,\n    Market,\n    MarketOrder,\n    MarketSearch,\n    Quotator,\n    Collateral,\n    Delivery,\n    Random,\n    Max\n}*/\n\nenum FuncState {\n    Unknown,\n    Absent,\n    Present\n}\ninterface IRepositoryContract is IERC165\n{\n    function supportsInterface(bytes4 interfaceId) external view returns (bool);\n    function id() external view returns (bytes32);\n\n}\n\nabstract contract RepositoryContract is IRepositoryContract, ModeStop, Context, Ownable {\n\n    Repository public immutable rep;\n\n    function supportsInterface(bytes4 interfaceId) public view virtual returns (bool)\n    {\n        return interfaceId == type(IERC165).interfaceId || interfaceId == type(IRepositoryContract).interfaceId;\n    }\n\n    constructor(Repository rep_) {\n        rep = rep_;\n    }\n\n    function repository() internal view virtual returns (Repository) {\n        return rep;\n    }\n\n    function checkRepository() private view {\n        require(\n            /*(ownerOf() == _msgSender()) ||*/ (_msgSender() == address(rep)),\n            \"Allowance: caller must be Repository\"\n        );\n    }\n\n    modifier all() {\n        _;\n    }\n    /*modifier onlyMarketOrder() virtual {\n        checkMarketOrder();\n        _;\n    }\n\n    function checkMarketOrder() internal view {\n        require((address(rep.mo()) == _msgSender()), \"Allowance: caller must be Market\");\n    }\n    modifier onlyMarket() virtual {\n        checkMarket();\n        _;\n    }\n\n    function checkMarket() internal view {\n        require((address(rep.m()) == _msgSender()), \"Allowance: caller must be Market\");\n    }*/\n\n    modifier onlyThis() virtual {\n        checkThis();\n        _;\n    }\n\n    function checkThis() internal view {\n        require((address(this) == _msgSender()), \"Allowance: caller must be this\");\n    }\n\n    modifier onlyOwner() virtual override {\n        checkOwner();\n        _;\n    }\n\n    function checkOwner() internal view {\n        require((ownerOf() == _msgSender()), \"Allowance: caller must be Owner\");\n    }\n\n    modifier onlyRepository() virtual {\n        checkRepository();\n        _;\n    }\n\n    modifier onlyContracts() {\n        checkContracts();\n        _;\n    }\n\n    function checkContracts() internal view {\n        require(\n            (ownerOf() == _msgSender()) || rep.isContract(_msgSender()),\n            \"Allowance: caller must be Repository Contract\"\n        );\n    }\n\n    modifier onlyOperators() {\n        checkOperators();\n        _;\n    }\n\n    function checkOperators() public view {\n        require(\n            (ownerOf() == _msgSender()) || rep.isOperator(_msgSender()),\n            \"Allowance: caller must be Repository Operator\"\n        );\n    }\n\n    modifier onlyContractsOrOperators() {\n        checkContractsOrOperators();\n        _;\n    }\n\n    function checkContractsOrOperators() internal view {\n        require(\n            (ownerOf() == _msgSender()) ||\n                rep.isContract(_msgSender()) ||\n                rep.isOperator(_msgSender()),\n            \"Allowance: caller must be Repository Contract or Operator\"\n        );\n    }\n\n    //bool private _liquidated;\n\n    function setSTOP() public onlyContractsOrOperators {\n        _setSTOP();\n    }\n\n    function unsetSTOP() public onlyContractsOrOperators {\n        _unsetSTOP();\n    }\n\n    function setSTOPFOREVER() public onlyOwner {\n        _setSTOPFOREVER();\n    }\n\n    /*function bytesToAddress(bytes memory bys)\n        internal\n        pure\n        returns (address addr)\n    {\n        assembly {\n            addr := mload(add(bys, 32))\n        }\n    }*/\n\n    function _return(bool result_) internal view virtual {\n        assembly {\n            returndatacopy(0, 0, returndatasize())\n            switch result_\n            case 0 {\n                revert(0, returndatasize())\n            }\n            default {\n                return(0, returndatasize())\n            }\n        }\n    }\n\n    fallback() external virtual onlyContractsOrOperators {\n        bytes memory bys = msg.data[4:36];\n        address _implementation;\n        assembly {\n            _implementation := mload(add(bys, 32))\n        }\n        //address _implementation = bytesToAddress(msg.data[4:36]);\n\n        bool _result;\n        assembly {\n            let newargumentsize := sub(calldatasize(), 36)\n            let newcalldatasize := add(newargumentsize, 4)\n\n            calldatacopy(0, 0, 4)\n            calldatacopy(4, 36, newargumentsize)\n\n            // Call the implementation.\n            // out and outsize are 0 because we don't know the size yet.\n            _result := delegatecall(\n                gas(),\n                _implementation,\n                0,\n                newcalldatasize,\n                0,\n                0\n            )\n        }\n        _return(_result);\n    }\n    //function destroy() public onlyOwner { liquidate(); _destroy(); }\n    //function _destroy() internal virtual {selfdestruct(payable(ownerOf()));}\n    //function liquidated() public view returns (bool) { return _liquidated; }\n    //function liquidate() public onlyOwner { if (_liquidated) return; _setSTOPFOREVER();_liquidated =true; _liquidate(); }\n    //function _liquidate() internal virtual {}\n}\n\ncontract Repository is IERC165,ModeTest,Ownable, Currencer, ContractForbidderCertifier, KeccakInverter { //TokenEquivalentCertifier, \n    using Array for address[];\n    using Array for bytes4[];\n    uint256 immutable public _originalblock;\n\n    mapping(bytes32 => address) _repository;\n    address[] private _contracts;//= new address[](uint256(RepositoryType.Max));\n    address[] private _operators;\n    mapping(bytes32 => mapping(bytes4 => FuncState)) private _contractfunc;\n    bytes4[] _funcs;\n\n    constructor(bool MODETEST_)\n        ModeTest(MODETEST_)\n    {\n         _originalblock=block.number;\n    }\n\n    function supportsInterface(bytes4 interfaceId)\n        public\n        view virtual override(IERC165,ContractForbidderCertifier)//,TokenEquivalentCertifier)\n        returns (bool)\n    {\n        return interfaceId == type(IERC165).interfaceId || Certifiers.supportsInterface(interfaceId) || ContractCertifier.supportsInterface(interfaceId);// || TokenEquivalentCertifier.supportsInterface(interfaceId);\n    }\n\n    function isTrustedCertifier(address certifier_) public view virtual override(ContractForbidderCertifier) returns (bool) //,ContractCertifier\n    {\n        return Certifiers.isTrustedCertifier(certifier_);\n    }\n\n\n    modifier all() {\n        _;\n    }\n\n    modifier onlyOwner() virtual override {\n        checkOwner();\n        _;\n    }\n\n    function checkOwner() internal view {\n        require((ownerOf() == _msgSender()), \"Allowance: caller must be Owner\");\n    }\n\n    modifier onlyContracts() {\n        checkContracts();\n        _;\n    }\n\n    function checkContracts() internal view {\n        require(\n            (ownerOf() == _msgSender()) || isContract(_msgSender()),\n            \"Allowance: caller must be Repository Contract\"\n        );\n    }\n\n    modifier onlyOperators() {\n        checkOperators();\n        _;\n    }\n\n    function checkOperators() public view {\n        require(\n            (ownerOf() == _msgSender()) || isOperator(_msgSender()),\n            \"Allowance: caller must be Repository Operator\"\n        );\n    }\n\n    modifier onlyContractsOrOperators() {\n        checkContractsOrOperators();\n        _;\n    }\n\n    function checkContractsOrOperators() internal view {\n        require(\n            (ownerOf() == _msgSender()) ||\n                isContract(_msgSender()) ||\n                isOperator(_msgSender()),\n            \"Allowance: caller must be Repository Contract or Operator\"\n        );\n    }\n\n    function exists(bytes32 k_) public view virtual override(Currencer,KeccakInverter) returns (bool)\n    {\n        return KeccakInverter.exists(k_);\n    }\n    function resolveAddressUInt256(bytes32 k_)\n        public\n        view virtual override (Currencer,KeccakInverter)\n        returns (address addr_, uint256 v_)\n    {\n        return KeccakInverter.resolveAddressUInt256(k_);\n    }    \n\n\n    function AddressUInt256(address addr_, uint256 v_)\n        public\n        virtual\n        override (Currencer,KeccakInverter)\n        returns (bytes32 k_)\n    {\n        return KeccakInverter.AddressUInt256(addr_, v_);\n    }\n\n\n    function isOperator(address caller_) public view returns (bool) {\n        if (caller_ == address(this)) return true;\n        return _operators.s_exist(caller_);\n    }\n\n    function isContract(address caller_) public view returns (bool) {\n        if (caller_ == address(this)) return true;\n        return _contracts.s_exist(caller_);\n    }\n\n    function removeOperator(address bot_) public onlyOperators {\n        _operators.remove(bot_);\n    }\n\n    function addOperator(address bot_) public onlyOperators {\n        _operators.insert(bot_);\n    }\n\n    function addTrustedCertifier(address certifier_) public onlyOperators  returns (bool){\n        return _addTrustedCertifier(certifier_);\n    }\n\n    function removeTrustedCertifier(address certifier_) public onlyOperators  returns (bool){\n        return _removeTrustedCertifier(certifier_);\n    }\n    function addTokenCertified(address token,uint256 tokenId) public onlyOperators returns (bool){\n        return _addContractCertified(token,tokenId);\n\n    }\n    function removeTokenCertified(address token,uint256 tokenId) public onlyOperators returns (bool){\n        return _removeContractCertified(token,tokenId);\n\n    }\n    function tokenForbiddenUnknownSet(bool forbiddenunknown_) public onlyOperators returns (bool) {\n        return _contractForbiddenUnknownSet(forbiddenunknown_);\n    }\n    function tokenForbiddenAdd(address token,uint256 tokenId) public onlyOperators returns (bool) {\n        return _contractForbiddenAdd(token,tokenId);\n    }\n    function tokenForbiddenRemove(address token,uint256 tokenId) public onlyOperators returns (bool) {\n        return _contractForbiddenRemove(token,tokenId);\n    }\n    function setContract(IRepositoryContract contract_) public onlyOperators {\n        require(contract_.supportsInterface(type(IRepositoryContract).interfaceId), \"contract must be IRepositoryContract\");\n        for (uint256 i; i < _funcs.length; i++)\n            delete _contractfunc[contract_.id()][_funcs[i]];\n        \n        _contracts.insert(address(contract_));\n        _repository[contract_.id()] = address(contract_);\n    }\n\n    function get(bytes32 hash_) public view returns (address) {\n        return _repository[hash_];\n    }\n\n    fallback() external virtual onlyContracts {\n        _funcs.insert(msg.sig);\n        for (uint256 i; i < _contracts.length; i++) {\n            if (_contracts[i] == _msgSender()) continue;\n            bytes32 contracthash = IRepositoryContract(_contracts[i]).id();\n            if (_contractfunc[contracthash][msg.sig] == FuncState.Absent) continue;\n            (bool success, ) = _contracts[i].call(msg.data);\n            if (_contractfunc[contracthash][msg.sig] == FuncState.Unknown)\n                _contractfunc[contracthash][msg.sig] = success ? FuncState.Present : FuncState.Absent;\n        }\n    }\n\n    /*function q() public view returns (address) {\n        return \n        [uint256(RepositoryType.Quotator)];\n    }\n\n    function setQuotator(address _contract) public onlyOperators {\n        set(RepositoryType.Quotator, _contract);\n    }\n\n    function r() public view returns (address) {\n        return \n        [uint256(RepositoryType.Random)];\n    }\n\n    function setRandom(address _contract) public onlyOperators {\n        set(RepositoryType.Random, _contract);\n    }\n\n    function d() public view returns (address) {\n        return \n        [uint256(RepositoryType.Delivery)];\n    }\n\n    function setDelivery(address _contract) public onlyOperators {\n        set(RepositoryType.Delivery, _contract);\n    }\n\n    function col() public view returns (address) {\n        return \n        [uint256(RepositoryType.Collateral)];\n    }\n\n    function setCollateral(address _contract) public onlyOperators {\n        set(RepositoryType.Collateral, _contract);\n    }\n\n    function b() public view returns (address) {\n        return \n        [uint256(RepositoryType.Bank)];\n    }\n\n    function setBank(address _contract) public onlyOperators {\n        set(RepositoryType.Bank, _contract);\n    }\n\n    function mo() public view returns (address) {\n        return \n        [uint256(RepositoryType.MarketOrder)];\n    }\n\n    function setMarketOrder(address _contract) public onlyOperators {\n        set(RepositoryType.MarketOrder, _contract);\n    }\n\n    function ms() public view returns (address) {\n        return \n        [uint256(RepositoryType.MarketSearch)];\n    }\n\n    function setMarketSearch(address _contract) public onlyOperators {\n        set(RepositoryType.MarketSearch, _contract);\n    }\n\n    function m() public view returns (address) {\n        return \n        [uint256(RepositoryType.Market)];\n    }\n\n    function setMarket(address _contract) public onlyOperators {\n        set(RepositoryType.Market, _contract);\n    }*/\n}\n","sourcePath":"contracts/Repository/Repository.sol","deployment":{"address":"0xB20B80e43a4b8B243a8145BCe486A5Cc48938725","chainid":"9997","blockHeight":12439}}