{"bytecode":"6123e961003a600b82828239805160001a60731461002d57634e487b7160e01b600052600060045260246000fd5b30600052607381538281f3fe73000000000000000000000000000000000000000030146080604052600436106100405760003560e01c8063b51b8e8214610045578063f7ba752914610070575b600080fd5b610058610053366004611967565b610090565b60405161006793929190611aeb565b60405180910390f35b61008361007e366004611b69565b61114f565b6040516100679190611ec6565b606060006100b860405180606001604052806000815260200160008152602001600081525090565b6040860151158061014457506040516370306fb360e11b815273__MarketLib_____________________________9063e060df66906100fb908790600401611ed9565b602060405180830381865af4158015610118573d6000803e3d6000fd5b505050506040513d601f19601f8201168201806040525081019061013c9190611eec565b866040015110155b6101d35760405162461bcd60e51b815260206004820152604f60248201527f726563757273655365617263682072657175697265207461726765745f2e717460448201527f793d3d30207c7c207461726765745f2e717479203e3d2073656172636861726760648201526e5f2e757365642e676574517479282960881b608482015260a4015b60405180910390fd5b600087895186516101e49190611f1b565b6101ee9190611f33565b6001600160401b038111156102055761020561160a565b60405190808252806020026020018201604052801561027257816020015b61025f6040518060c001604052806000815260200160008019168152602001600081526020016000815260200160008152602001606081525090565b8152602001906001900390816102235790505b50905060005b85518110156102cb5785818151811061029357610293611f4a565b60200260200101518282815181106102ad576102ad611f4a565b602002602001018190525080806102c390611f60565b915050610278565b508451888015610341575b8a51811015610341578a6102eb600183611f33565b815181106102fb576102fb611f4a565b6020026020010151606001518b828151811061031957610319611f4a565b6020026020010151606001511461032f57610341565b8061033981611f60565b9150506102d6565b8a5181101561114157604089015180156105f7576040516366628d2760e01b815273__MarketLib_____________________________906366628d279061038e9087908790600401611f7b565b602060405180830381865af41580156103ab573d6000803e3d6000fd5b505050506040513d601f19601f820116820180604052508101906103cf9190611eec565b81101561043c5760405162461bcd60e51b815260206004820152603560248201527f72656375727365536561726368207265717569726520717479203e3d20737461604482015274636b2e67657451747928737461636b636f756e742960581b60648201526084016101ca565b6040516366628d2760e01b815273__MarketLib_____________________________906366628d27906104759087908790600401611f7b565b602060405180830381865af4158015610492573d6000803e3d6000fd5b505050506040513d601f19601f820116820180604052508101906104b69190611eec565b6104c09082611f33565b905060008c83815181106104d6576104d6611f4a565b602002602001015160600151826104ed9190611fb3565b11156105f75789608001518015610505575089606001515b15610588575b60018c516105199190611f33565b821015610582578b61052c836001611f1b565b8151811061053c5761053c611f4a565b6020026020010151606001518c838151811061055a5761055a611f4a565b6020026020010151606001511461057057610582565b8161057a81611f60565b92505061050b565b5061112f565b89608001516105b4578b82815181106105a3576105a3611f4a565b6020026020010151606001516105b7565b60005b8c83815181106105c9576105c9611f4a565b602002602001015160600151826105e09190611fb3565b6105ea9083611f33565b6105f49190611f1b565b90505b80158061062957506106268c838151811061061457610614611f4a565b60200260200101518a606001516113f1565b81115b15610646576106438c838151811061061457610614611f4a565b90505b8b828151811061065857610658611f4a565b602002602001015160600151811015610671575061112f565b6020890151158015906106a4575088602001518c838151811061069657610696611f4a565b602002602001015160800151115b1561085857600089602001518d84815181106106c2576106c2611f4a565b6020026020010151608001516106d89190611f33565b604051636926b1ff60e11b815273__MarketLib_____________________________9063d24d63fe906107119089908990600401611f7b565b602060405180830381865af415801561072e573d6000803e3d6000fd5b505050506040513d601f19601f820116820180604052508101906107529190611eec565b60208c01516040516366628d2760e01b8152670de0b6b3a7640000919073__MarketLib_____________________________906366628d279061079b908c908c90600401611f7b565b602060405180830381865af41580156107b8573d6000803e3d6000fd5b505050506040513d601f19601f820116820180604052508101906107dc9190611eec565b6107e69190611fc7565b6107f09190611fe6565b6107fa9190611f33565b61080c90670de0b6b3a7640000611fc7565b6108169190611fe6565b905080821115610856578c838151811061083257610832611f4a565b602002602001015160600151816108499190611fb3565b6108539082611f33565b91505b505b60408901511561096b5760008c838151811061087657610876611f4a565b6020026020010151608001518573__MarketLib_____________________________63d24d63fe9091876040518363ffffffff1660e01b81526004016108bd929190611f7b565b602060405180830381865af41580156108da573d6000803e3d6000fd5b505050506040513d601f19601f820116820180604052508101906108fe9190611eec565b8b6040015161090d9190611f33565b61091f90670de0b6b3a7640000611fc7565b6109299190611fe6565b905080821115610969578c838151811061094557610945611f4a565b6020026020010151606001518161095c9190611fb3565b6109669082611f33565b91505b505b8b828151811061097d5761097d611f4a565b602002602001015160600151811015610a08575b60018c5161099f9190611f33565b821015610582578b6109b2836001611f1b565b815181106109c2576109c2611f4a565b6020026020010151606001518c83815181106109e0576109e0611f4a565b602002602001015160600151146109f657610582565b81610a0081611f60565b925050610991565b60408a015115801590610a9757506040516366628d2760e01b815273__MarketLib_____________________________906366628d2790610a4f9087908790600401611f7b565b602060405180830381865af4158015610a6c573d6000803e3d6000fd5b505050506040513d601f19601f82011682018060405250810190610a909190611eec565b8a60400151115b15610b6b5760008080610b348f610aaf876001611f1b565b8f8f8b73__MarketLib_____________________________63f31d34b2909160008e6040518463ffffffff1660e01b8152600401610aef93929190611ffa565b600060405180830381865af4158015610b0c573d6000803e3d6000fd5b505050506040513d6000823e601f3d908101601f19168201604052610053919081019061216a565b92509250925081600014610b6757610b588d8d8b8b602001518686602001516114a1565b15610b67578299508198508097505b5050505b8b8281518110610b7d57610b7d611f4a565b602002602001015160000151848481518110610b9b57610b9b611f4a565b602002602001015160000181815250508b8281518110610bbd57610bbd611f4a565b602002602001015160200151848481518110610bdb57610bdb611f4a565b6020026020010151602001818152505080848481518110610bfe57610bfe611f4a565b602002602001015160400181815250508b8281518110610c2057610c20611f4a565b602002602001015160600151848481518110610c3e57610c3e611f4a565b602002602001015160600181815250508b8281518110610c6057610c60611f4a565b602002602001015160800151848481518110610c7e57610c7e611f4a565b602002602001015160800181815250508b8281518110610ca057610ca0611f4a565b602002602001015160a00151848481518110610cbe57610cbe611f4a565b602002602001015160a001819052508280610cd890611f60565b935050610de18a8a8888602001518873__MarketLib_____________________________6366628d2790918a6040518363ffffffff1660e01b8152600401610d21929190611f7b565b602060405180830381865af4158015610d3e573d6000803e3d6000fd5b505050506040513d601f19601f82011682018060405250810190610d629190611eec565b6040516326c67c8b60e21b815273__MarketLib_____________________________90639b19f22c90610d9b908d908d90600401611f7b565b602060405180830381865af4158015610db8573d6000803e3d6000fd5b505050506040513d601f19601f82011682018060405250810190610ddc9190611eec565b6114a1565b15610ffe5760405163798e9a5960e11b815273__MarketLib_____________________________9063f31d34b290610e229087906000908890600401611ffa565b600060405180830381865af4158015610e3f573d6000803e3d6000fd5b505050506040513d6000823e601f3d908101601f19168201604052610e67919081019061216a565b965060405180606001604052806000815260200160008152602001600081525094506000955060005b8751811015610fe75785511580610ec75750878181518110610eb457610eb4611f4a565b6020026020010151608001518660000151115b15610ef057878181518110610ede57610ede611f4a565b60209081029190910101516080015186525b60408601511580610f215750878181518110610f0e57610f0e611f4a565b6020026020010151608001518660400151105b15610f4e57878181518110610f3857610f38611f4a565b6020026020010151608001518660400181815250505b878181518110610f6057610f60611f4a565b602002602001015160800151888281518110610f7e57610f7e611f4a565b602002602001015160400151610f949190611fc7565b86602001818151610fa59190611f1b565b9052508751889082908110610fbc57610fbc611f4a565b60200260200101516040015187610fd39190611f1b565b965080610fdf81611f60565b915050610e90565b508585602001818151610ffa9190611fe6565b9052505b60408a01511580159061108e57506040516366628d2760e01b815273__MarketLib_____________________________906366628d27906110459087908790600401611f7b565b602060405180830381865af4158015611062573d6000803e3d6000fd5b505050506040513d601f19601f820116820180604052508101906110869190611eec565b8a6040015111155b156110995750611141565b6110ae8c838151811061061457610614611f4a565b81101561112d575b60018c516110c49190611f33565b82101561112d578b6110d7836001611f1b565b815181106110e7576110e7611f4a565b6020026020010151606001518c838151811061110557611105611f4a565b6020026020010151606001511461111b5761112d565b8161112581611f60565b9250506110b6565b505b8061113981611f60565b915050610341565b505050955095509592505050565b611157611568565b61115f6115b2565b60408601515160005b8181101561134157868860400151828151811061118757611187611f4a565b6020026020010151600001516000815181106111a5576111a5611f4a565b60200260200101511480156112235750855160408901518051839081106111ce576111ce611f4a565b60200260200101516000015160018a6040015184815181106111f2576111f2611f4a565b602002602001015160000151516112099190611f33565b8151811061121957611219611f4a565b6020026020010151145b1561128b576020830151158061126557508760400151818151811061124a5761124a611f4a565b60200260200101516040015160200151836040015160200151115b1561128b578760400151818151811061128057611280611f4a565b602002602001015192505b8373__MarketLib_____________________________637513ce1b90918a6040015184815181106112be576112be611f4a565b60200260200101518b606001516040518463ffffffff1660e01b81526004016112e99392919061219e565b600060405180830381865af4158015611306573d6000803e3d6000fd5b505050506040513d6000823e601f3d908101601f1916820160405261132e9190810190612211565b508061133981611f60565b915050611168565b50506020810151156113e85760208082015183526040808301519184019190915260608701519051637513ce1b60e01b815273__MarketLib_____________________________91637513ce1b916113a091869186919060040161219e565b600060405180830381865af41580156113bd573d6000803e3d6000fd5b505050506040513d6000823e601f3d908101601f191682016040526113e59190810190612211565b91505b50949350505050565b8151604051635640453d60e01b815260009173__MarketLib_____________________________91635640453d9161142e91869190600401611f7b565b602060405180830381865af415801561144b573d6000803e3d6000fd5b505050506040513d601f19601f8201168201806040525081019061146f9190611eec565b836040015161147e9190611f33565b90508260600151816114909190611fb3565b61149a9082611f33565b9392505050565b600086604001516000146114f157866080015180156114c35750866040015183115b156114d05750600061155e565b866060015180156114e45750866040015183105b156114f15750600061155e565b846114fe5750600161155e565b6040870151611510575083821161155e565b8660400151831115611538576115268486611fc7565b6115308385611fc7565b10905061155e565b848311156115485750600161155e565b8483141561155a576115268486611fc7565b5060005b9695505050505050565b60405180608001604052806000815260200161159e60405180606001604052806000815260200160008152602001600081525090565b815260200160608152602001606081525090565b6040518060c0016040528060608152602001600081526020016115ef60405180606001604052806000815260200160008152602001600081525090565b81526020016000815260200160008152602001606081525090565b634e487b7160e01b600052604160045260246000fd5b60405160c081016001600160401b03811182821017156116425761164261160a565b60405290565b60405160e081016001600160401b03811182821017156116425761164261160a565b604051608081016001600160401b03811182821017156116425761164261160a565b604051606081016001600160401b03811182821017156116425761164261160a565b604051601f8201601f191681016001600160401b03811182821017156116d6576116d661160a565b604052919050565b60006001600160401b038211156116f7576116f761160a565b5060051b60200190565b600082601f83011261171257600080fd5b81356020611727611722836116de565b6116ae565b82815260059290921b8401810191818101908684111561174657600080fd5b8286015b84811015611761578035835291830191830161174a565b509695505050505050565b600082601f83011261177d57600080fd5b8135602061178d611722836116de565b82815260059290921b840181019181810190868411156117ac57600080fd5b8286015b848110156117615780356001600160401b03808211156117d05760008081fd5b9088019060c0828b03601f19018113156117ea5760008081fd5b6117f2611620565b87840135815260408085013589830152606080860135828401526080915081860135818401525060a080860135828401528386013593508484111561183957600091508182fd5b6118478e8b86890101611701565b908301525086525050509183019183016117b0565b8035801515811461186c57600080fd5b919050565b600060e0828403121561188357600080fd5b61188b611648565b90508135815260208201356020820152604082013560408201526118b16060830161185c565b60608201526118c26080830161185c565b608082015260a082013560a082015260c08201356001600160401b038111156118ea57600080fd5b6118f684828501611701565b60c08301525092915050565b60006080828403121561191457600080fd5b61191c61166a565b905081358152602082013560208201526040820135604082015260608201356001600160401b0381111561194f57600080fd5b61195b8482850161176c565b60608301525092915050565b600080600080600060a0868803121561197f57600080fd5b85356001600160401b038082111561199657600080fd5b6119a289838a0161176c565b96506020880135955060408801359150808211156119bf57600080fd5b6119cb89838a01611871565b945060608801359150808211156119e157600080fd5b6119ed89838a01611902565b93506080880135915080821115611a0357600080fd5b50611a108882890161176c565b9150509295509295909350565b600081518084526020808501945080840160005b83811015611a4d57815187529582019590820190600101611a31565b509495945050505050565b600081518084526020808501808196508360051b8101915082860160005b85811015611ade578284038952815180518552858101518686015260408082015190860152606080820151908601526080808201519086015260a09081015160c091860182905290611aca81870183611a1d565b9a87019a9550505090840190600101611a76565b5091979650505050505050565b60a081526000611afe60a0830186611a58565b9050836020830152611b2760408301848051825260208082015190830152604090810151910152565b949350505050565b600060608284031215611b4157600080fd5b611b4961168c565b905081358152602082013560208201526040820135604082015292915050565b60008060008060808587031215611b7f57600080fd5b6001600160401b038086351115611b9557600080fd5b60c08635870188031215611ba857600080fd5b611bb061166a565b8635870180358252611bc6908990602001611b2f565b60208201528160808835890101351115611bdf57600080fd5b86358701608081013501601f81018913611bf857600080fd5b611c0561172282356116de565b81358082526020808301929160051b8401018b1015611c2357600080fd5b602083015b6020843560051b850101811015611cf7578581351115611c4757600080fd5b80358401610100818e03601f19011215611c6057600080fd5b611c68611620565b8760208301351115611c7957600080fd5b611c8b8e602080850135850101611701565b815260408201356020820152611ca48e60608401611b2f565b604082015260c0820135606082015260e08201356080820152876101008301351115611ccf57600080fd5b611ce38e6020610100850135850101611701565b60a082015284525060209283019201611c28565b50604084015250508635870160a00135821015611d1357600080fd5b611d26888835890160a08101350161176c565b60608201529450602086013593506040860135811015611d4557600080fd5b611d558760408801358801611871565b92508060608701351115611d6857600080fd5b50611d798660608701358701611902565b905092959194509250565b80516101008084528151908401819052600091610120850191602091820190845b81811015611dc157825185529383019391830191600101611da5565b50505083810151908501526040808401518051828701526020810151606087015290810151608086015250606083015160a0850152608083015160c085015260a083015184820360e0860152611e178282611a1d565b95945050505050565b600060c0830182518452602080840151611e50828701828051825260208082015190830152604090810151910152565b50604084015160c0608087015282815180855260e08801915060e08160051b8901019450838301925060005b81811015611eaa5760df19898703018352611e98868551611d84565b95509284019291840191600101611e7c565b5050505050606083015184820360a0860152611e178282611a58565b60208152600061149a6020830184611e20565b60208152600061149a6020830184611a58565b600060208284031215611efe57600080fd5b5051919050565b634e487b7160e01b600052601160045260246000fd5b60008219821115611f2e57611f2e611f05565b500190565b600082821015611f4557611f45611f05565b500390565b634e487b7160e01b600052603260045260246000fd5b6000600019821415611f7457611f74611f05565b5060010190565b604081526000611f8e6040830185611a58565b90508260208301529392505050565b634e487b7160e01b600052601260045260246000fd5b600082611fc257611fc2611f9d565b500690565b6000816000190483118215151615611fe157611fe1611f05565b500290565b600082611ff557611ff5611f9d565b500490565b60608152600061200d6060830186611a58565b60208301949094525060400152919050565b600082601f83011261203057600080fd5b81516020612040611722836116de565b82815260059290921b8401810191818101908684111561205f57600080fd5b8286015b848110156117615780518352918301918301612063565b600082601f83011261208b57600080fd5b8151602061209b611722836116de565b82815260059290921b840181019181810190868411156120ba57600080fd5b8286015b848110156117615780516001600160401b03808211156120de5760008081fd5b9088019060c0828b03601f19018113156120f85760008081fd5b612100611620565b87840151815260408085015189830152606080860151828401526080915081860151818401525060a080860151828401528386015193508484111561214757600091508182fd5b6121558e8b8689010161201f565b908301525086525050509183019183016120be565b60006020828403121561217c57600080fd5b81516001600160401b0381111561219257600080fd5b611b278482850161207a565b6060815260006121b16060830186611e20565b82810360208401526121c38186611d84565b905082810360408401526113e58185611a58565b6000606082840312156121e957600080fd5b6121f161168c565b905081518152602082015160208201526040820151604082015292915050565b6000602080838503121561222457600080fd5b82516001600160401b038082111561223b57600080fd5b9084019060c0828703121561224f57600080fd5b61225761166a565b82518152612267878585016121d7565b8482015260808301518281111561227d57600080fd5b8301601f8101881361228e57600080fd5b805161229c611722826116de565b81815260059190911b8201860190868101908a8311156122bb57600080fd5b8784015b8381101561237b578051878111156122d657600080fd5b8501610100818e03601f190112156122ed57600080fd5b6122f5611620565b8a8201518981111561230657600080fd5b6123148f8d8386010161201f565b82525060408201518b82015261232d8e606084016121d7565b604082015260c0820151606082015260e082015160808201526101008201518981111561235957600080fd5b6123678f8d8386010161201f565b60a0830152508452509188019188016122bf565b50604085015250505060a083015193508184111561239857600080fd5b6123a48785850161207a565b6060820152969550505050505056fea2646970667358221220eb2c37b4893eea5a34601d3be149c76feb1b74cb10f0d210a3438a361f7a484f64736f6c634300080b0033","bytecodeSha1":"541b40c4f8054331f18139e1b6ed4176ab18317d","type":"library","abi":[{"inputs":[{"components":[{"internalType":"uint256","name":"orderid","type":"uint256"},{"internalType":"bytes32","name":"addr","type":"bytes32"},{"internalType":"uint256","name":"qty","type":"uint256"},{"internalType":"uint256","name":"granularity","type":"uint256"},{"internalType":"uint256","name":"quote","type":"uint256"},{"internalType":"uint256[]","name":"delivery","type":"uint256[]"}],"internalType":"struct Solution[]","name":"in_","type":"tuple[]"},{"internalType":"uint256","name":"start_","type":"uint256"},{"components":[{"internalType":"bytes32","name":"currency","type":"bytes32"},{"internalType":"uint256","name":"mingranularity","type":"uint256"},{"internalType":"uint256","name":"qty","type":"uint256"},{"internalType":"bool","name":"qtyismin","type":"bool"},{"internalType":"bool","name":"qtyismax","type":"bool"},{"internalType":"uint256","name":"maxcount","type":"uint256"},{"internalType":"uint256[]","name":"delivery","type":"uint256[]"}],"internalType":"struct MarketSearch.SearchArgTarget","name":"target_","type":"tuple"},{"components":[{"internalType":"uint256","name":"maxquote","type":"uint256"},{"internalType":"uint256","name":"maxavgquote","type":"uint256"},{"internalType":"uint256","name":"maxtotal","type":"uint256"},{"components":[{"internalType":"uint256","name":"orderid","type":"uint256"},{"internalType":"bytes32","name":"addr","type":"bytes32"},{"internalType":"uint256","name":"qty","type":"uint256"},{"internalType":"uint256","name":"granularity","type":"uint256"},{"internalType":"uint256","name":"quote","type":"uint256"},{"internalType":"uint256[]","name":"delivery","type":"uint256[]"}],"internalType":"struct Solution[]","name":"used","type":"tuple[]"}],"internalType":"struct MarketSearch.SearchArg","name":"searcharg_","type":"tuple"},{"components":[{"internalType":"uint256","name":"orderid","type":"uint256"},{"internalType":"bytes32","name":"addr","type":"bytes32"},{"internalType":"uint256","name":"qty","type":"uint256"},{"internalType":"uint256","name":"granularity","type":"uint256"},{"internalType":"uint256","name":"quote","type":"uint256"},{"internalType":"uint256[]","name":"delivery","type":"uint256[]"}],"internalType":"struct Solution[]","name":"recursestack_","type":"tuple[]"}],"name":"recurseSearch","outputs":[{"components":[{"internalType":"uint256","name":"orderid","type":"uint256"},{"internalType":"bytes32","name":"addr","type":"bytes32"},{"internalType":"uint256","name":"qty","type":"uint256"},{"internalType":"uint256","name":"granularity","type":"uint256"},{"internalType":"uint256","name":"quote","type":"uint256"},{"internalType":"uint256[]","name":"delivery","type":"uint256[]"}],"internalType":"struct Solution[]","name":"out_","type":"tuple[]"},{"internalType":"uint256","name":"qty_","type":"uint256"},{"components":[{"internalType":"uint256","name":"quotemin","type":"uint256"},{"internalType":"uint256","name":"quoteavg","type":"uint256"},{"internalType":"uint256","name":"quotemax","type":"uint256"}],"internalType":"struct Quote","name":"quote_","type":"tuple"}],"stateMutability":"pure","type":"function"},{"inputs":[{"components":[{"internalType":"uint256","name":"qty","type":"uint256"},{"components":[{"internalType":"uint256","name":"quotemin","type":"uint256"},{"internalType":"uint256","name":"quoteavg","type":"uint256"},{"internalType":"uint256","name":"quotemax","type":"uint256"}],"internalType":"struct Quote","name":"quote","type":"tuple"},{"components":[{"internalType":"bytes32[]","name":"path","type":"bytes32[]"},{"internalType":"uint256","name":"qty","type":"uint256"},{"components":[{"internalType":"uint256","name":"quotemin","type":"uint256"},{"internalType":"uint256","name":"quoteavg","type":"uint256"},{"internalType":"uint256","name":"quotemax","type":"uint256"}],"internalType":"struct Quote","name":"quote","type":"tuple"},{"internalType":"uint256","name":"start","type":"uint256"},{"internalType":"uint256","name":"count","type":"uint256"},{"internalType":"uint256[]","name":"offset","type":"uint256[]"}],"internalType":"struct SolutionSetDesc[]","name":"descs","type":"tuple[]"},{"components":[{"internalType":"uint256","name":"orderid","type":"uint256"},{"internalType":"bytes32","name":"addr","type":"bytes32"},{"internalType":"uint256","name":"qty","type":"uint256"},{"internalType":"uint256","name":"granularity","type":"uint256"},{"internalType":"uint256","name":"quote","type":"uint256"},{"internalType":"uint256[]","name":"delivery","type":"uint256[]"}],"internalType":"struct Solution[]","name":"solutions","type":"tuple[]"}],"internalType":"struct SolutionSet","name":"in_","type":"tuple"},{"internalType":"bytes32","name":"current_","type":"bytes32"},{"components":[{"internalType":"bytes32","name":"currency","type":"bytes32"},{"internalType":"uint256","name":"mingranularity","type":"uint256"},{"internalType":"uint256","name":"qty","type":"uint256"},{"internalType":"bool","name":"qtyismin","type":"bool"},{"internalType":"bool","name":"qtyismax","type":"bool"},{"internalType":"uint256","name":"maxcount","type":"uint256"},{"internalType":"uint256[]","name":"delivery","type":"uint256[]"}],"internalType":"struct MarketSearch.SearchArgTarget","name":"target_","type":"tuple"},{"components":[{"internalType":"uint256","name":"maxquote","type":"uint256"},{"internalType":"uint256","name":"maxavgquote","type":"uint256"},{"internalType":"uint256","name":"maxtotal","type":"uint256"},{"components":[{"internalType":"uint256","name":"orderid","type":"uint256"},{"internalType":"bytes32","name":"addr","type":"bytes32"},{"internalType":"uint256","name":"qty","type":"uint256"},{"internalType":"uint256","name":"granularity","type":"uint256"},{"internalType":"uint256","name":"quote","type":"uint256"},{"internalType":"uint256[]","name":"delivery","type":"uint256[]"}],"internalType":"struct Solution[]","name":"used","type":"tuple[]"}],"internalType":"struct MarketSearch.SearchArg","name":"searcharg_","type":"tuple"}],"name":"recurseSearchCFilter","outputs":[{"components":[{"internalType":"uint256","name":"qty","type":"uint256"},{"components":[{"internalType":"uint256","name":"quotemin","type":"uint256"},{"internalType":"uint256","name":"quoteavg","type":"uint256"},{"internalType":"uint256","name":"quotemax","type":"uint256"}],"internalType":"struct Quote","name":"quote","type":"tuple"},{"components":[{"internalType":"bytes32[]","name":"path","type":"bytes32[]"},{"internalType":"uint256","name":"qty","type":"uint256"},{"components":[{"internalType":"uint256","name":"quotemin","type":"uint256"},{"internalType":"uint256","name":"quoteavg","type":"uint256"},{"internalType":"uint256","name":"quotemax","type":"uint256"}],"internalType":"struct Quote","name":"quote","type":"tuple"},{"internalType":"uint256","name":"start","type":"uint256"},{"internalType":"uint256","name":"count","type":"uint256"},{"internalType":"uint256[]","name":"offset","type":"uint256[]"}],"internalType":"struct SolutionSetDesc[]","name":"descs","type":"tuple[]"},{"components":[{"internalType":"uint256","name":"orderid","type":"uint256"},{"internalType":"bytes32","name":"addr","type":"bytes32"},{"internalType":"uint256","name":"qty","type":"uint256"},{"internalType":"uint256","name":"granularity","type":"uint256"},{"internalType":"uint256","name":"quote","type":"uint256"},{"internalType":"uint256[]","name":"delivery","type":"uint256[]"}],"internalType":"struct Solution[]","name":"solutions","type":"tuple[]"}],"internalType":"struct SolutionSet","name":"out_","type":"tuple"}],"stateMutability":"pure","type":"function"}],"compiler":{"version":"0.8.11+commit.d7f03943","evm_version":"istanbul","optimizer":{"enabled":true,"runs":200}},"contractName":"MarketSearchLib","deployedBytecode":"73000000000000000000000000000000000000000030146080604052600436106100405760003560e01c8063b51b8e8214610045578063f7ba752914610070575b600080fd5b610058610053366004611967565b610090565b60405161006793929190611aeb565b60405180910390f35b61008361007e366004611b69565b61114f565b6040516100679190611ec6565b606060006100b860405180606001604052806000815260200160008152602001600081525090565b6040860151158061014457506040516370306fb360e11b815273__$2fc864095126d4d9b433a37f83d02318c7$__9063e060df66906100fb908790600401611ed9565b602060405180830381865af4158015610118573d6000803e3d6000fd5b505050506040513d601f19601f8201168201806040525081019061013c9190611eec565b866040015110155b6101d35760405162461bcd60e51b815260206004820152604f60248201527f726563757273655365617263682072657175697265207461726765745f2e717460448201527f793d3d30207c7c207461726765745f2e717479203e3d2073656172636861726760648201526e5f2e757365642e676574517479282960881b608482015260a4015b60405180910390fd5b600087895186516101e49190611f1b565b6101ee9190611f33565b6001600160401b038111156102055761020561160a565b60405190808252806020026020018201604052801561027257816020015b61025f6040518060c001604052806000815260200160008019168152602001600081526020016000815260200160008152602001606081525090565b8152602001906001900390816102235790505b50905060005b85518110156102cb5785818151811061029357610293611f4a565b60200260200101518282815181106102ad576102ad611f4a565b602002602001018190525080806102c390611f60565b915050610278565b508451888015610341575b8a51811015610341578a6102eb600183611f33565b815181106102fb576102fb611f4a565b6020026020010151606001518b828151811061031957610319611f4a565b6020026020010151606001511461032f57610341565b8061033981611f60565b9150506102d6565b8a5181101561114157604089015180156105f7576040516366628d2760e01b815273__$2fc864095126d4d9b433a37f83d02318c7$__906366628d279061038e9087908790600401611f7b565b602060405180830381865af41580156103ab573d6000803e3d6000fd5b505050506040513d601f19601f820116820180604052508101906103cf9190611eec565b81101561043c5760405162461bcd60e51b815260206004820152603560248201527f72656375727365536561726368207265717569726520717479203e3d20737461604482015274636b2e67657451747928737461636b636f756e742960581b60648201526084016101ca565b6040516366628d2760e01b815273__$2fc864095126d4d9b433a37f83d02318c7$__906366628d27906104759087908790600401611f7b565b602060405180830381865af4158015610492573d6000803e3d6000fd5b505050506040513d601f19601f820116820180604052508101906104b69190611eec565b6104c09082611f33565b905060008c83815181106104d6576104d6611f4a565b602002602001015160600151826104ed9190611fb3565b11156105f75789608001518015610505575089606001515b15610588575b60018c516105199190611f33565b821015610582578b61052c836001611f1b565b8151811061053c5761053c611f4a565b6020026020010151606001518c838151811061055a5761055a611f4a565b6020026020010151606001511461057057610582565b8161057a81611f60565b92505061050b565b5061112f565b89608001516105b4578b82815181106105a3576105a3611f4a565b6020026020010151606001516105b7565b60005b8c83815181106105c9576105c9611f4a565b602002602001015160600151826105e09190611fb3565b6105ea9083611f33565b6105f49190611f1b565b90505b80158061062957506106268c838151811061061457610614611f4a565b60200260200101518a606001516113f1565b81115b15610646576106438c838151811061061457610614611f4a565b90505b8b828151811061065857610658611f4a565b602002602001015160600151811015610671575061112f565b6020890151158015906106a4575088602001518c838151811061069657610696611f4a565b602002602001015160800151115b1561085857600089602001518d84815181106106c2576106c2611f4a565b6020026020010151608001516106d89190611f33565b604051636926b1ff60e11b815273__$2fc864095126d4d9b433a37f83d02318c7$__9063d24d63fe906107119089908990600401611f7b565b602060405180830381865af415801561072e573d6000803e3d6000fd5b505050506040513d601f19601f820116820180604052508101906107529190611eec565b60208c01516040516366628d2760e01b8152670de0b6b3a7640000919073__$2fc864095126d4d9b433a37f83d02318c7$__906366628d279061079b908c908c90600401611f7b565b602060405180830381865af41580156107b8573d6000803e3d6000fd5b505050506040513d601f19601f820116820180604052508101906107dc9190611eec565b6107e69190611fc7565b6107f09190611fe6565b6107fa9190611f33565b61080c90670de0b6b3a7640000611fc7565b6108169190611fe6565b905080821115610856578c838151811061083257610832611f4a565b602002602001015160600151816108499190611fb3565b6108539082611f33565b91505b505b60408901511561096b5760008c838151811061087657610876611f4a565b6020026020010151608001518573__$2fc864095126d4d9b433a37f83d02318c7$__63d24d63fe9091876040518363ffffffff1660e01b81526004016108bd929190611f7b565b602060405180830381865af41580156108da573d6000803e3d6000fd5b505050506040513d601f19601f820116820180604052508101906108fe9190611eec565b8b6040015161090d9190611f33565b61091f90670de0b6b3a7640000611fc7565b6109299190611fe6565b905080821115610969578c838151811061094557610945611f4a565b6020026020010151606001518161095c9190611fb3565b6109669082611f33565b91505b505b8b828151811061097d5761097d611f4a565b602002602001015160600151811015610a08575b60018c5161099f9190611f33565b821015610582578b6109b2836001611f1b565b815181106109c2576109c2611f4a565b6020026020010151606001518c83815181106109e0576109e0611f4a565b602002602001015160600151146109f657610582565b81610a0081611f60565b925050610991565b60408a015115801590610a9757506040516366628d2760e01b815273__$2fc864095126d4d9b433a37f83d02318c7$__906366628d2790610a4f9087908790600401611f7b565b602060405180830381865af4158015610a6c573d6000803e3d6000fd5b505050506040513d601f19601f82011682018060405250810190610a909190611eec565b8a60400151115b15610b6b5760008080610b348f610aaf876001611f1b565b8f8f8b73__$2fc864095126d4d9b433a37f83d02318c7$__63f31d34b2909160008e6040518463ffffffff1660e01b8152600401610aef93929190611ffa565b600060405180830381865af4158015610b0c573d6000803e3d6000fd5b505050506040513d6000823e601f3d908101601f19168201604052610053919081019061216a565b92509250925081600014610b6757610b588d8d8b8b602001518686602001516114a1565b15610b67578299508198508097505b5050505b8b8281518110610b7d57610b7d611f4a565b602002602001015160000151848481518110610b9b57610b9b611f4a565b602002602001015160000181815250508b8281518110610bbd57610bbd611f4a565b602002602001015160200151848481518110610bdb57610bdb611f4a565b6020026020010151602001818152505080848481518110610bfe57610bfe611f4a565b602002602001015160400181815250508b8281518110610c2057610c20611f4a565b602002602001015160600151848481518110610c3e57610c3e611f4a565b602002602001015160600181815250508b8281518110610c6057610c60611f4a565b602002602001015160800151848481518110610c7e57610c7e611f4a565b602002602001015160800181815250508b8281518110610ca057610ca0611f4a565b602002602001015160a00151848481518110610cbe57610cbe611f4a565b602002602001015160a001819052508280610cd890611f60565b935050610de18a8a8888602001518873__$2fc864095126d4d9b433a37f83d02318c7$__6366628d2790918a6040518363ffffffff1660e01b8152600401610d21929190611f7b565b602060405180830381865af4158015610d3e573d6000803e3d6000fd5b505050506040513d601f19601f82011682018060405250810190610d629190611eec565b6040516326c67c8b60e21b815273__$2fc864095126d4d9b433a37f83d02318c7$__90639b19f22c90610d9b908d908d90600401611f7b565b602060405180830381865af4158015610db8573d6000803e3d6000fd5b505050506040513d601f19601f82011682018060405250810190610ddc9190611eec565b6114a1565b15610ffe5760405163798e9a5960e11b815273__$2fc864095126d4d9b433a37f83d02318c7$__9063f31d34b290610e229087906000908890600401611ffa565b600060405180830381865af4158015610e3f573d6000803e3d6000fd5b505050506040513d6000823e601f3d908101601f19168201604052610e67919081019061216a565b965060405180606001604052806000815260200160008152602001600081525094506000955060005b8751811015610fe75785511580610ec75750878181518110610eb457610eb4611f4a565b6020026020010151608001518660000151115b15610ef057878181518110610ede57610ede611f4a565b60209081029190910101516080015186525b60408601511580610f215750878181518110610f0e57610f0e611f4a565b6020026020010151608001518660400151105b15610f4e57878181518110610f3857610f38611f4a565b6020026020010151608001518660400181815250505b878181518110610f6057610f60611f4a565b602002602001015160800151888281518110610f7e57610f7e611f4a565b602002602001015160400151610f949190611fc7565b86602001818151610fa59190611f1b565b9052508751889082908110610fbc57610fbc611f4a565b60200260200101516040015187610fd39190611f1b565b965080610fdf81611f60565b915050610e90565b508585602001818151610ffa9190611fe6565b9052505b60408a01511580159061108e57506040516366628d2760e01b815273__$2fc864095126d4d9b433a37f83d02318c7$__906366628d27906110459087908790600401611f7b565b602060405180830381865af4158015611062573d6000803e3d6000fd5b505050506040513d601f19601f820116820180604052508101906110869190611eec565b8a6040015111155b156110995750611141565b6110ae8c838151811061061457610614611f4a565b81101561112d575b60018c516110c49190611f33565b82101561112d578b6110d7836001611f1b565b815181106110e7576110e7611f4a565b6020026020010151606001518c838151811061110557611105611f4a565b6020026020010151606001511461111b5761112d565b8161112581611f60565b9250506110b6565b505b8061113981611f60565b915050610341565b505050955095509592505050565b611157611568565b61115f6115b2565b60408601515160005b8181101561134157868860400151828151811061118757611187611f4a565b6020026020010151600001516000815181106111a5576111a5611f4a565b60200260200101511480156112235750855160408901518051839081106111ce576111ce611f4a565b60200260200101516000015160018a6040015184815181106111f2576111f2611f4a565b602002602001015160000151516112099190611f33565b8151811061121957611219611f4a565b6020026020010151145b1561128b576020830151158061126557508760400151818151811061124a5761124a611f4a565b60200260200101516040015160200151836040015160200151115b1561128b578760400151818151811061128057611280611f4a565b602002602001015192505b8373__$2fc864095126d4d9b433a37f83d02318c7$__637513ce1b90918a6040015184815181106112be576112be611f4a565b60200260200101518b606001516040518463ffffffff1660e01b81526004016112e99392919061219e565b600060405180830381865af4158015611306573d6000803e3d6000fd5b505050506040513d6000823e601f3d908101601f1916820160405261132e9190810190612211565b508061133981611f60565b915050611168565b50506020810151156113e85760208082015183526040808301519184019190915260608701519051637513ce1b60e01b815273__$2fc864095126d4d9b433a37f83d02318c7$__91637513ce1b916113a091869186919060040161219e565b600060405180830381865af41580156113bd573d6000803e3d6000fd5b505050506040513d6000823e601f3d908101601f191682016040526113e59190810190612211565b91505b50949350505050565b8151604051635640453d60e01b815260009173__$2fc864095126d4d9b433a37f83d02318c7$__91635640453d9161142e91869190600401611f7b565b602060405180830381865af415801561144b573d6000803e3d6000fd5b505050506040513d601f19601f8201168201806040525081019061146f9190611eec565b836040015161147e9190611f33565b90508260600151816114909190611fb3565b61149a9082611f33565b9392505050565b600086604001516000146114f157866080015180156114c35750866040015183115b156114d05750600061155e565b866060015180156114e45750866040015183105b156114f15750600061155e565b846114fe5750600161155e565b6040870151611510575083821161155e565b8660400151831115611538576115268486611fc7565b6115308385611fc7565b10905061155e565b848311156115485750600161155e565b8483141561155a576115268486611fc7565b5060005b9695505050505050565b60405180608001604052806000815260200161159e60405180606001604052806000815260200160008152602001600081525090565b815260200160608152602001606081525090565b6040518060c0016040528060608152602001600081526020016115ef60405180606001604052806000815260200160008152602001600081525090565b81526020016000815260200160008152602001606081525090565b634e487b7160e01b600052604160045260246000fd5b60405160c081016001600160401b03811182821017156116425761164261160a565b60405290565b60405160e081016001600160401b03811182821017156116425761164261160a565b604051608081016001600160401b03811182821017156116425761164261160a565b604051606081016001600160401b03811182821017156116425761164261160a565b604051601f8201601f191681016001600160401b03811182821017156116d6576116d661160a565b604052919050565b60006001600160401b038211156116f7576116f761160a565b5060051b60200190565b600082601f83011261171257600080fd5b81356020611727611722836116de565b6116ae565b82815260059290921b8401810191818101908684111561174657600080fd5b8286015b84811015611761578035835291830191830161174a565b509695505050505050565b600082601f83011261177d57600080fd5b8135602061178d611722836116de565b82815260059290921b840181019181810190868411156117ac57600080fd5b8286015b848110156117615780356001600160401b03808211156117d05760008081fd5b9088019060c0828b03601f19018113156117ea5760008081fd5b6117f2611620565b87840135815260408085013589830152606080860135828401526080915081860135818401525060a080860135828401528386013593508484111561183957600091508182fd5b6118478e8b86890101611701565b908301525086525050509183019183016117b0565b8035801515811461186c57600080fd5b919050565b600060e0828403121561188357600080fd5b61188b611648565b90508135815260208201356020820152604082013560408201526118b16060830161185c565b60608201526118c26080830161185c565b608082015260a082013560a082015260c08201356001600160401b038111156118ea57600080fd5b6118f684828501611701565b60c08301525092915050565b60006080828403121561191457600080fd5b61191c61166a565b905081358152602082013560208201526040820135604082015260608201356001600160401b0381111561194f57600080fd5b61195b8482850161176c565b60608301525092915050565b600080600080600060a0868803121561197f57600080fd5b85356001600160401b038082111561199657600080fd5b6119a289838a0161176c565b96506020880135955060408801359150808211156119bf57600080fd5b6119cb89838a01611871565b945060608801359150808211156119e157600080fd5b6119ed89838a01611902565b93506080880135915080821115611a0357600080fd5b50611a108882890161176c565b9150509295509295909350565b600081518084526020808501945080840160005b83811015611a4d57815187529582019590820190600101611a31565b509495945050505050565b600081518084526020808501808196508360051b8101915082860160005b85811015611ade578284038952815180518552858101518686015260408082015190860152606080820151908601526080808201519086015260a09081015160c091860182905290611aca81870183611a1d565b9a87019a9550505090840190600101611a76565b5091979650505050505050565b60a081526000611afe60a0830186611a58565b9050836020830152611b2760408301848051825260208082015190830152604090810151910152565b949350505050565b600060608284031215611b4157600080fd5b611b4961168c565b905081358152602082013560208201526040820135604082015292915050565b60008060008060808587031215611b7f57600080fd5b6001600160401b038086351115611b9557600080fd5b60c08635870188031215611ba857600080fd5b611bb061166a565b8635870180358252611bc6908990602001611b2f565b60208201528160808835890101351115611bdf57600080fd5b86358701608081013501601f81018913611bf857600080fd5b611c0561172282356116de565b81358082526020808301929160051b8401018b1015611c2357600080fd5b602083015b6020843560051b850101811015611cf7578581351115611c4757600080fd5b80358401610100818e03601f19011215611c6057600080fd5b611c68611620565b8760208301351115611c7957600080fd5b611c8b8e602080850135850101611701565b815260408201356020820152611ca48e60608401611b2f565b604082015260c0820135606082015260e08201356080820152876101008301351115611ccf57600080fd5b611ce38e6020610100850135850101611701565b60a082015284525060209283019201611c28565b50604084015250508635870160a00135821015611d1357600080fd5b611d26888835890160a08101350161176c565b60608201529450602086013593506040860135811015611d4557600080fd5b611d558760408801358801611871565b92508060608701351115611d6857600080fd5b50611d798660608701358701611902565b905092959194509250565b80516101008084528151908401819052600091610120850191602091820190845b81811015611dc157825185529383019391830191600101611da5565b50505083810151908501526040808401518051828701526020810151606087015290810151608086015250606083015160a0850152608083015160c085015260a083015184820360e0860152611e178282611a1d565b95945050505050565b600060c0830182518452602080840151611e50828701828051825260208082015190830152604090810151910152565b50604084015160c0608087015282815180855260e08801915060e08160051b8901019450838301925060005b81811015611eaa5760df19898703018352611e98868551611d84565b95509284019291840191600101611e7c565b5050505050606083015184820360a0860152611e178282611a58565b60208152600061149a6020830184611e20565b60208152600061149a6020830184611a58565b600060208284031215611efe57600080fd5b5051919050565b634e487b7160e01b600052601160045260246000fd5b60008219821115611f2e57611f2e611f05565b500190565b600082821015611f4557611f45611f05565b500390565b634e487b7160e01b600052603260045260246000fd5b6000600019821415611f7457611f74611f05565b5060010190565b604081526000611f8e6040830185611a58565b90508260208301529392505050565b634e487b7160e01b600052601260045260246000fd5b600082611fc257611fc2611f9d565b500690565b6000816000190483118215151615611fe157611fe1611f05565b500290565b600082611ff557611ff5611f9d565b500490565b60608152600061200d6060830186611a58565b60208301949094525060400152919050565b600082601f83011261203057600080fd5b81516020612040611722836116de565b82815260059290921b8401810191818101908684111561205f57600080fd5b8286015b848110156117615780518352918301918301612063565b600082601f83011261208b57600080fd5b8151602061209b611722836116de565b82815260059290921b840181019181810190868411156120ba57600080fd5b8286015b848110156117615780516001600160401b03808211156120de5760008081fd5b9088019060c0828b03601f19018113156120f85760008081fd5b612100611620565b87840151815260408085015189830152606080860151828401526080915081860151818401525060a080860151828401528386015193508484111561214757600091508182fd5b6121558e8b8689010161201f565b908301525086525050509183019183016120be565b60006020828403121561217c57600080fd5b81516001600160401b0381111561219257600080fd5b611b278482850161207a565b6060815260006121b16060830186611e20565b82810360208401526121c38186611d84565b905082810360408401526113e58185611a58565b6000606082840312156121e957600080fd5b6121f161168c565b905081518152602082015160208201526040820151604082015292915050565b6000602080838503121561222457600080fd5b82516001600160401b038082111561223b57600080fd5b9084019060c0828703121561224f57600080fd5b61225761166a565b82518152612267878585016121d7565b8482015260808301518281111561227d57600080fd5b8301601f8101881361228e57600080fd5b805161229c611722826116de565b81815260059190911b8201860190868101908a8311156122bb57600080fd5b8784015b8381101561237b578051878111156122d657600080fd5b8501610100818e03601f190112156122ed57600080fd5b6122f5611620565b8a8201518981111561230657600080fd5b6123148f8d8386010161201f565b82525060408201518b82015261232d8e606084016121d7565b604082015260c0820151606082015260e082015160808201526101008201518981111561235957600080fd5b6123678f8d8386010161201f565b60a0830152508452509188019188016122bf565b50604085015250505060a083015193508184111561239857600080fd5b6123a48785850161207a565b6060820152969550505050505056fea2646970667358221220eb2c37b4893eea5a34601d3be149c76feb1b74cb10f0d210a3438a361f7a484f64736f6c634300080b0033","language":"Solidity","natspec":{"methods":{"recurseSearch(Solution[],uint256,MarketSearch.SearchArgTarget,MarketSearch.SearchArg,Solution[])":{"details":"we iterate thru solution to seek best price solution in_ filtered solutions startin_ is used  for recusion qty_ target qty, assert if 0, remainer should be removed from qty before calling searcharg_      searcharg_.maxquote IGNORED     should be already filtered      searcharg_.maxavgquote          should be processed      searcharg_.maxcount IGNORED     is handled is __fromTo      searcharg_.used                 must be removed from solutions      searcharg_.remainer IGNORED     should be removed from qty_ before call used_ is the used order to exclude in recursion and count recusion"}},"kind":"dev","version":1},"opcodes":"PUSH20 0x0 ADDRESS EQ PUSH1 0x80 PUSH1 0x40 MSTORE PUSH1 0x4 CALLDATASIZE LT PUSH2 0x40 JUMPI PUSH1 0x0 CALLDATALOAD PUSH1 0xE0 SHR DUP1 PUSH4 0xB51B8E82 EQ PUSH2 0x45 JUMPI DUP1 PUSH4 0xF7BA7529 EQ PUSH2 0x70 JUMPI JUMPDEST PUSH1 0x0 DUP1 REVERT JUMPDEST PUSH2 0x58 PUSH2 0x53 CALLDATASIZE PUSH1 0x4 PUSH2 0x1967 JUMP JUMPDEST PUSH2 0x90 JUMP JUMPDEST PUSH1 0x40 MLOAD PUSH2 0x67 SWAP4 SWAP3 SWAP2 SWAP1 PUSH2 0x1AEB JUMP JUMPDEST PUSH1 0x40 MLOAD DUP1 SWAP2 SUB SWAP1 RETURN JUMPDEST PUSH2 0x83 PUSH2 0x7E CALLDATASIZE PUSH1 0x4 PUSH2 0x1B69 JUMP JUMPDEST PUSH2 0x114F JUMP JUMPDEST PUSH1 0x40 MLOAD PUSH2 0x67 SWAP2 SWAP1 PUSH2 0x1EC6 JUMP JUMPDEST PUSH1 0x60 PUSH1 0x0 PUSH2 0xB8 PUSH1 0x40 MLOAD DUP1 PUSH1 0x60 ADD PUSH1 0x40 MSTORE DUP1 PUSH1 0x0 DUP2 MSTORE PUSH1 0x20 ADD PUSH1 0x0 DUP2 MSTORE PUSH1 0x20 ADD PUSH1 0x0 DUP2 MSTORE POP SWAP1 JUMP JUMPDEST PUSH1 0x40 DUP7 ADD MLOAD ISZERO DUP1 PUSH2 0x144 JUMPI POP PUSH1 0x40 MLOAD PUSH4 0x70306FB3 PUSH1 0xE1 SHL DUP2 MSTORE PUSH20 0x0 SWAP1 PUSH4 0xE060DF66 SWAP1 PUSH2 0xFB SWAP1 DUP8 SWAP1 PUSH1 0x4 ADD PUSH2 0x1ED9 JUMP JUMPDEST PUSH1 0x20 PUSH1 0x40 MLOAD DUP1 DUP4 SUB DUP2 DUP7 GAS DELEGATECALL ISZERO DUP1 ISZERO PUSH2 0x118 JUMPI RETURNDATASIZE PUSH1 0x0 DUP1 RETURNDATACOPY RETURNDATASIZE PUSH1 0x0 REVERT JUMPDEST POP POP POP POP PUSH1 0x40 MLOAD RETURNDATASIZE PUSH1 0x1F NOT PUSH1 0x1F DUP3 ADD AND DUP3 ADD DUP1 PUSH1 0x40 MSTORE POP DUP2 ADD SWAP1 PUSH2 0x13C SWAP2 SWAP1 PUSH2 0x1EEC JUMP JUMPDEST DUP7 PUSH1 0x40 ADD MLOAD LT ISZERO JUMPDEST PUSH2 0x1D3 JUMPI PUSH1 0x40 MLOAD PUSH3 0x461BCD PUSH1 0xE5 SHL DUP2 MSTORE PUSH1 0x20 PUSH1 0x4 DUP3 ADD MSTORE PUSH1 0x4F PUSH1 0x24 DUP3 ADD MSTORE PUSH32 0x726563757273655365617263682072657175697265207461726765745F2E7174 PUSH1 0x44 DUP3 ADD MSTORE PUSH32 0x793D3D30207C7C207461726765745F2E717479203E3D20736561726368617267 PUSH1 0x64 DUP3 ADD MSTORE PUSH15 0x5F2E757365642E6765745174792829 PUSH1 0x88 SHL PUSH1 0x84 DUP3 ADD MSTORE PUSH1 0xA4 ADD JUMPDEST PUSH1 0x40 MLOAD DUP1 SWAP2 SUB SWAP1 REVERT JUMPDEST PUSH1 0x0 DUP8 DUP10 MLOAD DUP7 MLOAD PUSH2 0x1E4 SWAP2 SWAP1 PUSH2 0x1F1B JUMP JUMPDEST PUSH2 0x1EE SWAP2 SWAP1 PUSH2 0x1F33 JUMP JUMPDEST PUSH1 0x1 PUSH1 0x1 PUSH1 0x40 SHL SUB DUP2 GT ISZERO PUSH2 0x205 JUMPI PUSH2 0x205 PUSH2 0x160A JUMP JUMPDEST PUSH1 0x40 MLOAD SWAP1 DUP1 DUP3 MSTORE DUP1 PUSH1 0x20 MUL PUSH1 0x20 ADD DUP3 ADD PUSH1 0x40 MSTORE DUP1 ISZERO PUSH2 0x272 JUMPI DUP2 PUSH1 0x20 ADD JUMPDEST PUSH2 0x25F PUSH1 0x40 MLOAD DUP1 PUSH1 0xC0 ADD PUSH1 0x40 MSTORE DUP1 PUSH1 0x0 DUP2 MSTORE PUSH1 0x20 ADD PUSH1 0x0 DUP1 NOT AND DUP2 MSTORE PUSH1 0x20 ADD PUSH1 0x0 DUP2 MSTORE PUSH1 0x20 ADD PUSH1 0x0 DUP2 MSTORE PUSH1 0x20 ADD PUSH1 0x0 DUP2 MSTORE PUSH1 0x20 ADD PUSH1 0x60 DUP2 MSTORE POP SWAP1 JUMP JUMPDEST DUP2 MSTORE PUSH1 0x20 ADD SWAP1 PUSH1 0x1 SWAP1 SUB SWAP1 DUP2 PUSH2 0x223 JUMPI SWAP1 POP JUMPDEST POP SWAP1 POP PUSH1 0x0 JUMPDEST DUP6 MLOAD DUP2 LT ISZERO PUSH2 0x2CB JUMPI DUP6 DUP2 DUP2 MLOAD DUP2 LT PUSH2 0x293 JUMPI PUSH2 0x293 PUSH2 0x1F4A JUMP JUMPDEST PUSH1 0x20 MUL PUSH1 0x20 ADD ADD MLOAD DUP3 DUP3 DUP2 MLOAD DUP2 LT PUSH2 0x2AD JUMPI PUSH2 0x2AD PUSH2 0x1F4A JUMP JUMPDEST PUSH1 0x20 MUL PUSH1 0x20 ADD ADD DUP2 SWAP1 MSTORE POP DUP1 DUP1 PUSH2 0x2C3 SWAP1 PUSH2 0x1F60 JUMP JUMPDEST SWAP2 POP POP PUSH2 0x278 JUMP JUMPDEST POP DUP5 MLOAD DUP9 DUP1 ISZERO PUSH2 0x341 JUMPI JUMPDEST DUP11 MLOAD DUP2 LT ISZERO PUSH2 0x341 JUMPI DUP11 PUSH2 0x2EB PUSH1 0x1 DUP4 PUSH2 0x1F33 JUMP JUMPDEST DUP2 MLOAD DUP2 LT PUSH2 0x2FB JUMPI PUSH2 0x2FB PUSH2 0x1F4A JUMP JUMPDEST PUSH1 0x20 MUL PUSH1 0x20 ADD ADD MLOAD PUSH1 0x60 ADD MLOAD DUP12 DUP3 DUP2 MLOAD DUP2 LT PUSH2 0x319 JUMPI PUSH2 0x319 PUSH2 0x1F4A JUMP JUMPDEST PUSH1 0x20 MUL PUSH1 0x20 ADD ADD MLOAD PUSH1 0x60 ADD MLOAD EQ PUSH2 0x32F JUMPI PUSH2 0x341 JUMP JUMPDEST DUP1 PUSH2 0x339 DUP2 PUSH2 0x1F60 JUMP JUMPDEST SWAP2 POP POP PUSH2 0x2D6 JUMP JUMPDEST DUP11 MLOAD DUP2 LT ISZERO PUSH2 0x1141 JUMPI PUSH1 0x40 DUP10 ADD MLOAD DUP1 ISZERO PUSH2 0x5F7 JUMPI PUSH1 0x40 MLOAD PUSH4 0x66628D27 PUSH1 0xE0 SHL DUP2 MSTORE PUSH20 0x0 SWAP1 PUSH4 0x66628D27 SWAP1 PUSH2 0x38E SWAP1 DUP8 SWAP1 DUP8 SWAP1 PUSH1 0x4 ADD PUSH2 0x1F7B JUMP JUMPDEST PUSH1 0x20 PUSH1 0x40 MLOAD DUP1 DUP4 SUB DUP2 DUP7 GAS DELEGATECALL ISZERO DUP1 ISZERO PUSH2 0x3AB JUMPI RETURNDATASIZE PUSH1 0x0 DUP1 RETURNDATACOPY RETURNDATASIZE PUSH1 0x0 REVERT JUMPDEST POP POP POP POP PUSH1 0x40 MLOAD RETURNDATASIZE PUSH1 0x1F NOT PUSH1 0x1F DUP3 ADD AND DUP3 ADD DUP1 PUSH1 0x40 MSTORE POP DUP2 ADD SWAP1 PUSH2 0x3CF SWAP2 SWAP1 PUSH2 0x1EEC JUMP JUMPDEST DUP2 LT ISZERO PUSH2 0x43C JUMPI PUSH1 0x40 MLOAD PUSH3 0x461BCD PUSH1 0xE5 SHL DUP2 MSTORE PUSH1 0x20 PUSH1 0x4 DUP3 ADD MSTORE PUSH1 0x35 PUSH1 0x24 DUP3 ADD MSTORE PUSH32 0x72656375727365536561726368207265717569726520717479203E3D20737461 PUSH1 0x44 DUP3 ADD MSTORE PUSH21 0x636B2E67657451747928737461636B636F756E7429 PUSH1 0x58 SHL PUSH1 0x64 DUP3 ADD MSTORE PUSH1 0x84 ADD PUSH2 0x1CA JUMP JUMPDEST PUSH1 0x40 MLOAD PUSH4 0x66628D27 PUSH1 0xE0 SHL DUP2 MSTORE PUSH20 0x0 SWAP1 PUSH4 0x66628D27 SWAP1 PUSH2 0x475 SWAP1 DUP8 SWAP1 DUP8 SWAP1 PUSH1 0x4 ADD PUSH2 0x1F7B JUMP JUMPDEST PUSH1 0x20 PUSH1 0x40 MLOAD DUP1 DUP4 SUB DUP2 DUP7 GAS DELEGATECALL ISZERO DUP1 ISZERO PUSH2 0x492 JUMPI RETURNDATASIZE PUSH1 0x0 DUP1 RETURNDATACOPY RETURNDATASIZE PUSH1 0x0 REVERT JUMPDEST POP POP POP POP PUSH1 0x40 MLOAD RETURNDATASIZE PUSH1 0x1F NOT PUSH1 0x1F DUP3 ADD AND DUP3 ADD DUP1 PUSH1 0x40 MSTORE POP DUP2 ADD SWAP1 PUSH2 0x4B6 SWAP2 SWAP1 PUSH2 0x1EEC JUMP JUMPDEST PUSH2 0x4C0 SWAP1 DUP3 PUSH2 0x1F33 JUMP JUMPDEST SWAP1 POP PUSH1 0x0 DUP13 DUP4 DUP2 MLOAD DUP2 LT PUSH2 0x4D6 JUMPI PUSH2 0x4D6 PUSH2 0x1F4A JUMP JUMPDEST PUSH1 0x20 MUL PUSH1 0x20 ADD ADD MLOAD PUSH1 0x60 ADD MLOAD DUP3 PUSH2 0x4ED SWAP2 SWAP1 PUSH2 0x1FB3 JUMP JUMPDEST GT ISZERO PUSH2 0x5F7 JUMPI DUP10 PUSH1 0x80 ADD MLOAD DUP1 ISZERO PUSH2 0x505 JUMPI POP DUP10 PUSH1 0x60 ADD MLOAD JUMPDEST ISZERO PUSH2 0x588 JUMPI JUMPDEST PUSH1 0x1 DUP13 MLOAD PUSH2 0x519 SWAP2 SWAP1 PUSH2 0x1F33 JUMP JUMPDEST DUP3 LT ISZERO PUSH2 0x582 JUMPI DUP12 PUSH2 0x52C DUP4 PUSH1 0x1 PUSH2 0x1F1B JUMP JUMPDEST DUP2 MLOAD DUP2 LT PUSH2 0x53C JUMPI PUSH2 0x53C PUSH2 0x1F4A JUMP JUMPDEST PUSH1 0x20 MUL PUSH1 0x20 ADD ADD MLOAD PUSH1 0x60 ADD MLOAD DUP13 DUP4 DUP2 MLOAD DUP2 LT PUSH2 0x55A JUMPI PUSH2 0x55A PUSH2 0x1F4A JUMP JUMPDEST PUSH1 0x20 MUL PUSH1 0x20 ADD ADD MLOAD PUSH1 0x60 ADD MLOAD EQ PUSH2 0x570 JUMPI PUSH2 0x582 JUMP JUMPDEST DUP2 PUSH2 0x57A DUP2 PUSH2 0x1F60 JUMP JUMPDEST SWAP3 POP POP PUSH2 0x50B JUMP JUMPDEST POP PUSH2 0x112F JUMP JUMPDEST DUP10 PUSH1 0x80 ADD MLOAD PUSH2 0x5B4 JUMPI DUP12 DUP3 DUP2 MLOAD DUP2 LT PUSH2 0x5A3 JUMPI PUSH2 0x5A3 PUSH2 0x1F4A JUMP JUMPDEST PUSH1 0x20 MUL PUSH1 0x20 ADD ADD MLOAD PUSH1 0x60 ADD MLOAD PUSH2 0x5B7 JUMP JUMPDEST PUSH1 0x0 JUMPDEST DUP13 DUP4 DUP2 MLOAD DUP2 LT PUSH2 0x5C9 JUMPI PUSH2 0x5C9 PUSH2 0x1F4A JUMP JUMPDEST PUSH1 0x20 MUL PUSH1 0x20 ADD ADD MLOAD PUSH1 0x60 ADD MLOAD DUP3 PUSH2 0x5E0 SWAP2 SWAP1 PUSH2 0x1FB3 JUMP JUMPDEST PUSH2 0x5EA SWAP1 DUP4 PUSH2 0x1F33 JUMP JUMPDEST PUSH2 0x5F4 SWAP2 SWAP1 PUSH2 0x1F1B JUMP JUMPDEST SWAP1 POP JUMPDEST DUP1 ISZERO DUP1 PUSH2 0x629 JUMPI POP PUSH2 0x626 DUP13 DUP4 DUP2 MLOAD DUP2 LT PUSH2 0x614 JUMPI PUSH2 0x614 PUSH2 0x1F4A JUMP JUMPDEST PUSH1 0x20 MUL PUSH1 0x20 ADD ADD MLOAD DUP11 PUSH1 0x60 ADD MLOAD PUSH2 0x13F1 JUMP JUMPDEST DUP2 GT JUMPDEST ISZERO PUSH2 0x646 JUMPI PUSH2 0x643 DUP13 DUP4 DUP2 MLOAD DUP2 LT PUSH2 0x614 JUMPI PUSH2 0x614 PUSH2 0x1F4A JUMP JUMPDEST SWAP1 POP JUMPDEST DUP12 DUP3 DUP2 MLOAD DUP2 LT PUSH2 0x658 JUMPI PUSH2 0x658 PUSH2 0x1F4A JUMP JUMPDEST PUSH1 0x20 MUL PUSH1 0x20 ADD ADD MLOAD PUSH1 0x60 ADD MLOAD DUP2 LT ISZERO PUSH2 0x671 JUMPI POP PUSH2 0x112F JUMP JUMPDEST PUSH1 0x20 DUP10 ADD MLOAD ISZERO DUP1 ISZERO SWAP1 PUSH2 0x6A4 JUMPI POP DUP9 PUSH1 0x20 ADD MLOAD DUP13 DUP4 DUP2 MLOAD DUP2 LT PUSH2 0x696 JUMPI PUSH2 0x696 PUSH2 0x1F4A JUMP JUMPDEST PUSH1 0x20 MUL PUSH1 0x20 ADD ADD MLOAD PUSH1 0x80 ADD MLOAD GT JUMPDEST ISZERO PUSH2 0x858 JUMPI PUSH1 0x0 DUP10 PUSH1 0x20 ADD MLOAD DUP14 DUP5 DUP2 MLOAD DUP2 LT PUSH2 0x6C2 JUMPI PUSH2 0x6C2 PUSH2 0x1F4A JUMP JUMPDEST PUSH1 0x20 MUL PUSH1 0x20 ADD ADD MLOAD PUSH1 0x80 ADD MLOAD PUSH2 0x6D8 SWAP2 SWAP1 PUSH2 0x1F33 JUMP JUMPDEST PUSH1 0x40 MLOAD PUSH4 0x6926B1FF PUSH1 0xE1 SHL DUP2 MSTORE PUSH20 0x0 SWAP1 PUSH4 0xD24D63FE SWAP1 PUSH2 0x711 SWAP1 DUP10 SWAP1 DUP10 SWAP1 PUSH1 0x4 ADD PUSH2 0x1F7B JUMP JUMPDEST PUSH1 0x20 PUSH1 0x40 MLOAD DUP1 DUP4 SUB DUP2 DUP7 GAS DELEGATECALL ISZERO DUP1 ISZERO PUSH2 0x72E JUMPI RETURNDATASIZE PUSH1 0x0 DUP1 RETURNDATACOPY RETURNDATASIZE PUSH1 0x0 REVERT JUMPDEST POP POP POP POP PUSH1 0x40 MLOAD RETURNDATASIZE PUSH1 0x1F NOT PUSH1 0x1F DUP3 ADD AND DUP3 ADD DUP1 PUSH1 0x40 MSTORE POP DUP2 ADD SWAP1 PUSH2 0x752 SWAP2 SWAP1 PUSH2 0x1EEC JUMP JUMPDEST PUSH1 0x20 DUP13 ADD MLOAD PUSH1 0x40 MLOAD PUSH4 0x66628D27 PUSH1 0xE0 SHL DUP2 MSTORE PUSH8 0xDE0B6B3A7640000 SWAP2 SWAP1 PUSH20 0x0 SWAP1 PUSH4 0x66628D27 SWAP1 PUSH2 0x79B SWAP1 DUP13 SWAP1 DUP13 SWAP1 PUSH1 0x4 ADD PUSH2 0x1F7B JUMP JUMPDEST PUSH1 0x20 PUSH1 0x40 MLOAD DUP1 DUP4 SUB DUP2 DUP7 GAS DELEGATECALL ISZERO DUP1 ISZERO PUSH2 0x7B8 JUMPI RETURNDATASIZE PUSH1 0x0 DUP1 RETURNDATACOPY RETURNDATASIZE PUSH1 0x0 REVERT JUMPDEST POP POP POP POP PUSH1 0x40 MLOAD RETURNDATASIZE PUSH1 0x1F NOT PUSH1 0x1F DUP3 ADD AND DUP3 ADD DUP1 PUSH1 0x40 MSTORE POP DUP2 ADD SWAP1 PUSH2 0x7DC SWAP2 SWAP1 PUSH2 0x1EEC JUMP JUMPDEST PUSH2 0x7E6 SWAP2 SWAP1 PUSH2 0x1FC7 JUMP JUMPDEST PUSH2 0x7F0 SWAP2 SWAP1 PUSH2 0x1FE6 JUMP JUMPDEST PUSH2 0x7FA SWAP2 SWAP1 PUSH2 0x1F33 JUMP JUMPDEST PUSH2 0x80C SWAP1 PUSH8 0xDE0B6B3A7640000 PUSH2 0x1FC7 JUMP JUMPDEST PUSH2 0x816 SWAP2 SWAP1 PUSH2 0x1FE6 JUMP JUMPDEST SWAP1 POP DUP1 DUP3 GT ISZERO PUSH2 0x856 JUMPI DUP13 DUP4 DUP2 MLOAD DUP2 LT PUSH2 0x832 JUMPI PUSH2 0x832 PUSH2 0x1F4A JUMP JUMPDEST PUSH1 0x20 MUL PUSH1 0x20 ADD ADD MLOAD PUSH1 0x60 ADD MLOAD DUP2 PUSH2 0x849 SWAP2 SWAP1 PUSH2 0x1FB3 JUMP JUMPDEST PUSH2 0x853 SWAP1 DUP3 PUSH2 0x1F33 JUMP JUMPDEST SWAP2 POP JUMPDEST POP JUMPDEST PUSH1 0x40 DUP10 ADD MLOAD ISZERO PUSH2 0x96B JUMPI PUSH1 0x0 DUP13 DUP4 DUP2 MLOAD DUP2 LT PUSH2 0x876 JUMPI PUSH2 0x876 PUSH2 0x1F4A JUMP JUMPDEST PUSH1 0x20 MUL PUSH1 0x20 ADD ADD MLOAD PUSH1 0x80 ADD MLOAD DUP6 PUSH20 0x0 PUSH4 0xD24D63FE SWAP1 SWAP2 DUP8 PUSH1 0x40 MLOAD DUP4 PUSH4 0xFFFFFFFF AND PUSH1 0xE0 SHL DUP2 MSTORE PUSH1 0x4 ADD PUSH2 0x8BD SWAP3 SWAP2 SWAP1 PUSH2 0x1F7B JUMP JUMPDEST PUSH1 0x20 PUSH1 0x40 MLOAD DUP1 DUP4 SUB DUP2 DUP7 GAS DELEGATECALL ISZERO DUP1 ISZERO PUSH2 0x8DA JUMPI RETURNDATASIZE PUSH1 0x0 DUP1 RETURNDATACOPY RETURNDATASIZE PUSH1 0x0 REVERT JUMPDEST POP POP POP POP PUSH1 0x40 MLOAD RETURNDATASIZE PUSH1 0x1F NOT PUSH1 0x1F DUP3 ADD AND DUP3 ADD DUP1 PUSH1 0x40 MSTORE POP DUP2 ADD SWAP1 PUSH2 0x8FE SWAP2 SWAP1 PUSH2 0x1EEC JUMP JUMPDEST DUP12 PUSH1 0x40 ADD MLOAD PUSH2 0x90D SWAP2 SWAP1 PUSH2 0x1F33 JUMP JUMPDEST PUSH2 0x91F SWAP1 PUSH8 0xDE0B6B3A7640000 PUSH2 0x1FC7 JUMP JUMPDEST PUSH2 0x929 SWAP2 SWAP1 PUSH2 0x1FE6 JUMP JUMPDEST SWAP1 POP DUP1 DUP3 GT ISZERO PUSH2 0x969 JUMPI DUP13 DUP4 DUP2 MLOAD DUP2 LT PUSH2 0x945 JUMPI PUSH2 0x945 PUSH2 0x1F4A JUMP JUMPDEST PUSH1 0x20 MUL PUSH1 0x20 ADD ADD MLOAD PUSH1 0x60 ADD MLOAD DUP2 PUSH2 0x95C SWAP2 SWAP1 PUSH2 0x1FB3 JUMP JUMPDEST PUSH2 0x966 SWAP1 DUP3 PUSH2 0x1F33 JUMP JUMPDEST SWAP2 POP JUMPDEST POP JUMPDEST DUP12 DUP3 DUP2 MLOAD DUP2 LT PUSH2 0x97D JUMPI PUSH2 0x97D PUSH2 0x1F4A JUMP JUMPDEST PUSH1 0x20 MUL PUSH1 0x20 ADD ADD MLOAD PUSH1 0x60 ADD MLOAD DUP2 LT ISZERO PUSH2 0xA08 JUMPI JUMPDEST PUSH1 0x1 DUP13 MLOAD PUSH2 0x99F SWAP2 SWAP1 PUSH2 0x1F33 JUMP JUMPDEST DUP3 LT ISZERO PUSH2 0x582 JUMPI DUP12 PUSH2 0x9B2 DUP4 PUSH1 0x1 PUSH2 0x1F1B JUMP JUMPDEST DUP2 MLOAD DUP2 LT PUSH2 0x9C2 JUMPI PUSH2 0x9C2 PUSH2 0x1F4A JUMP JUMPDEST PUSH1 0x20 MUL PUSH1 0x20 ADD ADD MLOAD PUSH1 0x60 ADD MLOAD DUP13 DUP4 DUP2 MLOAD DUP2 LT PUSH2 0x9E0 JUMPI PUSH2 0x9E0 PUSH2 0x1F4A JUMP JUMPDEST PUSH1 0x20 MUL PUSH1 0x20 ADD ADD MLOAD PUSH1 0x60 ADD MLOAD EQ PUSH2 0x9F6 JUMPI PUSH2 0x582 JUMP JUMPDEST DUP2 PUSH2 0xA00 DUP2 PUSH2 0x1F60 JUMP JUMPDEST SWAP3 POP POP PUSH2 0x991 JUMP JUMPDEST PUSH1 0x40 DUP11 ADD MLOAD ISZERO DUP1 ISZERO SWAP1 PUSH2 0xA97 JUMPI POP PUSH1 0x40 MLOAD PUSH4 0x66628D27 PUSH1 0xE0 SHL DUP2 MSTORE PUSH20 0x0 SWAP1 PUSH4 0x66628D27 SWAP1 PUSH2 0xA4F SWAP1 DUP8 SWAP1 DUP8 SWAP1 PUSH1 0x4 ADD PUSH2 0x1F7B JUMP JUMPDEST PUSH1 0x20 PUSH1 0x40 MLOAD DUP1 DUP4 SUB DUP2 DUP7 GAS DELEGATECALL ISZERO DUP1 ISZERO PUSH2 0xA6C JUMPI RETURNDATASIZE PUSH1 0x0 DUP1 RETURNDATACOPY RETURNDATASIZE PUSH1 0x0 REVERT JUMPDEST POP POP POP POP PUSH1 0x40 MLOAD RETURNDATASIZE PUSH1 0x1F NOT PUSH1 0x1F DUP3 ADD AND DUP3 ADD DUP1 PUSH1 0x40 MSTORE POP DUP2 ADD SWAP1 PUSH2 0xA90 SWAP2 SWAP1 PUSH2 0x1EEC JUMP JUMPDEST DUP11 PUSH1 0x40 ADD MLOAD GT JUMPDEST ISZERO PUSH2 0xB6B JUMPI PUSH1 0x0 DUP1 DUP1 PUSH2 0xB34 DUP16 PUSH2 0xAAF DUP8 PUSH1 0x1 PUSH2 0x1F1B JUMP JUMPDEST DUP16 DUP16 DUP12 PUSH20 0x0 PUSH4 0xF31D34B2 SWAP1 SWAP2 PUSH1 0x0 DUP15 PUSH1 0x40 MLOAD DUP5 PUSH4 0xFFFFFFFF AND PUSH1 0xE0 SHL DUP2 MSTORE PUSH1 0x4 ADD PUSH2 0xAEF SWAP4 SWAP3 SWAP2 SWAP1 PUSH2 0x1FFA JUMP JUMPDEST PUSH1 0x0 PUSH1 0x40 MLOAD DUP1 DUP4 SUB DUP2 DUP7 GAS DELEGATECALL ISZERO DUP1 ISZERO PUSH2 0xB0C JUMPI RETURNDATASIZE PUSH1 0x0 DUP1 RETURNDATACOPY RETURNDATASIZE PUSH1 0x0 REVERT JUMPDEST POP POP POP POP PUSH1 0x40 MLOAD RETURNDATASIZE PUSH1 0x0 DUP3 RETURNDATACOPY PUSH1 0x1F RETURNDATASIZE SWAP1 DUP2 ADD PUSH1 0x1F NOT AND DUP3 ADD PUSH1 0x40 MSTORE PUSH2 0x53 SWAP2 SWAP1 DUP2 ADD SWAP1 PUSH2 0x216A JUMP JUMPDEST SWAP3 POP SWAP3 POP SWAP3 POP DUP2 PUSH1 0x0 EQ PUSH2 0xB67 JUMPI PUSH2 0xB58 DUP14 DUP14 DUP12 DUP12 PUSH1 0x20 ADD MLOAD DUP7 DUP7 PUSH1 0x20 ADD MLOAD PUSH2 0x14A1 JUMP JUMPDEST ISZERO PUSH2 0xB67 JUMPI DUP3 SWAP10 POP DUP2 SWAP9 POP DUP1 SWAP8 POP JUMPDEST POP POP POP JUMPDEST DUP12 DUP3 DUP2 MLOAD DUP2 LT PUSH2 0xB7D JUMPI PUSH2 0xB7D PUSH2 0x1F4A JUMP JUMPDEST PUSH1 0x20 MUL PUSH1 0x20 ADD ADD MLOAD PUSH1 0x0 ADD MLOAD DUP5 DUP5 DUP2 MLOAD DUP2 LT PUSH2 0xB9B JUMPI PUSH2 0xB9B PUSH2 0x1F4A JUMP JUMPDEST PUSH1 0x20 MUL PUSH1 0x20 ADD ADD MLOAD PUSH1 0x0 ADD DUP2 DUP2 MSTORE POP POP DUP12 DUP3 DUP2 MLOAD DUP2 LT PUSH2 0xBBD JUMPI PUSH2 0xBBD PUSH2 0x1F4A JUMP JUMPDEST PUSH1 0x20 MUL PUSH1 0x20 ADD ADD MLOAD PUSH1 0x20 ADD MLOAD DUP5 DUP5 DUP2 MLOAD DUP2 LT PUSH2 0xBDB JUMPI PUSH2 0xBDB PUSH2 0x1F4A JUMP JUMPDEST PUSH1 0x20 MUL PUSH1 0x20 ADD ADD MLOAD PUSH1 0x20 ADD DUP2 DUP2 MSTORE POP POP DUP1 DUP5 DUP5 DUP2 MLOAD DUP2 LT PUSH2 0xBFE JUMPI PUSH2 0xBFE PUSH2 0x1F4A JUMP JUMPDEST PUSH1 0x20 MUL PUSH1 0x20 ADD ADD MLOAD PUSH1 0x40 ADD DUP2 DUP2 MSTORE POP POP DUP12 DUP3 DUP2 MLOAD DUP2 LT PUSH2 0xC20 JUMPI PUSH2 0xC20 PUSH2 0x1F4A JUMP JUMPDEST PUSH1 0x20 MUL PUSH1 0x20 ADD ADD MLOAD PUSH1 0x60 ADD MLOAD DUP5 DUP5 DUP2 MLOAD DUP2 LT PUSH2 0xC3E JUMPI PUSH2 0xC3E PUSH2 0x1F4A JUMP JUMPDEST PUSH1 0x20 MUL PUSH1 0x20 ADD ADD MLOAD PUSH1 0x60 ADD DUP2 DUP2 MSTORE POP POP DUP12 DUP3 DUP2 MLOAD DUP2 LT PUSH2 0xC60 JUMPI PUSH2 0xC60 PUSH2 0x1F4A JUMP JUMPDEST PUSH1 0x20 MUL PUSH1 0x20 ADD ADD MLOAD PUSH1 0x80 ADD MLOAD DUP5 DUP5 DUP2 MLOAD DUP2 LT PUSH2 0xC7E JUMPI PUSH2 0xC7E PUSH2 0x1F4A JUMP JUMPDEST PUSH1 0x20 MUL PUSH1 0x20 ADD ADD MLOAD PUSH1 0x80 ADD DUP2 DUP2 MSTORE POP POP DUP12 DUP3 DUP2 MLOAD DUP2 LT PUSH2 0xCA0 JUMPI PUSH2 0xCA0 PUSH2 0x1F4A JUMP JUMPDEST PUSH1 0x20 MUL PUSH1 0x20 ADD ADD MLOAD PUSH1 0xA0 ADD MLOAD DUP5 DUP5 DUP2 MLOAD DUP2 LT PUSH2 0xCBE JUMPI PUSH2 0xCBE PUSH2 0x1F4A JUMP JUMPDEST PUSH1 0x20 MUL PUSH1 0x20 ADD ADD MLOAD PUSH1 0xA0 ADD DUP2 SWAP1 MSTORE POP DUP3 DUP1 PUSH2 0xCD8 SWAP1 PUSH2 0x1F60 JUMP JUMPDEST SWAP4 POP POP PUSH2 0xDE1 DUP11 DUP11 DUP9 DUP9 PUSH1 0x20 ADD MLOAD DUP9 PUSH20 0x0 PUSH4 0x66628D27 SWAP1 SWAP2 DUP11 PUSH1 0x40 MLOAD DUP4 PUSH4 0xFFFFFFFF AND PUSH1 0xE0 SHL DUP2 MSTORE PUSH1 0x4 ADD PUSH2 0xD21 SWAP3 SWAP2 SWAP1 PUSH2 0x1F7B JUMP JUMPDEST PUSH1 0x20 PUSH1 0x40 MLOAD DUP1 DUP4 SUB DUP2 DUP7 GAS DELEGATECALL ISZERO DUP1 ISZERO PUSH2 0xD3E JUMPI RETURNDATASIZE PUSH1 0x0 DUP1 RETURNDATACOPY RETURNDATASIZE PUSH1 0x0 REVERT JUMPDEST POP POP POP POP PUSH1 0x40 MLOAD RETURNDATASIZE PUSH1 0x1F NOT PUSH1 0x1F DUP3 ADD AND DUP3 ADD DUP1 PUSH1 0x40 MSTORE POP DUP2 ADD SWAP1 PUSH2 0xD62 SWAP2 SWAP1 PUSH2 0x1EEC JUMP JUMPDEST PUSH1 0x40 MLOAD PUSH4 0x26C67C8B PUSH1 0xE2 SHL DUP2 MSTORE PUSH20 0x0 SWAP1 PUSH4 0x9B19F22C SWAP1 PUSH2 0xD9B SWAP1 DUP14 SWAP1 DUP14 SWAP1 PUSH1 0x4 ADD PUSH2 0x1F7B JUMP JUMPDEST PUSH1 0x20 PUSH1 0x40 MLOAD DUP1 DUP4 SUB DUP2 DUP7 GAS DELEGATECALL ISZERO DUP1 ISZERO PUSH2 0xDB8 JUMPI RETURNDATASIZE PUSH1 0x0 DUP1 RETURNDATACOPY RETURNDATASIZE PUSH1 0x0 REVERT JUMPDEST POP POP POP POP PUSH1 0x40 MLOAD RETURNDATASIZE PUSH1 0x1F NOT PUSH1 0x1F DUP3 ADD AND DUP3 ADD DUP1 PUSH1 0x40 MSTORE POP DUP2 ADD SWAP1 PUSH2 0xDDC SWAP2 SWAP1 PUSH2 0x1EEC JUMP JUMPDEST PUSH2 0x14A1 JUMP JUMPDEST ISZERO PUSH2 0xFFE JUMPI PUSH1 0x40 MLOAD PUSH4 0x798E9A59 PUSH1 0xE1 SHL DUP2 MSTORE PUSH20 0x0 SWAP1 PUSH4 0xF31D34B2 SWAP1 PUSH2 0xE22 SWAP1 DUP8 SWAP1 PUSH1 0x0 SWAP1 DUP9 SWAP1 PUSH1 0x4 ADD PUSH2 0x1FFA JUMP JUMPDEST PUSH1 0x0 PUSH1 0x40 MLOAD DUP1 DUP4 SUB DUP2 DUP7 GAS DELEGATECALL ISZERO DUP1 ISZERO PUSH2 0xE3F JUMPI RETURNDATASIZE PUSH1 0x0 DUP1 RETURNDATACOPY RETURNDATASIZE PUSH1 0x0 REVERT JUMPDEST POP POP POP POP PUSH1 0x40 MLOAD RETURNDATASIZE PUSH1 0x0 DUP3 RETURNDATACOPY PUSH1 0x1F RETURNDATASIZE SWAP1 DUP2 ADD PUSH1 0x1F NOT AND DUP3 ADD PUSH1 0x40 MSTORE PUSH2 0xE67 SWAP2 SWAP1 DUP2 ADD SWAP1 PUSH2 0x216A JUMP JUMPDEST SWAP7 POP PUSH1 0x40 MLOAD DUP1 PUSH1 0x60 ADD PUSH1 0x40 MSTORE DUP1 PUSH1 0x0 DUP2 MSTORE PUSH1 0x20 ADD PUSH1 0x0 DUP2 MSTORE PUSH1 0x20 ADD PUSH1 0x0 DUP2 MSTORE POP SWAP5 POP PUSH1 0x0 SWAP6 POP PUSH1 0x0 JUMPDEST DUP8 MLOAD DUP2 LT ISZERO PUSH2 0xFE7 JUMPI DUP6 MLOAD ISZERO DUP1 PUSH2 0xEC7 JUMPI POP DUP8 DUP2 DUP2 MLOAD DUP2 LT PUSH2 0xEB4 JUMPI PUSH2 0xEB4 PUSH2 0x1F4A JUMP JUMPDEST PUSH1 0x20 MUL PUSH1 0x20 ADD ADD MLOAD PUSH1 0x80 ADD MLOAD DUP7 PUSH1 0x0 ADD MLOAD GT JUMPDEST ISZERO PUSH2 0xEF0 JUMPI DUP8 DUP2 DUP2 MLOAD DUP2 LT PUSH2 0xEDE JUMPI PUSH2 0xEDE PUSH2 0x1F4A JUMP JUMPDEST PUSH1 0x20 SWAP1 DUP2 MUL SWAP2 SWAP1 SWAP2 ADD ADD MLOAD PUSH1 0x80 ADD MLOAD DUP7 MSTORE JUMPDEST PUSH1 0x40 DUP7 ADD MLOAD ISZERO DUP1 PUSH2 0xF21 JUMPI POP DUP8 DUP2 DUP2 MLOAD DUP2 LT PUSH2 0xF0E JUMPI PUSH2 0xF0E PUSH2 0x1F4A JUMP JUMPDEST PUSH1 0x20 MUL PUSH1 0x20 ADD ADD MLOAD PUSH1 0x80 ADD MLOAD DUP7 PUSH1 0x40 ADD MLOAD LT JUMPDEST ISZERO PUSH2 0xF4E JUMPI DUP8 DUP2 DUP2 MLOAD DUP2 LT PUSH2 0xF38 JUMPI PUSH2 0xF38 PUSH2 0x1F4A JUMP JUMPDEST PUSH1 0x20 MUL PUSH1 0x20 ADD ADD MLOAD PUSH1 0x80 ADD MLOAD DUP7 PUSH1 0x40 ADD DUP2 DUP2 MSTORE POP POP JUMPDEST DUP8 DUP2 DUP2 MLOAD DUP2 LT PUSH2 0xF60 JUMPI PUSH2 0xF60 PUSH2 0x1F4A JUMP JUMPDEST PUSH1 0x20 MUL PUSH1 0x20 ADD ADD MLOAD PUSH1 0x80 ADD MLOAD DUP9 DUP3 DUP2 MLOAD DUP2 LT PUSH2 0xF7E JUMPI PUSH2 0xF7E PUSH2 0x1F4A JUMP JUMPDEST PUSH1 0x20 MUL PUSH1 0x20 ADD ADD MLOAD PUSH1 0x40 ADD MLOAD PUSH2 0xF94 SWAP2 SWAP1 PUSH2 0x1FC7 JUMP JUMPDEST DUP7 PUSH1 0x20 ADD DUP2 DUP2 MLOAD PUSH2 0xFA5 SWAP2 SWAP1 PUSH2 0x1F1B JUMP JUMPDEST SWAP1 MSTORE POP DUP8 MLOAD DUP9 SWAP1 DUP3 SWAP1 DUP2 LT PUSH2 0xFBC JUMPI PUSH2 0xFBC PUSH2 0x1F4A JUMP JUMPDEST PUSH1 0x20 MUL PUSH1 0x20 ADD ADD MLOAD PUSH1 0x40 ADD MLOAD DUP8 PUSH2 0xFD3 SWAP2 SWAP1 PUSH2 0x1F1B JUMP JUMPDEST SWAP7 POP DUP1 PUSH2 0xFDF DUP2 PUSH2 0x1F60 JUMP JUMPDEST SWAP2 POP POP PUSH2 0xE90 JUMP JUMPDEST POP DUP6 DUP6 PUSH1 0x20 ADD DUP2 DUP2 MLOAD PUSH2 0xFFA SWAP2 SWAP1 PUSH2 0x1FE6 JUMP JUMPDEST SWAP1 MSTORE POP JUMPDEST PUSH1 0x40 DUP11 ADD MLOAD ISZERO DUP1 ISZERO SWAP1 PUSH2 0x108E JUMPI POP PUSH1 0x40 MLOAD PUSH4 0x66628D27 PUSH1 0xE0 SHL DUP2 MSTORE PUSH20 0x0 SWAP1 PUSH4 0x66628D27 SWAP1 PUSH2 0x1045 SWAP1 DUP8 SWAP1 DUP8 SWAP1 PUSH1 0x4 ADD PUSH2 0x1F7B JUMP JUMPDEST PUSH1 0x20 PUSH1 0x40 MLOAD DUP1 DUP4 SUB DUP2 DUP7 GAS DELEGATECALL ISZERO DUP1 ISZERO PUSH2 0x1062 JUMPI RETURNDATASIZE PUSH1 0x0 DUP1 RETURNDATACOPY RETURNDATASIZE PUSH1 0x0 REVERT JUMPDEST POP POP POP POP PUSH1 0x40 MLOAD RETURNDATASIZE PUSH1 0x1F NOT PUSH1 0x1F DUP3 ADD AND DUP3 ADD DUP1 PUSH1 0x40 MSTORE POP DUP2 ADD SWAP1 PUSH2 0x1086 SWAP2 SWAP1 PUSH2 0x1EEC JUMP JUMPDEST DUP11 PUSH1 0x40 ADD MLOAD GT ISZERO JUMPDEST ISZERO PUSH2 0x1099 JUMPI POP PUSH2 0x1141 JUMP JUMPDEST PUSH2 0x10AE DUP13 DUP4 DUP2 MLOAD DUP2 LT PUSH2 0x614 JUMPI PUSH2 0x614 PUSH2 0x1F4A JUMP JUMPDEST DUP2 LT ISZERO PUSH2 0x112D JUMPI JUMPDEST PUSH1 0x1 DUP13 MLOAD PUSH2 0x10C4 SWAP2 SWAP1 PUSH2 0x1F33 JUMP JUMPDEST DUP3 LT ISZERO PUSH2 0x112D JUMPI DUP12 PUSH2 0x10D7 DUP4 PUSH1 0x1 PUSH2 0x1F1B JUMP JUMPDEST DUP2 MLOAD DUP2 LT PUSH2 0x10E7 JUMPI PUSH2 0x10E7 PUSH2 0x1F4A JUMP JUMPDEST PUSH1 0x20 MUL PUSH1 0x20 ADD ADD MLOAD PUSH1 0x60 ADD MLOAD DUP13 DUP4 DUP2 MLOAD DUP2 LT PUSH2 0x1105 JUMPI PUSH2 0x1105 PUSH2 0x1F4A JUMP JUMPDEST PUSH1 0x20 MUL PUSH1 0x20 ADD ADD MLOAD PUSH1 0x60 ADD MLOAD EQ PUSH2 0x111B JUMPI PUSH2 0x112D JUMP JUMPDEST DUP2 PUSH2 0x1125 DUP2 PUSH2 0x1F60 JUMP JUMPDEST SWAP3 POP POP PUSH2 0x10B6 JUMP JUMPDEST POP JUMPDEST DUP1 PUSH2 0x1139 DUP2 PUSH2 0x1F60 JUMP JUMPDEST SWAP2 POP POP PUSH2 0x341 JUMP JUMPDEST POP POP POP SWAP6 POP SWAP6 POP SWAP6 SWAP3 POP POP POP JUMP JUMPDEST PUSH2 0x1157 PUSH2 0x1568 JUMP JUMPDEST PUSH2 0x115F PUSH2 0x15B2 JUMP JUMPDEST PUSH1 0x40 DUP7 ADD MLOAD MLOAD PUSH1 0x0 JUMPDEST DUP2 DUP2 LT ISZERO PUSH2 0x1341 JUMPI DUP7 DUP9 PUSH1 0x40 ADD MLOAD DUP3 DUP2 MLOAD DUP2 LT PUSH2 0x1187 JUMPI PUSH2 0x1187 PUSH2 0x1F4A JUMP JUMPDEST PUSH1 0x20 MUL PUSH1 0x20 ADD ADD MLOAD PUSH1 0x0 ADD MLOAD PUSH1 0x0 DUP2 MLOAD DUP2 LT PUSH2 0x11A5 JUMPI PUSH2 0x11A5 PUSH2 0x1F4A JUMP JUMPDEST PUSH1 0x20 MUL PUSH1 0x20 ADD ADD MLOAD EQ DUP1 ISZERO PUSH2 0x1223 JUMPI POP DUP6 MLOAD PUSH1 0x40 DUP10 ADD MLOAD DUP1 MLOAD DUP4 SWAP1 DUP2 LT PUSH2 0x11CE JUMPI PUSH2 0x11CE PUSH2 0x1F4A JUMP JUMPDEST PUSH1 0x20 MUL PUSH1 0x20 ADD ADD MLOAD PUSH1 0x0 ADD MLOAD PUSH1 0x1 DUP11 PUSH1 0x40 ADD MLOAD DUP5 DUP2 MLOAD DUP2 LT PUSH2 0x11F2 JUMPI PUSH2 0x11F2 PUSH2 0x1F4A JUMP JUMPDEST PUSH1 0x20 MUL PUSH1 0x20 ADD ADD MLOAD PUSH1 0x0 ADD MLOAD MLOAD PUSH2 0x1209 SWAP2 SWAP1 PUSH2 0x1F33 JUMP JUMPDEST DUP2 MLOAD DUP2 LT PUSH2 0x1219 JUMPI PUSH2 0x1219 PUSH2 0x1F4A JUMP JUMPDEST PUSH1 0x20 MUL PUSH1 0x20 ADD ADD MLOAD EQ JUMPDEST ISZERO PUSH2 0x128B JUMPI PUSH1 0x20 DUP4 ADD MLOAD ISZERO DUP1 PUSH2 0x1265 JUMPI POP DUP8 PUSH1 0x40 ADD MLOAD DUP2 DUP2 MLOAD DUP2 LT PUSH2 0x124A JUMPI PUSH2 0x124A PUSH2 0x1F4A JUMP JUMPDEST PUSH1 0x20 MUL PUSH1 0x20 ADD ADD MLOAD PUSH1 0x40 ADD MLOAD PUSH1 0x20 ADD MLOAD DUP4 PUSH1 0x40 ADD MLOAD PUSH1 0x20 ADD MLOAD GT JUMPDEST ISZERO PUSH2 0x128B JUMPI DUP8 PUSH1 0x40 ADD MLOAD DUP2 DUP2 MLOAD DUP2 LT PUSH2 0x1280 JUMPI PUSH2 0x1280 PUSH2 0x1F4A JUMP JUMPDEST PUSH1 0x20 MUL PUSH1 0x20 ADD ADD MLOAD SWAP3 POP JUMPDEST DUP4 PUSH20 0x0 PUSH4 0x7513CE1B SWAP1 SWAP2 DUP11 PUSH1 0x40 ADD MLOAD DUP5 DUP2 MLOAD DUP2 LT PUSH2 0x12BE JUMPI PUSH2 0x12BE PUSH2 0x1F4A JUMP JUMPDEST PUSH1 0x20 MUL PUSH1 0x20 ADD ADD MLOAD DUP12 PUSH1 0x60 ADD MLOAD PUSH1 0x40 MLOAD DUP5 PUSH4 0xFFFFFFFF AND PUSH1 0xE0 SHL DUP2 MSTORE PUSH1 0x4 ADD PUSH2 0x12E9 SWAP4 SWAP3 SWAP2 SWAP1 PUSH2 0x219E JUMP JUMPDEST PUSH1 0x0 PUSH1 0x40 MLOAD DUP1 DUP4 SUB DUP2 DUP7 GAS DELEGATECALL ISZERO DUP1 ISZERO PUSH2 0x1306 JUMPI RETURNDATASIZE PUSH1 0x0 DUP1 RETURNDATACOPY RETURNDATASIZE PUSH1 0x0 REVERT JUMPDEST POP POP POP POP PUSH1 0x40 MLOAD RETURNDATASIZE PUSH1 0x0 DUP3 RETURNDATACOPY PUSH1 0x1F RETURNDATASIZE SWAP1 DUP2 ADD PUSH1 0x1F NOT AND DUP3 ADD PUSH1 0x40 MSTORE PUSH2 0x132E SWAP2 SWAP1 DUP2 ADD SWAP1 PUSH2 0x2211 JUMP JUMPDEST POP DUP1 PUSH2 0x1339 DUP2 PUSH2 0x1F60 JUMP JUMPDEST SWAP2 POP POP PUSH2 0x1168 JUMP JUMPDEST POP POP PUSH1 0x20 DUP2 ADD MLOAD ISZERO PUSH2 0x13E8 JUMPI PUSH1 0x20 DUP1 DUP3 ADD MLOAD DUP4 MSTORE PUSH1 0x40 DUP1 DUP4 ADD MLOAD SWAP2 DUP5 ADD SWAP2 SWAP1 SWAP2 MSTORE PUSH1 0x60 DUP8 ADD MLOAD SWAP1 MLOAD PUSH4 0x7513CE1B PUSH1 0xE0 SHL DUP2 MSTORE PUSH20 0x0 SWAP2 PUSH4 0x7513CE1B SWAP2 PUSH2 0x13A0 SWAP2 DUP7 SWAP2 DUP7 SWAP2 SWAP1 PUSH1 0x4 ADD PUSH2 0x219E JUMP JUMPDEST PUSH1 0x0 PUSH1 0x40 MLOAD DUP1 DUP4 SUB DUP2 DUP7 GAS DELEGATECALL ISZERO DUP1 ISZERO PUSH2 0x13BD JUMPI RETURNDATASIZE PUSH1 0x0 DUP1 RETURNDATACOPY RETURNDATASIZE PUSH1 0x0 REVERT JUMPDEST POP POP POP POP PUSH1 0x40 MLOAD RETURNDATASIZE PUSH1 0x0 DUP3 RETURNDATACOPY PUSH1 0x1F RETURNDATASIZE SWAP1 DUP2 ADD PUSH1 0x1F NOT AND DUP3 ADD PUSH1 0x40 MSTORE PUSH2 0x13E5 SWAP2 SWAP1 DUP2 ADD SWAP1 PUSH2 0x2211 JUMP JUMPDEST SWAP2 POP JUMPDEST POP SWAP5 SWAP4 POP POP POP POP JUMP JUMPDEST DUP2 MLOAD PUSH1 0x40 MLOAD PUSH4 0x5640453D PUSH1 0xE0 SHL DUP2 MSTORE PUSH1 0x0 SWAP2 PUSH20 0x0 SWAP2 PUSH4 0x5640453D SWAP2 PUSH2 0x142E SWAP2 DUP7 SWAP2 SWAP1 PUSH1 0x4 ADD PUSH2 0x1F7B JUMP JUMPDEST PUSH1 0x20 PUSH1 0x40 MLOAD DUP1 DUP4 SUB DUP2 DUP7 GAS DELEGATECALL ISZERO DUP1 ISZERO PUSH2 0x144B JUMPI RETURNDATASIZE PUSH1 0x0 DUP1 RETURNDATACOPY RETURNDATASIZE PUSH1 0x0 REVERT JUMPDEST POP POP POP POP PUSH1 0x40 MLOAD RETURNDATASIZE PUSH1 0x1F NOT PUSH1 0x1F DUP3 ADD AND DUP3 ADD DUP1 PUSH1 0x40 MSTORE POP DUP2 ADD SWAP1 PUSH2 0x146F SWAP2 SWAP1 PUSH2 0x1EEC JUMP JUMPDEST DUP4 PUSH1 0x40 ADD MLOAD PUSH2 0x147E SWAP2 SWAP1 PUSH2 0x1F33 JUMP JUMPDEST SWAP1 POP DUP3 PUSH1 0x60 ADD MLOAD DUP2 PUSH2 0x1490 SWAP2 SWAP1 PUSH2 0x1FB3 JUMP JUMPDEST PUSH2 0x149A SWAP1 DUP3 PUSH2 0x1F33 JUMP JUMPDEST SWAP4 SWAP3 POP POP POP JUMP JUMPDEST PUSH1 0x0 DUP7 PUSH1 0x40 ADD MLOAD PUSH1 0x0 EQ PUSH2 0x14F1 JUMPI DUP7 PUSH1 0x80 ADD MLOAD DUP1 ISZERO PUSH2 0x14C3 JUMPI POP DUP7 PUSH1 0x40 ADD MLOAD DUP4 GT JUMPDEST ISZERO PUSH2 0x14D0 JUMPI POP PUSH1 0x0 PUSH2 0x155E JUMP JUMPDEST DUP7 PUSH1 0x60 ADD MLOAD DUP1 ISZERO PUSH2 0x14E4 JUMPI POP DUP7 PUSH1 0x40 ADD MLOAD DUP4 LT JUMPDEST ISZERO PUSH2 0x14F1 JUMPI POP PUSH1 0x0 PUSH2 0x155E JUMP JUMPDEST DUP5 PUSH2 0x14FE JUMPI POP PUSH1 0x1 PUSH2 0x155E JUMP JUMPDEST PUSH1 0x40 DUP8 ADD MLOAD PUSH2 0x1510 JUMPI POP DUP4 DUP3 GT PUSH2 0x155E JUMP JUMPDEST DUP7 PUSH1 0x40 ADD MLOAD DUP4 GT ISZERO PUSH2 0x1538 JUMPI PUSH2 0x1526 DUP5 DUP7 PUSH2 0x1FC7 JUMP JUMPDEST PUSH2 0x1530 DUP4 DUP6 PUSH2 0x1FC7 JUMP JUMPDEST LT SWAP1 POP PUSH2 0x155E JUMP JUMPDEST DUP5 DUP4 GT ISZERO PUSH2 0x1548 JUMPI POP PUSH1 0x1 PUSH2 0x155E JUMP JUMPDEST DUP5 DUP4 EQ ISZERO PUSH2 0x155A JUMPI PUSH2 0x1526 DUP5 DUP7 PUSH2 0x1FC7 JUMP JUMPDEST POP PUSH1 0x0 JUMPDEST SWAP7 SWAP6 POP POP POP POP POP POP JUMP JUMPDEST PUSH1 0x40 MLOAD DUP1 PUSH1 0x80 ADD PUSH1 0x40 MSTORE DUP1 PUSH1 0x0 DUP2 MSTORE PUSH1 0x20 ADD PUSH2 0x159E PUSH1 0x40 MLOAD DUP1 PUSH1 0x60 ADD PUSH1 0x40 MSTORE DUP1 PUSH1 0x0 DUP2 MSTORE PUSH1 0x20 ADD PUSH1 0x0 DUP2 MSTORE PUSH1 0x20 ADD PUSH1 0x0 DUP2 MSTORE POP SWAP1 JUMP JUMPDEST DUP2 MSTORE PUSH1 0x20 ADD PUSH1 0x60 DUP2 MSTORE PUSH1 0x20 ADD PUSH1 0x60 DUP2 MSTORE POP SWAP1 JUMP JUMPDEST PUSH1 0x40 MLOAD DUP1 PUSH1 0xC0 ADD PUSH1 0x40 MSTORE DUP1 PUSH1 0x60 DUP2 MSTORE PUSH1 0x20 ADD PUSH1 0x0 DUP2 MSTORE PUSH1 0x20 ADD PUSH2 0x15EF PUSH1 0x40 MLOAD DUP1 PUSH1 0x60 ADD PUSH1 0x40 MSTORE DUP1 PUSH1 0x0 DUP2 MSTORE PUSH1 0x20 ADD PUSH1 0x0 DUP2 MSTORE PUSH1 0x20 ADD PUSH1 0x0 DUP2 MSTORE POP SWAP1 JUMP JUMPDEST DUP2 MSTORE PUSH1 0x20 ADD PUSH1 0x0 DUP2 MSTORE PUSH1 0x20 ADD PUSH1 0x0 DUP2 MSTORE PUSH1 0x20 ADD PUSH1 0x60 DUP2 MSTORE POP SWAP1 JUMP JUMPDEST PUSH4 0x4E487B71 PUSH1 0xE0 SHL PUSH1 0x0 MSTORE PUSH1 0x41 PUSH1 0x4 MSTORE PUSH1 0x24 PUSH1 0x0 REVERT JUMPDEST PUSH1 0x40 MLOAD PUSH1 0xC0 DUP2 ADD PUSH1 0x1 PUSH1 0x1 PUSH1 0x40 SHL SUB DUP2 GT DUP3 DUP3 LT OR ISZERO PUSH2 0x1642 JUMPI PUSH2 0x1642 PUSH2 0x160A JUMP JUMPDEST PUSH1 0x40 MSTORE SWAP1 JUMP JUMPDEST PUSH1 0x40 MLOAD PUSH1 0xE0 DUP2 ADD PUSH1 0x1 PUSH1 0x1 PUSH1 0x40 SHL SUB DUP2 GT DUP3 DUP3 LT OR ISZERO PUSH2 0x1642 JUMPI PUSH2 0x1642 PUSH2 0x160A JUMP JUMPDEST PUSH1 0x40 MLOAD PUSH1 0x80 DUP2 ADD PUSH1 0x1 PUSH1 0x1 PUSH1 0x40 SHL SUB DUP2 GT DUP3 DUP3 LT OR ISZERO PUSH2 0x1642 JUMPI PUSH2 0x1642 PUSH2 0x160A JUMP JUMPDEST PUSH1 0x40 MLOAD PUSH1 0x60 DUP2 ADD PUSH1 0x1 PUSH1 0x1 PUSH1 0x40 SHL SUB DUP2 GT DUP3 DUP3 LT OR ISZERO PUSH2 0x1642 JUMPI PUSH2 0x1642 PUSH2 0x160A JUMP JUMPDEST PUSH1 0x40 MLOAD PUSH1 0x1F DUP3 ADD PUSH1 0x1F NOT AND DUP2 ADD PUSH1 0x1 PUSH1 0x1 PUSH1 0x40 SHL SUB DUP2 GT DUP3 DUP3 LT OR ISZERO PUSH2 0x16D6 JUMPI PUSH2 0x16D6 PUSH2 0x160A JUMP JUMPDEST PUSH1 0x40 MSTORE SWAP2 SWAP1 POP JUMP JUMPDEST PUSH1 0x0 PUSH1 0x1 PUSH1 0x1 PUSH1 0x40 SHL SUB DUP3 GT ISZERO PUSH2 0x16F7 JUMPI PUSH2 0x16F7 PUSH2 0x160A JUMP JUMPDEST POP PUSH1 0x5 SHL PUSH1 0x20 ADD SWAP1 JUMP JUMPDEST PUSH1 0x0 DUP3 PUSH1 0x1F DUP4 ADD SLT PUSH2 0x1712 JUMPI PUSH1 0x0 DUP1 REVERT JUMPDEST DUP2 CALLDATALOAD PUSH1 0x20 PUSH2 0x1727 PUSH2 0x1722 DUP4 PUSH2 0x16DE JUMP JUMPDEST PUSH2 0x16AE JUMP JUMPDEST DUP3 DUP2 MSTORE PUSH1 0x5 SWAP3 SWAP1 SWAP3 SHL DUP5 ADD DUP2 ADD SWAP2 DUP2 DUP2 ADD SWAP1 DUP7 DUP5 GT ISZERO PUSH2 0x1746 JUMPI PUSH1 0x0 DUP1 REVERT JUMPDEST DUP3 DUP7 ADD JUMPDEST DUP5 DUP2 LT ISZERO PUSH2 0x1761 JUMPI DUP1 CALLDATALOAD DUP4 MSTORE SWAP2 DUP4 ADD SWAP2 DUP4 ADD PUSH2 0x174A JUMP JUMPDEST POP SWAP7 SWAP6 POP POP POP POP POP POP JUMP JUMPDEST PUSH1 0x0 DUP3 PUSH1 0x1F DUP4 ADD SLT PUSH2 0x177D JUMPI PUSH1 0x0 DUP1 REVERT JUMPDEST DUP2 CALLDATALOAD PUSH1 0x20 PUSH2 0x178D PUSH2 0x1722 DUP4 PUSH2 0x16DE JUMP JUMPDEST DUP3 DUP2 MSTORE PUSH1 0x5 SWAP3 SWAP1 SWAP3 SHL DUP5 ADD DUP2 ADD SWAP2 DUP2 DUP2 ADD SWAP1 DUP7 DUP5 GT ISZERO PUSH2 0x17AC JUMPI PUSH1 0x0 DUP1 REVERT JUMPDEST DUP3 DUP7 ADD JUMPDEST DUP5 DUP2 LT ISZERO PUSH2 0x1761 JUMPI DUP1 CALLDATALOAD PUSH1 0x1 PUSH1 0x1 PUSH1 0x40 SHL SUB DUP1 DUP3 GT ISZERO PUSH2 0x17D0 JUMPI PUSH1 0x0 DUP1 DUP2 REVERT JUMPDEST SWAP1 DUP9 ADD SWAP1 PUSH1 0xC0 DUP3 DUP12 SUB PUSH1 0x1F NOT ADD DUP2 SGT ISZERO PUSH2 0x17EA JUMPI PUSH1 0x0 DUP1 DUP2 REVERT JUMPDEST PUSH2 0x17F2 PUSH2 0x1620 JUMP JUMPDEST DUP8 DUP5 ADD CALLDATALOAD DUP2 MSTORE PUSH1 0x40 DUP1 DUP6 ADD CALLDATALOAD DUP10 DUP4 ADD MSTORE PUSH1 0x60 DUP1 DUP7 ADD CALLDATALOAD DUP3 DUP5 ADD MSTORE PUSH1 0x80 SWAP2 POP DUP2 DUP7 ADD CALLDATALOAD DUP2 DUP5 ADD MSTORE POP PUSH1 0xA0 DUP1 DUP7 ADD CALLDATALOAD DUP3 DUP5 ADD MSTORE DUP4 DUP7 ADD CALLDATALOAD SWAP4 POP DUP5 DUP5 GT ISZERO PUSH2 0x1839 JUMPI PUSH1 0x0 SWAP2 POP DUP2 DUP3 REVERT JUMPDEST PUSH2 0x1847 DUP15 DUP12 DUP7 DUP10 ADD ADD PUSH2 0x1701 JUMP JUMPDEST SWAP1 DUP4 ADD MSTORE POP DUP7 MSTORE POP POP POP SWAP2 DUP4 ADD SWAP2 DUP4 ADD PUSH2 0x17B0 JUMP JUMPDEST DUP1 CALLDATALOAD DUP1 ISZERO ISZERO DUP2 EQ PUSH2 0x186C JUMPI PUSH1 0x0 DUP1 REVERT JUMPDEST SWAP2 SWAP1 POP JUMP JUMPDEST PUSH1 0x0 PUSH1 0xE0 DUP3 DUP5 SUB SLT ISZERO PUSH2 0x1883 JUMPI PUSH1 0x0 DUP1 REVERT JUMPDEST PUSH2 0x188B PUSH2 0x1648 JUMP JUMPDEST SWAP1 POP DUP2 CALLDATALOAD DUP2 MSTORE PUSH1 0x20 DUP3 ADD CALLDATALOAD PUSH1 0x20 DUP3 ADD MSTORE PUSH1 0x40 DUP3 ADD CALLDATALOAD PUSH1 0x40 DUP3 ADD MSTORE PUSH2 0x18B1 PUSH1 0x60 DUP4 ADD PUSH2 0x185C JUMP JUMPDEST PUSH1 0x60 DUP3 ADD MSTORE PUSH2 0x18C2 PUSH1 0x80 DUP4 ADD PUSH2 0x185C JUMP JUMPDEST PUSH1 0x80 DUP3 ADD MSTORE PUSH1 0xA0 DUP3 ADD CALLDATALOAD PUSH1 0xA0 DUP3 ADD MSTORE PUSH1 0xC0 DUP3 ADD CALLDATALOAD PUSH1 0x1 PUSH1 0x1 PUSH1 0x40 SHL SUB DUP2 GT ISZERO PUSH2 0x18EA JUMPI PUSH1 0x0 DUP1 REVERT JUMPDEST PUSH2 0x18F6 DUP5 DUP3 DUP6 ADD PUSH2 0x1701 JUMP JUMPDEST PUSH1 0xC0 DUP4 ADD MSTORE POP SWAP3 SWAP2 POP POP JUMP JUMPDEST PUSH1 0x0 PUSH1 0x80 DUP3 DUP5 SUB SLT ISZERO PUSH2 0x1914 JUMPI PUSH1 0x0 DUP1 REVERT JUMPDEST PUSH2 0x191C PUSH2 0x166A JUMP JUMPDEST SWAP1 POP DUP2 CALLDATALOAD DUP2 MSTORE PUSH1 0x20 DUP3 ADD CALLDATALOAD PUSH1 0x20 DUP3 ADD MSTORE PUSH1 0x40 DUP3 ADD CALLDATALOAD PUSH1 0x40 DUP3 ADD MSTORE PUSH1 0x60 DUP3 ADD CALLDATALOAD PUSH1 0x1 PUSH1 0x1 PUSH1 0x40 SHL SUB DUP2 GT ISZERO PUSH2 0x194F JUMPI PUSH1 0x0 DUP1 REVERT JUMPDEST PUSH2 0x195B DUP5 DUP3 DUP6 ADD PUSH2 0x176C JUMP JUMPDEST PUSH1 0x60 DUP4 ADD MSTORE POP SWAP3 SWAP2 POP POP JUMP JUMPDEST PUSH1 0x0 DUP1 PUSH1 0x0 DUP1 PUSH1 0x0 PUSH1 0xA0 DUP7 DUP9 SUB SLT ISZERO PUSH2 0x197F JUMPI PUSH1 0x0 DUP1 REVERT JUMPDEST DUP6 CALLDATALOAD PUSH1 0x1 PUSH1 0x1 PUSH1 0x40 SHL SUB DUP1 DUP3 GT ISZERO PUSH2 0x1996 JUMPI PUSH1 0x0 DUP1 REVERT JUMPDEST PUSH2 0x19A2 DUP10 DUP4 DUP11 ADD PUSH2 0x176C JUMP JUMPDEST SWAP7 POP PUSH1 0x20 DUP9 ADD CALLDATALOAD SWAP6 POP PUSH1 0x40 DUP9 ADD CALLDATALOAD SWAP2 POP DUP1 DUP3 GT ISZERO PUSH2 0x19BF JUMPI PUSH1 0x0 DUP1 REVERT JUMPDEST PUSH2 0x19CB DUP10 DUP4 DUP11 ADD PUSH2 0x1871 JUMP JUMPDEST SWAP5 POP PUSH1 0x60 DUP9 ADD CALLDATALOAD SWAP2 POP DUP1 DUP3 GT ISZERO PUSH2 0x19E1 JUMPI PUSH1 0x0 DUP1 REVERT JUMPDEST PUSH2 0x19ED DUP10 DUP4 DUP11 ADD PUSH2 0x1902 JUMP JUMPDEST SWAP4 POP PUSH1 0x80 DUP9 ADD CALLDATALOAD SWAP2 POP DUP1 DUP3 GT ISZERO PUSH2 0x1A03 JUMPI PUSH1 0x0 DUP1 REVERT JUMPDEST POP PUSH2 0x1A10 DUP9 DUP3 DUP10 ADD PUSH2 0x176C JUMP JUMPDEST SWAP2 POP POP SWAP3 SWAP6 POP SWAP3 SWAP6 SWAP1 SWAP4 POP JUMP JUMPDEST PUSH1 0x0 DUP2 MLOAD DUP1 DUP5 MSTORE PUSH1 0x20 DUP1 DUP6 ADD SWAP5 POP DUP1 DUP5 ADD PUSH1 0x0 JUMPDEST DUP4 DUP2 LT ISZERO PUSH2 0x1A4D JUMPI DUP2 MLOAD DUP8 MSTORE SWAP6 DUP3 ADD SWAP6 SWAP1 DUP3 ADD SWAP1 PUSH1 0x1 ADD PUSH2 0x1A31 JUMP JUMPDEST POP SWAP5 SWAP6 SWAP5 POP POP POP POP POP JUMP JUMPDEST PUSH1 0x0 DUP2 MLOAD DUP1 DUP5 MSTORE PUSH1 0x20 DUP1 DUP6 ADD DUP1 DUP2 SWAP7 POP DUP4 PUSH1 0x5 SHL DUP2 ADD SWAP2 POP DUP3 DUP7 ADD PUSH1 0x0 JUMPDEST DUP6 DUP2 LT ISZERO PUSH2 0x1ADE JUMPI DUP3 DUP5 SUB DUP10 MSTORE DUP2 MLOAD DUP1 MLOAD DUP6 MSTORE DUP6 DUP2 ADD MLOAD DUP7 DUP7 ADD MSTORE PUSH1 0x40 DUP1 DUP3 ADD MLOAD SWAP1 DUP7 ADD MSTORE PUSH1 0x60 DUP1 DUP3 ADD MLOAD SWAP1 DUP7 ADD MSTORE PUSH1 0x80 DUP1 DUP3 ADD MLOAD SWAP1 DUP7 ADD MSTORE PUSH1 0xA0 SWAP1 DUP2 ADD MLOAD PUSH1 0xC0 SWAP2 DUP7 ADD DUP3 SWAP1 MSTORE SWAP1 PUSH2 0x1ACA DUP2 DUP8 ADD DUP4 PUSH2 0x1A1D JUMP JUMPDEST SWAP11 DUP8 ADD SWAP11 SWAP6 POP POP POP SWAP1 DUP5 ADD SWAP1 PUSH1 0x1 ADD PUSH2 0x1A76 JUMP JUMPDEST POP SWAP2 SWAP8 SWAP7 POP POP POP POP POP POP POP JUMP JUMPDEST PUSH1 0xA0 DUP2 MSTORE PUSH1 0x0 PUSH2 0x1AFE PUSH1 0xA0 DUP4 ADD DUP7 PUSH2 0x1A58 JUMP JUMPDEST SWAP1 POP DUP4 PUSH1 0x20 DUP4 ADD MSTORE PUSH2 0x1B27 PUSH1 0x40 DUP4 ADD DUP5 DUP1 MLOAD DUP3 MSTORE PUSH1 0x20 DUP1 DUP3 ADD MLOAD SWAP1 DUP4 ADD MSTORE PUSH1 0x40 SWAP1 DUP2 ADD MLOAD SWAP2 ADD MSTORE JUMP JUMPDEST SWAP5 SWAP4 POP POP POP POP JUMP JUMPDEST PUSH1 0x0 PUSH1 0x60 DUP3 DUP5 SUB SLT ISZERO PUSH2 0x1B41 JUMPI PUSH1 0x0 DUP1 REVERT JUMPDEST PUSH2 0x1B49 PUSH2 0x168C JUMP JUMPDEST SWAP1 POP DUP2 CALLDATALOAD DUP2 MSTORE PUSH1 0x20 DUP3 ADD CALLDATALOAD PUSH1 0x20 DUP3 ADD MSTORE PUSH1 0x40 DUP3 ADD CALLDATALOAD PUSH1 0x40 DUP3 ADD MSTORE SWAP3 SWAP2 POP POP JUMP JUMPDEST PUSH1 0x0 DUP1 PUSH1 0x0 DUP1 PUSH1 0x80 DUP6 DUP8 SUB SLT ISZERO PUSH2 0x1B7F JUMPI PUSH1 0x0 DUP1 REVERT JUMPDEST PUSH1 0x1 PUSH1 0x1 PUSH1 0x40 SHL SUB DUP1 DUP7 CALLDATALOAD GT ISZERO PUSH2 0x1B95 JUMPI PUSH1 0x0 DUP1 REVERT JUMPDEST PUSH1 0xC0 DUP7 CALLDATALOAD DUP8 ADD DUP9 SUB SLT ISZERO PUSH2 0x1BA8 JUMPI PUSH1 0x0 DUP1 REVERT JUMPDEST PUSH2 0x1BB0 PUSH2 0x166A JUMP JUMPDEST DUP7 CALLDATALOAD DUP8 ADD DUP1 CALLDATALOAD DUP3 MSTORE PUSH2 0x1BC6 SWAP1 DUP10 SWAP1 PUSH1 0x20 ADD PUSH2 0x1B2F JUMP JUMPDEST PUSH1 0x20 DUP3 ADD MSTORE DUP2 PUSH1 0x80 DUP9 CALLDATALOAD DUP10 ADD ADD CALLDATALOAD GT ISZERO PUSH2 0x1BDF JUMPI PUSH1 0x0 DUP1 REVERT JUMPDEST DUP7 CALLDATALOAD DUP8 ADD PUSH1 0x80 DUP2 ADD CALLDATALOAD ADD PUSH1 0x1F DUP2 ADD DUP10 SGT PUSH2 0x1BF8 JUMPI PUSH1 0x0 DUP1 REVERT JUMPDEST PUSH2 0x1C05 PUSH2 0x1722 DUP3 CALLDATALOAD PUSH2 0x16DE JUMP JUMPDEST DUP2 CALLDATALOAD DUP1 DUP3 MSTORE PUSH1 0x20 DUP1 DUP4 ADD SWAP3 SWAP2 PUSH1 0x5 SHL DUP5 ADD ADD DUP12 LT ISZERO PUSH2 0x1C23 JUMPI PUSH1 0x0 DUP1 REVERT JUMPDEST PUSH1 0x20 DUP4 ADD JUMPDEST PUSH1 0x20 DUP5 CALLDATALOAD PUSH1 0x5 SHL DUP6 ADD ADD DUP2 LT ISZERO PUSH2 0x1CF7 JUMPI DUP6 DUP2 CALLDATALOAD GT ISZERO PUSH2 0x1C47 JUMPI PUSH1 0x0 DUP1 REVERT JUMPDEST DUP1 CALLDATALOAD DUP5 ADD PUSH2 0x100 DUP2 DUP15 SUB PUSH1 0x1F NOT ADD SLT ISZERO PUSH2 0x1C60 JUMPI PUSH1 0x0 DUP1 REVERT JUMPDEST PUSH2 0x1C68 PUSH2 0x1620 JUMP JUMPDEST DUP8 PUSH1 0x20 DUP4 ADD CALLDATALOAD GT ISZERO PUSH2 0x1C79 JUMPI PUSH1 0x0 DUP1 REVERT JUMPDEST PUSH2 0x1C8B DUP15 PUSH1 0x20 DUP1 DUP6 ADD CALLDATALOAD DUP6 ADD ADD PUSH2 0x1701 JUMP JUMPDEST DUP2 MSTORE PUSH1 0x40 DUP3 ADD CALLDATALOAD PUSH1 0x20 DUP3 ADD MSTORE PUSH2 0x1CA4 DUP15 PUSH1 0x60 DUP5 ADD PUSH2 0x1B2F JUMP JUMPDEST PUSH1 0x40 DUP3 ADD MSTORE PUSH1 0xC0 DUP3 ADD CALLDATALOAD PUSH1 0x60 DUP3 ADD MSTORE PUSH1 0xE0 DUP3 ADD CALLDATALOAD PUSH1 0x80 DUP3 ADD MSTORE DUP8 PUSH2 0x100 DUP4 ADD CALLDATALOAD GT ISZERO PUSH2 0x1CCF JUMPI PUSH1 0x0 DUP1 REVERT JUMPDEST PUSH2 0x1CE3 DUP15 PUSH1 0x20 PUSH2 0x100 DUP6 ADD CALLDATALOAD DUP6 ADD ADD PUSH2 0x1701 JUMP JUMPDEST PUSH1 0xA0 DUP3 ADD MSTORE DUP5 MSTORE POP PUSH1 0x20 SWAP3 DUP4 ADD SWAP3 ADD PUSH2 0x1C28 JUMP JUMPDEST POP PUSH1 0x40 DUP5 ADD MSTORE POP POP DUP7 CALLDATALOAD DUP8 ADD PUSH1 0xA0 ADD CALLDATALOAD DUP3 LT ISZERO PUSH2 0x1D13 JUMPI PUSH1 0x0 DUP1 REVERT JUMPDEST PUSH2 0x1D26 DUP9 DUP9 CALLDATALOAD DUP10 ADD PUSH1 0xA0 DUP2 ADD CALLDATALOAD ADD PUSH2 0x176C JUMP JUMPDEST PUSH1 0x60 DUP3 ADD MSTORE SWAP5 POP PUSH1 0x20 DUP7 ADD CALLDATALOAD SWAP4 POP PUSH1 0x40 DUP7 ADD CALLDATALOAD DUP2 LT ISZERO PUSH2 0x1D45 JUMPI PUSH1 0x0 DUP1 REVERT JUMPDEST PUSH2 0x1D55 DUP8 PUSH1 0x40 DUP9 ADD CALLDATALOAD DUP9 ADD PUSH2 0x1871 JUMP JUMPDEST SWAP3 POP DUP1 PUSH1 0x60 DUP8 ADD CALLDATALOAD GT ISZERO PUSH2 0x1D68 JUMPI PUSH1 0x0 DUP1 REVERT JUMPDEST POP PUSH2 0x1D79 DUP7 PUSH1 0x60 DUP8 ADD CALLDATALOAD DUP8 ADD PUSH2 0x1902 JUMP JUMPDEST SWAP1 POP SWAP3 SWAP6 SWAP2 SWAP5 POP SWAP3 POP JUMP JUMPDEST DUP1 MLOAD PUSH2 0x100 DUP1 DUP5 MSTORE DUP2 MLOAD SWAP1 DUP5 ADD DUP2 SWAP1 MSTORE PUSH1 0x0 SWAP2 PUSH2 0x120 DUP6 ADD SWAP2 PUSH1 0x20 SWAP2 DUP3 ADD SWAP1 DUP5 JUMPDEST DUP2 DUP2 LT ISZERO PUSH2 0x1DC1 JUMPI DUP3 MLOAD DUP6 MSTORE SWAP4 DUP4 ADD SWAP4 SWAP2 DUP4 ADD SWAP2 PUSH1 0x1 ADD PUSH2 0x1DA5 JUMP JUMPDEST POP POP POP DUP4 DUP2 ADD MLOAD SWAP1 DUP6 ADD MSTORE PUSH1 0x40 DUP1 DUP5 ADD MLOAD DUP1 MLOAD DUP3 DUP8 ADD MSTORE PUSH1 0x20 DUP2 ADD MLOAD PUSH1 0x60 DUP8 ADD MSTORE SWAP1 DUP2 ADD MLOAD PUSH1 0x80 DUP7 ADD MSTORE POP PUSH1 0x60 DUP4 ADD MLOAD PUSH1 0xA0 DUP6 ADD MSTORE PUSH1 0x80 DUP4 ADD MLOAD PUSH1 0xC0 DUP6 ADD MSTORE PUSH1 0xA0 DUP4 ADD MLOAD DUP5 DUP3 SUB PUSH1 0xE0 DUP7 ADD MSTORE PUSH2 0x1E17 DUP3 DUP3 PUSH2 0x1A1D JUMP JUMPDEST SWAP6 SWAP5 POP POP POP POP POP JUMP JUMPDEST PUSH1 0x0 PUSH1 0xC0 DUP4 ADD DUP3 MLOAD DUP5 MSTORE PUSH1 0x20 DUP1 DUP5 ADD MLOAD PUSH2 0x1E50 DUP3 DUP8 ADD DUP3 DUP1 MLOAD DUP3 MSTORE PUSH1 0x20 DUP1 DUP3 ADD MLOAD SWAP1 DUP4 ADD MSTORE PUSH1 0x40 SWAP1 DUP2 ADD MLOAD SWAP2 ADD MSTORE JUMP JUMPDEST POP PUSH1 0x40 DUP5 ADD MLOAD PUSH1 0xC0 PUSH1 0x80 DUP8 ADD MSTORE DUP3 DUP2 MLOAD DUP1 DUP6 MSTORE PUSH1 0xE0 DUP9 ADD SWAP2 POP PUSH1 0xE0 DUP2 PUSH1 0x5 SHL DUP10 ADD ADD SWAP5 POP DUP4 DUP4 ADD SWAP3 POP PUSH1 0x0 JUMPDEST DUP2 DUP2 LT ISZERO PUSH2 0x1EAA JUMPI PUSH1 0xDF NOT DUP10 DUP8 SUB ADD DUP4 MSTORE PUSH2 0x1E98 DUP7 DUP6 MLOAD PUSH2 0x1D84 JUMP JUMPDEST SWAP6 POP SWAP3 DUP5 ADD SWAP3 SWAP2 DUP5 ADD SWAP2 PUSH1 0x1 ADD PUSH2 0x1E7C JUMP JUMPDEST POP POP POP POP POP PUSH1 0x60 DUP4 ADD MLOAD DUP5 DUP3 SUB PUSH1 0xA0 DUP7 ADD MSTORE PUSH2 0x1E17 DUP3 DUP3 PUSH2 0x1A58 JUMP JUMPDEST PUSH1 0x20 DUP2 MSTORE PUSH1 0x0 PUSH2 0x149A PUSH1 0x20 DUP4 ADD DUP5 PUSH2 0x1E20 JUMP JUMPDEST PUSH1 0x20 DUP2 MSTORE PUSH1 0x0 PUSH2 0x149A PUSH1 0x20 DUP4 ADD DUP5 PUSH2 0x1A58 JUMP JUMPDEST PUSH1 0x0 PUSH1 0x20 DUP3 DUP5 SUB SLT ISZERO PUSH2 0x1EFE JUMPI PUSH1 0x0 DUP1 REVERT JUMPDEST POP MLOAD SWAP2 SWAP1 POP JUMP JUMPDEST PUSH4 0x4E487B71 PUSH1 0xE0 SHL PUSH1 0x0 MSTORE PUSH1 0x11 PUSH1 0x4 MSTORE PUSH1 0x24 PUSH1 0x0 REVERT JUMPDEST PUSH1 0x0 DUP3 NOT DUP3 GT ISZERO PUSH2 0x1F2E JUMPI PUSH2 0x1F2E PUSH2 0x1F05 JUMP JUMPDEST POP ADD SWAP1 JUMP JUMPDEST PUSH1 0x0 DUP3 DUP3 LT ISZERO PUSH2 0x1F45 JUMPI PUSH2 0x1F45 PUSH2 0x1F05 JUMP JUMPDEST POP SUB SWAP1 JUMP JUMPDEST PUSH4 0x4E487B71 PUSH1 0xE0 SHL PUSH1 0x0 MSTORE PUSH1 0x32 PUSH1 0x4 MSTORE PUSH1 0x24 PUSH1 0x0 REVERT JUMPDEST PUSH1 0x0 PUSH1 0x0 NOT DUP3 EQ ISZERO PUSH2 0x1F74 JUMPI PUSH2 0x1F74 PUSH2 0x1F05 JUMP JUMPDEST POP PUSH1 0x1 ADD SWAP1 JUMP JUMPDEST PUSH1 0x40 DUP2 MSTORE PUSH1 0x0 PUSH2 0x1F8E PUSH1 0x40 DUP4 ADD DUP6 PUSH2 0x1A58 JUMP JUMPDEST SWAP1 POP DUP3 PUSH1 0x20 DUP4 ADD MSTORE SWAP4 SWAP3 POP POP POP JUMP JUMPDEST PUSH4 0x4E487B71 PUSH1 0xE0 SHL PUSH1 0x0 MSTORE PUSH1 0x12 PUSH1 0x4 MSTORE PUSH1 0x24 PUSH1 0x0 REVERT JUMPDEST PUSH1 0x0 DUP3 PUSH2 0x1FC2 JUMPI PUSH2 0x1FC2 PUSH2 0x1F9D JUMP JUMPDEST POP MOD SWAP1 JUMP JUMPDEST PUSH1 0x0 DUP2 PUSH1 0x0 NOT DIV DUP4 GT DUP3 ISZERO ISZERO AND ISZERO PUSH2 0x1FE1 JUMPI PUSH2 0x1FE1 PUSH2 0x1F05 JUMP JUMPDEST POP MUL SWAP1 JUMP JUMPDEST PUSH1 0x0 DUP3 PUSH2 0x1FF5 JUMPI PUSH2 0x1FF5 PUSH2 0x1F9D JUMP JUMPDEST POP DIV SWAP1 JUMP JUMPDEST PUSH1 0x60 DUP2 MSTORE PUSH1 0x0 PUSH2 0x200D PUSH1 0x60 DUP4 ADD DUP7 PUSH2 0x1A58 JUMP JUMPDEST PUSH1 0x20 DUP4 ADD SWAP5 SWAP1 SWAP5 MSTORE POP PUSH1 0x40 ADD MSTORE SWAP2 SWAP1 POP JUMP JUMPDEST PUSH1 0x0 DUP3 PUSH1 0x1F DUP4 ADD SLT PUSH2 0x2030 JUMPI PUSH1 0x0 DUP1 REVERT JUMPDEST DUP2 MLOAD PUSH1 0x20 PUSH2 0x2040 PUSH2 0x1722 DUP4 PUSH2 0x16DE JUMP JUMPDEST DUP3 DUP2 MSTORE PUSH1 0x5 SWAP3 SWAP1 SWAP3 SHL DUP5 ADD DUP2 ADD SWAP2 DUP2 DUP2 ADD SWAP1 DUP7 DUP5 GT ISZERO PUSH2 0x205F JUMPI PUSH1 0x0 DUP1 REVERT JUMPDEST DUP3 DUP7 ADD JUMPDEST DUP5 DUP2 LT ISZERO PUSH2 0x1761 JUMPI DUP1 MLOAD DUP4 MSTORE SWAP2 DUP4 ADD SWAP2 DUP4 ADD PUSH2 0x2063 JUMP JUMPDEST PUSH1 0x0 DUP3 PUSH1 0x1F DUP4 ADD SLT PUSH2 0x208B JUMPI PUSH1 0x0 DUP1 REVERT JUMPDEST DUP2 MLOAD PUSH1 0x20 PUSH2 0x209B PUSH2 0x1722 DUP4 PUSH2 0x16DE JUMP JUMPDEST DUP3 DUP2 MSTORE PUSH1 0x5 SWAP3 SWAP1 SWAP3 SHL DUP5 ADD DUP2 ADD SWAP2 DUP2 DUP2 ADD SWAP1 DUP7 DUP5 GT ISZERO PUSH2 0x20BA JUMPI PUSH1 0x0 DUP1 REVERT JUMPDEST DUP3 DUP7 ADD JUMPDEST DUP5 DUP2 LT ISZERO PUSH2 0x1761 JUMPI DUP1 MLOAD PUSH1 0x1 PUSH1 0x1 PUSH1 0x40 SHL SUB DUP1 DUP3 GT ISZERO PUSH2 0x20DE JUMPI PUSH1 0x0 DUP1 DUP2 REVERT JUMPDEST SWAP1 DUP9 ADD SWAP1 PUSH1 0xC0 DUP3 DUP12 SUB PUSH1 0x1F NOT ADD DUP2 SGT ISZERO PUSH2 0x20F8 JUMPI PUSH1 0x0 DUP1 DUP2 REVERT JUMPDEST PUSH2 0x2100 PUSH2 0x1620 JUMP JUMPDEST DUP8 DUP5 ADD MLOAD DUP2 MSTORE PUSH1 0x40 DUP1 DUP6 ADD MLOAD DUP10 DUP4 ADD MSTORE PUSH1 0x60 DUP1 DUP7 ADD MLOAD DUP3 DUP5 ADD MSTORE PUSH1 0x80 SWAP2 POP DUP2 DUP7 ADD MLOAD DUP2 DUP5 ADD MSTORE POP PUSH1 0xA0 DUP1 DUP7 ADD MLOAD DUP3 DUP5 ADD MSTORE DUP4 DUP7 ADD MLOAD SWAP4 POP DUP5 DUP5 GT ISZERO PUSH2 0x2147 JUMPI PUSH1 0x0 SWAP2 POP DUP2 DUP3 REVERT JUMPDEST PUSH2 0x2155 DUP15 DUP12 DUP7 DUP10 ADD ADD PUSH2 0x201F JUMP JUMPDEST SWAP1 DUP4 ADD MSTORE POP DUP7 MSTORE POP POP POP SWAP2 DUP4 ADD SWAP2 DUP4 ADD PUSH2 0x20BE JUMP JUMPDEST PUSH1 0x0 PUSH1 0x20 DUP3 DUP5 SUB SLT ISZERO PUSH2 0x217C JUMPI PUSH1 0x0 DUP1 REVERT JUMPDEST DUP2 MLOAD PUSH1 0x1 PUSH1 0x1 PUSH1 0x40 SHL SUB DUP2 GT ISZERO PUSH2 0x2192 JUMPI PUSH1 0x0 DUP1 REVERT JUMPDEST PUSH2 0x1B27 DUP5 DUP3 DUP6 ADD PUSH2 0x207A JUMP JUMPDEST PUSH1 0x60 DUP2 MSTORE PUSH1 0x0 PUSH2 0x21B1 PUSH1 0x60 DUP4 ADD DUP7 PUSH2 0x1E20 JUMP JUMPDEST DUP3 DUP2 SUB PUSH1 0x20 DUP5 ADD MSTORE PUSH2 0x21C3 DUP2 DUP7 PUSH2 0x1D84 JUMP JUMPDEST SWAP1 POP DUP3 DUP2 SUB PUSH1 0x40 DUP5 ADD MSTORE PUSH2 0x13E5 DUP2 DUP6 PUSH2 0x1A58 JUMP JUMPDEST PUSH1 0x0 PUSH1 0x60 DUP3 DUP5 SUB SLT ISZERO PUSH2 0x21E9 JUMPI PUSH1 0x0 DUP1 REVERT JUMPDEST PUSH2 0x21F1 PUSH2 0x168C JUMP JUMPDEST SWAP1 POP DUP2 MLOAD DUP2 MSTORE PUSH1 0x20 DUP3 ADD MLOAD PUSH1 0x20 DUP3 ADD MSTORE PUSH1 0x40 DUP3 ADD MLOAD PUSH1 0x40 DUP3 ADD MSTORE SWAP3 SWAP2 POP POP JUMP JUMPDEST PUSH1 0x0 PUSH1 0x20 DUP1 DUP4 DUP6 SUB SLT ISZERO PUSH2 0x2224 JUMPI PUSH1 0x0 DUP1 REVERT JUMPDEST DUP3 MLOAD PUSH1 0x1 PUSH1 0x1 PUSH1 0x40 SHL SUB DUP1 DUP3 GT ISZERO PUSH2 0x223B JUMPI PUSH1 0x0 DUP1 REVERT JUMPDEST SWAP1 DUP5 ADD SWAP1 PUSH1 0xC0 DUP3 DUP8 SUB SLT ISZERO PUSH2 0x224F JUMPI PUSH1 0x0 DUP1 REVERT JUMPDEST PUSH2 0x2257 PUSH2 0x166A JUMP JUMPDEST DUP3 MLOAD DUP2 MSTORE PUSH2 0x2267 DUP8 DUP6 DUP6 ADD PUSH2 0x21D7 JUMP JUMPDEST DUP5 DUP3 ADD MSTORE PUSH1 0x80 DUP4 ADD MLOAD DUP3 DUP2 GT ISZERO PUSH2 0x227D JUMPI PUSH1 0x0 DUP1 REVERT JUMPDEST DUP4 ADD PUSH1 0x1F DUP2 ADD DUP9 SGT PUSH2 0x228E JUMPI PUSH1 0x0 DUP1 REVERT JUMPDEST DUP1 MLOAD PUSH2 0x229C PUSH2 0x1722 DUP3 PUSH2 0x16DE JUMP JUMPDEST DUP2 DUP2 MSTORE PUSH1 0x5 SWAP2 SWAP1 SWAP2 SHL DUP3 ADD DUP7 ADD SWAP1 DUP7 DUP2 ADD SWAP1 DUP11 DUP4 GT ISZERO PUSH2 0x22BB JUMPI PUSH1 0x0 DUP1 REVERT JUMPDEST DUP8 DUP5 ADD JUMPDEST DUP4 DUP2 LT ISZERO PUSH2 0x237B JUMPI DUP1 MLOAD DUP8 DUP2 GT ISZERO PUSH2 0x22D6 JUMPI PUSH1 0x0 DUP1 REVERT JUMPDEST DUP6 ADD PUSH2 0x100 DUP2 DUP15 SUB PUSH1 0x1F NOT ADD SLT ISZERO PUSH2 0x22ED JUMPI PUSH1 0x0 DUP1 REVERT JUMPDEST PUSH2 0x22F5 PUSH2 0x1620 JUMP JUMPDEST DUP11 DUP3 ADD MLOAD DUP10 DUP2 GT ISZERO PUSH2 0x2306 JUMPI PUSH1 0x0 DUP1 REVERT JUMPDEST PUSH2 0x2314 DUP16 DUP14 DUP4 DUP7 ADD ADD PUSH2 0x201F JUMP JUMPDEST DUP3 MSTORE POP PUSH1 0x40 DUP3 ADD MLOAD DUP12 DUP3 ADD MSTORE PUSH2 0x232D DUP15 PUSH1 0x60 DUP5 ADD PUSH2 0x21D7 JUMP JUMPDEST PUSH1 0x40 DUP3 ADD MSTORE PUSH1 0xC0 DUP3 ADD MLOAD PUSH1 0x60 DUP3 ADD MSTORE PUSH1 0xE0 DUP3 ADD MLOAD PUSH1 0x80 DUP3 ADD MSTORE PUSH2 0x100 DUP3 ADD MLOAD DUP10 DUP2 GT ISZERO PUSH2 0x2359 JUMPI PUSH1 0x0 DUP1 REVERT JUMPDEST PUSH2 0x2367 DUP16 DUP14 DUP4 DUP7 ADD ADD PUSH2 0x201F JUMP JUMPDEST PUSH1 0xA0 DUP4 ADD MSTORE POP DUP5 MSTORE POP SWAP2 DUP9 ADD SWAP2 DUP9 ADD PUSH2 0x22BF JUMP JUMPDEST POP PUSH1 0x40 DUP6 ADD MSTORE POP POP POP PUSH1 0xA0 DUP4 ADD MLOAD SWAP4 POP DUP2 DUP5 GT ISZERO PUSH2 0x2398 JUMPI PUSH1 0x0 DUP1 REVERT JUMPDEST PUSH2 0x23A4 DUP8 DUP6 DUP6 ADD PUSH2 0x207A JUMP JUMPDEST PUSH1 0x60 DUP3 ADD MSTORE SWAP7 SWAP6 POP POP POP POP POP POP JUMP INVALID LOG2 PUSH5 0x6970667358 0x22 SLT KECCAK256 0xEB 0x2C CALLDATACOPY 0xB4 DUP10 RETURNDATACOPY 0xEA GAS CALLVALUE PUSH1 0x1D EXTCODESIZE 0xE1 0x49 0xC7 PUSH16 0xEB1B74CB10F0D210A3438A361F7A484F PUSH5 0x736F6C6343 STOP ADDMOD SIGNEXTEND STOP CALLER ","sha1":"a5b6c26aeca250fb514e531c1a78f37f3e1bd399","source":"// SPDX-License-Identifier: MIT\n// Beef Contracts v0.0.0 hello@mcdu.com\n\npragma solidity ^0.8.0;\nimport \"./../Market.sol\";\nimport \"./../Lib.sol\";\nimport \"./Search.sol\";\n//import \"../agnostic/StringLib.sol\";\n\nlibrary MarketSearchLib {\n    using StringLib for string;\n    using StringLib for uint;\n    using Array for address[];\n    using Array for uint64[];\n    using MarketLib for SolutionSetDesc;\n    using MarketLib for SolutionSet;\n    using MarketLib for Solution;\n    using MarketLib for Remainer[];\n    using MarketLib for Solution[];\n    using MarketLib for address[];\n\n    function selectable(\n        MarketSearch.SearchArgTarget memory target_,\n        MarketSearch.SearchArg memory searcharg_,\n        uint256 currentqty_,\n        uint256 currentquote_,\n        uint256 qty_,\n        uint256 quote_\n    ) private pure returns (bool) {\n\n        // qtymax qtymin watchdog\n        if (target_.qty != 0)\n        {\n            if (target_.qtyismax && qty_ > target_.qty)\n                return false;\n            if (target_.qtyismin && qty_ < target_.qty)\n                return false;\n        }\n\n        // None selected\n        if (currentqty_ == 0)\n            return true;\n\n        // here current is active\n\n        // qty unlimited \n        if (target_.qty == 0) \n            return qty_ > currentqty_;\n\n        // here target_.qty != 0\n\n        if (qty_ > target_.qty)\n            return qty_ * quote_ < currentqty_ * currentquote_;\n\n        // here qty <= target_.qty\n\n        if (qty_ > currentqty_) return true;\n\n        // here qty <= currentqty_\n\n        if (qty_ == currentqty_)\n            return qty_ * quote_ < currentqty_ * currentquote_; \n\n        // here qty < currentqty_\n\n        return false;\n    }\n\n    function solutionQtyAvail(Solution memory sol_, Solution[] memory used_)\n        private\n        pure\n        returns (uint256 qty_)\n    {\n        qty_ = sol_.qty - used_.getIdQty(sol_.orderid);\n        qty_ -= qty_ % sol_.granularity;\n    }\n\n\n    /*function recurseSearchBestQty(\n        Solution[] memory in_,\n        uint256 start_,\n        MarketSearch.SearchArgTarget memory target_,\n        MarketSearch.SearchArg memory searcharg_,\n        uint256 recurseqty_ \n    )\n        public\n        pure\n        returns (\n            uint256 qty_\n        )\n    {\n        require(target_.qty != 0,\"recurseSearchBestQty require target_.qty!=0\");\n        require(target_.qty >= recurseqty_,\n            \"recurseSearchBestQty require target_.qty >= recurseqty_\"\n        );\n\n        uint256 i = start_;\n        // _recurseFromTo must be align on new granularity\n        if (i > 0)\n        {\n            for (; i < in_.length; i++)\n                if (in_[i].granularity != in_[i - 1].granularity) break;\n            //require(false,StringLib.format(\"i={}\",i.toString()));\n        }\n        for (; i < in_.length; i++) {\n            // target qty\n            uint256 qty = target_.qty;\n\n            // if not qty unlimited\n            if (qty != 0) {\n                require(qty >= recurseqty_,\"recurseSearchBestQty require qty >= recurseqty_\");\n\n                // we remove was already have in stack\n                qty -= recurseqty_;\n\n                // we ajust qty based on granularity\n                if (qty % in_[i].granularity != 0)\n                {\n                    if (target_.qtyismax && target_.qtyismin)\n                    {\n                        // jump to next granularity\n                        for (; i < in_.length - 1; i++)\n                            if (in_[i].granularity != in_[i + 1].granularity) break;\n                        continue;\n                    }\n                    qty =qty - (qty % in_[i].granularity) + (target_.qtyismax  ? 0 : in_[i].granularity);\n                }\n            }\n\n            // here qty must be unlimited(0) or ajusted target_.qty\n\n            // we ajust the qty based on order qty\n            {\n                if (\n                    qty == 0 ||\n                    qty > solutionQtyAvail(in_[i], searcharg_.used)\n                ) qty = solutionQtyAvail(in_[i], searcharg_.used);\n            }\n            // nothing buyable on  this order if qty avail < granularity -> we jump to next\n            if (qty < in_[i].granularity) continue;\n\n\n            // here qty >= granularity\n            // we know we are going to use this order\n\n            // before adding this order,we make the recurse split to next granularity as is this order never existed\n            if (target_.qty > recurseqty_) {\n               uint256 recurseqty = recurseSearchBestQty(\n                        in_,\n                        i + 1,\n                        target_,\n                        searcharg_,\n                        recurseqty_\n                    );\n                if (recurseqty != 0)\n                {\n                    if (qty_== 0 ||(recurseqty<target_.qty && recurseqty>qty_) || (recurseqty>=target_.qty && (qty_<target_.qty ||recurseqty<qty_)))\n                        qty_ = recurseqty;\n                }\n            }\n            recurseqty_+=qty;\n            if (qty_== 0 || (recurseqty_<target_.qty && recurseqty_>qty_) || (recurseqty_>=target_.qty && (qty_<target_.qty ||recurseqty_<qty_)))\n                qty_ = recurseqty_;\n\n            if (target_.qty <= recurseqty_)\n                break;\n\n            // if we didnt used all the capacity\n            if (qty < solutionQtyAvail(in_[i], searcharg_.used)) {\n                // we jump to next granularity\n                for (; i < in_.length - 1; i++)\n                    if (in_[i].granularity != in_[i + 1].granularity) break;\n            }\n\n        }\n    }*/\n\n\n    /**\n     * @dev we iterate thru solution to seek best price solution\n     * in_ filtered solutions\n     * startin_ is used  for recusion\n     * qty_ target qty, assert if 0, remainer should be removed from qty before calling\n     * searcharg_\n     *      searcharg_.maxquote IGNORED     should be already filtered\n     *      searcharg_.maxavgquote          should be processed\n     *      searcharg_.maxcount IGNORED     is handled is __fromTo\n     *      searcharg_.used                 must be removed from solutions\n     *      searcharg_.remainer IGNORED     should be removed from qty_ before call\n     * used_ is the used order to exclude in recursion and count recusion\n     */\n    function recurseSearch(\n        Solution[] memory in_,\n        uint256 start_,\n        MarketSearch.SearchArgTarget memory target_,\n        MarketSearch.SearchArg memory searcharg_,\n        Solution[] memory recursestack_ //, // , maxcount should be ignored since its the best combinaison shoot\n    )\n        public\n        pure\n        returns (\n            Solution[] memory out_,\n            uint256 qty_,\n            Quote memory quote_\n        )\n    {\n        require(\n            target_.qty == 0 || target_.qty >= recursestack_.getQty(),\n            \"recurseSearch require target_.qty==0 || target_.qty >= searcharg_.used.getQty()\"\n        );\n        Solution[] memory stack = new Solution[](\n            recursestack_.length + in_.length - start_\n        );\n        for (uint256 j = 0; j < recursestack_.length; j++)\n            stack[j] = recursestack_[j];\n        uint256 stackcount = recursestack_.length;\n\n        uint256 i = start_;\n        // _recurseFromTo must be align on new granularity\n       if (i > 0)\n        {\n            for (; i < in_.length; i++)\n                if (in_[i].granularity != in_[i - 1].granularity) break;\n            //require(false,StringLib.format(\"i={}\",i.toString()));\n        }\n        for (; i < in_.length; i++) {\n            // target qty\n            uint256 qty = target_.qty;\n\n            // if not qty unlimited\n            if (qty != 0) {\n                require(qty >= stack.getQty(stackcount),\"recurseSearch require qty >= stack.getQty(stackcount)\");\n                /*require(\n                    qty >= stack.getQty(stackcount),\n                        StringLib.format(\"recurseSearch require qty >= stack.getQty(stackcount) qty={} stack.getQty={} target_.qty={}\",\n                            qty.toDecimalString(),\n                            stack.getQty(stackcount).toDecimalString(),\n                            target_.qty.toDecimalString())\n                );*/\n                //if (qty <= stack.getQty(stackcount))\n                //    break;\n\n                // we remove was already have in stack\n                qty -= stack.getQty(stackcount);\n\n                // we ajust qty based on granularity\n                if (qty % in_[i].granularity > 0)\n                {\n                    if (target_.qtyismax && target_.qtyismin)\n                    {\n                        // jump to next granularity\n                        for (; i < in_.length - 1; i++)\n                            if (in_[i].granularity != in_[i + 1].granularity) break;\n                        continue;\n                    }\n                    qty = qty - (qty % in_[i].granularity) + (target_.qtyismax ? 0 : in_[i].granularity);\n                }\n            }\n\n            // here qty must be unlimited(0) or ajusted target_.qty\n\n            // we ajust the qty based on order qty\n            {\n                if (\n                    qty == 0 ||\n                    qty > solutionQtyAvail(in_[i], searcharg_.used)\n                ) qty = solutionQtyAvail(in_[i], searcharg_.used);\n            }\n            // nothing buyable on  this order if qty avail < granularity -> we jump to next\n            if (qty < in_[i].granularity) continue;\n\n            // adjusting qty based on maxavgquote\n            if (\n                searcharg_.maxavgquote != 0 &&\n                in_[i].quote > searcharg_.maxavgquote\n            ) {\n                uint256 deltaqty = ((((stack.getQty(stackcount) *\n                    searcharg_.maxavgquote) / 10**18) -\n                    stack.getTotal(stackcount)) * 10**18) /\n                    (in_[i].quote - searcharg_.maxavgquote);\n\n                if (qty > deltaqty)\n                    qty = deltaqty - (deltaqty % in_[i].granularity);\n            }\n            if (searcharg_.maxtotal != 0) {\n                //uint256 _total = stack.getTotal(stackcount);\n                // PARANOIA\n                //require(searcharg_.maxtotal>_total,\"recurseSearch require searcharg_.maxtotal>_total\");\n\n                uint256 deltaqty = ((searcharg_.maxtotal -\n                    stack.getTotal(stackcount)) * 10**18) / in_[i].quote;\n\n                if (qty > deltaqty)\n                    qty = deltaqty - (deltaqty % in_[i].granularity);\n            }\n\n            // if we are under granularity here , means maxavgquote reached with granularity,\n            // useless to test same granularity orders because quote will be equal or higher\n            if (qty < in_[i].granularity) {\n                // jump to next granularity\n                for (; i < in_.length - 1; i++)\n                    if (in_[i].granularity != in_[i + 1].granularity) break;\n                continue;\n            }\n\n            // here qty >= granularity\n            // we know we are going to use this order\n\n            // before adding this order,we make the recurse split to next granularity as is this order never existed\n            if (target_.qty != 0 && target_.qty > stack.getQty(stackcount)) {\n                /*require(\n                    false,\n                        StringLib.format(\"recurseSearch target_.qty={} stack.getQty={}\",\n                            target_.qty.toDecimalString(),\n                            stack.getQty(stackcount).toDecimalString()\n                            )\n                );*/\n                (\n                    Solution[] memory recurseout,\n                    uint256 recurseqty,\n                    Quote memory recursequote\n                ) = recurseSearch(\n                        in_,\n                        i + 1,\n                        target_,\n                        searcharg_,\n                        stack.duplicate(0, stackcount)\n                    );\n                if (recurseqty != 0)\n                    if (\n                        selectable(\n                            target_,\n                            searcharg_,\n                            qty_,\n                            quote_.quoteavg,\n                            recurseqty,\n                            recursequote.quoteavg\n                        )\n                    ) //,0))\n                    {\n                        out_ = recurseout;\n                        qty_ = recurseqty;\n                        quote_ = recursequote;\n                    }\n            }\n\n            {\n                stack[stackcount].orderid = in_[i].orderid;\n                stack[stackcount].addr = in_[i].addr;\n                stack[stackcount].qty = qty;\n                stack[stackcount].granularity = in_[i].granularity;\n                stack[stackcount].quote = in_[i].quote;\n                stack[stackcount].delivery = in_[i].delivery;\n                stackcount++;\n            }\n\n            if (\n                selectable(\n                    target_,\n                    searcharg_,\n                    qty_,\n                    quote_.quoteavg,\n                    stack.getQty(stackcount),\n                    stack.getAvg(stackcount)\n                )\n            ) {\n                out_ = stack.duplicate(0, stackcount);\n                quote_ = Quote(0, 0, 0);\n                qty_ = 0;\n                for (uint256 j = 0; j < out_.length; j++) {\n                    if (quote_.quotemin == 0 || quote_.quotemin > out_[j].quote)\n                        quote_.quotemin = out_[j].quote;\n                    if (quote_.quotemax == 0 || quote_.quotemax < out_[j].quote)\n                        quote_.quotemax = out_[j].quote;\n                    quote_.quoteavg += (out_[j].qty * out_[j].quote);\n                    qty_ += out_[j].qty;\n                }\n                quote_.quoteavg /= qty_;\n            }\n\n            //if (searcharg_.maxcount!=0&&out_.length==searcharg_.maxcount)\n            //    break;\n            if (target_.qty != 0 && target_.qty <= stack.getQty(stackcount))\n            {\n                /*require(\n                    false,\n                        StringLib.format(\"recurseSearch target_.qty={} stack.getQty={}\",\n                            target_.qty.toDecimalString(),\n                            stack.getQty(stackcount).toDecimalString()\n                            )\n                );*/\n                break;\n            }\n            // if we didnt used all the capacity\n            if (qty < solutionQtyAvail(in_[i], searcharg_.used)) {\n                // we jump to next granularity\n                for (; i < in_.length - 1; i++)\n                    if (in_[i].granularity != in_[i + 1].granularity) break;\n            }\n\n        }\n    }\n\n    function recurseSearchCFilter(\n        SolutionSet memory in_,\n        bytes32 current_,\n        MarketSearch.SearchArgTarget memory target_,\n        MarketSearch.SearchArg memory searcharg_\n    )\n        public\n        pure\n        returns (SolutionSet memory out_)\n    {\n        SolutionSetDesc memory selecteddesc;\n        {\n            uint len = in_.descs.length;\n            for (uint i;i<len;i++)\n            {\n                if (in_.descs[i].path[0]==current_&&in_.descs[i].path[in_.descs[i].path.length-1]==target_.currency)\n                {\n                    if (selecteddesc.qty ==0 || selecteddesc.quote.quoteavg > in_.descs[i].quote.quoteavg)\n                        selecteddesc = in_.descs[i];\n                }\n                out_.add(in_.descs[i],in_.solutions);\n            }\n        }\n        if (selecteddesc.qty!=0)\n        {\n            out_.qty = selecteddesc.qty;\n            out_.quote=  selecteddesc.quote;\n            out_ = out_.add(selecteddesc,in_.solutions);\n        }\n    }\n}\n","sourcePath":"contracts/Market/Reader/SearchLib.sol","deployment":{"address":"0xB9Fc3B7000e8D99133F6Cb934cd683e96b93Eec6","chainid":"9997","blockHeight":12717}}