{"abi":[{"inputs":[{"internalType":"contract Repository","name":"rep_","type":"address"}],"stateMutability":"nonpayable","type":"constructor","name":"constructor"},{"anonymous":false,"inputs":[{"indexed":true,"internalType":"address","name":"previousOwner","type":"address"},{"indexed":true,"internalType":"address","name":"newOwner","type":"address"}],"name":"OwnershipTransferred","type":"event"},{"stateMutability":"nonpayable","type":"fallback"},{"inputs":[],"name":"STOP","outputs":[{"internalType":"bool","name":"","type":"bool"}],"stateMutability":"view","type":"function"},{"inputs":[],"name":"STOPFOREVER","outputs":[{"internalType":"bool","name":"","type":"bool"}],"stateMutability":"view","type":"function"},{"inputs":[{"internalType":"uint256","name":"val_","type":"uint256"}],"name":"UInt256ToUInt32","outputs":[{"internalType":"uint32","name":"","type":"uint32"}],"stateMutability":"pure","type":"function"},{"inputs":[{"internalType":"uint256","name":"val_","type":"uint256"}],"name":"UInt256ToUInt48","outputs":[{"internalType":"uint48","name":"","type":"uint48"}],"stateMutability":"pure","type":"function"},{"inputs":[{"internalType":"uint256","name":"val_","type":"uint256"}],"name":"UInt256ToUInt64","outputs":[{"internalType":"uint64","name":"","type":"uint64"}],"stateMutability":"pure","type":"function"},{"inputs":[{"internalType":"uint32","name":"val_","type":"uint32"}],"name":"UInt32ToUInt256","outputs":[{"internalType":"uint256","name":"","type":"uint256"}],"stateMutability":"pure","type":"function"},{"inputs":[{"internalType":"uint48","name":"val_","type":"uint48"}],"name":"UInt48ToUInt256","outputs":[{"internalType":"uint256","name":"","type":"uint256"}],"stateMutability":"pure","type":"function"},{"inputs":[{"internalType":"uint64","name":"val_","type":"uint64"}],"name":"UInt64ToUInt256","outputs":[{"internalType":"uint256","name":"","type":"uint256"}],"stateMutability":"pure","type":"function"},{"inputs":[{"internalType":"bytes32","name":"_from","type":"bytes32"},{"internalType":"bytes32","name":"fromto_","type":"bytes32"}],"name":"_existPath","outputs":[{"internalType":"bool","name":"","type":"bool"}],"stateMutability":"view","type":"function"},{"inputs":[],"name":"checkOperators","outputs":[],"stateMutability":"view","type":"function"},{"inputs":[],"name":"id","outputs":[{"internalType":"bytes32","name":"","type":"bytes32"}],"stateMutability":"view","type":"function"},{"inputs":[{"internalType":"uint256","name":"order_","type":"uint256"}],"name":"order","outputs":[{"components":[{"internalType":"address","name":"account","type":"address"},{"internalType":"bytes32","name":"from","type":"bytes32"},{"internalType":"bytes32","name":"to","type":"bytes32"},{"internalType":"uint256","name":"orderid","type":"uint256"},{"internalType":"uint256","name":"qty","type":"uint256"},{"internalType":"uint256","name":"granularity","type":"uint256"},{"internalType":"uint256","name":"qtydone","type":"uint256"},{"internalType":"uint256","name":"originalqty","type":"uint256"},{"internalType":"uint256","name":"quote","type":"uint256"},{"internalType":"uint256","name":"originalquote","type":"uint256"},{"internalType":"uint256","name":"originalbasedquote","type":"uint256"},{"internalType":"uint256","name":"expire","type":"uint256"},{"internalType":"enum Order.State","name":"state","type":"uint8"},{"internalType":"uint8","name":"options","type":"uint8"}],"internalType":"struct Order.InfoPublic","name":"","type":"tuple"}],"stateMutability":"view","type":"function"},{"inputs":[],"name":"owner","outputs":[{"internalType":"address","name":"","type":"address"}],"stateMutability":"view","type":"function"},{"inputs":[],"name":"renounceOwnership","outputs":[],"stateMutability":"nonpayable","type":"function"},{"inputs":[],"name":"rep","outputs":[{"internalType":"contract Repository","name":"","type":"address"}],"stateMutability":"view","type":"function"},{"inputs":[],"name":"setSTOP","outputs":[],"stateMutability":"nonpayable","type":"function"},{"inputs":[],"name":"setSTOPFOREVER","outputs":[],"stateMutability":"nonpayable","type":"function"},{"inputs":[{"internalType":"bytes4","name":"interfaceId","type":"bytes4"}],"name":"supportsInterface","outputs":[{"internalType":"bool","name":"","type":"bool"}],"stateMutability":"view","type":"function"},{"inputs":[{"internalType":"address","name":"newOwner","type":"address"}],"name":"transferOwnership","outputs":[],"stateMutability":"nonpayable","type":"function"},{"inputs":[],"name":"unsetSTOP","outputs":[],"stateMutability":"nonpayable","type":"function"}],"bytecode":"60a060405234801561001057600080fd5b5060405161173238038061173283398101604081905261002f916100a6565b806100393361004b565b6001600160a01b0316608052506100d6565b600080546001600160a01b038381166201000081810262010000600160b01b0319851617855560405193049190911692909183917f8be0079c531659141344cd1fd0a4f28419497f9722a3daafe3b4186f6b6457e091a35050565b6000602082840312156100b857600080fd5b81516001600160a01b03811681146100cf57600080fd5b9392505050565b60805161161761011b60003960008181610324015281816103c301528181610461015281816106a601528181610a1c01528181610c410152610e3301526116176000f3fe608060405234801561001057600080fd5b506004361061012c5760003560e01c8063854ba99d116100ad578063ccc0795911610071578063ccc079591461031f578063d693585814610346578063e4b161441461034e578063f2fde38b14610361578063feab4454146103745761012c565b8063854ba99d146102a35780638da5cb5b146102ab57806397962076146102d6578063af640d0f146102e6578063b03fd40d1461030c5761012c565b80635f5c5baa116100f45780635f5c5baa1461023e5780636296514114610246578063715018a61461027257806372ea61bf1461027a5780637af6649a146102825761012c565b806301ffc9a7146101b157806305d6bd9c146101d95780631ef4590d146101e357806321603f43146101f65780632203616d14610216575b61013461039e565b60006101446024600436846111b9565b8080601f016020809104026020016040519081016040528093929190818152602001838380828437600092018290525060208501519495509250503660231981019150601f19016004838037816024600437600080826000875af4925050506101ac81610568565b505050005b6101c46101bf3660046111e3565b61057e565b60405190151581526020015b60405180910390f35b6101e16105b5565b005b6101c46101f136600461120d565b6105cc565b61020961020436600461122f565b61065d565b6040516101d09190611280565b61022961022436600461122f565b610670565b60405163ffffffff90911681526020016101d0565b6101e1610681565b61025961025436600461122f565b610796565b60405167ffffffffffffffff90911681526020016101d0565b6101e16107c8565b6101e16107da565b610295610290366004611335565b6107f4565b6040519081526020016101d0565b6101c461080d565b6000546201000090046001600160a01b03165b6040516001600160a01b0390911681526020016101d0565b600054610100900460ff166101c4565b7f2e7a327ef83c2af7579c6634f2f5604519800c5f07626f27bd602fd11ed8e6ec610295565b61029561031a36600461135d565b61082b565b6102be7f000000000000000000000000000000000000000000000000000000000000000081565b6101e1610846565b61029561035c366004611387565b610862565b6101e161036f3660046113c2565b610879565b61038761038236600461122f565b6108f2565b60405165ffffffffffff90911681526020016101d0565b6000546001600160a01b03620100009091041633148061045157506001600160a01b037f0000000000000000000000000000000000000000000000000000000000000000166316279055336040516001600160e01b031960e084901b1681526001600160a01b039091166004820152602401602060405180830381865afa15801561042d573d6000803e3d6000fd5b505050506040513d601f19601f8201168201806040525081019061045191906113df565b806104ef57506001600160a01b037f000000000000000000000000000000000000000000000000000000000000000016636d70f7ae336040516001600160e01b031960e084901b1681526001600160a01b039091166004820152602401602060405180830381865afa1580156104cb573d6000803e3d6000fd5b505050506040513d601f19601f820116820180604052508101906104ef91906113df565b6105665760405162461bcd60e51b815260206004820152603960248201527f416c6c6f77616e63653a2063616c6c6572206d757374206265205265706f736960448201527f746f727920436f6e7472616374206f72204f70657261746f720000000000000060648201526084015b60405180910390fd5b565b3d6000803e808015610579573d6000f35b3d6000fd5b60006001600160e01b031982166301ffc9a760e01b14806105af57506001600160e01b031982166315d3789560e31b145b92915050565b6105bd61039e565b6105666000805460ff19169055565b6000828152600160205260408082209051632be5db2360e11b815260048101919091526024810183905273__Array_________________________________906357cbb64690604401602060405180830381865af4158015610632573d6000803e3d6000fd5b505050506040513d601f19601f8201168201806040525081019061065691906113df565b9392505050565b61066561112a565b6105af826000610903565b60006105af64e8d4a5100083611401565b6000546001600160a01b03620100009091041633148061073457506001600160a01b037f000000000000000000000000000000000000000000000000000000000000000016636d70f7ae336040516001600160e01b031960e084901b1681526001600160a01b039091166004820152602401602060405180830381865afa158015610710573d6000803e3d6000fd5b505050506040513d601f19601f8201168201806040525081019061073491906113df565b6105665760405162461bcd60e51b815260206004820152602d60248201527f416c6c6f77616e63653a2063616c6c6572206d757374206265205265706f736960448201526c3a37b93c9027b832b930ba37b960991b606482015260840161055d565b6000806107a86402540be40084611401565b9050826107ba826402540be400611423565b11156105af576105af611450565b6107d061106e565b61056660006110cf565b6107e261039e565b6105666000805460ff19166001179055565b60006105af65ffffffffffff831664174876e800611423565b6000805460ff16806108265750600054610100900460ff165b905090565b60006105af67ffffffffffffffff83166402540be400611423565b61084e61106e565b6105666000805461ff001916610100179055565b60006105af63ffffffff831664e8d4a51000611423565b61088161106e565b6001600160a01b0381166108e65760405162461bcd60e51b815260206004820152602660248201527f4f776e61626c653a206e6577206f776e657220697320746865207a65726f206160448201526564647265737360d01b606482015260840161055d565b6108ef816110cf565b50565b60006105af64174876e80083611401565b61090b61112a565b60008381526005602081815260408084208151610180810183528154815260018201546001600160a01b0381169482019490945293909291840191600160a01b900460ff169081111561096057610960611248565b600581111561097157610971611248565b81526001820154600160a81b900460ff1660208201526002820154604080830191909152600383015467ffffffffffffffff80821660608501526801000000000000000080830482166080860152600160801b808404831660a0870152600160c01b909304821660c086015260049586015480831660e087015290810482166101008601529190910416610120909201919091528251905163657c7e0960e01b8152918201529091507f00000000000000000000000000000000000000000000000000000000000000006001600160a01b03169063657c7e09906024016040805180830381865afa158015610a6a573d6000803e3d6000fd5b505050506040513d601f19601f82011682018060405250810190610a8e9190611466565b60408401526020830152608081015160608301528280610b27575060608101516040516336181b6760e11b815260ff909116600482015273__Order_________________________________90636c3036ce90602401602060405180830381865af4158015610b01573d6000803e3d6000fd5b505050506040513d601f19601f82011682018060405250810190610b2591906113df565b155b15610fab5760208101516001600160a01b0316825260a0810151610b4a9061082b565b60808301526060810151604051632b2076e360e11b815260ff909116600482015273__Order_________________________________90635640edc690602401602060405180830381865af4158015610ba7573d6000803e3d6000fd5b505050506040513d601f19601f82011682018060405250810190610bcb91906113df565b15610bdf57608082015160a0830152610d2c565b61012081015167ffffffffffffffff1615610c0c57610c0281610120015161082b565b60a0830152610d2c565b60405163023aa9ab60e61b81527fcd775f2396f9f13f12bcf8ca32e21df66559a8adc3944d0591127e7731f7ab8560048201527f00000000000000000000000000000000000000000000000000000000000000006001600160a01b031690638eaa6ac090602401602060405180830381865afa158015610c90573d6000803e3d6000fd5b505050506040513d601f19601f82011682018060405250810190610cb4919061148a565b6001600160a01b031663a9bf985883602001516040518263ffffffff1660e01b8152600401610ce591815260200190565b602060405180830381865afa158015610d02573d6000803e3d6000fd5b505050506040513d601f19601f82011682018060405250810190610d2691906114a7565b60a08301525b610d398160c0015161082b565b60c083015260e0810151610d4c9061082b565b60e08301526060810151604051635b7d0f6960e11b815260ff909116600482015273__Order_________________________________9063b6fa1ed290602401602060405180830381865af4158015610da9573d6000803e3d6000fd5b505050506040513d601f19601f82011682018060405250810190610dcd91906113df565b15610f9657610de081610140015161082b565b610120830152610160810151610df59061082b565b61014083015260405163023aa9ab60e61b81527f3cb99135f7a7c088d9085b446345038a22a85f4e8fe072b0e1b66d97243e745860048201526000907f00000000000000000000000000000000000000000000000000000000000000006001600160a01b031690638eaa6ac090602401602060405180830381865afa158015610e82573d6000803e3d6000fd5b505050506040513d601f19601f82011682018060405250810190610ea6919061148a565b6001600160a01b0316636464b68a846020015185604001516040518363ffffffff1660e01b8152600401610ee4929190918252602082015260400190565b606060405180830381865afa158015610f01573d6000803e3d6000fd5b505050506040513d601f19601f82011682018060405250810190610f2591906114c0565b5091505080610f6a5760405162461bcd60e51b8152602060048201526011602482015270145d5bdd194e88139bdd081c5d5bdd1959607a1b604482015260640161055d565b610140830151610f7a9082611401565b836101200151610f8a9190611423565b61010084015250610fab565b610fa481610100015161082b565b6101008301525b604051630212d6cb60e21b815273__Order_________________________________9063084b5b2c90610fe29084906004016114ee565b602060405180830381865af4158015610fff573d6000803e3d6000fd5b505050506040513d601f19601f8201168201806040525081019061102391906114a7565b6101608301526040810151610180830190600581111561104557611045611248565b9081600581111561105857611058611248565b9052506060015160ff166101a082015292915050565b6000546001600160a01b03620100009091041633146105665760405162461bcd60e51b815260206004820152601f60248201527f416c6c6f77616e63653a2063616c6c6572206d757374206265204f776e657200604482015260640161055d565b600080546001600160a01b038381166201000081810262010000600160b01b0319851617855560405193049190911692909183917f8be0079c531659141344cd1fd0a4f28419497f9722a3daafe3b4186f6b6457e091a35050565b604051806101c0016040528060006001600160a01b031681526020016000801916815260200160008019168152602001600081526020016000815260200160008152602001600081526020016000815260200160008152602001600081526020016000815260200160008152602001600060058111156111ac576111ac611248565b8152600060209091015290565b600080858511156111c957600080fd5b838611156111d657600080fd5b5050820193919092039150565b6000602082840312156111f557600080fd5b81356001600160e01b03198116811461065657600080fd5b6000806040838503121561122057600080fd5b50508035926020909101359150565b60006020828403121561124157600080fd5b5035919050565b634e487b7160e01b600052602160045260246000fd5b6006811061127c57634e487b7160e01b600052602160045260246000fd5b9052565b81516001600160a01b031681526101c081016020830151602083015260408301516040830152606083015160608301526080830151608083015260a083015160a083015260c083015160c083015260e083015160e08301526101008084015181840152506101208084015181840152506101408084015181840152506101608084015181840152506101808084015161131b8285018261125e565b50506101a08381015160ff8116848301525b505092915050565b60006020828403121561134757600080fd5b813565ffffffffffff8116811461065657600080fd5b60006020828403121561136f57600080fd5b813567ffffffffffffffff8116811461065657600080fd5b60006020828403121561139957600080fd5b813563ffffffff8116811461065657600080fd5b6001600160a01b03811681146108ef57600080fd5b6000602082840312156113d457600080fd5b8135610656816113ad565b6000602082840312156113f157600080fd5b8151801515811461065657600080fd5b60008261141e57634e487b7160e01b600052601260045260246000fd5b500490565b600081600019048311821515161561144b57634e487b7160e01b600052601160045260246000fd5b500290565b634e487b7160e01b600052600160045260246000fd5b6000806040838503121561147957600080fd5b505080516020909101519092909150565b60006020828403121561149c57600080fd5b8151610656816113ad565b6000602082840312156114b957600080fd5b5051919050565b6000806000606084860312156114d557600080fd5b8351925060208401519150604084015190509250925092565b81518152602080830151610180830191611512908401826001600160a01b03169052565b506040830151611525604084018261125e565b50606083015161153a606084018260ff169052565b506080830151608083015260a083015161156060a084018267ffffffffffffffff169052565b5060c083015161157c60c084018267ffffffffffffffff169052565b5060e083015161159860e084018267ffffffffffffffff169052565b506101008381015167ffffffffffffffff90811691840191909152610120808501518216908401526101408085015182169084015261016080850151918216818501529061132d56fea264697066735822122015452b5862764d721ac3a013be2d5088238aa52ee14016e63da5def9871d4e7a64736f6c634300080b0033","bytecodeSha1":"5bcdb9434127f6bda81540e4d4a58d2bf882bd8f","compiler":{"evm_version":"istanbul","optimizer":{"enabled":true,"runs":200},"version":"0.8.11+commit.d7f03943"},"contractName":"Market","deployedBytecode":"608060405234801561001057600080fd5b506004361061012c5760003560e01c8063854ba99d116100ad578063ccc0795911610071578063ccc079591461031f578063d693585814610346578063e4b161441461034e578063f2fde38b14610361578063feab4454146103745761012c565b8063854ba99d146102a35780638da5cb5b146102ab57806397962076146102d6578063af640d0f146102e6578063b03fd40d1461030c5761012c565b80635f5c5baa116100f45780635f5c5baa1461023e5780636296514114610246578063715018a61461027257806372ea61bf1461027a5780637af6649a146102825761012c565b806301ffc9a7146101b157806305d6bd9c146101d95780631ef4590d146101e357806321603f43146101f65780632203616d14610216575b61013461039e565b60006101446024600436846111b9565b8080601f016020809104026020016040519081016040528093929190818152602001838380828437600092018290525060208501519495509250503660231981019150601f19016004838037816024600437600080826000875af4925050506101ac81610568565b505050005b6101c46101bf3660046111e3565b61057e565b60405190151581526020015b60405180910390f35b6101e16105b5565b005b6101c46101f136600461120d565b6105cc565b61020961020436600461122f565b61065d565b6040516101d09190611280565b61022961022436600461122f565b610670565b60405163ffffffff90911681526020016101d0565b6101e1610681565b61025961025436600461122f565b610796565b60405167ffffffffffffffff90911681526020016101d0565b6101e16107c8565b6101e16107da565b610295610290366004611335565b6107f4565b6040519081526020016101d0565b6101c461080d565b6000546201000090046001600160a01b03165b6040516001600160a01b0390911681526020016101d0565b600054610100900460ff166101c4565b7f2e7a327ef83c2af7579c6634f2f5604519800c5f07626f27bd602fd11ed8e6ec610295565b61029561031a36600461135d565b61082b565b6102be7f000000000000000000000000000000000000000000000000000000000000000081565b6101e1610846565b61029561035c366004611387565b610862565b6101e161036f3660046113c2565b610879565b61038761038236600461122f565b6108f2565b60405165ffffffffffff90911681526020016101d0565b6000546001600160a01b03620100009091041633148061045157506001600160a01b037f0000000000000000000000000000000000000000000000000000000000000000166316279055336040516001600160e01b031960e084901b1681526001600160a01b039091166004820152602401602060405180830381865afa15801561042d573d6000803e3d6000fd5b505050506040513d601f19601f8201168201806040525081019061045191906113df565b806104ef57506001600160a01b037f000000000000000000000000000000000000000000000000000000000000000016636d70f7ae336040516001600160e01b031960e084901b1681526001600160a01b039091166004820152602401602060405180830381865afa1580156104cb573d6000803e3d6000fd5b505050506040513d601f19601f820116820180604052508101906104ef91906113df565b6105665760405162461bcd60e51b815260206004820152603960248201527f416c6c6f77616e63653a2063616c6c6572206d757374206265205265706f736960448201527f746f727920436f6e7472616374206f72204f70657261746f720000000000000060648201526084015b60405180910390fd5b565b3d6000803e808015610579573d6000f35b3d6000fd5b60006001600160e01b031982166301ffc9a760e01b14806105af57506001600160e01b031982166315d3789560e31b145b92915050565b6105bd61039e565b6105666000805460ff19169055565b6000828152600160205260408082209051632be5db2360e11b815260048101919091526024810183905273__$f71e59c5327218924d154e230469c101bd$__906357cbb64690604401602060405180830381865af4158015610632573d6000803e3d6000fd5b505050506040513d601f19601f8201168201806040525081019061065691906113df565b9392505050565b61066561112a565b6105af826000610903565b60006105af64e8d4a5100083611401565b6000546001600160a01b03620100009091041633148061073457506001600160a01b037f000000000000000000000000000000000000000000000000000000000000000016636d70f7ae336040516001600160e01b031960e084901b1681526001600160a01b039091166004820152602401602060405180830381865afa158015610710573d6000803e3d6000fd5b505050506040513d601f19601f8201168201806040525081019061073491906113df565b6105665760405162461bcd60e51b815260206004820152602d60248201527f416c6c6f77616e63653a2063616c6c6572206d757374206265205265706f736960448201526c3a37b93c9027b832b930ba37b960991b606482015260840161055d565b6000806107a86402540be40084611401565b9050826107ba826402540be400611423565b11156105af576105af611450565b6107d061106e565b61056660006110cf565b6107e261039e565b6105666000805460ff19166001179055565b60006105af65ffffffffffff831664174876e800611423565b6000805460ff16806108265750600054610100900460ff165b905090565b60006105af67ffffffffffffffff83166402540be400611423565b61084e61106e565b6105666000805461ff001916610100179055565b60006105af63ffffffff831664e8d4a51000611423565b61088161106e565b6001600160a01b0381166108e65760405162461bcd60e51b815260206004820152602660248201527f4f776e61626c653a206e6577206f776e657220697320746865207a65726f206160448201526564647265737360d01b606482015260840161055d565b6108ef816110cf565b50565b60006105af64174876e80083611401565b61090b61112a565b60008381526005602081815260408084208151610180810183528154815260018201546001600160a01b0381169482019490945293909291840191600160a01b900460ff169081111561096057610960611248565b600581111561097157610971611248565b81526001820154600160a81b900460ff1660208201526002820154604080830191909152600383015467ffffffffffffffff80821660608501526801000000000000000080830482166080860152600160801b808404831660a0870152600160c01b909304821660c086015260049586015480831660e087015290810482166101008601529190910416610120909201919091528251905163657c7e0960e01b8152918201529091507f00000000000000000000000000000000000000000000000000000000000000006001600160a01b03169063657c7e09906024016040805180830381865afa158015610a6a573d6000803e3d6000fd5b505050506040513d601f19601f82011682018060405250810190610a8e9190611466565b60408401526020830152608081015160608301528280610b27575060608101516040516336181b6760e11b815260ff909116600482015273__$f7122df39a5f3bad28f404771cd5173291$__90636c3036ce90602401602060405180830381865af4158015610b01573d6000803e3d6000fd5b505050506040513d601f19601f82011682018060405250810190610b2591906113df565b155b15610fab5760208101516001600160a01b0316825260a0810151610b4a9061082b565b60808301526060810151604051632b2076e360e11b815260ff909116600482015273__$f7122df39a5f3bad28f404771cd5173291$__90635640edc690602401602060405180830381865af4158015610ba7573d6000803e3d6000fd5b505050506040513d601f19601f82011682018060405250810190610bcb91906113df565b15610bdf57608082015160a0830152610d2c565b61012081015167ffffffffffffffff1615610c0c57610c0281610120015161082b565b60a0830152610d2c565b60405163023aa9ab60e61b81527fcd775f2396f9f13f12bcf8ca32e21df66559a8adc3944d0591127e7731f7ab8560048201527f00000000000000000000000000000000000000000000000000000000000000006001600160a01b031690638eaa6ac090602401602060405180830381865afa158015610c90573d6000803e3d6000fd5b505050506040513d601f19601f82011682018060405250810190610cb4919061148a565b6001600160a01b031663a9bf985883602001516040518263ffffffff1660e01b8152600401610ce591815260200190565b602060405180830381865afa158015610d02573d6000803e3d6000fd5b505050506040513d601f19601f82011682018060405250810190610d2691906114a7565b60a08301525b610d398160c0015161082b565b60c083015260e0810151610d4c9061082b565b60e08301526060810151604051635b7d0f6960e11b815260ff909116600482015273__$f7122df39a5f3bad28f404771cd5173291$__9063b6fa1ed290602401602060405180830381865af4158015610da9573d6000803e3d6000fd5b505050506040513d601f19601f82011682018060405250810190610dcd91906113df565b15610f9657610de081610140015161082b565b610120830152610160810151610df59061082b565b61014083015260405163023aa9ab60e61b81527f3cb99135f7a7c088d9085b446345038a22a85f4e8fe072b0e1b66d97243e745860048201526000907f00000000000000000000000000000000000000000000000000000000000000006001600160a01b031690638eaa6ac090602401602060405180830381865afa158015610e82573d6000803e3d6000fd5b505050506040513d601f19601f82011682018060405250810190610ea6919061148a565b6001600160a01b0316636464b68a846020015185604001516040518363ffffffff1660e01b8152600401610ee4929190918252602082015260400190565b606060405180830381865afa158015610f01573d6000803e3d6000fd5b505050506040513d601f19601f82011682018060405250810190610f2591906114c0565b5091505080610f6a5760405162461bcd60e51b8152602060048201526011602482015270145d5bdd194e88139bdd081c5d5bdd1959607a1b604482015260640161055d565b610140830151610f7a9082611401565b836101200151610f8a9190611423565b61010084015250610fab565b610fa481610100015161082b565b6101008301525b604051630212d6cb60e21b815273__$f7122df39a5f3bad28f404771cd5173291$__9063084b5b2c90610fe29084906004016114ee565b602060405180830381865af4158015610fff573d6000803e3d6000fd5b505050506040513d601f19601f8201168201806040525081019061102391906114a7565b6101608301526040810151610180830190600581111561104557611045611248565b9081600581111561105857611058611248565b9052506060015160ff166101a082015292915050565b6000546001600160a01b03620100009091041633146105665760405162461bcd60e51b815260206004820152601f60248201527f416c6c6f77616e63653a2063616c6c6572206d757374206265204f776e657200604482015260640161055d565b600080546001600160a01b038381166201000081810262010000600160b01b0319851617855560405193049190911692909183917f8be0079c531659141344cd1fd0a4f28419497f9722a3daafe3b4186f6b6457e091a35050565b604051806101c0016040528060006001600160a01b031681526020016000801916815260200160008019168152602001600081526020016000815260200160008152602001600081526020016000815260200160008152602001600081526020016000815260200160008152602001600060058111156111ac576111ac611248565b8152600060209091015290565b600080858511156111c957600080fd5b838611156111d657600080fd5b5050820193919092039150565b6000602082840312156111f557600080fd5b81356001600160e01b03198116811461065657600080fd5b6000806040838503121561122057600080fd5b50508035926020909101359150565b60006020828403121561124157600080fd5b5035919050565b634e487b7160e01b600052602160045260246000fd5b6006811061127c57634e487b7160e01b600052602160045260246000fd5b9052565b81516001600160a01b031681526101c081016020830151602083015260408301516040830152606083015160608301526080830151608083015260a083015160a083015260c083015160c083015260e083015160e08301526101008084015181840152506101208084015181840152506101408084015181840152506101608084015181840152506101808084015161131b8285018261125e565b50506101a08381015160ff8116848301525b505092915050565b60006020828403121561134757600080fd5b813565ffffffffffff8116811461065657600080fd5b60006020828403121561136f57600080fd5b813567ffffffffffffffff8116811461065657600080fd5b60006020828403121561139957600080fd5b813563ffffffff8116811461065657600080fd5b6001600160a01b03811681146108ef57600080fd5b6000602082840312156113d457600080fd5b8135610656816113ad565b6000602082840312156113f157600080fd5b8151801515811461065657600080fd5b60008261141e57634e487b7160e01b600052601260045260246000fd5b500490565b600081600019048311821515161561144b57634e487b7160e01b600052601160045260246000fd5b500290565b634e487b7160e01b600052600160045260246000fd5b6000806040838503121561147957600080fd5b505080516020909101519092909150565b60006020828403121561149c57600080fd5b8151610656816113ad565b6000602082840312156114b957600080fd5b5051919050565b6000806000606084860312156114d557600080fd5b8351925060208401519150604084015190509250925092565b81518152602080830151610180830191611512908401826001600160a01b03169052565b506040830151611525604084018261125e565b50606083015161153a606084018260ff169052565b506080830151608083015260a083015161156060a084018267ffffffffffffffff169052565b5060c083015161157c60c084018267ffffffffffffffff169052565b5060e083015161159860e084018267ffffffffffffffff169052565b506101008381015167ffffffffffffffff90811691840191909152610120808501518216908401526101408085015182169084015261016080850151918216818501529061132d56fea264697066735822122015452b5862764d721ac3a013be2d5088238aa52ee14016e63da5def9871d4e7a64736f6c634300080b0033","language":"Solidity","natspec":{"kind":"dev","methods":{"ownerOf()":{"details":"Returns the address of the current owner."},"renounceOwnership()":{"details":"Leaves the contract without owner. It will not be possible to call `onlyOwner` functions anymore. Can only be called by the current owner. NOTE: Renouncing ownership will leave the contract without an owner, thereby removing any functionality that is only available to the owner."},"supportsInterface(bytes4)":{"details":"Returns true if this contract implements the interface defined by `interfaceId`. See the corresponding https://eips.ethereum.org/EIPS/eip-165#how-interfaces-are-identified[EIP section] to learn more about how these ids are created. This function call must use less than 30 000 gas."},"transferOwnership(address)":{"details":"Transfers ownership of the contract to a new account (`newOwner`). Can only be called by the current owner."}},"version":1},"opcodes":"PUSH1 0x80 PUSH1 0x40 MSTORE CALLVALUE DUP1 ISZERO PUSH2 0x10 JUMPI PUSH1 0x0 DUP1 REVERT JUMPDEST POP PUSH1 0x4 CALLDATASIZE LT PUSH2 0x12C JUMPI PUSH1 0x0 CALLDATALOAD PUSH1 0xE0 SHR DUP1 PUSH4 0x854BA99D GT PUSH2 0xAD JUMPI DUP1 PUSH4 0xCCC07959 GT PUSH2 0x71 JUMPI DUP1 PUSH4 0xCCC07959 EQ PUSH2 0x31F JUMPI DUP1 PUSH4 0xD6935858 EQ PUSH2 0x346 JUMPI DUP1 PUSH4 0xE4B16144 EQ PUSH2 0x34E JUMPI DUP1 PUSH4 0xF2FDE38B EQ PUSH2 0x361 JUMPI DUP1 PUSH4 0xFEAB4454 EQ PUSH2 0x374 JUMPI PUSH2 0x12C JUMP JUMPDEST DUP1 PUSH4 0x854BA99D EQ PUSH2 0x2A3 JUMPI DUP1 PUSH4 0x8DA5CB5B EQ PUSH2 0x2AB JUMPI DUP1 PUSH4 0x97962076 EQ PUSH2 0x2D6 JUMPI DUP1 PUSH4 0xAF640D0F EQ PUSH2 0x2E6 JUMPI DUP1 PUSH4 0xB03FD40D EQ PUSH2 0x30C JUMPI PUSH2 0x12C JUMP JUMPDEST DUP1 PUSH4 0x5F5C5BAA GT PUSH2 0xF4 JUMPI DUP1 PUSH4 0x5F5C5BAA EQ PUSH2 0x23E JUMPI DUP1 PUSH4 0x62965141 EQ PUSH2 0x246 JUMPI DUP1 PUSH4 0x715018A6 EQ PUSH2 0x272 JUMPI DUP1 PUSH4 0x72EA61BF EQ PUSH2 0x27A JUMPI DUP1 PUSH4 0x7AF6649A EQ PUSH2 0x282 JUMPI PUSH2 0x12C JUMP JUMPDEST DUP1 PUSH4 0x1FFC9A7 EQ PUSH2 0x1B1 JUMPI DUP1 PUSH4 0x5D6BD9C EQ PUSH2 0x1D9 JUMPI DUP1 PUSH4 0x1EF4590D EQ PUSH2 0x1E3 JUMPI DUP1 PUSH4 0x21603F43 EQ PUSH2 0x1F6 JUMPI DUP1 PUSH4 0x2203616D EQ PUSH2 0x216 JUMPI JUMPDEST PUSH2 0x134 PUSH2 0x39E JUMP JUMPDEST PUSH1 0x0 PUSH2 0x144 PUSH1 0x24 PUSH1 0x4 CALLDATASIZE DUP5 PUSH2 0x11B9 JUMP JUMPDEST DUP1 DUP1 PUSH1 0x1F ADD PUSH1 0x20 DUP1 SWAP2 DIV MUL PUSH1 0x20 ADD PUSH1 0x40 MLOAD SWAP1 DUP2 ADD PUSH1 0x40 MSTORE DUP1 SWAP4 SWAP3 SWAP2 SWAP1 DUP2 DUP2 MSTORE PUSH1 0x20 ADD DUP4 DUP4 DUP1 DUP3 DUP5 CALLDATACOPY PUSH1 0x0 SWAP3 ADD DUP3 SWAP1 MSTORE POP PUSH1 0x20 DUP6 ADD MLOAD SWAP5 SWAP6 POP SWAP3 POP POP CALLDATASIZE PUSH1 0x23 NOT DUP2 ADD SWAP2 POP PUSH1 0x1F NOT ADD PUSH1 0x4 DUP4 DUP1 CALLDATACOPY DUP2 PUSH1 0x24 PUSH1 0x4 CALLDATACOPY PUSH1 0x0 DUP1 DUP3 PUSH1 0x0 DUP8 GAS DELEGATECALL SWAP3 POP POP POP PUSH2 0x1AC DUP2 PUSH2 0x568 JUMP JUMPDEST POP POP POP STOP JUMPDEST PUSH2 0x1C4 PUSH2 0x1BF CALLDATASIZE PUSH1 0x4 PUSH2 0x11E3 JUMP JUMPDEST PUSH2 0x57E JUMP JUMPDEST PUSH1 0x40 MLOAD SWAP1 ISZERO ISZERO DUP2 MSTORE PUSH1 0x20 ADD JUMPDEST PUSH1 0x40 MLOAD DUP1 SWAP2 SUB SWAP1 RETURN JUMPDEST PUSH2 0x1E1 PUSH2 0x5B5 JUMP JUMPDEST STOP JUMPDEST PUSH2 0x1C4 PUSH2 0x1F1 CALLDATASIZE PUSH1 0x4 PUSH2 0x120D JUMP JUMPDEST PUSH2 0x5CC JUMP JUMPDEST PUSH2 0x209 PUSH2 0x204 CALLDATASIZE PUSH1 0x4 PUSH2 0x122F JUMP JUMPDEST PUSH2 0x65D JUMP JUMPDEST PUSH1 0x40 MLOAD PUSH2 0x1D0 SWAP2 SWAP1 PUSH2 0x1280 JUMP JUMPDEST PUSH2 0x229 PUSH2 0x224 CALLDATASIZE PUSH1 0x4 PUSH2 0x122F JUMP JUMPDEST PUSH2 0x670 JUMP JUMPDEST PUSH1 0x40 MLOAD PUSH4 0xFFFFFFFF SWAP1 SWAP2 AND DUP2 MSTORE PUSH1 0x20 ADD PUSH2 0x1D0 JUMP JUMPDEST PUSH2 0x1E1 PUSH2 0x681 JUMP JUMPDEST PUSH2 0x259 PUSH2 0x254 CALLDATASIZE PUSH1 0x4 PUSH2 0x122F JUMP JUMPDEST PUSH2 0x796 JUMP JUMPDEST PUSH1 0x40 MLOAD PUSH8 0xFFFFFFFFFFFFFFFF SWAP1 SWAP2 AND DUP2 MSTORE PUSH1 0x20 ADD PUSH2 0x1D0 JUMP JUMPDEST PUSH2 0x1E1 PUSH2 0x7C8 JUMP JUMPDEST PUSH2 0x1E1 PUSH2 0x7DA JUMP JUMPDEST PUSH2 0x295 PUSH2 0x290 CALLDATASIZE PUSH1 0x4 PUSH2 0x1335 JUMP JUMPDEST PUSH2 0x7F4 JUMP JUMPDEST PUSH1 0x40 MLOAD SWAP1 DUP2 MSTORE PUSH1 0x20 ADD PUSH2 0x1D0 JUMP JUMPDEST PUSH2 0x1C4 PUSH2 0x80D JUMP JUMPDEST PUSH1 0x0 SLOAD PUSH3 0x10000 SWAP1 DIV PUSH1 0x1 PUSH1 0x1 PUSH1 0xA0 SHL SUB AND JUMPDEST PUSH1 0x40 MLOAD PUSH1 0x1 PUSH1 0x1 PUSH1 0xA0 SHL SUB SWAP1 SWAP2 AND DUP2 MSTORE PUSH1 0x20 ADD PUSH2 0x1D0 JUMP JUMPDEST PUSH1 0x0 SLOAD PUSH2 0x100 SWAP1 DIV PUSH1 0xFF AND PUSH2 0x1C4 JUMP JUMPDEST PUSH32 0x2E7A327EF83C2AF7579C6634F2F5604519800C5F07626F27BD602FD11ED8E6EC PUSH2 0x295 JUMP JUMPDEST PUSH2 0x295 PUSH2 0x31A CALLDATASIZE PUSH1 0x4 PUSH2 0x135D JUMP JUMPDEST PUSH2 0x82B JUMP JUMPDEST PUSH2 0x2BE PUSH32 0x0 DUP2 JUMP JUMPDEST PUSH2 0x1E1 PUSH2 0x846 JUMP JUMPDEST PUSH2 0x295 PUSH2 0x35C CALLDATASIZE PUSH1 0x4 PUSH2 0x1387 JUMP JUMPDEST PUSH2 0x862 JUMP JUMPDEST PUSH2 0x1E1 PUSH2 0x36F CALLDATASIZE PUSH1 0x4 PUSH2 0x13C2 JUMP JUMPDEST PUSH2 0x879 JUMP JUMPDEST PUSH2 0x387 PUSH2 0x382 CALLDATASIZE PUSH1 0x4 PUSH2 0x122F JUMP JUMPDEST PUSH2 0x8F2 JUMP JUMPDEST PUSH1 0x40 MLOAD PUSH6 0xFFFFFFFFFFFF SWAP1 SWAP2 AND DUP2 MSTORE PUSH1 0x20 ADD PUSH2 0x1D0 JUMP JUMPDEST PUSH1 0x0 SLOAD PUSH1 0x1 PUSH1 0x1 PUSH1 0xA0 SHL SUB PUSH3 0x10000 SWAP1 SWAP2 DIV AND CALLER EQ DUP1 PUSH2 0x451 JUMPI POP PUSH1 0x1 PUSH1 0x1 PUSH1 0xA0 SHL SUB PUSH32 0x0 AND PUSH4 0x16279055 CALLER PUSH1 0x40 MLOAD PUSH1 0x1 PUSH1 0x1 PUSH1 0xE0 SHL SUB NOT PUSH1 0xE0 DUP5 SWAP1 SHL AND DUP2 MSTORE PUSH1 0x1 PUSH1 0x1 PUSH1 0xA0 SHL SUB SWAP1 SWAP2 AND PUSH1 0x4 DUP3 ADD MSTORE PUSH1 0x24 ADD PUSH1 0x20 PUSH1 0x40 MLOAD DUP1 DUP4 SUB DUP2 DUP7 GAS STATICCALL ISZERO DUP1 ISZERO PUSH2 0x42D JUMPI RETURNDATASIZE PUSH1 0x0 DUP1 RETURNDATACOPY RETURNDATASIZE PUSH1 0x0 REVERT JUMPDEST POP POP POP POP PUSH1 0x40 MLOAD RETURNDATASIZE PUSH1 0x1F NOT PUSH1 0x1F DUP3 ADD AND DUP3 ADD DUP1 PUSH1 0x40 MSTORE POP DUP2 ADD SWAP1 PUSH2 0x451 SWAP2 SWAP1 PUSH2 0x13DF JUMP JUMPDEST DUP1 PUSH2 0x4EF JUMPI POP PUSH1 0x1 PUSH1 0x1 PUSH1 0xA0 SHL SUB PUSH32 0x0 AND PUSH4 0x6D70F7AE CALLER PUSH1 0x40 MLOAD PUSH1 0x1 PUSH1 0x1 PUSH1 0xE0 SHL SUB NOT PUSH1 0xE0 DUP5 SWAP1 SHL AND DUP2 MSTORE PUSH1 0x1 PUSH1 0x1 PUSH1 0xA0 SHL SUB SWAP1 SWAP2 AND PUSH1 0x4 DUP3 ADD MSTORE PUSH1 0x24 ADD PUSH1 0x20 PUSH1 0x40 MLOAD DUP1 DUP4 SUB DUP2 DUP7 GAS STATICCALL ISZERO DUP1 ISZERO PUSH2 0x4CB JUMPI RETURNDATASIZE PUSH1 0x0 DUP1 RETURNDATACOPY RETURNDATASIZE PUSH1 0x0 REVERT JUMPDEST POP POP POP POP PUSH1 0x40 MLOAD RETURNDATASIZE PUSH1 0x1F NOT PUSH1 0x1F DUP3 ADD AND DUP3 ADD DUP1 PUSH1 0x40 MSTORE POP DUP2 ADD SWAP1 PUSH2 0x4EF SWAP2 SWAP1 PUSH2 0x13DF JUMP JUMPDEST PUSH2 0x566 JUMPI PUSH1 0x40 MLOAD PUSH3 0x461BCD PUSH1 0xE5 SHL DUP2 MSTORE PUSH1 0x20 PUSH1 0x4 DUP3 ADD MSTORE PUSH1 0x39 PUSH1 0x24 DUP3 ADD MSTORE PUSH32 0x416C6C6F77616E63653A2063616C6C6572206D757374206265205265706F7369 PUSH1 0x44 DUP3 ADD MSTORE PUSH32 0x746F727920436F6E7472616374206F72204F70657261746F7200000000000000 PUSH1 0x64 DUP3 ADD MSTORE PUSH1 0x84 ADD JUMPDEST PUSH1 0x40 MLOAD DUP1 SWAP2 SUB SWAP1 REVERT JUMPDEST JUMP JUMPDEST RETURNDATASIZE PUSH1 0x0 DUP1 RETURNDATACOPY DUP1 DUP1 ISZERO PUSH2 0x579 JUMPI RETURNDATASIZE PUSH1 0x0 RETURN JUMPDEST RETURNDATASIZE PUSH1 0x0 REVERT JUMPDEST PUSH1 0x0 PUSH1 0x1 PUSH1 0x1 PUSH1 0xE0 SHL SUB NOT DUP3 AND PUSH4 0x1FFC9A7 PUSH1 0xE0 SHL EQ DUP1 PUSH2 0x5AF JUMPI POP PUSH1 0x1 PUSH1 0x1 PUSH1 0xE0 SHL SUB NOT DUP3 AND PUSH4 0x15D37895 PUSH1 0xE3 SHL EQ JUMPDEST SWAP3 SWAP2 POP POP JUMP JUMPDEST PUSH2 0x5BD PUSH2 0x39E JUMP JUMPDEST PUSH2 0x566 PUSH1 0x0 DUP1 SLOAD PUSH1 0xFF NOT AND SWAP1 SSTORE JUMP JUMPDEST PUSH1 0x0 DUP3 DUP2 MSTORE PUSH1 0x1 PUSH1 0x20 MSTORE PUSH1 0x40 DUP1 DUP3 KECCAK256 SWAP1 MLOAD PUSH4 0x2BE5DB23 PUSH1 0xE1 SHL DUP2 MSTORE PUSH1 0x4 DUP2 ADD SWAP2 SWAP1 SWAP2 MSTORE PUSH1 0x24 DUP2 ADD DUP4 SWAP1 MSTORE PUSH20 0x0 SWAP1 PUSH4 0x57CBB646 SWAP1 PUSH1 0x44 ADD PUSH1 0x20 PUSH1 0x40 MLOAD DUP1 DUP4 SUB DUP2 DUP7 GAS DELEGATECALL ISZERO DUP1 ISZERO PUSH2 0x632 JUMPI RETURNDATASIZE PUSH1 0x0 DUP1 RETURNDATACOPY RETURNDATASIZE PUSH1 0x0 REVERT JUMPDEST POP POP POP POP PUSH1 0x40 MLOAD RETURNDATASIZE PUSH1 0x1F NOT PUSH1 0x1F DUP3 ADD AND DUP3 ADD DUP1 PUSH1 0x40 MSTORE POP DUP2 ADD SWAP1 PUSH2 0x656 SWAP2 SWAP1 PUSH2 0x13DF JUMP JUMPDEST SWAP4 SWAP3 POP POP POP JUMP JUMPDEST PUSH2 0x665 PUSH2 0x112A JUMP JUMPDEST PUSH2 0x5AF DUP3 PUSH1 0x0 PUSH2 0x903 JUMP JUMPDEST PUSH1 0x0 PUSH2 0x5AF PUSH5 0xE8D4A51000 DUP4 PUSH2 0x1401 JUMP JUMPDEST PUSH1 0x0 SLOAD PUSH1 0x1 PUSH1 0x1 PUSH1 0xA0 SHL SUB PUSH3 0x10000 SWAP1 SWAP2 DIV AND CALLER EQ DUP1 PUSH2 0x734 JUMPI POP PUSH1 0x1 PUSH1 0x1 PUSH1 0xA0 SHL SUB PUSH32 0x0 AND PUSH4 0x6D70F7AE CALLER PUSH1 0x40 MLOAD PUSH1 0x1 PUSH1 0x1 PUSH1 0xE0 SHL SUB NOT PUSH1 0xE0 DUP5 SWAP1 SHL AND DUP2 MSTORE PUSH1 0x1 PUSH1 0x1 PUSH1 0xA0 SHL SUB SWAP1 SWAP2 AND PUSH1 0x4 DUP3 ADD MSTORE PUSH1 0x24 ADD PUSH1 0x20 PUSH1 0x40 MLOAD DUP1 DUP4 SUB DUP2 DUP7 GAS STATICCALL ISZERO DUP1 ISZERO PUSH2 0x710 JUMPI RETURNDATASIZE PUSH1 0x0 DUP1 RETURNDATACOPY RETURNDATASIZE PUSH1 0x0 REVERT JUMPDEST POP POP POP POP PUSH1 0x40 MLOAD RETURNDATASIZE PUSH1 0x1F NOT PUSH1 0x1F DUP3 ADD AND DUP3 ADD DUP1 PUSH1 0x40 MSTORE POP DUP2 ADD SWAP1 PUSH2 0x734 SWAP2 SWAP1 PUSH2 0x13DF JUMP JUMPDEST PUSH2 0x566 JUMPI PUSH1 0x40 MLOAD PUSH3 0x461BCD PUSH1 0xE5 SHL DUP2 MSTORE PUSH1 0x20 PUSH1 0x4 DUP3 ADD MSTORE PUSH1 0x2D PUSH1 0x24 DUP3 ADD MSTORE PUSH32 0x416C6C6F77616E63653A2063616C6C6572206D757374206265205265706F7369 PUSH1 0x44 DUP3 ADD MSTORE PUSH13 0x3A37B93C9027B832B930BA37B9 PUSH1 0x99 SHL PUSH1 0x64 DUP3 ADD MSTORE PUSH1 0x84 ADD PUSH2 0x55D JUMP JUMPDEST PUSH1 0x0 DUP1 PUSH2 0x7A8 PUSH5 0x2540BE400 DUP5 PUSH2 0x1401 JUMP JUMPDEST SWAP1 POP DUP3 PUSH2 0x7BA DUP3 PUSH5 0x2540BE400 PUSH2 0x1423 JUMP JUMPDEST GT ISZERO PUSH2 0x5AF JUMPI PUSH2 0x5AF PUSH2 0x1450 JUMP JUMPDEST PUSH2 0x7D0 PUSH2 0x106E JUMP JUMPDEST PUSH2 0x566 PUSH1 0x0 PUSH2 0x10CF JUMP JUMPDEST PUSH2 0x7E2 PUSH2 0x39E JUMP JUMPDEST PUSH2 0x566 PUSH1 0x0 DUP1 SLOAD PUSH1 0xFF NOT AND PUSH1 0x1 OR SWAP1 SSTORE JUMP JUMPDEST PUSH1 0x0 PUSH2 0x5AF PUSH6 0xFFFFFFFFFFFF DUP4 AND PUSH5 0x174876E800 PUSH2 0x1423 JUMP JUMPDEST PUSH1 0x0 DUP1 SLOAD PUSH1 0xFF AND DUP1 PUSH2 0x826 JUMPI POP PUSH1 0x0 SLOAD PUSH2 0x100 SWAP1 DIV PUSH1 0xFF AND JUMPDEST SWAP1 POP SWAP1 JUMP JUMPDEST PUSH1 0x0 PUSH2 0x5AF PUSH8 0xFFFFFFFFFFFFFFFF DUP4 AND PUSH5 0x2540BE400 PUSH2 0x1423 JUMP JUMPDEST PUSH2 0x84E PUSH2 0x106E JUMP JUMPDEST PUSH2 0x566 PUSH1 0x0 DUP1 SLOAD PUSH2 0xFF00 NOT AND PUSH2 0x100 OR SWAP1 SSTORE JUMP JUMPDEST PUSH1 0x0 PUSH2 0x5AF PUSH4 0xFFFFFFFF DUP4 AND PUSH5 0xE8D4A51000 PUSH2 0x1423 JUMP JUMPDEST PUSH2 0x881 PUSH2 0x106E JUMP JUMPDEST PUSH1 0x1 PUSH1 0x1 PUSH1 0xA0 SHL SUB DUP2 AND PUSH2 0x8E6 JUMPI PUSH1 0x40 MLOAD PUSH3 0x461BCD PUSH1 0xE5 SHL DUP2 MSTORE PUSH1 0x20 PUSH1 0x4 DUP3 ADD MSTORE PUSH1 0x26 PUSH1 0x24 DUP3 ADD MSTORE PUSH32 0x4F776E61626C653A206E6577206F776E657220697320746865207A65726F2061 PUSH1 0x44 DUP3 ADD MSTORE PUSH6 0x646472657373 PUSH1 0xD0 SHL PUSH1 0x64 DUP3 ADD MSTORE PUSH1 0x84 ADD PUSH2 0x55D JUMP JUMPDEST PUSH2 0x8EF DUP2 PUSH2 0x10CF JUMP JUMPDEST POP JUMP JUMPDEST PUSH1 0x0 PUSH2 0x5AF PUSH5 0x174876E800 DUP4 PUSH2 0x1401 JUMP JUMPDEST PUSH2 0x90B PUSH2 0x112A JUMP JUMPDEST PUSH1 0x0 DUP4 DUP2 MSTORE PUSH1 0x5 PUSH1 0x20 DUP2 DUP2 MSTORE PUSH1 0x40 DUP1 DUP5 KECCAK256 DUP2 MLOAD PUSH2 0x180 DUP2 ADD DUP4 MSTORE DUP2 SLOAD DUP2 MSTORE PUSH1 0x1 DUP3 ADD SLOAD PUSH1 0x1 PUSH1 0x1 PUSH1 0xA0 SHL SUB DUP2 AND SWAP5 DUP3 ADD SWAP5 SWAP1 SWAP5 MSTORE SWAP4 SWAP1 SWAP3 SWAP2 DUP5 ADD SWAP2 PUSH1 0x1 PUSH1 0xA0 SHL SWAP1 DIV PUSH1 0xFF AND SWAP1 DUP2 GT ISZERO PUSH2 0x960 JUMPI PUSH2 0x960 PUSH2 0x1248 JUMP JUMPDEST PUSH1 0x5 DUP2 GT ISZERO PUSH2 0x971 JUMPI PUSH2 0x971 PUSH2 0x1248 JUMP JUMPDEST DUP2 MSTORE PUSH1 0x1 DUP3 ADD SLOAD PUSH1 0x1 PUSH1 0xA8 SHL SWAP1 DIV PUSH1 0xFF AND PUSH1 0x20 DUP3 ADD MSTORE PUSH1 0x2 DUP3 ADD SLOAD PUSH1 0x40 DUP1 DUP4 ADD SWAP2 SWAP1 SWAP2 MSTORE PUSH1 0x3 DUP4 ADD SLOAD PUSH8 0xFFFFFFFFFFFFFFFF DUP1 DUP3 AND PUSH1 0x60 DUP6 ADD MSTORE PUSH9 0x10000000000000000 DUP1 DUP4 DIV DUP3 AND PUSH1 0x80 DUP7 ADD MSTORE PUSH1 0x1 PUSH1 0x80 SHL DUP1 DUP5 DIV DUP4 AND PUSH1 0xA0 DUP8 ADD MSTORE PUSH1 0x1 PUSH1 0xC0 SHL SWAP1 SWAP4 DIV DUP3 AND PUSH1 0xC0 DUP7 ADD MSTORE PUSH1 0x4 SWAP6 DUP7 ADD SLOAD DUP1 DUP4 AND PUSH1 0xE0 DUP8 ADD MSTORE SWAP1 DUP2 DIV DUP3 AND PUSH2 0x100 DUP7 ADD MSTORE SWAP2 SWAP1 SWAP2 DIV AND PUSH2 0x120 SWAP1 SWAP3 ADD SWAP2 SWAP1 SWAP2 MSTORE DUP3 MLOAD SWAP1 MLOAD PUSH4 0x657C7E09 PUSH1 0xE0 SHL DUP2 MSTORE SWAP2 DUP3 ADD MSTORE SWAP1 SWAP2 POP PUSH32 0x0 PUSH1 0x1 PUSH1 0x1 PUSH1 0xA0 SHL SUB AND SWAP1 PUSH4 0x657C7E09 SWAP1 PUSH1 0x24 ADD PUSH1 0x40 DUP1 MLOAD DUP1 DUP4 SUB DUP2 DUP7 GAS STATICCALL ISZERO DUP1 ISZERO PUSH2 0xA6A JUMPI RETURNDATASIZE PUSH1 0x0 DUP1 RETURNDATACOPY RETURNDATASIZE PUSH1 0x0 REVERT JUMPDEST POP POP POP POP PUSH1 0x40 MLOAD RETURNDATASIZE PUSH1 0x1F NOT PUSH1 0x1F DUP3 ADD AND DUP3 ADD DUP1 PUSH1 0x40 MSTORE POP DUP2 ADD SWAP1 PUSH2 0xA8E SWAP2 SWAP1 PUSH2 0x1466 JUMP JUMPDEST PUSH1 0x40 DUP5 ADD MSTORE PUSH1 0x20 DUP4 ADD MSTORE PUSH1 0x80 DUP2 ADD MLOAD PUSH1 0x60 DUP4 ADD MSTORE DUP3 DUP1 PUSH2 0xB27 JUMPI POP PUSH1 0x60 DUP2 ADD MLOAD PUSH1 0x40 MLOAD PUSH4 0x36181B67 PUSH1 0xE1 SHL DUP2 MSTORE PUSH1 0xFF SWAP1 SWAP2 AND PUSH1 0x4 DUP3 ADD MSTORE PUSH20 0x0 SWAP1 PUSH4 0x6C3036CE SWAP1 PUSH1 0x24 ADD PUSH1 0x20 PUSH1 0x40 MLOAD DUP1 DUP4 SUB DUP2 DUP7 GAS DELEGATECALL ISZERO DUP1 ISZERO PUSH2 0xB01 JUMPI RETURNDATASIZE PUSH1 0x0 DUP1 RETURNDATACOPY RETURNDATASIZE PUSH1 0x0 REVERT JUMPDEST POP POP POP POP PUSH1 0x40 MLOAD RETURNDATASIZE PUSH1 0x1F NOT PUSH1 0x1F DUP3 ADD AND DUP3 ADD DUP1 PUSH1 0x40 MSTORE POP DUP2 ADD SWAP1 PUSH2 0xB25 SWAP2 SWAP1 PUSH2 0x13DF JUMP JUMPDEST ISZERO JUMPDEST ISZERO PUSH2 0xFAB JUMPI PUSH1 0x20 DUP2 ADD MLOAD PUSH1 0x1 PUSH1 0x1 PUSH1 0xA0 SHL SUB AND DUP3 MSTORE PUSH1 0xA0 DUP2 ADD MLOAD PUSH2 0xB4A SWAP1 PUSH2 0x82B JUMP JUMPDEST PUSH1 0x80 DUP4 ADD MSTORE PUSH1 0x60 DUP2 ADD MLOAD PUSH1 0x40 MLOAD PUSH4 0x2B2076E3 PUSH1 0xE1 SHL DUP2 MSTORE PUSH1 0xFF SWAP1 SWAP2 AND PUSH1 0x4 DUP3 ADD MSTORE PUSH20 0x0 SWAP1 PUSH4 0x5640EDC6 SWAP1 PUSH1 0x24 ADD PUSH1 0x20 PUSH1 0x40 MLOAD DUP1 DUP4 SUB DUP2 DUP7 GAS DELEGATECALL ISZERO DUP1 ISZERO PUSH2 0xBA7 JUMPI RETURNDATASIZE PUSH1 0x0 DUP1 RETURNDATACOPY RETURNDATASIZE PUSH1 0x0 REVERT JUMPDEST POP POP POP POP PUSH1 0x40 MLOAD RETURNDATASIZE PUSH1 0x1F NOT PUSH1 0x1F DUP3 ADD AND DUP3 ADD DUP1 PUSH1 0x40 MSTORE POP DUP2 ADD SWAP1 PUSH2 0xBCB SWAP2 SWAP1 PUSH2 0x13DF JUMP JUMPDEST ISZERO PUSH2 0xBDF JUMPI PUSH1 0x80 DUP3 ADD MLOAD PUSH1 0xA0 DUP4 ADD MSTORE PUSH2 0xD2C JUMP JUMPDEST PUSH2 0x120 DUP2 ADD MLOAD PUSH8 0xFFFFFFFFFFFFFFFF AND ISZERO PUSH2 0xC0C JUMPI PUSH2 0xC02 DUP2 PUSH2 0x120 ADD MLOAD PUSH2 0x82B JUMP JUMPDEST PUSH1 0xA0 DUP4 ADD MSTORE PUSH2 0xD2C JUMP JUMPDEST PUSH1 0x40 MLOAD PUSH4 0x23AA9AB PUSH1 0xE6 SHL DUP2 MSTORE PUSH32 0xCD775F2396F9F13F12BCF8CA32E21DF66559A8ADC3944D0591127E7731F7AB85 PUSH1 0x4 DUP3 ADD MSTORE PUSH32 0x0 PUSH1 0x1 PUSH1 0x1 PUSH1 0xA0 SHL SUB AND SWAP1 PUSH4 0x8EAA6AC0 SWAP1 PUSH1 0x24 ADD PUSH1 0x20 PUSH1 0x40 MLOAD DUP1 DUP4 SUB DUP2 DUP7 GAS STATICCALL ISZERO DUP1 ISZERO PUSH2 0xC90 JUMPI RETURNDATASIZE PUSH1 0x0 DUP1 RETURNDATACOPY RETURNDATASIZE PUSH1 0x0 REVERT JUMPDEST POP POP POP POP PUSH1 0x40 MLOAD RETURNDATASIZE PUSH1 0x1F NOT PUSH1 0x1F DUP3 ADD AND DUP3 ADD DUP1 PUSH1 0x40 MSTORE POP DUP2 ADD SWAP1 PUSH2 0xCB4 SWAP2 SWAP1 PUSH2 0x148A JUMP JUMPDEST PUSH1 0x1 PUSH1 0x1 PUSH1 0xA0 SHL SUB AND PUSH4 0xA9BF9858 DUP4 PUSH1 0x20 ADD MLOAD PUSH1 0x40 MLOAD DUP3 PUSH4 0xFFFFFFFF AND PUSH1 0xE0 SHL DUP2 MSTORE PUSH1 0x4 ADD PUSH2 0xCE5 SWAP2 DUP2 MSTORE PUSH1 0x20 ADD SWAP1 JUMP JUMPDEST PUSH1 0x20 PUSH1 0x40 MLOAD DUP1 DUP4 SUB DUP2 DUP7 GAS STATICCALL ISZERO DUP1 ISZERO PUSH2 0xD02 JUMPI RETURNDATASIZE PUSH1 0x0 DUP1 RETURNDATACOPY RETURNDATASIZE PUSH1 0x0 REVERT JUMPDEST POP POP POP POP PUSH1 0x40 MLOAD RETURNDATASIZE PUSH1 0x1F NOT PUSH1 0x1F DUP3 ADD AND DUP3 ADD DUP1 PUSH1 0x40 MSTORE POP DUP2 ADD SWAP1 PUSH2 0xD26 SWAP2 SWAP1 PUSH2 0x14A7 JUMP JUMPDEST PUSH1 0xA0 DUP4 ADD MSTORE JUMPDEST PUSH2 0xD39 DUP2 PUSH1 0xC0 ADD MLOAD PUSH2 0x82B JUMP JUMPDEST PUSH1 0xC0 DUP4 ADD MSTORE PUSH1 0xE0 DUP2 ADD MLOAD PUSH2 0xD4C SWAP1 PUSH2 0x82B JUMP JUMPDEST PUSH1 0xE0 DUP4 ADD MSTORE PUSH1 0x60 DUP2 ADD MLOAD PUSH1 0x40 MLOAD PUSH4 0x5B7D0F69 PUSH1 0xE1 SHL DUP2 MSTORE PUSH1 0xFF SWAP1 SWAP2 AND PUSH1 0x4 DUP3 ADD MSTORE PUSH20 0x0 SWAP1 PUSH4 0xB6FA1ED2 SWAP1 PUSH1 0x24 ADD PUSH1 0x20 PUSH1 0x40 MLOAD DUP1 DUP4 SUB DUP2 DUP7 GAS DELEGATECALL ISZERO DUP1 ISZERO PUSH2 0xDA9 JUMPI RETURNDATASIZE PUSH1 0x0 DUP1 RETURNDATACOPY RETURNDATASIZE PUSH1 0x0 REVERT JUMPDEST POP POP POP POP PUSH1 0x40 MLOAD RETURNDATASIZE PUSH1 0x1F NOT PUSH1 0x1F DUP3 ADD AND DUP3 ADD DUP1 PUSH1 0x40 MSTORE POP DUP2 ADD SWAP1 PUSH2 0xDCD SWAP2 SWAP1 PUSH2 0x13DF JUMP JUMPDEST ISZERO PUSH2 0xF96 JUMPI PUSH2 0xDE0 DUP2 PUSH2 0x140 ADD MLOAD PUSH2 0x82B JUMP JUMPDEST PUSH2 0x120 DUP4 ADD MSTORE PUSH2 0x160 DUP2 ADD MLOAD PUSH2 0xDF5 SWAP1 PUSH2 0x82B JUMP JUMPDEST PUSH2 0x140 DUP4 ADD MSTORE PUSH1 0x40 MLOAD PUSH4 0x23AA9AB PUSH1 0xE6 SHL DUP2 MSTORE PUSH32 0x3CB99135F7A7C088D9085B446345038A22A85F4E8FE072B0E1B66D97243E7458 PUSH1 0x4 DUP3 ADD MSTORE PUSH1 0x0 SWAP1 PUSH32 0x0 PUSH1 0x1 PUSH1 0x1 PUSH1 0xA0 SHL SUB AND SWAP1 PUSH4 0x8EAA6AC0 SWAP1 PUSH1 0x24 ADD PUSH1 0x20 PUSH1 0x40 MLOAD DUP1 DUP4 SUB DUP2 DUP7 GAS STATICCALL ISZERO DUP1 ISZERO PUSH2 0xE82 JUMPI RETURNDATASIZE PUSH1 0x0 DUP1 RETURNDATACOPY RETURNDATASIZE PUSH1 0x0 REVERT JUMPDEST POP POP POP POP PUSH1 0x40 MLOAD RETURNDATASIZE PUSH1 0x1F NOT PUSH1 0x1F DUP3 ADD AND DUP3 ADD DUP1 PUSH1 0x40 MSTORE POP DUP2 ADD SWAP1 PUSH2 0xEA6 SWAP2 SWAP1 PUSH2 0x148A JUMP JUMPDEST PUSH1 0x1 PUSH1 0x1 PUSH1 0xA0 SHL SUB AND PUSH4 0x6464B68A DUP5 PUSH1 0x20 ADD MLOAD DUP6 PUSH1 0x40 ADD MLOAD PUSH1 0x40 MLOAD DUP4 PUSH4 0xFFFFFFFF AND PUSH1 0xE0 SHL DUP2 MSTORE PUSH1 0x4 ADD PUSH2 0xEE4 SWAP3 SWAP2 SWAP1 SWAP2 DUP3 MSTORE PUSH1 0x20 DUP3 ADD MSTORE PUSH1 0x40 ADD SWAP1 JUMP JUMPDEST PUSH1 0x60 PUSH1 0x40 MLOAD DUP1 DUP4 SUB DUP2 DUP7 GAS STATICCALL ISZERO DUP1 ISZERO PUSH2 0xF01 JUMPI RETURNDATASIZE PUSH1 0x0 DUP1 RETURNDATACOPY RETURNDATASIZE PUSH1 0x0 REVERT JUMPDEST POP POP POP POP PUSH1 0x40 MLOAD RETURNDATASIZE PUSH1 0x1F NOT PUSH1 0x1F DUP3 ADD AND DUP3 ADD DUP1 PUSH1 0x40 MSTORE POP DUP2 ADD SWAP1 PUSH2 0xF25 SWAP2 SWAP1 PUSH2 0x14C0 JUMP JUMPDEST POP SWAP2 POP POP DUP1 PUSH2 0xF6A JUMPI PUSH1 0x40 MLOAD PUSH3 0x461BCD PUSH1 0xE5 SHL DUP2 MSTORE PUSH1 0x20 PUSH1 0x4 DUP3 ADD MSTORE PUSH1 0x11 PUSH1 0x24 DUP3 ADD MSTORE PUSH17 0x145D5BDD194E88139BDD081C5D5BDD1959 PUSH1 0x7A SHL PUSH1 0x44 DUP3 ADD MSTORE PUSH1 0x64 ADD PUSH2 0x55D JUMP JUMPDEST PUSH2 0x140 DUP4 ADD MLOAD PUSH2 0xF7A SWAP1 DUP3 PUSH2 0x1401 JUMP JUMPDEST DUP4 PUSH2 0x120 ADD MLOAD PUSH2 0xF8A SWAP2 SWAP1 PUSH2 0x1423 JUMP JUMPDEST PUSH2 0x100 DUP5 ADD MSTORE POP PUSH2 0xFAB JUMP JUMPDEST PUSH2 0xFA4 DUP2 PUSH2 0x100 ADD MLOAD PUSH2 0x82B JUMP JUMPDEST PUSH2 0x100 DUP4 ADD MSTORE JUMPDEST PUSH1 0x40 MLOAD PUSH4 0x212D6CB PUSH1 0xE2 SHL DUP2 MSTORE PUSH20 0x0 SWAP1 PUSH4 0x84B5B2C SWAP1 PUSH2 0xFE2 SWAP1 DUP5 SWAP1 PUSH1 0x4 ADD PUSH2 0x14EE JUMP JUMPDEST PUSH1 0x20 PUSH1 0x40 MLOAD DUP1 DUP4 SUB DUP2 DUP7 GAS DELEGATECALL ISZERO DUP1 ISZERO PUSH2 0xFFF JUMPI RETURNDATASIZE PUSH1 0x0 DUP1 RETURNDATACOPY RETURNDATASIZE PUSH1 0x0 REVERT JUMPDEST POP POP POP POP PUSH1 0x40 MLOAD RETURNDATASIZE PUSH1 0x1F NOT PUSH1 0x1F DUP3 ADD AND DUP3 ADD DUP1 PUSH1 0x40 MSTORE POP DUP2 ADD SWAP1 PUSH2 0x1023 SWAP2 SWAP1 PUSH2 0x14A7 JUMP JUMPDEST PUSH2 0x160 DUP4 ADD MSTORE PUSH1 0x40 DUP2 ADD MLOAD PUSH2 0x180 DUP4 ADD SWAP1 PUSH1 0x5 DUP2 GT ISZERO PUSH2 0x1045 JUMPI PUSH2 0x1045 PUSH2 0x1248 JUMP JUMPDEST SWAP1 DUP2 PUSH1 0x5 DUP2 GT ISZERO PUSH2 0x1058 JUMPI PUSH2 0x1058 PUSH2 0x1248 JUMP JUMPDEST SWAP1 MSTORE POP PUSH1 0x60 ADD MLOAD PUSH1 0xFF AND PUSH2 0x1A0 DUP3 ADD MSTORE SWAP3 SWAP2 POP POP JUMP JUMPDEST PUSH1 0x0 SLOAD PUSH1 0x1 PUSH1 0x1 PUSH1 0xA0 SHL SUB PUSH3 0x10000 SWAP1 SWAP2 DIV AND CALLER EQ PUSH2 0x566 JUMPI PUSH1 0x40 MLOAD PUSH3 0x461BCD PUSH1 0xE5 SHL DUP2 MSTORE PUSH1 0x20 PUSH1 0x4 DUP3 ADD MSTORE PUSH1 0x1F PUSH1 0x24 DUP3 ADD MSTORE PUSH32 0x416C6C6F77616E63653A2063616C6C6572206D757374206265204F776E657200 PUSH1 0x44 DUP3 ADD MSTORE PUSH1 0x64 ADD PUSH2 0x55D JUMP JUMPDEST PUSH1 0x0 DUP1 SLOAD PUSH1 0x1 PUSH1 0x1 PUSH1 0xA0 SHL SUB DUP4 DUP2 AND PUSH3 0x10000 DUP2 DUP2 MUL PUSH3 0x10000 PUSH1 0x1 PUSH1 0xB0 SHL SUB NOT DUP6 AND OR DUP6 SSTORE PUSH1 0x40 MLOAD SWAP4 DIV SWAP2 SWAP1 SWAP2 AND SWAP3 SWAP1 SWAP2 DUP4 SWAP2 PUSH32 0x8BE0079C531659141344CD1FD0A4F28419497F9722A3DAAFE3B4186F6B6457E0 SWAP2 LOG3 POP POP JUMP JUMPDEST PUSH1 0x40 MLOAD DUP1 PUSH2 0x1C0 ADD PUSH1 0x40 MSTORE DUP1 PUSH1 0x0 PUSH1 0x1 PUSH1 0x1 PUSH1 0xA0 SHL SUB AND DUP2 MSTORE PUSH1 0x20 ADD PUSH1 0x0 DUP1 NOT AND DUP2 MSTORE PUSH1 0x20 ADD PUSH1 0x0 DUP1 NOT AND DUP2 MSTORE PUSH1 0x20 ADD PUSH1 0x0 DUP2 MSTORE PUSH1 0x20 ADD PUSH1 0x0 DUP2 MSTORE PUSH1 0x20 ADD PUSH1 0x0 DUP2 MSTORE PUSH1 0x20 ADD PUSH1 0x0 DUP2 MSTORE PUSH1 0x20 ADD PUSH1 0x0 DUP2 MSTORE PUSH1 0x20 ADD PUSH1 0x0 DUP2 MSTORE PUSH1 0x20 ADD PUSH1 0x0 DUP2 MSTORE PUSH1 0x20 ADD PUSH1 0x0 DUP2 MSTORE PUSH1 0x20 ADD PUSH1 0x0 DUP2 MSTORE PUSH1 0x20 ADD PUSH1 0x0 PUSH1 0x5 DUP2 GT ISZERO PUSH2 0x11AC JUMPI PUSH2 0x11AC PUSH2 0x1248 JUMP JUMPDEST DUP2 MSTORE PUSH1 0x0 PUSH1 0x20 SWAP1 SWAP2 ADD MSTORE SWAP1 JUMP JUMPDEST PUSH1 0x0 DUP1 DUP6 DUP6 GT ISZERO PUSH2 0x11C9 JUMPI PUSH1 0x0 DUP1 REVERT JUMPDEST DUP4 DUP7 GT ISZERO PUSH2 0x11D6 JUMPI PUSH1 0x0 DUP1 REVERT JUMPDEST POP POP DUP3 ADD SWAP4 SWAP2 SWAP1 SWAP3 SUB SWAP2 POP JUMP JUMPDEST PUSH1 0x0 PUSH1 0x20 DUP3 DUP5 SUB SLT ISZERO PUSH2 0x11F5 JUMPI PUSH1 0x0 DUP1 REVERT JUMPDEST DUP2 CALLDATALOAD PUSH1 0x1 PUSH1 0x1 PUSH1 0xE0 SHL SUB NOT DUP2 AND DUP2 EQ PUSH2 0x656 JUMPI PUSH1 0x0 DUP1 REVERT JUMPDEST PUSH1 0x0 DUP1 PUSH1 0x40 DUP4 DUP6 SUB SLT ISZERO PUSH2 0x1220 JUMPI PUSH1 0x0 DUP1 REVERT JUMPDEST POP POP DUP1 CALLDATALOAD SWAP3 PUSH1 0x20 SWAP1 SWAP2 ADD CALLDATALOAD SWAP2 POP JUMP JUMPDEST PUSH1 0x0 PUSH1 0x20 DUP3 DUP5 SUB SLT ISZERO PUSH2 0x1241 JUMPI PUSH1 0x0 DUP1 REVERT JUMPDEST POP CALLDATALOAD SWAP2 SWAP1 POP JUMP JUMPDEST PUSH4 0x4E487B71 PUSH1 0xE0 SHL PUSH1 0x0 MSTORE PUSH1 0x21 PUSH1 0x4 MSTORE PUSH1 0x24 PUSH1 0x0 REVERT JUMPDEST PUSH1 0x6 DUP2 LT PUSH2 0x127C JUMPI PUSH4 0x4E487B71 PUSH1 0xE0 SHL PUSH1 0x0 MSTORE PUSH1 0x21 PUSH1 0x4 MSTORE PUSH1 0x24 PUSH1 0x0 REVERT JUMPDEST SWAP1 MSTORE JUMP JUMPDEST DUP2 MLOAD PUSH1 0x1 PUSH1 0x1 PUSH1 0xA0 SHL SUB AND DUP2 MSTORE PUSH2 0x1C0 DUP2 ADD PUSH1 0x20 DUP4 ADD MLOAD PUSH1 0x20 DUP4 ADD MSTORE PUSH1 0x40 DUP4 ADD MLOAD PUSH1 0x40 DUP4 ADD MSTORE PUSH1 0x60 DUP4 ADD MLOAD PUSH1 0x60 DUP4 ADD MSTORE PUSH1 0x80 DUP4 ADD MLOAD PUSH1 0x80 DUP4 ADD MSTORE PUSH1 0xA0 DUP4 ADD MLOAD PUSH1 0xA0 DUP4 ADD MSTORE PUSH1 0xC0 DUP4 ADD MLOAD PUSH1 0xC0 DUP4 ADD MSTORE PUSH1 0xE0 DUP4 ADD MLOAD PUSH1 0xE0 DUP4 ADD MSTORE PUSH2 0x100 DUP1 DUP5 ADD MLOAD DUP2 DUP5 ADD MSTORE POP PUSH2 0x120 DUP1 DUP5 ADD MLOAD DUP2 DUP5 ADD MSTORE POP PUSH2 0x140 DUP1 DUP5 ADD MLOAD DUP2 DUP5 ADD MSTORE POP PUSH2 0x160 DUP1 DUP5 ADD MLOAD DUP2 DUP5 ADD MSTORE POP PUSH2 0x180 DUP1 DUP5 ADD MLOAD PUSH2 0x131B DUP3 DUP6 ADD DUP3 PUSH2 0x125E JUMP JUMPDEST POP POP PUSH2 0x1A0 DUP4 DUP2 ADD MLOAD PUSH1 0xFF DUP2 AND DUP5 DUP4 ADD MSTORE JUMPDEST POP POP SWAP3 SWAP2 POP POP JUMP JUMPDEST PUSH1 0x0 PUSH1 0x20 DUP3 DUP5 SUB SLT ISZERO PUSH2 0x1347 JUMPI PUSH1 0x0 DUP1 REVERT JUMPDEST DUP2 CALLDATALOAD PUSH6 0xFFFFFFFFFFFF DUP2 AND DUP2 EQ PUSH2 0x656 JUMPI PUSH1 0x0 DUP1 REVERT JUMPDEST PUSH1 0x0 PUSH1 0x20 DUP3 DUP5 SUB SLT ISZERO PUSH2 0x136F JUMPI PUSH1 0x0 DUP1 REVERT JUMPDEST DUP2 CALLDATALOAD PUSH8 0xFFFFFFFFFFFFFFFF DUP2 AND DUP2 EQ PUSH2 0x656 JUMPI PUSH1 0x0 DUP1 REVERT JUMPDEST PUSH1 0x0 PUSH1 0x20 DUP3 DUP5 SUB SLT ISZERO PUSH2 0x1399 JUMPI PUSH1 0x0 DUP1 REVERT JUMPDEST DUP2 CALLDATALOAD PUSH4 0xFFFFFFFF DUP2 AND DUP2 EQ PUSH2 0x656 JUMPI PUSH1 0x0 DUP1 REVERT JUMPDEST PUSH1 0x1 PUSH1 0x1 PUSH1 0xA0 SHL SUB DUP2 AND DUP2 EQ PUSH2 0x8EF JUMPI PUSH1 0x0 DUP1 REVERT JUMPDEST PUSH1 0x0 PUSH1 0x20 DUP3 DUP5 SUB SLT ISZERO PUSH2 0x13D4 JUMPI PUSH1 0x0 DUP1 REVERT JUMPDEST DUP2 CALLDATALOAD PUSH2 0x656 DUP2 PUSH2 0x13AD JUMP JUMPDEST PUSH1 0x0 PUSH1 0x20 DUP3 DUP5 SUB SLT ISZERO PUSH2 0x13F1 JUMPI PUSH1 0x0 DUP1 REVERT JUMPDEST DUP2 MLOAD DUP1 ISZERO ISZERO DUP2 EQ PUSH2 0x656 JUMPI PUSH1 0x0 DUP1 REVERT JUMPDEST PUSH1 0x0 DUP3 PUSH2 0x141E JUMPI PUSH4 0x4E487B71 PUSH1 0xE0 SHL PUSH1 0x0 MSTORE PUSH1 0x12 PUSH1 0x4 MSTORE PUSH1 0x24 PUSH1 0x0 REVERT JUMPDEST POP DIV SWAP1 JUMP JUMPDEST PUSH1 0x0 DUP2 PUSH1 0x0 NOT DIV DUP4 GT DUP3 ISZERO ISZERO AND ISZERO PUSH2 0x144B JUMPI PUSH4 0x4E487B71 PUSH1 0xE0 SHL PUSH1 0x0 MSTORE PUSH1 0x11 PUSH1 0x4 MSTORE PUSH1 0x24 PUSH1 0x0 REVERT JUMPDEST POP MUL SWAP1 JUMP JUMPDEST PUSH4 0x4E487B71 PUSH1 0xE0 SHL PUSH1 0x0 MSTORE PUSH1 0x1 PUSH1 0x4 MSTORE PUSH1 0x24 PUSH1 0x0 REVERT JUMPDEST PUSH1 0x0 DUP1 PUSH1 0x40 DUP4 DUP6 SUB SLT ISZERO PUSH2 0x1479 JUMPI PUSH1 0x0 DUP1 REVERT JUMPDEST POP POP DUP1 MLOAD PUSH1 0x20 SWAP1 SWAP2 ADD MLOAD SWAP1 SWAP3 SWAP1 SWAP2 POP JUMP JUMPDEST PUSH1 0x0 PUSH1 0x20 DUP3 DUP5 SUB SLT ISZERO PUSH2 0x149C JUMPI PUSH1 0x0 DUP1 REVERT JUMPDEST DUP2 MLOAD PUSH2 0x656 DUP2 PUSH2 0x13AD JUMP JUMPDEST PUSH1 0x0 PUSH1 0x20 DUP3 DUP5 SUB SLT ISZERO PUSH2 0x14B9 JUMPI PUSH1 0x0 DUP1 REVERT JUMPDEST POP MLOAD SWAP2 SWAP1 POP JUMP JUMPDEST PUSH1 0x0 DUP1 PUSH1 0x0 PUSH1 0x60 DUP5 DUP7 SUB SLT ISZERO PUSH2 0x14D5 JUMPI PUSH1 0x0 DUP1 REVERT JUMPDEST DUP4 MLOAD SWAP3 POP PUSH1 0x20 DUP5 ADD MLOAD SWAP2 POP PUSH1 0x40 DUP5 ADD MLOAD SWAP1 POP SWAP3 POP SWAP3 POP SWAP3 JUMP JUMPDEST DUP2 MLOAD DUP2 MSTORE PUSH1 0x20 DUP1 DUP4 ADD MLOAD PUSH2 0x180 DUP4 ADD SWAP2 PUSH2 0x1512 SWAP1 DUP5 ADD DUP3 PUSH1 0x1 PUSH1 0x1 PUSH1 0xA0 SHL SUB AND SWAP1 MSTORE JUMP JUMPDEST POP PUSH1 0x40 DUP4 ADD MLOAD PUSH2 0x1525 PUSH1 0x40 DUP5 ADD DUP3 PUSH2 0x125E JUMP JUMPDEST POP PUSH1 0x60 DUP4 ADD MLOAD PUSH2 0x153A PUSH1 0x60 DUP5 ADD DUP3 PUSH1 0xFF AND SWAP1 MSTORE JUMP JUMPDEST POP PUSH1 0x80 DUP4 ADD MLOAD PUSH1 0x80 DUP4 ADD MSTORE PUSH1 0xA0 DUP4 ADD MLOAD PUSH2 0x1560 PUSH1 0xA0 DUP5 ADD DUP3 PUSH8 0xFFFFFFFFFFFFFFFF AND SWAP1 MSTORE JUMP JUMPDEST POP PUSH1 0xC0 DUP4 ADD MLOAD PUSH2 0x157C PUSH1 0xC0 DUP5 ADD DUP3 PUSH8 0xFFFFFFFFFFFFFFFF AND SWAP1 MSTORE JUMP JUMPDEST POP PUSH1 0xE0 DUP4 ADD MLOAD PUSH2 0x1598 PUSH1 0xE0 DUP5 ADD DUP3 PUSH8 0xFFFFFFFFFFFFFFFF AND SWAP1 MSTORE JUMP JUMPDEST POP PUSH2 0x100 DUP4 DUP2 ADD MLOAD PUSH8 0xFFFFFFFFFFFFFFFF SWAP1 DUP2 AND SWAP2 DUP5 ADD SWAP2 SWAP1 SWAP2 MSTORE PUSH2 0x120 DUP1 DUP6 ADD MLOAD DUP3 AND SWAP1 DUP5 ADD MSTORE PUSH2 0x140 DUP1 DUP6 ADD MLOAD DUP3 AND SWAP1 DUP5 ADD MSTORE PUSH2 0x160 DUP1 DUP6 ADD MLOAD SWAP2 DUP3 AND DUP2 DUP6 ADD MSTORE SWAP1 PUSH2 0x132D JUMP INVALID LOG2 PUSH5 0x6970667358 0x22 SLT KECCAK256 ISZERO GASLIMIT 0x2B PC PUSH3 0x764D72 BYTE 0xC3 LOG0 SGT 0xBE 0x2D POP DUP9 0x23 DUP11 0xA5 0x2E 0xE1 BLOCKHASH AND 0xE6 RETURNDATASIZE 0xA5 0xDE 0xF9 DUP8 SAR 0x4E PUSH27 0x64736F6C634300080B003300000000000000000000000000000000 ","sha1":"a8ecfe0d6bb93d504518cb1efb6a88daf0818589","source":"// SPDX-License-Identifier: MIT\n// Beef MarketPlace Contracts v0.0.0 hello@mcdu.com\n\npragma solidity ^0.8.0;\n\nimport \"./Path.sol\";\nimport \"./Storage.sol\";\nimport \"./Lib.sol\";\nimport \"../agnostic/UIntConverter.sol\";\nimport \"../Bank/Bank.sol\";\nimport \"../Quote/Quotator.sol\";\nimport \"../Delivery/Delivery.sol\";\n\nbytes32 constant MARKET = keccak256(\"Market\");\n\ncontract Market is\n    RepositoryContract,\n    UIntConverter,\n    MarketPathStorage,\n    //MarketPathReader,\n    MarketStorage\n{\n    using Array for uint64[];\n    using Array for bytes32[];\n    using MarketLib for SolutionSet;\n\n    function id() public view virtual returns (bytes32) {return MARKET;}\n\n    constructor(Repository rep_) RepositoryContract(rep_) {}\n\n    function MarketPathKeccak() internal view virtual override returns (KeccakInverter)\n    {\n        return rep;\n    }\n    function MarketPathIsActiveFromTo(bytes32 fromto_) internal view virtual override returns (bool)\n    {\n        return _fromtoorders[fromto_].length !=0;\n    }\n    /////////////////////////////////////////////////////////////////////////////////////////\n    //      storage\n    /////////////////////////////////////////////////////////////////////////////////////////\n\n    function __order(uint256 order_, bool showall)\n        internal\n        view\n        returns (Order.InfoPublic memory orderpub_)\n    {\n        Order.Info memory _order = _orders[order_];\n        (orderpub_.from, orderpub_.to) = rep.resolveBytes32Bytes32(\n            _order.fromto\n        );\n\n        orderpub_.orderid = _order.orderid; //   // id of the order\n        if (showall || (!Order.isHidden(_order.options))) {\n            orderpub_.account = _order.account; // the user/account/client/customer\n            orderpub_.qty = UInt64ToUInt256(_order.qty); // active qty\n            if (Order.isPack(_order.options))\n                orderpub_.granularity = orderpub_.qty;\n            else if (_order.granularity != 0)\n                orderpub_.granularity = UInt64ToUInt256(_order.granularity); // active qty\n            else\n                orderpub_.granularity = Bank(rep.get(BANK)).granularity(orderpub_.from);\n            orderpub_.qtydone = UInt64ToUInt256(_order.qtydone); // qty bought or sold\n            orderpub_.originalqty = UInt64ToUInt256(_order.originalqty); // original qty when the order was placed (qty and quote can be ajusted)\n\n            if (Order.isIndexed(_order.options)) {\n                orderpub_.originalquote = UInt64ToUInt256(_order.originalquote); // original quote when the order was placed (qty and quote can be ajusted)\n                orderpub_.originalbasedquote = UInt64ToUInt256(\n                    _order.originalbasedquote\n                ); // original market quote when the order was placed (qty and quote can be ajusted)\n                uint256 _qquote;\n                (, _qquote, ) = Quotator(rep.get(QUOTATOR)).readOnly(\n                    orderpub_.from,\n                    orderpub_.to\n                );\n                require(_qquote != 0, \"Quote: Not quoted\");\n                orderpub_.quote =\n                    orderpub_.originalquote *\n                    (_qquote / orderpub_.originalbasedquote);\n            } else orderpub_.quote = UInt64ToUInt256(_order.quote); // current quote\n        }\n        orderpub_.expire = Order.isExpired(_order);\n        orderpub_.state = _order.state; // uint8    // state of the order\n        orderpub_.options = _order.options; // order options\n    }\n\n    function order(uint256 order_)\n        public\n        view\n        returns (Order.InfoPublic memory)\n    {\n        return __order(order_, false);\n    }\n}\n","sourcePath":"contracts/Market/Market.sol","type":"contract","deployment":{"address":"0xcfb4c1B86de965B979b85C260384c958086A46Cd","chainid":"9997","blockHeight":8894}}