{"abi":[{"inputs":[],"name":"collect","outputs":[],"stateMutability":"nonpayable","type":"function"},{"inputs":[],"name":"getBalance","outputs":[{"internalType":"uint256","name":"","type":"uint256"}],"stateMutability":"nonpayable","type":"function"},{"stateMutability":"payable","type":"receive"}],"bytecode":"608060405234801561001057600080fd5b5060cc8061001f6000396000f3fe608060405260043610602a5760003560e01c806312065fe0146035578063e522538114605457600080fd5b36603057005b600080fd5b348015604057600080fd5b504760405190815260200160405180910390f35b348015605f57600080fd5b5060666068565b005b60405133904780156108fc02916000818181858888f193505050501580156093573d6000803e3d6000fd5b5056fea2646970667358221220deb00e74fca6938235f7f12f69d9d75c7b8c50b354c4de54ed9336aa854701cf64736f6c634300080d0033","bytecodeSha1":"32490473d12487a112634bb093520f7899ef0cd1","compiler":{"evm_version":"istanbul","optimizer":{"enabled":true,"runs":200},"version":"0.8.13+commit.abaa5c0e"},"contractName":"TestStake","language":"Solidity","natspec":{"kind":"dev","methods":{},"version":1},"opcodes":"PUSH1 0x80 PUSH1 0x40 MSTORE PUSH1 0x4 CALLDATASIZE LT PUSH1 0x2A JUMPI PUSH1 0x0 CALLDATALOAD PUSH1 0xE0 SHR DUP1 PUSH4 0x12065FE0 EQ PUSH1 0x35 JUMPI DUP1 PUSH4 0xE5225381 EQ PUSH1 0x54 JUMPI PUSH1 0x0 DUP1 REVERT JUMPDEST CALLDATASIZE PUSH1 0x30 JUMPI STOP JUMPDEST PUSH1 0x0 DUP1 REVERT JUMPDEST CALLVALUE DUP1 ISZERO PUSH1 0x40 JUMPI PUSH1 0x0 DUP1 REVERT JUMPDEST POP SELFBALANCE PUSH1 0x40 MLOAD SWAP1 DUP2 MSTORE PUSH1 0x20 ADD PUSH1 0x40 MLOAD DUP1 SWAP2 SUB SWAP1 RETURN JUMPDEST CALLVALUE DUP1 ISZERO PUSH1 0x5F JUMPI PUSH1 0x0 DUP1 REVERT JUMPDEST POP PUSH1 0x66 PUSH1 0x68 JUMP JUMPDEST STOP JUMPDEST PUSH1 0x40 MLOAD CALLER SWAP1 SELFBALANCE DUP1 ISZERO PUSH2 0x8FC MUL SWAP2 PUSH1 0x0 DUP2 DUP2 DUP2 DUP6 DUP9 DUP9 CALL SWAP4 POP POP POP POP ISZERO DUP1 ISZERO PUSH1 0x93 JUMPI RETURNDATASIZE PUSH1 0x0 DUP1 RETURNDATACOPY RETURNDATASIZE PUSH1 0x0 REVERT JUMPDEST POP JUMP INVALID LOG2 PUSH5 0x6970667358 0x22 SLT KECCAK256 0xDE 0xB0 0xE PUSH21 0xFCA6938235F7F12F69D9D75C7B8C50B354C4DE54ED SWAP4 CALLDATASIZE 0xAA DUP6 SELFBALANCE ADD 0xCF PUSH5 0x736F6C6343 STOP ADDMOD 0xD STOP CALLER ","sha1":"32076f8d6a042a28133b9a70f16553cca3d96aac","source":"// SPDX-License-Identifier: MIT\npragma solidity ^0.8.0;\n\nimport \"@openzeppelin/contracts/utils/Context.sol\";\n\ncontract TestStake is Context {\n    receive() external payable {\n    }\n    function collect() external {\n        //payable(_msgSender()).send(msg.value*2);\n        payable(_msgSender()).transfer(address(this).balance); //\n    }\n\n    function getBalance() external returns (uint256) {\n        //payable(_msgSender()).send(msg.value*2);\n        return address(this).balance; //\n    }\n\n}\n","sourcePath":"contracts/test/TestStake.sol","type":"contract","deployment":{"address":"0xD6b76b75d72aA206Ea71a0597EB048eEDB804798","chainid":"9997","blockHeight":130}}