{"bytecode":"60c06040526007805460ff191690553480156200001b57600080fd5b5060405162004371380380620043718339810160408190526200003e91620000aa565b8015156080526200004f336200005a565b504360a052620000d5565b600080546001600160a01b038381166001600160a01b0319831681178455604051919092169283917f8be0079c531659141344cd1fd0a4f28419497f9722a3daafe3b4186f6b6457e09190a35050565b600060208284031215620000bd57600080fd5b81518015158114620000ce57600080fd5b9392505050565b60805160a051614276620000fb600039600061081c0152600061089801526142766000f3fe608060405234801561001057600080fd5b50600436106103d05760003560e01c806381b2490b116101ff578063ad10a1351161011a578063c9c2a940116100ad578063e50d1b3e1161007c578063e50d1b3e14610bfa578063e855a31314610c0d578063f2fde38b14610c20578063f5dab71114610c33576103d0565b8063c9c2a94014610bae578063d47a7edd14610bc1578063d4945d0e14610bd4578063dbf5f2fd14610be7576103d0565b8063bb7d88a9116100e9578063bb7d88a914610b62578063c33470d314610b75578063c452e6b614610b88578063c5537eb714610b9b576103d0565b8063ad10a13514610af9578063af91558514610b0c578063b305438314610b3c578063b72a4a7114610b4f576103d0565b80639e9bb9c111610192578063a9d4632611610161578063a9d4632614610aad578063ababadb514610ac0578063ac8a584a14610ad3578063ad0fc0cc14610ae6576103d0565b80639e9bb9c114610a61578063a663d4f514610a74578063a86eeb9114610a87578063a9bf985814610a9a576103d0565b80638da5cb5b116101ce5780638da5cb5b14610a015780638eaa6ac014610a1257806395b5d58414610a3b5780639870d7fe14610a4e576103d0565b806381b2490b146109bd57806383350075146109d057806389765f59146109db5780638d49d89b146109ee576103d0565b806338a699a4116102ef5780635b62cb70116102825780636d70f7ae116102515780636d70f7ae1461097a5780636f4576831461098d578063715018a6146109a257806375f890ab146109aa576103d0565b80635b62cb701461091957806361e99ffb1461092c578063657c7e091461093f57806367c51dfc14610967576103d0565b8063509ff69b116102be578063509ff69b146108cd578063552cdf98146108e05780635768bbb5146108f3578063589e6a9814610906576103d0565b806338a699a4146108805780634329598c146107805780634635229b146108935780634f79b792146108ba576103d0565b8063162790551161036757806324ace6721161033657806324ace672146108045780632558a0791461081757806327ee9dc21461083e5780632f54bf6e1461085e576103d0565b806316279055146107a0578063184bc906146107b357806318d54cf3146107de5780631d7a3b72146107f1576103d0565b806307d61085116103a357806307d61085146107395780630ea94b961461074c578063120f6ee31461076d57806312cae67b14610780576103d0565b806301ffc9a7146106a55780630221c7de146106cd57806303565ea1146106f8578063036995df14610718575b6103d8610c46565b60405163825998c160e01b8152600d60048201526000356001600160e01b031916602482015273__Array_________________________________9063825998c190604401602060405180830381865af415801561043a573d6000803e3d6000fd5b505050506040513d601f19601f8201168201806040525081019061045e919061393c565b5060005b600a548110156106a257336001600160a01b0316600a828154811061048957610489613959565b6000918252602090912001546001600160a01b031614156104a957610690565b6000600a82815481106104be576104be613959565b600091825260209182902001546040805163af640d0f60e01b815290516001600160a01b039092169263af640d0f926004808401938290030181865afa15801561050c573d6000803e3d6000fd5b505050506040513d601f19601f82011682018060405250810190610530919061396f565b905060016000828152600c602090815260408083206001600160e01b0319843516845290915290205460ff16600281111561056d5761056d613988565b14156105795750610690565b6000600a838154811061058e5761058e613959565b60009182526020822001546040516001600160a01b03909116916105b391369061399e565b6000604051808303816000865af19150503d80600081146105f0576040519150601f19603f3d011682016040523d82523d6000602084013e6105f5565b606091505b50506000838152600c6020908152604080832083356001600160e01b03191684529091528120549192509060ff16600281111561063457610634613988565b141561068d5780610646576001610649565b60025b6000838152600c602090815260408083206001600160e01b031984351684529091529020805460ff1916600183600281111561068757610687613988565b02179055505b50505b8061069a816139c4565b915050610462565b50005b6106b86106b33660046139f7565b610ccc565b60405190151581526020015b60405180910390f35b6106e06106db366004613a27565b610d12565b6040516001600160401b0390911681526020016106c4565b61070b610706366004613a53565b610d3f565b6040516106c49190613a6c565b61072b610726366004613a9b565b610dd0565b6040519081526020016106c4565b6106b8610747366004613a53565b610ddd565b61075f61075a366004613a53565b610e06565b6040516106c4929190613ab8565b6106e061077b366004613a53565b610e61565b61079361078e366004613a53565b610eb3565b6040516106c49190613b2d565b6106b86107ae366004613a9b565b610f55565b6107c66107c1366004613a53565b610ff4565b6040516001600160a01b0390911681526020016106c4565b6106b86107ec366004613a27565b61104c565b6107936107ff366004613a27565b611067565b61072b610812366004613beb565b611375565b61072b7f000000000000000000000000000000000000000000000000000000000000000081565b61085161084c366004613a53565b6114d7565b6040516106c49190613c33565b6106b861086c366004613a9b565b6000546001600160a01b0391821691161490565b6106b861088e366004613a53565b61155d565b6106b87f000000000000000000000000000000000000000000000000000000000000000081565b61072b6108c8366004613a27565b611568565b61072b6108db366004613a27565b61159b565b6106b86108ee366004613a27565b6115e0565b61072b610901366004613c77565b61160d565b61072b610914366004613beb565b61169c565b6106b8610927366004613a9b565b6116a7565b61072b61093a366004613ca7565b6116b2565b61095261094d366004613a53565b6116f8565b604080519283526020830191909152016106c4565b6106b8610975366004613a27565b61177a565b6106b8610988366004613a9b565b61178e565b6109a061099b366004613a27565b6117f0565b005b6109a0611c8c565b6109a06109b8366004613a9b565b611c9e565b6106b86109cb366004613a27565b611f77565b60075460ff166106b8565b6106b86109e9366004613a27565b6120ac565b6106e06109fc366004613a9b565b6120c0565b6000546001600160a01b03166107c6565b6107c6610a20366004613a53565b6000908152600960205260409020546001600160a01b031690565b6106b8610a49366004613a9b565b6120cd565b6109a0610a5c366004613a9b565b6120e0565b610793610a6f366004613a53565b612170565b6106b8610a82366004613cde565b6121d9565b61072b610a95366004613a27565b612203565b61072b610aa8366004613a53565b61220f565b610793610abb366004613a9b565b612261565b6106b8610ace366004613a27565b61226e565b6109a0610ae1366004613a9b565b612380565b6106b8610af4366004613a27565b6123cf565b6106b8610b07366004613a27565b6124f2565b610b1f610b1a366004613a53565b612530565b604080519283526001600160a01b039091166020830152016106c4565b61072b610b4a366004613d26565b6125b2565b61072b610b5d366004613a27565b612635565b61070b610b70366004613a27565b612641565b6106b8610b83366004613db6565b612839565b6106b8610b96366004613a9b565b6128d0565b6106b8610ba9366004613cde565b6128dd565b61072b610bbc366004613a27565b6128fc565b6106b8610bcf366004613a53565b6129a7565b6106b8610be2366004613de2565b6129f9565b6106b8610bf5366004613a9b565b612a0c565b61075f610c08366004613a53565b612a1f565b6106b8610c1b366004613a27565b612a2b565b6109a0610c2e366004613a9b565b612a3f565b61070b610c41366004613a9b565b612ab8565b6000546001600160a01b0316331480610c635750610c6333610f55565b610cca5760405162461bcd60e51b815260206004820152602d60248201527f416c6c6f77616e63653a2063616c6c6572206d757374206265205265706f736960448201526c1d1bdc9e4810dbdb9d1c9858dd609a1b60648201526084015b60405180910390fd5b565b60006001600160e01b031982166301ffc9a760e01b1480610cfd57506305b62cb760e41b6001600160e01b03198316145b80610d0c5750610d0c82612ae0565b92915050565b60006001600160a01b038316610d2a57506001610d0c565b610d348383612641565b604001519392505050565b60408051606081018252600080825260208201819052918101919091526000805160206141ac833981519152821415610d7d57610d0c600080612641565b610d8682610ddd565b610dae5750506040805160608101825260111981526000602082018190529181019190915290565b600080610dba84610e06565b91509150610dc88282612641565b949350505050565b6000610d0c826000612635565b60006000805160206141ac833981519152821415610dfd57506001919050565b610d0c8261155d565b6000806000805160206141ac833981519152831415610e2a57506000928392509050565b610e338361155d565b610e4f5760405162461bcd60e51b8152600401610cc190613dff565b610e5883612a1f565b91509150915091565b60006000805160206141ac833981519152821415610e8457610d0c600080610d12565b610e8d82610ddd565b610e9957506000919050565b600080610ea584610e06565b91509150610dc88282610d12565b6000818152600860205260409020805460609190610ed090613e36565b80601f0160208091040260200160405190810160405280929190818152602001828054610efc90613e36565b8015610f495780601f10610f1e57610100808354040283529160200191610f49565b820191906000526020600020905b815481529060010190602001808311610f2c57829003601f168201915b50505050509050919050565b60006001600160a01b038216301415610f7057506001919050565b60405163f132566360e01b8152600a60048201526001600160a01b038316602482015273__Array_________________________________9063f1325663906044015b602060405180830381865af4158015610fd0573d6000803e3d6000fd5b505050506040513d601f19601f82011682018060405250810190610d0c919061393c565b60006000805160206141ac83398151915282141561101457506000919050565b61101d8261155d565b6110395760405162461bcd60e51b8152600401610cc190613dff565b600061104483612a1f565b509392505050565b6000611056612b16565b6110608383612b95565b9392505050565b60606001600160a01b038316611097576040518060a00160405280607581526020016141cc607591399050610d0c565b60006001600073__BytesAndKeccakLib_____________________63d5f0b04d87876040518363ffffffff1660e01b81526004016110d6929190613ab8565b602060405180830381865af41580156110f3573d6000803e3d6000fd5b505050506040513d601f19601f82011682018060405250810190611117919061396f565b8152602001908152602001600020805461113090613e36565b80601f016020809104026020016040519081016040528092919081815260200182805461115c90613e36565b80156111a95780601f1061117e576101008083540402835291602001916111a9565b820191906000526020600020905b81548152906001019060200180831161118c57829003601f168201915b5050604080516000815260208101808352815190209596506111d19450869350019050613e6b565b60405160208183030381529060405280519060200120146111f3579050610d0c565b8215611354576001600073__BytesAndKeccakLib_____________________63d5f0b04d8760006040518363ffffffff1660e01b8152600401611237929190613ab8565b602060405180830381865af4158015611254573d6000803e3d6000fd5b505050506040513d601f19601f82011682018060405250810190611278919061396f565b8152602001908152602001600020805461129190613e36565b80601f01602080910402602001604051908101604052809291908181526020018280546112bd90613e36565b801561130a5780601f106112df5761010080835404028352916020019161130a565b820191906000526020600020905b8154815290600101906020018083116112ed57829003601f168201915b5050604080516000815260208101808352815190209596506113329450869350019050613e6b565b6040516020818303038152906040528051906020012014611354579050610d0c565b6040518060a00160405280606c8152602001614140606c9139949350505050565b8051602080830191909120600081815260089092526040909120805461139a90613e36565b151590506113c757600081815260086020908152604090912083516113c192850190613895565b50919050565b6000818152600860205260409020805461146991906113e590613e36565b80601f016020809104026020016040519081016040528092919081815260200182805461141190613e36565b801561145e5780601f106114335761010080835404028352916020019161145e565b820191906000526020600020905b81548152906001019060200180831161144157829003601f168201915b505050505083612e22565b6114d25760405162461bcd60e51b815260206004820152603460248201527f4b656363616b496e766572746572204279746573206b656363616b2069736e7460448201527320756e697175652021212121212121212121212160601b6064820152608401610cc1565b919050565b60606114e282610eb3565b6040516355b04b0d60e11b815273__BytesAndKeccakLib_____________________9163ab60961a916115189190600401613b2d565b600060405180830381865af4158015611535573d6000803e3d6000fd5b505050506040513d6000823e601f3d908101601f19168201604052610d0c9190810190613e87565b6000610d0c82612eb4565b600061157483836128fc565b905061157f8161155d565b610d0c5760405162461bcd60e51b8152600401610cc190613dff565b60006001600160a01b0383161580156115b2575081155b156115cc57506000805160206141ac833981519152610d0c565b6115d683836117f0565b6110608383612203565b60006001600160a01b0383166115f857506000610d0c565b6116028383612641565b602001519392505050565b6040516318f7a7c360e21b8152600481018390526001600160a01b03821660248201526000906110609073__BytesAndKeccakLib_____________________906363de9f0c906044015b600060405180830381865af4158015611674573d6000803e3d6000fd5b505050506040513d6000823e601f3d908101601f19168201604052610b4a9190810190613e87565b6000610d0c82611375565b6000610d0c82612ed6565b604051632291b3f160e21b815260048101839052602481018290526000906110609073__BytesAndKeccakLib_____________________90638a46cfc490604401611657565b600080611704836114d7565b60405163029695c360e21b815273__BytesAndKeccakLib_____________________91630a5a570c9161173a9190600401613c33565b6040805180830381865af4158015611756573d6000803e3d6000fd5b505050506040513d601f19601f82011682018060405250810190610e589190613f0c565b6000611784612b16565b6110608383612f61565b60006001600160a01b0382163014156117a957506001919050565b60405163f132566360e01b8152600b60048201526001600160a01b038316602482015273__Array_________________________________9063f132566390604401610fb3565b60008073__BytesAndKeccakLib_____________________63d5f0b04d8560006040518363ffffffff1660e01b815260040161182d929190613ab8565b602060405180830381865af415801561184a573d6000803e3d6000fd5b505050506040513d601f19601f8201168201806040525081019061186e919061396f565b600081815260036020526040902080549093509091506201000090046001600160401b0316611a0057604051634dd11f0f60e11b81526001600160a01b0385166004820152600060248201526001604482015273__Token_________________________________90639ba23e1e90606401606060405180830381865af41580156118fd573d6000803e3d6000fd5b505050506040513d601f19601f820116820180604052508101906119219190613f30565b6000828152600360209081526040918290208351815492850151948401516001600160401b0316620100000269ffffffffffffffff0000199515156101000261ffff1990941660ff90921691909117929092179390931617909155516316061a7160e21b815273__Array_________________________________9063581869c4906119bd906002908590600401918252602082015260400190565b602060405180830381865af41580156119da573d6000803e3d6000fd5b505050506040513d601f19601f820116820180604052508101906119fe919061393c565b505b81546201000090046001600160401b0316611a1d57611a1d613fa8565b815462010000900461010016611a335750505050565b604080516060810182528354600081900b8252610100810460ff16151560208301526201000090046001600160401b031681830152905163d5f0b04d60e01b815273__BytesAndKeccakLib_____________________9063d5f0b04d90611aa09088908890600401613ab8565b602060405180830381865af4158015611abd573d6000803e3d6000fd5b505050506040513d601f19601f82011682018060405250810190611ae1919061396f565b600081815260036020526040902080549094509092506201000090046001600160401b0316611c685760405163543af62760e01b815273__Token_________________________________9063543af62790611b4890889088908690600190600401613fbe565b606060405180830381865af4158015611b65573d6000803e3d6000fd5b505050506040513d601f19601f82011682018060405250810190611b899190613f30565b6000838152600360209081526040918290208351815492850151948401516001600160401b0316620100000269ffffffffffffffff0000199515156101000261ffff1990941660ff90921691909117929092179390931617909155516316061a7160e21b815273__Array_________________________________9063581869c490611c25906002908690600401918252602082015260400190565b602060405180830381865af4158015611c42573d6000803e3d6000fd5b505050506040513d601f19601f82011682018060405250810190611c66919061393c565b505b82546201000090046001600160401b0316611c8557611c85613fa8565b5050505050565b611c9461323e565b610cca6000613298565b611ca6612b16565b6040516301ffc9a760e01b81526315d3789560e31b60048201526001600160a01b038216906301ffc9a790602401602060405180830381865afa158015611cf1573d6000803e3d6000fd5b505050506040513d601f19601f82011682018060405250810190611d15919061393c565b611d6d5760405162461bcd60e51b8152602060048201526024808201527f636f6e7472616374206d75737420626520495265706f7369746f7279436f6e746044820152631c9858dd60e21b6064820152608401610cc1565b60005b600d54811015611e5657600c6000836001600160a01b031663af640d0f6040518163ffffffff1660e01b8152600401602060405180830381865afa158015611dbc573d6000803e3d6000fd5b505050506040513d601f19601f82011682018060405250810190611de0919061396f565b81526020019081526020016000206000600d8381548110611e0357611e03613959565b6000918252602080832060088304015460079092166004026101000a90910460e01b6001600160e01b03191683528201929092526040019020805460ff1916905580611e4e816139c4565b915050611d70565b506040516316f4b92960e21b8152600a60048201526001600160a01b038216602482015273__Array_________________________________90635bd2e4a490604401602060405180830381865af4158015611eb6573d6000803e3d6000fd5b505050506040513d601f19601f82011682018060405250810190611eda919061393c565b508060096000836001600160a01b031663af640d0f6040518163ffffffff1660e01b8152600401602060405180830381865afa158015611f1e573d6000803e3d6000fd5b505050506040513d601f19601f82011682018060405250810190611f42919061396f565b815260200190815260200160002060006101000a8154816001600160a01b0302191690836001600160a01b0316021790555050565b6004546000905b80156120a2576001600160a01b0384166004611f9b600184614015565b81548110611fab57611fab613959565b60009182526020909120600290910201546001600160a01b031614801561200057506004611fda600183614015565b81548110611fea57611fea613959565b9060005260206000209060020201600101546000145b8061208157506001600160a01b038416600461201d600184614015565b8154811061202d5761202d613959565b60009182526020909120600290910201546001600160a01b0316148015612081575082600461205d600184614015565b8154811061206d5761206d613959565b906000526020600020906002020160010154145b15612090576001915050610d0c565b8061209a8161402c565b915050611f7e565b5060009392505050565b60006120b6612b16565b61106083836132e8565b6000610d0c826000610d12565b60006120d7612b16565b610d0c82613444565b6120e8612b16565b6040516316f4b92960e21b8152600b60048201526001600160a01b038216602482015273__Array_________________________________90635bd2e4a4906044015b602060405180830381865af4158015612148573d6000803e3d6000fd5b505050506040513d601f19601f8201168201806040525081019061216c919061393c565b5050565b60606000805160206141ac83398151915282141561219357610d0c600080611067565b61219c82610ddd565b6121bf576040518060a00160405280606c8152602001614140606c913992915050565b6000806121cb84610e06565b91509150610dc88282611067565b6000816001600160401b031660ff6121f085610e61565b166001600160401b031614905092915050565b60006110608383613502565b60006000805160206141ac83398151915282141561223257610d0c600080612635565b61223b82610ddd565b61224757506001919050565b60008061225384610e06565b91509150610dc88282612635565b6060610d0c826000611067565b600654600090815b8181101561237557846001600160a01b03166006828154811061229b5761229b613959565b60009182526020909120600290910201546001600160a01b03161480156122e65750600681815481106122d0576122d0613959565b9060005260206000209060020201600101546000145b806123535750846001600160a01b03166006828154811061230957612309613959565b60009182526020909120600290910201546001600160a01b03161480156123535750836006828154811061233f5761233f613959565b906000526020600020906002020160010154145b1561236357600192505050610d0c565b8061236d816139c4565b915050612276565b506000949350505050565b612388612b16565b60405163edefe12d60e01b8152600b60048201526001600160a01b038216602482015273__Array_________________________________9063edefe12d9060440161212b565b60006123dc836000611f77565b156123e957506001610d0c565b8115612406576123f98383611f77565b1561240657506001610d0c565b6000836001600160a01b031663373a7fb46040518163ffffffff1660e01b8152600401602060405180830381865afa158015612446573d6000803e3d6000fd5b505050506040513d601f19601f8201168201806040525081019061246a9190614043565b9050612475816116a7565b612483576000915050610d0c565b604051632b43f03360e21b81526001600160a01b0382169063ad0fc0cc906124b19087908790600401613ab8565b602060405180830381865afa1580156124ce573d6000803e3d6000fd5b505050506040513d601f19601f82011682018060405250810190610dc8919061393c565b60006124fe838361226e565b1561250b57506000610d0c565b6125158383611f77565b1561252257506001610d0c565b60075460ff16159392505050565b60008061253c836114d7565b604051639ac1b34560e01b815273__BytesAndKeccakLib_____________________91639ac1b345916125729190600401613c33565b6040805180830381865af415801561258e573d6000803e3d6000fd5b505050506040513d601f19601f82011682018060405250810190610e589190614060565b604051632431a7cf60e01b8152600090610d0c9073__BytesAndKeccakLib_____________________90632431a7cf906125f0908690600401613c33565b600060405180830381865af415801561260d573d6000803e3d6000fd5b505050506040513d6000823e601f3d908101601f191682016040526108129190810190614085565b60006110608383613540565b60408051606081018252600080825260208201819052918101919091526001600160a01b038316612691575060408051606081018252601119815260006020820152600191810191909152610d0c565b6003600073__BytesAndKeccakLib_____________________63d5f0b04d8660006040518363ffffffff1660e01b81526004016126cf929190613ab8565b602060405180830381865af41580156126ec573d6000803e3d6000fd5b505050506040513d601f19601f82011682018060405250810190612710919061396f565b815260208082019290925260409081016000908120825160608101845290549182900b815261010080830460ff16151594820194909452620100009091046001600160401b0381169282019290925292501661276b57610d0c565b6003600073__BytesAndKeccakLib_____________________63d5f0b04d86866040518363ffffffff1660e01b81526004016127a8929190613ab8565b602060405180830381865af41580156127c5573d6000803e3d6000fd5b505050506040513d601f19601f820116820180604052508101906127e9919061396f565b815260208082019290925260409081016000908120825160608101845290549182900b8152610100820460ff161515938101939093526201000090046001600160401b0316908201529392505050565b6000612847836102006128dd565b61285357506000610d0c565b61285c83610ff4565b6040516301ffc9a760e01b81526001600160e01b0319841660048201526001600160a01b0391909116906301ffc9a790602401602060405180830381865afa1580156128ac573d6000803e3d6000fd5b505050506040513d601f19601f82011682018060405250810190611060919061393c565b6000610d0c8260006115e0565b6000816128e984610e61565b166001600160401b031615159392505050565b60006001600160a01b038316158015612913575081155b1561292d57506000805160206141ac833981519152610d0c565b60405163d5f0b04d60e01b815273__BytesAndKeccakLib_____________________9063d5f0b04d906129669086908690600401613ab8565b602060405180830381865af4158015612983573d6000803e3d6000fd5b505050506040513d601f19601f82011682018060405250810190611060919061396f565b60006000805160206141ac8339815191528214156129ca57610d0c6000806115e0565b6129d382610ddd565b6129df57506000919050565b6000806129eb84610e06565b91509150610dc882826115e0565b6000612a03612b16565b610d0c82613598565b6000612a16612b16565b610d0c826135ca565b600080610e58836136eb565b6000612a35612b16565b611060838361376d565b612a4761323e565b6001600160a01b038116612aac5760405162461bcd60e51b815260206004820152602660248201527f4f776e61626c653a206e6577206f776e657220697320746865207a65726f206160448201526564647265737360d01b6064820152608401610cc1565b612ab581613298565b50565b6040805160608101825260008082526020820181905291810191909152610d0c826000612641565b60006001600160e01b031982166301ffc9a760e01b1480610d0c57506001600160e01b03198216632b43f03360e21b1492915050565b6000546001600160a01b0316331480612b335750612b333361178e565b610cca5760405162461bcd60e51b815260206004820152602d60248201527f416c6c6f77616e63653a2063616c6c6572206d757374206265205265706f736960448201526c3a37b93c9027b832b930ba37b960991b6064820152608401610cc1565b600654600090815b81811015612c2f57846001600160a01b031660068281548110612bc257612bc2613959565b60009182526020909120600290910201546001600160a01b0316148015612c0d575060068181548110612bf757612bf7613959565b9060005260206000209060020201600101546000145b15612c1d57600092505050610d0c565b80612c27816139c4565b915050612b9d565b5082612cef5760001981015b81811015612ce957846001600160a01b031660068281548110612c6057612c60613959565b60009182526020909120600290910201546001600160a01b03161415612ce057612cde60068281548110612c9657612c96613959565b6000918252602090912060029091020154600680546001600160a01b039092169184908110612cc757612cc7613959565b90600052602060002090600202016001015461376d565b505b60001901612c3b565b50612d85565b60005b81811015612d8357846001600160a01b031660068281548110612d1757612d17613959565b60009182526020909120600290910201546001600160a01b0316148015612d6157508360068281548110612d4d57612d4d613959565b906000526020600020906002020160010154145b15612d7157600092505050610d0c565b80612d7b816139c4565b915050612cf2565b505b604080518082019091526001600160a01b038581168252602082018581526006805460018101825560009190915292517ff652222313e28459528d920b65115c16c04f3efc82aaedc97be59f3f377c0d3f600290940293840180546001600160a01b0319169190931617909155517ff652222313e28459528d920b65115c16c04f3efc82aaedc97be59f3f377c0d40909101555060019392505050565b60008151835114612e3557506000610d0c565b60005b8351811015612eaa57828181518110612e5357612e53613959565b602001015160f81c60f81b6001600160f81b031916848281518110612e7a57612e7a613959565b01602001516001600160f81b03191614612e98576000915050610d0c565b80612ea2816139c4565b915050612e38565b5060019392505050565b60008181526008602052604081208054612ecd90613e36565b15159392505050565b60006001600160a01b038216301415612ef157506001919050565b6005545b8015612f58576001600160a01b0383166005612f12600184614015565b81548110612f2257612f22613959565b6000918252602090912001546001600160a01b03161415612f465750600192915050565b80612f508161402c565b915050612ef5565b50600092915050565b6004546000905b801561300b576001600160a01b0384166004612f85600184614015565b81548110612f9557612f95613959565b60009182526020909120600290910201546001600160a01b0316148015612fea57506004612fc4600183614015565b81548110612fd457612fd4613959565b9060005260206000209060020201600101546000145b15612ff9576000915050610d0c565b806130038161402c565b915050612f68565b50816130fa575b6004545b80156130e9576001600160a01b0384166004613033600184614015565b8154811061304357613043613959565b60009182526020909120600290910201546001600160a01b031614156130d7576130d16004613073600184614015565b8154811061308357613083613959565b60009182526020909120600290910201546001600160a01b031660046130aa600185614015565b815481106130ba576130ba613959565b9060005260206000209060020201600101546132e8565b506130e9565b806130e18161402c565b915050613016565b806130f457506131a2565b50613012565b6004545b80156131a0576001600160a01b038416600461311b600184614015565b8154811061312b5761312b613959565b60009182526020909120600290910201546001600160a01b031614801561317f575082600461315b600184614015565b8154811061316b5761316b613959565b906000526020600020906002020160010154145b1561318e576000915050610d0c565b806131988161402c565b9150506130fe565b505b604080518082019091526001600160a01b038481168252602082018481526004805460018101825560009190915292517f8a35acfbc15ff81a39ae7d344fd709f28e8600b4aa8c65c6b64bfe7fe36bd19b600290940293840180546001600160a01b0319169190931617909155517f8a35acfbc15ff81a39ae7d344fd709f28e8600b4aa8c65c6b64bfe7fe36bd19c9091015550600192915050565b6000546001600160a01b03163314610cca5760405162461bcd60e51b815260206004820152601f60248201527f416c6c6f77616e63653a2063616c6c6572206d757374206265204f776e6572006044820152606401610cc1565b600080546001600160a01b038381166001600160a01b0319831681178455604051919092169283917f8be0079c531659141344cd1fd0a4f28419497f9722a3daafe3b4186f6b6457e09190a35050565b600454600090815b8181101561237557846001600160a01b03166004828154811061331557613315613959565b60009182526020909120600290910201546001600160a01b031614801561335f5750836004828154811061334b5761334b613959565b906000526020600020906002020160010154145b156134325761336f600183614015565b8110156133ed576004613383600184614015565b8154811061339357613393613959565b9060005260206000209060020201600482815481106133b4576133b4613959565b60009182526020909120825460029092020180546001600160a01b0319166001600160a01b039092169190911781556001918201549101555b60048054806133fe576133fe6140fb565b60008281526020812060026000199093019283020180546001600160a01b0319168155600101559055600192505050610d0c565b8061343c816139c4565b9150506132f0565b6005546000905b80156134ae576001600160a01b0383166005613468600184614015565b8154811061347857613478613959565b6000918252602090912001546001600160a01b0316141561349c5750600092915050565b806134a68161402c565b91505061344b565b600580546001810182556000919091527f036b6384b5eca791c62761152d0c79bb0604c104a5fb6f4eb0703f3154bb3db00180546001600160a01b0319166001600160a01b03851617905550600192915050565b600061106073__BytesAndKeccakLib_____________________630de874ed85856040518363ffffffff1660e01b8152600401611657929190613ab8565b60006001600160a01b03831661355857506001610d0c565b73__Token_________________________________633646b54861357c8585612641565b6040518263ffffffff1660e01b81526004016129669190613a6c565b60075460009060ff16151582151514156135b457506000919050565b6007805460ff1916831515179055506001919050565b600554600090815b818110156120a257836001600160a01b0316600582815481106135f7576135f7613959565b6000918252602090912001546001600160a01b031614156136d95761361d600183614015565b81101561369c576005613631600184614015565b8154811061364157613641613959565b600091825260209091200154600580546001600160a01b03909216918390811061366d5761366d613959565b9060005260206000200160006101000a8154816001600160a01b0302191690836001600160a01b031602179055505b60058054806136ad576136ad6140fb565b600082815260209020810160001990810180546001600160a01b03191690550190555060019392505050565b806136e3816139c4565b9150506135d2565b6000806136f7836114d7565b6040516314130a7960e31b815273__BytesAndKeccakLib_____________________9163a09853c89161372d9190600401613c33565b6040805180830381865af4158015613749573d6000803e3d6000fd5b505050506040513d601f19601f82011682018060405250810190610e589190614111565b600654600090815b8181101561237557846001600160a01b03166006828154811061379a5761379a613959565b60009182526020909120600290910201546001600160a01b03161480156137e4575083600682815481106137d0576137d0613959565b906000526020600020906002020160010154145b15613883576137f4600183614015565b811015613872576006613808600184614015565b8154811061381857613818613959565b90600052602060002090600202016006828154811061383957613839613959565b60009182526020909120825460029092020180546001600160a01b0319166001600160a01b039092169190911781556001918201549101555b60068054806133fe576133fe6140fb565b8061388d816139c4565b915050613775565b8280546138a190613e36565b90600052602060002090601f0160209004810192826138c35760008555613909565b82601f106138dc57805160ff1916838001178555613909565b82800160010185558215613909579182015b828111156139095782518255916020019190600101906138ee565b50613915929150613919565b5090565b5b80821115613915576000815560010161391a565b8015158114612ab557600080fd5b60006020828403121561394e57600080fd5b81516110608161392e565b634e487b7160e01b600052603260045260246000fd5b60006020828403121561398157600080fd5b5051919050565b634e487b7160e01b600052602160045260246000fd5b8183823760009101908152919050565b634e487b7160e01b600052601160045260246000fd5b60006000198214156139d8576139d86139ae565b5060010190565b80356001600160e01b0319811681146114d257600080fd5b600060208284031215613a0957600080fd5b611060826139df565b6001600160a01b0381168114612ab557600080fd5b60008060408385031215613a3a57600080fd5b8235613a4581613a12565b946020939093013593505050565b600060208284031215613a6557600080fd5b5035919050565b815160000b81526020808301511515908201526040808301516001600160401b03169082015260608101610d0c565b600060208284031215613aad57600080fd5b813561106081613a12565b6001600160a01b03929092168252602082015260400190565b60005b83811015613aec578181015183820152602001613ad4565b83811115613afb576000848401525b50505050565b60008151808452613b19816020860160208601613ad1565b601f01601f19169290920160200192915050565b6020815260006110606020830184613b01565b634e487b7160e01b600052604160045260246000fd5b604051601f8201601f191681016001600160401b0381118282101715613b7e57613b7e613b40565b604052919050565b60006001600160401b03821115613b9f57613b9f613b40565b50601f01601f191660200190565b6000613bc0613bbb84613b86565b613b56565b9050828152838383011115613bd457600080fd5b828260208301376000602084830101529392505050565b600060208284031215613bfd57600080fd5b81356001600160401b03811115613c1357600080fd5b8201601f81018413613c2457600080fd5b610dc884823560208401613bad565b6020808252825182820181905260009190848201906040850190845b81811015613c6b57835183529284019291840191600101613c4f565b50909695505050505050565b60008060408385031215613c8a57600080fd5b823591506020830135613c9c81613a12565b809150509250929050565b60008060408385031215613cba57600080fd5b50508035926020909101359150565b6001600160401b0381168114612ab557600080fd5b60008060408385031215613cf157600080fd5b823591506020830135613c9c81613cc9565b60006001600160401b03821115613d1c57613d1c613b40565b5060051b60200190565b60006020808385031215613d3957600080fd5b82356001600160401b03811115613d4f57600080fd5b8301601f81018513613d6057600080fd5b8035613d6e613bbb82613d03565b81815260059190911b82018301908381019087831115613d8d57600080fd5b928401925b82841015613dab57833582529284019290840190613d92565b979650505050505050565b60008060408385031215613dc957600080fd5b82359150613dd9602084016139df565b90509250929050565b600060208284031215613df457600080fd5b81356110608161392e565b60208082526017908201527f43757272656e6379206e6f742072656769737465726564000000000000000000604082015260600190565b600181811c90821680613e4a57607f821691505b602082108114156113c157634e487b7160e01b600052602260045260246000fd5b60008251613e7d818460208701613ad1565b9190910192915050565b60006020808385031215613e9a57600080fd5b82516001600160401b03811115613eb057600080fd5b8301601f81018513613ec157600080fd5b8051613ecf613bbb82613d03565b81815260059190911b82018301908381019087831115613eee57600080fd5b928401925b82841015613dab57835182529284019290840190613ef3565b60008060408385031215613f1f57600080fd5b505080516020909101519092909150565b600060608284031215613f4257600080fd5b604051606081018181106001600160401b0382111715613f6457613f64613b40565b6040528251600081900b8114613f7957600080fd5b81526020830151613f898161392e565b60208201526040830151613f9c81613cc9565b60408201529392505050565b634e487b7160e01b600052600160045260246000fd5b6001600160a01b03851681526020810184905260c081016140046040830185805160000b82526020808201511515908301526040908101516001600160401b0316910152565b82151560a083015295945050505050565b600082821015614027576140276139ae565b500390565b60008161403b5761403b6139ae565b506000190190565b60006020828403121561405557600080fd5b815161106081613a12565b6000806040838503121561407357600080fd5b825191506020830151613c9c81613a12565b60006020828403121561409757600080fd5b81516001600160401b038111156140ad57600080fd5b8201601f810184136140be57600080fd5b80516140cc613bbb82613b86565b8181528560208385010111156140e157600080fd5b6140f2826020830160208601613ad1565b95945050505050565b634e487b7160e01b600052603160045260246000fd5b6000806040838503121561412457600080fd5b825161412f81613a12565b602093909301519294929350505056fe68747470733a2f2f6769746875622e636f6d2f5061747269636b416c706861432f646566692d7374616b652d7969656c642d62726f776e69652d66726565636f64652f626c6f622f6d61696e2f66726f6e745f656e642f7372632f646170702e706e673f7261773d74727565ad3228b676f7d3cd4284a5443f17f1962b36e491b30a40b2405849e597ba5fb568747470733a2f2f7261772e67697468756275736572636f6e74656e742e636f6d2f5061747269636b416c706861432f646566692d7374616b652d7969656c642d62726f776e69652d66726565636f64652f6d61696e2f66726f6e745f656e642f7372632f6574682e706e673f7261773d74727565a2646970667358221220131bf6a2bab60bbfc5fc21236ecf24a4a65abb34108a5ec102120f11f32e778e64736f6c634300080b0033","bytecodeSha1":"1c89c57b44e9297c4ecb08b16a10325a0aa6db19","type":"contract","abi":[{"inputs":[{"internalType":"bool","name":"MODETEST_","type":"bool"}],"stateMutability":"nonpayable","type":"constructor","name":"constructor"},{"anonymous":false,"inputs":[{"indexed":true,"internalType":"address","name":"previousOwner","type":"address"},{"indexed":true,"internalType":"address","name":"newOwner","type":"address"}],"name":"OwnershipTransferred","type":"event"},{"stateMutability":"nonpayable","type":"fallback"},{"inputs":[{"internalType":"address","name":"addr_","type":"address"},{"internalType":"uint256","name":"v_","type":"uint256"}],"name":"AddressUInt256","outputs":[{"internalType":"bytes32","name":"k_","type":"bytes32"}],"stateMutability":"nonpayable","type":"function"},{"inputs":[{"internalType":"bytes","name":"in_","type":"bytes"}],"name":"Bytes","outputs":[{"internalType":"bytes32","name":"k_","type":"bytes32"}],"stateMutability":"nonpayable","type":"function"},{"inputs":[{"internalType":"bytes32","name":"v_","type":"bytes32"},{"internalType":"address","name":"addr_","type":"address"}],"name":"Bytes32Address","outputs":[{"internalType":"bytes32","name":"k_","type":"bytes32"}],"stateMutability":"nonpayable","type":"function"},{"inputs":[{"internalType":"bytes32[]","name":"in_","type":"bytes32[]"}],"name":"Bytes32Array","outputs":[{"internalType":"bytes32","name":"k_","type":"bytes32"}],"stateMutability":"nonpayable","type":"function"},{"inputs":[{"internalType":"bytes32","name":"v1_","type":"bytes32"},{"internalType":"bytes32","name":"v2_","type":"bytes32"}],"name":"Bytes32Bytes32","outputs":[{"internalType":"bytes32","name":"k_","type":"bytes32"}],"stateMutability":"nonpayable","type":"function"},{"inputs":[],"name":"MODETEST","outputs":[{"internalType":"bool","name":"","type":"bool"}],"stateMutability":"view","type":"function"},{"inputs":[{"internalType":"string","name":"in_","type":"string"}],"name":"String","outputs":[{"internalType":"bytes32","name":"k_","type":"bytes32"}],"stateMutability":"nonpayable","type":"function"},{"inputs":[],"name":"_originalblock","outputs":[{"internalType":"uint256","name":"","type":"uint256"}],"stateMutability":"view","type":"function"},{"inputs":[{"internalType":"address","name":"bot_","type":"address"}],"name":"addOperator","outputs":[],"stateMutability":"nonpayable","type":"function"},{"inputs":[{"internalType":"address","name":"token","type":"address"},{"internalType":"uint256","name":"tokenId","type":"uint256"}],"name":"addTokenCertified","outputs":[{"internalType":"bool","name":"","type":"bool"}],"stateMutability":"nonpayable","type":"function"},{"inputs":[{"internalType":"address","name":"certifier_","type":"address"}],"name":"addTrustedCertifier","outputs":[{"internalType":"bool","name":"","type":"bool"}],"stateMutability":"nonpayable","type":"function"},{"inputs":[{"internalType":"contract IContractCertified","name":"contractAddr_","type":"address"},{"internalType":"uint256","name":"contractId_","type":"uint256"}],"name":"certify","outputs":[{"internalType":"bool","name":"","type":"bool"}],"stateMutability":"view","type":"function"},{"inputs":[{"internalType":"address","name":"addr_","type":"address"},{"internalType":"uint256","name":"id_","type":"uint256"}],"name":"currency","outputs":[{"internalType":"bytes32","name":"k_","type":"bytes32"}],"stateMutability":"nonpayable","type":"function"},{"inputs":[{"internalType":"bytes32","name":"k_","type":"bytes32"}],"name":"exists","outputs":[{"internalType":"bool","name":"","type":"bool"}],"stateMutability":"view","type":"function"},{"inputs":[{"internalType":"bytes32","name":"tokenhash_","type":"bytes32"}],"name":"existsCurrency","outputs":[{"internalType":"bool","name":"","type":"bool"}],"stateMutability":"view","type":"function"},{"inputs":[{"internalType":"address","name":"token_","type":"address"},{"internalType":"uint256","name":"tokenId_","type":"uint256"}],"name":"features","outputs":[{"internalType":"uint64","name":"","type":"uint64"}],"stateMutability":"view","type":"function"},{"inputs":[{"internalType":"bytes32","name":"tokenhash_","type":"bytes32"}],"name":"features","outputs":[{"internalType":"uint64","name":"","type":"uint64"}],"stateMutability":"view","type":"function"},{"inputs":[{"internalType":"address","name":"token_","type":"address"}],"name":"features","outputs":[{"internalType":"uint64","name":"","type":"uint64"}],"stateMutability":"view","type":"function"},{"inputs":[{"internalType":"bytes32","name":"hash_","type":"bytes32"}],"name":"get","outputs":[{"internalType":"address","name":"","type":"address"}],"stateMutability":"view","type":"function"},{"inputs":[{"internalType":"address","name":"token_","type":"address"}],"name":"granularity","outputs":[{"internalType":"uint256","name":"","type":"uint256"}],"stateMutability":"view","type":"function"},{"inputs":[{"internalType":"bytes32","name":"tokenhash_","type":"bytes32"}],"name":"granularity","outputs":[{"internalType":"uint256","name":"","type":"uint256"}],"stateMutability":"view","type":"function"},{"inputs":[{"internalType":"address","name":"token_","type":"address"},{"internalType":"uint256","name":"tokenId_","type":"uint256"}],"name":"granularity","outputs":[{"internalType":"uint256","name":"","type":"uint256"}],"stateMutability":"view","type":"function"},{"inputs":[{"internalType":"bytes32","name":"tokenhash_","type":"bytes32"},{"internalType":"uint64","name":"feature_","type":"uint64"}],"name":"hasFeature","outputs":[{"internalType":"bool","name":"","type":"bool"}],"stateMutability":"view","type":"function"},{"inputs":[{"internalType":"address","name":"token_","type":"address"},{"internalType":"uint256","name":"tokenId_","type":"uint256"}],"name":"image","outputs":[{"internalType":"string","name":"","type":"string"}],"stateMutability":"view","type":"function"},{"inputs":[{"internalType":"bytes32","name":"tokenhash_","type":"bytes32"}],"name":"image","outputs":[{"internalType":"string","name":"","type":"string"}],"stateMutability":"view","type":"function"},{"inputs":[{"internalType":"address","name":"token_","type":"address"}],"name":"image","outputs":[{"internalType":"string","name":"","type":"string"}],"stateMutability":"view","type":"function"},{"inputs":[{"internalType":"address","name":"caller_","type":"address"}],"name":"isContract","outputs":[{"internalType":"bool","name":"","type":"bool"}],"stateMutability":"view","type":"function"},{"inputs":[{"internalType":"address","name":"contractAddr_","type":"address"},{"internalType":"uint256","name":"contractId_","type":"uint256"}],"name":"isContractAllowed","outputs":[{"internalType":"bool","name":"","type":"bool"}],"stateMutability":"view","type":"function"},{"inputs":[{"internalType":"address","name":"contractAddr_","type":"address"},{"internalType":"uint256","name":"contractId_","type":"uint256"}],"name":"isContractCertified","outputs":[{"internalType":"bool","name":"","type":"bool"}],"stateMutability":"view","type":"function"},{"inputs":[{"internalType":"address","name":"contractAddr_","type":"address"},{"internalType":"uint256","name":"contractId_","type":"uint256"}],"name":"isContractForbidden","outputs":[{"internalType":"bool","name":"","type":"bool"}],"stateMutability":"view","type":"function"},{"inputs":[],"name":"isContractForbiddenUnknown","outputs":[{"internalType":"bool","name":"","type":"bool"}],"stateMutability":"view","type":"function"},{"inputs":[{"internalType":"bytes32","name":"tokenhash_","type":"bytes32"},{"internalType":"uint64","name":"type_","type":"uint64"}],"name":"isFeatureType","outputs":[{"internalType":"bool","name":"","type":"bool"}],"stateMutability":"view","type":"function"},{"inputs":[{"internalType":"address","name":"caller_","type":"address"}],"name":"isOperator","outputs":[{"internalType":"bool","name":"","type":"bool"}],"stateMutability":"view","type":"function"},{"inputs":[{"internalType":"address","name":"caller_","type":"address"}],"name":"isOwner","outputs":[{"internalType":"bool","name":"","type":"bool"}],"stateMutability":"view","type":"function"},{"inputs":[{"internalType":"address","name":"certifier_","type":"address"}],"name":"isTrustedCertifier","outputs":[{"internalType":"bool","name":"","type":"bool"}],"stateMutability":"view","type":"function"},{"inputs":[{"internalType":"address","name":"token_","type":"address"},{"internalType":"uint256","name":"tokenId_","type":"uint256"}],"name":"nft","outputs":[{"internalType":"bool","name":"","type":"bool"}],"stateMutability":"view","type":"function"},{"inputs":[{"internalType":"address","name":"token_","type":"address"}],"name":"nft","outputs":[{"internalType":"bool","name":"","type":"bool"}],"stateMutability":"view","type":"function"},{"inputs":[{"internalType":"bytes32","name":"tokenhash_","type":"bytes32"}],"name":"nft","outputs":[{"internalType":"bool","name":"","type":"bool"}],"stateMutability":"view","type":"function"},{"inputs":[],"name":"owner","outputs":[{"internalType":"address","name":"","type":"address"}],"stateMutability":"view","type":"function"},{"inputs":[{"internalType":"address","name":"addr_","type":"address"},{"internalType":"uint256","name":"id_","type":"uint256"}],"name":"pureCurrency","outputs":[{"internalType":"bytes32","name":"k_","type":"bytes32"}],"stateMutability":"pure","type":"function"},{"inputs":[{"internalType":"address","name":"bot_","type":"address"}],"name":"removeOperator","outputs":[],"stateMutability":"nonpayable","type":"function"},{"inputs":[{"internalType":"address","name":"token","type":"address"},{"internalType":"uint256","name":"tokenId","type":"uint256"}],"name":"removeTokenCertified","outputs":[{"internalType":"bool","name":"","type":"bool"}],"stateMutability":"nonpayable","type":"function"},{"inputs":[{"internalType":"address","name":"certifier_","type":"address"}],"name":"removeTrustedCertifier","outputs":[{"internalType":"bool","name":"","type":"bool"}],"stateMutability":"nonpayable","type":"function"},{"inputs":[],"name":"renounceOwnership","outputs":[],"stateMutability":"nonpayable","type":"function"},{"inputs":[{"internalType":"bytes32","name":"k_","type":"bytes32"}],"name":"resolveAddressUInt256","outputs":[{"internalType":"address","name":"addr_","type":"address"},{"internalType":"uint256","name":"v_","type":"uint256"}],"stateMutability":"view","type":"function"},{"inputs":[{"internalType":"bytes32","name":"k_","type":"bytes32"}],"name":"resolveBytes","outputs":[{"internalType":"bytes","name":"out_","type":"bytes"}],"stateMutability":"view","type":"function"},{"inputs":[{"internalType":"bytes32","name":"k_","type":"bytes32"}],"name":"resolveBytes32Address","outputs":[{"internalType":"bytes32","name":"v_","type":"bytes32"},{"internalType":"address","name":"addr_","type":"address"}],"stateMutability":"view","type":"function"},{"inputs":[{"internalType":"bytes32","name":"k_","type":"bytes32"}],"name":"resolveBytes32Array","outputs":[{"internalType":"bytes32[]","name":"out_","type":"bytes32[]"}],"stateMutability":"view","type":"function"},{"inputs":[{"internalType":"bytes32","name":"k_","type":"bytes32"}],"name":"resolveBytes32Bytes32","outputs":[{"internalType":"bytes32","name":"v1_","type":"bytes32"},{"internalType":"bytes32","name":"v2_","type":"bytes32"}],"stateMutability":"view","type":"function"},{"inputs":[{"internalType":"bytes32","name":"tokenhash_","type":"bytes32"}],"name":"resolveCurrency","outputs":[{"internalType":"address","name":"addr","type":"address"},{"internalType":"uint256","name":"id","type":"uint256"}],"stateMutability":"view","type":"function"},{"inputs":[{"internalType":"bytes32","name":"tokenhash_","type":"bytes32"}],"name":"resolveCurrencyAddr","outputs":[{"internalType":"address","name":"","type":"address"}],"stateMutability":"view","type":"function"},{"inputs":[{"internalType":"bytes32","name":"k_","type":"bytes32"}],"name":"resolveString","outputs":[{"internalType":"string","name":"out_","type":"string"}],"stateMutability":"view","type":"function"},{"inputs":[{"internalType":"address","name":"addr_","type":"address"},{"internalType":"uint256","name":"id_","type":"uint256"}],"name":"roCurrency","outputs":[{"internalType":"bytes32","name":"k_","type":"bytes32"}],"stateMutability":"view","type":"function"},{"inputs":[{"internalType":"contract IRepositoryContract","name":"contract_","type":"address"}],"name":"setContract","outputs":[],"stateMutability":"nonpayable","type":"function"},{"inputs":[{"internalType":"bytes4","name":"interfaceId","type":"bytes4"}],"name":"supportsInterface","outputs":[{"internalType":"bool","name":"","type":"bool"}],"stateMutability":"view","type":"function"},{"inputs":[{"internalType":"bytes32","name":"tokenhash_","type":"bytes32"},{"internalType":"bytes4","name":"interfaceId","type":"bytes4"}],"name":"supportsInterface","outputs":[{"internalType":"bool","name":"","type":"bool"}],"stateMutability":"view","type":"function"},{"inputs":[{"internalType":"address","name":"token_","type":"address"},{"internalType":"uint256","name":"tokenid_","type":"uint256"}],"name":"token","outputs":[],"stateMutability":"nonpayable","type":"function"},{"inputs":[{"internalType":"address","name":"token","type":"address"},{"internalType":"uint256","name":"tokenId","type":"uint256"}],"name":"tokenForbiddenAdd","outputs":[{"internalType":"bool","name":"","type":"bool"}],"stateMutability":"nonpayable","type":"function"},{"inputs":[{"internalType":"address","name":"token","type":"address"},{"internalType":"uint256","name":"tokenId","type":"uint256"}],"name":"tokenForbiddenRemove","outputs":[{"internalType":"bool","name":"","type":"bool"}],"stateMutability":"nonpayable","type":"function"},{"inputs":[{"internalType":"bool","name":"forbiddenunknown_","type":"bool"}],"name":"tokenForbiddenUnknownSet","outputs":[{"internalType":"bool","name":"","type":"bool"}],"stateMutability":"nonpayable","type":"function"},{"inputs":[{"internalType":"bytes32","name":"tokenhash_","type":"bytes32"}],"name":"tokenInfo","outputs":[{"components":[{"internalType":"int8","name":"granularity","type":"int8"},{"internalType":"bool","name":"nft","type":"bool"},{"internalType":"uint64","name":"features","type":"uint64"}],"internalType":"struct Token.Info","name":"","type":"tuple"}],"stateMutability":"view","type":"function"},{"inputs":[{"internalType":"address","name":"token_","type":"address"},{"internalType":"uint256","name":"tokenId_","type":"uint256"}],"name":"tokenInfo","outputs":[{"components":[{"internalType":"int8","name":"granularity","type":"int8"},{"internalType":"bool","name":"nft","type":"bool"},{"internalType":"uint64","name":"features","type":"uint64"}],"internalType":"struct Token.Info","name":"out_","type":"tuple"}],"stateMutability":"view","type":"function"},{"inputs":[{"internalType":"address","name":"token_","type":"address"}],"name":"tokenInfo","outputs":[{"components":[{"internalType":"int8","name":"granularity","type":"int8"},{"internalType":"bool","name":"nft","type":"bool"},{"internalType":"uint64","name":"features","type":"uint64"}],"internalType":"struct Token.Info","name":"out_","type":"tuple"}],"stateMutability":"view","type":"function"},{"inputs":[{"internalType":"address","name":"newOwner","type":"address"}],"name":"transferOwnership","outputs":[],"stateMutability":"nonpayable","type":"function"}],"compiler":{"version":"0.8.11+commit.d7f03943","evm_version":"istanbul","optimizer":{"enabled":true,"runs":200}},"contractName":"Repository","deployedBytecode":"608060405234801561001057600080fd5b50600436106103d05760003560e01c806381b2490b116101ff578063ad10a1351161011a578063c9c2a940116100ad578063e50d1b3e1161007c578063e50d1b3e14610bfa578063e855a31314610c0d578063f2fde38b14610c20578063f5dab71114610c33576103d0565b8063c9c2a94014610bae578063d47a7edd14610bc1578063d4945d0e14610bd4578063dbf5f2fd14610be7576103d0565b8063bb7d88a9116100e9578063bb7d88a914610b62578063c33470d314610b75578063c452e6b614610b88578063c5537eb714610b9b576103d0565b8063ad10a13514610af9578063af91558514610b0c578063b305438314610b3c578063b72a4a7114610b4f576103d0565b80639e9bb9c111610192578063a9d4632611610161578063a9d4632614610aad578063ababadb514610ac0578063ac8a584a14610ad3578063ad0fc0cc14610ae6576103d0565b80639e9bb9c114610a61578063a663d4f514610a74578063a86eeb9114610a87578063a9bf985814610a9a576103d0565b80638da5cb5b116101ce5780638da5cb5b14610a015780638eaa6ac014610a1257806395b5d58414610a3b5780639870d7fe14610a4e576103d0565b806381b2490b146109bd57806383350075146109d057806389765f59146109db5780638d49d89b146109ee576103d0565b806338a699a4116102ef5780635b62cb70116102825780636d70f7ae116102515780636d70f7ae1461097a5780636f4576831461098d578063715018a6146109a257806375f890ab146109aa576103d0565b80635b62cb701461091957806361e99ffb1461092c578063657c7e091461093f57806367c51dfc14610967576103d0565b8063509ff69b116102be578063509ff69b146108cd578063552cdf98146108e05780635768bbb5146108f3578063589e6a9814610906576103d0565b806338a699a4146108805780634329598c146107805780634635229b146108935780634f79b792146108ba576103d0565b8063162790551161036757806324ace6721161033657806324ace672146108045780632558a0791461081757806327ee9dc21461083e5780632f54bf6e1461085e576103d0565b806316279055146107a0578063184bc906146107b357806318d54cf3146107de5780631d7a3b72146107f1576103d0565b806307d61085116103a357806307d61085146107395780630ea94b961461074c578063120f6ee31461076d57806312cae67b14610780576103d0565b806301ffc9a7146106a55780630221c7de146106cd57806303565ea1146106f8578063036995df14610718575b6103d8610c46565b60405163825998c160e01b8152600d60048201526000356001600160e01b031916602482015273__$f71e59c5327218924d154e230469c101bd$__9063825998c190604401602060405180830381865af415801561043a573d6000803e3d6000fd5b505050506040513d601f19601f8201168201806040525081019061045e919061393c565b5060005b600a548110156106a257336001600160a01b0316600a828154811061048957610489613959565b6000918252602090912001546001600160a01b031614156104a957610690565b6000600a82815481106104be576104be613959565b600091825260209182902001546040805163af640d0f60e01b815290516001600160a01b039092169263af640d0f926004808401938290030181865afa15801561050c573d6000803e3d6000fd5b505050506040513d601f19601f82011682018060405250810190610530919061396f565b905060016000828152600c602090815260408083206001600160e01b0319843516845290915290205460ff16600281111561056d5761056d613988565b14156105795750610690565b6000600a838154811061058e5761058e613959565b60009182526020822001546040516001600160a01b03909116916105b391369061399e565b6000604051808303816000865af19150503d80600081146105f0576040519150601f19603f3d011682016040523d82523d6000602084013e6105f5565b606091505b50506000838152600c6020908152604080832083356001600160e01b03191684529091528120549192509060ff16600281111561063457610634613988565b141561068d5780610646576001610649565b60025b6000838152600c602090815260408083206001600160e01b031984351684529091529020805460ff1916600183600281111561068757610687613988565b02179055505b50505b8061069a816139c4565b915050610462565b50005b6106b86106b33660046139f7565b610ccc565b60405190151581526020015b60405180910390f35b6106e06106db366004613a27565b610d12565b6040516001600160401b0390911681526020016106c4565b61070b610706366004613a53565b610d3f565b6040516106c49190613a6c565b61072b610726366004613a9b565b610dd0565b6040519081526020016106c4565b6106b8610747366004613a53565b610ddd565b61075f61075a366004613a53565b610e06565b6040516106c4929190613ab8565b6106e061077b366004613a53565b610e61565b61079361078e366004613a53565b610eb3565b6040516106c49190613b2d565b6106b86107ae366004613a9b565b610f55565b6107c66107c1366004613a53565b610ff4565b6040516001600160a01b0390911681526020016106c4565b6106b86107ec366004613a27565b61104c565b6107936107ff366004613a27565b611067565b61072b610812366004613beb565b611375565b61072b7f000000000000000000000000000000000000000000000000000000000000000081565b61085161084c366004613a53565b6114d7565b6040516106c49190613c33565b6106b861086c366004613a9b565b6000546001600160a01b0391821691161490565b6106b861088e366004613a53565b61155d565b6106b87f000000000000000000000000000000000000000000000000000000000000000081565b61072b6108c8366004613a27565b611568565b61072b6108db366004613a27565b61159b565b6106b86108ee366004613a27565b6115e0565b61072b610901366004613c77565b61160d565b61072b610914366004613beb565b61169c565b6106b8610927366004613a9b565b6116a7565b61072b61093a366004613ca7565b6116b2565b61095261094d366004613a53565b6116f8565b604080519283526020830191909152016106c4565b6106b8610975366004613a27565b61177a565b6106b8610988366004613a9b565b61178e565b6109a061099b366004613a27565b6117f0565b005b6109a0611c8c565b6109a06109b8366004613a9b565b611c9e565b6106b86109cb366004613a27565b611f77565b60075460ff166106b8565b6106b86109e9366004613a27565b6120ac565b6106e06109fc366004613a9b565b6120c0565b6000546001600160a01b03166107c6565b6107c6610a20366004613a53565b6000908152600960205260409020546001600160a01b031690565b6106b8610a49366004613a9b565b6120cd565b6109a0610a5c366004613a9b565b6120e0565b610793610a6f366004613a53565b612170565b6106b8610a82366004613cde565b6121d9565b61072b610a95366004613a27565b612203565b61072b610aa8366004613a53565b61220f565b610793610abb366004613a9b565b612261565b6106b8610ace366004613a27565b61226e565b6109a0610ae1366004613a9b565b612380565b6106b8610af4366004613a27565b6123cf565b6106b8610b07366004613a27565b6124f2565b610b1f610b1a366004613a53565b612530565b604080519283526001600160a01b039091166020830152016106c4565b61072b610b4a366004613d26565b6125b2565b61072b610b5d366004613a27565b612635565b61070b610b70366004613a27565b612641565b6106b8610b83366004613db6565b612839565b6106b8610b96366004613a9b565b6128d0565b6106b8610ba9366004613cde565b6128dd565b61072b610bbc366004613a27565b6128fc565b6106b8610bcf366004613a53565b6129a7565b6106b8610be2366004613de2565b6129f9565b6106b8610bf5366004613a9b565b612a0c565b61075f610c08366004613a53565b612a1f565b6106b8610c1b366004613a27565b612a2b565b6109a0610c2e366004613a9b565b612a3f565b61070b610c41366004613a9b565b612ab8565b6000546001600160a01b0316331480610c635750610c6333610f55565b610cca5760405162461bcd60e51b815260206004820152602d60248201527f416c6c6f77616e63653a2063616c6c6572206d757374206265205265706f736960448201526c1d1bdc9e4810dbdb9d1c9858dd609a1b60648201526084015b60405180910390fd5b565b60006001600160e01b031982166301ffc9a760e01b1480610cfd57506305b62cb760e41b6001600160e01b03198316145b80610d0c5750610d0c82612ae0565b92915050565b60006001600160a01b038316610d2a57506001610d0c565b610d348383612641565b604001519392505050565b60408051606081018252600080825260208201819052918101919091526000805160206141ac833981519152821415610d7d57610d0c600080612641565b610d8682610ddd565b610dae5750506040805160608101825260111981526000602082018190529181019190915290565b600080610dba84610e06565b91509150610dc88282612641565b949350505050565b6000610d0c826000612635565b60006000805160206141ac833981519152821415610dfd57506001919050565b610d0c8261155d565b6000806000805160206141ac833981519152831415610e2a57506000928392509050565b610e338361155d565b610e4f5760405162461bcd60e51b8152600401610cc190613dff565b610e5883612a1f565b91509150915091565b60006000805160206141ac833981519152821415610e8457610d0c600080610d12565b610e8d82610ddd565b610e9957506000919050565b600080610ea584610e06565b91509150610dc88282610d12565b6000818152600860205260409020805460609190610ed090613e36565b80601f0160208091040260200160405190810160405280929190818152602001828054610efc90613e36565b8015610f495780601f10610f1e57610100808354040283529160200191610f49565b820191906000526020600020905b815481529060010190602001808311610f2c57829003601f168201915b50505050509050919050565b60006001600160a01b038216301415610f7057506001919050565b60405163f132566360e01b8152600a60048201526001600160a01b038316602482015273__$f71e59c5327218924d154e230469c101bd$__9063f1325663906044015b602060405180830381865af4158015610fd0573d6000803e3d6000fd5b505050506040513d601f19601f82011682018060405250810190610d0c919061393c565b60006000805160206141ac83398151915282141561101457506000919050565b61101d8261155d565b6110395760405162461bcd60e51b8152600401610cc190613dff565b600061104483612a1f565b509392505050565b6000611056612b16565b6110608383612b95565b9392505050565b60606001600160a01b038316611097576040518060a00160405280607581526020016141cc607591399050610d0c565b60006001600073__$669c6e0eba2465bd6779ea6ec5db3af1b5$__63d5f0b04d87876040518363ffffffff1660e01b81526004016110d6929190613ab8565b602060405180830381865af41580156110f3573d6000803e3d6000fd5b505050506040513d601f19601f82011682018060405250810190611117919061396f565b8152602001908152602001600020805461113090613e36565b80601f016020809104026020016040519081016040528092919081815260200182805461115c90613e36565b80156111a95780601f1061117e576101008083540402835291602001916111a9565b820191906000526020600020905b81548152906001019060200180831161118c57829003601f168201915b5050604080516000815260208101808352815190209596506111d19450869350019050613e6b565b60405160208183030381529060405280519060200120146111f3579050610d0c565b8215611354576001600073__$669c6e0eba2465bd6779ea6ec5db3af1b5$__63d5f0b04d8760006040518363ffffffff1660e01b8152600401611237929190613ab8565b602060405180830381865af4158015611254573d6000803e3d6000fd5b505050506040513d601f19601f82011682018060405250810190611278919061396f565b8152602001908152602001600020805461129190613e36565b80601f01602080910402602001604051908101604052809291908181526020018280546112bd90613e36565b801561130a5780601f106112df5761010080835404028352916020019161130a565b820191906000526020600020905b8154815290600101906020018083116112ed57829003601f168201915b5050604080516000815260208101808352815190209596506113329450869350019050613e6b565b6040516020818303038152906040528051906020012014611354579050610d0c565b6040518060a00160405280606c8152602001614140606c9139949350505050565b8051602080830191909120600081815260089092526040909120805461139a90613e36565b151590506113c757600081815260086020908152604090912083516113c192850190613895565b50919050565b6000818152600860205260409020805461146991906113e590613e36565b80601f016020809104026020016040519081016040528092919081815260200182805461141190613e36565b801561145e5780601f106114335761010080835404028352916020019161145e565b820191906000526020600020905b81548152906001019060200180831161144157829003601f168201915b505050505083612e22565b6114d25760405162461bcd60e51b815260206004820152603460248201527f4b656363616b496e766572746572204279746573206b656363616b2069736e7460448201527320756e697175652021212121212121212121212160601b6064820152608401610cc1565b919050565b60606114e282610eb3565b6040516355b04b0d60e11b815273__$669c6e0eba2465bd6779ea6ec5db3af1b5$__9163ab60961a916115189190600401613b2d565b600060405180830381865af4158015611535573d6000803e3d6000fd5b505050506040513d6000823e601f3d908101601f19168201604052610d0c9190810190613e87565b6000610d0c82612eb4565b600061157483836128fc565b905061157f8161155d565b610d0c5760405162461bcd60e51b8152600401610cc190613dff565b60006001600160a01b0383161580156115b2575081155b156115cc57506000805160206141ac833981519152610d0c565b6115d683836117f0565b6110608383612203565b60006001600160a01b0383166115f857506000610d0c565b6116028383612641565b602001519392505050565b6040516318f7a7c360e21b8152600481018390526001600160a01b03821660248201526000906110609073__$669c6e0eba2465bd6779ea6ec5db3af1b5$__906363de9f0c906044015b600060405180830381865af4158015611674573d6000803e3d6000fd5b505050506040513d6000823e601f3d908101601f19168201604052610b4a9190810190613e87565b6000610d0c82611375565b6000610d0c82612ed6565b604051632291b3f160e21b815260048101839052602481018290526000906110609073__$669c6e0eba2465bd6779ea6ec5db3af1b5$__90638a46cfc490604401611657565b600080611704836114d7565b60405163029695c360e21b815273__$669c6e0eba2465bd6779ea6ec5db3af1b5$__91630a5a570c9161173a9190600401613c33565b6040805180830381865af4158015611756573d6000803e3d6000fd5b505050506040513d601f19601f82011682018060405250810190610e589190613f0c565b6000611784612b16565b6110608383612f61565b60006001600160a01b0382163014156117a957506001919050565b60405163f132566360e01b8152600b60048201526001600160a01b038316602482015273__$f71e59c5327218924d154e230469c101bd$__9063f132566390604401610fb3565b60008073__$669c6e0eba2465bd6779ea6ec5db3af1b5$__63d5f0b04d8560006040518363ffffffff1660e01b815260040161182d929190613ab8565b602060405180830381865af415801561184a573d6000803e3d6000fd5b505050506040513d601f19601f8201168201806040525081019061186e919061396f565b600081815260036020526040902080549093509091506201000090046001600160401b0316611a0057604051634dd11f0f60e11b81526001600160a01b0385166004820152600060248201526001604482015273__$cc6df4ca04d157c820770f5225eff0121b$__90639ba23e1e90606401606060405180830381865af41580156118fd573d6000803e3d6000fd5b505050506040513d601f19601f820116820180604052508101906119219190613f30565b6000828152600360209081526040918290208351815492850151948401516001600160401b0316620100000269ffffffffffffffff0000199515156101000261ffff1990941660ff90921691909117929092179390931617909155516316061a7160e21b815273__$f71e59c5327218924d154e230469c101bd$__9063581869c4906119bd906002908590600401918252602082015260400190565b602060405180830381865af41580156119da573d6000803e3d6000fd5b505050506040513d601f19601f820116820180604052508101906119fe919061393c565b505b81546201000090046001600160401b0316611a1d57611a1d613fa8565b815462010000900461010016611a335750505050565b604080516060810182528354600081900b8252610100810460ff16151560208301526201000090046001600160401b031681830152905163d5f0b04d60e01b815273__$669c6e0eba2465bd6779ea6ec5db3af1b5$__9063d5f0b04d90611aa09088908890600401613ab8565b602060405180830381865af4158015611abd573d6000803e3d6000fd5b505050506040513d601f19601f82011682018060405250810190611ae1919061396f565b600081815260036020526040902080549094509092506201000090046001600160401b0316611c685760405163543af62760e01b815273__$cc6df4ca04d157c820770f5225eff0121b$__9063543af62790611b4890889088908690600190600401613fbe565b606060405180830381865af4158015611b65573d6000803e3d6000fd5b505050506040513d601f19601f82011682018060405250810190611b899190613f30565b6000838152600360209081526040918290208351815492850151948401516001600160401b0316620100000269ffffffffffffffff0000199515156101000261ffff1990941660ff90921691909117929092179390931617909155516316061a7160e21b815273__$f71e59c5327218924d154e230469c101bd$__9063581869c490611c25906002908690600401918252602082015260400190565b602060405180830381865af4158015611c42573d6000803e3d6000fd5b505050506040513d601f19601f82011682018060405250810190611c66919061393c565b505b82546201000090046001600160401b0316611c8557611c85613fa8565b5050505050565b611c9461323e565b610cca6000613298565b611ca6612b16565b6040516301ffc9a760e01b81526315d3789560e31b60048201526001600160a01b038216906301ffc9a790602401602060405180830381865afa158015611cf1573d6000803e3d6000fd5b505050506040513d601f19601f82011682018060405250810190611d15919061393c565b611d6d5760405162461bcd60e51b8152602060048201526024808201527f636f6e7472616374206d75737420626520495265706f7369746f7279436f6e746044820152631c9858dd60e21b6064820152608401610cc1565b60005b600d54811015611e5657600c6000836001600160a01b031663af640d0f6040518163ffffffff1660e01b8152600401602060405180830381865afa158015611dbc573d6000803e3d6000fd5b505050506040513d601f19601f82011682018060405250810190611de0919061396f565b81526020019081526020016000206000600d8381548110611e0357611e03613959565b6000918252602080832060088304015460079092166004026101000a90910460e01b6001600160e01b03191683528201929092526040019020805460ff1916905580611e4e816139c4565b915050611d70565b506040516316f4b92960e21b8152600a60048201526001600160a01b038216602482015273__$f71e59c5327218924d154e230469c101bd$__90635bd2e4a490604401602060405180830381865af4158015611eb6573d6000803e3d6000fd5b505050506040513d601f19601f82011682018060405250810190611eda919061393c565b508060096000836001600160a01b031663af640d0f6040518163ffffffff1660e01b8152600401602060405180830381865afa158015611f1e573d6000803e3d6000fd5b505050506040513d601f19601f82011682018060405250810190611f42919061396f565b815260200190815260200160002060006101000a8154816001600160a01b0302191690836001600160a01b0316021790555050565b6004546000905b80156120a2576001600160a01b0384166004611f9b600184614015565b81548110611fab57611fab613959565b60009182526020909120600290910201546001600160a01b031614801561200057506004611fda600183614015565b81548110611fea57611fea613959565b9060005260206000209060020201600101546000145b8061208157506001600160a01b038416600461201d600184614015565b8154811061202d5761202d613959565b60009182526020909120600290910201546001600160a01b0316148015612081575082600461205d600184614015565b8154811061206d5761206d613959565b906000526020600020906002020160010154145b15612090576001915050610d0c565b8061209a8161402c565b915050611f7e565b5060009392505050565b60006120b6612b16565b61106083836132e8565b6000610d0c826000610d12565b60006120d7612b16565b610d0c82613444565b6120e8612b16565b6040516316f4b92960e21b8152600b60048201526001600160a01b038216602482015273__$f71e59c5327218924d154e230469c101bd$__90635bd2e4a4906044015b602060405180830381865af4158015612148573d6000803e3d6000fd5b505050506040513d601f19601f8201168201806040525081019061216c919061393c565b5050565b60606000805160206141ac83398151915282141561219357610d0c600080611067565b61219c82610ddd565b6121bf576040518060a00160405280606c8152602001614140606c913992915050565b6000806121cb84610e06565b91509150610dc88282611067565b6000816001600160401b031660ff6121f085610e61565b166001600160401b031614905092915050565b60006110608383613502565b60006000805160206141ac83398151915282141561223257610d0c600080612635565b61223b82610ddd565b61224757506001919050565b60008061225384610e06565b91509150610dc88282612635565b6060610d0c826000611067565b600654600090815b8181101561237557846001600160a01b03166006828154811061229b5761229b613959565b60009182526020909120600290910201546001600160a01b03161480156122e65750600681815481106122d0576122d0613959565b9060005260206000209060020201600101546000145b806123535750846001600160a01b03166006828154811061230957612309613959565b60009182526020909120600290910201546001600160a01b03161480156123535750836006828154811061233f5761233f613959565b906000526020600020906002020160010154145b1561236357600192505050610d0c565b8061236d816139c4565b915050612276565b506000949350505050565b612388612b16565b60405163edefe12d60e01b8152600b60048201526001600160a01b038216602482015273__$f71e59c5327218924d154e230469c101bd$__9063edefe12d9060440161212b565b60006123dc836000611f77565b156123e957506001610d0c565b8115612406576123f98383611f77565b1561240657506001610d0c565b6000836001600160a01b031663373a7fb46040518163ffffffff1660e01b8152600401602060405180830381865afa158015612446573d6000803e3d6000fd5b505050506040513d601f19601f8201168201806040525081019061246a9190614043565b9050612475816116a7565b612483576000915050610d0c565b604051632b43f03360e21b81526001600160a01b0382169063ad0fc0cc906124b19087908790600401613ab8565b602060405180830381865afa1580156124ce573d6000803e3d6000fd5b505050506040513d601f19601f82011682018060405250810190610dc8919061393c565b60006124fe838361226e565b1561250b57506000610d0c565b6125158383611f77565b1561252257506001610d0c565b60075460ff16159392505050565b60008061253c836114d7565b604051639ac1b34560e01b815273__$669c6e0eba2465bd6779ea6ec5db3af1b5$__91639ac1b345916125729190600401613c33565b6040805180830381865af415801561258e573d6000803e3d6000fd5b505050506040513d601f19601f82011682018060405250810190610e589190614060565b604051632431a7cf60e01b8152600090610d0c9073__$669c6e0eba2465bd6779ea6ec5db3af1b5$__90632431a7cf906125f0908690600401613c33565b600060405180830381865af415801561260d573d6000803e3d6000fd5b505050506040513d6000823e601f3d908101601f191682016040526108129190810190614085565b60006110608383613540565b60408051606081018252600080825260208201819052918101919091526001600160a01b038316612691575060408051606081018252601119815260006020820152600191810191909152610d0c565b6003600073__$669c6e0eba2465bd6779ea6ec5db3af1b5$__63d5f0b04d8660006040518363ffffffff1660e01b81526004016126cf929190613ab8565b602060405180830381865af41580156126ec573d6000803e3d6000fd5b505050506040513d601f19601f82011682018060405250810190612710919061396f565b815260208082019290925260409081016000908120825160608101845290549182900b815261010080830460ff16151594820194909452620100009091046001600160401b0381169282019290925292501661276b57610d0c565b6003600073__$669c6e0eba2465bd6779ea6ec5db3af1b5$__63d5f0b04d86866040518363ffffffff1660e01b81526004016127a8929190613ab8565b602060405180830381865af41580156127c5573d6000803e3d6000fd5b505050506040513d601f19601f820116820180604052508101906127e9919061396f565b815260208082019290925260409081016000908120825160608101845290549182900b8152610100820460ff161515938101939093526201000090046001600160401b0316908201529392505050565b6000612847836102006128dd565b61285357506000610d0c565b61285c83610ff4565b6040516301ffc9a760e01b81526001600160e01b0319841660048201526001600160a01b0391909116906301ffc9a790602401602060405180830381865afa1580156128ac573d6000803e3d6000fd5b505050506040513d601f19601f82011682018060405250810190611060919061393c565b6000610d0c8260006115e0565b6000816128e984610e61565b166001600160401b031615159392505050565b60006001600160a01b038316158015612913575081155b1561292d57506000805160206141ac833981519152610d0c565b60405163d5f0b04d60e01b815273__$669c6e0eba2465bd6779ea6ec5db3af1b5$__9063d5f0b04d906129669086908690600401613ab8565b602060405180830381865af4158015612983573d6000803e3d6000fd5b505050506040513d601f19601f82011682018060405250810190611060919061396f565b60006000805160206141ac8339815191528214156129ca57610d0c6000806115e0565b6129d382610ddd565b6129df57506000919050565b6000806129eb84610e06565b91509150610dc882826115e0565b6000612a03612b16565b610d0c82613598565b6000612a16612b16565b610d0c826135ca565b600080610e58836136eb565b6000612a35612b16565b611060838361376d565b612a4761323e565b6001600160a01b038116612aac5760405162461bcd60e51b815260206004820152602660248201527f4f776e61626c653a206e6577206f776e657220697320746865207a65726f206160448201526564647265737360d01b6064820152608401610cc1565b612ab581613298565b50565b6040805160608101825260008082526020820181905291810191909152610d0c826000612641565b60006001600160e01b031982166301ffc9a760e01b1480610d0c57506001600160e01b03198216632b43f03360e21b1492915050565b6000546001600160a01b0316331480612b335750612b333361178e565b610cca5760405162461bcd60e51b815260206004820152602d60248201527f416c6c6f77616e63653a2063616c6c6572206d757374206265205265706f736960448201526c3a37b93c9027b832b930ba37b960991b6064820152608401610cc1565b600654600090815b81811015612c2f57846001600160a01b031660068281548110612bc257612bc2613959565b60009182526020909120600290910201546001600160a01b0316148015612c0d575060068181548110612bf757612bf7613959565b9060005260206000209060020201600101546000145b15612c1d57600092505050610d0c565b80612c27816139c4565b915050612b9d565b5082612cef5760001981015b81811015612ce957846001600160a01b031660068281548110612c6057612c60613959565b60009182526020909120600290910201546001600160a01b03161415612ce057612cde60068281548110612c9657612c96613959565b6000918252602090912060029091020154600680546001600160a01b039092169184908110612cc757612cc7613959565b90600052602060002090600202016001015461376d565b505b60001901612c3b565b50612d85565b60005b81811015612d8357846001600160a01b031660068281548110612d1757612d17613959565b60009182526020909120600290910201546001600160a01b0316148015612d6157508360068281548110612d4d57612d4d613959565b906000526020600020906002020160010154145b15612d7157600092505050610d0c565b80612d7b816139c4565b915050612cf2565b505b604080518082019091526001600160a01b038581168252602082018581526006805460018101825560009190915292517ff652222313e28459528d920b65115c16c04f3efc82aaedc97be59f3f377c0d3f600290940293840180546001600160a01b0319169190931617909155517ff652222313e28459528d920b65115c16c04f3efc82aaedc97be59f3f377c0d40909101555060019392505050565b60008151835114612e3557506000610d0c565b60005b8351811015612eaa57828181518110612e5357612e53613959565b602001015160f81c60f81b6001600160f81b031916848281518110612e7a57612e7a613959565b01602001516001600160f81b03191614612e98576000915050610d0c565b80612ea2816139c4565b915050612e38565b5060019392505050565b60008181526008602052604081208054612ecd90613e36565b15159392505050565b60006001600160a01b038216301415612ef157506001919050565b6005545b8015612f58576001600160a01b0383166005612f12600184614015565b81548110612f2257612f22613959565b6000918252602090912001546001600160a01b03161415612f465750600192915050565b80612f508161402c565b915050612ef5565b50600092915050565b6004546000905b801561300b576001600160a01b0384166004612f85600184614015565b81548110612f9557612f95613959565b60009182526020909120600290910201546001600160a01b0316148015612fea57506004612fc4600183614015565b81548110612fd457612fd4613959565b9060005260206000209060020201600101546000145b15612ff9576000915050610d0c565b806130038161402c565b915050612f68565b50816130fa575b6004545b80156130e9576001600160a01b0384166004613033600184614015565b8154811061304357613043613959565b60009182526020909120600290910201546001600160a01b031614156130d7576130d16004613073600184614015565b8154811061308357613083613959565b60009182526020909120600290910201546001600160a01b031660046130aa600185614015565b815481106130ba576130ba613959565b9060005260206000209060020201600101546132e8565b506130e9565b806130e18161402c565b915050613016565b806130f457506131a2565b50613012565b6004545b80156131a0576001600160a01b038416600461311b600184614015565b8154811061312b5761312b613959565b60009182526020909120600290910201546001600160a01b031614801561317f575082600461315b600184614015565b8154811061316b5761316b613959565b906000526020600020906002020160010154145b1561318e576000915050610d0c565b806131988161402c565b9150506130fe565b505b604080518082019091526001600160a01b038481168252602082018481526004805460018101825560009190915292517f8a35acfbc15ff81a39ae7d344fd709f28e8600b4aa8c65c6b64bfe7fe36bd19b600290940293840180546001600160a01b0319169190931617909155517f8a35acfbc15ff81a39ae7d344fd709f28e8600b4aa8c65c6b64bfe7fe36bd19c9091015550600192915050565b6000546001600160a01b03163314610cca5760405162461bcd60e51b815260206004820152601f60248201527f416c6c6f77616e63653a2063616c6c6572206d757374206265204f776e6572006044820152606401610cc1565b600080546001600160a01b038381166001600160a01b0319831681178455604051919092169283917f8be0079c531659141344cd1fd0a4f28419497f9722a3daafe3b4186f6b6457e09190a35050565b600454600090815b8181101561237557846001600160a01b03166004828154811061331557613315613959565b60009182526020909120600290910201546001600160a01b031614801561335f5750836004828154811061334b5761334b613959565b906000526020600020906002020160010154145b156134325761336f600183614015565b8110156133ed576004613383600184614015565b8154811061339357613393613959565b9060005260206000209060020201600482815481106133b4576133b4613959565b60009182526020909120825460029092020180546001600160a01b0319166001600160a01b039092169190911781556001918201549101555b60048054806133fe576133fe6140fb565b60008281526020812060026000199093019283020180546001600160a01b0319168155600101559055600192505050610d0c565b8061343c816139c4565b9150506132f0565b6005546000905b80156134ae576001600160a01b0383166005613468600184614015565b8154811061347857613478613959565b6000918252602090912001546001600160a01b0316141561349c5750600092915050565b806134a68161402c565b91505061344b565b600580546001810182556000919091527f036b6384b5eca791c62761152d0c79bb0604c104a5fb6f4eb0703f3154bb3db00180546001600160a01b0319166001600160a01b03851617905550600192915050565b600061106073__$669c6e0eba2465bd6779ea6ec5db3af1b5$__630de874ed85856040518363ffffffff1660e01b8152600401611657929190613ab8565b60006001600160a01b03831661355857506001610d0c565b73__$cc6df4ca04d157c820770f5225eff0121b$__633646b54861357c8585612641565b6040518263ffffffff1660e01b81526004016129669190613a6c565b60075460009060ff16151582151514156135b457506000919050565b6007805460ff1916831515179055506001919050565b600554600090815b818110156120a257836001600160a01b0316600582815481106135f7576135f7613959565b6000918252602090912001546001600160a01b031614156136d95761361d600183614015565b81101561369c576005613631600184614015565b8154811061364157613641613959565b600091825260209091200154600580546001600160a01b03909216918390811061366d5761366d613959565b9060005260206000200160006101000a8154816001600160a01b0302191690836001600160a01b031602179055505b60058054806136ad576136ad6140fb565b600082815260209020810160001990810180546001600160a01b03191690550190555060019392505050565b806136e3816139c4565b9150506135d2565b6000806136f7836114d7565b6040516314130a7960e31b815273__$669c6e0eba2465bd6779ea6ec5db3af1b5$__9163a09853c89161372d9190600401613c33565b6040805180830381865af4158015613749573d6000803e3d6000fd5b505050506040513d601f19601f82011682018060405250810190610e589190614111565b600654600090815b8181101561237557846001600160a01b03166006828154811061379a5761379a613959565b60009182526020909120600290910201546001600160a01b03161480156137e4575083600682815481106137d0576137d0613959565b906000526020600020906002020160010154145b15613883576137f4600183614015565b811015613872576006613808600184614015565b8154811061381857613818613959565b90600052602060002090600202016006828154811061383957613839613959565b60009182526020909120825460029092020180546001600160a01b0319166001600160a01b039092169190911781556001918201549101555b60068054806133fe576133fe6140fb565b8061388d816139c4565b915050613775565b8280546138a190613e36565b90600052602060002090601f0160209004810192826138c35760008555613909565b82601f106138dc57805160ff1916838001178555613909565b82800160010185558215613909579182015b828111156139095782518255916020019190600101906138ee565b50613915929150613919565b5090565b5b80821115613915576000815560010161391a565b8015158114612ab557600080fd5b60006020828403121561394e57600080fd5b81516110608161392e565b634e487b7160e01b600052603260045260246000fd5b60006020828403121561398157600080fd5b5051919050565b634e487b7160e01b600052602160045260246000fd5b8183823760009101908152919050565b634e487b7160e01b600052601160045260246000fd5b60006000198214156139d8576139d86139ae565b5060010190565b80356001600160e01b0319811681146114d257600080fd5b600060208284031215613a0957600080fd5b611060826139df565b6001600160a01b0381168114612ab557600080fd5b60008060408385031215613a3a57600080fd5b8235613a4581613a12565b946020939093013593505050565b600060208284031215613a6557600080fd5b5035919050565b815160000b81526020808301511515908201526040808301516001600160401b03169082015260608101610d0c565b600060208284031215613aad57600080fd5b813561106081613a12565b6001600160a01b03929092168252602082015260400190565b60005b83811015613aec578181015183820152602001613ad4565b83811115613afb576000848401525b50505050565b60008151808452613b19816020860160208601613ad1565b601f01601f19169290920160200192915050565b6020815260006110606020830184613b01565b634e487b7160e01b600052604160045260246000fd5b604051601f8201601f191681016001600160401b0381118282101715613b7e57613b7e613b40565b604052919050565b60006001600160401b03821115613b9f57613b9f613b40565b50601f01601f191660200190565b6000613bc0613bbb84613b86565b613b56565b9050828152838383011115613bd457600080fd5b828260208301376000602084830101529392505050565b600060208284031215613bfd57600080fd5b81356001600160401b03811115613c1357600080fd5b8201601f81018413613c2457600080fd5b610dc884823560208401613bad565b6020808252825182820181905260009190848201906040850190845b81811015613c6b57835183529284019291840191600101613c4f565b50909695505050505050565b60008060408385031215613c8a57600080fd5b823591506020830135613c9c81613a12565b809150509250929050565b60008060408385031215613cba57600080fd5b50508035926020909101359150565b6001600160401b0381168114612ab557600080fd5b60008060408385031215613cf157600080fd5b823591506020830135613c9c81613cc9565b60006001600160401b03821115613d1c57613d1c613b40565b5060051b60200190565b60006020808385031215613d3957600080fd5b82356001600160401b03811115613d4f57600080fd5b8301601f81018513613d6057600080fd5b8035613d6e613bbb82613d03565b81815260059190911b82018301908381019087831115613d8d57600080fd5b928401925b82841015613dab57833582529284019290840190613d92565b979650505050505050565b60008060408385031215613dc957600080fd5b82359150613dd9602084016139df565b90509250929050565b600060208284031215613df457600080fd5b81356110608161392e565b60208082526017908201527f43757272656e6379206e6f742072656769737465726564000000000000000000604082015260600190565b600181811c90821680613e4a57607f821691505b602082108114156113c157634e487b7160e01b600052602260045260246000fd5b60008251613e7d818460208701613ad1565b9190910192915050565b60006020808385031215613e9a57600080fd5b82516001600160401b03811115613eb057600080fd5b8301601f81018513613ec157600080fd5b8051613ecf613bbb82613d03565b81815260059190911b82018301908381019087831115613eee57600080fd5b928401925b82841015613dab57835182529284019290840190613ef3565b60008060408385031215613f1f57600080fd5b505080516020909101519092909150565b600060608284031215613f4257600080fd5b604051606081018181106001600160401b0382111715613f6457613f64613b40565b6040528251600081900b8114613f7957600080fd5b81526020830151613f898161392e565b60208201526040830151613f9c81613cc9565b60408201529392505050565b634e487b7160e01b600052600160045260246000fd5b6001600160a01b03851681526020810184905260c081016140046040830185805160000b82526020808201511515908301526040908101516001600160401b0316910152565b82151560a083015295945050505050565b600082821015614027576140276139ae565b500390565b60008161403b5761403b6139ae565b506000190190565b60006020828403121561405557600080fd5b815161106081613a12565b6000806040838503121561407357600080fd5b825191506020830151613c9c81613a12565b60006020828403121561409757600080fd5b81516001600160401b038111156140ad57600080fd5b8201601f810184136140be57600080fd5b80516140cc613bbb82613b86565b8181528560208385010111156140e157600080fd5b6140f2826020830160208601613ad1565b95945050505050565b634e487b7160e01b600052603160045260246000fd5b6000806040838503121561412457600080fd5b825161412f81613a12565b602093909301519294929350505056fe68747470733a2f2f6769746875622e636f6d2f5061747269636b416c706861432f646566692d7374616b652d7969656c642d62726f776e69652d66726565636f64652f626c6f622f6d61696e2f66726f6e745f656e642f7372632f646170702e706e673f7261773d74727565ad3228b676f7d3cd4284a5443f17f1962b36e491b30a40b2405849e597ba5fb568747470733a2f2f7261772e67697468756275736572636f6e74656e742e636f6d2f5061747269636b416c706861432f646566692d7374616b652d7969656c642d62726f776e69652d66726565636f64652f6d61696e2f66726f6e745f656e642f7372632f6574682e706e673f7261773d74727565a2646970667358221220131bf6a2bab60bbfc5fc21236ecf24a4a65abb34108a5ec102120f11f32e778e64736f6c634300080b0033","language":"Solidity","natspec":{"methods":{"ownerOf()":{"details":"Returns the address of the current owner."},"renounceOwnership()":{"details":"Leaves the contract without owner. It will not be possible to call `onlyOwner` functions anymore. Can only be called by the current owner. NOTE: Renouncing ownership will leave the contract without an owner, thereby removing any functionality that is only available to the owner."},"transferOwnership(address)":{"details":"Transfers ownership of the contract to a new account (`newOwner`). Can only be called by the current owner."}},"kind":"dev","version":1},"opcodes":"PUSH1 0x80 PUSH1 0x40 MSTORE CALLVALUE DUP1 ISZERO PUSH2 0x10 JUMPI PUSH1 0x0 DUP1 REVERT JUMPDEST POP PUSH1 0x4 CALLDATASIZE LT PUSH2 0x3D0 JUMPI PUSH1 0x0 CALLDATALOAD PUSH1 0xE0 SHR DUP1 PUSH4 0x81B2490B GT PUSH2 0x1FF JUMPI DUP1 PUSH4 0xAD10A135 GT PUSH2 0x11A JUMPI DUP1 PUSH4 0xC9C2A940 GT PUSH2 0xAD JUMPI DUP1 PUSH4 0xE50D1B3E GT PUSH2 0x7C JUMPI DUP1 PUSH4 0xE50D1B3E EQ PUSH2 0xBFA JUMPI DUP1 PUSH4 0xE855A313 EQ PUSH2 0xC0D JUMPI DUP1 PUSH4 0xF2FDE38B EQ PUSH2 0xC20 JUMPI DUP1 PUSH4 0xF5DAB711 EQ PUSH2 0xC33 JUMPI PUSH2 0x3D0 JUMP JUMPDEST DUP1 PUSH4 0xC9C2A940 EQ PUSH2 0xBAE JUMPI DUP1 PUSH4 0xD47A7EDD EQ PUSH2 0xBC1 JUMPI DUP1 PUSH4 0xD4945D0E EQ PUSH2 0xBD4 JUMPI DUP1 PUSH4 0xDBF5F2FD EQ PUSH2 0xBE7 JUMPI PUSH2 0x3D0 JUMP JUMPDEST DUP1 PUSH4 0xBB7D88A9 GT PUSH2 0xE9 JUMPI DUP1 PUSH4 0xBB7D88A9 EQ PUSH2 0xB62 JUMPI DUP1 PUSH4 0xC33470D3 EQ PUSH2 0xB75 JUMPI DUP1 PUSH4 0xC452E6B6 EQ PUSH2 0xB88 JUMPI DUP1 PUSH4 0xC5537EB7 EQ PUSH2 0xB9B JUMPI PUSH2 0x3D0 JUMP JUMPDEST DUP1 PUSH4 0xAD10A135 EQ PUSH2 0xAF9 JUMPI DUP1 PUSH4 0xAF915585 EQ PUSH2 0xB0C JUMPI DUP1 PUSH4 0xB3054383 EQ PUSH2 0xB3C JUMPI DUP1 PUSH4 0xB72A4A71 EQ PUSH2 0xB4F JUMPI PUSH2 0x3D0 JUMP JUMPDEST DUP1 PUSH4 0x9E9BB9C1 GT PUSH2 0x192 JUMPI DUP1 PUSH4 0xA9D46326 GT PUSH2 0x161 JUMPI DUP1 PUSH4 0xA9D46326 EQ PUSH2 0xAAD JUMPI DUP1 PUSH4 0xABABADB5 EQ PUSH2 0xAC0 JUMPI DUP1 PUSH4 0xAC8A584A EQ PUSH2 0xAD3 JUMPI DUP1 PUSH4 0xAD0FC0CC EQ PUSH2 0xAE6 JUMPI PUSH2 0x3D0 JUMP JUMPDEST DUP1 PUSH4 0x9E9BB9C1 EQ PUSH2 0xA61 JUMPI DUP1 PUSH4 0xA663D4F5 EQ PUSH2 0xA74 JUMPI DUP1 PUSH4 0xA86EEB91 EQ PUSH2 0xA87 JUMPI DUP1 PUSH4 0xA9BF9858 EQ PUSH2 0xA9A JUMPI PUSH2 0x3D0 JUMP JUMPDEST DUP1 PUSH4 0x8DA5CB5B GT PUSH2 0x1CE JUMPI DUP1 PUSH4 0x8DA5CB5B EQ PUSH2 0xA01 JUMPI DUP1 PUSH4 0x8EAA6AC0 EQ PUSH2 0xA12 JUMPI DUP1 PUSH4 0x95B5D584 EQ PUSH2 0xA3B JUMPI DUP1 PUSH4 0x9870D7FE EQ PUSH2 0xA4E JUMPI PUSH2 0x3D0 JUMP JUMPDEST DUP1 PUSH4 0x81B2490B EQ PUSH2 0x9BD JUMPI DUP1 PUSH4 0x83350075 EQ PUSH2 0x9D0 JUMPI DUP1 PUSH4 0x89765F59 EQ PUSH2 0x9DB JUMPI DUP1 PUSH4 0x8D49D89B EQ PUSH2 0x9EE JUMPI PUSH2 0x3D0 JUMP JUMPDEST DUP1 PUSH4 0x38A699A4 GT PUSH2 0x2EF JUMPI DUP1 PUSH4 0x5B62CB70 GT PUSH2 0x282 JUMPI DUP1 PUSH4 0x6D70F7AE GT PUSH2 0x251 JUMPI DUP1 PUSH4 0x6D70F7AE EQ PUSH2 0x97A JUMPI DUP1 PUSH4 0x6F457683 EQ PUSH2 0x98D JUMPI DUP1 PUSH4 0x715018A6 EQ PUSH2 0x9A2 JUMPI DUP1 PUSH4 0x75F890AB EQ PUSH2 0x9AA JUMPI PUSH2 0x3D0 JUMP JUMPDEST DUP1 PUSH4 0x5B62CB70 EQ PUSH2 0x919 JUMPI DUP1 PUSH4 0x61E99FFB EQ PUSH2 0x92C JUMPI DUP1 PUSH4 0x657C7E09 EQ PUSH2 0x93F JUMPI DUP1 PUSH4 0x67C51DFC EQ PUSH2 0x967 JUMPI PUSH2 0x3D0 JUMP JUMPDEST DUP1 PUSH4 0x509FF69B GT PUSH2 0x2BE JUMPI DUP1 PUSH4 0x509FF69B EQ PUSH2 0x8CD JUMPI DUP1 PUSH4 0x552CDF98 EQ PUSH2 0x8E0 JUMPI DUP1 PUSH4 0x5768BBB5 EQ PUSH2 0x8F3 JUMPI DUP1 PUSH4 0x589E6A98 EQ PUSH2 0x906 JUMPI PUSH2 0x3D0 JUMP JUMPDEST DUP1 PUSH4 0x38A699A4 EQ PUSH2 0x880 JUMPI DUP1 PUSH4 0x4329598C EQ PUSH2 0x780 JUMPI DUP1 PUSH4 0x4635229B EQ PUSH2 0x893 JUMPI DUP1 PUSH4 0x4F79B792 EQ PUSH2 0x8BA JUMPI PUSH2 0x3D0 JUMP JUMPDEST DUP1 PUSH4 0x16279055 GT PUSH2 0x367 JUMPI DUP1 PUSH4 0x24ACE672 GT PUSH2 0x336 JUMPI DUP1 PUSH4 0x24ACE672 EQ PUSH2 0x804 JUMPI DUP1 PUSH4 0x2558A079 EQ PUSH2 0x817 JUMPI DUP1 PUSH4 0x27EE9DC2 EQ PUSH2 0x83E JUMPI DUP1 PUSH4 0x2F54BF6E EQ PUSH2 0x85E JUMPI PUSH2 0x3D0 JUMP JUMPDEST DUP1 PUSH4 0x16279055 EQ PUSH2 0x7A0 JUMPI DUP1 PUSH4 0x184BC906 EQ PUSH2 0x7B3 JUMPI DUP1 PUSH4 0x18D54CF3 EQ PUSH2 0x7DE JUMPI DUP1 PUSH4 0x1D7A3B72 EQ PUSH2 0x7F1 JUMPI PUSH2 0x3D0 JUMP JUMPDEST DUP1 PUSH4 0x7D61085 GT PUSH2 0x3A3 JUMPI DUP1 PUSH4 0x7D61085 EQ PUSH2 0x739 JUMPI DUP1 PUSH4 0xEA94B96 EQ PUSH2 0x74C JUMPI DUP1 PUSH4 0x120F6EE3 EQ PUSH2 0x76D JUMPI DUP1 PUSH4 0x12CAE67B EQ PUSH2 0x780 JUMPI PUSH2 0x3D0 JUMP JUMPDEST DUP1 PUSH4 0x1FFC9A7 EQ PUSH2 0x6A5 JUMPI DUP1 PUSH4 0x221C7DE EQ PUSH2 0x6CD JUMPI DUP1 PUSH4 0x3565EA1 EQ PUSH2 0x6F8 JUMPI DUP1 PUSH4 0x36995DF EQ PUSH2 0x718 JUMPI JUMPDEST PUSH2 0x3D8 PUSH2 0xC46 JUMP JUMPDEST PUSH1 0x40 MLOAD PUSH4 0x825998C1 PUSH1 0xE0 SHL DUP2 MSTORE PUSH1 0xD PUSH1 0x4 DUP3 ADD MSTORE PUSH1 0x0 CALLDATALOAD PUSH1 0x1 PUSH1 0x1 PUSH1 0xE0 SHL SUB NOT AND PUSH1 0x24 DUP3 ADD MSTORE PUSH20 0x0 SWAP1 PUSH4 0x825998C1 SWAP1 PUSH1 0x44 ADD PUSH1 0x20 PUSH1 0x40 MLOAD DUP1 DUP4 SUB DUP2 DUP7 GAS DELEGATECALL ISZERO DUP1 ISZERO PUSH2 0x43A JUMPI RETURNDATASIZE PUSH1 0x0 DUP1 RETURNDATACOPY RETURNDATASIZE PUSH1 0x0 REVERT JUMPDEST POP POP POP POP PUSH1 0x40 MLOAD RETURNDATASIZE PUSH1 0x1F NOT PUSH1 0x1F DUP3 ADD AND DUP3 ADD DUP1 PUSH1 0x40 MSTORE POP DUP2 ADD SWAP1 PUSH2 0x45E SWAP2 SWAP1 PUSH2 0x393C JUMP JUMPDEST POP PUSH1 0x0 JUMPDEST PUSH1 0xA SLOAD DUP2 LT ISZERO PUSH2 0x6A2 JUMPI CALLER PUSH1 0x1 PUSH1 0x1 PUSH1 0xA0 SHL SUB AND PUSH1 0xA DUP3 DUP2 SLOAD DUP2 LT PUSH2 0x489 JUMPI PUSH2 0x489 PUSH2 0x3959 JUMP JUMPDEST PUSH1 0x0 SWAP2 DUP3 MSTORE PUSH1 0x20 SWAP1 SWAP2 KECCAK256 ADD SLOAD PUSH1 0x1 PUSH1 0x1 PUSH1 0xA0 SHL SUB AND EQ ISZERO PUSH2 0x4A9 JUMPI PUSH2 0x690 JUMP JUMPDEST PUSH1 0x0 PUSH1 0xA DUP3 DUP2 SLOAD DUP2 LT PUSH2 0x4BE JUMPI PUSH2 0x4BE PUSH2 0x3959 JUMP JUMPDEST PUSH1 0x0 SWAP2 DUP3 MSTORE PUSH1 0x20 SWAP2 DUP3 SWAP1 KECCAK256 ADD SLOAD PUSH1 0x40 DUP1 MLOAD PUSH4 0xAF640D0F PUSH1 0xE0 SHL DUP2 MSTORE SWAP1 MLOAD PUSH1 0x1 PUSH1 0x1 PUSH1 0xA0 SHL SUB SWAP1 SWAP3 AND SWAP3 PUSH4 0xAF640D0F SWAP3 PUSH1 0x4 DUP1 DUP5 ADD SWAP4 DUP3 SWAP1 SUB ADD DUP2 DUP7 GAS STATICCALL ISZERO DUP1 ISZERO PUSH2 0x50C JUMPI RETURNDATASIZE PUSH1 0x0 DUP1 RETURNDATACOPY RETURNDATASIZE PUSH1 0x0 REVERT JUMPDEST POP POP POP POP PUSH1 0x40 MLOAD RETURNDATASIZE PUSH1 0x1F NOT PUSH1 0x1F DUP3 ADD AND DUP3 ADD DUP1 PUSH1 0x40 MSTORE POP DUP2 ADD SWAP1 PUSH2 0x530 SWAP2 SWAP1 PUSH2 0x396F JUMP JUMPDEST SWAP1 POP PUSH1 0x1 PUSH1 0x0 DUP3 DUP2 MSTORE PUSH1 0xC PUSH1 0x20 SWAP1 DUP2 MSTORE PUSH1 0x40 DUP1 DUP4 KECCAK256 PUSH1 0x1 PUSH1 0x1 PUSH1 0xE0 SHL SUB NOT DUP5 CALLDATALOAD AND DUP5 MSTORE SWAP1 SWAP2 MSTORE SWAP1 KECCAK256 SLOAD PUSH1 0xFF AND PUSH1 0x2 DUP2 GT ISZERO PUSH2 0x56D JUMPI PUSH2 0x56D PUSH2 0x3988 JUMP JUMPDEST EQ ISZERO PUSH2 0x579 JUMPI POP PUSH2 0x690 JUMP JUMPDEST PUSH1 0x0 PUSH1 0xA DUP4 DUP2 SLOAD DUP2 LT PUSH2 0x58E JUMPI PUSH2 0x58E PUSH2 0x3959 JUMP JUMPDEST PUSH1 0x0 SWAP2 DUP3 MSTORE PUSH1 0x20 DUP3 KECCAK256 ADD SLOAD PUSH1 0x40 MLOAD PUSH1 0x1 PUSH1 0x1 PUSH1 0xA0 SHL SUB SWAP1 SWAP2 AND SWAP2 PUSH2 0x5B3 SWAP2 CALLDATASIZE SWAP1 PUSH2 0x399E JUMP JUMPDEST PUSH1 0x0 PUSH1 0x40 MLOAD DUP1 DUP4 SUB DUP2 PUSH1 0x0 DUP7 GAS CALL SWAP2 POP POP RETURNDATASIZE DUP1 PUSH1 0x0 DUP2 EQ PUSH2 0x5F0 JUMPI PUSH1 0x40 MLOAD SWAP2 POP PUSH1 0x1F NOT PUSH1 0x3F RETURNDATASIZE ADD AND DUP3 ADD PUSH1 0x40 MSTORE RETURNDATASIZE DUP3 MSTORE RETURNDATASIZE PUSH1 0x0 PUSH1 0x20 DUP5 ADD RETURNDATACOPY PUSH2 0x5F5 JUMP JUMPDEST PUSH1 0x60 SWAP2 POP JUMPDEST POP POP PUSH1 0x0 DUP4 DUP2 MSTORE PUSH1 0xC PUSH1 0x20 SWAP1 DUP2 MSTORE PUSH1 0x40 DUP1 DUP4 KECCAK256 DUP4 CALLDATALOAD PUSH1 0x1 PUSH1 0x1 PUSH1 0xE0 SHL SUB NOT AND DUP5 MSTORE SWAP1 SWAP2 MSTORE DUP2 KECCAK256 SLOAD SWAP2 SWAP3 POP SWAP1 PUSH1 0xFF AND PUSH1 0x2 DUP2 GT ISZERO PUSH2 0x634 JUMPI PUSH2 0x634 PUSH2 0x3988 JUMP JUMPDEST EQ ISZERO PUSH2 0x68D JUMPI DUP1 PUSH2 0x646 JUMPI PUSH1 0x1 PUSH2 0x649 JUMP JUMPDEST PUSH1 0x2 JUMPDEST PUSH1 0x0 DUP4 DUP2 MSTORE PUSH1 0xC PUSH1 0x20 SWAP1 DUP2 MSTORE PUSH1 0x40 DUP1 DUP4 KECCAK256 PUSH1 0x1 PUSH1 0x1 PUSH1 0xE0 SHL SUB NOT DUP5 CALLDATALOAD AND DUP5 MSTORE SWAP1 SWAP2 MSTORE SWAP1 KECCAK256 DUP1 SLOAD PUSH1 0xFF NOT AND PUSH1 0x1 DUP4 PUSH1 0x2 DUP2 GT ISZERO PUSH2 0x687 JUMPI PUSH2 0x687 PUSH2 0x3988 JUMP JUMPDEST MUL OR SWAP1 SSTORE POP JUMPDEST POP POP JUMPDEST DUP1 PUSH2 0x69A DUP2 PUSH2 0x39C4 JUMP JUMPDEST SWAP2 POP POP PUSH2 0x462 JUMP JUMPDEST POP STOP JUMPDEST PUSH2 0x6B8 PUSH2 0x6B3 CALLDATASIZE PUSH1 0x4 PUSH2 0x39F7 JUMP JUMPDEST PUSH2 0xCCC JUMP JUMPDEST PUSH1 0x40 MLOAD SWAP1 ISZERO ISZERO DUP2 MSTORE PUSH1 0x20 ADD JUMPDEST PUSH1 0x40 MLOAD DUP1 SWAP2 SUB SWAP1 RETURN JUMPDEST PUSH2 0x6E0 PUSH2 0x6DB CALLDATASIZE PUSH1 0x4 PUSH2 0x3A27 JUMP JUMPDEST PUSH2 0xD12 JUMP JUMPDEST PUSH1 0x40 MLOAD PUSH1 0x1 PUSH1 0x1 PUSH1 0x40 SHL SUB SWAP1 SWAP2 AND DUP2 MSTORE PUSH1 0x20 ADD PUSH2 0x6C4 JUMP JUMPDEST PUSH2 0x70B PUSH2 0x706 CALLDATASIZE PUSH1 0x4 PUSH2 0x3A53 JUMP JUMPDEST PUSH2 0xD3F JUMP JUMPDEST PUSH1 0x40 MLOAD PUSH2 0x6C4 SWAP2 SWAP1 PUSH2 0x3A6C JUMP JUMPDEST PUSH2 0x72B PUSH2 0x726 CALLDATASIZE PUSH1 0x4 PUSH2 0x3A9B JUMP JUMPDEST PUSH2 0xDD0 JUMP JUMPDEST PUSH1 0x40 MLOAD SWAP1 DUP2 MSTORE PUSH1 0x20 ADD PUSH2 0x6C4 JUMP JUMPDEST PUSH2 0x6B8 PUSH2 0x747 CALLDATASIZE PUSH1 0x4 PUSH2 0x3A53 JUMP JUMPDEST PUSH2 0xDDD JUMP JUMPDEST PUSH2 0x75F PUSH2 0x75A CALLDATASIZE PUSH1 0x4 PUSH2 0x3A53 JUMP JUMPDEST PUSH2 0xE06 JUMP JUMPDEST PUSH1 0x40 MLOAD PUSH2 0x6C4 SWAP3 SWAP2 SWAP1 PUSH2 0x3AB8 JUMP JUMPDEST PUSH2 0x6E0 PUSH2 0x77B CALLDATASIZE PUSH1 0x4 PUSH2 0x3A53 JUMP JUMPDEST PUSH2 0xE61 JUMP JUMPDEST PUSH2 0x793 PUSH2 0x78E CALLDATASIZE PUSH1 0x4 PUSH2 0x3A53 JUMP JUMPDEST PUSH2 0xEB3 JUMP JUMPDEST PUSH1 0x40 MLOAD PUSH2 0x6C4 SWAP2 SWAP1 PUSH2 0x3B2D JUMP JUMPDEST PUSH2 0x6B8 PUSH2 0x7AE CALLDATASIZE PUSH1 0x4 PUSH2 0x3A9B JUMP JUMPDEST PUSH2 0xF55 JUMP JUMPDEST PUSH2 0x7C6 PUSH2 0x7C1 CALLDATASIZE PUSH1 0x4 PUSH2 0x3A53 JUMP JUMPDEST PUSH2 0xFF4 JUMP JUMPDEST PUSH1 0x40 MLOAD PUSH1 0x1 PUSH1 0x1 PUSH1 0xA0 SHL SUB SWAP1 SWAP2 AND DUP2 MSTORE PUSH1 0x20 ADD PUSH2 0x6C4 JUMP JUMPDEST PUSH2 0x6B8 PUSH2 0x7EC CALLDATASIZE PUSH1 0x4 PUSH2 0x3A27 JUMP JUMPDEST PUSH2 0x104C JUMP JUMPDEST PUSH2 0x793 PUSH2 0x7FF CALLDATASIZE PUSH1 0x4 PUSH2 0x3A27 JUMP JUMPDEST PUSH2 0x1067 JUMP JUMPDEST PUSH2 0x72B PUSH2 0x812 CALLDATASIZE PUSH1 0x4 PUSH2 0x3BEB JUMP JUMPDEST PUSH2 0x1375 JUMP JUMPDEST PUSH2 0x72B PUSH32 0x0 DUP2 JUMP JUMPDEST PUSH2 0x851 PUSH2 0x84C CALLDATASIZE PUSH1 0x4 PUSH2 0x3A53 JUMP JUMPDEST PUSH2 0x14D7 JUMP JUMPDEST PUSH1 0x40 MLOAD PUSH2 0x6C4 SWAP2 SWAP1 PUSH2 0x3C33 JUMP JUMPDEST PUSH2 0x6B8 PUSH2 0x86C CALLDATASIZE PUSH1 0x4 PUSH2 0x3A9B JUMP JUMPDEST PUSH1 0x0 SLOAD PUSH1 0x1 PUSH1 0x1 PUSH1 0xA0 SHL SUB SWAP2 DUP3 AND SWAP2 AND EQ SWAP1 JUMP JUMPDEST PUSH2 0x6B8 PUSH2 0x88E CALLDATASIZE PUSH1 0x4 PUSH2 0x3A53 JUMP JUMPDEST PUSH2 0x155D JUMP JUMPDEST PUSH2 0x6B8 PUSH32 0x0 DUP2 JUMP JUMPDEST PUSH2 0x72B PUSH2 0x8C8 CALLDATASIZE PUSH1 0x4 PUSH2 0x3A27 JUMP JUMPDEST PUSH2 0x1568 JUMP JUMPDEST PUSH2 0x72B PUSH2 0x8DB CALLDATASIZE PUSH1 0x4 PUSH2 0x3A27 JUMP JUMPDEST PUSH2 0x159B JUMP JUMPDEST PUSH2 0x6B8 PUSH2 0x8EE CALLDATASIZE PUSH1 0x4 PUSH2 0x3A27 JUMP JUMPDEST PUSH2 0x15E0 JUMP JUMPDEST PUSH2 0x72B PUSH2 0x901 CALLDATASIZE PUSH1 0x4 PUSH2 0x3C77 JUMP JUMPDEST PUSH2 0x160D JUMP JUMPDEST PUSH2 0x72B PUSH2 0x914 CALLDATASIZE PUSH1 0x4 PUSH2 0x3BEB JUMP JUMPDEST PUSH2 0x169C JUMP JUMPDEST PUSH2 0x6B8 PUSH2 0x927 CALLDATASIZE PUSH1 0x4 PUSH2 0x3A9B JUMP JUMPDEST PUSH2 0x16A7 JUMP JUMPDEST PUSH2 0x72B PUSH2 0x93A CALLDATASIZE PUSH1 0x4 PUSH2 0x3CA7 JUMP JUMPDEST PUSH2 0x16B2 JUMP JUMPDEST PUSH2 0x952 PUSH2 0x94D CALLDATASIZE PUSH1 0x4 PUSH2 0x3A53 JUMP JUMPDEST PUSH2 0x16F8 JUMP JUMPDEST PUSH1 0x40 DUP1 MLOAD SWAP3 DUP4 MSTORE PUSH1 0x20 DUP4 ADD SWAP2 SWAP1 SWAP2 MSTORE ADD PUSH2 0x6C4 JUMP JUMPDEST PUSH2 0x6B8 PUSH2 0x975 CALLDATASIZE PUSH1 0x4 PUSH2 0x3A27 JUMP JUMPDEST PUSH2 0x177A JUMP JUMPDEST PUSH2 0x6B8 PUSH2 0x988 CALLDATASIZE PUSH1 0x4 PUSH2 0x3A9B JUMP JUMPDEST PUSH2 0x178E JUMP JUMPDEST PUSH2 0x9A0 PUSH2 0x99B CALLDATASIZE PUSH1 0x4 PUSH2 0x3A27 JUMP JUMPDEST PUSH2 0x17F0 JUMP JUMPDEST STOP JUMPDEST PUSH2 0x9A0 PUSH2 0x1C8C JUMP JUMPDEST PUSH2 0x9A0 PUSH2 0x9B8 CALLDATASIZE PUSH1 0x4 PUSH2 0x3A9B JUMP JUMPDEST PUSH2 0x1C9E JUMP JUMPDEST PUSH2 0x6B8 PUSH2 0x9CB CALLDATASIZE PUSH1 0x4 PUSH2 0x3A27 JUMP JUMPDEST PUSH2 0x1F77 JUMP JUMPDEST PUSH1 0x7 SLOAD PUSH1 0xFF AND PUSH2 0x6B8 JUMP JUMPDEST PUSH2 0x6B8 PUSH2 0x9E9 CALLDATASIZE PUSH1 0x4 PUSH2 0x3A27 JUMP JUMPDEST PUSH2 0x20AC JUMP JUMPDEST PUSH2 0x6E0 PUSH2 0x9FC CALLDATASIZE PUSH1 0x4 PUSH2 0x3A9B JUMP JUMPDEST PUSH2 0x20C0 JUMP JUMPDEST PUSH1 0x0 SLOAD PUSH1 0x1 PUSH1 0x1 PUSH1 0xA0 SHL SUB AND PUSH2 0x7C6 JUMP JUMPDEST PUSH2 0x7C6 PUSH2 0xA20 CALLDATASIZE PUSH1 0x4 PUSH2 0x3A53 JUMP JUMPDEST PUSH1 0x0 SWAP1 DUP2 MSTORE PUSH1 0x9 PUSH1 0x20 MSTORE PUSH1 0x40 SWAP1 KECCAK256 SLOAD PUSH1 0x1 PUSH1 0x1 PUSH1 0xA0 SHL SUB AND SWAP1 JUMP JUMPDEST PUSH2 0x6B8 PUSH2 0xA49 CALLDATASIZE PUSH1 0x4 PUSH2 0x3A9B JUMP JUMPDEST PUSH2 0x20CD JUMP JUMPDEST PUSH2 0x9A0 PUSH2 0xA5C CALLDATASIZE PUSH1 0x4 PUSH2 0x3A9B JUMP JUMPDEST PUSH2 0x20E0 JUMP JUMPDEST PUSH2 0x793 PUSH2 0xA6F CALLDATASIZE PUSH1 0x4 PUSH2 0x3A53 JUMP JUMPDEST PUSH2 0x2170 JUMP JUMPDEST PUSH2 0x6B8 PUSH2 0xA82 CALLDATASIZE PUSH1 0x4 PUSH2 0x3CDE JUMP JUMPDEST PUSH2 0x21D9 JUMP JUMPDEST PUSH2 0x72B PUSH2 0xA95 CALLDATASIZE PUSH1 0x4 PUSH2 0x3A27 JUMP JUMPDEST PUSH2 0x2203 JUMP JUMPDEST PUSH2 0x72B PUSH2 0xAA8 CALLDATASIZE PUSH1 0x4 PUSH2 0x3A53 JUMP JUMPDEST PUSH2 0x220F JUMP JUMPDEST PUSH2 0x793 PUSH2 0xABB CALLDATASIZE PUSH1 0x4 PUSH2 0x3A9B JUMP JUMPDEST PUSH2 0x2261 JUMP JUMPDEST PUSH2 0x6B8 PUSH2 0xACE CALLDATASIZE PUSH1 0x4 PUSH2 0x3A27 JUMP JUMPDEST PUSH2 0x226E JUMP JUMPDEST PUSH2 0x9A0 PUSH2 0xAE1 CALLDATASIZE PUSH1 0x4 PUSH2 0x3A9B JUMP JUMPDEST PUSH2 0x2380 JUMP JUMPDEST PUSH2 0x6B8 PUSH2 0xAF4 CALLDATASIZE PUSH1 0x4 PUSH2 0x3A27 JUMP JUMPDEST PUSH2 0x23CF JUMP JUMPDEST PUSH2 0x6B8 PUSH2 0xB07 CALLDATASIZE PUSH1 0x4 PUSH2 0x3A27 JUMP JUMPDEST PUSH2 0x24F2 JUMP JUMPDEST PUSH2 0xB1F PUSH2 0xB1A CALLDATASIZE PUSH1 0x4 PUSH2 0x3A53 JUMP JUMPDEST PUSH2 0x2530 JUMP JUMPDEST PUSH1 0x40 DUP1 MLOAD SWAP3 DUP4 MSTORE PUSH1 0x1 PUSH1 0x1 PUSH1 0xA0 SHL SUB SWAP1 SWAP2 AND PUSH1 0x20 DUP4 ADD MSTORE ADD PUSH2 0x6C4 JUMP JUMPDEST PUSH2 0x72B PUSH2 0xB4A CALLDATASIZE PUSH1 0x4 PUSH2 0x3D26 JUMP JUMPDEST PUSH2 0x25B2 JUMP JUMPDEST PUSH2 0x72B PUSH2 0xB5D CALLDATASIZE PUSH1 0x4 PUSH2 0x3A27 JUMP JUMPDEST PUSH2 0x2635 JUMP JUMPDEST PUSH2 0x70B PUSH2 0xB70 CALLDATASIZE PUSH1 0x4 PUSH2 0x3A27 JUMP JUMPDEST PUSH2 0x2641 JUMP JUMPDEST PUSH2 0x6B8 PUSH2 0xB83 CALLDATASIZE PUSH1 0x4 PUSH2 0x3DB6 JUMP JUMPDEST PUSH2 0x2839 JUMP JUMPDEST PUSH2 0x6B8 PUSH2 0xB96 CALLDATASIZE PUSH1 0x4 PUSH2 0x3A9B JUMP JUMPDEST PUSH2 0x28D0 JUMP JUMPDEST PUSH2 0x6B8 PUSH2 0xBA9 CALLDATASIZE PUSH1 0x4 PUSH2 0x3CDE JUMP JUMPDEST PUSH2 0x28DD JUMP JUMPDEST PUSH2 0x72B PUSH2 0xBBC CALLDATASIZE PUSH1 0x4 PUSH2 0x3A27 JUMP JUMPDEST PUSH2 0x28FC JUMP JUMPDEST PUSH2 0x6B8 PUSH2 0xBCF CALLDATASIZE PUSH1 0x4 PUSH2 0x3A53 JUMP JUMPDEST PUSH2 0x29A7 JUMP JUMPDEST PUSH2 0x6B8 PUSH2 0xBE2 CALLDATASIZE PUSH1 0x4 PUSH2 0x3DE2 JUMP JUMPDEST PUSH2 0x29F9 JUMP JUMPDEST PUSH2 0x6B8 PUSH2 0xBF5 CALLDATASIZE PUSH1 0x4 PUSH2 0x3A9B JUMP JUMPDEST PUSH2 0x2A0C JUMP JUMPDEST PUSH2 0x75F PUSH2 0xC08 CALLDATASIZE PUSH1 0x4 PUSH2 0x3A53 JUMP JUMPDEST PUSH2 0x2A1F JUMP JUMPDEST PUSH2 0x6B8 PUSH2 0xC1B CALLDATASIZE PUSH1 0x4 PUSH2 0x3A27 JUMP JUMPDEST PUSH2 0x2A2B JUMP JUMPDEST PUSH2 0x9A0 PUSH2 0xC2E CALLDATASIZE PUSH1 0x4 PUSH2 0x3A9B JUMP JUMPDEST PUSH2 0x2A3F JUMP JUMPDEST PUSH2 0x70B PUSH2 0xC41 CALLDATASIZE PUSH1 0x4 PUSH2 0x3A9B JUMP JUMPDEST PUSH2 0x2AB8 JUMP JUMPDEST PUSH1 0x0 SLOAD PUSH1 0x1 PUSH1 0x1 PUSH1 0xA0 SHL SUB AND CALLER EQ DUP1 PUSH2 0xC63 JUMPI POP PUSH2 0xC63 CALLER PUSH2 0xF55 JUMP JUMPDEST PUSH2 0xCCA JUMPI PUSH1 0x40 MLOAD PUSH3 0x461BCD PUSH1 0xE5 SHL DUP2 MSTORE PUSH1 0x20 PUSH1 0x4 DUP3 ADD MSTORE PUSH1 0x2D PUSH1 0x24 DUP3 ADD MSTORE PUSH32 0x416C6C6F77616E63653A2063616C6C6572206D757374206265205265706F7369 PUSH1 0x44 DUP3 ADD MSTORE PUSH13 0x1D1BDC9E4810DBDB9D1C9858DD PUSH1 0x9A SHL PUSH1 0x64 DUP3 ADD MSTORE PUSH1 0x84 ADD JUMPDEST PUSH1 0x40 MLOAD DUP1 SWAP2 SUB SWAP1 REVERT JUMPDEST JUMP JUMPDEST PUSH1 0x0 PUSH1 0x1 PUSH1 0x1 PUSH1 0xE0 SHL SUB NOT DUP3 AND PUSH4 0x1FFC9A7 PUSH1 0xE0 SHL EQ DUP1 PUSH2 0xCFD JUMPI POP PUSH4 0x5B62CB7 PUSH1 0xE4 SHL PUSH1 0x1 PUSH1 0x1 PUSH1 0xE0 SHL SUB NOT DUP4 AND EQ JUMPDEST DUP1 PUSH2 0xD0C JUMPI POP PUSH2 0xD0C DUP3 PUSH2 0x2AE0 JUMP JUMPDEST SWAP3 SWAP2 POP POP JUMP JUMPDEST PUSH1 0x0 PUSH1 0x1 PUSH1 0x1 PUSH1 0xA0 SHL SUB DUP4 AND PUSH2 0xD2A JUMPI POP PUSH1 0x1 PUSH2 0xD0C JUMP JUMPDEST PUSH2 0xD34 DUP4 DUP4 PUSH2 0x2641 JUMP JUMPDEST PUSH1 0x40 ADD MLOAD SWAP4 SWAP3 POP POP POP JUMP JUMPDEST PUSH1 0x40 DUP1 MLOAD PUSH1 0x60 DUP2 ADD DUP3 MSTORE PUSH1 0x0 DUP1 DUP3 MSTORE PUSH1 0x20 DUP3 ADD DUP2 SWAP1 MSTORE SWAP2 DUP2 ADD SWAP2 SWAP1 SWAP2 MSTORE PUSH1 0x0 DUP1 MLOAD PUSH1 0x20 PUSH2 0x41AC DUP4 CODECOPY DUP2 MLOAD SWAP2 MSTORE DUP3 EQ ISZERO PUSH2 0xD7D JUMPI PUSH2 0xD0C PUSH1 0x0 DUP1 PUSH2 0x2641 JUMP JUMPDEST PUSH2 0xD86 DUP3 PUSH2 0xDDD JUMP JUMPDEST PUSH2 0xDAE JUMPI POP POP PUSH1 0x40 DUP1 MLOAD PUSH1 0x60 DUP2 ADD DUP3 MSTORE PUSH1 0x11 NOT DUP2 MSTORE PUSH1 0x0 PUSH1 0x20 DUP3 ADD DUP2 SWAP1 MSTORE SWAP2 DUP2 ADD SWAP2 SWAP1 SWAP2 MSTORE SWAP1 JUMP JUMPDEST PUSH1 0x0 DUP1 PUSH2 0xDBA DUP5 PUSH2 0xE06 JUMP JUMPDEST SWAP2 POP SWAP2 POP PUSH2 0xDC8 DUP3 DUP3 PUSH2 0x2641 JUMP JUMPDEST SWAP5 SWAP4 POP POP POP POP JUMP JUMPDEST PUSH1 0x0 PUSH2 0xD0C DUP3 PUSH1 0x0 PUSH2 0x2635 JUMP JUMPDEST PUSH1 0x0 PUSH1 0x0 DUP1 MLOAD PUSH1 0x20 PUSH2 0x41AC DUP4 CODECOPY DUP2 MLOAD SWAP2 MSTORE DUP3 EQ ISZERO PUSH2 0xDFD JUMPI POP PUSH1 0x1 SWAP2 SWAP1 POP JUMP JUMPDEST PUSH2 0xD0C DUP3 PUSH2 0x155D JUMP JUMPDEST PUSH1 0x0 DUP1 PUSH1 0x0 DUP1 MLOAD PUSH1 0x20 PUSH2 0x41AC DUP4 CODECOPY DUP2 MLOAD SWAP2 MSTORE DUP4 EQ ISZERO PUSH2 0xE2A JUMPI POP PUSH1 0x0 SWAP3 DUP4 SWAP3 POP SWAP1 POP JUMP JUMPDEST PUSH2 0xE33 DUP4 PUSH2 0x155D JUMP JUMPDEST PUSH2 0xE4F JUMPI PUSH1 0x40 MLOAD PUSH3 0x461BCD PUSH1 0xE5 SHL DUP2 MSTORE PUSH1 0x4 ADD PUSH2 0xCC1 SWAP1 PUSH2 0x3DFF JUMP JUMPDEST PUSH2 0xE58 DUP4 PUSH2 0x2A1F JUMP JUMPDEST SWAP2 POP SWAP2 POP SWAP2 POP SWAP2 JUMP JUMPDEST PUSH1 0x0 PUSH1 0x0 DUP1 MLOAD PUSH1 0x20 PUSH2 0x41AC DUP4 CODECOPY DUP2 MLOAD SWAP2 MSTORE DUP3 EQ ISZERO PUSH2 0xE84 JUMPI PUSH2 0xD0C PUSH1 0x0 DUP1 PUSH2 0xD12 JUMP JUMPDEST PUSH2 0xE8D DUP3 PUSH2 0xDDD JUMP JUMPDEST PUSH2 0xE99 JUMPI POP PUSH1 0x0 SWAP2 SWAP1 POP JUMP JUMPDEST PUSH1 0x0 DUP1 PUSH2 0xEA5 DUP5 PUSH2 0xE06 JUMP JUMPDEST SWAP2 POP SWAP2 POP PUSH2 0xDC8 DUP3 DUP3 PUSH2 0xD12 JUMP JUMPDEST PUSH1 0x0 DUP2 DUP2 MSTORE PUSH1 0x8 PUSH1 0x20 MSTORE PUSH1 0x40 SWAP1 KECCAK256 DUP1 SLOAD PUSH1 0x60 SWAP2 SWAP1 PUSH2 0xED0 SWAP1 PUSH2 0x3E36 JUMP JUMPDEST DUP1 PUSH1 0x1F ADD PUSH1 0x20 DUP1 SWAP2 DIV MUL PUSH1 0x20 ADD PUSH1 0x40 MLOAD SWAP1 DUP2 ADD PUSH1 0x40 MSTORE DUP1 SWAP3 SWAP2 SWAP1 DUP2 DUP2 MSTORE PUSH1 0x20 ADD DUP3 DUP1 SLOAD PUSH2 0xEFC SWAP1 PUSH2 0x3E36 JUMP JUMPDEST DUP1 ISZERO PUSH2 0xF49 JUMPI DUP1 PUSH1 0x1F LT PUSH2 0xF1E JUMPI PUSH2 0x100 DUP1 DUP4 SLOAD DIV MUL DUP4 MSTORE SWAP2 PUSH1 0x20 ADD SWAP2 PUSH2 0xF49 JUMP JUMPDEST DUP3 ADD SWAP2 SWAP1 PUSH1 0x0 MSTORE PUSH1 0x20 PUSH1 0x0 KECCAK256 SWAP1 JUMPDEST DUP2 SLOAD DUP2 MSTORE SWAP1 PUSH1 0x1 ADD SWAP1 PUSH1 0x20 ADD DUP1 DUP4 GT PUSH2 0xF2C JUMPI DUP3 SWAP1 SUB PUSH1 0x1F AND DUP3 ADD SWAP2 JUMPDEST POP POP POP POP POP SWAP1 POP SWAP2 SWAP1 POP JUMP JUMPDEST PUSH1 0x0 PUSH1 0x1 PUSH1 0x1 PUSH1 0xA0 SHL SUB DUP3 AND ADDRESS EQ ISZERO PUSH2 0xF70 JUMPI POP PUSH1 0x1 SWAP2 SWAP1 POP JUMP JUMPDEST PUSH1 0x40 MLOAD PUSH4 0xF1325663 PUSH1 0xE0 SHL DUP2 MSTORE PUSH1 0xA PUSH1 0x4 DUP3 ADD MSTORE PUSH1 0x1 PUSH1 0x1 PUSH1 0xA0 SHL SUB DUP4 AND PUSH1 0x24 DUP3 ADD MSTORE PUSH20 0x0 SWAP1 PUSH4 0xF1325663 SWAP1 PUSH1 0x44 ADD JUMPDEST PUSH1 0x20 PUSH1 0x40 MLOAD DUP1 DUP4 SUB DUP2 DUP7 GAS DELEGATECALL ISZERO DUP1 ISZERO PUSH2 0xFD0 JUMPI RETURNDATASIZE PUSH1 0x0 DUP1 RETURNDATACOPY RETURNDATASIZE PUSH1 0x0 REVERT JUMPDEST POP POP POP POP PUSH1 0x40 MLOAD RETURNDATASIZE PUSH1 0x1F NOT PUSH1 0x1F DUP3 ADD AND DUP3 ADD DUP1 PUSH1 0x40 MSTORE POP DUP2 ADD SWAP1 PUSH2 0xD0C SWAP2 SWAP1 PUSH2 0x393C JUMP JUMPDEST PUSH1 0x0 PUSH1 0x0 DUP1 MLOAD PUSH1 0x20 PUSH2 0x41AC DUP4 CODECOPY DUP2 MLOAD SWAP2 MSTORE DUP3 EQ ISZERO PUSH2 0x1014 JUMPI POP PUSH1 0x0 SWAP2 SWAP1 POP JUMP JUMPDEST PUSH2 0x101D DUP3 PUSH2 0x155D JUMP JUMPDEST PUSH2 0x1039 JUMPI PUSH1 0x40 MLOAD PUSH3 0x461BCD PUSH1 0xE5 SHL DUP2 MSTORE PUSH1 0x4 ADD PUSH2 0xCC1 SWAP1 PUSH2 0x3DFF JUMP JUMPDEST PUSH1 0x0 PUSH2 0x1044 DUP4 PUSH2 0x2A1F JUMP JUMPDEST POP SWAP4 SWAP3 POP POP POP JUMP JUMPDEST PUSH1 0x0 PUSH2 0x1056 PUSH2 0x2B16 JUMP JUMPDEST PUSH2 0x1060 DUP4 DUP4 PUSH2 0x2B95 JUMP JUMPDEST SWAP4 SWAP3 POP POP POP JUMP JUMPDEST PUSH1 0x60 PUSH1 0x1 PUSH1 0x1 PUSH1 0xA0 SHL SUB DUP4 AND PUSH2 0x1097 JUMPI PUSH1 0x40 MLOAD DUP1 PUSH1 0xA0 ADD PUSH1 0x40 MSTORE DUP1 PUSH1 0x75 DUP2 MSTORE PUSH1 0x20 ADD PUSH2 0x41CC PUSH1 0x75 SWAP2 CODECOPY SWAP1 POP PUSH2 0xD0C JUMP JUMPDEST PUSH1 0x0 PUSH1 0x1 PUSH1 0x0 PUSH20 0x0 PUSH4 0xD5F0B04D DUP8 DUP8 PUSH1 0x40 MLOAD DUP4 PUSH4 0xFFFFFFFF AND PUSH1 0xE0 SHL DUP2 MSTORE PUSH1 0x4 ADD PUSH2 0x10D6 SWAP3 SWAP2 SWAP1 PUSH2 0x3AB8 JUMP JUMPDEST PUSH1 0x20 PUSH1 0x40 MLOAD DUP1 DUP4 SUB DUP2 DUP7 GAS DELEGATECALL ISZERO DUP1 ISZERO PUSH2 0x10F3 JUMPI RETURNDATASIZE PUSH1 0x0 DUP1 RETURNDATACOPY RETURNDATASIZE PUSH1 0x0 REVERT JUMPDEST POP POP POP POP PUSH1 0x40 MLOAD RETURNDATASIZE PUSH1 0x1F NOT PUSH1 0x1F DUP3 ADD AND DUP3 ADD DUP1 PUSH1 0x40 MSTORE POP DUP2 ADD SWAP1 PUSH2 0x1117 SWAP2 SWAP1 PUSH2 0x396F JUMP JUMPDEST DUP2 MSTORE PUSH1 0x20 ADD SWAP1 DUP2 MSTORE PUSH1 0x20 ADD PUSH1 0x0 KECCAK256 DUP1 SLOAD PUSH2 0x1130 SWAP1 PUSH2 0x3E36 JUMP JUMPDEST DUP1 PUSH1 0x1F ADD PUSH1 0x20 DUP1 SWAP2 DIV MUL PUSH1 0x20 ADD PUSH1 0x40 MLOAD SWAP1 DUP2 ADD PUSH1 0x40 MSTORE DUP1 SWAP3 SWAP2 SWAP1 DUP2 DUP2 MSTORE PUSH1 0x20 ADD DUP3 DUP1 SLOAD PUSH2 0x115C SWAP1 PUSH2 0x3E36 JUMP JUMPDEST DUP1 ISZERO PUSH2 0x11A9 JUMPI DUP1 PUSH1 0x1F LT PUSH2 0x117E JUMPI PUSH2 0x100 DUP1 DUP4 SLOAD DIV MUL DUP4 MSTORE SWAP2 PUSH1 0x20 ADD SWAP2 PUSH2 0x11A9 JUMP JUMPDEST DUP3 ADD SWAP2 SWAP1 PUSH1 0x0 MSTORE PUSH1 0x20 PUSH1 0x0 KECCAK256 SWAP1 JUMPDEST DUP2 SLOAD DUP2 MSTORE SWAP1 PUSH1 0x1 ADD SWAP1 PUSH1 0x20 ADD DUP1 DUP4 GT PUSH2 0x118C JUMPI DUP3 SWAP1 SUB PUSH1 0x1F AND DUP3 ADD SWAP2 JUMPDEST POP POP PUSH1 0x40 DUP1 MLOAD PUSH1 0x0 DUP2 MSTORE PUSH1 0x20 DUP2 ADD DUP1 DUP4 MSTORE DUP2 MLOAD SWAP1 KECCAK256 SWAP6 SWAP7 POP PUSH2 0x11D1 SWAP5 POP DUP7 SWAP4 POP ADD SWAP1 POP PUSH2 0x3E6B JUMP JUMPDEST PUSH1 0x40 MLOAD PUSH1 0x20 DUP2 DUP4 SUB SUB DUP2 MSTORE SWAP1 PUSH1 0x40 MSTORE DUP1 MLOAD SWAP1 PUSH1 0x20 ADD KECCAK256 EQ PUSH2 0x11F3 JUMPI SWAP1 POP PUSH2 0xD0C JUMP JUMPDEST DUP3 ISZERO PUSH2 0x1354 JUMPI PUSH1 0x1 PUSH1 0x0 PUSH20 0x0 PUSH4 0xD5F0B04D DUP8 PUSH1 0x0 PUSH1 0x40 MLOAD DUP4 PUSH4 0xFFFFFFFF AND PUSH1 0xE0 SHL DUP2 MSTORE PUSH1 0x4 ADD PUSH2 0x1237 SWAP3 SWAP2 SWAP1 PUSH2 0x3AB8 JUMP JUMPDEST PUSH1 0x20 PUSH1 0x40 MLOAD DUP1 DUP4 SUB DUP2 DUP7 GAS DELEGATECALL ISZERO DUP1 ISZERO PUSH2 0x1254 JUMPI RETURNDATASIZE PUSH1 0x0 DUP1 RETURNDATACOPY RETURNDATASIZE PUSH1 0x0 REVERT JUMPDEST POP POP POP POP PUSH1 0x40 MLOAD RETURNDATASIZE PUSH1 0x1F NOT PUSH1 0x1F DUP3 ADD AND DUP3 ADD DUP1 PUSH1 0x40 MSTORE POP DUP2 ADD SWAP1 PUSH2 0x1278 SWAP2 SWAP1 PUSH2 0x396F JUMP JUMPDEST DUP2 MSTORE PUSH1 0x20 ADD SWAP1 DUP2 MSTORE PUSH1 0x20 ADD PUSH1 0x0 KECCAK256 DUP1 SLOAD PUSH2 0x1291 SWAP1 PUSH2 0x3E36 JUMP JUMPDEST DUP1 PUSH1 0x1F ADD PUSH1 0x20 DUP1 SWAP2 DIV MUL PUSH1 0x20 ADD PUSH1 0x40 MLOAD SWAP1 DUP2 ADD PUSH1 0x40 MSTORE DUP1 SWAP3 SWAP2 SWAP1 DUP2 DUP2 MSTORE PUSH1 0x20 ADD DUP3 DUP1 SLOAD PUSH2 0x12BD SWAP1 PUSH2 0x3E36 JUMP JUMPDEST DUP1 ISZERO PUSH2 0x130A JUMPI DUP1 PUSH1 0x1F LT PUSH2 0x12DF JUMPI PUSH2 0x100 DUP1 DUP4 SLOAD DIV MUL DUP4 MSTORE SWAP2 PUSH1 0x20 ADD SWAP2 PUSH2 0x130A JUMP JUMPDEST DUP3 ADD SWAP2 SWAP1 PUSH1 0x0 MSTORE PUSH1 0x20 PUSH1 0x0 KECCAK256 SWAP1 JUMPDEST DUP2 SLOAD DUP2 MSTORE SWAP1 PUSH1 0x1 ADD SWAP1 PUSH1 0x20 ADD DUP1 DUP4 GT PUSH2 0x12ED JUMPI DUP3 SWAP1 SUB PUSH1 0x1F AND DUP3 ADD SWAP2 JUMPDEST POP POP PUSH1 0x40 DUP1 MLOAD PUSH1 0x0 DUP2 MSTORE PUSH1 0x20 DUP2 ADD DUP1 DUP4 MSTORE DUP2 MLOAD SWAP1 KECCAK256 SWAP6 SWAP7 POP PUSH2 0x1332 SWAP5 POP DUP7 SWAP4 POP ADD SWAP1 POP PUSH2 0x3E6B JUMP JUMPDEST PUSH1 0x40 MLOAD PUSH1 0x20 DUP2 DUP4 SUB SUB DUP2 MSTORE SWAP1 PUSH1 0x40 MSTORE DUP1 MLOAD SWAP1 PUSH1 0x20 ADD KECCAK256 EQ PUSH2 0x1354 JUMPI SWAP1 POP PUSH2 0xD0C JUMP JUMPDEST PUSH1 0x40 MLOAD DUP1 PUSH1 0xA0 ADD PUSH1 0x40 MSTORE DUP1 PUSH1 0x6C DUP2 MSTORE PUSH1 0x20 ADD PUSH2 0x4140 PUSH1 0x6C SWAP2 CODECOPY SWAP5 SWAP4 POP POP POP POP JUMP JUMPDEST DUP1 MLOAD PUSH1 0x20 DUP1 DUP4 ADD SWAP2 SWAP1 SWAP2 KECCAK256 PUSH1 0x0 DUP2 DUP2 MSTORE PUSH1 0x8 SWAP1 SWAP3 MSTORE PUSH1 0x40 SWAP1 SWAP2 KECCAK256 DUP1 SLOAD PUSH2 0x139A SWAP1 PUSH2 0x3E36 JUMP JUMPDEST ISZERO ISZERO SWAP1 POP PUSH2 0x13C7 JUMPI PUSH1 0x0 DUP2 DUP2 MSTORE PUSH1 0x8 PUSH1 0x20 SWAP1 DUP2 MSTORE PUSH1 0x40 SWAP1 SWAP2 KECCAK256 DUP4 MLOAD PUSH2 0x13C1 SWAP3 DUP6 ADD SWAP1 PUSH2 0x3895 JUMP JUMPDEST POP SWAP2 SWAP1 POP JUMP JUMPDEST PUSH1 0x0 DUP2 DUP2 MSTORE PUSH1 0x8 PUSH1 0x20 MSTORE PUSH1 0x40 SWAP1 KECCAK256 DUP1 SLOAD PUSH2 0x1469 SWAP2 SWAP1 PUSH2 0x13E5 SWAP1 PUSH2 0x3E36 JUMP JUMPDEST DUP1 PUSH1 0x1F ADD PUSH1 0x20 DUP1 SWAP2 DIV MUL PUSH1 0x20 ADD PUSH1 0x40 MLOAD SWAP1 DUP2 ADD PUSH1 0x40 MSTORE DUP1 SWAP3 SWAP2 SWAP1 DUP2 DUP2 MSTORE PUSH1 0x20 ADD DUP3 DUP1 SLOAD PUSH2 0x1411 SWAP1 PUSH2 0x3E36 JUMP JUMPDEST DUP1 ISZERO PUSH2 0x145E JUMPI DUP1 PUSH1 0x1F LT PUSH2 0x1433 JUMPI PUSH2 0x100 DUP1 DUP4 SLOAD DIV MUL DUP4 MSTORE SWAP2 PUSH1 0x20 ADD SWAP2 PUSH2 0x145E JUMP JUMPDEST DUP3 ADD SWAP2 SWAP1 PUSH1 0x0 MSTORE PUSH1 0x20 PUSH1 0x0 KECCAK256 SWAP1 JUMPDEST DUP2 SLOAD DUP2 MSTORE SWAP1 PUSH1 0x1 ADD SWAP1 PUSH1 0x20 ADD DUP1 DUP4 GT PUSH2 0x1441 JUMPI DUP3 SWAP1 SUB PUSH1 0x1F AND DUP3 ADD SWAP2 JUMPDEST POP POP POP POP POP DUP4 PUSH2 0x2E22 JUMP JUMPDEST PUSH2 0x14D2 JUMPI PUSH1 0x40 MLOAD PUSH3 0x461BCD PUSH1 0xE5 SHL DUP2 MSTORE PUSH1 0x20 PUSH1 0x4 DUP3 ADD MSTORE PUSH1 0x34 PUSH1 0x24 DUP3 ADD MSTORE PUSH32 0x4B656363616B496E766572746572204279746573206B656363616B2069736E74 PUSH1 0x44 DUP3 ADD MSTORE PUSH20 0x20756E6971756520212121212121212121212121 PUSH1 0x60 SHL PUSH1 0x64 DUP3 ADD MSTORE PUSH1 0x84 ADD PUSH2 0xCC1 JUMP JUMPDEST SWAP2 SWAP1 POP JUMP JUMPDEST PUSH1 0x60 PUSH2 0x14E2 DUP3 PUSH2 0xEB3 JUMP JUMPDEST PUSH1 0x40 MLOAD PUSH4 0x55B04B0D PUSH1 0xE1 SHL DUP2 MSTORE PUSH20 0x0 SWAP2 PUSH4 0xAB60961A SWAP2 PUSH2 0x1518 SWAP2 SWAP1 PUSH1 0x4 ADD PUSH2 0x3B2D JUMP JUMPDEST PUSH1 0x0 PUSH1 0x40 MLOAD DUP1 DUP4 SUB DUP2 DUP7 GAS DELEGATECALL ISZERO DUP1 ISZERO PUSH2 0x1535 JUMPI RETURNDATASIZE PUSH1 0x0 DUP1 RETURNDATACOPY RETURNDATASIZE PUSH1 0x0 REVERT JUMPDEST POP POP POP POP PUSH1 0x40 MLOAD RETURNDATASIZE PUSH1 0x0 DUP3 RETURNDATACOPY PUSH1 0x1F RETURNDATASIZE SWAP1 DUP2 ADD PUSH1 0x1F NOT AND DUP3 ADD PUSH1 0x40 MSTORE PUSH2 0xD0C SWAP2 SWAP1 DUP2 ADD SWAP1 PUSH2 0x3E87 JUMP JUMPDEST PUSH1 0x0 PUSH2 0xD0C DUP3 PUSH2 0x2EB4 JUMP JUMPDEST PUSH1 0x0 PUSH2 0x1574 DUP4 DUP4 PUSH2 0x28FC JUMP JUMPDEST SWAP1 POP PUSH2 0x157F DUP2 PUSH2 0x155D JUMP JUMPDEST PUSH2 0xD0C JUMPI PUSH1 0x40 MLOAD PUSH3 0x461BCD PUSH1 0xE5 SHL DUP2 MSTORE PUSH1 0x4 ADD PUSH2 0xCC1 SWAP1 PUSH2 0x3DFF JUMP JUMPDEST PUSH1 0x0 PUSH1 0x1 PUSH1 0x1 PUSH1 0xA0 SHL SUB DUP4 AND ISZERO DUP1 ISZERO PUSH2 0x15B2 JUMPI POP DUP2 ISZERO JUMPDEST ISZERO PUSH2 0x15CC JUMPI POP PUSH1 0x0 DUP1 MLOAD PUSH1 0x20 PUSH2 0x41AC DUP4 CODECOPY DUP2 MLOAD SWAP2 MSTORE PUSH2 0xD0C JUMP JUMPDEST PUSH2 0x15D6 DUP4 DUP4 PUSH2 0x17F0 JUMP JUMPDEST PUSH2 0x1060 DUP4 DUP4 PUSH2 0x2203 JUMP JUMPDEST PUSH1 0x0 PUSH1 0x1 PUSH1 0x1 PUSH1 0xA0 SHL SUB DUP4 AND PUSH2 0x15F8 JUMPI POP PUSH1 0x0 PUSH2 0xD0C JUMP JUMPDEST PUSH2 0x1602 DUP4 DUP4 PUSH2 0x2641 JUMP JUMPDEST PUSH1 0x20 ADD MLOAD SWAP4 SWAP3 POP POP POP JUMP JUMPDEST PUSH1 0x40 MLOAD PUSH4 0x18F7A7C3 PUSH1 0xE2 SHL DUP2 MSTORE PUSH1 0x4 DUP2 ADD DUP4 SWAP1 MSTORE PUSH1 0x1 PUSH1 0x1 PUSH1 0xA0 SHL SUB DUP3 AND PUSH1 0x24 DUP3 ADD MSTORE PUSH1 0x0 SWAP1 PUSH2 0x1060 SWAP1 PUSH20 0x0 SWAP1 PUSH4 0x63DE9F0C SWAP1 PUSH1 0x44 ADD JUMPDEST PUSH1 0x0 PUSH1 0x40 MLOAD DUP1 DUP4 SUB DUP2 DUP7 GAS DELEGATECALL ISZERO DUP1 ISZERO PUSH2 0x1674 JUMPI RETURNDATASIZE PUSH1 0x0 DUP1 RETURNDATACOPY RETURNDATASIZE PUSH1 0x0 REVERT JUMPDEST POP POP POP POP PUSH1 0x40 MLOAD RETURNDATASIZE PUSH1 0x0 DUP3 RETURNDATACOPY PUSH1 0x1F RETURNDATASIZE SWAP1 DUP2 ADD PUSH1 0x1F NOT AND DUP3 ADD PUSH1 0x40 MSTORE PUSH2 0xB4A SWAP2 SWAP1 DUP2 ADD SWAP1 PUSH2 0x3E87 JUMP JUMPDEST PUSH1 0x0 PUSH2 0xD0C DUP3 PUSH2 0x1375 JUMP JUMPDEST PUSH1 0x0 PUSH2 0xD0C DUP3 PUSH2 0x2ED6 JUMP JUMPDEST PUSH1 0x40 MLOAD PUSH4 0x2291B3F1 PUSH1 0xE2 SHL DUP2 MSTORE PUSH1 0x4 DUP2 ADD DUP4 SWAP1 MSTORE PUSH1 0x24 DUP2 ADD DUP3 SWAP1 MSTORE PUSH1 0x0 SWAP1 PUSH2 0x1060 SWAP1 PUSH20 0x0 SWAP1 PUSH4 0x8A46CFC4 SWAP1 PUSH1 0x44 ADD PUSH2 0x1657 JUMP JUMPDEST PUSH1 0x0 DUP1 PUSH2 0x1704 DUP4 PUSH2 0x14D7 JUMP JUMPDEST PUSH1 0x40 MLOAD PUSH4 0x29695C3 PUSH1 0xE2 SHL DUP2 MSTORE PUSH20 0x0 SWAP2 PUSH4 0xA5A570C SWAP2 PUSH2 0x173A SWAP2 SWAP1 PUSH1 0x4 ADD PUSH2 0x3C33 JUMP JUMPDEST PUSH1 0x40 DUP1 MLOAD DUP1 DUP4 SUB DUP2 DUP7 GAS DELEGATECALL ISZERO DUP1 ISZERO PUSH2 0x1756 JUMPI RETURNDATASIZE PUSH1 0x0 DUP1 RETURNDATACOPY RETURNDATASIZE PUSH1 0x0 REVERT JUMPDEST POP POP POP POP PUSH1 0x40 MLOAD RETURNDATASIZE PUSH1 0x1F NOT PUSH1 0x1F DUP3 ADD AND DUP3 ADD DUP1 PUSH1 0x40 MSTORE POP DUP2 ADD SWAP1 PUSH2 0xE58 SWAP2 SWAP1 PUSH2 0x3F0C JUMP JUMPDEST PUSH1 0x0 PUSH2 0x1784 PUSH2 0x2B16 JUMP JUMPDEST PUSH2 0x1060 DUP4 DUP4 PUSH2 0x2F61 JUMP JUMPDEST PUSH1 0x0 PUSH1 0x1 PUSH1 0x1 PUSH1 0xA0 SHL SUB DUP3 AND ADDRESS EQ ISZERO PUSH2 0x17A9 JUMPI POP PUSH1 0x1 SWAP2 SWAP1 POP JUMP JUMPDEST PUSH1 0x40 MLOAD PUSH4 0xF1325663 PUSH1 0xE0 SHL DUP2 MSTORE PUSH1 0xB PUSH1 0x4 DUP3 ADD MSTORE PUSH1 0x1 PUSH1 0x1 PUSH1 0xA0 SHL SUB DUP4 AND PUSH1 0x24 DUP3 ADD MSTORE PUSH20 0x0 SWAP1 PUSH4 0xF1325663 SWAP1 PUSH1 0x44 ADD PUSH2 0xFB3 JUMP JUMPDEST PUSH1 0x0 DUP1 PUSH20 0x0 PUSH4 0xD5F0B04D DUP6 PUSH1 0x0 PUSH1 0x40 MLOAD DUP4 PUSH4 0xFFFFFFFF AND PUSH1 0xE0 SHL DUP2 MSTORE PUSH1 0x4 ADD PUSH2 0x182D SWAP3 SWAP2 SWAP1 PUSH2 0x3AB8 JUMP JUMPDEST PUSH1 0x20 PUSH1 0x40 MLOAD DUP1 DUP4 SUB DUP2 DUP7 GAS DELEGATECALL ISZERO DUP1 ISZERO PUSH2 0x184A JUMPI RETURNDATASIZE PUSH1 0x0 DUP1 RETURNDATACOPY RETURNDATASIZE PUSH1 0x0 REVERT JUMPDEST POP POP POP POP PUSH1 0x40 MLOAD RETURNDATASIZE PUSH1 0x1F NOT PUSH1 0x1F DUP3 ADD AND DUP3 ADD DUP1 PUSH1 0x40 MSTORE POP DUP2 ADD SWAP1 PUSH2 0x186E SWAP2 SWAP1 PUSH2 0x396F JUMP JUMPDEST PUSH1 0x0 DUP2 DUP2 MSTORE PUSH1 0x3 PUSH1 0x20 MSTORE PUSH1 0x40 SWAP1 KECCAK256 DUP1 SLOAD SWAP1 SWAP4 POP SWAP1 SWAP2 POP PUSH3 0x10000 SWAP1 DIV PUSH1 0x1 PUSH1 0x1 PUSH1 0x40 SHL SUB AND PUSH2 0x1A00 JUMPI PUSH1 0x40 MLOAD PUSH4 0x4DD11F0F PUSH1 0xE1 SHL DUP2 MSTORE PUSH1 0x1 PUSH1 0x1 PUSH1 0xA0 SHL SUB DUP6 AND PUSH1 0x4 DUP3 ADD MSTORE PUSH1 0x0 PUSH1 0x24 DUP3 ADD MSTORE PUSH1 0x1 PUSH1 0x44 DUP3 ADD MSTORE PUSH20 0x0 SWAP1 PUSH4 0x9BA23E1E SWAP1 PUSH1 0x64 ADD PUSH1 0x60 PUSH1 0x40 MLOAD DUP1 DUP4 SUB DUP2 DUP7 GAS DELEGATECALL ISZERO DUP1 ISZERO PUSH2 0x18FD JUMPI RETURNDATASIZE PUSH1 0x0 DUP1 RETURNDATACOPY RETURNDATASIZE PUSH1 0x0 REVERT JUMPDEST POP POP POP POP PUSH1 0x40 MLOAD RETURNDATASIZE PUSH1 0x1F NOT PUSH1 0x1F DUP3 ADD AND DUP3 ADD DUP1 PUSH1 0x40 MSTORE POP DUP2 ADD SWAP1 PUSH2 0x1921 SWAP2 SWAP1 PUSH2 0x3F30 JUMP JUMPDEST PUSH1 0x0 DUP3 DUP2 MSTORE PUSH1 0x3 PUSH1 0x20 SWAP1 DUP2 MSTORE PUSH1 0x40 SWAP2 DUP3 SWAP1 KECCAK256 DUP4 MLOAD DUP2 SLOAD SWAP3 DUP6 ADD MLOAD SWAP5 DUP5 ADD MLOAD PUSH1 0x1 PUSH1 0x1 PUSH1 0x40 SHL SUB AND PUSH3 0x10000 MUL PUSH10 0xFFFFFFFFFFFFFFFF0000 NOT SWAP6 ISZERO ISZERO PUSH2 0x100 MUL PUSH2 0xFFFF NOT SWAP1 SWAP5 AND PUSH1 0xFF SWAP1 SWAP3 AND SWAP2 SWAP1 SWAP2 OR SWAP3 SWAP1 SWAP3 OR SWAP4 SWAP1 SWAP4 AND OR SWAP1 SWAP2 SSTORE MLOAD PUSH4 0x16061A71 PUSH1 0xE2 SHL DUP2 MSTORE PUSH20 0x0 SWAP1 PUSH4 0x581869C4 SWAP1 PUSH2 0x19BD SWAP1 PUSH1 0x2 SWAP1 DUP6 SWAP1 PUSH1 0x4 ADD SWAP2 DUP3 MSTORE PUSH1 0x20 DUP3 ADD MSTORE PUSH1 0x40 ADD SWAP1 JUMP JUMPDEST PUSH1 0x20 PUSH1 0x40 MLOAD DUP1 DUP4 SUB DUP2 DUP7 GAS DELEGATECALL ISZERO DUP1 ISZERO PUSH2 0x19DA JUMPI RETURNDATASIZE PUSH1 0x0 DUP1 RETURNDATACOPY RETURNDATASIZE PUSH1 0x0 REVERT JUMPDEST POP POP POP POP PUSH1 0x40 MLOAD RETURNDATASIZE PUSH1 0x1F NOT PUSH1 0x1F DUP3 ADD AND DUP3 ADD DUP1 PUSH1 0x40 MSTORE POP DUP2 ADD SWAP1 PUSH2 0x19FE SWAP2 SWAP1 PUSH2 0x393C JUMP JUMPDEST POP JUMPDEST DUP2 SLOAD PUSH3 0x10000 SWAP1 DIV PUSH1 0x1 PUSH1 0x1 PUSH1 0x40 SHL SUB AND PUSH2 0x1A1D JUMPI PUSH2 0x1A1D PUSH2 0x3FA8 JUMP JUMPDEST DUP2 SLOAD PUSH3 0x10000 SWAP1 DIV PUSH2 0x100 AND PUSH2 0x1A33 JUMPI POP POP POP POP JUMP JUMPDEST PUSH1 0x40 DUP1 MLOAD PUSH1 0x60 DUP2 ADD DUP3 MSTORE DUP4 SLOAD PUSH1 0x0 DUP2 SWAP1 SIGNEXTEND DUP3 MSTORE PUSH2 0x100 DUP2 DIV PUSH1 0xFF AND ISZERO ISZERO PUSH1 0x20 DUP4 ADD MSTORE PUSH3 0x10000 SWAP1 DIV PUSH1 0x1 PUSH1 0x1 PUSH1 0x40 SHL SUB AND DUP2 DUP4 ADD MSTORE SWAP1 MLOAD PUSH4 0xD5F0B04D PUSH1 0xE0 SHL DUP2 MSTORE PUSH20 0x0 SWAP1 PUSH4 0xD5F0B04D SWAP1 PUSH2 0x1AA0 SWAP1 DUP9 SWAP1 DUP9 SWAP1 PUSH1 0x4 ADD PUSH2 0x3AB8 JUMP JUMPDEST PUSH1 0x20 PUSH1 0x40 MLOAD DUP1 DUP4 SUB DUP2 DUP7 GAS DELEGATECALL ISZERO DUP1 ISZERO PUSH2 0x1ABD JUMPI RETURNDATASIZE PUSH1 0x0 DUP1 RETURNDATACOPY RETURNDATASIZE PUSH1 0x0 REVERT JUMPDEST POP POP POP POP PUSH1 0x40 MLOAD RETURNDATASIZE PUSH1 0x1F NOT PUSH1 0x1F DUP3 ADD AND DUP3 ADD DUP1 PUSH1 0x40 MSTORE POP DUP2 ADD SWAP1 PUSH2 0x1AE1 SWAP2 SWAP1 PUSH2 0x396F JUMP JUMPDEST PUSH1 0x0 DUP2 DUP2 MSTORE PUSH1 0x3 PUSH1 0x20 MSTORE PUSH1 0x40 SWAP1 KECCAK256 DUP1 SLOAD SWAP1 SWAP5 POP SWAP1 SWAP3 POP PUSH3 0x10000 SWAP1 DIV PUSH1 0x1 PUSH1 0x1 PUSH1 0x40 SHL SUB AND PUSH2 0x1C68 JUMPI PUSH1 0x40 MLOAD PUSH4 0x543AF627 PUSH1 0xE0 SHL DUP2 MSTORE PUSH20 0x0 SWAP1 PUSH4 0x543AF627 SWAP1 PUSH2 0x1B48 SWAP1 DUP9 SWAP1 DUP9 SWAP1 DUP7 SWAP1 PUSH1 0x1 SWAP1 PUSH1 0x4 ADD PUSH2 0x3FBE JUMP JUMPDEST PUSH1 0x60 PUSH1 0x40 MLOAD DUP1 DUP4 SUB DUP2 DUP7 GAS DELEGATECALL ISZERO DUP1 ISZERO PUSH2 0x1B65 JUMPI RETURNDATASIZE PUSH1 0x0 DUP1 RETURNDATACOPY RETURNDATASIZE PUSH1 0x0 REVERT JUMPDEST POP POP POP POP PUSH1 0x40 MLOAD RETURNDATASIZE PUSH1 0x1F NOT PUSH1 0x1F DUP3 ADD AND DUP3 ADD DUP1 PUSH1 0x40 MSTORE POP DUP2 ADD SWAP1 PUSH2 0x1B89 SWAP2 SWAP1 PUSH2 0x3F30 JUMP JUMPDEST PUSH1 0x0 DUP4 DUP2 MSTORE PUSH1 0x3 PUSH1 0x20 SWAP1 DUP2 MSTORE PUSH1 0x40 SWAP2 DUP3 SWAP1 KECCAK256 DUP4 MLOAD DUP2 SLOAD SWAP3 DUP6 ADD MLOAD SWAP5 DUP5 ADD MLOAD PUSH1 0x1 PUSH1 0x1 PUSH1 0x40 SHL SUB AND PUSH3 0x10000 MUL PUSH10 0xFFFFFFFFFFFFFFFF0000 NOT SWAP6 ISZERO ISZERO PUSH2 0x100 MUL PUSH2 0xFFFF NOT SWAP1 SWAP5 AND PUSH1 0xFF SWAP1 SWAP3 AND SWAP2 SWAP1 SWAP2 OR SWAP3 SWAP1 SWAP3 OR SWAP4 SWAP1 SWAP4 AND OR SWAP1 SWAP2 SSTORE MLOAD PUSH4 0x16061A71 PUSH1 0xE2 SHL DUP2 MSTORE PUSH20 0x0 SWAP1 PUSH4 0x581869C4 SWAP1 PUSH2 0x1C25 SWAP1 PUSH1 0x2 SWAP1 DUP7 SWAP1 PUSH1 0x4 ADD SWAP2 DUP3 MSTORE PUSH1 0x20 DUP3 ADD MSTORE PUSH1 0x40 ADD SWAP1 JUMP JUMPDEST PUSH1 0x20 PUSH1 0x40 MLOAD DUP1 DUP4 SUB DUP2 DUP7 GAS DELEGATECALL ISZERO DUP1 ISZERO PUSH2 0x1C42 JUMPI RETURNDATASIZE PUSH1 0x0 DUP1 RETURNDATACOPY RETURNDATASIZE PUSH1 0x0 REVERT JUMPDEST POP POP POP POP PUSH1 0x40 MLOAD RETURNDATASIZE PUSH1 0x1F NOT PUSH1 0x1F DUP3 ADD AND DUP3 ADD DUP1 PUSH1 0x40 MSTORE POP DUP2 ADD SWAP1 PUSH2 0x1C66 SWAP2 SWAP1 PUSH2 0x393C JUMP JUMPDEST POP JUMPDEST DUP3 SLOAD PUSH3 0x10000 SWAP1 DIV PUSH1 0x1 PUSH1 0x1 PUSH1 0x40 SHL SUB AND PUSH2 0x1C85 JUMPI PUSH2 0x1C85 PUSH2 0x3FA8 JUMP JUMPDEST POP POP POP POP POP JUMP JUMPDEST PUSH2 0x1C94 PUSH2 0x323E JUMP JUMPDEST PUSH2 0xCCA PUSH1 0x0 PUSH2 0x3298 JUMP JUMPDEST PUSH2 0x1CA6 PUSH2 0x2B16 JUMP JUMPDEST PUSH1 0x40 MLOAD PUSH4 0x1FFC9A7 PUSH1 0xE0 SHL DUP2 MSTORE PUSH4 0x15D37895 PUSH1 0xE3 SHL PUSH1 0x4 DUP3 ADD MSTORE PUSH1 0x1 PUSH1 0x1 PUSH1 0xA0 SHL SUB DUP3 AND SWAP1 PUSH4 0x1FFC9A7 SWAP1 PUSH1 0x24 ADD PUSH1 0x20 PUSH1 0x40 MLOAD DUP1 DUP4 SUB DUP2 DUP7 GAS STATICCALL ISZERO DUP1 ISZERO PUSH2 0x1CF1 JUMPI RETURNDATASIZE PUSH1 0x0 DUP1 RETURNDATACOPY RETURNDATASIZE PUSH1 0x0 REVERT JUMPDEST POP POP POP POP PUSH1 0x40 MLOAD RETURNDATASIZE PUSH1 0x1F NOT PUSH1 0x1F DUP3 ADD AND DUP3 ADD DUP1 PUSH1 0x40 MSTORE POP DUP2 ADD SWAP1 PUSH2 0x1D15 SWAP2 SWAP1 PUSH2 0x393C JUMP JUMPDEST PUSH2 0x1D6D JUMPI PUSH1 0x40 MLOAD PUSH3 0x461BCD PUSH1 0xE5 SHL DUP2 MSTORE PUSH1 0x20 PUSH1 0x4 DUP3 ADD MSTORE PUSH1 0x24 DUP1 DUP3 ADD MSTORE PUSH32 0x636F6E7472616374206D75737420626520495265706F7369746F7279436F6E74 PUSH1 0x44 DUP3 ADD MSTORE PUSH4 0x1C9858DD PUSH1 0xE2 SHL PUSH1 0x64 DUP3 ADD MSTORE PUSH1 0x84 ADD PUSH2 0xCC1 JUMP JUMPDEST PUSH1 0x0 JUMPDEST PUSH1 0xD SLOAD DUP2 LT ISZERO PUSH2 0x1E56 JUMPI PUSH1 0xC PUSH1 0x0 DUP4 PUSH1 0x1 PUSH1 0x1 PUSH1 0xA0 SHL SUB AND PUSH4 0xAF640D0F PUSH1 0x40 MLOAD DUP2 PUSH4 0xFFFFFFFF AND PUSH1 0xE0 SHL DUP2 MSTORE PUSH1 0x4 ADD PUSH1 0x20 PUSH1 0x40 MLOAD DUP1 DUP4 SUB DUP2 DUP7 GAS STATICCALL ISZERO DUP1 ISZERO PUSH2 0x1DBC JUMPI RETURNDATASIZE PUSH1 0x0 DUP1 RETURNDATACOPY RETURNDATASIZE PUSH1 0x0 REVERT JUMPDEST POP POP POP POP PUSH1 0x40 MLOAD RETURNDATASIZE PUSH1 0x1F NOT PUSH1 0x1F DUP3 ADD AND DUP3 ADD DUP1 PUSH1 0x40 MSTORE POP DUP2 ADD SWAP1 PUSH2 0x1DE0 SWAP2 SWAP1 PUSH2 0x396F JUMP JUMPDEST DUP2 MSTORE PUSH1 0x20 ADD SWAP1 DUP2 MSTORE PUSH1 0x20 ADD PUSH1 0x0 KECCAK256 PUSH1 0x0 PUSH1 0xD DUP4 DUP2 SLOAD DUP2 LT PUSH2 0x1E03 JUMPI PUSH2 0x1E03 PUSH2 0x3959 JUMP JUMPDEST PUSH1 0x0 SWAP2 DUP3 MSTORE PUSH1 0x20 DUP1 DUP4 KECCAK256 PUSH1 0x8 DUP4 DIV ADD SLOAD PUSH1 0x7 SWAP1 SWAP3 AND PUSH1 0x4 MUL PUSH2 0x100 EXP SWAP1 SWAP2 DIV PUSH1 0xE0 SHL PUSH1 0x1 PUSH1 0x1 PUSH1 0xE0 SHL SUB NOT AND DUP4 MSTORE DUP3 ADD SWAP3 SWAP1 SWAP3 MSTORE PUSH1 0x40 ADD SWAP1 KECCAK256 DUP1 SLOAD PUSH1 0xFF NOT AND SWAP1 SSTORE DUP1 PUSH2 0x1E4E DUP2 PUSH2 0x39C4 JUMP JUMPDEST SWAP2 POP POP PUSH2 0x1D70 JUMP JUMPDEST POP PUSH1 0x40 MLOAD PUSH4 0x16F4B929 PUSH1 0xE2 SHL DUP2 MSTORE PUSH1 0xA PUSH1 0x4 DUP3 ADD MSTORE PUSH1 0x1 PUSH1 0x1 PUSH1 0xA0 SHL SUB DUP3 AND PUSH1 0x24 DUP3 ADD MSTORE PUSH20 0x0 SWAP1 PUSH4 0x5BD2E4A4 SWAP1 PUSH1 0x44 ADD PUSH1 0x20 PUSH1 0x40 MLOAD DUP1 DUP4 SUB DUP2 DUP7 GAS DELEGATECALL ISZERO DUP1 ISZERO PUSH2 0x1EB6 JUMPI RETURNDATASIZE PUSH1 0x0 DUP1 RETURNDATACOPY RETURNDATASIZE PUSH1 0x0 REVERT JUMPDEST POP POP POP POP PUSH1 0x40 MLOAD RETURNDATASIZE PUSH1 0x1F NOT PUSH1 0x1F DUP3 ADD AND DUP3 ADD DUP1 PUSH1 0x40 MSTORE POP DUP2 ADD SWAP1 PUSH2 0x1EDA SWAP2 SWAP1 PUSH2 0x393C JUMP JUMPDEST POP DUP1 PUSH1 0x9 PUSH1 0x0 DUP4 PUSH1 0x1 PUSH1 0x1 PUSH1 0xA0 SHL SUB AND PUSH4 0xAF640D0F PUSH1 0x40 MLOAD DUP2 PUSH4 0xFFFFFFFF AND PUSH1 0xE0 SHL DUP2 MSTORE PUSH1 0x4 ADD PUSH1 0x20 PUSH1 0x40 MLOAD DUP1 DUP4 SUB DUP2 DUP7 GAS STATICCALL ISZERO DUP1 ISZERO PUSH2 0x1F1E JUMPI RETURNDATASIZE PUSH1 0x0 DUP1 RETURNDATACOPY RETURNDATASIZE PUSH1 0x0 REVERT JUMPDEST POP POP POP POP PUSH1 0x40 MLOAD RETURNDATASIZE PUSH1 0x1F NOT PUSH1 0x1F DUP3 ADD AND DUP3 ADD DUP1 PUSH1 0x40 MSTORE POP DUP2 ADD SWAP1 PUSH2 0x1F42 SWAP2 SWAP1 PUSH2 0x396F JUMP JUMPDEST DUP2 MSTORE PUSH1 0x20 ADD SWAP1 DUP2 MSTORE PUSH1 0x20 ADD PUSH1 0x0 KECCAK256 PUSH1 0x0 PUSH2 0x100 EXP DUP2 SLOAD DUP2 PUSH1 0x1 PUSH1 0x1 PUSH1 0xA0 SHL SUB MUL NOT AND SWAP1 DUP4 PUSH1 0x1 PUSH1 0x1 PUSH1 0xA0 SHL SUB AND MUL OR SWAP1 SSTORE POP POP JUMP JUMPDEST PUSH1 0x4 SLOAD PUSH1 0x0 SWAP1 JUMPDEST DUP1 ISZERO PUSH2 0x20A2 JUMPI PUSH1 0x1 PUSH1 0x1 PUSH1 0xA0 SHL SUB DUP5 AND PUSH1 0x4 PUSH2 0x1F9B PUSH1 0x1 DUP5 PUSH2 0x4015 JUMP JUMPDEST DUP2 SLOAD DUP2 LT PUSH2 0x1FAB JUMPI PUSH2 0x1FAB PUSH2 0x3959 JUMP JUMPDEST PUSH1 0x0 SWAP2 DUP3 MSTORE PUSH1 0x20 SWAP1 SWAP2 KECCAK256 PUSH1 0x2 SWAP1 SWAP2 MUL ADD SLOAD PUSH1 0x1 PUSH1 0x1 PUSH1 0xA0 SHL SUB AND EQ DUP1 ISZERO PUSH2 0x2000 JUMPI POP PUSH1 0x4 PUSH2 0x1FDA PUSH1 0x1 DUP4 PUSH2 0x4015 JUMP JUMPDEST DUP2 SLOAD DUP2 LT PUSH2 0x1FEA JUMPI PUSH2 0x1FEA PUSH2 0x3959 JUMP JUMPDEST SWAP1 PUSH1 0x0 MSTORE PUSH1 0x20 PUSH1 0x0 KECCAK256 SWAP1 PUSH1 0x2 MUL ADD PUSH1 0x1 ADD SLOAD PUSH1 0x0 EQ JUMPDEST DUP1 PUSH2 0x2081 JUMPI POP PUSH1 0x1 PUSH1 0x1 PUSH1 0xA0 SHL SUB DUP5 AND PUSH1 0x4 PUSH2 0x201D PUSH1 0x1 DUP5 PUSH2 0x4015 JUMP JUMPDEST DUP2 SLOAD DUP2 LT PUSH2 0x202D JUMPI PUSH2 0x202D PUSH2 0x3959 JUMP JUMPDEST PUSH1 0x0 SWAP2 DUP3 MSTORE PUSH1 0x20 SWAP1 SWAP2 KECCAK256 PUSH1 0x2 SWAP1 SWAP2 MUL ADD SLOAD PUSH1 0x1 PUSH1 0x1 PUSH1 0xA0 SHL SUB AND EQ DUP1 ISZERO PUSH2 0x2081 JUMPI POP DUP3 PUSH1 0x4 PUSH2 0x205D PUSH1 0x1 DUP5 PUSH2 0x4015 JUMP JUMPDEST DUP2 SLOAD DUP2 LT PUSH2 0x206D JUMPI PUSH2 0x206D PUSH2 0x3959 JUMP JUMPDEST SWAP1 PUSH1 0x0 MSTORE PUSH1 0x20 PUSH1 0x0 KECCAK256 SWAP1 PUSH1 0x2 MUL ADD PUSH1 0x1 ADD SLOAD EQ JUMPDEST ISZERO PUSH2 0x2090 JUMPI PUSH1 0x1 SWAP2 POP POP PUSH2 0xD0C JUMP JUMPDEST DUP1 PUSH2 0x209A DUP2 PUSH2 0x402C JUMP JUMPDEST SWAP2 POP POP PUSH2 0x1F7E JUMP JUMPDEST POP PUSH1 0x0 SWAP4 SWAP3 POP POP POP JUMP JUMPDEST PUSH1 0x0 PUSH2 0x20B6 PUSH2 0x2B16 JUMP JUMPDEST PUSH2 0x1060 DUP4 DUP4 PUSH2 0x32E8 JUMP JUMPDEST PUSH1 0x0 PUSH2 0xD0C DUP3 PUSH1 0x0 PUSH2 0xD12 JUMP JUMPDEST PUSH1 0x0 PUSH2 0x20D7 PUSH2 0x2B16 JUMP JUMPDEST PUSH2 0xD0C DUP3 PUSH2 0x3444 JUMP JUMPDEST PUSH2 0x20E8 PUSH2 0x2B16 JUMP JUMPDEST PUSH1 0x40 MLOAD PUSH4 0x16F4B929 PUSH1 0xE2 SHL DUP2 MSTORE PUSH1 0xB PUSH1 0x4 DUP3 ADD MSTORE PUSH1 0x1 PUSH1 0x1 PUSH1 0xA0 SHL SUB DUP3 AND PUSH1 0x24 DUP3 ADD MSTORE PUSH20 0x0 SWAP1 PUSH4 0x5BD2E4A4 SWAP1 PUSH1 0x44 ADD JUMPDEST PUSH1 0x20 PUSH1 0x40 MLOAD DUP1 DUP4 SUB DUP2 DUP7 GAS DELEGATECALL ISZERO DUP1 ISZERO PUSH2 0x2148 JUMPI RETURNDATASIZE PUSH1 0x0 DUP1 RETURNDATACOPY RETURNDATASIZE PUSH1 0x0 REVERT JUMPDEST POP POP POP POP PUSH1 0x40 MLOAD RETURNDATASIZE PUSH1 0x1F NOT PUSH1 0x1F DUP3 ADD AND DUP3 ADD DUP1 PUSH1 0x40 MSTORE POP DUP2 ADD SWAP1 PUSH2 0x216C SWAP2 SWAP1 PUSH2 0x393C JUMP JUMPDEST POP POP JUMP JUMPDEST PUSH1 0x60 PUSH1 0x0 DUP1 MLOAD PUSH1 0x20 PUSH2 0x41AC DUP4 CODECOPY DUP2 MLOAD SWAP2 MSTORE DUP3 EQ ISZERO PUSH2 0x2193 JUMPI PUSH2 0xD0C PUSH1 0x0 DUP1 PUSH2 0x1067 JUMP JUMPDEST PUSH2 0x219C DUP3 PUSH2 0xDDD JUMP JUMPDEST PUSH2 0x21BF JUMPI PUSH1 0x40 MLOAD DUP1 PUSH1 0xA0 ADD PUSH1 0x40 MSTORE DUP1 PUSH1 0x6C DUP2 MSTORE PUSH1 0x20 ADD PUSH2 0x4140 PUSH1 0x6C SWAP2 CODECOPY SWAP3 SWAP2 POP POP JUMP JUMPDEST PUSH1 0x0 DUP1 PUSH2 0x21CB DUP5 PUSH2 0xE06 JUMP JUMPDEST SWAP2 POP SWAP2 POP PUSH2 0xDC8 DUP3 DUP3 PUSH2 0x1067 JUMP JUMPDEST PUSH1 0x0 DUP2 PUSH1 0x1 PUSH1 0x1 PUSH1 0x40 SHL SUB AND PUSH1 0xFF PUSH2 0x21F0 DUP6 PUSH2 0xE61 JUMP JUMPDEST AND PUSH1 0x1 PUSH1 0x1 PUSH1 0x40 SHL SUB AND EQ SWAP1 POP SWAP3 SWAP2 POP POP JUMP JUMPDEST PUSH1 0x0 PUSH2 0x1060 DUP4 DUP4 PUSH2 0x3502 JUMP JUMPDEST PUSH1 0x0 PUSH1 0x0 DUP1 MLOAD PUSH1 0x20 PUSH2 0x41AC DUP4 CODECOPY DUP2 MLOAD SWAP2 MSTORE DUP3 EQ ISZERO PUSH2 0x2232 JUMPI PUSH2 0xD0C PUSH1 0x0 DUP1 PUSH2 0x2635 JUMP JUMPDEST PUSH2 0x223B DUP3 PUSH2 0xDDD JUMP JUMPDEST PUSH2 0x2247 JUMPI POP PUSH1 0x1 SWAP2 SWAP1 POP JUMP JUMPDEST PUSH1 0x0 DUP1 PUSH2 0x2253 DUP5 PUSH2 0xE06 JUMP JUMPDEST SWAP2 POP SWAP2 POP PUSH2 0xDC8 DUP3 DUP3 PUSH2 0x2635 JUMP JUMPDEST PUSH1 0x60 PUSH2 0xD0C DUP3 PUSH1 0x0 PUSH2 0x1067 JUMP JUMPDEST PUSH1 0x6 SLOAD PUSH1 0x0 SWAP1 DUP2 JUMPDEST DUP2 DUP2 LT ISZERO PUSH2 0x2375 JUMPI DUP5 PUSH1 0x1 PUSH1 0x1 PUSH1 0xA0 SHL SUB AND PUSH1 0x6 DUP3 DUP2 SLOAD DUP2 LT PUSH2 0x229B JUMPI PUSH2 0x229B PUSH2 0x3959 JUMP JUMPDEST PUSH1 0x0 SWAP2 DUP3 MSTORE PUSH1 0x20 SWAP1 SWAP2 KECCAK256 PUSH1 0x2 SWAP1 SWAP2 MUL ADD SLOAD PUSH1 0x1 PUSH1 0x1 PUSH1 0xA0 SHL SUB AND EQ DUP1 ISZERO PUSH2 0x22E6 JUMPI POP PUSH1 0x6 DUP2 DUP2 SLOAD DUP2 LT PUSH2 0x22D0 JUMPI PUSH2 0x22D0 PUSH2 0x3959 JUMP JUMPDEST SWAP1 PUSH1 0x0 MSTORE PUSH1 0x20 PUSH1 0x0 KECCAK256 SWAP1 PUSH1 0x2 MUL ADD PUSH1 0x1 ADD SLOAD PUSH1 0x0 EQ JUMPDEST DUP1 PUSH2 0x2353 JUMPI POP DUP5 PUSH1 0x1 PUSH1 0x1 PUSH1 0xA0 SHL SUB AND PUSH1 0x6 DUP3 DUP2 SLOAD DUP2 LT PUSH2 0x2309 JUMPI PUSH2 0x2309 PUSH2 0x3959 JUMP JUMPDEST PUSH1 0x0 SWAP2 DUP3 MSTORE PUSH1 0x20 SWAP1 SWAP2 KECCAK256 PUSH1 0x2 SWAP1 SWAP2 MUL ADD SLOAD PUSH1 0x1 PUSH1 0x1 PUSH1 0xA0 SHL SUB AND EQ DUP1 ISZERO PUSH2 0x2353 JUMPI POP DUP4 PUSH1 0x6 DUP3 DUP2 SLOAD DUP2 LT PUSH2 0x233F JUMPI PUSH2 0x233F PUSH2 0x3959 JUMP JUMPDEST SWAP1 PUSH1 0x0 MSTORE PUSH1 0x20 PUSH1 0x0 KECCAK256 SWAP1 PUSH1 0x2 MUL ADD PUSH1 0x1 ADD SLOAD EQ JUMPDEST ISZERO PUSH2 0x2363 JUMPI PUSH1 0x1 SWAP3 POP POP POP PUSH2 0xD0C JUMP JUMPDEST DUP1 PUSH2 0x236D DUP2 PUSH2 0x39C4 JUMP JUMPDEST SWAP2 POP POP PUSH2 0x2276 JUMP JUMPDEST POP PUSH1 0x0 SWAP5 SWAP4 POP POP POP POP JUMP JUMPDEST PUSH2 0x2388 PUSH2 0x2B16 JUMP JUMPDEST PUSH1 0x40 MLOAD PUSH4 0xEDEFE12D PUSH1 0xE0 SHL DUP2 MSTORE PUSH1 0xB PUSH1 0x4 DUP3 ADD MSTORE PUSH1 0x1 PUSH1 0x1 PUSH1 0xA0 SHL SUB DUP3 AND PUSH1 0x24 DUP3 ADD MSTORE PUSH20 0x0 SWAP1 PUSH4 0xEDEFE12D SWAP1 PUSH1 0x44 ADD PUSH2 0x212B JUMP JUMPDEST PUSH1 0x0 PUSH2 0x23DC DUP4 PUSH1 0x0 PUSH2 0x1F77 JUMP JUMPDEST ISZERO PUSH2 0x23E9 JUMPI POP PUSH1 0x1 PUSH2 0xD0C JUMP JUMPDEST DUP2 ISZERO PUSH2 0x2406 JUMPI PUSH2 0x23F9 DUP4 DUP4 PUSH2 0x1F77 JUMP JUMPDEST ISZERO PUSH2 0x2406 JUMPI POP PUSH1 0x1 PUSH2 0xD0C JUMP JUMPDEST PUSH1 0x0 DUP4 PUSH1 0x1 PUSH1 0x1 PUSH1 0xA0 SHL SUB AND PUSH4 0x373A7FB4 PUSH1 0x40 MLOAD DUP2 PUSH4 0xFFFFFFFF AND PUSH1 0xE0 SHL DUP2 MSTORE PUSH1 0x4 ADD PUSH1 0x20 PUSH1 0x40 MLOAD DUP1 DUP4 SUB DUP2 DUP7 GAS STATICCALL ISZERO DUP1 ISZERO PUSH2 0x2446 JUMPI RETURNDATASIZE PUSH1 0x0 DUP1 RETURNDATACOPY RETURNDATASIZE PUSH1 0x0 REVERT JUMPDEST POP POP POP POP PUSH1 0x40 MLOAD RETURNDATASIZE PUSH1 0x1F NOT PUSH1 0x1F DUP3 ADD AND DUP3 ADD DUP1 PUSH1 0x40 MSTORE POP DUP2 ADD SWAP1 PUSH2 0x246A SWAP2 SWAP1 PUSH2 0x4043 JUMP JUMPDEST SWAP1 POP PUSH2 0x2475 DUP2 PUSH2 0x16A7 JUMP JUMPDEST PUSH2 0x2483 JUMPI PUSH1 0x0 SWAP2 POP POP PUSH2 0xD0C JUMP JUMPDEST PUSH1 0x40 MLOAD PUSH4 0x2B43F033 PUSH1 0xE2 SHL DUP2 MSTORE PUSH1 0x1 PUSH1 0x1 PUSH1 0xA0 SHL SUB DUP3 AND SWAP1 PUSH4 0xAD0FC0CC SWAP1 PUSH2 0x24B1 SWAP1 DUP8 SWAP1 DUP8 SWAP1 PUSH1 0x4 ADD PUSH2 0x3AB8 JUMP JUMPDEST PUSH1 0x20 PUSH1 0x40 MLOAD DUP1 DUP4 SUB DUP2 DUP7 GAS STATICCALL ISZERO DUP1 ISZERO PUSH2 0x24CE JUMPI RETURNDATASIZE PUSH1 0x0 DUP1 RETURNDATACOPY RETURNDATASIZE PUSH1 0x0 REVERT JUMPDEST POP POP POP POP PUSH1 0x40 MLOAD RETURNDATASIZE PUSH1 0x1F NOT PUSH1 0x1F DUP3 ADD AND DUP3 ADD DUP1 PUSH1 0x40 MSTORE POP DUP2 ADD SWAP1 PUSH2 0xDC8 SWAP2 SWAP1 PUSH2 0x393C JUMP JUMPDEST PUSH1 0x0 PUSH2 0x24FE DUP4 DUP4 PUSH2 0x226E JUMP JUMPDEST ISZERO PUSH2 0x250B JUMPI POP PUSH1 0x0 PUSH2 0xD0C JUMP JUMPDEST PUSH2 0x2515 DUP4 DUP4 PUSH2 0x1F77 JUMP JUMPDEST ISZERO PUSH2 0x2522 JUMPI POP PUSH1 0x1 PUSH2 0xD0C JUMP JUMPDEST PUSH1 0x7 SLOAD PUSH1 0xFF AND ISZERO SWAP4 SWAP3 POP POP POP JUMP JUMPDEST PUSH1 0x0 DUP1 PUSH2 0x253C DUP4 PUSH2 0x14D7 JUMP JUMPDEST PUSH1 0x40 MLOAD PUSH4 0x9AC1B345 PUSH1 0xE0 SHL DUP2 MSTORE PUSH20 0x0 SWAP2 PUSH4 0x9AC1B345 SWAP2 PUSH2 0x2572 SWAP2 SWAP1 PUSH1 0x4 ADD PUSH2 0x3C33 JUMP JUMPDEST PUSH1 0x40 DUP1 MLOAD DUP1 DUP4 SUB DUP2 DUP7 GAS DELEGATECALL ISZERO DUP1 ISZERO PUSH2 0x258E JUMPI RETURNDATASIZE PUSH1 0x0 DUP1 RETURNDATACOPY RETURNDATASIZE PUSH1 0x0 REVERT JUMPDEST POP POP POP POP PUSH1 0x40 MLOAD RETURNDATASIZE PUSH1 0x1F NOT PUSH1 0x1F DUP3 ADD AND DUP3 ADD DUP1 PUSH1 0x40 MSTORE POP DUP2 ADD SWAP1 PUSH2 0xE58 SWAP2 SWAP1 PUSH2 0x4060 JUMP JUMPDEST PUSH1 0x40 MLOAD PUSH4 0x2431A7CF PUSH1 0xE0 SHL DUP2 MSTORE PUSH1 0x0 SWAP1 PUSH2 0xD0C SWAP1 PUSH20 0x0 SWAP1 PUSH4 0x2431A7CF SWAP1 PUSH2 0x25F0 SWAP1 DUP7 SWAP1 PUSH1 0x4 ADD PUSH2 0x3C33 JUMP JUMPDEST PUSH1 0x0 PUSH1 0x40 MLOAD DUP1 DUP4 SUB DUP2 DUP7 GAS DELEGATECALL ISZERO DUP1 ISZERO PUSH2 0x260D JUMPI RETURNDATASIZE PUSH1 0x0 DUP1 RETURNDATACOPY RETURNDATASIZE PUSH1 0x0 REVERT JUMPDEST POP POP POP POP PUSH1 0x40 MLOAD RETURNDATASIZE PUSH1 0x0 DUP3 RETURNDATACOPY PUSH1 0x1F RETURNDATASIZE SWAP1 DUP2 ADD PUSH1 0x1F NOT AND DUP3 ADD PUSH1 0x40 MSTORE PUSH2 0x812 SWAP2 SWAP1 DUP2 ADD SWAP1 PUSH2 0x4085 JUMP JUMPDEST PUSH1 0x0 PUSH2 0x1060 DUP4 DUP4 PUSH2 0x3540 JUMP JUMPDEST PUSH1 0x40 DUP1 MLOAD PUSH1 0x60 DUP2 ADD DUP3 MSTORE PUSH1 0x0 DUP1 DUP3 MSTORE PUSH1 0x20 DUP3 ADD DUP2 SWAP1 MSTORE SWAP2 DUP2 ADD SWAP2 SWAP1 SWAP2 MSTORE PUSH1 0x1 PUSH1 0x1 PUSH1 0xA0 SHL SUB DUP4 AND PUSH2 0x2691 JUMPI POP PUSH1 0x40 DUP1 MLOAD PUSH1 0x60 DUP2 ADD DUP3 MSTORE PUSH1 0x11 NOT DUP2 MSTORE PUSH1 0x0 PUSH1 0x20 DUP3 ADD MSTORE PUSH1 0x1 SWAP2 DUP2 ADD SWAP2 SWAP1 SWAP2 MSTORE PUSH2 0xD0C JUMP JUMPDEST PUSH1 0x3 PUSH1 0x0 PUSH20 0x0 PUSH4 0xD5F0B04D DUP7 PUSH1 0x0 PUSH1 0x40 MLOAD DUP4 PUSH4 0xFFFFFFFF AND PUSH1 0xE0 SHL DUP2 MSTORE PUSH1 0x4 ADD PUSH2 0x26CF SWAP3 SWAP2 SWAP1 PUSH2 0x3AB8 JUMP JUMPDEST PUSH1 0x20 PUSH1 0x40 MLOAD DUP1 DUP4 SUB DUP2 DUP7 GAS DELEGATECALL ISZERO DUP1 ISZERO PUSH2 0x26EC JUMPI RETURNDATASIZE PUSH1 0x0 DUP1 RETURNDATACOPY RETURNDATASIZE PUSH1 0x0 REVERT JUMPDEST POP POP POP POP PUSH1 0x40 MLOAD RETURNDATASIZE PUSH1 0x1F NOT PUSH1 0x1F DUP3 ADD AND DUP3 ADD DUP1 PUSH1 0x40 MSTORE POP DUP2 ADD SWAP1 PUSH2 0x2710 SWAP2 SWAP1 PUSH2 0x396F JUMP JUMPDEST DUP2 MSTORE PUSH1 0x20 DUP1 DUP3 ADD SWAP3 SWAP1 SWAP3 MSTORE PUSH1 0x40 SWAP1 DUP2 ADD PUSH1 0x0 SWAP1 DUP2 KECCAK256 DUP3 MLOAD PUSH1 0x60 DUP2 ADD DUP5 MSTORE SWAP1 SLOAD SWAP2 DUP3 SWAP1 SIGNEXTEND DUP2 MSTORE PUSH2 0x100 DUP1 DUP4 DIV PUSH1 0xFF AND ISZERO ISZERO SWAP5 DUP3 ADD SWAP5 SWAP1 SWAP5 MSTORE PUSH3 0x10000 SWAP1 SWAP2 DIV PUSH1 0x1 PUSH1 0x1 PUSH1 0x40 SHL SUB DUP2 AND SWAP3 DUP3 ADD SWAP3 SWAP1 SWAP3 MSTORE SWAP3 POP AND PUSH2 0x276B JUMPI PUSH2 0xD0C JUMP JUMPDEST PUSH1 0x3 PUSH1 0x0 PUSH20 0x0 PUSH4 0xD5F0B04D DUP7 DUP7 PUSH1 0x40 MLOAD DUP4 PUSH4 0xFFFFFFFF AND PUSH1 0xE0 SHL DUP2 MSTORE PUSH1 0x4 ADD PUSH2 0x27A8 SWAP3 SWAP2 SWAP1 PUSH2 0x3AB8 JUMP JUMPDEST PUSH1 0x20 PUSH1 0x40 MLOAD DUP1 DUP4 SUB DUP2 DUP7 GAS DELEGATECALL ISZERO DUP1 ISZERO PUSH2 0x27C5 JUMPI RETURNDATASIZE PUSH1 0x0 DUP1 RETURNDATACOPY RETURNDATASIZE PUSH1 0x0 REVERT JUMPDEST POP POP POP POP PUSH1 0x40 MLOAD RETURNDATASIZE PUSH1 0x1F NOT PUSH1 0x1F DUP3 ADD AND DUP3 ADD DUP1 PUSH1 0x40 MSTORE POP DUP2 ADD SWAP1 PUSH2 0x27E9 SWAP2 SWAP1 PUSH2 0x396F JUMP JUMPDEST DUP2 MSTORE PUSH1 0x20 DUP1 DUP3 ADD SWAP3 SWAP1 SWAP3 MSTORE PUSH1 0x40 SWAP1 DUP2 ADD PUSH1 0x0 SWAP1 DUP2 KECCAK256 DUP3 MLOAD PUSH1 0x60 DUP2 ADD DUP5 MSTORE SWAP1 SLOAD SWAP2 DUP3 SWAP1 SIGNEXTEND DUP2 MSTORE PUSH2 0x100 DUP3 DIV PUSH1 0xFF AND ISZERO ISZERO SWAP4 DUP2 ADD SWAP4 SWAP1 SWAP4 MSTORE PUSH3 0x10000 SWAP1 DIV PUSH1 0x1 PUSH1 0x1 PUSH1 0x40 SHL SUB AND SWAP1 DUP3 ADD MSTORE SWAP4 SWAP3 POP POP POP JUMP JUMPDEST PUSH1 0x0 PUSH2 0x2847 DUP4 PUSH2 0x200 PUSH2 0x28DD JUMP JUMPDEST PUSH2 0x2853 JUMPI POP PUSH1 0x0 PUSH2 0xD0C JUMP JUMPDEST PUSH2 0x285C DUP4 PUSH2 0xFF4 JUMP JUMPDEST PUSH1 0x40 MLOAD PUSH4 0x1FFC9A7 PUSH1 0xE0 SHL DUP2 MSTORE PUSH1 0x1 PUSH1 0x1 PUSH1 0xE0 SHL SUB NOT DUP5 AND PUSH1 0x4 DUP3 ADD MSTORE PUSH1 0x1 PUSH1 0x1 PUSH1 0xA0 SHL SUB SWAP2 SWAP1 SWAP2 AND SWAP1 PUSH4 0x1FFC9A7 SWAP1 PUSH1 0x24 ADD PUSH1 0x20 PUSH1 0x40 MLOAD DUP1 DUP4 SUB DUP2 DUP7 GAS STATICCALL ISZERO DUP1 ISZERO PUSH2 0x28AC JUMPI RETURNDATASIZE PUSH1 0x0 DUP1 RETURNDATACOPY RETURNDATASIZE PUSH1 0x0 REVERT JUMPDEST POP POP POP POP PUSH1 0x40 MLOAD RETURNDATASIZE PUSH1 0x1F NOT PUSH1 0x1F DUP3 ADD AND DUP3 ADD DUP1 PUSH1 0x40 MSTORE POP DUP2 ADD SWAP1 PUSH2 0x1060 SWAP2 SWAP1 PUSH2 0x393C JUMP JUMPDEST PUSH1 0x0 PUSH2 0xD0C DUP3 PUSH1 0x0 PUSH2 0x15E0 JUMP JUMPDEST PUSH1 0x0 DUP2 PUSH2 0x28E9 DUP5 PUSH2 0xE61 JUMP JUMPDEST AND PUSH1 0x1 PUSH1 0x1 PUSH1 0x40 SHL SUB AND ISZERO ISZERO SWAP4 SWAP3 POP POP POP JUMP JUMPDEST PUSH1 0x0 PUSH1 0x1 PUSH1 0x1 PUSH1 0xA0 SHL SUB DUP4 AND ISZERO DUP1 ISZERO PUSH2 0x2913 JUMPI POP DUP2 ISZERO JUMPDEST ISZERO PUSH2 0x292D JUMPI POP PUSH1 0x0 DUP1 MLOAD PUSH1 0x20 PUSH2 0x41AC DUP4 CODECOPY DUP2 MLOAD SWAP2 MSTORE PUSH2 0xD0C JUMP JUMPDEST PUSH1 0x40 MLOAD PUSH4 0xD5F0B04D PUSH1 0xE0 SHL DUP2 MSTORE PUSH20 0x0 SWAP1 PUSH4 0xD5F0B04D SWAP1 PUSH2 0x2966 SWAP1 DUP7 SWAP1 DUP7 SWAP1 PUSH1 0x4 ADD PUSH2 0x3AB8 JUMP JUMPDEST PUSH1 0x20 PUSH1 0x40 MLOAD DUP1 DUP4 SUB DUP2 DUP7 GAS DELEGATECALL ISZERO DUP1 ISZERO PUSH2 0x2983 JUMPI RETURNDATASIZE PUSH1 0x0 DUP1 RETURNDATACOPY RETURNDATASIZE PUSH1 0x0 REVERT JUMPDEST POP POP POP POP PUSH1 0x40 MLOAD RETURNDATASIZE PUSH1 0x1F NOT PUSH1 0x1F DUP3 ADD AND DUP3 ADD DUP1 PUSH1 0x40 MSTORE POP DUP2 ADD SWAP1 PUSH2 0x1060 SWAP2 SWAP1 PUSH2 0x396F JUMP JUMPDEST PUSH1 0x0 PUSH1 0x0 DUP1 MLOAD PUSH1 0x20 PUSH2 0x41AC DUP4 CODECOPY DUP2 MLOAD SWAP2 MSTORE DUP3 EQ ISZERO PUSH2 0x29CA JUMPI PUSH2 0xD0C PUSH1 0x0 DUP1 PUSH2 0x15E0 JUMP JUMPDEST PUSH2 0x29D3 DUP3 PUSH2 0xDDD JUMP JUMPDEST PUSH2 0x29DF JUMPI POP PUSH1 0x0 SWAP2 SWAP1 POP JUMP JUMPDEST PUSH1 0x0 DUP1 PUSH2 0x29EB DUP5 PUSH2 0xE06 JUMP JUMPDEST SWAP2 POP SWAP2 POP PUSH2 0xDC8 DUP3 DUP3 PUSH2 0x15E0 JUMP JUMPDEST PUSH1 0x0 PUSH2 0x2A03 PUSH2 0x2B16 JUMP JUMPDEST PUSH2 0xD0C DUP3 PUSH2 0x3598 JUMP JUMPDEST PUSH1 0x0 PUSH2 0x2A16 PUSH2 0x2B16 JUMP JUMPDEST PUSH2 0xD0C DUP3 PUSH2 0x35CA JUMP JUMPDEST PUSH1 0x0 DUP1 PUSH2 0xE58 DUP4 PUSH2 0x36EB JUMP JUMPDEST PUSH1 0x0 PUSH2 0x2A35 PUSH2 0x2B16 JUMP JUMPDEST PUSH2 0x1060 DUP4 DUP4 PUSH2 0x376D JUMP JUMPDEST PUSH2 0x2A47 PUSH2 0x323E JUMP JUMPDEST PUSH1 0x1 PUSH1 0x1 PUSH1 0xA0 SHL SUB DUP2 AND PUSH2 0x2AAC JUMPI PUSH1 0x40 MLOAD PUSH3 0x461BCD PUSH1 0xE5 SHL DUP2 MSTORE PUSH1 0x20 PUSH1 0x4 DUP3 ADD MSTORE PUSH1 0x26 PUSH1 0x24 DUP3 ADD MSTORE PUSH32 0x4F776E61626C653A206E6577206F776E657220697320746865207A65726F2061 PUSH1 0x44 DUP3 ADD MSTORE PUSH6 0x646472657373 PUSH1 0xD0 SHL PUSH1 0x64 DUP3 ADD MSTORE PUSH1 0x84 ADD PUSH2 0xCC1 JUMP JUMPDEST PUSH2 0x2AB5 DUP2 PUSH2 0x3298 JUMP JUMPDEST POP JUMP JUMPDEST PUSH1 0x40 DUP1 MLOAD PUSH1 0x60 DUP2 ADD DUP3 MSTORE PUSH1 0x0 DUP1 DUP3 MSTORE PUSH1 0x20 DUP3 ADD DUP2 SWAP1 MSTORE SWAP2 DUP2 ADD SWAP2 SWAP1 SWAP2 MSTORE PUSH2 0xD0C DUP3 PUSH1 0x0 PUSH2 0x2641 JUMP JUMPDEST PUSH1 0x0 PUSH1 0x1 PUSH1 0x1 PUSH1 0xE0 SHL SUB NOT DUP3 AND PUSH4 0x1FFC9A7 PUSH1 0xE0 SHL EQ DUP1 PUSH2 0xD0C JUMPI POP PUSH1 0x1 PUSH1 0x1 PUSH1 0xE0 SHL SUB NOT DUP3 AND PUSH4 0x2B43F033 PUSH1 0xE2 SHL EQ SWAP3 SWAP2 POP POP JUMP JUMPDEST PUSH1 0x0 SLOAD PUSH1 0x1 PUSH1 0x1 PUSH1 0xA0 SHL SUB AND CALLER EQ DUP1 PUSH2 0x2B33 JUMPI POP PUSH2 0x2B33 CALLER PUSH2 0x178E JUMP JUMPDEST PUSH2 0xCCA JUMPI PUSH1 0x40 MLOAD PUSH3 0x461BCD PUSH1 0xE5 SHL DUP2 MSTORE PUSH1 0x20 PUSH1 0x4 DUP3 ADD MSTORE PUSH1 0x2D PUSH1 0x24 DUP3 ADD MSTORE PUSH32 0x416C6C6F77616E63653A2063616C6C6572206D757374206265205265706F7369 PUSH1 0x44 DUP3 ADD MSTORE PUSH13 0x3A37B93C9027B832B930BA37B9 PUSH1 0x99 SHL PUSH1 0x64 DUP3 ADD MSTORE PUSH1 0x84 ADD PUSH2 0xCC1 JUMP JUMPDEST PUSH1 0x6 SLOAD PUSH1 0x0 SWAP1 DUP2 JUMPDEST DUP2 DUP2 LT ISZERO PUSH2 0x2C2F JUMPI DUP5 PUSH1 0x1 PUSH1 0x1 PUSH1 0xA0 SHL SUB AND PUSH1 0x6 DUP3 DUP2 SLOAD DUP2 LT PUSH2 0x2BC2 JUMPI PUSH2 0x2BC2 PUSH2 0x3959 JUMP JUMPDEST PUSH1 0x0 SWAP2 DUP3 MSTORE PUSH1 0x20 SWAP1 SWAP2 KECCAK256 PUSH1 0x2 SWAP1 SWAP2 MUL ADD SLOAD PUSH1 0x1 PUSH1 0x1 PUSH1 0xA0 SHL SUB AND EQ DUP1 ISZERO PUSH2 0x2C0D JUMPI POP PUSH1 0x6 DUP2 DUP2 SLOAD DUP2 LT PUSH2 0x2BF7 JUMPI PUSH2 0x2BF7 PUSH2 0x3959 JUMP JUMPDEST SWAP1 PUSH1 0x0 MSTORE PUSH1 0x20 PUSH1 0x0 KECCAK256 SWAP1 PUSH1 0x2 MUL ADD PUSH1 0x1 ADD SLOAD PUSH1 0x0 EQ JUMPDEST ISZERO PUSH2 0x2C1D JUMPI PUSH1 0x0 SWAP3 POP POP POP PUSH2 0xD0C JUMP JUMPDEST DUP1 PUSH2 0x2C27 DUP2 PUSH2 0x39C4 JUMP JUMPDEST SWAP2 POP POP PUSH2 0x2B9D JUMP JUMPDEST POP DUP3 PUSH2 0x2CEF JUMPI PUSH1 0x0 NOT DUP2 ADD JUMPDEST DUP2 DUP2 LT ISZERO PUSH2 0x2CE9 JUMPI DUP5 PUSH1 0x1 PUSH1 0x1 PUSH1 0xA0 SHL SUB AND PUSH1 0x6 DUP3 DUP2 SLOAD DUP2 LT PUSH2 0x2C60 JUMPI PUSH2 0x2C60 PUSH2 0x3959 JUMP JUMPDEST PUSH1 0x0 SWAP2 DUP3 MSTORE PUSH1 0x20 SWAP1 SWAP2 KECCAK256 PUSH1 0x2 SWAP1 SWAP2 MUL ADD SLOAD PUSH1 0x1 PUSH1 0x1 PUSH1 0xA0 SHL SUB AND EQ ISZERO PUSH2 0x2CE0 JUMPI PUSH2 0x2CDE PUSH1 0x6 DUP3 DUP2 SLOAD DUP2 LT PUSH2 0x2C96 JUMPI PUSH2 0x2C96 PUSH2 0x3959 JUMP JUMPDEST PUSH1 0x0 SWAP2 DUP3 MSTORE PUSH1 0x20 SWAP1 SWAP2 KECCAK256 PUSH1 0x2 SWAP1 SWAP2 MUL ADD SLOAD PUSH1 0x6 DUP1 SLOAD PUSH1 0x1 PUSH1 0x1 PUSH1 0xA0 SHL SUB SWAP1 SWAP3 AND SWAP2 DUP5 SWAP1 DUP2 LT PUSH2 0x2CC7 JUMPI PUSH2 0x2CC7 PUSH2 0x3959 JUMP JUMPDEST SWAP1 PUSH1 0x0 MSTORE PUSH1 0x20 PUSH1 0x0 KECCAK256 SWAP1 PUSH1 0x2 MUL ADD PUSH1 0x1 ADD SLOAD PUSH2 0x376D JUMP JUMPDEST POP JUMPDEST PUSH1 0x0 NOT ADD PUSH2 0x2C3B JUMP JUMPDEST POP PUSH2 0x2D85 JUMP JUMPDEST PUSH1 0x0 JUMPDEST DUP2 DUP2 LT ISZERO PUSH2 0x2D83 JUMPI DUP5 PUSH1 0x1 PUSH1 0x1 PUSH1 0xA0 SHL SUB AND PUSH1 0x6 DUP3 DUP2 SLOAD DUP2 LT PUSH2 0x2D17 JUMPI PUSH2 0x2D17 PUSH2 0x3959 JUMP JUMPDEST PUSH1 0x0 SWAP2 DUP3 MSTORE PUSH1 0x20 SWAP1 SWAP2 KECCAK256 PUSH1 0x2 SWAP1 SWAP2 MUL ADD SLOAD PUSH1 0x1 PUSH1 0x1 PUSH1 0xA0 SHL SUB AND EQ DUP1 ISZERO PUSH2 0x2D61 JUMPI POP DUP4 PUSH1 0x6 DUP3 DUP2 SLOAD DUP2 LT PUSH2 0x2D4D JUMPI PUSH2 0x2D4D PUSH2 0x3959 JUMP JUMPDEST SWAP1 PUSH1 0x0 MSTORE PUSH1 0x20 PUSH1 0x0 KECCAK256 SWAP1 PUSH1 0x2 MUL ADD PUSH1 0x1 ADD SLOAD EQ JUMPDEST ISZERO PUSH2 0x2D71 JUMPI PUSH1 0x0 SWAP3 POP POP POP PUSH2 0xD0C JUMP JUMPDEST DUP1 PUSH2 0x2D7B DUP2 PUSH2 0x39C4 JUMP JUMPDEST SWAP2 POP POP PUSH2 0x2CF2 JUMP JUMPDEST POP JUMPDEST PUSH1 0x40 DUP1 MLOAD DUP1 DUP3 ADD SWAP1 SWAP2 MSTORE PUSH1 0x1 PUSH1 0x1 PUSH1 0xA0 SHL SUB DUP6 DUP2 AND DUP3 MSTORE PUSH1 0x20 DUP3 ADD DUP6 DUP2 MSTORE PUSH1 0x6 DUP1 SLOAD PUSH1 0x1 DUP2 ADD DUP3 SSTORE PUSH1 0x0 SWAP2 SWAP1 SWAP2 MSTORE SWAP3 MLOAD PUSH32 0xF652222313E28459528D920B65115C16C04F3EFC82AAEDC97BE59F3F377C0D3F PUSH1 0x2 SWAP1 SWAP5 MUL SWAP4 DUP5 ADD DUP1 SLOAD PUSH1 0x1 PUSH1 0x1 PUSH1 0xA0 SHL SUB NOT AND SWAP2 SWAP1 SWAP4 AND OR SWAP1 SWAP2 SSTORE MLOAD PUSH32 0xF652222313E28459528D920B65115C16C04F3EFC82AAEDC97BE59F3F377C0D40 SWAP1 SWAP2 ADD SSTORE POP PUSH1 0x1 SWAP4 SWAP3 POP POP POP JUMP JUMPDEST PUSH1 0x0 DUP2 MLOAD DUP4 MLOAD EQ PUSH2 0x2E35 JUMPI POP PUSH1 0x0 PUSH2 0xD0C JUMP JUMPDEST PUSH1 0x0 JUMPDEST DUP4 MLOAD DUP2 LT ISZERO PUSH2 0x2EAA JUMPI DUP3 DUP2 DUP2 MLOAD DUP2 LT PUSH2 0x2E53 JUMPI PUSH2 0x2E53 PUSH2 0x3959 JUMP JUMPDEST PUSH1 0x20 ADD ADD MLOAD PUSH1 0xF8 SHR PUSH1 0xF8 SHL PUSH1 0x1 PUSH1 0x1 PUSH1 0xF8 SHL SUB NOT AND DUP5 DUP3 DUP2 MLOAD DUP2 LT PUSH2 0x2E7A JUMPI PUSH2 0x2E7A PUSH2 0x3959 JUMP JUMPDEST ADD PUSH1 0x20 ADD MLOAD PUSH1 0x1 PUSH1 0x1 PUSH1 0xF8 SHL SUB NOT AND EQ PUSH2 0x2E98 JUMPI PUSH1 0x0 SWAP2 POP POP PUSH2 0xD0C JUMP JUMPDEST DUP1 PUSH2 0x2EA2 DUP2 PUSH2 0x39C4 JUMP JUMPDEST SWAP2 POP POP PUSH2 0x2E38 JUMP JUMPDEST POP PUSH1 0x1 SWAP4 SWAP3 POP POP POP JUMP JUMPDEST PUSH1 0x0 DUP2 DUP2 MSTORE PUSH1 0x8 PUSH1 0x20 MSTORE PUSH1 0x40 DUP2 KECCAK256 DUP1 SLOAD PUSH2 0x2ECD SWAP1 PUSH2 0x3E36 JUMP JUMPDEST ISZERO ISZERO SWAP4 SWAP3 POP POP POP JUMP JUMPDEST PUSH1 0x0 PUSH1 0x1 PUSH1 0x1 PUSH1 0xA0 SHL SUB DUP3 AND ADDRESS EQ ISZERO PUSH2 0x2EF1 JUMPI POP PUSH1 0x1 SWAP2 SWAP1 POP JUMP JUMPDEST PUSH1 0x5 SLOAD JUMPDEST DUP1 ISZERO PUSH2 0x2F58 JUMPI PUSH1 0x1 PUSH1 0x1 PUSH1 0xA0 SHL SUB DUP4 AND PUSH1 0x5 PUSH2 0x2F12 PUSH1 0x1 DUP5 PUSH2 0x4015 JUMP JUMPDEST DUP2 SLOAD DUP2 LT PUSH2 0x2F22 JUMPI PUSH2 0x2F22 PUSH2 0x3959 JUMP JUMPDEST PUSH1 0x0 SWAP2 DUP3 MSTORE PUSH1 0x20 SWAP1 SWAP2 KECCAK256 ADD SLOAD PUSH1 0x1 PUSH1 0x1 PUSH1 0xA0 SHL SUB AND EQ ISZERO PUSH2 0x2F46 JUMPI POP PUSH1 0x1 SWAP3 SWAP2 POP POP JUMP JUMPDEST DUP1 PUSH2 0x2F50 DUP2 PUSH2 0x402C JUMP JUMPDEST SWAP2 POP POP PUSH2 0x2EF5 JUMP JUMPDEST POP PUSH1 0x0 SWAP3 SWAP2 POP POP JUMP JUMPDEST PUSH1 0x4 SLOAD PUSH1 0x0 SWAP1 JUMPDEST DUP1 ISZERO PUSH2 0x300B JUMPI PUSH1 0x1 PUSH1 0x1 PUSH1 0xA0 SHL SUB DUP5 AND PUSH1 0x4 PUSH2 0x2F85 PUSH1 0x1 DUP5 PUSH2 0x4015 JUMP JUMPDEST DUP2 SLOAD DUP2 LT PUSH2 0x2F95 JUMPI PUSH2 0x2F95 PUSH2 0x3959 JUMP JUMPDEST PUSH1 0x0 SWAP2 DUP3 MSTORE PUSH1 0x20 SWAP1 SWAP2 KECCAK256 PUSH1 0x2 SWAP1 SWAP2 MUL ADD SLOAD PUSH1 0x1 PUSH1 0x1 PUSH1 0xA0 SHL SUB AND EQ DUP1 ISZERO PUSH2 0x2FEA JUMPI POP PUSH1 0x4 PUSH2 0x2FC4 PUSH1 0x1 DUP4 PUSH2 0x4015 JUMP JUMPDEST DUP2 SLOAD DUP2 LT PUSH2 0x2FD4 JUMPI PUSH2 0x2FD4 PUSH2 0x3959 JUMP JUMPDEST SWAP1 PUSH1 0x0 MSTORE PUSH1 0x20 PUSH1 0x0 KECCAK256 SWAP1 PUSH1 0x2 MUL ADD PUSH1 0x1 ADD SLOAD PUSH1 0x0 EQ JUMPDEST ISZERO PUSH2 0x2FF9 JUMPI PUSH1 0x0 SWAP2 POP POP PUSH2 0xD0C JUMP JUMPDEST DUP1 PUSH2 0x3003 DUP2 PUSH2 0x402C JUMP JUMPDEST SWAP2 POP POP PUSH2 0x2F68 JUMP JUMPDEST POP DUP2 PUSH2 0x30FA JUMPI JUMPDEST PUSH1 0x4 SLOAD JUMPDEST DUP1 ISZERO PUSH2 0x30E9 JUMPI PUSH1 0x1 PUSH1 0x1 PUSH1 0xA0 SHL SUB DUP5 AND PUSH1 0x4 PUSH2 0x3033 PUSH1 0x1 DUP5 PUSH2 0x4015 JUMP JUMPDEST DUP2 SLOAD DUP2 LT PUSH2 0x3043 JUMPI PUSH2 0x3043 PUSH2 0x3959 JUMP JUMPDEST PUSH1 0x0 SWAP2 DUP3 MSTORE PUSH1 0x20 SWAP1 SWAP2 KECCAK256 PUSH1 0x2 SWAP1 SWAP2 MUL ADD SLOAD PUSH1 0x1 PUSH1 0x1 PUSH1 0xA0 SHL SUB AND EQ ISZERO PUSH2 0x30D7 JUMPI PUSH2 0x30D1 PUSH1 0x4 PUSH2 0x3073 PUSH1 0x1 DUP5 PUSH2 0x4015 JUMP JUMPDEST DUP2 SLOAD DUP2 LT PUSH2 0x3083 JUMPI PUSH2 0x3083 PUSH2 0x3959 JUMP JUMPDEST PUSH1 0x0 SWAP2 DUP3 MSTORE PUSH1 0x20 SWAP1 SWAP2 KECCAK256 PUSH1 0x2 SWAP1 SWAP2 MUL ADD SLOAD PUSH1 0x1 PUSH1 0x1 PUSH1 0xA0 SHL SUB AND PUSH1 0x4 PUSH2 0x30AA PUSH1 0x1 DUP6 PUSH2 0x4015 JUMP JUMPDEST DUP2 SLOAD DUP2 LT PUSH2 0x30BA JUMPI PUSH2 0x30BA PUSH2 0x3959 JUMP JUMPDEST SWAP1 PUSH1 0x0 MSTORE PUSH1 0x20 PUSH1 0x0 KECCAK256 SWAP1 PUSH1 0x2 MUL ADD PUSH1 0x1 ADD SLOAD PUSH2 0x32E8 JUMP JUMPDEST POP PUSH2 0x30E9 JUMP JUMPDEST DUP1 PUSH2 0x30E1 DUP2 PUSH2 0x402C JUMP JUMPDEST SWAP2 POP POP PUSH2 0x3016 JUMP JUMPDEST DUP1 PUSH2 0x30F4 JUMPI POP PUSH2 0x31A2 JUMP JUMPDEST POP PUSH2 0x3012 JUMP JUMPDEST PUSH1 0x4 SLOAD JUMPDEST DUP1 ISZERO PUSH2 0x31A0 JUMPI PUSH1 0x1 PUSH1 0x1 PUSH1 0xA0 SHL SUB DUP5 AND PUSH1 0x4 PUSH2 0x311B PUSH1 0x1 DUP5 PUSH2 0x4015 JUMP JUMPDEST DUP2 SLOAD DUP2 LT PUSH2 0x312B JUMPI PUSH2 0x312B PUSH2 0x3959 JUMP JUMPDEST PUSH1 0x0 SWAP2 DUP3 MSTORE PUSH1 0x20 SWAP1 SWAP2 KECCAK256 PUSH1 0x2 SWAP1 SWAP2 MUL ADD SLOAD PUSH1 0x1 PUSH1 0x1 PUSH1 0xA0 SHL SUB AND EQ DUP1 ISZERO PUSH2 0x317F JUMPI POP DUP3 PUSH1 0x4 PUSH2 0x315B PUSH1 0x1 DUP5 PUSH2 0x4015 JUMP JUMPDEST DUP2 SLOAD DUP2 LT PUSH2 0x316B JUMPI PUSH2 0x316B PUSH2 0x3959 JUMP JUMPDEST SWAP1 PUSH1 0x0 MSTORE PUSH1 0x20 PUSH1 0x0 KECCAK256 SWAP1 PUSH1 0x2 MUL ADD PUSH1 0x1 ADD SLOAD EQ JUMPDEST ISZERO PUSH2 0x318E JUMPI PUSH1 0x0 SWAP2 POP POP PUSH2 0xD0C JUMP JUMPDEST DUP1 PUSH2 0x3198 DUP2 PUSH2 0x402C JUMP JUMPDEST SWAP2 POP POP PUSH2 0x30FE JUMP JUMPDEST POP JUMPDEST PUSH1 0x40 DUP1 MLOAD DUP1 DUP3 ADD SWAP1 SWAP2 MSTORE PUSH1 0x1 PUSH1 0x1 PUSH1 0xA0 SHL SUB DUP5 DUP2 AND DUP3 MSTORE PUSH1 0x20 DUP3 ADD DUP5 DUP2 MSTORE PUSH1 0x4 DUP1 SLOAD PUSH1 0x1 DUP2 ADD DUP3 SSTORE PUSH1 0x0 SWAP2 SWAP1 SWAP2 MSTORE SWAP3 MLOAD PUSH32 0x8A35ACFBC15FF81A39AE7D344FD709F28E8600B4AA8C65C6B64BFE7FE36BD19B PUSH1 0x2 SWAP1 SWAP5 MUL SWAP4 DUP5 ADD DUP1 SLOAD PUSH1 0x1 PUSH1 0x1 PUSH1 0xA0 SHL SUB NOT AND SWAP2 SWAP1 SWAP4 AND OR SWAP1 SWAP2 SSTORE MLOAD PUSH32 0x8A35ACFBC15FF81A39AE7D344FD709F28E8600B4AA8C65C6B64BFE7FE36BD19C SWAP1 SWAP2 ADD SSTORE POP PUSH1 0x1 SWAP3 SWAP2 POP POP JUMP JUMPDEST PUSH1 0x0 SLOAD PUSH1 0x1 PUSH1 0x1 PUSH1 0xA0 SHL SUB AND CALLER EQ PUSH2 0xCCA JUMPI PUSH1 0x40 MLOAD PUSH3 0x461BCD PUSH1 0xE5 SHL DUP2 MSTORE PUSH1 0x20 PUSH1 0x4 DUP3 ADD MSTORE PUSH1 0x1F PUSH1 0x24 DUP3 ADD MSTORE PUSH32 0x416C6C6F77616E63653A2063616C6C6572206D757374206265204F776E657200 PUSH1 0x44 DUP3 ADD MSTORE PUSH1 0x64 ADD PUSH2 0xCC1 JUMP JUMPDEST PUSH1 0x0 DUP1 SLOAD PUSH1 0x1 PUSH1 0x1 PUSH1 0xA0 SHL SUB DUP4 DUP2 AND PUSH1 0x1 PUSH1 0x1 PUSH1 0xA0 SHL SUB NOT DUP4 AND DUP2 OR DUP5 SSTORE PUSH1 0x40 MLOAD SWAP2 SWAP1 SWAP3 AND SWAP3 DUP4 SWAP2 PUSH32 0x8BE0079C531659141344CD1FD0A4F28419497F9722A3DAAFE3B4186F6B6457E0 SWAP2 SWAP1 LOG3 POP POP JUMP JUMPDEST PUSH1 0x4 SLOAD PUSH1 0x0 SWAP1 DUP2 JUMPDEST DUP2 DUP2 LT ISZERO PUSH2 0x2375 JUMPI DUP5 PUSH1 0x1 PUSH1 0x1 PUSH1 0xA0 SHL SUB AND PUSH1 0x4 DUP3 DUP2 SLOAD DUP2 LT PUSH2 0x3315 JUMPI PUSH2 0x3315 PUSH2 0x3959 JUMP JUMPDEST PUSH1 0x0 SWAP2 DUP3 MSTORE PUSH1 0x20 SWAP1 SWAP2 KECCAK256 PUSH1 0x2 SWAP1 SWAP2 MUL ADD SLOAD PUSH1 0x1 PUSH1 0x1 PUSH1 0xA0 SHL SUB AND EQ DUP1 ISZERO PUSH2 0x335F JUMPI POP DUP4 PUSH1 0x4 DUP3 DUP2 SLOAD DUP2 LT PUSH2 0x334B JUMPI PUSH2 0x334B PUSH2 0x3959 JUMP JUMPDEST SWAP1 PUSH1 0x0 MSTORE PUSH1 0x20 PUSH1 0x0 KECCAK256 SWAP1 PUSH1 0x2 MUL ADD PUSH1 0x1 ADD SLOAD EQ JUMPDEST ISZERO PUSH2 0x3432 JUMPI PUSH2 0x336F PUSH1 0x1 DUP4 PUSH2 0x4015 JUMP JUMPDEST DUP2 LT ISZERO PUSH2 0x33ED JUMPI PUSH1 0x4 PUSH2 0x3383 PUSH1 0x1 DUP5 PUSH2 0x4015 JUMP JUMPDEST DUP2 SLOAD DUP2 LT PUSH2 0x3393 JUMPI PUSH2 0x3393 PUSH2 0x3959 JUMP JUMPDEST SWAP1 PUSH1 0x0 MSTORE PUSH1 0x20 PUSH1 0x0 KECCAK256 SWAP1 PUSH1 0x2 MUL ADD PUSH1 0x4 DUP3 DUP2 SLOAD DUP2 LT PUSH2 0x33B4 JUMPI PUSH2 0x33B4 PUSH2 0x3959 JUMP JUMPDEST PUSH1 0x0 SWAP2 DUP3 MSTORE PUSH1 0x20 SWAP1 SWAP2 KECCAK256 DUP3 SLOAD PUSH1 0x2 SWAP1 SWAP3 MUL ADD DUP1 SLOAD PUSH1 0x1 PUSH1 0x1 PUSH1 0xA0 SHL SUB NOT AND PUSH1 0x1 PUSH1 0x1 PUSH1 0xA0 SHL SUB SWAP1 SWAP3 AND SWAP2 SWAP1 SWAP2 OR DUP2 SSTORE PUSH1 0x1 SWAP2 DUP3 ADD SLOAD SWAP2 ADD SSTORE JUMPDEST PUSH1 0x4 DUP1 SLOAD DUP1 PUSH2 0x33FE JUMPI PUSH2 0x33FE PUSH2 0x40FB JUMP JUMPDEST PUSH1 0x0 DUP3 DUP2 MSTORE PUSH1 0x20 DUP2 KECCAK256 PUSH1 0x2 PUSH1 0x0 NOT SWAP1 SWAP4 ADD SWAP3 DUP4 MUL ADD DUP1 SLOAD PUSH1 0x1 PUSH1 0x1 PUSH1 0xA0 SHL SUB NOT AND DUP2 SSTORE PUSH1 0x1 ADD SSTORE SWAP1 SSTORE PUSH1 0x1 SWAP3 POP POP POP PUSH2 0xD0C JUMP JUMPDEST DUP1 PUSH2 0x343C DUP2 PUSH2 0x39C4 JUMP JUMPDEST SWAP2 POP POP PUSH2 0x32F0 JUMP JUMPDEST PUSH1 0x5 SLOAD PUSH1 0x0 SWAP1 JUMPDEST DUP1 ISZERO PUSH2 0x34AE JUMPI PUSH1 0x1 PUSH1 0x1 PUSH1 0xA0 SHL SUB DUP4 AND PUSH1 0x5 PUSH2 0x3468 PUSH1 0x1 DUP5 PUSH2 0x4015 JUMP JUMPDEST DUP2 SLOAD DUP2 LT PUSH2 0x3478 JUMPI PUSH2 0x3478 PUSH2 0x3959 JUMP JUMPDEST PUSH1 0x0 SWAP2 DUP3 MSTORE PUSH1 0x20 SWAP1 SWAP2 KECCAK256 ADD SLOAD PUSH1 0x1 PUSH1 0x1 PUSH1 0xA0 SHL SUB AND EQ ISZERO PUSH2 0x349C JUMPI POP PUSH1 0x0 SWAP3 SWAP2 POP POP JUMP JUMPDEST DUP1 PUSH2 0x34A6 DUP2 PUSH2 0x402C JUMP JUMPDEST SWAP2 POP POP PUSH2 0x344B JUMP JUMPDEST PUSH1 0x5 DUP1 SLOAD PUSH1 0x1 DUP2 ADD DUP3 SSTORE PUSH1 0x0 SWAP2 SWAP1 SWAP2 MSTORE PUSH32 0x36B6384B5ECA791C62761152D0C79BB0604C104A5FB6F4EB0703F3154BB3DB0 ADD DUP1 SLOAD PUSH1 0x1 PUSH1 0x1 PUSH1 0xA0 SHL SUB NOT AND PUSH1 0x1 PUSH1 0x1 PUSH1 0xA0 SHL SUB DUP6 AND OR SWAP1 SSTORE POP PUSH1 0x1 SWAP3 SWAP2 POP POP JUMP JUMPDEST PUSH1 0x0 PUSH2 0x1060 PUSH20 0x0 PUSH4 0xDE874ED DUP6 DUP6 PUSH1 0x40 MLOAD DUP4 PUSH4 0xFFFFFFFF AND PUSH1 0xE0 SHL DUP2 MSTORE PUSH1 0x4 ADD PUSH2 0x1657 SWAP3 SWAP2 SWAP1 PUSH2 0x3AB8 JUMP JUMPDEST PUSH1 0x0 PUSH1 0x1 PUSH1 0x1 PUSH1 0xA0 SHL SUB DUP4 AND PUSH2 0x3558 JUMPI POP PUSH1 0x1 PUSH2 0xD0C JUMP JUMPDEST PUSH20 0x0 PUSH4 0x3646B548 PUSH2 0x357C DUP6 DUP6 PUSH2 0x2641 JUMP JUMPDEST PUSH1 0x40 MLOAD DUP3 PUSH4 0xFFFFFFFF AND PUSH1 0xE0 SHL DUP2 MSTORE PUSH1 0x4 ADD PUSH2 0x2966 SWAP2 SWAP1 PUSH2 0x3A6C JUMP JUMPDEST PUSH1 0x7 SLOAD PUSH1 0x0 SWAP1 PUSH1 0xFF AND ISZERO ISZERO DUP3 ISZERO ISZERO EQ ISZERO PUSH2 0x35B4 JUMPI POP PUSH1 0x0 SWAP2 SWAP1 POP JUMP JUMPDEST PUSH1 0x7 DUP1 SLOAD PUSH1 0xFF NOT AND DUP4 ISZERO ISZERO OR SWAP1 SSTORE POP PUSH1 0x1 SWAP2 SWAP1 POP JUMP JUMPDEST PUSH1 0x5 SLOAD PUSH1 0x0 SWAP1 DUP2 JUMPDEST DUP2 DUP2 LT ISZERO PUSH2 0x20A2 JUMPI DUP4 PUSH1 0x1 PUSH1 0x1 PUSH1 0xA0 SHL SUB AND PUSH1 0x5 DUP3 DUP2 SLOAD DUP2 LT PUSH2 0x35F7 JUMPI PUSH2 0x35F7 PUSH2 0x3959 JUMP JUMPDEST PUSH1 0x0 SWAP2 DUP3 MSTORE PUSH1 0x20 SWAP1 SWAP2 KECCAK256 ADD SLOAD PUSH1 0x1 PUSH1 0x1 PUSH1 0xA0 SHL SUB AND EQ ISZERO PUSH2 0x36D9 JUMPI PUSH2 0x361D PUSH1 0x1 DUP4 PUSH2 0x4015 JUMP JUMPDEST DUP2 LT ISZERO PUSH2 0x369C JUMPI PUSH1 0x5 PUSH2 0x3631 PUSH1 0x1 DUP5 PUSH2 0x4015 JUMP JUMPDEST DUP2 SLOAD DUP2 LT PUSH2 0x3641 JUMPI PUSH2 0x3641 PUSH2 0x3959 JUMP JUMPDEST PUSH1 0x0 SWAP2 DUP3 MSTORE PUSH1 0x20 SWAP1 SWAP2 KECCAK256 ADD SLOAD PUSH1 0x5 DUP1 SLOAD PUSH1 0x1 PUSH1 0x1 PUSH1 0xA0 SHL SUB SWAP1 SWAP3 AND SWAP2 DUP4 SWAP1 DUP2 LT PUSH2 0x366D JUMPI PUSH2 0x366D PUSH2 0x3959 JUMP JUMPDEST SWAP1 PUSH1 0x0 MSTORE PUSH1 0x20 PUSH1 0x0 KECCAK256 ADD PUSH1 0x0 PUSH2 0x100 EXP DUP2 SLOAD DUP2 PUSH1 0x1 PUSH1 0x1 PUSH1 0xA0 SHL SUB MUL NOT AND SWAP1 DUP4 PUSH1 0x1 PUSH1 0x1 PUSH1 0xA0 SHL SUB AND MUL OR SWAP1 SSTORE POP JUMPDEST PUSH1 0x5 DUP1 SLOAD DUP1 PUSH2 0x36AD JUMPI PUSH2 0x36AD PUSH2 0x40FB JUMP JUMPDEST PUSH1 0x0 DUP3 DUP2 MSTORE PUSH1 0x20 SWAP1 KECCAK256 DUP2 ADD PUSH1 0x0 NOT SWAP1 DUP2 ADD DUP1 SLOAD PUSH1 0x1 PUSH1 0x1 PUSH1 0xA0 SHL SUB NOT AND SWAP1 SSTORE ADD SWAP1 SSTORE POP PUSH1 0x1 SWAP4 SWAP3 POP POP POP JUMP JUMPDEST DUP1 PUSH2 0x36E3 DUP2 PUSH2 0x39C4 JUMP JUMPDEST SWAP2 POP POP PUSH2 0x35D2 JUMP JUMPDEST PUSH1 0x0 DUP1 PUSH2 0x36F7 DUP4 PUSH2 0x14D7 JUMP JUMPDEST PUSH1 0x40 MLOAD PUSH4 0x14130A79 PUSH1 0xE3 SHL DUP2 MSTORE PUSH20 0x0 SWAP2 PUSH4 0xA09853C8 SWAP2 PUSH2 0x372D SWAP2 SWAP1 PUSH1 0x4 ADD PUSH2 0x3C33 JUMP JUMPDEST PUSH1 0x40 DUP1 MLOAD DUP1 DUP4 SUB DUP2 DUP7 GAS DELEGATECALL ISZERO DUP1 ISZERO PUSH2 0x3749 JUMPI RETURNDATASIZE PUSH1 0x0 DUP1 RETURNDATACOPY RETURNDATASIZE PUSH1 0x0 REVERT JUMPDEST POP POP POP POP PUSH1 0x40 MLOAD RETURNDATASIZE PUSH1 0x1F NOT PUSH1 0x1F DUP3 ADD AND DUP3 ADD DUP1 PUSH1 0x40 MSTORE POP DUP2 ADD SWAP1 PUSH2 0xE58 SWAP2 SWAP1 PUSH2 0x4111 JUMP JUMPDEST PUSH1 0x6 SLOAD PUSH1 0x0 SWAP1 DUP2 JUMPDEST DUP2 DUP2 LT ISZERO PUSH2 0x2375 JUMPI DUP5 PUSH1 0x1 PUSH1 0x1 PUSH1 0xA0 SHL SUB AND PUSH1 0x6 DUP3 DUP2 SLOAD DUP2 LT PUSH2 0x379A JUMPI PUSH2 0x379A PUSH2 0x3959 JUMP JUMPDEST PUSH1 0x0 SWAP2 DUP3 MSTORE PUSH1 0x20 SWAP1 SWAP2 KECCAK256 PUSH1 0x2 SWAP1 SWAP2 MUL ADD SLOAD PUSH1 0x1 PUSH1 0x1 PUSH1 0xA0 SHL SUB AND EQ DUP1 ISZERO PUSH2 0x37E4 JUMPI POP DUP4 PUSH1 0x6 DUP3 DUP2 SLOAD DUP2 LT PUSH2 0x37D0 JUMPI PUSH2 0x37D0 PUSH2 0x3959 JUMP JUMPDEST SWAP1 PUSH1 0x0 MSTORE PUSH1 0x20 PUSH1 0x0 KECCAK256 SWAP1 PUSH1 0x2 MUL ADD PUSH1 0x1 ADD SLOAD EQ JUMPDEST ISZERO PUSH2 0x3883 JUMPI PUSH2 0x37F4 PUSH1 0x1 DUP4 PUSH2 0x4015 JUMP JUMPDEST DUP2 LT ISZERO PUSH2 0x3872 JUMPI PUSH1 0x6 PUSH2 0x3808 PUSH1 0x1 DUP5 PUSH2 0x4015 JUMP JUMPDEST DUP2 SLOAD DUP2 LT PUSH2 0x3818 JUMPI PUSH2 0x3818 PUSH2 0x3959 JUMP JUMPDEST SWAP1 PUSH1 0x0 MSTORE PUSH1 0x20 PUSH1 0x0 KECCAK256 SWAP1 PUSH1 0x2 MUL ADD PUSH1 0x6 DUP3 DUP2 SLOAD DUP2 LT PUSH2 0x3839 JUMPI PUSH2 0x3839 PUSH2 0x3959 JUMP JUMPDEST PUSH1 0x0 SWAP2 DUP3 MSTORE PUSH1 0x20 SWAP1 SWAP2 KECCAK256 DUP3 SLOAD PUSH1 0x2 SWAP1 SWAP3 MUL ADD DUP1 SLOAD PUSH1 0x1 PUSH1 0x1 PUSH1 0xA0 SHL SUB NOT AND PUSH1 0x1 PUSH1 0x1 PUSH1 0xA0 SHL SUB SWAP1 SWAP3 AND SWAP2 SWAP1 SWAP2 OR DUP2 SSTORE PUSH1 0x1 SWAP2 DUP3 ADD SLOAD SWAP2 ADD SSTORE JUMPDEST PUSH1 0x6 DUP1 SLOAD DUP1 PUSH2 0x33FE JUMPI PUSH2 0x33FE PUSH2 0x40FB JUMP JUMPDEST DUP1 PUSH2 0x388D DUP2 PUSH2 0x39C4 JUMP JUMPDEST SWAP2 POP POP PUSH2 0x3775 JUMP JUMPDEST DUP3 DUP1 SLOAD PUSH2 0x38A1 SWAP1 PUSH2 0x3E36 JUMP JUMPDEST SWAP1 PUSH1 0x0 MSTORE PUSH1 0x20 PUSH1 0x0 KECCAK256 SWAP1 PUSH1 0x1F ADD PUSH1 0x20 SWAP1 DIV DUP2 ADD SWAP3 DUP3 PUSH2 0x38C3 JUMPI PUSH1 0x0 DUP6 SSTORE PUSH2 0x3909 JUMP JUMPDEST DUP3 PUSH1 0x1F LT PUSH2 0x38DC JUMPI DUP1 MLOAD PUSH1 0xFF NOT AND DUP4 DUP1 ADD OR DUP6 SSTORE PUSH2 0x3909 JUMP JUMPDEST DUP3 DUP1 ADD PUSH1 0x1 ADD DUP6 SSTORE DUP3 ISZERO PUSH2 0x3909 JUMPI SWAP2 DUP3 ADD JUMPDEST DUP3 DUP2 GT ISZERO PUSH2 0x3909 JUMPI DUP3 MLOAD DUP3 SSTORE SWAP2 PUSH1 0x20 ADD SWAP2 SWAP1 PUSH1 0x1 ADD SWAP1 PUSH2 0x38EE JUMP JUMPDEST POP PUSH2 0x3915 SWAP3 SWAP2 POP PUSH2 0x3919 JUMP JUMPDEST POP SWAP1 JUMP JUMPDEST JUMPDEST DUP1 DUP3 GT ISZERO PUSH2 0x3915 JUMPI PUSH1 0x0 DUP2 SSTORE PUSH1 0x1 ADD PUSH2 0x391A JUMP JUMPDEST DUP1 ISZERO ISZERO DUP2 EQ PUSH2 0x2AB5 JUMPI PUSH1 0x0 DUP1 REVERT JUMPDEST PUSH1 0x0 PUSH1 0x20 DUP3 DUP5 SUB SLT ISZERO PUSH2 0x394E JUMPI PUSH1 0x0 DUP1 REVERT JUMPDEST DUP2 MLOAD PUSH2 0x1060 DUP2 PUSH2 0x392E JUMP JUMPDEST PUSH4 0x4E487B71 PUSH1 0xE0 SHL PUSH1 0x0 MSTORE PUSH1 0x32 PUSH1 0x4 MSTORE PUSH1 0x24 PUSH1 0x0 REVERT JUMPDEST PUSH1 0x0 PUSH1 0x20 DUP3 DUP5 SUB SLT ISZERO PUSH2 0x3981 JUMPI PUSH1 0x0 DUP1 REVERT JUMPDEST POP MLOAD SWAP2 SWAP1 POP JUMP JUMPDEST PUSH4 0x4E487B71 PUSH1 0xE0 SHL PUSH1 0x0 MSTORE PUSH1 0x21 PUSH1 0x4 MSTORE PUSH1 0x24 PUSH1 0x0 REVERT JUMPDEST DUP2 DUP4 DUP3 CALLDATACOPY PUSH1 0x0 SWAP2 ADD SWAP1 DUP2 MSTORE SWAP2 SWAP1 POP JUMP JUMPDEST PUSH4 0x4E487B71 PUSH1 0xE0 SHL PUSH1 0x0 MSTORE PUSH1 0x11 PUSH1 0x4 MSTORE PUSH1 0x24 PUSH1 0x0 REVERT JUMPDEST PUSH1 0x0 PUSH1 0x0 NOT DUP3 EQ ISZERO PUSH2 0x39D8 JUMPI PUSH2 0x39D8 PUSH2 0x39AE JUMP JUMPDEST POP PUSH1 0x1 ADD SWAP1 JUMP JUMPDEST DUP1 CALLDATALOAD PUSH1 0x1 PUSH1 0x1 PUSH1 0xE0 SHL SUB NOT DUP2 AND DUP2 EQ PUSH2 0x14D2 JUMPI PUSH1 0x0 DUP1 REVERT JUMPDEST PUSH1 0x0 PUSH1 0x20 DUP3 DUP5 SUB SLT ISZERO PUSH2 0x3A09 JUMPI PUSH1 0x0 DUP1 REVERT JUMPDEST PUSH2 0x1060 DUP3 PUSH2 0x39DF JUMP JUMPDEST PUSH1 0x1 PUSH1 0x1 PUSH1 0xA0 SHL SUB DUP2 AND DUP2 EQ PUSH2 0x2AB5 JUMPI PUSH1 0x0 DUP1 REVERT JUMPDEST PUSH1 0x0 DUP1 PUSH1 0x40 DUP4 DUP6 SUB SLT ISZERO PUSH2 0x3A3A JUMPI PUSH1 0x0 DUP1 REVERT JUMPDEST DUP3 CALLDATALOAD PUSH2 0x3A45 DUP2 PUSH2 0x3A12 JUMP JUMPDEST SWAP5 PUSH1 0x20 SWAP4 SWAP1 SWAP4 ADD CALLDATALOAD SWAP4 POP POP POP JUMP JUMPDEST PUSH1 0x0 PUSH1 0x20 DUP3 DUP5 SUB SLT ISZERO PUSH2 0x3A65 JUMPI PUSH1 0x0 DUP1 REVERT JUMPDEST POP CALLDATALOAD SWAP2 SWAP1 POP JUMP JUMPDEST DUP2 MLOAD PUSH1 0x0 SIGNEXTEND DUP2 MSTORE PUSH1 0x20 DUP1 DUP4 ADD MLOAD ISZERO ISZERO SWAP1 DUP3 ADD MSTORE PUSH1 0x40 DUP1 DUP4 ADD MLOAD PUSH1 0x1 PUSH1 0x1 PUSH1 0x40 SHL SUB AND SWAP1 DUP3 ADD MSTORE PUSH1 0x60 DUP2 ADD PUSH2 0xD0C JUMP JUMPDEST PUSH1 0x0 PUSH1 0x20 DUP3 DUP5 SUB SLT ISZERO PUSH2 0x3AAD JUMPI PUSH1 0x0 DUP1 REVERT JUMPDEST DUP2 CALLDATALOAD PUSH2 0x1060 DUP2 PUSH2 0x3A12 JUMP JUMPDEST PUSH1 0x1 PUSH1 0x1 PUSH1 0xA0 SHL SUB SWAP3 SWAP1 SWAP3 AND DUP3 MSTORE PUSH1 0x20 DUP3 ADD MSTORE PUSH1 0x40 ADD SWAP1 JUMP JUMPDEST PUSH1 0x0 JUMPDEST DUP4 DUP2 LT ISZERO PUSH2 0x3AEC JUMPI DUP2 DUP2 ADD MLOAD DUP4 DUP3 ADD MSTORE PUSH1 0x20 ADD PUSH2 0x3AD4 JUMP JUMPDEST DUP4 DUP2 GT ISZERO PUSH2 0x3AFB JUMPI PUSH1 0x0 DUP5 DUP5 ADD MSTORE JUMPDEST POP POP POP POP JUMP JUMPDEST PUSH1 0x0 DUP2 MLOAD DUP1 DUP5 MSTORE PUSH2 0x3B19 DUP2 PUSH1 0x20 DUP7 ADD PUSH1 0x20 DUP7 ADD PUSH2 0x3AD1 JUMP JUMPDEST PUSH1 0x1F ADD PUSH1 0x1F NOT AND SWAP3 SWAP1 SWAP3 ADD PUSH1 0x20 ADD SWAP3 SWAP2 POP POP JUMP JUMPDEST PUSH1 0x20 DUP2 MSTORE PUSH1 0x0 PUSH2 0x1060 PUSH1 0x20 DUP4 ADD DUP5 PUSH2 0x3B01 JUMP JUMPDEST PUSH4 0x4E487B71 PUSH1 0xE0 SHL PUSH1 0x0 MSTORE PUSH1 0x41 PUSH1 0x4 MSTORE PUSH1 0x24 PUSH1 0x0 REVERT JUMPDEST PUSH1 0x40 MLOAD PUSH1 0x1F DUP3 ADD PUSH1 0x1F NOT AND DUP2 ADD PUSH1 0x1 PUSH1 0x1 PUSH1 0x40 SHL SUB DUP2 GT DUP3 DUP3 LT OR ISZERO PUSH2 0x3B7E JUMPI PUSH2 0x3B7E PUSH2 0x3B40 JUMP JUMPDEST PUSH1 0x40 MSTORE SWAP2 SWAP1 POP JUMP JUMPDEST PUSH1 0x0 PUSH1 0x1 PUSH1 0x1 PUSH1 0x40 SHL SUB DUP3 GT ISZERO PUSH2 0x3B9F JUMPI PUSH2 0x3B9F PUSH2 0x3B40 JUMP JUMPDEST POP PUSH1 0x1F ADD PUSH1 0x1F NOT AND PUSH1 0x20 ADD SWAP1 JUMP JUMPDEST PUSH1 0x0 PUSH2 0x3BC0 PUSH2 0x3BBB DUP5 PUSH2 0x3B86 JUMP JUMPDEST PUSH2 0x3B56 JUMP JUMPDEST SWAP1 POP DUP3 DUP2 MSTORE DUP4 DUP4 DUP4 ADD GT ISZERO PUSH2 0x3BD4 JUMPI PUSH1 0x0 DUP1 REVERT JUMPDEST DUP3 DUP3 PUSH1 0x20 DUP4 ADD CALLDATACOPY PUSH1 0x0 PUSH1 0x20 DUP5 DUP4 ADD ADD MSTORE SWAP4 SWAP3 POP POP POP JUMP JUMPDEST PUSH1 0x0 PUSH1 0x20 DUP3 DUP5 SUB SLT ISZERO PUSH2 0x3BFD JUMPI PUSH1 0x0 DUP1 REVERT JUMPDEST DUP2 CALLDATALOAD PUSH1 0x1 PUSH1 0x1 PUSH1 0x40 SHL SUB DUP2 GT ISZERO PUSH2 0x3C13 JUMPI PUSH1 0x0 DUP1 REVERT JUMPDEST DUP3 ADD PUSH1 0x1F DUP2 ADD DUP5 SGT PUSH2 0x3C24 JUMPI PUSH1 0x0 DUP1 REVERT JUMPDEST PUSH2 0xDC8 DUP5 DUP3 CALLDATALOAD PUSH1 0x20 DUP5 ADD PUSH2 0x3BAD JUMP JUMPDEST PUSH1 0x20 DUP1 DUP3 MSTORE DUP3 MLOAD DUP3 DUP3 ADD DUP2 SWAP1 MSTORE PUSH1 0x0 SWAP2 SWAP1 DUP5 DUP3 ADD SWAP1 PUSH1 0x40 DUP6 ADD SWAP1 DUP5 JUMPDEST DUP2 DUP2 LT ISZERO PUSH2 0x3C6B JUMPI DUP4 MLOAD DUP4 MSTORE SWAP3 DUP5 ADD SWAP3 SWAP2 DUP5 ADD SWAP2 PUSH1 0x1 ADD PUSH2 0x3C4F JUMP JUMPDEST POP SWAP1 SWAP7 SWAP6 POP POP POP POP POP POP JUMP JUMPDEST PUSH1 0x0 DUP1 PUSH1 0x40 DUP4 DUP6 SUB SLT ISZERO PUSH2 0x3C8A JUMPI PUSH1 0x0 DUP1 REVERT JUMPDEST DUP3 CALLDATALOAD SWAP2 POP PUSH1 0x20 DUP4 ADD CALLDATALOAD PUSH2 0x3C9C DUP2 PUSH2 0x3A12 JUMP JUMPDEST DUP1 SWAP2 POP POP SWAP3 POP SWAP3 SWAP1 POP JUMP JUMPDEST PUSH1 0x0 DUP1 PUSH1 0x40 DUP4 DUP6 SUB SLT ISZERO PUSH2 0x3CBA JUMPI PUSH1 0x0 DUP1 REVERT JUMPDEST POP POP DUP1 CALLDATALOAD SWAP3 PUSH1 0x20 SWAP1 SWAP2 ADD CALLDATALOAD SWAP2 POP JUMP JUMPDEST PUSH1 0x1 PUSH1 0x1 PUSH1 0x40 SHL SUB DUP2 AND DUP2 EQ PUSH2 0x2AB5 JUMPI PUSH1 0x0 DUP1 REVERT JUMPDEST PUSH1 0x0 DUP1 PUSH1 0x40 DUP4 DUP6 SUB SLT ISZERO PUSH2 0x3CF1 JUMPI PUSH1 0x0 DUP1 REVERT JUMPDEST DUP3 CALLDATALOAD SWAP2 POP PUSH1 0x20 DUP4 ADD CALLDATALOAD PUSH2 0x3C9C DUP2 PUSH2 0x3CC9 JUMP JUMPDEST PUSH1 0x0 PUSH1 0x1 PUSH1 0x1 PUSH1 0x40 SHL SUB DUP3 GT ISZERO PUSH2 0x3D1C JUMPI PUSH2 0x3D1C PUSH2 0x3B40 JUMP JUMPDEST POP PUSH1 0x5 SHL PUSH1 0x20 ADD SWAP1 JUMP JUMPDEST PUSH1 0x0 PUSH1 0x20 DUP1 DUP4 DUP6 SUB SLT ISZERO PUSH2 0x3D39 JUMPI PUSH1 0x0 DUP1 REVERT JUMPDEST DUP3 CALLDATALOAD PUSH1 0x1 PUSH1 0x1 PUSH1 0x40 SHL SUB DUP2 GT ISZERO PUSH2 0x3D4F JUMPI PUSH1 0x0 DUP1 REVERT JUMPDEST DUP4 ADD PUSH1 0x1F DUP2 ADD DUP6 SGT PUSH2 0x3D60 JUMPI PUSH1 0x0 DUP1 REVERT JUMPDEST DUP1 CALLDATALOAD PUSH2 0x3D6E PUSH2 0x3BBB DUP3 PUSH2 0x3D03 JUMP JUMPDEST DUP2 DUP2 MSTORE PUSH1 0x5 SWAP2 SWAP1 SWAP2 SHL DUP3 ADD DUP4 ADD SWAP1 DUP4 DUP2 ADD SWAP1 DUP8 DUP4 GT ISZERO PUSH2 0x3D8D JUMPI PUSH1 0x0 DUP1 REVERT JUMPDEST SWAP3 DUP5 ADD SWAP3 JUMPDEST DUP3 DUP5 LT ISZERO PUSH2 0x3DAB JUMPI DUP4 CALLDATALOAD DUP3 MSTORE SWAP3 DUP5 ADD SWAP3 SWAP1 DUP5 ADD SWAP1 PUSH2 0x3D92 JUMP JUMPDEST SWAP8 SWAP7 POP POP POP POP POP POP POP JUMP JUMPDEST PUSH1 0x0 DUP1 PUSH1 0x40 DUP4 DUP6 SUB SLT ISZERO PUSH2 0x3DC9 JUMPI PUSH1 0x0 DUP1 REVERT JUMPDEST DUP3 CALLDATALOAD SWAP2 POP PUSH2 0x3DD9 PUSH1 0x20 DUP5 ADD PUSH2 0x39DF JUMP JUMPDEST SWAP1 POP SWAP3 POP SWAP3 SWAP1 POP JUMP JUMPDEST PUSH1 0x0 PUSH1 0x20 DUP3 DUP5 SUB SLT ISZERO PUSH2 0x3DF4 JUMPI PUSH1 0x0 DUP1 REVERT JUMPDEST DUP2 CALLDATALOAD PUSH2 0x1060 DUP2 PUSH2 0x392E JUMP JUMPDEST PUSH1 0x20 DUP1 DUP3 MSTORE PUSH1 0x17 SWAP1 DUP3 ADD MSTORE PUSH32 0x43757272656E6379206E6F742072656769737465726564000000000000000000 PUSH1 0x40 DUP3 ADD MSTORE PUSH1 0x60 ADD SWAP1 JUMP JUMPDEST PUSH1 0x1 DUP2 DUP2 SHR SWAP1 DUP3 AND DUP1 PUSH2 0x3E4A JUMPI PUSH1 0x7F DUP3 AND SWAP2 POP JUMPDEST PUSH1 0x20 DUP3 LT DUP2 EQ ISZERO PUSH2 0x13C1 JUMPI PUSH4 0x4E487B71 PUSH1 0xE0 SHL PUSH1 0x0 MSTORE PUSH1 0x22 PUSH1 0x4 MSTORE PUSH1 0x24 PUSH1 0x0 REVERT JUMPDEST PUSH1 0x0 DUP3 MLOAD PUSH2 0x3E7D DUP2 DUP5 PUSH1 0x20 DUP8 ADD PUSH2 0x3AD1 JUMP JUMPDEST SWAP2 SWAP1 SWAP2 ADD SWAP3 SWAP2 POP POP JUMP JUMPDEST PUSH1 0x0 PUSH1 0x20 DUP1 DUP4 DUP6 SUB SLT ISZERO PUSH2 0x3E9A JUMPI PUSH1 0x0 DUP1 REVERT JUMPDEST DUP3 MLOAD PUSH1 0x1 PUSH1 0x1 PUSH1 0x40 SHL SUB DUP2 GT ISZERO PUSH2 0x3EB0 JUMPI PUSH1 0x0 DUP1 REVERT JUMPDEST DUP4 ADD PUSH1 0x1F DUP2 ADD DUP6 SGT PUSH2 0x3EC1 JUMPI PUSH1 0x0 DUP1 REVERT JUMPDEST DUP1 MLOAD PUSH2 0x3ECF PUSH2 0x3BBB DUP3 PUSH2 0x3D03 JUMP JUMPDEST DUP2 DUP2 MSTORE PUSH1 0x5 SWAP2 SWAP1 SWAP2 SHL DUP3 ADD DUP4 ADD SWAP1 DUP4 DUP2 ADD SWAP1 DUP8 DUP4 GT ISZERO PUSH2 0x3EEE JUMPI PUSH1 0x0 DUP1 REVERT JUMPDEST SWAP3 DUP5 ADD SWAP3 JUMPDEST DUP3 DUP5 LT ISZERO PUSH2 0x3DAB JUMPI DUP4 MLOAD DUP3 MSTORE SWAP3 DUP5 ADD SWAP3 SWAP1 DUP5 ADD SWAP1 PUSH2 0x3EF3 JUMP JUMPDEST PUSH1 0x0 DUP1 PUSH1 0x40 DUP4 DUP6 SUB SLT ISZERO PUSH2 0x3F1F JUMPI PUSH1 0x0 DUP1 REVERT JUMPDEST POP POP DUP1 MLOAD PUSH1 0x20 SWAP1 SWAP2 ADD MLOAD SWAP1 SWAP3 SWAP1 SWAP2 POP JUMP JUMPDEST PUSH1 0x0 PUSH1 0x60 DUP3 DUP5 SUB SLT ISZERO PUSH2 0x3F42 JUMPI PUSH1 0x0 DUP1 REVERT JUMPDEST PUSH1 0x40 MLOAD PUSH1 0x60 DUP2 ADD DUP2 DUP2 LT PUSH1 0x1 PUSH1 0x1 PUSH1 0x40 SHL SUB DUP3 GT OR ISZERO PUSH2 0x3F64 JUMPI PUSH2 0x3F64 PUSH2 0x3B40 JUMP JUMPDEST PUSH1 0x40 MSTORE DUP3 MLOAD PUSH1 0x0 DUP2 SWAP1 SIGNEXTEND DUP2 EQ PUSH2 0x3F79 JUMPI PUSH1 0x0 DUP1 REVERT JUMPDEST DUP2 MSTORE PUSH1 0x20 DUP4 ADD MLOAD PUSH2 0x3F89 DUP2 PUSH2 0x392E JUMP JUMPDEST PUSH1 0x20 DUP3 ADD MSTORE PUSH1 0x40 DUP4 ADD MLOAD PUSH2 0x3F9C DUP2 PUSH2 0x3CC9 JUMP JUMPDEST PUSH1 0x40 DUP3 ADD MSTORE SWAP4 SWAP3 POP POP POP JUMP JUMPDEST PUSH4 0x4E487B71 PUSH1 0xE0 SHL PUSH1 0x0 MSTORE PUSH1 0x1 PUSH1 0x4 MSTORE PUSH1 0x24 PUSH1 0x0 REVERT JUMPDEST PUSH1 0x1 PUSH1 0x1 PUSH1 0xA0 SHL SUB DUP6 AND DUP2 MSTORE PUSH1 0x20 DUP2 ADD DUP5 SWAP1 MSTORE PUSH1 0xC0 DUP2 ADD PUSH2 0x4004 PUSH1 0x40 DUP4 ADD DUP6 DUP1 MLOAD PUSH1 0x0 SIGNEXTEND DUP3 MSTORE PUSH1 0x20 DUP1 DUP3 ADD MLOAD ISZERO ISZERO SWAP1 DUP4 ADD MSTORE PUSH1 0x40 SWAP1 DUP2 ADD MLOAD PUSH1 0x1 PUSH1 0x1 PUSH1 0x40 SHL SUB AND SWAP2 ADD MSTORE JUMP JUMPDEST DUP3 ISZERO ISZERO PUSH1 0xA0 DUP4 ADD MSTORE SWAP6 SWAP5 POP POP POP POP POP JUMP JUMPDEST PUSH1 0x0 DUP3 DUP3 LT ISZERO PUSH2 0x4027 JUMPI PUSH2 0x4027 PUSH2 0x39AE JUMP JUMPDEST POP SUB SWAP1 JUMP JUMPDEST PUSH1 0x0 DUP2 PUSH2 0x403B JUMPI PUSH2 0x403B PUSH2 0x39AE JUMP JUMPDEST POP PUSH1 0x0 NOT ADD SWAP1 JUMP JUMPDEST PUSH1 0x0 PUSH1 0x20 DUP3 DUP5 SUB SLT ISZERO PUSH2 0x4055 JUMPI PUSH1 0x0 DUP1 REVERT JUMPDEST DUP2 MLOAD PUSH2 0x1060 DUP2 PUSH2 0x3A12 JUMP JUMPDEST PUSH1 0x0 DUP1 PUSH1 0x40 DUP4 DUP6 SUB SLT ISZERO PUSH2 0x4073 JUMPI PUSH1 0x0 DUP1 REVERT JUMPDEST DUP3 MLOAD SWAP2 POP PUSH1 0x20 DUP4 ADD MLOAD PUSH2 0x3C9C DUP2 PUSH2 0x3A12 JUMP JUMPDEST PUSH1 0x0 PUSH1 0x20 DUP3 DUP5 SUB SLT ISZERO PUSH2 0x4097 JUMPI PUSH1 0x0 DUP1 REVERT JUMPDEST DUP2 MLOAD PUSH1 0x1 PUSH1 0x1 PUSH1 0x40 SHL SUB DUP2 GT ISZERO PUSH2 0x40AD JUMPI PUSH1 0x0 DUP1 REVERT JUMPDEST DUP3 ADD PUSH1 0x1F DUP2 ADD DUP5 SGT PUSH2 0x40BE JUMPI PUSH1 0x0 DUP1 REVERT JUMPDEST DUP1 MLOAD PUSH2 0x40CC PUSH2 0x3BBB DUP3 PUSH2 0x3B86 JUMP JUMPDEST DUP2 DUP2 MSTORE DUP6 PUSH1 0x20 DUP4 DUP6 ADD ADD GT ISZERO PUSH2 0x40E1 JUMPI PUSH1 0x0 DUP1 REVERT JUMPDEST PUSH2 0x40F2 DUP3 PUSH1 0x20 DUP4 ADD PUSH1 0x20 DUP7 ADD PUSH2 0x3AD1 JUMP JUMPDEST SWAP6 SWAP5 POP POP POP POP POP JUMP JUMPDEST PUSH4 0x4E487B71 PUSH1 0xE0 SHL PUSH1 0x0 MSTORE PUSH1 0x31 PUSH1 0x4 MSTORE PUSH1 0x24 PUSH1 0x0 REVERT JUMPDEST PUSH1 0x0 DUP1 PUSH1 0x40 DUP4 DUP6 SUB SLT ISZERO PUSH2 0x4124 JUMPI PUSH1 0x0 DUP1 REVERT JUMPDEST DUP3 MLOAD PUSH2 0x412F DUP2 PUSH2 0x3A12 JUMP JUMPDEST PUSH1 0x20 SWAP4 SWAP1 SWAP4 ADD MLOAD SWAP3 SWAP5 SWAP3 SWAP4 POP POP POP JUMP INVALID PUSH9 0x747470733A2F2F6769 PUSH21 0x6875622E636F6D2F5061747269636B416C70686143 0x2F PUSH5 0x6566692D73 PUSH21 0x616B652D7969656C642D62726F776E69652D667265 PUSH6 0x636F64652F62 PUSH13 0x6F622F6D61696E2F66726F6E74 0x5F PUSH6 0x6E642F737263 0x2F PUSH5 0x6170702E70 PUSH15 0x673F7261773D74727565AD3228B676 0xF7 0xD3 0xCD TIMESTAMP DUP5 0xA5 DIFFICULTY EXTCODEHASH OR CALL SWAP7 0x2B CALLDATASIZE 0xE4 SWAP2 0xB3 EXP BLOCKHASH 0xB2 BLOCKHASH PC 0x49 0xE5 SWAP8 0xBA 0x5F 0xB5 PUSH9 0x747470733A2F2F7261 PUSH24 0x2E67697468756275736572636F6E74656E742E636F6D2F50 PUSH2 0x7472 PUSH10 0x636B416C706861432F64 PUSH6 0x66692D737461 PUSH12 0x652D7969656C642D62726F77 PUSH15 0x69652D66726565636F64652F6D6169 PUSH15 0x2F66726F6E745F656E642F7372632F PUSH6 0x74682E706E67 EXTCODEHASH PUSH19 0x61773D74727565A2646970667358221220131B 0xF6 LOG2 0xBA 0xB6 SIGNEXTEND 0xBF 0xC5 0xFC 0x21 0x23 PUSH15 0xCF24A4A65ABB34108A5EC102120F11 RETURN 0x2E PUSH24 0x8E64736F6C634300080B0033000000000000000000000000 ","sha1":"0414406a864e2191de5c2b68ffae1e2d4ebd1158","source":"// SPDX-License-Identifier: MIT\n// Beef MarketPlace Contracts v0.0.0 hello@mcdu.com\n\npragma solidity ^0.8.0;\n\nimport \"@openzeppelin/contracts/utils/Context.sol\";\nimport \"@openzeppelin/contracts/utils/introspection/IERC165.sol\";\nimport \"../agnostic/Ownable.sol\";\nimport \"../agnostic/Mode.sol\";\nimport \"../agnostic/Array.sol\";\nimport \"../agnostic/Mode.sol\";\nimport \"../agnostic/Keccak/KeccakInverter.sol\";\nimport \"../agnostic/Certified/CertifierAllower.sol\";\nimport \"../agnostic/Token/TokenLib.sol\";\nimport \"../agnostic/Token/TokenEquivalent.sol\";\nimport \"../agnostic/Token/Currencer.sol\";\n\n/*enum RepositoryType {\n    Bank,\n    Market,\n    MarketOrder,\n    MarketSearch,\n    Quotator,\n    Collateral,\n    Delivery,\n    Random,\n    Max\n}*/\n\nenum FuncState {\n    Unknown,\n    Absent,\n    Present\n}\ninterface IRepositoryContract is IERC165\n{\n    function supportsInterface(bytes4 interfaceId) external view returns (bool);\n    function id() external view returns (bytes32);\n\n}\n\nabstract contract RepositoryContract is IRepositoryContract, ModeStop, Context, Ownable {\n\n    Repository public immutable rep;\n\n    function supportsInterface(bytes4 interfaceId) public view virtual returns (bool)\n    {\n        return interfaceId == type(IERC165).interfaceId || interfaceId == type(IRepositoryContract).interfaceId;\n    }\n\n    constructor(Repository rep_) {\n        rep = rep_;\n    }\n\n    function repository() internal view virtual returns (Repository) {\n        return rep;\n    }\n\n    function checkRepository() private view {\n        require(\n            /*(ownerOf() == _msgSender()) ||*/ (_msgSender() == address(rep)),\n            \"Allowance: caller must be Repository\"\n        );\n    }\n\n    modifier all() {\n        _;\n    }\n    /*modifier onlyMarketOrder() virtual {\n        checkMarketOrder();\n        _;\n    }\n\n    function checkMarketOrder() internal view {\n        require((address(rep.mo()) == _msgSender()), \"Allowance: caller must be Market\");\n    }\n    modifier onlyMarket() virtual {\n        checkMarket();\n        _;\n    }\n\n    function checkMarket() internal view {\n        require((address(rep.m()) == _msgSender()), \"Allowance: caller must be Market\");\n    }*/\n\n    modifier onlyThis() virtual {\n        checkThis();\n        _;\n    }\n\n    function checkThis() internal view {\n        require((address(this) == _msgSender()), \"Allowance: caller must be this\");\n    }\n\n    modifier onlyOwner() virtual override {\n        checkOwner();\n        _;\n    }\n\n    function checkOwner() internal view {\n        require((ownerOf() == _msgSender()), \"Allowance: caller must be Owner\");\n    }\n\n    modifier onlyRepository() virtual {\n        checkRepository();\n        _;\n    }\n\n    modifier onlyContracts() {\n        checkContracts();\n        _;\n    }\n\n    function checkContracts() internal view {\n        require(\n            (ownerOf() == _msgSender()) || rep.isContract(_msgSender()),\n            \"Allowance: caller must be Repository Contract\"\n        );\n    }\n\n    modifier onlyOperators() {\n        checkOperators();\n        _;\n    }\n\n    function checkOperators() internal view {\n        require(\n            (ownerOf() == _msgSender()) || rep.isOperator(_msgSender()),\n            \"Allowance: caller must be Repository Operator\"\n        );\n    }\n\n    modifier onlyContractsOrOperators() {\n        checkContractsOrOperators();\n        _;\n    }\n\n    function checkContractsOrOperators() internal view {\n        require(\n            (ownerOf() == _msgSender()) ||\n                rep.isContract(_msgSender()) ||\n                rep.isOperator(_msgSender()),\n            \"Allowance: caller must be Repository Contract or Operator\"\n        );\n    }\n\n    //bool private _liquidated;\n\n    function setSTOP() public onlyContractsOrOperators {\n        _setSTOP();\n    }\n\n    function unsetSTOP() public onlyContractsOrOperators {\n        _unsetSTOP();\n    }\n\n    function setSTOPFOREVER() public onlyOwner {\n        _setSTOPFOREVER();\n    }\n\n    /*function bytesToAddress(bytes memory bys)\n        internal\n        pure\n        returns (address addr)\n    {\n        assembly {\n            addr := mload(add(bys, 32))\n        }\n    }*/\n\n    function _return(bool result_) internal view virtual {\n        assembly {\n            returndatacopy(0, 0, returndatasize())\n            switch result_\n            case 0 {\n                revert(0, returndatasize())\n            }\n            default {\n                return(0, returndatasize())\n            }\n        }\n    }\n\n    fallback() external virtual onlyContractsOrOperators {\n        bytes memory bys = msg.data[4:36];\n        address _implementation;\n        assembly {\n            _implementation := mload(add(bys, 32))\n        }\n        //address _implementation = bytesToAddress(msg.data[4:36]);\n\n        bool _result;\n        assembly {\n            let newargumentsize := sub(calldatasize(), 36)\n            let newcalldatasize := add(newargumentsize, 4)\n\n            calldatacopy(0, 0, 4)\n            calldatacopy(4, 36, newargumentsize)\n\n            // Call the implementation.\n            // out and outsize are 0 because we don't know the size yet.\n            _result := delegatecall(\n                gas(),\n                _implementation,\n                0,\n                newcalldatasize,\n                0,\n                0\n            )\n        }\n        _return(_result);\n    }\n    //function destroy() public onlyOwner { liquidate(); _destroy(); }\n    //function _destroy() internal virtual {selfdestruct(payable(ownerOf()));}\n    //function liquidated() public view returns (bool) { return _liquidated; }\n    //function liquidate() public onlyOwner { if (_liquidated) return; _setSTOPFOREVER();_liquidated =true; _liquidate(); }\n    //function _liquidate() internal virtual {}\n}\n\ncontract Repository is IERC165,ModeTest,Ownable, Currencer, ContractForbidderCertifier, KeccakInverter { //TokenEquivalentCertifier, \n    using Array for address[];\n    using Array for bytes4[];\n    uint256 immutable public _originalblock;\n\n    mapping(bytes32 => address) _repository;\n    address[] private _contracts;//= new address[](uint256(RepositoryType.Max));\n    address[] private _operators;\n    mapping(bytes32 => mapping(bytes4 => FuncState)) private _contractfunc;\n    bytes4[] _funcs;\n\n    constructor(bool MODETEST_)\n        ModeTest(MODETEST_)\n    {\n         _originalblock=block.number;\n    }\n\n    function supportsInterface(bytes4 interfaceId)\n        public\n        view virtual override(IERC165,ContractForbidderCertifier)//,TokenEquivalentCertifier)\n        returns (bool)\n    {\n        return interfaceId == type(IERC165).interfaceId || Certifiers.supportsInterface(interfaceId) || ContractCertifier.supportsInterface(interfaceId);// || TokenEquivalentCertifier.supportsInterface(interfaceId);\n    }\n\n    function isTrustedCertifier(address certifier_) public view virtual override(ContractForbidderCertifier) returns (bool) //,ContractCertifier\n    {\n        return Certifiers.isTrustedCertifier(certifier_);\n    }\n\n\n    modifier all() {\n        _;\n    }\n\n    modifier onlyOwner() virtual override {\n        checkOwner();\n        _;\n    }\n\n    function checkOwner() internal view {\n        require((ownerOf() == _msgSender()), \"Allowance: caller must be Owner\");\n    }\n\n    modifier onlyContracts() {\n        checkContracts();\n        _;\n    }\n\n    function checkContracts() internal view {\n        require(\n            (ownerOf() == _msgSender()) || isContract(_msgSender()),\n            \"Allowance: caller must be Repository Contract\"\n        );\n    }\n\n    modifier onlyOperators() {\n        checkOperators();\n        _;\n    }\n\n    function checkOperators() internal view {\n        require(\n            (ownerOf() == _msgSender()) || isOperator(_msgSender()),\n            \"Allowance: caller must be Repository Operator\"\n        );\n    }\n\n    modifier onlyContractsOrOperators() {\n        checkContractsOrOperators();\n        _;\n    }\n\n    function checkContractsOrOperators() internal view {\n        require(\n            (ownerOf() == _msgSender()) ||\n                isContract(_msgSender()) ||\n                isOperator(_msgSender()),\n            \"Allowance: caller must be Repository Contract or Operator\"\n        );\n    }\n\n    function exists(bytes32 k_) public view virtual override(Currencer,KeccakInverter) returns (bool)\n    {\n        return KeccakInverter.exists(k_);\n    }\n    function resolveAddressUInt256(bytes32 k_)\n        public\n        view virtual override (Currencer,KeccakInverter)\n        returns (address addr_, uint256 v_)\n    {\n        return KeccakInverter.resolveAddressUInt256(k_);\n    }    \n\n\n    function AddressUInt256(address addr_, uint256 v_)\n        public\n        virtual\n        override (Currencer,KeccakInverter)\n        returns (bytes32 k_)\n    {\n        return KeccakInverter.AddressUInt256(addr_, v_);\n    }\n\n\n    function isOperator(address caller_) public view returns (bool) {\n        if (caller_ == address(this)) return true;\n        return _operators.s_exist(caller_);\n    }\n\n    function isContract(address caller_) public view returns (bool) {\n        if (caller_ == address(this)) return true;\n        return _contracts.s_exist(caller_);\n    }\n\n    function removeOperator(address bot_) public onlyOperators {\n        _operators.remove(bot_);\n    }\n\n    function addOperator(address bot_) public onlyOperators {\n        _operators.insert(bot_);\n    }\n\n    function addTrustedCertifier(address certifier_) public onlyOperators  returns (bool){\n        return _addTrustedCertifier(certifier_);\n    }\n\n    function removeTrustedCertifier(address certifier_) public onlyOperators  returns (bool){\n        return _removeTrustedCertifier(certifier_);\n    }\n    function addTokenCertified(address token,uint256 tokenId) public onlyOperators returns (bool){\n        return _addContractCertified(token,tokenId);\n\n    }\n    function removeTokenCertified(address token,uint256 tokenId) public onlyOperators returns (bool){\n        return _removeContractCertified(token,tokenId);\n\n    }\n    function tokenForbiddenUnknownSet(bool forbiddenunknown_) public onlyOperators returns (bool) {\n        return _contractForbiddenUnknownSet(forbiddenunknown_);\n    }\n    function tokenForbiddenAdd(address token,uint256 tokenId) public onlyOperators returns (bool) {\n        return _contractForbiddenAdd(token,tokenId);\n    }\n    function tokenForbiddenRemove(address token,uint256 tokenId) public onlyOperators returns (bool) {\n        return _contractForbiddenRemove(token,tokenId);\n    }\n    function setContract(IRepositoryContract contract_) public onlyOperators {\n        require(contract_.supportsInterface(type(IRepositoryContract).interfaceId), \"contract must be IRepositoryContract\");\n        for (uint256 i; i < _funcs.length; i++)\n            delete _contractfunc[contract_.id()][_funcs[i]];\n        \n        _contracts.insert(address(contract_));\n        _repository[contract_.id()] = address(contract_);\n    }\n\n    function get(bytes32 hash_) public view returns (address) {\n        return _repository[hash_];\n    }\n\n    fallback() external virtual onlyContracts {\n        _funcs.insert(msg.sig);\n        for (uint256 i; i < _contracts.length; i++) {\n            if (_contracts[i] == _msgSender()) continue;\n            bytes32 contracthash = IRepositoryContract(_contracts[i]).id();\n            if (_contractfunc[contracthash][msg.sig] == FuncState.Absent) continue;\n            (bool success, ) = _contracts[i].call(msg.data);\n            if (_contractfunc[contracthash][msg.sig] == FuncState.Unknown)\n                _contractfunc[contracthash][msg.sig] = success ? FuncState.Present : FuncState.Absent;\n        }\n    }\n\n    /*function q() public view returns (address) {\n        return \n        [uint256(RepositoryType.Quotator)];\n    }\n\n    function setQuotator(address _contract) public onlyOperators {\n        set(RepositoryType.Quotator, _contract);\n    }\n\n    function r() public view returns (address) {\n        return \n        [uint256(RepositoryType.Random)];\n    }\n\n    function setRandom(address _contract) public onlyOperators {\n        set(RepositoryType.Random, _contract);\n    }\n\n    function d() public view returns (address) {\n        return \n        [uint256(RepositoryType.Delivery)];\n    }\n\n    function setDelivery(address _contract) public onlyOperators {\n        set(RepositoryType.Delivery, _contract);\n    }\n\n    function col() public view returns (address) {\n        return \n        [uint256(RepositoryType.Collateral)];\n    }\n\n    function setCollateral(address _contract) public onlyOperators {\n        set(RepositoryType.Collateral, _contract);\n    }\n\n    function b() public view returns (address) {\n        return \n        [uint256(RepositoryType.Bank)];\n    }\n\n    function setBank(address _contract) public onlyOperators {\n        set(RepositoryType.Bank, _contract);\n    }\n\n    function mo() public view returns (address) {\n        return \n        [uint256(RepositoryType.MarketOrder)];\n    }\n\n    function setMarketOrder(address _contract) public onlyOperators {\n        set(RepositoryType.MarketOrder, _contract);\n    }\n\n    function ms() public view returns (address) {\n        return \n        [uint256(RepositoryType.MarketSearch)];\n    }\n\n    function setMarketSearch(address _contract) public onlyOperators {\n        set(RepositoryType.MarketSearch, _contract);\n    }\n\n    function m() public view returns (address) {\n        return \n        [uint256(RepositoryType.Market)];\n    }\n\n    function setMarket(address _contract) public onlyOperators {\n        set(RepositoryType.Market, _contract);\n    }*/\n}\n","sourcePath":"contracts/Repository/Repository.sol","deployment":{"address":"0xd892809f3183Ab069d35fEfef90B982c294D64dE","chainid":"9997","blockHeight":13585}}