{"abi":[{"inputs":[{"internalType":"bytes32[]","name":"in_","type":"bytes32[]"},{"internalType":"bytes32","name":"s_","type":"bytes32"}],"name":"addfront","outputs":[{"internalType":"bytes32[]","name":"out_","type":"bytes32[]"}],"stateMutability":"pure","type":"function"},{"inputs":[{"internalType":"bytes32[]","name":"in_","type":"bytes32[]"},{"internalType":"bytes32","name":"s_","type":"bytes32"}],"name":"addtail","outputs":[{"internalType":"bytes32[]","name":"out_","type":"bytes32[]"}],"stateMutability":"pure","type":"function"},{"inputs":[{"internalType":"address[]","name":"t_","type":"address[]"},{"internalType":"address","name":"index_","type":"address"}],"name":"c_exist","outputs":[{"internalType":"bool","name":"","type":"bool"}],"stateMutability":"pure","type":"function"},{"inputs":[{"internalType":"bytes32[]","name":"t_","type":"bytes32[]"},{"internalType":"bytes32","name":"index_","type":"bytes32"}],"name":"c_exist","outputs":[{"internalType":"bool","name":"","type":"bool"}],"stateMutability":"pure","type":"function"},{"inputs":[{"internalType":"bytes32[]","name":"set1_","type":"bytes32[]"},{"internalType":"bytes32[]","name":"set2_","type":"bytes32[]"}],"name":"combine","outputs":[{"internalType":"bytes32[]","name":"out_","type":"bytes32[]"}],"stateMutability":"pure","type":"function"},{"inputs":[{"internalType":"bytes4[]","name":"t_","type":"bytes4[]"},{"internalType":"bytes4","name":"index_","type":"bytes4"}],"name":"m_exist","outputs":[{"internalType":"bool","name":"","type":"bool"}],"stateMutability":"pure","type":"function"},{"inputs":[{"internalType":"bytes32[]","name":"t_","type":"bytes32[]"},{"internalType":"bytes32","name":"index_","type":"bytes32"}],"name":"m_exist","outputs":[{"internalType":"bool","name":"","type":"bool"}],"stateMutability":"pure","type":"function"},{"inputs":[{"internalType":"address[]","name":"t_","type":"address[]"},{"internalType":"address","name":"index_","type":"address"}],"name":"m_exist","outputs":[{"internalType":"bool","name":"","type":"bool"}],"stateMutability":"pure","type":"function"},{"inputs":[{"internalType":"uint256[]","name":"t_","type":"uint256[]"},{"internalType":"uint256","name":"index_","type":"uint256"}],"name":"mexist","outputs":[{"internalType":"bool","name":"","type":"bool"}],"stateMutability":"pure","type":"function"},{"inputs":[{"internalType":"uint64[]","name":"t_","type":"uint64[]"},{"internalType":"uint64","name":"index_","type":"uint64"}],"name":"mexist","outputs":[{"internalType":"bool","name":"","type":"bool"}],"stateMutability":"pure","type":"function"},{"inputs":[{"internalType":"uint32[]","name":"t_","type":"uint32[]"},{"internalType":"uint32","name":"index_","type":"uint32"}],"name":"mexist","outputs":[{"internalType":"bool","name":"","type":"bool"}],"stateMutability":"pure","type":"function"},{"inputs":[{"internalType":"bytes32[]","name":"t_","type":"bytes32[]"},{"internalType":"bytes32","name":"index_","type":"bytes32"}],"name":"mexist","outputs":[{"internalType":"bool","name":"","type":"bool"}],"stateMutability":"pure","type":"function"},{"inputs":[{"internalType":"bytes32[]","name":"t_","type":"bytes32[]"}],"name":"pack","outputs":[{"internalType":"bytes","name":"out_","type":"bytes"}],"stateMutability":"pure","type":"function"},{"inputs":[{"internalType":"string[]","name":"t_","type":"string[]"},{"internalType":"string","name":"s_","type":"string"}],"name":"push","outputs":[{"internalType":"string[]","name":"out_","type":"string[]"}],"stateMutability":"pure","type":"function"},{"inputs":[{"internalType":"bytes32[]","name":"t_","type":"bytes32[]"},{"internalType":"bytes32","name":"s_","type":"bytes32"}],"name":"push","outputs":[{"internalType":"bytes32[]","name":"out_","type":"bytes32[]"}],"stateMutability":"pure","type":"function"}],"bytecode":"61267261003a600b82828239805160001a60731461002d57634e487b7160e01b600052600060045260246000fd5b30600052607381538281f3fe73000000000000000000000000000000000000000030146080604052600436106102525760003560e01c80635c59737e116101455780639d84366d116100c2578063db8b447411610086578063db8b4474146105fa578063e14f1c2a1461061a578063edefe12d14610645578063f132566314610665578063f1672aaf1461067857600080fd5b80639d84366d1461058e578063bcd9cc26146105a1578063c202f51b146105b4578063c25f860a146105c7578063c372f963146105e757600080fd5b80637fe05040116101095780637fe05040146105155780637fe25ec1146105285780638055206814610548578063825998c11461055b5780639b861f031461057b57600080fd5b80635c59737e1461048f578063677ca2d8146104a25780636b85d051146104c257806372be67bc146104e2578063792b24381461050257600080fd5b80633df92754116101d3578063538d6aab11610197578063538d6aab1461040957806357cbb6461461041c578063581869c41461042f57806359a07dde1461044f5780635bd2e4a41461046f57600080fd5b80633df927541461039d57806349a050d6146103b05780634a5668c5146103c35780634bcb0085146103d65780634d469d3d146103f657600080fd5b80632d9f65701161021a5780632d9f6570146102ff57806332b290ab1461032057806337159077146103425780633b06e74f1461036a5780633b2f7c2f1461037d57600080fd5b806310737d0b14610257578063138257481461028c5780631dfc7e13146102ac578063209978e8146102cc57806321b5a47d146102ec575b600080fd5b81801561026357600080fd5b50610277610272366004611c13565b610698565b60405190151581526020015b60405180910390f35b61029f61029a366004611d13565b6107ed565b6040516102839190611d76565b8180156102b857600080fd5b506102776102c7366004611dd1565b6108ff565b8180156102d857600080fd5b506102776102e7366004611df4565b610a59565b6102776102fa366004611c13565b610ac7565b61031261030d366004611e16565b610b36565b604051908152602001610283565b81801561032c57600080fd5b5061034061033b366004611e16565b610b88565b005b610355610350366004611e16565b610bda565b60405163ffffffff9091168152602001610283565b61029f610378366004611e2f565b610c40565b81801561038957600080fd5b50610277610398366004611e8b565b610c98565b6102776103ab366004611eae565b610dac565b6102776103be366004611f44565b610df9565b6102776103d136600461204f565b610e5a565b6103e96103e4366004612111565b610ed2565b6040516102839190612227565b610277610404366004612289565b610faa565b610277610417366004611e8b565b610ff4565b61027761042a366004611df4565b611070565b81801561043b57600080fd5b5061027761044a366004611df4565b6110c0565b81801561045b57600080fd5b5061034061046a366004611e16565b611110565b81801561047b57600080fd5b5061027761048a3660046122d4565b61116a565b61027761049d3660046122f7565b611206565b8180156104ae57600080fd5b506102776104bd366004611df4565b611265565b8180156104ce57600080fd5b506102776104dd366004611df4565b611333565b6104f56104f0366004612394565b611383565b60405161028391906123c8565b610277610510366004611dd1565b6113ff565b6102776105233660046123db565b611474565b81801561053457600080fd5b50610340610543366004611e16565b6114cd565b610277610556366004611e2f565b61152a565b81801561056757600080fd5b50610277610576366004611e8b565b611577565b61029f610589366004611e2f565b61163a565b61027761059c366004611e2f565b61168a565b6102776105af366004611df4565b6116d7565b61029f6105c2366004611e2f565b611727565b8180156105d357600080fd5b506103406105e2366004611e16565b6117f5565b6102776105f5366004612478565b611837565b81801561060657600080fd5b50610277610615366004611c13565b611896565b61062d610628366004611e16565b61194c565b6040516001600160401b039091168152602001610283565b81801561065157600080fd5b506102776106603660046122d4565b6119b5565b6102776106733660046122d4565b611ad8565b81801561068457600080fd5b50610277610693366004611dd1565b611b3b565b8154600090815b818110156107e0578363ffffffff168582815481106106c0576106c0612515565b6000918252602090912060088204015460079091166004026101000a900463ffffffff1614156107ce576106f5600183612541565b8110156107845784610708600184612541565b8154811061071857610718612515565b90600052602060002090600891828204019190066004029054906101000a900463ffffffff1685828154811061075057610750612515565b90600052602060002090600891828204019190066004026101000a81548163ffffffff021916908363ffffffff1602179055505b8480548061079457610794612558565b600082815260209020600860001990920191820401805463ffffffff600460078516026101000a0219169055905550600191506107e79050565b806107d88161256e565b91505061069f565b5060009150505b92915050565b81518151606091906107ff8183612589565b6001600160401b0381111561081657610816611c3f565b60405190808252806020026020018201604052801561083f578160200160208202803683370190505b50925060005b828110156108965785818151811061085f5761085f612515565b602002602001015184828151811061087957610879612515565b60209081029190910101528061088e8161256e565b915050610845565b5060005b818110156108f6578481815181106108b4576108b4612515565b60200260200101518482856108c99190612589565b815181106108d9576108d9612515565b6020908102919091010152806108ee8161256e565b91505061089a565b50505092915050565b8154600090815b818110156107e057836001600160401b031685828154811061092a5761092a612515565b6000918252602090912060048204015460039091166008026101000a90046001600160401b03161415610a4757610962600183612541565b8110156109fa5784610975600184612541565b8154811061098557610985612515565b90600052602060002090600491828204019190066008029054906101000a90046001600160401b03168582815481106109c0576109c0612515565b90600052602060002090600491828204019190066008026101000a8154816001600160401b0302191690836001600160401b031602179055505b84805480610a0a57610a0a612558565b60008281526020902060046000199092019182040180546001600160401b03600860038516026101000a0219169055905550600191506107e79050565b80610a518161256e565b915050610906565b8154600090815b81811015610aa95783858281548110610a7b57610a7b612515565b90600052602060002001541415610a97576000925050506107e7565b80610aa18161256e565b915050610a60565b50508254600180820185556000948552602090942001919091555090565b8154600090815b818110156107e0578363ffffffff16858281548110610aef57610aef612515565b6000918252602090912060088204015460079091166004026101000a900463ffffffff161415610b24576001925050506107e7565b80610b2e8161256e565b915050610ace565b8054600090815b81811015610b8157838181548110610b5757610b57612515565b906000526020600020015483610b6d9190612589565b925080610b798161256e565b915050610b3d565b5050919050565b80545b600081610b97816125a1565b92501115610bd65781805480610baf57610baf612558565b600082815260209020810160001990810180546001600160a01b0319169055019055610b8b565b5050565b8054600090815b81811015610b8157838181548110610bfb57610bfb612515565b90600052602060002090600891828204019190066004029054906101000a900463ffffffff1683610c2c91906125b8565b925080610c388161256e565b915050610be1565b60408051600180825281830190925260609160009190602080830190803683370190505090508281600081518110610c7a57610c7a612515565b602002602001018181525050610c9081856107ed565b949350505050565b8154600090815b818110156107e057836001600160e01b031916858281548110610cc457610cc4612515565b90600052602060002090600891828204019190066004029054906101000a900460e01b6001600160e01b0319161415610d9a57610d02600183612541565b8110156107845784610d15600184612541565b81548110610d2557610d25612515565b90600052602060002090600891828204019190066004029054906101000a900460e01b858281548110610d5a57610d5a612515565b90600052602060002090600891828204019190066004026101000a81548163ffffffff021916908360e01c02179055508480548061079457610794612558565b80610da48161256e565b915050610c9f565b8151600090815b818110156107e05783858281518110610dce57610dce612515565b60200260200101511415610de7576001925050506107e7565b80610df18161256e565b915050610db3565b8151600090815b818110156107e057836001600160e01b031916858281518110610e2557610e25612515565b60200260200101516001600160e01b0319161415610e48576001925050506107e7565b80610e528161256e565b915050610e00565b600082815b81811015610ec457836001600160a01b0316868683818110610e8357610e83612515565b9050602002016020810190610e9891906125e0565b6001600160a01b03161415610eb257600192505050610ecb565b80610ebc8161256e565b915050610e5f565b5060009150505b9392505050565b8151606090610ee2816001612589565b6001600160401b03811115610ef957610ef9611c3f565b604051908082528060200260200182016040528015610f2c57816020015b6060815260200190600190039081610f175790505b50915060005b81811015610f8457848181518110610f4c57610f4c612515565b6020026020010151838281518110610f6657610f66612515565b60200260200101819052508080610f7c9061256e565b915050610f32565b5082828281518110610f9857610f98612515565b60200260200101819052505092915050565b600082815b81811015610ec45783868683818110610fca57610fca612515565b905060200201351415610fe257600192505050610ecb565b80610fec8161256e565b915050610faf565b8154600090815b818110156107e057836001600160e01b03191685828154811061102057611020612515565b90600052602060002090600891828204019190066004029054906101000a900460e01b6001600160e01b031916141561105e576001925050506107e7565b806110688161256e565b915050610ffb565b8154600090815b818110156107e0578385828154811061109257611092612515565b906000526020600020015414156110ae576001925050506107e7565b806110b88161256e565b915050611077565b8154600090815b81811015610aa957838582815481106110e2576110e2612515565b906000526020600020015414156110fe576000925050506107e7565b806111088161256e565b9150506110c7565b80545b60008161111f816125a1565b92501115610bd6578180548061113757611137612558565b600082815260209020600860001990920191820401805463ffffffff600460078516026101000a02191690559055611113565b8154600090815b818110156111cd57836001600160a01b031685828154811061119557611195612515565b6000918252602090912001546001600160a01b031614156111bb576000925050506107e7565b806111c58161256e565b915050611171565b5050825460018082018555600094855260209094200180546001600160a01b0319166001600160a01b0393909316929092179091555090565b8151600090815b818110156107e057836001600160401b031685828151811061123157611231612515565b60200260200101516001600160401b03161415611253576001925050506107e7565b8061125d8161256e565b91505061120d565b8154600090815b818110156107e0578385828154811061128757611287612515565b90600052602060002001541415611321576112a3600183612541565b8110156112f057846112b6600184612541565b815481106112c6576112c6612515565b90600052602060002001548582815481106112e3576112e3612515565b6000918252602090912001555b8480548061130057611300612558565b600190038181906000526020600020016000905590556001925050506107e7565b8061132b8161256e565b91505061126c565b8154600090815b818110156107e0578385828154811061135557611355612515565b90600052602060002001541415611371576112a3600183612541565b8061137b8161256e565b91505061133a565b606060008251602061139591906125fb565b9050806001600160401b038111156113af576113af611c3f565b6040519080825280601f01601f1916602001820160405280156113d9576020820181803683370190505b50915060205b818111610b8157838101838201526113f8602082612589565b90506113df565b8154600090815b818110156107e057836001600160401b031685828154811061142a5761142a612515565b6000918252602090912060048204015460039091166008026101000a90046001600160401b03161415611462576001925050506107e7565b8061146c8161256e565b915050611406565b8151600090815b818110156107e0578363ffffffff1685828151811061149c5761149c612515565b602002602001015163ffffffff1614156114bb576001925050506107e7565b806114c58161256e565b91505061147b565b80545b6000816114dc816125a1565b92501115610bd657818054806114f4576114f4612558565b60008281526020902060046000199092019182040180546001600160401b03600860038516026101000a021916905590556114d0565b8151600090815b818110156107e0578385828151811061154c5761154c612515565b60200260200101511415611565576001925050506107e7565b8061156f8161256e565b915050611531565b8154600090815b818110156115f357836001600160e01b0319168582815481106115a3576115a3612515565b90600052602060002090600891828204019190066004029054906101000a900460e01b6001600160e01b03191614156115e1576000925050506107e7565b806115eb8161256e565b91505061157e565b5050825460018082018555600094855260209094206008820401805463ffffffff60079093166004026101000a928302191660e09490941c91909102929092179091555090565b6040805160018082528183019092526060916000919060208083019080368337019050509050828160008151811061167457611674612515565b602002602001018181525050610c9084826107ed565b8151600090815b818110156107e057838582815181106116ac576116ac612515565b602002602001015114156116c5576001925050506107e7565b806116cf8161256e565b915050611691565b8154600090815b818110156107e057838582815481106116f9576116f9612515565b90600052602060002001541415611715576001925050506107e7565b8061171f8161256e565b9150506116de565b8151606090611737816001612589565b6001600160401b0381111561174e5761174e611c3f565b604051908082528060200260200182016040528015611777578160200160208202803683370190505b50915060005b818110156117ce5784818151811061179757611797612515565b60200260200101518382815181106117b1576117b1612515565b6020908102919091010152806117c68161256e565b91505061177d565b50828282815181106117e2576117e2612515565b6020026020010181815250505092915050565b80545b600081611804816125a1565b92501115610bd6578180548061181c5761181c612558565b600190038181906000526020600020016000905590556117f8565b8151600090815b818110156107e057836001600160a01b031685828151811061186257611862612515565b60200260200101516001600160a01b03161415611884576001925050506107e7565b8061188e8161256e565b91505061183e565b8154600090815b81811015611905578363ffffffff168582815481106118be576118be612515565b6000918252602090912060088204015460079091166004026101000a900463ffffffff1614156118f3576000925050506107e7565b806118fd8161256e565b91505061189d565b5050825460018082018555600094855260209094206008820401805460079092166004026101000a63ffffffff818102199093169490921691909102929092179091555090565b8054600090815b81811015610b815783818154811061196d5761196d612515565b90600052602060002090600491828204019190066008029054906101000a90046001600160401b0316836119a1919061261a565b9250806119ad8161256e565b915050611953565b8154600090815b818110156107e057836001600160a01b03168582815481106119e0576119e0612515565b6000918252602090912001546001600160a01b03161415611ac657611a06600183612541565b811015611a885784611a19600184612541565b81548110611a2957611a29612515565b9060005260206000200160009054906101000a90046001600160a01b0316858281548110611a5957611a59612515565b9060005260206000200160006101000a8154816001600160a01b0302191690836001600160a01b031602179055505b84805480611a9857611a98612558565b600082815260209020810160001990810180546001600160a01b031916905501905550600191506107e79050565b80611ad08161256e565b9150506119bc565b8154600090815b818110156107e057836001600160a01b0316858281548110611b0357611b03612515565b6000918252602090912001546001600160a01b03161415611b29576001925050506107e7565b80611b338161256e565b915050611adf565b8154600090815b81811015611bb057836001600160401b0316858281548110611b6657611b66612515565b6000918252602090912060048204015460039091166008026101000a90046001600160401b03161415611b9e576000925050506107e7565b80611ba88161256e565b915050611b42565b5050825460018082018555600094855260209094206004820401805460039092166008026101000a6001600160401b03818102199093169490921691909102929092179091555090565b803563ffffffff81168114611c0e57600080fd5b919050565b60008060408385031215611c2657600080fd5b82359150611c3660208401611bfa565b90509250929050565b634e487b7160e01b600052604160045260246000fd5b604051601f8201601f191681016001600160401b0381118282101715611c7d57611c7d611c3f565b604052919050565b60006001600160401b03821115611c9e57611c9e611c3f565b5060051b60200190565b600082601f830112611cb957600080fd5b81356020611cce611cc983611c85565b611c55565b82815260059290921b84018101918181019086841115611ced57600080fd5b8286015b84811015611d085780358352918301918301611cf1565b509695505050505050565b60008060408385031215611d2657600080fd5b82356001600160401b0380821115611d3d57600080fd5b611d4986838701611ca8565b93506020850135915080821115611d5f57600080fd5b50611d6c85828601611ca8565b9150509250929050565b6020808252825182820181905260009190848201906040850190845b81811015611dae57835183529284019291840191600101611d92565b50909695505050505050565b80356001600160401b0381168114611c0e57600080fd5b60008060408385031215611de457600080fd5b82359150611c3660208401611dba565b60008060408385031215611e0757600080fd5b50508035926020909101359150565b600060208284031215611e2857600080fd5b5035919050565b60008060408385031215611e4257600080fd5b82356001600160401b03811115611e5857600080fd5b611e6485828601611ca8565b95602094909401359450505050565b80356001600160e01b031981168114611c0e57600080fd5b60008060408385031215611e9e57600080fd5b82359150611c3660208401611e73565b60008060408385031215611ec157600080fd5b82356001600160401b03811115611ed757600080fd5b8301601f81018513611ee857600080fd5b80356020611ef8611cc983611c85565b82815260059290921b83018101918181019088841115611f1757600080fd5b938201935b83851015611f3557843582529382019390820190611f1c565b98969091013596505050505050565b60008060408385031215611f5757600080fd5b82356001600160401b03811115611f6d57600080fd5b8301601f81018513611f7e57600080fd5b80356020611f8e611cc983611c85565b82815260059290921b83018101918181019088841115611fad57600080fd5b938201935b83851015611fd257611fc385611e73565b82529382019390820190611fb2565b9550611fe19050868201611e73565b93505050509250929050565b60008083601f840112611fff57600080fd5b5081356001600160401b0381111561201657600080fd5b6020830191508360208260051b850101111561203157600080fd5b9250929050565b80356001600160a01b0381168114611c0e57600080fd5b60008060006040848603121561206457600080fd5b83356001600160401b0381111561207a57600080fd5b61208686828701611fed565b9094509250612099905060208501612038565b90509250925092565b600082601f8301126120b357600080fd5b81356001600160401b038111156120cc576120cc611c3f565b6120df601f8201601f1916602001611c55565b8181528460208386010111156120f457600080fd5b816020850160208301376000918101602001919091529392505050565b6000806040838503121561212457600080fd5b82356001600160401b038082111561213b57600080fd5b818501915085601f83011261214f57600080fd5b8135602061215f611cc983611c85565b82815260059290921b8401810191818101908984111561217e57600080fd5b8286015b848110156121b65780358681111561219a5760008081fd5b6121a88c86838b01016120a2565b845250918301918301612182565b50965050860135925050808211156121cd57600080fd5b50611d6c858286016120a2565b6000815180845260005b81811015612200576020818501810151868301820152016121e4565b81811115612212576000602083870101525b50601f01601f19169290920160200192915050565b6000602080830181845280855180835260408601915060408160051b870101925083870160005b8281101561227c57603f1988860301845261226a8583516121da565b9450928501929085019060010161224e565b5092979650505050505050565b60008060006040848603121561229e57600080fd5b83356001600160401b038111156122b457600080fd5b6122c086828701611fed565b909790965060209590950135949350505050565b600080604083850312156122e757600080fd5b82359150611c3660208401612038565b6000806040838503121561230a57600080fd5b82356001600160401b0381111561232057600080fd5b8301601f8101851361233157600080fd5b80356020612341611cc983611c85565b82815260059290921b8301810191818101908884111561236057600080fd5b938201935b838510156123855761237685611dba565b82529382019390820190612365565b9550611fe19050868201611dba565b6000602082840312156123a657600080fd5b81356001600160401b038111156123bc57600080fd5b610c9084828501611ca8565b602081526000610ecb60208301846121da565b600080604083850312156123ee57600080fd5b82356001600160401b0381111561240457600080fd5b8301601f8101851361241557600080fd5b80356020612425611cc983611c85565b82815260059290921b8301810191818101908884111561244457600080fd5b938201935b838510156124695761245a85611bfa565b82529382019390820190612449565b9550611fe19050868201611bfa565b6000806040838503121561248b57600080fd5b82356001600160401b038111156124a157600080fd5b8301601f810185136124b257600080fd5b803560206124c2611cc983611c85565b82815260059290921b830181019181810190888411156124e157600080fd5b938201935b83851015612506576124f785612038565b825293820193908201906124e6565b9550611fe19050868201612038565b634e487b7160e01b600052603260045260246000fd5b634e487b7160e01b600052601160045260246000fd5b6000828210156125535761255361252b565b500390565b634e487b7160e01b600052603160045260246000fd5b60006000198214156125825761258261252b565b5060010190565b6000821982111561259c5761259c61252b565b500190565b6000816125b0576125b061252b565b506000190190565b600063ffffffff8083168185168083038211156125d7576125d761252b565b01949350505050565b6000602082840312156125f257600080fd5b610ecb82612038565b60008160001904831182151516156126155761261561252b565b500290565b60006001600160401b038083168185168083038211156125d7576125d761252b56fea2646970667358221220870718cbc6f51e7eab327da0a2abb31d1af4acd23bd88b9d00c9aaf08e43f04364736f6c634300080b0033","bytecodeSha1":"fd4f0c673fd8b580e7d2bdd9d4d3887760366e8a","compiler":{"evm_version":"istanbul","optimizer":{"enabled":true,"runs":200},"version":"0.8.11+commit.d7f03943"},"contractName":"Array","language":"Solidity","natspec":{"kind":"dev","methods":{},"version":1},"opcodes":"PUSH20 0x0 ADDRESS EQ PUSH1 0x80 PUSH1 0x40 MSTORE PUSH1 0x4 CALLDATASIZE LT PUSH2 0x252 JUMPI PUSH1 0x0 CALLDATALOAD PUSH1 0xE0 SHR DUP1 PUSH4 0x5C59737E GT PUSH2 0x145 JUMPI DUP1 PUSH4 0x9D84366D GT PUSH2 0xC2 JUMPI DUP1 PUSH4 0xDB8B4474 GT PUSH2 0x86 JUMPI DUP1 PUSH4 0xDB8B4474 EQ PUSH2 0x5FA JUMPI DUP1 PUSH4 0xE14F1C2A EQ PUSH2 0x61A JUMPI DUP1 PUSH4 0xEDEFE12D EQ PUSH2 0x645 JUMPI DUP1 PUSH4 0xF1325663 EQ PUSH2 0x665 JUMPI DUP1 PUSH4 0xF1672AAF EQ PUSH2 0x678 JUMPI PUSH1 0x0 DUP1 REVERT JUMPDEST DUP1 PUSH4 0x9D84366D EQ PUSH2 0x58E JUMPI DUP1 PUSH4 0xBCD9CC26 EQ PUSH2 0x5A1 JUMPI DUP1 PUSH4 0xC202F51B EQ PUSH2 0x5B4 JUMPI DUP1 PUSH4 0xC25F860A EQ PUSH2 0x5C7 JUMPI DUP1 PUSH4 0xC372F963 EQ PUSH2 0x5E7 JUMPI PUSH1 0x0 DUP1 REVERT JUMPDEST DUP1 PUSH4 0x7FE05040 GT PUSH2 0x109 JUMPI DUP1 PUSH4 0x7FE05040 EQ PUSH2 0x515 JUMPI DUP1 PUSH4 0x7FE25EC1 EQ PUSH2 0x528 JUMPI DUP1 PUSH4 0x80552068 EQ PUSH2 0x548 JUMPI DUP1 PUSH4 0x825998C1 EQ PUSH2 0x55B JUMPI DUP1 PUSH4 0x9B861F03 EQ PUSH2 0x57B JUMPI PUSH1 0x0 DUP1 REVERT JUMPDEST DUP1 PUSH4 0x5C59737E EQ PUSH2 0x48F JUMPI DUP1 PUSH4 0x677CA2D8 EQ PUSH2 0x4A2 JUMPI DUP1 PUSH4 0x6B85D051 EQ PUSH2 0x4C2 JUMPI DUP1 PUSH4 0x72BE67BC EQ PUSH2 0x4E2 JUMPI DUP1 PUSH4 0x792B2438 EQ PUSH2 0x502 JUMPI PUSH1 0x0 DUP1 REVERT JUMPDEST DUP1 PUSH4 0x3DF92754 GT PUSH2 0x1D3 JUMPI DUP1 PUSH4 0x538D6AAB GT PUSH2 0x197 JUMPI DUP1 PUSH4 0x538D6AAB EQ PUSH2 0x409 JUMPI DUP1 PUSH4 0x57CBB646 EQ PUSH2 0x41C JUMPI DUP1 PUSH4 0x581869C4 EQ PUSH2 0x42F JUMPI DUP1 PUSH4 0x59A07DDE EQ PUSH2 0x44F JUMPI DUP1 PUSH4 0x5BD2E4A4 EQ PUSH2 0x46F JUMPI PUSH1 0x0 DUP1 REVERT JUMPDEST DUP1 PUSH4 0x3DF92754 EQ PUSH2 0x39D JUMPI DUP1 PUSH4 0x49A050D6 EQ PUSH2 0x3B0 JUMPI DUP1 PUSH4 0x4A5668C5 EQ PUSH2 0x3C3 JUMPI DUP1 PUSH4 0x4BCB0085 EQ PUSH2 0x3D6 JUMPI DUP1 PUSH4 0x4D469D3D EQ PUSH2 0x3F6 JUMPI PUSH1 0x0 DUP1 REVERT JUMPDEST DUP1 PUSH4 0x2D9F6570 GT PUSH2 0x21A JUMPI DUP1 PUSH4 0x2D9F6570 EQ PUSH2 0x2FF JUMPI DUP1 PUSH4 0x32B290AB EQ PUSH2 0x320 JUMPI DUP1 PUSH4 0x37159077 EQ PUSH2 0x342 JUMPI DUP1 PUSH4 0x3B06E74F EQ PUSH2 0x36A JUMPI DUP1 PUSH4 0x3B2F7C2F EQ PUSH2 0x37D JUMPI PUSH1 0x0 DUP1 REVERT JUMPDEST DUP1 PUSH4 0x10737D0B EQ PUSH2 0x257 JUMPI DUP1 PUSH4 0x13825748 EQ PUSH2 0x28C JUMPI DUP1 PUSH4 0x1DFC7E13 EQ PUSH2 0x2AC JUMPI DUP1 PUSH4 0x209978E8 EQ PUSH2 0x2CC JUMPI DUP1 PUSH4 0x21B5A47D EQ PUSH2 0x2EC JUMPI JUMPDEST PUSH1 0x0 DUP1 REVERT JUMPDEST DUP2 DUP1 ISZERO PUSH2 0x263 JUMPI PUSH1 0x0 DUP1 REVERT JUMPDEST POP PUSH2 0x277 PUSH2 0x272 CALLDATASIZE PUSH1 0x4 PUSH2 0x1C13 JUMP JUMPDEST PUSH2 0x698 JUMP JUMPDEST PUSH1 0x40 MLOAD SWAP1 ISZERO ISZERO DUP2 MSTORE PUSH1 0x20 ADD JUMPDEST PUSH1 0x40 MLOAD DUP1 SWAP2 SUB SWAP1 RETURN JUMPDEST PUSH2 0x29F PUSH2 0x29A CALLDATASIZE PUSH1 0x4 PUSH2 0x1D13 JUMP JUMPDEST PUSH2 0x7ED JUMP JUMPDEST PUSH1 0x40 MLOAD PUSH2 0x283 SWAP2 SWAP1 PUSH2 0x1D76 JUMP JUMPDEST DUP2 DUP1 ISZERO PUSH2 0x2B8 JUMPI PUSH1 0x0 DUP1 REVERT JUMPDEST POP PUSH2 0x277 PUSH2 0x2C7 CALLDATASIZE PUSH1 0x4 PUSH2 0x1DD1 JUMP JUMPDEST PUSH2 0x8FF JUMP JUMPDEST DUP2 DUP1 ISZERO PUSH2 0x2D8 JUMPI PUSH1 0x0 DUP1 REVERT JUMPDEST POP PUSH2 0x277 PUSH2 0x2E7 CALLDATASIZE PUSH1 0x4 PUSH2 0x1DF4 JUMP JUMPDEST PUSH2 0xA59 JUMP JUMPDEST PUSH2 0x277 PUSH2 0x2FA CALLDATASIZE PUSH1 0x4 PUSH2 0x1C13 JUMP JUMPDEST PUSH2 0xAC7 JUMP JUMPDEST PUSH2 0x312 PUSH2 0x30D CALLDATASIZE PUSH1 0x4 PUSH2 0x1E16 JUMP JUMPDEST PUSH2 0xB36 JUMP JUMPDEST PUSH1 0x40 MLOAD SWAP1 DUP2 MSTORE PUSH1 0x20 ADD PUSH2 0x283 JUMP JUMPDEST DUP2 DUP1 ISZERO PUSH2 0x32C JUMPI PUSH1 0x0 DUP1 REVERT JUMPDEST POP PUSH2 0x340 PUSH2 0x33B CALLDATASIZE PUSH1 0x4 PUSH2 0x1E16 JUMP JUMPDEST PUSH2 0xB88 JUMP JUMPDEST STOP JUMPDEST PUSH2 0x355 PUSH2 0x350 CALLDATASIZE PUSH1 0x4 PUSH2 0x1E16 JUMP JUMPDEST PUSH2 0xBDA JUMP JUMPDEST PUSH1 0x40 MLOAD PUSH4 0xFFFFFFFF SWAP1 SWAP2 AND DUP2 MSTORE PUSH1 0x20 ADD PUSH2 0x283 JUMP JUMPDEST PUSH2 0x29F PUSH2 0x378 CALLDATASIZE PUSH1 0x4 PUSH2 0x1E2F JUMP JUMPDEST PUSH2 0xC40 JUMP JUMPDEST DUP2 DUP1 ISZERO PUSH2 0x389 JUMPI PUSH1 0x0 DUP1 REVERT JUMPDEST POP PUSH2 0x277 PUSH2 0x398 CALLDATASIZE PUSH1 0x4 PUSH2 0x1E8B JUMP JUMPDEST PUSH2 0xC98 JUMP JUMPDEST PUSH2 0x277 PUSH2 0x3AB CALLDATASIZE PUSH1 0x4 PUSH2 0x1EAE JUMP JUMPDEST PUSH2 0xDAC JUMP JUMPDEST PUSH2 0x277 PUSH2 0x3BE CALLDATASIZE PUSH1 0x4 PUSH2 0x1F44 JUMP JUMPDEST PUSH2 0xDF9 JUMP JUMPDEST PUSH2 0x277 PUSH2 0x3D1 CALLDATASIZE PUSH1 0x4 PUSH2 0x204F JUMP JUMPDEST PUSH2 0xE5A JUMP JUMPDEST PUSH2 0x3E9 PUSH2 0x3E4 CALLDATASIZE PUSH1 0x4 PUSH2 0x2111 JUMP JUMPDEST PUSH2 0xED2 JUMP JUMPDEST PUSH1 0x40 MLOAD PUSH2 0x283 SWAP2 SWAP1 PUSH2 0x2227 JUMP JUMPDEST PUSH2 0x277 PUSH2 0x404 CALLDATASIZE PUSH1 0x4 PUSH2 0x2289 JUMP JUMPDEST PUSH2 0xFAA JUMP JUMPDEST PUSH2 0x277 PUSH2 0x417 CALLDATASIZE PUSH1 0x4 PUSH2 0x1E8B JUMP JUMPDEST PUSH2 0xFF4 JUMP JUMPDEST PUSH2 0x277 PUSH2 0x42A CALLDATASIZE PUSH1 0x4 PUSH2 0x1DF4 JUMP JUMPDEST PUSH2 0x1070 JUMP JUMPDEST DUP2 DUP1 ISZERO PUSH2 0x43B JUMPI PUSH1 0x0 DUP1 REVERT JUMPDEST POP PUSH2 0x277 PUSH2 0x44A CALLDATASIZE PUSH1 0x4 PUSH2 0x1DF4 JUMP JUMPDEST PUSH2 0x10C0 JUMP JUMPDEST DUP2 DUP1 ISZERO PUSH2 0x45B JUMPI PUSH1 0x0 DUP1 REVERT JUMPDEST POP PUSH2 0x340 PUSH2 0x46A CALLDATASIZE PUSH1 0x4 PUSH2 0x1E16 JUMP JUMPDEST PUSH2 0x1110 JUMP JUMPDEST DUP2 DUP1 ISZERO PUSH2 0x47B JUMPI PUSH1 0x0 DUP1 REVERT JUMPDEST POP PUSH2 0x277 PUSH2 0x48A CALLDATASIZE PUSH1 0x4 PUSH2 0x22D4 JUMP JUMPDEST PUSH2 0x116A JUMP JUMPDEST PUSH2 0x277 PUSH2 0x49D CALLDATASIZE PUSH1 0x4 PUSH2 0x22F7 JUMP JUMPDEST PUSH2 0x1206 JUMP JUMPDEST DUP2 DUP1 ISZERO PUSH2 0x4AE JUMPI PUSH1 0x0 DUP1 REVERT JUMPDEST POP PUSH2 0x277 PUSH2 0x4BD CALLDATASIZE PUSH1 0x4 PUSH2 0x1DF4 JUMP JUMPDEST PUSH2 0x1265 JUMP JUMPDEST DUP2 DUP1 ISZERO PUSH2 0x4CE JUMPI PUSH1 0x0 DUP1 REVERT JUMPDEST POP PUSH2 0x277 PUSH2 0x4DD CALLDATASIZE PUSH1 0x4 PUSH2 0x1DF4 JUMP JUMPDEST PUSH2 0x1333 JUMP JUMPDEST PUSH2 0x4F5 PUSH2 0x4F0 CALLDATASIZE PUSH1 0x4 PUSH2 0x2394 JUMP JUMPDEST PUSH2 0x1383 JUMP JUMPDEST PUSH1 0x40 MLOAD PUSH2 0x283 SWAP2 SWAP1 PUSH2 0x23C8 JUMP JUMPDEST PUSH2 0x277 PUSH2 0x510 CALLDATASIZE PUSH1 0x4 PUSH2 0x1DD1 JUMP JUMPDEST PUSH2 0x13FF JUMP JUMPDEST PUSH2 0x277 PUSH2 0x523 CALLDATASIZE PUSH1 0x4 PUSH2 0x23DB JUMP JUMPDEST PUSH2 0x1474 JUMP JUMPDEST DUP2 DUP1 ISZERO PUSH2 0x534 JUMPI PUSH1 0x0 DUP1 REVERT JUMPDEST POP PUSH2 0x340 PUSH2 0x543 CALLDATASIZE PUSH1 0x4 PUSH2 0x1E16 JUMP JUMPDEST PUSH2 0x14CD JUMP JUMPDEST PUSH2 0x277 PUSH2 0x556 CALLDATASIZE PUSH1 0x4 PUSH2 0x1E2F JUMP JUMPDEST PUSH2 0x152A JUMP JUMPDEST DUP2 DUP1 ISZERO PUSH2 0x567 JUMPI PUSH1 0x0 DUP1 REVERT JUMPDEST POP PUSH2 0x277 PUSH2 0x576 CALLDATASIZE PUSH1 0x4 PUSH2 0x1E8B JUMP JUMPDEST PUSH2 0x1577 JUMP JUMPDEST PUSH2 0x29F PUSH2 0x589 CALLDATASIZE PUSH1 0x4 PUSH2 0x1E2F JUMP JUMPDEST PUSH2 0x163A JUMP JUMPDEST PUSH2 0x277 PUSH2 0x59C CALLDATASIZE PUSH1 0x4 PUSH2 0x1E2F JUMP JUMPDEST PUSH2 0x168A JUMP JUMPDEST PUSH2 0x277 PUSH2 0x5AF CALLDATASIZE PUSH1 0x4 PUSH2 0x1DF4 JUMP JUMPDEST PUSH2 0x16D7 JUMP JUMPDEST PUSH2 0x29F PUSH2 0x5C2 CALLDATASIZE PUSH1 0x4 PUSH2 0x1E2F JUMP JUMPDEST PUSH2 0x1727 JUMP JUMPDEST DUP2 DUP1 ISZERO PUSH2 0x5D3 JUMPI PUSH1 0x0 DUP1 REVERT JUMPDEST POP PUSH2 0x340 PUSH2 0x5E2 CALLDATASIZE PUSH1 0x4 PUSH2 0x1E16 JUMP JUMPDEST PUSH2 0x17F5 JUMP JUMPDEST PUSH2 0x277 PUSH2 0x5F5 CALLDATASIZE PUSH1 0x4 PUSH2 0x2478 JUMP JUMPDEST PUSH2 0x1837 JUMP JUMPDEST DUP2 DUP1 ISZERO PUSH2 0x606 JUMPI PUSH1 0x0 DUP1 REVERT JUMPDEST POP PUSH2 0x277 PUSH2 0x615 CALLDATASIZE PUSH1 0x4 PUSH2 0x1C13 JUMP JUMPDEST PUSH2 0x1896 JUMP JUMPDEST PUSH2 0x62D PUSH2 0x628 CALLDATASIZE PUSH1 0x4 PUSH2 0x1E16 JUMP JUMPDEST PUSH2 0x194C JUMP JUMPDEST PUSH1 0x40 MLOAD PUSH1 0x1 PUSH1 0x1 PUSH1 0x40 SHL SUB SWAP1 SWAP2 AND DUP2 MSTORE PUSH1 0x20 ADD PUSH2 0x283 JUMP JUMPDEST DUP2 DUP1 ISZERO PUSH2 0x651 JUMPI PUSH1 0x0 DUP1 REVERT JUMPDEST POP PUSH2 0x277 PUSH2 0x660 CALLDATASIZE PUSH1 0x4 PUSH2 0x22D4 JUMP JUMPDEST PUSH2 0x19B5 JUMP JUMPDEST PUSH2 0x277 PUSH2 0x673 CALLDATASIZE PUSH1 0x4 PUSH2 0x22D4 JUMP JUMPDEST PUSH2 0x1AD8 JUMP JUMPDEST DUP2 DUP1 ISZERO PUSH2 0x684 JUMPI PUSH1 0x0 DUP1 REVERT JUMPDEST POP PUSH2 0x277 PUSH2 0x693 CALLDATASIZE PUSH1 0x4 PUSH2 0x1DD1 JUMP JUMPDEST PUSH2 0x1B3B JUMP JUMPDEST DUP2 SLOAD PUSH1 0x0 SWAP1 DUP2 JUMPDEST DUP2 DUP2 LT ISZERO PUSH2 0x7E0 JUMPI DUP4 PUSH4 0xFFFFFFFF AND DUP6 DUP3 DUP2 SLOAD DUP2 LT PUSH2 0x6C0 JUMPI PUSH2 0x6C0 PUSH2 0x2515 JUMP JUMPDEST PUSH1 0x0 SWAP2 DUP3 MSTORE PUSH1 0x20 SWAP1 SWAP2 KECCAK256 PUSH1 0x8 DUP3 DIV ADD SLOAD PUSH1 0x7 SWAP1 SWAP2 AND PUSH1 0x4 MUL PUSH2 0x100 EXP SWAP1 DIV PUSH4 0xFFFFFFFF AND EQ ISZERO PUSH2 0x7CE JUMPI PUSH2 0x6F5 PUSH1 0x1 DUP4 PUSH2 0x2541 JUMP JUMPDEST DUP2 LT ISZERO PUSH2 0x784 JUMPI DUP5 PUSH2 0x708 PUSH1 0x1 DUP5 PUSH2 0x2541 JUMP JUMPDEST DUP2 SLOAD DUP2 LT PUSH2 0x718 JUMPI PUSH2 0x718 PUSH2 0x2515 JUMP JUMPDEST SWAP1 PUSH1 0x0 MSTORE PUSH1 0x20 PUSH1 0x0 KECCAK256 SWAP1 PUSH1 0x8 SWAP2 DUP3 DUP3 DIV ADD SWAP2 SWAP1 MOD PUSH1 0x4 MUL SWAP1 SLOAD SWAP1 PUSH2 0x100 EXP SWAP1 DIV PUSH4 0xFFFFFFFF AND DUP6 DUP3 DUP2 SLOAD DUP2 LT PUSH2 0x750 JUMPI PUSH2 0x750 PUSH2 0x2515 JUMP JUMPDEST SWAP1 PUSH1 0x0 MSTORE PUSH1 0x20 PUSH1 0x0 KECCAK256 SWAP1 PUSH1 0x8 SWAP2 DUP3 DUP3 DIV ADD SWAP2 SWAP1 MOD PUSH1 0x4 MUL PUSH2 0x100 EXP DUP2 SLOAD DUP2 PUSH4 0xFFFFFFFF MUL NOT AND SWAP1 DUP4 PUSH4 0xFFFFFFFF AND MUL OR SWAP1 SSTORE POP JUMPDEST DUP5 DUP1 SLOAD DUP1 PUSH2 0x794 JUMPI PUSH2 0x794 PUSH2 0x2558 JUMP JUMPDEST PUSH1 0x0 DUP3 DUP2 MSTORE PUSH1 0x20 SWAP1 KECCAK256 PUSH1 0x8 PUSH1 0x0 NOT SWAP1 SWAP3 ADD SWAP2 DUP3 DIV ADD DUP1 SLOAD PUSH4 0xFFFFFFFF PUSH1 0x4 PUSH1 0x7 DUP6 AND MUL PUSH2 0x100 EXP MUL NOT AND SWAP1 SSTORE SWAP1 SSTORE POP PUSH1 0x1 SWAP2 POP PUSH2 0x7E7 SWAP1 POP JUMP JUMPDEST DUP1 PUSH2 0x7D8 DUP2 PUSH2 0x256E JUMP JUMPDEST SWAP2 POP POP PUSH2 0x69F JUMP JUMPDEST POP PUSH1 0x0 SWAP2 POP POP JUMPDEST SWAP3 SWAP2 POP POP JUMP JUMPDEST DUP2 MLOAD DUP2 MLOAD PUSH1 0x60 SWAP2 SWAP1 PUSH2 0x7FF DUP2 DUP4 PUSH2 0x2589 JUMP JUMPDEST PUSH1 0x1 PUSH1 0x1 PUSH1 0x40 SHL SUB DUP2 GT ISZERO PUSH2 0x816 JUMPI PUSH2 0x816 PUSH2 0x1C3F JUMP JUMPDEST PUSH1 0x40 MLOAD SWAP1 DUP1 DUP3 MSTORE DUP1 PUSH1 0x20 MUL PUSH1 0x20 ADD DUP3 ADD PUSH1 0x40 MSTORE DUP1 ISZERO PUSH2 0x83F JUMPI DUP2 PUSH1 0x20 ADD PUSH1 0x20 DUP3 MUL DUP1 CALLDATASIZE DUP4 CALLDATACOPY ADD SWAP1 POP JUMPDEST POP SWAP3 POP PUSH1 0x0 JUMPDEST DUP3 DUP2 LT ISZERO PUSH2 0x896 JUMPI DUP6 DUP2 DUP2 MLOAD DUP2 LT PUSH2 0x85F JUMPI PUSH2 0x85F PUSH2 0x2515 JUMP JUMPDEST PUSH1 0x20 MUL PUSH1 0x20 ADD ADD MLOAD DUP5 DUP3 DUP2 MLOAD DUP2 LT PUSH2 0x879 JUMPI PUSH2 0x879 PUSH2 0x2515 JUMP JUMPDEST PUSH1 0x20 SWAP1 DUP2 MUL SWAP2 SWAP1 SWAP2 ADD ADD MSTORE DUP1 PUSH2 0x88E DUP2 PUSH2 0x256E JUMP JUMPDEST SWAP2 POP POP PUSH2 0x845 JUMP JUMPDEST POP PUSH1 0x0 JUMPDEST DUP2 DUP2 LT ISZERO PUSH2 0x8F6 JUMPI DUP5 DUP2 DUP2 MLOAD DUP2 LT PUSH2 0x8B4 JUMPI PUSH2 0x8B4 PUSH2 0x2515 JUMP JUMPDEST PUSH1 0x20 MUL PUSH1 0x20 ADD ADD MLOAD DUP5 DUP3 DUP6 PUSH2 0x8C9 SWAP2 SWAP1 PUSH2 0x2589 JUMP JUMPDEST DUP2 MLOAD DUP2 LT PUSH2 0x8D9 JUMPI PUSH2 0x8D9 PUSH2 0x2515 JUMP JUMPDEST PUSH1 0x20 SWAP1 DUP2 MUL SWAP2 SWAP1 SWAP2 ADD ADD MSTORE DUP1 PUSH2 0x8EE DUP2 PUSH2 0x256E JUMP JUMPDEST SWAP2 POP POP PUSH2 0x89A JUMP JUMPDEST POP POP POP SWAP3 SWAP2 POP POP JUMP JUMPDEST DUP2 SLOAD PUSH1 0x0 SWAP1 DUP2 JUMPDEST DUP2 DUP2 LT ISZERO PUSH2 0x7E0 JUMPI DUP4 PUSH1 0x1 PUSH1 0x1 PUSH1 0x40 SHL SUB AND DUP6 DUP3 DUP2 SLOAD DUP2 LT PUSH2 0x92A JUMPI PUSH2 0x92A PUSH2 0x2515 JUMP JUMPDEST PUSH1 0x0 SWAP2 DUP3 MSTORE PUSH1 0x20 SWAP1 SWAP2 KECCAK256 PUSH1 0x4 DUP3 DIV ADD SLOAD PUSH1 0x3 SWAP1 SWAP2 AND PUSH1 0x8 MUL PUSH2 0x100 EXP SWAP1 DIV PUSH1 0x1 PUSH1 0x1 PUSH1 0x40 SHL SUB AND EQ ISZERO PUSH2 0xA47 JUMPI PUSH2 0x962 PUSH1 0x1 DUP4 PUSH2 0x2541 JUMP JUMPDEST DUP2 LT ISZERO PUSH2 0x9FA JUMPI DUP5 PUSH2 0x975 PUSH1 0x1 DUP5 PUSH2 0x2541 JUMP JUMPDEST DUP2 SLOAD DUP2 LT PUSH2 0x985 JUMPI PUSH2 0x985 PUSH2 0x2515 JUMP JUMPDEST SWAP1 PUSH1 0x0 MSTORE PUSH1 0x20 PUSH1 0x0 KECCAK256 SWAP1 PUSH1 0x4 SWAP2 DUP3 DUP3 DIV ADD SWAP2 SWAP1 MOD PUSH1 0x8 MUL SWAP1 SLOAD SWAP1 PUSH2 0x100 EXP SWAP1 DIV PUSH1 0x1 PUSH1 0x1 PUSH1 0x40 SHL SUB AND DUP6 DUP3 DUP2 SLOAD DUP2 LT PUSH2 0x9C0 JUMPI PUSH2 0x9C0 PUSH2 0x2515 JUMP JUMPDEST SWAP1 PUSH1 0x0 MSTORE PUSH1 0x20 PUSH1 0x0 KECCAK256 SWAP1 PUSH1 0x4 SWAP2 DUP3 DUP3 DIV ADD SWAP2 SWAP1 MOD PUSH1 0x8 MUL PUSH2 0x100 EXP DUP2 SLOAD DUP2 PUSH1 0x1 PUSH1 0x1 PUSH1 0x40 SHL SUB MUL NOT AND SWAP1 DUP4 PUSH1 0x1 PUSH1 0x1 PUSH1 0x40 SHL SUB AND MUL OR SWAP1 SSTORE POP JUMPDEST DUP5 DUP1 SLOAD DUP1 PUSH2 0xA0A JUMPI PUSH2 0xA0A PUSH2 0x2558 JUMP JUMPDEST PUSH1 0x0 DUP3 DUP2 MSTORE PUSH1 0x20 SWAP1 KECCAK256 PUSH1 0x4 PUSH1 0x0 NOT SWAP1 SWAP3 ADD SWAP2 DUP3 DIV ADD DUP1 SLOAD PUSH1 0x1 PUSH1 0x1 PUSH1 0x40 SHL SUB PUSH1 0x8 PUSH1 0x3 DUP6 AND MUL PUSH2 0x100 EXP MUL NOT AND SWAP1 SSTORE SWAP1 SSTORE POP PUSH1 0x1 SWAP2 POP PUSH2 0x7E7 SWAP1 POP JUMP JUMPDEST DUP1 PUSH2 0xA51 DUP2 PUSH2 0x256E JUMP JUMPDEST SWAP2 POP POP PUSH2 0x906 JUMP JUMPDEST DUP2 SLOAD PUSH1 0x0 SWAP1 DUP2 JUMPDEST DUP2 DUP2 LT ISZERO PUSH2 0xAA9 JUMPI DUP4 DUP6 DUP3 DUP2 SLOAD DUP2 LT PUSH2 0xA7B JUMPI PUSH2 0xA7B PUSH2 0x2515 JUMP JUMPDEST SWAP1 PUSH1 0x0 MSTORE PUSH1 0x20 PUSH1 0x0 KECCAK256 ADD SLOAD EQ ISZERO PUSH2 0xA97 JUMPI PUSH1 0x0 SWAP3 POP POP POP PUSH2 0x7E7 JUMP JUMPDEST DUP1 PUSH2 0xAA1 DUP2 PUSH2 0x256E JUMP JUMPDEST SWAP2 POP POP PUSH2 0xA60 JUMP JUMPDEST POP POP DUP3 SLOAD PUSH1 0x1 DUP1 DUP3 ADD DUP6 SSTORE PUSH1 0x0 SWAP5 DUP6 MSTORE PUSH1 0x20 SWAP1 SWAP5 KECCAK256 ADD SWAP2 SWAP1 SWAP2 SSTORE POP SWAP1 JUMP JUMPDEST DUP2 SLOAD PUSH1 0x0 SWAP1 DUP2 JUMPDEST DUP2 DUP2 LT ISZERO PUSH2 0x7E0 JUMPI DUP4 PUSH4 0xFFFFFFFF AND DUP6 DUP3 DUP2 SLOAD DUP2 LT PUSH2 0xAEF JUMPI PUSH2 0xAEF PUSH2 0x2515 JUMP JUMPDEST PUSH1 0x0 SWAP2 DUP3 MSTORE PUSH1 0x20 SWAP1 SWAP2 KECCAK256 PUSH1 0x8 DUP3 DIV ADD SLOAD PUSH1 0x7 SWAP1 SWAP2 AND PUSH1 0x4 MUL PUSH2 0x100 EXP SWAP1 DIV PUSH4 0xFFFFFFFF AND EQ ISZERO PUSH2 0xB24 JUMPI PUSH1 0x1 SWAP3 POP POP POP PUSH2 0x7E7 JUMP JUMPDEST DUP1 PUSH2 0xB2E DUP2 PUSH2 0x256E JUMP JUMPDEST SWAP2 POP POP PUSH2 0xACE JUMP JUMPDEST DUP1 SLOAD PUSH1 0x0 SWAP1 DUP2 JUMPDEST DUP2 DUP2 LT ISZERO PUSH2 0xB81 JUMPI DUP4 DUP2 DUP2 SLOAD DUP2 LT PUSH2 0xB57 JUMPI PUSH2 0xB57 PUSH2 0x2515 JUMP JUMPDEST SWAP1 PUSH1 0x0 MSTORE PUSH1 0x20 PUSH1 0x0 KECCAK256 ADD SLOAD DUP4 PUSH2 0xB6D SWAP2 SWAP1 PUSH2 0x2589 JUMP JUMPDEST SWAP3 POP DUP1 PUSH2 0xB79 DUP2 PUSH2 0x256E JUMP JUMPDEST SWAP2 POP POP PUSH2 0xB3D JUMP JUMPDEST POP POP SWAP2 SWAP1 POP JUMP JUMPDEST DUP1 SLOAD JUMPDEST PUSH1 0x0 DUP2 PUSH2 0xB97 DUP2 PUSH2 0x25A1 JUMP JUMPDEST SWAP3 POP GT ISZERO PUSH2 0xBD6 JUMPI DUP2 DUP1 SLOAD DUP1 PUSH2 0xBAF JUMPI PUSH2 0xBAF PUSH2 0x2558 JUMP JUMPDEST PUSH1 0x0 DUP3 DUP2 MSTORE PUSH1 0x20 SWAP1 KECCAK256 DUP2 ADD PUSH1 0x0 NOT SWAP1 DUP2 ADD DUP1 SLOAD PUSH1 0x1 PUSH1 0x1 PUSH1 0xA0 SHL SUB NOT AND SWAP1 SSTORE ADD SWAP1 SSTORE PUSH2 0xB8B JUMP JUMPDEST POP POP JUMP JUMPDEST DUP1 SLOAD PUSH1 0x0 SWAP1 DUP2 JUMPDEST DUP2 DUP2 LT ISZERO PUSH2 0xB81 JUMPI DUP4 DUP2 DUP2 SLOAD DUP2 LT PUSH2 0xBFB JUMPI PUSH2 0xBFB PUSH2 0x2515 JUMP JUMPDEST SWAP1 PUSH1 0x0 MSTORE PUSH1 0x20 PUSH1 0x0 KECCAK256 SWAP1 PUSH1 0x8 SWAP2 DUP3 DUP3 DIV ADD SWAP2 SWAP1 MOD PUSH1 0x4 MUL SWAP1 SLOAD SWAP1 PUSH2 0x100 EXP SWAP1 DIV PUSH4 0xFFFFFFFF AND DUP4 PUSH2 0xC2C SWAP2 SWAP1 PUSH2 0x25B8 JUMP JUMPDEST SWAP3 POP DUP1 PUSH2 0xC38 DUP2 PUSH2 0x256E JUMP JUMPDEST SWAP2 POP POP PUSH2 0xBE1 JUMP JUMPDEST PUSH1 0x40 DUP1 MLOAD PUSH1 0x1 DUP1 DUP3 MSTORE DUP2 DUP4 ADD SWAP1 SWAP3 MSTORE PUSH1 0x60 SWAP2 PUSH1 0x0 SWAP2 SWAP1 PUSH1 0x20 DUP1 DUP4 ADD SWAP1 DUP1 CALLDATASIZE DUP4 CALLDATACOPY ADD SWAP1 POP POP SWAP1 POP DUP3 DUP2 PUSH1 0x0 DUP2 MLOAD DUP2 LT PUSH2 0xC7A JUMPI PUSH2 0xC7A PUSH2 0x2515 JUMP JUMPDEST PUSH1 0x20 MUL PUSH1 0x20 ADD ADD DUP2 DUP2 MSTORE POP POP PUSH2 0xC90 DUP2 DUP6 PUSH2 0x7ED JUMP JUMPDEST SWAP5 SWAP4 POP POP POP POP JUMP JUMPDEST DUP2 SLOAD PUSH1 0x0 SWAP1 DUP2 JUMPDEST DUP2 DUP2 LT ISZERO PUSH2 0x7E0 JUMPI DUP4 PUSH1 0x1 PUSH1 0x1 PUSH1 0xE0 SHL SUB NOT AND DUP6 DUP3 DUP2 SLOAD DUP2 LT PUSH2 0xCC4 JUMPI PUSH2 0xCC4 PUSH2 0x2515 JUMP JUMPDEST SWAP1 PUSH1 0x0 MSTORE PUSH1 0x20 PUSH1 0x0 KECCAK256 SWAP1 PUSH1 0x8 SWAP2 DUP3 DUP3 DIV ADD SWAP2 SWAP1 MOD PUSH1 0x4 MUL SWAP1 SLOAD SWAP1 PUSH2 0x100 EXP SWAP1 DIV PUSH1 0xE0 SHL PUSH1 0x1 PUSH1 0x1 PUSH1 0xE0 SHL SUB NOT AND EQ ISZERO PUSH2 0xD9A JUMPI PUSH2 0xD02 PUSH1 0x1 DUP4 PUSH2 0x2541 JUMP JUMPDEST DUP2 LT ISZERO PUSH2 0x784 JUMPI DUP5 PUSH2 0xD15 PUSH1 0x1 DUP5 PUSH2 0x2541 JUMP JUMPDEST DUP2 SLOAD DUP2 LT PUSH2 0xD25 JUMPI PUSH2 0xD25 PUSH2 0x2515 JUMP JUMPDEST SWAP1 PUSH1 0x0 MSTORE PUSH1 0x20 PUSH1 0x0 KECCAK256 SWAP1 PUSH1 0x8 SWAP2 DUP3 DUP3 DIV ADD SWAP2 SWAP1 MOD PUSH1 0x4 MUL SWAP1 SLOAD SWAP1 PUSH2 0x100 EXP SWAP1 DIV PUSH1 0xE0 SHL DUP6 DUP3 DUP2 SLOAD DUP2 LT PUSH2 0xD5A JUMPI PUSH2 0xD5A PUSH2 0x2515 JUMP JUMPDEST SWAP1 PUSH1 0x0 MSTORE PUSH1 0x20 PUSH1 0x0 KECCAK256 SWAP1 PUSH1 0x8 SWAP2 DUP3 DUP3 DIV ADD SWAP2 SWAP1 MOD PUSH1 0x4 MUL PUSH2 0x100 EXP DUP2 SLOAD DUP2 PUSH4 0xFFFFFFFF MUL NOT AND SWAP1 DUP4 PUSH1 0xE0 SHR MUL OR SWAP1 SSTORE POP DUP5 DUP1 SLOAD DUP1 PUSH2 0x794 JUMPI PUSH2 0x794 PUSH2 0x2558 JUMP JUMPDEST DUP1 PUSH2 0xDA4 DUP2 PUSH2 0x256E JUMP JUMPDEST SWAP2 POP POP PUSH2 0xC9F JUMP JUMPDEST DUP2 MLOAD PUSH1 0x0 SWAP1 DUP2 JUMPDEST DUP2 DUP2 LT ISZERO PUSH2 0x7E0 JUMPI DUP4 DUP6 DUP3 DUP2 MLOAD DUP2 LT PUSH2 0xDCE JUMPI PUSH2 0xDCE PUSH2 0x2515 JUMP JUMPDEST PUSH1 0x20 MUL PUSH1 0x20 ADD ADD MLOAD EQ ISZERO PUSH2 0xDE7 JUMPI PUSH1 0x1 SWAP3 POP POP POP PUSH2 0x7E7 JUMP JUMPDEST DUP1 PUSH2 0xDF1 DUP2 PUSH2 0x256E JUMP JUMPDEST SWAP2 POP POP PUSH2 0xDB3 JUMP JUMPDEST DUP2 MLOAD PUSH1 0x0 SWAP1 DUP2 JUMPDEST DUP2 DUP2 LT ISZERO PUSH2 0x7E0 JUMPI DUP4 PUSH1 0x1 PUSH1 0x1 PUSH1 0xE0 SHL SUB NOT AND DUP6 DUP3 DUP2 MLOAD DUP2 LT PUSH2 0xE25 JUMPI PUSH2 0xE25 PUSH2 0x2515 JUMP JUMPDEST PUSH1 0x20 MUL PUSH1 0x20 ADD ADD MLOAD PUSH1 0x1 PUSH1 0x1 PUSH1 0xE0 SHL SUB NOT AND EQ ISZERO PUSH2 0xE48 JUMPI PUSH1 0x1 SWAP3 POP POP POP PUSH2 0x7E7 JUMP JUMPDEST DUP1 PUSH2 0xE52 DUP2 PUSH2 0x256E JUMP JUMPDEST SWAP2 POP POP PUSH2 0xE00 JUMP JUMPDEST PUSH1 0x0 DUP3 DUP2 JUMPDEST DUP2 DUP2 LT ISZERO PUSH2 0xEC4 JUMPI DUP4 PUSH1 0x1 PUSH1 0x1 PUSH1 0xA0 SHL SUB AND DUP7 DUP7 DUP4 DUP2 DUP2 LT PUSH2 0xE83 JUMPI PUSH2 0xE83 PUSH2 0x2515 JUMP JUMPDEST SWAP1 POP PUSH1 0x20 MUL ADD PUSH1 0x20 DUP2 ADD SWAP1 PUSH2 0xE98 SWAP2 SWAP1 PUSH2 0x25E0 JUMP JUMPDEST PUSH1 0x1 PUSH1 0x1 PUSH1 0xA0 SHL SUB AND EQ ISZERO PUSH2 0xEB2 JUMPI PUSH1 0x1 SWAP3 POP POP POP PUSH2 0xECB JUMP JUMPDEST DUP1 PUSH2 0xEBC DUP2 PUSH2 0x256E JUMP JUMPDEST SWAP2 POP POP PUSH2 0xE5F JUMP JUMPDEST POP PUSH1 0x0 SWAP2 POP POP JUMPDEST SWAP4 SWAP3 POP POP POP JUMP JUMPDEST DUP2 MLOAD PUSH1 0x60 SWAP1 PUSH2 0xEE2 DUP2 PUSH1 0x1 PUSH2 0x2589 JUMP JUMPDEST PUSH1 0x1 PUSH1 0x1 PUSH1 0x40 SHL SUB DUP2 GT ISZERO PUSH2 0xEF9 JUMPI PUSH2 0xEF9 PUSH2 0x1C3F JUMP JUMPDEST PUSH1 0x40 MLOAD SWAP1 DUP1 DUP3 MSTORE DUP1 PUSH1 0x20 MUL PUSH1 0x20 ADD DUP3 ADD PUSH1 0x40 MSTORE DUP1 ISZERO PUSH2 0xF2C JUMPI DUP2 PUSH1 0x20 ADD JUMPDEST PUSH1 0x60 DUP2 MSTORE PUSH1 0x20 ADD SWAP1 PUSH1 0x1 SWAP1 SUB SWAP1 DUP2 PUSH2 0xF17 JUMPI SWAP1 POP JUMPDEST POP SWAP2 POP PUSH1 0x0 JUMPDEST DUP2 DUP2 LT ISZERO PUSH2 0xF84 JUMPI DUP5 DUP2 DUP2 MLOAD DUP2 LT PUSH2 0xF4C JUMPI PUSH2 0xF4C PUSH2 0x2515 JUMP JUMPDEST PUSH1 0x20 MUL PUSH1 0x20 ADD ADD MLOAD DUP4 DUP3 DUP2 MLOAD DUP2 LT PUSH2 0xF66 JUMPI PUSH2 0xF66 PUSH2 0x2515 JUMP JUMPDEST PUSH1 0x20 MUL PUSH1 0x20 ADD ADD DUP2 SWAP1 MSTORE POP DUP1 DUP1 PUSH2 0xF7C SWAP1 PUSH2 0x256E JUMP JUMPDEST SWAP2 POP POP PUSH2 0xF32 JUMP JUMPDEST POP DUP3 DUP3 DUP3 DUP2 MLOAD DUP2 LT PUSH2 0xF98 JUMPI PUSH2 0xF98 PUSH2 0x2515 JUMP JUMPDEST PUSH1 0x20 MUL PUSH1 0x20 ADD ADD DUP2 SWAP1 MSTORE POP POP SWAP3 SWAP2 POP POP JUMP JUMPDEST PUSH1 0x0 DUP3 DUP2 JUMPDEST DUP2 DUP2 LT ISZERO PUSH2 0xEC4 JUMPI DUP4 DUP7 DUP7 DUP4 DUP2 DUP2 LT PUSH2 0xFCA JUMPI PUSH2 0xFCA PUSH2 0x2515 JUMP JUMPDEST SWAP1 POP PUSH1 0x20 MUL ADD CALLDATALOAD EQ ISZERO PUSH2 0xFE2 JUMPI PUSH1 0x1 SWAP3 POP POP POP PUSH2 0xECB JUMP JUMPDEST DUP1 PUSH2 0xFEC DUP2 PUSH2 0x256E JUMP JUMPDEST SWAP2 POP POP PUSH2 0xFAF JUMP JUMPDEST DUP2 SLOAD PUSH1 0x0 SWAP1 DUP2 JUMPDEST DUP2 DUP2 LT ISZERO PUSH2 0x7E0 JUMPI DUP4 PUSH1 0x1 PUSH1 0x1 PUSH1 0xE0 SHL SUB NOT AND DUP6 DUP3 DUP2 SLOAD DUP2 LT PUSH2 0x1020 JUMPI PUSH2 0x1020 PUSH2 0x2515 JUMP JUMPDEST SWAP1 PUSH1 0x0 MSTORE PUSH1 0x20 PUSH1 0x0 KECCAK256 SWAP1 PUSH1 0x8 SWAP2 DUP3 DUP3 DIV ADD SWAP2 SWAP1 MOD PUSH1 0x4 MUL SWAP1 SLOAD SWAP1 PUSH2 0x100 EXP SWAP1 DIV PUSH1 0xE0 SHL PUSH1 0x1 PUSH1 0x1 PUSH1 0xE0 SHL SUB NOT AND EQ ISZERO PUSH2 0x105E JUMPI PUSH1 0x1 SWAP3 POP POP POP PUSH2 0x7E7 JUMP JUMPDEST DUP1 PUSH2 0x1068 DUP2 PUSH2 0x256E JUMP JUMPDEST SWAP2 POP POP PUSH2 0xFFB JUMP JUMPDEST DUP2 SLOAD PUSH1 0x0 SWAP1 DUP2 JUMPDEST DUP2 DUP2 LT ISZERO PUSH2 0x7E0 JUMPI DUP4 DUP6 DUP3 DUP2 SLOAD DUP2 LT PUSH2 0x1092 JUMPI PUSH2 0x1092 PUSH2 0x2515 JUMP JUMPDEST SWAP1 PUSH1 0x0 MSTORE PUSH1 0x20 PUSH1 0x0 KECCAK256 ADD SLOAD EQ ISZERO PUSH2 0x10AE JUMPI PUSH1 0x1 SWAP3 POP POP POP PUSH2 0x7E7 JUMP JUMPDEST DUP1 PUSH2 0x10B8 DUP2 PUSH2 0x256E JUMP JUMPDEST SWAP2 POP POP PUSH2 0x1077 JUMP JUMPDEST DUP2 SLOAD PUSH1 0x0 SWAP1 DUP2 JUMPDEST DUP2 DUP2 LT ISZERO PUSH2 0xAA9 JUMPI DUP4 DUP6 DUP3 DUP2 SLOAD DUP2 LT PUSH2 0x10E2 JUMPI PUSH2 0x10E2 PUSH2 0x2515 JUMP JUMPDEST SWAP1 PUSH1 0x0 MSTORE PUSH1 0x20 PUSH1 0x0 KECCAK256 ADD SLOAD EQ ISZERO PUSH2 0x10FE JUMPI PUSH1 0x0 SWAP3 POP POP POP PUSH2 0x7E7 JUMP JUMPDEST DUP1 PUSH2 0x1108 DUP2 PUSH2 0x256E JUMP JUMPDEST SWAP2 POP POP PUSH2 0x10C7 JUMP JUMPDEST DUP1 SLOAD JUMPDEST PUSH1 0x0 DUP2 PUSH2 0x111F DUP2 PUSH2 0x25A1 JUMP JUMPDEST SWAP3 POP GT ISZERO PUSH2 0xBD6 JUMPI DUP2 DUP1 SLOAD DUP1 PUSH2 0x1137 JUMPI PUSH2 0x1137 PUSH2 0x2558 JUMP JUMPDEST PUSH1 0x0 DUP3 DUP2 MSTORE PUSH1 0x20 SWAP1 KECCAK256 PUSH1 0x8 PUSH1 0x0 NOT SWAP1 SWAP3 ADD SWAP2 DUP3 DIV ADD DUP1 SLOAD PUSH4 0xFFFFFFFF PUSH1 0x4 PUSH1 0x7 DUP6 AND MUL PUSH2 0x100 EXP MUL NOT AND SWAP1 SSTORE SWAP1 SSTORE PUSH2 0x1113 JUMP JUMPDEST DUP2 SLOAD PUSH1 0x0 SWAP1 DUP2 JUMPDEST DUP2 DUP2 LT ISZERO PUSH2 0x11CD JUMPI DUP4 PUSH1 0x1 PUSH1 0x1 PUSH1 0xA0 SHL SUB AND DUP6 DUP3 DUP2 SLOAD DUP2 LT PUSH2 0x1195 JUMPI PUSH2 0x1195 PUSH2 0x2515 JUMP JUMPDEST PUSH1 0x0 SWAP2 DUP3 MSTORE PUSH1 0x20 SWAP1 SWAP2 KECCAK256 ADD SLOAD PUSH1 0x1 PUSH1 0x1 PUSH1 0xA0 SHL SUB AND EQ ISZERO PUSH2 0x11BB JUMPI PUSH1 0x0 SWAP3 POP POP POP PUSH2 0x7E7 JUMP JUMPDEST DUP1 PUSH2 0x11C5 DUP2 PUSH2 0x256E JUMP JUMPDEST SWAP2 POP POP PUSH2 0x1171 JUMP JUMPDEST POP POP DUP3 SLOAD PUSH1 0x1 DUP1 DUP3 ADD DUP6 SSTORE PUSH1 0x0 SWAP5 DUP6 MSTORE PUSH1 0x20 SWAP1 SWAP5 KECCAK256 ADD DUP1 SLOAD PUSH1 0x1 PUSH1 0x1 PUSH1 0xA0 SHL SUB NOT AND PUSH1 0x1 PUSH1 0x1 PUSH1 0xA0 SHL SUB SWAP4 SWAP1 SWAP4 AND SWAP3 SWAP1 SWAP3 OR SWAP1 SWAP2 SSTORE POP SWAP1 JUMP JUMPDEST DUP2 MLOAD PUSH1 0x0 SWAP1 DUP2 JUMPDEST DUP2 DUP2 LT ISZERO PUSH2 0x7E0 JUMPI DUP4 PUSH1 0x1 PUSH1 0x1 PUSH1 0x40 SHL SUB AND DUP6 DUP3 DUP2 MLOAD DUP2 LT PUSH2 0x1231 JUMPI PUSH2 0x1231 PUSH2 0x2515 JUMP JUMPDEST PUSH1 0x20 MUL PUSH1 0x20 ADD ADD MLOAD PUSH1 0x1 PUSH1 0x1 PUSH1 0x40 SHL SUB AND EQ ISZERO PUSH2 0x1253 JUMPI PUSH1 0x1 SWAP3 POP POP POP PUSH2 0x7E7 JUMP JUMPDEST DUP1 PUSH2 0x125D DUP2 PUSH2 0x256E JUMP JUMPDEST SWAP2 POP POP PUSH2 0x120D JUMP JUMPDEST DUP2 SLOAD PUSH1 0x0 SWAP1 DUP2 JUMPDEST DUP2 DUP2 LT ISZERO PUSH2 0x7E0 JUMPI DUP4 DUP6 DUP3 DUP2 SLOAD DUP2 LT PUSH2 0x1287 JUMPI PUSH2 0x1287 PUSH2 0x2515 JUMP JUMPDEST SWAP1 PUSH1 0x0 MSTORE PUSH1 0x20 PUSH1 0x0 KECCAK256 ADD SLOAD EQ ISZERO PUSH2 0x1321 JUMPI PUSH2 0x12A3 PUSH1 0x1 DUP4 PUSH2 0x2541 JUMP JUMPDEST DUP2 LT ISZERO PUSH2 0x12F0 JUMPI DUP5 PUSH2 0x12B6 PUSH1 0x1 DUP5 PUSH2 0x2541 JUMP JUMPDEST DUP2 SLOAD DUP2 LT PUSH2 0x12C6 JUMPI PUSH2 0x12C6 PUSH2 0x2515 JUMP JUMPDEST SWAP1 PUSH1 0x0 MSTORE PUSH1 0x20 PUSH1 0x0 KECCAK256 ADD SLOAD DUP6 DUP3 DUP2 SLOAD DUP2 LT PUSH2 0x12E3 JUMPI PUSH2 0x12E3 PUSH2 0x2515 JUMP JUMPDEST PUSH1 0x0 SWAP2 DUP3 MSTORE PUSH1 0x20 SWAP1 SWAP2 KECCAK256 ADD SSTORE JUMPDEST DUP5 DUP1 SLOAD DUP1 PUSH2 0x1300 JUMPI PUSH2 0x1300 PUSH2 0x2558 JUMP JUMPDEST PUSH1 0x1 SWAP1 SUB DUP2 DUP2 SWAP1 PUSH1 0x0 MSTORE PUSH1 0x20 PUSH1 0x0 KECCAK256 ADD PUSH1 0x0 SWAP1 SSTORE SWAP1 SSTORE PUSH1 0x1 SWAP3 POP POP POP PUSH2 0x7E7 JUMP JUMPDEST DUP1 PUSH2 0x132B DUP2 PUSH2 0x256E JUMP JUMPDEST SWAP2 POP POP PUSH2 0x126C JUMP JUMPDEST DUP2 SLOAD PUSH1 0x0 SWAP1 DUP2 JUMPDEST DUP2 DUP2 LT ISZERO PUSH2 0x7E0 JUMPI DUP4 DUP6 DUP3 DUP2 SLOAD DUP2 LT PUSH2 0x1355 JUMPI PUSH2 0x1355 PUSH2 0x2515 JUMP JUMPDEST SWAP1 PUSH1 0x0 MSTORE PUSH1 0x20 PUSH1 0x0 KECCAK256 ADD SLOAD EQ ISZERO PUSH2 0x1371 JUMPI PUSH2 0x12A3 PUSH1 0x1 DUP4 PUSH2 0x2541 JUMP JUMPDEST DUP1 PUSH2 0x137B DUP2 PUSH2 0x256E JUMP JUMPDEST SWAP2 POP POP PUSH2 0x133A JUMP JUMPDEST PUSH1 0x60 PUSH1 0x0 DUP3 MLOAD PUSH1 0x20 PUSH2 0x1395 SWAP2 SWAP1 PUSH2 0x25FB JUMP JUMPDEST SWAP1 POP DUP1 PUSH1 0x1 PUSH1 0x1 PUSH1 0x40 SHL SUB DUP2 GT ISZERO PUSH2 0x13AF JUMPI PUSH2 0x13AF PUSH2 0x1C3F JUMP JUMPDEST PUSH1 0x40 MLOAD SWAP1 DUP1 DUP3 MSTORE DUP1 PUSH1 0x1F ADD PUSH1 0x1F NOT AND PUSH1 0x20 ADD DUP3 ADD PUSH1 0x40 MSTORE DUP1 ISZERO PUSH2 0x13D9 JUMPI PUSH1 0x20 DUP3 ADD DUP2 DUP1 CALLDATASIZE DUP4 CALLDATACOPY ADD SWAP1 POP JUMPDEST POP SWAP2 POP PUSH1 0x20 JUMPDEST DUP2 DUP2 GT PUSH2 0xB81 JUMPI DUP4 DUP2 ADD DUP4 DUP3 ADD MSTORE PUSH2 0x13F8 PUSH1 0x20 DUP3 PUSH2 0x2589 JUMP JUMPDEST SWAP1 POP PUSH2 0x13DF JUMP JUMPDEST DUP2 SLOAD PUSH1 0x0 SWAP1 DUP2 JUMPDEST DUP2 DUP2 LT ISZERO PUSH2 0x7E0 JUMPI DUP4 PUSH1 0x1 PUSH1 0x1 PUSH1 0x40 SHL SUB AND DUP6 DUP3 DUP2 SLOAD DUP2 LT PUSH2 0x142A JUMPI PUSH2 0x142A PUSH2 0x2515 JUMP JUMPDEST PUSH1 0x0 SWAP2 DUP3 MSTORE PUSH1 0x20 SWAP1 SWAP2 KECCAK256 PUSH1 0x4 DUP3 DIV ADD SLOAD PUSH1 0x3 SWAP1 SWAP2 AND PUSH1 0x8 MUL PUSH2 0x100 EXP SWAP1 DIV PUSH1 0x1 PUSH1 0x1 PUSH1 0x40 SHL SUB AND EQ ISZERO PUSH2 0x1462 JUMPI PUSH1 0x1 SWAP3 POP POP POP PUSH2 0x7E7 JUMP JUMPDEST DUP1 PUSH2 0x146C DUP2 PUSH2 0x256E JUMP JUMPDEST SWAP2 POP POP PUSH2 0x1406 JUMP JUMPDEST DUP2 MLOAD PUSH1 0x0 SWAP1 DUP2 JUMPDEST DUP2 DUP2 LT ISZERO PUSH2 0x7E0 JUMPI DUP4 PUSH4 0xFFFFFFFF AND DUP6 DUP3 DUP2 MLOAD DUP2 LT PUSH2 0x149C JUMPI PUSH2 0x149C PUSH2 0x2515 JUMP JUMPDEST PUSH1 0x20 MUL PUSH1 0x20 ADD ADD MLOAD PUSH4 0xFFFFFFFF AND EQ ISZERO PUSH2 0x14BB JUMPI PUSH1 0x1 SWAP3 POP POP POP PUSH2 0x7E7 JUMP JUMPDEST DUP1 PUSH2 0x14C5 DUP2 PUSH2 0x256E JUMP JUMPDEST SWAP2 POP POP PUSH2 0x147B JUMP JUMPDEST DUP1 SLOAD JUMPDEST PUSH1 0x0 DUP2 PUSH2 0x14DC DUP2 PUSH2 0x25A1 JUMP JUMPDEST SWAP3 POP GT ISZERO PUSH2 0xBD6 JUMPI DUP2 DUP1 SLOAD DUP1 PUSH2 0x14F4 JUMPI PUSH2 0x14F4 PUSH2 0x2558 JUMP JUMPDEST PUSH1 0x0 DUP3 DUP2 MSTORE PUSH1 0x20 SWAP1 KECCAK256 PUSH1 0x4 PUSH1 0x0 NOT SWAP1 SWAP3 ADD SWAP2 DUP3 DIV ADD DUP1 SLOAD PUSH1 0x1 PUSH1 0x1 PUSH1 0x40 SHL SUB PUSH1 0x8 PUSH1 0x3 DUP6 AND MUL PUSH2 0x100 EXP MUL NOT AND SWAP1 SSTORE SWAP1 SSTORE PUSH2 0x14D0 JUMP JUMPDEST DUP2 MLOAD PUSH1 0x0 SWAP1 DUP2 JUMPDEST DUP2 DUP2 LT ISZERO PUSH2 0x7E0 JUMPI DUP4 DUP6 DUP3 DUP2 MLOAD DUP2 LT PUSH2 0x154C JUMPI PUSH2 0x154C PUSH2 0x2515 JUMP JUMPDEST PUSH1 0x20 MUL PUSH1 0x20 ADD ADD MLOAD EQ ISZERO PUSH2 0x1565 JUMPI PUSH1 0x1 SWAP3 POP POP POP PUSH2 0x7E7 JUMP JUMPDEST DUP1 PUSH2 0x156F DUP2 PUSH2 0x256E JUMP JUMPDEST SWAP2 POP POP PUSH2 0x1531 JUMP JUMPDEST DUP2 SLOAD PUSH1 0x0 SWAP1 DUP2 JUMPDEST DUP2 DUP2 LT ISZERO PUSH2 0x15F3 JUMPI DUP4 PUSH1 0x1 PUSH1 0x1 PUSH1 0xE0 SHL SUB NOT AND DUP6 DUP3 DUP2 SLOAD DUP2 LT PUSH2 0x15A3 JUMPI PUSH2 0x15A3 PUSH2 0x2515 JUMP JUMPDEST SWAP1 PUSH1 0x0 MSTORE PUSH1 0x20 PUSH1 0x0 KECCAK256 SWAP1 PUSH1 0x8 SWAP2 DUP3 DUP3 DIV ADD SWAP2 SWAP1 MOD PUSH1 0x4 MUL SWAP1 SLOAD SWAP1 PUSH2 0x100 EXP SWAP1 DIV PUSH1 0xE0 SHL PUSH1 0x1 PUSH1 0x1 PUSH1 0xE0 SHL SUB NOT AND EQ ISZERO PUSH2 0x15E1 JUMPI PUSH1 0x0 SWAP3 POP POP POP PUSH2 0x7E7 JUMP JUMPDEST DUP1 PUSH2 0x15EB DUP2 PUSH2 0x256E JUMP JUMPDEST SWAP2 POP POP PUSH2 0x157E JUMP JUMPDEST POP POP DUP3 SLOAD PUSH1 0x1 DUP1 DUP3 ADD DUP6 SSTORE PUSH1 0x0 SWAP5 DUP6 MSTORE PUSH1 0x20 SWAP1 SWAP5 KECCAK256 PUSH1 0x8 DUP3 DIV ADD DUP1 SLOAD PUSH4 0xFFFFFFFF PUSH1 0x7 SWAP1 SWAP4 AND PUSH1 0x4 MUL PUSH2 0x100 EXP SWAP3 DUP4 MUL NOT AND PUSH1 0xE0 SWAP5 SWAP1 SWAP5 SHR SWAP2 SWAP1 SWAP2 MUL SWAP3 SWAP1 SWAP3 OR SWAP1 SWAP2 SSTORE POP SWAP1 JUMP JUMPDEST PUSH1 0x40 DUP1 MLOAD PUSH1 0x1 DUP1 DUP3 MSTORE DUP2 DUP4 ADD SWAP1 SWAP3 MSTORE PUSH1 0x60 SWAP2 PUSH1 0x0 SWAP2 SWAP1 PUSH1 0x20 DUP1 DUP4 ADD SWAP1 DUP1 CALLDATASIZE DUP4 CALLDATACOPY ADD SWAP1 POP POP SWAP1 POP DUP3 DUP2 PUSH1 0x0 DUP2 MLOAD DUP2 LT PUSH2 0x1674 JUMPI PUSH2 0x1674 PUSH2 0x2515 JUMP JUMPDEST PUSH1 0x20 MUL PUSH1 0x20 ADD ADD DUP2 DUP2 MSTORE POP POP PUSH2 0xC90 DUP5 DUP3 PUSH2 0x7ED JUMP JUMPDEST DUP2 MLOAD PUSH1 0x0 SWAP1 DUP2 JUMPDEST DUP2 DUP2 LT ISZERO PUSH2 0x7E0 JUMPI DUP4 DUP6 DUP3 DUP2 MLOAD DUP2 LT PUSH2 0x16AC JUMPI PUSH2 0x16AC PUSH2 0x2515 JUMP JUMPDEST PUSH1 0x20 MUL PUSH1 0x20 ADD ADD MLOAD EQ ISZERO PUSH2 0x16C5 JUMPI PUSH1 0x1 SWAP3 POP POP POP PUSH2 0x7E7 JUMP JUMPDEST DUP1 PUSH2 0x16CF DUP2 PUSH2 0x256E JUMP JUMPDEST SWAP2 POP POP PUSH2 0x1691 JUMP JUMPDEST DUP2 SLOAD PUSH1 0x0 SWAP1 DUP2 JUMPDEST DUP2 DUP2 LT ISZERO PUSH2 0x7E0 JUMPI DUP4 DUP6 DUP3 DUP2 SLOAD DUP2 LT PUSH2 0x16F9 JUMPI PUSH2 0x16F9 PUSH2 0x2515 JUMP JUMPDEST SWAP1 PUSH1 0x0 MSTORE PUSH1 0x20 PUSH1 0x0 KECCAK256 ADD SLOAD EQ ISZERO PUSH2 0x1715 JUMPI PUSH1 0x1 SWAP3 POP POP POP PUSH2 0x7E7 JUMP JUMPDEST DUP1 PUSH2 0x171F DUP2 PUSH2 0x256E JUMP JUMPDEST SWAP2 POP POP PUSH2 0x16DE JUMP JUMPDEST DUP2 MLOAD PUSH1 0x60 SWAP1 PUSH2 0x1737 DUP2 PUSH1 0x1 PUSH2 0x2589 JUMP JUMPDEST PUSH1 0x1 PUSH1 0x1 PUSH1 0x40 SHL SUB DUP2 GT ISZERO PUSH2 0x174E JUMPI PUSH2 0x174E PUSH2 0x1C3F JUMP JUMPDEST PUSH1 0x40 MLOAD SWAP1 DUP1 DUP3 MSTORE DUP1 PUSH1 0x20 MUL PUSH1 0x20 ADD DUP3 ADD PUSH1 0x40 MSTORE DUP1 ISZERO PUSH2 0x1777 JUMPI DUP2 PUSH1 0x20 ADD PUSH1 0x20 DUP3 MUL DUP1 CALLDATASIZE DUP4 CALLDATACOPY ADD SWAP1 POP JUMPDEST POP SWAP2 POP PUSH1 0x0 JUMPDEST DUP2 DUP2 LT ISZERO PUSH2 0x17CE JUMPI DUP5 DUP2 DUP2 MLOAD DUP2 LT PUSH2 0x1797 JUMPI PUSH2 0x1797 PUSH2 0x2515 JUMP JUMPDEST PUSH1 0x20 MUL PUSH1 0x20 ADD ADD MLOAD DUP4 DUP3 DUP2 MLOAD DUP2 LT PUSH2 0x17B1 JUMPI PUSH2 0x17B1 PUSH2 0x2515 JUMP JUMPDEST PUSH1 0x20 SWAP1 DUP2 MUL SWAP2 SWAP1 SWAP2 ADD ADD MSTORE DUP1 PUSH2 0x17C6 DUP2 PUSH2 0x256E JUMP JUMPDEST SWAP2 POP POP PUSH2 0x177D JUMP JUMPDEST POP DUP3 DUP3 DUP3 DUP2 MLOAD DUP2 LT PUSH2 0x17E2 JUMPI PUSH2 0x17E2 PUSH2 0x2515 JUMP JUMPDEST PUSH1 0x20 MUL PUSH1 0x20 ADD ADD DUP2 DUP2 MSTORE POP POP POP SWAP3 SWAP2 POP POP JUMP JUMPDEST DUP1 SLOAD JUMPDEST PUSH1 0x0 DUP2 PUSH2 0x1804 DUP2 PUSH2 0x25A1 JUMP JUMPDEST SWAP3 POP GT ISZERO PUSH2 0xBD6 JUMPI DUP2 DUP1 SLOAD DUP1 PUSH2 0x181C JUMPI PUSH2 0x181C PUSH2 0x2558 JUMP JUMPDEST PUSH1 0x1 SWAP1 SUB DUP2 DUP2 SWAP1 PUSH1 0x0 MSTORE PUSH1 0x20 PUSH1 0x0 KECCAK256 ADD PUSH1 0x0 SWAP1 SSTORE SWAP1 SSTORE PUSH2 0x17F8 JUMP JUMPDEST DUP2 MLOAD PUSH1 0x0 SWAP1 DUP2 JUMPDEST DUP2 DUP2 LT ISZERO PUSH2 0x7E0 JUMPI DUP4 PUSH1 0x1 PUSH1 0x1 PUSH1 0xA0 SHL SUB AND DUP6 DUP3 DUP2 MLOAD DUP2 LT PUSH2 0x1862 JUMPI PUSH2 0x1862 PUSH2 0x2515 JUMP JUMPDEST PUSH1 0x20 MUL PUSH1 0x20 ADD ADD MLOAD PUSH1 0x1 PUSH1 0x1 PUSH1 0xA0 SHL SUB AND EQ ISZERO PUSH2 0x1884 JUMPI PUSH1 0x1 SWAP3 POP POP POP PUSH2 0x7E7 JUMP JUMPDEST DUP1 PUSH2 0x188E DUP2 PUSH2 0x256E JUMP JUMPDEST SWAP2 POP POP PUSH2 0x183E JUMP JUMPDEST DUP2 SLOAD PUSH1 0x0 SWAP1 DUP2 JUMPDEST DUP2 DUP2 LT ISZERO PUSH2 0x1905 JUMPI DUP4 PUSH4 0xFFFFFFFF AND DUP6 DUP3 DUP2 SLOAD DUP2 LT PUSH2 0x18BE JUMPI PUSH2 0x18BE PUSH2 0x2515 JUMP JUMPDEST PUSH1 0x0 SWAP2 DUP3 MSTORE PUSH1 0x20 SWAP1 SWAP2 KECCAK256 PUSH1 0x8 DUP3 DIV ADD SLOAD PUSH1 0x7 SWAP1 SWAP2 AND PUSH1 0x4 MUL PUSH2 0x100 EXP SWAP1 DIV PUSH4 0xFFFFFFFF AND EQ ISZERO PUSH2 0x18F3 JUMPI PUSH1 0x0 SWAP3 POP POP POP PUSH2 0x7E7 JUMP JUMPDEST DUP1 PUSH2 0x18FD DUP2 PUSH2 0x256E JUMP JUMPDEST SWAP2 POP POP PUSH2 0x189D JUMP JUMPDEST POP POP DUP3 SLOAD PUSH1 0x1 DUP1 DUP3 ADD DUP6 SSTORE PUSH1 0x0 SWAP5 DUP6 MSTORE PUSH1 0x20 SWAP1 SWAP5 KECCAK256 PUSH1 0x8 DUP3 DIV ADD DUP1 SLOAD PUSH1 0x7 SWAP1 SWAP3 AND PUSH1 0x4 MUL PUSH2 0x100 EXP PUSH4 0xFFFFFFFF DUP2 DUP2 MUL NOT SWAP1 SWAP4 AND SWAP5 SWAP1 SWAP3 AND SWAP2 SWAP1 SWAP2 MUL SWAP3 SWAP1 SWAP3 OR SWAP1 SWAP2 SSTORE POP SWAP1 JUMP JUMPDEST DUP1 SLOAD PUSH1 0x0 SWAP1 DUP2 JUMPDEST DUP2 DUP2 LT ISZERO PUSH2 0xB81 JUMPI DUP4 DUP2 DUP2 SLOAD DUP2 LT PUSH2 0x196D JUMPI PUSH2 0x196D PUSH2 0x2515 JUMP JUMPDEST SWAP1 PUSH1 0x0 MSTORE PUSH1 0x20 PUSH1 0x0 KECCAK256 SWAP1 PUSH1 0x4 SWAP2 DUP3 DUP3 DIV ADD SWAP2 SWAP1 MOD PUSH1 0x8 MUL SWAP1 SLOAD SWAP1 PUSH2 0x100 EXP SWAP1 DIV PUSH1 0x1 PUSH1 0x1 PUSH1 0x40 SHL SUB AND DUP4 PUSH2 0x19A1 SWAP2 SWAP1 PUSH2 0x261A JUMP JUMPDEST SWAP3 POP DUP1 PUSH2 0x19AD DUP2 PUSH2 0x256E JUMP JUMPDEST SWAP2 POP POP PUSH2 0x1953 JUMP JUMPDEST DUP2 SLOAD PUSH1 0x0 SWAP1 DUP2 JUMPDEST DUP2 DUP2 LT ISZERO PUSH2 0x7E0 JUMPI DUP4 PUSH1 0x1 PUSH1 0x1 PUSH1 0xA0 SHL SUB AND DUP6 DUP3 DUP2 SLOAD DUP2 LT PUSH2 0x19E0 JUMPI PUSH2 0x19E0 PUSH2 0x2515 JUMP JUMPDEST PUSH1 0x0 SWAP2 DUP3 MSTORE PUSH1 0x20 SWAP1 SWAP2 KECCAK256 ADD SLOAD PUSH1 0x1 PUSH1 0x1 PUSH1 0xA0 SHL SUB AND EQ ISZERO PUSH2 0x1AC6 JUMPI PUSH2 0x1A06 PUSH1 0x1 DUP4 PUSH2 0x2541 JUMP JUMPDEST DUP2 LT ISZERO PUSH2 0x1A88 JUMPI DUP5 PUSH2 0x1A19 PUSH1 0x1 DUP5 PUSH2 0x2541 JUMP JUMPDEST DUP2 SLOAD DUP2 LT PUSH2 0x1A29 JUMPI PUSH2 0x1A29 PUSH2 0x2515 JUMP JUMPDEST SWAP1 PUSH1 0x0 MSTORE PUSH1 0x20 PUSH1 0x0 KECCAK256 ADD PUSH1 0x0 SWAP1 SLOAD SWAP1 PUSH2 0x100 EXP SWAP1 DIV PUSH1 0x1 PUSH1 0x1 PUSH1 0xA0 SHL SUB AND DUP6 DUP3 DUP2 SLOAD DUP2 LT PUSH2 0x1A59 JUMPI PUSH2 0x1A59 PUSH2 0x2515 JUMP JUMPDEST SWAP1 PUSH1 0x0 MSTORE PUSH1 0x20 PUSH1 0x0 KECCAK256 ADD PUSH1 0x0 PUSH2 0x100 EXP DUP2 SLOAD DUP2 PUSH1 0x1 PUSH1 0x1 PUSH1 0xA0 SHL SUB MUL NOT AND SWAP1 DUP4 PUSH1 0x1 PUSH1 0x1 PUSH1 0xA0 SHL SUB AND MUL OR SWAP1 SSTORE POP JUMPDEST DUP5 DUP1 SLOAD DUP1 PUSH2 0x1A98 JUMPI PUSH2 0x1A98 PUSH2 0x2558 JUMP JUMPDEST PUSH1 0x0 DUP3 DUP2 MSTORE PUSH1 0x20 SWAP1 KECCAK256 DUP2 ADD PUSH1 0x0 NOT SWAP1 DUP2 ADD DUP1 SLOAD PUSH1 0x1 PUSH1 0x1 PUSH1 0xA0 SHL SUB NOT AND SWAP1 SSTORE ADD SWAP1 SSTORE POP PUSH1 0x1 SWAP2 POP PUSH2 0x7E7 SWAP1 POP JUMP JUMPDEST DUP1 PUSH2 0x1AD0 DUP2 PUSH2 0x256E JUMP JUMPDEST SWAP2 POP POP PUSH2 0x19BC JUMP JUMPDEST DUP2 SLOAD PUSH1 0x0 SWAP1 DUP2 JUMPDEST DUP2 DUP2 LT ISZERO PUSH2 0x7E0 JUMPI DUP4 PUSH1 0x1 PUSH1 0x1 PUSH1 0xA0 SHL SUB AND DUP6 DUP3 DUP2 SLOAD DUP2 LT PUSH2 0x1B03 JUMPI PUSH2 0x1B03 PUSH2 0x2515 JUMP JUMPDEST PUSH1 0x0 SWAP2 DUP3 MSTORE PUSH1 0x20 SWAP1 SWAP2 KECCAK256 ADD SLOAD PUSH1 0x1 PUSH1 0x1 PUSH1 0xA0 SHL SUB AND EQ ISZERO PUSH2 0x1B29 JUMPI PUSH1 0x1 SWAP3 POP POP POP PUSH2 0x7E7 JUMP JUMPDEST DUP1 PUSH2 0x1B33 DUP2 PUSH2 0x256E JUMP JUMPDEST SWAP2 POP POP PUSH2 0x1ADF JUMP JUMPDEST DUP2 SLOAD PUSH1 0x0 SWAP1 DUP2 JUMPDEST DUP2 DUP2 LT ISZERO PUSH2 0x1BB0 JUMPI DUP4 PUSH1 0x1 PUSH1 0x1 PUSH1 0x40 SHL SUB AND DUP6 DUP3 DUP2 SLOAD DUP2 LT PUSH2 0x1B66 JUMPI PUSH2 0x1B66 PUSH2 0x2515 JUMP JUMPDEST PUSH1 0x0 SWAP2 DUP3 MSTORE PUSH1 0x20 SWAP1 SWAP2 KECCAK256 PUSH1 0x4 DUP3 DIV ADD SLOAD PUSH1 0x3 SWAP1 SWAP2 AND PUSH1 0x8 MUL PUSH2 0x100 EXP SWAP1 DIV PUSH1 0x1 PUSH1 0x1 PUSH1 0x40 SHL SUB AND EQ ISZERO PUSH2 0x1B9E JUMPI PUSH1 0x0 SWAP3 POP POP POP PUSH2 0x7E7 JUMP JUMPDEST DUP1 PUSH2 0x1BA8 DUP2 PUSH2 0x256E JUMP JUMPDEST SWAP2 POP POP PUSH2 0x1B42 JUMP JUMPDEST POP POP DUP3 SLOAD PUSH1 0x1 DUP1 DUP3 ADD DUP6 SSTORE PUSH1 0x0 SWAP5 DUP6 MSTORE PUSH1 0x20 SWAP1 SWAP5 KECCAK256 PUSH1 0x4 DUP3 DIV ADD DUP1 SLOAD PUSH1 0x3 SWAP1 SWAP3 AND PUSH1 0x8 MUL PUSH2 0x100 EXP PUSH1 0x1 PUSH1 0x1 PUSH1 0x40 SHL SUB DUP2 DUP2 MUL NOT SWAP1 SWAP4 AND SWAP5 SWAP1 SWAP3 AND SWAP2 SWAP1 SWAP2 MUL SWAP3 SWAP1 SWAP3 OR SWAP1 SWAP2 SSTORE POP SWAP1 JUMP JUMPDEST DUP1 CALLDATALOAD PUSH4 0xFFFFFFFF DUP2 AND DUP2 EQ PUSH2 0x1C0E JUMPI PUSH1 0x0 DUP1 REVERT JUMPDEST SWAP2 SWAP1 POP JUMP JUMPDEST PUSH1 0x0 DUP1 PUSH1 0x40 DUP4 DUP6 SUB SLT ISZERO PUSH2 0x1C26 JUMPI PUSH1 0x0 DUP1 REVERT JUMPDEST DUP3 CALLDATALOAD SWAP2 POP PUSH2 0x1C36 PUSH1 0x20 DUP5 ADD PUSH2 0x1BFA JUMP JUMPDEST SWAP1 POP SWAP3 POP SWAP3 SWAP1 POP JUMP JUMPDEST PUSH4 0x4E487B71 PUSH1 0xE0 SHL PUSH1 0x0 MSTORE PUSH1 0x41 PUSH1 0x4 MSTORE PUSH1 0x24 PUSH1 0x0 REVERT JUMPDEST PUSH1 0x40 MLOAD PUSH1 0x1F DUP3 ADD PUSH1 0x1F NOT AND DUP2 ADD PUSH1 0x1 PUSH1 0x1 PUSH1 0x40 SHL SUB DUP2 GT DUP3 DUP3 LT OR ISZERO PUSH2 0x1C7D JUMPI PUSH2 0x1C7D PUSH2 0x1C3F JUMP JUMPDEST PUSH1 0x40 MSTORE SWAP2 SWAP1 POP JUMP JUMPDEST PUSH1 0x0 PUSH1 0x1 PUSH1 0x1 PUSH1 0x40 SHL SUB DUP3 GT ISZERO PUSH2 0x1C9E JUMPI PUSH2 0x1C9E PUSH2 0x1C3F JUMP JUMPDEST POP PUSH1 0x5 SHL PUSH1 0x20 ADD SWAP1 JUMP JUMPDEST PUSH1 0x0 DUP3 PUSH1 0x1F DUP4 ADD SLT PUSH2 0x1CB9 JUMPI PUSH1 0x0 DUP1 REVERT JUMPDEST DUP2 CALLDATALOAD PUSH1 0x20 PUSH2 0x1CCE PUSH2 0x1CC9 DUP4 PUSH2 0x1C85 JUMP JUMPDEST PUSH2 0x1C55 JUMP JUMPDEST DUP3 DUP2 MSTORE PUSH1 0x5 SWAP3 SWAP1 SWAP3 SHL DUP5 ADD DUP2 ADD SWAP2 DUP2 DUP2 ADD SWAP1 DUP7 DUP5 GT ISZERO PUSH2 0x1CED JUMPI PUSH1 0x0 DUP1 REVERT JUMPDEST DUP3 DUP7 ADD JUMPDEST DUP5 DUP2 LT ISZERO PUSH2 0x1D08 JUMPI DUP1 CALLDATALOAD DUP4 MSTORE SWAP2 DUP4 ADD SWAP2 DUP4 ADD PUSH2 0x1CF1 JUMP JUMPDEST POP SWAP7 SWAP6 POP POP POP POP POP POP JUMP JUMPDEST PUSH1 0x0 DUP1 PUSH1 0x40 DUP4 DUP6 SUB SLT ISZERO PUSH2 0x1D26 JUMPI PUSH1 0x0 DUP1 REVERT JUMPDEST DUP3 CALLDATALOAD PUSH1 0x1 PUSH1 0x1 PUSH1 0x40 SHL SUB DUP1 DUP3 GT ISZERO PUSH2 0x1D3D JUMPI PUSH1 0x0 DUP1 REVERT JUMPDEST PUSH2 0x1D49 DUP7 DUP4 DUP8 ADD PUSH2 0x1CA8 JUMP JUMPDEST SWAP4 POP PUSH1 0x20 DUP6 ADD CALLDATALOAD SWAP2 POP DUP1 DUP3 GT ISZERO PUSH2 0x1D5F JUMPI PUSH1 0x0 DUP1 REVERT JUMPDEST POP PUSH2 0x1D6C DUP6 DUP3 DUP7 ADD PUSH2 0x1CA8 JUMP JUMPDEST SWAP2 POP POP SWAP3 POP SWAP3 SWAP1 POP JUMP JUMPDEST PUSH1 0x20 DUP1 DUP3 MSTORE DUP3 MLOAD DUP3 DUP3 ADD DUP2 SWAP1 MSTORE PUSH1 0x0 SWAP2 SWAP1 DUP5 DUP3 ADD SWAP1 PUSH1 0x40 DUP6 ADD SWAP1 DUP5 JUMPDEST DUP2 DUP2 LT ISZERO PUSH2 0x1DAE JUMPI DUP4 MLOAD DUP4 MSTORE SWAP3 DUP5 ADD SWAP3 SWAP2 DUP5 ADD SWAP2 PUSH1 0x1 ADD PUSH2 0x1D92 JUMP JUMPDEST POP SWAP1 SWAP7 SWAP6 POP POP POP POP POP POP JUMP JUMPDEST DUP1 CALLDATALOAD PUSH1 0x1 PUSH1 0x1 PUSH1 0x40 SHL SUB DUP2 AND DUP2 EQ PUSH2 0x1C0E JUMPI PUSH1 0x0 DUP1 REVERT JUMPDEST PUSH1 0x0 DUP1 PUSH1 0x40 DUP4 DUP6 SUB SLT ISZERO PUSH2 0x1DE4 JUMPI PUSH1 0x0 DUP1 REVERT JUMPDEST DUP3 CALLDATALOAD SWAP2 POP PUSH2 0x1C36 PUSH1 0x20 DUP5 ADD PUSH2 0x1DBA JUMP JUMPDEST PUSH1 0x0 DUP1 PUSH1 0x40 DUP4 DUP6 SUB SLT ISZERO PUSH2 0x1E07 JUMPI PUSH1 0x0 DUP1 REVERT JUMPDEST POP POP DUP1 CALLDATALOAD SWAP3 PUSH1 0x20 SWAP1 SWAP2 ADD CALLDATALOAD SWAP2 POP JUMP JUMPDEST PUSH1 0x0 PUSH1 0x20 DUP3 DUP5 SUB SLT ISZERO PUSH2 0x1E28 JUMPI PUSH1 0x0 DUP1 REVERT JUMPDEST POP CALLDATALOAD SWAP2 SWAP1 POP JUMP JUMPDEST PUSH1 0x0 DUP1 PUSH1 0x40 DUP4 DUP6 SUB SLT ISZERO PUSH2 0x1E42 JUMPI PUSH1 0x0 DUP1 REVERT JUMPDEST DUP3 CALLDATALOAD PUSH1 0x1 PUSH1 0x1 PUSH1 0x40 SHL SUB DUP2 GT ISZERO PUSH2 0x1E58 JUMPI PUSH1 0x0 DUP1 REVERT JUMPDEST PUSH2 0x1E64 DUP6 DUP3 DUP7 ADD PUSH2 0x1CA8 JUMP JUMPDEST SWAP6 PUSH1 0x20 SWAP5 SWAP1 SWAP5 ADD CALLDATALOAD SWAP5 POP POP POP POP JUMP JUMPDEST DUP1 CALLDATALOAD PUSH1 0x1 PUSH1 0x1 PUSH1 0xE0 SHL SUB NOT DUP2 AND DUP2 EQ PUSH2 0x1C0E JUMPI PUSH1 0x0 DUP1 REVERT JUMPDEST PUSH1 0x0 DUP1 PUSH1 0x40 DUP4 DUP6 SUB SLT ISZERO PUSH2 0x1E9E JUMPI PUSH1 0x0 DUP1 REVERT JUMPDEST DUP3 CALLDATALOAD SWAP2 POP PUSH2 0x1C36 PUSH1 0x20 DUP5 ADD PUSH2 0x1E73 JUMP JUMPDEST PUSH1 0x0 DUP1 PUSH1 0x40 DUP4 DUP6 SUB SLT ISZERO PUSH2 0x1EC1 JUMPI PUSH1 0x0 DUP1 REVERT JUMPDEST DUP3 CALLDATALOAD PUSH1 0x1 PUSH1 0x1 PUSH1 0x40 SHL SUB DUP2 GT ISZERO PUSH2 0x1ED7 JUMPI PUSH1 0x0 DUP1 REVERT JUMPDEST DUP4 ADD PUSH1 0x1F DUP2 ADD DUP6 SGT PUSH2 0x1EE8 JUMPI PUSH1 0x0 DUP1 REVERT JUMPDEST DUP1 CALLDATALOAD PUSH1 0x20 PUSH2 0x1EF8 PUSH2 0x1CC9 DUP4 PUSH2 0x1C85 JUMP JUMPDEST DUP3 DUP2 MSTORE PUSH1 0x5 SWAP3 SWAP1 SWAP3 SHL DUP4 ADD DUP2 ADD SWAP2 DUP2 DUP2 ADD SWAP1 DUP9 DUP5 GT ISZERO PUSH2 0x1F17 JUMPI PUSH1 0x0 DUP1 REVERT JUMPDEST SWAP4 DUP3 ADD SWAP4 JUMPDEST DUP4 DUP6 LT ISZERO PUSH2 0x1F35 JUMPI DUP5 CALLDATALOAD DUP3 MSTORE SWAP4 DUP3 ADD SWAP4 SWAP1 DUP3 ADD SWAP1 PUSH2 0x1F1C JUMP JUMPDEST SWAP9 SWAP7 SWAP1 SWAP2 ADD CALLDATALOAD SWAP7 POP POP POP POP POP POP JUMP JUMPDEST PUSH1 0x0 DUP1 PUSH1 0x40 DUP4 DUP6 SUB SLT ISZERO PUSH2 0x1F57 JUMPI PUSH1 0x0 DUP1 REVERT JUMPDEST DUP3 CALLDATALOAD PUSH1 0x1 PUSH1 0x1 PUSH1 0x40 SHL SUB DUP2 GT ISZERO PUSH2 0x1F6D JUMPI PUSH1 0x0 DUP1 REVERT JUMPDEST DUP4 ADD PUSH1 0x1F DUP2 ADD DUP6 SGT PUSH2 0x1F7E JUMPI PUSH1 0x0 DUP1 REVERT JUMPDEST DUP1 CALLDATALOAD PUSH1 0x20 PUSH2 0x1F8E PUSH2 0x1CC9 DUP4 PUSH2 0x1C85 JUMP JUMPDEST DUP3 DUP2 MSTORE PUSH1 0x5 SWAP3 SWAP1 SWAP3 SHL DUP4 ADD DUP2 ADD SWAP2 DUP2 DUP2 ADD SWAP1 DUP9 DUP5 GT ISZERO PUSH2 0x1FAD JUMPI PUSH1 0x0 DUP1 REVERT JUMPDEST SWAP4 DUP3 ADD SWAP4 JUMPDEST DUP4 DUP6 LT ISZERO PUSH2 0x1FD2 JUMPI PUSH2 0x1FC3 DUP6 PUSH2 0x1E73 JUMP JUMPDEST DUP3 MSTORE SWAP4 DUP3 ADD SWAP4 SWAP1 DUP3 ADD SWAP1 PUSH2 0x1FB2 JUMP JUMPDEST SWAP6 POP PUSH2 0x1FE1 SWAP1 POP DUP7 DUP3 ADD PUSH2 0x1E73 JUMP JUMPDEST SWAP4 POP POP POP POP SWAP3 POP SWAP3 SWAP1 POP JUMP JUMPDEST PUSH1 0x0 DUP1 DUP4 PUSH1 0x1F DUP5 ADD SLT PUSH2 0x1FFF JUMPI PUSH1 0x0 DUP1 REVERT JUMPDEST POP DUP2 CALLDATALOAD PUSH1 0x1 PUSH1 0x1 PUSH1 0x40 SHL SUB DUP2 GT ISZERO PUSH2 0x2016 JUMPI PUSH1 0x0 DUP1 REVERT JUMPDEST PUSH1 0x20 DUP4 ADD SWAP2 POP DUP4 PUSH1 0x20 DUP3 PUSH1 0x5 SHL DUP6 ADD ADD GT ISZERO PUSH2 0x2031 JUMPI PUSH1 0x0 DUP1 REVERT JUMPDEST SWAP3 POP SWAP3 SWAP1 POP JUMP JUMPDEST DUP1 CALLDATALOAD PUSH1 0x1 PUSH1 0x1 PUSH1 0xA0 SHL SUB DUP2 AND DUP2 EQ PUSH2 0x1C0E JUMPI PUSH1 0x0 DUP1 REVERT JUMPDEST PUSH1 0x0 DUP1 PUSH1 0x0 PUSH1 0x40 DUP5 DUP7 SUB SLT ISZERO PUSH2 0x2064 JUMPI PUSH1 0x0 DUP1 REVERT JUMPDEST DUP4 CALLDATALOAD PUSH1 0x1 PUSH1 0x1 PUSH1 0x40 SHL SUB DUP2 GT ISZERO PUSH2 0x207A JUMPI PUSH1 0x0 DUP1 REVERT JUMPDEST PUSH2 0x2086 DUP7 DUP3 DUP8 ADD PUSH2 0x1FED JUMP JUMPDEST SWAP1 SWAP5 POP SWAP3 POP PUSH2 0x2099 SWAP1 POP PUSH1 0x20 DUP6 ADD PUSH2 0x2038 JUMP JUMPDEST SWAP1 POP SWAP3 POP SWAP3 POP SWAP3 JUMP JUMPDEST PUSH1 0x0 DUP3 PUSH1 0x1F DUP4 ADD SLT PUSH2 0x20B3 JUMPI PUSH1 0x0 DUP1 REVERT JUMPDEST DUP2 CALLDATALOAD PUSH1 0x1 PUSH1 0x1 PUSH1 0x40 SHL SUB DUP2 GT ISZERO PUSH2 0x20CC JUMPI PUSH2 0x20CC PUSH2 0x1C3F JUMP JUMPDEST PUSH2 0x20DF PUSH1 0x1F DUP3 ADD PUSH1 0x1F NOT AND PUSH1 0x20 ADD PUSH2 0x1C55 JUMP JUMPDEST DUP2 DUP2 MSTORE DUP5 PUSH1 0x20 DUP4 DUP7 ADD ADD GT ISZERO PUSH2 0x20F4 JUMPI PUSH1 0x0 DUP1 REVERT JUMPDEST DUP2 PUSH1 0x20 DUP6 ADD PUSH1 0x20 DUP4 ADD CALLDATACOPY PUSH1 0x0 SWAP2 DUP2 ADD PUSH1 0x20 ADD SWAP2 SWAP1 SWAP2 MSTORE SWAP4 SWAP3 POP POP POP JUMP JUMPDEST PUSH1 0x0 DUP1 PUSH1 0x40 DUP4 DUP6 SUB SLT ISZERO PUSH2 0x2124 JUMPI PUSH1 0x0 DUP1 REVERT JUMPDEST DUP3 CALLDATALOAD PUSH1 0x1 PUSH1 0x1 PUSH1 0x40 SHL SUB DUP1 DUP3 GT ISZERO PUSH2 0x213B JUMPI PUSH1 0x0 DUP1 REVERT JUMPDEST DUP2 DUP6 ADD SWAP2 POP DUP6 PUSH1 0x1F DUP4 ADD SLT PUSH2 0x214F JUMPI PUSH1 0x0 DUP1 REVERT JUMPDEST DUP2 CALLDATALOAD PUSH1 0x20 PUSH2 0x215F PUSH2 0x1CC9 DUP4 PUSH2 0x1C85 JUMP JUMPDEST DUP3 DUP2 MSTORE PUSH1 0x5 SWAP3 SWAP1 SWAP3 SHL DUP5 ADD DUP2 ADD SWAP2 DUP2 DUP2 ADD SWAP1 DUP10 DUP5 GT ISZERO PUSH2 0x217E JUMPI PUSH1 0x0 DUP1 REVERT JUMPDEST DUP3 DUP7 ADD JUMPDEST DUP5 DUP2 LT ISZERO PUSH2 0x21B6 JUMPI DUP1 CALLDATALOAD DUP7 DUP2 GT ISZERO PUSH2 0x219A JUMPI PUSH1 0x0 DUP1 DUP2 REVERT JUMPDEST PUSH2 0x21A8 DUP13 DUP7 DUP4 DUP12 ADD ADD PUSH2 0x20A2 JUMP JUMPDEST DUP5 MSTORE POP SWAP2 DUP4 ADD SWAP2 DUP4 ADD PUSH2 0x2182 JUMP JUMPDEST POP SWAP7 POP POP DUP7 ADD CALLDATALOAD SWAP3 POP POP DUP1 DUP3 GT ISZERO PUSH2 0x21CD JUMPI PUSH1 0x0 DUP1 REVERT JUMPDEST POP PUSH2 0x1D6C DUP6 DUP3 DUP7 ADD PUSH2 0x20A2 JUMP JUMPDEST PUSH1 0x0 DUP2 MLOAD DUP1 DUP5 MSTORE PUSH1 0x0 JUMPDEST DUP2 DUP2 LT ISZERO PUSH2 0x2200 JUMPI PUSH1 0x20 DUP2 DUP6 ADD DUP2 ADD MLOAD DUP7 DUP4 ADD DUP3 ADD MSTORE ADD PUSH2 0x21E4 JUMP JUMPDEST DUP2 DUP2 GT ISZERO PUSH2 0x2212 JUMPI PUSH1 0x0 PUSH1 0x20 DUP4 DUP8 ADD ADD MSTORE JUMPDEST POP PUSH1 0x1F ADD PUSH1 0x1F NOT AND SWAP3 SWAP1 SWAP3 ADD PUSH1 0x20 ADD SWAP3 SWAP2 POP POP JUMP JUMPDEST PUSH1 0x0 PUSH1 0x20 DUP1 DUP4 ADD DUP2 DUP5 MSTORE DUP1 DUP6 MLOAD DUP1 DUP4 MSTORE PUSH1 0x40 DUP7 ADD SWAP2 POP PUSH1 0x40 DUP2 PUSH1 0x5 SHL DUP8 ADD ADD SWAP3 POP DUP4 DUP8 ADD PUSH1 0x0 JUMPDEST DUP3 DUP2 LT ISZERO PUSH2 0x227C JUMPI PUSH1 0x3F NOT DUP9 DUP7 SUB ADD DUP5 MSTORE PUSH2 0x226A DUP6 DUP4 MLOAD PUSH2 0x21DA JUMP JUMPDEST SWAP5 POP SWAP3 DUP6 ADD SWAP3 SWAP1 DUP6 ADD SWAP1 PUSH1 0x1 ADD PUSH2 0x224E JUMP JUMPDEST POP SWAP3 SWAP8 SWAP7 POP POP POP POP POP POP POP JUMP JUMPDEST PUSH1 0x0 DUP1 PUSH1 0x0 PUSH1 0x40 DUP5 DUP7 SUB SLT ISZERO PUSH2 0x229E JUMPI PUSH1 0x0 DUP1 REVERT JUMPDEST DUP4 CALLDATALOAD PUSH1 0x1 PUSH1 0x1 PUSH1 0x40 SHL SUB DUP2 GT ISZERO PUSH2 0x22B4 JUMPI PUSH1 0x0 DUP1 REVERT JUMPDEST PUSH2 0x22C0 DUP7 DUP3 DUP8 ADD PUSH2 0x1FED JUMP JUMPDEST SWAP1 SWAP8 SWAP1 SWAP7 POP PUSH1 0x20 SWAP6 SWAP1 SWAP6 ADD CALLDATALOAD SWAP5 SWAP4 POP POP POP POP JUMP JUMPDEST PUSH1 0x0 DUP1 PUSH1 0x40 DUP4 DUP6 SUB SLT ISZERO PUSH2 0x22E7 JUMPI PUSH1 0x0 DUP1 REVERT JUMPDEST DUP3 CALLDATALOAD SWAP2 POP PUSH2 0x1C36 PUSH1 0x20 DUP5 ADD PUSH2 0x2038 JUMP JUMPDEST PUSH1 0x0 DUP1 PUSH1 0x40 DUP4 DUP6 SUB SLT ISZERO PUSH2 0x230A JUMPI PUSH1 0x0 DUP1 REVERT JUMPDEST DUP3 CALLDATALOAD PUSH1 0x1 PUSH1 0x1 PUSH1 0x40 SHL SUB DUP2 GT ISZERO PUSH2 0x2320 JUMPI PUSH1 0x0 DUP1 REVERT JUMPDEST DUP4 ADD PUSH1 0x1F DUP2 ADD DUP6 SGT PUSH2 0x2331 JUMPI PUSH1 0x0 DUP1 REVERT JUMPDEST DUP1 CALLDATALOAD PUSH1 0x20 PUSH2 0x2341 PUSH2 0x1CC9 DUP4 PUSH2 0x1C85 JUMP JUMPDEST DUP3 DUP2 MSTORE PUSH1 0x5 SWAP3 SWAP1 SWAP3 SHL DUP4 ADD DUP2 ADD SWAP2 DUP2 DUP2 ADD SWAP1 DUP9 DUP5 GT ISZERO PUSH2 0x2360 JUMPI PUSH1 0x0 DUP1 REVERT JUMPDEST SWAP4 DUP3 ADD SWAP4 JUMPDEST DUP4 DUP6 LT ISZERO PUSH2 0x2385 JUMPI PUSH2 0x2376 DUP6 PUSH2 0x1DBA JUMP JUMPDEST DUP3 MSTORE SWAP4 DUP3 ADD SWAP4 SWAP1 DUP3 ADD SWAP1 PUSH2 0x2365 JUMP JUMPDEST SWAP6 POP PUSH2 0x1FE1 SWAP1 POP DUP7 DUP3 ADD PUSH2 0x1DBA JUMP JUMPDEST PUSH1 0x0 PUSH1 0x20 DUP3 DUP5 SUB SLT ISZERO PUSH2 0x23A6 JUMPI PUSH1 0x0 DUP1 REVERT JUMPDEST DUP2 CALLDATALOAD PUSH1 0x1 PUSH1 0x1 PUSH1 0x40 SHL SUB DUP2 GT ISZERO PUSH2 0x23BC JUMPI PUSH1 0x0 DUP1 REVERT JUMPDEST PUSH2 0xC90 DUP5 DUP3 DUP6 ADD PUSH2 0x1CA8 JUMP JUMPDEST PUSH1 0x20 DUP2 MSTORE PUSH1 0x0 PUSH2 0xECB PUSH1 0x20 DUP4 ADD DUP5 PUSH2 0x21DA JUMP JUMPDEST PUSH1 0x0 DUP1 PUSH1 0x40 DUP4 DUP6 SUB SLT ISZERO PUSH2 0x23EE JUMPI PUSH1 0x0 DUP1 REVERT JUMPDEST DUP3 CALLDATALOAD PUSH1 0x1 PUSH1 0x1 PUSH1 0x40 SHL SUB DUP2 GT ISZERO PUSH2 0x2404 JUMPI PUSH1 0x0 DUP1 REVERT JUMPDEST DUP4 ADD PUSH1 0x1F DUP2 ADD DUP6 SGT PUSH2 0x2415 JUMPI PUSH1 0x0 DUP1 REVERT JUMPDEST DUP1 CALLDATALOAD PUSH1 0x20 PUSH2 0x2425 PUSH2 0x1CC9 DUP4 PUSH2 0x1C85 JUMP JUMPDEST DUP3 DUP2 MSTORE PUSH1 0x5 SWAP3 SWAP1 SWAP3 SHL DUP4 ADD DUP2 ADD SWAP2 DUP2 DUP2 ADD SWAP1 DUP9 DUP5 GT ISZERO PUSH2 0x2444 JUMPI PUSH1 0x0 DUP1 REVERT JUMPDEST SWAP4 DUP3 ADD SWAP4 JUMPDEST DUP4 DUP6 LT ISZERO PUSH2 0x2469 JUMPI PUSH2 0x245A DUP6 PUSH2 0x1BFA JUMP JUMPDEST DUP3 MSTORE SWAP4 DUP3 ADD SWAP4 SWAP1 DUP3 ADD SWAP1 PUSH2 0x2449 JUMP JUMPDEST SWAP6 POP PUSH2 0x1FE1 SWAP1 POP DUP7 DUP3 ADD PUSH2 0x1BFA JUMP JUMPDEST PUSH1 0x0 DUP1 PUSH1 0x40 DUP4 DUP6 SUB SLT ISZERO PUSH2 0x248B JUMPI PUSH1 0x0 DUP1 REVERT JUMPDEST DUP3 CALLDATALOAD PUSH1 0x1 PUSH1 0x1 PUSH1 0x40 SHL SUB DUP2 GT ISZERO PUSH2 0x24A1 JUMPI PUSH1 0x0 DUP1 REVERT JUMPDEST DUP4 ADD PUSH1 0x1F DUP2 ADD DUP6 SGT PUSH2 0x24B2 JUMPI PUSH1 0x0 DUP1 REVERT JUMPDEST DUP1 CALLDATALOAD PUSH1 0x20 PUSH2 0x24C2 PUSH2 0x1CC9 DUP4 PUSH2 0x1C85 JUMP JUMPDEST DUP3 DUP2 MSTORE PUSH1 0x5 SWAP3 SWAP1 SWAP3 SHL DUP4 ADD DUP2 ADD SWAP2 DUP2 DUP2 ADD SWAP1 DUP9 DUP5 GT ISZERO PUSH2 0x24E1 JUMPI PUSH1 0x0 DUP1 REVERT JUMPDEST SWAP4 DUP3 ADD SWAP4 JUMPDEST DUP4 DUP6 LT ISZERO PUSH2 0x2506 JUMPI PUSH2 0x24F7 DUP6 PUSH2 0x2038 JUMP JUMPDEST DUP3 MSTORE SWAP4 DUP3 ADD SWAP4 SWAP1 DUP3 ADD SWAP1 PUSH2 0x24E6 JUMP JUMPDEST SWAP6 POP PUSH2 0x1FE1 SWAP1 POP DUP7 DUP3 ADD PUSH2 0x2038 JUMP JUMPDEST PUSH4 0x4E487B71 PUSH1 0xE0 SHL PUSH1 0x0 MSTORE PUSH1 0x32 PUSH1 0x4 MSTORE PUSH1 0x24 PUSH1 0x0 REVERT JUMPDEST PUSH4 0x4E487B71 PUSH1 0xE0 SHL PUSH1 0x0 MSTORE PUSH1 0x11 PUSH1 0x4 MSTORE PUSH1 0x24 PUSH1 0x0 REVERT JUMPDEST PUSH1 0x0 DUP3 DUP3 LT ISZERO PUSH2 0x2553 JUMPI PUSH2 0x2553 PUSH2 0x252B JUMP JUMPDEST POP SUB SWAP1 JUMP JUMPDEST PUSH4 0x4E487B71 PUSH1 0xE0 SHL PUSH1 0x0 MSTORE PUSH1 0x31 PUSH1 0x4 MSTORE PUSH1 0x24 PUSH1 0x0 REVERT JUMPDEST PUSH1 0x0 PUSH1 0x0 NOT DUP3 EQ ISZERO PUSH2 0x2582 JUMPI PUSH2 0x2582 PUSH2 0x252B JUMP JUMPDEST POP PUSH1 0x1 ADD SWAP1 JUMP JUMPDEST PUSH1 0x0 DUP3 NOT DUP3 GT ISZERO PUSH2 0x259C JUMPI PUSH2 0x259C PUSH2 0x252B JUMP JUMPDEST POP ADD SWAP1 JUMP JUMPDEST PUSH1 0x0 DUP2 PUSH2 0x25B0 JUMPI PUSH2 0x25B0 PUSH2 0x252B JUMP JUMPDEST POP PUSH1 0x0 NOT ADD SWAP1 JUMP JUMPDEST PUSH1 0x0 PUSH4 0xFFFFFFFF DUP1 DUP4 AND DUP2 DUP6 AND DUP1 DUP4 SUB DUP3 GT ISZERO PUSH2 0x25D7 JUMPI PUSH2 0x25D7 PUSH2 0x252B JUMP JUMPDEST ADD SWAP5 SWAP4 POP POP POP POP JUMP JUMPDEST PUSH1 0x0 PUSH1 0x20 DUP3 DUP5 SUB SLT ISZERO PUSH2 0x25F2 JUMPI PUSH1 0x0 DUP1 REVERT JUMPDEST PUSH2 0xECB DUP3 PUSH2 0x2038 JUMP JUMPDEST PUSH1 0x0 DUP2 PUSH1 0x0 NOT DIV DUP4 GT DUP3 ISZERO ISZERO AND ISZERO PUSH2 0x2615 JUMPI PUSH2 0x2615 PUSH2 0x252B JUMP JUMPDEST POP MUL SWAP1 JUMP JUMPDEST PUSH1 0x0 PUSH1 0x1 PUSH1 0x1 PUSH1 0x40 SHL SUB DUP1 DUP4 AND DUP2 DUP6 AND DUP1 DUP4 SUB DUP3 GT ISZERO PUSH2 0x25D7 JUMPI PUSH2 0x25D7 PUSH2 0x252B JUMP INVALID LOG2 PUSH5 0x6970667358 0x22 SLT KECCAK256 DUP8 SMOD XOR 0xCB 0xC6 CREATE2 0x1E PUSH31 0xAB327DA0A2ABB31D1AF4ACD23BD88B9D00C9AAF08E43F04364736F6C634300 ADDMOD SIGNEXTEND STOP CALLER ","sha1":"14222c135c8fe5fd8c71f436a08c480cd0c6e8c2","source":"// SPDX-License-Identifier: MIT\n// Beef Contracts v0.0.0 hello@mcdu.com\n\npragma solidity ^0.8.0;\n\nlibrary Array  {\n\n    // UInt32\n\n    function reset(\n        uint32[] storage t_\n        \n    ) public {\n        uint len = t_.length;\n        while (len-->0)\n            t_.pop();\n    }\n\n    function sum(\n        uint32[] storage t_\n    ) public view returns (uint32 sum_) {\n        uint len = t_.length;\n        for (uint i;i<len;i++)\n             sum_ += t_[i];\n    }\n\n    function insert(\n        uint32[] storage t_,\n        uint32 index_\n    ) public returns (bool) {\n        uint len = t_.length;\n        for (uint i;i<len;i++)\n             if (t_[i]==index_)\n                return false;\n        t_.push(index_);\n        return true;\n    }\n    function exist(uint32[] storage t_, uint32 index_)\n        view public\n    returns (bool)\n    {\n        uint len = t_.length;\n        for (uint i;i<len;i++)\n             if (t_[i]==index_)\n                return true;\n        return false;\n    }\n    function mexist(uint32[] memory t_, uint32 index_)\n        pure public\n    returns (bool)\n    {\n        uint len = t_.length;\n        for (uint i;i<len;i++)\n             if (t_[i]==index_)\n                return true;\n        return false;\n    }\n    function remove(uint32[] storage t_, uint32 index_)\n        public\n    returns (bool)\n    {\n        uint len = t_.length;\n        for (uint i;i<len;i++)\n             if (t_[i]==index_)\n            {\n                if (i<len-1)\n                    t_[i] = t_[len-1];\n                t_.pop();\n                return true;\n            }\n        return false;\n    }\n\n    //Uint64\n\n    function reset(\n        uint64[] storage t_\n        \n    ) public {\n        uint len = t_.length;\n        while (len-->0)\n            t_.pop();\n    }\n\n    function sum(\n        uint64[] storage t_\n    ) public view returns (uint64 sum_) {\n        uint len = t_.length;\n        for (uint i;i<len;i++)\n             sum_ += t_[i];\n    }\n\n    function insert(\n        uint64[] storage t_,\n        uint64 index_\n    ) public returns (bool) {\n        uint len = t_.length;\n        for (uint i;i<len;i++)\n             if (t_[i]==index_)\n                return false;\n        t_.push(index_);\n        return true;\n    }\n    function exist(uint64[] storage t_, uint64 index_)\n        view public\n    returns (bool)\n    {\n        uint len = t_.length;\n        for (uint i;i<len;i++)\n             if (t_[i]==index_)\n                return true;\n        return false;\n    }\n    function mexist(uint64[] memory t_, uint64 index_)\n        pure public\n    returns (bool)\n    {\n        uint len = t_.length;\n        for (uint i;i<len;i++)\n             if (t_[i]==index_)\n                return true;\n        return false;\n    }\n    function remove(uint64[] storage t_, uint64 index_)\n        public\n    returns (bool)\n    {\n        uint len = t_.length;\n        for (uint i;i<len;i++)\n             if (t_[i]==index_)\n            {\n                if (i<len-1)\n                    t_[i] = t_[len-1];\n                t_.pop();\n                return true;\n            }\n        return false;\n    }\n\n    \n\n    function reset(\n        uint256[] storage t_\n        \n    ) public {\n        uint len = t_.length;\n        while (len-->0)\n            t_.pop();\n    }\n\n    function sum(\n        uint256[] storage t_\n    ) public view returns (uint256 sum_) {\n        uint len = t_.length;\n        for (uint i;i<len;i++)\n             sum_ += t_[i];\n    }\n\n    function insert(\n        uint256[] storage t_,\n        uint256 index_\n    ) public returns (bool) {\n        uint len = t_.length;\n        for (uint i;i<len;i++)\n             if (t_[i]==index_)\n                return false;\n        t_.push(index_);\n        return true;\n    }\n    function exist(uint256[] storage t_, uint256 index_)\n        view public\n    returns (bool)\n    {\n        uint len = t_.length;\n        for (uint i;i<len;i++)\n             if (t_[i]==index_)\n                return true;\n        return false;\n    }\n    function mexist(uint256[] memory t_, uint256 index_)\n        pure public\n    returns (bool)\n    {\n        uint len = t_.length;\n        for (uint i;i<len;i++)\n             if (t_[i]==index_)\n                return true;\n        return false;\n    }\n\n    function remove(uint256[] storage t_, uint256 index_)\n        public\n    returns (bool)\n    {\n        uint len = t_.length;\n        for (uint i;i<len;i++)\n             if (t_[i]==index_)\n            {\n                if (i<len-1)\n                    t_[i] = t_[len-1];\n                t_.pop();\n                return true;\n            }\n        return false;\n    }\n\n\n\n\n    function reset(\n        address[] storage t_\n        \n    ) public {\n        uint len = t_.length;\n        while (len-->0)\n            t_.pop();\n    }\n\n    function insert(\n        address[] storage t_,\n        address index_\n    ) public returns (bool) {\n        uint len = t_.length;\n        for (uint i;i<len;i++)\n            if (t_[i]==index_)\n                return false;\n        t_.push(index_);\n        return true;\n    }\n    function c_exist(address[] calldata t_, address index_)\n        pure public\n    returns (bool)\n    {\n        uint len = t_.length;\n        for (uint i;i<len;i++)\n             if (t_[i]==index_)\n                return true;\n        return false;\n    }\n    function s_exist(address[] storage t_, address index_)\n        view public\n    returns (bool)\n    {\n        uint len = t_.length;\n        for (uint i;i<len;i++)\n             if (t_[i]==index_)\n                return true;\n        return false;\n    }\n    function m_exist(address[] memory t_, address index_)\n        pure public\n    returns (bool)\n    {\n        uint len = t_.length;\n        for (uint i;i<len;i++)\n             if (t_[i]==index_)\n                return true;\n        return false;\n    }\n    function remove(address[] storage t_, address index_)\n        public\n    returns (bool)\n    {\n        uint len = t_.length;\n        for (uint i;i<len;i++)\n            if (t_[i]==index_)\n            {\n                if (i<len-1)\n                    t_[i] = t_[len-1];\n                t_.pop();\n                return true;\n            }\n        return false;      \n    }\n    function insert(\n        bytes4[] storage t_,\n        bytes4 index_\n    ) public returns (bool) {\n        uint len = t_.length;\n        for (uint i;i<len;i++)\n            if (t_[i]==index_)\n                return false;\n        t_.push(index_);\n        return true;\n    }\n    function s_exist(bytes4[] storage t_, bytes4 index_)\n        view public\n    returns (bool)\n    {\n        uint len = t_.length;\n        for (uint i;i<len;i++)\n           if (t_[i]==index_)\n                return true;\n        return false;\n    }\n    function m_exist(bytes4[] memory t_, bytes4 index_)\n        pure public\n    returns (bool)\n    {\n        uint len = t_.length;\n        for (uint i;i<len;i++)\n           if (t_[i]==index_)\n                return true;\n        return false;\n    }\n    function remove(bytes4[] storage t_, bytes4 index_)\n        public\n    returns (bool)\n    {\n        uint len = t_.length;\n        for (uint i;i<len;i++)\n            if (t_[i]==index_)\n            {\n                if (i<len-1)\n                    t_[i] = t_[len-1];\n                t_.pop();\n                return true;\n            }\n        return false;\n    }    \n    function push(string[] memory t_, string memory s_)\n        public pure\n    returns (string[] memory out_)\n    {\n        uint len = t_.length;\n        out_ = new string[](len+1);\n        for (uint i;i<len;i++)\n            out_[i]=t_[i];\n        out_[len] = s_;\n    }\n    function push(bytes32[] memory t_, bytes32 s_)\n        public pure\n    returns (bytes32[] memory out_)\n    {\n        uint len = t_.length;\n        out_ = new bytes32[](len+1);\n        for (uint i;i<len;i++)\n            out_[i]=t_[i];\n        out_[len] = s_;\n    }\n    function insert(\n        bytes32[] storage t_,\n        bytes32 s_\n    ) public returns (bool) {\n        uint len = t_.length;\n        for (uint i;i<len;i++)\n            if (t_[i]==s_)\n                return false;\n        t_.push(s_);\n        return true;\n    }\n    function remove(bytes32[] storage t_, bytes32 index_)\n        public\n    returns (bool)\n    {\n        uint len = t_.length;\n        for (uint i;i<len;i++)\n            if (t_[i]==index_)\n            {\n                if (i<len-1)\n                    t_[i] = t_[len-1];\n                t_.pop();\n                return true;\n            }\n        return false;      \n    }\n\n    function c_exist(bytes32[] calldata t_, bytes32 index_)\n        pure public\n    returns (bool)\n    {\n        uint len = t_.length;\n        for (uint i;i<len;i++)\n             if (t_[i]==index_)\n                return true;\n        return false;\n    }\n    function s_exist(bytes32[] storage t_, bytes32 index_)\n        view public\n    returns (bool)\n    {\n        uint len = t_.length;\n        for (uint i;i<len;i++)\n             if (t_[i]==index_)\n                return true;\n        return false;\n    }\n    function m_exist(bytes32[] memory t_, bytes32 index_)\n        pure public\n    returns (bool)\n    {\n        uint len = t_.length;\n        for (uint i;i<len;i++)\n             if (t_[i]==index_)\n                return true;\n        return false;\n    }\n    function addtail(bytes32[] memory in_, bytes32  s_)\n        public\n        pure\n        returns (bytes32[] memory out_)\n    {\n        /*for (uint256 i; i < sols_.length; i++) {\n            if (sols_[i].orderid == sol_.orderid)\n            {\n                sols_[i].qty += sol_.qty;\n                return sols_;\n            }\n        }*/\n        bytes32[] memory set = new bytes32[](1);\n        set[0] = s_;\n        return combine(in_, set);\n    }\n    function addfront(bytes32[] memory in_, bytes32  s_)\n        public\n        pure\n        returns (bytes32[] memory out_)\n    {\n        /*for (uint256 i; i < sols_.length; i++) {\n            if (sols_[i].orderid == sol_.orderid)\n            {\n                sols_[i].qty += sol_.qty;\n                return sols_;\n            }\n        }*/\n        bytes32[] memory set = new bytes32[](1);\n        set[0] = s_;\n        return combine(set,in_);\n    }\n    function combine(bytes32[] memory set1_, bytes32[] memory set2_)\n        public\n        pure\n        returns (bytes32[] memory out_)\n    {\n        uint256 _set1len = set1_.length;\n        uint256 _set2len = set2_.length;\n\n        out_ = new bytes32[](_set1len + _set2len);\n\n        for (uint256 i; i < _set1len; i++) {\n            out_[i] = set1_[i];\n        }\n        for (uint256 i; i < _set2len; i++) {\n            out_[_set1len + i] = set2_[i];\n        }\n    }\n\n    function mexist(bytes32[] memory t_, bytes32 index_)\n        pure public\n    returns (bool)\n    {\n        uint len = t_.length;\n        for (uint i;i<len;i++)\n             if (t_[i]==index_)\n                return true;\n        return false;\n    }\n    function pack(bytes32[] memory t_)\n        pure public\n    returns (bytes memory out_)\n    {\n         uint len = t_.length*32;\n       out_ = new bytes(len);\n        for (uint i=32;i<=len;i+=32)\n            assembly {\n                mstore(add(out_, i), add(t_, i)) \n                }            \n    }\n}","sourcePath":"contracts/agnostic/Array.sol","type":"library","deployment":{"address":"0xd841E9c50DfA21AAD02E90B882A1288c8eba2500","chainid":"9997","blockHeight":30436}}