{"abi":[{"inputs":[{"internalType":"contract Repository","name":"rep_","type":"address"}],"stateMutability":"nonpayable","type":"constructor","name":"constructor"},{"anonymous":false,"inputs":[{"indexed":true,"internalType":"address","name":"previousOwner","type":"address"},{"indexed":true,"internalType":"address","name":"newOwner","type":"address"}],"name":"OwnershipTransferred","type":"event"},{"anonymous":false,"inputs":[{"indexed":true,"internalType":"bytes32","name":"fromk_","type":"bytes32"},{"indexed":true,"internalType":"bytes32","name":"tok_","type":"bytes32"},{"indexed":false,"internalType":"address","name":"fromaccount_","type":"address"},{"indexed":false,"internalType":"address","name":"toaccount_","type":"address"},{"indexed":false,"internalType":"uint256","name":"quote_","type":"uint256"},{"indexed":false,"internalType":"uint256","name":"qty_","type":"uint256"}],"name":"Transaction","type":"event"},{"stateMutability":"nonpayable","type":"fallback"},{"inputs":[],"name":"STOP","outputs":[{"internalType":"bool","name":"","type":"bool"}],"stateMutability":"view","type":"function"},{"inputs":[],"name":"STOPFOREVER","outputs":[{"internalType":"bool","name":"","type":"bool"}],"stateMutability":"view","type":"function"},{"inputs":[{"internalType":"uint256","name":"val_","type":"uint256"}],"name":"UInt256ToUInt32","outputs":[{"internalType":"uint32","name":"","type":"uint32"}],"stateMutability":"pure","type":"function"},{"inputs":[{"internalType":"uint256","name":"val_","type":"uint256"}],"name":"UInt256ToUInt48","outputs":[{"internalType":"uint48","name":"","type":"uint48"}],"stateMutability":"pure","type":"function"},{"inputs":[{"internalType":"uint256","name":"val_","type":"uint256"}],"name":"UInt256ToUInt64","outputs":[{"internalType":"uint64","name":"","type":"uint64"}],"stateMutability":"pure","type":"function"},{"inputs":[{"internalType":"uint32","name":"val_","type":"uint32"}],"name":"UInt32ToUInt256","outputs":[{"internalType":"uint256","name":"","type":"uint256"}],"stateMutability":"pure","type":"function"},{"inputs":[{"internalType":"uint48","name":"val_","type":"uint48"}],"name":"UInt48ToUInt256","outputs":[{"internalType":"uint256","name":"","type":"uint256"}],"stateMutability":"pure","type":"function"},{"inputs":[{"internalType":"uint64","name":"val_","type":"uint64"}],"name":"UInt64ToUInt256","outputs":[{"internalType":"uint256","name":"","type":"uint256"}],"stateMutability":"pure","type":"function"},{"inputs":[{"internalType":"bytes32","name":"_from","type":"bytes32"},{"internalType":"bytes32","name":"fromto_","type":"bytes32"}],"name":"_existPath","outputs":[{"internalType":"bool","name":"","type":"bool"}],"stateMutability":"view","type":"function"},{"inputs":[],"name":"checkOperators","outputs":[],"stateMutability":"view","type":"function"},{"inputs":[{"internalType":"uint256","name":"order_","type":"uint256"}],"name":"d_orderCancel","outputs":[],"stateMutability":"nonpayable","type":"function"},{"inputs":[{"internalType":"address","name":"account_","type":"address"},{"internalType":"uint256","name":"orderid_","type":"uint256"},{"internalType":"uint256","name":"qty_","type":"uint256"},{"internalType":"uint256","name":"quote_","type":"uint256"},{"internalType":"uint256","name":"pctslippage_","type":"uint256"}],"name":"d_orderFulfillEx","outputs":[{"internalType":"uint256","name":"qtydone_","type":"uint256"}],"stateMutability":"nonpayable","type":"function"},{"inputs":[{"internalType":"address","name":"account_","type":"address"},{"internalType":"bytes32","name":"from_","type":"bytes32"},{"internalType":"bytes32","name":"to_","type":"bytes32"},{"internalType":"uint256","name":"granularity_","type":"uint256"},{"internalType":"uint256","name":"qty_","type":"uint256"},{"internalType":"uint256","name":"quote_","type":"uint256"},{"internalType":"uint8","name":"options_","type":"uint8"}],"name":"d_orderPlace","outputs":[{"internalType":"uint256","name":"orderid_","type":"uint256"}],"stateMutability":"nonpayable","type":"function"},{"inputs":[],"name":"id","outputs":[{"internalType":"bytes32","name":"","type":"bytes32"}],"stateMutability":"view","type":"function"},{"inputs":[{"internalType":"uint256","name":"order_","type":"uint256"}],"name":"order","outputs":[{"components":[{"internalType":"address","name":"account","type":"address"},{"internalType":"bytes32","name":"from","type":"bytes32"},{"internalType":"bytes32","name":"to","type":"bytes32"},{"internalType":"uint256","name":"orderid","type":"uint256"},{"internalType":"uint256","name":"qty","type":"uint256"},{"internalType":"uint256","name":"granularity","type":"uint256"},{"internalType":"uint256","name":"qtydone","type":"uint256"},{"internalType":"uint256","name":"originalqty","type":"uint256"},{"internalType":"uint256","name":"quote","type":"uint256"},{"internalType":"uint256","name":"originalquote","type":"uint256"},{"internalType":"uint256","name":"originalbasedquote","type":"uint256"},{"internalType":"uint256","name":"expire","type":"uint256"},{"internalType":"enum Order.State","name":"state","type":"uint8"},{"internalType":"uint8","name":"options","type":"uint8"}],"internalType":"struct Order.InfoPublic","name":"","type":"tuple"}],"stateMutability":"view","type":"function"},{"inputs":[{"internalType":"uint256","name":"orderid_","type":"uint256"}],"name":"orderCancel","outputs":[],"stateMutability":"nonpayable","type":"function"},{"inputs":[{"internalType":"uint256","name":"orderid_","type":"uint256"},{"internalType":"uint256","name":"qty_","type":"uint256"},{"internalType":"uint256","name":"quote_","type":"uint256"},{"internalType":"uint256","name":"pctslippage_","type":"uint256"}],"name":"orderFulfill","outputs":[{"internalType":"uint256","name":"qtydone_","type":"uint256"}],"stateMutability":"nonpayable","type":"function"},{"inputs":[{"internalType":"address","name":"account_","type":"address"},{"internalType":"uint256","name":"orderid_","type":"uint256"},{"internalType":"uint256","name":"qty_","type":"uint256"},{"internalType":"uint256","name":"quote_","type":"uint256"},{"internalType":"uint256","name":"pctslippage_","type":"uint256"}],"name":"orderFulfillEx","outputs":[{"internalType":"uint256","name":"qtydone_","type":"uint256"}],"stateMutability":"nonpayable","type":"function"},{"inputs":[{"internalType":"bytes32","name":"from_","type":"bytes32"},{"internalType":"bytes32","name":"to_","type":"bytes32"},{"internalType":"uint256","name":"granularity_","type":"uint256"},{"internalType":"uint256","name":"qty_","type":"uint256"},{"internalType":"uint256","name":"quote_","type":"uint256"},{"internalType":"uint8","name":"options_","type":"uint8"}],"name":"orderPlace","outputs":[{"internalType":"uint256","name":"orderid_","type":"uint256"}],"stateMutability":"nonpayable","type":"function"},{"inputs":[{"internalType":"address","name":"account_","type":"address"},{"internalType":"bytes32","name":"from_","type":"bytes32"},{"internalType":"bytes32","name":"to_","type":"bytes32"},{"internalType":"uint256","name":"granularity_","type":"uint256"},{"internalType":"uint256","name":"qty_","type":"uint256"},{"internalType":"uint256","name":"quote_","type":"uint256"},{"internalType":"uint8","name":"options_","type":"uint8"}],"name":"orderPlace","outputs":[{"internalType":"uint256","name":"orderid_","type":"uint256"}],"stateMutability":"nonpayable","type":"function"},{"inputs":[{"internalType":"address","name":"account_","type":"address"},{"internalType":"address","name":"from_","type":"address"},{"internalType":"uint256","name":"fromid_","type":"uint256"},{"internalType":"address","name":"to_","type":"address"},{"internalType":"uint256","name":"toid_","type":"uint256"},{"internalType":"uint256","name":"granularity_","type":"uint256"},{"internalType":"uint256","name":"qty_","type":"uint256"},{"internalType":"uint256","name":"quote_","type":"uint256"},{"internalType":"uint8","name":"options_","type":"uint8"}],"name":"orderPlace","outputs":[{"internalType":"uint256","name":"orderid_","type":"uint256"}],"stateMutability":"nonpayable","type":"function"},{"inputs":[{"internalType":"address","name":"account_","type":"address"},{"internalType":"address","name":"from_","type":"address"},{"internalType":"address","name":"to_","type":"address"},{"internalType":"uint256","name":"granularity_","type":"uint256"},{"internalType":"uint256","name":"qty_","type":"uint256"},{"internalType":"uint256","name":"quote_","type":"uint256"},{"internalType":"uint8","name":"options_","type":"uint8"}],"name":"orderPlaceEx","outputs":[{"internalType":"uint256","name":"orderid_","type":"uint256"}],"stateMutability":"nonpayable","type":"function"},{"inputs":[{"internalType":"address","name":"from_","type":"address"},{"internalType":"uint256","name":"fromid_","type":"uint256"},{"internalType":"address","name":"to_","type":"address"},{"internalType":"uint256","name":"toid_","type":"uint256"},{"internalType":"uint256","name":"granularity_","type":"uint256"},{"internalType":"uint256","name":"qty_","type":"uint256"},{"internalType":"uint256","name":"quote_","type":"uint256"},{"internalType":"uint8","name":"options_","type":"uint8"}],"name":"orderPlaceEx","outputs":[{"internalType":"uint256","name":"orderid_","type":"uint256"}],"stateMutability":"nonpayable","type":"function"},{"inputs":[],"name":"owner","outputs":[{"internalType":"address","name":"","type":"address"}],"stateMutability":"view","type":"function"},{"inputs":[],"name":"renounceOwnership","outputs":[],"stateMutability":"nonpayable","type":"function"},{"inputs":[],"name":"rep","outputs":[{"internalType":"contract Repository","name":"","type":"address"}],"stateMutability":"view","type":"function"},{"inputs":[],"name":"setSTOP","outputs":[],"stateMutability":"nonpayable","type":"function"},{"inputs":[],"name":"setSTOPFOREVER","outputs":[],"stateMutability":"nonpayable","type":"function"},{"inputs":[{"internalType":"bytes4","name":"interfaceId","type":"bytes4"}],"name":"supportsInterface","outputs":[{"internalType":"bool","name":"","type":"bool"}],"stateMutability":"view","type":"function"},{"inputs":[{"internalType":"address","name":"newOwner","type":"address"}],"name":"transferOwnership","outputs":[],"stateMutability":"nonpayable","type":"function"},{"inputs":[],"name":"unsetSTOP","outputs":[],"stateMutability":"nonpayable","type":"function"}],"bytecode":"60a06040523480156200001157600080fd5b5060405162005ac538038062005ac58339810160408190526200003491620000b1565b8080620000413362000056565b6001600160a01b031660805250620000e39050565b600080546001600160a01b038381166201000081810262010000600160b01b0319851617855560405193049190911692909183917f8be0079c531659141344cd1fd0a4f28419497f9722a3daafe3b4186f6b6457e091a35050565b600060208284031215620000c457600080fd5b81516001600160a01b0381168114620000dc57600080fd5b9392505050565b6080516158996200022c600039600081816104870152818161054c015281816105ea0152818161079b015281816109c801528181610b3f01528181610c5f01528181610cf901528181610f09015281816112a3015281816113fc015281816114c90152818161155a0152818161176f0152818161188201528181611a4501528181611bb601528181611da2015281816123160152818161249301528181612528015281816125da01528181612670015281816126f501528181612786015281816129ea01528181612bfc01528181612dee0152818161314a015281816132700152818161337901528181613479015281816135820152818161367c015281816137860152818161394801528181613a9501528181613e3a01528181613ecf0152818161400d0152818161423501528181614566015281816147f60152614b9401526158996000f3fe608060405234801561001057600080fd5b50600436106101e55760003560e01c8063979620761161010f578063c34fa842116100a2578063e4b1614411610071578063e4b16144146104c4578063ede8cdfe146104d7578063f2fde38b146104ea578063feab4454146104fd576101e5565b8063c34fa8421461046f578063ccc0795914610482578063d6935858146104a9578063e2d7e08e146104b1576101e5565b8063af640d0f116100de578063af640d0f14610410578063b03fd40d14610436578063b23a43fc14610449578063b791f8a01461045c576101e5565b806397962076146103c75780639bc896f9146103d7578063a5ef794a146103ea578063a6610f02146103fd576101e5565b80635f5c5baa116101875780637a70482c116101565780637a70482c1461036e5780637af6649a14610381578063854ba99d146103945780638da5cb5b1461039c576101e5565b80635f5c5baa1461032b5780636296514114610333578063715018a61461035e57806372ea61bf14610366576101e5565b80631ef4590d116101c35780631ef4590d146102bd57806321603f43146102d05780632203616d146102f05780635c42b71014610318576101e5565b806301ffc9a71461026a57806305d6bd9c146102925780630af077bf1461029c575b6101ed610527565b60006101fd602460043684614e55565b8080601f016020809104026020016040519081016040528093929190818152602001838380828437600092018290525060208501519495509250503660231981019150601f19016004838037816024600437600080826000875af492505050610265816106f1565b505050005b61027d610278366004614e7f565b61070b565b60405190151581526020015b60405180910390f35b61029a610742565b005b6102af6102aa366004614ebe565b610759565b604051908152602001610289565b61027d6102cb366004614f02565b6108d2565b6102e36102de366004614f24565b610963565b6040516102899190614f75565b6103036102fe366004614f24565b610976565b60405163ffffffff9091168152602001610289565b6102af610326366004615040565b610987565b61029a6109a3565b610346610341366004614f24565b610ab8565b6040516001600160401b039091168152602001610289565b61029a610aea565b61029a610afc565b6102af61037c366004614ebe565b610b16565b6102af61038f366004615091565b611234565b61027d61124d565b6000546201000090046001600160a01b03165b6040516001600160a01b039091168152602001610289565b600054610100900460ff1661027d565b61029a6103e5366004614f24565b61126b565b6102af6103f83660046150b9565b6113bb565b6102af61040b3660046150eb565b6113d3565b7fc79a5c5e1c7f6fab1e75ab0e20e9522aa9eb363a0c70072c6dcb8a20f4a46ae46102af565b6102af610444366004615150565b6122ba565b6102af6104573660046150eb565b6122d4565b6102af61046a366004615179565b612464565b6102af61047d3660046151e2565b6125ab565b6103af7f000000000000000000000000000000000000000000000000000000000000000081565b61029a6126ad565b6102af6104bf36600461526d565b6126c9565b6102af6104d23660046152e5565b612731565b61029a6104e5366004614f24565b612748565b61029a6104f836600461530b565b61284d565b61051061050b366004614f24565b6128c6565b60405165ffffffffffff9091168152602001610289565b6000546001600160a01b0362010000909104163314806105da57506001600160a01b037f0000000000000000000000000000000000000000000000000000000000000000166316279055336040516001600160e01b031960e084901b1681526001600160a01b039091166004820152602401602060405180830381865afa1580156105b6573d6000803e3d6000fd5b505050506040513d601f19601f820116820180604052508101906105da9190615328565b8061067857506001600160a01b037f000000000000000000000000000000000000000000000000000000000000000016636d70f7ae336040516001600160e01b031960e084901b1681526001600160a01b039091166004820152602401602060405180830381865afa158015610654573d6000803e3d6000fd5b505050506040513d601f19601f820116820180604052508101906106789190615328565b6106ef5760405162461bcd60e51b815260206004820152603960248201527f416c6c6f77616e63653a2063616c6c6572206d757374206265205265706f736960448201527f746f727920436f6e7472616374206f72204f70657261746f720000000000000060648201526084015b60405180910390fd5b565b3d6000803e808015610702573d6000f35b3d6000fd5b5050565b60006001600160e01b031982166301ffc9a760e01b148061073c57506001600160e01b031982166315d3789560e31b145b92915050565b61074a610527565b6106ef6000805460ff19169055565b60405163023aa9ab60e61b81527f2e7a327ef83c2af7579c6634f2f5604519800c5f07626f27bd602fd11ed8e6ec600482015260009081906001600160a01b037f00000000000000000000000000000000000000000000000000000000000000001690638eaa6ac090602401602060405180830381865afa1580156107e2573d6000803e3d6000fd5b505050506040513d601f19601f82011682018060405250810190610806919061534a565b604080513060248201526001600160a01b038a81166044830152606482018a90526084820189905260a4820188905260c48083018890528351808403909101815260e490920183526020820180516001600160e01b03166301de754d60e61b179052915192909116916108799190615367565b6000604051808303816000865af19150503d80600081146108b6576040519150601f19603f3d011682016040523d82523d6000602084013e6108bb565b606091505b505090506108c8816106f1565b5095945050505050565b6000828152600160205260408082209051632be5db2360e11b815260048101919091526024810183905273__Array_________________________________906357cbb64690604401602060405180830381865af4158015610938573d6000803e3d6000fd5b505050506040513d601f19601f8201168201806040525081019061095c9190615328565b9392505050565b61096b614dc6565b61073c8260006128d7565b600061073c64e8d4a51000836153b8565b6000610998338888888888886122d4565b979650505050505050565b6000546001600160a01b036201000090910416331480610a5657506001600160a01b037f000000000000000000000000000000000000000000000000000000000000000016636d70f7ae336040516001600160e01b031960e084901b1681526001600160a01b039091166004820152602401602060405180830381865afa158015610a32573d6000803e3d6000fd5b505050506040513d601f19601f82011682018060405250810190610a569190615328565b6106ef5760405162461bcd60e51b815260206004820152602d60248201527f416c6c6f77616e63653a2063616c6c6572206d757374206265205265706f736960448201526c3a37b93c9027b832b930ba37b960991b60648201526084016106e6565b600080610aca6402540be400846153b8565b905082610adc826402540be4006153da565b111561073c5761073c6153f9565b610af2613029565b6106ef600061308a565b610b04610527565b6106ef6000805460ff19166001179055565b6000610b2061124d565b15610b3d5760405162461bcd60e51b81526004016106e69061540f565b7f00000000000000000000000000000000000000000000000000000000000000006001600160a01b0316634635229b6040518163ffffffff1660e01b8152600401602060405180830381865afa158015610b9b573d6000803e3d6000fd5b505050506040513d601f19601f82011682018060405250810190610bbf9190615328565b80610bd257506001600160a01b03861633145b610c345760405162461bcd60e51b815260206004820152602d60248201527f4d757374206265206163636f756e743d3d5f6d736753656e6465722829206f7260448201526c204d6f64652054657374696e6760981b60648201526084016106e6565b6000858152600560205260408082208054915163657c7e0960e01b81526004810192909252919081907f00000000000000000000000000000000000000000000000000000000000000006001600160a01b03169063657c7e09906024016040805180830381865afa158015610cad573d6000803e3d6000fd5b505050506040513d601f19601f82011682018060405250810190610cd19190615439565b60405163023aa9ab60e61b8152600080516020615844833981519152600482015291935091507f00000000000000000000000000000000000000000000000000000000000000006001600160a01b031690638eaa6ac090602401602060405180830381865afa158015610d48573d6000803e3d6000fd5b505050506040513d601f19601f82011682018060405250810190610d6c919061534a565b604051634e68f20f60e11b8152600481018390526001600160a01b038b811660248301529190911690639cd1e41e90604401602060405180830381865afa158015610dbb573d6000803e3d6000fd5b505050506040513d601f19601f82011682018060405250810190610ddf919061545d565b670de0b6b3a7640000610df2888a6153da565b610dfc91906153b8565b1115610e4a5760405162461bcd60e51b815260206004820152601a60248201527f42616e6b3a204e6f7420656e6f75676820617661696c61626c6500000000000060448201526064016106e6565b6001830154604051635b7d0f6960e11b8152600160a81b90910460ff16600482015260009073__Order_________________________________9063b6fa1ed290602401602060405180830381865af4158015610eab573d6000803e3d6000fd5b505050506040513d601f19601f82011682018060405250810190610ecf9190615328565b15610ffa5760405163023aa9ab60e61b81527f3cb99135f7a7c088d9085b446345038a22a85f4e8fe072b0e1b66d97243e745860048201527f00000000000000000000000000000000000000000000000000000000000000006001600160a01b031690638eaa6ac090602401602060405180830381865afa158015610f58573d6000803e3d6000fd5b505050506040513d601f19601f82011682018060405250810190610f7c919061534a565b6040516332f3077960e11b815260048101859052602481018490526001600160a01b0391909116906365e60ef2906044016060604051808303816000875af1158015610fcc573d6000803e3d6000fd5b505050506040513d601f19601f82011682018060405250810190610ff09190615476565b50915061101b9050565b600384015461101890600160c01b90046001600160401b03166122ba565b90505b670de0b6b3a764000061102e87826154a4565b61103890896153da565b61104291906153b8565b81111580156110775750670de0b6b3a764000061105f87826154bb565b61106990896153da565b61107391906153b8565b8110155b6110c35760405162461bcd60e51b815260206004820152601c60248201527f51756f746520536c6970706564206f76657220746f6c6572616e63650000000060448201526064016106e6565b6000816110d0898b6153da565b6110da91906153b8565b600386015490915060009061110590610444906001600160401b03600160401b8204811691166154d3565b905081811015611113578091505b611120868d60008d6130e5565b6111298a610ab8565b60038701805460089061114d908490600160401b90046001600160401b03166154fb565b82546101009290920a6001600160401b038181021990931691831602179091556003880154600160801b81048216600160401b909104909116141590506111995761119986600361387f565b6001860154604080516001600160a01b039283168152918e166020830152810184905260608101839052849086907f49da6c773c11f8e65fd2ffb9512fa3f24dc8759fbcedb687f0b59694adc1d3439060800160405180910390a360036001870154600160a01b900460ff16600581111561121657611216614f3d565b116112245761122486613d71565b50979a9950505050505050505050565b600061073c65ffffffffffff831664174876e8006153da565b6000805460ff16806112665750600054610100900460ff165b905090565b60405163023aa9ab60e61b81527f2e7a327ef83c2af7579c6634f2f5604519800c5f07626f27bd602fd11ed8e6ec60048201526000907f00000000000000000000000000000000000000000000000000000000000000006001600160a01b031690638eaa6ac090602401602060405180830381865afa1580156112f2573d6000803e3d6000fd5b505050506040513d601f19601f82011682018060405250810190611316919061534a565b60408051306024820152604480820186905282518083039091018152606490910182526020810180516001600160e01b03166376f466ff60e11b17905290516001600160a01b03929092169161136c9190615367565b6000604051808303816000865af19150503d80600081146113a9576040519150601f19603f3d011682016040523d82523d6000602084013e6113ae565b606091505b50509050610707816106f1565b60006113ca3386868686610759565b95945050505050565b60006113dd61124d565b156113fa5760405162461bcd60e51b81526004016106e69061540f565b7f00000000000000000000000000000000000000000000000000000000000000006001600160a01b0316634635229b6040518163ffffffff1660e01b8152600401602060405180830381865afa158015611458573d6000803e3d6000fd5b505050506040513d601f19601f8201168201806040525081019061147c9190615328565b8061148f57506001600160a01b03881633145b6114ab5760405162461bcd60e51b81526004016106e690615526565b60405163c5537eb760e01b81526004810188905261080060248201527f00000000000000000000000000000000000000000000000000000000000000006001600160a01b03169063c5537eb790604401602060405180830381865afa158015611518573d6000803e3d6000fd5b505050506040513d601f19601f8201168201806040525081019061153c9190615328565b1561175957604051630c25e48360e11b8152600481018890526000907f00000000000000000000000000000000000000000000000000000000000000006001600160a01b03169063184bc90690602401602060405180830381865afa1580156115a9573d6000803e3d6000fd5b505050506040513d601f19601f820116820180604052508101906115cd919061534a565b9050806001600160a01b031663f5ac9db66040518163ffffffff1660e01b8152600401602060405180830381865afa15801561160d573d6000803e3d6000fd5b505050506040513d601f19601f820116820180604052508101906116319190615328565b6116725760405162461bcd60e51b815260206004820152601260248201527146726f6d206e6f7420747261646561626c6560701b60448201526064016106e6565b806001600160a01b0316630e4994276040518163ffffffff1660e01b8152600401602060405180830381865afa1580156116b0573d6000803e3d6000fd5b505050506040513d601f19601f820116820180604052508101906116d49190615328565b801561170057507fad3228b676f7d3cd4284a5443f17f1962b36e491b30a40b2405849e597ba5fb58714155b6117575760405162461bcd60e51b815260206004820152602260248201527f46726f6d206973206f6e6c7920747261646561626c6520746f2043757272656e604482015261637960f01b60648201526084016106e6565b505b60405163d47a7edd60e01b8152600481018890527f00000000000000000000000000000000000000000000000000000000000000006001600160a01b03169063d47a7edd90602401602060405180830381865afa1580156117be573d6000803e3d6000fd5b505050506040513d601f19601f820116820180604052508101906117e29190615328565b15806117f5575083670de0b6b3a7640000145b806117ff57508385145b61185f5760405162461bcd60e51b815260206004820152602b60248201527f2746726f6d27206973204e46542071747920616e64206772616e756c6172697460448201526a79206d757374206265203160a81b60648201526084016106e6565b60405163023aa9ab60e61b815260008051602061584483398151915260048201527f00000000000000000000000000000000000000000000000000000000000000006001600160a01b031690638eaa6ac090602401602060405180830381865afa1580156118d1573d6000803e3d6000fd5b505050506040513d601f19601f820116820180604052508101906118f5919061534a565b604051634e68f20f60e11b8152600481018990526001600160a01b038a811660248301529190911690639cd1e41e90604401602060405180830381865afa158015611944573d6000803e3d6000fd5b505050506040513d601f19601f82011682018060405250810190611968919061545d565b8411156119b75760405162461bcd60e51b815260206004820152601a60248201527f42616e6b3a204e6f7420656e6f75676820617661696c61626c6500000000000060448201526064016106e6565b6040805161018081018252600080825260208201819052918101829052606081018290526080810182905260a0810182905260c0810182905260e081018290526101008101829052610120810182905261014081018290526101608101919091526001600160a01b0389811660208301526040516361e99ffb60e01b8152600481018a9052602481018990527f0000000000000000000000000000000000000000000000000000000000000000909116906361e99ffb906044016020604051808303816000875af1158015611a90573d6000803e3d6000fd5b505050506040513d601f19601f82011682018060405250810190611ab4919061545d565b8152611abf86610ab8565b6001600160401b0316610120820152611ad785610ab8565b6001600160401b031660a0820152611aee84610ab8565b6001600160401b03166101008201526060810151604051635b7d0f6960e11b815260ff909116600482015273__Order_________________________________9063b6fa1ed290602401602060405180830381865af4158015611b55573d6000803e3d6000fd5b505050506040513d601f19601f82011682018060405250810190611b799190615328565b15611cfe5760405163023aa9ab60e61b81527f3cb99135f7a7c088d9085b446345038a22a85f4e8fe072b0e1b66d97243e745860048201526000907f00000000000000000000000000000000000000000000000000000000000000006001600160a01b031690638eaa6ac090602401602060405180830381865afa158015611c05573d6000803e3d6000fd5b505050506040513d601f19601f82011682018060405250810190611c29919061534a565b6040516332f3077960e11b8152600481018b9052602481018a90526001600160a01b0391909116906365e60ef2906044016060604051808303816000875af1158015611c79573d6000803e3d6000fd5b505050506040513d601f19601f82011682018060405250810190611c9d9190615476565b509150611cab905081610ab8565b6001600160401b03166101608301819052611cfc5760405162461bcd60e51b8152602060048201526011602482015270145d5bdd194e88139bdd081c5d5bdd1959607a1b60448201526064016106e6565b505b606081015160405163f0340a3760e01b815260ff909116600482015273__Order_________________________________9063f0340a3790602401602060405180830381865af4158015611d56573d6000803e3d6000fd5b505050506040513d601f19601f82011682018060405250810190611d7a9190615328565b15611e7d5760405163023aa9ab60e61b815260008051602061584483398151915260048201527f00000000000000000000000000000000000000000000000000000000000000006001600160a01b031690638eaa6ac090602401602060405180830381865afa158015611df1573d6000803e3d6000fd5b505050506040513d601f19601f82011682018060405250810190611e15919061534a565b6001600160a01b03166356a1fd3a88836020015130896040518563ffffffff1660e01b8152600401611e4a9493929190615571565b600060405180830381600087803b158015611e6457600080fd5b505af1158015611e78573d6000803e3d6000fd5b505050505b6003805460010190555b600354158015611eaa575060035460009081526005602052604090206002015415155b15611ebd57600380546001019055611e87565b6003546080820181905260a08201516001600160401b0390811660e08401526004604080850191825260ff871660608601526101008501519092166101408501526000928352600560208181529290932084518155918401516001830180546001600160a01b039092166001600160a01b031983168117825592518695909391926001600160a81b03191690911790600160a01b908490811115611f6357611f63614f3d565b0217905550606082015160018201805460ff60a81b1916600160a81b60ff90931692909202919091179055608080830151600283015560a083015160038301805460c086015160e08701516101008801516001600160401b039586166fffffffffffffffffffffffffffffffff1994851617600160401b9387168402176fffffffffffffffffffffffffffffffff16600160801b92871683026001600160c01b031617600160c01b9187169190910217909355610120870151600496870180546101408a0151610160909a015167ffffffffffffffff60801b199388169190951617988616909202979097179690961692160217909255908201516040516304132f1d60e31b815280830192909252602482015273__Array_________________________________9063209978e890604401602060405180830381865af41580156120b3573d6000803e3d6000fd5b505050506040513d601f19601f820116820180604052508101906120d79190615328565b50805160009081526006602052604090819020608083015191516304132f1d60e31b815273__Array_________________________________9263209978e89261212f92909190600401918252602082015260400190565b602060405180830381865af415801561214c573d6000803e3d6000fd5b505050506040513d601f19601f820116820180604052508101906121709190615328565b5060008881526007602052604090819020608083015191516304132f1d60e31b815273__Array_________________________________9263209978e8926121c692909190600401918252602082015260400190565b602060405180830381865af41580156121e3573d6000803e3d6000fd5b505050506040513d601f19601f820116820180604052508101906122079190615328565b5060008781526008602052604090819020608083015191516304132f1d60e31b815273__Array_________________________________9263209978e89261225d92909190600401918252602082015260400190565b602060405180830381865af415801561227a573d6000803e3d6000fd5b505050506040513d601f19601f8201168201806040525081019061229e9190615328565b5080516122aa90613e1c565b5050600354979650505050505050565b600061073c6001600160401b0383166402540be4006153da565b60405163023aa9ab60e61b81527f2e7a327ef83c2af7579c6634f2f5604519800c5f07626f27bd602fd11ed8e6ec600482015260009081906001600160a01b037f00000000000000000000000000000000000000000000000000000000000000001690638eaa6ac090602401602060405180830381865afa15801561235d573d6000803e3d6000fd5b505050506040513d601f19601f82011682018060405250810190612381919061534a565b604080513060248201526001600160a01b038c81166044830152606482018c9052608482018b905260a482018a905260c4820189905260e4820188905260ff8716610104808401919091528351808403909101815261012490920183526020820180516001600160e01b0316635330878160e11b179052915192909116916124099190615367565b6000604051808303816000865af19150503d8060008114612446576040519150601f19603f3d011682016040523d82523d6000602084013e61244b565b606091505b50509050612458816106f1565b50979650505050505050565b60405163509ff69b60e01b81526001600160a01b0387811660048301526000602483018190529161259f918a917f00000000000000000000000000000000000000000000000000000000000000009091169063509ff69b906044016020604051808303816000875af11580156124de573d6000803e3d6000fd5b505050506040513d601f19601f82011682018060405250810190612502919061545d565b60405163509ff69b60e01b81526001600160a01b038a81166004830152600060248301527f0000000000000000000000000000000000000000000000000000000000000000169063509ff69b906044015b6020604051808303816000875af1158015612572573d6000803e3d6000fd5b505050506040513d601f19601f82011682018060405250810190612596919061545d565b888888886122d4565b98975050505050505050565b60405163509ff69b60e01b81526001600160a01b0389811660048301526024820189905260009161269f918c917f00000000000000000000000000000000000000000000000000000000000000009091169063509ff69b906044015b6020604051808303816000875af1158015612626573d6000803e3d6000fd5b505050506040513d601f19601f8201168201806040525081019061264a919061545d565b60405163509ff69b60e01b81526001600160a01b038b81166004830152602482018b90527f0000000000000000000000000000000000000000000000000000000000000000169063509ff69b90604401612553565b9a9950505050505050505050565b6126b5613029565b6106ef6000805461ff001916610100179055565b60006127243360405163509ff69b60e01b81526001600160a01b038c81166004830152602482018c90527f0000000000000000000000000000000000000000000000000000000000000000169063509ff69b90604401612607565b9998505050505050505050565b600061073c63ffffffff831664e8d4a510006153da565b61275061124d565b1561276d5760405162461bcd60e51b81526004016106e69061540f565b60006005600083815260200190815260200160002090507f00000000000000000000000000000000000000000000000000000000000000006001600160a01b0316634635229b6040518163ffffffff1660e01b8152600401602060405180830381865afa1580156127e2573d6000803e3d6000fd5b505050506040513d601f19601f820116820180604052508101906128069190615328565b8061281d575060018101546001600160a01b031633145b6128395760405162461bcd60e51b81526004016106e690615526565b61284481600161387f565b61070781613d71565b612855613029565b6001600160a01b0381166128ba5760405162461bcd60e51b815260206004820152602660248201527f4f776e61626c653a206e6577206f776e657220697320746865207a65726f206160448201526564647265737360d01b60648201526084016106e6565b6128c38161308a565b50565b600061073c64174876e800836153b8565b6128df614dc6565b60008381526005602081815260408084208151610180810183528154815260018201546001600160a01b0381169482019490945293909291840191600160a01b900460ff169081111561293457612934614f3d565b600581111561294557612945614f3d565b81526001820154600160a81b900460ff166020820152600282015460408083019190915260038301546001600160401b038082166060850152600160401b80830482166080860152600160801b808404831660a0870152600160c01b909304821660c086015260049586015480831660e087015290810482166101008601529190910416610120909201919091528251905163657c7e0960e01b8152918201529091507f00000000000000000000000000000000000000000000000000000000000000006001600160a01b03169063657c7e09906024016040805180830381865afa158015612a38573d6000803e3d6000fd5b505050506040513d601f19601f82011682018060405250810190612a5c9190615439565b60408401526020830152608081015160608301528280612af5575060608101516040516336181b6760e11b815260ff909116600482015273__Order_________________________________90636c3036ce90602401602060405180830381865af4158015612acf573d6000803e3d6000fd5b505050506040513d601f19601f82011682018060405250810190612af39190615328565b155b15612f665760208101516001600160a01b0316825260a0810151612b18906122ba565b60808301526060810151604051632b2076e360e11b815260ff909116600482015273__Order_________________________________90635640edc690602401602060405180830381865af4158015612b75573d6000803e3d6000fd5b505050506040513d601f19601f82011682018060405250810190612b999190615328565b15612bad57608082015160a0830152612ce7565b6101208101516001600160401b031615612bd957612bcf8161012001516122ba565b60a0830152612ce7565b60405163023aa9ab60e61b815260008051602061584483398151915260048201527f00000000000000000000000000000000000000000000000000000000000000006001600160a01b031690638eaa6ac090602401602060405180830381865afa158015612c4b573d6000803e3d6000fd5b505050506040513d601f19601f82011682018060405250810190612c6f919061534a565b6001600160a01b031663a9bf985883602001516040518263ffffffff1660e01b8152600401612ca091815260200190565b602060405180830381865afa158015612cbd573d6000803e3d6000fd5b505050506040513d601f19601f82011682018060405250810190612ce1919061545d565b60a08301525b612cf48160c001516122ba565b60c083015260e0810151612d07906122ba565b60e08301526060810151604051635b7d0f6960e11b815260ff909116600482015273__Order_________________________________9063b6fa1ed290602401602060405180830381865af4158015612d64573d6000803e3d6000fd5b505050506040513d601f19601f82011682018060405250810190612d889190615328565b15612f5157612d9b8161014001516122ba565b610120830152610160810151612db0906122ba565b61014083015260405163023aa9ab60e61b81527f3cb99135f7a7c088d9085b446345038a22a85f4e8fe072b0e1b66d97243e745860048201526000907f00000000000000000000000000000000000000000000000000000000000000006001600160a01b031690638eaa6ac090602401602060405180830381865afa158015612e3d573d6000803e3d6000fd5b505050506040513d601f19601f82011682018060405250810190612e61919061534a565b6001600160a01b0316636464b68a846020015185604001516040518363ffffffff1660e01b8152600401612e9f929190918252602082015260400190565b606060405180830381865afa158015612ebc573d6000803e3d6000fd5b505050506040513d601f19601f82011682018060405250810190612ee09190615476565b5091505080612f255760405162461bcd60e51b8152602060048201526011602482015270145d5bdd194e88139bdd081c5d5bdd1959607a1b60448201526064016106e6565b610140830151612f3590826153b8565b836101200151612f4591906153da565b61010084015250612f66565b612f5f8161010001516122ba565b6101008301525b604051630212d6cb60e21b815273__Order_________________________________9063084b5b2c90612f9d908490600401615596565b602060405180830381865af4158015612fba573d6000803e3d6000fd5b505050506040513d601f19601f82011682018060405250810190612fde919061545d565b6101608301526040810151610180830190600581111561300057613000614f3d565b9081600581111561301357613013614f3d565b9052506060015160ff166101a082015292915050565b6000546001600160a01b03620100009091041633146106ef5760405162461bcd60e51b815260206004820152601f60248201527f416c6c6f77616e63653a2063616c6c6572206d757374206265204f776e65720060448201526064016106e6565b600080546001600160a01b038381166201000081810262010000600160b01b0319851617855560405193049190911692909183917f8be0079c531659141344cd1fd0a4f28419497f9722a3daafe3b4186f6b6457e091a35050565b60008080600080670de0b6b3a76400006131158a60030160189054906101000a90046001600160401b03166122ba565b61311f90886153da565b61312991906153b8565b895460405163657c7e0960e01b815291925060009182916001600160a01b037f0000000000000000000000000000000000000000000000000000000000000000169163657c7e09916131819160040190815260200190565b6040805180830381865afa15801561319d573d6000803e3d6000fd5b505050506040513d601f19601f820116820180604052508101906131c19190615439565b60018d015460405163f0340a3760e01b8152600160a81b90910460ff166004820152919350915073__Order_________________________________9063f0340a3790602401602060405180830381865af4158015613224573d6000803e3d6000fd5b505050506040513d601f19601f820116820180604052508101906132489190615328565b156133505760405163023aa9ab60e61b815260008051602061584483398151915260048201527f00000000000000000000000000000000000000000000000000000000000000006001600160a01b031690638eaa6ac090602401602060405180830381865afa1580156132bf573d6000803e3d6000fd5b505050506040513d601f19601f820116820180604052508101906132e3919061534a565b60018c015460405163255318af60e21b81526001600160a01b039283169263954c62bc9261331d9287929091169030908e90600401615571565b600060405180830381600087803b15801561333757600080fd5b505af115801561334b573d6000803e3d6000fd5b505050505b88156134505760405163023aa9ab60e61b815260008051602061584483398151915260048201527f00000000000000000000000000000000000000000000000000000000000000006001600160a01b031690638eaa6ac090602401602060405180830381865afa1580156133c8573d6000803e3d6000fd5b505050506040513d601f19601f820116820180604052508101906133ec919061534a565b6001600160a01b031663954c62bc828c30876040518563ffffffff1660e01b815260040161341d9493929190615571565b600060405180830381600087803b15801561343757600080fd5b505af115801561344b573d6000803e3d6000fd5b505050505b85156135595760405163023aa9ab60e61b815260008051602061584483398151915260048201527f00000000000000000000000000000000000000000000000000000000000000006001600160a01b031690638eaa6ac090602401602060405180830381865afa1580156134c8573d6000803e3d6000fd5b505050506040513d601f19601f820116820180604052508101906134ec919061534a565b60018c0154604051631c9619a760e01b81526001600160a01b0392831692631c9619a792613526928792909116908c908c90600401615571565b600060405180830381600087803b15801561354057600080fd5b505af1158015613554573d6000803e3d6000fd5b505050505b83156136595760405163023aa9ab60e61b815260008051602061584483398151915260048201527f00000000000000000000000000000000000000000000000000000000000000006001600160a01b031690638eaa6ac090602401602060405180830381865afa1580156135d1573d6000803e3d6000fd5b505050506040513d601f19601f820116820180604052508101906135f5919061534a565b6001600160a01b0316631c9619a7828c88886040518563ffffffff1660e01b81526004016136269493929190615571565b600060405180830381600087803b15801561364057600080fd5b505af1158015613654573d6000803e3d6000fd5b505050505b60405163023aa9ab60e61b815260008051602061584483398151915260048201527f00000000000000000000000000000000000000000000000000000000000000006001600160a01b031690638eaa6ac090602401602060405180830381865afa1580156136cb573d6000803e3d6000fd5b505050506040513d601f19601f820116820180604052508101906136ef919061534a565b60018c01546001600160a01b0391821691631c9619a7918591168d6137148b8e6154a4565b6040518563ffffffff1660e01b81526004016137339493929190615571565b600060405180830381600087803b15801561374d57600080fd5b505af1158015613761573d6000803e3d6000fd5b505060405163023aa9ab60e61b815260008051602061584483398151915260048201527f00000000000000000000000000000000000000000000000000000000000000006001600160a01b03169250638eaa6ac09150602401602060405180830381865afa1580156137d7573d6000803e3d6000fd5b505050506040513d601f19601f820116820180604052508101906137fb919061534a565b60018c01546001600160a01b0391821691631c9619a79184918e911661382189896154a4565b6040518563ffffffff1660e01b81526004016138409493929190615571565b600060405180830381600087803b15801561385a57600080fd5b505af115801561386e573d6000803e3d6000fd5b505050505050505050505050505050565b600081600581111561389357613893614f3d565b1180156138b2575060038160058111156138af576138af614f3d565b11155b80156138de575060046001830154600160a01b900460ff1660058111156138db576138db614f3d565b10155b61392a5760405162461bcd60e51b815260206004820152601d60248201527f5f6f726465725465726d696e6174652073746174652070726f626c656d00000060448201526064016106e6565b815460405163657c7e0960e01b8152600481019190915260009081907f00000000000000000000000000000000000000000000000000000000000000006001600160a01b03169063657c7e09906024016040805180830381865afa158015613996573d6000803e3d6000fd5b505050506040513d601f19601f820116820180604052508101906139ba9190615439565b600186018054929450909250849160ff60a01b1916600160a01b8360058111156139e6576139e6614f3d565b0217905550600184015460405163f0340a3760e01b8152600160a81b90910460ff16600482015273__Order_________________________________9063f0340a3790602401602060405180830381865af4158015613a49573d6000803e3d6000fd5b505050506040513d601f19601f82011682018060405250810190613a6d9190615328565b15613ba45760405163023aa9ab60e61b815260008051602061584483398151915260048201527f00000000000000000000000000000000000000000000000000000000000000006001600160a01b031690638eaa6ac090602401602060405180830381865afa158015613ae4573d6000803e3d6000fd5b505050506040513d601f19601f82011682018060405250810190613b08919061534a565b600185015460038601546001600160a01b039283169263954c62bc9285929116903090613b5290610444906001600160401b03600160401b8204811691600160801b9004166154d3565b6040518563ffffffff1660e01b8152600401613b719493929190615571565b600060405180830381600087803b158015613b8b57600080fd5b505af1158015613b9f573d6000803e3d6000fd5b505050505b83546000908152600660205260409081902060028601549151630cef945b60e31b815273__Array_________________________________9263677ca2d892613bfb92909190600401918252602082015260400190565b602060405180830381865af4158015613c18573d6000803e3d6000fd5b505050506040513d601f19601f82011682018060405250810190613c3c9190615328565b506000828152600760205260409081902060028601549151630cef945b60e31b815273__Array_________________________________9263677ca2d892613c9292909190600401918252602082015260400190565b602060405180830381865af4158015613caf573d6000803e3d6000fd5b505050506040513d601f19601f82011682018060405250810190613cd39190615328565b506000818152600860205260409081902060028601549151630cef945b60e31b815273__Array_________________________________9263677ca2d892613d2992909190600401918252602082015260400190565b602060405180830381865af4158015613d46573d6000803e3d6000fd5b505050506040513d601f19601f82011682018060405250810190613d6a9190615328565b5050505050565b6002810154604051630cef945b60e31b8152600480820152602481019190915273__Array_________________________________9063677ca2d890604401602060405180830381865af4158015613dcd573d6000803e3d6000fd5b505050506040513d601f19601f82011682018060405250810190613df19190615328565b5043600090815260096020908152604082206002909301548354600181018555938352912090910155565b604051630e29a66960e21b8152600481018290526001600160a01b037f000000000000000000000000000000000000000000000000000000000000000016906338a699a490602401602060405180830381865afa158015613e81573d6000803e3d6000fd5b505050506040513d601f19601f82011682018060405250810190613ea59190615328565b613eac5750565b60405163657c7e0960e01b81526004810182905260009081906001600160a01b037f0000000000000000000000000000000000000000000000000000000000000000169063657c7e09906024016040805180830381865afa158015613f15573d6000803e3d6000fd5b505050506040513d601f19601f82011682018060405250810190613f399190615439565b91509150613f4782846108d2565b15613f5157505050565b6000818152600160209081526040808320805482518185028101850190935280835260609493830182828015613fa657602002820191906000526020600020905b815481526020019060010190808311613f92575b5050505050905080516001600160401b03811115613fc657613fc6615685565b604051908082528060200260200182016040528015613ff957816020015b6060815260200190600190039081613fe45790505b5091506000805b82518110156141755760007f00000000000000000000000000000000000000000000000000000000000000006001600160a01b03166327ee9dc285848151811061404c5761404c61569b565b60200260200101516040518263ffffffff1660e01b815260040161407291815260200190565b600060405180830381865afa15801561408f573d6000803e3d6000fd5b505050506040513d6000823e601f3d908101601f191682016040526140b791908101906156b1565b604051639d84366d60e01b815290915073__Array_________________________________90639d84366d906140f39084908b9060040161579d565b602060405180830381865af4158015614110573d6000803e3d6000fd5b505050506040513d601f19601f820116820180604052508101906141349190615328565b61416257808584614144816157bf565b9550815181106141565761415661569b565b60200260200101819052505b508061416d816157bf565b915050614000565b5082525060008381526002602090815260408083208054825181850281018501909352808352606094938301828280156141ce57602002820191906000526020600020905b8154815260200190600101908083116141ba575b5050505050905080516001600160401b038111156141ee576141ee615685565b60405190808252806020026020018201604052801561422157816020015b606081526020019060019003908161420c5790505b5091506000805b825181101561439d5760007f00000000000000000000000000000000000000000000000000000000000000006001600160a01b03166327ee9dc28584815181106142745761427461569b565b60200260200101516040518263ffffffff1660e01b815260040161429a91815260200190565b600060405180830381865afa1580156142b7573d6000803e3d6000fd5b505050506040513d6000823e601f3d908101601f191682016040526142df91908101906156b1565b604051639d84366d60e01b815290915073__Array_________________________________90639d84366d9061431b9084908b9060040161579d565b602060405180830381865af4158015614338573d6000803e3d6000fd5b505050506040513d601f19601f8201168201806040525081019061435c9190615328565b61438a5780858461436c816157bf565b95508151811061437e5761437e61569b565b60200260200101819052505b5080614395816157bf565b915050614228565b508252506000848152600160205260409081902090516316061a7160e21b815260048101919091526024810186905273__Array_________________________________9063581869c490604401602060405180830381865af4158015614408573d6000803e3d6000fd5b505050506040513d601f19601f8201168201806040525081019061442c9190615328565b506000838152600260205260409081902090516316061a7160e21b815260048101919091526024810186905273__Array_________________________________9063581869c490604401602060405180830381865af4158015614494573d6000803e3d6000fd5b505050506040513d601f19601f820116820180604052508101906144b89190615328565b5060005b81518110156147485760008282815181106144d9576144d961569b565b602002602001015173__Array_________________________________639b861f039091876040518363ffffffff1660e01b815260040161451b92919061579d565b600060405180830381865af4158015614538573d6000803e3d6000fd5b505050506040513d6000823e601f3d908101601f1916820160405261456091908101906156b1565b905060007f00000000000000000000000000000000000000000000000000000000000000006001600160a01b031663b3054383836040518263ffffffff1660e01b81526004016145b091906157da565b6020604051808303816000875af11580156145cf573d6000803e3d6000fd5b505050506040513d601f19601f820116820180604052508101906145f3919061545d565b9050600160008360008151811061460c5761460c61569b565b6020026020010151815260200190815260200160002073__Array_________________________________63581869c49091836040518363ffffffff1660e01b8152600401614665929190918252602082015260400190565b602060405180830381865af4158015614682573d6000803e3d6000fd5b505050506040513d601f19601f820116820180604052508101906146a69190615328565b506000868152600260205260409081902090516316061a7160e21b815260048101919091526024810182905273__Array_________________________________9063581869c490604401602060405180830381865af415801561470e573d6000803e3d6000fd5b505050506040513d601f19601f820116820180604052508101906147329190615328565b5050508080614740906157bf565b9150506144bc565b5060005b82518110156149ea5760008382815181106147695761476961569b565b602002602001015173__Array_________________________________633b06e74f9091886040518363ffffffff1660e01b81526004016147ab92919061579d565b600060405180830381865af41580156147c8573d6000803e3d6000fd5b505050506040513d6000823e601f3d908101601f191682016040526147f091908101906156b1565b905060007f00000000000000000000000000000000000000000000000000000000000000006001600160a01b031663b3054383836040518263ffffffff1660e01b815260040161484091906157da565b6020604051808303816000875af115801561485f573d6000803e3d6000fd5b505050506040513d601f19601f82011682018060405250810190614883919061545d565b6000888152600160205260409081902090516316061a7160e21b815291925073__Array_________________________________9163581869c4916148d5918590600401918252602082015260400190565b602060405180830381865af41580156148f2573d6000803e3d6000fd5b505050506040513d601f19601f820116820180604052508101906149169190615328565b5060026000836001855161492a91906154a4565b8151811061493a5761493a61569b565b6020026020010151815260200190815260200160002073__Array_________________________________63581869c49091836040518363ffffffff1660e01b8152600401614993929190918252602082015260400190565b602060405180830381865af41580156149b0573d6000803e3d6000fd5b505050506040513d601f19601f820116820180604052508101906149d49190615328565b50505080806149e2906157bf565b91505061474c565b5060005b8151811015614dbe5760005b8351811015614dab576000848281518110614a1757614a1761569b565b602002602001015190506000848381518110614a3557614a3561569b565b6020026020010151905060005b8251811015614afc578173__Array_________________________________639d84366d9091858481518110614a7a57614a7a61569b565b60200260200101516040518363ffffffff1660e01b8152600401614a9f92919061579d565b602060405180830381865af4158015614abc573d6000803e3d6000fd5b505050506040513d601f19601f82011682018060405250810190614ae09190615328565b15614aea57614afc565b80614af4816157bf565b915050614a42565b8251811015614b0d57505050614d99565b6040516302704ae960e31b815260009073__Array_________________________________90631382574890614b49908790879060040161581e565b600060405180830381865af4158015614b66573d6000803e3d6000fd5b505050506040513d6000823e601f3d908101601f19168201604052614b8e91908101906156b1565b905060007f00000000000000000000000000000000000000000000000000000000000000006001600160a01b031663b3054383836040518263ffffffff1660e01b8152600401614bde91906157da565b6020604051808303816000875af1158015614bfd573d6000803e3d6000fd5b505050506040513d601f19601f82011682018060405250810190614c21919061545d565b90506001600083600081518110614c3a57614c3a61569b565b6020026020010151815260200190815260200160002073__Array_________________________________63581869c49091836040518363ffffffff1660e01b8152600401614c93929190918252602082015260400190565b602060405180830381865af4158015614cb0573d6000803e3d6000fd5b505050506040513d601f19601f82011682018060405250810190614cd49190615328565b50600260008360018551614ce891906154a4565b81518110614cf857614cf861569b565b6020026020010151815260200190815260200160002073__Array_________________________________63581869c49091836040518363ffffffff1660e01b8152600401614d51929190918252602082015260400190565b602060405180830381865af4158015614d6e573d6000803e3d6000fd5b505050506040513d601f19601f82011682018060405250810190614d929190615328565b5050505050505b80614da3816157bf565b9150506149fa565b5080614db6816157bf565b9150506149ee565b505050505050565b604051806101c0016040528060006001600160a01b03168152602001600080191681526020016000801916815260200160008152602001600081526020016000815260200160008152602001600081526020016000815260200160008152602001600081526020016000815260200160006005811115614e4857614e48614f3d565b8152600060209091015290565b60008085851115614e6557600080fd5b83861115614e7257600080fd5b5050820193919092039150565b600060208284031215614e9157600080fd5b81356001600160e01b03198116811461095c57600080fd5b6001600160a01b03811681146128c357600080fd5b600080600080600060a08688031215614ed657600080fd5b8535614ee181614ea9565b97602087013597506040870135966060810135965060800135945092505050565b60008060408385031215614f1557600080fd5b50508035926020909101359150565b600060208284031215614f3657600080fd5b5035919050565b634e487b7160e01b600052602160045260246000fd5b60068110614f7157634e487b7160e01b600052602160045260246000fd5b9052565b81516001600160a01b031681526101c081016020830151602083015260408301516040830152606083015160608301526080830151608083015260a083015160a083015260c083015160c083015260e083015160e08301526101008084015181840152506101208084015181840152506101408084015181840152506101608084015181840152506101808084015161501082850182614f53565b50506101a08381015160ff8116848301525b505092915050565b803560ff8116811461503b57600080fd5b919050565b60008060008060008060c0878903121561505957600080fd5b863595506020870135945060408701359350606087013592506080870135915061508560a0880161502a565b90509295509295509295565b6000602082840312156150a357600080fd5b813565ffffffffffff8116811461095c57600080fd5b600080600080608085870312156150cf57600080fd5b5050823594602084013594506040840135936060013592509050565b600080600080600080600060e0888a03121561510657600080fd5b873561511181614ea9565b96506020880135955060408801359450606088013593506080880135925060a0880135915061514260c0890161502a565b905092959891949750929550565b60006020828403121561516257600080fd5b81356001600160401b038116811461095c57600080fd5b600080600080600080600060e0888a03121561519457600080fd5b873561519f81614ea9565b965060208801356151af81614ea9565b955060408801356151bf81614ea9565b9450606088013593506080880135925060a0880135915061514260c0890161502a565b60008060008060008060008060006101208a8c03121561520157600080fd5b893561520c81614ea9565b985060208a013561521c81614ea9565b975060408a0135965060608a013561523381614ea9565b955060808a0135945060a08a0135935060c08a0135925060e08a0135915061525e6101008b0161502a565b90509295985092959850929598565b600080600080600080600080610100898b03121561528a57600080fd5b883561529581614ea9565b97506020890135965060408901356152ac81614ea9565b9550606089013594506080890135935060a0890135925060c089013591506152d660e08a0161502a565b90509295985092959890939650565b6000602082840312156152f757600080fd5b813563ffffffff8116811461095c57600080fd5b60006020828403121561531d57600080fd5b813561095c81614ea9565b60006020828403121561533a57600080fd5b8151801515811461095c57600080fd5b60006020828403121561535c57600080fd5b815161095c81614ea9565b6000825160005b81811015615388576020818601810151858301520161536e565b81811115615397576000828501525b509190910192915050565b634e487b7160e01b600052601160045260246000fd5b6000826153d557634e487b7160e01b600052601260045260246000fd5b500490565b60008160001904831182151516156153f4576153f46153a2565b500290565b634e487b7160e01b600052600160045260246000fd5b60208082526010908201526f10dbdb9d1c9858dd081cdd1bdc1c195960821b604082015260600190565b6000806040838503121561544c57600080fd5b505080516020909101519092909150565b60006020828403121561546f57600080fd5b5051919050565b60008060006060848603121561548b57600080fd5b8351925060208401519150604084015190509250925092565b6000828210156154b6576154b66153a2565b500390565b600082198211156154ce576154ce6153a2565b500190565b60006001600160401b03838116908316818110156154f3576154f36153a2565b039392505050565b60006001600160401b0380831681851680830382111561551d5761551d6153a2565b01949350505050565b6020808252602b908201527f4d757374206265206163636f756e743d3d5f6d736753656e646572206f72204d60408201526a6f64652054657374696e6760a81b606082015260800190565b9384526001600160a01b03928316602085015291166040830152606082015260800190565b815181526020808301516101808301916155ba908401826001600160a01b03169052565b5060408301516155cd6040840182614f53565b5060608301516155e2606084018260ff169052565b506080830151608083015260a083015161560760a08401826001600160401b03169052565b5060c083015161562260c08401826001600160401b03169052565b5060e083015161563d60e08401826001600160401b03169052565b50610100838101516001600160401b03908116918401919091526101208085015182169084015261014080850151821690840152610160808501519182168185015290615022565b634e487b7160e01b600052604160045260246000fd5b634e487b7160e01b600052603260045260246000fd5b600060208083850312156156c457600080fd5b82516001600160401b03808211156156db57600080fd5b818501915085601f8301126156ef57600080fd5b81518181111561570157615701615685565b8060051b604051601f19603f8301168101818110858211171561572657615726615685565b60405291825284820192508381018501918883111561574457600080fd5b938501935b8285101561259f57845184529385019392850192615749565b600081518084526020808501945080840160005b8381101561579257815187529582019590820190600101615776565b509495945050505050565b6040815260006157b06040830185615762565b90508260208301529392505050565b60006000198214156157d3576157d36153a2565b5060010190565b6020808252825182820181905260009190848201906040850190845b81811015615812578351835292840192918401916001016157f6565b50909695505050505050565b6040815260006158316040830185615762565b82810360208401526113ca818561576256fecd775f2396f9f13f12bcf8ca32e21df66559a8adc3944d0591127e7731f7ab85a2646970667358221220ad58ef8ae7aad474e53b164082893b548351be90d5e44d3aa15c36e8f761047c64736f6c634300080b0033","bytecodeSha1":"f61dfa54448da3ec6b767485f046dca5c6ed94bb","compiler":{"evm_version":"istanbul","optimizer":{"enabled":true,"runs":200},"version":"0.8.11+commit.d7f03943"},"contractName":"MarketOrder","deployedBytecode":"608060405234801561001057600080fd5b50600436106101e55760003560e01c8063979620761161010f578063c34fa842116100a2578063e4b1614411610071578063e4b16144146104c4578063ede8cdfe146104d7578063f2fde38b146104ea578063feab4454146104fd576101e5565b8063c34fa8421461046f578063ccc0795914610482578063d6935858146104a9578063e2d7e08e146104b1576101e5565b8063af640d0f116100de578063af640d0f14610410578063b03fd40d14610436578063b23a43fc14610449578063b791f8a01461045c576101e5565b806397962076146103c75780639bc896f9146103d7578063a5ef794a146103ea578063a6610f02146103fd576101e5565b80635f5c5baa116101875780637a70482c116101565780637a70482c1461036e5780637af6649a14610381578063854ba99d146103945780638da5cb5b1461039c576101e5565b80635f5c5baa1461032b5780636296514114610333578063715018a61461035e57806372ea61bf14610366576101e5565b80631ef4590d116101c35780631ef4590d146102bd57806321603f43146102d05780632203616d146102f05780635c42b71014610318576101e5565b806301ffc9a71461026a57806305d6bd9c146102925780630af077bf1461029c575b6101ed610527565b60006101fd602460043684614e55565b8080601f016020809104026020016040519081016040528093929190818152602001838380828437600092018290525060208501519495509250503660231981019150601f19016004838037816024600437600080826000875af492505050610265816106f1565b505050005b61027d610278366004614e7f565b61070b565b60405190151581526020015b60405180910390f35b61029a610742565b005b6102af6102aa366004614ebe565b610759565b604051908152602001610289565b61027d6102cb366004614f02565b6108d2565b6102e36102de366004614f24565b610963565b6040516102899190614f75565b6103036102fe366004614f24565b610976565b60405163ffffffff9091168152602001610289565b6102af610326366004615040565b610987565b61029a6109a3565b610346610341366004614f24565b610ab8565b6040516001600160401b039091168152602001610289565b61029a610aea565b61029a610afc565b6102af61037c366004614ebe565b610b16565b6102af61038f366004615091565b611234565b61027d61124d565b6000546201000090046001600160a01b03165b6040516001600160a01b039091168152602001610289565b600054610100900460ff1661027d565b61029a6103e5366004614f24565b61126b565b6102af6103f83660046150b9565b6113bb565b6102af61040b3660046150eb565b6113d3565b7fc79a5c5e1c7f6fab1e75ab0e20e9522aa9eb363a0c70072c6dcb8a20f4a46ae46102af565b6102af610444366004615150565b6122ba565b6102af6104573660046150eb565b6122d4565b6102af61046a366004615179565b612464565b6102af61047d3660046151e2565b6125ab565b6103af7f000000000000000000000000000000000000000000000000000000000000000081565b61029a6126ad565b6102af6104bf36600461526d565b6126c9565b6102af6104d23660046152e5565b612731565b61029a6104e5366004614f24565b612748565b61029a6104f836600461530b565b61284d565b61051061050b366004614f24565b6128c6565b60405165ffffffffffff9091168152602001610289565b6000546001600160a01b0362010000909104163314806105da57506001600160a01b037f0000000000000000000000000000000000000000000000000000000000000000166316279055336040516001600160e01b031960e084901b1681526001600160a01b039091166004820152602401602060405180830381865afa1580156105b6573d6000803e3d6000fd5b505050506040513d601f19601f820116820180604052508101906105da9190615328565b8061067857506001600160a01b037f000000000000000000000000000000000000000000000000000000000000000016636d70f7ae336040516001600160e01b031960e084901b1681526001600160a01b039091166004820152602401602060405180830381865afa158015610654573d6000803e3d6000fd5b505050506040513d601f19601f820116820180604052508101906106789190615328565b6106ef5760405162461bcd60e51b815260206004820152603960248201527f416c6c6f77616e63653a2063616c6c6572206d757374206265205265706f736960448201527f746f727920436f6e7472616374206f72204f70657261746f720000000000000060648201526084015b60405180910390fd5b565b3d6000803e808015610702573d6000f35b3d6000fd5b5050565b60006001600160e01b031982166301ffc9a760e01b148061073c57506001600160e01b031982166315d3789560e31b145b92915050565b61074a610527565b6106ef6000805460ff19169055565b60405163023aa9ab60e61b81527f2e7a327ef83c2af7579c6634f2f5604519800c5f07626f27bd602fd11ed8e6ec600482015260009081906001600160a01b037f00000000000000000000000000000000000000000000000000000000000000001690638eaa6ac090602401602060405180830381865afa1580156107e2573d6000803e3d6000fd5b505050506040513d601f19601f82011682018060405250810190610806919061534a565b604080513060248201526001600160a01b038a81166044830152606482018a90526084820189905260a4820188905260c48083018890528351808403909101815260e490920183526020820180516001600160e01b03166301de754d60e61b179052915192909116916108799190615367565b6000604051808303816000865af19150503d80600081146108b6576040519150601f19603f3d011682016040523d82523d6000602084013e6108bb565b606091505b505090506108c8816106f1565b5095945050505050565b6000828152600160205260408082209051632be5db2360e11b815260048101919091526024810183905273__$f71e59c5327218924d154e230469c101bd$__906357cbb64690604401602060405180830381865af4158015610938573d6000803e3d6000fd5b505050506040513d601f19601f8201168201806040525081019061095c9190615328565b9392505050565b61096b614dc6565b61073c8260006128d7565b600061073c64e8d4a51000836153b8565b6000610998338888888888886122d4565b979650505050505050565b6000546001600160a01b036201000090910416331480610a5657506001600160a01b037f000000000000000000000000000000000000000000000000000000000000000016636d70f7ae336040516001600160e01b031960e084901b1681526001600160a01b039091166004820152602401602060405180830381865afa158015610a32573d6000803e3d6000fd5b505050506040513d601f19601f82011682018060405250810190610a569190615328565b6106ef5760405162461bcd60e51b815260206004820152602d60248201527f416c6c6f77616e63653a2063616c6c6572206d757374206265205265706f736960448201526c3a37b93c9027b832b930ba37b960991b60648201526084016106e6565b600080610aca6402540be400846153b8565b905082610adc826402540be4006153da565b111561073c5761073c6153f9565b610af2613029565b6106ef600061308a565b610b04610527565b6106ef6000805460ff19166001179055565b6000610b2061124d565b15610b3d5760405162461bcd60e51b81526004016106e69061540f565b7f00000000000000000000000000000000000000000000000000000000000000006001600160a01b0316634635229b6040518163ffffffff1660e01b8152600401602060405180830381865afa158015610b9b573d6000803e3d6000fd5b505050506040513d601f19601f82011682018060405250810190610bbf9190615328565b80610bd257506001600160a01b03861633145b610c345760405162461bcd60e51b815260206004820152602d60248201527f4d757374206265206163636f756e743d3d5f6d736753656e6465722829206f7260448201526c204d6f64652054657374696e6760981b60648201526084016106e6565b6000858152600560205260408082208054915163657c7e0960e01b81526004810192909252919081907f00000000000000000000000000000000000000000000000000000000000000006001600160a01b03169063657c7e09906024016040805180830381865afa158015610cad573d6000803e3d6000fd5b505050506040513d601f19601f82011682018060405250810190610cd19190615439565b60405163023aa9ab60e61b8152600080516020615844833981519152600482015291935091507f00000000000000000000000000000000000000000000000000000000000000006001600160a01b031690638eaa6ac090602401602060405180830381865afa158015610d48573d6000803e3d6000fd5b505050506040513d601f19601f82011682018060405250810190610d6c919061534a565b604051634e68f20f60e11b8152600481018390526001600160a01b038b811660248301529190911690639cd1e41e90604401602060405180830381865afa158015610dbb573d6000803e3d6000fd5b505050506040513d601f19601f82011682018060405250810190610ddf919061545d565b670de0b6b3a7640000610df2888a6153da565b610dfc91906153b8565b1115610e4a5760405162461bcd60e51b815260206004820152601a60248201527f42616e6b3a204e6f7420656e6f75676820617661696c61626c6500000000000060448201526064016106e6565b6001830154604051635b7d0f6960e11b8152600160a81b90910460ff16600482015260009073__$f7122df39a5f3bad28f404771cd5173291$__9063b6fa1ed290602401602060405180830381865af4158015610eab573d6000803e3d6000fd5b505050506040513d601f19601f82011682018060405250810190610ecf9190615328565b15610ffa5760405163023aa9ab60e61b81527f3cb99135f7a7c088d9085b446345038a22a85f4e8fe072b0e1b66d97243e745860048201527f00000000000000000000000000000000000000000000000000000000000000006001600160a01b031690638eaa6ac090602401602060405180830381865afa158015610f58573d6000803e3d6000fd5b505050506040513d601f19601f82011682018060405250810190610f7c919061534a565b6040516332f3077960e11b815260048101859052602481018490526001600160a01b0391909116906365e60ef2906044016060604051808303816000875af1158015610fcc573d6000803e3d6000fd5b505050506040513d601f19601f82011682018060405250810190610ff09190615476565b50915061101b9050565b600384015461101890600160c01b90046001600160401b03166122ba565b90505b670de0b6b3a764000061102e87826154a4565b61103890896153da565b61104291906153b8565b81111580156110775750670de0b6b3a764000061105f87826154bb565b61106990896153da565b61107391906153b8565b8110155b6110c35760405162461bcd60e51b815260206004820152601c60248201527f51756f746520536c6970706564206f76657220746f6c6572616e63650000000060448201526064016106e6565b6000816110d0898b6153da565b6110da91906153b8565b600386015490915060009061110590610444906001600160401b03600160401b8204811691166154d3565b905081811015611113578091505b611120868d60008d6130e5565b6111298a610ab8565b60038701805460089061114d908490600160401b90046001600160401b03166154fb565b82546101009290920a6001600160401b038181021990931691831602179091556003880154600160801b81048216600160401b909104909116141590506111995761119986600361387f565b6001860154604080516001600160a01b039283168152918e166020830152810184905260608101839052849086907f49da6c773c11f8e65fd2ffb9512fa3f24dc8759fbcedb687f0b59694adc1d3439060800160405180910390a360036001870154600160a01b900460ff16600581111561121657611216614f3d565b116112245761122486613d71565b50979a9950505050505050505050565b600061073c65ffffffffffff831664174876e8006153da565b6000805460ff16806112665750600054610100900460ff165b905090565b60405163023aa9ab60e61b81527f2e7a327ef83c2af7579c6634f2f5604519800c5f07626f27bd602fd11ed8e6ec60048201526000907f00000000000000000000000000000000000000000000000000000000000000006001600160a01b031690638eaa6ac090602401602060405180830381865afa1580156112f2573d6000803e3d6000fd5b505050506040513d601f19601f82011682018060405250810190611316919061534a565b60408051306024820152604480820186905282518083039091018152606490910182526020810180516001600160e01b03166376f466ff60e11b17905290516001600160a01b03929092169161136c9190615367565b6000604051808303816000865af19150503d80600081146113a9576040519150601f19603f3d011682016040523d82523d6000602084013e6113ae565b606091505b50509050610707816106f1565b60006113ca3386868686610759565b95945050505050565b60006113dd61124d565b156113fa5760405162461bcd60e51b81526004016106e69061540f565b7f00000000000000000000000000000000000000000000000000000000000000006001600160a01b0316634635229b6040518163ffffffff1660e01b8152600401602060405180830381865afa158015611458573d6000803e3d6000fd5b505050506040513d601f19601f8201168201806040525081019061147c9190615328565b8061148f57506001600160a01b03881633145b6114ab5760405162461bcd60e51b81526004016106e690615526565b60405163c5537eb760e01b81526004810188905261080060248201527f00000000000000000000000000000000000000000000000000000000000000006001600160a01b03169063c5537eb790604401602060405180830381865afa158015611518573d6000803e3d6000fd5b505050506040513d601f19601f8201168201806040525081019061153c9190615328565b1561175957604051630c25e48360e11b8152600481018890526000907f00000000000000000000000000000000000000000000000000000000000000006001600160a01b03169063184bc90690602401602060405180830381865afa1580156115a9573d6000803e3d6000fd5b505050506040513d601f19601f820116820180604052508101906115cd919061534a565b9050806001600160a01b031663f5ac9db66040518163ffffffff1660e01b8152600401602060405180830381865afa15801561160d573d6000803e3d6000fd5b505050506040513d601f19601f820116820180604052508101906116319190615328565b6116725760405162461bcd60e51b815260206004820152601260248201527146726f6d206e6f7420747261646561626c6560701b60448201526064016106e6565b806001600160a01b0316630e4994276040518163ffffffff1660e01b8152600401602060405180830381865afa1580156116b0573d6000803e3d6000fd5b505050506040513d601f19601f820116820180604052508101906116d49190615328565b801561170057507fad3228b676f7d3cd4284a5443f17f1962b36e491b30a40b2405849e597ba5fb58714155b6117575760405162461bcd60e51b815260206004820152602260248201527f46726f6d206973206f6e6c7920747261646561626c6520746f2043757272656e604482015261637960f01b60648201526084016106e6565b505b60405163d47a7edd60e01b8152600481018890527f00000000000000000000000000000000000000000000000000000000000000006001600160a01b03169063d47a7edd90602401602060405180830381865afa1580156117be573d6000803e3d6000fd5b505050506040513d601f19601f820116820180604052508101906117e29190615328565b15806117f5575083670de0b6b3a7640000145b806117ff57508385145b61185f5760405162461bcd60e51b815260206004820152602b60248201527f2746726f6d27206973204e46542071747920616e64206772616e756c6172697460448201526a79206d757374206265203160a81b60648201526084016106e6565b60405163023aa9ab60e61b815260008051602061584483398151915260048201527f00000000000000000000000000000000000000000000000000000000000000006001600160a01b031690638eaa6ac090602401602060405180830381865afa1580156118d1573d6000803e3d6000fd5b505050506040513d601f19601f820116820180604052508101906118f5919061534a565b604051634e68f20f60e11b8152600481018990526001600160a01b038a811660248301529190911690639cd1e41e90604401602060405180830381865afa158015611944573d6000803e3d6000fd5b505050506040513d601f19601f82011682018060405250810190611968919061545d565b8411156119b75760405162461bcd60e51b815260206004820152601a60248201527f42616e6b3a204e6f7420656e6f75676820617661696c61626c6500000000000060448201526064016106e6565b6040805161018081018252600080825260208201819052918101829052606081018290526080810182905260a0810182905260c0810182905260e081018290526101008101829052610120810182905261014081018290526101608101919091526001600160a01b0389811660208301526040516361e99ffb60e01b8152600481018a9052602481018990527f0000000000000000000000000000000000000000000000000000000000000000909116906361e99ffb906044016020604051808303816000875af1158015611a90573d6000803e3d6000fd5b505050506040513d601f19601f82011682018060405250810190611ab4919061545d565b8152611abf86610ab8565b6001600160401b0316610120820152611ad785610ab8565b6001600160401b031660a0820152611aee84610ab8565b6001600160401b03166101008201526060810151604051635b7d0f6960e11b815260ff909116600482015273__$f7122df39a5f3bad28f404771cd5173291$__9063b6fa1ed290602401602060405180830381865af4158015611b55573d6000803e3d6000fd5b505050506040513d601f19601f82011682018060405250810190611b799190615328565b15611cfe5760405163023aa9ab60e61b81527f3cb99135f7a7c088d9085b446345038a22a85f4e8fe072b0e1b66d97243e745860048201526000907f00000000000000000000000000000000000000000000000000000000000000006001600160a01b031690638eaa6ac090602401602060405180830381865afa158015611c05573d6000803e3d6000fd5b505050506040513d601f19601f82011682018060405250810190611c29919061534a565b6040516332f3077960e11b8152600481018b9052602481018a90526001600160a01b0391909116906365e60ef2906044016060604051808303816000875af1158015611c79573d6000803e3d6000fd5b505050506040513d601f19601f82011682018060405250810190611c9d9190615476565b509150611cab905081610ab8565b6001600160401b03166101608301819052611cfc5760405162461bcd60e51b8152602060048201526011602482015270145d5bdd194e88139bdd081c5d5bdd1959607a1b60448201526064016106e6565b505b606081015160405163f0340a3760e01b815260ff909116600482015273__$f7122df39a5f3bad28f404771cd5173291$__9063f0340a3790602401602060405180830381865af4158015611d56573d6000803e3d6000fd5b505050506040513d601f19601f82011682018060405250810190611d7a9190615328565b15611e7d5760405163023aa9ab60e61b815260008051602061584483398151915260048201527f00000000000000000000000000000000000000000000000000000000000000006001600160a01b031690638eaa6ac090602401602060405180830381865afa158015611df1573d6000803e3d6000fd5b505050506040513d601f19601f82011682018060405250810190611e15919061534a565b6001600160a01b03166356a1fd3a88836020015130896040518563ffffffff1660e01b8152600401611e4a9493929190615571565b600060405180830381600087803b158015611e6457600080fd5b505af1158015611e78573d6000803e3d6000fd5b505050505b6003805460010190555b600354158015611eaa575060035460009081526005602052604090206002015415155b15611ebd57600380546001019055611e87565b6003546080820181905260a08201516001600160401b0390811660e08401526004604080850191825260ff871660608601526101008501519092166101408501526000928352600560208181529290932084518155918401516001830180546001600160a01b039092166001600160a01b031983168117825592518695909391926001600160a81b03191690911790600160a01b908490811115611f6357611f63614f3d565b0217905550606082015160018201805460ff60a81b1916600160a81b60ff90931692909202919091179055608080830151600283015560a083015160038301805460c086015160e08701516101008801516001600160401b039586166fffffffffffffffffffffffffffffffff1994851617600160401b9387168402176fffffffffffffffffffffffffffffffff16600160801b92871683026001600160c01b031617600160c01b9187169190910217909355610120870151600496870180546101408a0151610160909a015167ffffffffffffffff60801b199388169190951617988616909202979097179690961692160217909255908201516040516304132f1d60e31b815280830192909252602482015273__$f71e59c5327218924d154e230469c101bd$__9063209978e890604401602060405180830381865af41580156120b3573d6000803e3d6000fd5b505050506040513d601f19601f820116820180604052508101906120d79190615328565b50805160009081526006602052604090819020608083015191516304132f1d60e31b815273__$f71e59c5327218924d154e230469c101bd$__9263209978e89261212f92909190600401918252602082015260400190565b602060405180830381865af415801561214c573d6000803e3d6000fd5b505050506040513d601f19601f820116820180604052508101906121709190615328565b5060008881526007602052604090819020608083015191516304132f1d60e31b815273__$f71e59c5327218924d154e230469c101bd$__9263209978e8926121c692909190600401918252602082015260400190565b602060405180830381865af41580156121e3573d6000803e3d6000fd5b505050506040513d601f19601f820116820180604052508101906122079190615328565b5060008781526008602052604090819020608083015191516304132f1d60e31b815273__$f71e59c5327218924d154e230469c101bd$__9263209978e89261225d92909190600401918252602082015260400190565b602060405180830381865af415801561227a573d6000803e3d6000fd5b505050506040513d601f19601f8201168201806040525081019061229e9190615328565b5080516122aa90613e1c565b5050600354979650505050505050565b600061073c6001600160401b0383166402540be4006153da565b60405163023aa9ab60e61b81527f2e7a327ef83c2af7579c6634f2f5604519800c5f07626f27bd602fd11ed8e6ec600482015260009081906001600160a01b037f00000000000000000000000000000000000000000000000000000000000000001690638eaa6ac090602401602060405180830381865afa15801561235d573d6000803e3d6000fd5b505050506040513d601f19601f82011682018060405250810190612381919061534a565b604080513060248201526001600160a01b038c81166044830152606482018c9052608482018b905260a482018a905260c4820189905260e4820188905260ff8716610104808401919091528351808403909101815261012490920183526020820180516001600160e01b0316635330878160e11b179052915192909116916124099190615367565b6000604051808303816000865af19150503d8060008114612446576040519150601f19603f3d011682016040523d82523d6000602084013e61244b565b606091505b50509050612458816106f1565b50979650505050505050565b60405163509ff69b60e01b81526001600160a01b0387811660048301526000602483018190529161259f918a917f00000000000000000000000000000000000000000000000000000000000000009091169063509ff69b906044016020604051808303816000875af11580156124de573d6000803e3d6000fd5b505050506040513d601f19601f82011682018060405250810190612502919061545d565b60405163509ff69b60e01b81526001600160a01b038a81166004830152600060248301527f0000000000000000000000000000000000000000000000000000000000000000169063509ff69b906044015b6020604051808303816000875af1158015612572573d6000803e3d6000fd5b505050506040513d601f19601f82011682018060405250810190612596919061545d565b888888886122d4565b98975050505050505050565b60405163509ff69b60e01b81526001600160a01b0389811660048301526024820189905260009161269f918c917f00000000000000000000000000000000000000000000000000000000000000009091169063509ff69b906044015b6020604051808303816000875af1158015612626573d6000803e3d6000fd5b505050506040513d601f19601f8201168201806040525081019061264a919061545d565b60405163509ff69b60e01b81526001600160a01b038b81166004830152602482018b90527f0000000000000000000000000000000000000000000000000000000000000000169063509ff69b90604401612553565b9a9950505050505050505050565b6126b5613029565b6106ef6000805461ff001916610100179055565b60006127243360405163509ff69b60e01b81526001600160a01b038c81166004830152602482018c90527f0000000000000000000000000000000000000000000000000000000000000000169063509ff69b90604401612607565b9998505050505050505050565b600061073c63ffffffff831664e8d4a510006153da565b61275061124d565b1561276d5760405162461bcd60e51b81526004016106e69061540f565b60006005600083815260200190815260200160002090507f00000000000000000000000000000000000000000000000000000000000000006001600160a01b0316634635229b6040518163ffffffff1660e01b8152600401602060405180830381865afa1580156127e2573d6000803e3d6000fd5b505050506040513d601f19601f820116820180604052508101906128069190615328565b8061281d575060018101546001600160a01b031633145b6128395760405162461bcd60e51b81526004016106e690615526565b61284481600161387f565b61070781613d71565b612855613029565b6001600160a01b0381166128ba5760405162461bcd60e51b815260206004820152602660248201527f4f776e61626c653a206e6577206f776e657220697320746865207a65726f206160448201526564647265737360d01b60648201526084016106e6565b6128c38161308a565b50565b600061073c64174876e800836153b8565b6128df614dc6565b60008381526005602081815260408084208151610180810183528154815260018201546001600160a01b0381169482019490945293909291840191600160a01b900460ff169081111561293457612934614f3d565b600581111561294557612945614f3d565b81526001820154600160a81b900460ff166020820152600282015460408083019190915260038301546001600160401b038082166060850152600160401b80830482166080860152600160801b808404831660a0870152600160c01b909304821660c086015260049586015480831660e087015290810482166101008601529190910416610120909201919091528251905163657c7e0960e01b8152918201529091507f00000000000000000000000000000000000000000000000000000000000000006001600160a01b03169063657c7e09906024016040805180830381865afa158015612a38573d6000803e3d6000fd5b505050506040513d601f19601f82011682018060405250810190612a5c9190615439565b60408401526020830152608081015160608301528280612af5575060608101516040516336181b6760e11b815260ff909116600482015273__$f7122df39a5f3bad28f404771cd5173291$__90636c3036ce90602401602060405180830381865af4158015612acf573d6000803e3d6000fd5b505050506040513d601f19601f82011682018060405250810190612af39190615328565b155b15612f665760208101516001600160a01b0316825260a0810151612b18906122ba565b60808301526060810151604051632b2076e360e11b815260ff909116600482015273__$f7122df39a5f3bad28f404771cd5173291$__90635640edc690602401602060405180830381865af4158015612b75573d6000803e3d6000fd5b505050506040513d601f19601f82011682018060405250810190612b999190615328565b15612bad57608082015160a0830152612ce7565b6101208101516001600160401b031615612bd957612bcf8161012001516122ba565b60a0830152612ce7565b60405163023aa9ab60e61b815260008051602061584483398151915260048201527f00000000000000000000000000000000000000000000000000000000000000006001600160a01b031690638eaa6ac090602401602060405180830381865afa158015612c4b573d6000803e3d6000fd5b505050506040513d601f19601f82011682018060405250810190612c6f919061534a565b6001600160a01b031663a9bf985883602001516040518263ffffffff1660e01b8152600401612ca091815260200190565b602060405180830381865afa158015612cbd573d6000803e3d6000fd5b505050506040513d601f19601f82011682018060405250810190612ce1919061545d565b60a08301525b612cf48160c001516122ba565b60c083015260e0810151612d07906122ba565b60e08301526060810151604051635b7d0f6960e11b815260ff909116600482015273__$f7122df39a5f3bad28f404771cd5173291$__9063b6fa1ed290602401602060405180830381865af4158015612d64573d6000803e3d6000fd5b505050506040513d601f19601f82011682018060405250810190612d889190615328565b15612f5157612d9b8161014001516122ba565b610120830152610160810151612db0906122ba565b61014083015260405163023aa9ab60e61b81527f3cb99135f7a7c088d9085b446345038a22a85f4e8fe072b0e1b66d97243e745860048201526000907f00000000000000000000000000000000000000000000000000000000000000006001600160a01b031690638eaa6ac090602401602060405180830381865afa158015612e3d573d6000803e3d6000fd5b505050506040513d601f19601f82011682018060405250810190612e61919061534a565b6001600160a01b0316636464b68a846020015185604001516040518363ffffffff1660e01b8152600401612e9f929190918252602082015260400190565b606060405180830381865afa158015612ebc573d6000803e3d6000fd5b505050506040513d601f19601f82011682018060405250810190612ee09190615476565b5091505080612f255760405162461bcd60e51b8152602060048201526011602482015270145d5bdd194e88139bdd081c5d5bdd1959607a1b60448201526064016106e6565b610140830151612f3590826153b8565b836101200151612f4591906153da565b61010084015250612f66565b612f5f8161010001516122ba565b6101008301525b604051630212d6cb60e21b815273__$f7122df39a5f3bad28f404771cd5173291$__9063084b5b2c90612f9d908490600401615596565b602060405180830381865af4158015612fba573d6000803e3d6000fd5b505050506040513d601f19601f82011682018060405250810190612fde919061545d565b6101608301526040810151610180830190600581111561300057613000614f3d565b9081600581111561301357613013614f3d565b9052506060015160ff166101a082015292915050565b6000546001600160a01b03620100009091041633146106ef5760405162461bcd60e51b815260206004820152601f60248201527f416c6c6f77616e63653a2063616c6c6572206d757374206265204f776e65720060448201526064016106e6565b600080546001600160a01b038381166201000081810262010000600160b01b0319851617855560405193049190911692909183917f8be0079c531659141344cd1fd0a4f28419497f9722a3daafe3b4186f6b6457e091a35050565b60008080600080670de0b6b3a76400006131158a60030160189054906101000a90046001600160401b03166122ba565b61311f90886153da565b61312991906153b8565b895460405163657c7e0960e01b815291925060009182916001600160a01b037f0000000000000000000000000000000000000000000000000000000000000000169163657c7e09916131819160040190815260200190565b6040805180830381865afa15801561319d573d6000803e3d6000fd5b505050506040513d601f19601f820116820180604052508101906131c19190615439565b60018d015460405163f0340a3760e01b8152600160a81b90910460ff166004820152919350915073__$f7122df39a5f3bad28f404771cd5173291$__9063f0340a3790602401602060405180830381865af4158015613224573d6000803e3d6000fd5b505050506040513d601f19601f820116820180604052508101906132489190615328565b156133505760405163023aa9ab60e61b815260008051602061584483398151915260048201527f00000000000000000000000000000000000000000000000000000000000000006001600160a01b031690638eaa6ac090602401602060405180830381865afa1580156132bf573d6000803e3d6000fd5b505050506040513d601f19601f820116820180604052508101906132e3919061534a565b60018c015460405163255318af60e21b81526001600160a01b039283169263954c62bc9261331d9287929091169030908e90600401615571565b600060405180830381600087803b15801561333757600080fd5b505af115801561334b573d6000803e3d6000fd5b505050505b88156134505760405163023aa9ab60e61b815260008051602061584483398151915260048201527f00000000000000000000000000000000000000000000000000000000000000006001600160a01b031690638eaa6ac090602401602060405180830381865afa1580156133c8573d6000803e3d6000fd5b505050506040513d601f19601f820116820180604052508101906133ec919061534a565b6001600160a01b031663954c62bc828c30876040518563ffffffff1660e01b815260040161341d9493929190615571565b600060405180830381600087803b15801561343757600080fd5b505af115801561344b573d6000803e3d6000fd5b505050505b85156135595760405163023aa9ab60e61b815260008051602061584483398151915260048201527f00000000000000000000000000000000000000000000000000000000000000006001600160a01b031690638eaa6ac090602401602060405180830381865afa1580156134c8573d6000803e3d6000fd5b505050506040513d601f19601f820116820180604052508101906134ec919061534a565b60018c0154604051631c9619a760e01b81526001600160a01b0392831692631c9619a792613526928792909116908c908c90600401615571565b600060405180830381600087803b15801561354057600080fd5b505af1158015613554573d6000803e3d6000fd5b505050505b83156136595760405163023aa9ab60e61b815260008051602061584483398151915260048201527f00000000000000000000000000000000000000000000000000000000000000006001600160a01b031690638eaa6ac090602401602060405180830381865afa1580156135d1573d6000803e3d6000fd5b505050506040513d601f19601f820116820180604052508101906135f5919061534a565b6001600160a01b0316631c9619a7828c88886040518563ffffffff1660e01b81526004016136269493929190615571565b600060405180830381600087803b15801561364057600080fd5b505af1158015613654573d6000803e3d6000fd5b505050505b60405163023aa9ab60e61b815260008051602061584483398151915260048201527f00000000000000000000000000000000000000000000000000000000000000006001600160a01b031690638eaa6ac090602401602060405180830381865afa1580156136cb573d6000803e3d6000fd5b505050506040513d601f19601f820116820180604052508101906136ef919061534a565b60018c01546001600160a01b0391821691631c9619a7918591168d6137148b8e6154a4565b6040518563ffffffff1660e01b81526004016137339493929190615571565b600060405180830381600087803b15801561374d57600080fd5b505af1158015613761573d6000803e3d6000fd5b505060405163023aa9ab60e61b815260008051602061584483398151915260048201527f00000000000000000000000000000000000000000000000000000000000000006001600160a01b03169250638eaa6ac09150602401602060405180830381865afa1580156137d7573d6000803e3d6000fd5b505050506040513d601f19601f820116820180604052508101906137fb919061534a565b60018c01546001600160a01b0391821691631c9619a79184918e911661382189896154a4565b6040518563ffffffff1660e01b81526004016138409493929190615571565b600060405180830381600087803b15801561385a57600080fd5b505af115801561386e573d6000803e3d6000fd5b505050505050505050505050505050565b600081600581111561389357613893614f3d565b1180156138b2575060038160058111156138af576138af614f3d565b11155b80156138de575060046001830154600160a01b900460ff1660058111156138db576138db614f3d565b10155b61392a5760405162461bcd60e51b815260206004820152601d60248201527f5f6f726465725465726d696e6174652073746174652070726f626c656d00000060448201526064016106e6565b815460405163657c7e0960e01b8152600481019190915260009081907f00000000000000000000000000000000000000000000000000000000000000006001600160a01b03169063657c7e09906024016040805180830381865afa158015613996573d6000803e3d6000fd5b505050506040513d601f19601f820116820180604052508101906139ba9190615439565b600186018054929450909250849160ff60a01b1916600160a01b8360058111156139e6576139e6614f3d565b0217905550600184015460405163f0340a3760e01b8152600160a81b90910460ff16600482015273__$f7122df39a5f3bad28f404771cd5173291$__9063f0340a3790602401602060405180830381865af4158015613a49573d6000803e3d6000fd5b505050506040513d601f19601f82011682018060405250810190613a6d9190615328565b15613ba45760405163023aa9ab60e61b815260008051602061584483398151915260048201527f00000000000000000000000000000000000000000000000000000000000000006001600160a01b031690638eaa6ac090602401602060405180830381865afa158015613ae4573d6000803e3d6000fd5b505050506040513d601f19601f82011682018060405250810190613b08919061534a565b600185015460038601546001600160a01b039283169263954c62bc9285929116903090613b5290610444906001600160401b03600160401b8204811691600160801b9004166154d3565b6040518563ffffffff1660e01b8152600401613b719493929190615571565b600060405180830381600087803b158015613b8b57600080fd5b505af1158015613b9f573d6000803e3d6000fd5b505050505b83546000908152600660205260409081902060028601549151630cef945b60e31b815273__$f71e59c5327218924d154e230469c101bd$__9263677ca2d892613bfb92909190600401918252602082015260400190565b602060405180830381865af4158015613c18573d6000803e3d6000fd5b505050506040513d601f19601f82011682018060405250810190613c3c9190615328565b506000828152600760205260409081902060028601549151630cef945b60e31b815273__$f71e59c5327218924d154e230469c101bd$__9263677ca2d892613c9292909190600401918252602082015260400190565b602060405180830381865af4158015613caf573d6000803e3d6000fd5b505050506040513d601f19601f82011682018060405250810190613cd39190615328565b506000818152600860205260409081902060028601549151630cef945b60e31b815273__$f71e59c5327218924d154e230469c101bd$__9263677ca2d892613d2992909190600401918252602082015260400190565b602060405180830381865af4158015613d46573d6000803e3d6000fd5b505050506040513d601f19601f82011682018060405250810190613d6a9190615328565b5050505050565b6002810154604051630cef945b60e31b8152600480820152602481019190915273__$f71e59c5327218924d154e230469c101bd$__9063677ca2d890604401602060405180830381865af4158015613dcd573d6000803e3d6000fd5b505050506040513d601f19601f82011682018060405250810190613df19190615328565b5043600090815260096020908152604082206002909301548354600181018555938352912090910155565b604051630e29a66960e21b8152600481018290526001600160a01b037f000000000000000000000000000000000000000000000000000000000000000016906338a699a490602401602060405180830381865afa158015613e81573d6000803e3d6000fd5b505050506040513d601f19601f82011682018060405250810190613ea59190615328565b613eac5750565b60405163657c7e0960e01b81526004810182905260009081906001600160a01b037f0000000000000000000000000000000000000000000000000000000000000000169063657c7e09906024016040805180830381865afa158015613f15573d6000803e3d6000fd5b505050506040513d601f19601f82011682018060405250810190613f399190615439565b91509150613f4782846108d2565b15613f5157505050565b6000818152600160209081526040808320805482518185028101850190935280835260609493830182828015613fa657602002820191906000526020600020905b815481526020019060010190808311613f92575b5050505050905080516001600160401b03811115613fc657613fc6615685565b604051908082528060200260200182016040528015613ff957816020015b6060815260200190600190039081613fe45790505b5091506000805b82518110156141755760007f00000000000000000000000000000000000000000000000000000000000000006001600160a01b03166327ee9dc285848151811061404c5761404c61569b565b60200260200101516040518263ffffffff1660e01b815260040161407291815260200190565b600060405180830381865afa15801561408f573d6000803e3d6000fd5b505050506040513d6000823e601f3d908101601f191682016040526140b791908101906156b1565b604051639d84366d60e01b815290915073__$f71e59c5327218924d154e230469c101bd$__90639d84366d906140f39084908b9060040161579d565b602060405180830381865af4158015614110573d6000803e3d6000fd5b505050506040513d601f19601f820116820180604052508101906141349190615328565b61416257808584614144816157bf565b9550815181106141565761415661569b565b60200260200101819052505b508061416d816157bf565b915050614000565b5082525060008381526002602090815260408083208054825181850281018501909352808352606094938301828280156141ce57602002820191906000526020600020905b8154815260200190600101908083116141ba575b5050505050905080516001600160401b038111156141ee576141ee615685565b60405190808252806020026020018201604052801561422157816020015b606081526020019060019003908161420c5790505b5091506000805b825181101561439d5760007f00000000000000000000000000000000000000000000000000000000000000006001600160a01b03166327ee9dc28584815181106142745761427461569b565b60200260200101516040518263ffffffff1660e01b815260040161429a91815260200190565b600060405180830381865afa1580156142b7573d6000803e3d6000fd5b505050506040513d6000823e601f3d908101601f191682016040526142df91908101906156b1565b604051639d84366d60e01b815290915073__$f71e59c5327218924d154e230469c101bd$__90639d84366d9061431b9084908b9060040161579d565b602060405180830381865af4158015614338573d6000803e3d6000fd5b505050506040513d601f19601f8201168201806040525081019061435c9190615328565b61438a5780858461436c816157bf565b95508151811061437e5761437e61569b565b60200260200101819052505b5080614395816157bf565b915050614228565b508252506000848152600160205260409081902090516316061a7160e21b815260048101919091526024810186905273__$f71e59c5327218924d154e230469c101bd$__9063581869c490604401602060405180830381865af4158015614408573d6000803e3d6000fd5b505050506040513d601f19601f8201168201806040525081019061442c9190615328565b506000838152600260205260409081902090516316061a7160e21b815260048101919091526024810186905273__$f71e59c5327218924d154e230469c101bd$__9063581869c490604401602060405180830381865af4158015614494573d6000803e3d6000fd5b505050506040513d601f19601f820116820180604052508101906144b89190615328565b5060005b81518110156147485760008282815181106144d9576144d961569b565b602002602001015173__$f71e59c5327218924d154e230469c101bd$__639b861f039091876040518363ffffffff1660e01b815260040161451b92919061579d565b600060405180830381865af4158015614538573d6000803e3d6000fd5b505050506040513d6000823e601f3d908101601f1916820160405261456091908101906156b1565b905060007f00000000000000000000000000000000000000000000000000000000000000006001600160a01b031663b3054383836040518263ffffffff1660e01b81526004016145b091906157da565b6020604051808303816000875af11580156145cf573d6000803e3d6000fd5b505050506040513d601f19601f820116820180604052508101906145f3919061545d565b9050600160008360008151811061460c5761460c61569b565b6020026020010151815260200190815260200160002073__$f71e59c5327218924d154e230469c101bd$__63581869c49091836040518363ffffffff1660e01b8152600401614665929190918252602082015260400190565b602060405180830381865af4158015614682573d6000803e3d6000fd5b505050506040513d601f19601f820116820180604052508101906146a69190615328565b506000868152600260205260409081902090516316061a7160e21b815260048101919091526024810182905273__$f71e59c5327218924d154e230469c101bd$__9063581869c490604401602060405180830381865af415801561470e573d6000803e3d6000fd5b505050506040513d601f19601f820116820180604052508101906147329190615328565b5050508080614740906157bf565b9150506144bc565b5060005b82518110156149ea5760008382815181106147695761476961569b565b602002602001015173__$f71e59c5327218924d154e230469c101bd$__633b06e74f9091886040518363ffffffff1660e01b81526004016147ab92919061579d565b600060405180830381865af41580156147c8573d6000803e3d6000fd5b505050506040513d6000823e601f3d908101601f191682016040526147f091908101906156b1565b905060007f00000000000000000000000000000000000000000000000000000000000000006001600160a01b031663b3054383836040518263ffffffff1660e01b815260040161484091906157da565b6020604051808303816000875af115801561485f573d6000803e3d6000fd5b505050506040513d601f19601f82011682018060405250810190614883919061545d565b6000888152600160205260409081902090516316061a7160e21b815291925073__$f71e59c5327218924d154e230469c101bd$__9163581869c4916148d5918590600401918252602082015260400190565b602060405180830381865af41580156148f2573d6000803e3d6000fd5b505050506040513d601f19601f820116820180604052508101906149169190615328565b5060026000836001855161492a91906154a4565b8151811061493a5761493a61569b565b6020026020010151815260200190815260200160002073__$f71e59c5327218924d154e230469c101bd$__63581869c49091836040518363ffffffff1660e01b8152600401614993929190918252602082015260400190565b602060405180830381865af41580156149b0573d6000803e3d6000fd5b505050506040513d601f19601f820116820180604052508101906149d49190615328565b50505080806149e2906157bf565b91505061474c565b5060005b8151811015614dbe5760005b8351811015614dab576000848281518110614a1757614a1761569b565b602002602001015190506000848381518110614a3557614a3561569b565b6020026020010151905060005b8251811015614afc578173__$f71e59c5327218924d154e230469c101bd$__639d84366d9091858481518110614a7a57614a7a61569b565b60200260200101516040518363ffffffff1660e01b8152600401614a9f92919061579d565b602060405180830381865af4158015614abc573d6000803e3d6000fd5b505050506040513d601f19601f82011682018060405250810190614ae09190615328565b15614aea57614afc565b80614af4816157bf565b915050614a42565b8251811015614b0d57505050614d99565b6040516302704ae960e31b815260009073__$f71e59c5327218924d154e230469c101bd$__90631382574890614b49908790879060040161581e565b600060405180830381865af4158015614b66573d6000803e3d6000fd5b505050506040513d6000823e601f3d908101601f19168201604052614b8e91908101906156b1565b905060007f00000000000000000000000000000000000000000000000000000000000000006001600160a01b031663b3054383836040518263ffffffff1660e01b8152600401614bde91906157da565b6020604051808303816000875af1158015614bfd573d6000803e3d6000fd5b505050506040513d601f19601f82011682018060405250810190614c21919061545d565b90506001600083600081518110614c3a57614c3a61569b565b6020026020010151815260200190815260200160002073__$f71e59c5327218924d154e230469c101bd$__63581869c49091836040518363ffffffff1660e01b8152600401614c93929190918252602082015260400190565b602060405180830381865af4158015614cb0573d6000803e3d6000fd5b505050506040513d601f19601f82011682018060405250810190614cd49190615328565b50600260008360018551614ce891906154a4565b81518110614cf857614cf861569b565b6020026020010151815260200190815260200160002073__$f71e59c5327218924d154e230469c101bd$__63581869c49091836040518363ffffffff1660e01b8152600401614d51929190918252602082015260400190565b602060405180830381865af4158015614d6e573d6000803e3d6000fd5b505050506040513d601f19601f82011682018060405250810190614d929190615328565b5050505050505b80614da3816157bf565b9150506149fa565b5080614db6816157bf565b9150506149ee565b505050505050565b604051806101c0016040528060006001600160a01b03168152602001600080191681526020016000801916815260200160008152602001600081526020016000815260200160008152602001600081526020016000815260200160008152602001600081526020016000815260200160006005811115614e4857614e48614f3d565b8152600060209091015290565b60008085851115614e6557600080fd5b83861115614e7257600080fd5b5050820193919092039150565b600060208284031215614e9157600080fd5b81356001600160e01b03198116811461095c57600080fd5b6001600160a01b03811681146128c357600080fd5b600080600080600060a08688031215614ed657600080fd5b8535614ee181614ea9565b97602087013597506040870135966060810135965060800135945092505050565b60008060408385031215614f1557600080fd5b50508035926020909101359150565b600060208284031215614f3657600080fd5b5035919050565b634e487b7160e01b600052602160045260246000fd5b60068110614f7157634e487b7160e01b600052602160045260246000fd5b9052565b81516001600160a01b031681526101c081016020830151602083015260408301516040830152606083015160608301526080830151608083015260a083015160a083015260c083015160c083015260e083015160e08301526101008084015181840152506101208084015181840152506101408084015181840152506101608084015181840152506101808084015161501082850182614f53565b50506101a08381015160ff8116848301525b505092915050565b803560ff8116811461503b57600080fd5b919050565b60008060008060008060c0878903121561505957600080fd5b863595506020870135945060408701359350606087013592506080870135915061508560a0880161502a565b90509295509295509295565b6000602082840312156150a357600080fd5b813565ffffffffffff8116811461095c57600080fd5b600080600080608085870312156150cf57600080fd5b5050823594602084013594506040840135936060013592509050565b600080600080600080600060e0888a03121561510657600080fd5b873561511181614ea9565b96506020880135955060408801359450606088013593506080880135925060a0880135915061514260c0890161502a565b905092959891949750929550565b60006020828403121561516257600080fd5b81356001600160401b038116811461095c57600080fd5b600080600080600080600060e0888a03121561519457600080fd5b873561519f81614ea9565b965060208801356151af81614ea9565b955060408801356151bf81614ea9565b9450606088013593506080880135925060a0880135915061514260c0890161502a565b60008060008060008060008060006101208a8c03121561520157600080fd5b893561520c81614ea9565b985060208a013561521c81614ea9565b975060408a0135965060608a013561523381614ea9565b955060808a0135945060a08a0135935060c08a0135925060e08a0135915061525e6101008b0161502a565b90509295985092959850929598565b600080600080600080600080610100898b03121561528a57600080fd5b883561529581614ea9565b97506020890135965060408901356152ac81614ea9565b9550606089013594506080890135935060a0890135925060c089013591506152d660e08a0161502a565b90509295985092959890939650565b6000602082840312156152f757600080fd5b813563ffffffff8116811461095c57600080fd5b60006020828403121561531d57600080fd5b813561095c81614ea9565b60006020828403121561533a57600080fd5b8151801515811461095c57600080fd5b60006020828403121561535c57600080fd5b815161095c81614ea9565b6000825160005b81811015615388576020818601810151858301520161536e565b81811115615397576000828501525b509190910192915050565b634e487b7160e01b600052601160045260246000fd5b6000826153d557634e487b7160e01b600052601260045260246000fd5b500490565b60008160001904831182151516156153f4576153f46153a2565b500290565b634e487b7160e01b600052600160045260246000fd5b60208082526010908201526f10dbdb9d1c9858dd081cdd1bdc1c195960821b604082015260600190565b6000806040838503121561544c57600080fd5b505080516020909101519092909150565b60006020828403121561546f57600080fd5b5051919050565b60008060006060848603121561548b57600080fd5b8351925060208401519150604084015190509250925092565b6000828210156154b6576154b66153a2565b500390565b600082198211156154ce576154ce6153a2565b500190565b60006001600160401b03838116908316818110156154f3576154f36153a2565b039392505050565b60006001600160401b0380831681851680830382111561551d5761551d6153a2565b01949350505050565b6020808252602b908201527f4d757374206265206163636f756e743d3d5f6d736753656e646572206f72204d60408201526a6f64652054657374696e6760a81b606082015260800190565b9384526001600160a01b03928316602085015291166040830152606082015260800190565b815181526020808301516101808301916155ba908401826001600160a01b03169052565b5060408301516155cd6040840182614f53565b5060608301516155e2606084018260ff169052565b506080830151608083015260a083015161560760a08401826001600160401b03169052565b5060c083015161562260c08401826001600160401b03169052565b5060e083015161563d60e08401826001600160401b03169052565b50610100838101516001600160401b03908116918401919091526101208085015182169084015261014080850151821690840152610160808501519182168185015290615022565b634e487b7160e01b600052604160045260246000fd5b634e487b7160e01b600052603260045260246000fd5b600060208083850312156156c457600080fd5b82516001600160401b03808211156156db57600080fd5b818501915085601f8301126156ef57600080fd5b81518181111561570157615701615685565b8060051b604051601f19603f8301168101818110858211171561572657615726615685565b60405291825284820192508381018501918883111561574457600080fd5b938501935b8285101561259f57845184529385019392850192615749565b600081518084526020808501945080840160005b8381101561579257815187529582019590820190600101615776565b509495945050505050565b6040815260006157b06040830185615762565b90508260208301529392505050565b60006000198214156157d3576157d36153a2565b5060010190565b6020808252825182820181905260009190848201906040850190845b81811015615812578351835292840192918401916001016157f6565b50909695505050505050565b6040815260006158316040830185615762565b82810360208401526113ca818561576256fecd775f2396f9f13f12bcf8ca32e21df66559a8adc3944d0591127e7731f7ab85a2646970667358221220ad58ef8ae7aad474e53b164082893b548351be90d5e44d3aa15c36e8f761047c64736f6c634300080b0033","language":"Solidity","natspec":{"kind":"dev","methods":{"ownerOf()":{"details":"Returns the address of the current owner."},"renounceOwnership()":{"details":"Leaves the contract without owner. It will not be possible to call `onlyOwner` functions anymore. Can only be called by the current owner. NOTE: Renouncing ownership will leave the contract without an owner, thereby removing any functionality that is only available to the owner."},"supportsInterface(bytes4)":{"details":"Returns true if this contract implements the interface defined by `interfaceId`. See the corresponding https://eips.ethereum.org/EIPS/eip-165#how-interfaces-are-identified[EIP section] to learn more about how these ids are created. This function call must use less than 30 000 gas."},"transferOwnership(address)":{"details":"Transfers ownership of the contract to a new account (`newOwner`). Can only be called by the current owner."}},"version":1},"opcodes":"PUSH1 0x80 PUSH1 0x40 MSTORE CALLVALUE DUP1 ISZERO PUSH2 0x10 JUMPI PUSH1 0x0 DUP1 REVERT JUMPDEST POP PUSH1 0x4 CALLDATASIZE LT PUSH2 0x1E5 JUMPI PUSH1 0x0 CALLDATALOAD PUSH1 0xE0 SHR DUP1 PUSH4 0x97962076 GT PUSH2 0x10F JUMPI DUP1 PUSH4 0xC34FA842 GT PUSH2 0xA2 JUMPI DUP1 PUSH4 0xE4B16144 GT PUSH2 0x71 JUMPI DUP1 PUSH4 0xE4B16144 EQ PUSH2 0x4C4 JUMPI DUP1 PUSH4 0xEDE8CDFE EQ PUSH2 0x4D7 JUMPI DUP1 PUSH4 0xF2FDE38B EQ PUSH2 0x4EA JUMPI DUP1 PUSH4 0xFEAB4454 EQ PUSH2 0x4FD JUMPI PUSH2 0x1E5 JUMP JUMPDEST DUP1 PUSH4 0xC34FA842 EQ PUSH2 0x46F JUMPI DUP1 PUSH4 0xCCC07959 EQ PUSH2 0x482 JUMPI DUP1 PUSH4 0xD6935858 EQ PUSH2 0x4A9 JUMPI DUP1 PUSH4 0xE2D7E08E EQ PUSH2 0x4B1 JUMPI PUSH2 0x1E5 JUMP JUMPDEST DUP1 PUSH4 0xAF640D0F GT PUSH2 0xDE JUMPI DUP1 PUSH4 0xAF640D0F EQ PUSH2 0x410 JUMPI DUP1 PUSH4 0xB03FD40D EQ PUSH2 0x436 JUMPI DUP1 PUSH4 0xB23A43FC EQ PUSH2 0x449 JUMPI DUP1 PUSH4 0xB791F8A0 EQ PUSH2 0x45C JUMPI PUSH2 0x1E5 JUMP JUMPDEST DUP1 PUSH4 0x97962076 EQ PUSH2 0x3C7 JUMPI DUP1 PUSH4 0x9BC896F9 EQ PUSH2 0x3D7 JUMPI DUP1 PUSH4 0xA5EF794A EQ PUSH2 0x3EA JUMPI DUP1 PUSH4 0xA6610F02 EQ PUSH2 0x3FD JUMPI PUSH2 0x1E5 JUMP JUMPDEST DUP1 PUSH4 0x5F5C5BAA GT PUSH2 0x187 JUMPI DUP1 PUSH4 0x7A70482C GT PUSH2 0x156 JUMPI DUP1 PUSH4 0x7A70482C EQ PUSH2 0x36E JUMPI DUP1 PUSH4 0x7AF6649A EQ PUSH2 0x381 JUMPI DUP1 PUSH4 0x854BA99D EQ PUSH2 0x394 JUMPI DUP1 PUSH4 0x8DA5CB5B EQ PUSH2 0x39C JUMPI PUSH2 0x1E5 JUMP JUMPDEST DUP1 PUSH4 0x5F5C5BAA EQ PUSH2 0x32B JUMPI DUP1 PUSH4 0x62965141 EQ PUSH2 0x333 JUMPI DUP1 PUSH4 0x715018A6 EQ PUSH2 0x35E JUMPI DUP1 PUSH4 0x72EA61BF EQ PUSH2 0x366 JUMPI PUSH2 0x1E5 JUMP JUMPDEST DUP1 PUSH4 0x1EF4590D GT PUSH2 0x1C3 JUMPI DUP1 PUSH4 0x1EF4590D EQ PUSH2 0x2BD JUMPI DUP1 PUSH4 0x21603F43 EQ PUSH2 0x2D0 JUMPI DUP1 PUSH4 0x2203616D EQ PUSH2 0x2F0 JUMPI DUP1 PUSH4 0x5C42B710 EQ PUSH2 0x318 JUMPI PUSH2 0x1E5 JUMP JUMPDEST DUP1 PUSH4 0x1FFC9A7 EQ PUSH2 0x26A JUMPI DUP1 PUSH4 0x5D6BD9C EQ PUSH2 0x292 JUMPI DUP1 PUSH4 0xAF077BF EQ PUSH2 0x29C JUMPI JUMPDEST PUSH2 0x1ED PUSH2 0x527 JUMP JUMPDEST PUSH1 0x0 PUSH2 0x1FD PUSH1 0x24 PUSH1 0x4 CALLDATASIZE DUP5 PUSH2 0x4E55 JUMP JUMPDEST DUP1 DUP1 PUSH1 0x1F ADD PUSH1 0x20 DUP1 SWAP2 DIV MUL PUSH1 0x20 ADD PUSH1 0x40 MLOAD SWAP1 DUP2 ADD PUSH1 0x40 MSTORE DUP1 SWAP4 SWAP3 SWAP2 SWAP1 DUP2 DUP2 MSTORE PUSH1 0x20 ADD DUP4 DUP4 DUP1 DUP3 DUP5 CALLDATACOPY PUSH1 0x0 SWAP3 ADD DUP3 SWAP1 MSTORE POP PUSH1 0x20 DUP6 ADD MLOAD SWAP5 SWAP6 POP SWAP3 POP POP CALLDATASIZE PUSH1 0x23 NOT DUP2 ADD SWAP2 POP PUSH1 0x1F NOT ADD PUSH1 0x4 DUP4 DUP1 CALLDATACOPY DUP2 PUSH1 0x24 PUSH1 0x4 CALLDATACOPY PUSH1 0x0 DUP1 DUP3 PUSH1 0x0 DUP8 GAS DELEGATECALL SWAP3 POP POP POP PUSH2 0x265 DUP2 PUSH2 0x6F1 JUMP JUMPDEST POP POP POP STOP JUMPDEST PUSH2 0x27D PUSH2 0x278 CALLDATASIZE PUSH1 0x4 PUSH2 0x4E7F JUMP JUMPDEST PUSH2 0x70B JUMP JUMPDEST PUSH1 0x40 MLOAD SWAP1 ISZERO ISZERO DUP2 MSTORE PUSH1 0x20 ADD JUMPDEST PUSH1 0x40 MLOAD DUP1 SWAP2 SUB SWAP1 RETURN JUMPDEST PUSH2 0x29A PUSH2 0x742 JUMP JUMPDEST STOP JUMPDEST PUSH2 0x2AF PUSH2 0x2AA CALLDATASIZE PUSH1 0x4 PUSH2 0x4EBE JUMP JUMPDEST PUSH2 0x759 JUMP JUMPDEST PUSH1 0x40 MLOAD SWAP1 DUP2 MSTORE PUSH1 0x20 ADD PUSH2 0x289 JUMP JUMPDEST PUSH2 0x27D PUSH2 0x2CB CALLDATASIZE PUSH1 0x4 PUSH2 0x4F02 JUMP JUMPDEST PUSH2 0x8D2 JUMP JUMPDEST PUSH2 0x2E3 PUSH2 0x2DE CALLDATASIZE PUSH1 0x4 PUSH2 0x4F24 JUMP JUMPDEST PUSH2 0x963 JUMP JUMPDEST PUSH1 0x40 MLOAD PUSH2 0x289 SWAP2 SWAP1 PUSH2 0x4F75 JUMP JUMPDEST PUSH2 0x303 PUSH2 0x2FE CALLDATASIZE PUSH1 0x4 PUSH2 0x4F24 JUMP JUMPDEST PUSH2 0x976 JUMP JUMPDEST PUSH1 0x40 MLOAD PUSH4 0xFFFFFFFF SWAP1 SWAP2 AND DUP2 MSTORE PUSH1 0x20 ADD PUSH2 0x289 JUMP JUMPDEST PUSH2 0x2AF PUSH2 0x326 CALLDATASIZE PUSH1 0x4 PUSH2 0x5040 JUMP JUMPDEST PUSH2 0x987 JUMP JUMPDEST PUSH2 0x29A PUSH2 0x9A3 JUMP JUMPDEST PUSH2 0x346 PUSH2 0x341 CALLDATASIZE PUSH1 0x4 PUSH2 0x4F24 JUMP JUMPDEST PUSH2 0xAB8 JUMP JUMPDEST PUSH1 0x40 MLOAD PUSH1 0x1 PUSH1 0x1 PUSH1 0x40 SHL SUB SWAP1 SWAP2 AND DUP2 MSTORE PUSH1 0x20 ADD PUSH2 0x289 JUMP JUMPDEST PUSH2 0x29A PUSH2 0xAEA JUMP JUMPDEST PUSH2 0x29A PUSH2 0xAFC JUMP JUMPDEST PUSH2 0x2AF PUSH2 0x37C CALLDATASIZE PUSH1 0x4 PUSH2 0x4EBE JUMP JUMPDEST PUSH2 0xB16 JUMP JUMPDEST PUSH2 0x2AF PUSH2 0x38F CALLDATASIZE PUSH1 0x4 PUSH2 0x5091 JUMP JUMPDEST PUSH2 0x1234 JUMP JUMPDEST PUSH2 0x27D PUSH2 0x124D JUMP JUMPDEST PUSH1 0x0 SLOAD PUSH3 0x10000 SWAP1 DIV PUSH1 0x1 PUSH1 0x1 PUSH1 0xA0 SHL SUB AND JUMPDEST PUSH1 0x40 MLOAD PUSH1 0x1 PUSH1 0x1 PUSH1 0xA0 SHL SUB SWAP1 SWAP2 AND DUP2 MSTORE PUSH1 0x20 ADD PUSH2 0x289 JUMP JUMPDEST PUSH1 0x0 SLOAD PUSH2 0x100 SWAP1 DIV PUSH1 0xFF AND PUSH2 0x27D JUMP JUMPDEST PUSH2 0x29A PUSH2 0x3E5 CALLDATASIZE PUSH1 0x4 PUSH2 0x4F24 JUMP JUMPDEST PUSH2 0x126B JUMP JUMPDEST PUSH2 0x2AF PUSH2 0x3F8 CALLDATASIZE PUSH1 0x4 PUSH2 0x50B9 JUMP JUMPDEST PUSH2 0x13BB JUMP JUMPDEST PUSH2 0x2AF PUSH2 0x40B CALLDATASIZE PUSH1 0x4 PUSH2 0x50EB JUMP JUMPDEST PUSH2 0x13D3 JUMP JUMPDEST PUSH32 0xC79A5C5E1C7F6FAB1E75AB0E20E9522AA9EB363A0C70072C6DCB8A20F4A46AE4 PUSH2 0x2AF JUMP JUMPDEST PUSH2 0x2AF PUSH2 0x444 CALLDATASIZE PUSH1 0x4 PUSH2 0x5150 JUMP JUMPDEST PUSH2 0x22BA JUMP JUMPDEST PUSH2 0x2AF PUSH2 0x457 CALLDATASIZE PUSH1 0x4 PUSH2 0x50EB JUMP JUMPDEST PUSH2 0x22D4 JUMP JUMPDEST PUSH2 0x2AF PUSH2 0x46A CALLDATASIZE PUSH1 0x4 PUSH2 0x5179 JUMP JUMPDEST PUSH2 0x2464 JUMP JUMPDEST PUSH2 0x2AF PUSH2 0x47D CALLDATASIZE PUSH1 0x4 PUSH2 0x51E2 JUMP JUMPDEST PUSH2 0x25AB JUMP JUMPDEST PUSH2 0x3AF PUSH32 0x0 DUP2 JUMP JUMPDEST PUSH2 0x29A PUSH2 0x26AD JUMP JUMPDEST PUSH2 0x2AF PUSH2 0x4BF CALLDATASIZE PUSH1 0x4 PUSH2 0x526D JUMP JUMPDEST PUSH2 0x26C9 JUMP JUMPDEST PUSH2 0x2AF PUSH2 0x4D2 CALLDATASIZE PUSH1 0x4 PUSH2 0x52E5 JUMP JUMPDEST PUSH2 0x2731 JUMP JUMPDEST PUSH2 0x29A PUSH2 0x4E5 CALLDATASIZE PUSH1 0x4 PUSH2 0x4F24 JUMP JUMPDEST PUSH2 0x2748 JUMP JUMPDEST PUSH2 0x29A PUSH2 0x4F8 CALLDATASIZE PUSH1 0x4 PUSH2 0x530B JUMP JUMPDEST PUSH2 0x284D JUMP JUMPDEST PUSH2 0x510 PUSH2 0x50B CALLDATASIZE PUSH1 0x4 PUSH2 0x4F24 JUMP JUMPDEST PUSH2 0x28C6 JUMP JUMPDEST PUSH1 0x40 MLOAD PUSH6 0xFFFFFFFFFFFF SWAP1 SWAP2 AND DUP2 MSTORE PUSH1 0x20 ADD PUSH2 0x289 JUMP JUMPDEST PUSH1 0x0 SLOAD PUSH1 0x1 PUSH1 0x1 PUSH1 0xA0 SHL SUB PUSH3 0x10000 SWAP1 SWAP2 DIV AND CALLER EQ DUP1 PUSH2 0x5DA JUMPI POP PUSH1 0x1 PUSH1 0x1 PUSH1 0xA0 SHL SUB PUSH32 0x0 AND PUSH4 0x16279055 CALLER PUSH1 0x40 MLOAD PUSH1 0x1 PUSH1 0x1 PUSH1 0xE0 SHL SUB NOT PUSH1 0xE0 DUP5 SWAP1 SHL AND DUP2 MSTORE PUSH1 0x1 PUSH1 0x1 PUSH1 0xA0 SHL SUB SWAP1 SWAP2 AND PUSH1 0x4 DUP3 ADD MSTORE PUSH1 0x24 ADD PUSH1 0x20 PUSH1 0x40 MLOAD DUP1 DUP4 SUB DUP2 DUP7 GAS STATICCALL ISZERO DUP1 ISZERO PUSH2 0x5B6 JUMPI RETURNDATASIZE PUSH1 0x0 DUP1 RETURNDATACOPY RETURNDATASIZE PUSH1 0x0 REVERT JUMPDEST POP POP POP POP PUSH1 0x40 MLOAD RETURNDATASIZE PUSH1 0x1F NOT PUSH1 0x1F DUP3 ADD AND DUP3 ADD DUP1 PUSH1 0x40 MSTORE POP DUP2 ADD SWAP1 PUSH2 0x5DA SWAP2 SWAP1 PUSH2 0x5328 JUMP JUMPDEST DUP1 PUSH2 0x678 JUMPI POP PUSH1 0x1 PUSH1 0x1 PUSH1 0xA0 SHL SUB PUSH32 0x0 AND PUSH4 0x6D70F7AE CALLER PUSH1 0x40 MLOAD PUSH1 0x1 PUSH1 0x1 PUSH1 0xE0 SHL SUB NOT PUSH1 0xE0 DUP5 SWAP1 SHL AND DUP2 MSTORE PUSH1 0x1 PUSH1 0x1 PUSH1 0xA0 SHL SUB SWAP1 SWAP2 AND PUSH1 0x4 DUP3 ADD MSTORE PUSH1 0x24 ADD PUSH1 0x20 PUSH1 0x40 MLOAD DUP1 DUP4 SUB DUP2 DUP7 GAS STATICCALL ISZERO DUP1 ISZERO PUSH2 0x654 JUMPI RETURNDATASIZE PUSH1 0x0 DUP1 RETURNDATACOPY RETURNDATASIZE PUSH1 0x0 REVERT JUMPDEST POP POP POP POP PUSH1 0x40 MLOAD RETURNDATASIZE PUSH1 0x1F NOT PUSH1 0x1F DUP3 ADD AND DUP3 ADD DUP1 PUSH1 0x40 MSTORE POP DUP2 ADD SWAP1 PUSH2 0x678 SWAP2 SWAP1 PUSH2 0x5328 JUMP JUMPDEST PUSH2 0x6EF JUMPI PUSH1 0x40 MLOAD PUSH3 0x461BCD PUSH1 0xE5 SHL DUP2 MSTORE PUSH1 0x20 PUSH1 0x4 DUP3 ADD MSTORE PUSH1 0x39 PUSH1 0x24 DUP3 ADD MSTORE PUSH32 0x416C6C6F77616E63653A2063616C6C6572206D757374206265205265706F7369 PUSH1 0x44 DUP3 ADD MSTORE PUSH32 0x746F727920436F6E7472616374206F72204F70657261746F7200000000000000 PUSH1 0x64 DUP3 ADD MSTORE PUSH1 0x84 ADD JUMPDEST PUSH1 0x40 MLOAD DUP1 SWAP2 SUB SWAP1 REVERT JUMPDEST JUMP JUMPDEST RETURNDATASIZE PUSH1 0x0 DUP1 RETURNDATACOPY DUP1 DUP1 ISZERO PUSH2 0x702 JUMPI RETURNDATASIZE PUSH1 0x0 RETURN JUMPDEST RETURNDATASIZE PUSH1 0x0 REVERT JUMPDEST POP POP JUMP JUMPDEST PUSH1 0x0 PUSH1 0x1 PUSH1 0x1 PUSH1 0xE0 SHL SUB NOT DUP3 AND PUSH4 0x1FFC9A7 PUSH1 0xE0 SHL EQ DUP1 PUSH2 0x73C JUMPI POP PUSH1 0x1 PUSH1 0x1 PUSH1 0xE0 SHL SUB NOT DUP3 AND PUSH4 0x15D37895 PUSH1 0xE3 SHL EQ JUMPDEST SWAP3 SWAP2 POP POP JUMP JUMPDEST PUSH2 0x74A PUSH2 0x527 JUMP JUMPDEST PUSH2 0x6EF PUSH1 0x0 DUP1 SLOAD PUSH1 0xFF NOT AND SWAP1 SSTORE JUMP JUMPDEST PUSH1 0x40 MLOAD PUSH4 0x23AA9AB PUSH1 0xE6 SHL DUP2 MSTORE PUSH32 0x2E7A327EF83C2AF7579C6634F2F5604519800C5F07626F27BD602FD11ED8E6EC PUSH1 0x4 DUP3 ADD MSTORE PUSH1 0x0 SWAP1 DUP2 SWAP1 PUSH1 0x1 PUSH1 0x1 PUSH1 0xA0 SHL SUB PUSH32 0x0 AND SWAP1 PUSH4 0x8EAA6AC0 SWAP1 PUSH1 0x24 ADD PUSH1 0x20 PUSH1 0x40 MLOAD DUP1 DUP4 SUB DUP2 DUP7 GAS STATICCALL ISZERO DUP1 ISZERO PUSH2 0x7E2 JUMPI RETURNDATASIZE PUSH1 0x0 DUP1 RETURNDATACOPY RETURNDATASIZE PUSH1 0x0 REVERT JUMPDEST POP POP POP POP PUSH1 0x40 MLOAD RETURNDATASIZE PUSH1 0x1F NOT PUSH1 0x1F DUP3 ADD AND DUP3 ADD DUP1 PUSH1 0x40 MSTORE POP DUP2 ADD SWAP1 PUSH2 0x806 SWAP2 SWAP1 PUSH2 0x534A JUMP JUMPDEST PUSH1 0x40 DUP1 MLOAD ADDRESS PUSH1 0x24 DUP3 ADD MSTORE PUSH1 0x1 PUSH1 0x1 PUSH1 0xA0 SHL SUB DUP11 DUP2 AND PUSH1 0x44 DUP4 ADD MSTORE PUSH1 0x64 DUP3 ADD DUP11 SWAP1 MSTORE PUSH1 0x84 DUP3 ADD DUP10 SWAP1 MSTORE PUSH1 0xA4 DUP3 ADD DUP9 SWAP1 MSTORE PUSH1 0xC4 DUP1 DUP4 ADD DUP9 SWAP1 MSTORE DUP4 MLOAD DUP1 DUP5 SUB SWAP1 SWAP2 ADD DUP2 MSTORE PUSH1 0xE4 SWAP1 SWAP3 ADD DUP4 MSTORE PUSH1 0x20 DUP3 ADD DUP1 MLOAD PUSH1 0x1 PUSH1 0x1 PUSH1 0xE0 SHL SUB AND PUSH4 0x1DE754D PUSH1 0xE6 SHL OR SWAP1 MSTORE SWAP2 MLOAD SWAP3 SWAP1 SWAP2 AND SWAP2 PUSH2 0x879 SWAP2 SWAP1 PUSH2 0x5367 JUMP JUMPDEST PUSH1 0x0 PUSH1 0x40 MLOAD DUP1 DUP4 SUB DUP2 PUSH1 0x0 DUP7 GAS CALL SWAP2 POP POP RETURNDATASIZE DUP1 PUSH1 0x0 DUP2 EQ PUSH2 0x8B6 JUMPI PUSH1 0x40 MLOAD SWAP2 POP PUSH1 0x1F NOT PUSH1 0x3F RETURNDATASIZE ADD AND DUP3 ADD PUSH1 0x40 MSTORE RETURNDATASIZE DUP3 MSTORE RETURNDATASIZE PUSH1 0x0 PUSH1 0x20 DUP5 ADD RETURNDATACOPY PUSH2 0x8BB JUMP JUMPDEST PUSH1 0x60 SWAP2 POP JUMPDEST POP POP SWAP1 POP PUSH2 0x8C8 DUP2 PUSH2 0x6F1 JUMP JUMPDEST POP SWAP6 SWAP5 POP POP POP POP POP JUMP JUMPDEST PUSH1 0x0 DUP3 DUP2 MSTORE PUSH1 0x1 PUSH1 0x20 MSTORE PUSH1 0x40 DUP1 DUP3 KECCAK256 SWAP1 MLOAD PUSH4 0x2BE5DB23 PUSH1 0xE1 SHL DUP2 MSTORE PUSH1 0x4 DUP2 ADD SWAP2 SWAP1 SWAP2 MSTORE PUSH1 0x24 DUP2 ADD DUP4 SWAP1 MSTORE PUSH20 0x0 SWAP1 PUSH4 0x57CBB646 SWAP1 PUSH1 0x44 ADD PUSH1 0x20 PUSH1 0x40 MLOAD DUP1 DUP4 SUB DUP2 DUP7 GAS DELEGATECALL ISZERO DUP1 ISZERO PUSH2 0x938 JUMPI RETURNDATASIZE PUSH1 0x0 DUP1 RETURNDATACOPY RETURNDATASIZE PUSH1 0x0 REVERT JUMPDEST POP POP POP POP PUSH1 0x40 MLOAD RETURNDATASIZE PUSH1 0x1F NOT PUSH1 0x1F DUP3 ADD AND DUP3 ADD DUP1 PUSH1 0x40 MSTORE POP DUP2 ADD SWAP1 PUSH2 0x95C SWAP2 SWAP1 PUSH2 0x5328 JUMP JUMPDEST SWAP4 SWAP3 POP POP POP JUMP JUMPDEST PUSH2 0x96B PUSH2 0x4DC6 JUMP JUMPDEST PUSH2 0x73C DUP3 PUSH1 0x0 PUSH2 0x28D7 JUMP JUMPDEST PUSH1 0x0 PUSH2 0x73C PUSH5 0xE8D4A51000 DUP4 PUSH2 0x53B8 JUMP JUMPDEST PUSH1 0x0 PUSH2 0x998 CALLER DUP9 DUP9 DUP9 DUP9 DUP9 DUP9 PUSH2 0x22D4 JUMP JUMPDEST SWAP8 SWAP7 POP POP POP POP POP POP POP JUMP JUMPDEST PUSH1 0x0 SLOAD PUSH1 0x1 PUSH1 0x1 PUSH1 0xA0 SHL SUB PUSH3 0x10000 SWAP1 SWAP2 DIV AND CALLER EQ DUP1 PUSH2 0xA56 JUMPI POP PUSH1 0x1 PUSH1 0x1 PUSH1 0xA0 SHL SUB PUSH32 0x0 AND PUSH4 0x6D70F7AE CALLER PUSH1 0x40 MLOAD PUSH1 0x1 PUSH1 0x1 PUSH1 0xE0 SHL SUB NOT PUSH1 0xE0 DUP5 SWAP1 SHL AND DUP2 MSTORE PUSH1 0x1 PUSH1 0x1 PUSH1 0xA0 SHL SUB SWAP1 SWAP2 AND PUSH1 0x4 DUP3 ADD MSTORE PUSH1 0x24 ADD PUSH1 0x20 PUSH1 0x40 MLOAD DUP1 DUP4 SUB DUP2 DUP7 GAS STATICCALL ISZERO DUP1 ISZERO PUSH2 0xA32 JUMPI RETURNDATASIZE PUSH1 0x0 DUP1 RETURNDATACOPY RETURNDATASIZE PUSH1 0x0 REVERT JUMPDEST POP POP POP POP PUSH1 0x40 MLOAD RETURNDATASIZE PUSH1 0x1F NOT PUSH1 0x1F DUP3 ADD AND DUP3 ADD DUP1 PUSH1 0x40 MSTORE POP DUP2 ADD SWAP1 PUSH2 0xA56 SWAP2 SWAP1 PUSH2 0x5328 JUMP JUMPDEST PUSH2 0x6EF JUMPI PUSH1 0x40 MLOAD PUSH3 0x461BCD PUSH1 0xE5 SHL DUP2 MSTORE PUSH1 0x20 PUSH1 0x4 DUP3 ADD MSTORE PUSH1 0x2D PUSH1 0x24 DUP3 ADD MSTORE PUSH32 0x416C6C6F77616E63653A2063616C6C6572206D757374206265205265706F7369 PUSH1 0x44 DUP3 ADD MSTORE PUSH13 0x3A37B93C9027B832B930BA37B9 PUSH1 0x99 SHL PUSH1 0x64 DUP3 ADD MSTORE PUSH1 0x84 ADD PUSH2 0x6E6 JUMP JUMPDEST PUSH1 0x0 DUP1 PUSH2 0xACA PUSH5 0x2540BE400 DUP5 PUSH2 0x53B8 JUMP JUMPDEST SWAP1 POP DUP3 PUSH2 0xADC DUP3 PUSH5 0x2540BE400 PUSH2 0x53DA JUMP JUMPDEST GT ISZERO PUSH2 0x73C JUMPI PUSH2 0x73C PUSH2 0x53F9 JUMP JUMPDEST PUSH2 0xAF2 PUSH2 0x3029 JUMP JUMPDEST PUSH2 0x6EF PUSH1 0x0 PUSH2 0x308A JUMP JUMPDEST PUSH2 0xB04 PUSH2 0x527 JUMP JUMPDEST PUSH2 0x6EF PUSH1 0x0 DUP1 SLOAD PUSH1 0xFF NOT AND PUSH1 0x1 OR SWAP1 SSTORE JUMP JUMPDEST PUSH1 0x0 PUSH2 0xB20 PUSH2 0x124D JUMP JUMPDEST ISZERO PUSH2 0xB3D JUMPI PUSH1 0x40 MLOAD PUSH3 0x461BCD PUSH1 0xE5 SHL DUP2 MSTORE PUSH1 0x4 ADD PUSH2 0x6E6 SWAP1 PUSH2 0x540F JUMP JUMPDEST PUSH32 0x0 PUSH1 0x1 PUSH1 0x1 PUSH1 0xA0 SHL SUB AND PUSH4 0x4635229B PUSH1 0x40 MLOAD DUP2 PUSH4 0xFFFFFFFF AND PUSH1 0xE0 SHL DUP2 MSTORE PUSH1 0x4 ADD PUSH1 0x20 PUSH1 0x40 MLOAD DUP1 DUP4 SUB DUP2 DUP7 GAS STATICCALL ISZERO DUP1 ISZERO PUSH2 0xB9B JUMPI RETURNDATASIZE PUSH1 0x0 DUP1 RETURNDATACOPY RETURNDATASIZE PUSH1 0x0 REVERT JUMPDEST POP POP POP POP PUSH1 0x40 MLOAD RETURNDATASIZE PUSH1 0x1F NOT PUSH1 0x1F DUP3 ADD AND DUP3 ADD DUP1 PUSH1 0x40 MSTORE POP DUP2 ADD SWAP1 PUSH2 0xBBF SWAP2 SWAP1 PUSH2 0x5328 JUMP JUMPDEST DUP1 PUSH2 0xBD2 JUMPI POP PUSH1 0x1 PUSH1 0x1 PUSH1 0xA0 SHL SUB DUP7 AND CALLER EQ JUMPDEST PUSH2 0xC34 JUMPI PUSH1 0x40 MLOAD PUSH3 0x461BCD PUSH1 0xE5 SHL DUP2 MSTORE PUSH1 0x20 PUSH1 0x4 DUP3 ADD MSTORE PUSH1 0x2D PUSH1 0x24 DUP3 ADD MSTORE PUSH32 0x4D757374206265206163636F756E743D3D5F6D736753656E6465722829206F72 PUSH1 0x44 DUP3 ADD MSTORE PUSH13 0x204D6F64652054657374696E67 PUSH1 0x98 SHL PUSH1 0x64 DUP3 ADD MSTORE PUSH1 0x84 ADD PUSH2 0x6E6 JUMP JUMPDEST PUSH1 0x0 DUP6 DUP2 MSTORE PUSH1 0x5 PUSH1 0x20 MSTORE PUSH1 0x40 DUP1 DUP3 KECCAK256 DUP1 SLOAD SWAP2 MLOAD PUSH4 0x657C7E09 PUSH1 0xE0 SHL DUP2 MSTORE PUSH1 0x4 DUP2 ADD SWAP3 SWAP1 SWAP3 MSTORE SWAP2 SWAP1 DUP2 SWAP1 PUSH32 0x0 PUSH1 0x1 PUSH1 0x1 PUSH1 0xA0 SHL SUB AND SWAP1 PUSH4 0x657C7E09 SWAP1 PUSH1 0x24 ADD PUSH1 0x40 DUP1 MLOAD DUP1 DUP4 SUB DUP2 DUP7 GAS STATICCALL ISZERO DUP1 ISZERO PUSH2 0xCAD JUMPI RETURNDATASIZE PUSH1 0x0 DUP1 RETURNDATACOPY RETURNDATASIZE PUSH1 0x0 REVERT JUMPDEST POP POP POP POP PUSH1 0x40 MLOAD RETURNDATASIZE PUSH1 0x1F NOT PUSH1 0x1F DUP3 ADD AND DUP3 ADD DUP1 PUSH1 0x40 MSTORE POP DUP2 ADD SWAP1 PUSH2 0xCD1 SWAP2 SWAP1 PUSH2 0x5439 JUMP JUMPDEST PUSH1 0x40 MLOAD PUSH4 0x23AA9AB PUSH1 0xE6 SHL DUP2 MSTORE PUSH1 0x0 DUP1 MLOAD PUSH1 0x20 PUSH2 0x5844 DUP4 CODECOPY DUP2 MLOAD SWAP2 MSTORE PUSH1 0x4 DUP3 ADD MSTORE SWAP2 SWAP4 POP SWAP2 POP PUSH32 0x0 PUSH1 0x1 PUSH1 0x1 PUSH1 0xA0 SHL SUB AND SWAP1 PUSH4 0x8EAA6AC0 SWAP1 PUSH1 0x24 ADD PUSH1 0x20 PUSH1 0x40 MLOAD DUP1 DUP4 SUB DUP2 DUP7 GAS STATICCALL ISZERO DUP1 ISZERO PUSH2 0xD48 JUMPI RETURNDATASIZE PUSH1 0x0 DUP1 RETURNDATACOPY RETURNDATASIZE PUSH1 0x0 REVERT JUMPDEST POP POP POP POP PUSH1 0x40 MLOAD RETURNDATASIZE PUSH1 0x1F NOT PUSH1 0x1F DUP3 ADD AND DUP3 ADD DUP1 PUSH1 0x40 MSTORE POP DUP2 ADD SWAP1 PUSH2 0xD6C SWAP2 SWAP1 PUSH2 0x534A JUMP JUMPDEST PUSH1 0x40 MLOAD PUSH4 0x4E68F20F PUSH1 0xE1 SHL DUP2 MSTORE PUSH1 0x4 DUP2 ADD DUP4 SWAP1 MSTORE PUSH1 0x1 PUSH1 0x1 PUSH1 0xA0 SHL SUB DUP12 DUP2 AND PUSH1 0x24 DUP4 ADD MSTORE SWAP2 SWAP1 SWAP2 AND SWAP1 PUSH4 0x9CD1E41E SWAP1 PUSH1 0x44 ADD PUSH1 0x20 PUSH1 0x40 MLOAD DUP1 DUP4 SUB DUP2 DUP7 GAS STATICCALL ISZERO DUP1 ISZERO PUSH2 0xDBB JUMPI RETURNDATASIZE PUSH1 0x0 DUP1 RETURNDATACOPY RETURNDATASIZE PUSH1 0x0 REVERT JUMPDEST POP POP POP POP PUSH1 0x40 MLOAD RETURNDATASIZE PUSH1 0x1F NOT PUSH1 0x1F DUP3 ADD AND DUP3 ADD DUP1 PUSH1 0x40 MSTORE POP DUP2 ADD SWAP1 PUSH2 0xDDF SWAP2 SWAP1 PUSH2 0x545D JUMP JUMPDEST PUSH8 0xDE0B6B3A7640000 PUSH2 0xDF2 DUP9 DUP11 PUSH2 0x53DA JUMP JUMPDEST PUSH2 0xDFC SWAP2 SWAP1 PUSH2 0x53B8 JUMP JUMPDEST GT ISZERO PUSH2 0xE4A JUMPI PUSH1 0x40 MLOAD PUSH3 0x461BCD PUSH1 0xE5 SHL DUP2 MSTORE PUSH1 0x20 PUSH1 0x4 DUP3 ADD MSTORE PUSH1 0x1A PUSH1 0x24 DUP3 ADD MSTORE PUSH32 0x42616E6B3A204E6F7420656E6F75676820617661696C61626C65000000000000 PUSH1 0x44 DUP3 ADD MSTORE PUSH1 0x64 ADD PUSH2 0x6E6 JUMP JUMPDEST PUSH1 0x1 DUP4 ADD SLOAD PUSH1 0x40 MLOAD PUSH4 0x5B7D0F69 PUSH1 0xE1 SHL DUP2 MSTORE PUSH1 0x1 PUSH1 0xA8 SHL SWAP1 SWAP2 DIV PUSH1 0xFF AND PUSH1 0x4 DUP3 ADD MSTORE PUSH1 0x0 SWAP1 PUSH20 0x0 SWAP1 PUSH4 0xB6FA1ED2 SWAP1 PUSH1 0x24 ADD PUSH1 0x20 PUSH1 0x40 MLOAD DUP1 DUP4 SUB DUP2 DUP7 GAS DELEGATECALL ISZERO DUP1 ISZERO PUSH2 0xEAB JUMPI RETURNDATASIZE PUSH1 0x0 DUP1 RETURNDATACOPY RETURNDATASIZE PUSH1 0x0 REVERT JUMPDEST POP POP POP POP PUSH1 0x40 MLOAD RETURNDATASIZE PUSH1 0x1F NOT PUSH1 0x1F DUP3 ADD AND DUP3 ADD DUP1 PUSH1 0x40 MSTORE POP DUP2 ADD SWAP1 PUSH2 0xECF SWAP2 SWAP1 PUSH2 0x5328 JUMP JUMPDEST ISZERO PUSH2 0xFFA JUMPI PUSH1 0x40 MLOAD PUSH4 0x23AA9AB PUSH1 0xE6 SHL DUP2 MSTORE PUSH32 0x3CB99135F7A7C088D9085B446345038A22A85F4E8FE072B0E1B66D97243E7458 PUSH1 0x4 DUP3 ADD MSTORE PUSH32 0x0 PUSH1 0x1 PUSH1 0x1 PUSH1 0xA0 SHL SUB AND SWAP1 PUSH4 0x8EAA6AC0 SWAP1 PUSH1 0x24 ADD PUSH1 0x20 PUSH1 0x40 MLOAD DUP1 DUP4 SUB DUP2 DUP7 GAS STATICCALL ISZERO DUP1 ISZERO PUSH2 0xF58 JUMPI RETURNDATASIZE PUSH1 0x0 DUP1 RETURNDATACOPY RETURNDATASIZE PUSH1 0x0 REVERT JUMPDEST POP POP POP POP PUSH1 0x40 MLOAD RETURNDATASIZE PUSH1 0x1F NOT PUSH1 0x1F DUP3 ADD AND DUP3 ADD DUP1 PUSH1 0x40 MSTORE POP DUP2 ADD SWAP1 PUSH2 0xF7C SWAP2 SWAP1 PUSH2 0x534A JUMP JUMPDEST PUSH1 0x40 MLOAD PUSH4 0x32F30779 PUSH1 0xE1 SHL DUP2 MSTORE PUSH1 0x4 DUP2 ADD DUP6 SWAP1 MSTORE PUSH1 0x24 DUP2 ADD DUP5 SWAP1 MSTORE PUSH1 0x1 PUSH1 0x1 PUSH1 0xA0 SHL SUB SWAP2 SWAP1 SWAP2 AND SWAP1 PUSH4 0x65E60EF2 SWAP1 PUSH1 0x44 ADD PUSH1 0x60 PUSH1 0x40 MLOAD DUP1 DUP4 SUB DUP2 PUSH1 0x0 DUP8 GAS CALL ISZERO DUP1 ISZERO PUSH2 0xFCC JUMPI RETURNDATASIZE PUSH1 0x0 DUP1 RETURNDATACOPY RETURNDATASIZE PUSH1 0x0 REVERT JUMPDEST POP POP POP POP PUSH1 0x40 MLOAD RETURNDATASIZE PUSH1 0x1F NOT PUSH1 0x1F DUP3 ADD AND DUP3 ADD DUP1 PUSH1 0x40 MSTORE POP DUP2 ADD SWAP1 PUSH2 0xFF0 SWAP2 SWAP1 PUSH2 0x5476 JUMP JUMPDEST POP SWAP2 POP PUSH2 0x101B SWAP1 POP JUMP JUMPDEST PUSH1 0x3 DUP5 ADD SLOAD PUSH2 0x1018 SWAP1 PUSH1 0x1 PUSH1 0xC0 SHL SWAP1 DIV PUSH1 0x1 PUSH1 0x1 PUSH1 0x40 SHL SUB AND PUSH2 0x22BA JUMP JUMPDEST SWAP1 POP JUMPDEST PUSH8 0xDE0B6B3A7640000 PUSH2 0x102E DUP8 DUP3 PUSH2 0x54A4 JUMP JUMPDEST PUSH2 0x1038 SWAP1 DUP10 PUSH2 0x53DA JUMP JUMPDEST PUSH2 0x1042 SWAP2 SWAP1 PUSH2 0x53B8 JUMP JUMPDEST DUP2 GT ISZERO DUP1 ISZERO PUSH2 0x1077 JUMPI POP PUSH8 0xDE0B6B3A7640000 PUSH2 0x105F DUP8 DUP3 PUSH2 0x54BB JUMP JUMPDEST PUSH2 0x1069 SWAP1 DUP10 PUSH2 0x53DA JUMP JUMPDEST PUSH2 0x1073 SWAP2 SWAP1 PUSH2 0x53B8 JUMP JUMPDEST DUP2 LT ISZERO JUMPDEST PUSH2 0x10C3 JUMPI PUSH1 0x40 MLOAD PUSH3 0x461BCD PUSH1 0xE5 SHL DUP2 MSTORE PUSH1 0x20 PUSH1 0x4 DUP3 ADD MSTORE PUSH1 0x1C PUSH1 0x24 DUP3 ADD MSTORE PUSH32 0x51756F746520536C6970706564206F76657220746F6C6572616E636500000000 PUSH1 0x44 DUP3 ADD MSTORE PUSH1 0x64 ADD PUSH2 0x6E6 JUMP JUMPDEST PUSH1 0x0 DUP2 PUSH2 0x10D0 DUP10 DUP12 PUSH2 0x53DA JUMP JUMPDEST PUSH2 0x10DA SWAP2 SWAP1 PUSH2 0x53B8 JUMP JUMPDEST PUSH1 0x3 DUP7 ADD SLOAD SWAP1 SWAP2 POP PUSH1 0x0 SWAP1 PUSH2 0x1105 SWAP1 PUSH2 0x444 SWAP1 PUSH1 0x1 PUSH1 0x1 PUSH1 0x40 SHL SUB PUSH1 0x1 PUSH1 0x40 SHL DUP3 DIV DUP2 AND SWAP2 AND PUSH2 0x54D3 JUMP JUMPDEST SWAP1 POP DUP2 DUP2 LT ISZERO PUSH2 0x1113 JUMPI DUP1 SWAP2 POP JUMPDEST PUSH2 0x1120 DUP7 DUP14 PUSH1 0x0 DUP14 PUSH2 0x30E5 JUMP JUMPDEST PUSH2 0x1129 DUP11 PUSH2 0xAB8 JUMP JUMPDEST PUSH1 0x3 DUP8 ADD DUP1 SLOAD PUSH1 0x8 SWAP1 PUSH2 0x114D SWAP1 DUP5 SWAP1 PUSH1 0x1 PUSH1 0x40 SHL SWAP1 DIV PUSH1 0x1 PUSH1 0x1 PUSH1 0x40 SHL SUB AND PUSH2 0x54FB JUMP JUMPDEST DUP3 SLOAD PUSH2 0x100 SWAP3 SWAP1 SWAP3 EXP PUSH1 0x1 PUSH1 0x1 PUSH1 0x40 SHL SUB DUP2 DUP2 MUL NOT SWAP1 SWAP4 AND SWAP2 DUP4 AND MUL OR SWAP1 SWAP2 SSTORE PUSH1 0x3 DUP9 ADD SLOAD PUSH1 0x1 PUSH1 0x80 SHL DUP2 DIV DUP3 AND PUSH1 0x1 PUSH1 0x40 SHL SWAP1 SWAP2 DIV SWAP1 SWAP2 AND EQ ISZERO SWAP1 POP PUSH2 0x1199 JUMPI PUSH2 0x1199 DUP7 PUSH1 0x3 PUSH2 0x387F JUMP JUMPDEST PUSH1 0x1 DUP7 ADD SLOAD PUSH1 0x40 DUP1 MLOAD PUSH1 0x1 PUSH1 0x1 PUSH1 0xA0 SHL SUB SWAP3 DUP4 AND DUP2 MSTORE SWAP2 DUP15 AND PUSH1 0x20 DUP4 ADD MSTORE DUP2 ADD DUP5 SWAP1 MSTORE PUSH1 0x60 DUP2 ADD DUP4 SWAP1 MSTORE DUP5 SWAP1 DUP7 SWAP1 PUSH32 0x49DA6C773C11F8E65FD2FFB9512FA3F24DC8759FBCEDB687F0B59694ADC1D343 SWAP1 PUSH1 0x80 ADD PUSH1 0x40 MLOAD DUP1 SWAP2 SUB SWAP1 LOG3 PUSH1 0x3 PUSH1 0x1 DUP8 ADD SLOAD PUSH1 0x1 PUSH1 0xA0 SHL SWAP1 DIV PUSH1 0xFF AND PUSH1 0x5 DUP2 GT ISZERO PUSH2 0x1216 JUMPI PUSH2 0x1216 PUSH2 0x4F3D JUMP JUMPDEST GT PUSH2 0x1224 JUMPI PUSH2 0x1224 DUP7 PUSH2 0x3D71 JUMP JUMPDEST POP SWAP8 SWAP11 SWAP10 POP POP POP POP POP POP POP POP POP POP JUMP JUMPDEST PUSH1 0x0 PUSH2 0x73C PUSH6 0xFFFFFFFFFFFF DUP4 AND PUSH5 0x174876E800 PUSH2 0x53DA JUMP JUMPDEST PUSH1 0x0 DUP1 SLOAD PUSH1 0xFF AND DUP1 PUSH2 0x1266 JUMPI POP PUSH1 0x0 SLOAD PUSH2 0x100 SWAP1 DIV PUSH1 0xFF AND JUMPDEST SWAP1 POP SWAP1 JUMP JUMPDEST PUSH1 0x40 MLOAD PUSH4 0x23AA9AB PUSH1 0xE6 SHL DUP2 MSTORE PUSH32 0x2E7A327EF83C2AF7579C6634F2F5604519800C5F07626F27BD602FD11ED8E6EC PUSH1 0x4 DUP3 ADD MSTORE PUSH1 0x0 SWAP1 PUSH32 0x0 PUSH1 0x1 PUSH1 0x1 PUSH1 0xA0 SHL SUB AND SWAP1 PUSH4 0x8EAA6AC0 SWAP1 PUSH1 0x24 ADD PUSH1 0x20 PUSH1 0x40 MLOAD DUP1 DUP4 SUB DUP2 DUP7 GAS STATICCALL ISZERO DUP1 ISZERO PUSH2 0x12F2 JUMPI RETURNDATASIZE PUSH1 0x0 DUP1 RETURNDATACOPY RETURNDATASIZE PUSH1 0x0 REVERT JUMPDEST POP POP POP POP PUSH1 0x40 MLOAD RETURNDATASIZE PUSH1 0x1F NOT PUSH1 0x1F DUP3 ADD AND DUP3 ADD DUP1 PUSH1 0x40 MSTORE POP DUP2 ADD SWAP1 PUSH2 0x1316 SWAP2 SWAP1 PUSH2 0x534A JUMP JUMPDEST PUSH1 0x40 DUP1 MLOAD ADDRESS PUSH1 0x24 DUP3 ADD MSTORE PUSH1 0x44 DUP1 DUP3 ADD DUP7 SWAP1 MSTORE DUP3 MLOAD DUP1 DUP4 SUB SWAP1 SWAP2 ADD DUP2 MSTORE PUSH1 0x64 SWAP1 SWAP2 ADD DUP3 MSTORE PUSH1 0x20 DUP2 ADD DUP1 MLOAD PUSH1 0x1 PUSH1 0x1 PUSH1 0xE0 SHL SUB AND PUSH4 0x76F466FF PUSH1 0xE1 SHL OR SWAP1 MSTORE SWAP1 MLOAD PUSH1 0x1 PUSH1 0x1 PUSH1 0xA0 SHL SUB SWAP3 SWAP1 SWAP3 AND SWAP2 PUSH2 0x136C SWAP2 SWAP1 PUSH2 0x5367 JUMP JUMPDEST PUSH1 0x0 PUSH1 0x40 MLOAD DUP1 DUP4 SUB DUP2 PUSH1 0x0 DUP7 GAS CALL SWAP2 POP POP RETURNDATASIZE DUP1 PUSH1 0x0 DUP2 EQ PUSH2 0x13A9 JUMPI PUSH1 0x40 MLOAD SWAP2 POP PUSH1 0x1F NOT PUSH1 0x3F RETURNDATASIZE ADD AND DUP3 ADD PUSH1 0x40 MSTORE RETURNDATASIZE DUP3 MSTORE RETURNDATASIZE PUSH1 0x0 PUSH1 0x20 DUP5 ADD RETURNDATACOPY PUSH2 0x13AE JUMP JUMPDEST PUSH1 0x60 SWAP2 POP JUMPDEST POP POP SWAP1 POP PUSH2 0x707 DUP2 PUSH2 0x6F1 JUMP JUMPDEST PUSH1 0x0 PUSH2 0x13CA CALLER DUP7 DUP7 DUP7 DUP7 PUSH2 0x759 JUMP JUMPDEST SWAP6 SWAP5 POP POP POP POP POP JUMP JUMPDEST PUSH1 0x0 PUSH2 0x13DD PUSH2 0x124D JUMP JUMPDEST ISZERO PUSH2 0x13FA JUMPI PUSH1 0x40 MLOAD PUSH3 0x461BCD PUSH1 0xE5 SHL DUP2 MSTORE PUSH1 0x4 ADD PUSH2 0x6E6 SWAP1 PUSH2 0x540F JUMP JUMPDEST PUSH32 0x0 PUSH1 0x1 PUSH1 0x1 PUSH1 0xA0 SHL SUB AND PUSH4 0x4635229B PUSH1 0x40 MLOAD DUP2 PUSH4 0xFFFFFFFF AND PUSH1 0xE0 SHL DUP2 MSTORE PUSH1 0x4 ADD PUSH1 0x20 PUSH1 0x40 MLOAD DUP1 DUP4 SUB DUP2 DUP7 GAS STATICCALL ISZERO DUP1 ISZERO PUSH2 0x1458 JUMPI RETURNDATASIZE PUSH1 0x0 DUP1 RETURNDATACOPY RETURNDATASIZE PUSH1 0x0 REVERT JUMPDEST POP POP POP POP PUSH1 0x40 MLOAD RETURNDATASIZE PUSH1 0x1F NOT PUSH1 0x1F DUP3 ADD AND DUP3 ADD DUP1 PUSH1 0x40 MSTORE POP DUP2 ADD SWAP1 PUSH2 0x147C SWAP2 SWAP1 PUSH2 0x5328 JUMP JUMPDEST DUP1 PUSH2 0x148F JUMPI POP PUSH1 0x1 PUSH1 0x1 PUSH1 0xA0 SHL SUB DUP9 AND CALLER EQ JUMPDEST PUSH2 0x14AB JUMPI PUSH1 0x40 MLOAD PUSH3 0x461BCD PUSH1 0xE5 SHL DUP2 MSTORE PUSH1 0x4 ADD PUSH2 0x6E6 SWAP1 PUSH2 0x5526 JUMP JUMPDEST PUSH1 0x40 MLOAD PUSH4 0xC5537EB7 PUSH1 0xE0 SHL DUP2 MSTORE PUSH1 0x4 DUP2 ADD DUP9 SWAP1 MSTORE PUSH2 0x800 PUSH1 0x24 DUP3 ADD MSTORE PUSH32 0x0 PUSH1 0x1 PUSH1 0x1 PUSH1 0xA0 SHL SUB AND SWAP1 PUSH4 0xC5537EB7 SWAP1 PUSH1 0x44 ADD PUSH1 0x20 PUSH1 0x40 MLOAD DUP1 DUP4 SUB DUP2 DUP7 GAS STATICCALL ISZERO DUP1 ISZERO PUSH2 0x1518 JUMPI RETURNDATASIZE PUSH1 0x0 DUP1 RETURNDATACOPY RETURNDATASIZE PUSH1 0x0 REVERT JUMPDEST POP POP POP POP PUSH1 0x40 MLOAD RETURNDATASIZE PUSH1 0x1F NOT PUSH1 0x1F DUP3 ADD AND DUP3 ADD DUP1 PUSH1 0x40 MSTORE POP DUP2 ADD SWAP1 PUSH2 0x153C SWAP2 SWAP1 PUSH2 0x5328 JUMP JUMPDEST ISZERO PUSH2 0x1759 JUMPI PUSH1 0x40 MLOAD PUSH4 0xC25E483 PUSH1 0xE1 SHL DUP2 MSTORE PUSH1 0x4 DUP2 ADD DUP9 SWAP1 MSTORE PUSH1 0x0 SWAP1 PUSH32 0x0 PUSH1 0x1 PUSH1 0x1 PUSH1 0xA0 SHL SUB AND SWAP1 PUSH4 0x184BC906 SWAP1 PUSH1 0x24 ADD PUSH1 0x20 PUSH1 0x40 MLOAD DUP1 DUP4 SUB DUP2 DUP7 GAS STATICCALL ISZERO DUP1 ISZERO PUSH2 0x15A9 JUMPI RETURNDATASIZE PUSH1 0x0 DUP1 RETURNDATACOPY RETURNDATASIZE PUSH1 0x0 REVERT JUMPDEST POP POP POP POP PUSH1 0x40 MLOAD RETURNDATASIZE PUSH1 0x1F NOT PUSH1 0x1F DUP3 ADD AND DUP3 ADD DUP1 PUSH1 0x40 MSTORE POP DUP2 ADD SWAP1 PUSH2 0x15CD SWAP2 SWAP1 PUSH2 0x534A JUMP JUMPDEST SWAP1 POP DUP1 PUSH1 0x1 PUSH1 0x1 PUSH1 0xA0 SHL SUB AND PUSH4 0xF5AC9DB6 PUSH1 0x40 MLOAD DUP2 PUSH4 0xFFFFFFFF AND PUSH1 0xE0 SHL DUP2 MSTORE PUSH1 0x4 ADD PUSH1 0x20 PUSH1 0x40 MLOAD DUP1 DUP4 SUB DUP2 DUP7 GAS STATICCALL ISZERO DUP1 ISZERO PUSH2 0x160D JUMPI RETURNDATASIZE PUSH1 0x0 DUP1 RETURNDATACOPY RETURNDATASIZE PUSH1 0x0 REVERT JUMPDEST POP POP POP POP PUSH1 0x40 MLOAD RETURNDATASIZE PUSH1 0x1F NOT PUSH1 0x1F DUP3 ADD AND DUP3 ADD DUP1 PUSH1 0x40 MSTORE POP DUP2 ADD SWAP1 PUSH2 0x1631 SWAP2 SWAP1 PUSH2 0x5328 JUMP JUMPDEST PUSH2 0x1672 JUMPI PUSH1 0x40 MLOAD PUSH3 0x461BCD PUSH1 0xE5 SHL DUP2 MSTORE PUSH1 0x20 PUSH1 0x4 DUP3 ADD MSTORE PUSH1 0x12 PUSH1 0x24 DUP3 ADD MSTORE PUSH18 0x46726F6D206E6F7420747261646561626C65 PUSH1 0x70 SHL PUSH1 0x44 DUP3 ADD MSTORE PUSH1 0x64 ADD PUSH2 0x6E6 JUMP JUMPDEST DUP1 PUSH1 0x1 PUSH1 0x1 PUSH1 0xA0 SHL SUB AND PUSH4 0xE499427 PUSH1 0x40 MLOAD DUP2 PUSH4 0xFFFFFFFF AND PUSH1 0xE0 SHL DUP2 MSTORE PUSH1 0x4 ADD PUSH1 0x20 PUSH1 0x40 MLOAD DUP1 DUP4 SUB DUP2 DUP7 GAS STATICCALL ISZERO DUP1 ISZERO PUSH2 0x16B0 JUMPI RETURNDATASIZE PUSH1 0x0 DUP1 RETURNDATACOPY RETURNDATASIZE PUSH1 0x0 REVERT JUMPDEST POP POP POP POP PUSH1 0x40 MLOAD RETURNDATASIZE PUSH1 0x1F NOT PUSH1 0x1F DUP3 ADD AND DUP3 ADD DUP1 PUSH1 0x40 MSTORE POP DUP2 ADD SWAP1 PUSH2 0x16D4 SWAP2 SWAP1 PUSH2 0x5328 JUMP JUMPDEST DUP1 ISZERO PUSH2 0x1700 JUMPI POP PUSH32 0xAD3228B676F7D3CD4284A5443F17F1962B36E491B30A40B2405849E597BA5FB5 DUP8 EQ ISZERO JUMPDEST PUSH2 0x1757 JUMPI PUSH1 0x40 MLOAD PUSH3 0x461BCD PUSH1 0xE5 SHL DUP2 MSTORE PUSH1 0x20 PUSH1 0x4 DUP3 ADD MSTORE PUSH1 0x22 PUSH1 0x24 DUP3 ADD MSTORE PUSH32 0x46726F6D206973206F6E6C7920747261646561626C6520746F2043757272656E PUSH1 0x44 DUP3 ADD MSTORE PUSH2 0x6379 PUSH1 0xF0 SHL PUSH1 0x64 DUP3 ADD MSTORE PUSH1 0x84 ADD PUSH2 0x6E6 JUMP JUMPDEST POP JUMPDEST PUSH1 0x40 MLOAD PUSH4 0xD47A7EDD PUSH1 0xE0 SHL DUP2 MSTORE PUSH1 0x4 DUP2 ADD DUP9 SWAP1 MSTORE PUSH32 0x0 PUSH1 0x1 PUSH1 0x1 PUSH1 0xA0 SHL SUB AND SWAP1 PUSH4 0xD47A7EDD SWAP1 PUSH1 0x24 ADD PUSH1 0x20 PUSH1 0x40 MLOAD DUP1 DUP4 SUB DUP2 DUP7 GAS STATICCALL ISZERO DUP1 ISZERO PUSH2 0x17BE JUMPI RETURNDATASIZE PUSH1 0x0 DUP1 RETURNDATACOPY RETURNDATASIZE PUSH1 0x0 REVERT JUMPDEST POP POP POP POP PUSH1 0x40 MLOAD RETURNDATASIZE PUSH1 0x1F NOT PUSH1 0x1F DUP3 ADD AND DUP3 ADD DUP1 PUSH1 0x40 MSTORE POP DUP2 ADD SWAP1 PUSH2 0x17E2 SWAP2 SWAP1 PUSH2 0x5328 JUMP JUMPDEST ISZERO DUP1 PUSH2 0x17F5 JUMPI POP DUP4 PUSH8 0xDE0B6B3A7640000 EQ JUMPDEST DUP1 PUSH2 0x17FF JUMPI POP DUP4 DUP6 EQ JUMPDEST PUSH2 0x185F JUMPI PUSH1 0x40 MLOAD PUSH3 0x461BCD PUSH1 0xE5 SHL DUP2 MSTORE PUSH1 0x20 PUSH1 0x4 DUP3 ADD MSTORE PUSH1 0x2B PUSH1 0x24 DUP3 ADD MSTORE PUSH32 0x2746726F6D27206973204E46542071747920616E64206772616E756C61726974 PUSH1 0x44 DUP3 ADD MSTORE PUSH11 0x79206D7573742062652031 PUSH1 0xA8 SHL PUSH1 0x64 DUP3 ADD MSTORE PUSH1 0x84 ADD PUSH2 0x6E6 JUMP JUMPDEST PUSH1 0x40 MLOAD PUSH4 0x23AA9AB PUSH1 0xE6 SHL DUP2 MSTORE PUSH1 0x0 DUP1 MLOAD PUSH1 0x20 PUSH2 0x5844 DUP4 CODECOPY DUP2 MLOAD SWAP2 MSTORE PUSH1 0x4 DUP3 ADD MSTORE PUSH32 0x0 PUSH1 0x1 PUSH1 0x1 PUSH1 0xA0 SHL SUB AND SWAP1 PUSH4 0x8EAA6AC0 SWAP1 PUSH1 0x24 ADD PUSH1 0x20 PUSH1 0x40 MLOAD DUP1 DUP4 SUB DUP2 DUP7 GAS STATICCALL ISZERO DUP1 ISZERO PUSH2 0x18D1 JUMPI RETURNDATASIZE PUSH1 0x0 DUP1 RETURNDATACOPY RETURNDATASIZE PUSH1 0x0 REVERT JUMPDEST POP POP POP POP PUSH1 0x40 MLOAD RETURNDATASIZE PUSH1 0x1F NOT PUSH1 0x1F DUP3 ADD AND DUP3 ADD DUP1 PUSH1 0x40 MSTORE POP DUP2 ADD SWAP1 PUSH2 0x18F5 SWAP2 SWAP1 PUSH2 0x534A JUMP JUMPDEST PUSH1 0x40 MLOAD PUSH4 0x4E68F20F PUSH1 0xE1 SHL DUP2 MSTORE PUSH1 0x4 DUP2 ADD DUP10 SWAP1 MSTORE PUSH1 0x1 PUSH1 0x1 PUSH1 0xA0 SHL SUB DUP11 DUP2 AND PUSH1 0x24 DUP4 ADD MSTORE SWAP2 SWAP1 SWAP2 AND SWAP1 PUSH4 0x9CD1E41E SWAP1 PUSH1 0x44 ADD PUSH1 0x20 PUSH1 0x40 MLOAD DUP1 DUP4 SUB DUP2 DUP7 GAS STATICCALL ISZERO DUP1 ISZERO PUSH2 0x1944 JUMPI RETURNDATASIZE PUSH1 0x0 DUP1 RETURNDATACOPY RETURNDATASIZE PUSH1 0x0 REVERT JUMPDEST POP POP POP POP PUSH1 0x40 MLOAD RETURNDATASIZE PUSH1 0x1F NOT PUSH1 0x1F DUP3 ADD AND DUP3 ADD DUP1 PUSH1 0x40 MSTORE POP DUP2 ADD SWAP1 PUSH2 0x1968 SWAP2 SWAP1 PUSH2 0x545D JUMP JUMPDEST DUP5 GT ISZERO PUSH2 0x19B7 JUMPI PUSH1 0x40 MLOAD PUSH3 0x461BCD PUSH1 0xE5 SHL DUP2 MSTORE PUSH1 0x20 PUSH1 0x4 DUP3 ADD MSTORE PUSH1 0x1A PUSH1 0x24 DUP3 ADD MSTORE PUSH32 0x42616E6B3A204E6F7420656E6F75676820617661696C61626C65000000000000 PUSH1 0x44 DUP3 ADD MSTORE PUSH1 0x64 ADD PUSH2 0x6E6 JUMP JUMPDEST PUSH1 0x40 DUP1 MLOAD PUSH2 0x180 DUP2 ADD DUP3 MSTORE PUSH1 0x0 DUP1 DUP3 MSTORE PUSH1 0x20 DUP3 ADD DUP2 SWAP1 MSTORE SWAP2 DUP2 ADD DUP3 SWAP1 MSTORE PUSH1 0x60 DUP2 ADD DUP3 SWAP1 MSTORE PUSH1 0x80 DUP2 ADD DUP3 SWAP1 MSTORE PUSH1 0xA0 DUP2 ADD DUP3 SWAP1 MSTORE PUSH1 0xC0 DUP2 ADD DUP3 SWAP1 MSTORE PUSH1 0xE0 DUP2 ADD DUP3 SWAP1 MSTORE PUSH2 0x100 DUP2 ADD DUP3 SWAP1 MSTORE PUSH2 0x120 DUP2 ADD DUP3 SWAP1 MSTORE PUSH2 0x140 DUP2 ADD DUP3 SWAP1 MSTORE PUSH2 0x160 DUP2 ADD SWAP2 SWAP1 SWAP2 MSTORE PUSH1 0x1 PUSH1 0x1 PUSH1 0xA0 SHL SUB DUP10 DUP2 AND PUSH1 0x20 DUP4 ADD MSTORE PUSH1 0x40 MLOAD PUSH4 0x61E99FFB PUSH1 0xE0 SHL DUP2 MSTORE PUSH1 0x4 DUP2 ADD DUP11 SWAP1 MSTORE PUSH1 0x24 DUP2 ADD DUP10 SWAP1 MSTORE PUSH32 0x0 SWAP1 SWAP2 AND SWAP1 PUSH4 0x61E99FFB SWAP1 PUSH1 0x44 ADD PUSH1 0x20 PUSH1 0x40 MLOAD DUP1 DUP4 SUB DUP2 PUSH1 0x0 DUP8 GAS CALL ISZERO DUP1 ISZERO PUSH2 0x1A90 JUMPI RETURNDATASIZE PUSH1 0x0 DUP1 RETURNDATACOPY RETURNDATASIZE PUSH1 0x0 REVERT JUMPDEST POP POP POP POP PUSH1 0x40 MLOAD RETURNDATASIZE PUSH1 0x1F NOT PUSH1 0x1F DUP3 ADD AND DUP3 ADD DUP1 PUSH1 0x40 MSTORE POP DUP2 ADD SWAP1 PUSH2 0x1AB4 SWAP2 SWAP1 PUSH2 0x545D JUMP JUMPDEST DUP2 MSTORE PUSH2 0x1ABF DUP7 PUSH2 0xAB8 JUMP JUMPDEST PUSH1 0x1 PUSH1 0x1 PUSH1 0x40 SHL SUB AND PUSH2 0x120 DUP3 ADD MSTORE PUSH2 0x1AD7 DUP6 PUSH2 0xAB8 JUMP JUMPDEST PUSH1 0x1 PUSH1 0x1 PUSH1 0x40 SHL SUB AND PUSH1 0xA0 DUP3 ADD MSTORE PUSH2 0x1AEE DUP5 PUSH2 0xAB8 JUMP JUMPDEST PUSH1 0x1 PUSH1 0x1 PUSH1 0x40 SHL SUB AND PUSH2 0x100 DUP3 ADD MSTORE PUSH1 0x60 DUP2 ADD MLOAD PUSH1 0x40 MLOAD PUSH4 0x5B7D0F69 PUSH1 0xE1 SHL DUP2 MSTORE PUSH1 0xFF SWAP1 SWAP2 AND PUSH1 0x4 DUP3 ADD MSTORE PUSH20 0x0 SWAP1 PUSH4 0xB6FA1ED2 SWAP1 PUSH1 0x24 ADD PUSH1 0x20 PUSH1 0x40 MLOAD DUP1 DUP4 SUB DUP2 DUP7 GAS DELEGATECALL ISZERO DUP1 ISZERO PUSH2 0x1B55 JUMPI RETURNDATASIZE PUSH1 0x0 DUP1 RETURNDATACOPY RETURNDATASIZE PUSH1 0x0 REVERT JUMPDEST POP POP POP POP PUSH1 0x40 MLOAD RETURNDATASIZE PUSH1 0x1F NOT PUSH1 0x1F DUP3 ADD AND DUP3 ADD DUP1 PUSH1 0x40 MSTORE POP DUP2 ADD SWAP1 PUSH2 0x1B79 SWAP2 SWAP1 PUSH2 0x5328 JUMP JUMPDEST ISZERO PUSH2 0x1CFE JUMPI PUSH1 0x40 MLOAD PUSH4 0x23AA9AB PUSH1 0xE6 SHL DUP2 MSTORE PUSH32 0x3CB99135F7A7C088D9085B446345038A22A85F4E8FE072B0E1B66D97243E7458 PUSH1 0x4 DUP3 ADD MSTORE PUSH1 0x0 SWAP1 PUSH32 0x0 PUSH1 0x1 PUSH1 0x1 PUSH1 0xA0 SHL SUB AND SWAP1 PUSH4 0x8EAA6AC0 SWAP1 PUSH1 0x24 ADD PUSH1 0x20 PUSH1 0x40 MLOAD DUP1 DUP4 SUB DUP2 DUP7 GAS STATICCALL ISZERO DUP1 ISZERO PUSH2 0x1C05 JUMPI RETURNDATASIZE PUSH1 0x0 DUP1 RETURNDATACOPY RETURNDATASIZE PUSH1 0x0 REVERT JUMPDEST POP POP POP POP PUSH1 0x40 MLOAD RETURNDATASIZE PUSH1 0x1F NOT PUSH1 0x1F DUP3 ADD AND DUP3 ADD DUP1 PUSH1 0x40 MSTORE POP DUP2 ADD SWAP1 PUSH2 0x1C29 SWAP2 SWAP1 PUSH2 0x534A JUMP JUMPDEST PUSH1 0x40 MLOAD PUSH4 0x32F30779 PUSH1 0xE1 SHL DUP2 MSTORE PUSH1 0x4 DUP2 ADD DUP12 SWAP1 MSTORE PUSH1 0x24 DUP2 ADD DUP11 SWAP1 MSTORE PUSH1 0x1 PUSH1 0x1 PUSH1 0xA0 SHL SUB SWAP2 SWAP1 SWAP2 AND SWAP1 PUSH4 0x65E60EF2 SWAP1 PUSH1 0x44 ADD PUSH1 0x60 PUSH1 0x40 MLOAD DUP1 DUP4 SUB DUP2 PUSH1 0x0 DUP8 GAS CALL ISZERO DUP1 ISZERO PUSH2 0x1C79 JUMPI RETURNDATASIZE PUSH1 0x0 DUP1 RETURNDATACOPY RETURNDATASIZE PUSH1 0x0 REVERT JUMPDEST POP POP POP POP PUSH1 0x40 MLOAD RETURNDATASIZE PUSH1 0x1F NOT PUSH1 0x1F DUP3 ADD AND DUP3 ADD DUP1 PUSH1 0x40 MSTORE POP DUP2 ADD SWAP1 PUSH2 0x1C9D SWAP2 SWAP1 PUSH2 0x5476 JUMP JUMPDEST POP SWAP2 POP PUSH2 0x1CAB SWAP1 POP DUP2 PUSH2 0xAB8 JUMP JUMPDEST PUSH1 0x1 PUSH1 0x1 PUSH1 0x40 SHL SUB AND PUSH2 0x160 DUP4 ADD DUP2 SWAP1 MSTORE PUSH2 0x1CFC JUMPI PUSH1 0x40 MLOAD PUSH3 0x461BCD PUSH1 0xE5 SHL DUP2 MSTORE PUSH1 0x20 PUSH1 0x4 DUP3 ADD MSTORE PUSH1 0x11 PUSH1 0x24 DUP3 ADD MSTORE PUSH17 0x145D5BDD194E88139BDD081C5D5BDD1959 PUSH1 0x7A SHL PUSH1 0x44 DUP3 ADD MSTORE PUSH1 0x64 ADD PUSH2 0x6E6 JUMP JUMPDEST POP JUMPDEST PUSH1 0x60 DUP2 ADD MLOAD PUSH1 0x40 MLOAD PUSH4 0xF0340A37 PUSH1 0xE0 SHL DUP2 MSTORE PUSH1 0xFF SWAP1 SWAP2 AND PUSH1 0x4 DUP3 ADD MSTORE PUSH20 0x0 SWAP1 PUSH4 0xF0340A37 SWAP1 PUSH1 0x24 ADD PUSH1 0x20 PUSH1 0x40 MLOAD DUP1 DUP4 SUB DUP2 DUP7 GAS DELEGATECALL ISZERO DUP1 ISZERO PUSH2 0x1D56 JUMPI RETURNDATASIZE PUSH1 0x0 DUP1 RETURNDATACOPY RETURNDATASIZE PUSH1 0x0 REVERT JUMPDEST POP POP POP POP PUSH1 0x40 MLOAD RETURNDATASIZE PUSH1 0x1F NOT PUSH1 0x1F DUP3 ADD AND DUP3 ADD DUP1 PUSH1 0x40 MSTORE POP DUP2 ADD SWAP1 PUSH2 0x1D7A SWAP2 SWAP1 PUSH2 0x5328 JUMP JUMPDEST ISZERO PUSH2 0x1E7D JUMPI PUSH1 0x40 MLOAD PUSH4 0x23AA9AB PUSH1 0xE6 SHL DUP2 MSTORE PUSH1 0x0 DUP1 MLOAD PUSH1 0x20 PUSH2 0x5844 DUP4 CODECOPY DUP2 MLOAD SWAP2 MSTORE PUSH1 0x4 DUP3 ADD MSTORE PUSH32 0x0 PUSH1 0x1 PUSH1 0x1 PUSH1 0xA0 SHL SUB AND SWAP1 PUSH4 0x8EAA6AC0 SWAP1 PUSH1 0x24 ADD PUSH1 0x20 PUSH1 0x40 MLOAD DUP1 DUP4 SUB DUP2 DUP7 GAS STATICCALL ISZERO DUP1 ISZERO PUSH2 0x1DF1 JUMPI RETURNDATASIZE PUSH1 0x0 DUP1 RETURNDATACOPY RETURNDATASIZE PUSH1 0x0 REVERT JUMPDEST POP POP POP POP PUSH1 0x40 MLOAD RETURNDATASIZE PUSH1 0x1F NOT PUSH1 0x1F DUP3 ADD AND DUP3 ADD DUP1 PUSH1 0x40 MSTORE POP DUP2 ADD SWAP1 PUSH2 0x1E15 SWAP2 SWAP1 PUSH2 0x534A JUMP JUMPDEST PUSH1 0x1 PUSH1 0x1 PUSH1 0xA0 SHL SUB AND PUSH4 0x56A1FD3A DUP9 DUP4 PUSH1 0x20 ADD MLOAD ADDRESS DUP10 PUSH1 0x40 MLOAD DUP6 PUSH4 0xFFFFFFFF AND PUSH1 0xE0 SHL DUP2 MSTORE PUSH1 0x4 ADD PUSH2 0x1E4A SWAP5 SWAP4 SWAP3 SWAP2 SWAP1 PUSH2 0x5571 JUMP JUMPDEST PUSH1 0x0 PUSH1 0x40 MLOAD DUP1 DUP4 SUB DUP2 PUSH1 0x0 DUP8 DUP1 EXTCODESIZE ISZERO DUP1 ISZERO PUSH2 0x1E64 JUMPI PUSH1 0x0 DUP1 REVERT JUMPDEST POP GAS CALL ISZERO DUP1 ISZERO PUSH2 0x1E78 JUMPI RETURNDATASIZE PUSH1 0x0 DUP1 RETURNDATACOPY RETURNDATASIZE PUSH1 0x0 REVERT JUMPDEST POP POP POP POP JUMPDEST PUSH1 0x3 DUP1 SLOAD PUSH1 0x1 ADD SWAP1 SSTORE JUMPDEST PUSH1 0x3 SLOAD ISZERO DUP1 ISZERO PUSH2 0x1EAA JUMPI POP PUSH1 0x3 SLOAD PUSH1 0x0 SWAP1 DUP2 MSTORE PUSH1 0x5 PUSH1 0x20 MSTORE PUSH1 0x40 SWAP1 KECCAK256 PUSH1 0x2 ADD SLOAD ISZERO ISZERO JUMPDEST ISZERO PUSH2 0x1EBD JUMPI PUSH1 0x3 DUP1 SLOAD PUSH1 0x1 ADD SWAP1 SSTORE PUSH2 0x1E87 JUMP JUMPDEST PUSH1 0x3 SLOAD PUSH1 0x80 DUP3 ADD DUP2 SWAP1 MSTORE PUSH1 0xA0 DUP3 ADD MLOAD PUSH1 0x1 PUSH1 0x1 PUSH1 0x40 SHL SUB SWAP1 DUP2 AND PUSH1 0xE0 DUP5 ADD MSTORE PUSH1 0x4 PUSH1 0x40 DUP1 DUP6 ADD SWAP2 DUP3 MSTORE PUSH1 0xFF DUP8 AND PUSH1 0x60 DUP7 ADD MSTORE PUSH2 0x100 DUP6 ADD MLOAD SWAP1 SWAP3 AND PUSH2 0x140 DUP6 ADD MSTORE PUSH1 0x0 SWAP3 DUP4 MSTORE PUSH1 0x5 PUSH1 0x20 DUP2 DUP2 MSTORE SWAP3 SWAP1 SWAP4 KECCAK256 DUP5 MLOAD DUP2 SSTORE SWAP2 DUP5 ADD MLOAD PUSH1 0x1 DUP4 ADD DUP1 SLOAD PUSH1 0x1 PUSH1 0x1 PUSH1 0xA0 SHL SUB SWAP1 SWAP3 AND PUSH1 0x1 PUSH1 0x1 PUSH1 0xA0 SHL SUB NOT DUP4 AND DUP2 OR DUP3 SSTORE SWAP3 MLOAD DUP7 SWAP6 SWAP1 SWAP4 SWAP2 SWAP3 PUSH1 0x1 PUSH1 0x1 PUSH1 0xA8 SHL SUB NOT AND SWAP1 SWAP2 OR SWAP1 PUSH1 0x1 PUSH1 0xA0 SHL SWAP1 DUP5 SWAP1 DUP2 GT ISZERO PUSH2 0x1F63 JUMPI PUSH2 0x1F63 PUSH2 0x4F3D JUMP JUMPDEST MUL OR SWAP1 SSTORE POP PUSH1 0x60 DUP3 ADD MLOAD PUSH1 0x1 DUP3 ADD DUP1 SLOAD PUSH1 0xFF PUSH1 0xA8 SHL NOT AND PUSH1 0x1 PUSH1 0xA8 SHL PUSH1 0xFF SWAP1 SWAP4 AND SWAP3 SWAP1 SWAP3 MUL SWAP2 SWAP1 SWAP2 OR SWAP1 SSTORE PUSH1 0x80 DUP1 DUP4 ADD MLOAD PUSH1 0x2 DUP4 ADD SSTORE PUSH1 0xA0 DUP4 ADD MLOAD PUSH1 0x3 DUP4 ADD DUP1 SLOAD PUSH1 0xC0 DUP7 ADD MLOAD PUSH1 0xE0 DUP8 ADD MLOAD PUSH2 0x100 DUP9 ADD MLOAD PUSH1 0x1 PUSH1 0x1 PUSH1 0x40 SHL SUB SWAP6 DUP7 AND PUSH16 0xFFFFFFFFFFFFFFFFFFFFFFFFFFFFFFFF NOT SWAP5 DUP6 AND OR PUSH1 0x1 PUSH1 0x40 SHL SWAP4 DUP8 AND DUP5 MUL OR PUSH16 0xFFFFFFFFFFFFFFFFFFFFFFFFFFFFFFFF AND PUSH1 0x1 PUSH1 0x80 SHL SWAP3 DUP8 AND DUP4 MUL PUSH1 0x1 PUSH1 0x1 PUSH1 0xC0 SHL SUB AND OR PUSH1 0x1 PUSH1 0xC0 SHL SWAP2 DUP8 AND SWAP2 SWAP1 SWAP2 MUL OR SWAP1 SWAP4 SSTORE PUSH2 0x120 DUP8 ADD MLOAD PUSH1 0x4 SWAP7 DUP8 ADD DUP1 SLOAD PUSH2 0x140 DUP11 ADD MLOAD PUSH2 0x160 SWAP1 SWAP11 ADD MLOAD PUSH8 0xFFFFFFFFFFFFFFFF PUSH1 0x80 SHL NOT SWAP4 DUP9 AND SWAP2 SWAP1 SWAP6 AND OR SWAP9 DUP7 AND SWAP1 SWAP3 MUL SWAP8 SWAP1 SWAP8 OR SWAP7 SWAP1 SWAP7 AND SWAP3 AND MUL OR SWAP1 SWAP3 SSTORE SWAP1 DUP3 ADD MLOAD PUSH1 0x40 MLOAD PUSH4 0x4132F1D PUSH1 0xE3 SHL DUP2 MSTORE DUP1 DUP4 ADD SWAP3 SWAP1 SWAP3 MSTORE PUSH1 0x24 DUP3 ADD MSTORE PUSH20 0x0 SWAP1 PUSH4 0x209978E8 SWAP1 PUSH1 0x44 ADD PUSH1 0x20 PUSH1 0x40 MLOAD DUP1 DUP4 SUB DUP2 DUP7 GAS DELEGATECALL ISZERO DUP1 ISZERO PUSH2 0x20B3 JUMPI RETURNDATASIZE PUSH1 0x0 DUP1 RETURNDATACOPY RETURNDATASIZE PUSH1 0x0 REVERT JUMPDEST POP POP POP POP PUSH1 0x40 MLOAD RETURNDATASIZE PUSH1 0x1F NOT PUSH1 0x1F DUP3 ADD AND DUP3 ADD DUP1 PUSH1 0x40 MSTORE POP DUP2 ADD SWAP1 PUSH2 0x20D7 SWAP2 SWAP1 PUSH2 0x5328 JUMP JUMPDEST POP DUP1 MLOAD PUSH1 0x0 SWAP1 DUP2 MSTORE PUSH1 0x6 PUSH1 0x20 MSTORE PUSH1 0x40 SWAP1 DUP2 SWAP1 KECCAK256 PUSH1 0x80 DUP4 ADD MLOAD SWAP2 MLOAD PUSH4 0x4132F1D PUSH1 0xE3 SHL DUP2 MSTORE PUSH20 0x0 SWAP3 PUSH4 0x209978E8 SWAP3 PUSH2 0x212F SWAP3 SWAP1 SWAP2 SWAP1 PUSH1 0x4 ADD SWAP2 DUP3 MSTORE PUSH1 0x20 DUP3 ADD MSTORE PUSH1 0x40 ADD SWAP1 JUMP JUMPDEST PUSH1 0x20 PUSH1 0x40 MLOAD DUP1 DUP4 SUB DUP2 DUP7 GAS DELEGATECALL ISZERO DUP1 ISZERO PUSH2 0x214C JUMPI RETURNDATASIZE PUSH1 0x0 DUP1 RETURNDATACOPY RETURNDATASIZE PUSH1 0x0 REVERT JUMPDEST POP POP POP POP PUSH1 0x40 MLOAD RETURNDATASIZE PUSH1 0x1F NOT PUSH1 0x1F DUP3 ADD AND DUP3 ADD DUP1 PUSH1 0x40 MSTORE POP DUP2 ADD SWAP1 PUSH2 0x2170 SWAP2 SWAP1 PUSH2 0x5328 JUMP JUMPDEST POP PUSH1 0x0 DUP9 DUP2 MSTORE PUSH1 0x7 PUSH1 0x20 MSTORE PUSH1 0x40 SWAP1 DUP2 SWAP1 KECCAK256 PUSH1 0x80 DUP4 ADD MLOAD SWAP2 MLOAD PUSH4 0x4132F1D PUSH1 0xE3 SHL DUP2 MSTORE PUSH20 0x0 SWAP3 PUSH4 0x209978E8 SWAP3 PUSH2 0x21C6 SWAP3 SWAP1 SWAP2 SWAP1 PUSH1 0x4 ADD SWAP2 DUP3 MSTORE PUSH1 0x20 DUP3 ADD MSTORE PUSH1 0x40 ADD SWAP1 JUMP JUMPDEST PUSH1 0x20 PUSH1 0x40 MLOAD DUP1 DUP4 SUB DUP2 DUP7 GAS DELEGATECALL ISZERO DUP1 ISZERO PUSH2 0x21E3 JUMPI RETURNDATASIZE PUSH1 0x0 DUP1 RETURNDATACOPY RETURNDATASIZE PUSH1 0x0 REVERT JUMPDEST POP POP POP POP PUSH1 0x40 MLOAD RETURNDATASIZE PUSH1 0x1F NOT PUSH1 0x1F DUP3 ADD AND DUP3 ADD DUP1 PUSH1 0x40 MSTORE POP DUP2 ADD SWAP1 PUSH2 0x2207 SWAP2 SWAP1 PUSH2 0x5328 JUMP JUMPDEST POP PUSH1 0x0 DUP8 DUP2 MSTORE PUSH1 0x8 PUSH1 0x20 MSTORE PUSH1 0x40 SWAP1 DUP2 SWAP1 KECCAK256 PUSH1 0x80 DUP4 ADD MLOAD SWAP2 MLOAD PUSH4 0x4132F1D PUSH1 0xE3 SHL DUP2 MSTORE PUSH20 0x0 SWAP3 PUSH4 0x209978E8 SWAP3 PUSH2 0x225D SWAP3 SWAP1 SWAP2 SWAP1 PUSH1 0x4 ADD SWAP2 DUP3 MSTORE PUSH1 0x20 DUP3 ADD MSTORE PUSH1 0x40 ADD SWAP1 JUMP JUMPDEST PUSH1 0x20 PUSH1 0x40 MLOAD DUP1 DUP4 SUB DUP2 DUP7 GAS DELEGATECALL ISZERO DUP1 ISZERO PUSH2 0x227A JUMPI RETURNDATASIZE PUSH1 0x0 DUP1 RETURNDATACOPY RETURNDATASIZE PUSH1 0x0 REVERT JUMPDEST POP POP POP POP PUSH1 0x40 MLOAD RETURNDATASIZE PUSH1 0x1F NOT PUSH1 0x1F DUP3 ADD AND DUP3 ADD DUP1 PUSH1 0x40 MSTORE POP DUP2 ADD SWAP1 PUSH2 0x229E SWAP2 SWAP1 PUSH2 0x5328 JUMP JUMPDEST POP DUP1 MLOAD PUSH2 0x22AA SWAP1 PUSH2 0x3E1C JUMP JUMPDEST POP POP PUSH1 0x3 SLOAD SWAP8 SWAP7 POP POP POP POP POP POP POP JUMP JUMPDEST PUSH1 0x0 PUSH2 0x73C PUSH1 0x1 PUSH1 0x1 PUSH1 0x40 SHL SUB DUP4 AND PUSH5 0x2540BE400 PUSH2 0x53DA JUMP JUMPDEST PUSH1 0x40 MLOAD PUSH4 0x23AA9AB PUSH1 0xE6 SHL DUP2 MSTORE PUSH32 0x2E7A327EF83C2AF7579C6634F2F5604519800C5F07626F27BD602FD11ED8E6EC PUSH1 0x4 DUP3 ADD MSTORE PUSH1 0x0 SWAP1 DUP2 SWAP1 PUSH1 0x1 PUSH1 0x1 PUSH1 0xA0 SHL SUB PUSH32 0x0 AND SWAP1 PUSH4 0x8EAA6AC0 SWAP1 PUSH1 0x24 ADD PUSH1 0x20 PUSH1 0x40 MLOAD DUP1 DUP4 SUB DUP2 DUP7 GAS STATICCALL ISZERO DUP1 ISZERO PUSH2 0x235D JUMPI RETURNDATASIZE PUSH1 0x0 DUP1 RETURNDATACOPY RETURNDATASIZE PUSH1 0x0 REVERT JUMPDEST POP POP POP POP PUSH1 0x40 MLOAD RETURNDATASIZE PUSH1 0x1F NOT PUSH1 0x1F DUP3 ADD AND DUP3 ADD DUP1 PUSH1 0x40 MSTORE POP DUP2 ADD SWAP1 PUSH2 0x2381 SWAP2 SWAP1 PUSH2 0x534A JUMP JUMPDEST PUSH1 0x40 DUP1 MLOAD ADDRESS PUSH1 0x24 DUP3 ADD MSTORE PUSH1 0x1 PUSH1 0x1 PUSH1 0xA0 SHL SUB DUP13 DUP2 AND PUSH1 0x44 DUP4 ADD MSTORE PUSH1 0x64 DUP3 ADD DUP13 SWAP1 MSTORE PUSH1 0x84 DUP3 ADD DUP12 SWAP1 MSTORE PUSH1 0xA4 DUP3 ADD DUP11 SWAP1 MSTORE PUSH1 0xC4 DUP3 ADD DUP10 SWAP1 MSTORE PUSH1 0xE4 DUP3 ADD DUP9 SWAP1 MSTORE PUSH1 0xFF DUP8 AND PUSH2 0x104 DUP1 DUP5 ADD SWAP2 SWAP1 SWAP2 MSTORE DUP4 MLOAD DUP1 DUP5 SUB SWAP1 SWAP2 ADD DUP2 MSTORE PUSH2 0x124 SWAP1 SWAP3 ADD DUP4 MSTORE PUSH1 0x20 DUP3 ADD DUP1 MLOAD PUSH1 0x1 PUSH1 0x1 PUSH1 0xE0 SHL SUB AND PUSH4 0x53308781 PUSH1 0xE1 SHL OR SWAP1 MSTORE SWAP2 MLOAD SWAP3 SWAP1 SWAP2 AND SWAP2 PUSH2 0x2409 SWAP2 SWAP1 PUSH2 0x5367 JUMP JUMPDEST PUSH1 0x0 PUSH1 0x40 MLOAD DUP1 DUP4 SUB DUP2 PUSH1 0x0 DUP7 GAS CALL SWAP2 POP POP RETURNDATASIZE DUP1 PUSH1 0x0 DUP2 EQ PUSH2 0x2446 JUMPI PUSH1 0x40 MLOAD SWAP2 POP PUSH1 0x1F NOT PUSH1 0x3F RETURNDATASIZE ADD AND DUP3 ADD PUSH1 0x40 MSTORE RETURNDATASIZE DUP3 MSTORE RETURNDATASIZE PUSH1 0x0 PUSH1 0x20 DUP5 ADD RETURNDATACOPY PUSH2 0x244B JUMP JUMPDEST PUSH1 0x60 SWAP2 POP JUMPDEST POP POP SWAP1 POP PUSH2 0x2458 DUP2 PUSH2 0x6F1 JUMP JUMPDEST POP SWAP8 SWAP7 POP POP POP POP POP POP POP JUMP JUMPDEST PUSH1 0x40 MLOAD PUSH4 0x509FF69B PUSH1 0xE0 SHL DUP2 MSTORE PUSH1 0x1 PUSH1 0x1 PUSH1 0xA0 SHL SUB DUP8 DUP2 AND PUSH1 0x4 DUP4 ADD MSTORE PUSH1 0x0 PUSH1 0x24 DUP4 ADD DUP2 SWAP1 MSTORE SWAP2 PUSH2 0x259F SWAP2 DUP11 SWAP2 PUSH32 0x0 SWAP1 SWAP2 AND SWAP1 PUSH4 0x509FF69B SWAP1 PUSH1 0x44 ADD PUSH1 0x20 PUSH1 0x40 MLOAD DUP1 DUP4 SUB DUP2 PUSH1 0x0 DUP8 GAS CALL ISZERO DUP1 ISZERO PUSH2 0x24DE JUMPI RETURNDATASIZE PUSH1 0x0 DUP1 RETURNDATACOPY RETURNDATASIZE PUSH1 0x0 REVERT JUMPDEST POP POP POP POP PUSH1 0x40 MLOAD RETURNDATASIZE PUSH1 0x1F NOT PUSH1 0x1F DUP3 ADD AND DUP3 ADD DUP1 PUSH1 0x40 MSTORE POP DUP2 ADD SWAP1 PUSH2 0x2502 SWAP2 SWAP1 PUSH2 0x545D JUMP JUMPDEST PUSH1 0x40 MLOAD PUSH4 0x509FF69B PUSH1 0xE0 SHL DUP2 MSTORE PUSH1 0x1 PUSH1 0x1 PUSH1 0xA0 SHL SUB DUP11 DUP2 AND PUSH1 0x4 DUP4 ADD MSTORE PUSH1 0x0 PUSH1 0x24 DUP4 ADD MSTORE PUSH32 0x0 AND SWAP1 PUSH4 0x509FF69B SWAP1 PUSH1 0x44 ADD JUMPDEST PUSH1 0x20 PUSH1 0x40 MLOAD DUP1 DUP4 SUB DUP2 PUSH1 0x0 DUP8 GAS CALL ISZERO DUP1 ISZERO PUSH2 0x2572 JUMPI RETURNDATASIZE PUSH1 0x0 DUP1 RETURNDATACOPY RETURNDATASIZE PUSH1 0x0 REVERT JUMPDEST POP POP POP POP PUSH1 0x40 MLOAD RETURNDATASIZE PUSH1 0x1F NOT PUSH1 0x1F DUP3 ADD AND DUP3 ADD DUP1 PUSH1 0x40 MSTORE POP DUP2 ADD SWAP1 PUSH2 0x2596 SWAP2 SWAP1 PUSH2 0x545D JUMP JUMPDEST DUP9 DUP9 DUP9 DUP9 PUSH2 0x22D4 JUMP JUMPDEST SWAP9 SWAP8 POP POP POP POP POP POP POP POP JUMP JUMPDEST PUSH1 0x40 MLOAD PUSH4 0x509FF69B PUSH1 0xE0 SHL DUP2 MSTORE PUSH1 0x1 PUSH1 0x1 PUSH1 0xA0 SHL SUB DUP10 DUP2 AND PUSH1 0x4 DUP4 ADD MSTORE PUSH1 0x24 DUP3 ADD DUP10 SWAP1 MSTORE PUSH1 0x0 SWAP2 PUSH2 0x269F SWAP2 DUP13 SWAP2 PUSH32 0x0 SWAP1 SWAP2 AND SWAP1 PUSH4 0x509FF69B SWAP1 PUSH1 0x44 ADD JUMPDEST PUSH1 0x20 PUSH1 0x40 MLOAD DUP1 DUP4 SUB DUP2 PUSH1 0x0 DUP8 GAS CALL ISZERO DUP1 ISZERO PUSH2 0x2626 JUMPI RETURNDATASIZE PUSH1 0x0 DUP1 RETURNDATACOPY RETURNDATASIZE PUSH1 0x0 REVERT JUMPDEST POP POP POP POP PUSH1 0x40 MLOAD RETURNDATASIZE PUSH1 0x1F NOT PUSH1 0x1F DUP3 ADD AND DUP3 ADD DUP1 PUSH1 0x40 MSTORE POP DUP2 ADD SWAP1 PUSH2 0x264A SWAP2 SWAP1 PUSH2 0x545D JUMP JUMPDEST PUSH1 0x40 MLOAD PUSH4 0x509FF69B PUSH1 0xE0 SHL DUP2 MSTORE PUSH1 0x1 PUSH1 0x1 PUSH1 0xA0 SHL SUB DUP12 DUP2 AND PUSH1 0x4 DUP4 ADD MSTORE PUSH1 0x24 DUP3 ADD DUP12 SWAP1 MSTORE PUSH32 0x0 AND SWAP1 PUSH4 0x509FF69B SWAP1 PUSH1 0x44 ADD PUSH2 0x2553 JUMP JUMPDEST SWAP11 SWAP10 POP POP POP POP POP POP POP POP POP POP JUMP JUMPDEST PUSH2 0x26B5 PUSH2 0x3029 JUMP JUMPDEST PUSH2 0x6EF PUSH1 0x0 DUP1 SLOAD PUSH2 0xFF00 NOT AND PUSH2 0x100 OR SWAP1 SSTORE JUMP JUMPDEST PUSH1 0x0 PUSH2 0x2724 CALLER PUSH1 0x40 MLOAD PUSH4 0x509FF69B PUSH1 0xE0 SHL DUP2 MSTORE PUSH1 0x1 PUSH1 0x1 PUSH1 0xA0 SHL SUB DUP13 DUP2 AND PUSH1 0x4 DUP4 ADD MSTORE PUSH1 0x24 DUP3 ADD DUP13 SWAP1 MSTORE PUSH32 0x0 AND SWAP1 PUSH4 0x509FF69B SWAP1 PUSH1 0x44 ADD PUSH2 0x2607 JUMP JUMPDEST SWAP10 SWAP9 POP POP POP POP POP POP POP POP POP JUMP JUMPDEST PUSH1 0x0 PUSH2 0x73C PUSH4 0xFFFFFFFF DUP4 AND PUSH5 0xE8D4A51000 PUSH2 0x53DA JUMP JUMPDEST PUSH2 0x2750 PUSH2 0x124D JUMP JUMPDEST ISZERO PUSH2 0x276D JUMPI PUSH1 0x40 MLOAD PUSH3 0x461BCD PUSH1 0xE5 SHL DUP2 MSTORE PUSH1 0x4 ADD PUSH2 0x6E6 SWAP1 PUSH2 0x540F JUMP JUMPDEST PUSH1 0x0 PUSH1 0x5 PUSH1 0x0 DUP4 DUP2 MSTORE PUSH1 0x20 ADD SWAP1 DUP2 MSTORE PUSH1 0x20 ADD PUSH1 0x0 KECCAK256 SWAP1 POP PUSH32 0x0 PUSH1 0x1 PUSH1 0x1 PUSH1 0xA0 SHL SUB AND PUSH4 0x4635229B PUSH1 0x40 MLOAD DUP2 PUSH4 0xFFFFFFFF AND PUSH1 0xE0 SHL DUP2 MSTORE PUSH1 0x4 ADD PUSH1 0x20 PUSH1 0x40 MLOAD DUP1 DUP4 SUB DUP2 DUP7 GAS STATICCALL ISZERO DUP1 ISZERO PUSH2 0x27E2 JUMPI RETURNDATASIZE PUSH1 0x0 DUP1 RETURNDATACOPY RETURNDATASIZE PUSH1 0x0 REVERT JUMPDEST POP POP POP POP PUSH1 0x40 MLOAD RETURNDATASIZE PUSH1 0x1F NOT PUSH1 0x1F DUP3 ADD AND DUP3 ADD DUP1 PUSH1 0x40 MSTORE POP DUP2 ADD SWAP1 PUSH2 0x2806 SWAP2 SWAP1 PUSH2 0x5328 JUMP JUMPDEST DUP1 PUSH2 0x281D JUMPI POP PUSH1 0x1 DUP2 ADD SLOAD PUSH1 0x1 PUSH1 0x1 PUSH1 0xA0 SHL SUB AND CALLER EQ JUMPDEST PUSH2 0x2839 JUMPI PUSH1 0x40 MLOAD PUSH3 0x461BCD PUSH1 0xE5 SHL DUP2 MSTORE PUSH1 0x4 ADD PUSH2 0x6E6 SWAP1 PUSH2 0x5526 JUMP JUMPDEST PUSH2 0x2844 DUP2 PUSH1 0x1 PUSH2 0x387F JUMP JUMPDEST PUSH2 0x707 DUP2 PUSH2 0x3D71 JUMP JUMPDEST PUSH2 0x2855 PUSH2 0x3029 JUMP JUMPDEST PUSH1 0x1 PUSH1 0x1 PUSH1 0xA0 SHL SUB DUP2 AND PUSH2 0x28BA JUMPI PUSH1 0x40 MLOAD PUSH3 0x461BCD PUSH1 0xE5 SHL DUP2 MSTORE PUSH1 0x20 PUSH1 0x4 DUP3 ADD MSTORE PUSH1 0x26 PUSH1 0x24 DUP3 ADD MSTORE PUSH32 0x4F776E61626C653A206E6577206F776E657220697320746865207A65726F2061 PUSH1 0x44 DUP3 ADD MSTORE PUSH6 0x646472657373 PUSH1 0xD0 SHL PUSH1 0x64 DUP3 ADD MSTORE PUSH1 0x84 ADD PUSH2 0x6E6 JUMP JUMPDEST PUSH2 0x28C3 DUP2 PUSH2 0x308A JUMP JUMPDEST POP JUMP JUMPDEST PUSH1 0x0 PUSH2 0x73C PUSH5 0x174876E800 DUP4 PUSH2 0x53B8 JUMP JUMPDEST PUSH2 0x28DF PUSH2 0x4DC6 JUMP JUMPDEST PUSH1 0x0 DUP4 DUP2 MSTORE PUSH1 0x5 PUSH1 0x20 DUP2 DUP2 MSTORE PUSH1 0x40 DUP1 DUP5 KECCAK256 DUP2 MLOAD PUSH2 0x180 DUP2 ADD DUP4 MSTORE DUP2 SLOAD DUP2 MSTORE PUSH1 0x1 DUP3 ADD SLOAD PUSH1 0x1 PUSH1 0x1 PUSH1 0xA0 SHL SUB DUP2 AND SWAP5 DUP3 ADD SWAP5 SWAP1 SWAP5 MSTORE SWAP4 SWAP1 SWAP3 SWAP2 DUP5 ADD SWAP2 PUSH1 0x1 PUSH1 0xA0 SHL SWAP1 DIV PUSH1 0xFF AND SWAP1 DUP2 GT ISZERO PUSH2 0x2934 JUMPI PUSH2 0x2934 PUSH2 0x4F3D JUMP JUMPDEST PUSH1 0x5 DUP2 GT ISZERO PUSH2 0x2945 JUMPI PUSH2 0x2945 PUSH2 0x4F3D JUMP JUMPDEST DUP2 MSTORE PUSH1 0x1 DUP3 ADD SLOAD PUSH1 0x1 PUSH1 0xA8 SHL SWAP1 DIV PUSH1 0xFF AND PUSH1 0x20 DUP3 ADD MSTORE PUSH1 0x2 DUP3 ADD SLOAD PUSH1 0x40 DUP1 DUP4 ADD SWAP2 SWAP1 SWAP2 MSTORE PUSH1 0x3 DUP4 ADD SLOAD PUSH1 0x1 PUSH1 0x1 PUSH1 0x40 SHL SUB DUP1 DUP3 AND PUSH1 0x60 DUP6 ADD MSTORE PUSH1 0x1 PUSH1 0x40 SHL DUP1 DUP4 DIV DUP3 AND PUSH1 0x80 DUP7 ADD MSTORE PUSH1 0x1 PUSH1 0x80 SHL DUP1 DUP5 DIV DUP4 AND PUSH1 0xA0 DUP8 ADD MSTORE PUSH1 0x1 PUSH1 0xC0 SHL SWAP1 SWAP4 DIV DUP3 AND PUSH1 0xC0 DUP7 ADD MSTORE PUSH1 0x4 SWAP6 DUP7 ADD SLOAD DUP1 DUP4 AND PUSH1 0xE0 DUP8 ADD MSTORE SWAP1 DUP2 DIV DUP3 AND PUSH2 0x100 DUP7 ADD MSTORE SWAP2 SWAP1 SWAP2 DIV AND PUSH2 0x120 SWAP1 SWAP3 ADD SWAP2 SWAP1 SWAP2 MSTORE DUP3 MLOAD SWAP1 MLOAD PUSH4 0x657C7E09 PUSH1 0xE0 SHL DUP2 MSTORE SWAP2 DUP3 ADD MSTORE SWAP1 SWAP2 POP PUSH32 0x0 PUSH1 0x1 PUSH1 0x1 PUSH1 0xA0 SHL SUB AND SWAP1 PUSH4 0x657C7E09 SWAP1 PUSH1 0x24 ADD PUSH1 0x40 DUP1 MLOAD DUP1 DUP4 SUB DUP2 DUP7 GAS STATICCALL ISZERO DUP1 ISZERO PUSH2 0x2A38 JUMPI RETURNDATASIZE PUSH1 0x0 DUP1 RETURNDATACOPY RETURNDATASIZE PUSH1 0x0 REVERT JUMPDEST POP POP POP POP PUSH1 0x40 MLOAD RETURNDATASIZE PUSH1 0x1F NOT PUSH1 0x1F DUP3 ADD AND DUP3 ADD DUP1 PUSH1 0x40 MSTORE POP DUP2 ADD SWAP1 PUSH2 0x2A5C SWAP2 SWAP1 PUSH2 0x5439 JUMP JUMPDEST PUSH1 0x40 DUP5 ADD MSTORE PUSH1 0x20 DUP4 ADD MSTORE PUSH1 0x80 DUP2 ADD MLOAD PUSH1 0x60 DUP4 ADD MSTORE DUP3 DUP1 PUSH2 0x2AF5 JUMPI POP PUSH1 0x60 DUP2 ADD MLOAD PUSH1 0x40 MLOAD PUSH4 0x36181B67 PUSH1 0xE1 SHL DUP2 MSTORE PUSH1 0xFF SWAP1 SWAP2 AND PUSH1 0x4 DUP3 ADD MSTORE PUSH20 0x0 SWAP1 PUSH4 0x6C3036CE SWAP1 PUSH1 0x24 ADD PUSH1 0x20 PUSH1 0x40 MLOAD DUP1 DUP4 SUB DUP2 DUP7 GAS DELEGATECALL ISZERO DUP1 ISZERO PUSH2 0x2ACF JUMPI RETURNDATASIZE PUSH1 0x0 DUP1 RETURNDATACOPY RETURNDATASIZE PUSH1 0x0 REVERT JUMPDEST POP POP POP POP PUSH1 0x40 MLOAD RETURNDATASIZE PUSH1 0x1F NOT PUSH1 0x1F DUP3 ADD AND DUP3 ADD DUP1 PUSH1 0x40 MSTORE POP DUP2 ADD SWAP1 PUSH2 0x2AF3 SWAP2 SWAP1 PUSH2 0x5328 JUMP JUMPDEST ISZERO JUMPDEST ISZERO PUSH2 0x2F66 JUMPI PUSH1 0x20 DUP2 ADD MLOAD PUSH1 0x1 PUSH1 0x1 PUSH1 0xA0 SHL SUB AND DUP3 MSTORE PUSH1 0xA0 DUP2 ADD MLOAD PUSH2 0x2B18 SWAP1 PUSH2 0x22BA JUMP JUMPDEST PUSH1 0x80 DUP4 ADD MSTORE PUSH1 0x60 DUP2 ADD MLOAD PUSH1 0x40 MLOAD PUSH4 0x2B2076E3 PUSH1 0xE1 SHL DUP2 MSTORE PUSH1 0xFF SWAP1 SWAP2 AND PUSH1 0x4 DUP3 ADD MSTORE PUSH20 0x0 SWAP1 PUSH4 0x5640EDC6 SWAP1 PUSH1 0x24 ADD PUSH1 0x20 PUSH1 0x40 MLOAD DUP1 DUP4 SUB DUP2 DUP7 GAS DELEGATECALL ISZERO DUP1 ISZERO PUSH2 0x2B75 JUMPI RETURNDATASIZE PUSH1 0x0 DUP1 RETURNDATACOPY RETURNDATASIZE PUSH1 0x0 REVERT JUMPDEST POP POP POP POP PUSH1 0x40 MLOAD RETURNDATASIZE PUSH1 0x1F NOT PUSH1 0x1F DUP3 ADD AND DUP3 ADD DUP1 PUSH1 0x40 MSTORE POP DUP2 ADD SWAP1 PUSH2 0x2B99 SWAP2 SWAP1 PUSH2 0x5328 JUMP JUMPDEST ISZERO PUSH2 0x2BAD JUMPI PUSH1 0x80 DUP3 ADD MLOAD PUSH1 0xA0 DUP4 ADD MSTORE PUSH2 0x2CE7 JUMP JUMPDEST PUSH2 0x120 DUP2 ADD MLOAD PUSH1 0x1 PUSH1 0x1 PUSH1 0x40 SHL SUB AND ISZERO PUSH2 0x2BD9 JUMPI PUSH2 0x2BCF DUP2 PUSH2 0x120 ADD MLOAD PUSH2 0x22BA JUMP JUMPDEST PUSH1 0xA0 DUP4 ADD MSTORE PUSH2 0x2CE7 JUMP JUMPDEST PUSH1 0x40 MLOAD PUSH4 0x23AA9AB PUSH1 0xE6 SHL DUP2 MSTORE PUSH1 0x0 DUP1 MLOAD PUSH1 0x20 PUSH2 0x5844 DUP4 CODECOPY DUP2 MLOAD SWAP2 MSTORE PUSH1 0x4 DUP3 ADD MSTORE PUSH32 0x0 PUSH1 0x1 PUSH1 0x1 PUSH1 0xA0 SHL SUB AND SWAP1 PUSH4 0x8EAA6AC0 SWAP1 PUSH1 0x24 ADD PUSH1 0x20 PUSH1 0x40 MLOAD DUP1 DUP4 SUB DUP2 DUP7 GAS STATICCALL ISZERO DUP1 ISZERO PUSH2 0x2C4B JUMPI RETURNDATASIZE PUSH1 0x0 DUP1 RETURNDATACOPY RETURNDATASIZE PUSH1 0x0 REVERT JUMPDEST POP POP POP POP PUSH1 0x40 MLOAD RETURNDATASIZE PUSH1 0x1F NOT PUSH1 0x1F DUP3 ADD AND DUP3 ADD DUP1 PUSH1 0x40 MSTORE POP DUP2 ADD SWAP1 PUSH2 0x2C6F SWAP2 SWAP1 PUSH2 0x534A JUMP JUMPDEST PUSH1 0x1 PUSH1 0x1 PUSH1 0xA0 SHL SUB AND PUSH4 0xA9BF9858 DUP4 PUSH1 0x20 ADD MLOAD PUSH1 0x40 MLOAD DUP3 PUSH4 0xFFFFFFFF AND PUSH1 0xE0 SHL DUP2 MSTORE PUSH1 0x4 ADD PUSH2 0x2CA0 SWAP2 DUP2 MSTORE PUSH1 0x20 ADD SWAP1 JUMP JUMPDEST PUSH1 0x20 PUSH1 0x40 MLOAD DUP1 DUP4 SUB DUP2 DUP7 GAS STATICCALL ISZERO DUP1 ISZERO PUSH2 0x2CBD JUMPI RETURNDATASIZE PUSH1 0x0 DUP1 RETURNDATACOPY RETURNDATASIZE PUSH1 0x0 REVERT JUMPDEST POP POP POP POP PUSH1 0x40 MLOAD RETURNDATASIZE PUSH1 0x1F NOT PUSH1 0x1F DUP3 ADD AND DUP3 ADD DUP1 PUSH1 0x40 MSTORE POP DUP2 ADD SWAP1 PUSH2 0x2CE1 SWAP2 SWAP1 PUSH2 0x545D JUMP JUMPDEST PUSH1 0xA0 DUP4 ADD MSTORE JUMPDEST PUSH2 0x2CF4 DUP2 PUSH1 0xC0 ADD MLOAD PUSH2 0x22BA JUMP JUMPDEST PUSH1 0xC0 DUP4 ADD MSTORE PUSH1 0xE0 DUP2 ADD MLOAD PUSH2 0x2D07 SWAP1 PUSH2 0x22BA JUMP JUMPDEST PUSH1 0xE0 DUP4 ADD MSTORE PUSH1 0x60 DUP2 ADD MLOAD PUSH1 0x40 MLOAD PUSH4 0x5B7D0F69 PUSH1 0xE1 SHL DUP2 MSTORE PUSH1 0xFF SWAP1 SWAP2 AND PUSH1 0x4 DUP3 ADD MSTORE PUSH20 0x0 SWAP1 PUSH4 0xB6FA1ED2 SWAP1 PUSH1 0x24 ADD PUSH1 0x20 PUSH1 0x40 MLOAD DUP1 DUP4 SUB DUP2 DUP7 GAS DELEGATECALL ISZERO DUP1 ISZERO PUSH2 0x2D64 JUMPI RETURNDATASIZE PUSH1 0x0 DUP1 RETURNDATACOPY RETURNDATASIZE PUSH1 0x0 REVERT JUMPDEST POP POP POP POP PUSH1 0x40 MLOAD RETURNDATASIZE PUSH1 0x1F NOT PUSH1 0x1F DUP3 ADD AND DUP3 ADD DUP1 PUSH1 0x40 MSTORE POP DUP2 ADD SWAP1 PUSH2 0x2D88 SWAP2 SWAP1 PUSH2 0x5328 JUMP JUMPDEST ISZERO PUSH2 0x2F51 JUMPI PUSH2 0x2D9B DUP2 PUSH2 0x140 ADD MLOAD PUSH2 0x22BA JUMP JUMPDEST PUSH2 0x120 DUP4 ADD MSTORE PUSH2 0x160 DUP2 ADD MLOAD PUSH2 0x2DB0 SWAP1 PUSH2 0x22BA JUMP JUMPDEST PUSH2 0x140 DUP4 ADD MSTORE PUSH1 0x40 MLOAD PUSH4 0x23AA9AB PUSH1 0xE6 SHL DUP2 MSTORE PUSH32 0x3CB99135F7A7C088D9085B446345038A22A85F4E8FE072B0E1B66D97243E7458 PUSH1 0x4 DUP3 ADD MSTORE PUSH1 0x0 SWAP1 PUSH32 0x0 PUSH1 0x1 PUSH1 0x1 PUSH1 0xA0 SHL SUB AND SWAP1 PUSH4 0x8EAA6AC0 SWAP1 PUSH1 0x24 ADD PUSH1 0x20 PUSH1 0x40 MLOAD DUP1 DUP4 SUB DUP2 DUP7 GAS STATICCALL ISZERO DUP1 ISZERO PUSH2 0x2E3D JUMPI RETURNDATASIZE PUSH1 0x0 DUP1 RETURNDATACOPY RETURNDATASIZE PUSH1 0x0 REVERT JUMPDEST POP POP POP POP PUSH1 0x40 MLOAD RETURNDATASIZE PUSH1 0x1F NOT PUSH1 0x1F DUP3 ADD AND DUP3 ADD DUP1 PUSH1 0x40 MSTORE POP DUP2 ADD SWAP1 PUSH2 0x2E61 SWAP2 SWAP1 PUSH2 0x534A JUMP JUMPDEST PUSH1 0x1 PUSH1 0x1 PUSH1 0xA0 SHL SUB AND PUSH4 0x6464B68A DUP5 PUSH1 0x20 ADD MLOAD DUP6 PUSH1 0x40 ADD MLOAD PUSH1 0x40 MLOAD DUP4 PUSH4 0xFFFFFFFF AND PUSH1 0xE0 SHL DUP2 MSTORE PUSH1 0x4 ADD PUSH2 0x2E9F SWAP3 SWAP2 SWAP1 SWAP2 DUP3 MSTORE PUSH1 0x20 DUP3 ADD MSTORE PUSH1 0x40 ADD SWAP1 JUMP JUMPDEST PUSH1 0x60 PUSH1 0x40 MLOAD DUP1 DUP4 SUB DUP2 DUP7 GAS STATICCALL ISZERO DUP1 ISZERO PUSH2 0x2EBC JUMPI RETURNDATASIZE PUSH1 0x0 DUP1 RETURNDATACOPY RETURNDATASIZE PUSH1 0x0 REVERT JUMPDEST POP POP POP POP PUSH1 0x40 MLOAD RETURNDATASIZE PUSH1 0x1F NOT PUSH1 0x1F DUP3 ADD AND DUP3 ADD DUP1 PUSH1 0x40 MSTORE POP DUP2 ADD SWAP1 PUSH2 0x2EE0 SWAP2 SWAP1 PUSH2 0x5476 JUMP JUMPDEST POP SWAP2 POP POP DUP1 PUSH2 0x2F25 JUMPI PUSH1 0x40 MLOAD PUSH3 0x461BCD PUSH1 0xE5 SHL DUP2 MSTORE PUSH1 0x20 PUSH1 0x4 DUP3 ADD MSTORE PUSH1 0x11 PUSH1 0x24 DUP3 ADD MSTORE PUSH17 0x145D5BDD194E88139BDD081C5D5BDD1959 PUSH1 0x7A SHL PUSH1 0x44 DUP3 ADD MSTORE PUSH1 0x64 ADD PUSH2 0x6E6 JUMP JUMPDEST PUSH2 0x140 DUP4 ADD MLOAD PUSH2 0x2F35 SWAP1 DUP3 PUSH2 0x53B8 JUMP JUMPDEST DUP4 PUSH2 0x120 ADD MLOAD PUSH2 0x2F45 SWAP2 SWAP1 PUSH2 0x53DA JUMP JUMPDEST PUSH2 0x100 DUP5 ADD MSTORE POP PUSH2 0x2F66 JUMP JUMPDEST PUSH2 0x2F5F DUP2 PUSH2 0x100 ADD MLOAD PUSH2 0x22BA JUMP JUMPDEST PUSH2 0x100 DUP4 ADD MSTORE JUMPDEST PUSH1 0x40 MLOAD PUSH4 0x212D6CB PUSH1 0xE2 SHL DUP2 MSTORE PUSH20 0x0 SWAP1 PUSH4 0x84B5B2C SWAP1 PUSH2 0x2F9D SWAP1 DUP5 SWAP1 PUSH1 0x4 ADD PUSH2 0x5596 JUMP JUMPDEST PUSH1 0x20 PUSH1 0x40 MLOAD DUP1 DUP4 SUB DUP2 DUP7 GAS DELEGATECALL ISZERO DUP1 ISZERO PUSH2 0x2FBA JUMPI RETURNDATASIZE PUSH1 0x0 DUP1 RETURNDATACOPY RETURNDATASIZE PUSH1 0x0 REVERT JUMPDEST POP POP POP POP PUSH1 0x40 MLOAD RETURNDATASIZE PUSH1 0x1F NOT PUSH1 0x1F DUP3 ADD AND DUP3 ADD DUP1 PUSH1 0x40 MSTORE POP DUP2 ADD SWAP1 PUSH2 0x2FDE SWAP2 SWAP1 PUSH2 0x545D JUMP JUMPDEST PUSH2 0x160 DUP4 ADD MSTORE PUSH1 0x40 DUP2 ADD MLOAD PUSH2 0x180 DUP4 ADD SWAP1 PUSH1 0x5 DUP2 GT ISZERO PUSH2 0x3000 JUMPI PUSH2 0x3000 PUSH2 0x4F3D JUMP JUMPDEST SWAP1 DUP2 PUSH1 0x5 DUP2 GT ISZERO PUSH2 0x3013 JUMPI PUSH2 0x3013 PUSH2 0x4F3D JUMP JUMPDEST SWAP1 MSTORE POP PUSH1 0x60 ADD MLOAD PUSH1 0xFF AND PUSH2 0x1A0 DUP3 ADD MSTORE SWAP3 SWAP2 POP POP JUMP JUMPDEST PUSH1 0x0 SLOAD PUSH1 0x1 PUSH1 0x1 PUSH1 0xA0 SHL SUB PUSH3 0x10000 SWAP1 SWAP2 DIV AND CALLER EQ PUSH2 0x6EF JUMPI PUSH1 0x40 MLOAD PUSH3 0x461BCD PUSH1 0xE5 SHL DUP2 MSTORE PUSH1 0x20 PUSH1 0x4 DUP3 ADD MSTORE PUSH1 0x1F PUSH1 0x24 DUP3 ADD MSTORE PUSH32 0x416C6C6F77616E63653A2063616C6C6572206D757374206265204F776E657200 PUSH1 0x44 DUP3 ADD MSTORE PUSH1 0x64 ADD PUSH2 0x6E6 JUMP JUMPDEST PUSH1 0x0 DUP1 SLOAD PUSH1 0x1 PUSH1 0x1 PUSH1 0xA0 SHL SUB DUP4 DUP2 AND PUSH3 0x10000 DUP2 DUP2 MUL PUSH3 0x10000 PUSH1 0x1 PUSH1 0xB0 SHL SUB NOT DUP6 AND OR DUP6 SSTORE PUSH1 0x40 MLOAD SWAP4 DIV SWAP2 SWAP1 SWAP2 AND SWAP3 SWAP1 SWAP2 DUP4 SWAP2 PUSH32 0x8BE0079C531659141344CD1FD0A4F28419497F9722A3DAAFE3B4186F6B6457E0 SWAP2 LOG3 POP POP JUMP JUMPDEST PUSH1 0x0 DUP1 DUP1 PUSH1 0x0 DUP1 PUSH8 0xDE0B6B3A7640000 PUSH2 0x3115 DUP11 PUSH1 0x3 ADD PUSH1 0x18 SWAP1 SLOAD SWAP1 PUSH2 0x100 EXP SWAP1 DIV PUSH1 0x1 PUSH1 0x1 PUSH1 0x40 SHL SUB AND PUSH2 0x22BA JUMP JUMPDEST PUSH2 0x311F SWAP1 DUP9 PUSH2 0x53DA JUMP JUMPDEST PUSH2 0x3129 SWAP2 SWAP1 PUSH2 0x53B8 JUMP JUMPDEST DUP10 SLOAD PUSH1 0x40 MLOAD PUSH4 0x657C7E09 PUSH1 0xE0 SHL DUP2 MSTORE SWAP2 SWAP3 POP PUSH1 0x0 SWAP2 DUP3 SWAP2 PUSH1 0x1 PUSH1 0x1 PUSH1 0xA0 SHL SUB PUSH32 0x0 AND SWAP2 PUSH4 0x657C7E09 SWAP2 PUSH2 0x3181 SWAP2 PUSH1 0x4 ADD SWAP1 DUP2 MSTORE PUSH1 0x20 ADD SWAP1 JUMP JUMPDEST PUSH1 0x40 DUP1 MLOAD DUP1 DUP4 SUB DUP2 DUP7 GAS STATICCALL ISZERO DUP1 ISZERO PUSH2 0x319D JUMPI RETURNDATASIZE PUSH1 0x0 DUP1 RETURNDATACOPY RETURNDATASIZE PUSH1 0x0 REVERT JUMPDEST POP POP POP POP PUSH1 0x40 MLOAD RETURNDATASIZE PUSH1 0x1F NOT PUSH1 0x1F DUP3 ADD AND DUP3 ADD DUP1 PUSH1 0x40 MSTORE POP DUP2 ADD SWAP1 PUSH2 0x31C1 SWAP2 SWAP1 PUSH2 0x5439 JUMP JUMPDEST PUSH1 0x1 DUP14 ADD SLOAD PUSH1 0x40 MLOAD PUSH4 0xF0340A37 PUSH1 0xE0 SHL DUP2 MSTORE PUSH1 0x1 PUSH1 0xA8 SHL SWAP1 SWAP2 DIV PUSH1 0xFF AND PUSH1 0x4 DUP3 ADD MSTORE SWAP2 SWAP4 POP SWAP2 POP PUSH20 0x0 SWAP1 PUSH4 0xF0340A37 SWAP1 PUSH1 0x24 ADD PUSH1 0x20 PUSH1 0x40 MLOAD DUP1 DUP4 SUB DUP2 DUP7 GAS DELEGATECALL ISZERO DUP1 ISZERO PUSH2 0x3224 JUMPI RETURNDATASIZE PUSH1 0x0 DUP1 RETURNDATACOPY RETURNDATASIZE PUSH1 0x0 REVERT JUMPDEST POP POP POP POP PUSH1 0x40 MLOAD RETURNDATASIZE PUSH1 0x1F NOT PUSH1 0x1F DUP3 ADD AND DUP3 ADD DUP1 PUSH1 0x40 MSTORE POP DUP2 ADD SWAP1 PUSH2 0x3248 SWAP2 SWAP1 PUSH2 0x5328 JUMP JUMPDEST ISZERO PUSH2 0x3350 JUMPI PUSH1 0x40 MLOAD PUSH4 0x23AA9AB PUSH1 0xE6 SHL DUP2 MSTORE PUSH1 0x0 DUP1 MLOAD PUSH1 0x20 PUSH2 0x5844 DUP4 CODECOPY DUP2 MLOAD SWAP2 MSTORE PUSH1 0x4 DUP3 ADD MSTORE PUSH32 0x0 PUSH1 0x1 PUSH1 0x1 PUSH1 0xA0 SHL SUB AND SWAP1 PUSH4 0x8EAA6AC0 SWAP1 PUSH1 0x24 ADD PUSH1 0x20 PUSH1 0x40 MLOAD DUP1 DUP4 SUB DUP2 DUP7 GAS STATICCALL ISZERO DUP1 ISZERO PUSH2 0x32BF JUMPI RETURNDATASIZE PUSH1 0x0 DUP1 RETURNDATACOPY RETURNDATASIZE PUSH1 0x0 REVERT JUMPDEST POP POP POP POP PUSH1 0x40 MLOAD RETURNDATASIZE PUSH1 0x1F NOT PUSH1 0x1F DUP3 ADD AND DUP3 ADD DUP1 PUSH1 0x40 MSTORE POP DUP2 ADD SWAP1 PUSH2 0x32E3 SWAP2 SWAP1 PUSH2 0x534A JUMP JUMPDEST PUSH1 0x1 DUP13 ADD SLOAD PUSH1 0x40 MLOAD PUSH4 0x255318AF PUSH1 0xE2 SHL DUP2 MSTORE PUSH1 0x1 PUSH1 0x1 PUSH1 0xA0 SHL SUB SWAP3 DUP4 AND SWAP3 PUSH4 0x954C62BC SWAP3 PUSH2 0x331D SWAP3 DUP8 SWAP3 SWAP1 SWAP2 AND SWAP1 ADDRESS SWAP1 DUP15 SWAP1 PUSH1 0x4 ADD PUSH2 0x5571 JUMP JUMPDEST PUSH1 0x0 PUSH1 0x40 MLOAD DUP1 DUP4 SUB DUP2 PUSH1 0x0 DUP8 DUP1 EXTCODESIZE ISZERO DUP1 ISZERO PUSH2 0x3337 JUMPI PUSH1 0x0 DUP1 REVERT JUMPDEST POP GAS CALL ISZERO DUP1 ISZERO PUSH2 0x334B JUMPI RETURNDATASIZE PUSH1 0x0 DUP1 RETURNDATACOPY RETURNDATASIZE PUSH1 0x0 REVERT JUMPDEST POP POP POP POP JUMPDEST DUP9 ISZERO PUSH2 0x3450 JUMPI PUSH1 0x40 MLOAD PUSH4 0x23AA9AB PUSH1 0xE6 SHL DUP2 MSTORE PUSH1 0x0 DUP1 MLOAD PUSH1 0x20 PUSH2 0x5844 DUP4 CODECOPY DUP2 MLOAD SWAP2 MSTORE PUSH1 0x4 DUP3 ADD MSTORE PUSH32 0x0 PUSH1 0x1 PUSH1 0x1 PUSH1 0xA0 SHL SUB AND SWAP1 PUSH4 0x8EAA6AC0 SWAP1 PUSH1 0x24 ADD PUSH1 0x20 PUSH1 0x40 MLOAD DUP1 DUP4 SUB DUP2 DUP7 GAS STATICCALL ISZERO DUP1 ISZERO PUSH2 0x33C8 JUMPI RETURNDATASIZE PUSH1 0x0 DUP1 RETURNDATACOPY RETURNDATASIZE PUSH1 0x0 REVERT JUMPDEST POP POP POP POP PUSH1 0x40 MLOAD RETURNDATASIZE PUSH1 0x1F NOT PUSH1 0x1F DUP3 ADD AND DUP3 ADD DUP1 PUSH1 0x40 MSTORE POP DUP2 ADD SWAP1 PUSH2 0x33EC SWAP2 SWAP1 PUSH2 0x534A JUMP JUMPDEST PUSH1 0x1 PUSH1 0x1 PUSH1 0xA0 SHL SUB AND PUSH4 0x954C62BC DUP3 DUP13 ADDRESS DUP8 PUSH1 0x40 MLOAD DUP6 PUSH4 0xFFFFFFFF AND PUSH1 0xE0 SHL DUP2 MSTORE PUSH1 0x4 ADD PUSH2 0x341D SWAP5 SWAP4 SWAP3 SWAP2 SWAP1 PUSH2 0x5571 JUMP JUMPDEST PUSH1 0x0 PUSH1 0x40 MLOAD DUP1 DUP4 SUB DUP2 PUSH1 0x0 DUP8 DUP1 EXTCODESIZE ISZERO DUP1 ISZERO PUSH2 0x3437 JUMPI PUSH1 0x0 DUP1 REVERT JUMPDEST POP GAS CALL ISZERO DUP1 ISZERO PUSH2 0x344B JUMPI RETURNDATASIZE PUSH1 0x0 DUP1 RETURNDATACOPY RETURNDATASIZE PUSH1 0x0 REVERT JUMPDEST POP POP POP POP JUMPDEST DUP6 ISZERO PUSH2 0x3559 JUMPI PUSH1 0x40 MLOAD PUSH4 0x23AA9AB PUSH1 0xE6 SHL DUP2 MSTORE PUSH1 0x0 DUP1 MLOAD PUSH1 0x20 PUSH2 0x5844 DUP4 CODECOPY DUP2 MLOAD SWAP2 MSTORE PUSH1 0x4 DUP3 ADD MSTORE PUSH32 0x0 PUSH1 0x1 PUSH1 0x1 PUSH1 0xA0 SHL SUB AND SWAP1 PUSH4 0x8EAA6AC0 SWAP1 PUSH1 0x24 ADD PUSH1 0x20 PUSH1 0x40 MLOAD DUP1 DUP4 SUB DUP2 DUP7 GAS STATICCALL ISZERO DUP1 ISZERO PUSH2 0x34C8 JUMPI RETURNDATASIZE PUSH1 0x0 DUP1 RETURNDATACOPY RETURNDATASIZE PUSH1 0x0 REVERT JUMPDEST POP POP POP POP PUSH1 0x40 MLOAD RETURNDATASIZE PUSH1 0x1F NOT PUSH1 0x1F DUP3 ADD AND DUP3 ADD DUP1 PUSH1 0x40 MSTORE POP DUP2 ADD SWAP1 PUSH2 0x34EC SWAP2 SWAP1 PUSH2 0x534A JUMP JUMPDEST PUSH1 0x1 DUP13 ADD SLOAD PUSH1 0x40 MLOAD PUSH4 0x1C9619A7 PUSH1 0xE0 SHL DUP2 MSTORE PUSH1 0x1 PUSH1 0x1 PUSH1 0xA0 SHL SUB SWAP3 DUP4 AND SWAP3 PUSH4 0x1C9619A7 SWAP3 PUSH2 0x3526 SWAP3 DUP8 SWAP3 SWAP1 SWAP2 AND SWAP1 DUP13 SWAP1 DUP13 SWAP1 PUSH1 0x4 ADD PUSH2 0x5571 JUMP JUMPDEST PUSH1 0x0 PUSH1 0x40 MLOAD DUP1 DUP4 SUB DUP2 PUSH1 0x0 DUP8 DUP1 EXTCODESIZE ISZERO DUP1 ISZERO PUSH2 0x3540 JUMPI PUSH1 0x0 DUP1 REVERT JUMPDEST POP GAS CALL ISZERO DUP1 ISZERO PUSH2 0x3554 JUMPI RETURNDATASIZE PUSH1 0x0 DUP1 RETURNDATACOPY RETURNDATASIZE PUSH1 0x0 REVERT JUMPDEST POP POP POP POP JUMPDEST DUP4 ISZERO PUSH2 0x3659 JUMPI PUSH1 0x40 MLOAD PUSH4 0x23AA9AB PUSH1 0xE6 SHL DUP2 MSTORE PUSH1 0x0 DUP1 MLOAD PUSH1 0x20 PUSH2 0x5844 DUP4 CODECOPY DUP2 MLOAD SWAP2 MSTORE PUSH1 0x4 DUP3 ADD MSTORE PUSH32 0x0 PUSH1 0x1 PUSH1 0x1 PUSH1 0xA0 SHL SUB AND SWAP1 PUSH4 0x8EAA6AC0 SWAP1 PUSH1 0x24 ADD PUSH1 0x20 PUSH1 0x40 MLOAD DUP1 DUP4 SUB DUP2 DUP7 GAS STATICCALL ISZERO DUP1 ISZERO PUSH2 0x35D1 JUMPI RETURNDATASIZE PUSH1 0x0 DUP1 RETURNDATACOPY RETURNDATASIZE PUSH1 0x0 REVERT JUMPDEST POP POP POP POP PUSH1 0x40 MLOAD RETURNDATASIZE PUSH1 0x1F NOT PUSH1 0x1F DUP3 ADD AND DUP3 ADD DUP1 PUSH1 0x40 MSTORE POP DUP2 ADD SWAP1 PUSH2 0x35F5 SWAP2 SWAP1 PUSH2 0x534A JUMP JUMPDEST PUSH1 0x1 PUSH1 0x1 PUSH1 0xA0 SHL SUB AND PUSH4 0x1C9619A7 DUP3 DUP13 DUP9 DUP9 PUSH1 0x40 MLOAD DUP6 PUSH4 0xFFFFFFFF AND PUSH1 0xE0 SHL DUP2 MSTORE PUSH1 0x4 ADD PUSH2 0x3626 SWAP5 SWAP4 SWAP3 SWAP2 SWAP1 PUSH2 0x5571 JUMP JUMPDEST PUSH1 0x0 PUSH1 0x40 MLOAD DUP1 DUP4 SUB DUP2 PUSH1 0x0 DUP8 DUP1 EXTCODESIZE ISZERO DUP1 ISZERO PUSH2 0x3640 JUMPI PUSH1 0x0 DUP1 REVERT JUMPDEST POP GAS CALL ISZERO DUP1 ISZERO PUSH2 0x3654 JUMPI RETURNDATASIZE PUSH1 0x0 DUP1 RETURNDATACOPY RETURNDATASIZE PUSH1 0x0 REVERT JUMPDEST POP POP POP POP JUMPDEST PUSH1 0x40 MLOAD PUSH4 0x23AA9AB PUSH1 0xE6 SHL DUP2 MSTORE PUSH1 0x0 DUP1 MLOAD PUSH1 0x20 PUSH2 0x5844 DUP4 CODECOPY DUP2 MLOAD SWAP2 MSTORE PUSH1 0x4 DUP3 ADD MSTORE PUSH32 0x0 PUSH1 0x1 PUSH1 0x1 PUSH1 0xA0 SHL SUB AND SWAP1 PUSH4 0x8EAA6AC0 SWAP1 PUSH1 0x24 ADD PUSH1 0x20 PUSH1 0x40 MLOAD DUP1 DUP4 SUB DUP2 DUP7 GAS STATICCALL ISZERO DUP1 ISZERO PUSH2 0x36CB JUMPI RETURNDATASIZE PUSH1 0x0 DUP1 RETURNDATACOPY RETURNDATASIZE PUSH1 0x0 REVERT JUMPDEST POP POP POP POP PUSH1 0x40 MLOAD RETURNDATASIZE PUSH1 0x1F NOT PUSH1 0x1F DUP3 ADD AND DUP3 ADD DUP1 PUSH1 0x40 MSTORE POP DUP2 ADD SWAP1 PUSH2 0x36EF SWAP2 SWAP1 PUSH2 0x534A JUMP JUMPDEST PUSH1 0x1 DUP13 ADD SLOAD PUSH1 0x1 PUSH1 0x1 PUSH1 0xA0 SHL SUB SWAP2 DUP3 AND SWAP2 PUSH4 0x1C9619A7 SWAP2 DUP6 SWAP2 AND DUP14 PUSH2 0x3714 DUP12 DUP15 PUSH2 0x54A4 JUMP JUMPDEST PUSH1 0x40 MLOAD DUP6 PUSH4 0xFFFFFFFF AND PUSH1 0xE0 SHL DUP2 MSTORE PUSH1 0x4 ADD PUSH2 0x3733 SWAP5 SWAP4 SWAP3 SWAP2 SWAP1 PUSH2 0x5571 JUMP JUMPDEST PUSH1 0x0 PUSH1 0x40 MLOAD DUP1 DUP4 SUB DUP2 PUSH1 0x0 DUP8 DUP1 EXTCODESIZE ISZERO DUP1 ISZERO PUSH2 0x374D JUMPI PUSH1 0x0 DUP1 REVERT JUMPDEST POP GAS CALL ISZERO DUP1 ISZERO PUSH2 0x3761 JUMPI RETURNDATASIZE PUSH1 0x0 DUP1 RETURNDATACOPY RETURNDATASIZE PUSH1 0x0 REVERT JUMPDEST POP POP PUSH1 0x40 MLOAD PUSH4 0x23AA9AB PUSH1 0xE6 SHL DUP2 MSTORE PUSH1 0x0 DUP1 MLOAD PUSH1 0x20 PUSH2 0x5844 DUP4 CODECOPY DUP2 MLOAD SWAP2 MSTORE PUSH1 0x4 DUP3 ADD MSTORE PUSH32 0x0 PUSH1 0x1 PUSH1 0x1 PUSH1 0xA0 SHL SUB AND SWAP3 POP PUSH4 0x8EAA6AC0 SWAP2 POP PUSH1 0x24 ADD PUSH1 0x20 PUSH1 0x40 MLOAD DUP1 DUP4 SUB DUP2 DUP7 GAS STATICCALL ISZERO DUP1 ISZERO PUSH2 0x37D7 JUMPI RETURNDATASIZE PUSH1 0x0 DUP1 RETURNDATACOPY RETURNDATASIZE PUSH1 0x0 REVERT JUMPDEST POP POP POP POP PUSH1 0x40 MLOAD RETURNDATASIZE PUSH1 0x1F NOT PUSH1 0x1F DUP3 ADD AND DUP3 ADD DUP1 PUSH1 0x40 MSTORE POP DUP2 ADD SWAP1 PUSH2 0x37FB SWAP2 SWAP1 PUSH2 0x534A JUMP JUMPDEST PUSH1 0x1 DUP13 ADD SLOAD PUSH1 0x1 PUSH1 0x1 PUSH1 0xA0 SHL SUB SWAP2 DUP3 AND SWAP2 PUSH4 0x1C9619A7 SWAP2 DUP5 SWAP2 DUP15 SWAP2 AND PUSH2 0x3821 DUP10 DUP10 PUSH2 0x54A4 JUMP JUMPDEST PUSH1 0x40 MLOAD DUP6 PUSH4 0xFFFFFFFF AND PUSH1 0xE0 SHL DUP2 MSTORE PUSH1 0x4 ADD PUSH2 0x3840 SWAP5 SWAP4 SWAP3 SWAP2 SWAP1 PUSH2 0x5571 JUMP JUMPDEST PUSH1 0x0 PUSH1 0x40 MLOAD DUP1 DUP4 SUB DUP2 PUSH1 0x0 DUP8 DUP1 EXTCODESIZE ISZERO DUP1 ISZERO PUSH2 0x385A JUMPI PUSH1 0x0 DUP1 REVERT JUMPDEST POP GAS CALL ISZERO DUP1 ISZERO PUSH2 0x386E JUMPI RETURNDATASIZE PUSH1 0x0 DUP1 RETURNDATACOPY RETURNDATASIZE PUSH1 0x0 REVERT JUMPDEST POP POP POP POP POP POP POP POP POP POP POP POP POP POP POP JUMP JUMPDEST PUSH1 0x0 DUP2 PUSH1 0x5 DUP2 GT ISZERO PUSH2 0x3893 JUMPI PUSH2 0x3893 PUSH2 0x4F3D JUMP JUMPDEST GT DUP1 ISZERO PUSH2 0x38B2 JUMPI POP PUSH1 0x3 DUP2 PUSH1 0x5 DUP2 GT ISZERO PUSH2 0x38AF JUMPI PUSH2 0x38AF PUSH2 0x4F3D JUMP JUMPDEST GT ISZERO JUMPDEST DUP1 ISZERO PUSH2 0x38DE JUMPI POP PUSH1 0x4 PUSH1 0x1 DUP4 ADD SLOAD PUSH1 0x1 PUSH1 0xA0 SHL SWAP1 DIV PUSH1 0xFF AND PUSH1 0x5 DUP2 GT ISZERO PUSH2 0x38DB JUMPI PUSH2 0x38DB PUSH2 0x4F3D JUMP JUMPDEST LT ISZERO JUMPDEST PUSH2 0x392A JUMPI PUSH1 0x40 MLOAD PUSH3 0x461BCD PUSH1 0xE5 SHL DUP2 MSTORE PUSH1 0x20 PUSH1 0x4 DUP3 ADD MSTORE PUSH1 0x1D PUSH1 0x24 DUP3 ADD MSTORE PUSH32 0x5F6F726465725465726D696E6174652073746174652070726F626C656D000000 PUSH1 0x44 DUP3 ADD MSTORE PUSH1 0x64 ADD PUSH2 0x6E6 JUMP JUMPDEST DUP2 SLOAD PUSH1 0x40 MLOAD PUSH4 0x657C7E09 PUSH1 0xE0 SHL DUP2 MSTORE PUSH1 0x4 DUP2 ADD SWAP2 SWAP1 SWAP2 MSTORE PUSH1 0x0 SWAP1 DUP2 SWAP1 PUSH32 0x0 PUSH1 0x1 PUSH1 0x1 PUSH1 0xA0 SHL SUB AND SWAP1 PUSH4 0x657C7E09 SWAP1 PUSH1 0x24 ADD PUSH1 0x40 DUP1 MLOAD DUP1 DUP4 SUB DUP2 DUP7 GAS STATICCALL ISZERO DUP1 ISZERO PUSH2 0x3996 JUMPI RETURNDATASIZE PUSH1 0x0 DUP1 RETURNDATACOPY RETURNDATASIZE PUSH1 0x0 REVERT JUMPDEST POP POP POP POP PUSH1 0x40 MLOAD RETURNDATASIZE PUSH1 0x1F NOT PUSH1 0x1F DUP3 ADD AND DUP3 ADD DUP1 PUSH1 0x40 MSTORE POP DUP2 ADD SWAP1 PUSH2 0x39BA SWAP2 SWAP1 PUSH2 0x5439 JUMP JUMPDEST PUSH1 0x1 DUP7 ADD DUP1 SLOAD SWAP3 SWAP5 POP SWAP1 SWAP3 POP DUP5 SWAP2 PUSH1 0xFF PUSH1 0xA0 SHL NOT AND PUSH1 0x1 PUSH1 0xA0 SHL DUP4 PUSH1 0x5 DUP2 GT ISZERO PUSH2 0x39E6 JUMPI PUSH2 0x39E6 PUSH2 0x4F3D JUMP JUMPDEST MUL OR SWAP1 SSTORE POP PUSH1 0x1 DUP5 ADD SLOAD PUSH1 0x40 MLOAD PUSH4 0xF0340A37 PUSH1 0xE0 SHL DUP2 MSTORE PUSH1 0x1 PUSH1 0xA8 SHL SWAP1 SWAP2 DIV PUSH1 0xFF AND PUSH1 0x4 DUP3 ADD MSTORE PUSH20 0x0 SWAP1 PUSH4 0xF0340A37 SWAP1 PUSH1 0x24 ADD PUSH1 0x20 PUSH1 0x40 MLOAD DUP1 DUP4 SUB DUP2 DUP7 GAS DELEGATECALL ISZERO DUP1 ISZERO PUSH2 0x3A49 JUMPI RETURNDATASIZE PUSH1 0x0 DUP1 RETURNDATACOPY RETURNDATASIZE PUSH1 0x0 REVERT JUMPDEST POP POP POP POP PUSH1 0x40 MLOAD RETURNDATASIZE PUSH1 0x1F NOT PUSH1 0x1F DUP3 ADD AND DUP3 ADD DUP1 PUSH1 0x40 MSTORE POP DUP2 ADD SWAP1 PUSH2 0x3A6D SWAP2 SWAP1 PUSH2 0x5328 JUMP JUMPDEST ISZERO PUSH2 0x3BA4 JUMPI PUSH1 0x40 MLOAD PUSH4 0x23AA9AB PUSH1 0xE6 SHL DUP2 MSTORE PUSH1 0x0 DUP1 MLOAD PUSH1 0x20 PUSH2 0x5844 DUP4 CODECOPY DUP2 MLOAD SWAP2 MSTORE PUSH1 0x4 DUP3 ADD MSTORE PUSH32 0x0 PUSH1 0x1 PUSH1 0x1 PUSH1 0xA0 SHL SUB AND SWAP1 PUSH4 0x8EAA6AC0 SWAP1 PUSH1 0x24 ADD PUSH1 0x20 PUSH1 0x40 MLOAD DUP1 DUP4 SUB DUP2 DUP7 GAS STATICCALL ISZERO DUP1 ISZERO PUSH2 0x3AE4 JUMPI RETURNDATASIZE PUSH1 0x0 DUP1 RETURNDATACOPY RETURNDATASIZE PUSH1 0x0 REVERT JUMPDEST POP POP POP POP PUSH1 0x40 MLOAD RETURNDATASIZE PUSH1 0x1F NOT PUSH1 0x1F DUP3 ADD AND DUP3 ADD DUP1 PUSH1 0x40 MSTORE POP DUP2 ADD SWAP1 PUSH2 0x3B08 SWAP2 SWAP1 PUSH2 0x534A JUMP JUMPDEST PUSH1 0x1 DUP6 ADD SLOAD PUSH1 0x3 DUP7 ADD SLOAD PUSH1 0x1 PUSH1 0x1 PUSH1 0xA0 SHL SUB SWAP3 DUP4 AND SWAP3 PUSH4 0x954C62BC SWAP3 DUP6 SWAP3 SWAP2 AND SWAP1 ADDRESS SWAP1 PUSH2 0x3B52 SWAP1 PUSH2 0x444 SWAP1 PUSH1 0x1 PUSH1 0x1 PUSH1 0x40 SHL SUB PUSH1 0x1 PUSH1 0x40 SHL DUP3 DIV DUP2 AND SWAP2 PUSH1 0x1 PUSH1 0x80 SHL SWAP1 DIV AND PUSH2 0x54D3 JUMP JUMPDEST PUSH1 0x40 MLOAD DUP6 PUSH4 0xFFFFFFFF AND PUSH1 0xE0 SHL DUP2 MSTORE PUSH1 0x4 ADD PUSH2 0x3B71 SWAP5 SWAP4 SWAP3 SWAP2 SWAP1 PUSH2 0x5571 JUMP JUMPDEST PUSH1 0x0 PUSH1 0x40 MLOAD DUP1 DUP4 SUB DUP2 PUSH1 0x0 DUP8 DUP1 EXTCODESIZE ISZERO DUP1 ISZERO PUSH2 0x3B8B JUMPI PUSH1 0x0 DUP1 REVERT JUMPDEST POP GAS CALL ISZERO DUP1 ISZERO PUSH2 0x3B9F JUMPI RETURNDATASIZE PUSH1 0x0 DUP1 RETURNDATACOPY RETURNDATASIZE PUSH1 0x0 REVERT JUMPDEST POP POP POP POP JUMPDEST DUP4 SLOAD PUSH1 0x0 SWAP1 DUP2 MSTORE PUSH1 0x6 PUSH1 0x20 MSTORE PUSH1 0x40 SWAP1 DUP2 SWAP1 KECCAK256 PUSH1 0x2 DUP7 ADD SLOAD SWAP2 MLOAD PUSH4 0xCEF945B PUSH1 0xE3 SHL DUP2 MSTORE PUSH20 0x0 SWAP3 PUSH4 0x677CA2D8 SWAP3 PUSH2 0x3BFB SWAP3 SWAP1 SWAP2 SWAP1 PUSH1 0x4 ADD SWAP2 DUP3 MSTORE PUSH1 0x20 DUP3 ADD MSTORE PUSH1 0x40 ADD SWAP1 JUMP JUMPDEST PUSH1 0x20 PUSH1 0x40 MLOAD DUP1 DUP4 SUB DUP2 DUP7 GAS DELEGATECALL ISZERO DUP1 ISZERO PUSH2 0x3C18 JUMPI RETURNDATASIZE PUSH1 0x0 DUP1 RETURNDATACOPY RETURNDATASIZE PUSH1 0x0 REVERT JUMPDEST POP POP POP POP PUSH1 0x40 MLOAD RETURNDATASIZE PUSH1 0x1F NOT PUSH1 0x1F DUP3 ADD AND DUP3 ADD DUP1 PUSH1 0x40 MSTORE POP DUP2 ADD SWAP1 PUSH2 0x3C3C SWAP2 SWAP1 PUSH2 0x5328 JUMP JUMPDEST POP PUSH1 0x0 DUP3 DUP2 MSTORE PUSH1 0x7 PUSH1 0x20 MSTORE PUSH1 0x40 SWAP1 DUP2 SWAP1 KECCAK256 PUSH1 0x2 DUP7 ADD SLOAD SWAP2 MLOAD PUSH4 0xCEF945B PUSH1 0xE3 SHL DUP2 MSTORE PUSH20 0x0 SWAP3 PUSH4 0x677CA2D8 SWAP3 PUSH2 0x3C92 SWAP3 SWAP1 SWAP2 SWAP1 PUSH1 0x4 ADD SWAP2 DUP3 MSTORE PUSH1 0x20 DUP3 ADD MSTORE PUSH1 0x40 ADD SWAP1 JUMP JUMPDEST PUSH1 0x20 PUSH1 0x40 MLOAD DUP1 DUP4 SUB DUP2 DUP7 GAS DELEGATECALL ISZERO DUP1 ISZERO PUSH2 0x3CAF JUMPI RETURNDATASIZE PUSH1 0x0 DUP1 RETURNDATACOPY RETURNDATASIZE PUSH1 0x0 REVERT JUMPDEST POP POP POP POP PUSH1 0x40 MLOAD RETURNDATASIZE PUSH1 0x1F NOT PUSH1 0x1F DUP3 ADD AND DUP3 ADD DUP1 PUSH1 0x40 MSTORE POP DUP2 ADD SWAP1 PUSH2 0x3CD3 SWAP2 SWAP1 PUSH2 0x5328 JUMP JUMPDEST POP PUSH1 0x0 DUP2 DUP2 MSTORE PUSH1 0x8 PUSH1 0x20 MSTORE PUSH1 0x40 SWAP1 DUP2 SWAP1 KECCAK256 PUSH1 0x2 DUP7 ADD SLOAD SWAP2 MLOAD PUSH4 0xCEF945B PUSH1 0xE3 SHL DUP2 MSTORE PUSH20 0x0 SWAP3 PUSH4 0x677CA2D8 SWAP3 PUSH2 0x3D29 SWAP3 SWAP1 SWAP2 SWAP1 PUSH1 0x4 ADD SWAP2 DUP3 MSTORE PUSH1 0x20 DUP3 ADD MSTORE PUSH1 0x40 ADD SWAP1 JUMP JUMPDEST PUSH1 0x20 PUSH1 0x40 MLOAD DUP1 DUP4 SUB DUP2 DUP7 GAS DELEGATECALL ISZERO DUP1 ISZERO PUSH2 0x3D46 JUMPI RETURNDATASIZE PUSH1 0x0 DUP1 RETURNDATACOPY RETURNDATASIZE PUSH1 0x0 REVERT JUMPDEST POP POP POP POP PUSH1 0x40 MLOAD RETURNDATASIZE PUSH1 0x1F NOT PUSH1 0x1F DUP3 ADD AND DUP3 ADD DUP1 PUSH1 0x40 MSTORE POP DUP2 ADD SWAP1 PUSH2 0x3D6A SWAP2 SWAP1 PUSH2 0x5328 JUMP JUMPDEST POP POP POP POP POP JUMP JUMPDEST PUSH1 0x2 DUP2 ADD SLOAD PUSH1 0x40 MLOAD PUSH4 0xCEF945B PUSH1 0xE3 SHL DUP2 MSTORE PUSH1 0x4 DUP1 DUP3 ADD MSTORE PUSH1 0x24 DUP2 ADD SWAP2 SWAP1 SWAP2 MSTORE PUSH20 0x0 SWAP1 PUSH4 0x677CA2D8 SWAP1 PUSH1 0x44 ADD PUSH1 0x20 PUSH1 0x40 MLOAD DUP1 DUP4 SUB DUP2 DUP7 GAS DELEGATECALL ISZERO DUP1 ISZERO PUSH2 0x3DCD JUMPI RETURNDATASIZE PUSH1 0x0 DUP1 RETURNDATACOPY RETURNDATASIZE PUSH1 0x0 REVERT JUMPDEST POP POP POP POP PUSH1 0x40 MLOAD RETURNDATASIZE PUSH1 0x1F NOT PUSH1 0x1F DUP3 ADD AND DUP3 ADD DUP1 PUSH1 0x40 MSTORE POP DUP2 ADD SWAP1 PUSH2 0x3DF1 SWAP2 SWAP1 PUSH2 0x5328 JUMP JUMPDEST POP NUMBER PUSH1 0x0 SWAP1 DUP2 MSTORE PUSH1 0x9 PUSH1 0x20 SWAP1 DUP2 MSTORE PUSH1 0x40 DUP3 KECCAK256 PUSH1 0x2 SWAP1 SWAP4 ADD SLOAD DUP4 SLOAD PUSH1 0x1 DUP2 ADD DUP6 SSTORE SWAP4 DUP4 MSTORE SWAP2 KECCAK256 SWAP1 SWAP2 ADD SSTORE JUMP JUMPDEST PUSH1 0x40 MLOAD PUSH4 0xE29A669 PUSH1 0xE2 SHL DUP2 MSTORE PUSH1 0x4 DUP2 ADD DUP3 SWAP1 MSTORE PUSH1 0x1 PUSH1 0x1 PUSH1 0xA0 SHL SUB PUSH32 0x0 AND SWAP1 PUSH4 0x38A699A4 SWAP1 PUSH1 0x24 ADD PUSH1 0x20 PUSH1 0x40 MLOAD DUP1 DUP4 SUB DUP2 DUP7 GAS STATICCALL ISZERO DUP1 ISZERO PUSH2 0x3E81 JUMPI RETURNDATASIZE PUSH1 0x0 DUP1 RETURNDATACOPY RETURNDATASIZE PUSH1 0x0 REVERT JUMPDEST POP POP POP POP PUSH1 0x40 MLOAD RETURNDATASIZE PUSH1 0x1F NOT PUSH1 0x1F DUP3 ADD AND DUP3 ADD DUP1 PUSH1 0x40 MSTORE POP DUP2 ADD SWAP1 PUSH2 0x3EA5 SWAP2 SWAP1 PUSH2 0x5328 JUMP JUMPDEST PUSH2 0x3EAC JUMPI POP JUMP JUMPDEST PUSH1 0x40 MLOAD PUSH4 0x657C7E09 PUSH1 0xE0 SHL DUP2 MSTORE PUSH1 0x4 DUP2 ADD DUP3 SWAP1 MSTORE PUSH1 0x0 SWAP1 DUP2 SWAP1 PUSH1 0x1 PUSH1 0x1 PUSH1 0xA0 SHL SUB PUSH32 0x0 AND SWAP1 PUSH4 0x657C7E09 SWAP1 PUSH1 0x24 ADD PUSH1 0x40 DUP1 MLOAD DUP1 DUP4 SUB DUP2 DUP7 GAS STATICCALL ISZERO DUP1 ISZERO PUSH2 0x3F15 JUMPI RETURNDATASIZE PUSH1 0x0 DUP1 RETURNDATACOPY RETURNDATASIZE PUSH1 0x0 REVERT JUMPDEST POP POP POP POP PUSH1 0x40 MLOAD RETURNDATASIZE PUSH1 0x1F NOT PUSH1 0x1F DUP3 ADD AND DUP3 ADD DUP1 PUSH1 0x40 MSTORE POP DUP2 ADD SWAP1 PUSH2 0x3F39 SWAP2 SWAP1 PUSH2 0x5439 JUMP JUMPDEST SWAP2 POP SWAP2 POP PUSH2 0x3F47 DUP3 DUP5 PUSH2 0x8D2 JUMP JUMPDEST ISZERO PUSH2 0x3F51 JUMPI POP POP POP JUMP JUMPDEST PUSH1 0x0 DUP2 DUP2 MSTORE PUSH1 0x1 PUSH1 0x20 SWAP1 DUP2 MSTORE PUSH1 0x40 DUP1 DUP4 KECCAK256 DUP1 SLOAD DUP3 MLOAD DUP2 DUP6 MUL DUP2 ADD DUP6 ADD SWAP1 SWAP4 MSTORE DUP1 DUP4 MSTORE PUSH1 0x60 SWAP5 SWAP4 DUP4 ADD DUP3 DUP3 DUP1 ISZERO PUSH2 0x3FA6 JUMPI PUSH1 0x20 MUL DUP3 ADD SWAP2 SWAP1 PUSH1 0x0 MSTORE PUSH1 0x20 PUSH1 0x0 KECCAK256 SWAP1 JUMPDEST DUP2 SLOAD DUP2 MSTORE PUSH1 0x20 ADD SWAP1 PUSH1 0x1 ADD SWAP1 DUP1 DUP4 GT PUSH2 0x3F92 JUMPI JUMPDEST POP POP POP POP POP SWAP1 POP DUP1 MLOAD PUSH1 0x1 PUSH1 0x1 PUSH1 0x40 SHL SUB DUP2 GT ISZERO PUSH2 0x3FC6 JUMPI PUSH2 0x3FC6 PUSH2 0x5685 JUMP JUMPDEST PUSH1 0x40 MLOAD SWAP1 DUP1 DUP3 MSTORE DUP1 PUSH1 0x20 MUL PUSH1 0x20 ADD DUP3 ADD PUSH1 0x40 MSTORE DUP1 ISZERO PUSH2 0x3FF9 JUMPI DUP2 PUSH1 0x20 ADD JUMPDEST PUSH1 0x60 DUP2 MSTORE PUSH1 0x20 ADD SWAP1 PUSH1 0x1 SWAP1 SUB SWAP1 DUP2 PUSH2 0x3FE4 JUMPI SWAP1 POP JUMPDEST POP SWAP2 POP PUSH1 0x0 DUP1 JUMPDEST DUP3 MLOAD DUP2 LT ISZERO PUSH2 0x4175 JUMPI PUSH1 0x0 PUSH32 0x0 PUSH1 0x1 PUSH1 0x1 PUSH1 0xA0 SHL SUB AND PUSH4 0x27EE9DC2 DUP6 DUP5 DUP2 MLOAD DUP2 LT PUSH2 0x404C JUMPI PUSH2 0x404C PUSH2 0x569B JUMP JUMPDEST PUSH1 0x20 MUL PUSH1 0x20 ADD ADD MLOAD PUSH1 0x40 MLOAD DUP3 PUSH4 0xFFFFFFFF AND PUSH1 0xE0 SHL DUP2 MSTORE PUSH1 0x4 ADD PUSH2 0x4072 SWAP2 DUP2 MSTORE PUSH1 0x20 ADD SWAP1 JUMP JUMPDEST PUSH1 0x0 PUSH1 0x40 MLOAD DUP1 DUP4 SUB DUP2 DUP7 GAS STATICCALL ISZERO DUP1 ISZERO PUSH2 0x408F JUMPI RETURNDATASIZE PUSH1 0x0 DUP1 RETURNDATACOPY RETURNDATASIZE PUSH1 0x0 REVERT JUMPDEST POP POP POP POP PUSH1 0x40 MLOAD RETURNDATASIZE PUSH1 0x0 DUP3 RETURNDATACOPY PUSH1 0x1F RETURNDATASIZE SWAP1 DUP2 ADD PUSH1 0x1F NOT AND DUP3 ADD PUSH1 0x40 MSTORE PUSH2 0x40B7 SWAP2 SWAP1 DUP2 ADD SWAP1 PUSH2 0x56B1 JUMP JUMPDEST PUSH1 0x40 MLOAD PUSH4 0x9D84366D PUSH1 0xE0 SHL DUP2 MSTORE SWAP1 SWAP2 POP PUSH20 0x0 SWAP1 PUSH4 0x9D84366D SWAP1 PUSH2 0x40F3 SWAP1 DUP5 SWAP1 DUP12 SWAP1 PUSH1 0x4 ADD PUSH2 0x579D JUMP JUMPDEST PUSH1 0x20 PUSH1 0x40 MLOAD DUP1 DUP4 SUB DUP2 DUP7 GAS DELEGATECALL ISZERO DUP1 ISZERO PUSH2 0x4110 JUMPI RETURNDATASIZE PUSH1 0x0 DUP1 RETURNDATACOPY RETURNDATASIZE PUSH1 0x0 REVERT JUMPDEST POP POP POP POP PUSH1 0x40 MLOAD RETURNDATASIZE PUSH1 0x1F NOT PUSH1 0x1F DUP3 ADD AND DUP3 ADD DUP1 PUSH1 0x40 MSTORE POP DUP2 ADD SWAP1 PUSH2 0x4134 SWAP2 SWAP1 PUSH2 0x5328 JUMP JUMPDEST PUSH2 0x4162 JUMPI DUP1 DUP6 DUP5 PUSH2 0x4144 DUP2 PUSH2 0x57BF JUMP JUMPDEST SWAP6 POP DUP2 MLOAD DUP2 LT PUSH2 0x4156 JUMPI PUSH2 0x4156 PUSH2 0x569B JUMP JUMPDEST PUSH1 0x20 MUL PUSH1 0x20 ADD ADD DUP2 SWAP1 MSTORE POP JUMPDEST POP DUP1 PUSH2 0x416D DUP2 PUSH2 0x57BF JUMP JUMPDEST SWAP2 POP POP PUSH2 0x4000 JUMP JUMPDEST POP DUP3 MSTORE POP PUSH1 0x0 DUP4 DUP2 MSTORE PUSH1 0x2 PUSH1 0x20 SWAP1 DUP2 MSTORE PUSH1 0x40 DUP1 DUP4 KECCAK256 DUP1 SLOAD DUP3 MLOAD DUP2 DUP6 MUL DUP2 ADD DUP6 ADD SWAP1 SWAP4 MSTORE DUP1 DUP4 MSTORE PUSH1 0x60 SWAP5 SWAP4 DUP4 ADD DUP3 DUP3 DUP1 ISZERO PUSH2 0x41CE JUMPI PUSH1 0x20 MUL DUP3 ADD SWAP2 SWAP1 PUSH1 0x0 MSTORE PUSH1 0x20 PUSH1 0x0 KECCAK256 SWAP1 JUMPDEST DUP2 SLOAD DUP2 MSTORE PUSH1 0x20 ADD SWAP1 PUSH1 0x1 ADD SWAP1 DUP1 DUP4 GT PUSH2 0x41BA JUMPI JUMPDEST POP POP POP POP POP SWAP1 POP DUP1 MLOAD PUSH1 0x1 PUSH1 0x1 PUSH1 0x40 SHL SUB DUP2 GT ISZERO PUSH2 0x41EE JUMPI PUSH2 0x41EE PUSH2 0x5685 JUMP JUMPDEST PUSH1 0x40 MLOAD SWAP1 DUP1 DUP3 MSTORE DUP1 PUSH1 0x20 MUL PUSH1 0x20 ADD DUP3 ADD PUSH1 0x40 MSTORE DUP1 ISZERO PUSH2 0x4221 JUMPI DUP2 PUSH1 0x20 ADD JUMPDEST PUSH1 0x60 DUP2 MSTORE PUSH1 0x20 ADD SWAP1 PUSH1 0x1 SWAP1 SUB SWAP1 DUP2 PUSH2 0x420C JUMPI SWAP1 POP JUMPDEST POP SWAP2 POP PUSH1 0x0 DUP1 JUMPDEST DUP3 MLOAD DUP2 LT ISZERO PUSH2 0x439D JUMPI PUSH1 0x0 PUSH32 0x0 PUSH1 0x1 PUSH1 0x1 PUSH1 0xA0 SHL SUB AND PUSH4 0x27EE9DC2 DUP6 DUP5 DUP2 MLOAD DUP2 LT PUSH2 0x4274 JUMPI PUSH2 0x4274 PUSH2 0x569B JUMP JUMPDEST PUSH1 0x20 MUL PUSH1 0x20 ADD ADD MLOAD PUSH1 0x40 MLOAD DUP3 PUSH4 0xFFFFFFFF AND PUSH1 0xE0 SHL DUP2 MSTORE PUSH1 0x4 ADD PUSH2 0x429A SWAP2 DUP2 MSTORE PUSH1 0x20 ADD SWAP1 JUMP JUMPDEST PUSH1 0x0 PUSH1 0x40 MLOAD DUP1 DUP4 SUB DUP2 DUP7 GAS STATICCALL ISZERO DUP1 ISZERO PUSH2 0x42B7 JUMPI RETURNDATASIZE PUSH1 0x0 DUP1 RETURNDATACOPY RETURNDATASIZE PUSH1 0x0 REVERT JUMPDEST POP POP POP POP PUSH1 0x40 MLOAD RETURNDATASIZE PUSH1 0x0 DUP3 RETURNDATACOPY PUSH1 0x1F RETURNDATASIZE SWAP1 DUP2 ADD PUSH1 0x1F NOT AND DUP3 ADD PUSH1 0x40 MSTORE PUSH2 0x42DF SWAP2 SWAP1 DUP2 ADD SWAP1 PUSH2 0x56B1 JUMP JUMPDEST PUSH1 0x40 MLOAD PUSH4 0x9D84366D PUSH1 0xE0 SHL DUP2 MSTORE SWAP1 SWAP2 POP PUSH20 0x0 SWAP1 PUSH4 0x9D84366D SWAP1 PUSH2 0x431B SWAP1 DUP5 SWAP1 DUP12 SWAP1 PUSH1 0x4 ADD PUSH2 0x579D JUMP JUMPDEST PUSH1 0x20 PUSH1 0x40 MLOAD DUP1 DUP4 SUB DUP2 DUP7 GAS DELEGATECALL ISZERO DUP1 ISZERO PUSH2 0x4338 JUMPI RETURNDATASIZE PUSH1 0x0 DUP1 RETURNDATACOPY RETURNDATASIZE PUSH1 0x0 REVERT JUMPDEST POP POP POP POP PUSH1 0x40 MLOAD RETURNDATASIZE PUSH1 0x1F NOT PUSH1 0x1F DUP3 ADD AND DUP3 ADD DUP1 PUSH1 0x40 MSTORE POP DUP2 ADD SWAP1 PUSH2 0x435C SWAP2 SWAP1 PUSH2 0x5328 JUMP JUMPDEST PUSH2 0x438A JUMPI DUP1 DUP6 DUP5 PUSH2 0x436C DUP2 PUSH2 0x57BF JUMP JUMPDEST SWAP6 POP DUP2 MLOAD DUP2 LT PUSH2 0x437E JUMPI PUSH2 0x437E PUSH2 0x569B JUMP JUMPDEST PUSH1 0x20 MUL PUSH1 0x20 ADD ADD DUP2 SWAP1 MSTORE POP JUMPDEST POP DUP1 PUSH2 0x4395 DUP2 PUSH2 0x57BF JUMP JUMPDEST SWAP2 POP POP PUSH2 0x4228 JUMP JUMPDEST POP DUP3 MSTORE POP PUSH1 0x0 DUP5 DUP2 MSTORE PUSH1 0x1 PUSH1 0x20 MSTORE PUSH1 0x40 SWAP1 DUP2 SWAP1 KECCAK256 SWAP1 MLOAD PUSH4 0x16061A71 PUSH1 0xE2 SHL DUP2 MSTORE PUSH1 0x4 DUP2 ADD SWAP2 SWAP1 SWAP2 MSTORE PUSH1 0x24 DUP2 ADD DUP7 SWAP1 MSTORE PUSH20 0x0 SWAP1 PUSH4 0x581869C4 SWAP1 PUSH1 0x44 ADD PUSH1 0x20 PUSH1 0x40 MLOAD DUP1 DUP4 SUB DUP2 DUP7 GAS DELEGATECALL ISZERO DUP1 ISZERO PUSH2 0x4408 JUMPI RETURNDATASIZE PUSH1 0x0 DUP1 RETURNDATACOPY RETURNDATASIZE PUSH1 0x0 REVERT JUMPDEST POP POP POP POP PUSH1 0x40 MLOAD RETURNDATASIZE PUSH1 0x1F NOT PUSH1 0x1F DUP3 ADD AND DUP3 ADD DUP1 PUSH1 0x40 MSTORE POP DUP2 ADD SWAP1 PUSH2 0x442C SWAP2 SWAP1 PUSH2 0x5328 JUMP JUMPDEST POP PUSH1 0x0 DUP4 DUP2 MSTORE PUSH1 0x2 PUSH1 0x20 MSTORE PUSH1 0x40 SWAP1 DUP2 SWAP1 KECCAK256 SWAP1 MLOAD PUSH4 0x16061A71 PUSH1 0xE2 SHL DUP2 MSTORE PUSH1 0x4 DUP2 ADD SWAP2 SWAP1 SWAP2 MSTORE PUSH1 0x24 DUP2 ADD DUP7 SWAP1 MSTORE PUSH20 0x0 SWAP1 PUSH4 0x581869C4 SWAP1 PUSH1 0x44 ADD PUSH1 0x20 PUSH1 0x40 MLOAD DUP1 DUP4 SUB DUP2 DUP7 GAS DELEGATECALL ISZERO DUP1 ISZERO PUSH2 0x4494 JUMPI RETURNDATASIZE PUSH1 0x0 DUP1 RETURNDATACOPY RETURNDATASIZE PUSH1 0x0 REVERT JUMPDEST POP POP POP POP PUSH1 0x40 MLOAD RETURNDATASIZE PUSH1 0x1F NOT PUSH1 0x1F DUP3 ADD AND DUP3 ADD DUP1 PUSH1 0x40 MSTORE POP DUP2 ADD SWAP1 PUSH2 0x44B8 SWAP2 SWAP1 PUSH2 0x5328 JUMP JUMPDEST POP PUSH1 0x0 JUMPDEST DUP2 MLOAD DUP2 LT ISZERO PUSH2 0x4748 JUMPI PUSH1 0x0 DUP3 DUP3 DUP2 MLOAD DUP2 LT PUSH2 0x44D9 JUMPI PUSH2 0x44D9 PUSH2 0x569B JUMP JUMPDEST PUSH1 0x20 MUL PUSH1 0x20 ADD ADD MLOAD PUSH20 0x0 PUSH4 0x9B861F03 SWAP1 SWAP2 DUP8 PUSH1 0x40 MLOAD DUP4 PUSH4 0xFFFFFFFF AND PUSH1 0xE0 SHL DUP2 MSTORE PUSH1 0x4 ADD PUSH2 0x451B SWAP3 SWAP2 SWAP1 PUSH2 0x579D JUMP JUMPDEST PUSH1 0x0 PUSH1 0x40 MLOAD DUP1 DUP4 SUB DUP2 DUP7 GAS DELEGATECALL ISZERO DUP1 ISZERO PUSH2 0x4538 JUMPI RETURNDATASIZE PUSH1 0x0 DUP1 RETURNDATACOPY RETURNDATASIZE PUSH1 0x0 REVERT JUMPDEST POP POP POP POP PUSH1 0x40 MLOAD RETURNDATASIZE PUSH1 0x0 DUP3 RETURNDATACOPY PUSH1 0x1F RETURNDATASIZE SWAP1 DUP2 ADD PUSH1 0x1F NOT AND DUP3 ADD PUSH1 0x40 MSTORE PUSH2 0x4560 SWAP2 SWAP1 DUP2 ADD SWAP1 PUSH2 0x56B1 JUMP JUMPDEST SWAP1 POP PUSH1 0x0 PUSH32 0x0 PUSH1 0x1 PUSH1 0x1 PUSH1 0xA0 SHL SUB AND PUSH4 0xB3054383 DUP4 PUSH1 0x40 MLOAD DUP3 PUSH4 0xFFFFFFFF AND PUSH1 0xE0 SHL DUP2 MSTORE PUSH1 0x4 ADD PUSH2 0x45B0 SWAP2 SWAP1 PUSH2 0x57DA JUMP JUMPDEST PUSH1 0x20 PUSH1 0x40 MLOAD DUP1 DUP4 SUB DUP2 PUSH1 0x0 DUP8 GAS CALL ISZERO DUP1 ISZERO PUSH2 0x45CF JUMPI RETURNDATASIZE PUSH1 0x0 DUP1 RETURNDATACOPY RETURNDATASIZE PUSH1 0x0 REVERT JUMPDEST POP POP POP POP PUSH1 0x40 MLOAD RETURNDATASIZE PUSH1 0x1F NOT PUSH1 0x1F DUP3 ADD AND DUP3 ADD DUP1 PUSH1 0x40 MSTORE POP DUP2 ADD SWAP1 PUSH2 0x45F3 SWAP2 SWAP1 PUSH2 0x545D JUMP JUMPDEST SWAP1 POP PUSH1 0x1 PUSH1 0x0 DUP4 PUSH1 0x0 DUP2 MLOAD DUP2 LT PUSH2 0x460C JUMPI PUSH2 0x460C PUSH2 0x569B JUMP JUMPDEST PUSH1 0x20 MUL PUSH1 0x20 ADD ADD MLOAD DUP2 MSTORE PUSH1 0x20 ADD SWAP1 DUP2 MSTORE PUSH1 0x20 ADD PUSH1 0x0 KECCAK256 PUSH20 0x0 PUSH4 0x581869C4 SWAP1 SWAP2 DUP4 PUSH1 0x40 MLOAD DUP4 PUSH4 0xFFFFFFFF AND PUSH1 0xE0 SHL DUP2 MSTORE PUSH1 0x4 ADD PUSH2 0x4665 SWAP3 SWAP2 SWAP1 SWAP2 DUP3 MSTORE PUSH1 0x20 DUP3 ADD MSTORE PUSH1 0x40 ADD SWAP1 JUMP JUMPDEST PUSH1 0x20 PUSH1 0x40 MLOAD DUP1 DUP4 SUB DUP2 DUP7 GAS DELEGATECALL ISZERO DUP1 ISZERO PUSH2 0x4682 JUMPI RETURNDATASIZE PUSH1 0x0 DUP1 RETURNDATACOPY RETURNDATASIZE PUSH1 0x0 REVERT JUMPDEST POP POP POP POP PUSH1 0x40 MLOAD RETURNDATASIZE PUSH1 0x1F NOT PUSH1 0x1F DUP3 ADD AND DUP3 ADD DUP1 PUSH1 0x40 MSTORE POP DUP2 ADD SWAP1 PUSH2 0x46A6 SWAP2 SWAP1 PUSH2 0x5328 JUMP JUMPDEST POP PUSH1 0x0 DUP7 DUP2 MSTORE PUSH1 0x2 PUSH1 0x20 MSTORE PUSH1 0x40 SWAP1 DUP2 SWAP1 KECCAK256 SWAP1 MLOAD PUSH4 0x16061A71 PUSH1 0xE2 SHL DUP2 MSTORE PUSH1 0x4 DUP2 ADD SWAP2 SWAP1 SWAP2 MSTORE PUSH1 0x24 DUP2 ADD DUP3 SWAP1 MSTORE PUSH20 0x0 SWAP1 PUSH4 0x581869C4 SWAP1 PUSH1 0x44 ADD PUSH1 0x20 PUSH1 0x40 MLOAD DUP1 DUP4 SUB DUP2 DUP7 GAS DELEGATECALL ISZERO DUP1 ISZERO PUSH2 0x470E JUMPI RETURNDATASIZE PUSH1 0x0 DUP1 RETURNDATACOPY RETURNDATASIZE PUSH1 0x0 REVERT JUMPDEST POP POP POP POP PUSH1 0x40 MLOAD RETURNDATASIZE PUSH1 0x1F NOT PUSH1 0x1F DUP3 ADD AND DUP3 ADD DUP1 PUSH1 0x40 MSTORE POP DUP2 ADD SWAP1 PUSH2 0x4732 SWAP2 SWAP1 PUSH2 0x5328 JUMP JUMPDEST POP POP POP DUP1 DUP1 PUSH2 0x4740 SWAP1 PUSH2 0x57BF JUMP JUMPDEST SWAP2 POP POP PUSH2 0x44BC JUMP JUMPDEST POP PUSH1 0x0 JUMPDEST DUP3 MLOAD DUP2 LT ISZERO PUSH2 0x49EA JUMPI PUSH1 0x0 DUP4 DUP3 DUP2 MLOAD DUP2 LT PUSH2 0x4769 JUMPI PUSH2 0x4769 PUSH2 0x569B JUMP JUMPDEST PUSH1 0x20 MUL PUSH1 0x20 ADD ADD MLOAD PUSH20 0x0 PUSH4 0x3B06E74F SWAP1 SWAP2 DUP9 PUSH1 0x40 MLOAD DUP4 PUSH4 0xFFFFFFFF AND PUSH1 0xE0 SHL DUP2 MSTORE PUSH1 0x4 ADD PUSH2 0x47AB SWAP3 SWAP2 SWAP1 PUSH2 0x579D JUMP JUMPDEST PUSH1 0x0 PUSH1 0x40 MLOAD DUP1 DUP4 SUB DUP2 DUP7 GAS DELEGATECALL ISZERO DUP1 ISZERO PUSH2 0x47C8 JUMPI RETURNDATASIZE PUSH1 0x0 DUP1 RETURNDATACOPY RETURNDATASIZE PUSH1 0x0 REVERT JUMPDEST POP POP POP POP PUSH1 0x40 MLOAD RETURNDATASIZE PUSH1 0x0 DUP3 RETURNDATACOPY PUSH1 0x1F RETURNDATASIZE SWAP1 DUP2 ADD PUSH1 0x1F NOT AND DUP3 ADD PUSH1 0x40 MSTORE PUSH2 0x47F0 SWAP2 SWAP1 DUP2 ADD SWAP1 PUSH2 0x56B1 JUMP JUMPDEST SWAP1 POP PUSH1 0x0 PUSH32 0x0 PUSH1 0x1 PUSH1 0x1 PUSH1 0xA0 SHL SUB AND PUSH4 0xB3054383 DUP4 PUSH1 0x40 MLOAD DUP3 PUSH4 0xFFFFFFFF AND PUSH1 0xE0 SHL DUP2 MSTORE PUSH1 0x4 ADD PUSH2 0x4840 SWAP2 SWAP1 PUSH2 0x57DA JUMP JUMPDEST PUSH1 0x20 PUSH1 0x40 MLOAD DUP1 DUP4 SUB DUP2 PUSH1 0x0 DUP8 GAS CALL ISZERO DUP1 ISZERO PUSH2 0x485F JUMPI RETURNDATASIZE PUSH1 0x0 DUP1 RETURNDATACOPY RETURNDATASIZE PUSH1 0x0 REVERT JUMPDEST POP POP POP POP PUSH1 0x40 MLOAD RETURNDATASIZE PUSH1 0x1F NOT PUSH1 0x1F DUP3 ADD AND DUP3 ADD DUP1 PUSH1 0x40 MSTORE POP DUP2 ADD SWAP1 PUSH2 0x4883 SWAP2 SWAP1 PUSH2 0x545D JUMP JUMPDEST PUSH1 0x0 DUP9 DUP2 MSTORE PUSH1 0x1 PUSH1 0x20 MSTORE PUSH1 0x40 SWAP1 DUP2 SWAP1 KECCAK256 SWAP1 MLOAD PUSH4 0x16061A71 PUSH1 0xE2 SHL DUP2 MSTORE SWAP2 SWAP3 POP PUSH20 0x0 SWAP2 PUSH4 0x581869C4 SWAP2 PUSH2 0x48D5 SWAP2 DUP6 SWAP1 PUSH1 0x4 ADD SWAP2 DUP3 MSTORE PUSH1 0x20 DUP3 ADD MSTORE PUSH1 0x40 ADD SWAP1 JUMP JUMPDEST PUSH1 0x20 PUSH1 0x40 MLOAD DUP1 DUP4 SUB DUP2 DUP7 GAS DELEGATECALL ISZERO DUP1 ISZERO PUSH2 0x48F2 JUMPI RETURNDATASIZE PUSH1 0x0 DUP1 RETURNDATACOPY RETURNDATASIZE PUSH1 0x0 REVERT JUMPDEST POP POP POP POP PUSH1 0x40 MLOAD RETURNDATASIZE PUSH1 0x1F NOT PUSH1 0x1F DUP3 ADD AND DUP3 ADD DUP1 PUSH1 0x40 MSTORE POP DUP2 ADD SWAP1 PUSH2 0x4916 SWAP2 SWAP1 PUSH2 0x5328 JUMP JUMPDEST POP PUSH1 0x2 PUSH1 0x0 DUP4 PUSH1 0x1 DUP6 MLOAD PUSH2 0x492A SWAP2 SWAP1 PUSH2 0x54A4 JUMP JUMPDEST DUP2 MLOAD DUP2 LT PUSH2 0x493A JUMPI PUSH2 0x493A PUSH2 0x569B JUMP JUMPDEST PUSH1 0x20 MUL PUSH1 0x20 ADD ADD MLOAD DUP2 MSTORE PUSH1 0x20 ADD SWAP1 DUP2 MSTORE PUSH1 0x20 ADD PUSH1 0x0 KECCAK256 PUSH20 0x0 PUSH4 0x581869C4 SWAP1 SWAP2 DUP4 PUSH1 0x40 MLOAD DUP4 PUSH4 0xFFFFFFFF AND PUSH1 0xE0 SHL DUP2 MSTORE PUSH1 0x4 ADD PUSH2 0x4993 SWAP3 SWAP2 SWAP1 SWAP2 DUP3 MSTORE PUSH1 0x20 DUP3 ADD MSTORE PUSH1 0x40 ADD SWAP1 JUMP JUMPDEST PUSH1 0x20 PUSH1 0x40 MLOAD DUP1 DUP4 SUB DUP2 DUP7 GAS DELEGATECALL ISZERO DUP1 ISZERO PUSH2 0x49B0 JUMPI RETURNDATASIZE PUSH1 0x0 DUP1 RETURNDATACOPY RETURNDATASIZE PUSH1 0x0 REVERT JUMPDEST POP POP POP POP PUSH1 0x40 MLOAD RETURNDATASIZE PUSH1 0x1F NOT PUSH1 0x1F DUP3 ADD AND DUP3 ADD DUP1 PUSH1 0x40 MSTORE POP DUP2 ADD SWAP1 PUSH2 0x49D4 SWAP2 SWAP1 PUSH2 0x5328 JUMP JUMPDEST POP POP POP DUP1 DUP1 PUSH2 0x49E2 SWAP1 PUSH2 0x57BF JUMP JUMPDEST SWAP2 POP POP PUSH2 0x474C JUMP JUMPDEST POP PUSH1 0x0 JUMPDEST DUP2 MLOAD DUP2 LT ISZERO PUSH2 0x4DBE JUMPI PUSH1 0x0 JUMPDEST DUP4 MLOAD DUP2 LT ISZERO PUSH2 0x4DAB JUMPI PUSH1 0x0 DUP5 DUP3 DUP2 MLOAD DUP2 LT PUSH2 0x4A17 JUMPI PUSH2 0x4A17 PUSH2 0x569B JUMP JUMPDEST PUSH1 0x20 MUL PUSH1 0x20 ADD ADD MLOAD SWAP1 POP PUSH1 0x0 DUP5 DUP4 DUP2 MLOAD DUP2 LT PUSH2 0x4A35 JUMPI PUSH2 0x4A35 PUSH2 0x569B JUMP JUMPDEST PUSH1 0x20 MUL PUSH1 0x20 ADD ADD MLOAD SWAP1 POP PUSH1 0x0 JUMPDEST DUP3 MLOAD DUP2 LT ISZERO PUSH2 0x4AFC JUMPI DUP2 PUSH20 0x0 PUSH4 0x9D84366D SWAP1 SWAP2 DUP6 DUP5 DUP2 MLOAD DUP2 LT PUSH2 0x4A7A JUMPI PUSH2 0x4A7A PUSH2 0x569B JUMP JUMPDEST PUSH1 0x20 MUL PUSH1 0x20 ADD ADD MLOAD PUSH1 0x40 MLOAD DUP4 PUSH4 0xFFFFFFFF AND PUSH1 0xE0 SHL DUP2 MSTORE PUSH1 0x4 ADD PUSH2 0x4A9F SWAP3 SWAP2 SWAP1 PUSH2 0x579D JUMP JUMPDEST PUSH1 0x20 PUSH1 0x40 MLOAD DUP1 DUP4 SUB DUP2 DUP7 GAS DELEGATECALL ISZERO DUP1 ISZERO PUSH2 0x4ABC JUMPI RETURNDATASIZE PUSH1 0x0 DUP1 RETURNDATACOPY RETURNDATASIZE PUSH1 0x0 REVERT JUMPDEST POP POP POP POP PUSH1 0x40 MLOAD RETURNDATASIZE PUSH1 0x1F NOT PUSH1 0x1F DUP3 ADD AND DUP3 ADD DUP1 PUSH1 0x40 MSTORE POP DUP2 ADD SWAP1 PUSH2 0x4AE0 SWAP2 SWAP1 PUSH2 0x5328 JUMP JUMPDEST ISZERO PUSH2 0x4AEA JUMPI PUSH2 0x4AFC JUMP JUMPDEST DUP1 PUSH2 0x4AF4 DUP2 PUSH2 0x57BF JUMP JUMPDEST SWAP2 POP POP PUSH2 0x4A42 JUMP JUMPDEST DUP3 MLOAD DUP2 LT ISZERO PUSH2 0x4B0D JUMPI POP POP POP PUSH2 0x4D99 JUMP JUMPDEST PUSH1 0x40 MLOAD PUSH4 0x2704AE9 PUSH1 0xE3 SHL DUP2 MSTORE PUSH1 0x0 SWAP1 PUSH20 0x0 SWAP1 PUSH4 0x13825748 SWAP1 PUSH2 0x4B49 SWAP1 DUP8 SWAP1 DUP8 SWAP1 PUSH1 0x4 ADD PUSH2 0x581E JUMP JUMPDEST PUSH1 0x0 PUSH1 0x40 MLOAD DUP1 DUP4 SUB DUP2 DUP7 GAS DELEGATECALL ISZERO DUP1 ISZERO PUSH2 0x4B66 JUMPI RETURNDATASIZE PUSH1 0x0 DUP1 RETURNDATACOPY RETURNDATASIZE PUSH1 0x0 REVERT JUMPDEST POP POP POP POP PUSH1 0x40 MLOAD RETURNDATASIZE PUSH1 0x0 DUP3 RETURNDATACOPY PUSH1 0x1F RETURNDATASIZE SWAP1 DUP2 ADD PUSH1 0x1F NOT AND DUP3 ADD PUSH1 0x40 MSTORE PUSH2 0x4B8E SWAP2 SWAP1 DUP2 ADD SWAP1 PUSH2 0x56B1 JUMP JUMPDEST SWAP1 POP PUSH1 0x0 PUSH32 0x0 PUSH1 0x1 PUSH1 0x1 PUSH1 0xA0 SHL SUB AND PUSH4 0xB3054383 DUP4 PUSH1 0x40 MLOAD DUP3 PUSH4 0xFFFFFFFF AND PUSH1 0xE0 SHL DUP2 MSTORE PUSH1 0x4 ADD PUSH2 0x4BDE SWAP2 SWAP1 PUSH2 0x57DA JUMP JUMPDEST PUSH1 0x20 PUSH1 0x40 MLOAD DUP1 DUP4 SUB DUP2 PUSH1 0x0 DUP8 GAS CALL ISZERO DUP1 ISZERO PUSH2 0x4BFD JUMPI RETURNDATASIZE PUSH1 0x0 DUP1 RETURNDATACOPY RETURNDATASIZE PUSH1 0x0 REVERT JUMPDEST POP POP POP POP PUSH1 0x40 MLOAD RETURNDATASIZE PUSH1 0x1F NOT PUSH1 0x1F DUP3 ADD AND DUP3 ADD DUP1 PUSH1 0x40 MSTORE POP DUP2 ADD SWAP1 PUSH2 0x4C21 SWAP2 SWAP1 PUSH2 0x545D JUMP JUMPDEST SWAP1 POP PUSH1 0x1 PUSH1 0x0 DUP4 PUSH1 0x0 DUP2 MLOAD DUP2 LT PUSH2 0x4C3A JUMPI PUSH2 0x4C3A PUSH2 0x569B JUMP JUMPDEST PUSH1 0x20 MUL PUSH1 0x20 ADD ADD MLOAD DUP2 MSTORE PUSH1 0x20 ADD SWAP1 DUP2 MSTORE PUSH1 0x20 ADD PUSH1 0x0 KECCAK256 PUSH20 0x0 PUSH4 0x581869C4 SWAP1 SWAP2 DUP4 PUSH1 0x40 MLOAD DUP4 PUSH4 0xFFFFFFFF AND PUSH1 0xE0 SHL DUP2 MSTORE PUSH1 0x4 ADD PUSH2 0x4C93 SWAP3 SWAP2 SWAP1 SWAP2 DUP3 MSTORE PUSH1 0x20 DUP3 ADD MSTORE PUSH1 0x40 ADD SWAP1 JUMP JUMPDEST PUSH1 0x20 PUSH1 0x40 MLOAD DUP1 DUP4 SUB DUP2 DUP7 GAS DELEGATECALL ISZERO DUP1 ISZERO PUSH2 0x4CB0 JUMPI RETURNDATASIZE PUSH1 0x0 DUP1 RETURNDATACOPY RETURNDATASIZE PUSH1 0x0 REVERT JUMPDEST POP POP POP POP PUSH1 0x40 MLOAD RETURNDATASIZE PUSH1 0x1F NOT PUSH1 0x1F DUP3 ADD AND DUP3 ADD DUP1 PUSH1 0x40 MSTORE POP DUP2 ADD SWAP1 PUSH2 0x4CD4 SWAP2 SWAP1 PUSH2 0x5328 JUMP JUMPDEST POP PUSH1 0x2 PUSH1 0x0 DUP4 PUSH1 0x1 DUP6 MLOAD PUSH2 0x4CE8 SWAP2 SWAP1 PUSH2 0x54A4 JUMP JUMPDEST DUP2 MLOAD DUP2 LT PUSH2 0x4CF8 JUMPI PUSH2 0x4CF8 PUSH2 0x569B JUMP JUMPDEST PUSH1 0x20 MUL PUSH1 0x20 ADD ADD MLOAD DUP2 MSTORE PUSH1 0x20 ADD SWAP1 DUP2 MSTORE PUSH1 0x20 ADD PUSH1 0x0 KECCAK256 PUSH20 0x0 PUSH4 0x581869C4 SWAP1 SWAP2 DUP4 PUSH1 0x40 MLOAD DUP4 PUSH4 0xFFFFFFFF AND PUSH1 0xE0 SHL DUP2 MSTORE PUSH1 0x4 ADD PUSH2 0x4D51 SWAP3 SWAP2 SWAP1 SWAP2 DUP3 MSTORE PUSH1 0x20 DUP3 ADD MSTORE PUSH1 0x40 ADD SWAP1 JUMP JUMPDEST PUSH1 0x20 PUSH1 0x40 MLOAD DUP1 DUP4 SUB DUP2 DUP7 GAS DELEGATECALL ISZERO DUP1 ISZERO PUSH2 0x4D6E JUMPI RETURNDATASIZE PUSH1 0x0 DUP1 RETURNDATACOPY RETURNDATASIZE PUSH1 0x0 REVERT JUMPDEST POP POP POP POP PUSH1 0x40 MLOAD RETURNDATASIZE PUSH1 0x1F NOT PUSH1 0x1F DUP3 ADD AND DUP3 ADD DUP1 PUSH1 0x40 MSTORE POP DUP2 ADD SWAP1 PUSH2 0x4D92 SWAP2 SWAP1 PUSH2 0x5328 JUMP JUMPDEST POP POP POP POP POP POP JUMPDEST DUP1 PUSH2 0x4DA3 DUP2 PUSH2 0x57BF JUMP JUMPDEST SWAP2 POP POP PUSH2 0x49FA JUMP JUMPDEST POP DUP1 PUSH2 0x4DB6 DUP2 PUSH2 0x57BF JUMP JUMPDEST SWAP2 POP POP PUSH2 0x49EE JUMP JUMPDEST POP POP POP POP POP POP JUMP JUMPDEST PUSH1 0x40 MLOAD DUP1 PUSH2 0x1C0 ADD PUSH1 0x40 MSTORE DUP1 PUSH1 0x0 PUSH1 0x1 PUSH1 0x1 PUSH1 0xA0 SHL SUB AND DUP2 MSTORE PUSH1 0x20 ADD PUSH1 0x0 DUP1 NOT AND DUP2 MSTORE PUSH1 0x20 ADD PUSH1 0x0 DUP1 NOT AND DUP2 MSTORE PUSH1 0x20 ADD PUSH1 0x0 DUP2 MSTORE PUSH1 0x20 ADD PUSH1 0x0 DUP2 MSTORE PUSH1 0x20 ADD PUSH1 0x0 DUP2 MSTORE PUSH1 0x20 ADD PUSH1 0x0 DUP2 MSTORE PUSH1 0x20 ADD PUSH1 0x0 DUP2 MSTORE PUSH1 0x20 ADD PUSH1 0x0 DUP2 MSTORE PUSH1 0x20 ADD PUSH1 0x0 DUP2 MSTORE PUSH1 0x20 ADD PUSH1 0x0 DUP2 MSTORE PUSH1 0x20 ADD PUSH1 0x0 DUP2 MSTORE PUSH1 0x20 ADD PUSH1 0x0 PUSH1 0x5 DUP2 GT ISZERO PUSH2 0x4E48 JUMPI PUSH2 0x4E48 PUSH2 0x4F3D JUMP JUMPDEST DUP2 MSTORE PUSH1 0x0 PUSH1 0x20 SWAP1 SWAP2 ADD MSTORE SWAP1 JUMP JUMPDEST PUSH1 0x0 DUP1 DUP6 DUP6 GT ISZERO PUSH2 0x4E65 JUMPI PUSH1 0x0 DUP1 REVERT JUMPDEST DUP4 DUP7 GT ISZERO PUSH2 0x4E72 JUMPI PUSH1 0x0 DUP1 REVERT JUMPDEST POP POP DUP3 ADD SWAP4 SWAP2 SWAP1 SWAP3 SUB SWAP2 POP JUMP JUMPDEST PUSH1 0x0 PUSH1 0x20 DUP3 DUP5 SUB SLT ISZERO PUSH2 0x4E91 JUMPI PUSH1 0x0 DUP1 REVERT JUMPDEST DUP2 CALLDATALOAD PUSH1 0x1 PUSH1 0x1 PUSH1 0xE0 SHL SUB NOT DUP2 AND DUP2 EQ PUSH2 0x95C JUMPI PUSH1 0x0 DUP1 REVERT JUMPDEST PUSH1 0x1 PUSH1 0x1 PUSH1 0xA0 SHL SUB DUP2 AND DUP2 EQ PUSH2 0x28C3 JUMPI PUSH1 0x0 DUP1 REVERT JUMPDEST PUSH1 0x0 DUP1 PUSH1 0x0 DUP1 PUSH1 0x0 PUSH1 0xA0 DUP7 DUP9 SUB SLT ISZERO PUSH2 0x4ED6 JUMPI PUSH1 0x0 DUP1 REVERT JUMPDEST DUP6 CALLDATALOAD PUSH2 0x4EE1 DUP2 PUSH2 0x4EA9 JUMP JUMPDEST SWAP8 PUSH1 0x20 DUP8 ADD CALLDATALOAD SWAP8 POP PUSH1 0x40 DUP8 ADD CALLDATALOAD SWAP7 PUSH1 0x60 DUP2 ADD CALLDATALOAD SWAP7 POP PUSH1 0x80 ADD CALLDATALOAD SWAP5 POP SWAP3 POP POP POP JUMP JUMPDEST PUSH1 0x0 DUP1 PUSH1 0x40 DUP4 DUP6 SUB SLT ISZERO PUSH2 0x4F15 JUMPI PUSH1 0x0 DUP1 REVERT JUMPDEST POP POP DUP1 CALLDATALOAD SWAP3 PUSH1 0x20 SWAP1 SWAP2 ADD CALLDATALOAD SWAP2 POP JUMP JUMPDEST PUSH1 0x0 PUSH1 0x20 DUP3 DUP5 SUB SLT ISZERO PUSH2 0x4F36 JUMPI PUSH1 0x0 DUP1 REVERT JUMPDEST POP CALLDATALOAD SWAP2 SWAP1 POP JUMP JUMPDEST PUSH4 0x4E487B71 PUSH1 0xE0 SHL PUSH1 0x0 MSTORE PUSH1 0x21 PUSH1 0x4 MSTORE PUSH1 0x24 PUSH1 0x0 REVERT JUMPDEST PUSH1 0x6 DUP2 LT PUSH2 0x4F71 JUMPI PUSH4 0x4E487B71 PUSH1 0xE0 SHL PUSH1 0x0 MSTORE PUSH1 0x21 PUSH1 0x4 MSTORE PUSH1 0x24 PUSH1 0x0 REVERT JUMPDEST SWAP1 MSTORE JUMP JUMPDEST DUP2 MLOAD PUSH1 0x1 PUSH1 0x1 PUSH1 0xA0 SHL SUB AND DUP2 MSTORE PUSH2 0x1C0 DUP2 ADD PUSH1 0x20 DUP4 ADD MLOAD PUSH1 0x20 DUP4 ADD MSTORE PUSH1 0x40 DUP4 ADD MLOAD PUSH1 0x40 DUP4 ADD MSTORE PUSH1 0x60 DUP4 ADD MLOAD PUSH1 0x60 DUP4 ADD MSTORE PUSH1 0x80 DUP4 ADD MLOAD PUSH1 0x80 DUP4 ADD MSTORE PUSH1 0xA0 DUP4 ADD MLOAD PUSH1 0xA0 DUP4 ADD MSTORE PUSH1 0xC0 DUP4 ADD MLOAD PUSH1 0xC0 DUP4 ADD MSTORE PUSH1 0xE0 DUP4 ADD MLOAD PUSH1 0xE0 DUP4 ADD MSTORE PUSH2 0x100 DUP1 DUP5 ADD MLOAD DUP2 DUP5 ADD MSTORE POP PUSH2 0x120 DUP1 DUP5 ADD MLOAD DUP2 DUP5 ADD MSTORE POP PUSH2 0x140 DUP1 DUP5 ADD MLOAD DUP2 DUP5 ADD MSTORE POP PUSH2 0x160 DUP1 DUP5 ADD MLOAD DUP2 DUP5 ADD MSTORE POP PUSH2 0x180 DUP1 DUP5 ADD MLOAD PUSH2 0x5010 DUP3 DUP6 ADD DUP3 PUSH2 0x4F53 JUMP JUMPDEST POP POP PUSH2 0x1A0 DUP4 DUP2 ADD MLOAD PUSH1 0xFF DUP2 AND DUP5 DUP4 ADD MSTORE JUMPDEST POP POP SWAP3 SWAP2 POP POP JUMP JUMPDEST DUP1 CALLDATALOAD PUSH1 0xFF DUP2 AND DUP2 EQ PUSH2 0x503B JUMPI PUSH1 0x0 DUP1 REVERT JUMPDEST SWAP2 SWAP1 POP JUMP JUMPDEST PUSH1 0x0 DUP1 PUSH1 0x0 DUP1 PUSH1 0x0 DUP1 PUSH1 0xC0 DUP8 DUP10 SUB SLT ISZERO PUSH2 0x5059 JUMPI PUSH1 0x0 DUP1 REVERT JUMPDEST DUP7 CALLDATALOAD SWAP6 POP PUSH1 0x20 DUP8 ADD CALLDATALOAD SWAP5 POP PUSH1 0x40 DUP8 ADD CALLDATALOAD SWAP4 POP PUSH1 0x60 DUP8 ADD CALLDATALOAD SWAP3 POP PUSH1 0x80 DUP8 ADD CALLDATALOAD SWAP2 POP PUSH2 0x5085 PUSH1 0xA0 DUP9 ADD PUSH2 0x502A JUMP JUMPDEST SWAP1 POP SWAP3 SWAP6 POP SWAP3 SWAP6 POP SWAP3 SWAP6 JUMP JUMPDEST PUSH1 0x0 PUSH1 0x20 DUP3 DUP5 SUB SLT ISZERO PUSH2 0x50A3 JUMPI PUSH1 0x0 DUP1 REVERT JUMPDEST DUP2 CALLDATALOAD PUSH6 0xFFFFFFFFFFFF DUP2 AND DUP2 EQ PUSH2 0x95C JUMPI PUSH1 0x0 DUP1 REVERT JUMPDEST PUSH1 0x0 DUP1 PUSH1 0x0 DUP1 PUSH1 0x80 DUP6 DUP8 SUB SLT ISZERO PUSH2 0x50CF JUMPI PUSH1 0x0 DUP1 REVERT JUMPDEST POP POP DUP3 CALLDATALOAD SWAP5 PUSH1 0x20 DUP5 ADD CALLDATALOAD SWAP5 POP PUSH1 0x40 DUP5 ADD CALLDATALOAD SWAP4 PUSH1 0x60 ADD CALLDATALOAD SWAP3 POP SWAP1 POP JUMP JUMPDEST PUSH1 0x0 DUP1 PUSH1 0x0 DUP1 PUSH1 0x0 DUP1 PUSH1 0x0 PUSH1 0xE0 DUP9 DUP11 SUB SLT ISZERO PUSH2 0x5106 JUMPI PUSH1 0x0 DUP1 REVERT JUMPDEST DUP8 CALLDATALOAD PUSH2 0x5111 DUP2 PUSH2 0x4EA9 JUMP JUMPDEST SWAP7 POP PUSH1 0x20 DUP9 ADD CALLDATALOAD SWAP6 POP PUSH1 0x40 DUP9 ADD CALLDATALOAD SWAP5 POP PUSH1 0x60 DUP9 ADD CALLDATALOAD SWAP4 POP PUSH1 0x80 DUP9 ADD CALLDATALOAD SWAP3 POP PUSH1 0xA0 DUP9 ADD CALLDATALOAD SWAP2 POP PUSH2 0x5142 PUSH1 0xC0 DUP10 ADD PUSH2 0x502A JUMP JUMPDEST SWAP1 POP SWAP3 SWAP6 SWAP9 SWAP2 SWAP5 SWAP8 POP SWAP3 SWAP6 POP JUMP JUMPDEST PUSH1 0x0 PUSH1 0x20 DUP3 DUP5 SUB SLT ISZERO PUSH2 0x5162 JUMPI PUSH1 0x0 DUP1 REVERT JUMPDEST DUP2 CALLDATALOAD PUSH1 0x1 PUSH1 0x1 PUSH1 0x40 SHL SUB DUP2 AND DUP2 EQ PUSH2 0x95C JUMPI PUSH1 0x0 DUP1 REVERT JUMPDEST PUSH1 0x0 DUP1 PUSH1 0x0 DUP1 PUSH1 0x0 DUP1 PUSH1 0x0 PUSH1 0xE0 DUP9 DUP11 SUB SLT ISZERO PUSH2 0x5194 JUMPI PUSH1 0x0 DUP1 REVERT JUMPDEST DUP8 CALLDATALOAD PUSH2 0x519F DUP2 PUSH2 0x4EA9 JUMP JUMPDEST SWAP7 POP PUSH1 0x20 DUP9 ADD CALLDATALOAD PUSH2 0x51AF DUP2 PUSH2 0x4EA9 JUMP JUMPDEST SWAP6 POP PUSH1 0x40 DUP9 ADD CALLDATALOAD PUSH2 0x51BF DUP2 PUSH2 0x4EA9 JUMP JUMPDEST SWAP5 POP PUSH1 0x60 DUP9 ADD CALLDATALOAD SWAP4 POP PUSH1 0x80 DUP9 ADD CALLDATALOAD SWAP3 POP PUSH1 0xA0 DUP9 ADD CALLDATALOAD SWAP2 POP PUSH2 0x5142 PUSH1 0xC0 DUP10 ADD PUSH2 0x502A JUMP JUMPDEST PUSH1 0x0 DUP1 PUSH1 0x0 DUP1 PUSH1 0x0 DUP1 PUSH1 0x0 DUP1 PUSH1 0x0 PUSH2 0x120 DUP11 DUP13 SUB SLT ISZERO PUSH2 0x5201 JUMPI PUSH1 0x0 DUP1 REVERT JUMPDEST DUP10 CALLDATALOAD PUSH2 0x520C DUP2 PUSH2 0x4EA9 JUMP JUMPDEST SWAP9 POP PUSH1 0x20 DUP11 ADD CALLDATALOAD PUSH2 0x521C DUP2 PUSH2 0x4EA9 JUMP JUMPDEST SWAP8 POP PUSH1 0x40 DUP11 ADD CALLDATALOAD SWAP7 POP PUSH1 0x60 DUP11 ADD CALLDATALOAD PUSH2 0x5233 DUP2 PUSH2 0x4EA9 JUMP JUMPDEST SWAP6 POP PUSH1 0x80 DUP11 ADD CALLDATALOAD SWAP5 POP PUSH1 0xA0 DUP11 ADD CALLDATALOAD SWAP4 POP PUSH1 0xC0 DUP11 ADD CALLDATALOAD SWAP3 POP PUSH1 0xE0 DUP11 ADD CALLDATALOAD SWAP2 POP PUSH2 0x525E PUSH2 0x100 DUP12 ADD PUSH2 0x502A JUMP JUMPDEST SWAP1 POP SWAP3 SWAP6 SWAP9 POP SWAP3 SWAP6 SWAP9 POP SWAP3 SWAP6 SWAP9 JUMP JUMPDEST PUSH1 0x0 DUP1 PUSH1 0x0 DUP1 PUSH1 0x0 DUP1 PUSH1 0x0 DUP1 PUSH2 0x100 DUP10 DUP12 SUB SLT ISZERO PUSH2 0x528A JUMPI PUSH1 0x0 DUP1 REVERT JUMPDEST DUP9 CALLDATALOAD PUSH2 0x5295 DUP2 PUSH2 0x4EA9 JUMP JUMPDEST SWAP8 POP PUSH1 0x20 DUP10 ADD CALLDATALOAD SWAP7 POP PUSH1 0x40 DUP10 ADD CALLDATALOAD PUSH2 0x52AC DUP2 PUSH2 0x4EA9 JUMP JUMPDEST SWAP6 POP PUSH1 0x60 DUP10 ADD CALLDATALOAD SWAP5 POP PUSH1 0x80 DUP10 ADD CALLDATALOAD SWAP4 POP PUSH1 0xA0 DUP10 ADD CALLDATALOAD SWAP3 POP PUSH1 0xC0 DUP10 ADD CALLDATALOAD SWAP2 POP PUSH2 0x52D6 PUSH1 0xE0 DUP11 ADD PUSH2 0x502A JUMP JUMPDEST SWAP1 POP SWAP3 SWAP6 SWAP9 POP SWAP3 SWAP6 SWAP9 SWAP1 SWAP4 SWAP7 POP JUMP JUMPDEST PUSH1 0x0 PUSH1 0x20 DUP3 DUP5 SUB SLT ISZERO PUSH2 0x52F7 JUMPI PUSH1 0x0 DUP1 REVERT JUMPDEST DUP2 CALLDATALOAD PUSH4 0xFFFFFFFF DUP2 AND DUP2 EQ PUSH2 0x95C JUMPI PUSH1 0x0 DUP1 REVERT JUMPDEST PUSH1 0x0 PUSH1 0x20 DUP3 DUP5 SUB SLT ISZERO PUSH2 0x531D JUMPI PUSH1 0x0 DUP1 REVERT JUMPDEST DUP2 CALLDATALOAD PUSH2 0x95C DUP2 PUSH2 0x4EA9 JUMP JUMPDEST PUSH1 0x0 PUSH1 0x20 DUP3 DUP5 SUB SLT ISZERO PUSH2 0x533A JUMPI PUSH1 0x0 DUP1 REVERT JUMPDEST DUP2 MLOAD DUP1 ISZERO ISZERO DUP2 EQ PUSH2 0x95C JUMPI PUSH1 0x0 DUP1 REVERT JUMPDEST PUSH1 0x0 PUSH1 0x20 DUP3 DUP5 SUB SLT ISZERO PUSH2 0x535C JUMPI PUSH1 0x0 DUP1 REVERT JUMPDEST DUP2 MLOAD PUSH2 0x95C DUP2 PUSH2 0x4EA9 JUMP JUMPDEST PUSH1 0x0 DUP3 MLOAD PUSH1 0x0 JUMPDEST DUP2 DUP2 LT ISZERO PUSH2 0x5388 JUMPI PUSH1 0x20 DUP2 DUP7 ADD DUP2 ADD MLOAD DUP6 DUP4 ADD MSTORE ADD PUSH2 0x536E JUMP JUMPDEST DUP2 DUP2 GT ISZERO PUSH2 0x5397 JUMPI PUSH1 0x0 DUP3 DUP6 ADD MSTORE JUMPDEST POP SWAP2 SWAP1 SWAP2 ADD SWAP3 SWAP2 POP POP JUMP JUMPDEST PUSH4 0x4E487B71 PUSH1 0xE0 SHL PUSH1 0x0 MSTORE PUSH1 0x11 PUSH1 0x4 MSTORE PUSH1 0x24 PUSH1 0x0 REVERT JUMPDEST PUSH1 0x0 DUP3 PUSH2 0x53D5 JUMPI PUSH4 0x4E487B71 PUSH1 0xE0 SHL PUSH1 0x0 MSTORE PUSH1 0x12 PUSH1 0x4 MSTORE PUSH1 0x24 PUSH1 0x0 REVERT JUMPDEST POP DIV SWAP1 JUMP JUMPDEST PUSH1 0x0 DUP2 PUSH1 0x0 NOT DIV DUP4 GT DUP3 ISZERO ISZERO AND ISZERO PUSH2 0x53F4 JUMPI PUSH2 0x53F4 PUSH2 0x53A2 JUMP JUMPDEST POP MUL SWAP1 JUMP JUMPDEST PUSH4 0x4E487B71 PUSH1 0xE0 SHL PUSH1 0x0 MSTORE PUSH1 0x1 PUSH1 0x4 MSTORE PUSH1 0x24 PUSH1 0x0 REVERT JUMPDEST PUSH1 0x20 DUP1 DUP3 MSTORE PUSH1 0x10 SWAP1 DUP3 ADD MSTORE PUSH16 0x10DBDB9D1C9858DD081CDD1BDC1C1959 PUSH1 0x82 SHL PUSH1 0x40 DUP3 ADD MSTORE PUSH1 0x60 ADD SWAP1 JUMP JUMPDEST PUSH1 0x0 DUP1 PUSH1 0x40 DUP4 DUP6 SUB SLT ISZERO PUSH2 0x544C JUMPI PUSH1 0x0 DUP1 REVERT JUMPDEST POP POP DUP1 MLOAD PUSH1 0x20 SWAP1 SWAP2 ADD MLOAD SWAP1 SWAP3 SWAP1 SWAP2 POP JUMP JUMPDEST PUSH1 0x0 PUSH1 0x20 DUP3 DUP5 SUB SLT ISZERO PUSH2 0x546F JUMPI PUSH1 0x0 DUP1 REVERT JUMPDEST POP MLOAD SWAP2 SWAP1 POP JUMP JUMPDEST PUSH1 0x0 DUP1 PUSH1 0x0 PUSH1 0x60 DUP5 DUP7 SUB SLT ISZERO PUSH2 0x548B JUMPI PUSH1 0x0 DUP1 REVERT JUMPDEST DUP4 MLOAD SWAP3 POP PUSH1 0x20 DUP5 ADD MLOAD SWAP2 POP PUSH1 0x40 DUP5 ADD MLOAD SWAP1 POP SWAP3 POP SWAP3 POP SWAP3 JUMP JUMPDEST PUSH1 0x0 DUP3 DUP3 LT ISZERO PUSH2 0x54B6 JUMPI PUSH2 0x54B6 PUSH2 0x53A2 JUMP JUMPDEST POP SUB SWAP1 JUMP JUMPDEST PUSH1 0x0 DUP3 NOT DUP3 GT ISZERO PUSH2 0x54CE JUMPI PUSH2 0x54CE PUSH2 0x53A2 JUMP JUMPDEST POP ADD SWAP1 JUMP JUMPDEST PUSH1 0x0 PUSH1 0x1 PUSH1 0x1 PUSH1 0x40 SHL SUB DUP4 DUP2 AND SWAP1 DUP4 AND DUP2 DUP2 LT ISZERO PUSH2 0x54F3 JUMPI PUSH2 0x54F3 PUSH2 0x53A2 JUMP JUMPDEST SUB SWAP4 SWAP3 POP POP POP JUMP JUMPDEST PUSH1 0x0 PUSH1 0x1 PUSH1 0x1 PUSH1 0x40 SHL SUB DUP1 DUP4 AND DUP2 DUP6 AND DUP1 DUP4 SUB DUP3 GT ISZERO PUSH2 0x551D JUMPI PUSH2 0x551D PUSH2 0x53A2 JUMP JUMPDEST ADD SWAP5 SWAP4 POP POP POP POP JUMP JUMPDEST PUSH1 0x20 DUP1 DUP3 MSTORE PUSH1 0x2B SWAP1 DUP3 ADD MSTORE PUSH32 0x4D757374206265206163636F756E743D3D5F6D736753656E646572206F72204D PUSH1 0x40 DUP3 ADD MSTORE PUSH11 0x6F64652054657374696E67 PUSH1 0xA8 SHL PUSH1 0x60 DUP3 ADD MSTORE PUSH1 0x80 ADD SWAP1 JUMP JUMPDEST SWAP4 DUP5 MSTORE PUSH1 0x1 PUSH1 0x1 PUSH1 0xA0 SHL SUB SWAP3 DUP4 AND PUSH1 0x20 DUP6 ADD MSTORE SWAP2 AND PUSH1 0x40 DUP4 ADD MSTORE PUSH1 0x60 DUP3 ADD MSTORE PUSH1 0x80 ADD SWAP1 JUMP JUMPDEST DUP2 MLOAD DUP2 MSTORE PUSH1 0x20 DUP1 DUP4 ADD MLOAD PUSH2 0x180 DUP4 ADD SWAP2 PUSH2 0x55BA SWAP1 DUP5 ADD DUP3 PUSH1 0x1 PUSH1 0x1 PUSH1 0xA0 SHL SUB AND SWAP1 MSTORE JUMP JUMPDEST POP PUSH1 0x40 DUP4 ADD MLOAD PUSH2 0x55CD PUSH1 0x40 DUP5 ADD DUP3 PUSH2 0x4F53 JUMP JUMPDEST POP PUSH1 0x60 DUP4 ADD MLOAD PUSH2 0x55E2 PUSH1 0x60 DUP5 ADD DUP3 PUSH1 0xFF AND SWAP1 MSTORE JUMP JUMPDEST POP PUSH1 0x80 DUP4 ADD MLOAD PUSH1 0x80 DUP4 ADD MSTORE PUSH1 0xA0 DUP4 ADD MLOAD PUSH2 0x5607 PUSH1 0xA0 DUP5 ADD DUP3 PUSH1 0x1 PUSH1 0x1 PUSH1 0x40 SHL SUB AND SWAP1 MSTORE JUMP JUMPDEST POP PUSH1 0xC0 DUP4 ADD MLOAD PUSH2 0x5622 PUSH1 0xC0 DUP5 ADD DUP3 PUSH1 0x1 PUSH1 0x1 PUSH1 0x40 SHL SUB AND SWAP1 MSTORE JUMP JUMPDEST POP PUSH1 0xE0 DUP4 ADD MLOAD PUSH2 0x563D PUSH1 0xE0 DUP5 ADD DUP3 PUSH1 0x1 PUSH1 0x1 PUSH1 0x40 SHL SUB AND SWAP1 MSTORE JUMP JUMPDEST POP PUSH2 0x100 DUP4 DUP2 ADD MLOAD PUSH1 0x1 PUSH1 0x1 PUSH1 0x40 SHL SUB SWAP1 DUP2 AND SWAP2 DUP5 ADD SWAP2 SWAP1 SWAP2 MSTORE PUSH2 0x120 DUP1 DUP6 ADD MLOAD DUP3 AND SWAP1 DUP5 ADD MSTORE PUSH2 0x140 DUP1 DUP6 ADD MLOAD DUP3 AND SWAP1 DUP5 ADD MSTORE PUSH2 0x160 DUP1 DUP6 ADD MLOAD SWAP2 DUP3 AND DUP2 DUP6 ADD MSTORE SWAP1 PUSH2 0x5022 JUMP JUMPDEST PUSH4 0x4E487B71 PUSH1 0xE0 SHL PUSH1 0x0 MSTORE PUSH1 0x41 PUSH1 0x4 MSTORE PUSH1 0x24 PUSH1 0x0 REVERT JUMPDEST PUSH4 0x4E487B71 PUSH1 0xE0 SHL PUSH1 0x0 MSTORE PUSH1 0x32 PUSH1 0x4 MSTORE PUSH1 0x24 PUSH1 0x0 REVERT JUMPDEST PUSH1 0x0 PUSH1 0x20 DUP1 DUP4 DUP6 SUB SLT ISZERO PUSH2 0x56C4 JUMPI PUSH1 0x0 DUP1 REVERT JUMPDEST DUP3 MLOAD PUSH1 0x1 PUSH1 0x1 PUSH1 0x40 SHL SUB DUP1 DUP3 GT ISZERO PUSH2 0x56DB JUMPI PUSH1 0x0 DUP1 REVERT JUMPDEST DUP2 DUP6 ADD SWAP2 POP DUP6 PUSH1 0x1F DUP4 ADD SLT PUSH2 0x56EF JUMPI PUSH1 0x0 DUP1 REVERT JUMPDEST DUP2 MLOAD DUP2 DUP2 GT ISZERO PUSH2 0x5701 JUMPI PUSH2 0x5701 PUSH2 0x5685 JUMP JUMPDEST DUP1 PUSH1 0x5 SHL PUSH1 0x40 MLOAD PUSH1 0x1F NOT PUSH1 0x3F DUP4 ADD AND DUP2 ADD DUP2 DUP2 LT DUP6 DUP3 GT OR ISZERO PUSH2 0x5726 JUMPI PUSH2 0x5726 PUSH2 0x5685 JUMP JUMPDEST PUSH1 0x40 MSTORE SWAP2 DUP3 MSTORE DUP5 DUP3 ADD SWAP3 POP DUP4 DUP2 ADD DUP6 ADD SWAP2 DUP9 DUP4 GT ISZERO PUSH2 0x5744 JUMPI PUSH1 0x0 DUP1 REVERT JUMPDEST SWAP4 DUP6 ADD SWAP4 JUMPDEST DUP3 DUP6 LT ISZERO PUSH2 0x259F JUMPI DUP5 MLOAD DUP5 MSTORE SWAP4 DUP6 ADD SWAP4 SWAP3 DUP6 ADD SWAP3 PUSH2 0x5749 JUMP JUMPDEST PUSH1 0x0 DUP2 MLOAD DUP1 DUP5 MSTORE PUSH1 0x20 DUP1 DUP6 ADD SWAP5 POP DUP1 DUP5 ADD PUSH1 0x0 JUMPDEST DUP4 DUP2 LT ISZERO PUSH2 0x5792 JUMPI DUP2 MLOAD DUP8 MSTORE SWAP6 DUP3 ADD SWAP6 SWAP1 DUP3 ADD SWAP1 PUSH1 0x1 ADD PUSH2 0x5776 JUMP JUMPDEST POP SWAP5 SWAP6 SWAP5 POP POP POP POP POP JUMP JUMPDEST PUSH1 0x40 DUP2 MSTORE PUSH1 0x0 PUSH2 0x57B0 PUSH1 0x40 DUP4 ADD DUP6 PUSH2 0x5762 JUMP JUMPDEST SWAP1 POP DUP3 PUSH1 0x20 DUP4 ADD MSTORE SWAP4 SWAP3 POP POP POP JUMP JUMPDEST PUSH1 0x0 PUSH1 0x0 NOT DUP3 EQ ISZERO PUSH2 0x57D3 JUMPI PUSH2 0x57D3 PUSH2 0x53A2 JUMP JUMPDEST POP PUSH1 0x1 ADD SWAP1 JUMP JUMPDEST PUSH1 0x20 DUP1 DUP3 MSTORE DUP3 MLOAD DUP3 DUP3 ADD DUP2 SWAP1 MSTORE PUSH1 0x0 SWAP2 SWAP1 DUP5 DUP3 ADD SWAP1 PUSH1 0x40 DUP6 ADD SWAP1 DUP5 JUMPDEST DUP2 DUP2 LT ISZERO PUSH2 0x5812 JUMPI DUP4 MLOAD DUP4 MSTORE SWAP3 DUP5 ADD SWAP3 SWAP2 DUP5 ADD SWAP2 PUSH1 0x1 ADD PUSH2 0x57F6 JUMP JUMPDEST POP SWAP1 SWAP7 SWAP6 POP POP POP POP POP POP JUMP JUMPDEST PUSH1 0x40 DUP2 MSTORE PUSH1 0x0 PUSH2 0x5831 PUSH1 0x40 DUP4 ADD DUP6 PUSH2 0x5762 JUMP JUMPDEST DUP3 DUP2 SUB PUSH1 0x20 DUP5 ADD MSTORE PUSH2 0x13CA DUP2 DUP6 PUSH2 0x5762 JUMP INVALID 0xCD PUSH24 0x5F2396F9F13F12BCF8CA32E21DF66559A8ADC3944D059112 PUSH31 0x7731F7AB85A2646970667358221220AD58EF8AE7AAD474E53B164082893B54 DUP4 MLOAD 0xBE SWAP1 0xD5 0xE4 0x4D GASPRICE LOG1 0x5C CALLDATASIZE 0xE8 0xF7 PUSH2 0x47C PUSH5 0x736F6C6343 STOP ADDMOD SIGNEXTEND STOP CALLER ","sha1":"4e89b038f86179d26f5dce9507214fba47d361ce","source":"// SPDX-License-Identifier: MIT\n// Beef MarketPlace Contracts v0.0.0 hello@mcdu.com\n\npragma solidity ^0.8.0;\n\nimport \"../Market.sol\";\n\nbytes32 constant MARKETORDER = keccak256(\"MarketOrder\");\n\ncontract MarketOrder is Market, MarketPathWriter {\n    using Array for uint256[];\n    using Array for bytes32[];\n\n    function id() public view virtual override (Market) returns (bytes32) {return MARKETORDER;}\n\n    modifier onlyMarketOrder() virtual {\n        checkMarketOrder();\n        _;\n    }\n\n    function checkMarketOrder() internal view {\n        //require((address(rep.mo()) == _msgSender()), \"Allowance: caller must be Market\");\n    }\n \n    /////////////////////////////////////////////////////////////////////////////////////////\n    //      event\n    /////////////////////////////////////////////////////////////////////////////////////////\n    event Transaction(\n        bytes32 indexed fromk_,\n        bytes32 indexed tok_,\n        address fromaccount_,\n        address toaccount_,\n        uint256 quote_,\n        uint256 qty_\n    );\n\n    /////////////////////////////////////////////////////////////////////////////////////////\n    //      storage\n    /////////////////////////////////////////////////////////////////////////////////////////\n    //bool private constant _autodeleteorders = true;\n\n    constructor(Repository rep_) Market(rep_) {}\n\n    /////////////////////////////////////////////////////////////////////////////////////////\n    //      PROCESSING     internal processing\n    /////////////////////////////////////////////////////////////////////////////////////////\n    function _orderDestroy(Order.Info storage order_) internal {\n        _orderids.remove(order_.orderid);\n        _pastorders[block.number].push(order_.orderid);\n        //delete _orders[order_.orderid];\n    }\n\n    function _orderTerminate(Order.Info storage order_, Order.State newstate_)\n        internal\n    {\n        require(\n            newstate_ > Order.State.Unknown &&\n                newstate_ <= Order.State.Completed &&\n                order_.state >= Order.State.Active,\n            \"_orderTerminate state problem\"\n        );\n        (bytes32 from, bytes32 to) = rep.resolveBytes32Bytes32(order_.fromto);\n        //if (newstate_<=Order.State.Completed && order_.state>=Order.State.Active)\n        order_.state = newstate_;\n        if (Order.isReserved(order_.options))\n            Bank(rep.get(BANK))._reserveSub(\n                to,\n                order_.account,\n                address(this),\n                UInt64ToUInt256(order_.originalqty - order_.qtydone)\n            );\n        _fromtoorders[order_.fromto].remove(order_.orderid);\n        _fromorders[from].remove(order_.orderid);\n        _toorders[to].remove(order_.orderid);\n    }\n\n    /////////////////////////////////////////////////////////////////////////////////////////\n    //      PUBLIC\n    /////////////////////////////////////////////////////////////////////////////////////////\n\n    function _orderMakeTransfer(\n        Order.Info storage order_,\n        address toaccount_,\n        bool toreserve_,\n        uint256 qty_\n    ) internal {\n        address _fromfeeaccount;\n        uint256 _fromfee;\n        address _tofeeaccount;\n        uint256 _tofee;\n\n        if (_fromfeeaccount == address(0)) _fromfee = 0;\n        if (_tofeeaccount == address(0)) _tofee = 0;\n\n        uint256 _toqty = (qty_ * UInt64ToUInt256(order_.quote)) / 10**18;\n        (bytes32 from, bytes32 to) = rep.resolveBytes32Bytes32(order_.fromto);\n\n        if (Order.isReserved(order_.options))\n            Bank(rep.get(BANK))._reserveSub(\n                from,\n                order_.account,\n                address(this),\n                qty_\n            );\n        if (toreserve_)\n            Bank(rep.get(BANK))._reserveSub(to, toaccount_, address(this), _toqty);\n\n        if (_fromfee != 0)\n            Bank(rep.get(BANK))._transfer(\n                from,\n                order_.account,\n                _fromfeeaccount,\n                _fromfee\n            );\n        if (_tofee != 0)\n            Bank(rep.get(BANK))._transfer(to, toaccount_, _tofeeaccount, _tofee);\n        Bank(rep.get(BANK))._transfer(\n            from,\n            order_.account,\n            toaccount_,\n            qty_ - _fromfee\n        );\n        Bank(rep.get(BANK))._transfer(\n            to,\n            toaccount_,\n            order_.account,\n            _toqty - _tofee\n        );\n    }\n\n    function orderFulfill(\n        uint256 orderid_,\n        uint256 qty_,\n        uint256 quote_,\n        uint256 pctslippage_\n    ) public all returns (uint256 qtydone_) {\n        return\n            orderFulfillEx(_msgSender(), orderid_, qty_, quote_, pctslippage_);\n    }\n\n    function orderFulfillEx(\n        address account_,\n        uint256 orderid_,\n        uint256 qty_,\n        uint256 quote_,\n        uint256 pctslippage_\n    ) public all returns (uint256 qtydone_) {\n        (bool _result, ) = rep.get(MARKET).call(\n            abi.encodeWithSelector(\n                bytes4(\n                    keccak256(\n                        \"d_orderFulfillEx(address,uint32,uint256,uint256,uint256)\"\n                    )\n                ),\n                address(this),\n                account_,\n                orderid_,\n                qty_,\n                quote_,\n                pctslippage_\n            )\n        );\n        _return(_result);\n    }\n\n    function d_orderFulfillEx(\n        address account_,\n        uint256 orderid_,\n        uint256 qty_,\n        uint256 quote_,\n        uint256 pctslippage_\n    ) public onlyMarketOrder returns (uint256 qtydone_) {\n        require(!STOP(), \"Contract stopped\");\n        require(\n            rep.MODETEST() || account_ == _msgSender(),\n            \"Must be account==_msgSender() or Mode Testing\"\n        );\n        Order.Info storage _order = _orders[orderid_];\n        (bytes32 from, bytes32 to) = rep.resolveBytes32Bytes32(_order.fromto);\n\n        require(\n            (qty_ * quote_) / 10**18 <= Bank(rep.get(BANK)).available(to, account_),\n            \"Bank: Not enough available\"\n        );\n\n        uint256 _quote;\n        if (Order.isIndexed(_order.options)) {\n            // this must update _quote by reentrant call back\n            (, _quote, ) = Quotator(rep.get(QUOTATOR)).read(from, to);\n        } else _quote = UInt64ToUInt256(_order.quote);\n        require(\n            _quote <= (quote_ * (10**18 - pctslippage_)) / 10**18 &&\n                _quote >= (quote_ * (10**18 + pctslippage_)) / 10**18,\n            \"Quote Slipped over tolerance\"\n        );\n\n        uint256 _qty = (qty_ * quote_) / _quote;\n        uint256 _orderqty = UInt64ToUInt256(_order.qty - _order.qtydone);\n        if (_orderqty < _qty) _qty = _orderqty;\n\n        _orderMakeTransfer(_order, account_, false, qty_);\n\n        _order.qtydone += UInt256ToUInt64(qty_);\n        if (_order.qtydone == _order.originalqty)\n            _orderTerminate(_order, Order.State.Completed);\n\n        //if (!Order.isHidden(_order.options))\n        emit Transaction(from, to, _order.account, account_, _quote, _qty);\n        if (_order.state <= Order.State.Completed) _orderDestroy(_order);\n\n        return qty_;\n    }\n\n\n    function orderPlaceEx(\n        address from_,\n        uint256 fromid_,\n        address to_,\n        uint256 toid_,\n        uint256 granularity_,\n        uint256 qty_,\n        uint256 quote_,\n        uint8 options_\n    ) public all returns (uint256 orderid_) {\n        return\n            orderPlace(\n                _msgSender(),\n                rep.currency(from_, fromid_),\n                rep.currency(to_, toid_),\n                granularity_,\n                qty_,\n                quote_,\n                options_\n            );\n    }\n\n    function orderPlace(\n        address account_,\n        address from_,\n        uint256 fromid_,\n        address to_,\n        uint256 toid_,\n        uint256 granularity_,\n        uint256 qty_,\n        uint256 quote_,\n        uint8 options_\n    ) public all returns (uint256 orderid_) {\n        return\n            orderPlace(\n                account_,\n                rep.currency(from_, fromid_),\n                rep.currency(to_, toid_),\n                granularity_,\n                qty_,\n                quote_,\n                options_\n            );\n    }\n\n    function orderPlaceEx(\n        address account_,\n        address from_,\n        address to_,\n        uint256 granularity_,\n        uint256 qty_,\n        uint256 quote_,\n        uint8 options_\n    ) public all returns (uint256 orderid_) {\n        return\n            orderPlace(\n                account_,\n                rep.currency(from_, 0),\n                rep.currency(to_, 0),\n                granularity_,\n                qty_,\n                quote_,\n                options_\n            );\n    }\n\n    function orderPlace(\n        bytes32 from_,\n        bytes32 to_,\n        uint256 granularity_,\n        uint256 qty_,\n        uint256 quote_,\n        uint8 options_\n    ) public all returns (uint256 orderid_) {\n        return\n            orderPlace(\n                _msgSender(),\n                from_,\n                to_,\n                granularity_,\n                qty_,\n                quote_,\n                options_\n            );\n    }\n\n    function orderPlace(\n        address account_,\n        bytes32 from_,\n        bytes32 to_,\n        uint256 granularity_,\n        uint256 qty_,\n        uint256 quote_,\n        uint8 options_\n    ) public all returns (uint256 orderid_) {\n        (bool _result, ) = rep.get(MARKET).call(\n            abi.encodeWithSelector(\n                bytes4(\n                    keccak256(\n                        \"d_orderPlace(address,bytes32,bytes32,uint256,uint256,uint256,uint8)\"\n                    )\n                ),\n                address(this),\n                account_,\n                from_,\n                to_,\n                granularity_,\n                qty_,\n                quote_,\n                options_\n            )\n        );\n        _return(_result);\n    }\n\n    function d_orderPlace(\n        address account_,\n        bytes32 from_,\n        bytes32 to_,\n        uint256 granularity_,\n        uint256 qty_,\n        uint256 quote_,\n        uint8 options_\n    ) public onlyMarketOrder returns (uint256 orderid_) {\n        require(!STOP(), \"Contract stopped\");\n        require(\n            rep.MODETEST() || account_ == _msgSender(),\n            \"Must be account==_msgSender or Mode Testing\"\n        );\n        //require(Bank(rep.get(BANK)).features(from_) == 0,\"Bank: 'From' type unknown\");\n        //require(Bank(rep.get(BANK)).features(to_) == 0, \"Bank: 'To' type unknown\");\n        //(address from, ) = rep.resolveCurrency(from_);\n        //(address to, ) = rep.resolveCurrency(to_);\n        if (rep.hasFeature(from_,Token.SupportTradeable)) {\n            address from = rep.resolveCurrencyAddr(from_);\n            require(ITradeable(from).tradeable(), \"From not tradeable\");\n            require(\n                ITradeable(from).onlyWithCurrency() && to_ != Token.CURRENCY,\n                \"From is only tradeable to Currency\"\n            );\n        }\n        require(\n            (!rep.nft(from_)) || qty_ == 10**18 || granularity_ == qty_,\n            \"'From' is NFT qty and granularity must be 1\"\n        );\n\n        //bytes32 from = rep.currency(from, fromid_);\n        require(\n            qty_ <= Bank(rep.get(BANK)).available(from_, account_),\n            \"Bank: Not enough available\"\n        );\n\n        Order.Info memory _order;\n        /*_order.typefrom = Bank(rep.get(BANK)).tokenType(from_);\n        require(\n            _order.typefrom != Token.Type.Unknown,\n            \"Bank: 'From' type unknown\"\n        );*/\n        //if (_order.typefrom == TokenType.Polymorph && nft)\n        //    granularity_ = qty_ = IPolymorph(from).getNFTQty();\n\n        _order.account = account_;\n        _order.fromto = rep.Bytes32Bytes32(from_, to_);\n        //(bytes32 v1,bytes32 v2) = rep.resolveBytes32Bytes32(_order.fromto);\n        //require(uint256(v1)==uint256(from_) && uint256(v2)==uint256(to_),\"uint256(v1)==uint256(from_) && uint256(v2)==uint256(to_)\");\n\n        //_order.typeto = Bank(rep.get(BANK)).tokenType(to_);\n        //require(_order.typeto != Token.Type.Unknown, \"Bank: 'To' type unknown\");\n        _order.granularity = UInt256ToUInt64(granularity_);\n        _order.qty = UInt256ToUInt64(qty_);\n        /*if (_order.typefrom == Token.Type.Polymorph) {\n            require(\n                (!IPolymorph(from).isTradeableOnlyWithCurrency()) &&\n                    (_order.typeto != Token.Type.Cur),\n                \"Bank: 'From' only tradeable to Currency\"\n            );\n        }\n        if (_order.typeto == Token.Type.Polymorph)\n            require(\n                (!IPolymorph(to).isTradeableOnlyWithCurrency()) &&\n                    (_order.typefrom != Token.Type.Cur),\n                \"Bank: 'To' only tradeable from Currency\"\n            );\n        */\n        _order.quote = UInt256ToUInt64(quote_);\n\n        if (Order.isIndexed(_order.options)) {\n            uint256 _qquote;\n            (, _qquote, ) = Quotator(rep.get(QUOTATOR)).read(from_,to_);\n            _order.originalbasedquote = UInt256ToUInt64(_qquote);\n            require(_order.originalbasedquote != 0, \"Quote: Not quoted\");\n        }\n\n        if (Order.isReserved(_order.options))\n            Bank(rep.get(BANK))._reserveAdd(to_, _order.account, address(this), qty_);\n\n        // we are saving order just now is order isnt completed\n        unchecked {\n            _orderidptr++;\n            while (_orderidptr == 0 && _orders[_orderidptr].orderid != 0)\n                _orderidptr++;\n        }\n        _order.orderid = _orderidptr;\n\n        _order.originalqty = _order.qty;\n        _order.state = Order.State.Active;\n        _order.options = options_;\n        _order.originalquote = _order.quote;\n\n        _orders[_order.orderid] = _order;\n        //if (USEFROMTOORDERS)\n        _orderids.insert(_order.orderid);\n        _fromtoorders[_order.fromto].insert(_order.orderid);\n        _fromorders[from_].insert(_order.orderid);\n        _toorders[to_].insert(_order.orderid);\n        _insertPath(_order.fromto);\n        return _orderidptr;\n    }\n\n    function orderCancel(uint256 orderid_) public all {\n        (bool _result, ) = rep.get(MARKET).call(\n            abi.encodeWithSelector(\n                bytes4(keccak256(\"d_orderCancel(uint256)\")),\n                address(this),\n                orderid_\n            )\n        );\n        _return(_result);\n    }\n\n    function d_orderCancel(uint256 order_) public onlyMarketOrder {\n        require(!STOP(), \"Contract stopped\");\n        Order.Info storage _order = _orders[order_];\n        require(\n            rep.MODETEST() || _order.account == _msgSender(),\n            \"Must be account==_msgSender or Mode Testing\"\n        );\n        _orderTerminate(_order, Order.State.Cancelled);\n        _orderDestroy(_order);\n    }\n}\n","sourcePath":"contracts/Market/Order/Order.sol","type":"contract","deployment":{"address":"0xe5c4ae841a3526f3e24e95492204B3727a842611","chainid":"9997","blockHeight":8898}}