{"abi":[{"inputs":[{"internalType":"contract Repository","name":"rep_","type":"address"}],"stateMutability":"nonpayable","type":"constructor","name":"constructor"},{"anonymous":false,"inputs":[{"indexed":true,"internalType":"address","name":"previousOwner","type":"address"},{"indexed":true,"internalType":"address","name":"newOwner","type":"address"}],"name":"OwnershipTransferred","type":"event"},{"anonymous":false,"inputs":[{"indexed":true,"internalType":"bytes32","name":"currency_","type":"bytes32"},{"indexed":true,"internalType":"address","name":"account_","type":"address"},{"indexed":false,"internalType":"uint256","name":"amount_","type":"uint256"}],"name":"Stacked","type":"event"},{"anonymous":false,"inputs":[{"indexed":true,"internalType":"bytes32","name":"currency_","type":"bytes32"},{"indexed":true,"internalType":"address","name":"from_","type":"address"},{"indexed":true,"internalType":"address","name":"to_","type":"address"},{"indexed":false,"internalType":"uint256","name":"amount_","type":"uint256"}],"name":"Transferred","type":"event"},{"stateMutability":"nonpayable","type":"fallback"},{"inputs":[],"name":"STOP","outputs":[{"internalType":"bool","name":"","type":"bool"}],"stateMutability":"view","type":"function"},{"inputs":[],"name":"STOPFOREVER","outputs":[{"internalType":"bool","name":"","type":"bool"}],"stateMutability":"view","type":"function"},{"inputs":[{"internalType":"uint256","name":"val_","type":"uint256"}],"name":"UInt256ToUInt32","outputs":[{"internalType":"uint32","name":"","type":"uint32"}],"stateMutability":"pure","type":"function"},{"inputs":[{"internalType":"uint256","name":"val_","type":"uint256"}],"name":"UInt256ToUInt48","outputs":[{"internalType":"uint48","name":"","type":"uint48"}],"stateMutability":"pure","type":"function"},{"inputs":[{"internalType":"uint256","name":"val_","type":"uint256"}],"name":"UInt256ToUInt64","outputs":[{"internalType":"uint64","name":"","type":"uint64"}],"stateMutability":"pure","type":"function"},{"inputs":[{"internalType":"uint32","name":"val_","type":"uint32"}],"name":"UInt32ToUInt256","outputs":[{"internalType":"uint256","name":"","type":"uint256"}],"stateMutability":"pure","type":"function"},{"inputs":[{"internalType":"uint48","name":"val_","type":"uint48"}],"name":"UInt48ToUInt256","outputs":[{"internalType":"uint256","name":"","type":"uint256"}],"stateMutability":"pure","type":"function"},{"inputs":[{"internalType":"uint64","name":"val_","type":"uint64"}],"name":"UInt64ToUInt256","outputs":[{"internalType":"uint256","name":"","type":"uint256"}],"stateMutability":"pure","type":"function"},{"inputs":[{"internalType":"bytes32","name":"currency_","type":"bytes32"},{"internalType":"address","name":"account_","type":"address"},{"internalType":"address","name":"","type":"address"},{"internalType":"uint256","name":"amount__","type":"uint256"}],"name":"_allowanceAdd","outputs":[],"stateMutability":"nonpayable","type":"function"},{"inputs":[{"internalType":"bytes32","name":"currency_","type":"bytes32"},{"internalType":"address","name":"account_","type":"address"},{"internalType":"address","name":"","type":"address"},{"internalType":"uint256","name":"amount__","type":"uint256"}],"name":"_allowanceSub","outputs":[],"stateMutability":"nonpayable","type":"function"},{"inputs":[{"internalType":"bytes32","name":"currency_","type":"bytes32"},{"internalType":"address","name":"account_","type":"address"},{"internalType":"address","name":"","type":"address"},{"internalType":"uint256","name":"amount__","type":"uint256"}],"name":"_collateralAdd","outputs":[],"stateMutability":"nonpayable","type":"function"},{"inputs":[{"internalType":"bytes32","name":"currency_","type":"bytes32"},{"internalType":"address","name":"account_","type":"address"},{"internalType":"address","name":"","type":"address"},{"internalType":"uint256","name":"amount__","type":"uint256"}],"name":"_collateralAllowanceAdd","outputs":[],"stateMutability":"nonpayable","type":"function"},{"inputs":[{"internalType":"bytes32","name":"currency_","type":"bytes32"},{"internalType":"address","name":"account_","type":"address"},{"internalType":"address","name":"","type":"address"},{"internalType":"uint256","name":"amount__","type":"uint256"}],"name":"_collateralAllowanceSub","outputs":[],"stateMutability":"nonpayable","type":"function"},{"inputs":[{"internalType":"bytes32","name":"currency_","type":"bytes32"},{"internalType":"address","name":"account_","type":"address"},{"internalType":"address","name":"","type":"address"},{"internalType":"uint256","name":"amount__","type":"uint256"}],"name":"_collateralSub","outputs":[],"stateMutability":"nonpayable","type":"function"},{"inputs":[{"internalType":"bytes32","name":"currency_","type":"bytes32"},{"internalType":"address","name":"account_","type":"address"},{"internalType":"address","name":"","type":"address"},{"internalType":"uint256","name":"amount__","type":"uint256"}],"name":"_reserveAdd","outputs":[],"stateMutability":"nonpayable","type":"function"},{"inputs":[{"internalType":"bytes32","name":"currency_","type":"bytes32"},{"internalType":"address","name":"account_","type":"address"},{"internalType":"address","name":"","type":"address"},{"internalType":"uint256","name":"amount__","type":"uint256"}],"name":"_reserveSub","outputs":[],"stateMutability":"nonpayable","type":"function"},{"inputs":[{"internalType":"bytes32","name":"currency_","type":"bytes32"},{"internalType":"address","name":"accountfrom_","type":"address"},{"internalType":"address","name":"accountto_","type":"address"},{"internalType":"uint256","name":"amount__","type":"uint256"}],"name":"_transfer","outputs":[],"stateMutability":"nonpayable","type":"function"},{"inputs":[{"internalType":"bytes32","name":"currency_","type":"bytes32"},{"internalType":"address","name":"account_","type":"address"}],"name":"account","outputs":[{"components":[{"internalType":"uint256","name":"_balance","type":"uint256"},{"internalType":"uint256","name":"_reserve","type":"uint256"},{"internalType":"uint256","name":"_collateral","type":"uint256"},{"internalType":"uint256","name":"_credit","type":"uint256"},{"internalType":"uint256","name":"_allowance","type":"uint256"},{"internalType":"uint256","name":"_collateralcredit","type":"uint256"},{"internalType":"uint256","name":"_collateralallowance","type":"uint256"},{"internalType":"uint256","name":"_available","type":"uint256"},{"internalType":"uint256","name":"_unstackable","type":"uint256"},{"internalType":"uint256","name":"_creditused","type":"uint256"},{"internalType":"uint256","name":"_creditavailable","type":"uint256"}],"internalType":"struct Bank.Account","name":"acc_","type":"tuple"}],"stateMutability":"view","type":"function"},{"inputs":[{"internalType":"bytes32","name":"currency_","type":"bytes32"},{"internalType":"address","name":"account_","type":"address"}],"name":"available","outputs":[{"internalType":"uint256","name":"","type":"uint256"}],"stateMutability":"view","type":"function"},{"inputs":[{"internalType":"uint256","name":"granularity_","type":"uint256"}],"name":"granularity","outputs":[{"internalType":"uint256","name":"out_","type":"uint256"}],"stateMutability":"pure","type":"function"},{"inputs":[{"internalType":"bytes32","name":"tokenhash_","type":"bytes32"}],"name":"granularity","outputs":[{"internalType":"uint256","name":"","type":"uint256"}],"stateMutability":"view","type":"function"},{"inputs":[],"name":"id","outputs":[{"internalType":"bytes32","name":"","type":"bytes32"}],"stateMutability":"view","type":"function"},{"inputs":[{"internalType":"address","name":"caller_","type":"address"}],"name":"isOwner","outputs":[{"internalType":"bool","name":"","type":"bool"}],"stateMutability":"view","type":"function"},{"inputs":[],"name":"owner","outputs":[{"internalType":"address","name":"","type":"address"}],"stateMutability":"view","type":"function"},{"inputs":[],"name":"renounceOwnership","outputs":[],"stateMutability":"nonpayable","type":"function"},{"inputs":[],"name":"rep","outputs":[{"internalType":"contract Repository","name":"","type":"address"}],"stateMutability":"view","type":"function"},{"inputs":[],"name":"setSTOP","outputs":[],"stateMutability":"nonpayable","type":"function"},{"inputs":[],"name":"setSTOPFOREVER","outputs":[],"stateMutability":"nonpayable","type":"function"},{"inputs":[{"internalType":"address","name":"token_","type":"address"},{"internalType":"uint256","name":"tokenid_","type":"uint256"},{"internalType":"uint256","name":"amount_","type":"uint256"}],"name":"stake","outputs":[],"stateMutability":"payable","type":"function"},{"inputs":[{"internalType":"address","name":"token_","type":"address"},{"internalType":"uint256","name":"amount_","type":"uint256"}],"name":"stake","outputs":[],"stateMutability":"payable","type":"function"},{"inputs":[{"internalType":"bytes4","name":"interfaceId","type":"bytes4"}],"name":"supportsInterface","outputs":[{"internalType":"bool","name":"","type":"bool"}],"stateMutability":"view","type":"function"},{"inputs":[{"internalType":"address","name":"token_","type":"address"},{"internalType":"uint256","name":"tokenid_","type":"uint256"},{"internalType":"address","name":"account_","type":"address"},{"internalType":"uint256","name":"amount_","type":"uint256"}],"name":"testStake","outputs":[],"stateMutability":"nonpayable","type":"function"},{"inputs":[{"internalType":"address","name":"token_","type":"address"},{"internalType":"address","name":"account_","type":"address"},{"internalType":"uint256","name":"amount_","type":"uint256"}],"name":"testStake","outputs":[],"stateMutability":"nonpayable","type":"function"},{"inputs":[{"internalType":"address","name":"token_","type":"address"},{"internalType":"address","name":"account_","type":"address"},{"internalType":"uint256","name":"amount_","type":"uint256"}],"name":"testUnstake","outputs":[],"stateMutability":"nonpayable","type":"function"},{"inputs":[{"internalType":"address","name":"token_","type":"address"},{"internalType":"uint256","name":"tokenid_","type":"uint256"},{"internalType":"address","name":"account_","type":"address"},{"internalType":"uint256","name":"amount_","type":"uint256"}],"name":"testUnstake","outputs":[],"stateMutability":"nonpayable","type":"function"},{"inputs":[{"internalType":"address","name":"newOwner","type":"address"}],"name":"transferOwnership","outputs":[],"stateMutability":"nonpayable","type":"function"},{"inputs":[],"name":"unsetSTOP","outputs":[],"stateMutability":"nonpayable","type":"function"},{"inputs":[{"internalType":"address","name":"token_","type":"address"},{"internalType":"uint256","name":"tokenid_","type":"uint256"},{"internalType":"uint256","name":"amount_","type":"uint256"}],"name":"unstake","outputs":[],"stateMutability":"nonpayable","type":"function"},{"inputs":[{"internalType":"address","name":"token_","type":"address"},{"internalType":"uint256","name":"amount_","type":"uint256"}],"name":"unstake","outputs":[],"stateMutability":"nonpayable","type":"function"}],"bytecode":"60a06040523480156200001157600080fd5b50604051620047b6380380620047b68339810160408190526200003491620000ae565b80620000403362000053565b6001600160a01b031660805250620000e0565b600080546001600160a01b038381166201000081810262010000600160b01b0319851617855560405193049190911692909183917f8be0079c531659141344cd1fd0a4f28419497f9722a3daafe3b4186f6b6457e091a35050565b600060208284031215620000c157600080fd5b81516001600160a01b0381168114620000d957600080fd5b9392505050565b6080516145e1620001d560003960008181610722015281816108b50152818161095301528181610ddc01528181610e5c01528181611140015281816113a1015281816114b10152818161167b0152818161188201528181611a1501528181611cc501528181611dc101528181611fab015281816120c90152818161224401528181612a3301528181612ad401528181612bfa01528181613193015281816135e00152818161383a0152818161391f015281816139ad01528181613ac501528181613b6601528181613c0001528181613c8e01528181613e8e01528181613f2f01528181614000015261408e01526145e16000f3fe6080604052600436106102305760003560e01c8063979620761161012e578063d2919113116100ab578063f0174fe51161006f578063f0174fe5146107d9578063f28e5a25146107f9578063f29cc2e514610819578063f2fde38b14610839578063feab44541461085957610230565b8063d291911314610744578063d693585814610764578063e4b1614414610779578063e7c2501214610799578063e8211a30146107b957610230565b8063adc9772e116100f2578063adc9772e1461068a578063af640d0f1461069d578063b03fd40d146106d0578063c2a672e0146106f0578063ccc079591461071057610230565b806397962076146105ed57806398528baf1461060a5780639cd1e41e1461062a578063a2bc66be1461064a578063a9bf98581461066a57610230565b8063715018a6116101bc578063807b7b4411610180578063807b7b4414610540578063854ba99d146105605780638da5cb5b1461057557806392f5b253146105ad578063954c62bc146105cd57610230565b8063715018a6146104a857806372ea61bf146104bd57806378d75276146104d25780637a5c0e9a146104f25780637af6649a1461051257610230565b80631c9619a7116102035780631c9619a7146103c65780632203616d146103e65780632f54bf6e1461041b57806356a1fd3a14610450578063629651411461047057610230565b806301ffc9a7146102c257806305d6bd9c146102f75780630867a4f31461030e5780630c51b88f146103b3575b34801561023c57600080fd5b50610245610890565b6000610255602460043684614198565b8080601f016020809104026020016040519081016040528093929190818152602001838380828437600092018290525060208501519495509250503660231981019150601f19016004838037816024600437600080826000875af4925050506102bd81610a5a565b505050005b3480156102ce57600080fd5b506102e26102dd3660046141c2565b610a74565b60405190151581526020015b60405180910390f35b34801561030357600080fd5b5061030c610aab565b005b34801561031a57600080fd5b5061032e610329366004614201565b610ac2565b6040516102ee9190600061016082019050825182526020830151602083015260408301516040830152606083015160608301526080830151608083015260a083015160a083015260c083015160c083015260e083015160e083015261010080840151818401525061012080840151818401525061014080840151818401525092915050565b61030c6103c1366004614231565b610d3f565b3480156103d257600080fd5b5061030c6103e1366004614266565b610d74565b3480156103f257600080fd5b506104066104013660046142ae565b6110f1565b60405163ffffffff90911681526020016102ee565b34801561042757600080fd5b506102e26104363660046142c7565b6000546201000090046001600160a01b0390811691161490565b34801561045c57600080fd5b5061030c61046b366004614266565b611102565b34801561047c57600080fd5b5061049061048b3660046142ae565b611341565b6040516001600160401b0390911681526020016102ee565b3480156104b457600080fd5b5061030c611373565b3480156104c957600080fd5b5061030c611385565b3480156104de57600080fd5b5061030c6104ed3660046142e4565b61139f565b3480156104fe57600080fd5b5061030c61050d366004614266565b611473565b34801561051e57600080fd5b5061053261052d36600461431c565b6115e2565b6040519081526020016102ee565b34801561054c57600080fd5b5061053261055b3660046142ae565b6115fb565b34801561056c57600080fd5b506102e261161f565b34801561058157600080fd5b506000546201000090046001600160a01b03165b6040516001600160a01b0390911681526020016102ee565b3480156105b957600080fd5b5061030c6105c8366004614266565b61163d565b3480156105d957600080fd5b5061030c6105e8366004614266565b611844565b3480156105f957600080fd5b50600054610100900460ff166102e2565b34801561061657600080fd5b5061030c610625366004614266565b6119d7565b34801561063657600080fd5b50610532610645366004614201565b611c7d565b34801561065657600080fd5b5061030c610665366004614231565b611c93565b34801561067657600080fd5b506105326106853660046142ae565b611ca0565b61030c610698366004614344565b611d30565b3480156106a957600080fd5b507fcd775f2396f9f13f12bcf8ca32e21df66559a8adc3944d0591127e7731f7ab85610532565b3480156106dc57600080fd5b506105326106eb366004614370565b611d5d565b3480156106fc57600080fd5b5061030c61070b366004614344565b611d77565b34801561071c57600080fd5b506105957f000000000000000000000000000000000000000000000000000000000000000081565b34801561075057600080fd5b5061030c61075f366004614266565b611d83565b34801561077057600080fd5b5061030c611f76565b34801561078557600080fd5b50610532610794366004614399565b611f92565b3480156107a557600080fd5b5061030c6107b43660046143bf565b611fa9565b3480156107c557600080fd5b5061030c6107d43660046143bf565b61207e565b3480156107e557600080fd5b5061030c6107f4366004614266565b61208b565b34801561080557600080fd5b5061030c6108143660046142e4565b6121fa565b34801561082557600080fd5b5061030c610834366004614266565b612206565b34801561084557600080fd5b5061030c6108543660046142c7565b612377565b34801561086557600080fd5b506108796108743660046142ae565b6123f0565b60405165ffffffffffff90911681526020016102ee565b6000546001600160a01b03620100009091041633148061094357506001600160a01b037f0000000000000000000000000000000000000000000000000000000000000000166316279055336040516001600160e01b031960e084901b1681526001600160a01b039091166004820152602401602060405180830381865afa15801561091f573d6000803e3d6000fd5b505050506040513d601f19601f820116820180604052508101906109439190614400565b806109e157506001600160a01b037f000000000000000000000000000000000000000000000000000000000000000016636d70f7ae336040516001600160e01b031960e084901b1681526001600160a01b039091166004820152602401602060405180830381865afa1580156109bd573d6000803e3d6000fd5b505050506040513d601f19601f820116820180604052508101906109e19190614400565b610a585760405162461bcd60e51b815260206004820152603960248201527f416c6c6f77616e63653a2063616c6c6572206d757374206265205265706f736960448201527f746f727920436f6e7472616374206f72204f70657261746f720000000000000060648201526084015b60405180910390fd5b565b3d6000803e808015610a6b573d6000f35b3d6000fd5b5050565b60006001600160e01b031982166301ffc9a760e01b1480610aa557506001600160e01b031982166315d3789560e31b145b92915050565b610ab3610890565b610a586000805460ff19169055565b610b1f60405180610160016040528060008152602001600081526020016000815260200160008152602001600081526020016000815260200160008152602001600081526020016000815260200160008152602001600081525090565b60006004600073__BytesAndKeccakLib_____________________631eb650e787876040518363ffffffff1660e01b8152600401610b5e929190614422565b602060405180830381865af4158015610b7b573d6000803e3d6000fd5b505050506040513d601f19601f82011682018060405250810190610b9f9190614439565b815260208101919091526040016000208054909150600160c01b900460ff161580610bd25750336001600160a01b038416145b610c125760405162461bcd60e51b81526020600482015260116024820152704163636f756e74206973206f706171756560781b6044820152606401610a4f565b8054610c26906001600160401b0316611d5d565b82528054610c4390600160401b90046001600160401b0316611d5d565b60208301528054610c6390600160801b90046001600160401b0316611d5d565b60408301526001810154610c7f906001600160401b0316611d5d565b60608301526001810154610ca290600160401b90046001600160401b0316611d5d565b60808301526001810154610cc590600160801b90046001600160401b0316611d5d565b60a08301526001810154610ce890600160c01b90046001600160401b0316611d5d565b60c0830152610cfa6106eb8585612401565b60e0830152610d0c6106eb8585612557565b610100830152610d1f6106eb85856126d8565b610120830152610d326106eb858561280b565b6101408301525092915050565b6001600160a01b03831615610d5b57610d5b8383335b846129ae565b3415610d6f57610d6f600080335b346129ae565b505050565b610d7c612aaf565b6000610d8782611341565b90506001600160401b038116610d9d57506110eb565b610da561161f565b15610dc25760405162461bcd60e51b8152600401610a4f90614452565b604051635768bbb560e01b81526000906001600160a01b037f00000000000000000000000000000000000000000000000000000000000000001690635768bbb590610e139089908990600401614422565b6020604051808303816000875af1158015610e32573d6000803e3d6000fd5b505050506040513d601f19601f82011682018060405250810190610e569190614439565b905060007f00000000000000000000000000000000000000000000000000000000000000006001600160a01b0316635768bbb588876040518363ffffffff1660e01b8152600401610ea8929190614422565b6020604051808303816000875af1158015610ec7573d6000803e3d6000fd5b505050506040513d601f19601f82011682018060405250810190610eeb9190614439565b9050610ef78787612401565b6001600160401b0316836001600160401b03161115610f685760405162461bcd60e51b815260206004820152602760248201527f657263323020617661696c61626c65285f6163636f756e7466726f6d29203c2060448201526617d85b5bdd5b9d60ca1b6064820152608401610a4f565b6040516316f4b92960e21b815273__Array_________________________________90635bd2e4a490610fa2906001908990600401614422565b602060405180830381865af4158015610fbf573d6000803e3d6000fd5b505050506040513d601f19601f82011682018060405250810190610fe39190614400565b50610ff78787610ff286611d5d565b612bc4565b61100a878661100586611d5d565b61315d565b600082815260046020526040902054600160c01b900460ff1615806110455750600081815260046020526040902054600160c01b900460ff16155b156110e757600081815260046020526040902054600160c01b900460ff1661106d5784611070565b60005b6000838152600460205260409020546001600160a01b039190911690600160c01b900460ff166110a057866110a3565b60005b6001600160a01b0316887f4cafe8c90c0e3a2fa8da6fa1827b31ff8be7d9efb7f85b110c3481ad9b36beff876040516110de91815260200190565b60405180910390a45b5050505b50505050565b6000610aa564e8d4a5100083614492565b61110a612aaf565b600061111582611341565b90506001600160401b0381161561133a57604051635768bbb560e01b81526000906001600160a01b037f00000000000000000000000000000000000000000000000000000000000000001690635768bbb5906111779089908990600401614422565b6020604051808303816000875af1158015611196573d6000803e3d6000fd5b505050506040513d601f19601f820116820180604052508101906111ba9190614439565b600081815260046020908152604091829020825160c08101845281546001600160401b03808216838701908152600160401b8084048316606080870191909152600160801b808604851660808089019190915260ff600160c01b9788900416151560a089015293875289519384018a52600190970154808516845291820484168389015295810483169782019790975291909504851692810192909252918201528051519293509184821691161015611275576112756144b4565b82816000015160200181815161128b91906144ca565b6001600160401b0316905250805180518491906112a99083906144f5565b6001600160401b0390811690915282516000858152600460209081526040918290208351815492850151938501516060909501511515600160c01b0260ff60c01b19958716600160801b029590951668ffffffffffffffffff60801b19948716600160401b026001600160801b03199094169190961617919091179190911692909217179055506110e787876135db565b5050505050565b6000806113536402540be40084614492565b905082611365826402540be40061451d565b1115610aa557610aa56144b4565b61137b6136f9565b610a58600061375a565b61138d610890565b610a586000805460ff19166001179055565b7f00000000000000000000000000000000000000000000000000000000000000006001600160a01b0316634635229b6040518163ffffffff1660e01b8152600401602060405180830381865afa1580156113fd573d6000803e3d6000fd5b505050506040513d601f19601f820116820180604052508101906114219190614400565b6114675760405162461bcd60e51b81526020600482015260176024820152764d75737420626520696e204d6f64652054657374696e6760481b6044820152606401610a4f565b6110eb848484846129ae565b61147b612aaf565b600061148682611341565b90506001600160401b0381161561133a57604051635768bbb560e01b81526000906001600160a01b037f00000000000000000000000000000000000000000000000000000000000000001690635768bbb5906114e89089908990600401614422565b6020604051808303816000875af1158015611507573d6000803e3d6000fd5b505050506040513d601f19601f8201168201806040525081019061152b9190614439565b600081815260046020908152604091829020825160c08101845281546001600160401b03808216838701908152600160401b8084048316606080870191909152600160801b808604851660808089019190915260ff600160c01b9788900416151560a089015293875289519384018a526001909701548085168452918204841683890152958104831682890152929092041692810192909252918201528051909101805192935090918491906112a99083906144ca565b6000610aa565ffffffffffff831664174876e80061451d565b60006116096106eb83611341565b90508061161a57610aa56001611d5d565b919050565b6000805460ff16806116385750600054610100900460ff165b905090565b611645612aaf565b600061165082611341565b90506001600160401b0381161561133a57604051635768bbb560e01b81526000906001600160a01b037f00000000000000000000000000000000000000000000000000000000000000001690635768bbb5906116b29089908990600401614422565b6020604051808303816000875af11580156116d1573d6000803e3d6000fd5b505050506040513d601f19601f820116820180604052508101906116f59190614439565b600081815260046020908152604091829020825160c08101845281546001600160401b03808216838701908152600160401b8084048316606080870191909152600160801b808604851660808089019190915260ff600160c01b9788900416151560a089015293875289519384018a5260019097015480851684529182048416838901908152968204841698830198909852929092041694810194909452918201929092528151929350918491906117ae9083906144f5565b6001600160401b0390811690915260208084015160008681526004835260409081902082516001909101805494840151928401516060909401518616600160c01b026001600160c01b03948716600160801b02949094166001600160801b03938716600160401b026001600160801b03199096169290961691909117939093171692909217919091179055506110e787876135db565b61184c612aaf565b600061185782611341565b90506001600160401b0381161561133a57604051635768bbb560e01b81526000906001600160a01b037f00000000000000000000000000000000000000000000000000000000000000001690635768bbb5906118b99089908990600401614422565b6020604051808303816000875af11580156118d8573d6000803e3d6000fd5b505050506040513d601f19601f820116820180604052508101906118fc9190614439565b600081815260046020908152604091829020825160c08101845281546001600160401b03808216838701908152600160401b8084048316606080870191909152600160801b808604851660808089019190915260ff600160c01b9788900416151560a089015293875289519384018a526001909701548085168452918204841683890152958104831697820197909752919095049094169184019190915280820192909252815101805192935090918491906119b99083906144f5565b6001600160401b0316905250805180518491906112a99083906144ca565b6119df612aaf565b60006119ea82611341565b90506001600160401b0381161561133a57604051635768bbb560e01b81526000906001600160a01b037f00000000000000000000000000000000000000000000000000000000000000001690635768bbb590611a4c9089908990600401614422565b6020604051808303816000875af1158015611a6b573d6000803e3d6000fd5b505050506040513d601f19601f82011682018060405250810190611a8f9190614439565b600081815260046020908152604091829020825160c08101845281546001600160401b03808216838701908152600160401b8084048316606080870191909152600160801b808604851660808089019190915260ff600160c01b9788900416151560a089015293875289519384018a5260019097015480851684529182048416838901529581048316978201979097529190950490941691840191825291820192909252815192935091849190611b479083906144ca565b6001600160401b0390811690915260208301515116159050611bf35760208101516040810151606090910151600091611b7f916144f5565b9050806001600160401b03168260200151600001516001600160401b03161015611bab57506020810151515b808260200151600001818151611bc191906144f5565b6001600160401b031690525060208201516040018051829190611be59083906144ca565b6001600160401b0316905250505b60208082015160008481526004835260409081902082516001909101805494840151928401516060909401516001600160401b03908116600160c01b026001600160c01b03958216600160801b02959095166001600160801b03948216600160401b026001600160801b031990971691909316179490941791909116171790556110e787876135db565b6000611c8c6106eb8484612401565b9392505050565b610d6f8383335b846137b5565b604051631537f30b60e31b815260048101829052600090610aa5906001600160a01b037f0000000000000000000000000000000000000000000000000000000000000000169063a9bf985890602401602060405180830381865afa158015611d0c573d6000803e3d6000fd5b505050506040513d601f19601f8201168201806040525081019061055b9190614439565b6001600160a01b03821615611d4b57611d4b82600033610d55565b3415610a7057610a7060008033610d69565b6000610aa56001600160401b0383166402540be40061451d565b610a7082600033611c9a565b611d8b612aaf565b6000611d9682611341565b90506001600160401b0381161561133a57604051635768bbb560e01b81526000906001600160a01b037f00000000000000000000000000000000000000000000000000000000000000001690635768bbb590611df89089908990600401614422565b6020604051808303816000875af1158015611e17573d6000803e3d6000fd5b505050506040513d601f19601f82011682018060405250810190611e3b9190614439565b600081815260046020908152604091829020825160c08101845281546001600160401b03808216838701908152600160401b8084048316606080870191909152600160801b808604851660808089019190915260ff600160c01b9788900416151560a089015293875289519384018a5260019097015480851684529182048416838901529581048316978201979097529190950490941691840191825291820192909252815192935091849190611ef39083906144f5565b6001600160401b0390811690915260208301516060810151604090910151908216911611159050611bf35760208101516060810151604090910151600091611f3a916144f5565b9050808260200151600001818151611f5291906144ca565b6001600160401b031690525060208201516040018051829190611be59083906144f5565b611f7e6136f9565b610a586000805461ff001916610100179055565b6000610aa563ffffffff831664e8d4a5100061451d565b7f00000000000000000000000000000000000000000000000000000000000000006001600160a01b0316634635229b6040518163ffffffff1660e01b8152600401602060405180830381865afa158015612007573d6000803e3d6000fd5b505050506040513d601f19601f8201168201806040525081019061202b9190614400565b6120715760405162461bcd60e51b81526020600482015260176024820152764d75737420626520696e204d6f64652054657374696e6760481b6044820152606401610a4f565b610d6f83600084846129ae565b610d6f83600084846137b5565b612093612aaf565b600061209e82611341565b90506001600160401b0381161561133a57604051635768bbb560e01b81526000906001600160a01b037f00000000000000000000000000000000000000000000000000000000000000001690635768bbb5906121009089908990600401614422565b6020604051808303816000875af115801561211f573d6000803e3d6000fd5b505050506040513d601f19601f820116820180604052508101906121439190614439565b600081815260046020908152604091829020825160c08101845281546001600160401b03808216838701908152600160401b8084048316606080870191909152600160801b808604851660808089019190915260ff600160c01b9788900416151560a089015293875289519384018a526001909701548085168452918204841683890152958104831682890152929092041692810192909252918201528051909101805192935090918491906112a99083906144f5565b6110eb848484846137b5565b61220e612aaf565b600061221982611341565b90506001600160401b0381161561133a57604051635768bbb560e01b81526000906001600160a01b037f00000000000000000000000000000000000000000000000000000000000000001690635768bbb59061227b9089908990600401614422565b6020604051808303816000875af115801561229a573d6000803e3d6000fd5b505050506040513d601f19601f820116820180604052508101906122be9190614439565b600081815260046020908152604091829020825160c08101845281546001600160401b03808216838701908152600160401b8084048316606080870191909152600160801b808604851660808089019190915260ff600160c01b9788900416151560a089015293875289519384018a5260019097015480851684529182048416838901908152968204841698830198909852929092041694810194909452918201929092528151929350918491906117ae9083906144ca565b61237f6136f9565b6001600160a01b0381166123e45760405162461bcd60e51b815260206004820152602660248201527f4f776e61626c653a206e6577206f776e657220697320746865207a65726f206160448201526564647265737360d01b6064820152608401610a4f565b6123ed8161375a565b50565b6000610aa564174876e80083614492565b6000806004600073__BytesAndKeccakLib_____________________631eb650e787876040518363ffffffff1660e01b8152600401612441929190614422565b602060405180830381865af415801561245e573d6000803e3d6000fd5b505050506040513d601f19601f820116820180604052508101906124829190614439565b81526020808201929092526040908101600020815160c08101835281546001600160401b03808216838601908152600160401b8084048316606080870191909152600160801b808604851660808089019190915260ff600160c01b978890048116151560a08a015294885289519081018a5260019098015480861689529283048516888b015282048416978701979097529290920416938301939093529283015260035491925016156125385751519050610aa5565b612542848461280b565b81515161254f91906144ca565b949350505050565b6000806004600073__BytesAndKeccakLib_____________________631eb650e787876040518363ffffffff1660e01b8152600401612597929190614422565b602060405180830381865af41580156125b4573d6000803e3d6000fd5b505050506040513d601f19601f820116820180604052508101906125d89190614439565b815260208082019290925260409081016000908120825160c08101845281546001600160401b03808216838701908152600160401b8084048316606080870191909152600160801b808604851660808089019190915260ff600160c01b9788900416151560a089015293875289519384018a5260019097015480851684529182048416838b015295810483169782019790975291909504909416918401919091529283019190915290915061268d85856126d8565b6001600160401b031611806126b65750805180516040909101516001600160401b039182169116115b156126c5576000915050610aa5565b80516040810151905161254f91906144f5565b6000806004600073__BytesAndKeccakLib_____________________631eb650e787876040518363ffffffff1660e01b8152600401612718929190614422565b602060405180830381865af4158015612735573d6000803e3d6000fd5b505050506040513d601f19601f820116820180604052508101906127599190614439565b81526020808201929092526040908101600020815160c08101835281546001600160401b03808216838601908152600160401b8084048316606080870191909152600160801b808604851660808089019190915260ff600160c01b9788900416151560a08901529387528851938401895260019097015480851684529182048416838a015295810483169682019687529290920416928101929092529283018190529051905191925061254f916144ca565b60035460009060ff161561282157506000610aa5565b60006004600073__BytesAndKeccakLib_____________________631eb650e787876040518363ffffffff1660e01b8152600401612860929190614422565b602060405180830381865af415801561287d573d6000803e3d6000fd5b505050506040513d601f19601f820116820180604052508101906128a19190614439565b81526020808201929092526040908101600020815160c08101835281546001600160401b03808216838601908152600160401b8084048316606080870191909152600160801b808604851660808089019190915260ff600160c01b9788900416151560a08901529387528851938401895260019097015480851684529182048416838a0190815296820484169783019790975292909204169381019384529381019390935290519051919250612956916144ca565b6001600160401b031661296985856126d8565b6001600160401b03161115612982576000915050610aa5565b61298c84846126d8565b60208083015160608101519101516129a491906144ca565b61254f91906144f5565b6001600160a01b0384161515806129c3575082155b612a0a5760405162461bcd60e51b8152602060048201526018602482015277043757272656e637920697320616464726573732830292c360441b6044820152606401610a4f565b60405163509ff69b60e01b81526001600160a01b038581166004830152602482018590526000917f00000000000000000000000000000000000000000000000000000000000000009091169063509ff69b906044016020604051808303816000875af1158015612a7e573d6000803e3d6000fd5b505050506040513d601f19601f82011682018060405250810190612aa29190614439565b905061133a8184846138b6565b6000546001600160a01b036201000090910416331480612b6257506001600160a01b037f0000000000000000000000000000000000000000000000000000000000000000166316279055336040516001600160e01b031960e084901b1681526001600160a01b039091166004820152602401602060405180830381865afa158015612b3e573d6000803e3d6000fd5b505050506040513d601f19601f82011682018060405250810190612b629190614400565b610a585760405162461bcd60e51b815260206004820152602d60248201527f416c6c6f77616e63653a2063616c6c6572206d757374206265205265706f736960448201526c1d1bdc9e4810dbdb9d1c9858dd609a1b6064820152608401610a4f565b6000612bcf82611341565b90506001600160401b038116156110eb57604051635768bbb560e01b81526000906001600160a01b037f00000000000000000000000000000000000000000000000000000000000000001690635768bbb590612c319088908890600401614422565b6020604051808303816000875af1158015612c50573d6000803e3d6000fd5b505050506040513d601f19601f82011682018060405250810190612c749190614439565b600081815260046020908152604091829020825160c08101845281546001600160401b03808216838701908152600160401b8084048316606080870191909152600160801b808604851660808089019190915260ff600160c01b978890048116151560a08a01529488528a519081018b5260019098015480861689529283048516888a01528204841698870198909852929092041694830194909452918201526003549293509116158015612d515750826001600160401b0316612d38878761280b565b825151612d4591906144ca565b6001600160401b031610155b80612d77575060035460ff168015612d7757508051516001600160401b03808516911610155b612dd25760405162461bcd60e51b815260206004820152602660248201527f4e6f7420656e6f756768742062616c616e63654f662f63726564697420616c6c6044820152656f77616e636560d01b6064820152608401610a4f565b8051516000906001600160401b039081169085161115612e7157815151600090612dfc90866144f5565b90506000836020015160400151846020015160600151612e1c91906144f5565b9050806001600160401b0316826001600160401b03161115612e3c578091505b818460200151604001818151612e5291906144ca565b6001600160401b0316905250612e6882876144f5565b95506001925050505b8151516000906001600160401b039081169086161115612f0b57825151600090612e9b90876144f5565b6020808601518051910151919250600091612eb691906144f5565b9050806001600160401b0316826001600160401b03161115612ed6578091505b818560200151600001818151612eec91906144ca565b6001600160401b0316905250612f0282886144f5565b96506001925050505b60006001600160401b03861615612f3f5783518051879190612f2e9083906144f5565b6001600160401b0316905250600190505b8180612f485750825b8015612f52575080155b15612fdc5760208085015160008781526004835260409081902082516001909101805494840151928401516060909401516001600160401b03908116600160c01b026001600160c01b03958216600160801b02959095166001600160801b03948216600160401b026001600160801b03199097169190931617949094179190911617179055613148565b81158015612fe8575082155b8015612ff15750805b1561307b5783516000868152600460209081526040918290208351815492850151938501516060909501511515600160c01b0260ff60c01b196001600160401b03968716600160801b021668ffffffffffffffffff60801b19958716600160401b026001600160801b03199095169690921695909517929092179290921617919091179055613148565b60008581526004602090815260409182902086518051825482850151838701516060948501516001600160401b039485166001600160801b031994851617600160401b93861684021768ffffffffffffffffff60801b1916600160801b928616830260ff60c01b191617600160c01b91151582021787558c880151805160019098018054998201519a82015191909701519786169890941697909717978416909102969096176001600160801b03169082169095026001600160c01b031694909417919093169091021790555b61315289896135db565b505050505050505050565b600061316882611341565b90506001600160401b038116156110eb57604051635768bbb560e01b81526000906001600160a01b037f00000000000000000000000000000000000000000000000000000000000000001690635768bbb5906131ca9088908890600401614422565b6020604051808303816000875af11580156131e9573d6000803e3d6000fd5b505050506040513d601f19601f8201168201806040525081019061320d9190614439565b6000818152600460209081526040808320815160c08101835281546001600160401b03808216838601908152600160401b8084048316606080870191909152600160801b808604851660808089019190915260ff600160c01b9788900416151560a08901529387528851938401895260019097015480851684529182048416838a015295810483169682019690965291909404841692810192909252928301819052519394509092161561337f576020820151516001600160401b0380861691161061332b578382602001516000018181516132e991906144f5565b6001600160401b03169052506132fe84611d5d565b6000888152600260205260408120805490919061331c90849061453c565b909155506000945061337b9050565b60208201515161333b90856144f5565b935061334e826020015160000151611d5d565b6000888152600260205260408120805490919061336c90849061453c565b90915550506020820151600090525b5060015b6020820151604001516000906001600160401b03161561346d57846001600160401b03168360200151604001516001600160401b031610613412578483602001516040018181516133d091906144f5565b6001600160401b03169052506133e585611d5d565b6000898152600260205260408120805490919061340390849061453c565b90915550600095506134699050565b60208301516040015161342590866144f5565b9450613438836020015160400151611d5d565b6000898152600260205260408120805490919061345690849061453c565b9091555050602083015160006040909101525b5060015b60006001600160401b038616156134a157835180518791906134909083906144ca565b6001600160401b0316905250600190505b82806134aa5750815b80156134b4575080155b1561353e5760208085015160008781526004835260409081902082516001909101805494840151928401516060909401516001600160401b03908116600160c01b026001600160c01b03958216600160801b02959095166001600160801b03948216600160401b026001600160801b03199097169190931617949094179190911617179055613148565b82158015612fe8575081158015612ff15750801561307b5783516000868152600460209081526040918290208351815492850151938501516060909501511515600160c01b0260ff60c01b196001600160401b03968716600160801b021668ffffffffffffffffff60801b19958716600160401b026001600160801b03199095169690921695909517929092179290921617919091179055613148565b6000807f00000000000000000000000000000000000000000000000000000000000000006001600160a01b03167f2737b530ab33d91025e8bd75ac76d6f8c285330aacc740150191541ae845c5a8858560405160240161363c929190614422565b60408051601f198184030181529181526020820180516001600160e01b03166001600160e01b031990941693909317909252905161367a9190614553565b6000604051808303816000865af19150503d80600081146136b7576040519150601f19603f3d011682016040523d82523d6000602084013e6136bc565b606091505b5091509150816110eb5760405162461bcd60e51b815260206004820152600860248201526717d8da185b99d95960c21b6044820152606401610a4f565b6000546001600160a01b0362010000909104163314610a585760405162461bcd60e51b815260206004820152601f60248201527f416c6c6f77616e63653a2063616c6c6572206d757374206265204f776e6572006044820152606401610a4f565b600080546001600160a01b038381166201000081810262010000600160b01b0319851617855560405193049190911692909183917f8be0079c531659141344cd1fd0a4f28419497f9722a3daafe3b4186f6b6457e091a35050565b6001600160a01b0384161515806137ca575082155b6138115760405162461bcd60e51b8152602060048201526018602482015277043757272656e637920697320616464726573732830292c360441b6044820152606401610a4f565b60405163509ff69b60e01b81526001600160a01b038581166004830152602482018590526000917f00000000000000000000000000000000000000000000000000000000000000009091169063509ff69b906044016020604051808303816000875af1158015613885573d6000803e3d6000fd5b505050506040513d601f19601f820116820180604052508101906138a99190614439565b905061133a818484613e1e565b60006138c182611341565b90506001600160401b0381166138d75750505050565b6138df61161f565b156138fc5760405162461bcd60e51b8152600401610a4f90614452565b60405163c33470d360e01b81526004810185905263285116a160e21b60248201527f00000000000000000000000000000000000000000000000000000000000000006001600160a01b03169063c33470d390604401602060405180830381865afa15801561396e573d6000803e3d6000fd5b505050506040513d601f19601f820116820180604052508101906139929190614400565b15613ac357604051630c25e48360e11b8152600481018590527f00000000000000000000000000000000000000000000000000000000000000006001600160a01b03169063184bc90690602401602060405180830381865afa1580156139fc573d6000803e3d6000fd5b505050506040513d601f19601f82011682018060405250810190613a20919061458e565b6001600160a01b031663a0bb93236040518163ffffffff1660e01b8152600401602060405180830381865afa158015613a5d573d6000803e3d6000fd5b505050506040513d601f19601f82011682018060405250810190613a819190614400565b613ac35760405162461bcd60e51b8152602060048201526013602482015272546f6b656e206e6f742062616e6b6561626c6560681b6044820152606401610a4f565b7f00000000000000000000000000000000000000000000000000000000000000006001600160a01b0316634635229b6040518163ffffffff1660e01b8152600401602060405180830381865afa158015613b21573d6000803e3d6000fd5b505050506040513d601f19601f82011682018060405250810190613b459190614400565b613d945760405163a663d4f560e01b815260048101859052600160248201527f00000000000000000000000000000000000000000000000000000000000000006001600160a01b03169063a663d4f590604401602060405180830381865afa158015613bb5573d6000803e3d6000fd5b505050506040513d601f19601f82011682018060405250810190613bd99190614400565b15613be357613d94565b60405163a663d4f560e01b815260048101859052600260248201527f00000000000000000000000000000000000000000000000000000000000000006001600160a01b03169063a663d4f590604401602060405180830381865afa158015613c4f573d6000803e3d6000fd5b505050506040513d601f19601f82011682018060405250810190613c739190614400565b15613d9457604051630c25e48360e11b8152600481018590527f00000000000000000000000000000000000000000000000000000000000000006001600160a01b03169063184bc90690602401602060405180830381865afa158015613cdd573d6000803e3d6000fd5b505050506040513d601f19601f82011682018060405250810190613d01919061458e565b6001600160a01b03166323b872dd8430613d1a85611d5d565b6040516001600160e01b031960e086901b1681526001600160a01b03938416600482015292909116602483015260448201526064016020604051808303816000875af1158015613d6e573d6000803e3d6000fd5b505050506040513d601f19601f82011682018060405250810190613d929190614400565b505b6040516316f4b92960e21b815273__Array_________________________________90635bd2e4a490613dce906001908790600401614422565b602060405180830381865af4158015613deb573d6000803e3d6000fd5b505050506040513d601f19601f82011682018060405250810190613e0f9190614400565b506110eb848461100584611d5d565b6000613e2982611341565b90506001600160401b038116613e3f5750505050565b613e4761161f565b15613e645760405162461bcd60e51b8152600401610a4f90614452565b806001600160401b0316613e788585612557565b6001600160401b03161015613e8c57600080fd5b7f00000000000000000000000000000000000000000000000000000000000000006001600160a01b0316634635229b6040518163ffffffff1660e01b8152600401602060405180830381865afa158015613eea573d6000803e3d6000fd5b505050506040513d601f19601f82011682018060405250810190613f0e9190614400565b61418a5760405163a663d4f560e01b815260048101859052600160248201527f00000000000000000000000000000000000000000000000000000000000000006001600160a01b03169063a663d4f590604401602060405180830381865afa158015613f7e573d6000803e3d6000fd5b505050506040513d601f19601f82011682018060405250810190613fa29190614400565b15613fe3576040516001600160a01b0384169083156108fc029084906000818181858888f19350505050158015613fdd573d6000803e3d6000fd5b5061418a565b60405163a663d4f560e01b815260048101859052600260248201527f00000000000000000000000000000000000000000000000000000000000000006001600160a01b03169063a663d4f590604401602060405180830381865afa15801561404f573d6000803e3d6000fd5b505050506040513d601f19601f820116820180604052508101906140739190614400565b1561418a57604051630c25e48360e11b8152600481018590527f00000000000000000000000000000000000000000000000000000000000000006001600160a01b03169063184bc90690602401602060405180830381865afa1580156140dd573d6000803e3d6000fd5b505050506040513d601f19601f82011682018060405250810190614101919061458e565b6001600160a01b031663a9059cbb8461411984611d5d565b6040516001600160e01b031960e085901b1681526001600160a01b03909216600483015260248201526044016020604051808303816000875af1158015614164573d6000803e3d6000fd5b505050506040513d601f19601f820116820180604052508101906141889190614400565b505b6110eb8484610ff284611d5d565b600080858511156141a857600080fd5b838611156141b557600080fd5b5050820193919092039150565b6000602082840312156141d457600080fd5b81356001600160e01b031981168114611c8c57600080fd5b6001600160a01b03811681146123ed57600080fd5b6000806040838503121561421457600080fd5b823591506020830135614226816141ec565b809150509250929050565b60008060006060848603121561424657600080fd5b8335614251816141ec565b95602085013595506040909401359392505050565b6000806000806080858703121561427c57600080fd5b84359350602085013561428e816141ec565b9250604085013561429e816141ec565b9396929550929360600135925050565b6000602082840312156142c057600080fd5b5035919050565b6000602082840312156142d957600080fd5b8135611c8c816141ec565b600080600080608085870312156142fa57600080fd5b8435614305816141ec565b935060208501359250604085013561429e816141ec565b60006020828403121561432e57600080fd5b813565ffffffffffff81168114611c8c57600080fd5b6000806040838503121561435757600080fd5b8235614362816141ec565b946020939093013593505050565b60006020828403121561438257600080fd5b81356001600160401b0381168114611c8c57600080fd5b6000602082840312156143ab57600080fd5b813563ffffffff81168114611c8c57600080fd5b6000806000606084860312156143d457600080fd5b83356143df816141ec565b925060208401356143ef816141ec565b929592945050506040919091013590565b60006020828403121561441257600080fd5b81518015158114611c8c57600080fd5b9182526001600160a01b0316602082015260400190565b60006020828403121561444b57600080fd5b5051919050565b60208082526010908201526f10dbdb9d1c9858dd081cdd1bdc1c195960821b604082015260600190565b634e487b7160e01b600052601160045260246000fd5b6000826144af57634e487b7160e01b600052601260045260246000fd5b500490565b634e487b7160e01b600052600160045260246000fd5b60006001600160401b038083168185168083038211156144ec576144ec61447c565b01949350505050565b60006001600160401b03838116908316818110156145155761451561447c565b039392505050565b60008160001904831182151516156145375761453761447c565b500290565b60008282101561454e5761454e61447c565b500390565b6000825160005b81811015614574576020818601810151858301520161455a565b81811115614583576000828501525b509190910192915050565b6000602082840312156145a057600080fd5b8151611c8c816141ec56fea264697066735822122053d8ab5d3575fb1d3e4cb067ea39c1d8e19f0c18a82d003e30cc3806123a5ea164736f6c634300080b0033","bytecodeSha1":"8b7b032564d4528565e638de69ccc28ef39f3572","compiler":{"evm_version":"istanbul","optimizer":{"enabled":true,"runs":200},"version":"0.8.11+commit.d7f03943"},"contractName":"Bank","deployedBytecode":"6080604052600436106102305760003560e01c8063979620761161012e578063d2919113116100ab578063f0174fe51161006f578063f0174fe5146107d9578063f28e5a25146107f9578063f29cc2e514610819578063f2fde38b14610839578063feab44541461085957610230565b8063d291911314610744578063d693585814610764578063e4b1614414610779578063e7c2501214610799578063e8211a30146107b957610230565b8063adc9772e116100f2578063adc9772e1461068a578063af640d0f1461069d578063b03fd40d146106d0578063c2a672e0146106f0578063ccc079591461071057610230565b806397962076146105ed57806398528baf1461060a5780639cd1e41e1461062a578063a2bc66be1461064a578063a9bf98581461066a57610230565b8063715018a6116101bc578063807b7b4411610180578063807b7b4414610540578063854ba99d146105605780638da5cb5b1461057557806392f5b253146105ad578063954c62bc146105cd57610230565b8063715018a6146104a857806372ea61bf146104bd57806378d75276146104d25780637a5c0e9a146104f25780637af6649a1461051257610230565b80631c9619a7116102035780631c9619a7146103c65780632203616d146103e65780632f54bf6e1461041b57806356a1fd3a14610450578063629651411461047057610230565b806301ffc9a7146102c257806305d6bd9c146102f75780630867a4f31461030e5780630c51b88f146103b3575b34801561023c57600080fd5b50610245610890565b6000610255602460043684614198565b8080601f016020809104026020016040519081016040528093929190818152602001838380828437600092018290525060208501519495509250503660231981019150601f19016004838037816024600437600080826000875af4925050506102bd81610a5a565b505050005b3480156102ce57600080fd5b506102e26102dd3660046141c2565b610a74565b60405190151581526020015b60405180910390f35b34801561030357600080fd5b5061030c610aab565b005b34801561031a57600080fd5b5061032e610329366004614201565b610ac2565b6040516102ee9190600061016082019050825182526020830151602083015260408301516040830152606083015160608301526080830151608083015260a083015160a083015260c083015160c083015260e083015160e083015261010080840151818401525061012080840151818401525061014080840151818401525092915050565b61030c6103c1366004614231565b610d3f565b3480156103d257600080fd5b5061030c6103e1366004614266565b610d74565b3480156103f257600080fd5b506104066104013660046142ae565b6110f1565b60405163ffffffff90911681526020016102ee565b34801561042757600080fd5b506102e26104363660046142c7565b6000546201000090046001600160a01b0390811691161490565b34801561045c57600080fd5b5061030c61046b366004614266565b611102565b34801561047c57600080fd5b5061049061048b3660046142ae565b611341565b6040516001600160401b0390911681526020016102ee565b3480156104b457600080fd5b5061030c611373565b3480156104c957600080fd5b5061030c611385565b3480156104de57600080fd5b5061030c6104ed3660046142e4565b61139f565b3480156104fe57600080fd5b5061030c61050d366004614266565b611473565b34801561051e57600080fd5b5061053261052d36600461431c565b6115e2565b6040519081526020016102ee565b34801561054c57600080fd5b5061053261055b3660046142ae565b6115fb565b34801561056c57600080fd5b506102e261161f565b34801561058157600080fd5b506000546201000090046001600160a01b03165b6040516001600160a01b0390911681526020016102ee565b3480156105b957600080fd5b5061030c6105c8366004614266565b61163d565b3480156105d957600080fd5b5061030c6105e8366004614266565b611844565b3480156105f957600080fd5b50600054610100900460ff166102e2565b34801561061657600080fd5b5061030c610625366004614266565b6119d7565b34801561063657600080fd5b50610532610645366004614201565b611c7d565b34801561065657600080fd5b5061030c610665366004614231565b611c93565b34801561067657600080fd5b506105326106853660046142ae565b611ca0565b61030c610698366004614344565b611d30565b3480156106a957600080fd5b507fcd775f2396f9f13f12bcf8ca32e21df66559a8adc3944d0591127e7731f7ab85610532565b3480156106dc57600080fd5b506105326106eb366004614370565b611d5d565b3480156106fc57600080fd5b5061030c61070b366004614344565b611d77565b34801561071c57600080fd5b506105957f000000000000000000000000000000000000000000000000000000000000000081565b34801561075057600080fd5b5061030c61075f366004614266565b611d83565b34801561077057600080fd5b5061030c611f76565b34801561078557600080fd5b50610532610794366004614399565b611f92565b3480156107a557600080fd5b5061030c6107b43660046143bf565b611fa9565b3480156107c557600080fd5b5061030c6107d43660046143bf565b61207e565b3480156107e557600080fd5b5061030c6107f4366004614266565b61208b565b34801561080557600080fd5b5061030c6108143660046142e4565b6121fa565b34801561082557600080fd5b5061030c610834366004614266565b612206565b34801561084557600080fd5b5061030c6108543660046142c7565b612377565b34801561086557600080fd5b506108796108743660046142ae565b6123f0565b60405165ffffffffffff90911681526020016102ee565b6000546001600160a01b03620100009091041633148061094357506001600160a01b037f0000000000000000000000000000000000000000000000000000000000000000166316279055336040516001600160e01b031960e084901b1681526001600160a01b039091166004820152602401602060405180830381865afa15801561091f573d6000803e3d6000fd5b505050506040513d601f19601f820116820180604052508101906109439190614400565b806109e157506001600160a01b037f000000000000000000000000000000000000000000000000000000000000000016636d70f7ae336040516001600160e01b031960e084901b1681526001600160a01b039091166004820152602401602060405180830381865afa1580156109bd573d6000803e3d6000fd5b505050506040513d601f19601f820116820180604052508101906109e19190614400565b610a585760405162461bcd60e51b815260206004820152603960248201527f416c6c6f77616e63653a2063616c6c6572206d757374206265205265706f736960448201527f746f727920436f6e7472616374206f72204f70657261746f720000000000000060648201526084015b60405180910390fd5b565b3d6000803e808015610a6b573d6000f35b3d6000fd5b5050565b60006001600160e01b031982166301ffc9a760e01b1480610aa557506001600160e01b031982166315d3789560e31b145b92915050565b610ab3610890565b610a586000805460ff19169055565b610b1f60405180610160016040528060008152602001600081526020016000815260200160008152602001600081526020016000815260200160008152602001600081526020016000815260200160008152602001600081525090565b60006004600073__$669c6e0eba2465bd6779ea6ec5db3af1b5$__631eb650e787876040518363ffffffff1660e01b8152600401610b5e929190614422565b602060405180830381865af4158015610b7b573d6000803e3d6000fd5b505050506040513d601f19601f82011682018060405250810190610b9f9190614439565b815260208101919091526040016000208054909150600160c01b900460ff161580610bd25750336001600160a01b038416145b610c125760405162461bcd60e51b81526020600482015260116024820152704163636f756e74206973206f706171756560781b6044820152606401610a4f565b8054610c26906001600160401b0316611d5d565b82528054610c4390600160401b90046001600160401b0316611d5d565b60208301528054610c6390600160801b90046001600160401b0316611d5d565b60408301526001810154610c7f906001600160401b0316611d5d565b60608301526001810154610ca290600160401b90046001600160401b0316611d5d565b60808301526001810154610cc590600160801b90046001600160401b0316611d5d565b60a08301526001810154610ce890600160c01b90046001600160401b0316611d5d565b60c0830152610cfa6106eb8585612401565b60e0830152610d0c6106eb8585612557565b610100830152610d1f6106eb85856126d8565b610120830152610d326106eb858561280b565b6101408301525092915050565b6001600160a01b03831615610d5b57610d5b8383335b846129ae565b3415610d6f57610d6f600080335b346129ae565b505050565b610d7c612aaf565b6000610d8782611341565b90506001600160401b038116610d9d57506110eb565b610da561161f565b15610dc25760405162461bcd60e51b8152600401610a4f90614452565b604051635768bbb560e01b81526000906001600160a01b037f00000000000000000000000000000000000000000000000000000000000000001690635768bbb590610e139089908990600401614422565b6020604051808303816000875af1158015610e32573d6000803e3d6000fd5b505050506040513d601f19601f82011682018060405250810190610e569190614439565b905060007f00000000000000000000000000000000000000000000000000000000000000006001600160a01b0316635768bbb588876040518363ffffffff1660e01b8152600401610ea8929190614422565b6020604051808303816000875af1158015610ec7573d6000803e3d6000fd5b505050506040513d601f19601f82011682018060405250810190610eeb9190614439565b9050610ef78787612401565b6001600160401b0316836001600160401b03161115610f685760405162461bcd60e51b815260206004820152602760248201527f657263323020617661696c61626c65285f6163636f756e7466726f6d29203c2060448201526617d85b5bdd5b9d60ca1b6064820152608401610a4f565b6040516316f4b92960e21b815273__$f71e59c5327218924d154e230469c101bd$__90635bd2e4a490610fa2906001908990600401614422565b602060405180830381865af4158015610fbf573d6000803e3d6000fd5b505050506040513d601f19601f82011682018060405250810190610fe39190614400565b50610ff78787610ff286611d5d565b612bc4565b61100a878661100586611d5d565b61315d565b600082815260046020526040902054600160c01b900460ff1615806110455750600081815260046020526040902054600160c01b900460ff16155b156110e757600081815260046020526040902054600160c01b900460ff1661106d5784611070565b60005b6000838152600460205260409020546001600160a01b039190911690600160c01b900460ff166110a057866110a3565b60005b6001600160a01b0316887f4cafe8c90c0e3a2fa8da6fa1827b31ff8be7d9efb7f85b110c3481ad9b36beff876040516110de91815260200190565b60405180910390a45b5050505b50505050565b6000610aa564e8d4a5100083614492565b61110a612aaf565b600061111582611341565b90506001600160401b0381161561133a57604051635768bbb560e01b81526000906001600160a01b037f00000000000000000000000000000000000000000000000000000000000000001690635768bbb5906111779089908990600401614422565b6020604051808303816000875af1158015611196573d6000803e3d6000fd5b505050506040513d601f19601f820116820180604052508101906111ba9190614439565b600081815260046020908152604091829020825160c08101845281546001600160401b03808216838701908152600160401b8084048316606080870191909152600160801b808604851660808089019190915260ff600160c01b9788900416151560a089015293875289519384018a52600190970154808516845291820484168389015295810483169782019790975291909504851692810192909252918201528051519293509184821691161015611275576112756144b4565b82816000015160200181815161128b91906144ca565b6001600160401b0316905250805180518491906112a99083906144f5565b6001600160401b0390811690915282516000858152600460209081526040918290208351815492850151938501516060909501511515600160c01b0260ff60c01b19958716600160801b029590951668ffffffffffffffffff60801b19948716600160401b026001600160801b03199094169190961617919091179190911692909217179055506110e787876135db565b5050505050565b6000806113536402540be40084614492565b905082611365826402540be40061451d565b1115610aa557610aa56144b4565b61137b6136f9565b610a58600061375a565b61138d610890565b610a586000805460ff19166001179055565b7f00000000000000000000000000000000000000000000000000000000000000006001600160a01b0316634635229b6040518163ffffffff1660e01b8152600401602060405180830381865afa1580156113fd573d6000803e3d6000fd5b505050506040513d601f19601f820116820180604052508101906114219190614400565b6114675760405162461bcd60e51b81526020600482015260176024820152764d75737420626520696e204d6f64652054657374696e6760481b6044820152606401610a4f565b6110eb848484846129ae565b61147b612aaf565b600061148682611341565b90506001600160401b0381161561133a57604051635768bbb560e01b81526000906001600160a01b037f00000000000000000000000000000000000000000000000000000000000000001690635768bbb5906114e89089908990600401614422565b6020604051808303816000875af1158015611507573d6000803e3d6000fd5b505050506040513d601f19601f8201168201806040525081019061152b9190614439565b600081815260046020908152604091829020825160c08101845281546001600160401b03808216838701908152600160401b8084048316606080870191909152600160801b808604851660808089019190915260ff600160c01b9788900416151560a089015293875289519384018a526001909701548085168452918204841683890152958104831682890152929092041692810192909252918201528051909101805192935090918491906112a99083906144ca565b6000610aa565ffffffffffff831664174876e80061451d565b60006116096106eb83611341565b90508061161a57610aa56001611d5d565b919050565b6000805460ff16806116385750600054610100900460ff165b905090565b611645612aaf565b600061165082611341565b90506001600160401b0381161561133a57604051635768bbb560e01b81526000906001600160a01b037f00000000000000000000000000000000000000000000000000000000000000001690635768bbb5906116b29089908990600401614422565b6020604051808303816000875af11580156116d1573d6000803e3d6000fd5b505050506040513d601f19601f820116820180604052508101906116f59190614439565b600081815260046020908152604091829020825160c08101845281546001600160401b03808216838701908152600160401b8084048316606080870191909152600160801b808604851660808089019190915260ff600160c01b9788900416151560a089015293875289519384018a5260019097015480851684529182048416838901908152968204841698830198909852929092041694810194909452918201929092528151929350918491906117ae9083906144f5565b6001600160401b0390811690915260208084015160008681526004835260409081902082516001909101805494840151928401516060909401518616600160c01b026001600160c01b03948716600160801b02949094166001600160801b03938716600160401b026001600160801b03199096169290961691909117939093171692909217919091179055506110e787876135db565b61184c612aaf565b600061185782611341565b90506001600160401b0381161561133a57604051635768bbb560e01b81526000906001600160a01b037f00000000000000000000000000000000000000000000000000000000000000001690635768bbb5906118b99089908990600401614422565b6020604051808303816000875af11580156118d8573d6000803e3d6000fd5b505050506040513d601f19601f820116820180604052508101906118fc9190614439565b600081815260046020908152604091829020825160c08101845281546001600160401b03808216838701908152600160401b8084048316606080870191909152600160801b808604851660808089019190915260ff600160c01b9788900416151560a089015293875289519384018a526001909701548085168452918204841683890152958104831697820197909752919095049094169184019190915280820192909252815101805192935090918491906119b99083906144f5565b6001600160401b0316905250805180518491906112a99083906144ca565b6119df612aaf565b60006119ea82611341565b90506001600160401b0381161561133a57604051635768bbb560e01b81526000906001600160a01b037f00000000000000000000000000000000000000000000000000000000000000001690635768bbb590611a4c9089908990600401614422565b6020604051808303816000875af1158015611a6b573d6000803e3d6000fd5b505050506040513d601f19601f82011682018060405250810190611a8f9190614439565b600081815260046020908152604091829020825160c08101845281546001600160401b03808216838701908152600160401b8084048316606080870191909152600160801b808604851660808089019190915260ff600160c01b9788900416151560a089015293875289519384018a5260019097015480851684529182048416838901529581048316978201979097529190950490941691840191825291820192909252815192935091849190611b479083906144ca565b6001600160401b0390811690915260208301515116159050611bf35760208101516040810151606090910151600091611b7f916144f5565b9050806001600160401b03168260200151600001516001600160401b03161015611bab57506020810151515b808260200151600001818151611bc191906144f5565b6001600160401b031690525060208201516040018051829190611be59083906144ca565b6001600160401b0316905250505b60208082015160008481526004835260409081902082516001909101805494840151928401516060909401516001600160401b03908116600160c01b026001600160c01b03958216600160801b02959095166001600160801b03948216600160401b026001600160801b031990971691909316179490941791909116171790556110e787876135db565b6000611c8c6106eb8484612401565b9392505050565b610d6f8383335b846137b5565b604051631537f30b60e31b815260048101829052600090610aa5906001600160a01b037f0000000000000000000000000000000000000000000000000000000000000000169063a9bf985890602401602060405180830381865afa158015611d0c573d6000803e3d6000fd5b505050506040513d601f19601f8201168201806040525081019061055b9190614439565b6001600160a01b03821615611d4b57611d4b82600033610d55565b3415610a7057610a7060008033610d69565b6000610aa56001600160401b0383166402540be40061451d565b610a7082600033611c9a565b611d8b612aaf565b6000611d9682611341565b90506001600160401b0381161561133a57604051635768bbb560e01b81526000906001600160a01b037f00000000000000000000000000000000000000000000000000000000000000001690635768bbb590611df89089908990600401614422565b6020604051808303816000875af1158015611e17573d6000803e3d6000fd5b505050506040513d601f19601f82011682018060405250810190611e3b9190614439565b600081815260046020908152604091829020825160c08101845281546001600160401b03808216838701908152600160401b8084048316606080870191909152600160801b808604851660808089019190915260ff600160c01b9788900416151560a089015293875289519384018a5260019097015480851684529182048416838901529581048316978201979097529190950490941691840191825291820192909252815192935091849190611ef39083906144f5565b6001600160401b0390811690915260208301516060810151604090910151908216911611159050611bf35760208101516060810151604090910151600091611f3a916144f5565b9050808260200151600001818151611f5291906144ca565b6001600160401b031690525060208201516040018051829190611be59083906144f5565b611f7e6136f9565b610a586000805461ff001916610100179055565b6000610aa563ffffffff831664e8d4a5100061451d565b7f00000000000000000000000000000000000000000000000000000000000000006001600160a01b0316634635229b6040518163ffffffff1660e01b8152600401602060405180830381865afa158015612007573d6000803e3d6000fd5b505050506040513d601f19601f8201168201806040525081019061202b9190614400565b6120715760405162461bcd60e51b81526020600482015260176024820152764d75737420626520696e204d6f64652054657374696e6760481b6044820152606401610a4f565b610d6f83600084846129ae565b610d6f83600084846137b5565b612093612aaf565b600061209e82611341565b90506001600160401b0381161561133a57604051635768bbb560e01b81526000906001600160a01b037f00000000000000000000000000000000000000000000000000000000000000001690635768bbb5906121009089908990600401614422565b6020604051808303816000875af115801561211f573d6000803e3d6000fd5b505050506040513d601f19601f820116820180604052508101906121439190614439565b600081815260046020908152604091829020825160c08101845281546001600160401b03808216838701908152600160401b8084048316606080870191909152600160801b808604851660808089019190915260ff600160c01b9788900416151560a089015293875289519384018a526001909701548085168452918204841683890152958104831682890152929092041692810192909252918201528051909101805192935090918491906112a99083906144f5565b6110eb848484846137b5565b61220e612aaf565b600061221982611341565b90506001600160401b0381161561133a57604051635768bbb560e01b81526000906001600160a01b037f00000000000000000000000000000000000000000000000000000000000000001690635768bbb59061227b9089908990600401614422565b6020604051808303816000875af115801561229a573d6000803e3d6000fd5b505050506040513d601f19601f820116820180604052508101906122be9190614439565b600081815260046020908152604091829020825160c08101845281546001600160401b03808216838701908152600160401b8084048316606080870191909152600160801b808604851660808089019190915260ff600160c01b9788900416151560a089015293875289519384018a5260019097015480851684529182048416838901908152968204841698830198909852929092041694810194909452918201929092528151929350918491906117ae9083906144ca565b61237f6136f9565b6001600160a01b0381166123e45760405162461bcd60e51b815260206004820152602660248201527f4f776e61626c653a206e6577206f776e657220697320746865207a65726f206160448201526564647265737360d01b6064820152608401610a4f565b6123ed8161375a565b50565b6000610aa564174876e80083614492565b6000806004600073__$669c6e0eba2465bd6779ea6ec5db3af1b5$__631eb650e787876040518363ffffffff1660e01b8152600401612441929190614422565b602060405180830381865af415801561245e573d6000803e3d6000fd5b505050506040513d601f19601f820116820180604052508101906124829190614439565b81526020808201929092526040908101600020815160c08101835281546001600160401b03808216838601908152600160401b8084048316606080870191909152600160801b808604851660808089019190915260ff600160c01b978890048116151560a08a015294885289519081018a5260019098015480861689529283048516888b015282048416978701979097529290920416938301939093529283015260035491925016156125385751519050610aa5565b612542848461280b565b81515161254f91906144ca565b949350505050565b6000806004600073__$669c6e0eba2465bd6779ea6ec5db3af1b5$__631eb650e787876040518363ffffffff1660e01b8152600401612597929190614422565b602060405180830381865af41580156125b4573d6000803e3d6000fd5b505050506040513d601f19601f820116820180604052508101906125d89190614439565b815260208082019290925260409081016000908120825160c08101845281546001600160401b03808216838701908152600160401b8084048316606080870191909152600160801b808604851660808089019190915260ff600160c01b9788900416151560a089015293875289519384018a5260019097015480851684529182048416838b015295810483169782019790975291909504909416918401919091529283019190915290915061268d85856126d8565b6001600160401b031611806126b65750805180516040909101516001600160401b039182169116115b156126c5576000915050610aa5565b80516040810151905161254f91906144f5565b6000806004600073__$669c6e0eba2465bd6779ea6ec5db3af1b5$__631eb650e787876040518363ffffffff1660e01b8152600401612718929190614422565b602060405180830381865af4158015612735573d6000803e3d6000fd5b505050506040513d601f19601f820116820180604052508101906127599190614439565b81526020808201929092526040908101600020815160c08101835281546001600160401b03808216838601908152600160401b8084048316606080870191909152600160801b808604851660808089019190915260ff600160c01b9788900416151560a08901529387528851938401895260019097015480851684529182048416838a015295810483169682019687529290920416928101929092529283018190529051905191925061254f916144ca565b60035460009060ff161561282157506000610aa5565b60006004600073__$669c6e0eba2465bd6779ea6ec5db3af1b5$__631eb650e787876040518363ffffffff1660e01b8152600401612860929190614422565b602060405180830381865af415801561287d573d6000803e3d6000fd5b505050506040513d601f19601f820116820180604052508101906128a19190614439565b81526020808201929092526040908101600020815160c08101835281546001600160401b03808216838601908152600160401b8084048316606080870191909152600160801b808604851660808089019190915260ff600160c01b9788900416151560a08901529387528851938401895260019097015480851684529182048416838a0190815296820484169783019790975292909204169381019384529381019390935290519051919250612956916144ca565b6001600160401b031661296985856126d8565b6001600160401b03161115612982576000915050610aa5565b61298c84846126d8565b60208083015160608101519101516129a491906144ca565b61254f91906144f5565b6001600160a01b0384161515806129c3575082155b612a0a5760405162461bcd60e51b8152602060048201526018602482015277043757272656e637920697320616464726573732830292c360441b6044820152606401610a4f565b60405163509ff69b60e01b81526001600160a01b038581166004830152602482018590526000917f00000000000000000000000000000000000000000000000000000000000000009091169063509ff69b906044016020604051808303816000875af1158015612a7e573d6000803e3d6000fd5b505050506040513d601f19601f82011682018060405250810190612aa29190614439565b905061133a8184846138b6565b6000546001600160a01b036201000090910416331480612b6257506001600160a01b037f0000000000000000000000000000000000000000000000000000000000000000166316279055336040516001600160e01b031960e084901b1681526001600160a01b039091166004820152602401602060405180830381865afa158015612b3e573d6000803e3d6000fd5b505050506040513d601f19601f82011682018060405250810190612b629190614400565b610a585760405162461bcd60e51b815260206004820152602d60248201527f416c6c6f77616e63653a2063616c6c6572206d757374206265205265706f736960448201526c1d1bdc9e4810dbdb9d1c9858dd609a1b6064820152608401610a4f565b6000612bcf82611341565b90506001600160401b038116156110eb57604051635768bbb560e01b81526000906001600160a01b037f00000000000000000000000000000000000000000000000000000000000000001690635768bbb590612c319088908890600401614422565b6020604051808303816000875af1158015612c50573d6000803e3d6000fd5b505050506040513d601f19601f82011682018060405250810190612c749190614439565b600081815260046020908152604091829020825160c08101845281546001600160401b03808216838701908152600160401b8084048316606080870191909152600160801b808604851660808089019190915260ff600160c01b978890048116151560a08a01529488528a519081018b5260019098015480861689529283048516888a01528204841698870198909852929092041694830194909452918201526003549293509116158015612d515750826001600160401b0316612d38878761280b565b825151612d4591906144ca565b6001600160401b031610155b80612d77575060035460ff168015612d7757508051516001600160401b03808516911610155b612dd25760405162461bcd60e51b815260206004820152602660248201527f4e6f7420656e6f756768742062616c616e63654f662f63726564697420616c6c6044820152656f77616e636560d01b6064820152608401610a4f565b8051516000906001600160401b039081169085161115612e7157815151600090612dfc90866144f5565b90506000836020015160400151846020015160600151612e1c91906144f5565b9050806001600160401b0316826001600160401b03161115612e3c578091505b818460200151604001818151612e5291906144ca565b6001600160401b0316905250612e6882876144f5565b95506001925050505b8151516000906001600160401b039081169086161115612f0b57825151600090612e9b90876144f5565b6020808601518051910151919250600091612eb691906144f5565b9050806001600160401b0316826001600160401b03161115612ed6578091505b818560200151600001818151612eec91906144ca565b6001600160401b0316905250612f0282886144f5565b96506001925050505b60006001600160401b03861615612f3f5783518051879190612f2e9083906144f5565b6001600160401b0316905250600190505b8180612f485750825b8015612f52575080155b15612fdc5760208085015160008781526004835260409081902082516001909101805494840151928401516060909401516001600160401b03908116600160c01b026001600160c01b03958216600160801b02959095166001600160801b03948216600160401b026001600160801b03199097169190931617949094179190911617179055613148565b81158015612fe8575082155b8015612ff15750805b1561307b5783516000868152600460209081526040918290208351815492850151938501516060909501511515600160c01b0260ff60c01b196001600160401b03968716600160801b021668ffffffffffffffffff60801b19958716600160401b026001600160801b03199095169690921695909517929092179290921617919091179055613148565b60008581526004602090815260409182902086518051825482850151838701516060948501516001600160401b039485166001600160801b031994851617600160401b93861684021768ffffffffffffffffff60801b1916600160801b928616830260ff60c01b191617600160c01b91151582021787558c880151805160019098018054998201519a82015191909701519786169890941697909717978416909102969096176001600160801b03169082169095026001600160c01b031694909417919093169091021790555b61315289896135db565b505050505050505050565b600061316882611341565b90506001600160401b038116156110eb57604051635768bbb560e01b81526000906001600160a01b037f00000000000000000000000000000000000000000000000000000000000000001690635768bbb5906131ca9088908890600401614422565b6020604051808303816000875af11580156131e9573d6000803e3d6000fd5b505050506040513d601f19601f8201168201806040525081019061320d9190614439565b6000818152600460209081526040808320815160c08101835281546001600160401b03808216838601908152600160401b8084048316606080870191909152600160801b808604851660808089019190915260ff600160c01b9788900416151560a08901529387528851938401895260019097015480851684529182048416838a015295810483169682019690965291909404841692810192909252928301819052519394509092161561337f576020820151516001600160401b0380861691161061332b578382602001516000018181516132e991906144f5565b6001600160401b03169052506132fe84611d5d565b6000888152600260205260408120805490919061331c90849061453c565b909155506000945061337b9050565b60208201515161333b90856144f5565b935061334e826020015160000151611d5d565b6000888152600260205260408120805490919061336c90849061453c565b90915550506020820151600090525b5060015b6020820151604001516000906001600160401b03161561346d57846001600160401b03168360200151604001516001600160401b031610613412578483602001516040018181516133d091906144f5565b6001600160401b03169052506133e585611d5d565b6000898152600260205260408120805490919061340390849061453c565b90915550600095506134699050565b60208301516040015161342590866144f5565b9450613438836020015160400151611d5d565b6000898152600260205260408120805490919061345690849061453c565b9091555050602083015160006040909101525b5060015b60006001600160401b038616156134a157835180518791906134909083906144ca565b6001600160401b0316905250600190505b82806134aa5750815b80156134b4575080155b1561353e5760208085015160008781526004835260409081902082516001909101805494840151928401516060909401516001600160401b03908116600160c01b026001600160c01b03958216600160801b02959095166001600160801b03948216600160401b026001600160801b03199097169190931617949094179190911617179055613148565b82158015612fe8575081158015612ff15750801561307b5783516000868152600460209081526040918290208351815492850151938501516060909501511515600160c01b0260ff60c01b196001600160401b03968716600160801b021668ffffffffffffffffff60801b19958716600160401b026001600160801b03199095169690921695909517929092179290921617919091179055613148565b6000807f00000000000000000000000000000000000000000000000000000000000000006001600160a01b03167f2737b530ab33d91025e8bd75ac76d6f8c285330aacc740150191541ae845c5a8858560405160240161363c929190614422565b60408051601f198184030181529181526020820180516001600160e01b03166001600160e01b031990941693909317909252905161367a9190614553565b6000604051808303816000865af19150503d80600081146136b7576040519150601f19603f3d011682016040523d82523d6000602084013e6136bc565b606091505b5091509150816110eb5760405162461bcd60e51b815260206004820152600860248201526717d8da185b99d95960c21b6044820152606401610a4f565b6000546001600160a01b0362010000909104163314610a585760405162461bcd60e51b815260206004820152601f60248201527f416c6c6f77616e63653a2063616c6c6572206d757374206265204f776e6572006044820152606401610a4f565b600080546001600160a01b038381166201000081810262010000600160b01b0319851617855560405193049190911692909183917f8be0079c531659141344cd1fd0a4f28419497f9722a3daafe3b4186f6b6457e091a35050565b6001600160a01b0384161515806137ca575082155b6138115760405162461bcd60e51b8152602060048201526018602482015277043757272656e637920697320616464726573732830292c360441b6044820152606401610a4f565b60405163509ff69b60e01b81526001600160a01b038581166004830152602482018590526000917f00000000000000000000000000000000000000000000000000000000000000009091169063509ff69b906044016020604051808303816000875af1158015613885573d6000803e3d6000fd5b505050506040513d601f19601f820116820180604052508101906138a99190614439565b905061133a818484613e1e565b60006138c182611341565b90506001600160401b0381166138d75750505050565b6138df61161f565b156138fc5760405162461bcd60e51b8152600401610a4f90614452565b60405163c33470d360e01b81526004810185905263285116a160e21b60248201527f00000000000000000000000000000000000000000000000000000000000000006001600160a01b03169063c33470d390604401602060405180830381865afa15801561396e573d6000803e3d6000fd5b505050506040513d601f19601f820116820180604052508101906139929190614400565b15613ac357604051630c25e48360e11b8152600481018590527f00000000000000000000000000000000000000000000000000000000000000006001600160a01b03169063184bc90690602401602060405180830381865afa1580156139fc573d6000803e3d6000fd5b505050506040513d601f19601f82011682018060405250810190613a20919061458e565b6001600160a01b031663a0bb93236040518163ffffffff1660e01b8152600401602060405180830381865afa158015613a5d573d6000803e3d6000fd5b505050506040513d601f19601f82011682018060405250810190613a819190614400565b613ac35760405162461bcd60e51b8152602060048201526013602482015272546f6b656e206e6f742062616e6b6561626c6560681b6044820152606401610a4f565b7f00000000000000000000000000000000000000000000000000000000000000006001600160a01b0316634635229b6040518163ffffffff1660e01b8152600401602060405180830381865afa158015613b21573d6000803e3d6000fd5b505050506040513d601f19601f82011682018060405250810190613b459190614400565b613d945760405163a663d4f560e01b815260048101859052600160248201527f00000000000000000000000000000000000000000000000000000000000000006001600160a01b03169063a663d4f590604401602060405180830381865afa158015613bb5573d6000803e3d6000fd5b505050506040513d601f19601f82011682018060405250810190613bd99190614400565b15613be357613d94565b60405163a663d4f560e01b815260048101859052600260248201527f00000000000000000000000000000000000000000000000000000000000000006001600160a01b03169063a663d4f590604401602060405180830381865afa158015613c4f573d6000803e3d6000fd5b505050506040513d601f19601f82011682018060405250810190613c739190614400565b15613d9457604051630c25e48360e11b8152600481018590527f00000000000000000000000000000000000000000000000000000000000000006001600160a01b03169063184bc90690602401602060405180830381865afa158015613cdd573d6000803e3d6000fd5b505050506040513d601f19601f82011682018060405250810190613d01919061458e565b6001600160a01b03166323b872dd8430613d1a85611d5d565b6040516001600160e01b031960e086901b1681526001600160a01b03938416600482015292909116602483015260448201526064016020604051808303816000875af1158015613d6e573d6000803e3d6000fd5b505050506040513d601f19601f82011682018060405250810190613d929190614400565b505b6040516316f4b92960e21b815273__$f71e59c5327218924d154e230469c101bd$__90635bd2e4a490613dce906001908790600401614422565b602060405180830381865af4158015613deb573d6000803e3d6000fd5b505050506040513d601f19601f82011682018060405250810190613e0f9190614400565b506110eb848461100584611d5d565b6000613e2982611341565b90506001600160401b038116613e3f5750505050565b613e4761161f565b15613e645760405162461bcd60e51b8152600401610a4f90614452565b806001600160401b0316613e788585612557565b6001600160401b03161015613e8c57600080fd5b7f00000000000000000000000000000000000000000000000000000000000000006001600160a01b0316634635229b6040518163ffffffff1660e01b8152600401602060405180830381865afa158015613eea573d6000803e3d6000fd5b505050506040513d601f19601f82011682018060405250810190613f0e9190614400565b61418a5760405163a663d4f560e01b815260048101859052600160248201527f00000000000000000000000000000000000000000000000000000000000000006001600160a01b03169063a663d4f590604401602060405180830381865afa158015613f7e573d6000803e3d6000fd5b505050506040513d601f19601f82011682018060405250810190613fa29190614400565b15613fe3576040516001600160a01b0384169083156108fc029084906000818181858888f19350505050158015613fdd573d6000803e3d6000fd5b5061418a565b60405163a663d4f560e01b815260048101859052600260248201527f00000000000000000000000000000000000000000000000000000000000000006001600160a01b03169063a663d4f590604401602060405180830381865afa15801561404f573d6000803e3d6000fd5b505050506040513d601f19601f820116820180604052508101906140739190614400565b1561418a57604051630c25e48360e11b8152600481018590527f00000000000000000000000000000000000000000000000000000000000000006001600160a01b03169063184bc90690602401602060405180830381865afa1580156140dd573d6000803e3d6000fd5b505050506040513d601f19601f82011682018060405250810190614101919061458e565b6001600160a01b031663a9059cbb8461411984611d5d565b6040516001600160e01b031960e085901b1681526001600160a01b03909216600483015260248201526044016020604051808303816000875af1158015614164573d6000803e3d6000fd5b505050506040513d601f19601f820116820180604052508101906141889190614400565b505b6110eb8484610ff284611d5d565b600080858511156141a857600080fd5b838611156141b557600080fd5b5050820193919092039150565b6000602082840312156141d457600080fd5b81356001600160e01b031981168114611c8c57600080fd5b6001600160a01b03811681146123ed57600080fd5b6000806040838503121561421457600080fd5b823591506020830135614226816141ec565b809150509250929050565b60008060006060848603121561424657600080fd5b8335614251816141ec565b95602085013595506040909401359392505050565b6000806000806080858703121561427c57600080fd5b84359350602085013561428e816141ec565b9250604085013561429e816141ec565b9396929550929360600135925050565b6000602082840312156142c057600080fd5b5035919050565b6000602082840312156142d957600080fd5b8135611c8c816141ec565b600080600080608085870312156142fa57600080fd5b8435614305816141ec565b935060208501359250604085013561429e816141ec565b60006020828403121561432e57600080fd5b813565ffffffffffff81168114611c8c57600080fd5b6000806040838503121561435757600080fd5b8235614362816141ec565b946020939093013593505050565b60006020828403121561438257600080fd5b81356001600160401b0381168114611c8c57600080fd5b6000602082840312156143ab57600080fd5b813563ffffffff81168114611c8c57600080fd5b6000806000606084860312156143d457600080fd5b83356143df816141ec565b925060208401356143ef816141ec565b929592945050506040919091013590565b60006020828403121561441257600080fd5b81518015158114611c8c57600080fd5b9182526001600160a01b0316602082015260400190565b60006020828403121561444b57600080fd5b5051919050565b60208082526010908201526f10dbdb9d1c9858dd081cdd1bdc1c195960821b604082015260600190565b634e487b7160e01b600052601160045260246000fd5b6000826144af57634e487b7160e01b600052601260045260246000fd5b500490565b634e487b7160e01b600052600160045260246000fd5b60006001600160401b038083168185168083038211156144ec576144ec61447c565b01949350505050565b60006001600160401b03838116908316818110156145155761451561447c565b039392505050565b60008160001904831182151516156145375761453761447c565b500290565b60008282101561454e5761454e61447c565b500390565b6000825160005b81811015614574576020818601810151858301520161455a565b81811115614583576000828501525b509190910192915050565b6000602082840312156145a057600080fd5b8151611c8c816141ec56fea264697066735822122053d8ab5d3575fb1d3e4cb067ea39c1d8e19f0c18a82d003e30cc3806123a5ea164736f6c634300080b0033","language":"Solidity","natspec":{"kind":"dev","methods":{"ownerOf()":{"details":"Returns the address of the current owner."},"renounceOwnership()":{"details":"Leaves the contract without owner. It will not be possible to call `onlyOwner` functions anymore. Can only be called by the current owner. NOTE: Renouncing ownership will leave the contract without an owner, thereby removing any functionality that is only available to the owner."},"supportsInterface(bytes4)":{"details":"Returns true if this contract implements the interface defined by `interfaceId`. See the corresponding https://eips.ethereum.org/EIPS/eip-165#how-interfaces-are-identified[EIP section] to learn more about how these ids are created. This function call must use less than 30 000 gas."},"transferOwnership(address)":{"details":"Transfers ownership of the contract to a new account (`newOwner`). Can only be called by the current owner."}},"version":1},"opcodes":"PUSH1 0x80 PUSH1 0x40 MSTORE PUSH1 0x4 CALLDATASIZE LT PUSH2 0x230 JUMPI PUSH1 0x0 CALLDATALOAD PUSH1 0xE0 SHR DUP1 PUSH4 0x97962076 GT PUSH2 0x12E JUMPI DUP1 PUSH4 0xD2919113 GT PUSH2 0xAB JUMPI DUP1 PUSH4 0xF0174FE5 GT PUSH2 0x6F JUMPI DUP1 PUSH4 0xF0174FE5 EQ PUSH2 0x7D9 JUMPI DUP1 PUSH4 0xF28E5A25 EQ PUSH2 0x7F9 JUMPI DUP1 PUSH4 0xF29CC2E5 EQ PUSH2 0x819 JUMPI DUP1 PUSH4 0xF2FDE38B EQ PUSH2 0x839 JUMPI DUP1 PUSH4 0xFEAB4454 EQ PUSH2 0x859 JUMPI PUSH2 0x230 JUMP JUMPDEST DUP1 PUSH4 0xD2919113 EQ PUSH2 0x744 JUMPI DUP1 PUSH4 0xD6935858 EQ PUSH2 0x764 JUMPI DUP1 PUSH4 0xE4B16144 EQ PUSH2 0x779 JUMPI DUP1 PUSH4 0xE7C25012 EQ PUSH2 0x799 JUMPI DUP1 PUSH4 0xE8211A30 EQ PUSH2 0x7B9 JUMPI PUSH2 0x230 JUMP JUMPDEST DUP1 PUSH4 0xADC9772E GT PUSH2 0xF2 JUMPI DUP1 PUSH4 0xADC9772E EQ PUSH2 0x68A JUMPI DUP1 PUSH4 0xAF640D0F EQ PUSH2 0x69D JUMPI DUP1 PUSH4 0xB03FD40D EQ PUSH2 0x6D0 JUMPI DUP1 PUSH4 0xC2A672E0 EQ PUSH2 0x6F0 JUMPI DUP1 PUSH4 0xCCC07959 EQ PUSH2 0x710 JUMPI PUSH2 0x230 JUMP JUMPDEST DUP1 PUSH4 0x97962076 EQ PUSH2 0x5ED JUMPI DUP1 PUSH4 0x98528BAF EQ PUSH2 0x60A JUMPI DUP1 PUSH4 0x9CD1E41E EQ PUSH2 0x62A JUMPI DUP1 PUSH4 0xA2BC66BE EQ PUSH2 0x64A JUMPI DUP1 PUSH4 0xA9BF9858 EQ PUSH2 0x66A JUMPI PUSH2 0x230 JUMP JUMPDEST DUP1 PUSH4 0x715018A6 GT PUSH2 0x1BC JUMPI DUP1 PUSH4 0x807B7B44 GT PUSH2 0x180 JUMPI DUP1 PUSH4 0x807B7B44 EQ PUSH2 0x540 JUMPI DUP1 PUSH4 0x854BA99D EQ PUSH2 0x560 JUMPI DUP1 PUSH4 0x8DA5CB5B EQ PUSH2 0x575 JUMPI DUP1 PUSH4 0x92F5B253 EQ PUSH2 0x5AD JUMPI DUP1 PUSH4 0x954C62BC EQ PUSH2 0x5CD JUMPI PUSH2 0x230 JUMP JUMPDEST DUP1 PUSH4 0x715018A6 EQ PUSH2 0x4A8 JUMPI DUP1 PUSH4 0x72EA61BF EQ PUSH2 0x4BD JUMPI DUP1 PUSH4 0x78D75276 EQ PUSH2 0x4D2 JUMPI DUP1 PUSH4 0x7A5C0E9A EQ PUSH2 0x4F2 JUMPI DUP1 PUSH4 0x7AF6649A EQ PUSH2 0x512 JUMPI PUSH2 0x230 JUMP JUMPDEST DUP1 PUSH4 0x1C9619A7 GT PUSH2 0x203 JUMPI DUP1 PUSH4 0x1C9619A7 EQ PUSH2 0x3C6 JUMPI DUP1 PUSH4 0x2203616D EQ PUSH2 0x3E6 JUMPI DUP1 PUSH4 0x2F54BF6E EQ PUSH2 0x41B JUMPI DUP1 PUSH4 0x56A1FD3A EQ PUSH2 0x450 JUMPI DUP1 PUSH4 0x62965141 EQ PUSH2 0x470 JUMPI PUSH2 0x230 JUMP JUMPDEST DUP1 PUSH4 0x1FFC9A7 EQ PUSH2 0x2C2 JUMPI DUP1 PUSH4 0x5D6BD9C EQ PUSH2 0x2F7 JUMPI DUP1 PUSH4 0x867A4F3 EQ PUSH2 0x30E JUMPI DUP1 PUSH4 0xC51B88F EQ PUSH2 0x3B3 JUMPI JUMPDEST CALLVALUE DUP1 ISZERO PUSH2 0x23C JUMPI PUSH1 0x0 DUP1 REVERT JUMPDEST POP PUSH2 0x245 PUSH2 0x890 JUMP JUMPDEST PUSH1 0x0 PUSH2 0x255 PUSH1 0x24 PUSH1 0x4 CALLDATASIZE DUP5 PUSH2 0x4198 JUMP JUMPDEST DUP1 DUP1 PUSH1 0x1F ADD PUSH1 0x20 DUP1 SWAP2 DIV MUL PUSH1 0x20 ADD PUSH1 0x40 MLOAD SWAP1 DUP2 ADD PUSH1 0x40 MSTORE DUP1 SWAP4 SWAP3 SWAP2 SWAP1 DUP2 DUP2 MSTORE PUSH1 0x20 ADD DUP4 DUP4 DUP1 DUP3 DUP5 CALLDATACOPY PUSH1 0x0 SWAP3 ADD DUP3 SWAP1 MSTORE POP PUSH1 0x20 DUP6 ADD MLOAD SWAP5 SWAP6 POP SWAP3 POP POP CALLDATASIZE PUSH1 0x23 NOT DUP2 ADD SWAP2 POP PUSH1 0x1F NOT ADD PUSH1 0x4 DUP4 DUP1 CALLDATACOPY DUP2 PUSH1 0x24 PUSH1 0x4 CALLDATACOPY PUSH1 0x0 DUP1 DUP3 PUSH1 0x0 DUP8 GAS DELEGATECALL SWAP3 POP POP POP PUSH2 0x2BD DUP2 PUSH2 0xA5A JUMP JUMPDEST POP POP POP STOP JUMPDEST CALLVALUE DUP1 ISZERO PUSH2 0x2CE JUMPI PUSH1 0x0 DUP1 REVERT JUMPDEST POP PUSH2 0x2E2 PUSH2 0x2DD CALLDATASIZE PUSH1 0x4 PUSH2 0x41C2 JUMP JUMPDEST PUSH2 0xA74 JUMP JUMPDEST PUSH1 0x40 MLOAD SWAP1 ISZERO ISZERO DUP2 MSTORE PUSH1 0x20 ADD JUMPDEST PUSH1 0x40 MLOAD DUP1 SWAP2 SUB SWAP1 RETURN JUMPDEST CALLVALUE DUP1 ISZERO PUSH2 0x303 JUMPI PUSH1 0x0 DUP1 REVERT JUMPDEST POP PUSH2 0x30C PUSH2 0xAAB JUMP JUMPDEST STOP JUMPDEST CALLVALUE DUP1 ISZERO PUSH2 0x31A JUMPI PUSH1 0x0 DUP1 REVERT JUMPDEST POP PUSH2 0x32E PUSH2 0x329 CALLDATASIZE PUSH1 0x4 PUSH2 0x4201 JUMP JUMPDEST PUSH2 0xAC2 JUMP JUMPDEST PUSH1 0x40 MLOAD PUSH2 0x2EE SWAP2 SWAP1 PUSH1 0x0 PUSH2 0x160 DUP3 ADD SWAP1 POP DUP3 MLOAD DUP3 MSTORE PUSH1 0x20 DUP4 ADD MLOAD PUSH1 0x20 DUP4 ADD MSTORE PUSH1 0x40 DUP4 ADD MLOAD PUSH1 0x40 DUP4 ADD MSTORE PUSH1 0x60 DUP4 ADD MLOAD PUSH1 0x60 DUP4 ADD MSTORE PUSH1 0x80 DUP4 ADD MLOAD PUSH1 0x80 DUP4 ADD MSTORE PUSH1 0xA0 DUP4 ADD MLOAD PUSH1 0xA0 DUP4 ADD MSTORE PUSH1 0xC0 DUP4 ADD MLOAD PUSH1 0xC0 DUP4 ADD MSTORE PUSH1 0xE0 DUP4 ADD MLOAD PUSH1 0xE0 DUP4 ADD MSTORE PUSH2 0x100 DUP1 DUP5 ADD MLOAD DUP2 DUP5 ADD MSTORE POP PUSH2 0x120 DUP1 DUP5 ADD MLOAD DUP2 DUP5 ADD MSTORE POP PUSH2 0x140 DUP1 DUP5 ADD MLOAD DUP2 DUP5 ADD MSTORE POP SWAP3 SWAP2 POP POP JUMP JUMPDEST PUSH2 0x30C PUSH2 0x3C1 CALLDATASIZE PUSH1 0x4 PUSH2 0x4231 JUMP JUMPDEST PUSH2 0xD3F JUMP JUMPDEST CALLVALUE DUP1 ISZERO PUSH2 0x3D2 JUMPI PUSH1 0x0 DUP1 REVERT JUMPDEST POP PUSH2 0x30C PUSH2 0x3E1 CALLDATASIZE PUSH1 0x4 PUSH2 0x4266 JUMP JUMPDEST PUSH2 0xD74 JUMP JUMPDEST CALLVALUE DUP1 ISZERO PUSH2 0x3F2 JUMPI PUSH1 0x0 DUP1 REVERT JUMPDEST POP PUSH2 0x406 PUSH2 0x401 CALLDATASIZE PUSH1 0x4 PUSH2 0x42AE JUMP JUMPDEST PUSH2 0x10F1 JUMP JUMPDEST PUSH1 0x40 MLOAD PUSH4 0xFFFFFFFF SWAP1 SWAP2 AND DUP2 MSTORE PUSH1 0x20 ADD PUSH2 0x2EE JUMP JUMPDEST CALLVALUE DUP1 ISZERO PUSH2 0x427 JUMPI PUSH1 0x0 DUP1 REVERT JUMPDEST POP PUSH2 0x2E2 PUSH2 0x436 CALLDATASIZE PUSH1 0x4 PUSH2 0x42C7 JUMP JUMPDEST PUSH1 0x0 SLOAD PUSH3 0x10000 SWAP1 DIV PUSH1 0x1 PUSH1 0x1 PUSH1 0xA0 SHL SUB SWAP1 DUP2 AND SWAP2 AND EQ SWAP1 JUMP JUMPDEST CALLVALUE DUP1 ISZERO PUSH2 0x45C JUMPI PUSH1 0x0 DUP1 REVERT JUMPDEST POP PUSH2 0x30C PUSH2 0x46B CALLDATASIZE PUSH1 0x4 PUSH2 0x4266 JUMP JUMPDEST PUSH2 0x1102 JUMP JUMPDEST CALLVALUE DUP1 ISZERO PUSH2 0x47C JUMPI PUSH1 0x0 DUP1 REVERT JUMPDEST POP PUSH2 0x490 PUSH2 0x48B CALLDATASIZE PUSH1 0x4 PUSH2 0x42AE JUMP JUMPDEST PUSH2 0x1341 JUMP JUMPDEST PUSH1 0x40 MLOAD PUSH1 0x1 PUSH1 0x1 PUSH1 0x40 SHL SUB SWAP1 SWAP2 AND DUP2 MSTORE PUSH1 0x20 ADD PUSH2 0x2EE JUMP JUMPDEST CALLVALUE DUP1 ISZERO PUSH2 0x4B4 JUMPI PUSH1 0x0 DUP1 REVERT JUMPDEST POP PUSH2 0x30C PUSH2 0x1373 JUMP JUMPDEST CALLVALUE DUP1 ISZERO PUSH2 0x4C9 JUMPI PUSH1 0x0 DUP1 REVERT JUMPDEST POP PUSH2 0x30C PUSH2 0x1385 JUMP JUMPDEST CALLVALUE DUP1 ISZERO PUSH2 0x4DE JUMPI PUSH1 0x0 DUP1 REVERT JUMPDEST POP PUSH2 0x30C PUSH2 0x4ED CALLDATASIZE PUSH1 0x4 PUSH2 0x42E4 JUMP JUMPDEST PUSH2 0x139F JUMP JUMPDEST CALLVALUE DUP1 ISZERO PUSH2 0x4FE JUMPI PUSH1 0x0 DUP1 REVERT JUMPDEST POP PUSH2 0x30C PUSH2 0x50D CALLDATASIZE PUSH1 0x4 PUSH2 0x4266 JUMP JUMPDEST PUSH2 0x1473 JUMP JUMPDEST CALLVALUE DUP1 ISZERO PUSH2 0x51E JUMPI PUSH1 0x0 DUP1 REVERT JUMPDEST POP PUSH2 0x532 PUSH2 0x52D CALLDATASIZE PUSH1 0x4 PUSH2 0x431C JUMP JUMPDEST PUSH2 0x15E2 JUMP JUMPDEST PUSH1 0x40 MLOAD SWAP1 DUP2 MSTORE PUSH1 0x20 ADD PUSH2 0x2EE JUMP JUMPDEST CALLVALUE DUP1 ISZERO PUSH2 0x54C JUMPI PUSH1 0x0 DUP1 REVERT JUMPDEST POP PUSH2 0x532 PUSH2 0x55B CALLDATASIZE PUSH1 0x4 PUSH2 0x42AE JUMP JUMPDEST PUSH2 0x15FB JUMP JUMPDEST CALLVALUE DUP1 ISZERO PUSH2 0x56C JUMPI PUSH1 0x0 DUP1 REVERT JUMPDEST POP PUSH2 0x2E2 PUSH2 0x161F JUMP JUMPDEST CALLVALUE DUP1 ISZERO PUSH2 0x581 JUMPI PUSH1 0x0 DUP1 REVERT JUMPDEST POP PUSH1 0x0 SLOAD PUSH3 0x10000 SWAP1 DIV PUSH1 0x1 PUSH1 0x1 PUSH1 0xA0 SHL SUB AND JUMPDEST PUSH1 0x40 MLOAD PUSH1 0x1 PUSH1 0x1 PUSH1 0xA0 SHL SUB SWAP1 SWAP2 AND DUP2 MSTORE PUSH1 0x20 ADD PUSH2 0x2EE JUMP JUMPDEST CALLVALUE DUP1 ISZERO PUSH2 0x5B9 JUMPI PUSH1 0x0 DUP1 REVERT JUMPDEST POP PUSH2 0x30C PUSH2 0x5C8 CALLDATASIZE PUSH1 0x4 PUSH2 0x4266 JUMP JUMPDEST PUSH2 0x163D JUMP JUMPDEST CALLVALUE DUP1 ISZERO PUSH2 0x5D9 JUMPI PUSH1 0x0 DUP1 REVERT JUMPDEST POP PUSH2 0x30C PUSH2 0x5E8 CALLDATASIZE PUSH1 0x4 PUSH2 0x4266 JUMP JUMPDEST PUSH2 0x1844 JUMP JUMPDEST CALLVALUE DUP1 ISZERO PUSH2 0x5F9 JUMPI PUSH1 0x0 DUP1 REVERT JUMPDEST POP PUSH1 0x0 SLOAD PUSH2 0x100 SWAP1 DIV PUSH1 0xFF AND PUSH2 0x2E2 JUMP JUMPDEST CALLVALUE DUP1 ISZERO PUSH2 0x616 JUMPI PUSH1 0x0 DUP1 REVERT JUMPDEST POP PUSH2 0x30C PUSH2 0x625 CALLDATASIZE PUSH1 0x4 PUSH2 0x4266 JUMP JUMPDEST PUSH2 0x19D7 JUMP JUMPDEST CALLVALUE DUP1 ISZERO PUSH2 0x636 JUMPI PUSH1 0x0 DUP1 REVERT JUMPDEST POP PUSH2 0x532 PUSH2 0x645 CALLDATASIZE PUSH1 0x4 PUSH2 0x4201 JUMP JUMPDEST PUSH2 0x1C7D JUMP JUMPDEST CALLVALUE DUP1 ISZERO PUSH2 0x656 JUMPI PUSH1 0x0 DUP1 REVERT JUMPDEST POP PUSH2 0x30C PUSH2 0x665 CALLDATASIZE PUSH1 0x4 PUSH2 0x4231 JUMP JUMPDEST PUSH2 0x1C93 JUMP JUMPDEST CALLVALUE DUP1 ISZERO PUSH2 0x676 JUMPI PUSH1 0x0 DUP1 REVERT JUMPDEST POP PUSH2 0x532 PUSH2 0x685 CALLDATASIZE PUSH1 0x4 PUSH2 0x42AE JUMP JUMPDEST PUSH2 0x1CA0 JUMP JUMPDEST PUSH2 0x30C PUSH2 0x698 CALLDATASIZE PUSH1 0x4 PUSH2 0x4344 JUMP JUMPDEST PUSH2 0x1D30 JUMP JUMPDEST CALLVALUE DUP1 ISZERO PUSH2 0x6A9 JUMPI PUSH1 0x0 DUP1 REVERT JUMPDEST POP PUSH32 0xCD775F2396F9F13F12BCF8CA32E21DF66559A8ADC3944D0591127E7731F7AB85 PUSH2 0x532 JUMP JUMPDEST CALLVALUE DUP1 ISZERO PUSH2 0x6DC JUMPI PUSH1 0x0 DUP1 REVERT JUMPDEST POP PUSH2 0x532 PUSH2 0x6EB CALLDATASIZE PUSH1 0x4 PUSH2 0x4370 JUMP JUMPDEST PUSH2 0x1D5D JUMP JUMPDEST CALLVALUE DUP1 ISZERO PUSH2 0x6FC JUMPI PUSH1 0x0 DUP1 REVERT JUMPDEST POP PUSH2 0x30C PUSH2 0x70B CALLDATASIZE PUSH1 0x4 PUSH2 0x4344 JUMP JUMPDEST PUSH2 0x1D77 JUMP JUMPDEST CALLVALUE DUP1 ISZERO PUSH2 0x71C JUMPI PUSH1 0x0 DUP1 REVERT JUMPDEST POP PUSH2 0x595 PUSH32 0x0 DUP2 JUMP JUMPDEST CALLVALUE DUP1 ISZERO PUSH2 0x750 JUMPI PUSH1 0x0 DUP1 REVERT JUMPDEST POP PUSH2 0x30C PUSH2 0x75F CALLDATASIZE PUSH1 0x4 PUSH2 0x4266 JUMP JUMPDEST PUSH2 0x1D83 JUMP JUMPDEST CALLVALUE DUP1 ISZERO PUSH2 0x770 JUMPI PUSH1 0x0 DUP1 REVERT JUMPDEST POP PUSH2 0x30C PUSH2 0x1F76 JUMP JUMPDEST CALLVALUE DUP1 ISZERO PUSH2 0x785 JUMPI PUSH1 0x0 DUP1 REVERT JUMPDEST POP PUSH2 0x532 PUSH2 0x794 CALLDATASIZE PUSH1 0x4 PUSH2 0x4399 JUMP JUMPDEST PUSH2 0x1F92 JUMP JUMPDEST CALLVALUE DUP1 ISZERO PUSH2 0x7A5 JUMPI PUSH1 0x0 DUP1 REVERT JUMPDEST POP PUSH2 0x30C PUSH2 0x7B4 CALLDATASIZE PUSH1 0x4 PUSH2 0x43BF JUMP JUMPDEST PUSH2 0x1FA9 JUMP JUMPDEST CALLVALUE DUP1 ISZERO PUSH2 0x7C5 JUMPI PUSH1 0x0 DUP1 REVERT JUMPDEST POP PUSH2 0x30C PUSH2 0x7D4 CALLDATASIZE PUSH1 0x4 PUSH2 0x43BF JUMP JUMPDEST PUSH2 0x207E JUMP JUMPDEST CALLVALUE DUP1 ISZERO PUSH2 0x7E5 JUMPI PUSH1 0x0 DUP1 REVERT JUMPDEST POP PUSH2 0x30C PUSH2 0x7F4 CALLDATASIZE PUSH1 0x4 PUSH2 0x4266 JUMP JUMPDEST PUSH2 0x208B JUMP JUMPDEST CALLVALUE DUP1 ISZERO PUSH2 0x805 JUMPI PUSH1 0x0 DUP1 REVERT JUMPDEST POP PUSH2 0x30C PUSH2 0x814 CALLDATASIZE PUSH1 0x4 PUSH2 0x42E4 JUMP JUMPDEST PUSH2 0x21FA JUMP JUMPDEST CALLVALUE DUP1 ISZERO PUSH2 0x825 JUMPI PUSH1 0x0 DUP1 REVERT JUMPDEST POP PUSH2 0x30C PUSH2 0x834 CALLDATASIZE PUSH1 0x4 PUSH2 0x4266 JUMP JUMPDEST PUSH2 0x2206 JUMP JUMPDEST CALLVALUE DUP1 ISZERO PUSH2 0x845 JUMPI PUSH1 0x0 DUP1 REVERT JUMPDEST POP PUSH2 0x30C PUSH2 0x854 CALLDATASIZE PUSH1 0x4 PUSH2 0x42C7 JUMP JUMPDEST PUSH2 0x2377 JUMP JUMPDEST CALLVALUE DUP1 ISZERO PUSH2 0x865 JUMPI PUSH1 0x0 DUP1 REVERT JUMPDEST POP PUSH2 0x879 PUSH2 0x874 CALLDATASIZE PUSH1 0x4 PUSH2 0x42AE JUMP JUMPDEST PUSH2 0x23F0 JUMP JUMPDEST PUSH1 0x40 MLOAD PUSH6 0xFFFFFFFFFFFF SWAP1 SWAP2 AND DUP2 MSTORE PUSH1 0x20 ADD PUSH2 0x2EE JUMP JUMPDEST PUSH1 0x0 SLOAD PUSH1 0x1 PUSH1 0x1 PUSH1 0xA0 SHL SUB PUSH3 0x10000 SWAP1 SWAP2 DIV AND CALLER EQ DUP1 PUSH2 0x943 JUMPI POP PUSH1 0x1 PUSH1 0x1 PUSH1 0xA0 SHL SUB PUSH32 0x0 AND PUSH4 0x16279055 CALLER PUSH1 0x40 MLOAD PUSH1 0x1 PUSH1 0x1 PUSH1 0xE0 SHL SUB NOT PUSH1 0xE0 DUP5 SWAP1 SHL AND DUP2 MSTORE PUSH1 0x1 PUSH1 0x1 PUSH1 0xA0 SHL SUB SWAP1 SWAP2 AND PUSH1 0x4 DUP3 ADD MSTORE PUSH1 0x24 ADD PUSH1 0x20 PUSH1 0x40 MLOAD DUP1 DUP4 SUB DUP2 DUP7 GAS STATICCALL ISZERO DUP1 ISZERO PUSH2 0x91F JUMPI RETURNDATASIZE PUSH1 0x0 DUP1 RETURNDATACOPY RETURNDATASIZE PUSH1 0x0 REVERT JUMPDEST POP POP POP POP PUSH1 0x40 MLOAD RETURNDATASIZE PUSH1 0x1F NOT PUSH1 0x1F DUP3 ADD AND DUP3 ADD DUP1 PUSH1 0x40 MSTORE POP DUP2 ADD SWAP1 PUSH2 0x943 SWAP2 SWAP1 PUSH2 0x4400 JUMP JUMPDEST DUP1 PUSH2 0x9E1 JUMPI POP PUSH1 0x1 PUSH1 0x1 PUSH1 0xA0 SHL SUB PUSH32 0x0 AND PUSH4 0x6D70F7AE CALLER PUSH1 0x40 MLOAD PUSH1 0x1 PUSH1 0x1 PUSH1 0xE0 SHL SUB NOT PUSH1 0xE0 DUP5 SWAP1 SHL AND DUP2 MSTORE PUSH1 0x1 PUSH1 0x1 PUSH1 0xA0 SHL SUB SWAP1 SWAP2 AND PUSH1 0x4 DUP3 ADD MSTORE PUSH1 0x24 ADD PUSH1 0x20 PUSH1 0x40 MLOAD DUP1 DUP4 SUB DUP2 DUP7 GAS STATICCALL ISZERO DUP1 ISZERO PUSH2 0x9BD JUMPI RETURNDATASIZE PUSH1 0x0 DUP1 RETURNDATACOPY RETURNDATASIZE PUSH1 0x0 REVERT JUMPDEST POP POP POP POP PUSH1 0x40 MLOAD RETURNDATASIZE PUSH1 0x1F NOT PUSH1 0x1F DUP3 ADD AND DUP3 ADD DUP1 PUSH1 0x40 MSTORE POP DUP2 ADD SWAP1 PUSH2 0x9E1 SWAP2 SWAP1 PUSH2 0x4400 JUMP JUMPDEST PUSH2 0xA58 JUMPI PUSH1 0x40 MLOAD PUSH3 0x461BCD PUSH1 0xE5 SHL DUP2 MSTORE PUSH1 0x20 PUSH1 0x4 DUP3 ADD MSTORE PUSH1 0x39 PUSH1 0x24 DUP3 ADD MSTORE PUSH32 0x416C6C6F77616E63653A2063616C6C6572206D757374206265205265706F7369 PUSH1 0x44 DUP3 ADD MSTORE PUSH32 0x746F727920436F6E7472616374206F72204F70657261746F7200000000000000 PUSH1 0x64 DUP3 ADD MSTORE PUSH1 0x84 ADD JUMPDEST PUSH1 0x40 MLOAD DUP1 SWAP2 SUB SWAP1 REVERT JUMPDEST JUMP JUMPDEST RETURNDATASIZE PUSH1 0x0 DUP1 RETURNDATACOPY DUP1 DUP1 ISZERO PUSH2 0xA6B JUMPI RETURNDATASIZE PUSH1 0x0 RETURN JUMPDEST RETURNDATASIZE PUSH1 0x0 REVERT JUMPDEST POP POP JUMP JUMPDEST PUSH1 0x0 PUSH1 0x1 PUSH1 0x1 PUSH1 0xE0 SHL SUB NOT DUP3 AND PUSH4 0x1FFC9A7 PUSH1 0xE0 SHL EQ DUP1 PUSH2 0xAA5 JUMPI POP PUSH1 0x1 PUSH1 0x1 PUSH1 0xE0 SHL SUB NOT DUP3 AND PUSH4 0x15D37895 PUSH1 0xE3 SHL EQ JUMPDEST SWAP3 SWAP2 POP POP JUMP JUMPDEST PUSH2 0xAB3 PUSH2 0x890 JUMP JUMPDEST PUSH2 0xA58 PUSH1 0x0 DUP1 SLOAD PUSH1 0xFF NOT AND SWAP1 SSTORE JUMP JUMPDEST PUSH2 0xB1F PUSH1 0x40 MLOAD DUP1 PUSH2 0x160 ADD PUSH1 0x40 MSTORE DUP1 PUSH1 0x0 DUP2 MSTORE PUSH1 0x20 ADD PUSH1 0x0 DUP2 MSTORE PUSH1 0x20 ADD PUSH1 0x0 DUP2 MSTORE PUSH1 0x20 ADD PUSH1 0x0 DUP2 MSTORE PUSH1 0x20 ADD PUSH1 0x0 DUP2 MSTORE PUSH1 0x20 ADD PUSH1 0x0 DUP2 MSTORE PUSH1 0x20 ADD PUSH1 0x0 DUP2 MSTORE PUSH1 0x20 ADD PUSH1 0x0 DUP2 MSTORE PUSH1 0x20 ADD PUSH1 0x0 DUP2 MSTORE PUSH1 0x20 ADD PUSH1 0x0 DUP2 MSTORE PUSH1 0x20 ADD PUSH1 0x0 DUP2 MSTORE POP SWAP1 JUMP JUMPDEST PUSH1 0x0 PUSH1 0x4 PUSH1 0x0 PUSH20 0x0 PUSH4 0x1EB650E7 DUP8 DUP8 PUSH1 0x40 MLOAD DUP4 PUSH4 0xFFFFFFFF AND PUSH1 0xE0 SHL DUP2 MSTORE PUSH1 0x4 ADD PUSH2 0xB5E SWAP3 SWAP2 SWAP1 PUSH2 0x4422 JUMP JUMPDEST PUSH1 0x20 PUSH1 0x40 MLOAD DUP1 DUP4 SUB DUP2 DUP7 GAS DELEGATECALL ISZERO DUP1 ISZERO PUSH2 0xB7B JUMPI RETURNDATASIZE PUSH1 0x0 DUP1 RETURNDATACOPY RETURNDATASIZE PUSH1 0x0 REVERT JUMPDEST POP POP POP POP PUSH1 0x40 MLOAD RETURNDATASIZE PUSH1 0x1F NOT PUSH1 0x1F DUP3 ADD AND DUP3 ADD DUP1 PUSH1 0x40 MSTORE POP DUP2 ADD SWAP1 PUSH2 0xB9F SWAP2 SWAP1 PUSH2 0x4439 JUMP JUMPDEST DUP2 MSTORE PUSH1 0x20 DUP2 ADD SWAP2 SWAP1 SWAP2 MSTORE PUSH1 0x40 ADD PUSH1 0x0 KECCAK256 DUP1 SLOAD SWAP1 SWAP2 POP PUSH1 0x1 PUSH1 0xC0 SHL SWAP1 DIV PUSH1 0xFF AND ISZERO DUP1 PUSH2 0xBD2 JUMPI POP CALLER PUSH1 0x1 PUSH1 0x1 PUSH1 0xA0 SHL SUB DUP5 AND EQ JUMPDEST PUSH2 0xC12 JUMPI PUSH1 0x40 MLOAD PUSH3 0x461BCD PUSH1 0xE5 SHL DUP2 MSTORE PUSH1 0x20 PUSH1 0x4 DUP3 ADD MSTORE PUSH1 0x11 PUSH1 0x24 DUP3 ADD MSTORE PUSH17 0x4163636F756E74206973206F7061717565 PUSH1 0x78 SHL PUSH1 0x44 DUP3 ADD MSTORE PUSH1 0x64 ADD PUSH2 0xA4F JUMP JUMPDEST DUP1 SLOAD PUSH2 0xC26 SWAP1 PUSH1 0x1 PUSH1 0x1 PUSH1 0x40 SHL SUB AND PUSH2 0x1D5D JUMP JUMPDEST DUP3 MSTORE DUP1 SLOAD PUSH2 0xC43 SWAP1 PUSH1 0x1 PUSH1 0x40 SHL SWAP1 DIV PUSH1 0x1 PUSH1 0x1 PUSH1 0x40 SHL SUB AND PUSH2 0x1D5D JUMP JUMPDEST PUSH1 0x20 DUP4 ADD MSTORE DUP1 SLOAD PUSH2 0xC63 SWAP1 PUSH1 0x1 PUSH1 0x80 SHL SWAP1 DIV PUSH1 0x1 PUSH1 0x1 PUSH1 0x40 SHL SUB AND PUSH2 0x1D5D JUMP JUMPDEST PUSH1 0x40 DUP4 ADD MSTORE PUSH1 0x1 DUP2 ADD SLOAD PUSH2 0xC7F SWAP1 PUSH1 0x1 PUSH1 0x1 PUSH1 0x40 SHL SUB AND PUSH2 0x1D5D JUMP JUMPDEST PUSH1 0x60 DUP4 ADD MSTORE PUSH1 0x1 DUP2 ADD SLOAD PUSH2 0xCA2 SWAP1 PUSH1 0x1 PUSH1 0x40 SHL SWAP1 DIV PUSH1 0x1 PUSH1 0x1 PUSH1 0x40 SHL SUB AND PUSH2 0x1D5D JUMP JUMPDEST PUSH1 0x80 DUP4 ADD MSTORE PUSH1 0x1 DUP2 ADD SLOAD PUSH2 0xCC5 SWAP1 PUSH1 0x1 PUSH1 0x80 SHL SWAP1 DIV PUSH1 0x1 PUSH1 0x1 PUSH1 0x40 SHL SUB AND PUSH2 0x1D5D JUMP JUMPDEST PUSH1 0xA0 DUP4 ADD MSTORE PUSH1 0x1 DUP2 ADD SLOAD PUSH2 0xCE8 SWAP1 PUSH1 0x1 PUSH1 0xC0 SHL SWAP1 DIV PUSH1 0x1 PUSH1 0x1 PUSH1 0x40 SHL SUB AND PUSH2 0x1D5D JUMP JUMPDEST PUSH1 0xC0 DUP4 ADD MSTORE PUSH2 0xCFA PUSH2 0x6EB DUP6 DUP6 PUSH2 0x2401 JUMP JUMPDEST PUSH1 0xE0 DUP4 ADD MSTORE PUSH2 0xD0C PUSH2 0x6EB DUP6 DUP6 PUSH2 0x2557 JUMP JUMPDEST PUSH2 0x100 DUP4 ADD MSTORE PUSH2 0xD1F PUSH2 0x6EB DUP6 DUP6 PUSH2 0x26D8 JUMP JUMPDEST PUSH2 0x120 DUP4 ADD MSTORE PUSH2 0xD32 PUSH2 0x6EB DUP6 DUP6 PUSH2 0x280B JUMP JUMPDEST PUSH2 0x140 DUP4 ADD MSTORE POP SWAP3 SWAP2 POP POP JUMP JUMPDEST PUSH1 0x1 PUSH1 0x1 PUSH1 0xA0 SHL SUB DUP4 AND ISZERO PUSH2 0xD5B JUMPI PUSH2 0xD5B DUP4 DUP4 CALLER JUMPDEST DUP5 PUSH2 0x29AE JUMP JUMPDEST CALLVALUE ISZERO PUSH2 0xD6F JUMPI PUSH2 0xD6F PUSH1 0x0 DUP1 CALLER JUMPDEST CALLVALUE PUSH2 0x29AE JUMP JUMPDEST POP POP POP JUMP JUMPDEST PUSH2 0xD7C PUSH2 0x2AAF JUMP JUMPDEST PUSH1 0x0 PUSH2 0xD87 DUP3 PUSH2 0x1341 JUMP JUMPDEST SWAP1 POP PUSH1 0x1 PUSH1 0x1 PUSH1 0x40 SHL SUB DUP2 AND PUSH2 0xD9D JUMPI POP PUSH2 0x10EB JUMP JUMPDEST PUSH2 0xDA5 PUSH2 0x161F JUMP JUMPDEST ISZERO PUSH2 0xDC2 JUMPI PUSH1 0x40 MLOAD PUSH3 0x461BCD PUSH1 0xE5 SHL DUP2 MSTORE PUSH1 0x4 ADD PUSH2 0xA4F SWAP1 PUSH2 0x4452 JUMP JUMPDEST PUSH1 0x40 MLOAD PUSH4 0x5768BBB5 PUSH1 0xE0 SHL DUP2 MSTORE PUSH1 0x0 SWAP1 PUSH1 0x1 PUSH1 0x1 PUSH1 0xA0 SHL SUB PUSH32 0x0 AND SWAP1 PUSH4 0x5768BBB5 SWAP1 PUSH2 0xE13 SWAP1 DUP10 SWAP1 DUP10 SWAP1 PUSH1 0x4 ADD PUSH2 0x4422 JUMP JUMPDEST PUSH1 0x20 PUSH1 0x40 MLOAD DUP1 DUP4 SUB DUP2 PUSH1 0x0 DUP8 GAS CALL ISZERO DUP1 ISZERO PUSH2 0xE32 JUMPI RETURNDATASIZE PUSH1 0x0 DUP1 RETURNDATACOPY RETURNDATASIZE PUSH1 0x0 REVERT JUMPDEST POP POP POP POP PUSH1 0x40 MLOAD RETURNDATASIZE PUSH1 0x1F NOT PUSH1 0x1F DUP3 ADD AND DUP3 ADD DUP1 PUSH1 0x40 MSTORE POP DUP2 ADD SWAP1 PUSH2 0xE56 SWAP2 SWAP1 PUSH2 0x4439 JUMP JUMPDEST SWAP1 POP PUSH1 0x0 PUSH32 0x0 PUSH1 0x1 PUSH1 0x1 PUSH1 0xA0 SHL SUB AND PUSH4 0x5768BBB5 DUP9 DUP8 PUSH1 0x40 MLOAD DUP4 PUSH4 0xFFFFFFFF AND PUSH1 0xE0 SHL DUP2 MSTORE PUSH1 0x4 ADD PUSH2 0xEA8 SWAP3 SWAP2 SWAP1 PUSH2 0x4422 JUMP JUMPDEST PUSH1 0x20 PUSH1 0x40 MLOAD DUP1 DUP4 SUB DUP2 PUSH1 0x0 DUP8 GAS CALL ISZERO DUP1 ISZERO PUSH2 0xEC7 JUMPI RETURNDATASIZE PUSH1 0x0 DUP1 RETURNDATACOPY RETURNDATASIZE PUSH1 0x0 REVERT JUMPDEST POP POP POP POP PUSH1 0x40 MLOAD RETURNDATASIZE PUSH1 0x1F NOT PUSH1 0x1F DUP3 ADD AND DUP3 ADD DUP1 PUSH1 0x40 MSTORE POP DUP2 ADD SWAP1 PUSH2 0xEEB SWAP2 SWAP1 PUSH2 0x4439 JUMP JUMPDEST SWAP1 POP PUSH2 0xEF7 DUP8 DUP8 PUSH2 0x2401 JUMP JUMPDEST PUSH1 0x1 PUSH1 0x1 PUSH1 0x40 SHL SUB AND DUP4 PUSH1 0x1 PUSH1 0x1 PUSH1 0x40 SHL SUB AND GT ISZERO PUSH2 0xF68 JUMPI PUSH1 0x40 MLOAD PUSH3 0x461BCD PUSH1 0xE5 SHL DUP2 MSTORE PUSH1 0x20 PUSH1 0x4 DUP3 ADD MSTORE PUSH1 0x27 PUSH1 0x24 DUP3 ADD MSTORE PUSH32 0x657263323020617661696C61626C65285F6163636F756E7466726F6D29203C20 PUSH1 0x44 DUP3 ADD MSTORE PUSH7 0x17D85B5BDD5B9D PUSH1 0xCA SHL PUSH1 0x64 DUP3 ADD MSTORE PUSH1 0x84 ADD PUSH2 0xA4F JUMP JUMPDEST PUSH1 0x40 MLOAD PUSH4 0x16F4B929 PUSH1 0xE2 SHL DUP2 MSTORE PUSH20 0x0 SWAP1 PUSH4 0x5BD2E4A4 SWAP1 PUSH2 0xFA2 SWAP1 PUSH1 0x1 SWAP1 DUP10 SWAP1 PUSH1 0x4 ADD PUSH2 0x4422 JUMP JUMPDEST PUSH1 0x20 PUSH1 0x40 MLOAD DUP1 DUP4 SUB DUP2 DUP7 GAS DELEGATECALL ISZERO DUP1 ISZERO PUSH2 0xFBF JUMPI RETURNDATASIZE PUSH1 0x0 DUP1 RETURNDATACOPY RETURNDATASIZE PUSH1 0x0 REVERT JUMPDEST POP POP POP POP PUSH1 0x40 MLOAD RETURNDATASIZE PUSH1 0x1F NOT PUSH1 0x1F DUP3 ADD AND DUP3 ADD DUP1 PUSH1 0x40 MSTORE POP DUP2 ADD SWAP1 PUSH2 0xFE3 SWAP2 SWAP1 PUSH2 0x4400 JUMP JUMPDEST POP PUSH2 0xFF7 DUP8 DUP8 PUSH2 0xFF2 DUP7 PUSH2 0x1D5D JUMP JUMPDEST PUSH2 0x2BC4 JUMP JUMPDEST PUSH2 0x100A DUP8 DUP7 PUSH2 0x1005 DUP7 PUSH2 0x1D5D JUMP JUMPDEST PUSH2 0x315D JUMP JUMPDEST PUSH1 0x0 DUP3 DUP2 MSTORE PUSH1 0x4 PUSH1 0x20 MSTORE PUSH1 0x40 SWAP1 KECCAK256 SLOAD PUSH1 0x1 PUSH1 0xC0 SHL SWAP1 DIV PUSH1 0xFF AND ISZERO DUP1 PUSH2 0x1045 JUMPI POP PUSH1 0x0 DUP2 DUP2 MSTORE PUSH1 0x4 PUSH1 0x20 MSTORE PUSH1 0x40 SWAP1 KECCAK256 SLOAD PUSH1 0x1 PUSH1 0xC0 SHL SWAP1 DIV PUSH1 0xFF AND ISZERO JUMPDEST ISZERO PUSH2 0x10E7 JUMPI PUSH1 0x0 DUP2 DUP2 MSTORE PUSH1 0x4 PUSH1 0x20 MSTORE PUSH1 0x40 SWAP1 KECCAK256 SLOAD PUSH1 0x1 PUSH1 0xC0 SHL SWAP1 DIV PUSH1 0xFF AND PUSH2 0x106D JUMPI DUP5 PUSH2 0x1070 JUMP JUMPDEST PUSH1 0x0 JUMPDEST PUSH1 0x0 DUP4 DUP2 MSTORE PUSH1 0x4 PUSH1 0x20 MSTORE PUSH1 0x40 SWAP1 KECCAK256 SLOAD PUSH1 0x1 PUSH1 0x1 PUSH1 0xA0 SHL SUB SWAP2 SWAP1 SWAP2 AND SWAP1 PUSH1 0x1 PUSH1 0xC0 SHL SWAP1 DIV PUSH1 0xFF AND PUSH2 0x10A0 JUMPI DUP7 PUSH2 0x10A3 JUMP JUMPDEST PUSH1 0x0 JUMPDEST PUSH1 0x1 PUSH1 0x1 PUSH1 0xA0 SHL SUB AND DUP9 PUSH32 0x4CAFE8C90C0E3A2FA8DA6FA1827B31FF8BE7D9EFB7F85B110C3481AD9B36BEFF DUP8 PUSH1 0x40 MLOAD PUSH2 0x10DE SWAP2 DUP2 MSTORE PUSH1 0x20 ADD SWAP1 JUMP JUMPDEST PUSH1 0x40 MLOAD DUP1 SWAP2 SUB SWAP1 LOG4 JUMPDEST POP POP POP JUMPDEST POP POP POP POP JUMP JUMPDEST PUSH1 0x0 PUSH2 0xAA5 PUSH5 0xE8D4A51000 DUP4 PUSH2 0x4492 JUMP JUMPDEST PUSH2 0x110A PUSH2 0x2AAF JUMP JUMPDEST PUSH1 0x0 PUSH2 0x1115 DUP3 PUSH2 0x1341 JUMP JUMPDEST SWAP1 POP PUSH1 0x1 PUSH1 0x1 PUSH1 0x40 SHL SUB DUP2 AND ISZERO PUSH2 0x133A JUMPI PUSH1 0x40 MLOAD PUSH4 0x5768BBB5 PUSH1 0xE0 SHL DUP2 MSTORE PUSH1 0x0 SWAP1 PUSH1 0x1 PUSH1 0x1 PUSH1 0xA0 SHL SUB PUSH32 0x0 AND SWAP1 PUSH4 0x5768BBB5 SWAP1 PUSH2 0x1177 SWAP1 DUP10 SWAP1 DUP10 SWAP1 PUSH1 0x4 ADD PUSH2 0x4422 JUMP JUMPDEST PUSH1 0x20 PUSH1 0x40 MLOAD DUP1 DUP4 SUB DUP2 PUSH1 0x0 DUP8 GAS CALL ISZERO DUP1 ISZERO PUSH2 0x1196 JUMPI RETURNDATASIZE PUSH1 0x0 DUP1 RETURNDATACOPY RETURNDATASIZE PUSH1 0x0 REVERT JUMPDEST POP POP POP POP PUSH1 0x40 MLOAD RETURNDATASIZE PUSH1 0x1F NOT PUSH1 0x1F DUP3 ADD AND DUP3 ADD DUP1 PUSH1 0x40 MSTORE POP DUP2 ADD SWAP1 PUSH2 0x11BA SWAP2 SWAP1 PUSH2 0x4439 JUMP JUMPDEST PUSH1 0x0 DUP2 DUP2 MSTORE PUSH1 0x4 PUSH1 0x20 SWAP1 DUP2 MSTORE PUSH1 0x40 SWAP2 DUP3 SWAP1 KECCAK256 DUP3 MLOAD PUSH1 0xC0 DUP2 ADD DUP5 MSTORE DUP2 SLOAD PUSH1 0x1 PUSH1 0x1 PUSH1 0x40 SHL SUB DUP1 DUP3 AND DUP4 DUP8 ADD SWAP1 DUP2 MSTORE PUSH1 0x1 PUSH1 0x40 SHL DUP1 DUP5 DIV DUP4 AND PUSH1 0x60 DUP1 DUP8 ADD SWAP2 SWAP1 SWAP2 MSTORE PUSH1 0x1 PUSH1 0x80 SHL DUP1 DUP7 DIV DUP6 AND PUSH1 0x80 DUP1 DUP10 ADD SWAP2 SWAP1 SWAP2 MSTORE PUSH1 0xFF PUSH1 0x1 PUSH1 0xC0 SHL SWAP8 DUP9 SWAP1 DIV AND ISZERO ISZERO PUSH1 0xA0 DUP10 ADD MSTORE SWAP4 DUP8 MSTORE DUP10 MLOAD SWAP4 DUP5 ADD DUP11 MSTORE PUSH1 0x1 SWAP1 SWAP8 ADD SLOAD DUP1 DUP6 AND DUP5 MSTORE SWAP2 DUP3 DIV DUP5 AND DUP4 DUP10 ADD MSTORE SWAP6 DUP2 DIV DUP4 AND SWAP8 DUP3 ADD SWAP8 SWAP1 SWAP8 MSTORE SWAP2 SWAP1 SWAP6 DIV DUP6 AND SWAP3 DUP2 ADD SWAP3 SWAP1 SWAP3 MSTORE SWAP2 DUP3 ADD MSTORE DUP1 MLOAD MLOAD SWAP3 SWAP4 POP SWAP2 DUP5 DUP3 AND SWAP2 AND LT ISZERO PUSH2 0x1275 JUMPI PUSH2 0x1275 PUSH2 0x44B4 JUMP JUMPDEST DUP3 DUP2 PUSH1 0x0 ADD MLOAD PUSH1 0x20 ADD DUP2 DUP2 MLOAD PUSH2 0x128B SWAP2 SWAP1 PUSH2 0x44CA JUMP JUMPDEST PUSH1 0x1 PUSH1 0x1 PUSH1 0x40 SHL SUB AND SWAP1 MSTORE POP DUP1 MLOAD DUP1 MLOAD DUP5 SWAP2 SWAP1 PUSH2 0x12A9 SWAP1 DUP4 SWAP1 PUSH2 0x44F5 JUMP JUMPDEST PUSH1 0x1 PUSH1 0x1 PUSH1 0x40 SHL SUB SWAP1 DUP2 AND SWAP1 SWAP2 MSTORE DUP3 MLOAD PUSH1 0x0 DUP6 DUP2 MSTORE PUSH1 0x4 PUSH1 0x20 SWAP1 DUP2 MSTORE PUSH1 0x40 SWAP2 DUP3 SWAP1 KECCAK256 DUP4 MLOAD DUP2 SLOAD SWAP3 DUP6 ADD MLOAD SWAP4 DUP6 ADD MLOAD PUSH1 0x60 SWAP1 SWAP6 ADD MLOAD ISZERO ISZERO PUSH1 0x1 PUSH1 0xC0 SHL MUL PUSH1 0xFF PUSH1 0xC0 SHL NOT SWAP6 DUP8 AND PUSH1 0x1 PUSH1 0x80 SHL MUL SWAP6 SWAP1 SWAP6 AND PUSH9 0xFFFFFFFFFFFFFFFFFF PUSH1 0x80 SHL NOT SWAP5 DUP8 AND PUSH1 0x1 PUSH1 0x40 SHL MUL PUSH1 0x1 PUSH1 0x1 PUSH1 0x80 SHL SUB NOT SWAP1 SWAP5 AND SWAP2 SWAP1 SWAP7 AND OR SWAP2 SWAP1 SWAP2 OR SWAP2 SWAP1 SWAP2 AND SWAP3 SWAP1 SWAP3 OR OR SWAP1 SSTORE POP PUSH2 0x10E7 DUP8 DUP8 PUSH2 0x35DB JUMP JUMPDEST POP POP POP POP POP JUMP JUMPDEST PUSH1 0x0 DUP1 PUSH2 0x1353 PUSH5 0x2540BE400 DUP5 PUSH2 0x4492 JUMP JUMPDEST SWAP1 POP DUP3 PUSH2 0x1365 DUP3 PUSH5 0x2540BE400 PUSH2 0x451D JUMP JUMPDEST GT ISZERO PUSH2 0xAA5 JUMPI PUSH2 0xAA5 PUSH2 0x44B4 JUMP JUMPDEST PUSH2 0x137B PUSH2 0x36F9 JUMP JUMPDEST PUSH2 0xA58 PUSH1 0x0 PUSH2 0x375A JUMP JUMPDEST PUSH2 0x138D PUSH2 0x890 JUMP JUMPDEST PUSH2 0xA58 PUSH1 0x0 DUP1 SLOAD PUSH1 0xFF NOT AND PUSH1 0x1 OR SWAP1 SSTORE JUMP JUMPDEST PUSH32 0x0 PUSH1 0x1 PUSH1 0x1 PUSH1 0xA0 SHL SUB AND PUSH4 0x4635229B PUSH1 0x40 MLOAD DUP2 PUSH4 0xFFFFFFFF AND PUSH1 0xE0 SHL DUP2 MSTORE PUSH1 0x4 ADD PUSH1 0x20 PUSH1 0x40 MLOAD DUP1 DUP4 SUB DUP2 DUP7 GAS STATICCALL ISZERO DUP1 ISZERO PUSH2 0x13FD JUMPI RETURNDATASIZE PUSH1 0x0 DUP1 RETURNDATACOPY RETURNDATASIZE PUSH1 0x0 REVERT JUMPDEST POP POP POP POP PUSH1 0x40 MLOAD RETURNDATASIZE PUSH1 0x1F NOT PUSH1 0x1F DUP3 ADD AND DUP3 ADD DUP1 PUSH1 0x40 MSTORE POP DUP2 ADD SWAP1 PUSH2 0x1421 SWAP2 SWAP1 PUSH2 0x4400 JUMP JUMPDEST PUSH2 0x1467 JUMPI PUSH1 0x40 MLOAD PUSH3 0x461BCD PUSH1 0xE5 SHL DUP2 MSTORE PUSH1 0x20 PUSH1 0x4 DUP3 ADD MSTORE PUSH1 0x17 PUSH1 0x24 DUP3 ADD MSTORE PUSH23 0x4D75737420626520696E204D6F64652054657374696E67 PUSH1 0x48 SHL PUSH1 0x44 DUP3 ADD MSTORE PUSH1 0x64 ADD PUSH2 0xA4F JUMP JUMPDEST PUSH2 0x10EB DUP5 DUP5 DUP5 DUP5 PUSH2 0x29AE JUMP JUMPDEST PUSH2 0x147B PUSH2 0x2AAF JUMP JUMPDEST PUSH1 0x0 PUSH2 0x1486 DUP3 PUSH2 0x1341 JUMP JUMPDEST SWAP1 POP PUSH1 0x1 PUSH1 0x1 PUSH1 0x40 SHL SUB DUP2 AND ISZERO PUSH2 0x133A JUMPI PUSH1 0x40 MLOAD PUSH4 0x5768BBB5 PUSH1 0xE0 SHL DUP2 MSTORE PUSH1 0x0 SWAP1 PUSH1 0x1 PUSH1 0x1 PUSH1 0xA0 SHL SUB PUSH32 0x0 AND SWAP1 PUSH4 0x5768BBB5 SWAP1 PUSH2 0x14E8 SWAP1 DUP10 SWAP1 DUP10 SWAP1 PUSH1 0x4 ADD PUSH2 0x4422 JUMP JUMPDEST PUSH1 0x20 PUSH1 0x40 MLOAD DUP1 DUP4 SUB DUP2 PUSH1 0x0 DUP8 GAS CALL ISZERO DUP1 ISZERO PUSH2 0x1507 JUMPI RETURNDATASIZE PUSH1 0x0 DUP1 RETURNDATACOPY RETURNDATASIZE PUSH1 0x0 REVERT JUMPDEST POP POP POP POP PUSH1 0x40 MLOAD RETURNDATASIZE PUSH1 0x1F NOT PUSH1 0x1F DUP3 ADD AND DUP3 ADD DUP1 PUSH1 0x40 MSTORE POP DUP2 ADD SWAP1 PUSH2 0x152B SWAP2 SWAP1 PUSH2 0x4439 JUMP JUMPDEST PUSH1 0x0 DUP2 DUP2 MSTORE PUSH1 0x4 PUSH1 0x20 SWAP1 DUP2 MSTORE PUSH1 0x40 SWAP2 DUP3 SWAP1 KECCAK256 DUP3 MLOAD PUSH1 0xC0 DUP2 ADD DUP5 MSTORE DUP2 SLOAD PUSH1 0x1 PUSH1 0x1 PUSH1 0x40 SHL SUB DUP1 DUP3 AND DUP4 DUP8 ADD SWAP1 DUP2 MSTORE PUSH1 0x1 PUSH1 0x40 SHL DUP1 DUP5 DIV DUP4 AND PUSH1 0x60 DUP1 DUP8 ADD SWAP2 SWAP1 SWAP2 MSTORE PUSH1 0x1 PUSH1 0x80 SHL DUP1 DUP7 DIV DUP6 AND PUSH1 0x80 DUP1 DUP10 ADD SWAP2 SWAP1 SWAP2 MSTORE PUSH1 0xFF PUSH1 0x1 PUSH1 0xC0 SHL SWAP8 DUP9 SWAP1 DIV AND ISZERO ISZERO PUSH1 0xA0 DUP10 ADD MSTORE SWAP4 DUP8 MSTORE DUP10 MLOAD SWAP4 DUP5 ADD DUP11 MSTORE PUSH1 0x1 SWAP1 SWAP8 ADD SLOAD DUP1 DUP6 AND DUP5 MSTORE SWAP2 DUP3 DIV DUP5 AND DUP4 DUP10 ADD MSTORE SWAP6 DUP2 DIV DUP4 AND DUP3 DUP10 ADD MSTORE SWAP3 SWAP1 SWAP3 DIV AND SWAP3 DUP2 ADD SWAP3 SWAP1 SWAP3 MSTORE SWAP2 DUP3 ADD MSTORE DUP1 MLOAD SWAP1 SWAP2 ADD DUP1 MLOAD SWAP3 SWAP4 POP SWAP1 SWAP2 DUP5 SWAP2 SWAP1 PUSH2 0x12A9 SWAP1 DUP4 SWAP1 PUSH2 0x44CA JUMP JUMPDEST PUSH1 0x0 PUSH2 0xAA5 PUSH6 0xFFFFFFFFFFFF DUP4 AND PUSH5 0x174876E800 PUSH2 0x451D JUMP JUMPDEST PUSH1 0x0 PUSH2 0x1609 PUSH2 0x6EB DUP4 PUSH2 0x1341 JUMP JUMPDEST SWAP1 POP DUP1 PUSH2 0x161A JUMPI PUSH2 0xAA5 PUSH1 0x1 PUSH2 0x1D5D JUMP JUMPDEST SWAP2 SWAP1 POP JUMP JUMPDEST PUSH1 0x0 DUP1 SLOAD PUSH1 0xFF AND DUP1 PUSH2 0x1638 JUMPI POP PUSH1 0x0 SLOAD PUSH2 0x100 SWAP1 DIV PUSH1 0xFF AND JUMPDEST SWAP1 POP SWAP1 JUMP JUMPDEST PUSH2 0x1645 PUSH2 0x2AAF JUMP JUMPDEST PUSH1 0x0 PUSH2 0x1650 DUP3 PUSH2 0x1341 JUMP JUMPDEST SWAP1 POP PUSH1 0x1 PUSH1 0x1 PUSH1 0x40 SHL SUB DUP2 AND ISZERO PUSH2 0x133A JUMPI PUSH1 0x40 MLOAD PUSH4 0x5768BBB5 PUSH1 0xE0 SHL DUP2 MSTORE PUSH1 0x0 SWAP1 PUSH1 0x1 PUSH1 0x1 PUSH1 0xA0 SHL SUB PUSH32 0x0 AND SWAP1 PUSH4 0x5768BBB5 SWAP1 PUSH2 0x16B2 SWAP1 DUP10 SWAP1 DUP10 SWAP1 PUSH1 0x4 ADD PUSH2 0x4422 JUMP JUMPDEST PUSH1 0x20 PUSH1 0x40 MLOAD DUP1 DUP4 SUB DUP2 PUSH1 0x0 DUP8 GAS CALL ISZERO DUP1 ISZERO PUSH2 0x16D1 JUMPI RETURNDATASIZE PUSH1 0x0 DUP1 RETURNDATACOPY RETURNDATASIZE PUSH1 0x0 REVERT JUMPDEST POP POP POP POP PUSH1 0x40 MLOAD RETURNDATASIZE PUSH1 0x1F NOT PUSH1 0x1F DUP3 ADD AND DUP3 ADD DUP1 PUSH1 0x40 MSTORE POP DUP2 ADD SWAP1 PUSH2 0x16F5 SWAP2 SWAP1 PUSH2 0x4439 JUMP JUMPDEST PUSH1 0x0 DUP2 DUP2 MSTORE PUSH1 0x4 PUSH1 0x20 SWAP1 DUP2 MSTORE PUSH1 0x40 SWAP2 DUP3 SWAP1 KECCAK256 DUP3 MLOAD PUSH1 0xC0 DUP2 ADD DUP5 MSTORE DUP2 SLOAD PUSH1 0x1 PUSH1 0x1 PUSH1 0x40 SHL SUB DUP1 DUP3 AND DUP4 DUP8 ADD SWAP1 DUP2 MSTORE PUSH1 0x1 PUSH1 0x40 SHL DUP1 DUP5 DIV DUP4 AND PUSH1 0x60 DUP1 DUP8 ADD SWAP2 SWAP1 SWAP2 MSTORE PUSH1 0x1 PUSH1 0x80 SHL DUP1 DUP7 DIV DUP6 AND PUSH1 0x80 DUP1 DUP10 ADD SWAP2 SWAP1 SWAP2 MSTORE PUSH1 0xFF PUSH1 0x1 PUSH1 0xC0 SHL SWAP8 DUP9 SWAP1 DIV AND ISZERO ISZERO PUSH1 0xA0 DUP10 ADD MSTORE SWAP4 DUP8 MSTORE DUP10 MLOAD SWAP4 DUP5 ADD DUP11 MSTORE PUSH1 0x1 SWAP1 SWAP8 ADD SLOAD DUP1 DUP6 AND DUP5 MSTORE SWAP2 DUP3 DIV DUP5 AND DUP4 DUP10 ADD SWAP1 DUP2 MSTORE SWAP7 DUP3 DIV DUP5 AND SWAP9 DUP4 ADD SWAP9 SWAP1 SWAP9 MSTORE SWAP3 SWAP1 SWAP3 DIV AND SWAP5 DUP2 ADD SWAP5 SWAP1 SWAP5 MSTORE SWAP2 DUP3 ADD SWAP3 SWAP1 SWAP3 MSTORE DUP2 MLOAD SWAP3 SWAP4 POP SWAP2 DUP5 SWAP2 SWAP1 PUSH2 0x17AE SWAP1 DUP4 SWAP1 PUSH2 0x44F5 JUMP JUMPDEST PUSH1 0x1 PUSH1 0x1 PUSH1 0x40 SHL SUB SWAP1 DUP2 AND SWAP1 SWAP2 MSTORE PUSH1 0x20 DUP1 DUP5 ADD MLOAD PUSH1 0x0 DUP7 DUP2 MSTORE PUSH1 0x4 DUP4 MSTORE PUSH1 0x40 SWAP1 DUP2 SWAP1 KECCAK256 DUP3 MLOAD PUSH1 0x1 SWAP1 SWAP2 ADD DUP1 SLOAD SWAP5 DUP5 ADD MLOAD SWAP3 DUP5 ADD MLOAD PUSH1 0x60 SWAP1 SWAP5 ADD MLOAD DUP7 AND PUSH1 0x1 PUSH1 0xC0 SHL MUL PUSH1 0x1 PUSH1 0x1 PUSH1 0xC0 SHL SUB SWAP5 DUP8 AND PUSH1 0x1 PUSH1 0x80 SHL MUL SWAP5 SWAP1 SWAP5 AND PUSH1 0x1 PUSH1 0x1 PUSH1 0x80 SHL SUB SWAP4 DUP8 AND PUSH1 0x1 PUSH1 0x40 SHL MUL PUSH1 0x1 PUSH1 0x1 PUSH1 0x80 SHL SUB NOT SWAP1 SWAP7 AND SWAP3 SWAP1 SWAP7 AND SWAP2 SWAP1 SWAP2 OR SWAP4 SWAP1 SWAP4 OR AND SWAP3 SWAP1 SWAP3 OR SWAP2 SWAP1 SWAP2 OR SWAP1 SSTORE POP PUSH2 0x10E7 DUP8 DUP8 PUSH2 0x35DB JUMP JUMPDEST PUSH2 0x184C PUSH2 0x2AAF JUMP JUMPDEST PUSH1 0x0 PUSH2 0x1857 DUP3 PUSH2 0x1341 JUMP JUMPDEST SWAP1 POP PUSH1 0x1 PUSH1 0x1 PUSH1 0x40 SHL SUB DUP2 AND ISZERO PUSH2 0x133A JUMPI PUSH1 0x40 MLOAD PUSH4 0x5768BBB5 PUSH1 0xE0 SHL DUP2 MSTORE PUSH1 0x0 SWAP1 PUSH1 0x1 PUSH1 0x1 PUSH1 0xA0 SHL SUB PUSH32 0x0 AND SWAP1 PUSH4 0x5768BBB5 SWAP1 PUSH2 0x18B9 SWAP1 DUP10 SWAP1 DUP10 SWAP1 PUSH1 0x4 ADD PUSH2 0x4422 JUMP JUMPDEST PUSH1 0x20 PUSH1 0x40 MLOAD DUP1 DUP4 SUB DUP2 PUSH1 0x0 DUP8 GAS CALL ISZERO DUP1 ISZERO PUSH2 0x18D8 JUMPI RETURNDATASIZE PUSH1 0x0 DUP1 RETURNDATACOPY RETURNDATASIZE PUSH1 0x0 REVERT JUMPDEST POP POP POP POP PUSH1 0x40 MLOAD RETURNDATASIZE PUSH1 0x1F NOT PUSH1 0x1F DUP3 ADD AND DUP3 ADD DUP1 PUSH1 0x40 MSTORE POP DUP2 ADD SWAP1 PUSH2 0x18FC SWAP2 SWAP1 PUSH2 0x4439 JUMP JUMPDEST PUSH1 0x0 DUP2 DUP2 MSTORE PUSH1 0x4 PUSH1 0x20 SWAP1 DUP2 MSTORE PUSH1 0x40 SWAP2 DUP3 SWAP1 KECCAK256 DUP3 MLOAD PUSH1 0xC0 DUP2 ADD DUP5 MSTORE DUP2 SLOAD PUSH1 0x1 PUSH1 0x1 PUSH1 0x40 SHL SUB DUP1 DUP3 AND DUP4 DUP8 ADD SWAP1 DUP2 MSTORE PUSH1 0x1 PUSH1 0x40 SHL DUP1 DUP5 DIV DUP4 AND PUSH1 0x60 DUP1 DUP8 ADD SWAP2 SWAP1 SWAP2 MSTORE PUSH1 0x1 PUSH1 0x80 SHL DUP1 DUP7 DIV DUP6 AND PUSH1 0x80 DUP1 DUP10 ADD SWAP2 SWAP1 SWAP2 MSTORE PUSH1 0xFF PUSH1 0x1 PUSH1 0xC0 SHL SWAP8 DUP9 SWAP1 DIV AND ISZERO ISZERO PUSH1 0xA0 DUP10 ADD MSTORE SWAP4 DUP8 MSTORE DUP10 MLOAD SWAP4 DUP5 ADD DUP11 MSTORE PUSH1 0x1 SWAP1 SWAP8 ADD SLOAD DUP1 DUP6 AND DUP5 MSTORE SWAP2 DUP3 DIV DUP5 AND DUP4 DUP10 ADD MSTORE SWAP6 DUP2 DIV DUP4 AND SWAP8 DUP3 ADD SWAP8 SWAP1 SWAP8 MSTORE SWAP2 SWAP1 SWAP6 DIV SWAP1 SWAP5 AND SWAP2 DUP5 ADD SWAP2 SWAP1 SWAP2 MSTORE DUP1 DUP3 ADD SWAP3 SWAP1 SWAP3 MSTORE DUP2 MLOAD ADD DUP1 MLOAD SWAP3 SWAP4 POP SWAP1 SWAP2 DUP5 SWAP2 SWAP1 PUSH2 0x19B9 SWAP1 DUP4 SWAP1 PUSH2 0x44F5 JUMP JUMPDEST PUSH1 0x1 PUSH1 0x1 PUSH1 0x40 SHL SUB AND SWAP1 MSTORE POP DUP1 MLOAD DUP1 MLOAD DUP5 SWAP2 SWAP1 PUSH2 0x12A9 SWAP1 DUP4 SWAP1 PUSH2 0x44CA JUMP JUMPDEST PUSH2 0x19DF PUSH2 0x2AAF JUMP JUMPDEST PUSH1 0x0 PUSH2 0x19EA DUP3 PUSH2 0x1341 JUMP JUMPDEST SWAP1 POP PUSH1 0x1 PUSH1 0x1 PUSH1 0x40 SHL SUB DUP2 AND ISZERO PUSH2 0x133A JUMPI PUSH1 0x40 MLOAD PUSH4 0x5768BBB5 PUSH1 0xE0 SHL DUP2 MSTORE PUSH1 0x0 SWAP1 PUSH1 0x1 PUSH1 0x1 PUSH1 0xA0 SHL SUB PUSH32 0x0 AND SWAP1 PUSH4 0x5768BBB5 SWAP1 PUSH2 0x1A4C SWAP1 DUP10 SWAP1 DUP10 SWAP1 PUSH1 0x4 ADD PUSH2 0x4422 JUMP JUMPDEST PUSH1 0x20 PUSH1 0x40 MLOAD DUP1 DUP4 SUB DUP2 PUSH1 0x0 DUP8 GAS CALL ISZERO DUP1 ISZERO PUSH2 0x1A6B JUMPI RETURNDATASIZE PUSH1 0x0 DUP1 RETURNDATACOPY RETURNDATASIZE PUSH1 0x0 REVERT JUMPDEST POP POP POP POP PUSH1 0x40 MLOAD RETURNDATASIZE PUSH1 0x1F NOT PUSH1 0x1F DUP3 ADD AND DUP3 ADD DUP1 PUSH1 0x40 MSTORE POP DUP2 ADD SWAP1 PUSH2 0x1A8F SWAP2 SWAP1 PUSH2 0x4439 JUMP JUMPDEST PUSH1 0x0 DUP2 DUP2 MSTORE PUSH1 0x4 PUSH1 0x20 SWAP1 DUP2 MSTORE PUSH1 0x40 SWAP2 DUP3 SWAP1 KECCAK256 DUP3 MLOAD PUSH1 0xC0 DUP2 ADD DUP5 MSTORE DUP2 SLOAD PUSH1 0x1 PUSH1 0x1 PUSH1 0x40 SHL SUB DUP1 DUP3 AND DUP4 DUP8 ADD SWAP1 DUP2 MSTORE PUSH1 0x1 PUSH1 0x40 SHL DUP1 DUP5 DIV DUP4 AND PUSH1 0x60 DUP1 DUP8 ADD SWAP2 SWAP1 SWAP2 MSTORE PUSH1 0x1 PUSH1 0x80 SHL DUP1 DUP7 DIV DUP6 AND PUSH1 0x80 DUP1 DUP10 ADD SWAP2 SWAP1 SWAP2 MSTORE PUSH1 0xFF PUSH1 0x1 PUSH1 0xC0 SHL SWAP8 DUP9 SWAP1 DIV AND ISZERO ISZERO PUSH1 0xA0 DUP10 ADD MSTORE SWAP4 DUP8 MSTORE DUP10 MLOAD SWAP4 DUP5 ADD DUP11 MSTORE PUSH1 0x1 SWAP1 SWAP8 ADD SLOAD DUP1 DUP6 AND DUP5 MSTORE SWAP2 DUP3 DIV DUP5 AND DUP4 DUP10 ADD MSTORE SWAP6 DUP2 DIV DUP4 AND SWAP8 DUP3 ADD SWAP8 SWAP1 SWAP8 MSTORE SWAP2 SWAP1 SWAP6 DIV SWAP1 SWAP5 AND SWAP2 DUP5 ADD SWAP2 DUP3 MSTORE SWAP2 DUP3 ADD SWAP3 SWAP1 SWAP3 MSTORE DUP2 MLOAD SWAP3 SWAP4 POP SWAP2 DUP5 SWAP2 SWAP1 PUSH2 0x1B47 SWAP1 DUP4 SWAP1 PUSH2 0x44CA JUMP JUMPDEST PUSH1 0x1 PUSH1 0x1 PUSH1 0x40 SHL SUB SWAP1 DUP2 AND SWAP1 SWAP2 MSTORE PUSH1 0x20 DUP4 ADD MLOAD MLOAD AND ISZERO SWAP1 POP PUSH2 0x1BF3 JUMPI PUSH1 0x20 DUP2 ADD MLOAD PUSH1 0x40 DUP2 ADD MLOAD PUSH1 0x60 SWAP1 SWAP2 ADD MLOAD PUSH1 0x0 SWAP2 PUSH2 0x1B7F SWAP2 PUSH2 0x44F5 JUMP JUMPDEST SWAP1 POP DUP1 PUSH1 0x1 PUSH1 0x1 PUSH1 0x40 SHL SUB AND DUP3 PUSH1 0x20 ADD MLOAD PUSH1 0x0 ADD MLOAD PUSH1 0x1 PUSH1 0x1 PUSH1 0x40 SHL SUB AND LT ISZERO PUSH2 0x1BAB JUMPI POP PUSH1 0x20 DUP2 ADD MLOAD MLOAD JUMPDEST DUP1 DUP3 PUSH1 0x20 ADD MLOAD PUSH1 0x0 ADD DUP2 DUP2 MLOAD PUSH2 0x1BC1 SWAP2 SWAP1 PUSH2 0x44F5 JUMP JUMPDEST PUSH1 0x1 PUSH1 0x1 PUSH1 0x40 SHL SUB AND SWAP1 MSTORE POP PUSH1 0x20 DUP3 ADD MLOAD PUSH1 0x40 ADD DUP1 MLOAD DUP3 SWAP2 SWAP1 PUSH2 0x1BE5 SWAP1 DUP4 SWAP1 PUSH2 0x44CA JUMP JUMPDEST PUSH1 0x1 PUSH1 0x1 PUSH1 0x40 SHL SUB AND SWAP1 MSTORE POP POP JUMPDEST PUSH1 0x20 DUP1 DUP3 ADD MLOAD PUSH1 0x0 DUP5 DUP2 MSTORE PUSH1 0x4 DUP4 MSTORE PUSH1 0x40 SWAP1 DUP2 SWAP1 KECCAK256 DUP3 MLOAD PUSH1 0x1 SWAP1 SWAP2 ADD DUP1 SLOAD SWAP5 DUP5 ADD MLOAD SWAP3 DUP5 ADD MLOAD PUSH1 0x60 SWAP1 SWAP5 ADD MLOAD PUSH1 0x1 PUSH1 0x1 PUSH1 0x40 SHL SUB SWAP1 DUP2 AND PUSH1 0x1 PUSH1 0xC0 SHL MUL PUSH1 0x1 PUSH1 0x1 PUSH1 0xC0 SHL SUB SWAP6 DUP3 AND PUSH1 0x1 PUSH1 0x80 SHL MUL SWAP6 SWAP1 SWAP6 AND PUSH1 0x1 PUSH1 0x1 PUSH1 0x80 SHL SUB SWAP5 DUP3 AND PUSH1 0x1 PUSH1 0x40 SHL MUL PUSH1 0x1 PUSH1 0x1 PUSH1 0x80 SHL SUB NOT SWAP1 SWAP8 AND SWAP2 SWAP1 SWAP4 AND OR SWAP5 SWAP1 SWAP5 OR SWAP2 SWAP1 SWAP2 AND OR OR SWAP1 SSTORE PUSH2 0x10E7 DUP8 DUP8 PUSH2 0x35DB JUMP JUMPDEST PUSH1 0x0 PUSH2 0x1C8C PUSH2 0x6EB DUP5 DUP5 PUSH2 0x2401 JUMP JUMPDEST SWAP4 SWAP3 POP POP POP JUMP JUMPDEST PUSH2 0xD6F DUP4 DUP4 CALLER JUMPDEST DUP5 PUSH2 0x37B5 JUMP JUMPDEST PUSH1 0x40 MLOAD PUSH4 0x1537F30B PUSH1 0xE3 SHL DUP2 MSTORE PUSH1 0x4 DUP2 ADD DUP3 SWAP1 MSTORE PUSH1 0x0 SWAP1 PUSH2 0xAA5 SWAP1 PUSH1 0x1 PUSH1 0x1 PUSH1 0xA0 SHL SUB PUSH32 0x0 AND SWAP1 PUSH4 0xA9BF9858 SWAP1 PUSH1 0x24 ADD PUSH1 0x20 PUSH1 0x40 MLOAD DUP1 DUP4 SUB DUP2 DUP7 GAS STATICCALL ISZERO DUP1 ISZERO PUSH2 0x1D0C JUMPI RETURNDATASIZE PUSH1 0x0 DUP1 RETURNDATACOPY RETURNDATASIZE PUSH1 0x0 REVERT JUMPDEST POP POP POP POP PUSH1 0x40 MLOAD RETURNDATASIZE PUSH1 0x1F NOT PUSH1 0x1F DUP3 ADD AND DUP3 ADD DUP1 PUSH1 0x40 MSTORE POP DUP2 ADD SWAP1 PUSH2 0x55B SWAP2 SWAP1 PUSH2 0x4439 JUMP JUMPDEST PUSH1 0x1 PUSH1 0x1 PUSH1 0xA0 SHL SUB DUP3 AND ISZERO PUSH2 0x1D4B JUMPI PUSH2 0x1D4B DUP3 PUSH1 0x0 CALLER PUSH2 0xD55 JUMP JUMPDEST CALLVALUE ISZERO PUSH2 0xA70 JUMPI PUSH2 0xA70 PUSH1 0x0 DUP1 CALLER PUSH2 0xD69 JUMP JUMPDEST PUSH1 0x0 PUSH2 0xAA5 PUSH1 0x1 PUSH1 0x1 PUSH1 0x40 SHL SUB DUP4 AND PUSH5 0x2540BE400 PUSH2 0x451D JUMP JUMPDEST PUSH2 0xA70 DUP3 PUSH1 0x0 CALLER PUSH2 0x1C9A JUMP JUMPDEST PUSH2 0x1D8B PUSH2 0x2AAF JUMP JUMPDEST PUSH1 0x0 PUSH2 0x1D96 DUP3 PUSH2 0x1341 JUMP JUMPDEST SWAP1 POP PUSH1 0x1 PUSH1 0x1 PUSH1 0x40 SHL SUB DUP2 AND ISZERO PUSH2 0x133A JUMPI PUSH1 0x40 MLOAD PUSH4 0x5768BBB5 PUSH1 0xE0 SHL DUP2 MSTORE PUSH1 0x0 SWAP1 PUSH1 0x1 PUSH1 0x1 PUSH1 0xA0 SHL SUB PUSH32 0x0 AND SWAP1 PUSH4 0x5768BBB5 SWAP1 PUSH2 0x1DF8 SWAP1 DUP10 SWAP1 DUP10 SWAP1 PUSH1 0x4 ADD PUSH2 0x4422 JUMP JUMPDEST PUSH1 0x20 PUSH1 0x40 MLOAD DUP1 DUP4 SUB DUP2 PUSH1 0x0 DUP8 GAS CALL ISZERO DUP1 ISZERO PUSH2 0x1E17 JUMPI RETURNDATASIZE PUSH1 0x0 DUP1 RETURNDATACOPY RETURNDATASIZE PUSH1 0x0 REVERT JUMPDEST POP POP POP POP PUSH1 0x40 MLOAD RETURNDATASIZE PUSH1 0x1F NOT PUSH1 0x1F DUP3 ADD AND DUP3 ADD DUP1 PUSH1 0x40 MSTORE POP DUP2 ADD SWAP1 PUSH2 0x1E3B SWAP2 SWAP1 PUSH2 0x4439 JUMP JUMPDEST PUSH1 0x0 DUP2 DUP2 MSTORE PUSH1 0x4 PUSH1 0x20 SWAP1 DUP2 MSTORE PUSH1 0x40 SWAP2 DUP3 SWAP1 KECCAK256 DUP3 MLOAD PUSH1 0xC0 DUP2 ADD DUP5 MSTORE DUP2 SLOAD PUSH1 0x1 PUSH1 0x1 PUSH1 0x40 SHL SUB DUP1 DUP3 AND DUP4 DUP8 ADD SWAP1 DUP2 MSTORE PUSH1 0x1 PUSH1 0x40 SHL DUP1 DUP5 DIV DUP4 AND PUSH1 0x60 DUP1 DUP8 ADD SWAP2 SWAP1 SWAP2 MSTORE PUSH1 0x1 PUSH1 0x80 SHL DUP1 DUP7 DIV DUP6 AND PUSH1 0x80 DUP1 DUP10 ADD SWAP2 SWAP1 SWAP2 MSTORE PUSH1 0xFF PUSH1 0x1 PUSH1 0xC0 SHL SWAP8 DUP9 SWAP1 DIV AND ISZERO ISZERO PUSH1 0xA0 DUP10 ADD MSTORE SWAP4 DUP8 MSTORE DUP10 MLOAD SWAP4 DUP5 ADD DUP11 MSTORE PUSH1 0x1 SWAP1 SWAP8 ADD SLOAD DUP1 DUP6 AND DUP5 MSTORE SWAP2 DUP3 DIV DUP5 AND DUP4 DUP10 ADD MSTORE SWAP6 DUP2 DIV DUP4 AND SWAP8 DUP3 ADD SWAP8 SWAP1 SWAP8 MSTORE SWAP2 SWAP1 SWAP6 DIV SWAP1 SWAP5 AND SWAP2 DUP5 ADD SWAP2 DUP3 MSTORE SWAP2 DUP3 ADD SWAP3 SWAP1 SWAP3 MSTORE DUP2 MLOAD SWAP3 SWAP4 POP SWAP2 DUP5 SWAP2 SWAP1 PUSH2 0x1EF3 SWAP1 DUP4 SWAP1 PUSH2 0x44F5 JUMP JUMPDEST PUSH1 0x1 PUSH1 0x1 PUSH1 0x40 SHL SUB SWAP1 DUP2 AND SWAP1 SWAP2 MSTORE PUSH1 0x20 DUP4 ADD MLOAD PUSH1 0x60 DUP2 ADD MLOAD PUSH1 0x40 SWAP1 SWAP2 ADD MLOAD SWAP1 DUP3 AND SWAP2 AND GT ISZERO SWAP1 POP PUSH2 0x1BF3 JUMPI PUSH1 0x20 DUP2 ADD MLOAD PUSH1 0x60 DUP2 ADD MLOAD PUSH1 0x40 SWAP1 SWAP2 ADD MLOAD PUSH1 0x0 SWAP2 PUSH2 0x1F3A SWAP2 PUSH2 0x44F5 JUMP JUMPDEST SWAP1 POP DUP1 DUP3 PUSH1 0x20 ADD MLOAD PUSH1 0x0 ADD DUP2 DUP2 MLOAD PUSH2 0x1F52 SWAP2 SWAP1 PUSH2 0x44CA JUMP JUMPDEST PUSH1 0x1 PUSH1 0x1 PUSH1 0x40 SHL SUB AND SWAP1 MSTORE POP PUSH1 0x20 DUP3 ADD MLOAD PUSH1 0x40 ADD DUP1 MLOAD DUP3 SWAP2 SWAP1 PUSH2 0x1BE5 SWAP1 DUP4 SWAP1 PUSH2 0x44F5 JUMP JUMPDEST PUSH2 0x1F7E PUSH2 0x36F9 JUMP JUMPDEST PUSH2 0xA58 PUSH1 0x0 DUP1 SLOAD PUSH2 0xFF00 NOT AND PUSH2 0x100 OR SWAP1 SSTORE JUMP JUMPDEST PUSH1 0x0 PUSH2 0xAA5 PUSH4 0xFFFFFFFF DUP4 AND PUSH5 0xE8D4A51000 PUSH2 0x451D JUMP JUMPDEST PUSH32 0x0 PUSH1 0x1 PUSH1 0x1 PUSH1 0xA0 SHL SUB AND PUSH4 0x4635229B PUSH1 0x40 MLOAD DUP2 PUSH4 0xFFFFFFFF AND PUSH1 0xE0 SHL DUP2 MSTORE PUSH1 0x4 ADD PUSH1 0x20 PUSH1 0x40 MLOAD DUP1 DUP4 SUB DUP2 DUP7 GAS STATICCALL ISZERO DUP1 ISZERO PUSH2 0x2007 JUMPI RETURNDATASIZE PUSH1 0x0 DUP1 RETURNDATACOPY RETURNDATASIZE PUSH1 0x0 REVERT JUMPDEST POP POP POP POP PUSH1 0x40 MLOAD RETURNDATASIZE PUSH1 0x1F NOT PUSH1 0x1F DUP3 ADD AND DUP3 ADD DUP1 PUSH1 0x40 MSTORE POP DUP2 ADD SWAP1 PUSH2 0x202B SWAP2 SWAP1 PUSH2 0x4400 JUMP JUMPDEST PUSH2 0x2071 JUMPI PUSH1 0x40 MLOAD PUSH3 0x461BCD PUSH1 0xE5 SHL DUP2 MSTORE PUSH1 0x20 PUSH1 0x4 DUP3 ADD MSTORE PUSH1 0x17 PUSH1 0x24 DUP3 ADD MSTORE PUSH23 0x4D75737420626520696E204D6F64652054657374696E67 PUSH1 0x48 SHL PUSH1 0x44 DUP3 ADD MSTORE PUSH1 0x64 ADD PUSH2 0xA4F JUMP JUMPDEST PUSH2 0xD6F DUP4 PUSH1 0x0 DUP5 DUP5 PUSH2 0x29AE JUMP JUMPDEST PUSH2 0xD6F DUP4 PUSH1 0x0 DUP5 DUP5 PUSH2 0x37B5 JUMP JUMPDEST PUSH2 0x2093 PUSH2 0x2AAF JUMP JUMPDEST PUSH1 0x0 PUSH2 0x209E DUP3 PUSH2 0x1341 JUMP JUMPDEST SWAP1 POP PUSH1 0x1 PUSH1 0x1 PUSH1 0x40 SHL SUB DUP2 AND ISZERO PUSH2 0x133A JUMPI PUSH1 0x40 MLOAD PUSH4 0x5768BBB5 PUSH1 0xE0 SHL DUP2 MSTORE PUSH1 0x0 SWAP1 PUSH1 0x1 PUSH1 0x1 PUSH1 0xA0 SHL SUB PUSH32 0x0 AND SWAP1 PUSH4 0x5768BBB5 SWAP1 PUSH2 0x2100 SWAP1 DUP10 SWAP1 DUP10 SWAP1 PUSH1 0x4 ADD PUSH2 0x4422 JUMP JUMPDEST PUSH1 0x20 PUSH1 0x40 MLOAD DUP1 DUP4 SUB DUP2 PUSH1 0x0 DUP8 GAS CALL ISZERO DUP1 ISZERO PUSH2 0x211F JUMPI RETURNDATASIZE PUSH1 0x0 DUP1 RETURNDATACOPY RETURNDATASIZE PUSH1 0x0 REVERT JUMPDEST POP POP POP POP PUSH1 0x40 MLOAD RETURNDATASIZE PUSH1 0x1F NOT PUSH1 0x1F DUP3 ADD AND DUP3 ADD DUP1 PUSH1 0x40 MSTORE POP DUP2 ADD SWAP1 PUSH2 0x2143 SWAP2 SWAP1 PUSH2 0x4439 JUMP JUMPDEST PUSH1 0x0 DUP2 DUP2 MSTORE PUSH1 0x4 PUSH1 0x20 SWAP1 DUP2 MSTORE PUSH1 0x40 SWAP2 DUP3 SWAP1 KECCAK256 DUP3 MLOAD PUSH1 0xC0 DUP2 ADD DUP5 MSTORE DUP2 SLOAD PUSH1 0x1 PUSH1 0x1 PUSH1 0x40 SHL SUB DUP1 DUP3 AND DUP4 DUP8 ADD SWAP1 DUP2 MSTORE PUSH1 0x1 PUSH1 0x40 SHL DUP1 DUP5 DIV DUP4 AND PUSH1 0x60 DUP1 DUP8 ADD SWAP2 SWAP1 SWAP2 MSTORE PUSH1 0x1 PUSH1 0x80 SHL DUP1 DUP7 DIV DUP6 AND PUSH1 0x80 DUP1 DUP10 ADD SWAP2 SWAP1 SWAP2 MSTORE PUSH1 0xFF PUSH1 0x1 PUSH1 0xC0 SHL SWAP8 DUP9 SWAP1 DIV AND ISZERO ISZERO PUSH1 0xA0 DUP10 ADD MSTORE SWAP4 DUP8 MSTORE DUP10 MLOAD SWAP4 DUP5 ADD DUP11 MSTORE PUSH1 0x1 SWAP1 SWAP8 ADD SLOAD DUP1 DUP6 AND DUP5 MSTORE SWAP2 DUP3 DIV DUP5 AND DUP4 DUP10 ADD MSTORE SWAP6 DUP2 DIV DUP4 AND DUP3 DUP10 ADD MSTORE SWAP3 SWAP1 SWAP3 DIV AND SWAP3 DUP2 ADD SWAP3 SWAP1 SWAP3 MSTORE SWAP2 DUP3 ADD MSTORE DUP1 MLOAD SWAP1 SWAP2 ADD DUP1 MLOAD SWAP3 SWAP4 POP SWAP1 SWAP2 DUP5 SWAP2 SWAP1 PUSH2 0x12A9 SWAP1 DUP4 SWAP1 PUSH2 0x44F5 JUMP JUMPDEST PUSH2 0x10EB DUP5 DUP5 DUP5 DUP5 PUSH2 0x37B5 JUMP JUMPDEST PUSH2 0x220E PUSH2 0x2AAF JUMP JUMPDEST PUSH1 0x0 PUSH2 0x2219 DUP3 PUSH2 0x1341 JUMP JUMPDEST SWAP1 POP PUSH1 0x1 PUSH1 0x1 PUSH1 0x40 SHL SUB DUP2 AND ISZERO PUSH2 0x133A JUMPI PUSH1 0x40 MLOAD PUSH4 0x5768BBB5 PUSH1 0xE0 SHL DUP2 MSTORE PUSH1 0x0 SWAP1 PUSH1 0x1 PUSH1 0x1 PUSH1 0xA0 SHL SUB PUSH32 0x0 AND SWAP1 PUSH4 0x5768BBB5 SWAP1 PUSH2 0x227B SWAP1 DUP10 SWAP1 DUP10 SWAP1 PUSH1 0x4 ADD PUSH2 0x4422 JUMP JUMPDEST PUSH1 0x20 PUSH1 0x40 MLOAD DUP1 DUP4 SUB DUP2 PUSH1 0x0 DUP8 GAS CALL ISZERO DUP1 ISZERO PUSH2 0x229A JUMPI RETURNDATASIZE PUSH1 0x0 DUP1 RETURNDATACOPY RETURNDATASIZE PUSH1 0x0 REVERT JUMPDEST POP POP POP POP PUSH1 0x40 MLOAD RETURNDATASIZE PUSH1 0x1F NOT PUSH1 0x1F DUP3 ADD AND DUP3 ADD DUP1 PUSH1 0x40 MSTORE POP DUP2 ADD SWAP1 PUSH2 0x22BE SWAP2 SWAP1 PUSH2 0x4439 JUMP JUMPDEST PUSH1 0x0 DUP2 DUP2 MSTORE PUSH1 0x4 PUSH1 0x20 SWAP1 DUP2 MSTORE PUSH1 0x40 SWAP2 DUP3 SWAP1 KECCAK256 DUP3 MLOAD PUSH1 0xC0 DUP2 ADD DUP5 MSTORE DUP2 SLOAD PUSH1 0x1 PUSH1 0x1 PUSH1 0x40 SHL SUB DUP1 DUP3 AND DUP4 DUP8 ADD SWAP1 DUP2 MSTORE PUSH1 0x1 PUSH1 0x40 SHL DUP1 DUP5 DIV DUP4 AND PUSH1 0x60 DUP1 DUP8 ADD SWAP2 SWAP1 SWAP2 MSTORE PUSH1 0x1 PUSH1 0x80 SHL DUP1 DUP7 DIV DUP6 AND PUSH1 0x80 DUP1 DUP10 ADD SWAP2 SWAP1 SWAP2 MSTORE PUSH1 0xFF PUSH1 0x1 PUSH1 0xC0 SHL SWAP8 DUP9 SWAP1 DIV AND ISZERO ISZERO PUSH1 0xA0 DUP10 ADD MSTORE SWAP4 DUP8 MSTORE DUP10 MLOAD SWAP4 DUP5 ADD DUP11 MSTORE PUSH1 0x1 SWAP1 SWAP8 ADD SLOAD DUP1 DUP6 AND DUP5 MSTORE SWAP2 DUP3 DIV DUP5 AND DUP4 DUP10 ADD SWAP1 DUP2 MSTORE SWAP7 DUP3 DIV DUP5 AND SWAP9 DUP4 ADD SWAP9 SWAP1 SWAP9 MSTORE SWAP3 SWAP1 SWAP3 DIV AND SWAP5 DUP2 ADD SWAP5 SWAP1 SWAP5 MSTORE SWAP2 DUP3 ADD SWAP3 SWAP1 SWAP3 MSTORE DUP2 MLOAD SWAP3 SWAP4 POP SWAP2 DUP5 SWAP2 SWAP1 PUSH2 0x17AE SWAP1 DUP4 SWAP1 PUSH2 0x44CA JUMP JUMPDEST PUSH2 0x237F PUSH2 0x36F9 JUMP JUMPDEST PUSH1 0x1 PUSH1 0x1 PUSH1 0xA0 SHL SUB DUP2 AND PUSH2 0x23E4 JUMPI PUSH1 0x40 MLOAD PUSH3 0x461BCD PUSH1 0xE5 SHL DUP2 MSTORE PUSH1 0x20 PUSH1 0x4 DUP3 ADD MSTORE PUSH1 0x26 PUSH1 0x24 DUP3 ADD MSTORE PUSH32 0x4F776E61626C653A206E6577206F776E657220697320746865207A65726F2061 PUSH1 0x44 DUP3 ADD MSTORE PUSH6 0x646472657373 PUSH1 0xD0 SHL PUSH1 0x64 DUP3 ADD MSTORE PUSH1 0x84 ADD PUSH2 0xA4F JUMP JUMPDEST PUSH2 0x23ED DUP2 PUSH2 0x375A JUMP JUMPDEST POP JUMP JUMPDEST PUSH1 0x0 PUSH2 0xAA5 PUSH5 0x174876E800 DUP4 PUSH2 0x4492 JUMP JUMPDEST PUSH1 0x0 DUP1 PUSH1 0x4 PUSH1 0x0 PUSH20 0x0 PUSH4 0x1EB650E7 DUP8 DUP8 PUSH1 0x40 MLOAD DUP4 PUSH4 0xFFFFFFFF AND PUSH1 0xE0 SHL DUP2 MSTORE PUSH1 0x4 ADD PUSH2 0x2441 SWAP3 SWAP2 SWAP1 PUSH2 0x4422 JUMP JUMPDEST PUSH1 0x20 PUSH1 0x40 MLOAD DUP1 DUP4 SUB DUP2 DUP7 GAS DELEGATECALL ISZERO DUP1 ISZERO PUSH2 0x245E JUMPI RETURNDATASIZE PUSH1 0x0 DUP1 RETURNDATACOPY RETURNDATASIZE PUSH1 0x0 REVERT JUMPDEST POP POP POP POP PUSH1 0x40 MLOAD RETURNDATASIZE PUSH1 0x1F NOT PUSH1 0x1F DUP3 ADD AND DUP3 ADD DUP1 PUSH1 0x40 MSTORE POP DUP2 ADD SWAP1 PUSH2 0x2482 SWAP2 SWAP1 PUSH2 0x4439 JUMP JUMPDEST DUP2 MSTORE PUSH1 0x20 DUP1 DUP3 ADD SWAP3 SWAP1 SWAP3 MSTORE PUSH1 0x40 SWAP1 DUP2 ADD PUSH1 0x0 KECCAK256 DUP2 MLOAD PUSH1 0xC0 DUP2 ADD DUP4 MSTORE DUP2 SLOAD PUSH1 0x1 PUSH1 0x1 PUSH1 0x40 SHL SUB DUP1 DUP3 AND DUP4 DUP7 ADD SWAP1 DUP2 MSTORE PUSH1 0x1 PUSH1 0x40 SHL DUP1 DUP5 DIV DUP4 AND PUSH1 0x60 DUP1 DUP8 ADD SWAP2 SWAP1 SWAP2 MSTORE PUSH1 0x1 PUSH1 0x80 SHL DUP1 DUP7 DIV DUP6 AND PUSH1 0x80 DUP1 DUP10 ADD SWAP2 SWAP1 SWAP2 MSTORE PUSH1 0xFF PUSH1 0x1 PUSH1 0xC0 SHL SWAP8 DUP9 SWAP1 DIV DUP2 AND ISZERO ISZERO PUSH1 0xA0 DUP11 ADD MSTORE SWAP5 DUP9 MSTORE DUP10 MLOAD SWAP1 DUP2 ADD DUP11 MSTORE PUSH1 0x1 SWAP1 SWAP9 ADD SLOAD DUP1 DUP7 AND DUP10 MSTORE SWAP3 DUP4 DIV DUP6 AND DUP9 DUP12 ADD MSTORE DUP3 DIV DUP5 AND SWAP8 DUP8 ADD SWAP8 SWAP1 SWAP8 MSTORE SWAP3 SWAP1 SWAP3 DIV AND SWAP4 DUP4 ADD SWAP4 SWAP1 SWAP4 MSTORE SWAP3 DUP4 ADD MSTORE PUSH1 0x3 SLOAD SWAP2 SWAP3 POP AND ISZERO PUSH2 0x2538 JUMPI MLOAD MLOAD SWAP1 POP PUSH2 0xAA5 JUMP JUMPDEST PUSH2 0x2542 DUP5 DUP5 PUSH2 0x280B JUMP JUMPDEST DUP2 MLOAD MLOAD PUSH2 0x254F SWAP2 SWAP1 PUSH2 0x44CA JUMP JUMPDEST SWAP5 SWAP4 POP POP POP POP JUMP JUMPDEST PUSH1 0x0 DUP1 PUSH1 0x4 PUSH1 0x0 PUSH20 0x0 PUSH4 0x1EB650E7 DUP8 DUP8 PUSH1 0x40 MLOAD DUP4 PUSH4 0xFFFFFFFF AND PUSH1 0xE0 SHL DUP2 MSTORE PUSH1 0x4 ADD PUSH2 0x2597 SWAP3 SWAP2 SWAP1 PUSH2 0x4422 JUMP JUMPDEST PUSH1 0x20 PUSH1 0x40 MLOAD DUP1 DUP4 SUB DUP2 DUP7 GAS DELEGATECALL ISZERO DUP1 ISZERO PUSH2 0x25B4 JUMPI RETURNDATASIZE PUSH1 0x0 DUP1 RETURNDATACOPY RETURNDATASIZE PUSH1 0x0 REVERT JUMPDEST POP POP POP POP PUSH1 0x40 MLOAD RETURNDATASIZE PUSH1 0x1F NOT PUSH1 0x1F DUP3 ADD AND DUP3 ADD DUP1 PUSH1 0x40 MSTORE POP DUP2 ADD SWAP1 PUSH2 0x25D8 SWAP2 SWAP1 PUSH2 0x4439 JUMP JUMPDEST DUP2 MSTORE PUSH1 0x20 DUP1 DUP3 ADD SWAP3 SWAP1 SWAP3 MSTORE PUSH1 0x40 SWAP1 DUP2 ADD PUSH1 0x0 SWAP1 DUP2 KECCAK256 DUP3 MLOAD PUSH1 0xC0 DUP2 ADD DUP5 MSTORE DUP2 SLOAD PUSH1 0x1 PUSH1 0x1 PUSH1 0x40 SHL SUB DUP1 DUP3 AND DUP4 DUP8 ADD SWAP1 DUP2 MSTORE PUSH1 0x1 PUSH1 0x40 SHL DUP1 DUP5 DIV DUP4 AND PUSH1 0x60 DUP1 DUP8 ADD SWAP2 SWAP1 SWAP2 MSTORE PUSH1 0x1 PUSH1 0x80 SHL DUP1 DUP7 DIV DUP6 AND PUSH1 0x80 DUP1 DUP10 ADD SWAP2 SWAP1 SWAP2 MSTORE PUSH1 0xFF PUSH1 0x1 PUSH1 0xC0 SHL SWAP8 DUP9 SWAP1 DIV AND ISZERO ISZERO PUSH1 0xA0 DUP10 ADD MSTORE SWAP4 DUP8 MSTORE DUP10 MLOAD SWAP4 DUP5 ADD DUP11 MSTORE PUSH1 0x1 SWAP1 SWAP8 ADD SLOAD DUP1 DUP6 AND DUP5 MSTORE SWAP2 DUP3 DIV DUP5 AND DUP4 DUP12 ADD MSTORE SWAP6 DUP2 DIV DUP4 AND SWAP8 DUP3 ADD SWAP8 SWAP1 SWAP8 MSTORE SWAP2 SWAP1 SWAP6 DIV SWAP1 SWAP5 AND SWAP2 DUP5 ADD SWAP2 SWAP1 SWAP2 MSTORE SWAP3 DUP4 ADD SWAP2 SWAP1 SWAP2 MSTORE SWAP1 SWAP2 POP PUSH2 0x268D DUP6 DUP6 PUSH2 0x26D8 JUMP JUMPDEST PUSH1 0x1 PUSH1 0x1 PUSH1 0x40 SHL SUB AND GT DUP1 PUSH2 0x26B6 JUMPI POP DUP1 MLOAD DUP1 MLOAD PUSH1 0x40 SWAP1 SWAP2 ADD MLOAD PUSH1 0x1 PUSH1 0x1 PUSH1 0x40 SHL SUB SWAP2 DUP3 AND SWAP2 AND GT JUMPDEST ISZERO PUSH2 0x26C5 JUMPI PUSH1 0x0 SWAP2 POP POP PUSH2 0xAA5 JUMP JUMPDEST DUP1 MLOAD PUSH1 0x40 DUP2 ADD MLOAD SWAP1 MLOAD PUSH2 0x254F SWAP2 SWAP1 PUSH2 0x44F5 JUMP JUMPDEST PUSH1 0x0 DUP1 PUSH1 0x4 PUSH1 0x0 PUSH20 0x0 PUSH4 0x1EB650E7 DUP8 DUP8 PUSH1 0x40 MLOAD DUP4 PUSH4 0xFFFFFFFF AND PUSH1 0xE0 SHL DUP2 MSTORE PUSH1 0x4 ADD PUSH2 0x2718 SWAP3 SWAP2 SWAP1 PUSH2 0x4422 JUMP JUMPDEST PUSH1 0x20 PUSH1 0x40 MLOAD DUP1 DUP4 SUB DUP2 DUP7 GAS DELEGATECALL ISZERO DUP1 ISZERO PUSH2 0x2735 JUMPI RETURNDATASIZE PUSH1 0x0 DUP1 RETURNDATACOPY RETURNDATASIZE PUSH1 0x0 REVERT JUMPDEST POP POP POP POP PUSH1 0x40 MLOAD RETURNDATASIZE PUSH1 0x1F NOT PUSH1 0x1F DUP3 ADD AND DUP3 ADD DUP1 PUSH1 0x40 MSTORE POP DUP2 ADD SWAP1 PUSH2 0x2759 SWAP2 SWAP1 PUSH2 0x4439 JUMP JUMPDEST DUP2 MSTORE PUSH1 0x20 DUP1 DUP3 ADD SWAP3 SWAP1 SWAP3 MSTORE PUSH1 0x40 SWAP1 DUP2 ADD PUSH1 0x0 KECCAK256 DUP2 MLOAD PUSH1 0xC0 DUP2 ADD DUP4 MSTORE DUP2 SLOAD PUSH1 0x1 PUSH1 0x1 PUSH1 0x40 SHL SUB DUP1 DUP3 AND DUP4 DUP7 ADD SWAP1 DUP2 MSTORE PUSH1 0x1 PUSH1 0x40 SHL DUP1 DUP5 DIV DUP4 AND PUSH1 0x60 DUP1 DUP8 ADD SWAP2 SWAP1 SWAP2 MSTORE PUSH1 0x1 PUSH1 0x80 SHL DUP1 DUP7 DIV DUP6 AND PUSH1 0x80 DUP1 DUP10 ADD SWAP2 SWAP1 SWAP2 MSTORE PUSH1 0xFF PUSH1 0x1 PUSH1 0xC0 SHL SWAP8 DUP9 SWAP1 DIV AND ISZERO ISZERO PUSH1 0xA0 DUP10 ADD MSTORE SWAP4 DUP8 MSTORE DUP9 MLOAD SWAP4 DUP5 ADD DUP10 MSTORE PUSH1 0x1 SWAP1 SWAP8 ADD SLOAD DUP1 DUP6 AND DUP5 MSTORE SWAP2 DUP3 DIV DUP5 AND DUP4 DUP11 ADD MSTORE SWAP6 DUP2 DIV DUP4 AND SWAP7 DUP3 ADD SWAP7 DUP8 MSTORE SWAP3 SWAP1 SWAP3 DIV AND SWAP3 DUP2 ADD SWAP3 SWAP1 SWAP3 MSTORE SWAP3 DUP4 ADD DUP2 SWAP1 MSTORE SWAP1 MLOAD SWAP1 MLOAD SWAP2 SWAP3 POP PUSH2 0x254F SWAP2 PUSH2 0x44CA JUMP JUMPDEST PUSH1 0x3 SLOAD PUSH1 0x0 SWAP1 PUSH1 0xFF AND ISZERO PUSH2 0x2821 JUMPI POP PUSH1 0x0 PUSH2 0xAA5 JUMP JUMPDEST PUSH1 0x0 PUSH1 0x4 PUSH1 0x0 PUSH20 0x0 PUSH4 0x1EB650E7 DUP8 DUP8 PUSH1 0x40 MLOAD DUP4 PUSH4 0xFFFFFFFF AND PUSH1 0xE0 SHL DUP2 MSTORE PUSH1 0x4 ADD PUSH2 0x2860 SWAP3 SWAP2 SWAP1 PUSH2 0x4422 JUMP JUMPDEST PUSH1 0x20 PUSH1 0x40 MLOAD DUP1 DUP4 SUB DUP2 DUP7 GAS DELEGATECALL ISZERO DUP1 ISZERO PUSH2 0x287D JUMPI RETURNDATASIZE PUSH1 0x0 DUP1 RETURNDATACOPY RETURNDATASIZE PUSH1 0x0 REVERT JUMPDEST POP POP POP POP PUSH1 0x40 MLOAD RETURNDATASIZE PUSH1 0x1F NOT PUSH1 0x1F DUP3 ADD AND DUP3 ADD DUP1 PUSH1 0x40 MSTORE POP DUP2 ADD SWAP1 PUSH2 0x28A1 SWAP2 SWAP1 PUSH2 0x4439 JUMP JUMPDEST DUP2 MSTORE PUSH1 0x20 DUP1 DUP3 ADD SWAP3 SWAP1 SWAP3 MSTORE PUSH1 0x40 SWAP1 DUP2 ADD PUSH1 0x0 KECCAK256 DUP2 MLOAD PUSH1 0xC0 DUP2 ADD DUP4 MSTORE DUP2 SLOAD PUSH1 0x1 PUSH1 0x1 PUSH1 0x40 SHL SUB DUP1 DUP3 AND DUP4 DUP7 ADD SWAP1 DUP2 MSTORE PUSH1 0x1 PUSH1 0x40 SHL DUP1 DUP5 DIV DUP4 AND PUSH1 0x60 DUP1 DUP8 ADD SWAP2 SWAP1 SWAP2 MSTORE PUSH1 0x1 PUSH1 0x80 SHL DUP1 DUP7 DIV DUP6 AND PUSH1 0x80 DUP1 DUP10 ADD SWAP2 SWAP1 SWAP2 MSTORE PUSH1 0xFF PUSH1 0x1 PUSH1 0xC0 SHL SWAP8 DUP9 SWAP1 DIV AND ISZERO ISZERO PUSH1 0xA0 DUP10 ADD MSTORE SWAP4 DUP8 MSTORE DUP9 MLOAD SWAP4 DUP5 ADD DUP10 MSTORE PUSH1 0x1 SWAP1 SWAP8 ADD SLOAD DUP1 DUP6 AND DUP5 MSTORE SWAP2 DUP3 DIV DUP5 AND DUP4 DUP11 ADD SWAP1 DUP2 MSTORE SWAP7 DUP3 DIV DUP5 AND SWAP8 DUP4 ADD SWAP8 SWAP1 SWAP8 MSTORE SWAP3 SWAP1 SWAP3 DIV AND SWAP4 DUP2 ADD SWAP4 DUP5 MSTORE SWAP4 DUP2 ADD SWAP4 SWAP1 SWAP4 MSTORE SWAP1 MLOAD SWAP1 MLOAD SWAP2 SWAP3 POP PUSH2 0x2956 SWAP2 PUSH2 0x44CA JUMP JUMPDEST PUSH1 0x1 PUSH1 0x1 PUSH1 0x40 SHL SUB AND PUSH2 0x2969 DUP6 DUP6 PUSH2 0x26D8 JUMP JUMPDEST PUSH1 0x1 PUSH1 0x1 PUSH1 0x40 SHL SUB AND GT ISZERO PUSH2 0x2982 JUMPI PUSH1 0x0 SWAP2 POP POP PUSH2 0xAA5 JUMP JUMPDEST PUSH2 0x298C DUP5 DUP5 PUSH2 0x26D8 JUMP JUMPDEST PUSH1 0x20 DUP1 DUP4 ADD MLOAD PUSH1 0x60 DUP2 ADD MLOAD SWAP2 ADD MLOAD PUSH2 0x29A4 SWAP2 SWAP1 PUSH2 0x44CA JUMP JUMPDEST PUSH2 0x254F SWAP2 SWAP1 PUSH2 0x44F5 JUMP JUMPDEST PUSH1 0x1 PUSH1 0x1 PUSH1 0xA0 SHL SUB DUP5 AND ISZERO ISZERO DUP1 PUSH2 0x29C3 JUMPI POP DUP3 ISZERO JUMPDEST PUSH2 0x2A0A JUMPI PUSH1 0x40 MLOAD PUSH3 0x461BCD PUSH1 0xE5 SHL DUP2 MSTORE PUSH1 0x20 PUSH1 0x4 DUP3 ADD MSTORE PUSH1 0x18 PUSH1 0x24 DUP3 ADD MSTORE PUSH24 0x43757272656E637920697320616464726573732830292C3 PUSH1 0x44 SHL PUSH1 0x44 DUP3 ADD MSTORE PUSH1 0x64 ADD PUSH2 0xA4F JUMP JUMPDEST PUSH1 0x40 MLOAD PUSH4 0x509FF69B PUSH1 0xE0 SHL DUP2 MSTORE PUSH1 0x1 PUSH1 0x1 PUSH1 0xA0 SHL SUB DUP6 DUP2 AND PUSH1 0x4 DUP4 ADD MSTORE PUSH1 0x24 DUP3 ADD DUP6 SWAP1 MSTORE PUSH1 0x0 SWAP2 PUSH32 0x0 SWAP1 SWAP2 AND SWAP1 PUSH4 0x509FF69B SWAP1 PUSH1 0x44 ADD PUSH1 0x20 PUSH1 0x40 MLOAD DUP1 DUP4 SUB DUP2 PUSH1 0x0 DUP8 GAS CALL ISZERO DUP1 ISZERO PUSH2 0x2A7E JUMPI RETURNDATASIZE PUSH1 0x0 DUP1 RETURNDATACOPY RETURNDATASIZE PUSH1 0x0 REVERT JUMPDEST POP POP POP POP PUSH1 0x40 MLOAD RETURNDATASIZE PUSH1 0x1F NOT PUSH1 0x1F DUP3 ADD AND DUP3 ADD DUP1 PUSH1 0x40 MSTORE POP DUP2 ADD SWAP1 PUSH2 0x2AA2 SWAP2 SWAP1 PUSH2 0x4439 JUMP JUMPDEST SWAP1 POP PUSH2 0x133A DUP2 DUP5 DUP5 PUSH2 0x38B6 JUMP JUMPDEST PUSH1 0x0 SLOAD PUSH1 0x1 PUSH1 0x1 PUSH1 0xA0 SHL SUB PUSH3 0x10000 SWAP1 SWAP2 DIV AND CALLER EQ DUP1 PUSH2 0x2B62 JUMPI POP PUSH1 0x1 PUSH1 0x1 PUSH1 0xA0 SHL SUB PUSH32 0x0 AND PUSH4 0x16279055 CALLER PUSH1 0x40 MLOAD PUSH1 0x1 PUSH1 0x1 PUSH1 0xE0 SHL SUB NOT PUSH1 0xE0 DUP5 SWAP1 SHL AND DUP2 MSTORE PUSH1 0x1 PUSH1 0x1 PUSH1 0xA0 SHL SUB SWAP1 SWAP2 AND PUSH1 0x4 DUP3 ADD MSTORE PUSH1 0x24 ADD PUSH1 0x20 PUSH1 0x40 MLOAD DUP1 DUP4 SUB DUP2 DUP7 GAS STATICCALL ISZERO DUP1 ISZERO PUSH2 0x2B3E JUMPI RETURNDATASIZE PUSH1 0x0 DUP1 RETURNDATACOPY RETURNDATASIZE PUSH1 0x0 REVERT JUMPDEST POP POP POP POP PUSH1 0x40 MLOAD RETURNDATASIZE PUSH1 0x1F NOT PUSH1 0x1F DUP3 ADD AND DUP3 ADD DUP1 PUSH1 0x40 MSTORE POP DUP2 ADD SWAP1 PUSH2 0x2B62 SWAP2 SWAP1 PUSH2 0x4400 JUMP JUMPDEST PUSH2 0xA58 JUMPI PUSH1 0x40 MLOAD PUSH3 0x461BCD PUSH1 0xE5 SHL DUP2 MSTORE PUSH1 0x20 PUSH1 0x4 DUP3 ADD MSTORE PUSH1 0x2D PUSH1 0x24 DUP3 ADD MSTORE PUSH32 0x416C6C6F77616E63653A2063616C6C6572206D757374206265205265706F7369 PUSH1 0x44 DUP3 ADD MSTORE PUSH13 0x1D1BDC9E4810DBDB9D1C9858DD PUSH1 0x9A SHL PUSH1 0x64 DUP3 ADD MSTORE PUSH1 0x84 ADD PUSH2 0xA4F JUMP JUMPDEST PUSH1 0x0 PUSH2 0x2BCF DUP3 PUSH2 0x1341 JUMP JUMPDEST SWAP1 POP PUSH1 0x1 PUSH1 0x1 PUSH1 0x40 SHL SUB DUP2 AND ISZERO PUSH2 0x10EB JUMPI PUSH1 0x40 MLOAD PUSH4 0x5768BBB5 PUSH1 0xE0 SHL DUP2 MSTORE PUSH1 0x0 SWAP1 PUSH1 0x1 PUSH1 0x1 PUSH1 0xA0 SHL SUB PUSH32 0x0 AND SWAP1 PUSH4 0x5768BBB5 SWAP1 PUSH2 0x2C31 SWAP1 DUP9 SWAP1 DUP9 SWAP1 PUSH1 0x4 ADD PUSH2 0x4422 JUMP JUMPDEST PUSH1 0x20 PUSH1 0x40 MLOAD DUP1 DUP4 SUB DUP2 PUSH1 0x0 DUP8 GAS CALL ISZERO DUP1 ISZERO PUSH2 0x2C50 JUMPI RETURNDATASIZE PUSH1 0x0 DUP1 RETURNDATACOPY RETURNDATASIZE PUSH1 0x0 REVERT JUMPDEST POP POP POP POP PUSH1 0x40 MLOAD RETURNDATASIZE PUSH1 0x1F NOT PUSH1 0x1F DUP3 ADD AND DUP3 ADD DUP1 PUSH1 0x40 MSTORE POP DUP2 ADD SWAP1 PUSH2 0x2C74 SWAP2 SWAP1 PUSH2 0x4439 JUMP JUMPDEST PUSH1 0x0 DUP2 DUP2 MSTORE PUSH1 0x4 PUSH1 0x20 SWAP1 DUP2 MSTORE PUSH1 0x40 SWAP2 DUP3 SWAP1 KECCAK256 DUP3 MLOAD PUSH1 0xC0 DUP2 ADD DUP5 MSTORE DUP2 SLOAD PUSH1 0x1 PUSH1 0x1 PUSH1 0x40 SHL SUB DUP1 DUP3 AND DUP4 DUP8 ADD SWAP1 DUP2 MSTORE PUSH1 0x1 PUSH1 0x40 SHL DUP1 DUP5 DIV DUP4 AND PUSH1 0x60 DUP1 DUP8 ADD SWAP2 SWAP1 SWAP2 MSTORE PUSH1 0x1 PUSH1 0x80 SHL DUP1 DUP7 DIV DUP6 AND PUSH1 0x80 DUP1 DUP10 ADD SWAP2 SWAP1 SWAP2 MSTORE PUSH1 0xFF PUSH1 0x1 PUSH1 0xC0 SHL SWAP8 DUP9 SWAP1 DIV DUP2 AND ISZERO ISZERO PUSH1 0xA0 DUP11 ADD MSTORE SWAP5 DUP9 MSTORE DUP11 MLOAD SWAP1 DUP2 ADD DUP12 MSTORE PUSH1 0x1 SWAP1 SWAP9 ADD SLOAD DUP1 DUP7 AND DUP10 MSTORE SWAP3 DUP4 DIV DUP6 AND DUP9 DUP11 ADD MSTORE DUP3 DIV DUP5 AND SWAP9 DUP8 ADD SWAP9 SWAP1 SWAP9 MSTORE SWAP3 SWAP1 SWAP3 DIV AND SWAP5 DUP4 ADD SWAP5 SWAP1 SWAP5 MSTORE SWAP2 DUP3 ADD MSTORE PUSH1 0x3 SLOAD SWAP3 SWAP4 POP SWAP2 AND ISZERO DUP1 ISZERO PUSH2 0x2D51 JUMPI POP DUP3 PUSH1 0x1 PUSH1 0x1 PUSH1 0x40 SHL SUB AND PUSH2 0x2D38 DUP8 DUP8 PUSH2 0x280B JUMP JUMPDEST DUP3 MLOAD MLOAD PUSH2 0x2D45 SWAP2 SWAP1 PUSH2 0x44CA JUMP JUMPDEST PUSH1 0x1 PUSH1 0x1 PUSH1 0x40 SHL SUB AND LT ISZERO JUMPDEST DUP1 PUSH2 0x2D77 JUMPI POP PUSH1 0x3 SLOAD PUSH1 0xFF AND DUP1 ISZERO PUSH2 0x2D77 JUMPI POP DUP1 MLOAD MLOAD PUSH1 0x1 PUSH1 0x1 PUSH1 0x40 SHL SUB DUP1 DUP6 AND SWAP2 AND LT ISZERO JUMPDEST PUSH2 0x2DD2 JUMPI PUSH1 0x40 MLOAD PUSH3 0x461BCD PUSH1 0xE5 SHL DUP2 MSTORE PUSH1 0x20 PUSH1 0x4 DUP3 ADD MSTORE PUSH1 0x26 PUSH1 0x24 DUP3 ADD MSTORE PUSH32 0x4E6F7420656E6F756768742062616C616E63654F662F63726564697420616C6C PUSH1 0x44 DUP3 ADD MSTORE PUSH6 0x6F77616E6365 PUSH1 0xD0 SHL PUSH1 0x64 DUP3 ADD MSTORE PUSH1 0x84 ADD PUSH2 0xA4F JUMP JUMPDEST DUP1 MLOAD MLOAD PUSH1 0x0 SWAP1 PUSH1 0x1 PUSH1 0x1 PUSH1 0x40 SHL SUB SWAP1 DUP2 AND SWAP1 DUP6 AND GT ISZERO PUSH2 0x2E71 JUMPI DUP2 MLOAD MLOAD PUSH1 0x0 SWAP1 PUSH2 0x2DFC SWAP1 DUP7 PUSH2 0x44F5 JUMP JUMPDEST SWAP1 POP PUSH1 0x0 DUP4 PUSH1 0x20 ADD MLOAD PUSH1 0x40 ADD MLOAD DUP5 PUSH1 0x20 ADD MLOAD PUSH1 0x60 ADD MLOAD PUSH2 0x2E1C SWAP2 SWAP1 PUSH2 0x44F5 JUMP JUMPDEST SWAP1 POP DUP1 PUSH1 0x1 PUSH1 0x1 PUSH1 0x40 SHL SUB AND DUP3 PUSH1 0x1 PUSH1 0x1 PUSH1 0x40 SHL SUB AND GT ISZERO PUSH2 0x2E3C JUMPI DUP1 SWAP2 POP JUMPDEST DUP2 DUP5 PUSH1 0x20 ADD MLOAD PUSH1 0x40 ADD DUP2 DUP2 MLOAD PUSH2 0x2E52 SWAP2 SWAP1 PUSH2 0x44CA JUMP JUMPDEST PUSH1 0x1 PUSH1 0x1 PUSH1 0x40 SHL SUB AND SWAP1 MSTORE POP PUSH2 0x2E68 DUP3 DUP8 PUSH2 0x44F5 JUMP JUMPDEST SWAP6 POP PUSH1 0x1 SWAP3 POP POP POP JUMPDEST DUP2 MLOAD MLOAD PUSH1 0x0 SWAP1 PUSH1 0x1 PUSH1 0x1 PUSH1 0x40 SHL SUB SWAP1 DUP2 AND SWAP1 DUP7 AND GT ISZERO PUSH2 0x2F0B JUMPI DUP3 MLOAD MLOAD PUSH1 0x0 SWAP1 PUSH2 0x2E9B SWAP1 DUP8 PUSH2 0x44F5 JUMP JUMPDEST PUSH1 0x20 DUP1 DUP7 ADD MLOAD DUP1 MLOAD SWAP2 ADD MLOAD SWAP2 SWAP3 POP PUSH1 0x0 SWAP2 PUSH2 0x2EB6 SWAP2 SWAP1 PUSH2 0x44F5 JUMP JUMPDEST SWAP1 POP DUP1 PUSH1 0x1 PUSH1 0x1 PUSH1 0x40 SHL SUB AND DUP3 PUSH1 0x1 PUSH1 0x1 PUSH1 0x40 SHL SUB AND GT ISZERO PUSH2 0x2ED6 JUMPI DUP1 SWAP2 POP JUMPDEST DUP2 DUP6 PUSH1 0x20 ADD MLOAD PUSH1 0x0 ADD DUP2 DUP2 MLOAD PUSH2 0x2EEC SWAP2 SWAP1 PUSH2 0x44CA JUMP JUMPDEST PUSH1 0x1 PUSH1 0x1 PUSH1 0x40 SHL SUB AND SWAP1 MSTORE POP PUSH2 0x2F02 DUP3 DUP9 PUSH2 0x44F5 JUMP JUMPDEST SWAP7 POP PUSH1 0x1 SWAP3 POP POP POP JUMPDEST PUSH1 0x0 PUSH1 0x1 PUSH1 0x1 PUSH1 0x40 SHL SUB DUP7 AND ISZERO PUSH2 0x2F3F JUMPI DUP4 MLOAD DUP1 MLOAD DUP8 SWAP2 SWAP1 PUSH2 0x2F2E SWAP1 DUP4 SWAP1 PUSH2 0x44F5 JUMP JUMPDEST PUSH1 0x1 PUSH1 0x1 PUSH1 0x40 SHL SUB AND SWAP1 MSTORE POP PUSH1 0x1 SWAP1 POP JUMPDEST DUP2 DUP1 PUSH2 0x2F48 JUMPI POP DUP3 JUMPDEST DUP1 ISZERO PUSH2 0x2F52 JUMPI POP DUP1 ISZERO JUMPDEST ISZERO PUSH2 0x2FDC JUMPI PUSH1 0x20 DUP1 DUP6 ADD MLOAD PUSH1 0x0 DUP8 DUP2 MSTORE PUSH1 0x4 DUP4 MSTORE PUSH1 0x40 SWAP1 DUP2 SWAP1 KECCAK256 DUP3 MLOAD PUSH1 0x1 SWAP1 SWAP2 ADD DUP1 SLOAD SWAP5 DUP5 ADD MLOAD SWAP3 DUP5 ADD MLOAD PUSH1 0x60 SWAP1 SWAP5 ADD MLOAD PUSH1 0x1 PUSH1 0x1 PUSH1 0x40 SHL SUB SWAP1 DUP2 AND PUSH1 0x1 PUSH1 0xC0 SHL MUL PUSH1 0x1 PUSH1 0x1 PUSH1 0xC0 SHL SUB SWAP6 DUP3 AND PUSH1 0x1 PUSH1 0x80 SHL MUL SWAP6 SWAP1 SWAP6 AND PUSH1 0x1 PUSH1 0x1 PUSH1 0x80 SHL SUB SWAP5 DUP3 AND PUSH1 0x1 PUSH1 0x40 SHL MUL PUSH1 0x1 PUSH1 0x1 PUSH1 0x80 SHL SUB NOT SWAP1 SWAP8 AND SWAP2 SWAP1 SWAP4 AND OR SWAP5 SWAP1 SWAP5 OR SWAP2 SWAP1 SWAP2 AND OR OR SWAP1 SSTORE PUSH2 0x3148 JUMP JUMPDEST DUP2 ISZERO DUP1 ISZERO PUSH2 0x2FE8 JUMPI POP DUP3 ISZERO JUMPDEST DUP1 ISZERO PUSH2 0x2FF1 JUMPI POP DUP1 JUMPDEST ISZERO PUSH2 0x307B JUMPI DUP4 MLOAD PUSH1 0x0 DUP7 DUP2 MSTORE PUSH1 0x4 PUSH1 0x20 SWAP1 DUP2 MSTORE PUSH1 0x40 SWAP2 DUP3 SWAP1 KECCAK256 DUP4 MLOAD DUP2 SLOAD SWAP3 DUP6 ADD MLOAD SWAP4 DUP6 ADD MLOAD PUSH1 0x60 SWAP1 SWAP6 ADD MLOAD ISZERO ISZERO PUSH1 0x1 PUSH1 0xC0 SHL MUL PUSH1 0xFF PUSH1 0xC0 SHL NOT PUSH1 0x1 PUSH1 0x1 PUSH1 0x40 SHL SUB SWAP7 DUP8 AND PUSH1 0x1 PUSH1 0x80 SHL MUL AND PUSH9 0xFFFFFFFFFFFFFFFFFF PUSH1 0x80 SHL NOT SWAP6 DUP8 AND PUSH1 0x1 PUSH1 0x40 SHL MUL PUSH1 0x1 PUSH1 0x1 PUSH1 0x80 SHL SUB NOT SWAP1 SWAP6 AND SWAP7 SWAP1 SWAP3 AND SWAP6 SWAP1 SWAP6 OR SWAP3 SWAP1 SWAP3 OR SWAP3 SWAP1 SWAP3 AND OR SWAP2 SWAP1 SWAP2 OR SWAP1 SSTORE PUSH2 0x3148 JUMP JUMPDEST PUSH1 0x0 DUP6 DUP2 MSTORE PUSH1 0x4 PUSH1 0x20 SWAP1 DUP2 MSTORE PUSH1 0x40 SWAP2 DUP3 SWAP1 KECCAK256 DUP7 MLOAD DUP1 MLOAD DUP3 SLOAD DUP3 DUP6 ADD MLOAD DUP4 DUP8 ADD MLOAD PUSH1 0x60 SWAP5 DUP6 ADD MLOAD PUSH1 0x1 PUSH1 0x1 PUSH1 0x40 SHL SUB SWAP5 DUP6 AND PUSH1 0x1 PUSH1 0x1 PUSH1 0x80 SHL SUB NOT SWAP5 DUP6 AND OR PUSH1 0x1 PUSH1 0x40 SHL SWAP4 DUP7 AND DUP5 MUL OR PUSH9 0xFFFFFFFFFFFFFFFFFF PUSH1 0x80 SHL NOT AND PUSH1 0x1 PUSH1 0x80 SHL SWAP3 DUP7 AND DUP4 MUL PUSH1 0xFF PUSH1 0xC0 SHL NOT AND OR PUSH1 0x1 PUSH1 0xC0 SHL SWAP2 ISZERO ISZERO DUP3 MUL OR DUP8 SSTORE DUP13 DUP9 ADD MLOAD DUP1 MLOAD PUSH1 0x1 SWAP1 SWAP9 ADD DUP1 SLOAD SWAP10 DUP3 ADD MLOAD SWAP11 DUP3 ADD MLOAD SWAP2 SWAP1 SWAP8 ADD MLOAD SWAP8 DUP7 AND SWAP9 SWAP1 SWAP5 AND SWAP8 SWAP1 SWAP8 OR SWAP8 DUP5 AND SWAP1 SWAP2 MUL SWAP7 SWAP1 SWAP7 OR PUSH1 0x1 PUSH1 0x1 PUSH1 0x80 SHL SUB AND SWAP1 DUP3 AND SWAP1 SWAP6 MUL PUSH1 0x1 PUSH1 0x1 PUSH1 0xC0 SHL SUB AND SWAP5 SWAP1 SWAP5 OR SWAP2 SWAP1 SWAP4 AND SWAP1 SWAP2 MUL OR SWAP1 SSTORE JUMPDEST PUSH2 0x3152 DUP10 DUP10 PUSH2 0x35DB JUMP JUMPDEST POP POP POP POP POP POP POP POP POP JUMP JUMPDEST PUSH1 0x0 PUSH2 0x3168 DUP3 PUSH2 0x1341 JUMP JUMPDEST SWAP1 POP PUSH1 0x1 PUSH1 0x1 PUSH1 0x40 SHL SUB DUP2 AND ISZERO PUSH2 0x10EB JUMPI PUSH1 0x40 MLOAD PUSH4 0x5768BBB5 PUSH1 0xE0 SHL DUP2 MSTORE PUSH1 0x0 SWAP1 PUSH1 0x1 PUSH1 0x1 PUSH1 0xA0 SHL SUB PUSH32 0x0 AND SWAP1 PUSH4 0x5768BBB5 SWAP1 PUSH2 0x31CA SWAP1 DUP9 SWAP1 DUP9 SWAP1 PUSH1 0x4 ADD PUSH2 0x4422 JUMP JUMPDEST PUSH1 0x20 PUSH1 0x40 MLOAD DUP1 DUP4 SUB DUP2 PUSH1 0x0 DUP8 GAS CALL ISZERO DUP1 ISZERO PUSH2 0x31E9 JUMPI RETURNDATASIZE PUSH1 0x0 DUP1 RETURNDATACOPY RETURNDATASIZE PUSH1 0x0 REVERT JUMPDEST POP POP POP POP PUSH1 0x40 MLOAD RETURNDATASIZE PUSH1 0x1F NOT PUSH1 0x1F DUP3 ADD AND DUP3 ADD DUP1 PUSH1 0x40 MSTORE POP DUP2 ADD SWAP1 PUSH2 0x320D SWAP2 SWAP1 PUSH2 0x4439 JUMP JUMPDEST PUSH1 0x0 DUP2 DUP2 MSTORE PUSH1 0x4 PUSH1 0x20 SWAP1 DUP2 MSTORE PUSH1 0x40 DUP1 DUP4 KECCAK256 DUP2 MLOAD PUSH1 0xC0 DUP2 ADD DUP4 MSTORE DUP2 SLOAD PUSH1 0x1 PUSH1 0x1 PUSH1 0x40 SHL SUB DUP1 DUP3 AND DUP4 DUP7 ADD SWAP1 DUP2 MSTORE PUSH1 0x1 PUSH1 0x40 SHL DUP1 DUP5 DIV DUP4 AND PUSH1 0x60 DUP1 DUP8 ADD SWAP2 SWAP1 SWAP2 MSTORE PUSH1 0x1 PUSH1 0x80 SHL DUP1 DUP7 DIV DUP6 AND PUSH1 0x80 DUP1 DUP10 ADD SWAP2 SWAP1 SWAP2 MSTORE PUSH1 0xFF PUSH1 0x1 PUSH1 0xC0 SHL SWAP8 DUP9 SWAP1 DIV AND ISZERO ISZERO PUSH1 0xA0 DUP10 ADD MSTORE SWAP4 DUP8 MSTORE DUP9 MLOAD SWAP4 DUP5 ADD DUP10 MSTORE PUSH1 0x1 SWAP1 SWAP8 ADD SLOAD DUP1 DUP6 AND DUP5 MSTORE SWAP2 DUP3 DIV DUP5 AND DUP4 DUP11 ADD MSTORE SWAP6 DUP2 DIV DUP4 AND SWAP7 DUP3 ADD SWAP7 SWAP1 SWAP7 MSTORE SWAP2 SWAP1 SWAP5 DIV DUP5 AND SWAP3 DUP2 ADD SWAP3 SWAP1 SWAP3 MSTORE SWAP3 DUP4 ADD DUP2 SWAP1 MSTORE MLOAD SWAP4 SWAP5 POP SWAP1 SWAP3 AND ISZERO PUSH2 0x337F JUMPI PUSH1 0x20 DUP3 ADD MLOAD MLOAD PUSH1 0x1 PUSH1 0x1 PUSH1 0x40 SHL SUB DUP1 DUP7 AND SWAP2 AND LT PUSH2 0x332B JUMPI DUP4 DUP3 PUSH1 0x20 ADD MLOAD PUSH1 0x0 ADD DUP2 DUP2 MLOAD PUSH2 0x32E9 SWAP2 SWAP1 PUSH2 0x44F5 JUMP JUMPDEST PUSH1 0x1 PUSH1 0x1 PUSH1 0x40 SHL SUB AND SWAP1 MSTORE POP PUSH2 0x32FE DUP5 PUSH2 0x1D5D JUMP JUMPDEST PUSH1 0x0 DUP9 DUP2 MSTORE PUSH1 0x2 PUSH1 0x20 MSTORE PUSH1 0x40 DUP2 KECCAK256 DUP1 SLOAD SWAP1 SWAP2 SWAP1 PUSH2 0x331C SWAP1 DUP5 SWAP1 PUSH2 0x453C JUMP JUMPDEST SWAP1 SWAP2 SSTORE POP PUSH1 0x0 SWAP5 POP PUSH2 0x337B SWAP1 POP JUMP JUMPDEST PUSH1 0x20 DUP3 ADD MLOAD MLOAD PUSH2 0x333B SWAP1 DUP6 PUSH2 0x44F5 JUMP JUMPDEST SWAP4 POP PUSH2 0x334E DUP3 PUSH1 0x20 ADD MLOAD PUSH1 0x0 ADD MLOAD PUSH2 0x1D5D JUMP JUMPDEST PUSH1 0x0 DUP9 DUP2 MSTORE PUSH1 0x2 PUSH1 0x20 MSTORE PUSH1 0x40 DUP2 KECCAK256 DUP1 SLOAD SWAP1 SWAP2 SWAP1 PUSH2 0x336C SWAP1 DUP5 SWAP1 PUSH2 0x453C JUMP JUMPDEST SWAP1 SWAP2 SSTORE POP POP PUSH1 0x20 DUP3 ADD MLOAD PUSH1 0x0 SWAP1 MSTORE JUMPDEST POP PUSH1 0x1 JUMPDEST PUSH1 0x20 DUP3 ADD MLOAD PUSH1 0x40 ADD MLOAD PUSH1 0x0 SWAP1 PUSH1 0x1 PUSH1 0x1 PUSH1 0x40 SHL SUB AND ISZERO PUSH2 0x346D JUMPI DUP5 PUSH1 0x1 PUSH1 0x1 PUSH1 0x40 SHL SUB AND DUP4 PUSH1 0x20 ADD MLOAD PUSH1 0x40 ADD MLOAD PUSH1 0x1 PUSH1 0x1 PUSH1 0x40 SHL SUB AND LT PUSH2 0x3412 JUMPI DUP5 DUP4 PUSH1 0x20 ADD MLOAD PUSH1 0x40 ADD DUP2 DUP2 MLOAD PUSH2 0x33D0 SWAP2 SWAP1 PUSH2 0x44F5 JUMP JUMPDEST PUSH1 0x1 PUSH1 0x1 PUSH1 0x40 SHL SUB AND SWAP1 MSTORE POP PUSH2 0x33E5 DUP6 PUSH2 0x1D5D JUMP JUMPDEST PUSH1 0x0 DUP10 DUP2 MSTORE PUSH1 0x2 PUSH1 0x20 MSTORE PUSH1 0x40 DUP2 KECCAK256 DUP1 SLOAD SWAP1 SWAP2 SWAP1 PUSH2 0x3403 SWAP1 DUP5 SWAP1 PUSH2 0x453C JUMP JUMPDEST SWAP1 SWAP2 SSTORE POP PUSH1 0x0 SWAP6 POP PUSH2 0x3469 SWAP1 POP JUMP JUMPDEST PUSH1 0x20 DUP4 ADD MLOAD PUSH1 0x40 ADD MLOAD PUSH2 0x3425 SWAP1 DUP7 PUSH2 0x44F5 JUMP JUMPDEST SWAP5 POP PUSH2 0x3438 DUP4 PUSH1 0x20 ADD MLOAD PUSH1 0x40 ADD MLOAD PUSH2 0x1D5D JUMP JUMPDEST PUSH1 0x0 DUP10 DUP2 MSTORE PUSH1 0x2 PUSH1 0x20 MSTORE PUSH1 0x40 DUP2 KECCAK256 DUP1 SLOAD SWAP1 SWAP2 SWAP1 PUSH2 0x3456 SWAP1 DUP5 SWAP1 PUSH2 0x453C JUMP JUMPDEST SWAP1 SWAP2 SSTORE POP POP PUSH1 0x20 DUP4 ADD MLOAD PUSH1 0x0 PUSH1 0x40 SWAP1 SWAP2 ADD MSTORE JUMPDEST POP PUSH1 0x1 JUMPDEST PUSH1 0x0 PUSH1 0x1 PUSH1 0x1 PUSH1 0x40 SHL SUB DUP7 AND ISZERO PUSH2 0x34A1 JUMPI DUP4 MLOAD DUP1 MLOAD DUP8 SWAP2 SWAP1 PUSH2 0x3490 SWAP1 DUP4 SWAP1 PUSH2 0x44CA JUMP JUMPDEST PUSH1 0x1 PUSH1 0x1 PUSH1 0x40 SHL SUB AND SWAP1 MSTORE POP PUSH1 0x1 SWAP1 POP JUMPDEST DUP3 DUP1 PUSH2 0x34AA JUMPI POP DUP2 JUMPDEST DUP1 ISZERO PUSH2 0x34B4 JUMPI POP DUP1 ISZERO JUMPDEST ISZERO PUSH2 0x353E JUMPI PUSH1 0x20 DUP1 DUP6 ADD MLOAD PUSH1 0x0 DUP8 DUP2 MSTORE PUSH1 0x4 DUP4 MSTORE PUSH1 0x40 SWAP1 DUP2 SWAP1 KECCAK256 DUP3 MLOAD PUSH1 0x1 SWAP1 SWAP2 ADD DUP1 SLOAD SWAP5 DUP5 ADD MLOAD SWAP3 DUP5 ADD MLOAD PUSH1 0x60 SWAP1 SWAP5 ADD MLOAD PUSH1 0x1 PUSH1 0x1 PUSH1 0x40 SHL SUB SWAP1 DUP2 AND PUSH1 0x1 PUSH1 0xC0 SHL MUL PUSH1 0x1 PUSH1 0x1 PUSH1 0xC0 SHL SUB SWAP6 DUP3 AND PUSH1 0x1 PUSH1 0x80 SHL MUL SWAP6 SWAP1 SWAP6 AND PUSH1 0x1 PUSH1 0x1 PUSH1 0x80 SHL SUB SWAP5 DUP3 AND PUSH1 0x1 PUSH1 0x40 SHL MUL PUSH1 0x1 PUSH1 0x1 PUSH1 0x80 SHL SUB NOT SWAP1 SWAP8 AND SWAP2 SWAP1 SWAP4 AND OR SWAP5 SWAP1 SWAP5 OR SWAP2 SWAP1 SWAP2 AND OR OR SWAP1 SSTORE PUSH2 0x3148 JUMP JUMPDEST DUP3 ISZERO DUP1 ISZERO PUSH2 0x2FE8 JUMPI POP DUP2 ISZERO DUP1 ISZERO PUSH2 0x2FF1 JUMPI POP DUP1 ISZERO PUSH2 0x307B JUMPI DUP4 MLOAD PUSH1 0x0 DUP7 DUP2 MSTORE PUSH1 0x4 PUSH1 0x20 SWAP1 DUP2 MSTORE PUSH1 0x40 SWAP2 DUP3 SWAP1 KECCAK256 DUP4 MLOAD DUP2 SLOAD SWAP3 DUP6 ADD MLOAD SWAP4 DUP6 ADD MLOAD PUSH1 0x60 SWAP1 SWAP6 ADD MLOAD ISZERO ISZERO PUSH1 0x1 PUSH1 0xC0 SHL MUL PUSH1 0xFF PUSH1 0xC0 SHL NOT PUSH1 0x1 PUSH1 0x1 PUSH1 0x40 SHL SUB SWAP7 DUP8 AND PUSH1 0x1 PUSH1 0x80 SHL MUL AND PUSH9 0xFFFFFFFFFFFFFFFFFF PUSH1 0x80 SHL NOT SWAP6 DUP8 AND PUSH1 0x1 PUSH1 0x40 SHL MUL PUSH1 0x1 PUSH1 0x1 PUSH1 0x80 SHL SUB NOT SWAP1 SWAP6 AND SWAP7 SWAP1 SWAP3 AND SWAP6 SWAP1 SWAP6 OR SWAP3 SWAP1 SWAP3 OR SWAP3 SWAP1 SWAP3 AND OR SWAP2 SWAP1 SWAP2 OR SWAP1 SSTORE PUSH2 0x3148 JUMP JUMPDEST PUSH1 0x0 DUP1 PUSH32 0x0 PUSH1 0x1 PUSH1 0x1 PUSH1 0xA0 SHL SUB AND PUSH32 0x2737B530AB33D91025E8BD75AC76D6F8C285330AACC740150191541AE845C5A8 DUP6 DUP6 PUSH1 0x40 MLOAD PUSH1 0x24 ADD PUSH2 0x363C SWAP3 SWAP2 SWAP1 PUSH2 0x4422 JUMP JUMPDEST PUSH1 0x40 DUP1 MLOAD PUSH1 0x1F NOT DUP2 DUP5 SUB ADD DUP2 MSTORE SWAP2 DUP2 MSTORE PUSH1 0x20 DUP3 ADD DUP1 MLOAD PUSH1 0x1 PUSH1 0x1 PUSH1 0xE0 SHL SUB AND PUSH1 0x1 PUSH1 0x1 PUSH1 0xE0 SHL SUB NOT SWAP1 SWAP5 AND SWAP4 SWAP1 SWAP4 OR SWAP1 SWAP3 MSTORE SWAP1 MLOAD PUSH2 0x367A SWAP2 SWAP1 PUSH2 0x4553 JUMP JUMPDEST PUSH1 0x0 PUSH1 0x40 MLOAD DUP1 DUP4 SUB DUP2 PUSH1 0x0 DUP7 GAS CALL SWAP2 POP POP RETURNDATASIZE DUP1 PUSH1 0x0 DUP2 EQ PUSH2 0x36B7 JUMPI PUSH1 0x40 MLOAD SWAP2 POP PUSH1 0x1F NOT PUSH1 0x3F RETURNDATASIZE ADD AND DUP3 ADD PUSH1 0x40 MSTORE RETURNDATASIZE DUP3 MSTORE RETURNDATASIZE PUSH1 0x0 PUSH1 0x20 DUP5 ADD RETURNDATACOPY PUSH2 0x36BC JUMP JUMPDEST PUSH1 0x60 SWAP2 POP JUMPDEST POP SWAP2 POP SWAP2 POP DUP2 PUSH2 0x10EB JUMPI PUSH1 0x40 MLOAD PUSH3 0x461BCD PUSH1 0xE5 SHL DUP2 MSTORE PUSH1 0x20 PUSH1 0x4 DUP3 ADD MSTORE PUSH1 0x8 PUSH1 0x24 DUP3 ADD MSTORE PUSH8 0x17D8DA185B99D959 PUSH1 0xC2 SHL PUSH1 0x44 DUP3 ADD MSTORE PUSH1 0x64 ADD PUSH2 0xA4F JUMP JUMPDEST PUSH1 0x0 SLOAD PUSH1 0x1 PUSH1 0x1 PUSH1 0xA0 SHL SUB PUSH3 0x10000 SWAP1 SWAP2 DIV AND CALLER EQ PUSH2 0xA58 JUMPI PUSH1 0x40 MLOAD PUSH3 0x461BCD PUSH1 0xE5 SHL DUP2 MSTORE PUSH1 0x20 PUSH1 0x4 DUP3 ADD MSTORE PUSH1 0x1F PUSH1 0x24 DUP3 ADD MSTORE PUSH32 0x416C6C6F77616E63653A2063616C6C6572206D757374206265204F776E657200 PUSH1 0x44 DUP3 ADD MSTORE PUSH1 0x64 ADD PUSH2 0xA4F JUMP JUMPDEST PUSH1 0x0 DUP1 SLOAD PUSH1 0x1 PUSH1 0x1 PUSH1 0xA0 SHL SUB DUP4 DUP2 AND PUSH3 0x10000 DUP2 DUP2 MUL PUSH3 0x10000 PUSH1 0x1 PUSH1 0xB0 SHL SUB NOT DUP6 AND OR DUP6 SSTORE PUSH1 0x40 MLOAD SWAP4 DIV SWAP2 SWAP1 SWAP2 AND SWAP3 SWAP1 SWAP2 DUP4 SWAP2 PUSH32 0x8BE0079C531659141344CD1FD0A4F28419497F9722A3DAAFE3B4186F6B6457E0 SWAP2 LOG3 POP POP JUMP JUMPDEST PUSH1 0x1 PUSH1 0x1 PUSH1 0xA0 SHL SUB DUP5 AND ISZERO ISZERO DUP1 PUSH2 0x37CA JUMPI POP DUP3 ISZERO JUMPDEST PUSH2 0x3811 JUMPI PUSH1 0x40 MLOAD PUSH3 0x461BCD PUSH1 0xE5 SHL DUP2 MSTORE PUSH1 0x20 PUSH1 0x4 DUP3 ADD MSTORE PUSH1 0x18 PUSH1 0x24 DUP3 ADD MSTORE PUSH24 0x43757272656E637920697320616464726573732830292C3 PUSH1 0x44 SHL PUSH1 0x44 DUP3 ADD MSTORE PUSH1 0x64 ADD PUSH2 0xA4F JUMP JUMPDEST PUSH1 0x40 MLOAD PUSH4 0x509FF69B PUSH1 0xE0 SHL DUP2 MSTORE PUSH1 0x1 PUSH1 0x1 PUSH1 0xA0 SHL SUB DUP6 DUP2 AND PUSH1 0x4 DUP4 ADD MSTORE PUSH1 0x24 DUP3 ADD DUP6 SWAP1 MSTORE PUSH1 0x0 SWAP2 PUSH32 0x0 SWAP1 SWAP2 AND SWAP1 PUSH4 0x509FF69B SWAP1 PUSH1 0x44 ADD PUSH1 0x20 PUSH1 0x40 MLOAD DUP1 DUP4 SUB DUP2 PUSH1 0x0 DUP8 GAS CALL ISZERO DUP1 ISZERO PUSH2 0x3885 JUMPI RETURNDATASIZE PUSH1 0x0 DUP1 RETURNDATACOPY RETURNDATASIZE PUSH1 0x0 REVERT JUMPDEST POP POP POP POP PUSH1 0x40 MLOAD RETURNDATASIZE PUSH1 0x1F NOT PUSH1 0x1F DUP3 ADD AND DUP3 ADD DUP1 PUSH1 0x40 MSTORE POP DUP2 ADD SWAP1 PUSH2 0x38A9 SWAP2 SWAP1 PUSH2 0x4439 JUMP JUMPDEST SWAP1 POP PUSH2 0x133A DUP2 DUP5 DUP5 PUSH2 0x3E1E JUMP JUMPDEST PUSH1 0x0 PUSH2 0x38C1 DUP3 PUSH2 0x1341 JUMP JUMPDEST SWAP1 POP PUSH1 0x1 PUSH1 0x1 PUSH1 0x40 SHL SUB DUP2 AND PUSH2 0x38D7 JUMPI POP POP POP POP JUMP JUMPDEST PUSH2 0x38DF PUSH2 0x161F JUMP JUMPDEST ISZERO PUSH2 0x38FC JUMPI PUSH1 0x40 MLOAD PUSH3 0x461BCD PUSH1 0xE5 SHL DUP2 MSTORE PUSH1 0x4 ADD PUSH2 0xA4F SWAP1 PUSH2 0x4452 JUMP JUMPDEST PUSH1 0x40 MLOAD PUSH4 0xC33470D3 PUSH1 0xE0 SHL DUP2 MSTORE PUSH1 0x4 DUP2 ADD DUP6 SWAP1 MSTORE PUSH4 0x285116A1 PUSH1 0xE2 SHL PUSH1 0x24 DUP3 ADD MSTORE PUSH32 0x0 PUSH1 0x1 PUSH1 0x1 PUSH1 0xA0 SHL SUB AND SWAP1 PUSH4 0xC33470D3 SWAP1 PUSH1 0x44 ADD PUSH1 0x20 PUSH1 0x40 MLOAD DUP1 DUP4 SUB DUP2 DUP7 GAS STATICCALL ISZERO DUP1 ISZERO PUSH2 0x396E JUMPI RETURNDATASIZE PUSH1 0x0 DUP1 RETURNDATACOPY RETURNDATASIZE PUSH1 0x0 REVERT JUMPDEST POP POP POP POP PUSH1 0x40 MLOAD RETURNDATASIZE PUSH1 0x1F NOT PUSH1 0x1F DUP3 ADD AND DUP3 ADD DUP1 PUSH1 0x40 MSTORE POP DUP2 ADD SWAP1 PUSH2 0x3992 SWAP2 SWAP1 PUSH2 0x4400 JUMP JUMPDEST ISZERO PUSH2 0x3AC3 JUMPI PUSH1 0x40 MLOAD PUSH4 0xC25E483 PUSH1 0xE1 SHL DUP2 MSTORE PUSH1 0x4 DUP2 ADD DUP6 SWAP1 MSTORE PUSH32 0x0 PUSH1 0x1 PUSH1 0x1 PUSH1 0xA0 SHL SUB AND SWAP1 PUSH4 0x184BC906 SWAP1 PUSH1 0x24 ADD PUSH1 0x20 PUSH1 0x40 MLOAD DUP1 DUP4 SUB DUP2 DUP7 GAS STATICCALL ISZERO DUP1 ISZERO PUSH2 0x39FC JUMPI RETURNDATASIZE PUSH1 0x0 DUP1 RETURNDATACOPY RETURNDATASIZE PUSH1 0x0 REVERT JUMPDEST POP POP POP POP PUSH1 0x40 MLOAD RETURNDATASIZE PUSH1 0x1F NOT PUSH1 0x1F DUP3 ADD AND DUP3 ADD DUP1 PUSH1 0x40 MSTORE POP DUP2 ADD SWAP1 PUSH2 0x3A20 SWAP2 SWAP1 PUSH2 0x458E JUMP JUMPDEST PUSH1 0x1 PUSH1 0x1 PUSH1 0xA0 SHL SUB AND PUSH4 0xA0BB9323 PUSH1 0x40 MLOAD DUP2 PUSH4 0xFFFFFFFF AND PUSH1 0xE0 SHL DUP2 MSTORE PUSH1 0x4 ADD PUSH1 0x20 PUSH1 0x40 MLOAD DUP1 DUP4 SUB DUP2 DUP7 GAS STATICCALL ISZERO DUP1 ISZERO PUSH2 0x3A5D JUMPI RETURNDATASIZE PUSH1 0x0 DUP1 RETURNDATACOPY RETURNDATASIZE PUSH1 0x0 REVERT JUMPDEST POP POP POP POP PUSH1 0x40 MLOAD RETURNDATASIZE PUSH1 0x1F NOT PUSH1 0x1F DUP3 ADD AND DUP3 ADD DUP1 PUSH1 0x40 MSTORE POP DUP2 ADD SWAP1 PUSH2 0x3A81 SWAP2 SWAP1 PUSH2 0x4400 JUMP JUMPDEST PUSH2 0x3AC3 JUMPI PUSH1 0x40 MLOAD PUSH3 0x461BCD PUSH1 0xE5 SHL DUP2 MSTORE PUSH1 0x20 PUSH1 0x4 DUP3 ADD MSTORE PUSH1 0x13 PUSH1 0x24 DUP3 ADD MSTORE PUSH19 0x546F6B656E206E6F742062616E6B6561626C65 PUSH1 0x68 SHL PUSH1 0x44 DUP3 ADD MSTORE PUSH1 0x64 ADD PUSH2 0xA4F JUMP JUMPDEST PUSH32 0x0 PUSH1 0x1 PUSH1 0x1 PUSH1 0xA0 SHL SUB AND PUSH4 0x4635229B PUSH1 0x40 MLOAD DUP2 PUSH4 0xFFFFFFFF AND PUSH1 0xE0 SHL DUP2 MSTORE PUSH1 0x4 ADD PUSH1 0x20 PUSH1 0x40 MLOAD DUP1 DUP4 SUB DUP2 DUP7 GAS STATICCALL ISZERO DUP1 ISZERO PUSH2 0x3B21 JUMPI RETURNDATASIZE PUSH1 0x0 DUP1 RETURNDATACOPY RETURNDATASIZE PUSH1 0x0 REVERT JUMPDEST POP POP POP POP PUSH1 0x40 MLOAD RETURNDATASIZE PUSH1 0x1F NOT PUSH1 0x1F DUP3 ADD AND DUP3 ADD DUP1 PUSH1 0x40 MSTORE POP DUP2 ADD SWAP1 PUSH2 0x3B45 SWAP2 SWAP1 PUSH2 0x4400 JUMP JUMPDEST PUSH2 0x3D94 JUMPI PUSH1 0x40 MLOAD PUSH4 0xA663D4F5 PUSH1 0xE0 SHL DUP2 MSTORE PUSH1 0x4 DUP2 ADD DUP6 SWAP1 MSTORE PUSH1 0x1 PUSH1 0x24 DUP3 ADD MSTORE PUSH32 0x0 PUSH1 0x1 PUSH1 0x1 PUSH1 0xA0 SHL SUB AND SWAP1 PUSH4 0xA663D4F5 SWAP1 PUSH1 0x44 ADD PUSH1 0x20 PUSH1 0x40 MLOAD DUP1 DUP4 SUB DUP2 DUP7 GAS STATICCALL ISZERO DUP1 ISZERO PUSH2 0x3BB5 JUMPI RETURNDATASIZE PUSH1 0x0 DUP1 RETURNDATACOPY RETURNDATASIZE PUSH1 0x0 REVERT JUMPDEST POP POP POP POP PUSH1 0x40 MLOAD RETURNDATASIZE PUSH1 0x1F NOT PUSH1 0x1F DUP3 ADD AND DUP3 ADD DUP1 PUSH1 0x40 MSTORE POP DUP2 ADD SWAP1 PUSH2 0x3BD9 SWAP2 SWAP1 PUSH2 0x4400 JUMP JUMPDEST ISZERO PUSH2 0x3BE3 JUMPI PUSH2 0x3D94 JUMP JUMPDEST PUSH1 0x40 MLOAD PUSH4 0xA663D4F5 PUSH1 0xE0 SHL DUP2 MSTORE PUSH1 0x4 DUP2 ADD DUP6 SWAP1 MSTORE PUSH1 0x2 PUSH1 0x24 DUP3 ADD MSTORE PUSH32 0x0 PUSH1 0x1 PUSH1 0x1 PUSH1 0xA0 SHL SUB AND SWAP1 PUSH4 0xA663D4F5 SWAP1 PUSH1 0x44 ADD PUSH1 0x20 PUSH1 0x40 MLOAD DUP1 DUP4 SUB DUP2 DUP7 GAS STATICCALL ISZERO DUP1 ISZERO PUSH2 0x3C4F JUMPI RETURNDATASIZE PUSH1 0x0 DUP1 RETURNDATACOPY RETURNDATASIZE PUSH1 0x0 REVERT JUMPDEST POP POP POP POP PUSH1 0x40 MLOAD RETURNDATASIZE PUSH1 0x1F NOT PUSH1 0x1F DUP3 ADD AND DUP3 ADD DUP1 PUSH1 0x40 MSTORE POP DUP2 ADD SWAP1 PUSH2 0x3C73 SWAP2 SWAP1 PUSH2 0x4400 JUMP JUMPDEST ISZERO PUSH2 0x3D94 JUMPI PUSH1 0x40 MLOAD PUSH4 0xC25E483 PUSH1 0xE1 SHL DUP2 MSTORE PUSH1 0x4 DUP2 ADD DUP6 SWAP1 MSTORE PUSH32 0x0 PUSH1 0x1 PUSH1 0x1 PUSH1 0xA0 SHL SUB AND SWAP1 PUSH4 0x184BC906 SWAP1 PUSH1 0x24 ADD PUSH1 0x20 PUSH1 0x40 MLOAD DUP1 DUP4 SUB DUP2 DUP7 GAS STATICCALL ISZERO DUP1 ISZERO PUSH2 0x3CDD JUMPI RETURNDATASIZE PUSH1 0x0 DUP1 RETURNDATACOPY RETURNDATASIZE PUSH1 0x0 REVERT JUMPDEST POP POP POP POP PUSH1 0x40 MLOAD RETURNDATASIZE PUSH1 0x1F NOT PUSH1 0x1F DUP3 ADD AND DUP3 ADD DUP1 PUSH1 0x40 MSTORE POP DUP2 ADD SWAP1 PUSH2 0x3D01 SWAP2 SWAP1 PUSH2 0x458E JUMP JUMPDEST PUSH1 0x1 PUSH1 0x1 PUSH1 0xA0 SHL SUB AND PUSH4 0x23B872DD DUP5 ADDRESS PUSH2 0x3D1A DUP6 PUSH2 0x1D5D JUMP JUMPDEST PUSH1 0x40 MLOAD PUSH1 0x1 PUSH1 0x1 PUSH1 0xE0 SHL SUB NOT PUSH1 0xE0 DUP7 SWAP1 SHL AND DUP2 MSTORE PUSH1 0x1 PUSH1 0x1 PUSH1 0xA0 SHL SUB SWAP4 DUP5 AND PUSH1 0x4 DUP3 ADD MSTORE SWAP3 SWAP1 SWAP2 AND PUSH1 0x24 DUP4 ADD MSTORE PUSH1 0x44 DUP3 ADD MSTORE PUSH1 0x64 ADD PUSH1 0x20 PUSH1 0x40 MLOAD DUP1 DUP4 SUB DUP2 PUSH1 0x0 DUP8 GAS CALL ISZERO DUP1 ISZERO PUSH2 0x3D6E JUMPI RETURNDATASIZE PUSH1 0x0 DUP1 RETURNDATACOPY RETURNDATASIZE PUSH1 0x0 REVERT JUMPDEST POP POP POP POP PUSH1 0x40 MLOAD RETURNDATASIZE PUSH1 0x1F NOT PUSH1 0x1F DUP3 ADD AND DUP3 ADD DUP1 PUSH1 0x40 MSTORE POP DUP2 ADD SWAP1 PUSH2 0x3D92 SWAP2 SWAP1 PUSH2 0x4400 JUMP JUMPDEST POP JUMPDEST PUSH1 0x40 MLOAD PUSH4 0x16F4B929 PUSH1 0xE2 SHL DUP2 MSTORE PUSH20 0x0 SWAP1 PUSH4 0x5BD2E4A4 SWAP1 PUSH2 0x3DCE SWAP1 PUSH1 0x1 SWAP1 DUP8 SWAP1 PUSH1 0x4 ADD PUSH2 0x4422 JUMP JUMPDEST PUSH1 0x20 PUSH1 0x40 MLOAD DUP1 DUP4 SUB DUP2 DUP7 GAS DELEGATECALL ISZERO DUP1 ISZERO PUSH2 0x3DEB JUMPI RETURNDATASIZE PUSH1 0x0 DUP1 RETURNDATACOPY RETURNDATASIZE PUSH1 0x0 REVERT JUMPDEST POP POP POP POP PUSH1 0x40 MLOAD RETURNDATASIZE PUSH1 0x1F NOT PUSH1 0x1F DUP3 ADD AND DUP3 ADD DUP1 PUSH1 0x40 MSTORE POP DUP2 ADD SWAP1 PUSH2 0x3E0F SWAP2 SWAP1 PUSH2 0x4400 JUMP JUMPDEST POP PUSH2 0x10EB DUP5 DUP5 PUSH2 0x1005 DUP5 PUSH2 0x1D5D JUMP JUMPDEST PUSH1 0x0 PUSH2 0x3E29 DUP3 PUSH2 0x1341 JUMP JUMPDEST SWAP1 POP PUSH1 0x1 PUSH1 0x1 PUSH1 0x40 SHL SUB DUP2 AND PUSH2 0x3E3F JUMPI POP POP POP POP JUMP JUMPDEST PUSH2 0x3E47 PUSH2 0x161F JUMP JUMPDEST ISZERO PUSH2 0x3E64 JUMPI PUSH1 0x40 MLOAD PUSH3 0x461BCD PUSH1 0xE5 SHL DUP2 MSTORE PUSH1 0x4 ADD PUSH2 0xA4F SWAP1 PUSH2 0x4452 JUMP JUMPDEST DUP1 PUSH1 0x1 PUSH1 0x1 PUSH1 0x40 SHL SUB AND PUSH2 0x3E78 DUP6 DUP6 PUSH2 0x2557 JUMP JUMPDEST PUSH1 0x1 PUSH1 0x1 PUSH1 0x40 SHL SUB AND LT ISZERO PUSH2 0x3E8C JUMPI PUSH1 0x0 DUP1 REVERT JUMPDEST PUSH32 0x0 PUSH1 0x1 PUSH1 0x1 PUSH1 0xA0 SHL SUB AND PUSH4 0x4635229B PUSH1 0x40 MLOAD DUP2 PUSH4 0xFFFFFFFF AND PUSH1 0xE0 SHL DUP2 MSTORE PUSH1 0x4 ADD PUSH1 0x20 PUSH1 0x40 MLOAD DUP1 DUP4 SUB DUP2 DUP7 GAS STATICCALL ISZERO DUP1 ISZERO PUSH2 0x3EEA JUMPI RETURNDATASIZE PUSH1 0x0 DUP1 RETURNDATACOPY RETURNDATASIZE PUSH1 0x0 REVERT JUMPDEST POP POP POP POP PUSH1 0x40 MLOAD RETURNDATASIZE PUSH1 0x1F NOT PUSH1 0x1F DUP3 ADD AND DUP3 ADD DUP1 PUSH1 0x40 MSTORE POP DUP2 ADD SWAP1 PUSH2 0x3F0E SWAP2 SWAP1 PUSH2 0x4400 JUMP JUMPDEST PUSH2 0x418A JUMPI PUSH1 0x40 MLOAD PUSH4 0xA663D4F5 PUSH1 0xE0 SHL DUP2 MSTORE PUSH1 0x4 DUP2 ADD DUP6 SWAP1 MSTORE PUSH1 0x1 PUSH1 0x24 DUP3 ADD MSTORE PUSH32 0x0 PUSH1 0x1 PUSH1 0x1 PUSH1 0xA0 SHL SUB AND SWAP1 PUSH4 0xA663D4F5 SWAP1 PUSH1 0x44 ADD PUSH1 0x20 PUSH1 0x40 MLOAD DUP1 DUP4 SUB DUP2 DUP7 GAS STATICCALL ISZERO DUP1 ISZERO PUSH2 0x3F7E JUMPI RETURNDATASIZE PUSH1 0x0 DUP1 RETURNDATACOPY RETURNDATASIZE PUSH1 0x0 REVERT JUMPDEST POP POP POP POP PUSH1 0x40 MLOAD RETURNDATASIZE PUSH1 0x1F NOT PUSH1 0x1F DUP3 ADD AND DUP3 ADD DUP1 PUSH1 0x40 MSTORE POP DUP2 ADD SWAP1 PUSH2 0x3FA2 SWAP2 SWAP1 PUSH2 0x4400 JUMP JUMPDEST ISZERO PUSH2 0x3FE3 JUMPI PUSH1 0x40 MLOAD PUSH1 0x1 PUSH1 0x1 PUSH1 0xA0 SHL SUB DUP5 AND SWAP1 DUP4 ISZERO PUSH2 0x8FC MUL SWAP1 DUP5 SWAP1 PUSH1 0x0 DUP2 DUP2 DUP2 DUP6 DUP9 DUP9 CALL SWAP4 POP POP POP POP ISZERO DUP1 ISZERO PUSH2 0x3FDD JUMPI RETURNDATASIZE PUSH1 0x0 DUP1 RETURNDATACOPY RETURNDATASIZE PUSH1 0x0 REVERT JUMPDEST POP PUSH2 0x418A JUMP JUMPDEST PUSH1 0x40 MLOAD PUSH4 0xA663D4F5 PUSH1 0xE0 SHL DUP2 MSTORE PUSH1 0x4 DUP2 ADD DUP6 SWAP1 MSTORE PUSH1 0x2 PUSH1 0x24 DUP3 ADD MSTORE PUSH32 0x0 PUSH1 0x1 PUSH1 0x1 PUSH1 0xA0 SHL SUB AND SWAP1 PUSH4 0xA663D4F5 SWAP1 PUSH1 0x44 ADD PUSH1 0x20 PUSH1 0x40 MLOAD DUP1 DUP4 SUB DUP2 DUP7 GAS STATICCALL ISZERO DUP1 ISZERO PUSH2 0x404F JUMPI RETURNDATASIZE PUSH1 0x0 DUP1 RETURNDATACOPY RETURNDATASIZE PUSH1 0x0 REVERT JUMPDEST POP POP POP POP PUSH1 0x40 MLOAD RETURNDATASIZE PUSH1 0x1F NOT PUSH1 0x1F DUP3 ADD AND DUP3 ADD DUP1 PUSH1 0x40 MSTORE POP DUP2 ADD SWAP1 PUSH2 0x4073 SWAP2 SWAP1 PUSH2 0x4400 JUMP JUMPDEST ISZERO PUSH2 0x418A JUMPI PUSH1 0x40 MLOAD PUSH4 0xC25E483 PUSH1 0xE1 SHL DUP2 MSTORE PUSH1 0x4 DUP2 ADD DUP6 SWAP1 MSTORE PUSH32 0x0 PUSH1 0x1 PUSH1 0x1 PUSH1 0xA0 SHL SUB AND SWAP1 PUSH4 0x184BC906 SWAP1 PUSH1 0x24 ADD PUSH1 0x20 PUSH1 0x40 MLOAD DUP1 DUP4 SUB DUP2 DUP7 GAS STATICCALL ISZERO DUP1 ISZERO PUSH2 0x40DD JUMPI RETURNDATASIZE PUSH1 0x0 DUP1 RETURNDATACOPY RETURNDATASIZE PUSH1 0x0 REVERT JUMPDEST POP POP POP POP PUSH1 0x40 MLOAD RETURNDATASIZE PUSH1 0x1F NOT PUSH1 0x1F DUP3 ADD AND DUP3 ADD DUP1 PUSH1 0x40 MSTORE POP DUP2 ADD SWAP1 PUSH2 0x4101 SWAP2 SWAP1 PUSH2 0x458E JUMP JUMPDEST PUSH1 0x1 PUSH1 0x1 PUSH1 0xA0 SHL SUB AND PUSH4 0xA9059CBB DUP5 PUSH2 0x4119 DUP5 PUSH2 0x1D5D JUMP JUMPDEST PUSH1 0x40 MLOAD PUSH1 0x1 PUSH1 0x1 PUSH1 0xE0 SHL SUB NOT PUSH1 0xE0 DUP6 SWAP1 SHL AND DUP2 MSTORE PUSH1 0x1 PUSH1 0x1 PUSH1 0xA0 SHL SUB SWAP1 SWAP3 AND PUSH1 0x4 DUP4 ADD MSTORE PUSH1 0x24 DUP3 ADD MSTORE PUSH1 0x44 ADD PUSH1 0x20 PUSH1 0x40 MLOAD DUP1 DUP4 SUB DUP2 PUSH1 0x0 DUP8 GAS CALL ISZERO DUP1 ISZERO PUSH2 0x4164 JUMPI RETURNDATASIZE PUSH1 0x0 DUP1 RETURNDATACOPY RETURNDATASIZE PUSH1 0x0 REVERT JUMPDEST POP POP POP POP PUSH1 0x40 MLOAD RETURNDATASIZE PUSH1 0x1F NOT PUSH1 0x1F DUP3 ADD AND DUP3 ADD DUP1 PUSH1 0x40 MSTORE POP DUP2 ADD SWAP1 PUSH2 0x4188 SWAP2 SWAP1 PUSH2 0x4400 JUMP JUMPDEST POP JUMPDEST PUSH2 0x10EB DUP5 DUP5 PUSH2 0xFF2 DUP5 PUSH2 0x1D5D JUMP JUMPDEST PUSH1 0x0 DUP1 DUP6 DUP6 GT ISZERO PUSH2 0x41A8 JUMPI PUSH1 0x0 DUP1 REVERT JUMPDEST DUP4 DUP7 GT ISZERO PUSH2 0x41B5 JUMPI PUSH1 0x0 DUP1 REVERT JUMPDEST POP POP DUP3 ADD SWAP4 SWAP2 SWAP1 SWAP3 SUB SWAP2 POP JUMP JUMPDEST PUSH1 0x0 PUSH1 0x20 DUP3 DUP5 SUB SLT ISZERO PUSH2 0x41D4 JUMPI PUSH1 0x0 DUP1 REVERT JUMPDEST DUP2 CALLDATALOAD PUSH1 0x1 PUSH1 0x1 PUSH1 0xE0 SHL SUB NOT DUP2 AND DUP2 EQ PUSH2 0x1C8C JUMPI PUSH1 0x0 DUP1 REVERT JUMPDEST PUSH1 0x1 PUSH1 0x1 PUSH1 0xA0 SHL SUB DUP2 AND DUP2 EQ PUSH2 0x23ED JUMPI PUSH1 0x0 DUP1 REVERT JUMPDEST PUSH1 0x0 DUP1 PUSH1 0x40 DUP4 DUP6 SUB SLT ISZERO PUSH2 0x4214 JUMPI PUSH1 0x0 DUP1 REVERT JUMPDEST DUP3 CALLDATALOAD SWAP2 POP PUSH1 0x20 DUP4 ADD CALLDATALOAD PUSH2 0x4226 DUP2 PUSH2 0x41EC JUMP JUMPDEST DUP1 SWAP2 POP POP SWAP3 POP SWAP3 SWAP1 POP JUMP JUMPDEST PUSH1 0x0 DUP1 PUSH1 0x0 PUSH1 0x60 DUP5 DUP7 SUB SLT ISZERO PUSH2 0x4246 JUMPI PUSH1 0x0 DUP1 REVERT JUMPDEST DUP4 CALLDATALOAD PUSH2 0x4251 DUP2 PUSH2 0x41EC JUMP JUMPDEST SWAP6 PUSH1 0x20 DUP6 ADD CALLDATALOAD SWAP6 POP PUSH1 0x40 SWAP1 SWAP5 ADD CALLDATALOAD SWAP4 SWAP3 POP POP POP JUMP JUMPDEST PUSH1 0x0 DUP1 PUSH1 0x0 DUP1 PUSH1 0x80 DUP6 DUP8 SUB SLT ISZERO PUSH2 0x427C JUMPI PUSH1 0x0 DUP1 REVERT JUMPDEST DUP5 CALLDATALOAD SWAP4 POP PUSH1 0x20 DUP6 ADD CALLDATALOAD PUSH2 0x428E DUP2 PUSH2 0x41EC JUMP JUMPDEST SWAP3 POP PUSH1 0x40 DUP6 ADD CALLDATALOAD PUSH2 0x429E DUP2 PUSH2 0x41EC JUMP JUMPDEST SWAP4 SWAP7 SWAP3 SWAP6 POP SWAP3 SWAP4 PUSH1 0x60 ADD CALLDATALOAD SWAP3 POP POP JUMP JUMPDEST PUSH1 0x0 PUSH1 0x20 DUP3 DUP5 SUB SLT ISZERO PUSH2 0x42C0 JUMPI PUSH1 0x0 DUP1 REVERT JUMPDEST POP CALLDATALOAD SWAP2 SWAP1 POP JUMP JUMPDEST PUSH1 0x0 PUSH1 0x20 DUP3 DUP5 SUB SLT ISZERO PUSH2 0x42D9 JUMPI PUSH1 0x0 DUP1 REVERT JUMPDEST DUP2 CALLDATALOAD PUSH2 0x1C8C DUP2 PUSH2 0x41EC JUMP JUMPDEST PUSH1 0x0 DUP1 PUSH1 0x0 DUP1 PUSH1 0x80 DUP6 DUP8 SUB SLT ISZERO PUSH2 0x42FA JUMPI PUSH1 0x0 DUP1 REVERT JUMPDEST DUP5 CALLDATALOAD PUSH2 0x4305 DUP2 PUSH2 0x41EC JUMP JUMPDEST SWAP4 POP PUSH1 0x20 DUP6 ADD CALLDATALOAD SWAP3 POP PUSH1 0x40 DUP6 ADD CALLDATALOAD PUSH2 0x429E DUP2 PUSH2 0x41EC JUMP JUMPDEST PUSH1 0x0 PUSH1 0x20 DUP3 DUP5 SUB SLT ISZERO PUSH2 0x432E JUMPI PUSH1 0x0 DUP1 REVERT JUMPDEST DUP2 CALLDATALOAD PUSH6 0xFFFFFFFFFFFF DUP2 AND DUP2 EQ PUSH2 0x1C8C JUMPI PUSH1 0x0 DUP1 REVERT JUMPDEST PUSH1 0x0 DUP1 PUSH1 0x40 DUP4 DUP6 SUB SLT ISZERO PUSH2 0x4357 JUMPI PUSH1 0x0 DUP1 REVERT JUMPDEST DUP3 CALLDATALOAD PUSH2 0x4362 DUP2 PUSH2 0x41EC JUMP JUMPDEST SWAP5 PUSH1 0x20 SWAP4 SWAP1 SWAP4 ADD CALLDATALOAD SWAP4 POP POP POP JUMP JUMPDEST PUSH1 0x0 PUSH1 0x20 DUP3 DUP5 SUB SLT ISZERO PUSH2 0x4382 JUMPI PUSH1 0x0 DUP1 REVERT JUMPDEST DUP2 CALLDATALOAD PUSH1 0x1 PUSH1 0x1 PUSH1 0x40 SHL SUB DUP2 AND DUP2 EQ PUSH2 0x1C8C JUMPI PUSH1 0x0 DUP1 REVERT JUMPDEST PUSH1 0x0 PUSH1 0x20 DUP3 DUP5 SUB SLT ISZERO PUSH2 0x43AB JUMPI PUSH1 0x0 DUP1 REVERT JUMPDEST DUP2 CALLDATALOAD PUSH4 0xFFFFFFFF DUP2 AND DUP2 EQ PUSH2 0x1C8C JUMPI PUSH1 0x0 DUP1 REVERT JUMPDEST PUSH1 0x0 DUP1 PUSH1 0x0 PUSH1 0x60 DUP5 DUP7 SUB SLT ISZERO PUSH2 0x43D4 JUMPI PUSH1 0x0 DUP1 REVERT JUMPDEST DUP4 CALLDATALOAD PUSH2 0x43DF DUP2 PUSH2 0x41EC JUMP JUMPDEST SWAP3 POP PUSH1 0x20 DUP5 ADD CALLDATALOAD PUSH2 0x43EF DUP2 PUSH2 0x41EC JUMP JUMPDEST SWAP3 SWAP6 SWAP3 SWAP5 POP POP POP PUSH1 0x40 SWAP2 SWAP1 SWAP2 ADD CALLDATALOAD SWAP1 JUMP JUMPDEST PUSH1 0x0 PUSH1 0x20 DUP3 DUP5 SUB SLT ISZERO PUSH2 0x4412 JUMPI PUSH1 0x0 DUP1 REVERT JUMPDEST DUP2 MLOAD DUP1 ISZERO ISZERO DUP2 EQ PUSH2 0x1C8C JUMPI PUSH1 0x0 DUP1 REVERT JUMPDEST SWAP2 DUP3 MSTORE PUSH1 0x1 PUSH1 0x1 PUSH1 0xA0 SHL SUB AND PUSH1 0x20 DUP3 ADD MSTORE PUSH1 0x40 ADD SWAP1 JUMP JUMPDEST PUSH1 0x0 PUSH1 0x20 DUP3 DUP5 SUB SLT ISZERO PUSH2 0x444B JUMPI PUSH1 0x0 DUP1 REVERT JUMPDEST POP MLOAD SWAP2 SWAP1 POP JUMP JUMPDEST PUSH1 0x20 DUP1 DUP3 MSTORE PUSH1 0x10 SWAP1 DUP3 ADD MSTORE PUSH16 0x10DBDB9D1C9858DD081CDD1BDC1C1959 PUSH1 0x82 SHL PUSH1 0x40 DUP3 ADD MSTORE PUSH1 0x60 ADD SWAP1 JUMP JUMPDEST PUSH4 0x4E487B71 PUSH1 0xE0 SHL PUSH1 0x0 MSTORE PUSH1 0x11 PUSH1 0x4 MSTORE PUSH1 0x24 PUSH1 0x0 REVERT JUMPDEST PUSH1 0x0 DUP3 PUSH2 0x44AF JUMPI PUSH4 0x4E487B71 PUSH1 0xE0 SHL PUSH1 0x0 MSTORE PUSH1 0x12 PUSH1 0x4 MSTORE PUSH1 0x24 PUSH1 0x0 REVERT JUMPDEST POP DIV SWAP1 JUMP JUMPDEST PUSH4 0x4E487B71 PUSH1 0xE0 SHL PUSH1 0x0 MSTORE PUSH1 0x1 PUSH1 0x4 MSTORE PUSH1 0x24 PUSH1 0x0 REVERT JUMPDEST PUSH1 0x0 PUSH1 0x1 PUSH1 0x1 PUSH1 0x40 SHL SUB DUP1 DUP4 AND DUP2 DUP6 AND DUP1 DUP4 SUB DUP3 GT ISZERO PUSH2 0x44EC JUMPI PUSH2 0x44EC PUSH2 0x447C JUMP JUMPDEST ADD SWAP5 SWAP4 POP POP POP POP JUMP JUMPDEST PUSH1 0x0 PUSH1 0x1 PUSH1 0x1 PUSH1 0x40 SHL SUB DUP4 DUP2 AND SWAP1 DUP4 AND DUP2 DUP2 LT ISZERO PUSH2 0x4515 JUMPI PUSH2 0x4515 PUSH2 0x447C JUMP JUMPDEST SUB SWAP4 SWAP3 POP POP POP JUMP JUMPDEST PUSH1 0x0 DUP2 PUSH1 0x0 NOT DIV DUP4 GT DUP3 ISZERO ISZERO AND ISZERO PUSH2 0x4537 JUMPI PUSH2 0x4537 PUSH2 0x447C JUMP JUMPDEST POP MUL SWAP1 JUMP JUMPDEST PUSH1 0x0 DUP3 DUP3 LT ISZERO PUSH2 0x454E JUMPI PUSH2 0x454E PUSH2 0x447C JUMP JUMPDEST POP SUB SWAP1 JUMP JUMPDEST PUSH1 0x0 DUP3 MLOAD PUSH1 0x0 JUMPDEST DUP2 DUP2 LT ISZERO PUSH2 0x4574 JUMPI PUSH1 0x20 DUP2 DUP7 ADD DUP2 ADD MLOAD DUP6 DUP4 ADD MSTORE ADD PUSH2 0x455A JUMP JUMPDEST DUP2 DUP2 GT ISZERO PUSH2 0x4583 JUMPI PUSH1 0x0 DUP3 DUP6 ADD MSTORE JUMPDEST POP SWAP2 SWAP1 SWAP2 ADD SWAP3 SWAP2 POP POP JUMP JUMPDEST PUSH1 0x0 PUSH1 0x20 DUP3 DUP5 SUB SLT ISZERO PUSH2 0x45A0 JUMPI PUSH1 0x0 DUP1 REVERT JUMPDEST DUP2 MLOAD PUSH2 0x1C8C DUP2 PUSH2 0x41EC JUMP INVALID LOG2 PUSH5 0x6970667358 0x22 SLT KECCAK256 MSTORE8 0xD8 0xAB 0x5D CALLDATALOAD PUSH22 0xFB1D3E4CB067EA39C1D8E19F0C18A82D003E30CC3806 SLT GASPRICE 0x5E LOG1 PUSH5 0x736F6C6343 STOP ADDMOD SIGNEXTEND STOP CALLER ","sha1":"bf133bbf0b00114b33c4909a434814b6da9cae2f","source":"// SPDX-License-Identifier: MIT\n// Beef Contracts v0.0.0 hello@mcdu.com\n\npragma solidity ^0.8.0;\n\nimport \"@openzeppelin/contracts/utils/introspection/IERC165.sol\";\nimport \"@openzeppelin/contracts/token/ERC20/IERC20.sol\";\n\nimport \"../agnostic/Mode.sol\";\nimport \"../agnostic/Array.sol\";\nimport \"../agnostic/UIntConverter.sol\";\nimport \"../agnostic/Token/TokenLib.sol\";\nimport \"../Quote/Quotator.sol\";\nimport \"../../interfaces/IPolymorph.sol\";\nimport \"../agnostic/StringLib.sol\";\nimport \"../../interfaces/ITradeableAndIBankable.sol\";\n\nbytes32 constant BANK = keccak256(\"Bank\");\n\ncontract Bank is\n    RepositoryContract,\n    UIntConverter\n{\n\n    function id() public view returns (bytes32) {return BANK;}\n\n    /////////////////////////////////////////////////////////////////////////////////////////\n    //      event\n    /////////////////////////////////////////////////////////////////////////////////////////\n    event Transferred(\n        bytes32 indexed currency_,\n        address indexed from_,\n        address indexed to_,\n        uint256 amount_\n    );\n    event Stacked(\n        bytes32 indexed currency_,\n        address indexed account_,\n        uint256 amount_\n    );\n\n    function _changed(bytes32 currency_, address account_) internal virtual {\n        (bool success, bytes memory data) = address(rep).call(\n            abi.encodeWithSelector(\n                bytes4(keccak256(\"_changed(bytes32,address)\")),\n                currency_,\n                account_\n            )\n        );\n        require(success, \"_changed\");\n    }\n\n    using Array for address[];\n    using Array for bytes32[];\n\n    struct AccountMain64 {\n        uint64 _balance;\n        uint64 _reserve;\n        uint64 _collateral;\n        bool _opaque;\n    }\n    struct AccountExtra64 {\n        uint64 _credit;\n        uint64 _allowance;\n        uint64 _collateralcredit;\n        uint64 _collateralallowance;\n    }\n    struct Account64 {\n        //2x256bits\n        AccountMain64 m;\n        AccountExtra64 e;\n    }\n    struct Account {\n        uint256 _balance;\n        uint256 _reserve;\n        uint256 _collateral;\n        uint256 _credit;\n        uint256 _allowance;\n        uint256 _collateralcredit;\n        uint256 _collateralallowance;\n        uint256 _available;\n        uint256 _unstackable;\n        uint256 _creditused;\n        uint256 _creditavailable;\n    }\n\n    /////////////////////////////////////////////////////////////////////////////////////////\n    //      constructor\n    /////////////////////////////////////////////////////////////////////////////////////////\n    constructor(Repository rep_) RepositoryContract(rep_) {}\n\n    function granularity(uint256 granularity_)\n        public\n        pure\n        returns (uint256 out_)\n    {\n        out_ = UInt64ToUInt256(UInt256ToUInt64(granularity_));\n        if (out_ == 0) out_ = UInt64ToUInt256(1);\n    }\n    function granularity(bytes32 tokenhash_)\n        public\n        view\n        virtual\n        returns (uint256)\n    {\n        return granularity(rep.granularity(tokenhash_));\n    }\n    /////////////////////////////////////////////////////////////////////////////////////////\n    //      pure virtual abstract\n    /////////////////////////////////////////////////////////////////////////////////////////\n    /*function _liquidate() internal virtual override {\n        //refund everyone fairly\n        \n        for (uint j;j<_currencies.length;j++)\n        {\n            address token = _currencies[j];\n            uint256 totalcredit = _credits[token];\n            if (totalcredit>available(token,ownerOf()))\n                totalcredit-=available(token,ownerOf());\n            else \n                totalcredit =0;\n            uint256 _totalsupply = IERC20(token).balanceOf(address(this));\n            if (_totalsupply!=0)\n            {\n                uint256 lostratio = (10**18*totalcredit) / _totalsupply;\n                for (uint i; i<_holders.length;i++)\n                {\n                    address  _holder = _holders[i];\n                    if (_holder==ownerOf()) continue;\n                    Account64 memory _account = _accounts[keccak256(abi.encodePacked(token, _holder))];\n                    if (_account.e._credit!=0||_account.e._collateralcredit!=0) continue;\n                    uint256 _torefund = UInt64ToUInt256(_account.m._balance) + UInt64ToUInt256(_account.m._reserve);\n                    _torefund -= (_torefund*lostratio) / 10**18;\n                    if (!MODETEST) IERC20(token).transfer(_holder, _torefund);\n                }\n            }\n\n            \n            _totalsupply = IERC20(token).balanceOf(address(this));\n            if (_totalsupply!=0)\n                if (!MODETEST) IERC20(token).transfer(ownerOf(), _totalsupply);\n        }\n    }*/\n\n    /////////////////////////////////////////////////////////////////////////////////////////\n    //      storage\n    /////////////////////////////////////////////////////////////////////////////////////////\n\n    address[] private _holders;\n    mapping(bytes32 => uint256) private _credits; // bytes32 is keccak(token,id)\n    bool private _stopcredit;\n    mapping(bytes32 => Account64) private _accounts; // bytes32 is keccak(keccak(token,id),account))\n\n    function _available64(bytes32 currency_, address account_)\n        internal\n        view\n        returns (uint64)\n    {\n        Account64 memory _account = _accounts[\n            BytesAndKeccakLib.pureBytes32Address(currency_, account_)\n        ];\n        if (_stopcredit) return _account.m._balance;\n        return _account.m._balance + _creditAvailable64(currency_, account_);\n    }\n\n    function available(bytes32 currency_, address account_)\n        public\n        view\n        returns (uint256)\n    {\n        return UInt64ToUInt256(_available64(currency_, account_));\n    }\n\n    function _unstackable64(bytes32 currency_, address account_)\n        internal\n        view\n        returns (uint64)\n    {\n        Account64 memory _account = _accounts[\n            BytesAndKeccakLib.pureBytes32Address(currency_, account_)\n        ];\n        if (\n            (_creditUsed64(currency_, account_) > 0) ||\n            (_account.m._collateral > _account.m._balance)\n        ) return 0;\n        return _account.m._balance - _account.m._collateral;\n    }\n\n    function _creditUsed64(bytes32 currency_, address account_)\n        internal\n        view\n        returns (uint64)\n    {\n        Account64 memory _account = _accounts[\n            BytesAndKeccakLib.pureBytes32Address(currency_, account_)\n        ];\n        return _account.e._credit + _account.e._collateralcredit;\n    }\n\n    function _creditAvailable64(bytes32 currency_, address account_)\n        internal\n        view\n        returns (uint64)\n    {\n        if (_stopcredit) return 0;\n        Account64 memory _account = _accounts[\n            BytesAndKeccakLib.pureBytes32Address(currency_, account_)\n        ];\n        if (\n            _creditUsed64(currency_, account_) >\n            _account.e._allowance + _account.e._collateralallowance\n        ) return 0;\n        return\n            _account.e._allowance +\n            _account.e._collateralallowance -\n            _creditUsed64(currency_, account_);\n    }\n\n    function account(bytes32 currency_, address account_)\n        external\n        view\n        returns (Account memory acc_)\n    {\n        Account64 storage _account = _accounts[\n            BytesAndKeccakLib.pureBytes32Address(currency_, account_)\n        ];\n        require(\n            (!_account.m._opaque) || (_msgSender() == account_),\n            \"Account is opaque\"\n        );\n\n        acc_._balance = UInt64ToUInt256(_account.m._balance);\n        acc_._reserve = UInt64ToUInt256(_account.m._reserve);\n        acc_._collateral = UInt64ToUInt256(_account.m._collateral);\n        acc_._credit = UInt64ToUInt256(_account.e._credit);\n        acc_._allowance = UInt64ToUInt256(_account.e._allowance);\n        acc_._collateralcredit = UInt64ToUInt256(_account.e._collateralcredit);\n        acc_._collateralallowance = UInt64ToUInt256(\n            _account.e._collateralallowance\n        );\n        acc_._available = UInt64ToUInt256(_available64(currency_, account_));\n        acc_._unstackable = UInt64ToUInt256(\n            _unstackable64(currency_, account_)\n        );\n        acc_._creditused = UInt64ToUInt256(_creditUsed64(currency_, account_));\n        acc_._creditavailable = UInt64ToUInt256(\n            _creditAvailable64(currency_, account_)\n        );\n    }\n\n    function __balanceAdd(\n        bytes32 currency_,\n        address account_,\n        uint256 amount__\n    ) internal {\n        uint64 _amount = UInt256ToUInt64(amount__);\n        if (_amount != 0) {\n            bytes32 _key = rep.Bytes32Address(currency_, account_);\n            Account64 memory _account = _accounts[_key];\n            bool creditchanged;\n            if (_account.e._credit > 0) {\n                if (_account.e._credit >= _amount) {\n                    _account.e._credit -= _amount;\n                    _credits[currency_] -= UInt64ToUInt256(_amount);\n                    _amount = 0;\n                } else {\n                    _amount -= _account.e._credit;\n                    _credits[currency_] -= UInt64ToUInt256(_account.e._credit);\n                    _account.e._credit = 0;\n                }\n                creditchanged = true;\n            }\n            bool creditcollateralchanged;\n            if (_account.e._collateralcredit > 0) {\n                if (_account.e._collateralcredit >= _amount) {\n                    _account.e._collateralcredit -= _amount;\n                    _credits[currency_] -= UInt64ToUInt256(_amount);\n                    _amount = 0;\n                } else {\n                    _amount -= _account.e._collateralcredit;\n                    _credits[currency_] -= UInt64ToUInt256(\n                        _account.e._collateralcredit\n                    );\n                    _account.e._collateralcredit = 0;\n                }\n                creditcollateralchanged = true;\n            }\n            bool balancechanged;\n            if (_amount > 0) {\n                _account.m._balance += _amount;\n                balancechanged = true;\n            }\n            if ((creditchanged || creditcollateralchanged) && (!balancechanged))\n                _accounts[_key].e = _account.e;\n            else if (\n                (!creditchanged) &&\n                (!creditcollateralchanged) &&\n                (balancechanged)\n            ) _accounts[_key].m = _account.m;\n            else _accounts[_key] = _account;\n            _changed(currency_, account_);\n        }\n    }\n\n    function __balanceSub(\n        bytes32 currency_,\n        address account_,\n        uint256 amount__\n    ) internal {\n        uint64 _amount = UInt256ToUInt64(amount__);\n        if (_amount != 0) {\n            bytes32 _key = rep.Bytes32Address(currency_, account_);\n            Account64 memory _account = _accounts[_key];\n\n            require(\n                (((!_stopcredit) &&\n                    (_account.m._balance +\n                        _creditAvailable64(currency_, account_) >=\n                        _amount)) ||\n                    ((_stopcredit) && (_account.m._balance >= _amount))),\n                \"Not enought balanceOf/credit allowance\"\n            );\n            bool creditcollateralchanged;\n            if (_amount > _account.m._balance) {\n                uint64 _newcredit = _amount - _account.m._balance;\n                uint64 _collateralcreditavail = _account\n                    .e\n                    ._collateralallowance - _account.e._collateralcredit;\n                if (_newcredit > _collateralcreditavail)\n                    _newcredit = _collateralcreditavail;\n                _account.e._collateralcredit += _newcredit;\n                _amount -= _newcredit;\n                creditcollateralchanged = true;\n            }\n            bool creditchanged;\n            if (_amount > _account.m._balance) {\n                uint64 _newcredit = _amount - _account.m._balance;\n                uint64 _creditavail = _account.e._allowance -\n                    _account.e._credit;\n                if (_newcredit > _creditavail) _newcredit = _creditavail;\n                _account.e._credit += _newcredit;\n                //_totalcredit+= _newcredit;\n                _amount -= _newcredit;\n                creditchanged = true;\n            }\n            bool balancechanged;\n            if (_amount > 0) {\n                _account.m._balance -= _amount;\n                balancechanged = true;\n            }\n            if ((creditchanged || creditcollateralchanged) && (!balancechanged))\n                _accounts[_key].e = _account.e;\n            else if (\n                (!creditchanged) &&\n                (!creditcollateralchanged) &&\n                (balancechanged)\n            ) _accounts[_key].m = _account.m;\n            else _accounts[_key] = _account;\n            _changed(currency_, account_);\n        }\n    }\n\n    function _reserveAdd(\n        bytes32 currency_,\n        address account_,\n        address,\n        uint256 amount__\n    ) external onlyContracts {\n        uint64 _amount = UInt256ToUInt64(amount__);\n\n        if (_amount != 0) {\n            bytes32 _key = rep.Bytes32Address(currency_, account_);\n            Account64 memory _account = _accounts[_key];\n\n            assert(_account.m._balance >= _amount);\n            _account.m._reserve += _amount;\n            _account.m._balance -= _amount;\n            _accounts[_key].m = _account.m;\n            _changed(currency_, account_);\n        }\n    }\n\n    function _reserveSub(\n        bytes32 currency_,\n        address account_,\n        address,\n        uint256 amount__\n    ) external onlyContracts {\n        uint64 _amount = UInt256ToUInt64(amount__);\n        if (_amount != 0) {\n            bytes32 _key = rep.Bytes32Address(currency_, account_);\n            Account64 memory _account = _accounts[_key];\n            _account.m._reserve -= _amount;\n            _account.m._balance += _amount;\n            _accounts[_key].m = _account.m;\n            _changed(currency_, account_);\n        }\n    }\n\n    function _collateralAdd(\n        bytes32 currency_,\n        address account_,\n        address,\n        uint256 amount__\n    ) external onlyContracts {\n        uint64 _amount = UInt256ToUInt64(amount__);\n        if (_amount != 0) {\n            bytes32 _key = rep.Bytes32Address(currency_, account_);\n            Account64 memory _account = _accounts[_key];\n            _account.m._collateral += _amount;\n            _accounts[_key].m = _account.m;\n            _changed(currency_, account_);\n        }\n    }\n\n    function _collateralSub(\n        bytes32 currency_,\n        address account_,\n        address,\n        uint256 amount__\n    ) external onlyContracts {\n        uint64 _amount = UInt256ToUInt64(amount__);\n        if (_amount != 0) {\n            bytes32 _key = rep.Bytes32Address(currency_, account_);\n            Account64 memory _account = _accounts[_key];\n            _account.m._collateral -= _amount;\n            _accounts[_key].m = _account.m;\n            _changed(currency_, account_);\n        }\n    }\n\n    function _collateralAllowanceAdd(\n        bytes32 currency_,\n        address account_,\n        address,\n        uint256 amount__\n    ) external onlyContracts {\n        uint64 _amount = UInt256ToUInt64(amount__);\n        if (_amount != 0) {\n            bytes32 _key = rep.Bytes32Address(currency_, account_);\n            Account64 memory _account = _accounts[_key];\n            _account.e._collateralallowance += _amount;\n            if (_account.e._credit > 0) {\n                uint64 _tocollateral = _account.e._collateralallowance -\n                    _account.e._collateralcredit;\n                if (_account.e._credit < _tocollateral)\n                    _tocollateral = _account.e._credit;\n                _account.e._credit -= _tocollateral;\n                _account.e._collateralcredit += _tocollateral;\n            }\n            _accounts[_key].e = _account.e;\n            _changed(currency_, account_);\n        }\n    }\n\n    function _collateralAllowanceSub(\n        bytes32 currency_,\n        address account_,\n        address,\n        uint256 amount__\n    ) external onlyContracts {\n        uint64 _amount = UInt256ToUInt64(amount__);\n        if (_amount != 0) {\n            bytes32 _key = rep.Bytes32Address(currency_, account_);\n            Account64 memory _account = _accounts[_key];\n            _account.e._collateralallowance -= _amount;\n            if (\n                _account.e._collateralcredit > _account.e._collateralallowance\n            ) {\n                uint64 _removecollateral = _account.e._collateralcredit -\n                    _account.e._collateralallowance;\n                _account.e._credit += _removecollateral;\n                _account.e._collateralcredit -= _removecollateral;\n            }\n            _accounts[_key].e = _account.e;\n            _changed(currency_, account_);\n        }\n    }\n\n    function _allowanceAdd(\n        bytes32 currency_,\n        address account_,\n        address,\n        uint256 amount__\n    ) external onlyContracts {\n        uint64 _amount = UInt256ToUInt64(amount__);\n        if (_amount != 0) {\n            bytes32 _key = rep.Bytes32Address(currency_, account_);\n            Account64 memory _account = _accounts[_key];\n            _account.e._allowance += _amount;\n            _accounts[_key].e = _account.e;\n            _changed(currency_, account_);\n        }\n    }\n\n    function _allowanceSub(\n        bytes32 currency_,\n        address account_,\n        address,\n        uint256 amount__\n    ) external onlyContracts {\n        uint64 _amount = UInt256ToUInt64(amount__);\n        if (_amount != 0) {\n            bytes32 _key = rep.Bytes32Address(currency_, account_);\n            Account64 memory _account = _accounts[_key];\n            _account.e._allowance -= _amount;\n            _accounts[_key].e = _account.e;\n            _changed(currency_, account_);\n        }\n    }\n\n    /////////////////////////////////////////////////////////////////////////////////////////\n    //      internal    public onlyContracts\n    /////////////////////////////////////////////////////////////////////////////////////////\n\n    function _transfer(\n        bytes32 currency_,\n        address accountfrom_,\n        address accountto_,\n        uint256 amount__\n    ) public onlyContracts {\n        uint64 _amount = UInt256ToUInt64(amount__);\n        if (_amount == 0) return;\n\n        require(!STOP(), \"Contract stopped\");\n        bytes32 _keyfrom = rep.Bytes32Address(currency_, accountfrom_);\n        bytes32 _keyto = rep.Bytes32Address(currency_, accountto_);\n        require(\n            _amount <= _available64(currency_, accountfrom_),\n            \"erc20 available(_accountfrom) < _amount\"\n        );\n\n        _holders.insert(accountto_);\n        __balanceSub(currency_, accountfrom_, UInt64ToUInt256(_amount));\n        __balanceAdd(currency_, accountto_, UInt64ToUInt256(_amount));\n        if ((!_accounts[_keyfrom].m._opaque) || (!_accounts[_keyto].m._opaque))\n            emit Transferred(\n                currency_,\n                _accounts[_keyfrom].m._opaque ? address(0) : accountfrom_,\n                _accounts[_keyto].m._opaque ? address(0) : accountto_,\n                amount__\n            );\n    }\n\n    /////////////////////////////////////////////////////////////////////////////////////////\n    //      public\n    /////////////////////////////////////////////////////////////////////////////////////////\n\n    /*function __tokenInfo(address token_, uint256 tokenid_)\n        private\n        returns (TokenInfo memory)\n    {\n        //(bool resultIERC165,bytes memory valIERC165) = token_.staticcall(abi.encodeWithSelector(bytes4(keccak256(\"supportsInterface(bytes4)\")),type(IPolymorph).interfaceId));\n        //require(false,StringLib.format(\"staticcall returns {}\",resultIERC165? \"True\":\"False\"));\n        //require(false,\"breakpoint\");\n\n        TokenInfo storage _info = _currencyinfos[token_];\n        if (_info.tokentype != TokenType.Unknown) return _info;\n\n        while (true) {\n            if (token_ == address(0)) {\n                _info.tokentype = TokenType.Cur;\n                _info.granularity = -18;\n                _currencies.insert(rep.currency(token_, tokenid_));\n                break;\n            }\n            try IERC165(token_).supportsInterface(type(IERC165).interfaceId) {\n                _info.features |= TokenInfoSupportERC165;\n            } catch {}\n            if (_info.features & TokenInfoSupportERC165 != 0) {\n                if (IERC165(token_).supportsInterface(type(IERC20).interfaceId))\n                    _info.features |= TokenInfoSupportERC20;\n                if (\n                    IERC165(token_).supportsInterface(\n                        type(ITradeable).interfaceId\n                    )\n                ) _info.features |= TokenInfoSupportTradeable;\n            } else {\n                try IERC20(token_).totalSupply() {\n                    _info.features |= TokenInfoSupportERC20;\n                } catch {}\n            }\n\n            if (_info.features & TokenInfoSupportERC20 != 0) {\n                _info.tokentype = TokenType.Erc20;\n                _info.granularity = -18;\n                _currencies.insert(rep.currency(token_, tokenid_));\n                break;\n            }\n\n            if (MODETEST) {\n                _info.tokentype = TokenType.Erc20;\n                _info.granularity = -18;\n                _currencies.insert(rep.currency(token_, tokenid_));\n                break;\n            }\n\n            require(false, \"Unresolved token type\");\n        }\n        return _info;\n    }*/\n\n    function stake(address token_, uint256 amount_) external payable all {\n        if (token_ != address(0)) __stake(token_, 0, _msgSender(), amount_);\n        if (msg.value > 0) __stake(address(0), 0, _msgSender(), msg.value);\n    }\n\n    function stake(\n        address token_,\n        uint256 tokenid_,\n        uint256 amount_\n    ) external payable all {\n        if (token_ != address(0))\n            __stake(token_, tokenid_, _msgSender(), amount_);\n        if (msg.value > 0) __stake(address(0), 0, _msgSender(), msg.value);\n    }\n\n    function unstake(address token_, uint256 amount_) external all {\n        __unstake(token_, 0, _msgSender(), amount_);\n    }\n\n    function unstake(\n        address token_,\n        uint256 tokenid_,\n        uint256 amount_\n    ) external all {\n        __unstake(token_, tokenid_, _msgSender(), amount_);\n    }\n\n    function testStake(\n        address token_,\n        address account_,\n        uint256 amount_\n    ) external all {\n        require(rep.MODETEST(), \"Must be in Mode Testing\");\n        __stake(token_, 0, account_, amount_);\n    }\n\n    function testStake(\n        address token_,\n        uint256 tokenid_,\n        address account_,\n        uint256 amount_\n    ) external all {\n        require(rep.MODETEST(), \"Must be in Mode Testing\");\n        __stake(token_, tokenid_, account_, amount_);\n    }\n\n    function testUnstake(\n        address token_,\n        address account_,\n        uint256 amount_\n    ) external all {\n        __unstake(token_, 0, account_, amount_);\n    }\n\n    function testUnstake(\n        address token_,\n        uint256 tokenid_,\n        address account_,\n        uint256 amount_\n    ) external all {\n        __unstake(token_, tokenid_, account_, amount_);\n    }\n\n    /////////////////////////////////////////////////////////////////////////////////////////\n    //      __private\n    /////////////////////////////////////////////////////////////////////////////////////////\n\n    function __stake(\n        address tokenaddr_,\n        uint256 tokenid_,\n        address account_,\n        uint256 amount__\n    ) private {\n        require(\n            tokenaddr_ != address(0) || tokenid_ == 0,\n            \"Currency is address(0),0\"\n        );\n        bytes32 tokenhash = rep.currency(tokenaddr_, tokenid_);\n        return __stake(tokenhash, account_, amount__);\n    }\n\n    function __stake(\n        bytes32 tokenhash_,\n        address account_,\n        uint256 amount__\n    ) private {\n        uint64 _amount = UInt256ToUInt64(amount__);\n        if (_amount == 0) return;\n\n        require(!STOP(), \"Contract stopped\");\n\n        //if (features(tokenhash_) != Token.TypeCurrency)\n        /*if (rep.existsCurrency(tokenhash_)) {\n            (address tokenAddr, uint256 tokenId) = rep.resolveCurrency(\n                tokenhash_\n            );\n            rep.token(tokenAddr, tokenId);\n        }*/\n\n        if (rep.supportsInterface(tokenhash_,type(IBankeable).interfaceId)) \n            require(\n                IBankeable(rep.resolveCurrencyAddr(tokenhash_)).bankeable(),\n                \"Token not bankeable\"\n            );\n        \n        //require(canEnter(token_), \"Token isn't allowed in bank\");\n\n        if (!rep.MODETEST()) {\n        if (rep.isFeatureType(tokenhash_,Token.TypeCurrency)) {} \n        else if (rep.isFeatureType(tokenhash_,Token.TypeERC20))\n                IERC20(rep.resolveCurrencyAddr(tokenhash_)).transferFrom(\n                    account_,\n                    address(this),\n                    UInt64ToUInt256(_amount)\n                );\n        }\n\n        _holders.insert(account_);\n        __balanceAdd(tokenhash_, account_, UInt64ToUInt256(_amount));\n    }\n\n    function __unstake(\n        address tokenaddr_,\n        uint256 tokenid_,\n        address account_,\n        uint256 amount__\n    ) private {\n        require(\n            tokenaddr_ != address(0) || tokenid_ == 0,\n            \"Currency is address(0),0\"\n        );\n        bytes32 tokenhash = rep.currency(tokenaddr_, tokenid_);\n        return __unstake(tokenhash, account_, amount__);\n    }\n\n    function __unstake(\n        bytes32 tokenhash_,\n        address account_,\n        uint256 amount__\n    ) private {\n        uint64 _amount = UInt256ToUInt64(amount__);\n        if (_amount == 0) return;\n        require(!STOP(), \"Contract stopped\");\n        require(_unstackable64(tokenhash_, account_) >= _amount);\n\n        if (!rep.MODETEST()) {\n            if (rep.isFeatureType(tokenhash_,Token.TypeCurrency))\n                payable(account_).transfer(amount__);\n            else if (rep.isFeatureType(tokenhash_,Token.TypeERC20))\n                IERC20(rep.resolveCurrencyAddr(tokenhash_)).transfer(account_, UInt64ToUInt256(_amount));\n        }\n\n        __balanceSub(tokenhash_, account_, UInt64ToUInt256(_amount));\n    }\n}\n","sourcePath":"contracts/Bank/Bank.sol","type":"contract","deployment":{"address":"0xF86654D9313927e529f9B92B913329CD5E05E8f2","chainid":"9997","blockHeight":32692}}