{"bytecode":"61265561003a600b82828239805160001a60731461002d57634e487b7160e01b600052600060045260246000fd5b30600052607381538281f3fe73000000000000000000000000000000000000000030146080604052600436106102525760003560e01c80635c59737e116101455780639d84366d116100c2578063db8b447411610086578063db8b4474146105fa578063e14f1c2a1461061a578063edefe12d14610645578063f132566314610665578063f1672aaf1461067857600080fd5b80639d84366d1461058e578063bcd9cc26146105a1578063c202f51b146105b4578063c25f860a146105c7578063c372f963146105e757600080fd5b80637fe05040116101095780637fe05040146105155780637fe25ec1146105285780638055206814610548578063825998c11461055b5780639b861f031461057b57600080fd5b80635c59737e1461048f578063677ca2d8146104a25780636b85d051146104c257806372be67bc146104e2578063792b24381461050257600080fd5b80633df92754116101d3578063538d6aab11610197578063538d6aab1461040957806357cbb6461461041c578063581869c41461042f57806359a07dde1461044f5780635bd2e4a41461046f57600080fd5b80633df927541461039d57806349a050d6146103b05780634a5668c5146103c35780634bcb0085146103d65780634d469d3d146103f657600080fd5b80632d9f65701161021a5780632d9f6570146102ff57806332b290ab1461032057806337159077146103425780633b06e74f1461036a5780633b2f7c2f1461037d57600080fd5b806310737d0b14610257578063138257481461028c5780631dfc7e13146102ac578063209978e8146102cc57806321b5a47d146102ec575b600080fd5b81801561026357600080fd5b50610277610272366004611bf8565b610698565b60405190151581526020015b60405180910390f35b61029f61029a366004611cf8565b6107ec565b6040516102839190611d5b565b8180156102b857600080fd5b506102776102c7366004611db6565b6108fe565b8180156102d857600080fd5b506102776102e7366004611dd9565b610a57565b6102776102fa366004611bf8565b610ac4565b61031261030d366004611dfb565b610b32565b604051908152602001610283565b81801561032c57600080fd5b5061034061033b366004611dfb565b610b84565b005b610355610350366004611dfb565b610bd6565b60405163ffffffff9091168152602001610283565b61029f610378366004611e14565b610c3c565b81801561038957600080fd5b50610277610398366004611e70565b610c94565b6102776103ab366004611e93565b610da7565b6102776103be366004611f29565b610df3565b6102776103d1366004612034565b610e53565b6103e96103e43660046120f6565b610eca565b604051610283919061220c565b61027761040436600461226e565b610fa2565b610277610417366004611e70565b610feb565b61027761042a366004611dd9565b611066565b81801561043b57600080fd5b5061027761044a366004611dd9565b6110b5565b81801561045b57600080fd5b5061034061046a366004611dfb565b611104565b81801561047b57600080fd5b5061027761048a3660046122b9565b61115e565b61027761049d3660046122dc565b6111f9565b8180156104ae57600080fd5b506102776104bd366004611dd9565b611257565b8180156104ce57600080fd5b506102776104dd366004611dd9565b611324565b6104f56104f0366004612379565b611373565b60405161028391906123ad565b610277610510366004611db6565b6113ef565b6102776105233660046123c0565b611463565b81801561053457600080fd5b50610340610543366004611dfb565b6114bb565b610277610556366004611e14565b611518565b81801561056757600080fd5b50610277610576366004611e70565b611564565b61029f610589366004611e14565b611626565b61027761059c366004611e14565b611676565b6102776105af366004611dd9565b6116c2565b61029f6105c2366004611e14565b611711565b8180156105d357600080fd5b506103406105e2366004611dfb565b6117df565b6102776105f536600461245d565b611821565b81801561060657600080fd5b50610277610615366004611bf8565b61187f565b61062d610628366004611dfb565b611934565b6040516001600160401b039091168152602001610283565b81801561065157600080fd5b506102776106603660046122b9565b61199d565b6102776106733660046122b9565b611abf565b81801561068457600080fd5b50610277610693366004611db6565b611b21565b8154600090815b818110156107df578363ffffffff168582815481106106c0576106c06124fa565b6000918252602090912060088204015460079091166004026101000a900463ffffffff16036107cd576106f4600183612526565b8110156107835784610707600184612526565b81548110610717576107176124fa565b90600052602060002090600891828204019190066004029054906101000a900463ffffffff1685828154811061074f5761074f6124fa565b90600052602060002090600891828204019190066004026101000a81548163ffffffff021916908363ffffffff1602179055505b848054806107935761079361253d565b600082815260209020600860001990920191820401805463ffffffff600460078516026101000a0219169055905550600191506107e69050565b806107d781612553565b91505061069f565b5060009150505b92915050565b81518151606091906107fe818361256c565b6001600160401b0381111561081557610815611c24565b60405190808252806020026020018201604052801561083e578160200160208202803683370190505b50925060005b828110156108955785818151811061085e5761085e6124fa565b6020026020010151848281518110610878576108786124fa565b60209081029190910101528061088d81612553565b915050610844565b5060005b818110156108f5578481815181106108b3576108b36124fa565b60200260200101518482856108c8919061256c565b815181106108d8576108d86124fa565b6020908102919091010152806108ed81612553565b915050610899565b50505092915050565b8154600090815b818110156107df57836001600160401b0316858281548110610929576109296124fa565b6000918252602090912060048204015460039091166008026101000a90046001600160401b031603610a4557610960600183612526565b8110156109f85784610973600184612526565b81548110610983576109836124fa565b90600052602060002090600491828204019190066008029054906101000a90046001600160401b03168582815481106109be576109be6124fa565b90600052602060002090600491828204019190066008026101000a8154816001600160401b0302191690836001600160401b031602179055505b84805480610a0857610a0861253d565b60008281526020902060046000199092019182040180546001600160401b03600860038516026101000a0219169055905550600191506107e69050565b80610a4f81612553565b915050610905565b8154600090815b81811015610aa65783858281548110610a7957610a796124fa565b906000526020600020015403610a94576000925050506107e6565b80610a9e81612553565b915050610a5e565b50508254600180820185556000948552602090942001919091555090565b8154600090815b818110156107df578363ffffffff16858281548110610aec57610aec6124fa565b6000918252602090912060088204015460079091166004026101000a900463ffffffff1603610b20576001925050506107e6565b80610b2a81612553565b915050610acb565b8054600090815b81811015610b7d57838181548110610b5357610b536124fa565b906000526020600020015483610b69919061256c565b925080610b7581612553565b915050610b39565b5050919050565b80545b600081610b9381612584565b92501115610bd25781805480610bab57610bab61253d565b600082815260209020810160001990810180546001600160a01b0319169055019055610b87565b5050565b8054600090815b81811015610b7d57838181548110610bf757610bf76124fa565b90600052602060002090600891828204019190066004029054906101000a900463ffffffff1683610c28919061259b565b925080610c3481612553565b915050610bdd565b60408051600180825281830190925260609160009190602080830190803683370190505090508281600081518110610c7657610c766124fa565b602002602001018181525050610c8c81856107ec565b949350505050565b8154600090815b818110156107df57836001600160e01b031916858281548110610cc057610cc06124fa565b90600052602060002090600891828204019190066004029054906101000a900460e01b6001600160e01b03191603610d9557610cfd600183612526565b8110156107835784610d10600184612526565b81548110610d2057610d206124fa565b90600052602060002090600891828204019190066004029054906101000a900460e01b858281548110610d5557610d556124fa565b90600052602060002090600891828204019190066004026101000a81548163ffffffff021916908360e01c0217905550848054806107935761079361253d565b80610d9f81612553565b915050610c9b565b8151600090815b818110156107df5783858281518110610dc957610dc96124fa565b602002602001015103610de1576001925050506107e6565b80610deb81612553565b915050610dae565b8151600090815b818110156107df57836001600160e01b031916858281518110610e1f57610e1f6124fa565b60200260200101516001600160e01b03191603610e41576001925050506107e6565b80610e4b81612553565b915050610dfa565b600082815b81811015610ebc57836001600160a01b0316868683818110610e7c57610e7c6124fa565b9050602002016020810190610e9191906125c3565b6001600160a01b031603610eaa57600192505050610ec3565b80610eb481612553565b915050610e58565b5060009150505b9392505050565b8151606090610eda81600161256c565b6001600160401b03811115610ef157610ef1611c24565b604051908082528060200260200182016040528015610f2457816020015b6060815260200190600190039081610f0f5790505b50915060005b81811015610f7c57848181518110610f4457610f446124fa565b6020026020010151838281518110610f5e57610f5e6124fa565b60200260200101819052508080610f7490612553565b915050610f2a565b5082828281518110610f9057610f906124fa565b60200260200101819052505092915050565b600082815b81811015610ebc5783868683818110610fc257610fc26124fa565b9050602002013503610fd957600192505050610ec3565b80610fe381612553565b915050610fa7565b8154600090815b818110156107df57836001600160e01b031916858281548110611017576110176124fa565b90600052602060002090600891828204019190066004029054906101000a900460e01b6001600160e01b03191603611054576001925050506107e6565b8061105e81612553565b915050610ff2565b8154600090815b818110156107df5783858281548110611088576110886124fa565b9060005260206000200154036110a3576001925050506107e6565b806110ad81612553565b91505061106d565b8154600090815b81811015610aa657838582815481106110d7576110d76124fa565b9060005260206000200154036110f2576000925050506107e6565b806110fc81612553565b9150506110bc565b80545b60008161111381612584565b92501115610bd2578180548061112b5761112b61253d565b600082815260209020600860001990920191820401805463ffffffff600460078516026101000a02191690559055611107565b8154600090815b818110156111c057836001600160a01b0316858281548110611189576111896124fa565b6000918252602090912001546001600160a01b0316036111ae576000925050506107e6565b806111b881612553565b915050611165565b5050825460018082018555600094855260209094200180546001600160a01b0319166001600160a01b0393909316929092179091555090565b8151600090815b818110156107df57836001600160401b0316858281518110611224576112246124fa565b60200260200101516001600160401b031603611245576001925050506107e6565b8061124f81612553565b915050611200565b8154600090815b818110156107df5783858281548110611279576112796124fa565b90600052602060002001540361131257611294600183612526565b8110156112e157846112a7600184612526565b815481106112b7576112b76124fa565b90600052602060002001548582815481106112d4576112d46124fa565b6000918252602090912001555b848054806112f1576112f161253d565b600190038181906000526020600020016000905590556001925050506107e6565b8061131c81612553565b91505061125e565b8154600090815b818110156107df5783858281548110611346576113466124fa565b90600052602060002001540361136157611294600183612526565b8061136b81612553565b91505061132b565b606060008251602061138591906125de565b9050806001600160401b0381111561139f5761139f611c24565b6040519080825280601f01601f1916602001820160405280156113c9576020820181803683370190505b50915060205b818111610b7d57838101838201526113e860208261256c565b90506113cf565b8154600090815b818110156107df57836001600160401b031685828154811061141a5761141a6124fa565b6000918252602090912060048204015460039091166008026101000a90046001600160401b031603611451576001925050506107e6565b8061145b81612553565b9150506113f6565b8151600090815b818110156107df578363ffffffff1685828151811061148b5761148b6124fa565b602002602001015163ffffffff16036114a9576001925050506107e6565b806114b381612553565b91505061146a565b80545b6000816114ca81612584565b92501115610bd257818054806114e2576114e261253d565b60008281526020902060046000199092019182040180546001600160401b03600860038516026101000a021916905590556114be565b8151600090815b818110156107df578385828151811061153a5761153a6124fa565b602002602001015103611552576001925050506107e6565b8061155c81612553565b91505061151f565b8154600090815b818110156115df57836001600160e01b031916858281548110611590576115906124fa565b90600052602060002090600891828204019190066004029054906101000a900460e01b6001600160e01b031916036115cd576000925050506107e6565b806115d781612553565b91505061156b565b5050825460018082018555600094855260209094206008820401805463ffffffff60079093166004026101000a928302191660e09490941c91909102929092179091555090565b60408051600180825281830190925260609160009190602080830190803683370190505090508281600081518110611660576116606124fa565b602002602001018181525050610c8c84826107ec565b8151600090815b818110156107df5783858281518110611698576116986124fa565b6020026020010151036116b0576001925050506107e6565b806116ba81612553565b91505061167d565b8154600090815b818110156107df57838582815481106116e4576116e46124fa565b9060005260206000200154036116ff576001925050506107e6565b8061170981612553565b9150506116c9565b815160609061172181600161256c565b6001600160401b0381111561173857611738611c24565b604051908082528060200260200182016040528015611761578160200160208202803683370190505b50915060005b818110156117b857848181518110611781576117816124fa565b602002602001015183828151811061179b5761179b6124fa565b6020908102919091010152806117b081612553565b915050611767565b50828282815181106117cc576117cc6124fa565b6020026020010181815250505092915050565b80545b6000816117ee81612584565b92501115610bd257818054806118065761180661253d565b600190038181906000526020600020016000905590556117e2565b8151600090815b818110156107df57836001600160a01b031685828151811061184c5761184c6124fa565b60200260200101516001600160a01b03160361186d576001925050506107e6565b8061187781612553565b915050611828565b8154600090815b818110156118ed578363ffffffff168582815481106118a7576118a76124fa565b6000918252602090912060088204015460079091166004026101000a900463ffffffff16036118db576000925050506107e6565b806118e581612553565b915050611886565b5050825460018082018555600094855260209094206008820401805460079092166004026101000a63ffffffff818102199093169490921691909102929092179091555090565b8054600090815b81811015610b7d57838181548110611955576119556124fa565b90600052602060002090600491828204019190066008029054906101000a90046001600160401b03168361198991906125fd565b92508061199581612553565b91505061193b565b8154600090815b818110156107df57836001600160a01b03168582815481106119c8576119c86124fa565b6000918252602090912001546001600160a01b031603611aad576119ed600183612526565b811015611a6f5784611a00600184612526565b81548110611a1057611a106124fa565b9060005260206000200160009054906101000a90046001600160a01b0316858281548110611a4057611a406124fa565b9060005260206000200160006101000a8154816001600160a01b0302191690836001600160a01b031602179055505b84805480611a7f57611a7f61253d565b600082815260209020810160001990810180546001600160a01b031916905501905550600191506107e69050565b80611ab781612553565b9150506119a4565b8154600090815b818110156107df57836001600160a01b0316858281548110611aea57611aea6124fa565b6000918252602090912001546001600160a01b031603611b0f576001925050506107e6565b80611b1981612553565b915050611ac6565b8154600090815b81811015611b9557836001600160401b0316858281548110611b4c57611b4c6124fa565b6000918252602090912060048204015460039091166008026101000a90046001600160401b031603611b83576000925050506107e6565b80611b8d81612553565b915050611b28565b5050825460018082018555600094855260209094206004820401805460039092166008026101000a6001600160401b03818102199093169490921691909102929092179091555090565b803563ffffffff81168114611bf357600080fd5b919050565b60008060408385031215611c0b57600080fd5b82359150611c1b60208401611bdf565b90509250929050565b634e487b7160e01b600052604160045260246000fd5b604051601f8201601f191681016001600160401b0381118282101715611c6257611c62611c24565b604052919050565b60006001600160401b03821115611c8357611c83611c24565b5060051b60200190565b600082601f830112611c9e57600080fd5b81356020611cb3611cae83611c6a565b611c3a565b82815260059290921b84018101918181019086841115611cd257600080fd5b8286015b84811015611ced5780358352918301918301611cd6565b509695505050505050565b60008060408385031215611d0b57600080fd5b82356001600160401b0380821115611d2257600080fd5b611d2e86838701611c8d565b93506020850135915080821115611d4457600080fd5b50611d5185828601611c8d565b9150509250929050565b6020808252825182820181905260009190848201906040850190845b81811015611d9357835183529284019291840191600101611d77565b50909695505050505050565b80356001600160401b0381168114611bf357600080fd5b60008060408385031215611dc957600080fd5b82359150611c1b60208401611d9f565b60008060408385031215611dec57600080fd5b50508035926020909101359150565b600060208284031215611e0d57600080fd5b5035919050565b60008060408385031215611e2757600080fd5b82356001600160401b03811115611e3d57600080fd5b611e4985828601611c8d565b95602094909401359450505050565b80356001600160e01b031981168114611bf357600080fd5b60008060408385031215611e8357600080fd5b82359150611c1b60208401611e58565b60008060408385031215611ea657600080fd5b82356001600160401b03811115611ebc57600080fd5b8301601f81018513611ecd57600080fd5b80356020611edd611cae83611c6a565b82815260059290921b83018101918181019088841115611efc57600080fd5b938201935b83851015611f1a57843582529382019390820190611f01565b98969091013596505050505050565b60008060408385031215611f3c57600080fd5b82356001600160401b03811115611f5257600080fd5b8301601f81018513611f6357600080fd5b80356020611f73611cae83611c6a565b82815260059290921b83018101918181019088841115611f9257600080fd5b938201935b83851015611fb757611fa885611e58565b82529382019390820190611f97565b9550611fc69050868201611e58565b93505050509250929050565b60008083601f840112611fe457600080fd5b5081356001600160401b03811115611ffb57600080fd5b6020830191508360208260051b850101111561201657600080fd5b9250929050565b80356001600160a01b0381168114611bf357600080fd5b60008060006040848603121561204957600080fd5b83356001600160401b0381111561205f57600080fd5b61206b86828701611fd2565b909450925061207e90506020850161201d565b90509250925092565b600082601f83011261209857600080fd5b81356001600160401b038111156120b1576120b1611c24565b6120c4601f8201601f1916602001611c3a565b8181528460208386010111156120d957600080fd5b816020850160208301376000918101602001919091529392505050565b6000806040838503121561210957600080fd5b82356001600160401b038082111561212057600080fd5b818501915085601f83011261213457600080fd5b81356020612144611cae83611c6a565b82815260059290921b8401810191818101908984111561216357600080fd5b8286015b8481101561219b5780358681111561217f5760008081fd5b61218d8c86838b0101612087565b845250918301918301612167565b50965050860135925050808211156121b257600080fd5b50611d5185828601612087565b6000815180845260005b818110156121e5576020818501810151868301820152016121c9565b818111156121f7576000602083870101525b50601f01601f19169290920160200192915050565b6000602080830181845280855180835260408601915060408160051b870101925083870160005b8281101561226157603f1988860301845261224f8583516121bf565b94509285019290850190600101612233565b5092979650505050505050565b60008060006040848603121561228357600080fd5b83356001600160401b0381111561229957600080fd5b6122a586828701611fd2565b909790965060209590950135949350505050565b600080604083850312156122cc57600080fd5b82359150611c1b6020840161201d565b600080604083850312156122ef57600080fd5b82356001600160401b0381111561230557600080fd5b8301601f8101851361231657600080fd5b80356020612326611cae83611c6a565b82815260059290921b8301810191818101908884111561234557600080fd5b938201935b8385101561236a5761235b85611d9f565b8252938201939082019061234a565b9550611fc69050868201611d9f565b60006020828403121561238b57600080fd5b81356001600160401b038111156123a157600080fd5b610c8c84828501611c8d565b602081526000610ec360208301846121bf565b600080604083850312156123d357600080fd5b82356001600160401b038111156123e957600080fd5b8301601f810185136123fa57600080fd5b8035602061240a611cae83611c6a565b82815260059290921b8301810191818101908884111561242957600080fd5b938201935b8385101561244e5761243f85611bdf565b8252938201939082019061242e565b9550611fc69050868201611bdf565b6000806040838503121561247057600080fd5b82356001600160401b0381111561248657600080fd5b8301601f8101851361249757600080fd5b803560206124a7611cae83611c6a565b82815260059290921b830181019181810190888411156124c657600080fd5b938201935b838510156124eb576124dc8561201d565b825293820193908201906124cb565b9550611fc6905086820161201d565b634e487b7160e01b600052603260045260246000fd5b634e487b7160e01b600052601160045260246000fd5b60008282101561253857612538612510565b500390565b634e487b7160e01b600052603160045260246000fd5b60006001820161256557612565612510565b5060010190565b6000821982111561257f5761257f612510565b500190565b60008161259357612593612510565b506000190190565b600063ffffffff8083168185168083038211156125ba576125ba612510565b01949350505050565b6000602082840312156125d557600080fd5b610ec38261201d565b60008160001904831182151516156125f8576125f8612510565b500290565b60006001600160401b038083168185168083038211156125ba576125ba61251056fea2646970667358221220d8758c5f3332a1574b6b1e4e503e87802331eb95b9b020f025a627250f9eaa2a64736f6c634300080d0033","bytecodeSha1":"56c69a8b3c94acc8c5e4c4ef61449cd5f00ebbb3","type":"library","abi":[{"inputs":[{"internalType":"bytes32[]","name":"in_","type":"bytes32[]"},{"internalType":"bytes32","name":"s_","type":"bytes32"}],"name":"addfront","outputs":[{"internalType":"bytes32[]","name":"out_","type":"bytes32[]"}],"stateMutability":"pure","type":"function"},{"inputs":[{"internalType":"bytes32[]","name":"in_","type":"bytes32[]"},{"internalType":"bytes32","name":"s_","type":"bytes32"}],"name":"addtail","outputs":[{"internalType":"bytes32[]","name":"out_","type":"bytes32[]"}],"stateMutability":"pure","type":"function"},{"inputs":[{"internalType":"address[]","name":"t_","type":"address[]"},{"internalType":"address","name":"index_","type":"address"}],"name":"c_exist","outputs":[{"internalType":"bool","name":"","type":"bool"}],"stateMutability":"pure","type":"function"},{"inputs":[{"internalType":"bytes32[]","name":"t_","type":"bytes32[]"},{"internalType":"bytes32","name":"index_","type":"bytes32"}],"name":"c_exist","outputs":[{"internalType":"bool","name":"","type":"bool"}],"stateMutability":"pure","type":"function"},{"inputs":[{"internalType":"bytes32[]","name":"set1_","type":"bytes32[]"},{"internalType":"bytes32[]","name":"set2_","type":"bytes32[]"}],"name":"combine","outputs":[{"internalType":"bytes32[]","name":"out_","type":"bytes32[]"}],"stateMutability":"pure","type":"function"},{"inputs":[{"internalType":"bytes4[]","name":"t_","type":"bytes4[]"},{"internalType":"bytes4","name":"index_","type":"bytes4"}],"name":"m_exist","outputs":[{"internalType":"bool","name":"","type":"bool"}],"stateMutability":"pure","type":"function"},{"inputs":[{"internalType":"bytes32[]","name":"t_","type":"bytes32[]"},{"internalType":"bytes32","name":"index_","type":"bytes32"}],"name":"m_exist","outputs":[{"internalType":"bool","name":"","type":"bool"}],"stateMutability":"pure","type":"function"},{"inputs":[{"internalType":"address[]","name":"t_","type":"address[]"},{"internalType":"address","name":"index_","type":"address"}],"name":"m_exist","outputs":[{"internalType":"bool","name":"","type":"bool"}],"stateMutability":"pure","type":"function"},{"inputs":[{"internalType":"uint256[]","name":"t_","type":"uint256[]"},{"internalType":"uint256","name":"index_","type":"uint256"}],"name":"mexist","outputs":[{"internalType":"bool","name":"","type":"bool"}],"stateMutability":"pure","type":"function"},{"inputs":[{"internalType":"uint64[]","name":"t_","type":"uint64[]"},{"internalType":"uint64","name":"index_","type":"uint64"}],"name":"mexist","outputs":[{"internalType":"bool","name":"","type":"bool"}],"stateMutability":"pure","type":"function"},{"inputs":[{"internalType":"uint32[]","name":"t_","type":"uint32[]"},{"internalType":"uint32","name":"index_","type":"uint32"}],"name":"mexist","outputs":[{"internalType":"bool","name":"","type":"bool"}],"stateMutability":"pure","type":"function"},{"inputs":[{"internalType":"bytes32[]","name":"t_","type":"bytes32[]"},{"internalType":"bytes32","name":"index_","type":"bytes32"}],"name":"mexist","outputs":[{"internalType":"bool","name":"","type":"bool"}],"stateMutability":"pure","type":"function"},{"inputs":[{"internalType":"bytes32[]","name":"t_","type":"bytes32[]"}],"name":"pack","outputs":[{"internalType":"bytes","name":"out_","type":"bytes"}],"stateMutability":"pure","type":"function"},{"inputs":[{"internalType":"string[]","name":"t_","type":"string[]"},{"internalType":"string","name":"s_","type":"string"}],"name":"push","outputs":[{"internalType":"string[]","name":"out_","type":"string[]"}],"stateMutability":"pure","type":"function"},{"inputs":[{"internalType":"bytes32[]","name":"t_","type":"bytes32[]"},{"internalType":"bytes32","name":"s_","type":"bytes32"}],"name":"push","outputs":[{"internalType":"bytes32[]","name":"out_","type":"bytes32[]"}],"stateMutability":"pure","type":"function"}],"compiler":{"version":"0.8.13+commit.abaa5c0e","evm_version":"istanbul","optimizer":{"enabled":true,"runs":200}},"contractName":"Array","language":"Solidity","natspec":{"methods":{},"kind":"dev","version":1},"opcodes":"PUSH20 0x0 ADDRESS EQ PUSH1 0x80 PUSH1 0x40 MSTORE PUSH1 0x4 CALLDATASIZE LT PUSH2 0x252 JUMPI PUSH1 0x0 CALLDATALOAD PUSH1 0xE0 SHR DUP1 PUSH4 0x5C59737E GT PUSH2 0x145 JUMPI DUP1 PUSH4 0x9D84366D GT PUSH2 0xC2 JUMPI DUP1 PUSH4 0xDB8B4474 GT PUSH2 0x86 JUMPI DUP1 PUSH4 0xDB8B4474 EQ PUSH2 0x5FA JUMPI DUP1 PUSH4 0xE14F1C2A EQ PUSH2 0x61A JUMPI DUP1 PUSH4 0xEDEFE12D EQ PUSH2 0x645 JUMPI DUP1 PUSH4 0xF1325663 EQ PUSH2 0x665 JUMPI DUP1 PUSH4 0xF1672AAF EQ PUSH2 0x678 JUMPI PUSH1 0x0 DUP1 REVERT JUMPDEST DUP1 PUSH4 0x9D84366D EQ PUSH2 0x58E JUMPI DUP1 PUSH4 0xBCD9CC26 EQ PUSH2 0x5A1 JUMPI DUP1 PUSH4 0xC202F51B EQ PUSH2 0x5B4 JUMPI DUP1 PUSH4 0xC25F860A EQ PUSH2 0x5C7 JUMPI DUP1 PUSH4 0xC372F963 EQ PUSH2 0x5E7 JUMPI PUSH1 0x0 DUP1 REVERT JUMPDEST DUP1 PUSH4 0x7FE05040 GT PUSH2 0x109 JUMPI DUP1 PUSH4 0x7FE05040 EQ PUSH2 0x515 JUMPI DUP1 PUSH4 0x7FE25EC1 EQ PUSH2 0x528 JUMPI DUP1 PUSH4 0x80552068 EQ PUSH2 0x548 JUMPI DUP1 PUSH4 0x825998C1 EQ PUSH2 0x55B JUMPI DUP1 PUSH4 0x9B861F03 EQ PUSH2 0x57B JUMPI PUSH1 0x0 DUP1 REVERT JUMPDEST DUP1 PUSH4 0x5C59737E EQ PUSH2 0x48F JUMPI DUP1 PUSH4 0x677CA2D8 EQ PUSH2 0x4A2 JUMPI DUP1 PUSH4 0x6B85D051 EQ PUSH2 0x4C2 JUMPI DUP1 PUSH4 0x72BE67BC EQ PUSH2 0x4E2 JUMPI DUP1 PUSH4 0x792B2438 EQ PUSH2 0x502 JUMPI PUSH1 0x0 DUP1 REVERT JUMPDEST DUP1 PUSH4 0x3DF92754 GT PUSH2 0x1D3 JUMPI DUP1 PUSH4 0x538D6AAB GT PUSH2 0x197 JUMPI DUP1 PUSH4 0x538D6AAB EQ PUSH2 0x409 JUMPI DUP1 PUSH4 0x57CBB646 EQ PUSH2 0x41C JUMPI DUP1 PUSH4 0x581869C4 EQ PUSH2 0x42F JUMPI DUP1 PUSH4 0x59A07DDE EQ PUSH2 0x44F JUMPI DUP1 PUSH4 0x5BD2E4A4 EQ PUSH2 0x46F JUMPI PUSH1 0x0 DUP1 REVERT JUMPDEST DUP1 PUSH4 0x3DF92754 EQ PUSH2 0x39D JUMPI DUP1 PUSH4 0x49A050D6 EQ PUSH2 0x3B0 JUMPI DUP1 PUSH4 0x4A5668C5 EQ PUSH2 0x3C3 JUMPI DUP1 PUSH4 0x4BCB0085 EQ PUSH2 0x3D6 JUMPI DUP1 PUSH4 0x4D469D3D EQ PUSH2 0x3F6 JUMPI PUSH1 0x0 DUP1 REVERT JUMPDEST DUP1 PUSH4 0x2D9F6570 GT PUSH2 0x21A JUMPI DUP1 PUSH4 0x2D9F6570 EQ PUSH2 0x2FF JUMPI DUP1 PUSH4 0x32B290AB EQ PUSH2 0x320 JUMPI DUP1 PUSH4 0x37159077 EQ PUSH2 0x342 JUMPI DUP1 PUSH4 0x3B06E74F EQ PUSH2 0x36A JUMPI DUP1 PUSH4 0x3B2F7C2F EQ PUSH2 0x37D JUMPI PUSH1 0x0 DUP1 REVERT JUMPDEST DUP1 PUSH4 0x10737D0B EQ PUSH2 0x257 JUMPI DUP1 PUSH4 0x13825748 EQ PUSH2 0x28C JUMPI DUP1 PUSH4 0x1DFC7E13 EQ PUSH2 0x2AC JUMPI DUP1 PUSH4 0x209978E8 EQ PUSH2 0x2CC JUMPI DUP1 PUSH4 0x21B5A47D EQ PUSH2 0x2EC JUMPI JUMPDEST PUSH1 0x0 DUP1 REVERT JUMPDEST DUP2 DUP1 ISZERO PUSH2 0x263 JUMPI PUSH1 0x0 DUP1 REVERT JUMPDEST POP PUSH2 0x277 PUSH2 0x272 CALLDATASIZE PUSH1 0x4 PUSH2 0x1BF8 JUMP JUMPDEST PUSH2 0x698 JUMP JUMPDEST PUSH1 0x40 MLOAD SWAP1 ISZERO ISZERO DUP2 MSTORE PUSH1 0x20 ADD JUMPDEST PUSH1 0x40 MLOAD DUP1 SWAP2 SUB SWAP1 RETURN JUMPDEST PUSH2 0x29F PUSH2 0x29A CALLDATASIZE PUSH1 0x4 PUSH2 0x1CF8 JUMP JUMPDEST PUSH2 0x7EC JUMP JUMPDEST PUSH1 0x40 MLOAD PUSH2 0x283 SWAP2 SWAP1 PUSH2 0x1D5B JUMP JUMPDEST DUP2 DUP1 ISZERO PUSH2 0x2B8 JUMPI PUSH1 0x0 DUP1 REVERT JUMPDEST POP PUSH2 0x277 PUSH2 0x2C7 CALLDATASIZE PUSH1 0x4 PUSH2 0x1DB6 JUMP JUMPDEST PUSH2 0x8FE JUMP JUMPDEST DUP2 DUP1 ISZERO PUSH2 0x2D8 JUMPI PUSH1 0x0 DUP1 REVERT JUMPDEST POP PUSH2 0x277 PUSH2 0x2E7 CALLDATASIZE PUSH1 0x4 PUSH2 0x1DD9 JUMP JUMPDEST PUSH2 0xA57 JUMP JUMPDEST PUSH2 0x277 PUSH2 0x2FA CALLDATASIZE PUSH1 0x4 PUSH2 0x1BF8 JUMP JUMPDEST PUSH2 0xAC4 JUMP JUMPDEST PUSH2 0x312 PUSH2 0x30D CALLDATASIZE PUSH1 0x4 PUSH2 0x1DFB JUMP JUMPDEST PUSH2 0xB32 JUMP JUMPDEST PUSH1 0x40 MLOAD SWAP1 DUP2 MSTORE PUSH1 0x20 ADD PUSH2 0x283 JUMP JUMPDEST DUP2 DUP1 ISZERO PUSH2 0x32C JUMPI PUSH1 0x0 DUP1 REVERT JUMPDEST POP PUSH2 0x340 PUSH2 0x33B CALLDATASIZE PUSH1 0x4 PUSH2 0x1DFB JUMP JUMPDEST PUSH2 0xB84 JUMP JUMPDEST STOP JUMPDEST PUSH2 0x355 PUSH2 0x350 CALLDATASIZE PUSH1 0x4 PUSH2 0x1DFB JUMP JUMPDEST PUSH2 0xBD6 JUMP JUMPDEST PUSH1 0x40 MLOAD PUSH4 0xFFFFFFFF SWAP1 SWAP2 AND DUP2 MSTORE PUSH1 0x20 ADD PUSH2 0x283 JUMP JUMPDEST PUSH2 0x29F PUSH2 0x378 CALLDATASIZE PUSH1 0x4 PUSH2 0x1E14 JUMP JUMPDEST PUSH2 0xC3C JUMP JUMPDEST DUP2 DUP1 ISZERO PUSH2 0x389 JUMPI PUSH1 0x0 DUP1 REVERT JUMPDEST POP PUSH2 0x277 PUSH2 0x398 CALLDATASIZE PUSH1 0x4 PUSH2 0x1E70 JUMP JUMPDEST PUSH2 0xC94 JUMP JUMPDEST PUSH2 0x277 PUSH2 0x3AB CALLDATASIZE PUSH1 0x4 PUSH2 0x1E93 JUMP JUMPDEST PUSH2 0xDA7 JUMP JUMPDEST PUSH2 0x277 PUSH2 0x3BE CALLDATASIZE PUSH1 0x4 PUSH2 0x1F29 JUMP JUMPDEST PUSH2 0xDF3 JUMP JUMPDEST PUSH2 0x277 PUSH2 0x3D1 CALLDATASIZE PUSH1 0x4 PUSH2 0x2034 JUMP JUMPDEST PUSH2 0xE53 JUMP JUMPDEST PUSH2 0x3E9 PUSH2 0x3E4 CALLDATASIZE PUSH1 0x4 PUSH2 0x20F6 JUMP JUMPDEST PUSH2 0xECA JUMP JUMPDEST PUSH1 0x40 MLOAD PUSH2 0x283 SWAP2 SWAP1 PUSH2 0x220C JUMP JUMPDEST PUSH2 0x277 PUSH2 0x404 CALLDATASIZE PUSH1 0x4 PUSH2 0x226E JUMP JUMPDEST PUSH2 0xFA2 JUMP JUMPDEST PUSH2 0x277 PUSH2 0x417 CALLDATASIZE PUSH1 0x4 PUSH2 0x1E70 JUMP JUMPDEST PUSH2 0xFEB JUMP JUMPDEST PUSH2 0x277 PUSH2 0x42A CALLDATASIZE PUSH1 0x4 PUSH2 0x1DD9 JUMP JUMPDEST PUSH2 0x1066 JUMP JUMPDEST DUP2 DUP1 ISZERO PUSH2 0x43B JUMPI PUSH1 0x0 DUP1 REVERT JUMPDEST POP PUSH2 0x277 PUSH2 0x44A CALLDATASIZE PUSH1 0x4 PUSH2 0x1DD9 JUMP JUMPDEST PUSH2 0x10B5 JUMP JUMPDEST DUP2 DUP1 ISZERO PUSH2 0x45B JUMPI PUSH1 0x0 DUP1 REVERT JUMPDEST POP PUSH2 0x340 PUSH2 0x46A CALLDATASIZE PUSH1 0x4 PUSH2 0x1DFB JUMP JUMPDEST PUSH2 0x1104 JUMP JUMPDEST DUP2 DUP1 ISZERO PUSH2 0x47B JUMPI PUSH1 0x0 DUP1 REVERT JUMPDEST POP PUSH2 0x277 PUSH2 0x48A CALLDATASIZE PUSH1 0x4 PUSH2 0x22B9 JUMP JUMPDEST PUSH2 0x115E JUMP JUMPDEST PUSH2 0x277 PUSH2 0x49D CALLDATASIZE PUSH1 0x4 PUSH2 0x22DC JUMP JUMPDEST PUSH2 0x11F9 JUMP JUMPDEST DUP2 DUP1 ISZERO PUSH2 0x4AE JUMPI PUSH1 0x0 DUP1 REVERT JUMPDEST POP PUSH2 0x277 PUSH2 0x4BD CALLDATASIZE PUSH1 0x4 PUSH2 0x1DD9 JUMP JUMPDEST PUSH2 0x1257 JUMP JUMPDEST DUP2 DUP1 ISZERO PUSH2 0x4CE JUMPI PUSH1 0x0 DUP1 REVERT JUMPDEST POP PUSH2 0x277 PUSH2 0x4DD CALLDATASIZE PUSH1 0x4 PUSH2 0x1DD9 JUMP JUMPDEST PUSH2 0x1324 JUMP JUMPDEST PUSH2 0x4F5 PUSH2 0x4F0 CALLDATASIZE PUSH1 0x4 PUSH2 0x2379 JUMP JUMPDEST PUSH2 0x1373 JUMP JUMPDEST PUSH1 0x40 MLOAD PUSH2 0x283 SWAP2 SWAP1 PUSH2 0x23AD JUMP JUMPDEST PUSH2 0x277 PUSH2 0x510 CALLDATASIZE PUSH1 0x4 PUSH2 0x1DB6 JUMP JUMPDEST PUSH2 0x13EF JUMP JUMPDEST PUSH2 0x277 PUSH2 0x523 CALLDATASIZE PUSH1 0x4 PUSH2 0x23C0 JUMP JUMPDEST PUSH2 0x1463 JUMP JUMPDEST DUP2 DUP1 ISZERO PUSH2 0x534 JUMPI PUSH1 0x0 DUP1 REVERT JUMPDEST POP PUSH2 0x340 PUSH2 0x543 CALLDATASIZE PUSH1 0x4 PUSH2 0x1DFB JUMP JUMPDEST PUSH2 0x14BB JUMP JUMPDEST PUSH2 0x277 PUSH2 0x556 CALLDATASIZE PUSH1 0x4 PUSH2 0x1E14 JUMP JUMPDEST PUSH2 0x1518 JUMP JUMPDEST DUP2 DUP1 ISZERO PUSH2 0x567 JUMPI PUSH1 0x0 DUP1 REVERT JUMPDEST POP PUSH2 0x277 PUSH2 0x576 CALLDATASIZE PUSH1 0x4 PUSH2 0x1E70 JUMP JUMPDEST PUSH2 0x1564 JUMP JUMPDEST PUSH2 0x29F PUSH2 0x589 CALLDATASIZE PUSH1 0x4 PUSH2 0x1E14 JUMP JUMPDEST PUSH2 0x1626 JUMP JUMPDEST PUSH2 0x277 PUSH2 0x59C CALLDATASIZE PUSH1 0x4 PUSH2 0x1E14 JUMP JUMPDEST PUSH2 0x1676 JUMP JUMPDEST PUSH2 0x277 PUSH2 0x5AF CALLDATASIZE PUSH1 0x4 PUSH2 0x1DD9 JUMP JUMPDEST PUSH2 0x16C2 JUMP JUMPDEST PUSH2 0x29F PUSH2 0x5C2 CALLDATASIZE PUSH1 0x4 PUSH2 0x1E14 JUMP JUMPDEST PUSH2 0x1711 JUMP JUMPDEST DUP2 DUP1 ISZERO PUSH2 0x5D3 JUMPI PUSH1 0x0 DUP1 REVERT JUMPDEST POP PUSH2 0x340 PUSH2 0x5E2 CALLDATASIZE PUSH1 0x4 PUSH2 0x1DFB JUMP JUMPDEST PUSH2 0x17DF JUMP JUMPDEST PUSH2 0x277 PUSH2 0x5F5 CALLDATASIZE PUSH1 0x4 PUSH2 0x245D JUMP JUMPDEST PUSH2 0x1821 JUMP JUMPDEST DUP2 DUP1 ISZERO PUSH2 0x606 JUMPI PUSH1 0x0 DUP1 REVERT JUMPDEST POP PUSH2 0x277 PUSH2 0x615 CALLDATASIZE PUSH1 0x4 PUSH2 0x1BF8 JUMP JUMPDEST PUSH2 0x187F JUMP JUMPDEST PUSH2 0x62D PUSH2 0x628 CALLDATASIZE PUSH1 0x4 PUSH2 0x1DFB JUMP JUMPDEST PUSH2 0x1934 JUMP JUMPDEST PUSH1 0x40 MLOAD PUSH1 0x1 PUSH1 0x1 PUSH1 0x40 SHL SUB SWAP1 SWAP2 AND DUP2 MSTORE PUSH1 0x20 ADD PUSH2 0x283 JUMP JUMPDEST DUP2 DUP1 ISZERO PUSH2 0x651 JUMPI PUSH1 0x0 DUP1 REVERT JUMPDEST POP PUSH2 0x277 PUSH2 0x660 CALLDATASIZE PUSH1 0x4 PUSH2 0x22B9 JUMP JUMPDEST PUSH2 0x199D JUMP JUMPDEST PUSH2 0x277 PUSH2 0x673 CALLDATASIZE PUSH1 0x4 PUSH2 0x22B9 JUMP JUMPDEST PUSH2 0x1ABF JUMP JUMPDEST DUP2 DUP1 ISZERO PUSH2 0x684 JUMPI PUSH1 0x0 DUP1 REVERT JUMPDEST POP PUSH2 0x277 PUSH2 0x693 CALLDATASIZE PUSH1 0x4 PUSH2 0x1DB6 JUMP JUMPDEST PUSH2 0x1B21 JUMP JUMPDEST DUP2 SLOAD PUSH1 0x0 SWAP1 DUP2 JUMPDEST DUP2 DUP2 LT ISZERO PUSH2 0x7DF JUMPI DUP4 PUSH4 0xFFFFFFFF AND DUP6 DUP3 DUP2 SLOAD DUP2 LT PUSH2 0x6C0 JUMPI PUSH2 0x6C0 PUSH2 0x24FA JUMP JUMPDEST PUSH1 0x0 SWAP2 DUP3 MSTORE PUSH1 0x20 SWAP1 SWAP2 KECCAK256 PUSH1 0x8 DUP3 DIV ADD SLOAD PUSH1 0x7 SWAP1 SWAP2 AND PUSH1 0x4 MUL PUSH2 0x100 EXP SWAP1 DIV PUSH4 0xFFFFFFFF AND SUB PUSH2 0x7CD JUMPI PUSH2 0x6F4 PUSH1 0x1 DUP4 PUSH2 0x2526 JUMP JUMPDEST DUP2 LT ISZERO PUSH2 0x783 JUMPI DUP5 PUSH2 0x707 PUSH1 0x1 DUP5 PUSH2 0x2526 JUMP JUMPDEST DUP2 SLOAD DUP2 LT PUSH2 0x717 JUMPI PUSH2 0x717 PUSH2 0x24FA JUMP JUMPDEST SWAP1 PUSH1 0x0 MSTORE PUSH1 0x20 PUSH1 0x0 KECCAK256 SWAP1 PUSH1 0x8 SWAP2 DUP3 DUP3 DIV ADD SWAP2 SWAP1 MOD PUSH1 0x4 MUL SWAP1 SLOAD SWAP1 PUSH2 0x100 EXP SWAP1 DIV PUSH4 0xFFFFFFFF AND DUP6 DUP3 DUP2 SLOAD DUP2 LT PUSH2 0x74F JUMPI PUSH2 0x74F PUSH2 0x24FA JUMP JUMPDEST SWAP1 PUSH1 0x0 MSTORE PUSH1 0x20 PUSH1 0x0 KECCAK256 SWAP1 PUSH1 0x8 SWAP2 DUP3 DUP3 DIV ADD SWAP2 SWAP1 MOD PUSH1 0x4 MUL PUSH2 0x100 EXP DUP2 SLOAD DUP2 PUSH4 0xFFFFFFFF MUL NOT AND SWAP1 DUP4 PUSH4 0xFFFFFFFF AND MUL OR SWAP1 SSTORE POP JUMPDEST DUP5 DUP1 SLOAD DUP1 PUSH2 0x793 JUMPI PUSH2 0x793 PUSH2 0x253D JUMP JUMPDEST PUSH1 0x0 DUP3 DUP2 MSTORE PUSH1 0x20 SWAP1 KECCAK256 PUSH1 0x8 PUSH1 0x0 NOT SWAP1 SWAP3 ADD SWAP2 DUP3 DIV ADD DUP1 SLOAD PUSH4 0xFFFFFFFF PUSH1 0x4 PUSH1 0x7 DUP6 AND MUL PUSH2 0x100 EXP MUL NOT AND SWAP1 SSTORE SWAP1 SSTORE POP PUSH1 0x1 SWAP2 POP PUSH2 0x7E6 SWAP1 POP JUMP JUMPDEST DUP1 PUSH2 0x7D7 DUP2 PUSH2 0x2553 JUMP JUMPDEST SWAP2 POP POP PUSH2 0x69F JUMP JUMPDEST POP PUSH1 0x0 SWAP2 POP POP JUMPDEST SWAP3 SWAP2 POP POP JUMP JUMPDEST DUP2 MLOAD DUP2 MLOAD PUSH1 0x60 SWAP2 SWAP1 PUSH2 0x7FE DUP2 DUP4 PUSH2 0x256C JUMP JUMPDEST PUSH1 0x1 PUSH1 0x1 PUSH1 0x40 SHL SUB DUP2 GT ISZERO PUSH2 0x815 JUMPI PUSH2 0x815 PUSH2 0x1C24 JUMP JUMPDEST PUSH1 0x40 MLOAD SWAP1 DUP1 DUP3 MSTORE DUP1 PUSH1 0x20 MUL PUSH1 0x20 ADD DUP3 ADD PUSH1 0x40 MSTORE DUP1 ISZERO PUSH2 0x83E JUMPI DUP2 PUSH1 0x20 ADD PUSH1 0x20 DUP3 MUL DUP1 CALLDATASIZE DUP4 CALLDATACOPY ADD SWAP1 POP JUMPDEST POP SWAP3 POP PUSH1 0x0 JUMPDEST DUP3 DUP2 LT ISZERO PUSH2 0x895 JUMPI DUP6 DUP2 DUP2 MLOAD DUP2 LT PUSH2 0x85E JUMPI PUSH2 0x85E PUSH2 0x24FA JUMP JUMPDEST PUSH1 0x20 MUL PUSH1 0x20 ADD ADD MLOAD DUP5 DUP3 DUP2 MLOAD DUP2 LT PUSH2 0x878 JUMPI PUSH2 0x878 PUSH2 0x24FA JUMP JUMPDEST PUSH1 0x20 SWAP1 DUP2 MUL SWAP2 SWAP1 SWAP2 ADD ADD MSTORE DUP1 PUSH2 0x88D DUP2 PUSH2 0x2553 JUMP JUMPDEST SWAP2 POP POP PUSH2 0x844 JUMP JUMPDEST POP PUSH1 0x0 JUMPDEST DUP2 DUP2 LT ISZERO PUSH2 0x8F5 JUMPI DUP5 DUP2 DUP2 MLOAD DUP2 LT PUSH2 0x8B3 JUMPI PUSH2 0x8B3 PUSH2 0x24FA JUMP JUMPDEST PUSH1 0x20 MUL PUSH1 0x20 ADD ADD MLOAD DUP5 DUP3 DUP6 PUSH2 0x8C8 SWAP2 SWAP1 PUSH2 0x256C JUMP JUMPDEST DUP2 MLOAD DUP2 LT PUSH2 0x8D8 JUMPI PUSH2 0x8D8 PUSH2 0x24FA JUMP JUMPDEST PUSH1 0x20 SWAP1 DUP2 MUL SWAP2 SWAP1 SWAP2 ADD ADD MSTORE DUP1 PUSH2 0x8ED DUP2 PUSH2 0x2553 JUMP JUMPDEST SWAP2 POP POP PUSH2 0x899 JUMP JUMPDEST POP POP POP SWAP3 SWAP2 POP POP JUMP JUMPDEST DUP2 SLOAD PUSH1 0x0 SWAP1 DUP2 JUMPDEST DUP2 DUP2 LT ISZERO PUSH2 0x7DF JUMPI DUP4 PUSH1 0x1 PUSH1 0x1 PUSH1 0x40 SHL SUB AND DUP6 DUP3 DUP2 SLOAD DUP2 LT PUSH2 0x929 JUMPI PUSH2 0x929 PUSH2 0x24FA JUMP JUMPDEST PUSH1 0x0 SWAP2 DUP3 MSTORE PUSH1 0x20 SWAP1 SWAP2 KECCAK256 PUSH1 0x4 DUP3 DIV ADD SLOAD PUSH1 0x3 SWAP1 SWAP2 AND PUSH1 0x8 MUL PUSH2 0x100 EXP SWAP1 DIV PUSH1 0x1 PUSH1 0x1 PUSH1 0x40 SHL SUB AND SUB PUSH2 0xA45 JUMPI PUSH2 0x960 PUSH1 0x1 DUP4 PUSH2 0x2526 JUMP JUMPDEST DUP2 LT ISZERO PUSH2 0x9F8 JUMPI DUP5 PUSH2 0x973 PUSH1 0x1 DUP5 PUSH2 0x2526 JUMP JUMPDEST DUP2 SLOAD DUP2 LT PUSH2 0x983 JUMPI PUSH2 0x983 PUSH2 0x24FA JUMP JUMPDEST SWAP1 PUSH1 0x0 MSTORE PUSH1 0x20 PUSH1 0x0 KECCAK256 SWAP1 PUSH1 0x4 SWAP2 DUP3 DUP3 DIV ADD SWAP2 SWAP1 MOD PUSH1 0x8 MUL SWAP1 SLOAD SWAP1 PUSH2 0x100 EXP SWAP1 DIV PUSH1 0x1 PUSH1 0x1 PUSH1 0x40 SHL SUB AND DUP6 DUP3 DUP2 SLOAD DUP2 LT PUSH2 0x9BE JUMPI PUSH2 0x9BE PUSH2 0x24FA JUMP JUMPDEST SWAP1 PUSH1 0x0 MSTORE PUSH1 0x20 PUSH1 0x0 KECCAK256 SWAP1 PUSH1 0x4 SWAP2 DUP3 DUP3 DIV ADD SWAP2 SWAP1 MOD PUSH1 0x8 MUL PUSH2 0x100 EXP DUP2 SLOAD DUP2 PUSH1 0x1 PUSH1 0x1 PUSH1 0x40 SHL SUB MUL NOT AND SWAP1 DUP4 PUSH1 0x1 PUSH1 0x1 PUSH1 0x40 SHL SUB AND MUL OR SWAP1 SSTORE POP JUMPDEST DUP5 DUP1 SLOAD DUP1 PUSH2 0xA08 JUMPI PUSH2 0xA08 PUSH2 0x253D JUMP JUMPDEST PUSH1 0x0 DUP3 DUP2 MSTORE PUSH1 0x20 SWAP1 KECCAK256 PUSH1 0x4 PUSH1 0x0 NOT SWAP1 SWAP3 ADD SWAP2 DUP3 DIV ADD DUP1 SLOAD PUSH1 0x1 PUSH1 0x1 PUSH1 0x40 SHL SUB PUSH1 0x8 PUSH1 0x3 DUP6 AND MUL PUSH2 0x100 EXP MUL NOT AND SWAP1 SSTORE SWAP1 SSTORE POP PUSH1 0x1 SWAP2 POP PUSH2 0x7E6 SWAP1 POP JUMP JUMPDEST DUP1 PUSH2 0xA4F DUP2 PUSH2 0x2553 JUMP JUMPDEST SWAP2 POP POP PUSH2 0x905 JUMP JUMPDEST DUP2 SLOAD PUSH1 0x0 SWAP1 DUP2 JUMPDEST DUP2 DUP2 LT ISZERO PUSH2 0xAA6 JUMPI DUP4 DUP6 DUP3 DUP2 SLOAD DUP2 LT PUSH2 0xA79 JUMPI PUSH2 0xA79 PUSH2 0x24FA JUMP JUMPDEST SWAP1 PUSH1 0x0 MSTORE PUSH1 0x20 PUSH1 0x0 KECCAK256 ADD SLOAD SUB PUSH2 0xA94 JUMPI PUSH1 0x0 SWAP3 POP POP POP PUSH2 0x7E6 JUMP JUMPDEST DUP1 PUSH2 0xA9E DUP2 PUSH2 0x2553 JUMP JUMPDEST SWAP2 POP POP PUSH2 0xA5E JUMP JUMPDEST POP POP DUP3 SLOAD PUSH1 0x1 DUP1 DUP3 ADD DUP6 SSTORE PUSH1 0x0 SWAP5 DUP6 MSTORE PUSH1 0x20 SWAP1 SWAP5 KECCAK256 ADD SWAP2 SWAP1 SWAP2 SSTORE POP SWAP1 JUMP JUMPDEST DUP2 SLOAD PUSH1 0x0 SWAP1 DUP2 JUMPDEST DUP2 DUP2 LT ISZERO PUSH2 0x7DF JUMPI DUP4 PUSH4 0xFFFFFFFF AND DUP6 DUP3 DUP2 SLOAD DUP2 LT PUSH2 0xAEC JUMPI PUSH2 0xAEC PUSH2 0x24FA JUMP JUMPDEST PUSH1 0x0 SWAP2 DUP3 MSTORE PUSH1 0x20 SWAP1 SWAP2 KECCAK256 PUSH1 0x8 DUP3 DIV ADD SLOAD PUSH1 0x7 SWAP1 SWAP2 AND PUSH1 0x4 MUL PUSH2 0x100 EXP SWAP1 DIV PUSH4 0xFFFFFFFF AND SUB PUSH2 0xB20 JUMPI PUSH1 0x1 SWAP3 POP POP POP PUSH2 0x7E6 JUMP JUMPDEST DUP1 PUSH2 0xB2A DUP2 PUSH2 0x2553 JUMP JUMPDEST SWAP2 POP POP PUSH2 0xACB JUMP JUMPDEST DUP1 SLOAD PUSH1 0x0 SWAP1 DUP2 JUMPDEST DUP2 DUP2 LT ISZERO PUSH2 0xB7D JUMPI DUP4 DUP2 DUP2 SLOAD DUP2 LT PUSH2 0xB53 JUMPI PUSH2 0xB53 PUSH2 0x24FA JUMP JUMPDEST SWAP1 PUSH1 0x0 MSTORE PUSH1 0x20 PUSH1 0x0 KECCAK256 ADD SLOAD DUP4 PUSH2 0xB69 SWAP2 SWAP1 PUSH2 0x256C JUMP JUMPDEST SWAP3 POP DUP1 PUSH2 0xB75 DUP2 PUSH2 0x2553 JUMP JUMPDEST SWAP2 POP POP PUSH2 0xB39 JUMP JUMPDEST POP POP SWAP2 SWAP1 POP JUMP JUMPDEST DUP1 SLOAD JUMPDEST PUSH1 0x0 DUP2 PUSH2 0xB93 DUP2 PUSH2 0x2584 JUMP JUMPDEST SWAP3 POP GT ISZERO PUSH2 0xBD2 JUMPI DUP2 DUP1 SLOAD DUP1 PUSH2 0xBAB JUMPI PUSH2 0xBAB PUSH2 0x253D JUMP JUMPDEST PUSH1 0x0 DUP3 DUP2 MSTORE PUSH1 0x20 SWAP1 KECCAK256 DUP2 ADD PUSH1 0x0 NOT SWAP1 DUP2 ADD DUP1 SLOAD PUSH1 0x1 PUSH1 0x1 PUSH1 0xA0 SHL SUB NOT AND SWAP1 SSTORE ADD SWAP1 SSTORE PUSH2 0xB87 JUMP JUMPDEST POP POP JUMP JUMPDEST DUP1 SLOAD PUSH1 0x0 SWAP1 DUP2 JUMPDEST DUP2 DUP2 LT ISZERO PUSH2 0xB7D JUMPI DUP4 DUP2 DUP2 SLOAD DUP2 LT PUSH2 0xBF7 JUMPI PUSH2 0xBF7 PUSH2 0x24FA JUMP JUMPDEST SWAP1 PUSH1 0x0 MSTORE PUSH1 0x20 PUSH1 0x0 KECCAK256 SWAP1 PUSH1 0x8 SWAP2 DUP3 DUP3 DIV ADD SWAP2 SWAP1 MOD PUSH1 0x4 MUL SWAP1 SLOAD SWAP1 PUSH2 0x100 EXP SWAP1 DIV PUSH4 0xFFFFFFFF AND DUP4 PUSH2 0xC28 SWAP2 SWAP1 PUSH2 0x259B JUMP JUMPDEST SWAP3 POP DUP1 PUSH2 0xC34 DUP2 PUSH2 0x2553 JUMP JUMPDEST SWAP2 POP POP PUSH2 0xBDD JUMP JUMPDEST PUSH1 0x40 DUP1 MLOAD PUSH1 0x1 DUP1 DUP3 MSTORE DUP2 DUP4 ADD SWAP1 SWAP3 MSTORE PUSH1 0x60 SWAP2 PUSH1 0x0 SWAP2 SWAP1 PUSH1 0x20 DUP1 DUP4 ADD SWAP1 DUP1 CALLDATASIZE DUP4 CALLDATACOPY ADD SWAP1 POP POP SWAP1 POP DUP3 DUP2 PUSH1 0x0 DUP2 MLOAD DUP2 LT PUSH2 0xC76 JUMPI PUSH2 0xC76 PUSH2 0x24FA JUMP JUMPDEST PUSH1 0x20 MUL PUSH1 0x20 ADD ADD DUP2 DUP2 MSTORE POP POP PUSH2 0xC8C DUP2 DUP6 PUSH2 0x7EC JUMP JUMPDEST SWAP5 SWAP4 POP POP POP POP JUMP JUMPDEST DUP2 SLOAD PUSH1 0x0 SWAP1 DUP2 JUMPDEST DUP2 DUP2 LT ISZERO PUSH2 0x7DF JUMPI DUP4 PUSH1 0x1 PUSH1 0x1 PUSH1 0xE0 SHL SUB NOT AND DUP6 DUP3 DUP2 SLOAD DUP2 LT PUSH2 0xCC0 JUMPI PUSH2 0xCC0 PUSH2 0x24FA JUMP JUMPDEST SWAP1 PUSH1 0x0 MSTORE PUSH1 0x20 PUSH1 0x0 KECCAK256 SWAP1 PUSH1 0x8 SWAP2 DUP3 DUP3 DIV ADD SWAP2 SWAP1 MOD PUSH1 0x4 MUL SWAP1 SLOAD SWAP1 PUSH2 0x100 EXP SWAP1 DIV PUSH1 0xE0 SHL PUSH1 0x1 PUSH1 0x1 PUSH1 0xE0 SHL SUB NOT AND SUB PUSH2 0xD95 JUMPI PUSH2 0xCFD PUSH1 0x1 DUP4 PUSH2 0x2526 JUMP JUMPDEST DUP2 LT ISZERO PUSH2 0x783 JUMPI DUP5 PUSH2 0xD10 PUSH1 0x1 DUP5 PUSH2 0x2526 JUMP JUMPDEST DUP2 SLOAD DUP2 LT PUSH2 0xD20 JUMPI PUSH2 0xD20 PUSH2 0x24FA JUMP JUMPDEST SWAP1 PUSH1 0x0 MSTORE PUSH1 0x20 PUSH1 0x0 KECCAK256 SWAP1 PUSH1 0x8 SWAP2 DUP3 DUP3 DIV ADD SWAP2 SWAP1 MOD PUSH1 0x4 MUL SWAP1 SLOAD SWAP1 PUSH2 0x100 EXP SWAP1 DIV PUSH1 0xE0 SHL DUP6 DUP3 DUP2 SLOAD DUP2 LT PUSH2 0xD55 JUMPI PUSH2 0xD55 PUSH2 0x24FA JUMP JUMPDEST SWAP1 PUSH1 0x0 MSTORE PUSH1 0x20 PUSH1 0x0 KECCAK256 SWAP1 PUSH1 0x8 SWAP2 DUP3 DUP3 DIV ADD SWAP2 SWAP1 MOD PUSH1 0x4 MUL PUSH2 0x100 EXP DUP2 SLOAD DUP2 PUSH4 0xFFFFFFFF MUL NOT AND SWAP1 DUP4 PUSH1 0xE0 SHR MUL OR SWAP1 SSTORE POP DUP5 DUP1 SLOAD DUP1 PUSH2 0x793 JUMPI PUSH2 0x793 PUSH2 0x253D JUMP JUMPDEST DUP1 PUSH2 0xD9F DUP2 PUSH2 0x2553 JUMP JUMPDEST SWAP2 POP POP PUSH2 0xC9B JUMP JUMPDEST DUP2 MLOAD PUSH1 0x0 SWAP1 DUP2 JUMPDEST DUP2 DUP2 LT ISZERO PUSH2 0x7DF JUMPI DUP4 DUP6 DUP3 DUP2 MLOAD DUP2 LT PUSH2 0xDC9 JUMPI PUSH2 0xDC9 PUSH2 0x24FA JUMP JUMPDEST PUSH1 0x20 MUL PUSH1 0x20 ADD ADD MLOAD SUB PUSH2 0xDE1 JUMPI PUSH1 0x1 SWAP3 POP POP POP PUSH2 0x7E6 JUMP JUMPDEST DUP1 PUSH2 0xDEB DUP2 PUSH2 0x2553 JUMP JUMPDEST SWAP2 POP POP PUSH2 0xDAE JUMP JUMPDEST DUP2 MLOAD PUSH1 0x0 SWAP1 DUP2 JUMPDEST DUP2 DUP2 LT ISZERO PUSH2 0x7DF JUMPI DUP4 PUSH1 0x1 PUSH1 0x1 PUSH1 0xE0 SHL SUB NOT AND DUP6 DUP3 DUP2 MLOAD DUP2 LT PUSH2 0xE1F JUMPI PUSH2 0xE1F PUSH2 0x24FA JUMP JUMPDEST PUSH1 0x20 MUL PUSH1 0x20 ADD ADD MLOAD PUSH1 0x1 PUSH1 0x1 PUSH1 0xE0 SHL SUB NOT AND SUB PUSH2 0xE41 JUMPI PUSH1 0x1 SWAP3 POP POP POP PUSH2 0x7E6 JUMP JUMPDEST DUP1 PUSH2 0xE4B DUP2 PUSH2 0x2553 JUMP JUMPDEST SWAP2 POP POP PUSH2 0xDFA JUMP JUMPDEST PUSH1 0x0 DUP3 DUP2 JUMPDEST DUP2 DUP2 LT ISZERO PUSH2 0xEBC JUMPI DUP4 PUSH1 0x1 PUSH1 0x1 PUSH1 0xA0 SHL SUB AND DUP7 DUP7 DUP4 DUP2 DUP2 LT PUSH2 0xE7C JUMPI PUSH2 0xE7C PUSH2 0x24FA JUMP JUMPDEST SWAP1 POP PUSH1 0x20 MUL ADD PUSH1 0x20 DUP2 ADD SWAP1 PUSH2 0xE91 SWAP2 SWAP1 PUSH2 0x25C3 JUMP JUMPDEST PUSH1 0x1 PUSH1 0x1 PUSH1 0xA0 SHL SUB AND SUB PUSH2 0xEAA JUMPI PUSH1 0x1 SWAP3 POP POP POP PUSH2 0xEC3 JUMP JUMPDEST DUP1 PUSH2 0xEB4 DUP2 PUSH2 0x2553 JUMP JUMPDEST SWAP2 POP POP PUSH2 0xE58 JUMP JUMPDEST POP PUSH1 0x0 SWAP2 POP POP JUMPDEST SWAP4 SWAP3 POP POP POP JUMP JUMPDEST DUP2 MLOAD PUSH1 0x60 SWAP1 PUSH2 0xEDA DUP2 PUSH1 0x1 PUSH2 0x256C JUMP JUMPDEST PUSH1 0x1 PUSH1 0x1 PUSH1 0x40 SHL SUB DUP2 GT ISZERO PUSH2 0xEF1 JUMPI PUSH2 0xEF1 PUSH2 0x1C24 JUMP JUMPDEST PUSH1 0x40 MLOAD SWAP1 DUP1 DUP3 MSTORE DUP1 PUSH1 0x20 MUL PUSH1 0x20 ADD DUP3 ADD PUSH1 0x40 MSTORE DUP1 ISZERO PUSH2 0xF24 JUMPI DUP2 PUSH1 0x20 ADD JUMPDEST PUSH1 0x60 DUP2 MSTORE PUSH1 0x20 ADD SWAP1 PUSH1 0x1 SWAP1 SUB SWAP1 DUP2 PUSH2 0xF0F JUMPI SWAP1 POP JUMPDEST POP SWAP2 POP PUSH1 0x0 JUMPDEST DUP2 DUP2 LT ISZERO PUSH2 0xF7C JUMPI DUP5 DUP2 DUP2 MLOAD DUP2 LT PUSH2 0xF44 JUMPI PUSH2 0xF44 PUSH2 0x24FA JUMP JUMPDEST PUSH1 0x20 MUL PUSH1 0x20 ADD ADD MLOAD DUP4 DUP3 DUP2 MLOAD DUP2 LT PUSH2 0xF5E JUMPI PUSH2 0xF5E PUSH2 0x24FA JUMP JUMPDEST PUSH1 0x20 MUL PUSH1 0x20 ADD ADD DUP2 SWAP1 MSTORE POP DUP1 DUP1 PUSH2 0xF74 SWAP1 PUSH2 0x2553 JUMP JUMPDEST SWAP2 POP POP PUSH2 0xF2A JUMP JUMPDEST POP DUP3 DUP3 DUP3 DUP2 MLOAD DUP2 LT PUSH2 0xF90 JUMPI PUSH2 0xF90 PUSH2 0x24FA JUMP JUMPDEST PUSH1 0x20 MUL PUSH1 0x20 ADD ADD DUP2 SWAP1 MSTORE POP POP SWAP3 SWAP2 POP POP JUMP JUMPDEST PUSH1 0x0 DUP3 DUP2 JUMPDEST DUP2 DUP2 LT ISZERO PUSH2 0xEBC JUMPI DUP4 DUP7 DUP7 DUP4 DUP2 DUP2 LT PUSH2 0xFC2 JUMPI PUSH2 0xFC2 PUSH2 0x24FA JUMP JUMPDEST SWAP1 POP PUSH1 0x20 MUL ADD CALLDATALOAD SUB PUSH2 0xFD9 JUMPI PUSH1 0x1 SWAP3 POP POP POP PUSH2 0xEC3 JUMP JUMPDEST DUP1 PUSH2 0xFE3 DUP2 PUSH2 0x2553 JUMP JUMPDEST SWAP2 POP POP PUSH2 0xFA7 JUMP JUMPDEST DUP2 SLOAD PUSH1 0x0 SWAP1 DUP2 JUMPDEST DUP2 DUP2 LT ISZERO PUSH2 0x7DF JUMPI DUP4 PUSH1 0x1 PUSH1 0x1 PUSH1 0xE0 SHL SUB NOT AND DUP6 DUP3 DUP2 SLOAD DUP2 LT PUSH2 0x1017 JUMPI PUSH2 0x1017 PUSH2 0x24FA JUMP JUMPDEST SWAP1 PUSH1 0x0 MSTORE PUSH1 0x20 PUSH1 0x0 KECCAK256 SWAP1 PUSH1 0x8 SWAP2 DUP3 DUP3 DIV ADD SWAP2 SWAP1 MOD PUSH1 0x4 MUL SWAP1 SLOAD SWAP1 PUSH2 0x100 EXP SWAP1 DIV PUSH1 0xE0 SHL PUSH1 0x1 PUSH1 0x1 PUSH1 0xE0 SHL SUB NOT AND SUB PUSH2 0x1054 JUMPI PUSH1 0x1 SWAP3 POP POP POP PUSH2 0x7E6 JUMP JUMPDEST DUP1 PUSH2 0x105E DUP2 PUSH2 0x2553 JUMP JUMPDEST SWAP2 POP POP PUSH2 0xFF2 JUMP JUMPDEST DUP2 SLOAD PUSH1 0x0 SWAP1 DUP2 JUMPDEST DUP2 DUP2 LT ISZERO PUSH2 0x7DF JUMPI DUP4 DUP6 DUP3 DUP2 SLOAD DUP2 LT PUSH2 0x1088 JUMPI PUSH2 0x1088 PUSH2 0x24FA JUMP JUMPDEST SWAP1 PUSH1 0x0 MSTORE PUSH1 0x20 PUSH1 0x0 KECCAK256 ADD SLOAD SUB PUSH2 0x10A3 JUMPI PUSH1 0x1 SWAP3 POP POP POP PUSH2 0x7E6 JUMP JUMPDEST DUP1 PUSH2 0x10AD DUP2 PUSH2 0x2553 JUMP JUMPDEST SWAP2 POP POP PUSH2 0x106D JUMP JUMPDEST DUP2 SLOAD PUSH1 0x0 SWAP1 DUP2 JUMPDEST DUP2 DUP2 LT ISZERO PUSH2 0xAA6 JUMPI DUP4 DUP6 DUP3 DUP2 SLOAD DUP2 LT PUSH2 0x10D7 JUMPI PUSH2 0x10D7 PUSH2 0x24FA JUMP JUMPDEST SWAP1 PUSH1 0x0 MSTORE PUSH1 0x20 PUSH1 0x0 KECCAK256 ADD SLOAD SUB PUSH2 0x10F2 JUMPI PUSH1 0x0 SWAP3 POP POP POP PUSH2 0x7E6 JUMP JUMPDEST DUP1 PUSH2 0x10FC DUP2 PUSH2 0x2553 JUMP JUMPDEST SWAP2 POP POP PUSH2 0x10BC JUMP JUMPDEST DUP1 SLOAD JUMPDEST PUSH1 0x0 DUP2 PUSH2 0x1113 DUP2 PUSH2 0x2584 JUMP JUMPDEST SWAP3 POP GT ISZERO PUSH2 0xBD2 JUMPI DUP2 DUP1 SLOAD DUP1 PUSH2 0x112B JUMPI PUSH2 0x112B PUSH2 0x253D JUMP JUMPDEST PUSH1 0x0 DUP3 DUP2 MSTORE PUSH1 0x20 SWAP1 KECCAK256 PUSH1 0x8 PUSH1 0x0 NOT SWAP1 SWAP3 ADD SWAP2 DUP3 DIV ADD DUP1 SLOAD PUSH4 0xFFFFFFFF PUSH1 0x4 PUSH1 0x7 DUP6 AND MUL PUSH2 0x100 EXP MUL NOT AND SWAP1 SSTORE SWAP1 SSTORE PUSH2 0x1107 JUMP JUMPDEST DUP2 SLOAD PUSH1 0x0 SWAP1 DUP2 JUMPDEST DUP2 DUP2 LT ISZERO PUSH2 0x11C0 JUMPI DUP4 PUSH1 0x1 PUSH1 0x1 PUSH1 0xA0 SHL SUB AND DUP6 DUP3 DUP2 SLOAD DUP2 LT PUSH2 0x1189 JUMPI PUSH2 0x1189 PUSH2 0x24FA JUMP JUMPDEST PUSH1 0x0 SWAP2 DUP3 MSTORE PUSH1 0x20 SWAP1 SWAP2 KECCAK256 ADD SLOAD PUSH1 0x1 PUSH1 0x1 PUSH1 0xA0 SHL SUB AND SUB PUSH2 0x11AE JUMPI PUSH1 0x0 SWAP3 POP POP POP PUSH2 0x7E6 JUMP JUMPDEST DUP1 PUSH2 0x11B8 DUP2 PUSH2 0x2553 JUMP JUMPDEST SWAP2 POP POP PUSH2 0x1165 JUMP JUMPDEST POP POP DUP3 SLOAD PUSH1 0x1 DUP1 DUP3 ADD DUP6 SSTORE PUSH1 0x0 SWAP5 DUP6 MSTORE PUSH1 0x20 SWAP1 SWAP5 KECCAK256 ADD DUP1 SLOAD PUSH1 0x1 PUSH1 0x1 PUSH1 0xA0 SHL SUB NOT AND PUSH1 0x1 PUSH1 0x1 PUSH1 0xA0 SHL SUB SWAP4 SWAP1 SWAP4 AND SWAP3 SWAP1 SWAP3 OR SWAP1 SWAP2 SSTORE POP SWAP1 JUMP JUMPDEST DUP2 MLOAD PUSH1 0x0 SWAP1 DUP2 JUMPDEST DUP2 DUP2 LT ISZERO PUSH2 0x7DF JUMPI DUP4 PUSH1 0x1 PUSH1 0x1 PUSH1 0x40 SHL SUB AND DUP6 DUP3 DUP2 MLOAD DUP2 LT PUSH2 0x1224 JUMPI PUSH2 0x1224 PUSH2 0x24FA JUMP JUMPDEST PUSH1 0x20 MUL PUSH1 0x20 ADD ADD MLOAD PUSH1 0x1 PUSH1 0x1 PUSH1 0x40 SHL SUB AND SUB PUSH2 0x1245 JUMPI PUSH1 0x1 SWAP3 POP POP POP PUSH2 0x7E6 JUMP JUMPDEST DUP1 PUSH2 0x124F DUP2 PUSH2 0x2553 JUMP JUMPDEST SWAP2 POP POP PUSH2 0x1200 JUMP JUMPDEST DUP2 SLOAD PUSH1 0x0 SWAP1 DUP2 JUMPDEST DUP2 DUP2 LT ISZERO PUSH2 0x7DF JUMPI DUP4 DUP6 DUP3 DUP2 SLOAD DUP2 LT PUSH2 0x1279 JUMPI PUSH2 0x1279 PUSH2 0x24FA JUMP JUMPDEST SWAP1 PUSH1 0x0 MSTORE PUSH1 0x20 PUSH1 0x0 KECCAK256 ADD SLOAD SUB PUSH2 0x1312 JUMPI PUSH2 0x1294 PUSH1 0x1 DUP4 PUSH2 0x2526 JUMP JUMPDEST DUP2 LT ISZERO PUSH2 0x12E1 JUMPI DUP5 PUSH2 0x12A7 PUSH1 0x1 DUP5 PUSH2 0x2526 JUMP JUMPDEST DUP2 SLOAD DUP2 LT PUSH2 0x12B7 JUMPI PUSH2 0x12B7 PUSH2 0x24FA JUMP JUMPDEST SWAP1 PUSH1 0x0 MSTORE PUSH1 0x20 PUSH1 0x0 KECCAK256 ADD SLOAD DUP6 DUP3 DUP2 SLOAD DUP2 LT PUSH2 0x12D4 JUMPI PUSH2 0x12D4 PUSH2 0x24FA JUMP JUMPDEST PUSH1 0x0 SWAP2 DUP3 MSTORE PUSH1 0x20 SWAP1 SWAP2 KECCAK256 ADD SSTORE JUMPDEST DUP5 DUP1 SLOAD DUP1 PUSH2 0x12F1 JUMPI PUSH2 0x12F1 PUSH2 0x253D JUMP JUMPDEST PUSH1 0x1 SWAP1 SUB DUP2 DUP2 SWAP1 PUSH1 0x0 MSTORE PUSH1 0x20 PUSH1 0x0 KECCAK256 ADD PUSH1 0x0 SWAP1 SSTORE SWAP1 SSTORE PUSH1 0x1 SWAP3 POP POP POP PUSH2 0x7E6 JUMP JUMPDEST DUP1 PUSH2 0x131C DUP2 PUSH2 0x2553 JUMP JUMPDEST SWAP2 POP POP PUSH2 0x125E JUMP JUMPDEST DUP2 SLOAD PUSH1 0x0 SWAP1 DUP2 JUMPDEST DUP2 DUP2 LT ISZERO PUSH2 0x7DF JUMPI DUP4 DUP6 DUP3 DUP2 SLOAD DUP2 LT PUSH2 0x1346 JUMPI PUSH2 0x1346 PUSH2 0x24FA JUMP JUMPDEST SWAP1 PUSH1 0x0 MSTORE PUSH1 0x20 PUSH1 0x0 KECCAK256 ADD SLOAD SUB PUSH2 0x1361 JUMPI PUSH2 0x1294 PUSH1 0x1 DUP4 PUSH2 0x2526 JUMP JUMPDEST DUP1 PUSH2 0x136B DUP2 PUSH2 0x2553 JUMP JUMPDEST SWAP2 POP POP PUSH2 0x132B JUMP JUMPDEST PUSH1 0x60 PUSH1 0x0 DUP3 MLOAD PUSH1 0x20 PUSH2 0x1385 SWAP2 SWAP1 PUSH2 0x25DE JUMP JUMPDEST SWAP1 POP DUP1 PUSH1 0x1 PUSH1 0x1 PUSH1 0x40 SHL SUB DUP2 GT ISZERO PUSH2 0x139F JUMPI PUSH2 0x139F PUSH2 0x1C24 JUMP JUMPDEST PUSH1 0x40 MLOAD SWAP1 DUP1 DUP3 MSTORE DUP1 PUSH1 0x1F ADD PUSH1 0x1F NOT AND PUSH1 0x20 ADD DUP3 ADD PUSH1 0x40 MSTORE DUP1 ISZERO PUSH2 0x13C9 JUMPI PUSH1 0x20 DUP3 ADD DUP2 DUP1 CALLDATASIZE DUP4 CALLDATACOPY ADD SWAP1 POP JUMPDEST POP SWAP2 POP PUSH1 0x20 JUMPDEST DUP2 DUP2 GT PUSH2 0xB7D JUMPI DUP4 DUP2 ADD DUP4 DUP3 ADD MSTORE PUSH2 0x13E8 PUSH1 0x20 DUP3 PUSH2 0x256C JUMP JUMPDEST SWAP1 POP PUSH2 0x13CF JUMP JUMPDEST DUP2 SLOAD PUSH1 0x0 SWAP1 DUP2 JUMPDEST DUP2 DUP2 LT ISZERO PUSH2 0x7DF JUMPI DUP4 PUSH1 0x1 PUSH1 0x1 PUSH1 0x40 SHL SUB AND DUP6 DUP3 DUP2 SLOAD DUP2 LT PUSH2 0x141A JUMPI PUSH2 0x141A PUSH2 0x24FA JUMP JUMPDEST PUSH1 0x0 SWAP2 DUP3 MSTORE PUSH1 0x20 SWAP1 SWAP2 KECCAK256 PUSH1 0x4 DUP3 DIV ADD SLOAD PUSH1 0x3 SWAP1 SWAP2 AND PUSH1 0x8 MUL PUSH2 0x100 EXP SWAP1 DIV PUSH1 0x1 PUSH1 0x1 PUSH1 0x40 SHL SUB AND SUB PUSH2 0x1451 JUMPI PUSH1 0x1 SWAP3 POP POP POP PUSH2 0x7E6 JUMP JUMPDEST DUP1 PUSH2 0x145B DUP2 PUSH2 0x2553 JUMP JUMPDEST SWAP2 POP POP PUSH2 0x13F6 JUMP JUMPDEST DUP2 MLOAD PUSH1 0x0 SWAP1 DUP2 JUMPDEST DUP2 DUP2 LT ISZERO PUSH2 0x7DF JUMPI DUP4 PUSH4 0xFFFFFFFF AND DUP6 DUP3 DUP2 MLOAD DUP2 LT PUSH2 0x148B JUMPI PUSH2 0x148B PUSH2 0x24FA JUMP JUMPDEST PUSH1 0x20 MUL PUSH1 0x20 ADD ADD MLOAD PUSH4 0xFFFFFFFF AND SUB PUSH2 0x14A9 JUMPI PUSH1 0x1 SWAP3 POP POP POP PUSH2 0x7E6 JUMP JUMPDEST DUP1 PUSH2 0x14B3 DUP2 PUSH2 0x2553 JUMP JUMPDEST SWAP2 POP POP PUSH2 0x146A JUMP JUMPDEST DUP1 SLOAD JUMPDEST PUSH1 0x0 DUP2 PUSH2 0x14CA DUP2 PUSH2 0x2584 JUMP JUMPDEST SWAP3 POP GT ISZERO PUSH2 0xBD2 JUMPI DUP2 DUP1 SLOAD DUP1 PUSH2 0x14E2 JUMPI PUSH2 0x14E2 PUSH2 0x253D JUMP JUMPDEST PUSH1 0x0 DUP3 DUP2 MSTORE PUSH1 0x20 SWAP1 KECCAK256 PUSH1 0x4 PUSH1 0x0 NOT SWAP1 SWAP3 ADD SWAP2 DUP3 DIV ADD DUP1 SLOAD PUSH1 0x1 PUSH1 0x1 PUSH1 0x40 SHL SUB PUSH1 0x8 PUSH1 0x3 DUP6 AND MUL PUSH2 0x100 EXP MUL NOT AND SWAP1 SSTORE SWAP1 SSTORE PUSH2 0x14BE JUMP JUMPDEST DUP2 MLOAD PUSH1 0x0 SWAP1 DUP2 JUMPDEST DUP2 DUP2 LT ISZERO PUSH2 0x7DF JUMPI DUP4 DUP6 DUP3 DUP2 MLOAD DUP2 LT PUSH2 0x153A JUMPI PUSH2 0x153A PUSH2 0x24FA JUMP JUMPDEST PUSH1 0x20 MUL PUSH1 0x20 ADD ADD MLOAD SUB PUSH2 0x1552 JUMPI PUSH1 0x1 SWAP3 POP POP POP PUSH2 0x7E6 JUMP JUMPDEST DUP1 PUSH2 0x155C DUP2 PUSH2 0x2553 JUMP JUMPDEST SWAP2 POP POP PUSH2 0x151F JUMP JUMPDEST DUP2 SLOAD PUSH1 0x0 SWAP1 DUP2 JUMPDEST DUP2 DUP2 LT ISZERO PUSH2 0x15DF JUMPI DUP4 PUSH1 0x1 PUSH1 0x1 PUSH1 0xE0 SHL SUB NOT AND DUP6 DUP3 DUP2 SLOAD DUP2 LT PUSH2 0x1590 JUMPI PUSH2 0x1590 PUSH2 0x24FA JUMP JUMPDEST SWAP1 PUSH1 0x0 MSTORE PUSH1 0x20 PUSH1 0x0 KECCAK256 SWAP1 PUSH1 0x8 SWAP2 DUP3 DUP3 DIV ADD SWAP2 SWAP1 MOD PUSH1 0x4 MUL SWAP1 SLOAD SWAP1 PUSH2 0x100 EXP SWAP1 DIV PUSH1 0xE0 SHL PUSH1 0x1 PUSH1 0x1 PUSH1 0xE0 SHL SUB NOT AND SUB PUSH2 0x15CD JUMPI PUSH1 0x0 SWAP3 POP POP POP PUSH2 0x7E6 JUMP JUMPDEST DUP1 PUSH2 0x15D7 DUP2 PUSH2 0x2553 JUMP JUMPDEST SWAP2 POP POP PUSH2 0x156B JUMP JUMPDEST POP POP DUP3 SLOAD PUSH1 0x1 DUP1 DUP3 ADD DUP6 SSTORE PUSH1 0x0 SWAP5 DUP6 MSTORE PUSH1 0x20 SWAP1 SWAP5 KECCAK256 PUSH1 0x8 DUP3 DIV ADD DUP1 SLOAD PUSH4 0xFFFFFFFF PUSH1 0x7 SWAP1 SWAP4 AND PUSH1 0x4 MUL PUSH2 0x100 EXP SWAP3 DUP4 MUL NOT AND PUSH1 0xE0 SWAP5 SWAP1 SWAP5 SHR SWAP2 SWAP1 SWAP2 MUL SWAP3 SWAP1 SWAP3 OR SWAP1 SWAP2 SSTORE POP SWAP1 JUMP JUMPDEST PUSH1 0x40 DUP1 MLOAD PUSH1 0x1 DUP1 DUP3 MSTORE DUP2 DUP4 ADD SWAP1 SWAP3 MSTORE PUSH1 0x60 SWAP2 PUSH1 0x0 SWAP2 SWAP1 PUSH1 0x20 DUP1 DUP4 ADD SWAP1 DUP1 CALLDATASIZE DUP4 CALLDATACOPY ADD SWAP1 POP POP SWAP1 POP DUP3 DUP2 PUSH1 0x0 DUP2 MLOAD DUP2 LT PUSH2 0x1660 JUMPI PUSH2 0x1660 PUSH2 0x24FA JUMP JUMPDEST PUSH1 0x20 MUL PUSH1 0x20 ADD ADD DUP2 DUP2 MSTORE POP POP PUSH2 0xC8C DUP5 DUP3 PUSH2 0x7EC JUMP JUMPDEST DUP2 MLOAD PUSH1 0x0 SWAP1 DUP2 JUMPDEST DUP2 DUP2 LT ISZERO PUSH2 0x7DF JUMPI DUP4 DUP6 DUP3 DUP2 MLOAD DUP2 LT PUSH2 0x1698 JUMPI PUSH2 0x1698 PUSH2 0x24FA JUMP JUMPDEST PUSH1 0x20 MUL PUSH1 0x20 ADD ADD MLOAD SUB PUSH2 0x16B0 JUMPI PUSH1 0x1 SWAP3 POP POP POP PUSH2 0x7E6 JUMP JUMPDEST DUP1 PUSH2 0x16BA DUP2 PUSH2 0x2553 JUMP JUMPDEST SWAP2 POP POP PUSH2 0x167D JUMP JUMPDEST DUP2 SLOAD PUSH1 0x0 SWAP1 DUP2 JUMPDEST DUP2 DUP2 LT ISZERO PUSH2 0x7DF JUMPI DUP4 DUP6 DUP3 DUP2 SLOAD DUP2 LT PUSH2 0x16E4 JUMPI PUSH2 0x16E4 PUSH2 0x24FA JUMP JUMPDEST SWAP1 PUSH1 0x0 MSTORE PUSH1 0x20 PUSH1 0x0 KECCAK256 ADD SLOAD SUB PUSH2 0x16FF JUMPI PUSH1 0x1 SWAP3 POP POP POP PUSH2 0x7E6 JUMP JUMPDEST DUP1 PUSH2 0x1709 DUP2 PUSH2 0x2553 JUMP JUMPDEST SWAP2 POP POP PUSH2 0x16C9 JUMP JUMPDEST DUP2 MLOAD PUSH1 0x60 SWAP1 PUSH2 0x1721 DUP2 PUSH1 0x1 PUSH2 0x256C JUMP JUMPDEST PUSH1 0x1 PUSH1 0x1 PUSH1 0x40 SHL SUB DUP2 GT ISZERO PUSH2 0x1738 JUMPI PUSH2 0x1738 PUSH2 0x1C24 JUMP JUMPDEST PUSH1 0x40 MLOAD SWAP1 DUP1 DUP3 MSTORE DUP1 PUSH1 0x20 MUL PUSH1 0x20 ADD DUP3 ADD PUSH1 0x40 MSTORE DUP1 ISZERO PUSH2 0x1761 JUMPI DUP2 PUSH1 0x20 ADD PUSH1 0x20 DUP3 MUL DUP1 CALLDATASIZE DUP4 CALLDATACOPY ADD SWAP1 POP JUMPDEST POP SWAP2 POP PUSH1 0x0 JUMPDEST DUP2 DUP2 LT ISZERO PUSH2 0x17B8 JUMPI DUP5 DUP2 DUP2 MLOAD DUP2 LT PUSH2 0x1781 JUMPI PUSH2 0x1781 PUSH2 0x24FA JUMP JUMPDEST PUSH1 0x20 MUL PUSH1 0x20 ADD ADD MLOAD DUP4 DUP3 DUP2 MLOAD DUP2 LT PUSH2 0x179B JUMPI PUSH2 0x179B PUSH2 0x24FA JUMP JUMPDEST PUSH1 0x20 SWAP1 DUP2 MUL SWAP2 SWAP1 SWAP2 ADD ADD MSTORE DUP1 PUSH2 0x17B0 DUP2 PUSH2 0x2553 JUMP JUMPDEST SWAP2 POP POP PUSH2 0x1767 JUMP JUMPDEST POP DUP3 DUP3 DUP3 DUP2 MLOAD DUP2 LT PUSH2 0x17CC JUMPI PUSH2 0x17CC PUSH2 0x24FA JUMP JUMPDEST PUSH1 0x20 MUL PUSH1 0x20 ADD ADD DUP2 DUP2 MSTORE POP POP POP SWAP3 SWAP2 POP POP JUMP JUMPDEST DUP1 SLOAD JUMPDEST PUSH1 0x0 DUP2 PUSH2 0x17EE DUP2 PUSH2 0x2584 JUMP JUMPDEST SWAP3 POP GT ISZERO PUSH2 0xBD2 JUMPI DUP2 DUP1 SLOAD DUP1 PUSH2 0x1806 JUMPI PUSH2 0x1806 PUSH2 0x253D JUMP JUMPDEST PUSH1 0x1 SWAP1 SUB DUP2 DUP2 SWAP1 PUSH1 0x0 MSTORE PUSH1 0x20 PUSH1 0x0 KECCAK256 ADD PUSH1 0x0 SWAP1 SSTORE SWAP1 SSTORE PUSH2 0x17E2 JUMP JUMPDEST DUP2 MLOAD PUSH1 0x0 SWAP1 DUP2 JUMPDEST DUP2 DUP2 LT ISZERO PUSH2 0x7DF JUMPI DUP4 PUSH1 0x1 PUSH1 0x1 PUSH1 0xA0 SHL SUB AND DUP6 DUP3 DUP2 MLOAD DUP2 LT PUSH2 0x184C JUMPI PUSH2 0x184C PUSH2 0x24FA JUMP JUMPDEST PUSH1 0x20 MUL PUSH1 0x20 ADD ADD MLOAD PUSH1 0x1 PUSH1 0x1 PUSH1 0xA0 SHL SUB AND SUB PUSH2 0x186D JUMPI PUSH1 0x1 SWAP3 POP POP POP PUSH2 0x7E6 JUMP JUMPDEST DUP1 PUSH2 0x1877 DUP2 PUSH2 0x2553 JUMP JUMPDEST SWAP2 POP POP PUSH2 0x1828 JUMP JUMPDEST DUP2 SLOAD PUSH1 0x0 SWAP1 DUP2 JUMPDEST DUP2 DUP2 LT ISZERO PUSH2 0x18ED JUMPI DUP4 PUSH4 0xFFFFFFFF AND DUP6 DUP3 DUP2 SLOAD DUP2 LT PUSH2 0x18A7 JUMPI PUSH2 0x18A7 PUSH2 0x24FA JUMP JUMPDEST PUSH1 0x0 SWAP2 DUP3 MSTORE PUSH1 0x20 SWAP1 SWAP2 KECCAK256 PUSH1 0x8 DUP3 DIV ADD SLOAD PUSH1 0x7 SWAP1 SWAP2 AND PUSH1 0x4 MUL PUSH2 0x100 EXP SWAP1 DIV PUSH4 0xFFFFFFFF AND SUB PUSH2 0x18DB JUMPI PUSH1 0x0 SWAP3 POP POP POP PUSH2 0x7E6 JUMP JUMPDEST DUP1 PUSH2 0x18E5 DUP2 PUSH2 0x2553 JUMP JUMPDEST SWAP2 POP POP PUSH2 0x1886 JUMP JUMPDEST POP POP DUP3 SLOAD PUSH1 0x1 DUP1 DUP3 ADD DUP6 SSTORE PUSH1 0x0 SWAP5 DUP6 MSTORE PUSH1 0x20 SWAP1 SWAP5 KECCAK256 PUSH1 0x8 DUP3 DIV ADD DUP1 SLOAD PUSH1 0x7 SWAP1 SWAP3 AND PUSH1 0x4 MUL PUSH2 0x100 EXP PUSH4 0xFFFFFFFF DUP2 DUP2 MUL NOT SWAP1 SWAP4 AND SWAP5 SWAP1 SWAP3 AND SWAP2 SWAP1 SWAP2 MUL SWAP3 SWAP1 SWAP3 OR SWAP1 SWAP2 SSTORE POP SWAP1 JUMP JUMPDEST DUP1 SLOAD PUSH1 0x0 SWAP1 DUP2 JUMPDEST DUP2 DUP2 LT ISZERO PUSH2 0xB7D JUMPI DUP4 DUP2 DUP2 SLOAD DUP2 LT PUSH2 0x1955 JUMPI PUSH2 0x1955 PUSH2 0x24FA JUMP JUMPDEST SWAP1 PUSH1 0x0 MSTORE PUSH1 0x20 PUSH1 0x0 KECCAK256 SWAP1 PUSH1 0x4 SWAP2 DUP3 DUP3 DIV ADD SWAP2 SWAP1 MOD PUSH1 0x8 MUL SWAP1 SLOAD SWAP1 PUSH2 0x100 EXP SWAP1 DIV PUSH1 0x1 PUSH1 0x1 PUSH1 0x40 SHL SUB AND DUP4 PUSH2 0x1989 SWAP2 SWAP1 PUSH2 0x25FD JUMP JUMPDEST SWAP3 POP DUP1 PUSH2 0x1995 DUP2 PUSH2 0x2553 JUMP JUMPDEST SWAP2 POP POP PUSH2 0x193B JUMP JUMPDEST DUP2 SLOAD PUSH1 0x0 SWAP1 DUP2 JUMPDEST DUP2 DUP2 LT ISZERO PUSH2 0x7DF JUMPI DUP4 PUSH1 0x1 PUSH1 0x1 PUSH1 0xA0 SHL SUB AND DUP6 DUP3 DUP2 SLOAD DUP2 LT PUSH2 0x19C8 JUMPI PUSH2 0x19C8 PUSH2 0x24FA JUMP JUMPDEST PUSH1 0x0 SWAP2 DUP3 MSTORE PUSH1 0x20 SWAP1 SWAP2 KECCAK256 ADD SLOAD PUSH1 0x1 PUSH1 0x1 PUSH1 0xA0 SHL SUB AND SUB PUSH2 0x1AAD JUMPI PUSH2 0x19ED PUSH1 0x1 DUP4 PUSH2 0x2526 JUMP JUMPDEST DUP2 LT ISZERO PUSH2 0x1A6F JUMPI DUP5 PUSH2 0x1A00 PUSH1 0x1 DUP5 PUSH2 0x2526 JUMP JUMPDEST DUP2 SLOAD DUP2 LT PUSH2 0x1A10 JUMPI PUSH2 0x1A10 PUSH2 0x24FA JUMP JUMPDEST SWAP1 PUSH1 0x0 MSTORE PUSH1 0x20 PUSH1 0x0 KECCAK256 ADD PUSH1 0x0 SWAP1 SLOAD SWAP1 PUSH2 0x100 EXP SWAP1 DIV PUSH1 0x1 PUSH1 0x1 PUSH1 0xA0 SHL SUB AND DUP6 DUP3 DUP2 SLOAD DUP2 LT PUSH2 0x1A40 JUMPI PUSH2 0x1A40 PUSH2 0x24FA JUMP JUMPDEST SWAP1 PUSH1 0x0 MSTORE PUSH1 0x20 PUSH1 0x0 KECCAK256 ADD PUSH1 0x0 PUSH2 0x100 EXP DUP2 SLOAD DUP2 PUSH1 0x1 PUSH1 0x1 PUSH1 0xA0 SHL SUB MUL NOT AND SWAP1 DUP4 PUSH1 0x1 PUSH1 0x1 PUSH1 0xA0 SHL SUB AND MUL OR SWAP1 SSTORE POP JUMPDEST DUP5 DUP1 SLOAD DUP1 PUSH2 0x1A7F JUMPI PUSH2 0x1A7F PUSH2 0x253D JUMP JUMPDEST PUSH1 0x0 DUP3 DUP2 MSTORE PUSH1 0x20 SWAP1 KECCAK256 DUP2 ADD PUSH1 0x0 NOT SWAP1 DUP2 ADD DUP1 SLOAD PUSH1 0x1 PUSH1 0x1 PUSH1 0xA0 SHL SUB NOT AND SWAP1 SSTORE ADD SWAP1 SSTORE POP PUSH1 0x1 SWAP2 POP PUSH2 0x7E6 SWAP1 POP JUMP JUMPDEST DUP1 PUSH2 0x1AB7 DUP2 PUSH2 0x2553 JUMP JUMPDEST SWAP2 POP POP PUSH2 0x19A4 JUMP JUMPDEST DUP2 SLOAD PUSH1 0x0 SWAP1 DUP2 JUMPDEST DUP2 DUP2 LT ISZERO PUSH2 0x7DF JUMPI DUP4 PUSH1 0x1 PUSH1 0x1 PUSH1 0xA0 SHL SUB AND DUP6 DUP3 DUP2 SLOAD DUP2 LT PUSH2 0x1AEA JUMPI PUSH2 0x1AEA PUSH2 0x24FA JUMP JUMPDEST PUSH1 0x0 SWAP2 DUP3 MSTORE PUSH1 0x20 SWAP1 SWAP2 KECCAK256 ADD SLOAD PUSH1 0x1 PUSH1 0x1 PUSH1 0xA0 SHL SUB AND SUB PUSH2 0x1B0F JUMPI PUSH1 0x1 SWAP3 POP POP POP PUSH2 0x7E6 JUMP JUMPDEST DUP1 PUSH2 0x1B19 DUP2 PUSH2 0x2553 JUMP JUMPDEST SWAP2 POP POP PUSH2 0x1AC6 JUMP JUMPDEST DUP2 SLOAD PUSH1 0x0 SWAP1 DUP2 JUMPDEST DUP2 DUP2 LT ISZERO PUSH2 0x1B95 JUMPI DUP4 PUSH1 0x1 PUSH1 0x1 PUSH1 0x40 SHL SUB AND DUP6 DUP3 DUP2 SLOAD DUP2 LT PUSH2 0x1B4C JUMPI PUSH2 0x1B4C PUSH2 0x24FA JUMP JUMPDEST PUSH1 0x0 SWAP2 DUP3 MSTORE PUSH1 0x20 SWAP1 SWAP2 KECCAK256 PUSH1 0x4 DUP3 DIV ADD SLOAD PUSH1 0x3 SWAP1 SWAP2 AND PUSH1 0x8 MUL PUSH2 0x100 EXP SWAP1 DIV PUSH1 0x1 PUSH1 0x1 PUSH1 0x40 SHL SUB AND SUB PUSH2 0x1B83 JUMPI PUSH1 0x0 SWAP3 POP POP POP PUSH2 0x7E6 JUMP JUMPDEST DUP1 PUSH2 0x1B8D DUP2 PUSH2 0x2553 JUMP JUMPDEST SWAP2 POP POP PUSH2 0x1B28 JUMP JUMPDEST POP POP DUP3 SLOAD PUSH1 0x1 DUP1 DUP3 ADD DUP6 SSTORE PUSH1 0x0 SWAP5 DUP6 MSTORE PUSH1 0x20 SWAP1 SWAP5 KECCAK256 PUSH1 0x4 DUP3 DIV ADD DUP1 SLOAD PUSH1 0x3 SWAP1 SWAP3 AND PUSH1 0x8 MUL PUSH2 0x100 EXP PUSH1 0x1 PUSH1 0x1 PUSH1 0x40 SHL SUB DUP2 DUP2 MUL NOT SWAP1 SWAP4 AND SWAP5 SWAP1 SWAP3 AND SWAP2 SWAP1 SWAP2 MUL SWAP3 SWAP1 SWAP3 OR SWAP1 SWAP2 SSTORE POP SWAP1 JUMP JUMPDEST DUP1 CALLDATALOAD PUSH4 0xFFFFFFFF DUP2 AND DUP2 EQ PUSH2 0x1BF3 JUMPI PUSH1 0x0 DUP1 REVERT JUMPDEST SWAP2 SWAP1 POP JUMP JUMPDEST PUSH1 0x0 DUP1 PUSH1 0x40 DUP4 DUP6 SUB SLT ISZERO PUSH2 0x1C0B JUMPI PUSH1 0x0 DUP1 REVERT JUMPDEST DUP3 CALLDATALOAD SWAP2 POP PUSH2 0x1C1B PUSH1 0x20 DUP5 ADD PUSH2 0x1BDF JUMP JUMPDEST SWAP1 POP SWAP3 POP SWAP3 SWAP1 POP JUMP JUMPDEST PUSH4 0x4E487B71 PUSH1 0xE0 SHL PUSH1 0x0 MSTORE PUSH1 0x41 PUSH1 0x4 MSTORE PUSH1 0x24 PUSH1 0x0 REVERT JUMPDEST PUSH1 0x40 MLOAD PUSH1 0x1F DUP3 ADD PUSH1 0x1F NOT AND DUP2 ADD PUSH1 0x1 PUSH1 0x1 PUSH1 0x40 SHL SUB DUP2 GT DUP3 DUP3 LT OR ISZERO PUSH2 0x1C62 JUMPI PUSH2 0x1C62 PUSH2 0x1C24 JUMP JUMPDEST PUSH1 0x40 MSTORE SWAP2 SWAP1 POP JUMP JUMPDEST PUSH1 0x0 PUSH1 0x1 PUSH1 0x1 PUSH1 0x40 SHL SUB DUP3 GT ISZERO PUSH2 0x1C83 JUMPI PUSH2 0x1C83 PUSH2 0x1C24 JUMP JUMPDEST POP PUSH1 0x5 SHL PUSH1 0x20 ADD SWAP1 JUMP JUMPDEST PUSH1 0x0 DUP3 PUSH1 0x1F DUP4 ADD SLT PUSH2 0x1C9E JUMPI PUSH1 0x0 DUP1 REVERT JUMPDEST DUP2 CALLDATALOAD PUSH1 0x20 PUSH2 0x1CB3 PUSH2 0x1CAE DUP4 PUSH2 0x1C6A JUMP JUMPDEST PUSH2 0x1C3A JUMP JUMPDEST DUP3 DUP2 MSTORE PUSH1 0x5 SWAP3 SWAP1 SWAP3 SHL DUP5 ADD DUP2 ADD SWAP2 DUP2 DUP2 ADD SWAP1 DUP7 DUP5 GT ISZERO PUSH2 0x1CD2 JUMPI PUSH1 0x0 DUP1 REVERT JUMPDEST DUP3 DUP7 ADD JUMPDEST DUP5 DUP2 LT ISZERO PUSH2 0x1CED JUMPI DUP1 CALLDATALOAD DUP4 MSTORE SWAP2 DUP4 ADD SWAP2 DUP4 ADD PUSH2 0x1CD6 JUMP JUMPDEST POP SWAP7 SWAP6 POP POP POP POP POP POP JUMP JUMPDEST PUSH1 0x0 DUP1 PUSH1 0x40 DUP4 DUP6 SUB SLT ISZERO PUSH2 0x1D0B JUMPI PUSH1 0x0 DUP1 REVERT JUMPDEST DUP3 CALLDATALOAD PUSH1 0x1 PUSH1 0x1 PUSH1 0x40 SHL SUB DUP1 DUP3 GT ISZERO PUSH2 0x1D22 JUMPI PUSH1 0x0 DUP1 REVERT JUMPDEST PUSH2 0x1D2E DUP7 DUP4 DUP8 ADD PUSH2 0x1C8D JUMP JUMPDEST SWAP4 POP PUSH1 0x20 DUP6 ADD CALLDATALOAD SWAP2 POP DUP1 DUP3 GT ISZERO PUSH2 0x1D44 JUMPI PUSH1 0x0 DUP1 REVERT JUMPDEST POP PUSH2 0x1D51 DUP6 DUP3 DUP7 ADD PUSH2 0x1C8D JUMP JUMPDEST SWAP2 POP POP SWAP3 POP SWAP3 SWAP1 POP JUMP JUMPDEST PUSH1 0x20 DUP1 DUP3 MSTORE DUP3 MLOAD DUP3 DUP3 ADD DUP2 SWAP1 MSTORE PUSH1 0x0 SWAP2 SWAP1 DUP5 DUP3 ADD SWAP1 PUSH1 0x40 DUP6 ADD SWAP1 DUP5 JUMPDEST DUP2 DUP2 LT ISZERO PUSH2 0x1D93 JUMPI DUP4 MLOAD DUP4 MSTORE SWAP3 DUP5 ADD SWAP3 SWAP2 DUP5 ADD SWAP2 PUSH1 0x1 ADD PUSH2 0x1D77 JUMP JUMPDEST POP SWAP1 SWAP7 SWAP6 POP POP POP POP POP POP JUMP JUMPDEST DUP1 CALLDATALOAD PUSH1 0x1 PUSH1 0x1 PUSH1 0x40 SHL SUB DUP2 AND DUP2 EQ PUSH2 0x1BF3 JUMPI PUSH1 0x0 DUP1 REVERT JUMPDEST PUSH1 0x0 DUP1 PUSH1 0x40 DUP4 DUP6 SUB SLT ISZERO PUSH2 0x1DC9 JUMPI PUSH1 0x0 DUP1 REVERT JUMPDEST DUP3 CALLDATALOAD SWAP2 POP PUSH2 0x1C1B PUSH1 0x20 DUP5 ADD PUSH2 0x1D9F JUMP JUMPDEST PUSH1 0x0 DUP1 PUSH1 0x40 DUP4 DUP6 SUB SLT ISZERO PUSH2 0x1DEC JUMPI PUSH1 0x0 DUP1 REVERT JUMPDEST POP POP DUP1 CALLDATALOAD SWAP3 PUSH1 0x20 SWAP1 SWAP2 ADD CALLDATALOAD SWAP2 POP JUMP JUMPDEST PUSH1 0x0 PUSH1 0x20 DUP3 DUP5 SUB SLT ISZERO PUSH2 0x1E0D JUMPI PUSH1 0x0 DUP1 REVERT JUMPDEST POP CALLDATALOAD SWAP2 SWAP1 POP JUMP JUMPDEST PUSH1 0x0 DUP1 PUSH1 0x40 DUP4 DUP6 SUB SLT ISZERO PUSH2 0x1E27 JUMPI PUSH1 0x0 DUP1 REVERT JUMPDEST DUP3 CALLDATALOAD PUSH1 0x1 PUSH1 0x1 PUSH1 0x40 SHL SUB DUP2 GT ISZERO PUSH2 0x1E3D JUMPI PUSH1 0x0 DUP1 REVERT JUMPDEST PUSH2 0x1E49 DUP6 DUP3 DUP7 ADD PUSH2 0x1C8D JUMP JUMPDEST SWAP6 PUSH1 0x20 SWAP5 SWAP1 SWAP5 ADD CALLDATALOAD SWAP5 POP POP POP POP JUMP JUMPDEST DUP1 CALLDATALOAD PUSH1 0x1 PUSH1 0x1 PUSH1 0xE0 SHL SUB NOT DUP2 AND DUP2 EQ PUSH2 0x1BF3 JUMPI PUSH1 0x0 DUP1 REVERT JUMPDEST PUSH1 0x0 DUP1 PUSH1 0x40 DUP4 DUP6 SUB SLT ISZERO PUSH2 0x1E83 JUMPI PUSH1 0x0 DUP1 REVERT JUMPDEST DUP3 CALLDATALOAD SWAP2 POP PUSH2 0x1C1B PUSH1 0x20 DUP5 ADD PUSH2 0x1E58 JUMP JUMPDEST PUSH1 0x0 DUP1 PUSH1 0x40 DUP4 DUP6 SUB SLT ISZERO PUSH2 0x1EA6 JUMPI PUSH1 0x0 DUP1 REVERT JUMPDEST DUP3 CALLDATALOAD PUSH1 0x1 PUSH1 0x1 PUSH1 0x40 SHL SUB DUP2 GT ISZERO PUSH2 0x1EBC JUMPI PUSH1 0x0 DUP1 REVERT JUMPDEST DUP4 ADD PUSH1 0x1F DUP2 ADD DUP6 SGT PUSH2 0x1ECD JUMPI PUSH1 0x0 DUP1 REVERT JUMPDEST DUP1 CALLDATALOAD PUSH1 0x20 PUSH2 0x1EDD PUSH2 0x1CAE DUP4 PUSH2 0x1C6A JUMP JUMPDEST DUP3 DUP2 MSTORE PUSH1 0x5 SWAP3 SWAP1 SWAP3 SHL DUP4 ADD DUP2 ADD SWAP2 DUP2 DUP2 ADD SWAP1 DUP9 DUP5 GT ISZERO PUSH2 0x1EFC JUMPI PUSH1 0x0 DUP1 REVERT JUMPDEST SWAP4 DUP3 ADD SWAP4 JUMPDEST DUP4 DUP6 LT ISZERO PUSH2 0x1F1A JUMPI DUP5 CALLDATALOAD DUP3 MSTORE SWAP4 DUP3 ADD SWAP4 SWAP1 DUP3 ADD SWAP1 PUSH2 0x1F01 JUMP JUMPDEST SWAP9 SWAP7 SWAP1 SWAP2 ADD CALLDATALOAD SWAP7 POP POP POP POP POP POP JUMP JUMPDEST PUSH1 0x0 DUP1 PUSH1 0x40 DUP4 DUP6 SUB SLT ISZERO PUSH2 0x1F3C JUMPI PUSH1 0x0 DUP1 REVERT JUMPDEST DUP3 CALLDATALOAD PUSH1 0x1 PUSH1 0x1 PUSH1 0x40 SHL SUB DUP2 GT ISZERO PUSH2 0x1F52 JUMPI PUSH1 0x0 DUP1 REVERT JUMPDEST DUP4 ADD PUSH1 0x1F DUP2 ADD DUP6 SGT PUSH2 0x1F63 JUMPI PUSH1 0x0 DUP1 REVERT JUMPDEST DUP1 CALLDATALOAD PUSH1 0x20 PUSH2 0x1F73 PUSH2 0x1CAE DUP4 PUSH2 0x1C6A JUMP JUMPDEST DUP3 DUP2 MSTORE PUSH1 0x5 SWAP3 SWAP1 SWAP3 SHL DUP4 ADD DUP2 ADD SWAP2 DUP2 DUP2 ADD SWAP1 DUP9 DUP5 GT ISZERO PUSH2 0x1F92 JUMPI PUSH1 0x0 DUP1 REVERT JUMPDEST SWAP4 DUP3 ADD SWAP4 JUMPDEST DUP4 DUP6 LT ISZERO PUSH2 0x1FB7 JUMPI PUSH2 0x1FA8 DUP6 PUSH2 0x1E58 JUMP JUMPDEST DUP3 MSTORE SWAP4 DUP3 ADD SWAP4 SWAP1 DUP3 ADD SWAP1 PUSH2 0x1F97 JUMP JUMPDEST SWAP6 POP PUSH2 0x1FC6 SWAP1 POP DUP7 DUP3 ADD PUSH2 0x1E58 JUMP JUMPDEST SWAP4 POP POP POP POP SWAP3 POP SWAP3 SWAP1 POP JUMP JUMPDEST PUSH1 0x0 DUP1 DUP4 PUSH1 0x1F DUP5 ADD SLT PUSH2 0x1FE4 JUMPI PUSH1 0x0 DUP1 REVERT JUMPDEST POP DUP2 CALLDATALOAD PUSH1 0x1 PUSH1 0x1 PUSH1 0x40 SHL SUB DUP2 GT ISZERO PUSH2 0x1FFB JUMPI PUSH1 0x0 DUP1 REVERT JUMPDEST PUSH1 0x20 DUP4 ADD SWAP2 POP DUP4 PUSH1 0x20 DUP3 PUSH1 0x5 SHL DUP6 ADD ADD GT ISZERO PUSH2 0x2016 JUMPI PUSH1 0x0 DUP1 REVERT JUMPDEST SWAP3 POP SWAP3 SWAP1 POP JUMP JUMPDEST DUP1 CALLDATALOAD PUSH1 0x1 PUSH1 0x1 PUSH1 0xA0 SHL SUB DUP2 AND DUP2 EQ PUSH2 0x1BF3 JUMPI PUSH1 0x0 DUP1 REVERT JUMPDEST PUSH1 0x0 DUP1 PUSH1 0x0 PUSH1 0x40 DUP5 DUP7 SUB SLT ISZERO PUSH2 0x2049 JUMPI PUSH1 0x0 DUP1 REVERT JUMPDEST DUP4 CALLDATALOAD PUSH1 0x1 PUSH1 0x1 PUSH1 0x40 SHL SUB DUP2 GT ISZERO PUSH2 0x205F JUMPI PUSH1 0x0 DUP1 REVERT JUMPDEST PUSH2 0x206B DUP7 DUP3 DUP8 ADD PUSH2 0x1FD2 JUMP JUMPDEST SWAP1 SWAP5 POP SWAP3 POP PUSH2 0x207E SWAP1 POP PUSH1 0x20 DUP6 ADD PUSH2 0x201D JUMP JUMPDEST SWAP1 POP SWAP3 POP SWAP3 POP SWAP3 JUMP JUMPDEST PUSH1 0x0 DUP3 PUSH1 0x1F DUP4 ADD SLT PUSH2 0x2098 JUMPI PUSH1 0x0 DUP1 REVERT JUMPDEST DUP2 CALLDATALOAD PUSH1 0x1 PUSH1 0x1 PUSH1 0x40 SHL SUB DUP2 GT ISZERO PUSH2 0x20B1 JUMPI PUSH2 0x20B1 PUSH2 0x1C24 JUMP JUMPDEST PUSH2 0x20C4 PUSH1 0x1F DUP3 ADD PUSH1 0x1F NOT AND PUSH1 0x20 ADD PUSH2 0x1C3A JUMP JUMPDEST DUP2 DUP2 MSTORE DUP5 PUSH1 0x20 DUP4 DUP7 ADD ADD GT ISZERO PUSH2 0x20D9 JUMPI PUSH1 0x0 DUP1 REVERT JUMPDEST DUP2 PUSH1 0x20 DUP6 ADD PUSH1 0x20 DUP4 ADD CALLDATACOPY PUSH1 0x0 SWAP2 DUP2 ADD PUSH1 0x20 ADD SWAP2 SWAP1 SWAP2 MSTORE SWAP4 SWAP3 POP POP POP JUMP JUMPDEST PUSH1 0x0 DUP1 PUSH1 0x40 DUP4 DUP6 SUB SLT ISZERO PUSH2 0x2109 JUMPI PUSH1 0x0 DUP1 REVERT JUMPDEST DUP3 CALLDATALOAD PUSH1 0x1 PUSH1 0x1 PUSH1 0x40 SHL SUB DUP1 DUP3 GT ISZERO PUSH2 0x2120 JUMPI PUSH1 0x0 DUP1 REVERT JUMPDEST DUP2 DUP6 ADD SWAP2 POP DUP6 PUSH1 0x1F DUP4 ADD SLT PUSH2 0x2134 JUMPI PUSH1 0x0 DUP1 REVERT JUMPDEST DUP2 CALLDATALOAD PUSH1 0x20 PUSH2 0x2144 PUSH2 0x1CAE DUP4 PUSH2 0x1C6A JUMP JUMPDEST DUP3 DUP2 MSTORE PUSH1 0x5 SWAP3 SWAP1 SWAP3 SHL DUP5 ADD DUP2 ADD SWAP2 DUP2 DUP2 ADD SWAP1 DUP10 DUP5 GT ISZERO PUSH2 0x2163 JUMPI PUSH1 0x0 DUP1 REVERT JUMPDEST DUP3 DUP7 ADD JUMPDEST DUP5 DUP2 LT ISZERO PUSH2 0x219B JUMPI DUP1 CALLDATALOAD DUP7 DUP2 GT ISZERO PUSH2 0x217F JUMPI PUSH1 0x0 DUP1 DUP2 REVERT JUMPDEST PUSH2 0x218D DUP13 DUP7 DUP4 DUP12 ADD ADD PUSH2 0x2087 JUMP JUMPDEST DUP5 MSTORE POP SWAP2 DUP4 ADD SWAP2 DUP4 ADD PUSH2 0x2167 JUMP JUMPDEST POP SWAP7 POP POP DUP7 ADD CALLDATALOAD SWAP3 POP POP DUP1 DUP3 GT ISZERO PUSH2 0x21B2 JUMPI PUSH1 0x0 DUP1 REVERT JUMPDEST POP PUSH2 0x1D51 DUP6 DUP3 DUP7 ADD PUSH2 0x2087 JUMP JUMPDEST PUSH1 0x0 DUP2 MLOAD DUP1 DUP5 MSTORE PUSH1 0x0 JUMPDEST DUP2 DUP2 LT ISZERO PUSH2 0x21E5 JUMPI PUSH1 0x20 DUP2 DUP6 ADD DUP2 ADD MLOAD DUP7 DUP4 ADD DUP3 ADD MSTORE ADD PUSH2 0x21C9 JUMP JUMPDEST DUP2 DUP2 GT ISZERO PUSH2 0x21F7 JUMPI PUSH1 0x0 PUSH1 0x20 DUP4 DUP8 ADD ADD MSTORE JUMPDEST POP PUSH1 0x1F ADD PUSH1 0x1F NOT AND SWAP3 SWAP1 SWAP3 ADD PUSH1 0x20 ADD SWAP3 SWAP2 POP POP JUMP JUMPDEST PUSH1 0x0 PUSH1 0x20 DUP1 DUP4 ADD DUP2 DUP5 MSTORE DUP1 DUP6 MLOAD DUP1 DUP4 MSTORE PUSH1 0x40 DUP7 ADD SWAP2 POP PUSH1 0x40 DUP2 PUSH1 0x5 SHL DUP8 ADD ADD SWAP3 POP DUP4 DUP8 ADD PUSH1 0x0 JUMPDEST DUP3 DUP2 LT ISZERO PUSH2 0x2261 JUMPI PUSH1 0x3F NOT DUP9 DUP7 SUB ADD DUP5 MSTORE PUSH2 0x224F DUP6 DUP4 MLOAD PUSH2 0x21BF JUMP JUMPDEST SWAP5 POP SWAP3 DUP6 ADD SWAP3 SWAP1 DUP6 ADD SWAP1 PUSH1 0x1 ADD PUSH2 0x2233 JUMP JUMPDEST POP SWAP3 SWAP8 SWAP7 POP POP POP POP POP POP POP JUMP JUMPDEST PUSH1 0x0 DUP1 PUSH1 0x0 PUSH1 0x40 DUP5 DUP7 SUB SLT ISZERO PUSH2 0x2283 JUMPI PUSH1 0x0 DUP1 REVERT JUMPDEST DUP4 CALLDATALOAD PUSH1 0x1 PUSH1 0x1 PUSH1 0x40 SHL SUB DUP2 GT ISZERO PUSH2 0x2299 JUMPI PUSH1 0x0 DUP1 REVERT JUMPDEST PUSH2 0x22A5 DUP7 DUP3 DUP8 ADD PUSH2 0x1FD2 JUMP JUMPDEST SWAP1 SWAP8 SWAP1 SWAP7 POP PUSH1 0x20 SWAP6 SWAP1 SWAP6 ADD CALLDATALOAD SWAP5 SWAP4 POP POP POP POP JUMP JUMPDEST PUSH1 0x0 DUP1 PUSH1 0x40 DUP4 DUP6 SUB SLT ISZERO PUSH2 0x22CC JUMPI PUSH1 0x0 DUP1 REVERT JUMPDEST DUP3 CALLDATALOAD SWAP2 POP PUSH2 0x1C1B PUSH1 0x20 DUP5 ADD PUSH2 0x201D JUMP JUMPDEST PUSH1 0x0 DUP1 PUSH1 0x40 DUP4 DUP6 SUB SLT ISZERO PUSH2 0x22EF JUMPI PUSH1 0x0 DUP1 REVERT JUMPDEST DUP3 CALLDATALOAD PUSH1 0x1 PUSH1 0x1 PUSH1 0x40 SHL SUB DUP2 GT ISZERO PUSH2 0x2305 JUMPI PUSH1 0x0 DUP1 REVERT JUMPDEST DUP4 ADD PUSH1 0x1F DUP2 ADD DUP6 SGT PUSH2 0x2316 JUMPI PUSH1 0x0 DUP1 REVERT JUMPDEST DUP1 CALLDATALOAD PUSH1 0x20 PUSH2 0x2326 PUSH2 0x1CAE DUP4 PUSH2 0x1C6A JUMP JUMPDEST DUP3 DUP2 MSTORE PUSH1 0x5 SWAP3 SWAP1 SWAP3 SHL DUP4 ADD DUP2 ADD SWAP2 DUP2 DUP2 ADD SWAP1 DUP9 DUP5 GT ISZERO PUSH2 0x2345 JUMPI PUSH1 0x0 DUP1 REVERT JUMPDEST SWAP4 DUP3 ADD SWAP4 JUMPDEST DUP4 DUP6 LT ISZERO PUSH2 0x236A JUMPI PUSH2 0x235B DUP6 PUSH2 0x1D9F JUMP JUMPDEST DUP3 MSTORE SWAP4 DUP3 ADD SWAP4 SWAP1 DUP3 ADD SWAP1 PUSH2 0x234A JUMP JUMPDEST SWAP6 POP PUSH2 0x1FC6 SWAP1 POP DUP7 DUP3 ADD PUSH2 0x1D9F JUMP JUMPDEST PUSH1 0x0 PUSH1 0x20 DUP3 DUP5 SUB SLT ISZERO PUSH2 0x238B JUMPI PUSH1 0x0 DUP1 REVERT JUMPDEST DUP2 CALLDATALOAD PUSH1 0x1 PUSH1 0x1 PUSH1 0x40 SHL SUB DUP2 GT ISZERO PUSH2 0x23A1 JUMPI PUSH1 0x0 DUP1 REVERT JUMPDEST PUSH2 0xC8C DUP5 DUP3 DUP6 ADD PUSH2 0x1C8D JUMP JUMPDEST PUSH1 0x20 DUP2 MSTORE PUSH1 0x0 PUSH2 0xEC3 PUSH1 0x20 DUP4 ADD DUP5 PUSH2 0x21BF JUMP JUMPDEST PUSH1 0x0 DUP1 PUSH1 0x40 DUP4 DUP6 SUB SLT ISZERO PUSH2 0x23D3 JUMPI PUSH1 0x0 DUP1 REVERT JUMPDEST DUP3 CALLDATALOAD PUSH1 0x1 PUSH1 0x1 PUSH1 0x40 SHL SUB DUP2 GT ISZERO PUSH2 0x23E9 JUMPI PUSH1 0x0 DUP1 REVERT JUMPDEST DUP4 ADD PUSH1 0x1F DUP2 ADD DUP6 SGT PUSH2 0x23FA JUMPI PUSH1 0x0 DUP1 REVERT JUMPDEST DUP1 CALLDATALOAD PUSH1 0x20 PUSH2 0x240A PUSH2 0x1CAE DUP4 PUSH2 0x1C6A JUMP JUMPDEST DUP3 DUP2 MSTORE PUSH1 0x5 SWAP3 SWAP1 SWAP3 SHL DUP4 ADD DUP2 ADD SWAP2 DUP2 DUP2 ADD SWAP1 DUP9 DUP5 GT ISZERO PUSH2 0x2429 JUMPI PUSH1 0x0 DUP1 REVERT JUMPDEST SWAP4 DUP3 ADD SWAP4 JUMPDEST DUP4 DUP6 LT ISZERO PUSH2 0x244E JUMPI PUSH2 0x243F DUP6 PUSH2 0x1BDF JUMP JUMPDEST DUP3 MSTORE SWAP4 DUP3 ADD SWAP4 SWAP1 DUP3 ADD SWAP1 PUSH2 0x242E JUMP JUMPDEST SWAP6 POP PUSH2 0x1FC6 SWAP1 POP DUP7 DUP3 ADD PUSH2 0x1BDF JUMP JUMPDEST PUSH1 0x0 DUP1 PUSH1 0x40 DUP4 DUP6 SUB SLT ISZERO PUSH2 0x2470 JUMPI PUSH1 0x0 DUP1 REVERT JUMPDEST DUP3 CALLDATALOAD PUSH1 0x1 PUSH1 0x1 PUSH1 0x40 SHL SUB DUP2 GT ISZERO PUSH2 0x2486 JUMPI PUSH1 0x0 DUP1 REVERT JUMPDEST DUP4 ADD PUSH1 0x1F DUP2 ADD DUP6 SGT PUSH2 0x2497 JUMPI PUSH1 0x0 DUP1 REVERT JUMPDEST DUP1 CALLDATALOAD PUSH1 0x20 PUSH2 0x24A7 PUSH2 0x1CAE DUP4 PUSH2 0x1C6A JUMP JUMPDEST DUP3 DUP2 MSTORE PUSH1 0x5 SWAP3 SWAP1 SWAP3 SHL DUP4 ADD DUP2 ADD SWAP2 DUP2 DUP2 ADD SWAP1 DUP9 DUP5 GT ISZERO PUSH2 0x24C6 JUMPI PUSH1 0x0 DUP1 REVERT JUMPDEST SWAP4 DUP3 ADD SWAP4 JUMPDEST DUP4 DUP6 LT ISZERO PUSH2 0x24EB JUMPI PUSH2 0x24DC DUP6 PUSH2 0x201D JUMP JUMPDEST DUP3 MSTORE SWAP4 DUP3 ADD SWAP4 SWAP1 DUP3 ADD SWAP1 PUSH2 0x24CB JUMP JUMPDEST SWAP6 POP PUSH2 0x1FC6 SWAP1 POP DUP7 DUP3 ADD PUSH2 0x201D JUMP JUMPDEST PUSH4 0x4E487B71 PUSH1 0xE0 SHL PUSH1 0x0 MSTORE PUSH1 0x32 PUSH1 0x4 MSTORE PUSH1 0x24 PUSH1 0x0 REVERT JUMPDEST PUSH4 0x4E487B71 PUSH1 0xE0 SHL PUSH1 0x0 MSTORE PUSH1 0x11 PUSH1 0x4 MSTORE PUSH1 0x24 PUSH1 0x0 REVERT JUMPDEST PUSH1 0x0 DUP3 DUP3 LT ISZERO PUSH2 0x2538 JUMPI PUSH2 0x2538 PUSH2 0x2510 JUMP JUMPDEST POP SUB SWAP1 JUMP JUMPDEST PUSH4 0x4E487B71 PUSH1 0xE0 SHL PUSH1 0x0 MSTORE PUSH1 0x31 PUSH1 0x4 MSTORE PUSH1 0x24 PUSH1 0x0 REVERT JUMPDEST PUSH1 0x0 PUSH1 0x1 DUP3 ADD PUSH2 0x2565 JUMPI PUSH2 0x2565 PUSH2 0x2510 JUMP JUMPDEST POP PUSH1 0x1 ADD SWAP1 JUMP JUMPDEST PUSH1 0x0 DUP3 NOT DUP3 GT ISZERO PUSH2 0x257F JUMPI PUSH2 0x257F PUSH2 0x2510 JUMP JUMPDEST POP ADD SWAP1 JUMP JUMPDEST PUSH1 0x0 DUP2 PUSH2 0x2593 JUMPI PUSH2 0x2593 PUSH2 0x2510 JUMP JUMPDEST POP PUSH1 0x0 NOT ADD SWAP1 JUMP JUMPDEST PUSH1 0x0 PUSH4 0xFFFFFFFF DUP1 DUP4 AND DUP2 DUP6 AND DUP1 DUP4 SUB DUP3 GT ISZERO PUSH2 0x25BA JUMPI PUSH2 0x25BA PUSH2 0x2510 JUMP JUMPDEST ADD SWAP5 SWAP4 POP POP POP POP JUMP JUMPDEST PUSH1 0x0 PUSH1 0x20 DUP3 DUP5 SUB SLT ISZERO PUSH2 0x25D5 JUMPI PUSH1 0x0 DUP1 REVERT JUMPDEST PUSH2 0xEC3 DUP3 PUSH2 0x201D JUMP JUMPDEST PUSH1 0x0 DUP2 PUSH1 0x0 NOT DIV DUP4 GT DUP3 ISZERO ISZERO AND ISZERO PUSH2 0x25F8 JUMPI PUSH2 0x25F8 PUSH2 0x2510 JUMP JUMPDEST POP MUL SWAP1 JUMP JUMPDEST PUSH1 0x0 PUSH1 0x1 PUSH1 0x1 PUSH1 0x40 SHL SUB DUP1 DUP4 AND DUP2 DUP6 AND DUP1 DUP4 SUB DUP3 GT ISZERO PUSH2 0x25BA JUMPI PUSH2 0x25BA PUSH2 0x2510 JUMP INVALID LOG2 PUSH5 0x6970667358 0x22 SLT KECCAK256 0xD8 PUSH22 0x8C5F3332A1574B6B1E4E503E87802331EB95B9B020F0 0x25 0xA6 0x27 0x25 0xF SWAP15 0xAA 0x2A PUSH5 0x736F6C6343 STOP ADDMOD 0xD STOP CALLER ","sha1":"14222c135c8fe5fd8c71f436a08c480cd0c6e8c2","source":"// SPDX-License-Identifier: MIT\n// Beef Contracts v0.0.0 hello@mcdu.com\n\npragma solidity ^0.8.0;\n\nlibrary Array  {\n\n    // UInt32\n\n    function reset(\n        uint32[] storage t_\n        \n    ) public {\n        uint len = t_.length;\n        while (len-->0)\n            t_.pop();\n    }\n\n    function sum(\n        uint32[] storage t_\n    ) public view returns (uint32 sum_) {\n        uint len = t_.length;\n        for (uint i;i<len;i++)\n             sum_ += t_[i];\n    }\n\n    function insert(\n        uint32[] storage t_,\n        uint32 index_\n    ) public returns (bool) {\n        uint len = t_.length;\n        for (uint i;i<len;i++)\n             if (t_[i]==index_)\n                return false;\n        t_.push(index_);\n        return true;\n    }\n    function exist(uint32[] storage t_, uint32 index_)\n        view public\n    returns (bool)\n    {\n        uint len = t_.length;\n        for (uint i;i<len;i++)\n             if (t_[i]==index_)\n                return true;\n        return false;\n    }\n    function mexist(uint32[] memory t_, uint32 index_)\n        pure public\n    returns (bool)\n    {\n        uint len = t_.length;\n        for (uint i;i<len;i++)\n             if (t_[i]==index_)\n                return true;\n        return false;\n    }\n    function remove(uint32[] storage t_, uint32 index_)\n        public\n    returns (bool)\n    {\n        uint len = t_.length;\n        for (uint i;i<len;i++)\n             if (t_[i]==index_)\n            {\n                if (i<len-1)\n                    t_[i] = t_[len-1];\n                t_.pop();\n                return true;\n            }\n        return false;\n    }\n\n    //Uint64\n\n    function reset(\n        uint64[] storage t_\n        \n    ) public {\n        uint len = t_.length;\n        while (len-->0)\n            t_.pop();\n    }\n\n    function sum(\n        uint64[] storage t_\n    ) public view returns (uint64 sum_) {\n        uint len = t_.length;\n        for (uint i;i<len;i++)\n             sum_ += t_[i];\n    }\n\n    function insert(\n        uint64[] storage t_,\n        uint64 index_\n    ) public returns (bool) {\n        uint len = t_.length;\n        for (uint i;i<len;i++)\n             if (t_[i]==index_)\n                return false;\n        t_.push(index_);\n        return true;\n    }\n    function exist(uint64[] storage t_, uint64 index_)\n        view public\n    returns (bool)\n    {\n        uint len = t_.length;\n        for (uint i;i<len;i++)\n             if (t_[i]==index_)\n                return true;\n        return false;\n    }\n    function mexist(uint64[] memory t_, uint64 index_)\n        pure public\n    returns (bool)\n    {\n        uint len = t_.length;\n        for (uint i;i<len;i++)\n             if (t_[i]==index_)\n                return true;\n        return false;\n    }\n    function remove(uint64[] storage t_, uint64 index_)\n        public\n    returns (bool)\n    {\n        uint len = t_.length;\n        for (uint i;i<len;i++)\n             if (t_[i]==index_)\n            {\n                if (i<len-1)\n                    t_[i] = t_[len-1];\n                t_.pop();\n                return true;\n            }\n        return false;\n    }\n\n    \n\n    function reset(\n        uint256[] storage t_\n        \n    ) public {\n        uint len = t_.length;\n        while (len-->0)\n            t_.pop();\n    }\n\n    function sum(\n        uint256[] storage t_\n    ) public view returns (uint256 sum_) {\n        uint len = t_.length;\n        for (uint i;i<len;i++)\n             sum_ += t_[i];\n    }\n\n    function insert(\n        uint256[] storage t_,\n        uint256 index_\n    ) public returns (bool) {\n        uint len = t_.length;\n        for (uint i;i<len;i++)\n             if (t_[i]==index_)\n                return false;\n        t_.push(index_);\n        return true;\n    }\n    function exist(uint256[] storage t_, uint256 index_)\n        view public\n    returns (bool)\n    {\n        uint len = t_.length;\n        for (uint i;i<len;i++)\n             if (t_[i]==index_)\n                return true;\n        return false;\n    }\n    function mexist(uint256[] memory t_, uint256 index_)\n        pure public\n    returns (bool)\n    {\n        uint len = t_.length;\n        for (uint i;i<len;i++)\n             if (t_[i]==index_)\n                return true;\n        return false;\n    }\n\n    function remove(uint256[] storage t_, uint256 index_)\n        public\n    returns (bool)\n    {\n        uint len = t_.length;\n        for (uint i;i<len;i++)\n             if (t_[i]==index_)\n            {\n                if (i<len-1)\n                    t_[i] = t_[len-1];\n                t_.pop();\n                return true;\n            }\n        return false;\n    }\n\n\n\n\n    function reset(\n        address[] storage t_\n        \n    ) public {\n        uint len = t_.length;\n        while (len-->0)\n            t_.pop();\n    }\n\n    function insert(\n        address[] storage t_,\n        address index_\n    ) public returns (bool) {\n        uint len = t_.length;\n        for (uint i;i<len;i++)\n            if (t_[i]==index_)\n                return false;\n        t_.push(index_);\n        return true;\n    }\n    function c_exist(address[] calldata t_, address index_)\n        pure public\n    returns (bool)\n    {\n        uint len = t_.length;\n        for (uint i;i<len;i++)\n             if (t_[i]==index_)\n                return true;\n        return false;\n    }\n    function s_exist(address[] storage t_, address index_)\n        view public\n    returns (bool)\n    {\n        uint len = t_.length;\n        for (uint i;i<len;i++)\n             if (t_[i]==index_)\n                return true;\n        return false;\n    }\n    function m_exist(address[] memory t_, address index_)\n        pure public\n    returns (bool)\n    {\n        uint len = t_.length;\n        for (uint i;i<len;i++)\n             if (t_[i]==index_)\n                return true;\n        return false;\n    }\n    function remove(address[] storage t_, address index_)\n        public\n    returns (bool)\n    {\n        uint len = t_.length;\n        for (uint i;i<len;i++)\n            if (t_[i]==index_)\n            {\n                if (i<len-1)\n                    t_[i] = t_[len-1];\n                t_.pop();\n                return true;\n            }\n        return false;      \n    }\n    function insert(\n        bytes4[] storage t_,\n        bytes4 index_\n    ) public returns (bool) {\n        uint len = t_.length;\n        for (uint i;i<len;i++)\n            if (t_[i]==index_)\n                return false;\n        t_.push(index_);\n        return true;\n    }\n    function s_exist(bytes4[] storage t_, bytes4 index_)\n        view public\n    returns (bool)\n    {\n        uint len = t_.length;\n        for (uint i;i<len;i++)\n           if (t_[i]==index_)\n                return true;\n        return false;\n    }\n    function m_exist(bytes4[] memory t_, bytes4 index_)\n        pure public\n    returns (bool)\n    {\n        uint len = t_.length;\n        for (uint i;i<len;i++)\n           if (t_[i]==index_)\n                return true;\n        return false;\n    }\n    function remove(bytes4[] storage t_, bytes4 index_)\n        public\n    returns (bool)\n    {\n        uint len = t_.length;\n        for (uint i;i<len;i++)\n            if (t_[i]==index_)\n            {\n                if (i<len-1)\n                    t_[i] = t_[len-1];\n                t_.pop();\n                return true;\n            }\n        return false;\n    }    \n    function push(string[] memory t_, string memory s_)\n        public pure\n    returns (string[] memory out_)\n    {\n        uint len = t_.length;\n        out_ = new string[](len+1);\n        for (uint i;i<len;i++)\n            out_[i]=t_[i];\n        out_[len] = s_;\n    }\n    function push(bytes32[] memory t_, bytes32 s_)\n        public pure\n    returns (bytes32[] memory out_)\n    {\n        uint len = t_.length;\n        out_ = new bytes32[](len+1);\n        for (uint i;i<len;i++)\n            out_[i]=t_[i];\n        out_[len] = s_;\n    }\n    function insert(\n        bytes32[] storage t_,\n        bytes32 s_\n    ) public returns (bool) {\n        uint len = t_.length;\n        for (uint i;i<len;i++)\n            if (t_[i]==s_)\n                return false;\n        t_.push(s_);\n        return true;\n    }\n    function remove(bytes32[] storage t_, bytes32 index_)\n        public\n    returns (bool)\n    {\n        uint len = t_.length;\n        for (uint i;i<len;i++)\n            if (t_[i]==index_)\n            {\n                if (i<len-1)\n                    t_[i] = t_[len-1];\n                t_.pop();\n                return true;\n            }\n        return false;      \n    }\n\n    function c_exist(bytes32[] calldata t_, bytes32 index_)\n        pure public\n    returns (bool)\n    {\n        uint len = t_.length;\n        for (uint i;i<len;i++)\n             if (t_[i]==index_)\n                return true;\n        return false;\n    }\n    function s_exist(bytes32[] storage t_, bytes32 index_)\n        view public\n    returns (bool)\n    {\n        uint len = t_.length;\n        for (uint i;i<len;i++)\n             if (t_[i]==index_)\n                return true;\n        return false;\n    }\n    function m_exist(bytes32[] memory t_, bytes32 index_)\n        pure public\n    returns (bool)\n    {\n        uint len = t_.length;\n        for (uint i;i<len;i++)\n             if (t_[i]==index_)\n                return true;\n        return false;\n    }\n    function addtail(bytes32[] memory in_, bytes32  s_)\n        public\n        pure\n        returns (bytes32[] memory out_)\n    {\n        /*for (uint256 i; i < sols_.length; i++) {\n            if (sols_[i].orderid == sol_.orderid)\n            {\n                sols_[i].qty += sol_.qty;\n                return sols_;\n            }\n        }*/\n        bytes32[] memory set = new bytes32[](1);\n        set[0] = s_;\n        return combine(in_, set);\n    }\n    function addfront(bytes32[] memory in_, bytes32  s_)\n        public\n        pure\n        returns (bytes32[] memory out_)\n    {\n        /*for (uint256 i; i < sols_.length; i++) {\n            if (sols_[i].orderid == sol_.orderid)\n            {\n                sols_[i].qty += sol_.qty;\n                return sols_;\n            }\n        }*/\n        bytes32[] memory set = new bytes32[](1);\n        set[0] = s_;\n        return combine(set,in_);\n    }\n    function combine(bytes32[] memory set1_, bytes32[] memory set2_)\n        public\n        pure\n        returns (bytes32[] memory out_)\n    {\n        uint256 _set1len = set1_.length;\n        uint256 _set2len = set2_.length;\n\n        out_ = new bytes32[](_set1len + _set2len);\n\n        for (uint256 i; i < _set1len; i++) {\n            out_[i] = set1_[i];\n        }\n        for (uint256 i; i < _set2len; i++) {\n            out_[_set1len + i] = set2_[i];\n        }\n    }\n\n    function mexist(bytes32[] memory t_, bytes32 index_)\n        pure public\n    returns (bool)\n    {\n        uint len = t_.length;\n        for (uint i;i<len;i++)\n             if (t_[i]==index_)\n                return true;\n        return false;\n    }\n    function pack(bytes32[] memory t_)\n        pure public\n    returns (bytes memory out_)\n    {\n         uint len = t_.length*32;\n       out_ = new bytes(len);\n        for (uint i=32;i<=len;i+=32)\n            assembly {\n                mstore(add(out_, i), add(t_, i)) \n                }            \n    }\n}","sourcePath":"contracts/agnostic/Array.sol","deployment":{"address":"0xFbA7910966415d5723C31A7B76e6f2E56FefD164","chainid":"9997","blockHeight":3675}}