{"bytecode":"60a060405234801561001057600080fd5b5060405161177d38038061177d83398101604081905261002f916100a6565b806100393361004b565b6001600160a01b0316608052506100d6565b600080546001600160a01b038381166201000081810262010000600160b01b0319851617855560405193049190911692909183917f8be0079c531659141344cd1fd0a4f28419497f9722a3daafe3b4186f6b6457e091a35050565b6000602082840312156100b857600080fd5b81516001600160a01b03811681146100cf57600080fd5b9392505050565b60805161166261011b60003960008181610342015281816103e10152818161047f015281816106f101528181610a6701528181610c8c0152610e7e01526116626000f3fe608060405234801561001057600080fd5b50600436106101375760003560e01c80637af6649a116100b8578063b03fd40d1161007c578063b03fd40d1461032a578063ccc079591461033d578063d693585814610364578063e4b161441461036c578063f2fde38b1461037f578063feab44541461039257610137565b80637af6649a146102a0578063854ba99d146102c15780638da5cb5b146102c957806397962076146102f4578063af640d0f1461030457610137565b80632f54bf6e116100ff5780632f54bf6e146102495780635f5c5baa1461025c5780636296514114610264578063715018a61461029057806372ea61bf1461029857610137565b806301ffc9a7146101bc57806305d6bd9c146101e45780631ef4590d146101ee57806321603f43146102015780632203616d14610221575b61013f6103bc565b600061014f602460043684611204565b8080601f016020809104026020016040519081016040528093929190818152602001838380828437600092018290525060208501519495509250503660231981019150601f19016004838037816024600437600080826000875af4925050506101b781610586565b505050005b6101cf6101ca36600461122e565b61059c565b60405190151581526020015b60405180910390f35b6101ec6105d3565b005b6101cf6101fc366004611258565b6105ea565b61021461020f36600461127a565b61067b565b6040516101db91906112cb565b61023461022f36600461127a565b61068e565b60405163ffffffff90911681526020016101db565b6101cf610257366004611395565b61069f565b6101ec6106cc565b61027761027236600461127a565b6107e1565b60405167ffffffffffffffff90911681526020016101db565b6101ec610813565b6101ec610825565b6102b36102ae3660046113b2565b61083f565b6040519081526020016101db565b6101cf610858565b6000546201000090046001600160a01b03165b6040516001600160a01b0390911681526020016101db565b600054610100900460ff166101cf565b7f2e7a327ef83c2af7579c6634f2f5604519800c5f07626f27bd602fd11ed8e6ec6102b3565b6102b36103383660046113da565b610876565b6102dc7f000000000000000000000000000000000000000000000000000000000000000081565b6101ec610891565b6102b361037a366004611404565b6108ad565b6101ec61038d366004611395565b6108c4565b6103a56103a036600461127a565b61093d565b60405165ffffffffffff90911681526020016101db565b6000546001600160a01b03620100009091041633148061046f57506001600160a01b037f0000000000000000000000000000000000000000000000000000000000000000166316279055336040516001600160e01b031960e084901b1681526001600160a01b039091166004820152602401602060405180830381865afa15801561044b573d6000803e3d6000fd5b505050506040513d601f19601f8201168201806040525081019061046f919061142a565b8061050d57506001600160a01b037f000000000000000000000000000000000000000000000000000000000000000016636d70f7ae336040516001600160e01b031960e084901b1681526001600160a01b039091166004820152602401602060405180830381865afa1580156104e9573d6000803e3d6000fd5b505050506040513d601f19601f8201168201806040525081019061050d919061142a565b6105845760405162461bcd60e51b815260206004820152603960248201527f416c6c6f77616e63653a2063616c6c6572206d757374206265205265706f736960448201527f746f727920436f6e7472616374206f72204f70657261746f720000000000000060648201526084015b60405180910390fd5b565b3d6000803e808015610597573d6000f35b3d6000fd5b60006001600160e01b031982166301ffc9a760e01b14806105cd57506001600160e01b031982166315d3789560e31b145b92915050565b6105db6103bc565b6105846000805460ff19169055565b6000828152600160205260408082209051632be5db2360e11b815260048101919091526024810183905273__Array_________________________________906357cbb64690604401602060405180830381865af4158015610650573d6000803e3d6000fd5b505050506040513d601f19601f82011682018060405250810190610674919061142a565b9392505050565b610683611175565b6105cd82600061094e565b60006105cd64e8d4a510008361144c565b600080546001600160a01b03838116620100009092041614156106c457506001919050565b506000919050565b6000546001600160a01b03620100009091041633148061077f57506001600160a01b037f000000000000000000000000000000000000000000000000000000000000000016636d70f7ae336040516001600160e01b031960e084901b1681526001600160a01b039091166004820152602401602060405180830381865afa15801561075b573d6000803e3d6000fd5b505050506040513d601f19601f8201168201806040525081019061077f919061142a565b6105845760405162461bcd60e51b815260206004820152602d60248201527f416c6c6f77616e63653a2063616c6c6572206d757374206265205265706f736960448201526c3a37b93c9027b832b930ba37b960991b606482015260840161057b565b6000806107f36402540be4008461144c565b905082610805826402540be40061146e565b11156105cd576105cd61149b565b61081b6110b9565b610584600061111a565b61082d6103bc565b6105846000805460ff19166001179055565b60006105cd65ffffffffffff831664174876e80061146e565b6000805460ff16806108715750600054610100900460ff165b905090565b60006105cd67ffffffffffffffff83166402540be40061146e565b6108996110b9565b6105846000805461ff001916610100179055565b60006105cd63ffffffff831664e8d4a5100061146e565b6108cc6110b9565b6001600160a01b0381166109315760405162461bcd60e51b815260206004820152602660248201527f4f776e61626c653a206e6577206f776e657220697320746865207a65726f206160448201526564647265737360d01b606482015260840161057b565b61093a8161111a565b50565b60006105cd64174876e8008361144c565b610956611175565b60008381526005602081815260408084208151610180810183528154815260018201546001600160a01b0381169482019490945293909291840191600160a01b900460ff16908111156109ab576109ab611293565b60058111156109bc576109bc611293565b81526001820154600160a81b900460ff1660208201526002820154604080830191909152600383015467ffffffffffffffff80821660608501526801000000000000000080830482166080860152600160801b808404831660a0870152600160c01b909304821660c086015260049586015480831660e087015290810482166101008601529190910416610120909201919091528251905163657c7e0960e01b8152918201529091507f00000000000000000000000000000000000000000000000000000000000000006001600160a01b03169063657c7e09906024016040805180830381865afa158015610ab5573d6000803e3d6000fd5b505050506040513d601f19601f82011682018060405250810190610ad991906114b1565b60408401526020830152608081015160608301528280610b72575060608101516040516336181b6760e11b815260ff909116600482015273__Order_________________________________90636c3036ce90602401602060405180830381865af4158015610b4c573d6000803e3d6000fd5b505050506040513d601f19601f82011682018060405250810190610b70919061142a565b155b15610ff65760208101516001600160a01b0316825260a0810151610b9590610876565b60808301526060810151604051632b2076e360e11b815260ff909116600482015273__Order_________________________________90635640edc690602401602060405180830381865af4158015610bf2573d6000803e3d6000fd5b505050506040513d601f19601f82011682018060405250810190610c16919061142a565b15610c2a57608082015160a0830152610d77565b61012081015167ffffffffffffffff1615610c5757610c4d816101200151610876565b60a0830152610d77565b60405163023aa9ab60e61b81527fcd775f2396f9f13f12bcf8ca32e21df66559a8adc3944d0591127e7731f7ab8560048201527f00000000000000000000000000000000000000000000000000000000000000006001600160a01b031690638eaa6ac090602401602060405180830381865afa158015610cdb573d6000803e3d6000fd5b505050506040513d601f19601f82011682018060405250810190610cff91906114d5565b6001600160a01b031663a9bf985883602001516040518263ffffffff1660e01b8152600401610d3091815260200190565b602060405180830381865afa158015610d4d573d6000803e3d6000fd5b505050506040513d601f19601f82011682018060405250810190610d7191906114f2565b60a08301525b610d848160c00151610876565b60c083015260e0810151610d9790610876565b60e08301526060810151604051635b7d0f6960e11b815260ff909116600482015273__Order_________________________________9063b6fa1ed290602401602060405180830381865af4158015610df4573d6000803e3d6000fd5b505050506040513d601f19601f82011682018060405250810190610e18919061142a565b15610fe157610e2b816101400151610876565b610120830152610160810151610e4090610876565b61014083015260405163023aa9ab60e61b81527f3cb99135f7a7c088d9085b446345038a22a85f4e8fe072b0e1b66d97243e745860048201526000907f00000000000000000000000000000000000000000000000000000000000000006001600160a01b031690638eaa6ac090602401602060405180830381865afa158015610ecd573d6000803e3d6000fd5b505050506040513d601f19601f82011682018060405250810190610ef191906114d5565b6001600160a01b0316636464b68a846020015185604001516040518363ffffffff1660e01b8152600401610f2f929190918252602082015260400190565b606060405180830381865afa158015610f4c573d6000803e3d6000fd5b505050506040513d601f19601f82011682018060405250810190610f70919061150b565b5091505080610fb55760405162461bcd60e51b8152602060048201526011602482015270145d5bdd194e88139bdd081c5d5bdd1959607a1b604482015260640161057b565b610140830151610fc5908261144c565b836101200151610fd5919061146e565b61010084015250610ff6565b610fef816101000151610876565b6101008301525b604051630212d6cb60e21b815273__Order_________________________________9063084b5b2c9061102d908490600401611539565b602060405180830381865af415801561104a573d6000803e3d6000fd5b505050506040513d601f19601f8201168201806040525081019061106e91906114f2565b6101608301526040810151610180830190600581111561109057611090611293565b908160058111156110a3576110a3611293565b9052506060015160ff166101a082015292915050565b6000546001600160a01b03620100009091041633146105845760405162461bcd60e51b815260206004820152601f60248201527f416c6c6f77616e63653a2063616c6c6572206d757374206265204f776e657200604482015260640161057b565b600080546001600160a01b038381166201000081810262010000600160b01b0319851617855560405193049190911692909183917f8be0079c531659141344cd1fd0a4f28419497f9722a3daafe3b4186f6b6457e091a35050565b604051806101c0016040528060006001600160a01b031681526020016000801916815260200160008019168152602001600081526020016000815260200160008152602001600081526020016000815260200160008152602001600081526020016000815260200160008152602001600060058111156111f7576111f7611293565b8152600060209091015290565b6000808585111561121457600080fd5b8386111561122157600080fd5b5050820193919092039150565b60006020828403121561124057600080fd5b81356001600160e01b03198116811461067457600080fd5b6000806040838503121561126b57600080fd5b50508035926020909101359150565b60006020828403121561128c57600080fd5b5035919050565b634e487b7160e01b600052602160045260246000fd5b600681106112c757634e487b7160e01b600052602160045260246000fd5b9052565b81516001600160a01b031681526101c081016020830151602083015260408301516040830152606083015160608301526080830151608083015260a083015160a083015260c083015160c083015260e083015160e083015261010080840151818401525061012080840151818401525061014080840151818401525061016080840151818401525061018080840151611366828501826112a9565b50506101a08381015160ff8116848301525b505092915050565b6001600160a01b038116811461093a57600080fd5b6000602082840312156113a757600080fd5b813561067481611380565b6000602082840312156113c457600080fd5b813565ffffffffffff8116811461067457600080fd5b6000602082840312156113ec57600080fd5b813567ffffffffffffffff8116811461067457600080fd5b60006020828403121561141657600080fd5b813563ffffffff8116811461067457600080fd5b60006020828403121561143c57600080fd5b8151801515811461067457600080fd5b60008261146957634e487b7160e01b600052601260045260246000fd5b500490565b600081600019048311821515161561149657634e487b7160e01b600052601160045260246000fd5b500290565b634e487b7160e01b600052600160045260246000fd5b600080604083850312156114c457600080fd5b505080516020909101519092909150565b6000602082840312156114e757600080fd5b815161067481611380565b60006020828403121561150457600080fd5b5051919050565b60008060006060848603121561152057600080fd5b8351925060208401519150604084015190509250925092565b8151815260208083015161018083019161155d908401826001600160a01b03169052565b50604083015161157060408401826112a9565b506060830151611585606084018260ff169052565b506080830151608083015260a08301516115ab60a084018267ffffffffffffffff169052565b5060c08301516115c760c084018267ffffffffffffffff169052565b5060e08301516115e360e084018267ffffffffffffffff169052565b506101008381015167ffffffffffffffff90811691840191909152610120808501518216908401526101408085015182169084015261016080850151918216818501529061137856fea2646970667358221220b2988a5abb54880aceee4c1637369bb45783666a8df6351f78993b9408f03fd664736f6c634300080b0033","bytecodeSha1":"440a68ebd8cef43199f14f30f0218667d4541dc2","type":"contract","abi":[{"inputs":[{"internalType":"contract Repository","name":"rep_","type":"address"}],"stateMutability":"nonpayable","type":"constructor","name":"constructor"},{"anonymous":false,"inputs":[{"indexed":true,"internalType":"address","name":"previousOwner","type":"address"},{"indexed":true,"internalType":"address","name":"newOwner","type":"address"}],"name":"OwnershipTransferred","type":"event"},{"stateMutability":"nonpayable","type":"fallback"},{"inputs":[],"name":"STOP","outputs":[{"internalType":"bool","name":"","type":"bool"}],"stateMutability":"view","type":"function"},{"inputs":[],"name":"STOPFOREVER","outputs":[{"internalType":"bool","name":"","type":"bool"}],"stateMutability":"view","type":"function"},{"inputs":[{"internalType":"uint256","name":"val_","type":"uint256"}],"name":"UInt256ToUInt32","outputs":[{"internalType":"uint32","name":"","type":"uint32"}],"stateMutability":"pure","type":"function"},{"inputs":[{"internalType":"uint256","name":"val_","type":"uint256"}],"name":"UInt256ToUInt48","outputs":[{"internalType":"uint48","name":"","type":"uint48"}],"stateMutability":"pure","type":"function"},{"inputs":[{"internalType":"uint256","name":"val_","type":"uint256"}],"name":"UInt256ToUInt64","outputs":[{"internalType":"uint64","name":"","type":"uint64"}],"stateMutability":"pure","type":"function"},{"inputs":[{"internalType":"uint32","name":"val_","type":"uint32"}],"name":"UInt32ToUInt256","outputs":[{"internalType":"uint256","name":"","type":"uint256"}],"stateMutability":"pure","type":"function"},{"inputs":[{"internalType":"uint48","name":"val_","type":"uint48"}],"name":"UInt48ToUInt256","outputs":[{"internalType":"uint256","name":"","type":"uint256"}],"stateMutability":"pure","type":"function"},{"inputs":[{"internalType":"uint64","name":"val_","type":"uint64"}],"name":"UInt64ToUInt256","outputs":[{"internalType":"uint256","name":"","type":"uint256"}],"stateMutability":"pure","type":"function"},{"inputs":[{"internalType":"bytes32","name":"_from","type":"bytes32"},{"internalType":"bytes32","name":"fromto_","type":"bytes32"}],"name":"_existPath","outputs":[{"internalType":"bool","name":"","type":"bool"}],"stateMutability":"view","type":"function"},{"inputs":[],"name":"checkOperators","outputs":[],"stateMutability":"view","type":"function"},{"inputs":[],"name":"id","outputs":[{"internalType":"bytes32","name":"","type":"bytes32"}],"stateMutability":"view","type":"function"},{"inputs":[{"internalType":"address","name":"caller_","type":"address"}],"name":"isOwner","outputs":[{"internalType":"bool","name":"","type":"bool"}],"stateMutability":"view","type":"function"},{"inputs":[{"internalType":"uint256","name":"order_","type":"uint256"}],"name":"order","outputs":[{"components":[{"internalType":"address","name":"account","type":"address"},{"internalType":"bytes32","name":"from","type":"bytes32"},{"internalType":"bytes32","name":"to","type":"bytes32"},{"internalType":"uint256","name":"orderid","type":"uint256"},{"internalType":"uint256","name":"qty","type":"uint256"},{"internalType":"uint256","name":"granularity","type":"uint256"},{"internalType":"uint256","name":"qtydone","type":"uint256"},{"internalType":"uint256","name":"originalqty","type":"uint256"},{"internalType":"uint256","name":"quote","type":"uint256"},{"internalType":"uint256","name":"originalquote","type":"uint256"},{"internalType":"uint256","name":"originalbasedquote","type":"uint256"},{"internalType":"uint256","name":"expire","type":"uint256"},{"internalType":"enum Order.State","name":"state","type":"uint8"},{"internalType":"uint8","name":"options","type":"uint8"}],"internalType":"struct Order.InfoPublic","name":"","type":"tuple"}],"stateMutability":"view","type":"function"},{"inputs":[],"name":"owner","outputs":[{"internalType":"address","name":"","type":"address"}],"stateMutability":"view","type":"function"},{"inputs":[],"name":"renounceOwnership","outputs":[],"stateMutability":"nonpayable","type":"function"},{"inputs":[],"name":"rep","outputs":[{"internalType":"contract Repository","name":"","type":"address"}],"stateMutability":"view","type":"function"},{"inputs":[],"name":"setSTOP","outputs":[],"stateMutability":"nonpayable","type":"function"},{"inputs":[],"name":"setSTOPFOREVER","outputs":[],"stateMutability":"nonpayable","type":"function"},{"inputs":[{"internalType":"bytes4","name":"interfaceId","type":"bytes4"}],"name":"supportsInterface","outputs":[{"internalType":"bool","name":"","type":"bool"}],"stateMutability":"view","type":"function"},{"inputs":[{"internalType":"address","name":"newOwner","type":"address"}],"name":"transferOwnership","outputs":[],"stateMutability":"nonpayable","type":"function"},{"inputs":[],"name":"unsetSTOP","outputs":[],"stateMutability":"nonpayable","type":"function"}],"compiler":{"version":"0.8.11+commit.d7f03943","evm_version":"istanbul","optimizer":{"enabled":true,"runs":200}},"contractName":"Market","deployedBytecode":"608060405234801561001057600080fd5b50600436106101375760003560e01c80637af6649a116100b8578063b03fd40d1161007c578063b03fd40d1461032a578063ccc079591461033d578063d693585814610364578063e4b161441461036c578063f2fde38b1461037f578063feab44541461039257610137565b80637af6649a146102a0578063854ba99d146102c15780638da5cb5b146102c957806397962076146102f4578063af640d0f1461030457610137565b80632f54bf6e116100ff5780632f54bf6e146102495780635f5c5baa1461025c5780636296514114610264578063715018a61461029057806372ea61bf1461029857610137565b806301ffc9a7146101bc57806305d6bd9c146101e45780631ef4590d146101ee57806321603f43146102015780632203616d14610221575b61013f6103bc565b600061014f602460043684611204565b8080601f016020809104026020016040519081016040528093929190818152602001838380828437600092018290525060208501519495509250503660231981019150601f19016004838037816024600437600080826000875af4925050506101b781610586565b505050005b6101cf6101ca36600461122e565b61059c565b60405190151581526020015b60405180910390f35b6101ec6105d3565b005b6101cf6101fc366004611258565b6105ea565b61021461020f36600461127a565b61067b565b6040516101db91906112cb565b61023461022f36600461127a565b61068e565b60405163ffffffff90911681526020016101db565b6101cf610257366004611395565b61069f565b6101ec6106cc565b61027761027236600461127a565b6107e1565b60405167ffffffffffffffff90911681526020016101db565b6101ec610813565b6101ec610825565b6102b36102ae3660046113b2565b61083f565b6040519081526020016101db565b6101cf610858565b6000546201000090046001600160a01b03165b6040516001600160a01b0390911681526020016101db565b600054610100900460ff166101cf565b7f2e7a327ef83c2af7579c6634f2f5604519800c5f07626f27bd602fd11ed8e6ec6102b3565b6102b36103383660046113da565b610876565b6102dc7f000000000000000000000000000000000000000000000000000000000000000081565b6101ec610891565b6102b361037a366004611404565b6108ad565b6101ec61038d366004611395565b6108c4565b6103a56103a036600461127a565b61093d565b60405165ffffffffffff90911681526020016101db565b6000546001600160a01b03620100009091041633148061046f57506001600160a01b037f0000000000000000000000000000000000000000000000000000000000000000166316279055336040516001600160e01b031960e084901b1681526001600160a01b039091166004820152602401602060405180830381865afa15801561044b573d6000803e3d6000fd5b505050506040513d601f19601f8201168201806040525081019061046f919061142a565b8061050d57506001600160a01b037f000000000000000000000000000000000000000000000000000000000000000016636d70f7ae336040516001600160e01b031960e084901b1681526001600160a01b039091166004820152602401602060405180830381865afa1580156104e9573d6000803e3d6000fd5b505050506040513d601f19601f8201168201806040525081019061050d919061142a565b6105845760405162461bcd60e51b815260206004820152603960248201527f416c6c6f77616e63653a2063616c6c6572206d757374206265205265706f736960448201527f746f727920436f6e7472616374206f72204f70657261746f720000000000000060648201526084015b60405180910390fd5b565b3d6000803e808015610597573d6000f35b3d6000fd5b60006001600160e01b031982166301ffc9a760e01b14806105cd57506001600160e01b031982166315d3789560e31b145b92915050565b6105db6103bc565b6105846000805460ff19169055565b6000828152600160205260408082209051632be5db2360e11b815260048101919091526024810183905273__$f71e59c5327218924d154e230469c101bd$__906357cbb64690604401602060405180830381865af4158015610650573d6000803e3d6000fd5b505050506040513d601f19601f82011682018060405250810190610674919061142a565b9392505050565b610683611175565b6105cd82600061094e565b60006105cd64e8d4a510008361144c565b600080546001600160a01b03838116620100009092041614156106c457506001919050565b506000919050565b6000546001600160a01b03620100009091041633148061077f57506001600160a01b037f000000000000000000000000000000000000000000000000000000000000000016636d70f7ae336040516001600160e01b031960e084901b1681526001600160a01b039091166004820152602401602060405180830381865afa15801561075b573d6000803e3d6000fd5b505050506040513d601f19601f8201168201806040525081019061077f919061142a565b6105845760405162461bcd60e51b815260206004820152602d60248201527f416c6c6f77616e63653a2063616c6c6572206d757374206265205265706f736960448201526c3a37b93c9027b832b930ba37b960991b606482015260840161057b565b6000806107f36402540be4008461144c565b905082610805826402540be40061146e565b11156105cd576105cd61149b565b61081b6110b9565b610584600061111a565b61082d6103bc565b6105846000805460ff19166001179055565b60006105cd65ffffffffffff831664174876e80061146e565b6000805460ff16806108715750600054610100900460ff165b905090565b60006105cd67ffffffffffffffff83166402540be40061146e565b6108996110b9565b6105846000805461ff001916610100179055565b60006105cd63ffffffff831664e8d4a5100061146e565b6108cc6110b9565b6001600160a01b0381166109315760405162461bcd60e51b815260206004820152602660248201527f4f776e61626c653a206e6577206f776e657220697320746865207a65726f206160448201526564647265737360d01b606482015260840161057b565b61093a8161111a565b50565b60006105cd64174876e8008361144c565b610956611175565b60008381526005602081815260408084208151610180810183528154815260018201546001600160a01b0381169482019490945293909291840191600160a01b900460ff16908111156109ab576109ab611293565b60058111156109bc576109bc611293565b81526001820154600160a81b900460ff1660208201526002820154604080830191909152600383015467ffffffffffffffff80821660608501526801000000000000000080830482166080860152600160801b808404831660a0870152600160c01b909304821660c086015260049586015480831660e087015290810482166101008601529190910416610120909201919091528251905163657c7e0960e01b8152918201529091507f00000000000000000000000000000000000000000000000000000000000000006001600160a01b03169063657c7e09906024016040805180830381865afa158015610ab5573d6000803e3d6000fd5b505050506040513d601f19601f82011682018060405250810190610ad991906114b1565b60408401526020830152608081015160608301528280610b72575060608101516040516336181b6760e11b815260ff909116600482015273__$f7122df39a5f3bad28f404771cd5173291$__90636c3036ce90602401602060405180830381865af4158015610b4c573d6000803e3d6000fd5b505050506040513d601f19601f82011682018060405250810190610b70919061142a565b155b15610ff65760208101516001600160a01b0316825260a0810151610b9590610876565b60808301526060810151604051632b2076e360e11b815260ff909116600482015273__$f7122df39a5f3bad28f404771cd5173291$__90635640edc690602401602060405180830381865af4158015610bf2573d6000803e3d6000fd5b505050506040513d601f19601f82011682018060405250810190610c16919061142a565b15610c2a57608082015160a0830152610d77565b61012081015167ffffffffffffffff1615610c5757610c4d816101200151610876565b60a0830152610d77565b60405163023aa9ab60e61b81527fcd775f2396f9f13f12bcf8ca32e21df66559a8adc3944d0591127e7731f7ab8560048201527f00000000000000000000000000000000000000000000000000000000000000006001600160a01b031690638eaa6ac090602401602060405180830381865afa158015610cdb573d6000803e3d6000fd5b505050506040513d601f19601f82011682018060405250810190610cff91906114d5565b6001600160a01b031663a9bf985883602001516040518263ffffffff1660e01b8152600401610d3091815260200190565b602060405180830381865afa158015610d4d573d6000803e3d6000fd5b505050506040513d601f19601f82011682018060405250810190610d7191906114f2565b60a08301525b610d848160c00151610876565b60c083015260e0810151610d9790610876565b60e08301526060810151604051635b7d0f6960e11b815260ff909116600482015273__$f7122df39a5f3bad28f404771cd5173291$__9063b6fa1ed290602401602060405180830381865af4158015610df4573d6000803e3d6000fd5b505050506040513d601f19601f82011682018060405250810190610e18919061142a565b15610fe157610e2b816101400151610876565b610120830152610160810151610e4090610876565b61014083015260405163023aa9ab60e61b81527f3cb99135f7a7c088d9085b446345038a22a85f4e8fe072b0e1b66d97243e745860048201526000907f00000000000000000000000000000000000000000000000000000000000000006001600160a01b031690638eaa6ac090602401602060405180830381865afa158015610ecd573d6000803e3d6000fd5b505050506040513d601f19601f82011682018060405250810190610ef191906114d5565b6001600160a01b0316636464b68a846020015185604001516040518363ffffffff1660e01b8152600401610f2f929190918252602082015260400190565b606060405180830381865afa158015610f4c573d6000803e3d6000fd5b505050506040513d601f19601f82011682018060405250810190610f70919061150b565b5091505080610fb55760405162461bcd60e51b8152602060048201526011602482015270145d5bdd194e88139bdd081c5d5bdd1959607a1b604482015260640161057b565b610140830151610fc5908261144c565b836101200151610fd5919061146e565b61010084015250610ff6565b610fef816101000151610876565b6101008301525b604051630212d6cb60e21b815273__$f7122df39a5f3bad28f404771cd5173291$__9063084b5b2c9061102d908490600401611539565b602060405180830381865af415801561104a573d6000803e3d6000fd5b505050506040513d601f19601f8201168201806040525081019061106e91906114f2565b6101608301526040810151610180830190600581111561109057611090611293565b908160058111156110a3576110a3611293565b9052506060015160ff166101a082015292915050565b6000546001600160a01b03620100009091041633146105845760405162461bcd60e51b815260206004820152601f60248201527f416c6c6f77616e63653a2063616c6c6572206d757374206265204f776e657200604482015260640161057b565b600080546001600160a01b038381166201000081810262010000600160b01b0319851617855560405193049190911692909183917f8be0079c531659141344cd1fd0a4f28419497f9722a3daafe3b4186f6b6457e091a35050565b604051806101c0016040528060006001600160a01b031681526020016000801916815260200160008019168152602001600081526020016000815260200160008152602001600081526020016000815260200160008152602001600081526020016000815260200160008152602001600060058111156111f7576111f7611293565b8152600060209091015290565b6000808585111561121457600080fd5b8386111561122157600080fd5b5050820193919092039150565b60006020828403121561124057600080fd5b81356001600160e01b03198116811461067457600080fd5b6000806040838503121561126b57600080fd5b50508035926020909101359150565b60006020828403121561128c57600080fd5b5035919050565b634e487b7160e01b600052602160045260246000fd5b600681106112c757634e487b7160e01b600052602160045260246000fd5b9052565b81516001600160a01b031681526101c081016020830151602083015260408301516040830152606083015160608301526080830151608083015260a083015160a083015260c083015160c083015260e083015160e083015261010080840151818401525061012080840151818401525061014080840151818401525061016080840151818401525061018080840151611366828501826112a9565b50506101a08381015160ff8116848301525b505092915050565b6001600160a01b038116811461093a57600080fd5b6000602082840312156113a757600080fd5b813561067481611380565b6000602082840312156113c457600080fd5b813565ffffffffffff8116811461067457600080fd5b6000602082840312156113ec57600080fd5b813567ffffffffffffffff8116811461067457600080fd5b60006020828403121561141657600080fd5b813563ffffffff8116811461067457600080fd5b60006020828403121561143c57600080fd5b8151801515811461067457600080fd5b60008261146957634e487b7160e01b600052601260045260246000fd5b500490565b600081600019048311821515161561149657634e487b7160e01b600052601160045260246000fd5b500290565b634e487b7160e01b600052600160045260246000fd5b600080604083850312156114c457600080fd5b505080516020909101519092909150565b6000602082840312156114e757600080fd5b815161067481611380565b60006020828403121561150457600080fd5b5051919050565b60008060006060848603121561152057600080fd5b8351925060208401519150604084015190509250925092565b8151815260208083015161018083019161155d908401826001600160a01b03169052565b50604083015161157060408401826112a9565b506060830151611585606084018260ff169052565b506080830151608083015260a08301516115ab60a084018267ffffffffffffffff169052565b5060c08301516115c760c084018267ffffffffffffffff169052565b5060e08301516115e360e084018267ffffffffffffffff169052565b506101008381015167ffffffffffffffff90811691840191909152610120808501518216908401526101408085015182169084015261016080850151918216818501529061137856fea2646970667358221220b2988a5abb54880aceee4c1637369bb45783666a8df6351f78993b9408f03fd664736f6c634300080b0033","language":"Solidity","natspec":{"methods":{"ownerOf()":{"details":"Returns the address of the current owner."},"renounceOwnership()":{"details":"Leaves the contract without owner. It will not be possible to call `onlyOwner` functions anymore. Can only be called by the current owner. NOTE: Renouncing ownership will leave the contract without an owner, thereby removing any functionality that is only available to the owner."},"supportsInterface(bytes4)":{"details":"Returns true if this contract implements the interface defined by `interfaceId`. See the corresponding https://eips.ethereum.org/EIPS/eip-165#how-interfaces-are-identified[EIP section] to learn more about how these ids are created. This function call must use less than 30 000 gas."},"transferOwnership(address)":{"details":"Transfers ownership of the contract to a new account (`newOwner`). Can only be called by the current owner."}},"kind":"dev","version":1},"opcodes":"PUSH1 0x80 PUSH1 0x40 MSTORE CALLVALUE DUP1 ISZERO PUSH2 0x10 JUMPI PUSH1 0x0 DUP1 REVERT JUMPDEST POP PUSH1 0x4 CALLDATASIZE LT PUSH2 0x137 JUMPI PUSH1 0x0 CALLDATALOAD PUSH1 0xE0 SHR DUP1 PUSH4 0x7AF6649A GT PUSH2 0xB8 JUMPI DUP1 PUSH4 0xB03FD40D GT PUSH2 0x7C JUMPI DUP1 PUSH4 0xB03FD40D EQ PUSH2 0x32A JUMPI DUP1 PUSH4 0xCCC07959 EQ PUSH2 0x33D JUMPI DUP1 PUSH4 0xD6935858 EQ PUSH2 0x364 JUMPI DUP1 PUSH4 0xE4B16144 EQ PUSH2 0x36C JUMPI DUP1 PUSH4 0xF2FDE38B EQ PUSH2 0x37F JUMPI DUP1 PUSH4 0xFEAB4454 EQ PUSH2 0x392 JUMPI PUSH2 0x137 JUMP JUMPDEST DUP1 PUSH4 0x7AF6649A EQ PUSH2 0x2A0 JUMPI DUP1 PUSH4 0x854BA99D EQ PUSH2 0x2C1 JUMPI DUP1 PUSH4 0x8DA5CB5B EQ PUSH2 0x2C9 JUMPI DUP1 PUSH4 0x97962076 EQ PUSH2 0x2F4 JUMPI DUP1 PUSH4 0xAF640D0F EQ PUSH2 0x304 JUMPI PUSH2 0x137 JUMP JUMPDEST DUP1 PUSH4 0x2F54BF6E GT PUSH2 0xFF JUMPI DUP1 PUSH4 0x2F54BF6E EQ PUSH2 0x249 JUMPI DUP1 PUSH4 0x5F5C5BAA EQ PUSH2 0x25C JUMPI DUP1 PUSH4 0x62965141 EQ PUSH2 0x264 JUMPI DUP1 PUSH4 0x715018A6 EQ PUSH2 0x290 JUMPI DUP1 PUSH4 0x72EA61BF EQ PUSH2 0x298 JUMPI PUSH2 0x137 JUMP JUMPDEST DUP1 PUSH4 0x1FFC9A7 EQ PUSH2 0x1BC JUMPI DUP1 PUSH4 0x5D6BD9C EQ PUSH2 0x1E4 JUMPI DUP1 PUSH4 0x1EF4590D EQ PUSH2 0x1EE JUMPI DUP1 PUSH4 0x21603F43 EQ PUSH2 0x201 JUMPI DUP1 PUSH4 0x2203616D EQ PUSH2 0x221 JUMPI JUMPDEST PUSH2 0x13F PUSH2 0x3BC JUMP JUMPDEST PUSH1 0x0 PUSH2 0x14F PUSH1 0x24 PUSH1 0x4 CALLDATASIZE DUP5 PUSH2 0x1204 JUMP JUMPDEST DUP1 DUP1 PUSH1 0x1F ADD PUSH1 0x20 DUP1 SWAP2 DIV MUL PUSH1 0x20 ADD PUSH1 0x40 MLOAD SWAP1 DUP2 ADD PUSH1 0x40 MSTORE DUP1 SWAP4 SWAP3 SWAP2 SWAP1 DUP2 DUP2 MSTORE PUSH1 0x20 ADD DUP4 DUP4 DUP1 DUP3 DUP5 CALLDATACOPY PUSH1 0x0 SWAP3 ADD DUP3 SWAP1 MSTORE POP PUSH1 0x20 DUP6 ADD MLOAD SWAP5 SWAP6 POP SWAP3 POP POP CALLDATASIZE PUSH1 0x23 NOT DUP2 ADD SWAP2 POP PUSH1 0x1F NOT ADD PUSH1 0x4 DUP4 DUP1 CALLDATACOPY DUP2 PUSH1 0x24 PUSH1 0x4 CALLDATACOPY PUSH1 0x0 DUP1 DUP3 PUSH1 0x0 DUP8 GAS DELEGATECALL SWAP3 POP POP POP PUSH2 0x1B7 DUP2 PUSH2 0x586 JUMP JUMPDEST POP POP POP STOP JUMPDEST PUSH2 0x1CF PUSH2 0x1CA CALLDATASIZE PUSH1 0x4 PUSH2 0x122E JUMP JUMPDEST PUSH2 0x59C JUMP JUMPDEST PUSH1 0x40 MLOAD SWAP1 ISZERO ISZERO DUP2 MSTORE PUSH1 0x20 ADD JUMPDEST PUSH1 0x40 MLOAD DUP1 SWAP2 SUB SWAP1 RETURN JUMPDEST PUSH2 0x1EC PUSH2 0x5D3 JUMP JUMPDEST STOP JUMPDEST PUSH2 0x1CF PUSH2 0x1FC CALLDATASIZE PUSH1 0x4 PUSH2 0x1258 JUMP JUMPDEST PUSH2 0x5EA JUMP JUMPDEST PUSH2 0x214 PUSH2 0x20F CALLDATASIZE PUSH1 0x4 PUSH2 0x127A JUMP JUMPDEST PUSH2 0x67B JUMP JUMPDEST PUSH1 0x40 MLOAD PUSH2 0x1DB SWAP2 SWAP1 PUSH2 0x12CB JUMP JUMPDEST PUSH2 0x234 PUSH2 0x22F CALLDATASIZE PUSH1 0x4 PUSH2 0x127A JUMP JUMPDEST PUSH2 0x68E JUMP JUMPDEST PUSH1 0x40 MLOAD PUSH4 0xFFFFFFFF SWAP1 SWAP2 AND DUP2 MSTORE PUSH1 0x20 ADD PUSH2 0x1DB JUMP JUMPDEST PUSH2 0x1CF PUSH2 0x257 CALLDATASIZE PUSH1 0x4 PUSH2 0x1395 JUMP JUMPDEST PUSH2 0x69F JUMP JUMPDEST PUSH2 0x1EC PUSH2 0x6CC JUMP JUMPDEST PUSH2 0x277 PUSH2 0x272 CALLDATASIZE PUSH1 0x4 PUSH2 0x127A JUMP JUMPDEST PUSH2 0x7E1 JUMP JUMPDEST PUSH1 0x40 MLOAD PUSH8 0xFFFFFFFFFFFFFFFF SWAP1 SWAP2 AND DUP2 MSTORE PUSH1 0x20 ADD PUSH2 0x1DB JUMP JUMPDEST PUSH2 0x1EC PUSH2 0x813 JUMP JUMPDEST PUSH2 0x1EC PUSH2 0x825 JUMP JUMPDEST PUSH2 0x2B3 PUSH2 0x2AE CALLDATASIZE PUSH1 0x4 PUSH2 0x13B2 JUMP JUMPDEST PUSH2 0x83F JUMP JUMPDEST PUSH1 0x40 MLOAD SWAP1 DUP2 MSTORE PUSH1 0x20 ADD PUSH2 0x1DB JUMP JUMPDEST PUSH2 0x1CF PUSH2 0x858 JUMP JUMPDEST PUSH1 0x0 SLOAD PUSH3 0x10000 SWAP1 DIV PUSH1 0x1 PUSH1 0x1 PUSH1 0xA0 SHL SUB AND JUMPDEST PUSH1 0x40 MLOAD PUSH1 0x1 PUSH1 0x1 PUSH1 0xA0 SHL SUB SWAP1 SWAP2 AND DUP2 MSTORE PUSH1 0x20 ADD PUSH2 0x1DB JUMP JUMPDEST PUSH1 0x0 SLOAD PUSH2 0x100 SWAP1 DIV PUSH1 0xFF AND PUSH2 0x1CF JUMP JUMPDEST PUSH32 0x2E7A327EF83C2AF7579C6634F2F5604519800C5F07626F27BD602FD11ED8E6EC PUSH2 0x2B3 JUMP JUMPDEST PUSH2 0x2B3 PUSH2 0x338 CALLDATASIZE PUSH1 0x4 PUSH2 0x13DA JUMP JUMPDEST PUSH2 0x876 JUMP JUMPDEST PUSH2 0x2DC PUSH32 0x0 DUP2 JUMP JUMPDEST PUSH2 0x1EC PUSH2 0x891 JUMP JUMPDEST PUSH2 0x2B3 PUSH2 0x37A CALLDATASIZE PUSH1 0x4 PUSH2 0x1404 JUMP JUMPDEST PUSH2 0x8AD JUMP JUMPDEST PUSH2 0x1EC PUSH2 0x38D CALLDATASIZE PUSH1 0x4 PUSH2 0x1395 JUMP JUMPDEST PUSH2 0x8C4 JUMP JUMPDEST PUSH2 0x3A5 PUSH2 0x3A0 CALLDATASIZE PUSH1 0x4 PUSH2 0x127A JUMP JUMPDEST PUSH2 0x93D JUMP JUMPDEST PUSH1 0x40 MLOAD PUSH6 0xFFFFFFFFFFFF SWAP1 SWAP2 AND DUP2 MSTORE PUSH1 0x20 ADD PUSH2 0x1DB JUMP JUMPDEST PUSH1 0x0 SLOAD PUSH1 0x1 PUSH1 0x1 PUSH1 0xA0 SHL SUB PUSH3 0x10000 SWAP1 SWAP2 DIV AND CALLER EQ DUP1 PUSH2 0x46F JUMPI POP PUSH1 0x1 PUSH1 0x1 PUSH1 0xA0 SHL SUB PUSH32 0x0 AND PUSH4 0x16279055 CALLER PUSH1 0x40 MLOAD PUSH1 0x1 PUSH1 0x1 PUSH1 0xE0 SHL SUB NOT PUSH1 0xE0 DUP5 SWAP1 SHL AND DUP2 MSTORE PUSH1 0x1 PUSH1 0x1 PUSH1 0xA0 SHL SUB SWAP1 SWAP2 AND PUSH1 0x4 DUP3 ADD MSTORE PUSH1 0x24 ADD PUSH1 0x20 PUSH1 0x40 MLOAD DUP1 DUP4 SUB DUP2 DUP7 GAS STATICCALL ISZERO DUP1 ISZERO PUSH2 0x44B JUMPI RETURNDATASIZE PUSH1 0x0 DUP1 RETURNDATACOPY RETURNDATASIZE PUSH1 0x0 REVERT JUMPDEST POP POP POP POP PUSH1 0x40 MLOAD RETURNDATASIZE PUSH1 0x1F NOT PUSH1 0x1F DUP3 ADD AND DUP3 ADD DUP1 PUSH1 0x40 MSTORE POP DUP2 ADD SWAP1 PUSH2 0x46F SWAP2 SWAP1 PUSH2 0x142A JUMP JUMPDEST DUP1 PUSH2 0x50D JUMPI POP PUSH1 0x1 PUSH1 0x1 PUSH1 0xA0 SHL SUB PUSH32 0x0 AND PUSH4 0x6D70F7AE CALLER PUSH1 0x40 MLOAD PUSH1 0x1 PUSH1 0x1 PUSH1 0xE0 SHL SUB NOT PUSH1 0xE0 DUP5 SWAP1 SHL AND DUP2 MSTORE PUSH1 0x1 PUSH1 0x1 PUSH1 0xA0 SHL SUB SWAP1 SWAP2 AND PUSH1 0x4 DUP3 ADD MSTORE PUSH1 0x24 ADD PUSH1 0x20 PUSH1 0x40 MLOAD DUP1 DUP4 SUB DUP2 DUP7 GAS STATICCALL ISZERO DUP1 ISZERO PUSH2 0x4E9 JUMPI RETURNDATASIZE PUSH1 0x0 DUP1 RETURNDATACOPY RETURNDATASIZE PUSH1 0x0 REVERT JUMPDEST POP POP POP POP PUSH1 0x40 MLOAD RETURNDATASIZE PUSH1 0x1F NOT PUSH1 0x1F DUP3 ADD AND DUP3 ADD DUP1 PUSH1 0x40 MSTORE POP DUP2 ADD SWAP1 PUSH2 0x50D SWAP2 SWAP1 PUSH2 0x142A JUMP JUMPDEST PUSH2 0x584 JUMPI PUSH1 0x40 MLOAD PUSH3 0x461BCD PUSH1 0xE5 SHL DUP2 MSTORE PUSH1 0x20 PUSH1 0x4 DUP3 ADD MSTORE PUSH1 0x39 PUSH1 0x24 DUP3 ADD MSTORE PUSH32 0x416C6C6F77616E63653A2063616C6C6572206D757374206265205265706F7369 PUSH1 0x44 DUP3 ADD MSTORE PUSH32 0x746F727920436F6E7472616374206F72204F70657261746F7200000000000000 PUSH1 0x64 DUP3 ADD MSTORE PUSH1 0x84 ADD JUMPDEST PUSH1 0x40 MLOAD DUP1 SWAP2 SUB SWAP1 REVERT JUMPDEST JUMP JUMPDEST RETURNDATASIZE PUSH1 0x0 DUP1 RETURNDATACOPY DUP1 DUP1 ISZERO PUSH2 0x597 JUMPI RETURNDATASIZE PUSH1 0x0 RETURN JUMPDEST RETURNDATASIZE PUSH1 0x0 REVERT JUMPDEST PUSH1 0x0 PUSH1 0x1 PUSH1 0x1 PUSH1 0xE0 SHL SUB NOT DUP3 AND PUSH4 0x1FFC9A7 PUSH1 0xE0 SHL EQ DUP1 PUSH2 0x5CD JUMPI POP PUSH1 0x1 PUSH1 0x1 PUSH1 0xE0 SHL SUB NOT DUP3 AND PUSH4 0x15D37895 PUSH1 0xE3 SHL EQ JUMPDEST SWAP3 SWAP2 POP POP JUMP JUMPDEST PUSH2 0x5DB PUSH2 0x3BC JUMP JUMPDEST PUSH2 0x584 PUSH1 0x0 DUP1 SLOAD PUSH1 0xFF NOT AND SWAP1 SSTORE JUMP JUMPDEST PUSH1 0x0 DUP3 DUP2 MSTORE PUSH1 0x1 PUSH1 0x20 MSTORE PUSH1 0x40 DUP1 DUP3 KECCAK256 SWAP1 MLOAD PUSH4 0x2BE5DB23 PUSH1 0xE1 SHL DUP2 MSTORE PUSH1 0x4 DUP2 ADD SWAP2 SWAP1 SWAP2 MSTORE PUSH1 0x24 DUP2 ADD DUP4 SWAP1 MSTORE PUSH20 0x0 SWAP1 PUSH4 0x57CBB646 SWAP1 PUSH1 0x44 ADD PUSH1 0x20 PUSH1 0x40 MLOAD DUP1 DUP4 SUB DUP2 DUP7 GAS DELEGATECALL ISZERO DUP1 ISZERO PUSH2 0x650 JUMPI RETURNDATASIZE PUSH1 0x0 DUP1 RETURNDATACOPY RETURNDATASIZE PUSH1 0x0 REVERT JUMPDEST POP POP POP POP PUSH1 0x40 MLOAD RETURNDATASIZE PUSH1 0x1F NOT PUSH1 0x1F DUP3 ADD AND DUP3 ADD DUP1 PUSH1 0x40 MSTORE POP DUP2 ADD SWAP1 PUSH2 0x674 SWAP2 SWAP1 PUSH2 0x142A JUMP JUMPDEST SWAP4 SWAP3 POP POP POP JUMP JUMPDEST PUSH2 0x683 PUSH2 0x1175 JUMP JUMPDEST PUSH2 0x5CD DUP3 PUSH1 0x0 PUSH2 0x94E JUMP JUMPDEST PUSH1 0x0 PUSH2 0x5CD PUSH5 0xE8D4A51000 DUP4 PUSH2 0x144C JUMP JUMPDEST PUSH1 0x0 DUP1 SLOAD PUSH1 0x1 PUSH1 0x1 PUSH1 0xA0 SHL SUB DUP4 DUP2 AND PUSH3 0x10000 SWAP1 SWAP3 DIV AND EQ ISZERO PUSH2 0x6C4 JUMPI POP PUSH1 0x1 SWAP2 SWAP1 POP JUMP JUMPDEST POP PUSH1 0x0 SWAP2 SWAP1 POP JUMP JUMPDEST PUSH1 0x0 SLOAD PUSH1 0x1 PUSH1 0x1 PUSH1 0xA0 SHL SUB PUSH3 0x10000 SWAP1 SWAP2 DIV AND CALLER EQ DUP1 PUSH2 0x77F JUMPI POP PUSH1 0x1 PUSH1 0x1 PUSH1 0xA0 SHL SUB PUSH32 0x0 AND PUSH4 0x6D70F7AE CALLER PUSH1 0x40 MLOAD PUSH1 0x1 PUSH1 0x1 PUSH1 0xE0 SHL SUB NOT PUSH1 0xE0 DUP5 SWAP1 SHL AND DUP2 MSTORE PUSH1 0x1 PUSH1 0x1 PUSH1 0xA0 SHL SUB SWAP1 SWAP2 AND PUSH1 0x4 DUP3 ADD MSTORE PUSH1 0x24 ADD PUSH1 0x20 PUSH1 0x40 MLOAD DUP1 DUP4 SUB DUP2 DUP7 GAS STATICCALL ISZERO DUP1 ISZERO PUSH2 0x75B JUMPI RETURNDATASIZE PUSH1 0x0 DUP1 RETURNDATACOPY RETURNDATASIZE PUSH1 0x0 REVERT JUMPDEST POP POP POP POP PUSH1 0x40 MLOAD RETURNDATASIZE PUSH1 0x1F NOT PUSH1 0x1F DUP3 ADD AND DUP3 ADD DUP1 PUSH1 0x40 MSTORE POP DUP2 ADD SWAP1 PUSH2 0x77F SWAP2 SWAP1 PUSH2 0x142A JUMP JUMPDEST PUSH2 0x584 JUMPI PUSH1 0x40 MLOAD PUSH3 0x461BCD PUSH1 0xE5 SHL DUP2 MSTORE PUSH1 0x20 PUSH1 0x4 DUP3 ADD MSTORE PUSH1 0x2D PUSH1 0x24 DUP3 ADD MSTORE PUSH32 0x416C6C6F77616E63653A2063616C6C6572206D757374206265205265706F7369 PUSH1 0x44 DUP3 ADD MSTORE PUSH13 0x3A37B93C9027B832B930BA37B9 PUSH1 0x99 SHL PUSH1 0x64 DUP3 ADD MSTORE PUSH1 0x84 ADD PUSH2 0x57B JUMP JUMPDEST PUSH1 0x0 DUP1 PUSH2 0x7F3 PUSH5 0x2540BE400 DUP5 PUSH2 0x144C JUMP JUMPDEST SWAP1 POP DUP3 PUSH2 0x805 DUP3 PUSH5 0x2540BE400 PUSH2 0x146E JUMP JUMPDEST GT ISZERO PUSH2 0x5CD JUMPI PUSH2 0x5CD PUSH2 0x149B JUMP JUMPDEST PUSH2 0x81B PUSH2 0x10B9 JUMP JUMPDEST PUSH2 0x584 PUSH1 0x0 PUSH2 0x111A JUMP JUMPDEST PUSH2 0x82D PUSH2 0x3BC JUMP JUMPDEST PUSH2 0x584 PUSH1 0x0 DUP1 SLOAD PUSH1 0xFF NOT AND PUSH1 0x1 OR SWAP1 SSTORE JUMP JUMPDEST PUSH1 0x0 PUSH2 0x5CD PUSH6 0xFFFFFFFFFFFF DUP4 AND PUSH5 0x174876E800 PUSH2 0x146E JUMP JUMPDEST PUSH1 0x0 DUP1 SLOAD PUSH1 0xFF AND DUP1 PUSH2 0x871 JUMPI POP PUSH1 0x0 SLOAD PUSH2 0x100 SWAP1 DIV PUSH1 0xFF AND JUMPDEST SWAP1 POP SWAP1 JUMP JUMPDEST PUSH1 0x0 PUSH2 0x5CD PUSH8 0xFFFFFFFFFFFFFFFF DUP4 AND PUSH5 0x2540BE400 PUSH2 0x146E JUMP JUMPDEST PUSH2 0x899 PUSH2 0x10B9 JUMP JUMPDEST PUSH2 0x584 PUSH1 0x0 DUP1 SLOAD PUSH2 0xFF00 NOT AND PUSH2 0x100 OR SWAP1 SSTORE JUMP JUMPDEST PUSH1 0x0 PUSH2 0x5CD PUSH4 0xFFFFFFFF DUP4 AND PUSH5 0xE8D4A51000 PUSH2 0x146E JUMP JUMPDEST PUSH2 0x8CC PUSH2 0x10B9 JUMP JUMPDEST PUSH1 0x1 PUSH1 0x1 PUSH1 0xA0 SHL SUB DUP2 AND PUSH2 0x931 JUMPI PUSH1 0x40 MLOAD PUSH3 0x461BCD PUSH1 0xE5 SHL DUP2 MSTORE PUSH1 0x20 PUSH1 0x4 DUP3 ADD MSTORE PUSH1 0x26 PUSH1 0x24 DUP3 ADD MSTORE PUSH32 0x4F776E61626C653A206E6577206F776E657220697320746865207A65726F2061 PUSH1 0x44 DUP3 ADD MSTORE PUSH6 0x646472657373 PUSH1 0xD0 SHL PUSH1 0x64 DUP3 ADD MSTORE PUSH1 0x84 ADD PUSH2 0x57B JUMP JUMPDEST PUSH2 0x93A DUP2 PUSH2 0x111A JUMP JUMPDEST POP JUMP JUMPDEST PUSH1 0x0 PUSH2 0x5CD PUSH5 0x174876E800 DUP4 PUSH2 0x144C JUMP JUMPDEST PUSH2 0x956 PUSH2 0x1175 JUMP JUMPDEST PUSH1 0x0 DUP4 DUP2 MSTORE PUSH1 0x5 PUSH1 0x20 DUP2 DUP2 MSTORE PUSH1 0x40 DUP1 DUP5 KECCAK256 DUP2 MLOAD PUSH2 0x180 DUP2 ADD DUP4 MSTORE DUP2 SLOAD DUP2 MSTORE PUSH1 0x1 DUP3 ADD SLOAD PUSH1 0x1 PUSH1 0x1 PUSH1 0xA0 SHL SUB DUP2 AND SWAP5 DUP3 ADD SWAP5 SWAP1 SWAP5 MSTORE SWAP4 SWAP1 SWAP3 SWAP2 DUP5 ADD SWAP2 PUSH1 0x1 PUSH1 0xA0 SHL SWAP1 DIV PUSH1 0xFF AND SWAP1 DUP2 GT ISZERO PUSH2 0x9AB JUMPI PUSH2 0x9AB PUSH2 0x1293 JUMP JUMPDEST PUSH1 0x5 DUP2 GT ISZERO PUSH2 0x9BC JUMPI PUSH2 0x9BC PUSH2 0x1293 JUMP JUMPDEST DUP2 MSTORE PUSH1 0x1 DUP3 ADD SLOAD PUSH1 0x1 PUSH1 0xA8 SHL SWAP1 DIV PUSH1 0xFF AND PUSH1 0x20 DUP3 ADD MSTORE PUSH1 0x2 DUP3 ADD SLOAD PUSH1 0x40 DUP1 DUP4 ADD SWAP2 SWAP1 SWAP2 MSTORE PUSH1 0x3 DUP4 ADD SLOAD PUSH8 0xFFFFFFFFFFFFFFFF DUP1 DUP3 AND PUSH1 0x60 DUP6 ADD MSTORE PUSH9 0x10000000000000000 DUP1 DUP4 DIV DUP3 AND PUSH1 0x80 DUP7 ADD MSTORE PUSH1 0x1 PUSH1 0x80 SHL DUP1 DUP5 DIV DUP4 AND PUSH1 0xA0 DUP8 ADD MSTORE PUSH1 0x1 PUSH1 0xC0 SHL SWAP1 SWAP4 DIV DUP3 AND PUSH1 0xC0 DUP7 ADD MSTORE PUSH1 0x4 SWAP6 DUP7 ADD SLOAD DUP1 DUP4 AND PUSH1 0xE0 DUP8 ADD MSTORE SWAP1 DUP2 DIV DUP3 AND PUSH2 0x100 DUP7 ADD MSTORE SWAP2 SWAP1 SWAP2 DIV AND PUSH2 0x120 SWAP1 SWAP3 ADD SWAP2 SWAP1 SWAP2 MSTORE DUP3 MLOAD SWAP1 MLOAD PUSH4 0x657C7E09 PUSH1 0xE0 SHL DUP2 MSTORE SWAP2 DUP3 ADD MSTORE SWAP1 SWAP2 POP PUSH32 0x0 PUSH1 0x1 PUSH1 0x1 PUSH1 0xA0 SHL SUB AND SWAP1 PUSH4 0x657C7E09 SWAP1 PUSH1 0x24 ADD PUSH1 0x40 DUP1 MLOAD DUP1 DUP4 SUB DUP2 DUP7 GAS STATICCALL ISZERO DUP1 ISZERO PUSH2 0xAB5 JUMPI RETURNDATASIZE PUSH1 0x0 DUP1 RETURNDATACOPY RETURNDATASIZE PUSH1 0x0 REVERT JUMPDEST POP POP POP POP PUSH1 0x40 MLOAD RETURNDATASIZE PUSH1 0x1F NOT PUSH1 0x1F DUP3 ADD AND DUP3 ADD DUP1 PUSH1 0x40 MSTORE POP DUP2 ADD SWAP1 PUSH2 0xAD9 SWAP2 SWAP1 PUSH2 0x14B1 JUMP JUMPDEST PUSH1 0x40 DUP5 ADD MSTORE PUSH1 0x20 DUP4 ADD MSTORE PUSH1 0x80 DUP2 ADD MLOAD PUSH1 0x60 DUP4 ADD MSTORE DUP3 DUP1 PUSH2 0xB72 JUMPI POP PUSH1 0x60 DUP2 ADD MLOAD PUSH1 0x40 MLOAD PUSH4 0x36181B67 PUSH1 0xE1 SHL DUP2 MSTORE PUSH1 0xFF SWAP1 SWAP2 AND PUSH1 0x4 DUP3 ADD MSTORE PUSH20 0x0 SWAP1 PUSH4 0x6C3036CE SWAP1 PUSH1 0x24 ADD PUSH1 0x20 PUSH1 0x40 MLOAD DUP1 DUP4 SUB DUP2 DUP7 GAS DELEGATECALL ISZERO DUP1 ISZERO PUSH2 0xB4C JUMPI RETURNDATASIZE PUSH1 0x0 DUP1 RETURNDATACOPY RETURNDATASIZE PUSH1 0x0 REVERT JUMPDEST POP POP POP POP PUSH1 0x40 MLOAD RETURNDATASIZE PUSH1 0x1F NOT PUSH1 0x1F DUP3 ADD AND DUP3 ADD DUP1 PUSH1 0x40 MSTORE POP DUP2 ADD SWAP1 PUSH2 0xB70 SWAP2 SWAP1 PUSH2 0x142A JUMP JUMPDEST ISZERO JUMPDEST ISZERO PUSH2 0xFF6 JUMPI PUSH1 0x20 DUP2 ADD MLOAD PUSH1 0x1 PUSH1 0x1 PUSH1 0xA0 SHL SUB AND DUP3 MSTORE PUSH1 0xA0 DUP2 ADD MLOAD PUSH2 0xB95 SWAP1 PUSH2 0x876 JUMP JUMPDEST PUSH1 0x80 DUP4 ADD MSTORE PUSH1 0x60 DUP2 ADD MLOAD PUSH1 0x40 MLOAD PUSH4 0x2B2076E3 PUSH1 0xE1 SHL DUP2 MSTORE PUSH1 0xFF SWAP1 SWAP2 AND PUSH1 0x4 DUP3 ADD MSTORE PUSH20 0x0 SWAP1 PUSH4 0x5640EDC6 SWAP1 PUSH1 0x24 ADD PUSH1 0x20 PUSH1 0x40 MLOAD DUP1 DUP4 SUB DUP2 DUP7 GAS DELEGATECALL ISZERO DUP1 ISZERO PUSH2 0xBF2 JUMPI RETURNDATASIZE PUSH1 0x0 DUP1 RETURNDATACOPY RETURNDATASIZE PUSH1 0x0 REVERT JUMPDEST POP POP POP POP PUSH1 0x40 MLOAD RETURNDATASIZE PUSH1 0x1F NOT PUSH1 0x1F DUP3 ADD AND DUP3 ADD DUP1 PUSH1 0x40 MSTORE POP DUP2 ADD SWAP1 PUSH2 0xC16 SWAP2 SWAP1 PUSH2 0x142A JUMP JUMPDEST ISZERO PUSH2 0xC2A JUMPI PUSH1 0x80 DUP3 ADD MLOAD PUSH1 0xA0 DUP4 ADD MSTORE PUSH2 0xD77 JUMP JUMPDEST PUSH2 0x120 DUP2 ADD MLOAD PUSH8 0xFFFFFFFFFFFFFFFF AND ISZERO PUSH2 0xC57 JUMPI PUSH2 0xC4D DUP2 PUSH2 0x120 ADD MLOAD PUSH2 0x876 JUMP JUMPDEST PUSH1 0xA0 DUP4 ADD MSTORE PUSH2 0xD77 JUMP JUMPDEST PUSH1 0x40 MLOAD PUSH4 0x23AA9AB PUSH1 0xE6 SHL DUP2 MSTORE PUSH32 0xCD775F2396F9F13F12BCF8CA32E21DF66559A8ADC3944D0591127E7731F7AB85 PUSH1 0x4 DUP3 ADD MSTORE PUSH32 0x0 PUSH1 0x1 PUSH1 0x1 PUSH1 0xA0 SHL SUB AND SWAP1 PUSH4 0x8EAA6AC0 SWAP1 PUSH1 0x24 ADD PUSH1 0x20 PUSH1 0x40 MLOAD DUP1 DUP4 SUB DUP2 DUP7 GAS STATICCALL ISZERO DUP1 ISZERO PUSH2 0xCDB JUMPI RETURNDATASIZE PUSH1 0x0 DUP1 RETURNDATACOPY RETURNDATASIZE PUSH1 0x0 REVERT JUMPDEST POP POP POP POP PUSH1 0x40 MLOAD RETURNDATASIZE PUSH1 0x1F NOT PUSH1 0x1F DUP3 ADD AND DUP3 ADD DUP1 PUSH1 0x40 MSTORE POP DUP2 ADD SWAP1 PUSH2 0xCFF SWAP2 SWAP1 PUSH2 0x14D5 JUMP JUMPDEST PUSH1 0x1 PUSH1 0x1 PUSH1 0xA0 SHL SUB AND PUSH4 0xA9BF9858 DUP4 PUSH1 0x20 ADD MLOAD PUSH1 0x40 MLOAD DUP3 PUSH4 0xFFFFFFFF AND PUSH1 0xE0 SHL DUP2 MSTORE PUSH1 0x4 ADD PUSH2 0xD30 SWAP2 DUP2 MSTORE PUSH1 0x20 ADD SWAP1 JUMP JUMPDEST PUSH1 0x20 PUSH1 0x40 MLOAD DUP1 DUP4 SUB DUP2 DUP7 GAS STATICCALL ISZERO DUP1 ISZERO PUSH2 0xD4D JUMPI RETURNDATASIZE PUSH1 0x0 DUP1 RETURNDATACOPY RETURNDATASIZE PUSH1 0x0 REVERT JUMPDEST POP POP POP POP PUSH1 0x40 MLOAD RETURNDATASIZE PUSH1 0x1F NOT PUSH1 0x1F DUP3 ADD AND DUP3 ADD DUP1 PUSH1 0x40 MSTORE POP DUP2 ADD SWAP1 PUSH2 0xD71 SWAP2 SWAP1 PUSH2 0x14F2 JUMP JUMPDEST PUSH1 0xA0 DUP4 ADD MSTORE JUMPDEST PUSH2 0xD84 DUP2 PUSH1 0xC0 ADD MLOAD PUSH2 0x876 JUMP JUMPDEST PUSH1 0xC0 DUP4 ADD MSTORE PUSH1 0xE0 DUP2 ADD MLOAD PUSH2 0xD97 SWAP1 PUSH2 0x876 JUMP JUMPDEST PUSH1 0xE0 DUP4 ADD MSTORE PUSH1 0x60 DUP2 ADD MLOAD PUSH1 0x40 MLOAD PUSH4 0x5B7D0F69 PUSH1 0xE1 SHL DUP2 MSTORE PUSH1 0xFF SWAP1 SWAP2 AND PUSH1 0x4 DUP3 ADD MSTORE PUSH20 0x0 SWAP1 PUSH4 0xB6FA1ED2 SWAP1 PUSH1 0x24 ADD PUSH1 0x20 PUSH1 0x40 MLOAD DUP1 DUP4 SUB DUP2 DUP7 GAS DELEGATECALL ISZERO DUP1 ISZERO PUSH2 0xDF4 JUMPI RETURNDATASIZE PUSH1 0x0 DUP1 RETURNDATACOPY RETURNDATASIZE PUSH1 0x0 REVERT JUMPDEST POP POP POP POP PUSH1 0x40 MLOAD RETURNDATASIZE PUSH1 0x1F NOT PUSH1 0x1F DUP3 ADD AND DUP3 ADD DUP1 PUSH1 0x40 MSTORE POP DUP2 ADD SWAP1 PUSH2 0xE18 SWAP2 SWAP1 PUSH2 0x142A JUMP JUMPDEST ISZERO PUSH2 0xFE1 JUMPI PUSH2 0xE2B DUP2 PUSH2 0x140 ADD MLOAD PUSH2 0x876 JUMP JUMPDEST PUSH2 0x120 DUP4 ADD MSTORE PUSH2 0x160 DUP2 ADD MLOAD PUSH2 0xE40 SWAP1 PUSH2 0x876 JUMP JUMPDEST PUSH2 0x140 DUP4 ADD MSTORE PUSH1 0x40 MLOAD PUSH4 0x23AA9AB PUSH1 0xE6 SHL DUP2 MSTORE PUSH32 0x3CB99135F7A7C088D9085B446345038A22A85F4E8FE072B0E1B66D97243E7458 PUSH1 0x4 DUP3 ADD MSTORE PUSH1 0x0 SWAP1 PUSH32 0x0 PUSH1 0x1 PUSH1 0x1 PUSH1 0xA0 SHL SUB AND SWAP1 PUSH4 0x8EAA6AC0 SWAP1 PUSH1 0x24 ADD PUSH1 0x20 PUSH1 0x40 MLOAD DUP1 DUP4 SUB DUP2 DUP7 GAS STATICCALL ISZERO DUP1 ISZERO PUSH2 0xECD JUMPI RETURNDATASIZE PUSH1 0x0 DUP1 RETURNDATACOPY RETURNDATASIZE PUSH1 0x0 REVERT JUMPDEST POP POP POP POP PUSH1 0x40 MLOAD RETURNDATASIZE PUSH1 0x1F NOT PUSH1 0x1F DUP3 ADD AND DUP3 ADD DUP1 PUSH1 0x40 MSTORE POP DUP2 ADD SWAP1 PUSH2 0xEF1 SWAP2 SWAP1 PUSH2 0x14D5 JUMP JUMPDEST PUSH1 0x1 PUSH1 0x1 PUSH1 0xA0 SHL SUB AND PUSH4 0x6464B68A DUP5 PUSH1 0x20 ADD MLOAD DUP6 PUSH1 0x40 ADD MLOAD PUSH1 0x40 MLOAD DUP4 PUSH4 0xFFFFFFFF AND PUSH1 0xE0 SHL DUP2 MSTORE PUSH1 0x4 ADD PUSH2 0xF2F SWAP3 SWAP2 SWAP1 SWAP2 DUP3 MSTORE PUSH1 0x20 DUP3 ADD MSTORE PUSH1 0x40 ADD SWAP1 JUMP JUMPDEST PUSH1 0x60 PUSH1 0x40 MLOAD DUP1 DUP4 SUB DUP2 DUP7 GAS STATICCALL ISZERO DUP1 ISZERO PUSH2 0xF4C JUMPI RETURNDATASIZE PUSH1 0x0 DUP1 RETURNDATACOPY RETURNDATASIZE PUSH1 0x0 REVERT JUMPDEST POP POP POP POP PUSH1 0x40 MLOAD RETURNDATASIZE PUSH1 0x1F NOT PUSH1 0x1F DUP3 ADD AND DUP3 ADD DUP1 PUSH1 0x40 MSTORE POP DUP2 ADD SWAP1 PUSH2 0xF70 SWAP2 SWAP1 PUSH2 0x150B JUMP JUMPDEST POP SWAP2 POP POP DUP1 PUSH2 0xFB5 JUMPI PUSH1 0x40 MLOAD PUSH3 0x461BCD PUSH1 0xE5 SHL DUP2 MSTORE PUSH1 0x20 PUSH1 0x4 DUP3 ADD MSTORE PUSH1 0x11 PUSH1 0x24 DUP3 ADD MSTORE PUSH17 0x145D5BDD194E88139BDD081C5D5BDD1959 PUSH1 0x7A SHL PUSH1 0x44 DUP3 ADD MSTORE PUSH1 0x64 ADD PUSH2 0x57B JUMP JUMPDEST PUSH2 0x140 DUP4 ADD MLOAD PUSH2 0xFC5 SWAP1 DUP3 PUSH2 0x144C JUMP JUMPDEST DUP4 PUSH2 0x120 ADD MLOAD PUSH2 0xFD5 SWAP2 SWAP1 PUSH2 0x146E JUMP JUMPDEST PUSH2 0x100 DUP5 ADD MSTORE POP PUSH2 0xFF6 JUMP JUMPDEST PUSH2 0xFEF DUP2 PUSH2 0x100 ADD MLOAD PUSH2 0x876 JUMP JUMPDEST PUSH2 0x100 DUP4 ADD MSTORE JUMPDEST PUSH1 0x40 MLOAD PUSH4 0x212D6CB PUSH1 0xE2 SHL DUP2 MSTORE PUSH20 0x0 SWAP1 PUSH4 0x84B5B2C SWAP1 PUSH2 0x102D SWAP1 DUP5 SWAP1 PUSH1 0x4 ADD PUSH2 0x1539 JUMP JUMPDEST PUSH1 0x20 PUSH1 0x40 MLOAD DUP1 DUP4 SUB DUP2 DUP7 GAS DELEGATECALL ISZERO DUP1 ISZERO PUSH2 0x104A JUMPI RETURNDATASIZE PUSH1 0x0 DUP1 RETURNDATACOPY RETURNDATASIZE PUSH1 0x0 REVERT JUMPDEST POP POP POP POP PUSH1 0x40 MLOAD RETURNDATASIZE PUSH1 0x1F NOT PUSH1 0x1F DUP3 ADD AND DUP3 ADD DUP1 PUSH1 0x40 MSTORE POP DUP2 ADD SWAP1 PUSH2 0x106E SWAP2 SWAP1 PUSH2 0x14F2 JUMP JUMPDEST PUSH2 0x160 DUP4 ADD MSTORE PUSH1 0x40 DUP2 ADD MLOAD PUSH2 0x180 DUP4 ADD SWAP1 PUSH1 0x5 DUP2 GT ISZERO PUSH2 0x1090 JUMPI PUSH2 0x1090 PUSH2 0x1293 JUMP JUMPDEST SWAP1 DUP2 PUSH1 0x5 DUP2 GT ISZERO PUSH2 0x10A3 JUMPI PUSH2 0x10A3 PUSH2 0x1293 JUMP JUMPDEST SWAP1 MSTORE POP PUSH1 0x60 ADD MLOAD PUSH1 0xFF AND PUSH2 0x1A0 DUP3 ADD MSTORE SWAP3 SWAP2 POP POP JUMP JUMPDEST PUSH1 0x0 SLOAD PUSH1 0x1 PUSH1 0x1 PUSH1 0xA0 SHL SUB PUSH3 0x10000 SWAP1 SWAP2 DIV AND CALLER EQ PUSH2 0x584 JUMPI PUSH1 0x40 MLOAD PUSH3 0x461BCD PUSH1 0xE5 SHL DUP2 MSTORE PUSH1 0x20 PUSH1 0x4 DUP3 ADD MSTORE PUSH1 0x1F PUSH1 0x24 DUP3 ADD MSTORE PUSH32 0x416C6C6F77616E63653A2063616C6C6572206D757374206265204F776E657200 PUSH1 0x44 DUP3 ADD MSTORE PUSH1 0x64 ADD PUSH2 0x57B JUMP JUMPDEST PUSH1 0x0 DUP1 SLOAD PUSH1 0x1 PUSH1 0x1 PUSH1 0xA0 SHL SUB DUP4 DUP2 AND PUSH3 0x10000 DUP2 DUP2 MUL PUSH3 0x10000 PUSH1 0x1 PUSH1 0xB0 SHL SUB NOT DUP6 AND OR DUP6 SSTORE PUSH1 0x40 MLOAD SWAP4 DIV SWAP2 SWAP1 SWAP2 AND SWAP3 SWAP1 SWAP2 DUP4 SWAP2 PUSH32 0x8BE0079C531659141344CD1FD0A4F28419497F9722A3DAAFE3B4186F6B6457E0 SWAP2 LOG3 POP POP JUMP JUMPDEST PUSH1 0x40 MLOAD DUP1 PUSH2 0x1C0 ADD PUSH1 0x40 MSTORE DUP1 PUSH1 0x0 PUSH1 0x1 PUSH1 0x1 PUSH1 0xA0 SHL SUB AND DUP2 MSTORE PUSH1 0x20 ADD PUSH1 0x0 DUP1 NOT AND DUP2 MSTORE PUSH1 0x20 ADD PUSH1 0x0 DUP1 NOT AND DUP2 MSTORE PUSH1 0x20 ADD PUSH1 0x0 DUP2 MSTORE PUSH1 0x20 ADD PUSH1 0x0 DUP2 MSTORE PUSH1 0x20 ADD PUSH1 0x0 DUP2 MSTORE PUSH1 0x20 ADD PUSH1 0x0 DUP2 MSTORE PUSH1 0x20 ADD PUSH1 0x0 DUP2 MSTORE PUSH1 0x20 ADD PUSH1 0x0 DUP2 MSTORE PUSH1 0x20 ADD PUSH1 0x0 DUP2 MSTORE PUSH1 0x20 ADD PUSH1 0x0 DUP2 MSTORE PUSH1 0x20 ADD PUSH1 0x0 DUP2 MSTORE PUSH1 0x20 ADD PUSH1 0x0 PUSH1 0x5 DUP2 GT ISZERO PUSH2 0x11F7 JUMPI PUSH2 0x11F7 PUSH2 0x1293 JUMP JUMPDEST DUP2 MSTORE PUSH1 0x0 PUSH1 0x20 SWAP1 SWAP2 ADD MSTORE SWAP1 JUMP JUMPDEST PUSH1 0x0 DUP1 DUP6 DUP6 GT ISZERO PUSH2 0x1214 JUMPI PUSH1 0x0 DUP1 REVERT JUMPDEST DUP4 DUP7 GT ISZERO PUSH2 0x1221 JUMPI PUSH1 0x0 DUP1 REVERT JUMPDEST POP POP DUP3 ADD SWAP4 SWAP2 SWAP1 SWAP3 SUB SWAP2 POP JUMP JUMPDEST PUSH1 0x0 PUSH1 0x20 DUP3 DUP5 SUB SLT ISZERO PUSH2 0x1240 JUMPI PUSH1 0x0 DUP1 REVERT JUMPDEST DUP2 CALLDATALOAD PUSH1 0x1 PUSH1 0x1 PUSH1 0xE0 SHL SUB NOT DUP2 AND DUP2 EQ PUSH2 0x674 JUMPI PUSH1 0x0 DUP1 REVERT JUMPDEST PUSH1 0x0 DUP1 PUSH1 0x40 DUP4 DUP6 SUB SLT ISZERO PUSH2 0x126B JUMPI PUSH1 0x0 DUP1 REVERT JUMPDEST POP POP DUP1 CALLDATALOAD SWAP3 PUSH1 0x20 SWAP1 SWAP2 ADD CALLDATALOAD SWAP2 POP JUMP JUMPDEST PUSH1 0x0 PUSH1 0x20 DUP3 DUP5 SUB SLT ISZERO PUSH2 0x128C JUMPI PUSH1 0x0 DUP1 REVERT JUMPDEST POP CALLDATALOAD SWAP2 SWAP1 POP JUMP JUMPDEST PUSH4 0x4E487B71 PUSH1 0xE0 SHL PUSH1 0x0 MSTORE PUSH1 0x21 PUSH1 0x4 MSTORE PUSH1 0x24 PUSH1 0x0 REVERT JUMPDEST PUSH1 0x6 DUP2 LT PUSH2 0x12C7 JUMPI PUSH4 0x4E487B71 PUSH1 0xE0 SHL PUSH1 0x0 MSTORE PUSH1 0x21 PUSH1 0x4 MSTORE PUSH1 0x24 PUSH1 0x0 REVERT JUMPDEST SWAP1 MSTORE JUMP JUMPDEST DUP2 MLOAD PUSH1 0x1 PUSH1 0x1 PUSH1 0xA0 SHL SUB AND DUP2 MSTORE PUSH2 0x1C0 DUP2 ADD PUSH1 0x20 DUP4 ADD MLOAD PUSH1 0x20 DUP4 ADD MSTORE PUSH1 0x40 DUP4 ADD MLOAD PUSH1 0x40 DUP4 ADD MSTORE PUSH1 0x60 DUP4 ADD MLOAD PUSH1 0x60 DUP4 ADD MSTORE PUSH1 0x80 DUP4 ADD MLOAD PUSH1 0x80 DUP4 ADD MSTORE PUSH1 0xA0 DUP4 ADD MLOAD PUSH1 0xA0 DUP4 ADD MSTORE PUSH1 0xC0 DUP4 ADD MLOAD PUSH1 0xC0 DUP4 ADD MSTORE PUSH1 0xE0 DUP4 ADD MLOAD PUSH1 0xE0 DUP4 ADD MSTORE PUSH2 0x100 DUP1 DUP5 ADD MLOAD DUP2 DUP5 ADD MSTORE POP PUSH2 0x120 DUP1 DUP5 ADD MLOAD DUP2 DUP5 ADD MSTORE POP PUSH2 0x140 DUP1 DUP5 ADD MLOAD DUP2 DUP5 ADD MSTORE POP PUSH2 0x160 DUP1 DUP5 ADD MLOAD DUP2 DUP5 ADD MSTORE POP PUSH2 0x180 DUP1 DUP5 ADD MLOAD PUSH2 0x1366 DUP3 DUP6 ADD DUP3 PUSH2 0x12A9 JUMP JUMPDEST POP POP PUSH2 0x1A0 DUP4 DUP2 ADD MLOAD PUSH1 0xFF DUP2 AND DUP5 DUP4 ADD MSTORE JUMPDEST POP POP SWAP3 SWAP2 POP POP JUMP JUMPDEST PUSH1 0x1 PUSH1 0x1 PUSH1 0xA0 SHL SUB DUP2 AND DUP2 EQ PUSH2 0x93A JUMPI PUSH1 0x0 DUP1 REVERT JUMPDEST PUSH1 0x0 PUSH1 0x20 DUP3 DUP5 SUB SLT ISZERO PUSH2 0x13A7 JUMPI PUSH1 0x0 DUP1 REVERT JUMPDEST DUP2 CALLDATALOAD PUSH2 0x674 DUP2 PUSH2 0x1380 JUMP JUMPDEST PUSH1 0x0 PUSH1 0x20 DUP3 DUP5 SUB SLT ISZERO PUSH2 0x13C4 JUMPI PUSH1 0x0 DUP1 REVERT JUMPDEST DUP2 CALLDATALOAD PUSH6 0xFFFFFFFFFFFF DUP2 AND DUP2 EQ PUSH2 0x674 JUMPI PUSH1 0x0 DUP1 REVERT JUMPDEST PUSH1 0x0 PUSH1 0x20 DUP3 DUP5 SUB SLT ISZERO PUSH2 0x13EC JUMPI PUSH1 0x0 DUP1 REVERT JUMPDEST DUP2 CALLDATALOAD PUSH8 0xFFFFFFFFFFFFFFFF DUP2 AND DUP2 EQ PUSH2 0x674 JUMPI PUSH1 0x0 DUP1 REVERT JUMPDEST PUSH1 0x0 PUSH1 0x20 DUP3 DUP5 SUB SLT ISZERO PUSH2 0x1416 JUMPI PUSH1 0x0 DUP1 REVERT JUMPDEST DUP2 CALLDATALOAD PUSH4 0xFFFFFFFF DUP2 AND DUP2 EQ PUSH2 0x674 JUMPI PUSH1 0x0 DUP1 REVERT JUMPDEST PUSH1 0x0 PUSH1 0x20 DUP3 DUP5 SUB SLT ISZERO PUSH2 0x143C JUMPI PUSH1 0x0 DUP1 REVERT JUMPDEST DUP2 MLOAD DUP1 ISZERO ISZERO DUP2 EQ PUSH2 0x674 JUMPI PUSH1 0x0 DUP1 REVERT JUMPDEST PUSH1 0x0 DUP3 PUSH2 0x1469 JUMPI PUSH4 0x4E487B71 PUSH1 0xE0 SHL PUSH1 0x0 MSTORE PUSH1 0x12 PUSH1 0x4 MSTORE PUSH1 0x24 PUSH1 0x0 REVERT JUMPDEST POP DIV SWAP1 JUMP JUMPDEST PUSH1 0x0 DUP2 PUSH1 0x0 NOT DIV DUP4 GT DUP3 ISZERO ISZERO AND ISZERO PUSH2 0x1496 JUMPI PUSH4 0x4E487B71 PUSH1 0xE0 SHL PUSH1 0x0 MSTORE PUSH1 0x11 PUSH1 0x4 MSTORE PUSH1 0x24 PUSH1 0x0 REVERT JUMPDEST POP MUL SWAP1 JUMP JUMPDEST PUSH4 0x4E487B71 PUSH1 0xE0 SHL PUSH1 0x0 MSTORE PUSH1 0x1 PUSH1 0x4 MSTORE PUSH1 0x24 PUSH1 0x0 REVERT JUMPDEST PUSH1 0x0 DUP1 PUSH1 0x40 DUP4 DUP6 SUB SLT ISZERO PUSH2 0x14C4 JUMPI PUSH1 0x0 DUP1 REVERT JUMPDEST POP POP DUP1 MLOAD PUSH1 0x20 SWAP1 SWAP2 ADD MLOAD SWAP1 SWAP3 SWAP1 SWAP2 POP JUMP JUMPDEST PUSH1 0x0 PUSH1 0x20 DUP3 DUP5 SUB SLT ISZERO PUSH2 0x14E7 JUMPI PUSH1 0x0 DUP1 REVERT JUMPDEST DUP2 MLOAD PUSH2 0x674 DUP2 PUSH2 0x1380 JUMP JUMPDEST PUSH1 0x0 PUSH1 0x20 DUP3 DUP5 SUB SLT ISZERO PUSH2 0x1504 JUMPI PUSH1 0x0 DUP1 REVERT JUMPDEST POP MLOAD SWAP2 SWAP1 POP JUMP JUMPDEST PUSH1 0x0 DUP1 PUSH1 0x0 PUSH1 0x60 DUP5 DUP7 SUB SLT ISZERO PUSH2 0x1520 JUMPI PUSH1 0x0 DUP1 REVERT JUMPDEST DUP4 MLOAD SWAP3 POP PUSH1 0x20 DUP5 ADD MLOAD SWAP2 POP PUSH1 0x40 DUP5 ADD MLOAD SWAP1 POP SWAP3 POP SWAP3 POP SWAP3 JUMP JUMPDEST DUP2 MLOAD DUP2 MSTORE PUSH1 0x20 DUP1 DUP4 ADD MLOAD PUSH2 0x180 DUP4 ADD SWAP2 PUSH2 0x155D SWAP1 DUP5 ADD DUP3 PUSH1 0x1 PUSH1 0x1 PUSH1 0xA0 SHL SUB AND SWAP1 MSTORE JUMP JUMPDEST POP PUSH1 0x40 DUP4 ADD MLOAD PUSH2 0x1570 PUSH1 0x40 DUP5 ADD DUP3 PUSH2 0x12A9 JUMP JUMPDEST POP PUSH1 0x60 DUP4 ADD MLOAD PUSH2 0x1585 PUSH1 0x60 DUP5 ADD DUP3 PUSH1 0xFF AND SWAP1 MSTORE JUMP JUMPDEST POP PUSH1 0x80 DUP4 ADD MLOAD PUSH1 0x80 DUP4 ADD MSTORE PUSH1 0xA0 DUP4 ADD MLOAD PUSH2 0x15AB PUSH1 0xA0 DUP5 ADD DUP3 PUSH8 0xFFFFFFFFFFFFFFFF AND SWAP1 MSTORE JUMP JUMPDEST POP PUSH1 0xC0 DUP4 ADD MLOAD PUSH2 0x15C7 PUSH1 0xC0 DUP5 ADD DUP3 PUSH8 0xFFFFFFFFFFFFFFFF AND SWAP1 MSTORE JUMP JUMPDEST POP PUSH1 0xE0 DUP4 ADD MLOAD PUSH2 0x15E3 PUSH1 0xE0 DUP5 ADD DUP3 PUSH8 0xFFFFFFFFFFFFFFFF AND SWAP1 MSTORE JUMP JUMPDEST POP PUSH2 0x100 DUP4 DUP2 ADD MLOAD PUSH8 0xFFFFFFFFFFFFFFFF SWAP1 DUP2 AND SWAP2 DUP5 ADD SWAP2 SWAP1 SWAP2 MSTORE PUSH2 0x120 DUP1 DUP6 ADD MLOAD DUP3 AND SWAP1 DUP5 ADD MSTORE PUSH2 0x140 DUP1 DUP6 ADD MLOAD DUP3 AND SWAP1 DUP5 ADD MSTORE PUSH2 0x160 DUP1 DUP6 ADD MLOAD SWAP2 DUP3 AND DUP2 DUP6 ADD MSTORE SWAP1 PUSH2 0x1378 JUMP INVALID LOG2 PUSH5 0x6970667358 0x22 SLT KECCAK256 0xB2 SWAP9 DUP11 GAS 0xBB SLOAD DUP9 EXP 0xCE 0xEE 0x4C AND CALLDATACOPY CALLDATASIZE SWAP12 0xB4 JUMPI DUP4 PUSH7 0x6A8DF6351F7899 EXTCODESIZE SWAP5 ADDMOD CREATE EXTCODEHASH 0xD6 PUSH5 0x736F6C6343 STOP ADDMOD SIGNEXTEND STOP CALLER ","sha1":"a8ecfe0d6bb93d504518cb1efb6a88daf0818589","source":"// SPDX-License-Identifier: MIT\n// Beef MarketPlace Contracts v0.0.0 hello@mcdu.com\n\npragma solidity ^0.8.0;\n\nimport \"./Path.sol\";\nimport \"./Storage.sol\";\nimport \"./Lib.sol\";\nimport \"../agnostic/UIntConverter.sol\";\nimport \"../Bank/Bank.sol\";\nimport \"../Quote/Quotator.sol\";\nimport \"../Delivery/Delivery.sol\";\n\nbytes32 constant MARKET = keccak256(\"Market\");\n\ncontract Market is\n    RepositoryContract,\n    UIntConverter,\n    MarketPathStorage,\n    //MarketPathReader,\n    MarketStorage\n{\n    using Array for uint64[];\n    using Array for bytes32[];\n    using MarketLib for SolutionSet;\n\n    function id() public view virtual returns (bytes32) {return MARKET;}\n\n    constructor(Repository rep_) RepositoryContract(rep_) {}\n\n    function MarketPathKeccak() internal view virtual override returns (KeccakInverter)\n    {\n        return rep;\n    }\n    function MarketPathIsActiveFromTo(bytes32 fromto_) internal view virtual override returns (bool)\n    {\n        return _fromtoorders[fromto_].length !=0;\n    }\n    /////////////////////////////////////////////////////////////////////////////////////////\n    //      storage\n    /////////////////////////////////////////////////////////////////////////////////////////\n\n    function __order(uint256 order_, bool showall)\n        internal\n        view\n        returns (Order.InfoPublic memory orderpub_)\n    {\n        Order.Info memory _order = _orders[order_];\n        (orderpub_.from, orderpub_.to) = rep.resolveBytes32Bytes32(\n            _order.fromto\n        );\n\n        orderpub_.orderid = _order.orderid; //   // id of the order\n        if (showall || (!Order.isHidden(_order.options))) {\n            orderpub_.account = _order.account; // the user/account/client/customer\n            orderpub_.qty = UInt64ToUInt256(_order.qty); // active qty\n            if (Order.isPack(_order.options))\n                orderpub_.granularity = orderpub_.qty;\n            else if (_order.granularity != 0)\n                orderpub_.granularity = UInt64ToUInt256(_order.granularity); // active qty\n            else\n                orderpub_.granularity = Bank(rep.get(BANK)).granularity(orderpub_.from);\n            orderpub_.qtydone = UInt64ToUInt256(_order.qtydone); // qty bought or sold\n            orderpub_.originalqty = UInt64ToUInt256(_order.originalqty); // original qty when the order was placed (qty and quote can be ajusted)\n\n            if (Order.isIndexed(_order.options)) {\n                orderpub_.originalquote = UInt64ToUInt256(_order.originalquote); // original quote when the order was placed (qty and quote can be ajusted)\n                orderpub_.originalbasedquote = UInt64ToUInt256(\n                    _order.originalbasedquote\n                ); // original market quote when the order was placed (qty and quote can be ajusted)\n                uint256 _qquote;\n                (, _qquote, ) = Quotator(rep.get(QUOTATOR)).readOnly(\n                    orderpub_.from,\n                    orderpub_.to\n                );\n                require(_qquote != 0, \"Quote: Not quoted\");\n                orderpub_.quote =\n                    orderpub_.originalquote *\n                    (_qquote / orderpub_.originalbasedquote);\n            } else orderpub_.quote = UInt64ToUInt256(_order.quote); // current quote\n        }\n        orderpub_.expire = Order.isExpired(_order);\n        orderpub_.state = _order.state; // uint8    // state of the order\n        orderpub_.options = _order.options; // order options\n    }\n\n    function order(uint256 order_)\n        public\n        view\n        returns (Order.InfoPublic memory)\n    {\n        return __order(order_, false);\n    }\n}\n","sourcePath":"contracts/Market/Market.sol","deployment":{"address":"0xFc0A048c8dd6Cb6A42Ff1c960739C20912451445","chainid":"9997","blockHeight":12741}}