{"bytecode":"60a060405234801561001057600080fd5b50604051610eb7380380610eb783398101604081905261002f916100a6565b806100393361004b565b6001600160a01b0316608052506100d6565b600080546001600160a01b038381166201000081810262010000600160b01b0319851617855560405193049190911692909183917f8be0079c531659141344cd1fd0a4f28419497f9722a3daafe3b4186f6b6457e091a35050565b6000602082840312156100b857600080fd5b81516001600160a01b03811681146100cf57600080fd5b9392505050565b608051610db161010660003960008181610333015281816103d201528181610470015261063e0152610db16000f3fe608060405234801561001057600080fd5b50600436106101375760003560e01c80637af6649a116100b8578063b03fd40d1161007c578063b03fd40d1461031b578063ccc079591461032e578063d693585814610355578063e4b161441461035d578063f2fde38b14610370578063feab44541461038357610137565b80637af6649a14610291578063854ba99d146102b25780638da5cb5b146102ba57806397962076146102e5578063af640d0f146102f557610137565b80635aca1641116100ff5780635aca16411461023f5780635f5c5baa1461024d5780636296514114610255578063715018a61461028157806372ea61bf1461028957610137565b806301ffc9a7146101bc57806305d6bd9c146101e45780632203616d146101ee5780632f54bf6e146102165780633b7e0d2314610229575b61013f6103ad565b600061014f602460043684610957565b8080601f016020809104026020016040519081016040528093929190818152602001838380828437600092018290525060208501519495509250503660231981019150601f19016004838037816024600437600080826000875af4925050506101b781610577565b505050005b6101cf6101ca366004610981565b61058d565b60405190151581526020015b60405180910390f35b6101ec6105c4565b005b6102016101fc3660046109b2565b6105db565b60405163ffffffff90911681526020016101db565b6101cf6102243660046109e7565b6105ec565b6101cf610237366004610add565b600192915050565b6101cf610237366004610b79565b6101ec610619565b6102686102633660046109b2565b61072e565b60405167ffffffffffffffff90911681526020016101db565b6101ec610760565b6101ec610772565b6102a461029f366004610c8b565b61078c565b6040519081526020016101db565b6101cf6107a5565b6000546201000090046001600160a01b03165b6040516001600160a01b0390911681526020016101db565b600054610100900460ff166101cf565b7f33ffbdff3a4282df4353f3593b78d26aaf4c28b5786164f828858505bc5e301c6102a4565b6102a4610329366004610cb3565b6107c3565b6102cd7f000000000000000000000000000000000000000000000000000000000000000081565b6101ec6107de565b6102a461036b366004610cce565b6107fa565b6101ec61037e3660046109e7565b610811565b6103966103913660046109b2565b61088a565b60405165ffffffffffff90911681526020016101db565b6000546001600160a01b03620100009091041633148061046057506001600160a01b037f0000000000000000000000000000000000000000000000000000000000000000166316279055336040516001600160e01b031960e084901b1681526001600160a01b039091166004820152602401602060405180830381865afa15801561043c573d6000803e3d6000fd5b505050506040513d601f19601f820116820180604052508101906104609190610cf4565b806104fe57506001600160a01b037f000000000000000000000000000000000000000000000000000000000000000016636d70f7ae336040516001600160e01b031960e084901b1681526001600160a01b039091166004820152602401602060405180830381865afa1580156104da573d6000803e3d6000fd5b505050506040513d601f19601f820116820180604052508101906104fe9190610cf4565b6105755760405162461bcd60e51b815260206004820152603960248201527f416c6c6f77616e63653a2063616c6c6572206d757374206265205265706f736960448201527f746f727920436f6e7472616374206f72204f70657261746f720000000000000060648201526084015b60405180910390fd5b565b3d6000803e808015610588573d6000f35b3d6000fd5b60006001600160e01b031982166301ffc9a760e01b14806105be57506001600160e01b031982166315d3789560e31b145b92915050565b6105cc6103ad565b6105756000805460ff19169055565b60006105be64e8d4a5100083610d16565b600080546001600160a01b038381166201000090920416141561061157506001919050565b506000919050565b6000546001600160a01b0362010000909104163314806106cc57506001600160a01b037f000000000000000000000000000000000000000000000000000000000000000016636d70f7ae336040516001600160e01b031960e084901b1681526001600160a01b039091166004820152602401602060405180830381865afa1580156106a8573d6000803e3d6000fd5b505050506040513d601f19601f820116820180604052508101906106cc9190610cf4565b6105755760405162461bcd60e51b815260206004820152602d60248201527f416c6c6f77616e63653a2063616c6c6572206d757374206265205265706f736960448201526c3a37b93c9027b832b930ba37b960991b606482015260840161056c565b6000806107406402540be40084610d16565b905082610752826402540be400610d38565b11156105be576105be610d65565b61076861089b565b61057560006108fc565b61077a6103ad565b6105756000805460ff19166001179055565b60006105be65ffffffffffff831664174876e800610d38565b6000805460ff16806107be5750600054610100900460ff165b905090565b60006105be67ffffffffffffffff83166402540be400610d38565b6107e661089b565b6105756000805461ff001916610100179055565b60006105be63ffffffff831664e8d4a51000610d38565b61081961089b565b6001600160a01b03811661087e5760405162461bcd60e51b815260206004820152602660248201527f4f776e61626c653a206e6577206f776e657220697320746865207a65726f206160448201526564647265737360d01b606482015260840161056c565b610887816108fc565b50565b60006105be64174876e80083610d16565b6000546001600160a01b03620100009091041633146105755760405162461bcd60e51b815260206004820152601f60248201527f416c6c6f77616e63653a2063616c6c6572206d757374206265204f776e657200604482015260640161056c565b600080546001600160a01b038381166201000081810262010000600160b01b0319851617855560405193049190911692909183917f8be0079c531659141344cd1fd0a4f28419497f9722a3daafe3b4186f6b6457e091a35050565b6000808585111561096757600080fd5b8386111561097457600080fd5b5050820193919092039150565b60006020828403121561099357600080fd5b81356001600160e01b0319811681146109ab57600080fd5b9392505050565b6000602082840312156109c457600080fd5b5035919050565b80356001600160a01b03811681146109e257600080fd5b919050565b6000602082840312156109f957600080fd5b6109ab826109cb565b634e487b7160e01b600052604160045260246000fd5b604051610180810167ffffffffffffffff81118282101715610a3c57610a3c610a02565b60405290565b600082601f830112610a5357600080fd5b8135602067ffffffffffffffff80831115610a7057610a70610a02565b8260051b604051601f19603f83011681018181108482111715610a9557610a95610a02565b604052938452858101830193838101925087851115610ab357600080fd5b83870191505b84821015610ad257813583529183019190830190610ab9565b979650505050505050565b60008060408385031215610af057600080fd5b823567ffffffffffffffff80821115610b0857600080fd5b610b1486838701610a42565b93506020850135915080821115610b2a57600080fd5b50610b3785828601610a42565b9150509250929050565b8035600681106109e257600080fd5b803560ff811681146109e257600080fd5b803567ffffffffffffffff811681146109e257600080fd5b6000808284036101a0811215610b8e57600080fd5b61018080821215610b9e57600080fd5b610ba6610a18565b915084358252610bb8602086016109cb565b6020830152610bc960408601610b41565b6040830152610bda60608601610b50565b606083015260808501356080830152610bf560a08601610b61565b60a0830152610c0660c08601610b61565b60c0830152610c1760e08601610b61565b60e0830152610100610c2a818701610b61565b90830152610120610c3c868201610b61565b90830152610140610c4e868201610b61565b90830152610160610c60868201610b61565b9083015290925083013567ffffffffffffffff811115610c7f57600080fd5b610b3785828601610a42565b600060208284031215610c9d57600080fd5b813565ffffffffffff811681146109ab57600080fd5b600060208284031215610cc557600080fd5b6109ab82610b61565b600060208284031215610ce057600080fd5b813563ffffffff811681146109ab57600080fd5b600060208284031215610d0657600080fd5b815180151581146109ab57600080fd5b600082610d3357634e487b7160e01b600052601260045260246000fd5b500490565b6000816000190483118215151615610d6057634e487b7160e01b600052601160045260246000fd5b500290565b634e487b7160e01b600052600160045260246000fdfea2646970667358221220c35341bc25f601d4b18ab46611ad2e72967459b5fedd4d7bc831be2f590b148d64736f6c634300080b0033","bytecodeSha1":"3d1d9a9c5c29d0b78b70f7eb39856c7ac2d2cc5f","type":"contract","abi":[{"inputs":[{"internalType":"contract Repository","name":"rep_","type":"address"}],"stateMutability":"nonpayable","type":"constructor","name":"constructor"},{"anonymous":false,"inputs":[{"indexed":true,"internalType":"address","name":"previousOwner","type":"address"},{"indexed":true,"internalType":"address","name":"newOwner","type":"address"}],"name":"OwnershipTransferred","type":"event"},{"stateMutability":"nonpayable","type":"fallback"},{"inputs":[],"name":"STOP","outputs":[{"internalType":"bool","name":"","type":"bool"}],"stateMutability":"view","type":"function"},{"inputs":[],"name":"STOPFOREVER","outputs":[{"internalType":"bool","name":"","type":"bool"}],"stateMutability":"view","type":"function"},{"inputs":[{"internalType":"uint256","name":"val_","type":"uint256"}],"name":"UInt256ToUInt32","outputs":[{"internalType":"uint32","name":"","type":"uint32"}],"stateMutability":"pure","type":"function"},{"inputs":[{"internalType":"uint256","name":"val_","type":"uint256"}],"name":"UInt256ToUInt48","outputs":[{"internalType":"uint48","name":"","type":"uint48"}],"stateMutability":"pure","type":"function"},{"inputs":[{"internalType":"uint256","name":"val_","type":"uint256"}],"name":"UInt256ToUInt64","outputs":[{"internalType":"uint64","name":"","type":"uint64"}],"stateMutability":"pure","type":"function"},{"inputs":[{"internalType":"uint32","name":"val_","type":"uint32"}],"name":"UInt32ToUInt256","outputs":[{"internalType":"uint256","name":"","type":"uint256"}],"stateMutability":"pure","type":"function"},{"inputs":[{"internalType":"uint48","name":"val_","type":"uint48"}],"name":"UInt48ToUInt256","outputs":[{"internalType":"uint256","name":"","type":"uint256"}],"stateMutability":"pure","type":"function"},{"inputs":[{"internalType":"uint64","name":"val_","type":"uint64"}],"name":"UInt64ToUInt256","outputs":[{"internalType":"uint256","name":"","type":"uint256"}],"stateMutability":"pure","type":"function"},{"inputs":[],"name":"checkOperators","outputs":[],"stateMutability":"view","type":"function"},{"inputs":[{"internalType":"uint256[]","name":"_delivery1","type":"uint256[]"},{"internalType":"uint256[]","name":"_delivery2","type":"uint256[]"}],"name":"deliveryCompatible","outputs":[{"internalType":"bool","name":"","type":"bool"}],"stateMutability":"pure","type":"function"},{"inputs":[],"name":"id","outputs":[{"internalType":"bytes32","name":"","type":"bytes32"}],"stateMutability":"view","type":"function"},{"inputs":[{"internalType":"address","name":"caller_","type":"address"}],"name":"isOwner","outputs":[{"internalType":"bool","name":"","type":"bool"}],"stateMutability":"view","type":"function"},{"inputs":[{"components":[{"internalType":"bytes32","name":"fromto","type":"bytes32"},{"internalType":"address","name":"account","type":"address"},{"internalType":"enum Order.State","name":"state","type":"uint8"},{"internalType":"uint8","name":"options","type":"uint8"},{"internalType":"uint256","name":"orderid","type":"uint256"},{"internalType":"uint64","name":"qty","type":"uint64"},{"internalType":"uint64","name":"qtydone","type":"uint64"},{"internalType":"uint64","name":"originalqty","type":"uint64"},{"internalType":"uint64","name":"quote","type":"uint64"},{"internalType":"uint64","name":"granularity","type":"uint64"},{"internalType":"uint64","name":"originalquote","type":"uint64"},{"internalType":"uint64","name":"originalbasedquote","type":"uint64"}],"internalType":"struct Order.Info","name":"_order","type":"tuple"},{"internalType":"uint256[]","name":"_delivery","type":"uint256[]"}],"name":"orderDeliveryCompatible","outputs":[{"internalType":"bool","name":"","type":"bool"}],"stateMutability":"pure","type":"function"},{"inputs":[],"name":"owner","outputs":[{"internalType":"address","name":"","type":"address"}],"stateMutability":"view","type":"function"},{"inputs":[],"name":"renounceOwnership","outputs":[],"stateMutability":"nonpayable","type":"function"},{"inputs":[],"name":"rep","outputs":[{"internalType":"contract Repository","name":"","type":"address"}],"stateMutability":"view","type":"function"},{"inputs":[],"name":"setSTOP","outputs":[],"stateMutability":"nonpayable","type":"function"},{"inputs":[],"name":"setSTOPFOREVER","outputs":[],"stateMutability":"nonpayable","type":"function"},{"inputs":[{"internalType":"bytes4","name":"interfaceId","type":"bytes4"}],"name":"supportsInterface","outputs":[{"internalType":"bool","name":"","type":"bool"}],"stateMutability":"view","type":"function"},{"inputs":[{"internalType":"address","name":"newOwner","type":"address"}],"name":"transferOwnership","outputs":[],"stateMutability":"nonpayable","type":"function"},{"inputs":[],"name":"unsetSTOP","outputs":[],"stateMutability":"nonpayable","type":"function"}],"compiler":{"version":"0.8.11+commit.d7f03943","evm_version":"istanbul","optimizer":{"enabled":true,"runs":200}},"contractName":"Delivery","language":"Solidity","natspec":{"methods":{"ownerOf()":{"details":"Returns the address of the current owner."},"renounceOwnership()":{"details":"Leaves the contract without owner. It will not be possible to call `onlyOwner` functions anymore. Can only be called by the current owner. NOTE: Renouncing ownership will leave the contract without an owner, thereby removing any functionality that is only available to the owner."},"supportsInterface(bytes4)":{"details":"Returns true if this contract implements the interface defined by `interfaceId`. See the corresponding https://eips.ethereum.org/EIPS/eip-165#how-interfaces-are-identified[EIP section] to learn more about how these ids are created. This function call must use less than 30 000 gas."},"transferOwnership(address)":{"details":"Transfers ownership of the contract to a new account (`newOwner`). Can only be called by the current owner."}},"kind":"dev","version":1},"opcodes":"PUSH1 0x80 PUSH1 0x40 MSTORE CALLVALUE DUP1 ISZERO PUSH2 0x10 JUMPI PUSH1 0x0 DUP1 REVERT JUMPDEST POP PUSH1 0x4 CALLDATASIZE LT PUSH2 0x137 JUMPI PUSH1 0x0 CALLDATALOAD PUSH1 0xE0 SHR DUP1 PUSH4 0x7AF6649A GT PUSH2 0xB8 JUMPI DUP1 PUSH4 0xB03FD40D GT PUSH2 0x7C JUMPI DUP1 PUSH4 0xB03FD40D EQ PUSH2 0x31B JUMPI DUP1 PUSH4 0xCCC07959 EQ PUSH2 0x32E JUMPI DUP1 PUSH4 0xD6935858 EQ PUSH2 0x355 JUMPI DUP1 PUSH4 0xE4B16144 EQ PUSH2 0x35D JUMPI DUP1 PUSH4 0xF2FDE38B EQ PUSH2 0x370 JUMPI DUP1 PUSH4 0xFEAB4454 EQ PUSH2 0x383 JUMPI PUSH2 0x137 JUMP JUMPDEST DUP1 PUSH4 0x7AF6649A EQ PUSH2 0x291 JUMPI DUP1 PUSH4 0x854BA99D EQ PUSH2 0x2B2 JUMPI DUP1 PUSH4 0x8DA5CB5B EQ PUSH2 0x2BA JUMPI DUP1 PUSH4 0x97962076 EQ PUSH2 0x2E5 JUMPI DUP1 PUSH4 0xAF640D0F EQ PUSH2 0x2F5 JUMPI PUSH2 0x137 JUMP JUMPDEST DUP1 PUSH4 0x5ACA1641 GT PUSH2 0xFF JUMPI DUP1 PUSH4 0x5ACA1641 EQ PUSH2 0x23F JUMPI DUP1 PUSH4 0x5F5C5BAA EQ PUSH2 0x24D JUMPI DUP1 PUSH4 0x62965141 EQ PUSH2 0x255 JUMPI DUP1 PUSH4 0x715018A6 EQ PUSH2 0x281 JUMPI DUP1 PUSH4 0x72EA61BF EQ PUSH2 0x289 JUMPI PUSH2 0x137 JUMP JUMPDEST DUP1 PUSH4 0x1FFC9A7 EQ PUSH2 0x1BC JUMPI DUP1 PUSH4 0x5D6BD9C EQ PUSH2 0x1E4 JUMPI DUP1 PUSH4 0x2203616D EQ PUSH2 0x1EE JUMPI DUP1 PUSH4 0x2F54BF6E EQ PUSH2 0x216 JUMPI DUP1 PUSH4 0x3B7E0D23 EQ PUSH2 0x229 JUMPI JUMPDEST PUSH2 0x13F PUSH2 0x3AD JUMP JUMPDEST PUSH1 0x0 PUSH2 0x14F PUSH1 0x24 PUSH1 0x4 CALLDATASIZE DUP5 PUSH2 0x957 JUMP JUMPDEST DUP1 DUP1 PUSH1 0x1F ADD PUSH1 0x20 DUP1 SWAP2 DIV MUL PUSH1 0x20 ADD PUSH1 0x40 MLOAD SWAP1 DUP2 ADD PUSH1 0x40 MSTORE DUP1 SWAP4 SWAP3 SWAP2 SWAP1 DUP2 DUP2 MSTORE PUSH1 0x20 ADD DUP4 DUP4 DUP1 DUP3 DUP5 CALLDATACOPY PUSH1 0x0 SWAP3 ADD DUP3 SWAP1 MSTORE POP PUSH1 0x20 DUP6 ADD MLOAD SWAP5 SWAP6 POP SWAP3 POP POP CALLDATASIZE PUSH1 0x23 NOT DUP2 ADD SWAP2 POP PUSH1 0x1F NOT ADD PUSH1 0x4 DUP4 DUP1 CALLDATACOPY DUP2 PUSH1 0x24 PUSH1 0x4 CALLDATACOPY PUSH1 0x0 DUP1 DUP3 PUSH1 0x0 DUP8 GAS DELEGATECALL SWAP3 POP POP POP PUSH2 0x1B7 DUP2 PUSH2 0x577 JUMP JUMPDEST POP POP POP STOP JUMPDEST PUSH2 0x1CF PUSH2 0x1CA CALLDATASIZE PUSH1 0x4 PUSH2 0x981 JUMP JUMPDEST PUSH2 0x58D JUMP JUMPDEST PUSH1 0x40 MLOAD SWAP1 ISZERO ISZERO DUP2 MSTORE PUSH1 0x20 ADD JUMPDEST PUSH1 0x40 MLOAD DUP1 SWAP2 SUB SWAP1 RETURN JUMPDEST PUSH2 0x1EC PUSH2 0x5C4 JUMP JUMPDEST STOP JUMPDEST PUSH2 0x201 PUSH2 0x1FC CALLDATASIZE PUSH1 0x4 PUSH2 0x9B2 JUMP JUMPDEST PUSH2 0x5DB JUMP JUMPDEST PUSH1 0x40 MLOAD PUSH4 0xFFFFFFFF SWAP1 SWAP2 AND DUP2 MSTORE PUSH1 0x20 ADD PUSH2 0x1DB JUMP JUMPDEST PUSH2 0x1CF PUSH2 0x224 CALLDATASIZE PUSH1 0x4 PUSH2 0x9E7 JUMP JUMPDEST PUSH2 0x5EC JUMP JUMPDEST PUSH2 0x1CF PUSH2 0x237 CALLDATASIZE PUSH1 0x4 PUSH2 0xADD JUMP JUMPDEST PUSH1 0x1 SWAP3 SWAP2 POP POP JUMP JUMPDEST PUSH2 0x1CF PUSH2 0x237 CALLDATASIZE PUSH1 0x4 PUSH2 0xB79 JUMP JUMPDEST PUSH2 0x1EC PUSH2 0x619 JUMP JUMPDEST PUSH2 0x268 PUSH2 0x263 CALLDATASIZE PUSH1 0x4 PUSH2 0x9B2 JUMP JUMPDEST PUSH2 0x72E JUMP JUMPDEST PUSH1 0x40 MLOAD PUSH8 0xFFFFFFFFFFFFFFFF SWAP1 SWAP2 AND DUP2 MSTORE PUSH1 0x20 ADD PUSH2 0x1DB JUMP JUMPDEST PUSH2 0x1EC PUSH2 0x760 JUMP JUMPDEST PUSH2 0x1EC PUSH2 0x772 JUMP JUMPDEST PUSH2 0x2A4 PUSH2 0x29F CALLDATASIZE PUSH1 0x4 PUSH2 0xC8B JUMP JUMPDEST PUSH2 0x78C JUMP JUMPDEST PUSH1 0x40 MLOAD SWAP1 DUP2 MSTORE PUSH1 0x20 ADD PUSH2 0x1DB JUMP JUMPDEST PUSH2 0x1CF PUSH2 0x7A5 JUMP JUMPDEST PUSH1 0x0 SLOAD PUSH3 0x10000 SWAP1 DIV PUSH1 0x1 PUSH1 0x1 PUSH1 0xA0 SHL SUB AND JUMPDEST PUSH1 0x40 MLOAD PUSH1 0x1 PUSH1 0x1 PUSH1 0xA0 SHL SUB SWAP1 SWAP2 AND DUP2 MSTORE PUSH1 0x20 ADD PUSH2 0x1DB JUMP JUMPDEST PUSH1 0x0 SLOAD PUSH2 0x100 SWAP1 DIV PUSH1 0xFF AND PUSH2 0x1CF JUMP JUMPDEST PUSH32 0x33FFBDFF3A4282DF4353F3593B78D26AAF4C28B5786164F828858505BC5E301C PUSH2 0x2A4 JUMP JUMPDEST PUSH2 0x2A4 PUSH2 0x329 CALLDATASIZE PUSH1 0x4 PUSH2 0xCB3 JUMP JUMPDEST PUSH2 0x7C3 JUMP JUMPDEST PUSH2 0x2CD PUSH32 0x0 DUP2 JUMP JUMPDEST PUSH2 0x1EC PUSH2 0x7DE JUMP JUMPDEST PUSH2 0x2A4 PUSH2 0x36B CALLDATASIZE PUSH1 0x4 PUSH2 0xCCE JUMP JUMPDEST PUSH2 0x7FA JUMP JUMPDEST PUSH2 0x1EC PUSH2 0x37E CALLDATASIZE PUSH1 0x4 PUSH2 0x9E7 JUMP JUMPDEST PUSH2 0x811 JUMP JUMPDEST PUSH2 0x396 PUSH2 0x391 CALLDATASIZE PUSH1 0x4 PUSH2 0x9B2 JUMP JUMPDEST PUSH2 0x88A JUMP JUMPDEST PUSH1 0x40 MLOAD PUSH6 0xFFFFFFFFFFFF SWAP1 SWAP2 AND DUP2 MSTORE PUSH1 0x20 ADD PUSH2 0x1DB JUMP JUMPDEST PUSH1 0x0 SLOAD PUSH1 0x1 PUSH1 0x1 PUSH1 0xA0 SHL SUB PUSH3 0x10000 SWAP1 SWAP2 DIV AND CALLER EQ DUP1 PUSH2 0x460 JUMPI POP PUSH1 0x1 PUSH1 0x1 PUSH1 0xA0 SHL SUB PUSH32 0x0 AND PUSH4 0x16279055 CALLER PUSH1 0x40 MLOAD PUSH1 0x1 PUSH1 0x1 PUSH1 0xE0 SHL SUB NOT PUSH1 0xE0 DUP5 SWAP1 SHL AND DUP2 MSTORE PUSH1 0x1 PUSH1 0x1 PUSH1 0xA0 SHL SUB SWAP1 SWAP2 AND PUSH1 0x4 DUP3 ADD MSTORE PUSH1 0x24 ADD PUSH1 0x20 PUSH1 0x40 MLOAD DUP1 DUP4 SUB DUP2 DUP7 GAS STATICCALL ISZERO DUP1 ISZERO PUSH2 0x43C JUMPI RETURNDATASIZE PUSH1 0x0 DUP1 RETURNDATACOPY RETURNDATASIZE PUSH1 0x0 REVERT JUMPDEST POP POP POP POP PUSH1 0x40 MLOAD RETURNDATASIZE PUSH1 0x1F NOT PUSH1 0x1F DUP3 ADD AND DUP3 ADD DUP1 PUSH1 0x40 MSTORE POP DUP2 ADD SWAP1 PUSH2 0x460 SWAP2 SWAP1 PUSH2 0xCF4 JUMP JUMPDEST DUP1 PUSH2 0x4FE JUMPI POP PUSH1 0x1 PUSH1 0x1 PUSH1 0xA0 SHL SUB PUSH32 0x0 AND PUSH4 0x6D70F7AE CALLER PUSH1 0x40 MLOAD PUSH1 0x1 PUSH1 0x1 PUSH1 0xE0 SHL SUB NOT PUSH1 0xE0 DUP5 SWAP1 SHL AND DUP2 MSTORE PUSH1 0x1 PUSH1 0x1 PUSH1 0xA0 SHL SUB SWAP1 SWAP2 AND PUSH1 0x4 DUP3 ADD MSTORE PUSH1 0x24 ADD PUSH1 0x20 PUSH1 0x40 MLOAD DUP1 DUP4 SUB DUP2 DUP7 GAS STATICCALL ISZERO DUP1 ISZERO PUSH2 0x4DA JUMPI RETURNDATASIZE PUSH1 0x0 DUP1 RETURNDATACOPY RETURNDATASIZE PUSH1 0x0 REVERT JUMPDEST POP POP POP POP PUSH1 0x40 MLOAD RETURNDATASIZE PUSH1 0x1F NOT PUSH1 0x1F DUP3 ADD AND DUP3 ADD DUP1 PUSH1 0x40 MSTORE POP DUP2 ADD SWAP1 PUSH2 0x4FE SWAP2 SWAP1 PUSH2 0xCF4 JUMP JUMPDEST PUSH2 0x575 JUMPI PUSH1 0x40 MLOAD PUSH3 0x461BCD PUSH1 0xE5 SHL DUP2 MSTORE PUSH1 0x20 PUSH1 0x4 DUP3 ADD MSTORE PUSH1 0x39 PUSH1 0x24 DUP3 ADD MSTORE PUSH32 0x416C6C6F77616E63653A2063616C6C6572206D757374206265205265706F7369 PUSH1 0x44 DUP3 ADD MSTORE PUSH32 0x746F727920436F6E7472616374206F72204F70657261746F7200000000000000 PUSH1 0x64 DUP3 ADD MSTORE PUSH1 0x84 ADD JUMPDEST PUSH1 0x40 MLOAD DUP1 SWAP2 SUB SWAP1 REVERT JUMPDEST JUMP JUMPDEST RETURNDATASIZE PUSH1 0x0 DUP1 RETURNDATACOPY DUP1 DUP1 ISZERO PUSH2 0x588 JUMPI RETURNDATASIZE PUSH1 0x0 RETURN JUMPDEST RETURNDATASIZE PUSH1 0x0 REVERT JUMPDEST PUSH1 0x0 PUSH1 0x1 PUSH1 0x1 PUSH1 0xE0 SHL SUB NOT DUP3 AND PUSH4 0x1FFC9A7 PUSH1 0xE0 SHL EQ DUP1 PUSH2 0x5BE JUMPI POP PUSH1 0x1 PUSH1 0x1 PUSH1 0xE0 SHL SUB NOT DUP3 AND PUSH4 0x15D37895 PUSH1 0xE3 SHL EQ JUMPDEST SWAP3 SWAP2 POP POP JUMP JUMPDEST PUSH2 0x5CC PUSH2 0x3AD JUMP JUMPDEST PUSH2 0x575 PUSH1 0x0 DUP1 SLOAD PUSH1 0xFF NOT AND SWAP1 SSTORE JUMP JUMPDEST PUSH1 0x0 PUSH2 0x5BE PUSH5 0xE8D4A51000 DUP4 PUSH2 0xD16 JUMP JUMPDEST PUSH1 0x0 DUP1 SLOAD PUSH1 0x1 PUSH1 0x1 PUSH1 0xA0 SHL SUB DUP4 DUP2 AND PUSH3 0x10000 SWAP1 SWAP3 DIV AND EQ ISZERO PUSH2 0x611 JUMPI POP PUSH1 0x1 SWAP2 SWAP1 POP JUMP JUMPDEST POP PUSH1 0x0 SWAP2 SWAP1 POP JUMP JUMPDEST PUSH1 0x0 SLOAD PUSH1 0x1 PUSH1 0x1 PUSH1 0xA0 SHL SUB PUSH3 0x10000 SWAP1 SWAP2 DIV AND CALLER EQ DUP1 PUSH2 0x6CC JUMPI POP PUSH1 0x1 PUSH1 0x1 PUSH1 0xA0 SHL SUB PUSH32 0x0 AND PUSH4 0x6D70F7AE CALLER PUSH1 0x40 MLOAD PUSH1 0x1 PUSH1 0x1 PUSH1 0xE0 SHL SUB NOT PUSH1 0xE0 DUP5 SWAP1 SHL AND DUP2 MSTORE PUSH1 0x1 PUSH1 0x1 PUSH1 0xA0 SHL SUB SWAP1 SWAP2 AND PUSH1 0x4 DUP3 ADD MSTORE PUSH1 0x24 ADD PUSH1 0x20 PUSH1 0x40 MLOAD DUP1 DUP4 SUB DUP2 DUP7 GAS STATICCALL ISZERO DUP1 ISZERO PUSH2 0x6A8 JUMPI RETURNDATASIZE PUSH1 0x0 DUP1 RETURNDATACOPY RETURNDATASIZE PUSH1 0x0 REVERT JUMPDEST POP POP POP POP PUSH1 0x40 MLOAD RETURNDATASIZE PUSH1 0x1F NOT PUSH1 0x1F DUP3 ADD AND DUP3 ADD DUP1 PUSH1 0x40 MSTORE POP DUP2 ADD SWAP1 PUSH2 0x6CC SWAP2 SWAP1 PUSH2 0xCF4 JUMP JUMPDEST PUSH2 0x575 JUMPI PUSH1 0x40 MLOAD PUSH3 0x461BCD PUSH1 0xE5 SHL DUP2 MSTORE PUSH1 0x20 PUSH1 0x4 DUP3 ADD MSTORE PUSH1 0x2D PUSH1 0x24 DUP3 ADD MSTORE PUSH32 0x416C6C6F77616E63653A2063616C6C6572206D757374206265205265706F7369 PUSH1 0x44 DUP3 ADD MSTORE PUSH13 0x3A37B93C9027B832B930BA37B9 PUSH1 0x99 SHL PUSH1 0x64 DUP3 ADD MSTORE PUSH1 0x84 ADD PUSH2 0x56C JUMP JUMPDEST PUSH1 0x0 DUP1 PUSH2 0x740 PUSH5 0x2540BE400 DUP5 PUSH2 0xD16 JUMP JUMPDEST SWAP1 POP DUP3 PUSH2 0x752 DUP3 PUSH5 0x2540BE400 PUSH2 0xD38 JUMP JUMPDEST GT ISZERO PUSH2 0x5BE JUMPI PUSH2 0x5BE PUSH2 0xD65 JUMP JUMPDEST PUSH2 0x768 PUSH2 0x89B JUMP JUMPDEST PUSH2 0x575 PUSH1 0x0 PUSH2 0x8FC JUMP JUMPDEST PUSH2 0x77A PUSH2 0x3AD JUMP JUMPDEST PUSH2 0x575 PUSH1 0x0 DUP1 SLOAD PUSH1 0xFF NOT AND PUSH1 0x1 OR SWAP1 SSTORE JUMP JUMPDEST PUSH1 0x0 PUSH2 0x5BE PUSH6 0xFFFFFFFFFFFF DUP4 AND PUSH5 0x174876E800 PUSH2 0xD38 JUMP JUMPDEST PUSH1 0x0 DUP1 SLOAD PUSH1 0xFF AND DUP1 PUSH2 0x7BE JUMPI POP PUSH1 0x0 SLOAD PUSH2 0x100 SWAP1 DIV PUSH1 0xFF AND JUMPDEST SWAP1 POP SWAP1 JUMP JUMPDEST PUSH1 0x0 PUSH2 0x5BE PUSH8 0xFFFFFFFFFFFFFFFF DUP4 AND PUSH5 0x2540BE400 PUSH2 0xD38 JUMP JUMPDEST PUSH2 0x7E6 PUSH2 0x89B JUMP JUMPDEST PUSH2 0x575 PUSH1 0x0 DUP1 SLOAD PUSH2 0xFF00 NOT AND PUSH2 0x100 OR SWAP1 SSTORE JUMP JUMPDEST PUSH1 0x0 PUSH2 0x5BE PUSH4 0xFFFFFFFF DUP4 AND PUSH5 0xE8D4A51000 PUSH2 0xD38 JUMP JUMPDEST PUSH2 0x819 PUSH2 0x89B JUMP JUMPDEST PUSH1 0x1 PUSH1 0x1 PUSH1 0xA0 SHL SUB DUP2 AND PUSH2 0x87E JUMPI PUSH1 0x40 MLOAD PUSH3 0x461BCD PUSH1 0xE5 SHL DUP2 MSTORE PUSH1 0x20 PUSH1 0x4 DUP3 ADD MSTORE PUSH1 0x26 PUSH1 0x24 DUP3 ADD MSTORE PUSH32 0x4F776E61626C653A206E6577206F776E657220697320746865207A65726F2061 PUSH1 0x44 DUP3 ADD MSTORE PUSH6 0x646472657373 PUSH1 0xD0 SHL PUSH1 0x64 DUP3 ADD MSTORE PUSH1 0x84 ADD PUSH2 0x56C JUMP JUMPDEST PUSH2 0x887 DUP2 PUSH2 0x8FC JUMP JUMPDEST POP JUMP JUMPDEST PUSH1 0x0 PUSH2 0x5BE PUSH5 0x174876E800 DUP4 PUSH2 0xD16 JUMP JUMPDEST PUSH1 0x0 SLOAD PUSH1 0x1 PUSH1 0x1 PUSH1 0xA0 SHL SUB PUSH3 0x10000 SWAP1 SWAP2 DIV AND CALLER EQ PUSH2 0x575 JUMPI PUSH1 0x40 MLOAD PUSH3 0x461BCD PUSH1 0xE5 SHL DUP2 MSTORE PUSH1 0x20 PUSH1 0x4 DUP3 ADD MSTORE PUSH1 0x1F PUSH1 0x24 DUP3 ADD MSTORE PUSH32 0x416C6C6F77616E63653A2063616C6C6572206D757374206265204F776E657200 PUSH1 0x44 DUP3 ADD MSTORE PUSH1 0x64 ADD PUSH2 0x56C JUMP JUMPDEST PUSH1 0x0 DUP1 SLOAD PUSH1 0x1 PUSH1 0x1 PUSH1 0xA0 SHL SUB DUP4 DUP2 AND PUSH3 0x10000 DUP2 DUP2 MUL PUSH3 0x10000 PUSH1 0x1 PUSH1 0xB0 SHL SUB NOT DUP6 AND OR DUP6 SSTORE PUSH1 0x40 MLOAD SWAP4 DIV SWAP2 SWAP1 SWAP2 AND SWAP3 SWAP1 SWAP2 DUP4 SWAP2 PUSH32 0x8BE0079C531659141344CD1FD0A4F28419497F9722A3DAAFE3B4186F6B6457E0 SWAP2 LOG3 POP POP JUMP JUMPDEST PUSH1 0x0 DUP1 DUP6 DUP6 GT ISZERO PUSH2 0x967 JUMPI PUSH1 0x0 DUP1 REVERT JUMPDEST DUP4 DUP7 GT ISZERO PUSH2 0x974 JUMPI PUSH1 0x0 DUP1 REVERT JUMPDEST POP POP DUP3 ADD SWAP4 SWAP2 SWAP1 SWAP3 SUB SWAP2 POP JUMP JUMPDEST PUSH1 0x0 PUSH1 0x20 DUP3 DUP5 SUB SLT ISZERO PUSH2 0x993 JUMPI PUSH1 0x0 DUP1 REVERT JUMPDEST DUP2 CALLDATALOAD PUSH1 0x1 PUSH1 0x1 PUSH1 0xE0 SHL SUB NOT DUP2 AND DUP2 EQ PUSH2 0x9AB JUMPI PUSH1 0x0 DUP1 REVERT JUMPDEST SWAP4 SWAP3 POP POP POP JUMP JUMPDEST PUSH1 0x0 PUSH1 0x20 DUP3 DUP5 SUB SLT ISZERO PUSH2 0x9C4 JUMPI PUSH1 0x0 DUP1 REVERT JUMPDEST POP CALLDATALOAD SWAP2 SWAP1 POP JUMP JUMPDEST DUP1 CALLDATALOAD PUSH1 0x1 PUSH1 0x1 PUSH1 0xA0 SHL SUB DUP2 AND DUP2 EQ PUSH2 0x9E2 JUMPI PUSH1 0x0 DUP1 REVERT JUMPDEST SWAP2 SWAP1 POP JUMP JUMPDEST PUSH1 0x0 PUSH1 0x20 DUP3 DUP5 SUB SLT ISZERO PUSH2 0x9F9 JUMPI PUSH1 0x0 DUP1 REVERT JUMPDEST PUSH2 0x9AB DUP3 PUSH2 0x9CB JUMP JUMPDEST PUSH4 0x4E487B71 PUSH1 0xE0 SHL PUSH1 0x0 MSTORE PUSH1 0x41 PUSH1 0x4 MSTORE PUSH1 0x24 PUSH1 0x0 REVERT JUMPDEST PUSH1 0x40 MLOAD PUSH2 0x180 DUP2 ADD PUSH8 0xFFFFFFFFFFFFFFFF DUP2 GT DUP3 DUP3 LT OR ISZERO PUSH2 0xA3C JUMPI PUSH2 0xA3C PUSH2 0xA02 JUMP JUMPDEST PUSH1 0x40 MSTORE SWAP1 JUMP JUMPDEST PUSH1 0x0 DUP3 PUSH1 0x1F DUP4 ADD SLT PUSH2 0xA53 JUMPI PUSH1 0x0 DUP1 REVERT JUMPDEST DUP2 CALLDATALOAD PUSH1 0x20 PUSH8 0xFFFFFFFFFFFFFFFF DUP1 DUP4 GT ISZERO PUSH2 0xA70 JUMPI PUSH2 0xA70 PUSH2 0xA02 JUMP JUMPDEST DUP3 PUSH1 0x5 SHL PUSH1 0x40 MLOAD PUSH1 0x1F NOT PUSH1 0x3F DUP4 ADD AND DUP2 ADD DUP2 DUP2 LT DUP5 DUP3 GT OR ISZERO PUSH2 0xA95 JUMPI PUSH2 0xA95 PUSH2 0xA02 JUMP JUMPDEST PUSH1 0x40 MSTORE SWAP4 DUP5 MSTORE DUP6 DUP2 ADD DUP4 ADD SWAP4 DUP4 DUP2 ADD SWAP3 POP DUP8 DUP6 GT ISZERO PUSH2 0xAB3 JUMPI PUSH1 0x0 DUP1 REVERT JUMPDEST DUP4 DUP8 ADD SWAP2 POP JUMPDEST DUP5 DUP3 LT ISZERO PUSH2 0xAD2 JUMPI DUP2 CALLDATALOAD DUP4 MSTORE SWAP2 DUP4 ADD SWAP2 SWAP1 DUP4 ADD SWAP1 PUSH2 0xAB9 JUMP JUMPDEST SWAP8 SWAP7 POP POP POP POP POP POP POP JUMP JUMPDEST PUSH1 0x0 DUP1 PUSH1 0x40 DUP4 DUP6 SUB SLT ISZERO PUSH2 0xAF0 JUMPI PUSH1 0x0 DUP1 REVERT JUMPDEST DUP3 CALLDATALOAD PUSH8 0xFFFFFFFFFFFFFFFF DUP1 DUP3 GT ISZERO PUSH2 0xB08 JUMPI PUSH1 0x0 DUP1 REVERT JUMPDEST PUSH2 0xB14 DUP7 DUP4 DUP8 ADD PUSH2 0xA42 JUMP JUMPDEST SWAP4 POP PUSH1 0x20 DUP6 ADD CALLDATALOAD SWAP2 POP DUP1 DUP3 GT ISZERO PUSH2 0xB2A JUMPI PUSH1 0x0 DUP1 REVERT JUMPDEST POP PUSH2 0xB37 DUP6 DUP3 DUP7 ADD PUSH2 0xA42 JUMP JUMPDEST SWAP2 POP POP SWAP3 POP SWAP3 SWAP1 POP JUMP JUMPDEST DUP1 CALLDATALOAD PUSH1 0x6 DUP2 LT PUSH2 0x9E2 JUMPI PUSH1 0x0 DUP1 REVERT JUMPDEST DUP1 CALLDATALOAD PUSH1 0xFF DUP2 AND DUP2 EQ PUSH2 0x9E2 JUMPI PUSH1 0x0 DUP1 REVERT JUMPDEST DUP1 CALLDATALOAD PUSH8 0xFFFFFFFFFFFFFFFF DUP2 AND DUP2 EQ PUSH2 0x9E2 JUMPI PUSH1 0x0 DUP1 REVERT JUMPDEST PUSH1 0x0 DUP1 DUP3 DUP5 SUB PUSH2 0x1A0 DUP2 SLT ISZERO PUSH2 0xB8E JUMPI PUSH1 0x0 DUP1 REVERT JUMPDEST PUSH2 0x180 DUP1 DUP3 SLT ISZERO PUSH2 0xB9E JUMPI PUSH1 0x0 DUP1 REVERT JUMPDEST PUSH2 0xBA6 PUSH2 0xA18 JUMP JUMPDEST SWAP2 POP DUP5 CALLDATALOAD DUP3 MSTORE PUSH2 0xBB8 PUSH1 0x20 DUP7 ADD PUSH2 0x9CB JUMP JUMPDEST PUSH1 0x20 DUP4 ADD MSTORE PUSH2 0xBC9 PUSH1 0x40 DUP7 ADD PUSH2 0xB41 JUMP JUMPDEST PUSH1 0x40 DUP4 ADD MSTORE PUSH2 0xBDA PUSH1 0x60 DUP7 ADD PUSH2 0xB50 JUMP JUMPDEST PUSH1 0x60 DUP4 ADD MSTORE PUSH1 0x80 DUP6 ADD CALLDATALOAD PUSH1 0x80 DUP4 ADD MSTORE PUSH2 0xBF5 PUSH1 0xA0 DUP7 ADD PUSH2 0xB61 JUMP JUMPDEST PUSH1 0xA0 DUP4 ADD MSTORE PUSH2 0xC06 PUSH1 0xC0 DUP7 ADD PUSH2 0xB61 JUMP JUMPDEST PUSH1 0xC0 DUP4 ADD MSTORE PUSH2 0xC17 PUSH1 0xE0 DUP7 ADD PUSH2 0xB61 JUMP JUMPDEST PUSH1 0xE0 DUP4 ADD MSTORE PUSH2 0x100 PUSH2 0xC2A DUP2 DUP8 ADD PUSH2 0xB61 JUMP JUMPDEST SWAP1 DUP4 ADD MSTORE PUSH2 0x120 PUSH2 0xC3C DUP7 DUP3 ADD PUSH2 0xB61 JUMP JUMPDEST SWAP1 DUP4 ADD MSTORE PUSH2 0x140 PUSH2 0xC4E DUP7 DUP3 ADD PUSH2 0xB61 JUMP JUMPDEST SWAP1 DUP4 ADD MSTORE PUSH2 0x160 PUSH2 0xC60 DUP7 DUP3 ADD PUSH2 0xB61 JUMP JUMPDEST SWAP1 DUP4 ADD MSTORE SWAP1 SWAP3 POP DUP4 ADD CALLDATALOAD PUSH8 0xFFFFFFFFFFFFFFFF DUP2 GT ISZERO PUSH2 0xC7F JUMPI PUSH1 0x0 DUP1 REVERT JUMPDEST PUSH2 0xB37 DUP6 DUP3 DUP7 ADD PUSH2 0xA42 JUMP JUMPDEST PUSH1 0x0 PUSH1 0x20 DUP3 DUP5 SUB SLT ISZERO PUSH2 0xC9D JUMPI PUSH1 0x0 DUP1 REVERT JUMPDEST DUP2 CALLDATALOAD PUSH6 0xFFFFFFFFFFFF DUP2 AND DUP2 EQ PUSH2 0x9AB JUMPI PUSH1 0x0 DUP1 REVERT JUMPDEST PUSH1 0x0 PUSH1 0x20 DUP3 DUP5 SUB SLT ISZERO PUSH2 0xCC5 JUMPI PUSH1 0x0 DUP1 REVERT JUMPDEST PUSH2 0x9AB DUP3 PUSH2 0xB61 JUMP JUMPDEST PUSH1 0x0 PUSH1 0x20 DUP3 DUP5 SUB SLT ISZERO PUSH2 0xCE0 JUMPI PUSH1 0x0 DUP1 REVERT JUMPDEST DUP2 CALLDATALOAD PUSH4 0xFFFFFFFF DUP2 AND DUP2 EQ PUSH2 0x9AB JUMPI PUSH1 0x0 DUP1 REVERT JUMPDEST PUSH1 0x0 PUSH1 0x20 DUP3 DUP5 SUB SLT ISZERO PUSH2 0xD06 JUMPI PUSH1 0x0 DUP1 REVERT JUMPDEST DUP2 MLOAD DUP1 ISZERO ISZERO DUP2 EQ PUSH2 0x9AB JUMPI PUSH1 0x0 DUP1 REVERT JUMPDEST PUSH1 0x0 DUP3 PUSH2 0xD33 JUMPI PUSH4 0x4E487B71 PUSH1 0xE0 SHL PUSH1 0x0 MSTORE PUSH1 0x12 PUSH1 0x4 MSTORE PUSH1 0x24 PUSH1 0x0 REVERT JUMPDEST POP DIV SWAP1 JUMP JUMPDEST PUSH1 0x0 DUP2 PUSH1 0x0 NOT DIV DUP4 GT DUP3 ISZERO ISZERO AND ISZERO PUSH2 0xD60 JUMPI PUSH4 0x4E487B71 PUSH1 0xE0 SHL PUSH1 0x0 MSTORE PUSH1 0x11 PUSH1 0x4 MSTORE PUSH1 0x24 PUSH1 0x0 REVERT JUMPDEST POP MUL SWAP1 JUMP JUMPDEST PUSH4 0x4E487B71 PUSH1 0xE0 SHL PUSH1 0x0 MSTORE PUSH1 0x1 PUSH1 0x4 MSTORE PUSH1 0x24 PUSH1 0x0 REVERT INVALID LOG2 PUSH5 0x6970667358 0x22 SLT KECCAK256 0xC3 MSTORE8 COINBASE 0xBC 0x25 0xF6 ADD 0xD4 0xB1 DUP11 0xB4 PUSH7 0x11AD2E72967459 0xB5 INVALID 0xDD 0x4D PUSH28 0xC831BE2F590B148D64736F6C634300080B0033000000000000000000 ","sha1":"9f34b15bff0773c9429b148af46d1b779602543b","source":"// SPDX-License-Identifier: MIT\n// Beef MarketPlace Contracts v0.0.0 hello@mcdu.com\n\npragma solidity ^0.8.0;\n\nimport \"../agnostic/Array.sol\";\nimport \"../Repository/Repository.sol\";\nimport \"../agnostic/UIntConverter.sol\";\nimport \"../Market/Order/Lib.sol\";\n\nbytes32 constant DELIVERY = keccak256(\"Delivery\");\n\ncontract Delivery is RepositoryContract, UIntConverter {\n\n    function id() public view returns (bytes32) {return DELIVERY;}\n\n\n    constructor(Repository rep_) RepositoryContract(rep_) {}\n\n    function orderDeliveryCompatible(\n        Order.Info memory _order,\n        uint256[] memory _delivery\n    ) public pure returns (bool) {\n        return true;\n    }\n\n    function deliveryCompatible(\n        uint256[] memory _delivery1,\n        uint256[] memory _delivery2\n    ) public pure returns (bool) {\n        return true;\n    }\n}\n","sourcePath":"contracts/Delivery/Delivery.sol","deployment":{"address":"0xfD6FF4cEb191846CbBF58E90Cc197C1cF812Ea25","chainid":"9997","blockHeight":12737}}