{
  "abi": [
    {
      "inputs": [
        {
          "internalType": "contract KeccakInverter",
          "name": "keccak_",
          "type": "address"
        }
      ],
      "stateMutability": "nonpayable",
      "type": "constructor"
    },
    {
      "inputs": [
        {
          "internalType": "bytes32",
          "name": "id_",
          "type": "bytes32"
        }
      ],
      "name": "exist",
      "outputs": [
        {
          "internalType": "bool",
          "name": "",
          "type": "bool"
        }
      ],
      "stateMutability": "view",
      "type": "function"
    },
    {
      "inputs": [
        {
          "internalType": "string",
          "name": "idstring_",
          "type": "string"
        }
      ],
      "name": "get",
      "outputs": [
        {
          "internalType": "bytes32",
          "name": "id_",
          "type": "bytes32"
        }
      ],
      "stateMutability": "pure",
      "type": "function"
    },
    {
      "inputs": [
        {
          "internalType": "bytes32",
          "name": "id_",
          "type": "bytes32"
        }
      ],
      "name": "getInfo",
      "outputs": [
        {
          "components": [
            {
              "internalType": "bytes32[]",
              "name": "parents",
              "type": "bytes32[]"
            },
            {
              "internalType": "bytes32",
              "name": "keccak",
              "type": "bytes32"
            },
            {
              "internalType": "bytes32[]",
              "name": "childs",
              "type": "bytes32[]"
            }
          ],
          "internalType": "struct Alias.AliasInfo",
          "name": "info_",
          "type": "tuple"
        }
      ],
      "stateMutability": "view",
      "type": "function"
    },
    {
      "inputs": [
        {
          "internalType": "string",
          "name": "idstring_",
          "type": "string"
        }
      ],
      "name": "register",
      "outputs": [
        {
          "internalType": "bytes32",
          "name": "id_",
          "type": "bytes32"
        }
      ],
      "stateMutability": "nonpayable",
      "type": "function"
    }
  ],
  "bytecode": "608060405234801561001057600080fd5b50604051610f84380380610f8483398101604081905261002f91610054565b600080546001600160a01b0319166001600160a01b0392909216919091179055610084565b60006020828403121561006657600080fd5b81516001600160a01b038116811461007d57600080fd5b9392505050565b610ef1806100936000396000f3fe608060405234801561001057600080fd5b506004361061004c5760003560e01c8063693ec85e1461005157806373e8b3d4146100775780637a02dc06146100ac578063f2c298be146100cc575b600080fd5b61006461005f366004610b04565b6100df565b6040519081526020015b60405180910390f35b61009c610085366004610b84565b600081815260016020819052604090912001541490565b604051901515815260200161006e565b6100bf6100ba366004610b84565b610198565b60405161006e9190610bd8565b6100646100da366004610b04565b610286565b600081604051806040016040528060028152602001612d9d60f11b815250601760fa1b61010d838383610560565b1561011757600080fd5b6040516309566d3760e41b815273__BytesAndKeccakLib_____________________90639566d3709061014e908890600401610c77565b602060405180830381865af415801561016b573d6000803e3d6000fd5b505050506040513d601f19601f8201168201806040525081019061018f9190610c8a565b95945050505050565b604080516060808201835280825260006020830152918101919091526000828152600160209081526040918290208251815460809381028201840190945260608101848152909391928492849184018282801561021457602002820191906000526020600020905b815481526020019060010190808311610200575b50505050508152602001600182015481526020016002820180548060200260200160405190810160405280929190818152602001828054801561027657602002820191906000526020600020905b815481526020019060010190808311610262575b5050505050815250509050919050565b600081604051806040016040528060018152602001605b60f81b815250601760fa1b6102b3838383610560565b156102bd57600080fd5b6040805180820190915260018152601d60f91b60208201526000906102e8908790601760fa1b610686565b805190915060008190036102fe576102fe610ca3565b6000805b828110156105275760008482610319600187610ccf565b6103239190610ccf565b8151811061033357610333610ce6565b602002602001015190506000610348826100df565b905061036581600081815260016020819052604090912001541490565b6103f057600054604051630b13cd5360e31b81526001600160a01b039091169063589e6a9890610399908590600401610c77565b6020604051808303816000875af11580156103b8573d6000803e3d6000fd5b505050506040513d601f19601f820116820180604052508101906103dc9190610c8a565b600082815260016020819052604090912001555b8315610511576000818152600160205260409081902090516316061a7160e21b8152600290910160048201526024810185905273__Array_________________________________9063581869c490604401602060405180830381865af415801561045f573d6000803e3d6000fd5b505050506040513d601f19601f820116820180604052508101906104839190610cfc565b506000848152600160205260409081902090516316061a7160e21b815260048101919091526024810182905273__Array_________________________________9063581869c490604401602060405180830381865af41580156104eb573d6000803e3d6000fd5b505050506040513d601f19601f8201168201806040525081019061050f9190610cfc565b505b925081905061051f81610d1e565b915050610302565b5061055483610537600185610ccf565b8151811061054757610547610ce6565b60200260200101516100df565b98975050505050505050565b825160009084908490830361057a5760009250505061067f565b60005b6001835161058b9190610ccf565b811015610677576001600160f81b03198516158015906105d45750846001600160f81b0319168382815181106105c3576105c3610ce6565b01602001516001600160f81b031916145b156105eb57806105e381610d1e565b915050610665565b60005b82518110156106635782818151811061060957610609610ce6565b602001015160f81c60f81b6001600160f81b03191684838151811061063057610630610ce6565b01602001516001600160f81b0319160361065157600194505050505061067f565b8061065b81610d1e565b9150506105ee565b505b8061066f81610d1e565b91505061057d565b506000925050505b9392505050565b8151835160609185918591606360f81b91101561072557604051634bcb008560e01b815273__Array_________________________________90634bcb0085906106d69087908b90600401610d37565b600060405180830381865af41580156106f3573d6000803e3d6000fd5b505050506040513d6000823e601f3d908101601f1916820160405261071b9190810190610da4565b935050505061067f565b6000805b600185516107379190610ccf565b8110156108de576001600160f81b03198716158015906107805750866001600160f81b03191685828151811061076f5761076f610ce6565b01602001516001600160f81b031916145b15610797578061078f81610d1e565b9150506108cc565b60005b8451811015610805578481815181106107b5576107b5610ce6565b01602001516001600160f81b031916866107cf8385610ea3565b815181106107df576107df610ce6565b01602001516001600160f81b0319160361080557806107fd81610d1e565b91505061079a565b845181036108ca5773__Array_________________________________634bcb00858861083e866108368188610ccf565b8b9190610983565b6040518363ffffffff1660e01b815260040161085b929190610d37565b600060405180830381865af4158015610878573d6000803e3d6000fd5b505050506040513d6000823e601f3d908101601f191682016040526108a09190810190610da4565b5084516108ad9083610ea3565b9250600185516108bd9190610ccf565b6108c79083610ea3565b91505b505b806108d681610d1e565b915050610729565b508473__Array_________________________________634bcb008590916109158485895161090d9190610ccf565b899190610983565b6040518363ffffffff1660e01b8152600401610932929190610d37565b600060405180830381865af415801561094f573d6000803e3d6000fd5b505050506040513d6000823e601f3d908101601f191682016040526109779190810190610da4565b50505050509392505050565b60608161099181601f610ea3565b10156109d55760405162461bcd60e51b815260206004820152600e60248201526d736c6963655f6f766572666c6f7760901b60448201526064015b60405180910390fd5b6109df8284610ea3565b84511015610a235760405162461bcd60e51b8152602060048201526011602482015270736c6963655f6f75744f66426f756e647360781b60448201526064016109cc565b606082158015610a425760405191506000825260208201604052610a8c565b6040519150601f8416801560200281840101858101878315602002848b0101015b81831015610a7b578051835260209283019201610a63565b5050858452601f01601f1916604052505b50949350505050565b634e487b7160e01b600052604160045260246000fd5b604051601f8201601f1916810167ffffffffffffffff81118282101715610ad457610ad4610a95565b604052919050565b600067ffffffffffffffff821115610af657610af6610a95565b50601f01601f191660200190565b600060208284031215610b1657600080fd5b813567ffffffffffffffff811115610b2d57600080fd5b8201601f81018413610b3e57600080fd5b8035610b51610b4c82610adc565b610aab565b818152856020838501011115610b6657600080fd5b81602084016020830137600091810160200191909152949350505050565b600060208284031215610b9657600080fd5b5035919050565b600081518084526020808501945080840160005b83811015610bcd57815187529582019590820190600101610bb1565b509495945050505050565b602081526000825160606020840152610bf46080840182610b9d565b9050602084015160408401526040840151601f1984830301606085015261018f8282610b9d565b60005b83811015610c36578181015183820152602001610c1e565b83811115610c45576000848401525b50505050565b60008151808452610c63816020860160208601610c1b565b601f01601f19169290920160200192915050565b60208152600061067f6020830184610c4b565b600060208284031215610c9c57600080fd5b5051919050565b634e487b7160e01b600052600160045260246000fd5b634e487b7160e01b600052601160045260246000fd5b600082821015610ce157610ce1610cb9565b500390565b634e487b7160e01b600052603260045260246000fd5b600060208284031215610d0e57600080fd5b8151801515811461067f57600080fd5b600060018201610d3057610d30610cb9565b5060010190565b6000604082016040835280855180835260608501915060608160051b8601019250602080880160005b83811015610d8e57605f19888703018552610d7c868351610c4b565b95509382019390820190600101610d60565b50508584038187015250505061018f8185610c4b565b60006020808385031215610db757600080fd5b825167ffffffffffffffff80821115610dcf57600080fd5b818501915085601f830112610de357600080fd5b815181811115610df557610df5610a95565b8060051b610e04858201610aab565b9182528381018501918581019089841115610e1e57600080fd5b86860192505b83831015610e9657825185811115610e3c5760008081fd5b8601603f81018b13610e4e5760008081fd5b878101516040610e60610b4c83610adc565b8281528d82848601011115610e755760008081fd5b610e84838c8301848701610c1b565b85525050509186019190860190610e24565b9998505050505050505050565b60008219821115610eb657610eb6610cb9565b50019056fea2646970667358221220a98107957656d467e88a5616b015b987c0d6f991edb10320909b9860b397c8bd64736f6c634300080d0033",
  "bytecodeSha1": "7b3ce4fe88ef4d835cc26f93f03cceab54b0bebc",
  "compiler": {
    "evm_version": "istanbul",
    "optimizer": {
      "enabled": true,
      "runs": 200
    },
    "version": "0.8.13+commit.abaa5c0e"
  },
  "contractName": "Alias",
  "deployedBytecode": "608060405234801561001057600080fd5b506004361061004c5760003560e01c8063693ec85e1461005157806373e8b3d4146100775780637a02dc06146100ac578063f2c298be146100cc575b600080fd5b61006461005f366004610b04565b6100df565b6040519081526020015b60405180910390f35b61009c610085366004610b84565b600081815260016020819052604090912001541490565b604051901515815260200161006e565b6100bf6100ba366004610b84565b610198565b60405161006e9190610bd8565b6100646100da366004610b04565b610286565b600081604051806040016040528060028152602001612d9d60f11b815250601760fa1b61010d838383610560565b1561011757600080fd5b6040516309566d3760e41b815273__$669c6e0eba2465bd6779ea6ec5db3af1b5$__90639566d3709061014e908890600401610c77565b602060405180830381865af415801561016b573d6000803e3d6000fd5b505050506040513d601f19601f8201168201806040525081019061018f9190610c8a565b95945050505050565b604080516060808201835280825260006020830152918101919091526000828152600160209081526040918290208251815460809381028201840190945260608101848152909391928492849184018282801561021457602002820191906000526020600020905b815481526020019060010190808311610200575b50505050508152602001600182015481526020016002820180548060200260200160405190810160405280929190818152602001828054801561027657602002820191906000526020600020905b815481526020019060010190808311610262575b5050505050815250509050919050565b600081604051806040016040528060018152602001605b60f81b815250601760fa1b6102b3838383610560565b156102bd57600080fd5b6040805180820190915260018152601d60f91b60208201526000906102e8908790601760fa1b610686565b805190915060008190036102fe576102fe610ca3565b6000805b828110156105275760008482610319600187610ccf565b6103239190610ccf565b8151811061033357610333610ce6565b602002602001015190506000610348826100df565b905061036581600081815260016020819052604090912001541490565b6103f057600054604051630b13cd5360e31b81526001600160a01b039091169063589e6a9890610399908590600401610c77565b6020604051808303816000875af11580156103b8573d6000803e3d6000fd5b505050506040513d601f19601f820116820180604052508101906103dc9190610c8a565b600082815260016020819052604090912001555b8315610511576000818152600160205260409081902090516316061a7160e21b8152600290910160048201526024810185905273__$f71e59c5327218924d154e230469c101bd$__9063581869c490604401602060405180830381865af415801561045f573d6000803e3d6000fd5b505050506040513d601f19601f820116820180604052508101906104839190610cfc565b506000848152600160205260409081902090516316061a7160e21b815260048101919091526024810182905273__$f71e59c5327218924d154e230469c101bd$__9063581869c490604401602060405180830381865af41580156104eb573d6000803e3d6000fd5b505050506040513d601f19601f8201168201806040525081019061050f9190610cfc565b505b925081905061051f81610d1e565b915050610302565b5061055483610537600185610ccf565b8151811061054757610547610ce6565b60200260200101516100df565b98975050505050505050565b825160009084908490830361057a5760009250505061067f565b60005b6001835161058b9190610ccf565b811015610677576001600160f81b03198516158015906105d45750846001600160f81b0319168382815181106105c3576105c3610ce6565b01602001516001600160f81b031916145b156105eb57806105e381610d1e565b915050610665565b60005b82518110156106635782818151811061060957610609610ce6565b602001015160f81c60f81b6001600160f81b03191684838151811061063057610630610ce6565b01602001516001600160f81b0319160361065157600194505050505061067f565b8061065b81610d1e565b9150506105ee565b505b8061066f81610d1e565b91505061057d565b506000925050505b9392505050565b8151835160609185918591606360f81b91101561072557604051634bcb008560e01b815273__$f71e59c5327218924d154e230469c101bd$__90634bcb0085906106d69087908b90600401610d37565b600060405180830381865af41580156106f3573d6000803e3d6000fd5b505050506040513d6000823e601f3d908101601f1916820160405261071b9190810190610da4565b935050505061067f565b6000805b600185516107379190610ccf565b8110156108de576001600160f81b03198716158015906107805750866001600160f81b03191685828151811061076f5761076f610ce6565b01602001516001600160f81b031916145b15610797578061078f81610d1e565b9150506108cc565b60005b8451811015610805578481815181106107b5576107b5610ce6565b01602001516001600160f81b031916866107cf8385610ea3565b815181106107df576107df610ce6565b01602001516001600160f81b0319160361080557806107fd81610d1e565b91505061079a565b845181036108ca5773__$f71e59c5327218924d154e230469c101bd$__634bcb00858861083e866108368188610ccf565b8b9190610983565b6040518363ffffffff1660e01b815260040161085b929190610d37565b600060405180830381865af4158015610878573d6000803e3d6000fd5b505050506040513d6000823e601f3d908101601f191682016040526108a09190810190610da4565b5084516108ad9083610ea3565b9250600185516108bd9190610ccf565b6108c79083610ea3565b91505b505b806108d681610d1e565b915050610729565b508473__$f71e59c5327218924d154e230469c101bd$__634bcb008590916109158485895161090d9190610ccf565b899190610983565b6040518363ffffffff1660e01b8152600401610932929190610d37565b600060405180830381865af415801561094f573d6000803e3d6000fd5b505050506040513d6000823e601f3d908101601f191682016040526109779190810190610da4565b50505050509392505050565b60608161099181601f610ea3565b10156109d55760405162461bcd60e51b815260206004820152600e60248201526d736c6963655f6f766572666c6f7760901b60448201526064015b60405180910390fd5b6109df8284610ea3565b84511015610a235760405162461bcd60e51b8152602060048201526011602482015270736c6963655f6f75744f66426f756e647360781b60448201526064016109cc565b606082158015610a425760405191506000825260208201604052610a8c565b6040519150601f8416801560200281840101858101878315602002848b0101015b81831015610a7b578051835260209283019201610a63565b5050858452601f01601f1916604052505b50949350505050565b634e487b7160e01b600052604160045260246000fd5b604051601f8201601f1916810167ffffffffffffffff81118282101715610ad457610ad4610a95565b604052919050565b600067ffffffffffffffff821115610af657610af6610a95565b50601f01601f191660200190565b600060208284031215610b1657600080fd5b813567ffffffffffffffff811115610b2d57600080fd5b8201601f81018413610b3e57600080fd5b8035610b51610b4c82610adc565b610aab565b818152856020838501011115610b6657600080fd5b81602084016020830137600091810160200191909152949350505050565b600060208284031215610b9657600080fd5b5035919050565b600081518084526020808501945080840160005b83811015610bcd57815187529582019590820190600101610bb1565b509495945050505050565b602081526000825160606020840152610bf46080840182610b9d565b9050602084015160408401526040840151601f1984830301606085015261018f8282610b9d565b60005b83811015610c36578181015183820152602001610c1e565b83811115610c45576000848401525b50505050565b60008151808452610c63816020860160208601610c1b565b601f01601f19169290920160200192915050565b60208152600061067f6020830184610c4b565b600060208284031215610c9c57600080fd5b5051919050565b634e487b7160e01b600052600160045260246000fd5b634e487b7160e01b600052601160045260246000fd5b600082821015610ce157610ce1610cb9565b500390565b634e487b7160e01b600052603260045260246000fd5b600060208284031215610d0e57600080fd5b8151801515811461067f57600080fd5b600060018201610d3057610d30610cb9565b5060010190565b6000604082016040835280855180835260608501915060608160051b8601019250602080880160005b83811015610d8e57605f19888703018552610d7c868351610c4b565b95509382019390820190600101610d60565b50508584038187015250505061018f8185610c4b565b60006020808385031215610db757600080fd5b825167ffffffffffffffff80821115610dcf57600080fd5b818501915085601f830112610de357600080fd5b815181811115610df557610df5610a95565b8060051b610e04858201610aab565b9182528381018501918581019089841115610e1e57600080fd5b86860192505b83831015610e9657825185811115610e3c5760008081fd5b8601603f81018b13610e4e5760008081fd5b878101516040610e60610b4c83610adc565b8281528d82848601011115610e755760008081fd5b610e84838c8301848701610c1b565b85525050509186019190860190610e24565b9998505050505050505050565b60008219821115610eb657610eb6610cb9565b50019056fea2646970667358221220a98107957656d467e88a5616b015b987c0d6f991edb10320909b9860b397c8bd64736f6c634300080d0033",
  "language": "Solidity",
  "natspec": {
    "kind": "dev",
    "methods": {},
    "version": 1
  },
  "opcodes": "PUSH1 0x80 PUSH1 0x40 MSTORE CALLVALUE DUP1 ISZERO PUSH2 0x10 JUMPI PUSH1 0x0 DUP1 REVERT JUMPDEST POP PUSH1 0x4 CALLDATASIZE LT PUSH2 0x4C JUMPI PUSH1 0x0 CALLDATALOAD PUSH1 0xE0 SHR DUP1 PUSH4 0x693EC85E EQ PUSH2 0x51 JUMPI DUP1 PUSH4 0x73E8B3D4 EQ PUSH2 0x77 JUMPI DUP1 PUSH4 0x7A02DC06 EQ PUSH2 0xAC JUMPI DUP1 PUSH4 0xF2C298BE EQ PUSH2 0xCC JUMPI JUMPDEST PUSH1 0x0 DUP1 REVERT JUMPDEST PUSH2 0x64 PUSH2 0x5F CALLDATASIZE PUSH1 0x4 PUSH2 0xB04 JUMP JUMPDEST PUSH2 0xDF JUMP JUMPDEST PUSH1 0x40 MLOAD SWAP1 DUP2 MSTORE PUSH1 0x20 ADD JUMPDEST PUSH1 0x40 MLOAD DUP1 SWAP2 SUB SWAP1 RETURN JUMPDEST PUSH2 0x9C PUSH2 0x85 CALLDATASIZE PUSH1 0x4 PUSH2 0xB84 JUMP JUMPDEST PUSH1 0x0 DUP2 DUP2 MSTORE PUSH1 0x1 PUSH1 0x20 DUP2 SWAP1 MSTORE PUSH1 0x40 SWAP1 SWAP2 KECCAK256 ADD SLOAD EQ SWAP1 JUMP JUMPDEST PUSH1 0x40 MLOAD SWAP1 ISZERO ISZERO DUP2 MSTORE PUSH1 0x20 ADD PUSH2 0x6E JUMP JUMPDEST PUSH2 0xBF PUSH2 0xBA CALLDATASIZE PUSH1 0x4 PUSH2 0xB84 JUMP JUMPDEST PUSH2 0x198 JUMP JUMPDEST PUSH1 0x40 MLOAD PUSH2 0x6E SWAP2 SWAP1 PUSH2 0xBD8 JUMP JUMPDEST PUSH2 0x64 PUSH2 0xDA CALLDATASIZE PUSH1 0x4 PUSH2 0xB04 JUMP JUMPDEST PUSH2 0x286 JUMP JUMPDEST PUSH1 0x0 DUP2 PUSH1 0x40 MLOAD DUP1 PUSH1 0x40 ADD PUSH1 0x40 MSTORE DUP1 PUSH1 0x2 DUP2 MSTORE PUSH1 0x20 ADD PUSH2 0x2D9D PUSH1 0xF1 SHL DUP2 MSTORE POP PUSH1 0x17 PUSH1 0xFA SHL PUSH2 0x10D DUP4 DUP4 DUP4 PUSH2 0x560 JUMP JUMPDEST ISZERO PUSH2 0x117 JUMPI PUSH1 0x0 DUP1 REVERT JUMPDEST PUSH1 0x40 MLOAD PUSH4 0x9566D37 PUSH1 0xE4 SHL DUP2 MSTORE PUSH20 0x0 SWAP1 PUSH4 0x9566D370 SWAP1 PUSH2 0x14E SWAP1 DUP9 SWAP1 PUSH1 0x4 ADD PUSH2 0xC77 JUMP JUMPDEST PUSH1 0x20 PUSH1 0x40 MLOAD DUP1 DUP4 SUB DUP2 DUP7 GAS DELEGATECALL ISZERO DUP1 ISZERO PUSH2 0x16B JUMPI RETURNDATASIZE PUSH1 0x0 DUP1 RETURNDATACOPY RETURNDATASIZE PUSH1 0x0 REVERT JUMPDEST POP POP POP POP PUSH1 0x40 MLOAD RETURNDATASIZE PUSH1 0x1F NOT PUSH1 0x1F DUP3 ADD AND DUP3 ADD DUP1 PUSH1 0x40 MSTORE POP DUP2 ADD SWAP1 PUSH2 0x18F SWAP2 SWAP1 PUSH2 0xC8A JUMP JUMPDEST SWAP6 SWAP5 POP POP POP POP POP JUMP JUMPDEST PUSH1 0x40 DUP1 MLOAD PUSH1 0x60 DUP1 DUP3 ADD DUP4 MSTORE DUP1 DUP3 MSTORE PUSH1 0x0 PUSH1 0x20 DUP4 ADD MSTORE SWAP2 DUP2 ADD SWAP2 SWAP1 SWAP2 MSTORE PUSH1 0x0 DUP3 DUP2 MSTORE PUSH1 0x1 PUSH1 0x20 SWAP1 DUP2 MSTORE PUSH1 0x40 SWAP2 DUP3 SWAP1 KECCAK256 DUP3 MLOAD DUP2 SLOAD PUSH1 0x80 SWAP4 DUP2 MUL DUP3 ADD DUP5 ADD SWAP1 SWAP5 MSTORE PUSH1 0x60 DUP2 ADD DUP5 DUP2 MSTORE SWAP1 SWAP4 SWAP2 SWAP3 DUP5 SWAP3 DUP5 SWAP2 DUP5 ADD DUP3 DUP3 DUP1 ISZERO PUSH2 0x214 JUMPI PUSH1 0x20 MUL DUP3 ADD SWAP2 SWAP1 PUSH1 0x0 MSTORE PUSH1 0x20 PUSH1 0x0 KECCAK256 SWAP1 JUMPDEST DUP2 SLOAD DUP2 MSTORE PUSH1 0x20 ADD SWAP1 PUSH1 0x1 ADD SWAP1 DUP1 DUP4 GT PUSH2 0x200 JUMPI JUMPDEST POP POP POP POP POP DUP2 MSTORE PUSH1 0x20 ADD PUSH1 0x1 DUP3 ADD SLOAD DUP2 MSTORE PUSH1 0x20 ADD PUSH1 0x2 DUP3 ADD DUP1 SLOAD DUP1 PUSH1 0x20 MUL PUSH1 0x20 ADD PUSH1 0x40 MLOAD SWAP1 DUP2 ADD PUSH1 0x40 MSTORE DUP1 SWAP3 SWAP2 SWAP1 DUP2 DUP2 MSTORE PUSH1 0x20 ADD DUP3 DUP1 SLOAD DUP1 ISZERO PUSH2 0x276 JUMPI PUSH1 0x20 MUL DUP3 ADD SWAP2 SWAP1 PUSH1 0x0 MSTORE PUSH1 0x20 PUSH1 0x0 KECCAK256 SWAP1 JUMPDEST DUP2 SLOAD DUP2 MSTORE PUSH1 0x20 ADD SWAP1 PUSH1 0x1 ADD SWAP1 DUP1 DUP4 GT PUSH2 0x262 JUMPI JUMPDEST POP POP POP POP POP DUP2 MSTORE POP POP SWAP1 POP SWAP2 SWAP1 POP JUMP JUMPDEST PUSH1 0x0 DUP2 PUSH1 0x40 MLOAD DUP1 PUSH1 0x40 ADD PUSH1 0x40 MSTORE DUP1 PUSH1 0x1 DUP2 MSTORE PUSH1 0x20 ADD PUSH1 0x5B PUSH1 0xF8 SHL DUP2 MSTORE POP PUSH1 0x17 PUSH1 0xFA SHL PUSH2 0x2B3 DUP4 DUP4 DUP4 PUSH2 0x560 JUMP JUMPDEST ISZERO PUSH2 0x2BD JUMPI PUSH1 0x0 DUP1 REVERT JUMPDEST PUSH1 0x40 DUP1 MLOAD DUP1 DUP3 ADD SWAP1 SWAP2 MSTORE PUSH1 0x1 DUP2 MSTORE PUSH1 0x1D PUSH1 0xF9 SHL PUSH1 0x20 DUP3 ADD MSTORE PUSH1 0x0 SWAP1 PUSH2 0x2E8 SWAP1 DUP8 SWAP1 PUSH1 0x17 PUSH1 0xFA SHL PUSH2 0x686 JUMP JUMPDEST DUP1 MLOAD SWAP1 SWAP2 POP PUSH1 0x0 DUP2 SWAP1 SUB PUSH2 0x2FE JUMPI PUSH2 0x2FE PUSH2 0xCA3 JUMP JUMPDEST PUSH1 0x0 DUP1 JUMPDEST DUP3 DUP2 LT ISZERO PUSH2 0x527 JUMPI PUSH1 0x0 DUP5 DUP3 PUSH2 0x319 PUSH1 0x1 DUP8 PUSH2 0xCCF JUMP JUMPDEST PUSH2 0x323 SWAP2 SWAP1 PUSH2 0xCCF JUMP JUMPDEST DUP2 MLOAD DUP2 LT PUSH2 0x333 JUMPI PUSH2 0x333 PUSH2 0xCE6 JUMP JUMPDEST PUSH1 0x20 MUL PUSH1 0x20 ADD ADD MLOAD SWAP1 POP PUSH1 0x0 PUSH2 0x348 DUP3 PUSH2 0xDF JUMP JUMPDEST SWAP1 POP PUSH2 0x365 DUP2 PUSH1 0x0 DUP2 DUP2 MSTORE PUSH1 0x1 PUSH1 0x20 DUP2 SWAP1 MSTORE PUSH1 0x40 SWAP1 SWAP2 KECCAK256 ADD SLOAD EQ SWAP1 JUMP JUMPDEST PUSH2 0x3F0 JUMPI PUSH1 0x0 SLOAD PUSH1 0x40 MLOAD PUSH4 0xB13CD53 PUSH1 0xE3 SHL DUP2 MSTORE PUSH1 0x1 PUSH1 0x1 PUSH1 0xA0 SHL SUB SWAP1 SWAP2 AND SWAP1 PUSH4 0x589E6A98 SWAP1 PUSH2 0x399 SWAP1 DUP6 SWAP1 PUSH1 0x4 ADD PUSH2 0xC77 JUMP JUMPDEST PUSH1 0x20 PUSH1 0x40 MLOAD DUP1 DUP4 SUB DUP2 PUSH1 0x0 DUP8 GAS CALL ISZERO DUP1 ISZERO PUSH2 0x3B8 JUMPI RETURNDATASIZE PUSH1 0x0 DUP1 RETURNDATACOPY RETURNDATASIZE PUSH1 0x0 REVERT JUMPDEST POP POP POP POP PUSH1 0x40 MLOAD RETURNDATASIZE PUSH1 0x1F NOT PUSH1 0x1F DUP3 ADD AND DUP3 ADD DUP1 PUSH1 0x40 MSTORE POP DUP2 ADD SWAP1 PUSH2 0x3DC SWAP2 SWAP1 PUSH2 0xC8A JUMP JUMPDEST PUSH1 0x0 DUP3 DUP2 MSTORE PUSH1 0x1 PUSH1 0x20 DUP2 SWAP1 MSTORE PUSH1 0x40 SWAP1 SWAP2 KECCAK256 ADD SSTORE JUMPDEST DUP4 ISZERO PUSH2 0x511 JUMPI PUSH1 0x0 DUP2 DUP2 MSTORE PUSH1 0x1 PUSH1 0x20 MSTORE PUSH1 0x40 SWAP1 DUP2 SWAP1 KECCAK256 SWAP1 MLOAD PUSH4 0x16061A71 PUSH1 0xE2 SHL DUP2 MSTORE PUSH1 0x2 SWAP1 SWAP2 ADD PUSH1 0x4 DUP3 ADD MSTORE PUSH1 0x24 DUP2 ADD DUP6 SWAP1 MSTORE PUSH20 0x0 SWAP1 PUSH4 0x581869C4 SWAP1 PUSH1 0x44 ADD PUSH1 0x20 PUSH1 0x40 MLOAD DUP1 DUP4 SUB DUP2 DUP7 GAS DELEGATECALL ISZERO DUP1 ISZERO PUSH2 0x45F JUMPI RETURNDATASIZE PUSH1 0x0 DUP1 RETURNDATACOPY RETURNDATASIZE PUSH1 0x0 REVERT JUMPDEST POP POP POP POP PUSH1 0x40 MLOAD RETURNDATASIZE PUSH1 0x1F NOT PUSH1 0x1F DUP3 ADD AND DUP3 ADD DUP1 PUSH1 0x40 MSTORE POP DUP2 ADD SWAP1 PUSH2 0x483 SWAP2 SWAP1 PUSH2 0xCFC JUMP JUMPDEST POP PUSH1 0x0 DUP5 DUP2 MSTORE PUSH1 0x1 PUSH1 0x20 MSTORE PUSH1 0x40 SWAP1 DUP2 SWAP1 KECCAK256 SWAP1 MLOAD PUSH4 0x16061A71 PUSH1 0xE2 SHL DUP2 MSTORE PUSH1 0x4 DUP2 ADD SWAP2 SWAP1 SWAP2 MSTORE PUSH1 0x24 DUP2 ADD DUP3 SWAP1 MSTORE PUSH20 0x0 SWAP1 PUSH4 0x581869C4 SWAP1 PUSH1 0x44 ADD PUSH1 0x20 PUSH1 0x40 MLOAD DUP1 DUP4 SUB DUP2 DUP7 GAS DELEGATECALL ISZERO DUP1 ISZERO PUSH2 0x4EB JUMPI RETURNDATASIZE PUSH1 0x0 DUP1 RETURNDATACOPY RETURNDATASIZE PUSH1 0x0 REVERT JUMPDEST POP POP POP POP PUSH1 0x40 MLOAD RETURNDATASIZE PUSH1 0x1F NOT PUSH1 0x1F DUP3 ADD AND DUP3 ADD DUP1 PUSH1 0x40 MSTORE POP DUP2 ADD SWAP1 PUSH2 0x50F SWAP2 SWAP1 PUSH2 0xCFC JUMP JUMPDEST POP JUMPDEST SWAP3 POP DUP2 SWAP1 POP PUSH2 0x51F DUP2 PUSH2 0xD1E JUMP JUMPDEST SWAP2 POP POP PUSH2 0x302 JUMP JUMPDEST POP PUSH2 0x554 DUP4 PUSH2 0x537 PUSH1 0x1 DUP6 PUSH2 0xCCF JUMP JUMPDEST DUP2 MLOAD DUP2 LT PUSH2 0x547 JUMPI PUSH2 0x547 PUSH2 0xCE6 JUMP JUMPDEST PUSH1 0x20 MUL PUSH1 0x20 ADD ADD MLOAD PUSH2 0xDF JUMP JUMPDEST SWAP9 SWAP8 POP POP POP POP POP POP POP POP JUMP JUMPDEST DUP3 MLOAD PUSH1 0x0 SWAP1 DUP5 SWAP1 DUP5 SWAP1 DUP4 SUB PUSH2 0x57A JUMPI PUSH1 0x0 SWAP3 POP POP POP PUSH2 0x67F JUMP JUMPDEST PUSH1 0x0 JUMPDEST PUSH1 0x1 DUP4 MLOAD PUSH2 0x58B SWAP2 SWAP1 PUSH2 0xCCF JUMP JUMPDEST DUP2 LT ISZERO PUSH2 0x677 JUMPI PUSH1 0x1 PUSH1 0x1 PUSH1 0xF8 SHL SUB NOT DUP6 AND ISZERO DUP1 ISZERO SWAP1 PUSH2 0x5D4 JUMPI POP DUP5 PUSH1 0x1 PUSH1 0x1 PUSH1 0xF8 SHL SUB NOT AND DUP4 DUP3 DUP2 MLOAD DUP2 LT PUSH2 0x5C3 JUMPI PUSH2 0x5C3 PUSH2 0xCE6 JUMP JUMPDEST ADD PUSH1 0x20 ADD MLOAD PUSH1 0x1 PUSH1 0x1 PUSH1 0xF8 SHL SUB NOT AND EQ JUMPDEST ISZERO PUSH2 0x5EB JUMPI DUP1 PUSH2 0x5E3 DUP2 PUSH2 0xD1E JUMP JUMPDEST SWAP2 POP POP PUSH2 0x665 JUMP JUMPDEST PUSH1 0x0 JUMPDEST DUP3 MLOAD DUP2 LT ISZERO PUSH2 0x663 JUMPI DUP3 DUP2 DUP2 MLOAD DUP2 LT PUSH2 0x609 JUMPI PUSH2 0x609 PUSH2 0xCE6 JUMP JUMPDEST PUSH1 0x20 ADD ADD MLOAD PUSH1 0xF8 SHR PUSH1 0xF8 SHL PUSH1 0x1 PUSH1 0x1 PUSH1 0xF8 SHL SUB NOT AND DUP5 DUP4 DUP2 MLOAD DUP2 LT PUSH2 0x630 JUMPI PUSH2 0x630 PUSH2 0xCE6 JUMP JUMPDEST ADD PUSH1 0x20 ADD MLOAD PUSH1 0x1 PUSH1 0x1 PUSH1 0xF8 SHL SUB NOT AND SUB PUSH2 0x651 JUMPI PUSH1 0x1 SWAP5 POP POP POP POP POP PUSH2 0x67F JUMP JUMPDEST DUP1 PUSH2 0x65B DUP2 PUSH2 0xD1E JUMP JUMPDEST SWAP2 POP POP PUSH2 0x5EE JUMP JUMPDEST POP JUMPDEST DUP1 PUSH2 0x66F DUP2 PUSH2 0xD1E JUMP JUMPDEST SWAP2 POP POP PUSH2 0x57D JUMP JUMPDEST POP PUSH1 0x0 SWAP3 POP POP POP JUMPDEST SWAP4 SWAP3 POP POP POP JUMP JUMPDEST DUP2 MLOAD DUP4 MLOAD PUSH1 0x60 SWAP2 DUP6 SWAP2 DUP6 SWAP2 PUSH1 0x63 PUSH1 0xF8 SHL SWAP2 LT ISZERO PUSH2 0x725 JUMPI PUSH1 0x40 MLOAD PUSH4 0x4BCB0085 PUSH1 0xE0 SHL DUP2 MSTORE PUSH20 0x0 SWAP1 PUSH4 0x4BCB0085 SWAP1 PUSH2 0x6D6 SWAP1 DUP8 SWAP1 DUP12 SWAP1 PUSH1 0x4 ADD PUSH2 0xD37 JUMP JUMPDEST PUSH1 0x0 PUSH1 0x40 MLOAD DUP1 DUP4 SUB DUP2 DUP7 GAS DELEGATECALL ISZERO DUP1 ISZERO PUSH2 0x6F3 JUMPI RETURNDATASIZE PUSH1 0x0 DUP1 RETURNDATACOPY RETURNDATASIZE PUSH1 0x0 REVERT JUMPDEST POP POP POP POP PUSH1 0x40 MLOAD RETURNDATASIZE PUSH1 0x0 DUP3 RETURNDATACOPY PUSH1 0x1F RETURNDATASIZE SWAP1 DUP2 ADD PUSH1 0x1F NOT AND DUP3 ADD PUSH1 0x40 MSTORE PUSH2 0x71B SWAP2 SWAP1 DUP2 ADD SWAP1 PUSH2 0xDA4 JUMP JUMPDEST SWAP4 POP POP POP POP PUSH2 0x67F JUMP JUMPDEST PUSH1 0x0 DUP1 JUMPDEST PUSH1 0x1 DUP6 MLOAD PUSH2 0x737 SWAP2 SWAP1 PUSH2 0xCCF JUMP JUMPDEST DUP2 LT ISZERO PUSH2 0x8DE JUMPI PUSH1 0x1 PUSH1 0x1 PUSH1 0xF8 SHL SUB NOT DUP8 AND ISZERO DUP1 ISZERO SWAP1 PUSH2 0x780 JUMPI POP DUP7 PUSH1 0x1 PUSH1 0x1 PUSH1 0xF8 SHL SUB NOT AND DUP6 DUP3 DUP2 MLOAD DUP2 LT PUSH2 0x76F JUMPI PUSH2 0x76F PUSH2 0xCE6 JUMP JUMPDEST ADD PUSH1 0x20 ADD MLOAD PUSH1 0x1 PUSH1 0x1 PUSH1 0xF8 SHL SUB NOT AND EQ JUMPDEST ISZERO PUSH2 0x797 JUMPI DUP1 PUSH2 0x78F DUP2 PUSH2 0xD1E JUMP JUMPDEST SWAP2 POP POP PUSH2 0x8CC JUMP JUMPDEST PUSH1 0x0 JUMPDEST DUP5 MLOAD DUP2 LT ISZERO PUSH2 0x805 JUMPI DUP5 DUP2 DUP2 MLOAD DUP2 LT PUSH2 0x7B5 JUMPI PUSH2 0x7B5 PUSH2 0xCE6 JUMP JUMPDEST ADD PUSH1 0x20 ADD MLOAD PUSH1 0x1 PUSH1 0x1 PUSH1 0xF8 SHL SUB NOT AND DUP7 PUSH2 0x7CF DUP4 DUP6 PUSH2 0xEA3 JUMP JUMPDEST DUP2 MLOAD DUP2 LT PUSH2 0x7DF JUMPI PUSH2 0x7DF PUSH2 0xCE6 JUMP JUMPDEST ADD PUSH1 0x20 ADD MLOAD PUSH1 0x1 PUSH1 0x1 PUSH1 0xF8 SHL SUB NOT AND SUB PUSH2 0x805 JUMPI DUP1 PUSH2 0x7FD DUP2 PUSH2 0xD1E JUMP JUMPDEST SWAP2 POP POP PUSH2 0x79A JUMP JUMPDEST DUP5 MLOAD DUP2 SUB PUSH2 0x8CA JUMPI PUSH20 0x0 PUSH4 0x4BCB0085 DUP9 PUSH2 0x83E DUP7 PUSH2 0x836 DUP2 DUP9 PUSH2 0xCCF JUMP JUMPDEST DUP12 SWAP2 SWAP1 PUSH2 0x983 JUMP JUMPDEST PUSH1 0x40 MLOAD DUP4 PUSH4 0xFFFFFFFF AND PUSH1 0xE0 SHL DUP2 MSTORE PUSH1 0x4 ADD PUSH2 0x85B SWAP3 SWAP2 SWAP1 PUSH2 0xD37 JUMP JUMPDEST PUSH1 0x0 PUSH1 0x40 MLOAD DUP1 DUP4 SUB DUP2 DUP7 GAS DELEGATECALL ISZERO DUP1 ISZERO PUSH2 0x878 JUMPI RETURNDATASIZE PUSH1 0x0 DUP1 RETURNDATACOPY RETURNDATASIZE PUSH1 0x0 REVERT JUMPDEST POP POP POP POP PUSH1 0x40 MLOAD RETURNDATASIZE PUSH1 0x0 DUP3 RETURNDATACOPY PUSH1 0x1F RETURNDATASIZE SWAP1 DUP2 ADD PUSH1 0x1F NOT AND DUP3 ADD PUSH1 0x40 MSTORE PUSH2 0x8A0 SWAP2 SWAP1 DUP2 ADD SWAP1 PUSH2 0xDA4 JUMP JUMPDEST POP DUP5 MLOAD PUSH2 0x8AD SWAP1 DUP4 PUSH2 0xEA3 JUMP JUMPDEST SWAP3 POP PUSH1 0x1 DUP6 MLOAD PUSH2 0x8BD SWAP2 SWAP1 PUSH2 0xCCF JUMP JUMPDEST PUSH2 0x8C7 SWAP1 DUP4 PUSH2 0xEA3 JUMP JUMPDEST SWAP2 POP JUMPDEST POP JUMPDEST DUP1 PUSH2 0x8D6 DUP2 PUSH2 0xD1E JUMP JUMPDEST SWAP2 POP POP PUSH2 0x729 JUMP JUMPDEST POP DUP5 PUSH20 0x0 PUSH4 0x4BCB0085 SWAP1 SWAP2 PUSH2 0x915 DUP5 DUP6 DUP10 MLOAD PUSH2 0x90D SWAP2 SWAP1 PUSH2 0xCCF JUMP JUMPDEST DUP10 SWAP2 SWAP1 PUSH2 0x983 JUMP JUMPDEST PUSH1 0x40 MLOAD DUP4 PUSH4 0xFFFFFFFF AND PUSH1 0xE0 SHL DUP2 MSTORE PUSH1 0x4 ADD PUSH2 0x932 SWAP3 SWAP2 SWAP1 PUSH2 0xD37 JUMP JUMPDEST PUSH1 0x0 PUSH1 0x40 MLOAD DUP1 DUP4 SUB DUP2 DUP7 GAS DELEGATECALL ISZERO DUP1 ISZERO PUSH2 0x94F JUMPI RETURNDATASIZE PUSH1 0x0 DUP1 RETURNDATACOPY RETURNDATASIZE PUSH1 0x0 REVERT JUMPDEST POP POP POP POP PUSH1 0x40 MLOAD RETURNDATASIZE PUSH1 0x0 DUP3 RETURNDATACOPY PUSH1 0x1F RETURNDATASIZE SWAP1 DUP2 ADD PUSH1 0x1F NOT AND DUP3 ADD PUSH1 0x40 MSTORE PUSH2 0x977 SWAP2 SWAP1 DUP2 ADD SWAP1 PUSH2 0xDA4 JUMP JUMPDEST POP POP POP POP POP SWAP4 SWAP3 POP POP POP JUMP JUMPDEST PUSH1 0x60 DUP2 PUSH2 0x991 DUP2 PUSH1 0x1F PUSH2 0xEA3 JUMP JUMPDEST LT ISZERO PUSH2 0x9D5 JUMPI PUSH1 0x40 MLOAD PUSH3 0x461BCD PUSH1 0xE5 SHL DUP2 MSTORE PUSH1 0x20 PUSH1 0x4 DUP3 ADD MSTORE PUSH1 0xE PUSH1 0x24 DUP3 ADD MSTORE PUSH14 0x736C6963655F6F766572666C6F77 PUSH1 0x90 SHL PUSH1 0x44 DUP3 ADD MSTORE PUSH1 0x64 ADD JUMPDEST PUSH1 0x40 MLOAD DUP1 SWAP2 SUB SWAP1 REVERT JUMPDEST PUSH2 0x9DF DUP3 DUP5 PUSH2 0xEA3 JUMP JUMPDEST DUP5 MLOAD LT ISZERO PUSH2 0xA23 JUMPI PUSH1 0x40 MLOAD PUSH3 0x461BCD PUSH1 0xE5 SHL DUP2 MSTORE PUSH1 0x20 PUSH1 0x4 DUP3 ADD MSTORE PUSH1 0x11 PUSH1 0x24 DUP3 ADD MSTORE PUSH17 0x736C6963655F6F75744F66426F756E6473 PUSH1 0x78 SHL PUSH1 0x44 DUP3 ADD MSTORE PUSH1 0x64 ADD PUSH2 0x9CC JUMP JUMPDEST PUSH1 0x60 DUP3 ISZERO DUP1 ISZERO PUSH2 0xA42 JUMPI PUSH1 0x40 MLOAD SWAP2 POP PUSH1 0x0 DUP3 MSTORE PUSH1 0x20 DUP3 ADD PUSH1 0x40 MSTORE PUSH2 0xA8C JUMP JUMPDEST PUSH1 0x40 MLOAD SWAP2 POP PUSH1 0x1F DUP5 AND DUP1 ISZERO PUSH1 0x20 MUL DUP2 DUP5 ADD ADD DUP6 DUP2 ADD DUP8 DUP4 ISZERO PUSH1 0x20 MUL DUP5 DUP12 ADD ADD ADD JUMPDEST DUP2 DUP4 LT ISZERO PUSH2 0xA7B JUMPI DUP1 MLOAD DUP4 MSTORE PUSH1 0x20 SWAP3 DUP4 ADD SWAP3 ADD PUSH2 0xA63 JUMP JUMPDEST POP POP DUP6 DUP5 MSTORE PUSH1 0x1F ADD PUSH1 0x1F NOT AND PUSH1 0x40 MSTORE POP JUMPDEST POP SWAP5 SWAP4 POP POP POP POP JUMP JUMPDEST PUSH4 0x4E487B71 PUSH1 0xE0 SHL PUSH1 0x0 MSTORE PUSH1 0x41 PUSH1 0x4 MSTORE PUSH1 0x24 PUSH1 0x0 REVERT JUMPDEST PUSH1 0x40 MLOAD PUSH1 0x1F DUP3 ADD PUSH1 0x1F NOT AND DUP2 ADD PUSH8 0xFFFFFFFFFFFFFFFF DUP2 GT DUP3 DUP3 LT OR ISZERO PUSH2 0xAD4 JUMPI PUSH2 0xAD4 PUSH2 0xA95 JUMP JUMPDEST PUSH1 0x40 MSTORE SWAP2 SWAP1 POP JUMP JUMPDEST PUSH1 0x0 PUSH8 0xFFFFFFFFFFFFFFFF DUP3 GT ISZERO PUSH2 0xAF6 JUMPI PUSH2 0xAF6 PUSH2 0xA95 JUMP JUMPDEST POP PUSH1 0x1F ADD PUSH1 0x1F NOT AND PUSH1 0x20 ADD SWAP1 JUMP JUMPDEST PUSH1 0x0 PUSH1 0x20 DUP3 DUP5 SUB SLT ISZERO PUSH2 0xB16 JUMPI PUSH1 0x0 DUP1 REVERT JUMPDEST DUP2 CALLDATALOAD PUSH8 0xFFFFFFFFFFFFFFFF DUP2 GT ISZERO PUSH2 0xB2D JUMPI PUSH1 0x0 DUP1 REVERT JUMPDEST DUP3 ADD PUSH1 0x1F DUP2 ADD DUP5 SGT PUSH2 0xB3E JUMPI PUSH1 0x0 DUP1 REVERT JUMPDEST DUP1 CALLDATALOAD PUSH2 0xB51 PUSH2 0xB4C DUP3 PUSH2 0xADC JUMP JUMPDEST PUSH2 0xAAB JUMP JUMPDEST DUP2 DUP2 MSTORE DUP6 PUSH1 0x20 DUP4 DUP6 ADD ADD GT ISZERO PUSH2 0xB66 JUMPI PUSH1 0x0 DUP1 REVERT JUMPDEST DUP2 PUSH1 0x20 DUP5 ADD PUSH1 0x20 DUP4 ADD CALLDATACOPY PUSH1 0x0 SWAP2 DUP2 ADD PUSH1 0x20 ADD SWAP2 SWAP1 SWAP2 MSTORE SWAP5 SWAP4 POP POP POP POP JUMP JUMPDEST PUSH1 0x0 PUSH1 0x20 DUP3 DUP5 SUB SLT ISZERO PUSH2 0xB96 JUMPI PUSH1 0x0 DUP1 REVERT JUMPDEST POP CALLDATALOAD SWAP2 SWAP1 POP JUMP JUMPDEST PUSH1 0x0 DUP2 MLOAD DUP1 DUP5 MSTORE PUSH1 0x20 DUP1 DUP6 ADD SWAP5 POP DUP1 DUP5 ADD PUSH1 0x0 JUMPDEST DUP4 DUP2 LT ISZERO PUSH2 0xBCD JUMPI DUP2 MLOAD DUP8 MSTORE SWAP6 DUP3 ADD SWAP6 SWAP1 DUP3 ADD SWAP1 PUSH1 0x1 ADD PUSH2 0xBB1 JUMP JUMPDEST POP SWAP5 SWAP6 SWAP5 POP POP POP POP POP JUMP JUMPDEST PUSH1 0x20 DUP2 MSTORE PUSH1 0x0 DUP3 MLOAD PUSH1 0x60 PUSH1 0x20 DUP5 ADD MSTORE PUSH2 0xBF4 PUSH1 0x80 DUP5 ADD DUP3 PUSH2 0xB9D JUMP JUMPDEST SWAP1 POP PUSH1 0x20 DUP5 ADD MLOAD PUSH1 0x40 DUP5 ADD MSTORE PUSH1 0x40 DUP5 ADD MLOAD PUSH1 0x1F NOT DUP5 DUP4 SUB ADD PUSH1 0x60 DUP6 ADD MSTORE PUSH2 0x18F DUP3 DUP3 PUSH2 0xB9D JUMP JUMPDEST PUSH1 0x0 JUMPDEST DUP4 DUP2 LT ISZERO PUSH2 0xC36 JUMPI DUP2 DUP2 ADD MLOAD DUP4 DUP3 ADD MSTORE PUSH1 0x20 ADD PUSH2 0xC1E JUMP JUMPDEST DUP4 DUP2 GT ISZERO PUSH2 0xC45 JUMPI PUSH1 0x0 DUP5 DUP5 ADD MSTORE JUMPDEST POP POP POP POP JUMP JUMPDEST PUSH1 0x0 DUP2 MLOAD DUP1 DUP5 MSTORE PUSH2 0xC63 DUP2 PUSH1 0x20 DUP7 ADD PUSH1 0x20 DUP7 ADD PUSH2 0xC1B JUMP JUMPDEST PUSH1 0x1F ADD PUSH1 0x1F NOT AND SWAP3 SWAP1 SWAP3 ADD PUSH1 0x20 ADD SWAP3 SWAP2 POP POP JUMP JUMPDEST PUSH1 0x20 DUP2 MSTORE PUSH1 0x0 PUSH2 0x67F PUSH1 0x20 DUP4 ADD DUP5 PUSH2 0xC4B JUMP JUMPDEST PUSH1 0x0 PUSH1 0x20 DUP3 DUP5 SUB SLT ISZERO PUSH2 0xC9C JUMPI PUSH1 0x0 DUP1 REVERT JUMPDEST POP MLOAD SWAP2 SWAP1 POP JUMP JUMPDEST PUSH4 0x4E487B71 PUSH1 0xE0 SHL PUSH1 0x0 MSTORE PUSH1 0x1 PUSH1 0x4 MSTORE PUSH1 0x24 PUSH1 0x0 REVERT JUMPDEST PUSH4 0x4E487B71 PUSH1 0xE0 SHL PUSH1 0x0 MSTORE PUSH1 0x11 PUSH1 0x4 MSTORE PUSH1 0x24 PUSH1 0x0 REVERT JUMPDEST PUSH1 0x0 DUP3 DUP3 LT ISZERO PUSH2 0xCE1 JUMPI PUSH2 0xCE1 PUSH2 0xCB9 JUMP JUMPDEST POP SUB SWAP1 JUMP JUMPDEST PUSH4 0x4E487B71 PUSH1 0xE0 SHL PUSH1 0x0 MSTORE PUSH1 0x32 PUSH1 0x4 MSTORE PUSH1 0x24 PUSH1 0x0 REVERT JUMPDEST PUSH1 0x0 PUSH1 0x20 DUP3 DUP5 SUB SLT ISZERO PUSH2 0xD0E JUMPI PUSH1 0x0 DUP1 REVERT JUMPDEST DUP2 MLOAD DUP1 ISZERO ISZERO DUP2 EQ PUSH2 0x67F JUMPI PUSH1 0x0 DUP1 REVERT JUMPDEST PUSH1 0x0 PUSH1 0x1 DUP3 ADD PUSH2 0xD30 JUMPI PUSH2 0xD30 PUSH2 0xCB9 JUMP JUMPDEST POP PUSH1 0x1 ADD SWAP1 JUMP JUMPDEST PUSH1 0x0 PUSH1 0x40 DUP3 ADD PUSH1 0x40 DUP4 MSTORE DUP1 DUP6 MLOAD DUP1 DUP4 MSTORE PUSH1 0x60 DUP6 ADD SWAP2 POP PUSH1 0x60 DUP2 PUSH1 0x5 SHL DUP7 ADD ADD SWAP3 POP PUSH1 0x20 DUP1 DUP9 ADD PUSH1 0x0 JUMPDEST DUP4 DUP2 LT ISZERO PUSH2 0xD8E JUMPI PUSH1 0x5F NOT DUP9 DUP8 SUB ADD DUP6 MSTORE PUSH2 0xD7C DUP7 DUP4 MLOAD PUSH2 0xC4B JUMP JUMPDEST SWAP6 POP SWAP4 DUP3 ADD SWAP4 SWAP1 DUP3 ADD SWAP1 PUSH1 0x1 ADD PUSH2 0xD60 JUMP JUMPDEST POP POP DUP6 DUP5 SUB DUP2 DUP8 ADD MSTORE POP POP POP PUSH2 0x18F DUP2 DUP6 PUSH2 0xC4B JUMP JUMPDEST PUSH1 0x0 PUSH1 0x20 DUP1 DUP4 DUP6 SUB SLT ISZERO PUSH2 0xDB7 JUMPI PUSH1 0x0 DUP1 REVERT JUMPDEST DUP3 MLOAD PUSH8 0xFFFFFFFFFFFFFFFF DUP1 DUP3 GT ISZERO PUSH2 0xDCF JUMPI PUSH1 0x0 DUP1 REVERT JUMPDEST DUP2 DUP6 ADD SWAP2 POP DUP6 PUSH1 0x1F DUP4 ADD SLT PUSH2 0xDE3 JUMPI PUSH1 0x0 DUP1 REVERT JUMPDEST DUP2 MLOAD DUP2 DUP2 GT ISZERO PUSH2 0xDF5 JUMPI PUSH2 0xDF5 PUSH2 0xA95 JUMP JUMPDEST DUP1 PUSH1 0x5 SHL PUSH2 0xE04 DUP6 DUP3 ADD PUSH2 0xAAB JUMP JUMPDEST SWAP2 DUP3 MSTORE DUP4 DUP2 ADD DUP6 ADD SWAP2 DUP6 DUP2 ADD SWAP1 DUP10 DUP5 GT ISZERO PUSH2 0xE1E JUMPI PUSH1 0x0 DUP1 REVERT JUMPDEST DUP7 DUP7 ADD SWAP3 POP JUMPDEST DUP4 DUP4 LT ISZERO PUSH2 0xE96 JUMPI DUP3 MLOAD DUP6 DUP2 GT ISZERO PUSH2 0xE3C JUMPI PUSH1 0x0 DUP1 DUP2 REVERT JUMPDEST DUP7 ADD PUSH1 0x3F DUP2 ADD DUP12 SGT PUSH2 0xE4E JUMPI PUSH1 0x0 DUP1 DUP2 REVERT JUMPDEST DUP8 DUP2 ADD MLOAD PUSH1 0x40 PUSH2 0xE60 PUSH2 0xB4C DUP4 PUSH2 0xADC JUMP JUMPDEST DUP3 DUP2 MSTORE DUP14 DUP3 DUP5 DUP7 ADD ADD GT ISZERO PUSH2 0xE75 JUMPI PUSH1 0x0 DUP1 DUP2 REVERT JUMPDEST PUSH2 0xE84 DUP4 DUP13 DUP4 ADD DUP5 DUP8 ADD PUSH2 0xC1B JUMP JUMPDEST DUP6 MSTORE POP POP POP SWAP2 DUP7 ADD SWAP2 SWAP1 DUP7 ADD SWAP1 PUSH2 0xE24 JUMP JUMPDEST SWAP10 SWAP9 POP POP POP POP POP POP POP POP POP JUMP JUMPDEST PUSH1 0x0 DUP3 NOT DUP3 GT ISZERO PUSH2 0xEB6 JUMPI PUSH2 0xEB6 PUSH2 0xCB9 JUMP JUMPDEST POP ADD SWAP1 JUMP INVALID LOG2 PUSH5 0x6970667358 0x22 SLT KECCAK256 0xA9 DUP2 SMOD SWAP6 PUSH23 0x56D467E88A5616B015B987C0D6F991EDB10320909B9860 0xB3 SWAP8 0xC8 0xBD PUSH5 0x736F6C6343 STOP ADDMOD 0xD STOP CALLER ",
  "sha1": "73f2706282dd4697b75ef64dbc49be8982761e5a",
  "source": "// SPDX-License-Identifier: MIT\n// Beef MarketPlace Contracts v0.0.0 hello@mcdu.com\n\npragma solidity ^0.8.0;\n\nimport \"./StringLib.sol\";\nimport \"./Keccak/KeccakInverter.sol\";\n\ncontract Alias is StringModifier {\n    using Array for bytes32[];\n    using StringLib for string;\n\n    KeccakInverter _keccak;\n\n    constructor(KeccakInverter keccak_) {\n        _keccak = keccak_;\n    }\n\n    struct Bytes32Array {\n        bytes32[] items;\n    }\n    struct AliasInfo {\n        bytes32[] parents;\n        bytes32 keccak;\n        bytes32[] childs;\n    }\n    mapping(bytes32 => AliasInfo) private _alias;\n\n    function getInfo(bytes32 id_) public view returns (AliasInfo memory info_) {\n        return _alias[id_];\n    }\n\n    /*function recurseGetParents(bytes32 id_, bytes32[] memory in_) private view returns (bytes32[] memory out_)\n    {\n        AliasInfo memory info =  getInfo(id_);\n        if (info.parents.length==0)\n            return in_;\n        out_ = new bytes32[](in_.length+1);\n        for (uint i;i<in_.length;i++)\n            out_[i]=in_[i];\n        out_[in_.length] = info.parent;\n        return out_;\n    }*/\n    /*function getParents(bytes32 id) public view returns (bytes32[] memory parents)\n    {\n        return recurseGetParents(id,new bytes32[](0));\n    }*/\n\n    function get(string memory idstring_)\n        public\n        pure\n        doesNotIncludes(idstring_, \"[:\", \"\\\\\")\n        returns (bytes32 id_)\n    {\n        return BytesAndKeccakLib.pureString(idstring_);\n    }\n\n    function exist(bytes32 id_) public view returns (bool) {\n        return _alias[id_].keccak == id_;\n    }\n\n    function register(string memory idstring_)\n        public\n        doesNotIncludes(idstring_, \"[\", \"\\\\\")\n        returns (bytes32 id_)\n    {\n        string[] memory subidstring = idstring_.split(\":\", \"\\\\\");\n        uint len = subidstring.length;\n        assert(len != 0);\n\n        bytes32 childid;\n        for (uint256 i; i < len; i++) {\n            string memory idstring = subidstring[len - 1 - i];\n            bytes32 id = get(idstring);\n            if (!exist(id)) _alias[id].keccak = _keccak.String(idstring);\n            if (childid != 0) {\n                _alias[id].childs.insert(childid);\n                _alias[childid].parents.insert(id);\n            }\n            childid = id;\n        }\n        id_ = get(subidstring[len - 1]);\n    }\n\n    //function getInfo(bytes32 id) public view returns (AliasInfo memory info)\n}\n",
  "sourcePath": "contracts/agnostic/Alias.sol",
  "type": "contract"
}