{
  "abi": [
    {
      "inputs": [
        {
          "internalType": "bool",
          "name": "bankeable_",
          "type": "bool"
        }
      ],
      "stateMutability": "nonpayable",
      "type": "constructor"
    },
    {
      "inputs": [],
      "name": "bankeable",
      "outputs": [
        {
          "internalType": "bool",
          "name": "",
          "type": "bool"
        }
      ],
      "stateMutability": "view",
      "type": "function"
    },
    {
      "inputs": [
        {
          "internalType": "bytes4",
          "name": "interfaceId",
          "type": "bytes4"
        }
      ],
      "name": "supportsInterface",
      "outputs": [
        {
          "internalType": "bool",
          "name": "",
          "type": "bool"
        }
      ],
      "stateMutability": "pure",
      "type": "function"
    }
  ],
  "bytecode": "60a060405234801561001057600080fd5b5060405161017038038061017083398101604081905261002f91610039565b1515608052610062565b60006020828403121561004b57600080fd5b8151801515811461005b57600080fd5b9392505050565b60805160f661007a6000396000606e015260f66000f3fe6080604052348015600f57600080fd5b506004361060325760003560e01c806301ffc9a7146037578063a0bb932314606c575b600080fd5b605860423660046091565b6001600160e01b03191663285116a160e21b1490565b604051901515815260200160405180910390f35b7f00000000000000000000000000000000000000000000000000000000000000006058565b60006020828403121560a257600080fd5b81356001600160e01b03198116811460b957600080fd5b939250505056fea26469706673582212205455fcd843e40ce65f228d2ccb35691d7af745875616fb1799dd338ab2b8a16164736f6c634300080d0033",
  "bytecodeSha1": "bfc783bc0e85922ce29be6728c312a3e86a0b6b1",
  "compiler": {
    "evm_version": "istanbul",
    "optimizer": {
      "enabled": true,
      "runs": 200
    },
    "version": "0.8.13+commit.abaa5c0e"
  },
  "contractName": "Bankeable",
  "language": "Solidity",
  "natspec": {
    "kind": "dev",
    "methods": {
      "supportsInterface(bytes4)": {
        "details": "Returns true if this contract implements the interface defined by `interfaceId`. See the corresponding https://eips.ethereum.org/EIPS/eip-165#how-interfaces-are-identified[EIP section] to learn more about how these ids are created. This function call must use less than 30 000 gas."
      }
    },
    "version": 1
  },
  "opcodes": "PUSH1 0x80 PUSH1 0x40 MSTORE CALLVALUE DUP1 ISZERO PUSH1 0xF JUMPI PUSH1 0x0 DUP1 REVERT JUMPDEST POP PUSH1 0x4 CALLDATASIZE LT PUSH1 0x32 JUMPI PUSH1 0x0 CALLDATALOAD PUSH1 0xE0 SHR DUP1 PUSH4 0x1FFC9A7 EQ PUSH1 0x37 JUMPI DUP1 PUSH4 0xA0BB9323 EQ PUSH1 0x6C JUMPI JUMPDEST PUSH1 0x0 DUP1 REVERT JUMPDEST PUSH1 0x58 PUSH1 0x42 CALLDATASIZE PUSH1 0x4 PUSH1 0x91 JUMP JUMPDEST PUSH1 0x1 PUSH1 0x1 PUSH1 0xE0 SHL SUB NOT AND PUSH4 0x285116A1 PUSH1 0xE2 SHL EQ SWAP1 JUMP JUMPDEST PUSH1 0x40 MLOAD SWAP1 ISZERO ISZERO DUP2 MSTORE PUSH1 0x20 ADD PUSH1 0x40 MLOAD DUP1 SWAP2 SUB SWAP1 RETURN JUMPDEST PUSH32 0x0 PUSH1 0x58 JUMP JUMPDEST PUSH1 0x0 PUSH1 0x20 DUP3 DUP5 SUB SLT ISZERO PUSH1 0xA2 JUMPI PUSH1 0x0 DUP1 REVERT JUMPDEST DUP2 CALLDATALOAD PUSH1 0x1 PUSH1 0x1 PUSH1 0xE0 SHL SUB NOT DUP2 AND DUP2 EQ PUSH1 0xB9 JUMPI PUSH1 0x0 DUP1 REVERT JUMPDEST SWAP4 SWAP3 POP POP POP JUMP INVALID LOG2 PUSH5 0x6970667358 0x22 SLT KECCAK256 SLOAD SSTORE 0xFC 0xD8 NUMBER 0xE4 0xC 0xE6 0x5F 0x22 DUP14 0x2C 0xCB CALLDATALOAD PUSH10 0x1D7AF745875616FB1799 0xDD CALLER DUP11 0xB2 0xB8 LOG1 PUSH2 0x6473 PUSH16 0x6C634300080D00330000000000000000 ",
  "sha1": "b4bcb5712ebb4b647d0072975977f993cbb4ff6d",
  "source": "// SPDX-License-Identifier: MIT\n// Beef MarketPlace Contracts v0.0.0 hello@mcdu.com\n\npragma solidity ^0.8.0;\nimport \"../../../interfaces/ITradeableAndIBankable.sol\";\n\ncontract Tradeable is ITradeable {\n    bool immutable _tradeable;\n    bool immutable _onlyWithCurrency;\n\n    function supportsInterface(bytes4 interfaceId)\n        external\n        pure\n        returns (bool)\n    {\n        return interfaceId == type(ITradeable).interfaceId;\n    }\n\n    constructor(bool tradeable_, bool onlyWithCurrency_) {\n        _tradeable = tradeable_;\n        _onlyWithCurrency = onlyWithCurrency_;\n    }\n\n    function tradeable() external view returns (bool) {\n        return _tradeable;\n    }\n\n    function onlyWithCurrency() external view returns (bool) {\n        return _onlyWithCurrency;\n    }\n}\n\ncontract Bankeable is IBankeable {\n    function supportsInterface(bytes4 interfaceId)\n        external\n        pure\n        returns (bool)\n    {\n        return interfaceId == type(IBankeable).interfaceId;\n    }\n\n    bool immutable _bankeable;\n\n    constructor(bool bankeable_) {\n        _bankeable = bankeable_;\n    }\n\n    function bankeable() external view returns (bool) {\n        return _bankeable;\n    }\n}\n",
  "sourcePath": "contracts/agnostic/Token/TradeableAndBankable.sol",
  "type": "contract"
}