{
  "abi": [
    {
      "inputs": [
        {
          "internalType": "contract Repository",
          "name": "rep_",
          "type": "address"
        }
      ],
      "stateMutability": "nonpayable",
      "type": "constructor"
    },
    {
      "anonymous": false,
      "inputs": [
        {
          "indexed": true,
          "internalType": "address",
          "name": "previousOwner",
          "type": "address"
        },
        {
          "indexed": true,
          "internalType": "address",
          "name": "newOwner",
          "type": "address"
        }
      ],
      "name": "OwnershipTransferred",
      "type": "event"
    },
    {
      "anonymous": false,
      "inputs": [
        {
          "indexed": true,
          "internalType": "bytes32",
          "name": "currency_",
          "type": "bytes32"
        },
        {
          "indexed": true,
          "internalType": "address",
          "name": "account_",
          "type": "address"
        },
        {
          "indexed": false,
          "internalType": "uint256",
          "name": "amount_",
          "type": "uint256"
        }
      ],
      "name": "Stacked",
      "type": "event"
    },
    {
      "anonymous": false,
      "inputs": [
        {
          "indexed": true,
          "internalType": "bytes32",
          "name": "currency_",
          "type": "bytes32"
        },
        {
          "indexed": true,
          "internalType": "address",
          "name": "from_",
          "type": "address"
        },
        {
          "indexed": true,
          "internalType": "address",
          "name": "to_",
          "type": "address"
        },
        {
          "indexed": false,
          "internalType": "uint256",
          "name": "amount_",
          "type": "uint256"
        }
      ],
      "name": "Transferred",
      "type": "event"
    },
    {
      "stateMutability": "nonpayable",
      "type": "fallback"
    },
    {
      "inputs": [],
      "name": "STOP",
      "outputs": [
        {
          "internalType": "bool",
          "name": "",
          "type": "bool"
        }
      ],
      "stateMutability": "view",
      "type": "function"
    },
    {
      "inputs": [],
      "name": "STOPFOREVER",
      "outputs": [
        {
          "internalType": "bool",
          "name": "",
          "type": "bool"
        }
      ],
      "stateMutability": "view",
      "type": "function"
    },
    {
      "inputs": [
        {
          "internalType": "uint256",
          "name": "val_",
          "type": "uint256"
        }
      ],
      "name": "UInt256ToUInt32",
      "outputs": [
        {
          "internalType": "uint32",
          "name": "",
          "type": "uint32"
        }
      ],
      "stateMutability": "pure",
      "type": "function"
    },
    {
      "inputs": [
        {
          "internalType": "uint256",
          "name": "val_",
          "type": "uint256"
        }
      ],
      "name": "UInt256ToUInt48",
      "outputs": [
        {
          "internalType": "uint48",
          "name": "",
          "type": "uint48"
        }
      ],
      "stateMutability": "pure",
      "type": "function"
    },
    {
      "inputs": [
        {
          "internalType": "uint256",
          "name": "val_",
          "type": "uint256"
        }
      ],
      "name": "UInt256ToUInt64",
      "outputs": [
        {
          "internalType": "uint64",
          "name": "",
          "type": "uint64"
        }
      ],
      "stateMutability": "pure",
      "type": "function"
    },
    {
      "inputs": [
        {
          "internalType": "uint32",
          "name": "val_",
          "type": "uint32"
        }
      ],
      "name": "UInt32ToUInt256",
      "outputs": [
        {
          "internalType": "uint256",
          "name": "",
          "type": "uint256"
        }
      ],
      "stateMutability": "pure",
      "type": "function"
    },
    {
      "inputs": [
        {
          "internalType": "uint48",
          "name": "val_",
          "type": "uint48"
        }
      ],
      "name": "UInt48ToUInt256",
      "outputs": [
        {
          "internalType": "uint256",
          "name": "",
          "type": "uint256"
        }
      ],
      "stateMutability": "pure",
      "type": "function"
    },
    {
      "inputs": [
        {
          "internalType": "uint64",
          "name": "val_",
          "type": "uint64"
        }
      ],
      "name": "UInt64ToUInt256",
      "outputs": [
        {
          "internalType": "uint256",
          "name": "",
          "type": "uint256"
        }
      ],
      "stateMutability": "pure",
      "type": "function"
    },
    {
      "inputs": [
        {
          "internalType": "bytes32",
          "name": "currency_",
          "type": "bytes32"
        },
        {
          "internalType": "address",
          "name": "account_",
          "type": "address"
        },
        {
          "internalType": "address",
          "name": "",
          "type": "address"
        },
        {
          "internalType": "uint256",
          "name": "amount__",
          "type": "uint256"
        }
      ],
      "name": "_allowanceAdd",
      "outputs": [],
      "stateMutability": "nonpayable",
      "type": "function"
    },
    {
      "inputs": [
        {
          "internalType": "bytes32",
          "name": "currency_",
          "type": "bytes32"
        },
        {
          "internalType": "address",
          "name": "account_",
          "type": "address"
        },
        {
          "internalType": "address",
          "name": "",
          "type": "address"
        },
        {
          "internalType": "uint256",
          "name": "amount__",
          "type": "uint256"
        }
      ],
      "name": "_allowanceSub",
      "outputs": [],
      "stateMutability": "nonpayable",
      "type": "function"
    },
    {
      "inputs": [
        {
          "internalType": "bytes32",
          "name": "currency_",
          "type": "bytes32"
        },
        {
          "internalType": "address",
          "name": "account_",
          "type": "address"
        },
        {
          "internalType": "address",
          "name": "",
          "type": "address"
        },
        {
          "internalType": "uint256",
          "name": "amount__",
          "type": "uint256"
        }
      ],
      "name": "_collateralAdd",
      "outputs": [],
      "stateMutability": "nonpayable",
      "type": "function"
    },
    {
      "inputs": [
        {
          "internalType": "bytes32",
          "name": "currency_",
          "type": "bytes32"
        },
        {
          "internalType": "address",
          "name": "account_",
          "type": "address"
        },
        {
          "internalType": "address",
          "name": "",
          "type": "address"
        },
        {
          "internalType": "uint256",
          "name": "amount__",
          "type": "uint256"
        }
      ],
      "name": "_collateralAllowanceAdd",
      "outputs": [],
      "stateMutability": "nonpayable",
      "type": "function"
    },
    {
      "inputs": [
        {
          "internalType": "bytes32",
          "name": "currency_",
          "type": "bytes32"
        },
        {
          "internalType": "address",
          "name": "account_",
          "type": "address"
        },
        {
          "internalType": "address",
          "name": "",
          "type": "address"
        },
        {
          "internalType": "uint256",
          "name": "amount__",
          "type": "uint256"
        }
      ],
      "name": "_collateralAllowanceSub",
      "outputs": [],
      "stateMutability": "nonpayable",
      "type": "function"
    },
    {
      "inputs": [
        {
          "internalType": "bytes32",
          "name": "currency_",
          "type": "bytes32"
        },
        {
          "internalType": "address",
          "name": "account_",
          "type": "address"
        },
        {
          "internalType": "address",
          "name": "",
          "type": "address"
        },
        {
          "internalType": "uint256",
          "name": "amount__",
          "type": "uint256"
        }
      ],
      "name": "_collateralSub",
      "outputs": [],
      "stateMutability": "nonpayable",
      "type": "function"
    },
    {
      "inputs": [
        {
          "internalType": "bytes32",
          "name": "currency_",
          "type": "bytes32"
        },
        {
          "internalType": "address",
          "name": "account_",
          "type": "address"
        },
        {
          "internalType": "address",
          "name": "",
          "type": "address"
        },
        {
          "internalType": "uint256",
          "name": "amount__",
          "type": "uint256"
        }
      ],
      "name": "_reserveAdd",
      "outputs": [],
      "stateMutability": "nonpayable",
      "type": "function"
    },
    {
      "inputs": [
        {
          "internalType": "bytes32",
          "name": "currency_",
          "type": "bytes32"
        },
        {
          "internalType": "address",
          "name": "account_",
          "type": "address"
        },
        {
          "internalType": "address",
          "name": "",
          "type": "address"
        },
        {
          "internalType": "uint256",
          "name": "amount__",
          "type": "uint256"
        }
      ],
      "name": "_reserveSub",
      "outputs": [],
      "stateMutability": "nonpayable",
      "type": "function"
    },
    {
      "inputs": [
        {
          "internalType": "bytes32",
          "name": "currency_",
          "type": "bytes32"
        },
        {
          "internalType": "address",
          "name": "accountfrom_",
          "type": "address"
        },
        {
          "internalType": "address",
          "name": "accountto_",
          "type": "address"
        },
        {
          "internalType": "uint256",
          "name": "amount__",
          "type": "uint256"
        }
      ],
      "name": "_transfer",
      "outputs": [],
      "stateMutability": "nonpayable",
      "type": "function"
    },
    {
      "inputs": [
        {
          "internalType": "bytes32",
          "name": "currency_",
          "type": "bytes32"
        },
        {
          "internalType": "address",
          "name": "account_",
          "type": "address"
        }
      ],
      "name": "account",
      "outputs": [
        {
          "components": [
            {
              "internalType": "uint256",
              "name": "_balance",
              "type": "uint256"
            },
            {
              "internalType": "uint256",
              "name": "_reserve",
              "type": "uint256"
            },
            {
              "internalType": "uint256",
              "name": "_collateral",
              "type": "uint256"
            },
            {
              "internalType": "uint256",
              "name": "_credit",
              "type": "uint256"
            },
            {
              "internalType": "uint256",
              "name": "_allowance",
              "type": "uint256"
            },
            {
              "internalType": "uint256",
              "name": "_collateralcredit",
              "type": "uint256"
            },
            {
              "internalType": "uint256",
              "name": "_collateralallowance",
              "type": "uint256"
            },
            {
              "internalType": "uint256",
              "name": "_available",
              "type": "uint256"
            },
            {
              "internalType": "uint256",
              "name": "_unstackable",
              "type": "uint256"
            },
            {
              "internalType": "uint256",
              "name": "_creditused",
              "type": "uint256"
            },
            {
              "internalType": "uint256",
              "name": "_creditavailable",
              "type": "uint256"
            }
          ],
          "internalType": "struct Bank.Account",
          "name": "acc_",
          "type": "tuple"
        }
      ],
      "stateMutability": "view",
      "type": "function"
    },
    {
      "inputs": [
        {
          "internalType": "bytes32",
          "name": "currency_",
          "type": "bytes32"
        },
        {
          "internalType": "address",
          "name": "account_",
          "type": "address"
        }
      ],
      "name": "available",
      "outputs": [
        {
          "internalType": "uint256",
          "name": "",
          "type": "uint256"
        }
      ],
      "stateMutability": "view",
      "type": "function"
    },
    {
      "inputs": [
        {
          "internalType": "uint256",
          "name": "granularity_",
          "type": "uint256"
        }
      ],
      "name": "granularity",
      "outputs": [
        {
          "internalType": "uint256",
          "name": "out_",
          "type": "uint256"
        }
      ],
      "stateMutability": "pure",
      "type": "function"
    },
    {
      "inputs": [
        {
          "internalType": "bytes32",
          "name": "tokenhash_",
          "type": "bytes32"
        }
      ],
      "name": "granularity",
      "outputs": [
        {
          "internalType": "uint256",
          "name": "",
          "type": "uint256"
        }
      ],
      "stateMutability": "view",
      "type": "function"
    },
    {
      "inputs": [],
      "name": "id",
      "outputs": [
        {
          "internalType": "bytes32",
          "name": "",
          "type": "bytes32"
        }
      ],
      "stateMutability": "view",
      "type": "function"
    },
    {
      "inputs": [
        {
          "internalType": "address",
          "name": "caller_",
          "type": "address"
        }
      ],
      "name": "isOwner",
      "outputs": [
        {
          "internalType": "bool",
          "name": "",
          "type": "bool"
        }
      ],
      "stateMutability": "view",
      "type": "function"
    },
    {
      "inputs": [],
      "name": "owner",
      "outputs": [
        {
          "internalType": "address",
          "name": "",
          "type": "address"
        }
      ],
      "stateMutability": "view",
      "type": "function"
    },
    {
      "inputs": [],
      "name": "renounceOwnership",
      "outputs": [],
      "stateMutability": "nonpayable",
      "type": "function"
    },
    {
      "inputs": [],
      "name": "rep",
      "outputs": [
        {
          "internalType": "contract Repository",
          "name": "",
          "type": "address"
        }
      ],
      "stateMutability": "view",
      "type": "function"
    },
    {
      "inputs": [],
      "name": "setSTOP",
      "outputs": [],
      "stateMutability": "nonpayable",
      "type": "function"
    },
    {
      "inputs": [],
      "name": "setSTOPFOREVER",
      "outputs": [],
      "stateMutability": "nonpayable",
      "type": "function"
    },
    {
      "inputs": [
        {
          "internalType": "address",
          "name": "token_",
          "type": "address"
        },
        {
          "internalType": "uint256",
          "name": "tokenid_",
          "type": "uint256"
        },
        {
          "internalType": "uint256",
          "name": "amount_",
          "type": "uint256"
        }
      ],
      "name": "stake",
      "outputs": [],
      "stateMutability": "payable",
      "type": "function"
    },
    {
      "inputs": [
        {
          "internalType": "address",
          "name": "token_",
          "type": "address"
        },
        {
          "internalType": "uint256",
          "name": "amount_",
          "type": "uint256"
        }
      ],
      "name": "stake",
      "outputs": [],
      "stateMutability": "payable",
      "type": "function"
    },
    {
      "inputs": [
        {
          "internalType": "bytes4",
          "name": "interfaceId",
          "type": "bytes4"
        }
      ],
      "name": "supportsInterface",
      "outputs": [
        {
          "internalType": "bool",
          "name": "",
          "type": "bool"
        }
      ],
      "stateMutability": "view",
      "type": "function"
    },
    {
      "inputs": [
        {
          "internalType": "address",
          "name": "token_",
          "type": "address"
        },
        {
          "internalType": "uint256",
          "name": "tokenid_",
          "type": "uint256"
        },
        {
          "internalType": "address",
          "name": "account_",
          "type": "address"
        },
        {
          "internalType": "uint256",
          "name": "amount_",
          "type": "uint256"
        }
      ],
      "name": "testStake",
      "outputs": [],
      "stateMutability": "nonpayable",
      "type": "function"
    },
    {
      "inputs": [
        {
          "internalType": "address",
          "name": "token_",
          "type": "address"
        },
        {
          "internalType": "address",
          "name": "account_",
          "type": "address"
        },
        {
          "internalType": "uint256",
          "name": "amount_",
          "type": "uint256"
        }
      ],
      "name": "testStake",
      "outputs": [],
      "stateMutability": "nonpayable",
      "type": "function"
    },
    {
      "inputs": [
        {
          "internalType": "address",
          "name": "token_",
          "type": "address"
        },
        {
          "internalType": "address",
          "name": "account_",
          "type": "address"
        },
        {
          "internalType": "uint256",
          "name": "amount_",
          "type": "uint256"
        }
      ],
      "name": "testUnstake",
      "outputs": [],
      "stateMutability": "nonpayable",
      "type": "function"
    },
    {
      "inputs": [
        {
          "internalType": "address",
          "name": "token_",
          "type": "address"
        },
        {
          "internalType": "uint256",
          "name": "tokenid_",
          "type": "uint256"
        },
        {
          "internalType": "address",
          "name": "account_",
          "type": "address"
        },
        {
          "internalType": "uint256",
          "name": "amount_",
          "type": "uint256"
        }
      ],
      "name": "testUnstake",
      "outputs": [],
      "stateMutability": "nonpayable",
      "type": "function"
    },
    {
      "inputs": [
        {
          "internalType": "address",
          "name": "newOwner",
          "type": "address"
        }
      ],
      "name": "transferOwnership",
      "outputs": [],
      "stateMutability": "nonpayable",
      "type": "function"
    },
    {
      "inputs": [],
      "name": "unsetSTOP",
      "outputs": [],
      "stateMutability": "nonpayable",
      "type": "function"
    },
    {
      "inputs": [
        {
          "internalType": "address",
          "name": "token_",
          "type": "address"
        },
        {
          "internalType": "uint256",
          "name": "tokenid_",
          "type": "uint256"
        },
        {
          "internalType": "uint256",
          "name": "amount_",
          "type": "uint256"
        }
      ],
      "name": "unstake",
      "outputs": [],
      "stateMutability": "nonpayable",
      "type": "function"
    },
    {
      "inputs": [
        {
          "internalType": "address",
          "name": "token_",
          "type": "address"
        },
        {
          "internalType": "uint256",
          "name": "amount_",
          "type": "uint256"
        }
      ],
      "name": "unstake",
      "outputs": [],
      "stateMutability": "nonpayable",
      "type": "function"
    }
  ],
  "bytecode": "60a06040523480156200001157600080fd5b50604051620047b7380380620047b78339810160408190526200003491620000ae565b80620000403362000053565b6001600160a01b031660805250620000e0565b600080546001600160a01b038381166201000081810262010000600160b01b0319851617855560405193049190911692909183917f8be0079c531659141344cd1fd0a4f28419497f9722a3daafe3b4186f6b6457e091a35050565b600060208284031215620000c157600080fd5b81516001600160a01b0381168114620000d957600080fd5b9392505050565b6080516145e2620001d56000396000818161071d015281816108b00152818161094e01528181610dda01528181610e5a0152818161113e0152818161139f015281816114af0152818161167c0152818161188301528181611a1601528181611cc601528181611dc201528181611fac015281816120ca0152818161224501528181612a3401528181612ad501528181612bfb01528181613194015281816135e10152818161383b01528181613923015281816139b101528181613ac901528181613b6a01528181613bfe01528181613c8c01528181613e8f01528181613f3001528181614001015261408f01526145e26000f3fe6080604052600436106102305760003560e01c8063979620761161012e578063d2919113116100ab578063f0174fe51161006f578063f0174fe5146107d4578063f28e5a25146107f4578063f29cc2e514610814578063f2fde38b14610834578063feab44541461085457610230565b8063d29191131461073f578063d69358581461075f578063e4b1614414610774578063e7c2501214610794578063e8211a30146107b457610230565b8063adc9772e116100f2578063adc9772e14610685578063af640d0f14610698578063b03fd40d146106cb578063c2a672e0146106eb578063ccc079591461070b57610230565b806397962076146105e857806398528baf146106055780639cd1e41e14610625578063a2bc66be14610645578063a9bf98581461066557610230565b8063715018a6116101bc578063807b7b4411610180578063807b7b441461053b578063854ba99d1461055b5780638da5cb5b1461057057806392f5b253146105a8578063954c62bc146105c857610230565b8063715018a6146104a357806372ea61bf146104b857806378d75276146104cd5780637a5c0e9a146104ed5780637af6649a1461050d57610230565b80631c9619a7116102035780631c9619a7146103c15780632203616d146103e15780632f54bf6e1461041657806356a1fd3a1461044b578063629651411461046b57610230565b806301ffc9a7146102bf57806305d6bd9c146102f45780630867a4f3146103095780630c51b88f146103ae575b34801561023c57600080fd5b5061024561088b565b6000610255602460043684614199565b8080601f016020809104026020016040519081016040528093929190818152602001838380828437600092018290525060208501519495509250503660231981019150601f19016004838037816024600437600080826000875af4925050506102bd81610a55565b005b3480156102cb57600080fd5b506102df6102da3660046141c3565b610a6f565b60405190151581526020015b60405180910390f35b34801561030057600080fd5b506102bd610aa6565b34801561031557600080fd5b50610329610324366004614202565b610abd565b6040516102eb9190600061016082019050825182526020830151602083015260408301516040830152606083015160608301526080830151608083015260a083015160a083015260c083015160c083015260e083015160e083015261010080840151818401525061012080840151818401525061014080840151818401525092915050565b6102bd6103bc366004614232565b610d3a565b3480156103cd57600080fd5b506102bd6103dc366004614267565b610d6f565b3480156103ed57600080fd5b506104016103fc3660046142af565b6110ef565b60405163ffffffff90911681526020016102eb565b34801561042257600080fd5b506102df6104313660046142c8565b6000546201000090046001600160a01b0390811691161490565b34801561045757600080fd5b506102bd610466366004614267565b611100565b34801561047757600080fd5b5061048b6104863660046142af565b61133f565b6040516001600160401b0390911681526020016102eb565b3480156104af57600080fd5b506102bd611371565b3480156104c457600080fd5b506102bd611383565b3480156104d957600080fd5b506102bd6104e83660046142e5565b61139d565b3480156104f957600080fd5b506102bd610508366004614267565b611471565b34801561051957600080fd5b5061052d61052836600461431d565b6115e0565b6040519081526020016102eb565b34801561054757600080fd5b5061052d6105563660046142af565b6115f9565b34801561056757600080fd5b506102df611620565b34801561057c57600080fd5b506000546201000090046001600160a01b03165b6040516001600160a01b0390911681526020016102eb565b3480156105b457600080fd5b506102bd6105c3366004614267565b61163e565b3480156105d457600080fd5b506102bd6105e3366004614267565b611845565b3480156105f457600080fd5b50600054610100900460ff166102df565b34801561061157600080fd5b506102bd610620366004614267565b6119d8565b34801561063157600080fd5b5061052d610640366004614202565b611c7e565b34801561065157600080fd5b506102bd610660366004614232565b611c94565b34801561067157600080fd5b5061052d6106803660046142af565b611ca1565b6102bd610693366004614345565b611d31565b3480156106a457600080fd5b507fcd775f2396f9f13f12bcf8ca32e21df66559a8adc3944d0591127e7731f7ab8561052d565b3480156106d757600080fd5b5061052d6106e6366004614371565b611d5e565b3480156106f757600080fd5b506102bd610706366004614345565b611d78565b34801561071757600080fd5b506105907f000000000000000000000000000000000000000000000000000000000000000081565b34801561074b57600080fd5b506102bd61075a366004614267565b611d84565b34801561076b57600080fd5b506102bd611f77565b34801561078057600080fd5b5061052d61078f36600461439a565b611f93565b3480156107a057600080fd5b506102bd6107af3660046143c0565b611faa565b3480156107c057600080fd5b506102bd6107cf3660046143c0565b61207f565b3480156107e057600080fd5b506102bd6107ef366004614267565b61208c565b34801561080057600080fd5b506102bd61080f3660046142e5565b6121fb565b34801561082057600080fd5b506102bd61082f366004614267565b612207565b34801561084057600080fd5b506102bd61084f3660046142c8565b612378565b34801561086057600080fd5b5061087461086f3660046142af565b6123f1565b60405165ffffffffffff90911681526020016102eb565b6000546001600160a01b03620100009091041633148061093e57506001600160a01b037f0000000000000000000000000000000000000000000000000000000000000000166316279055336040516001600160e01b031960e084901b1681526001600160a01b039091166004820152602401602060405180830381865afa15801561091a573d6000803e3d6000fd5b505050506040513d601f19601f8201168201806040525081019061093e9190614401565b806109dc57506001600160a01b037f000000000000000000000000000000000000000000000000000000000000000016636d70f7ae336040516001600160e01b031960e084901b1681526001600160a01b039091166004820152602401602060405180830381865afa1580156109b8573d6000803e3d6000fd5b505050506040513d601f19601f820116820180604052508101906109dc9190614401565b610a535760405162461bcd60e51b815260206004820152603960248201527f416c6c6f77616e63653a2063616c6c6572206d757374206265205265706f736960448201527f746f727920436f6e7472616374206f72204f70657261746f720000000000000060648201526084015b60405180910390fd5b565b3d6000803e808015610a66573d6000f35b3d6000fd5b5050565b60006001600160e01b031982166301ffc9a760e01b1480610aa057506001600160e01b031982166315d3789560e31b145b92915050565b610aae61088b565b610a536000805460ff19169055565b610b1a60405180610160016040528060008152602001600081526020016000815260200160008152602001600081526020016000815260200160008152602001600081526020016000815260200160008152602001600081525090565b60006004600073__BytesAndKeccakLib_____________________631eb650e787876040518363ffffffff1660e01b8152600401610b59929190614423565b602060405180830381865af4158015610b76573d6000803e3d6000fd5b505050506040513d601f19601f82011682018060405250810190610b9a919061443a565b815260208101919091526040016000208054909150600160c01b900460ff161580610bcd5750336001600160a01b038416145b610c0d5760405162461bcd60e51b81526020600482015260116024820152704163636f756e74206973206f706171756560781b6044820152606401610a4a565b8054610c21906001600160401b0316611d5e565b82528054610c3e90600160401b90046001600160401b0316611d5e565b60208301528054610c5e90600160801b90046001600160401b0316611d5e565b60408301526001810154610c7a906001600160401b0316611d5e565b60608301526001810154610c9d90600160401b90046001600160401b0316611d5e565b60808301526001810154610cc090600160801b90046001600160401b0316611d5e565b60a08301526001810154610ce390600160c01b90046001600160401b0316611d5e565b60c0830152610cf56106e68585612402565b60e0830152610d076106e68585612558565b610100830152610d1a6106e685856126d9565b610120830152610d2d6106e6858561280c565b6101408301525092915050565b6001600160a01b03831615610d5657610d568383335b846129af565b3415610d6a57610d6a600080335b346129af565b505050565b610d77612ab0565b6000610d828261133f565b9050806001600160401b0316600003610d9b57506110e9565b610da3611620565b15610dc05760405162461bcd60e51b8152600401610a4a90614453565b604051635768bbb560e01b81526000906001600160a01b037f00000000000000000000000000000000000000000000000000000000000000001690635768bbb590610e119089908990600401614423565b6020604051808303816000875af1158015610e30573d6000803e3d6000fd5b505050506040513d601f19601f82011682018060405250810190610e54919061443a565b905060007f00000000000000000000000000000000000000000000000000000000000000006001600160a01b0316635768bbb588876040518363ffffffff1660e01b8152600401610ea6929190614423565b6020604051808303816000875af1158015610ec5573d6000803e3d6000fd5b505050506040513d601f19601f82011682018060405250810190610ee9919061443a565b9050610ef58787612402565b6001600160401b0316836001600160401b03161115610f665760405162461bcd60e51b815260206004820152602760248201527f657263323020617661696c61626c65285f6163636f756e7466726f6d29203c2060448201526617d85b5bdd5b9d60ca1b6064820152608401610a4a565b6040516316f4b92960e21b815273__Array_________________________________90635bd2e4a490610fa0906001908990600401614423565b602060405180830381865af4158015610fbd573d6000803e3d6000fd5b505050506040513d601f19601f82011682018060405250810190610fe19190614401565b50610ff58787610ff086611d5e565b612bc5565b611008878661100386611d5e565b61315e565b600082815260046020526040902054600160c01b900460ff1615806110435750600081815260046020526040902054600160c01b900460ff16155b156110e557600081815260046020526040902054600160c01b900460ff1661106b578461106e565b60005b6000838152600460205260409020546001600160a01b039190911690600160c01b900460ff1661109e57866110a1565b60005b6001600160a01b0316887f4cafe8c90c0e3a2fa8da6fa1827b31ff8be7d9efb7f85b110c3481ad9b36beff876040516110dc91815260200190565b60405180910390a45b5050505b50505050565b6000610aa064e8d4a5100083614493565b611108612ab0565b60006111138261133f565b90506001600160401b0381161561133857604051635768bbb560e01b81526000906001600160a01b037f00000000000000000000000000000000000000000000000000000000000000001690635768bbb5906111759089908990600401614423565b6020604051808303816000875af1158015611194573d6000803e3d6000fd5b505050506040513d601f19601f820116820180604052508101906111b8919061443a565b600081815260046020908152604091829020825160c08101845281546001600160401b03808216838701908152600160401b8084048316606080870191909152600160801b808604851660808089019190915260ff600160c01b9788900416151560a089015293875289519384018a52600190970154808516845291820484168389015295810483169782019790975291909504851692810192909252918201528051519293509184821691161015611273576112736144b5565b82816000015160200181815161128991906144cb565b6001600160401b0316905250805180518491906112a79083906144f6565b6001600160401b0390811690915282516000858152600460209081526040918290208351815492850151938501516060909501511515600160c01b0260ff60c01b19958716600160801b029590951668ffffffffffffffffff60801b19948716600160401b026001600160801b03199094169190961617919091179190911692909217179055506110e587876135dc565b5050505050565b6000806113516402540be40084614493565b905082611363826402540be40061451e565b1115610aa057610aa06144b5565b6113796136fa565b610a53600061375b565b61138b61088b565b610a536000805460ff19166001179055565b7f00000000000000000000000000000000000000000000000000000000000000006001600160a01b0316634635229b6040518163ffffffff1660e01b8152600401602060405180830381865afa1580156113fb573d6000803e3d6000fd5b505050506040513d601f19601f8201168201806040525081019061141f9190614401565b6114655760405162461bcd60e51b81526020600482015260176024820152764d75737420626520696e204d6f64652054657374696e6760481b6044820152606401610a4a565b6110e9848484846129af565b611479612ab0565b60006114848261133f565b90506001600160401b0381161561133857604051635768bbb560e01b81526000906001600160a01b037f00000000000000000000000000000000000000000000000000000000000000001690635768bbb5906114e69089908990600401614423565b6020604051808303816000875af1158015611505573d6000803e3d6000fd5b505050506040513d601f19601f82011682018060405250810190611529919061443a565b600081815260046020908152604091829020825160c08101845281546001600160401b03808216838701908152600160401b8084048316606080870191909152600160801b808604851660808089019190915260ff600160c01b9788900416151560a089015293875289519384018a526001909701548085168452918204841683890152958104831682890152929092041692810192909252918201528051909101805192935090918491906112a79083906144cb565b6000610aa065ffffffffffff831664174876e80061451e565b60006116076106e68361133f565b90508060000361161b57610aa06001611d5e565b919050565b6000805460ff16806116395750600054610100900460ff165b905090565b611646612ab0565b60006116518261133f565b90506001600160401b0381161561133857604051635768bbb560e01b81526000906001600160a01b037f00000000000000000000000000000000000000000000000000000000000000001690635768bbb5906116b39089908990600401614423565b6020604051808303816000875af11580156116d2573d6000803e3d6000fd5b505050506040513d601f19601f820116820180604052508101906116f6919061443a565b600081815260046020908152604091829020825160c08101845281546001600160401b03808216838701908152600160401b8084048316606080870191909152600160801b808604851660808089019190915260ff600160c01b9788900416151560a089015293875289519384018a5260019097015480851684529182048416838901908152968204841698830198909852929092041694810194909452918201929092528151929350918491906117af9083906144f6565b6001600160401b0390811690915260208084015160008681526004835260409081902082516001909101805494840151928401516060909401518616600160c01b026001600160c01b03948716600160801b02949094166001600160801b03938716600160401b026001600160801b03199096169290961691909117939093171692909217919091179055506110e587876135dc565b61184d612ab0565b60006118588261133f565b90506001600160401b0381161561133857604051635768bbb560e01b81526000906001600160a01b037f00000000000000000000000000000000000000000000000000000000000000001690635768bbb5906118ba9089908990600401614423565b6020604051808303816000875af11580156118d9573d6000803e3d6000fd5b505050506040513d601f19601f820116820180604052508101906118fd919061443a565b600081815260046020908152604091829020825160c08101845281546001600160401b03808216838701908152600160401b8084048316606080870191909152600160801b808604851660808089019190915260ff600160c01b9788900416151560a089015293875289519384018a526001909701548085168452918204841683890152958104831697820197909752919095049094169184019190915280820192909252815101805192935090918491906119ba9083906144f6565b6001600160401b0316905250805180518491906112a79083906144cb565b6119e0612ab0565b60006119eb8261133f565b90506001600160401b0381161561133857604051635768bbb560e01b81526000906001600160a01b037f00000000000000000000000000000000000000000000000000000000000000001690635768bbb590611a4d9089908990600401614423565b6020604051808303816000875af1158015611a6c573d6000803e3d6000fd5b505050506040513d601f19601f82011682018060405250810190611a90919061443a565b600081815260046020908152604091829020825160c08101845281546001600160401b03808216838701908152600160401b8084048316606080870191909152600160801b808604851660808089019190915260ff600160c01b9788900416151560a089015293875289519384018a5260019097015480851684529182048416838901529581048316978201979097529190950490941691840191825291820192909252815192935091849190611b489083906144cb565b6001600160401b0390811690915260208301515116159050611bf45760208101516040810151606090910151600091611b80916144f6565b9050806001600160401b03168260200151600001516001600160401b03161015611bac57506020810151515b808260200151600001818151611bc291906144f6565b6001600160401b031690525060208201516040018051829190611be69083906144cb565b6001600160401b0316905250505b60208082015160008481526004835260409081902082516001909101805494840151928401516060909401516001600160401b03908116600160c01b026001600160c01b03958216600160801b02959095166001600160801b03948216600160401b026001600160801b031990971691909316179490941791909116171790556110e587876135dc565b6000611c8d6106e68484612402565b9392505050565b610d6a8383335b846137b6565b604051631537f30b60e31b815260048101829052600090610aa0906001600160a01b037f0000000000000000000000000000000000000000000000000000000000000000169063a9bf985890602401602060405180830381865afa158015611d0d573d6000803e3d6000fd5b505050506040513d601f19601f82011682018060405250810190610556919061443a565b6001600160a01b03821615611d4c57611d4c82600033610d50565b3415610a6b57610a6b60008033610d64565b6000610aa06001600160401b0383166402540be40061451e565b610a6b82600033611c9b565b611d8c612ab0565b6000611d978261133f565b90506001600160401b0381161561133857604051635768bbb560e01b81526000906001600160a01b037f00000000000000000000000000000000000000000000000000000000000000001690635768bbb590611df99089908990600401614423565b6020604051808303816000875af1158015611e18573d6000803e3d6000fd5b505050506040513d601f19601f82011682018060405250810190611e3c919061443a565b600081815260046020908152604091829020825160c08101845281546001600160401b03808216838701908152600160401b8084048316606080870191909152600160801b808604851660808089019190915260ff600160c01b9788900416151560a089015293875289519384018a5260019097015480851684529182048416838901529581048316978201979097529190950490941691840191825291820192909252815192935091849190611ef49083906144f6565b6001600160401b0390811690915260208301516060810151604090910151908216911611159050611bf45760208101516060810151604090910151600091611f3b916144f6565b9050808260200151600001818151611f5391906144cb565b6001600160401b031690525060208201516040018051829190611be69083906144f6565b611f7f6136fa565b610a536000805461ff001916610100179055565b6000610aa063ffffffff831664e8d4a5100061451e565b7f00000000000000000000000000000000000000000000000000000000000000006001600160a01b0316634635229b6040518163ffffffff1660e01b8152600401602060405180830381865afa158015612008573d6000803e3d6000fd5b505050506040513d601f19601f8201168201806040525081019061202c9190614401565b6120725760405162461bcd60e51b81526020600482015260176024820152764d75737420626520696e204d6f64652054657374696e6760481b6044820152606401610a4a565b610d6a83600084846129af565b610d6a83600084846137b6565b612094612ab0565b600061209f8261133f565b90506001600160401b0381161561133857604051635768bbb560e01b81526000906001600160a01b037f00000000000000000000000000000000000000000000000000000000000000001690635768bbb5906121019089908990600401614423565b6020604051808303816000875af1158015612120573d6000803e3d6000fd5b505050506040513d601f19601f82011682018060405250810190612144919061443a565b600081815260046020908152604091829020825160c08101845281546001600160401b03808216838701908152600160401b8084048316606080870191909152600160801b808604851660808089019190915260ff600160c01b9788900416151560a089015293875289519384018a526001909701548085168452918204841683890152958104831682890152929092041692810192909252918201528051909101805192935090918491906112a79083906144f6565b6110e9848484846137b6565b61220f612ab0565b600061221a8261133f565b90506001600160401b0381161561133857604051635768bbb560e01b81526000906001600160a01b037f00000000000000000000000000000000000000000000000000000000000000001690635768bbb59061227c9089908990600401614423565b6020604051808303816000875af115801561229b573d6000803e3d6000fd5b505050506040513d601f19601f820116820180604052508101906122bf919061443a565b600081815260046020908152604091829020825160c08101845281546001600160401b03808216838701908152600160401b8084048316606080870191909152600160801b808604851660808089019190915260ff600160c01b9788900416151560a089015293875289519384018a5260019097015480851684529182048416838901908152968204841698830198909852929092041694810194909452918201929092528151929350918491906117af9083906144cb565b6123806136fa565b6001600160a01b0381166123e55760405162461bcd60e51b815260206004820152602660248201527f4f776e61626c653a206e6577206f776e657220697320746865207a65726f206160448201526564647265737360d01b6064820152608401610a4a565b6123ee8161375b565b50565b6000610aa064174876e80083614493565b6000806004600073__BytesAndKeccakLib_____________________631eb650e787876040518363ffffffff1660e01b8152600401612442929190614423565b602060405180830381865af415801561245f573d6000803e3d6000fd5b505050506040513d601f19601f82011682018060405250810190612483919061443a565b81526020808201929092526040908101600020815160c08101835281546001600160401b03808216838601908152600160401b8084048316606080870191909152600160801b808604851660808089019190915260ff600160c01b978890048116151560a08a015294885289519081018a5260019098015480861689529283048516888b015282048416978701979097529290920416938301939093529283015260035491925016156125395751519050610aa0565b612543848461280c565b81515161255091906144cb565b949350505050565b6000806004600073__BytesAndKeccakLib_____________________631eb650e787876040518363ffffffff1660e01b8152600401612598929190614423565b602060405180830381865af41580156125b5573d6000803e3d6000fd5b505050506040513d601f19601f820116820180604052508101906125d9919061443a565b815260208082019290925260409081016000908120825160c08101845281546001600160401b03808216838701908152600160401b8084048316606080870191909152600160801b808604851660808089019190915260ff600160c01b9788900416151560a089015293875289519384018a5260019097015480851684529182048416838b015295810483169782019790975291909504909416918401919091529283019190915290915061268e85856126d9565b6001600160401b031611806126b75750805180516040909101516001600160401b039182169116115b156126c6576000915050610aa0565b80516040810151905161255091906144f6565b6000806004600073__BytesAndKeccakLib_____________________631eb650e787876040518363ffffffff1660e01b8152600401612719929190614423565b602060405180830381865af4158015612736573d6000803e3d6000fd5b505050506040513d601f19601f8201168201806040525081019061275a919061443a565b81526020808201929092526040908101600020815160c08101835281546001600160401b03808216838601908152600160401b8084048316606080870191909152600160801b808604851660808089019190915260ff600160c01b9788900416151560a08901529387528851938401895260019097015480851684529182048416838a0152958104831696820196875292909204169281019290925292830181905290519051919250612550916144cb565b60035460009060ff161561282257506000610aa0565b60006004600073__BytesAndKeccakLib_____________________631eb650e787876040518363ffffffff1660e01b8152600401612861929190614423565b602060405180830381865af415801561287e573d6000803e3d6000fd5b505050506040513d601f19601f820116820180604052508101906128a2919061443a565b81526020808201929092526040908101600020815160c08101835281546001600160401b03808216838601908152600160401b8084048316606080870191909152600160801b808604851660808089019190915260ff600160c01b9788900416151560a08901529387528851938401895260019097015480851684529182048416838a0190815296820484169783019790975292909204169381019384529381019390935290519051919250612957916144cb565b6001600160401b031661296a85856126d9565b6001600160401b03161115612983576000915050610aa0565b61298d84846126d9565b60208083015160608101519101516129a591906144cb565b61255091906144f6565b6001600160a01b0384161515806129c4575082155b612a0b5760405162461bcd60e51b8152602060048201526018602482015277043757272656e637920697320616464726573732830292c360441b6044820152606401610a4a565b60405163509ff69b60e01b81526001600160a01b038581166004830152602482018590526000917f00000000000000000000000000000000000000000000000000000000000000009091169063509ff69b906044016020604051808303816000875af1158015612a7f573d6000803e3d6000fd5b505050506040513d601f19601f82011682018060405250810190612aa3919061443a565b90506113388184846138b7565b6000546001600160a01b036201000090910416331480612b6357506001600160a01b037f0000000000000000000000000000000000000000000000000000000000000000166316279055336040516001600160e01b031960e084901b1681526001600160a01b039091166004820152602401602060405180830381865afa158015612b3f573d6000803e3d6000fd5b505050506040513d601f19601f82011682018060405250810190612b639190614401565b610a535760405162461bcd60e51b815260206004820152602d60248201527f416c6c6f77616e63653a2063616c6c6572206d757374206265205265706f736960448201526c1d1bdc9e4810dbdb9d1c9858dd609a1b6064820152608401610a4a565b6000612bd08261133f565b90506001600160401b038116156110e957604051635768bbb560e01b81526000906001600160a01b037f00000000000000000000000000000000000000000000000000000000000000001690635768bbb590612c329088908890600401614423565b6020604051808303816000875af1158015612c51573d6000803e3d6000fd5b505050506040513d601f19601f82011682018060405250810190612c75919061443a565b600081815260046020908152604091829020825160c08101845281546001600160401b03808216838701908152600160401b8084048316606080870191909152600160801b808604851660808089019190915260ff600160c01b978890048116151560a08a01529488528a519081018b5260019098015480861689529283048516888a01528204841698870198909852929092041694830194909452918201526003549293509116158015612d525750826001600160401b0316612d39878761280c565b825151612d4691906144cb565b6001600160401b031610155b80612d78575060035460ff168015612d7857508051516001600160401b03808516911610155b612dd35760405162461bcd60e51b815260206004820152602660248201527f4e6f7420656e6f756768742062616c616e63654f662f63726564697420616c6c6044820152656f77616e636560d01b6064820152608401610a4a565b8051516000906001600160401b039081169085161115612e7257815151600090612dfd90866144f6565b90506000836020015160400151846020015160600151612e1d91906144f6565b9050806001600160401b0316826001600160401b03161115612e3d578091505b818460200151604001818151612e5391906144cb565b6001600160401b0316905250612e6982876144f6565b95506001925050505b8151516000906001600160401b039081169086161115612f0c57825151600090612e9c90876144f6565b6020808601518051910151919250600091612eb791906144f6565b9050806001600160401b0316826001600160401b03161115612ed7578091505b818560200151600001818151612eed91906144cb565b6001600160401b0316905250612f0382886144f6565b96506001925050505b60006001600160401b03861615612f405783518051879190612f2f9083906144f6565b6001600160401b0316905250600190505b8180612f495750825b8015612f53575080155b15612fdd5760208085015160008781526004835260409081902082516001909101805494840151928401516060909401516001600160401b03908116600160c01b026001600160c01b03958216600160801b02959095166001600160801b03948216600160401b026001600160801b03199097169190931617949094179190911617179055613149565b81158015612fe9575082155b8015612ff25750805b1561307c5783516000868152600460209081526040918290208351815492850151938501516060909501511515600160c01b0260ff60c01b196001600160401b03968716600160801b021668ffffffffffffffffff60801b19958716600160401b026001600160801b03199095169690921695909517929092179290921617919091179055613149565b60008581526004602090815260409182902086518051825482850151838701516060948501516001600160401b039485166001600160801b031994851617600160401b93861684021768ffffffffffffffffff60801b1916600160801b928616830260ff60c01b191617600160c01b91151582021787558c880151805160019098018054998201519a82015191909701519786169890941697909717978416909102969096176001600160801b03169082169095026001600160c01b031694909417919093169091021790555b61315389896135dc565b505050505050505050565b60006131698261133f565b90506001600160401b038116156110e957604051635768bbb560e01b81526000906001600160a01b037f00000000000000000000000000000000000000000000000000000000000000001690635768bbb5906131cb9088908890600401614423565b6020604051808303816000875af11580156131ea573d6000803e3d6000fd5b505050506040513d601f19601f8201168201806040525081019061320e919061443a565b6000818152600460209081526040808320815160c08101835281546001600160401b03808216838601908152600160401b8084048316606080870191909152600160801b808604851660808089019190915260ff600160c01b9788900416151560a08901529387528851938401895260019097015480851684529182048416838a0152958104831696820196909652919094048416928101929092529283018190525193945090921615613380576020820151516001600160401b0380861691161061332c578382602001516000018181516132ea91906144f6565b6001600160401b03169052506132ff84611d5e565b6000888152600260205260408120805490919061331d90849061453d565b909155506000945061337c9050565b60208201515161333c90856144f6565b935061334f826020015160000151611d5e565b6000888152600260205260408120805490919061336d90849061453d565b90915550506020820151600090525b5060015b6020820151604001516000906001600160401b03161561346e57846001600160401b03168360200151604001516001600160401b031610613413578483602001516040018181516133d191906144f6565b6001600160401b03169052506133e685611d5e565b6000898152600260205260408120805490919061340490849061453d565b909155506000955061346a9050565b60208301516040015161342690866144f6565b9450613439836020015160400151611d5e565b6000898152600260205260408120805490919061345790849061453d565b9091555050602083015160006040909101525b5060015b60006001600160401b038616156134a257835180518791906134919083906144cb565b6001600160401b0316905250600190505b82806134ab5750815b80156134b5575080155b1561353f5760208085015160008781526004835260409081902082516001909101805494840151928401516060909401516001600160401b03908116600160c01b026001600160c01b03958216600160801b02959095166001600160801b03948216600160401b026001600160801b03199097169190931617949094179190911617179055613149565b82158015612fe9575081158015612ff25750801561307c5783516000868152600460209081526040918290208351815492850151938501516060909501511515600160c01b0260ff60c01b196001600160401b03968716600160801b021668ffffffffffffffffff60801b19958716600160401b026001600160801b03199095169690921695909517929092179290921617919091179055613149565b6000807f00000000000000000000000000000000000000000000000000000000000000006001600160a01b03167f2737b530ab33d91025e8bd75ac76d6f8c285330aacc740150191541ae845c5a8858560405160240161363d929190614423565b60408051601f198184030181529181526020820180516001600160e01b03166001600160e01b031990941693909317909252905161367b9190614554565b6000604051808303816000865af19150503d80600081146136b8576040519150601f19603f3d011682016040523d82523d6000602084013e6136bd565b606091505b5091509150816110e95760405162461bcd60e51b815260206004820152600860248201526717d8da185b99d95960c21b6044820152606401610a4a565b6000546001600160a01b0362010000909104163314610a535760405162461bcd60e51b815260206004820152601f60248201527f416c6c6f77616e63653a2063616c6c6572206d757374206265204f776e6572006044820152606401610a4a565b600080546001600160a01b038381166201000081810262010000600160b01b0319851617855560405193049190911692909183917f8be0079c531659141344cd1fd0a4f28419497f9722a3daafe3b4186f6b6457e091a35050565b6001600160a01b0384161515806137cb575082155b6138125760405162461bcd60e51b8152602060048201526018602482015277043757272656e637920697320616464726573732830292c360441b6044820152606401610a4a565b60405163509ff69b60e01b81526001600160a01b038581166004830152602482018590526000917f00000000000000000000000000000000000000000000000000000000000000009091169063509ff69b906044016020604051808303816000875af1158015613886573d6000803e3d6000fd5b505050506040513d601f19601f820116820180604052508101906138aa919061443a565b9050611338818484613e1c565b60006138c28261133f565b9050806001600160401b03166000036138db5750505050565b6138e3611620565b156139005760405162461bcd60e51b8152600401610a4a90614453565b60405163c33470d360e01b81526004810185905263285116a160e21b60248201527f00000000000000000000000000000000000000000000000000000000000000006001600160a01b03169063c33470d390604401602060405180830381865afa158015613972573d6000803e3d6000fd5b505050506040513d601f19601f820116820180604052508101906139969190614401565b15613ac757604051630c25e48360e11b8152600481018590527f00000000000000000000000000000000000000000000000000000000000000006001600160a01b03169063184bc90690602401602060405180830381865afa158015613a00573d6000803e3d6000fd5b505050506040513d601f19601f82011682018060405250810190613a24919061458f565b6001600160a01b031663a0bb93236040518163ffffffff1660e01b8152600401602060405180830381865afa158015613a61573d6000803e3d6000fd5b505050506040513d601f19601f82011682018060405250810190613a859190614401565b613ac75760405162461bcd60e51b8152602060048201526013602482015272546f6b656e206e6f742062616e6b6561626c6560681b6044820152606401610a4a565b7f00000000000000000000000000000000000000000000000000000000000000006001600160a01b0316634635229b6040518163ffffffff1660e01b8152600401602060405180830381865afa158015613b25573d6000803e3d6000fd5b505050506040513d601f19601f82011682018060405250810190613b499190614401565b613d925760405163a663d4f560e01b815260048101859052600160248201527f00000000000000000000000000000000000000000000000000000000000000006001600160a01b03169063a663d4f590604401602060405180830381865afa158015613bb9573d6000803e3d6000fd5b505050506040513d601f19601f82011682018060405250810190613bdd9190614401565b613d925760405163a663d4f560e01b815260048101859052600260248201527f00000000000000000000000000000000000000000000000000000000000000006001600160a01b03169063a663d4f590604401602060405180830381865afa158015613c4d573d6000803e3d6000fd5b505050506040513d601f19601f82011682018060405250810190613c719190614401565b15613d9257604051630c25e48360e11b8152600481018590527f00000000000000000000000000000000000000000000000000000000000000006001600160a01b03169063184bc90690602401602060405180830381865afa158015613cdb573d6000803e3d6000fd5b505050506040513d601f19601f82011682018060405250810190613cff919061458f565b6001600160a01b03166323b872dd8430613d1885611d5e565b6040516001600160e01b031960e086901b1681526001600160a01b03938416600482015292909116602483015260448201526064016020604051808303816000875af1158015613d6c573d6000803e3d6000fd5b505050506040513d601f19601f82011682018060405250810190613d909190614401565b505b6040516316f4b92960e21b815273__Array_________________________________90635bd2e4a490613dcc906001908790600401614423565b602060405180830381865af4158015613de9573d6000803e3d6000fd5b505050506040513d601f19601f82011682018060405250810190613e0d9190614401565b506110e9848461100384611d5e565b6000613e278261133f565b9050806001600160401b0316600003613e405750505050565b613e48611620565b15613e655760405162461bcd60e51b8152600401610a4a90614453565b806001600160401b0316613e798585612558565b6001600160401b03161015613e8d57600080fd5b7f00000000000000000000000000000000000000000000000000000000000000006001600160a01b0316634635229b6040518163ffffffff1660e01b8152600401602060405180830381865afa158015613eeb573d6000803e3d6000fd5b505050506040513d601f19601f82011682018060405250810190613f0f9190614401565b61418b5760405163a663d4f560e01b815260048101859052600160248201527f00000000000000000000000000000000000000000000000000000000000000006001600160a01b03169063a663d4f590604401602060405180830381865afa158015613f7f573d6000803e3d6000fd5b505050506040513d601f19601f82011682018060405250810190613fa39190614401565b15613fe4576040516001600160a01b0384169083156108fc029084906000818181858888f19350505050158015613fde573d6000803e3d6000fd5b5061418b565b60405163a663d4f560e01b815260048101859052600260248201527f00000000000000000000000000000000000000000000000000000000000000006001600160a01b03169063a663d4f590604401602060405180830381865afa158015614050573d6000803e3d6000fd5b505050506040513d601f19601f820116820180604052508101906140749190614401565b1561418b57604051630c25e48360e11b8152600481018590527f00000000000000000000000000000000000000000000000000000000000000006001600160a01b03169063184bc90690602401602060405180830381865afa1580156140de573d6000803e3d6000fd5b505050506040513d601f19601f82011682018060405250810190614102919061458f565b6001600160a01b031663a9059cbb8461411a84611d5e565b6040516001600160e01b031960e085901b1681526001600160a01b03909216600483015260248201526044016020604051808303816000875af1158015614165573d6000803e3d6000fd5b505050506040513d601f19601f820116820180604052508101906141899190614401565b505b6110e98484610ff084611d5e565b600080858511156141a957600080fd5b838611156141b657600080fd5b5050820193919092039150565b6000602082840312156141d557600080fd5b81356001600160e01b031981168114611c8d57600080fd5b6001600160a01b03811681146123ee57600080fd5b6000806040838503121561421557600080fd5b823591506020830135614227816141ed565b809150509250929050565b60008060006060848603121561424757600080fd5b8335614252816141ed565b95602085013595506040909401359392505050565b6000806000806080858703121561427d57600080fd5b84359350602085013561428f816141ed565b9250604085013561429f816141ed565b9396929550929360600135925050565b6000602082840312156142c157600080fd5b5035919050565b6000602082840312156142da57600080fd5b8135611c8d816141ed565b600080600080608085870312156142fb57600080fd5b8435614306816141ed565b935060208501359250604085013561429f816141ed565b60006020828403121561432f57600080fd5b813565ffffffffffff81168114611c8d57600080fd5b6000806040838503121561435857600080fd5b8235614363816141ed565b946020939093013593505050565b60006020828403121561438357600080fd5b81356001600160401b0381168114611c8d57600080fd5b6000602082840312156143ac57600080fd5b813563ffffffff81168114611c8d57600080fd5b6000806000606084860312156143d557600080fd5b83356143e0816141ed565b925060208401356143f0816141ed565b929592945050506040919091013590565b60006020828403121561441357600080fd5b81518015158114611c8d57600080fd5b9182526001600160a01b0316602082015260400190565b60006020828403121561444c57600080fd5b5051919050565b60208082526010908201526f10dbdb9d1c9858dd081cdd1bdc1c195960821b604082015260600190565b634e487b7160e01b600052601160045260246000fd5b6000826144b057634e487b7160e01b600052601260045260246000fd5b500490565b634e487b7160e01b600052600160045260246000fd5b60006001600160401b038083168185168083038211156144ed576144ed61447d565b01949350505050565b60006001600160401b03838116908316818110156145165761451661447d565b039392505050565b60008160001904831182151516156145385761453861447d565b500290565b60008282101561454f5761454f61447d565b500390565b6000825160005b81811015614575576020818601810151858301520161455b565b81811115614584576000828501525b509190910192915050565b6000602082840312156145a157600080fd5b8151611c8d816141ed56fea2646970667358221220e5555ed990b182abb089470c95b84a8eeae6483a10c6434e316062d352847bc464736f6c634300080d0033",
  "bytecodeSha1": "c8e985b6dd6806723819a9d1a6f2341efa1f7727",
  "compiler": {
    "evm_version": "istanbul",
    "optimizer": {
      "enabled": true,
      "runs": 200
    },
    "version": "0.8.13+commit.abaa5c0e"
  },
  "contractName": "Bank",
  "deployedBytecode": "6080604052600436106102305760003560e01c8063979620761161012e578063d2919113116100ab578063f0174fe51161006f578063f0174fe5146107d4578063f28e5a25146107f4578063f29cc2e514610814578063f2fde38b14610834578063feab44541461085457610230565b8063d29191131461073f578063d69358581461075f578063e4b1614414610774578063e7c2501214610794578063e8211a30146107b457610230565b8063adc9772e116100f2578063adc9772e14610685578063af640d0f14610698578063b03fd40d146106cb578063c2a672e0146106eb578063ccc079591461070b57610230565b806397962076146105e857806398528baf146106055780639cd1e41e14610625578063a2bc66be14610645578063a9bf98581461066557610230565b8063715018a6116101bc578063807b7b4411610180578063807b7b441461053b578063854ba99d1461055b5780638da5cb5b1461057057806392f5b253146105a8578063954c62bc146105c857610230565b8063715018a6146104a357806372ea61bf146104b857806378d75276146104cd5780637a5c0e9a146104ed5780637af6649a1461050d57610230565b80631c9619a7116102035780631c9619a7146103c15780632203616d146103e15780632f54bf6e1461041657806356a1fd3a1461044b578063629651411461046b57610230565b806301ffc9a7146102bf57806305d6bd9c146102f45780630867a4f3146103095780630c51b88f146103ae575b34801561023c57600080fd5b5061024561088b565b6000610255602460043684614199565b8080601f016020809104026020016040519081016040528093929190818152602001838380828437600092018290525060208501519495509250503660231981019150601f19016004838037816024600437600080826000875af4925050506102bd81610a55565b005b3480156102cb57600080fd5b506102df6102da3660046141c3565b610a6f565b60405190151581526020015b60405180910390f35b34801561030057600080fd5b506102bd610aa6565b34801561031557600080fd5b50610329610324366004614202565b610abd565b6040516102eb9190600061016082019050825182526020830151602083015260408301516040830152606083015160608301526080830151608083015260a083015160a083015260c083015160c083015260e083015160e083015261010080840151818401525061012080840151818401525061014080840151818401525092915050565b6102bd6103bc366004614232565b610d3a565b3480156103cd57600080fd5b506102bd6103dc366004614267565b610d6f565b3480156103ed57600080fd5b506104016103fc3660046142af565b6110ef565b60405163ffffffff90911681526020016102eb565b34801561042257600080fd5b506102df6104313660046142c8565b6000546201000090046001600160a01b0390811691161490565b34801561045757600080fd5b506102bd610466366004614267565b611100565b34801561047757600080fd5b5061048b6104863660046142af565b61133f565b6040516001600160401b0390911681526020016102eb565b3480156104af57600080fd5b506102bd611371565b3480156104c457600080fd5b506102bd611383565b3480156104d957600080fd5b506102bd6104e83660046142e5565b61139d565b3480156104f957600080fd5b506102bd610508366004614267565b611471565b34801561051957600080fd5b5061052d61052836600461431d565b6115e0565b6040519081526020016102eb565b34801561054757600080fd5b5061052d6105563660046142af565b6115f9565b34801561056757600080fd5b506102df611620565b34801561057c57600080fd5b506000546201000090046001600160a01b03165b6040516001600160a01b0390911681526020016102eb565b3480156105b457600080fd5b506102bd6105c3366004614267565b61163e565b3480156105d457600080fd5b506102bd6105e3366004614267565b611845565b3480156105f457600080fd5b50600054610100900460ff166102df565b34801561061157600080fd5b506102bd610620366004614267565b6119d8565b34801561063157600080fd5b5061052d610640366004614202565b611c7e565b34801561065157600080fd5b506102bd610660366004614232565b611c94565b34801561067157600080fd5b5061052d6106803660046142af565b611ca1565b6102bd610693366004614345565b611d31565b3480156106a457600080fd5b507fcd775f2396f9f13f12bcf8ca32e21df66559a8adc3944d0591127e7731f7ab8561052d565b3480156106d757600080fd5b5061052d6106e6366004614371565b611d5e565b3480156106f757600080fd5b506102bd610706366004614345565b611d78565b34801561071757600080fd5b506105907f000000000000000000000000000000000000000000000000000000000000000081565b34801561074b57600080fd5b506102bd61075a366004614267565b611d84565b34801561076b57600080fd5b506102bd611f77565b34801561078057600080fd5b5061052d61078f36600461439a565b611f93565b3480156107a057600080fd5b506102bd6107af3660046143c0565b611faa565b3480156107c057600080fd5b506102bd6107cf3660046143c0565b61207f565b3480156107e057600080fd5b506102bd6107ef366004614267565b61208c565b34801561080057600080fd5b506102bd61080f3660046142e5565b6121fb565b34801561082057600080fd5b506102bd61082f366004614267565b612207565b34801561084057600080fd5b506102bd61084f3660046142c8565b612378565b34801561086057600080fd5b5061087461086f3660046142af565b6123f1565b60405165ffffffffffff90911681526020016102eb565b6000546001600160a01b03620100009091041633148061093e57506001600160a01b037f0000000000000000000000000000000000000000000000000000000000000000166316279055336040516001600160e01b031960e084901b1681526001600160a01b039091166004820152602401602060405180830381865afa15801561091a573d6000803e3d6000fd5b505050506040513d601f19601f8201168201806040525081019061093e9190614401565b806109dc57506001600160a01b037f000000000000000000000000000000000000000000000000000000000000000016636d70f7ae336040516001600160e01b031960e084901b1681526001600160a01b039091166004820152602401602060405180830381865afa1580156109b8573d6000803e3d6000fd5b505050506040513d601f19601f820116820180604052508101906109dc9190614401565b610a535760405162461bcd60e51b815260206004820152603960248201527f416c6c6f77616e63653a2063616c6c6572206d757374206265205265706f736960448201527f746f727920436f6e7472616374206f72204f70657261746f720000000000000060648201526084015b60405180910390fd5b565b3d6000803e808015610a66573d6000f35b3d6000fd5b5050565b60006001600160e01b031982166301ffc9a760e01b1480610aa057506001600160e01b031982166315d3789560e31b145b92915050565b610aae61088b565b610a536000805460ff19169055565b610b1a60405180610160016040528060008152602001600081526020016000815260200160008152602001600081526020016000815260200160008152602001600081526020016000815260200160008152602001600081525090565b60006004600073__$669c6e0eba2465bd6779ea6ec5db3af1b5$__631eb650e787876040518363ffffffff1660e01b8152600401610b59929190614423565b602060405180830381865af4158015610b76573d6000803e3d6000fd5b505050506040513d601f19601f82011682018060405250810190610b9a919061443a565b815260208101919091526040016000208054909150600160c01b900460ff161580610bcd5750336001600160a01b038416145b610c0d5760405162461bcd60e51b81526020600482015260116024820152704163636f756e74206973206f706171756560781b6044820152606401610a4a565b8054610c21906001600160401b0316611d5e565b82528054610c3e90600160401b90046001600160401b0316611d5e565b60208301528054610c5e90600160801b90046001600160401b0316611d5e565b60408301526001810154610c7a906001600160401b0316611d5e565b60608301526001810154610c9d90600160401b90046001600160401b0316611d5e565b60808301526001810154610cc090600160801b90046001600160401b0316611d5e565b60a08301526001810154610ce390600160c01b90046001600160401b0316611d5e565b60c0830152610cf56106e68585612402565b60e0830152610d076106e68585612558565b610100830152610d1a6106e685856126d9565b610120830152610d2d6106e6858561280c565b6101408301525092915050565b6001600160a01b03831615610d5657610d568383335b846129af565b3415610d6a57610d6a600080335b346129af565b505050565b610d77612ab0565b6000610d828261133f565b9050806001600160401b0316600003610d9b57506110e9565b610da3611620565b15610dc05760405162461bcd60e51b8152600401610a4a90614453565b604051635768bbb560e01b81526000906001600160a01b037f00000000000000000000000000000000000000000000000000000000000000001690635768bbb590610e119089908990600401614423565b6020604051808303816000875af1158015610e30573d6000803e3d6000fd5b505050506040513d601f19601f82011682018060405250810190610e54919061443a565b905060007f00000000000000000000000000000000000000000000000000000000000000006001600160a01b0316635768bbb588876040518363ffffffff1660e01b8152600401610ea6929190614423565b6020604051808303816000875af1158015610ec5573d6000803e3d6000fd5b505050506040513d601f19601f82011682018060405250810190610ee9919061443a565b9050610ef58787612402565b6001600160401b0316836001600160401b03161115610f665760405162461bcd60e51b815260206004820152602760248201527f657263323020617661696c61626c65285f6163636f756e7466726f6d29203c2060448201526617d85b5bdd5b9d60ca1b6064820152608401610a4a565b6040516316f4b92960e21b815273__$f71e59c5327218924d154e230469c101bd$__90635bd2e4a490610fa0906001908990600401614423565b602060405180830381865af4158015610fbd573d6000803e3d6000fd5b505050506040513d601f19601f82011682018060405250810190610fe19190614401565b50610ff58787610ff086611d5e565b612bc5565b611008878661100386611d5e565b61315e565b600082815260046020526040902054600160c01b900460ff1615806110435750600081815260046020526040902054600160c01b900460ff16155b156110e557600081815260046020526040902054600160c01b900460ff1661106b578461106e565b60005b6000838152600460205260409020546001600160a01b039190911690600160c01b900460ff1661109e57866110a1565b60005b6001600160a01b0316887f4cafe8c90c0e3a2fa8da6fa1827b31ff8be7d9efb7f85b110c3481ad9b36beff876040516110dc91815260200190565b60405180910390a45b5050505b50505050565b6000610aa064e8d4a5100083614493565b611108612ab0565b60006111138261133f565b90506001600160401b0381161561133857604051635768bbb560e01b81526000906001600160a01b037f00000000000000000000000000000000000000000000000000000000000000001690635768bbb5906111759089908990600401614423565b6020604051808303816000875af1158015611194573d6000803e3d6000fd5b505050506040513d601f19601f820116820180604052508101906111b8919061443a565b600081815260046020908152604091829020825160c08101845281546001600160401b03808216838701908152600160401b8084048316606080870191909152600160801b808604851660808089019190915260ff600160c01b9788900416151560a089015293875289519384018a52600190970154808516845291820484168389015295810483169782019790975291909504851692810192909252918201528051519293509184821691161015611273576112736144b5565b82816000015160200181815161128991906144cb565b6001600160401b0316905250805180518491906112a79083906144f6565b6001600160401b0390811690915282516000858152600460209081526040918290208351815492850151938501516060909501511515600160c01b0260ff60c01b19958716600160801b029590951668ffffffffffffffffff60801b19948716600160401b026001600160801b03199094169190961617919091179190911692909217179055506110e587876135dc565b5050505050565b6000806113516402540be40084614493565b905082611363826402540be40061451e565b1115610aa057610aa06144b5565b6113796136fa565b610a53600061375b565b61138b61088b565b610a536000805460ff19166001179055565b7f00000000000000000000000000000000000000000000000000000000000000006001600160a01b0316634635229b6040518163ffffffff1660e01b8152600401602060405180830381865afa1580156113fb573d6000803e3d6000fd5b505050506040513d601f19601f8201168201806040525081019061141f9190614401565b6114655760405162461bcd60e51b81526020600482015260176024820152764d75737420626520696e204d6f64652054657374696e6760481b6044820152606401610a4a565b6110e9848484846129af565b611479612ab0565b60006114848261133f565b90506001600160401b0381161561133857604051635768bbb560e01b81526000906001600160a01b037f00000000000000000000000000000000000000000000000000000000000000001690635768bbb5906114e69089908990600401614423565b6020604051808303816000875af1158015611505573d6000803e3d6000fd5b505050506040513d601f19601f82011682018060405250810190611529919061443a565b600081815260046020908152604091829020825160c08101845281546001600160401b03808216838701908152600160401b8084048316606080870191909152600160801b808604851660808089019190915260ff600160c01b9788900416151560a089015293875289519384018a526001909701548085168452918204841683890152958104831682890152929092041692810192909252918201528051909101805192935090918491906112a79083906144cb565b6000610aa065ffffffffffff831664174876e80061451e565b60006116076106e68361133f565b90508060000361161b57610aa06001611d5e565b919050565b6000805460ff16806116395750600054610100900460ff165b905090565b611646612ab0565b60006116518261133f565b90506001600160401b0381161561133857604051635768bbb560e01b81526000906001600160a01b037f00000000000000000000000000000000000000000000000000000000000000001690635768bbb5906116b39089908990600401614423565b6020604051808303816000875af11580156116d2573d6000803e3d6000fd5b505050506040513d601f19601f820116820180604052508101906116f6919061443a565b600081815260046020908152604091829020825160c08101845281546001600160401b03808216838701908152600160401b8084048316606080870191909152600160801b808604851660808089019190915260ff600160c01b9788900416151560a089015293875289519384018a5260019097015480851684529182048416838901908152968204841698830198909852929092041694810194909452918201929092528151929350918491906117af9083906144f6565b6001600160401b0390811690915260208084015160008681526004835260409081902082516001909101805494840151928401516060909401518616600160c01b026001600160c01b03948716600160801b02949094166001600160801b03938716600160401b026001600160801b03199096169290961691909117939093171692909217919091179055506110e587876135dc565b61184d612ab0565b60006118588261133f565b90506001600160401b0381161561133857604051635768bbb560e01b81526000906001600160a01b037f00000000000000000000000000000000000000000000000000000000000000001690635768bbb5906118ba9089908990600401614423565b6020604051808303816000875af11580156118d9573d6000803e3d6000fd5b505050506040513d601f19601f820116820180604052508101906118fd919061443a565b600081815260046020908152604091829020825160c08101845281546001600160401b03808216838701908152600160401b8084048316606080870191909152600160801b808604851660808089019190915260ff600160c01b9788900416151560a089015293875289519384018a526001909701548085168452918204841683890152958104831697820197909752919095049094169184019190915280820192909252815101805192935090918491906119ba9083906144f6565b6001600160401b0316905250805180518491906112a79083906144cb565b6119e0612ab0565b60006119eb8261133f565b90506001600160401b0381161561133857604051635768bbb560e01b81526000906001600160a01b037f00000000000000000000000000000000000000000000000000000000000000001690635768bbb590611a4d9089908990600401614423565b6020604051808303816000875af1158015611a6c573d6000803e3d6000fd5b505050506040513d601f19601f82011682018060405250810190611a90919061443a565b600081815260046020908152604091829020825160c08101845281546001600160401b03808216838701908152600160401b8084048316606080870191909152600160801b808604851660808089019190915260ff600160c01b9788900416151560a089015293875289519384018a5260019097015480851684529182048416838901529581048316978201979097529190950490941691840191825291820192909252815192935091849190611b489083906144cb565b6001600160401b0390811690915260208301515116159050611bf45760208101516040810151606090910151600091611b80916144f6565b9050806001600160401b03168260200151600001516001600160401b03161015611bac57506020810151515b808260200151600001818151611bc291906144f6565b6001600160401b031690525060208201516040018051829190611be69083906144cb565b6001600160401b0316905250505b60208082015160008481526004835260409081902082516001909101805494840151928401516060909401516001600160401b03908116600160c01b026001600160c01b03958216600160801b02959095166001600160801b03948216600160401b026001600160801b031990971691909316179490941791909116171790556110e587876135dc565b6000611c8d6106e68484612402565b9392505050565b610d6a8383335b846137b6565b604051631537f30b60e31b815260048101829052600090610aa0906001600160a01b037f0000000000000000000000000000000000000000000000000000000000000000169063a9bf985890602401602060405180830381865afa158015611d0d573d6000803e3d6000fd5b505050506040513d601f19601f82011682018060405250810190610556919061443a565b6001600160a01b03821615611d4c57611d4c82600033610d50565b3415610a6b57610a6b60008033610d64565b6000610aa06001600160401b0383166402540be40061451e565b610a6b82600033611c9b565b611d8c612ab0565b6000611d978261133f565b90506001600160401b0381161561133857604051635768bbb560e01b81526000906001600160a01b037f00000000000000000000000000000000000000000000000000000000000000001690635768bbb590611df99089908990600401614423565b6020604051808303816000875af1158015611e18573d6000803e3d6000fd5b505050506040513d601f19601f82011682018060405250810190611e3c919061443a565b600081815260046020908152604091829020825160c08101845281546001600160401b03808216838701908152600160401b8084048316606080870191909152600160801b808604851660808089019190915260ff600160c01b9788900416151560a089015293875289519384018a5260019097015480851684529182048416838901529581048316978201979097529190950490941691840191825291820192909252815192935091849190611ef49083906144f6565b6001600160401b0390811690915260208301516060810151604090910151908216911611159050611bf45760208101516060810151604090910151600091611f3b916144f6565b9050808260200151600001818151611f5391906144cb565b6001600160401b031690525060208201516040018051829190611be69083906144f6565b611f7f6136fa565b610a536000805461ff001916610100179055565b6000610aa063ffffffff831664e8d4a5100061451e565b7f00000000000000000000000000000000000000000000000000000000000000006001600160a01b0316634635229b6040518163ffffffff1660e01b8152600401602060405180830381865afa158015612008573d6000803e3d6000fd5b505050506040513d601f19601f8201168201806040525081019061202c9190614401565b6120725760405162461bcd60e51b81526020600482015260176024820152764d75737420626520696e204d6f64652054657374696e6760481b6044820152606401610a4a565b610d6a83600084846129af565b610d6a83600084846137b6565b612094612ab0565b600061209f8261133f565b90506001600160401b0381161561133857604051635768bbb560e01b81526000906001600160a01b037f00000000000000000000000000000000000000000000000000000000000000001690635768bbb5906121019089908990600401614423565b6020604051808303816000875af1158015612120573d6000803e3d6000fd5b505050506040513d601f19601f82011682018060405250810190612144919061443a565b600081815260046020908152604091829020825160c08101845281546001600160401b03808216838701908152600160401b8084048316606080870191909152600160801b808604851660808089019190915260ff600160c01b9788900416151560a089015293875289519384018a526001909701548085168452918204841683890152958104831682890152929092041692810192909252918201528051909101805192935090918491906112a79083906144f6565b6110e9848484846137b6565b61220f612ab0565b600061221a8261133f565b90506001600160401b0381161561133857604051635768bbb560e01b81526000906001600160a01b037f00000000000000000000000000000000000000000000000000000000000000001690635768bbb59061227c9089908990600401614423565b6020604051808303816000875af115801561229b573d6000803e3d6000fd5b505050506040513d601f19601f820116820180604052508101906122bf919061443a565b600081815260046020908152604091829020825160c08101845281546001600160401b03808216838701908152600160401b8084048316606080870191909152600160801b808604851660808089019190915260ff600160c01b9788900416151560a089015293875289519384018a5260019097015480851684529182048416838901908152968204841698830198909852929092041694810194909452918201929092528151929350918491906117af9083906144cb565b6123806136fa565b6001600160a01b0381166123e55760405162461bcd60e51b815260206004820152602660248201527f4f776e61626c653a206e6577206f776e657220697320746865207a65726f206160448201526564647265737360d01b6064820152608401610a4a565b6123ee8161375b565b50565b6000610aa064174876e80083614493565b6000806004600073__$669c6e0eba2465bd6779ea6ec5db3af1b5$__631eb650e787876040518363ffffffff1660e01b8152600401612442929190614423565b602060405180830381865af415801561245f573d6000803e3d6000fd5b505050506040513d601f19601f82011682018060405250810190612483919061443a565b81526020808201929092526040908101600020815160c08101835281546001600160401b03808216838601908152600160401b8084048316606080870191909152600160801b808604851660808089019190915260ff600160c01b978890048116151560a08a015294885289519081018a5260019098015480861689529283048516888b015282048416978701979097529290920416938301939093529283015260035491925016156125395751519050610aa0565b612543848461280c565b81515161255091906144cb565b949350505050565b6000806004600073__$669c6e0eba2465bd6779ea6ec5db3af1b5$__631eb650e787876040518363ffffffff1660e01b8152600401612598929190614423565b602060405180830381865af41580156125b5573d6000803e3d6000fd5b505050506040513d601f19601f820116820180604052508101906125d9919061443a565b815260208082019290925260409081016000908120825160c08101845281546001600160401b03808216838701908152600160401b8084048316606080870191909152600160801b808604851660808089019190915260ff600160c01b9788900416151560a089015293875289519384018a5260019097015480851684529182048416838b015295810483169782019790975291909504909416918401919091529283019190915290915061268e85856126d9565b6001600160401b031611806126b75750805180516040909101516001600160401b039182169116115b156126c6576000915050610aa0565b80516040810151905161255091906144f6565b6000806004600073__$669c6e0eba2465bd6779ea6ec5db3af1b5$__631eb650e787876040518363ffffffff1660e01b8152600401612719929190614423565b602060405180830381865af4158015612736573d6000803e3d6000fd5b505050506040513d601f19601f8201168201806040525081019061275a919061443a565b81526020808201929092526040908101600020815160c08101835281546001600160401b03808216838601908152600160401b8084048316606080870191909152600160801b808604851660808089019190915260ff600160c01b9788900416151560a08901529387528851938401895260019097015480851684529182048416838a0152958104831696820196875292909204169281019290925292830181905290519051919250612550916144cb565b60035460009060ff161561282257506000610aa0565b60006004600073__$669c6e0eba2465bd6779ea6ec5db3af1b5$__631eb650e787876040518363ffffffff1660e01b8152600401612861929190614423565b602060405180830381865af415801561287e573d6000803e3d6000fd5b505050506040513d601f19601f820116820180604052508101906128a2919061443a565b81526020808201929092526040908101600020815160c08101835281546001600160401b03808216838601908152600160401b8084048316606080870191909152600160801b808604851660808089019190915260ff600160c01b9788900416151560a08901529387528851938401895260019097015480851684529182048416838a0190815296820484169783019790975292909204169381019384529381019390935290519051919250612957916144cb565b6001600160401b031661296a85856126d9565b6001600160401b03161115612983576000915050610aa0565b61298d84846126d9565b60208083015160608101519101516129a591906144cb565b61255091906144f6565b6001600160a01b0384161515806129c4575082155b612a0b5760405162461bcd60e51b8152602060048201526018602482015277043757272656e637920697320616464726573732830292c360441b6044820152606401610a4a565b60405163509ff69b60e01b81526001600160a01b038581166004830152602482018590526000917f00000000000000000000000000000000000000000000000000000000000000009091169063509ff69b906044016020604051808303816000875af1158015612a7f573d6000803e3d6000fd5b505050506040513d601f19601f82011682018060405250810190612aa3919061443a565b90506113388184846138b7565b6000546001600160a01b036201000090910416331480612b6357506001600160a01b037f0000000000000000000000000000000000000000000000000000000000000000166316279055336040516001600160e01b031960e084901b1681526001600160a01b039091166004820152602401602060405180830381865afa158015612b3f573d6000803e3d6000fd5b505050506040513d601f19601f82011682018060405250810190612b639190614401565b610a535760405162461bcd60e51b815260206004820152602d60248201527f416c6c6f77616e63653a2063616c6c6572206d757374206265205265706f736960448201526c1d1bdc9e4810dbdb9d1c9858dd609a1b6064820152608401610a4a565b6000612bd08261133f565b90506001600160401b038116156110e957604051635768bbb560e01b81526000906001600160a01b037f00000000000000000000000000000000000000000000000000000000000000001690635768bbb590612c329088908890600401614423565b6020604051808303816000875af1158015612c51573d6000803e3d6000fd5b505050506040513d601f19601f82011682018060405250810190612c75919061443a565b600081815260046020908152604091829020825160c08101845281546001600160401b03808216838701908152600160401b8084048316606080870191909152600160801b808604851660808089019190915260ff600160c01b978890048116151560a08a01529488528a519081018b5260019098015480861689529283048516888a01528204841698870198909852929092041694830194909452918201526003549293509116158015612d525750826001600160401b0316612d39878761280c565b825151612d4691906144cb565b6001600160401b031610155b80612d78575060035460ff168015612d7857508051516001600160401b03808516911610155b612dd35760405162461bcd60e51b815260206004820152602660248201527f4e6f7420656e6f756768742062616c616e63654f662f63726564697420616c6c6044820152656f77616e636560d01b6064820152608401610a4a565b8051516000906001600160401b039081169085161115612e7257815151600090612dfd90866144f6565b90506000836020015160400151846020015160600151612e1d91906144f6565b9050806001600160401b0316826001600160401b03161115612e3d578091505b818460200151604001818151612e5391906144cb565b6001600160401b0316905250612e6982876144f6565b95506001925050505b8151516000906001600160401b039081169086161115612f0c57825151600090612e9c90876144f6565b6020808601518051910151919250600091612eb791906144f6565b9050806001600160401b0316826001600160401b03161115612ed7578091505b818560200151600001818151612eed91906144cb565b6001600160401b0316905250612f0382886144f6565b96506001925050505b60006001600160401b03861615612f405783518051879190612f2f9083906144f6565b6001600160401b0316905250600190505b8180612f495750825b8015612f53575080155b15612fdd5760208085015160008781526004835260409081902082516001909101805494840151928401516060909401516001600160401b03908116600160c01b026001600160c01b03958216600160801b02959095166001600160801b03948216600160401b026001600160801b03199097169190931617949094179190911617179055613149565b81158015612fe9575082155b8015612ff25750805b1561307c5783516000868152600460209081526040918290208351815492850151938501516060909501511515600160c01b0260ff60c01b196001600160401b03968716600160801b021668ffffffffffffffffff60801b19958716600160401b026001600160801b03199095169690921695909517929092179290921617919091179055613149565b60008581526004602090815260409182902086518051825482850151838701516060948501516001600160401b039485166001600160801b031994851617600160401b93861684021768ffffffffffffffffff60801b1916600160801b928616830260ff60c01b191617600160c01b91151582021787558c880151805160019098018054998201519a82015191909701519786169890941697909717978416909102969096176001600160801b03169082169095026001600160c01b031694909417919093169091021790555b61315389896135dc565b505050505050505050565b60006131698261133f565b90506001600160401b038116156110e957604051635768bbb560e01b81526000906001600160a01b037f00000000000000000000000000000000000000000000000000000000000000001690635768bbb5906131cb9088908890600401614423565b6020604051808303816000875af11580156131ea573d6000803e3d6000fd5b505050506040513d601f19601f8201168201806040525081019061320e919061443a565b6000818152600460209081526040808320815160c08101835281546001600160401b03808216838601908152600160401b8084048316606080870191909152600160801b808604851660808089019190915260ff600160c01b9788900416151560a08901529387528851938401895260019097015480851684529182048416838a0152958104831696820196909652919094048416928101929092529283018190525193945090921615613380576020820151516001600160401b0380861691161061332c578382602001516000018181516132ea91906144f6565b6001600160401b03169052506132ff84611d5e565b6000888152600260205260408120805490919061331d90849061453d565b909155506000945061337c9050565b60208201515161333c90856144f6565b935061334f826020015160000151611d5e565b6000888152600260205260408120805490919061336d90849061453d565b90915550506020820151600090525b5060015b6020820151604001516000906001600160401b03161561346e57846001600160401b03168360200151604001516001600160401b031610613413578483602001516040018181516133d191906144f6565b6001600160401b03169052506133e685611d5e565b6000898152600260205260408120805490919061340490849061453d565b909155506000955061346a9050565b60208301516040015161342690866144f6565b9450613439836020015160400151611d5e565b6000898152600260205260408120805490919061345790849061453d565b9091555050602083015160006040909101525b5060015b60006001600160401b038616156134a257835180518791906134919083906144cb565b6001600160401b0316905250600190505b82806134ab5750815b80156134b5575080155b1561353f5760208085015160008781526004835260409081902082516001909101805494840151928401516060909401516001600160401b03908116600160c01b026001600160c01b03958216600160801b02959095166001600160801b03948216600160401b026001600160801b03199097169190931617949094179190911617179055613149565b82158015612fe9575081158015612ff25750801561307c5783516000868152600460209081526040918290208351815492850151938501516060909501511515600160c01b0260ff60c01b196001600160401b03968716600160801b021668ffffffffffffffffff60801b19958716600160401b026001600160801b03199095169690921695909517929092179290921617919091179055613149565b6000807f00000000000000000000000000000000000000000000000000000000000000006001600160a01b03167f2737b530ab33d91025e8bd75ac76d6f8c285330aacc740150191541ae845c5a8858560405160240161363d929190614423565b60408051601f198184030181529181526020820180516001600160e01b03166001600160e01b031990941693909317909252905161367b9190614554565b6000604051808303816000865af19150503d80600081146136b8576040519150601f19603f3d011682016040523d82523d6000602084013e6136bd565b606091505b5091509150816110e95760405162461bcd60e51b815260206004820152600860248201526717d8da185b99d95960c21b6044820152606401610a4a565b6000546001600160a01b0362010000909104163314610a535760405162461bcd60e51b815260206004820152601f60248201527f416c6c6f77616e63653a2063616c6c6572206d757374206265204f776e6572006044820152606401610a4a565b600080546001600160a01b038381166201000081810262010000600160b01b0319851617855560405193049190911692909183917f8be0079c531659141344cd1fd0a4f28419497f9722a3daafe3b4186f6b6457e091a35050565b6001600160a01b0384161515806137cb575082155b6138125760405162461bcd60e51b8152602060048201526018602482015277043757272656e637920697320616464726573732830292c360441b6044820152606401610a4a565b60405163509ff69b60e01b81526001600160a01b038581166004830152602482018590526000917f00000000000000000000000000000000000000000000000000000000000000009091169063509ff69b906044016020604051808303816000875af1158015613886573d6000803e3d6000fd5b505050506040513d601f19601f820116820180604052508101906138aa919061443a565b9050611338818484613e1c565b60006138c28261133f565b9050806001600160401b03166000036138db5750505050565b6138e3611620565b156139005760405162461bcd60e51b8152600401610a4a90614453565b60405163c33470d360e01b81526004810185905263285116a160e21b60248201527f00000000000000000000000000000000000000000000000000000000000000006001600160a01b03169063c33470d390604401602060405180830381865afa158015613972573d6000803e3d6000fd5b505050506040513d601f19601f820116820180604052508101906139969190614401565b15613ac757604051630c25e48360e11b8152600481018590527f00000000000000000000000000000000000000000000000000000000000000006001600160a01b03169063184bc90690602401602060405180830381865afa158015613a00573d6000803e3d6000fd5b505050506040513d601f19601f82011682018060405250810190613a24919061458f565b6001600160a01b031663a0bb93236040518163ffffffff1660e01b8152600401602060405180830381865afa158015613a61573d6000803e3d6000fd5b505050506040513d601f19601f82011682018060405250810190613a859190614401565b613ac75760405162461bcd60e51b8152602060048201526013602482015272546f6b656e206e6f742062616e6b6561626c6560681b6044820152606401610a4a565b7f00000000000000000000000000000000000000000000000000000000000000006001600160a01b0316634635229b6040518163ffffffff1660e01b8152600401602060405180830381865afa158015613b25573d6000803e3d6000fd5b505050506040513d601f19601f82011682018060405250810190613b499190614401565b613d925760405163a663d4f560e01b815260048101859052600160248201527f00000000000000000000000000000000000000000000000000000000000000006001600160a01b03169063a663d4f590604401602060405180830381865afa158015613bb9573d6000803e3d6000fd5b505050506040513d601f19601f82011682018060405250810190613bdd9190614401565b613d925760405163a663d4f560e01b815260048101859052600260248201527f00000000000000000000000000000000000000000000000000000000000000006001600160a01b03169063a663d4f590604401602060405180830381865afa158015613c4d573d6000803e3d6000fd5b505050506040513d601f19601f82011682018060405250810190613c719190614401565b15613d9257604051630c25e48360e11b8152600481018590527f00000000000000000000000000000000000000000000000000000000000000006001600160a01b03169063184bc90690602401602060405180830381865afa158015613cdb573d6000803e3d6000fd5b505050506040513d601f19601f82011682018060405250810190613cff919061458f565b6001600160a01b03166323b872dd8430613d1885611d5e565b6040516001600160e01b031960e086901b1681526001600160a01b03938416600482015292909116602483015260448201526064016020604051808303816000875af1158015613d6c573d6000803e3d6000fd5b505050506040513d601f19601f82011682018060405250810190613d909190614401565b505b6040516316f4b92960e21b815273__$f71e59c5327218924d154e230469c101bd$__90635bd2e4a490613dcc906001908790600401614423565b602060405180830381865af4158015613de9573d6000803e3d6000fd5b505050506040513d601f19601f82011682018060405250810190613e0d9190614401565b506110e9848461100384611d5e565b6000613e278261133f565b9050806001600160401b0316600003613e405750505050565b613e48611620565b15613e655760405162461bcd60e51b8152600401610a4a90614453565b806001600160401b0316613e798585612558565b6001600160401b03161015613e8d57600080fd5b7f00000000000000000000000000000000000000000000000000000000000000006001600160a01b0316634635229b6040518163ffffffff1660e01b8152600401602060405180830381865afa158015613eeb573d6000803e3d6000fd5b505050506040513d601f19601f82011682018060405250810190613f0f9190614401565b61418b5760405163a663d4f560e01b815260048101859052600160248201527f00000000000000000000000000000000000000000000000000000000000000006001600160a01b03169063a663d4f590604401602060405180830381865afa158015613f7f573d6000803e3d6000fd5b505050506040513d601f19601f82011682018060405250810190613fa39190614401565b15613fe4576040516001600160a01b0384169083156108fc029084906000818181858888f19350505050158015613fde573d6000803e3d6000fd5b5061418b565b60405163a663d4f560e01b815260048101859052600260248201527f00000000000000000000000000000000000000000000000000000000000000006001600160a01b03169063a663d4f590604401602060405180830381865afa158015614050573d6000803e3d6000fd5b505050506040513d601f19601f820116820180604052508101906140749190614401565b1561418b57604051630c25e48360e11b8152600481018590527f00000000000000000000000000000000000000000000000000000000000000006001600160a01b03169063184bc90690602401602060405180830381865afa1580156140de573d6000803e3d6000fd5b505050506040513d601f19601f82011682018060405250810190614102919061458f565b6001600160a01b031663a9059cbb8461411a84611d5e565b6040516001600160e01b031960e085901b1681526001600160a01b03909216600483015260248201526044016020604051808303816000875af1158015614165573d6000803e3d6000fd5b505050506040513d601f19601f820116820180604052508101906141899190614401565b505b6110e98484610ff084611d5e565b600080858511156141a957600080fd5b838611156141b657600080fd5b5050820193919092039150565b6000602082840312156141d557600080fd5b81356001600160e01b031981168114611c8d57600080fd5b6001600160a01b03811681146123ee57600080fd5b6000806040838503121561421557600080fd5b823591506020830135614227816141ed565b809150509250929050565b60008060006060848603121561424757600080fd5b8335614252816141ed565b95602085013595506040909401359392505050565b6000806000806080858703121561427d57600080fd5b84359350602085013561428f816141ed565b9250604085013561429f816141ed565b9396929550929360600135925050565b6000602082840312156142c157600080fd5b5035919050565b6000602082840312156142da57600080fd5b8135611c8d816141ed565b600080600080608085870312156142fb57600080fd5b8435614306816141ed565b935060208501359250604085013561429f816141ed565b60006020828403121561432f57600080fd5b813565ffffffffffff81168114611c8d57600080fd5b6000806040838503121561435857600080fd5b8235614363816141ed565b946020939093013593505050565b60006020828403121561438357600080fd5b81356001600160401b0381168114611c8d57600080fd5b6000602082840312156143ac57600080fd5b813563ffffffff81168114611c8d57600080fd5b6000806000606084860312156143d557600080fd5b83356143e0816141ed565b925060208401356143f0816141ed565b929592945050506040919091013590565b60006020828403121561441357600080fd5b81518015158114611c8d57600080fd5b9182526001600160a01b0316602082015260400190565b60006020828403121561444c57600080fd5b5051919050565b60208082526010908201526f10dbdb9d1c9858dd081cdd1bdc1c195960821b604082015260600190565b634e487b7160e01b600052601160045260246000fd5b6000826144b057634e487b7160e01b600052601260045260246000fd5b500490565b634e487b7160e01b600052600160045260246000fd5b60006001600160401b038083168185168083038211156144ed576144ed61447d565b01949350505050565b60006001600160401b03838116908316818110156145165761451661447d565b039392505050565b60008160001904831182151516156145385761453861447d565b500290565b60008282101561454f5761454f61447d565b500390565b6000825160005b81811015614575576020818601810151858301520161455b565b81811115614584576000828501525b509190910192915050565b6000602082840312156145a157600080fd5b8151611c8d816141ed56fea2646970667358221220e5555ed990b182abb089470c95b84a8eeae6483a10c6434e316062d352847bc464736f6c634300080d0033",
  "language": "Solidity",
  "natspec": {
    "kind": "dev",
    "methods": {
      "ownerOf()": {
        "details": "Returns the address of the current owner."
      },
      "renounceOwnership()": {
        "details": "Leaves the contract without owner. It will not be possible to call `onlyOwner` functions anymore. Can only be called by the current owner. NOTE: Renouncing ownership will leave the contract without an owner, thereby removing any functionality that is only available to the owner."
      },
      "supportsInterface(bytes4)": {
        "details": "Returns true if this contract implements the interface defined by `interfaceId`. See the corresponding https://eips.ethereum.org/EIPS/eip-165#how-interfaces-are-identified[EIP section] to learn more about how these ids are created. This function call must use less than 30 000 gas."
      },
      "transferOwnership(address)": {
        "details": "Transfers ownership of the contract to a new account (`newOwner`). Can only be called by the current owner."
      }
    },
    "version": 1
  },
  "opcodes": "PUSH1 0x80 PUSH1 0x40 MSTORE PUSH1 0x4 CALLDATASIZE LT PUSH2 0x230 JUMPI PUSH1 0x0 CALLDATALOAD PUSH1 0xE0 SHR DUP1 PUSH4 0x97962076 GT PUSH2 0x12E JUMPI DUP1 PUSH4 0xD2919113 GT PUSH2 0xAB JUMPI DUP1 PUSH4 0xF0174FE5 GT PUSH2 0x6F JUMPI DUP1 PUSH4 0xF0174FE5 EQ PUSH2 0x7D4 JUMPI DUP1 PUSH4 0xF28E5A25 EQ PUSH2 0x7F4 JUMPI DUP1 PUSH4 0xF29CC2E5 EQ PUSH2 0x814 JUMPI DUP1 PUSH4 0xF2FDE38B EQ PUSH2 0x834 JUMPI DUP1 PUSH4 0xFEAB4454 EQ PUSH2 0x854 JUMPI PUSH2 0x230 JUMP JUMPDEST DUP1 PUSH4 0xD2919113 EQ PUSH2 0x73F JUMPI DUP1 PUSH4 0xD6935858 EQ PUSH2 0x75F JUMPI DUP1 PUSH4 0xE4B16144 EQ PUSH2 0x774 JUMPI DUP1 PUSH4 0xE7C25012 EQ PUSH2 0x794 JUMPI DUP1 PUSH4 0xE8211A30 EQ PUSH2 0x7B4 JUMPI PUSH2 0x230 JUMP JUMPDEST DUP1 PUSH4 0xADC9772E GT PUSH2 0xF2 JUMPI DUP1 PUSH4 0xADC9772E EQ PUSH2 0x685 JUMPI DUP1 PUSH4 0xAF640D0F EQ PUSH2 0x698 JUMPI DUP1 PUSH4 0xB03FD40D EQ PUSH2 0x6CB JUMPI DUP1 PUSH4 0xC2A672E0 EQ PUSH2 0x6EB JUMPI DUP1 PUSH4 0xCCC07959 EQ PUSH2 0x70B JUMPI PUSH2 0x230 JUMP JUMPDEST DUP1 PUSH4 0x97962076 EQ PUSH2 0x5E8 JUMPI DUP1 PUSH4 0x98528BAF EQ PUSH2 0x605 JUMPI DUP1 PUSH4 0x9CD1E41E EQ PUSH2 0x625 JUMPI DUP1 PUSH4 0xA2BC66BE EQ PUSH2 0x645 JUMPI DUP1 PUSH4 0xA9BF9858 EQ PUSH2 0x665 JUMPI PUSH2 0x230 JUMP JUMPDEST DUP1 PUSH4 0x715018A6 GT PUSH2 0x1BC JUMPI DUP1 PUSH4 0x807B7B44 GT PUSH2 0x180 JUMPI DUP1 PUSH4 0x807B7B44 EQ PUSH2 0x53B JUMPI DUP1 PUSH4 0x854BA99D EQ PUSH2 0x55B JUMPI DUP1 PUSH4 0x8DA5CB5B EQ PUSH2 0x570 JUMPI DUP1 PUSH4 0x92F5B253 EQ PUSH2 0x5A8 JUMPI DUP1 PUSH4 0x954C62BC EQ PUSH2 0x5C8 JUMPI PUSH2 0x230 JUMP JUMPDEST DUP1 PUSH4 0x715018A6 EQ PUSH2 0x4A3 JUMPI DUP1 PUSH4 0x72EA61BF EQ PUSH2 0x4B8 JUMPI DUP1 PUSH4 0x78D75276 EQ PUSH2 0x4CD JUMPI DUP1 PUSH4 0x7A5C0E9A EQ PUSH2 0x4ED JUMPI DUP1 PUSH4 0x7AF6649A EQ PUSH2 0x50D JUMPI PUSH2 0x230 JUMP JUMPDEST DUP1 PUSH4 0x1C9619A7 GT PUSH2 0x203 JUMPI DUP1 PUSH4 0x1C9619A7 EQ PUSH2 0x3C1 JUMPI DUP1 PUSH4 0x2203616D EQ PUSH2 0x3E1 JUMPI DUP1 PUSH4 0x2F54BF6E EQ PUSH2 0x416 JUMPI DUP1 PUSH4 0x56A1FD3A EQ PUSH2 0x44B JUMPI DUP1 PUSH4 0x62965141 EQ PUSH2 0x46B JUMPI PUSH2 0x230 JUMP JUMPDEST DUP1 PUSH4 0x1FFC9A7 EQ PUSH2 0x2BF JUMPI DUP1 PUSH4 0x5D6BD9C EQ PUSH2 0x2F4 JUMPI DUP1 PUSH4 0x867A4F3 EQ PUSH2 0x309 JUMPI DUP1 PUSH4 0xC51B88F EQ PUSH2 0x3AE JUMPI JUMPDEST CALLVALUE DUP1 ISZERO PUSH2 0x23C JUMPI PUSH1 0x0 DUP1 REVERT JUMPDEST POP PUSH2 0x245 PUSH2 0x88B JUMP JUMPDEST PUSH1 0x0 PUSH2 0x255 PUSH1 0x24 PUSH1 0x4 CALLDATASIZE DUP5 PUSH2 0x4199 JUMP JUMPDEST DUP1 DUP1 PUSH1 0x1F ADD PUSH1 0x20 DUP1 SWAP2 DIV MUL PUSH1 0x20 ADD PUSH1 0x40 MLOAD SWAP1 DUP2 ADD PUSH1 0x40 MSTORE DUP1 SWAP4 SWAP3 SWAP2 SWAP1 DUP2 DUP2 MSTORE PUSH1 0x20 ADD DUP4 DUP4 DUP1 DUP3 DUP5 CALLDATACOPY PUSH1 0x0 SWAP3 ADD DUP3 SWAP1 MSTORE POP PUSH1 0x20 DUP6 ADD MLOAD SWAP5 SWAP6 POP SWAP3 POP POP CALLDATASIZE PUSH1 0x23 NOT DUP2 ADD SWAP2 POP PUSH1 0x1F NOT ADD PUSH1 0x4 DUP4 DUP1 CALLDATACOPY DUP2 PUSH1 0x24 PUSH1 0x4 CALLDATACOPY PUSH1 0x0 DUP1 DUP3 PUSH1 0x0 DUP8 GAS DELEGATECALL SWAP3 POP POP POP PUSH2 0x2BD DUP2 PUSH2 0xA55 JUMP JUMPDEST STOP JUMPDEST CALLVALUE DUP1 ISZERO PUSH2 0x2CB JUMPI PUSH1 0x0 DUP1 REVERT JUMPDEST POP PUSH2 0x2DF PUSH2 0x2DA CALLDATASIZE PUSH1 0x4 PUSH2 0x41C3 JUMP JUMPDEST PUSH2 0xA6F JUMP JUMPDEST PUSH1 0x40 MLOAD SWAP1 ISZERO ISZERO DUP2 MSTORE PUSH1 0x20 ADD JUMPDEST PUSH1 0x40 MLOAD DUP1 SWAP2 SUB SWAP1 RETURN JUMPDEST CALLVALUE DUP1 ISZERO PUSH2 0x300 JUMPI PUSH1 0x0 DUP1 REVERT JUMPDEST POP PUSH2 0x2BD PUSH2 0xAA6 JUMP JUMPDEST CALLVALUE DUP1 ISZERO PUSH2 0x315 JUMPI PUSH1 0x0 DUP1 REVERT JUMPDEST POP PUSH2 0x329 PUSH2 0x324 CALLDATASIZE PUSH1 0x4 PUSH2 0x4202 JUMP JUMPDEST PUSH2 0xABD JUMP JUMPDEST PUSH1 0x40 MLOAD PUSH2 0x2EB SWAP2 SWAP1 PUSH1 0x0 PUSH2 0x160 DUP3 ADD SWAP1 POP DUP3 MLOAD DUP3 MSTORE PUSH1 0x20 DUP4 ADD MLOAD PUSH1 0x20 DUP4 ADD MSTORE PUSH1 0x40 DUP4 ADD MLOAD PUSH1 0x40 DUP4 ADD MSTORE PUSH1 0x60 DUP4 ADD MLOAD PUSH1 0x60 DUP4 ADD MSTORE PUSH1 0x80 DUP4 ADD MLOAD PUSH1 0x80 DUP4 ADD MSTORE PUSH1 0xA0 DUP4 ADD MLOAD PUSH1 0xA0 DUP4 ADD MSTORE PUSH1 0xC0 DUP4 ADD MLOAD PUSH1 0xC0 DUP4 ADD MSTORE PUSH1 0xE0 DUP4 ADD MLOAD PUSH1 0xE0 DUP4 ADD MSTORE PUSH2 0x100 DUP1 DUP5 ADD MLOAD DUP2 DUP5 ADD MSTORE POP PUSH2 0x120 DUP1 DUP5 ADD MLOAD DUP2 DUP5 ADD MSTORE POP PUSH2 0x140 DUP1 DUP5 ADD MLOAD DUP2 DUP5 ADD MSTORE POP SWAP3 SWAP2 POP POP JUMP JUMPDEST PUSH2 0x2BD PUSH2 0x3BC CALLDATASIZE PUSH1 0x4 PUSH2 0x4232 JUMP JUMPDEST PUSH2 0xD3A JUMP JUMPDEST CALLVALUE DUP1 ISZERO PUSH2 0x3CD JUMPI PUSH1 0x0 DUP1 REVERT JUMPDEST POP PUSH2 0x2BD PUSH2 0x3DC CALLDATASIZE PUSH1 0x4 PUSH2 0x4267 JUMP JUMPDEST PUSH2 0xD6F JUMP JUMPDEST CALLVALUE DUP1 ISZERO PUSH2 0x3ED JUMPI PUSH1 0x0 DUP1 REVERT JUMPDEST POP PUSH2 0x401 PUSH2 0x3FC CALLDATASIZE PUSH1 0x4 PUSH2 0x42AF JUMP JUMPDEST PUSH2 0x10EF JUMP JUMPDEST PUSH1 0x40 MLOAD PUSH4 0xFFFFFFFF SWAP1 SWAP2 AND DUP2 MSTORE PUSH1 0x20 ADD PUSH2 0x2EB JUMP JUMPDEST CALLVALUE DUP1 ISZERO PUSH2 0x422 JUMPI PUSH1 0x0 DUP1 REVERT JUMPDEST POP PUSH2 0x2DF PUSH2 0x431 CALLDATASIZE PUSH1 0x4 PUSH2 0x42C8 JUMP JUMPDEST PUSH1 0x0 SLOAD PUSH3 0x10000 SWAP1 DIV PUSH1 0x1 PUSH1 0x1 PUSH1 0xA0 SHL SUB SWAP1 DUP2 AND SWAP2 AND EQ SWAP1 JUMP JUMPDEST CALLVALUE DUP1 ISZERO PUSH2 0x457 JUMPI PUSH1 0x0 DUP1 REVERT JUMPDEST POP PUSH2 0x2BD PUSH2 0x466 CALLDATASIZE PUSH1 0x4 PUSH2 0x4267 JUMP JUMPDEST PUSH2 0x1100 JUMP JUMPDEST CALLVALUE DUP1 ISZERO PUSH2 0x477 JUMPI PUSH1 0x0 DUP1 REVERT JUMPDEST POP PUSH2 0x48B PUSH2 0x486 CALLDATASIZE PUSH1 0x4 PUSH2 0x42AF JUMP JUMPDEST PUSH2 0x133F JUMP JUMPDEST PUSH1 0x40 MLOAD PUSH1 0x1 PUSH1 0x1 PUSH1 0x40 SHL SUB SWAP1 SWAP2 AND DUP2 MSTORE PUSH1 0x20 ADD PUSH2 0x2EB JUMP JUMPDEST CALLVALUE DUP1 ISZERO PUSH2 0x4AF JUMPI PUSH1 0x0 DUP1 REVERT JUMPDEST POP PUSH2 0x2BD PUSH2 0x1371 JUMP JUMPDEST CALLVALUE DUP1 ISZERO PUSH2 0x4C4 JUMPI PUSH1 0x0 DUP1 REVERT JUMPDEST POP PUSH2 0x2BD PUSH2 0x1383 JUMP JUMPDEST CALLVALUE DUP1 ISZERO PUSH2 0x4D9 JUMPI PUSH1 0x0 DUP1 REVERT JUMPDEST POP PUSH2 0x2BD PUSH2 0x4E8 CALLDATASIZE PUSH1 0x4 PUSH2 0x42E5 JUMP JUMPDEST PUSH2 0x139D JUMP JUMPDEST CALLVALUE DUP1 ISZERO PUSH2 0x4F9 JUMPI PUSH1 0x0 DUP1 REVERT JUMPDEST POP PUSH2 0x2BD PUSH2 0x508 CALLDATASIZE PUSH1 0x4 PUSH2 0x4267 JUMP JUMPDEST PUSH2 0x1471 JUMP JUMPDEST CALLVALUE DUP1 ISZERO PUSH2 0x519 JUMPI PUSH1 0x0 DUP1 REVERT JUMPDEST POP PUSH2 0x52D PUSH2 0x528 CALLDATASIZE PUSH1 0x4 PUSH2 0x431D JUMP JUMPDEST PUSH2 0x15E0 JUMP JUMPDEST PUSH1 0x40 MLOAD SWAP1 DUP2 MSTORE PUSH1 0x20 ADD PUSH2 0x2EB JUMP JUMPDEST CALLVALUE DUP1 ISZERO PUSH2 0x547 JUMPI PUSH1 0x0 DUP1 REVERT JUMPDEST POP PUSH2 0x52D PUSH2 0x556 CALLDATASIZE PUSH1 0x4 PUSH2 0x42AF JUMP JUMPDEST PUSH2 0x15F9 JUMP JUMPDEST CALLVALUE DUP1 ISZERO PUSH2 0x567 JUMPI PUSH1 0x0 DUP1 REVERT JUMPDEST POP PUSH2 0x2DF PUSH2 0x1620 JUMP JUMPDEST CALLVALUE DUP1 ISZERO PUSH2 0x57C JUMPI PUSH1 0x0 DUP1 REVERT JUMPDEST POP PUSH1 0x0 SLOAD PUSH3 0x10000 SWAP1 DIV PUSH1 0x1 PUSH1 0x1 PUSH1 0xA0 SHL SUB AND JUMPDEST PUSH1 0x40 MLOAD PUSH1 0x1 PUSH1 0x1 PUSH1 0xA0 SHL SUB SWAP1 SWAP2 AND DUP2 MSTORE PUSH1 0x20 ADD PUSH2 0x2EB JUMP JUMPDEST CALLVALUE DUP1 ISZERO PUSH2 0x5B4 JUMPI PUSH1 0x0 DUP1 REVERT JUMPDEST POP PUSH2 0x2BD PUSH2 0x5C3 CALLDATASIZE PUSH1 0x4 PUSH2 0x4267 JUMP JUMPDEST PUSH2 0x163E JUMP JUMPDEST CALLVALUE DUP1 ISZERO PUSH2 0x5D4 JUMPI PUSH1 0x0 DUP1 REVERT JUMPDEST POP PUSH2 0x2BD PUSH2 0x5E3 CALLDATASIZE PUSH1 0x4 PUSH2 0x4267 JUMP JUMPDEST PUSH2 0x1845 JUMP JUMPDEST CALLVALUE DUP1 ISZERO PUSH2 0x5F4 JUMPI PUSH1 0x0 DUP1 REVERT JUMPDEST POP PUSH1 0x0 SLOAD PUSH2 0x100 SWAP1 DIV PUSH1 0xFF AND PUSH2 0x2DF JUMP JUMPDEST CALLVALUE DUP1 ISZERO PUSH2 0x611 JUMPI PUSH1 0x0 DUP1 REVERT JUMPDEST POP PUSH2 0x2BD PUSH2 0x620 CALLDATASIZE PUSH1 0x4 PUSH2 0x4267 JUMP JUMPDEST PUSH2 0x19D8 JUMP JUMPDEST CALLVALUE DUP1 ISZERO PUSH2 0x631 JUMPI PUSH1 0x0 DUP1 REVERT JUMPDEST POP PUSH2 0x52D PUSH2 0x640 CALLDATASIZE PUSH1 0x4 PUSH2 0x4202 JUMP JUMPDEST PUSH2 0x1C7E JUMP JUMPDEST CALLVALUE DUP1 ISZERO PUSH2 0x651 JUMPI PUSH1 0x0 DUP1 REVERT JUMPDEST POP PUSH2 0x2BD PUSH2 0x660 CALLDATASIZE PUSH1 0x4 PUSH2 0x4232 JUMP JUMPDEST PUSH2 0x1C94 JUMP JUMPDEST CALLVALUE DUP1 ISZERO PUSH2 0x671 JUMPI PUSH1 0x0 DUP1 REVERT JUMPDEST POP PUSH2 0x52D PUSH2 0x680 CALLDATASIZE PUSH1 0x4 PUSH2 0x42AF JUMP JUMPDEST PUSH2 0x1CA1 JUMP JUMPDEST PUSH2 0x2BD PUSH2 0x693 CALLDATASIZE PUSH1 0x4 PUSH2 0x4345 JUMP JUMPDEST PUSH2 0x1D31 JUMP JUMPDEST CALLVALUE DUP1 ISZERO PUSH2 0x6A4 JUMPI PUSH1 0x0 DUP1 REVERT JUMPDEST POP PUSH32 0xCD775F2396F9F13F12BCF8CA32E21DF66559A8ADC3944D0591127E7731F7AB85 PUSH2 0x52D JUMP JUMPDEST CALLVALUE DUP1 ISZERO PUSH2 0x6D7 JUMPI PUSH1 0x0 DUP1 REVERT JUMPDEST POP PUSH2 0x52D PUSH2 0x6E6 CALLDATASIZE PUSH1 0x4 PUSH2 0x4371 JUMP JUMPDEST PUSH2 0x1D5E JUMP JUMPDEST CALLVALUE DUP1 ISZERO PUSH2 0x6F7 JUMPI PUSH1 0x0 DUP1 REVERT JUMPDEST POP PUSH2 0x2BD PUSH2 0x706 CALLDATASIZE PUSH1 0x4 PUSH2 0x4345 JUMP JUMPDEST PUSH2 0x1D78 JUMP JUMPDEST CALLVALUE DUP1 ISZERO PUSH2 0x717 JUMPI PUSH1 0x0 DUP1 REVERT JUMPDEST POP PUSH2 0x590 PUSH32 0x0 DUP2 JUMP JUMPDEST CALLVALUE DUP1 ISZERO PUSH2 0x74B JUMPI PUSH1 0x0 DUP1 REVERT JUMPDEST POP PUSH2 0x2BD PUSH2 0x75A CALLDATASIZE PUSH1 0x4 PUSH2 0x4267 JUMP JUMPDEST PUSH2 0x1D84 JUMP JUMPDEST CALLVALUE DUP1 ISZERO PUSH2 0x76B JUMPI PUSH1 0x0 DUP1 REVERT JUMPDEST POP PUSH2 0x2BD PUSH2 0x1F77 JUMP JUMPDEST CALLVALUE DUP1 ISZERO PUSH2 0x780 JUMPI PUSH1 0x0 DUP1 REVERT JUMPDEST POP PUSH2 0x52D PUSH2 0x78F CALLDATASIZE PUSH1 0x4 PUSH2 0x439A JUMP JUMPDEST PUSH2 0x1F93 JUMP JUMPDEST CALLVALUE DUP1 ISZERO PUSH2 0x7A0 JUMPI PUSH1 0x0 DUP1 REVERT JUMPDEST POP PUSH2 0x2BD PUSH2 0x7AF CALLDATASIZE PUSH1 0x4 PUSH2 0x43C0 JUMP JUMPDEST PUSH2 0x1FAA JUMP JUMPDEST CALLVALUE DUP1 ISZERO PUSH2 0x7C0 JUMPI PUSH1 0x0 DUP1 REVERT JUMPDEST POP PUSH2 0x2BD PUSH2 0x7CF CALLDATASIZE PUSH1 0x4 PUSH2 0x43C0 JUMP JUMPDEST PUSH2 0x207F JUMP JUMPDEST CALLVALUE DUP1 ISZERO PUSH2 0x7E0 JUMPI PUSH1 0x0 DUP1 REVERT JUMPDEST POP PUSH2 0x2BD PUSH2 0x7EF CALLDATASIZE PUSH1 0x4 PUSH2 0x4267 JUMP JUMPDEST PUSH2 0x208C JUMP JUMPDEST CALLVALUE DUP1 ISZERO PUSH2 0x800 JUMPI PUSH1 0x0 DUP1 REVERT JUMPDEST POP PUSH2 0x2BD PUSH2 0x80F CALLDATASIZE PUSH1 0x4 PUSH2 0x42E5 JUMP JUMPDEST PUSH2 0x21FB JUMP JUMPDEST CALLVALUE DUP1 ISZERO PUSH2 0x820 JUMPI PUSH1 0x0 DUP1 REVERT JUMPDEST POP PUSH2 0x2BD PUSH2 0x82F CALLDATASIZE PUSH1 0x4 PUSH2 0x4267 JUMP JUMPDEST PUSH2 0x2207 JUMP JUMPDEST CALLVALUE DUP1 ISZERO PUSH2 0x840 JUMPI PUSH1 0x0 DUP1 REVERT JUMPDEST POP PUSH2 0x2BD PUSH2 0x84F CALLDATASIZE PUSH1 0x4 PUSH2 0x42C8 JUMP JUMPDEST PUSH2 0x2378 JUMP JUMPDEST CALLVALUE DUP1 ISZERO PUSH2 0x860 JUMPI PUSH1 0x0 DUP1 REVERT JUMPDEST POP PUSH2 0x874 PUSH2 0x86F CALLDATASIZE PUSH1 0x4 PUSH2 0x42AF JUMP JUMPDEST PUSH2 0x23F1 JUMP JUMPDEST PUSH1 0x40 MLOAD PUSH6 0xFFFFFFFFFFFF SWAP1 SWAP2 AND DUP2 MSTORE PUSH1 0x20 ADD PUSH2 0x2EB JUMP JUMPDEST PUSH1 0x0 SLOAD PUSH1 0x1 PUSH1 0x1 PUSH1 0xA0 SHL SUB PUSH3 0x10000 SWAP1 SWAP2 DIV AND CALLER EQ DUP1 PUSH2 0x93E JUMPI POP PUSH1 0x1 PUSH1 0x1 PUSH1 0xA0 SHL SUB PUSH32 0x0 AND PUSH4 0x16279055 CALLER PUSH1 0x40 MLOAD PUSH1 0x1 PUSH1 0x1 PUSH1 0xE0 SHL SUB NOT PUSH1 0xE0 DUP5 SWAP1 SHL AND DUP2 MSTORE PUSH1 0x1 PUSH1 0x1 PUSH1 0xA0 SHL SUB SWAP1 SWAP2 AND PUSH1 0x4 DUP3 ADD MSTORE PUSH1 0x24 ADD PUSH1 0x20 PUSH1 0x40 MLOAD DUP1 DUP4 SUB DUP2 DUP7 GAS STATICCALL ISZERO DUP1 ISZERO PUSH2 0x91A JUMPI RETURNDATASIZE PUSH1 0x0 DUP1 RETURNDATACOPY RETURNDATASIZE PUSH1 0x0 REVERT JUMPDEST POP POP POP POP PUSH1 0x40 MLOAD RETURNDATASIZE PUSH1 0x1F NOT PUSH1 0x1F DUP3 ADD AND DUP3 ADD DUP1 PUSH1 0x40 MSTORE POP DUP2 ADD SWAP1 PUSH2 0x93E SWAP2 SWAP1 PUSH2 0x4401 JUMP JUMPDEST DUP1 PUSH2 0x9DC JUMPI POP PUSH1 0x1 PUSH1 0x1 PUSH1 0xA0 SHL SUB PUSH32 0x0 AND PUSH4 0x6D70F7AE CALLER PUSH1 0x40 MLOAD PUSH1 0x1 PUSH1 0x1 PUSH1 0xE0 SHL SUB NOT PUSH1 0xE0 DUP5 SWAP1 SHL AND DUP2 MSTORE PUSH1 0x1 PUSH1 0x1 PUSH1 0xA0 SHL SUB SWAP1 SWAP2 AND PUSH1 0x4 DUP3 ADD MSTORE PUSH1 0x24 ADD PUSH1 0x20 PUSH1 0x40 MLOAD DUP1 DUP4 SUB DUP2 DUP7 GAS STATICCALL ISZERO DUP1 ISZERO PUSH2 0x9B8 JUMPI RETURNDATASIZE PUSH1 0x0 DUP1 RETURNDATACOPY RETURNDATASIZE PUSH1 0x0 REVERT JUMPDEST POP POP POP POP PUSH1 0x40 MLOAD RETURNDATASIZE PUSH1 0x1F NOT PUSH1 0x1F DUP3 ADD AND DUP3 ADD DUP1 PUSH1 0x40 MSTORE POP DUP2 ADD SWAP1 PUSH2 0x9DC SWAP2 SWAP1 PUSH2 0x4401 JUMP JUMPDEST PUSH2 0xA53 JUMPI PUSH1 0x40 MLOAD PUSH3 0x461BCD PUSH1 0xE5 SHL DUP2 MSTORE PUSH1 0x20 PUSH1 0x4 DUP3 ADD MSTORE PUSH1 0x39 PUSH1 0x24 DUP3 ADD MSTORE PUSH32 0x416C6C6F77616E63653A2063616C6C6572206D757374206265205265706F7369 PUSH1 0x44 DUP3 ADD MSTORE PUSH32 0x746F727920436F6E7472616374206F72204F70657261746F7200000000000000 PUSH1 0x64 DUP3 ADD MSTORE PUSH1 0x84 ADD JUMPDEST PUSH1 0x40 MLOAD DUP1 SWAP2 SUB SWAP1 REVERT JUMPDEST JUMP JUMPDEST RETURNDATASIZE PUSH1 0x0 DUP1 RETURNDATACOPY DUP1 DUP1 ISZERO PUSH2 0xA66 JUMPI RETURNDATASIZE PUSH1 0x0 RETURN JUMPDEST RETURNDATASIZE PUSH1 0x0 REVERT JUMPDEST POP POP JUMP JUMPDEST PUSH1 0x0 PUSH1 0x1 PUSH1 0x1 PUSH1 0xE0 SHL SUB NOT DUP3 AND PUSH4 0x1FFC9A7 PUSH1 0xE0 SHL EQ DUP1 PUSH2 0xAA0 JUMPI POP PUSH1 0x1 PUSH1 0x1 PUSH1 0xE0 SHL SUB NOT DUP3 AND PUSH4 0x15D37895 PUSH1 0xE3 SHL EQ JUMPDEST SWAP3 SWAP2 POP POP JUMP JUMPDEST PUSH2 0xAAE PUSH2 0x88B JUMP JUMPDEST PUSH2 0xA53 PUSH1 0x0 DUP1 SLOAD PUSH1 0xFF NOT AND SWAP1 SSTORE JUMP JUMPDEST PUSH2 0xB1A PUSH1 0x40 MLOAD DUP1 PUSH2 0x160 ADD PUSH1 0x40 MSTORE DUP1 PUSH1 0x0 DUP2 MSTORE PUSH1 0x20 ADD PUSH1 0x0 DUP2 MSTORE PUSH1 0x20 ADD PUSH1 0x0 DUP2 MSTORE PUSH1 0x20 ADD PUSH1 0x0 DUP2 MSTORE PUSH1 0x20 ADD PUSH1 0x0 DUP2 MSTORE PUSH1 0x20 ADD PUSH1 0x0 DUP2 MSTORE PUSH1 0x20 ADD PUSH1 0x0 DUP2 MSTORE PUSH1 0x20 ADD PUSH1 0x0 DUP2 MSTORE PUSH1 0x20 ADD PUSH1 0x0 DUP2 MSTORE PUSH1 0x20 ADD PUSH1 0x0 DUP2 MSTORE PUSH1 0x20 ADD PUSH1 0x0 DUP2 MSTORE POP SWAP1 JUMP JUMPDEST PUSH1 0x0 PUSH1 0x4 PUSH1 0x0 PUSH20 0x0 PUSH4 0x1EB650E7 DUP8 DUP8 PUSH1 0x40 MLOAD DUP4 PUSH4 0xFFFFFFFF AND PUSH1 0xE0 SHL DUP2 MSTORE PUSH1 0x4 ADD PUSH2 0xB59 SWAP3 SWAP2 SWAP1 PUSH2 0x4423 JUMP JUMPDEST PUSH1 0x20 PUSH1 0x40 MLOAD DUP1 DUP4 SUB DUP2 DUP7 GAS DELEGATECALL ISZERO DUP1 ISZERO PUSH2 0xB76 JUMPI RETURNDATASIZE PUSH1 0x0 DUP1 RETURNDATACOPY RETURNDATASIZE PUSH1 0x0 REVERT JUMPDEST POP POP POP POP PUSH1 0x40 MLOAD RETURNDATASIZE PUSH1 0x1F NOT PUSH1 0x1F DUP3 ADD AND DUP3 ADD DUP1 PUSH1 0x40 MSTORE POP DUP2 ADD SWAP1 PUSH2 0xB9A SWAP2 SWAP1 PUSH2 0x443A JUMP JUMPDEST DUP2 MSTORE PUSH1 0x20 DUP2 ADD SWAP2 SWAP1 SWAP2 MSTORE PUSH1 0x40 ADD PUSH1 0x0 KECCAK256 DUP1 SLOAD SWAP1 SWAP2 POP PUSH1 0x1 PUSH1 0xC0 SHL SWAP1 DIV PUSH1 0xFF AND ISZERO DUP1 PUSH2 0xBCD JUMPI POP CALLER PUSH1 0x1 PUSH1 0x1 PUSH1 0xA0 SHL SUB DUP5 AND EQ JUMPDEST PUSH2 0xC0D JUMPI PUSH1 0x40 MLOAD PUSH3 0x461BCD PUSH1 0xE5 SHL DUP2 MSTORE PUSH1 0x20 PUSH1 0x4 DUP3 ADD MSTORE PUSH1 0x11 PUSH1 0x24 DUP3 ADD MSTORE PUSH17 0x4163636F756E74206973206F7061717565 PUSH1 0x78 SHL PUSH1 0x44 DUP3 ADD MSTORE PUSH1 0x64 ADD PUSH2 0xA4A JUMP JUMPDEST DUP1 SLOAD PUSH2 0xC21 SWAP1 PUSH1 0x1 PUSH1 0x1 PUSH1 0x40 SHL SUB AND PUSH2 0x1D5E JUMP JUMPDEST DUP3 MSTORE DUP1 SLOAD PUSH2 0xC3E SWAP1 PUSH1 0x1 PUSH1 0x40 SHL SWAP1 DIV PUSH1 0x1 PUSH1 0x1 PUSH1 0x40 SHL SUB AND PUSH2 0x1D5E JUMP JUMPDEST PUSH1 0x20 DUP4 ADD MSTORE DUP1 SLOAD PUSH2 0xC5E SWAP1 PUSH1 0x1 PUSH1 0x80 SHL SWAP1 DIV PUSH1 0x1 PUSH1 0x1 PUSH1 0x40 SHL SUB AND PUSH2 0x1D5E JUMP JUMPDEST PUSH1 0x40 DUP4 ADD MSTORE PUSH1 0x1 DUP2 ADD SLOAD PUSH2 0xC7A SWAP1 PUSH1 0x1 PUSH1 0x1 PUSH1 0x40 SHL SUB AND PUSH2 0x1D5E JUMP JUMPDEST PUSH1 0x60 DUP4 ADD MSTORE PUSH1 0x1 DUP2 ADD SLOAD PUSH2 0xC9D SWAP1 PUSH1 0x1 PUSH1 0x40 SHL SWAP1 DIV PUSH1 0x1 PUSH1 0x1 PUSH1 0x40 SHL SUB AND PUSH2 0x1D5E JUMP JUMPDEST PUSH1 0x80 DUP4 ADD MSTORE PUSH1 0x1 DUP2 ADD SLOAD PUSH2 0xCC0 SWAP1 PUSH1 0x1 PUSH1 0x80 SHL SWAP1 DIV PUSH1 0x1 PUSH1 0x1 PUSH1 0x40 SHL SUB AND PUSH2 0x1D5E JUMP JUMPDEST PUSH1 0xA0 DUP4 ADD MSTORE PUSH1 0x1 DUP2 ADD SLOAD PUSH2 0xCE3 SWAP1 PUSH1 0x1 PUSH1 0xC0 SHL SWAP1 DIV PUSH1 0x1 PUSH1 0x1 PUSH1 0x40 SHL SUB AND PUSH2 0x1D5E JUMP JUMPDEST PUSH1 0xC0 DUP4 ADD MSTORE PUSH2 0xCF5 PUSH2 0x6E6 DUP6 DUP6 PUSH2 0x2402 JUMP JUMPDEST PUSH1 0xE0 DUP4 ADD MSTORE PUSH2 0xD07 PUSH2 0x6E6 DUP6 DUP6 PUSH2 0x2558 JUMP JUMPDEST PUSH2 0x100 DUP4 ADD MSTORE PUSH2 0xD1A PUSH2 0x6E6 DUP6 DUP6 PUSH2 0x26D9 JUMP JUMPDEST PUSH2 0x120 DUP4 ADD MSTORE PUSH2 0xD2D PUSH2 0x6E6 DUP6 DUP6 PUSH2 0x280C JUMP JUMPDEST PUSH2 0x140 DUP4 ADD MSTORE POP SWAP3 SWAP2 POP POP JUMP JUMPDEST PUSH1 0x1 PUSH1 0x1 PUSH1 0xA0 SHL SUB DUP4 AND ISZERO PUSH2 0xD56 JUMPI PUSH2 0xD56 DUP4 DUP4 CALLER JUMPDEST DUP5 PUSH2 0x29AF JUMP JUMPDEST CALLVALUE ISZERO PUSH2 0xD6A JUMPI PUSH2 0xD6A PUSH1 0x0 DUP1 CALLER JUMPDEST CALLVALUE PUSH2 0x29AF JUMP JUMPDEST POP POP POP JUMP JUMPDEST PUSH2 0xD77 PUSH2 0x2AB0 JUMP JUMPDEST PUSH1 0x0 PUSH2 0xD82 DUP3 PUSH2 0x133F JUMP JUMPDEST SWAP1 POP DUP1 PUSH1 0x1 PUSH1 0x1 PUSH1 0x40 SHL SUB AND PUSH1 0x0 SUB PUSH2 0xD9B JUMPI POP PUSH2 0x10E9 JUMP JUMPDEST PUSH2 0xDA3 PUSH2 0x1620 JUMP JUMPDEST ISZERO PUSH2 0xDC0 JUMPI PUSH1 0x40 MLOAD PUSH3 0x461BCD PUSH1 0xE5 SHL DUP2 MSTORE PUSH1 0x4 ADD PUSH2 0xA4A SWAP1 PUSH2 0x4453 JUMP JUMPDEST PUSH1 0x40 MLOAD PUSH4 0x5768BBB5 PUSH1 0xE0 SHL DUP2 MSTORE PUSH1 0x0 SWAP1 PUSH1 0x1 PUSH1 0x1 PUSH1 0xA0 SHL SUB PUSH32 0x0 AND SWAP1 PUSH4 0x5768BBB5 SWAP1 PUSH2 0xE11 SWAP1 DUP10 SWAP1 DUP10 SWAP1 PUSH1 0x4 ADD PUSH2 0x4423 JUMP JUMPDEST PUSH1 0x20 PUSH1 0x40 MLOAD DUP1 DUP4 SUB DUP2 PUSH1 0x0 DUP8 GAS CALL ISZERO DUP1 ISZERO PUSH2 0xE30 JUMPI RETURNDATASIZE PUSH1 0x0 DUP1 RETURNDATACOPY RETURNDATASIZE PUSH1 0x0 REVERT JUMPDEST POP POP POP POP PUSH1 0x40 MLOAD RETURNDATASIZE PUSH1 0x1F NOT PUSH1 0x1F DUP3 ADD AND DUP3 ADD DUP1 PUSH1 0x40 MSTORE POP DUP2 ADD SWAP1 PUSH2 0xE54 SWAP2 SWAP1 PUSH2 0x443A JUMP JUMPDEST SWAP1 POP PUSH1 0x0 PUSH32 0x0 PUSH1 0x1 PUSH1 0x1 PUSH1 0xA0 SHL SUB AND PUSH4 0x5768BBB5 DUP9 DUP8 PUSH1 0x40 MLOAD DUP4 PUSH4 0xFFFFFFFF AND PUSH1 0xE0 SHL DUP2 MSTORE PUSH1 0x4 ADD PUSH2 0xEA6 SWAP3 SWAP2 SWAP1 PUSH2 0x4423 JUMP JUMPDEST PUSH1 0x20 PUSH1 0x40 MLOAD DUP1 DUP4 SUB DUP2 PUSH1 0x0 DUP8 GAS CALL ISZERO DUP1 ISZERO PUSH2 0xEC5 JUMPI RETURNDATASIZE PUSH1 0x0 DUP1 RETURNDATACOPY RETURNDATASIZE PUSH1 0x0 REVERT JUMPDEST POP POP POP POP PUSH1 0x40 MLOAD RETURNDATASIZE PUSH1 0x1F NOT PUSH1 0x1F DUP3 ADD AND DUP3 ADD DUP1 PUSH1 0x40 MSTORE POP DUP2 ADD SWAP1 PUSH2 0xEE9 SWAP2 SWAP1 PUSH2 0x443A JUMP JUMPDEST SWAP1 POP PUSH2 0xEF5 DUP8 DUP8 PUSH2 0x2402 JUMP JUMPDEST PUSH1 0x1 PUSH1 0x1 PUSH1 0x40 SHL SUB AND DUP4 PUSH1 0x1 PUSH1 0x1 PUSH1 0x40 SHL SUB AND GT ISZERO PUSH2 0xF66 JUMPI PUSH1 0x40 MLOAD PUSH3 0x461BCD PUSH1 0xE5 SHL DUP2 MSTORE PUSH1 0x20 PUSH1 0x4 DUP3 ADD MSTORE PUSH1 0x27 PUSH1 0x24 DUP3 ADD MSTORE PUSH32 0x657263323020617661696C61626C65285F6163636F756E7466726F6D29203C20 PUSH1 0x44 DUP3 ADD MSTORE PUSH7 0x17D85B5BDD5B9D PUSH1 0xCA SHL PUSH1 0x64 DUP3 ADD MSTORE PUSH1 0x84 ADD PUSH2 0xA4A JUMP JUMPDEST PUSH1 0x40 MLOAD PUSH4 0x16F4B929 PUSH1 0xE2 SHL DUP2 MSTORE PUSH20 0x0 SWAP1 PUSH4 0x5BD2E4A4 SWAP1 PUSH2 0xFA0 SWAP1 PUSH1 0x1 SWAP1 DUP10 SWAP1 PUSH1 0x4 ADD PUSH2 0x4423 JUMP JUMPDEST PUSH1 0x20 PUSH1 0x40 MLOAD DUP1 DUP4 SUB DUP2 DUP7 GAS DELEGATECALL ISZERO DUP1 ISZERO PUSH2 0xFBD JUMPI RETURNDATASIZE PUSH1 0x0 DUP1 RETURNDATACOPY RETURNDATASIZE PUSH1 0x0 REVERT JUMPDEST POP POP POP POP PUSH1 0x40 MLOAD RETURNDATASIZE PUSH1 0x1F NOT PUSH1 0x1F DUP3 ADD AND DUP3 ADD DUP1 PUSH1 0x40 MSTORE POP DUP2 ADD SWAP1 PUSH2 0xFE1 SWAP2 SWAP1 PUSH2 0x4401 JUMP JUMPDEST POP PUSH2 0xFF5 DUP8 DUP8 PUSH2 0xFF0 DUP7 PUSH2 0x1D5E JUMP JUMPDEST PUSH2 0x2BC5 JUMP JUMPDEST PUSH2 0x1008 DUP8 DUP7 PUSH2 0x1003 DUP7 PUSH2 0x1D5E JUMP JUMPDEST PUSH2 0x315E JUMP JUMPDEST PUSH1 0x0 DUP3 DUP2 MSTORE PUSH1 0x4 PUSH1 0x20 MSTORE PUSH1 0x40 SWAP1 KECCAK256 SLOAD PUSH1 0x1 PUSH1 0xC0 SHL SWAP1 DIV PUSH1 0xFF AND ISZERO DUP1 PUSH2 0x1043 JUMPI POP PUSH1 0x0 DUP2 DUP2 MSTORE PUSH1 0x4 PUSH1 0x20 MSTORE PUSH1 0x40 SWAP1 KECCAK256 SLOAD PUSH1 0x1 PUSH1 0xC0 SHL SWAP1 DIV PUSH1 0xFF AND ISZERO JUMPDEST ISZERO PUSH2 0x10E5 JUMPI PUSH1 0x0 DUP2 DUP2 MSTORE PUSH1 0x4 PUSH1 0x20 MSTORE PUSH1 0x40 SWAP1 KECCAK256 SLOAD PUSH1 0x1 PUSH1 0xC0 SHL SWAP1 DIV PUSH1 0xFF AND PUSH2 0x106B JUMPI DUP5 PUSH2 0x106E JUMP JUMPDEST PUSH1 0x0 JUMPDEST PUSH1 0x0 DUP4 DUP2 MSTORE PUSH1 0x4 PUSH1 0x20 MSTORE PUSH1 0x40 SWAP1 KECCAK256 SLOAD PUSH1 0x1 PUSH1 0x1 PUSH1 0xA0 SHL SUB SWAP2 SWAP1 SWAP2 AND SWAP1 PUSH1 0x1 PUSH1 0xC0 SHL SWAP1 DIV PUSH1 0xFF AND PUSH2 0x109E JUMPI DUP7 PUSH2 0x10A1 JUMP JUMPDEST PUSH1 0x0 JUMPDEST PUSH1 0x1 PUSH1 0x1 PUSH1 0xA0 SHL SUB AND DUP9 PUSH32 0x4CAFE8C90C0E3A2FA8DA6FA1827B31FF8BE7D9EFB7F85B110C3481AD9B36BEFF DUP8 PUSH1 0x40 MLOAD PUSH2 0x10DC SWAP2 DUP2 MSTORE PUSH1 0x20 ADD SWAP1 JUMP JUMPDEST PUSH1 0x40 MLOAD DUP1 SWAP2 SUB SWAP1 LOG4 JUMPDEST POP POP POP JUMPDEST POP POP POP POP JUMP JUMPDEST PUSH1 0x0 PUSH2 0xAA0 PUSH5 0xE8D4A51000 DUP4 PUSH2 0x4493 JUMP JUMPDEST PUSH2 0x1108 PUSH2 0x2AB0 JUMP JUMPDEST PUSH1 0x0 PUSH2 0x1113 DUP3 PUSH2 0x133F JUMP JUMPDEST SWAP1 POP PUSH1 0x1 PUSH1 0x1 PUSH1 0x40 SHL SUB DUP2 AND ISZERO PUSH2 0x1338 JUMPI PUSH1 0x40 MLOAD PUSH4 0x5768BBB5 PUSH1 0xE0 SHL DUP2 MSTORE PUSH1 0x0 SWAP1 PUSH1 0x1 PUSH1 0x1 PUSH1 0xA0 SHL SUB PUSH32 0x0 AND SWAP1 PUSH4 0x5768BBB5 SWAP1 PUSH2 0x1175 SWAP1 DUP10 SWAP1 DUP10 SWAP1 PUSH1 0x4 ADD PUSH2 0x4423 JUMP JUMPDEST PUSH1 0x20 PUSH1 0x40 MLOAD DUP1 DUP4 SUB DUP2 PUSH1 0x0 DUP8 GAS CALL ISZERO DUP1 ISZERO PUSH2 0x1194 JUMPI RETURNDATASIZE PUSH1 0x0 DUP1 RETURNDATACOPY RETURNDATASIZE PUSH1 0x0 REVERT JUMPDEST POP POP POP POP PUSH1 0x40 MLOAD RETURNDATASIZE PUSH1 0x1F NOT PUSH1 0x1F DUP3 ADD AND DUP3 ADD DUP1 PUSH1 0x40 MSTORE POP DUP2 ADD SWAP1 PUSH2 0x11B8 SWAP2 SWAP1 PUSH2 0x443A JUMP JUMPDEST PUSH1 0x0 DUP2 DUP2 MSTORE PUSH1 0x4 PUSH1 0x20 SWAP1 DUP2 MSTORE PUSH1 0x40 SWAP2 DUP3 SWAP1 KECCAK256 DUP3 MLOAD PUSH1 0xC0 DUP2 ADD DUP5 MSTORE DUP2 SLOAD PUSH1 0x1 PUSH1 0x1 PUSH1 0x40 SHL SUB DUP1 DUP3 AND DUP4 DUP8 ADD SWAP1 DUP2 MSTORE PUSH1 0x1 PUSH1 0x40 SHL DUP1 DUP5 DIV DUP4 AND PUSH1 0x60 DUP1 DUP8 ADD SWAP2 SWAP1 SWAP2 MSTORE PUSH1 0x1 PUSH1 0x80 SHL DUP1 DUP7 DIV DUP6 AND PUSH1 0x80 DUP1 DUP10 ADD SWAP2 SWAP1 SWAP2 MSTORE PUSH1 0xFF PUSH1 0x1 PUSH1 0xC0 SHL SWAP8 DUP9 SWAP1 DIV AND ISZERO ISZERO PUSH1 0xA0 DUP10 ADD MSTORE SWAP4 DUP8 MSTORE DUP10 MLOAD SWAP4 DUP5 ADD DUP11 MSTORE PUSH1 0x1 SWAP1 SWAP8 ADD SLOAD DUP1 DUP6 AND DUP5 MSTORE SWAP2 DUP3 DIV DUP5 AND DUP4 DUP10 ADD MSTORE SWAP6 DUP2 DIV DUP4 AND SWAP8 DUP3 ADD SWAP8 SWAP1 SWAP8 MSTORE SWAP2 SWAP1 SWAP6 DIV DUP6 AND SWAP3 DUP2 ADD SWAP3 SWAP1 SWAP3 MSTORE SWAP2 DUP3 ADD MSTORE DUP1 MLOAD MLOAD SWAP3 SWAP4 POP SWAP2 DUP5 DUP3 AND SWAP2 AND LT ISZERO PUSH2 0x1273 JUMPI PUSH2 0x1273 PUSH2 0x44B5 JUMP JUMPDEST DUP3 DUP2 PUSH1 0x0 ADD MLOAD PUSH1 0x20 ADD DUP2 DUP2 MLOAD PUSH2 0x1289 SWAP2 SWAP1 PUSH2 0x44CB JUMP JUMPDEST PUSH1 0x1 PUSH1 0x1 PUSH1 0x40 SHL SUB AND SWAP1 MSTORE POP DUP1 MLOAD DUP1 MLOAD DUP5 SWAP2 SWAP1 PUSH2 0x12A7 SWAP1 DUP4 SWAP1 PUSH2 0x44F6 JUMP JUMPDEST PUSH1 0x1 PUSH1 0x1 PUSH1 0x40 SHL SUB SWAP1 DUP2 AND SWAP1 SWAP2 MSTORE DUP3 MLOAD PUSH1 0x0 DUP6 DUP2 MSTORE PUSH1 0x4 PUSH1 0x20 SWAP1 DUP2 MSTORE PUSH1 0x40 SWAP2 DUP3 SWAP1 KECCAK256 DUP4 MLOAD DUP2 SLOAD SWAP3 DUP6 ADD MLOAD SWAP4 DUP6 ADD MLOAD PUSH1 0x60 SWAP1 SWAP6 ADD MLOAD ISZERO ISZERO PUSH1 0x1 PUSH1 0xC0 SHL MUL PUSH1 0xFF PUSH1 0xC0 SHL NOT SWAP6 DUP8 AND PUSH1 0x1 PUSH1 0x80 SHL MUL SWAP6 SWAP1 SWAP6 AND PUSH9 0xFFFFFFFFFFFFFFFFFF PUSH1 0x80 SHL NOT SWAP5 DUP8 AND PUSH1 0x1 PUSH1 0x40 SHL MUL PUSH1 0x1 PUSH1 0x1 PUSH1 0x80 SHL SUB NOT SWAP1 SWAP5 AND SWAP2 SWAP1 SWAP7 AND OR SWAP2 SWAP1 SWAP2 OR SWAP2 SWAP1 SWAP2 AND SWAP3 SWAP1 SWAP3 OR OR SWAP1 SSTORE POP PUSH2 0x10E5 DUP8 DUP8 PUSH2 0x35DC JUMP JUMPDEST POP POP POP POP POP JUMP JUMPDEST PUSH1 0x0 DUP1 PUSH2 0x1351 PUSH5 0x2540BE400 DUP5 PUSH2 0x4493 JUMP JUMPDEST SWAP1 POP DUP3 PUSH2 0x1363 DUP3 PUSH5 0x2540BE400 PUSH2 0x451E JUMP JUMPDEST GT ISZERO PUSH2 0xAA0 JUMPI PUSH2 0xAA0 PUSH2 0x44B5 JUMP JUMPDEST PUSH2 0x1379 PUSH2 0x36FA JUMP JUMPDEST PUSH2 0xA53 PUSH1 0x0 PUSH2 0x375B JUMP JUMPDEST PUSH2 0x138B PUSH2 0x88B JUMP JUMPDEST PUSH2 0xA53 PUSH1 0x0 DUP1 SLOAD PUSH1 0xFF NOT AND PUSH1 0x1 OR SWAP1 SSTORE JUMP JUMPDEST PUSH32 0x0 PUSH1 0x1 PUSH1 0x1 PUSH1 0xA0 SHL SUB AND PUSH4 0x4635229B PUSH1 0x40 MLOAD DUP2 PUSH4 0xFFFFFFFF AND PUSH1 0xE0 SHL DUP2 MSTORE PUSH1 0x4 ADD PUSH1 0x20 PUSH1 0x40 MLOAD DUP1 DUP4 SUB DUP2 DUP7 GAS STATICCALL ISZERO DUP1 ISZERO PUSH2 0x13FB JUMPI RETURNDATASIZE PUSH1 0x0 DUP1 RETURNDATACOPY RETURNDATASIZE PUSH1 0x0 REVERT JUMPDEST POP POP POP POP PUSH1 0x40 MLOAD RETURNDATASIZE PUSH1 0x1F NOT PUSH1 0x1F DUP3 ADD AND DUP3 ADD DUP1 PUSH1 0x40 MSTORE POP DUP2 ADD SWAP1 PUSH2 0x141F SWAP2 SWAP1 PUSH2 0x4401 JUMP JUMPDEST PUSH2 0x1465 JUMPI PUSH1 0x40 MLOAD PUSH3 0x461BCD PUSH1 0xE5 SHL DUP2 MSTORE PUSH1 0x20 PUSH1 0x4 DUP3 ADD MSTORE PUSH1 0x17 PUSH1 0x24 DUP3 ADD MSTORE PUSH23 0x4D75737420626520696E204D6F64652054657374696E67 PUSH1 0x48 SHL PUSH1 0x44 DUP3 ADD MSTORE PUSH1 0x64 ADD PUSH2 0xA4A JUMP JUMPDEST PUSH2 0x10E9 DUP5 DUP5 DUP5 DUP5 PUSH2 0x29AF JUMP JUMPDEST PUSH2 0x1479 PUSH2 0x2AB0 JUMP JUMPDEST PUSH1 0x0 PUSH2 0x1484 DUP3 PUSH2 0x133F JUMP JUMPDEST SWAP1 POP PUSH1 0x1 PUSH1 0x1 PUSH1 0x40 SHL SUB DUP2 AND ISZERO PUSH2 0x1338 JUMPI PUSH1 0x40 MLOAD PUSH4 0x5768BBB5 PUSH1 0xE0 SHL DUP2 MSTORE PUSH1 0x0 SWAP1 PUSH1 0x1 PUSH1 0x1 PUSH1 0xA0 SHL SUB PUSH32 0x0 AND SWAP1 PUSH4 0x5768BBB5 SWAP1 PUSH2 0x14E6 SWAP1 DUP10 SWAP1 DUP10 SWAP1 PUSH1 0x4 ADD PUSH2 0x4423 JUMP JUMPDEST PUSH1 0x20 PUSH1 0x40 MLOAD DUP1 DUP4 SUB DUP2 PUSH1 0x0 DUP8 GAS CALL ISZERO DUP1 ISZERO PUSH2 0x1505 JUMPI RETURNDATASIZE PUSH1 0x0 DUP1 RETURNDATACOPY RETURNDATASIZE PUSH1 0x0 REVERT JUMPDEST POP POP POP POP PUSH1 0x40 MLOAD RETURNDATASIZE PUSH1 0x1F NOT PUSH1 0x1F DUP3 ADD AND DUP3 ADD DUP1 PUSH1 0x40 MSTORE POP DUP2 ADD SWAP1 PUSH2 0x1529 SWAP2 SWAP1 PUSH2 0x443A JUMP JUMPDEST PUSH1 0x0 DUP2 DUP2 MSTORE PUSH1 0x4 PUSH1 0x20 SWAP1 DUP2 MSTORE PUSH1 0x40 SWAP2 DUP3 SWAP1 KECCAK256 DUP3 MLOAD PUSH1 0xC0 DUP2 ADD DUP5 MSTORE DUP2 SLOAD PUSH1 0x1 PUSH1 0x1 PUSH1 0x40 SHL SUB DUP1 DUP3 AND DUP4 DUP8 ADD SWAP1 DUP2 MSTORE PUSH1 0x1 PUSH1 0x40 SHL DUP1 DUP5 DIV DUP4 AND PUSH1 0x60 DUP1 DUP8 ADD SWAP2 SWAP1 SWAP2 MSTORE PUSH1 0x1 PUSH1 0x80 SHL DUP1 DUP7 DIV DUP6 AND PUSH1 0x80 DUP1 DUP10 ADD SWAP2 SWAP1 SWAP2 MSTORE PUSH1 0xFF PUSH1 0x1 PUSH1 0xC0 SHL SWAP8 DUP9 SWAP1 DIV AND ISZERO ISZERO PUSH1 0xA0 DUP10 ADD MSTORE SWAP4 DUP8 MSTORE DUP10 MLOAD SWAP4 DUP5 ADD DUP11 MSTORE PUSH1 0x1 SWAP1 SWAP8 ADD SLOAD DUP1 DUP6 AND DUP5 MSTORE SWAP2 DUP3 DIV DUP5 AND DUP4 DUP10 ADD MSTORE SWAP6 DUP2 DIV DUP4 AND DUP3 DUP10 ADD MSTORE SWAP3 SWAP1 SWAP3 DIV AND SWAP3 DUP2 ADD SWAP3 SWAP1 SWAP3 MSTORE SWAP2 DUP3 ADD MSTORE DUP1 MLOAD SWAP1 SWAP2 ADD DUP1 MLOAD SWAP3 SWAP4 POP SWAP1 SWAP2 DUP5 SWAP2 SWAP1 PUSH2 0x12A7 SWAP1 DUP4 SWAP1 PUSH2 0x44CB JUMP JUMPDEST PUSH1 0x0 PUSH2 0xAA0 PUSH6 0xFFFFFFFFFFFF DUP4 AND PUSH5 0x174876E800 PUSH2 0x451E JUMP JUMPDEST PUSH1 0x0 PUSH2 0x1607 PUSH2 0x6E6 DUP4 PUSH2 0x133F JUMP JUMPDEST SWAP1 POP DUP1 PUSH1 0x0 SUB PUSH2 0x161B JUMPI PUSH2 0xAA0 PUSH1 0x1 PUSH2 0x1D5E JUMP JUMPDEST SWAP2 SWAP1 POP JUMP JUMPDEST PUSH1 0x0 DUP1 SLOAD PUSH1 0xFF AND DUP1 PUSH2 0x1639 JUMPI POP PUSH1 0x0 SLOAD PUSH2 0x100 SWAP1 DIV PUSH1 0xFF AND JUMPDEST SWAP1 POP SWAP1 JUMP JUMPDEST PUSH2 0x1646 PUSH2 0x2AB0 JUMP JUMPDEST PUSH1 0x0 PUSH2 0x1651 DUP3 PUSH2 0x133F JUMP JUMPDEST SWAP1 POP PUSH1 0x1 PUSH1 0x1 PUSH1 0x40 SHL SUB DUP2 AND ISZERO PUSH2 0x1338 JUMPI PUSH1 0x40 MLOAD PUSH4 0x5768BBB5 PUSH1 0xE0 SHL DUP2 MSTORE PUSH1 0x0 SWAP1 PUSH1 0x1 PUSH1 0x1 PUSH1 0xA0 SHL SUB PUSH32 0x0 AND SWAP1 PUSH4 0x5768BBB5 SWAP1 PUSH2 0x16B3 SWAP1 DUP10 SWAP1 DUP10 SWAP1 PUSH1 0x4 ADD PUSH2 0x4423 JUMP JUMPDEST PUSH1 0x20 PUSH1 0x40 MLOAD DUP1 DUP4 SUB DUP2 PUSH1 0x0 DUP8 GAS CALL ISZERO DUP1 ISZERO PUSH2 0x16D2 JUMPI RETURNDATASIZE PUSH1 0x0 DUP1 RETURNDATACOPY RETURNDATASIZE PUSH1 0x0 REVERT JUMPDEST POP POP POP POP PUSH1 0x40 MLOAD RETURNDATASIZE PUSH1 0x1F NOT PUSH1 0x1F DUP3 ADD AND DUP3 ADD DUP1 PUSH1 0x40 MSTORE POP DUP2 ADD SWAP1 PUSH2 0x16F6 SWAP2 SWAP1 PUSH2 0x443A JUMP JUMPDEST PUSH1 0x0 DUP2 DUP2 MSTORE PUSH1 0x4 PUSH1 0x20 SWAP1 DUP2 MSTORE PUSH1 0x40 SWAP2 DUP3 SWAP1 KECCAK256 DUP3 MLOAD PUSH1 0xC0 DUP2 ADD DUP5 MSTORE DUP2 SLOAD PUSH1 0x1 PUSH1 0x1 PUSH1 0x40 SHL SUB DUP1 DUP3 AND DUP4 DUP8 ADD SWAP1 DUP2 MSTORE PUSH1 0x1 PUSH1 0x40 SHL DUP1 DUP5 DIV DUP4 AND PUSH1 0x60 DUP1 DUP8 ADD SWAP2 SWAP1 SWAP2 MSTORE PUSH1 0x1 PUSH1 0x80 SHL DUP1 DUP7 DIV DUP6 AND PUSH1 0x80 DUP1 DUP10 ADD SWAP2 SWAP1 SWAP2 MSTORE PUSH1 0xFF PUSH1 0x1 PUSH1 0xC0 SHL SWAP8 DUP9 SWAP1 DIV AND ISZERO ISZERO PUSH1 0xA0 DUP10 ADD MSTORE SWAP4 DUP8 MSTORE DUP10 MLOAD SWAP4 DUP5 ADD DUP11 MSTORE PUSH1 0x1 SWAP1 SWAP8 ADD SLOAD DUP1 DUP6 AND DUP5 MSTORE SWAP2 DUP3 DIV DUP5 AND DUP4 DUP10 ADD SWAP1 DUP2 MSTORE SWAP7 DUP3 DIV DUP5 AND SWAP9 DUP4 ADD SWAP9 SWAP1 SWAP9 MSTORE SWAP3 SWAP1 SWAP3 DIV AND SWAP5 DUP2 ADD SWAP5 SWAP1 SWAP5 MSTORE SWAP2 DUP3 ADD SWAP3 SWAP1 SWAP3 MSTORE DUP2 MLOAD SWAP3 SWAP4 POP SWAP2 DUP5 SWAP2 SWAP1 PUSH2 0x17AF SWAP1 DUP4 SWAP1 PUSH2 0x44F6 JUMP JUMPDEST PUSH1 0x1 PUSH1 0x1 PUSH1 0x40 SHL SUB SWAP1 DUP2 AND SWAP1 SWAP2 MSTORE PUSH1 0x20 DUP1 DUP5 ADD MLOAD PUSH1 0x0 DUP7 DUP2 MSTORE PUSH1 0x4 DUP4 MSTORE PUSH1 0x40 SWAP1 DUP2 SWAP1 KECCAK256 DUP3 MLOAD PUSH1 0x1 SWAP1 SWAP2 ADD DUP1 SLOAD SWAP5 DUP5 ADD MLOAD SWAP3 DUP5 ADD MLOAD PUSH1 0x60 SWAP1 SWAP5 ADD MLOAD DUP7 AND PUSH1 0x1 PUSH1 0xC0 SHL MUL PUSH1 0x1 PUSH1 0x1 PUSH1 0xC0 SHL SUB SWAP5 DUP8 AND PUSH1 0x1 PUSH1 0x80 SHL MUL SWAP5 SWAP1 SWAP5 AND PUSH1 0x1 PUSH1 0x1 PUSH1 0x80 SHL SUB SWAP4 DUP8 AND PUSH1 0x1 PUSH1 0x40 SHL MUL PUSH1 0x1 PUSH1 0x1 PUSH1 0x80 SHL SUB NOT SWAP1 SWAP7 AND SWAP3 SWAP1 SWAP7 AND SWAP2 SWAP1 SWAP2 OR SWAP4 SWAP1 SWAP4 OR AND SWAP3 SWAP1 SWAP3 OR SWAP2 SWAP1 SWAP2 OR SWAP1 SSTORE POP PUSH2 0x10E5 DUP8 DUP8 PUSH2 0x35DC JUMP JUMPDEST PUSH2 0x184D PUSH2 0x2AB0 JUMP JUMPDEST PUSH1 0x0 PUSH2 0x1858 DUP3 PUSH2 0x133F JUMP JUMPDEST SWAP1 POP PUSH1 0x1 PUSH1 0x1 PUSH1 0x40 SHL SUB DUP2 AND ISZERO PUSH2 0x1338 JUMPI PUSH1 0x40 MLOAD PUSH4 0x5768BBB5 PUSH1 0xE0 SHL DUP2 MSTORE PUSH1 0x0 SWAP1 PUSH1 0x1 PUSH1 0x1 PUSH1 0xA0 SHL SUB PUSH32 0x0 AND SWAP1 PUSH4 0x5768BBB5 SWAP1 PUSH2 0x18BA SWAP1 DUP10 SWAP1 DUP10 SWAP1 PUSH1 0x4 ADD PUSH2 0x4423 JUMP JUMPDEST PUSH1 0x20 PUSH1 0x40 MLOAD DUP1 DUP4 SUB DUP2 PUSH1 0x0 DUP8 GAS CALL ISZERO DUP1 ISZERO PUSH2 0x18D9 JUMPI RETURNDATASIZE PUSH1 0x0 DUP1 RETURNDATACOPY RETURNDATASIZE PUSH1 0x0 REVERT JUMPDEST POP POP POP POP PUSH1 0x40 MLOAD RETURNDATASIZE PUSH1 0x1F NOT PUSH1 0x1F DUP3 ADD AND DUP3 ADD DUP1 PUSH1 0x40 MSTORE POP DUP2 ADD SWAP1 PUSH2 0x18FD SWAP2 SWAP1 PUSH2 0x443A JUMP JUMPDEST PUSH1 0x0 DUP2 DUP2 MSTORE PUSH1 0x4 PUSH1 0x20 SWAP1 DUP2 MSTORE PUSH1 0x40 SWAP2 DUP3 SWAP1 KECCAK256 DUP3 MLOAD PUSH1 0xC0 DUP2 ADD DUP5 MSTORE DUP2 SLOAD PUSH1 0x1 PUSH1 0x1 PUSH1 0x40 SHL SUB DUP1 DUP3 AND DUP4 DUP8 ADD SWAP1 DUP2 MSTORE PUSH1 0x1 PUSH1 0x40 SHL DUP1 DUP5 DIV DUP4 AND PUSH1 0x60 DUP1 DUP8 ADD SWAP2 SWAP1 SWAP2 MSTORE PUSH1 0x1 PUSH1 0x80 SHL DUP1 DUP7 DIV DUP6 AND PUSH1 0x80 DUP1 DUP10 ADD SWAP2 SWAP1 SWAP2 MSTORE PUSH1 0xFF PUSH1 0x1 PUSH1 0xC0 SHL SWAP8 DUP9 SWAP1 DIV AND ISZERO ISZERO PUSH1 0xA0 DUP10 ADD MSTORE SWAP4 DUP8 MSTORE DUP10 MLOAD SWAP4 DUP5 ADD DUP11 MSTORE PUSH1 0x1 SWAP1 SWAP8 ADD SLOAD DUP1 DUP6 AND DUP5 MSTORE SWAP2 DUP3 DIV DUP5 AND DUP4 DUP10 ADD MSTORE SWAP6 DUP2 DIV DUP4 AND SWAP8 DUP3 ADD SWAP8 SWAP1 SWAP8 MSTORE SWAP2 SWAP1 SWAP6 DIV SWAP1 SWAP5 AND SWAP2 DUP5 ADD SWAP2 SWAP1 SWAP2 MSTORE DUP1 DUP3 ADD SWAP3 SWAP1 SWAP3 MSTORE DUP2 MLOAD ADD DUP1 MLOAD SWAP3 SWAP4 POP SWAP1 SWAP2 DUP5 SWAP2 SWAP1 PUSH2 0x19BA SWAP1 DUP4 SWAP1 PUSH2 0x44F6 JUMP JUMPDEST PUSH1 0x1 PUSH1 0x1 PUSH1 0x40 SHL SUB AND SWAP1 MSTORE POP DUP1 MLOAD DUP1 MLOAD DUP5 SWAP2 SWAP1 PUSH2 0x12A7 SWAP1 DUP4 SWAP1 PUSH2 0x44CB JUMP JUMPDEST PUSH2 0x19E0 PUSH2 0x2AB0 JUMP JUMPDEST PUSH1 0x0 PUSH2 0x19EB DUP3 PUSH2 0x133F JUMP JUMPDEST SWAP1 POP PUSH1 0x1 PUSH1 0x1 PUSH1 0x40 SHL SUB DUP2 AND ISZERO PUSH2 0x1338 JUMPI PUSH1 0x40 MLOAD PUSH4 0x5768BBB5 PUSH1 0xE0 SHL DUP2 MSTORE PUSH1 0x0 SWAP1 PUSH1 0x1 PUSH1 0x1 PUSH1 0xA0 SHL SUB PUSH32 0x0 AND SWAP1 PUSH4 0x5768BBB5 SWAP1 PUSH2 0x1A4D SWAP1 DUP10 SWAP1 DUP10 SWAP1 PUSH1 0x4 ADD PUSH2 0x4423 JUMP JUMPDEST PUSH1 0x20 PUSH1 0x40 MLOAD DUP1 DUP4 SUB DUP2 PUSH1 0x0 DUP8 GAS CALL ISZERO DUP1 ISZERO PUSH2 0x1A6C JUMPI RETURNDATASIZE PUSH1 0x0 DUP1 RETURNDATACOPY RETURNDATASIZE PUSH1 0x0 REVERT JUMPDEST POP POP POP POP PUSH1 0x40 MLOAD RETURNDATASIZE PUSH1 0x1F NOT PUSH1 0x1F DUP3 ADD AND DUP3 ADD DUP1 PUSH1 0x40 MSTORE POP DUP2 ADD SWAP1 PUSH2 0x1A90 SWAP2 SWAP1 PUSH2 0x443A JUMP JUMPDEST PUSH1 0x0 DUP2 DUP2 MSTORE PUSH1 0x4 PUSH1 0x20 SWAP1 DUP2 MSTORE PUSH1 0x40 SWAP2 DUP3 SWAP1 KECCAK256 DUP3 MLOAD PUSH1 0xC0 DUP2 ADD DUP5 MSTORE DUP2 SLOAD PUSH1 0x1 PUSH1 0x1 PUSH1 0x40 SHL SUB DUP1 DUP3 AND DUP4 DUP8 ADD SWAP1 DUP2 MSTORE PUSH1 0x1 PUSH1 0x40 SHL DUP1 DUP5 DIV DUP4 AND PUSH1 0x60 DUP1 DUP8 ADD SWAP2 SWAP1 SWAP2 MSTORE PUSH1 0x1 PUSH1 0x80 SHL DUP1 DUP7 DIV DUP6 AND PUSH1 0x80 DUP1 DUP10 ADD SWAP2 SWAP1 SWAP2 MSTORE PUSH1 0xFF PUSH1 0x1 PUSH1 0xC0 SHL SWAP8 DUP9 SWAP1 DIV AND ISZERO ISZERO PUSH1 0xA0 DUP10 ADD MSTORE SWAP4 DUP8 MSTORE DUP10 MLOAD SWAP4 DUP5 ADD DUP11 MSTORE PUSH1 0x1 SWAP1 SWAP8 ADD SLOAD DUP1 DUP6 AND DUP5 MSTORE SWAP2 DUP3 DIV DUP5 AND DUP4 DUP10 ADD MSTORE SWAP6 DUP2 DIV DUP4 AND SWAP8 DUP3 ADD SWAP8 SWAP1 SWAP8 MSTORE SWAP2 SWAP1 SWAP6 DIV SWAP1 SWAP5 AND SWAP2 DUP5 ADD SWAP2 DUP3 MSTORE SWAP2 DUP3 ADD SWAP3 SWAP1 SWAP3 MSTORE DUP2 MLOAD SWAP3 SWAP4 POP SWAP2 DUP5 SWAP2 SWAP1 PUSH2 0x1B48 SWAP1 DUP4 SWAP1 PUSH2 0x44CB JUMP JUMPDEST PUSH1 0x1 PUSH1 0x1 PUSH1 0x40 SHL SUB SWAP1 DUP2 AND SWAP1 SWAP2 MSTORE PUSH1 0x20 DUP4 ADD MLOAD MLOAD AND ISZERO SWAP1 POP PUSH2 0x1BF4 JUMPI PUSH1 0x20 DUP2 ADD MLOAD PUSH1 0x40 DUP2 ADD MLOAD PUSH1 0x60 SWAP1 SWAP2 ADD MLOAD PUSH1 0x0 SWAP2 PUSH2 0x1B80 SWAP2 PUSH2 0x44F6 JUMP JUMPDEST SWAP1 POP DUP1 PUSH1 0x1 PUSH1 0x1 PUSH1 0x40 SHL SUB AND DUP3 PUSH1 0x20 ADD MLOAD PUSH1 0x0 ADD MLOAD PUSH1 0x1 PUSH1 0x1 PUSH1 0x40 SHL SUB AND LT ISZERO PUSH2 0x1BAC JUMPI POP PUSH1 0x20 DUP2 ADD MLOAD MLOAD JUMPDEST DUP1 DUP3 PUSH1 0x20 ADD MLOAD PUSH1 0x0 ADD DUP2 DUP2 MLOAD PUSH2 0x1BC2 SWAP2 SWAP1 PUSH2 0x44F6 JUMP JUMPDEST PUSH1 0x1 PUSH1 0x1 PUSH1 0x40 SHL SUB AND SWAP1 MSTORE POP PUSH1 0x20 DUP3 ADD MLOAD PUSH1 0x40 ADD DUP1 MLOAD DUP3 SWAP2 SWAP1 PUSH2 0x1BE6 SWAP1 DUP4 SWAP1 PUSH2 0x44CB JUMP JUMPDEST PUSH1 0x1 PUSH1 0x1 PUSH1 0x40 SHL SUB AND SWAP1 MSTORE POP POP JUMPDEST PUSH1 0x20 DUP1 DUP3 ADD MLOAD PUSH1 0x0 DUP5 DUP2 MSTORE PUSH1 0x4 DUP4 MSTORE PUSH1 0x40 SWAP1 DUP2 SWAP1 KECCAK256 DUP3 MLOAD PUSH1 0x1 SWAP1 SWAP2 ADD DUP1 SLOAD SWAP5 DUP5 ADD MLOAD SWAP3 DUP5 ADD MLOAD PUSH1 0x60 SWAP1 SWAP5 ADD MLOAD PUSH1 0x1 PUSH1 0x1 PUSH1 0x40 SHL SUB SWAP1 DUP2 AND PUSH1 0x1 PUSH1 0xC0 SHL MUL PUSH1 0x1 PUSH1 0x1 PUSH1 0xC0 SHL SUB SWAP6 DUP3 AND PUSH1 0x1 PUSH1 0x80 SHL MUL SWAP6 SWAP1 SWAP6 AND PUSH1 0x1 PUSH1 0x1 PUSH1 0x80 SHL SUB SWAP5 DUP3 AND PUSH1 0x1 PUSH1 0x40 SHL MUL PUSH1 0x1 PUSH1 0x1 PUSH1 0x80 SHL SUB NOT SWAP1 SWAP8 AND SWAP2 SWAP1 SWAP4 AND OR SWAP5 SWAP1 SWAP5 OR SWAP2 SWAP1 SWAP2 AND OR OR SWAP1 SSTORE PUSH2 0x10E5 DUP8 DUP8 PUSH2 0x35DC JUMP JUMPDEST PUSH1 0x0 PUSH2 0x1C8D PUSH2 0x6E6 DUP5 DUP5 PUSH2 0x2402 JUMP JUMPDEST SWAP4 SWAP3 POP POP POP JUMP JUMPDEST PUSH2 0xD6A DUP4 DUP4 CALLER JUMPDEST DUP5 PUSH2 0x37B6 JUMP JUMPDEST PUSH1 0x40 MLOAD PUSH4 0x1537F30B PUSH1 0xE3 SHL DUP2 MSTORE PUSH1 0x4 DUP2 ADD DUP3 SWAP1 MSTORE PUSH1 0x0 SWAP1 PUSH2 0xAA0 SWAP1 PUSH1 0x1 PUSH1 0x1 PUSH1 0xA0 SHL SUB PUSH32 0x0 AND SWAP1 PUSH4 0xA9BF9858 SWAP1 PUSH1 0x24 ADD PUSH1 0x20 PUSH1 0x40 MLOAD DUP1 DUP4 SUB DUP2 DUP7 GAS STATICCALL ISZERO DUP1 ISZERO PUSH2 0x1D0D JUMPI RETURNDATASIZE PUSH1 0x0 DUP1 RETURNDATACOPY RETURNDATASIZE PUSH1 0x0 REVERT JUMPDEST POP POP POP POP PUSH1 0x40 MLOAD RETURNDATASIZE PUSH1 0x1F NOT PUSH1 0x1F DUP3 ADD AND DUP3 ADD DUP1 PUSH1 0x40 MSTORE POP DUP2 ADD SWAP1 PUSH2 0x556 SWAP2 SWAP1 PUSH2 0x443A JUMP JUMPDEST PUSH1 0x1 PUSH1 0x1 PUSH1 0xA0 SHL SUB DUP3 AND ISZERO PUSH2 0x1D4C JUMPI PUSH2 0x1D4C DUP3 PUSH1 0x0 CALLER PUSH2 0xD50 JUMP JUMPDEST CALLVALUE ISZERO PUSH2 0xA6B JUMPI PUSH2 0xA6B PUSH1 0x0 DUP1 CALLER PUSH2 0xD64 JUMP JUMPDEST PUSH1 0x0 PUSH2 0xAA0 PUSH1 0x1 PUSH1 0x1 PUSH1 0x40 SHL SUB DUP4 AND PUSH5 0x2540BE400 PUSH2 0x451E JUMP JUMPDEST PUSH2 0xA6B DUP3 PUSH1 0x0 CALLER PUSH2 0x1C9B JUMP JUMPDEST PUSH2 0x1D8C PUSH2 0x2AB0 JUMP JUMPDEST PUSH1 0x0 PUSH2 0x1D97 DUP3 PUSH2 0x133F JUMP JUMPDEST SWAP1 POP PUSH1 0x1 PUSH1 0x1 PUSH1 0x40 SHL SUB DUP2 AND ISZERO PUSH2 0x1338 JUMPI PUSH1 0x40 MLOAD PUSH4 0x5768BBB5 PUSH1 0xE0 SHL DUP2 MSTORE PUSH1 0x0 SWAP1 PUSH1 0x1 PUSH1 0x1 PUSH1 0xA0 SHL SUB PUSH32 0x0 AND SWAP1 PUSH4 0x5768BBB5 SWAP1 PUSH2 0x1DF9 SWAP1 DUP10 SWAP1 DUP10 SWAP1 PUSH1 0x4 ADD PUSH2 0x4423 JUMP JUMPDEST PUSH1 0x20 PUSH1 0x40 MLOAD DUP1 DUP4 SUB DUP2 PUSH1 0x0 DUP8 GAS CALL ISZERO DUP1 ISZERO PUSH2 0x1E18 JUMPI RETURNDATASIZE PUSH1 0x0 DUP1 RETURNDATACOPY RETURNDATASIZE PUSH1 0x0 REVERT JUMPDEST POP POP POP POP PUSH1 0x40 MLOAD RETURNDATASIZE PUSH1 0x1F NOT PUSH1 0x1F DUP3 ADD AND DUP3 ADD DUP1 PUSH1 0x40 MSTORE POP DUP2 ADD SWAP1 PUSH2 0x1E3C SWAP2 SWAP1 PUSH2 0x443A JUMP JUMPDEST PUSH1 0x0 DUP2 DUP2 MSTORE PUSH1 0x4 PUSH1 0x20 SWAP1 DUP2 MSTORE PUSH1 0x40 SWAP2 DUP3 SWAP1 KECCAK256 DUP3 MLOAD PUSH1 0xC0 DUP2 ADD DUP5 MSTORE DUP2 SLOAD PUSH1 0x1 PUSH1 0x1 PUSH1 0x40 SHL SUB DUP1 DUP3 AND DUP4 DUP8 ADD SWAP1 DUP2 MSTORE PUSH1 0x1 PUSH1 0x40 SHL DUP1 DUP5 DIV DUP4 AND PUSH1 0x60 DUP1 DUP8 ADD SWAP2 SWAP1 SWAP2 MSTORE PUSH1 0x1 PUSH1 0x80 SHL DUP1 DUP7 DIV DUP6 AND PUSH1 0x80 DUP1 DUP10 ADD SWAP2 SWAP1 SWAP2 MSTORE PUSH1 0xFF PUSH1 0x1 PUSH1 0xC0 SHL SWAP8 DUP9 SWAP1 DIV AND ISZERO ISZERO PUSH1 0xA0 DUP10 ADD MSTORE SWAP4 DUP8 MSTORE DUP10 MLOAD SWAP4 DUP5 ADD DUP11 MSTORE PUSH1 0x1 SWAP1 SWAP8 ADD SLOAD DUP1 DUP6 AND DUP5 MSTORE SWAP2 DUP3 DIV DUP5 AND DUP4 DUP10 ADD MSTORE SWAP6 DUP2 DIV DUP4 AND SWAP8 DUP3 ADD SWAP8 SWAP1 SWAP8 MSTORE SWAP2 SWAP1 SWAP6 DIV SWAP1 SWAP5 AND SWAP2 DUP5 ADD SWAP2 DUP3 MSTORE SWAP2 DUP3 ADD SWAP3 SWAP1 SWAP3 MSTORE DUP2 MLOAD SWAP3 SWAP4 POP SWAP2 DUP5 SWAP2 SWAP1 PUSH2 0x1EF4 SWAP1 DUP4 SWAP1 PUSH2 0x44F6 JUMP JUMPDEST PUSH1 0x1 PUSH1 0x1 PUSH1 0x40 SHL SUB SWAP1 DUP2 AND SWAP1 SWAP2 MSTORE PUSH1 0x20 DUP4 ADD MLOAD PUSH1 0x60 DUP2 ADD MLOAD PUSH1 0x40 SWAP1 SWAP2 ADD MLOAD SWAP1 DUP3 AND SWAP2 AND GT ISZERO SWAP1 POP PUSH2 0x1BF4 JUMPI PUSH1 0x20 DUP2 ADD MLOAD PUSH1 0x60 DUP2 ADD MLOAD PUSH1 0x40 SWAP1 SWAP2 ADD MLOAD PUSH1 0x0 SWAP2 PUSH2 0x1F3B SWAP2 PUSH2 0x44F6 JUMP JUMPDEST SWAP1 POP DUP1 DUP3 PUSH1 0x20 ADD MLOAD PUSH1 0x0 ADD DUP2 DUP2 MLOAD PUSH2 0x1F53 SWAP2 SWAP1 PUSH2 0x44CB JUMP JUMPDEST PUSH1 0x1 PUSH1 0x1 PUSH1 0x40 SHL SUB AND SWAP1 MSTORE POP PUSH1 0x20 DUP3 ADD MLOAD PUSH1 0x40 ADD DUP1 MLOAD DUP3 SWAP2 SWAP1 PUSH2 0x1BE6 SWAP1 DUP4 SWAP1 PUSH2 0x44F6 JUMP JUMPDEST PUSH2 0x1F7F PUSH2 0x36FA JUMP JUMPDEST PUSH2 0xA53 PUSH1 0x0 DUP1 SLOAD PUSH2 0xFF00 NOT AND PUSH2 0x100 OR SWAP1 SSTORE JUMP JUMPDEST PUSH1 0x0 PUSH2 0xAA0 PUSH4 0xFFFFFFFF DUP4 AND PUSH5 0xE8D4A51000 PUSH2 0x451E JUMP JUMPDEST PUSH32 0x0 PUSH1 0x1 PUSH1 0x1 PUSH1 0xA0 SHL SUB AND PUSH4 0x4635229B PUSH1 0x40 MLOAD DUP2 PUSH4 0xFFFFFFFF AND PUSH1 0xE0 SHL DUP2 MSTORE PUSH1 0x4 ADD PUSH1 0x20 PUSH1 0x40 MLOAD DUP1 DUP4 SUB DUP2 DUP7 GAS STATICCALL ISZERO DUP1 ISZERO PUSH2 0x2008 JUMPI RETURNDATASIZE PUSH1 0x0 DUP1 RETURNDATACOPY RETURNDATASIZE PUSH1 0x0 REVERT JUMPDEST POP POP POP POP PUSH1 0x40 MLOAD RETURNDATASIZE PUSH1 0x1F NOT PUSH1 0x1F DUP3 ADD AND DUP3 ADD DUP1 PUSH1 0x40 MSTORE POP DUP2 ADD SWAP1 PUSH2 0x202C SWAP2 SWAP1 PUSH2 0x4401 JUMP JUMPDEST PUSH2 0x2072 JUMPI PUSH1 0x40 MLOAD PUSH3 0x461BCD PUSH1 0xE5 SHL DUP2 MSTORE PUSH1 0x20 PUSH1 0x4 DUP3 ADD MSTORE PUSH1 0x17 PUSH1 0x24 DUP3 ADD MSTORE PUSH23 0x4D75737420626520696E204D6F64652054657374696E67 PUSH1 0x48 SHL PUSH1 0x44 DUP3 ADD MSTORE PUSH1 0x64 ADD PUSH2 0xA4A JUMP JUMPDEST PUSH2 0xD6A DUP4 PUSH1 0x0 DUP5 DUP5 PUSH2 0x29AF JUMP JUMPDEST PUSH2 0xD6A DUP4 PUSH1 0x0 DUP5 DUP5 PUSH2 0x37B6 JUMP JUMPDEST PUSH2 0x2094 PUSH2 0x2AB0 JUMP JUMPDEST PUSH1 0x0 PUSH2 0x209F DUP3 PUSH2 0x133F JUMP JUMPDEST SWAP1 POP PUSH1 0x1 PUSH1 0x1 PUSH1 0x40 SHL SUB DUP2 AND ISZERO PUSH2 0x1338 JUMPI PUSH1 0x40 MLOAD PUSH4 0x5768BBB5 PUSH1 0xE0 SHL DUP2 MSTORE PUSH1 0x0 SWAP1 PUSH1 0x1 PUSH1 0x1 PUSH1 0xA0 SHL SUB PUSH32 0x0 AND SWAP1 PUSH4 0x5768BBB5 SWAP1 PUSH2 0x2101 SWAP1 DUP10 SWAP1 DUP10 SWAP1 PUSH1 0x4 ADD PUSH2 0x4423 JUMP JUMPDEST PUSH1 0x20 PUSH1 0x40 MLOAD DUP1 DUP4 SUB DUP2 PUSH1 0x0 DUP8 GAS CALL ISZERO DUP1 ISZERO PUSH2 0x2120 JUMPI RETURNDATASIZE PUSH1 0x0 DUP1 RETURNDATACOPY RETURNDATASIZE PUSH1 0x0 REVERT JUMPDEST POP POP POP POP PUSH1 0x40 MLOAD RETURNDATASIZE PUSH1 0x1F NOT PUSH1 0x1F DUP3 ADD AND DUP3 ADD DUP1 PUSH1 0x40 MSTORE POP DUP2 ADD SWAP1 PUSH2 0x2144 SWAP2 SWAP1 PUSH2 0x443A JUMP JUMPDEST PUSH1 0x0 DUP2 DUP2 MSTORE PUSH1 0x4 PUSH1 0x20 SWAP1 DUP2 MSTORE PUSH1 0x40 SWAP2 DUP3 SWAP1 KECCAK256 DUP3 MLOAD PUSH1 0xC0 DUP2 ADD DUP5 MSTORE DUP2 SLOAD PUSH1 0x1 PUSH1 0x1 PUSH1 0x40 SHL SUB DUP1 DUP3 AND DUP4 DUP8 ADD SWAP1 DUP2 MSTORE PUSH1 0x1 PUSH1 0x40 SHL DUP1 DUP5 DIV DUP4 AND PUSH1 0x60 DUP1 DUP8 ADD SWAP2 SWAP1 SWAP2 MSTORE PUSH1 0x1 PUSH1 0x80 SHL DUP1 DUP7 DIV DUP6 AND PUSH1 0x80 DUP1 DUP10 ADD SWAP2 SWAP1 SWAP2 MSTORE PUSH1 0xFF PUSH1 0x1 PUSH1 0xC0 SHL SWAP8 DUP9 SWAP1 DIV AND ISZERO ISZERO PUSH1 0xA0 DUP10 ADD MSTORE SWAP4 DUP8 MSTORE DUP10 MLOAD SWAP4 DUP5 ADD DUP11 MSTORE PUSH1 0x1 SWAP1 SWAP8 ADD SLOAD DUP1 DUP6 AND DUP5 MSTORE SWAP2 DUP3 DIV DUP5 AND DUP4 DUP10 ADD MSTORE SWAP6 DUP2 DIV DUP4 AND DUP3 DUP10 ADD MSTORE SWAP3 SWAP1 SWAP3 DIV AND SWAP3 DUP2 ADD SWAP3 SWAP1 SWAP3 MSTORE SWAP2 DUP3 ADD MSTORE DUP1 MLOAD SWAP1 SWAP2 ADD DUP1 MLOAD SWAP3 SWAP4 POP SWAP1 SWAP2 DUP5 SWAP2 SWAP1 PUSH2 0x12A7 SWAP1 DUP4 SWAP1 PUSH2 0x44F6 JUMP JUMPDEST PUSH2 0x10E9 DUP5 DUP5 DUP5 DUP5 PUSH2 0x37B6 JUMP JUMPDEST PUSH2 0x220F PUSH2 0x2AB0 JUMP JUMPDEST PUSH1 0x0 PUSH2 0x221A DUP3 PUSH2 0x133F JUMP JUMPDEST SWAP1 POP PUSH1 0x1 PUSH1 0x1 PUSH1 0x40 SHL SUB DUP2 AND ISZERO PUSH2 0x1338 JUMPI PUSH1 0x40 MLOAD PUSH4 0x5768BBB5 PUSH1 0xE0 SHL DUP2 MSTORE PUSH1 0x0 SWAP1 PUSH1 0x1 PUSH1 0x1 PUSH1 0xA0 SHL SUB PUSH32 0x0 AND SWAP1 PUSH4 0x5768BBB5 SWAP1 PUSH2 0x227C SWAP1 DUP10 SWAP1 DUP10 SWAP1 PUSH1 0x4 ADD PUSH2 0x4423 JUMP JUMPDEST PUSH1 0x20 PUSH1 0x40 MLOAD DUP1 DUP4 SUB DUP2 PUSH1 0x0 DUP8 GAS CALL ISZERO DUP1 ISZERO PUSH2 0x229B JUMPI RETURNDATASIZE PUSH1 0x0 DUP1 RETURNDATACOPY RETURNDATASIZE PUSH1 0x0 REVERT JUMPDEST POP POP POP POP PUSH1 0x40 MLOAD RETURNDATASIZE PUSH1 0x1F NOT PUSH1 0x1F DUP3 ADD AND DUP3 ADD DUP1 PUSH1 0x40 MSTORE POP DUP2 ADD SWAP1 PUSH2 0x22BF SWAP2 SWAP1 PUSH2 0x443A JUMP JUMPDEST PUSH1 0x0 DUP2 DUP2 MSTORE PUSH1 0x4 PUSH1 0x20 SWAP1 DUP2 MSTORE PUSH1 0x40 SWAP2 DUP3 SWAP1 KECCAK256 DUP3 MLOAD PUSH1 0xC0 DUP2 ADD DUP5 MSTORE DUP2 SLOAD PUSH1 0x1 PUSH1 0x1 PUSH1 0x40 SHL SUB DUP1 DUP3 AND DUP4 DUP8 ADD SWAP1 DUP2 MSTORE PUSH1 0x1 PUSH1 0x40 SHL DUP1 DUP5 DIV DUP4 AND PUSH1 0x60 DUP1 DUP8 ADD SWAP2 SWAP1 SWAP2 MSTORE PUSH1 0x1 PUSH1 0x80 SHL DUP1 DUP7 DIV DUP6 AND PUSH1 0x80 DUP1 DUP10 ADD SWAP2 SWAP1 SWAP2 MSTORE PUSH1 0xFF PUSH1 0x1 PUSH1 0xC0 SHL SWAP8 DUP9 SWAP1 DIV AND ISZERO ISZERO PUSH1 0xA0 DUP10 ADD MSTORE SWAP4 DUP8 MSTORE DUP10 MLOAD SWAP4 DUP5 ADD DUP11 MSTORE PUSH1 0x1 SWAP1 SWAP8 ADD SLOAD DUP1 DUP6 AND DUP5 MSTORE SWAP2 DUP3 DIV DUP5 AND DUP4 DUP10 ADD SWAP1 DUP2 MSTORE SWAP7 DUP3 DIV DUP5 AND SWAP9 DUP4 ADD SWAP9 SWAP1 SWAP9 MSTORE SWAP3 SWAP1 SWAP3 DIV AND SWAP5 DUP2 ADD SWAP5 SWAP1 SWAP5 MSTORE SWAP2 DUP3 ADD SWAP3 SWAP1 SWAP3 MSTORE DUP2 MLOAD SWAP3 SWAP4 POP SWAP2 DUP5 SWAP2 SWAP1 PUSH2 0x17AF SWAP1 DUP4 SWAP1 PUSH2 0x44CB JUMP JUMPDEST PUSH2 0x2380 PUSH2 0x36FA JUMP JUMPDEST PUSH1 0x1 PUSH1 0x1 PUSH1 0xA0 SHL SUB DUP2 AND PUSH2 0x23E5 JUMPI PUSH1 0x40 MLOAD PUSH3 0x461BCD PUSH1 0xE5 SHL DUP2 MSTORE PUSH1 0x20 PUSH1 0x4 DUP3 ADD MSTORE PUSH1 0x26 PUSH1 0x24 DUP3 ADD MSTORE PUSH32 0x4F776E61626C653A206E6577206F776E657220697320746865207A65726F2061 PUSH1 0x44 DUP3 ADD MSTORE PUSH6 0x646472657373 PUSH1 0xD0 SHL PUSH1 0x64 DUP3 ADD MSTORE PUSH1 0x84 ADD PUSH2 0xA4A JUMP JUMPDEST PUSH2 0x23EE DUP2 PUSH2 0x375B JUMP JUMPDEST POP JUMP JUMPDEST PUSH1 0x0 PUSH2 0xAA0 PUSH5 0x174876E800 DUP4 PUSH2 0x4493 JUMP JUMPDEST PUSH1 0x0 DUP1 PUSH1 0x4 PUSH1 0x0 PUSH20 0x0 PUSH4 0x1EB650E7 DUP8 DUP8 PUSH1 0x40 MLOAD DUP4 PUSH4 0xFFFFFFFF AND PUSH1 0xE0 SHL DUP2 MSTORE PUSH1 0x4 ADD PUSH2 0x2442 SWAP3 SWAP2 SWAP1 PUSH2 0x4423 JUMP JUMPDEST PUSH1 0x20 PUSH1 0x40 MLOAD DUP1 DUP4 SUB DUP2 DUP7 GAS DELEGATECALL ISZERO DUP1 ISZERO PUSH2 0x245F JUMPI RETURNDATASIZE PUSH1 0x0 DUP1 RETURNDATACOPY RETURNDATASIZE PUSH1 0x0 REVERT JUMPDEST POP POP POP POP PUSH1 0x40 MLOAD RETURNDATASIZE PUSH1 0x1F NOT PUSH1 0x1F DUP3 ADD AND DUP3 ADD DUP1 PUSH1 0x40 MSTORE POP DUP2 ADD SWAP1 PUSH2 0x2483 SWAP2 SWAP1 PUSH2 0x443A JUMP JUMPDEST DUP2 MSTORE PUSH1 0x20 DUP1 DUP3 ADD SWAP3 SWAP1 SWAP3 MSTORE PUSH1 0x40 SWAP1 DUP2 ADD PUSH1 0x0 KECCAK256 DUP2 MLOAD PUSH1 0xC0 DUP2 ADD DUP4 MSTORE DUP2 SLOAD PUSH1 0x1 PUSH1 0x1 PUSH1 0x40 SHL SUB DUP1 DUP3 AND DUP4 DUP7 ADD SWAP1 DUP2 MSTORE PUSH1 0x1 PUSH1 0x40 SHL DUP1 DUP5 DIV DUP4 AND PUSH1 0x60 DUP1 DUP8 ADD SWAP2 SWAP1 SWAP2 MSTORE PUSH1 0x1 PUSH1 0x80 SHL DUP1 DUP7 DIV DUP6 AND PUSH1 0x80 DUP1 DUP10 ADD SWAP2 SWAP1 SWAP2 MSTORE PUSH1 0xFF PUSH1 0x1 PUSH1 0xC0 SHL SWAP8 DUP9 SWAP1 DIV DUP2 AND ISZERO ISZERO PUSH1 0xA0 DUP11 ADD MSTORE SWAP5 DUP9 MSTORE DUP10 MLOAD SWAP1 DUP2 ADD DUP11 MSTORE PUSH1 0x1 SWAP1 SWAP9 ADD SLOAD DUP1 DUP7 AND DUP10 MSTORE SWAP3 DUP4 DIV DUP6 AND DUP9 DUP12 ADD MSTORE DUP3 DIV DUP5 AND SWAP8 DUP8 ADD SWAP8 SWAP1 SWAP8 MSTORE SWAP3 SWAP1 SWAP3 DIV AND SWAP4 DUP4 ADD SWAP4 SWAP1 SWAP4 MSTORE SWAP3 DUP4 ADD MSTORE PUSH1 0x3 SLOAD SWAP2 SWAP3 POP AND ISZERO PUSH2 0x2539 JUMPI MLOAD MLOAD SWAP1 POP PUSH2 0xAA0 JUMP JUMPDEST PUSH2 0x2543 DUP5 DUP5 PUSH2 0x280C JUMP JUMPDEST DUP2 MLOAD MLOAD PUSH2 0x2550 SWAP2 SWAP1 PUSH2 0x44CB JUMP JUMPDEST SWAP5 SWAP4 POP POP POP POP JUMP JUMPDEST PUSH1 0x0 DUP1 PUSH1 0x4 PUSH1 0x0 PUSH20 0x0 PUSH4 0x1EB650E7 DUP8 DUP8 PUSH1 0x40 MLOAD DUP4 PUSH4 0xFFFFFFFF AND PUSH1 0xE0 SHL DUP2 MSTORE PUSH1 0x4 ADD PUSH2 0x2598 SWAP3 SWAP2 SWAP1 PUSH2 0x4423 JUMP JUMPDEST PUSH1 0x20 PUSH1 0x40 MLOAD DUP1 DUP4 SUB DUP2 DUP7 GAS DELEGATECALL ISZERO DUP1 ISZERO PUSH2 0x25B5 JUMPI RETURNDATASIZE PUSH1 0x0 DUP1 RETURNDATACOPY RETURNDATASIZE PUSH1 0x0 REVERT JUMPDEST POP POP POP POP PUSH1 0x40 MLOAD RETURNDATASIZE PUSH1 0x1F NOT PUSH1 0x1F DUP3 ADD AND DUP3 ADD DUP1 PUSH1 0x40 MSTORE POP DUP2 ADD SWAP1 PUSH2 0x25D9 SWAP2 SWAP1 PUSH2 0x443A JUMP JUMPDEST DUP2 MSTORE PUSH1 0x20 DUP1 DUP3 ADD SWAP3 SWAP1 SWAP3 MSTORE PUSH1 0x40 SWAP1 DUP2 ADD PUSH1 0x0 SWAP1 DUP2 KECCAK256 DUP3 MLOAD PUSH1 0xC0 DUP2 ADD DUP5 MSTORE DUP2 SLOAD PUSH1 0x1 PUSH1 0x1 PUSH1 0x40 SHL SUB DUP1 DUP3 AND DUP4 DUP8 ADD SWAP1 DUP2 MSTORE PUSH1 0x1 PUSH1 0x40 SHL DUP1 DUP5 DIV DUP4 AND PUSH1 0x60 DUP1 DUP8 ADD SWAP2 SWAP1 SWAP2 MSTORE PUSH1 0x1 PUSH1 0x80 SHL DUP1 DUP7 DIV DUP6 AND PUSH1 0x80 DUP1 DUP10 ADD SWAP2 SWAP1 SWAP2 MSTORE PUSH1 0xFF PUSH1 0x1 PUSH1 0xC0 SHL SWAP8 DUP9 SWAP1 DIV AND ISZERO ISZERO PUSH1 0xA0 DUP10 ADD MSTORE SWAP4 DUP8 MSTORE DUP10 MLOAD SWAP4 DUP5 ADD DUP11 MSTORE PUSH1 0x1 SWAP1 SWAP8 ADD SLOAD DUP1 DUP6 AND DUP5 MSTORE SWAP2 DUP3 DIV DUP5 AND DUP4 DUP12 ADD MSTORE SWAP6 DUP2 DIV DUP4 AND SWAP8 DUP3 ADD SWAP8 SWAP1 SWAP8 MSTORE SWAP2 SWAP1 SWAP6 DIV SWAP1 SWAP5 AND SWAP2 DUP5 ADD SWAP2 SWAP1 SWAP2 MSTORE SWAP3 DUP4 ADD SWAP2 SWAP1 SWAP2 MSTORE SWAP1 SWAP2 POP PUSH2 0x268E DUP6 DUP6 PUSH2 0x26D9 JUMP JUMPDEST PUSH1 0x1 PUSH1 0x1 PUSH1 0x40 SHL SUB AND GT DUP1 PUSH2 0x26B7 JUMPI POP DUP1 MLOAD DUP1 MLOAD PUSH1 0x40 SWAP1 SWAP2 ADD MLOAD PUSH1 0x1 PUSH1 0x1 PUSH1 0x40 SHL SUB SWAP2 DUP3 AND SWAP2 AND GT JUMPDEST ISZERO PUSH2 0x26C6 JUMPI PUSH1 0x0 SWAP2 POP POP PUSH2 0xAA0 JUMP JUMPDEST DUP1 MLOAD PUSH1 0x40 DUP2 ADD MLOAD SWAP1 MLOAD PUSH2 0x2550 SWAP2 SWAP1 PUSH2 0x44F6 JUMP JUMPDEST PUSH1 0x0 DUP1 PUSH1 0x4 PUSH1 0x0 PUSH20 0x0 PUSH4 0x1EB650E7 DUP8 DUP8 PUSH1 0x40 MLOAD DUP4 PUSH4 0xFFFFFFFF AND PUSH1 0xE0 SHL DUP2 MSTORE PUSH1 0x4 ADD PUSH2 0x2719 SWAP3 SWAP2 SWAP1 PUSH2 0x4423 JUMP JUMPDEST PUSH1 0x20 PUSH1 0x40 MLOAD DUP1 DUP4 SUB DUP2 DUP7 GAS DELEGATECALL ISZERO DUP1 ISZERO PUSH2 0x2736 JUMPI RETURNDATASIZE PUSH1 0x0 DUP1 RETURNDATACOPY RETURNDATASIZE PUSH1 0x0 REVERT JUMPDEST POP POP POP POP PUSH1 0x40 MLOAD RETURNDATASIZE PUSH1 0x1F NOT PUSH1 0x1F DUP3 ADD AND DUP3 ADD DUP1 PUSH1 0x40 MSTORE POP DUP2 ADD SWAP1 PUSH2 0x275A SWAP2 SWAP1 PUSH2 0x443A JUMP JUMPDEST DUP2 MSTORE PUSH1 0x20 DUP1 DUP3 ADD SWAP3 SWAP1 SWAP3 MSTORE PUSH1 0x40 SWAP1 DUP2 ADD PUSH1 0x0 KECCAK256 DUP2 MLOAD PUSH1 0xC0 DUP2 ADD DUP4 MSTORE DUP2 SLOAD PUSH1 0x1 PUSH1 0x1 PUSH1 0x40 SHL SUB DUP1 DUP3 AND DUP4 DUP7 ADD SWAP1 DUP2 MSTORE PUSH1 0x1 PUSH1 0x40 SHL DUP1 DUP5 DIV DUP4 AND PUSH1 0x60 DUP1 DUP8 ADD SWAP2 SWAP1 SWAP2 MSTORE PUSH1 0x1 PUSH1 0x80 SHL DUP1 DUP7 DIV DUP6 AND PUSH1 0x80 DUP1 DUP10 ADD SWAP2 SWAP1 SWAP2 MSTORE PUSH1 0xFF PUSH1 0x1 PUSH1 0xC0 SHL SWAP8 DUP9 SWAP1 DIV AND ISZERO ISZERO PUSH1 0xA0 DUP10 ADD MSTORE SWAP4 DUP8 MSTORE DUP9 MLOAD SWAP4 DUP5 ADD DUP10 MSTORE PUSH1 0x1 SWAP1 SWAP8 ADD SLOAD DUP1 DUP6 AND DUP5 MSTORE SWAP2 DUP3 DIV DUP5 AND DUP4 DUP11 ADD MSTORE SWAP6 DUP2 DIV DUP4 AND SWAP7 DUP3 ADD SWAP7 DUP8 MSTORE SWAP3 SWAP1 SWAP3 DIV AND SWAP3 DUP2 ADD SWAP3 SWAP1 SWAP3 MSTORE SWAP3 DUP4 ADD DUP2 SWAP1 MSTORE SWAP1 MLOAD SWAP1 MLOAD SWAP2 SWAP3 POP PUSH2 0x2550 SWAP2 PUSH2 0x44CB JUMP JUMPDEST PUSH1 0x3 SLOAD PUSH1 0x0 SWAP1 PUSH1 0xFF AND ISZERO PUSH2 0x2822 JUMPI POP PUSH1 0x0 PUSH2 0xAA0 JUMP JUMPDEST PUSH1 0x0 PUSH1 0x4 PUSH1 0x0 PUSH20 0x0 PUSH4 0x1EB650E7 DUP8 DUP8 PUSH1 0x40 MLOAD DUP4 PUSH4 0xFFFFFFFF AND PUSH1 0xE0 SHL DUP2 MSTORE PUSH1 0x4 ADD PUSH2 0x2861 SWAP3 SWAP2 SWAP1 PUSH2 0x4423 JUMP JUMPDEST PUSH1 0x20 PUSH1 0x40 MLOAD DUP1 DUP4 SUB DUP2 DUP7 GAS DELEGATECALL ISZERO DUP1 ISZERO PUSH2 0x287E JUMPI RETURNDATASIZE PUSH1 0x0 DUP1 RETURNDATACOPY RETURNDATASIZE PUSH1 0x0 REVERT JUMPDEST POP POP POP POP PUSH1 0x40 MLOAD RETURNDATASIZE PUSH1 0x1F NOT PUSH1 0x1F DUP3 ADD AND DUP3 ADD DUP1 PUSH1 0x40 MSTORE POP DUP2 ADD SWAP1 PUSH2 0x28A2 SWAP2 SWAP1 PUSH2 0x443A JUMP JUMPDEST DUP2 MSTORE PUSH1 0x20 DUP1 DUP3 ADD SWAP3 SWAP1 SWAP3 MSTORE PUSH1 0x40 SWAP1 DUP2 ADD PUSH1 0x0 KECCAK256 DUP2 MLOAD PUSH1 0xC0 DUP2 ADD DUP4 MSTORE DUP2 SLOAD PUSH1 0x1 PUSH1 0x1 PUSH1 0x40 SHL SUB DUP1 DUP3 AND DUP4 DUP7 ADD SWAP1 DUP2 MSTORE PUSH1 0x1 PUSH1 0x40 SHL DUP1 DUP5 DIV DUP4 AND PUSH1 0x60 DUP1 DUP8 ADD SWAP2 SWAP1 SWAP2 MSTORE PUSH1 0x1 PUSH1 0x80 SHL DUP1 DUP7 DIV DUP6 AND PUSH1 0x80 DUP1 DUP10 ADD SWAP2 SWAP1 SWAP2 MSTORE PUSH1 0xFF PUSH1 0x1 PUSH1 0xC0 SHL SWAP8 DUP9 SWAP1 DIV AND ISZERO ISZERO PUSH1 0xA0 DUP10 ADD MSTORE SWAP4 DUP8 MSTORE DUP9 MLOAD SWAP4 DUP5 ADD DUP10 MSTORE PUSH1 0x1 SWAP1 SWAP8 ADD SLOAD DUP1 DUP6 AND DUP5 MSTORE SWAP2 DUP3 DIV DUP5 AND DUP4 DUP11 ADD SWAP1 DUP2 MSTORE SWAP7 DUP3 DIV DUP5 AND SWAP8 DUP4 ADD SWAP8 SWAP1 SWAP8 MSTORE SWAP3 SWAP1 SWAP3 DIV AND SWAP4 DUP2 ADD SWAP4 DUP5 MSTORE SWAP4 DUP2 ADD SWAP4 SWAP1 SWAP4 MSTORE SWAP1 MLOAD SWAP1 MLOAD SWAP2 SWAP3 POP PUSH2 0x2957 SWAP2 PUSH2 0x44CB JUMP JUMPDEST PUSH1 0x1 PUSH1 0x1 PUSH1 0x40 SHL SUB AND PUSH2 0x296A DUP6 DUP6 PUSH2 0x26D9 JUMP JUMPDEST PUSH1 0x1 PUSH1 0x1 PUSH1 0x40 SHL SUB AND GT ISZERO PUSH2 0x2983 JUMPI PUSH1 0x0 SWAP2 POP POP PUSH2 0xAA0 JUMP JUMPDEST PUSH2 0x298D DUP5 DUP5 PUSH2 0x26D9 JUMP JUMPDEST PUSH1 0x20 DUP1 DUP4 ADD MLOAD PUSH1 0x60 DUP2 ADD MLOAD SWAP2 ADD MLOAD PUSH2 0x29A5 SWAP2 SWAP1 PUSH2 0x44CB JUMP JUMPDEST PUSH2 0x2550 SWAP2 SWAP1 PUSH2 0x44F6 JUMP JUMPDEST PUSH1 0x1 PUSH1 0x1 PUSH1 0xA0 SHL SUB DUP5 AND ISZERO ISZERO DUP1 PUSH2 0x29C4 JUMPI POP DUP3 ISZERO JUMPDEST PUSH2 0x2A0B JUMPI PUSH1 0x40 MLOAD PUSH3 0x461BCD PUSH1 0xE5 SHL DUP2 MSTORE PUSH1 0x20 PUSH1 0x4 DUP3 ADD MSTORE PUSH1 0x18 PUSH1 0x24 DUP3 ADD MSTORE PUSH24 0x43757272656E637920697320616464726573732830292C3 PUSH1 0x44 SHL PUSH1 0x44 DUP3 ADD MSTORE PUSH1 0x64 ADD PUSH2 0xA4A JUMP JUMPDEST PUSH1 0x40 MLOAD PUSH4 0x509FF69B PUSH1 0xE0 SHL DUP2 MSTORE PUSH1 0x1 PUSH1 0x1 PUSH1 0xA0 SHL SUB DUP6 DUP2 AND PUSH1 0x4 DUP4 ADD MSTORE PUSH1 0x24 DUP3 ADD DUP6 SWAP1 MSTORE PUSH1 0x0 SWAP2 PUSH32 0x0 SWAP1 SWAP2 AND SWAP1 PUSH4 0x509FF69B SWAP1 PUSH1 0x44 ADD PUSH1 0x20 PUSH1 0x40 MLOAD DUP1 DUP4 SUB DUP2 PUSH1 0x0 DUP8 GAS CALL ISZERO DUP1 ISZERO PUSH2 0x2A7F JUMPI RETURNDATASIZE PUSH1 0x0 DUP1 RETURNDATACOPY RETURNDATASIZE PUSH1 0x0 REVERT JUMPDEST POP POP POP POP PUSH1 0x40 MLOAD RETURNDATASIZE PUSH1 0x1F NOT PUSH1 0x1F DUP3 ADD AND DUP3 ADD DUP1 PUSH1 0x40 MSTORE POP DUP2 ADD SWAP1 PUSH2 0x2AA3 SWAP2 SWAP1 PUSH2 0x443A JUMP JUMPDEST SWAP1 POP PUSH2 0x1338 DUP2 DUP5 DUP5 PUSH2 0x38B7 JUMP JUMPDEST PUSH1 0x0 SLOAD PUSH1 0x1 PUSH1 0x1 PUSH1 0xA0 SHL SUB PUSH3 0x10000 SWAP1 SWAP2 DIV AND CALLER EQ DUP1 PUSH2 0x2B63 JUMPI POP PUSH1 0x1 PUSH1 0x1 PUSH1 0xA0 SHL SUB PUSH32 0x0 AND PUSH4 0x16279055 CALLER PUSH1 0x40 MLOAD PUSH1 0x1 PUSH1 0x1 PUSH1 0xE0 SHL SUB NOT PUSH1 0xE0 DUP5 SWAP1 SHL AND DUP2 MSTORE PUSH1 0x1 PUSH1 0x1 PUSH1 0xA0 SHL SUB SWAP1 SWAP2 AND PUSH1 0x4 DUP3 ADD MSTORE PUSH1 0x24 ADD PUSH1 0x20 PUSH1 0x40 MLOAD DUP1 DUP4 SUB DUP2 DUP7 GAS STATICCALL ISZERO DUP1 ISZERO PUSH2 0x2B3F JUMPI RETURNDATASIZE PUSH1 0x0 DUP1 RETURNDATACOPY RETURNDATASIZE PUSH1 0x0 REVERT JUMPDEST POP POP POP POP PUSH1 0x40 MLOAD RETURNDATASIZE PUSH1 0x1F NOT PUSH1 0x1F DUP3 ADD AND DUP3 ADD DUP1 PUSH1 0x40 MSTORE POP DUP2 ADD SWAP1 PUSH2 0x2B63 SWAP2 SWAP1 PUSH2 0x4401 JUMP JUMPDEST PUSH2 0xA53 JUMPI PUSH1 0x40 MLOAD PUSH3 0x461BCD PUSH1 0xE5 SHL DUP2 MSTORE PUSH1 0x20 PUSH1 0x4 DUP3 ADD MSTORE PUSH1 0x2D PUSH1 0x24 DUP3 ADD MSTORE PUSH32 0x416C6C6F77616E63653A2063616C6C6572206D757374206265205265706F7369 PUSH1 0x44 DUP3 ADD MSTORE PUSH13 0x1D1BDC9E4810DBDB9D1C9858DD PUSH1 0x9A SHL PUSH1 0x64 DUP3 ADD MSTORE PUSH1 0x84 ADD PUSH2 0xA4A JUMP JUMPDEST PUSH1 0x0 PUSH2 0x2BD0 DUP3 PUSH2 0x133F JUMP JUMPDEST SWAP1 POP PUSH1 0x1 PUSH1 0x1 PUSH1 0x40 SHL SUB DUP2 AND ISZERO PUSH2 0x10E9 JUMPI PUSH1 0x40 MLOAD PUSH4 0x5768BBB5 PUSH1 0xE0 SHL DUP2 MSTORE PUSH1 0x0 SWAP1 PUSH1 0x1 PUSH1 0x1 PUSH1 0xA0 SHL SUB PUSH32 0x0 AND SWAP1 PUSH4 0x5768BBB5 SWAP1 PUSH2 0x2C32 SWAP1 DUP9 SWAP1 DUP9 SWAP1 PUSH1 0x4 ADD PUSH2 0x4423 JUMP JUMPDEST PUSH1 0x20 PUSH1 0x40 MLOAD DUP1 DUP4 SUB DUP2 PUSH1 0x0 DUP8 GAS CALL ISZERO DUP1 ISZERO PUSH2 0x2C51 JUMPI RETURNDATASIZE PUSH1 0x0 DUP1 RETURNDATACOPY RETURNDATASIZE PUSH1 0x0 REVERT JUMPDEST POP POP POP POP PUSH1 0x40 MLOAD RETURNDATASIZE PUSH1 0x1F NOT PUSH1 0x1F DUP3 ADD AND DUP3 ADD DUP1 PUSH1 0x40 MSTORE POP DUP2 ADD SWAP1 PUSH2 0x2C75 SWAP2 SWAP1 PUSH2 0x443A JUMP JUMPDEST PUSH1 0x0 DUP2 DUP2 MSTORE PUSH1 0x4 PUSH1 0x20 SWAP1 DUP2 MSTORE PUSH1 0x40 SWAP2 DUP3 SWAP1 KECCAK256 DUP3 MLOAD PUSH1 0xC0 DUP2 ADD DUP5 MSTORE DUP2 SLOAD PUSH1 0x1 PUSH1 0x1 PUSH1 0x40 SHL SUB DUP1 DUP3 AND DUP4 DUP8 ADD SWAP1 DUP2 MSTORE PUSH1 0x1 PUSH1 0x40 SHL DUP1 DUP5 DIV DUP4 AND PUSH1 0x60 DUP1 DUP8 ADD SWAP2 SWAP1 SWAP2 MSTORE PUSH1 0x1 PUSH1 0x80 SHL DUP1 DUP7 DIV DUP6 AND PUSH1 0x80 DUP1 DUP10 ADD SWAP2 SWAP1 SWAP2 MSTORE PUSH1 0xFF PUSH1 0x1 PUSH1 0xC0 SHL SWAP8 DUP9 SWAP1 DIV DUP2 AND ISZERO ISZERO PUSH1 0xA0 DUP11 ADD MSTORE SWAP5 DUP9 MSTORE DUP11 MLOAD SWAP1 DUP2 ADD DUP12 MSTORE PUSH1 0x1 SWAP1 SWAP9 ADD SLOAD DUP1 DUP7 AND DUP10 MSTORE SWAP3 DUP4 DIV DUP6 AND DUP9 DUP11 ADD MSTORE DUP3 DIV DUP5 AND SWAP9 DUP8 ADD SWAP9 SWAP1 SWAP9 MSTORE SWAP3 SWAP1 SWAP3 DIV AND SWAP5 DUP4 ADD SWAP5 SWAP1 SWAP5 MSTORE SWAP2 DUP3 ADD MSTORE PUSH1 0x3 SLOAD SWAP3 SWAP4 POP SWAP2 AND ISZERO DUP1 ISZERO PUSH2 0x2D52 JUMPI POP DUP3 PUSH1 0x1 PUSH1 0x1 PUSH1 0x40 SHL SUB AND PUSH2 0x2D39 DUP8 DUP8 PUSH2 0x280C JUMP JUMPDEST DUP3 MLOAD MLOAD PUSH2 0x2D46 SWAP2 SWAP1 PUSH2 0x44CB JUMP JUMPDEST PUSH1 0x1 PUSH1 0x1 PUSH1 0x40 SHL SUB AND LT ISZERO JUMPDEST DUP1 PUSH2 0x2D78 JUMPI POP PUSH1 0x3 SLOAD PUSH1 0xFF AND DUP1 ISZERO PUSH2 0x2D78 JUMPI POP DUP1 MLOAD MLOAD PUSH1 0x1 PUSH1 0x1 PUSH1 0x40 SHL SUB DUP1 DUP6 AND SWAP2 AND LT ISZERO JUMPDEST PUSH2 0x2DD3 JUMPI PUSH1 0x40 MLOAD PUSH3 0x461BCD PUSH1 0xE5 SHL DUP2 MSTORE PUSH1 0x20 PUSH1 0x4 DUP3 ADD MSTORE PUSH1 0x26 PUSH1 0x24 DUP3 ADD MSTORE PUSH32 0x4E6F7420656E6F756768742062616C616E63654F662F63726564697420616C6C PUSH1 0x44 DUP3 ADD MSTORE PUSH6 0x6F77616E6365 PUSH1 0xD0 SHL PUSH1 0x64 DUP3 ADD MSTORE PUSH1 0x84 ADD PUSH2 0xA4A JUMP JUMPDEST DUP1 MLOAD MLOAD PUSH1 0x0 SWAP1 PUSH1 0x1 PUSH1 0x1 PUSH1 0x40 SHL SUB SWAP1 DUP2 AND SWAP1 DUP6 AND GT ISZERO PUSH2 0x2E72 JUMPI DUP2 MLOAD MLOAD PUSH1 0x0 SWAP1 PUSH2 0x2DFD SWAP1 DUP7 PUSH2 0x44F6 JUMP JUMPDEST SWAP1 POP PUSH1 0x0 DUP4 PUSH1 0x20 ADD MLOAD PUSH1 0x40 ADD MLOAD DUP5 PUSH1 0x20 ADD MLOAD PUSH1 0x60 ADD MLOAD PUSH2 0x2E1D SWAP2 SWAP1 PUSH2 0x44F6 JUMP JUMPDEST SWAP1 POP DUP1 PUSH1 0x1 PUSH1 0x1 PUSH1 0x40 SHL SUB AND DUP3 PUSH1 0x1 PUSH1 0x1 PUSH1 0x40 SHL SUB AND GT ISZERO PUSH2 0x2E3D JUMPI DUP1 SWAP2 POP JUMPDEST DUP2 DUP5 PUSH1 0x20 ADD MLOAD PUSH1 0x40 ADD DUP2 DUP2 MLOAD PUSH2 0x2E53 SWAP2 SWAP1 PUSH2 0x44CB JUMP JUMPDEST PUSH1 0x1 PUSH1 0x1 PUSH1 0x40 SHL SUB AND SWAP1 MSTORE POP PUSH2 0x2E69 DUP3 DUP8 PUSH2 0x44F6 JUMP JUMPDEST SWAP6 POP PUSH1 0x1 SWAP3 POP POP POP JUMPDEST DUP2 MLOAD MLOAD PUSH1 0x0 SWAP1 PUSH1 0x1 PUSH1 0x1 PUSH1 0x40 SHL SUB SWAP1 DUP2 AND SWAP1 DUP7 AND GT ISZERO PUSH2 0x2F0C JUMPI DUP3 MLOAD MLOAD PUSH1 0x0 SWAP1 PUSH2 0x2E9C SWAP1 DUP8 PUSH2 0x44F6 JUMP JUMPDEST PUSH1 0x20 DUP1 DUP7 ADD MLOAD DUP1 MLOAD SWAP2 ADD MLOAD SWAP2 SWAP3 POP PUSH1 0x0 SWAP2 PUSH2 0x2EB7 SWAP2 SWAP1 PUSH2 0x44F6 JUMP JUMPDEST SWAP1 POP DUP1 PUSH1 0x1 PUSH1 0x1 PUSH1 0x40 SHL SUB AND DUP3 PUSH1 0x1 PUSH1 0x1 PUSH1 0x40 SHL SUB AND GT ISZERO PUSH2 0x2ED7 JUMPI DUP1 SWAP2 POP JUMPDEST DUP2 DUP6 PUSH1 0x20 ADD MLOAD PUSH1 0x0 ADD DUP2 DUP2 MLOAD PUSH2 0x2EED SWAP2 SWAP1 PUSH2 0x44CB JUMP JUMPDEST PUSH1 0x1 PUSH1 0x1 PUSH1 0x40 SHL SUB AND SWAP1 MSTORE POP PUSH2 0x2F03 DUP3 DUP9 PUSH2 0x44F6 JUMP JUMPDEST SWAP7 POP PUSH1 0x1 SWAP3 POP POP POP JUMPDEST PUSH1 0x0 PUSH1 0x1 PUSH1 0x1 PUSH1 0x40 SHL SUB DUP7 AND ISZERO PUSH2 0x2F40 JUMPI DUP4 MLOAD DUP1 MLOAD DUP8 SWAP2 SWAP1 PUSH2 0x2F2F SWAP1 DUP4 SWAP1 PUSH2 0x44F6 JUMP JUMPDEST PUSH1 0x1 PUSH1 0x1 PUSH1 0x40 SHL SUB AND SWAP1 MSTORE POP PUSH1 0x1 SWAP1 POP JUMPDEST DUP2 DUP1 PUSH2 0x2F49 JUMPI POP DUP3 JUMPDEST DUP1 ISZERO PUSH2 0x2F53 JUMPI POP DUP1 ISZERO JUMPDEST ISZERO PUSH2 0x2FDD JUMPI PUSH1 0x20 DUP1 DUP6 ADD MLOAD PUSH1 0x0 DUP8 DUP2 MSTORE PUSH1 0x4 DUP4 MSTORE PUSH1 0x40 SWAP1 DUP2 SWAP1 KECCAK256 DUP3 MLOAD PUSH1 0x1 SWAP1 SWAP2 ADD DUP1 SLOAD SWAP5 DUP5 ADD MLOAD SWAP3 DUP5 ADD MLOAD PUSH1 0x60 SWAP1 SWAP5 ADD MLOAD PUSH1 0x1 PUSH1 0x1 PUSH1 0x40 SHL SUB SWAP1 DUP2 AND PUSH1 0x1 PUSH1 0xC0 SHL MUL PUSH1 0x1 PUSH1 0x1 PUSH1 0xC0 SHL SUB SWAP6 DUP3 AND PUSH1 0x1 PUSH1 0x80 SHL MUL SWAP6 SWAP1 SWAP6 AND PUSH1 0x1 PUSH1 0x1 PUSH1 0x80 SHL SUB SWAP5 DUP3 AND PUSH1 0x1 PUSH1 0x40 SHL MUL PUSH1 0x1 PUSH1 0x1 PUSH1 0x80 SHL SUB NOT SWAP1 SWAP8 AND SWAP2 SWAP1 SWAP4 AND OR SWAP5 SWAP1 SWAP5 OR SWAP2 SWAP1 SWAP2 AND OR OR SWAP1 SSTORE PUSH2 0x3149 JUMP JUMPDEST DUP2 ISZERO DUP1 ISZERO PUSH2 0x2FE9 JUMPI POP DUP3 ISZERO JUMPDEST DUP1 ISZERO PUSH2 0x2FF2 JUMPI POP DUP1 JUMPDEST ISZERO PUSH2 0x307C JUMPI DUP4 MLOAD PUSH1 0x0 DUP7 DUP2 MSTORE PUSH1 0x4 PUSH1 0x20 SWAP1 DUP2 MSTORE PUSH1 0x40 SWAP2 DUP3 SWAP1 KECCAK256 DUP4 MLOAD DUP2 SLOAD SWAP3 DUP6 ADD MLOAD SWAP4 DUP6 ADD MLOAD PUSH1 0x60 SWAP1 SWAP6 ADD MLOAD ISZERO ISZERO PUSH1 0x1 PUSH1 0xC0 SHL MUL PUSH1 0xFF PUSH1 0xC0 SHL NOT PUSH1 0x1 PUSH1 0x1 PUSH1 0x40 SHL SUB SWAP7 DUP8 AND PUSH1 0x1 PUSH1 0x80 SHL MUL AND PUSH9 0xFFFFFFFFFFFFFFFFFF PUSH1 0x80 SHL NOT SWAP6 DUP8 AND PUSH1 0x1 PUSH1 0x40 SHL MUL PUSH1 0x1 PUSH1 0x1 PUSH1 0x80 SHL SUB NOT SWAP1 SWAP6 AND SWAP7 SWAP1 SWAP3 AND SWAP6 SWAP1 SWAP6 OR SWAP3 SWAP1 SWAP3 OR SWAP3 SWAP1 SWAP3 AND OR SWAP2 SWAP1 SWAP2 OR SWAP1 SSTORE PUSH2 0x3149 JUMP JUMPDEST PUSH1 0x0 DUP6 DUP2 MSTORE PUSH1 0x4 PUSH1 0x20 SWAP1 DUP2 MSTORE PUSH1 0x40 SWAP2 DUP3 SWAP1 KECCAK256 DUP7 MLOAD DUP1 MLOAD DUP3 SLOAD DUP3 DUP6 ADD MLOAD DUP4 DUP8 ADD MLOAD PUSH1 0x60 SWAP5 DUP6 ADD MLOAD PUSH1 0x1 PUSH1 0x1 PUSH1 0x40 SHL SUB SWAP5 DUP6 AND PUSH1 0x1 PUSH1 0x1 PUSH1 0x80 SHL SUB NOT SWAP5 DUP6 AND OR PUSH1 0x1 PUSH1 0x40 SHL SWAP4 DUP7 AND DUP5 MUL OR PUSH9 0xFFFFFFFFFFFFFFFFFF PUSH1 0x80 SHL NOT AND PUSH1 0x1 PUSH1 0x80 SHL SWAP3 DUP7 AND DUP4 MUL PUSH1 0xFF PUSH1 0xC0 SHL NOT AND OR PUSH1 0x1 PUSH1 0xC0 SHL SWAP2 ISZERO ISZERO DUP3 MUL OR DUP8 SSTORE DUP13 DUP9 ADD MLOAD DUP1 MLOAD PUSH1 0x1 SWAP1 SWAP9 ADD DUP1 SLOAD SWAP10 DUP3 ADD MLOAD SWAP11 DUP3 ADD MLOAD SWAP2 SWAP1 SWAP8 ADD MLOAD SWAP8 DUP7 AND SWAP9 SWAP1 SWAP5 AND SWAP8 SWAP1 SWAP8 OR SWAP8 DUP5 AND SWAP1 SWAP2 MUL SWAP7 SWAP1 SWAP7 OR PUSH1 0x1 PUSH1 0x1 PUSH1 0x80 SHL SUB AND SWAP1 DUP3 AND SWAP1 SWAP6 MUL PUSH1 0x1 PUSH1 0x1 PUSH1 0xC0 SHL SUB AND SWAP5 SWAP1 SWAP5 OR SWAP2 SWAP1 SWAP4 AND SWAP1 SWAP2 MUL OR SWAP1 SSTORE JUMPDEST PUSH2 0x3153 DUP10 DUP10 PUSH2 0x35DC JUMP JUMPDEST POP POP POP POP POP POP POP POP POP JUMP JUMPDEST PUSH1 0x0 PUSH2 0x3169 DUP3 PUSH2 0x133F JUMP JUMPDEST SWAP1 POP PUSH1 0x1 PUSH1 0x1 PUSH1 0x40 SHL SUB DUP2 AND ISZERO PUSH2 0x10E9 JUMPI PUSH1 0x40 MLOAD PUSH4 0x5768BBB5 PUSH1 0xE0 SHL DUP2 MSTORE PUSH1 0x0 SWAP1 PUSH1 0x1 PUSH1 0x1 PUSH1 0xA0 SHL SUB PUSH32 0x0 AND SWAP1 PUSH4 0x5768BBB5 SWAP1 PUSH2 0x31CB SWAP1 DUP9 SWAP1 DUP9 SWAP1 PUSH1 0x4 ADD PUSH2 0x4423 JUMP JUMPDEST PUSH1 0x20 PUSH1 0x40 MLOAD DUP1 DUP4 SUB DUP2 PUSH1 0x0 DUP8 GAS CALL ISZERO DUP1 ISZERO PUSH2 0x31EA JUMPI RETURNDATASIZE PUSH1 0x0 DUP1 RETURNDATACOPY RETURNDATASIZE PUSH1 0x0 REVERT JUMPDEST POP POP POP POP PUSH1 0x40 MLOAD RETURNDATASIZE PUSH1 0x1F NOT PUSH1 0x1F DUP3 ADD AND DUP3 ADD DUP1 PUSH1 0x40 MSTORE POP DUP2 ADD SWAP1 PUSH2 0x320E SWAP2 SWAP1 PUSH2 0x443A JUMP JUMPDEST PUSH1 0x0 DUP2 DUP2 MSTORE PUSH1 0x4 PUSH1 0x20 SWAP1 DUP2 MSTORE PUSH1 0x40 DUP1 DUP4 KECCAK256 DUP2 MLOAD PUSH1 0xC0 DUP2 ADD DUP4 MSTORE DUP2 SLOAD PUSH1 0x1 PUSH1 0x1 PUSH1 0x40 SHL SUB DUP1 DUP3 AND DUP4 DUP7 ADD SWAP1 DUP2 MSTORE PUSH1 0x1 PUSH1 0x40 SHL DUP1 DUP5 DIV DUP4 AND PUSH1 0x60 DUP1 DUP8 ADD SWAP2 SWAP1 SWAP2 MSTORE PUSH1 0x1 PUSH1 0x80 SHL DUP1 DUP7 DIV DUP6 AND PUSH1 0x80 DUP1 DUP10 ADD SWAP2 SWAP1 SWAP2 MSTORE PUSH1 0xFF PUSH1 0x1 PUSH1 0xC0 SHL SWAP8 DUP9 SWAP1 DIV AND ISZERO ISZERO PUSH1 0xA0 DUP10 ADD MSTORE SWAP4 DUP8 MSTORE DUP9 MLOAD SWAP4 DUP5 ADD DUP10 MSTORE PUSH1 0x1 SWAP1 SWAP8 ADD SLOAD DUP1 DUP6 AND DUP5 MSTORE SWAP2 DUP3 DIV DUP5 AND DUP4 DUP11 ADD MSTORE SWAP6 DUP2 DIV DUP4 AND SWAP7 DUP3 ADD SWAP7 SWAP1 SWAP7 MSTORE SWAP2 SWAP1 SWAP5 DIV DUP5 AND SWAP3 DUP2 ADD SWAP3 SWAP1 SWAP3 MSTORE SWAP3 DUP4 ADD DUP2 SWAP1 MSTORE MLOAD SWAP4 SWAP5 POP SWAP1 SWAP3 AND ISZERO PUSH2 0x3380 JUMPI PUSH1 0x20 DUP3 ADD MLOAD MLOAD PUSH1 0x1 PUSH1 0x1 PUSH1 0x40 SHL SUB DUP1 DUP7 AND SWAP2 AND LT PUSH2 0x332C JUMPI DUP4 DUP3 PUSH1 0x20 ADD MLOAD PUSH1 0x0 ADD DUP2 DUP2 MLOAD PUSH2 0x32EA SWAP2 SWAP1 PUSH2 0x44F6 JUMP JUMPDEST PUSH1 0x1 PUSH1 0x1 PUSH1 0x40 SHL SUB AND SWAP1 MSTORE POP PUSH2 0x32FF DUP5 PUSH2 0x1D5E JUMP JUMPDEST PUSH1 0x0 DUP9 DUP2 MSTORE PUSH1 0x2 PUSH1 0x20 MSTORE PUSH1 0x40 DUP2 KECCAK256 DUP1 SLOAD SWAP1 SWAP2 SWAP1 PUSH2 0x331D SWAP1 DUP5 SWAP1 PUSH2 0x453D JUMP JUMPDEST SWAP1 SWAP2 SSTORE POP PUSH1 0x0 SWAP5 POP PUSH2 0x337C SWAP1 POP JUMP JUMPDEST PUSH1 0x20 DUP3 ADD MLOAD MLOAD PUSH2 0x333C SWAP1 DUP6 PUSH2 0x44F6 JUMP JUMPDEST SWAP4 POP PUSH2 0x334F DUP3 PUSH1 0x20 ADD MLOAD PUSH1 0x0 ADD MLOAD PUSH2 0x1D5E JUMP JUMPDEST PUSH1 0x0 DUP9 DUP2 MSTORE PUSH1 0x2 PUSH1 0x20 MSTORE PUSH1 0x40 DUP2 KECCAK256 DUP1 SLOAD SWAP1 SWAP2 SWAP1 PUSH2 0x336D SWAP1 DUP5 SWAP1 PUSH2 0x453D JUMP JUMPDEST SWAP1 SWAP2 SSTORE POP POP PUSH1 0x20 DUP3 ADD MLOAD PUSH1 0x0 SWAP1 MSTORE JUMPDEST POP PUSH1 0x1 JUMPDEST PUSH1 0x20 DUP3 ADD MLOAD PUSH1 0x40 ADD MLOAD PUSH1 0x0 SWAP1 PUSH1 0x1 PUSH1 0x1 PUSH1 0x40 SHL SUB AND ISZERO PUSH2 0x346E JUMPI DUP5 PUSH1 0x1 PUSH1 0x1 PUSH1 0x40 SHL SUB AND DUP4 PUSH1 0x20 ADD MLOAD PUSH1 0x40 ADD MLOAD PUSH1 0x1 PUSH1 0x1 PUSH1 0x40 SHL SUB AND LT PUSH2 0x3413 JUMPI DUP5 DUP4 PUSH1 0x20 ADD MLOAD PUSH1 0x40 ADD DUP2 DUP2 MLOAD PUSH2 0x33D1 SWAP2 SWAP1 PUSH2 0x44F6 JUMP JUMPDEST PUSH1 0x1 PUSH1 0x1 PUSH1 0x40 SHL SUB AND SWAP1 MSTORE POP PUSH2 0x33E6 DUP6 PUSH2 0x1D5E JUMP JUMPDEST PUSH1 0x0 DUP10 DUP2 MSTORE PUSH1 0x2 PUSH1 0x20 MSTORE PUSH1 0x40 DUP2 KECCAK256 DUP1 SLOAD SWAP1 SWAP2 SWAP1 PUSH2 0x3404 SWAP1 DUP5 SWAP1 PUSH2 0x453D JUMP JUMPDEST SWAP1 SWAP2 SSTORE POP PUSH1 0x0 SWAP6 POP PUSH2 0x346A SWAP1 POP JUMP JUMPDEST PUSH1 0x20 DUP4 ADD MLOAD PUSH1 0x40 ADD MLOAD PUSH2 0x3426 SWAP1 DUP7 PUSH2 0x44F6 JUMP JUMPDEST SWAP5 POP PUSH2 0x3439 DUP4 PUSH1 0x20 ADD MLOAD PUSH1 0x40 ADD MLOAD PUSH2 0x1D5E JUMP JUMPDEST PUSH1 0x0 DUP10 DUP2 MSTORE PUSH1 0x2 PUSH1 0x20 MSTORE PUSH1 0x40 DUP2 KECCAK256 DUP1 SLOAD SWAP1 SWAP2 SWAP1 PUSH2 0x3457 SWAP1 DUP5 SWAP1 PUSH2 0x453D JUMP JUMPDEST SWAP1 SWAP2 SSTORE POP POP PUSH1 0x20 DUP4 ADD MLOAD PUSH1 0x0 PUSH1 0x40 SWAP1 SWAP2 ADD MSTORE JUMPDEST POP PUSH1 0x1 JUMPDEST PUSH1 0x0 PUSH1 0x1 PUSH1 0x1 PUSH1 0x40 SHL SUB DUP7 AND ISZERO PUSH2 0x34A2 JUMPI DUP4 MLOAD DUP1 MLOAD DUP8 SWAP2 SWAP1 PUSH2 0x3491 SWAP1 DUP4 SWAP1 PUSH2 0x44CB JUMP JUMPDEST PUSH1 0x1 PUSH1 0x1 PUSH1 0x40 SHL SUB AND SWAP1 MSTORE POP PUSH1 0x1 SWAP1 POP JUMPDEST DUP3 DUP1 PUSH2 0x34AB JUMPI POP DUP2 JUMPDEST DUP1 ISZERO PUSH2 0x34B5 JUMPI POP DUP1 ISZERO JUMPDEST ISZERO PUSH2 0x353F JUMPI PUSH1 0x20 DUP1 DUP6 ADD MLOAD PUSH1 0x0 DUP8 DUP2 MSTORE PUSH1 0x4 DUP4 MSTORE PUSH1 0x40 SWAP1 DUP2 SWAP1 KECCAK256 DUP3 MLOAD PUSH1 0x1 SWAP1 SWAP2 ADD DUP1 SLOAD SWAP5 DUP5 ADD MLOAD SWAP3 DUP5 ADD MLOAD PUSH1 0x60 SWAP1 SWAP5 ADD MLOAD PUSH1 0x1 PUSH1 0x1 PUSH1 0x40 SHL SUB SWAP1 DUP2 AND PUSH1 0x1 PUSH1 0xC0 SHL MUL PUSH1 0x1 PUSH1 0x1 PUSH1 0xC0 SHL SUB SWAP6 DUP3 AND PUSH1 0x1 PUSH1 0x80 SHL MUL SWAP6 SWAP1 SWAP6 AND PUSH1 0x1 PUSH1 0x1 PUSH1 0x80 SHL SUB SWAP5 DUP3 AND PUSH1 0x1 PUSH1 0x40 SHL MUL PUSH1 0x1 PUSH1 0x1 PUSH1 0x80 SHL SUB NOT SWAP1 SWAP8 AND SWAP2 SWAP1 SWAP4 AND OR SWAP5 SWAP1 SWAP5 OR SWAP2 SWAP1 SWAP2 AND OR OR SWAP1 SSTORE PUSH2 0x3149 JUMP JUMPDEST DUP3 ISZERO DUP1 ISZERO PUSH2 0x2FE9 JUMPI POP DUP2 ISZERO DUP1 ISZERO PUSH2 0x2FF2 JUMPI POP DUP1 ISZERO PUSH2 0x307C JUMPI DUP4 MLOAD PUSH1 0x0 DUP7 DUP2 MSTORE PUSH1 0x4 PUSH1 0x20 SWAP1 DUP2 MSTORE PUSH1 0x40 SWAP2 DUP3 SWAP1 KECCAK256 DUP4 MLOAD DUP2 SLOAD SWAP3 DUP6 ADD MLOAD SWAP4 DUP6 ADD MLOAD PUSH1 0x60 SWAP1 SWAP6 ADD MLOAD ISZERO ISZERO PUSH1 0x1 PUSH1 0xC0 SHL MUL PUSH1 0xFF PUSH1 0xC0 SHL NOT PUSH1 0x1 PUSH1 0x1 PUSH1 0x40 SHL SUB SWAP7 DUP8 AND PUSH1 0x1 PUSH1 0x80 SHL MUL AND PUSH9 0xFFFFFFFFFFFFFFFFFF PUSH1 0x80 SHL NOT SWAP6 DUP8 AND PUSH1 0x1 PUSH1 0x40 SHL MUL PUSH1 0x1 PUSH1 0x1 PUSH1 0x80 SHL SUB NOT SWAP1 SWAP6 AND SWAP7 SWAP1 SWAP3 AND SWAP6 SWAP1 SWAP6 OR SWAP3 SWAP1 SWAP3 OR SWAP3 SWAP1 SWAP3 AND OR SWAP2 SWAP1 SWAP2 OR SWAP1 SSTORE PUSH2 0x3149 JUMP JUMPDEST PUSH1 0x0 DUP1 PUSH32 0x0 PUSH1 0x1 PUSH1 0x1 PUSH1 0xA0 SHL SUB AND PUSH32 0x2737B530AB33D91025E8BD75AC76D6F8C285330AACC740150191541AE845C5A8 DUP6 DUP6 PUSH1 0x40 MLOAD PUSH1 0x24 ADD PUSH2 0x363D SWAP3 SWAP2 SWAP1 PUSH2 0x4423 JUMP JUMPDEST PUSH1 0x40 DUP1 MLOAD PUSH1 0x1F NOT DUP2 DUP5 SUB ADD DUP2 MSTORE SWAP2 DUP2 MSTORE PUSH1 0x20 DUP3 ADD DUP1 MLOAD PUSH1 0x1 PUSH1 0x1 PUSH1 0xE0 SHL SUB AND PUSH1 0x1 PUSH1 0x1 PUSH1 0xE0 SHL SUB NOT SWAP1 SWAP5 AND SWAP4 SWAP1 SWAP4 OR SWAP1 SWAP3 MSTORE SWAP1 MLOAD PUSH2 0x367B SWAP2 SWAP1 PUSH2 0x4554 JUMP JUMPDEST PUSH1 0x0 PUSH1 0x40 MLOAD DUP1 DUP4 SUB DUP2 PUSH1 0x0 DUP7 GAS CALL SWAP2 POP POP RETURNDATASIZE DUP1 PUSH1 0x0 DUP2 EQ PUSH2 0x36B8 JUMPI PUSH1 0x40 MLOAD SWAP2 POP PUSH1 0x1F NOT PUSH1 0x3F RETURNDATASIZE ADD AND DUP3 ADD PUSH1 0x40 MSTORE RETURNDATASIZE DUP3 MSTORE RETURNDATASIZE PUSH1 0x0 PUSH1 0x20 DUP5 ADD RETURNDATACOPY PUSH2 0x36BD JUMP JUMPDEST PUSH1 0x60 SWAP2 POP JUMPDEST POP SWAP2 POP SWAP2 POP DUP2 PUSH2 0x10E9 JUMPI PUSH1 0x40 MLOAD PUSH3 0x461BCD PUSH1 0xE5 SHL DUP2 MSTORE PUSH1 0x20 PUSH1 0x4 DUP3 ADD MSTORE PUSH1 0x8 PUSH1 0x24 DUP3 ADD MSTORE PUSH8 0x17D8DA185B99D959 PUSH1 0xC2 SHL PUSH1 0x44 DUP3 ADD MSTORE PUSH1 0x64 ADD PUSH2 0xA4A JUMP JUMPDEST PUSH1 0x0 SLOAD PUSH1 0x1 PUSH1 0x1 PUSH1 0xA0 SHL SUB PUSH3 0x10000 SWAP1 SWAP2 DIV AND CALLER EQ PUSH2 0xA53 JUMPI PUSH1 0x40 MLOAD PUSH3 0x461BCD PUSH1 0xE5 SHL DUP2 MSTORE PUSH1 0x20 PUSH1 0x4 DUP3 ADD MSTORE PUSH1 0x1F PUSH1 0x24 DUP3 ADD MSTORE PUSH32 0x416C6C6F77616E63653A2063616C6C6572206D757374206265204F776E657200 PUSH1 0x44 DUP3 ADD MSTORE PUSH1 0x64 ADD PUSH2 0xA4A JUMP JUMPDEST PUSH1 0x0 DUP1 SLOAD PUSH1 0x1 PUSH1 0x1 PUSH1 0xA0 SHL SUB DUP4 DUP2 AND PUSH3 0x10000 DUP2 DUP2 MUL PUSH3 0x10000 PUSH1 0x1 PUSH1 0xB0 SHL SUB NOT DUP6 AND OR DUP6 SSTORE PUSH1 0x40 MLOAD SWAP4 DIV SWAP2 SWAP1 SWAP2 AND SWAP3 SWAP1 SWAP2 DUP4 SWAP2 PUSH32 0x8BE0079C531659141344CD1FD0A4F28419497F9722A3DAAFE3B4186F6B6457E0 SWAP2 LOG3 POP POP JUMP JUMPDEST PUSH1 0x1 PUSH1 0x1 PUSH1 0xA0 SHL SUB DUP5 AND ISZERO ISZERO DUP1 PUSH2 0x37CB JUMPI POP DUP3 ISZERO JUMPDEST PUSH2 0x3812 JUMPI PUSH1 0x40 MLOAD PUSH3 0x461BCD PUSH1 0xE5 SHL DUP2 MSTORE PUSH1 0x20 PUSH1 0x4 DUP3 ADD MSTORE PUSH1 0x18 PUSH1 0x24 DUP3 ADD MSTORE PUSH24 0x43757272656E637920697320616464726573732830292C3 PUSH1 0x44 SHL PUSH1 0x44 DUP3 ADD MSTORE PUSH1 0x64 ADD PUSH2 0xA4A JUMP JUMPDEST PUSH1 0x40 MLOAD PUSH4 0x509FF69B PUSH1 0xE0 SHL DUP2 MSTORE PUSH1 0x1 PUSH1 0x1 PUSH1 0xA0 SHL SUB DUP6 DUP2 AND PUSH1 0x4 DUP4 ADD MSTORE PUSH1 0x24 DUP3 ADD DUP6 SWAP1 MSTORE PUSH1 0x0 SWAP2 PUSH32 0x0 SWAP1 SWAP2 AND SWAP1 PUSH4 0x509FF69B SWAP1 PUSH1 0x44 ADD PUSH1 0x20 PUSH1 0x40 MLOAD DUP1 DUP4 SUB DUP2 PUSH1 0x0 DUP8 GAS CALL ISZERO DUP1 ISZERO PUSH2 0x3886 JUMPI RETURNDATASIZE PUSH1 0x0 DUP1 RETURNDATACOPY RETURNDATASIZE PUSH1 0x0 REVERT JUMPDEST POP POP POP POP PUSH1 0x40 MLOAD RETURNDATASIZE PUSH1 0x1F NOT PUSH1 0x1F DUP3 ADD AND DUP3 ADD DUP1 PUSH1 0x40 MSTORE POP DUP2 ADD SWAP1 PUSH2 0x38AA SWAP2 SWAP1 PUSH2 0x443A JUMP JUMPDEST SWAP1 POP PUSH2 0x1338 DUP2 DUP5 DUP5 PUSH2 0x3E1C JUMP JUMPDEST PUSH1 0x0 PUSH2 0x38C2 DUP3 PUSH2 0x133F JUMP JUMPDEST SWAP1 POP DUP1 PUSH1 0x1 PUSH1 0x1 PUSH1 0x40 SHL SUB AND PUSH1 0x0 SUB PUSH2 0x38DB JUMPI POP POP POP POP JUMP JUMPDEST PUSH2 0x38E3 PUSH2 0x1620 JUMP JUMPDEST ISZERO PUSH2 0x3900 JUMPI PUSH1 0x40 MLOAD PUSH3 0x461BCD PUSH1 0xE5 SHL DUP2 MSTORE PUSH1 0x4 ADD PUSH2 0xA4A SWAP1 PUSH2 0x4453 JUMP JUMPDEST PUSH1 0x40 MLOAD PUSH4 0xC33470D3 PUSH1 0xE0 SHL DUP2 MSTORE PUSH1 0x4 DUP2 ADD DUP6 SWAP1 MSTORE PUSH4 0x285116A1 PUSH1 0xE2 SHL PUSH1 0x24 DUP3 ADD MSTORE PUSH32 0x0 PUSH1 0x1 PUSH1 0x1 PUSH1 0xA0 SHL SUB AND SWAP1 PUSH4 0xC33470D3 SWAP1 PUSH1 0x44 ADD PUSH1 0x20 PUSH1 0x40 MLOAD DUP1 DUP4 SUB DUP2 DUP7 GAS STATICCALL ISZERO DUP1 ISZERO PUSH2 0x3972 JUMPI RETURNDATASIZE PUSH1 0x0 DUP1 RETURNDATACOPY RETURNDATASIZE PUSH1 0x0 REVERT JUMPDEST POP POP POP POP PUSH1 0x40 MLOAD RETURNDATASIZE PUSH1 0x1F NOT PUSH1 0x1F DUP3 ADD AND DUP3 ADD DUP1 PUSH1 0x40 MSTORE POP DUP2 ADD SWAP1 PUSH2 0x3996 SWAP2 SWAP1 PUSH2 0x4401 JUMP JUMPDEST ISZERO PUSH2 0x3AC7 JUMPI PUSH1 0x40 MLOAD PUSH4 0xC25E483 PUSH1 0xE1 SHL DUP2 MSTORE PUSH1 0x4 DUP2 ADD DUP6 SWAP1 MSTORE PUSH32 0x0 PUSH1 0x1 PUSH1 0x1 PUSH1 0xA0 SHL SUB AND SWAP1 PUSH4 0x184BC906 SWAP1 PUSH1 0x24 ADD PUSH1 0x20 PUSH1 0x40 MLOAD DUP1 DUP4 SUB DUP2 DUP7 GAS STATICCALL ISZERO DUP1 ISZERO PUSH2 0x3A00 JUMPI RETURNDATASIZE PUSH1 0x0 DUP1 RETURNDATACOPY RETURNDATASIZE PUSH1 0x0 REVERT JUMPDEST POP POP POP POP PUSH1 0x40 MLOAD RETURNDATASIZE PUSH1 0x1F NOT PUSH1 0x1F DUP3 ADD AND DUP3 ADD DUP1 PUSH1 0x40 MSTORE POP DUP2 ADD SWAP1 PUSH2 0x3A24 SWAP2 SWAP1 PUSH2 0x458F JUMP JUMPDEST PUSH1 0x1 PUSH1 0x1 PUSH1 0xA0 SHL SUB AND PUSH4 0xA0BB9323 PUSH1 0x40 MLOAD DUP2 PUSH4 0xFFFFFFFF AND PUSH1 0xE0 SHL DUP2 MSTORE PUSH1 0x4 ADD PUSH1 0x20 PUSH1 0x40 MLOAD DUP1 DUP4 SUB DUP2 DUP7 GAS STATICCALL ISZERO DUP1 ISZERO PUSH2 0x3A61 JUMPI RETURNDATASIZE PUSH1 0x0 DUP1 RETURNDATACOPY RETURNDATASIZE PUSH1 0x0 REVERT JUMPDEST POP POP POP POP PUSH1 0x40 MLOAD RETURNDATASIZE PUSH1 0x1F NOT PUSH1 0x1F DUP3 ADD AND DUP3 ADD DUP1 PUSH1 0x40 MSTORE POP DUP2 ADD SWAP1 PUSH2 0x3A85 SWAP2 SWAP1 PUSH2 0x4401 JUMP JUMPDEST PUSH2 0x3AC7 JUMPI PUSH1 0x40 MLOAD PUSH3 0x461BCD PUSH1 0xE5 SHL DUP2 MSTORE PUSH1 0x20 PUSH1 0x4 DUP3 ADD MSTORE PUSH1 0x13 PUSH1 0x24 DUP3 ADD MSTORE PUSH19 0x546F6B656E206E6F742062616E6B6561626C65 PUSH1 0x68 SHL PUSH1 0x44 DUP3 ADD MSTORE PUSH1 0x64 ADD PUSH2 0xA4A JUMP JUMPDEST PUSH32 0x0 PUSH1 0x1 PUSH1 0x1 PUSH1 0xA0 SHL SUB AND PUSH4 0x4635229B PUSH1 0x40 MLOAD DUP2 PUSH4 0xFFFFFFFF AND PUSH1 0xE0 SHL DUP2 MSTORE PUSH1 0x4 ADD PUSH1 0x20 PUSH1 0x40 MLOAD DUP1 DUP4 SUB DUP2 DUP7 GAS STATICCALL ISZERO DUP1 ISZERO PUSH2 0x3B25 JUMPI RETURNDATASIZE PUSH1 0x0 DUP1 RETURNDATACOPY RETURNDATASIZE PUSH1 0x0 REVERT JUMPDEST POP POP POP POP PUSH1 0x40 MLOAD RETURNDATASIZE PUSH1 0x1F NOT PUSH1 0x1F DUP3 ADD AND DUP3 ADD DUP1 PUSH1 0x40 MSTORE POP DUP2 ADD SWAP1 PUSH2 0x3B49 SWAP2 SWAP1 PUSH2 0x4401 JUMP JUMPDEST PUSH2 0x3D92 JUMPI PUSH1 0x40 MLOAD PUSH4 0xA663D4F5 PUSH1 0xE0 SHL DUP2 MSTORE PUSH1 0x4 DUP2 ADD DUP6 SWAP1 MSTORE PUSH1 0x1 PUSH1 0x24 DUP3 ADD MSTORE PUSH32 0x0 PUSH1 0x1 PUSH1 0x1 PUSH1 0xA0 SHL SUB AND SWAP1 PUSH4 0xA663D4F5 SWAP1 PUSH1 0x44 ADD PUSH1 0x20 PUSH1 0x40 MLOAD DUP1 DUP4 SUB DUP2 DUP7 GAS STATICCALL ISZERO DUP1 ISZERO PUSH2 0x3BB9 JUMPI RETURNDATASIZE PUSH1 0x0 DUP1 RETURNDATACOPY RETURNDATASIZE PUSH1 0x0 REVERT JUMPDEST POP POP POP POP PUSH1 0x40 MLOAD RETURNDATASIZE PUSH1 0x1F NOT PUSH1 0x1F DUP3 ADD AND DUP3 ADD DUP1 PUSH1 0x40 MSTORE POP DUP2 ADD SWAP1 PUSH2 0x3BDD SWAP2 SWAP1 PUSH2 0x4401 JUMP JUMPDEST PUSH2 0x3D92 JUMPI PUSH1 0x40 MLOAD PUSH4 0xA663D4F5 PUSH1 0xE0 SHL DUP2 MSTORE PUSH1 0x4 DUP2 ADD DUP6 SWAP1 MSTORE PUSH1 0x2 PUSH1 0x24 DUP3 ADD MSTORE PUSH32 0x0 PUSH1 0x1 PUSH1 0x1 PUSH1 0xA0 SHL SUB AND SWAP1 PUSH4 0xA663D4F5 SWAP1 PUSH1 0x44 ADD PUSH1 0x20 PUSH1 0x40 MLOAD DUP1 DUP4 SUB DUP2 DUP7 GAS STATICCALL ISZERO DUP1 ISZERO PUSH2 0x3C4D JUMPI RETURNDATASIZE PUSH1 0x0 DUP1 RETURNDATACOPY RETURNDATASIZE PUSH1 0x0 REVERT JUMPDEST POP POP POP POP PUSH1 0x40 MLOAD RETURNDATASIZE PUSH1 0x1F NOT PUSH1 0x1F DUP3 ADD AND DUP3 ADD DUP1 PUSH1 0x40 MSTORE POP DUP2 ADD SWAP1 PUSH2 0x3C71 SWAP2 SWAP1 PUSH2 0x4401 JUMP JUMPDEST ISZERO PUSH2 0x3D92 JUMPI PUSH1 0x40 MLOAD PUSH4 0xC25E483 PUSH1 0xE1 SHL DUP2 MSTORE PUSH1 0x4 DUP2 ADD DUP6 SWAP1 MSTORE PUSH32 0x0 PUSH1 0x1 PUSH1 0x1 PUSH1 0xA0 SHL SUB AND SWAP1 PUSH4 0x184BC906 SWAP1 PUSH1 0x24 ADD PUSH1 0x20 PUSH1 0x40 MLOAD DUP1 DUP4 SUB DUP2 DUP7 GAS STATICCALL ISZERO DUP1 ISZERO PUSH2 0x3CDB JUMPI RETURNDATASIZE PUSH1 0x0 DUP1 RETURNDATACOPY RETURNDATASIZE PUSH1 0x0 REVERT JUMPDEST POP POP POP POP PUSH1 0x40 MLOAD RETURNDATASIZE PUSH1 0x1F NOT PUSH1 0x1F DUP3 ADD AND DUP3 ADD DUP1 PUSH1 0x40 MSTORE POP DUP2 ADD SWAP1 PUSH2 0x3CFF SWAP2 SWAP1 PUSH2 0x458F JUMP JUMPDEST PUSH1 0x1 PUSH1 0x1 PUSH1 0xA0 SHL SUB AND PUSH4 0x23B872DD DUP5 ADDRESS PUSH2 0x3D18 DUP6 PUSH2 0x1D5E JUMP JUMPDEST PUSH1 0x40 MLOAD PUSH1 0x1 PUSH1 0x1 PUSH1 0xE0 SHL SUB NOT PUSH1 0xE0 DUP7 SWAP1 SHL AND DUP2 MSTORE PUSH1 0x1 PUSH1 0x1 PUSH1 0xA0 SHL SUB SWAP4 DUP5 AND PUSH1 0x4 DUP3 ADD MSTORE SWAP3 SWAP1 SWAP2 AND PUSH1 0x24 DUP4 ADD MSTORE PUSH1 0x44 DUP3 ADD MSTORE PUSH1 0x64 ADD PUSH1 0x20 PUSH1 0x40 MLOAD DUP1 DUP4 SUB DUP2 PUSH1 0x0 DUP8 GAS CALL ISZERO DUP1 ISZERO PUSH2 0x3D6C JUMPI RETURNDATASIZE PUSH1 0x0 DUP1 RETURNDATACOPY RETURNDATASIZE PUSH1 0x0 REVERT JUMPDEST POP POP POP POP PUSH1 0x40 MLOAD RETURNDATASIZE PUSH1 0x1F NOT PUSH1 0x1F DUP3 ADD AND DUP3 ADD DUP1 PUSH1 0x40 MSTORE POP DUP2 ADD SWAP1 PUSH2 0x3D90 SWAP2 SWAP1 PUSH2 0x4401 JUMP JUMPDEST POP JUMPDEST PUSH1 0x40 MLOAD PUSH4 0x16F4B929 PUSH1 0xE2 SHL DUP2 MSTORE PUSH20 0x0 SWAP1 PUSH4 0x5BD2E4A4 SWAP1 PUSH2 0x3DCC SWAP1 PUSH1 0x1 SWAP1 DUP8 SWAP1 PUSH1 0x4 ADD PUSH2 0x4423 JUMP JUMPDEST PUSH1 0x20 PUSH1 0x40 MLOAD DUP1 DUP4 SUB DUP2 DUP7 GAS DELEGATECALL ISZERO DUP1 ISZERO PUSH2 0x3DE9 JUMPI RETURNDATASIZE PUSH1 0x0 DUP1 RETURNDATACOPY RETURNDATASIZE PUSH1 0x0 REVERT JUMPDEST POP POP POP POP PUSH1 0x40 MLOAD RETURNDATASIZE PUSH1 0x1F NOT PUSH1 0x1F DUP3 ADD AND DUP3 ADD DUP1 PUSH1 0x40 MSTORE POP DUP2 ADD SWAP1 PUSH2 0x3E0D SWAP2 SWAP1 PUSH2 0x4401 JUMP JUMPDEST POP PUSH2 0x10E9 DUP5 DUP5 PUSH2 0x1003 DUP5 PUSH2 0x1D5E JUMP JUMPDEST PUSH1 0x0 PUSH2 0x3E27 DUP3 PUSH2 0x133F JUMP JUMPDEST SWAP1 POP DUP1 PUSH1 0x1 PUSH1 0x1 PUSH1 0x40 SHL SUB AND PUSH1 0x0 SUB PUSH2 0x3E40 JUMPI POP POP POP POP JUMP JUMPDEST PUSH2 0x3E48 PUSH2 0x1620 JUMP JUMPDEST ISZERO PUSH2 0x3E65 JUMPI PUSH1 0x40 MLOAD PUSH3 0x461BCD PUSH1 0xE5 SHL DUP2 MSTORE PUSH1 0x4 ADD PUSH2 0xA4A SWAP1 PUSH2 0x4453 JUMP JUMPDEST DUP1 PUSH1 0x1 PUSH1 0x1 PUSH1 0x40 SHL SUB AND PUSH2 0x3E79 DUP6 DUP6 PUSH2 0x2558 JUMP JUMPDEST PUSH1 0x1 PUSH1 0x1 PUSH1 0x40 SHL SUB AND LT ISZERO PUSH2 0x3E8D JUMPI PUSH1 0x0 DUP1 REVERT JUMPDEST PUSH32 0x0 PUSH1 0x1 PUSH1 0x1 PUSH1 0xA0 SHL SUB AND PUSH4 0x4635229B PUSH1 0x40 MLOAD DUP2 PUSH4 0xFFFFFFFF AND PUSH1 0xE0 SHL DUP2 MSTORE PUSH1 0x4 ADD PUSH1 0x20 PUSH1 0x40 MLOAD DUP1 DUP4 SUB DUP2 DUP7 GAS STATICCALL ISZERO DUP1 ISZERO PUSH2 0x3EEB JUMPI RETURNDATASIZE PUSH1 0x0 DUP1 RETURNDATACOPY RETURNDATASIZE PUSH1 0x0 REVERT JUMPDEST POP POP POP POP PUSH1 0x40 MLOAD RETURNDATASIZE PUSH1 0x1F NOT PUSH1 0x1F DUP3 ADD AND DUP3 ADD DUP1 PUSH1 0x40 MSTORE POP DUP2 ADD SWAP1 PUSH2 0x3F0F SWAP2 SWAP1 PUSH2 0x4401 JUMP JUMPDEST PUSH2 0x418B JUMPI PUSH1 0x40 MLOAD PUSH4 0xA663D4F5 PUSH1 0xE0 SHL DUP2 MSTORE PUSH1 0x4 DUP2 ADD DUP6 SWAP1 MSTORE PUSH1 0x1 PUSH1 0x24 DUP3 ADD MSTORE PUSH32 0x0 PUSH1 0x1 PUSH1 0x1 PUSH1 0xA0 SHL SUB AND SWAP1 PUSH4 0xA663D4F5 SWAP1 PUSH1 0x44 ADD PUSH1 0x20 PUSH1 0x40 MLOAD DUP1 DUP4 SUB DUP2 DUP7 GAS STATICCALL ISZERO DUP1 ISZERO PUSH2 0x3F7F JUMPI RETURNDATASIZE PUSH1 0x0 DUP1 RETURNDATACOPY RETURNDATASIZE PUSH1 0x0 REVERT JUMPDEST POP POP POP POP PUSH1 0x40 MLOAD RETURNDATASIZE PUSH1 0x1F NOT PUSH1 0x1F DUP3 ADD AND DUP3 ADD DUP1 PUSH1 0x40 MSTORE POP DUP2 ADD SWAP1 PUSH2 0x3FA3 SWAP2 SWAP1 PUSH2 0x4401 JUMP JUMPDEST ISZERO PUSH2 0x3FE4 JUMPI PUSH1 0x40 MLOAD PUSH1 0x1 PUSH1 0x1 PUSH1 0xA0 SHL SUB DUP5 AND SWAP1 DUP4 ISZERO PUSH2 0x8FC MUL SWAP1 DUP5 SWAP1 PUSH1 0x0 DUP2 DUP2 DUP2 DUP6 DUP9 DUP9 CALL SWAP4 POP POP POP POP ISZERO DUP1 ISZERO PUSH2 0x3FDE JUMPI RETURNDATASIZE PUSH1 0x0 DUP1 RETURNDATACOPY RETURNDATASIZE PUSH1 0x0 REVERT JUMPDEST POP PUSH2 0x418B JUMP JUMPDEST PUSH1 0x40 MLOAD PUSH4 0xA663D4F5 PUSH1 0xE0 SHL DUP2 MSTORE PUSH1 0x4 DUP2 ADD DUP6 SWAP1 MSTORE PUSH1 0x2 PUSH1 0x24 DUP3 ADD MSTORE PUSH32 0x0 PUSH1 0x1 PUSH1 0x1 PUSH1 0xA0 SHL SUB AND SWAP1 PUSH4 0xA663D4F5 SWAP1 PUSH1 0x44 ADD PUSH1 0x20 PUSH1 0x40 MLOAD DUP1 DUP4 SUB DUP2 DUP7 GAS STATICCALL ISZERO DUP1 ISZERO PUSH2 0x4050 JUMPI RETURNDATASIZE PUSH1 0x0 DUP1 RETURNDATACOPY RETURNDATASIZE PUSH1 0x0 REVERT JUMPDEST POP POP POP POP PUSH1 0x40 MLOAD RETURNDATASIZE PUSH1 0x1F NOT PUSH1 0x1F DUP3 ADD AND DUP3 ADD DUP1 PUSH1 0x40 MSTORE POP DUP2 ADD SWAP1 PUSH2 0x4074 SWAP2 SWAP1 PUSH2 0x4401 JUMP JUMPDEST ISZERO PUSH2 0x418B JUMPI PUSH1 0x40 MLOAD PUSH4 0xC25E483 PUSH1 0xE1 SHL DUP2 MSTORE PUSH1 0x4 DUP2 ADD DUP6 SWAP1 MSTORE PUSH32 0x0 PUSH1 0x1 PUSH1 0x1 PUSH1 0xA0 SHL SUB AND SWAP1 PUSH4 0x184BC906 SWAP1 PUSH1 0x24 ADD PUSH1 0x20 PUSH1 0x40 MLOAD DUP1 DUP4 SUB DUP2 DUP7 GAS STATICCALL ISZERO DUP1 ISZERO PUSH2 0x40DE JUMPI RETURNDATASIZE PUSH1 0x0 DUP1 RETURNDATACOPY RETURNDATASIZE PUSH1 0x0 REVERT JUMPDEST POP POP POP POP PUSH1 0x40 MLOAD RETURNDATASIZE PUSH1 0x1F NOT PUSH1 0x1F DUP3 ADD AND DUP3 ADD DUP1 PUSH1 0x40 MSTORE POP DUP2 ADD SWAP1 PUSH2 0x4102 SWAP2 SWAP1 PUSH2 0x458F JUMP JUMPDEST PUSH1 0x1 PUSH1 0x1 PUSH1 0xA0 SHL SUB AND PUSH4 0xA9059CBB DUP5 PUSH2 0x411A DUP5 PUSH2 0x1D5E JUMP JUMPDEST PUSH1 0x40 MLOAD PUSH1 0x1 PUSH1 0x1 PUSH1 0xE0 SHL SUB NOT PUSH1 0xE0 DUP6 SWAP1 SHL AND DUP2 MSTORE PUSH1 0x1 PUSH1 0x1 PUSH1 0xA0 SHL SUB SWAP1 SWAP3 AND PUSH1 0x4 DUP4 ADD MSTORE PUSH1 0x24 DUP3 ADD MSTORE PUSH1 0x44 ADD PUSH1 0x20 PUSH1 0x40 MLOAD DUP1 DUP4 SUB DUP2 PUSH1 0x0 DUP8 GAS CALL ISZERO DUP1 ISZERO PUSH2 0x4165 JUMPI RETURNDATASIZE PUSH1 0x0 DUP1 RETURNDATACOPY RETURNDATASIZE PUSH1 0x0 REVERT JUMPDEST POP POP POP POP PUSH1 0x40 MLOAD RETURNDATASIZE PUSH1 0x1F NOT PUSH1 0x1F DUP3 ADD AND DUP3 ADD DUP1 PUSH1 0x40 MSTORE POP DUP2 ADD SWAP1 PUSH2 0x4189 SWAP2 SWAP1 PUSH2 0x4401 JUMP JUMPDEST POP JUMPDEST PUSH2 0x10E9 DUP5 DUP5 PUSH2 0xFF0 DUP5 PUSH2 0x1D5E JUMP JUMPDEST PUSH1 0x0 DUP1 DUP6 DUP6 GT ISZERO PUSH2 0x41A9 JUMPI PUSH1 0x0 DUP1 REVERT JUMPDEST DUP4 DUP7 GT ISZERO PUSH2 0x41B6 JUMPI PUSH1 0x0 DUP1 REVERT JUMPDEST POP POP DUP3 ADD SWAP4 SWAP2 SWAP1 SWAP3 SUB SWAP2 POP JUMP JUMPDEST PUSH1 0x0 PUSH1 0x20 DUP3 DUP5 SUB SLT ISZERO PUSH2 0x41D5 JUMPI PUSH1 0x0 DUP1 REVERT JUMPDEST DUP2 CALLDATALOAD PUSH1 0x1 PUSH1 0x1 PUSH1 0xE0 SHL SUB NOT DUP2 AND DUP2 EQ PUSH2 0x1C8D JUMPI PUSH1 0x0 DUP1 REVERT JUMPDEST PUSH1 0x1 PUSH1 0x1 PUSH1 0xA0 SHL SUB DUP2 AND DUP2 EQ PUSH2 0x23EE JUMPI PUSH1 0x0 DUP1 REVERT JUMPDEST PUSH1 0x0 DUP1 PUSH1 0x40 DUP4 DUP6 SUB SLT ISZERO PUSH2 0x4215 JUMPI PUSH1 0x0 DUP1 REVERT JUMPDEST DUP3 CALLDATALOAD SWAP2 POP PUSH1 0x20 DUP4 ADD CALLDATALOAD PUSH2 0x4227 DUP2 PUSH2 0x41ED JUMP JUMPDEST DUP1 SWAP2 POP POP SWAP3 POP SWAP3 SWAP1 POP JUMP JUMPDEST PUSH1 0x0 DUP1 PUSH1 0x0 PUSH1 0x60 DUP5 DUP7 SUB SLT ISZERO PUSH2 0x4247 JUMPI PUSH1 0x0 DUP1 REVERT JUMPDEST DUP4 CALLDATALOAD PUSH2 0x4252 DUP2 PUSH2 0x41ED JUMP JUMPDEST SWAP6 PUSH1 0x20 DUP6 ADD CALLDATALOAD SWAP6 POP PUSH1 0x40 SWAP1 SWAP5 ADD CALLDATALOAD SWAP4 SWAP3 POP POP POP JUMP JUMPDEST PUSH1 0x0 DUP1 PUSH1 0x0 DUP1 PUSH1 0x80 DUP6 DUP8 SUB SLT ISZERO PUSH2 0x427D JUMPI PUSH1 0x0 DUP1 REVERT JUMPDEST DUP5 CALLDATALOAD SWAP4 POP PUSH1 0x20 DUP6 ADD CALLDATALOAD PUSH2 0x428F DUP2 PUSH2 0x41ED JUMP JUMPDEST SWAP3 POP PUSH1 0x40 DUP6 ADD CALLDATALOAD PUSH2 0x429F DUP2 PUSH2 0x41ED JUMP JUMPDEST SWAP4 SWAP7 SWAP3 SWAP6 POP SWAP3 SWAP4 PUSH1 0x60 ADD CALLDATALOAD SWAP3 POP POP JUMP JUMPDEST PUSH1 0x0 PUSH1 0x20 DUP3 DUP5 SUB SLT ISZERO PUSH2 0x42C1 JUMPI PUSH1 0x0 DUP1 REVERT JUMPDEST POP CALLDATALOAD SWAP2 SWAP1 POP JUMP JUMPDEST PUSH1 0x0 PUSH1 0x20 DUP3 DUP5 SUB SLT ISZERO PUSH2 0x42DA JUMPI PUSH1 0x0 DUP1 REVERT JUMPDEST DUP2 CALLDATALOAD PUSH2 0x1C8D DUP2 PUSH2 0x41ED JUMP JUMPDEST PUSH1 0x0 DUP1 PUSH1 0x0 DUP1 PUSH1 0x80 DUP6 DUP8 SUB SLT ISZERO PUSH2 0x42FB JUMPI PUSH1 0x0 DUP1 REVERT JUMPDEST DUP5 CALLDATALOAD PUSH2 0x4306 DUP2 PUSH2 0x41ED JUMP JUMPDEST SWAP4 POP PUSH1 0x20 DUP6 ADD CALLDATALOAD SWAP3 POP PUSH1 0x40 DUP6 ADD CALLDATALOAD PUSH2 0x429F DUP2 PUSH2 0x41ED JUMP JUMPDEST PUSH1 0x0 PUSH1 0x20 DUP3 DUP5 SUB SLT ISZERO PUSH2 0x432F JUMPI PUSH1 0x0 DUP1 REVERT JUMPDEST DUP2 CALLDATALOAD PUSH6 0xFFFFFFFFFFFF DUP2 AND DUP2 EQ PUSH2 0x1C8D JUMPI PUSH1 0x0 DUP1 REVERT JUMPDEST PUSH1 0x0 DUP1 PUSH1 0x40 DUP4 DUP6 SUB SLT ISZERO PUSH2 0x4358 JUMPI PUSH1 0x0 DUP1 REVERT JUMPDEST DUP3 CALLDATALOAD PUSH2 0x4363 DUP2 PUSH2 0x41ED JUMP JUMPDEST SWAP5 PUSH1 0x20 SWAP4 SWAP1 SWAP4 ADD CALLDATALOAD SWAP4 POP POP POP JUMP JUMPDEST PUSH1 0x0 PUSH1 0x20 DUP3 DUP5 SUB SLT ISZERO PUSH2 0x4383 JUMPI PUSH1 0x0 DUP1 REVERT JUMPDEST DUP2 CALLDATALOAD PUSH1 0x1 PUSH1 0x1 PUSH1 0x40 SHL SUB DUP2 AND DUP2 EQ PUSH2 0x1C8D JUMPI PUSH1 0x0 DUP1 REVERT JUMPDEST PUSH1 0x0 PUSH1 0x20 DUP3 DUP5 SUB SLT ISZERO PUSH2 0x43AC JUMPI PUSH1 0x0 DUP1 REVERT JUMPDEST DUP2 CALLDATALOAD PUSH4 0xFFFFFFFF DUP2 AND DUP2 EQ PUSH2 0x1C8D JUMPI PUSH1 0x0 DUP1 REVERT JUMPDEST PUSH1 0x0 DUP1 PUSH1 0x0 PUSH1 0x60 DUP5 DUP7 SUB SLT ISZERO PUSH2 0x43D5 JUMPI PUSH1 0x0 DUP1 REVERT JUMPDEST DUP4 CALLDATALOAD PUSH2 0x43E0 DUP2 PUSH2 0x41ED JUMP JUMPDEST SWAP3 POP PUSH1 0x20 DUP5 ADD CALLDATALOAD PUSH2 0x43F0 DUP2 PUSH2 0x41ED JUMP JUMPDEST SWAP3 SWAP6 SWAP3 SWAP5 POP POP POP PUSH1 0x40 SWAP2 SWAP1 SWAP2 ADD CALLDATALOAD SWAP1 JUMP JUMPDEST PUSH1 0x0 PUSH1 0x20 DUP3 DUP5 SUB SLT ISZERO PUSH2 0x4413 JUMPI PUSH1 0x0 DUP1 REVERT JUMPDEST DUP2 MLOAD DUP1 ISZERO ISZERO DUP2 EQ PUSH2 0x1C8D JUMPI PUSH1 0x0 DUP1 REVERT JUMPDEST SWAP2 DUP3 MSTORE PUSH1 0x1 PUSH1 0x1 PUSH1 0xA0 SHL SUB AND PUSH1 0x20 DUP3 ADD MSTORE PUSH1 0x40 ADD SWAP1 JUMP JUMPDEST PUSH1 0x0 PUSH1 0x20 DUP3 DUP5 SUB SLT ISZERO PUSH2 0x444C JUMPI PUSH1 0x0 DUP1 REVERT JUMPDEST POP MLOAD SWAP2 SWAP1 POP JUMP JUMPDEST PUSH1 0x20 DUP1 DUP3 MSTORE PUSH1 0x10 SWAP1 DUP3 ADD MSTORE PUSH16 0x10DBDB9D1C9858DD081CDD1BDC1C1959 PUSH1 0x82 SHL PUSH1 0x40 DUP3 ADD MSTORE PUSH1 0x60 ADD SWAP1 JUMP JUMPDEST PUSH4 0x4E487B71 PUSH1 0xE0 SHL PUSH1 0x0 MSTORE PUSH1 0x11 PUSH1 0x4 MSTORE PUSH1 0x24 PUSH1 0x0 REVERT JUMPDEST PUSH1 0x0 DUP3 PUSH2 0x44B0 JUMPI PUSH4 0x4E487B71 PUSH1 0xE0 SHL PUSH1 0x0 MSTORE PUSH1 0x12 PUSH1 0x4 MSTORE PUSH1 0x24 PUSH1 0x0 REVERT JUMPDEST POP DIV SWAP1 JUMP JUMPDEST PUSH4 0x4E487B71 PUSH1 0xE0 SHL PUSH1 0x0 MSTORE PUSH1 0x1 PUSH1 0x4 MSTORE PUSH1 0x24 PUSH1 0x0 REVERT JUMPDEST PUSH1 0x0 PUSH1 0x1 PUSH1 0x1 PUSH1 0x40 SHL SUB DUP1 DUP4 AND DUP2 DUP6 AND DUP1 DUP4 SUB DUP3 GT ISZERO PUSH2 0x44ED JUMPI PUSH2 0x44ED PUSH2 0x447D JUMP JUMPDEST ADD SWAP5 SWAP4 POP POP POP POP JUMP JUMPDEST PUSH1 0x0 PUSH1 0x1 PUSH1 0x1 PUSH1 0x40 SHL SUB DUP4 DUP2 AND SWAP1 DUP4 AND DUP2 DUP2 LT ISZERO PUSH2 0x4516 JUMPI PUSH2 0x4516 PUSH2 0x447D JUMP JUMPDEST SUB SWAP4 SWAP3 POP POP POP JUMP JUMPDEST PUSH1 0x0 DUP2 PUSH1 0x0 NOT DIV DUP4 GT DUP3 ISZERO ISZERO AND ISZERO PUSH2 0x4538 JUMPI PUSH2 0x4538 PUSH2 0x447D JUMP JUMPDEST POP MUL SWAP1 JUMP JUMPDEST PUSH1 0x0 DUP3 DUP3 LT ISZERO PUSH2 0x454F JUMPI PUSH2 0x454F PUSH2 0x447D JUMP JUMPDEST POP SUB SWAP1 JUMP JUMPDEST PUSH1 0x0 DUP3 MLOAD PUSH1 0x0 JUMPDEST DUP2 DUP2 LT ISZERO PUSH2 0x4575 JUMPI PUSH1 0x20 DUP2 DUP7 ADD DUP2 ADD MLOAD DUP6 DUP4 ADD MSTORE ADD PUSH2 0x455B JUMP JUMPDEST DUP2 DUP2 GT ISZERO PUSH2 0x4584 JUMPI PUSH1 0x0 DUP3 DUP6 ADD MSTORE JUMPDEST POP SWAP2 SWAP1 SWAP2 ADD SWAP3 SWAP2 POP POP JUMP JUMPDEST PUSH1 0x0 PUSH1 0x20 DUP3 DUP5 SUB SLT ISZERO PUSH2 0x45A1 JUMPI PUSH1 0x0 DUP1 REVERT JUMPDEST DUP2 MLOAD PUSH2 0x1C8D DUP2 PUSH2 0x41ED JUMP INVALID LOG2 PUSH5 0x6970667358 0x22 SLT KECCAK256 0xE5 SSTORE 0x5E 0xD9 SWAP1 0xB1 DUP3 0xAB 0xB0 DUP10 SELFBALANCE 0xC SWAP6 0xB8 0x4A DUP15 0xEA 0xE6 BASEFEE GASPRICE LT 0xC6 NUMBER 0x4E BALANCE PUSH1 0x62 0xD3 MSTORE DUP5 PUSH28 0xC464736F6C634300080D003300000000000000000000000000000000 ",
  "sha1": "bf133bbf0b00114b33c4909a434814b6da9cae2f",
  "source": "// SPDX-License-Identifier: MIT\n// Beef Contracts v0.0.0 hello@mcdu.com\n\npragma solidity ^0.8.0;\n\nimport \"@openzeppelin/contracts/utils/introspection/IERC165.sol\";\nimport \"@openzeppelin/contracts/token/ERC20/IERC20.sol\";\n\nimport \"../agnostic/Mode.sol\";\nimport \"../agnostic/Array.sol\";\nimport \"../agnostic/UIntConverter.sol\";\nimport \"../agnostic/Token/TokenLib.sol\";\nimport \"../Quote/Quotator.sol\";\nimport \"../../interfaces/IPolymorph.sol\";\nimport \"../agnostic/StringLib.sol\";\nimport \"../../interfaces/ITradeableAndIBankable.sol\";\n\nbytes32 constant BANK = keccak256(\"Bank\");\n\ncontract Bank is\n    RepositoryContract,\n    UIntConverter\n{\n\n    function id() public view returns (bytes32) {return BANK;}\n\n    /////////////////////////////////////////////////////////////////////////////////////////\n    //      event\n    /////////////////////////////////////////////////////////////////////////////////////////\n    event Transferred(\n        bytes32 indexed currency_,\n        address indexed from_,\n        address indexed to_,\n        uint256 amount_\n    );\n    event Stacked(\n        bytes32 indexed currency_,\n        address indexed account_,\n        uint256 amount_\n    );\n\n    function _changed(bytes32 currency_, address account_) internal virtual {\n        (bool success, bytes memory data) = address(rep).call(\n            abi.encodeWithSelector(\n                bytes4(keccak256(\"_changed(bytes32,address)\")),\n                currency_,\n                account_\n            )\n        );\n        require(success, \"_changed\");\n    }\n\n    using Array for address[];\n    using Array for bytes32[];\n\n    struct AccountMain64 {\n        uint64 _balance;\n        uint64 _reserve;\n        uint64 _collateral;\n        bool _opaque;\n    }\n    struct AccountExtra64 {\n        uint64 _credit;\n        uint64 _allowance;\n        uint64 _collateralcredit;\n        uint64 _collateralallowance;\n    }\n    struct Account64 {\n        //2x256bits\n        AccountMain64 m;\n        AccountExtra64 e;\n    }\n    struct Account {\n        uint256 _balance;\n        uint256 _reserve;\n        uint256 _collateral;\n        uint256 _credit;\n        uint256 _allowance;\n        uint256 _collateralcredit;\n        uint256 _collateralallowance;\n        uint256 _available;\n        uint256 _unstackable;\n        uint256 _creditused;\n        uint256 _creditavailable;\n    }\n\n    /////////////////////////////////////////////////////////////////////////////////////////\n    //      constructor\n    /////////////////////////////////////////////////////////////////////////////////////////\n    constructor(Repository rep_) RepositoryContract(rep_) {}\n\n    function granularity(uint256 granularity_)\n        public\n        pure\n        returns (uint256 out_)\n    {\n        out_ = UInt64ToUInt256(UInt256ToUInt64(granularity_));\n        if (out_ == 0) out_ = UInt64ToUInt256(1);\n    }\n    function granularity(bytes32 tokenhash_)\n        public\n        view\n        virtual\n        returns (uint256)\n    {\n        return granularity(rep.granularity(tokenhash_));\n    }\n    /////////////////////////////////////////////////////////////////////////////////////////\n    //      pure virtual abstract\n    /////////////////////////////////////////////////////////////////////////////////////////\n    /*function _liquidate() internal virtual override {\n        //refund everyone fairly\n        \n        for (uint j;j<_currencies.length;j++)\n        {\n            address token = _currencies[j];\n            uint256 totalcredit = _credits[token];\n            if (totalcredit>available(token,ownerOf()))\n                totalcredit-=available(token,ownerOf());\n            else \n                totalcredit =0;\n            uint256 _totalsupply = IERC20(token).balanceOf(address(this));\n            if (_totalsupply!=0)\n            {\n                uint256 lostratio = (10**18*totalcredit) / _totalsupply;\n                for (uint i; i<_holders.length;i++)\n                {\n                    address  _holder = _holders[i];\n                    if (_holder==ownerOf()) continue;\n                    Account64 memory _account = _accounts[keccak256(abi.encodePacked(token, _holder))];\n                    if (_account.e._credit!=0||_account.e._collateralcredit!=0) continue;\n                    uint256 _torefund = UInt64ToUInt256(_account.m._balance) + UInt64ToUInt256(_account.m._reserve);\n                    _torefund -= (_torefund*lostratio) / 10**18;\n                    if (!MODETEST) IERC20(token).transfer(_holder, _torefund);\n                }\n            }\n\n            \n            _totalsupply = IERC20(token).balanceOf(address(this));\n            if (_totalsupply!=0)\n                if (!MODETEST) IERC20(token).transfer(ownerOf(), _totalsupply);\n        }\n    }*/\n\n    /////////////////////////////////////////////////////////////////////////////////////////\n    //      storage\n    /////////////////////////////////////////////////////////////////////////////////////////\n\n    address[] private _holders;\n    mapping(bytes32 => uint256) private _credits; // bytes32 is keccak(token,id)\n    bool private _stopcredit;\n    mapping(bytes32 => Account64) private _accounts; // bytes32 is keccak(keccak(token,id),account))\n\n    function _available64(bytes32 currency_, address account_)\n        internal\n        view\n        returns (uint64)\n    {\n        Account64 memory _account = _accounts[\n            BytesAndKeccakLib.pureBytes32Address(currency_, account_)\n        ];\n        if (_stopcredit) return _account.m._balance;\n        return _account.m._balance + _creditAvailable64(currency_, account_);\n    }\n\n    function available(bytes32 currency_, address account_)\n        public\n        view\n        returns (uint256)\n    {\n        return UInt64ToUInt256(_available64(currency_, account_));\n    }\n\n    function _unstackable64(bytes32 currency_, address account_)\n        internal\n        view\n        returns (uint64)\n    {\n        Account64 memory _account = _accounts[\n            BytesAndKeccakLib.pureBytes32Address(currency_, account_)\n        ];\n        if (\n            (_creditUsed64(currency_, account_) > 0) ||\n            (_account.m._collateral > _account.m._balance)\n        ) return 0;\n        return _account.m._balance - _account.m._collateral;\n    }\n\n    function _creditUsed64(bytes32 currency_, address account_)\n        internal\n        view\n        returns (uint64)\n    {\n        Account64 memory _account = _accounts[\n            BytesAndKeccakLib.pureBytes32Address(currency_, account_)\n        ];\n        return _account.e._credit + _account.e._collateralcredit;\n    }\n\n    function _creditAvailable64(bytes32 currency_, address account_)\n        internal\n        view\n        returns (uint64)\n    {\n        if (_stopcredit) return 0;\n        Account64 memory _account = _accounts[\n            BytesAndKeccakLib.pureBytes32Address(currency_, account_)\n        ];\n        if (\n            _creditUsed64(currency_, account_) >\n            _account.e._allowance + _account.e._collateralallowance\n        ) return 0;\n        return\n            _account.e._allowance +\n            _account.e._collateralallowance -\n            _creditUsed64(currency_, account_);\n    }\n\n    function account(bytes32 currency_, address account_)\n        external\n        view\n        returns (Account memory acc_)\n    {\n        Account64 storage _account = _accounts[\n            BytesAndKeccakLib.pureBytes32Address(currency_, account_)\n        ];\n        require(\n            (!_account.m._opaque) || (_msgSender() == account_),\n            \"Account is opaque\"\n        );\n\n        acc_._balance = UInt64ToUInt256(_account.m._balance);\n        acc_._reserve = UInt64ToUInt256(_account.m._reserve);\n        acc_._collateral = UInt64ToUInt256(_account.m._collateral);\n        acc_._credit = UInt64ToUInt256(_account.e._credit);\n        acc_._allowance = UInt64ToUInt256(_account.e._allowance);\n        acc_._collateralcredit = UInt64ToUInt256(_account.e._collateralcredit);\n        acc_._collateralallowance = UInt64ToUInt256(\n            _account.e._collateralallowance\n        );\n        acc_._available = UInt64ToUInt256(_available64(currency_, account_));\n        acc_._unstackable = UInt64ToUInt256(\n            _unstackable64(currency_, account_)\n        );\n        acc_._creditused = UInt64ToUInt256(_creditUsed64(currency_, account_));\n        acc_._creditavailable = UInt64ToUInt256(\n            _creditAvailable64(currency_, account_)\n        );\n    }\n\n    function __balanceAdd(\n        bytes32 currency_,\n        address account_,\n        uint256 amount__\n    ) internal {\n        uint64 _amount = UInt256ToUInt64(amount__);\n        if (_amount != 0) {\n            bytes32 _key = rep.Bytes32Address(currency_, account_);\n            Account64 memory _account = _accounts[_key];\n            bool creditchanged;\n            if (_account.e._credit > 0) {\n                if (_account.e._credit >= _amount) {\n                    _account.e._credit -= _amount;\n                    _credits[currency_] -= UInt64ToUInt256(_amount);\n                    _amount = 0;\n                } else {\n                    _amount -= _account.e._credit;\n                    _credits[currency_] -= UInt64ToUInt256(_account.e._credit);\n                    _account.e._credit = 0;\n                }\n                creditchanged = true;\n            }\n            bool creditcollateralchanged;\n            if (_account.e._collateralcredit > 0) {\n                if (_account.e._collateralcredit >= _amount) {\n                    _account.e._collateralcredit -= _amount;\n                    _credits[currency_] -= UInt64ToUInt256(_amount);\n                    _amount = 0;\n                } else {\n                    _amount -= _account.e._collateralcredit;\n                    _credits[currency_] -= UInt64ToUInt256(\n                        _account.e._collateralcredit\n                    );\n                    _account.e._collateralcredit = 0;\n                }\n                creditcollateralchanged = true;\n            }\n            bool balancechanged;\n            if (_amount > 0) {\n                _account.m._balance += _amount;\n                balancechanged = true;\n            }\n            if ((creditchanged || creditcollateralchanged) && (!balancechanged))\n                _accounts[_key].e = _account.e;\n            else if (\n                (!creditchanged) &&\n                (!creditcollateralchanged) &&\n                (balancechanged)\n            ) _accounts[_key].m = _account.m;\n            else _accounts[_key] = _account;\n            _changed(currency_, account_);\n        }\n    }\n\n    function __balanceSub(\n        bytes32 currency_,\n        address account_,\n        uint256 amount__\n    ) internal {\n        uint64 _amount = UInt256ToUInt64(amount__);\n        if (_amount != 0) {\n            bytes32 _key = rep.Bytes32Address(currency_, account_);\n            Account64 memory _account = _accounts[_key];\n\n            require(\n                (((!_stopcredit) &&\n                    (_account.m._balance +\n                        _creditAvailable64(currency_, account_) >=\n                        _amount)) ||\n                    ((_stopcredit) && (_account.m._balance >= _amount))),\n                \"Not enought balanceOf/credit allowance\"\n            );\n            bool creditcollateralchanged;\n            if (_amount > _account.m._balance) {\n                uint64 _newcredit = _amount - _account.m._balance;\n                uint64 _collateralcreditavail = _account\n                    .e\n                    ._collateralallowance - _account.e._collateralcredit;\n                if (_newcredit > _collateralcreditavail)\n                    _newcredit = _collateralcreditavail;\n                _account.e._collateralcredit += _newcredit;\n                _amount -= _newcredit;\n                creditcollateralchanged = true;\n            }\n            bool creditchanged;\n            if (_amount > _account.m._balance) {\n                uint64 _newcredit = _amount - _account.m._balance;\n                uint64 _creditavail = _account.e._allowance -\n                    _account.e._credit;\n                if (_newcredit > _creditavail) _newcredit = _creditavail;\n                _account.e._credit += _newcredit;\n                //_totalcredit+= _newcredit;\n                _amount -= _newcredit;\n                creditchanged = true;\n            }\n            bool balancechanged;\n            if (_amount > 0) {\n                _account.m._balance -= _amount;\n                balancechanged = true;\n            }\n            if ((creditchanged || creditcollateralchanged) && (!balancechanged))\n                _accounts[_key].e = _account.e;\n            else if (\n                (!creditchanged) &&\n                (!creditcollateralchanged) &&\n                (balancechanged)\n            ) _accounts[_key].m = _account.m;\n            else _accounts[_key] = _account;\n            _changed(currency_, account_);\n        }\n    }\n\n    function _reserveAdd(\n        bytes32 currency_,\n        address account_,\n        address,\n        uint256 amount__\n    ) external onlyContracts {\n        uint64 _amount = UInt256ToUInt64(amount__);\n\n        if (_amount != 0) {\n            bytes32 _key = rep.Bytes32Address(currency_, account_);\n            Account64 memory _account = _accounts[_key];\n\n            assert(_account.m._balance >= _amount);\n            _account.m._reserve += _amount;\n            _account.m._balance -= _amount;\n            _accounts[_key].m = _account.m;\n            _changed(currency_, account_);\n        }\n    }\n\n    function _reserveSub(\n        bytes32 currency_,\n        address account_,\n        address,\n        uint256 amount__\n    ) external onlyContracts {\n        uint64 _amount = UInt256ToUInt64(amount__);\n        if (_amount != 0) {\n            bytes32 _key = rep.Bytes32Address(currency_, account_);\n            Account64 memory _account = _accounts[_key];\n            _account.m._reserve -= _amount;\n            _account.m._balance += _amount;\n            _accounts[_key].m = _account.m;\n            _changed(currency_, account_);\n        }\n    }\n\n    function _collateralAdd(\n        bytes32 currency_,\n        address account_,\n        address,\n        uint256 amount__\n    ) external onlyContracts {\n        uint64 _amount = UInt256ToUInt64(amount__);\n        if (_amount != 0) {\n            bytes32 _key = rep.Bytes32Address(currency_, account_);\n            Account64 memory _account = _accounts[_key];\n            _account.m._collateral += _amount;\n            _accounts[_key].m = _account.m;\n            _changed(currency_, account_);\n        }\n    }\n\n    function _collateralSub(\n        bytes32 currency_,\n        address account_,\n        address,\n        uint256 amount__\n    ) external onlyContracts {\n        uint64 _amount = UInt256ToUInt64(amount__);\n        if (_amount != 0) {\n            bytes32 _key = rep.Bytes32Address(currency_, account_);\n            Account64 memory _account = _accounts[_key];\n            _account.m._collateral -= _amount;\n            _accounts[_key].m = _account.m;\n            _changed(currency_, account_);\n        }\n    }\n\n    function _collateralAllowanceAdd(\n        bytes32 currency_,\n        address account_,\n        address,\n        uint256 amount__\n    ) external onlyContracts {\n        uint64 _amount = UInt256ToUInt64(amount__);\n        if (_amount != 0) {\n            bytes32 _key = rep.Bytes32Address(currency_, account_);\n            Account64 memory _account = _accounts[_key];\n            _account.e._collateralallowance += _amount;\n            if (_account.e._credit > 0) {\n                uint64 _tocollateral = _account.e._collateralallowance -\n                    _account.e._collateralcredit;\n                if (_account.e._credit < _tocollateral)\n                    _tocollateral = _account.e._credit;\n                _account.e._credit -= _tocollateral;\n                _account.e._collateralcredit += _tocollateral;\n            }\n            _accounts[_key].e = _account.e;\n            _changed(currency_, account_);\n        }\n    }\n\n    function _collateralAllowanceSub(\n        bytes32 currency_,\n        address account_,\n        address,\n        uint256 amount__\n    ) external onlyContracts {\n        uint64 _amount = UInt256ToUInt64(amount__);\n        if (_amount != 0) {\n            bytes32 _key = rep.Bytes32Address(currency_, account_);\n            Account64 memory _account = _accounts[_key];\n            _account.e._collateralallowance -= _amount;\n            if (\n                _account.e._collateralcredit > _account.e._collateralallowance\n            ) {\n                uint64 _removecollateral = _account.e._collateralcredit -\n                    _account.e._collateralallowance;\n                _account.e._credit += _removecollateral;\n                _account.e._collateralcredit -= _removecollateral;\n            }\n            _accounts[_key].e = _account.e;\n            _changed(currency_, account_);\n        }\n    }\n\n    function _allowanceAdd(\n        bytes32 currency_,\n        address account_,\n        address,\n        uint256 amount__\n    ) external onlyContracts {\n        uint64 _amount = UInt256ToUInt64(amount__);\n        if (_amount != 0) {\n            bytes32 _key = rep.Bytes32Address(currency_, account_);\n            Account64 memory _account = _accounts[_key];\n            _account.e._allowance += _amount;\n            _accounts[_key].e = _account.e;\n            _changed(currency_, account_);\n        }\n    }\n\n    function _allowanceSub(\n        bytes32 currency_,\n        address account_,\n        address,\n        uint256 amount__\n    ) external onlyContracts {\n        uint64 _amount = UInt256ToUInt64(amount__);\n        if (_amount != 0) {\n            bytes32 _key = rep.Bytes32Address(currency_, account_);\n            Account64 memory _account = _accounts[_key];\n            _account.e._allowance -= _amount;\n            _accounts[_key].e = _account.e;\n            _changed(currency_, account_);\n        }\n    }\n\n    /////////////////////////////////////////////////////////////////////////////////////////\n    //      internal    public onlyContracts\n    /////////////////////////////////////////////////////////////////////////////////////////\n\n    function _transfer(\n        bytes32 currency_,\n        address accountfrom_,\n        address accountto_,\n        uint256 amount__\n    ) public onlyContracts {\n        uint64 _amount = UInt256ToUInt64(amount__);\n        if (_amount == 0) return;\n\n        require(!STOP(), \"Contract stopped\");\n        bytes32 _keyfrom = rep.Bytes32Address(currency_, accountfrom_);\n        bytes32 _keyto = rep.Bytes32Address(currency_, accountto_);\n        require(\n            _amount <= _available64(currency_, accountfrom_),\n            \"erc20 available(_accountfrom) < _amount\"\n        );\n\n        _holders.insert(accountto_);\n        __balanceSub(currency_, accountfrom_, UInt64ToUInt256(_amount));\n        __balanceAdd(currency_, accountto_, UInt64ToUInt256(_amount));\n        if ((!_accounts[_keyfrom].m._opaque) || (!_accounts[_keyto].m._opaque))\n            emit Transferred(\n                currency_,\n                _accounts[_keyfrom].m._opaque ? address(0) : accountfrom_,\n                _accounts[_keyto].m._opaque ? address(0) : accountto_,\n                amount__\n            );\n    }\n\n    /////////////////////////////////////////////////////////////////////////////////////////\n    //      public\n    /////////////////////////////////////////////////////////////////////////////////////////\n\n    /*function __tokenInfo(address token_, uint256 tokenid_)\n        private\n        returns (TokenInfo memory)\n    {\n        //(bool resultIERC165,bytes memory valIERC165) = token_.staticcall(abi.encodeWithSelector(bytes4(keccak256(\"supportsInterface(bytes4)\")),type(IPolymorph).interfaceId));\n        //require(false,StringLib.format(\"staticcall returns {}\",resultIERC165? \"True\":\"False\"));\n        //require(false,\"breakpoint\");\n\n        TokenInfo storage _info = _currencyinfos[token_];\n        if (_info.tokentype != TokenType.Unknown) return _info;\n\n        while (true) {\n            if (token_ == address(0)) {\n                _info.tokentype = TokenType.Cur;\n                _info.granularity = -18;\n                _currencies.insert(rep.currency(token_, tokenid_));\n                break;\n            }\n            try IERC165(token_).supportsInterface(type(IERC165).interfaceId) {\n                _info.features |= TokenInfoSupportERC165;\n            } catch {}\n            if (_info.features & TokenInfoSupportERC165 != 0) {\n                if (IERC165(token_).supportsInterface(type(IERC20).interfaceId))\n                    _info.features |= TokenInfoSupportERC20;\n                if (\n                    IERC165(token_).supportsInterface(\n                        type(ITradeable).interfaceId\n                    )\n                ) _info.features |= TokenInfoSupportTradeable;\n            } else {\n                try IERC20(token_).totalSupply() {\n                    _info.features |= TokenInfoSupportERC20;\n                } catch {}\n            }\n\n            if (_info.features & TokenInfoSupportERC20 != 0) {\n                _info.tokentype = TokenType.Erc20;\n                _info.granularity = -18;\n                _currencies.insert(rep.currency(token_, tokenid_));\n                break;\n            }\n\n            if (MODETEST) {\n                _info.tokentype = TokenType.Erc20;\n                _info.granularity = -18;\n                _currencies.insert(rep.currency(token_, tokenid_));\n                break;\n            }\n\n            require(false, \"Unresolved token type\");\n        }\n        return _info;\n    }*/\n\n    function stake(address token_, uint256 amount_) external payable all {\n        if (token_ != address(0)) __stake(token_, 0, _msgSender(), amount_);\n        if (msg.value > 0) __stake(address(0), 0, _msgSender(), msg.value);\n    }\n\n    function stake(\n        address token_,\n        uint256 tokenid_,\n        uint256 amount_\n    ) external payable all {\n        if (token_ != address(0))\n            __stake(token_, tokenid_, _msgSender(), amount_);\n        if (msg.value > 0) __stake(address(0), 0, _msgSender(), msg.value);\n    }\n\n    function unstake(address token_, uint256 amount_) external all {\n        __unstake(token_, 0, _msgSender(), amount_);\n    }\n\n    function unstake(\n        address token_,\n        uint256 tokenid_,\n        uint256 amount_\n    ) external all {\n        __unstake(token_, tokenid_, _msgSender(), amount_);\n    }\n\n    function testStake(\n        address token_,\n        address account_,\n        uint256 amount_\n    ) external all {\n        require(rep.MODETEST(), \"Must be in Mode Testing\");\n        __stake(token_, 0, account_, amount_);\n    }\n\n    function testStake(\n        address token_,\n        uint256 tokenid_,\n        address account_,\n        uint256 amount_\n    ) external all {\n        require(rep.MODETEST(), \"Must be in Mode Testing\");\n        __stake(token_, tokenid_, account_, amount_);\n    }\n\n    function testUnstake(\n        address token_,\n        address account_,\n        uint256 amount_\n    ) external all {\n        __unstake(token_, 0, account_, amount_);\n    }\n\n    function testUnstake(\n        address token_,\n        uint256 tokenid_,\n        address account_,\n        uint256 amount_\n    ) external all {\n        __unstake(token_, tokenid_, account_, amount_);\n    }\n\n    /////////////////////////////////////////////////////////////////////////////////////////\n    //      __private\n    /////////////////////////////////////////////////////////////////////////////////////////\n\n    function __stake(\n        address tokenaddr_,\n        uint256 tokenid_,\n        address account_,\n        uint256 amount__\n    ) private {\n        require(\n            tokenaddr_ != address(0) || tokenid_ == 0,\n            \"Currency is address(0),0\"\n        );\n        bytes32 tokenhash = rep.currency(tokenaddr_, tokenid_);\n        return __stake(tokenhash, account_, amount__);\n    }\n\n    function __stake(\n        bytes32 tokenhash_,\n        address account_,\n        uint256 amount__\n    ) private {\n        uint64 _amount = UInt256ToUInt64(amount__);\n        if (_amount == 0) return;\n\n        require(!STOP(), \"Contract stopped\");\n\n        //if (features(tokenhash_) != Token.TypeCurrency)\n        /*if (rep.existsCurrency(tokenhash_)) {\n            (address tokenAddr, uint256 tokenId) = rep.resolveCurrency(\n                tokenhash_\n            );\n            rep.token(tokenAddr, tokenId);\n        }*/\n\n        if (rep.supportsInterface(tokenhash_,type(IBankeable).interfaceId)) \n            require(\n                IBankeable(rep.resolveCurrencyAddr(tokenhash_)).bankeable(),\n                \"Token not bankeable\"\n            );\n        \n        //require(canEnter(token_), \"Token isn't allowed in bank\");\n\n        if (!rep.MODETEST()) {\n        if (rep.isFeatureType(tokenhash_,Token.TypeCurrency)) {} \n        else if (rep.isFeatureType(tokenhash_,Token.TypeERC20))\n                IERC20(rep.resolveCurrencyAddr(tokenhash_)).transferFrom(\n                    account_,\n                    address(this),\n                    UInt64ToUInt256(_amount)\n                );\n        }\n\n        _holders.insert(account_);\n        __balanceAdd(tokenhash_, account_, UInt64ToUInt256(_amount));\n    }\n\n    function __unstake(\n        address tokenaddr_,\n        uint256 tokenid_,\n        address account_,\n        uint256 amount__\n    ) private {\n        require(\n            tokenaddr_ != address(0) || tokenid_ == 0,\n            \"Currency is address(0),0\"\n        );\n        bytes32 tokenhash = rep.currency(tokenaddr_, tokenid_);\n        return __unstake(tokenhash, account_, amount__);\n    }\n\n    function __unstake(\n        bytes32 tokenhash_,\n        address account_,\n        uint256 amount__\n    ) private {\n        uint64 _amount = UInt256ToUInt64(amount__);\n        if (_amount == 0) return;\n        require(!STOP(), \"Contract stopped\");\n        require(_unstackable64(tokenhash_, account_) >= _amount);\n\n        if (!rep.MODETEST()) {\n            if (rep.isFeatureType(tokenhash_,Token.TypeCurrency))\n                payable(account_).transfer(amount__);\n            else if (rep.isFeatureType(tokenhash_,Token.TypeERC20))\n                IERC20(rep.resolveCurrencyAddr(tokenhash_)).transfer(account_, UInt64ToUInt256(_amount));\n        }\n\n        __balanceSub(tokenhash_, account_, UInt64ToUInt256(_amount));\n    }\n}\n",
  "sourcePath": "contracts/Bank/Bank.sol",
  "type": "contract"
}