{
  "abi": [
    {
      "inputs": [
        {
          "internalType": "address",
          "name": "certifier_",
          "type": "address"
        }
      ],
      "name": "isTrustedCertifier",
      "outputs": [
        {
          "internalType": "bool",
          "name": "",
          "type": "bool"
        }
      ],
      "stateMutability": "view",
      "type": "function"
    },
    {
      "inputs": [
        {
          "internalType": "bytes4",
          "name": "interfaceId",
          "type": "bytes4"
        }
      ],
      "name": "supportsInterface",
      "outputs": [
        {
          "internalType": "bool",
          "name": "",
          "type": "bool"
        }
      ],
      "stateMutability": "view",
      "type": "function"
    }
  ],
  "bytecode": "608060405234801561001057600080fd5b506101f4806100206000396000f3fe608060405234801561001057600080fd5b50600436106100365760003560e01c806301ffc9a71461003b5780635b62cb7014610073575b600080fd5b61005f61004936600461010a565b6001600160e01b0319166305b62cb760e41b1490565b604051901515815260200160405180910390f35b61005f61008136600461013b565b6000306001600160a01b0383160361009b57506001919050565b6000545b8015610101576001600160a01b03831660006100bc60018461017a565b815481106100cc576100cc610191565b6000918252602090912001546001600160a01b0316036100ef5750600192915050565b806100f9816101a7565b91505061009f565b50600092915050565b60006020828403121561011c57600080fd5b81356001600160e01b03198116811461013457600080fd5b9392505050565b60006020828403121561014d57600080fd5b81356001600160a01b038116811461013457600080fd5b634e487b7160e01b600052601160045260246000fd5b60008282101561018c5761018c610164565b500390565b634e487b7160e01b600052603260045260246000fd5b6000816101b6576101b6610164565b50600019019056fea264697066735822122077332e8b9d283d93c4f676ef63af35f66230d5321db339f286d575a4a19ab7ae64736f6c634300080d0033",
  "bytecodeSha1": "91d28e9649ae79861378a40fb99cc5d0efa026cc",
  "compiler": {
    "evm_version": "istanbul",
    "optimizer": {
      "enabled": true,
      "runs": 200
    },
    "version": "0.8.13+commit.abaa5c0e"
  },
  "contractName": "Certifiers",
  "language": "Solidity",
  "natspec": {
    "kind": "dev",
    "methods": {
      "supportsInterface(bytes4)": {
        "details": "Returns true if this contract implements the interface defined by `interfaceId`. See the corresponding https://eips.ethereum.org/EIPS/eip-165#how-interfaces-are-identified[EIP section] to learn more about how these ids are created. This function call must use less than 30 000 gas."
      }
    },
    "version": 1
  },
  "opcodes": "PUSH1 0x80 PUSH1 0x40 MSTORE CALLVALUE DUP1 ISZERO PUSH2 0x10 JUMPI PUSH1 0x0 DUP1 REVERT JUMPDEST POP PUSH1 0x4 CALLDATASIZE LT PUSH2 0x36 JUMPI PUSH1 0x0 CALLDATALOAD PUSH1 0xE0 SHR DUP1 PUSH4 0x1FFC9A7 EQ PUSH2 0x3B JUMPI DUP1 PUSH4 0x5B62CB70 EQ PUSH2 0x73 JUMPI JUMPDEST PUSH1 0x0 DUP1 REVERT JUMPDEST PUSH2 0x5F PUSH2 0x49 CALLDATASIZE PUSH1 0x4 PUSH2 0x10A JUMP JUMPDEST PUSH1 0x1 PUSH1 0x1 PUSH1 0xE0 SHL SUB NOT AND PUSH4 0x5B62CB7 PUSH1 0xE4 SHL EQ SWAP1 JUMP JUMPDEST PUSH1 0x40 MLOAD SWAP1 ISZERO ISZERO DUP2 MSTORE PUSH1 0x20 ADD PUSH1 0x40 MLOAD DUP1 SWAP2 SUB SWAP1 RETURN JUMPDEST PUSH2 0x5F PUSH2 0x81 CALLDATASIZE PUSH1 0x4 PUSH2 0x13B JUMP JUMPDEST PUSH1 0x0 ADDRESS PUSH1 0x1 PUSH1 0x1 PUSH1 0xA0 SHL SUB DUP4 AND SUB PUSH2 0x9B JUMPI POP PUSH1 0x1 SWAP2 SWAP1 POP JUMP JUMPDEST PUSH1 0x0 SLOAD JUMPDEST DUP1 ISZERO PUSH2 0x101 JUMPI PUSH1 0x1 PUSH1 0x1 PUSH1 0xA0 SHL SUB DUP4 AND PUSH1 0x0 PUSH2 0xBC PUSH1 0x1 DUP5 PUSH2 0x17A JUMP JUMPDEST DUP2 SLOAD DUP2 LT PUSH2 0xCC JUMPI PUSH2 0xCC PUSH2 0x191 JUMP JUMPDEST PUSH1 0x0 SWAP2 DUP3 MSTORE PUSH1 0x20 SWAP1 SWAP2 KECCAK256 ADD SLOAD PUSH1 0x1 PUSH1 0x1 PUSH1 0xA0 SHL SUB AND SUB PUSH2 0xEF JUMPI POP PUSH1 0x1 SWAP3 SWAP2 POP POP JUMP JUMPDEST DUP1 PUSH2 0xF9 DUP2 PUSH2 0x1A7 JUMP JUMPDEST SWAP2 POP POP PUSH2 0x9F JUMP JUMPDEST POP PUSH1 0x0 SWAP3 SWAP2 POP POP JUMP JUMPDEST PUSH1 0x0 PUSH1 0x20 DUP3 DUP5 SUB SLT ISZERO PUSH2 0x11C JUMPI PUSH1 0x0 DUP1 REVERT JUMPDEST DUP2 CALLDATALOAD PUSH1 0x1 PUSH1 0x1 PUSH1 0xE0 SHL SUB NOT DUP2 AND DUP2 EQ PUSH2 0x134 JUMPI PUSH1 0x0 DUP1 REVERT JUMPDEST SWAP4 SWAP3 POP POP POP JUMP JUMPDEST PUSH1 0x0 PUSH1 0x20 DUP3 DUP5 SUB SLT ISZERO PUSH2 0x14D JUMPI PUSH1 0x0 DUP1 REVERT JUMPDEST DUP2 CALLDATALOAD PUSH1 0x1 PUSH1 0x1 PUSH1 0xA0 SHL SUB DUP2 AND DUP2 EQ PUSH2 0x134 JUMPI PUSH1 0x0 DUP1 REVERT JUMPDEST PUSH4 0x4E487B71 PUSH1 0xE0 SHL PUSH1 0x0 MSTORE PUSH1 0x11 PUSH1 0x4 MSTORE PUSH1 0x24 PUSH1 0x0 REVERT JUMPDEST PUSH1 0x0 DUP3 DUP3 LT ISZERO PUSH2 0x18C JUMPI PUSH2 0x18C PUSH2 0x164 JUMP JUMPDEST POP SUB SWAP1 JUMP JUMPDEST PUSH4 0x4E487B71 PUSH1 0xE0 SHL PUSH1 0x0 MSTORE PUSH1 0x32 PUSH1 0x4 MSTORE PUSH1 0x24 PUSH1 0x0 REVERT JUMPDEST PUSH1 0x0 DUP2 PUSH2 0x1B6 JUMPI PUSH2 0x1B6 PUSH2 0x164 JUMP JUMPDEST POP PUSH1 0x0 NOT ADD SWAP1 JUMP INVALID LOG2 PUSH5 0x6970667358 0x22 SLT KECCAK256 PUSH24 0x332E8B9D283D93C4F676EF63AF35F66230D5321DB339F286 0xD5 PUSH22 0xA4A19AB7AE64736F6C634300080D0033000000000000 ",
  "sha1": "b522229abdd8229df9a382f37ce9a255870eb57c",
  "source": "// SPDX-License-Identifier: MIT\n// Beef MarketPlace Contracts v0.0.0 hello@mcdu.com\n\npragma solidity ^0.8.0;\nimport \"../../../interfaces/ICertifiers.sol\";\n\n\ncontract Certifiers is ICertifiers {\n\n    address[] private _trustedcertifiers;\n\n    function isTrustedCertifier(address certifier_) public view virtual returns (bool) {\n        if (certifier_ == address(this)) return true;\n        uint i = _trustedcertifiers.length;\n        for (;i>0;i--)\n             if (_trustedcertifiers[i-1]==certifier_)\n                return true;\n        return false;\n    }\n\n    function trustedCertifierAdded(address certifier_) internal virtual {}\n\n    function trustedCertifierRemoved(address certifier_) internal virtual {}\n\n    function _addTrustedCertifier(address certifier_) internal returns (bool){\n        uint i = _trustedcertifiers.length;\n        for (;i>0;i--)\n            if (_trustedcertifiers[i-1]==certifier_)\n                return false;\n        _trustedcertifiers.push(certifier_);\n        trustedCertifierAdded(certifier_);\n        return true;\n    }\n    function _removeTrustedCertifier(address certifier_) internal  returns (bool){\n        uint _len = _trustedcertifiers.length;\n        for (uint i;i<_len;i++)\n            if (_trustedcertifiers[i]==certifier_)\n            {\n                if (i<_len-1)\n                    _trustedcertifiers[i] = _trustedcertifiers[_len-1];\n                _trustedcertifiers.pop();\n                trustedCertifierRemoved(certifier_);\n                return true;\n            }\n        return false;\n    }\n\n\n    function supportsInterface(bytes4 interfaceId)\n        public\n        view virtual\n        returns (bool)\n    {\n        return interfaceId == type(ICertifiers).interfaceId;\n    }\n\n}\n",
  "sourcePath": "contracts/agnostic/Certified/Certifiers.sol",
  "type": "contract"
}