{
  "abi": [
    {
      "inputs": [
        {
          "internalType": "contract Repository",
          "name": "rep_",
          "type": "address"
        },
        {
          "internalType": "contract CollateralToken",
          "name": "token_",
          "type": "address"
        },
        {
          "internalType": "bool",
          "name": "MODETEST_",
          "type": "bool"
        }
      ],
      "stateMutability": "nonpayable",
      "type": "constructor"
    },
    {
      "anonymous": false,
      "inputs": [
        {
          "indexed": true,
          "internalType": "address",
          "name": "previousOwner",
          "type": "address"
        },
        {
          "indexed": true,
          "internalType": "address",
          "name": "newOwner",
          "type": "address"
        }
      ],
      "name": "OwnershipTransferred",
      "type": "event"
    },
    {
      "stateMutability": "nonpayable",
      "type": "fallback"
    },
    {
      "inputs": [],
      "name": "MODETEST",
      "outputs": [
        {
          "internalType": "bool",
          "name": "",
          "type": "bool"
        }
      ],
      "stateMutability": "view",
      "type": "function"
    },
    {
      "inputs": [],
      "name": "STOP",
      "outputs": [
        {
          "internalType": "bool",
          "name": "",
          "type": "bool"
        }
      ],
      "stateMutability": "view",
      "type": "function"
    },
    {
      "inputs": [],
      "name": "STOPFOREVER",
      "outputs": [
        {
          "internalType": "bool",
          "name": "",
          "type": "bool"
        }
      ],
      "stateMutability": "view",
      "type": "function"
    },
    {
      "inputs": [
        {
          "internalType": "address",
          "name": "holder_",
          "type": "address"
        }
      ],
      "name": "colBalanceOf",
      "outputs": [
        {
          "internalType": "uint256",
          "name": "",
          "type": "uint256"
        }
      ],
      "stateMutability": "view",
      "type": "function"
    },
    {
      "inputs": [],
      "name": "id",
      "outputs": [
        {
          "internalType": "bytes32",
          "name": "",
          "type": "bytes32"
        }
      ],
      "stateMutability": "view",
      "type": "function"
    },
    {
      "inputs": [
        {
          "internalType": "address",
          "name": "caller_",
          "type": "address"
        }
      ],
      "name": "isOwner",
      "outputs": [
        {
          "internalType": "bool",
          "name": "",
          "type": "bool"
        }
      ],
      "stateMutability": "view",
      "type": "function"
    },
    {
      "inputs": [],
      "name": "owner",
      "outputs": [
        {
          "internalType": "address",
          "name": "",
          "type": "address"
        }
      ],
      "stateMutability": "view",
      "type": "function"
    },
    {
      "inputs": [],
      "name": "renounceOwnership",
      "outputs": [],
      "stateMutability": "nonpayable",
      "type": "function"
    },
    {
      "inputs": [],
      "name": "rep",
      "outputs": [
        {
          "internalType": "contract Repository",
          "name": "",
          "type": "address"
        }
      ],
      "stateMutability": "view",
      "type": "function"
    },
    {
      "inputs": [],
      "name": "setSTOP",
      "outputs": [],
      "stateMutability": "nonpayable",
      "type": "function"
    },
    {
      "inputs": [],
      "name": "setSTOPFOREVER",
      "outputs": [],
      "stateMutability": "nonpayable",
      "type": "function"
    },
    {
      "inputs": [
        {
          "internalType": "bytes4",
          "name": "interfaceId",
          "type": "bytes4"
        }
      ],
      "name": "supportsInterface",
      "outputs": [
        {
          "internalType": "bool",
          "name": "",
          "type": "bool"
        }
      ],
      "stateMutability": "view",
      "type": "function"
    },
    {
      "inputs": [
        {
          "internalType": "address",
          "name": "newOwner",
          "type": "address"
        }
      ],
      "name": "transferOwnership",
      "outputs": [],
      "stateMutability": "nonpayable",
      "type": "function"
    },
    {
      "inputs": [],
      "name": "unsetSTOP",
      "outputs": [],
      "stateMutability": "nonpayable",
      "type": "function"
    }
  ],
  "bytecode": "60c060405234801561001057600080fd5b506040516108e93803806108e983398101604081905261002f916100e2565b808361003a3361006f565b6001600160a01b0390811660805290151560a052600180546001600160a01b0319169390911692909217909155506101349050565b600080546001600160a01b038381166201000081810262010000600160b01b0319851617855560405193049190911692909183917f8be0079c531659141344cd1fd0a4f28419497f9722a3daafe3b4186f6b6457e091a35050565b6001600160a01b03811681146100df57600080fd5b50565b6000806000606084860312156100f757600080fd5b8351610102816100ca565b6020850151909350610113816100ca565b6040850151909250801515811461012957600080fd5b809150509250925092565b60805160a05161078261016760003960006101c90152600081816102a00152818161030201526103a001526107826000f3fe608060405234801561001057600080fd5b50600436106100ea5760003560e01c80638962fb431161008c578063af640d0f11610066578063af640d0f14610275578063ccc079591461029b578063d6935858146102c2578063f2fde38b146102ca576100ea565b80638962fb43146102035780638da5cb5b1461023a5780639796207614610265576100ea565b80634635229b116100c85780634635229b146101c4578063715018a6146101eb57806372ea61bf146101f3578063854ba99d146101fb576100ea565b806301ffc9a71461016c57806305d6bd9c146101945780632f54bf6e1461019c575b6100f26102dd565b60006101026024600436846106a6565b8080601f016020809104026020016040519081016040528093929190818152602001838380828437600092018290525060208501519495509250503660231981019150601f19016004838037816024600437600080826000875af49250505061016a816104a7565b005b61017f61017a3660046106d0565b6104bd565b60405190151581526020015b60405180910390f35b61016a6104f4565b61017f6101aa366004610701565b6000546201000090046001600160a01b0390811691161490565b61017f7f000000000000000000000000000000000000000000000000000000000000000081565b61016a61050b565b61016a61051d565b61017f610537565b61022c610211366004610701565b6001600160a01b031660009081526002602052604090205490565b60405190815260200161018b565b6000546201000090046001600160a01b03165b6040516001600160a01b03909116815260200161018b565b600054610100900460ff1661017f565b7f991401653f71400fafd7a6a83f507ac28879fecd68633691c8ac38f4ffeed89561022c565b61024d7f000000000000000000000000000000000000000000000000000000000000000081565b61016a610555565b61016a6102d8366004610701565b610571565b6000546001600160a01b03620100009091041633148061039057506001600160a01b037f0000000000000000000000000000000000000000000000000000000000000000166316279055336040516001600160e01b031960e084901b1681526001600160a01b039091166004820152602401602060405180830381865afa15801561036c573d6000803e3d6000fd5b505050506040513d601f19601f82011682018060405250810190610390919061072a565b8061042e57506001600160a01b037f000000000000000000000000000000000000000000000000000000000000000016636d70f7ae336040516001600160e01b031960e084901b1681526001600160a01b039091166004820152602401602060405180830381865afa15801561040a573d6000803e3d6000fd5b505050506040513d601f19601f8201168201806040525081019061042e919061072a565b6104a55760405162461bcd60e51b815260206004820152603960248201527f416c6c6f77616e63653a2063616c6c6572206d757374206265205265706f736960448201527f746f727920436f6e7472616374206f72204f70657261746f720000000000000060648201526084015b60405180910390fd5b565b3d6000803e8080156104b8573d6000f35b3d6000fd5b60006001600160e01b031982166301ffc9a760e01b14806104ee57506001600160e01b031982166315d3789560e31b145b92915050565b6104fc6102dd565b6104a56000805460ff19169055565b6105136105ea565b6104a5600061064b565b6105256102dd565b6104a56000805460ff19166001179055565b6000805460ff16806105505750600054610100900460ff165b905090565b61055d6105ea565b6104a56000805461ff001916610100179055565b6105796105ea565b6001600160a01b0381166105de5760405162461bcd60e51b815260206004820152602660248201527f4f776e61626c653a206e6577206f776e657220697320746865207a65726f206160448201526564647265737360d01b606482015260840161049c565b6105e78161064b565b50565b6000546001600160a01b03620100009091041633146104a55760405162461bcd60e51b815260206004820152601f60248201527f416c6c6f77616e63653a2063616c6c6572206d757374206265204f776e657200604482015260640161049c565b600080546001600160a01b038381166201000081810262010000600160b01b0319851617855560405193049190911692909183917f8be0079c531659141344cd1fd0a4f28419497f9722a3daafe3b4186f6b6457e091a35050565b600080858511156106b657600080fd5b838611156106c357600080fd5b5050820193919092039150565b6000602082840312156106e257600080fd5b81356001600160e01b0319811681146106fa57600080fd5b9392505050565b60006020828403121561071357600080fd5b81356001600160a01b03811681146106fa57600080fd5b60006020828403121561073c57600080fd5b815180151581146106fa57600080fdfea2646970667358221220fbf89992e22a80bb0cfff118c61916c5527785f6fac54b5da5ed1fd13ab8c0ea64736f6c634300080d0033",
  "bytecodeSha1": "001df2df90b10c408331361f4053016e4df0527c",
  "compiler": {
    "evm_version": "istanbul",
    "optimizer": {
      "enabled": true,
      "runs": 200
    },
    "version": "0.8.13+commit.abaa5c0e"
  },
  "contractName": "Collateral",
  "language": "Solidity",
  "natspec": {
    "kind": "dev",
    "methods": {
      "ownerOf()": {
        "details": "Returns the address of the current owner."
      },
      "renounceOwnership()": {
        "details": "Leaves the contract without owner. It will not be possible to call `onlyOwner` functions anymore. Can only be called by the current owner. NOTE: Renouncing ownership will leave the contract without an owner, thereby removing any functionality that is only available to the owner."
      },
      "supportsInterface(bytes4)": {
        "details": "Returns true if this contract implements the interface defined by `interfaceId`. See the corresponding https://eips.ethereum.org/EIPS/eip-165#how-interfaces-are-identified[EIP section] to learn more about how these ids are created. This function call must use less than 30 000 gas."
      },
      "transferOwnership(address)": {
        "details": "Transfers ownership of the contract to a new account (`newOwner`). Can only be called by the current owner."
      }
    },
    "version": 1
  },
  "opcodes": "PUSH1 0x80 PUSH1 0x40 MSTORE CALLVALUE DUP1 ISZERO PUSH2 0x10 JUMPI PUSH1 0x0 DUP1 REVERT JUMPDEST POP PUSH1 0x4 CALLDATASIZE LT PUSH2 0xEA JUMPI PUSH1 0x0 CALLDATALOAD PUSH1 0xE0 SHR DUP1 PUSH4 0x8962FB43 GT PUSH2 0x8C JUMPI DUP1 PUSH4 0xAF640D0F GT PUSH2 0x66 JUMPI DUP1 PUSH4 0xAF640D0F EQ PUSH2 0x275 JUMPI DUP1 PUSH4 0xCCC07959 EQ PUSH2 0x29B JUMPI DUP1 PUSH4 0xD6935858 EQ PUSH2 0x2C2 JUMPI DUP1 PUSH4 0xF2FDE38B EQ PUSH2 0x2CA JUMPI PUSH2 0xEA JUMP JUMPDEST DUP1 PUSH4 0x8962FB43 EQ PUSH2 0x203 JUMPI DUP1 PUSH4 0x8DA5CB5B EQ PUSH2 0x23A JUMPI DUP1 PUSH4 0x97962076 EQ PUSH2 0x265 JUMPI PUSH2 0xEA JUMP JUMPDEST DUP1 PUSH4 0x4635229B GT PUSH2 0xC8 JUMPI DUP1 PUSH4 0x4635229B EQ PUSH2 0x1C4 JUMPI DUP1 PUSH4 0x715018A6 EQ PUSH2 0x1EB JUMPI DUP1 PUSH4 0x72EA61BF EQ PUSH2 0x1F3 JUMPI DUP1 PUSH4 0x854BA99D EQ PUSH2 0x1FB JUMPI PUSH2 0xEA JUMP JUMPDEST DUP1 PUSH4 0x1FFC9A7 EQ PUSH2 0x16C JUMPI DUP1 PUSH4 0x5D6BD9C EQ PUSH2 0x194 JUMPI DUP1 PUSH4 0x2F54BF6E EQ PUSH2 0x19C JUMPI JUMPDEST PUSH2 0xF2 PUSH2 0x2DD JUMP JUMPDEST PUSH1 0x0 PUSH2 0x102 PUSH1 0x24 PUSH1 0x4 CALLDATASIZE DUP5 PUSH2 0x6A6 JUMP JUMPDEST DUP1 DUP1 PUSH1 0x1F ADD PUSH1 0x20 DUP1 SWAP2 DIV MUL PUSH1 0x20 ADD PUSH1 0x40 MLOAD SWAP1 DUP2 ADD PUSH1 0x40 MSTORE DUP1 SWAP4 SWAP3 SWAP2 SWAP1 DUP2 DUP2 MSTORE PUSH1 0x20 ADD DUP4 DUP4 DUP1 DUP3 DUP5 CALLDATACOPY PUSH1 0x0 SWAP3 ADD DUP3 SWAP1 MSTORE POP PUSH1 0x20 DUP6 ADD MLOAD SWAP5 SWAP6 POP SWAP3 POP POP CALLDATASIZE PUSH1 0x23 NOT DUP2 ADD SWAP2 POP PUSH1 0x1F NOT ADD PUSH1 0x4 DUP4 DUP1 CALLDATACOPY DUP2 PUSH1 0x24 PUSH1 0x4 CALLDATACOPY PUSH1 0x0 DUP1 DUP3 PUSH1 0x0 DUP8 GAS DELEGATECALL SWAP3 POP POP POP PUSH2 0x16A DUP2 PUSH2 0x4A7 JUMP JUMPDEST STOP JUMPDEST PUSH2 0x17F PUSH2 0x17A CALLDATASIZE PUSH1 0x4 PUSH2 0x6D0 JUMP JUMPDEST PUSH2 0x4BD JUMP JUMPDEST PUSH1 0x40 MLOAD SWAP1 ISZERO ISZERO DUP2 MSTORE PUSH1 0x20 ADD JUMPDEST PUSH1 0x40 MLOAD DUP1 SWAP2 SUB SWAP1 RETURN JUMPDEST PUSH2 0x16A PUSH2 0x4F4 JUMP JUMPDEST PUSH2 0x17F PUSH2 0x1AA CALLDATASIZE PUSH1 0x4 PUSH2 0x701 JUMP JUMPDEST PUSH1 0x0 SLOAD PUSH3 0x10000 SWAP1 DIV PUSH1 0x1 PUSH1 0x1 PUSH1 0xA0 SHL SUB SWAP1 DUP2 AND SWAP2 AND EQ SWAP1 JUMP JUMPDEST PUSH2 0x17F PUSH32 0x0 DUP2 JUMP JUMPDEST PUSH2 0x16A PUSH2 0x50B JUMP JUMPDEST PUSH2 0x16A PUSH2 0x51D JUMP JUMPDEST PUSH2 0x17F PUSH2 0x537 JUMP JUMPDEST PUSH2 0x22C PUSH2 0x211 CALLDATASIZE PUSH1 0x4 PUSH2 0x701 JUMP JUMPDEST PUSH1 0x1 PUSH1 0x1 PUSH1 0xA0 SHL SUB AND PUSH1 0x0 SWAP1 DUP2 MSTORE PUSH1 0x2 PUSH1 0x20 MSTORE PUSH1 0x40 SWAP1 KECCAK256 SLOAD SWAP1 JUMP JUMPDEST PUSH1 0x40 MLOAD SWAP1 DUP2 MSTORE PUSH1 0x20 ADD PUSH2 0x18B JUMP JUMPDEST PUSH1 0x0 SLOAD PUSH3 0x10000 SWAP1 DIV PUSH1 0x1 PUSH1 0x1 PUSH1 0xA0 SHL SUB AND JUMPDEST PUSH1 0x40 MLOAD PUSH1 0x1 PUSH1 0x1 PUSH1 0xA0 SHL SUB SWAP1 SWAP2 AND DUP2 MSTORE PUSH1 0x20 ADD PUSH2 0x18B JUMP JUMPDEST PUSH1 0x0 SLOAD PUSH2 0x100 SWAP1 DIV PUSH1 0xFF AND PUSH2 0x17F JUMP JUMPDEST PUSH32 0x991401653F71400FAFD7A6A83F507AC28879FECD68633691C8AC38F4FFEED895 PUSH2 0x22C JUMP JUMPDEST PUSH2 0x24D PUSH32 0x0 DUP2 JUMP JUMPDEST PUSH2 0x16A PUSH2 0x555 JUMP JUMPDEST PUSH2 0x16A PUSH2 0x2D8 CALLDATASIZE PUSH1 0x4 PUSH2 0x701 JUMP JUMPDEST PUSH2 0x571 JUMP JUMPDEST PUSH1 0x0 SLOAD PUSH1 0x1 PUSH1 0x1 PUSH1 0xA0 SHL SUB PUSH3 0x10000 SWAP1 SWAP2 DIV AND CALLER EQ DUP1 PUSH2 0x390 JUMPI POP PUSH1 0x1 PUSH1 0x1 PUSH1 0xA0 SHL SUB PUSH32 0x0 AND PUSH4 0x16279055 CALLER PUSH1 0x40 MLOAD PUSH1 0x1 PUSH1 0x1 PUSH1 0xE0 SHL SUB NOT PUSH1 0xE0 DUP5 SWAP1 SHL AND DUP2 MSTORE PUSH1 0x1 PUSH1 0x1 PUSH1 0xA0 SHL SUB SWAP1 SWAP2 AND PUSH1 0x4 DUP3 ADD MSTORE PUSH1 0x24 ADD PUSH1 0x20 PUSH1 0x40 MLOAD DUP1 DUP4 SUB DUP2 DUP7 GAS STATICCALL ISZERO DUP1 ISZERO PUSH2 0x36C JUMPI RETURNDATASIZE PUSH1 0x0 DUP1 RETURNDATACOPY RETURNDATASIZE PUSH1 0x0 REVERT JUMPDEST POP POP POP POP PUSH1 0x40 MLOAD RETURNDATASIZE PUSH1 0x1F NOT PUSH1 0x1F DUP3 ADD AND DUP3 ADD DUP1 PUSH1 0x40 MSTORE POP DUP2 ADD SWAP1 PUSH2 0x390 SWAP2 SWAP1 PUSH2 0x72A JUMP JUMPDEST DUP1 PUSH2 0x42E JUMPI POP PUSH1 0x1 PUSH1 0x1 PUSH1 0xA0 SHL SUB PUSH32 0x0 AND PUSH4 0x6D70F7AE CALLER PUSH1 0x40 MLOAD PUSH1 0x1 PUSH1 0x1 PUSH1 0xE0 SHL SUB NOT PUSH1 0xE0 DUP5 SWAP1 SHL AND DUP2 MSTORE PUSH1 0x1 PUSH1 0x1 PUSH1 0xA0 SHL SUB SWAP1 SWAP2 AND PUSH1 0x4 DUP3 ADD MSTORE PUSH1 0x24 ADD PUSH1 0x20 PUSH1 0x40 MLOAD DUP1 DUP4 SUB DUP2 DUP7 GAS STATICCALL ISZERO DUP1 ISZERO PUSH2 0x40A JUMPI RETURNDATASIZE PUSH1 0x0 DUP1 RETURNDATACOPY RETURNDATASIZE PUSH1 0x0 REVERT JUMPDEST POP POP POP POP PUSH1 0x40 MLOAD RETURNDATASIZE PUSH1 0x1F NOT PUSH1 0x1F DUP3 ADD AND DUP3 ADD DUP1 PUSH1 0x40 MSTORE POP DUP2 ADD SWAP1 PUSH2 0x42E SWAP2 SWAP1 PUSH2 0x72A JUMP JUMPDEST PUSH2 0x4A5 JUMPI PUSH1 0x40 MLOAD PUSH3 0x461BCD PUSH1 0xE5 SHL DUP2 MSTORE PUSH1 0x20 PUSH1 0x4 DUP3 ADD MSTORE PUSH1 0x39 PUSH1 0x24 DUP3 ADD MSTORE PUSH32 0x416C6C6F77616E63653A2063616C6C6572206D757374206265205265706F7369 PUSH1 0x44 DUP3 ADD MSTORE PUSH32 0x746F727920436F6E7472616374206F72204F70657261746F7200000000000000 PUSH1 0x64 DUP3 ADD MSTORE PUSH1 0x84 ADD JUMPDEST PUSH1 0x40 MLOAD DUP1 SWAP2 SUB SWAP1 REVERT JUMPDEST JUMP JUMPDEST RETURNDATASIZE PUSH1 0x0 DUP1 RETURNDATACOPY DUP1 DUP1 ISZERO PUSH2 0x4B8 JUMPI RETURNDATASIZE PUSH1 0x0 RETURN JUMPDEST RETURNDATASIZE PUSH1 0x0 REVERT JUMPDEST PUSH1 0x0 PUSH1 0x1 PUSH1 0x1 PUSH1 0xE0 SHL SUB NOT DUP3 AND PUSH4 0x1FFC9A7 PUSH1 0xE0 SHL EQ DUP1 PUSH2 0x4EE JUMPI POP PUSH1 0x1 PUSH1 0x1 PUSH1 0xE0 SHL SUB NOT DUP3 AND PUSH4 0x15D37895 PUSH1 0xE3 SHL EQ JUMPDEST SWAP3 SWAP2 POP POP JUMP JUMPDEST PUSH2 0x4FC PUSH2 0x2DD JUMP JUMPDEST PUSH2 0x4A5 PUSH1 0x0 DUP1 SLOAD PUSH1 0xFF NOT AND SWAP1 SSTORE JUMP JUMPDEST PUSH2 0x513 PUSH2 0x5EA JUMP JUMPDEST PUSH2 0x4A5 PUSH1 0x0 PUSH2 0x64B JUMP JUMPDEST PUSH2 0x525 PUSH2 0x2DD JUMP JUMPDEST PUSH2 0x4A5 PUSH1 0x0 DUP1 SLOAD PUSH1 0xFF NOT AND PUSH1 0x1 OR SWAP1 SSTORE JUMP JUMPDEST PUSH1 0x0 DUP1 SLOAD PUSH1 0xFF AND DUP1 PUSH2 0x550 JUMPI POP PUSH1 0x0 SLOAD PUSH2 0x100 SWAP1 DIV PUSH1 0xFF AND JUMPDEST SWAP1 POP SWAP1 JUMP JUMPDEST PUSH2 0x55D PUSH2 0x5EA JUMP JUMPDEST PUSH2 0x4A5 PUSH1 0x0 DUP1 SLOAD PUSH2 0xFF00 NOT AND PUSH2 0x100 OR SWAP1 SSTORE JUMP JUMPDEST PUSH2 0x579 PUSH2 0x5EA JUMP JUMPDEST PUSH1 0x1 PUSH1 0x1 PUSH1 0xA0 SHL SUB DUP2 AND PUSH2 0x5DE JUMPI PUSH1 0x40 MLOAD PUSH3 0x461BCD PUSH1 0xE5 SHL DUP2 MSTORE PUSH1 0x20 PUSH1 0x4 DUP3 ADD MSTORE PUSH1 0x26 PUSH1 0x24 DUP3 ADD MSTORE PUSH32 0x4F776E61626C653A206E6577206F776E657220697320746865207A65726F2061 PUSH1 0x44 DUP3 ADD MSTORE PUSH6 0x646472657373 PUSH1 0xD0 SHL PUSH1 0x64 DUP3 ADD MSTORE PUSH1 0x84 ADD PUSH2 0x49C JUMP JUMPDEST PUSH2 0x5E7 DUP2 PUSH2 0x64B JUMP JUMPDEST POP JUMP JUMPDEST PUSH1 0x0 SLOAD PUSH1 0x1 PUSH1 0x1 PUSH1 0xA0 SHL SUB PUSH3 0x10000 SWAP1 SWAP2 DIV AND CALLER EQ PUSH2 0x4A5 JUMPI PUSH1 0x40 MLOAD PUSH3 0x461BCD PUSH1 0xE5 SHL DUP2 MSTORE PUSH1 0x20 PUSH1 0x4 DUP3 ADD MSTORE PUSH1 0x1F PUSH1 0x24 DUP3 ADD MSTORE PUSH32 0x416C6C6F77616E63653A2063616C6C6572206D757374206265204F776E657200 PUSH1 0x44 DUP3 ADD MSTORE PUSH1 0x64 ADD PUSH2 0x49C JUMP JUMPDEST PUSH1 0x0 DUP1 SLOAD PUSH1 0x1 PUSH1 0x1 PUSH1 0xA0 SHL SUB DUP4 DUP2 AND PUSH3 0x10000 DUP2 DUP2 MUL PUSH3 0x10000 PUSH1 0x1 PUSH1 0xB0 SHL SUB NOT DUP6 AND OR DUP6 SSTORE PUSH1 0x40 MLOAD SWAP4 DIV SWAP2 SWAP1 SWAP2 AND SWAP3 SWAP1 SWAP2 DUP4 SWAP2 PUSH32 0x8BE0079C531659141344CD1FD0A4F28419497F9722A3DAAFE3B4186F6B6457E0 SWAP2 LOG3 POP POP JUMP JUMPDEST PUSH1 0x0 DUP1 DUP6 DUP6 GT ISZERO PUSH2 0x6B6 JUMPI PUSH1 0x0 DUP1 REVERT JUMPDEST DUP4 DUP7 GT ISZERO PUSH2 0x6C3 JUMPI PUSH1 0x0 DUP1 REVERT JUMPDEST POP POP DUP3 ADD SWAP4 SWAP2 SWAP1 SWAP3 SUB SWAP2 POP JUMP JUMPDEST PUSH1 0x0 PUSH1 0x20 DUP3 DUP5 SUB SLT ISZERO PUSH2 0x6E2 JUMPI PUSH1 0x0 DUP1 REVERT JUMPDEST DUP2 CALLDATALOAD PUSH1 0x1 PUSH1 0x1 PUSH1 0xE0 SHL SUB NOT DUP2 AND DUP2 EQ PUSH2 0x6FA JUMPI PUSH1 0x0 DUP1 REVERT JUMPDEST SWAP4 SWAP3 POP POP POP JUMP JUMPDEST PUSH1 0x0 PUSH1 0x20 DUP3 DUP5 SUB SLT ISZERO PUSH2 0x713 JUMPI PUSH1 0x0 DUP1 REVERT JUMPDEST DUP2 CALLDATALOAD PUSH1 0x1 PUSH1 0x1 PUSH1 0xA0 SHL SUB DUP2 AND DUP2 EQ PUSH2 0x6FA JUMPI PUSH1 0x0 DUP1 REVERT JUMPDEST PUSH1 0x0 PUSH1 0x20 DUP3 DUP5 SUB SLT ISZERO PUSH2 0x73C JUMPI PUSH1 0x0 DUP1 REVERT JUMPDEST DUP2 MLOAD DUP1 ISZERO ISZERO DUP2 EQ PUSH2 0x6FA JUMPI PUSH1 0x0 DUP1 REVERT INVALID LOG2 PUSH5 0x6970667358 0x22 SLT KECCAK256 0xFB 0xF8 SWAP10 SWAP3 0xE2 0x2A DUP1 0xBB 0xC SELFDESTRUCT CALL XOR 0xC6 NOT AND 0xC5 MSTORE PUSH24 0x85F6FAC54B5DA5ED1FD13AB8C0EA64736F6C634300080D00 CALLER ",
  "sha1": "4ff2156b460ebedcca62d94f067b9c3db147eb31",
  "source": "// SPDX-License-Identifier: MIT\n// Beef Contracts v0.0.0 hello@mcdu.com\n\npragma solidity ^0.8.0;\n\nimport \"@openzeppelin/contracts/token/ERC20/ERC20.sol\";\nimport \"@openzeppelin/contracts/token/ERC20/IERC20.sol\";\nimport \"../agnostic/Ownable.sol\";\nimport \"../agnostic/Array.sol\";\nimport \"../agnostic/Mode.sol\";\nimport \"../Repository/Repository.sol\";\n\nbytes32 constant COLLATERAL = keccak256(\"Collateral\");\n\n\ncontract CollateralToken is ERC20, Ownable {\n\n    constructor() ERC20(\"Potato\",\"PTO\") {\n    }\n    function mint(address account, uint256 amount) public onlyOwner {\n        _mint(account,amount);\n    }\n    function burn(address account, uint256 amount) public onlyOwner {\n        _burn(account,amount);\n    }\n}\n\ncontract Collateral is RepositoryContract,ModeTest {\n\n    function id() public view returns (bytes32) {return COLLATERAL;}\n    //using Array for address[];\n\n    //Repository immutable public rep;\n\n    /****************************************************************************************\n\t\tconstrutor\n\t****************************************************************************************/\n    constructor(Repository rep_,CollateralToken token_, bool MODETEST_) RepositoryContract(rep_) ModeTest(MODETEST_) {\n        _token = token_;\n    }\n\n    /*function _liquidate() internal virtual override\n    {\n    }*/\n\n    CollateralToken _token;\n    //address[] private _colHolders;\n    mapping(address => uint256) private _colBalance;\n    //uint256 private _colTotalSupply;\n\n    function colBalanceOf(address holder_)\n        public\n        view\n        returns (uint256)\n    {\n        return _colBalance[holder_];\n    }\n    /*function colReturn() external payable {\n        _colReturn(_msgSender(), msg.value);\n    }\n\n    function colRequest(uint256 amount_) external {\n        _colRequest(_msgSender(), amount_);\n    }*/\n\n\n    /****************************************************************************************\n\t\tinternal\n\t****************************************************************************************/\n    function _handleColBalanceChange(\n        address holder_,\n        uint256 balance_\n    ) internal virtual {}\n    function _colBalanceAdd(address holder_, uint256 /*amount_*) internal virtual returns (uint256)\n    {\n       return _colBalance[holder_];\n    }\n    function _colBalanceSub(address holder_, uint256 /*amount_*/) internal virtual returns (uint256)\n    {\n        return _colBalance[holder_];\n    }\n\n    function colQuery(address /*holder_*/) internal virtual returns (uint256)\n    {\n        return 0;\n    }\n\n\n    function _colReturn(\n        address /*holder_*/,\n        uint256 amount_\n    ) internal virtual {\n        require(amount_ > 0, \"amount cannot be 0\");\n/*\n        _token.transferFrom(holder_, address(this), amount_);\n        _token.burn(address(this),amount_);\n        emit CollateraleTotalSupply(_colTotalSupply -= amount_);\n        _handleColBalanceChange(holder_,_colBalanceSub(holder_,amount_));\n        emit CollateraleReturned(holder_, amount_);\n*/        \n    }\n\n    function _colRequest(\n        address /*holder_*/,\n        uint256 amount_\n    ) internal virtual {\n        require(amount_ > 0, \"amount cannot be 0\");\n/*        \n        _token.mint(address(this), amount_);\n        _token.transfer(holder_, amount_);\n        emit CollateraleTotalSupply(_colTotalSupply += amount_);\n        _handleColBalanceChange(holder_,_colBalanceSub(holder_,amount_));\n        emit CollateraleReturned(holder_, amount_);\n*/\n    }\n\n}\n",
  "sourcePath": "contracts/Collateral/Collateral.sol",
  "type": "contract"
}