{
  "abi": [
    {
      "inputs": [
        {
          "internalType": "contract IContractCertified",
          "name": "contractAddr_",
          "type": "address"
        },
        {
          "internalType": "uint256",
          "name": "contractId_",
          "type": "uint256"
        }
      ],
      "name": "certify",
      "outputs": [
        {
          "internalType": "bool",
          "name": "",
          "type": "bool"
        }
      ],
      "stateMutability": "view",
      "type": "function"
    },
    {
      "inputs": [
        {
          "internalType": "address",
          "name": "contractAddr_",
          "type": "address"
        },
        {
          "internalType": "uint256",
          "name": "contractId_",
          "type": "uint256"
        }
      ],
      "name": "isContractAllowed",
      "outputs": [
        {
          "internalType": "bool",
          "name": "",
          "type": "bool"
        }
      ],
      "stateMutability": "view",
      "type": "function"
    },
    {
      "inputs": [
        {
          "internalType": "address",
          "name": "contractAddr_",
          "type": "address"
        },
        {
          "internalType": "uint256",
          "name": "contractId_",
          "type": "uint256"
        }
      ],
      "name": "isContractCertified",
      "outputs": [
        {
          "internalType": "bool",
          "name": "",
          "type": "bool"
        }
      ],
      "stateMutability": "view",
      "type": "function"
    },
    {
      "inputs": [
        {
          "internalType": "address",
          "name": "contractAddr_",
          "type": "address"
        },
        {
          "internalType": "uint256",
          "name": "contractId_",
          "type": "uint256"
        }
      ],
      "name": "isContractForbidden",
      "outputs": [
        {
          "internalType": "bool",
          "name": "",
          "type": "bool"
        }
      ],
      "stateMutability": "view",
      "type": "function"
    },
    {
      "inputs": [],
      "name": "isContractForbiddenUnknown",
      "outputs": [
        {
          "internalType": "bool",
          "name": "",
          "type": "bool"
        }
      ],
      "stateMutability": "view",
      "type": "function"
    },
    {
      "inputs": [
        {
          "internalType": "address",
          "name": "certifier_",
          "type": "address"
        }
      ],
      "name": "isTrustedCertifier",
      "outputs": [
        {
          "internalType": "bool",
          "name": "",
          "type": "bool"
        }
      ],
      "stateMutability": "view",
      "type": "function"
    },
    {
      "inputs": [
        {
          "internalType": "bytes4",
          "name": "interfaceId",
          "type": "bytes4"
        }
      ],
      "name": "supportsInterface",
      "outputs": [
        {
          "internalType": "bool",
          "name": "",
          "type": "bool"
        }
      ],
      "stateMutability": "view",
      "type": "function"
    }
  ],
  "bytecode": "60806040526003805460ff1916905534801561001a57600080fd5b506107318061002a6000396000f3fe608060405234801561001057600080fd5b506004361061007d5760003560e01c8063833500751161005b57806383350075146100cf578063ababadb5146100da578063ad0fc0cc146100ed578063ad10a1351461010057600080fd5b806301ffc9a7146100825780635b62cb70146100a957806381b2490b146100bc575b600080fd5b6100956100903660046105b7565b610113565b604051901515815260200160405180910390f35b6100956100b7366004610600565b61013e565b6100956100ca36600461061d565b610149565b60035460ff16610095565b6100956100e836600461061d565b61027c565b6100956100fb36600461061d565b61038e565b61009561010e36600461061d565b6104bb565b60006305b62cb760e41b6001600160e01b0319831614806101385750610138826104f9565b92915050565b60006101388261052f565b600080545b8015610272576001600160a01b038416600061016b60018461065f565b8154811061017b5761017b610676565b60009182526020909120600290910201546001600160a01b03161480156101d0575060006101aa60018361065f565b815481106101ba576101ba610676565b9060005260206000209060020201600101546000145b8061025157506001600160a01b03841660006101ed60018461065f565b815481106101fd576101fd610676565b60009182526020909120600290910201546001600160a01b0316148015610251575082600061022d60018461065f565b8154811061023d5761023d610676565b906000526020600020906002020160010154145b15610260576001915050610138565b8061026a8161068c565b91505061014e565b5060009392505050565b600254600090815b8181101561038357846001600160a01b0316600282815481106102a9576102a9610676565b60009182526020909120600290910201546001600160a01b03161480156102f45750600281815481106102de576102de610676565b9060005260206000209060020201600101546000145b806103615750846001600160a01b03166002828154811061031757610317610676565b60009182526020909120600290910201546001600160a01b03161480156103615750836002828154811061034d5761034d610676565b906000526020600020906002020160010154145b1561037157600192505050610138565b8061037b816106a3565b915050610284565b506000949350505050565b600061039b836000610149565b156103a857506001610138565b81156103c5576103b88383610149565b156103c557506001610138565b6000836001600160a01b031663373a7fb46040518163ffffffff1660e01b8152600401602060405180830381865afa158015610405573d6000803e3d6000fd5b505050506040513d601f19601f8201168201806040525081019061042991906106bc565b90506104348161013e565b610442576000915050610138565b604051632b43f03360e21b81526001600160a01b0385811660048301526024820185905282169063ad0fc0cc90604401602060405180830381865afa15801561048f573d6000803e3d6000fd5b505050506040513d601f19601f820116820180604052508101906104b391906106d9565b949350505050565b60006104c7838361027c565b156104d457506000610138565b6104de8383610149565b156104eb57506001610138565b60035460ff16159392505050565b60006001600160e01b031982166301ffc9a760e01b148061013857506001600160e01b03198216632b43f03360e21b1492915050565b6000306001600160a01b0383160361054957506001919050565b6001545b80156105ae576001600160a01b0383166001610569818461065f565b8154811061057957610579610676565b6000918252602090912001546001600160a01b03160361059c5750600192915050565b806105a68161068c565b91505061054d565b50600092915050565b6000602082840312156105c957600080fd5b81356001600160e01b0319811681146105e157600080fd5b9392505050565b6001600160a01b03811681146105fd57600080fd5b50565b60006020828403121561061257600080fd5b81356105e1816105e8565b6000806040838503121561063057600080fd5b823561063b816105e8565b946020939093013593505050565b634e487b7160e01b600052601160045260246000fd5b60008282101561067157610671610649565b500390565b634e487b7160e01b600052603260045260246000fd5b60008161069b5761069b610649565b506000190190565b6000600182016106b5576106b5610649565b5060010190565b6000602082840312156106ce57600080fd5b81516105e1816105e8565b6000602082840312156106eb57600080fd5b815180151581146105e157600080fdfea2646970667358221220f743813d7f112f34569378cb733b7027e60c6293738027aecb166ac27471450664736f6c634300080d0033",
  "bytecodeSha1": "d0cca56a3ddc01192ce522563cbcf9b6fbe3c1d1",
  "compiler": {
    "evm_version": "istanbul",
    "optimizer": {
      "enabled": true,
      "runs": 200
    },
    "version": "0.8.13+commit.abaa5c0e"
  },
  "contractName": "ContractForbidderCertifier",
  "language": "Solidity",
  "natspec": {
    "kind": "dev",
    "methods": {},
    "version": 1
  },
  "opcodes": "PUSH1 0x80 PUSH1 0x40 MSTORE CALLVALUE DUP1 ISZERO PUSH2 0x10 JUMPI PUSH1 0x0 DUP1 REVERT JUMPDEST POP PUSH1 0x4 CALLDATASIZE LT PUSH2 0x7D JUMPI PUSH1 0x0 CALLDATALOAD PUSH1 0xE0 SHR DUP1 PUSH4 0x83350075 GT PUSH2 0x5B JUMPI DUP1 PUSH4 0x83350075 EQ PUSH2 0xCF JUMPI DUP1 PUSH4 0xABABADB5 EQ PUSH2 0xDA JUMPI DUP1 PUSH4 0xAD0FC0CC EQ PUSH2 0xED JUMPI DUP1 PUSH4 0xAD10A135 EQ PUSH2 0x100 JUMPI PUSH1 0x0 DUP1 REVERT JUMPDEST DUP1 PUSH4 0x1FFC9A7 EQ PUSH2 0x82 JUMPI DUP1 PUSH4 0x5B62CB70 EQ PUSH2 0xA9 JUMPI DUP1 PUSH4 0x81B2490B EQ PUSH2 0xBC JUMPI JUMPDEST PUSH1 0x0 DUP1 REVERT JUMPDEST PUSH2 0x95 PUSH2 0x90 CALLDATASIZE PUSH1 0x4 PUSH2 0x5B7 JUMP JUMPDEST PUSH2 0x113 JUMP JUMPDEST PUSH1 0x40 MLOAD SWAP1 ISZERO ISZERO DUP2 MSTORE PUSH1 0x20 ADD PUSH1 0x40 MLOAD DUP1 SWAP2 SUB SWAP1 RETURN JUMPDEST PUSH2 0x95 PUSH2 0xB7 CALLDATASIZE PUSH1 0x4 PUSH2 0x600 JUMP JUMPDEST PUSH2 0x13E JUMP JUMPDEST PUSH2 0x95 PUSH2 0xCA CALLDATASIZE PUSH1 0x4 PUSH2 0x61D JUMP JUMPDEST PUSH2 0x149 JUMP JUMPDEST PUSH1 0x3 SLOAD PUSH1 0xFF AND PUSH2 0x95 JUMP JUMPDEST PUSH2 0x95 PUSH2 0xE8 CALLDATASIZE PUSH1 0x4 PUSH2 0x61D JUMP JUMPDEST PUSH2 0x27C JUMP JUMPDEST PUSH2 0x95 PUSH2 0xFB CALLDATASIZE PUSH1 0x4 PUSH2 0x61D JUMP JUMPDEST PUSH2 0x38E JUMP JUMPDEST PUSH2 0x95 PUSH2 0x10E CALLDATASIZE PUSH1 0x4 PUSH2 0x61D JUMP JUMPDEST PUSH2 0x4BB JUMP JUMPDEST PUSH1 0x0 PUSH4 0x5B62CB7 PUSH1 0xE4 SHL PUSH1 0x1 PUSH1 0x1 PUSH1 0xE0 SHL SUB NOT DUP4 AND EQ DUP1 PUSH2 0x138 JUMPI POP PUSH2 0x138 DUP3 PUSH2 0x4F9 JUMP JUMPDEST SWAP3 SWAP2 POP POP JUMP JUMPDEST PUSH1 0x0 PUSH2 0x138 DUP3 PUSH2 0x52F JUMP JUMPDEST PUSH1 0x0 DUP1 SLOAD JUMPDEST DUP1 ISZERO PUSH2 0x272 JUMPI PUSH1 0x1 PUSH1 0x1 PUSH1 0xA0 SHL SUB DUP5 AND PUSH1 0x0 PUSH2 0x16B PUSH1 0x1 DUP5 PUSH2 0x65F JUMP JUMPDEST DUP2 SLOAD DUP2 LT PUSH2 0x17B JUMPI PUSH2 0x17B PUSH2 0x676 JUMP JUMPDEST PUSH1 0x0 SWAP2 DUP3 MSTORE PUSH1 0x20 SWAP1 SWAP2 KECCAK256 PUSH1 0x2 SWAP1 SWAP2 MUL ADD SLOAD PUSH1 0x1 PUSH1 0x1 PUSH1 0xA0 SHL SUB AND EQ DUP1 ISZERO PUSH2 0x1D0 JUMPI POP PUSH1 0x0 PUSH2 0x1AA PUSH1 0x1 DUP4 PUSH2 0x65F JUMP JUMPDEST DUP2 SLOAD DUP2 LT PUSH2 0x1BA JUMPI PUSH2 0x1BA PUSH2 0x676 JUMP JUMPDEST SWAP1 PUSH1 0x0 MSTORE PUSH1 0x20 PUSH1 0x0 KECCAK256 SWAP1 PUSH1 0x2 MUL ADD PUSH1 0x1 ADD SLOAD PUSH1 0x0 EQ JUMPDEST DUP1 PUSH2 0x251 JUMPI POP PUSH1 0x1 PUSH1 0x1 PUSH1 0xA0 SHL SUB DUP5 AND PUSH1 0x0 PUSH2 0x1ED PUSH1 0x1 DUP5 PUSH2 0x65F JUMP JUMPDEST DUP2 SLOAD DUP2 LT PUSH2 0x1FD JUMPI PUSH2 0x1FD PUSH2 0x676 JUMP JUMPDEST PUSH1 0x0 SWAP2 DUP3 MSTORE PUSH1 0x20 SWAP1 SWAP2 KECCAK256 PUSH1 0x2 SWAP1 SWAP2 MUL ADD SLOAD PUSH1 0x1 PUSH1 0x1 PUSH1 0xA0 SHL SUB AND EQ DUP1 ISZERO PUSH2 0x251 JUMPI POP DUP3 PUSH1 0x0 PUSH2 0x22D PUSH1 0x1 DUP5 PUSH2 0x65F JUMP JUMPDEST DUP2 SLOAD DUP2 LT PUSH2 0x23D JUMPI PUSH2 0x23D PUSH2 0x676 JUMP JUMPDEST SWAP1 PUSH1 0x0 MSTORE PUSH1 0x20 PUSH1 0x0 KECCAK256 SWAP1 PUSH1 0x2 MUL ADD PUSH1 0x1 ADD SLOAD EQ JUMPDEST ISZERO PUSH2 0x260 JUMPI PUSH1 0x1 SWAP2 POP POP PUSH2 0x138 JUMP JUMPDEST DUP1 PUSH2 0x26A DUP2 PUSH2 0x68C JUMP JUMPDEST SWAP2 POP POP PUSH2 0x14E JUMP JUMPDEST POP PUSH1 0x0 SWAP4 SWAP3 POP POP POP JUMP JUMPDEST PUSH1 0x2 SLOAD PUSH1 0x0 SWAP1 DUP2 JUMPDEST DUP2 DUP2 LT ISZERO PUSH2 0x383 JUMPI DUP5 PUSH1 0x1 PUSH1 0x1 PUSH1 0xA0 SHL SUB AND PUSH1 0x2 DUP3 DUP2 SLOAD DUP2 LT PUSH2 0x2A9 JUMPI PUSH2 0x2A9 PUSH2 0x676 JUMP JUMPDEST PUSH1 0x0 SWAP2 DUP3 MSTORE PUSH1 0x20 SWAP1 SWAP2 KECCAK256 PUSH1 0x2 SWAP1 SWAP2 MUL ADD SLOAD PUSH1 0x1 PUSH1 0x1 PUSH1 0xA0 SHL SUB AND EQ DUP1 ISZERO PUSH2 0x2F4 JUMPI POP PUSH1 0x2 DUP2 DUP2 SLOAD DUP2 LT PUSH2 0x2DE JUMPI PUSH2 0x2DE PUSH2 0x676 JUMP JUMPDEST SWAP1 PUSH1 0x0 MSTORE PUSH1 0x20 PUSH1 0x0 KECCAK256 SWAP1 PUSH1 0x2 MUL ADD PUSH1 0x1 ADD SLOAD PUSH1 0x0 EQ JUMPDEST DUP1 PUSH2 0x361 JUMPI POP DUP5 PUSH1 0x1 PUSH1 0x1 PUSH1 0xA0 SHL SUB AND PUSH1 0x2 DUP3 DUP2 SLOAD DUP2 LT PUSH2 0x317 JUMPI PUSH2 0x317 PUSH2 0x676 JUMP JUMPDEST PUSH1 0x0 SWAP2 DUP3 MSTORE PUSH1 0x20 SWAP1 SWAP2 KECCAK256 PUSH1 0x2 SWAP1 SWAP2 MUL ADD SLOAD PUSH1 0x1 PUSH1 0x1 PUSH1 0xA0 SHL SUB AND EQ DUP1 ISZERO PUSH2 0x361 JUMPI POP DUP4 PUSH1 0x2 DUP3 DUP2 SLOAD DUP2 LT PUSH2 0x34D JUMPI PUSH2 0x34D PUSH2 0x676 JUMP JUMPDEST SWAP1 PUSH1 0x0 MSTORE PUSH1 0x20 PUSH1 0x0 KECCAK256 SWAP1 PUSH1 0x2 MUL ADD PUSH1 0x1 ADD SLOAD EQ JUMPDEST ISZERO PUSH2 0x371 JUMPI PUSH1 0x1 SWAP3 POP POP POP PUSH2 0x138 JUMP JUMPDEST DUP1 PUSH2 0x37B DUP2 PUSH2 0x6A3 JUMP JUMPDEST SWAP2 POP POP PUSH2 0x284 JUMP JUMPDEST POP PUSH1 0x0 SWAP5 SWAP4 POP POP POP POP JUMP JUMPDEST PUSH1 0x0 PUSH2 0x39B DUP4 PUSH1 0x0 PUSH2 0x149 JUMP JUMPDEST ISZERO PUSH2 0x3A8 JUMPI POP PUSH1 0x1 PUSH2 0x138 JUMP JUMPDEST DUP2 ISZERO PUSH2 0x3C5 JUMPI PUSH2 0x3B8 DUP4 DUP4 PUSH2 0x149 JUMP JUMPDEST ISZERO PUSH2 0x3C5 JUMPI POP PUSH1 0x1 PUSH2 0x138 JUMP JUMPDEST PUSH1 0x0 DUP4 PUSH1 0x1 PUSH1 0x1 PUSH1 0xA0 SHL SUB AND PUSH4 0x373A7FB4 PUSH1 0x40 MLOAD DUP2 PUSH4 0xFFFFFFFF AND PUSH1 0xE0 SHL DUP2 MSTORE PUSH1 0x4 ADD PUSH1 0x20 PUSH1 0x40 MLOAD DUP1 DUP4 SUB DUP2 DUP7 GAS STATICCALL ISZERO DUP1 ISZERO PUSH2 0x405 JUMPI RETURNDATASIZE PUSH1 0x0 DUP1 RETURNDATACOPY RETURNDATASIZE PUSH1 0x0 REVERT JUMPDEST POP POP POP POP PUSH1 0x40 MLOAD RETURNDATASIZE PUSH1 0x1F NOT PUSH1 0x1F DUP3 ADD AND DUP3 ADD DUP1 PUSH1 0x40 MSTORE POP DUP2 ADD SWAP1 PUSH2 0x429 SWAP2 SWAP1 PUSH2 0x6BC JUMP JUMPDEST SWAP1 POP PUSH2 0x434 DUP2 PUSH2 0x13E JUMP JUMPDEST PUSH2 0x442 JUMPI PUSH1 0x0 SWAP2 POP POP PUSH2 0x138 JUMP JUMPDEST PUSH1 0x40 MLOAD PUSH4 0x2B43F033 PUSH1 0xE2 SHL DUP2 MSTORE PUSH1 0x1 PUSH1 0x1 PUSH1 0xA0 SHL SUB DUP6 DUP2 AND PUSH1 0x4 DUP4 ADD MSTORE PUSH1 0x24 DUP3 ADD DUP6 SWAP1 MSTORE DUP3 AND SWAP1 PUSH4 0xAD0FC0CC SWAP1 PUSH1 0x44 ADD PUSH1 0x20 PUSH1 0x40 MLOAD DUP1 DUP4 SUB DUP2 DUP7 GAS STATICCALL ISZERO DUP1 ISZERO PUSH2 0x48F JUMPI RETURNDATASIZE PUSH1 0x0 DUP1 RETURNDATACOPY RETURNDATASIZE PUSH1 0x0 REVERT JUMPDEST POP POP POP POP PUSH1 0x40 MLOAD RETURNDATASIZE PUSH1 0x1F NOT PUSH1 0x1F DUP3 ADD AND DUP3 ADD DUP1 PUSH1 0x40 MSTORE POP DUP2 ADD SWAP1 PUSH2 0x4B3 SWAP2 SWAP1 PUSH2 0x6D9 JUMP JUMPDEST SWAP5 SWAP4 POP POP POP POP JUMP JUMPDEST PUSH1 0x0 PUSH2 0x4C7 DUP4 DUP4 PUSH2 0x27C JUMP JUMPDEST ISZERO PUSH2 0x4D4 JUMPI POP PUSH1 0x0 PUSH2 0x138 JUMP JUMPDEST PUSH2 0x4DE DUP4 DUP4 PUSH2 0x149 JUMP JUMPDEST ISZERO PUSH2 0x4EB JUMPI POP PUSH1 0x1 PUSH2 0x138 JUMP JUMPDEST PUSH1 0x3 SLOAD PUSH1 0xFF AND ISZERO SWAP4 SWAP3 POP POP POP JUMP JUMPDEST PUSH1 0x0 PUSH1 0x1 PUSH1 0x1 PUSH1 0xE0 SHL SUB NOT DUP3 AND PUSH4 0x1FFC9A7 PUSH1 0xE0 SHL EQ DUP1 PUSH2 0x138 JUMPI POP PUSH1 0x1 PUSH1 0x1 PUSH1 0xE0 SHL SUB NOT DUP3 AND PUSH4 0x2B43F033 PUSH1 0xE2 SHL EQ SWAP3 SWAP2 POP POP JUMP JUMPDEST PUSH1 0x0 ADDRESS PUSH1 0x1 PUSH1 0x1 PUSH1 0xA0 SHL SUB DUP4 AND SUB PUSH2 0x549 JUMPI POP PUSH1 0x1 SWAP2 SWAP1 POP JUMP JUMPDEST PUSH1 0x1 SLOAD JUMPDEST DUP1 ISZERO PUSH2 0x5AE JUMPI PUSH1 0x1 PUSH1 0x1 PUSH1 0xA0 SHL SUB DUP4 AND PUSH1 0x1 PUSH2 0x569 DUP2 DUP5 PUSH2 0x65F JUMP JUMPDEST DUP2 SLOAD DUP2 LT PUSH2 0x579 JUMPI PUSH2 0x579 PUSH2 0x676 JUMP JUMPDEST PUSH1 0x0 SWAP2 DUP3 MSTORE PUSH1 0x20 SWAP1 SWAP2 KECCAK256 ADD SLOAD PUSH1 0x1 PUSH1 0x1 PUSH1 0xA0 SHL SUB AND SUB PUSH2 0x59C JUMPI POP PUSH1 0x1 SWAP3 SWAP2 POP POP JUMP JUMPDEST DUP1 PUSH2 0x5A6 DUP2 PUSH2 0x68C JUMP JUMPDEST SWAP2 POP POP PUSH2 0x54D JUMP JUMPDEST POP PUSH1 0x0 SWAP3 SWAP2 POP POP JUMP JUMPDEST PUSH1 0x0 PUSH1 0x20 DUP3 DUP5 SUB SLT ISZERO PUSH2 0x5C9 JUMPI PUSH1 0x0 DUP1 REVERT JUMPDEST DUP2 CALLDATALOAD PUSH1 0x1 PUSH1 0x1 PUSH1 0xE0 SHL SUB NOT DUP2 AND DUP2 EQ PUSH2 0x5E1 JUMPI PUSH1 0x0 DUP1 REVERT JUMPDEST SWAP4 SWAP3 POP POP POP JUMP JUMPDEST PUSH1 0x1 PUSH1 0x1 PUSH1 0xA0 SHL SUB DUP2 AND DUP2 EQ PUSH2 0x5FD JUMPI PUSH1 0x0 DUP1 REVERT JUMPDEST POP JUMP JUMPDEST PUSH1 0x0 PUSH1 0x20 DUP3 DUP5 SUB SLT ISZERO PUSH2 0x612 JUMPI PUSH1 0x0 DUP1 REVERT JUMPDEST DUP2 CALLDATALOAD PUSH2 0x5E1 DUP2 PUSH2 0x5E8 JUMP JUMPDEST PUSH1 0x0 DUP1 PUSH1 0x40 DUP4 DUP6 SUB SLT ISZERO PUSH2 0x630 JUMPI PUSH1 0x0 DUP1 REVERT JUMPDEST DUP3 CALLDATALOAD PUSH2 0x63B DUP2 PUSH2 0x5E8 JUMP JUMPDEST SWAP5 PUSH1 0x20 SWAP4 SWAP1 SWAP4 ADD CALLDATALOAD SWAP4 POP POP POP JUMP JUMPDEST PUSH4 0x4E487B71 PUSH1 0xE0 SHL PUSH1 0x0 MSTORE PUSH1 0x11 PUSH1 0x4 MSTORE PUSH1 0x24 PUSH1 0x0 REVERT JUMPDEST PUSH1 0x0 DUP3 DUP3 LT ISZERO PUSH2 0x671 JUMPI PUSH2 0x671 PUSH2 0x649 JUMP JUMPDEST POP SUB SWAP1 JUMP JUMPDEST PUSH4 0x4E487B71 PUSH1 0xE0 SHL PUSH1 0x0 MSTORE PUSH1 0x32 PUSH1 0x4 MSTORE PUSH1 0x24 PUSH1 0x0 REVERT JUMPDEST PUSH1 0x0 DUP2 PUSH2 0x69B JUMPI PUSH2 0x69B PUSH2 0x649 JUMP JUMPDEST POP PUSH1 0x0 NOT ADD SWAP1 JUMP JUMPDEST PUSH1 0x0 PUSH1 0x1 DUP3 ADD PUSH2 0x6B5 JUMPI PUSH2 0x6B5 PUSH2 0x649 JUMP JUMPDEST POP PUSH1 0x1 ADD SWAP1 JUMP JUMPDEST PUSH1 0x0 PUSH1 0x20 DUP3 DUP5 SUB SLT ISZERO PUSH2 0x6CE JUMPI PUSH1 0x0 DUP1 REVERT JUMPDEST DUP2 MLOAD PUSH2 0x5E1 DUP2 PUSH2 0x5E8 JUMP JUMPDEST PUSH1 0x0 PUSH1 0x20 DUP3 DUP5 SUB SLT ISZERO PUSH2 0x6EB JUMPI PUSH1 0x0 DUP1 REVERT JUMPDEST DUP2 MLOAD DUP1 ISZERO ISZERO DUP2 EQ PUSH2 0x5E1 JUMPI PUSH1 0x0 DUP1 REVERT INVALID LOG2 PUSH5 0x6970667358 0x22 SLT KECCAK256 0xF7 NUMBER DUP2 RETURNDATASIZE PUSH32 0x112F34569378CB733B7027E60C6293738027AECB166AC27471450664736F6C63 NUMBER STOP ADDMOD 0xD STOP CALLER ",
  "sha1": "0779ff486ca8758bd2c58a26828e71accde088ee",
  "source": "\n// SPDX-License-Identifier: MIT\n// Beef MarketPlace Contracts v0.0.0 hello@mcdu.com\n\npragma solidity ^0.8.0;\n\nimport \"./ContractCertified.sol\";\nimport \"./Certifiers.sol\";\nimport \"../Array.sol\";\n\n\ncontract ContractForbidder {\n    using Array for bytes32[];\n\n    SContractWithId[] private _forbidden;\n    bool private _forbiddenunknown = false;\n\n    function isContractForbiddenUnknown() virtual view public returns (bool) {\n        return _forbiddenunknown;\n    }\n    function _contractForbiddenUnknownChanged(bool forbiddenunknown_) internal virtual {}\n    function _contractForbiddenUnknownSet(bool forbiddenunknown_) internal returns (bool) {\n        if (_forbiddenunknown==forbiddenunknown_)\n            return false;\n        _forbiddenunknown=forbiddenunknown_;\n        _contractForbiddenUnknownChanged(_forbiddenunknown);\n        return true;\n    }\n    function _contractForbiddenAdded(address contractAddr_,uint256 contractId_) internal virtual {}\n\n    function _contractForbiddenRemoved(address contractAddr_,uint256 contractId_) internal virtual {}\n\n    function _contractForbiddenAdd(address contractAddr_,uint256 contractId_) internal returns (bool) {\n        uint len = _forbidden.length;\n        for (uint i ;i<len;i++)\n            if (_forbidden[i].contractAddr==contractAddr_&&_forbidden[i].contractId==0)\n                return false;\n        if (contractId_==0)\n        {\n            unchecked {\n                for (uint i=len-1;i<len;i--)\n                    if (_forbidden[i].contractAddr==contractAddr_)\n                        _contractForbiddenRemove(_forbidden[i].contractAddr,_forbidden[i].contractId);\n                \n            }\n        }\n        else\n        {\n            for (uint i;i<len;i++)\n                if (_forbidden[i].contractAddr==contractAddr_&&_forbidden[i].contractId==contractId_)\n                    return false;\n        }\n        _forbidden.push(SContractWithId(contractAddr_,contractId_));\n        _contractForbiddenAdded(contractAddr_,contractId_);\n        return true;\n    }\n\n    function _contractForbiddenRemove(address contractAddr_,uint256 contractId_) internal returns (bool) {\n        uint len = _forbidden.length;\n        for (uint i;i<len;i++)\n            if (_forbidden[i].contractAddr==contractAddr_&&_forbidden[i].contractId==contractId_)\n            {\n                if (i<len-1)\n                    _forbidden[i] = _forbidden[len-1];\n                _forbidden.pop();\n                _contractForbiddenRemoved(contractAddr_,contractId_);\n                return true;\n            }\n        return false;\n    }\n    function isContractForbidden(address contractAddr_,uint256 contractId_) public view virtual returns (bool) {\n        uint len = _forbidden.length;\n        for (uint i;i<len;i++)\n             if ((_forbidden[i].contractAddr==contractAddr_&&_forbidden[i].contractId==0) \n                ||\n                (_forbidden[i].contractAddr==contractAddr_&&_forbidden[i].contractId==contractId_))\n                return true;\n        return false;\n    }\n    function isContractAllowed(address contractAddr_,uint256 contractId_) public view virtual returns (bool) {\n        if (isContractForbidden(contractAddr_,contractId_))\n            return false;\n        return !_forbiddenunknown;\n    }\n\n}\n\ncontract ContractForbidderCertifier is ContractCertifier, Certifiers,ContractForbidder {\n    \n    function supportsInterface(bytes4 interfaceId)\n        public\n        view virtual override(ContractCertifier,Certifiers)\n        returns (bool)\n    {\n        return Certifiers.supportsInterface(interfaceId) || ContractCertifier.supportsInterface(interfaceId) ;\n    }\n\n    function isTrustedCertifier(address certifier_) public view virtual override(ContractCertifier,Certifiers) returns (bool)\n    {\n        return Certifiers.isTrustedCertifier(certifier_);\n    }\n\n    function isContractAllowed(address contractAddr_,uint256 contractId_) public view virtual override returns (bool) {\n        if (ContractForbidder.isContractForbidden(contractAddr_,contractId_))\n            return false;\n        if (isContractCertified(contractAddr_,contractId_))\n            return true;\n        return !isContractForbiddenUnknown();\n    }\n\n\n}",
  "sourcePath": "contracts/agnostic/Certified/CertifierAllower.sol",
  "type": "contract"
}