{
  "abi": [
    {
      "inputs": [
        {
          "internalType": "contract IContractCertifier",
          "name": "certifier",
          "type": "address"
        }
      ],
      "stateMutability": "nonpayable",
      "type": "constructor"
    },
    {
      "inputs": [],
      "name": "getCertifier",
      "outputs": [
        {
          "internalType": "contract IContractCertifier",
          "name": "",
          "type": "address"
        }
      ],
      "stateMutability": "view",
      "type": "function"
    },
    {
      "inputs": [
        {
          "internalType": "bytes4",
          "name": "interfaceId",
          "type": "bytes4"
        }
      ],
      "name": "supportsInterface",
      "outputs": [
        {
          "internalType": "bool",
          "name": "",
          "type": "bool"
        }
      ],
      "stateMutability": "view",
      "type": "function"
    }
  ],
  "bytecode": "608060405234801561001057600080fd5b506040516101a33803806101a383398101604081905261002f91610054565b600080546001600160a01b0319166001600160a01b0392909216919091179055610084565b60006020828403121561006657600080fd5b81516001600160a01b038116811461007d57600080fd5b9392505050565b610110806100936000396000f3fe6080604052348015600f57600080fd5b506004361060325760003560e01c806301ffc9a7146037578063373a7fb414605b575b600080fd5b6046604236600460ab565b6075565b60405190151581526020015b60405180910390f35b6000546040516001600160a01b0390911681526020016052565b60006001600160e01b031982166301ffc9a760e01b148060a557506001600160e01b03198216630dce9fed60e21b145b92915050565b60006020828403121560bc57600080fd5b81356001600160e01b03198116811460d357600080fd5b939250505056fea2646970667358221220a8727113ee0391d2e36f5217eecdcdec362f7d55e3ed1234be840587fbc4ac1564736f6c634300080d0033",
  "bytecodeSha1": "cc00a6d0ebcc114444d889035ed5e690916e85d8",
  "compiler": {
    "evm_version": "istanbul",
    "optimizer": {
      "enabled": true,
      "runs": 200
    },
    "version": "0.8.13+commit.abaa5c0e"
  },
  "contractName": "ContractCertified",
  "language": "Solidity",
  "natspec": {
    "kind": "dev",
    "methods": {
      "supportsInterface(bytes4)": {
        "details": "Returns true if this contract implements the interface defined by `interfaceId`. See the corresponding https://eips.ethereum.org/EIPS/eip-165#how-interfaces-are-identified[EIP section] to learn more about how these ids are created. This function call must use less than 30 000 gas."
      }
    },
    "version": 1
  },
  "opcodes": "PUSH1 0x80 PUSH1 0x40 MSTORE CALLVALUE DUP1 ISZERO PUSH1 0xF JUMPI PUSH1 0x0 DUP1 REVERT JUMPDEST POP PUSH1 0x4 CALLDATASIZE LT PUSH1 0x32 JUMPI PUSH1 0x0 CALLDATALOAD PUSH1 0xE0 SHR DUP1 PUSH4 0x1FFC9A7 EQ PUSH1 0x37 JUMPI DUP1 PUSH4 0x373A7FB4 EQ PUSH1 0x5B JUMPI JUMPDEST PUSH1 0x0 DUP1 REVERT JUMPDEST PUSH1 0x46 PUSH1 0x42 CALLDATASIZE PUSH1 0x4 PUSH1 0xAB JUMP JUMPDEST PUSH1 0x75 JUMP JUMPDEST PUSH1 0x40 MLOAD SWAP1 ISZERO ISZERO DUP2 MSTORE PUSH1 0x20 ADD JUMPDEST PUSH1 0x40 MLOAD DUP1 SWAP2 SUB SWAP1 RETURN JUMPDEST PUSH1 0x0 SLOAD PUSH1 0x40 MLOAD PUSH1 0x1 PUSH1 0x1 PUSH1 0xA0 SHL SUB SWAP1 SWAP2 AND DUP2 MSTORE PUSH1 0x20 ADD PUSH1 0x52 JUMP JUMPDEST PUSH1 0x0 PUSH1 0x1 PUSH1 0x1 PUSH1 0xE0 SHL SUB NOT DUP3 AND PUSH4 0x1FFC9A7 PUSH1 0xE0 SHL EQ DUP1 PUSH1 0xA5 JUMPI POP PUSH1 0x1 PUSH1 0x1 PUSH1 0xE0 SHL SUB NOT DUP3 AND PUSH4 0xDCE9FED PUSH1 0xE2 SHL EQ JUMPDEST SWAP3 SWAP2 POP POP JUMP JUMPDEST PUSH1 0x0 PUSH1 0x20 DUP3 DUP5 SUB SLT ISZERO PUSH1 0xBC JUMPI PUSH1 0x0 DUP1 REVERT JUMPDEST DUP2 CALLDATALOAD PUSH1 0x1 PUSH1 0x1 PUSH1 0xE0 SHL SUB NOT DUP2 AND DUP2 EQ PUSH1 0xD3 JUMPI PUSH1 0x0 DUP1 REVERT JUMPDEST SWAP4 SWAP3 POP POP POP JUMP INVALID LOG2 PUSH5 0x6970667358 0x22 SLT KECCAK256 0xA8 PUSH19 0x7113EE0391D2E36F5217EECDCDEC362F7D55E3 0xED SLT CALLVALUE 0xBE DUP5 SDIV DUP8 0xFB 0xC4 0xAC ISZERO PUSH5 0x736F6C6343 STOP ADDMOD 0xD STOP CALLER ",
  "sha1": "c3167336427b27392ae31544e4641ef4f3853195",
  "source": "// SPDX-License-Identifier: MIT\n// Beef MarketPlace Contracts v0.0.0 hello@mcdu.com\n\npragma solidity ^0.8.0;\nimport \"../../../interfaces/IContractCertified.sol\";\nimport \"../../../interfaces/IContractWithId.sol\";\n\ncontract ContractCertified is IContractCertified {\n    IContractCertifier private _certifier;\n\n    constructor(IContractCertifier certifier) {\n        _certifier = certifier;\n    }\n\n    function supportsInterface(bytes4 interfaceId)\n        public\n        view virtual\n        returns (bool)\n    {\n        return interfaceId == type(IERC165).interfaceId || interfaceId == type(IContractCertified).interfaceId;\n    }\n\n    function getCertifier() public view returns (IContractCertifier) {\n        return _certifier;\n    }\n}\n    \nabstract contract ContractCertifier is IContractCertifier {\n\n    SContractWithId[] private _certifiedcontracts;\n\n    function isTrustedCertifier(address certifier_) public view virtual returns (bool);\n\n    function isContractCertified(\n        address contractAddr_,\n        uint256 contractId_\n    ) public view virtual returns (bool) {\n        uint i = _certifiedcontracts.length;\n        for (;i>0;i--)\n             if ((_certifiedcontracts[i-1].contractAddr==contractAddr_&&_certifiedcontracts[i-1].contractId==0) \n                ||\n                (_certifiedcontracts[i-1].contractAddr==contractAddr_&&_certifiedcontracts[i-1].contractId==contractId_))\n                return true;\n        return false;\n    }\n\n    function contractCertifiedAdded(address contractAddr_,uint256 contractId_) internal virtual {}\n\n    function contractCertifiedRemoved(address contractAddr_,uint256 contractId_) internal virtual {}\n\n    function _addContractCertified(address contractAddr_,uint256 contractId_) internal returns (bool){\n        for (uint i = _certifiedcontracts.length;i>0;i--)\n            if (_certifiedcontracts[i-1].contractAddr==contractAddr_&&_certifiedcontracts[i-1].contractId==0)\n                return false;\n        if (contractId_==0)\n        {\n            while (true)\n            {\n                uint i = _certifiedcontracts.length;\n                for (;i>0;i--)\n                    if (_certifiedcontracts[i-1].contractAddr==contractAddr_)\n                    {\n                        _removeContractCertified(_certifiedcontracts[i-1].contractAddr,_certifiedcontracts[i-1].contractId);\n                        break;\n                    }\n                if (i==0)\n                    break;\n            }\n        }\n        else\n            for (uint i = _certifiedcontracts.length;i>0;i--)\n                if (_certifiedcontracts[i-1].contractAddr==contractAddr_&&_certifiedcontracts[i-1].contractId==contractId_)\n                    return false;\n        _certifiedcontracts.push(SContractWithId(contractAddr_,contractId_));\n        contractCertifiedAdded(contractAddr_,contractId_);\n        return true;\n    }\n\n    function _removeContractCertified(address contractAddr_,uint256 contractId_) internal returns (bool){\n        uint _len = _certifiedcontracts.length;\n        for (uint i;i<_len;i++)\n            if (_certifiedcontracts[i].contractAddr==contractAddr_&&_certifiedcontracts[i].contractId==contractId_)\n            {\n                if (i<_len-1)\n                    _certifiedcontracts[i] = _certifiedcontracts[_len-1];\n                _certifiedcontracts.pop();\n                contractCertifiedRemoved(contractAddr_,contractId_);\n                return true;\n            }\n        return false;\n    }\n\n    function supportsInterface(bytes4 interfaceId)\n        public virtual\n        view \n        returns (bool)\n    {\n        return interfaceId == type(IERC165).interfaceId || interfaceId == type(IContractCertifier).interfaceId;\n    }\n\n    \n    function certify(\n        IContractCertified contractAddr_,\n        uint256 contractId_\n    )\n        public\n        view\n        returns (bool)\n    {\n        if (isContractCertified(address(contractAddr_),0))\n            return true;\n        if (contractId_!=0)\n        if (isContractCertified(address(contractAddr_),contractId_))\n            return true;\n        IContractCertifier certifier = contractAddr_.getCertifier();\n        if (!isTrustedCertifier(address(certifier)))\n            return false;\n        return certifier.certify(contractAddr_,contractId_);\n    }\n}\n",
  "sourcePath": "contracts/agnostic/Certified/ContractCertified.sol",
  "type": "contract"
}