{
  "abi": [
    {
      "inputs": [
        {
          "internalType": "address",
          "name": "contractAddr_",
          "type": "address"
        },
        {
          "internalType": "uint256",
          "name": "contractId_",
          "type": "uint256"
        }
      ],
      "name": "isContractAllowed",
      "outputs": [
        {
          "internalType": "bool",
          "name": "",
          "type": "bool"
        }
      ],
      "stateMutability": "view",
      "type": "function"
    },
    {
      "inputs": [
        {
          "internalType": "address",
          "name": "contractAddr_",
          "type": "address"
        },
        {
          "internalType": "uint256",
          "name": "contractId_",
          "type": "uint256"
        }
      ],
      "name": "isContractForbidden",
      "outputs": [
        {
          "internalType": "bool",
          "name": "",
          "type": "bool"
        }
      ],
      "stateMutability": "view",
      "type": "function"
    },
    {
      "inputs": [],
      "name": "isContractForbiddenUnknown",
      "outputs": [
        {
          "internalType": "bool",
          "name": "",
          "type": "bool"
        }
      ],
      "stateMutability": "view",
      "type": "function"
    }
  ],
  "bytecode": "60806040526001805460ff1916905534801561001a57600080fd5b5061026b8061002a6000396000f3fe608060405234801561001057600080fd5b50600436106100415760003560e01c80638335007514610046578063ababadb514610061578063ad10a13514610074575b600080fd5b60015460ff165b604051901515815260200160405180910390f35b61004d61006f3660046101c0565b610087565b61004d6100823660046101c0565b610199565b60008054815b8181101561018c57846001600160a01b0316600082815481106100b2576100b26101f8565b60009182526020909120600290910201546001600160a01b03161480156100fd5750600081815481106100e7576100e76101f8565b9060005260206000209060020201600101546000145b8061016a5750846001600160a01b031660008281548110610120576101206101f8565b60009182526020909120600290910201546001600160a01b031614801561016a57508360008281548110610156576101566101f8565b906000526020600020906002020160010154145b1561017a57600192505050610193565b806101848161020e565b91505061008d565b5060009150505b92915050565b60006101a58383610087565b156101b257506000610193565b5060015460ff161592915050565b600080604083850312156101d357600080fd5b82356001600160a01b03811681146101ea57600080fd5b946020939093013593505050565b634e487b7160e01b600052603260045260246000fd5b60006001820161022e57634e487b7160e01b600052601160045260246000fd5b506001019056fea26469706673582212205439c06f2642b28c695a9904f167f22ac4b4891b0651428ae8fb644edb01443164736f6c634300080d0033",
  "bytecodeSha1": "0f5d958bb63ae56f10785f00a3cbe88a14d96567",
  "compiler": {
    "evm_version": "istanbul",
    "optimizer": {
      "enabled": true,
      "runs": 200
    },
    "version": "0.8.13+commit.abaa5c0e"
  },
  "contractName": "ContractForbidder",
  "language": "Solidity",
  "natspec": {
    "kind": "dev",
    "methods": {},
    "version": 1
  },
  "opcodes": "PUSH1 0x80 PUSH1 0x40 MSTORE CALLVALUE DUP1 ISZERO PUSH2 0x10 JUMPI PUSH1 0x0 DUP1 REVERT JUMPDEST POP PUSH1 0x4 CALLDATASIZE LT PUSH2 0x41 JUMPI PUSH1 0x0 CALLDATALOAD PUSH1 0xE0 SHR DUP1 PUSH4 0x83350075 EQ PUSH2 0x46 JUMPI DUP1 PUSH4 0xABABADB5 EQ PUSH2 0x61 JUMPI DUP1 PUSH4 0xAD10A135 EQ PUSH2 0x74 JUMPI JUMPDEST PUSH1 0x0 DUP1 REVERT JUMPDEST PUSH1 0x1 SLOAD PUSH1 0xFF AND JUMPDEST PUSH1 0x40 MLOAD SWAP1 ISZERO ISZERO DUP2 MSTORE PUSH1 0x20 ADD PUSH1 0x40 MLOAD DUP1 SWAP2 SUB SWAP1 RETURN JUMPDEST PUSH2 0x4D PUSH2 0x6F CALLDATASIZE PUSH1 0x4 PUSH2 0x1C0 JUMP JUMPDEST PUSH2 0x87 JUMP JUMPDEST PUSH2 0x4D PUSH2 0x82 CALLDATASIZE PUSH1 0x4 PUSH2 0x1C0 JUMP JUMPDEST PUSH2 0x199 JUMP JUMPDEST PUSH1 0x0 DUP1 SLOAD DUP2 JUMPDEST DUP2 DUP2 LT ISZERO PUSH2 0x18C JUMPI DUP5 PUSH1 0x1 PUSH1 0x1 PUSH1 0xA0 SHL SUB AND PUSH1 0x0 DUP3 DUP2 SLOAD DUP2 LT PUSH2 0xB2 JUMPI PUSH2 0xB2 PUSH2 0x1F8 JUMP JUMPDEST PUSH1 0x0 SWAP2 DUP3 MSTORE PUSH1 0x20 SWAP1 SWAP2 KECCAK256 PUSH1 0x2 SWAP1 SWAP2 MUL ADD SLOAD PUSH1 0x1 PUSH1 0x1 PUSH1 0xA0 SHL SUB AND EQ DUP1 ISZERO PUSH2 0xFD JUMPI POP PUSH1 0x0 DUP2 DUP2 SLOAD DUP2 LT PUSH2 0xE7 JUMPI PUSH2 0xE7 PUSH2 0x1F8 JUMP JUMPDEST SWAP1 PUSH1 0x0 MSTORE PUSH1 0x20 PUSH1 0x0 KECCAK256 SWAP1 PUSH1 0x2 MUL ADD PUSH1 0x1 ADD SLOAD PUSH1 0x0 EQ JUMPDEST DUP1 PUSH2 0x16A JUMPI POP DUP5 PUSH1 0x1 PUSH1 0x1 PUSH1 0xA0 SHL SUB AND PUSH1 0x0 DUP3 DUP2 SLOAD DUP2 LT PUSH2 0x120 JUMPI PUSH2 0x120 PUSH2 0x1F8 JUMP JUMPDEST PUSH1 0x0 SWAP2 DUP3 MSTORE PUSH1 0x20 SWAP1 SWAP2 KECCAK256 PUSH1 0x2 SWAP1 SWAP2 MUL ADD SLOAD PUSH1 0x1 PUSH1 0x1 PUSH1 0xA0 SHL SUB AND EQ DUP1 ISZERO PUSH2 0x16A JUMPI POP DUP4 PUSH1 0x0 DUP3 DUP2 SLOAD DUP2 LT PUSH2 0x156 JUMPI PUSH2 0x156 PUSH2 0x1F8 JUMP JUMPDEST SWAP1 PUSH1 0x0 MSTORE PUSH1 0x20 PUSH1 0x0 KECCAK256 SWAP1 PUSH1 0x2 MUL ADD PUSH1 0x1 ADD SLOAD EQ JUMPDEST ISZERO PUSH2 0x17A JUMPI PUSH1 0x1 SWAP3 POP POP POP PUSH2 0x193 JUMP JUMPDEST DUP1 PUSH2 0x184 DUP2 PUSH2 0x20E JUMP JUMPDEST SWAP2 POP POP PUSH2 0x8D JUMP JUMPDEST POP PUSH1 0x0 SWAP2 POP POP JUMPDEST SWAP3 SWAP2 POP POP JUMP JUMPDEST PUSH1 0x0 PUSH2 0x1A5 DUP4 DUP4 PUSH2 0x87 JUMP JUMPDEST ISZERO PUSH2 0x1B2 JUMPI POP PUSH1 0x0 PUSH2 0x193 JUMP JUMPDEST POP PUSH1 0x1 SLOAD PUSH1 0xFF AND ISZERO SWAP3 SWAP2 POP POP JUMP JUMPDEST PUSH1 0x0 DUP1 PUSH1 0x40 DUP4 DUP6 SUB SLT ISZERO PUSH2 0x1D3 JUMPI PUSH1 0x0 DUP1 REVERT JUMPDEST DUP3 CALLDATALOAD PUSH1 0x1 PUSH1 0x1 PUSH1 0xA0 SHL SUB DUP2 AND DUP2 EQ PUSH2 0x1EA JUMPI PUSH1 0x0 DUP1 REVERT JUMPDEST SWAP5 PUSH1 0x20 SWAP4 SWAP1 SWAP4 ADD CALLDATALOAD SWAP4 POP POP POP JUMP JUMPDEST PUSH4 0x4E487B71 PUSH1 0xE0 SHL PUSH1 0x0 MSTORE PUSH1 0x32 PUSH1 0x4 MSTORE PUSH1 0x24 PUSH1 0x0 REVERT JUMPDEST PUSH1 0x0 PUSH1 0x1 DUP3 ADD PUSH2 0x22E JUMPI PUSH4 0x4E487B71 PUSH1 0xE0 SHL PUSH1 0x0 MSTORE PUSH1 0x11 PUSH1 0x4 MSTORE PUSH1 0x24 PUSH1 0x0 REVERT JUMPDEST POP PUSH1 0x1 ADD SWAP1 JUMP INVALID LOG2 PUSH5 0x6970667358 0x22 SLT KECCAK256 SLOAD CODECOPY 0xC0 PUSH16 0x2642B28C695A9904F167F22AC4B4891B MOD MLOAD TIMESTAMP DUP11 0xE8 0xFB PUSH5 0x4EDB014431 PUSH5 0x736F6C6343 STOP ADDMOD 0xD STOP CALLER ",
  "sha1": "0779ff486ca8758bd2c58a26828e71accde088ee",
  "source": "\n// SPDX-License-Identifier: MIT\n// Beef MarketPlace Contracts v0.0.0 hello@mcdu.com\n\npragma solidity ^0.8.0;\n\nimport \"./ContractCertified.sol\";\nimport \"./Certifiers.sol\";\nimport \"../Array.sol\";\n\n\ncontract ContractForbidder {\n    using Array for bytes32[];\n\n    SContractWithId[] private _forbidden;\n    bool private _forbiddenunknown = false;\n\n    function isContractForbiddenUnknown() virtual view public returns (bool) {\n        return _forbiddenunknown;\n    }\n    function _contractForbiddenUnknownChanged(bool forbiddenunknown_) internal virtual {}\n    function _contractForbiddenUnknownSet(bool forbiddenunknown_) internal returns (bool) {\n        if (_forbiddenunknown==forbiddenunknown_)\n            return false;\n        _forbiddenunknown=forbiddenunknown_;\n        _contractForbiddenUnknownChanged(_forbiddenunknown);\n        return true;\n    }\n    function _contractForbiddenAdded(address contractAddr_,uint256 contractId_) internal virtual {}\n\n    function _contractForbiddenRemoved(address contractAddr_,uint256 contractId_) internal virtual {}\n\n    function _contractForbiddenAdd(address contractAddr_,uint256 contractId_) internal returns (bool) {\n        uint len = _forbidden.length;\n        for (uint i ;i<len;i++)\n            if (_forbidden[i].contractAddr==contractAddr_&&_forbidden[i].contractId==0)\n                return false;\n        if (contractId_==0)\n        {\n            unchecked {\n                for (uint i=len-1;i<len;i--)\n                    if (_forbidden[i].contractAddr==contractAddr_)\n                        _contractForbiddenRemove(_forbidden[i].contractAddr,_forbidden[i].contractId);\n                \n            }\n        }\n        else\n        {\n            for (uint i;i<len;i++)\n                if (_forbidden[i].contractAddr==contractAddr_&&_forbidden[i].contractId==contractId_)\n                    return false;\n        }\n        _forbidden.push(SContractWithId(contractAddr_,contractId_));\n        _contractForbiddenAdded(contractAddr_,contractId_);\n        return true;\n    }\n\n    function _contractForbiddenRemove(address contractAddr_,uint256 contractId_) internal returns (bool) {\n        uint len = _forbidden.length;\n        for (uint i;i<len;i++)\n            if (_forbidden[i].contractAddr==contractAddr_&&_forbidden[i].contractId==contractId_)\n            {\n                if (i<len-1)\n                    _forbidden[i] = _forbidden[len-1];\n                _forbidden.pop();\n                _contractForbiddenRemoved(contractAddr_,contractId_);\n                return true;\n            }\n        return false;\n    }\n    function isContractForbidden(address contractAddr_,uint256 contractId_) public view virtual returns (bool) {\n        uint len = _forbidden.length;\n        for (uint i;i<len;i++)\n             if ((_forbidden[i].contractAddr==contractAddr_&&_forbidden[i].contractId==0) \n                ||\n                (_forbidden[i].contractAddr==contractAddr_&&_forbidden[i].contractId==contractId_))\n                return true;\n        return false;\n    }\n    function isContractAllowed(address contractAddr_,uint256 contractId_) public view virtual returns (bool) {\n        if (isContractForbidden(contractAddr_,contractId_))\n            return false;\n        return !_forbiddenunknown;\n    }\n\n}\n\ncontract ContractForbidderCertifier is ContractCertifier, Certifiers,ContractForbidder {\n    \n    function supportsInterface(bytes4 interfaceId)\n        public\n        view virtual override(ContractCertifier,Certifiers)\n        returns (bool)\n    {\n        return Certifiers.supportsInterface(interfaceId) || ContractCertifier.supportsInterface(interfaceId) ;\n    }\n\n    function isTrustedCertifier(address certifier_) public view virtual override(ContractCertifier,Certifiers) returns (bool)\n    {\n        return Certifiers.isTrustedCertifier(certifier_);\n    }\n\n    function isContractAllowed(address contractAddr_,uint256 contractId_) public view virtual override returns (bool) {\n        if (ContractForbidder.isContractForbidden(contractAddr_,contractId_))\n            return false;\n        if (isContractCertified(contractAddr_,contractId_))\n            return true;\n        return !isContractForbiddenUnknown();\n    }\n\n\n}",
  "sourcePath": "contracts/agnostic/Certified/CertifierAllower.sol",
  "type": "contract"
}