{
  "abi": [
    {
      "inputs": [
        {
          "internalType": "contract Repository",
          "name": "rep_",
          "type": "address"
        }
      ],
      "stateMutability": "nonpayable",
      "type": "constructor"
    },
    {
      "anonymous": false,
      "inputs": [
        {
          "indexed": true,
          "internalType": "address",
          "name": "previousOwner",
          "type": "address"
        },
        {
          "indexed": true,
          "internalType": "address",
          "name": "newOwner",
          "type": "address"
        }
      ],
      "name": "OwnershipTransferred",
      "type": "event"
    },
    {
      "stateMutability": "nonpayable",
      "type": "fallback"
    },
    {
      "inputs": [],
      "name": "STOP",
      "outputs": [
        {
          "internalType": "bool",
          "name": "",
          "type": "bool"
        }
      ],
      "stateMutability": "view",
      "type": "function"
    },
    {
      "inputs": [],
      "name": "STOPFOREVER",
      "outputs": [
        {
          "internalType": "bool",
          "name": "",
          "type": "bool"
        }
      ],
      "stateMutability": "view",
      "type": "function"
    },
    {
      "inputs": [
        {
          "internalType": "uint256",
          "name": "val_",
          "type": "uint256"
        }
      ],
      "name": "UInt256ToUInt32",
      "outputs": [
        {
          "internalType": "uint32",
          "name": "",
          "type": "uint32"
        }
      ],
      "stateMutability": "pure",
      "type": "function"
    },
    {
      "inputs": [
        {
          "internalType": "uint256",
          "name": "val_",
          "type": "uint256"
        }
      ],
      "name": "UInt256ToUInt48",
      "outputs": [
        {
          "internalType": "uint48",
          "name": "",
          "type": "uint48"
        }
      ],
      "stateMutability": "pure",
      "type": "function"
    },
    {
      "inputs": [
        {
          "internalType": "uint256",
          "name": "val_",
          "type": "uint256"
        }
      ],
      "name": "UInt256ToUInt64",
      "outputs": [
        {
          "internalType": "uint64",
          "name": "",
          "type": "uint64"
        }
      ],
      "stateMutability": "pure",
      "type": "function"
    },
    {
      "inputs": [
        {
          "internalType": "uint32",
          "name": "val_",
          "type": "uint32"
        }
      ],
      "name": "UInt32ToUInt256",
      "outputs": [
        {
          "internalType": "uint256",
          "name": "",
          "type": "uint256"
        }
      ],
      "stateMutability": "pure",
      "type": "function"
    },
    {
      "inputs": [
        {
          "internalType": "uint48",
          "name": "val_",
          "type": "uint48"
        }
      ],
      "name": "UInt48ToUInt256",
      "outputs": [
        {
          "internalType": "uint256",
          "name": "",
          "type": "uint256"
        }
      ],
      "stateMutability": "pure",
      "type": "function"
    },
    {
      "inputs": [
        {
          "internalType": "uint64",
          "name": "val_",
          "type": "uint64"
        }
      ],
      "name": "UInt64ToUInt256",
      "outputs": [
        {
          "internalType": "uint256",
          "name": "",
          "type": "uint256"
        }
      ],
      "stateMutability": "pure",
      "type": "function"
    },
    {
      "inputs": [
        {
          "internalType": "uint256[]",
          "name": "_delivery1",
          "type": "uint256[]"
        },
        {
          "internalType": "uint256[]",
          "name": "_delivery2",
          "type": "uint256[]"
        }
      ],
      "name": "deliveryCompatible",
      "outputs": [
        {
          "internalType": "bool",
          "name": "",
          "type": "bool"
        }
      ],
      "stateMutability": "pure",
      "type": "function"
    },
    {
      "inputs": [],
      "name": "id",
      "outputs": [
        {
          "internalType": "bytes32",
          "name": "",
          "type": "bytes32"
        }
      ],
      "stateMutability": "view",
      "type": "function"
    },
    {
      "inputs": [
        {
          "internalType": "address",
          "name": "caller_",
          "type": "address"
        }
      ],
      "name": "isOwner",
      "outputs": [
        {
          "internalType": "bool",
          "name": "",
          "type": "bool"
        }
      ],
      "stateMutability": "view",
      "type": "function"
    },
    {
      "inputs": [
        {
          "components": [
            {
              "internalType": "bytes32",
              "name": "fromto",
              "type": "bytes32"
            },
            {
              "internalType": "address",
              "name": "account",
              "type": "address"
            },
            {
              "internalType": "enum Order.State",
              "name": "state",
              "type": "uint8"
            },
            {
              "internalType": "uint8",
              "name": "options",
              "type": "uint8"
            },
            {
              "internalType": "uint256",
              "name": "orderid",
              "type": "uint256"
            },
            {
              "internalType": "uint64",
              "name": "qty",
              "type": "uint64"
            },
            {
              "internalType": "uint64",
              "name": "qtydone",
              "type": "uint64"
            },
            {
              "internalType": "uint64",
              "name": "originalqty",
              "type": "uint64"
            },
            {
              "internalType": "uint64",
              "name": "quote",
              "type": "uint64"
            },
            {
              "internalType": "uint64",
              "name": "granularity",
              "type": "uint64"
            },
            {
              "internalType": "uint64",
              "name": "originalquote",
              "type": "uint64"
            },
            {
              "internalType": "uint64",
              "name": "originalbasedquote",
              "type": "uint64"
            }
          ],
          "internalType": "struct Order.Info",
          "name": "_order",
          "type": "tuple"
        },
        {
          "internalType": "uint256[]",
          "name": "_delivery",
          "type": "uint256[]"
        }
      ],
      "name": "orderDeliveryCompatible",
      "outputs": [
        {
          "internalType": "bool",
          "name": "",
          "type": "bool"
        }
      ],
      "stateMutability": "pure",
      "type": "function"
    },
    {
      "inputs": [],
      "name": "owner",
      "outputs": [
        {
          "internalType": "address",
          "name": "",
          "type": "address"
        }
      ],
      "stateMutability": "view",
      "type": "function"
    },
    {
      "inputs": [],
      "name": "renounceOwnership",
      "outputs": [],
      "stateMutability": "nonpayable",
      "type": "function"
    },
    {
      "inputs": [],
      "name": "rep",
      "outputs": [
        {
          "internalType": "contract Repository",
          "name": "",
          "type": "address"
        }
      ],
      "stateMutability": "view",
      "type": "function"
    },
    {
      "inputs": [],
      "name": "setSTOP",
      "outputs": [],
      "stateMutability": "nonpayable",
      "type": "function"
    },
    {
      "inputs": [],
      "name": "setSTOPFOREVER",
      "outputs": [],
      "stateMutability": "nonpayable",
      "type": "function"
    },
    {
      "inputs": [
        {
          "internalType": "bytes4",
          "name": "interfaceId",
          "type": "bytes4"
        }
      ],
      "name": "supportsInterface",
      "outputs": [
        {
          "internalType": "bool",
          "name": "",
          "type": "bool"
        }
      ],
      "stateMutability": "view",
      "type": "function"
    },
    {
      "inputs": [
        {
          "internalType": "address",
          "name": "newOwner",
          "type": "address"
        }
      ],
      "name": "transferOwnership",
      "outputs": [],
      "stateMutability": "nonpayable",
      "type": "function"
    },
    {
      "inputs": [],
      "name": "unsetSTOP",
      "outputs": [],
      "stateMutability": "nonpayable",
      "type": "function"
    }
  ],
  "bytecode": "60a060405234801561001057600080fd5b50604051610d6b380380610d6b83398101604081905261002f916100a6565b806100393361004b565b6001600160a01b0316608052506100d6565b600080546001600160a01b038381166201000081810262010000600160b01b0319851617855560405193049190911692909183917f8be0079c531659141344cd1fd0a4f28419497f9722a3daafe3b4186f6b6457e091a35050565b6000602082840312156100b857600080fd5b81516001600160a01b03811681146100cf57600080fd5b9392505050565b608051610c6c6100ff60003960008181610330015281816103cf015261046d0152610c6c6000f3fe608060405234801561001057600080fd5b506004361061012c5760003560e01c8063854ba99d116100ad578063ccc0795911610071578063ccc079591461032b578063d693585814610352578063e4b161441461035a578063f2fde38b1461036d578063feab4454146103805761012c565b8063854ba99d146102af5780638da5cb5b146102b757806397962076146102e2578063af640d0f146102f2578063b03fd40d146103185761012c565b80635aca1641116100f45780635aca1641146102445780636296514114610252578063715018a61461027e57806372ea61bf146102865780637af6649a1461028e5761012c565b806301ffc9a7146101ae57806305d6bd9c146101d65780632203616d146101de5780632f54bf6e146102065780633b7e0d231461022e575b6101346103aa565b6000610144602460043684610812565b8080601f016020809104026020016040519081016040528093929190818152602001838380828437600092018290525060208501519495509250503660231981019150601f19016004838037816024600437600080826000875af4925050506101ac81610574565b005b6101c16101bc36600461083c565b61058a565b60405190151581526020015b60405180910390f35b6101ac6105c1565b6101f16101ec36600461086d565b6105d8565b60405163ffffffff90911681526020016101cd565b6101c16102143660046108a2565b6000546201000090046001600160a01b0390811691161490565b6101c161023c366004610998565b600192915050565b6101c161023c366004610a34565b61026561026036600461086d565b6105e9565b60405167ffffffffffffffff90911681526020016101cd565b6101ac61061b565b6101ac61062d565b6102a161029c366004610b46565b610647565b6040519081526020016101cd565b6101c1610660565b6000546201000090046001600160a01b03165b6040516001600160a01b0390911681526020016101cd565b600054610100900460ff166101c1565b7f33ffbdff3a4282df4353f3593b78d26aaf4c28b5786164f828858505bc5e301c6102a1565b6102a1610326366004610b6e565b61067e565b6102ca7f000000000000000000000000000000000000000000000000000000000000000081565b6101ac610699565b6102a1610368366004610b89565b6106b5565b6101ac61037b3660046108a2565b6106cc565b61039361038e36600461086d565b610745565b60405165ffffffffffff90911681526020016101cd565b6000546001600160a01b03620100009091041633148061045d57506001600160a01b037f0000000000000000000000000000000000000000000000000000000000000000166316279055336040516001600160e01b031960e084901b1681526001600160a01b039091166004820152602401602060405180830381865afa158015610439573d6000803e3d6000fd5b505050506040513d601f19601f8201168201806040525081019061045d9190610baf565b806104fb57506001600160a01b037f000000000000000000000000000000000000000000000000000000000000000016636d70f7ae336040516001600160e01b031960e084901b1681526001600160a01b039091166004820152602401602060405180830381865afa1580156104d7573d6000803e3d6000fd5b505050506040513d601f19601f820116820180604052508101906104fb9190610baf565b6105725760405162461bcd60e51b815260206004820152603960248201527f416c6c6f77616e63653a2063616c6c6572206d757374206265205265706f736960448201527f746f727920436f6e7472616374206f72204f70657261746f720000000000000060648201526084015b60405180910390fd5b565b3d6000803e808015610585573d6000f35b3d6000fd5b60006001600160e01b031982166301ffc9a760e01b14806105bb57506001600160e01b031982166315d3789560e31b145b92915050565b6105c96103aa565b6105726000805460ff19169055565b60006105bb64e8d4a5100083610bd1565b6000806105fb6402540be40084610bd1565b90508261060d826402540be400610bf3565b11156105bb576105bb610c20565b610623610756565b61057260006107b7565b6106356103aa565b6105726000805460ff19166001179055565b60006105bb65ffffffffffff831664174876e800610bf3565b6000805460ff16806106795750600054610100900460ff165b905090565b60006105bb67ffffffffffffffff83166402540be400610bf3565b6106a1610756565b6105726000805461ff001916610100179055565b60006105bb63ffffffff831664e8d4a51000610bf3565b6106d4610756565b6001600160a01b0381166107395760405162461bcd60e51b815260206004820152602660248201527f4f776e61626c653a206e6577206f776e657220697320746865207a65726f206160448201526564647265737360d01b6064820152608401610569565b610742816107b7565b50565b60006105bb64174876e80083610bd1565b6000546001600160a01b03620100009091041633146105725760405162461bcd60e51b815260206004820152601f60248201527f416c6c6f77616e63653a2063616c6c6572206d757374206265204f776e6572006044820152606401610569565b600080546001600160a01b038381166201000081810262010000600160b01b0319851617855560405193049190911692909183917f8be0079c531659141344cd1fd0a4f28419497f9722a3daafe3b4186f6b6457e091a35050565b6000808585111561082257600080fd5b8386111561082f57600080fd5b5050820193919092039150565b60006020828403121561084e57600080fd5b81356001600160e01b03198116811461086657600080fd5b9392505050565b60006020828403121561087f57600080fd5b5035919050565b80356001600160a01b038116811461089d57600080fd5b919050565b6000602082840312156108b457600080fd5b61086682610886565b634e487b7160e01b600052604160045260246000fd5b604051610180810167ffffffffffffffff811182821017156108f7576108f76108bd565b60405290565b600082601f83011261090e57600080fd5b8135602067ffffffffffffffff8083111561092b5761092b6108bd565b8260051b604051601f19603f83011681018181108482111715610950576109506108bd565b60405293845285810183019383810192508785111561096e57600080fd5b83870191505b8482101561098d57813583529183019190830190610974565b979650505050505050565b600080604083850312156109ab57600080fd5b823567ffffffffffffffff808211156109c357600080fd5b6109cf868387016108fd565b935060208501359150808211156109e557600080fd5b506109f2858286016108fd565b9150509250929050565b80356006811061089d57600080fd5b803560ff8116811461089d57600080fd5b803567ffffffffffffffff8116811461089d57600080fd5b6000808284036101a0811215610a4957600080fd5b61018080821215610a5957600080fd5b610a616108d3565b915084358252610a7360208601610886565b6020830152610a84604086016109fc565b6040830152610a9560608601610a0b565b606083015260808501356080830152610ab060a08601610a1c565b60a0830152610ac160c08601610a1c565b60c0830152610ad260e08601610a1c565b60e0830152610100610ae5818701610a1c565b90830152610120610af7868201610a1c565b90830152610140610b09868201610a1c565b90830152610160610b1b868201610a1c565b9083015290925083013567ffffffffffffffff811115610b3a57600080fd5b6109f2858286016108fd565b600060208284031215610b5857600080fd5b813565ffffffffffff8116811461086657600080fd5b600060208284031215610b8057600080fd5b61086682610a1c565b600060208284031215610b9b57600080fd5b813563ffffffff8116811461086657600080fd5b600060208284031215610bc157600080fd5b8151801515811461086657600080fd5b600082610bee57634e487b7160e01b600052601260045260246000fd5b500490565b6000816000190483118215151615610c1b57634e487b7160e01b600052601160045260246000fd5b500290565b634e487b7160e01b600052600160045260246000fdfea2646970667358221220e2b8327511d2d9a948cb2977ae5d1ebb30d91c6428d3edc194a97bbf3d71391a64736f6c634300080d0033",
  "bytecodeSha1": "452eccd5b7692d609b7ded862f08f5c40f2fffd4",
  "compiler": {
    "evm_version": "istanbul",
    "optimizer": {
      "enabled": true,
      "runs": 200
    },
    "version": "0.8.13+commit.abaa5c0e"
  },
  "contractName": "Delivery",
  "language": "Solidity",
  "natspec": {
    "kind": "dev",
    "methods": {
      "ownerOf()": {
        "details": "Returns the address of the current owner."
      },
      "renounceOwnership()": {
        "details": "Leaves the contract without owner. It will not be possible to call `onlyOwner` functions anymore. Can only be called by the current owner. NOTE: Renouncing ownership will leave the contract without an owner, thereby removing any functionality that is only available to the owner."
      },
      "supportsInterface(bytes4)": {
        "details": "Returns true if this contract implements the interface defined by `interfaceId`. See the corresponding https://eips.ethereum.org/EIPS/eip-165#how-interfaces-are-identified[EIP section] to learn more about how these ids are created. This function call must use less than 30 000 gas."
      },
      "transferOwnership(address)": {
        "details": "Transfers ownership of the contract to a new account (`newOwner`). Can only be called by the current owner."
      }
    },
    "version": 1
  },
  "opcodes": "PUSH1 0x80 PUSH1 0x40 MSTORE CALLVALUE DUP1 ISZERO PUSH2 0x10 JUMPI PUSH1 0x0 DUP1 REVERT JUMPDEST POP PUSH1 0x4 CALLDATASIZE LT PUSH2 0x12C JUMPI PUSH1 0x0 CALLDATALOAD PUSH1 0xE0 SHR DUP1 PUSH4 0x854BA99D GT PUSH2 0xAD JUMPI DUP1 PUSH4 0xCCC07959 GT PUSH2 0x71 JUMPI DUP1 PUSH4 0xCCC07959 EQ PUSH2 0x32B JUMPI DUP1 PUSH4 0xD6935858 EQ PUSH2 0x352 JUMPI DUP1 PUSH4 0xE4B16144 EQ PUSH2 0x35A JUMPI DUP1 PUSH4 0xF2FDE38B EQ PUSH2 0x36D JUMPI DUP1 PUSH4 0xFEAB4454 EQ PUSH2 0x380 JUMPI PUSH2 0x12C JUMP JUMPDEST DUP1 PUSH4 0x854BA99D EQ PUSH2 0x2AF JUMPI DUP1 PUSH4 0x8DA5CB5B EQ PUSH2 0x2B7 JUMPI DUP1 PUSH4 0x97962076 EQ PUSH2 0x2E2 JUMPI DUP1 PUSH4 0xAF640D0F EQ PUSH2 0x2F2 JUMPI DUP1 PUSH4 0xB03FD40D EQ PUSH2 0x318 JUMPI PUSH2 0x12C JUMP JUMPDEST DUP1 PUSH4 0x5ACA1641 GT PUSH2 0xF4 JUMPI DUP1 PUSH4 0x5ACA1641 EQ PUSH2 0x244 JUMPI DUP1 PUSH4 0x62965141 EQ PUSH2 0x252 JUMPI DUP1 PUSH4 0x715018A6 EQ PUSH2 0x27E JUMPI DUP1 PUSH4 0x72EA61BF EQ PUSH2 0x286 JUMPI DUP1 PUSH4 0x7AF6649A EQ PUSH2 0x28E JUMPI PUSH2 0x12C JUMP JUMPDEST DUP1 PUSH4 0x1FFC9A7 EQ PUSH2 0x1AE JUMPI DUP1 PUSH4 0x5D6BD9C EQ PUSH2 0x1D6 JUMPI DUP1 PUSH4 0x2203616D EQ PUSH2 0x1DE JUMPI DUP1 PUSH4 0x2F54BF6E EQ PUSH2 0x206 JUMPI DUP1 PUSH4 0x3B7E0D23 EQ PUSH2 0x22E JUMPI JUMPDEST PUSH2 0x134 PUSH2 0x3AA JUMP JUMPDEST PUSH1 0x0 PUSH2 0x144 PUSH1 0x24 PUSH1 0x4 CALLDATASIZE DUP5 PUSH2 0x812 JUMP JUMPDEST DUP1 DUP1 PUSH1 0x1F ADD PUSH1 0x20 DUP1 SWAP2 DIV MUL PUSH1 0x20 ADD PUSH1 0x40 MLOAD SWAP1 DUP2 ADD PUSH1 0x40 MSTORE DUP1 SWAP4 SWAP3 SWAP2 SWAP1 DUP2 DUP2 MSTORE PUSH1 0x20 ADD DUP4 DUP4 DUP1 DUP3 DUP5 CALLDATACOPY PUSH1 0x0 SWAP3 ADD DUP3 SWAP1 MSTORE POP PUSH1 0x20 DUP6 ADD MLOAD SWAP5 SWAP6 POP SWAP3 POP POP CALLDATASIZE PUSH1 0x23 NOT DUP2 ADD SWAP2 POP PUSH1 0x1F NOT ADD PUSH1 0x4 DUP4 DUP1 CALLDATACOPY DUP2 PUSH1 0x24 PUSH1 0x4 CALLDATACOPY PUSH1 0x0 DUP1 DUP3 PUSH1 0x0 DUP8 GAS DELEGATECALL SWAP3 POP POP POP PUSH2 0x1AC DUP2 PUSH2 0x574 JUMP JUMPDEST STOP JUMPDEST PUSH2 0x1C1 PUSH2 0x1BC CALLDATASIZE PUSH1 0x4 PUSH2 0x83C JUMP JUMPDEST PUSH2 0x58A JUMP JUMPDEST PUSH1 0x40 MLOAD SWAP1 ISZERO ISZERO DUP2 MSTORE PUSH1 0x20 ADD JUMPDEST PUSH1 0x40 MLOAD DUP1 SWAP2 SUB SWAP1 RETURN JUMPDEST PUSH2 0x1AC PUSH2 0x5C1 JUMP JUMPDEST PUSH2 0x1F1 PUSH2 0x1EC CALLDATASIZE PUSH1 0x4 PUSH2 0x86D JUMP JUMPDEST PUSH2 0x5D8 JUMP JUMPDEST PUSH1 0x40 MLOAD PUSH4 0xFFFFFFFF SWAP1 SWAP2 AND DUP2 MSTORE PUSH1 0x20 ADD PUSH2 0x1CD JUMP JUMPDEST PUSH2 0x1C1 PUSH2 0x214 CALLDATASIZE PUSH1 0x4 PUSH2 0x8A2 JUMP JUMPDEST PUSH1 0x0 SLOAD PUSH3 0x10000 SWAP1 DIV PUSH1 0x1 PUSH1 0x1 PUSH1 0xA0 SHL SUB SWAP1 DUP2 AND SWAP2 AND EQ SWAP1 JUMP JUMPDEST PUSH2 0x1C1 PUSH2 0x23C CALLDATASIZE PUSH1 0x4 PUSH2 0x998 JUMP JUMPDEST PUSH1 0x1 SWAP3 SWAP2 POP POP JUMP JUMPDEST PUSH2 0x1C1 PUSH2 0x23C CALLDATASIZE PUSH1 0x4 PUSH2 0xA34 JUMP JUMPDEST PUSH2 0x265 PUSH2 0x260 CALLDATASIZE PUSH1 0x4 PUSH2 0x86D JUMP JUMPDEST PUSH2 0x5E9 JUMP JUMPDEST PUSH1 0x40 MLOAD PUSH8 0xFFFFFFFFFFFFFFFF SWAP1 SWAP2 AND DUP2 MSTORE PUSH1 0x20 ADD PUSH2 0x1CD JUMP JUMPDEST PUSH2 0x1AC PUSH2 0x61B JUMP JUMPDEST PUSH2 0x1AC PUSH2 0x62D JUMP JUMPDEST PUSH2 0x2A1 PUSH2 0x29C CALLDATASIZE PUSH1 0x4 PUSH2 0xB46 JUMP JUMPDEST PUSH2 0x647 JUMP JUMPDEST PUSH1 0x40 MLOAD SWAP1 DUP2 MSTORE PUSH1 0x20 ADD PUSH2 0x1CD JUMP JUMPDEST PUSH2 0x1C1 PUSH2 0x660 JUMP JUMPDEST PUSH1 0x0 SLOAD PUSH3 0x10000 SWAP1 DIV PUSH1 0x1 PUSH1 0x1 PUSH1 0xA0 SHL SUB AND JUMPDEST PUSH1 0x40 MLOAD PUSH1 0x1 PUSH1 0x1 PUSH1 0xA0 SHL SUB SWAP1 SWAP2 AND DUP2 MSTORE PUSH1 0x20 ADD PUSH2 0x1CD JUMP JUMPDEST PUSH1 0x0 SLOAD PUSH2 0x100 SWAP1 DIV PUSH1 0xFF AND PUSH2 0x1C1 JUMP JUMPDEST PUSH32 0x33FFBDFF3A4282DF4353F3593B78D26AAF4C28B5786164F828858505BC5E301C PUSH2 0x2A1 JUMP JUMPDEST PUSH2 0x2A1 PUSH2 0x326 CALLDATASIZE PUSH1 0x4 PUSH2 0xB6E JUMP JUMPDEST PUSH2 0x67E JUMP JUMPDEST PUSH2 0x2CA PUSH32 0x0 DUP2 JUMP JUMPDEST PUSH2 0x1AC PUSH2 0x699 JUMP JUMPDEST PUSH2 0x2A1 PUSH2 0x368 CALLDATASIZE PUSH1 0x4 PUSH2 0xB89 JUMP JUMPDEST PUSH2 0x6B5 JUMP JUMPDEST PUSH2 0x1AC PUSH2 0x37B CALLDATASIZE PUSH1 0x4 PUSH2 0x8A2 JUMP JUMPDEST PUSH2 0x6CC JUMP JUMPDEST PUSH2 0x393 PUSH2 0x38E CALLDATASIZE PUSH1 0x4 PUSH2 0x86D JUMP JUMPDEST PUSH2 0x745 JUMP JUMPDEST PUSH1 0x40 MLOAD PUSH6 0xFFFFFFFFFFFF SWAP1 SWAP2 AND DUP2 MSTORE PUSH1 0x20 ADD PUSH2 0x1CD JUMP JUMPDEST PUSH1 0x0 SLOAD PUSH1 0x1 PUSH1 0x1 PUSH1 0xA0 SHL SUB PUSH3 0x10000 SWAP1 SWAP2 DIV AND CALLER EQ DUP1 PUSH2 0x45D JUMPI POP PUSH1 0x1 PUSH1 0x1 PUSH1 0xA0 SHL SUB PUSH32 0x0 AND PUSH4 0x16279055 CALLER PUSH1 0x40 MLOAD PUSH1 0x1 PUSH1 0x1 PUSH1 0xE0 SHL SUB NOT PUSH1 0xE0 DUP5 SWAP1 SHL AND DUP2 MSTORE PUSH1 0x1 PUSH1 0x1 PUSH1 0xA0 SHL SUB SWAP1 SWAP2 AND PUSH1 0x4 DUP3 ADD MSTORE PUSH1 0x24 ADD PUSH1 0x20 PUSH1 0x40 MLOAD DUP1 DUP4 SUB DUP2 DUP7 GAS STATICCALL ISZERO DUP1 ISZERO PUSH2 0x439 JUMPI RETURNDATASIZE PUSH1 0x0 DUP1 RETURNDATACOPY RETURNDATASIZE PUSH1 0x0 REVERT JUMPDEST POP POP POP POP PUSH1 0x40 MLOAD RETURNDATASIZE PUSH1 0x1F NOT PUSH1 0x1F DUP3 ADD AND DUP3 ADD DUP1 PUSH1 0x40 MSTORE POP DUP2 ADD SWAP1 PUSH2 0x45D SWAP2 SWAP1 PUSH2 0xBAF JUMP JUMPDEST DUP1 PUSH2 0x4FB JUMPI POP PUSH1 0x1 PUSH1 0x1 PUSH1 0xA0 SHL SUB PUSH32 0x0 AND PUSH4 0x6D70F7AE CALLER PUSH1 0x40 MLOAD PUSH1 0x1 PUSH1 0x1 PUSH1 0xE0 SHL SUB NOT PUSH1 0xE0 DUP5 SWAP1 SHL AND DUP2 MSTORE PUSH1 0x1 PUSH1 0x1 PUSH1 0xA0 SHL SUB SWAP1 SWAP2 AND PUSH1 0x4 DUP3 ADD MSTORE PUSH1 0x24 ADD PUSH1 0x20 PUSH1 0x40 MLOAD DUP1 DUP4 SUB DUP2 DUP7 GAS STATICCALL ISZERO DUP1 ISZERO PUSH2 0x4D7 JUMPI RETURNDATASIZE PUSH1 0x0 DUP1 RETURNDATACOPY RETURNDATASIZE PUSH1 0x0 REVERT JUMPDEST POP POP POP POP PUSH1 0x40 MLOAD RETURNDATASIZE PUSH1 0x1F NOT PUSH1 0x1F DUP3 ADD AND DUP3 ADD DUP1 PUSH1 0x40 MSTORE POP DUP2 ADD SWAP1 PUSH2 0x4FB SWAP2 SWAP1 PUSH2 0xBAF JUMP JUMPDEST PUSH2 0x572 JUMPI PUSH1 0x40 MLOAD PUSH3 0x461BCD PUSH1 0xE5 SHL DUP2 MSTORE PUSH1 0x20 PUSH1 0x4 DUP3 ADD MSTORE PUSH1 0x39 PUSH1 0x24 DUP3 ADD MSTORE PUSH32 0x416C6C6F77616E63653A2063616C6C6572206D757374206265205265706F7369 PUSH1 0x44 DUP3 ADD MSTORE PUSH32 0x746F727920436F6E7472616374206F72204F70657261746F7200000000000000 PUSH1 0x64 DUP3 ADD MSTORE PUSH1 0x84 ADD JUMPDEST PUSH1 0x40 MLOAD DUP1 SWAP2 SUB SWAP1 REVERT JUMPDEST JUMP JUMPDEST RETURNDATASIZE PUSH1 0x0 DUP1 RETURNDATACOPY DUP1 DUP1 ISZERO PUSH2 0x585 JUMPI RETURNDATASIZE PUSH1 0x0 RETURN JUMPDEST RETURNDATASIZE PUSH1 0x0 REVERT JUMPDEST PUSH1 0x0 PUSH1 0x1 PUSH1 0x1 PUSH1 0xE0 SHL SUB NOT DUP3 AND PUSH4 0x1FFC9A7 PUSH1 0xE0 SHL EQ DUP1 PUSH2 0x5BB JUMPI POP PUSH1 0x1 PUSH1 0x1 PUSH1 0xE0 SHL SUB NOT DUP3 AND PUSH4 0x15D37895 PUSH1 0xE3 SHL EQ JUMPDEST SWAP3 SWAP2 POP POP JUMP JUMPDEST PUSH2 0x5C9 PUSH2 0x3AA JUMP JUMPDEST PUSH2 0x572 PUSH1 0x0 DUP1 SLOAD PUSH1 0xFF NOT AND SWAP1 SSTORE JUMP JUMPDEST PUSH1 0x0 PUSH2 0x5BB PUSH5 0xE8D4A51000 DUP4 PUSH2 0xBD1 JUMP JUMPDEST PUSH1 0x0 DUP1 PUSH2 0x5FB PUSH5 0x2540BE400 DUP5 PUSH2 0xBD1 JUMP JUMPDEST SWAP1 POP DUP3 PUSH2 0x60D DUP3 PUSH5 0x2540BE400 PUSH2 0xBF3 JUMP JUMPDEST GT ISZERO PUSH2 0x5BB JUMPI PUSH2 0x5BB PUSH2 0xC20 JUMP JUMPDEST PUSH2 0x623 PUSH2 0x756 JUMP JUMPDEST PUSH2 0x572 PUSH1 0x0 PUSH2 0x7B7 JUMP JUMPDEST PUSH2 0x635 PUSH2 0x3AA JUMP JUMPDEST PUSH2 0x572 PUSH1 0x0 DUP1 SLOAD PUSH1 0xFF NOT AND PUSH1 0x1 OR SWAP1 SSTORE JUMP JUMPDEST PUSH1 0x0 PUSH2 0x5BB PUSH6 0xFFFFFFFFFFFF DUP4 AND PUSH5 0x174876E800 PUSH2 0xBF3 JUMP JUMPDEST PUSH1 0x0 DUP1 SLOAD PUSH1 0xFF AND DUP1 PUSH2 0x679 JUMPI POP PUSH1 0x0 SLOAD PUSH2 0x100 SWAP1 DIV PUSH1 0xFF AND JUMPDEST SWAP1 POP SWAP1 JUMP JUMPDEST PUSH1 0x0 PUSH2 0x5BB PUSH8 0xFFFFFFFFFFFFFFFF DUP4 AND PUSH5 0x2540BE400 PUSH2 0xBF3 JUMP JUMPDEST PUSH2 0x6A1 PUSH2 0x756 JUMP JUMPDEST PUSH2 0x572 PUSH1 0x0 DUP1 SLOAD PUSH2 0xFF00 NOT AND PUSH2 0x100 OR SWAP1 SSTORE JUMP JUMPDEST PUSH1 0x0 PUSH2 0x5BB PUSH4 0xFFFFFFFF DUP4 AND PUSH5 0xE8D4A51000 PUSH2 0xBF3 JUMP JUMPDEST PUSH2 0x6D4 PUSH2 0x756 JUMP JUMPDEST PUSH1 0x1 PUSH1 0x1 PUSH1 0xA0 SHL SUB DUP2 AND PUSH2 0x739 JUMPI PUSH1 0x40 MLOAD PUSH3 0x461BCD PUSH1 0xE5 SHL DUP2 MSTORE PUSH1 0x20 PUSH1 0x4 DUP3 ADD MSTORE PUSH1 0x26 PUSH1 0x24 DUP3 ADD MSTORE PUSH32 0x4F776E61626C653A206E6577206F776E657220697320746865207A65726F2061 PUSH1 0x44 DUP3 ADD MSTORE PUSH6 0x646472657373 PUSH1 0xD0 SHL PUSH1 0x64 DUP3 ADD MSTORE PUSH1 0x84 ADD PUSH2 0x569 JUMP JUMPDEST PUSH2 0x742 DUP2 PUSH2 0x7B7 JUMP JUMPDEST POP JUMP JUMPDEST PUSH1 0x0 PUSH2 0x5BB PUSH5 0x174876E800 DUP4 PUSH2 0xBD1 JUMP JUMPDEST PUSH1 0x0 SLOAD PUSH1 0x1 PUSH1 0x1 PUSH1 0xA0 SHL SUB PUSH3 0x10000 SWAP1 SWAP2 DIV AND CALLER EQ PUSH2 0x572 JUMPI PUSH1 0x40 MLOAD PUSH3 0x461BCD PUSH1 0xE5 SHL DUP2 MSTORE PUSH1 0x20 PUSH1 0x4 DUP3 ADD MSTORE PUSH1 0x1F PUSH1 0x24 DUP3 ADD MSTORE PUSH32 0x416C6C6F77616E63653A2063616C6C6572206D757374206265204F776E657200 PUSH1 0x44 DUP3 ADD MSTORE PUSH1 0x64 ADD PUSH2 0x569 JUMP JUMPDEST PUSH1 0x0 DUP1 SLOAD PUSH1 0x1 PUSH1 0x1 PUSH1 0xA0 SHL SUB DUP4 DUP2 AND PUSH3 0x10000 DUP2 DUP2 MUL PUSH3 0x10000 PUSH1 0x1 PUSH1 0xB0 SHL SUB NOT DUP6 AND OR DUP6 SSTORE PUSH1 0x40 MLOAD SWAP4 DIV SWAP2 SWAP1 SWAP2 AND SWAP3 SWAP1 SWAP2 DUP4 SWAP2 PUSH32 0x8BE0079C531659141344CD1FD0A4F28419497F9722A3DAAFE3B4186F6B6457E0 SWAP2 LOG3 POP POP JUMP JUMPDEST PUSH1 0x0 DUP1 DUP6 DUP6 GT ISZERO PUSH2 0x822 JUMPI PUSH1 0x0 DUP1 REVERT JUMPDEST DUP4 DUP7 GT ISZERO PUSH2 0x82F JUMPI PUSH1 0x0 DUP1 REVERT JUMPDEST POP POP DUP3 ADD SWAP4 SWAP2 SWAP1 SWAP3 SUB SWAP2 POP JUMP JUMPDEST PUSH1 0x0 PUSH1 0x20 DUP3 DUP5 SUB SLT ISZERO PUSH2 0x84E JUMPI PUSH1 0x0 DUP1 REVERT JUMPDEST DUP2 CALLDATALOAD PUSH1 0x1 PUSH1 0x1 PUSH1 0xE0 SHL SUB NOT DUP2 AND DUP2 EQ PUSH2 0x866 JUMPI PUSH1 0x0 DUP1 REVERT JUMPDEST SWAP4 SWAP3 POP POP POP JUMP JUMPDEST PUSH1 0x0 PUSH1 0x20 DUP3 DUP5 SUB SLT ISZERO PUSH2 0x87F JUMPI PUSH1 0x0 DUP1 REVERT JUMPDEST POP CALLDATALOAD SWAP2 SWAP1 POP JUMP JUMPDEST DUP1 CALLDATALOAD PUSH1 0x1 PUSH1 0x1 PUSH1 0xA0 SHL SUB DUP2 AND DUP2 EQ PUSH2 0x89D JUMPI PUSH1 0x0 DUP1 REVERT JUMPDEST SWAP2 SWAP1 POP JUMP JUMPDEST PUSH1 0x0 PUSH1 0x20 DUP3 DUP5 SUB SLT ISZERO PUSH2 0x8B4 JUMPI PUSH1 0x0 DUP1 REVERT JUMPDEST PUSH2 0x866 DUP3 PUSH2 0x886 JUMP JUMPDEST PUSH4 0x4E487B71 PUSH1 0xE0 SHL PUSH1 0x0 MSTORE PUSH1 0x41 PUSH1 0x4 MSTORE PUSH1 0x24 PUSH1 0x0 REVERT JUMPDEST PUSH1 0x40 MLOAD PUSH2 0x180 DUP2 ADD PUSH8 0xFFFFFFFFFFFFFFFF DUP2 GT DUP3 DUP3 LT OR ISZERO PUSH2 0x8F7 JUMPI PUSH2 0x8F7 PUSH2 0x8BD JUMP JUMPDEST PUSH1 0x40 MSTORE SWAP1 JUMP JUMPDEST PUSH1 0x0 DUP3 PUSH1 0x1F DUP4 ADD SLT PUSH2 0x90E JUMPI PUSH1 0x0 DUP1 REVERT JUMPDEST DUP2 CALLDATALOAD PUSH1 0x20 PUSH8 0xFFFFFFFFFFFFFFFF DUP1 DUP4 GT ISZERO PUSH2 0x92B JUMPI PUSH2 0x92B PUSH2 0x8BD JUMP JUMPDEST DUP3 PUSH1 0x5 SHL PUSH1 0x40 MLOAD PUSH1 0x1F NOT PUSH1 0x3F DUP4 ADD AND DUP2 ADD DUP2 DUP2 LT DUP5 DUP3 GT OR ISZERO PUSH2 0x950 JUMPI PUSH2 0x950 PUSH2 0x8BD JUMP JUMPDEST PUSH1 0x40 MSTORE SWAP4 DUP5 MSTORE DUP6 DUP2 ADD DUP4 ADD SWAP4 DUP4 DUP2 ADD SWAP3 POP DUP8 DUP6 GT ISZERO PUSH2 0x96E JUMPI PUSH1 0x0 DUP1 REVERT JUMPDEST DUP4 DUP8 ADD SWAP2 POP JUMPDEST DUP5 DUP3 LT ISZERO PUSH2 0x98D JUMPI DUP2 CALLDATALOAD DUP4 MSTORE SWAP2 DUP4 ADD SWAP2 SWAP1 DUP4 ADD SWAP1 PUSH2 0x974 JUMP JUMPDEST SWAP8 SWAP7 POP POP POP POP POP POP POP JUMP JUMPDEST PUSH1 0x0 DUP1 PUSH1 0x40 DUP4 DUP6 SUB SLT ISZERO PUSH2 0x9AB JUMPI PUSH1 0x0 DUP1 REVERT JUMPDEST DUP3 CALLDATALOAD PUSH8 0xFFFFFFFFFFFFFFFF DUP1 DUP3 GT ISZERO PUSH2 0x9C3 JUMPI PUSH1 0x0 DUP1 REVERT JUMPDEST PUSH2 0x9CF DUP7 DUP4 DUP8 ADD PUSH2 0x8FD JUMP JUMPDEST SWAP4 POP PUSH1 0x20 DUP6 ADD CALLDATALOAD SWAP2 POP DUP1 DUP3 GT ISZERO PUSH2 0x9E5 JUMPI PUSH1 0x0 DUP1 REVERT JUMPDEST POP PUSH2 0x9F2 DUP6 DUP3 DUP7 ADD PUSH2 0x8FD JUMP JUMPDEST SWAP2 POP POP SWAP3 POP SWAP3 SWAP1 POP JUMP JUMPDEST DUP1 CALLDATALOAD PUSH1 0x6 DUP2 LT PUSH2 0x89D JUMPI PUSH1 0x0 DUP1 REVERT JUMPDEST DUP1 CALLDATALOAD PUSH1 0xFF DUP2 AND DUP2 EQ PUSH2 0x89D JUMPI PUSH1 0x0 DUP1 REVERT JUMPDEST DUP1 CALLDATALOAD PUSH8 0xFFFFFFFFFFFFFFFF DUP2 AND DUP2 EQ PUSH2 0x89D JUMPI PUSH1 0x0 DUP1 REVERT JUMPDEST PUSH1 0x0 DUP1 DUP3 DUP5 SUB PUSH2 0x1A0 DUP2 SLT ISZERO PUSH2 0xA49 JUMPI PUSH1 0x0 DUP1 REVERT JUMPDEST PUSH2 0x180 DUP1 DUP3 SLT ISZERO PUSH2 0xA59 JUMPI PUSH1 0x0 DUP1 REVERT JUMPDEST PUSH2 0xA61 PUSH2 0x8D3 JUMP JUMPDEST SWAP2 POP DUP5 CALLDATALOAD DUP3 MSTORE PUSH2 0xA73 PUSH1 0x20 DUP7 ADD PUSH2 0x886 JUMP JUMPDEST PUSH1 0x20 DUP4 ADD MSTORE PUSH2 0xA84 PUSH1 0x40 DUP7 ADD PUSH2 0x9FC JUMP JUMPDEST PUSH1 0x40 DUP4 ADD MSTORE PUSH2 0xA95 PUSH1 0x60 DUP7 ADD PUSH2 0xA0B JUMP JUMPDEST PUSH1 0x60 DUP4 ADD MSTORE PUSH1 0x80 DUP6 ADD CALLDATALOAD PUSH1 0x80 DUP4 ADD MSTORE PUSH2 0xAB0 PUSH1 0xA0 DUP7 ADD PUSH2 0xA1C JUMP JUMPDEST PUSH1 0xA0 DUP4 ADD MSTORE PUSH2 0xAC1 PUSH1 0xC0 DUP7 ADD PUSH2 0xA1C JUMP JUMPDEST PUSH1 0xC0 DUP4 ADD MSTORE PUSH2 0xAD2 PUSH1 0xE0 DUP7 ADD PUSH2 0xA1C JUMP JUMPDEST PUSH1 0xE0 DUP4 ADD MSTORE PUSH2 0x100 PUSH2 0xAE5 DUP2 DUP8 ADD PUSH2 0xA1C JUMP JUMPDEST SWAP1 DUP4 ADD MSTORE PUSH2 0x120 PUSH2 0xAF7 DUP7 DUP3 ADD PUSH2 0xA1C JUMP JUMPDEST SWAP1 DUP4 ADD MSTORE PUSH2 0x140 PUSH2 0xB09 DUP7 DUP3 ADD PUSH2 0xA1C JUMP JUMPDEST SWAP1 DUP4 ADD MSTORE PUSH2 0x160 PUSH2 0xB1B DUP7 DUP3 ADD PUSH2 0xA1C JUMP JUMPDEST SWAP1 DUP4 ADD MSTORE SWAP1 SWAP3 POP DUP4 ADD CALLDATALOAD PUSH8 0xFFFFFFFFFFFFFFFF DUP2 GT ISZERO PUSH2 0xB3A JUMPI PUSH1 0x0 DUP1 REVERT JUMPDEST PUSH2 0x9F2 DUP6 DUP3 DUP7 ADD PUSH2 0x8FD JUMP JUMPDEST PUSH1 0x0 PUSH1 0x20 DUP3 DUP5 SUB SLT ISZERO PUSH2 0xB58 JUMPI PUSH1 0x0 DUP1 REVERT JUMPDEST DUP2 CALLDATALOAD PUSH6 0xFFFFFFFFFFFF DUP2 AND DUP2 EQ PUSH2 0x866 JUMPI PUSH1 0x0 DUP1 REVERT JUMPDEST PUSH1 0x0 PUSH1 0x20 DUP3 DUP5 SUB SLT ISZERO PUSH2 0xB80 JUMPI PUSH1 0x0 DUP1 REVERT JUMPDEST PUSH2 0x866 DUP3 PUSH2 0xA1C JUMP JUMPDEST PUSH1 0x0 PUSH1 0x20 DUP3 DUP5 SUB SLT ISZERO PUSH2 0xB9B JUMPI PUSH1 0x0 DUP1 REVERT JUMPDEST DUP2 CALLDATALOAD PUSH4 0xFFFFFFFF DUP2 AND DUP2 EQ PUSH2 0x866 JUMPI PUSH1 0x0 DUP1 REVERT JUMPDEST PUSH1 0x0 PUSH1 0x20 DUP3 DUP5 SUB SLT ISZERO PUSH2 0xBC1 JUMPI PUSH1 0x0 DUP1 REVERT JUMPDEST DUP2 MLOAD DUP1 ISZERO ISZERO DUP2 EQ PUSH2 0x866 JUMPI PUSH1 0x0 DUP1 REVERT JUMPDEST PUSH1 0x0 DUP3 PUSH2 0xBEE JUMPI PUSH4 0x4E487B71 PUSH1 0xE0 SHL PUSH1 0x0 MSTORE PUSH1 0x12 PUSH1 0x4 MSTORE PUSH1 0x24 PUSH1 0x0 REVERT JUMPDEST POP DIV SWAP1 JUMP JUMPDEST PUSH1 0x0 DUP2 PUSH1 0x0 NOT DIV DUP4 GT DUP3 ISZERO ISZERO AND ISZERO PUSH2 0xC1B JUMPI PUSH4 0x4E487B71 PUSH1 0xE0 SHL PUSH1 0x0 MSTORE PUSH1 0x11 PUSH1 0x4 MSTORE PUSH1 0x24 PUSH1 0x0 REVERT JUMPDEST POP MUL SWAP1 JUMP JUMPDEST PUSH4 0x4E487B71 PUSH1 0xE0 SHL PUSH1 0x0 MSTORE PUSH1 0x1 PUSH1 0x4 MSTORE PUSH1 0x24 PUSH1 0x0 REVERT INVALID LOG2 PUSH5 0x6970667358 0x22 SLT KECCAK256 0xE2 0xB8 ORIGIN PUSH22 0x11D2D9A948CB2977AE5D1EBB30D91C6428D3EDC194A9 PUSH28 0xBF3D71391A64736F6C634300080D0033000000000000000000000000 ",
  "sha1": "9f34b15bff0773c9429b148af46d1b779602543b",
  "source": "// SPDX-License-Identifier: MIT\n// Beef MarketPlace Contracts v0.0.0 hello@mcdu.com\n\npragma solidity ^0.8.0;\n\nimport \"../agnostic/Array.sol\";\nimport \"../Repository/Repository.sol\";\nimport \"../agnostic/UIntConverter.sol\";\nimport \"../Market/Order/Lib.sol\";\n\nbytes32 constant DELIVERY = keccak256(\"Delivery\");\n\ncontract Delivery is RepositoryContract, UIntConverter {\n\n    function id() public view returns (bytes32) {return DELIVERY;}\n\n\n    constructor(Repository rep_) RepositoryContract(rep_) {}\n\n    function orderDeliveryCompatible(\n        Order.Info memory _order,\n        uint256[] memory _delivery\n    ) public pure returns (bool) {\n        return true;\n    }\n\n    function deliveryCompatible(\n        uint256[] memory _delivery1,\n        uint256[] memory _delivery2\n    ) public pure returns (bool) {\n        return true;\n    }\n}\n",
  "sourcePath": "contracts/Delivery/Delivery.sol",
  "type": "contract"
}