{
  "abi": [
    {
      "inputs": [
        {
          "components": [
            {
              "internalType": "uint256",
              "name": "qty",
              "type": "uint256"
            },
            {
              "components": [
                {
                  "internalType": "uint256",
                  "name": "quotemin",
                  "type": "uint256"
                },
                {
                  "internalType": "uint256",
                  "name": "quoteavg",
                  "type": "uint256"
                },
                {
                  "internalType": "uint256",
                  "name": "quotemax",
                  "type": "uint256"
                }
              ],
              "internalType": "struct Quote",
              "name": "quote",
              "type": "tuple"
            },
            {
              "components": [
                {
                  "internalType": "bytes32[]",
                  "name": "path",
                  "type": "bytes32[]"
                },
                {
                  "internalType": "uint256",
                  "name": "qty",
                  "type": "uint256"
                },
                {
                  "components": [
                    {
                      "internalType": "uint256",
                      "name": "quotemin",
                      "type": "uint256"
                    },
                    {
                      "internalType": "uint256",
                      "name": "quoteavg",
                      "type": "uint256"
                    },
                    {
                      "internalType": "uint256",
                      "name": "quotemax",
                      "type": "uint256"
                    }
                  ],
                  "internalType": "struct Quote",
                  "name": "quote",
                  "type": "tuple"
                },
                {
                  "internalType": "uint256",
                  "name": "start",
                  "type": "uint256"
                },
                {
                  "internalType": "uint256",
                  "name": "count",
                  "type": "uint256"
                },
                {
                  "internalType": "uint256[]",
                  "name": "offset",
                  "type": "uint256[]"
                }
              ],
              "internalType": "struct SolutionSetDesc[]",
              "name": "descs",
              "type": "tuple[]"
            },
            {
              "components": [
                {
                  "internalType": "uint256",
                  "name": "orderid",
                  "type": "uint256"
                },
                {
                  "internalType": "bytes32",
                  "name": "addr",
                  "type": "bytes32"
                },
                {
                  "internalType": "uint256",
                  "name": "qty",
                  "type": "uint256"
                },
                {
                  "internalType": "uint256",
                  "name": "granularity",
                  "type": "uint256"
                },
                {
                  "internalType": "uint256",
                  "name": "quote",
                  "type": "uint256"
                },
                {
                  "internalType": "uint256[]",
                  "name": "delivery",
                  "type": "uint256[]"
                }
              ],
              "internalType": "struct Solution[]",
              "name": "solutions",
              "type": "tuple[]"
            }
          ],
          "internalType": "struct SolutionSet",
          "name": "set_",
          "type": "tuple"
        },
        {
          "components": [
            {
              "internalType": "bytes32[]",
              "name": "path",
              "type": "bytes32[]"
            },
            {
              "internalType": "uint256",
              "name": "qty",
              "type": "uint256"
            },
            {
              "components": [
                {
                  "internalType": "uint256",
                  "name": "quotemin",
                  "type": "uint256"
                },
                {
                  "internalType": "uint256",
                  "name": "quoteavg",
                  "type": "uint256"
                },
                {
                  "internalType": "uint256",
                  "name": "quotemax",
                  "type": "uint256"
                }
              ],
              "internalType": "struct Quote",
              "name": "quote",
              "type": "tuple"
            },
            {
              "internalType": "uint256",
              "name": "start",
              "type": "uint256"
            },
            {
              "internalType": "uint256",
              "name": "count",
              "type": "uint256"
            },
            {
              "internalType": "uint256[]",
              "name": "offset",
              "type": "uint256[]"
            }
          ],
          "internalType": "struct SolutionSetDesc",
          "name": "desc_",
          "type": "tuple"
        },
        {
          "components": [
            {
              "internalType": "uint256",
              "name": "orderid",
              "type": "uint256"
            },
            {
              "internalType": "bytes32",
              "name": "addr",
              "type": "bytes32"
            },
            {
              "internalType": "uint256",
              "name": "qty",
              "type": "uint256"
            },
            {
              "internalType": "uint256",
              "name": "granularity",
              "type": "uint256"
            },
            {
              "internalType": "uint256",
              "name": "quote",
              "type": "uint256"
            },
            {
              "internalType": "uint256[]",
              "name": "delivery",
              "type": "uint256[]"
            }
          ],
          "internalType": "struct Solution[]",
          "name": "solutions_",
          "type": "tuple[]"
        }
      ],
      "name": "add",
      "outputs": [
        {
          "components": [
            {
              "internalType": "uint256",
              "name": "qty",
              "type": "uint256"
            },
            {
              "components": [
                {
                  "internalType": "uint256",
                  "name": "quotemin",
                  "type": "uint256"
                },
                {
                  "internalType": "uint256",
                  "name": "quoteavg",
                  "type": "uint256"
                },
                {
                  "internalType": "uint256",
                  "name": "quotemax",
                  "type": "uint256"
                }
              ],
              "internalType": "struct Quote",
              "name": "quote",
              "type": "tuple"
            },
            {
              "components": [
                {
                  "internalType": "bytes32[]",
                  "name": "path",
                  "type": "bytes32[]"
                },
                {
                  "internalType": "uint256",
                  "name": "qty",
                  "type": "uint256"
                },
                {
                  "components": [
                    {
                      "internalType": "uint256",
                      "name": "quotemin",
                      "type": "uint256"
                    },
                    {
                      "internalType": "uint256",
                      "name": "quoteavg",
                      "type": "uint256"
                    },
                    {
                      "internalType": "uint256",
                      "name": "quotemax",
                      "type": "uint256"
                    }
                  ],
                  "internalType": "struct Quote",
                  "name": "quote",
                  "type": "tuple"
                },
                {
                  "internalType": "uint256",
                  "name": "start",
                  "type": "uint256"
                },
                {
                  "internalType": "uint256",
                  "name": "count",
                  "type": "uint256"
                },
                {
                  "internalType": "uint256[]",
                  "name": "offset",
                  "type": "uint256[]"
                }
              ],
              "internalType": "struct SolutionSetDesc[]",
              "name": "descs",
              "type": "tuple[]"
            },
            {
              "components": [
                {
                  "internalType": "uint256",
                  "name": "orderid",
                  "type": "uint256"
                },
                {
                  "internalType": "bytes32",
                  "name": "addr",
                  "type": "bytes32"
                },
                {
                  "internalType": "uint256",
                  "name": "qty",
                  "type": "uint256"
                },
                {
                  "internalType": "uint256",
                  "name": "granularity",
                  "type": "uint256"
                },
                {
                  "internalType": "uint256",
                  "name": "quote",
                  "type": "uint256"
                },
                {
                  "internalType": "uint256[]",
                  "name": "delivery",
                  "type": "uint256[]"
                }
              ],
              "internalType": "struct Solution[]",
              "name": "solutions",
              "type": "tuple[]"
            }
          ],
          "internalType": "struct SolutionSet",
          "name": "out_",
          "type": "tuple"
        }
      ],
      "stateMutability": "pure",
      "type": "function"
    },
    {
      "inputs": [
        {
          "components": [
            {
              "internalType": "uint256",
              "name": "qty",
              "type": "uint256"
            },
            {
              "components": [
                {
                  "internalType": "uint256",
                  "name": "quotemin",
                  "type": "uint256"
                },
                {
                  "internalType": "uint256",
                  "name": "quoteavg",
                  "type": "uint256"
                },
                {
                  "internalType": "uint256",
                  "name": "quotemax",
                  "type": "uint256"
                }
              ],
              "internalType": "struct Quote",
              "name": "quote",
              "type": "tuple"
            },
            {
              "components": [
                {
                  "internalType": "bytes32[]",
                  "name": "path",
                  "type": "bytes32[]"
                },
                {
                  "internalType": "uint256",
                  "name": "qty",
                  "type": "uint256"
                },
                {
                  "components": [
                    {
                      "internalType": "uint256",
                      "name": "quotemin",
                      "type": "uint256"
                    },
                    {
                      "internalType": "uint256",
                      "name": "quoteavg",
                      "type": "uint256"
                    },
                    {
                      "internalType": "uint256",
                      "name": "quotemax",
                      "type": "uint256"
                    }
                  ],
                  "internalType": "struct Quote",
                  "name": "quote",
                  "type": "tuple"
                },
                {
                  "internalType": "uint256",
                  "name": "start",
                  "type": "uint256"
                },
                {
                  "internalType": "uint256",
                  "name": "count",
                  "type": "uint256"
                },
                {
                  "internalType": "uint256[]",
                  "name": "offset",
                  "type": "uint256[]"
                }
              ],
              "internalType": "struct SolutionSetDesc[]",
              "name": "descs",
              "type": "tuple[]"
            },
            {
              "components": [
                {
                  "internalType": "uint256",
                  "name": "orderid",
                  "type": "uint256"
                },
                {
                  "internalType": "bytes32",
                  "name": "addr",
                  "type": "bytes32"
                },
                {
                  "internalType": "uint256",
                  "name": "qty",
                  "type": "uint256"
                },
                {
                  "internalType": "uint256",
                  "name": "granularity",
                  "type": "uint256"
                },
                {
                  "internalType": "uint256",
                  "name": "quote",
                  "type": "uint256"
                },
                {
                  "internalType": "uint256[]",
                  "name": "delivery",
                  "type": "uint256[]"
                }
              ],
              "internalType": "struct Solution[]",
              "name": "solutions",
              "type": "tuple[]"
            }
          ],
          "internalType": "struct SolutionSet",
          "name": "set_",
          "type": "tuple"
        },
        {
          "components": [
            {
              "internalType": "uint256",
              "name": "qty",
              "type": "uint256"
            },
            {
              "components": [
                {
                  "internalType": "uint256",
                  "name": "quotemin",
                  "type": "uint256"
                },
                {
                  "internalType": "uint256",
                  "name": "quoteavg",
                  "type": "uint256"
                },
                {
                  "internalType": "uint256",
                  "name": "quotemax",
                  "type": "uint256"
                }
              ],
              "internalType": "struct Quote",
              "name": "quote",
              "type": "tuple"
            },
            {
              "components": [
                {
                  "internalType": "bytes32[]",
                  "name": "path",
                  "type": "bytes32[]"
                },
                {
                  "internalType": "uint256",
                  "name": "qty",
                  "type": "uint256"
                },
                {
                  "components": [
                    {
                      "internalType": "uint256",
                      "name": "quotemin",
                      "type": "uint256"
                    },
                    {
                      "internalType": "uint256",
                      "name": "quoteavg",
                      "type": "uint256"
                    },
                    {
                      "internalType": "uint256",
                      "name": "quotemax",
                      "type": "uint256"
                    }
                  ],
                  "internalType": "struct Quote",
                  "name": "quote",
                  "type": "tuple"
                },
                {
                  "internalType": "uint256",
                  "name": "start",
                  "type": "uint256"
                },
                {
                  "internalType": "uint256",
                  "name": "count",
                  "type": "uint256"
                },
                {
                  "internalType": "uint256[]",
                  "name": "offset",
                  "type": "uint256[]"
                }
              ],
              "internalType": "struct SolutionSetDesc[]",
              "name": "descs",
              "type": "tuple[]"
            },
            {
              "components": [
                {
                  "internalType": "uint256",
                  "name": "orderid",
                  "type": "uint256"
                },
                {
                  "internalType": "bytes32",
                  "name": "addr",
                  "type": "bytes32"
                },
                {
                  "internalType": "uint256",
                  "name": "qty",
                  "type": "uint256"
                },
                {
                  "internalType": "uint256",
                  "name": "granularity",
                  "type": "uint256"
                },
                {
                  "internalType": "uint256",
                  "name": "quote",
                  "type": "uint256"
                },
                {
                  "internalType": "uint256[]",
                  "name": "delivery",
                  "type": "uint256[]"
                }
              ],
              "internalType": "struct Solution[]",
              "name": "solutions",
              "type": "tuple[]"
            }
          ],
          "internalType": "struct SolutionSet",
          "name": "from_",
          "type": "tuple"
        }
      ],
      "name": "add",
      "outputs": [
        {
          "components": [
            {
              "internalType": "uint256",
              "name": "qty",
              "type": "uint256"
            },
            {
              "components": [
                {
                  "internalType": "uint256",
                  "name": "quotemin",
                  "type": "uint256"
                },
                {
                  "internalType": "uint256",
                  "name": "quoteavg",
                  "type": "uint256"
                },
                {
                  "internalType": "uint256",
                  "name": "quotemax",
                  "type": "uint256"
                }
              ],
              "internalType": "struct Quote",
              "name": "quote",
              "type": "tuple"
            },
            {
              "components": [
                {
                  "internalType": "bytes32[]",
                  "name": "path",
                  "type": "bytes32[]"
                },
                {
                  "internalType": "uint256",
                  "name": "qty",
                  "type": "uint256"
                },
                {
                  "components": [
                    {
                      "internalType": "uint256",
                      "name": "quotemin",
                      "type": "uint256"
                    },
                    {
                      "internalType": "uint256",
                      "name": "quoteavg",
                      "type": "uint256"
                    },
                    {
                      "internalType": "uint256",
                      "name": "quotemax",
                      "type": "uint256"
                    }
                  ],
                  "internalType": "struct Quote",
                  "name": "quote",
                  "type": "tuple"
                },
                {
                  "internalType": "uint256",
                  "name": "start",
                  "type": "uint256"
                },
                {
                  "internalType": "uint256",
                  "name": "count",
                  "type": "uint256"
                },
                {
                  "internalType": "uint256[]",
                  "name": "offset",
                  "type": "uint256[]"
                }
              ],
              "internalType": "struct SolutionSetDesc[]",
              "name": "descs",
              "type": "tuple[]"
            },
            {
              "components": [
                {
                  "internalType": "uint256",
                  "name": "orderid",
                  "type": "uint256"
                },
                {
                  "internalType": "bytes32",
                  "name": "addr",
                  "type": "bytes32"
                },
                {
                  "internalType": "uint256",
                  "name": "qty",
                  "type": "uint256"
                },
                {
                  "internalType": "uint256",
                  "name": "granularity",
                  "type": "uint256"
                },
                {
                  "internalType": "uint256",
                  "name": "quote",
                  "type": "uint256"
                },
                {
                  "internalType": "uint256[]",
                  "name": "delivery",
                  "type": "uint256[]"
                }
              ],
              "internalType": "struct Solution[]",
              "name": "solutions",
              "type": "tuple[]"
            }
          ],
          "internalType": "struct SolutionSet",
          "name": "out_",
          "type": "tuple"
        }
      ],
      "stateMutability": "pure",
      "type": "function"
    },
    {
      "inputs": [
        {
          "components": [
            {
              "internalType": "uint256",
              "name": "orderid",
              "type": "uint256"
            },
            {
              "internalType": "bytes32",
              "name": "addr",
              "type": "bytes32"
            },
            {
              "internalType": "uint256",
              "name": "qty",
              "type": "uint256"
            },
            {
              "internalType": "uint256",
              "name": "granularity",
              "type": "uint256"
            },
            {
              "internalType": "uint256",
              "name": "quote",
              "type": "uint256"
            },
            {
              "internalType": "uint256[]",
              "name": "delivery",
              "type": "uint256[]"
            }
          ],
          "internalType": "struct Solution[]",
          "name": "sols_",
          "type": "tuple[]"
        },
        {
          "components": [
            {
              "internalType": "uint256",
              "name": "orderid",
              "type": "uint256"
            },
            {
              "internalType": "bytes32",
              "name": "addr",
              "type": "bytes32"
            },
            {
              "internalType": "uint256",
              "name": "qty",
              "type": "uint256"
            },
            {
              "internalType": "uint256",
              "name": "granularity",
              "type": "uint256"
            },
            {
              "internalType": "uint256",
              "name": "quote",
              "type": "uint256"
            },
            {
              "internalType": "uint256[]",
              "name": "delivery",
              "type": "uint256[]"
            }
          ],
          "internalType": "struct Solution[]",
          "name": "sol_",
          "type": "tuple[]"
        }
      ],
      "name": "add",
      "outputs": [
        {
          "components": [
            {
              "internalType": "uint256",
              "name": "orderid",
              "type": "uint256"
            },
            {
              "internalType": "bytes32",
              "name": "addr",
              "type": "bytes32"
            },
            {
              "internalType": "uint256",
              "name": "qty",
              "type": "uint256"
            },
            {
              "internalType": "uint256",
              "name": "granularity",
              "type": "uint256"
            },
            {
              "internalType": "uint256",
              "name": "quote",
              "type": "uint256"
            },
            {
              "internalType": "uint256[]",
              "name": "delivery",
              "type": "uint256[]"
            }
          ],
          "internalType": "struct Solution[]",
          "name": "out_",
          "type": "tuple[]"
        }
      ],
      "stateMutability": "pure",
      "type": "function"
    },
    {
      "inputs": [
        {
          "components": [
            {
              "internalType": "bytes32",
              "name": "currency",
              "type": "bytes32"
            },
            {
              "internalType": "uint256",
              "name": "qty",
              "type": "uint256"
            }
          ],
          "internalType": "struct Remainer[]",
          "name": "remainer_",
          "type": "tuple[]"
        },
        {
          "internalType": "bytes32",
          "name": "currency_",
          "type": "bytes32"
        },
        {
          "internalType": "uint256",
          "name": "qty_",
          "type": "uint256"
        }
      ],
      "name": "add",
      "outputs": [
        {
          "components": [
            {
              "internalType": "bytes32",
              "name": "currency",
              "type": "bytes32"
            },
            {
              "internalType": "uint256",
              "name": "qty",
              "type": "uint256"
            }
          ],
          "internalType": "struct Remainer[]",
          "name": "out_",
          "type": "tuple[]"
        }
      ],
      "stateMutability": "pure",
      "type": "function"
    },
    {
      "inputs": [
        {
          "components": [
            {
              "internalType": "uint256",
              "name": "orderid",
              "type": "uint256"
            },
            {
              "internalType": "bytes32",
              "name": "addr",
              "type": "bytes32"
            },
            {
              "internalType": "uint256",
              "name": "qty",
              "type": "uint256"
            },
            {
              "internalType": "uint256",
              "name": "granularity",
              "type": "uint256"
            },
            {
              "internalType": "uint256",
              "name": "quote",
              "type": "uint256"
            },
            {
              "internalType": "uint256[]",
              "name": "delivery",
              "type": "uint256[]"
            }
          ],
          "internalType": "struct Solution[]",
          "name": "sols_",
          "type": "tuple[]"
        },
        {
          "components": [
            {
              "internalType": "uint256",
              "name": "orderid",
              "type": "uint256"
            },
            {
              "internalType": "bytes32",
              "name": "addr",
              "type": "bytes32"
            },
            {
              "internalType": "uint256",
              "name": "qty",
              "type": "uint256"
            },
            {
              "internalType": "uint256",
              "name": "granularity",
              "type": "uint256"
            },
            {
              "internalType": "uint256",
              "name": "quote",
              "type": "uint256"
            },
            {
              "internalType": "uint256[]",
              "name": "delivery",
              "type": "uint256[]"
            }
          ],
          "internalType": "struct Solution",
          "name": "sol_",
          "type": "tuple"
        }
      ],
      "name": "add",
      "outputs": [
        {
          "components": [
            {
              "internalType": "uint256",
              "name": "orderid",
              "type": "uint256"
            },
            {
              "internalType": "bytes32",
              "name": "addr",
              "type": "bytes32"
            },
            {
              "internalType": "uint256",
              "name": "qty",
              "type": "uint256"
            },
            {
              "internalType": "uint256",
              "name": "granularity",
              "type": "uint256"
            },
            {
              "internalType": "uint256",
              "name": "quote",
              "type": "uint256"
            },
            {
              "internalType": "uint256[]",
              "name": "delivery",
              "type": "uint256[]"
            }
          ],
          "internalType": "struct Solution[]",
          "name": "out_",
          "type": "tuple[]"
        }
      ],
      "stateMutability": "pure",
      "type": "function"
    },
    {
      "inputs": [
        {
          "components": [
            {
              "internalType": "uint256",
              "name": "orderid",
              "type": "uint256"
            },
            {
              "internalType": "bytes32",
              "name": "addr",
              "type": "bytes32"
            },
            {
              "internalType": "uint256",
              "name": "qty",
              "type": "uint256"
            },
            {
              "internalType": "uint256",
              "name": "granularity",
              "type": "uint256"
            },
            {
              "internalType": "uint256",
              "name": "quote",
              "type": "uint256"
            },
            {
              "internalType": "uint256[]",
              "name": "delivery",
              "type": "uint256[]"
            }
          ],
          "internalType": "struct Solution[]",
          "name": "sol1_",
          "type": "tuple[]"
        },
        {
          "components": [
            {
              "internalType": "uint256",
              "name": "orderid",
              "type": "uint256"
            },
            {
              "internalType": "bytes32",
              "name": "addr",
              "type": "bytes32"
            },
            {
              "internalType": "uint256",
              "name": "qty",
              "type": "uint256"
            },
            {
              "internalType": "uint256",
              "name": "granularity",
              "type": "uint256"
            },
            {
              "internalType": "uint256",
              "name": "quote",
              "type": "uint256"
            },
            {
              "internalType": "uint256[]",
              "name": "delivery",
              "type": "uint256[]"
            }
          ],
          "internalType": "struct Solution[]",
          "name": "sol2_",
          "type": "tuple[]"
        }
      ],
      "name": "combine",
      "outputs": [
        {
          "components": [
            {
              "internalType": "uint256",
              "name": "orderid",
              "type": "uint256"
            },
            {
              "internalType": "bytes32",
              "name": "addr",
              "type": "bytes32"
            },
            {
              "internalType": "uint256",
              "name": "qty",
              "type": "uint256"
            },
            {
              "internalType": "uint256",
              "name": "granularity",
              "type": "uint256"
            },
            {
              "internalType": "uint256",
              "name": "quote",
              "type": "uint256"
            },
            {
              "internalType": "uint256[]",
              "name": "delivery",
              "type": "uint256[]"
            }
          ],
          "internalType": "struct Solution[]",
          "name": "out_",
          "type": "tuple[]"
        }
      ],
      "stateMutability": "pure",
      "type": "function"
    },
    {
      "inputs": [
        {
          "components": [
            {
              "internalType": "bytes32[]",
              "name": "path",
              "type": "bytes32[]"
            },
            {
              "internalType": "uint256",
              "name": "qty",
              "type": "uint256"
            },
            {
              "components": [
                {
                  "internalType": "uint256",
                  "name": "quotemin",
                  "type": "uint256"
                },
                {
                  "internalType": "uint256",
                  "name": "quoteavg",
                  "type": "uint256"
                },
                {
                  "internalType": "uint256",
                  "name": "quotemax",
                  "type": "uint256"
                }
              ],
              "internalType": "struct Quote",
              "name": "quote",
              "type": "tuple"
            },
            {
              "internalType": "uint256",
              "name": "start",
              "type": "uint256"
            },
            {
              "internalType": "uint256",
              "name": "count",
              "type": "uint256"
            },
            {
              "internalType": "uint256[]",
              "name": "offset",
              "type": "uint256[]"
            }
          ],
          "internalType": "struct SolutionSetDesc",
          "name": "desc_",
          "type": "tuple"
        },
        {
          "components": [
            {
              "internalType": "uint256",
              "name": "orderid",
              "type": "uint256"
            },
            {
              "internalType": "bytes32",
              "name": "addr",
              "type": "bytes32"
            },
            {
              "internalType": "uint256",
              "name": "qty",
              "type": "uint256"
            },
            {
              "internalType": "uint256",
              "name": "granularity",
              "type": "uint256"
            },
            {
              "internalType": "uint256",
              "name": "quote",
              "type": "uint256"
            },
            {
              "internalType": "uint256[]",
              "name": "delivery",
              "type": "uint256[]"
            }
          ],
          "internalType": "struct Solution[]",
          "name": "solutions_",
          "type": "tuple[]"
        }
      ],
      "name": "create",
      "outputs": [
        {
          "components": [
            {
              "internalType": "uint256",
              "name": "qty",
              "type": "uint256"
            },
            {
              "components": [
                {
                  "internalType": "uint256",
                  "name": "quotemin",
                  "type": "uint256"
                },
                {
                  "internalType": "uint256",
                  "name": "quoteavg",
                  "type": "uint256"
                },
                {
                  "internalType": "uint256",
                  "name": "quotemax",
                  "type": "uint256"
                }
              ],
              "internalType": "struct Quote",
              "name": "quote",
              "type": "tuple"
            },
            {
              "components": [
                {
                  "internalType": "bytes32[]",
                  "name": "path",
                  "type": "bytes32[]"
                },
                {
                  "internalType": "uint256",
                  "name": "qty",
                  "type": "uint256"
                },
                {
                  "components": [
                    {
                      "internalType": "uint256",
                      "name": "quotemin",
                      "type": "uint256"
                    },
                    {
                      "internalType": "uint256",
                      "name": "quoteavg",
                      "type": "uint256"
                    },
                    {
                      "internalType": "uint256",
                      "name": "quotemax",
                      "type": "uint256"
                    }
                  ],
                  "internalType": "struct Quote",
                  "name": "quote",
                  "type": "tuple"
                },
                {
                  "internalType": "uint256",
                  "name": "start",
                  "type": "uint256"
                },
                {
                  "internalType": "uint256",
                  "name": "count",
                  "type": "uint256"
                },
                {
                  "internalType": "uint256[]",
                  "name": "offset",
                  "type": "uint256[]"
                }
              ],
              "internalType": "struct SolutionSetDesc[]",
              "name": "descs",
              "type": "tuple[]"
            },
            {
              "components": [
                {
                  "internalType": "uint256",
                  "name": "orderid",
                  "type": "uint256"
                },
                {
                  "internalType": "bytes32",
                  "name": "addr",
                  "type": "bytes32"
                },
                {
                  "internalType": "uint256",
                  "name": "qty",
                  "type": "uint256"
                },
                {
                  "internalType": "uint256",
                  "name": "granularity",
                  "type": "uint256"
                },
                {
                  "internalType": "uint256",
                  "name": "quote",
                  "type": "uint256"
                },
                {
                  "internalType": "uint256[]",
                  "name": "delivery",
                  "type": "uint256[]"
                }
              ],
              "internalType": "struct Solution[]",
              "name": "solutions",
              "type": "tuple[]"
            }
          ],
          "internalType": "struct SolutionSet",
          "name": "out_",
          "type": "tuple"
        }
      ],
      "stateMutability": "pure",
      "type": "function"
    },
    {
      "inputs": [
        {
          "components": [
            {
              "internalType": "bytes32[]",
              "name": "path",
              "type": "bytes32[]"
            },
            {
              "internalType": "uint256",
              "name": "qty",
              "type": "uint256"
            },
            {
              "components": [
                {
                  "internalType": "uint256",
                  "name": "quotemin",
                  "type": "uint256"
                },
                {
                  "internalType": "uint256",
                  "name": "quoteavg",
                  "type": "uint256"
                },
                {
                  "internalType": "uint256",
                  "name": "quotemax",
                  "type": "uint256"
                }
              ],
              "internalType": "struct Quote",
              "name": "quote",
              "type": "tuple"
            },
            {
              "internalType": "uint256",
              "name": "start",
              "type": "uint256"
            },
            {
              "internalType": "uint256",
              "name": "count",
              "type": "uint256"
            },
            {
              "internalType": "uint256[]",
              "name": "offset",
              "type": "uint256[]"
            }
          ],
          "internalType": "struct SolutionSetDesc",
          "name": "in_",
          "type": "tuple"
        },
        {
          "components": [
            {
              "internalType": "uint256",
              "name": "orderid",
              "type": "uint256"
            },
            {
              "internalType": "bytes32",
              "name": "addr",
              "type": "bytes32"
            },
            {
              "internalType": "uint256",
              "name": "qty",
              "type": "uint256"
            },
            {
              "internalType": "uint256",
              "name": "granularity",
              "type": "uint256"
            },
            {
              "internalType": "uint256",
              "name": "quote",
              "type": "uint256"
            },
            {
              "internalType": "uint256[]",
              "name": "delivery",
              "type": "uint256[]"
            }
          ],
          "internalType": "struct Solution[]",
          "name": "solin_",
          "type": "tuple[]"
        },
        {
          "internalType": "bytes32",
          "name": "currency_",
          "type": "bytes32"
        },
        {
          "components": [
            {
              "internalType": "uint256",
              "name": "orderid",
              "type": "uint256"
            },
            {
              "internalType": "bytes32",
              "name": "addr",
              "type": "bytes32"
            },
            {
              "internalType": "uint256",
              "name": "qty",
              "type": "uint256"
            },
            {
              "internalType": "uint256",
              "name": "granularity",
              "type": "uint256"
            },
            {
              "internalType": "uint256",
              "name": "quote",
              "type": "uint256"
            },
            {
              "internalType": "uint256[]",
              "name": "delivery",
              "type": "uint256[]"
            }
          ],
          "internalType": "struct Solution[]",
          "name": "sol_",
          "type": "tuple[]"
        }
      ],
      "name": "descAddOffset",
      "outputs": [
        {
          "components": [
            {
              "internalType": "bytes32[]",
              "name": "path",
              "type": "bytes32[]"
            },
            {
              "internalType": "uint256",
              "name": "qty",
              "type": "uint256"
            },
            {
              "components": [
                {
                  "internalType": "uint256",
                  "name": "quotemin",
                  "type": "uint256"
                },
                {
                  "internalType": "uint256",
                  "name": "quoteavg",
                  "type": "uint256"
                },
                {
                  "internalType": "uint256",
                  "name": "quotemax",
                  "type": "uint256"
                }
              ],
              "internalType": "struct Quote",
              "name": "quote",
              "type": "tuple"
            },
            {
              "internalType": "uint256",
              "name": "start",
              "type": "uint256"
            },
            {
              "internalType": "uint256",
              "name": "count",
              "type": "uint256"
            },
            {
              "internalType": "uint256[]",
              "name": "offset",
              "type": "uint256[]"
            }
          ],
          "internalType": "struct SolutionSetDesc",
          "name": "out_",
          "type": "tuple"
        },
        {
          "components": [
            {
              "internalType": "uint256",
              "name": "orderid",
              "type": "uint256"
            },
            {
              "internalType": "bytes32",
              "name": "addr",
              "type": "bytes32"
            },
            {
              "internalType": "uint256",
              "name": "qty",
              "type": "uint256"
            },
            {
              "internalType": "uint256",
              "name": "granularity",
              "type": "uint256"
            },
            {
              "internalType": "uint256",
              "name": "quote",
              "type": "uint256"
            },
            {
              "internalType": "uint256[]",
              "name": "delivery",
              "type": "uint256[]"
            }
          ],
          "internalType": "struct Solution[]",
          "name": "solout_",
          "type": "tuple[]"
        }
      ],
      "stateMutability": "pure",
      "type": "function"
    },
    {
      "inputs": [
        {
          "components": [
            {
              "internalType": "bytes32[]",
              "name": "path",
              "type": "bytes32[]"
            },
            {
              "internalType": "uint256",
              "name": "qty",
              "type": "uint256"
            },
            {
              "components": [
                {
                  "internalType": "uint256",
                  "name": "quotemin",
                  "type": "uint256"
                },
                {
                  "internalType": "uint256",
                  "name": "quoteavg",
                  "type": "uint256"
                },
                {
                  "internalType": "uint256",
                  "name": "quotemax",
                  "type": "uint256"
                }
              ],
              "internalType": "struct Quote",
              "name": "quote",
              "type": "tuple"
            },
            {
              "internalType": "uint256",
              "name": "start",
              "type": "uint256"
            },
            {
              "internalType": "uint256",
              "name": "count",
              "type": "uint256"
            },
            {
              "internalType": "uint256[]",
              "name": "offset",
              "type": "uint256[]"
            }
          ],
          "internalType": "struct SolutionSetDesc",
          "name": "desc_",
          "type": "tuple"
        },
        {
          "internalType": "bytes32",
          "name": "from_",
          "type": "bytes32"
        },
        {
          "internalType": "bytes32",
          "name": "to_",
          "type": "bytes32"
        }
      ],
      "name": "descCreateFromTo",
      "outputs": [
        {
          "components": [
            {
              "internalType": "bytes32[]",
              "name": "path",
              "type": "bytes32[]"
            },
            {
              "internalType": "uint256",
              "name": "qty",
              "type": "uint256"
            },
            {
              "components": [
                {
                  "internalType": "uint256",
                  "name": "quotemin",
                  "type": "uint256"
                },
                {
                  "internalType": "uint256",
                  "name": "quoteavg",
                  "type": "uint256"
                },
                {
                  "internalType": "uint256",
                  "name": "quotemax",
                  "type": "uint256"
                }
              ],
              "internalType": "struct Quote",
              "name": "quote",
              "type": "tuple"
            },
            {
              "internalType": "uint256",
              "name": "start",
              "type": "uint256"
            },
            {
              "internalType": "uint256",
              "name": "count",
              "type": "uint256"
            },
            {
              "internalType": "uint256[]",
              "name": "offset",
              "type": "uint256[]"
            }
          ],
          "internalType": "struct SolutionSetDesc",
          "name": "out_",
          "type": "tuple"
        }
      ],
      "stateMutability": "pure",
      "type": "function"
    },
    {
      "inputs": [
        {
          "components": [
            {
              "internalType": "uint256",
              "name": "orderid",
              "type": "uint256"
            },
            {
              "internalType": "bytes32",
              "name": "addr",
              "type": "bytes32"
            },
            {
              "internalType": "uint256",
              "name": "qty",
              "type": "uint256"
            },
            {
              "internalType": "uint256",
              "name": "granularity",
              "type": "uint256"
            },
            {
              "internalType": "uint256",
              "name": "quote",
              "type": "uint256"
            },
            {
              "internalType": "uint256[]",
              "name": "delivery",
              "type": "uint256[]"
            }
          ],
          "internalType": "struct Solution[]",
          "name": "sol_",
          "type": "tuple[]"
        }
      ],
      "name": "duplicate",
      "outputs": [
        {
          "components": [
            {
              "internalType": "uint256",
              "name": "orderid",
              "type": "uint256"
            },
            {
              "internalType": "bytes32",
              "name": "addr",
              "type": "bytes32"
            },
            {
              "internalType": "uint256",
              "name": "qty",
              "type": "uint256"
            },
            {
              "internalType": "uint256",
              "name": "granularity",
              "type": "uint256"
            },
            {
              "internalType": "uint256",
              "name": "quote",
              "type": "uint256"
            },
            {
              "internalType": "uint256[]",
              "name": "delivery",
              "type": "uint256[]"
            }
          ],
          "internalType": "struct Solution[]",
          "name": "out_",
          "type": "tuple[]"
        }
      ],
      "stateMutability": "pure",
      "type": "function"
    },
    {
      "inputs": [
        {
          "components": [
            {
              "internalType": "uint256",
              "name": "orderid",
              "type": "uint256"
            },
            {
              "internalType": "bytes32",
              "name": "addr",
              "type": "bytes32"
            },
            {
              "internalType": "uint256",
              "name": "qty",
              "type": "uint256"
            },
            {
              "internalType": "uint256",
              "name": "granularity",
              "type": "uint256"
            },
            {
              "internalType": "uint256",
              "name": "quote",
              "type": "uint256"
            },
            {
              "internalType": "uint256[]",
              "name": "delivery",
              "type": "uint256[]"
            }
          ],
          "internalType": "struct Solution",
          "name": "sol_",
          "type": "tuple"
        }
      ],
      "name": "duplicate",
      "outputs": [
        {
          "components": [
            {
              "internalType": "uint256",
              "name": "orderid",
              "type": "uint256"
            },
            {
              "internalType": "bytes32",
              "name": "addr",
              "type": "bytes32"
            },
            {
              "internalType": "uint256",
              "name": "qty",
              "type": "uint256"
            },
            {
              "internalType": "uint256",
              "name": "granularity",
              "type": "uint256"
            },
            {
              "internalType": "uint256",
              "name": "quote",
              "type": "uint256"
            },
            {
              "internalType": "uint256[]",
              "name": "delivery",
              "type": "uint256[]"
            }
          ],
          "internalType": "struct Solution",
          "name": "out_",
          "type": "tuple"
        }
      ],
      "stateMutability": "pure",
      "type": "function"
    },
    {
      "inputs": [
        {
          "components": [
            {
              "internalType": "uint256",
              "name": "orderid",
              "type": "uint256"
            },
            {
              "internalType": "bytes32",
              "name": "addr",
              "type": "bytes32"
            },
            {
              "internalType": "uint256",
              "name": "qty",
              "type": "uint256"
            },
            {
              "internalType": "uint256",
              "name": "granularity",
              "type": "uint256"
            },
            {
              "internalType": "uint256",
              "name": "quote",
              "type": "uint256"
            },
            {
              "internalType": "uint256[]",
              "name": "delivery",
              "type": "uint256[]"
            }
          ],
          "internalType": "struct Solution[]",
          "name": "sol_",
          "type": "tuple[]"
        },
        {
          "internalType": "uint256",
          "name": "start_",
          "type": "uint256"
        },
        {
          "internalType": "uint256",
          "name": "count_",
          "type": "uint256"
        }
      ],
      "name": "duplicate",
      "outputs": [
        {
          "components": [
            {
              "internalType": "uint256",
              "name": "orderid",
              "type": "uint256"
            },
            {
              "internalType": "bytes32",
              "name": "addr",
              "type": "bytes32"
            },
            {
              "internalType": "uint256",
              "name": "qty",
              "type": "uint256"
            },
            {
              "internalType": "uint256",
              "name": "granularity",
              "type": "uint256"
            },
            {
              "internalType": "uint256",
              "name": "quote",
              "type": "uint256"
            },
            {
              "internalType": "uint256[]",
              "name": "delivery",
              "type": "uint256[]"
            }
          ],
          "internalType": "struct Solution[]",
          "name": "out_",
          "type": "tuple[]"
        }
      ],
      "stateMutability": "pure",
      "type": "function"
    },
    {
      "inputs": [
        {
          "components": [
            {
              "internalType": "uint256",
              "name": "orderid",
              "type": "uint256"
            },
            {
              "internalType": "bytes32",
              "name": "addr",
              "type": "bytes32"
            },
            {
              "internalType": "uint256",
              "name": "qty",
              "type": "uint256"
            },
            {
              "internalType": "uint256",
              "name": "granularity",
              "type": "uint256"
            },
            {
              "internalType": "uint256",
              "name": "quote",
              "type": "uint256"
            },
            {
              "internalType": "uint256[]",
              "name": "delivery",
              "type": "uint256[]"
            }
          ],
          "internalType": "struct Solution[]",
          "name": "sol_",
          "type": "tuple[]"
        },
        {
          "components": [
            {
              "internalType": "uint256",
              "name": "orderid",
              "type": "uint256"
            },
            {
              "internalType": "bytes32",
              "name": "addr",
              "type": "bytes32"
            },
            {
              "internalType": "uint256",
              "name": "qty",
              "type": "uint256"
            },
            {
              "internalType": "uint256",
              "name": "granularity",
              "type": "uint256"
            },
            {
              "internalType": "uint256",
              "name": "quote",
              "type": "uint256"
            },
            {
              "internalType": "uint256[]",
              "name": "delivery",
              "type": "uint256[]"
            }
          ],
          "internalType": "struct Solution[]",
          "name": "used_",
          "type": "tuple[]"
        }
      ],
      "name": "filterUsed",
      "outputs": [
        {
          "components": [
            {
              "internalType": "uint256",
              "name": "orderid",
              "type": "uint256"
            },
            {
              "internalType": "bytes32",
              "name": "addr",
              "type": "bytes32"
            },
            {
              "internalType": "uint256",
              "name": "qty",
              "type": "uint256"
            },
            {
              "internalType": "uint256",
              "name": "granularity",
              "type": "uint256"
            },
            {
              "internalType": "uint256",
              "name": "quote",
              "type": "uint256"
            },
            {
              "internalType": "uint256[]",
              "name": "delivery",
              "type": "uint256[]"
            }
          ],
          "internalType": "struct Solution[]",
          "name": "out_",
          "type": "tuple[]"
        }
      ],
      "stateMutability": "pure",
      "type": "function"
    },
    {
      "inputs": [
        {
          "components": [
            {
              "internalType": "bytes32",
              "name": "currency",
              "type": "bytes32"
            },
            {
              "internalType": "uint256",
              "name": "qty",
              "type": "uint256"
            }
          ],
          "internalType": "struct Remainer[]",
          "name": "remainer_",
          "type": "tuple[]"
        },
        {
          "internalType": "bytes32",
          "name": "currency_",
          "type": "bytes32"
        }
      ],
      "name": "get",
      "outputs": [
        {
          "internalType": "uint256",
          "name": "qty_",
          "type": "uint256"
        }
      ],
      "stateMutability": "pure",
      "type": "function"
    },
    {
      "inputs": [
        {
          "components": [
            {
              "internalType": "uint256",
              "name": "orderid",
              "type": "uint256"
            },
            {
              "internalType": "bytes32",
              "name": "addr",
              "type": "bytes32"
            },
            {
              "internalType": "uint256",
              "name": "qty",
              "type": "uint256"
            },
            {
              "internalType": "uint256",
              "name": "granularity",
              "type": "uint256"
            },
            {
              "internalType": "uint256",
              "name": "quote",
              "type": "uint256"
            },
            {
              "internalType": "uint256[]",
              "name": "delivery",
              "type": "uint256[]"
            }
          ],
          "internalType": "struct Solution[]",
          "name": "sol_",
          "type": "tuple[]"
        }
      ],
      "name": "getAvg",
      "outputs": [
        {
          "internalType": "uint256",
          "name": "quote_",
          "type": "uint256"
        }
      ],
      "stateMutability": "pure",
      "type": "function"
    },
    {
      "inputs": [
        {
          "components": [
            {
              "internalType": "uint256",
              "name": "orderid",
              "type": "uint256"
            },
            {
              "internalType": "bytes32",
              "name": "addr",
              "type": "bytes32"
            },
            {
              "internalType": "uint256",
              "name": "qty",
              "type": "uint256"
            },
            {
              "internalType": "uint256",
              "name": "granularity",
              "type": "uint256"
            },
            {
              "internalType": "uint256",
              "name": "quote",
              "type": "uint256"
            },
            {
              "internalType": "uint256[]",
              "name": "delivery",
              "type": "uint256[]"
            }
          ],
          "internalType": "struct Solution[]",
          "name": "sol_",
          "type": "tuple[]"
        },
        {
          "internalType": "uint256",
          "name": "count_",
          "type": "uint256"
        }
      ],
      "name": "getAvg",
      "outputs": [
        {
          "internalType": "uint256",
          "name": "quote_",
          "type": "uint256"
        }
      ],
      "stateMutability": "pure",
      "type": "function"
    },
    {
      "inputs": [
        {
          "components": [
            {
              "internalType": "uint256",
              "name": "orderid",
              "type": "uint256"
            },
            {
              "internalType": "bytes32",
              "name": "addr",
              "type": "bytes32"
            },
            {
              "internalType": "uint256",
              "name": "qty",
              "type": "uint256"
            },
            {
              "internalType": "uint256",
              "name": "granularity",
              "type": "uint256"
            },
            {
              "internalType": "uint256",
              "name": "quote",
              "type": "uint256"
            },
            {
              "internalType": "uint256[]",
              "name": "delivery",
              "type": "uint256[]"
            }
          ],
          "internalType": "struct Solution[]",
          "name": "sol_",
          "type": "tuple[]"
        }
      ],
      "name": "getHasQty",
      "outputs": [
        {
          "internalType": "bool",
          "name": "",
          "type": "bool"
        }
      ],
      "stateMutability": "pure",
      "type": "function"
    },
    {
      "inputs": [
        {
          "components": [
            {
              "internalType": "uint256",
              "name": "orderid",
              "type": "uint256"
            },
            {
              "internalType": "bytes32",
              "name": "addr",
              "type": "bytes32"
            },
            {
              "internalType": "uint256",
              "name": "qty",
              "type": "uint256"
            },
            {
              "internalType": "uint256",
              "name": "granularity",
              "type": "uint256"
            },
            {
              "internalType": "uint256",
              "name": "quote",
              "type": "uint256"
            },
            {
              "internalType": "uint256[]",
              "name": "delivery",
              "type": "uint256[]"
            }
          ],
          "internalType": "struct Solution[]",
          "name": "sol_",
          "type": "tuple[]"
        },
        {
          "internalType": "uint256",
          "name": "count_",
          "type": "uint256"
        }
      ],
      "name": "getHasQty",
      "outputs": [
        {
          "internalType": "bool",
          "name": "",
          "type": "bool"
        }
      ],
      "stateMutability": "pure",
      "type": "function"
    },
    {
      "inputs": [
        {
          "components": [
            {
              "internalType": "uint256",
              "name": "orderid",
              "type": "uint256"
            },
            {
              "internalType": "bytes32",
              "name": "addr",
              "type": "bytes32"
            },
            {
              "internalType": "uint256",
              "name": "qty",
              "type": "uint256"
            },
            {
              "internalType": "uint256",
              "name": "granularity",
              "type": "uint256"
            },
            {
              "internalType": "uint256",
              "name": "quote",
              "type": "uint256"
            },
            {
              "internalType": "uint256[]",
              "name": "delivery",
              "type": "uint256[]"
            }
          ],
          "internalType": "struct Solution[]",
          "name": "sol_",
          "type": "tuple[]"
        },
        {
          "internalType": "uint256",
          "name": "orderid_",
          "type": "uint256"
        }
      ],
      "name": "getIdQty",
      "outputs": [
        {
          "internalType": "uint256",
          "name": "qty_",
          "type": "uint256"
        }
      ],
      "stateMutability": "pure",
      "type": "function"
    },
    {
      "inputs": [
        {
          "components": [
            {
              "internalType": "uint256",
              "name": "orderid",
              "type": "uint256"
            },
            {
              "internalType": "bytes32",
              "name": "addr",
              "type": "bytes32"
            },
            {
              "internalType": "uint256",
              "name": "qty",
              "type": "uint256"
            },
            {
              "internalType": "uint256",
              "name": "granularity",
              "type": "uint256"
            },
            {
              "internalType": "uint256",
              "name": "quote",
              "type": "uint256"
            },
            {
              "internalType": "uint256[]",
              "name": "delivery",
              "type": "uint256[]"
            }
          ],
          "internalType": "struct Solution[]",
          "name": "sol_",
          "type": "tuple[]"
        },
        {
          "internalType": "uint256",
          "name": "count_",
          "type": "uint256"
        }
      ],
      "name": "getQty",
      "outputs": [
        {
          "internalType": "uint256",
          "name": "qty_",
          "type": "uint256"
        }
      ],
      "stateMutability": "pure",
      "type": "function"
    },
    {
      "inputs": [
        {
          "components": [
            {
              "internalType": "uint256",
              "name": "orderid",
              "type": "uint256"
            },
            {
              "internalType": "bytes32",
              "name": "addr",
              "type": "bytes32"
            },
            {
              "internalType": "uint256",
              "name": "qty",
              "type": "uint256"
            },
            {
              "internalType": "uint256",
              "name": "granularity",
              "type": "uint256"
            },
            {
              "internalType": "uint256",
              "name": "quote",
              "type": "uint256"
            },
            {
              "internalType": "uint256[]",
              "name": "delivery",
              "type": "uint256[]"
            }
          ],
          "internalType": "struct Solution[]",
          "name": "sol_",
          "type": "tuple[]"
        }
      ],
      "name": "getQty",
      "outputs": [
        {
          "internalType": "uint256",
          "name": "qty_",
          "type": "uint256"
        }
      ],
      "stateMutability": "pure",
      "type": "function"
    },
    {
      "inputs": [
        {
          "components": [
            {
              "internalType": "uint256",
              "name": "orderid",
              "type": "uint256"
            },
            {
              "internalType": "bytes32",
              "name": "addr",
              "type": "bytes32"
            },
            {
              "internalType": "uint256",
              "name": "qty",
              "type": "uint256"
            },
            {
              "internalType": "uint256",
              "name": "granularity",
              "type": "uint256"
            },
            {
              "internalType": "uint256",
              "name": "quote",
              "type": "uint256"
            },
            {
              "internalType": "uint256[]",
              "name": "delivery",
              "type": "uint256[]"
            }
          ],
          "internalType": "struct Solution[]",
          "name": "sol_",
          "type": "tuple[]"
        },
        {
          "internalType": "uint256",
          "name": "count_",
          "type": "uint256"
        }
      ],
      "name": "getQtyQuote",
      "outputs": [
        {
          "internalType": "uint256",
          "name": "qty_",
          "type": "uint256"
        },
        {
          "components": [
            {
              "internalType": "uint256",
              "name": "quotemin",
              "type": "uint256"
            },
            {
              "internalType": "uint256",
              "name": "quoteavg",
              "type": "uint256"
            },
            {
              "internalType": "uint256",
              "name": "quotemax",
              "type": "uint256"
            }
          ],
          "internalType": "struct Quote",
          "name": "quote_",
          "type": "tuple"
        }
      ],
      "stateMutability": "pure",
      "type": "function"
    },
    {
      "inputs": [
        {
          "components": [
            {
              "internalType": "uint256",
              "name": "orderid",
              "type": "uint256"
            },
            {
              "internalType": "bytes32",
              "name": "addr",
              "type": "bytes32"
            },
            {
              "internalType": "uint256",
              "name": "qty",
              "type": "uint256"
            },
            {
              "internalType": "uint256",
              "name": "granularity",
              "type": "uint256"
            },
            {
              "internalType": "uint256",
              "name": "quote",
              "type": "uint256"
            },
            {
              "internalType": "uint256[]",
              "name": "delivery",
              "type": "uint256[]"
            }
          ],
          "internalType": "struct Solution[]",
          "name": "sol_",
          "type": "tuple[]"
        }
      ],
      "name": "getQtyQuote",
      "outputs": [
        {
          "internalType": "uint256",
          "name": "qty_",
          "type": "uint256"
        },
        {
          "components": [
            {
              "internalType": "uint256",
              "name": "quotemin",
              "type": "uint256"
            },
            {
              "internalType": "uint256",
              "name": "quoteavg",
              "type": "uint256"
            },
            {
              "internalType": "uint256",
              "name": "quotemax",
              "type": "uint256"
            }
          ],
          "internalType": "struct Quote",
          "name": "quote_",
          "type": "tuple"
        }
      ],
      "stateMutability": "pure",
      "type": "function"
    },
    {
      "inputs": [
        {
          "components": [
            {
              "internalType": "uint256",
              "name": "orderid",
              "type": "uint256"
            },
            {
              "internalType": "bytes32",
              "name": "addr",
              "type": "bytes32"
            },
            {
              "internalType": "uint256",
              "name": "qty",
              "type": "uint256"
            },
            {
              "internalType": "uint256",
              "name": "granularity",
              "type": "uint256"
            },
            {
              "internalType": "uint256",
              "name": "quote",
              "type": "uint256"
            },
            {
              "internalType": "uint256[]",
              "name": "delivery",
              "type": "uint256[]"
            }
          ],
          "internalType": "struct Solution[]",
          "name": "sol_",
          "type": "tuple[]"
        }
      ],
      "name": "getTotal",
      "outputs": [
        {
          "internalType": "uint256",
          "name": "total_",
          "type": "uint256"
        }
      ],
      "stateMutability": "pure",
      "type": "function"
    },
    {
      "inputs": [
        {
          "components": [
            {
              "internalType": "uint256",
              "name": "orderid",
              "type": "uint256"
            },
            {
              "internalType": "bytes32",
              "name": "addr",
              "type": "bytes32"
            },
            {
              "internalType": "uint256",
              "name": "qty",
              "type": "uint256"
            },
            {
              "internalType": "uint256",
              "name": "granularity",
              "type": "uint256"
            },
            {
              "internalType": "uint256",
              "name": "quote",
              "type": "uint256"
            },
            {
              "internalType": "uint256[]",
              "name": "delivery",
              "type": "uint256[]"
            }
          ],
          "internalType": "struct Solution[]",
          "name": "sol_",
          "type": "tuple[]"
        },
        {
          "internalType": "uint256",
          "name": "count_",
          "type": "uint256"
        }
      ],
      "name": "getTotal",
      "outputs": [
        {
          "internalType": "uint256",
          "name": "total_",
          "type": "uint256"
        }
      ],
      "stateMutability": "pure",
      "type": "function"
    },
    {
      "inputs": [
        {
          "components": [
            {
              "internalType": "uint256",
              "name": "orderid",
              "type": "uint256"
            },
            {
              "internalType": "bytes32",
              "name": "addr",
              "type": "bytes32"
            },
            {
              "internalType": "uint256",
              "name": "qty",
              "type": "uint256"
            },
            {
              "internalType": "uint256",
              "name": "granularity",
              "type": "uint256"
            },
            {
              "internalType": "uint256",
              "name": "quote",
              "type": "uint256"
            },
            {
              "internalType": "uint256[]",
              "name": "delivery",
              "type": "uint256[]"
            }
          ],
          "internalType": "struct Solution[]",
          "name": "sol_",
          "type": "tuple[]"
        }
      ],
      "name": "order",
      "outputs": [
        {
          "components": [
            {
              "internalType": "uint256",
              "name": "orderid",
              "type": "uint256"
            },
            {
              "internalType": "bytes32",
              "name": "addr",
              "type": "bytes32"
            },
            {
              "internalType": "uint256",
              "name": "qty",
              "type": "uint256"
            },
            {
              "internalType": "uint256",
              "name": "granularity",
              "type": "uint256"
            },
            {
              "internalType": "uint256",
              "name": "quote",
              "type": "uint256"
            },
            {
              "internalType": "uint256[]",
              "name": "delivery",
              "type": "uint256[]"
            }
          ],
          "internalType": "struct Solution[]",
          "name": "out_",
          "type": "tuple[]"
        }
      ],
      "stateMutability": "pure",
      "type": "function"
    },
    {
      "inputs": [
        {
          "components": [
            {
              "internalType": "uint256",
              "name": "orderid",
              "type": "uint256"
            },
            {
              "internalType": "bytes32",
              "name": "addr",
              "type": "bytes32"
            },
            {
              "internalType": "uint256",
              "name": "qty",
              "type": "uint256"
            },
            {
              "internalType": "uint256",
              "name": "granularity",
              "type": "uint256"
            },
            {
              "internalType": "uint256",
              "name": "quote",
              "type": "uint256"
            },
            {
              "internalType": "uint256[]",
              "name": "delivery",
              "type": "uint256[]"
            }
          ],
          "internalType": "struct Solution[]",
          "name": "sol_",
          "type": "tuple[]"
        }
      ],
      "name": "orderGranularity",
      "outputs": [
        {
          "components": [
            {
              "internalType": "uint256",
              "name": "orderid",
              "type": "uint256"
            },
            {
              "internalType": "bytes32",
              "name": "addr",
              "type": "bytes32"
            },
            {
              "internalType": "uint256",
              "name": "qty",
              "type": "uint256"
            },
            {
              "internalType": "uint256",
              "name": "granularity",
              "type": "uint256"
            },
            {
              "internalType": "uint256",
              "name": "quote",
              "type": "uint256"
            },
            {
              "internalType": "uint256[]",
              "name": "delivery",
              "type": "uint256[]"
            }
          ],
          "internalType": "struct Solution[]",
          "name": "out_",
          "type": "tuple[]"
        }
      ],
      "stateMutability": "pure",
      "type": "function"
    },
    {
      "inputs": [
        {
          "components": [
            {
              "internalType": "bytes32",
              "name": "currency",
              "type": "bytes32"
            },
            {
              "internalType": "uint256",
              "name": "qty",
              "type": "uint256"
            }
          ],
          "internalType": "struct Remainer[]",
          "name": "remainer_",
          "type": "tuple[]"
        },
        {
          "internalType": "bytes32",
          "name": "currency_",
          "type": "bytes32"
        },
        {
          "internalType": "uint256",
          "name": "qty_",
          "type": "uint256"
        }
      ],
      "name": "remove",
      "outputs": [
        {
          "components": [
            {
              "internalType": "bytes32",
              "name": "currency",
              "type": "bytes32"
            },
            {
              "internalType": "uint256",
              "name": "qty",
              "type": "uint256"
            }
          ],
          "internalType": "struct Remainer[]",
          "name": "out_",
          "type": "tuple[]"
        }
      ],
      "stateMutability": "pure",
      "type": "function"
    },
    {
      "inputs": [
        {
          "components": [
            {
              "internalType": "bytes32",
              "name": "currency",
              "type": "bytes32"
            },
            {
              "internalType": "uint256",
              "name": "qty",
              "type": "uint256"
            }
          ],
          "internalType": "struct Remainer[]",
          "name": "remainer_",
          "type": "tuple[]"
        },
        {
          "components": [
            {
              "internalType": "bytes32[]",
              "name": "path",
              "type": "bytes32[]"
            },
            {
              "internalType": "uint256",
              "name": "qty",
              "type": "uint256"
            },
            {
              "components": [
                {
                  "internalType": "uint256",
                  "name": "quotemin",
                  "type": "uint256"
                },
                {
                  "internalType": "uint256",
                  "name": "quoteavg",
                  "type": "uint256"
                },
                {
                  "internalType": "uint256",
                  "name": "quotemax",
                  "type": "uint256"
                }
              ],
              "internalType": "struct Quote",
              "name": "quote",
              "type": "tuple"
            },
            {
              "internalType": "uint256",
              "name": "start",
              "type": "uint256"
            },
            {
              "internalType": "uint256",
              "name": "count",
              "type": "uint256"
            },
            {
              "internalType": "uint256[]",
              "name": "offset",
              "type": "uint256[]"
            }
          ],
          "internalType": "struct SolutionSetDesc",
          "name": "in_",
          "type": "tuple"
        },
        {
          "components": [
            {
              "internalType": "uint256",
              "name": "orderid",
              "type": "uint256"
            },
            {
              "internalType": "bytes32",
              "name": "addr",
              "type": "bytes32"
            },
            {
              "internalType": "uint256",
              "name": "qty",
              "type": "uint256"
            },
            {
              "internalType": "uint256",
              "name": "granularity",
              "type": "uint256"
            },
            {
              "internalType": "uint256",
              "name": "quote",
              "type": "uint256"
            },
            {
              "internalType": "uint256[]",
              "name": "delivery",
              "type": "uint256[]"
            }
          ],
          "internalType": "struct Solution[]",
          "name": "solin_",
          "type": "tuple[]"
        }
      ],
      "name": "update",
      "outputs": [
        {
          "components": [
            {
              "internalType": "bytes32",
              "name": "currency",
              "type": "bytes32"
            },
            {
              "internalType": "uint256",
              "name": "qty",
              "type": "uint256"
            }
          ],
          "internalType": "struct Remainer[]",
          "name": "remainerout_",
          "type": "tuple[]"
        }
      ],
      "stateMutability": "pure",
      "type": "function"
    }
  ],
  "bytecode": "612f8661003a600b82828239805160001a60731461002d57634e487b7160e01b600052600060045260246000fd5b30600052607381538281f3fe73000000000000000000000000000000000000000030146080604052600436106101d95760003560e01c8063782b27be1161010e578063d24d63fe116100ac578063ec2dda4b1161007b578063ec2dda4b1461043d578063f31d34b214610450578063f4f1c9dd14610463578063f7eb9bb61461047657600080fd5b8063d24d63fe146103f1578063d6fd91f014610404578063e060df6614610417578063e23edbef1461042a57600080fd5b80639fab220f116100e85780639fab220f146103a5578063a76345c5146103b8578063a9c9269a146103cb578063bf07928f146103de57600080fd5b8063782b27be1461036c578063970bc4a31461037f5780639b19f22c1461039257600080fd5b806365d9bcb91161017b5780636cc184b0116101555780636cc184b0146103065780637071133e14610319578063742228d7146103395780637513ce1b1461034c57600080fd5b806365d9bcb9146102c057806366628d27146102d35780636c1922c8146102e657600080fd5b806334157036116101b7578063341570361461024a5780634bd40d431461026b57806350308ede1461028c5780635640453d146102ad57600080fd5b80632a30a85c146101de5780632edb2199146102075780632fbf1f931461022a575b600080fd5b6101f16101ec3660046124a6565b610489565b6040516101fe91906125e0565b60405180910390f35b61021a6102153660046125f3565b6105ad565b60405190151581526020016101fe565b61023d610238366004612715565b6105c0565b6040516101fe91906127fe565b61025d610258366004612811565b610634565b6040516101fe929190612855565b61027e6102793660046125f3565b610807565b6040519081526020016101fe565b61029f61029a36600461287d565b610814565b6040516101fe92919061290e565b61027e6102bb366004612811565b610a2c565b6101f16102ce3660046125f3565b610aa2565b61027e6102e1366004612811565b610ab1565b6102f96102f4366004612933565b610afa565b6040516101fe9190612967565b61021a610314366004612811565b610b3e565b61032c6103273660046129f9565b610b96565b6040516101fe9190612a80565b61025d6103473660046125f3565b610d5a565b61035f61035a366004612bbd565b610d94565b6040516101fe9190612c3d565b6101f161037a3660046125f3565b611126565b61027e61038d3660046125f3565b61136d565b61027e6103a0366004612811565b611376565b61035f6103b3366004612ced565b611452565b61032c6103c6366004612d46565b611831565b61035f6103d9366004612d7d565b6119c3565b6101f16103ec3660046124a6565b611a71565b61027e6103ff366004612811565b611ab5565b61032c610412366004612d46565b611b38565b61027e6104253660046125f3565b611cc3565b61027e610438366004612db3565b611cd0565b6101f161044b366004612de8565b611d39565b6101f161045e366004612e41565b611e1b565b6101f16104713660046124a6565b611eca565b6101f16104843660046125f3565b611fe2565b606082516001600160401b038111156104a4576104a461226e565b6040519080825280602002602001820160405280156104dd57816020015b6104ca612193565b8152602001906001900390816104c25790505b5090506000805b84518110156105a457600061051186838151811061050457610504612e78565b6020026020010151610afa565b90506000610523868360000151610a2c565b905081604001518110610537575050610592565b80826040018181516105499190612ea4565b905250606082015160408301511015610563575050610592565b8185858151811061057657610576612e78565b6020026020010181905250838061058c90612ebb565b94505050505b8061059c81612ebb565b9150506104e4565b50815292915050565b60006105ba828351610b3e565b92915050565b6105c86121cc565b50604080516002808252606082018352859260208301908036833750505080825280518491906000906105fd576105fd612e78565b60200260200101818152505081816000015160018151811061062157610621612e78565b6020026020010181815250509392505050565b600061065a60405180606001604052806000815260200160008152602001600081525090565b60005b838110156107c65781511580610693575084818151811061068057610680612e78565b6020026020010151608001518260000151115b156106bc578481815181106106aa576106aa612e78565b60209081029190910101516080015182525b604082015115806106ed57508481815181106106da576106da612e78565b6020026020010151608001518260400151105b1561071a5784818151811061070457610704612e78565b6020026020010151608001518260400181815250505b670de0b6b3a764000085828151811061073557610735612e78565b60200260200101516080015186838151811061075357610753612e78565b6020026020010151604001516107699190612ed4565b6107739190612ef3565b826020018181516107849190612f15565b905250845185908290811061079b5761079b612e78565b602002602001015160400151836107b29190612f15565b9250806107be81612ebb565b91505061065d565b50816000036107d65760006107f9565b818160200151670de0b6b3a76400006107ef9190612ed4565b6107f99190612ef3565b602082015290939092509050565b60006105ba828351611ab5565b61081c6121cc565b6020808601519082015260408086015190820152845151606090610841906001612f15565b6001600160401b038111156108585761085861226e565b604051908082528060200260200182016040528015610881578160200160208202803683370190505b50825260005b8651518110156108ec5786518051829081106108a5576108a5612e78565b602002602001015183600001518260016108bf9190612f15565b815181106108cf576108cf612e78565b6020908102919091010152806108e481612ebb565b915050610887565b5083826000015160008151811061090557610905612e78565b602090810291909101015260a086015151610921906001612f15565b6001600160401b038111156109385761093861226e565b604051908082528060200260200182016040528015610961578160200160208202803683370190505b5060a083015260005b8660a00151518110156109de5783518760a00151828151811061098f5761098f612e78565b60200260200101516109a19190612f15565b60a08401516109b1836001612f15565b815181106109c1576109c1612e78565b6020908102919091010152806109d681612ebb565b91505061096a565b5082518260a001516000815181106109f8576109f8612e78565b60200260200101818152505084518351610a129190612f15565b6080830152610a218386611eca565b905094509492505050565b6000805b8351811015610a9b5782848281518110610a4c57610a4c612e78565b60200260200101516000015103610a8957838181518110610a6f57610a6f612e78565b60200260200101516040015182610a869190612f15565b91505b80610a9381612ebb565b915050610a30565b5092915050565b60606105ba8260008451611e1b565b6000805b82811015610a9b57838181518110610acf57610acf612e78565b60200260200101516040015182610ae69190612f15565b915080610af281612ebb565b915050610ab5565b610b02612193565b815181526020808301519082015260408083015190820152606080830151908201526080808301519082015260a0918201519181019190915290565b6000805b82811015610b8c576000848281518110610b5e57610b5e612e78565b6020026020010151604001511115610b7a5760019150506105ba565b80610b8481612ebb565b915050610b42565b5060009392505050565b60a08201515183906000819003610bad5750610d53565b8251600090815b610bbf846001612f15565b811015610d4e576000848203610bd757506000610c0d565b60a088015182610be8600188612ea4565b610bf29190612ea4565b81518110610c0257610c02612e78565b602002602001015190505b600080825b85811015610cbc57898181518110610c2c57610c2c612e78565b60200260200101516040015182610c439190612f15565b9150670de0b6b3a76400008a8281518110610c6057610c60612e78565b6020026020010151608001518b8381518110610c7e57610c7e612e78565b602002602001015160400151610c949190612ed4565b610c9e9190612ef3565b610ca89084612f15565b925080610cb481612ebb565b915050610c12565b508315610d375789518051600091908690610cd990600190612ea4565b610ce39190612ea4565b81518110610cf357610cf3612e78565b6020026020010151905086821115610d1b57610d1489826104128a86612ea4565b9850610d35565b86821015610d3557610d3289826103c6858b612ea4565b98505b505b509350915080610d4681612ebb565b915050610bb4565b505050505b9392505050565b6000610d8060405180606001604052806000815260200160008152602001600081525090565b610d8b838451610634565b91509150915091565b610d9c612224565b83518152602080850151908201526080830151606085015151610dbf9190612f15565b6001600160401b03811115610dd657610dd661226e565b604051908082528060200260200182016040528015610e0f57816020015b610dfc612193565b815260200190600190039081610df45790505b50606082015260005b846060015151811015610e775784606001518181518110610e3b57610e3b612e78565b602002602001015182606001518281518110610e5957610e59612e78565b60200260200101819052508080610e6f90612ebb565b915050610e18565b5060005b8360800151811015610ef45782818560600151610e989190612f15565b81518110610ea857610ea8612e78565b6020026020010151826060015182876060015151610ec69190612f15565b81518110610ed657610ed6612e78565b60200260200101819052508080610eec90612ebb565b915050610e7b565b50604084015151610f06906001612f15565b6001600160401b03811115610f1d57610f1d61226e565b604051908082528060200260200182016040528015610f5657816020015b610f436121cc565b815260200190600190039081610f3b5790505b50604082015260005b846040015151811015610fbe5784604001518181518110610f8257610f82612e78565b602002602001015182604001518281518110610fa057610fa0612e78565b60200260200101819052508080610fb690612ebb565b915050610f5f565b5082816040015185604001515181518110610fdb57610fdb612e78565b602002602001018190525083606001515181604001518560400151518151811061100757611007612e78565b60209081029190910101516060015260408401515115611048576040830151516020820151511161103d5760208101515161104f565b60408301515161104f565b6040830151515b60208201805191909152604080850151810151915101511061107957806020015160400151611083565b8260400151604001515b60208083015160400191909152830151815161109f9190612f15565b6000036110ad5760006110fe565b602083015181516110be9190612f15565b83602001518460400151602001516110d69190612ed4565b825160208085015101516110ea9190612ed4565b6110f49190612f15565b6110fe9190612ef3565b6020808301518101919091528301518151829061111c908390612f15565b9052509392505050565b606081516001600160401b038111156111415761114161226e565b60405190808252806020026020018201604052801561117a57816020015b611167612193565b81526020019060019003908161115f5790505b5090506000805b835181101561136657600084828151811061119e5761119e612e78565b6020026020010151905060005b838163ffffffff1610156112bb578160600151858263ffffffff16815181106111d6576111d6612e78565b602002602001015160600151108061124557508160600151858263ffffffff168151811061120657611206612e78565b60200260200101516060015114801561124557508160800151858263ffffffff168151811061123757611237612e78565b602002602001015160800151115b156112a9576000858263ffffffff168151811061126457611264612e78565b6020026020010151905082868363ffffffff168151811061128757611287612e78565b602002602001018190525080925081806112a090612f2d565b925050506112bb565b806112b381612f2d565b9150506111ab565b838163ffffffff161015611325576000858263ffffffff16815181106112e3576112e3612e78565b6020026020010151905082868363ffffffff168151811061130657611306612e78565b602090810291909101015291508061131d81612f2d565b9150506112bb565b8185858151811061133857611338612e78565b6020026020010181905250838061134e90612ebb565b9450505050808061135e90612ebb565b915050611181565b5050919050565b60006105ba8283515b60008060005b8381101561142657670de0b6b3a764000085828151811061139f5761139f612e78565b6020026020010151608001518683815181106113bd576113bd612e78565b6020026020010151604001516113d39190612ed4565b6113dd9190612ef3565b6113e79084612f15565b92508481815181106113fb576113fb612e78565b602002602001015160400151826114129190612f15565b91508061141e81612ebb565b91505061137c565b508015610a9b578061144083670de0b6b3a7640000612ed4565b61144a9190612ef3565b949350505050565b61145a612224565b825181526020808401519082015260408083015151908401515161147e9190612f15565b6001600160401b038111156114955761149561226e565b6040519080825280602002602001820160405280156114ce57816020015b6114bb6121cc565b8152602001906001900390816114b35790505b50604082015260005b83604001515181101561153657836040015181815181106114fa576114fa612e78565b60200260200101518260400151828151811061151857611518612e78565b6020026020010181905250808061152e90612ebb565b9150506114d7565b5060005b8260400151518110156115ef578260400151818151811061155d5761155d612e78565b602002602001015182604001518286604001515161157b9190612f15565b8151811061158b5761158b612e78565b60200260200101819052508360600151518260400151828660400151516115b29190612f15565b815181106115c2576115c2612e78565b60200260200101516060018181516115da9190612f15565b905250806115e781612ebb565b91505061153a565b508160600151518360600151516116069190612f15565b6001600160401b0381111561161d5761161d61226e565b60405190808252806020026020018201604052801561165657816020015b611643612193565b81526020019060019003908161163b5790505b50606082015260005b8360600151518110156116be578360600151818151811061168257611682612e78565b6020026020010151826060015182815181106116a0576116a0612e78565b602002602001018190525080806116b690612ebb565b91505061165f565b5060005b82606001515181101561173157826060015181815181106116e5576116e5612e78565b60200260200101518260600151828660600151516117039190612f15565b8151811061171357611713612e78565b6020026020010181905250808061172990612ebb565b9150506116c2565b506040830151511561176457602080830151519082015151116117595760208101515161176b565b60208201515161176b565b6020820151515b60208083018051929092528301516040908101519151015110611796578060200151604001516117a0565b8160200151604001515b602082015160400152815181516117b79190612f15565b6000036117c557600061180f565b815181516117d39190612f15565b825160208085015101516117e79190612ed4565b825160208085015101516117fb9190612ed4565b6118059190612f15565b61180f9190612ef3565b6020808301510152815181518290611828908390612f15565b90525092915050565b8260005b81518110156119bb578382828151811061185157611851612e78565b602002602001015160000151036119a9578282828151811061187557611875612e78565b60200260200101516020015110156118eb5760405162461bcd60e51b815260206004820152602f60248201527f52656d61696e65722072656d6f766520717479206973207375706572696f722060448201526e746f2072656d61696e65722071747960881b606482015260840160405180910390fd5b828282815181106118fe576118fe612e78565b60200260200101516020018181516119169190612ea4565b905250815182908290811061192d5761192d612e78565b6020026020010151602001516000036119a35760018251111561198f5781600183516119599190612ea4565b8151811061196957611969612e78565b602002602001015182828151811061198357611983612e78565b60200260200101819052505b60006001835161199f9190612ea4565b8352505b50610d53565b806119b381612ebb565b915050611835565b509392505050565b6119cb612224565b6119d482610aa2565b606082015260408051600180825281830190925290816020015b6119f66121cc565b8152602001906001900390816119ee575050604082018190528051849190600090611a2357611a23612e78565b602002602001018190525060008160400151600081518110611a4757611a47612e78565b60209081029190910181015160600191909152838101518252604090930151928101929092525090565b8160005b8251811015610a9b57611aa182848381518110611a9457611a94612e78565b6020026020010151611d39565b915080611aad81612ebb565b915050611a75565b6000805b82811015610a9b57670de0b6b3a7640000848281518110611adc57611adc612e78565b602002602001015160800151858381518110611afa57611afa612e78565b602002602001015160400151611b109190612ed4565b611b1a9190612ef3565b611b249083612f15565b915080611b3081612ebb565b915050611ab9565b8260005b8151811015611bb05783828281518110611b5857611b58612e78565b60200260200101516000015103611b9e5782828281518110611b7c57611b7c612e78565b6020026020010151602001818151611b949190612f15565b905250610d539050565b80611ba881612ebb565b915050611b3c565b508351611bbe906001612f15565b6001600160401b03811115611bd557611bd561226e565b604051908082528060200260200182016040528015611c1a57816020015b6040805180820190915260008082526020820152815260200190600190039081611bf35790505b50905060005b8451811015611c7357848181518110611c3b57611c3b612e78565b6020026020010151828281518110611c5557611c55612e78565b60200260200101819052508080611c6b90612ebb565b915050611c20565b508281855181518110611c8857611c88612e78565b602002602001015160000181815250508181855181518110611cac57611cac612e78565b602002602001015160200181815250509392505050565b60006105ba828351610ab1565b6000805b8351811015610b8c5782848281518110611cf057611cf0612e78565b60200260200101516000015103611d2757838181518110611d1357611d13612e78565b6020026020010151602001519150506105ba565b80611d3181612ebb565b915050611cd4565b606060005b8351811015611dbd578260000151848281518110611d5e57611d5e612e78565b60200260200101516000015103611dab578260400151848281518110611d8657611d86612e78565b6020026020010151604001818151611d9e9190612f15565b9052508391506105ba9050565b80611db581612ebb565b915050611d3e565b50604080516001808252818301909252600091816020015b611ddd612193565b815260200190600190039081611dd55790505090508281600081518110611e0657611e06612e78565b602002602001018190525061144a8482611eca565b6060816001600160401b03811115611e3557611e3561226e565b604051908082528060200260200182016040528015611e6e57816020015b611e5b612193565b815260200190600190039081611e535790505b50905060005b828110156119bb57611e9a85611e8a8387612f15565b8151811061050457610504612e78565b828281518110611eac57611eac612e78565b60200260200101819052508080611ec290612ebb565b915050611e74565b8151815160609190611edc8183612f15565b6001600160401b03811115611ef357611ef361226e565b604051908082528060200260200182016040528015611f2c57816020015b611f19612193565b815260200190600190039081611f115790505b50925060005b82811015611f7f57611f4f86828151811061050457610504612e78565b848281518110611f6157611f61612e78565b60200260200101819052508080611f7790612ebb565b915050611f32565b5060005b81811015611fd957611fa085828151811061050457610504612e78565b84611fab8386612f15565b81518110611fbb57611fbb612e78565b60200260200101819052508080611fd190612ebb565b915050611f83565b50505092915050565b606081516001600160401b03811115611ffd57611ffd61226e565b60405190808252806020026020018201604052801561203657816020015b612023612193565b81526020019060019003908161201b5790505b5090506000805b835181101561136657600084828151811061205a5761205a612e78565b6020026020010151905060005b838110156120fd57816080015185828151811061208657612086612e78565b60200260200101516080015111156120eb5760008582815181106120ac576120ac612e78565b60200260200101519050828683815181106120c9576120c9612e78565b602002602001018190525080925081806120e290612ebb565b925050506120fd565b806120f581612ebb565b915050612067565b8381101561215557600085828151811061211957612119612e78565b602002602001015190508286838151811061213657612136612e78565b602090810291909101015291508061214d81612ebb565b9150506120fd565b81858561216181612ebb565b96508151811061217357612173612e78565b60200260200101819052505050808061218b90612ebb565b91505061203d565b6040518060c001604052806000815260200160008019168152602001600081526020016000815260200160008152602001606081525090565b6040518060c00160405280606081526020016000815260200161220960405180606001604052806000815260200160008152602001600081525090565b81526020016000815260200160008152602001606081525090565b60405180608001604052806000815260200161225a60405180606001604052806000815260200160008152602001600081525090565b815260200160608152602001606081525090565b634e487b7160e01b600052604160045260246000fd5b60405160c081016001600160401b03811182821017156122a6576122a661226e565b60405290565b604080519081016001600160401b03811182821017156122a6576122a661226e565b604051608081016001600160401b03811182821017156122a6576122a661226e565b604051601f8201601f191681016001600160401b03811182821017156123185761231861226e565b604052919050565b60006001600160401b038211156123395761233961226e565b5060051b60200190565b600082601f83011261235457600080fd5b8135602061236961236483612320565b6122f0565b82815260059290921b8401810191818101908684111561238857600080fd5b8286015b848110156123a3578035835291830191830161238c565b509695505050505050565b600060c082840312156123c057600080fd5b6123c8612284565b9050813581526020820135602082015260408201356040820152606082013560608201526080820135608082015260a08201356001600160401b0381111561240f57600080fd5b61241b84828501612343565b60a08301525092915050565b600082601f83011261243857600080fd5b8135602061244861236483612320565b82815260059290921b8401810191818101908684111561246757600080fd5b8286015b848110156123a35780356001600160401b0381111561248a5760008081fd5b6124988986838b01016123ae565b84525091830191830161246b565b600080604083850312156124b957600080fd5b82356001600160401b03808211156124d057600080fd5b6124dc86838701612427565b935060208501359150808211156124f257600080fd5b506124ff85828601612427565b9150509250929050565b600081518084526020808501945080840160005b838110156125395781518752958201959082019060010161251d565b509495945050505050565b8051825260208101516020830152604081015160408301526060810151606083015260808101516080830152600060a082015160c060a085015261144a60c0850182612509565b600081518084526020808501808196508360051b8101915082860160005b858110156125d35782840389526125c1848351612544565b988501989350908401906001016125a9565b5091979650505050505050565b602081526000610d53602083018461258b565b60006020828403121561260557600080fd5b81356001600160401b0381111561261b57600080fd5b61144a84828501612427565b60006060828403121561263957600080fd5b604051606081018181106001600160401b038211171561265b5761265b61226e565b80604052508091508235815260208301356020820152604083013560408201525092915050565b6000610100828403121561269557600080fd5b61269d612284565b905081356001600160401b03808211156126b657600080fd5b6126c285838601612343565b8352602084013560208401526126db8560408601612627565b604084015260a0840135606084015260c0840135608084015260e084013591508082111561270857600080fd5b5061241b84828501612343565b60008060006060848603121561272a57600080fd5b83356001600160401b0381111561274057600080fd5b61274c86828701612682565b9660208601359650604090950135949350505050565b80516101008084528151908401819052600091610120850191602091820190845b8181101561279f57825185529383019391830191600101612783565b50505083810151908501526040808401518051828701526020810151606087015290810151608086015250606083015160a0850152608083015160c085015260a083015184820360e08601526127f58282612509565b95945050505050565b602081526000610d536020830184612762565b6000806040838503121561282457600080fd5b82356001600160401b0381111561283a57600080fd5b61284685828601612427565b95602094909401359450505050565b82815260808101610d5360208301848051825260208082015190830152604090810151910152565b6000806000806080858703121561289357600080fd5b84356001600160401b03808211156128aa57600080fd5b6128b688838901612682565b955060208701359150808211156128cc57600080fd5b6128d888838901612427565b94506040870135935060608701359150808211156128f557600080fd5b5061290287828801612427565b91505092959194509250565b6040815260006129216040830185612762565b82810360208401526127f5818561258b565b60006020828403121561294557600080fd5b81356001600160401b0381111561295b57600080fd5b61144a848285016123ae565b602081526000610d536020830184612544565b600082601f83011261298b57600080fd5b8135602061299b61236483612320565b82815260069290921b840181019181810190868411156129ba57600080fd5b8286015b848110156123a357604081890312156129d75760008081fd5b6129df6122ac565b8135815284820135858201528352918301916040016129be565b600080600060608486031215612a0e57600080fd5b83356001600160401b0380821115612a2557600080fd5b612a318783880161297a565b94506020860135915080821115612a4757600080fd5b612a5387838801612682565b93506040860135915080821115612a6957600080fd5b50612a7686828701612427565b9150509250925092565b602080825282518282018190526000919060409081850190868401855b828110156125d357815180518552860151868501529284019290850190600101612a9d565b600060c08284031215612ad457600080fd5b612adc6122ce565b9050813581526020612af084828501612627565b8183015260808301356001600160401b0380821115612b0e57600080fd5b818501915085601f830112612b2257600080fd5b8135612b3061236482612320565b81815260059190911b83018401908481019088831115612b4f57600080fd5b8585015b83811015612b8757803585811115612b6b5760008081fd5b612b798b89838a0101612682565b845250918601918601612b53565b506040870152505060a0850135925080831115612ba357600080fd5b5050612bb184828501612427565b60608301525092915050565b600080600060608486031215612bd257600080fd5b83356001600160401b0380821115612be957600080fd5b612a3187838801612ac2565b600081518084526020808501808196508360051b8101915082860160005b858110156125d3578284038952612c2b848351612544565b98850198935090840190600101612c13565b6000602080835260e0830184518285015281850151612c7360408601828051825260208082015190830152604090810151910152565b50604085015160c060a0860152805191829052610100600583901b8601810192918401919086019060005b81811015612ccc5760ff19888603018352612cba858551612762565b94509285019291850191600101612c9e565b505050506060850151848203601f190160c086015291506127f58183612bf5565b60008060408385031215612d0057600080fd5b82356001600160401b0380821115612d1757600080fd5b612d2386838701612ac2565b93506020850135915080821115612d3957600080fd5b506124ff85828601612ac2565b600080600060608486031215612d5b57600080fd5b83356001600160401b03811115612d7157600080fd5b61274c8682870161297a565b60008060408385031215612d9057600080fd5b82356001600160401b0380821115612da757600080fd5b6124dc86838701612682565b60008060408385031215612dc657600080fd5b82356001600160401b03811115612ddc57600080fd5b6128468582860161297a565b60008060408385031215612dfb57600080fd5b82356001600160401b0380821115612e1257600080fd5b612e1e86838701612427565b93506020850135915080821115612e3457600080fd5b506124ff858286016123ae565b600080600060608486031215612e5657600080fd5b83356001600160401b03811115612e6c57600080fd5b61274c86828701612427565b634e487b7160e01b600052603260045260246000fd5b634e487b7160e01b600052601160045260246000fd5b600082821015612eb657612eb6612e8e565b500390565b600060018201612ecd57612ecd612e8e565b5060010190565b6000816000190483118215151615612eee57612eee612e8e565b500290565b600082612f1057634e487b7160e01b600052601260045260246000fd5b500490565b60008219821115612f2857612f28612e8e565b500190565b600063ffffffff808316818103612f4657612f46612e8e565b600101939250505056fea2646970667358221220adaca638be5ec75144ad97b4ede88c6fcc05580e08b2aea38a3be2c0edb39bc264736f6c634300080d0033",
  "bytecodeSha1": "5ea582f5140b948aaa4f6ddf5a8f68c00630c8b2",
  "compiler": {
    "evm_version": "istanbul",
    "optimizer": {
      "enabled": true,
      "runs": 200
    },
    "version": "0.8.13+commit.abaa5c0e"
  },
  "contractName": "MarketLib",
  "language": "Solidity",
  "natspec": {
    "kind": "dev",
    "methods": {},
    "version": 1
  },
  "opcodes": "PUSH20 0x0 ADDRESS EQ PUSH1 0x80 PUSH1 0x40 MSTORE PUSH1 0x4 CALLDATASIZE LT PUSH2 0x1D9 JUMPI PUSH1 0x0 CALLDATALOAD PUSH1 0xE0 SHR DUP1 PUSH4 0x782B27BE GT PUSH2 0x10E JUMPI DUP1 PUSH4 0xD24D63FE GT PUSH2 0xAC JUMPI DUP1 PUSH4 0xEC2DDA4B GT PUSH2 0x7B JUMPI DUP1 PUSH4 0xEC2DDA4B EQ PUSH2 0x43D JUMPI DUP1 PUSH4 0xF31D34B2 EQ PUSH2 0x450 JUMPI DUP1 PUSH4 0xF4F1C9DD EQ PUSH2 0x463 JUMPI DUP1 PUSH4 0xF7EB9BB6 EQ PUSH2 0x476 JUMPI PUSH1 0x0 DUP1 REVERT JUMPDEST DUP1 PUSH4 0xD24D63FE EQ PUSH2 0x3F1 JUMPI DUP1 PUSH4 0xD6FD91F0 EQ PUSH2 0x404 JUMPI DUP1 PUSH4 0xE060DF66 EQ PUSH2 0x417 JUMPI DUP1 PUSH4 0xE23EDBEF EQ PUSH2 0x42A JUMPI PUSH1 0x0 DUP1 REVERT JUMPDEST DUP1 PUSH4 0x9FAB220F GT PUSH2 0xE8 JUMPI DUP1 PUSH4 0x9FAB220F EQ PUSH2 0x3A5 JUMPI DUP1 PUSH4 0xA76345C5 EQ PUSH2 0x3B8 JUMPI DUP1 PUSH4 0xA9C9269A EQ PUSH2 0x3CB JUMPI DUP1 PUSH4 0xBF07928F EQ PUSH2 0x3DE JUMPI PUSH1 0x0 DUP1 REVERT JUMPDEST DUP1 PUSH4 0x782B27BE EQ PUSH2 0x36C JUMPI DUP1 PUSH4 0x970BC4A3 EQ PUSH2 0x37F JUMPI DUP1 PUSH4 0x9B19F22C EQ PUSH2 0x392 JUMPI PUSH1 0x0 DUP1 REVERT JUMPDEST DUP1 PUSH4 0x65D9BCB9 GT PUSH2 0x17B JUMPI DUP1 PUSH4 0x6CC184B0 GT PUSH2 0x155 JUMPI DUP1 PUSH4 0x6CC184B0 EQ PUSH2 0x306 JUMPI DUP1 PUSH4 0x7071133E EQ PUSH2 0x319 JUMPI DUP1 PUSH4 0x742228D7 EQ PUSH2 0x339 JUMPI DUP1 PUSH4 0x7513CE1B EQ PUSH2 0x34C JUMPI PUSH1 0x0 DUP1 REVERT JUMPDEST DUP1 PUSH4 0x65D9BCB9 EQ PUSH2 0x2C0 JUMPI DUP1 PUSH4 0x66628D27 EQ PUSH2 0x2D3 JUMPI DUP1 PUSH4 0x6C1922C8 EQ PUSH2 0x2E6 JUMPI PUSH1 0x0 DUP1 REVERT JUMPDEST DUP1 PUSH4 0x34157036 GT PUSH2 0x1B7 JUMPI DUP1 PUSH4 0x34157036 EQ PUSH2 0x24A JUMPI DUP1 PUSH4 0x4BD40D43 EQ PUSH2 0x26B JUMPI DUP1 PUSH4 0x50308EDE EQ PUSH2 0x28C JUMPI DUP1 PUSH4 0x5640453D EQ PUSH2 0x2AD JUMPI PUSH1 0x0 DUP1 REVERT JUMPDEST DUP1 PUSH4 0x2A30A85C EQ PUSH2 0x1DE JUMPI DUP1 PUSH4 0x2EDB2199 EQ PUSH2 0x207 JUMPI DUP1 PUSH4 0x2FBF1F93 EQ PUSH2 0x22A JUMPI JUMPDEST PUSH1 0x0 DUP1 REVERT JUMPDEST PUSH2 0x1F1 PUSH2 0x1EC CALLDATASIZE PUSH1 0x4 PUSH2 0x24A6 JUMP JUMPDEST PUSH2 0x489 JUMP JUMPDEST PUSH1 0x40 MLOAD PUSH2 0x1FE SWAP2 SWAP1 PUSH2 0x25E0 JUMP JUMPDEST PUSH1 0x40 MLOAD DUP1 SWAP2 SUB SWAP1 RETURN JUMPDEST PUSH2 0x21A PUSH2 0x215 CALLDATASIZE PUSH1 0x4 PUSH2 0x25F3 JUMP JUMPDEST PUSH2 0x5AD JUMP JUMPDEST PUSH1 0x40 MLOAD SWAP1 ISZERO ISZERO DUP2 MSTORE PUSH1 0x20 ADD PUSH2 0x1FE JUMP JUMPDEST PUSH2 0x23D PUSH2 0x238 CALLDATASIZE PUSH1 0x4 PUSH2 0x2715 JUMP JUMPDEST PUSH2 0x5C0 JUMP JUMPDEST PUSH1 0x40 MLOAD PUSH2 0x1FE SWAP2 SWAP1 PUSH2 0x27FE JUMP JUMPDEST PUSH2 0x25D PUSH2 0x258 CALLDATASIZE PUSH1 0x4 PUSH2 0x2811 JUMP JUMPDEST PUSH2 0x634 JUMP JUMPDEST PUSH1 0x40 MLOAD PUSH2 0x1FE SWAP3 SWAP2 SWAP1 PUSH2 0x2855 JUMP JUMPDEST PUSH2 0x27E PUSH2 0x279 CALLDATASIZE PUSH1 0x4 PUSH2 0x25F3 JUMP JUMPDEST PUSH2 0x807 JUMP JUMPDEST PUSH1 0x40 MLOAD SWAP1 DUP2 MSTORE PUSH1 0x20 ADD PUSH2 0x1FE JUMP JUMPDEST PUSH2 0x29F PUSH2 0x29A CALLDATASIZE PUSH1 0x4 PUSH2 0x287D JUMP JUMPDEST PUSH2 0x814 JUMP JUMPDEST PUSH1 0x40 MLOAD PUSH2 0x1FE SWAP3 SWAP2 SWAP1 PUSH2 0x290E JUMP JUMPDEST PUSH2 0x27E PUSH2 0x2BB CALLDATASIZE PUSH1 0x4 PUSH2 0x2811 JUMP JUMPDEST PUSH2 0xA2C JUMP JUMPDEST PUSH2 0x1F1 PUSH2 0x2CE CALLDATASIZE PUSH1 0x4 PUSH2 0x25F3 JUMP JUMPDEST PUSH2 0xAA2 JUMP JUMPDEST PUSH2 0x27E PUSH2 0x2E1 CALLDATASIZE PUSH1 0x4 PUSH2 0x2811 JUMP JUMPDEST PUSH2 0xAB1 JUMP JUMPDEST PUSH2 0x2F9 PUSH2 0x2F4 CALLDATASIZE PUSH1 0x4 PUSH2 0x2933 JUMP JUMPDEST PUSH2 0xAFA JUMP JUMPDEST PUSH1 0x40 MLOAD PUSH2 0x1FE SWAP2 SWAP1 PUSH2 0x2967 JUMP JUMPDEST PUSH2 0x21A PUSH2 0x314 CALLDATASIZE PUSH1 0x4 PUSH2 0x2811 JUMP JUMPDEST PUSH2 0xB3E JUMP JUMPDEST PUSH2 0x32C PUSH2 0x327 CALLDATASIZE PUSH1 0x4 PUSH2 0x29F9 JUMP JUMPDEST PUSH2 0xB96 JUMP JUMPDEST PUSH1 0x40 MLOAD PUSH2 0x1FE SWAP2 SWAP1 PUSH2 0x2A80 JUMP JUMPDEST PUSH2 0x25D PUSH2 0x347 CALLDATASIZE PUSH1 0x4 PUSH2 0x25F3 JUMP JUMPDEST PUSH2 0xD5A JUMP JUMPDEST PUSH2 0x35F PUSH2 0x35A CALLDATASIZE PUSH1 0x4 PUSH2 0x2BBD JUMP JUMPDEST PUSH2 0xD94 JUMP JUMPDEST PUSH1 0x40 MLOAD PUSH2 0x1FE SWAP2 SWAP1 PUSH2 0x2C3D JUMP JUMPDEST PUSH2 0x1F1 PUSH2 0x37A CALLDATASIZE PUSH1 0x4 PUSH2 0x25F3 JUMP JUMPDEST PUSH2 0x1126 JUMP JUMPDEST PUSH2 0x27E PUSH2 0x38D CALLDATASIZE PUSH1 0x4 PUSH2 0x25F3 JUMP JUMPDEST PUSH2 0x136D JUMP JUMPDEST PUSH2 0x27E PUSH2 0x3A0 CALLDATASIZE PUSH1 0x4 PUSH2 0x2811 JUMP JUMPDEST PUSH2 0x1376 JUMP JUMPDEST PUSH2 0x35F PUSH2 0x3B3 CALLDATASIZE PUSH1 0x4 PUSH2 0x2CED JUMP JUMPDEST PUSH2 0x1452 JUMP JUMPDEST PUSH2 0x32C PUSH2 0x3C6 CALLDATASIZE PUSH1 0x4 PUSH2 0x2D46 JUMP JUMPDEST PUSH2 0x1831 JUMP JUMPDEST PUSH2 0x35F PUSH2 0x3D9 CALLDATASIZE PUSH1 0x4 PUSH2 0x2D7D JUMP JUMPDEST PUSH2 0x19C3 JUMP JUMPDEST PUSH2 0x1F1 PUSH2 0x3EC CALLDATASIZE PUSH1 0x4 PUSH2 0x24A6 JUMP JUMPDEST PUSH2 0x1A71 JUMP JUMPDEST PUSH2 0x27E PUSH2 0x3FF CALLDATASIZE PUSH1 0x4 PUSH2 0x2811 JUMP JUMPDEST PUSH2 0x1AB5 JUMP JUMPDEST PUSH2 0x32C PUSH2 0x412 CALLDATASIZE PUSH1 0x4 PUSH2 0x2D46 JUMP JUMPDEST PUSH2 0x1B38 JUMP JUMPDEST PUSH2 0x27E PUSH2 0x425 CALLDATASIZE PUSH1 0x4 PUSH2 0x25F3 JUMP JUMPDEST PUSH2 0x1CC3 JUMP JUMPDEST PUSH2 0x27E PUSH2 0x438 CALLDATASIZE PUSH1 0x4 PUSH2 0x2DB3 JUMP JUMPDEST PUSH2 0x1CD0 JUMP JUMPDEST PUSH2 0x1F1 PUSH2 0x44B CALLDATASIZE PUSH1 0x4 PUSH2 0x2DE8 JUMP JUMPDEST PUSH2 0x1D39 JUMP JUMPDEST PUSH2 0x1F1 PUSH2 0x45E CALLDATASIZE PUSH1 0x4 PUSH2 0x2E41 JUMP JUMPDEST PUSH2 0x1E1B JUMP JUMPDEST PUSH2 0x1F1 PUSH2 0x471 CALLDATASIZE PUSH1 0x4 PUSH2 0x24A6 JUMP JUMPDEST PUSH2 0x1ECA JUMP JUMPDEST PUSH2 0x1F1 PUSH2 0x484 CALLDATASIZE PUSH1 0x4 PUSH2 0x25F3 JUMP JUMPDEST PUSH2 0x1FE2 JUMP JUMPDEST PUSH1 0x60 DUP3 MLOAD PUSH1 0x1 PUSH1 0x1 PUSH1 0x40 SHL SUB DUP2 GT ISZERO PUSH2 0x4A4 JUMPI PUSH2 0x4A4 PUSH2 0x226E JUMP JUMPDEST PUSH1 0x40 MLOAD SWAP1 DUP1 DUP3 MSTORE DUP1 PUSH1 0x20 MUL PUSH1 0x20 ADD DUP3 ADD PUSH1 0x40 MSTORE DUP1 ISZERO PUSH2 0x4DD JUMPI DUP2 PUSH1 0x20 ADD JUMPDEST PUSH2 0x4CA PUSH2 0x2193 JUMP JUMPDEST DUP2 MSTORE PUSH1 0x20 ADD SWAP1 PUSH1 0x1 SWAP1 SUB SWAP1 DUP2 PUSH2 0x4C2 JUMPI SWAP1 POP JUMPDEST POP SWAP1 POP PUSH1 0x0 DUP1 JUMPDEST DUP5 MLOAD DUP2 LT ISZERO PUSH2 0x5A4 JUMPI PUSH1 0x0 PUSH2 0x511 DUP7 DUP4 DUP2 MLOAD DUP2 LT PUSH2 0x504 JUMPI PUSH2 0x504 PUSH2 0x2E78 JUMP JUMPDEST PUSH1 0x20 MUL PUSH1 0x20 ADD ADD MLOAD PUSH2 0xAFA JUMP JUMPDEST SWAP1 POP PUSH1 0x0 PUSH2 0x523 DUP7 DUP4 PUSH1 0x0 ADD MLOAD PUSH2 0xA2C JUMP JUMPDEST SWAP1 POP DUP2 PUSH1 0x40 ADD MLOAD DUP2 LT PUSH2 0x537 JUMPI POP POP PUSH2 0x592 JUMP JUMPDEST DUP1 DUP3 PUSH1 0x40 ADD DUP2 DUP2 MLOAD PUSH2 0x549 SWAP2 SWAP1 PUSH2 0x2EA4 JUMP JUMPDEST SWAP1 MSTORE POP PUSH1 0x60 DUP3 ADD MLOAD PUSH1 0x40 DUP4 ADD MLOAD LT ISZERO PUSH2 0x563 JUMPI POP POP PUSH2 0x592 JUMP JUMPDEST DUP2 DUP6 DUP6 DUP2 MLOAD DUP2 LT PUSH2 0x576 JUMPI PUSH2 0x576 PUSH2 0x2E78 JUMP JUMPDEST PUSH1 0x20 MUL PUSH1 0x20 ADD ADD DUP2 SWAP1 MSTORE POP DUP4 DUP1 PUSH2 0x58C SWAP1 PUSH2 0x2EBB JUMP JUMPDEST SWAP5 POP POP POP POP JUMPDEST DUP1 PUSH2 0x59C DUP2 PUSH2 0x2EBB JUMP JUMPDEST SWAP2 POP POP PUSH2 0x4E4 JUMP JUMPDEST POP DUP2 MSTORE SWAP3 SWAP2 POP POP JUMP JUMPDEST PUSH1 0x0 PUSH2 0x5BA DUP3 DUP4 MLOAD PUSH2 0xB3E JUMP JUMPDEST SWAP3 SWAP2 POP POP JUMP JUMPDEST PUSH2 0x5C8 PUSH2 0x21CC JUMP JUMPDEST POP PUSH1 0x40 DUP1 MLOAD PUSH1 0x2 DUP1 DUP3 MSTORE PUSH1 0x60 DUP3 ADD DUP4 MSTORE DUP6 SWAP3 PUSH1 0x20 DUP4 ADD SWAP1 DUP1 CALLDATASIZE DUP4 CALLDATACOPY POP POP POP DUP1 DUP3 MSTORE DUP1 MLOAD DUP5 SWAP2 SWAP1 PUSH1 0x0 SWAP1 PUSH2 0x5FD JUMPI PUSH2 0x5FD PUSH2 0x2E78 JUMP JUMPDEST PUSH1 0x20 MUL PUSH1 0x20 ADD ADD DUP2 DUP2 MSTORE POP POP DUP2 DUP2 PUSH1 0x0 ADD MLOAD PUSH1 0x1 DUP2 MLOAD DUP2 LT PUSH2 0x621 JUMPI PUSH2 0x621 PUSH2 0x2E78 JUMP JUMPDEST PUSH1 0x20 MUL PUSH1 0x20 ADD ADD DUP2 DUP2 MSTORE POP POP SWAP4 SWAP3 POP POP POP JUMP JUMPDEST PUSH1 0x0 PUSH2 0x65A PUSH1 0x40 MLOAD DUP1 PUSH1 0x60 ADD PUSH1 0x40 MSTORE DUP1 PUSH1 0x0 DUP2 MSTORE PUSH1 0x20 ADD PUSH1 0x0 DUP2 MSTORE PUSH1 0x20 ADD PUSH1 0x0 DUP2 MSTORE POP SWAP1 JUMP JUMPDEST PUSH1 0x0 JUMPDEST DUP4 DUP2 LT ISZERO PUSH2 0x7C6 JUMPI DUP2 MLOAD ISZERO DUP1 PUSH2 0x693 JUMPI POP DUP5 DUP2 DUP2 MLOAD DUP2 LT PUSH2 0x680 JUMPI PUSH2 0x680 PUSH2 0x2E78 JUMP JUMPDEST PUSH1 0x20 MUL PUSH1 0x20 ADD ADD MLOAD PUSH1 0x80 ADD MLOAD DUP3 PUSH1 0x0 ADD MLOAD GT JUMPDEST ISZERO PUSH2 0x6BC JUMPI DUP5 DUP2 DUP2 MLOAD DUP2 LT PUSH2 0x6AA JUMPI PUSH2 0x6AA PUSH2 0x2E78 JUMP JUMPDEST PUSH1 0x20 SWAP1 DUP2 MUL SWAP2 SWAP1 SWAP2 ADD ADD MLOAD PUSH1 0x80 ADD MLOAD DUP3 MSTORE JUMPDEST PUSH1 0x40 DUP3 ADD MLOAD ISZERO DUP1 PUSH2 0x6ED JUMPI POP DUP5 DUP2 DUP2 MLOAD DUP2 LT PUSH2 0x6DA JUMPI PUSH2 0x6DA PUSH2 0x2E78 JUMP JUMPDEST PUSH1 0x20 MUL PUSH1 0x20 ADD ADD MLOAD PUSH1 0x80 ADD MLOAD DUP3 PUSH1 0x40 ADD MLOAD LT JUMPDEST ISZERO PUSH2 0x71A JUMPI DUP5 DUP2 DUP2 MLOAD DUP2 LT PUSH2 0x704 JUMPI PUSH2 0x704 PUSH2 0x2E78 JUMP JUMPDEST PUSH1 0x20 MUL PUSH1 0x20 ADD ADD MLOAD PUSH1 0x80 ADD MLOAD DUP3 PUSH1 0x40 ADD DUP2 DUP2 MSTORE POP POP JUMPDEST PUSH8 0xDE0B6B3A7640000 DUP6 DUP3 DUP2 MLOAD DUP2 LT PUSH2 0x735 JUMPI PUSH2 0x735 PUSH2 0x2E78 JUMP JUMPDEST PUSH1 0x20 MUL PUSH1 0x20 ADD ADD MLOAD PUSH1 0x80 ADD MLOAD DUP7 DUP4 DUP2 MLOAD DUP2 LT PUSH2 0x753 JUMPI PUSH2 0x753 PUSH2 0x2E78 JUMP JUMPDEST PUSH1 0x20 MUL PUSH1 0x20 ADD ADD MLOAD PUSH1 0x40 ADD MLOAD PUSH2 0x769 SWAP2 SWAP1 PUSH2 0x2ED4 JUMP JUMPDEST PUSH2 0x773 SWAP2 SWAP1 PUSH2 0x2EF3 JUMP JUMPDEST DUP3 PUSH1 0x20 ADD DUP2 DUP2 MLOAD PUSH2 0x784 SWAP2 SWAP1 PUSH2 0x2F15 JUMP JUMPDEST SWAP1 MSTORE POP DUP5 MLOAD DUP6 SWAP1 DUP3 SWAP1 DUP2 LT PUSH2 0x79B JUMPI PUSH2 0x79B PUSH2 0x2E78 JUMP JUMPDEST PUSH1 0x20 MUL PUSH1 0x20 ADD ADD MLOAD PUSH1 0x40 ADD MLOAD DUP4 PUSH2 0x7B2 SWAP2 SWAP1 PUSH2 0x2F15 JUMP JUMPDEST SWAP3 POP DUP1 PUSH2 0x7BE DUP2 PUSH2 0x2EBB JUMP JUMPDEST SWAP2 POP POP PUSH2 0x65D JUMP JUMPDEST POP DUP2 PUSH1 0x0 SUB PUSH2 0x7D6 JUMPI PUSH1 0x0 PUSH2 0x7F9 JUMP JUMPDEST DUP2 DUP2 PUSH1 0x20 ADD MLOAD PUSH8 0xDE0B6B3A7640000 PUSH2 0x7EF SWAP2 SWAP1 PUSH2 0x2ED4 JUMP JUMPDEST PUSH2 0x7F9 SWAP2 SWAP1 PUSH2 0x2EF3 JUMP JUMPDEST PUSH1 0x20 DUP3 ADD MSTORE SWAP1 SWAP4 SWAP1 SWAP3 POP SWAP1 POP JUMP JUMPDEST PUSH1 0x0 PUSH2 0x5BA DUP3 DUP4 MLOAD PUSH2 0x1AB5 JUMP JUMPDEST PUSH2 0x81C PUSH2 0x21CC JUMP JUMPDEST PUSH1 0x20 DUP1 DUP7 ADD MLOAD SWAP1 DUP3 ADD MSTORE PUSH1 0x40 DUP1 DUP7 ADD MLOAD SWAP1 DUP3 ADD MSTORE DUP5 MLOAD MLOAD PUSH1 0x60 SWAP1 PUSH2 0x841 SWAP1 PUSH1 0x1 PUSH2 0x2F15 JUMP JUMPDEST PUSH1 0x1 PUSH1 0x1 PUSH1 0x40 SHL SUB DUP2 GT ISZERO PUSH2 0x858 JUMPI PUSH2 0x858 PUSH2 0x226E JUMP JUMPDEST PUSH1 0x40 MLOAD SWAP1 DUP1 DUP3 MSTORE DUP1 PUSH1 0x20 MUL PUSH1 0x20 ADD DUP3 ADD PUSH1 0x40 MSTORE DUP1 ISZERO PUSH2 0x881 JUMPI DUP2 PUSH1 0x20 ADD PUSH1 0x20 DUP3 MUL DUP1 CALLDATASIZE DUP4 CALLDATACOPY ADD SWAP1 POP JUMPDEST POP DUP3 MSTORE PUSH1 0x0 JUMPDEST DUP7 MLOAD MLOAD DUP2 LT ISZERO PUSH2 0x8EC JUMPI DUP7 MLOAD DUP1 MLOAD DUP3 SWAP1 DUP2 LT PUSH2 0x8A5 JUMPI PUSH2 0x8A5 PUSH2 0x2E78 JUMP JUMPDEST PUSH1 0x20 MUL PUSH1 0x20 ADD ADD MLOAD DUP4 PUSH1 0x0 ADD MLOAD DUP3 PUSH1 0x1 PUSH2 0x8BF SWAP2 SWAP1 PUSH2 0x2F15 JUMP JUMPDEST DUP2 MLOAD DUP2 LT PUSH2 0x8CF JUMPI PUSH2 0x8CF PUSH2 0x2E78 JUMP JUMPDEST PUSH1 0x20 SWAP1 DUP2 MUL SWAP2 SWAP1 SWAP2 ADD ADD MSTORE DUP1 PUSH2 0x8E4 DUP2 PUSH2 0x2EBB JUMP JUMPDEST SWAP2 POP POP PUSH2 0x887 JUMP JUMPDEST POP DUP4 DUP3 PUSH1 0x0 ADD MLOAD PUSH1 0x0 DUP2 MLOAD DUP2 LT PUSH2 0x905 JUMPI PUSH2 0x905 PUSH2 0x2E78 JUMP JUMPDEST PUSH1 0x20 SWAP1 DUP2 MUL SWAP2 SWAP1 SWAP2 ADD ADD MSTORE PUSH1 0xA0 DUP7 ADD MLOAD MLOAD PUSH2 0x921 SWAP1 PUSH1 0x1 PUSH2 0x2F15 JUMP JUMPDEST PUSH1 0x1 PUSH1 0x1 PUSH1 0x40 SHL SUB DUP2 GT ISZERO PUSH2 0x938 JUMPI PUSH2 0x938 PUSH2 0x226E JUMP JUMPDEST PUSH1 0x40 MLOAD SWAP1 DUP1 DUP3 MSTORE DUP1 PUSH1 0x20 MUL PUSH1 0x20 ADD DUP3 ADD PUSH1 0x40 MSTORE DUP1 ISZERO PUSH2 0x961 JUMPI DUP2 PUSH1 0x20 ADD PUSH1 0x20 DUP3 MUL DUP1 CALLDATASIZE DUP4 CALLDATACOPY ADD SWAP1 POP JUMPDEST POP PUSH1 0xA0 DUP4 ADD MSTORE PUSH1 0x0 JUMPDEST DUP7 PUSH1 0xA0 ADD MLOAD MLOAD DUP2 LT ISZERO PUSH2 0x9DE JUMPI DUP4 MLOAD DUP8 PUSH1 0xA0 ADD MLOAD DUP3 DUP2 MLOAD DUP2 LT PUSH2 0x98F JUMPI PUSH2 0x98F PUSH2 0x2E78 JUMP JUMPDEST PUSH1 0x20 MUL PUSH1 0x20 ADD ADD MLOAD PUSH2 0x9A1 SWAP2 SWAP1 PUSH2 0x2F15 JUMP JUMPDEST PUSH1 0xA0 DUP5 ADD MLOAD PUSH2 0x9B1 DUP4 PUSH1 0x1 PUSH2 0x2F15 JUMP JUMPDEST DUP2 MLOAD DUP2 LT PUSH2 0x9C1 JUMPI PUSH2 0x9C1 PUSH2 0x2E78 JUMP JUMPDEST PUSH1 0x20 SWAP1 DUP2 MUL SWAP2 SWAP1 SWAP2 ADD ADD MSTORE DUP1 PUSH2 0x9D6 DUP2 PUSH2 0x2EBB JUMP JUMPDEST SWAP2 POP POP PUSH2 0x96A JUMP JUMPDEST POP DUP3 MLOAD DUP3 PUSH1 0xA0 ADD MLOAD PUSH1 0x0 DUP2 MLOAD DUP2 LT PUSH2 0x9F8 JUMPI PUSH2 0x9F8 PUSH2 0x2E78 JUMP JUMPDEST PUSH1 0x20 MUL PUSH1 0x20 ADD ADD DUP2 DUP2 MSTORE POP POP DUP5 MLOAD DUP4 MLOAD PUSH2 0xA12 SWAP2 SWAP1 PUSH2 0x2F15 JUMP JUMPDEST PUSH1 0x80 DUP4 ADD MSTORE PUSH2 0xA21 DUP4 DUP7 PUSH2 0x1ECA JUMP JUMPDEST SWAP1 POP SWAP5 POP SWAP5 SWAP3 POP POP POP JUMP JUMPDEST PUSH1 0x0 DUP1 JUMPDEST DUP4 MLOAD DUP2 LT ISZERO PUSH2 0xA9B JUMPI DUP3 DUP5 DUP3 DUP2 MLOAD DUP2 LT PUSH2 0xA4C JUMPI PUSH2 0xA4C PUSH2 0x2E78 JUMP JUMPDEST PUSH1 0x20 MUL PUSH1 0x20 ADD ADD MLOAD PUSH1 0x0 ADD MLOAD SUB PUSH2 0xA89 JUMPI DUP4 DUP2 DUP2 MLOAD DUP2 LT PUSH2 0xA6F JUMPI PUSH2 0xA6F PUSH2 0x2E78 JUMP JUMPDEST PUSH1 0x20 MUL PUSH1 0x20 ADD ADD MLOAD PUSH1 0x40 ADD MLOAD DUP3 PUSH2 0xA86 SWAP2 SWAP1 PUSH2 0x2F15 JUMP JUMPDEST SWAP2 POP JUMPDEST DUP1 PUSH2 0xA93 DUP2 PUSH2 0x2EBB JUMP JUMPDEST SWAP2 POP POP PUSH2 0xA30 JUMP JUMPDEST POP SWAP3 SWAP2 POP POP JUMP JUMPDEST PUSH1 0x60 PUSH2 0x5BA DUP3 PUSH1 0x0 DUP5 MLOAD PUSH2 0x1E1B JUMP JUMPDEST PUSH1 0x0 DUP1 JUMPDEST DUP3 DUP2 LT ISZERO PUSH2 0xA9B JUMPI DUP4 DUP2 DUP2 MLOAD DUP2 LT PUSH2 0xACF JUMPI PUSH2 0xACF PUSH2 0x2E78 JUMP JUMPDEST PUSH1 0x20 MUL PUSH1 0x20 ADD ADD MLOAD PUSH1 0x40 ADD MLOAD DUP3 PUSH2 0xAE6 SWAP2 SWAP1 PUSH2 0x2F15 JUMP JUMPDEST SWAP2 POP DUP1 PUSH2 0xAF2 DUP2 PUSH2 0x2EBB JUMP JUMPDEST SWAP2 POP POP PUSH2 0xAB5 JUMP JUMPDEST PUSH2 0xB02 PUSH2 0x2193 JUMP JUMPDEST DUP2 MLOAD DUP2 MSTORE PUSH1 0x20 DUP1 DUP4 ADD MLOAD SWAP1 DUP3 ADD MSTORE PUSH1 0x40 DUP1 DUP4 ADD MLOAD SWAP1 DUP3 ADD MSTORE PUSH1 0x60 DUP1 DUP4 ADD MLOAD SWAP1 DUP3 ADD MSTORE PUSH1 0x80 DUP1 DUP4 ADD MLOAD SWAP1 DUP3 ADD MSTORE PUSH1 0xA0 SWAP2 DUP3 ADD MLOAD SWAP2 DUP2 ADD SWAP2 SWAP1 SWAP2 MSTORE SWAP1 JUMP JUMPDEST PUSH1 0x0 DUP1 JUMPDEST DUP3 DUP2 LT ISZERO PUSH2 0xB8C JUMPI PUSH1 0x0 DUP5 DUP3 DUP2 MLOAD DUP2 LT PUSH2 0xB5E JUMPI PUSH2 0xB5E PUSH2 0x2E78 JUMP JUMPDEST PUSH1 0x20 MUL PUSH1 0x20 ADD ADD MLOAD PUSH1 0x40 ADD MLOAD GT ISZERO PUSH2 0xB7A JUMPI PUSH1 0x1 SWAP2 POP POP PUSH2 0x5BA JUMP JUMPDEST DUP1 PUSH2 0xB84 DUP2 PUSH2 0x2EBB JUMP JUMPDEST SWAP2 POP POP PUSH2 0xB42 JUMP JUMPDEST POP PUSH1 0x0 SWAP4 SWAP3 POP POP POP JUMP JUMPDEST PUSH1 0xA0 DUP3 ADD MLOAD MLOAD DUP4 SWAP1 PUSH1 0x0 DUP2 SWAP1 SUB PUSH2 0xBAD JUMPI POP PUSH2 0xD53 JUMP JUMPDEST DUP3 MLOAD PUSH1 0x0 SWAP1 DUP2 JUMPDEST PUSH2 0xBBF DUP5 PUSH1 0x1 PUSH2 0x2F15 JUMP JUMPDEST DUP2 LT ISZERO PUSH2 0xD4E JUMPI PUSH1 0x0 DUP5 DUP3 SUB PUSH2 0xBD7 JUMPI POP PUSH1 0x0 PUSH2 0xC0D JUMP JUMPDEST PUSH1 0xA0 DUP9 ADD MLOAD DUP3 PUSH2 0xBE8 PUSH1 0x1 DUP9 PUSH2 0x2EA4 JUMP JUMPDEST PUSH2 0xBF2 SWAP2 SWAP1 PUSH2 0x2EA4 JUMP JUMPDEST DUP2 MLOAD DUP2 LT PUSH2 0xC02 JUMPI PUSH2 0xC02 PUSH2 0x2E78 JUMP JUMPDEST PUSH1 0x20 MUL PUSH1 0x20 ADD ADD MLOAD SWAP1 POP JUMPDEST PUSH1 0x0 DUP1 DUP3 JUMPDEST DUP6 DUP2 LT ISZERO PUSH2 0xCBC JUMPI DUP10 DUP2 DUP2 MLOAD DUP2 LT PUSH2 0xC2C JUMPI PUSH2 0xC2C PUSH2 0x2E78 JUMP JUMPDEST PUSH1 0x20 MUL PUSH1 0x20 ADD ADD MLOAD PUSH1 0x40 ADD MLOAD DUP3 PUSH2 0xC43 SWAP2 SWAP1 PUSH2 0x2F15 JUMP JUMPDEST SWAP2 POP PUSH8 0xDE0B6B3A7640000 DUP11 DUP3 DUP2 MLOAD DUP2 LT PUSH2 0xC60 JUMPI PUSH2 0xC60 PUSH2 0x2E78 JUMP JUMPDEST PUSH1 0x20 MUL PUSH1 0x20 ADD ADD MLOAD PUSH1 0x80 ADD MLOAD DUP12 DUP4 DUP2 MLOAD DUP2 LT PUSH2 0xC7E JUMPI PUSH2 0xC7E PUSH2 0x2E78 JUMP JUMPDEST PUSH1 0x20 MUL PUSH1 0x20 ADD ADD MLOAD PUSH1 0x40 ADD MLOAD PUSH2 0xC94 SWAP2 SWAP1 PUSH2 0x2ED4 JUMP JUMPDEST PUSH2 0xC9E SWAP2 SWAP1 PUSH2 0x2EF3 JUMP JUMPDEST PUSH2 0xCA8 SWAP1 DUP5 PUSH2 0x2F15 JUMP JUMPDEST SWAP3 POP DUP1 PUSH2 0xCB4 DUP2 PUSH2 0x2EBB JUMP JUMPDEST SWAP2 POP POP PUSH2 0xC12 JUMP JUMPDEST POP DUP4 ISZERO PUSH2 0xD37 JUMPI DUP10 MLOAD DUP1 MLOAD PUSH1 0x0 SWAP2 SWAP1 DUP7 SWAP1 PUSH2 0xCD9 SWAP1 PUSH1 0x1 SWAP1 PUSH2 0x2EA4 JUMP JUMPDEST PUSH2 0xCE3 SWAP2 SWAP1 PUSH2 0x2EA4 JUMP JUMPDEST DUP2 MLOAD DUP2 LT PUSH2 0xCF3 JUMPI PUSH2 0xCF3 PUSH2 0x2E78 JUMP JUMPDEST PUSH1 0x20 MUL PUSH1 0x20 ADD ADD MLOAD SWAP1 POP DUP7 DUP3 GT ISZERO PUSH2 0xD1B JUMPI PUSH2 0xD14 DUP10 DUP3 PUSH2 0x412 DUP11 DUP7 PUSH2 0x2EA4 JUMP JUMPDEST SWAP9 POP PUSH2 0xD35 JUMP JUMPDEST DUP7 DUP3 LT ISZERO PUSH2 0xD35 JUMPI PUSH2 0xD32 DUP10 DUP3 PUSH2 0x3C6 DUP6 DUP12 PUSH2 0x2EA4 JUMP JUMPDEST SWAP9 POP JUMPDEST POP JUMPDEST POP SWAP4 POP SWAP2 POP DUP1 PUSH2 0xD46 DUP2 PUSH2 0x2EBB JUMP JUMPDEST SWAP2 POP POP PUSH2 0xBB4 JUMP JUMPDEST POP POP POP POP JUMPDEST SWAP4 SWAP3 POP POP POP JUMP JUMPDEST PUSH1 0x0 PUSH2 0xD80 PUSH1 0x40 MLOAD DUP1 PUSH1 0x60 ADD PUSH1 0x40 MSTORE DUP1 PUSH1 0x0 DUP2 MSTORE PUSH1 0x20 ADD PUSH1 0x0 DUP2 MSTORE PUSH1 0x20 ADD PUSH1 0x0 DUP2 MSTORE POP SWAP1 JUMP JUMPDEST PUSH2 0xD8B DUP4 DUP5 MLOAD PUSH2 0x634 JUMP JUMPDEST SWAP2 POP SWAP2 POP SWAP2 POP SWAP2 JUMP JUMPDEST PUSH2 0xD9C PUSH2 0x2224 JUMP JUMPDEST DUP4 MLOAD DUP2 MSTORE PUSH1 0x20 DUP1 DUP6 ADD MLOAD SWAP1 DUP3 ADD MSTORE PUSH1 0x80 DUP4 ADD MLOAD PUSH1 0x60 DUP6 ADD MLOAD MLOAD PUSH2 0xDBF SWAP2 SWAP1 PUSH2 0x2F15 JUMP JUMPDEST PUSH1 0x1 PUSH1 0x1 PUSH1 0x40 SHL SUB DUP2 GT ISZERO PUSH2 0xDD6 JUMPI PUSH2 0xDD6 PUSH2 0x226E JUMP JUMPDEST PUSH1 0x40 MLOAD SWAP1 DUP1 DUP3 MSTORE DUP1 PUSH1 0x20 MUL PUSH1 0x20 ADD DUP3 ADD PUSH1 0x40 MSTORE DUP1 ISZERO PUSH2 0xE0F JUMPI DUP2 PUSH1 0x20 ADD JUMPDEST PUSH2 0xDFC PUSH2 0x2193 JUMP JUMPDEST DUP2 MSTORE PUSH1 0x20 ADD SWAP1 PUSH1 0x1 SWAP1 SUB SWAP1 DUP2 PUSH2 0xDF4 JUMPI SWAP1 POP JUMPDEST POP PUSH1 0x60 DUP3 ADD MSTORE PUSH1 0x0 JUMPDEST DUP5 PUSH1 0x60 ADD MLOAD MLOAD DUP2 LT ISZERO PUSH2 0xE77 JUMPI DUP5 PUSH1 0x60 ADD MLOAD DUP2 DUP2 MLOAD DUP2 LT PUSH2 0xE3B JUMPI PUSH2 0xE3B PUSH2 0x2E78 JUMP JUMPDEST PUSH1 0x20 MUL PUSH1 0x20 ADD ADD MLOAD DUP3 PUSH1 0x60 ADD MLOAD DUP3 DUP2 MLOAD DUP2 LT PUSH2 0xE59 JUMPI PUSH2 0xE59 PUSH2 0x2E78 JUMP JUMPDEST PUSH1 0x20 MUL PUSH1 0x20 ADD ADD DUP2 SWAP1 MSTORE POP DUP1 DUP1 PUSH2 0xE6F SWAP1 PUSH2 0x2EBB JUMP JUMPDEST SWAP2 POP POP PUSH2 0xE18 JUMP JUMPDEST POP PUSH1 0x0 JUMPDEST DUP4 PUSH1 0x80 ADD MLOAD DUP2 LT ISZERO PUSH2 0xEF4 JUMPI DUP3 DUP2 DUP6 PUSH1 0x60 ADD MLOAD PUSH2 0xE98 SWAP2 SWAP1 PUSH2 0x2F15 JUMP JUMPDEST DUP2 MLOAD DUP2 LT PUSH2 0xEA8 JUMPI PUSH2 0xEA8 PUSH2 0x2E78 JUMP JUMPDEST PUSH1 0x20 MUL PUSH1 0x20 ADD ADD MLOAD DUP3 PUSH1 0x60 ADD MLOAD DUP3 DUP8 PUSH1 0x60 ADD MLOAD MLOAD PUSH2 0xEC6 SWAP2 SWAP1 PUSH2 0x2F15 JUMP JUMPDEST DUP2 MLOAD DUP2 LT PUSH2 0xED6 JUMPI PUSH2 0xED6 PUSH2 0x2E78 JUMP JUMPDEST PUSH1 0x20 MUL PUSH1 0x20 ADD ADD DUP2 SWAP1 MSTORE POP DUP1 DUP1 PUSH2 0xEEC SWAP1 PUSH2 0x2EBB JUMP JUMPDEST SWAP2 POP POP PUSH2 0xE7B JUMP JUMPDEST POP PUSH1 0x40 DUP5 ADD MLOAD MLOAD PUSH2 0xF06 SWAP1 PUSH1 0x1 PUSH2 0x2F15 JUMP JUMPDEST PUSH1 0x1 PUSH1 0x1 PUSH1 0x40 SHL SUB DUP2 GT ISZERO PUSH2 0xF1D JUMPI PUSH2 0xF1D PUSH2 0x226E JUMP JUMPDEST PUSH1 0x40 MLOAD SWAP1 DUP1 DUP3 MSTORE DUP1 PUSH1 0x20 MUL PUSH1 0x20 ADD DUP3 ADD PUSH1 0x40 MSTORE DUP1 ISZERO PUSH2 0xF56 JUMPI DUP2 PUSH1 0x20 ADD JUMPDEST PUSH2 0xF43 PUSH2 0x21CC JUMP JUMPDEST DUP2 MSTORE PUSH1 0x20 ADD SWAP1 PUSH1 0x1 SWAP1 SUB SWAP1 DUP2 PUSH2 0xF3B JUMPI SWAP1 POP JUMPDEST POP PUSH1 0x40 DUP3 ADD MSTORE PUSH1 0x0 JUMPDEST DUP5 PUSH1 0x40 ADD MLOAD MLOAD DUP2 LT ISZERO PUSH2 0xFBE JUMPI DUP5 PUSH1 0x40 ADD MLOAD DUP2 DUP2 MLOAD DUP2 LT PUSH2 0xF82 JUMPI PUSH2 0xF82 PUSH2 0x2E78 JUMP JUMPDEST PUSH1 0x20 MUL PUSH1 0x20 ADD ADD MLOAD DUP3 PUSH1 0x40 ADD MLOAD DUP3 DUP2 MLOAD DUP2 LT PUSH2 0xFA0 JUMPI PUSH2 0xFA0 PUSH2 0x2E78 JUMP JUMPDEST PUSH1 0x20 MUL PUSH1 0x20 ADD ADD DUP2 SWAP1 MSTORE POP DUP1 DUP1 PUSH2 0xFB6 SWAP1 PUSH2 0x2EBB JUMP JUMPDEST SWAP2 POP POP PUSH2 0xF5F JUMP JUMPDEST POP DUP3 DUP2 PUSH1 0x40 ADD MLOAD DUP6 PUSH1 0x40 ADD MLOAD MLOAD DUP2 MLOAD DUP2 LT PUSH2 0xFDB JUMPI PUSH2 0xFDB PUSH2 0x2E78 JUMP JUMPDEST PUSH1 0x20 MUL PUSH1 0x20 ADD ADD DUP2 SWAP1 MSTORE POP DUP4 PUSH1 0x60 ADD MLOAD MLOAD DUP2 PUSH1 0x40 ADD MLOAD DUP6 PUSH1 0x40 ADD MLOAD MLOAD DUP2 MLOAD DUP2 LT PUSH2 0x1007 JUMPI PUSH2 0x1007 PUSH2 0x2E78 JUMP JUMPDEST PUSH1 0x20 SWAP1 DUP2 MUL SWAP2 SWAP1 SWAP2 ADD ADD MLOAD PUSH1 0x60 ADD MSTORE PUSH1 0x40 DUP5 ADD MLOAD MLOAD ISZERO PUSH2 0x1048 JUMPI PUSH1 0x40 DUP4 ADD MLOAD MLOAD PUSH1 0x20 DUP3 ADD MLOAD MLOAD GT PUSH2 0x103D JUMPI PUSH1 0x20 DUP2 ADD MLOAD MLOAD PUSH2 0x104F JUMP JUMPDEST PUSH1 0x40 DUP4 ADD MLOAD MLOAD PUSH2 0x104F JUMP JUMPDEST PUSH1 0x40 DUP4 ADD MLOAD MLOAD JUMPDEST PUSH1 0x20 DUP3 ADD DUP1 MLOAD SWAP2 SWAP1 SWAP2 MSTORE PUSH1 0x40 DUP1 DUP6 ADD MLOAD DUP2 ADD MLOAD SWAP2 MLOAD ADD MLOAD LT PUSH2 0x1079 JUMPI DUP1 PUSH1 0x20 ADD MLOAD PUSH1 0x40 ADD MLOAD PUSH2 0x1083 JUMP JUMPDEST DUP3 PUSH1 0x40 ADD MLOAD PUSH1 0x40 ADD MLOAD JUMPDEST PUSH1 0x20 DUP1 DUP4 ADD MLOAD PUSH1 0x40 ADD SWAP2 SWAP1 SWAP2 MSTORE DUP4 ADD MLOAD DUP2 MLOAD PUSH2 0x109F SWAP2 SWAP1 PUSH2 0x2F15 JUMP JUMPDEST PUSH1 0x0 SUB PUSH2 0x10AD JUMPI PUSH1 0x0 PUSH2 0x10FE JUMP JUMPDEST PUSH1 0x20 DUP4 ADD MLOAD DUP2 MLOAD PUSH2 0x10BE SWAP2 SWAP1 PUSH2 0x2F15 JUMP JUMPDEST DUP4 PUSH1 0x20 ADD MLOAD DUP5 PUSH1 0x40 ADD MLOAD PUSH1 0x20 ADD MLOAD PUSH2 0x10D6 SWAP2 SWAP1 PUSH2 0x2ED4 JUMP JUMPDEST DUP3 MLOAD PUSH1 0x20 DUP1 DUP6 ADD MLOAD ADD MLOAD PUSH2 0x10EA SWAP2 SWAP1 PUSH2 0x2ED4 JUMP JUMPDEST PUSH2 0x10F4 SWAP2 SWAP1 PUSH2 0x2F15 JUMP JUMPDEST PUSH2 0x10FE SWAP2 SWAP1 PUSH2 0x2EF3 JUMP JUMPDEST PUSH1 0x20 DUP1 DUP4 ADD MLOAD DUP2 ADD SWAP2 SWAP1 SWAP2 MSTORE DUP4 ADD MLOAD DUP2 MLOAD DUP3 SWAP1 PUSH2 0x111C SWAP1 DUP4 SWAP1 PUSH2 0x2F15 JUMP JUMPDEST SWAP1 MSTORE POP SWAP4 SWAP3 POP POP POP JUMP JUMPDEST PUSH1 0x60 DUP2 MLOAD PUSH1 0x1 PUSH1 0x1 PUSH1 0x40 SHL SUB DUP2 GT ISZERO PUSH2 0x1141 JUMPI PUSH2 0x1141 PUSH2 0x226E JUMP JUMPDEST PUSH1 0x40 MLOAD SWAP1 DUP1 DUP3 MSTORE DUP1 PUSH1 0x20 MUL PUSH1 0x20 ADD DUP3 ADD PUSH1 0x40 MSTORE DUP1 ISZERO PUSH2 0x117A JUMPI DUP2 PUSH1 0x20 ADD JUMPDEST PUSH2 0x1167 PUSH2 0x2193 JUMP JUMPDEST DUP2 MSTORE PUSH1 0x20 ADD SWAP1 PUSH1 0x1 SWAP1 SUB SWAP1 DUP2 PUSH2 0x115F JUMPI SWAP1 POP JUMPDEST POP SWAP1 POP PUSH1 0x0 DUP1 JUMPDEST DUP4 MLOAD DUP2 LT ISZERO PUSH2 0x1366 JUMPI PUSH1 0x0 DUP5 DUP3 DUP2 MLOAD DUP2 LT PUSH2 0x119E JUMPI PUSH2 0x119E PUSH2 0x2E78 JUMP JUMPDEST PUSH1 0x20 MUL PUSH1 0x20 ADD ADD MLOAD SWAP1 POP PUSH1 0x0 JUMPDEST DUP4 DUP2 PUSH4 0xFFFFFFFF AND LT ISZERO PUSH2 0x12BB JUMPI DUP2 PUSH1 0x60 ADD MLOAD DUP6 DUP3 PUSH4 0xFFFFFFFF AND DUP2 MLOAD DUP2 LT PUSH2 0x11D6 JUMPI PUSH2 0x11D6 PUSH2 0x2E78 JUMP JUMPDEST PUSH1 0x20 MUL PUSH1 0x20 ADD ADD MLOAD PUSH1 0x60 ADD MLOAD LT DUP1 PUSH2 0x1245 JUMPI POP DUP2 PUSH1 0x60 ADD MLOAD DUP6 DUP3 PUSH4 0xFFFFFFFF AND DUP2 MLOAD DUP2 LT PUSH2 0x1206 JUMPI PUSH2 0x1206 PUSH2 0x2E78 JUMP JUMPDEST PUSH1 0x20 MUL PUSH1 0x20 ADD ADD MLOAD PUSH1 0x60 ADD MLOAD EQ DUP1 ISZERO PUSH2 0x1245 JUMPI POP DUP2 PUSH1 0x80 ADD MLOAD DUP6 DUP3 PUSH4 0xFFFFFFFF AND DUP2 MLOAD DUP2 LT PUSH2 0x1237 JUMPI PUSH2 0x1237 PUSH2 0x2E78 JUMP JUMPDEST PUSH1 0x20 MUL PUSH1 0x20 ADD ADD MLOAD PUSH1 0x80 ADD MLOAD GT JUMPDEST ISZERO PUSH2 0x12A9 JUMPI PUSH1 0x0 DUP6 DUP3 PUSH4 0xFFFFFFFF AND DUP2 MLOAD DUP2 LT PUSH2 0x1264 JUMPI PUSH2 0x1264 PUSH2 0x2E78 JUMP JUMPDEST PUSH1 0x20 MUL PUSH1 0x20 ADD ADD MLOAD SWAP1 POP DUP3 DUP7 DUP4 PUSH4 0xFFFFFFFF AND DUP2 MLOAD DUP2 LT PUSH2 0x1287 JUMPI PUSH2 0x1287 PUSH2 0x2E78 JUMP JUMPDEST PUSH1 0x20 MUL PUSH1 0x20 ADD ADD DUP2 SWAP1 MSTORE POP DUP1 SWAP3 POP DUP2 DUP1 PUSH2 0x12A0 SWAP1 PUSH2 0x2F2D JUMP JUMPDEST SWAP3 POP POP POP PUSH2 0x12BB JUMP JUMPDEST DUP1 PUSH2 0x12B3 DUP2 PUSH2 0x2F2D JUMP JUMPDEST SWAP2 POP POP PUSH2 0x11AB JUMP JUMPDEST DUP4 DUP2 PUSH4 0xFFFFFFFF AND LT ISZERO PUSH2 0x1325 JUMPI PUSH1 0x0 DUP6 DUP3 PUSH4 0xFFFFFFFF AND DUP2 MLOAD DUP2 LT PUSH2 0x12E3 JUMPI PUSH2 0x12E3 PUSH2 0x2E78 JUMP JUMPDEST PUSH1 0x20 MUL PUSH1 0x20 ADD ADD MLOAD SWAP1 POP DUP3 DUP7 DUP4 PUSH4 0xFFFFFFFF AND DUP2 MLOAD DUP2 LT PUSH2 0x1306 JUMPI PUSH2 0x1306 PUSH2 0x2E78 JUMP JUMPDEST PUSH1 0x20 SWAP1 DUP2 MUL SWAP2 SWAP1 SWAP2 ADD ADD MSTORE SWAP2 POP DUP1 PUSH2 0x131D DUP2 PUSH2 0x2F2D JUMP JUMPDEST SWAP2 POP POP PUSH2 0x12BB JUMP JUMPDEST DUP2 DUP6 DUP6 DUP2 MLOAD DUP2 LT PUSH2 0x1338 JUMPI PUSH2 0x1338 PUSH2 0x2E78 JUMP JUMPDEST PUSH1 0x20 MUL PUSH1 0x20 ADD ADD DUP2 SWAP1 MSTORE POP DUP4 DUP1 PUSH2 0x134E SWAP1 PUSH2 0x2EBB JUMP JUMPDEST SWAP5 POP POP POP POP DUP1 DUP1 PUSH2 0x135E SWAP1 PUSH2 0x2EBB JUMP JUMPDEST SWAP2 POP POP PUSH2 0x1181 JUMP JUMPDEST POP POP SWAP2 SWAP1 POP JUMP JUMPDEST PUSH1 0x0 PUSH2 0x5BA DUP3 DUP4 MLOAD JUMPDEST PUSH1 0x0 DUP1 PUSH1 0x0 JUMPDEST DUP4 DUP2 LT ISZERO PUSH2 0x1426 JUMPI PUSH8 0xDE0B6B3A7640000 DUP6 DUP3 DUP2 MLOAD DUP2 LT PUSH2 0x139F JUMPI PUSH2 0x139F PUSH2 0x2E78 JUMP JUMPDEST PUSH1 0x20 MUL PUSH1 0x20 ADD ADD MLOAD PUSH1 0x80 ADD MLOAD DUP7 DUP4 DUP2 MLOAD DUP2 LT PUSH2 0x13BD JUMPI PUSH2 0x13BD PUSH2 0x2E78 JUMP JUMPDEST PUSH1 0x20 MUL PUSH1 0x20 ADD ADD MLOAD PUSH1 0x40 ADD MLOAD PUSH2 0x13D3 SWAP2 SWAP1 PUSH2 0x2ED4 JUMP JUMPDEST PUSH2 0x13DD SWAP2 SWAP1 PUSH2 0x2EF3 JUMP JUMPDEST PUSH2 0x13E7 SWAP1 DUP5 PUSH2 0x2F15 JUMP JUMPDEST SWAP3 POP DUP5 DUP2 DUP2 MLOAD DUP2 LT PUSH2 0x13FB JUMPI PUSH2 0x13FB PUSH2 0x2E78 JUMP JUMPDEST PUSH1 0x20 MUL PUSH1 0x20 ADD ADD MLOAD PUSH1 0x40 ADD MLOAD DUP3 PUSH2 0x1412 SWAP2 SWAP1 PUSH2 0x2F15 JUMP JUMPDEST SWAP2 POP DUP1 PUSH2 0x141E DUP2 PUSH2 0x2EBB JUMP JUMPDEST SWAP2 POP POP PUSH2 0x137C JUMP JUMPDEST POP DUP1 ISZERO PUSH2 0xA9B JUMPI DUP1 PUSH2 0x1440 DUP4 PUSH8 0xDE0B6B3A7640000 PUSH2 0x2ED4 JUMP JUMPDEST PUSH2 0x144A SWAP2 SWAP1 PUSH2 0x2EF3 JUMP JUMPDEST SWAP5 SWAP4 POP POP POP POP JUMP JUMPDEST PUSH2 0x145A PUSH2 0x2224 JUMP JUMPDEST DUP3 MLOAD DUP2 MSTORE PUSH1 0x20 DUP1 DUP5 ADD MLOAD SWAP1 DUP3 ADD MSTORE PUSH1 0x40 DUP1 DUP4 ADD MLOAD MLOAD SWAP1 DUP5 ADD MLOAD MLOAD PUSH2 0x147E SWAP2 SWAP1 PUSH2 0x2F15 JUMP JUMPDEST PUSH1 0x1 PUSH1 0x1 PUSH1 0x40 SHL SUB DUP2 GT ISZERO PUSH2 0x1495 JUMPI PUSH2 0x1495 PUSH2 0x226E JUMP JUMPDEST PUSH1 0x40 MLOAD SWAP1 DUP1 DUP3 MSTORE DUP1 PUSH1 0x20 MUL PUSH1 0x20 ADD DUP3 ADD PUSH1 0x40 MSTORE DUP1 ISZERO PUSH2 0x14CE JUMPI DUP2 PUSH1 0x20 ADD JUMPDEST PUSH2 0x14BB PUSH2 0x21CC JUMP JUMPDEST DUP2 MSTORE PUSH1 0x20 ADD SWAP1 PUSH1 0x1 SWAP1 SUB SWAP1 DUP2 PUSH2 0x14B3 JUMPI SWAP1 POP JUMPDEST POP PUSH1 0x40 DUP3 ADD MSTORE PUSH1 0x0 JUMPDEST DUP4 PUSH1 0x40 ADD MLOAD MLOAD DUP2 LT ISZERO PUSH2 0x1536 JUMPI DUP4 PUSH1 0x40 ADD MLOAD DUP2 DUP2 MLOAD DUP2 LT PUSH2 0x14FA JUMPI PUSH2 0x14FA PUSH2 0x2E78 JUMP JUMPDEST PUSH1 0x20 MUL PUSH1 0x20 ADD ADD MLOAD DUP3 PUSH1 0x40 ADD MLOAD DUP3 DUP2 MLOAD DUP2 LT PUSH2 0x1518 JUMPI PUSH2 0x1518 PUSH2 0x2E78 JUMP JUMPDEST PUSH1 0x20 MUL PUSH1 0x20 ADD ADD DUP2 SWAP1 MSTORE POP DUP1 DUP1 PUSH2 0x152E SWAP1 PUSH2 0x2EBB JUMP JUMPDEST SWAP2 POP POP PUSH2 0x14D7 JUMP JUMPDEST POP PUSH1 0x0 JUMPDEST DUP3 PUSH1 0x40 ADD MLOAD MLOAD DUP2 LT ISZERO PUSH2 0x15EF JUMPI DUP3 PUSH1 0x40 ADD MLOAD DUP2 DUP2 MLOAD DUP2 LT PUSH2 0x155D JUMPI PUSH2 0x155D PUSH2 0x2E78 JUMP JUMPDEST PUSH1 0x20 MUL PUSH1 0x20 ADD ADD MLOAD DUP3 PUSH1 0x40 ADD MLOAD DUP3 DUP7 PUSH1 0x40 ADD MLOAD MLOAD PUSH2 0x157B SWAP2 SWAP1 PUSH2 0x2F15 JUMP JUMPDEST DUP2 MLOAD DUP2 LT PUSH2 0x158B JUMPI PUSH2 0x158B PUSH2 0x2E78 JUMP JUMPDEST PUSH1 0x20 MUL PUSH1 0x20 ADD ADD DUP2 SWAP1 MSTORE POP DUP4 PUSH1 0x60 ADD MLOAD MLOAD DUP3 PUSH1 0x40 ADD MLOAD DUP3 DUP7 PUSH1 0x40 ADD MLOAD MLOAD PUSH2 0x15B2 SWAP2 SWAP1 PUSH2 0x2F15 JUMP JUMPDEST DUP2 MLOAD DUP2 LT PUSH2 0x15C2 JUMPI PUSH2 0x15C2 PUSH2 0x2E78 JUMP JUMPDEST PUSH1 0x20 MUL PUSH1 0x20 ADD ADD MLOAD PUSH1 0x60 ADD DUP2 DUP2 MLOAD PUSH2 0x15DA SWAP2 SWAP1 PUSH2 0x2F15 JUMP JUMPDEST SWAP1 MSTORE POP DUP1 PUSH2 0x15E7 DUP2 PUSH2 0x2EBB JUMP JUMPDEST SWAP2 POP POP PUSH2 0x153A JUMP JUMPDEST POP DUP2 PUSH1 0x60 ADD MLOAD MLOAD DUP4 PUSH1 0x60 ADD MLOAD MLOAD PUSH2 0x1606 SWAP2 SWAP1 PUSH2 0x2F15 JUMP JUMPDEST PUSH1 0x1 PUSH1 0x1 PUSH1 0x40 SHL SUB DUP2 GT ISZERO PUSH2 0x161D JUMPI PUSH2 0x161D PUSH2 0x226E JUMP JUMPDEST PUSH1 0x40 MLOAD SWAP1 DUP1 DUP3 MSTORE DUP1 PUSH1 0x20 MUL PUSH1 0x20 ADD DUP3 ADD PUSH1 0x40 MSTORE DUP1 ISZERO PUSH2 0x1656 JUMPI DUP2 PUSH1 0x20 ADD JUMPDEST PUSH2 0x1643 PUSH2 0x2193 JUMP JUMPDEST DUP2 MSTORE PUSH1 0x20 ADD SWAP1 PUSH1 0x1 SWAP1 SUB SWAP1 DUP2 PUSH2 0x163B JUMPI SWAP1 POP JUMPDEST POP PUSH1 0x60 DUP3 ADD MSTORE PUSH1 0x0 JUMPDEST DUP4 PUSH1 0x60 ADD MLOAD MLOAD DUP2 LT ISZERO PUSH2 0x16BE JUMPI DUP4 PUSH1 0x60 ADD MLOAD DUP2 DUP2 MLOAD DUP2 LT PUSH2 0x1682 JUMPI PUSH2 0x1682 PUSH2 0x2E78 JUMP JUMPDEST PUSH1 0x20 MUL PUSH1 0x20 ADD ADD MLOAD DUP3 PUSH1 0x60 ADD MLOAD DUP3 DUP2 MLOAD DUP2 LT PUSH2 0x16A0 JUMPI PUSH2 0x16A0 PUSH2 0x2E78 JUMP JUMPDEST PUSH1 0x20 MUL PUSH1 0x20 ADD ADD DUP2 SWAP1 MSTORE POP DUP1 DUP1 PUSH2 0x16B6 SWAP1 PUSH2 0x2EBB JUMP JUMPDEST SWAP2 POP POP PUSH2 0x165F JUMP JUMPDEST POP PUSH1 0x0 JUMPDEST DUP3 PUSH1 0x60 ADD MLOAD MLOAD DUP2 LT ISZERO PUSH2 0x1731 JUMPI DUP3 PUSH1 0x60 ADD MLOAD DUP2 DUP2 MLOAD DUP2 LT PUSH2 0x16E5 JUMPI PUSH2 0x16E5 PUSH2 0x2E78 JUMP JUMPDEST PUSH1 0x20 MUL PUSH1 0x20 ADD ADD MLOAD DUP3 PUSH1 0x60 ADD MLOAD DUP3 DUP7 PUSH1 0x60 ADD MLOAD MLOAD PUSH2 0x1703 SWAP2 SWAP1 PUSH2 0x2F15 JUMP JUMPDEST DUP2 MLOAD DUP2 LT PUSH2 0x1713 JUMPI PUSH2 0x1713 PUSH2 0x2E78 JUMP JUMPDEST PUSH1 0x20 MUL PUSH1 0x20 ADD ADD DUP2 SWAP1 MSTORE POP DUP1 DUP1 PUSH2 0x1729 SWAP1 PUSH2 0x2EBB JUMP JUMPDEST SWAP2 POP POP PUSH2 0x16C2 JUMP JUMPDEST POP PUSH1 0x40 DUP4 ADD MLOAD MLOAD ISZERO PUSH2 0x1764 JUMPI PUSH1 0x20 DUP1 DUP4 ADD MLOAD MLOAD SWAP1 DUP3 ADD MLOAD MLOAD GT PUSH2 0x1759 JUMPI PUSH1 0x20 DUP2 ADD MLOAD MLOAD PUSH2 0x176B JUMP JUMPDEST PUSH1 0x20 DUP3 ADD MLOAD MLOAD PUSH2 0x176B JUMP JUMPDEST PUSH1 0x20 DUP3 ADD MLOAD MLOAD JUMPDEST PUSH1 0x20 DUP1 DUP4 ADD DUP1 MLOAD SWAP3 SWAP1 SWAP3 MSTORE DUP4 ADD MLOAD PUSH1 0x40 SWAP1 DUP2 ADD MLOAD SWAP2 MLOAD ADD MLOAD LT PUSH2 0x1796 JUMPI DUP1 PUSH1 0x20 ADD MLOAD PUSH1 0x40 ADD MLOAD PUSH2 0x17A0 JUMP JUMPDEST DUP2 PUSH1 0x20 ADD MLOAD PUSH1 0x40 ADD MLOAD JUMPDEST PUSH1 0x20 DUP3 ADD MLOAD PUSH1 0x40 ADD MSTORE DUP2 MLOAD DUP2 MLOAD PUSH2 0x17B7 SWAP2 SWAP1 PUSH2 0x2F15 JUMP JUMPDEST PUSH1 0x0 SUB PUSH2 0x17C5 JUMPI PUSH1 0x0 PUSH2 0x180F JUMP JUMPDEST DUP2 MLOAD DUP2 MLOAD PUSH2 0x17D3 SWAP2 SWAP1 PUSH2 0x2F15 JUMP JUMPDEST DUP3 MLOAD PUSH1 0x20 DUP1 DUP6 ADD MLOAD ADD MLOAD PUSH2 0x17E7 SWAP2 SWAP1 PUSH2 0x2ED4 JUMP JUMPDEST DUP3 MLOAD PUSH1 0x20 DUP1 DUP6 ADD MLOAD ADD MLOAD PUSH2 0x17FB SWAP2 SWAP1 PUSH2 0x2ED4 JUMP JUMPDEST PUSH2 0x1805 SWAP2 SWAP1 PUSH2 0x2F15 JUMP JUMPDEST PUSH2 0x180F SWAP2 SWAP1 PUSH2 0x2EF3 JUMP JUMPDEST PUSH1 0x20 DUP1 DUP4 ADD MLOAD ADD MSTORE DUP2 MLOAD DUP2 MLOAD DUP3 SWAP1 PUSH2 0x1828 SWAP1 DUP4 SWAP1 PUSH2 0x2F15 JUMP JUMPDEST SWAP1 MSTORE POP SWAP3 SWAP2 POP POP JUMP JUMPDEST DUP3 PUSH1 0x0 JUMPDEST DUP2 MLOAD DUP2 LT ISZERO PUSH2 0x19BB JUMPI DUP4 DUP3 DUP3 DUP2 MLOAD DUP2 LT PUSH2 0x1851 JUMPI PUSH2 0x1851 PUSH2 0x2E78 JUMP JUMPDEST PUSH1 0x20 MUL PUSH1 0x20 ADD ADD MLOAD PUSH1 0x0 ADD MLOAD SUB PUSH2 0x19A9 JUMPI DUP3 DUP3 DUP3 DUP2 MLOAD DUP2 LT PUSH2 0x1875 JUMPI PUSH2 0x1875 PUSH2 0x2E78 JUMP JUMPDEST PUSH1 0x20 MUL PUSH1 0x20 ADD ADD MLOAD PUSH1 0x20 ADD MLOAD LT ISZERO PUSH2 0x18EB JUMPI PUSH1 0x40 MLOAD PUSH3 0x461BCD PUSH1 0xE5 SHL DUP2 MSTORE PUSH1 0x20 PUSH1 0x4 DUP3 ADD MSTORE PUSH1 0x2F PUSH1 0x24 DUP3 ADD MSTORE PUSH32 0x52656D61696E65722072656D6F766520717479206973207375706572696F7220 PUSH1 0x44 DUP3 ADD MSTORE PUSH15 0x746F2072656D61696E657220717479 PUSH1 0x88 SHL PUSH1 0x64 DUP3 ADD MSTORE PUSH1 0x84 ADD PUSH1 0x40 MLOAD DUP1 SWAP2 SUB SWAP1 REVERT JUMPDEST DUP3 DUP3 DUP3 DUP2 MLOAD DUP2 LT PUSH2 0x18FE JUMPI PUSH2 0x18FE PUSH2 0x2E78 JUMP JUMPDEST PUSH1 0x20 MUL PUSH1 0x20 ADD ADD MLOAD PUSH1 0x20 ADD DUP2 DUP2 MLOAD PUSH2 0x1916 SWAP2 SWAP1 PUSH2 0x2EA4 JUMP JUMPDEST SWAP1 MSTORE POP DUP2 MLOAD DUP3 SWAP1 DUP3 SWAP1 DUP2 LT PUSH2 0x192D JUMPI PUSH2 0x192D PUSH2 0x2E78 JUMP JUMPDEST PUSH1 0x20 MUL PUSH1 0x20 ADD ADD MLOAD PUSH1 0x20 ADD MLOAD PUSH1 0x0 SUB PUSH2 0x19A3 JUMPI PUSH1 0x1 DUP3 MLOAD GT ISZERO PUSH2 0x198F JUMPI DUP2 PUSH1 0x1 DUP4 MLOAD PUSH2 0x1959 SWAP2 SWAP1 PUSH2 0x2EA4 JUMP JUMPDEST DUP2 MLOAD DUP2 LT PUSH2 0x1969 JUMPI PUSH2 0x1969 PUSH2 0x2E78 JUMP JUMPDEST PUSH1 0x20 MUL PUSH1 0x20 ADD ADD MLOAD DUP3 DUP3 DUP2 MLOAD DUP2 LT PUSH2 0x1983 JUMPI PUSH2 0x1983 PUSH2 0x2E78 JUMP JUMPDEST PUSH1 0x20 MUL PUSH1 0x20 ADD ADD DUP2 SWAP1 MSTORE POP JUMPDEST PUSH1 0x0 PUSH1 0x1 DUP4 MLOAD PUSH2 0x199F SWAP2 SWAP1 PUSH2 0x2EA4 JUMP JUMPDEST DUP4 MSTORE POP JUMPDEST POP PUSH2 0xD53 JUMP JUMPDEST DUP1 PUSH2 0x19B3 DUP2 PUSH2 0x2EBB JUMP JUMPDEST SWAP2 POP POP PUSH2 0x1835 JUMP JUMPDEST POP SWAP4 SWAP3 POP POP POP JUMP JUMPDEST PUSH2 0x19CB PUSH2 0x2224 JUMP JUMPDEST PUSH2 0x19D4 DUP3 PUSH2 0xAA2 JUMP JUMPDEST PUSH1 0x60 DUP3 ADD MSTORE PUSH1 0x40 DUP1 MLOAD PUSH1 0x1 DUP1 DUP3 MSTORE DUP2 DUP4 ADD SWAP1 SWAP3 MSTORE SWAP1 DUP2 PUSH1 0x20 ADD JUMPDEST PUSH2 0x19F6 PUSH2 0x21CC JUMP JUMPDEST DUP2 MSTORE PUSH1 0x20 ADD SWAP1 PUSH1 0x1 SWAP1 SUB SWAP1 DUP2 PUSH2 0x19EE JUMPI POP POP PUSH1 0x40 DUP3 ADD DUP2 SWAP1 MSTORE DUP1 MLOAD DUP5 SWAP2 SWAP1 PUSH1 0x0 SWAP1 PUSH2 0x1A23 JUMPI PUSH2 0x1A23 PUSH2 0x2E78 JUMP JUMPDEST PUSH1 0x20 MUL PUSH1 0x20 ADD ADD DUP2 SWAP1 MSTORE POP PUSH1 0x0 DUP2 PUSH1 0x40 ADD MLOAD PUSH1 0x0 DUP2 MLOAD DUP2 LT PUSH2 0x1A47 JUMPI PUSH2 0x1A47 PUSH2 0x2E78 JUMP JUMPDEST PUSH1 0x20 SWAP1 DUP2 MUL SWAP2 SWAP1 SWAP2 ADD DUP2 ADD MLOAD PUSH1 0x60 ADD SWAP2 SWAP1 SWAP2 MSTORE DUP4 DUP2 ADD MLOAD DUP3 MSTORE PUSH1 0x40 SWAP1 SWAP4 ADD MLOAD SWAP3 DUP2 ADD SWAP3 SWAP1 SWAP3 MSTORE POP SWAP1 JUMP JUMPDEST DUP2 PUSH1 0x0 JUMPDEST DUP3 MLOAD DUP2 LT ISZERO PUSH2 0xA9B JUMPI PUSH2 0x1AA1 DUP3 DUP5 DUP4 DUP2 MLOAD DUP2 LT PUSH2 0x1A94 JUMPI PUSH2 0x1A94 PUSH2 0x2E78 JUMP JUMPDEST PUSH1 0x20 MUL PUSH1 0x20 ADD ADD MLOAD PUSH2 0x1D39 JUMP JUMPDEST SWAP2 POP DUP1 PUSH2 0x1AAD DUP2 PUSH2 0x2EBB JUMP JUMPDEST SWAP2 POP POP PUSH2 0x1A75 JUMP JUMPDEST PUSH1 0x0 DUP1 JUMPDEST DUP3 DUP2 LT ISZERO PUSH2 0xA9B JUMPI PUSH8 0xDE0B6B3A7640000 DUP5 DUP3 DUP2 MLOAD DUP2 LT PUSH2 0x1ADC JUMPI PUSH2 0x1ADC PUSH2 0x2E78 JUMP JUMPDEST PUSH1 0x20 MUL PUSH1 0x20 ADD ADD MLOAD PUSH1 0x80 ADD MLOAD DUP6 DUP4 DUP2 MLOAD DUP2 LT PUSH2 0x1AFA JUMPI PUSH2 0x1AFA PUSH2 0x2E78 JUMP JUMPDEST PUSH1 0x20 MUL PUSH1 0x20 ADD ADD MLOAD PUSH1 0x40 ADD MLOAD PUSH2 0x1B10 SWAP2 SWAP1 PUSH2 0x2ED4 JUMP JUMPDEST PUSH2 0x1B1A SWAP2 SWAP1 PUSH2 0x2EF3 JUMP JUMPDEST PUSH2 0x1B24 SWAP1 DUP4 PUSH2 0x2F15 JUMP JUMPDEST SWAP2 POP DUP1 PUSH2 0x1B30 DUP2 PUSH2 0x2EBB JUMP JUMPDEST SWAP2 POP POP PUSH2 0x1AB9 JUMP JUMPDEST DUP3 PUSH1 0x0 JUMPDEST DUP2 MLOAD DUP2 LT ISZERO PUSH2 0x1BB0 JUMPI DUP4 DUP3 DUP3 DUP2 MLOAD DUP2 LT PUSH2 0x1B58 JUMPI PUSH2 0x1B58 PUSH2 0x2E78 JUMP JUMPDEST PUSH1 0x20 MUL PUSH1 0x20 ADD ADD MLOAD PUSH1 0x0 ADD MLOAD SUB PUSH2 0x1B9E JUMPI DUP3 DUP3 DUP3 DUP2 MLOAD DUP2 LT PUSH2 0x1B7C JUMPI PUSH2 0x1B7C PUSH2 0x2E78 JUMP JUMPDEST PUSH1 0x20 MUL PUSH1 0x20 ADD ADD MLOAD PUSH1 0x20 ADD DUP2 DUP2 MLOAD PUSH2 0x1B94 SWAP2 SWAP1 PUSH2 0x2F15 JUMP JUMPDEST SWAP1 MSTORE POP PUSH2 0xD53 SWAP1 POP JUMP JUMPDEST DUP1 PUSH2 0x1BA8 DUP2 PUSH2 0x2EBB JUMP JUMPDEST SWAP2 POP POP PUSH2 0x1B3C JUMP JUMPDEST POP DUP4 MLOAD PUSH2 0x1BBE SWAP1 PUSH1 0x1 PUSH2 0x2F15 JUMP JUMPDEST PUSH1 0x1 PUSH1 0x1 PUSH1 0x40 SHL SUB DUP2 GT ISZERO PUSH2 0x1BD5 JUMPI PUSH2 0x1BD5 PUSH2 0x226E JUMP JUMPDEST PUSH1 0x40 MLOAD SWAP1 DUP1 DUP3 MSTORE DUP1 PUSH1 0x20 MUL PUSH1 0x20 ADD DUP3 ADD PUSH1 0x40 MSTORE DUP1 ISZERO PUSH2 0x1C1A JUMPI DUP2 PUSH1 0x20 ADD JUMPDEST PUSH1 0x40 DUP1 MLOAD DUP1 DUP3 ADD SWAP1 SWAP2 MSTORE PUSH1 0x0 DUP1 DUP3 MSTORE PUSH1 0x20 DUP3 ADD MSTORE DUP2 MSTORE PUSH1 0x20 ADD SWAP1 PUSH1 0x1 SWAP1 SUB SWAP1 DUP2 PUSH2 0x1BF3 JUMPI SWAP1 POP JUMPDEST POP SWAP1 POP PUSH1 0x0 JUMPDEST DUP5 MLOAD DUP2 LT ISZERO PUSH2 0x1C73 JUMPI DUP5 DUP2 DUP2 MLOAD DUP2 LT PUSH2 0x1C3B JUMPI PUSH2 0x1C3B PUSH2 0x2E78 JUMP JUMPDEST PUSH1 0x20 MUL PUSH1 0x20 ADD ADD MLOAD DUP3 DUP3 DUP2 MLOAD DUP2 LT PUSH2 0x1C55 JUMPI PUSH2 0x1C55 PUSH2 0x2E78 JUMP JUMPDEST PUSH1 0x20 MUL PUSH1 0x20 ADD ADD DUP2 SWAP1 MSTORE POP DUP1 DUP1 PUSH2 0x1C6B SWAP1 PUSH2 0x2EBB JUMP JUMPDEST SWAP2 POP POP PUSH2 0x1C20 JUMP JUMPDEST POP DUP3 DUP2 DUP6 MLOAD DUP2 MLOAD DUP2 LT PUSH2 0x1C88 JUMPI PUSH2 0x1C88 PUSH2 0x2E78 JUMP JUMPDEST PUSH1 0x20 MUL PUSH1 0x20 ADD ADD MLOAD PUSH1 0x0 ADD DUP2 DUP2 MSTORE POP POP DUP2 DUP2 DUP6 MLOAD DUP2 MLOAD DUP2 LT PUSH2 0x1CAC JUMPI PUSH2 0x1CAC PUSH2 0x2E78 JUMP JUMPDEST PUSH1 0x20 MUL PUSH1 0x20 ADD ADD MLOAD PUSH1 0x20 ADD DUP2 DUP2 MSTORE POP POP SWAP4 SWAP3 POP POP POP JUMP JUMPDEST PUSH1 0x0 PUSH2 0x5BA DUP3 DUP4 MLOAD PUSH2 0xAB1 JUMP JUMPDEST PUSH1 0x0 DUP1 JUMPDEST DUP4 MLOAD DUP2 LT ISZERO PUSH2 0xB8C JUMPI DUP3 DUP5 DUP3 DUP2 MLOAD DUP2 LT PUSH2 0x1CF0 JUMPI PUSH2 0x1CF0 PUSH2 0x2E78 JUMP JUMPDEST PUSH1 0x20 MUL PUSH1 0x20 ADD ADD MLOAD PUSH1 0x0 ADD MLOAD SUB PUSH2 0x1D27 JUMPI DUP4 DUP2 DUP2 MLOAD DUP2 LT PUSH2 0x1D13 JUMPI PUSH2 0x1D13 PUSH2 0x2E78 JUMP JUMPDEST PUSH1 0x20 MUL PUSH1 0x20 ADD ADD MLOAD PUSH1 0x20 ADD MLOAD SWAP2 POP POP PUSH2 0x5BA JUMP JUMPDEST DUP1 PUSH2 0x1D31 DUP2 PUSH2 0x2EBB JUMP JUMPDEST SWAP2 POP POP PUSH2 0x1CD4 JUMP JUMPDEST PUSH1 0x60 PUSH1 0x0 JUMPDEST DUP4 MLOAD DUP2 LT ISZERO PUSH2 0x1DBD JUMPI DUP3 PUSH1 0x0 ADD MLOAD DUP5 DUP3 DUP2 MLOAD DUP2 LT PUSH2 0x1D5E JUMPI PUSH2 0x1D5E PUSH2 0x2E78 JUMP JUMPDEST PUSH1 0x20 MUL PUSH1 0x20 ADD ADD MLOAD PUSH1 0x0 ADD MLOAD SUB PUSH2 0x1DAB JUMPI DUP3 PUSH1 0x40 ADD MLOAD DUP5 DUP3 DUP2 MLOAD DUP2 LT PUSH2 0x1D86 JUMPI PUSH2 0x1D86 PUSH2 0x2E78 JUMP JUMPDEST PUSH1 0x20 MUL PUSH1 0x20 ADD ADD MLOAD PUSH1 0x40 ADD DUP2 DUP2 MLOAD PUSH2 0x1D9E SWAP2 SWAP1 PUSH2 0x2F15 JUMP JUMPDEST SWAP1 MSTORE POP DUP4 SWAP2 POP PUSH2 0x5BA SWAP1 POP JUMP JUMPDEST DUP1 PUSH2 0x1DB5 DUP2 PUSH2 0x2EBB JUMP JUMPDEST SWAP2 POP POP PUSH2 0x1D3E JUMP JUMPDEST POP PUSH1 0x40 DUP1 MLOAD PUSH1 0x1 DUP1 DUP3 MSTORE DUP2 DUP4 ADD SWAP1 SWAP3 MSTORE PUSH1 0x0 SWAP2 DUP2 PUSH1 0x20 ADD JUMPDEST PUSH2 0x1DDD PUSH2 0x2193 JUMP JUMPDEST DUP2 MSTORE PUSH1 0x20 ADD SWAP1 PUSH1 0x1 SWAP1 SUB SWAP1 DUP2 PUSH2 0x1DD5 JUMPI SWAP1 POP POP SWAP1 POP DUP3 DUP2 PUSH1 0x0 DUP2 MLOAD DUP2 LT PUSH2 0x1E06 JUMPI PUSH2 0x1E06 PUSH2 0x2E78 JUMP JUMPDEST PUSH1 0x20 MUL PUSH1 0x20 ADD ADD DUP2 SWAP1 MSTORE POP PUSH2 0x144A DUP5 DUP3 PUSH2 0x1ECA JUMP JUMPDEST PUSH1 0x60 DUP2 PUSH1 0x1 PUSH1 0x1 PUSH1 0x40 SHL SUB DUP2 GT ISZERO PUSH2 0x1E35 JUMPI PUSH2 0x1E35 PUSH2 0x226E JUMP JUMPDEST PUSH1 0x40 MLOAD SWAP1 DUP1 DUP3 MSTORE DUP1 PUSH1 0x20 MUL PUSH1 0x20 ADD DUP3 ADD PUSH1 0x40 MSTORE DUP1 ISZERO PUSH2 0x1E6E JUMPI DUP2 PUSH1 0x20 ADD JUMPDEST PUSH2 0x1E5B PUSH2 0x2193 JUMP JUMPDEST DUP2 MSTORE PUSH1 0x20 ADD SWAP1 PUSH1 0x1 SWAP1 SUB SWAP1 DUP2 PUSH2 0x1E53 JUMPI SWAP1 POP JUMPDEST POP SWAP1 POP PUSH1 0x0 JUMPDEST DUP3 DUP2 LT ISZERO PUSH2 0x19BB JUMPI PUSH2 0x1E9A DUP6 PUSH2 0x1E8A DUP4 DUP8 PUSH2 0x2F15 JUMP JUMPDEST DUP2 MLOAD DUP2 LT PUSH2 0x504 JUMPI PUSH2 0x504 PUSH2 0x2E78 JUMP JUMPDEST DUP3 DUP3 DUP2 MLOAD DUP2 LT PUSH2 0x1EAC JUMPI PUSH2 0x1EAC PUSH2 0x2E78 JUMP JUMPDEST PUSH1 0x20 MUL PUSH1 0x20 ADD ADD DUP2 SWAP1 MSTORE POP DUP1 DUP1 PUSH2 0x1EC2 SWAP1 PUSH2 0x2EBB JUMP JUMPDEST SWAP2 POP POP PUSH2 0x1E74 JUMP JUMPDEST DUP2 MLOAD DUP2 MLOAD PUSH1 0x60 SWAP2 SWAP1 PUSH2 0x1EDC DUP2 DUP4 PUSH2 0x2F15 JUMP JUMPDEST PUSH1 0x1 PUSH1 0x1 PUSH1 0x40 SHL SUB DUP2 GT ISZERO PUSH2 0x1EF3 JUMPI PUSH2 0x1EF3 PUSH2 0x226E JUMP JUMPDEST PUSH1 0x40 MLOAD SWAP1 DUP1 DUP3 MSTORE DUP1 PUSH1 0x20 MUL PUSH1 0x20 ADD DUP3 ADD PUSH1 0x40 MSTORE DUP1 ISZERO PUSH2 0x1F2C JUMPI DUP2 PUSH1 0x20 ADD JUMPDEST PUSH2 0x1F19 PUSH2 0x2193 JUMP JUMPDEST DUP2 MSTORE PUSH1 0x20 ADD SWAP1 PUSH1 0x1 SWAP1 SUB SWAP1 DUP2 PUSH2 0x1F11 JUMPI SWAP1 POP JUMPDEST POP SWAP3 POP PUSH1 0x0 JUMPDEST DUP3 DUP2 LT ISZERO PUSH2 0x1F7F JUMPI PUSH2 0x1F4F DUP7 DUP3 DUP2 MLOAD DUP2 LT PUSH2 0x504 JUMPI PUSH2 0x504 PUSH2 0x2E78 JUMP JUMPDEST DUP5 DUP3 DUP2 MLOAD DUP2 LT PUSH2 0x1F61 JUMPI PUSH2 0x1F61 PUSH2 0x2E78 JUMP JUMPDEST PUSH1 0x20 MUL PUSH1 0x20 ADD ADD DUP2 SWAP1 MSTORE POP DUP1 DUP1 PUSH2 0x1F77 SWAP1 PUSH2 0x2EBB JUMP JUMPDEST SWAP2 POP POP PUSH2 0x1F32 JUMP JUMPDEST POP PUSH1 0x0 JUMPDEST DUP2 DUP2 LT ISZERO PUSH2 0x1FD9 JUMPI PUSH2 0x1FA0 DUP6 DUP3 DUP2 MLOAD DUP2 LT PUSH2 0x504 JUMPI PUSH2 0x504 PUSH2 0x2E78 JUMP JUMPDEST DUP5 PUSH2 0x1FAB DUP4 DUP7 PUSH2 0x2F15 JUMP JUMPDEST DUP2 MLOAD DUP2 LT PUSH2 0x1FBB JUMPI PUSH2 0x1FBB PUSH2 0x2E78 JUMP JUMPDEST PUSH1 0x20 MUL PUSH1 0x20 ADD ADD DUP2 SWAP1 MSTORE POP DUP1 DUP1 PUSH2 0x1FD1 SWAP1 PUSH2 0x2EBB JUMP JUMPDEST SWAP2 POP POP PUSH2 0x1F83 JUMP JUMPDEST POP POP POP SWAP3 SWAP2 POP POP JUMP JUMPDEST PUSH1 0x60 DUP2 MLOAD PUSH1 0x1 PUSH1 0x1 PUSH1 0x40 SHL SUB DUP2 GT ISZERO PUSH2 0x1FFD JUMPI PUSH2 0x1FFD PUSH2 0x226E JUMP JUMPDEST PUSH1 0x40 MLOAD SWAP1 DUP1 DUP3 MSTORE DUP1 PUSH1 0x20 MUL PUSH1 0x20 ADD DUP3 ADD PUSH1 0x40 MSTORE DUP1 ISZERO PUSH2 0x2036 JUMPI DUP2 PUSH1 0x20 ADD JUMPDEST PUSH2 0x2023 PUSH2 0x2193 JUMP JUMPDEST DUP2 MSTORE PUSH1 0x20 ADD SWAP1 PUSH1 0x1 SWAP1 SUB SWAP1 DUP2 PUSH2 0x201B JUMPI SWAP1 POP JUMPDEST POP SWAP1 POP PUSH1 0x0 DUP1 JUMPDEST DUP4 MLOAD DUP2 LT ISZERO PUSH2 0x1366 JUMPI PUSH1 0x0 DUP5 DUP3 DUP2 MLOAD DUP2 LT PUSH2 0x205A JUMPI PUSH2 0x205A PUSH2 0x2E78 JUMP JUMPDEST PUSH1 0x20 MUL PUSH1 0x20 ADD ADD MLOAD SWAP1 POP PUSH1 0x0 JUMPDEST DUP4 DUP2 LT ISZERO PUSH2 0x20FD JUMPI DUP2 PUSH1 0x80 ADD MLOAD DUP6 DUP3 DUP2 MLOAD DUP2 LT PUSH2 0x2086 JUMPI PUSH2 0x2086 PUSH2 0x2E78 JUMP JUMPDEST PUSH1 0x20 MUL PUSH1 0x20 ADD ADD MLOAD PUSH1 0x80 ADD MLOAD GT ISZERO PUSH2 0x20EB JUMPI PUSH1 0x0 DUP6 DUP3 DUP2 MLOAD DUP2 LT PUSH2 0x20AC JUMPI PUSH2 0x20AC PUSH2 0x2E78 JUMP JUMPDEST PUSH1 0x20 MUL PUSH1 0x20 ADD ADD MLOAD SWAP1 POP DUP3 DUP7 DUP4 DUP2 MLOAD DUP2 LT PUSH2 0x20C9 JUMPI PUSH2 0x20C9 PUSH2 0x2E78 JUMP JUMPDEST PUSH1 0x20 MUL PUSH1 0x20 ADD ADD DUP2 SWAP1 MSTORE POP DUP1 SWAP3 POP DUP2 DUP1 PUSH2 0x20E2 SWAP1 PUSH2 0x2EBB JUMP JUMPDEST SWAP3 POP POP POP PUSH2 0x20FD JUMP JUMPDEST DUP1 PUSH2 0x20F5 DUP2 PUSH2 0x2EBB JUMP JUMPDEST SWAP2 POP POP PUSH2 0x2067 JUMP JUMPDEST DUP4 DUP2 LT ISZERO PUSH2 0x2155 JUMPI PUSH1 0x0 DUP6 DUP3 DUP2 MLOAD DUP2 LT PUSH2 0x2119 JUMPI PUSH2 0x2119 PUSH2 0x2E78 JUMP JUMPDEST PUSH1 0x20 MUL PUSH1 0x20 ADD ADD MLOAD SWAP1 POP DUP3 DUP7 DUP4 DUP2 MLOAD DUP2 LT PUSH2 0x2136 JUMPI PUSH2 0x2136 PUSH2 0x2E78 JUMP JUMPDEST PUSH1 0x20 SWAP1 DUP2 MUL SWAP2 SWAP1 SWAP2 ADD ADD MSTORE SWAP2 POP DUP1 PUSH2 0x214D DUP2 PUSH2 0x2EBB JUMP JUMPDEST SWAP2 POP POP PUSH2 0x20FD JUMP JUMPDEST DUP2 DUP6 DUP6 PUSH2 0x2161 DUP2 PUSH2 0x2EBB JUMP JUMPDEST SWAP7 POP DUP2 MLOAD DUP2 LT PUSH2 0x2173 JUMPI PUSH2 0x2173 PUSH2 0x2E78 JUMP JUMPDEST PUSH1 0x20 MUL PUSH1 0x20 ADD ADD DUP2 SWAP1 MSTORE POP POP POP DUP1 DUP1 PUSH2 0x218B SWAP1 PUSH2 0x2EBB JUMP JUMPDEST SWAP2 POP POP PUSH2 0x203D JUMP JUMPDEST PUSH1 0x40 MLOAD DUP1 PUSH1 0xC0 ADD PUSH1 0x40 MSTORE DUP1 PUSH1 0x0 DUP2 MSTORE PUSH1 0x20 ADD PUSH1 0x0 DUP1 NOT AND DUP2 MSTORE PUSH1 0x20 ADD PUSH1 0x0 DUP2 MSTORE PUSH1 0x20 ADD PUSH1 0x0 DUP2 MSTORE PUSH1 0x20 ADD PUSH1 0x0 DUP2 MSTORE PUSH1 0x20 ADD PUSH1 0x60 DUP2 MSTORE POP SWAP1 JUMP JUMPDEST PUSH1 0x40 MLOAD DUP1 PUSH1 0xC0 ADD PUSH1 0x40 MSTORE DUP1 PUSH1 0x60 DUP2 MSTORE PUSH1 0x20 ADD PUSH1 0x0 DUP2 MSTORE PUSH1 0x20 ADD PUSH2 0x2209 PUSH1 0x40 MLOAD DUP1 PUSH1 0x60 ADD PUSH1 0x40 MSTORE DUP1 PUSH1 0x0 DUP2 MSTORE PUSH1 0x20 ADD PUSH1 0x0 DUP2 MSTORE PUSH1 0x20 ADD PUSH1 0x0 DUP2 MSTORE POP SWAP1 JUMP JUMPDEST DUP2 MSTORE PUSH1 0x20 ADD PUSH1 0x0 DUP2 MSTORE PUSH1 0x20 ADD PUSH1 0x0 DUP2 MSTORE PUSH1 0x20 ADD PUSH1 0x60 DUP2 MSTORE POP SWAP1 JUMP JUMPDEST PUSH1 0x40 MLOAD DUP1 PUSH1 0x80 ADD PUSH1 0x40 MSTORE DUP1 PUSH1 0x0 DUP2 MSTORE PUSH1 0x20 ADD PUSH2 0x225A PUSH1 0x40 MLOAD DUP1 PUSH1 0x60 ADD PUSH1 0x40 MSTORE DUP1 PUSH1 0x0 DUP2 MSTORE PUSH1 0x20 ADD PUSH1 0x0 DUP2 MSTORE PUSH1 0x20 ADD PUSH1 0x0 DUP2 MSTORE POP SWAP1 JUMP JUMPDEST DUP2 MSTORE PUSH1 0x20 ADD PUSH1 0x60 DUP2 MSTORE PUSH1 0x20 ADD PUSH1 0x60 DUP2 MSTORE POP SWAP1 JUMP JUMPDEST PUSH4 0x4E487B71 PUSH1 0xE0 SHL PUSH1 0x0 MSTORE PUSH1 0x41 PUSH1 0x4 MSTORE PUSH1 0x24 PUSH1 0x0 REVERT JUMPDEST PUSH1 0x40 MLOAD PUSH1 0xC0 DUP2 ADD PUSH1 0x1 PUSH1 0x1 PUSH1 0x40 SHL SUB DUP2 GT DUP3 DUP3 LT OR ISZERO PUSH2 0x22A6 JUMPI PUSH2 0x22A6 PUSH2 0x226E JUMP JUMPDEST PUSH1 0x40 MSTORE SWAP1 JUMP JUMPDEST PUSH1 0x40 DUP1 MLOAD SWAP1 DUP2 ADD PUSH1 0x1 PUSH1 0x1 PUSH1 0x40 SHL SUB DUP2 GT DUP3 DUP3 LT OR ISZERO PUSH2 0x22A6 JUMPI PUSH2 0x22A6 PUSH2 0x226E JUMP JUMPDEST PUSH1 0x40 MLOAD PUSH1 0x80 DUP2 ADD PUSH1 0x1 PUSH1 0x1 PUSH1 0x40 SHL SUB DUP2 GT DUP3 DUP3 LT OR ISZERO PUSH2 0x22A6 JUMPI PUSH2 0x22A6 PUSH2 0x226E JUMP JUMPDEST PUSH1 0x40 MLOAD PUSH1 0x1F DUP3 ADD PUSH1 0x1F NOT AND DUP2 ADD PUSH1 0x1 PUSH1 0x1 PUSH1 0x40 SHL SUB DUP2 GT DUP3 DUP3 LT OR ISZERO PUSH2 0x2318 JUMPI PUSH2 0x2318 PUSH2 0x226E JUMP JUMPDEST PUSH1 0x40 MSTORE SWAP2 SWAP1 POP JUMP JUMPDEST PUSH1 0x0 PUSH1 0x1 PUSH1 0x1 PUSH1 0x40 SHL SUB DUP3 GT ISZERO PUSH2 0x2339 JUMPI PUSH2 0x2339 PUSH2 0x226E JUMP JUMPDEST POP PUSH1 0x5 SHL PUSH1 0x20 ADD SWAP1 JUMP JUMPDEST PUSH1 0x0 DUP3 PUSH1 0x1F DUP4 ADD SLT PUSH2 0x2354 JUMPI PUSH1 0x0 DUP1 REVERT JUMPDEST DUP2 CALLDATALOAD PUSH1 0x20 PUSH2 0x2369 PUSH2 0x2364 DUP4 PUSH2 0x2320 JUMP JUMPDEST PUSH2 0x22F0 JUMP JUMPDEST DUP3 DUP2 MSTORE PUSH1 0x5 SWAP3 SWAP1 SWAP3 SHL DUP5 ADD DUP2 ADD SWAP2 DUP2 DUP2 ADD SWAP1 DUP7 DUP5 GT ISZERO PUSH2 0x2388 JUMPI PUSH1 0x0 DUP1 REVERT JUMPDEST DUP3 DUP7 ADD JUMPDEST DUP5 DUP2 LT ISZERO PUSH2 0x23A3 JUMPI DUP1 CALLDATALOAD DUP4 MSTORE SWAP2 DUP4 ADD SWAP2 DUP4 ADD PUSH2 0x238C JUMP JUMPDEST POP SWAP7 SWAP6 POP POP POP POP POP POP JUMP JUMPDEST PUSH1 0x0 PUSH1 0xC0 DUP3 DUP5 SUB SLT ISZERO PUSH2 0x23C0 JUMPI PUSH1 0x0 DUP1 REVERT JUMPDEST PUSH2 0x23C8 PUSH2 0x2284 JUMP JUMPDEST SWAP1 POP DUP2 CALLDATALOAD DUP2 MSTORE PUSH1 0x20 DUP3 ADD CALLDATALOAD PUSH1 0x20 DUP3 ADD MSTORE PUSH1 0x40 DUP3 ADD CALLDATALOAD PUSH1 0x40 DUP3 ADD MSTORE PUSH1 0x60 DUP3 ADD CALLDATALOAD PUSH1 0x60 DUP3 ADD MSTORE PUSH1 0x80 DUP3 ADD CALLDATALOAD PUSH1 0x80 DUP3 ADD MSTORE PUSH1 0xA0 DUP3 ADD CALLDATALOAD PUSH1 0x1 PUSH1 0x1 PUSH1 0x40 SHL SUB DUP2 GT ISZERO PUSH2 0x240F JUMPI PUSH1 0x0 DUP1 REVERT JUMPDEST PUSH2 0x241B DUP5 DUP3 DUP6 ADD PUSH2 0x2343 JUMP JUMPDEST PUSH1 0xA0 DUP4 ADD MSTORE POP SWAP3 SWAP2 POP POP JUMP JUMPDEST PUSH1 0x0 DUP3 PUSH1 0x1F DUP4 ADD SLT PUSH2 0x2438 JUMPI PUSH1 0x0 DUP1 REVERT JUMPDEST DUP2 CALLDATALOAD PUSH1 0x20 PUSH2 0x2448 PUSH2 0x2364 DUP4 PUSH2 0x2320 JUMP JUMPDEST DUP3 DUP2 MSTORE PUSH1 0x5 SWAP3 SWAP1 SWAP3 SHL DUP5 ADD DUP2 ADD SWAP2 DUP2 DUP2 ADD SWAP1 DUP7 DUP5 GT ISZERO PUSH2 0x2467 JUMPI PUSH1 0x0 DUP1 REVERT JUMPDEST DUP3 DUP7 ADD JUMPDEST DUP5 DUP2 LT ISZERO PUSH2 0x23A3 JUMPI DUP1 CALLDATALOAD PUSH1 0x1 PUSH1 0x1 PUSH1 0x40 SHL SUB DUP2 GT ISZERO PUSH2 0x248A JUMPI PUSH1 0x0 DUP1 DUP2 REVERT JUMPDEST PUSH2 0x2498 DUP10 DUP7 DUP4 DUP12 ADD ADD PUSH2 0x23AE JUMP JUMPDEST DUP5 MSTORE POP SWAP2 DUP4 ADD SWAP2 DUP4 ADD PUSH2 0x246B JUMP JUMPDEST PUSH1 0x0 DUP1 PUSH1 0x40 DUP4 DUP6 SUB SLT ISZERO PUSH2 0x24B9 JUMPI PUSH1 0x0 DUP1 REVERT JUMPDEST DUP3 CALLDATALOAD PUSH1 0x1 PUSH1 0x1 PUSH1 0x40 SHL SUB DUP1 DUP3 GT ISZERO PUSH2 0x24D0 JUMPI PUSH1 0x0 DUP1 REVERT JUMPDEST PUSH2 0x24DC DUP7 DUP4 DUP8 ADD PUSH2 0x2427 JUMP JUMPDEST SWAP4 POP PUSH1 0x20 DUP6 ADD CALLDATALOAD SWAP2 POP DUP1 DUP3 GT ISZERO PUSH2 0x24F2 JUMPI PUSH1 0x0 DUP1 REVERT JUMPDEST POP PUSH2 0x24FF DUP6 DUP3 DUP7 ADD PUSH2 0x2427 JUMP JUMPDEST SWAP2 POP POP SWAP3 POP SWAP3 SWAP1 POP JUMP JUMPDEST PUSH1 0x0 DUP2 MLOAD DUP1 DUP5 MSTORE PUSH1 0x20 DUP1 DUP6 ADD SWAP5 POP DUP1 DUP5 ADD PUSH1 0x0 JUMPDEST DUP4 DUP2 LT ISZERO PUSH2 0x2539 JUMPI DUP2 MLOAD DUP8 MSTORE SWAP6 DUP3 ADD SWAP6 SWAP1 DUP3 ADD SWAP1 PUSH1 0x1 ADD PUSH2 0x251D JUMP JUMPDEST POP SWAP5 SWAP6 SWAP5 POP POP POP POP POP JUMP JUMPDEST DUP1 MLOAD DUP3 MSTORE PUSH1 0x20 DUP2 ADD MLOAD PUSH1 0x20 DUP4 ADD MSTORE PUSH1 0x40 DUP2 ADD MLOAD PUSH1 0x40 DUP4 ADD MSTORE PUSH1 0x60 DUP2 ADD MLOAD PUSH1 0x60 DUP4 ADD MSTORE PUSH1 0x80 DUP2 ADD MLOAD PUSH1 0x80 DUP4 ADD MSTORE PUSH1 0x0 PUSH1 0xA0 DUP3 ADD MLOAD PUSH1 0xC0 PUSH1 0xA0 DUP6 ADD MSTORE PUSH2 0x144A PUSH1 0xC0 DUP6 ADD DUP3 PUSH2 0x2509 JUMP JUMPDEST PUSH1 0x0 DUP2 MLOAD DUP1 DUP5 MSTORE PUSH1 0x20 DUP1 DUP6 ADD DUP1 DUP2 SWAP7 POP DUP4 PUSH1 0x5 SHL DUP2 ADD SWAP2 POP DUP3 DUP7 ADD PUSH1 0x0 JUMPDEST DUP6 DUP2 LT ISZERO PUSH2 0x25D3 JUMPI DUP3 DUP5 SUB DUP10 MSTORE PUSH2 0x25C1 DUP5 DUP4 MLOAD PUSH2 0x2544 JUMP JUMPDEST SWAP9 DUP6 ADD SWAP9 SWAP4 POP SWAP1 DUP5 ADD SWAP1 PUSH1 0x1 ADD PUSH2 0x25A9 JUMP JUMPDEST POP SWAP2 SWAP8 SWAP7 POP POP POP POP POP POP POP JUMP JUMPDEST PUSH1 0x20 DUP2 MSTORE PUSH1 0x0 PUSH2 0xD53 PUSH1 0x20 DUP4 ADD DUP5 PUSH2 0x258B JUMP JUMPDEST PUSH1 0x0 PUSH1 0x20 DUP3 DUP5 SUB SLT ISZERO PUSH2 0x2605 JUMPI PUSH1 0x0 DUP1 REVERT JUMPDEST DUP2 CALLDATALOAD PUSH1 0x1 PUSH1 0x1 PUSH1 0x40 SHL SUB DUP2 GT ISZERO PUSH2 0x261B JUMPI PUSH1 0x0 DUP1 REVERT JUMPDEST PUSH2 0x144A DUP5 DUP3 DUP6 ADD PUSH2 0x2427 JUMP JUMPDEST PUSH1 0x0 PUSH1 0x60 DUP3 DUP5 SUB SLT ISZERO PUSH2 0x2639 JUMPI PUSH1 0x0 DUP1 REVERT JUMPDEST PUSH1 0x40 MLOAD PUSH1 0x60 DUP2 ADD DUP2 DUP2 LT PUSH1 0x1 PUSH1 0x1 PUSH1 0x40 SHL SUB DUP3 GT OR ISZERO PUSH2 0x265B JUMPI PUSH2 0x265B PUSH2 0x226E JUMP JUMPDEST DUP1 PUSH1 0x40 MSTORE POP DUP1 SWAP2 POP DUP3 CALLDATALOAD DUP2 MSTORE PUSH1 0x20 DUP4 ADD CALLDATALOAD PUSH1 0x20 DUP3 ADD MSTORE PUSH1 0x40 DUP4 ADD CALLDATALOAD PUSH1 0x40 DUP3 ADD MSTORE POP SWAP3 SWAP2 POP POP JUMP JUMPDEST PUSH1 0x0 PUSH2 0x100 DUP3 DUP5 SUB SLT ISZERO PUSH2 0x2695 JUMPI PUSH1 0x0 DUP1 REVERT JUMPDEST PUSH2 0x269D PUSH2 0x2284 JUMP JUMPDEST SWAP1 POP DUP2 CALLDATALOAD PUSH1 0x1 PUSH1 0x1 PUSH1 0x40 SHL SUB DUP1 DUP3 GT ISZERO PUSH2 0x26B6 JUMPI PUSH1 0x0 DUP1 REVERT JUMPDEST PUSH2 0x26C2 DUP6 DUP4 DUP7 ADD PUSH2 0x2343 JUMP JUMPDEST DUP4 MSTORE PUSH1 0x20 DUP5 ADD CALLDATALOAD PUSH1 0x20 DUP5 ADD MSTORE PUSH2 0x26DB DUP6 PUSH1 0x40 DUP7 ADD PUSH2 0x2627 JUMP JUMPDEST PUSH1 0x40 DUP5 ADD MSTORE PUSH1 0xA0 DUP5 ADD CALLDATALOAD PUSH1 0x60 DUP5 ADD MSTORE PUSH1 0xC0 DUP5 ADD CALLDATALOAD PUSH1 0x80 DUP5 ADD MSTORE PUSH1 0xE0 DUP5 ADD CALLDATALOAD SWAP2 POP DUP1 DUP3 GT ISZERO PUSH2 0x2708 JUMPI PUSH1 0x0 DUP1 REVERT JUMPDEST POP PUSH2 0x241B DUP5 DUP3 DUP6 ADD PUSH2 0x2343 JUMP JUMPDEST PUSH1 0x0 DUP1 PUSH1 0x0 PUSH1 0x60 DUP5 DUP7 SUB SLT ISZERO PUSH2 0x272A JUMPI PUSH1 0x0 DUP1 REVERT JUMPDEST DUP4 CALLDATALOAD PUSH1 0x1 PUSH1 0x1 PUSH1 0x40 SHL SUB DUP2 GT ISZERO PUSH2 0x2740 JUMPI PUSH1 0x0 DUP1 REVERT JUMPDEST PUSH2 0x274C DUP7 DUP3 DUP8 ADD PUSH2 0x2682 JUMP JUMPDEST SWAP7 PUSH1 0x20 DUP7 ADD CALLDATALOAD SWAP7 POP PUSH1 0x40 SWAP1 SWAP6 ADD CALLDATALOAD SWAP5 SWAP4 POP POP POP POP JUMP JUMPDEST DUP1 MLOAD PUSH2 0x100 DUP1 DUP5 MSTORE DUP2 MLOAD SWAP1 DUP5 ADD DUP2 SWAP1 MSTORE PUSH1 0x0 SWAP2 PUSH2 0x120 DUP6 ADD SWAP2 PUSH1 0x20 SWAP2 DUP3 ADD SWAP1 DUP5 JUMPDEST DUP2 DUP2 LT ISZERO PUSH2 0x279F JUMPI DUP3 MLOAD DUP6 MSTORE SWAP4 DUP4 ADD SWAP4 SWAP2 DUP4 ADD SWAP2 PUSH1 0x1 ADD PUSH2 0x2783 JUMP JUMPDEST POP POP POP DUP4 DUP2 ADD MLOAD SWAP1 DUP6 ADD MSTORE PUSH1 0x40 DUP1 DUP5 ADD MLOAD DUP1 MLOAD DUP3 DUP8 ADD MSTORE PUSH1 0x20 DUP2 ADD MLOAD PUSH1 0x60 DUP8 ADD MSTORE SWAP1 DUP2 ADD MLOAD PUSH1 0x80 DUP7 ADD MSTORE POP PUSH1 0x60 DUP4 ADD MLOAD PUSH1 0xA0 DUP6 ADD MSTORE PUSH1 0x80 DUP4 ADD MLOAD PUSH1 0xC0 DUP6 ADD MSTORE PUSH1 0xA0 DUP4 ADD MLOAD DUP5 DUP3 SUB PUSH1 0xE0 DUP7 ADD MSTORE PUSH2 0x27F5 DUP3 DUP3 PUSH2 0x2509 JUMP JUMPDEST SWAP6 SWAP5 POP POP POP POP POP JUMP JUMPDEST PUSH1 0x20 DUP2 MSTORE PUSH1 0x0 PUSH2 0xD53 PUSH1 0x20 DUP4 ADD DUP5 PUSH2 0x2762 JUMP JUMPDEST PUSH1 0x0 DUP1 PUSH1 0x40 DUP4 DUP6 SUB SLT ISZERO PUSH2 0x2824 JUMPI PUSH1 0x0 DUP1 REVERT JUMPDEST DUP3 CALLDATALOAD PUSH1 0x1 PUSH1 0x1 PUSH1 0x40 SHL SUB DUP2 GT ISZERO PUSH2 0x283A JUMPI PUSH1 0x0 DUP1 REVERT JUMPDEST PUSH2 0x2846 DUP6 DUP3 DUP7 ADD PUSH2 0x2427 JUMP JUMPDEST SWAP6 PUSH1 0x20 SWAP5 SWAP1 SWAP5 ADD CALLDATALOAD SWAP5 POP POP POP POP JUMP JUMPDEST DUP3 DUP2 MSTORE PUSH1 0x80 DUP2 ADD PUSH2 0xD53 PUSH1 0x20 DUP4 ADD DUP5 DUP1 MLOAD DUP3 MSTORE PUSH1 0x20 DUP1 DUP3 ADD MLOAD SWAP1 DUP4 ADD MSTORE PUSH1 0x40 SWAP1 DUP2 ADD MLOAD SWAP2 ADD MSTORE JUMP JUMPDEST PUSH1 0x0 DUP1 PUSH1 0x0 DUP1 PUSH1 0x80 DUP6 DUP8 SUB SLT ISZERO PUSH2 0x2893 JUMPI PUSH1 0x0 DUP1 REVERT JUMPDEST DUP5 CALLDATALOAD PUSH1 0x1 PUSH1 0x1 PUSH1 0x40 SHL SUB DUP1 DUP3 GT ISZERO PUSH2 0x28AA JUMPI PUSH1 0x0 DUP1 REVERT JUMPDEST PUSH2 0x28B6 DUP9 DUP4 DUP10 ADD PUSH2 0x2682 JUMP JUMPDEST SWAP6 POP PUSH1 0x20 DUP8 ADD CALLDATALOAD SWAP2 POP DUP1 DUP3 GT ISZERO PUSH2 0x28CC JUMPI PUSH1 0x0 DUP1 REVERT JUMPDEST PUSH2 0x28D8 DUP9 DUP4 DUP10 ADD PUSH2 0x2427 JUMP JUMPDEST SWAP5 POP PUSH1 0x40 DUP8 ADD CALLDATALOAD SWAP4 POP PUSH1 0x60 DUP8 ADD CALLDATALOAD SWAP2 POP DUP1 DUP3 GT ISZERO PUSH2 0x28F5 JUMPI PUSH1 0x0 DUP1 REVERT JUMPDEST POP PUSH2 0x2902 DUP8 DUP3 DUP9 ADD PUSH2 0x2427 JUMP JUMPDEST SWAP2 POP POP SWAP3 SWAP6 SWAP2 SWAP5 POP SWAP3 POP JUMP JUMPDEST PUSH1 0x40 DUP2 MSTORE PUSH1 0x0 PUSH2 0x2921 PUSH1 0x40 DUP4 ADD DUP6 PUSH2 0x2762 JUMP JUMPDEST DUP3 DUP2 SUB PUSH1 0x20 DUP5 ADD MSTORE PUSH2 0x27F5 DUP2 DUP6 PUSH2 0x258B JUMP JUMPDEST PUSH1 0x0 PUSH1 0x20 DUP3 DUP5 SUB SLT ISZERO PUSH2 0x2945 JUMPI PUSH1 0x0 DUP1 REVERT JUMPDEST DUP2 CALLDATALOAD PUSH1 0x1 PUSH1 0x1 PUSH1 0x40 SHL SUB DUP2 GT ISZERO PUSH2 0x295B JUMPI PUSH1 0x0 DUP1 REVERT JUMPDEST PUSH2 0x144A DUP5 DUP3 DUP6 ADD PUSH2 0x23AE JUMP JUMPDEST PUSH1 0x20 DUP2 MSTORE PUSH1 0x0 PUSH2 0xD53 PUSH1 0x20 DUP4 ADD DUP5 PUSH2 0x2544 JUMP JUMPDEST PUSH1 0x0 DUP3 PUSH1 0x1F DUP4 ADD SLT PUSH2 0x298B JUMPI PUSH1 0x0 DUP1 REVERT JUMPDEST DUP2 CALLDATALOAD PUSH1 0x20 PUSH2 0x299B PUSH2 0x2364 DUP4 PUSH2 0x2320 JUMP JUMPDEST DUP3 DUP2 MSTORE PUSH1 0x6 SWAP3 SWAP1 SWAP3 SHL DUP5 ADD DUP2 ADD SWAP2 DUP2 DUP2 ADD SWAP1 DUP7 DUP5 GT ISZERO PUSH2 0x29BA JUMPI PUSH1 0x0 DUP1 REVERT JUMPDEST DUP3 DUP7 ADD JUMPDEST DUP5 DUP2 LT ISZERO PUSH2 0x23A3 JUMPI PUSH1 0x40 DUP2 DUP10 SUB SLT ISZERO PUSH2 0x29D7 JUMPI PUSH1 0x0 DUP1 DUP2 REVERT JUMPDEST PUSH2 0x29DF PUSH2 0x22AC JUMP JUMPDEST DUP2 CALLDATALOAD DUP2 MSTORE DUP5 DUP3 ADD CALLDATALOAD DUP6 DUP3 ADD MSTORE DUP4 MSTORE SWAP2 DUP4 ADD SWAP2 PUSH1 0x40 ADD PUSH2 0x29BE JUMP JUMPDEST PUSH1 0x0 DUP1 PUSH1 0x0 PUSH1 0x60 DUP5 DUP7 SUB SLT ISZERO PUSH2 0x2A0E JUMPI PUSH1 0x0 DUP1 REVERT JUMPDEST DUP4 CALLDATALOAD PUSH1 0x1 PUSH1 0x1 PUSH1 0x40 SHL SUB DUP1 DUP3 GT ISZERO PUSH2 0x2A25 JUMPI PUSH1 0x0 DUP1 REVERT JUMPDEST PUSH2 0x2A31 DUP8 DUP4 DUP9 ADD PUSH2 0x297A JUMP JUMPDEST SWAP5 POP PUSH1 0x20 DUP7 ADD CALLDATALOAD SWAP2 POP DUP1 DUP3 GT ISZERO PUSH2 0x2A47 JUMPI PUSH1 0x0 DUP1 REVERT JUMPDEST PUSH2 0x2A53 DUP8 DUP4 DUP9 ADD PUSH2 0x2682 JUMP JUMPDEST SWAP4 POP PUSH1 0x40 DUP7 ADD CALLDATALOAD SWAP2 POP DUP1 DUP3 GT ISZERO PUSH2 0x2A69 JUMPI PUSH1 0x0 DUP1 REVERT JUMPDEST POP PUSH2 0x2A76 DUP7 DUP3 DUP8 ADD PUSH2 0x2427 JUMP JUMPDEST SWAP2 POP POP SWAP3 POP SWAP3 POP SWAP3 JUMP JUMPDEST PUSH1 0x20 DUP1 DUP3 MSTORE DUP3 MLOAD DUP3 DUP3 ADD DUP2 SWAP1 MSTORE PUSH1 0x0 SWAP2 SWAP1 PUSH1 0x40 SWAP1 DUP2 DUP6 ADD SWAP1 DUP7 DUP5 ADD DUP6 JUMPDEST DUP3 DUP2 LT ISZERO PUSH2 0x25D3 JUMPI DUP2 MLOAD DUP1 MLOAD DUP6 MSTORE DUP7 ADD MLOAD DUP7 DUP6 ADD MSTORE SWAP3 DUP5 ADD SWAP3 SWAP1 DUP6 ADD SWAP1 PUSH1 0x1 ADD PUSH2 0x2A9D JUMP JUMPDEST PUSH1 0x0 PUSH1 0xC0 DUP3 DUP5 SUB SLT ISZERO PUSH2 0x2AD4 JUMPI PUSH1 0x0 DUP1 REVERT JUMPDEST PUSH2 0x2ADC PUSH2 0x22CE JUMP JUMPDEST SWAP1 POP DUP2 CALLDATALOAD DUP2 MSTORE PUSH1 0x20 PUSH2 0x2AF0 DUP5 DUP3 DUP6 ADD PUSH2 0x2627 JUMP JUMPDEST DUP2 DUP4 ADD MSTORE PUSH1 0x80 DUP4 ADD CALLDATALOAD PUSH1 0x1 PUSH1 0x1 PUSH1 0x40 SHL SUB DUP1 DUP3 GT ISZERO PUSH2 0x2B0E JUMPI PUSH1 0x0 DUP1 REVERT JUMPDEST DUP2 DUP6 ADD SWAP2 POP DUP6 PUSH1 0x1F DUP4 ADD SLT PUSH2 0x2B22 JUMPI PUSH1 0x0 DUP1 REVERT JUMPDEST DUP2 CALLDATALOAD PUSH2 0x2B30 PUSH2 0x2364 DUP3 PUSH2 0x2320 JUMP JUMPDEST DUP2 DUP2 MSTORE PUSH1 0x5 SWAP2 SWAP1 SWAP2 SHL DUP4 ADD DUP5 ADD SWAP1 DUP5 DUP2 ADD SWAP1 DUP9 DUP4 GT ISZERO PUSH2 0x2B4F JUMPI PUSH1 0x0 DUP1 REVERT JUMPDEST DUP6 DUP6 ADD JUMPDEST DUP4 DUP2 LT ISZERO PUSH2 0x2B87 JUMPI DUP1 CALLDATALOAD DUP6 DUP2 GT ISZERO PUSH2 0x2B6B JUMPI PUSH1 0x0 DUP1 DUP2 REVERT JUMPDEST PUSH2 0x2B79 DUP12 DUP10 DUP4 DUP11 ADD ADD PUSH2 0x2682 JUMP JUMPDEST DUP5 MSTORE POP SWAP2 DUP7 ADD SWAP2 DUP7 ADD PUSH2 0x2B53 JUMP JUMPDEST POP PUSH1 0x40 DUP8 ADD MSTORE POP POP PUSH1 0xA0 DUP6 ADD CALLDATALOAD SWAP3 POP DUP1 DUP4 GT ISZERO PUSH2 0x2BA3 JUMPI PUSH1 0x0 DUP1 REVERT JUMPDEST POP POP PUSH2 0x2BB1 DUP5 DUP3 DUP6 ADD PUSH2 0x2427 JUMP JUMPDEST PUSH1 0x60 DUP4 ADD MSTORE POP SWAP3 SWAP2 POP POP JUMP JUMPDEST PUSH1 0x0 DUP1 PUSH1 0x0 PUSH1 0x60 DUP5 DUP7 SUB SLT ISZERO PUSH2 0x2BD2 JUMPI PUSH1 0x0 DUP1 REVERT JUMPDEST DUP4 CALLDATALOAD PUSH1 0x1 PUSH1 0x1 PUSH1 0x40 SHL SUB DUP1 DUP3 GT ISZERO PUSH2 0x2BE9 JUMPI PUSH1 0x0 DUP1 REVERT JUMPDEST PUSH2 0x2A31 DUP8 DUP4 DUP9 ADD PUSH2 0x2AC2 JUMP JUMPDEST PUSH1 0x0 DUP2 MLOAD DUP1 DUP5 MSTORE PUSH1 0x20 DUP1 DUP6 ADD DUP1 DUP2 SWAP7 POP DUP4 PUSH1 0x5 SHL DUP2 ADD SWAP2 POP DUP3 DUP7 ADD PUSH1 0x0 JUMPDEST DUP6 DUP2 LT ISZERO PUSH2 0x25D3 JUMPI DUP3 DUP5 SUB DUP10 MSTORE PUSH2 0x2C2B DUP5 DUP4 MLOAD PUSH2 0x2544 JUMP JUMPDEST SWAP9 DUP6 ADD SWAP9 SWAP4 POP SWAP1 DUP5 ADD SWAP1 PUSH1 0x1 ADD PUSH2 0x2C13 JUMP JUMPDEST PUSH1 0x0 PUSH1 0x20 DUP1 DUP4 MSTORE PUSH1 0xE0 DUP4 ADD DUP5 MLOAD DUP3 DUP6 ADD MSTORE DUP2 DUP6 ADD MLOAD PUSH2 0x2C73 PUSH1 0x40 DUP7 ADD DUP3 DUP1 MLOAD DUP3 MSTORE PUSH1 0x20 DUP1 DUP3 ADD MLOAD SWAP1 DUP4 ADD MSTORE PUSH1 0x40 SWAP1 DUP2 ADD MLOAD SWAP2 ADD MSTORE JUMP JUMPDEST POP PUSH1 0x40 DUP6 ADD MLOAD PUSH1 0xC0 PUSH1 0xA0 DUP7 ADD MSTORE DUP1 MLOAD SWAP2 DUP3 SWAP1 MSTORE PUSH2 0x100 PUSH1 0x5 DUP4 SWAP1 SHL DUP7 ADD DUP2 ADD SWAP3 SWAP2 DUP5 ADD SWAP2 SWAP1 DUP7 ADD SWAP1 PUSH1 0x0 JUMPDEST DUP2 DUP2 LT ISZERO PUSH2 0x2CCC JUMPI PUSH1 0xFF NOT DUP9 DUP7 SUB ADD DUP4 MSTORE PUSH2 0x2CBA DUP6 DUP6 MLOAD PUSH2 0x2762 JUMP JUMPDEST SWAP5 POP SWAP3 DUP6 ADD SWAP3 SWAP2 DUP6 ADD SWAP2 PUSH1 0x1 ADD PUSH2 0x2C9E JUMP JUMPDEST POP POP POP POP PUSH1 0x60 DUP6 ADD MLOAD DUP5 DUP3 SUB PUSH1 0x1F NOT ADD PUSH1 0xC0 DUP7 ADD MSTORE SWAP2 POP PUSH2 0x27F5 DUP2 DUP4 PUSH2 0x2BF5 JUMP JUMPDEST PUSH1 0x0 DUP1 PUSH1 0x40 DUP4 DUP6 SUB SLT ISZERO PUSH2 0x2D00 JUMPI PUSH1 0x0 DUP1 REVERT JUMPDEST DUP3 CALLDATALOAD PUSH1 0x1 PUSH1 0x1 PUSH1 0x40 SHL SUB DUP1 DUP3 GT ISZERO PUSH2 0x2D17 JUMPI PUSH1 0x0 DUP1 REVERT JUMPDEST PUSH2 0x2D23 DUP7 DUP4 DUP8 ADD PUSH2 0x2AC2 JUMP JUMPDEST SWAP4 POP PUSH1 0x20 DUP6 ADD CALLDATALOAD SWAP2 POP DUP1 DUP3 GT ISZERO PUSH2 0x2D39 JUMPI PUSH1 0x0 DUP1 REVERT JUMPDEST POP PUSH2 0x24FF DUP6 DUP3 DUP7 ADD PUSH2 0x2AC2 JUMP JUMPDEST PUSH1 0x0 DUP1 PUSH1 0x0 PUSH1 0x60 DUP5 DUP7 SUB SLT ISZERO PUSH2 0x2D5B JUMPI PUSH1 0x0 DUP1 REVERT JUMPDEST DUP4 CALLDATALOAD PUSH1 0x1 PUSH1 0x1 PUSH1 0x40 SHL SUB DUP2 GT ISZERO PUSH2 0x2D71 JUMPI PUSH1 0x0 DUP1 REVERT JUMPDEST PUSH2 0x274C DUP7 DUP3 DUP8 ADD PUSH2 0x297A JUMP JUMPDEST PUSH1 0x0 DUP1 PUSH1 0x40 DUP4 DUP6 SUB SLT ISZERO PUSH2 0x2D90 JUMPI PUSH1 0x0 DUP1 REVERT JUMPDEST DUP3 CALLDATALOAD PUSH1 0x1 PUSH1 0x1 PUSH1 0x40 SHL SUB DUP1 DUP3 GT ISZERO PUSH2 0x2DA7 JUMPI PUSH1 0x0 DUP1 REVERT JUMPDEST PUSH2 0x24DC DUP7 DUP4 DUP8 ADD PUSH2 0x2682 JUMP JUMPDEST PUSH1 0x0 DUP1 PUSH1 0x40 DUP4 DUP6 SUB SLT ISZERO PUSH2 0x2DC6 JUMPI PUSH1 0x0 DUP1 REVERT JUMPDEST DUP3 CALLDATALOAD PUSH1 0x1 PUSH1 0x1 PUSH1 0x40 SHL SUB DUP2 GT ISZERO PUSH2 0x2DDC JUMPI PUSH1 0x0 DUP1 REVERT JUMPDEST PUSH2 0x2846 DUP6 DUP3 DUP7 ADD PUSH2 0x297A JUMP JUMPDEST PUSH1 0x0 DUP1 PUSH1 0x40 DUP4 DUP6 SUB SLT ISZERO PUSH2 0x2DFB JUMPI PUSH1 0x0 DUP1 REVERT JUMPDEST DUP3 CALLDATALOAD PUSH1 0x1 PUSH1 0x1 PUSH1 0x40 SHL SUB DUP1 DUP3 GT ISZERO PUSH2 0x2E12 JUMPI PUSH1 0x0 DUP1 REVERT JUMPDEST PUSH2 0x2E1E DUP7 DUP4 DUP8 ADD PUSH2 0x2427 JUMP JUMPDEST SWAP4 POP PUSH1 0x20 DUP6 ADD CALLDATALOAD SWAP2 POP DUP1 DUP3 GT ISZERO PUSH2 0x2E34 JUMPI PUSH1 0x0 DUP1 REVERT JUMPDEST POP PUSH2 0x24FF DUP6 DUP3 DUP7 ADD PUSH2 0x23AE JUMP JUMPDEST PUSH1 0x0 DUP1 PUSH1 0x0 PUSH1 0x60 DUP5 DUP7 SUB SLT ISZERO PUSH2 0x2E56 JUMPI PUSH1 0x0 DUP1 REVERT JUMPDEST DUP4 CALLDATALOAD PUSH1 0x1 PUSH1 0x1 PUSH1 0x40 SHL SUB DUP2 GT ISZERO PUSH2 0x2E6C JUMPI PUSH1 0x0 DUP1 REVERT JUMPDEST PUSH2 0x274C DUP7 DUP3 DUP8 ADD PUSH2 0x2427 JUMP JUMPDEST PUSH4 0x4E487B71 PUSH1 0xE0 SHL PUSH1 0x0 MSTORE PUSH1 0x32 PUSH1 0x4 MSTORE PUSH1 0x24 PUSH1 0x0 REVERT JUMPDEST PUSH4 0x4E487B71 PUSH1 0xE0 SHL PUSH1 0x0 MSTORE PUSH1 0x11 PUSH1 0x4 MSTORE PUSH1 0x24 PUSH1 0x0 REVERT JUMPDEST PUSH1 0x0 DUP3 DUP3 LT ISZERO PUSH2 0x2EB6 JUMPI PUSH2 0x2EB6 PUSH2 0x2E8E JUMP JUMPDEST POP SUB SWAP1 JUMP JUMPDEST PUSH1 0x0 PUSH1 0x1 DUP3 ADD PUSH2 0x2ECD JUMPI PUSH2 0x2ECD PUSH2 0x2E8E JUMP JUMPDEST POP PUSH1 0x1 ADD SWAP1 JUMP JUMPDEST PUSH1 0x0 DUP2 PUSH1 0x0 NOT DIV DUP4 GT DUP3 ISZERO ISZERO AND ISZERO PUSH2 0x2EEE JUMPI PUSH2 0x2EEE PUSH2 0x2E8E JUMP JUMPDEST POP MUL SWAP1 JUMP JUMPDEST PUSH1 0x0 DUP3 PUSH2 0x2F10 JUMPI PUSH4 0x4E487B71 PUSH1 0xE0 SHL PUSH1 0x0 MSTORE PUSH1 0x12 PUSH1 0x4 MSTORE PUSH1 0x24 PUSH1 0x0 REVERT JUMPDEST POP DIV SWAP1 JUMP JUMPDEST PUSH1 0x0 DUP3 NOT DUP3 GT ISZERO PUSH2 0x2F28 JUMPI PUSH2 0x2F28 PUSH2 0x2E8E JUMP JUMPDEST POP ADD SWAP1 JUMP JUMPDEST PUSH1 0x0 PUSH4 0xFFFFFFFF DUP1 DUP4 AND DUP2 DUP2 SUB PUSH2 0x2F46 JUMPI PUSH2 0x2F46 PUSH2 0x2E8E JUMP JUMPDEST PUSH1 0x1 ADD SWAP4 SWAP3 POP POP POP JUMP INVALID LOG2 PUSH5 0x6970667358 0x22 SLT KECCAK256 0xAD 0xAC 0xA6 CODESIZE 0xBE 0x5E 0xC7 MLOAD DIFFICULTY 0xAD SWAP8 0xB4 0xED 0xE8 DUP13 PUSH16 0xCC05580E08B2AEA38A3BE2C0EDB39BC2 PUSH5 0x736F6C6343 STOP ADDMOD 0xD STOP CALLER ",
  "sha1": "ea5c8a48120b49f0d6f86a79849183ede1f382ea",
  "source": "// SPDX-License-Identifier: MIT\n// Beef Contracts v0.0.0 hello@mcdu.com\n\npragma solidity ^0.8.0;\n//import \"./MarketSearch.sol\";\nstruct Quote {\n    uint256 quotemin;\n    uint256 quoteavg;\n    uint256 quotemax;\n}\n\nstruct Remainer {\n    bytes32 currency;\n    uint256 qty;\n}\n\nstruct Solution {\n    uint256 orderid;\n    bytes32 addr;\n    uint256 qty; // can be 0 if it use remainer\n    uint256 granularity;\n    uint256 quote;\n    uint256[] delivery;\n}\nstruct SolutionSetDesc {\n    bytes32[] path;\n    uint256 qty;\n    Quote quote;\n    uint start;\n    uint count;\n    uint[] offset;\n}\nstruct SolutionSet {\n    uint256 qty;\n    Quote quote;\n    //uint256 useddescs;\n    //uint256 usedsolutions;\n    SolutionSetDesc[] descs;\n    Solution[] solutions;\n}\n\nlibrary MarketLib {\n    /*function descFrom(SolutionSetDesc memory desc_) public pure returns (bytes32) {\n        return desc_.path[0];\n    }\n    function descNext(SolutionSetDesc memory desc_) public pure returns (bytes32) {\n        return desc_.path[1];\n    }\n\n    function descTo(SolutionSetDesc memory desc_) public pure returns (bytes32) {\n        return desc_.path[desc_.path.length - 1];\n    }*/\n    function update(Remainer[] memory remainer_,SolutionSetDesc memory in_,Solution[] memory solin_)\n        public\n        pure \n        returns (Remainer[] memory remainerout_)\n    {\n        remainerout_ = remainer_;\n\n        uint len = in_.offset.length;\n        if (in_.offset.length==0)\n            return remainerout_;\n        \n        uint256 previoustotal=0;\n        uint offsetend = solin_.length;\n        for (uint i;i<len+1;i++)\n        {\n            uint offsetstart;\n            if (i==len)\n                offsetstart=0;\n            else\n                offsetstart = in_.offset[len-1-i];\n\n            uint256 total;\n            uint256 qty;\n            for (uint j=offsetstart;j<offsetend;j++)\n            {\n                qty+=solin_[j].qty;\n                total+=(solin_[j].qty*solin_[j].quote)/10**18;\n            }\n            if (i>0)\n            {\n                bytes32 addr = in_.path[in_.path.length-1-i];\n                //remainerout_ = add(remainerout_,addr,qty-previoustotal);\n\n                if (qty>previoustotal)\n                    remainerout_ = add(remainerout_,addr,qty-previoustotal);\n                else if (qty<previoustotal)\n                    remainerout_ = remove(remainerout_,addr,previoustotal-qty);\n            }\n            previoustotal = total;\n            offsetend= offsetstart;\n\n        }\n    }\n    function get(Remainer[] memory remainer_, bytes32 currency_)\n        public\n        pure\n        returns (uint256 qty_)\n    {\n        for (uint256 i; i < remainer_.length; i++)\n            if (remainer_[i].currency == currency_) return remainer_[i].qty;\n        return 0;\n    }\n\n    function add(\n        Remainer[] memory remainer_,\n        bytes32 currency_,\n        uint256 qty_\n    ) public pure returns (Remainer[] memory out_)  {\n        out_ = remainer_;\n        for (uint256 i; i < out_.length; i++)\n            if (out_[i].currency == currency_) {\n                out_[i].qty += qty_;\n                return out_;\n            }\n        out_ = new Remainer[](remainer_.length + 1);\n        for (uint256 i; i < remainer_.length; i++)\n            out_[i] = remainer_[i];\n        out_[remainer_.length].currency = currency_;\n        out_[remainer_.length].qty = qty_;\n        return out_;\n    }\n\n    function remove(\n        Remainer[] memory remainer_,\n        bytes32 currency_,\n        uint256 qty_\n    ) public pure returns (Remainer[] memory out_) {\n        out_ = remainer_;\n        for (uint256 i; i < out_.length; i++)\n            if (out_[i].currency == currency_) {\n                require(out_[i].qty>=qty_,\"Remainer remove qty is superior to remainer qty\");\n                out_[i].qty -= qty_;\n                if (out_[i].qty==0)\n                {\n                    if (out_.length>1)\n                        out_[i] = out_[out_.length-1];\n                    uint outcount = out_.length-1;\n                    assembly {\n                        mstore(out_, outcount)\n                    }\n                }\n                return out_;\n            }\n        return out_;\n    }\n\n    function descAddOffset(SolutionSetDesc memory in_,Solution[] memory solin_, bytes32 currency_, Solution[] memory sol_)\n        public\n        pure\n        returns (SolutionSetDesc memory out_,Solution[] memory solout_)\n    {\n        out_.qty = in_.qty;\n        out_.quote = in_.quote;\n        out_.path = new bytes32[](in_.path.length + 1);\n        for (uint i; i < in_.path.length; i++) out_.path[i+1] = in_.path[i];\n        out_.path[0] = currency_;\n        \n        out_.offset = new uint[](in_.offset.length+1);\n        for (uint i; i < in_.offset.length; i++) out_.offset[i+1] = in_.offset[i]+sol_.length;\n        out_.offset[0] = sol_.length;\n        out_.count = sol_.length+solin_.length;\n        solout_ = combine(sol_,solin_);\n    }\n\n    function descCreateFromTo(\n        SolutionSetDesc memory desc_,\n        bytes32 from_,\n        bytes32 to_\n    ) public pure returns (SolutionSetDesc memory out_) {\n        out_ = desc_;\n        out_.path = new bytes32[](2);\n        out_.path[0] = from_;\n        out_.path[1] = to_;\n    }\n\n    \n    function getIdQty(Solution[] memory sol_, uint256 orderid_)\n        public\n        pure\n        returns (uint256 qty_)\n    {\n        for (uint256 i; i < sol_.length; i++)\n            if (sol_[i].orderid == orderid_) qty_ += sol_[i].qty;\n    }\n    function add(Solution[] memory sols_, Solution memory sol_)\n        public\n        pure\n        returns (Solution[] memory out_)\n    {\n        for (uint256 i; i < sols_.length; i++) {\n            if (sols_[i].orderid == sol_.orderid)\n            {\n                sols_[i].qty += sol_.qty;\n                return sols_;\n            }\n        }\n        Solution[] memory sol = new Solution[](1);\n        sol[0] = sol_;\n        return combine(sols_, sol);\n    }\n    function add(Solution[] memory sols_, Solution[] memory sol_)\n        public\n        pure\n        returns (Solution[] memory out_)\n    {\n        out_ = sols_;\n        for (uint256 i; i < sol_.length; i++) {\n            out_ = add(out_,sol_[i]);\n        }\n    }\n\n    function combine(Solution[] memory sol1_, Solution[] memory sol2_)\n        public\n        pure\n        returns (Solution[] memory out_)\n    {\n        uint256 _sol1len = sol1_.length;\n        uint256 _sol2len = sol2_.length;\n\n        out_ = new Solution[](_sol1len + _sol2len);\n        for (uint256 i; i < _sol1len; i++) {\n            out_[i] = duplicate(sol1_[i]);\n        }\n        for (uint256 i; i < _sol2len; i++) {\n            out_[_sol1len + i] = duplicate(sol2_[i]);\n        }\n    }\n\n    function duplicate(Solution[] memory sol_)\n        public\n        pure\n        returns (Solution[] memory out_)\n    {\n        return duplicate(sol_, 0, sol_.length);\n    }\n\n    function duplicate(\n        Solution[] memory sol_,\n        uint256 start_,\n        uint256 count_\n    ) public pure returns (Solution[] memory out_) {\n        out_ = new Solution[](count_);\n        for (uint256 i; i < count_; i++) {\n            out_[i] = duplicate(sol_[start_ + i]);\n        }\n    }\n\n    function duplicate(Solution memory sol_)\n        public\n        pure\n        returns (Solution memory out_)\n    {\n        out_.orderid = sol_.orderid;\n        out_.addr = sol_.addr;\n        out_.qty = sol_.qty;\n        out_.granularity = sol_.granularity;\n        out_.quote = sol_.quote;\n        out_.delivery = sol_.delivery;\n    }\n\n    /*function filter(Solution[] memory sol_,\n        MarketSearch.SearchArgTarget memory target_,\n        MarketSearch.SearchArg memory searcharg_\n    )\n        public\n        pure\n        returns (Solution[] memory out_)\n    {\n        Solution[] memory _filtered = new Solution[](out_.length);\n        uint256 _count = 0;\n        for (uint256 i; i < out_.length; i++) {\n            //testing maxquote\n            if (\n                (searcharg_.maxquote != 0) &&\n                (out_[i].quote > searcharg_.maxquote)\n            ) continue;\n            if (out_[i].granularity < target_.mingranularity) continue;\n            //if (out_[i].qty < out_[i].granularity) continue;\n            if (out_[i].qty < searcharg_.used.getIdQty(out_[i].orderid))\n                continue;\n            if (\n                (out_[i].qty - searcharg_.used.getIdQty(out_[i].orderid)) <\n                out_[i].granularity\n            ) continue;\n            if (\n                target_.maxcount == 1 &&\n                searcharg_.maxavgquote != 0 &&\n                out_[i].quote > searcharg_.maxavgquote\n            ) continue;\n\n            _filtered[_count] = out_[i];\n            _count++;\n        }\n        assembly {\n            mstore(_filtered, _count)\n        }\n        out_ = _filtered;\n    }*/\n    function order(Solution[] memory sol_)\n        public\n        pure\n        returns (Solution[] memory out_)\n    {\n        out_ = new Solution[](sol_.length);\n        uint256 _count = 0;\n        for (uint256 i; i < sol_.length; i++) {\n            // bubble sort based on quote\n            Solution memory _ordertoinsert = sol_[i];\n            uint j = 0;\n            for (; j < _count; j++) {\n                if (out_[j].quote > _ordertoinsert.quote) {\n                    Solution memory _ordertosave = out_[j];\n                    out_[j] = _ordertoinsert;\n                    _ordertoinsert = _ordertosave;\n                    j++;\n                    break;\n                }\n            }\n\n            for (; j < _count; j++) {\n                Solution memory _ordertosave = out_[j];\n                out_[j] = _ordertoinsert;\n                _ordertoinsert = _ordertosave;\n            }\n\n            out_[_count++] = _ordertoinsert;\n        }\n    }\n\n    function orderGranularity(Solution[] memory sol_)\n        public\n        pure\n        returns (Solution[] memory out_)\n    {\n        out_ = new Solution[](sol_.length);\n        uint256 _count = 0;\n        for (uint256 i; i < sol_.length; i++) {\n            // bubble sort based on quote\n            Solution memory _ordertoinsert = sol_[i];\n            uint32 j = 0;\n            for (; j < _count; j++) {\n                if (\n                    (out_[j].granularity < _ordertoinsert.granularity) ||\n                    ((out_[j].granularity == _ordertoinsert.granularity) &&\n                        (out_[j].quote > _ordertoinsert.quote))\n                ) {\n                    Solution memory _ordertosave = out_[j];\n                    out_[j] = _ordertoinsert;\n                    _ordertoinsert = _ordertosave;\n                    j++;\n                    break;\n                }\n            }\n\n            for (; j < _count; j++) {\n                Solution memory _ordertosave = out_[j];\n                out_[j] = _ordertoinsert;\n                _ordertoinsert = _ordertosave;\n            }\n\n            out_[_count] = _ordertoinsert;\n            _count++;\n        }\n    }\n\n    function filterUsed(Solution[] memory sol_, Solution[] memory used_)\n        public\n        pure\n        returns (Solution[] memory out_)\n    {\n        out_ = new Solution[](sol_.length);\n        uint256 _count = 0;\n        for (uint256 i; i < sol_.length; i++) {\n            // bubble sort based on quote\n\n            Solution memory _ordertoinsert = duplicate(sol_[i]);\n            uint256 _qtyused = getIdQty(used_, _ordertoinsert.orderid);\n            if (_qtyused >= _ordertoinsert.qty) continue;\n            _ordertoinsert.qty -= _qtyused;\n            if (_ordertoinsert.qty < _ordertoinsert.granularity) continue;\n\n            out_[_count] = _ordertoinsert;\n            _count++;\n        }\n        assembly {\n            mstore(out_, _count)\n        }\n    }\n\n    function getQtyQuote(Solution[] memory sol_)\n        public\n        pure\n        returns (uint256 qty_, Quote memory quote_)\n    {\n        return getQtyQuote(sol_, sol_.length);\n    }\n\n    function getQtyQuote(Solution[] memory sol_, uint256 count_)\n        public\n        pure\n        returns (uint256 qty_, Quote memory quote_)\n    {\n        for (uint256 j = 0; j < count_; j++) {\n            if (quote_.quotemin == 0 || quote_.quotemin > sol_[j].quote)\n                quote_.quotemin = sol_[j].quote;\n            if (quote_.quotemax == 0 || quote_.quotemax < sol_[j].quote)\n                quote_.quotemax = sol_[j].quote;\n            quote_.quoteavg += (sol_[j].qty * sol_[j].quote) / 10**18;\n            qty_ += sol_[j].qty;\n        }\n        quote_.quoteavg = qty_!=0 ? (quote_.quoteavg * 10**18) / qty_ : 0;\n    }\n\n    function getQty(Solution[] memory sol_, uint256 count_)\n        public\n        pure\n        returns (uint256 qty_)\n    {\n        for (uint256 i; i < count_; i++) qty_ += sol_[i].qty;\n    }\n\n    function getQty(Solution[] memory sol_) public pure returns (uint256 qty_) {\n        return getQty(sol_, sol_.length);\n    }\n\n    function getHasQty(Solution[] memory sol_, uint256 count_)\n        public\n        pure\n        returns (bool)\n    {\n        for (uint256 i; i < count_; i++) if (sol_[i].qty > 0) return true;\n        return false;\n    }\n\n    function getHasQty(Solution[] memory sol_) public pure returns (bool) {\n        return getHasQty(sol_, sol_.length);\n    }\n\n    function getAvg(Solution[] memory sol_, uint256 count_)\n        public\n        pure\n        returns (uint256 quote_)\n    {\n        uint256 _qty;\n        for (uint256 i; i < count_; i++) {\n            quote_ += (sol_[i].qty * sol_[i].quote) / 10**18;\n            _qty += sol_[i].qty;\n        }\n        if (_qty > 0) quote_ = (quote_ * 10**18) / _qty;\n    }\n\n    function getAvg(Solution[] memory sol_)\n        public\n        pure\n        returns (uint256 quote_)\n    {\n        return getAvg(sol_, sol_.length);\n    }\n\n    function getTotal(Solution[] memory sol_, uint256 count_)\n        public\n        pure\n        returns (uint256 total_)\n    {\n        for (uint256 i; i < count_; i++)\n            total_ += (sol_[i].qty * sol_[i].quote) / 10**18;\n    }\n\n    function getTotal(Solution[] memory sol_)\n        public\n        pure\n        returns (uint256 total_)\n    {\n        return getTotal(sol_, sol_.length);\n    }\n\n    function add(SolutionSet memory set_, SolutionSet memory from_)\n        public\n        pure\n        returns (SolutionSet memory out_)\n    {\n        out_.qty = set_.qty;\n        out_.quote = set_.quote;\n        out_.descs = new SolutionSetDesc[](set_.descs.length + from_.descs.length);\n        for (uint256 i; i < set_.descs.length; i++) out_.descs[i] = set_.descs[i];\n        for (uint256 i; i < from_.descs.length; i++) {\n            out_.descs[set_.descs.length + i] = from_.descs[i];\n            out_.descs[set_.descs.length + i].start += set_.solutions.length;\n        }\n\n        out_.solutions = new Solution[](\n            set_.solutions.length + from_.solutions.length\n        );\n        for (uint256 i; i < set_.solutions.length; i++)\n            out_.solutions[i] = set_.solutions[i];\n        for (uint256 i; i < from_.solutions.length; i++)\n            out_.solutions[set_.solutions.length + i] = from_.solutions[i];\n        out_.quote.quotemin = set_.descs.length == 0 ? from_.quote.quotemin : out_.quote.quotemin>from_.quote.quotemin ? from_.quote.quotemin : out_.quote.quotemin;\n        out_.quote.quotemax = out_.quote.quotemax<from_.quote.quotemax ? from_.quote.quotemax : out_.quote.quotemax;\n        out_.quote.quoteavg = out_.qty+from_.qty!=0 ? (out_.quote.quoteavg*out_.qty + from_.quote.quoteavg*from_.qty) / (out_.qty+from_.qty) : 0;\n        out_.qty += from_.qty;\n\n    }\n    function create(\n        SolutionSetDesc memory desc_,\n        Solution[] memory solutions_\n    ) public pure returns (SolutionSet memory out_) {\n        out_.solutions = duplicate(solutions_);\n\n        out_.descs = new SolutionSetDesc[](1);\n        out_.descs[0] = desc_;\n        out_.descs[0].start = 0;\n        out_.qty = desc_.qty;\n        out_.quote = desc_.quote;\n\n    }\n\n    function add(\n        SolutionSet memory set_,\n        SolutionSetDesc memory desc_,\n        Solution[] memory solutions_\n    ) public pure returns (SolutionSet memory out_) {\n        out_.qty = set_.qty;\n        out_.quote = set_.quote;\n\n        out_.solutions = new Solution[](set_.solutions.length + desc_.count);\n        for (uint256 i; i < set_.solutions.length; i++)\n            out_.solutions[i] = set_.solutions[i];\n        for (uint256 i; i < desc_.count; i++)\n            out_.solutions[set_.solutions.length + i] = solutions_[\n                desc_.start + i\n            ];\n\n        out_.descs = new SolutionSetDesc[](set_.descs.length + 1);\n        for (uint256 i; i < set_.descs.length; i++) out_.descs[i] = set_.descs[i];\n\n        out_.descs[set_.descs.length] = desc_;\n        out_.descs[set_.descs.length].start = set_.solutions.length;\n        out_.quote.quotemin = set_.descs.length == 0 ? desc_.quote.quotemin : out_.quote.quotemin>desc_.quote.quotemin ? desc_.quote.quotemin : out_.quote.quotemin;\n        out_.quote.quotemax = out_.quote.quotemax<desc_.quote.quotemax ? desc_.quote.quotemax : out_.quote.quotemax;\n        out_.quote.quoteavg = out_.qty+desc_.qty!= 0 ? (out_.quote.quoteavg*out_.qty + desc_.quote.quoteavg*desc_.qty) / (out_.qty+desc_.qty) : 0;\n        out_.qty += desc_.qty;\n\n    }\n}\n",
  "sourcePath": "contracts/Market/Lib.sol",
  "type": "library"
}