{
  "abi": [
    {
      "inputs": [
        {
          "internalType": "contract Repository",
          "name": "rep_",
          "type": "address"
        }
      ],
      "stateMutability": "nonpayable",
      "type": "constructor"
    },
    {
      "anonymous": false,
      "inputs": [
        {
          "indexed": true,
          "internalType": "address",
          "name": "previousOwner",
          "type": "address"
        },
        {
          "indexed": true,
          "internalType": "address",
          "name": "newOwner",
          "type": "address"
        }
      ],
      "name": "OwnershipTransferred",
      "type": "event"
    },
    {
      "stateMutability": "nonpayable",
      "type": "fallback"
    },
    {
      "inputs": [],
      "name": "STOP",
      "outputs": [
        {
          "internalType": "bool",
          "name": "",
          "type": "bool"
        }
      ],
      "stateMutability": "view",
      "type": "function"
    },
    {
      "inputs": [],
      "name": "STOPFOREVER",
      "outputs": [
        {
          "internalType": "bool",
          "name": "",
          "type": "bool"
        }
      ],
      "stateMutability": "view",
      "type": "function"
    },
    {
      "inputs": [
        {
          "internalType": "uint256",
          "name": "val_",
          "type": "uint256"
        }
      ],
      "name": "UInt256ToUInt32",
      "outputs": [
        {
          "internalType": "uint32",
          "name": "",
          "type": "uint32"
        }
      ],
      "stateMutability": "pure",
      "type": "function"
    },
    {
      "inputs": [
        {
          "internalType": "uint256",
          "name": "val_",
          "type": "uint256"
        }
      ],
      "name": "UInt256ToUInt48",
      "outputs": [
        {
          "internalType": "uint48",
          "name": "",
          "type": "uint48"
        }
      ],
      "stateMutability": "pure",
      "type": "function"
    },
    {
      "inputs": [
        {
          "internalType": "uint256",
          "name": "val_",
          "type": "uint256"
        }
      ],
      "name": "UInt256ToUInt64",
      "outputs": [
        {
          "internalType": "uint64",
          "name": "",
          "type": "uint64"
        }
      ],
      "stateMutability": "pure",
      "type": "function"
    },
    {
      "inputs": [
        {
          "internalType": "uint32",
          "name": "val_",
          "type": "uint32"
        }
      ],
      "name": "UInt32ToUInt256",
      "outputs": [
        {
          "internalType": "uint256",
          "name": "",
          "type": "uint256"
        }
      ],
      "stateMutability": "pure",
      "type": "function"
    },
    {
      "inputs": [
        {
          "internalType": "uint48",
          "name": "val_",
          "type": "uint48"
        }
      ],
      "name": "UInt48ToUInt256",
      "outputs": [
        {
          "internalType": "uint256",
          "name": "",
          "type": "uint256"
        }
      ],
      "stateMutability": "pure",
      "type": "function"
    },
    {
      "inputs": [
        {
          "internalType": "uint64",
          "name": "val_",
          "type": "uint64"
        }
      ],
      "name": "UInt64ToUInt256",
      "outputs": [
        {
          "internalType": "uint256",
          "name": "",
          "type": "uint256"
        }
      ],
      "stateMutability": "pure",
      "type": "function"
    },
    {
      "inputs": [
        {
          "internalType": "bytes32",
          "name": "_from",
          "type": "bytes32"
        },
        {
          "internalType": "bytes32",
          "name": "fromto_",
          "type": "bytes32"
        }
      ],
      "name": "_existPath",
      "outputs": [
        {
          "internalType": "bool",
          "name": "",
          "type": "bool"
        }
      ],
      "stateMutability": "view",
      "type": "function"
    },
    {
      "inputs": [
        {
          "internalType": "bytes32",
          "name": "from_",
          "type": "bytes32"
        }
      ],
      "name": "_listPathFrom",
      "outputs": [
        {
          "internalType": "bytes32[][]",
          "name": "out_",
          "type": "bytes32[][]"
        }
      ],
      "stateMutability": "view",
      "type": "function"
    },
    {
      "inputs": [
        {
          "internalType": "uint256",
          "name": "start_",
          "type": "uint256"
        },
        {
          "internalType": "uint256",
          "name": "count_",
          "type": "uint256"
        }
      ],
      "name": "d_list",
      "outputs": [
        {
          "components": [
            {
              "internalType": "address",
              "name": "account",
              "type": "address"
            },
            {
              "internalType": "bytes32",
              "name": "from",
              "type": "bytes32"
            },
            {
              "internalType": "bytes32",
              "name": "to",
              "type": "bytes32"
            },
            {
              "internalType": "uint256",
              "name": "orderid",
              "type": "uint256"
            },
            {
              "internalType": "uint256",
              "name": "qty",
              "type": "uint256"
            },
            {
              "internalType": "uint256",
              "name": "granularity",
              "type": "uint256"
            },
            {
              "internalType": "uint256",
              "name": "qtydone",
              "type": "uint256"
            },
            {
              "internalType": "uint256",
              "name": "originalqty",
              "type": "uint256"
            },
            {
              "internalType": "uint256",
              "name": "quote",
              "type": "uint256"
            },
            {
              "internalType": "uint256",
              "name": "originalquote",
              "type": "uint256"
            },
            {
              "internalType": "uint256",
              "name": "originalbasedquote",
              "type": "uint256"
            },
            {
              "internalType": "uint256",
              "name": "expire",
              "type": "uint256"
            },
            {
              "internalType": "enum Order.State",
              "name": "state",
              "type": "uint8"
            },
            {
              "internalType": "uint8",
              "name": "options",
              "type": "uint8"
            }
          ],
          "internalType": "struct Order.InfoPublic[]",
          "name": "out_",
          "type": "tuple[]"
        }
      ],
      "stateMutability": "view",
      "type": "function"
    },
    {
      "inputs": [],
      "name": "id",
      "outputs": [
        {
          "internalType": "bytes32",
          "name": "",
          "type": "bytes32"
        }
      ],
      "stateMutability": "view",
      "type": "function"
    },
    {
      "inputs": [
        {
          "internalType": "address",
          "name": "caller_",
          "type": "address"
        }
      ],
      "name": "isOwner",
      "outputs": [
        {
          "internalType": "bool",
          "name": "",
          "type": "bool"
        }
      ],
      "stateMutability": "view",
      "type": "function"
    },
    {
      "inputs": [
        {
          "internalType": "uint256",
          "name": "start_",
          "type": "uint256"
        },
        {
          "internalType": "uint256",
          "name": "count_",
          "type": "uint256"
        }
      ],
      "name": "list",
      "outputs": [
        {
          "components": [
            {
              "internalType": "address",
              "name": "account",
              "type": "address"
            },
            {
              "internalType": "bytes32",
              "name": "from",
              "type": "bytes32"
            },
            {
              "internalType": "bytes32",
              "name": "to",
              "type": "bytes32"
            },
            {
              "internalType": "uint256",
              "name": "orderid",
              "type": "uint256"
            },
            {
              "internalType": "uint256",
              "name": "qty",
              "type": "uint256"
            },
            {
              "internalType": "uint256",
              "name": "granularity",
              "type": "uint256"
            },
            {
              "internalType": "uint256",
              "name": "qtydone",
              "type": "uint256"
            },
            {
              "internalType": "uint256",
              "name": "originalqty",
              "type": "uint256"
            },
            {
              "internalType": "uint256",
              "name": "quote",
              "type": "uint256"
            },
            {
              "internalType": "uint256",
              "name": "originalquote",
              "type": "uint256"
            },
            {
              "internalType": "uint256",
              "name": "originalbasedquote",
              "type": "uint256"
            },
            {
              "internalType": "uint256",
              "name": "expire",
              "type": "uint256"
            },
            {
              "internalType": "enum Order.State",
              "name": "state",
              "type": "uint8"
            },
            {
              "internalType": "uint8",
              "name": "options",
              "type": "uint8"
            }
          ],
          "internalType": "struct Order.InfoPublic[]",
          "name": "out_",
          "type": "tuple[]"
        }
      ],
      "stateMutability": "view",
      "type": "function"
    },
    {
      "inputs": [
        {
          "internalType": "uint256",
          "name": "order_",
          "type": "uint256"
        }
      ],
      "name": "order",
      "outputs": [
        {
          "components": [
            {
              "internalType": "address",
              "name": "account",
              "type": "address"
            },
            {
              "internalType": "bytes32",
              "name": "from",
              "type": "bytes32"
            },
            {
              "internalType": "bytes32",
              "name": "to",
              "type": "bytes32"
            },
            {
              "internalType": "uint256",
              "name": "orderid",
              "type": "uint256"
            },
            {
              "internalType": "uint256",
              "name": "qty",
              "type": "uint256"
            },
            {
              "internalType": "uint256",
              "name": "granularity",
              "type": "uint256"
            },
            {
              "internalType": "uint256",
              "name": "qtydone",
              "type": "uint256"
            },
            {
              "internalType": "uint256",
              "name": "originalqty",
              "type": "uint256"
            },
            {
              "internalType": "uint256",
              "name": "quote",
              "type": "uint256"
            },
            {
              "internalType": "uint256",
              "name": "originalquote",
              "type": "uint256"
            },
            {
              "internalType": "uint256",
              "name": "originalbasedquote",
              "type": "uint256"
            },
            {
              "internalType": "uint256",
              "name": "expire",
              "type": "uint256"
            },
            {
              "internalType": "enum Order.State",
              "name": "state",
              "type": "uint8"
            },
            {
              "internalType": "uint8",
              "name": "options",
              "type": "uint8"
            }
          ],
          "internalType": "struct Order.InfoPublic",
          "name": "",
          "type": "tuple"
        }
      ],
      "stateMutability": "view",
      "type": "function"
    },
    {
      "inputs": [],
      "name": "owner",
      "outputs": [
        {
          "internalType": "address",
          "name": "",
          "type": "address"
        }
      ],
      "stateMutability": "view",
      "type": "function"
    },
    {
      "inputs": [],
      "name": "renounceOwnership",
      "outputs": [],
      "stateMutability": "nonpayable",
      "type": "function"
    },
    {
      "inputs": [],
      "name": "rep",
      "outputs": [
        {
          "internalType": "contract Repository",
          "name": "",
          "type": "address"
        }
      ],
      "stateMutability": "view",
      "type": "function"
    },
    {
      "inputs": [],
      "name": "setSTOP",
      "outputs": [],
      "stateMutability": "nonpayable",
      "type": "function"
    },
    {
      "inputs": [],
      "name": "setSTOPFOREVER",
      "outputs": [],
      "stateMutability": "nonpayable",
      "type": "function"
    },
    {
      "inputs": [
        {
          "internalType": "bytes4",
          "name": "interfaceId",
          "type": "bytes4"
        }
      ],
      "name": "supportsInterface",
      "outputs": [
        {
          "internalType": "bool",
          "name": "",
          "type": "bool"
        }
      ],
      "stateMutability": "view",
      "type": "function"
    },
    {
      "inputs": [
        {
          "internalType": "address",
          "name": "newOwner",
          "type": "address"
        }
      ],
      "name": "transferOwnership",
      "outputs": [],
      "stateMutability": "nonpayable",
      "type": "function"
    },
    {
      "inputs": [],
      "name": "unsetSTOP",
      "outputs": [],
      "stateMutability": "nonpayable",
      "type": "function"
    }
  ],
  "bytecode": "60a06040523480156200001157600080fd5b5060405162002198380380620021988339810160408190526200003491620000b1565b8080620000413362000056565b6001600160a01b031660805250620000e39050565b600080546001600160a01b038381166201000081810262010000600160b01b0319851617855560405193049190911692909183917f8be0079c531659141344cd1fd0a4f28419497f9722a3daafe3b4186f6b6457e091a35050565b600060208284031215620000c457600080fd5b81516001600160a01b0381168114620000dc57600080fd5b9392505050565b60805161206162000137600039600081816103b201528181610451015281816104ef015281816107520152818161095a01528181610a0901528181610f180152818161113c015261132e01526120616000f3fe608060405234801561001057600080fd5b506004361061014d5760003560e01c80637af6649a116100c3578063b03fd40d1161007c578063b03fd40d1461039a578063ccc07959146103ad578063d6935858146103d4578063e4b16144146103dc578063f2fde38b146103ef578063feab4454146104025761014d565b80637af6649a146102fd578063854ba99d1461031e5780638da5cb5b14610326578063975bd542146103515780639796207614610364578063af640d0f146103745761014d565b80632f54bf6e116101155780632f54bf6e1461025a57806350fd73671461028257806362965141146102a25780636b2b091a146102cd578063715018a6146102ed57806372ea61bf146102f55761014d565b806301ffc9a7146101cf57806305d6bd9c146101f75780631ef4590d146101ff57806321603f43146102125780632203616d14610232575b61015561042c565b60006101656024600436846118db565b8080601f016020809104026020016040519081016040528093929190818152602001838380828437600092018290525060208501519495509250503660231981019150601f19016004838037816024600437600080826000875af4925050506101cd816105f6565b005b6101e26101dd366004611905565b61060c565b60405190151581526020015b60405180910390f35b6101cd610643565b6101e261020d36600461192f565b61065a565b610225610220366004611951565b6106eb565b6040516101ee9190611a49565b610245610240366004611951565b6106fe565b60405163ffffffff90911681526020016101ee565b6101e2610268366004611a6d565b6000546201000090046001600160a01b0390811691161490565b61029561029036600461192f565b61070f565b6040516101ee9190611a8a565b6102b56102b0366004611951565b61086e565b6040516001600160401b0390911681526020016101ee565b6102e06102db366004611951565b6108a0565b6040516101ee9190611ad9565b6101cd610cba565b6101cd610ccc565b61031061030b366004611b63565b610ce6565b6040519081526020016101ee565b6101e2610cff565b6000546201000090046001600160a01b03165b6040516001600160a01b0390911681526020016101ee565b61029561035f36600461192f565b610d1d565b600054610100900460ff166101e2565b7f2b53f13a2ed1dacb652f78e48a76feb68150760efc65d85ec10a571b9c6348d7610310565b6103106103a8366004611b8b565b610d29565b6103397f000000000000000000000000000000000000000000000000000000000000000081565b6101cd610d43565b6103106103ea366004611bb4565b610d5f565b6101cd6103fd366004611a6d565b610d76565b610415610410366004611951565b610def565b60405165ffffffffffff90911681526020016101ee565b6000546001600160a01b0362010000909104163314806104df57506001600160a01b037f0000000000000000000000000000000000000000000000000000000000000000166316279055336040516001600160e01b031960e084901b1681526001600160a01b039091166004820152602401602060405180830381865afa1580156104bb573d6000803e3d6000fd5b505050506040513d601f19601f820116820180604052508101906104df9190611bda565b8061057d57506001600160a01b037f000000000000000000000000000000000000000000000000000000000000000016636d70f7ae336040516001600160e01b031960e084901b1681526001600160a01b039091166004820152602401602060405180830381865afa158015610559573d6000803e3d6000fd5b505050506040513d601f19601f8201168201806040525081019061057d9190611bda565b6105f45760405162461bcd60e51b815260206004820152603960248201527f416c6c6f77616e63653a2063616c6c6572206d757374206265205265706f736960448201527f746f727920436f6e7472616374206f72204f70657261746f720000000000000060648201526084015b60405180910390fd5b565b3d6000803e808015610607573d6000f35b3d6000fd5b60006001600160e01b031982166301ffc9a760e01b148061063d57506001600160e01b031982166315d3789560e31b145b92915050565b61064b61042c565b6105f46000805460ff19169055565b6000828152600160205260408082209051632be5db2360e11b815260048101919091526024810183905273__Array_________________________________906357cbb64690604401602060405180830381865af41580156106c0573d6000803e3d6000fd5b505050506040513d601f19601f820116820180604052508101906106e49190611bda565b9392505050565b6106f361184c565b61063d826000610e00565b600061063d64e8d4a5100083611c12565b60405163023aa9ab60e61b81527f2e7a327ef83c2af7579c6634f2f5604519800c5f07626f27bd602fd11ed8e6ec60048201526060906000906001600160a01b037f00000000000000000000000000000000000000000000000000000000000000001690638eaa6ac090602401602060405180830381865afa158015610799573d6000803e3d6000fd5b505050506040513d601f19601f820116820180604052508101906107bd9190611c34565b6040805130602482015260448101879052606480820187905282518083039091018152608490910182526020810180516001600160e01b0316634badeaa160e11b17905290516001600160a01b03929092169161081a9190611c51565b600060405180830381855afa9150503d8060008114610855576040519150601f19603f3d011682016040523d82523d6000602084013e61085a565b606091505b50509050610867816105f6565b5092915050565b6000806108806402540be40084611c12565b905082610892826402540be400611c8c565b111561063d5761063d611cab565b60008181526001602090815260408083208054825181850281018501909352808352606094938301828280156108f557602002820191906000526020600020905b8154815260200190600101908083116108e1575b5050505050905080516001600160401b0381111561091557610915611cc1565b60405190808252806020026020018201604052801561094857816020015b60608152602001906001900390816109335790505b5091506000805b8251811015610c67577f00000000000000000000000000000000000000000000000000000000000000006001600160a01b03166338a699a484838151811061099957610999611cd7565b60200260200101516040518263ffffffff1660e01b81526004016109bf91815260200190565b602060405180830381865afa1580156109dc573d6000803e3d6000fd5b505050506040513d601f19601f82011682018060405250810190610a009190611bda565b15610c555760007f00000000000000000000000000000000000000000000000000000000000000006001600160a01b03166327ee9dc2858481518110610a4857610a48611cd7565b60200260200101516040518263ffffffff1660e01b8152600401610a6e91815260200190565b600060405180830381865afa158015610a8b573d6000803e3d6000fd5b505050506040513d6000823e601f3d908101601f19168201604052610ab39190810190611ced565b90506000815111610b065760405162461bcd60e51b815260206004820152601760248201527f5f706174684c69737420706174682e6c656e6774683e3000000000000000000060448201526064016105eb565b60005b60018251610b179190611daa565b811015610c0d57610bf673__BytesAndKeccakLib_____________________6376254ff9848481518110610b4d57610b4d611cd7565b602002602001015185856001610b639190611dc1565b81518110610b7357610b73611cd7565b60200260200101516040518363ffffffff1660e01b8152600401610ba1929190918252602082015260400190565b602060405180830381865af4158015610bbe573d6000803e3d6000fd5b505050506040513d601f19601f82011682018060405250810190610be29190611dd9565b600090815260066020526040902054151590565b15610c0d5780610c0581611df2565b915050610b09565b60018251610c1b9190611daa565b811015610c29575050610c55565b818685610c3581611df2565b965081518110610c4757610c47611cd7565b602002602001018190525050505b80610c5f81611df2565b91505061094f565b5080835260008111610cb35760405162461bcd60e51b815260206004820152601560248201527405f6c6973745061746846726f6d20636f756e743e3605c1b60448201526064016105eb565b5050919050565b610cc261156d565b6105f460006115ce565b610cd461042c565b6105f46000805460ff19166001179055565b600061063d65ffffffffffff831664174876e800611c8c565b6000805460ff1680610d185750600054610100900460ff165b905090565b60606106e48383611629565b600061063d6001600160401b0383166402540be400611c8c565b610d4b61156d565b6105f46000805461ff001916610100179055565b600061063d63ffffffff831664e8d4a51000611c8c565b610d7e61156d565b6001600160a01b038116610de35760405162461bcd60e51b815260206004820152602660248201527f4f776e61626c653a206e6577206f776e657220697320746865207a65726f206160448201526564647265737360d01b60648201526084016105eb565b610dec816115ce565b50565b600061063d64174876e80083611c12565b610e0861184c565b60008381526005602081815260408084208151610180810183528154815260018201546001600160a01b0381169482019490945293909291840191600160a01b900460ff1690811115610e5d57610e5d61196a565b6005811115610e6e57610e6e61196a565b81526001820154600160a81b900460ff166020820152600282015460408083019190915260038301546001600160401b0380821660608501526801000000000000000080830482166080860152600160801b808404831660a0870152600160c01b909304821660c086015260049586015480831660e087015290810482166101008601529190910416610120909201919091528251905163657c7e0960e01b8152918201529091507f00000000000000000000000000000000000000000000000000000000000000006001600160a01b03169063657c7e09906024016040805180830381865afa158015610f66573d6000803e3d6000fd5b505050506040513d601f19601f82011682018060405250810190610f8a9190611e0b565b60408401526020830152608081015160608301528280611023575060608101516040516336181b6760e11b815260ff909116600482015273__Order_________________________________90636c3036ce90602401602060405180830381865af4158015610ffd573d6000803e3d6000fd5b505050506040513d601f19601f820116820180604052508101906110219190611bda565b155b156114aa5760208101516001600160a01b0316825260a081015161104690610d29565b60808301526060810151604051632b2076e360e11b815260ff909116600482015273__Order_________________________________90635640edc690602401602060405180830381865af41580156110a3573d6000803e3d6000fd5b505050506040513d601f19601f820116820180604052508101906110c79190611bda565b156110db57608082015160a0830152611227565b6101208101516001600160401b031615611107576110fd816101200151610d29565b60a0830152611227565b60405163023aa9ab60e61b81527fcd775f2396f9f13f12bcf8ca32e21df66559a8adc3944d0591127e7731f7ab8560048201527f00000000000000000000000000000000000000000000000000000000000000006001600160a01b031690638eaa6ac090602401602060405180830381865afa15801561118b573d6000803e3d6000fd5b505050506040513d601f19601f820116820180604052508101906111af9190611c34565b6001600160a01b031663a9bf985883602001516040518263ffffffff1660e01b81526004016111e091815260200190565b602060405180830381865afa1580156111fd573d6000803e3d6000fd5b505050506040513d601f19601f820116820180604052508101906112219190611dd9565b60a08301525b6112348160c00151610d29565b60c083015260e081015161124790610d29565b60e08301526060810151604051635b7d0f6960e11b815260ff909116600482015273__Order_________________________________9063b6fa1ed290602401602060405180830381865af41580156112a4573d6000803e3d6000fd5b505050506040513d601f19601f820116820180604052508101906112c89190611bda565b15611495576112db816101400151610d29565b6101208301526101608101516112f090610d29565b61014083015260405163023aa9ab60e61b81527f3cb99135f7a7c088d9085b446345038a22a85f4e8fe072b0e1b66d97243e745860048201526000907f00000000000000000000000000000000000000000000000000000000000000006001600160a01b031690638eaa6ac090602401602060405180830381865afa15801561137d573d6000803e3d6000fd5b505050506040513d601f19601f820116820180604052508101906113a19190611c34565b6001600160a01b0316636464b68a846020015185604001516040518363ffffffff1660e01b81526004016113df929190918252602082015260400190565b606060405180830381865afa1580156113fc573d6000803e3d6000fd5b505050506040513d601f19601f820116820180604052508101906114209190611e2f565b5091505060008190036114695760405162461bcd60e51b8152602060048201526011602482015270145d5bdd194e88139bdd081c5d5bdd1959607a1b60448201526064016105eb565b6101408301516114799082611c12565b8361012001516114899190611c8c565b610100840152506114aa565b6114a3816101000151610d29565b6101008301525b604051630212d6cb60e21b815273__Order_________________________________9063084b5b2c906114e1908490600401611e5d565b602060405180830381865af41580156114fe573d6000803e3d6000fd5b505050506040513d601f19601f820116820180604052508101906115229190611dd9565b610160830152604081015161018083019060058111156115445761154461196a565b908160058111156115575761155761196a565b9052506060015160ff166101a082015292915050565b6000546001600160a01b03620100009091041633146105f45760405162461bcd60e51b815260206004820152601f60248201527f416c6c6f77616e63653a2063616c6c6572206d757374206265204f776e65720060448201526064016105eb565b600080546001600160a01b038381166201000081810262010000600160b01b0319851617855560405193049190911692909183917f8be0079c531659141344cd1fd0a4f28419497f9722a3daafe3b4186f6b6457e091a35050565b6060816000036116395760045491505b816001600160401b0381111561165157611651611cc1565b60405190808252806020026020018201604052801561168a57816020015b61167761184c565b81526020019060019003908161166f5790505b50600454909150600090845b81811015611842578483101561184257600060056000600484815481106116bf576116bf611cd7565b90600052602060002001548152602001908152602001600020905073__Order_________________________________63084b5b2c826040518263ffffffff1660e01b81526004016117119190611f50565b602060405180830381865af415801561172e573d6000803e3d6000fd5b505050506040513d601f19601f820116820180604052508101906117529190611dd9565b15806117d65750604051630212d6cb60e21b8152429073__Order_________________________________9063084b5b2c90611792908590600401611f50565b602060405180830381865af41580156117af573d6000803e3d6000fd5b505050506040513d601f19601f820116820180604052508101906117d39190611dd9565b10155b1561182f57611803600483815481106117f1576117f1611cd7565b90600052602060002001546000610e00565b85858151811061181557611815611cd7565b6020026020010181905250838061182b90611df2565b9450505b508061183a81611df2565b915050611696565b5050815292915050565b604051806101c0016040528060006001600160a01b031681526020016000801916815260200160008019168152602001600081526020016000815260200160008152602001600081526020016000815260200160008152602001600081526020016000815260200160008152602001600060058111156118ce576118ce61196a565b8152600060209091015290565b600080858511156118eb57600080fd5b838611156118f857600080fd5b5050820193919092039150565b60006020828403121561191757600080fd5b81356001600160e01b0319811681146106e457600080fd5b6000806040838503121561194257600080fd5b50508035926020909101359150565b60006020828403121561196357600080fd5b5035919050565b634e487b7160e01b600052602160045260246000fd5b6006811061199e57634e487b7160e01b600052602160045260246000fd5b9052565b80516001600160a01b031682526020810151602083015260408101516040830152606081015160608301526080810151608083015260a081015160a083015260c081015160c083015260e081015160e083015261010080820151818401525061012080820151818401525061014080820151818401525061016080820151818401525061018080820151611a3882850182611980565b50506101a09081015160ff16910152565b6101c0810161063d82846119a2565b6001600160a01b0381168114610dec57600080fd5b600060208284031215611a7f57600080fd5b81356106e481611a58565b6020808252825182820181905260009190848201906040850190845b81811015611acd57611ab98385516119a2565b928401926101c09290920191600101611aa6565b50909695505050505050565b6000602080830181845280855180835260408601915060408160051b87010192508387016000805b83811015611b5557888603603f19018552825180518088529088019088880190845b81811015611b3f5783518352928a0192918a0191600101611b23565b5090975050509386019391860191600101611b01565b509398975050505050505050565b600060208284031215611b7557600080fd5b813565ffffffffffff811681146106e457600080fd5b600060208284031215611b9d57600080fd5b81356001600160401b03811681146106e457600080fd5b600060208284031215611bc657600080fd5b813563ffffffff811681146106e457600080fd5b600060208284031215611bec57600080fd5b815180151581146106e457600080fd5b634e487b7160e01b600052601160045260246000fd5b600082611c2f57634e487b7160e01b600052601260045260246000fd5b500490565b600060208284031215611c4657600080fd5b81516106e481611a58565b6000825160005b81811015611c725760208186018101518583015201611c58565b81811115611c81576000828501525b509190910192915050565b6000816000190483118215151615611ca657611ca6611bfc565b500290565b634e487b7160e01b600052600160045260246000fd5b634e487b7160e01b600052604160045260246000fd5b634e487b7160e01b600052603260045260246000fd5b60006020808385031215611d0057600080fd5b82516001600160401b0380821115611d1757600080fd5b818501915085601f830112611d2b57600080fd5b815181811115611d3d57611d3d611cc1565b8060051b604051601f19603f83011681018181108582111715611d6257611d62611cc1565b604052918252848201925083810185019188831115611d8057600080fd5b938501935b82851015611d9e57845184529385019392850192611d85565b98975050505050505050565b600082821015611dbc57611dbc611bfc565b500390565b60008219821115611dd457611dd4611bfc565b500190565b600060208284031215611deb57600080fd5b5051919050565b600060018201611e0457611e04611bfc565b5060010190565b60008060408385031215611e1e57600080fd5b505080516020909101519092909150565b600080600060608486031215611e4457600080fd5b8351925060208401519150604084015190509250925092565b81518152602080830151610180830191611e81908401826001600160a01b03169052565b506040830151611e946040840182611980565b506060830151611ea9606084018260ff169052565b506080830151608083015260a0830151611ece60a08401826001600160401b03169052565b5060c0830151611ee960c08401826001600160401b03169052565b5060e0830151611f0460e08401826001600160401b03169052565b50610100838101516001600160401b039081169184019190915261012080850151821690840152610140808501518216908401526101608085015191821681850152905b505092915050565b8154815260018201546001600160a01b0381166020830152610180820190611f816040840160ff8360a01c16611980565b60a81c60ff1660608301526002830154608083015260038301546001600160401b0380821660a0850152604082901c811660c0850152611fd160e08501828460801c166001600160401b03169052565b60c082901c61010085015260048501546001600160401b038282161661012086015291506120106101408501828460401c166001600160401b03169052565b611f486101608501828460801c166001600160401b0316905256fea2646970667358221220fb0ce17b1ef1df396be61a9f1372b3dd1e9e53eda35e503a91d9fba2c4b13c5164736f6c634300080d0033",
  "bytecodeSha1": "f16f2260375749ce36f9cea1a059ef74597e6253",
  "compiler": {
    "evm_version": "istanbul",
    "optimizer": {
      "enabled": true,
      "runs": 200
    },
    "version": "0.8.13+commit.abaa5c0e"
  },
  "contractName": "MarketList",
  "deployedBytecode": "608060405234801561001057600080fd5b506004361061014d5760003560e01c80637af6649a116100c3578063b03fd40d1161007c578063b03fd40d1461039a578063ccc07959146103ad578063d6935858146103d4578063e4b16144146103dc578063f2fde38b146103ef578063feab4454146104025761014d565b80637af6649a146102fd578063854ba99d1461031e5780638da5cb5b14610326578063975bd542146103515780639796207614610364578063af640d0f146103745761014d565b80632f54bf6e116101155780632f54bf6e1461025a57806350fd73671461028257806362965141146102a25780636b2b091a146102cd578063715018a6146102ed57806372ea61bf146102f55761014d565b806301ffc9a7146101cf57806305d6bd9c146101f75780631ef4590d146101ff57806321603f43146102125780632203616d14610232575b61015561042c565b60006101656024600436846118db565b8080601f016020809104026020016040519081016040528093929190818152602001838380828437600092018290525060208501519495509250503660231981019150601f19016004838037816024600437600080826000875af4925050506101cd816105f6565b005b6101e26101dd366004611905565b61060c565b60405190151581526020015b60405180910390f35b6101cd610643565b6101e261020d36600461192f565b61065a565b610225610220366004611951565b6106eb565b6040516101ee9190611a49565b610245610240366004611951565b6106fe565b60405163ffffffff90911681526020016101ee565b6101e2610268366004611a6d565b6000546201000090046001600160a01b0390811691161490565b61029561029036600461192f565b61070f565b6040516101ee9190611a8a565b6102b56102b0366004611951565b61086e565b6040516001600160401b0390911681526020016101ee565b6102e06102db366004611951565b6108a0565b6040516101ee9190611ad9565b6101cd610cba565b6101cd610ccc565b61031061030b366004611b63565b610ce6565b6040519081526020016101ee565b6101e2610cff565b6000546201000090046001600160a01b03165b6040516001600160a01b0390911681526020016101ee565b61029561035f36600461192f565b610d1d565b600054610100900460ff166101e2565b7f2b53f13a2ed1dacb652f78e48a76feb68150760efc65d85ec10a571b9c6348d7610310565b6103106103a8366004611b8b565b610d29565b6103397f000000000000000000000000000000000000000000000000000000000000000081565b6101cd610d43565b6103106103ea366004611bb4565b610d5f565b6101cd6103fd366004611a6d565b610d76565b610415610410366004611951565b610def565b60405165ffffffffffff90911681526020016101ee565b6000546001600160a01b0362010000909104163314806104df57506001600160a01b037f0000000000000000000000000000000000000000000000000000000000000000166316279055336040516001600160e01b031960e084901b1681526001600160a01b039091166004820152602401602060405180830381865afa1580156104bb573d6000803e3d6000fd5b505050506040513d601f19601f820116820180604052508101906104df9190611bda565b8061057d57506001600160a01b037f000000000000000000000000000000000000000000000000000000000000000016636d70f7ae336040516001600160e01b031960e084901b1681526001600160a01b039091166004820152602401602060405180830381865afa158015610559573d6000803e3d6000fd5b505050506040513d601f19601f8201168201806040525081019061057d9190611bda565b6105f45760405162461bcd60e51b815260206004820152603960248201527f416c6c6f77616e63653a2063616c6c6572206d757374206265205265706f736960448201527f746f727920436f6e7472616374206f72204f70657261746f720000000000000060648201526084015b60405180910390fd5b565b3d6000803e808015610607573d6000f35b3d6000fd5b60006001600160e01b031982166301ffc9a760e01b148061063d57506001600160e01b031982166315d3789560e31b145b92915050565b61064b61042c565b6105f46000805460ff19169055565b6000828152600160205260408082209051632be5db2360e11b815260048101919091526024810183905273__$f71e59c5327218924d154e230469c101bd$__906357cbb64690604401602060405180830381865af41580156106c0573d6000803e3d6000fd5b505050506040513d601f19601f820116820180604052508101906106e49190611bda565b9392505050565b6106f361184c565b61063d826000610e00565b600061063d64e8d4a5100083611c12565b60405163023aa9ab60e61b81527f2e7a327ef83c2af7579c6634f2f5604519800c5f07626f27bd602fd11ed8e6ec60048201526060906000906001600160a01b037f00000000000000000000000000000000000000000000000000000000000000001690638eaa6ac090602401602060405180830381865afa158015610799573d6000803e3d6000fd5b505050506040513d601f19601f820116820180604052508101906107bd9190611c34565b6040805130602482015260448101879052606480820187905282518083039091018152608490910182526020810180516001600160e01b0316634badeaa160e11b17905290516001600160a01b03929092169161081a9190611c51565b600060405180830381855afa9150503d8060008114610855576040519150601f19603f3d011682016040523d82523d6000602084013e61085a565b606091505b50509050610867816105f6565b5092915050565b6000806108806402540be40084611c12565b905082610892826402540be400611c8c565b111561063d5761063d611cab565b60008181526001602090815260408083208054825181850281018501909352808352606094938301828280156108f557602002820191906000526020600020905b8154815260200190600101908083116108e1575b5050505050905080516001600160401b0381111561091557610915611cc1565b60405190808252806020026020018201604052801561094857816020015b60608152602001906001900390816109335790505b5091506000805b8251811015610c67577f00000000000000000000000000000000000000000000000000000000000000006001600160a01b03166338a699a484838151811061099957610999611cd7565b60200260200101516040518263ffffffff1660e01b81526004016109bf91815260200190565b602060405180830381865afa1580156109dc573d6000803e3d6000fd5b505050506040513d601f19601f82011682018060405250810190610a009190611bda565b15610c555760007f00000000000000000000000000000000000000000000000000000000000000006001600160a01b03166327ee9dc2858481518110610a4857610a48611cd7565b60200260200101516040518263ffffffff1660e01b8152600401610a6e91815260200190565b600060405180830381865afa158015610a8b573d6000803e3d6000fd5b505050506040513d6000823e601f3d908101601f19168201604052610ab39190810190611ced565b90506000815111610b065760405162461bcd60e51b815260206004820152601760248201527f5f706174684c69737420706174682e6c656e6774683e3000000000000000000060448201526064016105eb565b60005b60018251610b179190611daa565b811015610c0d57610bf673__$669c6e0eba2465bd6779ea6ec5db3af1b5$__6376254ff9848481518110610b4d57610b4d611cd7565b602002602001015185856001610b639190611dc1565b81518110610b7357610b73611cd7565b60200260200101516040518363ffffffff1660e01b8152600401610ba1929190918252602082015260400190565b602060405180830381865af4158015610bbe573d6000803e3d6000fd5b505050506040513d601f19601f82011682018060405250810190610be29190611dd9565b600090815260066020526040902054151590565b15610c0d5780610c0581611df2565b915050610b09565b60018251610c1b9190611daa565b811015610c29575050610c55565b818685610c3581611df2565b965081518110610c4757610c47611cd7565b602002602001018190525050505b80610c5f81611df2565b91505061094f565b5080835260008111610cb35760405162461bcd60e51b815260206004820152601560248201527405f6c6973745061746846726f6d20636f756e743e3605c1b60448201526064016105eb565b5050919050565b610cc261156d565b6105f460006115ce565b610cd461042c565b6105f46000805460ff19166001179055565b600061063d65ffffffffffff831664174876e800611c8c565b6000805460ff1680610d185750600054610100900460ff165b905090565b60606106e48383611629565b600061063d6001600160401b0383166402540be400611c8c565b610d4b61156d565b6105f46000805461ff001916610100179055565b600061063d63ffffffff831664e8d4a51000611c8c565b610d7e61156d565b6001600160a01b038116610de35760405162461bcd60e51b815260206004820152602660248201527f4f776e61626c653a206e6577206f776e657220697320746865207a65726f206160448201526564647265737360d01b60648201526084016105eb565b610dec816115ce565b50565b600061063d64174876e80083611c12565b610e0861184c565b60008381526005602081815260408084208151610180810183528154815260018201546001600160a01b0381169482019490945293909291840191600160a01b900460ff1690811115610e5d57610e5d61196a565b6005811115610e6e57610e6e61196a565b81526001820154600160a81b900460ff166020820152600282015460408083019190915260038301546001600160401b0380821660608501526801000000000000000080830482166080860152600160801b808404831660a0870152600160c01b909304821660c086015260049586015480831660e087015290810482166101008601529190910416610120909201919091528251905163657c7e0960e01b8152918201529091507f00000000000000000000000000000000000000000000000000000000000000006001600160a01b03169063657c7e09906024016040805180830381865afa158015610f66573d6000803e3d6000fd5b505050506040513d601f19601f82011682018060405250810190610f8a9190611e0b565b60408401526020830152608081015160608301528280611023575060608101516040516336181b6760e11b815260ff909116600482015273__$f7122df39a5f3bad28f404771cd5173291$__90636c3036ce90602401602060405180830381865af4158015610ffd573d6000803e3d6000fd5b505050506040513d601f19601f820116820180604052508101906110219190611bda565b155b156114aa5760208101516001600160a01b0316825260a081015161104690610d29565b60808301526060810151604051632b2076e360e11b815260ff909116600482015273__$f7122df39a5f3bad28f404771cd5173291$__90635640edc690602401602060405180830381865af41580156110a3573d6000803e3d6000fd5b505050506040513d601f19601f820116820180604052508101906110c79190611bda565b156110db57608082015160a0830152611227565b6101208101516001600160401b031615611107576110fd816101200151610d29565b60a0830152611227565b60405163023aa9ab60e61b81527fcd775f2396f9f13f12bcf8ca32e21df66559a8adc3944d0591127e7731f7ab8560048201527f00000000000000000000000000000000000000000000000000000000000000006001600160a01b031690638eaa6ac090602401602060405180830381865afa15801561118b573d6000803e3d6000fd5b505050506040513d601f19601f820116820180604052508101906111af9190611c34565b6001600160a01b031663a9bf985883602001516040518263ffffffff1660e01b81526004016111e091815260200190565b602060405180830381865afa1580156111fd573d6000803e3d6000fd5b505050506040513d601f19601f820116820180604052508101906112219190611dd9565b60a08301525b6112348160c00151610d29565b60c083015260e081015161124790610d29565b60e08301526060810151604051635b7d0f6960e11b815260ff909116600482015273__$f7122df39a5f3bad28f404771cd5173291$__9063b6fa1ed290602401602060405180830381865af41580156112a4573d6000803e3d6000fd5b505050506040513d601f19601f820116820180604052508101906112c89190611bda565b15611495576112db816101400151610d29565b6101208301526101608101516112f090610d29565b61014083015260405163023aa9ab60e61b81527f3cb99135f7a7c088d9085b446345038a22a85f4e8fe072b0e1b66d97243e745860048201526000907f00000000000000000000000000000000000000000000000000000000000000006001600160a01b031690638eaa6ac090602401602060405180830381865afa15801561137d573d6000803e3d6000fd5b505050506040513d601f19601f820116820180604052508101906113a19190611c34565b6001600160a01b0316636464b68a846020015185604001516040518363ffffffff1660e01b81526004016113df929190918252602082015260400190565b606060405180830381865afa1580156113fc573d6000803e3d6000fd5b505050506040513d601f19601f820116820180604052508101906114209190611e2f565b5091505060008190036114695760405162461bcd60e51b8152602060048201526011602482015270145d5bdd194e88139bdd081c5d5bdd1959607a1b60448201526064016105eb565b6101408301516114799082611c12565b8361012001516114899190611c8c565b610100840152506114aa565b6114a3816101000151610d29565b6101008301525b604051630212d6cb60e21b815273__$f7122df39a5f3bad28f404771cd5173291$__9063084b5b2c906114e1908490600401611e5d565b602060405180830381865af41580156114fe573d6000803e3d6000fd5b505050506040513d601f19601f820116820180604052508101906115229190611dd9565b610160830152604081015161018083019060058111156115445761154461196a565b908160058111156115575761155761196a565b9052506060015160ff166101a082015292915050565b6000546001600160a01b03620100009091041633146105f45760405162461bcd60e51b815260206004820152601f60248201527f416c6c6f77616e63653a2063616c6c6572206d757374206265204f776e65720060448201526064016105eb565b600080546001600160a01b038381166201000081810262010000600160b01b0319851617855560405193049190911692909183917f8be0079c531659141344cd1fd0a4f28419497f9722a3daafe3b4186f6b6457e091a35050565b6060816000036116395760045491505b816001600160401b0381111561165157611651611cc1565b60405190808252806020026020018201604052801561168a57816020015b61167761184c565b81526020019060019003908161166f5790505b50600454909150600090845b81811015611842578483101561184257600060056000600484815481106116bf576116bf611cd7565b90600052602060002001548152602001908152602001600020905073__$f7122df39a5f3bad28f404771cd5173291$__63084b5b2c826040518263ffffffff1660e01b81526004016117119190611f50565b602060405180830381865af415801561172e573d6000803e3d6000fd5b505050506040513d601f19601f820116820180604052508101906117529190611dd9565b15806117d65750604051630212d6cb60e21b8152429073__$f7122df39a5f3bad28f404771cd5173291$__9063084b5b2c90611792908590600401611f50565b602060405180830381865af41580156117af573d6000803e3d6000fd5b505050506040513d601f19601f820116820180604052508101906117d39190611dd9565b10155b1561182f57611803600483815481106117f1576117f1611cd7565b90600052602060002001546000610e00565b85858151811061181557611815611cd7565b6020026020010181905250838061182b90611df2565b9450505b508061183a81611df2565b915050611696565b5050815292915050565b604051806101c0016040528060006001600160a01b031681526020016000801916815260200160008019168152602001600081526020016000815260200160008152602001600081526020016000815260200160008152602001600081526020016000815260200160008152602001600060058111156118ce576118ce61196a565b8152600060209091015290565b600080858511156118eb57600080fd5b838611156118f857600080fd5b5050820193919092039150565b60006020828403121561191757600080fd5b81356001600160e01b0319811681146106e457600080fd5b6000806040838503121561194257600080fd5b50508035926020909101359150565b60006020828403121561196357600080fd5b5035919050565b634e487b7160e01b600052602160045260246000fd5b6006811061199e57634e487b7160e01b600052602160045260246000fd5b9052565b80516001600160a01b031682526020810151602083015260408101516040830152606081015160608301526080810151608083015260a081015160a083015260c081015160c083015260e081015160e083015261010080820151818401525061012080820151818401525061014080820151818401525061016080820151818401525061018080820151611a3882850182611980565b50506101a09081015160ff16910152565b6101c0810161063d82846119a2565b6001600160a01b0381168114610dec57600080fd5b600060208284031215611a7f57600080fd5b81356106e481611a58565b6020808252825182820181905260009190848201906040850190845b81811015611acd57611ab98385516119a2565b928401926101c09290920191600101611aa6565b50909695505050505050565b6000602080830181845280855180835260408601915060408160051b87010192508387016000805b83811015611b5557888603603f19018552825180518088529088019088880190845b81811015611b3f5783518352928a0192918a0191600101611b23565b5090975050509386019391860191600101611b01565b509398975050505050505050565b600060208284031215611b7557600080fd5b813565ffffffffffff811681146106e457600080fd5b600060208284031215611b9d57600080fd5b81356001600160401b03811681146106e457600080fd5b600060208284031215611bc657600080fd5b813563ffffffff811681146106e457600080fd5b600060208284031215611bec57600080fd5b815180151581146106e457600080fd5b634e487b7160e01b600052601160045260246000fd5b600082611c2f57634e487b7160e01b600052601260045260246000fd5b500490565b600060208284031215611c4657600080fd5b81516106e481611a58565b6000825160005b81811015611c725760208186018101518583015201611c58565b81811115611c81576000828501525b509190910192915050565b6000816000190483118215151615611ca657611ca6611bfc565b500290565b634e487b7160e01b600052600160045260246000fd5b634e487b7160e01b600052604160045260246000fd5b634e487b7160e01b600052603260045260246000fd5b60006020808385031215611d0057600080fd5b82516001600160401b0380821115611d1757600080fd5b818501915085601f830112611d2b57600080fd5b815181811115611d3d57611d3d611cc1565b8060051b604051601f19603f83011681018181108582111715611d6257611d62611cc1565b604052918252848201925083810185019188831115611d8057600080fd5b938501935b82851015611d9e57845184529385019392850192611d85565b98975050505050505050565b600082821015611dbc57611dbc611bfc565b500390565b60008219821115611dd457611dd4611bfc565b500190565b600060208284031215611deb57600080fd5b5051919050565b600060018201611e0457611e04611bfc565b5060010190565b60008060408385031215611e1e57600080fd5b505080516020909101519092909150565b600080600060608486031215611e4457600080fd5b8351925060208401519150604084015190509250925092565b81518152602080830151610180830191611e81908401826001600160a01b03169052565b506040830151611e946040840182611980565b506060830151611ea9606084018260ff169052565b506080830151608083015260a0830151611ece60a08401826001600160401b03169052565b5060c0830151611ee960c08401826001600160401b03169052565b5060e0830151611f0460e08401826001600160401b03169052565b50610100838101516001600160401b039081169184019190915261012080850151821690840152610140808501518216908401526101608085015191821681850152905b505092915050565b8154815260018201546001600160a01b0381166020830152610180820190611f816040840160ff8360a01c16611980565b60a81c60ff1660608301526002830154608083015260038301546001600160401b0380821660a0850152604082901c811660c0850152611fd160e08501828460801c166001600160401b03169052565b60c082901c61010085015260048501546001600160401b038282161661012086015291506120106101408501828460401c166001600160401b03169052565b611f486101608501828460801c166001600160401b0316905256fea2646970667358221220fb0ce17b1ef1df396be61a9f1372b3dd1e9e53eda35e503a91d9fba2c4b13c5164736f6c634300080d0033",
  "language": "Solidity",
  "natspec": {
    "kind": "dev",
    "methods": {
      "ownerOf()": {
        "details": "Returns the address of the current owner."
      },
      "renounceOwnership()": {
        "details": "Leaves the contract without owner. It will not be possible to call `onlyOwner` functions anymore. Can only be called by the current owner. NOTE: Renouncing ownership will leave the contract without an owner, thereby removing any functionality that is only available to the owner."
      },
      "supportsInterface(bytes4)": {
        "details": "Returns true if this contract implements the interface defined by `interfaceId`. See the corresponding https://eips.ethereum.org/EIPS/eip-165#how-interfaces-are-identified[EIP section] to learn more about how these ids are created. This function call must use less than 30 000 gas."
      },
      "transferOwnership(address)": {
        "details": "Transfers ownership of the contract to a new account (`newOwner`). Can only be called by the current owner."
      }
    },
    "version": 1
  },
  "opcodes": "PUSH1 0x80 PUSH1 0x40 MSTORE CALLVALUE DUP1 ISZERO PUSH2 0x10 JUMPI PUSH1 0x0 DUP1 REVERT JUMPDEST POP PUSH1 0x4 CALLDATASIZE LT PUSH2 0x14D JUMPI PUSH1 0x0 CALLDATALOAD PUSH1 0xE0 SHR DUP1 PUSH4 0x7AF6649A GT PUSH2 0xC3 JUMPI DUP1 PUSH4 0xB03FD40D GT PUSH2 0x7C JUMPI DUP1 PUSH4 0xB03FD40D EQ PUSH2 0x39A JUMPI DUP1 PUSH4 0xCCC07959 EQ PUSH2 0x3AD JUMPI DUP1 PUSH4 0xD6935858 EQ PUSH2 0x3D4 JUMPI DUP1 PUSH4 0xE4B16144 EQ PUSH2 0x3DC JUMPI DUP1 PUSH4 0xF2FDE38B EQ PUSH2 0x3EF JUMPI DUP1 PUSH4 0xFEAB4454 EQ PUSH2 0x402 JUMPI PUSH2 0x14D JUMP JUMPDEST DUP1 PUSH4 0x7AF6649A EQ PUSH2 0x2FD JUMPI DUP1 PUSH4 0x854BA99D EQ PUSH2 0x31E JUMPI DUP1 PUSH4 0x8DA5CB5B EQ PUSH2 0x326 JUMPI DUP1 PUSH4 0x975BD542 EQ PUSH2 0x351 JUMPI DUP1 PUSH4 0x97962076 EQ PUSH2 0x364 JUMPI DUP1 PUSH4 0xAF640D0F EQ PUSH2 0x374 JUMPI PUSH2 0x14D JUMP JUMPDEST DUP1 PUSH4 0x2F54BF6E GT PUSH2 0x115 JUMPI DUP1 PUSH4 0x2F54BF6E EQ PUSH2 0x25A JUMPI DUP1 PUSH4 0x50FD7367 EQ PUSH2 0x282 JUMPI DUP1 PUSH4 0x62965141 EQ PUSH2 0x2A2 JUMPI DUP1 PUSH4 0x6B2B091A EQ PUSH2 0x2CD JUMPI DUP1 PUSH4 0x715018A6 EQ PUSH2 0x2ED JUMPI DUP1 PUSH4 0x72EA61BF EQ PUSH2 0x2F5 JUMPI PUSH2 0x14D JUMP JUMPDEST DUP1 PUSH4 0x1FFC9A7 EQ PUSH2 0x1CF JUMPI DUP1 PUSH4 0x5D6BD9C EQ PUSH2 0x1F7 JUMPI DUP1 PUSH4 0x1EF4590D EQ PUSH2 0x1FF JUMPI DUP1 PUSH4 0x21603F43 EQ PUSH2 0x212 JUMPI DUP1 PUSH4 0x2203616D EQ PUSH2 0x232 JUMPI JUMPDEST PUSH2 0x155 PUSH2 0x42C JUMP JUMPDEST PUSH1 0x0 PUSH2 0x165 PUSH1 0x24 PUSH1 0x4 CALLDATASIZE DUP5 PUSH2 0x18DB JUMP JUMPDEST DUP1 DUP1 PUSH1 0x1F ADD PUSH1 0x20 DUP1 SWAP2 DIV MUL PUSH1 0x20 ADD PUSH1 0x40 MLOAD SWAP1 DUP2 ADD PUSH1 0x40 MSTORE DUP1 SWAP4 SWAP3 SWAP2 SWAP1 DUP2 DUP2 MSTORE PUSH1 0x20 ADD DUP4 DUP4 DUP1 DUP3 DUP5 CALLDATACOPY PUSH1 0x0 SWAP3 ADD DUP3 SWAP1 MSTORE POP PUSH1 0x20 DUP6 ADD MLOAD SWAP5 SWAP6 POP SWAP3 POP POP CALLDATASIZE PUSH1 0x23 NOT DUP2 ADD SWAP2 POP PUSH1 0x1F NOT ADD PUSH1 0x4 DUP4 DUP1 CALLDATACOPY DUP2 PUSH1 0x24 PUSH1 0x4 CALLDATACOPY PUSH1 0x0 DUP1 DUP3 PUSH1 0x0 DUP8 GAS DELEGATECALL SWAP3 POP POP POP PUSH2 0x1CD DUP2 PUSH2 0x5F6 JUMP JUMPDEST STOP JUMPDEST PUSH2 0x1E2 PUSH2 0x1DD CALLDATASIZE PUSH1 0x4 PUSH2 0x1905 JUMP JUMPDEST PUSH2 0x60C JUMP JUMPDEST PUSH1 0x40 MLOAD SWAP1 ISZERO ISZERO DUP2 MSTORE PUSH1 0x20 ADD JUMPDEST PUSH1 0x40 MLOAD DUP1 SWAP2 SUB SWAP1 RETURN JUMPDEST PUSH2 0x1CD PUSH2 0x643 JUMP JUMPDEST PUSH2 0x1E2 PUSH2 0x20D CALLDATASIZE PUSH1 0x4 PUSH2 0x192F JUMP JUMPDEST PUSH2 0x65A JUMP JUMPDEST PUSH2 0x225 PUSH2 0x220 CALLDATASIZE PUSH1 0x4 PUSH2 0x1951 JUMP JUMPDEST PUSH2 0x6EB JUMP JUMPDEST PUSH1 0x40 MLOAD PUSH2 0x1EE SWAP2 SWAP1 PUSH2 0x1A49 JUMP JUMPDEST PUSH2 0x245 PUSH2 0x240 CALLDATASIZE PUSH1 0x4 PUSH2 0x1951 JUMP JUMPDEST PUSH2 0x6FE JUMP JUMPDEST PUSH1 0x40 MLOAD PUSH4 0xFFFFFFFF SWAP1 SWAP2 AND DUP2 MSTORE PUSH1 0x20 ADD PUSH2 0x1EE JUMP JUMPDEST PUSH2 0x1E2 PUSH2 0x268 CALLDATASIZE PUSH1 0x4 PUSH2 0x1A6D JUMP JUMPDEST PUSH1 0x0 SLOAD PUSH3 0x10000 SWAP1 DIV PUSH1 0x1 PUSH1 0x1 PUSH1 0xA0 SHL SUB SWAP1 DUP2 AND SWAP2 AND EQ SWAP1 JUMP JUMPDEST PUSH2 0x295 PUSH2 0x290 CALLDATASIZE PUSH1 0x4 PUSH2 0x192F JUMP JUMPDEST PUSH2 0x70F JUMP JUMPDEST PUSH1 0x40 MLOAD PUSH2 0x1EE SWAP2 SWAP1 PUSH2 0x1A8A JUMP JUMPDEST PUSH2 0x2B5 PUSH2 0x2B0 CALLDATASIZE PUSH1 0x4 PUSH2 0x1951 JUMP JUMPDEST PUSH2 0x86E JUMP JUMPDEST PUSH1 0x40 MLOAD PUSH1 0x1 PUSH1 0x1 PUSH1 0x40 SHL SUB SWAP1 SWAP2 AND DUP2 MSTORE PUSH1 0x20 ADD PUSH2 0x1EE JUMP JUMPDEST PUSH2 0x2E0 PUSH2 0x2DB CALLDATASIZE PUSH1 0x4 PUSH2 0x1951 JUMP JUMPDEST PUSH2 0x8A0 JUMP JUMPDEST PUSH1 0x40 MLOAD PUSH2 0x1EE SWAP2 SWAP1 PUSH2 0x1AD9 JUMP JUMPDEST PUSH2 0x1CD PUSH2 0xCBA JUMP JUMPDEST PUSH2 0x1CD PUSH2 0xCCC JUMP JUMPDEST PUSH2 0x310 PUSH2 0x30B CALLDATASIZE PUSH1 0x4 PUSH2 0x1B63 JUMP JUMPDEST PUSH2 0xCE6 JUMP JUMPDEST PUSH1 0x40 MLOAD SWAP1 DUP2 MSTORE PUSH1 0x20 ADD PUSH2 0x1EE JUMP JUMPDEST PUSH2 0x1E2 PUSH2 0xCFF JUMP JUMPDEST PUSH1 0x0 SLOAD PUSH3 0x10000 SWAP1 DIV PUSH1 0x1 PUSH1 0x1 PUSH1 0xA0 SHL SUB AND JUMPDEST PUSH1 0x40 MLOAD PUSH1 0x1 PUSH1 0x1 PUSH1 0xA0 SHL SUB SWAP1 SWAP2 AND DUP2 MSTORE PUSH1 0x20 ADD PUSH2 0x1EE JUMP JUMPDEST PUSH2 0x295 PUSH2 0x35F CALLDATASIZE PUSH1 0x4 PUSH2 0x192F JUMP JUMPDEST PUSH2 0xD1D JUMP JUMPDEST PUSH1 0x0 SLOAD PUSH2 0x100 SWAP1 DIV PUSH1 0xFF AND PUSH2 0x1E2 JUMP JUMPDEST PUSH32 0x2B53F13A2ED1DACB652F78E48A76FEB68150760EFC65D85EC10A571B9C6348D7 PUSH2 0x310 JUMP JUMPDEST PUSH2 0x310 PUSH2 0x3A8 CALLDATASIZE PUSH1 0x4 PUSH2 0x1B8B JUMP JUMPDEST PUSH2 0xD29 JUMP JUMPDEST PUSH2 0x339 PUSH32 0x0 DUP2 JUMP JUMPDEST PUSH2 0x1CD PUSH2 0xD43 JUMP JUMPDEST PUSH2 0x310 PUSH2 0x3EA CALLDATASIZE PUSH1 0x4 PUSH2 0x1BB4 JUMP JUMPDEST PUSH2 0xD5F JUMP JUMPDEST PUSH2 0x1CD PUSH2 0x3FD CALLDATASIZE PUSH1 0x4 PUSH2 0x1A6D JUMP JUMPDEST PUSH2 0xD76 JUMP JUMPDEST PUSH2 0x415 PUSH2 0x410 CALLDATASIZE PUSH1 0x4 PUSH2 0x1951 JUMP JUMPDEST PUSH2 0xDEF JUMP JUMPDEST PUSH1 0x40 MLOAD PUSH6 0xFFFFFFFFFFFF SWAP1 SWAP2 AND DUP2 MSTORE PUSH1 0x20 ADD PUSH2 0x1EE JUMP JUMPDEST PUSH1 0x0 SLOAD PUSH1 0x1 PUSH1 0x1 PUSH1 0xA0 SHL SUB PUSH3 0x10000 SWAP1 SWAP2 DIV AND CALLER EQ DUP1 PUSH2 0x4DF JUMPI POP PUSH1 0x1 PUSH1 0x1 PUSH1 0xA0 SHL SUB PUSH32 0x0 AND PUSH4 0x16279055 CALLER PUSH1 0x40 MLOAD PUSH1 0x1 PUSH1 0x1 PUSH1 0xE0 SHL SUB NOT PUSH1 0xE0 DUP5 SWAP1 SHL AND DUP2 MSTORE PUSH1 0x1 PUSH1 0x1 PUSH1 0xA0 SHL SUB SWAP1 SWAP2 AND PUSH1 0x4 DUP3 ADD MSTORE PUSH1 0x24 ADD PUSH1 0x20 PUSH1 0x40 MLOAD DUP1 DUP4 SUB DUP2 DUP7 GAS STATICCALL ISZERO DUP1 ISZERO PUSH2 0x4BB JUMPI RETURNDATASIZE PUSH1 0x0 DUP1 RETURNDATACOPY RETURNDATASIZE PUSH1 0x0 REVERT JUMPDEST POP POP POP POP PUSH1 0x40 MLOAD RETURNDATASIZE PUSH1 0x1F NOT PUSH1 0x1F DUP3 ADD AND DUP3 ADD DUP1 PUSH1 0x40 MSTORE POP DUP2 ADD SWAP1 PUSH2 0x4DF SWAP2 SWAP1 PUSH2 0x1BDA JUMP JUMPDEST DUP1 PUSH2 0x57D JUMPI POP PUSH1 0x1 PUSH1 0x1 PUSH1 0xA0 SHL SUB PUSH32 0x0 AND PUSH4 0x6D70F7AE CALLER PUSH1 0x40 MLOAD PUSH1 0x1 PUSH1 0x1 PUSH1 0xE0 SHL SUB NOT PUSH1 0xE0 DUP5 SWAP1 SHL AND DUP2 MSTORE PUSH1 0x1 PUSH1 0x1 PUSH1 0xA0 SHL SUB SWAP1 SWAP2 AND PUSH1 0x4 DUP3 ADD MSTORE PUSH1 0x24 ADD PUSH1 0x20 PUSH1 0x40 MLOAD DUP1 DUP4 SUB DUP2 DUP7 GAS STATICCALL ISZERO DUP1 ISZERO PUSH2 0x559 JUMPI RETURNDATASIZE PUSH1 0x0 DUP1 RETURNDATACOPY RETURNDATASIZE PUSH1 0x0 REVERT JUMPDEST POP POP POP POP PUSH1 0x40 MLOAD RETURNDATASIZE PUSH1 0x1F NOT PUSH1 0x1F DUP3 ADD AND DUP3 ADD DUP1 PUSH1 0x40 MSTORE POP DUP2 ADD SWAP1 PUSH2 0x57D SWAP2 SWAP1 PUSH2 0x1BDA JUMP JUMPDEST PUSH2 0x5F4 JUMPI PUSH1 0x40 MLOAD PUSH3 0x461BCD PUSH1 0xE5 SHL DUP2 MSTORE PUSH1 0x20 PUSH1 0x4 DUP3 ADD MSTORE PUSH1 0x39 PUSH1 0x24 DUP3 ADD MSTORE PUSH32 0x416C6C6F77616E63653A2063616C6C6572206D757374206265205265706F7369 PUSH1 0x44 DUP3 ADD MSTORE PUSH32 0x746F727920436F6E7472616374206F72204F70657261746F7200000000000000 PUSH1 0x64 DUP3 ADD MSTORE PUSH1 0x84 ADD JUMPDEST PUSH1 0x40 MLOAD DUP1 SWAP2 SUB SWAP1 REVERT JUMPDEST JUMP JUMPDEST RETURNDATASIZE PUSH1 0x0 DUP1 RETURNDATACOPY DUP1 DUP1 ISZERO PUSH2 0x607 JUMPI RETURNDATASIZE PUSH1 0x0 RETURN JUMPDEST RETURNDATASIZE PUSH1 0x0 REVERT JUMPDEST PUSH1 0x0 PUSH1 0x1 PUSH1 0x1 PUSH1 0xE0 SHL SUB NOT DUP3 AND PUSH4 0x1FFC9A7 PUSH1 0xE0 SHL EQ DUP1 PUSH2 0x63D JUMPI POP PUSH1 0x1 PUSH1 0x1 PUSH1 0xE0 SHL SUB NOT DUP3 AND PUSH4 0x15D37895 PUSH1 0xE3 SHL EQ JUMPDEST SWAP3 SWAP2 POP POP JUMP JUMPDEST PUSH2 0x64B PUSH2 0x42C JUMP JUMPDEST PUSH2 0x5F4 PUSH1 0x0 DUP1 SLOAD PUSH1 0xFF NOT AND SWAP1 SSTORE JUMP JUMPDEST PUSH1 0x0 DUP3 DUP2 MSTORE PUSH1 0x1 PUSH1 0x20 MSTORE PUSH1 0x40 DUP1 DUP3 KECCAK256 SWAP1 MLOAD PUSH4 0x2BE5DB23 PUSH1 0xE1 SHL DUP2 MSTORE PUSH1 0x4 DUP2 ADD SWAP2 SWAP1 SWAP2 MSTORE PUSH1 0x24 DUP2 ADD DUP4 SWAP1 MSTORE PUSH20 0x0 SWAP1 PUSH4 0x57CBB646 SWAP1 PUSH1 0x44 ADD PUSH1 0x20 PUSH1 0x40 MLOAD DUP1 DUP4 SUB DUP2 DUP7 GAS DELEGATECALL ISZERO DUP1 ISZERO PUSH2 0x6C0 JUMPI RETURNDATASIZE PUSH1 0x0 DUP1 RETURNDATACOPY RETURNDATASIZE PUSH1 0x0 REVERT JUMPDEST POP POP POP POP PUSH1 0x40 MLOAD RETURNDATASIZE PUSH1 0x1F NOT PUSH1 0x1F DUP3 ADD AND DUP3 ADD DUP1 PUSH1 0x40 MSTORE POP DUP2 ADD SWAP1 PUSH2 0x6E4 SWAP2 SWAP1 PUSH2 0x1BDA JUMP JUMPDEST SWAP4 SWAP3 POP POP POP JUMP JUMPDEST PUSH2 0x6F3 PUSH2 0x184C JUMP JUMPDEST PUSH2 0x63D DUP3 PUSH1 0x0 PUSH2 0xE00 JUMP JUMPDEST PUSH1 0x0 PUSH2 0x63D PUSH5 0xE8D4A51000 DUP4 PUSH2 0x1C12 JUMP JUMPDEST PUSH1 0x40 MLOAD PUSH4 0x23AA9AB PUSH1 0xE6 SHL DUP2 MSTORE PUSH32 0x2E7A327EF83C2AF7579C6634F2F5604519800C5F07626F27BD602FD11ED8E6EC PUSH1 0x4 DUP3 ADD MSTORE PUSH1 0x60 SWAP1 PUSH1 0x0 SWAP1 PUSH1 0x1 PUSH1 0x1 PUSH1 0xA0 SHL SUB PUSH32 0x0 AND SWAP1 PUSH4 0x8EAA6AC0 SWAP1 PUSH1 0x24 ADD PUSH1 0x20 PUSH1 0x40 MLOAD DUP1 DUP4 SUB DUP2 DUP7 GAS STATICCALL ISZERO DUP1 ISZERO PUSH2 0x799 JUMPI RETURNDATASIZE PUSH1 0x0 DUP1 RETURNDATACOPY RETURNDATASIZE PUSH1 0x0 REVERT JUMPDEST POP POP POP POP PUSH1 0x40 MLOAD RETURNDATASIZE PUSH1 0x1F NOT PUSH1 0x1F DUP3 ADD AND DUP3 ADD DUP1 PUSH1 0x40 MSTORE POP DUP2 ADD SWAP1 PUSH2 0x7BD SWAP2 SWAP1 PUSH2 0x1C34 JUMP JUMPDEST PUSH1 0x40 DUP1 MLOAD ADDRESS PUSH1 0x24 DUP3 ADD MSTORE PUSH1 0x44 DUP2 ADD DUP8 SWAP1 MSTORE PUSH1 0x64 DUP1 DUP3 ADD DUP8 SWAP1 MSTORE DUP3 MLOAD DUP1 DUP4 SUB SWAP1 SWAP2 ADD DUP2 MSTORE PUSH1 0x84 SWAP1 SWAP2 ADD DUP3 MSTORE PUSH1 0x20 DUP2 ADD DUP1 MLOAD PUSH1 0x1 PUSH1 0x1 PUSH1 0xE0 SHL SUB AND PUSH4 0x4BADEAA1 PUSH1 0xE1 SHL OR SWAP1 MSTORE SWAP1 MLOAD PUSH1 0x1 PUSH1 0x1 PUSH1 0xA0 SHL SUB SWAP3 SWAP1 SWAP3 AND SWAP2 PUSH2 0x81A SWAP2 SWAP1 PUSH2 0x1C51 JUMP JUMPDEST PUSH1 0x0 PUSH1 0x40 MLOAD DUP1 DUP4 SUB DUP2 DUP6 GAS STATICCALL SWAP2 POP POP RETURNDATASIZE DUP1 PUSH1 0x0 DUP2 EQ PUSH2 0x855 JUMPI PUSH1 0x40 MLOAD SWAP2 POP PUSH1 0x1F NOT PUSH1 0x3F RETURNDATASIZE ADD AND DUP3 ADD PUSH1 0x40 MSTORE RETURNDATASIZE DUP3 MSTORE RETURNDATASIZE PUSH1 0x0 PUSH1 0x20 DUP5 ADD RETURNDATACOPY PUSH2 0x85A JUMP JUMPDEST PUSH1 0x60 SWAP2 POP JUMPDEST POP POP SWAP1 POP PUSH2 0x867 DUP2 PUSH2 0x5F6 JUMP JUMPDEST POP SWAP3 SWAP2 POP POP JUMP JUMPDEST PUSH1 0x0 DUP1 PUSH2 0x880 PUSH5 0x2540BE400 DUP5 PUSH2 0x1C12 JUMP JUMPDEST SWAP1 POP DUP3 PUSH2 0x892 DUP3 PUSH5 0x2540BE400 PUSH2 0x1C8C JUMP JUMPDEST GT ISZERO PUSH2 0x63D JUMPI PUSH2 0x63D PUSH2 0x1CAB JUMP JUMPDEST PUSH1 0x0 DUP2 DUP2 MSTORE PUSH1 0x1 PUSH1 0x20 SWAP1 DUP2 MSTORE PUSH1 0x40 DUP1 DUP4 KECCAK256 DUP1 SLOAD DUP3 MLOAD DUP2 DUP6 MUL DUP2 ADD DUP6 ADD SWAP1 SWAP4 MSTORE DUP1 DUP4 MSTORE PUSH1 0x60 SWAP5 SWAP4 DUP4 ADD DUP3 DUP3 DUP1 ISZERO PUSH2 0x8F5 JUMPI PUSH1 0x20 MUL DUP3 ADD SWAP2 SWAP1 PUSH1 0x0 MSTORE PUSH1 0x20 PUSH1 0x0 KECCAK256 SWAP1 JUMPDEST DUP2 SLOAD DUP2 MSTORE PUSH1 0x20 ADD SWAP1 PUSH1 0x1 ADD SWAP1 DUP1 DUP4 GT PUSH2 0x8E1 JUMPI JUMPDEST POP POP POP POP POP SWAP1 POP DUP1 MLOAD PUSH1 0x1 PUSH1 0x1 PUSH1 0x40 SHL SUB DUP2 GT ISZERO PUSH2 0x915 JUMPI PUSH2 0x915 PUSH2 0x1CC1 JUMP JUMPDEST PUSH1 0x40 MLOAD SWAP1 DUP1 DUP3 MSTORE DUP1 PUSH1 0x20 MUL PUSH1 0x20 ADD DUP3 ADD PUSH1 0x40 MSTORE DUP1 ISZERO PUSH2 0x948 JUMPI DUP2 PUSH1 0x20 ADD JUMPDEST PUSH1 0x60 DUP2 MSTORE PUSH1 0x20 ADD SWAP1 PUSH1 0x1 SWAP1 SUB SWAP1 DUP2 PUSH2 0x933 JUMPI SWAP1 POP JUMPDEST POP SWAP2 POP PUSH1 0x0 DUP1 JUMPDEST DUP3 MLOAD DUP2 LT ISZERO PUSH2 0xC67 JUMPI PUSH32 0x0 PUSH1 0x1 PUSH1 0x1 PUSH1 0xA0 SHL SUB AND PUSH4 0x38A699A4 DUP5 DUP4 DUP2 MLOAD DUP2 LT PUSH2 0x999 JUMPI PUSH2 0x999 PUSH2 0x1CD7 JUMP JUMPDEST PUSH1 0x20 MUL PUSH1 0x20 ADD ADD MLOAD PUSH1 0x40 MLOAD DUP3 PUSH4 0xFFFFFFFF AND PUSH1 0xE0 SHL DUP2 MSTORE PUSH1 0x4 ADD PUSH2 0x9BF SWAP2 DUP2 MSTORE PUSH1 0x20 ADD SWAP1 JUMP JUMPDEST PUSH1 0x20 PUSH1 0x40 MLOAD DUP1 DUP4 SUB DUP2 DUP7 GAS STATICCALL ISZERO DUP1 ISZERO PUSH2 0x9DC JUMPI RETURNDATASIZE PUSH1 0x0 DUP1 RETURNDATACOPY RETURNDATASIZE PUSH1 0x0 REVERT JUMPDEST POP POP POP POP PUSH1 0x40 MLOAD RETURNDATASIZE PUSH1 0x1F NOT PUSH1 0x1F DUP3 ADD AND DUP3 ADD DUP1 PUSH1 0x40 MSTORE POP DUP2 ADD SWAP1 PUSH2 0xA00 SWAP2 SWAP1 PUSH2 0x1BDA JUMP JUMPDEST ISZERO PUSH2 0xC55 JUMPI PUSH1 0x0 PUSH32 0x0 PUSH1 0x1 PUSH1 0x1 PUSH1 0xA0 SHL SUB AND PUSH4 0x27EE9DC2 DUP6 DUP5 DUP2 MLOAD DUP2 LT PUSH2 0xA48 JUMPI PUSH2 0xA48 PUSH2 0x1CD7 JUMP JUMPDEST PUSH1 0x20 MUL PUSH1 0x20 ADD ADD MLOAD PUSH1 0x40 MLOAD DUP3 PUSH4 0xFFFFFFFF AND PUSH1 0xE0 SHL DUP2 MSTORE PUSH1 0x4 ADD PUSH2 0xA6E SWAP2 DUP2 MSTORE PUSH1 0x20 ADD SWAP1 JUMP JUMPDEST PUSH1 0x0 PUSH1 0x40 MLOAD DUP1 DUP4 SUB DUP2 DUP7 GAS STATICCALL ISZERO DUP1 ISZERO PUSH2 0xA8B JUMPI RETURNDATASIZE PUSH1 0x0 DUP1 RETURNDATACOPY RETURNDATASIZE PUSH1 0x0 REVERT JUMPDEST POP POP POP POP PUSH1 0x40 MLOAD RETURNDATASIZE PUSH1 0x0 DUP3 RETURNDATACOPY PUSH1 0x1F RETURNDATASIZE SWAP1 DUP2 ADD PUSH1 0x1F NOT AND DUP3 ADD PUSH1 0x40 MSTORE PUSH2 0xAB3 SWAP2 SWAP1 DUP2 ADD SWAP1 PUSH2 0x1CED JUMP JUMPDEST SWAP1 POP PUSH1 0x0 DUP2 MLOAD GT PUSH2 0xB06 JUMPI PUSH1 0x40 MLOAD PUSH3 0x461BCD PUSH1 0xE5 SHL DUP2 MSTORE PUSH1 0x20 PUSH1 0x4 DUP3 ADD MSTORE PUSH1 0x17 PUSH1 0x24 DUP3 ADD MSTORE PUSH32 0x5F706174684C69737420706174682E6C656E6774683E30000000000000000000 PUSH1 0x44 DUP3 ADD MSTORE PUSH1 0x64 ADD PUSH2 0x5EB JUMP JUMPDEST PUSH1 0x0 JUMPDEST PUSH1 0x1 DUP3 MLOAD PUSH2 0xB17 SWAP2 SWAP1 PUSH2 0x1DAA JUMP JUMPDEST DUP2 LT ISZERO PUSH2 0xC0D JUMPI PUSH2 0xBF6 PUSH20 0x0 PUSH4 0x76254FF9 DUP5 DUP5 DUP2 MLOAD DUP2 LT PUSH2 0xB4D JUMPI PUSH2 0xB4D PUSH2 0x1CD7 JUMP JUMPDEST PUSH1 0x20 MUL PUSH1 0x20 ADD ADD MLOAD DUP6 DUP6 PUSH1 0x1 PUSH2 0xB63 SWAP2 SWAP1 PUSH2 0x1DC1 JUMP JUMPDEST DUP2 MLOAD DUP2 LT PUSH2 0xB73 JUMPI PUSH2 0xB73 PUSH2 0x1CD7 JUMP JUMPDEST PUSH1 0x20 MUL PUSH1 0x20 ADD ADD MLOAD PUSH1 0x40 MLOAD DUP4 PUSH4 0xFFFFFFFF AND PUSH1 0xE0 SHL DUP2 MSTORE PUSH1 0x4 ADD PUSH2 0xBA1 SWAP3 SWAP2 SWAP1 SWAP2 DUP3 MSTORE PUSH1 0x20 DUP3 ADD MSTORE PUSH1 0x40 ADD SWAP1 JUMP JUMPDEST PUSH1 0x20 PUSH1 0x40 MLOAD DUP1 DUP4 SUB DUP2 DUP7 GAS DELEGATECALL ISZERO DUP1 ISZERO PUSH2 0xBBE JUMPI RETURNDATASIZE PUSH1 0x0 DUP1 RETURNDATACOPY RETURNDATASIZE PUSH1 0x0 REVERT JUMPDEST POP POP POP POP PUSH1 0x40 MLOAD RETURNDATASIZE PUSH1 0x1F NOT PUSH1 0x1F DUP3 ADD AND DUP3 ADD DUP1 PUSH1 0x40 MSTORE POP DUP2 ADD SWAP1 PUSH2 0xBE2 SWAP2 SWAP1 PUSH2 0x1DD9 JUMP JUMPDEST PUSH1 0x0 SWAP1 DUP2 MSTORE PUSH1 0x6 PUSH1 0x20 MSTORE PUSH1 0x40 SWAP1 KECCAK256 SLOAD ISZERO ISZERO SWAP1 JUMP JUMPDEST ISZERO PUSH2 0xC0D JUMPI DUP1 PUSH2 0xC05 DUP2 PUSH2 0x1DF2 JUMP JUMPDEST SWAP2 POP POP PUSH2 0xB09 JUMP JUMPDEST PUSH1 0x1 DUP3 MLOAD PUSH2 0xC1B SWAP2 SWAP1 PUSH2 0x1DAA JUMP JUMPDEST DUP2 LT ISZERO PUSH2 0xC29 JUMPI POP POP PUSH2 0xC55 JUMP JUMPDEST DUP2 DUP7 DUP6 PUSH2 0xC35 DUP2 PUSH2 0x1DF2 JUMP JUMPDEST SWAP7 POP DUP2 MLOAD DUP2 LT PUSH2 0xC47 JUMPI PUSH2 0xC47 PUSH2 0x1CD7 JUMP JUMPDEST PUSH1 0x20 MUL PUSH1 0x20 ADD ADD DUP2 SWAP1 MSTORE POP POP POP JUMPDEST DUP1 PUSH2 0xC5F DUP2 PUSH2 0x1DF2 JUMP JUMPDEST SWAP2 POP POP PUSH2 0x94F JUMP JUMPDEST POP DUP1 DUP4 MSTORE PUSH1 0x0 DUP2 GT PUSH2 0xCB3 JUMPI PUSH1 0x40 MLOAD PUSH3 0x461BCD PUSH1 0xE5 SHL DUP2 MSTORE PUSH1 0x20 PUSH1 0x4 DUP3 ADD MSTORE PUSH1 0x15 PUSH1 0x24 DUP3 ADD MSTORE PUSH21 0x5F6C6973745061746846726F6D20636F756E743E3 PUSH1 0x5C SHL PUSH1 0x44 DUP3 ADD MSTORE PUSH1 0x64 ADD PUSH2 0x5EB JUMP JUMPDEST POP POP SWAP2 SWAP1 POP JUMP JUMPDEST PUSH2 0xCC2 PUSH2 0x156D JUMP JUMPDEST PUSH2 0x5F4 PUSH1 0x0 PUSH2 0x15CE JUMP JUMPDEST PUSH2 0xCD4 PUSH2 0x42C JUMP JUMPDEST PUSH2 0x5F4 PUSH1 0x0 DUP1 SLOAD PUSH1 0xFF NOT AND PUSH1 0x1 OR SWAP1 SSTORE JUMP JUMPDEST PUSH1 0x0 PUSH2 0x63D PUSH6 0xFFFFFFFFFFFF DUP4 AND PUSH5 0x174876E800 PUSH2 0x1C8C JUMP JUMPDEST PUSH1 0x0 DUP1 SLOAD PUSH1 0xFF AND DUP1 PUSH2 0xD18 JUMPI POP PUSH1 0x0 SLOAD PUSH2 0x100 SWAP1 DIV PUSH1 0xFF AND JUMPDEST SWAP1 POP SWAP1 JUMP JUMPDEST PUSH1 0x60 PUSH2 0x6E4 DUP4 DUP4 PUSH2 0x1629 JUMP JUMPDEST PUSH1 0x0 PUSH2 0x63D PUSH1 0x1 PUSH1 0x1 PUSH1 0x40 SHL SUB DUP4 AND PUSH5 0x2540BE400 PUSH2 0x1C8C JUMP JUMPDEST PUSH2 0xD4B PUSH2 0x156D JUMP JUMPDEST PUSH2 0x5F4 PUSH1 0x0 DUP1 SLOAD PUSH2 0xFF00 NOT AND PUSH2 0x100 OR SWAP1 SSTORE JUMP JUMPDEST PUSH1 0x0 PUSH2 0x63D PUSH4 0xFFFFFFFF DUP4 AND PUSH5 0xE8D4A51000 PUSH2 0x1C8C JUMP JUMPDEST PUSH2 0xD7E PUSH2 0x156D JUMP JUMPDEST PUSH1 0x1 PUSH1 0x1 PUSH1 0xA0 SHL SUB DUP2 AND PUSH2 0xDE3 JUMPI PUSH1 0x40 MLOAD PUSH3 0x461BCD PUSH1 0xE5 SHL DUP2 MSTORE PUSH1 0x20 PUSH1 0x4 DUP3 ADD MSTORE PUSH1 0x26 PUSH1 0x24 DUP3 ADD MSTORE PUSH32 0x4F776E61626C653A206E6577206F776E657220697320746865207A65726F2061 PUSH1 0x44 DUP3 ADD MSTORE PUSH6 0x646472657373 PUSH1 0xD0 SHL PUSH1 0x64 DUP3 ADD MSTORE PUSH1 0x84 ADD PUSH2 0x5EB JUMP JUMPDEST PUSH2 0xDEC DUP2 PUSH2 0x15CE JUMP JUMPDEST POP JUMP JUMPDEST PUSH1 0x0 PUSH2 0x63D PUSH5 0x174876E800 DUP4 PUSH2 0x1C12 JUMP JUMPDEST PUSH2 0xE08 PUSH2 0x184C JUMP JUMPDEST PUSH1 0x0 DUP4 DUP2 MSTORE PUSH1 0x5 PUSH1 0x20 DUP2 DUP2 MSTORE PUSH1 0x40 DUP1 DUP5 KECCAK256 DUP2 MLOAD PUSH2 0x180 DUP2 ADD DUP4 MSTORE DUP2 SLOAD DUP2 MSTORE PUSH1 0x1 DUP3 ADD SLOAD PUSH1 0x1 PUSH1 0x1 PUSH1 0xA0 SHL SUB DUP2 AND SWAP5 DUP3 ADD SWAP5 SWAP1 SWAP5 MSTORE SWAP4 SWAP1 SWAP3 SWAP2 DUP5 ADD SWAP2 PUSH1 0x1 PUSH1 0xA0 SHL SWAP1 DIV PUSH1 0xFF AND SWAP1 DUP2 GT ISZERO PUSH2 0xE5D JUMPI PUSH2 0xE5D PUSH2 0x196A JUMP JUMPDEST PUSH1 0x5 DUP2 GT ISZERO PUSH2 0xE6E JUMPI PUSH2 0xE6E PUSH2 0x196A JUMP JUMPDEST DUP2 MSTORE PUSH1 0x1 DUP3 ADD SLOAD PUSH1 0x1 PUSH1 0xA8 SHL SWAP1 DIV PUSH1 0xFF AND PUSH1 0x20 DUP3 ADD MSTORE PUSH1 0x2 DUP3 ADD SLOAD PUSH1 0x40 DUP1 DUP4 ADD SWAP2 SWAP1 SWAP2 MSTORE PUSH1 0x3 DUP4 ADD SLOAD PUSH1 0x1 PUSH1 0x1 PUSH1 0x40 SHL SUB DUP1 DUP3 AND PUSH1 0x60 DUP6 ADD MSTORE PUSH9 0x10000000000000000 DUP1 DUP4 DIV DUP3 AND PUSH1 0x80 DUP7 ADD MSTORE PUSH1 0x1 PUSH1 0x80 SHL DUP1 DUP5 DIV DUP4 AND PUSH1 0xA0 DUP8 ADD MSTORE PUSH1 0x1 PUSH1 0xC0 SHL SWAP1 SWAP4 DIV DUP3 AND PUSH1 0xC0 DUP7 ADD MSTORE PUSH1 0x4 SWAP6 DUP7 ADD SLOAD DUP1 DUP4 AND PUSH1 0xE0 DUP8 ADD MSTORE SWAP1 DUP2 DIV DUP3 AND PUSH2 0x100 DUP7 ADD MSTORE SWAP2 SWAP1 SWAP2 DIV AND PUSH2 0x120 SWAP1 SWAP3 ADD SWAP2 SWAP1 SWAP2 MSTORE DUP3 MLOAD SWAP1 MLOAD PUSH4 0x657C7E09 PUSH1 0xE0 SHL DUP2 MSTORE SWAP2 DUP3 ADD MSTORE SWAP1 SWAP2 POP PUSH32 0x0 PUSH1 0x1 PUSH1 0x1 PUSH1 0xA0 SHL SUB AND SWAP1 PUSH4 0x657C7E09 SWAP1 PUSH1 0x24 ADD PUSH1 0x40 DUP1 MLOAD DUP1 DUP4 SUB DUP2 DUP7 GAS STATICCALL ISZERO DUP1 ISZERO PUSH2 0xF66 JUMPI RETURNDATASIZE PUSH1 0x0 DUP1 RETURNDATACOPY RETURNDATASIZE PUSH1 0x0 REVERT JUMPDEST POP POP POP POP PUSH1 0x40 MLOAD RETURNDATASIZE PUSH1 0x1F NOT PUSH1 0x1F DUP3 ADD AND DUP3 ADD DUP1 PUSH1 0x40 MSTORE POP DUP2 ADD SWAP1 PUSH2 0xF8A SWAP2 SWAP1 PUSH2 0x1E0B JUMP JUMPDEST PUSH1 0x40 DUP5 ADD MSTORE PUSH1 0x20 DUP4 ADD MSTORE PUSH1 0x80 DUP2 ADD MLOAD PUSH1 0x60 DUP4 ADD MSTORE DUP3 DUP1 PUSH2 0x1023 JUMPI POP PUSH1 0x60 DUP2 ADD MLOAD PUSH1 0x40 MLOAD PUSH4 0x36181B67 PUSH1 0xE1 SHL DUP2 MSTORE PUSH1 0xFF SWAP1 SWAP2 AND PUSH1 0x4 DUP3 ADD MSTORE PUSH20 0x0 SWAP1 PUSH4 0x6C3036CE SWAP1 PUSH1 0x24 ADD PUSH1 0x20 PUSH1 0x40 MLOAD DUP1 DUP4 SUB DUP2 DUP7 GAS DELEGATECALL ISZERO DUP1 ISZERO PUSH2 0xFFD JUMPI RETURNDATASIZE PUSH1 0x0 DUP1 RETURNDATACOPY RETURNDATASIZE PUSH1 0x0 REVERT JUMPDEST POP POP POP POP PUSH1 0x40 MLOAD RETURNDATASIZE PUSH1 0x1F NOT PUSH1 0x1F DUP3 ADD AND DUP3 ADD DUP1 PUSH1 0x40 MSTORE POP DUP2 ADD SWAP1 PUSH2 0x1021 SWAP2 SWAP1 PUSH2 0x1BDA JUMP JUMPDEST ISZERO JUMPDEST ISZERO PUSH2 0x14AA JUMPI PUSH1 0x20 DUP2 ADD MLOAD PUSH1 0x1 PUSH1 0x1 PUSH1 0xA0 SHL SUB AND DUP3 MSTORE PUSH1 0xA0 DUP2 ADD MLOAD PUSH2 0x1046 SWAP1 PUSH2 0xD29 JUMP JUMPDEST PUSH1 0x80 DUP4 ADD MSTORE PUSH1 0x60 DUP2 ADD MLOAD PUSH1 0x40 MLOAD PUSH4 0x2B2076E3 PUSH1 0xE1 SHL DUP2 MSTORE PUSH1 0xFF SWAP1 SWAP2 AND PUSH1 0x4 DUP3 ADD MSTORE PUSH20 0x0 SWAP1 PUSH4 0x5640EDC6 SWAP1 PUSH1 0x24 ADD PUSH1 0x20 PUSH1 0x40 MLOAD DUP1 DUP4 SUB DUP2 DUP7 GAS DELEGATECALL ISZERO DUP1 ISZERO PUSH2 0x10A3 JUMPI RETURNDATASIZE PUSH1 0x0 DUP1 RETURNDATACOPY RETURNDATASIZE PUSH1 0x0 REVERT JUMPDEST POP POP POP POP PUSH1 0x40 MLOAD RETURNDATASIZE PUSH1 0x1F NOT PUSH1 0x1F DUP3 ADD AND DUP3 ADD DUP1 PUSH1 0x40 MSTORE POP DUP2 ADD SWAP1 PUSH2 0x10C7 SWAP2 SWAP1 PUSH2 0x1BDA JUMP JUMPDEST ISZERO PUSH2 0x10DB JUMPI PUSH1 0x80 DUP3 ADD MLOAD PUSH1 0xA0 DUP4 ADD MSTORE PUSH2 0x1227 JUMP JUMPDEST PUSH2 0x120 DUP2 ADD MLOAD PUSH1 0x1 PUSH1 0x1 PUSH1 0x40 SHL SUB AND ISZERO PUSH2 0x1107 JUMPI PUSH2 0x10FD DUP2 PUSH2 0x120 ADD MLOAD PUSH2 0xD29 JUMP JUMPDEST PUSH1 0xA0 DUP4 ADD MSTORE PUSH2 0x1227 JUMP JUMPDEST PUSH1 0x40 MLOAD PUSH4 0x23AA9AB PUSH1 0xE6 SHL DUP2 MSTORE PUSH32 0xCD775F2396F9F13F12BCF8CA32E21DF66559A8ADC3944D0591127E7731F7AB85 PUSH1 0x4 DUP3 ADD MSTORE PUSH32 0x0 PUSH1 0x1 PUSH1 0x1 PUSH1 0xA0 SHL SUB AND SWAP1 PUSH4 0x8EAA6AC0 SWAP1 PUSH1 0x24 ADD PUSH1 0x20 PUSH1 0x40 MLOAD DUP1 DUP4 SUB DUP2 DUP7 GAS STATICCALL ISZERO DUP1 ISZERO PUSH2 0x118B JUMPI RETURNDATASIZE PUSH1 0x0 DUP1 RETURNDATACOPY RETURNDATASIZE PUSH1 0x0 REVERT JUMPDEST POP POP POP POP PUSH1 0x40 MLOAD RETURNDATASIZE PUSH1 0x1F NOT PUSH1 0x1F DUP3 ADD AND DUP3 ADD DUP1 PUSH1 0x40 MSTORE POP DUP2 ADD SWAP1 PUSH2 0x11AF SWAP2 SWAP1 PUSH2 0x1C34 JUMP JUMPDEST PUSH1 0x1 PUSH1 0x1 PUSH1 0xA0 SHL SUB AND PUSH4 0xA9BF9858 DUP4 PUSH1 0x20 ADD MLOAD PUSH1 0x40 MLOAD DUP3 PUSH4 0xFFFFFFFF AND PUSH1 0xE0 SHL DUP2 MSTORE PUSH1 0x4 ADD PUSH2 0x11E0 SWAP2 DUP2 MSTORE PUSH1 0x20 ADD SWAP1 JUMP JUMPDEST PUSH1 0x20 PUSH1 0x40 MLOAD DUP1 DUP4 SUB DUP2 DUP7 GAS STATICCALL ISZERO DUP1 ISZERO PUSH2 0x11FD JUMPI RETURNDATASIZE PUSH1 0x0 DUP1 RETURNDATACOPY RETURNDATASIZE PUSH1 0x0 REVERT JUMPDEST POP POP POP POP PUSH1 0x40 MLOAD RETURNDATASIZE PUSH1 0x1F NOT PUSH1 0x1F DUP3 ADD AND DUP3 ADD DUP1 PUSH1 0x40 MSTORE POP DUP2 ADD SWAP1 PUSH2 0x1221 SWAP2 SWAP1 PUSH2 0x1DD9 JUMP JUMPDEST PUSH1 0xA0 DUP4 ADD MSTORE JUMPDEST PUSH2 0x1234 DUP2 PUSH1 0xC0 ADD MLOAD PUSH2 0xD29 JUMP JUMPDEST PUSH1 0xC0 DUP4 ADD MSTORE PUSH1 0xE0 DUP2 ADD MLOAD PUSH2 0x1247 SWAP1 PUSH2 0xD29 JUMP JUMPDEST PUSH1 0xE0 DUP4 ADD MSTORE PUSH1 0x60 DUP2 ADD MLOAD PUSH1 0x40 MLOAD PUSH4 0x5B7D0F69 PUSH1 0xE1 SHL DUP2 MSTORE PUSH1 0xFF SWAP1 SWAP2 AND PUSH1 0x4 DUP3 ADD MSTORE PUSH20 0x0 SWAP1 PUSH4 0xB6FA1ED2 SWAP1 PUSH1 0x24 ADD PUSH1 0x20 PUSH1 0x40 MLOAD DUP1 DUP4 SUB DUP2 DUP7 GAS DELEGATECALL ISZERO DUP1 ISZERO PUSH2 0x12A4 JUMPI RETURNDATASIZE PUSH1 0x0 DUP1 RETURNDATACOPY RETURNDATASIZE PUSH1 0x0 REVERT JUMPDEST POP POP POP POP PUSH1 0x40 MLOAD RETURNDATASIZE PUSH1 0x1F NOT PUSH1 0x1F DUP3 ADD AND DUP3 ADD DUP1 PUSH1 0x40 MSTORE POP DUP2 ADD SWAP1 PUSH2 0x12C8 SWAP2 SWAP1 PUSH2 0x1BDA JUMP JUMPDEST ISZERO PUSH2 0x1495 JUMPI PUSH2 0x12DB DUP2 PUSH2 0x140 ADD MLOAD PUSH2 0xD29 JUMP JUMPDEST PUSH2 0x120 DUP4 ADD MSTORE PUSH2 0x160 DUP2 ADD MLOAD PUSH2 0x12F0 SWAP1 PUSH2 0xD29 JUMP JUMPDEST PUSH2 0x140 DUP4 ADD MSTORE PUSH1 0x40 MLOAD PUSH4 0x23AA9AB PUSH1 0xE6 SHL DUP2 MSTORE PUSH32 0x3CB99135F7A7C088D9085B446345038A22A85F4E8FE072B0E1B66D97243E7458 PUSH1 0x4 DUP3 ADD MSTORE PUSH1 0x0 SWAP1 PUSH32 0x0 PUSH1 0x1 PUSH1 0x1 PUSH1 0xA0 SHL SUB AND SWAP1 PUSH4 0x8EAA6AC0 SWAP1 PUSH1 0x24 ADD PUSH1 0x20 PUSH1 0x40 MLOAD DUP1 DUP4 SUB DUP2 DUP7 GAS STATICCALL ISZERO DUP1 ISZERO PUSH2 0x137D JUMPI RETURNDATASIZE PUSH1 0x0 DUP1 RETURNDATACOPY RETURNDATASIZE PUSH1 0x0 REVERT JUMPDEST POP POP POP POP PUSH1 0x40 MLOAD RETURNDATASIZE PUSH1 0x1F NOT PUSH1 0x1F DUP3 ADD AND DUP3 ADD DUP1 PUSH1 0x40 MSTORE POP DUP2 ADD SWAP1 PUSH2 0x13A1 SWAP2 SWAP1 PUSH2 0x1C34 JUMP JUMPDEST PUSH1 0x1 PUSH1 0x1 PUSH1 0xA0 SHL SUB AND PUSH4 0x6464B68A DUP5 PUSH1 0x20 ADD MLOAD DUP6 PUSH1 0x40 ADD MLOAD PUSH1 0x40 MLOAD DUP4 PUSH4 0xFFFFFFFF AND PUSH1 0xE0 SHL DUP2 MSTORE PUSH1 0x4 ADD PUSH2 0x13DF SWAP3 SWAP2 SWAP1 SWAP2 DUP3 MSTORE PUSH1 0x20 DUP3 ADD MSTORE PUSH1 0x40 ADD SWAP1 JUMP JUMPDEST PUSH1 0x60 PUSH1 0x40 MLOAD DUP1 DUP4 SUB DUP2 DUP7 GAS STATICCALL ISZERO DUP1 ISZERO PUSH2 0x13FC JUMPI RETURNDATASIZE PUSH1 0x0 DUP1 RETURNDATACOPY RETURNDATASIZE PUSH1 0x0 REVERT JUMPDEST POP POP POP POP PUSH1 0x40 MLOAD RETURNDATASIZE PUSH1 0x1F NOT PUSH1 0x1F DUP3 ADD AND DUP3 ADD DUP1 PUSH1 0x40 MSTORE POP DUP2 ADD SWAP1 PUSH2 0x1420 SWAP2 SWAP1 PUSH2 0x1E2F JUMP JUMPDEST POP SWAP2 POP POP PUSH1 0x0 DUP2 SWAP1 SUB PUSH2 0x1469 JUMPI PUSH1 0x40 MLOAD PUSH3 0x461BCD PUSH1 0xE5 SHL DUP2 MSTORE PUSH1 0x20 PUSH1 0x4 DUP3 ADD MSTORE PUSH1 0x11 PUSH1 0x24 DUP3 ADD MSTORE PUSH17 0x145D5BDD194E88139BDD081C5D5BDD1959 PUSH1 0x7A SHL PUSH1 0x44 DUP3 ADD MSTORE PUSH1 0x64 ADD PUSH2 0x5EB JUMP JUMPDEST PUSH2 0x140 DUP4 ADD MLOAD PUSH2 0x1479 SWAP1 DUP3 PUSH2 0x1C12 JUMP JUMPDEST DUP4 PUSH2 0x120 ADD MLOAD PUSH2 0x1489 SWAP2 SWAP1 PUSH2 0x1C8C JUMP JUMPDEST PUSH2 0x100 DUP5 ADD MSTORE POP PUSH2 0x14AA JUMP JUMPDEST PUSH2 0x14A3 DUP2 PUSH2 0x100 ADD MLOAD PUSH2 0xD29 JUMP JUMPDEST PUSH2 0x100 DUP4 ADD MSTORE JUMPDEST PUSH1 0x40 MLOAD PUSH4 0x212D6CB PUSH1 0xE2 SHL DUP2 MSTORE PUSH20 0x0 SWAP1 PUSH4 0x84B5B2C SWAP1 PUSH2 0x14E1 SWAP1 DUP5 SWAP1 PUSH1 0x4 ADD PUSH2 0x1E5D JUMP JUMPDEST PUSH1 0x20 PUSH1 0x40 MLOAD DUP1 DUP4 SUB DUP2 DUP7 GAS DELEGATECALL ISZERO DUP1 ISZERO PUSH2 0x14FE JUMPI RETURNDATASIZE PUSH1 0x0 DUP1 RETURNDATACOPY RETURNDATASIZE PUSH1 0x0 REVERT JUMPDEST POP POP POP POP PUSH1 0x40 MLOAD RETURNDATASIZE PUSH1 0x1F NOT PUSH1 0x1F DUP3 ADD AND DUP3 ADD DUP1 PUSH1 0x40 MSTORE POP DUP2 ADD SWAP1 PUSH2 0x1522 SWAP2 SWAP1 PUSH2 0x1DD9 JUMP JUMPDEST PUSH2 0x160 DUP4 ADD MSTORE PUSH1 0x40 DUP2 ADD MLOAD PUSH2 0x180 DUP4 ADD SWAP1 PUSH1 0x5 DUP2 GT ISZERO PUSH2 0x1544 JUMPI PUSH2 0x1544 PUSH2 0x196A JUMP JUMPDEST SWAP1 DUP2 PUSH1 0x5 DUP2 GT ISZERO PUSH2 0x1557 JUMPI PUSH2 0x1557 PUSH2 0x196A JUMP JUMPDEST SWAP1 MSTORE POP PUSH1 0x60 ADD MLOAD PUSH1 0xFF AND PUSH2 0x1A0 DUP3 ADD MSTORE SWAP3 SWAP2 POP POP JUMP JUMPDEST PUSH1 0x0 SLOAD PUSH1 0x1 PUSH1 0x1 PUSH1 0xA0 SHL SUB PUSH3 0x10000 SWAP1 SWAP2 DIV AND CALLER EQ PUSH2 0x5F4 JUMPI PUSH1 0x40 MLOAD PUSH3 0x461BCD PUSH1 0xE5 SHL DUP2 MSTORE PUSH1 0x20 PUSH1 0x4 DUP3 ADD MSTORE PUSH1 0x1F PUSH1 0x24 DUP3 ADD MSTORE PUSH32 0x416C6C6F77616E63653A2063616C6C6572206D757374206265204F776E657200 PUSH1 0x44 DUP3 ADD MSTORE PUSH1 0x64 ADD PUSH2 0x5EB JUMP JUMPDEST PUSH1 0x0 DUP1 SLOAD PUSH1 0x1 PUSH1 0x1 PUSH1 0xA0 SHL SUB DUP4 DUP2 AND PUSH3 0x10000 DUP2 DUP2 MUL PUSH3 0x10000 PUSH1 0x1 PUSH1 0xB0 SHL SUB NOT DUP6 AND OR DUP6 SSTORE PUSH1 0x40 MLOAD SWAP4 DIV SWAP2 SWAP1 SWAP2 AND SWAP3 SWAP1 SWAP2 DUP4 SWAP2 PUSH32 0x8BE0079C531659141344CD1FD0A4F28419497F9722A3DAAFE3B4186F6B6457E0 SWAP2 LOG3 POP POP JUMP JUMPDEST PUSH1 0x60 DUP2 PUSH1 0x0 SUB PUSH2 0x1639 JUMPI PUSH1 0x4 SLOAD SWAP2 POP JUMPDEST DUP2 PUSH1 0x1 PUSH1 0x1 PUSH1 0x40 SHL SUB DUP2 GT ISZERO PUSH2 0x1651 JUMPI PUSH2 0x1651 PUSH2 0x1CC1 JUMP JUMPDEST PUSH1 0x40 MLOAD SWAP1 DUP1 DUP3 MSTORE DUP1 PUSH1 0x20 MUL PUSH1 0x20 ADD DUP3 ADD PUSH1 0x40 MSTORE DUP1 ISZERO PUSH2 0x168A JUMPI DUP2 PUSH1 0x20 ADD JUMPDEST PUSH2 0x1677 PUSH2 0x184C JUMP JUMPDEST DUP2 MSTORE PUSH1 0x20 ADD SWAP1 PUSH1 0x1 SWAP1 SUB SWAP1 DUP2 PUSH2 0x166F JUMPI SWAP1 POP JUMPDEST POP PUSH1 0x4 SLOAD SWAP1 SWAP2 POP PUSH1 0x0 SWAP1 DUP5 JUMPDEST DUP2 DUP2 LT ISZERO PUSH2 0x1842 JUMPI DUP5 DUP4 LT ISZERO PUSH2 0x1842 JUMPI PUSH1 0x0 PUSH1 0x5 PUSH1 0x0 PUSH1 0x4 DUP5 DUP2 SLOAD DUP2 LT PUSH2 0x16BF JUMPI PUSH2 0x16BF PUSH2 0x1CD7 JUMP JUMPDEST SWAP1 PUSH1 0x0 MSTORE PUSH1 0x20 PUSH1 0x0 KECCAK256 ADD SLOAD DUP2 MSTORE PUSH1 0x20 ADD SWAP1 DUP2 MSTORE PUSH1 0x20 ADD PUSH1 0x0 KECCAK256 SWAP1 POP PUSH20 0x0 PUSH4 0x84B5B2C DUP3 PUSH1 0x40 MLOAD DUP3 PUSH4 0xFFFFFFFF AND PUSH1 0xE0 SHL DUP2 MSTORE PUSH1 0x4 ADD PUSH2 0x1711 SWAP2 SWAP1 PUSH2 0x1F50 JUMP JUMPDEST PUSH1 0x20 PUSH1 0x40 MLOAD DUP1 DUP4 SUB DUP2 DUP7 GAS DELEGATECALL ISZERO DUP1 ISZERO PUSH2 0x172E JUMPI RETURNDATASIZE PUSH1 0x0 DUP1 RETURNDATACOPY RETURNDATASIZE PUSH1 0x0 REVERT JUMPDEST POP POP POP POP PUSH1 0x40 MLOAD RETURNDATASIZE PUSH1 0x1F NOT PUSH1 0x1F DUP3 ADD AND DUP3 ADD DUP1 PUSH1 0x40 MSTORE POP DUP2 ADD SWAP1 PUSH2 0x1752 SWAP2 SWAP1 PUSH2 0x1DD9 JUMP JUMPDEST ISZERO DUP1 PUSH2 0x17D6 JUMPI POP PUSH1 0x40 MLOAD PUSH4 0x212D6CB PUSH1 0xE2 SHL DUP2 MSTORE TIMESTAMP SWAP1 PUSH20 0x0 SWAP1 PUSH4 0x84B5B2C SWAP1 PUSH2 0x1792 SWAP1 DUP6 SWAP1 PUSH1 0x4 ADD PUSH2 0x1F50 JUMP JUMPDEST PUSH1 0x20 PUSH1 0x40 MLOAD DUP1 DUP4 SUB DUP2 DUP7 GAS DELEGATECALL ISZERO DUP1 ISZERO PUSH2 0x17AF JUMPI RETURNDATASIZE PUSH1 0x0 DUP1 RETURNDATACOPY RETURNDATASIZE PUSH1 0x0 REVERT JUMPDEST POP POP POP POP PUSH1 0x40 MLOAD RETURNDATASIZE PUSH1 0x1F NOT PUSH1 0x1F DUP3 ADD AND DUP3 ADD DUP1 PUSH1 0x40 MSTORE POP DUP2 ADD SWAP1 PUSH2 0x17D3 SWAP2 SWAP1 PUSH2 0x1DD9 JUMP JUMPDEST LT ISZERO JUMPDEST ISZERO PUSH2 0x182F JUMPI PUSH2 0x1803 PUSH1 0x4 DUP4 DUP2 SLOAD DUP2 LT PUSH2 0x17F1 JUMPI PUSH2 0x17F1 PUSH2 0x1CD7 JUMP JUMPDEST SWAP1 PUSH1 0x0 MSTORE PUSH1 0x20 PUSH1 0x0 KECCAK256 ADD SLOAD PUSH1 0x0 PUSH2 0xE00 JUMP JUMPDEST DUP6 DUP6 DUP2 MLOAD DUP2 LT PUSH2 0x1815 JUMPI PUSH2 0x1815 PUSH2 0x1CD7 JUMP JUMPDEST PUSH1 0x20 MUL PUSH1 0x20 ADD ADD DUP2 SWAP1 MSTORE POP DUP4 DUP1 PUSH2 0x182B SWAP1 PUSH2 0x1DF2 JUMP JUMPDEST SWAP5 POP POP JUMPDEST POP DUP1 PUSH2 0x183A DUP2 PUSH2 0x1DF2 JUMP JUMPDEST SWAP2 POP POP PUSH2 0x1696 JUMP JUMPDEST POP POP DUP2 MSTORE SWAP3 SWAP2 POP POP JUMP JUMPDEST PUSH1 0x40 MLOAD DUP1 PUSH2 0x1C0 ADD PUSH1 0x40 MSTORE DUP1 PUSH1 0x0 PUSH1 0x1 PUSH1 0x1 PUSH1 0xA0 SHL SUB AND DUP2 MSTORE PUSH1 0x20 ADD PUSH1 0x0 DUP1 NOT AND DUP2 MSTORE PUSH1 0x20 ADD PUSH1 0x0 DUP1 NOT AND DUP2 MSTORE PUSH1 0x20 ADD PUSH1 0x0 DUP2 MSTORE PUSH1 0x20 ADD PUSH1 0x0 DUP2 MSTORE PUSH1 0x20 ADD PUSH1 0x0 DUP2 MSTORE PUSH1 0x20 ADD PUSH1 0x0 DUP2 MSTORE PUSH1 0x20 ADD PUSH1 0x0 DUP2 MSTORE PUSH1 0x20 ADD PUSH1 0x0 DUP2 MSTORE PUSH1 0x20 ADD PUSH1 0x0 DUP2 MSTORE PUSH1 0x20 ADD PUSH1 0x0 DUP2 MSTORE PUSH1 0x20 ADD PUSH1 0x0 DUP2 MSTORE PUSH1 0x20 ADD PUSH1 0x0 PUSH1 0x5 DUP2 GT ISZERO PUSH2 0x18CE JUMPI PUSH2 0x18CE PUSH2 0x196A JUMP JUMPDEST DUP2 MSTORE PUSH1 0x0 PUSH1 0x20 SWAP1 SWAP2 ADD MSTORE SWAP1 JUMP JUMPDEST PUSH1 0x0 DUP1 DUP6 DUP6 GT ISZERO PUSH2 0x18EB JUMPI PUSH1 0x0 DUP1 REVERT JUMPDEST DUP4 DUP7 GT ISZERO PUSH2 0x18F8 JUMPI PUSH1 0x0 DUP1 REVERT JUMPDEST POP POP DUP3 ADD SWAP4 SWAP2 SWAP1 SWAP3 SUB SWAP2 POP JUMP JUMPDEST PUSH1 0x0 PUSH1 0x20 DUP3 DUP5 SUB SLT ISZERO PUSH2 0x1917 JUMPI PUSH1 0x0 DUP1 REVERT JUMPDEST DUP2 CALLDATALOAD PUSH1 0x1 PUSH1 0x1 PUSH1 0xE0 SHL SUB NOT DUP2 AND DUP2 EQ PUSH2 0x6E4 JUMPI PUSH1 0x0 DUP1 REVERT JUMPDEST PUSH1 0x0 DUP1 PUSH1 0x40 DUP4 DUP6 SUB SLT ISZERO PUSH2 0x1942 JUMPI PUSH1 0x0 DUP1 REVERT JUMPDEST POP POP DUP1 CALLDATALOAD SWAP3 PUSH1 0x20 SWAP1 SWAP2 ADD CALLDATALOAD SWAP2 POP JUMP JUMPDEST PUSH1 0x0 PUSH1 0x20 DUP3 DUP5 SUB SLT ISZERO PUSH2 0x1963 JUMPI PUSH1 0x0 DUP1 REVERT JUMPDEST POP CALLDATALOAD SWAP2 SWAP1 POP JUMP JUMPDEST PUSH4 0x4E487B71 PUSH1 0xE0 SHL PUSH1 0x0 MSTORE PUSH1 0x21 PUSH1 0x4 MSTORE PUSH1 0x24 PUSH1 0x0 REVERT JUMPDEST PUSH1 0x6 DUP2 LT PUSH2 0x199E JUMPI PUSH4 0x4E487B71 PUSH1 0xE0 SHL PUSH1 0x0 MSTORE PUSH1 0x21 PUSH1 0x4 MSTORE PUSH1 0x24 PUSH1 0x0 REVERT JUMPDEST SWAP1 MSTORE JUMP JUMPDEST DUP1 MLOAD PUSH1 0x1 PUSH1 0x1 PUSH1 0xA0 SHL SUB AND DUP3 MSTORE PUSH1 0x20 DUP2 ADD MLOAD PUSH1 0x20 DUP4 ADD MSTORE PUSH1 0x40 DUP2 ADD MLOAD PUSH1 0x40 DUP4 ADD MSTORE PUSH1 0x60 DUP2 ADD MLOAD PUSH1 0x60 DUP4 ADD MSTORE PUSH1 0x80 DUP2 ADD MLOAD PUSH1 0x80 DUP4 ADD MSTORE PUSH1 0xA0 DUP2 ADD MLOAD PUSH1 0xA0 DUP4 ADD MSTORE PUSH1 0xC0 DUP2 ADD MLOAD PUSH1 0xC0 DUP4 ADD MSTORE PUSH1 0xE0 DUP2 ADD MLOAD PUSH1 0xE0 DUP4 ADD MSTORE PUSH2 0x100 DUP1 DUP3 ADD MLOAD DUP2 DUP5 ADD MSTORE POP PUSH2 0x120 DUP1 DUP3 ADD MLOAD DUP2 DUP5 ADD MSTORE POP PUSH2 0x140 DUP1 DUP3 ADD MLOAD DUP2 DUP5 ADD MSTORE POP PUSH2 0x160 DUP1 DUP3 ADD MLOAD DUP2 DUP5 ADD MSTORE POP PUSH2 0x180 DUP1 DUP3 ADD MLOAD PUSH2 0x1A38 DUP3 DUP6 ADD DUP3 PUSH2 0x1980 JUMP JUMPDEST POP POP PUSH2 0x1A0 SWAP1 DUP2 ADD MLOAD PUSH1 0xFF AND SWAP2 ADD MSTORE JUMP JUMPDEST PUSH2 0x1C0 DUP2 ADD PUSH2 0x63D DUP3 DUP5 PUSH2 0x19A2 JUMP JUMPDEST PUSH1 0x1 PUSH1 0x1 PUSH1 0xA0 SHL SUB DUP2 AND DUP2 EQ PUSH2 0xDEC JUMPI PUSH1 0x0 DUP1 REVERT JUMPDEST PUSH1 0x0 PUSH1 0x20 DUP3 DUP5 SUB SLT ISZERO PUSH2 0x1A7F JUMPI PUSH1 0x0 DUP1 REVERT JUMPDEST DUP2 CALLDATALOAD PUSH2 0x6E4 DUP2 PUSH2 0x1A58 JUMP JUMPDEST PUSH1 0x20 DUP1 DUP3 MSTORE DUP3 MLOAD DUP3 DUP3 ADD DUP2 SWAP1 MSTORE PUSH1 0x0 SWAP2 SWAP1 DUP5 DUP3 ADD SWAP1 PUSH1 0x40 DUP6 ADD SWAP1 DUP5 JUMPDEST DUP2 DUP2 LT ISZERO PUSH2 0x1ACD JUMPI PUSH2 0x1AB9 DUP4 DUP6 MLOAD PUSH2 0x19A2 JUMP JUMPDEST SWAP3 DUP5 ADD SWAP3 PUSH2 0x1C0 SWAP3 SWAP1 SWAP3 ADD SWAP2 PUSH1 0x1 ADD PUSH2 0x1AA6 JUMP JUMPDEST POP SWAP1 SWAP7 SWAP6 POP POP POP POP POP POP JUMP JUMPDEST PUSH1 0x0 PUSH1 0x20 DUP1 DUP4 ADD DUP2 DUP5 MSTORE DUP1 DUP6 MLOAD DUP1 DUP4 MSTORE PUSH1 0x40 DUP7 ADD SWAP2 POP PUSH1 0x40 DUP2 PUSH1 0x5 SHL DUP8 ADD ADD SWAP3 POP DUP4 DUP8 ADD PUSH1 0x0 DUP1 JUMPDEST DUP4 DUP2 LT ISZERO PUSH2 0x1B55 JUMPI DUP9 DUP7 SUB PUSH1 0x3F NOT ADD DUP6 MSTORE DUP3 MLOAD DUP1 MLOAD DUP1 DUP9 MSTORE SWAP1 DUP9 ADD SWAP1 DUP9 DUP9 ADD SWAP1 DUP5 JUMPDEST DUP2 DUP2 LT ISZERO PUSH2 0x1B3F JUMPI DUP4 MLOAD DUP4 MSTORE SWAP3 DUP11 ADD SWAP3 SWAP2 DUP11 ADD SWAP2 PUSH1 0x1 ADD PUSH2 0x1B23 JUMP JUMPDEST POP SWAP1 SWAP8 POP POP POP SWAP4 DUP7 ADD SWAP4 SWAP2 DUP7 ADD SWAP2 PUSH1 0x1 ADD PUSH2 0x1B01 JUMP JUMPDEST POP SWAP4 SWAP9 SWAP8 POP POP POP POP POP POP POP POP JUMP JUMPDEST PUSH1 0x0 PUSH1 0x20 DUP3 DUP5 SUB SLT ISZERO PUSH2 0x1B75 JUMPI PUSH1 0x0 DUP1 REVERT JUMPDEST DUP2 CALLDATALOAD PUSH6 0xFFFFFFFFFFFF DUP2 AND DUP2 EQ PUSH2 0x6E4 JUMPI PUSH1 0x0 DUP1 REVERT JUMPDEST PUSH1 0x0 PUSH1 0x20 DUP3 DUP5 SUB SLT ISZERO PUSH2 0x1B9D JUMPI PUSH1 0x0 DUP1 REVERT JUMPDEST DUP2 CALLDATALOAD PUSH1 0x1 PUSH1 0x1 PUSH1 0x40 SHL SUB DUP2 AND DUP2 EQ PUSH2 0x6E4 JUMPI PUSH1 0x0 DUP1 REVERT JUMPDEST PUSH1 0x0 PUSH1 0x20 DUP3 DUP5 SUB SLT ISZERO PUSH2 0x1BC6 JUMPI PUSH1 0x0 DUP1 REVERT JUMPDEST DUP2 CALLDATALOAD PUSH4 0xFFFFFFFF DUP2 AND DUP2 EQ PUSH2 0x6E4 JUMPI PUSH1 0x0 DUP1 REVERT JUMPDEST PUSH1 0x0 PUSH1 0x20 DUP3 DUP5 SUB SLT ISZERO PUSH2 0x1BEC JUMPI PUSH1 0x0 DUP1 REVERT JUMPDEST DUP2 MLOAD DUP1 ISZERO ISZERO DUP2 EQ PUSH2 0x6E4 JUMPI PUSH1 0x0 DUP1 REVERT JUMPDEST PUSH4 0x4E487B71 PUSH1 0xE0 SHL PUSH1 0x0 MSTORE PUSH1 0x11 PUSH1 0x4 MSTORE PUSH1 0x24 PUSH1 0x0 REVERT JUMPDEST PUSH1 0x0 DUP3 PUSH2 0x1C2F JUMPI PUSH4 0x4E487B71 PUSH1 0xE0 SHL PUSH1 0x0 MSTORE PUSH1 0x12 PUSH1 0x4 MSTORE PUSH1 0x24 PUSH1 0x0 REVERT JUMPDEST POP DIV SWAP1 JUMP JUMPDEST PUSH1 0x0 PUSH1 0x20 DUP3 DUP5 SUB SLT ISZERO PUSH2 0x1C46 JUMPI PUSH1 0x0 DUP1 REVERT JUMPDEST DUP2 MLOAD PUSH2 0x6E4 DUP2 PUSH2 0x1A58 JUMP JUMPDEST PUSH1 0x0 DUP3 MLOAD PUSH1 0x0 JUMPDEST DUP2 DUP2 LT ISZERO PUSH2 0x1C72 JUMPI PUSH1 0x20 DUP2 DUP7 ADD DUP2 ADD MLOAD DUP6 DUP4 ADD MSTORE ADD PUSH2 0x1C58 JUMP JUMPDEST DUP2 DUP2 GT ISZERO PUSH2 0x1C81 JUMPI PUSH1 0x0 DUP3 DUP6 ADD MSTORE JUMPDEST POP SWAP2 SWAP1 SWAP2 ADD SWAP3 SWAP2 POP POP JUMP JUMPDEST PUSH1 0x0 DUP2 PUSH1 0x0 NOT DIV DUP4 GT DUP3 ISZERO ISZERO AND ISZERO PUSH2 0x1CA6 JUMPI PUSH2 0x1CA6 PUSH2 0x1BFC JUMP JUMPDEST POP MUL SWAP1 JUMP JUMPDEST PUSH4 0x4E487B71 PUSH1 0xE0 SHL PUSH1 0x0 MSTORE PUSH1 0x1 PUSH1 0x4 MSTORE PUSH1 0x24 PUSH1 0x0 REVERT JUMPDEST PUSH4 0x4E487B71 PUSH1 0xE0 SHL PUSH1 0x0 MSTORE PUSH1 0x41 PUSH1 0x4 MSTORE PUSH1 0x24 PUSH1 0x0 REVERT JUMPDEST PUSH4 0x4E487B71 PUSH1 0xE0 SHL PUSH1 0x0 MSTORE PUSH1 0x32 PUSH1 0x4 MSTORE PUSH1 0x24 PUSH1 0x0 REVERT JUMPDEST PUSH1 0x0 PUSH1 0x20 DUP1 DUP4 DUP6 SUB SLT ISZERO PUSH2 0x1D00 JUMPI PUSH1 0x0 DUP1 REVERT JUMPDEST DUP3 MLOAD PUSH1 0x1 PUSH1 0x1 PUSH1 0x40 SHL SUB DUP1 DUP3 GT ISZERO PUSH2 0x1D17 JUMPI PUSH1 0x0 DUP1 REVERT JUMPDEST DUP2 DUP6 ADD SWAP2 POP DUP6 PUSH1 0x1F DUP4 ADD SLT PUSH2 0x1D2B JUMPI PUSH1 0x0 DUP1 REVERT JUMPDEST DUP2 MLOAD DUP2 DUP2 GT ISZERO PUSH2 0x1D3D JUMPI PUSH2 0x1D3D PUSH2 0x1CC1 JUMP JUMPDEST DUP1 PUSH1 0x5 SHL PUSH1 0x40 MLOAD PUSH1 0x1F NOT PUSH1 0x3F DUP4 ADD AND DUP2 ADD DUP2 DUP2 LT DUP6 DUP3 GT OR ISZERO PUSH2 0x1D62 JUMPI PUSH2 0x1D62 PUSH2 0x1CC1 JUMP JUMPDEST PUSH1 0x40 MSTORE SWAP2 DUP3 MSTORE DUP5 DUP3 ADD SWAP3 POP DUP4 DUP2 ADD DUP6 ADD SWAP2 DUP9 DUP4 GT ISZERO PUSH2 0x1D80 JUMPI PUSH1 0x0 DUP1 REVERT JUMPDEST SWAP4 DUP6 ADD SWAP4 JUMPDEST DUP3 DUP6 LT ISZERO PUSH2 0x1D9E JUMPI DUP5 MLOAD DUP5 MSTORE SWAP4 DUP6 ADD SWAP4 SWAP3 DUP6 ADD SWAP3 PUSH2 0x1D85 JUMP JUMPDEST SWAP9 SWAP8 POP POP POP POP POP POP POP POP JUMP JUMPDEST PUSH1 0x0 DUP3 DUP3 LT ISZERO PUSH2 0x1DBC JUMPI PUSH2 0x1DBC PUSH2 0x1BFC JUMP JUMPDEST POP SUB SWAP1 JUMP JUMPDEST PUSH1 0x0 DUP3 NOT DUP3 GT ISZERO PUSH2 0x1DD4 JUMPI PUSH2 0x1DD4 PUSH2 0x1BFC JUMP JUMPDEST POP ADD SWAP1 JUMP JUMPDEST PUSH1 0x0 PUSH1 0x20 DUP3 DUP5 SUB SLT ISZERO PUSH2 0x1DEB JUMPI PUSH1 0x0 DUP1 REVERT JUMPDEST POP MLOAD SWAP2 SWAP1 POP JUMP JUMPDEST PUSH1 0x0 PUSH1 0x1 DUP3 ADD PUSH2 0x1E04 JUMPI PUSH2 0x1E04 PUSH2 0x1BFC JUMP JUMPDEST POP PUSH1 0x1 ADD SWAP1 JUMP JUMPDEST PUSH1 0x0 DUP1 PUSH1 0x40 DUP4 DUP6 SUB SLT ISZERO PUSH2 0x1E1E JUMPI PUSH1 0x0 DUP1 REVERT JUMPDEST POP POP DUP1 MLOAD PUSH1 0x20 SWAP1 SWAP2 ADD MLOAD SWAP1 SWAP3 SWAP1 SWAP2 POP JUMP JUMPDEST PUSH1 0x0 DUP1 PUSH1 0x0 PUSH1 0x60 DUP5 DUP7 SUB SLT ISZERO PUSH2 0x1E44 JUMPI PUSH1 0x0 DUP1 REVERT JUMPDEST DUP4 MLOAD SWAP3 POP PUSH1 0x20 DUP5 ADD MLOAD SWAP2 POP PUSH1 0x40 DUP5 ADD MLOAD SWAP1 POP SWAP3 POP SWAP3 POP SWAP3 JUMP JUMPDEST DUP2 MLOAD DUP2 MSTORE PUSH1 0x20 DUP1 DUP4 ADD MLOAD PUSH2 0x180 DUP4 ADD SWAP2 PUSH2 0x1E81 SWAP1 DUP5 ADD DUP3 PUSH1 0x1 PUSH1 0x1 PUSH1 0xA0 SHL SUB AND SWAP1 MSTORE JUMP JUMPDEST POP PUSH1 0x40 DUP4 ADD MLOAD PUSH2 0x1E94 PUSH1 0x40 DUP5 ADD DUP3 PUSH2 0x1980 JUMP JUMPDEST POP PUSH1 0x60 DUP4 ADD MLOAD PUSH2 0x1EA9 PUSH1 0x60 DUP5 ADD DUP3 PUSH1 0xFF AND SWAP1 MSTORE JUMP JUMPDEST POP PUSH1 0x80 DUP4 ADD MLOAD PUSH1 0x80 DUP4 ADD MSTORE PUSH1 0xA0 DUP4 ADD MLOAD PUSH2 0x1ECE PUSH1 0xA0 DUP5 ADD DUP3 PUSH1 0x1 PUSH1 0x1 PUSH1 0x40 SHL SUB AND SWAP1 MSTORE JUMP JUMPDEST POP PUSH1 0xC0 DUP4 ADD MLOAD PUSH2 0x1EE9 PUSH1 0xC0 DUP5 ADD DUP3 PUSH1 0x1 PUSH1 0x1 PUSH1 0x40 SHL SUB AND SWAP1 MSTORE JUMP JUMPDEST POP PUSH1 0xE0 DUP4 ADD MLOAD PUSH2 0x1F04 PUSH1 0xE0 DUP5 ADD DUP3 PUSH1 0x1 PUSH1 0x1 PUSH1 0x40 SHL SUB AND SWAP1 MSTORE JUMP JUMPDEST POP PUSH2 0x100 DUP4 DUP2 ADD MLOAD PUSH1 0x1 PUSH1 0x1 PUSH1 0x40 SHL SUB SWAP1 DUP2 AND SWAP2 DUP5 ADD SWAP2 SWAP1 SWAP2 MSTORE PUSH2 0x120 DUP1 DUP6 ADD MLOAD DUP3 AND SWAP1 DUP5 ADD MSTORE PUSH2 0x140 DUP1 DUP6 ADD MLOAD DUP3 AND SWAP1 DUP5 ADD MSTORE PUSH2 0x160 DUP1 DUP6 ADD MLOAD SWAP2 DUP3 AND DUP2 DUP6 ADD MSTORE SWAP1 JUMPDEST POP POP SWAP3 SWAP2 POP POP JUMP JUMPDEST DUP2 SLOAD DUP2 MSTORE PUSH1 0x1 DUP3 ADD SLOAD PUSH1 0x1 PUSH1 0x1 PUSH1 0xA0 SHL SUB DUP2 AND PUSH1 0x20 DUP4 ADD MSTORE PUSH2 0x180 DUP3 ADD SWAP1 PUSH2 0x1F81 PUSH1 0x40 DUP5 ADD PUSH1 0xFF DUP4 PUSH1 0xA0 SHR AND PUSH2 0x1980 JUMP JUMPDEST PUSH1 0xA8 SHR PUSH1 0xFF AND PUSH1 0x60 DUP4 ADD MSTORE PUSH1 0x2 DUP4 ADD SLOAD PUSH1 0x80 DUP4 ADD MSTORE PUSH1 0x3 DUP4 ADD SLOAD PUSH1 0x1 PUSH1 0x1 PUSH1 0x40 SHL SUB DUP1 DUP3 AND PUSH1 0xA0 DUP6 ADD MSTORE PUSH1 0x40 DUP3 SWAP1 SHR DUP2 AND PUSH1 0xC0 DUP6 ADD MSTORE PUSH2 0x1FD1 PUSH1 0xE0 DUP6 ADD DUP3 DUP5 PUSH1 0x80 SHR AND PUSH1 0x1 PUSH1 0x1 PUSH1 0x40 SHL SUB AND SWAP1 MSTORE JUMP JUMPDEST PUSH1 0xC0 DUP3 SWAP1 SHR PUSH2 0x100 DUP6 ADD MSTORE PUSH1 0x4 DUP6 ADD SLOAD PUSH1 0x1 PUSH1 0x1 PUSH1 0x40 SHL SUB DUP3 DUP3 AND AND PUSH2 0x120 DUP7 ADD MSTORE SWAP2 POP PUSH2 0x2010 PUSH2 0x140 DUP6 ADD DUP3 DUP5 PUSH1 0x40 SHR AND PUSH1 0x1 PUSH1 0x1 PUSH1 0x40 SHL SUB AND SWAP1 MSTORE JUMP JUMPDEST PUSH2 0x1F48 PUSH2 0x160 DUP6 ADD DUP3 DUP5 PUSH1 0x80 SHR AND PUSH1 0x1 PUSH1 0x1 PUSH1 0x40 SHL SUB AND SWAP1 MSTORE JUMP INVALID LOG2 PUSH5 0x6970667358 0x22 SLT KECCAK256 0xFB 0xC 0xE1 PUSH28 0x1EF1DF396BE61A9F1372B3DD1E9E53EDA35E503A91D9FBA2C4B13C51 PUSH5 0x736F6C6343 STOP ADDMOD 0xD STOP CALLER ",
  "sha1": "88db5be7ffcc1a42468bacc8c80d77cf787636ae",
  "source": "// SPDX-License-Identifier: MIT\n// Beef MarketPlace Contracts v0.0.0 hello@mcdu.com\n\npragma solidity ^0.8.0;\n\nimport \"../Market.sol\";\n\nbytes32 constant MARKETLIST = keccak256(\"MarketList\");\n\ncontract MarketList is Market, MarketPathReader {\n    using Array for address[];\n    using Array for uint64[];\n    using Array for uint256[];\n    using Array for bytes32[];\n    using MarketLib for address[];\n    using MarketLib for SolutionSetDesc;\n    using MarketLib for SolutionSet;\n    using MarketLib for Remainer[];\n    using MarketLib for Solution[];\n\n    function id() public view virtual override (Market) returns (bytes32) {return MARKETLIST;}\n\n    constructor(Repository rep_) Market(rep_) {}\n\n    function list(\n        uint256 start_,\n        uint256 count_\n    )\n        public\n        view\n        returns (\n           Order.InfoPublic[] memory out_\n        )\n    {\n        (bool _result, ) = rep.get(MARKET).staticcall(\n            abi.encodeWithSelector(\n                bytes4(keccak256(\"d_list(uint256,uint256)\")),\n                address(this),\n                start_,\n                count_\n            )\n        );\n        _return(_result);\n    }\n\n    function d_list(\n        uint256 start_,\n        uint256 count_\n    )\n        public\n        view\n        returns (\n            Order.InfoPublic[] memory out_\n        )\n    {\n\n        return\n            __list(\n                start_,\n                count_\n            );\n    }\n\n    function __list(\n        uint256 start_,\n        uint256 count_\n    ) private view returns (Order.InfoPublic[] memory out_) {\n        if (count_ == 0) count_ = _orderids.length;\n        out_ = new Order.InfoPublic[](count_);\n\n        uint256 outcount = 0;\n        uint len = _orderids.length;\n        for (uint i = start_; i < len; i++) {\n            if (outcount >= count_) break;\n            Order.Info storage order = _orders[_orderids[i]];\n            if (\n                (Order.isExpired(order) == 0 ||\n                    Order.isExpired(order) >= block.timestamp)\n            ) {\n                out_[outcount] = __order(_orderids[i], false);\n                outcount++;\n            }\n        }\n        assembly {\n            mstore(out_, outcount)\n        }\n    }\n\n}\n",
  "sourcePath": "contracts/Market/Reader/List.sol",
  "type": "contract"
}