{
  "abi": [
    {
      "inputs": [
        {
          "internalType": "contract Repository",
          "name": "rep_",
          "type": "address"
        }
      ],
      "stateMutability": "nonpayable",
      "type": "constructor"
    },
    {
      "anonymous": false,
      "inputs": [
        {
          "indexed": true,
          "internalType": "address",
          "name": "previousOwner",
          "type": "address"
        },
        {
          "indexed": true,
          "internalType": "address",
          "name": "newOwner",
          "type": "address"
        }
      ],
      "name": "OwnershipTransferred",
      "type": "event"
    },
    {
      "stateMutability": "nonpayable",
      "type": "fallback"
    },
    {
      "inputs": [],
      "name": "STOP",
      "outputs": [
        {
          "internalType": "bool",
          "name": "",
          "type": "bool"
        }
      ],
      "stateMutability": "view",
      "type": "function"
    },
    {
      "inputs": [],
      "name": "STOPFOREVER",
      "outputs": [
        {
          "internalType": "bool",
          "name": "",
          "type": "bool"
        }
      ],
      "stateMutability": "view",
      "type": "function"
    },
    {
      "inputs": [
        {
          "internalType": "uint256",
          "name": "val_",
          "type": "uint256"
        }
      ],
      "name": "UInt256ToUInt32",
      "outputs": [
        {
          "internalType": "uint32",
          "name": "",
          "type": "uint32"
        }
      ],
      "stateMutability": "pure",
      "type": "function"
    },
    {
      "inputs": [
        {
          "internalType": "uint256",
          "name": "val_",
          "type": "uint256"
        }
      ],
      "name": "UInt256ToUInt48",
      "outputs": [
        {
          "internalType": "uint48",
          "name": "",
          "type": "uint48"
        }
      ],
      "stateMutability": "pure",
      "type": "function"
    },
    {
      "inputs": [
        {
          "internalType": "uint256",
          "name": "val_",
          "type": "uint256"
        }
      ],
      "name": "UInt256ToUInt64",
      "outputs": [
        {
          "internalType": "uint64",
          "name": "",
          "type": "uint64"
        }
      ],
      "stateMutability": "pure",
      "type": "function"
    },
    {
      "inputs": [
        {
          "internalType": "uint32",
          "name": "val_",
          "type": "uint32"
        }
      ],
      "name": "UInt32ToUInt256",
      "outputs": [
        {
          "internalType": "uint256",
          "name": "",
          "type": "uint256"
        }
      ],
      "stateMutability": "pure",
      "type": "function"
    },
    {
      "inputs": [
        {
          "internalType": "uint48",
          "name": "val_",
          "type": "uint48"
        }
      ],
      "name": "UInt48ToUInt256",
      "outputs": [
        {
          "internalType": "uint256",
          "name": "",
          "type": "uint256"
        }
      ],
      "stateMutability": "pure",
      "type": "function"
    },
    {
      "inputs": [
        {
          "internalType": "uint64",
          "name": "val_",
          "type": "uint64"
        }
      ],
      "name": "UInt64ToUInt256",
      "outputs": [
        {
          "internalType": "uint256",
          "name": "",
          "type": "uint256"
        }
      ],
      "stateMutability": "pure",
      "type": "function"
    },
    {
      "inputs": [
        {
          "internalType": "bytes32",
          "name": "_from",
          "type": "bytes32"
        },
        {
          "internalType": "bytes32",
          "name": "fromto_",
          "type": "bytes32"
        }
      ],
      "name": "_existPath",
      "outputs": [
        {
          "internalType": "bool",
          "name": "",
          "type": "bool"
        }
      ],
      "stateMutability": "view",
      "type": "function"
    },
    {
      "inputs": [
        {
          "internalType": "bytes32",
          "name": "from_",
          "type": "bytes32"
        }
      ],
      "name": "_listPathFrom",
      "outputs": [
        {
          "internalType": "bytes32[][]",
          "name": "out_",
          "type": "bytes32[][]"
        }
      ],
      "stateMutability": "view",
      "type": "function"
    },
    {
      "inputs": [
        {
          "internalType": "bytes32",
          "name": "from_",
          "type": "bytes32"
        },
        {
          "internalType": "bytes32",
          "name": "to_",
          "type": "bytes32"
        },
        {
          "internalType": "uint256[]",
          "name": "args_",
          "type": "uint256[]"
        }
      ],
      "name": "d_search",
      "outputs": [
        {
          "components": [
            {
              "internalType": "uint256",
              "name": "orderid",
              "type": "uint256"
            },
            {
              "internalType": "bytes32",
              "name": "addr",
              "type": "bytes32"
            },
            {
              "internalType": "uint256",
              "name": "qty",
              "type": "uint256"
            },
            {
              "internalType": "uint256",
              "name": "granularity",
              "type": "uint256"
            },
            {
              "internalType": "uint256",
              "name": "quote",
              "type": "uint256"
            },
            {
              "internalType": "uint256[]",
              "name": "delivery",
              "type": "uint256[]"
            }
          ],
          "internalType": "struct Solution[]",
          "name": "out_",
          "type": "tuple[]"
        },
        {
          "internalType": "uint256",
          "name": "qty_",
          "type": "uint256"
        },
        {
          "components": [
            {
              "internalType": "uint256",
              "name": "quotemin",
              "type": "uint256"
            },
            {
              "internalType": "uint256",
              "name": "quoteavg",
              "type": "uint256"
            },
            {
              "internalType": "uint256",
              "name": "quotemax",
              "type": "uint256"
            }
          ],
          "internalType": "struct Quote",
          "name": "",
          "type": "tuple"
        }
      ],
      "stateMutability": "view",
      "type": "function"
    },
    {
      "inputs": [
        {
          "internalType": "bytes32",
          "name": "fromcurrency_",
          "type": "bytes32"
        },
        {
          "internalType": "bytes32",
          "name": "tocurrency_",
          "type": "bytes32"
        },
        {
          "internalType": "uint256[]",
          "name": "args_",
          "type": "uint256[]"
        }
      ],
      "name": "d_searchC",
      "outputs": [
        {
          "components": [
            {
              "internalType": "uint256",
              "name": "qty",
              "type": "uint256"
            },
            {
              "components": [
                {
                  "internalType": "uint256",
                  "name": "quotemin",
                  "type": "uint256"
                },
                {
                  "internalType": "uint256",
                  "name": "quoteavg",
                  "type": "uint256"
                },
                {
                  "internalType": "uint256",
                  "name": "quotemax",
                  "type": "uint256"
                }
              ],
              "internalType": "struct Quote",
              "name": "quote",
              "type": "tuple"
            },
            {
              "components": [
                {
                  "internalType": "bytes32[]",
                  "name": "path",
                  "type": "bytes32[]"
                },
                {
                  "internalType": "uint256",
                  "name": "qty",
                  "type": "uint256"
                },
                {
                  "components": [
                    {
                      "internalType": "uint256",
                      "name": "quotemin",
                      "type": "uint256"
                    },
                    {
                      "internalType": "uint256",
                      "name": "quoteavg",
                      "type": "uint256"
                    },
                    {
                      "internalType": "uint256",
                      "name": "quotemax",
                      "type": "uint256"
                    }
                  ],
                  "internalType": "struct Quote",
                  "name": "quote",
                  "type": "tuple"
                },
                {
                  "internalType": "uint256",
                  "name": "start",
                  "type": "uint256"
                },
                {
                  "internalType": "uint256",
                  "name": "count",
                  "type": "uint256"
                },
                {
                  "internalType": "uint256[]",
                  "name": "offset",
                  "type": "uint256[]"
                }
              ],
              "internalType": "struct SolutionSetDesc[]",
              "name": "descs",
              "type": "tuple[]"
            },
            {
              "components": [
                {
                  "internalType": "uint256",
                  "name": "orderid",
                  "type": "uint256"
                },
                {
                  "internalType": "bytes32",
                  "name": "addr",
                  "type": "bytes32"
                },
                {
                  "internalType": "uint256",
                  "name": "qty",
                  "type": "uint256"
                },
                {
                  "internalType": "uint256",
                  "name": "granularity",
                  "type": "uint256"
                },
                {
                  "internalType": "uint256",
                  "name": "quote",
                  "type": "uint256"
                },
                {
                  "internalType": "uint256[]",
                  "name": "delivery",
                  "type": "uint256[]"
                }
              ],
              "internalType": "struct Solution[]",
              "name": "solutions",
              "type": "tuple[]"
            }
          ],
          "internalType": "struct SolutionSet",
          "name": "out_",
          "type": "tuple"
        },
        {
          "components": [
            {
              "internalType": "bytes32",
              "name": "currency",
              "type": "bytes32"
            },
            {
              "internalType": "uint256",
              "name": "qty",
              "type": "uint256"
            }
          ],
          "internalType": "struct Remainer[]",
          "name": "remainerout_",
          "type": "tuple[]"
        }
      ],
      "stateMutability": "view",
      "type": "function"
    },
    {
      "inputs": [],
      "name": "id",
      "outputs": [
        {
          "internalType": "bytes32",
          "name": "",
          "type": "bytes32"
        }
      ],
      "stateMutability": "view",
      "type": "function"
    },
    {
      "inputs": [
        {
          "internalType": "address",
          "name": "caller_",
          "type": "address"
        }
      ],
      "name": "isOwner",
      "outputs": [
        {
          "internalType": "bool",
          "name": "",
          "type": "bool"
        }
      ],
      "stateMutability": "view",
      "type": "function"
    },
    {
      "inputs": [
        {
          "internalType": "uint256",
          "name": "order_",
          "type": "uint256"
        }
      ],
      "name": "order",
      "outputs": [
        {
          "components": [
            {
              "internalType": "address",
              "name": "account",
              "type": "address"
            },
            {
              "internalType": "bytes32",
              "name": "from",
              "type": "bytes32"
            },
            {
              "internalType": "bytes32",
              "name": "to",
              "type": "bytes32"
            },
            {
              "internalType": "uint256",
              "name": "orderid",
              "type": "uint256"
            },
            {
              "internalType": "uint256",
              "name": "qty",
              "type": "uint256"
            },
            {
              "internalType": "uint256",
              "name": "granularity",
              "type": "uint256"
            },
            {
              "internalType": "uint256",
              "name": "qtydone",
              "type": "uint256"
            },
            {
              "internalType": "uint256",
              "name": "originalqty",
              "type": "uint256"
            },
            {
              "internalType": "uint256",
              "name": "quote",
              "type": "uint256"
            },
            {
              "internalType": "uint256",
              "name": "originalquote",
              "type": "uint256"
            },
            {
              "internalType": "uint256",
              "name": "originalbasedquote",
              "type": "uint256"
            },
            {
              "internalType": "uint256",
              "name": "expire",
              "type": "uint256"
            },
            {
              "internalType": "enum Order.State",
              "name": "state",
              "type": "uint8"
            },
            {
              "internalType": "uint8",
              "name": "options",
              "type": "uint8"
            }
          ],
          "internalType": "struct Order.InfoPublic",
          "name": "",
          "type": "tuple"
        }
      ],
      "stateMutability": "view",
      "type": "function"
    },
    {
      "inputs": [],
      "name": "owner",
      "outputs": [
        {
          "internalType": "address",
          "name": "",
          "type": "address"
        }
      ],
      "stateMutability": "view",
      "type": "function"
    },
    {
      "inputs": [],
      "name": "renounceOwnership",
      "outputs": [],
      "stateMutability": "nonpayable",
      "type": "function"
    },
    {
      "inputs": [],
      "name": "rep",
      "outputs": [
        {
          "internalType": "contract Repository",
          "name": "",
          "type": "address"
        }
      ],
      "stateMutability": "view",
      "type": "function"
    },
    {
      "inputs": [
        {
          "internalType": "bytes32",
          "name": "from_",
          "type": "bytes32"
        },
        {
          "internalType": "bytes32",
          "name": "to_",
          "type": "bytes32"
        },
        {
          "components": [
            {
              "internalType": "uint256",
              "name": "granularity",
              "type": "uint256"
            },
            {
              "internalType": "uint256",
              "name": "qty",
              "type": "uint256"
            },
            {
              "internalType": "bool",
              "name": "qtyismin",
              "type": "bool"
            },
            {
              "internalType": "bool",
              "name": "qtyismax",
              "type": "bool"
            },
            {
              "internalType": "uint256",
              "name": "maxtotal",
              "type": "uint256"
            },
            {
              "internalType": "uint256",
              "name": "maxquote",
              "type": "uint256"
            },
            {
              "internalType": "uint256",
              "name": "maxavgquote",
              "type": "uint256"
            },
            {
              "internalType": "uint256",
              "name": "maxcount",
              "type": "uint256"
            }
          ],
          "internalType": "struct MarketSearch.SearchPublicArgs",
          "name": "args_",
          "type": "tuple"
        },
        {
          "internalType": "uint256[]",
          "name": "delivery_",
          "type": "uint256[]"
        }
      ],
      "name": "search",
      "outputs": [
        {
          "components": [
            {
              "internalType": "uint256",
              "name": "orderid",
              "type": "uint256"
            },
            {
              "internalType": "bytes32",
              "name": "addr",
              "type": "bytes32"
            },
            {
              "internalType": "uint256",
              "name": "qty",
              "type": "uint256"
            },
            {
              "internalType": "uint256",
              "name": "granularity",
              "type": "uint256"
            },
            {
              "internalType": "uint256",
              "name": "quote",
              "type": "uint256"
            },
            {
              "internalType": "uint256[]",
              "name": "delivery",
              "type": "uint256[]"
            }
          ],
          "internalType": "struct Solution[]",
          "name": "",
          "type": "tuple[]"
        },
        {
          "internalType": "uint256",
          "name": "",
          "type": "uint256"
        },
        {
          "components": [
            {
              "internalType": "uint256",
              "name": "quotemin",
              "type": "uint256"
            },
            {
              "internalType": "uint256",
              "name": "quoteavg",
              "type": "uint256"
            },
            {
              "internalType": "uint256",
              "name": "quotemax",
              "type": "uint256"
            }
          ],
          "internalType": "struct Quote",
          "name": "",
          "type": "tuple"
        }
      ],
      "stateMutability": "view",
      "type": "function"
    },
    {
      "inputs": [
        {
          "internalType": "bytes32",
          "name": "fromcurrency_",
          "type": "bytes32"
        },
        {
          "internalType": "bytes32",
          "name": "tocurrency_",
          "type": "bytes32"
        },
        {
          "components": [
            {
              "internalType": "uint256",
              "name": "granularity",
              "type": "uint256"
            },
            {
              "internalType": "uint256",
              "name": "qty",
              "type": "uint256"
            },
            {
              "internalType": "bool",
              "name": "qtyismin",
              "type": "bool"
            },
            {
              "internalType": "bool",
              "name": "qtyismax",
              "type": "bool"
            },
            {
              "internalType": "uint256",
              "name": "maxtotal",
              "type": "uint256"
            },
            {
              "internalType": "uint256",
              "name": "maxquote",
              "type": "uint256"
            },
            {
              "internalType": "uint256",
              "name": "maxavgquote",
              "type": "uint256"
            },
            {
              "internalType": "uint256",
              "name": "maxcount",
              "type": "uint256"
            }
          ],
          "internalType": "struct MarketSearch.SearchPublicArgs",
          "name": "args_",
          "type": "tuple"
        },
        {
          "internalType": "uint256[]",
          "name": "delivery_",
          "type": "uint256[]"
        }
      ],
      "name": "searchC",
      "outputs": [
        {
          "components": [
            {
              "internalType": "uint256",
              "name": "qty",
              "type": "uint256"
            },
            {
              "components": [
                {
                  "internalType": "uint256",
                  "name": "quotemin",
                  "type": "uint256"
                },
                {
                  "internalType": "uint256",
                  "name": "quoteavg",
                  "type": "uint256"
                },
                {
                  "internalType": "uint256",
                  "name": "quotemax",
                  "type": "uint256"
                }
              ],
              "internalType": "struct Quote",
              "name": "quote",
              "type": "tuple"
            },
            {
              "components": [
                {
                  "internalType": "bytes32[]",
                  "name": "path",
                  "type": "bytes32[]"
                },
                {
                  "internalType": "uint256",
                  "name": "qty",
                  "type": "uint256"
                },
                {
                  "components": [
                    {
                      "internalType": "uint256",
                      "name": "quotemin",
                      "type": "uint256"
                    },
                    {
                      "internalType": "uint256",
                      "name": "quoteavg",
                      "type": "uint256"
                    },
                    {
                      "internalType": "uint256",
                      "name": "quotemax",
                      "type": "uint256"
                    }
                  ],
                  "internalType": "struct Quote",
                  "name": "quote",
                  "type": "tuple"
                },
                {
                  "internalType": "uint256",
                  "name": "start",
                  "type": "uint256"
                },
                {
                  "internalType": "uint256",
                  "name": "count",
                  "type": "uint256"
                },
                {
                  "internalType": "uint256[]",
                  "name": "offset",
                  "type": "uint256[]"
                }
              ],
              "internalType": "struct SolutionSetDesc[]",
              "name": "descs",
              "type": "tuple[]"
            },
            {
              "components": [
                {
                  "internalType": "uint256",
                  "name": "orderid",
                  "type": "uint256"
                },
                {
                  "internalType": "bytes32",
                  "name": "addr",
                  "type": "bytes32"
                },
                {
                  "internalType": "uint256",
                  "name": "qty",
                  "type": "uint256"
                },
                {
                  "internalType": "uint256",
                  "name": "granularity",
                  "type": "uint256"
                },
                {
                  "internalType": "uint256",
                  "name": "quote",
                  "type": "uint256"
                },
                {
                  "internalType": "uint256[]",
                  "name": "delivery",
                  "type": "uint256[]"
                }
              ],
              "internalType": "struct Solution[]",
              "name": "solutions",
              "type": "tuple[]"
            }
          ],
          "internalType": "struct SolutionSet",
          "name": "",
          "type": "tuple"
        },
        {
          "components": [
            {
              "internalType": "bytes32",
              "name": "currency",
              "type": "bytes32"
            },
            {
              "internalType": "uint256",
              "name": "qty",
              "type": "uint256"
            }
          ],
          "internalType": "struct Remainer[]",
          "name": "",
          "type": "tuple[]"
        }
      ],
      "stateMutability": "view",
      "type": "function"
    },
    {
      "inputs": [
        {
          "internalType": "address",
          "name": "from_",
          "type": "address"
        },
        {
          "internalType": "uint256",
          "name": "fromid_",
          "type": "uint256"
        },
        {
          "internalType": "address",
          "name": "to_",
          "type": "address"
        },
        {
          "internalType": "uint256",
          "name": "toid_",
          "type": "uint256"
        },
        {
          "components": [
            {
              "internalType": "uint256",
              "name": "granularity",
              "type": "uint256"
            },
            {
              "internalType": "uint256",
              "name": "qty",
              "type": "uint256"
            },
            {
              "internalType": "bool",
              "name": "qtyismin",
              "type": "bool"
            },
            {
              "internalType": "bool",
              "name": "qtyismax",
              "type": "bool"
            },
            {
              "internalType": "uint256",
              "name": "maxtotal",
              "type": "uint256"
            },
            {
              "internalType": "uint256",
              "name": "maxquote",
              "type": "uint256"
            },
            {
              "internalType": "uint256",
              "name": "maxavgquote",
              "type": "uint256"
            },
            {
              "internalType": "uint256",
              "name": "maxcount",
              "type": "uint256"
            }
          ],
          "internalType": "struct MarketSearch.SearchPublicArgs",
          "name": "args_",
          "type": "tuple"
        },
        {
          "internalType": "uint256[]",
          "name": "delivery_",
          "type": "uint256[]"
        }
      ],
      "name": "searchCEx",
      "outputs": [
        {
          "components": [
            {
              "internalType": "uint256",
              "name": "qty",
              "type": "uint256"
            },
            {
              "components": [
                {
                  "internalType": "uint256",
                  "name": "quotemin",
                  "type": "uint256"
                },
                {
                  "internalType": "uint256",
                  "name": "quoteavg",
                  "type": "uint256"
                },
                {
                  "internalType": "uint256",
                  "name": "quotemax",
                  "type": "uint256"
                }
              ],
              "internalType": "struct Quote",
              "name": "quote",
              "type": "tuple"
            },
            {
              "components": [
                {
                  "internalType": "bytes32[]",
                  "name": "path",
                  "type": "bytes32[]"
                },
                {
                  "internalType": "uint256",
                  "name": "qty",
                  "type": "uint256"
                },
                {
                  "components": [
                    {
                      "internalType": "uint256",
                      "name": "quotemin",
                      "type": "uint256"
                    },
                    {
                      "internalType": "uint256",
                      "name": "quoteavg",
                      "type": "uint256"
                    },
                    {
                      "internalType": "uint256",
                      "name": "quotemax",
                      "type": "uint256"
                    }
                  ],
                  "internalType": "struct Quote",
                  "name": "quote",
                  "type": "tuple"
                },
                {
                  "internalType": "uint256",
                  "name": "start",
                  "type": "uint256"
                },
                {
                  "internalType": "uint256",
                  "name": "count",
                  "type": "uint256"
                },
                {
                  "internalType": "uint256[]",
                  "name": "offset",
                  "type": "uint256[]"
                }
              ],
              "internalType": "struct SolutionSetDesc[]",
              "name": "descs",
              "type": "tuple[]"
            },
            {
              "components": [
                {
                  "internalType": "uint256",
                  "name": "orderid",
                  "type": "uint256"
                },
                {
                  "internalType": "bytes32",
                  "name": "addr",
                  "type": "bytes32"
                },
                {
                  "internalType": "uint256",
                  "name": "qty",
                  "type": "uint256"
                },
                {
                  "internalType": "uint256",
                  "name": "granularity",
                  "type": "uint256"
                },
                {
                  "internalType": "uint256",
                  "name": "quote",
                  "type": "uint256"
                },
                {
                  "internalType": "uint256[]",
                  "name": "delivery",
                  "type": "uint256[]"
                }
              ],
              "internalType": "struct Solution[]",
              "name": "solutions",
              "type": "tuple[]"
            }
          ],
          "internalType": "struct SolutionSet",
          "name": "",
          "type": "tuple"
        },
        {
          "components": [
            {
              "internalType": "bytes32",
              "name": "currency",
              "type": "bytes32"
            },
            {
              "internalType": "uint256",
              "name": "qty",
              "type": "uint256"
            }
          ],
          "internalType": "struct Remainer[]",
          "name": "",
          "type": "tuple[]"
        }
      ],
      "stateMutability": "view",
      "type": "function"
    },
    {
      "inputs": [
        {
          "internalType": "address",
          "name": "from_",
          "type": "address"
        },
        {
          "internalType": "uint256",
          "name": "fromid_",
          "type": "uint256"
        },
        {
          "internalType": "address",
          "name": "to_",
          "type": "address"
        },
        {
          "internalType": "uint256",
          "name": "toid_",
          "type": "uint256"
        },
        {
          "components": [
            {
              "internalType": "uint256",
              "name": "granularity",
              "type": "uint256"
            },
            {
              "internalType": "uint256",
              "name": "qty",
              "type": "uint256"
            },
            {
              "internalType": "bool",
              "name": "qtyismin",
              "type": "bool"
            },
            {
              "internalType": "bool",
              "name": "qtyismax",
              "type": "bool"
            },
            {
              "internalType": "uint256",
              "name": "maxtotal",
              "type": "uint256"
            },
            {
              "internalType": "uint256",
              "name": "maxquote",
              "type": "uint256"
            },
            {
              "internalType": "uint256",
              "name": "maxavgquote",
              "type": "uint256"
            },
            {
              "internalType": "uint256",
              "name": "maxcount",
              "type": "uint256"
            }
          ],
          "internalType": "struct MarketSearch.SearchPublicArgs",
          "name": "args_",
          "type": "tuple"
        },
        {
          "internalType": "uint256[]",
          "name": "delivery_",
          "type": "uint256[]"
        }
      ],
      "name": "searchEx",
      "outputs": [
        {
          "components": [
            {
              "internalType": "uint256",
              "name": "orderid",
              "type": "uint256"
            },
            {
              "internalType": "bytes32",
              "name": "addr",
              "type": "bytes32"
            },
            {
              "internalType": "uint256",
              "name": "qty",
              "type": "uint256"
            },
            {
              "internalType": "uint256",
              "name": "granularity",
              "type": "uint256"
            },
            {
              "internalType": "uint256",
              "name": "quote",
              "type": "uint256"
            },
            {
              "internalType": "uint256[]",
              "name": "delivery",
              "type": "uint256[]"
            }
          ],
          "internalType": "struct Solution[]",
          "name": "",
          "type": "tuple[]"
        },
        {
          "internalType": "uint256",
          "name": "",
          "type": "uint256"
        },
        {
          "components": [
            {
              "internalType": "uint256",
              "name": "quotemin",
              "type": "uint256"
            },
            {
              "internalType": "uint256",
              "name": "quoteavg",
              "type": "uint256"
            },
            {
              "internalType": "uint256",
              "name": "quotemax",
              "type": "uint256"
            }
          ],
          "internalType": "struct Quote",
          "name": "",
          "type": "tuple"
        }
      ],
      "stateMutability": "view",
      "type": "function"
    },
    {
      "inputs": [],
      "name": "setSTOP",
      "outputs": [],
      "stateMutability": "nonpayable",
      "type": "function"
    },
    {
      "inputs": [],
      "name": "setSTOPFOREVER",
      "outputs": [],
      "stateMutability": "nonpayable",
      "type": "function"
    },
    {
      "inputs": [
        {
          "internalType": "bytes4",
          "name": "interfaceId",
          "type": "bytes4"
        }
      ],
      "name": "supportsInterface",
      "outputs": [
        {
          "internalType": "bool",
          "name": "",
          "type": "bool"
        }
      ],
      "stateMutability": "view",
      "type": "function"
    },
    {
      "inputs": [
        {
          "internalType": "address",
          "name": "newOwner",
          "type": "address"
        }
      ],
      "name": "transferOwnership",
      "outputs": [],
      "stateMutability": "nonpayable",
      "type": "function"
    },
    {
      "inputs": [],
      "name": "unsetSTOP",
      "outputs": [],
      "stateMutability": "nonpayable",
      "type": "function"
    }
  ],
  "bytecode": "60a06040523480156200001157600080fd5b5060405162005ea438038062005ea48339810160408190526200003491620000b1565b8080620000413362000056565b6001600160a01b031660805250620000e39050565b600080546001600160a01b038381166201000081810262010000600160b01b0319851617855560405193049190911692909183917f8be0079c531659141344cd1fd0a4f28419497f9722a3daafe3b4186f6b6457e091a35050565b600060208284031215620000c457600080fd5b81516001600160a01b0381168114620000dc57600080fd5b9392505050565b608051615d356200016f6000396000818161045701528181610509015281816105a701528181610764015281816107f701528181610cd901528181610d88015281816110e5015281816111760152818161162601528181611951015281816126750152818161289901528181612a8b015281816134590152818161350801526142c50152615d356000f3fe608060405234801561001057600080fd5b50600436106101a95760003560e01c8063854ba99d116100f9578063ccbd163711610097578063e4b1614411610071578063e4b1614414610481578063e9f14ce614610494578063f2fde38b146104a7578063feab4454146104ba576101a9565b8063ccbd16371461043f578063ccc0795914610452578063d693585814610479576101a9565b8063af640d0f116100d3578063af640d0f146103e0578063b03fd40d14610406578063b9b3874514610419578063bd0ade2b1461042c576101a9565b8063854ba99d1461039d5780638da5cb5b146103a557806397962076146103d0576101a9565b80632203616d116101665780636b2b091a116101405780636b2b091a1461034c578063715018a61461036c57806372ea61bf146103745780637af6649a1461037c576101a9565b80632203616d146102d15780632f54bf6e146102f95780636296514114610321576101a9565b806301ffc9a71461022b57806305d6bd9c1461025357806309252f021461025b5780630a3550aa1461027d5780631ef4590d1461029e57806321603f43146102b1575b6101b16104e4565b60006101c16024600436846146c9565b8080601f016020809104026020016040519081016040528093929190818152602001838380828437600092018290525060208501519495509250503660231981019150601f19016004838037816024600437600080826000875af492505050610229816106ae565b005b61023e6102393660046146f3565b6106c4565b60405190151581526020015b60405180910390f35b6102296106fb565b61026e61026936600461492f565b610712565b60405161024a93929190614a84565b61029061028b366004614ac0565b61087b565b60405161024a929190614b7d565b61023e6102ac366004614cba565b610b38565b6102c46102bf366004614cdc565b610bc9565b60405161024a9190614d2d565b6102e46102df366004614cdc565b610bdc565b60405163ffffffff909116815260200161024a565b61023e610307366004614dde565b6000546201000090046001600160a01b0390811691161490565b61033461032f366004614cdc565b610bed565b6040516001600160401b03909116815260200161024a565b61035f61035a366004614cdc565b610c1f565b60405161024a9190614dfb565b610229611033565b610229611045565b61038f61038a366004614e5d565b61105f565b60405190815260200161024a565b61023e611078565b6000546201000090046001600160a01b03165b6040516001600160a01b03909116815260200161024a565b600054610100900460ff1661023e565b7fdcf6913c74762e0b3c7f94f504bb2be7445bbd8d11abee9960f04ebf85e7a7b261038f565b61038f610414366004614e85565b611096565b61029061042736600461492f565b6110b0565b61026e61043a366004614ac0565b6111f7565b61029061044d366004614eae565b61149c565b6103b87f000000000000000000000000000000000000000000000000000000000000000081565b610229611777565b61038f61048f366004614f11565b611793565b61026e6104a2366004614eae565b6117aa565b6102296104b5366004614dde565b611aa3565b6104cd6104c8366004614cdc565b611b1c565b60405165ffffffffffff909116815260200161024a565b6000546001600160a01b03620100009091041633148061059757506001600160a01b037f0000000000000000000000000000000000000000000000000000000000000000166316279055336040516001600160e01b031960e084901b1681526001600160a01b039091166004820152602401602060405180830381865afa158015610573573d6000803e3d6000fd5b505050506040513d601f19601f820116820180604052508101906105979190614f37565b8061063557506001600160a01b037f000000000000000000000000000000000000000000000000000000000000000016636d70f7ae336040516001600160e01b031960e084901b1681526001600160a01b039091166004820152602401602060405180830381865afa158015610611573d6000803e3d6000fd5b505050506040513d601f19601f820116820180604052508101906106359190614f37565b6106ac5760405162461bcd60e51b815260206004820152603960248201527f416c6c6f77616e63653a2063616c6c6572206d757374206265205265706f736960448201527f746f727920436f6e7472616374206f72204f70657261746f720000000000000060648201526084015b60405180910390fd5b565b3d6000803e8080156106bf573d6000f35b3d6000fd5b60006001600160e01b031982166301ffc9a760e01b14806106f557506001600160e01b031982166315d3789560e31b145b92915050565b6107036104e4565b6106ac6000805460ff19169055565b6060600061073a60405180606001604052806000815260200160008152602001600081525090565b6040516327bcdbc960e11b81526001600160a01b038a81166004830152602482018a9052610869917f000000000000000000000000000000000000000000000000000000000000000090911690634f79b79290604401602060405180830381865afa1580156107ad573d6000803e3d6000fd5b505050506040513d601f19601f820116820180604052508101906107d19190614f54565b6040516327bcdbc960e11b81526001600160a01b038a81166004830152602482018a90527f00000000000000000000000000000000000000000000000000000000000000001690634f79b79290604401602060405180830381865afa15801561083e573d6000803e3d6000fd5b505050506040513d601f19601f820116820180604052508101906108629190614f54565b87876117aa565b92509250925096509650969350505050565b6108836144fc565b60606000835b610894600882614f83565b8210156108d85785856108a8846008614f9a565b8181106108b7576108b7614fb2565b90506020020135600003156108d857816108d081614fc8565b925050610889565b6000826001600160401b038111156108f2576108f2614732565b60405190808252806020026020018201604052801561091b578160200160208202803683370190505b50905060005b8381101561097b578787610936836008614f9a565b81811061094557610945614fb2565b9050602002013582828151811061095e5761095e614fb2565b60209081029190910101528061097381614fc8565b915050610921565b50610b27896040518060e001604052808b81526020018a8a60008181106109a4576109a4614fb2565b9050602002013581526020018a8a60018181106109c3576109c3614fb2565b9050602002013581526020018a8a60028181106109e2576109e2614fb2565b9050602002013560001415151581526020018a8a6003818110610a0757610a07614fb2565b9050602002013560001415151581526020018a8a6007818110610a2c57610a2c614fb2565b9050602002013581526020018481525060405180608001604052808b8b6005818110610a5a57610a5a614fb2565b9050602002013581526020018b8b6006818110610a7957610a79614fb2565b9050602002013581526020018b8b6004818110610a9857610a98614fb2565b60209081029290920135835250016000604051908082528060200260200182016040528015610ae157816020015b610ace614546565b815260200190600190039081610ac65790505b5090526040805160008082526020820190925290610b21565b6040805180820190915260008082526020820152815260200190600190039081610afa5790505b50611b2d565b945094505050505b94509492505050565b6000828152600160205260408082209051632be5db2360e11b815260048101919091526024810183905273__Array_________________________________906357cbb64690604401602060405180830381865af4158015610b9e573d6000803e3d6000fd5b505050506040513d601f19601f82011682018060405250810190610bc29190614f37565b9392505050565b610bd161457f565b6106f582600061255d565b60006106f564e8d4a5100083614fe1565b600080610bff6402540be40084614fe1565b905082610c11826402540be400615003565b11156106f5576106f5615022565b6000818152600160209081526040808320805482518185028101850190935280835260609493830182828015610c7457602002820191906000526020600020905b815481526020019060010190808311610c60575b5050505050905080516001600160401b03811115610c9457610c94614732565b604051908082528060200260200182016040528015610cc757816020015b6060815260200190600190039081610cb25790505b5091506000805b8251811015610fe0577f00000000000000000000000000000000000000000000000000000000000000006001600160a01b03166338a699a4848381518110610d1857610d18614fb2565b60200260200101516040518263ffffffff1660e01b8152600401610d3e91815260200190565b602060405180830381865afa158015610d5b573d6000803e3d6000fd5b505050506040513d601f19601f82011682018060405250810190610d7f9190614f37565b15610fce5760007f00000000000000000000000000000000000000000000000000000000000000006001600160a01b03166327ee9dc2858481518110610dc757610dc7614fb2565b60200260200101516040518263ffffffff1660e01b8152600401610ded91815260200190565b600060405180830381865afa158015610e0a573d6000803e3d6000fd5b505050506040513d6000823e601f3d908101601f19168201604052610e329190810190615093565b90506000815111610e7f5760405162461bcd60e51b815260206004820152601760248201527605f706174684c69737420706174682e6c656e6774683e3604c1b60448201526064016106a3565b60005b60018251610e909190614f83565b811015610f8657610f6f73__BytesAndKeccakLib_____________________6376254ff9848481518110610ec657610ec6614fb2565b602002602001015185856001610edc9190614f9a565b81518110610eec57610eec614fb2565b60200260200101516040518363ffffffff1660e01b8152600401610f1a929190918252602082015260400190565b602060405180830381865af4158015610f37573d6000803e3d6000fd5b505050506040513d601f19601f82011682018060405250810190610f5b9190614f54565b600090815260066020526040902054151590565b15610f865780610f7e81614fc8565b915050610e82565b60018251610f949190614f83565b811015610fa2575050610fce565b818685610fae81614fc8565b965081518110610fc057610fc0614fb2565b602002602001018190525050505b80610fd881614fc8565b915050610cce565b508083526000811161102c5760405162461bcd60e51b815260206004820152601560248201527405f6c6973745061746846726f6d20636f756e743e3605c1b60448201526064016106a3565b5050919050565b61103b612cca565b6106ac6000612d2b565b61104d6104e4565b6106ac6000805460ff19166001179055565b60006106f565ffffffffffff831664174876e800615003565b6000805460ff16806110915750600054610100900460ff165b905090565b60006106f56001600160401b0383166402540be400615003565b6110b86144fc565b6040516327bcdbc960e11b81526001600160a01b038881166004830152602482018890526060916111e8917f00000000000000000000000000000000000000000000000000000000000000001690634f79b79290604401602060405180830381865afa15801561112c573d6000803e3d6000fd5b505050506040513d601f19601f820116820180604052508101906111509190614f54565b6040516327bcdbc960e11b81526001600160a01b038981166004830152602482018990527f00000000000000000000000000000000000000000000000000000000000000001690634f79b79290604401602060405180830381865afa1580156111bd573d6000803e3d6000fd5b505050506040513d601f19601f820116820180604052508101906111e19190614f54565b868661149c565b91509150965096945050505050565b6060600061121f60405180606001604052806000815260200160008152602001600081525090565b60008061122d600887614f83565b90505b80821015611275578686611245846008614f9a565b81811061125457611254614fb2565b9050602002013560000315611275578161126d81614fc8565b925050611230565b6000826001600160401b0381111561128f5761128f614732565b6040519080825280602002602001820160405280156112b8578160200160208202803683370190505b50905060005b838110156113185788886112d3836008614f9a565b8181106112e2576112e2614fb2565b905060200201358282815181106112fb576112fb614fb2565b60209081029190910101528061131081614fc8565b9150506112be565b506114888a6040518060e001604052808c81526020018b8b600081811061134157611341614fb2565b9050602002013581526020018b8b600181811061136057611360614fb2565b9050602002013581526020018b8b600281811061137f5761137f614fb2565b9050602002013560001415151581526020018b8b60038181106113a4576113a4614fb2565b9050602002013560001415151581526020018b8b60078181106113c9576113c9614fb2565b9050602002013581526020018481525060405180608001604052808c8c60058181106113f7576113f7614fb2565b9050602002013581526020018c8c600681811061141657611416614fb2565b9050602002013581526020018c8c600481811061143557611435614fb2565b6020908102929092013583525001600060405190808252806020026020018201604052801561147e57816020015b61146b614546565b8152602001906001900390816114635790505b5090526000612d86565b9550955095505050505b9450945094915050565b6114a46144fc565b815160609060208111156114fa5760405162461bcd60e51b815260206004820152601d60248201527f64656c6976657279206172726179206d61782073697a6520697320333200000060448201526064016106a3565b61150261460e565b85518152602080870151908201526040860151611520576000611523565b60015b60ff166040820152606086015161153b57600061153e565b60015b60ff1660608201526080868101519082015260a0808701519082015260c0808701519082015260e08087015190820152600860005b838110156115ec5786818151811061158d5761158d614fb2565b60200260200101516000146115da578681815181106115ae576115ae614fb2565b60200260200101518383806115c290614fc8565b9450602881106115d4576115d4614fb2565b60200201525b806115e481614fc8565b915050611573565b505060405163023aa9ab60e61b81527f2e7a327ef83c2af7579c6634f2f5604519800c5f07626f27bd602fd11ed8e6ec60048201526000907f00000000000000000000000000000000000000000000000000000000000000006001600160a01b031690638eaa6ac090602401602060405180830381865afa158015611675573d6000803e3d6000fd5b505050506040513d601f19601f8201168201806040525081019061169991906150c7565b6001600160a01b03167f0a3550aabeea45f9d515c45ea5dadcd6efbe5a3c73ab07644f630de564c6515a308b8b60606028886040516024016116e0969594939291906150e4565b60408051601f198184030181529181526020820180516001600160e01b03166001600160e01b031990941693909317909252905161171e9190615147565b600060405180830381855afa9150503d8060008114611759576040519150601f19603f3d011682016040523d82523d6000602084013e61175e565b606091505b5050905061176b816106ae565b50505094509492505050565b61177f612cca565b6106ac6000805461ff001916610100179055565b60006106f563ffffffff831664e8d4a51000615003565b606060006117d260405180606001604052806000815260200160008152602001600081525090565b835160208111156118255760405162461bcd60e51b815260206004820152601d60248201527f64656c6976657279206172726179206d61782073697a6520697320333200000060448201526064016106a3565b61182d61460e565b8651815260208088015190820152604087015161184b57600061184e565b60015b60ff1660408201526060870151611866576000611869565b60015b60ff1660608201526080878101519082015260a0808801519082015260c0808801519082015260e08088015190820152600860005b83811015611917578781815181106118b8576118b8614fb2565b6020026020010151600014611905578781815181106118d9576118d9614fb2565b60200260200101518383806118ed90614fc8565b9450602881106118ff576118ff614fb2565b60200201525b8061190f81614fc8565b91505061189e565b505060405163023aa9ab60e61b81527f2e7a327ef83c2af7579c6634f2f5604519800c5f07626f27bd602fd11ed8e6ec60048201526000907f00000000000000000000000000000000000000000000000000000000000000006001600160a01b031690638eaa6ac090602401602060405180830381865afa1580156119a0573d6000803e3d6000fd5b505050506040513d601f19601f820116820180604052508101906119c491906150c7565b6001600160a01b03167fbd0ade2bcae368fca26bb02146561a2830136bf30c4a34c648255fccebbe2254308c8c6060602888604051602401611a0b969594939291906150e4565b60408051601f198184030181529181526020820180516001600160e01b03166001600160e01b0319909416939093179092529051611a499190615147565b600060405180830381855afa9150503d8060008114611a84576040519150601f19603f3d011682016040523d82523d6000602084013e611a89565b606091505b50509050611a96816106ae565b5050509450945094915050565b611aab612cca565b6001600160a01b038116611b105760405162461bcd60e51b815260206004820152602660248201527f4f776e61626c653a206e6577206f776e657220697320746865207a65726f206160448201526564647265737360d01b60648201526084016106a3565b611b1981612d2b565b50565b60006106f564174876e80083614fe1565b611b356144fc565b81611b3e6144fc565b6000611b4e88886000015161334e565b805190915060005b81811015611cfd57611b6661462d565b611bf2848381518110611b7b57611b7b614fb2565b60200260200101516002868581518110611b9757611b97614fb2565b602002602001015151611baa9190614f83565b81518110611bba57611bba614fb2565b60200260200101518b60405180608001604052806000815260200160008152602001600081526020018d606001518152506000612d86565b6040840152602083018190526000039050611c0d5750611ceb565b838281518110611c1f57611c1f614fb2565b6020908102919091010151815273__MarketLib_____________________________637513ce1b86836000604051908082528060200260200182016040528015611c8357816020015b611c70614546565b815260200190600190039081611c685790505b506040518463ffffffff1660e01b8152600401611ca293929190615341565b600060405180830381865af4158015611cbf573d6000803e3d6000fd5b505050506040513d6000823e601f3d908101601f19168201604052611ce7919081019061556e565b9450505b80611cf581614fc8565b915050611b56565b5050506040810151516000819003611d16575050610b2f565b611d1e614685565b87518152602080890151818301526040808a0151818401526060808b01511515818501526080808c015115158186015260a0808d01519086015260c0808d0151908601528251908101835260008082528185018181528285018281528385018581528e518552968e0151909152938c0151909352908a0151909252836001600160401b03811115611db157611db1614732565b604051908082528060200260200182016040528015611dea57816020015b611dd76144fc565b815260200190600190039081611dcf5790505b50905060005b89518352600160a085015260005b85811015611eef57611e3387604001518281518110611e1f57611e1f614fb2565b60200260200101516000015186868b61373a565b838281518110611e4557611e45614fb2565b60200260200101819052506001838281518110611e6457611e64614fb2565b602002602001015160400151511115611edd5760405162461bcd60e51b815260206004820152603560248201527f504152414e4f4941205f5f73656172636843466f6c6c6f77506174682073686f604482015274756c642072657475726e206d61782031206465736360581b60648201526084016106a3565b80611ee781614fc8565b915050611dfe565b50600019600080805b8881101561204b57858181518110611f1257611f12614fb2565b6020026020010151600001516000031561203957600019841480611f565750858181518110611f4357611f43614fb2565b6020026020010151602001516000015183115b15611feb576000198414158015611f8d5750858181518110611f7a57611f7a614fb2565b6020026020010151602001516040015183105b15611f9a57829150611fbf565b858181518110611fac57611fac614fb2565b6020026020010151602001516040015191505b809350858181518110611fd457611fd4614fb2565b602002602001015160200151600001519250612039565b858181518110611ffd57611ffd614fb2565b602002602001015160200151600001518211156120395785818151811061202657612026614fb2565b6020026020010151602001516000015191505b8061204381614fc8565b915050611ef8565b50600019830361205d5750505061254e565b8552506120686144fc565b6120958860400151838151811061208157612081614fb2565b60200260200101516000015187878c61373a565b90508060400151516001146121065760405162461bcd60e51b815260206004820152603160248201527f504152414e4f4941205f5f73656172636843466f6c6c6f77506174682073686f604482015270756c642072657475726e2031206465736360781b60648201526084016106a3565b805160000361214f5760405162461bcd60e51b81526020600482015260156024820152746966202873656c65637465642e717479203d3d302960581b60448201526064016106a3565b604051639fab220f60e01b815273__MarketLib_____________________________90639fab220f90612188908d908590600401615688565b600060405180830381865af41580156121a5573d6000803e3d6000fd5b505050506040513d6000823e601f3d908101601f191682016040526121cd919081019061556e565b9950806060015151836121e09190614f9a565b925080604001516000815181106121f9576121f9614fb2565b602002602001015160a001515160001461228657806040015160008151811061222457612224614fb2565b602002602001015160a001516001826040015160008151811061224957612249614fb2565b602002602001015160a00151516122609190614f83565b8151811061227057612270614fb2565b6020026020010151836122839190614f83565b92505b8873__MarketLib_____________________________637071133e909183604001516000815181106122ba576122ba614fb2565b602002602001015184606001516040518463ffffffff1660e01b81526004016122e5939291906156ad565b600060405180830381865af4158015612302573d6000803e3d6000fd5b505050506040513d6000823e601f3d908101601f1916820160405261232a91908101906156c0565b6060808701519083015160405163bf07928f60e01b8152929b5073__MarketLib_____________________________9263bf07928f9261236e929091600401615775565b600060405180830381865af415801561238b573d6000803e3d6000fd5b505050506040513d6000823e601f3d908101601f191682016040526123b3919081019061579a565b60608601528b51855260a08d01511561242f578c60a0015183106124195760405162461bcd60e51b815260206004820152601f60248201527f696620286d6178636f756e743e3d7461726765745f2e6d6178636f756e74290060448201526064016106a3565b828d60a001516124299190614f83565b60a08701525b60408d0151156124a45760408d015181511061248d5760405162461bcd60e51b815260206004820152601e60248201527f6966202873656c65637465642e7174793e3d7461726765745f2e71747929000060448201526064016106a3565b805160408e015161249e9190614f83565b60408701525b60408c015115612547576000670de0b6b3a76400008b60200151602001518c600001516124d19190615003565b6124db9190614fe1565b90508c6040015181106125305760405162461bcd60e51b815260206004820152601f60248201527f69662028746f74616c3e3d7365617263686172675f2e6d6178746f74616c290060448201526064016106a3565b808d604001516125409190614f83565b6040870152505b5050611df0565b50505050505094509492505050565b61256561457f565b60008381526005602081815260408084208151610180810183528154815260018201546001600160a01b0381169482019490945293909291840191600160a01b900460ff16908111156125ba576125ba614cf5565b60058111156125cb576125cb614cf5565b81526001820154600160a81b900460ff166020820152600282015460408083019190915260038301546001600160401b0380821660608501526801000000000000000080830482166080860152600160801b808404831660a0870152600160c01b909304821660c086015260049586015480831660e087015290810482166101008601529190910416610120909201919091528251905163657c7e0960e01b8152918201529091507f00000000000000000000000000000000000000000000000000000000000000006001600160a01b03169063657c7e09906024016040805180830381865afa1580156126c3573d6000803e3d6000fd5b505050506040513d601f19601f820116820180604052508101906126e791906157ce565b60408401526020830152608081015160608301528280612780575060608101516040516336181b6760e11b815260ff909116600482015273__Order_________________________________90636c3036ce90602401602060405180830381865af415801561275a573d6000803e3d6000fd5b505050506040513d601f19601f8201168201806040525081019061277e9190614f37565b155b15612c075760208101516001600160a01b0316825260a08101516127a390611096565b60808301526060810151604051632b2076e360e11b815260ff909116600482015273__Order_________________________________90635640edc690602401602060405180830381865af4158015612800573d6000803e3d6000fd5b505050506040513d601f19601f820116820180604052508101906128249190614f37565b1561283857608082015160a0830152612984565b6101208101516001600160401b0316156128645761285a816101200151611096565b60a0830152612984565b60405163023aa9ab60e61b81527fcd775f2396f9f13f12bcf8ca32e21df66559a8adc3944d0591127e7731f7ab8560048201527f00000000000000000000000000000000000000000000000000000000000000006001600160a01b031690638eaa6ac090602401602060405180830381865afa1580156128e8573d6000803e3d6000fd5b505050506040513d601f19601f8201168201806040525081019061290c91906150c7565b6001600160a01b031663a9bf985883602001516040518263ffffffff1660e01b815260040161293d91815260200190565b602060405180830381865afa15801561295a573d6000803e3d6000fd5b505050506040513d601f19601f8201168201806040525081019061297e9190614f54565b60a08301525b6129918160c00151611096565b60c083015260e08101516129a490611096565b60e08301526060810151604051635b7d0f6960e11b815260ff909116600482015273__Order_________________________________9063b6fa1ed290602401602060405180830381865af4158015612a01573d6000803e3d6000fd5b505050506040513d601f19601f82011682018060405250810190612a259190614f37565b15612bf257612a38816101400151611096565b610120830152610160810151612a4d90611096565b61014083015260405163023aa9ab60e61b81527f3cb99135f7a7c088d9085b446345038a22a85f4e8fe072b0e1b66d97243e745860048201526000907f00000000000000000000000000000000000000000000000000000000000000006001600160a01b031690638eaa6ac090602401602060405180830381865afa158015612ada573d6000803e3d6000fd5b505050506040513d601f19601f82011682018060405250810190612afe91906150c7565b6001600160a01b0316636464b68a846020015185604001516040518363ffffffff1660e01b8152600401612b3c929190918252602082015260400190565b606060405180830381865afa158015612b59573d6000803e3d6000fd5b505050506040513d601f19601f82011682018060405250810190612b7d91906157f2565b509150506000819003612bc65760405162461bcd60e51b8152602060048201526011602482015270145d5bdd194e88139bdd081c5d5bdd1959607a1b60448201526064016106a3565b610140830151612bd69082614fe1565b836101200151612be69190615003565b61010084015250612c07565b612c00816101000151611096565b6101008301525b604051630212d6cb60e21b815273__Order_________________________________9063084b5b2c90612c3e908490600401615820565b602060405180830381865af4158015612c5b573d6000803e3d6000fd5b505050506040513d601f19601f82011682018060405250810190612c7f9190614f54565b61016083015260408101516101808301906005811115612ca157612ca1614cf5565b90816005811115612cb457612cb4614cf5565b9052506060015160ff166101a082015292915050565b6000546001600160a01b03620100009091041633146106ac5760405162461bcd60e51b815260206004820152601f60248201527f416c6c6f77616e63653a2063616c6c6572206d757374206265204f776e65720060448201526064016106a3565b600080546001600160a01b038381166201000081810262010000600160b01b0319851617855560405193049190911692909183917f8be0079c531659141344cd1fd0a4f28419497f9722a3daafe3b4186f6b6457e091a35050565b60606000612dae60405180606001604052806000815260200160008152602001600081525090565b612dc48787600001518860c00151600080614040565b80519093506000816001600160401b03811115612de357612de3614732565b604051908082528060200260200182016040528015612e1c57816020015b612e09614546565b815260200190600190039081612e015790505b5090506000805b83811015613150578960000151878281518110612e4257612e42614fb2565b60200260200101516020015114612ead5760405162461bcd60e51b815260206004820152602960248201527f5f5f736561726368206f75745f5b695d2e61646472203d3d207461726765745f6044820152682e63757272656e637960b81b60648201526084016106a3565b885115801590612edd57508860000151878281518110612ecf57612ecf614fb2565b602002602001015160800151115b61313e578960200151878281518110612ef857612ef8614fb2565b6020026020010151606001511061313e57886060015173__MarketLib_____________________________635640453d9091898481518110612f3c57612f3c614fb2565b6020026020010151600001516040518363ffffffff1660e01b8152600401612f6592919061590f565b602060405180830381865af4158015612f82573d6000803e3d6000fd5b505050506040513d601f19601f82011682018060405250810190612fa69190614f54565b878281518110612fb857612fb8614fb2565b6020026020010151604001511061313e57868181518110612fdb57612fdb614fb2565b602002602001015160600151896060015173__MarketLib_____________________________635640453d90918a858151811061301a5761301a614fb2565b6020026020010151600001516040518363ffffffff1660e01b815260040161304392919061590f565b602060405180830381865af4158015613060573d6000803e3d6000fd5b505050506040513d601f19601f820116820180604052508101906130849190614f54565b88838151811061309657613096614fb2565b6020026020010151604001516130ac9190614f83565b1061313e578960a0015160011480156130c85750602089015115155b80156130f4575088602001518782815181106130e6576130e6614fb2565b602002602001015160800151115b61313e5786818151811061310a5761310a614fb2565b602002602001015183838151811061312457613124614fb2565b6020026020010181905250818061313a90614fc8565b9250505b8061314881614fc8565b915050612e23565b508152935073__MarketSearchLib_______________________905063b51b8e828460008989826040519080825280602002602001820160405280156131b057816020015b61319d614546565b8152602001906001900390816131955790505b506040518663ffffffff1660e01b81526004016131d1959493929190615964565b600060405180830381865af41580156131ee573d6000803e3d6000fd5b505050506040513d6000823e601f3d908101601f191682016040526132169190810190615a0d565b919450925090508361149257604051637bf5cddb60e11b815273__MarketLib_____________________________9063f7eb9bb690613259908690600401615a64565b600060405180830381865af4158015613276573d6000803e3d6000fd5b505050506040513d6000823e601f3d908101601f1916820160405261329e919081019061579a565b92508560a001516000141580156132b957508560a001518351115b156114925760a086015180845260405163742228d760e01b815273__MarketLib_____________________________9063742228d7906132fd908790600401615a64565b608060405180830381865af415801561331a573d6000803e3d6000fd5b505050506040513d601f19601f8201168201806040525081019061333e9190615a77565b9093509150509450945094915050565b60008281526001602090815260408083208054825181850281018501909352808352606094938301828280156133a357602002820191906000526020600020905b81548152602001906001019080831161338f575b5050505050905060008151116133fb5760405162461bcd60e51b815260206004820152601b60248201527f5f706174684c6973742066726f6d706174682e6c656e6774683e30000000000060448201526064016106a3565b80516001600160401b0381111561341457613414614732565b60405190808252806020026020018201604052801561344757816020015b60608152602001906001900390816134325790505b5091506000805b82518110156136ea577f00000000000000000000000000000000000000000000000000000000000000006001600160a01b03166338a699a484838151811061349857613498614fb2565b60200260200101516040518263ffffffff1660e01b81526004016134be91815260200190565b602060405180830381865afa1580156134db573d6000803e3d6000fd5b505050506040513d601f19601f820116820180604052508101906134ff9190614f37565b156136d85760007f00000000000000000000000000000000000000000000000000000000000000006001600160a01b03166327ee9dc285848151811061354757613547614fb2565b60200260200101516040518263ffffffff1660e01b815260040161356d91815260200190565b600060405180830381865afa15801561358a573d6000803e3d6000fd5b505050506040513d6000823e601f3d908101601f191682016040526135b29190810190615093565b905060008151116135ff5760405162461bcd60e51b815260206004820152601760248201527605f706174684c69737420706174682e6c656e6774683e3604c1b60448201526064016106a3565b85816001835161360f9190614f83565b8151811061361f5761361f614fb2565b60200260200101511461363257506136d8565b60005b600182516136439190614f83565b8110156136905761367973__BytesAndKeccakLib_____________________6376254ff9848481518110610ec657610ec6614fb2565b15613690578061368881614fc8565b915050613635565b6001825161369e9190614f83565b8110156136ac5750506136d8565b8186856136b881614fc8565b9650815181106136ca576136ca614fb2565b602002602001018190525050505b806136e281614fc8565b91505061344e565b50808352600081116137325760405162461bcd60e51b815260206004820152601160248201527005f706174684c69737420636f756e743e3607c1b60448201526064016106a3565b505092915050565b6137426144fc565b6002855110156137a05760405162461bcd60e51b815260206004820152602360248201527f5f5f73656172636843466f6c6c6f775061746820706174685f2e6c656e6774686044820152621f1e9960e91b60648201526084016106a3565b8351855186906137b290600190614f83565b815181106137c2576137c2614fb2565b60200260200101511461383d5760405162461bcd60e51b815260206004820152603d60248201527f5f5f73656172636843466f6c6c6f775061746820706174685f5b706174685f2e60448201527f6c656e677468202d20315d3d3d7461726765745f2e63757272656e637900000060648201526084016106a3565b606061384761462d565b865160020361394c5761388387600289516138629190614f83565b8151811061387257613872614fb2565b602002602001015187876000612d86565b6040840152602083015280516080830152875190925073__MarketLib_____________________________90632fbf1f939083908a906138c590600290614f83565b815181106138d5576138d5614fb2565b602002602001015189600001516040518463ffffffff1660e01b815260040161390093929190615aa4565b600060405180830381865af415801561391d573d6000803e3d6000fd5b505050506040513d6000823e601f3d908101601f191682016040526139459190810190615ac9565b9050613fb3565b604085015160015b600189516139629190614f83565b811015613b23576000613a578a61397a600185614f83565b8151811061398a5761398a614fb2565b60200260200101516040518060e001604052808d86815181106139af576139af614fb2565b6020026020010151815260200160008152602001600081526020016000151581526020016000151581526020016000815260200160006001600160401b038111156139fc576139fc614732565b604051908082528060200260200182016040528015613a25578160200160208202803683370190505b50815250604051806080016040528060008152602001600081526020018781526020018c606001518152506001612d86565b509150506000819003613a6e575050505050614038565b8673__MarketLib_____________________________63e23edbef90918c8581518110613a9d57613a9d614fb2565b60200260200101516040518363ffffffff1660e01b8152600401613ac2929190615afd565b602060405180830381865af4158015613adf573d6000803e3d6000fd5b505050506040513d601f19601f82011682018060405250810190613b039190614f54565b613b0d9082614f9a565b9250508080613b1b90614fc8565b915050613954565b50613b7d8860028a51613b369190614f83565b81518110613b4657613b46614fb2565b602002602001015188604051806080016040528060008152602001600081526020018581526020018a606001518152506000612d86565b604085015260208401819052909350600003613b9b57505050614038565b82516080830152875173__MarketLib_____________________________90632fbf1f939084908b90613bd090600290614f83565b81518110613be057613be0614fb2565b60200260200101518a600001516040518463ffffffff1660e01b8152600401613c0b93929190615aa4565b600060405180830381865af4158015613c28573d6000803e3d6000fd5b505050506040513d6000823e601f3d908101601f19168201604052613c509190810190615ac9565b9150670de0b6b3a76400008260400151602001518360200151613c739190615003565b613c7d9190614fe1565b9050600060028951613c8f9190614f83565b90505b8015613fb0576060613ca261462d565b613caa614685565b613cd56040518060800160405280600081526020016000815260200160008152602001606081525090565b8c8581518110613ce757613ce7614fb2565b60200260200101518260000181815250508973__MarketLib_____________________________63e23edbef90918f8881518110613d2757613d27614fb2565b60200260200101516040518363ffffffff1660e01b8152600401613d4c929190615afd565b602060405180830381865af4158015613d69573d6000803e3d6000fd5b505050506040513d601f19601f82011682018060405250810190613d8d9190614f54565b613d979087614f83565b6040830152600160608084018290528c81015190830152613ddf908e90613dbe9088614f83565b81518110613dce57613dce614fb2565b602002602001015183836000612d86565b6040860152602085018190529094506000039150613e04905057505050505050614038565b670de0b6b3a76400008160400151602001518260200151613e259190615003565b613e2f9190614fe1565b935073__MarketLib_____________________________6350308ede86888e613e59600189614f83565b81518110613e6957613e69614fb2565b6020026020010151866040518563ffffffff1660e01b8152600401613e919493929190615b10565b600060405180830381865af4158015613eae573d6000803e3d6000fd5b505050506040513d6000823e601f3d908101601f19168201604052613ed69190810190615b4f565b604080840151519083015151919850919650670de0b6b3a764000091613efb91615003565b613f059190614fe1565b60408087018051929092528281015181015191510151670de0b6b3a764000091613f2e91615003565b613f389190614fe1565b85604001516040018181525050670de0b6b3a764000085602001518260400151602001518360200151613f6b9190615003565b613f759190614fe1565b866040015160200151613f889190615003565b613f929190614fe1565b60408601516020015250819050613fa881615bb2565b915050613c92565b50505b604051637513ce1b60e01b815273__MarketLib_____________________________90637513ce1b90613fee90869085908790600401615341565b600060405180830381865af415801561400b573d6000803e3d6000fd5b505050506040513d6000823e601f3d908101601f19168201604052614033919081019061556e565b925050505b949350505050565b606060008060006006600073__BytesAndKeccakLib_____________________6376254ff98c8c6040518363ffffffff1660e01b815260040161408d929190918252602082015260400190565b602060405180830381865af41580156140aa573d6000803e3d6000fd5b505050506040513d601f19601f820116820180604052508101906140ce9190614f54565b81526020019081526020016000209050600081805490509050856000036140f3578095505b856001600160401b0381111561410b5761410b614732565b60405190808252806020026020018201604052801561414457816020015b614131614546565b8152602001906001900390816141295790505b50945060005b818110156144ed57868410156144ed5760006005600085848154811061417257614172614fb2565b90600052602060002001548152602001908152602001600020905073__Order_________________________________63084b5b2c826040518263ffffffff1660e01b81526004016141c49190615ca4565b602060405180830381865af41580156141e1573d6000803e3d6000fd5b505050506040513d601f19601f820116820180604052508101906142059190614f54565b15806142895750604051630212d6cb60e21b8152429073__Order_________________________________9063084b5b2c90614245908590600401615ca4565b602060405180830381865af4158015614262573d6000803e3d6000fd5b505050506040513d601f19601f820116820180604052508101906142869190614f54565b10155b80156143a6575060405163023aa9ab60e61b81527f33ffbdff3a4282df4353f3593b78d26aaf4c28b5786164f828858505bc5e301c60048201527f00000000000000000000000000000000000000000000000000000000000000006001600160a01b031690638eaa6ac090602401602060405180830381865afa158015614314573d6000803e3d6000fd5b505050506040513d601f19601f8201168201806040525081019061433891906150c7565b6001600160a01b0316635aca1641828c6040518363ffffffff1660e01b8152600401614365929190615cb3565b602060405180830381865afa158015614382573d6000803e3d6000fd5b505050506040513d601f19601f820116820180604052508101906143a69190614f37565b156144d957856143b581614fc8565b9650508886116143c557506144db565b60006143ee8584815481106143dc576143dc614fb2565b9060005260206000200154600161255d565b90508060a00151816080015110156144075750506144db565b806060015188878151811061441e5761441e614fb2565b60200260200101516000018181525050806040015188878151811061444557614445614fb2565b602002602001015160200181815250508060a0015188878151811061446c5761446c614fb2565b60200260200101516060018181525050806080015188878151811061449357614493614fb2565b602002602001015160400181815250508061010001518887815181106144bb576144bb614fb2565b602090810291909101015160800152856144d481614fc8565b965050505b505b806144e581614fc8565b91505061414a565b50505082525095945050505050565b60405180608001604052806000815260200161453260405180606001604052806000815260200160008152602001600081525090565b815260200160608152602001606081525090565b6040518060c001604052806000815260200160008019168152602001600081526020016000815260200160008152602001606081525090565b604051806101c0016040528060006001600160a01b0316815260200160008019168152602001600080191681526020016000815260200160008152602001600081526020016000815260200160008152602001600081526020016000815260200160008152602001600081526020016000600581111561460157614601614cf5565b8152600060209091015290565b6040518061050001604052806028906020820280368337509192915050565b6040518060c00160405280606081526020016000815260200161466a60405180606001604052806000815260200160008152602001600081525090565b81526020016000815260200160008152602001606081525090565b6040518060e0016040528060008019168152602001600081526020016000815260200160001515815260200160001515815260200160008152602001606081525090565b600080858511156146d957600080fd5b838611156146e657600080fd5b5050820193919092039150565b60006020828403121561470557600080fd5b81356001600160e01b031981168114610bc257600080fd5b6001600160a01b0381168114611b1957600080fd5b634e487b7160e01b600052604160045260246000fd5b60405160c081016001600160401b038111828210171561476a5761476a614732565b60405290565b604051608081016001600160401b038111828210171561476a5761476a614732565b604080519081016001600160401b038111828210171561476a5761476a614732565b604051601f8201601f191681016001600160401b03811182821017156147dc576147dc614732565b604052919050565b8015158114611b1957600080fd5b80356147fd816147e4565b919050565b600061010080838503121561481657600080fd5b604051908101906001600160401b038211818310171561483857614838614732565b6040918252833581526020808501359082015291508201358161485a826147e4565b81604082015261486c606085016147f2565b60608201526080840135608082015260a084013560a082015260c084013560c082015260e084013560e0820152505092915050565b60006001600160401b038211156148ba576148ba614732565b5060051b60200190565b600082601f8301126148d557600080fd5b813560206148ea6148e5836148a1565b6147b4565b82815260059290921b8401810191818101908684111561490957600080fd5b8286015b84811015614924578035835291830191830161490d565b509695505050505050565b6000806000806000806101a0878903121561494957600080fd5b86356149548161471d565b955060208701359450604087013561496b8161471d565b9350606087013592506149818860808901614802565b91506101808701356001600160401b0381111561499d57600080fd5b6149a989828a016148c4565b9150509295509295509295565b600081518084526020808501945080840160005b838110156149e6578151875295820195908201906001016149ca565b509495945050505050565b600081518084526020808501808196508360051b8101915082860160005b85811015614a77578284038952815180518552858101518686015260408082015190860152606080820151908601526080808201519086015260a09081015160c091860182905290614a63818701836149b6565b9a87019a9550505090840190600101614a0f565b5091979650505050505050565b60a081526000614a9760a08301866149f1565b905083602083015261403860408301848051825260208082015190830152604090810151910152565b60008060008060608587031215614ad657600080fd5b843593506020850135925060408501356001600160401b0380821115614afb57600080fd5b818701915087601f830112614b0f57600080fd5b813581811115614b1e57600080fd5b8860208260051b8501011115614b3357600080fd5b95989497505060200194505050565b600081518084526020808501945080840160005b838110156149e6578151805188528301518388015260409096019590820190600101614b56565b600060408083526101008084018651838601526020808801516060614bb8818901838051825260208082015190830152604090810151910152565b858a015160c0898101819052815195869052610120600587901b8b0181019692860194509091908a019060005b81811015614c7a578b880361011f19018352855180518a8a52614c0a8b8b01826149b6565b905088820151898b01528b820151614c388d8c01828051825260208082015190830152604090810151910152565b508187015160a08b8101919091526080830151878c01529091015189820360e08b015290614c6681836149b6565b995050509486019491860191600101614be5565b50505050890151878403603f190160e08901529450614c9b905082856149f1565b935085840381870152505050614cb18185614b42565b95945050505050565b60008060408385031215614ccd57600080fd5b50508035926020909101359150565b600060208284031215614cee57600080fd5b5035919050565b634e487b7160e01b600052602160045260246000fd5b60068110614d2957634e487b7160e01b600052602160045260246000fd5b9052565b81516001600160a01b031681526101c081016020830151602083015260408301516040830152606083015160608301526080830151608083015260a083015160a083015260c083015160c083015260e083015160e083015261010080840151818401525061012080840151818401525061014080840151818401525061016080840151818401525061018080840151614dc882850182614d0b565b50506101a08381015160ff811684830152613732565b600060208284031215614df057600080fd5b8135610bc28161471d565b6000602080830181845280855180835260408601915060408160051b870101925083870160005b82811015614e5057603f19888603018452614e3e8583516149b6565b94509285019290850190600101614e22565b5092979650505050505050565b600060208284031215614e6f57600080fd5b813565ffffffffffff81168114610bc257600080fd5b600060208284031215614e9757600080fd5b81356001600160401b0381168114610bc257600080fd5b6000806000806101608587031215614ec557600080fd5b8435935060208501359250614edd8660408701614802565b91506101408501356001600160401b03811115614ef957600080fd5b614f05878288016148c4565b91505092959194509250565b600060208284031215614f2357600080fd5b813563ffffffff81168114610bc257600080fd5b600060208284031215614f4957600080fd5b8151610bc2816147e4565b600060208284031215614f6657600080fd5b5051919050565b634e487b7160e01b600052601160045260246000fd5b600082821015614f9557614f95614f6d565b500390565b60008219821115614fad57614fad614f6d565b500190565b634e487b7160e01b600052603260045260246000fd5b600060018201614fda57614fda614f6d565b5060010190565b600082614ffe57634e487b7160e01b600052601260045260246000fd5b500490565b600081600019048311821515161561501d5761501d614f6d565b500290565b634e487b7160e01b600052600160045260246000fd5b600082601f83011261504957600080fd5b815160206150596148e5836148a1565b82815260059290921b8401810191818101908684111561507857600080fd5b8286015b84811015614924578051835291830191830161507c565b6000602082840312156150a557600080fd5b81516001600160401b038111156150bb57600080fd5b61403884828501615038565b6000602082840312156150d957600080fd5b8151610bc28161471d565b6001600160a01b038716815260208082018790526040820186905260608201859052608082018490526105a082019060a083018460005b60288110156151385781518352918301919083019060010161511b565b50505050979650505050505050565b6000825160005b81811015615168576020818601810151858301520161514e565b81811115615177576000828501525b509190910192915050565b80516101008084528151908401819052600091610120850191602091820190845b818110156151bf578251855293830193918301916001016151a3565b50505083810151908501526040808401518051828701526020810151606087015290810151608086015250606083015160a0850152608083015160c085015260a083015184820360e0860152614cb182826149b6565b600081518084526020808501808196508360051b8101915082860160005b85811015614a77578284038952815180518552858101518686015260408082015190860152606080820151908601526080808201519086015260a09081015160c091860182905290615287818701836149b6565b9a87019a9550505090840190600101615233565b600060c08301825184526020808401516152cb828701828051825260208082015190830152604090810151910152565b50604084015160c0608087015282815180855260e08801915060e08160051b8901019450838301925060005b818110156153255760df19898703018352615313868551615182565b955092840192918401916001016152f7565b5050505050606083015184820360a0860152614cb18282615215565b606081526000615354606083018661529b565b82810360208401526153668186615182565b9050828103604084015261537a8185615215565b9695505050505050565b60006060828403121561539657600080fd5b604051606081018181106001600160401b03821117156153b8576153b8614732565b80604052508091508251815260208301516020820152604083015160408201525092915050565b600061010082840312156153f257600080fd5b6153fa614748565b905081516001600160401b038082111561541357600080fd5b61541f85838601615038565b8352602084015160208401526154388560408601615384565b604084015260a0840151606084015260c0840151608084015260e084015191508082111561546557600080fd5b5061547284828501615038565b60a08301525092915050565b600082601f83011261548f57600080fd5b8151602061549f6148e5836148a1565b82815260059290921b840181019181810190868411156154be57600080fd5b8286015b848110156149245780516001600160401b03808211156154e25760008081fd5b9088019060c0828b03601f19018113156154fc5760008081fd5b615504614748565b87840151815260408085015189830152606080860151828401526080915081860151818401525060a080860151828401528386015193508484111561554b57600091508182fd5b6155598e8b86890101615038565b908301525086525050509183019183016154c2565b6000602080838503121561558157600080fd5b82516001600160401b038082111561559857600080fd5b9084019060c082870312156155ac57600080fd5b6155b4614770565b825181526155c487858501615384565b848201526080830151828111156155da57600080fd5b8301601f810188136155eb57600080fd5b80516155f96148e5826148a1565b81815260059190911b8201860190868101908a83111561561857600080fd5b8784015b83811015615650578051878111156156345760008081fd5b6156428d8b838901016153df565b84525091880191880161561c565b50604085015250505060a083015193508184111561566d57600080fd5b6156798785850161547e565b60608201529695505050505050565b60408152600061569b604083018561529b565b8281036020840152614cb1818561529b565b6060815260006153546060830186614b42565b600060208083850312156156d357600080fd5b82516001600160401b038111156156e957600080fd5b8301601f810185136156fa57600080fd5b80516157086148e5826148a1565b81815260069190911b8201830190838101908783111561572757600080fd5b928401925b8284101561576a57604084890312156157455760008081fd5b61574d614792565b84518152858501518682015282526040909301929084019061572c565b979650505050505050565b6040815260006157886040830185615215565b8281036020840152614cb18185615215565b6000602082840312156157ac57600080fd5b81516001600160401b038111156157c257600080fd5b6140388482850161547e565b600080604083850312156157e157600080fd5b505080516020909101519092909150565b60008060006060848603121561580757600080fd5b8351925060208401519150604084015190509250925092565b81518152602080830151610180830191615844908401826001600160a01b03169052565b5060408301516158576040840182614d0b565b50606083015161586c606084018260ff169052565b506080830151608083015260a083015161589160a08401826001600160401b03169052565b5060c08301516158ac60c08401826001600160401b03169052565b5060e08301516158c760e08401826001600160401b03169052565b50610100838101516001600160401b03908116918401919091526101208085015182169084015261014080850151821690840152610160808501519182168185015290613732565b6040815260006159226040830185615215565b90508260208301529392505050565b80518252602081015160208301526040810151604083015260006060820151608060608501526140386080850182615215565b60a08152600061597760a0830188615215565b866020840152828103604084015285518152602086015160208201526040860151604082015260608601511515606082015260808601511515608082015260a086015160a082015260c086015160e060c08301526159d860e08301826149b6565b91505082810360608401526159ed8186615931565b90508281036080840152615a018185615215565b98975050505050505050565b600080600060a08486031215615a2257600080fd5b83516001600160401b03811115615a3857600080fd5b615a448682870161547e565b93505060208401519150615a5b8560408601615384565b90509250925092565b602081526000610bc26020830184615215565b60008060808385031215615a8a57600080fd5b82519150615a9b8460208501615384565b90509250929050565b606081526000615ab76060830186615182565b60208301949094525060400152919050565b600060208284031215615adb57600080fd5b81516001600160401b03811115615af157600080fd5b614038848285016153df565b6040815260006159226040830185614b42565b608081526000615b236080830187615182565b8281036020840152615b358187615215565b9050846040840152828103606084015261576a8185615215565b60008060408385031215615b6257600080fd5b82516001600160401b0380821115615b7957600080fd5b615b85868387016153df565b93506020850151915080821115615b9b57600080fd5b50615ba88582860161547e565b9150509250929050565b600081615bc157615bc1614f6d565b506000190190565b8054825260018101546001600160a01b0381166020840152615bf46040840160ff8360a01c16614d0b565b60a81c60ff1660608301526002810154608083015260038101546001600160401b0380821660a0850152604082901c811660c0850152615c4460e08501828460801c166001600160401b03169052565b60c082901c61010085015260048301546001600160401b03828216166101208601529150615c836101408501828460401c166001600160401b03169052565b615c9e6101608501828460801c166001600160401b03169052565b50505050565b61018081016106f58284615bc9565b60006101a0808301615cc58487615bc9565b6101808401919091528351908190526101c083019060209081860160005b82811015614e5057815185529383019390830190600101615ce356fea26469706673582212200039d43e55d0187eabcaefc14060ff1b3b6dea251614d08508827c60fd1e21ed64736f6c634300080d0033",
  "bytecodeSha1": "34d8d25e8856fb87de24f206ceca6006f758bacf",
  "compiler": {
    "evm_version": "istanbul",
    "optimizer": {
      "enabled": true,
      "runs": 200
    },
    "version": "0.8.13+commit.abaa5c0e"
  },
  "contractName": "MarketSearch",
  "deployedBytecode": "608060405234801561001057600080fd5b50600436106101a95760003560e01c8063854ba99d116100f9578063ccbd163711610097578063e4b1614411610071578063e4b1614414610481578063e9f14ce614610494578063f2fde38b146104a7578063feab4454146104ba576101a9565b8063ccbd16371461043f578063ccc0795914610452578063d693585814610479576101a9565b8063af640d0f116100d3578063af640d0f146103e0578063b03fd40d14610406578063b9b3874514610419578063bd0ade2b1461042c576101a9565b8063854ba99d1461039d5780638da5cb5b146103a557806397962076146103d0576101a9565b80632203616d116101665780636b2b091a116101405780636b2b091a1461034c578063715018a61461036c57806372ea61bf146103745780637af6649a1461037c576101a9565b80632203616d146102d15780632f54bf6e146102f95780636296514114610321576101a9565b806301ffc9a71461022b57806305d6bd9c1461025357806309252f021461025b5780630a3550aa1461027d5780631ef4590d1461029e57806321603f43146102b1575b6101b16104e4565b60006101c16024600436846146c9565b8080601f016020809104026020016040519081016040528093929190818152602001838380828437600092018290525060208501519495509250503660231981019150601f19016004838037816024600437600080826000875af492505050610229816106ae565b005b61023e6102393660046146f3565b6106c4565b60405190151581526020015b60405180910390f35b6102296106fb565b61026e61026936600461492f565b610712565b60405161024a93929190614a84565b61029061028b366004614ac0565b61087b565b60405161024a929190614b7d565b61023e6102ac366004614cba565b610b38565b6102c46102bf366004614cdc565b610bc9565b60405161024a9190614d2d565b6102e46102df366004614cdc565b610bdc565b60405163ffffffff909116815260200161024a565b61023e610307366004614dde565b6000546201000090046001600160a01b0390811691161490565b61033461032f366004614cdc565b610bed565b6040516001600160401b03909116815260200161024a565b61035f61035a366004614cdc565b610c1f565b60405161024a9190614dfb565b610229611033565b610229611045565b61038f61038a366004614e5d565b61105f565b60405190815260200161024a565b61023e611078565b6000546201000090046001600160a01b03165b6040516001600160a01b03909116815260200161024a565b600054610100900460ff1661023e565b7fdcf6913c74762e0b3c7f94f504bb2be7445bbd8d11abee9960f04ebf85e7a7b261038f565b61038f610414366004614e85565b611096565b61029061042736600461492f565b6110b0565b61026e61043a366004614ac0565b6111f7565b61029061044d366004614eae565b61149c565b6103b87f000000000000000000000000000000000000000000000000000000000000000081565b610229611777565b61038f61048f366004614f11565b611793565b61026e6104a2366004614eae565b6117aa565b6102296104b5366004614dde565b611aa3565b6104cd6104c8366004614cdc565b611b1c565b60405165ffffffffffff909116815260200161024a565b6000546001600160a01b03620100009091041633148061059757506001600160a01b037f0000000000000000000000000000000000000000000000000000000000000000166316279055336040516001600160e01b031960e084901b1681526001600160a01b039091166004820152602401602060405180830381865afa158015610573573d6000803e3d6000fd5b505050506040513d601f19601f820116820180604052508101906105979190614f37565b8061063557506001600160a01b037f000000000000000000000000000000000000000000000000000000000000000016636d70f7ae336040516001600160e01b031960e084901b1681526001600160a01b039091166004820152602401602060405180830381865afa158015610611573d6000803e3d6000fd5b505050506040513d601f19601f820116820180604052508101906106359190614f37565b6106ac5760405162461bcd60e51b815260206004820152603960248201527f416c6c6f77616e63653a2063616c6c6572206d757374206265205265706f736960448201527f746f727920436f6e7472616374206f72204f70657261746f720000000000000060648201526084015b60405180910390fd5b565b3d6000803e8080156106bf573d6000f35b3d6000fd5b60006001600160e01b031982166301ffc9a760e01b14806106f557506001600160e01b031982166315d3789560e31b145b92915050565b6107036104e4565b6106ac6000805460ff19169055565b6060600061073a60405180606001604052806000815260200160008152602001600081525090565b6040516327bcdbc960e11b81526001600160a01b038a81166004830152602482018a9052610869917f000000000000000000000000000000000000000000000000000000000000000090911690634f79b79290604401602060405180830381865afa1580156107ad573d6000803e3d6000fd5b505050506040513d601f19601f820116820180604052508101906107d19190614f54565b6040516327bcdbc960e11b81526001600160a01b038a81166004830152602482018a90527f00000000000000000000000000000000000000000000000000000000000000001690634f79b79290604401602060405180830381865afa15801561083e573d6000803e3d6000fd5b505050506040513d601f19601f820116820180604052508101906108629190614f54565b87876117aa565b92509250925096509650969350505050565b6108836144fc565b60606000835b610894600882614f83565b8210156108d85785856108a8846008614f9a565b8181106108b7576108b7614fb2565b90506020020135600003156108d857816108d081614fc8565b925050610889565b6000826001600160401b038111156108f2576108f2614732565b60405190808252806020026020018201604052801561091b578160200160208202803683370190505b50905060005b8381101561097b578787610936836008614f9a565b81811061094557610945614fb2565b9050602002013582828151811061095e5761095e614fb2565b60209081029190910101528061097381614fc8565b915050610921565b50610b27896040518060e001604052808b81526020018a8a60008181106109a4576109a4614fb2565b9050602002013581526020018a8a60018181106109c3576109c3614fb2565b9050602002013581526020018a8a60028181106109e2576109e2614fb2565b9050602002013560001415151581526020018a8a6003818110610a0757610a07614fb2565b9050602002013560001415151581526020018a8a6007818110610a2c57610a2c614fb2565b9050602002013581526020018481525060405180608001604052808b8b6005818110610a5a57610a5a614fb2565b9050602002013581526020018b8b6006818110610a7957610a79614fb2565b9050602002013581526020018b8b6004818110610a9857610a98614fb2565b60209081029290920135835250016000604051908082528060200260200182016040528015610ae157816020015b610ace614546565b815260200190600190039081610ac65790505b5090526040805160008082526020820190925290610b21565b6040805180820190915260008082526020820152815260200190600190039081610afa5790505b50611b2d565b945094505050505b94509492505050565b6000828152600160205260408082209051632be5db2360e11b815260048101919091526024810183905273__$f71e59c5327218924d154e230469c101bd$__906357cbb64690604401602060405180830381865af4158015610b9e573d6000803e3d6000fd5b505050506040513d601f19601f82011682018060405250810190610bc29190614f37565b9392505050565b610bd161457f565b6106f582600061255d565b60006106f564e8d4a5100083614fe1565b600080610bff6402540be40084614fe1565b905082610c11826402540be400615003565b11156106f5576106f5615022565b6000818152600160209081526040808320805482518185028101850190935280835260609493830182828015610c7457602002820191906000526020600020905b815481526020019060010190808311610c60575b5050505050905080516001600160401b03811115610c9457610c94614732565b604051908082528060200260200182016040528015610cc757816020015b6060815260200190600190039081610cb25790505b5091506000805b8251811015610fe0577f00000000000000000000000000000000000000000000000000000000000000006001600160a01b03166338a699a4848381518110610d1857610d18614fb2565b60200260200101516040518263ffffffff1660e01b8152600401610d3e91815260200190565b602060405180830381865afa158015610d5b573d6000803e3d6000fd5b505050506040513d601f19601f82011682018060405250810190610d7f9190614f37565b15610fce5760007f00000000000000000000000000000000000000000000000000000000000000006001600160a01b03166327ee9dc2858481518110610dc757610dc7614fb2565b60200260200101516040518263ffffffff1660e01b8152600401610ded91815260200190565b600060405180830381865afa158015610e0a573d6000803e3d6000fd5b505050506040513d6000823e601f3d908101601f19168201604052610e329190810190615093565b90506000815111610e7f5760405162461bcd60e51b815260206004820152601760248201527605f706174684c69737420706174682e6c656e6774683e3604c1b60448201526064016106a3565b60005b60018251610e909190614f83565b811015610f8657610f6f73__$669c6e0eba2465bd6779ea6ec5db3af1b5$__6376254ff9848481518110610ec657610ec6614fb2565b602002602001015185856001610edc9190614f9a565b81518110610eec57610eec614fb2565b60200260200101516040518363ffffffff1660e01b8152600401610f1a929190918252602082015260400190565b602060405180830381865af4158015610f37573d6000803e3d6000fd5b505050506040513d601f19601f82011682018060405250810190610f5b9190614f54565b600090815260066020526040902054151590565b15610f865780610f7e81614fc8565b915050610e82565b60018251610f949190614f83565b811015610fa2575050610fce565b818685610fae81614fc8565b965081518110610fc057610fc0614fb2565b602002602001018190525050505b80610fd881614fc8565b915050610cce565b508083526000811161102c5760405162461bcd60e51b815260206004820152601560248201527405f6c6973745061746846726f6d20636f756e743e3605c1b60448201526064016106a3565b5050919050565b61103b612cca565b6106ac6000612d2b565b61104d6104e4565b6106ac6000805460ff19166001179055565b60006106f565ffffffffffff831664174876e800615003565b6000805460ff16806110915750600054610100900460ff165b905090565b60006106f56001600160401b0383166402540be400615003565b6110b86144fc565b6040516327bcdbc960e11b81526001600160a01b038881166004830152602482018890526060916111e8917f00000000000000000000000000000000000000000000000000000000000000001690634f79b79290604401602060405180830381865afa15801561112c573d6000803e3d6000fd5b505050506040513d601f19601f820116820180604052508101906111509190614f54565b6040516327bcdbc960e11b81526001600160a01b038981166004830152602482018990527f00000000000000000000000000000000000000000000000000000000000000001690634f79b79290604401602060405180830381865afa1580156111bd573d6000803e3d6000fd5b505050506040513d601f19601f820116820180604052508101906111e19190614f54565b868661149c565b91509150965096945050505050565b6060600061121f60405180606001604052806000815260200160008152602001600081525090565b60008061122d600887614f83565b90505b80821015611275578686611245846008614f9a565b81811061125457611254614fb2565b9050602002013560000315611275578161126d81614fc8565b925050611230565b6000826001600160401b0381111561128f5761128f614732565b6040519080825280602002602001820160405280156112b8578160200160208202803683370190505b50905060005b838110156113185788886112d3836008614f9a565b8181106112e2576112e2614fb2565b905060200201358282815181106112fb576112fb614fb2565b60209081029190910101528061131081614fc8565b9150506112be565b506114888a6040518060e001604052808c81526020018b8b600081811061134157611341614fb2565b9050602002013581526020018b8b600181811061136057611360614fb2565b9050602002013581526020018b8b600281811061137f5761137f614fb2565b9050602002013560001415151581526020018b8b60038181106113a4576113a4614fb2565b9050602002013560001415151581526020018b8b60078181106113c9576113c9614fb2565b9050602002013581526020018481525060405180608001604052808c8c60058181106113f7576113f7614fb2565b9050602002013581526020018c8c600681811061141657611416614fb2565b9050602002013581526020018c8c600481811061143557611435614fb2565b6020908102929092013583525001600060405190808252806020026020018201604052801561147e57816020015b61146b614546565b8152602001906001900390816114635790505b5090526000612d86565b9550955095505050505b9450945094915050565b6114a46144fc565b815160609060208111156114fa5760405162461bcd60e51b815260206004820152601d60248201527f64656c6976657279206172726179206d61782073697a6520697320333200000060448201526064016106a3565b61150261460e565b85518152602080870151908201526040860151611520576000611523565b60015b60ff166040820152606086015161153b57600061153e565b60015b60ff1660608201526080868101519082015260a0808701519082015260c0808701519082015260e08087015190820152600860005b838110156115ec5786818151811061158d5761158d614fb2565b60200260200101516000146115da578681815181106115ae576115ae614fb2565b60200260200101518383806115c290614fc8565b9450602881106115d4576115d4614fb2565b60200201525b806115e481614fc8565b915050611573565b505060405163023aa9ab60e61b81527f2e7a327ef83c2af7579c6634f2f5604519800c5f07626f27bd602fd11ed8e6ec60048201526000907f00000000000000000000000000000000000000000000000000000000000000006001600160a01b031690638eaa6ac090602401602060405180830381865afa158015611675573d6000803e3d6000fd5b505050506040513d601f19601f8201168201806040525081019061169991906150c7565b6001600160a01b03167f0a3550aabeea45f9d515c45ea5dadcd6efbe5a3c73ab07644f630de564c6515a308b8b60606028886040516024016116e0969594939291906150e4565b60408051601f198184030181529181526020820180516001600160e01b03166001600160e01b031990941693909317909252905161171e9190615147565b600060405180830381855afa9150503d8060008114611759576040519150601f19603f3d011682016040523d82523d6000602084013e61175e565b606091505b5050905061176b816106ae565b50505094509492505050565b61177f612cca565b6106ac6000805461ff001916610100179055565b60006106f563ffffffff831664e8d4a51000615003565b606060006117d260405180606001604052806000815260200160008152602001600081525090565b835160208111156118255760405162461bcd60e51b815260206004820152601d60248201527f64656c6976657279206172726179206d61782073697a6520697320333200000060448201526064016106a3565b61182d61460e565b8651815260208088015190820152604087015161184b57600061184e565b60015b60ff1660408201526060870151611866576000611869565b60015b60ff1660608201526080878101519082015260a0808801519082015260c0808801519082015260e08088015190820152600860005b83811015611917578781815181106118b8576118b8614fb2565b6020026020010151600014611905578781815181106118d9576118d9614fb2565b60200260200101518383806118ed90614fc8565b9450602881106118ff576118ff614fb2565b60200201525b8061190f81614fc8565b91505061189e565b505060405163023aa9ab60e61b81527f2e7a327ef83c2af7579c6634f2f5604519800c5f07626f27bd602fd11ed8e6ec60048201526000907f00000000000000000000000000000000000000000000000000000000000000006001600160a01b031690638eaa6ac090602401602060405180830381865afa1580156119a0573d6000803e3d6000fd5b505050506040513d601f19601f820116820180604052508101906119c491906150c7565b6001600160a01b03167fbd0ade2bcae368fca26bb02146561a2830136bf30c4a34c648255fccebbe2254308c8c6060602888604051602401611a0b969594939291906150e4565b60408051601f198184030181529181526020820180516001600160e01b03166001600160e01b0319909416939093179092529051611a499190615147565b600060405180830381855afa9150503d8060008114611a84576040519150601f19603f3d011682016040523d82523d6000602084013e611a89565b606091505b50509050611a96816106ae565b5050509450945094915050565b611aab612cca565b6001600160a01b038116611b105760405162461bcd60e51b815260206004820152602660248201527f4f776e61626c653a206e6577206f776e657220697320746865207a65726f206160448201526564647265737360d01b60648201526084016106a3565b611b1981612d2b565b50565b60006106f564174876e80083614fe1565b611b356144fc565b81611b3e6144fc565b6000611b4e88886000015161334e565b805190915060005b81811015611cfd57611b6661462d565b611bf2848381518110611b7b57611b7b614fb2565b60200260200101516002868581518110611b9757611b97614fb2565b602002602001015151611baa9190614f83565b81518110611bba57611bba614fb2565b60200260200101518b60405180608001604052806000815260200160008152602001600081526020018d606001518152506000612d86565b6040840152602083018190526000039050611c0d5750611ceb565b838281518110611c1f57611c1f614fb2565b6020908102919091010151815273__$2fc864095126d4d9b433a37f83d02318c7$__637513ce1b86836000604051908082528060200260200182016040528015611c8357816020015b611c70614546565b815260200190600190039081611c685790505b506040518463ffffffff1660e01b8152600401611ca293929190615341565b600060405180830381865af4158015611cbf573d6000803e3d6000fd5b505050506040513d6000823e601f3d908101601f19168201604052611ce7919081019061556e565b9450505b80611cf581614fc8565b915050611b56565b5050506040810151516000819003611d16575050610b2f565b611d1e614685565b87518152602080890151818301526040808a0151818401526060808b01511515818501526080808c015115158186015260a0808d01519086015260c0808d0151908601528251908101835260008082528185018181528285018281528385018581528e518552968e0151909152938c0151909352908a0151909252836001600160401b03811115611db157611db1614732565b604051908082528060200260200182016040528015611dea57816020015b611dd76144fc565b815260200190600190039081611dcf5790505b50905060005b89518352600160a085015260005b85811015611eef57611e3387604001518281518110611e1f57611e1f614fb2565b60200260200101516000015186868b61373a565b838281518110611e4557611e45614fb2565b60200260200101819052506001838281518110611e6457611e64614fb2565b602002602001015160400151511115611edd5760405162461bcd60e51b815260206004820152603560248201527f504152414e4f4941205f5f73656172636843466f6c6c6f77506174682073686f604482015274756c642072657475726e206d61782031206465736360581b60648201526084016106a3565b80611ee781614fc8565b915050611dfe565b50600019600080805b8881101561204b57858181518110611f1257611f12614fb2565b6020026020010151600001516000031561203957600019841480611f565750858181518110611f4357611f43614fb2565b6020026020010151602001516000015183115b15611feb576000198414158015611f8d5750858181518110611f7a57611f7a614fb2565b6020026020010151602001516040015183105b15611f9a57829150611fbf565b858181518110611fac57611fac614fb2565b6020026020010151602001516040015191505b809350858181518110611fd457611fd4614fb2565b602002602001015160200151600001519250612039565b858181518110611ffd57611ffd614fb2565b602002602001015160200151600001518211156120395785818151811061202657612026614fb2565b6020026020010151602001516000015191505b8061204381614fc8565b915050611ef8565b50600019830361205d5750505061254e565b8552506120686144fc565b6120958860400151838151811061208157612081614fb2565b60200260200101516000015187878c61373a565b90508060400151516001146121065760405162461bcd60e51b815260206004820152603160248201527f504152414e4f4941205f5f73656172636843466f6c6c6f77506174682073686f604482015270756c642072657475726e2031206465736360781b60648201526084016106a3565b805160000361214f5760405162461bcd60e51b81526020600482015260156024820152746966202873656c65637465642e717479203d3d302960581b60448201526064016106a3565b604051639fab220f60e01b815273__$2fc864095126d4d9b433a37f83d02318c7$__90639fab220f90612188908d908590600401615688565b600060405180830381865af41580156121a5573d6000803e3d6000fd5b505050506040513d6000823e601f3d908101601f191682016040526121cd919081019061556e565b9950806060015151836121e09190614f9a565b925080604001516000815181106121f9576121f9614fb2565b602002602001015160a001515160001461228657806040015160008151811061222457612224614fb2565b602002602001015160a001516001826040015160008151811061224957612249614fb2565b602002602001015160a00151516122609190614f83565b8151811061227057612270614fb2565b6020026020010151836122839190614f83565b92505b8873__$2fc864095126d4d9b433a37f83d02318c7$__637071133e909183604001516000815181106122ba576122ba614fb2565b602002602001015184606001516040518463ffffffff1660e01b81526004016122e5939291906156ad565b600060405180830381865af4158015612302573d6000803e3d6000fd5b505050506040513d6000823e601f3d908101601f1916820160405261232a91908101906156c0565b6060808701519083015160405163bf07928f60e01b8152929b5073__$2fc864095126d4d9b433a37f83d02318c7$__9263bf07928f9261236e929091600401615775565b600060405180830381865af415801561238b573d6000803e3d6000fd5b505050506040513d6000823e601f3d908101601f191682016040526123b3919081019061579a565b60608601528b51855260a08d01511561242f578c60a0015183106124195760405162461bcd60e51b815260206004820152601f60248201527f696620286d6178636f756e743e3d7461726765745f2e6d6178636f756e74290060448201526064016106a3565b828d60a001516124299190614f83565b60a08701525b60408d0151156124a45760408d015181511061248d5760405162461bcd60e51b815260206004820152601e60248201527f6966202873656c65637465642e7174793e3d7461726765745f2e71747929000060448201526064016106a3565b805160408e015161249e9190614f83565b60408701525b60408c015115612547576000670de0b6b3a76400008b60200151602001518c600001516124d19190615003565b6124db9190614fe1565b90508c6040015181106125305760405162461bcd60e51b815260206004820152601f60248201527f69662028746f74616c3e3d7365617263686172675f2e6d6178746f74616c290060448201526064016106a3565b808d604001516125409190614f83565b6040870152505b5050611df0565b50505050505094509492505050565b61256561457f565b60008381526005602081815260408084208151610180810183528154815260018201546001600160a01b0381169482019490945293909291840191600160a01b900460ff16908111156125ba576125ba614cf5565b60058111156125cb576125cb614cf5565b81526001820154600160a81b900460ff166020820152600282015460408083019190915260038301546001600160401b0380821660608501526801000000000000000080830482166080860152600160801b808404831660a0870152600160c01b909304821660c086015260049586015480831660e087015290810482166101008601529190910416610120909201919091528251905163657c7e0960e01b8152918201529091507f00000000000000000000000000000000000000000000000000000000000000006001600160a01b03169063657c7e09906024016040805180830381865afa1580156126c3573d6000803e3d6000fd5b505050506040513d601f19601f820116820180604052508101906126e791906157ce565b60408401526020830152608081015160608301528280612780575060608101516040516336181b6760e11b815260ff909116600482015273__$f7122df39a5f3bad28f404771cd5173291$__90636c3036ce90602401602060405180830381865af415801561275a573d6000803e3d6000fd5b505050506040513d601f19601f8201168201806040525081019061277e9190614f37565b155b15612c075760208101516001600160a01b0316825260a08101516127a390611096565b60808301526060810151604051632b2076e360e11b815260ff909116600482015273__$f7122df39a5f3bad28f404771cd5173291$__90635640edc690602401602060405180830381865af4158015612800573d6000803e3d6000fd5b505050506040513d601f19601f820116820180604052508101906128249190614f37565b1561283857608082015160a0830152612984565b6101208101516001600160401b0316156128645761285a816101200151611096565b60a0830152612984565b60405163023aa9ab60e61b81527fcd775f2396f9f13f12bcf8ca32e21df66559a8adc3944d0591127e7731f7ab8560048201527f00000000000000000000000000000000000000000000000000000000000000006001600160a01b031690638eaa6ac090602401602060405180830381865afa1580156128e8573d6000803e3d6000fd5b505050506040513d601f19601f8201168201806040525081019061290c91906150c7565b6001600160a01b031663a9bf985883602001516040518263ffffffff1660e01b815260040161293d91815260200190565b602060405180830381865afa15801561295a573d6000803e3d6000fd5b505050506040513d601f19601f8201168201806040525081019061297e9190614f54565b60a08301525b6129918160c00151611096565b60c083015260e08101516129a490611096565b60e08301526060810151604051635b7d0f6960e11b815260ff909116600482015273__$f7122df39a5f3bad28f404771cd5173291$__9063b6fa1ed290602401602060405180830381865af4158015612a01573d6000803e3d6000fd5b505050506040513d601f19601f82011682018060405250810190612a259190614f37565b15612bf257612a38816101400151611096565b610120830152610160810151612a4d90611096565b61014083015260405163023aa9ab60e61b81527f3cb99135f7a7c088d9085b446345038a22a85f4e8fe072b0e1b66d97243e745860048201526000907f00000000000000000000000000000000000000000000000000000000000000006001600160a01b031690638eaa6ac090602401602060405180830381865afa158015612ada573d6000803e3d6000fd5b505050506040513d601f19601f82011682018060405250810190612afe91906150c7565b6001600160a01b0316636464b68a846020015185604001516040518363ffffffff1660e01b8152600401612b3c929190918252602082015260400190565b606060405180830381865afa158015612b59573d6000803e3d6000fd5b505050506040513d601f19601f82011682018060405250810190612b7d91906157f2565b509150506000819003612bc65760405162461bcd60e51b8152602060048201526011602482015270145d5bdd194e88139bdd081c5d5bdd1959607a1b60448201526064016106a3565b610140830151612bd69082614fe1565b836101200151612be69190615003565b61010084015250612c07565b612c00816101000151611096565b6101008301525b604051630212d6cb60e21b815273__$f7122df39a5f3bad28f404771cd5173291$__9063084b5b2c90612c3e908490600401615820565b602060405180830381865af4158015612c5b573d6000803e3d6000fd5b505050506040513d601f19601f82011682018060405250810190612c7f9190614f54565b61016083015260408101516101808301906005811115612ca157612ca1614cf5565b90816005811115612cb457612cb4614cf5565b9052506060015160ff166101a082015292915050565b6000546001600160a01b03620100009091041633146106ac5760405162461bcd60e51b815260206004820152601f60248201527f416c6c6f77616e63653a2063616c6c6572206d757374206265204f776e65720060448201526064016106a3565b600080546001600160a01b038381166201000081810262010000600160b01b0319851617855560405193049190911692909183917f8be0079c531659141344cd1fd0a4f28419497f9722a3daafe3b4186f6b6457e091a35050565b60606000612dae60405180606001604052806000815260200160008152602001600081525090565b612dc48787600001518860c00151600080614040565b80519093506000816001600160401b03811115612de357612de3614732565b604051908082528060200260200182016040528015612e1c57816020015b612e09614546565b815260200190600190039081612e015790505b5090506000805b83811015613150578960000151878281518110612e4257612e42614fb2565b60200260200101516020015114612ead5760405162461bcd60e51b815260206004820152602960248201527f5f5f736561726368206f75745f5b695d2e61646472203d3d207461726765745f6044820152682e63757272656e637960b81b60648201526084016106a3565b885115801590612edd57508860000151878281518110612ecf57612ecf614fb2565b602002602001015160800151115b61313e578960200151878281518110612ef857612ef8614fb2565b6020026020010151606001511061313e57886060015173__$2fc864095126d4d9b433a37f83d02318c7$__635640453d9091898481518110612f3c57612f3c614fb2565b6020026020010151600001516040518363ffffffff1660e01b8152600401612f6592919061590f565b602060405180830381865af4158015612f82573d6000803e3d6000fd5b505050506040513d601f19601f82011682018060405250810190612fa69190614f54565b878281518110612fb857612fb8614fb2565b6020026020010151604001511061313e57868181518110612fdb57612fdb614fb2565b602002602001015160600151896060015173__$2fc864095126d4d9b433a37f83d02318c7$__635640453d90918a858151811061301a5761301a614fb2565b6020026020010151600001516040518363ffffffff1660e01b815260040161304392919061590f565b602060405180830381865af4158015613060573d6000803e3d6000fd5b505050506040513d601f19601f820116820180604052508101906130849190614f54565b88838151811061309657613096614fb2565b6020026020010151604001516130ac9190614f83565b1061313e578960a0015160011480156130c85750602089015115155b80156130f4575088602001518782815181106130e6576130e6614fb2565b602002602001015160800151115b61313e5786818151811061310a5761310a614fb2565b602002602001015183838151811061312457613124614fb2565b6020026020010181905250818061313a90614fc8565b9250505b8061314881614fc8565b915050612e23565b508152935073__$ac5a5ff32855f20cc1672b31a3944a092c$__905063b51b8e828460008989826040519080825280602002602001820160405280156131b057816020015b61319d614546565b8152602001906001900390816131955790505b506040518663ffffffff1660e01b81526004016131d1959493929190615964565b600060405180830381865af41580156131ee573d6000803e3d6000fd5b505050506040513d6000823e601f3d908101601f191682016040526132169190810190615a0d565b919450925090508361149257604051637bf5cddb60e11b815273__$2fc864095126d4d9b433a37f83d02318c7$__9063f7eb9bb690613259908690600401615a64565b600060405180830381865af4158015613276573d6000803e3d6000fd5b505050506040513d6000823e601f3d908101601f1916820160405261329e919081019061579a565b92508560a001516000141580156132b957508560a001518351115b156114925760a086015180845260405163742228d760e01b815273__$2fc864095126d4d9b433a37f83d02318c7$__9063742228d7906132fd908790600401615a64565b608060405180830381865af415801561331a573d6000803e3d6000fd5b505050506040513d601f19601f8201168201806040525081019061333e9190615a77565b9093509150509450945094915050565b60008281526001602090815260408083208054825181850281018501909352808352606094938301828280156133a357602002820191906000526020600020905b81548152602001906001019080831161338f575b5050505050905060008151116133fb5760405162461bcd60e51b815260206004820152601b60248201527f5f706174684c6973742066726f6d706174682e6c656e6774683e30000000000060448201526064016106a3565b80516001600160401b0381111561341457613414614732565b60405190808252806020026020018201604052801561344757816020015b60608152602001906001900390816134325790505b5091506000805b82518110156136ea577f00000000000000000000000000000000000000000000000000000000000000006001600160a01b03166338a699a484838151811061349857613498614fb2565b60200260200101516040518263ffffffff1660e01b81526004016134be91815260200190565b602060405180830381865afa1580156134db573d6000803e3d6000fd5b505050506040513d601f19601f820116820180604052508101906134ff9190614f37565b156136d85760007f00000000000000000000000000000000000000000000000000000000000000006001600160a01b03166327ee9dc285848151811061354757613547614fb2565b60200260200101516040518263ffffffff1660e01b815260040161356d91815260200190565b600060405180830381865afa15801561358a573d6000803e3d6000fd5b505050506040513d6000823e601f3d908101601f191682016040526135b29190810190615093565b905060008151116135ff5760405162461bcd60e51b815260206004820152601760248201527605f706174684c69737420706174682e6c656e6774683e3604c1b60448201526064016106a3565b85816001835161360f9190614f83565b8151811061361f5761361f614fb2565b60200260200101511461363257506136d8565b60005b600182516136439190614f83565b8110156136905761367973__$669c6e0eba2465bd6779ea6ec5db3af1b5$__6376254ff9848481518110610ec657610ec6614fb2565b15613690578061368881614fc8565b915050613635565b6001825161369e9190614f83565b8110156136ac5750506136d8565b8186856136b881614fc8565b9650815181106136ca576136ca614fb2565b602002602001018190525050505b806136e281614fc8565b91505061344e565b50808352600081116137325760405162461bcd60e51b815260206004820152601160248201527005f706174684c69737420636f756e743e3607c1b60448201526064016106a3565b505092915050565b6137426144fc565b6002855110156137a05760405162461bcd60e51b815260206004820152602360248201527f5f5f73656172636843466f6c6c6f775061746820706174685f2e6c656e6774686044820152621f1e9960e91b60648201526084016106a3565b8351855186906137b290600190614f83565b815181106137c2576137c2614fb2565b60200260200101511461383d5760405162461bcd60e51b815260206004820152603d60248201527f5f5f73656172636843466f6c6c6f775061746820706174685f5b706174685f2e60448201527f6c656e677468202d20315d3d3d7461726765745f2e63757272656e637900000060648201526084016106a3565b606061384761462d565b865160020361394c5761388387600289516138629190614f83565b8151811061387257613872614fb2565b602002602001015187876000612d86565b6040840152602083015280516080830152875190925073__$2fc864095126d4d9b433a37f83d02318c7$__90632fbf1f939083908a906138c590600290614f83565b815181106138d5576138d5614fb2565b602002602001015189600001516040518463ffffffff1660e01b815260040161390093929190615aa4565b600060405180830381865af415801561391d573d6000803e3d6000fd5b505050506040513d6000823e601f3d908101601f191682016040526139459190810190615ac9565b9050613fb3565b604085015160015b600189516139629190614f83565b811015613b23576000613a578a61397a600185614f83565b8151811061398a5761398a614fb2565b60200260200101516040518060e001604052808d86815181106139af576139af614fb2565b6020026020010151815260200160008152602001600081526020016000151581526020016000151581526020016000815260200160006001600160401b038111156139fc576139fc614732565b604051908082528060200260200182016040528015613a25578160200160208202803683370190505b50815250604051806080016040528060008152602001600081526020018781526020018c606001518152506001612d86565b509150506000819003613a6e575050505050614038565b8673__$2fc864095126d4d9b433a37f83d02318c7$__63e23edbef90918c8581518110613a9d57613a9d614fb2565b60200260200101516040518363ffffffff1660e01b8152600401613ac2929190615afd565b602060405180830381865af4158015613adf573d6000803e3d6000fd5b505050506040513d601f19601f82011682018060405250810190613b039190614f54565b613b0d9082614f9a565b9250508080613b1b90614fc8565b915050613954565b50613b7d8860028a51613b369190614f83565b81518110613b4657613b46614fb2565b602002602001015188604051806080016040528060008152602001600081526020018581526020018a606001518152506000612d86565b604085015260208401819052909350600003613b9b57505050614038565b82516080830152875173__$2fc864095126d4d9b433a37f83d02318c7$__90632fbf1f939084908b90613bd090600290614f83565b81518110613be057613be0614fb2565b60200260200101518a600001516040518463ffffffff1660e01b8152600401613c0b93929190615aa4565b600060405180830381865af4158015613c28573d6000803e3d6000fd5b505050506040513d6000823e601f3d908101601f19168201604052613c509190810190615ac9565b9150670de0b6b3a76400008260400151602001518360200151613c739190615003565b613c7d9190614fe1565b9050600060028951613c8f9190614f83565b90505b8015613fb0576060613ca261462d565b613caa614685565b613cd56040518060800160405280600081526020016000815260200160008152602001606081525090565b8c8581518110613ce757613ce7614fb2565b60200260200101518260000181815250508973__$2fc864095126d4d9b433a37f83d02318c7$__63e23edbef90918f8881518110613d2757613d27614fb2565b60200260200101516040518363ffffffff1660e01b8152600401613d4c929190615afd565b602060405180830381865af4158015613d69573d6000803e3d6000fd5b505050506040513d601f19601f82011682018060405250810190613d8d9190614f54565b613d979087614f83565b6040830152600160608084018290528c81015190830152613ddf908e90613dbe9088614f83565b81518110613dce57613dce614fb2565b602002602001015183836000612d86565b6040860152602085018190529094506000039150613e04905057505050505050614038565b670de0b6b3a76400008160400151602001518260200151613e259190615003565b613e2f9190614fe1565b935073__$2fc864095126d4d9b433a37f83d02318c7$__6350308ede86888e613e59600189614f83565b81518110613e6957613e69614fb2565b6020026020010151866040518563ffffffff1660e01b8152600401613e919493929190615b10565b600060405180830381865af4158015613eae573d6000803e3d6000fd5b505050506040513d6000823e601f3d908101601f19168201604052613ed69190810190615b4f565b604080840151519083015151919850919650670de0b6b3a764000091613efb91615003565b613f059190614fe1565b60408087018051929092528281015181015191510151670de0b6b3a764000091613f2e91615003565b613f389190614fe1565b85604001516040018181525050670de0b6b3a764000085602001518260400151602001518360200151613f6b9190615003565b613f759190614fe1565b866040015160200151613f889190615003565b613f929190614fe1565b60408601516020015250819050613fa881615bb2565b915050613c92565b50505b604051637513ce1b60e01b815273__$2fc864095126d4d9b433a37f83d02318c7$__90637513ce1b90613fee90869085908790600401615341565b600060405180830381865af415801561400b573d6000803e3d6000fd5b505050506040513d6000823e601f3d908101601f19168201604052614033919081019061556e565b925050505b949350505050565b606060008060006006600073__$669c6e0eba2465bd6779ea6ec5db3af1b5$__6376254ff98c8c6040518363ffffffff1660e01b815260040161408d929190918252602082015260400190565b602060405180830381865af41580156140aa573d6000803e3d6000fd5b505050506040513d601f19601f820116820180604052508101906140ce9190614f54565b81526020019081526020016000209050600081805490509050856000036140f3578095505b856001600160401b0381111561410b5761410b614732565b60405190808252806020026020018201604052801561414457816020015b614131614546565b8152602001906001900390816141295790505b50945060005b818110156144ed57868410156144ed5760006005600085848154811061417257614172614fb2565b90600052602060002001548152602001908152602001600020905073__$f7122df39a5f3bad28f404771cd5173291$__63084b5b2c826040518263ffffffff1660e01b81526004016141c49190615ca4565b602060405180830381865af41580156141e1573d6000803e3d6000fd5b505050506040513d601f19601f820116820180604052508101906142059190614f54565b15806142895750604051630212d6cb60e21b8152429073__$f7122df39a5f3bad28f404771cd5173291$__9063084b5b2c90614245908590600401615ca4565b602060405180830381865af4158015614262573d6000803e3d6000fd5b505050506040513d601f19601f820116820180604052508101906142869190614f54565b10155b80156143a6575060405163023aa9ab60e61b81527f33ffbdff3a4282df4353f3593b78d26aaf4c28b5786164f828858505bc5e301c60048201527f00000000000000000000000000000000000000000000000000000000000000006001600160a01b031690638eaa6ac090602401602060405180830381865afa158015614314573d6000803e3d6000fd5b505050506040513d601f19601f8201168201806040525081019061433891906150c7565b6001600160a01b0316635aca1641828c6040518363ffffffff1660e01b8152600401614365929190615cb3565b602060405180830381865afa158015614382573d6000803e3d6000fd5b505050506040513d601f19601f820116820180604052508101906143a69190614f37565b156144d957856143b581614fc8565b9650508886116143c557506144db565b60006143ee8584815481106143dc576143dc614fb2565b9060005260206000200154600161255d565b90508060a00151816080015110156144075750506144db565b806060015188878151811061441e5761441e614fb2565b60200260200101516000018181525050806040015188878151811061444557614445614fb2565b602002602001015160200181815250508060a0015188878151811061446c5761446c614fb2565b60200260200101516060018181525050806080015188878151811061449357614493614fb2565b602002602001015160400181815250508061010001518887815181106144bb576144bb614fb2565b602090810291909101015160800152856144d481614fc8565b965050505b505b806144e581614fc8565b91505061414a565b50505082525095945050505050565b60405180608001604052806000815260200161453260405180606001604052806000815260200160008152602001600081525090565b815260200160608152602001606081525090565b6040518060c001604052806000815260200160008019168152602001600081526020016000815260200160008152602001606081525090565b604051806101c0016040528060006001600160a01b0316815260200160008019168152602001600080191681526020016000815260200160008152602001600081526020016000815260200160008152602001600081526020016000815260200160008152602001600081526020016000600581111561460157614601614cf5565b8152600060209091015290565b6040518061050001604052806028906020820280368337509192915050565b6040518060c00160405280606081526020016000815260200161466a60405180606001604052806000815260200160008152602001600081525090565b81526020016000815260200160008152602001606081525090565b6040518060e0016040528060008019168152602001600081526020016000815260200160001515815260200160001515815260200160008152602001606081525090565b600080858511156146d957600080fd5b838611156146e657600080fd5b5050820193919092039150565b60006020828403121561470557600080fd5b81356001600160e01b031981168114610bc257600080fd5b6001600160a01b0381168114611b1957600080fd5b634e487b7160e01b600052604160045260246000fd5b60405160c081016001600160401b038111828210171561476a5761476a614732565b60405290565b604051608081016001600160401b038111828210171561476a5761476a614732565b604080519081016001600160401b038111828210171561476a5761476a614732565b604051601f8201601f191681016001600160401b03811182821017156147dc576147dc614732565b604052919050565b8015158114611b1957600080fd5b80356147fd816147e4565b919050565b600061010080838503121561481657600080fd5b604051908101906001600160401b038211818310171561483857614838614732565b6040918252833581526020808501359082015291508201358161485a826147e4565b81604082015261486c606085016147f2565b60608201526080840135608082015260a084013560a082015260c084013560c082015260e084013560e0820152505092915050565b60006001600160401b038211156148ba576148ba614732565b5060051b60200190565b600082601f8301126148d557600080fd5b813560206148ea6148e5836148a1565b6147b4565b82815260059290921b8401810191818101908684111561490957600080fd5b8286015b84811015614924578035835291830191830161490d565b509695505050505050565b6000806000806000806101a0878903121561494957600080fd5b86356149548161471d565b955060208701359450604087013561496b8161471d565b9350606087013592506149818860808901614802565b91506101808701356001600160401b0381111561499d57600080fd5b6149a989828a016148c4565b9150509295509295509295565b600081518084526020808501945080840160005b838110156149e6578151875295820195908201906001016149ca565b509495945050505050565b600081518084526020808501808196508360051b8101915082860160005b85811015614a77578284038952815180518552858101518686015260408082015190860152606080820151908601526080808201519086015260a09081015160c091860182905290614a63818701836149b6565b9a87019a9550505090840190600101614a0f565b5091979650505050505050565b60a081526000614a9760a08301866149f1565b905083602083015261403860408301848051825260208082015190830152604090810151910152565b60008060008060608587031215614ad657600080fd5b843593506020850135925060408501356001600160401b0380821115614afb57600080fd5b818701915087601f830112614b0f57600080fd5b813581811115614b1e57600080fd5b8860208260051b8501011115614b3357600080fd5b95989497505060200194505050565b600081518084526020808501945080840160005b838110156149e6578151805188528301518388015260409096019590820190600101614b56565b600060408083526101008084018651838601526020808801516060614bb8818901838051825260208082015190830152604090810151910152565b858a015160c0898101819052815195869052610120600587901b8b0181019692860194509091908a019060005b81811015614c7a578b880361011f19018352855180518a8a52614c0a8b8b01826149b6565b905088820151898b01528b820151614c388d8c01828051825260208082015190830152604090810151910152565b508187015160a08b8101919091526080830151878c01529091015189820360e08b015290614c6681836149b6565b995050509486019491860191600101614be5565b50505050890151878403603f190160e08901529450614c9b905082856149f1565b935085840381870152505050614cb18185614b42565b95945050505050565b60008060408385031215614ccd57600080fd5b50508035926020909101359150565b600060208284031215614cee57600080fd5b5035919050565b634e487b7160e01b600052602160045260246000fd5b60068110614d2957634e487b7160e01b600052602160045260246000fd5b9052565b81516001600160a01b031681526101c081016020830151602083015260408301516040830152606083015160608301526080830151608083015260a083015160a083015260c083015160c083015260e083015160e083015261010080840151818401525061012080840151818401525061014080840151818401525061016080840151818401525061018080840151614dc882850182614d0b565b50506101a08381015160ff811684830152613732565b600060208284031215614df057600080fd5b8135610bc28161471d565b6000602080830181845280855180835260408601915060408160051b870101925083870160005b82811015614e5057603f19888603018452614e3e8583516149b6565b94509285019290850190600101614e22565b5092979650505050505050565b600060208284031215614e6f57600080fd5b813565ffffffffffff81168114610bc257600080fd5b600060208284031215614e9757600080fd5b81356001600160401b0381168114610bc257600080fd5b6000806000806101608587031215614ec557600080fd5b8435935060208501359250614edd8660408701614802565b91506101408501356001600160401b03811115614ef957600080fd5b614f05878288016148c4565b91505092959194509250565b600060208284031215614f2357600080fd5b813563ffffffff81168114610bc257600080fd5b600060208284031215614f4957600080fd5b8151610bc2816147e4565b600060208284031215614f6657600080fd5b5051919050565b634e487b7160e01b600052601160045260246000fd5b600082821015614f9557614f95614f6d565b500390565b60008219821115614fad57614fad614f6d565b500190565b634e487b7160e01b600052603260045260246000fd5b600060018201614fda57614fda614f6d565b5060010190565b600082614ffe57634e487b7160e01b600052601260045260246000fd5b500490565b600081600019048311821515161561501d5761501d614f6d565b500290565b634e487b7160e01b600052600160045260246000fd5b600082601f83011261504957600080fd5b815160206150596148e5836148a1565b82815260059290921b8401810191818101908684111561507857600080fd5b8286015b84811015614924578051835291830191830161507c565b6000602082840312156150a557600080fd5b81516001600160401b038111156150bb57600080fd5b61403884828501615038565b6000602082840312156150d957600080fd5b8151610bc28161471d565b6001600160a01b038716815260208082018790526040820186905260608201859052608082018490526105a082019060a083018460005b60288110156151385781518352918301919083019060010161511b565b50505050979650505050505050565b6000825160005b81811015615168576020818601810151858301520161514e565b81811115615177576000828501525b509190910192915050565b80516101008084528151908401819052600091610120850191602091820190845b818110156151bf578251855293830193918301916001016151a3565b50505083810151908501526040808401518051828701526020810151606087015290810151608086015250606083015160a0850152608083015160c085015260a083015184820360e0860152614cb182826149b6565b600081518084526020808501808196508360051b8101915082860160005b85811015614a77578284038952815180518552858101518686015260408082015190860152606080820151908601526080808201519086015260a09081015160c091860182905290615287818701836149b6565b9a87019a9550505090840190600101615233565b600060c08301825184526020808401516152cb828701828051825260208082015190830152604090810151910152565b50604084015160c0608087015282815180855260e08801915060e08160051b8901019450838301925060005b818110156153255760df19898703018352615313868551615182565b955092840192918401916001016152f7565b5050505050606083015184820360a0860152614cb18282615215565b606081526000615354606083018661529b565b82810360208401526153668186615182565b9050828103604084015261537a8185615215565b9695505050505050565b60006060828403121561539657600080fd5b604051606081018181106001600160401b03821117156153b8576153b8614732565b80604052508091508251815260208301516020820152604083015160408201525092915050565b600061010082840312156153f257600080fd5b6153fa614748565b905081516001600160401b038082111561541357600080fd5b61541f85838601615038565b8352602084015160208401526154388560408601615384565b604084015260a0840151606084015260c0840151608084015260e084015191508082111561546557600080fd5b5061547284828501615038565b60a08301525092915050565b600082601f83011261548f57600080fd5b8151602061549f6148e5836148a1565b82815260059290921b840181019181810190868411156154be57600080fd5b8286015b848110156149245780516001600160401b03808211156154e25760008081fd5b9088019060c0828b03601f19018113156154fc5760008081fd5b615504614748565b87840151815260408085015189830152606080860151828401526080915081860151818401525060a080860151828401528386015193508484111561554b57600091508182fd5b6155598e8b86890101615038565b908301525086525050509183019183016154c2565b6000602080838503121561558157600080fd5b82516001600160401b038082111561559857600080fd5b9084019060c082870312156155ac57600080fd5b6155b4614770565b825181526155c487858501615384565b848201526080830151828111156155da57600080fd5b8301601f810188136155eb57600080fd5b80516155f96148e5826148a1565b81815260059190911b8201860190868101908a83111561561857600080fd5b8784015b83811015615650578051878111156156345760008081fd5b6156428d8b838901016153df565b84525091880191880161561c565b50604085015250505060a083015193508184111561566d57600080fd5b6156798785850161547e565b60608201529695505050505050565b60408152600061569b604083018561529b565b8281036020840152614cb1818561529b565b6060815260006153546060830186614b42565b600060208083850312156156d357600080fd5b82516001600160401b038111156156e957600080fd5b8301601f810185136156fa57600080fd5b80516157086148e5826148a1565b81815260069190911b8201830190838101908783111561572757600080fd5b928401925b8284101561576a57604084890312156157455760008081fd5b61574d614792565b84518152858501518682015282526040909301929084019061572c565b979650505050505050565b6040815260006157886040830185615215565b8281036020840152614cb18185615215565b6000602082840312156157ac57600080fd5b81516001600160401b038111156157c257600080fd5b6140388482850161547e565b600080604083850312156157e157600080fd5b505080516020909101519092909150565b60008060006060848603121561580757600080fd5b8351925060208401519150604084015190509250925092565b81518152602080830151610180830191615844908401826001600160a01b03169052565b5060408301516158576040840182614d0b565b50606083015161586c606084018260ff169052565b506080830151608083015260a083015161589160a08401826001600160401b03169052565b5060c08301516158ac60c08401826001600160401b03169052565b5060e08301516158c760e08401826001600160401b03169052565b50610100838101516001600160401b03908116918401919091526101208085015182169084015261014080850151821690840152610160808501519182168185015290613732565b6040815260006159226040830185615215565b90508260208301529392505050565b80518252602081015160208301526040810151604083015260006060820151608060608501526140386080850182615215565b60a08152600061597760a0830188615215565b866020840152828103604084015285518152602086015160208201526040860151604082015260608601511515606082015260808601511515608082015260a086015160a082015260c086015160e060c08301526159d860e08301826149b6565b91505082810360608401526159ed8186615931565b90508281036080840152615a018185615215565b98975050505050505050565b600080600060a08486031215615a2257600080fd5b83516001600160401b03811115615a3857600080fd5b615a448682870161547e565b93505060208401519150615a5b8560408601615384565b90509250925092565b602081526000610bc26020830184615215565b60008060808385031215615a8a57600080fd5b82519150615a9b8460208501615384565b90509250929050565b606081526000615ab76060830186615182565b60208301949094525060400152919050565b600060208284031215615adb57600080fd5b81516001600160401b03811115615af157600080fd5b614038848285016153df565b6040815260006159226040830185614b42565b608081526000615b236080830187615182565b8281036020840152615b358187615215565b9050846040840152828103606084015261576a8185615215565b60008060408385031215615b6257600080fd5b82516001600160401b0380821115615b7957600080fd5b615b85868387016153df565b93506020850151915080821115615b9b57600080fd5b50615ba88582860161547e565b9150509250929050565b600081615bc157615bc1614f6d565b506000190190565b8054825260018101546001600160a01b0381166020840152615bf46040840160ff8360a01c16614d0b565b60a81c60ff1660608301526002810154608083015260038101546001600160401b0380821660a0850152604082901c811660c0850152615c4460e08501828460801c166001600160401b03169052565b60c082901c61010085015260048301546001600160401b03828216166101208601529150615c836101408501828460401c166001600160401b03169052565b615c9e6101608501828460801c166001600160401b03169052565b50505050565b61018081016106f58284615bc9565b60006101a0808301615cc58487615bc9565b6101808401919091528351908190526101c083019060209081860160005b82811015614e5057815185529383019390830190600101615ce356fea26469706673582212200039d43e55d0187eabcaefc14060ff1b3b6dea251614d08508827c60fd1e21ed64736f6c634300080d0033",
  "language": "Solidity",
  "natspec": {
    "kind": "dev",
    "methods": {
      "ownerOf()": {
        "details": "Returns the address of the current owner."
      },
      "renounceOwnership()": {
        "details": "Leaves the contract without owner. It will not be possible to call `onlyOwner` functions anymore. Can only be called by the current owner. NOTE: Renouncing ownership will leave the contract without an owner, thereby removing any functionality that is only available to the owner."
      },
      "supportsInterface(bytes4)": {
        "details": "Returns true if this contract implements the interface defined by `interfaceId`. See the corresponding https://eips.ethereum.org/EIPS/eip-165#how-interfaces-are-identified[EIP section] to learn more about how these ids are created. This function call must use less than 30 000 gas."
      },
      "transferOwnership(address)": {
        "details": "Transfers ownership of the contract to a new account (`newOwner`). Can only be called by the current owner."
      }
    },
    "version": 1
  },
  "opcodes": "PUSH1 0x80 PUSH1 0x40 MSTORE CALLVALUE DUP1 ISZERO PUSH2 0x10 JUMPI PUSH1 0x0 DUP1 REVERT JUMPDEST POP PUSH1 0x4 CALLDATASIZE LT PUSH2 0x1A9 JUMPI PUSH1 0x0 CALLDATALOAD PUSH1 0xE0 SHR DUP1 PUSH4 0x854BA99D GT PUSH2 0xF9 JUMPI DUP1 PUSH4 0xCCBD1637 GT PUSH2 0x97 JUMPI DUP1 PUSH4 0xE4B16144 GT PUSH2 0x71 JUMPI DUP1 PUSH4 0xE4B16144 EQ PUSH2 0x481 JUMPI DUP1 PUSH4 0xE9F14CE6 EQ PUSH2 0x494 JUMPI DUP1 PUSH4 0xF2FDE38B EQ PUSH2 0x4A7 JUMPI DUP1 PUSH4 0xFEAB4454 EQ PUSH2 0x4BA JUMPI PUSH2 0x1A9 JUMP JUMPDEST DUP1 PUSH4 0xCCBD1637 EQ PUSH2 0x43F JUMPI DUP1 PUSH4 0xCCC07959 EQ PUSH2 0x452 JUMPI DUP1 PUSH4 0xD6935858 EQ PUSH2 0x479 JUMPI PUSH2 0x1A9 JUMP JUMPDEST DUP1 PUSH4 0xAF640D0F GT PUSH2 0xD3 JUMPI DUP1 PUSH4 0xAF640D0F EQ PUSH2 0x3E0 JUMPI DUP1 PUSH4 0xB03FD40D EQ PUSH2 0x406 JUMPI DUP1 PUSH4 0xB9B38745 EQ PUSH2 0x419 JUMPI DUP1 PUSH4 0xBD0ADE2B EQ PUSH2 0x42C JUMPI PUSH2 0x1A9 JUMP JUMPDEST DUP1 PUSH4 0x854BA99D EQ PUSH2 0x39D JUMPI DUP1 PUSH4 0x8DA5CB5B EQ PUSH2 0x3A5 JUMPI DUP1 PUSH4 0x97962076 EQ PUSH2 0x3D0 JUMPI PUSH2 0x1A9 JUMP JUMPDEST DUP1 PUSH4 0x2203616D GT PUSH2 0x166 JUMPI DUP1 PUSH4 0x6B2B091A GT PUSH2 0x140 JUMPI DUP1 PUSH4 0x6B2B091A EQ PUSH2 0x34C JUMPI DUP1 PUSH4 0x715018A6 EQ PUSH2 0x36C JUMPI DUP1 PUSH4 0x72EA61BF EQ PUSH2 0x374 JUMPI DUP1 PUSH4 0x7AF6649A EQ PUSH2 0x37C JUMPI PUSH2 0x1A9 JUMP JUMPDEST DUP1 PUSH4 0x2203616D EQ PUSH2 0x2D1 JUMPI DUP1 PUSH4 0x2F54BF6E EQ PUSH2 0x2F9 JUMPI DUP1 PUSH4 0x62965141 EQ PUSH2 0x321 JUMPI PUSH2 0x1A9 JUMP JUMPDEST DUP1 PUSH4 0x1FFC9A7 EQ PUSH2 0x22B JUMPI DUP1 PUSH4 0x5D6BD9C EQ PUSH2 0x253 JUMPI DUP1 PUSH4 0x9252F02 EQ PUSH2 0x25B JUMPI DUP1 PUSH4 0xA3550AA EQ PUSH2 0x27D JUMPI DUP1 PUSH4 0x1EF4590D EQ PUSH2 0x29E JUMPI DUP1 PUSH4 0x21603F43 EQ PUSH2 0x2B1 JUMPI JUMPDEST PUSH2 0x1B1 PUSH2 0x4E4 JUMP JUMPDEST PUSH1 0x0 PUSH2 0x1C1 PUSH1 0x24 PUSH1 0x4 CALLDATASIZE DUP5 PUSH2 0x46C9 JUMP JUMPDEST DUP1 DUP1 PUSH1 0x1F ADD PUSH1 0x20 DUP1 SWAP2 DIV MUL PUSH1 0x20 ADD PUSH1 0x40 MLOAD SWAP1 DUP2 ADD PUSH1 0x40 MSTORE DUP1 SWAP4 SWAP3 SWAP2 SWAP1 DUP2 DUP2 MSTORE PUSH1 0x20 ADD DUP4 DUP4 DUP1 DUP3 DUP5 CALLDATACOPY PUSH1 0x0 SWAP3 ADD DUP3 SWAP1 MSTORE POP PUSH1 0x20 DUP6 ADD MLOAD SWAP5 SWAP6 POP SWAP3 POP POP CALLDATASIZE PUSH1 0x23 NOT DUP2 ADD SWAP2 POP PUSH1 0x1F NOT ADD PUSH1 0x4 DUP4 DUP1 CALLDATACOPY DUP2 PUSH1 0x24 PUSH1 0x4 CALLDATACOPY PUSH1 0x0 DUP1 DUP3 PUSH1 0x0 DUP8 GAS DELEGATECALL SWAP3 POP POP POP PUSH2 0x229 DUP2 PUSH2 0x6AE JUMP JUMPDEST STOP JUMPDEST PUSH2 0x23E PUSH2 0x239 CALLDATASIZE PUSH1 0x4 PUSH2 0x46F3 JUMP JUMPDEST PUSH2 0x6C4 JUMP JUMPDEST PUSH1 0x40 MLOAD SWAP1 ISZERO ISZERO DUP2 MSTORE PUSH1 0x20 ADD JUMPDEST PUSH1 0x40 MLOAD DUP1 SWAP2 SUB SWAP1 RETURN JUMPDEST PUSH2 0x229 PUSH2 0x6FB JUMP JUMPDEST PUSH2 0x26E PUSH2 0x269 CALLDATASIZE PUSH1 0x4 PUSH2 0x492F JUMP JUMPDEST PUSH2 0x712 JUMP JUMPDEST PUSH1 0x40 MLOAD PUSH2 0x24A SWAP4 SWAP3 SWAP2 SWAP1 PUSH2 0x4A84 JUMP JUMPDEST PUSH2 0x290 PUSH2 0x28B CALLDATASIZE PUSH1 0x4 PUSH2 0x4AC0 JUMP JUMPDEST PUSH2 0x87B JUMP JUMPDEST PUSH1 0x40 MLOAD PUSH2 0x24A SWAP3 SWAP2 SWAP1 PUSH2 0x4B7D JUMP JUMPDEST PUSH2 0x23E PUSH2 0x2AC CALLDATASIZE PUSH1 0x4 PUSH2 0x4CBA JUMP JUMPDEST PUSH2 0xB38 JUMP JUMPDEST PUSH2 0x2C4 PUSH2 0x2BF CALLDATASIZE PUSH1 0x4 PUSH2 0x4CDC JUMP JUMPDEST PUSH2 0xBC9 JUMP JUMPDEST PUSH1 0x40 MLOAD PUSH2 0x24A SWAP2 SWAP1 PUSH2 0x4D2D JUMP JUMPDEST PUSH2 0x2E4 PUSH2 0x2DF CALLDATASIZE PUSH1 0x4 PUSH2 0x4CDC JUMP JUMPDEST PUSH2 0xBDC JUMP JUMPDEST PUSH1 0x40 MLOAD PUSH4 0xFFFFFFFF SWAP1 SWAP2 AND DUP2 MSTORE PUSH1 0x20 ADD PUSH2 0x24A JUMP JUMPDEST PUSH2 0x23E PUSH2 0x307 CALLDATASIZE PUSH1 0x4 PUSH2 0x4DDE JUMP JUMPDEST PUSH1 0x0 SLOAD PUSH3 0x10000 SWAP1 DIV PUSH1 0x1 PUSH1 0x1 PUSH1 0xA0 SHL SUB SWAP1 DUP2 AND SWAP2 AND EQ SWAP1 JUMP JUMPDEST PUSH2 0x334 PUSH2 0x32F CALLDATASIZE PUSH1 0x4 PUSH2 0x4CDC JUMP JUMPDEST PUSH2 0xBED JUMP JUMPDEST PUSH1 0x40 MLOAD PUSH1 0x1 PUSH1 0x1 PUSH1 0x40 SHL SUB SWAP1 SWAP2 AND DUP2 MSTORE PUSH1 0x20 ADD PUSH2 0x24A JUMP JUMPDEST PUSH2 0x35F PUSH2 0x35A CALLDATASIZE PUSH1 0x4 PUSH2 0x4CDC JUMP JUMPDEST PUSH2 0xC1F JUMP JUMPDEST PUSH1 0x40 MLOAD PUSH2 0x24A SWAP2 SWAP1 PUSH2 0x4DFB JUMP JUMPDEST PUSH2 0x229 PUSH2 0x1033 JUMP JUMPDEST PUSH2 0x229 PUSH2 0x1045 JUMP JUMPDEST PUSH2 0x38F PUSH2 0x38A CALLDATASIZE PUSH1 0x4 PUSH2 0x4E5D JUMP JUMPDEST PUSH2 0x105F JUMP JUMPDEST PUSH1 0x40 MLOAD SWAP1 DUP2 MSTORE PUSH1 0x20 ADD PUSH2 0x24A JUMP JUMPDEST PUSH2 0x23E PUSH2 0x1078 JUMP JUMPDEST PUSH1 0x0 SLOAD PUSH3 0x10000 SWAP1 DIV PUSH1 0x1 PUSH1 0x1 PUSH1 0xA0 SHL SUB AND JUMPDEST PUSH1 0x40 MLOAD PUSH1 0x1 PUSH1 0x1 PUSH1 0xA0 SHL SUB SWAP1 SWAP2 AND DUP2 MSTORE PUSH1 0x20 ADD PUSH2 0x24A JUMP JUMPDEST PUSH1 0x0 SLOAD PUSH2 0x100 SWAP1 DIV PUSH1 0xFF AND PUSH2 0x23E JUMP JUMPDEST PUSH32 0xDCF6913C74762E0B3C7F94F504BB2BE7445BBD8D11ABEE9960F04EBF85E7A7B2 PUSH2 0x38F JUMP JUMPDEST PUSH2 0x38F PUSH2 0x414 CALLDATASIZE PUSH1 0x4 PUSH2 0x4E85 JUMP JUMPDEST PUSH2 0x1096 JUMP JUMPDEST PUSH2 0x290 PUSH2 0x427 CALLDATASIZE PUSH1 0x4 PUSH2 0x492F JUMP JUMPDEST PUSH2 0x10B0 JUMP JUMPDEST PUSH2 0x26E PUSH2 0x43A CALLDATASIZE PUSH1 0x4 PUSH2 0x4AC0 JUMP JUMPDEST PUSH2 0x11F7 JUMP JUMPDEST PUSH2 0x290 PUSH2 0x44D CALLDATASIZE PUSH1 0x4 PUSH2 0x4EAE JUMP JUMPDEST PUSH2 0x149C JUMP JUMPDEST PUSH2 0x3B8 PUSH32 0x0 DUP2 JUMP JUMPDEST PUSH2 0x229 PUSH2 0x1777 JUMP JUMPDEST PUSH2 0x38F PUSH2 0x48F CALLDATASIZE PUSH1 0x4 PUSH2 0x4F11 JUMP JUMPDEST PUSH2 0x1793 JUMP JUMPDEST PUSH2 0x26E PUSH2 0x4A2 CALLDATASIZE PUSH1 0x4 PUSH2 0x4EAE JUMP JUMPDEST PUSH2 0x17AA JUMP JUMPDEST PUSH2 0x229 PUSH2 0x4B5 CALLDATASIZE PUSH1 0x4 PUSH2 0x4DDE JUMP JUMPDEST PUSH2 0x1AA3 JUMP JUMPDEST PUSH2 0x4CD PUSH2 0x4C8 CALLDATASIZE PUSH1 0x4 PUSH2 0x4CDC JUMP JUMPDEST PUSH2 0x1B1C JUMP JUMPDEST PUSH1 0x40 MLOAD PUSH6 0xFFFFFFFFFFFF SWAP1 SWAP2 AND DUP2 MSTORE PUSH1 0x20 ADD PUSH2 0x24A JUMP JUMPDEST PUSH1 0x0 SLOAD PUSH1 0x1 PUSH1 0x1 PUSH1 0xA0 SHL SUB PUSH3 0x10000 SWAP1 SWAP2 DIV AND CALLER EQ DUP1 PUSH2 0x597 JUMPI POP PUSH1 0x1 PUSH1 0x1 PUSH1 0xA0 SHL SUB PUSH32 0x0 AND PUSH4 0x16279055 CALLER PUSH1 0x40 MLOAD PUSH1 0x1 PUSH1 0x1 PUSH1 0xE0 SHL SUB NOT PUSH1 0xE0 DUP5 SWAP1 SHL AND DUP2 MSTORE PUSH1 0x1 PUSH1 0x1 PUSH1 0xA0 SHL SUB SWAP1 SWAP2 AND PUSH1 0x4 DUP3 ADD MSTORE PUSH1 0x24 ADD PUSH1 0x20 PUSH1 0x40 MLOAD DUP1 DUP4 SUB DUP2 DUP7 GAS STATICCALL ISZERO DUP1 ISZERO PUSH2 0x573 JUMPI RETURNDATASIZE PUSH1 0x0 DUP1 RETURNDATACOPY RETURNDATASIZE PUSH1 0x0 REVERT JUMPDEST POP POP POP POP PUSH1 0x40 MLOAD RETURNDATASIZE PUSH1 0x1F NOT PUSH1 0x1F DUP3 ADD AND DUP3 ADD DUP1 PUSH1 0x40 MSTORE POP DUP2 ADD SWAP1 PUSH2 0x597 SWAP2 SWAP1 PUSH2 0x4F37 JUMP JUMPDEST DUP1 PUSH2 0x635 JUMPI POP PUSH1 0x1 PUSH1 0x1 PUSH1 0xA0 SHL SUB PUSH32 0x0 AND PUSH4 0x6D70F7AE CALLER PUSH1 0x40 MLOAD PUSH1 0x1 PUSH1 0x1 PUSH1 0xE0 SHL SUB NOT PUSH1 0xE0 DUP5 SWAP1 SHL AND DUP2 MSTORE PUSH1 0x1 PUSH1 0x1 PUSH1 0xA0 SHL SUB SWAP1 SWAP2 AND PUSH1 0x4 DUP3 ADD MSTORE PUSH1 0x24 ADD PUSH1 0x20 PUSH1 0x40 MLOAD DUP1 DUP4 SUB DUP2 DUP7 GAS STATICCALL ISZERO DUP1 ISZERO PUSH2 0x611 JUMPI RETURNDATASIZE PUSH1 0x0 DUP1 RETURNDATACOPY RETURNDATASIZE PUSH1 0x0 REVERT JUMPDEST POP POP POP POP PUSH1 0x40 MLOAD RETURNDATASIZE PUSH1 0x1F NOT PUSH1 0x1F DUP3 ADD AND DUP3 ADD DUP1 PUSH1 0x40 MSTORE POP DUP2 ADD SWAP1 PUSH2 0x635 SWAP2 SWAP1 PUSH2 0x4F37 JUMP JUMPDEST PUSH2 0x6AC JUMPI PUSH1 0x40 MLOAD PUSH3 0x461BCD PUSH1 0xE5 SHL DUP2 MSTORE PUSH1 0x20 PUSH1 0x4 DUP3 ADD MSTORE PUSH1 0x39 PUSH1 0x24 DUP3 ADD MSTORE PUSH32 0x416C6C6F77616E63653A2063616C6C6572206D757374206265205265706F7369 PUSH1 0x44 DUP3 ADD MSTORE PUSH32 0x746F727920436F6E7472616374206F72204F70657261746F7200000000000000 PUSH1 0x64 DUP3 ADD MSTORE PUSH1 0x84 ADD JUMPDEST PUSH1 0x40 MLOAD DUP1 SWAP2 SUB SWAP1 REVERT JUMPDEST JUMP JUMPDEST RETURNDATASIZE PUSH1 0x0 DUP1 RETURNDATACOPY DUP1 DUP1 ISZERO PUSH2 0x6BF JUMPI RETURNDATASIZE PUSH1 0x0 RETURN JUMPDEST RETURNDATASIZE PUSH1 0x0 REVERT JUMPDEST PUSH1 0x0 PUSH1 0x1 PUSH1 0x1 PUSH1 0xE0 SHL SUB NOT DUP3 AND PUSH4 0x1FFC9A7 PUSH1 0xE0 SHL EQ DUP1 PUSH2 0x6F5 JUMPI POP PUSH1 0x1 PUSH1 0x1 PUSH1 0xE0 SHL SUB NOT DUP3 AND PUSH4 0x15D37895 PUSH1 0xE3 SHL EQ JUMPDEST SWAP3 SWAP2 POP POP JUMP JUMPDEST PUSH2 0x703 PUSH2 0x4E4 JUMP JUMPDEST PUSH2 0x6AC PUSH1 0x0 DUP1 SLOAD PUSH1 0xFF NOT AND SWAP1 SSTORE JUMP JUMPDEST PUSH1 0x60 PUSH1 0x0 PUSH2 0x73A PUSH1 0x40 MLOAD DUP1 PUSH1 0x60 ADD PUSH1 0x40 MSTORE DUP1 PUSH1 0x0 DUP2 MSTORE PUSH1 0x20 ADD PUSH1 0x0 DUP2 MSTORE PUSH1 0x20 ADD PUSH1 0x0 DUP2 MSTORE POP SWAP1 JUMP JUMPDEST PUSH1 0x40 MLOAD PUSH4 0x27BCDBC9 PUSH1 0xE1 SHL DUP2 MSTORE PUSH1 0x1 PUSH1 0x1 PUSH1 0xA0 SHL SUB DUP11 DUP2 AND PUSH1 0x4 DUP4 ADD MSTORE PUSH1 0x24 DUP3 ADD DUP11 SWAP1 MSTORE PUSH2 0x869 SWAP2 PUSH32 0x0 SWAP1 SWAP2 AND SWAP1 PUSH4 0x4F79B792 SWAP1 PUSH1 0x44 ADD PUSH1 0x20 PUSH1 0x40 MLOAD DUP1 DUP4 SUB DUP2 DUP7 GAS STATICCALL ISZERO DUP1 ISZERO PUSH2 0x7AD JUMPI RETURNDATASIZE PUSH1 0x0 DUP1 RETURNDATACOPY RETURNDATASIZE PUSH1 0x0 REVERT JUMPDEST POP POP POP POP PUSH1 0x40 MLOAD RETURNDATASIZE PUSH1 0x1F NOT PUSH1 0x1F DUP3 ADD AND DUP3 ADD DUP1 PUSH1 0x40 MSTORE POP DUP2 ADD SWAP1 PUSH2 0x7D1 SWAP2 SWAP1 PUSH2 0x4F54 JUMP JUMPDEST PUSH1 0x40 MLOAD PUSH4 0x27BCDBC9 PUSH1 0xE1 SHL DUP2 MSTORE PUSH1 0x1 PUSH1 0x1 PUSH1 0xA0 SHL SUB DUP11 DUP2 AND PUSH1 0x4 DUP4 ADD MSTORE PUSH1 0x24 DUP3 ADD DUP11 SWAP1 MSTORE PUSH32 0x0 AND SWAP1 PUSH4 0x4F79B792 SWAP1 PUSH1 0x44 ADD PUSH1 0x20 PUSH1 0x40 MLOAD DUP1 DUP4 SUB DUP2 DUP7 GAS STATICCALL ISZERO DUP1 ISZERO PUSH2 0x83E JUMPI RETURNDATASIZE PUSH1 0x0 DUP1 RETURNDATACOPY RETURNDATASIZE PUSH1 0x0 REVERT JUMPDEST POP POP POP POP PUSH1 0x40 MLOAD RETURNDATASIZE PUSH1 0x1F NOT PUSH1 0x1F DUP3 ADD AND DUP3 ADD DUP1 PUSH1 0x40 MSTORE POP DUP2 ADD SWAP1 PUSH2 0x862 SWAP2 SWAP1 PUSH2 0x4F54 JUMP JUMPDEST DUP8 DUP8 PUSH2 0x17AA JUMP JUMPDEST SWAP3 POP SWAP3 POP SWAP3 POP SWAP7 POP SWAP7 POP SWAP7 SWAP4 POP POP POP POP JUMP JUMPDEST PUSH2 0x883 PUSH2 0x44FC JUMP JUMPDEST PUSH1 0x60 PUSH1 0x0 DUP4 JUMPDEST PUSH2 0x894 PUSH1 0x8 DUP3 PUSH2 0x4F83 JUMP JUMPDEST DUP3 LT ISZERO PUSH2 0x8D8 JUMPI DUP6 DUP6 PUSH2 0x8A8 DUP5 PUSH1 0x8 PUSH2 0x4F9A JUMP JUMPDEST DUP2 DUP2 LT PUSH2 0x8B7 JUMPI PUSH2 0x8B7 PUSH2 0x4FB2 JUMP JUMPDEST SWAP1 POP PUSH1 0x20 MUL ADD CALLDATALOAD PUSH1 0x0 SUB ISZERO PUSH2 0x8D8 JUMPI DUP2 PUSH2 0x8D0 DUP2 PUSH2 0x4FC8 JUMP JUMPDEST SWAP3 POP POP PUSH2 0x889 JUMP JUMPDEST PUSH1 0x0 DUP3 PUSH1 0x1 PUSH1 0x1 PUSH1 0x40 SHL SUB DUP2 GT ISZERO PUSH2 0x8F2 JUMPI PUSH2 0x8F2 PUSH2 0x4732 JUMP JUMPDEST PUSH1 0x40 MLOAD SWAP1 DUP1 DUP3 MSTORE DUP1 PUSH1 0x20 MUL PUSH1 0x20 ADD DUP3 ADD PUSH1 0x40 MSTORE DUP1 ISZERO PUSH2 0x91B JUMPI DUP2 PUSH1 0x20 ADD PUSH1 0x20 DUP3 MUL DUP1 CALLDATASIZE DUP4 CALLDATACOPY ADD SWAP1 POP JUMPDEST POP SWAP1 POP PUSH1 0x0 JUMPDEST DUP4 DUP2 LT ISZERO PUSH2 0x97B JUMPI DUP8 DUP8 PUSH2 0x936 DUP4 PUSH1 0x8 PUSH2 0x4F9A JUMP JUMPDEST DUP2 DUP2 LT PUSH2 0x945 JUMPI PUSH2 0x945 PUSH2 0x4FB2 JUMP JUMPDEST SWAP1 POP PUSH1 0x20 MUL ADD CALLDATALOAD DUP3 DUP3 DUP2 MLOAD DUP2 LT PUSH2 0x95E JUMPI PUSH2 0x95E PUSH2 0x4FB2 JUMP JUMPDEST PUSH1 0x20 SWAP1 DUP2 MUL SWAP2 SWAP1 SWAP2 ADD ADD MSTORE DUP1 PUSH2 0x973 DUP2 PUSH2 0x4FC8 JUMP JUMPDEST SWAP2 POP POP PUSH2 0x921 JUMP JUMPDEST POP PUSH2 0xB27 DUP10 PUSH1 0x40 MLOAD DUP1 PUSH1 0xE0 ADD PUSH1 0x40 MSTORE DUP1 DUP12 DUP2 MSTORE PUSH1 0x20 ADD DUP11 DUP11 PUSH1 0x0 DUP2 DUP2 LT PUSH2 0x9A4 JUMPI PUSH2 0x9A4 PUSH2 0x4FB2 JUMP JUMPDEST SWAP1 POP PUSH1 0x20 MUL ADD CALLDATALOAD DUP2 MSTORE PUSH1 0x20 ADD DUP11 DUP11 PUSH1 0x1 DUP2 DUP2 LT PUSH2 0x9C3 JUMPI PUSH2 0x9C3 PUSH2 0x4FB2 JUMP JUMPDEST SWAP1 POP PUSH1 0x20 MUL ADD CALLDATALOAD DUP2 MSTORE PUSH1 0x20 ADD DUP11 DUP11 PUSH1 0x2 DUP2 DUP2 LT PUSH2 0x9E2 JUMPI PUSH2 0x9E2 PUSH2 0x4FB2 JUMP JUMPDEST SWAP1 POP PUSH1 0x20 MUL ADD CALLDATALOAD PUSH1 0x0 EQ ISZERO ISZERO ISZERO DUP2 MSTORE PUSH1 0x20 ADD DUP11 DUP11 PUSH1 0x3 DUP2 DUP2 LT PUSH2 0xA07 JUMPI PUSH2 0xA07 PUSH2 0x4FB2 JUMP JUMPDEST SWAP1 POP PUSH1 0x20 MUL ADD CALLDATALOAD PUSH1 0x0 EQ ISZERO ISZERO ISZERO DUP2 MSTORE PUSH1 0x20 ADD DUP11 DUP11 PUSH1 0x7 DUP2 DUP2 LT PUSH2 0xA2C JUMPI PUSH2 0xA2C PUSH2 0x4FB2 JUMP JUMPDEST SWAP1 POP PUSH1 0x20 MUL ADD CALLDATALOAD DUP2 MSTORE PUSH1 0x20 ADD DUP5 DUP2 MSTORE POP PUSH1 0x40 MLOAD DUP1 PUSH1 0x80 ADD PUSH1 0x40 MSTORE DUP1 DUP12 DUP12 PUSH1 0x5 DUP2 DUP2 LT PUSH2 0xA5A JUMPI PUSH2 0xA5A PUSH2 0x4FB2 JUMP JUMPDEST SWAP1 POP PUSH1 0x20 MUL ADD CALLDATALOAD DUP2 MSTORE PUSH1 0x20 ADD DUP12 DUP12 PUSH1 0x6 DUP2 DUP2 LT PUSH2 0xA79 JUMPI PUSH2 0xA79 PUSH2 0x4FB2 JUMP JUMPDEST SWAP1 POP PUSH1 0x20 MUL ADD CALLDATALOAD DUP2 MSTORE PUSH1 0x20 ADD DUP12 DUP12 PUSH1 0x4 DUP2 DUP2 LT PUSH2 0xA98 JUMPI PUSH2 0xA98 PUSH2 0x4FB2 JUMP JUMPDEST PUSH1 0x20 SWAP1 DUP2 MUL SWAP3 SWAP1 SWAP3 ADD CALLDATALOAD DUP4 MSTORE POP ADD PUSH1 0x0 PUSH1 0x40 MLOAD SWAP1 DUP1 DUP3 MSTORE DUP1 PUSH1 0x20 MUL PUSH1 0x20 ADD DUP3 ADD PUSH1 0x40 MSTORE DUP1 ISZERO PUSH2 0xAE1 JUMPI DUP2 PUSH1 0x20 ADD JUMPDEST PUSH2 0xACE PUSH2 0x4546 JUMP JUMPDEST DUP2 MSTORE PUSH1 0x20 ADD SWAP1 PUSH1 0x1 SWAP1 SUB SWAP1 DUP2 PUSH2 0xAC6 JUMPI SWAP1 POP JUMPDEST POP SWAP1 MSTORE PUSH1 0x40 DUP1 MLOAD PUSH1 0x0 DUP1 DUP3 MSTORE PUSH1 0x20 DUP3 ADD SWAP1 SWAP3 MSTORE SWAP1 PUSH2 0xB21 JUMP JUMPDEST PUSH1 0x40 DUP1 MLOAD DUP1 DUP3 ADD SWAP1 SWAP2 MSTORE PUSH1 0x0 DUP1 DUP3 MSTORE PUSH1 0x20 DUP3 ADD MSTORE DUP2 MSTORE PUSH1 0x20 ADD SWAP1 PUSH1 0x1 SWAP1 SUB SWAP1 DUP2 PUSH2 0xAFA JUMPI SWAP1 POP JUMPDEST POP PUSH2 0x1B2D JUMP JUMPDEST SWAP5 POP SWAP5 POP POP POP POP JUMPDEST SWAP5 POP SWAP5 SWAP3 POP POP POP JUMP JUMPDEST PUSH1 0x0 DUP3 DUP2 MSTORE PUSH1 0x1 PUSH1 0x20 MSTORE PUSH1 0x40 DUP1 DUP3 KECCAK256 SWAP1 MLOAD PUSH4 0x2BE5DB23 PUSH1 0xE1 SHL DUP2 MSTORE PUSH1 0x4 DUP2 ADD SWAP2 SWAP1 SWAP2 MSTORE PUSH1 0x24 DUP2 ADD DUP4 SWAP1 MSTORE PUSH20 0x0 SWAP1 PUSH4 0x57CBB646 SWAP1 PUSH1 0x44 ADD PUSH1 0x20 PUSH1 0x40 MLOAD DUP1 DUP4 SUB DUP2 DUP7 GAS DELEGATECALL ISZERO DUP1 ISZERO PUSH2 0xB9E JUMPI RETURNDATASIZE PUSH1 0x0 DUP1 RETURNDATACOPY RETURNDATASIZE PUSH1 0x0 REVERT JUMPDEST POP POP POP POP PUSH1 0x40 MLOAD RETURNDATASIZE PUSH1 0x1F NOT PUSH1 0x1F DUP3 ADD AND DUP3 ADD DUP1 PUSH1 0x40 MSTORE POP DUP2 ADD SWAP1 PUSH2 0xBC2 SWAP2 SWAP1 PUSH2 0x4F37 JUMP JUMPDEST SWAP4 SWAP3 POP POP POP JUMP JUMPDEST PUSH2 0xBD1 PUSH2 0x457F JUMP JUMPDEST PUSH2 0x6F5 DUP3 PUSH1 0x0 PUSH2 0x255D JUMP JUMPDEST PUSH1 0x0 PUSH2 0x6F5 PUSH5 0xE8D4A51000 DUP4 PUSH2 0x4FE1 JUMP JUMPDEST PUSH1 0x0 DUP1 PUSH2 0xBFF PUSH5 0x2540BE400 DUP5 PUSH2 0x4FE1 JUMP JUMPDEST SWAP1 POP DUP3 PUSH2 0xC11 DUP3 PUSH5 0x2540BE400 PUSH2 0x5003 JUMP JUMPDEST GT ISZERO PUSH2 0x6F5 JUMPI PUSH2 0x6F5 PUSH2 0x5022 JUMP JUMPDEST PUSH1 0x0 DUP2 DUP2 MSTORE PUSH1 0x1 PUSH1 0x20 SWAP1 DUP2 MSTORE PUSH1 0x40 DUP1 DUP4 KECCAK256 DUP1 SLOAD DUP3 MLOAD DUP2 DUP6 MUL DUP2 ADD DUP6 ADD SWAP1 SWAP4 MSTORE DUP1 DUP4 MSTORE PUSH1 0x60 SWAP5 SWAP4 DUP4 ADD DUP3 DUP3 DUP1 ISZERO PUSH2 0xC74 JUMPI PUSH1 0x20 MUL DUP3 ADD SWAP2 SWAP1 PUSH1 0x0 MSTORE PUSH1 0x20 PUSH1 0x0 KECCAK256 SWAP1 JUMPDEST DUP2 SLOAD DUP2 MSTORE PUSH1 0x20 ADD SWAP1 PUSH1 0x1 ADD SWAP1 DUP1 DUP4 GT PUSH2 0xC60 JUMPI JUMPDEST POP POP POP POP POP SWAP1 POP DUP1 MLOAD PUSH1 0x1 PUSH1 0x1 PUSH1 0x40 SHL SUB DUP2 GT ISZERO PUSH2 0xC94 JUMPI PUSH2 0xC94 PUSH2 0x4732 JUMP JUMPDEST PUSH1 0x40 MLOAD SWAP1 DUP1 DUP3 MSTORE DUP1 PUSH1 0x20 MUL PUSH1 0x20 ADD DUP3 ADD PUSH1 0x40 MSTORE DUP1 ISZERO PUSH2 0xCC7 JUMPI DUP2 PUSH1 0x20 ADD JUMPDEST PUSH1 0x60 DUP2 MSTORE PUSH1 0x20 ADD SWAP1 PUSH1 0x1 SWAP1 SUB SWAP1 DUP2 PUSH2 0xCB2 JUMPI SWAP1 POP JUMPDEST POP SWAP2 POP PUSH1 0x0 DUP1 JUMPDEST DUP3 MLOAD DUP2 LT ISZERO PUSH2 0xFE0 JUMPI PUSH32 0x0 PUSH1 0x1 PUSH1 0x1 PUSH1 0xA0 SHL SUB AND PUSH4 0x38A699A4 DUP5 DUP4 DUP2 MLOAD DUP2 LT PUSH2 0xD18 JUMPI PUSH2 0xD18 PUSH2 0x4FB2 JUMP JUMPDEST PUSH1 0x20 MUL PUSH1 0x20 ADD ADD MLOAD PUSH1 0x40 MLOAD DUP3 PUSH4 0xFFFFFFFF AND PUSH1 0xE0 SHL DUP2 MSTORE PUSH1 0x4 ADD PUSH2 0xD3E SWAP2 DUP2 MSTORE PUSH1 0x20 ADD SWAP1 JUMP JUMPDEST PUSH1 0x20 PUSH1 0x40 MLOAD DUP1 DUP4 SUB DUP2 DUP7 GAS STATICCALL ISZERO DUP1 ISZERO PUSH2 0xD5B JUMPI RETURNDATASIZE PUSH1 0x0 DUP1 RETURNDATACOPY RETURNDATASIZE PUSH1 0x0 REVERT JUMPDEST POP POP POP POP PUSH1 0x40 MLOAD RETURNDATASIZE PUSH1 0x1F NOT PUSH1 0x1F DUP3 ADD AND DUP3 ADD DUP1 PUSH1 0x40 MSTORE POP DUP2 ADD SWAP1 PUSH2 0xD7F SWAP2 SWAP1 PUSH2 0x4F37 JUMP JUMPDEST ISZERO PUSH2 0xFCE JUMPI PUSH1 0x0 PUSH32 0x0 PUSH1 0x1 PUSH1 0x1 PUSH1 0xA0 SHL SUB AND PUSH4 0x27EE9DC2 DUP6 DUP5 DUP2 MLOAD DUP2 LT PUSH2 0xDC7 JUMPI PUSH2 0xDC7 PUSH2 0x4FB2 JUMP JUMPDEST PUSH1 0x20 MUL PUSH1 0x20 ADD ADD MLOAD PUSH1 0x40 MLOAD DUP3 PUSH4 0xFFFFFFFF AND PUSH1 0xE0 SHL DUP2 MSTORE PUSH1 0x4 ADD PUSH2 0xDED SWAP2 DUP2 MSTORE PUSH1 0x20 ADD SWAP1 JUMP JUMPDEST PUSH1 0x0 PUSH1 0x40 MLOAD DUP1 DUP4 SUB DUP2 DUP7 GAS STATICCALL ISZERO DUP1 ISZERO PUSH2 0xE0A JUMPI RETURNDATASIZE PUSH1 0x0 DUP1 RETURNDATACOPY RETURNDATASIZE PUSH1 0x0 REVERT JUMPDEST POP POP POP POP PUSH1 0x40 MLOAD RETURNDATASIZE PUSH1 0x0 DUP3 RETURNDATACOPY PUSH1 0x1F RETURNDATASIZE SWAP1 DUP2 ADD PUSH1 0x1F NOT AND DUP3 ADD PUSH1 0x40 MSTORE PUSH2 0xE32 SWAP2 SWAP1 DUP2 ADD SWAP1 PUSH2 0x5093 JUMP JUMPDEST SWAP1 POP PUSH1 0x0 DUP2 MLOAD GT PUSH2 0xE7F JUMPI PUSH1 0x40 MLOAD PUSH3 0x461BCD PUSH1 0xE5 SHL DUP2 MSTORE PUSH1 0x20 PUSH1 0x4 DUP3 ADD MSTORE PUSH1 0x17 PUSH1 0x24 DUP3 ADD MSTORE PUSH23 0x5F706174684C69737420706174682E6C656E6774683E3 PUSH1 0x4C SHL PUSH1 0x44 DUP3 ADD MSTORE PUSH1 0x64 ADD PUSH2 0x6A3 JUMP JUMPDEST PUSH1 0x0 JUMPDEST PUSH1 0x1 DUP3 MLOAD PUSH2 0xE90 SWAP2 SWAP1 PUSH2 0x4F83 JUMP JUMPDEST DUP2 LT ISZERO PUSH2 0xF86 JUMPI PUSH2 0xF6F PUSH20 0x0 PUSH4 0x76254FF9 DUP5 DUP5 DUP2 MLOAD DUP2 LT PUSH2 0xEC6 JUMPI PUSH2 0xEC6 PUSH2 0x4FB2 JUMP JUMPDEST PUSH1 0x20 MUL PUSH1 0x20 ADD ADD MLOAD DUP6 DUP6 PUSH1 0x1 PUSH2 0xEDC SWAP2 SWAP1 PUSH2 0x4F9A JUMP JUMPDEST DUP2 MLOAD DUP2 LT PUSH2 0xEEC JUMPI PUSH2 0xEEC PUSH2 0x4FB2 JUMP JUMPDEST PUSH1 0x20 MUL PUSH1 0x20 ADD ADD MLOAD PUSH1 0x40 MLOAD DUP4 PUSH4 0xFFFFFFFF AND PUSH1 0xE0 SHL DUP2 MSTORE PUSH1 0x4 ADD PUSH2 0xF1A SWAP3 SWAP2 SWAP1 SWAP2 DUP3 MSTORE PUSH1 0x20 DUP3 ADD MSTORE PUSH1 0x40 ADD SWAP1 JUMP JUMPDEST PUSH1 0x20 PUSH1 0x40 MLOAD DUP1 DUP4 SUB DUP2 DUP7 GAS DELEGATECALL ISZERO DUP1 ISZERO PUSH2 0xF37 JUMPI RETURNDATASIZE PUSH1 0x0 DUP1 RETURNDATACOPY RETURNDATASIZE PUSH1 0x0 REVERT JUMPDEST POP POP POP POP PUSH1 0x40 MLOAD RETURNDATASIZE PUSH1 0x1F NOT PUSH1 0x1F DUP3 ADD AND DUP3 ADD DUP1 PUSH1 0x40 MSTORE POP DUP2 ADD SWAP1 PUSH2 0xF5B SWAP2 SWAP1 PUSH2 0x4F54 JUMP JUMPDEST PUSH1 0x0 SWAP1 DUP2 MSTORE PUSH1 0x6 PUSH1 0x20 MSTORE PUSH1 0x40 SWAP1 KECCAK256 SLOAD ISZERO ISZERO SWAP1 JUMP JUMPDEST ISZERO PUSH2 0xF86 JUMPI DUP1 PUSH2 0xF7E DUP2 PUSH2 0x4FC8 JUMP JUMPDEST SWAP2 POP POP PUSH2 0xE82 JUMP JUMPDEST PUSH1 0x1 DUP3 MLOAD PUSH2 0xF94 SWAP2 SWAP1 PUSH2 0x4F83 JUMP JUMPDEST DUP2 LT ISZERO PUSH2 0xFA2 JUMPI POP POP PUSH2 0xFCE JUMP JUMPDEST DUP2 DUP7 DUP6 PUSH2 0xFAE DUP2 PUSH2 0x4FC8 JUMP JUMPDEST SWAP7 POP DUP2 MLOAD DUP2 LT PUSH2 0xFC0 JUMPI PUSH2 0xFC0 PUSH2 0x4FB2 JUMP JUMPDEST PUSH1 0x20 MUL PUSH1 0x20 ADD ADD DUP2 SWAP1 MSTORE POP POP POP JUMPDEST DUP1 PUSH2 0xFD8 DUP2 PUSH2 0x4FC8 JUMP JUMPDEST SWAP2 POP POP PUSH2 0xCCE JUMP JUMPDEST POP DUP1 DUP4 MSTORE PUSH1 0x0 DUP2 GT PUSH2 0x102C JUMPI PUSH1 0x40 MLOAD PUSH3 0x461BCD PUSH1 0xE5 SHL DUP2 MSTORE PUSH1 0x20 PUSH1 0x4 DUP3 ADD MSTORE PUSH1 0x15 PUSH1 0x24 DUP3 ADD MSTORE PUSH21 0x5F6C6973745061746846726F6D20636F756E743E3 PUSH1 0x5C SHL PUSH1 0x44 DUP3 ADD MSTORE PUSH1 0x64 ADD PUSH2 0x6A3 JUMP JUMPDEST POP POP SWAP2 SWAP1 POP JUMP JUMPDEST PUSH2 0x103B PUSH2 0x2CCA JUMP JUMPDEST PUSH2 0x6AC PUSH1 0x0 PUSH2 0x2D2B JUMP JUMPDEST PUSH2 0x104D PUSH2 0x4E4 JUMP JUMPDEST PUSH2 0x6AC PUSH1 0x0 DUP1 SLOAD PUSH1 0xFF NOT AND PUSH1 0x1 OR SWAP1 SSTORE JUMP JUMPDEST PUSH1 0x0 PUSH2 0x6F5 PUSH6 0xFFFFFFFFFFFF DUP4 AND PUSH5 0x174876E800 PUSH2 0x5003 JUMP JUMPDEST PUSH1 0x0 DUP1 SLOAD PUSH1 0xFF AND DUP1 PUSH2 0x1091 JUMPI POP PUSH1 0x0 SLOAD PUSH2 0x100 SWAP1 DIV PUSH1 0xFF AND JUMPDEST SWAP1 POP SWAP1 JUMP JUMPDEST PUSH1 0x0 PUSH2 0x6F5 PUSH1 0x1 PUSH1 0x1 PUSH1 0x40 SHL SUB DUP4 AND PUSH5 0x2540BE400 PUSH2 0x5003 JUMP JUMPDEST PUSH2 0x10B8 PUSH2 0x44FC JUMP JUMPDEST PUSH1 0x40 MLOAD PUSH4 0x27BCDBC9 PUSH1 0xE1 SHL DUP2 MSTORE PUSH1 0x1 PUSH1 0x1 PUSH1 0xA0 SHL SUB DUP9 DUP2 AND PUSH1 0x4 DUP4 ADD MSTORE PUSH1 0x24 DUP3 ADD DUP9 SWAP1 MSTORE PUSH1 0x60 SWAP2 PUSH2 0x11E8 SWAP2 PUSH32 0x0 AND SWAP1 PUSH4 0x4F79B792 SWAP1 PUSH1 0x44 ADD PUSH1 0x20 PUSH1 0x40 MLOAD DUP1 DUP4 SUB DUP2 DUP7 GAS STATICCALL ISZERO DUP1 ISZERO PUSH2 0x112C JUMPI RETURNDATASIZE PUSH1 0x0 DUP1 RETURNDATACOPY RETURNDATASIZE PUSH1 0x0 REVERT JUMPDEST POP POP POP POP PUSH1 0x40 MLOAD RETURNDATASIZE PUSH1 0x1F NOT PUSH1 0x1F DUP3 ADD AND DUP3 ADD DUP1 PUSH1 0x40 MSTORE POP DUP2 ADD SWAP1 PUSH2 0x1150 SWAP2 SWAP1 PUSH2 0x4F54 JUMP JUMPDEST PUSH1 0x40 MLOAD PUSH4 0x27BCDBC9 PUSH1 0xE1 SHL DUP2 MSTORE PUSH1 0x1 PUSH1 0x1 PUSH1 0xA0 SHL SUB DUP10 DUP2 AND PUSH1 0x4 DUP4 ADD MSTORE PUSH1 0x24 DUP3 ADD DUP10 SWAP1 MSTORE PUSH32 0x0 AND SWAP1 PUSH4 0x4F79B792 SWAP1 PUSH1 0x44 ADD PUSH1 0x20 PUSH1 0x40 MLOAD DUP1 DUP4 SUB DUP2 DUP7 GAS STATICCALL ISZERO DUP1 ISZERO PUSH2 0x11BD JUMPI RETURNDATASIZE PUSH1 0x0 DUP1 RETURNDATACOPY RETURNDATASIZE PUSH1 0x0 REVERT JUMPDEST POP POP POP POP PUSH1 0x40 MLOAD RETURNDATASIZE PUSH1 0x1F NOT PUSH1 0x1F DUP3 ADD AND DUP3 ADD DUP1 PUSH1 0x40 MSTORE POP DUP2 ADD SWAP1 PUSH2 0x11E1 SWAP2 SWAP1 PUSH2 0x4F54 JUMP JUMPDEST DUP7 DUP7 PUSH2 0x149C JUMP JUMPDEST SWAP2 POP SWAP2 POP SWAP7 POP SWAP7 SWAP5 POP POP POP POP POP JUMP JUMPDEST PUSH1 0x60 PUSH1 0x0 PUSH2 0x121F PUSH1 0x40 MLOAD DUP1 PUSH1 0x60 ADD PUSH1 0x40 MSTORE DUP1 PUSH1 0x0 DUP2 MSTORE PUSH1 0x20 ADD PUSH1 0x0 DUP2 MSTORE PUSH1 0x20 ADD PUSH1 0x0 DUP2 MSTORE POP SWAP1 JUMP JUMPDEST PUSH1 0x0 DUP1 PUSH2 0x122D PUSH1 0x8 DUP8 PUSH2 0x4F83 JUMP JUMPDEST SWAP1 POP JUMPDEST DUP1 DUP3 LT ISZERO PUSH2 0x1275 JUMPI DUP7 DUP7 PUSH2 0x1245 DUP5 PUSH1 0x8 PUSH2 0x4F9A JUMP JUMPDEST DUP2 DUP2 LT PUSH2 0x1254 JUMPI PUSH2 0x1254 PUSH2 0x4FB2 JUMP JUMPDEST SWAP1 POP PUSH1 0x20 MUL ADD CALLDATALOAD PUSH1 0x0 SUB ISZERO PUSH2 0x1275 JUMPI DUP2 PUSH2 0x126D DUP2 PUSH2 0x4FC8 JUMP JUMPDEST SWAP3 POP POP PUSH2 0x1230 JUMP JUMPDEST PUSH1 0x0 DUP3 PUSH1 0x1 PUSH1 0x1 PUSH1 0x40 SHL SUB DUP2 GT ISZERO PUSH2 0x128F JUMPI PUSH2 0x128F PUSH2 0x4732 JUMP JUMPDEST PUSH1 0x40 MLOAD SWAP1 DUP1 DUP3 MSTORE DUP1 PUSH1 0x20 MUL PUSH1 0x20 ADD DUP3 ADD PUSH1 0x40 MSTORE DUP1 ISZERO PUSH2 0x12B8 JUMPI DUP2 PUSH1 0x20 ADD PUSH1 0x20 DUP3 MUL DUP1 CALLDATASIZE DUP4 CALLDATACOPY ADD SWAP1 POP JUMPDEST POP SWAP1 POP PUSH1 0x0 JUMPDEST DUP4 DUP2 LT ISZERO PUSH2 0x1318 JUMPI DUP9 DUP9 PUSH2 0x12D3 DUP4 PUSH1 0x8 PUSH2 0x4F9A JUMP JUMPDEST DUP2 DUP2 LT PUSH2 0x12E2 JUMPI PUSH2 0x12E2 PUSH2 0x4FB2 JUMP JUMPDEST SWAP1 POP PUSH1 0x20 MUL ADD CALLDATALOAD DUP3 DUP3 DUP2 MLOAD DUP2 LT PUSH2 0x12FB JUMPI PUSH2 0x12FB PUSH2 0x4FB2 JUMP JUMPDEST PUSH1 0x20 SWAP1 DUP2 MUL SWAP2 SWAP1 SWAP2 ADD ADD MSTORE DUP1 PUSH2 0x1310 DUP2 PUSH2 0x4FC8 JUMP JUMPDEST SWAP2 POP POP PUSH2 0x12BE JUMP JUMPDEST POP PUSH2 0x1488 DUP11 PUSH1 0x40 MLOAD DUP1 PUSH1 0xE0 ADD PUSH1 0x40 MSTORE DUP1 DUP13 DUP2 MSTORE PUSH1 0x20 ADD DUP12 DUP12 PUSH1 0x0 DUP2 DUP2 LT PUSH2 0x1341 JUMPI PUSH2 0x1341 PUSH2 0x4FB2 JUMP JUMPDEST SWAP1 POP PUSH1 0x20 MUL ADD CALLDATALOAD DUP2 MSTORE PUSH1 0x20 ADD DUP12 DUP12 PUSH1 0x1 DUP2 DUP2 LT PUSH2 0x1360 JUMPI PUSH2 0x1360 PUSH2 0x4FB2 JUMP JUMPDEST SWAP1 POP PUSH1 0x20 MUL ADD CALLDATALOAD DUP2 MSTORE PUSH1 0x20 ADD DUP12 DUP12 PUSH1 0x2 DUP2 DUP2 LT PUSH2 0x137F JUMPI PUSH2 0x137F PUSH2 0x4FB2 JUMP JUMPDEST SWAP1 POP PUSH1 0x20 MUL ADD CALLDATALOAD PUSH1 0x0 EQ ISZERO ISZERO ISZERO DUP2 MSTORE PUSH1 0x20 ADD DUP12 DUP12 PUSH1 0x3 DUP2 DUP2 LT PUSH2 0x13A4 JUMPI PUSH2 0x13A4 PUSH2 0x4FB2 JUMP JUMPDEST SWAP1 POP PUSH1 0x20 MUL ADD CALLDATALOAD PUSH1 0x0 EQ ISZERO ISZERO ISZERO DUP2 MSTORE PUSH1 0x20 ADD DUP12 DUP12 PUSH1 0x7 DUP2 DUP2 LT PUSH2 0x13C9 JUMPI PUSH2 0x13C9 PUSH2 0x4FB2 JUMP JUMPDEST SWAP1 POP PUSH1 0x20 MUL ADD CALLDATALOAD DUP2 MSTORE PUSH1 0x20 ADD DUP5 DUP2 MSTORE POP PUSH1 0x40 MLOAD DUP1 PUSH1 0x80 ADD PUSH1 0x40 MSTORE DUP1 DUP13 DUP13 PUSH1 0x5 DUP2 DUP2 LT PUSH2 0x13F7 JUMPI PUSH2 0x13F7 PUSH2 0x4FB2 JUMP JUMPDEST SWAP1 POP PUSH1 0x20 MUL ADD CALLDATALOAD DUP2 MSTORE PUSH1 0x20 ADD DUP13 DUP13 PUSH1 0x6 DUP2 DUP2 LT PUSH2 0x1416 JUMPI PUSH2 0x1416 PUSH2 0x4FB2 JUMP JUMPDEST SWAP1 POP PUSH1 0x20 MUL ADD CALLDATALOAD DUP2 MSTORE PUSH1 0x20 ADD DUP13 DUP13 PUSH1 0x4 DUP2 DUP2 LT PUSH2 0x1435 JUMPI PUSH2 0x1435 PUSH2 0x4FB2 JUMP JUMPDEST PUSH1 0x20 SWAP1 DUP2 MUL SWAP3 SWAP1 SWAP3 ADD CALLDATALOAD DUP4 MSTORE POP ADD PUSH1 0x0 PUSH1 0x40 MLOAD SWAP1 DUP1 DUP3 MSTORE DUP1 PUSH1 0x20 MUL PUSH1 0x20 ADD DUP3 ADD PUSH1 0x40 MSTORE DUP1 ISZERO PUSH2 0x147E JUMPI DUP2 PUSH1 0x20 ADD JUMPDEST PUSH2 0x146B PUSH2 0x4546 JUMP JUMPDEST DUP2 MSTORE PUSH1 0x20 ADD SWAP1 PUSH1 0x1 SWAP1 SUB SWAP1 DUP2 PUSH2 0x1463 JUMPI SWAP1 POP JUMPDEST POP SWAP1 MSTORE PUSH1 0x0 PUSH2 0x2D86 JUMP JUMPDEST SWAP6 POP SWAP6 POP SWAP6 POP POP POP POP JUMPDEST SWAP5 POP SWAP5 POP SWAP5 SWAP2 POP POP JUMP JUMPDEST PUSH2 0x14A4 PUSH2 0x44FC JUMP JUMPDEST DUP2 MLOAD PUSH1 0x60 SWAP1 PUSH1 0x20 DUP2 GT ISZERO PUSH2 0x14FA JUMPI PUSH1 0x40 MLOAD PUSH3 0x461BCD PUSH1 0xE5 SHL DUP2 MSTORE PUSH1 0x20 PUSH1 0x4 DUP3 ADD MSTORE PUSH1 0x1D PUSH1 0x24 DUP3 ADD MSTORE PUSH32 0x64656C6976657279206172726179206D61782073697A65206973203332000000 PUSH1 0x44 DUP3 ADD MSTORE PUSH1 0x64 ADD PUSH2 0x6A3 JUMP JUMPDEST PUSH2 0x1502 PUSH2 0x460E JUMP JUMPDEST DUP6 MLOAD DUP2 MSTORE PUSH1 0x20 DUP1 DUP8 ADD MLOAD SWAP1 DUP3 ADD MSTORE PUSH1 0x40 DUP7 ADD MLOAD PUSH2 0x1520 JUMPI PUSH1 0x0 PUSH2 0x1523 JUMP JUMPDEST PUSH1 0x1 JUMPDEST PUSH1 0xFF AND PUSH1 0x40 DUP3 ADD MSTORE PUSH1 0x60 DUP7 ADD MLOAD PUSH2 0x153B JUMPI PUSH1 0x0 PUSH2 0x153E JUMP JUMPDEST PUSH1 0x1 JUMPDEST PUSH1 0xFF AND PUSH1 0x60 DUP3 ADD MSTORE PUSH1 0x80 DUP7 DUP2 ADD MLOAD SWAP1 DUP3 ADD MSTORE PUSH1 0xA0 DUP1 DUP8 ADD MLOAD SWAP1 DUP3 ADD MSTORE PUSH1 0xC0 DUP1 DUP8 ADD MLOAD SWAP1 DUP3 ADD MSTORE PUSH1 0xE0 DUP1 DUP8 ADD MLOAD SWAP1 DUP3 ADD MSTORE PUSH1 0x8 PUSH1 0x0 JUMPDEST DUP4 DUP2 LT ISZERO PUSH2 0x15EC JUMPI DUP7 DUP2 DUP2 MLOAD DUP2 LT PUSH2 0x158D JUMPI PUSH2 0x158D PUSH2 0x4FB2 JUMP JUMPDEST PUSH1 0x20 MUL PUSH1 0x20 ADD ADD MLOAD PUSH1 0x0 EQ PUSH2 0x15DA JUMPI DUP7 DUP2 DUP2 MLOAD DUP2 LT PUSH2 0x15AE JUMPI PUSH2 0x15AE PUSH2 0x4FB2 JUMP JUMPDEST PUSH1 0x20 MUL PUSH1 0x20 ADD ADD MLOAD DUP4 DUP4 DUP1 PUSH2 0x15C2 SWAP1 PUSH2 0x4FC8 JUMP JUMPDEST SWAP5 POP PUSH1 0x28 DUP2 LT PUSH2 0x15D4 JUMPI PUSH2 0x15D4 PUSH2 0x4FB2 JUMP JUMPDEST PUSH1 0x20 MUL ADD MSTORE JUMPDEST DUP1 PUSH2 0x15E4 DUP2 PUSH2 0x4FC8 JUMP JUMPDEST SWAP2 POP POP PUSH2 0x1573 JUMP JUMPDEST POP POP PUSH1 0x40 MLOAD PUSH4 0x23AA9AB PUSH1 0xE6 SHL DUP2 MSTORE PUSH32 0x2E7A327EF83C2AF7579C6634F2F5604519800C5F07626F27BD602FD11ED8E6EC PUSH1 0x4 DUP3 ADD MSTORE PUSH1 0x0 SWAP1 PUSH32 0x0 PUSH1 0x1 PUSH1 0x1 PUSH1 0xA0 SHL SUB AND SWAP1 PUSH4 0x8EAA6AC0 SWAP1 PUSH1 0x24 ADD PUSH1 0x20 PUSH1 0x40 MLOAD DUP1 DUP4 SUB DUP2 DUP7 GAS STATICCALL ISZERO DUP1 ISZERO PUSH2 0x1675 JUMPI RETURNDATASIZE PUSH1 0x0 DUP1 RETURNDATACOPY RETURNDATASIZE PUSH1 0x0 REVERT JUMPDEST POP POP POP POP PUSH1 0x40 MLOAD RETURNDATASIZE PUSH1 0x1F NOT PUSH1 0x1F DUP3 ADD AND DUP3 ADD DUP1 PUSH1 0x40 MSTORE POP DUP2 ADD SWAP1 PUSH2 0x1699 SWAP2 SWAP1 PUSH2 0x50C7 JUMP JUMPDEST PUSH1 0x1 PUSH1 0x1 PUSH1 0xA0 SHL SUB AND PUSH32 0xA3550AABEEA45F9D515C45EA5DADCD6EFBE5A3C73AB07644F630DE564C6515A ADDRESS DUP12 DUP12 PUSH1 0x60 PUSH1 0x28 DUP9 PUSH1 0x40 MLOAD PUSH1 0x24 ADD PUSH2 0x16E0 SWAP7 SWAP6 SWAP5 SWAP4 SWAP3 SWAP2 SWAP1 PUSH2 0x50E4 JUMP JUMPDEST PUSH1 0x40 DUP1 MLOAD PUSH1 0x1F NOT DUP2 DUP5 SUB ADD DUP2 MSTORE SWAP2 DUP2 MSTORE PUSH1 0x20 DUP3 ADD DUP1 MLOAD PUSH1 0x1 PUSH1 0x1 PUSH1 0xE0 SHL SUB AND PUSH1 0x1 PUSH1 0x1 PUSH1 0xE0 SHL SUB NOT SWAP1 SWAP5 AND SWAP4 SWAP1 SWAP4 OR SWAP1 SWAP3 MSTORE SWAP1 MLOAD PUSH2 0x171E SWAP2 SWAP1 PUSH2 0x5147 JUMP JUMPDEST PUSH1 0x0 PUSH1 0x40 MLOAD DUP1 DUP4 SUB DUP2 DUP6 GAS STATICCALL SWAP2 POP POP RETURNDATASIZE DUP1 PUSH1 0x0 DUP2 EQ PUSH2 0x1759 JUMPI PUSH1 0x40 MLOAD SWAP2 POP PUSH1 0x1F NOT PUSH1 0x3F RETURNDATASIZE ADD AND DUP3 ADD PUSH1 0x40 MSTORE RETURNDATASIZE DUP3 MSTORE RETURNDATASIZE PUSH1 0x0 PUSH1 0x20 DUP5 ADD RETURNDATACOPY PUSH2 0x175E JUMP JUMPDEST PUSH1 0x60 SWAP2 POP JUMPDEST POP POP SWAP1 POP PUSH2 0x176B DUP2 PUSH2 0x6AE JUMP JUMPDEST POP POP POP SWAP5 POP SWAP5 SWAP3 POP POP POP JUMP JUMPDEST PUSH2 0x177F PUSH2 0x2CCA JUMP JUMPDEST PUSH2 0x6AC PUSH1 0x0 DUP1 SLOAD PUSH2 0xFF00 NOT AND PUSH2 0x100 OR SWAP1 SSTORE JUMP JUMPDEST PUSH1 0x0 PUSH2 0x6F5 PUSH4 0xFFFFFFFF DUP4 AND PUSH5 0xE8D4A51000 PUSH2 0x5003 JUMP JUMPDEST PUSH1 0x60 PUSH1 0x0 PUSH2 0x17D2 PUSH1 0x40 MLOAD DUP1 PUSH1 0x60 ADD PUSH1 0x40 MSTORE DUP1 PUSH1 0x0 DUP2 MSTORE PUSH1 0x20 ADD PUSH1 0x0 DUP2 MSTORE PUSH1 0x20 ADD PUSH1 0x0 DUP2 MSTORE POP SWAP1 JUMP JUMPDEST DUP4 MLOAD PUSH1 0x20 DUP2 GT ISZERO PUSH2 0x1825 JUMPI PUSH1 0x40 MLOAD PUSH3 0x461BCD PUSH1 0xE5 SHL DUP2 MSTORE PUSH1 0x20 PUSH1 0x4 DUP3 ADD MSTORE PUSH1 0x1D PUSH1 0x24 DUP3 ADD MSTORE PUSH32 0x64656C6976657279206172726179206D61782073697A65206973203332000000 PUSH1 0x44 DUP3 ADD MSTORE PUSH1 0x64 ADD PUSH2 0x6A3 JUMP JUMPDEST PUSH2 0x182D PUSH2 0x460E JUMP JUMPDEST DUP7 MLOAD DUP2 MSTORE PUSH1 0x20 DUP1 DUP9 ADD MLOAD SWAP1 DUP3 ADD MSTORE PUSH1 0x40 DUP8 ADD MLOAD PUSH2 0x184B JUMPI PUSH1 0x0 PUSH2 0x184E JUMP JUMPDEST PUSH1 0x1 JUMPDEST PUSH1 0xFF AND PUSH1 0x40 DUP3 ADD MSTORE PUSH1 0x60 DUP8 ADD MLOAD PUSH2 0x1866 JUMPI PUSH1 0x0 PUSH2 0x1869 JUMP JUMPDEST PUSH1 0x1 JUMPDEST PUSH1 0xFF AND PUSH1 0x60 DUP3 ADD MSTORE PUSH1 0x80 DUP8 DUP2 ADD MLOAD SWAP1 DUP3 ADD MSTORE PUSH1 0xA0 DUP1 DUP9 ADD MLOAD SWAP1 DUP3 ADD MSTORE PUSH1 0xC0 DUP1 DUP9 ADD MLOAD SWAP1 DUP3 ADD MSTORE PUSH1 0xE0 DUP1 DUP9 ADD MLOAD SWAP1 DUP3 ADD MSTORE PUSH1 0x8 PUSH1 0x0 JUMPDEST DUP4 DUP2 LT ISZERO PUSH2 0x1917 JUMPI DUP8 DUP2 DUP2 MLOAD DUP2 LT PUSH2 0x18B8 JUMPI PUSH2 0x18B8 PUSH2 0x4FB2 JUMP JUMPDEST PUSH1 0x20 MUL PUSH1 0x20 ADD ADD MLOAD PUSH1 0x0 EQ PUSH2 0x1905 JUMPI DUP8 DUP2 DUP2 MLOAD DUP2 LT PUSH2 0x18D9 JUMPI PUSH2 0x18D9 PUSH2 0x4FB2 JUMP JUMPDEST PUSH1 0x20 MUL PUSH1 0x20 ADD ADD MLOAD DUP4 DUP4 DUP1 PUSH2 0x18ED SWAP1 PUSH2 0x4FC8 JUMP JUMPDEST SWAP5 POP PUSH1 0x28 DUP2 LT PUSH2 0x18FF JUMPI PUSH2 0x18FF PUSH2 0x4FB2 JUMP JUMPDEST PUSH1 0x20 MUL ADD MSTORE JUMPDEST DUP1 PUSH2 0x190F DUP2 PUSH2 0x4FC8 JUMP JUMPDEST SWAP2 POP POP PUSH2 0x189E JUMP JUMPDEST POP POP PUSH1 0x40 MLOAD PUSH4 0x23AA9AB PUSH1 0xE6 SHL DUP2 MSTORE PUSH32 0x2E7A327EF83C2AF7579C6634F2F5604519800C5F07626F27BD602FD11ED8E6EC PUSH1 0x4 DUP3 ADD MSTORE PUSH1 0x0 SWAP1 PUSH32 0x0 PUSH1 0x1 PUSH1 0x1 PUSH1 0xA0 SHL SUB AND SWAP1 PUSH4 0x8EAA6AC0 SWAP1 PUSH1 0x24 ADD PUSH1 0x20 PUSH1 0x40 MLOAD DUP1 DUP4 SUB DUP2 DUP7 GAS STATICCALL ISZERO DUP1 ISZERO PUSH2 0x19A0 JUMPI RETURNDATASIZE PUSH1 0x0 DUP1 RETURNDATACOPY RETURNDATASIZE PUSH1 0x0 REVERT JUMPDEST POP POP POP POP PUSH1 0x40 MLOAD RETURNDATASIZE PUSH1 0x1F NOT PUSH1 0x1F DUP3 ADD AND DUP3 ADD DUP1 PUSH1 0x40 MSTORE POP DUP2 ADD SWAP1 PUSH2 0x19C4 SWAP2 SWAP1 PUSH2 0x50C7 JUMP JUMPDEST PUSH1 0x1 PUSH1 0x1 PUSH1 0xA0 SHL SUB AND PUSH32 0xBD0ADE2BCAE368FCA26BB02146561A2830136BF30C4A34C648255FCCEBBE2254 ADDRESS DUP13 DUP13 PUSH1 0x60 PUSH1 0x28 DUP9 PUSH1 0x40 MLOAD PUSH1 0x24 ADD PUSH2 0x1A0B SWAP7 SWAP6 SWAP5 SWAP4 SWAP3 SWAP2 SWAP1 PUSH2 0x50E4 JUMP JUMPDEST PUSH1 0x40 DUP1 MLOAD PUSH1 0x1F NOT DUP2 DUP5 SUB ADD DUP2 MSTORE SWAP2 DUP2 MSTORE PUSH1 0x20 DUP3 ADD DUP1 MLOAD PUSH1 0x1 PUSH1 0x1 PUSH1 0xE0 SHL SUB AND PUSH1 0x1 PUSH1 0x1 PUSH1 0xE0 SHL SUB NOT SWAP1 SWAP5 AND SWAP4 SWAP1 SWAP4 OR SWAP1 SWAP3 MSTORE SWAP1 MLOAD PUSH2 0x1A49 SWAP2 SWAP1 PUSH2 0x5147 JUMP JUMPDEST PUSH1 0x0 PUSH1 0x40 MLOAD DUP1 DUP4 SUB DUP2 DUP6 GAS STATICCALL SWAP2 POP POP RETURNDATASIZE DUP1 PUSH1 0x0 DUP2 EQ PUSH2 0x1A84 JUMPI PUSH1 0x40 MLOAD SWAP2 POP PUSH1 0x1F NOT PUSH1 0x3F RETURNDATASIZE ADD AND DUP3 ADD PUSH1 0x40 MSTORE RETURNDATASIZE DUP3 MSTORE RETURNDATASIZE PUSH1 0x0 PUSH1 0x20 DUP5 ADD RETURNDATACOPY PUSH2 0x1A89 JUMP JUMPDEST PUSH1 0x60 SWAP2 POP JUMPDEST POP POP SWAP1 POP PUSH2 0x1A96 DUP2 PUSH2 0x6AE JUMP JUMPDEST POP POP POP SWAP5 POP SWAP5 POP SWAP5 SWAP2 POP POP JUMP JUMPDEST PUSH2 0x1AAB PUSH2 0x2CCA JUMP JUMPDEST PUSH1 0x1 PUSH1 0x1 PUSH1 0xA0 SHL SUB DUP2 AND PUSH2 0x1B10 JUMPI PUSH1 0x40 MLOAD PUSH3 0x461BCD PUSH1 0xE5 SHL DUP2 MSTORE PUSH1 0x20 PUSH1 0x4 DUP3 ADD MSTORE PUSH1 0x26 PUSH1 0x24 DUP3 ADD MSTORE PUSH32 0x4F776E61626C653A206E6577206F776E657220697320746865207A65726F2061 PUSH1 0x44 DUP3 ADD MSTORE PUSH6 0x646472657373 PUSH1 0xD0 SHL PUSH1 0x64 DUP3 ADD MSTORE PUSH1 0x84 ADD PUSH2 0x6A3 JUMP JUMPDEST PUSH2 0x1B19 DUP2 PUSH2 0x2D2B JUMP JUMPDEST POP JUMP JUMPDEST PUSH1 0x0 PUSH2 0x6F5 PUSH5 0x174876E800 DUP4 PUSH2 0x4FE1 JUMP JUMPDEST PUSH2 0x1B35 PUSH2 0x44FC JUMP JUMPDEST DUP2 PUSH2 0x1B3E PUSH2 0x44FC JUMP JUMPDEST PUSH1 0x0 PUSH2 0x1B4E DUP9 DUP9 PUSH1 0x0 ADD MLOAD PUSH2 0x334E JUMP JUMPDEST DUP1 MLOAD SWAP1 SWAP2 POP PUSH1 0x0 JUMPDEST DUP2 DUP2 LT ISZERO PUSH2 0x1CFD JUMPI PUSH2 0x1B66 PUSH2 0x462D JUMP JUMPDEST PUSH2 0x1BF2 DUP5 DUP4 DUP2 MLOAD DUP2 LT PUSH2 0x1B7B JUMPI PUSH2 0x1B7B PUSH2 0x4FB2 JUMP JUMPDEST PUSH1 0x20 MUL PUSH1 0x20 ADD ADD MLOAD PUSH1 0x2 DUP7 DUP6 DUP2 MLOAD DUP2 LT PUSH2 0x1B97 JUMPI PUSH2 0x1B97 PUSH2 0x4FB2 JUMP JUMPDEST PUSH1 0x20 MUL PUSH1 0x20 ADD ADD MLOAD MLOAD PUSH2 0x1BAA SWAP2 SWAP1 PUSH2 0x4F83 JUMP JUMPDEST DUP2 MLOAD DUP2 LT PUSH2 0x1BBA JUMPI PUSH2 0x1BBA PUSH2 0x4FB2 JUMP JUMPDEST PUSH1 0x20 MUL PUSH1 0x20 ADD ADD MLOAD DUP12 PUSH1 0x40 MLOAD DUP1 PUSH1 0x80 ADD PUSH1 0x40 MSTORE DUP1 PUSH1 0x0 DUP2 MSTORE PUSH1 0x20 ADD PUSH1 0x0 DUP2 MSTORE PUSH1 0x20 ADD PUSH1 0x0 DUP2 MSTORE PUSH1 0x20 ADD DUP14 PUSH1 0x60 ADD MLOAD DUP2 MSTORE POP PUSH1 0x0 PUSH2 0x2D86 JUMP JUMPDEST PUSH1 0x40 DUP5 ADD MSTORE PUSH1 0x20 DUP4 ADD DUP2 SWAP1 MSTORE PUSH1 0x0 SUB SWAP1 POP PUSH2 0x1C0D JUMPI POP PUSH2 0x1CEB JUMP JUMPDEST DUP4 DUP3 DUP2 MLOAD DUP2 LT PUSH2 0x1C1F JUMPI PUSH2 0x1C1F PUSH2 0x4FB2 JUMP JUMPDEST PUSH1 0x20 SWAP1 DUP2 MUL SWAP2 SWAP1 SWAP2 ADD ADD MLOAD DUP2 MSTORE PUSH20 0x0 PUSH4 0x7513CE1B DUP7 DUP4 PUSH1 0x0 PUSH1 0x40 MLOAD SWAP1 DUP1 DUP3 MSTORE DUP1 PUSH1 0x20 MUL PUSH1 0x20 ADD DUP3 ADD PUSH1 0x40 MSTORE DUP1 ISZERO PUSH2 0x1C83 JUMPI DUP2 PUSH1 0x20 ADD JUMPDEST PUSH2 0x1C70 PUSH2 0x4546 JUMP JUMPDEST DUP2 MSTORE PUSH1 0x20 ADD SWAP1 PUSH1 0x1 SWAP1 SUB SWAP1 DUP2 PUSH2 0x1C68 JUMPI SWAP1 POP JUMPDEST POP PUSH1 0x40 MLOAD DUP5 PUSH4 0xFFFFFFFF AND PUSH1 0xE0 SHL DUP2 MSTORE PUSH1 0x4 ADD PUSH2 0x1CA2 SWAP4 SWAP3 SWAP2 SWAP1 PUSH2 0x5341 JUMP JUMPDEST PUSH1 0x0 PUSH1 0x40 MLOAD DUP1 DUP4 SUB DUP2 DUP7 GAS DELEGATECALL ISZERO DUP1 ISZERO PUSH2 0x1CBF JUMPI RETURNDATASIZE PUSH1 0x0 DUP1 RETURNDATACOPY RETURNDATASIZE PUSH1 0x0 REVERT JUMPDEST POP POP POP POP PUSH1 0x40 MLOAD RETURNDATASIZE PUSH1 0x0 DUP3 RETURNDATACOPY PUSH1 0x1F RETURNDATASIZE SWAP1 DUP2 ADD PUSH1 0x1F NOT AND DUP3 ADD PUSH1 0x40 MSTORE PUSH2 0x1CE7 SWAP2 SWAP1 DUP2 ADD SWAP1 PUSH2 0x556E JUMP JUMPDEST SWAP5 POP POP JUMPDEST DUP1 PUSH2 0x1CF5 DUP2 PUSH2 0x4FC8 JUMP JUMPDEST SWAP2 POP POP PUSH2 0x1B56 JUMP JUMPDEST POP POP POP PUSH1 0x40 DUP2 ADD MLOAD MLOAD PUSH1 0x0 DUP2 SWAP1 SUB PUSH2 0x1D16 JUMPI POP POP PUSH2 0xB2F JUMP JUMPDEST PUSH2 0x1D1E PUSH2 0x4685 JUMP JUMPDEST DUP8 MLOAD DUP2 MSTORE PUSH1 0x20 DUP1 DUP10 ADD MLOAD DUP2 DUP4 ADD MSTORE PUSH1 0x40 DUP1 DUP11 ADD MLOAD DUP2 DUP5 ADD MSTORE PUSH1 0x60 DUP1 DUP12 ADD MLOAD ISZERO ISZERO DUP2 DUP6 ADD MSTORE PUSH1 0x80 DUP1 DUP13 ADD MLOAD ISZERO ISZERO DUP2 DUP7 ADD MSTORE PUSH1 0xA0 DUP1 DUP14 ADD MLOAD SWAP1 DUP7 ADD MSTORE PUSH1 0xC0 DUP1 DUP14 ADD MLOAD SWAP1 DUP7 ADD MSTORE DUP3 MLOAD SWAP1 DUP2 ADD DUP4 MSTORE PUSH1 0x0 DUP1 DUP3 MSTORE DUP2 DUP6 ADD DUP2 DUP2 MSTORE DUP3 DUP6 ADD DUP3 DUP2 MSTORE DUP4 DUP6 ADD DUP6 DUP2 MSTORE DUP15 MLOAD DUP6 MSTORE SWAP7 DUP15 ADD MLOAD SWAP1 SWAP2 MSTORE SWAP4 DUP13 ADD MLOAD SWAP1 SWAP4 MSTORE SWAP1 DUP11 ADD MLOAD SWAP1 SWAP3 MSTORE DUP4 PUSH1 0x1 PUSH1 0x1 PUSH1 0x40 SHL SUB DUP2 GT ISZERO PUSH2 0x1DB1 JUMPI PUSH2 0x1DB1 PUSH2 0x4732 JUMP JUMPDEST PUSH1 0x40 MLOAD SWAP1 DUP1 DUP3 MSTORE DUP1 PUSH1 0x20 MUL PUSH1 0x20 ADD DUP3 ADD PUSH1 0x40 MSTORE DUP1 ISZERO PUSH2 0x1DEA JUMPI DUP2 PUSH1 0x20 ADD JUMPDEST PUSH2 0x1DD7 PUSH2 0x44FC JUMP JUMPDEST DUP2 MSTORE PUSH1 0x20 ADD SWAP1 PUSH1 0x1 SWAP1 SUB SWAP1 DUP2 PUSH2 0x1DCF JUMPI SWAP1 POP JUMPDEST POP SWAP1 POP PUSH1 0x0 JUMPDEST DUP10 MLOAD DUP4 MSTORE PUSH1 0x1 PUSH1 0xA0 DUP6 ADD MSTORE PUSH1 0x0 JUMPDEST DUP6 DUP2 LT ISZERO PUSH2 0x1EEF JUMPI PUSH2 0x1E33 DUP8 PUSH1 0x40 ADD MLOAD DUP3 DUP2 MLOAD DUP2 LT PUSH2 0x1E1F JUMPI PUSH2 0x1E1F PUSH2 0x4FB2 JUMP JUMPDEST PUSH1 0x20 MUL PUSH1 0x20 ADD ADD MLOAD PUSH1 0x0 ADD MLOAD DUP7 DUP7 DUP12 PUSH2 0x373A JUMP JUMPDEST DUP4 DUP3 DUP2 MLOAD DUP2 LT PUSH2 0x1E45 JUMPI PUSH2 0x1E45 PUSH2 0x4FB2 JUMP JUMPDEST PUSH1 0x20 MUL PUSH1 0x20 ADD ADD DUP2 SWAP1 MSTORE POP PUSH1 0x1 DUP4 DUP3 DUP2 MLOAD DUP2 LT PUSH2 0x1E64 JUMPI PUSH2 0x1E64 PUSH2 0x4FB2 JUMP JUMPDEST PUSH1 0x20 MUL PUSH1 0x20 ADD ADD MLOAD PUSH1 0x40 ADD MLOAD MLOAD GT ISZERO PUSH2 0x1EDD JUMPI PUSH1 0x40 MLOAD PUSH3 0x461BCD PUSH1 0xE5 SHL DUP2 MSTORE PUSH1 0x20 PUSH1 0x4 DUP3 ADD MSTORE PUSH1 0x35 PUSH1 0x24 DUP3 ADD MSTORE PUSH32 0x504152414E4F4941205F5F73656172636843466F6C6C6F77506174682073686F PUSH1 0x44 DUP3 ADD MSTORE PUSH21 0x756C642072657475726E206D617820312064657363 PUSH1 0x58 SHL PUSH1 0x64 DUP3 ADD MSTORE PUSH1 0x84 ADD PUSH2 0x6A3 JUMP JUMPDEST DUP1 PUSH2 0x1EE7 DUP2 PUSH2 0x4FC8 JUMP JUMPDEST SWAP2 POP POP PUSH2 0x1DFE JUMP JUMPDEST POP PUSH1 0x0 NOT PUSH1 0x0 DUP1 DUP1 JUMPDEST DUP9 DUP2 LT ISZERO PUSH2 0x204B JUMPI DUP6 DUP2 DUP2 MLOAD DUP2 LT PUSH2 0x1F12 JUMPI PUSH2 0x1F12 PUSH2 0x4FB2 JUMP JUMPDEST PUSH1 0x20 MUL PUSH1 0x20 ADD ADD MLOAD PUSH1 0x0 ADD MLOAD PUSH1 0x0 SUB ISZERO PUSH2 0x2039 JUMPI PUSH1 0x0 NOT DUP5 EQ DUP1 PUSH2 0x1F56 JUMPI POP DUP6 DUP2 DUP2 MLOAD DUP2 LT PUSH2 0x1F43 JUMPI PUSH2 0x1F43 PUSH2 0x4FB2 JUMP JUMPDEST PUSH1 0x20 MUL PUSH1 0x20 ADD ADD MLOAD PUSH1 0x20 ADD MLOAD PUSH1 0x0 ADD MLOAD DUP4 GT JUMPDEST ISZERO PUSH2 0x1FEB JUMPI PUSH1 0x0 NOT DUP5 EQ ISZERO DUP1 ISZERO PUSH2 0x1F8D JUMPI POP DUP6 DUP2 DUP2 MLOAD DUP2 LT PUSH2 0x1F7A JUMPI PUSH2 0x1F7A PUSH2 0x4FB2 JUMP JUMPDEST PUSH1 0x20 MUL PUSH1 0x20 ADD ADD MLOAD PUSH1 0x20 ADD MLOAD PUSH1 0x40 ADD MLOAD DUP4 LT JUMPDEST ISZERO PUSH2 0x1F9A JUMPI DUP3 SWAP2 POP PUSH2 0x1FBF JUMP JUMPDEST DUP6 DUP2 DUP2 MLOAD DUP2 LT PUSH2 0x1FAC JUMPI PUSH2 0x1FAC PUSH2 0x4FB2 JUMP JUMPDEST PUSH1 0x20 MUL PUSH1 0x20 ADD ADD MLOAD PUSH1 0x20 ADD MLOAD PUSH1 0x40 ADD MLOAD SWAP2 POP JUMPDEST DUP1 SWAP4 POP DUP6 DUP2 DUP2 MLOAD DUP2 LT PUSH2 0x1FD4 JUMPI PUSH2 0x1FD4 PUSH2 0x4FB2 JUMP JUMPDEST PUSH1 0x20 MUL PUSH1 0x20 ADD ADD MLOAD PUSH1 0x20 ADD MLOAD PUSH1 0x0 ADD MLOAD SWAP3 POP PUSH2 0x2039 JUMP JUMPDEST DUP6 DUP2 DUP2 MLOAD DUP2 LT PUSH2 0x1FFD JUMPI PUSH2 0x1FFD PUSH2 0x4FB2 JUMP JUMPDEST PUSH1 0x20 MUL PUSH1 0x20 ADD ADD MLOAD PUSH1 0x20 ADD MLOAD PUSH1 0x0 ADD MLOAD DUP3 GT ISZERO PUSH2 0x2039 JUMPI DUP6 DUP2 DUP2 MLOAD DUP2 LT PUSH2 0x2026 JUMPI PUSH2 0x2026 PUSH2 0x4FB2 JUMP JUMPDEST PUSH1 0x20 MUL PUSH1 0x20 ADD ADD MLOAD PUSH1 0x20 ADD MLOAD PUSH1 0x0 ADD MLOAD SWAP2 POP JUMPDEST DUP1 PUSH2 0x2043 DUP2 PUSH2 0x4FC8 JUMP JUMPDEST SWAP2 POP POP PUSH2 0x1EF8 JUMP JUMPDEST POP PUSH1 0x0 NOT DUP4 SUB PUSH2 0x205D JUMPI POP POP POP PUSH2 0x254E JUMP JUMPDEST DUP6 MSTORE POP PUSH2 0x2068 PUSH2 0x44FC JUMP JUMPDEST PUSH2 0x2095 DUP9 PUSH1 0x40 ADD MLOAD DUP4 DUP2 MLOAD DUP2 LT PUSH2 0x2081 JUMPI PUSH2 0x2081 PUSH2 0x4FB2 JUMP JUMPDEST PUSH1 0x20 MUL PUSH1 0x20 ADD ADD MLOAD PUSH1 0x0 ADD MLOAD DUP8 DUP8 DUP13 PUSH2 0x373A JUMP JUMPDEST SWAP1 POP DUP1 PUSH1 0x40 ADD MLOAD MLOAD PUSH1 0x1 EQ PUSH2 0x2106 JUMPI PUSH1 0x40 MLOAD PUSH3 0x461BCD PUSH1 0xE5 SHL DUP2 MSTORE PUSH1 0x20 PUSH1 0x4 DUP3 ADD MSTORE PUSH1 0x31 PUSH1 0x24 DUP3 ADD MSTORE PUSH32 0x504152414E4F4941205F5F73656172636843466F6C6C6F77506174682073686F PUSH1 0x44 DUP3 ADD MSTORE PUSH17 0x756C642072657475726E20312064657363 PUSH1 0x78 SHL PUSH1 0x64 DUP3 ADD MSTORE PUSH1 0x84 ADD PUSH2 0x6A3 JUMP JUMPDEST DUP1 MLOAD PUSH1 0x0 SUB PUSH2 0x214F JUMPI PUSH1 0x40 MLOAD PUSH3 0x461BCD PUSH1 0xE5 SHL DUP2 MSTORE PUSH1 0x20 PUSH1 0x4 DUP3 ADD MSTORE PUSH1 0x15 PUSH1 0x24 DUP3 ADD MSTORE PUSH21 0x6966202873656C65637465642E717479203D3D3029 PUSH1 0x58 SHL PUSH1 0x44 DUP3 ADD MSTORE PUSH1 0x64 ADD PUSH2 0x6A3 JUMP JUMPDEST PUSH1 0x40 MLOAD PUSH4 0x9FAB220F PUSH1 0xE0 SHL DUP2 MSTORE PUSH20 0x0 SWAP1 PUSH4 0x9FAB220F SWAP1 PUSH2 0x2188 SWAP1 DUP14 SWAP1 DUP6 SWAP1 PUSH1 0x4 ADD PUSH2 0x5688 JUMP JUMPDEST PUSH1 0x0 PUSH1 0x40 MLOAD DUP1 DUP4 SUB DUP2 DUP7 GAS DELEGATECALL ISZERO DUP1 ISZERO PUSH2 0x21A5 JUMPI RETURNDATASIZE PUSH1 0x0 DUP1 RETURNDATACOPY RETURNDATASIZE PUSH1 0x0 REVERT JUMPDEST POP POP POP POP PUSH1 0x40 MLOAD RETURNDATASIZE PUSH1 0x0 DUP3 RETURNDATACOPY PUSH1 0x1F RETURNDATASIZE SWAP1 DUP2 ADD PUSH1 0x1F NOT AND DUP3 ADD PUSH1 0x40 MSTORE PUSH2 0x21CD SWAP2 SWAP1 DUP2 ADD SWAP1 PUSH2 0x556E JUMP JUMPDEST SWAP10 POP DUP1 PUSH1 0x60 ADD MLOAD MLOAD DUP4 PUSH2 0x21E0 SWAP2 SWAP1 PUSH2 0x4F9A JUMP JUMPDEST SWAP3 POP DUP1 PUSH1 0x40 ADD MLOAD PUSH1 0x0 DUP2 MLOAD DUP2 LT PUSH2 0x21F9 JUMPI PUSH2 0x21F9 PUSH2 0x4FB2 JUMP JUMPDEST PUSH1 0x20 MUL PUSH1 0x20 ADD ADD MLOAD PUSH1 0xA0 ADD MLOAD MLOAD PUSH1 0x0 EQ PUSH2 0x2286 JUMPI DUP1 PUSH1 0x40 ADD MLOAD PUSH1 0x0 DUP2 MLOAD DUP2 LT PUSH2 0x2224 JUMPI PUSH2 0x2224 PUSH2 0x4FB2 JUMP JUMPDEST PUSH1 0x20 MUL PUSH1 0x20 ADD ADD MLOAD PUSH1 0xA0 ADD MLOAD PUSH1 0x1 DUP3 PUSH1 0x40 ADD MLOAD PUSH1 0x0 DUP2 MLOAD DUP2 LT PUSH2 0x2249 JUMPI PUSH2 0x2249 PUSH2 0x4FB2 JUMP JUMPDEST PUSH1 0x20 MUL PUSH1 0x20 ADD ADD MLOAD PUSH1 0xA0 ADD MLOAD MLOAD PUSH2 0x2260 SWAP2 SWAP1 PUSH2 0x4F83 JUMP JUMPDEST DUP2 MLOAD DUP2 LT PUSH2 0x2270 JUMPI PUSH2 0x2270 PUSH2 0x4FB2 JUMP JUMPDEST PUSH1 0x20 MUL PUSH1 0x20 ADD ADD MLOAD DUP4 PUSH2 0x2283 SWAP2 SWAP1 PUSH2 0x4F83 JUMP JUMPDEST SWAP3 POP JUMPDEST DUP9 PUSH20 0x0 PUSH4 0x7071133E SWAP1 SWAP2 DUP4 PUSH1 0x40 ADD MLOAD PUSH1 0x0 DUP2 MLOAD DUP2 LT PUSH2 0x22BA JUMPI PUSH2 0x22BA PUSH2 0x4FB2 JUMP JUMPDEST PUSH1 0x20 MUL PUSH1 0x20 ADD ADD MLOAD DUP5 PUSH1 0x60 ADD MLOAD PUSH1 0x40 MLOAD DUP5 PUSH4 0xFFFFFFFF AND PUSH1 0xE0 SHL DUP2 MSTORE PUSH1 0x4 ADD PUSH2 0x22E5 SWAP4 SWAP3 SWAP2 SWAP1 PUSH2 0x56AD JUMP JUMPDEST PUSH1 0x0 PUSH1 0x40 MLOAD DUP1 DUP4 SUB DUP2 DUP7 GAS DELEGATECALL ISZERO DUP1 ISZERO PUSH2 0x2302 JUMPI RETURNDATASIZE PUSH1 0x0 DUP1 RETURNDATACOPY RETURNDATASIZE PUSH1 0x0 REVERT JUMPDEST POP POP POP POP PUSH1 0x40 MLOAD RETURNDATASIZE PUSH1 0x0 DUP3 RETURNDATACOPY PUSH1 0x1F RETURNDATASIZE SWAP1 DUP2 ADD PUSH1 0x1F NOT AND DUP3 ADD PUSH1 0x40 MSTORE PUSH2 0x232A SWAP2 SWAP1 DUP2 ADD SWAP1 PUSH2 0x56C0 JUMP JUMPDEST PUSH1 0x60 DUP1 DUP8 ADD MLOAD SWAP1 DUP4 ADD MLOAD PUSH1 0x40 MLOAD PUSH4 0xBF07928F PUSH1 0xE0 SHL DUP2 MSTORE SWAP3 SWAP12 POP PUSH20 0x0 SWAP3 PUSH4 0xBF07928F SWAP3 PUSH2 0x236E SWAP3 SWAP1 SWAP2 PUSH1 0x4 ADD PUSH2 0x5775 JUMP JUMPDEST PUSH1 0x0 PUSH1 0x40 MLOAD DUP1 DUP4 SUB DUP2 DUP7 GAS DELEGATECALL ISZERO DUP1 ISZERO PUSH2 0x238B JUMPI RETURNDATASIZE PUSH1 0x0 DUP1 RETURNDATACOPY RETURNDATASIZE PUSH1 0x0 REVERT JUMPDEST POP POP POP POP PUSH1 0x40 MLOAD RETURNDATASIZE PUSH1 0x0 DUP3 RETURNDATACOPY PUSH1 0x1F RETURNDATASIZE SWAP1 DUP2 ADD PUSH1 0x1F NOT AND DUP3 ADD PUSH1 0x40 MSTORE PUSH2 0x23B3 SWAP2 SWAP1 DUP2 ADD SWAP1 PUSH2 0x579A JUMP JUMPDEST PUSH1 0x60 DUP7 ADD MSTORE DUP12 MLOAD DUP6 MSTORE PUSH1 0xA0 DUP14 ADD MLOAD ISZERO PUSH2 0x242F JUMPI DUP13 PUSH1 0xA0 ADD MLOAD DUP4 LT PUSH2 0x2419 JUMPI PUSH1 0x40 MLOAD PUSH3 0x461BCD PUSH1 0xE5 SHL DUP2 MSTORE PUSH1 0x20 PUSH1 0x4 DUP3 ADD MSTORE PUSH1 0x1F PUSH1 0x24 DUP3 ADD MSTORE PUSH32 0x696620286D6178636F756E743E3D7461726765745F2E6D6178636F756E742900 PUSH1 0x44 DUP3 ADD MSTORE PUSH1 0x64 ADD PUSH2 0x6A3 JUMP JUMPDEST DUP3 DUP14 PUSH1 0xA0 ADD MLOAD PUSH2 0x2429 SWAP2 SWAP1 PUSH2 0x4F83 JUMP JUMPDEST PUSH1 0xA0 DUP8 ADD MSTORE JUMPDEST PUSH1 0x40 DUP14 ADD MLOAD ISZERO PUSH2 0x24A4 JUMPI PUSH1 0x40 DUP14 ADD MLOAD DUP2 MLOAD LT PUSH2 0x248D JUMPI PUSH1 0x40 MLOAD PUSH3 0x461BCD PUSH1 0xE5 SHL DUP2 MSTORE PUSH1 0x20 PUSH1 0x4 DUP3 ADD MSTORE PUSH1 0x1E PUSH1 0x24 DUP3 ADD MSTORE PUSH32 0x6966202873656C65637465642E7174793E3D7461726765745F2E717479290000 PUSH1 0x44 DUP3 ADD MSTORE PUSH1 0x64 ADD PUSH2 0x6A3 JUMP JUMPDEST DUP1 MLOAD PUSH1 0x40 DUP15 ADD MLOAD PUSH2 0x249E SWAP2 SWAP1 PUSH2 0x4F83 JUMP JUMPDEST PUSH1 0x40 DUP8 ADD MSTORE JUMPDEST PUSH1 0x40 DUP13 ADD MLOAD ISZERO PUSH2 0x2547 JUMPI PUSH1 0x0 PUSH8 0xDE0B6B3A7640000 DUP12 PUSH1 0x20 ADD MLOAD PUSH1 0x20 ADD MLOAD DUP13 PUSH1 0x0 ADD MLOAD PUSH2 0x24D1 SWAP2 SWAP1 PUSH2 0x5003 JUMP JUMPDEST PUSH2 0x24DB SWAP2 SWAP1 PUSH2 0x4FE1 JUMP JUMPDEST SWAP1 POP DUP13 PUSH1 0x40 ADD MLOAD DUP2 LT PUSH2 0x2530 JUMPI PUSH1 0x40 MLOAD PUSH3 0x461BCD PUSH1 0xE5 SHL DUP2 MSTORE PUSH1 0x20 PUSH1 0x4 DUP3 ADD MSTORE PUSH1 0x1F PUSH1 0x24 DUP3 ADD MSTORE PUSH32 0x69662028746F74616C3E3D7365617263686172675F2E6D6178746F74616C2900 PUSH1 0x44 DUP3 ADD MSTORE PUSH1 0x64 ADD PUSH2 0x6A3 JUMP JUMPDEST DUP1 DUP14 PUSH1 0x40 ADD MLOAD PUSH2 0x2540 SWAP2 SWAP1 PUSH2 0x4F83 JUMP JUMPDEST PUSH1 0x40 DUP8 ADD MSTORE POP JUMPDEST POP POP PUSH2 0x1DF0 JUMP JUMPDEST POP POP POP POP POP POP SWAP5 POP SWAP5 SWAP3 POP POP POP JUMP JUMPDEST PUSH2 0x2565 PUSH2 0x457F JUMP JUMPDEST PUSH1 0x0 DUP4 DUP2 MSTORE PUSH1 0x5 PUSH1 0x20 DUP2 DUP2 MSTORE PUSH1 0x40 DUP1 DUP5 KECCAK256 DUP2 MLOAD PUSH2 0x180 DUP2 ADD DUP4 MSTORE DUP2 SLOAD DUP2 MSTORE PUSH1 0x1 DUP3 ADD SLOAD PUSH1 0x1 PUSH1 0x1 PUSH1 0xA0 SHL SUB DUP2 AND SWAP5 DUP3 ADD SWAP5 SWAP1 SWAP5 MSTORE SWAP4 SWAP1 SWAP3 SWAP2 DUP5 ADD SWAP2 PUSH1 0x1 PUSH1 0xA0 SHL SWAP1 DIV PUSH1 0xFF AND SWAP1 DUP2 GT ISZERO PUSH2 0x25BA JUMPI PUSH2 0x25BA PUSH2 0x4CF5 JUMP JUMPDEST PUSH1 0x5 DUP2 GT ISZERO PUSH2 0x25CB JUMPI PUSH2 0x25CB PUSH2 0x4CF5 JUMP JUMPDEST DUP2 MSTORE PUSH1 0x1 DUP3 ADD SLOAD PUSH1 0x1 PUSH1 0xA8 SHL SWAP1 DIV PUSH1 0xFF AND PUSH1 0x20 DUP3 ADD MSTORE PUSH1 0x2 DUP3 ADD SLOAD PUSH1 0x40 DUP1 DUP4 ADD SWAP2 SWAP1 SWAP2 MSTORE PUSH1 0x3 DUP4 ADD SLOAD PUSH1 0x1 PUSH1 0x1 PUSH1 0x40 SHL SUB DUP1 DUP3 AND PUSH1 0x60 DUP6 ADD MSTORE PUSH9 0x10000000000000000 DUP1 DUP4 DIV DUP3 AND PUSH1 0x80 DUP7 ADD MSTORE PUSH1 0x1 PUSH1 0x80 SHL DUP1 DUP5 DIV DUP4 AND PUSH1 0xA0 DUP8 ADD MSTORE PUSH1 0x1 PUSH1 0xC0 SHL SWAP1 SWAP4 DIV DUP3 AND PUSH1 0xC0 DUP7 ADD MSTORE PUSH1 0x4 SWAP6 DUP7 ADD SLOAD DUP1 DUP4 AND PUSH1 0xE0 DUP8 ADD MSTORE SWAP1 DUP2 DIV DUP3 AND PUSH2 0x100 DUP7 ADD MSTORE SWAP2 SWAP1 SWAP2 DIV AND PUSH2 0x120 SWAP1 SWAP3 ADD SWAP2 SWAP1 SWAP2 MSTORE DUP3 MLOAD SWAP1 MLOAD PUSH4 0x657C7E09 PUSH1 0xE0 SHL DUP2 MSTORE SWAP2 DUP3 ADD MSTORE SWAP1 SWAP2 POP PUSH32 0x0 PUSH1 0x1 PUSH1 0x1 PUSH1 0xA0 SHL SUB AND SWAP1 PUSH4 0x657C7E09 SWAP1 PUSH1 0x24 ADD PUSH1 0x40 DUP1 MLOAD DUP1 DUP4 SUB DUP2 DUP7 GAS STATICCALL ISZERO DUP1 ISZERO PUSH2 0x26C3 JUMPI RETURNDATASIZE PUSH1 0x0 DUP1 RETURNDATACOPY RETURNDATASIZE PUSH1 0x0 REVERT JUMPDEST POP POP POP POP PUSH1 0x40 MLOAD RETURNDATASIZE PUSH1 0x1F NOT PUSH1 0x1F DUP3 ADD AND DUP3 ADD DUP1 PUSH1 0x40 MSTORE POP DUP2 ADD SWAP1 PUSH2 0x26E7 SWAP2 SWAP1 PUSH2 0x57CE JUMP JUMPDEST PUSH1 0x40 DUP5 ADD MSTORE PUSH1 0x20 DUP4 ADD MSTORE PUSH1 0x80 DUP2 ADD MLOAD PUSH1 0x60 DUP4 ADD MSTORE DUP3 DUP1 PUSH2 0x2780 JUMPI POP PUSH1 0x60 DUP2 ADD MLOAD PUSH1 0x40 MLOAD PUSH4 0x36181B67 PUSH1 0xE1 SHL DUP2 MSTORE PUSH1 0xFF SWAP1 SWAP2 AND PUSH1 0x4 DUP3 ADD MSTORE PUSH20 0x0 SWAP1 PUSH4 0x6C3036CE SWAP1 PUSH1 0x24 ADD PUSH1 0x20 PUSH1 0x40 MLOAD DUP1 DUP4 SUB DUP2 DUP7 GAS DELEGATECALL ISZERO DUP1 ISZERO PUSH2 0x275A JUMPI RETURNDATASIZE PUSH1 0x0 DUP1 RETURNDATACOPY RETURNDATASIZE PUSH1 0x0 REVERT JUMPDEST POP POP POP POP PUSH1 0x40 MLOAD RETURNDATASIZE PUSH1 0x1F NOT PUSH1 0x1F DUP3 ADD AND DUP3 ADD DUP1 PUSH1 0x40 MSTORE POP DUP2 ADD SWAP1 PUSH2 0x277E SWAP2 SWAP1 PUSH2 0x4F37 JUMP JUMPDEST ISZERO JUMPDEST ISZERO PUSH2 0x2C07 JUMPI PUSH1 0x20 DUP2 ADD MLOAD PUSH1 0x1 PUSH1 0x1 PUSH1 0xA0 SHL SUB AND DUP3 MSTORE PUSH1 0xA0 DUP2 ADD MLOAD PUSH2 0x27A3 SWAP1 PUSH2 0x1096 JUMP JUMPDEST PUSH1 0x80 DUP4 ADD MSTORE PUSH1 0x60 DUP2 ADD MLOAD PUSH1 0x40 MLOAD PUSH4 0x2B2076E3 PUSH1 0xE1 SHL DUP2 MSTORE PUSH1 0xFF SWAP1 SWAP2 AND PUSH1 0x4 DUP3 ADD MSTORE PUSH20 0x0 SWAP1 PUSH4 0x5640EDC6 SWAP1 PUSH1 0x24 ADD PUSH1 0x20 PUSH1 0x40 MLOAD DUP1 DUP4 SUB DUP2 DUP7 GAS DELEGATECALL ISZERO DUP1 ISZERO PUSH2 0x2800 JUMPI RETURNDATASIZE PUSH1 0x0 DUP1 RETURNDATACOPY RETURNDATASIZE PUSH1 0x0 REVERT JUMPDEST POP POP POP POP PUSH1 0x40 MLOAD RETURNDATASIZE PUSH1 0x1F NOT PUSH1 0x1F DUP3 ADD AND DUP3 ADD DUP1 PUSH1 0x40 MSTORE POP DUP2 ADD SWAP1 PUSH2 0x2824 SWAP2 SWAP1 PUSH2 0x4F37 JUMP JUMPDEST ISZERO PUSH2 0x2838 JUMPI PUSH1 0x80 DUP3 ADD MLOAD PUSH1 0xA0 DUP4 ADD MSTORE PUSH2 0x2984 JUMP JUMPDEST PUSH2 0x120 DUP2 ADD MLOAD PUSH1 0x1 PUSH1 0x1 PUSH1 0x40 SHL SUB AND ISZERO PUSH2 0x2864 JUMPI PUSH2 0x285A DUP2 PUSH2 0x120 ADD MLOAD PUSH2 0x1096 JUMP JUMPDEST PUSH1 0xA0 DUP4 ADD MSTORE PUSH2 0x2984 JUMP JUMPDEST PUSH1 0x40 MLOAD PUSH4 0x23AA9AB PUSH1 0xE6 SHL DUP2 MSTORE PUSH32 0xCD775F2396F9F13F12BCF8CA32E21DF66559A8ADC3944D0591127E7731F7AB85 PUSH1 0x4 DUP3 ADD MSTORE PUSH32 0x0 PUSH1 0x1 PUSH1 0x1 PUSH1 0xA0 SHL SUB AND SWAP1 PUSH4 0x8EAA6AC0 SWAP1 PUSH1 0x24 ADD PUSH1 0x20 PUSH1 0x40 MLOAD DUP1 DUP4 SUB DUP2 DUP7 GAS STATICCALL ISZERO DUP1 ISZERO PUSH2 0x28E8 JUMPI RETURNDATASIZE PUSH1 0x0 DUP1 RETURNDATACOPY RETURNDATASIZE PUSH1 0x0 REVERT JUMPDEST POP POP POP POP PUSH1 0x40 MLOAD RETURNDATASIZE PUSH1 0x1F NOT PUSH1 0x1F DUP3 ADD AND DUP3 ADD DUP1 PUSH1 0x40 MSTORE POP DUP2 ADD SWAP1 PUSH2 0x290C SWAP2 SWAP1 PUSH2 0x50C7 JUMP JUMPDEST PUSH1 0x1 PUSH1 0x1 PUSH1 0xA0 SHL SUB AND PUSH4 0xA9BF9858 DUP4 PUSH1 0x20 ADD MLOAD PUSH1 0x40 MLOAD DUP3 PUSH4 0xFFFFFFFF AND PUSH1 0xE0 SHL DUP2 MSTORE PUSH1 0x4 ADD PUSH2 0x293D SWAP2 DUP2 MSTORE PUSH1 0x20 ADD SWAP1 JUMP JUMPDEST PUSH1 0x20 PUSH1 0x40 MLOAD DUP1 DUP4 SUB DUP2 DUP7 GAS STATICCALL ISZERO DUP1 ISZERO PUSH2 0x295A JUMPI RETURNDATASIZE PUSH1 0x0 DUP1 RETURNDATACOPY RETURNDATASIZE PUSH1 0x0 REVERT JUMPDEST POP POP POP POP PUSH1 0x40 MLOAD RETURNDATASIZE PUSH1 0x1F NOT PUSH1 0x1F DUP3 ADD AND DUP3 ADD DUP1 PUSH1 0x40 MSTORE POP DUP2 ADD SWAP1 PUSH2 0x297E SWAP2 SWAP1 PUSH2 0x4F54 JUMP JUMPDEST PUSH1 0xA0 DUP4 ADD MSTORE JUMPDEST PUSH2 0x2991 DUP2 PUSH1 0xC0 ADD MLOAD PUSH2 0x1096 JUMP JUMPDEST PUSH1 0xC0 DUP4 ADD MSTORE PUSH1 0xE0 DUP2 ADD MLOAD PUSH2 0x29A4 SWAP1 PUSH2 0x1096 JUMP JUMPDEST PUSH1 0xE0 DUP4 ADD MSTORE PUSH1 0x60 DUP2 ADD MLOAD PUSH1 0x40 MLOAD PUSH4 0x5B7D0F69 PUSH1 0xE1 SHL DUP2 MSTORE PUSH1 0xFF SWAP1 SWAP2 AND PUSH1 0x4 DUP3 ADD MSTORE PUSH20 0x0 SWAP1 PUSH4 0xB6FA1ED2 SWAP1 PUSH1 0x24 ADD PUSH1 0x20 PUSH1 0x40 MLOAD DUP1 DUP4 SUB DUP2 DUP7 GAS DELEGATECALL ISZERO DUP1 ISZERO PUSH2 0x2A01 JUMPI RETURNDATASIZE PUSH1 0x0 DUP1 RETURNDATACOPY RETURNDATASIZE PUSH1 0x0 REVERT JUMPDEST POP POP POP POP PUSH1 0x40 MLOAD RETURNDATASIZE PUSH1 0x1F NOT PUSH1 0x1F DUP3 ADD AND DUP3 ADD DUP1 PUSH1 0x40 MSTORE POP DUP2 ADD SWAP1 PUSH2 0x2A25 SWAP2 SWAP1 PUSH2 0x4F37 JUMP JUMPDEST ISZERO PUSH2 0x2BF2 JUMPI PUSH2 0x2A38 DUP2 PUSH2 0x140 ADD MLOAD PUSH2 0x1096 JUMP JUMPDEST PUSH2 0x120 DUP4 ADD MSTORE PUSH2 0x160 DUP2 ADD MLOAD PUSH2 0x2A4D SWAP1 PUSH2 0x1096 JUMP JUMPDEST PUSH2 0x140 DUP4 ADD MSTORE PUSH1 0x40 MLOAD PUSH4 0x23AA9AB PUSH1 0xE6 SHL DUP2 MSTORE PUSH32 0x3CB99135F7A7C088D9085B446345038A22A85F4E8FE072B0E1B66D97243E7458 PUSH1 0x4 DUP3 ADD MSTORE PUSH1 0x0 SWAP1 PUSH32 0x0 PUSH1 0x1 PUSH1 0x1 PUSH1 0xA0 SHL SUB AND SWAP1 PUSH4 0x8EAA6AC0 SWAP1 PUSH1 0x24 ADD PUSH1 0x20 PUSH1 0x40 MLOAD DUP1 DUP4 SUB DUP2 DUP7 GAS STATICCALL ISZERO DUP1 ISZERO PUSH2 0x2ADA JUMPI RETURNDATASIZE PUSH1 0x0 DUP1 RETURNDATACOPY RETURNDATASIZE PUSH1 0x0 REVERT JUMPDEST POP POP POP POP PUSH1 0x40 MLOAD RETURNDATASIZE PUSH1 0x1F NOT PUSH1 0x1F DUP3 ADD AND DUP3 ADD DUP1 PUSH1 0x40 MSTORE POP DUP2 ADD SWAP1 PUSH2 0x2AFE SWAP2 SWAP1 PUSH2 0x50C7 JUMP JUMPDEST PUSH1 0x1 PUSH1 0x1 PUSH1 0xA0 SHL SUB AND PUSH4 0x6464B68A DUP5 PUSH1 0x20 ADD MLOAD DUP6 PUSH1 0x40 ADD MLOAD PUSH1 0x40 MLOAD DUP4 PUSH4 0xFFFFFFFF AND PUSH1 0xE0 SHL DUP2 MSTORE PUSH1 0x4 ADD PUSH2 0x2B3C SWAP3 SWAP2 SWAP1 SWAP2 DUP3 MSTORE PUSH1 0x20 DUP3 ADD MSTORE PUSH1 0x40 ADD SWAP1 JUMP JUMPDEST PUSH1 0x60 PUSH1 0x40 MLOAD DUP1 DUP4 SUB DUP2 DUP7 GAS STATICCALL ISZERO DUP1 ISZERO PUSH2 0x2B59 JUMPI RETURNDATASIZE PUSH1 0x0 DUP1 RETURNDATACOPY RETURNDATASIZE PUSH1 0x0 REVERT JUMPDEST POP POP POP POP PUSH1 0x40 MLOAD RETURNDATASIZE PUSH1 0x1F NOT PUSH1 0x1F DUP3 ADD AND DUP3 ADD DUP1 PUSH1 0x40 MSTORE POP DUP2 ADD SWAP1 PUSH2 0x2B7D SWAP2 SWAP1 PUSH2 0x57F2 JUMP JUMPDEST POP SWAP2 POP POP PUSH1 0x0 DUP2 SWAP1 SUB PUSH2 0x2BC6 JUMPI PUSH1 0x40 MLOAD PUSH3 0x461BCD PUSH1 0xE5 SHL DUP2 MSTORE PUSH1 0x20 PUSH1 0x4 DUP3 ADD MSTORE PUSH1 0x11 PUSH1 0x24 DUP3 ADD MSTORE PUSH17 0x145D5BDD194E88139BDD081C5D5BDD1959 PUSH1 0x7A SHL PUSH1 0x44 DUP3 ADD MSTORE PUSH1 0x64 ADD PUSH2 0x6A3 JUMP JUMPDEST PUSH2 0x140 DUP4 ADD MLOAD PUSH2 0x2BD6 SWAP1 DUP3 PUSH2 0x4FE1 JUMP JUMPDEST DUP4 PUSH2 0x120 ADD MLOAD PUSH2 0x2BE6 SWAP2 SWAP1 PUSH2 0x5003 JUMP JUMPDEST PUSH2 0x100 DUP5 ADD MSTORE POP PUSH2 0x2C07 JUMP JUMPDEST PUSH2 0x2C00 DUP2 PUSH2 0x100 ADD MLOAD PUSH2 0x1096 JUMP JUMPDEST PUSH2 0x100 DUP4 ADD MSTORE JUMPDEST PUSH1 0x40 MLOAD PUSH4 0x212D6CB PUSH1 0xE2 SHL DUP2 MSTORE PUSH20 0x0 SWAP1 PUSH4 0x84B5B2C SWAP1 PUSH2 0x2C3E SWAP1 DUP5 SWAP1 PUSH1 0x4 ADD PUSH2 0x5820 JUMP JUMPDEST PUSH1 0x20 PUSH1 0x40 MLOAD DUP1 DUP4 SUB DUP2 DUP7 GAS DELEGATECALL ISZERO DUP1 ISZERO PUSH2 0x2C5B JUMPI RETURNDATASIZE PUSH1 0x0 DUP1 RETURNDATACOPY RETURNDATASIZE PUSH1 0x0 REVERT JUMPDEST POP POP POP POP PUSH1 0x40 MLOAD RETURNDATASIZE PUSH1 0x1F NOT PUSH1 0x1F DUP3 ADD AND DUP3 ADD DUP1 PUSH1 0x40 MSTORE POP DUP2 ADD SWAP1 PUSH2 0x2C7F SWAP2 SWAP1 PUSH2 0x4F54 JUMP JUMPDEST PUSH2 0x160 DUP4 ADD MSTORE PUSH1 0x40 DUP2 ADD MLOAD PUSH2 0x180 DUP4 ADD SWAP1 PUSH1 0x5 DUP2 GT ISZERO PUSH2 0x2CA1 JUMPI PUSH2 0x2CA1 PUSH2 0x4CF5 JUMP JUMPDEST SWAP1 DUP2 PUSH1 0x5 DUP2 GT ISZERO PUSH2 0x2CB4 JUMPI PUSH2 0x2CB4 PUSH2 0x4CF5 JUMP JUMPDEST SWAP1 MSTORE POP PUSH1 0x60 ADD MLOAD PUSH1 0xFF AND PUSH2 0x1A0 DUP3 ADD MSTORE SWAP3 SWAP2 POP POP JUMP JUMPDEST PUSH1 0x0 SLOAD PUSH1 0x1 PUSH1 0x1 PUSH1 0xA0 SHL SUB PUSH3 0x10000 SWAP1 SWAP2 DIV AND CALLER EQ PUSH2 0x6AC JUMPI PUSH1 0x40 MLOAD PUSH3 0x461BCD PUSH1 0xE5 SHL DUP2 MSTORE PUSH1 0x20 PUSH1 0x4 DUP3 ADD MSTORE PUSH1 0x1F PUSH1 0x24 DUP3 ADD MSTORE PUSH32 0x416C6C6F77616E63653A2063616C6C6572206D757374206265204F776E657200 PUSH1 0x44 DUP3 ADD MSTORE PUSH1 0x64 ADD PUSH2 0x6A3 JUMP JUMPDEST PUSH1 0x0 DUP1 SLOAD PUSH1 0x1 PUSH1 0x1 PUSH1 0xA0 SHL SUB DUP4 DUP2 AND PUSH3 0x10000 DUP2 DUP2 MUL PUSH3 0x10000 PUSH1 0x1 PUSH1 0xB0 SHL SUB NOT DUP6 AND OR DUP6 SSTORE PUSH1 0x40 MLOAD SWAP4 DIV SWAP2 SWAP1 SWAP2 AND SWAP3 SWAP1 SWAP2 DUP4 SWAP2 PUSH32 0x8BE0079C531659141344CD1FD0A4F28419497F9722A3DAAFE3B4186F6B6457E0 SWAP2 LOG3 POP POP JUMP JUMPDEST PUSH1 0x60 PUSH1 0x0 PUSH2 0x2DAE PUSH1 0x40 MLOAD DUP1 PUSH1 0x60 ADD PUSH1 0x40 MSTORE DUP1 PUSH1 0x0 DUP2 MSTORE PUSH1 0x20 ADD PUSH1 0x0 DUP2 MSTORE PUSH1 0x20 ADD PUSH1 0x0 DUP2 MSTORE POP SWAP1 JUMP JUMPDEST PUSH2 0x2DC4 DUP8 DUP8 PUSH1 0x0 ADD MLOAD DUP9 PUSH1 0xC0 ADD MLOAD PUSH1 0x0 DUP1 PUSH2 0x4040 JUMP JUMPDEST DUP1 MLOAD SWAP1 SWAP4 POP PUSH1 0x0 DUP2 PUSH1 0x1 PUSH1 0x1 PUSH1 0x40 SHL SUB DUP2 GT ISZERO PUSH2 0x2DE3 JUMPI PUSH2 0x2DE3 PUSH2 0x4732 JUMP JUMPDEST PUSH1 0x40 MLOAD SWAP1 DUP1 DUP3 MSTORE DUP1 PUSH1 0x20 MUL PUSH1 0x20 ADD DUP3 ADD PUSH1 0x40 MSTORE DUP1 ISZERO PUSH2 0x2E1C JUMPI DUP2 PUSH1 0x20 ADD JUMPDEST PUSH2 0x2E09 PUSH2 0x4546 JUMP JUMPDEST DUP2 MSTORE PUSH1 0x20 ADD SWAP1 PUSH1 0x1 SWAP1 SUB SWAP1 DUP2 PUSH2 0x2E01 JUMPI SWAP1 POP JUMPDEST POP SWAP1 POP PUSH1 0x0 DUP1 JUMPDEST DUP4 DUP2 LT ISZERO PUSH2 0x3150 JUMPI DUP10 PUSH1 0x0 ADD MLOAD DUP8 DUP3 DUP2 MLOAD DUP2 LT PUSH2 0x2E42 JUMPI PUSH2 0x2E42 PUSH2 0x4FB2 JUMP JUMPDEST PUSH1 0x20 MUL PUSH1 0x20 ADD ADD MLOAD PUSH1 0x20 ADD MLOAD EQ PUSH2 0x2EAD JUMPI PUSH1 0x40 MLOAD PUSH3 0x461BCD PUSH1 0xE5 SHL DUP2 MSTORE PUSH1 0x20 PUSH1 0x4 DUP3 ADD MSTORE PUSH1 0x29 PUSH1 0x24 DUP3 ADD MSTORE PUSH32 0x5F5F736561726368206F75745F5B695D2E61646472203D3D207461726765745F PUSH1 0x44 DUP3 ADD MSTORE PUSH9 0x2E63757272656E6379 PUSH1 0xB8 SHL PUSH1 0x64 DUP3 ADD MSTORE PUSH1 0x84 ADD PUSH2 0x6A3 JUMP JUMPDEST DUP9 MLOAD ISZERO DUP1 ISZERO SWAP1 PUSH2 0x2EDD JUMPI POP DUP9 PUSH1 0x0 ADD MLOAD DUP8 DUP3 DUP2 MLOAD DUP2 LT PUSH2 0x2ECF JUMPI PUSH2 0x2ECF PUSH2 0x4FB2 JUMP JUMPDEST PUSH1 0x20 MUL PUSH1 0x20 ADD ADD MLOAD PUSH1 0x80 ADD MLOAD GT JUMPDEST PUSH2 0x313E JUMPI DUP10 PUSH1 0x20 ADD MLOAD DUP8 DUP3 DUP2 MLOAD DUP2 LT PUSH2 0x2EF8 JUMPI PUSH2 0x2EF8 PUSH2 0x4FB2 JUMP JUMPDEST PUSH1 0x20 MUL PUSH1 0x20 ADD ADD MLOAD PUSH1 0x60 ADD MLOAD LT PUSH2 0x313E JUMPI DUP9 PUSH1 0x60 ADD MLOAD PUSH20 0x0 PUSH4 0x5640453D SWAP1 SWAP2 DUP10 DUP5 DUP2 MLOAD DUP2 LT PUSH2 0x2F3C JUMPI PUSH2 0x2F3C PUSH2 0x4FB2 JUMP JUMPDEST PUSH1 0x20 MUL PUSH1 0x20 ADD ADD MLOAD PUSH1 0x0 ADD MLOAD PUSH1 0x40 MLOAD DUP4 PUSH4 0xFFFFFFFF AND PUSH1 0xE0 SHL DUP2 MSTORE PUSH1 0x4 ADD PUSH2 0x2F65 SWAP3 SWAP2 SWAP1 PUSH2 0x590F JUMP JUMPDEST PUSH1 0x20 PUSH1 0x40 MLOAD DUP1 DUP4 SUB DUP2 DUP7 GAS DELEGATECALL ISZERO DUP1 ISZERO PUSH2 0x2F82 JUMPI RETURNDATASIZE PUSH1 0x0 DUP1 RETURNDATACOPY RETURNDATASIZE PUSH1 0x0 REVERT JUMPDEST POP POP POP POP PUSH1 0x40 MLOAD RETURNDATASIZE PUSH1 0x1F NOT PUSH1 0x1F DUP3 ADD AND DUP3 ADD DUP1 PUSH1 0x40 MSTORE POP DUP2 ADD SWAP1 PUSH2 0x2FA6 SWAP2 SWAP1 PUSH2 0x4F54 JUMP JUMPDEST DUP8 DUP3 DUP2 MLOAD DUP2 LT PUSH2 0x2FB8 JUMPI PUSH2 0x2FB8 PUSH2 0x4FB2 JUMP JUMPDEST PUSH1 0x20 MUL PUSH1 0x20 ADD ADD MLOAD PUSH1 0x40 ADD MLOAD LT PUSH2 0x313E JUMPI DUP7 DUP2 DUP2 MLOAD DUP2 LT PUSH2 0x2FDB JUMPI PUSH2 0x2FDB PUSH2 0x4FB2 JUMP JUMPDEST PUSH1 0x20 MUL PUSH1 0x20 ADD ADD MLOAD PUSH1 0x60 ADD MLOAD DUP10 PUSH1 0x60 ADD MLOAD PUSH20 0x0 PUSH4 0x5640453D SWAP1 SWAP2 DUP11 DUP6 DUP2 MLOAD DUP2 LT PUSH2 0x301A JUMPI PUSH2 0x301A PUSH2 0x4FB2 JUMP JUMPDEST PUSH1 0x20 MUL PUSH1 0x20 ADD ADD MLOAD PUSH1 0x0 ADD MLOAD PUSH1 0x40 MLOAD DUP4 PUSH4 0xFFFFFFFF AND PUSH1 0xE0 SHL DUP2 MSTORE PUSH1 0x4 ADD PUSH2 0x3043 SWAP3 SWAP2 SWAP1 PUSH2 0x590F JUMP JUMPDEST PUSH1 0x20 PUSH1 0x40 MLOAD DUP1 DUP4 SUB DUP2 DUP7 GAS DELEGATECALL ISZERO DUP1 ISZERO PUSH2 0x3060 JUMPI RETURNDATASIZE PUSH1 0x0 DUP1 RETURNDATACOPY RETURNDATASIZE PUSH1 0x0 REVERT JUMPDEST POP POP POP POP PUSH1 0x40 MLOAD RETURNDATASIZE PUSH1 0x1F NOT PUSH1 0x1F DUP3 ADD AND DUP3 ADD DUP1 PUSH1 0x40 MSTORE POP DUP2 ADD SWAP1 PUSH2 0x3084 SWAP2 SWAP1 PUSH2 0x4F54 JUMP JUMPDEST DUP9 DUP4 DUP2 MLOAD DUP2 LT PUSH2 0x3096 JUMPI PUSH2 0x3096 PUSH2 0x4FB2 JUMP JUMPDEST PUSH1 0x20 MUL PUSH1 0x20 ADD ADD MLOAD PUSH1 0x40 ADD MLOAD PUSH2 0x30AC SWAP2 SWAP1 PUSH2 0x4F83 JUMP JUMPDEST LT PUSH2 0x313E JUMPI DUP10 PUSH1 0xA0 ADD MLOAD PUSH1 0x1 EQ DUP1 ISZERO PUSH2 0x30C8 JUMPI POP PUSH1 0x20 DUP10 ADD MLOAD ISZERO ISZERO JUMPDEST DUP1 ISZERO PUSH2 0x30F4 JUMPI POP DUP9 PUSH1 0x20 ADD MLOAD DUP8 DUP3 DUP2 MLOAD DUP2 LT PUSH2 0x30E6 JUMPI PUSH2 0x30E6 PUSH2 0x4FB2 JUMP JUMPDEST PUSH1 0x20 MUL PUSH1 0x20 ADD ADD MLOAD PUSH1 0x80 ADD MLOAD GT JUMPDEST PUSH2 0x313E JUMPI DUP7 DUP2 DUP2 MLOAD DUP2 LT PUSH2 0x310A JUMPI PUSH2 0x310A PUSH2 0x4FB2 JUMP JUMPDEST PUSH1 0x20 MUL PUSH1 0x20 ADD ADD MLOAD DUP4 DUP4 DUP2 MLOAD DUP2 LT PUSH2 0x3124 JUMPI PUSH2 0x3124 PUSH2 0x4FB2 JUMP JUMPDEST PUSH1 0x20 MUL PUSH1 0x20 ADD ADD DUP2 SWAP1 MSTORE POP DUP2 DUP1 PUSH2 0x313A SWAP1 PUSH2 0x4FC8 JUMP JUMPDEST SWAP3 POP POP JUMPDEST DUP1 PUSH2 0x3148 DUP2 PUSH2 0x4FC8 JUMP JUMPDEST SWAP2 POP POP PUSH2 0x2E23 JUMP JUMPDEST POP DUP2 MSTORE SWAP4 POP PUSH20 0x0 SWAP1 POP PUSH4 0xB51B8E82 DUP5 PUSH1 0x0 DUP10 DUP10 DUP3 PUSH1 0x40 MLOAD SWAP1 DUP1 DUP3 MSTORE DUP1 PUSH1 0x20 MUL PUSH1 0x20 ADD DUP3 ADD PUSH1 0x40 MSTORE DUP1 ISZERO PUSH2 0x31B0 JUMPI DUP2 PUSH1 0x20 ADD JUMPDEST PUSH2 0x319D PUSH2 0x4546 JUMP JUMPDEST DUP2 MSTORE PUSH1 0x20 ADD SWAP1 PUSH1 0x1 SWAP1 SUB SWAP1 DUP2 PUSH2 0x3195 JUMPI SWAP1 POP JUMPDEST POP PUSH1 0x40 MLOAD DUP7 PUSH4 0xFFFFFFFF AND PUSH1 0xE0 SHL DUP2 MSTORE PUSH1 0x4 ADD PUSH2 0x31D1 SWAP6 SWAP5 SWAP4 SWAP3 SWAP2 SWAP1 PUSH2 0x5964 JUMP JUMPDEST PUSH1 0x0 PUSH1 0x40 MLOAD DUP1 DUP4 SUB DUP2 DUP7 GAS DELEGATECALL ISZERO DUP1 ISZERO PUSH2 0x31EE JUMPI RETURNDATASIZE PUSH1 0x0 DUP1 RETURNDATACOPY RETURNDATASIZE PUSH1 0x0 REVERT JUMPDEST POP POP POP POP PUSH1 0x40 MLOAD RETURNDATASIZE PUSH1 0x0 DUP3 RETURNDATACOPY PUSH1 0x1F RETURNDATASIZE SWAP1 DUP2 ADD PUSH1 0x1F NOT AND DUP3 ADD PUSH1 0x40 MSTORE PUSH2 0x3216 SWAP2 SWAP1 DUP2 ADD SWAP1 PUSH2 0x5A0D JUMP JUMPDEST SWAP2 SWAP5 POP SWAP3 POP SWAP1 POP DUP4 PUSH2 0x1492 JUMPI PUSH1 0x40 MLOAD PUSH4 0x7BF5CDDB PUSH1 0xE1 SHL DUP2 MSTORE PUSH20 0x0 SWAP1 PUSH4 0xF7EB9BB6 SWAP1 PUSH2 0x3259 SWAP1 DUP7 SWAP1 PUSH1 0x4 ADD PUSH2 0x5A64 JUMP JUMPDEST PUSH1 0x0 PUSH1 0x40 MLOAD DUP1 DUP4 SUB DUP2 DUP7 GAS DELEGATECALL ISZERO DUP1 ISZERO PUSH2 0x3276 JUMPI RETURNDATASIZE PUSH1 0x0 DUP1 RETURNDATACOPY RETURNDATASIZE PUSH1 0x0 REVERT JUMPDEST POP POP POP POP PUSH1 0x40 MLOAD RETURNDATASIZE PUSH1 0x0 DUP3 RETURNDATACOPY PUSH1 0x1F RETURNDATASIZE SWAP1 DUP2 ADD PUSH1 0x1F NOT AND DUP3 ADD PUSH1 0x40 MSTORE PUSH2 0x329E SWAP2 SWAP1 DUP2 ADD SWAP1 PUSH2 0x579A JUMP JUMPDEST SWAP3 POP DUP6 PUSH1 0xA0 ADD MLOAD PUSH1 0x0 EQ ISZERO DUP1 ISZERO PUSH2 0x32B9 JUMPI POP DUP6 PUSH1 0xA0 ADD MLOAD DUP4 MLOAD GT JUMPDEST ISZERO PUSH2 0x1492 JUMPI PUSH1 0xA0 DUP7 ADD MLOAD DUP1 DUP5 MSTORE PUSH1 0x40 MLOAD PUSH4 0x742228D7 PUSH1 0xE0 SHL DUP2 MSTORE PUSH20 0x0 SWAP1 PUSH4 0x742228D7 SWAP1 PUSH2 0x32FD SWAP1 DUP8 SWAP1 PUSH1 0x4 ADD PUSH2 0x5A64 JUMP JUMPDEST PUSH1 0x80 PUSH1 0x40 MLOAD DUP1 DUP4 SUB DUP2 DUP7 GAS DELEGATECALL ISZERO DUP1 ISZERO PUSH2 0x331A JUMPI RETURNDATASIZE PUSH1 0x0 DUP1 RETURNDATACOPY RETURNDATASIZE PUSH1 0x0 REVERT JUMPDEST POP POP POP POP PUSH1 0x40 MLOAD RETURNDATASIZE PUSH1 0x1F NOT PUSH1 0x1F DUP3 ADD AND DUP3 ADD DUP1 PUSH1 0x40 MSTORE POP DUP2 ADD SWAP1 PUSH2 0x333E SWAP2 SWAP1 PUSH2 0x5A77 JUMP JUMPDEST SWAP1 SWAP4 POP SWAP2 POP POP SWAP5 POP SWAP5 POP SWAP5 SWAP2 POP POP JUMP JUMPDEST PUSH1 0x0 DUP3 DUP2 MSTORE PUSH1 0x1 PUSH1 0x20 SWAP1 DUP2 MSTORE PUSH1 0x40 DUP1 DUP4 KECCAK256 DUP1 SLOAD DUP3 MLOAD DUP2 DUP6 MUL DUP2 ADD DUP6 ADD SWAP1 SWAP4 MSTORE DUP1 DUP4 MSTORE PUSH1 0x60 SWAP5 SWAP4 DUP4 ADD DUP3 DUP3 DUP1 ISZERO PUSH2 0x33A3 JUMPI PUSH1 0x20 MUL DUP3 ADD SWAP2 SWAP1 PUSH1 0x0 MSTORE PUSH1 0x20 PUSH1 0x0 KECCAK256 SWAP1 JUMPDEST DUP2 SLOAD DUP2 MSTORE PUSH1 0x20 ADD SWAP1 PUSH1 0x1 ADD SWAP1 DUP1 DUP4 GT PUSH2 0x338F JUMPI JUMPDEST POP POP POP POP POP SWAP1 POP PUSH1 0x0 DUP2 MLOAD GT PUSH2 0x33FB JUMPI PUSH1 0x40 MLOAD PUSH3 0x461BCD PUSH1 0xE5 SHL DUP2 MSTORE PUSH1 0x20 PUSH1 0x4 DUP3 ADD MSTORE PUSH1 0x1B PUSH1 0x24 DUP3 ADD MSTORE PUSH32 0x5F706174684C6973742066726F6D706174682E6C656E6774683E300000000000 PUSH1 0x44 DUP3 ADD MSTORE PUSH1 0x64 ADD PUSH2 0x6A3 JUMP JUMPDEST DUP1 MLOAD PUSH1 0x1 PUSH1 0x1 PUSH1 0x40 SHL SUB DUP2 GT ISZERO PUSH2 0x3414 JUMPI PUSH2 0x3414 PUSH2 0x4732 JUMP JUMPDEST PUSH1 0x40 MLOAD SWAP1 DUP1 DUP3 MSTORE DUP1 PUSH1 0x20 MUL PUSH1 0x20 ADD DUP3 ADD PUSH1 0x40 MSTORE DUP1 ISZERO PUSH2 0x3447 JUMPI DUP2 PUSH1 0x20 ADD JUMPDEST PUSH1 0x60 DUP2 MSTORE PUSH1 0x20 ADD SWAP1 PUSH1 0x1 SWAP1 SUB SWAP1 DUP2 PUSH2 0x3432 JUMPI SWAP1 POP JUMPDEST POP SWAP2 POP PUSH1 0x0 DUP1 JUMPDEST DUP3 MLOAD DUP2 LT ISZERO PUSH2 0x36EA JUMPI PUSH32 0x0 PUSH1 0x1 PUSH1 0x1 PUSH1 0xA0 SHL SUB AND PUSH4 0x38A699A4 DUP5 DUP4 DUP2 MLOAD DUP2 LT PUSH2 0x3498 JUMPI PUSH2 0x3498 PUSH2 0x4FB2 JUMP JUMPDEST PUSH1 0x20 MUL PUSH1 0x20 ADD ADD MLOAD PUSH1 0x40 MLOAD DUP3 PUSH4 0xFFFFFFFF AND PUSH1 0xE0 SHL DUP2 MSTORE PUSH1 0x4 ADD PUSH2 0x34BE SWAP2 DUP2 MSTORE PUSH1 0x20 ADD SWAP1 JUMP JUMPDEST PUSH1 0x20 PUSH1 0x40 MLOAD DUP1 DUP4 SUB DUP2 DUP7 GAS STATICCALL ISZERO DUP1 ISZERO PUSH2 0x34DB JUMPI RETURNDATASIZE PUSH1 0x0 DUP1 RETURNDATACOPY RETURNDATASIZE PUSH1 0x0 REVERT JUMPDEST POP POP POP POP PUSH1 0x40 MLOAD RETURNDATASIZE PUSH1 0x1F NOT PUSH1 0x1F DUP3 ADD AND DUP3 ADD DUP1 PUSH1 0x40 MSTORE POP DUP2 ADD SWAP1 PUSH2 0x34FF SWAP2 SWAP1 PUSH2 0x4F37 JUMP JUMPDEST ISZERO PUSH2 0x36D8 JUMPI PUSH1 0x0 PUSH32 0x0 PUSH1 0x1 PUSH1 0x1 PUSH1 0xA0 SHL SUB AND PUSH4 0x27EE9DC2 DUP6 DUP5 DUP2 MLOAD DUP2 LT PUSH2 0x3547 JUMPI PUSH2 0x3547 PUSH2 0x4FB2 JUMP JUMPDEST PUSH1 0x20 MUL PUSH1 0x20 ADD ADD MLOAD PUSH1 0x40 MLOAD DUP3 PUSH4 0xFFFFFFFF AND PUSH1 0xE0 SHL DUP2 MSTORE PUSH1 0x4 ADD PUSH2 0x356D SWAP2 DUP2 MSTORE PUSH1 0x20 ADD SWAP1 JUMP JUMPDEST PUSH1 0x0 PUSH1 0x40 MLOAD DUP1 DUP4 SUB DUP2 DUP7 GAS STATICCALL ISZERO DUP1 ISZERO PUSH2 0x358A JUMPI RETURNDATASIZE PUSH1 0x0 DUP1 RETURNDATACOPY RETURNDATASIZE PUSH1 0x0 REVERT JUMPDEST POP POP POP POP PUSH1 0x40 MLOAD RETURNDATASIZE PUSH1 0x0 DUP3 RETURNDATACOPY PUSH1 0x1F RETURNDATASIZE SWAP1 DUP2 ADD PUSH1 0x1F NOT AND DUP3 ADD PUSH1 0x40 MSTORE PUSH2 0x35B2 SWAP2 SWAP1 DUP2 ADD SWAP1 PUSH2 0x5093 JUMP JUMPDEST SWAP1 POP PUSH1 0x0 DUP2 MLOAD GT PUSH2 0x35FF JUMPI PUSH1 0x40 MLOAD PUSH3 0x461BCD PUSH1 0xE5 SHL DUP2 MSTORE PUSH1 0x20 PUSH1 0x4 DUP3 ADD MSTORE PUSH1 0x17 PUSH1 0x24 DUP3 ADD MSTORE PUSH23 0x5F706174684C69737420706174682E6C656E6774683E3 PUSH1 0x4C SHL PUSH1 0x44 DUP3 ADD MSTORE PUSH1 0x64 ADD PUSH2 0x6A3 JUMP JUMPDEST DUP6 DUP2 PUSH1 0x1 DUP4 MLOAD PUSH2 0x360F SWAP2 SWAP1 PUSH2 0x4F83 JUMP JUMPDEST DUP2 MLOAD DUP2 LT PUSH2 0x361F JUMPI PUSH2 0x361F PUSH2 0x4FB2 JUMP JUMPDEST PUSH1 0x20 MUL PUSH1 0x20 ADD ADD MLOAD EQ PUSH2 0x3632 JUMPI POP PUSH2 0x36D8 JUMP JUMPDEST PUSH1 0x0 JUMPDEST PUSH1 0x1 DUP3 MLOAD PUSH2 0x3643 SWAP2 SWAP1 PUSH2 0x4F83 JUMP JUMPDEST DUP2 LT ISZERO PUSH2 0x3690 JUMPI PUSH2 0x3679 PUSH20 0x0 PUSH4 0x76254FF9 DUP5 DUP5 DUP2 MLOAD DUP2 LT PUSH2 0xEC6 JUMPI PUSH2 0xEC6 PUSH2 0x4FB2 JUMP JUMPDEST ISZERO PUSH2 0x3690 JUMPI DUP1 PUSH2 0x3688 DUP2 PUSH2 0x4FC8 JUMP JUMPDEST SWAP2 POP POP PUSH2 0x3635 JUMP JUMPDEST PUSH1 0x1 DUP3 MLOAD PUSH2 0x369E SWAP2 SWAP1 PUSH2 0x4F83 JUMP JUMPDEST DUP2 LT ISZERO PUSH2 0x36AC JUMPI POP POP PUSH2 0x36D8 JUMP JUMPDEST DUP2 DUP7 DUP6 PUSH2 0x36B8 DUP2 PUSH2 0x4FC8 JUMP JUMPDEST SWAP7 POP DUP2 MLOAD DUP2 LT PUSH2 0x36CA JUMPI PUSH2 0x36CA PUSH2 0x4FB2 JUMP JUMPDEST PUSH1 0x20 MUL PUSH1 0x20 ADD ADD DUP2 SWAP1 MSTORE POP POP POP JUMPDEST DUP1 PUSH2 0x36E2 DUP2 PUSH2 0x4FC8 JUMP JUMPDEST SWAP2 POP POP PUSH2 0x344E JUMP JUMPDEST POP DUP1 DUP4 MSTORE PUSH1 0x0 DUP2 GT PUSH2 0x3732 JUMPI PUSH1 0x40 MLOAD PUSH3 0x461BCD PUSH1 0xE5 SHL DUP2 MSTORE PUSH1 0x20 PUSH1 0x4 DUP3 ADD MSTORE PUSH1 0x11 PUSH1 0x24 DUP3 ADD MSTORE PUSH17 0x5F706174684C69737420636F756E743E3 PUSH1 0x7C SHL PUSH1 0x44 DUP3 ADD MSTORE PUSH1 0x64 ADD PUSH2 0x6A3 JUMP JUMPDEST POP POP SWAP3 SWAP2 POP POP JUMP JUMPDEST PUSH2 0x3742 PUSH2 0x44FC JUMP JUMPDEST PUSH1 0x2 DUP6 MLOAD LT ISZERO PUSH2 0x37A0 JUMPI PUSH1 0x40 MLOAD PUSH3 0x461BCD PUSH1 0xE5 SHL DUP2 MSTORE PUSH1 0x20 PUSH1 0x4 DUP3 ADD MSTORE PUSH1 0x23 PUSH1 0x24 DUP3 ADD MSTORE PUSH32 0x5F5F73656172636843466F6C6C6F775061746820706174685F2E6C656E677468 PUSH1 0x44 DUP3 ADD MSTORE PUSH3 0x1F1E99 PUSH1 0xE9 SHL PUSH1 0x64 DUP3 ADD MSTORE PUSH1 0x84 ADD PUSH2 0x6A3 JUMP JUMPDEST DUP4 MLOAD DUP6 MLOAD DUP7 SWAP1 PUSH2 0x37B2 SWAP1 PUSH1 0x1 SWAP1 PUSH2 0x4F83 JUMP JUMPDEST DUP2 MLOAD DUP2 LT PUSH2 0x37C2 JUMPI PUSH2 0x37C2 PUSH2 0x4FB2 JUMP JUMPDEST PUSH1 0x20 MUL PUSH1 0x20 ADD ADD MLOAD EQ PUSH2 0x383D JUMPI PUSH1 0x40 MLOAD PUSH3 0x461BCD PUSH1 0xE5 SHL DUP2 MSTORE PUSH1 0x20 PUSH1 0x4 DUP3 ADD MSTORE PUSH1 0x3D PUSH1 0x24 DUP3 ADD MSTORE PUSH32 0x5F5F73656172636843466F6C6C6F775061746820706174685F5B706174685F2E PUSH1 0x44 DUP3 ADD MSTORE PUSH32 0x6C656E677468202D20315D3D3D7461726765745F2E63757272656E6379000000 PUSH1 0x64 DUP3 ADD MSTORE PUSH1 0x84 ADD PUSH2 0x6A3 JUMP JUMPDEST PUSH1 0x60 PUSH2 0x3847 PUSH2 0x462D JUMP JUMPDEST DUP7 MLOAD PUSH1 0x2 SUB PUSH2 0x394C JUMPI PUSH2 0x3883 DUP8 PUSH1 0x2 DUP10 MLOAD PUSH2 0x3862 SWAP2 SWAP1 PUSH2 0x4F83 JUMP JUMPDEST DUP2 MLOAD DUP2 LT PUSH2 0x3872 JUMPI PUSH2 0x3872 PUSH2 0x4FB2 JUMP JUMPDEST PUSH1 0x20 MUL PUSH1 0x20 ADD ADD MLOAD DUP8 DUP8 PUSH1 0x0 PUSH2 0x2D86 JUMP JUMPDEST PUSH1 0x40 DUP5 ADD MSTORE PUSH1 0x20 DUP4 ADD MSTORE DUP1 MLOAD PUSH1 0x80 DUP4 ADD MSTORE DUP8 MLOAD SWAP1 SWAP3 POP PUSH20 0x0 SWAP1 PUSH4 0x2FBF1F93 SWAP1 DUP4 SWAP1 DUP11 SWAP1 PUSH2 0x38C5 SWAP1 PUSH1 0x2 SWAP1 PUSH2 0x4F83 JUMP JUMPDEST DUP2 MLOAD DUP2 LT PUSH2 0x38D5 JUMPI PUSH2 0x38D5 PUSH2 0x4FB2 JUMP JUMPDEST PUSH1 0x20 MUL PUSH1 0x20 ADD ADD MLOAD DUP10 PUSH1 0x0 ADD MLOAD PUSH1 0x40 MLOAD DUP5 PUSH4 0xFFFFFFFF AND PUSH1 0xE0 SHL DUP2 MSTORE PUSH1 0x4 ADD PUSH2 0x3900 SWAP4 SWAP3 SWAP2 SWAP1 PUSH2 0x5AA4 JUMP JUMPDEST PUSH1 0x0 PUSH1 0x40 MLOAD DUP1 DUP4 SUB DUP2 DUP7 GAS DELEGATECALL ISZERO DUP1 ISZERO PUSH2 0x391D JUMPI RETURNDATASIZE PUSH1 0x0 DUP1 RETURNDATACOPY RETURNDATASIZE PUSH1 0x0 REVERT JUMPDEST POP POP POP POP PUSH1 0x40 MLOAD RETURNDATASIZE PUSH1 0x0 DUP3 RETURNDATACOPY PUSH1 0x1F RETURNDATASIZE SWAP1 DUP2 ADD PUSH1 0x1F NOT AND DUP3 ADD PUSH1 0x40 MSTORE PUSH2 0x3945 SWAP2 SWAP1 DUP2 ADD SWAP1 PUSH2 0x5AC9 JUMP JUMPDEST SWAP1 POP PUSH2 0x3FB3 JUMP JUMPDEST PUSH1 0x40 DUP6 ADD MLOAD PUSH1 0x1 JUMPDEST PUSH1 0x1 DUP10 MLOAD PUSH2 0x3962 SWAP2 SWAP1 PUSH2 0x4F83 JUMP JUMPDEST DUP2 LT ISZERO PUSH2 0x3B23 JUMPI PUSH1 0x0 PUSH2 0x3A57 DUP11 PUSH2 0x397A PUSH1 0x1 DUP6 PUSH2 0x4F83 JUMP JUMPDEST DUP2 MLOAD DUP2 LT PUSH2 0x398A JUMPI PUSH2 0x398A PUSH2 0x4FB2 JUMP JUMPDEST PUSH1 0x20 MUL PUSH1 0x20 ADD ADD MLOAD PUSH1 0x40 MLOAD DUP1 PUSH1 0xE0 ADD PUSH1 0x40 MSTORE DUP1 DUP14 DUP7 DUP2 MLOAD DUP2 LT PUSH2 0x39AF JUMPI PUSH2 0x39AF PUSH2 0x4FB2 JUMP JUMPDEST PUSH1 0x20 MUL PUSH1 0x20 ADD ADD MLOAD DUP2 MSTORE PUSH1 0x20 ADD PUSH1 0x0 DUP2 MSTORE PUSH1 0x20 ADD PUSH1 0x0 DUP2 MSTORE PUSH1 0x20 ADD PUSH1 0x0 ISZERO ISZERO DUP2 MSTORE PUSH1 0x20 ADD PUSH1 0x0 ISZERO ISZERO DUP2 MSTORE PUSH1 0x20 ADD PUSH1 0x0 DUP2 MSTORE PUSH1 0x20 ADD PUSH1 0x0 PUSH1 0x1 PUSH1 0x1 PUSH1 0x40 SHL SUB DUP2 GT ISZERO PUSH2 0x39FC JUMPI PUSH2 0x39FC PUSH2 0x4732 JUMP JUMPDEST PUSH1 0x40 MLOAD SWAP1 DUP1 DUP3 MSTORE DUP1 PUSH1 0x20 MUL PUSH1 0x20 ADD DUP3 ADD PUSH1 0x40 MSTORE DUP1 ISZERO PUSH2 0x3A25 JUMPI DUP2 PUSH1 0x20 ADD PUSH1 0x20 DUP3 MUL DUP1 CALLDATASIZE DUP4 CALLDATACOPY ADD SWAP1 POP JUMPDEST POP DUP2 MSTORE POP PUSH1 0x40 MLOAD DUP1 PUSH1 0x80 ADD PUSH1 0x40 MSTORE DUP1 PUSH1 0x0 DUP2 MSTORE PUSH1 0x20 ADD PUSH1 0x0 DUP2 MSTORE PUSH1 0x20 ADD DUP8 DUP2 MSTORE PUSH1 0x20 ADD DUP13 PUSH1 0x60 ADD MLOAD DUP2 MSTORE POP PUSH1 0x1 PUSH2 0x2D86 JUMP JUMPDEST POP SWAP2 POP POP PUSH1 0x0 DUP2 SWAP1 SUB PUSH2 0x3A6E JUMPI POP POP POP POP POP PUSH2 0x4038 JUMP JUMPDEST DUP7 PUSH20 0x0 PUSH4 0xE23EDBEF SWAP1 SWAP2 DUP13 DUP6 DUP2 MLOAD DUP2 LT PUSH2 0x3A9D JUMPI PUSH2 0x3A9D PUSH2 0x4FB2 JUMP JUMPDEST PUSH1 0x20 MUL PUSH1 0x20 ADD ADD MLOAD PUSH1 0x40 MLOAD DUP4 PUSH4 0xFFFFFFFF AND PUSH1 0xE0 SHL DUP2 MSTORE PUSH1 0x4 ADD PUSH2 0x3AC2 SWAP3 SWAP2 SWAP1 PUSH2 0x5AFD JUMP JUMPDEST PUSH1 0x20 PUSH1 0x40 MLOAD DUP1 DUP4 SUB DUP2 DUP7 GAS DELEGATECALL ISZERO DUP1 ISZERO PUSH2 0x3ADF JUMPI RETURNDATASIZE PUSH1 0x0 DUP1 RETURNDATACOPY RETURNDATASIZE PUSH1 0x0 REVERT JUMPDEST POP POP POP POP PUSH1 0x40 MLOAD RETURNDATASIZE PUSH1 0x1F NOT PUSH1 0x1F DUP3 ADD AND DUP3 ADD DUP1 PUSH1 0x40 MSTORE POP DUP2 ADD SWAP1 PUSH2 0x3B03 SWAP2 SWAP1 PUSH2 0x4F54 JUMP JUMPDEST PUSH2 0x3B0D SWAP1 DUP3 PUSH2 0x4F9A JUMP JUMPDEST SWAP3 POP POP DUP1 DUP1 PUSH2 0x3B1B SWAP1 PUSH2 0x4FC8 JUMP JUMPDEST SWAP2 POP POP PUSH2 0x3954 JUMP JUMPDEST POP PUSH2 0x3B7D DUP9 PUSH1 0x2 DUP11 MLOAD PUSH2 0x3B36 SWAP2 SWAP1 PUSH2 0x4F83 JUMP JUMPDEST DUP2 MLOAD DUP2 LT PUSH2 0x3B46 JUMPI PUSH2 0x3B46 PUSH2 0x4FB2 JUMP JUMPDEST PUSH1 0x20 MUL PUSH1 0x20 ADD ADD MLOAD DUP9 PUSH1 0x40 MLOAD DUP1 PUSH1 0x80 ADD PUSH1 0x40 MSTORE DUP1 PUSH1 0x0 DUP2 MSTORE PUSH1 0x20 ADD PUSH1 0x0 DUP2 MSTORE PUSH1 0x20 ADD DUP6 DUP2 MSTORE PUSH1 0x20 ADD DUP11 PUSH1 0x60 ADD MLOAD DUP2 MSTORE POP PUSH1 0x0 PUSH2 0x2D86 JUMP JUMPDEST PUSH1 0x40 DUP6 ADD MSTORE PUSH1 0x20 DUP5 ADD DUP2 SWAP1 MSTORE SWAP1 SWAP4 POP PUSH1 0x0 SUB PUSH2 0x3B9B JUMPI POP POP POP PUSH2 0x4038 JUMP JUMPDEST DUP3 MLOAD PUSH1 0x80 DUP4 ADD MSTORE DUP8 MLOAD PUSH20 0x0 SWAP1 PUSH4 0x2FBF1F93 SWAP1 DUP5 SWAP1 DUP12 SWAP1 PUSH2 0x3BD0 SWAP1 PUSH1 0x2 SWAP1 PUSH2 0x4F83 JUMP JUMPDEST DUP2 MLOAD DUP2 LT PUSH2 0x3BE0 JUMPI PUSH2 0x3BE0 PUSH2 0x4FB2 JUMP JUMPDEST PUSH1 0x20 MUL PUSH1 0x20 ADD ADD MLOAD DUP11 PUSH1 0x0 ADD MLOAD PUSH1 0x40 MLOAD DUP5 PUSH4 0xFFFFFFFF AND PUSH1 0xE0 SHL DUP2 MSTORE PUSH1 0x4 ADD PUSH2 0x3C0B SWAP4 SWAP3 SWAP2 SWAP1 PUSH2 0x5AA4 JUMP JUMPDEST PUSH1 0x0 PUSH1 0x40 MLOAD DUP1 DUP4 SUB DUP2 DUP7 GAS DELEGATECALL ISZERO DUP1 ISZERO PUSH2 0x3C28 JUMPI RETURNDATASIZE PUSH1 0x0 DUP1 RETURNDATACOPY RETURNDATASIZE PUSH1 0x0 REVERT JUMPDEST POP POP POP POP PUSH1 0x40 MLOAD RETURNDATASIZE PUSH1 0x0 DUP3 RETURNDATACOPY PUSH1 0x1F RETURNDATASIZE SWAP1 DUP2 ADD PUSH1 0x1F NOT AND DUP3 ADD PUSH1 0x40 MSTORE PUSH2 0x3C50 SWAP2 SWAP1 DUP2 ADD SWAP1 PUSH2 0x5AC9 JUMP JUMPDEST SWAP2 POP PUSH8 0xDE0B6B3A7640000 DUP3 PUSH1 0x40 ADD MLOAD PUSH1 0x20 ADD MLOAD DUP4 PUSH1 0x20 ADD MLOAD PUSH2 0x3C73 SWAP2 SWAP1 PUSH2 0x5003 JUMP JUMPDEST PUSH2 0x3C7D SWAP2 SWAP1 PUSH2 0x4FE1 JUMP JUMPDEST SWAP1 POP PUSH1 0x0 PUSH1 0x2 DUP10 MLOAD PUSH2 0x3C8F SWAP2 SWAP1 PUSH2 0x4F83 JUMP JUMPDEST SWAP1 POP JUMPDEST DUP1 ISZERO PUSH2 0x3FB0 JUMPI PUSH1 0x60 PUSH2 0x3CA2 PUSH2 0x462D JUMP JUMPDEST PUSH2 0x3CAA PUSH2 0x4685 JUMP JUMPDEST PUSH2 0x3CD5 PUSH1 0x40 MLOAD DUP1 PUSH1 0x80 ADD PUSH1 0x40 MSTORE DUP1 PUSH1 0x0 DUP2 MSTORE PUSH1 0x20 ADD PUSH1 0x0 DUP2 MSTORE PUSH1 0x20 ADD PUSH1 0x0 DUP2 MSTORE PUSH1 0x20 ADD PUSH1 0x60 DUP2 MSTORE POP SWAP1 JUMP JUMPDEST DUP13 DUP6 DUP2 MLOAD DUP2 LT PUSH2 0x3CE7 JUMPI PUSH2 0x3CE7 PUSH2 0x4FB2 JUMP JUMPDEST PUSH1 0x20 MUL PUSH1 0x20 ADD ADD MLOAD DUP3 PUSH1 0x0 ADD DUP2 DUP2 MSTORE POP POP DUP10 PUSH20 0x0 PUSH4 0xE23EDBEF SWAP1 SWAP2 DUP16 DUP9 DUP2 MLOAD DUP2 LT PUSH2 0x3D27 JUMPI PUSH2 0x3D27 PUSH2 0x4FB2 JUMP JUMPDEST PUSH1 0x20 MUL PUSH1 0x20 ADD ADD MLOAD PUSH1 0x40 MLOAD DUP4 PUSH4 0xFFFFFFFF AND PUSH1 0xE0 SHL DUP2 MSTORE PUSH1 0x4 ADD PUSH2 0x3D4C SWAP3 SWAP2 SWAP1 PUSH2 0x5AFD JUMP JUMPDEST PUSH1 0x20 PUSH1 0x40 MLOAD DUP1 DUP4 SUB DUP2 DUP7 GAS DELEGATECALL ISZERO DUP1 ISZERO PUSH2 0x3D69 JUMPI RETURNDATASIZE PUSH1 0x0 DUP1 RETURNDATACOPY RETURNDATASIZE PUSH1 0x0 REVERT JUMPDEST POP POP POP POP PUSH1 0x40 MLOAD RETURNDATASIZE PUSH1 0x1F NOT PUSH1 0x1F DUP3 ADD AND DUP3 ADD DUP1 PUSH1 0x40 MSTORE POP DUP2 ADD SWAP1 PUSH2 0x3D8D SWAP2 SWAP1 PUSH2 0x4F54 JUMP JUMPDEST PUSH2 0x3D97 SWAP1 DUP8 PUSH2 0x4F83 JUMP JUMPDEST PUSH1 0x40 DUP4 ADD MSTORE PUSH1 0x1 PUSH1 0x60 DUP1 DUP5 ADD DUP3 SWAP1 MSTORE DUP13 DUP2 ADD MLOAD SWAP1 DUP4 ADD MSTORE PUSH2 0x3DDF SWAP1 DUP15 SWAP1 PUSH2 0x3DBE SWAP1 DUP9 PUSH2 0x4F83 JUMP JUMPDEST DUP2 MLOAD DUP2 LT PUSH2 0x3DCE JUMPI PUSH2 0x3DCE PUSH2 0x4FB2 JUMP JUMPDEST PUSH1 0x20 MUL PUSH1 0x20 ADD ADD MLOAD DUP4 DUP4 PUSH1 0x0 PUSH2 0x2D86 JUMP JUMPDEST PUSH1 0x40 DUP7 ADD MSTORE PUSH1 0x20 DUP6 ADD DUP2 SWAP1 MSTORE SWAP1 SWAP5 POP PUSH1 0x0 SUB SWAP2 POP PUSH2 0x3E04 SWAP1 POP JUMPI POP POP POP POP POP POP PUSH2 0x4038 JUMP JUMPDEST PUSH8 0xDE0B6B3A7640000 DUP2 PUSH1 0x40 ADD MLOAD PUSH1 0x20 ADD MLOAD DUP3 PUSH1 0x20 ADD MLOAD PUSH2 0x3E25 SWAP2 SWAP1 PUSH2 0x5003 JUMP JUMPDEST PUSH2 0x3E2F SWAP2 SWAP1 PUSH2 0x4FE1 JUMP JUMPDEST SWAP4 POP PUSH20 0x0 PUSH4 0x50308EDE DUP7 DUP9 DUP15 PUSH2 0x3E59 PUSH1 0x1 DUP10 PUSH2 0x4F83 JUMP JUMPDEST DUP2 MLOAD DUP2 LT PUSH2 0x3E69 JUMPI PUSH2 0x3E69 PUSH2 0x4FB2 JUMP JUMPDEST PUSH1 0x20 MUL PUSH1 0x20 ADD ADD MLOAD DUP7 PUSH1 0x40 MLOAD DUP6 PUSH4 0xFFFFFFFF AND PUSH1 0xE0 SHL DUP2 MSTORE PUSH1 0x4 ADD PUSH2 0x3E91 SWAP5 SWAP4 SWAP3 SWAP2 SWAP1 PUSH2 0x5B10 JUMP JUMPDEST PUSH1 0x0 PUSH1 0x40 MLOAD DUP1 DUP4 SUB DUP2 DUP7 GAS DELEGATECALL ISZERO DUP1 ISZERO PUSH2 0x3EAE JUMPI RETURNDATASIZE PUSH1 0x0 DUP1 RETURNDATACOPY RETURNDATASIZE PUSH1 0x0 REVERT JUMPDEST POP POP POP POP PUSH1 0x40 MLOAD RETURNDATASIZE PUSH1 0x0 DUP3 RETURNDATACOPY PUSH1 0x1F RETURNDATASIZE SWAP1 DUP2 ADD PUSH1 0x1F NOT AND DUP3 ADD PUSH1 0x40 MSTORE PUSH2 0x3ED6 SWAP2 SWAP1 DUP2 ADD SWAP1 PUSH2 0x5B4F JUMP JUMPDEST PUSH1 0x40 DUP1 DUP5 ADD MLOAD MLOAD SWAP1 DUP4 ADD MLOAD MLOAD SWAP2 SWAP9 POP SWAP2 SWAP7 POP PUSH8 0xDE0B6B3A7640000 SWAP2 PUSH2 0x3EFB SWAP2 PUSH2 0x5003 JUMP JUMPDEST PUSH2 0x3F05 SWAP2 SWAP1 PUSH2 0x4FE1 JUMP JUMPDEST PUSH1 0x40 DUP1 DUP8 ADD DUP1 MLOAD SWAP3 SWAP1 SWAP3 MSTORE DUP3 DUP2 ADD MLOAD DUP2 ADD MLOAD SWAP2 MLOAD ADD MLOAD PUSH8 0xDE0B6B3A7640000 SWAP2 PUSH2 0x3F2E SWAP2 PUSH2 0x5003 JUMP JUMPDEST PUSH2 0x3F38 SWAP2 SWAP1 PUSH2 0x4FE1 JUMP JUMPDEST DUP6 PUSH1 0x40 ADD MLOAD PUSH1 0x40 ADD DUP2 DUP2 MSTORE POP POP PUSH8 0xDE0B6B3A7640000 DUP6 PUSH1 0x20 ADD MLOAD DUP3 PUSH1 0x40 ADD MLOAD PUSH1 0x20 ADD MLOAD DUP4 PUSH1 0x20 ADD MLOAD PUSH2 0x3F6B SWAP2 SWAP1 PUSH2 0x5003 JUMP JUMPDEST PUSH2 0x3F75 SWAP2 SWAP1 PUSH2 0x4FE1 JUMP JUMPDEST DUP7 PUSH1 0x40 ADD MLOAD PUSH1 0x20 ADD MLOAD PUSH2 0x3F88 SWAP2 SWAP1 PUSH2 0x5003 JUMP JUMPDEST PUSH2 0x3F92 SWAP2 SWAP1 PUSH2 0x4FE1 JUMP JUMPDEST PUSH1 0x40 DUP7 ADD MLOAD PUSH1 0x20 ADD MSTORE POP DUP2 SWAP1 POP PUSH2 0x3FA8 DUP2 PUSH2 0x5BB2 JUMP JUMPDEST SWAP2 POP POP PUSH2 0x3C92 JUMP JUMPDEST POP POP JUMPDEST PUSH1 0x40 MLOAD PUSH4 0x7513CE1B PUSH1 0xE0 SHL DUP2 MSTORE PUSH20 0x0 SWAP1 PUSH4 0x7513CE1B SWAP1 PUSH2 0x3FEE SWAP1 DUP7 SWAP1 DUP6 SWAP1 DUP8 SWAP1 PUSH1 0x4 ADD PUSH2 0x5341 JUMP JUMPDEST PUSH1 0x0 PUSH1 0x40 MLOAD DUP1 DUP4 SUB DUP2 DUP7 GAS DELEGATECALL ISZERO DUP1 ISZERO PUSH2 0x400B JUMPI RETURNDATASIZE PUSH1 0x0 DUP1 RETURNDATACOPY RETURNDATASIZE PUSH1 0x0 REVERT JUMPDEST POP POP POP POP PUSH1 0x40 MLOAD RETURNDATASIZE PUSH1 0x0 DUP3 RETURNDATACOPY PUSH1 0x1F RETURNDATASIZE SWAP1 DUP2 ADD PUSH1 0x1F NOT AND DUP3 ADD PUSH1 0x40 MSTORE PUSH2 0x4033 SWAP2 SWAP1 DUP2 ADD SWAP1 PUSH2 0x556E JUMP JUMPDEST SWAP3 POP POP POP JUMPDEST SWAP5 SWAP4 POP POP POP POP JUMP JUMPDEST PUSH1 0x60 PUSH1 0x0 DUP1 PUSH1 0x0 PUSH1 0x6 PUSH1 0x0 PUSH20 0x0 PUSH4 0x76254FF9 DUP13 DUP13 PUSH1 0x40 MLOAD DUP4 PUSH4 0xFFFFFFFF AND PUSH1 0xE0 SHL DUP2 MSTORE PUSH1 0x4 ADD PUSH2 0x408D SWAP3 SWAP2 SWAP1 SWAP2 DUP3 MSTORE PUSH1 0x20 DUP3 ADD MSTORE PUSH1 0x40 ADD SWAP1 JUMP JUMPDEST PUSH1 0x20 PUSH1 0x40 MLOAD DUP1 DUP4 SUB DUP2 DUP7 GAS DELEGATECALL ISZERO DUP1 ISZERO PUSH2 0x40AA JUMPI RETURNDATASIZE PUSH1 0x0 DUP1 RETURNDATACOPY RETURNDATASIZE PUSH1 0x0 REVERT JUMPDEST POP POP POP POP PUSH1 0x40 MLOAD RETURNDATASIZE PUSH1 0x1F NOT PUSH1 0x1F DUP3 ADD AND DUP3 ADD DUP1 PUSH1 0x40 MSTORE POP DUP2 ADD SWAP1 PUSH2 0x40CE SWAP2 SWAP1 PUSH2 0x4F54 JUMP JUMPDEST DUP2 MSTORE PUSH1 0x20 ADD SWAP1 DUP2 MSTORE PUSH1 0x20 ADD PUSH1 0x0 KECCAK256 SWAP1 POP PUSH1 0x0 DUP2 DUP1 SLOAD SWAP1 POP SWAP1 POP DUP6 PUSH1 0x0 SUB PUSH2 0x40F3 JUMPI DUP1 SWAP6 POP JUMPDEST DUP6 PUSH1 0x1 PUSH1 0x1 PUSH1 0x40 SHL SUB DUP2 GT ISZERO PUSH2 0x410B JUMPI PUSH2 0x410B PUSH2 0x4732 JUMP JUMPDEST PUSH1 0x40 MLOAD SWAP1 DUP1 DUP3 MSTORE DUP1 PUSH1 0x20 MUL PUSH1 0x20 ADD DUP3 ADD PUSH1 0x40 MSTORE DUP1 ISZERO PUSH2 0x4144 JUMPI DUP2 PUSH1 0x20 ADD JUMPDEST PUSH2 0x4131 PUSH2 0x4546 JUMP JUMPDEST DUP2 MSTORE PUSH1 0x20 ADD SWAP1 PUSH1 0x1 SWAP1 SUB SWAP1 DUP2 PUSH2 0x4129 JUMPI SWAP1 POP JUMPDEST POP SWAP5 POP PUSH1 0x0 JUMPDEST DUP2 DUP2 LT ISZERO PUSH2 0x44ED JUMPI DUP7 DUP5 LT ISZERO PUSH2 0x44ED JUMPI PUSH1 0x0 PUSH1 0x5 PUSH1 0x0 DUP6 DUP5 DUP2 SLOAD DUP2 LT PUSH2 0x4172 JUMPI PUSH2 0x4172 PUSH2 0x4FB2 JUMP JUMPDEST SWAP1 PUSH1 0x0 MSTORE PUSH1 0x20 PUSH1 0x0 KECCAK256 ADD SLOAD DUP2 MSTORE PUSH1 0x20 ADD SWAP1 DUP2 MSTORE PUSH1 0x20 ADD PUSH1 0x0 KECCAK256 SWAP1 POP PUSH20 0x0 PUSH4 0x84B5B2C DUP3 PUSH1 0x40 MLOAD DUP3 PUSH4 0xFFFFFFFF AND PUSH1 0xE0 SHL DUP2 MSTORE PUSH1 0x4 ADD PUSH2 0x41C4 SWAP2 SWAP1 PUSH2 0x5CA4 JUMP JUMPDEST PUSH1 0x20 PUSH1 0x40 MLOAD DUP1 DUP4 SUB DUP2 DUP7 GAS DELEGATECALL ISZERO DUP1 ISZERO PUSH2 0x41E1 JUMPI RETURNDATASIZE PUSH1 0x0 DUP1 RETURNDATACOPY RETURNDATASIZE PUSH1 0x0 REVERT JUMPDEST POP POP POP POP PUSH1 0x40 MLOAD RETURNDATASIZE PUSH1 0x1F NOT PUSH1 0x1F DUP3 ADD AND DUP3 ADD DUP1 PUSH1 0x40 MSTORE POP DUP2 ADD SWAP1 PUSH2 0x4205 SWAP2 SWAP1 PUSH2 0x4F54 JUMP JUMPDEST ISZERO DUP1 PUSH2 0x4289 JUMPI POP PUSH1 0x40 MLOAD PUSH4 0x212D6CB PUSH1 0xE2 SHL DUP2 MSTORE TIMESTAMP SWAP1 PUSH20 0x0 SWAP1 PUSH4 0x84B5B2C SWAP1 PUSH2 0x4245 SWAP1 DUP6 SWAP1 PUSH1 0x4 ADD PUSH2 0x5CA4 JUMP JUMPDEST PUSH1 0x20 PUSH1 0x40 MLOAD DUP1 DUP4 SUB DUP2 DUP7 GAS DELEGATECALL ISZERO DUP1 ISZERO PUSH2 0x4262 JUMPI RETURNDATASIZE PUSH1 0x0 DUP1 RETURNDATACOPY RETURNDATASIZE PUSH1 0x0 REVERT JUMPDEST POP POP POP POP PUSH1 0x40 MLOAD RETURNDATASIZE PUSH1 0x1F NOT PUSH1 0x1F DUP3 ADD AND DUP3 ADD DUP1 PUSH1 0x40 MSTORE POP DUP2 ADD SWAP1 PUSH2 0x4286 SWAP2 SWAP1 PUSH2 0x4F54 JUMP JUMPDEST LT ISZERO JUMPDEST DUP1 ISZERO PUSH2 0x43A6 JUMPI POP PUSH1 0x40 MLOAD PUSH4 0x23AA9AB PUSH1 0xE6 SHL DUP2 MSTORE PUSH32 0x33FFBDFF3A4282DF4353F3593B78D26AAF4C28B5786164F828858505BC5E301C PUSH1 0x4 DUP3 ADD MSTORE PUSH32 0x0 PUSH1 0x1 PUSH1 0x1 PUSH1 0xA0 SHL SUB AND SWAP1 PUSH4 0x8EAA6AC0 SWAP1 PUSH1 0x24 ADD PUSH1 0x20 PUSH1 0x40 MLOAD DUP1 DUP4 SUB DUP2 DUP7 GAS STATICCALL ISZERO DUP1 ISZERO PUSH2 0x4314 JUMPI RETURNDATASIZE PUSH1 0x0 DUP1 RETURNDATACOPY RETURNDATASIZE PUSH1 0x0 REVERT JUMPDEST POP POP POP POP PUSH1 0x40 MLOAD RETURNDATASIZE PUSH1 0x1F NOT PUSH1 0x1F DUP3 ADD AND DUP3 ADD DUP1 PUSH1 0x40 MSTORE POP DUP2 ADD SWAP1 PUSH2 0x4338 SWAP2 SWAP1 PUSH2 0x50C7 JUMP JUMPDEST PUSH1 0x1 PUSH1 0x1 PUSH1 0xA0 SHL SUB AND PUSH4 0x5ACA1641 DUP3 DUP13 PUSH1 0x40 MLOAD DUP4 PUSH4 0xFFFFFFFF AND PUSH1 0xE0 SHL DUP2 MSTORE PUSH1 0x4 ADD PUSH2 0x4365 SWAP3 SWAP2 SWAP1 PUSH2 0x5CB3 JUMP JUMPDEST PUSH1 0x20 PUSH1 0x40 MLOAD DUP1 DUP4 SUB DUP2 DUP7 GAS STATICCALL ISZERO DUP1 ISZERO PUSH2 0x4382 JUMPI RETURNDATASIZE PUSH1 0x0 DUP1 RETURNDATACOPY RETURNDATASIZE PUSH1 0x0 REVERT JUMPDEST POP POP POP POP PUSH1 0x40 MLOAD RETURNDATASIZE PUSH1 0x1F NOT PUSH1 0x1F DUP3 ADD AND DUP3 ADD DUP1 PUSH1 0x40 MSTORE POP DUP2 ADD SWAP1 PUSH2 0x43A6 SWAP2 SWAP1 PUSH2 0x4F37 JUMP JUMPDEST ISZERO PUSH2 0x44D9 JUMPI DUP6 PUSH2 0x43B5 DUP2 PUSH2 0x4FC8 JUMP JUMPDEST SWAP7 POP POP DUP9 DUP7 GT PUSH2 0x43C5 JUMPI POP PUSH2 0x44DB JUMP JUMPDEST PUSH1 0x0 PUSH2 0x43EE DUP6 DUP5 DUP2 SLOAD DUP2 LT PUSH2 0x43DC JUMPI PUSH2 0x43DC PUSH2 0x4FB2 JUMP JUMPDEST SWAP1 PUSH1 0x0 MSTORE PUSH1 0x20 PUSH1 0x0 KECCAK256 ADD SLOAD PUSH1 0x1 PUSH2 0x255D JUMP JUMPDEST SWAP1 POP DUP1 PUSH1 0xA0 ADD MLOAD DUP2 PUSH1 0x80 ADD MLOAD LT ISZERO PUSH2 0x4407 JUMPI POP POP PUSH2 0x44DB JUMP JUMPDEST DUP1 PUSH1 0x60 ADD MLOAD DUP9 DUP8 DUP2 MLOAD DUP2 LT PUSH2 0x441E JUMPI PUSH2 0x441E PUSH2 0x4FB2 JUMP JUMPDEST PUSH1 0x20 MUL PUSH1 0x20 ADD ADD MLOAD PUSH1 0x0 ADD DUP2 DUP2 MSTORE POP POP DUP1 PUSH1 0x40 ADD MLOAD DUP9 DUP8 DUP2 MLOAD DUP2 LT PUSH2 0x4445 JUMPI PUSH2 0x4445 PUSH2 0x4FB2 JUMP JUMPDEST PUSH1 0x20 MUL PUSH1 0x20 ADD ADD MLOAD PUSH1 0x20 ADD DUP2 DUP2 MSTORE POP POP DUP1 PUSH1 0xA0 ADD MLOAD DUP9 DUP8 DUP2 MLOAD DUP2 LT PUSH2 0x446C JUMPI PUSH2 0x446C PUSH2 0x4FB2 JUMP JUMPDEST PUSH1 0x20 MUL PUSH1 0x20 ADD ADD MLOAD PUSH1 0x60 ADD DUP2 DUP2 MSTORE POP POP DUP1 PUSH1 0x80 ADD MLOAD DUP9 DUP8 DUP2 MLOAD DUP2 LT PUSH2 0x4493 JUMPI PUSH2 0x4493 PUSH2 0x4FB2 JUMP JUMPDEST PUSH1 0x20 MUL PUSH1 0x20 ADD ADD MLOAD PUSH1 0x40 ADD DUP2 DUP2 MSTORE POP POP DUP1 PUSH2 0x100 ADD MLOAD DUP9 DUP8 DUP2 MLOAD DUP2 LT PUSH2 0x44BB JUMPI PUSH2 0x44BB PUSH2 0x4FB2 JUMP JUMPDEST PUSH1 0x20 SWAP1 DUP2 MUL SWAP2 SWAP1 SWAP2 ADD ADD MLOAD PUSH1 0x80 ADD MSTORE DUP6 PUSH2 0x44D4 DUP2 PUSH2 0x4FC8 JUMP JUMPDEST SWAP7 POP POP POP JUMPDEST POP JUMPDEST DUP1 PUSH2 0x44E5 DUP2 PUSH2 0x4FC8 JUMP JUMPDEST SWAP2 POP POP PUSH2 0x414A JUMP JUMPDEST POP POP POP DUP3 MSTORE POP SWAP6 SWAP5 POP POP POP POP POP JUMP JUMPDEST PUSH1 0x40 MLOAD DUP1 PUSH1 0x80 ADD PUSH1 0x40 MSTORE DUP1 PUSH1 0x0 DUP2 MSTORE PUSH1 0x20 ADD PUSH2 0x4532 PUSH1 0x40 MLOAD DUP1 PUSH1 0x60 ADD PUSH1 0x40 MSTORE DUP1 PUSH1 0x0 DUP2 MSTORE PUSH1 0x20 ADD PUSH1 0x0 DUP2 MSTORE PUSH1 0x20 ADD PUSH1 0x0 DUP2 MSTORE POP SWAP1 JUMP JUMPDEST DUP2 MSTORE PUSH1 0x20 ADD PUSH1 0x60 DUP2 MSTORE PUSH1 0x20 ADD PUSH1 0x60 DUP2 MSTORE POP SWAP1 JUMP JUMPDEST PUSH1 0x40 MLOAD DUP1 PUSH1 0xC0 ADD PUSH1 0x40 MSTORE DUP1 PUSH1 0x0 DUP2 MSTORE PUSH1 0x20 ADD PUSH1 0x0 DUP1 NOT AND DUP2 MSTORE PUSH1 0x20 ADD PUSH1 0x0 DUP2 MSTORE PUSH1 0x20 ADD PUSH1 0x0 DUP2 MSTORE PUSH1 0x20 ADD PUSH1 0x0 DUP2 MSTORE PUSH1 0x20 ADD PUSH1 0x60 DUP2 MSTORE POP SWAP1 JUMP JUMPDEST PUSH1 0x40 MLOAD DUP1 PUSH2 0x1C0 ADD PUSH1 0x40 MSTORE DUP1 PUSH1 0x0 PUSH1 0x1 PUSH1 0x1 PUSH1 0xA0 SHL SUB AND DUP2 MSTORE PUSH1 0x20 ADD PUSH1 0x0 DUP1 NOT AND DUP2 MSTORE PUSH1 0x20 ADD PUSH1 0x0 DUP1 NOT AND DUP2 MSTORE PUSH1 0x20 ADD PUSH1 0x0 DUP2 MSTORE PUSH1 0x20 ADD PUSH1 0x0 DUP2 MSTORE PUSH1 0x20 ADD PUSH1 0x0 DUP2 MSTORE PUSH1 0x20 ADD PUSH1 0x0 DUP2 MSTORE PUSH1 0x20 ADD PUSH1 0x0 DUP2 MSTORE PUSH1 0x20 ADD PUSH1 0x0 DUP2 MSTORE PUSH1 0x20 ADD PUSH1 0x0 DUP2 MSTORE PUSH1 0x20 ADD PUSH1 0x0 DUP2 MSTORE PUSH1 0x20 ADD PUSH1 0x0 DUP2 MSTORE PUSH1 0x20 ADD PUSH1 0x0 PUSH1 0x5 DUP2 GT ISZERO PUSH2 0x4601 JUMPI PUSH2 0x4601 PUSH2 0x4CF5 JUMP JUMPDEST DUP2 MSTORE PUSH1 0x0 PUSH1 0x20 SWAP1 SWAP2 ADD MSTORE SWAP1 JUMP JUMPDEST PUSH1 0x40 MLOAD DUP1 PUSH2 0x500 ADD PUSH1 0x40 MSTORE DUP1 PUSH1 0x28 SWAP1 PUSH1 0x20 DUP3 MUL DUP1 CALLDATASIZE DUP4 CALLDATACOPY POP SWAP2 SWAP3 SWAP2 POP POP JUMP JUMPDEST PUSH1 0x40 MLOAD DUP1 PUSH1 0xC0 ADD PUSH1 0x40 MSTORE DUP1 PUSH1 0x60 DUP2 MSTORE PUSH1 0x20 ADD PUSH1 0x0 DUP2 MSTORE PUSH1 0x20 ADD PUSH2 0x466A PUSH1 0x40 MLOAD DUP1 PUSH1 0x60 ADD PUSH1 0x40 MSTORE DUP1 PUSH1 0x0 DUP2 MSTORE PUSH1 0x20 ADD PUSH1 0x0 DUP2 MSTORE PUSH1 0x20 ADD PUSH1 0x0 DUP2 MSTORE POP SWAP1 JUMP JUMPDEST DUP2 MSTORE PUSH1 0x20 ADD PUSH1 0x0 DUP2 MSTORE PUSH1 0x20 ADD PUSH1 0x0 DUP2 MSTORE PUSH1 0x20 ADD PUSH1 0x60 DUP2 MSTORE POP SWAP1 JUMP JUMPDEST PUSH1 0x40 MLOAD DUP1 PUSH1 0xE0 ADD PUSH1 0x40 MSTORE DUP1 PUSH1 0x0 DUP1 NOT AND DUP2 MSTORE PUSH1 0x20 ADD PUSH1 0x0 DUP2 MSTORE PUSH1 0x20 ADD PUSH1 0x0 DUP2 MSTORE PUSH1 0x20 ADD PUSH1 0x0 ISZERO ISZERO DUP2 MSTORE PUSH1 0x20 ADD PUSH1 0x0 ISZERO ISZERO DUP2 MSTORE PUSH1 0x20 ADD PUSH1 0x0 DUP2 MSTORE PUSH1 0x20 ADD PUSH1 0x60 DUP2 MSTORE POP SWAP1 JUMP JUMPDEST PUSH1 0x0 DUP1 DUP6 DUP6 GT ISZERO PUSH2 0x46D9 JUMPI PUSH1 0x0 DUP1 REVERT JUMPDEST DUP4 DUP7 GT ISZERO PUSH2 0x46E6 JUMPI PUSH1 0x0 DUP1 REVERT JUMPDEST POP POP DUP3 ADD SWAP4 SWAP2 SWAP1 SWAP3 SUB SWAP2 POP JUMP JUMPDEST PUSH1 0x0 PUSH1 0x20 DUP3 DUP5 SUB SLT ISZERO PUSH2 0x4705 JUMPI PUSH1 0x0 DUP1 REVERT JUMPDEST DUP2 CALLDATALOAD PUSH1 0x1 PUSH1 0x1 PUSH1 0xE0 SHL SUB NOT DUP2 AND DUP2 EQ PUSH2 0xBC2 JUMPI PUSH1 0x0 DUP1 REVERT JUMPDEST PUSH1 0x1 PUSH1 0x1 PUSH1 0xA0 SHL SUB DUP2 AND DUP2 EQ PUSH2 0x1B19 JUMPI PUSH1 0x0 DUP1 REVERT JUMPDEST PUSH4 0x4E487B71 PUSH1 0xE0 SHL PUSH1 0x0 MSTORE PUSH1 0x41 PUSH1 0x4 MSTORE PUSH1 0x24 PUSH1 0x0 REVERT JUMPDEST PUSH1 0x40 MLOAD PUSH1 0xC0 DUP2 ADD PUSH1 0x1 PUSH1 0x1 PUSH1 0x40 SHL SUB DUP2 GT DUP3 DUP3 LT OR ISZERO PUSH2 0x476A JUMPI PUSH2 0x476A PUSH2 0x4732 JUMP JUMPDEST PUSH1 0x40 MSTORE SWAP1 JUMP JUMPDEST PUSH1 0x40 MLOAD PUSH1 0x80 DUP2 ADD PUSH1 0x1 PUSH1 0x1 PUSH1 0x40 SHL SUB DUP2 GT DUP3 DUP3 LT OR ISZERO PUSH2 0x476A JUMPI PUSH2 0x476A PUSH2 0x4732 JUMP JUMPDEST PUSH1 0x40 DUP1 MLOAD SWAP1 DUP2 ADD PUSH1 0x1 PUSH1 0x1 PUSH1 0x40 SHL SUB DUP2 GT DUP3 DUP3 LT OR ISZERO PUSH2 0x476A JUMPI PUSH2 0x476A PUSH2 0x4732 JUMP JUMPDEST PUSH1 0x40 MLOAD PUSH1 0x1F DUP3 ADD PUSH1 0x1F NOT AND DUP2 ADD PUSH1 0x1 PUSH1 0x1 PUSH1 0x40 SHL SUB DUP2 GT DUP3 DUP3 LT OR ISZERO PUSH2 0x47DC JUMPI PUSH2 0x47DC PUSH2 0x4732 JUMP JUMPDEST PUSH1 0x40 MSTORE SWAP2 SWAP1 POP JUMP JUMPDEST DUP1 ISZERO ISZERO DUP2 EQ PUSH2 0x1B19 JUMPI PUSH1 0x0 DUP1 REVERT JUMPDEST DUP1 CALLDATALOAD PUSH2 0x47FD DUP2 PUSH2 0x47E4 JUMP JUMPDEST SWAP2 SWAP1 POP JUMP JUMPDEST PUSH1 0x0 PUSH2 0x100 DUP1 DUP4 DUP6 SUB SLT ISZERO PUSH2 0x4816 JUMPI PUSH1 0x0 DUP1 REVERT JUMPDEST PUSH1 0x40 MLOAD SWAP1 DUP2 ADD SWAP1 PUSH1 0x1 PUSH1 0x1 PUSH1 0x40 SHL SUB DUP3 GT DUP2 DUP4 LT OR ISZERO PUSH2 0x4838 JUMPI PUSH2 0x4838 PUSH2 0x4732 JUMP JUMPDEST PUSH1 0x40 SWAP2 DUP3 MSTORE DUP4 CALLDATALOAD DUP2 MSTORE PUSH1 0x20 DUP1 DUP6 ADD CALLDATALOAD SWAP1 DUP3 ADD MSTORE SWAP2 POP DUP3 ADD CALLDATALOAD DUP2 PUSH2 0x485A DUP3 PUSH2 0x47E4 JUMP JUMPDEST DUP2 PUSH1 0x40 DUP3 ADD MSTORE PUSH2 0x486C PUSH1 0x60 DUP6 ADD PUSH2 0x47F2 JUMP JUMPDEST PUSH1 0x60 DUP3 ADD MSTORE PUSH1 0x80 DUP5 ADD CALLDATALOAD PUSH1 0x80 DUP3 ADD MSTORE PUSH1 0xA0 DUP5 ADD CALLDATALOAD PUSH1 0xA0 DUP3 ADD MSTORE PUSH1 0xC0 DUP5 ADD CALLDATALOAD PUSH1 0xC0 DUP3 ADD MSTORE PUSH1 0xE0 DUP5 ADD CALLDATALOAD PUSH1 0xE0 DUP3 ADD MSTORE POP POP SWAP3 SWAP2 POP POP JUMP JUMPDEST PUSH1 0x0 PUSH1 0x1 PUSH1 0x1 PUSH1 0x40 SHL SUB DUP3 GT ISZERO PUSH2 0x48BA JUMPI PUSH2 0x48BA PUSH2 0x4732 JUMP JUMPDEST POP PUSH1 0x5 SHL PUSH1 0x20 ADD SWAP1 JUMP JUMPDEST PUSH1 0x0 DUP3 PUSH1 0x1F DUP4 ADD SLT PUSH2 0x48D5 JUMPI PUSH1 0x0 DUP1 REVERT JUMPDEST DUP2 CALLDATALOAD PUSH1 0x20 PUSH2 0x48EA PUSH2 0x48E5 DUP4 PUSH2 0x48A1 JUMP JUMPDEST PUSH2 0x47B4 JUMP JUMPDEST DUP3 DUP2 MSTORE PUSH1 0x5 SWAP3 SWAP1 SWAP3 SHL DUP5 ADD DUP2 ADD SWAP2 DUP2 DUP2 ADD SWAP1 DUP7 DUP5 GT ISZERO PUSH2 0x4909 JUMPI PUSH1 0x0 DUP1 REVERT JUMPDEST DUP3 DUP7 ADD JUMPDEST DUP5 DUP2 LT ISZERO PUSH2 0x4924 JUMPI DUP1 CALLDATALOAD DUP4 MSTORE SWAP2 DUP4 ADD SWAP2 DUP4 ADD PUSH2 0x490D JUMP JUMPDEST POP SWAP7 SWAP6 POP POP POP POP POP POP JUMP JUMPDEST PUSH1 0x0 DUP1 PUSH1 0x0 DUP1 PUSH1 0x0 DUP1 PUSH2 0x1A0 DUP8 DUP10 SUB SLT ISZERO PUSH2 0x4949 JUMPI PUSH1 0x0 DUP1 REVERT JUMPDEST DUP7 CALLDATALOAD PUSH2 0x4954 DUP2 PUSH2 0x471D JUMP JUMPDEST SWAP6 POP PUSH1 0x20 DUP8 ADD CALLDATALOAD SWAP5 POP PUSH1 0x40 DUP8 ADD CALLDATALOAD PUSH2 0x496B DUP2 PUSH2 0x471D JUMP JUMPDEST SWAP4 POP PUSH1 0x60 DUP8 ADD CALLDATALOAD SWAP3 POP PUSH2 0x4981 DUP9 PUSH1 0x80 DUP10 ADD PUSH2 0x4802 JUMP JUMPDEST SWAP2 POP PUSH2 0x180 DUP8 ADD CALLDATALOAD PUSH1 0x1 PUSH1 0x1 PUSH1 0x40 SHL SUB DUP2 GT ISZERO PUSH2 0x499D JUMPI PUSH1 0x0 DUP1 REVERT JUMPDEST PUSH2 0x49A9 DUP10 DUP3 DUP11 ADD PUSH2 0x48C4 JUMP JUMPDEST SWAP2 POP POP SWAP3 SWAP6 POP SWAP3 SWAP6 POP SWAP3 SWAP6 JUMP JUMPDEST PUSH1 0x0 DUP2 MLOAD DUP1 DUP5 MSTORE PUSH1 0x20 DUP1 DUP6 ADD SWAP5 POP DUP1 DUP5 ADD PUSH1 0x0 JUMPDEST DUP4 DUP2 LT ISZERO PUSH2 0x49E6 JUMPI DUP2 MLOAD DUP8 MSTORE SWAP6 DUP3 ADD SWAP6 SWAP1 DUP3 ADD SWAP1 PUSH1 0x1 ADD PUSH2 0x49CA JUMP JUMPDEST POP SWAP5 SWAP6 SWAP5 POP POP POP POP POP JUMP JUMPDEST PUSH1 0x0 DUP2 MLOAD DUP1 DUP5 MSTORE PUSH1 0x20 DUP1 DUP6 ADD DUP1 DUP2 SWAP7 POP DUP4 PUSH1 0x5 SHL DUP2 ADD SWAP2 POP DUP3 DUP7 ADD PUSH1 0x0 JUMPDEST DUP6 DUP2 LT ISZERO PUSH2 0x4A77 JUMPI DUP3 DUP5 SUB DUP10 MSTORE DUP2 MLOAD DUP1 MLOAD DUP6 MSTORE DUP6 DUP2 ADD MLOAD DUP7 DUP7 ADD MSTORE PUSH1 0x40 DUP1 DUP3 ADD MLOAD SWAP1 DUP7 ADD MSTORE PUSH1 0x60 DUP1 DUP3 ADD MLOAD SWAP1 DUP7 ADD MSTORE PUSH1 0x80 DUP1 DUP3 ADD MLOAD SWAP1 DUP7 ADD MSTORE PUSH1 0xA0 SWAP1 DUP2 ADD MLOAD PUSH1 0xC0 SWAP2 DUP7 ADD DUP3 SWAP1 MSTORE SWAP1 PUSH2 0x4A63 DUP2 DUP8 ADD DUP4 PUSH2 0x49B6 JUMP JUMPDEST SWAP11 DUP8 ADD SWAP11 SWAP6 POP POP POP SWAP1 DUP5 ADD SWAP1 PUSH1 0x1 ADD PUSH2 0x4A0F JUMP JUMPDEST POP SWAP2 SWAP8 SWAP7 POP POP POP POP POP POP POP JUMP JUMPDEST PUSH1 0xA0 DUP2 MSTORE PUSH1 0x0 PUSH2 0x4A97 PUSH1 0xA0 DUP4 ADD DUP7 PUSH2 0x49F1 JUMP JUMPDEST SWAP1 POP DUP4 PUSH1 0x20 DUP4 ADD MSTORE PUSH2 0x4038 PUSH1 0x40 DUP4 ADD DUP5 DUP1 MLOAD DUP3 MSTORE PUSH1 0x20 DUP1 DUP3 ADD MLOAD SWAP1 DUP4 ADD MSTORE PUSH1 0x40 SWAP1 DUP2 ADD MLOAD SWAP2 ADD MSTORE JUMP JUMPDEST PUSH1 0x0 DUP1 PUSH1 0x0 DUP1 PUSH1 0x60 DUP6 DUP8 SUB SLT ISZERO PUSH2 0x4AD6 JUMPI PUSH1 0x0 DUP1 REVERT JUMPDEST DUP5 CALLDATALOAD SWAP4 POP PUSH1 0x20 DUP6 ADD CALLDATALOAD SWAP3 POP PUSH1 0x40 DUP6 ADD CALLDATALOAD PUSH1 0x1 PUSH1 0x1 PUSH1 0x40 SHL SUB DUP1 DUP3 GT ISZERO PUSH2 0x4AFB JUMPI PUSH1 0x0 DUP1 REVERT JUMPDEST DUP2 DUP8 ADD SWAP2 POP DUP8 PUSH1 0x1F DUP4 ADD SLT PUSH2 0x4B0F JUMPI PUSH1 0x0 DUP1 REVERT JUMPDEST DUP2 CALLDATALOAD DUP2 DUP2 GT ISZERO PUSH2 0x4B1E JUMPI PUSH1 0x0 DUP1 REVERT JUMPDEST DUP9 PUSH1 0x20 DUP3 PUSH1 0x5 SHL DUP6 ADD ADD GT ISZERO PUSH2 0x4B33 JUMPI PUSH1 0x0 DUP1 REVERT JUMPDEST SWAP6 SWAP9 SWAP5 SWAP8 POP POP PUSH1 0x20 ADD SWAP5 POP POP POP JUMP JUMPDEST PUSH1 0x0 DUP2 MLOAD DUP1 DUP5 MSTORE PUSH1 0x20 DUP1 DUP6 ADD SWAP5 POP DUP1 DUP5 ADD PUSH1 0x0 JUMPDEST DUP4 DUP2 LT ISZERO PUSH2 0x49E6 JUMPI DUP2 MLOAD DUP1 MLOAD DUP9 MSTORE DUP4 ADD MLOAD DUP4 DUP9 ADD MSTORE PUSH1 0x40 SWAP1 SWAP7 ADD SWAP6 SWAP1 DUP3 ADD SWAP1 PUSH1 0x1 ADD PUSH2 0x4B56 JUMP JUMPDEST PUSH1 0x0 PUSH1 0x40 DUP1 DUP4 MSTORE PUSH2 0x100 DUP1 DUP5 ADD DUP7 MLOAD DUP4 DUP7 ADD MSTORE PUSH1 0x20 DUP1 DUP9 ADD MLOAD PUSH1 0x60 PUSH2 0x4BB8 DUP2 DUP10 ADD DUP4 DUP1 MLOAD DUP3 MSTORE PUSH1 0x20 DUP1 DUP3 ADD MLOAD SWAP1 DUP4 ADD MSTORE PUSH1 0x40 SWAP1 DUP2 ADD MLOAD SWAP2 ADD MSTORE JUMP JUMPDEST DUP6 DUP11 ADD MLOAD PUSH1 0xC0 DUP10 DUP2 ADD DUP2 SWAP1 MSTORE DUP2 MLOAD SWAP6 DUP7 SWAP1 MSTORE PUSH2 0x120 PUSH1 0x5 DUP8 SWAP1 SHL DUP12 ADD DUP2 ADD SWAP7 SWAP3 DUP7 ADD SWAP5 POP SWAP1 SWAP2 SWAP1 DUP11 ADD SWAP1 PUSH1 0x0 JUMPDEST DUP2 DUP2 LT ISZERO PUSH2 0x4C7A JUMPI DUP12 DUP9 SUB PUSH2 0x11F NOT ADD DUP4 MSTORE DUP6 MLOAD DUP1 MLOAD DUP11 DUP11 MSTORE PUSH2 0x4C0A DUP12 DUP12 ADD DUP3 PUSH2 0x49B6 JUMP JUMPDEST SWAP1 POP DUP9 DUP3 ADD MLOAD DUP10 DUP12 ADD MSTORE DUP12 DUP3 ADD MLOAD PUSH2 0x4C38 DUP14 DUP13 ADD DUP3 DUP1 MLOAD DUP3 MSTORE PUSH1 0x20 DUP1 DUP3 ADD MLOAD SWAP1 DUP4 ADD MSTORE PUSH1 0x40 SWAP1 DUP2 ADD MLOAD SWAP2 ADD MSTORE JUMP JUMPDEST POP DUP2 DUP8 ADD MLOAD PUSH1 0xA0 DUP12 DUP2 ADD SWAP2 SWAP1 SWAP2 MSTORE PUSH1 0x80 DUP4 ADD MLOAD DUP8 DUP13 ADD MSTORE SWAP1 SWAP2 ADD MLOAD DUP10 DUP3 SUB PUSH1 0xE0 DUP12 ADD MSTORE SWAP1 PUSH2 0x4C66 DUP2 DUP4 PUSH2 0x49B6 JUMP JUMPDEST SWAP10 POP POP POP SWAP5 DUP7 ADD SWAP5 SWAP2 DUP7 ADD SWAP2 PUSH1 0x1 ADD PUSH2 0x4BE5 JUMP JUMPDEST POP POP POP POP DUP10 ADD MLOAD DUP8 DUP5 SUB PUSH1 0x3F NOT ADD PUSH1 0xE0 DUP10 ADD MSTORE SWAP5 POP PUSH2 0x4C9B SWAP1 POP DUP3 DUP6 PUSH2 0x49F1 JUMP JUMPDEST SWAP4 POP DUP6 DUP5 SUB DUP2 DUP8 ADD MSTORE POP POP POP PUSH2 0x4CB1 DUP2 DUP6 PUSH2 0x4B42 JUMP JUMPDEST SWAP6 SWAP5 POP POP POP POP POP JUMP JUMPDEST PUSH1 0x0 DUP1 PUSH1 0x40 DUP4 DUP6 SUB SLT ISZERO PUSH2 0x4CCD JUMPI PUSH1 0x0 DUP1 REVERT JUMPDEST POP POP DUP1 CALLDATALOAD SWAP3 PUSH1 0x20 SWAP1 SWAP2 ADD CALLDATALOAD SWAP2 POP JUMP JUMPDEST PUSH1 0x0 PUSH1 0x20 DUP3 DUP5 SUB SLT ISZERO PUSH2 0x4CEE JUMPI PUSH1 0x0 DUP1 REVERT JUMPDEST POP CALLDATALOAD SWAP2 SWAP1 POP JUMP JUMPDEST PUSH4 0x4E487B71 PUSH1 0xE0 SHL PUSH1 0x0 MSTORE PUSH1 0x21 PUSH1 0x4 MSTORE PUSH1 0x24 PUSH1 0x0 REVERT JUMPDEST PUSH1 0x6 DUP2 LT PUSH2 0x4D29 JUMPI PUSH4 0x4E487B71 PUSH1 0xE0 SHL PUSH1 0x0 MSTORE PUSH1 0x21 PUSH1 0x4 MSTORE PUSH1 0x24 PUSH1 0x0 REVERT JUMPDEST SWAP1 MSTORE JUMP JUMPDEST DUP2 MLOAD PUSH1 0x1 PUSH1 0x1 PUSH1 0xA0 SHL SUB AND DUP2 MSTORE PUSH2 0x1C0 DUP2 ADD PUSH1 0x20 DUP4 ADD MLOAD PUSH1 0x20 DUP4 ADD MSTORE PUSH1 0x40 DUP4 ADD MLOAD PUSH1 0x40 DUP4 ADD MSTORE PUSH1 0x60 DUP4 ADD MLOAD PUSH1 0x60 DUP4 ADD MSTORE PUSH1 0x80 DUP4 ADD MLOAD PUSH1 0x80 DUP4 ADD MSTORE PUSH1 0xA0 DUP4 ADD MLOAD PUSH1 0xA0 DUP4 ADD MSTORE PUSH1 0xC0 DUP4 ADD MLOAD PUSH1 0xC0 DUP4 ADD MSTORE PUSH1 0xE0 DUP4 ADD MLOAD PUSH1 0xE0 DUP4 ADD MSTORE PUSH2 0x100 DUP1 DUP5 ADD MLOAD DUP2 DUP5 ADD MSTORE POP PUSH2 0x120 DUP1 DUP5 ADD MLOAD DUP2 DUP5 ADD MSTORE POP PUSH2 0x140 DUP1 DUP5 ADD MLOAD DUP2 DUP5 ADD MSTORE POP PUSH2 0x160 DUP1 DUP5 ADD MLOAD DUP2 DUP5 ADD MSTORE POP PUSH2 0x180 DUP1 DUP5 ADD MLOAD PUSH2 0x4DC8 DUP3 DUP6 ADD DUP3 PUSH2 0x4D0B JUMP JUMPDEST POP POP PUSH2 0x1A0 DUP4 DUP2 ADD MLOAD PUSH1 0xFF DUP2 AND DUP5 DUP4 ADD MSTORE PUSH2 0x3732 JUMP JUMPDEST PUSH1 0x0 PUSH1 0x20 DUP3 DUP5 SUB SLT ISZERO PUSH2 0x4DF0 JUMPI PUSH1 0x0 DUP1 REVERT JUMPDEST DUP2 CALLDATALOAD PUSH2 0xBC2 DUP2 PUSH2 0x471D JUMP JUMPDEST PUSH1 0x0 PUSH1 0x20 DUP1 DUP4 ADD DUP2 DUP5 MSTORE DUP1 DUP6 MLOAD DUP1 DUP4 MSTORE PUSH1 0x40 DUP7 ADD SWAP2 POP PUSH1 0x40 DUP2 PUSH1 0x5 SHL DUP8 ADD ADD SWAP3 POP DUP4 DUP8 ADD PUSH1 0x0 JUMPDEST DUP3 DUP2 LT ISZERO PUSH2 0x4E50 JUMPI PUSH1 0x3F NOT DUP9 DUP7 SUB ADD DUP5 MSTORE PUSH2 0x4E3E DUP6 DUP4 MLOAD PUSH2 0x49B6 JUMP JUMPDEST SWAP5 POP SWAP3 DUP6 ADD SWAP3 SWAP1 DUP6 ADD SWAP1 PUSH1 0x1 ADD PUSH2 0x4E22 JUMP JUMPDEST POP SWAP3 SWAP8 SWAP7 POP POP POP POP POP POP POP JUMP JUMPDEST PUSH1 0x0 PUSH1 0x20 DUP3 DUP5 SUB SLT ISZERO PUSH2 0x4E6F JUMPI PUSH1 0x0 DUP1 REVERT JUMPDEST DUP2 CALLDATALOAD PUSH6 0xFFFFFFFFFFFF DUP2 AND DUP2 EQ PUSH2 0xBC2 JUMPI PUSH1 0x0 DUP1 REVERT JUMPDEST PUSH1 0x0 PUSH1 0x20 DUP3 DUP5 SUB SLT ISZERO PUSH2 0x4E97 JUMPI PUSH1 0x0 DUP1 REVERT JUMPDEST DUP2 CALLDATALOAD PUSH1 0x1 PUSH1 0x1 PUSH1 0x40 SHL SUB DUP2 AND DUP2 EQ PUSH2 0xBC2 JUMPI PUSH1 0x0 DUP1 REVERT JUMPDEST PUSH1 0x0 DUP1 PUSH1 0x0 DUP1 PUSH2 0x160 DUP6 DUP8 SUB SLT ISZERO PUSH2 0x4EC5 JUMPI PUSH1 0x0 DUP1 REVERT JUMPDEST DUP5 CALLDATALOAD SWAP4 POP PUSH1 0x20 DUP6 ADD CALLDATALOAD SWAP3 POP PUSH2 0x4EDD DUP7 PUSH1 0x40 DUP8 ADD PUSH2 0x4802 JUMP JUMPDEST SWAP2 POP PUSH2 0x140 DUP6 ADD CALLDATALOAD PUSH1 0x1 PUSH1 0x1 PUSH1 0x40 SHL SUB DUP2 GT ISZERO PUSH2 0x4EF9 JUMPI PUSH1 0x0 DUP1 REVERT JUMPDEST PUSH2 0x4F05 DUP8 DUP3 DUP9 ADD PUSH2 0x48C4 JUMP JUMPDEST SWAP2 POP POP SWAP3 SWAP6 SWAP2 SWAP5 POP SWAP3 POP JUMP JUMPDEST PUSH1 0x0 PUSH1 0x20 DUP3 DUP5 SUB SLT ISZERO PUSH2 0x4F23 JUMPI PUSH1 0x0 DUP1 REVERT JUMPDEST DUP2 CALLDATALOAD PUSH4 0xFFFFFFFF DUP2 AND DUP2 EQ PUSH2 0xBC2 JUMPI PUSH1 0x0 DUP1 REVERT JUMPDEST PUSH1 0x0 PUSH1 0x20 DUP3 DUP5 SUB SLT ISZERO PUSH2 0x4F49 JUMPI PUSH1 0x0 DUP1 REVERT JUMPDEST DUP2 MLOAD PUSH2 0xBC2 DUP2 PUSH2 0x47E4 JUMP JUMPDEST PUSH1 0x0 PUSH1 0x20 DUP3 DUP5 SUB SLT ISZERO PUSH2 0x4F66 JUMPI PUSH1 0x0 DUP1 REVERT JUMPDEST POP MLOAD SWAP2 SWAP1 POP JUMP JUMPDEST PUSH4 0x4E487B71 PUSH1 0xE0 SHL PUSH1 0x0 MSTORE PUSH1 0x11 PUSH1 0x4 MSTORE PUSH1 0x24 PUSH1 0x0 REVERT JUMPDEST PUSH1 0x0 DUP3 DUP3 LT ISZERO PUSH2 0x4F95 JUMPI PUSH2 0x4F95 PUSH2 0x4F6D JUMP JUMPDEST POP SUB SWAP1 JUMP JUMPDEST PUSH1 0x0 DUP3 NOT DUP3 GT ISZERO PUSH2 0x4FAD JUMPI PUSH2 0x4FAD PUSH2 0x4F6D JUMP JUMPDEST POP ADD SWAP1 JUMP JUMPDEST PUSH4 0x4E487B71 PUSH1 0xE0 SHL PUSH1 0x0 MSTORE PUSH1 0x32 PUSH1 0x4 MSTORE PUSH1 0x24 PUSH1 0x0 REVERT JUMPDEST PUSH1 0x0 PUSH1 0x1 DUP3 ADD PUSH2 0x4FDA JUMPI PUSH2 0x4FDA PUSH2 0x4F6D JUMP JUMPDEST POP PUSH1 0x1 ADD SWAP1 JUMP JUMPDEST PUSH1 0x0 DUP3 PUSH2 0x4FFE JUMPI PUSH4 0x4E487B71 PUSH1 0xE0 SHL PUSH1 0x0 MSTORE PUSH1 0x12 PUSH1 0x4 MSTORE PUSH1 0x24 PUSH1 0x0 REVERT JUMPDEST POP DIV SWAP1 JUMP JUMPDEST PUSH1 0x0 DUP2 PUSH1 0x0 NOT DIV DUP4 GT DUP3 ISZERO ISZERO AND ISZERO PUSH2 0x501D JUMPI PUSH2 0x501D PUSH2 0x4F6D JUMP JUMPDEST POP MUL SWAP1 JUMP JUMPDEST PUSH4 0x4E487B71 PUSH1 0xE0 SHL PUSH1 0x0 MSTORE PUSH1 0x1 PUSH1 0x4 MSTORE PUSH1 0x24 PUSH1 0x0 REVERT JUMPDEST PUSH1 0x0 DUP3 PUSH1 0x1F DUP4 ADD SLT PUSH2 0x5049 JUMPI PUSH1 0x0 DUP1 REVERT JUMPDEST DUP2 MLOAD PUSH1 0x20 PUSH2 0x5059 PUSH2 0x48E5 DUP4 PUSH2 0x48A1 JUMP JUMPDEST DUP3 DUP2 MSTORE PUSH1 0x5 SWAP3 SWAP1 SWAP3 SHL DUP5 ADD DUP2 ADD SWAP2 DUP2 DUP2 ADD SWAP1 DUP7 DUP5 GT ISZERO PUSH2 0x5078 JUMPI PUSH1 0x0 DUP1 REVERT JUMPDEST DUP3 DUP7 ADD JUMPDEST DUP5 DUP2 LT ISZERO PUSH2 0x4924 JUMPI DUP1 MLOAD DUP4 MSTORE SWAP2 DUP4 ADD SWAP2 DUP4 ADD PUSH2 0x507C JUMP JUMPDEST PUSH1 0x0 PUSH1 0x20 DUP3 DUP5 SUB SLT ISZERO PUSH2 0x50A5 JUMPI PUSH1 0x0 DUP1 REVERT JUMPDEST DUP2 MLOAD PUSH1 0x1 PUSH1 0x1 PUSH1 0x40 SHL SUB DUP2 GT ISZERO PUSH2 0x50BB JUMPI PUSH1 0x0 DUP1 REVERT JUMPDEST PUSH2 0x4038 DUP5 DUP3 DUP6 ADD PUSH2 0x5038 JUMP JUMPDEST PUSH1 0x0 PUSH1 0x20 DUP3 DUP5 SUB SLT ISZERO PUSH2 0x50D9 JUMPI PUSH1 0x0 DUP1 REVERT JUMPDEST DUP2 MLOAD PUSH2 0xBC2 DUP2 PUSH2 0x471D JUMP JUMPDEST PUSH1 0x1 PUSH1 0x1 PUSH1 0xA0 SHL SUB DUP8 AND DUP2 MSTORE PUSH1 0x20 DUP1 DUP3 ADD DUP8 SWAP1 MSTORE PUSH1 0x40 DUP3 ADD DUP7 SWAP1 MSTORE PUSH1 0x60 DUP3 ADD DUP6 SWAP1 MSTORE PUSH1 0x80 DUP3 ADD DUP5 SWAP1 MSTORE PUSH2 0x5A0 DUP3 ADD SWAP1 PUSH1 0xA0 DUP4 ADD DUP5 PUSH1 0x0 JUMPDEST PUSH1 0x28 DUP2 LT ISZERO PUSH2 0x5138 JUMPI DUP2 MLOAD DUP4 MSTORE SWAP2 DUP4 ADD SWAP2 SWAP1 DUP4 ADD SWAP1 PUSH1 0x1 ADD PUSH2 0x511B JUMP JUMPDEST POP POP POP POP SWAP8 SWAP7 POP POP POP POP POP POP POP JUMP JUMPDEST PUSH1 0x0 DUP3 MLOAD PUSH1 0x0 JUMPDEST DUP2 DUP2 LT ISZERO PUSH2 0x5168 JUMPI PUSH1 0x20 DUP2 DUP7 ADD DUP2 ADD MLOAD DUP6 DUP4 ADD MSTORE ADD PUSH2 0x514E JUMP JUMPDEST DUP2 DUP2 GT ISZERO PUSH2 0x5177 JUMPI PUSH1 0x0 DUP3 DUP6 ADD MSTORE JUMPDEST POP SWAP2 SWAP1 SWAP2 ADD SWAP3 SWAP2 POP POP JUMP JUMPDEST DUP1 MLOAD PUSH2 0x100 DUP1 DUP5 MSTORE DUP2 MLOAD SWAP1 DUP5 ADD DUP2 SWAP1 MSTORE PUSH1 0x0 SWAP2 PUSH2 0x120 DUP6 ADD SWAP2 PUSH1 0x20 SWAP2 DUP3 ADD SWAP1 DUP5 JUMPDEST DUP2 DUP2 LT ISZERO PUSH2 0x51BF JUMPI DUP3 MLOAD DUP6 MSTORE SWAP4 DUP4 ADD SWAP4 SWAP2 DUP4 ADD SWAP2 PUSH1 0x1 ADD PUSH2 0x51A3 JUMP JUMPDEST POP POP POP DUP4 DUP2 ADD MLOAD SWAP1 DUP6 ADD MSTORE PUSH1 0x40 DUP1 DUP5 ADD MLOAD DUP1 MLOAD DUP3 DUP8 ADD MSTORE PUSH1 0x20 DUP2 ADD MLOAD PUSH1 0x60 DUP8 ADD MSTORE SWAP1 DUP2 ADD MLOAD PUSH1 0x80 DUP7 ADD MSTORE POP PUSH1 0x60 DUP4 ADD MLOAD PUSH1 0xA0 DUP6 ADD MSTORE PUSH1 0x80 DUP4 ADD MLOAD PUSH1 0xC0 DUP6 ADD MSTORE PUSH1 0xA0 DUP4 ADD MLOAD DUP5 DUP3 SUB PUSH1 0xE0 DUP7 ADD MSTORE PUSH2 0x4CB1 DUP3 DUP3 PUSH2 0x49B6 JUMP JUMPDEST PUSH1 0x0 DUP2 MLOAD DUP1 DUP5 MSTORE PUSH1 0x20 DUP1 DUP6 ADD DUP1 DUP2 SWAP7 POP DUP4 PUSH1 0x5 SHL DUP2 ADD SWAP2 POP DUP3 DUP7 ADD PUSH1 0x0 JUMPDEST DUP6 DUP2 LT ISZERO PUSH2 0x4A77 JUMPI DUP3 DUP5 SUB DUP10 MSTORE DUP2 MLOAD DUP1 MLOAD DUP6 MSTORE DUP6 DUP2 ADD MLOAD DUP7 DUP7 ADD MSTORE PUSH1 0x40 DUP1 DUP3 ADD MLOAD SWAP1 DUP7 ADD MSTORE PUSH1 0x60 DUP1 DUP3 ADD MLOAD SWAP1 DUP7 ADD MSTORE PUSH1 0x80 DUP1 DUP3 ADD MLOAD SWAP1 DUP7 ADD MSTORE PUSH1 0xA0 SWAP1 DUP2 ADD MLOAD PUSH1 0xC0 SWAP2 DUP7 ADD DUP3 SWAP1 MSTORE SWAP1 PUSH2 0x5287 DUP2 DUP8 ADD DUP4 PUSH2 0x49B6 JUMP JUMPDEST SWAP11 DUP8 ADD SWAP11 SWAP6 POP POP POP SWAP1 DUP5 ADD SWAP1 PUSH1 0x1 ADD PUSH2 0x5233 JUMP JUMPDEST PUSH1 0x0 PUSH1 0xC0 DUP4 ADD DUP3 MLOAD DUP5 MSTORE PUSH1 0x20 DUP1 DUP5 ADD MLOAD PUSH2 0x52CB DUP3 DUP8 ADD DUP3 DUP1 MLOAD DUP3 MSTORE PUSH1 0x20 DUP1 DUP3 ADD MLOAD SWAP1 DUP4 ADD MSTORE PUSH1 0x40 SWAP1 DUP2 ADD MLOAD SWAP2 ADD MSTORE JUMP JUMPDEST POP PUSH1 0x40 DUP5 ADD MLOAD PUSH1 0xC0 PUSH1 0x80 DUP8 ADD MSTORE DUP3 DUP2 MLOAD DUP1 DUP6 MSTORE PUSH1 0xE0 DUP9 ADD SWAP2 POP PUSH1 0xE0 DUP2 PUSH1 0x5 SHL DUP10 ADD ADD SWAP5 POP DUP4 DUP4 ADD SWAP3 POP PUSH1 0x0 JUMPDEST DUP2 DUP2 LT ISZERO PUSH2 0x5325 JUMPI PUSH1 0xDF NOT DUP10 DUP8 SUB ADD DUP4 MSTORE PUSH2 0x5313 DUP7 DUP6 MLOAD PUSH2 0x5182 JUMP JUMPDEST SWAP6 POP SWAP3 DUP5 ADD SWAP3 SWAP2 DUP5 ADD SWAP2 PUSH1 0x1 ADD PUSH2 0x52F7 JUMP JUMPDEST POP POP POP POP POP PUSH1 0x60 DUP4 ADD MLOAD DUP5 DUP3 SUB PUSH1 0xA0 DUP7 ADD MSTORE PUSH2 0x4CB1 DUP3 DUP3 PUSH2 0x5215 JUMP JUMPDEST PUSH1 0x60 DUP2 MSTORE PUSH1 0x0 PUSH2 0x5354 PUSH1 0x60 DUP4 ADD DUP7 PUSH2 0x529B JUMP JUMPDEST DUP3 DUP2 SUB PUSH1 0x20 DUP5 ADD MSTORE PUSH2 0x5366 DUP2 DUP7 PUSH2 0x5182 JUMP JUMPDEST SWAP1 POP DUP3 DUP2 SUB PUSH1 0x40 DUP5 ADD MSTORE PUSH2 0x537A DUP2 DUP6 PUSH2 0x5215 JUMP JUMPDEST SWAP7 SWAP6 POP POP POP POP POP POP JUMP JUMPDEST PUSH1 0x0 PUSH1 0x60 DUP3 DUP5 SUB SLT ISZERO PUSH2 0x5396 JUMPI PUSH1 0x0 DUP1 REVERT JUMPDEST PUSH1 0x40 MLOAD PUSH1 0x60 DUP2 ADD DUP2 DUP2 LT PUSH1 0x1 PUSH1 0x1 PUSH1 0x40 SHL SUB DUP3 GT OR ISZERO PUSH2 0x53B8 JUMPI PUSH2 0x53B8 PUSH2 0x4732 JUMP JUMPDEST DUP1 PUSH1 0x40 MSTORE POP DUP1 SWAP2 POP DUP3 MLOAD DUP2 MSTORE PUSH1 0x20 DUP4 ADD MLOAD PUSH1 0x20 DUP3 ADD MSTORE PUSH1 0x40 DUP4 ADD MLOAD PUSH1 0x40 DUP3 ADD MSTORE POP SWAP3 SWAP2 POP POP JUMP JUMPDEST PUSH1 0x0 PUSH2 0x100 DUP3 DUP5 SUB SLT ISZERO PUSH2 0x53F2 JUMPI PUSH1 0x0 DUP1 REVERT JUMPDEST PUSH2 0x53FA PUSH2 0x4748 JUMP JUMPDEST SWAP1 POP DUP2 MLOAD PUSH1 0x1 PUSH1 0x1 PUSH1 0x40 SHL SUB DUP1 DUP3 GT ISZERO PUSH2 0x5413 JUMPI PUSH1 0x0 DUP1 REVERT JUMPDEST PUSH2 0x541F DUP6 DUP4 DUP7 ADD PUSH2 0x5038 JUMP JUMPDEST DUP4 MSTORE PUSH1 0x20 DUP5 ADD MLOAD PUSH1 0x20 DUP5 ADD MSTORE PUSH2 0x5438 DUP6 PUSH1 0x40 DUP7 ADD PUSH2 0x5384 JUMP JUMPDEST PUSH1 0x40 DUP5 ADD MSTORE PUSH1 0xA0 DUP5 ADD MLOAD PUSH1 0x60 DUP5 ADD MSTORE PUSH1 0xC0 DUP5 ADD MLOAD PUSH1 0x80 DUP5 ADD MSTORE PUSH1 0xE0 DUP5 ADD MLOAD SWAP2 POP DUP1 DUP3 GT ISZERO PUSH2 0x5465 JUMPI PUSH1 0x0 DUP1 REVERT JUMPDEST POP PUSH2 0x5472 DUP5 DUP3 DUP6 ADD PUSH2 0x5038 JUMP JUMPDEST PUSH1 0xA0 DUP4 ADD MSTORE POP SWAP3 SWAP2 POP POP JUMP JUMPDEST PUSH1 0x0 DUP3 PUSH1 0x1F DUP4 ADD SLT PUSH2 0x548F JUMPI PUSH1 0x0 DUP1 REVERT JUMPDEST DUP2 MLOAD PUSH1 0x20 PUSH2 0x549F PUSH2 0x48E5 DUP4 PUSH2 0x48A1 JUMP JUMPDEST DUP3 DUP2 MSTORE PUSH1 0x5 SWAP3 SWAP1 SWAP3 SHL DUP5 ADD DUP2 ADD SWAP2 DUP2 DUP2 ADD SWAP1 DUP7 DUP5 GT ISZERO PUSH2 0x54BE JUMPI PUSH1 0x0 DUP1 REVERT JUMPDEST DUP3 DUP7 ADD JUMPDEST DUP5 DUP2 LT ISZERO PUSH2 0x4924 JUMPI DUP1 MLOAD PUSH1 0x1 PUSH1 0x1 PUSH1 0x40 SHL SUB DUP1 DUP3 GT ISZERO PUSH2 0x54E2 JUMPI PUSH1 0x0 DUP1 DUP2 REVERT JUMPDEST SWAP1 DUP9 ADD SWAP1 PUSH1 0xC0 DUP3 DUP12 SUB PUSH1 0x1F NOT ADD DUP2 SGT ISZERO PUSH2 0x54FC JUMPI PUSH1 0x0 DUP1 DUP2 REVERT JUMPDEST PUSH2 0x5504 PUSH2 0x4748 JUMP JUMPDEST DUP8 DUP5 ADD MLOAD DUP2 MSTORE PUSH1 0x40 DUP1 DUP6 ADD MLOAD DUP10 DUP4 ADD MSTORE PUSH1 0x60 DUP1 DUP7 ADD MLOAD DUP3 DUP5 ADD MSTORE PUSH1 0x80 SWAP2 POP DUP2 DUP7 ADD MLOAD DUP2 DUP5 ADD MSTORE POP PUSH1 0xA0 DUP1 DUP7 ADD MLOAD DUP3 DUP5 ADD MSTORE DUP4 DUP7 ADD MLOAD SWAP4 POP DUP5 DUP5 GT ISZERO PUSH2 0x554B JUMPI PUSH1 0x0 SWAP2 POP DUP2 DUP3 REVERT JUMPDEST PUSH2 0x5559 DUP15 DUP12 DUP7 DUP10 ADD ADD PUSH2 0x5038 JUMP JUMPDEST SWAP1 DUP4 ADD MSTORE POP DUP7 MSTORE POP POP POP SWAP2 DUP4 ADD SWAP2 DUP4 ADD PUSH2 0x54C2 JUMP JUMPDEST PUSH1 0x0 PUSH1 0x20 DUP1 DUP4 DUP6 SUB SLT ISZERO PUSH2 0x5581 JUMPI PUSH1 0x0 DUP1 REVERT JUMPDEST DUP3 MLOAD PUSH1 0x1 PUSH1 0x1 PUSH1 0x40 SHL SUB DUP1 DUP3 GT ISZERO PUSH2 0x5598 JUMPI PUSH1 0x0 DUP1 REVERT JUMPDEST SWAP1 DUP5 ADD SWAP1 PUSH1 0xC0 DUP3 DUP8 SUB SLT ISZERO PUSH2 0x55AC JUMPI PUSH1 0x0 DUP1 REVERT JUMPDEST PUSH2 0x55B4 PUSH2 0x4770 JUMP JUMPDEST DUP3 MLOAD DUP2 MSTORE PUSH2 0x55C4 DUP8 DUP6 DUP6 ADD PUSH2 0x5384 JUMP JUMPDEST DUP5 DUP3 ADD MSTORE PUSH1 0x80 DUP4 ADD MLOAD DUP3 DUP2 GT ISZERO PUSH2 0x55DA JUMPI PUSH1 0x0 DUP1 REVERT JUMPDEST DUP4 ADD PUSH1 0x1F DUP2 ADD DUP9 SGT PUSH2 0x55EB JUMPI PUSH1 0x0 DUP1 REVERT JUMPDEST DUP1 MLOAD PUSH2 0x55F9 PUSH2 0x48E5 DUP3 PUSH2 0x48A1 JUMP JUMPDEST DUP2 DUP2 MSTORE PUSH1 0x5 SWAP2 SWAP1 SWAP2 SHL DUP3 ADD DUP7 ADD SWAP1 DUP7 DUP2 ADD SWAP1 DUP11 DUP4 GT ISZERO PUSH2 0x5618 JUMPI PUSH1 0x0 DUP1 REVERT JUMPDEST DUP8 DUP5 ADD JUMPDEST DUP4 DUP2 LT ISZERO PUSH2 0x5650 JUMPI DUP1 MLOAD DUP8 DUP2 GT ISZERO PUSH2 0x5634 JUMPI PUSH1 0x0 DUP1 DUP2 REVERT JUMPDEST PUSH2 0x5642 DUP14 DUP12 DUP4 DUP10 ADD ADD PUSH2 0x53DF JUMP JUMPDEST DUP5 MSTORE POP SWAP2 DUP9 ADD SWAP2 DUP9 ADD PUSH2 0x561C JUMP JUMPDEST POP PUSH1 0x40 DUP6 ADD MSTORE POP POP POP PUSH1 0xA0 DUP4 ADD MLOAD SWAP4 POP DUP2 DUP5 GT ISZERO PUSH2 0x566D JUMPI PUSH1 0x0 DUP1 REVERT JUMPDEST PUSH2 0x5679 DUP8 DUP6 DUP6 ADD PUSH2 0x547E JUMP JUMPDEST PUSH1 0x60 DUP3 ADD MSTORE SWAP7 SWAP6 POP POP POP POP POP POP JUMP JUMPDEST PUSH1 0x40 DUP2 MSTORE PUSH1 0x0 PUSH2 0x569B PUSH1 0x40 DUP4 ADD DUP6 PUSH2 0x529B JUMP JUMPDEST DUP3 DUP2 SUB PUSH1 0x20 DUP5 ADD MSTORE PUSH2 0x4CB1 DUP2 DUP6 PUSH2 0x529B JUMP JUMPDEST PUSH1 0x60 DUP2 MSTORE PUSH1 0x0 PUSH2 0x5354 PUSH1 0x60 DUP4 ADD DUP7 PUSH2 0x4B42 JUMP JUMPDEST PUSH1 0x0 PUSH1 0x20 DUP1 DUP4 DUP6 SUB SLT ISZERO PUSH2 0x56D3 JUMPI PUSH1 0x0 DUP1 REVERT JUMPDEST DUP3 MLOAD PUSH1 0x1 PUSH1 0x1 PUSH1 0x40 SHL SUB DUP2 GT ISZERO PUSH2 0x56E9 JUMPI PUSH1 0x0 DUP1 REVERT JUMPDEST DUP4 ADD PUSH1 0x1F DUP2 ADD DUP6 SGT PUSH2 0x56FA JUMPI PUSH1 0x0 DUP1 REVERT JUMPDEST DUP1 MLOAD PUSH2 0x5708 PUSH2 0x48E5 DUP3 PUSH2 0x48A1 JUMP JUMPDEST DUP2 DUP2 MSTORE PUSH1 0x6 SWAP2 SWAP1 SWAP2 SHL DUP3 ADD DUP4 ADD SWAP1 DUP4 DUP2 ADD SWAP1 DUP8 DUP4 GT ISZERO PUSH2 0x5727 JUMPI PUSH1 0x0 DUP1 REVERT JUMPDEST SWAP3 DUP5 ADD SWAP3 JUMPDEST DUP3 DUP5 LT ISZERO PUSH2 0x576A JUMPI PUSH1 0x40 DUP5 DUP10 SUB SLT ISZERO PUSH2 0x5745 JUMPI PUSH1 0x0 DUP1 DUP2 REVERT JUMPDEST PUSH2 0x574D PUSH2 0x4792 JUMP JUMPDEST DUP5 MLOAD DUP2 MSTORE DUP6 DUP6 ADD MLOAD DUP7 DUP3 ADD MSTORE DUP3 MSTORE PUSH1 0x40 SWAP1 SWAP4 ADD SWAP3 SWAP1 DUP5 ADD SWAP1 PUSH2 0x572C JUMP JUMPDEST SWAP8 SWAP7 POP POP POP POP POP POP POP JUMP JUMPDEST PUSH1 0x40 DUP2 MSTORE PUSH1 0x0 PUSH2 0x5788 PUSH1 0x40 DUP4 ADD DUP6 PUSH2 0x5215 JUMP JUMPDEST DUP3 DUP2 SUB PUSH1 0x20 DUP5 ADD MSTORE PUSH2 0x4CB1 DUP2 DUP6 PUSH2 0x5215 JUMP JUMPDEST PUSH1 0x0 PUSH1 0x20 DUP3 DUP5 SUB SLT ISZERO PUSH2 0x57AC JUMPI PUSH1 0x0 DUP1 REVERT JUMPDEST DUP2 MLOAD PUSH1 0x1 PUSH1 0x1 PUSH1 0x40 SHL SUB DUP2 GT ISZERO PUSH2 0x57C2 JUMPI PUSH1 0x0 DUP1 REVERT JUMPDEST PUSH2 0x4038 DUP5 DUP3 DUP6 ADD PUSH2 0x547E JUMP JUMPDEST PUSH1 0x0 DUP1 PUSH1 0x40 DUP4 DUP6 SUB SLT ISZERO PUSH2 0x57E1 JUMPI PUSH1 0x0 DUP1 REVERT JUMPDEST POP POP DUP1 MLOAD PUSH1 0x20 SWAP1 SWAP2 ADD MLOAD SWAP1 SWAP3 SWAP1 SWAP2 POP JUMP JUMPDEST PUSH1 0x0 DUP1 PUSH1 0x0 PUSH1 0x60 DUP5 DUP7 SUB SLT ISZERO PUSH2 0x5807 JUMPI PUSH1 0x0 DUP1 REVERT JUMPDEST DUP4 MLOAD SWAP3 POP PUSH1 0x20 DUP5 ADD MLOAD SWAP2 POP PUSH1 0x40 DUP5 ADD MLOAD SWAP1 POP SWAP3 POP SWAP3 POP SWAP3 JUMP JUMPDEST DUP2 MLOAD DUP2 MSTORE PUSH1 0x20 DUP1 DUP4 ADD MLOAD PUSH2 0x180 DUP4 ADD SWAP2 PUSH2 0x5844 SWAP1 DUP5 ADD DUP3 PUSH1 0x1 PUSH1 0x1 PUSH1 0xA0 SHL SUB AND SWAP1 MSTORE JUMP JUMPDEST POP PUSH1 0x40 DUP4 ADD MLOAD PUSH2 0x5857 PUSH1 0x40 DUP5 ADD DUP3 PUSH2 0x4D0B JUMP JUMPDEST POP PUSH1 0x60 DUP4 ADD MLOAD PUSH2 0x586C PUSH1 0x60 DUP5 ADD DUP3 PUSH1 0xFF AND SWAP1 MSTORE JUMP JUMPDEST POP PUSH1 0x80 DUP4 ADD MLOAD PUSH1 0x80 DUP4 ADD MSTORE PUSH1 0xA0 DUP4 ADD MLOAD PUSH2 0x5891 PUSH1 0xA0 DUP5 ADD DUP3 PUSH1 0x1 PUSH1 0x1 PUSH1 0x40 SHL SUB AND SWAP1 MSTORE JUMP JUMPDEST POP PUSH1 0xC0 DUP4 ADD MLOAD PUSH2 0x58AC PUSH1 0xC0 DUP5 ADD DUP3 PUSH1 0x1 PUSH1 0x1 PUSH1 0x40 SHL SUB AND SWAP1 MSTORE JUMP JUMPDEST POP PUSH1 0xE0 DUP4 ADD MLOAD PUSH2 0x58C7 PUSH1 0xE0 DUP5 ADD DUP3 PUSH1 0x1 PUSH1 0x1 PUSH1 0x40 SHL SUB AND SWAP1 MSTORE JUMP JUMPDEST POP PUSH2 0x100 DUP4 DUP2 ADD MLOAD PUSH1 0x1 PUSH1 0x1 PUSH1 0x40 SHL SUB SWAP1 DUP2 AND SWAP2 DUP5 ADD SWAP2 SWAP1 SWAP2 MSTORE PUSH2 0x120 DUP1 DUP6 ADD MLOAD DUP3 AND SWAP1 DUP5 ADD MSTORE PUSH2 0x140 DUP1 DUP6 ADD MLOAD DUP3 AND SWAP1 DUP5 ADD MSTORE PUSH2 0x160 DUP1 DUP6 ADD MLOAD SWAP2 DUP3 AND DUP2 DUP6 ADD MSTORE SWAP1 PUSH2 0x3732 JUMP JUMPDEST PUSH1 0x40 DUP2 MSTORE PUSH1 0x0 PUSH2 0x5922 PUSH1 0x40 DUP4 ADD DUP6 PUSH2 0x5215 JUMP JUMPDEST SWAP1 POP DUP3 PUSH1 0x20 DUP4 ADD MSTORE SWAP4 SWAP3 POP POP POP JUMP JUMPDEST DUP1 MLOAD DUP3 MSTORE PUSH1 0x20 DUP2 ADD MLOAD PUSH1 0x20 DUP4 ADD MSTORE PUSH1 0x40 DUP2 ADD MLOAD PUSH1 0x40 DUP4 ADD MSTORE PUSH1 0x0 PUSH1 0x60 DUP3 ADD MLOAD PUSH1 0x80 PUSH1 0x60 DUP6 ADD MSTORE PUSH2 0x4038 PUSH1 0x80 DUP6 ADD DUP3 PUSH2 0x5215 JUMP JUMPDEST PUSH1 0xA0 DUP2 MSTORE PUSH1 0x0 PUSH2 0x5977 PUSH1 0xA0 DUP4 ADD DUP9 PUSH2 0x5215 JUMP JUMPDEST DUP7 PUSH1 0x20 DUP5 ADD MSTORE DUP3 DUP2 SUB PUSH1 0x40 DUP5 ADD MSTORE DUP6 MLOAD DUP2 MSTORE PUSH1 0x20 DUP7 ADD MLOAD PUSH1 0x20 DUP3 ADD MSTORE PUSH1 0x40 DUP7 ADD MLOAD PUSH1 0x40 DUP3 ADD MSTORE PUSH1 0x60 DUP7 ADD MLOAD ISZERO ISZERO PUSH1 0x60 DUP3 ADD MSTORE PUSH1 0x80 DUP7 ADD MLOAD ISZERO ISZERO PUSH1 0x80 DUP3 ADD MSTORE PUSH1 0xA0 DUP7 ADD MLOAD PUSH1 0xA0 DUP3 ADD MSTORE PUSH1 0xC0 DUP7 ADD MLOAD PUSH1 0xE0 PUSH1 0xC0 DUP4 ADD MSTORE PUSH2 0x59D8 PUSH1 0xE0 DUP4 ADD DUP3 PUSH2 0x49B6 JUMP JUMPDEST SWAP2 POP POP DUP3 DUP2 SUB PUSH1 0x60 DUP5 ADD MSTORE PUSH2 0x59ED DUP2 DUP7 PUSH2 0x5931 JUMP JUMPDEST SWAP1 POP DUP3 DUP2 SUB PUSH1 0x80 DUP5 ADD MSTORE PUSH2 0x5A01 DUP2 DUP6 PUSH2 0x5215 JUMP JUMPDEST SWAP9 SWAP8 POP POP POP POP POP POP POP POP JUMP JUMPDEST PUSH1 0x0 DUP1 PUSH1 0x0 PUSH1 0xA0 DUP5 DUP7 SUB SLT ISZERO PUSH2 0x5A22 JUMPI PUSH1 0x0 DUP1 REVERT JUMPDEST DUP4 MLOAD PUSH1 0x1 PUSH1 0x1 PUSH1 0x40 SHL SUB DUP2 GT ISZERO PUSH2 0x5A38 JUMPI PUSH1 0x0 DUP1 REVERT JUMPDEST PUSH2 0x5A44 DUP7 DUP3 DUP8 ADD PUSH2 0x547E JUMP JUMPDEST SWAP4 POP POP PUSH1 0x20 DUP5 ADD MLOAD SWAP2 POP PUSH2 0x5A5B DUP6 PUSH1 0x40 DUP7 ADD PUSH2 0x5384 JUMP JUMPDEST SWAP1 POP SWAP3 POP SWAP3 POP SWAP3 JUMP JUMPDEST PUSH1 0x20 DUP2 MSTORE PUSH1 0x0 PUSH2 0xBC2 PUSH1 0x20 DUP4 ADD DUP5 PUSH2 0x5215 JUMP JUMPDEST PUSH1 0x0 DUP1 PUSH1 0x80 DUP4 DUP6 SUB SLT ISZERO PUSH2 0x5A8A JUMPI PUSH1 0x0 DUP1 REVERT JUMPDEST DUP3 MLOAD SWAP2 POP PUSH2 0x5A9B DUP5 PUSH1 0x20 DUP6 ADD PUSH2 0x5384 JUMP JUMPDEST SWAP1 POP SWAP3 POP SWAP3 SWAP1 POP JUMP JUMPDEST PUSH1 0x60 DUP2 MSTORE PUSH1 0x0 PUSH2 0x5AB7 PUSH1 0x60 DUP4 ADD DUP7 PUSH2 0x5182 JUMP JUMPDEST PUSH1 0x20 DUP4 ADD SWAP5 SWAP1 SWAP5 MSTORE POP PUSH1 0x40 ADD MSTORE SWAP2 SWAP1 POP JUMP JUMPDEST PUSH1 0x0 PUSH1 0x20 DUP3 DUP5 SUB SLT ISZERO PUSH2 0x5ADB JUMPI PUSH1 0x0 DUP1 REVERT JUMPDEST DUP2 MLOAD PUSH1 0x1 PUSH1 0x1 PUSH1 0x40 SHL SUB DUP2 GT ISZERO PUSH2 0x5AF1 JUMPI PUSH1 0x0 DUP1 REVERT JUMPDEST PUSH2 0x4038 DUP5 DUP3 DUP6 ADD PUSH2 0x53DF JUMP JUMPDEST PUSH1 0x40 DUP2 MSTORE PUSH1 0x0 PUSH2 0x5922 PUSH1 0x40 DUP4 ADD DUP6 PUSH2 0x4B42 JUMP JUMPDEST PUSH1 0x80 DUP2 MSTORE PUSH1 0x0 PUSH2 0x5B23 PUSH1 0x80 DUP4 ADD DUP8 PUSH2 0x5182 JUMP JUMPDEST DUP3 DUP2 SUB PUSH1 0x20 DUP5 ADD MSTORE PUSH2 0x5B35 DUP2 DUP8 PUSH2 0x5215 JUMP JUMPDEST SWAP1 POP DUP5 PUSH1 0x40 DUP5 ADD MSTORE DUP3 DUP2 SUB PUSH1 0x60 DUP5 ADD MSTORE PUSH2 0x576A DUP2 DUP6 PUSH2 0x5215 JUMP JUMPDEST PUSH1 0x0 DUP1 PUSH1 0x40 DUP4 DUP6 SUB SLT ISZERO PUSH2 0x5B62 JUMPI PUSH1 0x0 DUP1 REVERT JUMPDEST DUP3 MLOAD PUSH1 0x1 PUSH1 0x1 PUSH1 0x40 SHL SUB DUP1 DUP3 GT ISZERO PUSH2 0x5B79 JUMPI PUSH1 0x0 DUP1 REVERT JUMPDEST PUSH2 0x5B85 DUP7 DUP4 DUP8 ADD PUSH2 0x53DF JUMP JUMPDEST SWAP4 POP PUSH1 0x20 DUP6 ADD MLOAD SWAP2 POP DUP1 DUP3 GT ISZERO PUSH2 0x5B9B JUMPI PUSH1 0x0 DUP1 REVERT JUMPDEST POP PUSH2 0x5BA8 DUP6 DUP3 DUP7 ADD PUSH2 0x547E JUMP JUMPDEST SWAP2 POP POP SWAP3 POP SWAP3 SWAP1 POP JUMP JUMPDEST PUSH1 0x0 DUP2 PUSH2 0x5BC1 JUMPI PUSH2 0x5BC1 PUSH2 0x4F6D JUMP JUMPDEST POP PUSH1 0x0 NOT ADD SWAP1 JUMP JUMPDEST DUP1 SLOAD DUP3 MSTORE PUSH1 0x1 DUP2 ADD SLOAD PUSH1 0x1 PUSH1 0x1 PUSH1 0xA0 SHL SUB DUP2 AND PUSH1 0x20 DUP5 ADD MSTORE PUSH2 0x5BF4 PUSH1 0x40 DUP5 ADD PUSH1 0xFF DUP4 PUSH1 0xA0 SHR AND PUSH2 0x4D0B JUMP JUMPDEST PUSH1 0xA8 SHR PUSH1 0xFF AND PUSH1 0x60 DUP4 ADD MSTORE PUSH1 0x2 DUP2 ADD SLOAD PUSH1 0x80 DUP4 ADD MSTORE PUSH1 0x3 DUP2 ADD SLOAD PUSH1 0x1 PUSH1 0x1 PUSH1 0x40 SHL SUB DUP1 DUP3 AND PUSH1 0xA0 DUP6 ADD MSTORE PUSH1 0x40 DUP3 SWAP1 SHR DUP2 AND PUSH1 0xC0 DUP6 ADD MSTORE PUSH2 0x5C44 PUSH1 0xE0 DUP6 ADD DUP3 DUP5 PUSH1 0x80 SHR AND PUSH1 0x1 PUSH1 0x1 PUSH1 0x40 SHL SUB AND SWAP1 MSTORE JUMP JUMPDEST PUSH1 0xC0 DUP3 SWAP1 SHR PUSH2 0x100 DUP6 ADD MSTORE PUSH1 0x4 DUP4 ADD SLOAD PUSH1 0x1 PUSH1 0x1 PUSH1 0x40 SHL SUB DUP3 DUP3 AND AND PUSH2 0x120 DUP7 ADD MSTORE SWAP2 POP PUSH2 0x5C83 PUSH2 0x140 DUP6 ADD DUP3 DUP5 PUSH1 0x40 SHR AND PUSH1 0x1 PUSH1 0x1 PUSH1 0x40 SHL SUB AND SWAP1 MSTORE JUMP JUMPDEST PUSH2 0x5C9E PUSH2 0x160 DUP6 ADD DUP3 DUP5 PUSH1 0x80 SHR AND PUSH1 0x1 PUSH1 0x1 PUSH1 0x40 SHL SUB AND SWAP1 MSTORE JUMP JUMPDEST POP POP POP POP JUMP JUMPDEST PUSH2 0x180 DUP2 ADD PUSH2 0x6F5 DUP3 DUP5 PUSH2 0x5BC9 JUMP JUMPDEST PUSH1 0x0 PUSH2 0x1A0 DUP1 DUP4 ADD PUSH2 0x5CC5 DUP5 DUP8 PUSH2 0x5BC9 JUMP JUMPDEST PUSH2 0x180 DUP5 ADD SWAP2 SWAP1 SWAP2 MSTORE DUP4 MLOAD SWAP1 DUP2 SWAP1 MSTORE PUSH2 0x1C0 DUP4 ADD SWAP1 PUSH1 0x20 SWAP1 DUP2 DUP7 ADD PUSH1 0x0 JUMPDEST DUP3 DUP2 LT ISZERO PUSH2 0x4E50 JUMPI DUP2 MLOAD DUP6 MSTORE SWAP4 DUP4 ADD SWAP4 SWAP1 DUP4 ADD SWAP1 PUSH1 0x1 ADD PUSH2 0x5CE3 JUMP INVALID LOG2 PUSH5 0x6970667358 0x22 SLT KECCAK256 STOP CODECOPY 0xD4 RETURNDATACOPY SSTORE 0xD0 XOR PUSH31 0xABCAEFC14060FF1B3B6DEA251614D08508827C60FD1E21ED64736F6C634300 ADDMOD 0xD STOP CALLER ",
  "sha1": "afee29c64ccbc12f65b80ae1241a2aaa77c2e817",
  "source": "// SPDX-License-Identifier: MIT\n// Beef MarketPlace Contracts v0.0.0 hello@mcdu.com\n\npragma solidity ^0.8.0;\n\nimport \"../Market.sol\";\nimport \"./SearchLib.sol\";\n\nbytes32 constant MARKETSEARCH = keccak256(\"MarketSearch\");\n\ncontract MarketSearch is Market, MarketPathReader {\n    using Array for address[];\n    using Array for uint64[];\n    using Array for uint256[];\n    using Array for bytes32[];\n    using MarketLib for address[];\n    using MarketLib for SolutionSetDesc;\n    using MarketLib for SolutionSet;\n    using MarketLib for Remainer[];\n    using MarketLib for Solution[];\n\n    function id() public view virtual override (Market) returns (bytes32) {return MARKETSEARCH;}\n\n    constructor(Repository rep_) Market(rep_) {}\n\n    uint256 constant MAXRECURSECALL = 20;\n\n    struct SearchArgTarget {\n        bytes32 currency;\n        uint256 mingranularity;\n        uint256 qty;\n        bool qtyismin;\n        bool qtyismax;\n        uint256 maxcount;\n        uint256[] delivery;\n    }\n    struct SearchArg {\n        uint256 maxquote;\n        uint256 maxavgquote;\n        uint256 maxtotal;\n        Solution[] used;\n    }\n    struct SearchPublicArgs {\n        uint256 granularity;\n        uint256 qty;\n        bool qtyismin;\n        bool qtyismax;\n        uint256 maxtotal;\n        uint256 maxquote;\n        uint256 maxavgquote;\n        uint256 maxcount;\n    }\n\n/*\n    function listPathFrom(\n        bytes32 from_\n    )\n        public\n        view\n        returns (bytes32[][] memory out_)\n    {\n        (bool _result, ) = rep.get(MARKET).staticcall(\n            abi.encodeWithSelector(\n                bytes4(keccak256(\"d_listPathFrom(bytes32)\")),\n                address(this),\n                from_            )\n        );\n        _return(_result);\n    }\n    function d_listPathFrom(\n        bytes32 from_\n    )\n        public\n        view\n        returns (bytes32[][] memory out_)\n    {\n        return\n            _listPathFrom(from_);\n    }\n*/\n/*\n    function __fromToQty(bytes32 from_, bytes32 to_)\n        public\n        view\n        returns (uint256)\n    {\n        return __fromToQtyEx(from_, to_, new uint256[](0));\n    }\n\n    function __fromToQtyEx(\n        bytes32 from_,\n        bytes32 to_,\n        uint256[] memory delivery_\n    ) private view returns (uint256 qty_) {\n        uint256[] storage orderids = _fromtoorders[BytesAndKeccakLib.pureBytes32Bytes32(from_, to_)];\n        uint len = orderids.length;\n        for (uint256 i = 0; i < len; i++) {\n            Order.Info storage order = _orders[orderids[i]];\n            if (\n                (Order.isExpired(order) == 0 ||\n                    Order.isExpired(order) >= block.timestamp) &&\n                Delivery(rep.get(DELIVERY)).orderDeliveryCompatible(order, delivery_)\n            ) {\n                Order.InfoPublic memory _orderpub = __order(orderids[i], true);\n                if (_orderpub.qty < _orderpub.granularity) continue;\n                qty_ += _orderpub.qty - (_orderpub.qty % _orderpub.granularity);\n            }\n        }\n    }\n\n    function __fromToExist(bytes32 from_, bytes32 to_)\n        public\n        view\n        returns (bool)\n    {\n        return __fromToExistEx(from_, to_, new uint256[](0));\n    }\n*/\n/*\n    function __fromToExistEx(\n        bytes32 from_,\n        bytes32 to_,\n        uint256[] memory delivery_\n    ) private view returns (bool) {\n        uint256[] storage orderids = _fromtoorders[BytesAndKeccakLib.pureBytes32Bytes32(from_, to_)];\n\n        uint len = orderids.length;\n        for (uint256 i = 0; i < len; i++) {\n            Order.Info storage order = _orders[orderids[i]];\n            if (\n                (Order.isExpired(order) == 0 ||\n                    Order.isExpired(order) >= block.timestamp) &&\n                Delivery(rep.get(DELIVERY)).orderDeliveryCompatible(order, delivery_)\n            ) {\n                return true;\n            }\n        }\n        return false;\n    }\n*/\n    function __fromToListEx(\n        bytes32 from_,\n        bytes32 to_,\n        uint256[] memory delivery_,\n        uint256 start_,\n        uint256 count_\n    ) private view returns (Solution[] memory out_) {\n        uint256 startcount = 0;\n        uint256 outcount = 0;\n        uint256[] storage orderids = _fromtoorders[BytesAndKeccakLib.pureBytes32Bytes32(from_, to_)];\n\n        uint len = orderids.length;\n        if (count_ == 0) count_ = len;\n        out_ = new Solution[](count_);\n\n        for (uint256 i = 0; i < len; i++) {\n            if (outcount >= count_) break;\n            Order.Info storage order = _orders[orderids[i]];\n           if (\n                (Order.isExpired(order) == 0 ||\n                    Order.isExpired(order) >= block.timestamp) &&\n                Delivery(rep.get(DELIVERY)).orderDeliveryCompatible(order, delivery_)\n            ) {\n                startcount++;\n                if (startcount <= start_) continue;\n                Order.InfoPublic memory _orderpub = __order(orderids[i], true);\n                if (_orderpub.qty < _orderpub.granularity) continue;\n                out_[outcount].orderid = _orderpub.orderid;\n                out_[outcount].addr = _orderpub.to;\n                out_[outcount].granularity = _orderpub.granularity;\n                out_[outcount].qty = _orderpub.qty;\n                out_[outcount].quote = _orderpub.quote;\n                outcount++;\n            }\n        }\n        assembly {\n            mstore(out_, outcount)\n        }\n    }\n\n    function d_search(\n        bytes32 from_,\n        bytes32 to_,\n        uint256[] calldata args_\n    )\n        public\n        view\n        returns (\n            Solution[] memory out_,\n            uint256 qty_,\n            Quote memory\n        )\n    {\n        //args_[0] = mingranularity_;\n        //args_[1] = qty_;\n        //args_[2] = qtyismin_;\n        //args_[2] = qtyismax_;\n        //args[3] = maxtotal;\n        //args_[4] = maxquote_;\n        //args_[5] = maxavgquote_;\n        //args_[6] = maxcount_;\n        uint256 deliverycount = 0;\n        uint len = args_.length-8;\n        for (; deliverycount < len; deliverycount++)\n            if (args_[8 + deliverycount] == 0) break;\n\n        uint256[] memory delivery = new uint256[](deliverycount);\n        for (uint256 i = 0; i < deliverycount; i++)\n            delivery[i] = args_[i + 8];\n\n        return\n            __search(\n                from_,\n                SearchArgTarget(\n                    to_,\n                    args_[0],\n                    args_[1],\n                    args_[2] != 0,\n                    args_[3] != 0,\n                    args_[7],\n                    delivery\n                ),\n                SearchArg(args_[5], args_[6], args_[4], new Solution[](0)),\n                false\n            );\n    }\n\n    function searchEx(\n        address from_,\n        uint256 fromid_,\n        address to_,\n        uint256 toid_,\n        SearchPublicArgs memory args_,\n        uint256[] memory delivery_\n    )\n        public\n        view\n        returns (\n            Solution[] memory,\n            uint256,\n            Quote memory\n        )\n    {\n        return\n            search(\n                rep.roCurrency(from_, fromid_),\n                rep.roCurrency(to_, toid_),\n                args_,\n                delivery_\n            );\n    }\n\n    function search(\n        bytes32 from_,\n        bytes32 to_,\n        SearchPublicArgs memory args_,\n        uint256[] memory delivery_\n    )\n        public\n        view\n        returns (\n            Solution[] memory,\n            uint256,\n            Quote memory\n        )\n    {\n        uint len = delivery_.length;\n        require(len <= 32, \"delivery array max size is 32\");\n\n        // stack to deep hack\n        uint256[40] memory args;\n        args[0] = args_.granularity;\n        args[1] = args_.qty;\n        args[2] = args_.qtyismin ? 1 : 0;\n        args[3] = args_.qtyismax ? 1 : 0;\n        args[4] = args_.maxtotal;\n        args[5] = args_.maxquote;\n        args[6] = args_.maxavgquote;\n        args[7] = args_.maxcount;\n        {\n            uint256 argptr = 8;\n            for (uint256 i = 0; i < len; i++)\n                if (delivery_[i] != 0) args[argptr++] = delivery_[i];\n        }\n        (bool _result, ) = rep.get(MARKET).staticcall(\n            abi.encodeWithSelector(\n                bytes4(keccak256(\"d_search(bytes32,bytes32,uint256[])\")),\n                address(this),\n                from_,\n                to_,\n                uint256(32 * 3),\n                uint256(args.length),\n                args\n            )\n        );\n        _return(_result);\n    }\n\n    /**\n     * @dev we search for direct solution from_ to target_.addr\n     * from_ is the source currency , from_ directly filtered by fromToListEx\n     * target_\n     *      target_.addr                    is the searched dest currency\n     *                                          addr is directly filtered by fromToListEx\n     *      target_.mingranularity          is the minimum granularity we are searching for\n     *                                          is used by the first filter\n     *      target_.qty                     is the qty we are search, it can be overshoot is cheaper to buy more\n     *      target_.delivery                is the filter for target delivery\n     *                                          delivery is directly filtered by fromToListEx\n     * searcharg_\n     *      searcharg_.maxquote                 is used by the first filter\n     *      searcharg_.maxavgquote\n     *      searcharg_.maxcount\n     *      searcharg_.used                 memorize the used of order\n     *      searcharg_.remainer IGNORED     should be removed from target_.qty before call\n     */\n    function __search(\n        bytes32 currency_,\n        SearchArgTarget memory target_,\n        SearchArg memory searcharg_,\n        bool rawoutput_\n    )\n        private\n        view\n        returns (\n            Solution[] memory out_,\n            uint256 qty_,\n            Quote memory quote_\n        )\n    {\n        // get all orders fromTo\n        out_ = __fromToListEx(\n            currency_,\n            target_.currency,\n            target_.delivery,\n            0,\n            0\n        );\n        // filters max quote and mingranularity\n        {\n            uint len = out_.length;\n            Solution[] memory filtered = new Solution[](len);\n            uint256 count = 0;\n            for (uint256 i; i < len; i++) {\n                //testing maxquote\n                require(out_[i].addr == target_.currency,\"__search out_[i].addr == target_.currency\");\n                if (\n                    (searcharg_.maxquote != 0) &&\n                    (out_[i].quote > searcharg_.maxquote)\n                ) continue;\n                if (out_[i].granularity < target_.mingranularity) continue;\n                //if (out_[i].qty < out_[i].granularity) continue;\n                if (out_[i].qty < searcharg_.used.getIdQty(out_[i].orderid))\n                    continue;\n                if (\n                    (out_[i].qty - searcharg_.used.getIdQty(out_[i].orderid)) <\n                    out_[i].granularity\n                ) continue;\n                if (\n                    target_.maxcount == 1 &&\n                    searcharg_.maxavgquote != 0 &&\n                    out_[i].quote > searcharg_.maxavgquote\n                ) continue;\n\n                filtered[count] = out_[i];\n                count++;\n            }\n            assembly {\n                mstore(filtered, count)\n            }\n            out_ = filtered;\n        }\n\n        /*out_ = out_.orderGranularity();\n        if (target_.qty != 0 && target_.qtyismin && (!target_.qtyismax))\n        {\n            target_.qty = MarketSearchLib.recurseSearchBestQty(\n                out_,\n                0,\n                target_,\n                searcharg_,\n                0\n            );\n        }*/\n        //return (out_, target_.qty, quote_);\n        (out_, qty_, quote_) = MarketSearchLib.recurseSearch(\n            out_,\n            0,\n            target_,\n            searcharg_,\n            new Solution[](0)\n        );\n        if (!rawoutput_) {\n            // aplying searcharg_.maxcount\n            out_ = out_.order();\n            if (target_.maxcount != 0 && out_.length > target_.maxcount) {\n                uint256 count = target_.maxcount;\n                assembly {\n                    mstore(out_, count)\n                }\n                (qty_, quote_) = out_.getQtyQuote();\n            }\n        }\n    }\n\n    function d_searchC(\n        bytes32 fromcurrency_,\n        bytes32 tocurrency_,\n        uint256[] calldata args_\n    ) public view returns (SolutionSet memory out_,Remainer[] memory remainerout_) {\n        //args_[0] = mingranularity_;\n        //args_[1] = qty_;\n        //args_[2] = qtyismin_;\n        //args_[2] = qtyismax_;\n        //args_[3] = maxtotal;\n        //args_[4] = maxquote_;\n        //args_[5] = maxavgquote_;\n        //args_[6] = maxcount_;\n        uint256 deliverycount = 0;\n        uint len = args_.length;\n        for (; deliverycount < len - 8; deliverycount++)\n            if (args_[8 + deliverycount] == 0) break;\n\n        uint256[] memory delivery = new uint256[](deliverycount);\n        for (uint256 i = 0; i < deliverycount; i++)\n            delivery[i] = args_[i + 8];\n\n        return\n            __searchC(\n                fromcurrency_,\n                MarketSearch.SearchArgTarget(\n                    tocurrency_,\n                    args_[0],\n                    args_[1],\n                    args_[2] != 0,\n                    args_[3] != 0,\n                    args_[7],\n                    delivery\n                ),\n                MarketSearch.SearchArg(\n                    args_[5],\n                    args_[6],\n                    args_[4],\n                    new Solution[](0)\n                ),\n                new Remainer[](0)\n            );\n    }\n\n    function searchCEx(\n        address from_,\n        uint256 fromid_,\n        address to_,\n        uint256 toid_,\n        SearchPublicArgs memory args_,\n        uint256[] memory delivery_\n    )\n        public\n        view\n        returns (\n            SolutionSet memory,Remainer[] memory\n        )\n    {\n        return\n            searchC(\n                rep.roCurrency(from_, fromid_),\n                rep.roCurrency(to_, toid_),\n                args_,\n                delivery_\n            );\n    }\n\n    function searchC(\n        bytes32 fromcurrency_,\n        bytes32 tocurrency_,\n        SearchPublicArgs memory args_,\n        uint256[] memory delivery_\n    )\n        public\n        view\n        returns (\n            SolutionSet memory,Remainer[] memory\n        )\n    {\n        uint len = delivery_.length;\n        require(len <= 32, \"delivery array max size is 32\");\n\n        // stack to deep hack\n        uint256[40] memory args;\n        args[0] = args_.granularity;\n        args[1] = args_.qty;\n        args[2] = args_.qtyismin ? 1 : 0;\n        args[3] = args_.qtyismax ? 1 : 0;\n        args[4] = args_.maxtotal;\n        args[5] = args_.maxquote;\n        args[6] = args_.maxavgquote;\n        args[7] = args_.maxcount;\n        {\n            uint256 argptr = 8;\n            for (uint256 i = 0; i < len; i++)\n                if (delivery_[i] != 0) args[argptr++] = delivery_[i];\n        }\n        (bool _result, ) = rep.get(MARKET).staticcall(\n            abi.encodeWithSelector(\n                bytes4(keccak256(\"d_searchC(bytes32,bytes32,uint256[])\")),\n                address(this),\n                fromcurrency_,\n                tocurrency_,\n                uint256(32 * 3),\n                uint256(args.length),\n                args\n            )\n        );\n        _return(_result);\n    }\n\n    function __searchCFollowPath(\n        bytes32[] memory path_,\n        MarketSearch.SearchArgTarget memory target_,\n        MarketSearch.SearchArg memory searcharg_,\n        Remainer[] memory remainer_\n    ) private view returns (SolutionSet memory out_) {\n        //uint len = path_.length;\n        require(path_.length >= 2, \"__searchCFollowPath path_.length>=2\");\n        require(path_[path_.length - 1]==target_.currency, \"__searchCFollowPath path_[path_.length - 1]==target_.currency\");\n\n        Solution[] memory solutions;\n        SolutionSetDesc memory desc;\n            \n        if (path_.length==2)\n        {\n            // no swap ->direct offer\n            (solutions, desc.qty, desc.quote) = __search(\n                path_[path_.length - 2],\n                target_,\n                searcharg_,\n                false\n            );\n            desc.count = solutions.length;\n            desc = desc.descCreateFromTo(\n                path_[path_.length - 2],\n                target_.currency\n            );\n        }\n        else\n        {\n            // get total swap qty\n            uint256 total = searcharg_.maxtotal; //+remainer_.get(path_[0]);\n            for (uint256 i = 1; i < path_.length - 1; i++) {\n                uint256 swapqty;\n                //Quote memory swapquote;\n                (, swapqty, ) = __search(\n                    path_[i - 1],\n                    MarketSearch.SearchArgTarget(\n                        path_[i],\n                        0,\n                        0,\n                        false,\n                        false,\n                        0,\n                        new uint256[](0) //TODO only virtual\n                    ),\n                    MarketSearch.SearchArg(0, 0, total, searcharg_.used),\n                    true\n                );\n                if (swapqty == 0) return out_;\n                total = swapqty +remainer_.get(path_[i]);\n            }\n\n            //get target \n            // searcharg.maxquote ignored\n            // searcharg.maxavgquote ignored\n            {\n                (solutions, desc.qty, desc.quote) = __search(\n                    path_[path_.length - 2],\n                    target_,\n                    MarketSearch.SearchArg(0, 0, total, searcharg_.used),\n                    false\n                );\n            }\n            if (desc.qty == 0) return out_;\n\n            //creating set\n            {\n                desc.count = solutions.length;\n                desc = desc.descCreateFromTo(\n                    path_[path_.length - 2],\n                    target_.currency\n                );\n            }\n            // treating swaps\n            total = (desc.qty*desc.quote.quoteavg) / 10**18; \n            for (uint256 i = path_.length - 2; i >0 ; i--) \n            {\n                Solution[] memory swapsolutions;\n                SolutionSetDesc memory swapdesc;\n                {\n                    MarketSearch.SearchArgTarget memory target;\n                    MarketSearch.SearchArg memory search;\n                    {\n                        //target = MarketSearch.SearchArgTarget(\n                        //    path_[i],\n                        //    0,\n                        //    total-remainer_.get(path_[i - 1]),\n                        //    true,\n                        //    false,\n                        //    0,\n                        //    new uint256[](0) //TODO only virtual\n                        //);\n                        //require(total>0,\"total>0\");\n                        target.currency = path_[i];\n                        target.qty = total - remainer_.get(path_[i]);\n                        //if (i>1)\n                        //    target.qty -= remainer_.get(path_[i - 1]);\n                        target.qtyismin = true;\n                        //search = MarketSearch.SearchArg(0, 0, 0, searcharg_.used);\n                        search.used = searcharg_.used;\n                    }\n                        \n                    (swapsolutions, swapdesc.qty, swapdesc.quote) = __search(\n                        path_[i - 1],\n                        target,\n                        search,\n                        false\n                    );\n                }\n                if (swapdesc.qty == 0) return out_;\n                total = (swapdesc.qty*swapdesc.quote.quoteavg) / 10**18; \n\n                (desc, solutions) = desc.descAddOffset(solutions,path_[i - 1],swapsolutions);\n                desc.quote.quotemin = (desc.quote.quotemin*swapdesc.quote.quotemin)/10**18;\n                desc.quote.quotemax = (desc.quote.quotemax*swapdesc.quote.quotemax)/10**18;\n                desc.quote.quoteavg = (desc.quote.quoteavg*((swapdesc.qty*swapdesc.quote.quoteavg)/desc.qty))/10**18;\n            }\n\n            //resulting out\n        }\n        out_ = out_.add(desc, solutions);\n    }\n\n    function __searchC(\n        bytes32 from_,\n        MarketSearch.SearchArgTarget memory target_,\n        MarketSearch.SearchArg memory searcharg_,\n        Remainer[] memory remainer_\n    ) private view returns (SolutionSet memory out_,Remainer[] memory remainerout_) {\n        remainerout_ = remainer_;\n        SolutionSet memory solpath;\n        {\n            bytes32[][] memory paths = _listPath(from_, target_.currency);\n            uint len = paths.length;\n            for (uint256 i; i < len; i++) {\n                SolutionSetDesc memory desc;\n                (, desc.qty, desc.quote) = __search(\n                    paths[i][paths[i].length - 2],\n                    target_,\n                    MarketSearch.SearchArg(0, 0, 0, searcharg_.used),\n                    false\n                );\n                if (desc.qty == 0) continue;\n                desc.path = paths[i];\n                solpath = solpath.add(desc, new Solution[](0));\n            }\n        }\n        uint pathlen = solpath.descs.length;\n        if (pathlen==0)\n            return (out_,remainerout_);\n        //return (solpath,remainerout_);\n\n        SearchArgTarget memory target;\n        {\n            target.currency = target_.currency;\n            target.mingranularity = target_.mingranularity;\n            target.qty = target_.qty;\n            target.qtyismin = target_.qtyismin;\n            target.qtyismax = target_.qtyismax;\n            target.maxcount = target_.maxcount; \n            target.delivery = target_.delivery;\n        }\n        SearchArg memory searcharg;\n        {\n            searcharg.maxquote = searcharg_.maxquote;\n            searcharg.maxavgquote = searcharg_.maxavgquote;\n            searcharg.maxtotal = searcharg_.maxtotal;\n            searcharg.used = searcharg_.used;\n        }\n        SolutionSet[] memory pathsolutions = new SolutionSet[](pathlen);\n\n        uint maxcount;\n        while (true)\n        {\n            searcharg.maxquote = searcharg_.maxquote;\n            target.maxcount = 1;\n            for (uint i; i < pathlen; i++) {\n                pathsolutions[i] = __searchCFollowPath(\n                    solpath.descs[i].path,\n                    target,\n                    searcharg,\n                    remainerout_\n                );\n                require(pathsolutions[i].descs.length<=1,\"PARANOIA __searchCFollowPath should return max 1 desc\");\n            }\n\n            uint quotebest=type(uint).max;\n            {\n                uint256 quotemin;\n                uint256 quotemax;\n\n\n                for (uint i; i < pathlen; i++) {\n                    if (pathsolutions[i].qty==0)\n                        continue;\n                    \n                    if (quotebest==type(uint).max || quotemin>pathsolutions[i].quote.quotemin)\n                    {\n                        if (quotebest!=type(uint).max && quotemin<pathsolutions[i].quote.quotemax)\n                            quotemax = quotemin;\n                        else\n                            quotemax = pathsolutions[i].quote.quotemax;\n                        quotebest = i;\n                        quotemin = pathsolutions[i].quote.quotemin;\n                    }\n                    else if (quotemax>pathsolutions[i].quote.quotemin)\n                        quotemax = pathsolutions[i].quote.quotemin;\n                }\n                if (quotebest==type(uint).max)\n                {\n                    //require(false,\"if (quotebest==type(uint).max)\");\n                    break;\n                }\n\n                searcharg.maxquote = quotemax; \n            }\n            SolutionSet memory selected;\n            //if (searcharg.maxquote>=pathsolutions[quotebest].quote.quotemax)\n            //    selected = pathsolutions[quotebest];\n            //else\n            {\n                selected = __searchCFollowPath(\n                    solpath.descs[quotebest].path,\n                    target,\n                    searcharg,\n                    remainerout_\n                );\n                require(selected.descs.length==1,\"PARANOIA __searchCFollowPath should return 1 desc\");\n            }\n            if (selected.qty ==0)\n            {\n                require(false,\"if (selected.qty ==0)\");\n                break;\n            }\n            out_ = out_.add(selected);\n            maxcount +=selected.solutions.length;\n            if (selected.descs[0].offset.length!=0)\n                maxcount -= selected.descs[0].offset[selected.descs[0].offset.length-1];\n            remainerout_ = remainerout_.update(selected.descs[0],selected.solutions);\n\n            searcharg.used = searcharg.used.add(selected.solutions);\n            searcharg.maxquote = searcharg_.maxquote;\n\n\n            if (target_.maxcount!=0)\n            {\n                if (maxcount>=target_.maxcount)\n                {\n                    require(false,\"if (maxcount>=target_.maxcount)\");\n                    break;\n                }\n                target.maxcount = target_.maxcount-maxcount;\n            }\n            if (target_.qty!=0)\n            {\n                if (selected.qty>=target_.qty)\n                {\n                    require(false,\"if (selected.qty>=target_.qty)\");\n                    break;\n                }\n                target.qty = target_.qty-selected.qty;\n            }\n            if (searcharg_.maxtotal!=0)\n            {\n                uint256 total = (out_.qty*out_.quote.quoteavg)/10**18;\n                if (total>=searcharg_.maxtotal)\n                {\n                    require(false,\"if (total>=searcharg_.maxtotal)\");\n                    break;\n                }\n                searcharg.maxtotal = searcharg_.maxtotal-total;\n            }\n            if (searcharg_.maxavgquote!=0)\n            {\n                /*if (\n                    searcharg_.maxavgquote != 0 &&\n                    in_[i].quote > searcharg_.maxavgquote\n                ) {\n                    uint256 deltaqty = ((((stack.getQty(stackcount) *\n                        searcharg_.maxavgquote) / 10**18) -\n                        stack.getTotal(stackcount)) * 10**18) /\n                        (in_[i].quote - searcharg_.maxavgquote);\n\n                    if (qty > deltaqty)\n                        qty = deltaqty - (deltaqty % in_[i].granularity);\n                }*/\n\n            }\n            //break;\n\n        }\n\n\n    }\n}\n",
  "sourcePath": "contracts/Market/Reader/Search.sol",
  "type": "contract"
}