{
  "abi": [
    {
      "inputs": [
        {
          "internalType": "contract Repository",
          "name": "rep_",
          "type": "address"
        }
      ],
      "stateMutability": "nonpayable",
      "type": "constructor"
    },
    {
      "anonymous": false,
      "inputs": [
        {
          "indexed": true,
          "internalType": "address",
          "name": "previousOwner",
          "type": "address"
        },
        {
          "indexed": true,
          "internalType": "address",
          "name": "newOwner",
          "type": "address"
        }
      ],
      "name": "OwnershipTransferred",
      "type": "event"
    },
    {
      "anonymous": false,
      "inputs": [
        {
          "indexed": true,
          "internalType": "bytes32",
          "name": "fromk_",
          "type": "bytes32"
        },
        {
          "indexed": true,
          "internalType": "bytes32",
          "name": "tok_",
          "type": "bytes32"
        },
        {
          "indexed": false,
          "internalType": "address",
          "name": "fromaccount_",
          "type": "address"
        },
        {
          "indexed": false,
          "internalType": "address",
          "name": "toaccount_",
          "type": "address"
        },
        {
          "indexed": false,
          "internalType": "uint256",
          "name": "quote_",
          "type": "uint256"
        },
        {
          "indexed": false,
          "internalType": "uint256",
          "name": "qty_",
          "type": "uint256"
        }
      ],
      "name": "Transaction",
      "type": "event"
    },
    {
      "stateMutability": "nonpayable",
      "type": "fallback"
    },
    {
      "inputs": [],
      "name": "STOP",
      "outputs": [
        {
          "internalType": "bool",
          "name": "",
          "type": "bool"
        }
      ],
      "stateMutability": "view",
      "type": "function"
    },
    {
      "inputs": [],
      "name": "STOPFOREVER",
      "outputs": [
        {
          "internalType": "bool",
          "name": "",
          "type": "bool"
        }
      ],
      "stateMutability": "view",
      "type": "function"
    },
    {
      "inputs": [
        {
          "internalType": "uint256",
          "name": "val_",
          "type": "uint256"
        }
      ],
      "name": "UInt256ToUInt32",
      "outputs": [
        {
          "internalType": "uint32",
          "name": "",
          "type": "uint32"
        }
      ],
      "stateMutability": "pure",
      "type": "function"
    },
    {
      "inputs": [
        {
          "internalType": "uint256",
          "name": "val_",
          "type": "uint256"
        }
      ],
      "name": "UInt256ToUInt48",
      "outputs": [
        {
          "internalType": "uint48",
          "name": "",
          "type": "uint48"
        }
      ],
      "stateMutability": "pure",
      "type": "function"
    },
    {
      "inputs": [
        {
          "internalType": "uint256",
          "name": "val_",
          "type": "uint256"
        }
      ],
      "name": "UInt256ToUInt64",
      "outputs": [
        {
          "internalType": "uint64",
          "name": "",
          "type": "uint64"
        }
      ],
      "stateMutability": "pure",
      "type": "function"
    },
    {
      "inputs": [
        {
          "internalType": "uint32",
          "name": "val_",
          "type": "uint32"
        }
      ],
      "name": "UInt32ToUInt256",
      "outputs": [
        {
          "internalType": "uint256",
          "name": "",
          "type": "uint256"
        }
      ],
      "stateMutability": "pure",
      "type": "function"
    },
    {
      "inputs": [
        {
          "internalType": "uint48",
          "name": "val_",
          "type": "uint48"
        }
      ],
      "name": "UInt48ToUInt256",
      "outputs": [
        {
          "internalType": "uint256",
          "name": "",
          "type": "uint256"
        }
      ],
      "stateMutability": "pure",
      "type": "function"
    },
    {
      "inputs": [
        {
          "internalType": "uint64",
          "name": "val_",
          "type": "uint64"
        }
      ],
      "name": "UInt64ToUInt256",
      "outputs": [
        {
          "internalType": "uint256",
          "name": "",
          "type": "uint256"
        }
      ],
      "stateMutability": "pure",
      "type": "function"
    },
    {
      "inputs": [
        {
          "internalType": "bytes32",
          "name": "_from",
          "type": "bytes32"
        },
        {
          "internalType": "bytes32",
          "name": "fromto_",
          "type": "bytes32"
        }
      ],
      "name": "_existPath",
      "outputs": [
        {
          "internalType": "bool",
          "name": "",
          "type": "bool"
        }
      ],
      "stateMutability": "view",
      "type": "function"
    },
    {
      "inputs": [
        {
          "internalType": "uint256",
          "name": "order_",
          "type": "uint256"
        }
      ],
      "name": "d_orderCancel",
      "outputs": [],
      "stateMutability": "nonpayable",
      "type": "function"
    },
    {
      "inputs": [
        {
          "internalType": "address",
          "name": "account_",
          "type": "address"
        },
        {
          "internalType": "uint256",
          "name": "orderid_",
          "type": "uint256"
        },
        {
          "internalType": "uint256",
          "name": "qty_",
          "type": "uint256"
        },
        {
          "internalType": "uint256",
          "name": "quote_",
          "type": "uint256"
        },
        {
          "internalType": "uint256",
          "name": "pctslippage_",
          "type": "uint256"
        }
      ],
      "name": "d_orderFulfillEx",
      "outputs": [
        {
          "internalType": "uint256",
          "name": "qtydone_",
          "type": "uint256"
        }
      ],
      "stateMutability": "nonpayable",
      "type": "function"
    },
    {
      "inputs": [
        {
          "internalType": "address",
          "name": "account_",
          "type": "address"
        },
        {
          "internalType": "bytes32",
          "name": "from_",
          "type": "bytes32"
        },
        {
          "internalType": "bytes32",
          "name": "to_",
          "type": "bytes32"
        },
        {
          "internalType": "uint256",
          "name": "granularity_",
          "type": "uint256"
        },
        {
          "internalType": "uint256",
          "name": "qty_",
          "type": "uint256"
        },
        {
          "internalType": "uint256",
          "name": "quote_",
          "type": "uint256"
        },
        {
          "internalType": "uint8",
          "name": "options_",
          "type": "uint8"
        }
      ],
      "name": "d_orderPlace",
      "outputs": [
        {
          "internalType": "uint256",
          "name": "orderid_",
          "type": "uint256"
        }
      ],
      "stateMutability": "nonpayable",
      "type": "function"
    },
    {
      "inputs": [],
      "name": "id",
      "outputs": [
        {
          "internalType": "bytes32",
          "name": "",
          "type": "bytes32"
        }
      ],
      "stateMutability": "view",
      "type": "function"
    },
    {
      "inputs": [
        {
          "internalType": "address",
          "name": "caller_",
          "type": "address"
        }
      ],
      "name": "isOwner",
      "outputs": [
        {
          "internalType": "bool",
          "name": "",
          "type": "bool"
        }
      ],
      "stateMutability": "view",
      "type": "function"
    },
    {
      "inputs": [
        {
          "internalType": "uint256",
          "name": "order_",
          "type": "uint256"
        }
      ],
      "name": "order",
      "outputs": [
        {
          "components": [
            {
              "internalType": "address",
              "name": "account",
              "type": "address"
            },
            {
              "internalType": "bytes32",
              "name": "from",
              "type": "bytes32"
            },
            {
              "internalType": "bytes32",
              "name": "to",
              "type": "bytes32"
            },
            {
              "internalType": "uint256",
              "name": "orderid",
              "type": "uint256"
            },
            {
              "internalType": "uint256",
              "name": "qty",
              "type": "uint256"
            },
            {
              "internalType": "uint256",
              "name": "granularity",
              "type": "uint256"
            },
            {
              "internalType": "uint256",
              "name": "qtydone",
              "type": "uint256"
            },
            {
              "internalType": "uint256",
              "name": "originalqty",
              "type": "uint256"
            },
            {
              "internalType": "uint256",
              "name": "quote",
              "type": "uint256"
            },
            {
              "internalType": "uint256",
              "name": "originalquote",
              "type": "uint256"
            },
            {
              "internalType": "uint256",
              "name": "originalbasedquote",
              "type": "uint256"
            },
            {
              "internalType": "uint256",
              "name": "expire",
              "type": "uint256"
            },
            {
              "internalType": "enum Order.State",
              "name": "state",
              "type": "uint8"
            },
            {
              "internalType": "uint8",
              "name": "options",
              "type": "uint8"
            }
          ],
          "internalType": "struct Order.InfoPublic",
          "name": "",
          "type": "tuple"
        }
      ],
      "stateMutability": "view",
      "type": "function"
    },
    {
      "inputs": [
        {
          "internalType": "uint256",
          "name": "orderid_",
          "type": "uint256"
        }
      ],
      "name": "orderCancel",
      "outputs": [],
      "stateMutability": "nonpayable",
      "type": "function"
    },
    {
      "inputs": [
        {
          "internalType": "uint256",
          "name": "orderid_",
          "type": "uint256"
        },
        {
          "internalType": "uint256",
          "name": "qty_",
          "type": "uint256"
        },
        {
          "internalType": "uint256",
          "name": "quote_",
          "type": "uint256"
        },
        {
          "internalType": "uint256",
          "name": "pctslippage_",
          "type": "uint256"
        }
      ],
      "name": "orderFulfill",
      "outputs": [
        {
          "internalType": "uint256",
          "name": "qtydone_",
          "type": "uint256"
        }
      ],
      "stateMutability": "nonpayable",
      "type": "function"
    },
    {
      "inputs": [
        {
          "internalType": "address",
          "name": "account_",
          "type": "address"
        },
        {
          "internalType": "uint256",
          "name": "orderid_",
          "type": "uint256"
        },
        {
          "internalType": "uint256",
          "name": "qty_",
          "type": "uint256"
        },
        {
          "internalType": "uint256",
          "name": "quote_",
          "type": "uint256"
        },
        {
          "internalType": "uint256",
          "name": "pctslippage_",
          "type": "uint256"
        }
      ],
      "name": "orderFulfillEx",
      "outputs": [
        {
          "internalType": "uint256",
          "name": "qtydone_",
          "type": "uint256"
        }
      ],
      "stateMutability": "nonpayable",
      "type": "function"
    },
    {
      "inputs": [
        {
          "internalType": "bytes32",
          "name": "from_",
          "type": "bytes32"
        },
        {
          "internalType": "bytes32",
          "name": "to_",
          "type": "bytes32"
        },
        {
          "internalType": "uint256",
          "name": "granularity_",
          "type": "uint256"
        },
        {
          "internalType": "uint256",
          "name": "qty_",
          "type": "uint256"
        },
        {
          "internalType": "uint256",
          "name": "quote_",
          "type": "uint256"
        },
        {
          "internalType": "uint8",
          "name": "options_",
          "type": "uint8"
        }
      ],
      "name": "orderPlace",
      "outputs": [
        {
          "internalType": "uint256",
          "name": "orderid_",
          "type": "uint256"
        }
      ],
      "stateMutability": "nonpayable",
      "type": "function"
    },
    {
      "inputs": [
        {
          "internalType": "address",
          "name": "account_",
          "type": "address"
        },
        {
          "internalType": "bytes32",
          "name": "from_",
          "type": "bytes32"
        },
        {
          "internalType": "bytes32",
          "name": "to_",
          "type": "bytes32"
        },
        {
          "internalType": "uint256",
          "name": "granularity_",
          "type": "uint256"
        },
        {
          "internalType": "uint256",
          "name": "qty_",
          "type": "uint256"
        },
        {
          "internalType": "uint256",
          "name": "quote_",
          "type": "uint256"
        },
        {
          "internalType": "uint8",
          "name": "options_",
          "type": "uint8"
        }
      ],
      "name": "orderPlace",
      "outputs": [
        {
          "internalType": "uint256",
          "name": "orderid_",
          "type": "uint256"
        }
      ],
      "stateMutability": "nonpayable",
      "type": "function"
    },
    {
      "inputs": [
        {
          "internalType": "address",
          "name": "account_",
          "type": "address"
        },
        {
          "internalType": "address",
          "name": "from_",
          "type": "address"
        },
        {
          "internalType": "uint256",
          "name": "fromid_",
          "type": "uint256"
        },
        {
          "internalType": "address",
          "name": "to_",
          "type": "address"
        },
        {
          "internalType": "uint256",
          "name": "toid_",
          "type": "uint256"
        },
        {
          "internalType": "uint256",
          "name": "granularity_",
          "type": "uint256"
        },
        {
          "internalType": "uint256",
          "name": "qty_",
          "type": "uint256"
        },
        {
          "internalType": "uint256",
          "name": "quote_",
          "type": "uint256"
        },
        {
          "internalType": "uint8",
          "name": "options_",
          "type": "uint8"
        }
      ],
      "name": "orderPlace",
      "outputs": [
        {
          "internalType": "uint256",
          "name": "orderid_",
          "type": "uint256"
        }
      ],
      "stateMutability": "nonpayable",
      "type": "function"
    },
    {
      "inputs": [
        {
          "internalType": "address",
          "name": "account_",
          "type": "address"
        },
        {
          "internalType": "address",
          "name": "from_",
          "type": "address"
        },
        {
          "internalType": "address",
          "name": "to_",
          "type": "address"
        },
        {
          "internalType": "uint256",
          "name": "granularity_",
          "type": "uint256"
        },
        {
          "internalType": "uint256",
          "name": "qty_",
          "type": "uint256"
        },
        {
          "internalType": "uint256",
          "name": "quote_",
          "type": "uint256"
        },
        {
          "internalType": "uint8",
          "name": "options_",
          "type": "uint8"
        }
      ],
      "name": "orderPlaceEx",
      "outputs": [
        {
          "internalType": "uint256",
          "name": "orderid_",
          "type": "uint256"
        }
      ],
      "stateMutability": "nonpayable",
      "type": "function"
    },
    {
      "inputs": [
        {
          "internalType": "address",
          "name": "from_",
          "type": "address"
        },
        {
          "internalType": "uint256",
          "name": "fromid_",
          "type": "uint256"
        },
        {
          "internalType": "address",
          "name": "to_",
          "type": "address"
        },
        {
          "internalType": "uint256",
          "name": "toid_",
          "type": "uint256"
        },
        {
          "internalType": "uint256",
          "name": "granularity_",
          "type": "uint256"
        },
        {
          "internalType": "uint256",
          "name": "qty_",
          "type": "uint256"
        },
        {
          "internalType": "uint256",
          "name": "quote_",
          "type": "uint256"
        },
        {
          "internalType": "uint8",
          "name": "options_",
          "type": "uint8"
        }
      ],
      "name": "orderPlaceEx",
      "outputs": [
        {
          "internalType": "uint256",
          "name": "orderid_",
          "type": "uint256"
        }
      ],
      "stateMutability": "nonpayable",
      "type": "function"
    },
    {
      "inputs": [],
      "name": "owner",
      "outputs": [
        {
          "internalType": "address",
          "name": "",
          "type": "address"
        }
      ],
      "stateMutability": "view",
      "type": "function"
    },
    {
      "inputs": [],
      "name": "renounceOwnership",
      "outputs": [],
      "stateMutability": "nonpayable",
      "type": "function"
    },
    {
      "inputs": [],
      "name": "rep",
      "outputs": [
        {
          "internalType": "contract Repository",
          "name": "",
          "type": "address"
        }
      ],
      "stateMutability": "view",
      "type": "function"
    },
    {
      "inputs": [],
      "name": "setSTOP",
      "outputs": [],
      "stateMutability": "nonpayable",
      "type": "function"
    },
    {
      "inputs": [],
      "name": "setSTOPFOREVER",
      "outputs": [],
      "stateMutability": "nonpayable",
      "type": "function"
    },
    {
      "inputs": [
        {
          "internalType": "bytes4",
          "name": "interfaceId",
          "type": "bytes4"
        }
      ],
      "name": "supportsInterface",
      "outputs": [
        {
          "internalType": "bool",
          "name": "",
          "type": "bool"
        }
      ],
      "stateMutability": "view",
      "type": "function"
    },
    {
      "inputs": [
        {
          "internalType": "address",
          "name": "newOwner",
          "type": "address"
        }
      ],
      "name": "transferOwnership",
      "outputs": [],
      "stateMutability": "nonpayable",
      "type": "function"
    },
    {
      "inputs": [],
      "name": "unsetSTOP",
      "outputs": [],
      "stateMutability": "nonpayable",
      "type": "function"
    }
  ],
  "bytecode": "60a06040523480156200001157600080fd5b50604051620059c2380380620059c28339810160408190526200003491620000b1565b8080620000413362000056565b6001600160a01b031660805250620000e39050565b600080546001600160a01b038381166201000081810262010000600160b01b0319851617855560405193049190911692909183917f8be0079c531659141344cd1fd0a4f28419497f9722a3daafe3b4186f6b6457e091a35050565b600060208284031215620000c457600080fd5b81516001600160a01b0381168114620000dc57600080fd5b9392505050565b60805161579d62000225600039600081816104a20152818161056701528181610605015281816107b601528181610a4501528181610b6501528181610bff01528181610e0f015281816111a801528181611301015281816113ce0152818161145f01528181611674015281816117870152818161194a01528181611abb01528181611caa0152818161221e0152818161239b01528181612430015281816124e201528181612578015281816125fd0152818161268e015281816128f201528181612b0401528181612cf6015281816130560152818161317c01528181613285015281816133850152818161348e015281816135880152818161369201528181613854015281816139a101528181613d4601528181613ddb01528181613f190152818161414101528181614472015281816147020152614a9a015261579d6000f3fe608060405234801561001057600080fd5b50600436106101e55760003560e01c8063979620761161010f578063c34fa842116100a2578063e4b1614411610071578063e4b16144146104df578063ede8cdfe146104f2578063f2fde38b14610505578063feab445414610518576101e5565b8063c34fa8421461048a578063ccc079591461049d578063d6935858146104c4578063e2d7e08e146104cc576101e5565b8063af640d0f116100de578063af640d0f1461042b578063b03fd40d14610451578063b23a43fc14610464578063b791f8a014610477576101e5565b806397962076146103e25780639bc896f9146103f2578063a5ef794a14610405578063a6610f0214610418576101e5565b80635c42b710116101875780637a70482c116101565780637a70482c146103895780637af6649a1461039c578063854ba99d146103af5780638da5cb5b146103b7576101e5565b80635c42b7101461033b578063629651411461034e578063715018a61461037957806372ea61bf14610381576101e5565b80631ef4590d116101c35780631ef4590d146102b857806321603f43146102cb5780632203616d146102eb5780632f54bf6e14610313576101e5565b806301ffc9a71461026757806305d6bd9c1461028f5780630af077bf14610297575b6101ed610542565b60006101fd602460043684614d5b565b8080601f016020809104026020016040519081016040528093929190818152602001838380828437600092018290525060208501519495509250503660231981019150601f19016004838037816024600437600080826000875af4925050506102658161070c565b005b61027a610275366004614d85565b610726565b60405190151581526020015b60405180910390f35b61026561075d565b6102aa6102a5366004614dc4565b610774565b604051908152602001610286565b61027a6102c6366004614e08565b6108ed565b6102de6102d9366004614e2a565b61097e565b6040516102869190614e7b565b6102fe6102f9366004614e2a565b610991565b60405163ffffffff9091168152602001610286565b61027a610321366004614f30565b6000546201000090046001600160a01b0390811691161490565b6102aa610349366004614f63565b6109a2565b61036161035c366004614e2a565b6109be565b6040516001600160401b039091168152602001610286565b6102656109f0565b610265610a02565b6102aa610397366004614dc4565b610a1c565b6102aa6103aa366004614fb4565b611139565b61027a611152565b6000546201000090046001600160a01b03165b6040516001600160a01b039091168152602001610286565b600054610100900460ff1661027a565b610265610400366004614e2a565b611170565b6102aa610413366004614fdc565b6112c0565b6102aa61042636600461500e565b6112d8565b7fc79a5c5e1c7f6fab1e75ab0e20e9522aa9eb363a0c70072c6dcb8a20f4a46ae46102aa565b6102aa61045f366004615073565b6121c2565b6102aa61047236600461500e565b6121dc565b6102aa61048536600461509c565b61236c565b6102aa610498366004615105565b6124b3565b6103ca7f000000000000000000000000000000000000000000000000000000000000000081565b6102656125b5565b6102aa6104da366004615190565b6125d1565b6102aa6104ed366004615208565b612639565b610265610500366004614e2a565b612650565b610265610513366004614f30565b612755565b61052b610526366004614e2a565b6127ce565b60405165ffffffffffff9091168152602001610286565b6000546001600160a01b0362010000909104163314806105f557506001600160a01b037f0000000000000000000000000000000000000000000000000000000000000000166316279055336040516001600160e01b031960e084901b1681526001600160a01b039091166004820152602401602060405180830381865afa1580156105d1573d6000803e3d6000fd5b505050506040513d601f19601f820116820180604052508101906105f5919061522e565b8061069357506001600160a01b037f000000000000000000000000000000000000000000000000000000000000000016636d70f7ae336040516001600160e01b031960e084901b1681526001600160a01b039091166004820152602401602060405180830381865afa15801561066f573d6000803e3d6000fd5b505050506040513d601f19601f82011682018060405250810190610693919061522e565b61070a5760405162461bcd60e51b815260206004820152603960248201527f416c6c6f77616e63653a2063616c6c6572206d757374206265205265706f736960448201527f746f727920436f6e7472616374206f72204f70657261746f720000000000000060648201526084015b60405180910390fd5b565b3d6000803e80801561071d573d6000f35b3d6000fd5b5050565b60006001600160e01b031982166301ffc9a760e01b148061075757506001600160e01b031982166315d3789560e31b145b92915050565b610765610542565b61070a6000805460ff19169055565b60405163023aa9ab60e61b81527f2e7a327ef83c2af7579c6634f2f5604519800c5f07626f27bd602fd11ed8e6ec600482015260009081906001600160a01b037f00000000000000000000000000000000000000000000000000000000000000001690638eaa6ac090602401602060405180830381865afa1580156107fd573d6000803e3d6000fd5b505050506040513d601f19601f820116820180604052508101906108219190615250565b604080513060248201526001600160a01b038a81166044830152606482018a90526084820189905260a4820188905260c48083018890528351808403909101815260e490920183526020820180516001600160e01b03166301de754d60e61b17905291519290911691610894919061526d565b6000604051808303816000865af19150503d80600081146108d1576040519150601f19603f3d011682016040523d82523d6000602084013e6108d6565b606091505b505090506108e38161070c565b5095945050505050565b6000828152600160205260408082209051632be5db2360e11b815260048101919091526024810183905273__Array_________________________________906357cbb64690604401602060405180830381865af4158015610953573d6000803e3d6000fd5b505050506040513d601f19601f82011682018060405250810190610977919061522e565b9392505050565b610986614ccc565b6107578260006127df565b600061075764e8d4a51000836152be565b60006109b3338888888888886121dc565b979650505050505050565b6000806109d06402540be400846152be565b9050826109e2826402540be4006152e0565b1115610757576107576152ff565b6109f8612f35565b61070a6000612f96565b610a0a610542565b61070a6000805460ff19166001179055565b6000610a26611152565b15610a435760405162461bcd60e51b815260040161070190615315565b7f00000000000000000000000000000000000000000000000000000000000000006001600160a01b0316634635229b6040518163ffffffff1660e01b8152600401602060405180830381865afa158015610aa1573d6000803e3d6000fd5b505050506040513d601f19601f82011682018060405250810190610ac5919061522e565b80610ad857506001600160a01b03861633145b610b3a5760405162461bcd60e51b815260206004820152602d60248201527f4d757374206265206163636f756e743d3d5f6d736753656e6465722829206f7260448201526c204d6f64652054657374696e6760981b6064820152608401610701565b6000858152600560205260408082208054915163657c7e0960e01b81526004810192909252919081907f00000000000000000000000000000000000000000000000000000000000000006001600160a01b03169063657c7e09906024016040805180830381865afa158015610bb3573d6000803e3d6000fd5b505050506040513d601f19601f82011682018060405250810190610bd7919061533f565b60405163023aa9ab60e61b8152600080516020615748833981519152600482015291935091507f00000000000000000000000000000000000000000000000000000000000000006001600160a01b031690638eaa6ac090602401602060405180830381865afa158015610c4e573d6000803e3d6000fd5b505050506040513d601f19601f82011682018060405250810190610c729190615250565b604051634e68f20f60e11b8152600481018390526001600160a01b038b811660248301529190911690639cd1e41e90604401602060405180830381865afa158015610cc1573d6000803e3d6000fd5b505050506040513d601f19601f82011682018060405250810190610ce59190615363565b670de0b6b3a7640000610cf8888a6152e0565b610d0291906152be565b1115610d505760405162461bcd60e51b815260206004820152601a60248201527f42616e6b3a204e6f7420656e6f75676820617661696c61626c650000000000006044820152606401610701565b6001830154604051635b7d0f6960e11b8152600160a81b90910460ff16600482015260009073__Order_________________________________9063b6fa1ed290602401602060405180830381865af4158015610db1573d6000803e3d6000fd5b505050506040513d601f19601f82011682018060405250810190610dd5919061522e565b15610f005760405163023aa9ab60e61b81527f3cb99135f7a7c088d9085b446345038a22a85f4e8fe072b0e1b66d97243e745860048201527f00000000000000000000000000000000000000000000000000000000000000006001600160a01b031690638eaa6ac090602401602060405180830381865afa158015610e5e573d6000803e3d6000fd5b505050506040513d601f19601f82011682018060405250810190610e829190615250565b6040516332f3077960e11b815260048101859052602481018490526001600160a01b0391909116906365e60ef2906044016060604051808303816000875af1158015610ed2573d6000803e3d6000fd5b505050506040513d601f19601f82011682018060405250810190610ef6919061537c565b509150610f219050565b6003840154610f1e90600160c01b90046001600160401b03166121c2565b90505b670de0b6b3a7640000610f3487826153aa565b610f3e90896152e0565b610f4891906152be565b8111158015610f7d5750670de0b6b3a7640000610f6587826153c1565b610f6f90896152e0565b610f7991906152be565b8110155b610fc95760405162461bcd60e51b815260206004820152601c60248201527f51756f746520536c6970706564206f76657220746f6c6572616e6365000000006044820152606401610701565b600081610fd6898b6152e0565b610fe091906152be565b600386015490915060009061100b9061045f906001600160401b03600160401b8204811691166153d9565b905081811015611019578091505b611026868d60008d612ff1565b61102f8a6109be565b600387018054600890611053908490600160401b90046001600160401b0316615401565b82546101009290920a6001600160401b038181021990931691831602179091556003880154600160801b81048216600160401b90910490911603905061109e5761109e86600361378b565b6001860154604080516001600160a01b039283168152918e166020830152810184905260608101839052849086907f49da6c773c11f8e65fd2ffb9512fa3f24dc8759fbcedb687f0b59694adc1d3439060800160405180910390a360036001870154600160a01b900460ff16600581111561111b5761111b614e43565b116111295761112986613c7d565b50979a9950505050505050505050565b600061075765ffffffffffff831664174876e8006152e0565b6000805460ff168061116b5750600054610100900460ff165b905090565b60405163023aa9ab60e61b81527f2e7a327ef83c2af7579c6634f2f5604519800c5f07626f27bd602fd11ed8e6ec60048201526000907f00000000000000000000000000000000000000000000000000000000000000006001600160a01b031690638eaa6ac090602401602060405180830381865afa1580156111f7573d6000803e3d6000fd5b505050506040513d601f19601f8201168201806040525081019061121b9190615250565b60408051306024820152604480820186905282518083039091018152606490910182526020810180516001600160e01b03166376f466ff60e11b17905290516001600160a01b039290921691611271919061526d565b6000604051808303816000865af19150503d80600081146112ae576040519150601f19603f3d011682016040523d82523d6000602084013e6112b3565b606091505b505090506107228161070c565b60006112cf3386868686610774565b95945050505050565b60006112e2611152565b156112ff5760405162461bcd60e51b815260040161070190615315565b7f00000000000000000000000000000000000000000000000000000000000000006001600160a01b0316634635229b6040518163ffffffff1660e01b8152600401602060405180830381865afa15801561135d573d6000803e3d6000fd5b505050506040513d601f19601f82011682018060405250810190611381919061522e565b8061139457506001600160a01b03881633145b6113b05760405162461bcd60e51b81526004016107019061542c565b60405163c5537eb760e01b81526004810188905261080060248201527f00000000000000000000000000000000000000000000000000000000000000006001600160a01b03169063c5537eb790604401602060405180830381865afa15801561141d573d6000803e3d6000fd5b505050506040513d601f19601f82011682018060405250810190611441919061522e565b1561165e57604051630c25e48360e11b8152600481018890526000907f00000000000000000000000000000000000000000000000000000000000000006001600160a01b03169063184bc90690602401602060405180830381865afa1580156114ae573d6000803e3d6000fd5b505050506040513d601f19601f820116820180604052508101906114d29190615250565b9050806001600160a01b031663f5ac9db66040518163ffffffff1660e01b8152600401602060405180830381865afa158015611512573d6000803e3d6000fd5b505050506040513d601f19601f82011682018060405250810190611536919061522e565b6115775760405162461bcd60e51b815260206004820152601260248201527146726f6d206e6f7420747261646561626c6560701b6044820152606401610701565b806001600160a01b0316630e4994276040518163ffffffff1660e01b8152600401602060405180830381865afa1580156115b5573d6000803e3d6000fd5b505050506040513d601f19601f820116820180604052508101906115d9919061522e565b801561160557507fad3228b676f7d3cd4284a5443f17f1962b36e491b30a40b2405849e597ba5fb58714155b61165c5760405162461bcd60e51b815260206004820152602260248201527f46726f6d206973206f6e6c7920747261646561626c6520746f2043757272656e604482015261637960f01b6064820152608401610701565b505b60405163d47a7edd60e01b8152600481018890527f00000000000000000000000000000000000000000000000000000000000000006001600160a01b03169063d47a7edd90602401602060405180830381865afa1580156116c3573d6000803e3d6000fd5b505050506040513d601f19601f820116820180604052508101906116e7919061522e565b15806116fa575083670de0b6b3a7640000145b8061170457508385145b6117645760405162461bcd60e51b815260206004820152602b60248201527f2746726f6d27206973204e46542071747920616e64206772616e756c6172697460448201526a79206d757374206265203160a81b6064820152608401610701565b60405163023aa9ab60e61b815260008051602061574883398151915260048201527f00000000000000000000000000000000000000000000000000000000000000006001600160a01b031690638eaa6ac090602401602060405180830381865afa1580156117d6573d6000803e3d6000fd5b505050506040513d601f19601f820116820180604052508101906117fa9190615250565b604051634e68f20f60e11b8152600481018990526001600160a01b038a811660248301529190911690639cd1e41e90604401602060405180830381865afa158015611849573d6000803e3d6000fd5b505050506040513d601f19601f8201168201806040525081019061186d9190615363565b8411156118bc5760405162461bcd60e51b815260206004820152601a60248201527f42616e6b3a204e6f7420656e6f75676820617661696c61626c650000000000006044820152606401610701565b6040805161018081018252600080825260208201819052918101829052606081018290526080810182905260a0810182905260c0810182905260e081018290526101008101829052610120810182905261014081018290526101608101919091526001600160a01b0389811660208301526040516361e99ffb60e01b8152600481018a9052602481018990527f0000000000000000000000000000000000000000000000000000000000000000909116906361e99ffb906044016020604051808303816000875af1158015611995573d6000803e3d6000fd5b505050506040513d601f19601f820116820180604052508101906119b99190615363565b81526119c4866109be565b6001600160401b03166101208201526119dc856109be565b6001600160401b031660a08201526119f3846109be565b6001600160401b03166101008201526060810151604051635b7d0f6960e11b815260ff909116600482015273__Order_________________________________9063b6fa1ed290602401602060405180830381865af4158015611a5a573d6000803e3d6000fd5b505050506040513d601f19601f82011682018060405250810190611a7e919061522e565b15611c065760405163023aa9ab60e61b81527f3cb99135f7a7c088d9085b446345038a22a85f4e8fe072b0e1b66d97243e745860048201526000907f00000000000000000000000000000000000000000000000000000000000000006001600160a01b031690638eaa6ac090602401602060405180830381865afa158015611b0a573d6000803e3d6000fd5b505050506040513d601f19601f82011682018060405250810190611b2e9190615250565b6040516332f3077960e11b8152600481018b9052602481018a90526001600160a01b0391909116906365e60ef2906044016060604051808303816000875af1158015611b7e573d6000803e3d6000fd5b505050506040513d601f19601f82011682018060405250810190611ba2919061537c565b509150611bb09050816109be565b6001600160401b03166101608301819052600003611c045760405162461bcd60e51b8152602060048201526011602482015270145d5bdd194e88139bdd081c5d5bdd1959607a1b6044820152606401610701565b505b606081015160405163f0340a3760e01b815260ff909116600482015273__Order_________________________________9063f0340a3790602401602060405180830381865af4158015611c5e573d6000803e3d6000fd5b505050506040513d601f19601f82011682018060405250810190611c82919061522e565b15611d855760405163023aa9ab60e61b815260008051602061574883398151915260048201527f00000000000000000000000000000000000000000000000000000000000000006001600160a01b031690638eaa6ac090602401602060405180830381865afa158015611cf9573d6000803e3d6000fd5b505050506040513d601f19601f82011682018060405250810190611d1d9190615250565b6001600160a01b03166356a1fd3a88836020015130896040518563ffffffff1660e01b8152600401611d529493929190615477565b600060405180830381600087803b158015611d6c57600080fd5b505af1158015611d80573d6000803e3d6000fd5b505050505b6003805460010190555b600354158015611db2575060035460009081526005602052604090206002015415155b15611dc557600380546001019055611d8f565b6003546080820181905260a08201516001600160401b0390811660e08401526004604080850191825260ff871660608601526101008501519092166101408501526000928352600560208181529290932084518155918401516001830180546001600160a01b039092166001600160a01b031983168117825592518695909391926001600160a81b03191690911790600160a01b908490811115611e6b57611e6b614e43565b0217905550606082015160018201805460ff60a81b1916600160a81b60ff90931692909202919091179055608080830151600283015560a083015160038301805460c086015160e08701516101008801516001600160401b039586166fffffffffffffffffffffffffffffffff1994851617600160401b9387168402176fffffffffffffffffffffffffffffffff16600160801b92871683026001600160c01b031617600160c01b9187169190910217909355610120870151600496870180546101408a0151610160909a015167ffffffffffffffff60801b199388169190951617988616909202979097179690961692160217909255908201516040516304132f1d60e31b815280830192909252602482015273__Array_________________________________9063209978e890604401602060405180830381865af4158015611fbb573d6000803e3d6000fd5b505050506040513d601f19601f82011682018060405250810190611fdf919061522e565b50805160009081526006602052604090819020608083015191516304132f1d60e31b815273__Array_________________________________9263209978e89261203792909190600401918252602082015260400190565b602060405180830381865af4158015612054573d6000803e3d6000fd5b505050506040513d601f19601f82011682018060405250810190612078919061522e565b5060008881526007602052604090819020608083015191516304132f1d60e31b815273__Array_________________________________9263209978e8926120ce92909190600401918252602082015260400190565b602060405180830381865af41580156120eb573d6000803e3d6000fd5b505050506040513d601f19601f8201168201806040525081019061210f919061522e565b5060008781526008602052604090819020608083015191516304132f1d60e31b815273__Array_________________________________9263209978e89261216592909190600401918252602082015260400190565b602060405180830381865af4158015612182573d6000803e3d6000fd5b505050506040513d601f19601f820116820180604052508101906121a6919061522e565b5080516121b290613d28565b5050600354979650505050505050565b60006107576001600160401b0383166402540be4006152e0565b60405163023aa9ab60e61b81527f2e7a327ef83c2af7579c6634f2f5604519800c5f07626f27bd602fd11ed8e6ec600482015260009081906001600160a01b037f00000000000000000000000000000000000000000000000000000000000000001690638eaa6ac090602401602060405180830381865afa158015612265573d6000803e3d6000fd5b505050506040513d601f19601f820116820180604052508101906122899190615250565b604080513060248201526001600160a01b038c81166044830152606482018c9052608482018b905260a482018a905260c4820189905260e4820188905260ff8716610104808401919091528351808403909101815261012490920183526020820180516001600160e01b0316635330878160e11b17905291519290911691612311919061526d565b6000604051808303816000865af19150503d806000811461234e576040519150601f19603f3d011682016040523d82523d6000602084013e612353565b606091505b505090506123608161070c565b50979650505050505050565b60405163509ff69b60e01b81526001600160a01b038781166004830152600060248301819052916124a7918a917f00000000000000000000000000000000000000000000000000000000000000009091169063509ff69b906044016020604051808303816000875af11580156123e6573d6000803e3d6000fd5b505050506040513d601f19601f8201168201806040525081019061240a9190615363565b60405163509ff69b60e01b81526001600160a01b038a81166004830152600060248301527f0000000000000000000000000000000000000000000000000000000000000000169063509ff69b906044015b6020604051808303816000875af115801561247a573d6000803e3d6000fd5b505050506040513d601f19601f8201168201806040525081019061249e9190615363565b888888886121dc565b98975050505050505050565b60405163509ff69b60e01b81526001600160a01b038981166004830152602482018990526000916125a7918c917f00000000000000000000000000000000000000000000000000000000000000009091169063509ff69b906044015b6020604051808303816000875af115801561252e573d6000803e3d6000fd5b505050506040513d601f19601f820116820180604052508101906125529190615363565b60405163509ff69b60e01b81526001600160a01b038b81166004830152602482018b90527f0000000000000000000000000000000000000000000000000000000000000000169063509ff69b9060440161245b565b9a9950505050505050505050565b6125bd612f35565b61070a6000805461ff001916610100179055565b600061262c3360405163509ff69b60e01b81526001600160a01b038c81166004830152602482018c90527f0000000000000000000000000000000000000000000000000000000000000000169063509ff69b9060440161250f565b9998505050505050505050565b600061075763ffffffff831664e8d4a510006152e0565b612658611152565b156126755760405162461bcd60e51b815260040161070190615315565b60006005600083815260200190815260200160002090507f00000000000000000000000000000000000000000000000000000000000000006001600160a01b0316634635229b6040518163ffffffff1660e01b8152600401602060405180830381865afa1580156126ea573d6000803e3d6000fd5b505050506040513d601f19601f8201168201806040525081019061270e919061522e565b80612725575060018101546001600160a01b031633145b6127415760405162461bcd60e51b81526004016107019061542c565b61274c81600161378b565b61072281613c7d565b61275d612f35565b6001600160a01b0381166127c25760405162461bcd60e51b815260206004820152602660248201527f4f776e61626c653a206e6577206f776e657220697320746865207a65726f206160448201526564647265737360d01b6064820152608401610701565b6127cb81612f96565b50565b600061075764174876e800836152be565b6127e7614ccc565b60008381526005602081815260408084208151610180810183528154815260018201546001600160a01b0381169482019490945293909291840191600160a01b900460ff169081111561283c5761283c614e43565b600581111561284d5761284d614e43565b81526001820154600160a81b900460ff166020820152600282015460408083019190915260038301546001600160401b038082166060850152600160401b80830482166080860152600160801b808404831660a0870152600160c01b909304821660c086015260049586015480831660e087015290810482166101008601529190910416610120909201919091528251905163657c7e0960e01b8152918201529091507f00000000000000000000000000000000000000000000000000000000000000006001600160a01b03169063657c7e09906024016040805180830381865afa158015612940573d6000803e3d6000fd5b505050506040513d601f19601f82011682018060405250810190612964919061533f565b604084015260208301526080810151606083015282806129fd575060608101516040516336181b6760e11b815260ff909116600482015273__Order_________________________________90636c3036ce90602401602060405180830381865af41580156129d7573d6000803e3d6000fd5b505050506040513d601f19601f820116820180604052508101906129fb919061522e565b155b15612e725760208101516001600160a01b0316825260a0810151612a20906121c2565b60808301526060810151604051632b2076e360e11b815260ff909116600482015273__Order_________________________________90635640edc690602401602060405180830381865af4158015612a7d573d6000803e3d6000fd5b505050506040513d601f19601f82011682018060405250810190612aa1919061522e565b15612ab557608082015160a0830152612bef565b6101208101516001600160401b031615612ae157612ad78161012001516121c2565b60a0830152612bef565b60405163023aa9ab60e61b815260008051602061574883398151915260048201527f00000000000000000000000000000000000000000000000000000000000000006001600160a01b031690638eaa6ac090602401602060405180830381865afa158015612b53573d6000803e3d6000fd5b505050506040513d601f19601f82011682018060405250810190612b779190615250565b6001600160a01b031663a9bf985883602001516040518263ffffffff1660e01b8152600401612ba891815260200190565b602060405180830381865afa158015612bc5573d6000803e3d6000fd5b505050506040513d601f19601f82011682018060405250810190612be99190615363565b60a08301525b612bfc8160c001516121c2565b60c083015260e0810151612c0f906121c2565b60e08301526060810151604051635b7d0f6960e11b815260ff909116600482015273__Order_________________________________9063b6fa1ed290602401602060405180830381865af4158015612c6c573d6000803e3d6000fd5b505050506040513d601f19601f82011682018060405250810190612c90919061522e565b15612e5d57612ca38161014001516121c2565b610120830152610160810151612cb8906121c2565b61014083015260405163023aa9ab60e61b81527f3cb99135f7a7c088d9085b446345038a22a85f4e8fe072b0e1b66d97243e745860048201526000907f00000000000000000000000000000000000000000000000000000000000000006001600160a01b031690638eaa6ac090602401602060405180830381865afa158015612d45573d6000803e3d6000fd5b505050506040513d601f19601f82011682018060405250810190612d699190615250565b6001600160a01b0316636464b68a846020015185604001516040518363ffffffff1660e01b8152600401612da7929190918252602082015260400190565b606060405180830381865afa158015612dc4573d6000803e3d6000fd5b505050506040513d601f19601f82011682018060405250810190612de8919061537c565b509150506000819003612e315760405162461bcd60e51b8152602060048201526011602482015270145d5bdd194e88139bdd081c5d5bdd1959607a1b6044820152606401610701565b610140830151612e4190826152be565b836101200151612e5191906152e0565b61010084015250612e72565b612e6b8161010001516121c2565b6101008301525b604051630212d6cb60e21b815273__Order_________________________________9063084b5b2c90612ea990849060040161549c565b602060405180830381865af4158015612ec6573d6000803e3d6000fd5b505050506040513d601f19601f82011682018060405250810190612eea9190615363565b61016083015260408101516101808301906005811115612f0c57612f0c614e43565b90816005811115612f1f57612f1f614e43565b9052506060015160ff166101a082015292915050565b6000546001600160a01b036201000090910416331461070a5760405162461bcd60e51b815260206004820152601f60248201527f416c6c6f77616e63653a2063616c6c6572206d757374206265204f776e6572006044820152606401610701565b600080546001600160a01b038381166201000081810262010000600160b01b0319851617855560405193049190911692909183917f8be0079c531659141344cd1fd0a4f28419497f9722a3daafe3b4186f6b6457e091a35050565b60008080600080670de0b6b3a76400006130218a60030160189054906101000a90046001600160401b03166121c2565b61302b90886152e0565b61303591906152be565b895460405163657c7e0960e01b815291925060009182916001600160a01b037f0000000000000000000000000000000000000000000000000000000000000000169163657c7e099161308d9160040190815260200190565b6040805180830381865afa1580156130a9573d6000803e3d6000fd5b505050506040513d601f19601f820116820180604052508101906130cd919061533f565b60018d015460405163f0340a3760e01b8152600160a81b90910460ff166004820152919350915073__Order_________________________________9063f0340a3790602401602060405180830381865af4158015613130573d6000803e3d6000fd5b505050506040513d601f19601f82011682018060405250810190613154919061522e565b1561325c5760405163023aa9ab60e61b815260008051602061574883398151915260048201527f00000000000000000000000000000000000000000000000000000000000000006001600160a01b031690638eaa6ac090602401602060405180830381865afa1580156131cb573d6000803e3d6000fd5b505050506040513d601f19601f820116820180604052508101906131ef9190615250565b60018c015460405163255318af60e21b81526001600160a01b039283169263954c62bc926132299287929091169030908e90600401615477565b600060405180830381600087803b15801561324357600080fd5b505af1158015613257573d6000803e3d6000fd5b505050505b881561335c5760405163023aa9ab60e61b815260008051602061574883398151915260048201527f00000000000000000000000000000000000000000000000000000000000000006001600160a01b031690638eaa6ac090602401602060405180830381865afa1580156132d4573d6000803e3d6000fd5b505050506040513d601f19601f820116820180604052508101906132f89190615250565b6001600160a01b031663954c62bc828c30876040518563ffffffff1660e01b81526004016133299493929190615477565b600060405180830381600087803b15801561334357600080fd5b505af1158015613357573d6000803e3d6000fd5b505050505b85156134655760405163023aa9ab60e61b815260008051602061574883398151915260048201527f00000000000000000000000000000000000000000000000000000000000000006001600160a01b031690638eaa6ac090602401602060405180830381865afa1580156133d4573d6000803e3d6000fd5b505050506040513d601f19601f820116820180604052508101906133f89190615250565b60018c0154604051631c9619a760e01b81526001600160a01b0392831692631c9619a792613432928792909116908c908c90600401615477565b600060405180830381600087803b15801561344c57600080fd5b505af1158015613460573d6000803e3d6000fd5b505050505b83156135655760405163023aa9ab60e61b815260008051602061574883398151915260048201527f00000000000000000000000000000000000000000000000000000000000000006001600160a01b031690638eaa6ac090602401602060405180830381865afa1580156134dd573d6000803e3d6000fd5b505050506040513d601f19601f820116820180604052508101906135019190615250565b6001600160a01b0316631c9619a7828c88886040518563ffffffff1660e01b81526004016135329493929190615477565b600060405180830381600087803b15801561354c57600080fd5b505af1158015613560573d6000803e3d6000fd5b505050505b60405163023aa9ab60e61b815260008051602061574883398151915260048201527f00000000000000000000000000000000000000000000000000000000000000006001600160a01b031690638eaa6ac090602401602060405180830381865afa1580156135d7573d6000803e3d6000fd5b505050506040513d601f19601f820116820180604052508101906135fb9190615250565b60018c01546001600160a01b0391821691631c9619a7918591168d6136208b8e6153aa565b6040518563ffffffff1660e01b815260040161363f9493929190615477565b600060405180830381600087803b15801561365957600080fd5b505af115801561366d573d6000803e3d6000fd5b505060405163023aa9ab60e61b815260008051602061574883398151915260048201527f00000000000000000000000000000000000000000000000000000000000000006001600160a01b03169250638eaa6ac09150602401602060405180830381865afa1580156136e3573d6000803e3d6000fd5b505050506040513d601f19601f820116820180604052508101906137079190615250565b60018c01546001600160a01b0391821691631c9619a79184918e911661372d89896153aa565b6040518563ffffffff1660e01b815260040161374c9493929190615477565b600060405180830381600087803b15801561376657600080fd5b505af115801561377a573d6000803e3d6000fd5b505050505050505050505050505050565b600081600581111561379f5761379f614e43565b1180156137be575060038160058111156137bb576137bb614e43565b11155b80156137ea575060046001830154600160a01b900460ff1660058111156137e7576137e7614e43565b10155b6138365760405162461bcd60e51b815260206004820152601d60248201527f5f6f726465725465726d696e6174652073746174652070726f626c656d0000006044820152606401610701565b815460405163657c7e0960e01b8152600481019190915260009081907f00000000000000000000000000000000000000000000000000000000000000006001600160a01b03169063657c7e09906024016040805180830381865afa1580156138a2573d6000803e3d6000fd5b505050506040513d601f19601f820116820180604052508101906138c6919061533f565b600186018054929450909250849160ff60a01b1916600160a01b8360058111156138f2576138f2614e43565b0217905550600184015460405163f0340a3760e01b8152600160a81b90910460ff16600482015273__Order_________________________________9063f0340a3790602401602060405180830381865af4158015613955573d6000803e3d6000fd5b505050506040513d601f19601f82011682018060405250810190613979919061522e565b15613ab05760405163023aa9ab60e61b815260008051602061574883398151915260048201527f00000000000000000000000000000000000000000000000000000000000000006001600160a01b031690638eaa6ac090602401602060405180830381865afa1580156139f0573d6000803e3d6000fd5b505050506040513d601f19601f82011682018060405250810190613a149190615250565b600185015460038601546001600160a01b039283169263954c62bc9285929116903090613a5e9061045f906001600160401b03600160401b8204811691600160801b9004166153d9565b6040518563ffffffff1660e01b8152600401613a7d9493929190615477565b600060405180830381600087803b158015613a9757600080fd5b505af1158015613aab573d6000803e3d6000fd5b505050505b83546000908152600660205260409081902060028601549151630cef945b60e31b815273__Array_________________________________9263677ca2d892613b0792909190600401918252602082015260400190565b602060405180830381865af4158015613b24573d6000803e3d6000fd5b505050506040513d601f19601f82011682018060405250810190613b48919061522e565b506000828152600760205260409081902060028601549151630cef945b60e31b815273__Array_________________________________9263677ca2d892613b9e92909190600401918252602082015260400190565b602060405180830381865af4158015613bbb573d6000803e3d6000fd5b505050506040513d601f19601f82011682018060405250810190613bdf919061522e565b506000818152600860205260409081902060028601549151630cef945b60e31b815273__Array_________________________________9263677ca2d892613c3592909190600401918252602082015260400190565b602060405180830381865af4158015613c52573d6000803e3d6000fd5b505050506040513d601f19601f82011682018060405250810190613c76919061522e565b5050505050565b6002810154604051630cef945b60e31b8152600480820152602481019190915273__Array_________________________________9063677ca2d890604401602060405180830381865af4158015613cd9573d6000803e3d6000fd5b505050506040513d601f19601f82011682018060405250810190613cfd919061522e565b5043600090815260096020908152604082206002909301548354600181018555938352912090910155565b604051630e29a66960e21b8152600481018290526001600160a01b037f000000000000000000000000000000000000000000000000000000000000000016906338a699a490602401602060405180830381865afa158015613d8d573d6000803e3d6000fd5b505050506040513d601f19601f82011682018060405250810190613db1919061522e565b613db85750565b60405163657c7e0960e01b81526004810182905260009081906001600160a01b037f0000000000000000000000000000000000000000000000000000000000000000169063657c7e09906024016040805180830381865afa158015613e21573d6000803e3d6000fd5b505050506040513d601f19601f82011682018060405250810190613e45919061533f565b91509150613e5382846108ed565b15613e5d57505050565b6000818152600160209081526040808320805482518185028101850190935280835260609493830182828015613eb257602002820191906000526020600020905b815481526020019060010190808311613e9e575b5050505050905080516001600160401b03811115613ed257613ed261558b565b604051908082528060200260200182016040528015613f0557816020015b6060815260200190600190039081613ef05790505b5091506000805b82518110156140815760007f00000000000000000000000000000000000000000000000000000000000000006001600160a01b03166327ee9dc2858481518110613f5857613f586155a1565b60200260200101516040518263ffffffff1660e01b8152600401613f7e91815260200190565b600060405180830381865afa158015613f9b573d6000803e3d6000fd5b505050506040513d6000823e601f3d908101601f19168201604052613fc391908101906155b7565b604051639d84366d60e01b815290915073__Array_________________________________90639d84366d90613fff9084908b906004016156a3565b602060405180830381865af415801561401c573d6000803e3d6000fd5b505050506040513d601f19601f82011682018060405250810190614040919061522e565b61406e57808584614050816156c5565b955081518110614062576140626155a1565b60200260200101819052505b5080614079816156c5565b915050613f0c565b5082525060008381526002602090815260408083208054825181850281018501909352808352606094938301828280156140da57602002820191906000526020600020905b8154815260200190600101908083116140c6575b5050505050905080516001600160401b038111156140fa576140fa61558b565b60405190808252806020026020018201604052801561412d57816020015b60608152602001906001900390816141185790505b5091506000805b82518110156142a95760007f00000000000000000000000000000000000000000000000000000000000000006001600160a01b03166327ee9dc2858481518110614180576141806155a1565b60200260200101516040518263ffffffff1660e01b81526004016141a691815260200190565b600060405180830381865afa1580156141c3573d6000803e3d6000fd5b505050506040513d6000823e601f3d908101601f191682016040526141eb91908101906155b7565b604051639d84366d60e01b815290915073__Array_________________________________90639d84366d906142279084908b906004016156a3565b602060405180830381865af4158015614244573d6000803e3d6000fd5b505050506040513d601f19601f82011682018060405250810190614268919061522e565b61429657808584614278816156c5565b95508151811061428a5761428a6155a1565b60200260200101819052505b50806142a1816156c5565b915050614134565b508252506000848152600160205260409081902090516316061a7160e21b815260048101919091526024810186905273__Array_________________________________9063581869c490604401602060405180830381865af4158015614314573d6000803e3d6000fd5b505050506040513d601f19601f82011682018060405250810190614338919061522e565b506000838152600260205260409081902090516316061a7160e21b815260048101919091526024810186905273__Array_________________________________9063581869c490604401602060405180830381865af41580156143a0573d6000803e3d6000fd5b505050506040513d601f19601f820116820180604052508101906143c4919061522e565b5060005b81518110156146545760008282815181106143e5576143e56155a1565b602002602001015173__Array_________________________________639b861f039091876040518363ffffffff1660e01b81526004016144279291906156a3565b600060405180830381865af4158015614444573d6000803e3d6000fd5b505050506040513d6000823e601f3d908101601f1916820160405261446c91908101906155b7565b905060007f00000000000000000000000000000000000000000000000000000000000000006001600160a01b031663b3054383836040518263ffffffff1660e01b81526004016144bc91906156de565b6020604051808303816000875af11580156144db573d6000803e3d6000fd5b505050506040513d601f19601f820116820180604052508101906144ff9190615363565b90506001600083600081518110614518576145186155a1565b6020026020010151815260200190815260200160002073__Array_________________________________63581869c49091836040518363ffffffff1660e01b8152600401614571929190918252602082015260400190565b602060405180830381865af415801561458e573d6000803e3d6000fd5b505050506040513d601f19601f820116820180604052508101906145b2919061522e565b506000868152600260205260409081902090516316061a7160e21b815260048101919091526024810182905273__Array_________________________________9063581869c490604401602060405180830381865af415801561461a573d6000803e3d6000fd5b505050506040513d601f19601f8201168201806040525081019061463e919061522e565b505050808061464c906156c5565b9150506143c8565b5060005b82518110156148f6576000838281518110614675576146756155a1565b602002602001015173__Array_________________________________633b06e74f9091886040518363ffffffff1660e01b81526004016146b79291906156a3565b600060405180830381865af41580156146d4573d6000803e3d6000fd5b505050506040513d6000823e601f3d908101601f191682016040526146fc91908101906155b7565b905060007f00000000000000000000000000000000000000000000000000000000000000006001600160a01b031663b3054383836040518263ffffffff1660e01b815260040161474c91906156de565b6020604051808303816000875af115801561476b573d6000803e3d6000fd5b505050506040513d601f19601f8201168201806040525081019061478f9190615363565b6000888152600160205260409081902090516316061a7160e21b815291925073__Array_________________________________9163581869c4916147e1918590600401918252602082015260400190565b602060405180830381865af41580156147fe573d6000803e3d6000fd5b505050506040513d601f19601f82011682018060405250810190614822919061522e565b5060026000836001855161483691906153aa565b81518110614846576148466155a1565b6020026020010151815260200190815260200160002073__Array_________________________________63581869c49091836040518363ffffffff1660e01b815260040161489f929190918252602082015260400190565b602060405180830381865af41580156148bc573d6000803e3d6000fd5b505050506040513d601f19601f820116820180604052508101906148e0919061522e565b50505080806148ee906156c5565b915050614658565b5060005b8151811015614cc45760005b8351811015614cb1576000848281518110614923576149236155a1565b602002602001015190506000848381518110614941576149416155a1565b6020026020010151905060005b8251811015614a02578173__Array_________________________________639d84366d9091858481518110614986576149866155a1565b60200260200101516040518363ffffffff1660e01b81526004016149ab9291906156a3565b602060405180830381865af41580156149c8573d6000803e3d6000fd5b505050506040513d601f19601f820116820180604052508101906149ec919061522e565b614a0257806149fa816156c5565b91505061494e565b8251811015614a1357505050614c9f565b6040516302704ae960e31b815260009073__Array_________________________________90631382574890614a4f9087908790600401615722565b600060405180830381865af4158015614a6c573d6000803e3d6000fd5b505050506040513d6000823e601f3d908101601f19168201604052614a9491908101906155b7565b905060007f00000000000000000000000000000000000000000000000000000000000000006001600160a01b031663b3054383836040518263ffffffff1660e01b8152600401614ae491906156de565b6020604051808303816000875af1158015614b03573d6000803e3d6000fd5b505050506040513d601f19601f82011682018060405250810190614b279190615363565b90506001600083600081518110614b4057614b406155a1565b6020026020010151815260200190815260200160002073__Array_________________________________63581869c49091836040518363ffffffff1660e01b8152600401614b99929190918252602082015260400190565b602060405180830381865af4158015614bb6573d6000803e3d6000fd5b505050506040513d601f19601f82011682018060405250810190614bda919061522e565b50600260008360018551614bee91906153aa565b81518110614bfe57614bfe6155a1565b6020026020010151815260200190815260200160002073__Array_________________________________63581869c49091836040518363ffffffff1660e01b8152600401614c57929190918252602082015260400190565b602060405180830381865af4158015614c74573d6000803e3d6000fd5b505050506040513d601f19601f82011682018060405250810190614c98919061522e565b5050505050505b80614ca9816156c5565b915050614906565b5080614cbc816156c5565b9150506148fa565b505050505050565b604051806101c0016040528060006001600160a01b03168152602001600080191681526020016000801916815260200160008152602001600081526020016000815260200160008152602001600081526020016000815260200160008152602001600081526020016000815260200160006005811115614d4e57614d4e614e43565b8152600060209091015290565b60008085851115614d6b57600080fd5b83861115614d7857600080fd5b5050820193919092039150565b600060208284031215614d9757600080fd5b81356001600160e01b03198116811461097757600080fd5b6001600160a01b03811681146127cb57600080fd5b600080600080600060a08688031215614ddc57600080fd5b8535614de781614daf565b97602087013597506040870135966060810135965060800135945092505050565b60008060408385031215614e1b57600080fd5b50508035926020909101359150565b600060208284031215614e3c57600080fd5b5035919050565b634e487b7160e01b600052602160045260246000fd5b60068110614e7757634e487b7160e01b600052602160045260246000fd5b9052565b81516001600160a01b031681526101c081016020830151602083015260408301516040830152606083015160608301526080830151608083015260a083015160a083015260c083015160c083015260e083015160e083015261010080840151818401525061012080840151818401525061014080840151818401525061016080840151818401525061018080840151614f1682850182614e59565b50506101a08381015160ff8116848301525b505092915050565b600060208284031215614f4257600080fd5b813561097781614daf565b803560ff81168114614f5e57600080fd5b919050565b60008060008060008060c08789031215614f7c57600080fd5b8635955060208701359450604087013593506060870135925060808701359150614fa860a08801614f4d565b90509295509295509295565b600060208284031215614fc657600080fd5b813565ffffffffffff8116811461097757600080fd5b60008060008060808587031215614ff257600080fd5b5050823594602084013594506040840135936060013592509050565b600080600080600080600060e0888a03121561502957600080fd5b873561503481614daf565b96506020880135955060408801359450606088013593506080880135925060a0880135915061506560c08901614f4d565b905092959891949750929550565b60006020828403121561508557600080fd5b81356001600160401b038116811461097757600080fd5b600080600080600080600060e0888a0312156150b757600080fd5b87356150c281614daf565b965060208801356150d281614daf565b955060408801356150e281614daf565b9450606088013593506080880135925060a0880135915061506560c08901614f4d565b60008060008060008060008060006101208a8c03121561512457600080fd5b893561512f81614daf565b985060208a013561513f81614daf565b975060408a0135965060608a013561515681614daf565b955060808a0135945060a08a0135935060c08a0135925060e08a013591506151816101008b01614f4d565b90509295985092959850929598565b600080600080600080600080610100898b0312156151ad57600080fd5b88356151b881614daf565b97506020890135965060408901356151cf81614daf565b9550606089013594506080890135935060a0890135925060c089013591506151f960e08a01614f4d565b90509295985092959890939650565b60006020828403121561521a57600080fd5b813563ffffffff8116811461097757600080fd5b60006020828403121561524057600080fd5b8151801515811461097757600080fd5b60006020828403121561526257600080fd5b815161097781614daf565b6000825160005b8181101561528e5760208186018101518583015201615274565b8181111561529d576000828501525b509190910192915050565b634e487b7160e01b600052601160045260246000fd5b6000826152db57634e487b7160e01b600052601260045260246000fd5b500490565b60008160001904831182151516156152fa576152fa6152a8565b500290565b634e487b7160e01b600052600160045260246000fd5b60208082526010908201526f10dbdb9d1c9858dd081cdd1bdc1c195960821b604082015260600190565b6000806040838503121561535257600080fd5b505080516020909101519092909150565b60006020828403121561537557600080fd5b5051919050565b60008060006060848603121561539157600080fd5b8351925060208401519150604084015190509250925092565b6000828210156153bc576153bc6152a8565b500390565b600082198211156153d4576153d46152a8565b500190565b60006001600160401b03838116908316818110156153f9576153f96152a8565b039392505050565b60006001600160401b03808316818516808303821115615423576154236152a8565b01949350505050565b6020808252602b908201527f4d757374206265206163636f756e743d3d5f6d736753656e646572206f72204d60408201526a6f64652054657374696e6760a81b606082015260800190565b9384526001600160a01b03928316602085015291166040830152606082015260800190565b815181526020808301516101808301916154c0908401826001600160a01b03169052565b5060408301516154d36040840182614e59565b5060608301516154e8606084018260ff169052565b506080830151608083015260a083015161550d60a08401826001600160401b03169052565b5060c083015161552860c08401826001600160401b03169052565b5060e083015161554360e08401826001600160401b03169052565b50610100838101516001600160401b03908116918401919091526101208085015182169084015261014080850151821690840152610160808501519182168185015290614f28565b634e487b7160e01b600052604160045260246000fd5b634e487b7160e01b600052603260045260246000fd5b600060208083850312156155ca57600080fd5b82516001600160401b03808211156155e157600080fd5b818501915085601f8301126155f557600080fd5b8151818111156156075761560761558b565b8060051b604051601f19603f8301168101818110858211171561562c5761562c61558b565b60405291825284820192508381018501918883111561564a57600080fd5b938501935b828510156124a75784518452938501939285019261564f565b600081518084526020808501945080840160005b838110156156985781518752958201959082019060010161567c565b509495945050505050565b6040815260006156b66040830185615668565b90508260208301529392505050565b6000600182016156d7576156d76152a8565b5060010190565b6020808252825182820181905260009190848201906040850190845b81811015615716578351835292840192918401916001016156fa565b50909695505050505050565b6040815260006157356040830185615668565b82810360208401526112cf818561566856fecd775f2396f9f13f12bcf8ca32e21df66559a8adc3944d0591127e7731f7ab85a264697066735822122051dd5f9d6c2140957b857460b312da8d6a30d42cb99f1d8f94310856aed1b31d64736f6c634300080d0033",
  "bytecodeSha1": "576287c8a7bc3b63d8cbd7f08ef7b4161ace7a1e",
  "compiler": {
    "evm_version": "istanbul",
    "optimizer": {
      "enabled": true,
      "runs": 200
    },
    "version": "0.8.13+commit.abaa5c0e"
  },
  "contractName": "MarketOrder",
  "deployedBytecode": "608060405234801561001057600080fd5b50600436106101e55760003560e01c8063979620761161010f578063c34fa842116100a2578063e4b1614411610071578063e4b16144146104df578063ede8cdfe146104f2578063f2fde38b14610505578063feab445414610518576101e5565b8063c34fa8421461048a578063ccc079591461049d578063d6935858146104c4578063e2d7e08e146104cc576101e5565b8063af640d0f116100de578063af640d0f1461042b578063b03fd40d14610451578063b23a43fc14610464578063b791f8a014610477576101e5565b806397962076146103e25780639bc896f9146103f2578063a5ef794a14610405578063a6610f0214610418576101e5565b80635c42b710116101875780637a70482c116101565780637a70482c146103895780637af6649a1461039c578063854ba99d146103af5780638da5cb5b146103b7576101e5565b80635c42b7101461033b578063629651411461034e578063715018a61461037957806372ea61bf14610381576101e5565b80631ef4590d116101c35780631ef4590d146102b857806321603f43146102cb5780632203616d146102eb5780632f54bf6e14610313576101e5565b806301ffc9a71461026757806305d6bd9c1461028f5780630af077bf14610297575b6101ed610542565b60006101fd602460043684614d5b565b8080601f016020809104026020016040519081016040528093929190818152602001838380828437600092018290525060208501519495509250503660231981019150601f19016004838037816024600437600080826000875af4925050506102658161070c565b005b61027a610275366004614d85565b610726565b60405190151581526020015b60405180910390f35b61026561075d565b6102aa6102a5366004614dc4565b610774565b604051908152602001610286565b61027a6102c6366004614e08565b6108ed565b6102de6102d9366004614e2a565b61097e565b6040516102869190614e7b565b6102fe6102f9366004614e2a565b610991565b60405163ffffffff9091168152602001610286565b61027a610321366004614f30565b6000546201000090046001600160a01b0390811691161490565b6102aa610349366004614f63565b6109a2565b61036161035c366004614e2a565b6109be565b6040516001600160401b039091168152602001610286565b6102656109f0565b610265610a02565b6102aa610397366004614dc4565b610a1c565b6102aa6103aa366004614fb4565b611139565b61027a611152565b6000546201000090046001600160a01b03165b6040516001600160a01b039091168152602001610286565b600054610100900460ff1661027a565b610265610400366004614e2a565b611170565b6102aa610413366004614fdc565b6112c0565b6102aa61042636600461500e565b6112d8565b7fc79a5c5e1c7f6fab1e75ab0e20e9522aa9eb363a0c70072c6dcb8a20f4a46ae46102aa565b6102aa61045f366004615073565b6121c2565b6102aa61047236600461500e565b6121dc565b6102aa61048536600461509c565b61236c565b6102aa610498366004615105565b6124b3565b6103ca7f000000000000000000000000000000000000000000000000000000000000000081565b6102656125b5565b6102aa6104da366004615190565b6125d1565b6102aa6104ed366004615208565b612639565b610265610500366004614e2a565b612650565b610265610513366004614f30565b612755565b61052b610526366004614e2a565b6127ce565b60405165ffffffffffff9091168152602001610286565b6000546001600160a01b0362010000909104163314806105f557506001600160a01b037f0000000000000000000000000000000000000000000000000000000000000000166316279055336040516001600160e01b031960e084901b1681526001600160a01b039091166004820152602401602060405180830381865afa1580156105d1573d6000803e3d6000fd5b505050506040513d601f19601f820116820180604052508101906105f5919061522e565b8061069357506001600160a01b037f000000000000000000000000000000000000000000000000000000000000000016636d70f7ae336040516001600160e01b031960e084901b1681526001600160a01b039091166004820152602401602060405180830381865afa15801561066f573d6000803e3d6000fd5b505050506040513d601f19601f82011682018060405250810190610693919061522e565b61070a5760405162461bcd60e51b815260206004820152603960248201527f416c6c6f77616e63653a2063616c6c6572206d757374206265205265706f736960448201527f746f727920436f6e7472616374206f72204f70657261746f720000000000000060648201526084015b60405180910390fd5b565b3d6000803e80801561071d573d6000f35b3d6000fd5b5050565b60006001600160e01b031982166301ffc9a760e01b148061075757506001600160e01b031982166315d3789560e31b145b92915050565b610765610542565b61070a6000805460ff19169055565b60405163023aa9ab60e61b81527f2e7a327ef83c2af7579c6634f2f5604519800c5f07626f27bd602fd11ed8e6ec600482015260009081906001600160a01b037f00000000000000000000000000000000000000000000000000000000000000001690638eaa6ac090602401602060405180830381865afa1580156107fd573d6000803e3d6000fd5b505050506040513d601f19601f820116820180604052508101906108219190615250565b604080513060248201526001600160a01b038a81166044830152606482018a90526084820189905260a4820188905260c48083018890528351808403909101815260e490920183526020820180516001600160e01b03166301de754d60e61b17905291519290911691610894919061526d565b6000604051808303816000865af19150503d80600081146108d1576040519150601f19603f3d011682016040523d82523d6000602084013e6108d6565b606091505b505090506108e38161070c565b5095945050505050565b6000828152600160205260408082209051632be5db2360e11b815260048101919091526024810183905273__$f71e59c5327218924d154e230469c101bd$__906357cbb64690604401602060405180830381865af4158015610953573d6000803e3d6000fd5b505050506040513d601f19601f82011682018060405250810190610977919061522e565b9392505050565b610986614ccc565b6107578260006127df565b600061075764e8d4a51000836152be565b60006109b3338888888888886121dc565b979650505050505050565b6000806109d06402540be400846152be565b9050826109e2826402540be4006152e0565b1115610757576107576152ff565b6109f8612f35565b61070a6000612f96565b610a0a610542565b61070a6000805460ff19166001179055565b6000610a26611152565b15610a435760405162461bcd60e51b815260040161070190615315565b7f00000000000000000000000000000000000000000000000000000000000000006001600160a01b0316634635229b6040518163ffffffff1660e01b8152600401602060405180830381865afa158015610aa1573d6000803e3d6000fd5b505050506040513d601f19601f82011682018060405250810190610ac5919061522e565b80610ad857506001600160a01b03861633145b610b3a5760405162461bcd60e51b815260206004820152602d60248201527f4d757374206265206163636f756e743d3d5f6d736753656e6465722829206f7260448201526c204d6f64652054657374696e6760981b6064820152608401610701565b6000858152600560205260408082208054915163657c7e0960e01b81526004810192909252919081907f00000000000000000000000000000000000000000000000000000000000000006001600160a01b03169063657c7e09906024016040805180830381865afa158015610bb3573d6000803e3d6000fd5b505050506040513d601f19601f82011682018060405250810190610bd7919061533f565b60405163023aa9ab60e61b8152600080516020615748833981519152600482015291935091507f00000000000000000000000000000000000000000000000000000000000000006001600160a01b031690638eaa6ac090602401602060405180830381865afa158015610c4e573d6000803e3d6000fd5b505050506040513d601f19601f82011682018060405250810190610c729190615250565b604051634e68f20f60e11b8152600481018390526001600160a01b038b811660248301529190911690639cd1e41e90604401602060405180830381865afa158015610cc1573d6000803e3d6000fd5b505050506040513d601f19601f82011682018060405250810190610ce59190615363565b670de0b6b3a7640000610cf8888a6152e0565b610d0291906152be565b1115610d505760405162461bcd60e51b815260206004820152601a60248201527f42616e6b3a204e6f7420656e6f75676820617661696c61626c650000000000006044820152606401610701565b6001830154604051635b7d0f6960e11b8152600160a81b90910460ff16600482015260009073__$f7122df39a5f3bad28f404771cd5173291$__9063b6fa1ed290602401602060405180830381865af4158015610db1573d6000803e3d6000fd5b505050506040513d601f19601f82011682018060405250810190610dd5919061522e565b15610f005760405163023aa9ab60e61b81527f3cb99135f7a7c088d9085b446345038a22a85f4e8fe072b0e1b66d97243e745860048201527f00000000000000000000000000000000000000000000000000000000000000006001600160a01b031690638eaa6ac090602401602060405180830381865afa158015610e5e573d6000803e3d6000fd5b505050506040513d601f19601f82011682018060405250810190610e829190615250565b6040516332f3077960e11b815260048101859052602481018490526001600160a01b0391909116906365e60ef2906044016060604051808303816000875af1158015610ed2573d6000803e3d6000fd5b505050506040513d601f19601f82011682018060405250810190610ef6919061537c565b509150610f219050565b6003840154610f1e90600160c01b90046001600160401b03166121c2565b90505b670de0b6b3a7640000610f3487826153aa565b610f3e90896152e0565b610f4891906152be565b8111158015610f7d5750670de0b6b3a7640000610f6587826153c1565b610f6f90896152e0565b610f7991906152be565b8110155b610fc95760405162461bcd60e51b815260206004820152601c60248201527f51756f746520536c6970706564206f76657220746f6c6572616e6365000000006044820152606401610701565b600081610fd6898b6152e0565b610fe091906152be565b600386015490915060009061100b9061045f906001600160401b03600160401b8204811691166153d9565b905081811015611019578091505b611026868d60008d612ff1565b61102f8a6109be565b600387018054600890611053908490600160401b90046001600160401b0316615401565b82546101009290920a6001600160401b038181021990931691831602179091556003880154600160801b81048216600160401b90910490911603905061109e5761109e86600361378b565b6001860154604080516001600160a01b039283168152918e166020830152810184905260608101839052849086907f49da6c773c11f8e65fd2ffb9512fa3f24dc8759fbcedb687f0b59694adc1d3439060800160405180910390a360036001870154600160a01b900460ff16600581111561111b5761111b614e43565b116111295761112986613c7d565b50979a9950505050505050505050565b600061075765ffffffffffff831664174876e8006152e0565b6000805460ff168061116b5750600054610100900460ff165b905090565b60405163023aa9ab60e61b81527f2e7a327ef83c2af7579c6634f2f5604519800c5f07626f27bd602fd11ed8e6ec60048201526000907f00000000000000000000000000000000000000000000000000000000000000006001600160a01b031690638eaa6ac090602401602060405180830381865afa1580156111f7573d6000803e3d6000fd5b505050506040513d601f19601f8201168201806040525081019061121b9190615250565b60408051306024820152604480820186905282518083039091018152606490910182526020810180516001600160e01b03166376f466ff60e11b17905290516001600160a01b039290921691611271919061526d565b6000604051808303816000865af19150503d80600081146112ae576040519150601f19603f3d011682016040523d82523d6000602084013e6112b3565b606091505b505090506107228161070c565b60006112cf3386868686610774565b95945050505050565b60006112e2611152565b156112ff5760405162461bcd60e51b815260040161070190615315565b7f00000000000000000000000000000000000000000000000000000000000000006001600160a01b0316634635229b6040518163ffffffff1660e01b8152600401602060405180830381865afa15801561135d573d6000803e3d6000fd5b505050506040513d601f19601f82011682018060405250810190611381919061522e565b8061139457506001600160a01b03881633145b6113b05760405162461bcd60e51b81526004016107019061542c565b60405163c5537eb760e01b81526004810188905261080060248201527f00000000000000000000000000000000000000000000000000000000000000006001600160a01b03169063c5537eb790604401602060405180830381865afa15801561141d573d6000803e3d6000fd5b505050506040513d601f19601f82011682018060405250810190611441919061522e565b1561165e57604051630c25e48360e11b8152600481018890526000907f00000000000000000000000000000000000000000000000000000000000000006001600160a01b03169063184bc90690602401602060405180830381865afa1580156114ae573d6000803e3d6000fd5b505050506040513d601f19601f820116820180604052508101906114d29190615250565b9050806001600160a01b031663f5ac9db66040518163ffffffff1660e01b8152600401602060405180830381865afa158015611512573d6000803e3d6000fd5b505050506040513d601f19601f82011682018060405250810190611536919061522e565b6115775760405162461bcd60e51b815260206004820152601260248201527146726f6d206e6f7420747261646561626c6560701b6044820152606401610701565b806001600160a01b0316630e4994276040518163ffffffff1660e01b8152600401602060405180830381865afa1580156115b5573d6000803e3d6000fd5b505050506040513d601f19601f820116820180604052508101906115d9919061522e565b801561160557507fad3228b676f7d3cd4284a5443f17f1962b36e491b30a40b2405849e597ba5fb58714155b61165c5760405162461bcd60e51b815260206004820152602260248201527f46726f6d206973206f6e6c7920747261646561626c6520746f2043757272656e604482015261637960f01b6064820152608401610701565b505b60405163d47a7edd60e01b8152600481018890527f00000000000000000000000000000000000000000000000000000000000000006001600160a01b03169063d47a7edd90602401602060405180830381865afa1580156116c3573d6000803e3d6000fd5b505050506040513d601f19601f820116820180604052508101906116e7919061522e565b15806116fa575083670de0b6b3a7640000145b8061170457508385145b6117645760405162461bcd60e51b815260206004820152602b60248201527f2746726f6d27206973204e46542071747920616e64206772616e756c6172697460448201526a79206d757374206265203160a81b6064820152608401610701565b60405163023aa9ab60e61b815260008051602061574883398151915260048201527f00000000000000000000000000000000000000000000000000000000000000006001600160a01b031690638eaa6ac090602401602060405180830381865afa1580156117d6573d6000803e3d6000fd5b505050506040513d601f19601f820116820180604052508101906117fa9190615250565b604051634e68f20f60e11b8152600481018990526001600160a01b038a811660248301529190911690639cd1e41e90604401602060405180830381865afa158015611849573d6000803e3d6000fd5b505050506040513d601f19601f8201168201806040525081019061186d9190615363565b8411156118bc5760405162461bcd60e51b815260206004820152601a60248201527f42616e6b3a204e6f7420656e6f75676820617661696c61626c650000000000006044820152606401610701565b6040805161018081018252600080825260208201819052918101829052606081018290526080810182905260a0810182905260c0810182905260e081018290526101008101829052610120810182905261014081018290526101608101919091526001600160a01b0389811660208301526040516361e99ffb60e01b8152600481018a9052602481018990527f0000000000000000000000000000000000000000000000000000000000000000909116906361e99ffb906044016020604051808303816000875af1158015611995573d6000803e3d6000fd5b505050506040513d601f19601f820116820180604052508101906119b99190615363565b81526119c4866109be565b6001600160401b03166101208201526119dc856109be565b6001600160401b031660a08201526119f3846109be565b6001600160401b03166101008201526060810151604051635b7d0f6960e11b815260ff909116600482015273__$f7122df39a5f3bad28f404771cd5173291$__9063b6fa1ed290602401602060405180830381865af4158015611a5a573d6000803e3d6000fd5b505050506040513d601f19601f82011682018060405250810190611a7e919061522e565b15611c065760405163023aa9ab60e61b81527f3cb99135f7a7c088d9085b446345038a22a85f4e8fe072b0e1b66d97243e745860048201526000907f00000000000000000000000000000000000000000000000000000000000000006001600160a01b031690638eaa6ac090602401602060405180830381865afa158015611b0a573d6000803e3d6000fd5b505050506040513d601f19601f82011682018060405250810190611b2e9190615250565b6040516332f3077960e11b8152600481018b9052602481018a90526001600160a01b0391909116906365e60ef2906044016060604051808303816000875af1158015611b7e573d6000803e3d6000fd5b505050506040513d601f19601f82011682018060405250810190611ba2919061537c565b509150611bb09050816109be565b6001600160401b03166101608301819052600003611c045760405162461bcd60e51b8152602060048201526011602482015270145d5bdd194e88139bdd081c5d5bdd1959607a1b6044820152606401610701565b505b606081015160405163f0340a3760e01b815260ff909116600482015273__$f7122df39a5f3bad28f404771cd5173291$__9063f0340a3790602401602060405180830381865af4158015611c5e573d6000803e3d6000fd5b505050506040513d601f19601f82011682018060405250810190611c82919061522e565b15611d855760405163023aa9ab60e61b815260008051602061574883398151915260048201527f00000000000000000000000000000000000000000000000000000000000000006001600160a01b031690638eaa6ac090602401602060405180830381865afa158015611cf9573d6000803e3d6000fd5b505050506040513d601f19601f82011682018060405250810190611d1d9190615250565b6001600160a01b03166356a1fd3a88836020015130896040518563ffffffff1660e01b8152600401611d529493929190615477565b600060405180830381600087803b158015611d6c57600080fd5b505af1158015611d80573d6000803e3d6000fd5b505050505b6003805460010190555b600354158015611db2575060035460009081526005602052604090206002015415155b15611dc557600380546001019055611d8f565b6003546080820181905260a08201516001600160401b0390811660e08401526004604080850191825260ff871660608601526101008501519092166101408501526000928352600560208181529290932084518155918401516001830180546001600160a01b039092166001600160a01b031983168117825592518695909391926001600160a81b03191690911790600160a01b908490811115611e6b57611e6b614e43565b0217905550606082015160018201805460ff60a81b1916600160a81b60ff90931692909202919091179055608080830151600283015560a083015160038301805460c086015160e08701516101008801516001600160401b039586166fffffffffffffffffffffffffffffffff1994851617600160401b9387168402176fffffffffffffffffffffffffffffffff16600160801b92871683026001600160c01b031617600160c01b9187169190910217909355610120870151600496870180546101408a0151610160909a015167ffffffffffffffff60801b199388169190951617988616909202979097179690961692160217909255908201516040516304132f1d60e31b815280830192909252602482015273__$f71e59c5327218924d154e230469c101bd$__9063209978e890604401602060405180830381865af4158015611fbb573d6000803e3d6000fd5b505050506040513d601f19601f82011682018060405250810190611fdf919061522e565b50805160009081526006602052604090819020608083015191516304132f1d60e31b815273__$f71e59c5327218924d154e230469c101bd$__9263209978e89261203792909190600401918252602082015260400190565b602060405180830381865af4158015612054573d6000803e3d6000fd5b505050506040513d601f19601f82011682018060405250810190612078919061522e565b5060008881526007602052604090819020608083015191516304132f1d60e31b815273__$f71e59c5327218924d154e230469c101bd$__9263209978e8926120ce92909190600401918252602082015260400190565b602060405180830381865af41580156120eb573d6000803e3d6000fd5b505050506040513d601f19601f8201168201806040525081019061210f919061522e565b5060008781526008602052604090819020608083015191516304132f1d60e31b815273__$f71e59c5327218924d154e230469c101bd$__9263209978e89261216592909190600401918252602082015260400190565b602060405180830381865af4158015612182573d6000803e3d6000fd5b505050506040513d601f19601f820116820180604052508101906121a6919061522e565b5080516121b290613d28565b5050600354979650505050505050565b60006107576001600160401b0383166402540be4006152e0565b60405163023aa9ab60e61b81527f2e7a327ef83c2af7579c6634f2f5604519800c5f07626f27bd602fd11ed8e6ec600482015260009081906001600160a01b037f00000000000000000000000000000000000000000000000000000000000000001690638eaa6ac090602401602060405180830381865afa158015612265573d6000803e3d6000fd5b505050506040513d601f19601f820116820180604052508101906122899190615250565b604080513060248201526001600160a01b038c81166044830152606482018c9052608482018b905260a482018a905260c4820189905260e4820188905260ff8716610104808401919091528351808403909101815261012490920183526020820180516001600160e01b0316635330878160e11b17905291519290911691612311919061526d565b6000604051808303816000865af19150503d806000811461234e576040519150601f19603f3d011682016040523d82523d6000602084013e612353565b606091505b505090506123608161070c565b50979650505050505050565b60405163509ff69b60e01b81526001600160a01b038781166004830152600060248301819052916124a7918a917f00000000000000000000000000000000000000000000000000000000000000009091169063509ff69b906044016020604051808303816000875af11580156123e6573d6000803e3d6000fd5b505050506040513d601f19601f8201168201806040525081019061240a9190615363565b60405163509ff69b60e01b81526001600160a01b038a81166004830152600060248301527f0000000000000000000000000000000000000000000000000000000000000000169063509ff69b906044015b6020604051808303816000875af115801561247a573d6000803e3d6000fd5b505050506040513d601f19601f8201168201806040525081019061249e9190615363565b888888886121dc565b98975050505050505050565b60405163509ff69b60e01b81526001600160a01b038981166004830152602482018990526000916125a7918c917f00000000000000000000000000000000000000000000000000000000000000009091169063509ff69b906044015b6020604051808303816000875af115801561252e573d6000803e3d6000fd5b505050506040513d601f19601f820116820180604052508101906125529190615363565b60405163509ff69b60e01b81526001600160a01b038b81166004830152602482018b90527f0000000000000000000000000000000000000000000000000000000000000000169063509ff69b9060440161245b565b9a9950505050505050505050565b6125bd612f35565b61070a6000805461ff001916610100179055565b600061262c3360405163509ff69b60e01b81526001600160a01b038c81166004830152602482018c90527f0000000000000000000000000000000000000000000000000000000000000000169063509ff69b9060440161250f565b9998505050505050505050565b600061075763ffffffff831664e8d4a510006152e0565b612658611152565b156126755760405162461bcd60e51b815260040161070190615315565b60006005600083815260200190815260200160002090507f00000000000000000000000000000000000000000000000000000000000000006001600160a01b0316634635229b6040518163ffffffff1660e01b8152600401602060405180830381865afa1580156126ea573d6000803e3d6000fd5b505050506040513d601f19601f8201168201806040525081019061270e919061522e565b80612725575060018101546001600160a01b031633145b6127415760405162461bcd60e51b81526004016107019061542c565b61274c81600161378b565b61072281613c7d565b61275d612f35565b6001600160a01b0381166127c25760405162461bcd60e51b815260206004820152602660248201527f4f776e61626c653a206e6577206f776e657220697320746865207a65726f206160448201526564647265737360d01b6064820152608401610701565b6127cb81612f96565b50565b600061075764174876e800836152be565b6127e7614ccc565b60008381526005602081815260408084208151610180810183528154815260018201546001600160a01b0381169482019490945293909291840191600160a01b900460ff169081111561283c5761283c614e43565b600581111561284d5761284d614e43565b81526001820154600160a81b900460ff166020820152600282015460408083019190915260038301546001600160401b038082166060850152600160401b80830482166080860152600160801b808404831660a0870152600160c01b909304821660c086015260049586015480831660e087015290810482166101008601529190910416610120909201919091528251905163657c7e0960e01b8152918201529091507f00000000000000000000000000000000000000000000000000000000000000006001600160a01b03169063657c7e09906024016040805180830381865afa158015612940573d6000803e3d6000fd5b505050506040513d601f19601f82011682018060405250810190612964919061533f565b604084015260208301526080810151606083015282806129fd575060608101516040516336181b6760e11b815260ff909116600482015273__$f7122df39a5f3bad28f404771cd5173291$__90636c3036ce90602401602060405180830381865af41580156129d7573d6000803e3d6000fd5b505050506040513d601f19601f820116820180604052508101906129fb919061522e565b155b15612e725760208101516001600160a01b0316825260a0810151612a20906121c2565b60808301526060810151604051632b2076e360e11b815260ff909116600482015273__$f7122df39a5f3bad28f404771cd5173291$__90635640edc690602401602060405180830381865af4158015612a7d573d6000803e3d6000fd5b505050506040513d601f19601f82011682018060405250810190612aa1919061522e565b15612ab557608082015160a0830152612bef565b6101208101516001600160401b031615612ae157612ad78161012001516121c2565b60a0830152612bef565b60405163023aa9ab60e61b815260008051602061574883398151915260048201527f00000000000000000000000000000000000000000000000000000000000000006001600160a01b031690638eaa6ac090602401602060405180830381865afa158015612b53573d6000803e3d6000fd5b505050506040513d601f19601f82011682018060405250810190612b779190615250565b6001600160a01b031663a9bf985883602001516040518263ffffffff1660e01b8152600401612ba891815260200190565b602060405180830381865afa158015612bc5573d6000803e3d6000fd5b505050506040513d601f19601f82011682018060405250810190612be99190615363565b60a08301525b612bfc8160c001516121c2565b60c083015260e0810151612c0f906121c2565b60e08301526060810151604051635b7d0f6960e11b815260ff909116600482015273__$f7122df39a5f3bad28f404771cd5173291$__9063b6fa1ed290602401602060405180830381865af4158015612c6c573d6000803e3d6000fd5b505050506040513d601f19601f82011682018060405250810190612c90919061522e565b15612e5d57612ca38161014001516121c2565b610120830152610160810151612cb8906121c2565b61014083015260405163023aa9ab60e61b81527f3cb99135f7a7c088d9085b446345038a22a85f4e8fe072b0e1b66d97243e745860048201526000907f00000000000000000000000000000000000000000000000000000000000000006001600160a01b031690638eaa6ac090602401602060405180830381865afa158015612d45573d6000803e3d6000fd5b505050506040513d601f19601f82011682018060405250810190612d699190615250565b6001600160a01b0316636464b68a846020015185604001516040518363ffffffff1660e01b8152600401612da7929190918252602082015260400190565b606060405180830381865afa158015612dc4573d6000803e3d6000fd5b505050506040513d601f19601f82011682018060405250810190612de8919061537c565b509150506000819003612e315760405162461bcd60e51b8152602060048201526011602482015270145d5bdd194e88139bdd081c5d5bdd1959607a1b6044820152606401610701565b610140830151612e4190826152be565b836101200151612e5191906152e0565b61010084015250612e72565b612e6b8161010001516121c2565b6101008301525b604051630212d6cb60e21b815273__$f7122df39a5f3bad28f404771cd5173291$__9063084b5b2c90612ea990849060040161549c565b602060405180830381865af4158015612ec6573d6000803e3d6000fd5b505050506040513d601f19601f82011682018060405250810190612eea9190615363565b61016083015260408101516101808301906005811115612f0c57612f0c614e43565b90816005811115612f1f57612f1f614e43565b9052506060015160ff166101a082015292915050565b6000546001600160a01b036201000090910416331461070a5760405162461bcd60e51b815260206004820152601f60248201527f416c6c6f77616e63653a2063616c6c6572206d757374206265204f776e6572006044820152606401610701565b600080546001600160a01b038381166201000081810262010000600160b01b0319851617855560405193049190911692909183917f8be0079c531659141344cd1fd0a4f28419497f9722a3daafe3b4186f6b6457e091a35050565b60008080600080670de0b6b3a76400006130218a60030160189054906101000a90046001600160401b03166121c2565b61302b90886152e0565b61303591906152be565b895460405163657c7e0960e01b815291925060009182916001600160a01b037f0000000000000000000000000000000000000000000000000000000000000000169163657c7e099161308d9160040190815260200190565b6040805180830381865afa1580156130a9573d6000803e3d6000fd5b505050506040513d601f19601f820116820180604052508101906130cd919061533f565b60018d015460405163f0340a3760e01b8152600160a81b90910460ff166004820152919350915073__$f7122df39a5f3bad28f404771cd5173291$__9063f0340a3790602401602060405180830381865af4158015613130573d6000803e3d6000fd5b505050506040513d601f19601f82011682018060405250810190613154919061522e565b1561325c5760405163023aa9ab60e61b815260008051602061574883398151915260048201527f00000000000000000000000000000000000000000000000000000000000000006001600160a01b031690638eaa6ac090602401602060405180830381865afa1580156131cb573d6000803e3d6000fd5b505050506040513d601f19601f820116820180604052508101906131ef9190615250565b60018c015460405163255318af60e21b81526001600160a01b039283169263954c62bc926132299287929091169030908e90600401615477565b600060405180830381600087803b15801561324357600080fd5b505af1158015613257573d6000803e3d6000fd5b505050505b881561335c5760405163023aa9ab60e61b815260008051602061574883398151915260048201527f00000000000000000000000000000000000000000000000000000000000000006001600160a01b031690638eaa6ac090602401602060405180830381865afa1580156132d4573d6000803e3d6000fd5b505050506040513d601f19601f820116820180604052508101906132f89190615250565b6001600160a01b031663954c62bc828c30876040518563ffffffff1660e01b81526004016133299493929190615477565b600060405180830381600087803b15801561334357600080fd5b505af1158015613357573d6000803e3d6000fd5b505050505b85156134655760405163023aa9ab60e61b815260008051602061574883398151915260048201527f00000000000000000000000000000000000000000000000000000000000000006001600160a01b031690638eaa6ac090602401602060405180830381865afa1580156133d4573d6000803e3d6000fd5b505050506040513d601f19601f820116820180604052508101906133f89190615250565b60018c0154604051631c9619a760e01b81526001600160a01b0392831692631c9619a792613432928792909116908c908c90600401615477565b600060405180830381600087803b15801561344c57600080fd5b505af1158015613460573d6000803e3d6000fd5b505050505b83156135655760405163023aa9ab60e61b815260008051602061574883398151915260048201527f00000000000000000000000000000000000000000000000000000000000000006001600160a01b031690638eaa6ac090602401602060405180830381865afa1580156134dd573d6000803e3d6000fd5b505050506040513d601f19601f820116820180604052508101906135019190615250565b6001600160a01b0316631c9619a7828c88886040518563ffffffff1660e01b81526004016135329493929190615477565b600060405180830381600087803b15801561354c57600080fd5b505af1158015613560573d6000803e3d6000fd5b505050505b60405163023aa9ab60e61b815260008051602061574883398151915260048201527f00000000000000000000000000000000000000000000000000000000000000006001600160a01b031690638eaa6ac090602401602060405180830381865afa1580156135d7573d6000803e3d6000fd5b505050506040513d601f19601f820116820180604052508101906135fb9190615250565b60018c01546001600160a01b0391821691631c9619a7918591168d6136208b8e6153aa565b6040518563ffffffff1660e01b815260040161363f9493929190615477565b600060405180830381600087803b15801561365957600080fd5b505af115801561366d573d6000803e3d6000fd5b505060405163023aa9ab60e61b815260008051602061574883398151915260048201527f00000000000000000000000000000000000000000000000000000000000000006001600160a01b03169250638eaa6ac09150602401602060405180830381865afa1580156136e3573d6000803e3d6000fd5b505050506040513d601f19601f820116820180604052508101906137079190615250565b60018c01546001600160a01b0391821691631c9619a79184918e911661372d89896153aa565b6040518563ffffffff1660e01b815260040161374c9493929190615477565b600060405180830381600087803b15801561376657600080fd5b505af115801561377a573d6000803e3d6000fd5b505050505050505050505050505050565b600081600581111561379f5761379f614e43565b1180156137be575060038160058111156137bb576137bb614e43565b11155b80156137ea575060046001830154600160a01b900460ff1660058111156137e7576137e7614e43565b10155b6138365760405162461bcd60e51b815260206004820152601d60248201527f5f6f726465725465726d696e6174652073746174652070726f626c656d0000006044820152606401610701565b815460405163657c7e0960e01b8152600481019190915260009081907f00000000000000000000000000000000000000000000000000000000000000006001600160a01b03169063657c7e09906024016040805180830381865afa1580156138a2573d6000803e3d6000fd5b505050506040513d601f19601f820116820180604052508101906138c6919061533f565b600186018054929450909250849160ff60a01b1916600160a01b8360058111156138f2576138f2614e43565b0217905550600184015460405163f0340a3760e01b8152600160a81b90910460ff16600482015273__$f7122df39a5f3bad28f404771cd5173291$__9063f0340a3790602401602060405180830381865af4158015613955573d6000803e3d6000fd5b505050506040513d601f19601f82011682018060405250810190613979919061522e565b15613ab05760405163023aa9ab60e61b815260008051602061574883398151915260048201527f00000000000000000000000000000000000000000000000000000000000000006001600160a01b031690638eaa6ac090602401602060405180830381865afa1580156139f0573d6000803e3d6000fd5b505050506040513d601f19601f82011682018060405250810190613a149190615250565b600185015460038601546001600160a01b039283169263954c62bc9285929116903090613a5e9061045f906001600160401b03600160401b8204811691600160801b9004166153d9565b6040518563ffffffff1660e01b8152600401613a7d9493929190615477565b600060405180830381600087803b158015613a9757600080fd5b505af1158015613aab573d6000803e3d6000fd5b505050505b83546000908152600660205260409081902060028601549151630cef945b60e31b815273__$f71e59c5327218924d154e230469c101bd$__9263677ca2d892613b0792909190600401918252602082015260400190565b602060405180830381865af4158015613b24573d6000803e3d6000fd5b505050506040513d601f19601f82011682018060405250810190613b48919061522e565b506000828152600760205260409081902060028601549151630cef945b60e31b815273__$f71e59c5327218924d154e230469c101bd$__9263677ca2d892613b9e92909190600401918252602082015260400190565b602060405180830381865af4158015613bbb573d6000803e3d6000fd5b505050506040513d601f19601f82011682018060405250810190613bdf919061522e565b506000818152600860205260409081902060028601549151630cef945b60e31b815273__$f71e59c5327218924d154e230469c101bd$__9263677ca2d892613c3592909190600401918252602082015260400190565b602060405180830381865af4158015613c52573d6000803e3d6000fd5b505050506040513d601f19601f82011682018060405250810190613c76919061522e565b5050505050565b6002810154604051630cef945b60e31b8152600480820152602481019190915273__$f71e59c5327218924d154e230469c101bd$__9063677ca2d890604401602060405180830381865af4158015613cd9573d6000803e3d6000fd5b505050506040513d601f19601f82011682018060405250810190613cfd919061522e565b5043600090815260096020908152604082206002909301548354600181018555938352912090910155565b604051630e29a66960e21b8152600481018290526001600160a01b037f000000000000000000000000000000000000000000000000000000000000000016906338a699a490602401602060405180830381865afa158015613d8d573d6000803e3d6000fd5b505050506040513d601f19601f82011682018060405250810190613db1919061522e565b613db85750565b60405163657c7e0960e01b81526004810182905260009081906001600160a01b037f0000000000000000000000000000000000000000000000000000000000000000169063657c7e09906024016040805180830381865afa158015613e21573d6000803e3d6000fd5b505050506040513d601f19601f82011682018060405250810190613e45919061533f565b91509150613e5382846108ed565b15613e5d57505050565b6000818152600160209081526040808320805482518185028101850190935280835260609493830182828015613eb257602002820191906000526020600020905b815481526020019060010190808311613e9e575b5050505050905080516001600160401b03811115613ed257613ed261558b565b604051908082528060200260200182016040528015613f0557816020015b6060815260200190600190039081613ef05790505b5091506000805b82518110156140815760007f00000000000000000000000000000000000000000000000000000000000000006001600160a01b03166327ee9dc2858481518110613f5857613f586155a1565b60200260200101516040518263ffffffff1660e01b8152600401613f7e91815260200190565b600060405180830381865afa158015613f9b573d6000803e3d6000fd5b505050506040513d6000823e601f3d908101601f19168201604052613fc391908101906155b7565b604051639d84366d60e01b815290915073__$f71e59c5327218924d154e230469c101bd$__90639d84366d90613fff9084908b906004016156a3565b602060405180830381865af415801561401c573d6000803e3d6000fd5b505050506040513d601f19601f82011682018060405250810190614040919061522e565b61406e57808584614050816156c5565b955081518110614062576140626155a1565b60200260200101819052505b5080614079816156c5565b915050613f0c565b5082525060008381526002602090815260408083208054825181850281018501909352808352606094938301828280156140da57602002820191906000526020600020905b8154815260200190600101908083116140c6575b5050505050905080516001600160401b038111156140fa576140fa61558b565b60405190808252806020026020018201604052801561412d57816020015b60608152602001906001900390816141185790505b5091506000805b82518110156142a95760007f00000000000000000000000000000000000000000000000000000000000000006001600160a01b03166327ee9dc2858481518110614180576141806155a1565b60200260200101516040518263ffffffff1660e01b81526004016141a691815260200190565b600060405180830381865afa1580156141c3573d6000803e3d6000fd5b505050506040513d6000823e601f3d908101601f191682016040526141eb91908101906155b7565b604051639d84366d60e01b815290915073__$f71e59c5327218924d154e230469c101bd$__90639d84366d906142279084908b906004016156a3565b602060405180830381865af4158015614244573d6000803e3d6000fd5b505050506040513d601f19601f82011682018060405250810190614268919061522e565b61429657808584614278816156c5565b95508151811061428a5761428a6155a1565b60200260200101819052505b50806142a1816156c5565b915050614134565b508252506000848152600160205260409081902090516316061a7160e21b815260048101919091526024810186905273__$f71e59c5327218924d154e230469c101bd$__9063581869c490604401602060405180830381865af4158015614314573d6000803e3d6000fd5b505050506040513d601f19601f82011682018060405250810190614338919061522e565b506000838152600260205260409081902090516316061a7160e21b815260048101919091526024810186905273__$f71e59c5327218924d154e230469c101bd$__9063581869c490604401602060405180830381865af41580156143a0573d6000803e3d6000fd5b505050506040513d601f19601f820116820180604052508101906143c4919061522e565b5060005b81518110156146545760008282815181106143e5576143e56155a1565b602002602001015173__$f71e59c5327218924d154e230469c101bd$__639b861f039091876040518363ffffffff1660e01b81526004016144279291906156a3565b600060405180830381865af4158015614444573d6000803e3d6000fd5b505050506040513d6000823e601f3d908101601f1916820160405261446c91908101906155b7565b905060007f00000000000000000000000000000000000000000000000000000000000000006001600160a01b031663b3054383836040518263ffffffff1660e01b81526004016144bc91906156de565b6020604051808303816000875af11580156144db573d6000803e3d6000fd5b505050506040513d601f19601f820116820180604052508101906144ff9190615363565b90506001600083600081518110614518576145186155a1565b6020026020010151815260200190815260200160002073__$f71e59c5327218924d154e230469c101bd$__63581869c49091836040518363ffffffff1660e01b8152600401614571929190918252602082015260400190565b602060405180830381865af415801561458e573d6000803e3d6000fd5b505050506040513d601f19601f820116820180604052508101906145b2919061522e565b506000868152600260205260409081902090516316061a7160e21b815260048101919091526024810182905273__$f71e59c5327218924d154e230469c101bd$__9063581869c490604401602060405180830381865af415801561461a573d6000803e3d6000fd5b505050506040513d601f19601f8201168201806040525081019061463e919061522e565b505050808061464c906156c5565b9150506143c8565b5060005b82518110156148f6576000838281518110614675576146756155a1565b602002602001015173__$f71e59c5327218924d154e230469c101bd$__633b06e74f9091886040518363ffffffff1660e01b81526004016146b79291906156a3565b600060405180830381865af41580156146d4573d6000803e3d6000fd5b505050506040513d6000823e601f3d908101601f191682016040526146fc91908101906155b7565b905060007f00000000000000000000000000000000000000000000000000000000000000006001600160a01b031663b3054383836040518263ffffffff1660e01b815260040161474c91906156de565b6020604051808303816000875af115801561476b573d6000803e3d6000fd5b505050506040513d601f19601f8201168201806040525081019061478f9190615363565b6000888152600160205260409081902090516316061a7160e21b815291925073__$f71e59c5327218924d154e230469c101bd$__9163581869c4916147e1918590600401918252602082015260400190565b602060405180830381865af41580156147fe573d6000803e3d6000fd5b505050506040513d601f19601f82011682018060405250810190614822919061522e565b5060026000836001855161483691906153aa565b81518110614846576148466155a1565b6020026020010151815260200190815260200160002073__$f71e59c5327218924d154e230469c101bd$__63581869c49091836040518363ffffffff1660e01b815260040161489f929190918252602082015260400190565b602060405180830381865af41580156148bc573d6000803e3d6000fd5b505050506040513d601f19601f820116820180604052508101906148e0919061522e565b50505080806148ee906156c5565b915050614658565b5060005b8151811015614cc45760005b8351811015614cb1576000848281518110614923576149236155a1565b602002602001015190506000848381518110614941576149416155a1565b6020026020010151905060005b8251811015614a02578173__$f71e59c5327218924d154e230469c101bd$__639d84366d9091858481518110614986576149866155a1565b60200260200101516040518363ffffffff1660e01b81526004016149ab9291906156a3565b602060405180830381865af41580156149c8573d6000803e3d6000fd5b505050506040513d601f19601f820116820180604052508101906149ec919061522e565b614a0257806149fa816156c5565b91505061494e565b8251811015614a1357505050614c9f565b6040516302704ae960e31b815260009073__$f71e59c5327218924d154e230469c101bd$__90631382574890614a4f9087908790600401615722565b600060405180830381865af4158015614a6c573d6000803e3d6000fd5b505050506040513d6000823e601f3d908101601f19168201604052614a9491908101906155b7565b905060007f00000000000000000000000000000000000000000000000000000000000000006001600160a01b031663b3054383836040518263ffffffff1660e01b8152600401614ae491906156de565b6020604051808303816000875af1158015614b03573d6000803e3d6000fd5b505050506040513d601f19601f82011682018060405250810190614b279190615363565b90506001600083600081518110614b4057614b406155a1565b6020026020010151815260200190815260200160002073__$f71e59c5327218924d154e230469c101bd$__63581869c49091836040518363ffffffff1660e01b8152600401614b99929190918252602082015260400190565b602060405180830381865af4158015614bb6573d6000803e3d6000fd5b505050506040513d601f19601f82011682018060405250810190614bda919061522e565b50600260008360018551614bee91906153aa565b81518110614bfe57614bfe6155a1565b6020026020010151815260200190815260200160002073__$f71e59c5327218924d154e230469c101bd$__63581869c49091836040518363ffffffff1660e01b8152600401614c57929190918252602082015260400190565b602060405180830381865af4158015614c74573d6000803e3d6000fd5b505050506040513d601f19601f82011682018060405250810190614c98919061522e565b5050505050505b80614ca9816156c5565b915050614906565b5080614cbc816156c5565b9150506148fa565b505050505050565b604051806101c0016040528060006001600160a01b03168152602001600080191681526020016000801916815260200160008152602001600081526020016000815260200160008152602001600081526020016000815260200160008152602001600081526020016000815260200160006005811115614d4e57614d4e614e43565b8152600060209091015290565b60008085851115614d6b57600080fd5b83861115614d7857600080fd5b5050820193919092039150565b600060208284031215614d9757600080fd5b81356001600160e01b03198116811461097757600080fd5b6001600160a01b03811681146127cb57600080fd5b600080600080600060a08688031215614ddc57600080fd5b8535614de781614daf565b97602087013597506040870135966060810135965060800135945092505050565b60008060408385031215614e1b57600080fd5b50508035926020909101359150565b600060208284031215614e3c57600080fd5b5035919050565b634e487b7160e01b600052602160045260246000fd5b60068110614e7757634e487b7160e01b600052602160045260246000fd5b9052565b81516001600160a01b031681526101c081016020830151602083015260408301516040830152606083015160608301526080830151608083015260a083015160a083015260c083015160c083015260e083015160e083015261010080840151818401525061012080840151818401525061014080840151818401525061016080840151818401525061018080840151614f1682850182614e59565b50506101a08381015160ff8116848301525b505092915050565b600060208284031215614f4257600080fd5b813561097781614daf565b803560ff81168114614f5e57600080fd5b919050565b60008060008060008060c08789031215614f7c57600080fd5b8635955060208701359450604087013593506060870135925060808701359150614fa860a08801614f4d565b90509295509295509295565b600060208284031215614fc657600080fd5b813565ffffffffffff8116811461097757600080fd5b60008060008060808587031215614ff257600080fd5b5050823594602084013594506040840135936060013592509050565b600080600080600080600060e0888a03121561502957600080fd5b873561503481614daf565b96506020880135955060408801359450606088013593506080880135925060a0880135915061506560c08901614f4d565b905092959891949750929550565b60006020828403121561508557600080fd5b81356001600160401b038116811461097757600080fd5b600080600080600080600060e0888a0312156150b757600080fd5b87356150c281614daf565b965060208801356150d281614daf565b955060408801356150e281614daf565b9450606088013593506080880135925060a0880135915061506560c08901614f4d565b60008060008060008060008060006101208a8c03121561512457600080fd5b893561512f81614daf565b985060208a013561513f81614daf565b975060408a0135965060608a013561515681614daf565b955060808a0135945060a08a0135935060c08a0135925060e08a013591506151816101008b01614f4d565b90509295985092959850929598565b600080600080600080600080610100898b0312156151ad57600080fd5b88356151b881614daf565b97506020890135965060408901356151cf81614daf565b9550606089013594506080890135935060a0890135925060c089013591506151f960e08a01614f4d565b90509295985092959890939650565b60006020828403121561521a57600080fd5b813563ffffffff8116811461097757600080fd5b60006020828403121561524057600080fd5b8151801515811461097757600080fd5b60006020828403121561526257600080fd5b815161097781614daf565b6000825160005b8181101561528e5760208186018101518583015201615274565b8181111561529d576000828501525b509190910192915050565b634e487b7160e01b600052601160045260246000fd5b6000826152db57634e487b7160e01b600052601260045260246000fd5b500490565b60008160001904831182151516156152fa576152fa6152a8565b500290565b634e487b7160e01b600052600160045260246000fd5b60208082526010908201526f10dbdb9d1c9858dd081cdd1bdc1c195960821b604082015260600190565b6000806040838503121561535257600080fd5b505080516020909101519092909150565b60006020828403121561537557600080fd5b5051919050565b60008060006060848603121561539157600080fd5b8351925060208401519150604084015190509250925092565b6000828210156153bc576153bc6152a8565b500390565b600082198211156153d4576153d46152a8565b500190565b60006001600160401b03838116908316818110156153f9576153f96152a8565b039392505050565b60006001600160401b03808316818516808303821115615423576154236152a8565b01949350505050565b6020808252602b908201527f4d757374206265206163636f756e743d3d5f6d736753656e646572206f72204d60408201526a6f64652054657374696e6760a81b606082015260800190565b9384526001600160a01b03928316602085015291166040830152606082015260800190565b815181526020808301516101808301916154c0908401826001600160a01b03169052565b5060408301516154d36040840182614e59565b5060608301516154e8606084018260ff169052565b506080830151608083015260a083015161550d60a08401826001600160401b03169052565b5060c083015161552860c08401826001600160401b03169052565b5060e083015161554360e08401826001600160401b03169052565b50610100838101516001600160401b03908116918401919091526101208085015182169084015261014080850151821690840152610160808501519182168185015290614f28565b634e487b7160e01b600052604160045260246000fd5b634e487b7160e01b600052603260045260246000fd5b600060208083850312156155ca57600080fd5b82516001600160401b03808211156155e157600080fd5b818501915085601f8301126155f557600080fd5b8151818111156156075761560761558b565b8060051b604051601f19603f8301168101818110858211171561562c5761562c61558b565b60405291825284820192508381018501918883111561564a57600080fd5b938501935b828510156124a75784518452938501939285019261564f565b600081518084526020808501945080840160005b838110156156985781518752958201959082019060010161567c565b509495945050505050565b6040815260006156b66040830185615668565b90508260208301529392505050565b6000600182016156d7576156d76152a8565b5060010190565b6020808252825182820181905260009190848201906040850190845b81811015615716578351835292840192918401916001016156fa565b50909695505050505050565b6040815260006157356040830185615668565b82810360208401526112cf818561566856fecd775f2396f9f13f12bcf8ca32e21df66559a8adc3944d0591127e7731f7ab85a264697066735822122051dd5f9d6c2140957b857460b312da8d6a30d42cb99f1d8f94310856aed1b31d64736f6c634300080d0033",
  "language": "Solidity",
  "natspec": {
    "kind": "dev",
    "methods": {
      "ownerOf()": {
        "details": "Returns the address of the current owner."
      },
      "renounceOwnership()": {
        "details": "Leaves the contract without owner. It will not be possible to call `onlyOwner` functions anymore. Can only be called by the current owner. NOTE: Renouncing ownership will leave the contract without an owner, thereby removing any functionality that is only available to the owner."
      },
      "supportsInterface(bytes4)": {
        "details": "Returns true if this contract implements the interface defined by `interfaceId`. See the corresponding https://eips.ethereum.org/EIPS/eip-165#how-interfaces-are-identified[EIP section] to learn more about how these ids are created. This function call must use less than 30 000 gas."
      },
      "transferOwnership(address)": {
        "details": "Transfers ownership of the contract to a new account (`newOwner`). Can only be called by the current owner."
      }
    },
    "version": 1
  },
  "opcodes": "PUSH1 0x80 PUSH1 0x40 MSTORE CALLVALUE DUP1 ISZERO PUSH2 0x10 JUMPI PUSH1 0x0 DUP1 REVERT JUMPDEST POP PUSH1 0x4 CALLDATASIZE LT PUSH2 0x1E5 JUMPI PUSH1 0x0 CALLDATALOAD PUSH1 0xE0 SHR DUP1 PUSH4 0x97962076 GT PUSH2 0x10F JUMPI DUP1 PUSH4 0xC34FA842 GT PUSH2 0xA2 JUMPI DUP1 PUSH4 0xE4B16144 GT PUSH2 0x71 JUMPI DUP1 PUSH4 0xE4B16144 EQ PUSH2 0x4DF JUMPI DUP1 PUSH4 0xEDE8CDFE EQ PUSH2 0x4F2 JUMPI DUP1 PUSH4 0xF2FDE38B EQ PUSH2 0x505 JUMPI DUP1 PUSH4 0xFEAB4454 EQ PUSH2 0x518 JUMPI PUSH2 0x1E5 JUMP JUMPDEST DUP1 PUSH4 0xC34FA842 EQ PUSH2 0x48A JUMPI DUP1 PUSH4 0xCCC07959 EQ PUSH2 0x49D JUMPI DUP1 PUSH4 0xD6935858 EQ PUSH2 0x4C4 JUMPI DUP1 PUSH4 0xE2D7E08E EQ PUSH2 0x4CC JUMPI PUSH2 0x1E5 JUMP JUMPDEST DUP1 PUSH4 0xAF640D0F GT PUSH2 0xDE JUMPI DUP1 PUSH4 0xAF640D0F EQ PUSH2 0x42B JUMPI DUP1 PUSH4 0xB03FD40D EQ PUSH2 0x451 JUMPI DUP1 PUSH4 0xB23A43FC EQ PUSH2 0x464 JUMPI DUP1 PUSH4 0xB791F8A0 EQ PUSH2 0x477 JUMPI PUSH2 0x1E5 JUMP JUMPDEST DUP1 PUSH4 0x97962076 EQ PUSH2 0x3E2 JUMPI DUP1 PUSH4 0x9BC896F9 EQ PUSH2 0x3F2 JUMPI DUP1 PUSH4 0xA5EF794A EQ PUSH2 0x405 JUMPI DUP1 PUSH4 0xA6610F02 EQ PUSH2 0x418 JUMPI PUSH2 0x1E5 JUMP JUMPDEST DUP1 PUSH4 0x5C42B710 GT PUSH2 0x187 JUMPI DUP1 PUSH4 0x7A70482C GT PUSH2 0x156 JUMPI DUP1 PUSH4 0x7A70482C EQ PUSH2 0x389 JUMPI DUP1 PUSH4 0x7AF6649A EQ PUSH2 0x39C JUMPI DUP1 PUSH4 0x854BA99D EQ PUSH2 0x3AF JUMPI DUP1 PUSH4 0x8DA5CB5B EQ PUSH2 0x3B7 JUMPI PUSH2 0x1E5 JUMP JUMPDEST DUP1 PUSH4 0x5C42B710 EQ PUSH2 0x33B JUMPI DUP1 PUSH4 0x62965141 EQ PUSH2 0x34E JUMPI DUP1 PUSH4 0x715018A6 EQ PUSH2 0x379 JUMPI DUP1 PUSH4 0x72EA61BF EQ PUSH2 0x381 JUMPI PUSH2 0x1E5 JUMP JUMPDEST DUP1 PUSH4 0x1EF4590D GT PUSH2 0x1C3 JUMPI DUP1 PUSH4 0x1EF4590D EQ PUSH2 0x2B8 JUMPI DUP1 PUSH4 0x21603F43 EQ PUSH2 0x2CB JUMPI DUP1 PUSH4 0x2203616D EQ PUSH2 0x2EB JUMPI DUP1 PUSH4 0x2F54BF6E EQ PUSH2 0x313 JUMPI PUSH2 0x1E5 JUMP JUMPDEST DUP1 PUSH4 0x1FFC9A7 EQ PUSH2 0x267 JUMPI DUP1 PUSH4 0x5D6BD9C EQ PUSH2 0x28F JUMPI DUP1 PUSH4 0xAF077BF EQ PUSH2 0x297 JUMPI JUMPDEST PUSH2 0x1ED PUSH2 0x542 JUMP JUMPDEST PUSH1 0x0 PUSH2 0x1FD PUSH1 0x24 PUSH1 0x4 CALLDATASIZE DUP5 PUSH2 0x4D5B JUMP JUMPDEST DUP1 DUP1 PUSH1 0x1F ADD PUSH1 0x20 DUP1 SWAP2 DIV MUL PUSH1 0x20 ADD PUSH1 0x40 MLOAD SWAP1 DUP2 ADD PUSH1 0x40 MSTORE DUP1 SWAP4 SWAP3 SWAP2 SWAP1 DUP2 DUP2 MSTORE PUSH1 0x20 ADD DUP4 DUP4 DUP1 DUP3 DUP5 CALLDATACOPY PUSH1 0x0 SWAP3 ADD DUP3 SWAP1 MSTORE POP PUSH1 0x20 DUP6 ADD MLOAD SWAP5 SWAP6 POP SWAP3 POP POP CALLDATASIZE PUSH1 0x23 NOT DUP2 ADD SWAP2 POP PUSH1 0x1F NOT ADD PUSH1 0x4 DUP4 DUP1 CALLDATACOPY DUP2 PUSH1 0x24 PUSH1 0x4 CALLDATACOPY PUSH1 0x0 DUP1 DUP3 PUSH1 0x0 DUP8 GAS DELEGATECALL SWAP3 POP POP POP PUSH2 0x265 DUP2 PUSH2 0x70C JUMP JUMPDEST STOP JUMPDEST PUSH2 0x27A PUSH2 0x275 CALLDATASIZE PUSH1 0x4 PUSH2 0x4D85 JUMP JUMPDEST PUSH2 0x726 JUMP JUMPDEST PUSH1 0x40 MLOAD SWAP1 ISZERO ISZERO DUP2 MSTORE PUSH1 0x20 ADD JUMPDEST PUSH1 0x40 MLOAD DUP1 SWAP2 SUB SWAP1 RETURN JUMPDEST PUSH2 0x265 PUSH2 0x75D JUMP JUMPDEST PUSH2 0x2AA PUSH2 0x2A5 CALLDATASIZE PUSH1 0x4 PUSH2 0x4DC4 JUMP JUMPDEST PUSH2 0x774 JUMP JUMPDEST PUSH1 0x40 MLOAD SWAP1 DUP2 MSTORE PUSH1 0x20 ADD PUSH2 0x286 JUMP JUMPDEST PUSH2 0x27A PUSH2 0x2C6 CALLDATASIZE PUSH1 0x4 PUSH2 0x4E08 JUMP JUMPDEST PUSH2 0x8ED JUMP JUMPDEST PUSH2 0x2DE PUSH2 0x2D9 CALLDATASIZE PUSH1 0x4 PUSH2 0x4E2A JUMP JUMPDEST PUSH2 0x97E JUMP JUMPDEST PUSH1 0x40 MLOAD PUSH2 0x286 SWAP2 SWAP1 PUSH2 0x4E7B JUMP JUMPDEST PUSH2 0x2FE PUSH2 0x2F9 CALLDATASIZE PUSH1 0x4 PUSH2 0x4E2A JUMP JUMPDEST PUSH2 0x991 JUMP JUMPDEST PUSH1 0x40 MLOAD PUSH4 0xFFFFFFFF SWAP1 SWAP2 AND DUP2 MSTORE PUSH1 0x20 ADD PUSH2 0x286 JUMP JUMPDEST PUSH2 0x27A PUSH2 0x321 CALLDATASIZE PUSH1 0x4 PUSH2 0x4F30 JUMP JUMPDEST PUSH1 0x0 SLOAD PUSH3 0x10000 SWAP1 DIV PUSH1 0x1 PUSH1 0x1 PUSH1 0xA0 SHL SUB SWAP1 DUP2 AND SWAP2 AND EQ SWAP1 JUMP JUMPDEST PUSH2 0x2AA PUSH2 0x349 CALLDATASIZE PUSH1 0x4 PUSH2 0x4F63 JUMP JUMPDEST PUSH2 0x9A2 JUMP JUMPDEST PUSH2 0x361 PUSH2 0x35C CALLDATASIZE PUSH1 0x4 PUSH2 0x4E2A JUMP JUMPDEST PUSH2 0x9BE JUMP JUMPDEST PUSH1 0x40 MLOAD PUSH1 0x1 PUSH1 0x1 PUSH1 0x40 SHL SUB SWAP1 SWAP2 AND DUP2 MSTORE PUSH1 0x20 ADD PUSH2 0x286 JUMP JUMPDEST PUSH2 0x265 PUSH2 0x9F0 JUMP JUMPDEST PUSH2 0x265 PUSH2 0xA02 JUMP JUMPDEST PUSH2 0x2AA PUSH2 0x397 CALLDATASIZE PUSH1 0x4 PUSH2 0x4DC4 JUMP JUMPDEST PUSH2 0xA1C JUMP JUMPDEST PUSH2 0x2AA PUSH2 0x3AA CALLDATASIZE PUSH1 0x4 PUSH2 0x4FB4 JUMP JUMPDEST PUSH2 0x1139 JUMP JUMPDEST PUSH2 0x27A PUSH2 0x1152 JUMP JUMPDEST PUSH1 0x0 SLOAD PUSH3 0x10000 SWAP1 DIV PUSH1 0x1 PUSH1 0x1 PUSH1 0xA0 SHL SUB AND JUMPDEST PUSH1 0x40 MLOAD PUSH1 0x1 PUSH1 0x1 PUSH1 0xA0 SHL SUB SWAP1 SWAP2 AND DUP2 MSTORE PUSH1 0x20 ADD PUSH2 0x286 JUMP JUMPDEST PUSH1 0x0 SLOAD PUSH2 0x100 SWAP1 DIV PUSH1 0xFF AND PUSH2 0x27A JUMP JUMPDEST PUSH2 0x265 PUSH2 0x400 CALLDATASIZE PUSH1 0x4 PUSH2 0x4E2A JUMP JUMPDEST PUSH2 0x1170 JUMP JUMPDEST PUSH2 0x2AA PUSH2 0x413 CALLDATASIZE PUSH1 0x4 PUSH2 0x4FDC JUMP JUMPDEST PUSH2 0x12C0 JUMP JUMPDEST PUSH2 0x2AA PUSH2 0x426 CALLDATASIZE PUSH1 0x4 PUSH2 0x500E JUMP JUMPDEST PUSH2 0x12D8 JUMP JUMPDEST PUSH32 0xC79A5C5E1C7F6FAB1E75AB0E20E9522AA9EB363A0C70072C6DCB8A20F4A46AE4 PUSH2 0x2AA JUMP JUMPDEST PUSH2 0x2AA PUSH2 0x45F CALLDATASIZE PUSH1 0x4 PUSH2 0x5073 JUMP JUMPDEST PUSH2 0x21C2 JUMP JUMPDEST PUSH2 0x2AA PUSH2 0x472 CALLDATASIZE PUSH1 0x4 PUSH2 0x500E JUMP JUMPDEST PUSH2 0x21DC JUMP JUMPDEST PUSH2 0x2AA PUSH2 0x485 CALLDATASIZE PUSH1 0x4 PUSH2 0x509C JUMP JUMPDEST PUSH2 0x236C JUMP JUMPDEST PUSH2 0x2AA PUSH2 0x498 CALLDATASIZE PUSH1 0x4 PUSH2 0x5105 JUMP JUMPDEST PUSH2 0x24B3 JUMP JUMPDEST PUSH2 0x3CA PUSH32 0x0 DUP2 JUMP JUMPDEST PUSH2 0x265 PUSH2 0x25B5 JUMP JUMPDEST PUSH2 0x2AA PUSH2 0x4DA CALLDATASIZE PUSH1 0x4 PUSH2 0x5190 JUMP JUMPDEST PUSH2 0x25D1 JUMP JUMPDEST PUSH2 0x2AA PUSH2 0x4ED CALLDATASIZE PUSH1 0x4 PUSH2 0x5208 JUMP JUMPDEST PUSH2 0x2639 JUMP JUMPDEST PUSH2 0x265 PUSH2 0x500 CALLDATASIZE PUSH1 0x4 PUSH2 0x4E2A JUMP JUMPDEST PUSH2 0x2650 JUMP JUMPDEST PUSH2 0x265 PUSH2 0x513 CALLDATASIZE PUSH1 0x4 PUSH2 0x4F30 JUMP JUMPDEST PUSH2 0x2755 JUMP JUMPDEST PUSH2 0x52B PUSH2 0x526 CALLDATASIZE PUSH1 0x4 PUSH2 0x4E2A JUMP JUMPDEST PUSH2 0x27CE JUMP JUMPDEST PUSH1 0x40 MLOAD PUSH6 0xFFFFFFFFFFFF SWAP1 SWAP2 AND DUP2 MSTORE PUSH1 0x20 ADD PUSH2 0x286 JUMP JUMPDEST PUSH1 0x0 SLOAD PUSH1 0x1 PUSH1 0x1 PUSH1 0xA0 SHL SUB PUSH3 0x10000 SWAP1 SWAP2 DIV AND CALLER EQ DUP1 PUSH2 0x5F5 JUMPI POP PUSH1 0x1 PUSH1 0x1 PUSH1 0xA0 SHL SUB PUSH32 0x0 AND PUSH4 0x16279055 CALLER PUSH1 0x40 MLOAD PUSH1 0x1 PUSH1 0x1 PUSH1 0xE0 SHL SUB NOT PUSH1 0xE0 DUP5 SWAP1 SHL AND DUP2 MSTORE PUSH1 0x1 PUSH1 0x1 PUSH1 0xA0 SHL SUB SWAP1 SWAP2 AND PUSH1 0x4 DUP3 ADD MSTORE PUSH1 0x24 ADD PUSH1 0x20 PUSH1 0x40 MLOAD DUP1 DUP4 SUB DUP2 DUP7 GAS STATICCALL ISZERO DUP1 ISZERO PUSH2 0x5D1 JUMPI RETURNDATASIZE PUSH1 0x0 DUP1 RETURNDATACOPY RETURNDATASIZE PUSH1 0x0 REVERT JUMPDEST POP POP POP POP PUSH1 0x40 MLOAD RETURNDATASIZE PUSH1 0x1F NOT PUSH1 0x1F DUP3 ADD AND DUP3 ADD DUP1 PUSH1 0x40 MSTORE POP DUP2 ADD SWAP1 PUSH2 0x5F5 SWAP2 SWAP1 PUSH2 0x522E JUMP JUMPDEST DUP1 PUSH2 0x693 JUMPI POP PUSH1 0x1 PUSH1 0x1 PUSH1 0xA0 SHL SUB PUSH32 0x0 AND PUSH4 0x6D70F7AE CALLER PUSH1 0x40 MLOAD PUSH1 0x1 PUSH1 0x1 PUSH1 0xE0 SHL SUB NOT PUSH1 0xE0 DUP5 SWAP1 SHL AND DUP2 MSTORE PUSH1 0x1 PUSH1 0x1 PUSH1 0xA0 SHL SUB SWAP1 SWAP2 AND PUSH1 0x4 DUP3 ADD MSTORE PUSH1 0x24 ADD PUSH1 0x20 PUSH1 0x40 MLOAD DUP1 DUP4 SUB DUP2 DUP7 GAS STATICCALL ISZERO DUP1 ISZERO PUSH2 0x66F JUMPI RETURNDATASIZE PUSH1 0x0 DUP1 RETURNDATACOPY RETURNDATASIZE PUSH1 0x0 REVERT JUMPDEST POP POP POP POP PUSH1 0x40 MLOAD RETURNDATASIZE PUSH1 0x1F NOT PUSH1 0x1F DUP3 ADD AND DUP3 ADD DUP1 PUSH1 0x40 MSTORE POP DUP2 ADD SWAP1 PUSH2 0x693 SWAP2 SWAP1 PUSH2 0x522E JUMP JUMPDEST PUSH2 0x70A JUMPI PUSH1 0x40 MLOAD PUSH3 0x461BCD PUSH1 0xE5 SHL DUP2 MSTORE PUSH1 0x20 PUSH1 0x4 DUP3 ADD MSTORE PUSH1 0x39 PUSH1 0x24 DUP3 ADD MSTORE PUSH32 0x416C6C6F77616E63653A2063616C6C6572206D757374206265205265706F7369 PUSH1 0x44 DUP3 ADD MSTORE PUSH32 0x746F727920436F6E7472616374206F72204F70657261746F7200000000000000 PUSH1 0x64 DUP3 ADD MSTORE PUSH1 0x84 ADD JUMPDEST PUSH1 0x40 MLOAD DUP1 SWAP2 SUB SWAP1 REVERT JUMPDEST JUMP JUMPDEST RETURNDATASIZE PUSH1 0x0 DUP1 RETURNDATACOPY DUP1 DUP1 ISZERO PUSH2 0x71D JUMPI RETURNDATASIZE PUSH1 0x0 RETURN JUMPDEST RETURNDATASIZE PUSH1 0x0 REVERT JUMPDEST POP POP JUMP JUMPDEST PUSH1 0x0 PUSH1 0x1 PUSH1 0x1 PUSH1 0xE0 SHL SUB NOT DUP3 AND PUSH4 0x1FFC9A7 PUSH1 0xE0 SHL EQ DUP1 PUSH2 0x757 JUMPI POP PUSH1 0x1 PUSH1 0x1 PUSH1 0xE0 SHL SUB NOT DUP3 AND PUSH4 0x15D37895 PUSH1 0xE3 SHL EQ JUMPDEST SWAP3 SWAP2 POP POP JUMP JUMPDEST PUSH2 0x765 PUSH2 0x542 JUMP JUMPDEST PUSH2 0x70A PUSH1 0x0 DUP1 SLOAD PUSH1 0xFF NOT AND SWAP1 SSTORE JUMP JUMPDEST PUSH1 0x40 MLOAD PUSH4 0x23AA9AB PUSH1 0xE6 SHL DUP2 MSTORE PUSH32 0x2E7A327EF83C2AF7579C6634F2F5604519800C5F07626F27BD602FD11ED8E6EC PUSH1 0x4 DUP3 ADD MSTORE PUSH1 0x0 SWAP1 DUP2 SWAP1 PUSH1 0x1 PUSH1 0x1 PUSH1 0xA0 SHL SUB PUSH32 0x0 AND SWAP1 PUSH4 0x8EAA6AC0 SWAP1 PUSH1 0x24 ADD PUSH1 0x20 PUSH1 0x40 MLOAD DUP1 DUP4 SUB DUP2 DUP7 GAS STATICCALL ISZERO DUP1 ISZERO PUSH2 0x7FD JUMPI RETURNDATASIZE PUSH1 0x0 DUP1 RETURNDATACOPY RETURNDATASIZE PUSH1 0x0 REVERT JUMPDEST POP POP POP POP PUSH1 0x40 MLOAD RETURNDATASIZE PUSH1 0x1F NOT PUSH1 0x1F DUP3 ADD AND DUP3 ADD DUP1 PUSH1 0x40 MSTORE POP DUP2 ADD SWAP1 PUSH2 0x821 SWAP2 SWAP1 PUSH2 0x5250 JUMP JUMPDEST PUSH1 0x40 DUP1 MLOAD ADDRESS PUSH1 0x24 DUP3 ADD MSTORE PUSH1 0x1 PUSH1 0x1 PUSH1 0xA0 SHL SUB DUP11 DUP2 AND PUSH1 0x44 DUP4 ADD MSTORE PUSH1 0x64 DUP3 ADD DUP11 SWAP1 MSTORE PUSH1 0x84 DUP3 ADD DUP10 SWAP1 MSTORE PUSH1 0xA4 DUP3 ADD DUP9 SWAP1 MSTORE PUSH1 0xC4 DUP1 DUP4 ADD DUP9 SWAP1 MSTORE DUP4 MLOAD DUP1 DUP5 SUB SWAP1 SWAP2 ADD DUP2 MSTORE PUSH1 0xE4 SWAP1 SWAP3 ADD DUP4 MSTORE PUSH1 0x20 DUP3 ADD DUP1 MLOAD PUSH1 0x1 PUSH1 0x1 PUSH1 0xE0 SHL SUB AND PUSH4 0x1DE754D PUSH1 0xE6 SHL OR SWAP1 MSTORE SWAP2 MLOAD SWAP3 SWAP1 SWAP2 AND SWAP2 PUSH2 0x894 SWAP2 SWAP1 PUSH2 0x526D JUMP JUMPDEST PUSH1 0x0 PUSH1 0x40 MLOAD DUP1 DUP4 SUB DUP2 PUSH1 0x0 DUP7 GAS CALL SWAP2 POP POP RETURNDATASIZE DUP1 PUSH1 0x0 DUP2 EQ PUSH2 0x8D1 JUMPI PUSH1 0x40 MLOAD SWAP2 POP PUSH1 0x1F NOT PUSH1 0x3F RETURNDATASIZE ADD AND DUP3 ADD PUSH1 0x40 MSTORE RETURNDATASIZE DUP3 MSTORE RETURNDATASIZE PUSH1 0x0 PUSH1 0x20 DUP5 ADD RETURNDATACOPY PUSH2 0x8D6 JUMP JUMPDEST PUSH1 0x60 SWAP2 POP JUMPDEST POP POP SWAP1 POP PUSH2 0x8E3 DUP2 PUSH2 0x70C JUMP JUMPDEST POP SWAP6 SWAP5 POP POP POP POP POP JUMP JUMPDEST PUSH1 0x0 DUP3 DUP2 MSTORE PUSH1 0x1 PUSH1 0x20 MSTORE PUSH1 0x40 DUP1 DUP3 KECCAK256 SWAP1 MLOAD PUSH4 0x2BE5DB23 PUSH1 0xE1 SHL DUP2 MSTORE PUSH1 0x4 DUP2 ADD SWAP2 SWAP1 SWAP2 MSTORE PUSH1 0x24 DUP2 ADD DUP4 SWAP1 MSTORE PUSH20 0x0 SWAP1 PUSH4 0x57CBB646 SWAP1 PUSH1 0x44 ADD PUSH1 0x20 PUSH1 0x40 MLOAD DUP1 DUP4 SUB DUP2 DUP7 GAS DELEGATECALL ISZERO DUP1 ISZERO PUSH2 0x953 JUMPI RETURNDATASIZE PUSH1 0x0 DUP1 RETURNDATACOPY RETURNDATASIZE PUSH1 0x0 REVERT JUMPDEST POP POP POP POP PUSH1 0x40 MLOAD RETURNDATASIZE PUSH1 0x1F NOT PUSH1 0x1F DUP3 ADD AND DUP3 ADD DUP1 PUSH1 0x40 MSTORE POP DUP2 ADD SWAP1 PUSH2 0x977 SWAP2 SWAP1 PUSH2 0x522E JUMP JUMPDEST SWAP4 SWAP3 POP POP POP JUMP JUMPDEST PUSH2 0x986 PUSH2 0x4CCC JUMP JUMPDEST PUSH2 0x757 DUP3 PUSH1 0x0 PUSH2 0x27DF JUMP JUMPDEST PUSH1 0x0 PUSH2 0x757 PUSH5 0xE8D4A51000 DUP4 PUSH2 0x52BE JUMP JUMPDEST PUSH1 0x0 PUSH2 0x9B3 CALLER DUP9 DUP9 DUP9 DUP9 DUP9 DUP9 PUSH2 0x21DC JUMP JUMPDEST SWAP8 SWAP7 POP POP POP POP POP POP POP JUMP JUMPDEST PUSH1 0x0 DUP1 PUSH2 0x9D0 PUSH5 0x2540BE400 DUP5 PUSH2 0x52BE JUMP JUMPDEST SWAP1 POP DUP3 PUSH2 0x9E2 DUP3 PUSH5 0x2540BE400 PUSH2 0x52E0 JUMP JUMPDEST GT ISZERO PUSH2 0x757 JUMPI PUSH2 0x757 PUSH2 0x52FF JUMP JUMPDEST PUSH2 0x9F8 PUSH2 0x2F35 JUMP JUMPDEST PUSH2 0x70A PUSH1 0x0 PUSH2 0x2F96 JUMP JUMPDEST PUSH2 0xA0A PUSH2 0x542 JUMP JUMPDEST PUSH2 0x70A PUSH1 0x0 DUP1 SLOAD PUSH1 0xFF NOT AND PUSH1 0x1 OR SWAP1 SSTORE JUMP JUMPDEST PUSH1 0x0 PUSH2 0xA26 PUSH2 0x1152 JUMP JUMPDEST ISZERO PUSH2 0xA43 JUMPI PUSH1 0x40 MLOAD PUSH3 0x461BCD PUSH1 0xE5 SHL DUP2 MSTORE PUSH1 0x4 ADD PUSH2 0x701 SWAP1 PUSH2 0x5315 JUMP JUMPDEST PUSH32 0x0 PUSH1 0x1 PUSH1 0x1 PUSH1 0xA0 SHL SUB AND PUSH4 0x4635229B PUSH1 0x40 MLOAD DUP2 PUSH4 0xFFFFFFFF AND PUSH1 0xE0 SHL DUP2 MSTORE PUSH1 0x4 ADD PUSH1 0x20 PUSH1 0x40 MLOAD DUP1 DUP4 SUB DUP2 DUP7 GAS STATICCALL ISZERO DUP1 ISZERO PUSH2 0xAA1 JUMPI RETURNDATASIZE PUSH1 0x0 DUP1 RETURNDATACOPY RETURNDATASIZE PUSH1 0x0 REVERT JUMPDEST POP POP POP POP PUSH1 0x40 MLOAD RETURNDATASIZE PUSH1 0x1F NOT PUSH1 0x1F DUP3 ADD AND DUP3 ADD DUP1 PUSH1 0x40 MSTORE POP DUP2 ADD SWAP1 PUSH2 0xAC5 SWAP2 SWAP1 PUSH2 0x522E JUMP JUMPDEST DUP1 PUSH2 0xAD8 JUMPI POP PUSH1 0x1 PUSH1 0x1 PUSH1 0xA0 SHL SUB DUP7 AND CALLER EQ JUMPDEST PUSH2 0xB3A JUMPI PUSH1 0x40 MLOAD PUSH3 0x461BCD PUSH1 0xE5 SHL DUP2 MSTORE PUSH1 0x20 PUSH1 0x4 DUP3 ADD MSTORE PUSH1 0x2D PUSH1 0x24 DUP3 ADD MSTORE PUSH32 0x4D757374206265206163636F756E743D3D5F6D736753656E6465722829206F72 PUSH1 0x44 DUP3 ADD MSTORE PUSH13 0x204D6F64652054657374696E67 PUSH1 0x98 SHL PUSH1 0x64 DUP3 ADD MSTORE PUSH1 0x84 ADD PUSH2 0x701 JUMP JUMPDEST PUSH1 0x0 DUP6 DUP2 MSTORE PUSH1 0x5 PUSH1 0x20 MSTORE PUSH1 0x40 DUP1 DUP3 KECCAK256 DUP1 SLOAD SWAP2 MLOAD PUSH4 0x657C7E09 PUSH1 0xE0 SHL DUP2 MSTORE PUSH1 0x4 DUP2 ADD SWAP3 SWAP1 SWAP3 MSTORE SWAP2 SWAP1 DUP2 SWAP1 PUSH32 0x0 PUSH1 0x1 PUSH1 0x1 PUSH1 0xA0 SHL SUB AND SWAP1 PUSH4 0x657C7E09 SWAP1 PUSH1 0x24 ADD PUSH1 0x40 DUP1 MLOAD DUP1 DUP4 SUB DUP2 DUP7 GAS STATICCALL ISZERO DUP1 ISZERO PUSH2 0xBB3 JUMPI RETURNDATASIZE PUSH1 0x0 DUP1 RETURNDATACOPY RETURNDATASIZE PUSH1 0x0 REVERT JUMPDEST POP POP POP POP PUSH1 0x40 MLOAD RETURNDATASIZE PUSH1 0x1F NOT PUSH1 0x1F DUP3 ADD AND DUP3 ADD DUP1 PUSH1 0x40 MSTORE POP DUP2 ADD SWAP1 PUSH2 0xBD7 SWAP2 SWAP1 PUSH2 0x533F JUMP JUMPDEST PUSH1 0x40 MLOAD PUSH4 0x23AA9AB PUSH1 0xE6 SHL DUP2 MSTORE PUSH1 0x0 DUP1 MLOAD PUSH1 0x20 PUSH2 0x5748 DUP4 CODECOPY DUP2 MLOAD SWAP2 MSTORE PUSH1 0x4 DUP3 ADD MSTORE SWAP2 SWAP4 POP SWAP2 POP PUSH32 0x0 PUSH1 0x1 PUSH1 0x1 PUSH1 0xA0 SHL SUB AND SWAP1 PUSH4 0x8EAA6AC0 SWAP1 PUSH1 0x24 ADD PUSH1 0x20 PUSH1 0x40 MLOAD DUP1 DUP4 SUB DUP2 DUP7 GAS STATICCALL ISZERO DUP1 ISZERO PUSH2 0xC4E JUMPI RETURNDATASIZE PUSH1 0x0 DUP1 RETURNDATACOPY RETURNDATASIZE PUSH1 0x0 REVERT JUMPDEST POP POP POP POP PUSH1 0x40 MLOAD RETURNDATASIZE PUSH1 0x1F NOT PUSH1 0x1F DUP3 ADD AND DUP3 ADD DUP1 PUSH1 0x40 MSTORE POP DUP2 ADD SWAP1 PUSH2 0xC72 SWAP2 SWAP1 PUSH2 0x5250 JUMP JUMPDEST PUSH1 0x40 MLOAD PUSH4 0x4E68F20F PUSH1 0xE1 SHL DUP2 MSTORE PUSH1 0x4 DUP2 ADD DUP4 SWAP1 MSTORE PUSH1 0x1 PUSH1 0x1 PUSH1 0xA0 SHL SUB DUP12 DUP2 AND PUSH1 0x24 DUP4 ADD MSTORE SWAP2 SWAP1 SWAP2 AND SWAP1 PUSH4 0x9CD1E41E SWAP1 PUSH1 0x44 ADD PUSH1 0x20 PUSH1 0x40 MLOAD DUP1 DUP4 SUB DUP2 DUP7 GAS STATICCALL ISZERO DUP1 ISZERO PUSH2 0xCC1 JUMPI RETURNDATASIZE PUSH1 0x0 DUP1 RETURNDATACOPY RETURNDATASIZE PUSH1 0x0 REVERT JUMPDEST POP POP POP POP PUSH1 0x40 MLOAD RETURNDATASIZE PUSH1 0x1F NOT PUSH1 0x1F DUP3 ADD AND DUP3 ADD DUP1 PUSH1 0x40 MSTORE POP DUP2 ADD SWAP1 PUSH2 0xCE5 SWAP2 SWAP1 PUSH2 0x5363 JUMP JUMPDEST PUSH8 0xDE0B6B3A7640000 PUSH2 0xCF8 DUP9 DUP11 PUSH2 0x52E0 JUMP JUMPDEST PUSH2 0xD02 SWAP2 SWAP1 PUSH2 0x52BE JUMP JUMPDEST GT ISZERO PUSH2 0xD50 JUMPI PUSH1 0x40 MLOAD PUSH3 0x461BCD PUSH1 0xE5 SHL DUP2 MSTORE PUSH1 0x20 PUSH1 0x4 DUP3 ADD MSTORE PUSH1 0x1A PUSH1 0x24 DUP3 ADD MSTORE PUSH32 0x42616E6B3A204E6F7420656E6F75676820617661696C61626C65000000000000 PUSH1 0x44 DUP3 ADD MSTORE PUSH1 0x64 ADD PUSH2 0x701 JUMP JUMPDEST PUSH1 0x1 DUP4 ADD SLOAD PUSH1 0x40 MLOAD PUSH4 0x5B7D0F69 PUSH1 0xE1 SHL DUP2 MSTORE PUSH1 0x1 PUSH1 0xA8 SHL SWAP1 SWAP2 DIV PUSH1 0xFF AND PUSH1 0x4 DUP3 ADD MSTORE PUSH1 0x0 SWAP1 PUSH20 0x0 SWAP1 PUSH4 0xB6FA1ED2 SWAP1 PUSH1 0x24 ADD PUSH1 0x20 PUSH1 0x40 MLOAD DUP1 DUP4 SUB DUP2 DUP7 GAS DELEGATECALL ISZERO DUP1 ISZERO PUSH2 0xDB1 JUMPI RETURNDATASIZE PUSH1 0x0 DUP1 RETURNDATACOPY RETURNDATASIZE PUSH1 0x0 REVERT JUMPDEST POP POP POP POP PUSH1 0x40 MLOAD RETURNDATASIZE PUSH1 0x1F NOT PUSH1 0x1F DUP3 ADD AND DUP3 ADD DUP1 PUSH1 0x40 MSTORE POP DUP2 ADD SWAP1 PUSH2 0xDD5 SWAP2 SWAP1 PUSH2 0x522E JUMP JUMPDEST ISZERO PUSH2 0xF00 JUMPI PUSH1 0x40 MLOAD PUSH4 0x23AA9AB PUSH1 0xE6 SHL DUP2 MSTORE PUSH32 0x3CB99135F7A7C088D9085B446345038A22A85F4E8FE072B0E1B66D97243E7458 PUSH1 0x4 DUP3 ADD MSTORE PUSH32 0x0 PUSH1 0x1 PUSH1 0x1 PUSH1 0xA0 SHL SUB AND SWAP1 PUSH4 0x8EAA6AC0 SWAP1 PUSH1 0x24 ADD PUSH1 0x20 PUSH1 0x40 MLOAD DUP1 DUP4 SUB DUP2 DUP7 GAS STATICCALL ISZERO DUP1 ISZERO PUSH2 0xE5E JUMPI RETURNDATASIZE PUSH1 0x0 DUP1 RETURNDATACOPY RETURNDATASIZE PUSH1 0x0 REVERT JUMPDEST POP POP POP POP PUSH1 0x40 MLOAD RETURNDATASIZE PUSH1 0x1F NOT PUSH1 0x1F DUP3 ADD AND DUP3 ADD DUP1 PUSH1 0x40 MSTORE POP DUP2 ADD SWAP1 PUSH2 0xE82 SWAP2 SWAP1 PUSH2 0x5250 JUMP JUMPDEST PUSH1 0x40 MLOAD PUSH4 0x32F30779 PUSH1 0xE1 SHL DUP2 MSTORE PUSH1 0x4 DUP2 ADD DUP6 SWAP1 MSTORE PUSH1 0x24 DUP2 ADD DUP5 SWAP1 MSTORE PUSH1 0x1 PUSH1 0x1 PUSH1 0xA0 SHL SUB SWAP2 SWAP1 SWAP2 AND SWAP1 PUSH4 0x65E60EF2 SWAP1 PUSH1 0x44 ADD PUSH1 0x60 PUSH1 0x40 MLOAD DUP1 DUP4 SUB DUP2 PUSH1 0x0 DUP8 GAS CALL ISZERO DUP1 ISZERO PUSH2 0xED2 JUMPI RETURNDATASIZE PUSH1 0x0 DUP1 RETURNDATACOPY RETURNDATASIZE PUSH1 0x0 REVERT JUMPDEST POP POP POP POP PUSH1 0x40 MLOAD RETURNDATASIZE PUSH1 0x1F NOT PUSH1 0x1F DUP3 ADD AND DUP3 ADD DUP1 PUSH1 0x40 MSTORE POP DUP2 ADD SWAP1 PUSH2 0xEF6 SWAP2 SWAP1 PUSH2 0x537C JUMP JUMPDEST POP SWAP2 POP PUSH2 0xF21 SWAP1 POP JUMP JUMPDEST PUSH1 0x3 DUP5 ADD SLOAD PUSH2 0xF1E SWAP1 PUSH1 0x1 PUSH1 0xC0 SHL SWAP1 DIV PUSH1 0x1 PUSH1 0x1 PUSH1 0x40 SHL SUB AND PUSH2 0x21C2 JUMP JUMPDEST SWAP1 POP JUMPDEST PUSH8 0xDE0B6B3A7640000 PUSH2 0xF34 DUP8 DUP3 PUSH2 0x53AA JUMP JUMPDEST PUSH2 0xF3E SWAP1 DUP10 PUSH2 0x52E0 JUMP JUMPDEST PUSH2 0xF48 SWAP2 SWAP1 PUSH2 0x52BE JUMP JUMPDEST DUP2 GT ISZERO DUP1 ISZERO PUSH2 0xF7D JUMPI POP PUSH8 0xDE0B6B3A7640000 PUSH2 0xF65 DUP8 DUP3 PUSH2 0x53C1 JUMP JUMPDEST PUSH2 0xF6F SWAP1 DUP10 PUSH2 0x52E0 JUMP JUMPDEST PUSH2 0xF79 SWAP2 SWAP1 PUSH2 0x52BE JUMP JUMPDEST DUP2 LT ISZERO JUMPDEST PUSH2 0xFC9 JUMPI PUSH1 0x40 MLOAD PUSH3 0x461BCD PUSH1 0xE5 SHL DUP2 MSTORE PUSH1 0x20 PUSH1 0x4 DUP3 ADD MSTORE PUSH1 0x1C PUSH1 0x24 DUP3 ADD MSTORE PUSH32 0x51756F746520536C6970706564206F76657220746F6C6572616E636500000000 PUSH1 0x44 DUP3 ADD MSTORE PUSH1 0x64 ADD PUSH2 0x701 JUMP JUMPDEST PUSH1 0x0 DUP2 PUSH2 0xFD6 DUP10 DUP12 PUSH2 0x52E0 JUMP JUMPDEST PUSH2 0xFE0 SWAP2 SWAP1 PUSH2 0x52BE JUMP JUMPDEST PUSH1 0x3 DUP7 ADD SLOAD SWAP1 SWAP2 POP PUSH1 0x0 SWAP1 PUSH2 0x100B SWAP1 PUSH2 0x45F SWAP1 PUSH1 0x1 PUSH1 0x1 PUSH1 0x40 SHL SUB PUSH1 0x1 PUSH1 0x40 SHL DUP3 DIV DUP2 AND SWAP2 AND PUSH2 0x53D9 JUMP JUMPDEST SWAP1 POP DUP2 DUP2 LT ISZERO PUSH2 0x1019 JUMPI DUP1 SWAP2 POP JUMPDEST PUSH2 0x1026 DUP7 DUP14 PUSH1 0x0 DUP14 PUSH2 0x2FF1 JUMP JUMPDEST PUSH2 0x102F DUP11 PUSH2 0x9BE JUMP JUMPDEST PUSH1 0x3 DUP8 ADD DUP1 SLOAD PUSH1 0x8 SWAP1 PUSH2 0x1053 SWAP1 DUP5 SWAP1 PUSH1 0x1 PUSH1 0x40 SHL SWAP1 DIV PUSH1 0x1 PUSH1 0x1 PUSH1 0x40 SHL SUB AND PUSH2 0x5401 JUMP JUMPDEST DUP3 SLOAD PUSH2 0x100 SWAP3 SWAP1 SWAP3 EXP PUSH1 0x1 PUSH1 0x1 PUSH1 0x40 SHL SUB DUP2 DUP2 MUL NOT SWAP1 SWAP4 AND SWAP2 DUP4 AND MUL OR SWAP1 SWAP2 SSTORE PUSH1 0x3 DUP9 ADD SLOAD PUSH1 0x1 PUSH1 0x80 SHL DUP2 DIV DUP3 AND PUSH1 0x1 PUSH1 0x40 SHL SWAP1 SWAP2 DIV SWAP1 SWAP2 AND SUB SWAP1 POP PUSH2 0x109E JUMPI PUSH2 0x109E DUP7 PUSH1 0x3 PUSH2 0x378B JUMP JUMPDEST PUSH1 0x1 DUP7 ADD SLOAD PUSH1 0x40 DUP1 MLOAD PUSH1 0x1 PUSH1 0x1 PUSH1 0xA0 SHL SUB SWAP3 DUP4 AND DUP2 MSTORE SWAP2 DUP15 AND PUSH1 0x20 DUP4 ADD MSTORE DUP2 ADD DUP5 SWAP1 MSTORE PUSH1 0x60 DUP2 ADD DUP4 SWAP1 MSTORE DUP5 SWAP1 DUP7 SWAP1 PUSH32 0x49DA6C773C11F8E65FD2FFB9512FA3F24DC8759FBCEDB687F0B59694ADC1D343 SWAP1 PUSH1 0x80 ADD PUSH1 0x40 MLOAD DUP1 SWAP2 SUB SWAP1 LOG3 PUSH1 0x3 PUSH1 0x1 DUP8 ADD SLOAD PUSH1 0x1 PUSH1 0xA0 SHL SWAP1 DIV PUSH1 0xFF AND PUSH1 0x5 DUP2 GT ISZERO PUSH2 0x111B JUMPI PUSH2 0x111B PUSH2 0x4E43 JUMP JUMPDEST GT PUSH2 0x1129 JUMPI PUSH2 0x1129 DUP7 PUSH2 0x3C7D JUMP JUMPDEST POP SWAP8 SWAP11 SWAP10 POP POP POP POP POP POP POP POP POP POP JUMP JUMPDEST PUSH1 0x0 PUSH2 0x757 PUSH6 0xFFFFFFFFFFFF DUP4 AND PUSH5 0x174876E800 PUSH2 0x52E0 JUMP JUMPDEST PUSH1 0x0 DUP1 SLOAD PUSH1 0xFF AND DUP1 PUSH2 0x116B JUMPI POP PUSH1 0x0 SLOAD PUSH2 0x100 SWAP1 DIV PUSH1 0xFF AND JUMPDEST SWAP1 POP SWAP1 JUMP JUMPDEST PUSH1 0x40 MLOAD PUSH4 0x23AA9AB PUSH1 0xE6 SHL DUP2 MSTORE PUSH32 0x2E7A327EF83C2AF7579C6634F2F5604519800C5F07626F27BD602FD11ED8E6EC PUSH1 0x4 DUP3 ADD MSTORE PUSH1 0x0 SWAP1 PUSH32 0x0 PUSH1 0x1 PUSH1 0x1 PUSH1 0xA0 SHL SUB AND SWAP1 PUSH4 0x8EAA6AC0 SWAP1 PUSH1 0x24 ADD PUSH1 0x20 PUSH1 0x40 MLOAD DUP1 DUP4 SUB DUP2 DUP7 GAS STATICCALL ISZERO DUP1 ISZERO PUSH2 0x11F7 JUMPI RETURNDATASIZE PUSH1 0x0 DUP1 RETURNDATACOPY RETURNDATASIZE PUSH1 0x0 REVERT JUMPDEST POP POP POP POP PUSH1 0x40 MLOAD RETURNDATASIZE PUSH1 0x1F NOT PUSH1 0x1F DUP3 ADD AND DUP3 ADD DUP1 PUSH1 0x40 MSTORE POP DUP2 ADD SWAP1 PUSH2 0x121B SWAP2 SWAP1 PUSH2 0x5250 JUMP JUMPDEST PUSH1 0x40 DUP1 MLOAD ADDRESS PUSH1 0x24 DUP3 ADD MSTORE PUSH1 0x44 DUP1 DUP3 ADD DUP7 SWAP1 MSTORE DUP3 MLOAD DUP1 DUP4 SUB SWAP1 SWAP2 ADD DUP2 MSTORE PUSH1 0x64 SWAP1 SWAP2 ADD DUP3 MSTORE PUSH1 0x20 DUP2 ADD DUP1 MLOAD PUSH1 0x1 PUSH1 0x1 PUSH1 0xE0 SHL SUB AND PUSH4 0x76F466FF PUSH1 0xE1 SHL OR SWAP1 MSTORE SWAP1 MLOAD PUSH1 0x1 PUSH1 0x1 PUSH1 0xA0 SHL SUB SWAP3 SWAP1 SWAP3 AND SWAP2 PUSH2 0x1271 SWAP2 SWAP1 PUSH2 0x526D JUMP JUMPDEST PUSH1 0x0 PUSH1 0x40 MLOAD DUP1 DUP4 SUB DUP2 PUSH1 0x0 DUP7 GAS CALL SWAP2 POP POP RETURNDATASIZE DUP1 PUSH1 0x0 DUP2 EQ PUSH2 0x12AE JUMPI PUSH1 0x40 MLOAD SWAP2 POP PUSH1 0x1F NOT PUSH1 0x3F RETURNDATASIZE ADD AND DUP3 ADD PUSH1 0x40 MSTORE RETURNDATASIZE DUP3 MSTORE RETURNDATASIZE PUSH1 0x0 PUSH1 0x20 DUP5 ADD RETURNDATACOPY PUSH2 0x12B3 JUMP JUMPDEST PUSH1 0x60 SWAP2 POP JUMPDEST POP POP SWAP1 POP PUSH2 0x722 DUP2 PUSH2 0x70C JUMP JUMPDEST PUSH1 0x0 PUSH2 0x12CF CALLER DUP7 DUP7 DUP7 DUP7 PUSH2 0x774 JUMP JUMPDEST SWAP6 SWAP5 POP POP POP POP POP JUMP JUMPDEST PUSH1 0x0 PUSH2 0x12E2 PUSH2 0x1152 JUMP JUMPDEST ISZERO PUSH2 0x12FF JUMPI PUSH1 0x40 MLOAD PUSH3 0x461BCD PUSH1 0xE5 SHL DUP2 MSTORE PUSH1 0x4 ADD PUSH2 0x701 SWAP1 PUSH2 0x5315 JUMP JUMPDEST PUSH32 0x0 PUSH1 0x1 PUSH1 0x1 PUSH1 0xA0 SHL SUB AND PUSH4 0x4635229B PUSH1 0x40 MLOAD DUP2 PUSH4 0xFFFFFFFF AND PUSH1 0xE0 SHL DUP2 MSTORE PUSH1 0x4 ADD PUSH1 0x20 PUSH1 0x40 MLOAD DUP1 DUP4 SUB DUP2 DUP7 GAS STATICCALL ISZERO DUP1 ISZERO PUSH2 0x135D JUMPI RETURNDATASIZE PUSH1 0x0 DUP1 RETURNDATACOPY RETURNDATASIZE PUSH1 0x0 REVERT JUMPDEST POP POP POP POP PUSH1 0x40 MLOAD RETURNDATASIZE PUSH1 0x1F NOT PUSH1 0x1F DUP3 ADD AND DUP3 ADD DUP1 PUSH1 0x40 MSTORE POP DUP2 ADD SWAP1 PUSH2 0x1381 SWAP2 SWAP1 PUSH2 0x522E JUMP JUMPDEST DUP1 PUSH2 0x1394 JUMPI POP PUSH1 0x1 PUSH1 0x1 PUSH1 0xA0 SHL SUB DUP9 AND CALLER EQ JUMPDEST PUSH2 0x13B0 JUMPI PUSH1 0x40 MLOAD PUSH3 0x461BCD PUSH1 0xE5 SHL DUP2 MSTORE PUSH1 0x4 ADD PUSH2 0x701 SWAP1 PUSH2 0x542C JUMP JUMPDEST PUSH1 0x40 MLOAD PUSH4 0xC5537EB7 PUSH1 0xE0 SHL DUP2 MSTORE PUSH1 0x4 DUP2 ADD DUP9 SWAP1 MSTORE PUSH2 0x800 PUSH1 0x24 DUP3 ADD MSTORE PUSH32 0x0 PUSH1 0x1 PUSH1 0x1 PUSH1 0xA0 SHL SUB AND SWAP1 PUSH4 0xC5537EB7 SWAP1 PUSH1 0x44 ADD PUSH1 0x20 PUSH1 0x40 MLOAD DUP1 DUP4 SUB DUP2 DUP7 GAS STATICCALL ISZERO DUP1 ISZERO PUSH2 0x141D JUMPI RETURNDATASIZE PUSH1 0x0 DUP1 RETURNDATACOPY RETURNDATASIZE PUSH1 0x0 REVERT JUMPDEST POP POP POP POP PUSH1 0x40 MLOAD RETURNDATASIZE PUSH1 0x1F NOT PUSH1 0x1F DUP3 ADD AND DUP3 ADD DUP1 PUSH1 0x40 MSTORE POP DUP2 ADD SWAP1 PUSH2 0x1441 SWAP2 SWAP1 PUSH2 0x522E JUMP JUMPDEST ISZERO PUSH2 0x165E JUMPI PUSH1 0x40 MLOAD PUSH4 0xC25E483 PUSH1 0xE1 SHL DUP2 MSTORE PUSH1 0x4 DUP2 ADD DUP9 SWAP1 MSTORE PUSH1 0x0 SWAP1 PUSH32 0x0 PUSH1 0x1 PUSH1 0x1 PUSH1 0xA0 SHL SUB AND SWAP1 PUSH4 0x184BC906 SWAP1 PUSH1 0x24 ADD PUSH1 0x20 PUSH1 0x40 MLOAD DUP1 DUP4 SUB DUP2 DUP7 GAS STATICCALL ISZERO DUP1 ISZERO PUSH2 0x14AE JUMPI RETURNDATASIZE PUSH1 0x0 DUP1 RETURNDATACOPY RETURNDATASIZE PUSH1 0x0 REVERT JUMPDEST POP POP POP POP PUSH1 0x40 MLOAD RETURNDATASIZE PUSH1 0x1F NOT PUSH1 0x1F DUP3 ADD AND DUP3 ADD DUP1 PUSH1 0x40 MSTORE POP DUP2 ADD SWAP1 PUSH2 0x14D2 SWAP2 SWAP1 PUSH2 0x5250 JUMP JUMPDEST SWAP1 POP DUP1 PUSH1 0x1 PUSH1 0x1 PUSH1 0xA0 SHL SUB AND PUSH4 0xF5AC9DB6 PUSH1 0x40 MLOAD DUP2 PUSH4 0xFFFFFFFF AND PUSH1 0xE0 SHL DUP2 MSTORE PUSH1 0x4 ADD PUSH1 0x20 PUSH1 0x40 MLOAD DUP1 DUP4 SUB DUP2 DUP7 GAS STATICCALL ISZERO DUP1 ISZERO PUSH2 0x1512 JUMPI RETURNDATASIZE PUSH1 0x0 DUP1 RETURNDATACOPY RETURNDATASIZE PUSH1 0x0 REVERT JUMPDEST POP POP POP POP PUSH1 0x40 MLOAD RETURNDATASIZE PUSH1 0x1F NOT PUSH1 0x1F DUP3 ADD AND DUP3 ADD DUP1 PUSH1 0x40 MSTORE POP DUP2 ADD SWAP1 PUSH2 0x1536 SWAP2 SWAP1 PUSH2 0x522E JUMP JUMPDEST PUSH2 0x1577 JUMPI PUSH1 0x40 MLOAD PUSH3 0x461BCD PUSH1 0xE5 SHL DUP2 MSTORE PUSH1 0x20 PUSH1 0x4 DUP3 ADD MSTORE PUSH1 0x12 PUSH1 0x24 DUP3 ADD MSTORE PUSH18 0x46726F6D206E6F7420747261646561626C65 PUSH1 0x70 SHL PUSH1 0x44 DUP3 ADD MSTORE PUSH1 0x64 ADD PUSH2 0x701 JUMP JUMPDEST DUP1 PUSH1 0x1 PUSH1 0x1 PUSH1 0xA0 SHL SUB AND PUSH4 0xE499427 PUSH1 0x40 MLOAD DUP2 PUSH4 0xFFFFFFFF AND PUSH1 0xE0 SHL DUP2 MSTORE PUSH1 0x4 ADD PUSH1 0x20 PUSH1 0x40 MLOAD DUP1 DUP4 SUB DUP2 DUP7 GAS STATICCALL ISZERO DUP1 ISZERO PUSH2 0x15B5 JUMPI RETURNDATASIZE PUSH1 0x0 DUP1 RETURNDATACOPY RETURNDATASIZE PUSH1 0x0 REVERT JUMPDEST POP POP POP POP PUSH1 0x40 MLOAD RETURNDATASIZE PUSH1 0x1F NOT PUSH1 0x1F DUP3 ADD AND DUP3 ADD DUP1 PUSH1 0x40 MSTORE POP DUP2 ADD SWAP1 PUSH2 0x15D9 SWAP2 SWAP1 PUSH2 0x522E JUMP JUMPDEST DUP1 ISZERO PUSH2 0x1605 JUMPI POP PUSH32 0xAD3228B676F7D3CD4284A5443F17F1962B36E491B30A40B2405849E597BA5FB5 DUP8 EQ ISZERO JUMPDEST PUSH2 0x165C JUMPI PUSH1 0x40 MLOAD PUSH3 0x461BCD PUSH1 0xE5 SHL DUP2 MSTORE PUSH1 0x20 PUSH1 0x4 DUP3 ADD MSTORE PUSH1 0x22 PUSH1 0x24 DUP3 ADD MSTORE PUSH32 0x46726F6D206973206F6E6C7920747261646561626C6520746F2043757272656E PUSH1 0x44 DUP3 ADD MSTORE PUSH2 0x6379 PUSH1 0xF0 SHL PUSH1 0x64 DUP3 ADD MSTORE PUSH1 0x84 ADD PUSH2 0x701 JUMP JUMPDEST POP JUMPDEST PUSH1 0x40 MLOAD PUSH4 0xD47A7EDD PUSH1 0xE0 SHL DUP2 MSTORE PUSH1 0x4 DUP2 ADD DUP9 SWAP1 MSTORE PUSH32 0x0 PUSH1 0x1 PUSH1 0x1 PUSH1 0xA0 SHL SUB AND SWAP1 PUSH4 0xD47A7EDD SWAP1 PUSH1 0x24 ADD PUSH1 0x20 PUSH1 0x40 MLOAD DUP1 DUP4 SUB DUP2 DUP7 GAS STATICCALL ISZERO DUP1 ISZERO PUSH2 0x16C3 JUMPI RETURNDATASIZE PUSH1 0x0 DUP1 RETURNDATACOPY RETURNDATASIZE PUSH1 0x0 REVERT JUMPDEST POP POP POP POP PUSH1 0x40 MLOAD RETURNDATASIZE PUSH1 0x1F NOT PUSH1 0x1F DUP3 ADD AND DUP3 ADD DUP1 PUSH1 0x40 MSTORE POP DUP2 ADD SWAP1 PUSH2 0x16E7 SWAP2 SWAP1 PUSH2 0x522E JUMP JUMPDEST ISZERO DUP1 PUSH2 0x16FA JUMPI POP DUP4 PUSH8 0xDE0B6B3A7640000 EQ JUMPDEST DUP1 PUSH2 0x1704 JUMPI POP DUP4 DUP6 EQ JUMPDEST PUSH2 0x1764 JUMPI PUSH1 0x40 MLOAD PUSH3 0x461BCD PUSH1 0xE5 SHL DUP2 MSTORE PUSH1 0x20 PUSH1 0x4 DUP3 ADD MSTORE PUSH1 0x2B PUSH1 0x24 DUP3 ADD MSTORE PUSH32 0x2746726F6D27206973204E46542071747920616E64206772616E756C61726974 PUSH1 0x44 DUP3 ADD MSTORE PUSH11 0x79206D7573742062652031 PUSH1 0xA8 SHL PUSH1 0x64 DUP3 ADD MSTORE PUSH1 0x84 ADD PUSH2 0x701 JUMP JUMPDEST PUSH1 0x40 MLOAD PUSH4 0x23AA9AB PUSH1 0xE6 SHL DUP2 MSTORE PUSH1 0x0 DUP1 MLOAD PUSH1 0x20 PUSH2 0x5748 DUP4 CODECOPY DUP2 MLOAD SWAP2 MSTORE PUSH1 0x4 DUP3 ADD MSTORE PUSH32 0x0 PUSH1 0x1 PUSH1 0x1 PUSH1 0xA0 SHL SUB AND SWAP1 PUSH4 0x8EAA6AC0 SWAP1 PUSH1 0x24 ADD PUSH1 0x20 PUSH1 0x40 MLOAD DUP1 DUP4 SUB DUP2 DUP7 GAS STATICCALL ISZERO DUP1 ISZERO PUSH2 0x17D6 JUMPI RETURNDATASIZE PUSH1 0x0 DUP1 RETURNDATACOPY RETURNDATASIZE PUSH1 0x0 REVERT JUMPDEST POP POP POP POP PUSH1 0x40 MLOAD RETURNDATASIZE PUSH1 0x1F NOT PUSH1 0x1F DUP3 ADD AND DUP3 ADD DUP1 PUSH1 0x40 MSTORE POP DUP2 ADD SWAP1 PUSH2 0x17FA SWAP2 SWAP1 PUSH2 0x5250 JUMP JUMPDEST PUSH1 0x40 MLOAD PUSH4 0x4E68F20F PUSH1 0xE1 SHL DUP2 MSTORE PUSH1 0x4 DUP2 ADD DUP10 SWAP1 MSTORE PUSH1 0x1 PUSH1 0x1 PUSH1 0xA0 SHL SUB DUP11 DUP2 AND PUSH1 0x24 DUP4 ADD MSTORE SWAP2 SWAP1 SWAP2 AND SWAP1 PUSH4 0x9CD1E41E SWAP1 PUSH1 0x44 ADD PUSH1 0x20 PUSH1 0x40 MLOAD DUP1 DUP4 SUB DUP2 DUP7 GAS STATICCALL ISZERO DUP1 ISZERO PUSH2 0x1849 JUMPI RETURNDATASIZE PUSH1 0x0 DUP1 RETURNDATACOPY RETURNDATASIZE PUSH1 0x0 REVERT JUMPDEST POP POP POP POP PUSH1 0x40 MLOAD RETURNDATASIZE PUSH1 0x1F NOT PUSH1 0x1F DUP3 ADD AND DUP3 ADD DUP1 PUSH1 0x40 MSTORE POP DUP2 ADD SWAP1 PUSH2 0x186D SWAP2 SWAP1 PUSH2 0x5363 JUMP JUMPDEST DUP5 GT ISZERO PUSH2 0x18BC JUMPI PUSH1 0x40 MLOAD PUSH3 0x461BCD PUSH1 0xE5 SHL DUP2 MSTORE PUSH1 0x20 PUSH1 0x4 DUP3 ADD MSTORE PUSH1 0x1A PUSH1 0x24 DUP3 ADD MSTORE PUSH32 0x42616E6B3A204E6F7420656E6F75676820617661696C61626C65000000000000 PUSH1 0x44 DUP3 ADD MSTORE PUSH1 0x64 ADD PUSH2 0x701 JUMP JUMPDEST PUSH1 0x40 DUP1 MLOAD PUSH2 0x180 DUP2 ADD DUP3 MSTORE PUSH1 0x0 DUP1 DUP3 MSTORE PUSH1 0x20 DUP3 ADD DUP2 SWAP1 MSTORE SWAP2 DUP2 ADD DUP3 SWAP1 MSTORE PUSH1 0x60 DUP2 ADD DUP3 SWAP1 MSTORE PUSH1 0x80 DUP2 ADD DUP3 SWAP1 MSTORE PUSH1 0xA0 DUP2 ADD DUP3 SWAP1 MSTORE PUSH1 0xC0 DUP2 ADD DUP3 SWAP1 MSTORE PUSH1 0xE0 DUP2 ADD DUP3 SWAP1 MSTORE PUSH2 0x100 DUP2 ADD DUP3 SWAP1 MSTORE PUSH2 0x120 DUP2 ADD DUP3 SWAP1 MSTORE PUSH2 0x140 DUP2 ADD DUP3 SWAP1 MSTORE PUSH2 0x160 DUP2 ADD SWAP2 SWAP1 SWAP2 MSTORE PUSH1 0x1 PUSH1 0x1 PUSH1 0xA0 SHL SUB DUP10 DUP2 AND PUSH1 0x20 DUP4 ADD MSTORE PUSH1 0x40 MLOAD PUSH4 0x61E99FFB PUSH1 0xE0 SHL DUP2 MSTORE PUSH1 0x4 DUP2 ADD DUP11 SWAP1 MSTORE PUSH1 0x24 DUP2 ADD DUP10 SWAP1 MSTORE PUSH32 0x0 SWAP1 SWAP2 AND SWAP1 PUSH4 0x61E99FFB SWAP1 PUSH1 0x44 ADD PUSH1 0x20 PUSH1 0x40 MLOAD DUP1 DUP4 SUB DUP2 PUSH1 0x0 DUP8 GAS CALL ISZERO DUP1 ISZERO PUSH2 0x1995 JUMPI RETURNDATASIZE PUSH1 0x0 DUP1 RETURNDATACOPY RETURNDATASIZE PUSH1 0x0 REVERT JUMPDEST POP POP POP POP PUSH1 0x40 MLOAD RETURNDATASIZE PUSH1 0x1F NOT PUSH1 0x1F DUP3 ADD AND DUP3 ADD DUP1 PUSH1 0x40 MSTORE POP DUP2 ADD SWAP1 PUSH2 0x19B9 SWAP2 SWAP1 PUSH2 0x5363 JUMP JUMPDEST DUP2 MSTORE PUSH2 0x19C4 DUP7 PUSH2 0x9BE JUMP JUMPDEST PUSH1 0x1 PUSH1 0x1 PUSH1 0x40 SHL SUB AND PUSH2 0x120 DUP3 ADD MSTORE PUSH2 0x19DC DUP6 PUSH2 0x9BE JUMP JUMPDEST PUSH1 0x1 PUSH1 0x1 PUSH1 0x40 SHL SUB AND PUSH1 0xA0 DUP3 ADD MSTORE PUSH2 0x19F3 DUP5 PUSH2 0x9BE JUMP JUMPDEST PUSH1 0x1 PUSH1 0x1 PUSH1 0x40 SHL SUB AND PUSH2 0x100 DUP3 ADD MSTORE PUSH1 0x60 DUP2 ADD MLOAD PUSH1 0x40 MLOAD PUSH4 0x5B7D0F69 PUSH1 0xE1 SHL DUP2 MSTORE PUSH1 0xFF SWAP1 SWAP2 AND PUSH1 0x4 DUP3 ADD MSTORE PUSH20 0x0 SWAP1 PUSH4 0xB6FA1ED2 SWAP1 PUSH1 0x24 ADD PUSH1 0x20 PUSH1 0x40 MLOAD DUP1 DUP4 SUB DUP2 DUP7 GAS DELEGATECALL ISZERO DUP1 ISZERO PUSH2 0x1A5A JUMPI RETURNDATASIZE PUSH1 0x0 DUP1 RETURNDATACOPY RETURNDATASIZE PUSH1 0x0 REVERT JUMPDEST POP POP POP POP PUSH1 0x40 MLOAD RETURNDATASIZE PUSH1 0x1F NOT PUSH1 0x1F DUP3 ADD AND DUP3 ADD DUP1 PUSH1 0x40 MSTORE POP DUP2 ADD SWAP1 PUSH2 0x1A7E SWAP2 SWAP1 PUSH2 0x522E JUMP JUMPDEST ISZERO PUSH2 0x1C06 JUMPI PUSH1 0x40 MLOAD PUSH4 0x23AA9AB PUSH1 0xE6 SHL DUP2 MSTORE PUSH32 0x3CB99135F7A7C088D9085B446345038A22A85F4E8FE072B0E1B66D97243E7458 PUSH1 0x4 DUP3 ADD MSTORE PUSH1 0x0 SWAP1 PUSH32 0x0 PUSH1 0x1 PUSH1 0x1 PUSH1 0xA0 SHL SUB AND SWAP1 PUSH4 0x8EAA6AC0 SWAP1 PUSH1 0x24 ADD PUSH1 0x20 PUSH1 0x40 MLOAD DUP1 DUP4 SUB DUP2 DUP7 GAS STATICCALL ISZERO DUP1 ISZERO PUSH2 0x1B0A JUMPI RETURNDATASIZE PUSH1 0x0 DUP1 RETURNDATACOPY RETURNDATASIZE PUSH1 0x0 REVERT JUMPDEST POP POP POP POP PUSH1 0x40 MLOAD RETURNDATASIZE PUSH1 0x1F NOT PUSH1 0x1F DUP3 ADD AND DUP3 ADD DUP1 PUSH1 0x40 MSTORE POP DUP2 ADD SWAP1 PUSH2 0x1B2E SWAP2 SWAP1 PUSH2 0x5250 JUMP JUMPDEST PUSH1 0x40 MLOAD PUSH4 0x32F30779 PUSH1 0xE1 SHL DUP2 MSTORE PUSH1 0x4 DUP2 ADD DUP12 SWAP1 MSTORE PUSH1 0x24 DUP2 ADD DUP11 SWAP1 MSTORE PUSH1 0x1 PUSH1 0x1 PUSH1 0xA0 SHL SUB SWAP2 SWAP1 SWAP2 AND SWAP1 PUSH4 0x65E60EF2 SWAP1 PUSH1 0x44 ADD PUSH1 0x60 PUSH1 0x40 MLOAD DUP1 DUP4 SUB DUP2 PUSH1 0x0 DUP8 GAS CALL ISZERO DUP1 ISZERO PUSH2 0x1B7E JUMPI RETURNDATASIZE PUSH1 0x0 DUP1 RETURNDATACOPY RETURNDATASIZE PUSH1 0x0 REVERT JUMPDEST POP POP POP POP PUSH1 0x40 MLOAD RETURNDATASIZE PUSH1 0x1F NOT PUSH1 0x1F DUP3 ADD AND DUP3 ADD DUP1 PUSH1 0x40 MSTORE POP DUP2 ADD SWAP1 PUSH2 0x1BA2 SWAP2 SWAP1 PUSH2 0x537C JUMP JUMPDEST POP SWAP2 POP PUSH2 0x1BB0 SWAP1 POP DUP2 PUSH2 0x9BE JUMP JUMPDEST PUSH1 0x1 PUSH1 0x1 PUSH1 0x40 SHL SUB AND PUSH2 0x160 DUP4 ADD DUP2 SWAP1 MSTORE PUSH1 0x0 SUB PUSH2 0x1C04 JUMPI PUSH1 0x40 MLOAD PUSH3 0x461BCD PUSH1 0xE5 SHL DUP2 MSTORE PUSH1 0x20 PUSH1 0x4 DUP3 ADD MSTORE PUSH1 0x11 PUSH1 0x24 DUP3 ADD MSTORE PUSH17 0x145D5BDD194E88139BDD081C5D5BDD1959 PUSH1 0x7A SHL PUSH1 0x44 DUP3 ADD MSTORE PUSH1 0x64 ADD PUSH2 0x701 JUMP JUMPDEST POP JUMPDEST PUSH1 0x60 DUP2 ADD MLOAD PUSH1 0x40 MLOAD PUSH4 0xF0340A37 PUSH1 0xE0 SHL DUP2 MSTORE PUSH1 0xFF SWAP1 SWAP2 AND PUSH1 0x4 DUP3 ADD MSTORE PUSH20 0x0 SWAP1 PUSH4 0xF0340A37 SWAP1 PUSH1 0x24 ADD PUSH1 0x20 PUSH1 0x40 MLOAD DUP1 DUP4 SUB DUP2 DUP7 GAS DELEGATECALL ISZERO DUP1 ISZERO PUSH2 0x1C5E JUMPI RETURNDATASIZE PUSH1 0x0 DUP1 RETURNDATACOPY RETURNDATASIZE PUSH1 0x0 REVERT JUMPDEST POP POP POP POP PUSH1 0x40 MLOAD RETURNDATASIZE PUSH1 0x1F NOT PUSH1 0x1F DUP3 ADD AND DUP3 ADD DUP1 PUSH1 0x40 MSTORE POP DUP2 ADD SWAP1 PUSH2 0x1C82 SWAP2 SWAP1 PUSH2 0x522E JUMP JUMPDEST ISZERO PUSH2 0x1D85 JUMPI PUSH1 0x40 MLOAD PUSH4 0x23AA9AB PUSH1 0xE6 SHL DUP2 MSTORE PUSH1 0x0 DUP1 MLOAD PUSH1 0x20 PUSH2 0x5748 DUP4 CODECOPY DUP2 MLOAD SWAP2 MSTORE PUSH1 0x4 DUP3 ADD MSTORE PUSH32 0x0 PUSH1 0x1 PUSH1 0x1 PUSH1 0xA0 SHL SUB AND SWAP1 PUSH4 0x8EAA6AC0 SWAP1 PUSH1 0x24 ADD PUSH1 0x20 PUSH1 0x40 MLOAD DUP1 DUP4 SUB DUP2 DUP7 GAS STATICCALL ISZERO DUP1 ISZERO PUSH2 0x1CF9 JUMPI RETURNDATASIZE PUSH1 0x0 DUP1 RETURNDATACOPY RETURNDATASIZE PUSH1 0x0 REVERT JUMPDEST POP POP POP POP PUSH1 0x40 MLOAD RETURNDATASIZE PUSH1 0x1F NOT PUSH1 0x1F DUP3 ADD AND DUP3 ADD DUP1 PUSH1 0x40 MSTORE POP DUP2 ADD SWAP1 PUSH2 0x1D1D SWAP2 SWAP1 PUSH2 0x5250 JUMP JUMPDEST PUSH1 0x1 PUSH1 0x1 PUSH1 0xA0 SHL SUB AND PUSH4 0x56A1FD3A DUP9 DUP4 PUSH1 0x20 ADD MLOAD ADDRESS DUP10 PUSH1 0x40 MLOAD DUP6 PUSH4 0xFFFFFFFF AND PUSH1 0xE0 SHL DUP2 MSTORE PUSH1 0x4 ADD PUSH2 0x1D52 SWAP5 SWAP4 SWAP3 SWAP2 SWAP1 PUSH2 0x5477 JUMP JUMPDEST PUSH1 0x0 PUSH1 0x40 MLOAD DUP1 DUP4 SUB DUP2 PUSH1 0x0 DUP8 DUP1 EXTCODESIZE ISZERO DUP1 ISZERO PUSH2 0x1D6C JUMPI PUSH1 0x0 DUP1 REVERT JUMPDEST POP GAS CALL ISZERO DUP1 ISZERO PUSH2 0x1D80 JUMPI RETURNDATASIZE PUSH1 0x0 DUP1 RETURNDATACOPY RETURNDATASIZE PUSH1 0x0 REVERT JUMPDEST POP POP POP POP JUMPDEST PUSH1 0x3 DUP1 SLOAD PUSH1 0x1 ADD SWAP1 SSTORE JUMPDEST PUSH1 0x3 SLOAD ISZERO DUP1 ISZERO PUSH2 0x1DB2 JUMPI POP PUSH1 0x3 SLOAD PUSH1 0x0 SWAP1 DUP2 MSTORE PUSH1 0x5 PUSH1 0x20 MSTORE PUSH1 0x40 SWAP1 KECCAK256 PUSH1 0x2 ADD SLOAD ISZERO ISZERO JUMPDEST ISZERO PUSH2 0x1DC5 JUMPI PUSH1 0x3 DUP1 SLOAD PUSH1 0x1 ADD SWAP1 SSTORE PUSH2 0x1D8F JUMP JUMPDEST PUSH1 0x3 SLOAD PUSH1 0x80 DUP3 ADD DUP2 SWAP1 MSTORE PUSH1 0xA0 DUP3 ADD MLOAD PUSH1 0x1 PUSH1 0x1 PUSH1 0x40 SHL SUB SWAP1 DUP2 AND PUSH1 0xE0 DUP5 ADD MSTORE PUSH1 0x4 PUSH1 0x40 DUP1 DUP6 ADD SWAP2 DUP3 MSTORE PUSH1 0xFF DUP8 AND PUSH1 0x60 DUP7 ADD MSTORE PUSH2 0x100 DUP6 ADD MLOAD SWAP1 SWAP3 AND PUSH2 0x140 DUP6 ADD MSTORE PUSH1 0x0 SWAP3 DUP4 MSTORE PUSH1 0x5 PUSH1 0x20 DUP2 DUP2 MSTORE SWAP3 SWAP1 SWAP4 KECCAK256 DUP5 MLOAD DUP2 SSTORE SWAP2 DUP5 ADD MLOAD PUSH1 0x1 DUP4 ADD DUP1 SLOAD PUSH1 0x1 PUSH1 0x1 PUSH1 0xA0 SHL SUB SWAP1 SWAP3 AND PUSH1 0x1 PUSH1 0x1 PUSH1 0xA0 SHL SUB NOT DUP4 AND DUP2 OR DUP3 SSTORE SWAP3 MLOAD DUP7 SWAP6 SWAP1 SWAP4 SWAP2 SWAP3 PUSH1 0x1 PUSH1 0x1 PUSH1 0xA8 SHL SUB NOT AND SWAP1 SWAP2 OR SWAP1 PUSH1 0x1 PUSH1 0xA0 SHL SWAP1 DUP5 SWAP1 DUP2 GT ISZERO PUSH2 0x1E6B JUMPI PUSH2 0x1E6B PUSH2 0x4E43 JUMP JUMPDEST MUL OR SWAP1 SSTORE POP PUSH1 0x60 DUP3 ADD MLOAD PUSH1 0x1 DUP3 ADD DUP1 SLOAD PUSH1 0xFF PUSH1 0xA8 SHL NOT AND PUSH1 0x1 PUSH1 0xA8 SHL PUSH1 0xFF SWAP1 SWAP4 AND SWAP3 SWAP1 SWAP3 MUL SWAP2 SWAP1 SWAP2 OR SWAP1 SSTORE PUSH1 0x80 DUP1 DUP4 ADD MLOAD PUSH1 0x2 DUP4 ADD SSTORE PUSH1 0xA0 DUP4 ADD MLOAD PUSH1 0x3 DUP4 ADD DUP1 SLOAD PUSH1 0xC0 DUP7 ADD MLOAD PUSH1 0xE0 DUP8 ADD MLOAD PUSH2 0x100 DUP9 ADD MLOAD PUSH1 0x1 PUSH1 0x1 PUSH1 0x40 SHL SUB SWAP6 DUP7 AND PUSH16 0xFFFFFFFFFFFFFFFFFFFFFFFFFFFFFFFF NOT SWAP5 DUP6 AND OR PUSH1 0x1 PUSH1 0x40 SHL SWAP4 DUP8 AND DUP5 MUL OR PUSH16 0xFFFFFFFFFFFFFFFFFFFFFFFFFFFFFFFF AND PUSH1 0x1 PUSH1 0x80 SHL SWAP3 DUP8 AND DUP4 MUL PUSH1 0x1 PUSH1 0x1 PUSH1 0xC0 SHL SUB AND OR PUSH1 0x1 PUSH1 0xC0 SHL SWAP2 DUP8 AND SWAP2 SWAP1 SWAP2 MUL OR SWAP1 SWAP4 SSTORE PUSH2 0x120 DUP8 ADD MLOAD PUSH1 0x4 SWAP7 DUP8 ADD DUP1 SLOAD PUSH2 0x140 DUP11 ADD MLOAD PUSH2 0x160 SWAP1 SWAP11 ADD MLOAD PUSH8 0xFFFFFFFFFFFFFFFF PUSH1 0x80 SHL NOT SWAP4 DUP9 AND SWAP2 SWAP1 SWAP6 AND OR SWAP9 DUP7 AND SWAP1 SWAP3 MUL SWAP8 SWAP1 SWAP8 OR SWAP7 SWAP1 SWAP7 AND SWAP3 AND MUL OR SWAP1 SWAP3 SSTORE SWAP1 DUP3 ADD MLOAD PUSH1 0x40 MLOAD PUSH4 0x4132F1D PUSH1 0xE3 SHL DUP2 MSTORE DUP1 DUP4 ADD SWAP3 SWAP1 SWAP3 MSTORE PUSH1 0x24 DUP3 ADD MSTORE PUSH20 0x0 SWAP1 PUSH4 0x209978E8 SWAP1 PUSH1 0x44 ADD PUSH1 0x20 PUSH1 0x40 MLOAD DUP1 DUP4 SUB DUP2 DUP7 GAS DELEGATECALL ISZERO DUP1 ISZERO PUSH2 0x1FBB JUMPI RETURNDATASIZE PUSH1 0x0 DUP1 RETURNDATACOPY RETURNDATASIZE PUSH1 0x0 REVERT JUMPDEST POP POP POP POP PUSH1 0x40 MLOAD RETURNDATASIZE PUSH1 0x1F NOT PUSH1 0x1F DUP3 ADD AND DUP3 ADD DUP1 PUSH1 0x40 MSTORE POP DUP2 ADD SWAP1 PUSH2 0x1FDF SWAP2 SWAP1 PUSH2 0x522E JUMP JUMPDEST POP DUP1 MLOAD PUSH1 0x0 SWAP1 DUP2 MSTORE PUSH1 0x6 PUSH1 0x20 MSTORE PUSH1 0x40 SWAP1 DUP2 SWAP1 KECCAK256 PUSH1 0x80 DUP4 ADD MLOAD SWAP2 MLOAD PUSH4 0x4132F1D PUSH1 0xE3 SHL DUP2 MSTORE PUSH20 0x0 SWAP3 PUSH4 0x209978E8 SWAP3 PUSH2 0x2037 SWAP3 SWAP1 SWAP2 SWAP1 PUSH1 0x4 ADD SWAP2 DUP3 MSTORE PUSH1 0x20 DUP3 ADD MSTORE PUSH1 0x40 ADD SWAP1 JUMP JUMPDEST PUSH1 0x20 PUSH1 0x40 MLOAD DUP1 DUP4 SUB DUP2 DUP7 GAS DELEGATECALL ISZERO DUP1 ISZERO PUSH2 0x2054 JUMPI RETURNDATASIZE PUSH1 0x0 DUP1 RETURNDATACOPY RETURNDATASIZE PUSH1 0x0 REVERT JUMPDEST POP POP POP POP PUSH1 0x40 MLOAD RETURNDATASIZE PUSH1 0x1F NOT PUSH1 0x1F DUP3 ADD AND DUP3 ADD DUP1 PUSH1 0x40 MSTORE POP DUP2 ADD SWAP1 PUSH2 0x2078 SWAP2 SWAP1 PUSH2 0x522E JUMP JUMPDEST POP PUSH1 0x0 DUP9 DUP2 MSTORE PUSH1 0x7 PUSH1 0x20 MSTORE PUSH1 0x40 SWAP1 DUP2 SWAP1 KECCAK256 PUSH1 0x80 DUP4 ADD MLOAD SWAP2 MLOAD PUSH4 0x4132F1D PUSH1 0xE3 SHL DUP2 MSTORE PUSH20 0x0 SWAP3 PUSH4 0x209978E8 SWAP3 PUSH2 0x20CE SWAP3 SWAP1 SWAP2 SWAP1 PUSH1 0x4 ADD SWAP2 DUP3 MSTORE PUSH1 0x20 DUP3 ADD MSTORE PUSH1 0x40 ADD SWAP1 JUMP JUMPDEST PUSH1 0x20 PUSH1 0x40 MLOAD DUP1 DUP4 SUB DUP2 DUP7 GAS DELEGATECALL ISZERO DUP1 ISZERO PUSH2 0x20EB JUMPI RETURNDATASIZE PUSH1 0x0 DUP1 RETURNDATACOPY RETURNDATASIZE PUSH1 0x0 REVERT JUMPDEST POP POP POP POP PUSH1 0x40 MLOAD RETURNDATASIZE PUSH1 0x1F NOT PUSH1 0x1F DUP3 ADD AND DUP3 ADD DUP1 PUSH1 0x40 MSTORE POP DUP2 ADD SWAP1 PUSH2 0x210F SWAP2 SWAP1 PUSH2 0x522E JUMP JUMPDEST POP PUSH1 0x0 DUP8 DUP2 MSTORE PUSH1 0x8 PUSH1 0x20 MSTORE PUSH1 0x40 SWAP1 DUP2 SWAP1 KECCAK256 PUSH1 0x80 DUP4 ADD MLOAD SWAP2 MLOAD PUSH4 0x4132F1D PUSH1 0xE3 SHL DUP2 MSTORE PUSH20 0x0 SWAP3 PUSH4 0x209978E8 SWAP3 PUSH2 0x2165 SWAP3 SWAP1 SWAP2 SWAP1 PUSH1 0x4 ADD SWAP2 DUP3 MSTORE PUSH1 0x20 DUP3 ADD MSTORE PUSH1 0x40 ADD SWAP1 JUMP JUMPDEST PUSH1 0x20 PUSH1 0x40 MLOAD DUP1 DUP4 SUB DUP2 DUP7 GAS DELEGATECALL ISZERO DUP1 ISZERO PUSH2 0x2182 JUMPI RETURNDATASIZE PUSH1 0x0 DUP1 RETURNDATACOPY RETURNDATASIZE PUSH1 0x0 REVERT JUMPDEST POP POP POP POP PUSH1 0x40 MLOAD RETURNDATASIZE PUSH1 0x1F NOT PUSH1 0x1F DUP3 ADD AND DUP3 ADD DUP1 PUSH1 0x40 MSTORE POP DUP2 ADD SWAP1 PUSH2 0x21A6 SWAP2 SWAP1 PUSH2 0x522E JUMP JUMPDEST POP DUP1 MLOAD PUSH2 0x21B2 SWAP1 PUSH2 0x3D28 JUMP JUMPDEST POP POP PUSH1 0x3 SLOAD SWAP8 SWAP7 POP POP POP POP POP POP POP JUMP JUMPDEST PUSH1 0x0 PUSH2 0x757 PUSH1 0x1 PUSH1 0x1 PUSH1 0x40 SHL SUB DUP4 AND PUSH5 0x2540BE400 PUSH2 0x52E0 JUMP JUMPDEST PUSH1 0x40 MLOAD PUSH4 0x23AA9AB PUSH1 0xE6 SHL DUP2 MSTORE PUSH32 0x2E7A327EF83C2AF7579C6634F2F5604519800C5F07626F27BD602FD11ED8E6EC PUSH1 0x4 DUP3 ADD MSTORE PUSH1 0x0 SWAP1 DUP2 SWAP1 PUSH1 0x1 PUSH1 0x1 PUSH1 0xA0 SHL SUB PUSH32 0x0 AND SWAP1 PUSH4 0x8EAA6AC0 SWAP1 PUSH1 0x24 ADD PUSH1 0x20 PUSH1 0x40 MLOAD DUP1 DUP4 SUB DUP2 DUP7 GAS STATICCALL ISZERO DUP1 ISZERO PUSH2 0x2265 JUMPI RETURNDATASIZE PUSH1 0x0 DUP1 RETURNDATACOPY RETURNDATASIZE PUSH1 0x0 REVERT JUMPDEST POP POP POP POP PUSH1 0x40 MLOAD RETURNDATASIZE PUSH1 0x1F NOT PUSH1 0x1F DUP3 ADD AND DUP3 ADD DUP1 PUSH1 0x40 MSTORE POP DUP2 ADD SWAP1 PUSH2 0x2289 SWAP2 SWAP1 PUSH2 0x5250 JUMP JUMPDEST PUSH1 0x40 DUP1 MLOAD ADDRESS PUSH1 0x24 DUP3 ADD MSTORE PUSH1 0x1 PUSH1 0x1 PUSH1 0xA0 SHL SUB DUP13 DUP2 AND PUSH1 0x44 DUP4 ADD MSTORE PUSH1 0x64 DUP3 ADD DUP13 SWAP1 MSTORE PUSH1 0x84 DUP3 ADD DUP12 SWAP1 MSTORE PUSH1 0xA4 DUP3 ADD DUP11 SWAP1 MSTORE PUSH1 0xC4 DUP3 ADD DUP10 SWAP1 MSTORE PUSH1 0xE4 DUP3 ADD DUP9 SWAP1 MSTORE PUSH1 0xFF DUP8 AND PUSH2 0x104 DUP1 DUP5 ADD SWAP2 SWAP1 SWAP2 MSTORE DUP4 MLOAD DUP1 DUP5 SUB SWAP1 SWAP2 ADD DUP2 MSTORE PUSH2 0x124 SWAP1 SWAP3 ADD DUP4 MSTORE PUSH1 0x20 DUP3 ADD DUP1 MLOAD PUSH1 0x1 PUSH1 0x1 PUSH1 0xE0 SHL SUB AND PUSH4 0x53308781 PUSH1 0xE1 SHL OR SWAP1 MSTORE SWAP2 MLOAD SWAP3 SWAP1 SWAP2 AND SWAP2 PUSH2 0x2311 SWAP2 SWAP1 PUSH2 0x526D JUMP JUMPDEST PUSH1 0x0 PUSH1 0x40 MLOAD DUP1 DUP4 SUB DUP2 PUSH1 0x0 DUP7 GAS CALL SWAP2 POP POP RETURNDATASIZE DUP1 PUSH1 0x0 DUP2 EQ PUSH2 0x234E JUMPI PUSH1 0x40 MLOAD SWAP2 POP PUSH1 0x1F NOT PUSH1 0x3F RETURNDATASIZE ADD AND DUP3 ADD PUSH1 0x40 MSTORE RETURNDATASIZE DUP3 MSTORE RETURNDATASIZE PUSH1 0x0 PUSH1 0x20 DUP5 ADD RETURNDATACOPY PUSH2 0x2353 JUMP JUMPDEST PUSH1 0x60 SWAP2 POP JUMPDEST POP POP SWAP1 POP PUSH2 0x2360 DUP2 PUSH2 0x70C JUMP JUMPDEST POP SWAP8 SWAP7 POP POP POP POP POP POP POP JUMP JUMPDEST PUSH1 0x40 MLOAD PUSH4 0x509FF69B PUSH1 0xE0 SHL DUP2 MSTORE PUSH1 0x1 PUSH1 0x1 PUSH1 0xA0 SHL SUB DUP8 DUP2 AND PUSH1 0x4 DUP4 ADD MSTORE PUSH1 0x0 PUSH1 0x24 DUP4 ADD DUP2 SWAP1 MSTORE SWAP2 PUSH2 0x24A7 SWAP2 DUP11 SWAP2 PUSH32 0x0 SWAP1 SWAP2 AND SWAP1 PUSH4 0x509FF69B SWAP1 PUSH1 0x44 ADD PUSH1 0x20 PUSH1 0x40 MLOAD DUP1 DUP4 SUB DUP2 PUSH1 0x0 DUP8 GAS CALL ISZERO DUP1 ISZERO PUSH2 0x23E6 JUMPI RETURNDATASIZE PUSH1 0x0 DUP1 RETURNDATACOPY RETURNDATASIZE PUSH1 0x0 REVERT JUMPDEST POP POP POP POP PUSH1 0x40 MLOAD RETURNDATASIZE PUSH1 0x1F NOT PUSH1 0x1F DUP3 ADD AND DUP3 ADD DUP1 PUSH1 0x40 MSTORE POP DUP2 ADD SWAP1 PUSH2 0x240A SWAP2 SWAP1 PUSH2 0x5363 JUMP JUMPDEST PUSH1 0x40 MLOAD PUSH4 0x509FF69B PUSH1 0xE0 SHL DUP2 MSTORE PUSH1 0x1 PUSH1 0x1 PUSH1 0xA0 SHL SUB DUP11 DUP2 AND PUSH1 0x4 DUP4 ADD MSTORE PUSH1 0x0 PUSH1 0x24 DUP4 ADD MSTORE PUSH32 0x0 AND SWAP1 PUSH4 0x509FF69B SWAP1 PUSH1 0x44 ADD JUMPDEST PUSH1 0x20 PUSH1 0x40 MLOAD DUP1 DUP4 SUB DUP2 PUSH1 0x0 DUP8 GAS CALL ISZERO DUP1 ISZERO PUSH2 0x247A JUMPI RETURNDATASIZE PUSH1 0x0 DUP1 RETURNDATACOPY RETURNDATASIZE PUSH1 0x0 REVERT JUMPDEST POP POP POP POP PUSH1 0x40 MLOAD RETURNDATASIZE PUSH1 0x1F NOT PUSH1 0x1F DUP3 ADD AND DUP3 ADD DUP1 PUSH1 0x40 MSTORE POP DUP2 ADD SWAP1 PUSH2 0x249E SWAP2 SWAP1 PUSH2 0x5363 JUMP JUMPDEST DUP9 DUP9 DUP9 DUP9 PUSH2 0x21DC JUMP JUMPDEST SWAP9 SWAP8 POP POP POP POP POP POP POP POP JUMP JUMPDEST PUSH1 0x40 MLOAD PUSH4 0x509FF69B PUSH1 0xE0 SHL DUP2 MSTORE PUSH1 0x1 PUSH1 0x1 PUSH1 0xA0 SHL SUB DUP10 DUP2 AND PUSH1 0x4 DUP4 ADD MSTORE PUSH1 0x24 DUP3 ADD DUP10 SWAP1 MSTORE PUSH1 0x0 SWAP2 PUSH2 0x25A7 SWAP2 DUP13 SWAP2 PUSH32 0x0 SWAP1 SWAP2 AND SWAP1 PUSH4 0x509FF69B SWAP1 PUSH1 0x44 ADD JUMPDEST PUSH1 0x20 PUSH1 0x40 MLOAD DUP1 DUP4 SUB DUP2 PUSH1 0x0 DUP8 GAS CALL ISZERO DUP1 ISZERO PUSH2 0x252E JUMPI RETURNDATASIZE PUSH1 0x0 DUP1 RETURNDATACOPY RETURNDATASIZE PUSH1 0x0 REVERT JUMPDEST POP POP POP POP PUSH1 0x40 MLOAD RETURNDATASIZE PUSH1 0x1F NOT PUSH1 0x1F DUP3 ADD AND DUP3 ADD DUP1 PUSH1 0x40 MSTORE POP DUP2 ADD SWAP1 PUSH2 0x2552 SWAP2 SWAP1 PUSH2 0x5363 JUMP JUMPDEST PUSH1 0x40 MLOAD PUSH4 0x509FF69B PUSH1 0xE0 SHL DUP2 MSTORE PUSH1 0x1 PUSH1 0x1 PUSH1 0xA0 SHL SUB DUP12 DUP2 AND PUSH1 0x4 DUP4 ADD MSTORE PUSH1 0x24 DUP3 ADD DUP12 SWAP1 MSTORE PUSH32 0x0 AND SWAP1 PUSH4 0x509FF69B SWAP1 PUSH1 0x44 ADD PUSH2 0x245B JUMP JUMPDEST SWAP11 SWAP10 POP POP POP POP POP POP POP POP POP POP JUMP JUMPDEST PUSH2 0x25BD PUSH2 0x2F35 JUMP JUMPDEST PUSH2 0x70A PUSH1 0x0 DUP1 SLOAD PUSH2 0xFF00 NOT AND PUSH2 0x100 OR SWAP1 SSTORE JUMP JUMPDEST PUSH1 0x0 PUSH2 0x262C CALLER PUSH1 0x40 MLOAD PUSH4 0x509FF69B PUSH1 0xE0 SHL DUP2 MSTORE PUSH1 0x1 PUSH1 0x1 PUSH1 0xA0 SHL SUB DUP13 DUP2 AND PUSH1 0x4 DUP4 ADD MSTORE PUSH1 0x24 DUP3 ADD DUP13 SWAP1 MSTORE PUSH32 0x0 AND SWAP1 PUSH4 0x509FF69B SWAP1 PUSH1 0x44 ADD PUSH2 0x250F JUMP JUMPDEST SWAP10 SWAP9 POP POP POP POP POP POP POP POP POP JUMP JUMPDEST PUSH1 0x0 PUSH2 0x757 PUSH4 0xFFFFFFFF DUP4 AND PUSH5 0xE8D4A51000 PUSH2 0x52E0 JUMP JUMPDEST PUSH2 0x2658 PUSH2 0x1152 JUMP JUMPDEST ISZERO PUSH2 0x2675 JUMPI PUSH1 0x40 MLOAD PUSH3 0x461BCD PUSH1 0xE5 SHL DUP2 MSTORE PUSH1 0x4 ADD PUSH2 0x701 SWAP1 PUSH2 0x5315 JUMP JUMPDEST PUSH1 0x0 PUSH1 0x5 PUSH1 0x0 DUP4 DUP2 MSTORE PUSH1 0x20 ADD SWAP1 DUP2 MSTORE PUSH1 0x20 ADD PUSH1 0x0 KECCAK256 SWAP1 POP PUSH32 0x0 PUSH1 0x1 PUSH1 0x1 PUSH1 0xA0 SHL SUB AND PUSH4 0x4635229B PUSH1 0x40 MLOAD DUP2 PUSH4 0xFFFFFFFF AND PUSH1 0xE0 SHL DUP2 MSTORE PUSH1 0x4 ADD PUSH1 0x20 PUSH1 0x40 MLOAD DUP1 DUP4 SUB DUP2 DUP7 GAS STATICCALL ISZERO DUP1 ISZERO PUSH2 0x26EA JUMPI RETURNDATASIZE PUSH1 0x0 DUP1 RETURNDATACOPY RETURNDATASIZE PUSH1 0x0 REVERT JUMPDEST POP POP POP POP PUSH1 0x40 MLOAD RETURNDATASIZE PUSH1 0x1F NOT PUSH1 0x1F DUP3 ADD AND DUP3 ADD DUP1 PUSH1 0x40 MSTORE POP DUP2 ADD SWAP1 PUSH2 0x270E SWAP2 SWAP1 PUSH2 0x522E JUMP JUMPDEST DUP1 PUSH2 0x2725 JUMPI POP PUSH1 0x1 DUP2 ADD SLOAD PUSH1 0x1 PUSH1 0x1 PUSH1 0xA0 SHL SUB AND CALLER EQ JUMPDEST PUSH2 0x2741 JUMPI PUSH1 0x40 MLOAD PUSH3 0x461BCD PUSH1 0xE5 SHL DUP2 MSTORE PUSH1 0x4 ADD PUSH2 0x701 SWAP1 PUSH2 0x542C JUMP JUMPDEST PUSH2 0x274C DUP2 PUSH1 0x1 PUSH2 0x378B JUMP JUMPDEST PUSH2 0x722 DUP2 PUSH2 0x3C7D JUMP JUMPDEST PUSH2 0x275D PUSH2 0x2F35 JUMP JUMPDEST PUSH1 0x1 PUSH1 0x1 PUSH1 0xA0 SHL SUB DUP2 AND PUSH2 0x27C2 JUMPI PUSH1 0x40 MLOAD PUSH3 0x461BCD PUSH1 0xE5 SHL DUP2 MSTORE PUSH1 0x20 PUSH1 0x4 DUP3 ADD MSTORE PUSH1 0x26 PUSH1 0x24 DUP3 ADD MSTORE PUSH32 0x4F776E61626C653A206E6577206F776E657220697320746865207A65726F2061 PUSH1 0x44 DUP3 ADD MSTORE PUSH6 0x646472657373 PUSH1 0xD0 SHL PUSH1 0x64 DUP3 ADD MSTORE PUSH1 0x84 ADD PUSH2 0x701 JUMP JUMPDEST PUSH2 0x27CB DUP2 PUSH2 0x2F96 JUMP JUMPDEST POP JUMP JUMPDEST PUSH1 0x0 PUSH2 0x757 PUSH5 0x174876E800 DUP4 PUSH2 0x52BE JUMP JUMPDEST PUSH2 0x27E7 PUSH2 0x4CCC JUMP JUMPDEST PUSH1 0x0 DUP4 DUP2 MSTORE PUSH1 0x5 PUSH1 0x20 DUP2 DUP2 MSTORE PUSH1 0x40 DUP1 DUP5 KECCAK256 DUP2 MLOAD PUSH2 0x180 DUP2 ADD DUP4 MSTORE DUP2 SLOAD DUP2 MSTORE PUSH1 0x1 DUP3 ADD SLOAD PUSH1 0x1 PUSH1 0x1 PUSH1 0xA0 SHL SUB DUP2 AND SWAP5 DUP3 ADD SWAP5 SWAP1 SWAP5 MSTORE SWAP4 SWAP1 SWAP3 SWAP2 DUP5 ADD SWAP2 PUSH1 0x1 PUSH1 0xA0 SHL SWAP1 DIV PUSH1 0xFF AND SWAP1 DUP2 GT ISZERO PUSH2 0x283C JUMPI PUSH2 0x283C PUSH2 0x4E43 JUMP JUMPDEST PUSH1 0x5 DUP2 GT ISZERO PUSH2 0x284D JUMPI PUSH2 0x284D PUSH2 0x4E43 JUMP JUMPDEST DUP2 MSTORE PUSH1 0x1 DUP3 ADD SLOAD PUSH1 0x1 PUSH1 0xA8 SHL SWAP1 DIV PUSH1 0xFF AND PUSH1 0x20 DUP3 ADD MSTORE PUSH1 0x2 DUP3 ADD SLOAD PUSH1 0x40 DUP1 DUP4 ADD SWAP2 SWAP1 SWAP2 MSTORE PUSH1 0x3 DUP4 ADD SLOAD PUSH1 0x1 PUSH1 0x1 PUSH1 0x40 SHL SUB DUP1 DUP3 AND PUSH1 0x60 DUP6 ADD MSTORE PUSH1 0x1 PUSH1 0x40 SHL DUP1 DUP4 DIV DUP3 AND PUSH1 0x80 DUP7 ADD MSTORE PUSH1 0x1 PUSH1 0x80 SHL DUP1 DUP5 DIV DUP4 AND PUSH1 0xA0 DUP8 ADD MSTORE PUSH1 0x1 PUSH1 0xC0 SHL SWAP1 SWAP4 DIV DUP3 AND PUSH1 0xC0 DUP7 ADD MSTORE PUSH1 0x4 SWAP6 DUP7 ADD SLOAD DUP1 DUP4 AND PUSH1 0xE0 DUP8 ADD MSTORE SWAP1 DUP2 DIV DUP3 AND PUSH2 0x100 DUP7 ADD MSTORE SWAP2 SWAP1 SWAP2 DIV AND PUSH2 0x120 SWAP1 SWAP3 ADD SWAP2 SWAP1 SWAP2 MSTORE DUP3 MLOAD SWAP1 MLOAD PUSH4 0x657C7E09 PUSH1 0xE0 SHL DUP2 MSTORE SWAP2 DUP3 ADD MSTORE SWAP1 SWAP2 POP PUSH32 0x0 PUSH1 0x1 PUSH1 0x1 PUSH1 0xA0 SHL SUB AND SWAP1 PUSH4 0x657C7E09 SWAP1 PUSH1 0x24 ADD PUSH1 0x40 DUP1 MLOAD DUP1 DUP4 SUB DUP2 DUP7 GAS STATICCALL ISZERO DUP1 ISZERO PUSH2 0x2940 JUMPI RETURNDATASIZE PUSH1 0x0 DUP1 RETURNDATACOPY RETURNDATASIZE PUSH1 0x0 REVERT JUMPDEST POP POP POP POP PUSH1 0x40 MLOAD RETURNDATASIZE PUSH1 0x1F NOT PUSH1 0x1F DUP3 ADD AND DUP3 ADD DUP1 PUSH1 0x40 MSTORE POP DUP2 ADD SWAP1 PUSH2 0x2964 SWAP2 SWAP1 PUSH2 0x533F JUMP JUMPDEST PUSH1 0x40 DUP5 ADD MSTORE PUSH1 0x20 DUP4 ADD MSTORE PUSH1 0x80 DUP2 ADD MLOAD PUSH1 0x60 DUP4 ADD MSTORE DUP3 DUP1 PUSH2 0x29FD JUMPI POP PUSH1 0x60 DUP2 ADD MLOAD PUSH1 0x40 MLOAD PUSH4 0x36181B67 PUSH1 0xE1 SHL DUP2 MSTORE PUSH1 0xFF SWAP1 SWAP2 AND PUSH1 0x4 DUP3 ADD MSTORE PUSH20 0x0 SWAP1 PUSH4 0x6C3036CE SWAP1 PUSH1 0x24 ADD PUSH1 0x20 PUSH1 0x40 MLOAD DUP1 DUP4 SUB DUP2 DUP7 GAS DELEGATECALL ISZERO DUP1 ISZERO PUSH2 0x29D7 JUMPI RETURNDATASIZE PUSH1 0x0 DUP1 RETURNDATACOPY RETURNDATASIZE PUSH1 0x0 REVERT JUMPDEST POP POP POP POP PUSH1 0x40 MLOAD RETURNDATASIZE PUSH1 0x1F NOT PUSH1 0x1F DUP3 ADD AND DUP3 ADD DUP1 PUSH1 0x40 MSTORE POP DUP2 ADD SWAP1 PUSH2 0x29FB SWAP2 SWAP1 PUSH2 0x522E JUMP JUMPDEST ISZERO JUMPDEST ISZERO PUSH2 0x2E72 JUMPI PUSH1 0x20 DUP2 ADD MLOAD PUSH1 0x1 PUSH1 0x1 PUSH1 0xA0 SHL SUB AND DUP3 MSTORE PUSH1 0xA0 DUP2 ADD MLOAD PUSH2 0x2A20 SWAP1 PUSH2 0x21C2 JUMP JUMPDEST PUSH1 0x80 DUP4 ADD MSTORE PUSH1 0x60 DUP2 ADD MLOAD PUSH1 0x40 MLOAD PUSH4 0x2B2076E3 PUSH1 0xE1 SHL DUP2 MSTORE PUSH1 0xFF SWAP1 SWAP2 AND PUSH1 0x4 DUP3 ADD MSTORE PUSH20 0x0 SWAP1 PUSH4 0x5640EDC6 SWAP1 PUSH1 0x24 ADD PUSH1 0x20 PUSH1 0x40 MLOAD DUP1 DUP4 SUB DUP2 DUP7 GAS DELEGATECALL ISZERO DUP1 ISZERO PUSH2 0x2A7D JUMPI RETURNDATASIZE PUSH1 0x0 DUP1 RETURNDATACOPY RETURNDATASIZE PUSH1 0x0 REVERT JUMPDEST POP POP POP POP PUSH1 0x40 MLOAD RETURNDATASIZE PUSH1 0x1F NOT PUSH1 0x1F DUP3 ADD AND DUP3 ADD DUP1 PUSH1 0x40 MSTORE POP DUP2 ADD SWAP1 PUSH2 0x2AA1 SWAP2 SWAP1 PUSH2 0x522E JUMP JUMPDEST ISZERO PUSH2 0x2AB5 JUMPI PUSH1 0x80 DUP3 ADD MLOAD PUSH1 0xA0 DUP4 ADD MSTORE PUSH2 0x2BEF JUMP JUMPDEST PUSH2 0x120 DUP2 ADD MLOAD PUSH1 0x1 PUSH1 0x1 PUSH1 0x40 SHL SUB AND ISZERO PUSH2 0x2AE1 JUMPI PUSH2 0x2AD7 DUP2 PUSH2 0x120 ADD MLOAD PUSH2 0x21C2 JUMP JUMPDEST PUSH1 0xA0 DUP4 ADD MSTORE PUSH2 0x2BEF JUMP JUMPDEST PUSH1 0x40 MLOAD PUSH4 0x23AA9AB PUSH1 0xE6 SHL DUP2 MSTORE PUSH1 0x0 DUP1 MLOAD PUSH1 0x20 PUSH2 0x5748 DUP4 CODECOPY DUP2 MLOAD SWAP2 MSTORE PUSH1 0x4 DUP3 ADD MSTORE PUSH32 0x0 PUSH1 0x1 PUSH1 0x1 PUSH1 0xA0 SHL SUB AND SWAP1 PUSH4 0x8EAA6AC0 SWAP1 PUSH1 0x24 ADD PUSH1 0x20 PUSH1 0x40 MLOAD DUP1 DUP4 SUB DUP2 DUP7 GAS STATICCALL ISZERO DUP1 ISZERO PUSH2 0x2B53 JUMPI RETURNDATASIZE PUSH1 0x0 DUP1 RETURNDATACOPY RETURNDATASIZE PUSH1 0x0 REVERT JUMPDEST POP POP POP POP PUSH1 0x40 MLOAD RETURNDATASIZE PUSH1 0x1F NOT PUSH1 0x1F DUP3 ADD AND DUP3 ADD DUP1 PUSH1 0x40 MSTORE POP DUP2 ADD SWAP1 PUSH2 0x2B77 SWAP2 SWAP1 PUSH2 0x5250 JUMP JUMPDEST PUSH1 0x1 PUSH1 0x1 PUSH1 0xA0 SHL SUB AND PUSH4 0xA9BF9858 DUP4 PUSH1 0x20 ADD MLOAD PUSH1 0x40 MLOAD DUP3 PUSH4 0xFFFFFFFF AND PUSH1 0xE0 SHL DUP2 MSTORE PUSH1 0x4 ADD PUSH2 0x2BA8 SWAP2 DUP2 MSTORE PUSH1 0x20 ADD SWAP1 JUMP JUMPDEST PUSH1 0x20 PUSH1 0x40 MLOAD DUP1 DUP4 SUB DUP2 DUP7 GAS STATICCALL ISZERO DUP1 ISZERO PUSH2 0x2BC5 JUMPI RETURNDATASIZE PUSH1 0x0 DUP1 RETURNDATACOPY RETURNDATASIZE PUSH1 0x0 REVERT JUMPDEST POP POP POP POP PUSH1 0x40 MLOAD RETURNDATASIZE PUSH1 0x1F NOT PUSH1 0x1F DUP3 ADD AND DUP3 ADD DUP1 PUSH1 0x40 MSTORE POP DUP2 ADD SWAP1 PUSH2 0x2BE9 SWAP2 SWAP1 PUSH2 0x5363 JUMP JUMPDEST PUSH1 0xA0 DUP4 ADD MSTORE JUMPDEST PUSH2 0x2BFC DUP2 PUSH1 0xC0 ADD MLOAD PUSH2 0x21C2 JUMP JUMPDEST PUSH1 0xC0 DUP4 ADD MSTORE PUSH1 0xE0 DUP2 ADD MLOAD PUSH2 0x2C0F SWAP1 PUSH2 0x21C2 JUMP JUMPDEST PUSH1 0xE0 DUP4 ADD MSTORE PUSH1 0x60 DUP2 ADD MLOAD PUSH1 0x40 MLOAD PUSH4 0x5B7D0F69 PUSH1 0xE1 SHL DUP2 MSTORE PUSH1 0xFF SWAP1 SWAP2 AND PUSH1 0x4 DUP3 ADD MSTORE PUSH20 0x0 SWAP1 PUSH4 0xB6FA1ED2 SWAP1 PUSH1 0x24 ADD PUSH1 0x20 PUSH1 0x40 MLOAD DUP1 DUP4 SUB DUP2 DUP7 GAS DELEGATECALL ISZERO DUP1 ISZERO PUSH2 0x2C6C JUMPI RETURNDATASIZE PUSH1 0x0 DUP1 RETURNDATACOPY RETURNDATASIZE PUSH1 0x0 REVERT JUMPDEST POP POP POP POP PUSH1 0x40 MLOAD RETURNDATASIZE PUSH1 0x1F NOT PUSH1 0x1F DUP3 ADD AND DUP3 ADD DUP1 PUSH1 0x40 MSTORE POP DUP2 ADD SWAP1 PUSH2 0x2C90 SWAP2 SWAP1 PUSH2 0x522E JUMP JUMPDEST ISZERO PUSH2 0x2E5D JUMPI PUSH2 0x2CA3 DUP2 PUSH2 0x140 ADD MLOAD PUSH2 0x21C2 JUMP JUMPDEST PUSH2 0x120 DUP4 ADD MSTORE PUSH2 0x160 DUP2 ADD MLOAD PUSH2 0x2CB8 SWAP1 PUSH2 0x21C2 JUMP JUMPDEST PUSH2 0x140 DUP4 ADD MSTORE PUSH1 0x40 MLOAD PUSH4 0x23AA9AB PUSH1 0xE6 SHL DUP2 MSTORE PUSH32 0x3CB99135F7A7C088D9085B446345038A22A85F4E8FE072B0E1B66D97243E7458 PUSH1 0x4 DUP3 ADD MSTORE PUSH1 0x0 SWAP1 PUSH32 0x0 PUSH1 0x1 PUSH1 0x1 PUSH1 0xA0 SHL SUB AND SWAP1 PUSH4 0x8EAA6AC0 SWAP1 PUSH1 0x24 ADD PUSH1 0x20 PUSH1 0x40 MLOAD DUP1 DUP4 SUB DUP2 DUP7 GAS STATICCALL ISZERO DUP1 ISZERO PUSH2 0x2D45 JUMPI RETURNDATASIZE PUSH1 0x0 DUP1 RETURNDATACOPY RETURNDATASIZE PUSH1 0x0 REVERT JUMPDEST POP POP POP POP PUSH1 0x40 MLOAD RETURNDATASIZE PUSH1 0x1F NOT PUSH1 0x1F DUP3 ADD AND DUP3 ADD DUP1 PUSH1 0x40 MSTORE POP DUP2 ADD SWAP1 PUSH2 0x2D69 SWAP2 SWAP1 PUSH2 0x5250 JUMP JUMPDEST PUSH1 0x1 PUSH1 0x1 PUSH1 0xA0 SHL SUB AND PUSH4 0x6464B68A DUP5 PUSH1 0x20 ADD MLOAD DUP6 PUSH1 0x40 ADD MLOAD PUSH1 0x40 MLOAD DUP4 PUSH4 0xFFFFFFFF AND PUSH1 0xE0 SHL DUP2 MSTORE PUSH1 0x4 ADD PUSH2 0x2DA7 SWAP3 SWAP2 SWAP1 SWAP2 DUP3 MSTORE PUSH1 0x20 DUP3 ADD MSTORE PUSH1 0x40 ADD SWAP1 JUMP JUMPDEST PUSH1 0x60 PUSH1 0x40 MLOAD DUP1 DUP4 SUB DUP2 DUP7 GAS STATICCALL ISZERO DUP1 ISZERO PUSH2 0x2DC4 JUMPI RETURNDATASIZE PUSH1 0x0 DUP1 RETURNDATACOPY RETURNDATASIZE PUSH1 0x0 REVERT JUMPDEST POP POP POP POP PUSH1 0x40 MLOAD RETURNDATASIZE PUSH1 0x1F NOT PUSH1 0x1F DUP3 ADD AND DUP3 ADD DUP1 PUSH1 0x40 MSTORE POP DUP2 ADD SWAP1 PUSH2 0x2DE8 SWAP2 SWAP1 PUSH2 0x537C JUMP JUMPDEST POP SWAP2 POP POP PUSH1 0x0 DUP2 SWAP1 SUB PUSH2 0x2E31 JUMPI PUSH1 0x40 MLOAD PUSH3 0x461BCD PUSH1 0xE5 SHL DUP2 MSTORE PUSH1 0x20 PUSH1 0x4 DUP3 ADD MSTORE PUSH1 0x11 PUSH1 0x24 DUP3 ADD MSTORE PUSH17 0x145D5BDD194E88139BDD081C5D5BDD1959 PUSH1 0x7A SHL PUSH1 0x44 DUP3 ADD MSTORE PUSH1 0x64 ADD PUSH2 0x701 JUMP JUMPDEST PUSH2 0x140 DUP4 ADD MLOAD PUSH2 0x2E41 SWAP1 DUP3 PUSH2 0x52BE JUMP JUMPDEST DUP4 PUSH2 0x120 ADD MLOAD PUSH2 0x2E51 SWAP2 SWAP1 PUSH2 0x52E0 JUMP JUMPDEST PUSH2 0x100 DUP5 ADD MSTORE POP PUSH2 0x2E72 JUMP JUMPDEST PUSH2 0x2E6B DUP2 PUSH2 0x100 ADD MLOAD PUSH2 0x21C2 JUMP JUMPDEST PUSH2 0x100 DUP4 ADD MSTORE JUMPDEST PUSH1 0x40 MLOAD PUSH4 0x212D6CB PUSH1 0xE2 SHL DUP2 MSTORE PUSH20 0x0 SWAP1 PUSH4 0x84B5B2C SWAP1 PUSH2 0x2EA9 SWAP1 DUP5 SWAP1 PUSH1 0x4 ADD PUSH2 0x549C JUMP JUMPDEST PUSH1 0x20 PUSH1 0x40 MLOAD DUP1 DUP4 SUB DUP2 DUP7 GAS DELEGATECALL ISZERO DUP1 ISZERO PUSH2 0x2EC6 JUMPI RETURNDATASIZE PUSH1 0x0 DUP1 RETURNDATACOPY RETURNDATASIZE PUSH1 0x0 REVERT JUMPDEST POP POP POP POP PUSH1 0x40 MLOAD RETURNDATASIZE PUSH1 0x1F NOT PUSH1 0x1F DUP3 ADD AND DUP3 ADD DUP1 PUSH1 0x40 MSTORE POP DUP2 ADD SWAP1 PUSH2 0x2EEA SWAP2 SWAP1 PUSH2 0x5363 JUMP JUMPDEST PUSH2 0x160 DUP4 ADD MSTORE PUSH1 0x40 DUP2 ADD MLOAD PUSH2 0x180 DUP4 ADD SWAP1 PUSH1 0x5 DUP2 GT ISZERO PUSH2 0x2F0C JUMPI PUSH2 0x2F0C PUSH2 0x4E43 JUMP JUMPDEST SWAP1 DUP2 PUSH1 0x5 DUP2 GT ISZERO PUSH2 0x2F1F JUMPI PUSH2 0x2F1F PUSH2 0x4E43 JUMP JUMPDEST SWAP1 MSTORE POP PUSH1 0x60 ADD MLOAD PUSH1 0xFF AND PUSH2 0x1A0 DUP3 ADD MSTORE SWAP3 SWAP2 POP POP JUMP JUMPDEST PUSH1 0x0 SLOAD PUSH1 0x1 PUSH1 0x1 PUSH1 0xA0 SHL SUB PUSH3 0x10000 SWAP1 SWAP2 DIV AND CALLER EQ PUSH2 0x70A JUMPI PUSH1 0x40 MLOAD PUSH3 0x461BCD PUSH1 0xE5 SHL DUP2 MSTORE PUSH1 0x20 PUSH1 0x4 DUP3 ADD MSTORE PUSH1 0x1F PUSH1 0x24 DUP3 ADD MSTORE PUSH32 0x416C6C6F77616E63653A2063616C6C6572206D757374206265204F776E657200 PUSH1 0x44 DUP3 ADD MSTORE PUSH1 0x64 ADD PUSH2 0x701 JUMP JUMPDEST PUSH1 0x0 DUP1 SLOAD PUSH1 0x1 PUSH1 0x1 PUSH1 0xA0 SHL SUB DUP4 DUP2 AND PUSH3 0x10000 DUP2 DUP2 MUL PUSH3 0x10000 PUSH1 0x1 PUSH1 0xB0 SHL SUB NOT DUP6 AND OR DUP6 SSTORE PUSH1 0x40 MLOAD SWAP4 DIV SWAP2 SWAP1 SWAP2 AND SWAP3 SWAP1 SWAP2 DUP4 SWAP2 PUSH32 0x8BE0079C531659141344CD1FD0A4F28419497F9722A3DAAFE3B4186F6B6457E0 SWAP2 LOG3 POP POP JUMP JUMPDEST PUSH1 0x0 DUP1 DUP1 PUSH1 0x0 DUP1 PUSH8 0xDE0B6B3A7640000 PUSH2 0x3021 DUP11 PUSH1 0x3 ADD PUSH1 0x18 SWAP1 SLOAD SWAP1 PUSH2 0x100 EXP SWAP1 DIV PUSH1 0x1 PUSH1 0x1 PUSH1 0x40 SHL SUB AND PUSH2 0x21C2 JUMP JUMPDEST PUSH2 0x302B SWAP1 DUP9 PUSH2 0x52E0 JUMP JUMPDEST PUSH2 0x3035 SWAP2 SWAP1 PUSH2 0x52BE JUMP JUMPDEST DUP10 SLOAD PUSH1 0x40 MLOAD PUSH4 0x657C7E09 PUSH1 0xE0 SHL DUP2 MSTORE SWAP2 SWAP3 POP PUSH1 0x0 SWAP2 DUP3 SWAP2 PUSH1 0x1 PUSH1 0x1 PUSH1 0xA0 SHL SUB PUSH32 0x0 AND SWAP2 PUSH4 0x657C7E09 SWAP2 PUSH2 0x308D SWAP2 PUSH1 0x4 ADD SWAP1 DUP2 MSTORE PUSH1 0x20 ADD SWAP1 JUMP JUMPDEST PUSH1 0x40 DUP1 MLOAD DUP1 DUP4 SUB DUP2 DUP7 GAS STATICCALL ISZERO DUP1 ISZERO PUSH2 0x30A9 JUMPI RETURNDATASIZE PUSH1 0x0 DUP1 RETURNDATACOPY RETURNDATASIZE PUSH1 0x0 REVERT JUMPDEST POP POP POP POP PUSH1 0x40 MLOAD RETURNDATASIZE PUSH1 0x1F NOT PUSH1 0x1F DUP3 ADD AND DUP3 ADD DUP1 PUSH1 0x40 MSTORE POP DUP2 ADD SWAP1 PUSH2 0x30CD SWAP2 SWAP1 PUSH2 0x533F JUMP JUMPDEST PUSH1 0x1 DUP14 ADD SLOAD PUSH1 0x40 MLOAD PUSH4 0xF0340A37 PUSH1 0xE0 SHL DUP2 MSTORE PUSH1 0x1 PUSH1 0xA8 SHL SWAP1 SWAP2 DIV PUSH1 0xFF AND PUSH1 0x4 DUP3 ADD MSTORE SWAP2 SWAP4 POP SWAP2 POP PUSH20 0x0 SWAP1 PUSH4 0xF0340A37 SWAP1 PUSH1 0x24 ADD PUSH1 0x20 PUSH1 0x40 MLOAD DUP1 DUP4 SUB DUP2 DUP7 GAS DELEGATECALL ISZERO DUP1 ISZERO PUSH2 0x3130 JUMPI RETURNDATASIZE PUSH1 0x0 DUP1 RETURNDATACOPY RETURNDATASIZE PUSH1 0x0 REVERT JUMPDEST POP POP POP POP PUSH1 0x40 MLOAD RETURNDATASIZE PUSH1 0x1F NOT PUSH1 0x1F DUP3 ADD AND DUP3 ADD DUP1 PUSH1 0x40 MSTORE POP DUP2 ADD SWAP1 PUSH2 0x3154 SWAP2 SWAP1 PUSH2 0x522E JUMP JUMPDEST ISZERO PUSH2 0x325C JUMPI PUSH1 0x40 MLOAD PUSH4 0x23AA9AB PUSH1 0xE6 SHL DUP2 MSTORE PUSH1 0x0 DUP1 MLOAD PUSH1 0x20 PUSH2 0x5748 DUP4 CODECOPY DUP2 MLOAD SWAP2 MSTORE PUSH1 0x4 DUP3 ADD MSTORE PUSH32 0x0 PUSH1 0x1 PUSH1 0x1 PUSH1 0xA0 SHL SUB AND SWAP1 PUSH4 0x8EAA6AC0 SWAP1 PUSH1 0x24 ADD PUSH1 0x20 PUSH1 0x40 MLOAD DUP1 DUP4 SUB DUP2 DUP7 GAS STATICCALL ISZERO DUP1 ISZERO PUSH2 0x31CB JUMPI RETURNDATASIZE PUSH1 0x0 DUP1 RETURNDATACOPY RETURNDATASIZE PUSH1 0x0 REVERT JUMPDEST POP POP POP POP PUSH1 0x40 MLOAD RETURNDATASIZE PUSH1 0x1F NOT PUSH1 0x1F DUP3 ADD AND DUP3 ADD DUP1 PUSH1 0x40 MSTORE POP DUP2 ADD SWAP1 PUSH2 0x31EF SWAP2 SWAP1 PUSH2 0x5250 JUMP JUMPDEST PUSH1 0x1 DUP13 ADD SLOAD PUSH1 0x40 MLOAD PUSH4 0x255318AF PUSH1 0xE2 SHL DUP2 MSTORE PUSH1 0x1 PUSH1 0x1 PUSH1 0xA0 SHL SUB SWAP3 DUP4 AND SWAP3 PUSH4 0x954C62BC SWAP3 PUSH2 0x3229 SWAP3 DUP8 SWAP3 SWAP1 SWAP2 AND SWAP1 ADDRESS SWAP1 DUP15 SWAP1 PUSH1 0x4 ADD PUSH2 0x5477 JUMP JUMPDEST PUSH1 0x0 PUSH1 0x40 MLOAD DUP1 DUP4 SUB DUP2 PUSH1 0x0 DUP8 DUP1 EXTCODESIZE ISZERO DUP1 ISZERO PUSH2 0x3243 JUMPI PUSH1 0x0 DUP1 REVERT JUMPDEST POP GAS CALL ISZERO DUP1 ISZERO PUSH2 0x3257 JUMPI RETURNDATASIZE PUSH1 0x0 DUP1 RETURNDATACOPY RETURNDATASIZE PUSH1 0x0 REVERT JUMPDEST POP POP POP POP JUMPDEST DUP9 ISZERO PUSH2 0x335C JUMPI PUSH1 0x40 MLOAD PUSH4 0x23AA9AB PUSH1 0xE6 SHL DUP2 MSTORE PUSH1 0x0 DUP1 MLOAD PUSH1 0x20 PUSH2 0x5748 DUP4 CODECOPY DUP2 MLOAD SWAP2 MSTORE PUSH1 0x4 DUP3 ADD MSTORE PUSH32 0x0 PUSH1 0x1 PUSH1 0x1 PUSH1 0xA0 SHL SUB AND SWAP1 PUSH4 0x8EAA6AC0 SWAP1 PUSH1 0x24 ADD PUSH1 0x20 PUSH1 0x40 MLOAD DUP1 DUP4 SUB DUP2 DUP7 GAS STATICCALL ISZERO DUP1 ISZERO PUSH2 0x32D4 JUMPI RETURNDATASIZE PUSH1 0x0 DUP1 RETURNDATACOPY RETURNDATASIZE PUSH1 0x0 REVERT JUMPDEST POP POP POP POP PUSH1 0x40 MLOAD RETURNDATASIZE PUSH1 0x1F NOT PUSH1 0x1F DUP3 ADD AND DUP3 ADD DUP1 PUSH1 0x40 MSTORE POP DUP2 ADD SWAP1 PUSH2 0x32F8 SWAP2 SWAP1 PUSH2 0x5250 JUMP JUMPDEST PUSH1 0x1 PUSH1 0x1 PUSH1 0xA0 SHL SUB AND PUSH4 0x954C62BC DUP3 DUP13 ADDRESS DUP8 PUSH1 0x40 MLOAD DUP6 PUSH4 0xFFFFFFFF AND PUSH1 0xE0 SHL DUP2 MSTORE PUSH1 0x4 ADD PUSH2 0x3329 SWAP5 SWAP4 SWAP3 SWAP2 SWAP1 PUSH2 0x5477 JUMP JUMPDEST PUSH1 0x0 PUSH1 0x40 MLOAD DUP1 DUP4 SUB DUP2 PUSH1 0x0 DUP8 DUP1 EXTCODESIZE ISZERO DUP1 ISZERO PUSH2 0x3343 JUMPI PUSH1 0x0 DUP1 REVERT JUMPDEST POP GAS CALL ISZERO DUP1 ISZERO PUSH2 0x3357 JUMPI RETURNDATASIZE PUSH1 0x0 DUP1 RETURNDATACOPY RETURNDATASIZE PUSH1 0x0 REVERT JUMPDEST POP POP POP POP JUMPDEST DUP6 ISZERO PUSH2 0x3465 JUMPI PUSH1 0x40 MLOAD PUSH4 0x23AA9AB PUSH1 0xE6 SHL DUP2 MSTORE PUSH1 0x0 DUP1 MLOAD PUSH1 0x20 PUSH2 0x5748 DUP4 CODECOPY DUP2 MLOAD SWAP2 MSTORE PUSH1 0x4 DUP3 ADD MSTORE PUSH32 0x0 PUSH1 0x1 PUSH1 0x1 PUSH1 0xA0 SHL SUB AND SWAP1 PUSH4 0x8EAA6AC0 SWAP1 PUSH1 0x24 ADD PUSH1 0x20 PUSH1 0x40 MLOAD DUP1 DUP4 SUB DUP2 DUP7 GAS STATICCALL ISZERO DUP1 ISZERO PUSH2 0x33D4 JUMPI RETURNDATASIZE PUSH1 0x0 DUP1 RETURNDATACOPY RETURNDATASIZE PUSH1 0x0 REVERT JUMPDEST POP POP POP POP PUSH1 0x40 MLOAD RETURNDATASIZE PUSH1 0x1F NOT PUSH1 0x1F DUP3 ADD AND DUP3 ADD DUP1 PUSH1 0x40 MSTORE POP DUP2 ADD SWAP1 PUSH2 0x33F8 SWAP2 SWAP1 PUSH2 0x5250 JUMP JUMPDEST PUSH1 0x1 DUP13 ADD SLOAD PUSH1 0x40 MLOAD PUSH4 0x1C9619A7 PUSH1 0xE0 SHL DUP2 MSTORE PUSH1 0x1 PUSH1 0x1 PUSH1 0xA0 SHL SUB SWAP3 DUP4 AND SWAP3 PUSH4 0x1C9619A7 SWAP3 PUSH2 0x3432 SWAP3 DUP8 SWAP3 SWAP1 SWAP2 AND SWAP1 DUP13 SWAP1 DUP13 SWAP1 PUSH1 0x4 ADD PUSH2 0x5477 JUMP JUMPDEST PUSH1 0x0 PUSH1 0x40 MLOAD DUP1 DUP4 SUB DUP2 PUSH1 0x0 DUP8 DUP1 EXTCODESIZE ISZERO DUP1 ISZERO PUSH2 0x344C JUMPI PUSH1 0x0 DUP1 REVERT JUMPDEST POP GAS CALL ISZERO DUP1 ISZERO PUSH2 0x3460 JUMPI RETURNDATASIZE PUSH1 0x0 DUP1 RETURNDATACOPY RETURNDATASIZE PUSH1 0x0 REVERT JUMPDEST POP POP POP POP JUMPDEST DUP4 ISZERO PUSH2 0x3565 JUMPI PUSH1 0x40 MLOAD PUSH4 0x23AA9AB PUSH1 0xE6 SHL DUP2 MSTORE PUSH1 0x0 DUP1 MLOAD PUSH1 0x20 PUSH2 0x5748 DUP4 CODECOPY DUP2 MLOAD SWAP2 MSTORE PUSH1 0x4 DUP3 ADD MSTORE PUSH32 0x0 PUSH1 0x1 PUSH1 0x1 PUSH1 0xA0 SHL SUB AND SWAP1 PUSH4 0x8EAA6AC0 SWAP1 PUSH1 0x24 ADD PUSH1 0x20 PUSH1 0x40 MLOAD DUP1 DUP4 SUB DUP2 DUP7 GAS STATICCALL ISZERO DUP1 ISZERO PUSH2 0x34DD JUMPI RETURNDATASIZE PUSH1 0x0 DUP1 RETURNDATACOPY RETURNDATASIZE PUSH1 0x0 REVERT JUMPDEST POP POP POP POP PUSH1 0x40 MLOAD RETURNDATASIZE PUSH1 0x1F NOT PUSH1 0x1F DUP3 ADD AND DUP3 ADD DUP1 PUSH1 0x40 MSTORE POP DUP2 ADD SWAP1 PUSH2 0x3501 SWAP2 SWAP1 PUSH2 0x5250 JUMP JUMPDEST PUSH1 0x1 PUSH1 0x1 PUSH1 0xA0 SHL SUB AND PUSH4 0x1C9619A7 DUP3 DUP13 DUP9 DUP9 PUSH1 0x40 MLOAD DUP6 PUSH4 0xFFFFFFFF AND PUSH1 0xE0 SHL DUP2 MSTORE PUSH1 0x4 ADD PUSH2 0x3532 SWAP5 SWAP4 SWAP3 SWAP2 SWAP1 PUSH2 0x5477 JUMP JUMPDEST PUSH1 0x0 PUSH1 0x40 MLOAD DUP1 DUP4 SUB DUP2 PUSH1 0x0 DUP8 DUP1 EXTCODESIZE ISZERO DUP1 ISZERO PUSH2 0x354C JUMPI PUSH1 0x0 DUP1 REVERT JUMPDEST POP GAS CALL ISZERO DUP1 ISZERO PUSH2 0x3560 JUMPI RETURNDATASIZE PUSH1 0x0 DUP1 RETURNDATACOPY RETURNDATASIZE PUSH1 0x0 REVERT JUMPDEST POP POP POP POP JUMPDEST PUSH1 0x40 MLOAD PUSH4 0x23AA9AB PUSH1 0xE6 SHL DUP2 MSTORE PUSH1 0x0 DUP1 MLOAD PUSH1 0x20 PUSH2 0x5748 DUP4 CODECOPY DUP2 MLOAD SWAP2 MSTORE PUSH1 0x4 DUP3 ADD MSTORE PUSH32 0x0 PUSH1 0x1 PUSH1 0x1 PUSH1 0xA0 SHL SUB AND SWAP1 PUSH4 0x8EAA6AC0 SWAP1 PUSH1 0x24 ADD PUSH1 0x20 PUSH1 0x40 MLOAD DUP1 DUP4 SUB DUP2 DUP7 GAS STATICCALL ISZERO DUP1 ISZERO PUSH2 0x35D7 JUMPI RETURNDATASIZE PUSH1 0x0 DUP1 RETURNDATACOPY RETURNDATASIZE PUSH1 0x0 REVERT JUMPDEST POP POP POP POP PUSH1 0x40 MLOAD RETURNDATASIZE PUSH1 0x1F NOT PUSH1 0x1F DUP3 ADD AND DUP3 ADD DUP1 PUSH1 0x40 MSTORE POP DUP2 ADD SWAP1 PUSH2 0x35FB SWAP2 SWAP1 PUSH2 0x5250 JUMP JUMPDEST PUSH1 0x1 DUP13 ADD SLOAD PUSH1 0x1 PUSH1 0x1 PUSH1 0xA0 SHL SUB SWAP2 DUP3 AND SWAP2 PUSH4 0x1C9619A7 SWAP2 DUP6 SWAP2 AND DUP14 PUSH2 0x3620 DUP12 DUP15 PUSH2 0x53AA JUMP JUMPDEST PUSH1 0x40 MLOAD DUP6 PUSH4 0xFFFFFFFF AND PUSH1 0xE0 SHL DUP2 MSTORE PUSH1 0x4 ADD PUSH2 0x363F SWAP5 SWAP4 SWAP3 SWAP2 SWAP1 PUSH2 0x5477 JUMP JUMPDEST PUSH1 0x0 PUSH1 0x40 MLOAD DUP1 DUP4 SUB DUP2 PUSH1 0x0 DUP8 DUP1 EXTCODESIZE ISZERO DUP1 ISZERO PUSH2 0x3659 JUMPI PUSH1 0x0 DUP1 REVERT JUMPDEST POP GAS CALL ISZERO DUP1 ISZERO PUSH2 0x366D JUMPI RETURNDATASIZE PUSH1 0x0 DUP1 RETURNDATACOPY RETURNDATASIZE PUSH1 0x0 REVERT JUMPDEST POP POP PUSH1 0x40 MLOAD PUSH4 0x23AA9AB PUSH1 0xE6 SHL DUP2 MSTORE PUSH1 0x0 DUP1 MLOAD PUSH1 0x20 PUSH2 0x5748 DUP4 CODECOPY DUP2 MLOAD SWAP2 MSTORE PUSH1 0x4 DUP3 ADD MSTORE PUSH32 0x0 PUSH1 0x1 PUSH1 0x1 PUSH1 0xA0 SHL SUB AND SWAP3 POP PUSH4 0x8EAA6AC0 SWAP2 POP PUSH1 0x24 ADD PUSH1 0x20 PUSH1 0x40 MLOAD DUP1 DUP4 SUB DUP2 DUP7 GAS STATICCALL ISZERO DUP1 ISZERO PUSH2 0x36E3 JUMPI RETURNDATASIZE PUSH1 0x0 DUP1 RETURNDATACOPY RETURNDATASIZE PUSH1 0x0 REVERT JUMPDEST POP POP POP POP PUSH1 0x40 MLOAD RETURNDATASIZE PUSH1 0x1F NOT PUSH1 0x1F DUP3 ADD AND DUP3 ADD DUP1 PUSH1 0x40 MSTORE POP DUP2 ADD SWAP1 PUSH2 0x3707 SWAP2 SWAP1 PUSH2 0x5250 JUMP JUMPDEST PUSH1 0x1 DUP13 ADD SLOAD PUSH1 0x1 PUSH1 0x1 PUSH1 0xA0 SHL SUB SWAP2 DUP3 AND SWAP2 PUSH4 0x1C9619A7 SWAP2 DUP5 SWAP2 DUP15 SWAP2 AND PUSH2 0x372D DUP10 DUP10 PUSH2 0x53AA JUMP JUMPDEST PUSH1 0x40 MLOAD DUP6 PUSH4 0xFFFFFFFF AND PUSH1 0xE0 SHL DUP2 MSTORE PUSH1 0x4 ADD PUSH2 0x374C SWAP5 SWAP4 SWAP3 SWAP2 SWAP1 PUSH2 0x5477 JUMP JUMPDEST PUSH1 0x0 PUSH1 0x40 MLOAD DUP1 DUP4 SUB DUP2 PUSH1 0x0 DUP8 DUP1 EXTCODESIZE ISZERO DUP1 ISZERO PUSH2 0x3766 JUMPI PUSH1 0x0 DUP1 REVERT JUMPDEST POP GAS CALL ISZERO DUP1 ISZERO PUSH2 0x377A JUMPI RETURNDATASIZE PUSH1 0x0 DUP1 RETURNDATACOPY RETURNDATASIZE PUSH1 0x0 REVERT JUMPDEST POP POP POP POP POP POP POP POP POP POP POP POP POP POP POP JUMP JUMPDEST PUSH1 0x0 DUP2 PUSH1 0x5 DUP2 GT ISZERO PUSH2 0x379F JUMPI PUSH2 0x379F PUSH2 0x4E43 JUMP JUMPDEST GT DUP1 ISZERO PUSH2 0x37BE JUMPI POP PUSH1 0x3 DUP2 PUSH1 0x5 DUP2 GT ISZERO PUSH2 0x37BB JUMPI PUSH2 0x37BB PUSH2 0x4E43 JUMP JUMPDEST GT ISZERO JUMPDEST DUP1 ISZERO PUSH2 0x37EA JUMPI POP PUSH1 0x4 PUSH1 0x1 DUP4 ADD SLOAD PUSH1 0x1 PUSH1 0xA0 SHL SWAP1 DIV PUSH1 0xFF AND PUSH1 0x5 DUP2 GT ISZERO PUSH2 0x37E7 JUMPI PUSH2 0x37E7 PUSH2 0x4E43 JUMP JUMPDEST LT ISZERO JUMPDEST PUSH2 0x3836 JUMPI PUSH1 0x40 MLOAD PUSH3 0x461BCD PUSH1 0xE5 SHL DUP2 MSTORE PUSH1 0x20 PUSH1 0x4 DUP3 ADD MSTORE PUSH1 0x1D PUSH1 0x24 DUP3 ADD MSTORE PUSH32 0x5F6F726465725465726D696E6174652073746174652070726F626C656D000000 PUSH1 0x44 DUP3 ADD MSTORE PUSH1 0x64 ADD PUSH2 0x701 JUMP JUMPDEST DUP2 SLOAD PUSH1 0x40 MLOAD PUSH4 0x657C7E09 PUSH1 0xE0 SHL DUP2 MSTORE PUSH1 0x4 DUP2 ADD SWAP2 SWAP1 SWAP2 MSTORE PUSH1 0x0 SWAP1 DUP2 SWAP1 PUSH32 0x0 PUSH1 0x1 PUSH1 0x1 PUSH1 0xA0 SHL SUB AND SWAP1 PUSH4 0x657C7E09 SWAP1 PUSH1 0x24 ADD PUSH1 0x40 DUP1 MLOAD DUP1 DUP4 SUB DUP2 DUP7 GAS STATICCALL ISZERO DUP1 ISZERO PUSH2 0x38A2 JUMPI RETURNDATASIZE PUSH1 0x0 DUP1 RETURNDATACOPY RETURNDATASIZE PUSH1 0x0 REVERT JUMPDEST POP POP POP POP PUSH1 0x40 MLOAD RETURNDATASIZE PUSH1 0x1F NOT PUSH1 0x1F DUP3 ADD AND DUP3 ADD DUP1 PUSH1 0x40 MSTORE POP DUP2 ADD SWAP1 PUSH2 0x38C6 SWAP2 SWAP1 PUSH2 0x533F JUMP JUMPDEST PUSH1 0x1 DUP7 ADD DUP1 SLOAD SWAP3 SWAP5 POP SWAP1 SWAP3 POP DUP5 SWAP2 PUSH1 0xFF PUSH1 0xA0 SHL NOT AND PUSH1 0x1 PUSH1 0xA0 SHL DUP4 PUSH1 0x5 DUP2 GT ISZERO PUSH2 0x38F2 JUMPI PUSH2 0x38F2 PUSH2 0x4E43 JUMP JUMPDEST MUL OR SWAP1 SSTORE POP PUSH1 0x1 DUP5 ADD SLOAD PUSH1 0x40 MLOAD PUSH4 0xF0340A37 PUSH1 0xE0 SHL DUP2 MSTORE PUSH1 0x1 PUSH1 0xA8 SHL SWAP1 SWAP2 DIV PUSH1 0xFF AND PUSH1 0x4 DUP3 ADD MSTORE PUSH20 0x0 SWAP1 PUSH4 0xF0340A37 SWAP1 PUSH1 0x24 ADD PUSH1 0x20 PUSH1 0x40 MLOAD DUP1 DUP4 SUB DUP2 DUP7 GAS DELEGATECALL ISZERO DUP1 ISZERO PUSH2 0x3955 JUMPI RETURNDATASIZE PUSH1 0x0 DUP1 RETURNDATACOPY RETURNDATASIZE PUSH1 0x0 REVERT JUMPDEST POP POP POP POP PUSH1 0x40 MLOAD RETURNDATASIZE PUSH1 0x1F NOT PUSH1 0x1F DUP3 ADD AND DUP3 ADD DUP1 PUSH1 0x40 MSTORE POP DUP2 ADD SWAP1 PUSH2 0x3979 SWAP2 SWAP1 PUSH2 0x522E JUMP JUMPDEST ISZERO PUSH2 0x3AB0 JUMPI PUSH1 0x40 MLOAD PUSH4 0x23AA9AB PUSH1 0xE6 SHL DUP2 MSTORE PUSH1 0x0 DUP1 MLOAD PUSH1 0x20 PUSH2 0x5748 DUP4 CODECOPY DUP2 MLOAD SWAP2 MSTORE PUSH1 0x4 DUP3 ADD MSTORE PUSH32 0x0 PUSH1 0x1 PUSH1 0x1 PUSH1 0xA0 SHL SUB AND SWAP1 PUSH4 0x8EAA6AC0 SWAP1 PUSH1 0x24 ADD PUSH1 0x20 PUSH1 0x40 MLOAD DUP1 DUP4 SUB DUP2 DUP7 GAS STATICCALL ISZERO DUP1 ISZERO PUSH2 0x39F0 JUMPI RETURNDATASIZE PUSH1 0x0 DUP1 RETURNDATACOPY RETURNDATASIZE PUSH1 0x0 REVERT JUMPDEST POP POP POP POP PUSH1 0x40 MLOAD RETURNDATASIZE PUSH1 0x1F NOT PUSH1 0x1F DUP3 ADD AND DUP3 ADD DUP1 PUSH1 0x40 MSTORE POP DUP2 ADD SWAP1 PUSH2 0x3A14 SWAP2 SWAP1 PUSH2 0x5250 JUMP JUMPDEST PUSH1 0x1 DUP6 ADD SLOAD PUSH1 0x3 DUP7 ADD SLOAD PUSH1 0x1 PUSH1 0x1 PUSH1 0xA0 SHL SUB SWAP3 DUP4 AND SWAP3 PUSH4 0x954C62BC SWAP3 DUP6 SWAP3 SWAP2 AND SWAP1 ADDRESS SWAP1 PUSH2 0x3A5E SWAP1 PUSH2 0x45F SWAP1 PUSH1 0x1 PUSH1 0x1 PUSH1 0x40 SHL SUB PUSH1 0x1 PUSH1 0x40 SHL DUP3 DIV DUP2 AND SWAP2 PUSH1 0x1 PUSH1 0x80 SHL SWAP1 DIV AND PUSH2 0x53D9 JUMP JUMPDEST PUSH1 0x40 MLOAD DUP6 PUSH4 0xFFFFFFFF AND PUSH1 0xE0 SHL DUP2 MSTORE PUSH1 0x4 ADD PUSH2 0x3A7D SWAP5 SWAP4 SWAP3 SWAP2 SWAP1 PUSH2 0x5477 JUMP JUMPDEST PUSH1 0x0 PUSH1 0x40 MLOAD DUP1 DUP4 SUB DUP2 PUSH1 0x0 DUP8 DUP1 EXTCODESIZE ISZERO DUP1 ISZERO PUSH2 0x3A97 JUMPI PUSH1 0x0 DUP1 REVERT JUMPDEST POP GAS CALL ISZERO DUP1 ISZERO PUSH2 0x3AAB JUMPI RETURNDATASIZE PUSH1 0x0 DUP1 RETURNDATACOPY RETURNDATASIZE PUSH1 0x0 REVERT JUMPDEST POP POP POP POP JUMPDEST DUP4 SLOAD PUSH1 0x0 SWAP1 DUP2 MSTORE PUSH1 0x6 PUSH1 0x20 MSTORE PUSH1 0x40 SWAP1 DUP2 SWAP1 KECCAK256 PUSH1 0x2 DUP7 ADD SLOAD SWAP2 MLOAD PUSH4 0xCEF945B PUSH1 0xE3 SHL DUP2 MSTORE PUSH20 0x0 SWAP3 PUSH4 0x677CA2D8 SWAP3 PUSH2 0x3B07 SWAP3 SWAP1 SWAP2 SWAP1 PUSH1 0x4 ADD SWAP2 DUP3 MSTORE PUSH1 0x20 DUP3 ADD MSTORE PUSH1 0x40 ADD SWAP1 JUMP JUMPDEST PUSH1 0x20 PUSH1 0x40 MLOAD DUP1 DUP4 SUB DUP2 DUP7 GAS DELEGATECALL ISZERO DUP1 ISZERO PUSH2 0x3B24 JUMPI RETURNDATASIZE PUSH1 0x0 DUP1 RETURNDATACOPY RETURNDATASIZE PUSH1 0x0 REVERT JUMPDEST POP POP POP POP PUSH1 0x40 MLOAD RETURNDATASIZE PUSH1 0x1F NOT PUSH1 0x1F DUP3 ADD AND DUP3 ADD DUP1 PUSH1 0x40 MSTORE POP DUP2 ADD SWAP1 PUSH2 0x3B48 SWAP2 SWAP1 PUSH2 0x522E JUMP JUMPDEST POP PUSH1 0x0 DUP3 DUP2 MSTORE PUSH1 0x7 PUSH1 0x20 MSTORE PUSH1 0x40 SWAP1 DUP2 SWAP1 KECCAK256 PUSH1 0x2 DUP7 ADD SLOAD SWAP2 MLOAD PUSH4 0xCEF945B PUSH1 0xE3 SHL DUP2 MSTORE PUSH20 0x0 SWAP3 PUSH4 0x677CA2D8 SWAP3 PUSH2 0x3B9E SWAP3 SWAP1 SWAP2 SWAP1 PUSH1 0x4 ADD SWAP2 DUP3 MSTORE PUSH1 0x20 DUP3 ADD MSTORE PUSH1 0x40 ADD SWAP1 JUMP JUMPDEST PUSH1 0x20 PUSH1 0x40 MLOAD DUP1 DUP4 SUB DUP2 DUP7 GAS DELEGATECALL ISZERO DUP1 ISZERO PUSH2 0x3BBB JUMPI RETURNDATASIZE PUSH1 0x0 DUP1 RETURNDATACOPY RETURNDATASIZE PUSH1 0x0 REVERT JUMPDEST POP POP POP POP PUSH1 0x40 MLOAD RETURNDATASIZE PUSH1 0x1F NOT PUSH1 0x1F DUP3 ADD AND DUP3 ADD DUP1 PUSH1 0x40 MSTORE POP DUP2 ADD SWAP1 PUSH2 0x3BDF SWAP2 SWAP1 PUSH2 0x522E JUMP JUMPDEST POP PUSH1 0x0 DUP2 DUP2 MSTORE PUSH1 0x8 PUSH1 0x20 MSTORE PUSH1 0x40 SWAP1 DUP2 SWAP1 KECCAK256 PUSH1 0x2 DUP7 ADD SLOAD SWAP2 MLOAD PUSH4 0xCEF945B PUSH1 0xE3 SHL DUP2 MSTORE PUSH20 0x0 SWAP3 PUSH4 0x677CA2D8 SWAP3 PUSH2 0x3C35 SWAP3 SWAP1 SWAP2 SWAP1 PUSH1 0x4 ADD SWAP2 DUP3 MSTORE PUSH1 0x20 DUP3 ADD MSTORE PUSH1 0x40 ADD SWAP1 JUMP JUMPDEST PUSH1 0x20 PUSH1 0x40 MLOAD DUP1 DUP4 SUB DUP2 DUP7 GAS DELEGATECALL ISZERO DUP1 ISZERO PUSH2 0x3C52 JUMPI RETURNDATASIZE PUSH1 0x0 DUP1 RETURNDATACOPY RETURNDATASIZE PUSH1 0x0 REVERT JUMPDEST POP POP POP POP PUSH1 0x40 MLOAD RETURNDATASIZE PUSH1 0x1F NOT PUSH1 0x1F DUP3 ADD AND DUP3 ADD DUP1 PUSH1 0x40 MSTORE POP DUP2 ADD SWAP1 PUSH2 0x3C76 SWAP2 SWAP1 PUSH2 0x522E JUMP JUMPDEST POP POP POP POP POP JUMP JUMPDEST PUSH1 0x2 DUP2 ADD SLOAD PUSH1 0x40 MLOAD PUSH4 0xCEF945B PUSH1 0xE3 SHL DUP2 MSTORE PUSH1 0x4 DUP1 DUP3 ADD MSTORE PUSH1 0x24 DUP2 ADD SWAP2 SWAP1 SWAP2 MSTORE PUSH20 0x0 SWAP1 PUSH4 0x677CA2D8 SWAP1 PUSH1 0x44 ADD PUSH1 0x20 PUSH1 0x40 MLOAD DUP1 DUP4 SUB DUP2 DUP7 GAS DELEGATECALL ISZERO DUP1 ISZERO PUSH2 0x3CD9 JUMPI RETURNDATASIZE PUSH1 0x0 DUP1 RETURNDATACOPY RETURNDATASIZE PUSH1 0x0 REVERT JUMPDEST POP POP POP POP PUSH1 0x40 MLOAD RETURNDATASIZE PUSH1 0x1F NOT PUSH1 0x1F DUP3 ADD AND DUP3 ADD DUP1 PUSH1 0x40 MSTORE POP DUP2 ADD SWAP1 PUSH2 0x3CFD SWAP2 SWAP1 PUSH2 0x522E JUMP JUMPDEST POP NUMBER PUSH1 0x0 SWAP1 DUP2 MSTORE PUSH1 0x9 PUSH1 0x20 SWAP1 DUP2 MSTORE PUSH1 0x40 DUP3 KECCAK256 PUSH1 0x2 SWAP1 SWAP4 ADD SLOAD DUP4 SLOAD PUSH1 0x1 DUP2 ADD DUP6 SSTORE SWAP4 DUP4 MSTORE SWAP2 KECCAK256 SWAP1 SWAP2 ADD SSTORE JUMP JUMPDEST PUSH1 0x40 MLOAD PUSH4 0xE29A669 PUSH1 0xE2 SHL DUP2 MSTORE PUSH1 0x4 DUP2 ADD DUP3 SWAP1 MSTORE PUSH1 0x1 PUSH1 0x1 PUSH1 0xA0 SHL SUB PUSH32 0x0 AND SWAP1 PUSH4 0x38A699A4 SWAP1 PUSH1 0x24 ADD PUSH1 0x20 PUSH1 0x40 MLOAD DUP1 DUP4 SUB DUP2 DUP7 GAS STATICCALL ISZERO DUP1 ISZERO PUSH2 0x3D8D JUMPI RETURNDATASIZE PUSH1 0x0 DUP1 RETURNDATACOPY RETURNDATASIZE PUSH1 0x0 REVERT JUMPDEST POP POP POP POP PUSH1 0x40 MLOAD RETURNDATASIZE PUSH1 0x1F NOT PUSH1 0x1F DUP3 ADD AND DUP3 ADD DUP1 PUSH1 0x40 MSTORE POP DUP2 ADD SWAP1 PUSH2 0x3DB1 SWAP2 SWAP1 PUSH2 0x522E JUMP JUMPDEST PUSH2 0x3DB8 JUMPI POP JUMP JUMPDEST PUSH1 0x40 MLOAD PUSH4 0x657C7E09 PUSH1 0xE0 SHL DUP2 MSTORE PUSH1 0x4 DUP2 ADD DUP3 SWAP1 MSTORE PUSH1 0x0 SWAP1 DUP2 SWAP1 PUSH1 0x1 PUSH1 0x1 PUSH1 0xA0 SHL SUB PUSH32 0x0 AND SWAP1 PUSH4 0x657C7E09 SWAP1 PUSH1 0x24 ADD PUSH1 0x40 DUP1 MLOAD DUP1 DUP4 SUB DUP2 DUP7 GAS STATICCALL ISZERO DUP1 ISZERO PUSH2 0x3E21 JUMPI RETURNDATASIZE PUSH1 0x0 DUP1 RETURNDATACOPY RETURNDATASIZE PUSH1 0x0 REVERT JUMPDEST POP POP POP POP PUSH1 0x40 MLOAD RETURNDATASIZE PUSH1 0x1F NOT PUSH1 0x1F DUP3 ADD AND DUP3 ADD DUP1 PUSH1 0x40 MSTORE POP DUP2 ADD SWAP1 PUSH2 0x3E45 SWAP2 SWAP1 PUSH2 0x533F JUMP JUMPDEST SWAP2 POP SWAP2 POP PUSH2 0x3E53 DUP3 DUP5 PUSH2 0x8ED JUMP JUMPDEST ISZERO PUSH2 0x3E5D JUMPI POP POP POP JUMP JUMPDEST PUSH1 0x0 DUP2 DUP2 MSTORE PUSH1 0x1 PUSH1 0x20 SWAP1 DUP2 MSTORE PUSH1 0x40 DUP1 DUP4 KECCAK256 DUP1 SLOAD DUP3 MLOAD DUP2 DUP6 MUL DUP2 ADD DUP6 ADD SWAP1 SWAP4 MSTORE DUP1 DUP4 MSTORE PUSH1 0x60 SWAP5 SWAP4 DUP4 ADD DUP3 DUP3 DUP1 ISZERO PUSH2 0x3EB2 JUMPI PUSH1 0x20 MUL DUP3 ADD SWAP2 SWAP1 PUSH1 0x0 MSTORE PUSH1 0x20 PUSH1 0x0 KECCAK256 SWAP1 JUMPDEST DUP2 SLOAD DUP2 MSTORE PUSH1 0x20 ADD SWAP1 PUSH1 0x1 ADD SWAP1 DUP1 DUP4 GT PUSH2 0x3E9E JUMPI JUMPDEST POP POP POP POP POP SWAP1 POP DUP1 MLOAD PUSH1 0x1 PUSH1 0x1 PUSH1 0x40 SHL SUB DUP2 GT ISZERO PUSH2 0x3ED2 JUMPI PUSH2 0x3ED2 PUSH2 0x558B JUMP JUMPDEST PUSH1 0x40 MLOAD SWAP1 DUP1 DUP3 MSTORE DUP1 PUSH1 0x20 MUL PUSH1 0x20 ADD DUP3 ADD PUSH1 0x40 MSTORE DUP1 ISZERO PUSH2 0x3F05 JUMPI DUP2 PUSH1 0x20 ADD JUMPDEST PUSH1 0x60 DUP2 MSTORE PUSH1 0x20 ADD SWAP1 PUSH1 0x1 SWAP1 SUB SWAP1 DUP2 PUSH2 0x3EF0 JUMPI SWAP1 POP JUMPDEST POP SWAP2 POP PUSH1 0x0 DUP1 JUMPDEST DUP3 MLOAD DUP2 LT ISZERO PUSH2 0x4081 JUMPI PUSH1 0x0 PUSH32 0x0 PUSH1 0x1 PUSH1 0x1 PUSH1 0xA0 SHL SUB AND PUSH4 0x27EE9DC2 DUP6 DUP5 DUP2 MLOAD DUP2 LT PUSH2 0x3F58 JUMPI PUSH2 0x3F58 PUSH2 0x55A1 JUMP JUMPDEST PUSH1 0x20 MUL PUSH1 0x20 ADD ADD MLOAD PUSH1 0x40 MLOAD DUP3 PUSH4 0xFFFFFFFF AND PUSH1 0xE0 SHL DUP2 MSTORE PUSH1 0x4 ADD PUSH2 0x3F7E SWAP2 DUP2 MSTORE PUSH1 0x20 ADD SWAP1 JUMP JUMPDEST PUSH1 0x0 PUSH1 0x40 MLOAD DUP1 DUP4 SUB DUP2 DUP7 GAS STATICCALL ISZERO DUP1 ISZERO PUSH2 0x3F9B JUMPI RETURNDATASIZE PUSH1 0x0 DUP1 RETURNDATACOPY RETURNDATASIZE PUSH1 0x0 REVERT JUMPDEST POP POP POP POP PUSH1 0x40 MLOAD RETURNDATASIZE PUSH1 0x0 DUP3 RETURNDATACOPY PUSH1 0x1F RETURNDATASIZE SWAP1 DUP2 ADD PUSH1 0x1F NOT AND DUP3 ADD PUSH1 0x40 MSTORE PUSH2 0x3FC3 SWAP2 SWAP1 DUP2 ADD SWAP1 PUSH2 0x55B7 JUMP JUMPDEST PUSH1 0x40 MLOAD PUSH4 0x9D84366D PUSH1 0xE0 SHL DUP2 MSTORE SWAP1 SWAP2 POP PUSH20 0x0 SWAP1 PUSH4 0x9D84366D SWAP1 PUSH2 0x3FFF SWAP1 DUP5 SWAP1 DUP12 SWAP1 PUSH1 0x4 ADD PUSH2 0x56A3 JUMP JUMPDEST PUSH1 0x20 PUSH1 0x40 MLOAD DUP1 DUP4 SUB DUP2 DUP7 GAS DELEGATECALL ISZERO DUP1 ISZERO PUSH2 0x401C JUMPI RETURNDATASIZE PUSH1 0x0 DUP1 RETURNDATACOPY RETURNDATASIZE PUSH1 0x0 REVERT JUMPDEST POP POP POP POP PUSH1 0x40 MLOAD RETURNDATASIZE PUSH1 0x1F NOT PUSH1 0x1F DUP3 ADD AND DUP3 ADD DUP1 PUSH1 0x40 MSTORE POP DUP2 ADD SWAP1 PUSH2 0x4040 SWAP2 SWAP1 PUSH2 0x522E JUMP JUMPDEST PUSH2 0x406E JUMPI DUP1 DUP6 DUP5 PUSH2 0x4050 DUP2 PUSH2 0x56C5 JUMP JUMPDEST SWAP6 POP DUP2 MLOAD DUP2 LT PUSH2 0x4062 JUMPI PUSH2 0x4062 PUSH2 0x55A1 JUMP JUMPDEST PUSH1 0x20 MUL PUSH1 0x20 ADD ADD DUP2 SWAP1 MSTORE POP JUMPDEST POP DUP1 PUSH2 0x4079 DUP2 PUSH2 0x56C5 JUMP JUMPDEST SWAP2 POP POP PUSH2 0x3F0C JUMP JUMPDEST POP DUP3 MSTORE POP PUSH1 0x0 DUP4 DUP2 MSTORE PUSH1 0x2 PUSH1 0x20 SWAP1 DUP2 MSTORE PUSH1 0x40 DUP1 DUP4 KECCAK256 DUP1 SLOAD DUP3 MLOAD DUP2 DUP6 MUL DUP2 ADD DUP6 ADD SWAP1 SWAP4 MSTORE DUP1 DUP4 MSTORE PUSH1 0x60 SWAP5 SWAP4 DUP4 ADD DUP3 DUP3 DUP1 ISZERO PUSH2 0x40DA JUMPI PUSH1 0x20 MUL DUP3 ADD SWAP2 SWAP1 PUSH1 0x0 MSTORE PUSH1 0x20 PUSH1 0x0 KECCAK256 SWAP1 JUMPDEST DUP2 SLOAD DUP2 MSTORE PUSH1 0x20 ADD SWAP1 PUSH1 0x1 ADD SWAP1 DUP1 DUP4 GT PUSH2 0x40C6 JUMPI JUMPDEST POP POP POP POP POP SWAP1 POP DUP1 MLOAD PUSH1 0x1 PUSH1 0x1 PUSH1 0x40 SHL SUB DUP2 GT ISZERO PUSH2 0x40FA JUMPI PUSH2 0x40FA PUSH2 0x558B JUMP JUMPDEST PUSH1 0x40 MLOAD SWAP1 DUP1 DUP3 MSTORE DUP1 PUSH1 0x20 MUL PUSH1 0x20 ADD DUP3 ADD PUSH1 0x40 MSTORE DUP1 ISZERO PUSH2 0x412D JUMPI DUP2 PUSH1 0x20 ADD JUMPDEST PUSH1 0x60 DUP2 MSTORE PUSH1 0x20 ADD SWAP1 PUSH1 0x1 SWAP1 SUB SWAP1 DUP2 PUSH2 0x4118 JUMPI SWAP1 POP JUMPDEST POP SWAP2 POP PUSH1 0x0 DUP1 JUMPDEST DUP3 MLOAD DUP2 LT ISZERO PUSH2 0x42A9 JUMPI PUSH1 0x0 PUSH32 0x0 PUSH1 0x1 PUSH1 0x1 PUSH1 0xA0 SHL SUB AND PUSH4 0x27EE9DC2 DUP6 DUP5 DUP2 MLOAD DUP2 LT PUSH2 0x4180 JUMPI PUSH2 0x4180 PUSH2 0x55A1 JUMP JUMPDEST PUSH1 0x20 MUL PUSH1 0x20 ADD ADD MLOAD PUSH1 0x40 MLOAD DUP3 PUSH4 0xFFFFFFFF AND PUSH1 0xE0 SHL DUP2 MSTORE PUSH1 0x4 ADD PUSH2 0x41A6 SWAP2 DUP2 MSTORE PUSH1 0x20 ADD SWAP1 JUMP JUMPDEST PUSH1 0x0 PUSH1 0x40 MLOAD DUP1 DUP4 SUB DUP2 DUP7 GAS STATICCALL ISZERO DUP1 ISZERO PUSH2 0x41C3 JUMPI RETURNDATASIZE PUSH1 0x0 DUP1 RETURNDATACOPY RETURNDATASIZE PUSH1 0x0 REVERT JUMPDEST POP POP POP POP PUSH1 0x40 MLOAD RETURNDATASIZE PUSH1 0x0 DUP3 RETURNDATACOPY PUSH1 0x1F RETURNDATASIZE SWAP1 DUP2 ADD PUSH1 0x1F NOT AND DUP3 ADD PUSH1 0x40 MSTORE PUSH2 0x41EB SWAP2 SWAP1 DUP2 ADD SWAP1 PUSH2 0x55B7 JUMP JUMPDEST PUSH1 0x40 MLOAD PUSH4 0x9D84366D PUSH1 0xE0 SHL DUP2 MSTORE SWAP1 SWAP2 POP PUSH20 0x0 SWAP1 PUSH4 0x9D84366D SWAP1 PUSH2 0x4227 SWAP1 DUP5 SWAP1 DUP12 SWAP1 PUSH1 0x4 ADD PUSH2 0x56A3 JUMP JUMPDEST PUSH1 0x20 PUSH1 0x40 MLOAD DUP1 DUP4 SUB DUP2 DUP7 GAS DELEGATECALL ISZERO DUP1 ISZERO PUSH2 0x4244 JUMPI RETURNDATASIZE PUSH1 0x0 DUP1 RETURNDATACOPY RETURNDATASIZE PUSH1 0x0 REVERT JUMPDEST POP POP POP POP PUSH1 0x40 MLOAD RETURNDATASIZE PUSH1 0x1F NOT PUSH1 0x1F DUP3 ADD AND DUP3 ADD DUP1 PUSH1 0x40 MSTORE POP DUP2 ADD SWAP1 PUSH2 0x4268 SWAP2 SWAP1 PUSH2 0x522E JUMP JUMPDEST PUSH2 0x4296 JUMPI DUP1 DUP6 DUP5 PUSH2 0x4278 DUP2 PUSH2 0x56C5 JUMP JUMPDEST SWAP6 POP DUP2 MLOAD DUP2 LT PUSH2 0x428A JUMPI PUSH2 0x428A PUSH2 0x55A1 JUMP JUMPDEST PUSH1 0x20 MUL PUSH1 0x20 ADD ADD DUP2 SWAP1 MSTORE POP JUMPDEST POP DUP1 PUSH2 0x42A1 DUP2 PUSH2 0x56C5 JUMP JUMPDEST SWAP2 POP POP PUSH2 0x4134 JUMP JUMPDEST POP DUP3 MSTORE POP PUSH1 0x0 DUP5 DUP2 MSTORE PUSH1 0x1 PUSH1 0x20 MSTORE PUSH1 0x40 SWAP1 DUP2 SWAP1 KECCAK256 SWAP1 MLOAD PUSH4 0x16061A71 PUSH1 0xE2 SHL DUP2 MSTORE PUSH1 0x4 DUP2 ADD SWAP2 SWAP1 SWAP2 MSTORE PUSH1 0x24 DUP2 ADD DUP7 SWAP1 MSTORE PUSH20 0x0 SWAP1 PUSH4 0x581869C4 SWAP1 PUSH1 0x44 ADD PUSH1 0x20 PUSH1 0x40 MLOAD DUP1 DUP4 SUB DUP2 DUP7 GAS DELEGATECALL ISZERO DUP1 ISZERO PUSH2 0x4314 JUMPI RETURNDATASIZE PUSH1 0x0 DUP1 RETURNDATACOPY RETURNDATASIZE PUSH1 0x0 REVERT JUMPDEST POP POP POP POP PUSH1 0x40 MLOAD RETURNDATASIZE PUSH1 0x1F NOT PUSH1 0x1F DUP3 ADD AND DUP3 ADD DUP1 PUSH1 0x40 MSTORE POP DUP2 ADD SWAP1 PUSH2 0x4338 SWAP2 SWAP1 PUSH2 0x522E JUMP JUMPDEST POP PUSH1 0x0 DUP4 DUP2 MSTORE PUSH1 0x2 PUSH1 0x20 MSTORE PUSH1 0x40 SWAP1 DUP2 SWAP1 KECCAK256 SWAP1 MLOAD PUSH4 0x16061A71 PUSH1 0xE2 SHL DUP2 MSTORE PUSH1 0x4 DUP2 ADD SWAP2 SWAP1 SWAP2 MSTORE PUSH1 0x24 DUP2 ADD DUP7 SWAP1 MSTORE PUSH20 0x0 SWAP1 PUSH4 0x581869C4 SWAP1 PUSH1 0x44 ADD PUSH1 0x20 PUSH1 0x40 MLOAD DUP1 DUP4 SUB DUP2 DUP7 GAS DELEGATECALL ISZERO DUP1 ISZERO PUSH2 0x43A0 JUMPI RETURNDATASIZE PUSH1 0x0 DUP1 RETURNDATACOPY RETURNDATASIZE PUSH1 0x0 REVERT JUMPDEST POP POP POP POP PUSH1 0x40 MLOAD RETURNDATASIZE PUSH1 0x1F NOT PUSH1 0x1F DUP3 ADD AND DUP3 ADD DUP1 PUSH1 0x40 MSTORE POP DUP2 ADD SWAP1 PUSH2 0x43C4 SWAP2 SWAP1 PUSH2 0x522E JUMP JUMPDEST POP PUSH1 0x0 JUMPDEST DUP2 MLOAD DUP2 LT ISZERO PUSH2 0x4654 JUMPI PUSH1 0x0 DUP3 DUP3 DUP2 MLOAD DUP2 LT PUSH2 0x43E5 JUMPI PUSH2 0x43E5 PUSH2 0x55A1 JUMP JUMPDEST PUSH1 0x20 MUL PUSH1 0x20 ADD ADD MLOAD PUSH20 0x0 PUSH4 0x9B861F03 SWAP1 SWAP2 DUP8 PUSH1 0x40 MLOAD DUP4 PUSH4 0xFFFFFFFF AND PUSH1 0xE0 SHL DUP2 MSTORE PUSH1 0x4 ADD PUSH2 0x4427 SWAP3 SWAP2 SWAP1 PUSH2 0x56A3 JUMP JUMPDEST PUSH1 0x0 PUSH1 0x40 MLOAD DUP1 DUP4 SUB DUP2 DUP7 GAS DELEGATECALL ISZERO DUP1 ISZERO PUSH2 0x4444 JUMPI RETURNDATASIZE PUSH1 0x0 DUP1 RETURNDATACOPY RETURNDATASIZE PUSH1 0x0 REVERT JUMPDEST POP POP POP POP PUSH1 0x40 MLOAD RETURNDATASIZE PUSH1 0x0 DUP3 RETURNDATACOPY PUSH1 0x1F RETURNDATASIZE SWAP1 DUP2 ADD PUSH1 0x1F NOT AND DUP3 ADD PUSH1 0x40 MSTORE PUSH2 0x446C SWAP2 SWAP1 DUP2 ADD SWAP1 PUSH2 0x55B7 JUMP JUMPDEST SWAP1 POP PUSH1 0x0 PUSH32 0x0 PUSH1 0x1 PUSH1 0x1 PUSH1 0xA0 SHL SUB AND PUSH4 0xB3054383 DUP4 PUSH1 0x40 MLOAD DUP3 PUSH4 0xFFFFFFFF AND PUSH1 0xE0 SHL DUP2 MSTORE PUSH1 0x4 ADD PUSH2 0x44BC SWAP2 SWAP1 PUSH2 0x56DE JUMP JUMPDEST PUSH1 0x20 PUSH1 0x40 MLOAD DUP1 DUP4 SUB DUP2 PUSH1 0x0 DUP8 GAS CALL ISZERO DUP1 ISZERO PUSH2 0x44DB JUMPI RETURNDATASIZE PUSH1 0x0 DUP1 RETURNDATACOPY RETURNDATASIZE PUSH1 0x0 REVERT JUMPDEST POP POP POP POP PUSH1 0x40 MLOAD RETURNDATASIZE PUSH1 0x1F NOT PUSH1 0x1F DUP3 ADD AND DUP3 ADD DUP1 PUSH1 0x40 MSTORE POP DUP2 ADD SWAP1 PUSH2 0x44FF SWAP2 SWAP1 PUSH2 0x5363 JUMP JUMPDEST SWAP1 POP PUSH1 0x1 PUSH1 0x0 DUP4 PUSH1 0x0 DUP2 MLOAD DUP2 LT PUSH2 0x4518 JUMPI PUSH2 0x4518 PUSH2 0x55A1 JUMP JUMPDEST PUSH1 0x20 MUL PUSH1 0x20 ADD ADD MLOAD DUP2 MSTORE PUSH1 0x20 ADD SWAP1 DUP2 MSTORE PUSH1 0x20 ADD PUSH1 0x0 KECCAK256 PUSH20 0x0 PUSH4 0x581869C4 SWAP1 SWAP2 DUP4 PUSH1 0x40 MLOAD DUP4 PUSH4 0xFFFFFFFF AND PUSH1 0xE0 SHL DUP2 MSTORE PUSH1 0x4 ADD PUSH2 0x4571 SWAP3 SWAP2 SWAP1 SWAP2 DUP3 MSTORE PUSH1 0x20 DUP3 ADD MSTORE PUSH1 0x40 ADD SWAP1 JUMP JUMPDEST PUSH1 0x20 PUSH1 0x40 MLOAD DUP1 DUP4 SUB DUP2 DUP7 GAS DELEGATECALL ISZERO DUP1 ISZERO PUSH2 0x458E JUMPI RETURNDATASIZE PUSH1 0x0 DUP1 RETURNDATACOPY RETURNDATASIZE PUSH1 0x0 REVERT JUMPDEST POP POP POP POP PUSH1 0x40 MLOAD RETURNDATASIZE PUSH1 0x1F NOT PUSH1 0x1F DUP3 ADD AND DUP3 ADD DUP1 PUSH1 0x40 MSTORE POP DUP2 ADD SWAP1 PUSH2 0x45B2 SWAP2 SWAP1 PUSH2 0x522E JUMP JUMPDEST POP PUSH1 0x0 DUP7 DUP2 MSTORE PUSH1 0x2 PUSH1 0x20 MSTORE PUSH1 0x40 SWAP1 DUP2 SWAP1 KECCAK256 SWAP1 MLOAD PUSH4 0x16061A71 PUSH1 0xE2 SHL DUP2 MSTORE PUSH1 0x4 DUP2 ADD SWAP2 SWAP1 SWAP2 MSTORE PUSH1 0x24 DUP2 ADD DUP3 SWAP1 MSTORE PUSH20 0x0 SWAP1 PUSH4 0x581869C4 SWAP1 PUSH1 0x44 ADD PUSH1 0x20 PUSH1 0x40 MLOAD DUP1 DUP4 SUB DUP2 DUP7 GAS DELEGATECALL ISZERO DUP1 ISZERO PUSH2 0x461A JUMPI RETURNDATASIZE PUSH1 0x0 DUP1 RETURNDATACOPY RETURNDATASIZE PUSH1 0x0 REVERT JUMPDEST POP POP POP POP PUSH1 0x40 MLOAD RETURNDATASIZE PUSH1 0x1F NOT PUSH1 0x1F DUP3 ADD AND DUP3 ADD DUP1 PUSH1 0x40 MSTORE POP DUP2 ADD SWAP1 PUSH2 0x463E SWAP2 SWAP1 PUSH2 0x522E JUMP JUMPDEST POP POP POP DUP1 DUP1 PUSH2 0x464C SWAP1 PUSH2 0x56C5 JUMP JUMPDEST SWAP2 POP POP PUSH2 0x43C8 JUMP JUMPDEST POP PUSH1 0x0 JUMPDEST DUP3 MLOAD DUP2 LT ISZERO PUSH2 0x48F6 JUMPI PUSH1 0x0 DUP4 DUP3 DUP2 MLOAD DUP2 LT PUSH2 0x4675 JUMPI PUSH2 0x4675 PUSH2 0x55A1 JUMP JUMPDEST PUSH1 0x20 MUL PUSH1 0x20 ADD ADD MLOAD PUSH20 0x0 PUSH4 0x3B06E74F SWAP1 SWAP2 DUP9 PUSH1 0x40 MLOAD DUP4 PUSH4 0xFFFFFFFF AND PUSH1 0xE0 SHL DUP2 MSTORE PUSH1 0x4 ADD PUSH2 0x46B7 SWAP3 SWAP2 SWAP1 PUSH2 0x56A3 JUMP JUMPDEST PUSH1 0x0 PUSH1 0x40 MLOAD DUP1 DUP4 SUB DUP2 DUP7 GAS DELEGATECALL ISZERO DUP1 ISZERO PUSH2 0x46D4 JUMPI RETURNDATASIZE PUSH1 0x0 DUP1 RETURNDATACOPY RETURNDATASIZE PUSH1 0x0 REVERT JUMPDEST POP POP POP POP PUSH1 0x40 MLOAD RETURNDATASIZE PUSH1 0x0 DUP3 RETURNDATACOPY PUSH1 0x1F RETURNDATASIZE SWAP1 DUP2 ADD PUSH1 0x1F NOT AND DUP3 ADD PUSH1 0x40 MSTORE PUSH2 0x46FC SWAP2 SWAP1 DUP2 ADD SWAP1 PUSH2 0x55B7 JUMP JUMPDEST SWAP1 POP PUSH1 0x0 PUSH32 0x0 PUSH1 0x1 PUSH1 0x1 PUSH1 0xA0 SHL SUB AND PUSH4 0xB3054383 DUP4 PUSH1 0x40 MLOAD DUP3 PUSH4 0xFFFFFFFF AND PUSH1 0xE0 SHL DUP2 MSTORE PUSH1 0x4 ADD PUSH2 0x474C SWAP2 SWAP1 PUSH2 0x56DE JUMP JUMPDEST PUSH1 0x20 PUSH1 0x40 MLOAD DUP1 DUP4 SUB DUP2 PUSH1 0x0 DUP8 GAS CALL ISZERO DUP1 ISZERO PUSH2 0x476B JUMPI RETURNDATASIZE PUSH1 0x0 DUP1 RETURNDATACOPY RETURNDATASIZE PUSH1 0x0 REVERT JUMPDEST POP POP POP POP PUSH1 0x40 MLOAD RETURNDATASIZE PUSH1 0x1F NOT PUSH1 0x1F DUP3 ADD AND DUP3 ADD DUP1 PUSH1 0x40 MSTORE POP DUP2 ADD SWAP1 PUSH2 0x478F SWAP2 SWAP1 PUSH2 0x5363 JUMP JUMPDEST PUSH1 0x0 DUP9 DUP2 MSTORE PUSH1 0x1 PUSH1 0x20 MSTORE PUSH1 0x40 SWAP1 DUP2 SWAP1 KECCAK256 SWAP1 MLOAD PUSH4 0x16061A71 PUSH1 0xE2 SHL DUP2 MSTORE SWAP2 SWAP3 POP PUSH20 0x0 SWAP2 PUSH4 0x581869C4 SWAP2 PUSH2 0x47E1 SWAP2 DUP6 SWAP1 PUSH1 0x4 ADD SWAP2 DUP3 MSTORE PUSH1 0x20 DUP3 ADD MSTORE PUSH1 0x40 ADD SWAP1 JUMP JUMPDEST PUSH1 0x20 PUSH1 0x40 MLOAD DUP1 DUP4 SUB DUP2 DUP7 GAS DELEGATECALL ISZERO DUP1 ISZERO PUSH2 0x47FE JUMPI RETURNDATASIZE PUSH1 0x0 DUP1 RETURNDATACOPY RETURNDATASIZE PUSH1 0x0 REVERT JUMPDEST POP POP POP POP PUSH1 0x40 MLOAD RETURNDATASIZE PUSH1 0x1F NOT PUSH1 0x1F DUP3 ADD AND DUP3 ADD DUP1 PUSH1 0x40 MSTORE POP DUP2 ADD SWAP1 PUSH2 0x4822 SWAP2 SWAP1 PUSH2 0x522E JUMP JUMPDEST POP PUSH1 0x2 PUSH1 0x0 DUP4 PUSH1 0x1 DUP6 MLOAD PUSH2 0x4836 SWAP2 SWAP1 PUSH2 0x53AA JUMP JUMPDEST DUP2 MLOAD DUP2 LT PUSH2 0x4846 JUMPI PUSH2 0x4846 PUSH2 0x55A1 JUMP JUMPDEST PUSH1 0x20 MUL PUSH1 0x20 ADD ADD MLOAD DUP2 MSTORE PUSH1 0x20 ADD SWAP1 DUP2 MSTORE PUSH1 0x20 ADD PUSH1 0x0 KECCAK256 PUSH20 0x0 PUSH4 0x581869C4 SWAP1 SWAP2 DUP4 PUSH1 0x40 MLOAD DUP4 PUSH4 0xFFFFFFFF AND PUSH1 0xE0 SHL DUP2 MSTORE PUSH1 0x4 ADD PUSH2 0x489F SWAP3 SWAP2 SWAP1 SWAP2 DUP3 MSTORE PUSH1 0x20 DUP3 ADD MSTORE PUSH1 0x40 ADD SWAP1 JUMP JUMPDEST PUSH1 0x20 PUSH1 0x40 MLOAD DUP1 DUP4 SUB DUP2 DUP7 GAS DELEGATECALL ISZERO DUP1 ISZERO PUSH2 0x48BC JUMPI RETURNDATASIZE PUSH1 0x0 DUP1 RETURNDATACOPY RETURNDATASIZE PUSH1 0x0 REVERT JUMPDEST POP POP POP POP PUSH1 0x40 MLOAD RETURNDATASIZE PUSH1 0x1F NOT PUSH1 0x1F DUP3 ADD AND DUP3 ADD DUP1 PUSH1 0x40 MSTORE POP DUP2 ADD SWAP1 PUSH2 0x48E0 SWAP2 SWAP1 PUSH2 0x522E JUMP JUMPDEST POP POP POP DUP1 DUP1 PUSH2 0x48EE SWAP1 PUSH2 0x56C5 JUMP JUMPDEST SWAP2 POP POP PUSH2 0x4658 JUMP JUMPDEST POP PUSH1 0x0 JUMPDEST DUP2 MLOAD DUP2 LT ISZERO PUSH2 0x4CC4 JUMPI PUSH1 0x0 JUMPDEST DUP4 MLOAD DUP2 LT ISZERO PUSH2 0x4CB1 JUMPI PUSH1 0x0 DUP5 DUP3 DUP2 MLOAD DUP2 LT PUSH2 0x4923 JUMPI PUSH2 0x4923 PUSH2 0x55A1 JUMP JUMPDEST PUSH1 0x20 MUL PUSH1 0x20 ADD ADD MLOAD SWAP1 POP PUSH1 0x0 DUP5 DUP4 DUP2 MLOAD DUP2 LT PUSH2 0x4941 JUMPI PUSH2 0x4941 PUSH2 0x55A1 JUMP JUMPDEST PUSH1 0x20 MUL PUSH1 0x20 ADD ADD MLOAD SWAP1 POP PUSH1 0x0 JUMPDEST DUP3 MLOAD DUP2 LT ISZERO PUSH2 0x4A02 JUMPI DUP2 PUSH20 0x0 PUSH4 0x9D84366D SWAP1 SWAP2 DUP6 DUP5 DUP2 MLOAD DUP2 LT PUSH2 0x4986 JUMPI PUSH2 0x4986 PUSH2 0x55A1 JUMP JUMPDEST PUSH1 0x20 MUL PUSH1 0x20 ADD ADD MLOAD PUSH1 0x40 MLOAD DUP4 PUSH4 0xFFFFFFFF AND PUSH1 0xE0 SHL DUP2 MSTORE PUSH1 0x4 ADD PUSH2 0x49AB SWAP3 SWAP2 SWAP1 PUSH2 0x56A3 JUMP JUMPDEST PUSH1 0x20 PUSH1 0x40 MLOAD DUP1 DUP4 SUB DUP2 DUP7 GAS DELEGATECALL ISZERO DUP1 ISZERO PUSH2 0x49C8 JUMPI RETURNDATASIZE PUSH1 0x0 DUP1 RETURNDATACOPY RETURNDATASIZE PUSH1 0x0 REVERT JUMPDEST POP POP POP POP PUSH1 0x40 MLOAD RETURNDATASIZE PUSH1 0x1F NOT PUSH1 0x1F DUP3 ADD AND DUP3 ADD DUP1 PUSH1 0x40 MSTORE POP DUP2 ADD SWAP1 PUSH2 0x49EC SWAP2 SWAP1 PUSH2 0x522E JUMP JUMPDEST PUSH2 0x4A02 JUMPI DUP1 PUSH2 0x49FA DUP2 PUSH2 0x56C5 JUMP JUMPDEST SWAP2 POP POP PUSH2 0x494E JUMP JUMPDEST DUP3 MLOAD DUP2 LT ISZERO PUSH2 0x4A13 JUMPI POP POP POP PUSH2 0x4C9F JUMP JUMPDEST PUSH1 0x40 MLOAD PUSH4 0x2704AE9 PUSH1 0xE3 SHL DUP2 MSTORE PUSH1 0x0 SWAP1 PUSH20 0x0 SWAP1 PUSH4 0x13825748 SWAP1 PUSH2 0x4A4F SWAP1 DUP8 SWAP1 DUP8 SWAP1 PUSH1 0x4 ADD PUSH2 0x5722 JUMP JUMPDEST PUSH1 0x0 PUSH1 0x40 MLOAD DUP1 DUP4 SUB DUP2 DUP7 GAS DELEGATECALL ISZERO DUP1 ISZERO PUSH2 0x4A6C JUMPI RETURNDATASIZE PUSH1 0x0 DUP1 RETURNDATACOPY RETURNDATASIZE PUSH1 0x0 REVERT JUMPDEST POP POP POP POP PUSH1 0x40 MLOAD RETURNDATASIZE PUSH1 0x0 DUP3 RETURNDATACOPY PUSH1 0x1F RETURNDATASIZE SWAP1 DUP2 ADD PUSH1 0x1F NOT AND DUP3 ADD PUSH1 0x40 MSTORE PUSH2 0x4A94 SWAP2 SWAP1 DUP2 ADD SWAP1 PUSH2 0x55B7 JUMP JUMPDEST SWAP1 POP PUSH1 0x0 PUSH32 0x0 PUSH1 0x1 PUSH1 0x1 PUSH1 0xA0 SHL SUB AND PUSH4 0xB3054383 DUP4 PUSH1 0x40 MLOAD DUP3 PUSH4 0xFFFFFFFF AND PUSH1 0xE0 SHL DUP2 MSTORE PUSH1 0x4 ADD PUSH2 0x4AE4 SWAP2 SWAP1 PUSH2 0x56DE JUMP JUMPDEST PUSH1 0x20 PUSH1 0x40 MLOAD DUP1 DUP4 SUB DUP2 PUSH1 0x0 DUP8 GAS CALL ISZERO DUP1 ISZERO PUSH2 0x4B03 JUMPI RETURNDATASIZE PUSH1 0x0 DUP1 RETURNDATACOPY RETURNDATASIZE PUSH1 0x0 REVERT JUMPDEST POP POP POP POP PUSH1 0x40 MLOAD RETURNDATASIZE PUSH1 0x1F NOT PUSH1 0x1F DUP3 ADD AND DUP3 ADD DUP1 PUSH1 0x40 MSTORE POP DUP2 ADD SWAP1 PUSH2 0x4B27 SWAP2 SWAP1 PUSH2 0x5363 JUMP JUMPDEST SWAP1 POP PUSH1 0x1 PUSH1 0x0 DUP4 PUSH1 0x0 DUP2 MLOAD DUP2 LT PUSH2 0x4B40 JUMPI PUSH2 0x4B40 PUSH2 0x55A1 JUMP JUMPDEST PUSH1 0x20 MUL PUSH1 0x20 ADD ADD MLOAD DUP2 MSTORE PUSH1 0x20 ADD SWAP1 DUP2 MSTORE PUSH1 0x20 ADD PUSH1 0x0 KECCAK256 PUSH20 0x0 PUSH4 0x581869C4 SWAP1 SWAP2 DUP4 PUSH1 0x40 MLOAD DUP4 PUSH4 0xFFFFFFFF AND PUSH1 0xE0 SHL DUP2 MSTORE PUSH1 0x4 ADD PUSH2 0x4B99 SWAP3 SWAP2 SWAP1 SWAP2 DUP3 MSTORE PUSH1 0x20 DUP3 ADD MSTORE PUSH1 0x40 ADD SWAP1 JUMP JUMPDEST PUSH1 0x20 PUSH1 0x40 MLOAD DUP1 DUP4 SUB DUP2 DUP7 GAS DELEGATECALL ISZERO DUP1 ISZERO PUSH2 0x4BB6 JUMPI RETURNDATASIZE PUSH1 0x0 DUP1 RETURNDATACOPY RETURNDATASIZE PUSH1 0x0 REVERT JUMPDEST POP POP POP POP PUSH1 0x40 MLOAD RETURNDATASIZE PUSH1 0x1F NOT PUSH1 0x1F DUP3 ADD AND DUP3 ADD DUP1 PUSH1 0x40 MSTORE POP DUP2 ADD SWAP1 PUSH2 0x4BDA SWAP2 SWAP1 PUSH2 0x522E JUMP JUMPDEST POP PUSH1 0x2 PUSH1 0x0 DUP4 PUSH1 0x1 DUP6 MLOAD PUSH2 0x4BEE SWAP2 SWAP1 PUSH2 0x53AA JUMP JUMPDEST DUP2 MLOAD DUP2 LT PUSH2 0x4BFE JUMPI PUSH2 0x4BFE PUSH2 0x55A1 JUMP JUMPDEST PUSH1 0x20 MUL PUSH1 0x20 ADD ADD MLOAD DUP2 MSTORE PUSH1 0x20 ADD SWAP1 DUP2 MSTORE PUSH1 0x20 ADD PUSH1 0x0 KECCAK256 PUSH20 0x0 PUSH4 0x581869C4 SWAP1 SWAP2 DUP4 PUSH1 0x40 MLOAD DUP4 PUSH4 0xFFFFFFFF AND PUSH1 0xE0 SHL DUP2 MSTORE PUSH1 0x4 ADD PUSH2 0x4C57 SWAP3 SWAP2 SWAP1 SWAP2 DUP3 MSTORE PUSH1 0x20 DUP3 ADD MSTORE PUSH1 0x40 ADD SWAP1 JUMP JUMPDEST PUSH1 0x20 PUSH1 0x40 MLOAD DUP1 DUP4 SUB DUP2 DUP7 GAS DELEGATECALL ISZERO DUP1 ISZERO PUSH2 0x4C74 JUMPI RETURNDATASIZE PUSH1 0x0 DUP1 RETURNDATACOPY RETURNDATASIZE PUSH1 0x0 REVERT JUMPDEST POP POP POP POP PUSH1 0x40 MLOAD RETURNDATASIZE PUSH1 0x1F NOT PUSH1 0x1F DUP3 ADD AND DUP3 ADD DUP1 PUSH1 0x40 MSTORE POP DUP2 ADD SWAP1 PUSH2 0x4C98 SWAP2 SWAP1 PUSH2 0x522E JUMP JUMPDEST POP POP POP POP POP POP JUMPDEST DUP1 PUSH2 0x4CA9 DUP2 PUSH2 0x56C5 JUMP JUMPDEST SWAP2 POP POP PUSH2 0x4906 JUMP JUMPDEST POP DUP1 PUSH2 0x4CBC DUP2 PUSH2 0x56C5 JUMP JUMPDEST SWAP2 POP POP PUSH2 0x48FA JUMP JUMPDEST POP POP POP POP POP POP JUMP JUMPDEST PUSH1 0x40 MLOAD DUP1 PUSH2 0x1C0 ADD PUSH1 0x40 MSTORE DUP1 PUSH1 0x0 PUSH1 0x1 PUSH1 0x1 PUSH1 0xA0 SHL SUB AND DUP2 MSTORE PUSH1 0x20 ADD PUSH1 0x0 DUP1 NOT AND DUP2 MSTORE PUSH1 0x20 ADD PUSH1 0x0 DUP1 NOT AND DUP2 MSTORE PUSH1 0x20 ADD PUSH1 0x0 DUP2 MSTORE PUSH1 0x20 ADD PUSH1 0x0 DUP2 MSTORE PUSH1 0x20 ADD PUSH1 0x0 DUP2 MSTORE PUSH1 0x20 ADD PUSH1 0x0 DUP2 MSTORE PUSH1 0x20 ADD PUSH1 0x0 DUP2 MSTORE PUSH1 0x20 ADD PUSH1 0x0 DUP2 MSTORE PUSH1 0x20 ADD PUSH1 0x0 DUP2 MSTORE PUSH1 0x20 ADD PUSH1 0x0 DUP2 MSTORE PUSH1 0x20 ADD PUSH1 0x0 DUP2 MSTORE PUSH1 0x20 ADD PUSH1 0x0 PUSH1 0x5 DUP2 GT ISZERO PUSH2 0x4D4E JUMPI PUSH2 0x4D4E PUSH2 0x4E43 JUMP JUMPDEST DUP2 MSTORE PUSH1 0x0 PUSH1 0x20 SWAP1 SWAP2 ADD MSTORE SWAP1 JUMP JUMPDEST PUSH1 0x0 DUP1 DUP6 DUP6 GT ISZERO PUSH2 0x4D6B JUMPI PUSH1 0x0 DUP1 REVERT JUMPDEST DUP4 DUP7 GT ISZERO PUSH2 0x4D78 JUMPI PUSH1 0x0 DUP1 REVERT JUMPDEST POP POP DUP3 ADD SWAP4 SWAP2 SWAP1 SWAP3 SUB SWAP2 POP JUMP JUMPDEST PUSH1 0x0 PUSH1 0x20 DUP3 DUP5 SUB SLT ISZERO PUSH2 0x4D97 JUMPI PUSH1 0x0 DUP1 REVERT JUMPDEST DUP2 CALLDATALOAD PUSH1 0x1 PUSH1 0x1 PUSH1 0xE0 SHL SUB NOT DUP2 AND DUP2 EQ PUSH2 0x977 JUMPI PUSH1 0x0 DUP1 REVERT JUMPDEST PUSH1 0x1 PUSH1 0x1 PUSH1 0xA0 SHL SUB DUP2 AND DUP2 EQ PUSH2 0x27CB JUMPI PUSH1 0x0 DUP1 REVERT JUMPDEST PUSH1 0x0 DUP1 PUSH1 0x0 DUP1 PUSH1 0x0 PUSH1 0xA0 DUP7 DUP9 SUB SLT ISZERO PUSH2 0x4DDC JUMPI PUSH1 0x0 DUP1 REVERT JUMPDEST DUP6 CALLDATALOAD PUSH2 0x4DE7 DUP2 PUSH2 0x4DAF JUMP JUMPDEST SWAP8 PUSH1 0x20 DUP8 ADD CALLDATALOAD SWAP8 POP PUSH1 0x40 DUP8 ADD CALLDATALOAD SWAP7 PUSH1 0x60 DUP2 ADD CALLDATALOAD SWAP7 POP PUSH1 0x80 ADD CALLDATALOAD SWAP5 POP SWAP3 POP POP POP JUMP JUMPDEST PUSH1 0x0 DUP1 PUSH1 0x40 DUP4 DUP6 SUB SLT ISZERO PUSH2 0x4E1B JUMPI PUSH1 0x0 DUP1 REVERT JUMPDEST POP POP DUP1 CALLDATALOAD SWAP3 PUSH1 0x20 SWAP1 SWAP2 ADD CALLDATALOAD SWAP2 POP JUMP JUMPDEST PUSH1 0x0 PUSH1 0x20 DUP3 DUP5 SUB SLT ISZERO PUSH2 0x4E3C JUMPI PUSH1 0x0 DUP1 REVERT JUMPDEST POP CALLDATALOAD SWAP2 SWAP1 POP JUMP JUMPDEST PUSH4 0x4E487B71 PUSH1 0xE0 SHL PUSH1 0x0 MSTORE PUSH1 0x21 PUSH1 0x4 MSTORE PUSH1 0x24 PUSH1 0x0 REVERT JUMPDEST PUSH1 0x6 DUP2 LT PUSH2 0x4E77 JUMPI PUSH4 0x4E487B71 PUSH1 0xE0 SHL PUSH1 0x0 MSTORE PUSH1 0x21 PUSH1 0x4 MSTORE PUSH1 0x24 PUSH1 0x0 REVERT JUMPDEST SWAP1 MSTORE JUMP JUMPDEST DUP2 MLOAD PUSH1 0x1 PUSH1 0x1 PUSH1 0xA0 SHL SUB AND DUP2 MSTORE PUSH2 0x1C0 DUP2 ADD PUSH1 0x20 DUP4 ADD MLOAD PUSH1 0x20 DUP4 ADD MSTORE PUSH1 0x40 DUP4 ADD MLOAD PUSH1 0x40 DUP4 ADD MSTORE PUSH1 0x60 DUP4 ADD MLOAD PUSH1 0x60 DUP4 ADD MSTORE PUSH1 0x80 DUP4 ADD MLOAD PUSH1 0x80 DUP4 ADD MSTORE PUSH1 0xA0 DUP4 ADD MLOAD PUSH1 0xA0 DUP4 ADD MSTORE PUSH1 0xC0 DUP4 ADD MLOAD PUSH1 0xC0 DUP4 ADD MSTORE PUSH1 0xE0 DUP4 ADD MLOAD PUSH1 0xE0 DUP4 ADD MSTORE PUSH2 0x100 DUP1 DUP5 ADD MLOAD DUP2 DUP5 ADD MSTORE POP PUSH2 0x120 DUP1 DUP5 ADD MLOAD DUP2 DUP5 ADD MSTORE POP PUSH2 0x140 DUP1 DUP5 ADD MLOAD DUP2 DUP5 ADD MSTORE POP PUSH2 0x160 DUP1 DUP5 ADD MLOAD DUP2 DUP5 ADD MSTORE POP PUSH2 0x180 DUP1 DUP5 ADD MLOAD PUSH2 0x4F16 DUP3 DUP6 ADD DUP3 PUSH2 0x4E59 JUMP JUMPDEST POP POP PUSH2 0x1A0 DUP4 DUP2 ADD MLOAD PUSH1 0xFF DUP2 AND DUP5 DUP4 ADD MSTORE JUMPDEST POP POP SWAP3 SWAP2 POP POP JUMP JUMPDEST PUSH1 0x0 PUSH1 0x20 DUP3 DUP5 SUB SLT ISZERO PUSH2 0x4F42 JUMPI PUSH1 0x0 DUP1 REVERT JUMPDEST DUP2 CALLDATALOAD PUSH2 0x977 DUP2 PUSH2 0x4DAF JUMP JUMPDEST DUP1 CALLDATALOAD PUSH1 0xFF DUP2 AND DUP2 EQ PUSH2 0x4F5E JUMPI PUSH1 0x0 DUP1 REVERT JUMPDEST SWAP2 SWAP1 POP JUMP JUMPDEST PUSH1 0x0 DUP1 PUSH1 0x0 DUP1 PUSH1 0x0 DUP1 PUSH1 0xC0 DUP8 DUP10 SUB SLT ISZERO PUSH2 0x4F7C JUMPI PUSH1 0x0 DUP1 REVERT JUMPDEST DUP7 CALLDATALOAD SWAP6 POP PUSH1 0x20 DUP8 ADD CALLDATALOAD SWAP5 POP PUSH1 0x40 DUP8 ADD CALLDATALOAD SWAP4 POP PUSH1 0x60 DUP8 ADD CALLDATALOAD SWAP3 POP PUSH1 0x80 DUP8 ADD CALLDATALOAD SWAP2 POP PUSH2 0x4FA8 PUSH1 0xA0 DUP9 ADD PUSH2 0x4F4D JUMP JUMPDEST SWAP1 POP SWAP3 SWAP6 POP SWAP3 SWAP6 POP SWAP3 SWAP6 JUMP JUMPDEST PUSH1 0x0 PUSH1 0x20 DUP3 DUP5 SUB SLT ISZERO PUSH2 0x4FC6 JUMPI PUSH1 0x0 DUP1 REVERT JUMPDEST DUP2 CALLDATALOAD PUSH6 0xFFFFFFFFFFFF DUP2 AND DUP2 EQ PUSH2 0x977 JUMPI PUSH1 0x0 DUP1 REVERT JUMPDEST PUSH1 0x0 DUP1 PUSH1 0x0 DUP1 PUSH1 0x80 DUP6 DUP8 SUB SLT ISZERO PUSH2 0x4FF2 JUMPI PUSH1 0x0 DUP1 REVERT JUMPDEST POP POP DUP3 CALLDATALOAD SWAP5 PUSH1 0x20 DUP5 ADD CALLDATALOAD SWAP5 POP PUSH1 0x40 DUP5 ADD CALLDATALOAD SWAP4 PUSH1 0x60 ADD CALLDATALOAD SWAP3 POP SWAP1 POP JUMP JUMPDEST PUSH1 0x0 DUP1 PUSH1 0x0 DUP1 PUSH1 0x0 DUP1 PUSH1 0x0 PUSH1 0xE0 DUP9 DUP11 SUB SLT ISZERO PUSH2 0x5029 JUMPI PUSH1 0x0 DUP1 REVERT JUMPDEST DUP8 CALLDATALOAD PUSH2 0x5034 DUP2 PUSH2 0x4DAF JUMP JUMPDEST SWAP7 POP PUSH1 0x20 DUP9 ADD CALLDATALOAD SWAP6 POP PUSH1 0x40 DUP9 ADD CALLDATALOAD SWAP5 POP PUSH1 0x60 DUP9 ADD CALLDATALOAD SWAP4 POP PUSH1 0x80 DUP9 ADD CALLDATALOAD SWAP3 POP PUSH1 0xA0 DUP9 ADD CALLDATALOAD SWAP2 POP PUSH2 0x5065 PUSH1 0xC0 DUP10 ADD PUSH2 0x4F4D JUMP JUMPDEST SWAP1 POP SWAP3 SWAP6 SWAP9 SWAP2 SWAP5 SWAP8 POP SWAP3 SWAP6 POP JUMP JUMPDEST PUSH1 0x0 PUSH1 0x20 DUP3 DUP5 SUB SLT ISZERO PUSH2 0x5085 JUMPI PUSH1 0x0 DUP1 REVERT JUMPDEST DUP2 CALLDATALOAD PUSH1 0x1 PUSH1 0x1 PUSH1 0x40 SHL SUB DUP2 AND DUP2 EQ PUSH2 0x977 JUMPI PUSH1 0x0 DUP1 REVERT JUMPDEST PUSH1 0x0 DUP1 PUSH1 0x0 DUP1 PUSH1 0x0 DUP1 PUSH1 0x0 PUSH1 0xE0 DUP9 DUP11 SUB SLT ISZERO PUSH2 0x50B7 JUMPI PUSH1 0x0 DUP1 REVERT JUMPDEST DUP8 CALLDATALOAD PUSH2 0x50C2 DUP2 PUSH2 0x4DAF JUMP JUMPDEST SWAP7 POP PUSH1 0x20 DUP9 ADD CALLDATALOAD PUSH2 0x50D2 DUP2 PUSH2 0x4DAF JUMP JUMPDEST SWAP6 POP PUSH1 0x40 DUP9 ADD CALLDATALOAD PUSH2 0x50E2 DUP2 PUSH2 0x4DAF JUMP JUMPDEST SWAP5 POP PUSH1 0x60 DUP9 ADD CALLDATALOAD SWAP4 POP PUSH1 0x80 DUP9 ADD CALLDATALOAD SWAP3 POP PUSH1 0xA0 DUP9 ADD CALLDATALOAD SWAP2 POP PUSH2 0x5065 PUSH1 0xC0 DUP10 ADD PUSH2 0x4F4D JUMP JUMPDEST PUSH1 0x0 DUP1 PUSH1 0x0 DUP1 PUSH1 0x0 DUP1 PUSH1 0x0 DUP1 PUSH1 0x0 PUSH2 0x120 DUP11 DUP13 SUB SLT ISZERO PUSH2 0x5124 JUMPI PUSH1 0x0 DUP1 REVERT JUMPDEST DUP10 CALLDATALOAD PUSH2 0x512F DUP2 PUSH2 0x4DAF JUMP JUMPDEST SWAP9 POP PUSH1 0x20 DUP11 ADD CALLDATALOAD PUSH2 0x513F DUP2 PUSH2 0x4DAF JUMP JUMPDEST SWAP8 POP PUSH1 0x40 DUP11 ADD CALLDATALOAD SWAP7 POP PUSH1 0x60 DUP11 ADD CALLDATALOAD PUSH2 0x5156 DUP2 PUSH2 0x4DAF JUMP JUMPDEST SWAP6 POP PUSH1 0x80 DUP11 ADD CALLDATALOAD SWAP5 POP PUSH1 0xA0 DUP11 ADD CALLDATALOAD SWAP4 POP PUSH1 0xC0 DUP11 ADD CALLDATALOAD SWAP3 POP PUSH1 0xE0 DUP11 ADD CALLDATALOAD SWAP2 POP PUSH2 0x5181 PUSH2 0x100 DUP12 ADD PUSH2 0x4F4D JUMP JUMPDEST SWAP1 POP SWAP3 SWAP6 SWAP9 POP SWAP3 SWAP6 SWAP9 POP SWAP3 SWAP6 SWAP9 JUMP JUMPDEST PUSH1 0x0 DUP1 PUSH1 0x0 DUP1 PUSH1 0x0 DUP1 PUSH1 0x0 DUP1 PUSH2 0x100 DUP10 DUP12 SUB SLT ISZERO PUSH2 0x51AD JUMPI PUSH1 0x0 DUP1 REVERT JUMPDEST DUP9 CALLDATALOAD PUSH2 0x51B8 DUP2 PUSH2 0x4DAF JUMP JUMPDEST SWAP8 POP PUSH1 0x20 DUP10 ADD CALLDATALOAD SWAP7 POP PUSH1 0x40 DUP10 ADD CALLDATALOAD PUSH2 0x51CF DUP2 PUSH2 0x4DAF JUMP JUMPDEST SWAP6 POP PUSH1 0x60 DUP10 ADD CALLDATALOAD SWAP5 POP PUSH1 0x80 DUP10 ADD CALLDATALOAD SWAP4 POP PUSH1 0xA0 DUP10 ADD CALLDATALOAD SWAP3 POP PUSH1 0xC0 DUP10 ADD CALLDATALOAD SWAP2 POP PUSH2 0x51F9 PUSH1 0xE0 DUP11 ADD PUSH2 0x4F4D JUMP JUMPDEST SWAP1 POP SWAP3 SWAP6 SWAP9 POP SWAP3 SWAP6 SWAP9 SWAP1 SWAP4 SWAP7 POP JUMP JUMPDEST PUSH1 0x0 PUSH1 0x20 DUP3 DUP5 SUB SLT ISZERO PUSH2 0x521A JUMPI PUSH1 0x0 DUP1 REVERT JUMPDEST DUP2 CALLDATALOAD PUSH4 0xFFFFFFFF DUP2 AND DUP2 EQ PUSH2 0x977 JUMPI PUSH1 0x0 DUP1 REVERT JUMPDEST PUSH1 0x0 PUSH1 0x20 DUP3 DUP5 SUB SLT ISZERO PUSH2 0x5240 JUMPI PUSH1 0x0 DUP1 REVERT JUMPDEST DUP2 MLOAD DUP1 ISZERO ISZERO DUP2 EQ PUSH2 0x977 JUMPI PUSH1 0x0 DUP1 REVERT JUMPDEST PUSH1 0x0 PUSH1 0x20 DUP3 DUP5 SUB SLT ISZERO PUSH2 0x5262 JUMPI PUSH1 0x0 DUP1 REVERT JUMPDEST DUP2 MLOAD PUSH2 0x977 DUP2 PUSH2 0x4DAF JUMP JUMPDEST PUSH1 0x0 DUP3 MLOAD PUSH1 0x0 JUMPDEST DUP2 DUP2 LT ISZERO PUSH2 0x528E JUMPI PUSH1 0x20 DUP2 DUP7 ADD DUP2 ADD MLOAD DUP6 DUP4 ADD MSTORE ADD PUSH2 0x5274 JUMP JUMPDEST DUP2 DUP2 GT ISZERO PUSH2 0x529D JUMPI PUSH1 0x0 DUP3 DUP6 ADD MSTORE JUMPDEST POP SWAP2 SWAP1 SWAP2 ADD SWAP3 SWAP2 POP POP JUMP JUMPDEST PUSH4 0x4E487B71 PUSH1 0xE0 SHL PUSH1 0x0 MSTORE PUSH1 0x11 PUSH1 0x4 MSTORE PUSH1 0x24 PUSH1 0x0 REVERT JUMPDEST PUSH1 0x0 DUP3 PUSH2 0x52DB JUMPI PUSH4 0x4E487B71 PUSH1 0xE0 SHL PUSH1 0x0 MSTORE PUSH1 0x12 PUSH1 0x4 MSTORE PUSH1 0x24 PUSH1 0x0 REVERT JUMPDEST POP DIV SWAP1 JUMP JUMPDEST PUSH1 0x0 DUP2 PUSH1 0x0 NOT DIV DUP4 GT DUP3 ISZERO ISZERO AND ISZERO PUSH2 0x52FA JUMPI PUSH2 0x52FA PUSH2 0x52A8 JUMP JUMPDEST POP MUL SWAP1 JUMP JUMPDEST PUSH4 0x4E487B71 PUSH1 0xE0 SHL PUSH1 0x0 MSTORE PUSH1 0x1 PUSH1 0x4 MSTORE PUSH1 0x24 PUSH1 0x0 REVERT JUMPDEST PUSH1 0x20 DUP1 DUP3 MSTORE PUSH1 0x10 SWAP1 DUP3 ADD MSTORE PUSH16 0x10DBDB9D1C9858DD081CDD1BDC1C1959 PUSH1 0x82 SHL PUSH1 0x40 DUP3 ADD MSTORE PUSH1 0x60 ADD SWAP1 JUMP JUMPDEST PUSH1 0x0 DUP1 PUSH1 0x40 DUP4 DUP6 SUB SLT ISZERO PUSH2 0x5352 JUMPI PUSH1 0x0 DUP1 REVERT JUMPDEST POP POP DUP1 MLOAD PUSH1 0x20 SWAP1 SWAP2 ADD MLOAD SWAP1 SWAP3 SWAP1 SWAP2 POP JUMP JUMPDEST PUSH1 0x0 PUSH1 0x20 DUP3 DUP5 SUB SLT ISZERO PUSH2 0x5375 JUMPI PUSH1 0x0 DUP1 REVERT JUMPDEST POP MLOAD SWAP2 SWAP1 POP JUMP JUMPDEST PUSH1 0x0 DUP1 PUSH1 0x0 PUSH1 0x60 DUP5 DUP7 SUB SLT ISZERO PUSH2 0x5391 JUMPI PUSH1 0x0 DUP1 REVERT JUMPDEST DUP4 MLOAD SWAP3 POP PUSH1 0x20 DUP5 ADD MLOAD SWAP2 POP PUSH1 0x40 DUP5 ADD MLOAD SWAP1 POP SWAP3 POP SWAP3 POP SWAP3 JUMP JUMPDEST PUSH1 0x0 DUP3 DUP3 LT ISZERO PUSH2 0x53BC JUMPI PUSH2 0x53BC PUSH2 0x52A8 JUMP JUMPDEST POP SUB SWAP1 JUMP JUMPDEST PUSH1 0x0 DUP3 NOT DUP3 GT ISZERO PUSH2 0x53D4 JUMPI PUSH2 0x53D4 PUSH2 0x52A8 JUMP JUMPDEST POP ADD SWAP1 JUMP JUMPDEST PUSH1 0x0 PUSH1 0x1 PUSH1 0x1 PUSH1 0x40 SHL SUB DUP4 DUP2 AND SWAP1 DUP4 AND DUP2 DUP2 LT ISZERO PUSH2 0x53F9 JUMPI PUSH2 0x53F9 PUSH2 0x52A8 JUMP JUMPDEST SUB SWAP4 SWAP3 POP POP POP JUMP JUMPDEST PUSH1 0x0 PUSH1 0x1 PUSH1 0x1 PUSH1 0x40 SHL SUB DUP1 DUP4 AND DUP2 DUP6 AND DUP1 DUP4 SUB DUP3 GT ISZERO PUSH2 0x5423 JUMPI PUSH2 0x5423 PUSH2 0x52A8 JUMP JUMPDEST ADD SWAP5 SWAP4 POP POP POP POP JUMP JUMPDEST PUSH1 0x20 DUP1 DUP3 MSTORE PUSH1 0x2B SWAP1 DUP3 ADD MSTORE PUSH32 0x4D757374206265206163636F756E743D3D5F6D736753656E646572206F72204D PUSH1 0x40 DUP3 ADD MSTORE PUSH11 0x6F64652054657374696E67 PUSH1 0xA8 SHL PUSH1 0x60 DUP3 ADD MSTORE PUSH1 0x80 ADD SWAP1 JUMP JUMPDEST SWAP4 DUP5 MSTORE PUSH1 0x1 PUSH1 0x1 PUSH1 0xA0 SHL SUB SWAP3 DUP4 AND PUSH1 0x20 DUP6 ADD MSTORE SWAP2 AND PUSH1 0x40 DUP4 ADD MSTORE PUSH1 0x60 DUP3 ADD MSTORE PUSH1 0x80 ADD SWAP1 JUMP JUMPDEST DUP2 MLOAD DUP2 MSTORE PUSH1 0x20 DUP1 DUP4 ADD MLOAD PUSH2 0x180 DUP4 ADD SWAP2 PUSH2 0x54C0 SWAP1 DUP5 ADD DUP3 PUSH1 0x1 PUSH1 0x1 PUSH1 0xA0 SHL SUB AND SWAP1 MSTORE JUMP JUMPDEST POP PUSH1 0x40 DUP4 ADD MLOAD PUSH2 0x54D3 PUSH1 0x40 DUP5 ADD DUP3 PUSH2 0x4E59 JUMP JUMPDEST POP PUSH1 0x60 DUP4 ADD MLOAD PUSH2 0x54E8 PUSH1 0x60 DUP5 ADD DUP3 PUSH1 0xFF AND SWAP1 MSTORE JUMP JUMPDEST POP PUSH1 0x80 DUP4 ADD MLOAD PUSH1 0x80 DUP4 ADD MSTORE PUSH1 0xA0 DUP4 ADD MLOAD PUSH2 0x550D PUSH1 0xA0 DUP5 ADD DUP3 PUSH1 0x1 PUSH1 0x1 PUSH1 0x40 SHL SUB AND SWAP1 MSTORE JUMP JUMPDEST POP PUSH1 0xC0 DUP4 ADD MLOAD PUSH2 0x5528 PUSH1 0xC0 DUP5 ADD DUP3 PUSH1 0x1 PUSH1 0x1 PUSH1 0x40 SHL SUB AND SWAP1 MSTORE JUMP JUMPDEST POP PUSH1 0xE0 DUP4 ADD MLOAD PUSH2 0x5543 PUSH1 0xE0 DUP5 ADD DUP3 PUSH1 0x1 PUSH1 0x1 PUSH1 0x40 SHL SUB AND SWAP1 MSTORE JUMP JUMPDEST POP PUSH2 0x100 DUP4 DUP2 ADD MLOAD PUSH1 0x1 PUSH1 0x1 PUSH1 0x40 SHL SUB SWAP1 DUP2 AND SWAP2 DUP5 ADD SWAP2 SWAP1 SWAP2 MSTORE PUSH2 0x120 DUP1 DUP6 ADD MLOAD DUP3 AND SWAP1 DUP5 ADD MSTORE PUSH2 0x140 DUP1 DUP6 ADD MLOAD DUP3 AND SWAP1 DUP5 ADD MSTORE PUSH2 0x160 DUP1 DUP6 ADD MLOAD SWAP2 DUP3 AND DUP2 DUP6 ADD MSTORE SWAP1 PUSH2 0x4F28 JUMP JUMPDEST PUSH4 0x4E487B71 PUSH1 0xE0 SHL PUSH1 0x0 MSTORE PUSH1 0x41 PUSH1 0x4 MSTORE PUSH1 0x24 PUSH1 0x0 REVERT JUMPDEST PUSH4 0x4E487B71 PUSH1 0xE0 SHL PUSH1 0x0 MSTORE PUSH1 0x32 PUSH1 0x4 MSTORE PUSH1 0x24 PUSH1 0x0 REVERT JUMPDEST PUSH1 0x0 PUSH1 0x20 DUP1 DUP4 DUP6 SUB SLT ISZERO PUSH2 0x55CA JUMPI PUSH1 0x0 DUP1 REVERT JUMPDEST DUP3 MLOAD PUSH1 0x1 PUSH1 0x1 PUSH1 0x40 SHL SUB DUP1 DUP3 GT ISZERO PUSH2 0x55E1 JUMPI PUSH1 0x0 DUP1 REVERT JUMPDEST DUP2 DUP6 ADD SWAP2 POP DUP6 PUSH1 0x1F DUP4 ADD SLT PUSH2 0x55F5 JUMPI PUSH1 0x0 DUP1 REVERT JUMPDEST DUP2 MLOAD DUP2 DUP2 GT ISZERO PUSH2 0x5607 JUMPI PUSH2 0x5607 PUSH2 0x558B JUMP JUMPDEST DUP1 PUSH1 0x5 SHL PUSH1 0x40 MLOAD PUSH1 0x1F NOT PUSH1 0x3F DUP4 ADD AND DUP2 ADD DUP2 DUP2 LT DUP6 DUP3 GT OR ISZERO PUSH2 0x562C JUMPI PUSH2 0x562C PUSH2 0x558B JUMP JUMPDEST PUSH1 0x40 MSTORE SWAP2 DUP3 MSTORE DUP5 DUP3 ADD SWAP3 POP DUP4 DUP2 ADD DUP6 ADD SWAP2 DUP9 DUP4 GT ISZERO PUSH2 0x564A JUMPI PUSH1 0x0 DUP1 REVERT JUMPDEST SWAP4 DUP6 ADD SWAP4 JUMPDEST DUP3 DUP6 LT ISZERO PUSH2 0x24A7 JUMPI DUP5 MLOAD DUP5 MSTORE SWAP4 DUP6 ADD SWAP4 SWAP3 DUP6 ADD SWAP3 PUSH2 0x564F JUMP JUMPDEST PUSH1 0x0 DUP2 MLOAD DUP1 DUP5 MSTORE PUSH1 0x20 DUP1 DUP6 ADD SWAP5 POP DUP1 DUP5 ADD PUSH1 0x0 JUMPDEST DUP4 DUP2 LT ISZERO PUSH2 0x5698 JUMPI DUP2 MLOAD DUP8 MSTORE SWAP6 DUP3 ADD SWAP6 SWAP1 DUP3 ADD SWAP1 PUSH1 0x1 ADD PUSH2 0x567C JUMP JUMPDEST POP SWAP5 SWAP6 SWAP5 POP POP POP POP POP JUMP JUMPDEST PUSH1 0x40 DUP2 MSTORE PUSH1 0x0 PUSH2 0x56B6 PUSH1 0x40 DUP4 ADD DUP6 PUSH2 0x5668 JUMP JUMPDEST SWAP1 POP DUP3 PUSH1 0x20 DUP4 ADD MSTORE SWAP4 SWAP3 POP POP POP JUMP JUMPDEST PUSH1 0x0 PUSH1 0x1 DUP3 ADD PUSH2 0x56D7 JUMPI PUSH2 0x56D7 PUSH2 0x52A8 JUMP JUMPDEST POP PUSH1 0x1 ADD SWAP1 JUMP JUMPDEST PUSH1 0x20 DUP1 DUP3 MSTORE DUP3 MLOAD DUP3 DUP3 ADD DUP2 SWAP1 MSTORE PUSH1 0x0 SWAP2 SWAP1 DUP5 DUP3 ADD SWAP1 PUSH1 0x40 DUP6 ADD SWAP1 DUP5 JUMPDEST DUP2 DUP2 LT ISZERO PUSH2 0x5716 JUMPI DUP4 MLOAD DUP4 MSTORE SWAP3 DUP5 ADD SWAP3 SWAP2 DUP5 ADD SWAP2 PUSH1 0x1 ADD PUSH2 0x56FA JUMP JUMPDEST POP SWAP1 SWAP7 SWAP6 POP POP POP POP POP POP JUMP JUMPDEST PUSH1 0x40 DUP2 MSTORE PUSH1 0x0 PUSH2 0x5735 PUSH1 0x40 DUP4 ADD DUP6 PUSH2 0x5668 JUMP JUMPDEST DUP3 DUP2 SUB PUSH1 0x20 DUP5 ADD MSTORE PUSH2 0x12CF DUP2 DUP6 PUSH2 0x5668 JUMP INVALID 0xCD PUSH24 0x5F2396F9F13F12BCF8CA32E21DF66559A8ADC3944D059112 PUSH31 0x7731F7AB85A264697066735822122051DD5F9D6C2140957B857460B312DA8D PUSH11 0x30D42CB99F1D8F94310856 0xAE 0xD1 0xB3 SAR PUSH5 0x736F6C6343 STOP ADDMOD 0xD STOP CALLER ",
  "sha1": "4e89b038f86179d26f5dce9507214fba47d361ce",
  "source": "// SPDX-License-Identifier: MIT\n// Beef MarketPlace Contracts v0.0.0 hello@mcdu.com\n\npragma solidity ^0.8.0;\n\nimport \"../Market.sol\";\n\nbytes32 constant MARKETORDER = keccak256(\"MarketOrder\");\n\ncontract MarketOrder is Market, MarketPathWriter {\n    using Array for uint256[];\n    using Array for bytes32[];\n\n    function id() public view virtual override (Market) returns (bytes32) {return MARKETORDER;}\n\n    modifier onlyMarketOrder() virtual {\n        checkMarketOrder();\n        _;\n    }\n\n    function checkMarketOrder() internal view {\n        //require((address(rep.mo()) == _msgSender()), \"Allowance: caller must be Market\");\n    }\n \n    /////////////////////////////////////////////////////////////////////////////////////////\n    //      event\n    /////////////////////////////////////////////////////////////////////////////////////////\n    event Transaction(\n        bytes32 indexed fromk_,\n        bytes32 indexed tok_,\n        address fromaccount_,\n        address toaccount_,\n        uint256 quote_,\n        uint256 qty_\n    );\n\n    /////////////////////////////////////////////////////////////////////////////////////////\n    //      storage\n    /////////////////////////////////////////////////////////////////////////////////////////\n    //bool private constant _autodeleteorders = true;\n\n    constructor(Repository rep_) Market(rep_) {}\n\n    /////////////////////////////////////////////////////////////////////////////////////////\n    //      PROCESSING     internal processing\n    /////////////////////////////////////////////////////////////////////////////////////////\n    function _orderDestroy(Order.Info storage order_) internal {\n        _orderids.remove(order_.orderid);\n        _pastorders[block.number].push(order_.orderid);\n        //delete _orders[order_.orderid];\n    }\n\n    function _orderTerminate(Order.Info storage order_, Order.State newstate_)\n        internal\n    {\n        require(\n            newstate_ > Order.State.Unknown &&\n                newstate_ <= Order.State.Completed &&\n                order_.state >= Order.State.Active,\n            \"_orderTerminate state problem\"\n        );\n        (bytes32 from, bytes32 to) = rep.resolveBytes32Bytes32(order_.fromto);\n        //if (newstate_<=Order.State.Completed && order_.state>=Order.State.Active)\n        order_.state = newstate_;\n        if (Order.isReserved(order_.options))\n            Bank(rep.get(BANK))._reserveSub(\n                to,\n                order_.account,\n                address(this),\n                UInt64ToUInt256(order_.originalqty - order_.qtydone)\n            );\n        _fromtoorders[order_.fromto].remove(order_.orderid);\n        _fromorders[from].remove(order_.orderid);\n        _toorders[to].remove(order_.orderid);\n    }\n\n    /////////////////////////////////////////////////////////////////////////////////////////\n    //      PUBLIC\n    /////////////////////////////////////////////////////////////////////////////////////////\n\n    function _orderMakeTransfer(\n        Order.Info storage order_,\n        address toaccount_,\n        bool toreserve_,\n        uint256 qty_\n    ) internal {\n        address _fromfeeaccount;\n        uint256 _fromfee;\n        address _tofeeaccount;\n        uint256 _tofee;\n\n        if (_fromfeeaccount == address(0)) _fromfee = 0;\n        if (_tofeeaccount == address(0)) _tofee = 0;\n\n        uint256 _toqty = (qty_ * UInt64ToUInt256(order_.quote)) / 10**18;\n        (bytes32 from, bytes32 to) = rep.resolveBytes32Bytes32(order_.fromto);\n\n        if (Order.isReserved(order_.options))\n            Bank(rep.get(BANK))._reserveSub(\n                from,\n                order_.account,\n                address(this),\n                qty_\n            );\n        if (toreserve_)\n            Bank(rep.get(BANK))._reserveSub(to, toaccount_, address(this), _toqty);\n\n        if (_fromfee != 0)\n            Bank(rep.get(BANK))._transfer(\n                from,\n                order_.account,\n                _fromfeeaccount,\n                _fromfee\n            );\n        if (_tofee != 0)\n            Bank(rep.get(BANK))._transfer(to, toaccount_, _tofeeaccount, _tofee);\n        Bank(rep.get(BANK))._transfer(\n            from,\n            order_.account,\n            toaccount_,\n            qty_ - _fromfee\n        );\n        Bank(rep.get(BANK))._transfer(\n            to,\n            toaccount_,\n            order_.account,\n            _toqty - _tofee\n        );\n    }\n\n    function orderFulfill(\n        uint256 orderid_,\n        uint256 qty_,\n        uint256 quote_,\n        uint256 pctslippage_\n    ) public all returns (uint256 qtydone_) {\n        return\n            orderFulfillEx(_msgSender(), orderid_, qty_, quote_, pctslippage_);\n    }\n\n    function orderFulfillEx(\n        address account_,\n        uint256 orderid_,\n        uint256 qty_,\n        uint256 quote_,\n        uint256 pctslippage_\n    ) public all returns (uint256 qtydone_) {\n        (bool _result, ) = rep.get(MARKET).call(\n            abi.encodeWithSelector(\n                bytes4(\n                    keccak256(\n                        \"d_orderFulfillEx(address,uint32,uint256,uint256,uint256)\"\n                    )\n                ),\n                address(this),\n                account_,\n                orderid_,\n                qty_,\n                quote_,\n                pctslippage_\n            )\n        );\n        _return(_result);\n    }\n\n    function d_orderFulfillEx(\n        address account_,\n        uint256 orderid_,\n        uint256 qty_,\n        uint256 quote_,\n        uint256 pctslippage_\n    ) public onlyMarketOrder returns (uint256 qtydone_) {\n        require(!STOP(), \"Contract stopped\");\n        require(\n            rep.MODETEST() || account_ == _msgSender(),\n            \"Must be account==_msgSender() or Mode Testing\"\n        );\n        Order.Info storage _order = _orders[orderid_];\n        (bytes32 from, bytes32 to) = rep.resolveBytes32Bytes32(_order.fromto);\n\n        require(\n            (qty_ * quote_) / 10**18 <= Bank(rep.get(BANK)).available(to, account_),\n            \"Bank: Not enough available\"\n        );\n\n        uint256 _quote;\n        if (Order.isIndexed(_order.options)) {\n            // this must update _quote by reentrant call back\n            (, _quote, ) = Quotator(rep.get(QUOTATOR)).read(from, to);\n        } else _quote = UInt64ToUInt256(_order.quote);\n        require(\n            _quote <= (quote_ * (10**18 - pctslippage_)) / 10**18 &&\n                _quote >= (quote_ * (10**18 + pctslippage_)) / 10**18,\n            \"Quote Slipped over tolerance\"\n        );\n\n        uint256 _qty = (qty_ * quote_) / _quote;\n        uint256 _orderqty = UInt64ToUInt256(_order.qty - _order.qtydone);\n        if (_orderqty < _qty) _qty = _orderqty;\n\n        _orderMakeTransfer(_order, account_, false, qty_);\n\n        _order.qtydone += UInt256ToUInt64(qty_);\n        if (_order.qtydone == _order.originalqty)\n            _orderTerminate(_order, Order.State.Completed);\n\n        //if (!Order.isHidden(_order.options))\n        emit Transaction(from, to, _order.account, account_, _quote, _qty);\n        if (_order.state <= Order.State.Completed) _orderDestroy(_order);\n\n        return qty_;\n    }\n\n\n    function orderPlaceEx(\n        address from_,\n        uint256 fromid_,\n        address to_,\n        uint256 toid_,\n        uint256 granularity_,\n        uint256 qty_,\n        uint256 quote_,\n        uint8 options_\n    ) public all returns (uint256 orderid_) {\n        return\n            orderPlace(\n                _msgSender(),\n                rep.currency(from_, fromid_),\n                rep.currency(to_, toid_),\n                granularity_,\n                qty_,\n                quote_,\n                options_\n            );\n    }\n\n    function orderPlace(\n        address account_,\n        address from_,\n        uint256 fromid_,\n        address to_,\n        uint256 toid_,\n        uint256 granularity_,\n        uint256 qty_,\n        uint256 quote_,\n        uint8 options_\n    ) public all returns (uint256 orderid_) {\n        return\n            orderPlace(\n                account_,\n                rep.currency(from_, fromid_),\n                rep.currency(to_, toid_),\n                granularity_,\n                qty_,\n                quote_,\n                options_\n            );\n    }\n\n    function orderPlaceEx(\n        address account_,\n        address from_,\n        address to_,\n        uint256 granularity_,\n        uint256 qty_,\n        uint256 quote_,\n        uint8 options_\n    ) public all returns (uint256 orderid_) {\n        return\n            orderPlace(\n                account_,\n                rep.currency(from_, 0),\n                rep.currency(to_, 0),\n                granularity_,\n                qty_,\n                quote_,\n                options_\n            );\n    }\n\n    function orderPlace(\n        bytes32 from_,\n        bytes32 to_,\n        uint256 granularity_,\n        uint256 qty_,\n        uint256 quote_,\n        uint8 options_\n    ) public all returns (uint256 orderid_) {\n        return\n            orderPlace(\n                _msgSender(),\n                from_,\n                to_,\n                granularity_,\n                qty_,\n                quote_,\n                options_\n            );\n    }\n\n    function orderPlace(\n        address account_,\n        bytes32 from_,\n        bytes32 to_,\n        uint256 granularity_,\n        uint256 qty_,\n        uint256 quote_,\n        uint8 options_\n    ) public all returns (uint256 orderid_) {\n        (bool _result, ) = rep.get(MARKET).call(\n            abi.encodeWithSelector(\n                bytes4(\n                    keccak256(\n                        \"d_orderPlace(address,bytes32,bytes32,uint256,uint256,uint256,uint8)\"\n                    )\n                ),\n                address(this),\n                account_,\n                from_,\n                to_,\n                granularity_,\n                qty_,\n                quote_,\n                options_\n            )\n        );\n        _return(_result);\n    }\n\n    function d_orderPlace(\n        address account_,\n        bytes32 from_,\n        bytes32 to_,\n        uint256 granularity_,\n        uint256 qty_,\n        uint256 quote_,\n        uint8 options_\n    ) public onlyMarketOrder returns (uint256 orderid_) {\n        require(!STOP(), \"Contract stopped\");\n        require(\n            rep.MODETEST() || account_ == _msgSender(),\n            \"Must be account==_msgSender or Mode Testing\"\n        );\n        //require(Bank(rep.get(BANK)).features(from_) == 0,\"Bank: 'From' type unknown\");\n        //require(Bank(rep.get(BANK)).features(to_) == 0, \"Bank: 'To' type unknown\");\n        //(address from, ) = rep.resolveCurrency(from_);\n        //(address to, ) = rep.resolveCurrency(to_);\n        if (rep.hasFeature(from_,Token.SupportTradeable)) {\n            address from = rep.resolveCurrencyAddr(from_);\n            require(ITradeable(from).tradeable(), \"From not tradeable\");\n            require(\n                ITradeable(from).onlyWithCurrency() && to_ != Token.CURRENCY,\n                \"From is only tradeable to Currency\"\n            );\n        }\n        require(\n            (!rep.nft(from_)) || qty_ == 10**18 || granularity_ == qty_,\n            \"'From' is NFT qty and granularity must be 1\"\n        );\n\n        //bytes32 from = rep.currency(from, fromid_);\n        require(\n            qty_ <= Bank(rep.get(BANK)).available(from_, account_),\n            \"Bank: Not enough available\"\n        );\n\n        Order.Info memory _order;\n        /*_order.typefrom = Bank(rep.get(BANK)).tokenType(from_);\n        require(\n            _order.typefrom != Token.Type.Unknown,\n            \"Bank: 'From' type unknown\"\n        );*/\n        //if (_order.typefrom == TokenType.Polymorph && nft)\n        //    granularity_ = qty_ = IPolymorph(from).getNFTQty();\n\n        _order.account = account_;\n        _order.fromto = rep.Bytes32Bytes32(from_, to_);\n        //(bytes32 v1,bytes32 v2) = rep.resolveBytes32Bytes32(_order.fromto);\n        //require(uint256(v1)==uint256(from_) && uint256(v2)==uint256(to_),\"uint256(v1)==uint256(from_) && uint256(v2)==uint256(to_)\");\n\n        //_order.typeto = Bank(rep.get(BANK)).tokenType(to_);\n        //require(_order.typeto != Token.Type.Unknown, \"Bank: 'To' type unknown\");\n        _order.granularity = UInt256ToUInt64(granularity_);\n        _order.qty = UInt256ToUInt64(qty_);\n        /*if (_order.typefrom == Token.Type.Polymorph) {\n            require(\n                (!IPolymorph(from).isTradeableOnlyWithCurrency()) &&\n                    (_order.typeto != Token.Type.Cur),\n                \"Bank: 'From' only tradeable to Currency\"\n            );\n        }\n        if (_order.typeto == Token.Type.Polymorph)\n            require(\n                (!IPolymorph(to).isTradeableOnlyWithCurrency()) &&\n                    (_order.typefrom != Token.Type.Cur),\n                \"Bank: 'To' only tradeable from Currency\"\n            );\n        */\n        _order.quote = UInt256ToUInt64(quote_);\n\n        if (Order.isIndexed(_order.options)) {\n            uint256 _qquote;\n            (, _qquote, ) = Quotator(rep.get(QUOTATOR)).read(from_,to_);\n            _order.originalbasedquote = UInt256ToUInt64(_qquote);\n            require(_order.originalbasedquote != 0, \"Quote: Not quoted\");\n        }\n\n        if (Order.isReserved(_order.options))\n            Bank(rep.get(BANK))._reserveAdd(to_, _order.account, address(this), qty_);\n\n        // we are saving order just now is order isnt completed\n        unchecked {\n            _orderidptr++;\n            while (_orderidptr == 0 && _orders[_orderidptr].orderid != 0)\n                _orderidptr++;\n        }\n        _order.orderid = _orderidptr;\n\n        _order.originalqty = _order.qty;\n        _order.state = Order.State.Active;\n        _order.options = options_;\n        _order.originalquote = _order.quote;\n\n        _orders[_order.orderid] = _order;\n        //if (USEFROMTOORDERS)\n        _orderids.insert(_order.orderid);\n        _fromtoorders[_order.fromto].insert(_order.orderid);\n        _fromorders[from_].insert(_order.orderid);\n        _toorders[to_].insert(_order.orderid);\n        _insertPath(_order.fromto);\n        return _orderidptr;\n    }\n\n    function orderCancel(uint256 orderid_) public all {\n        (bool _result, ) = rep.get(MARKET).call(\n            abi.encodeWithSelector(\n                bytes4(keccak256(\"d_orderCancel(uint256)\")),\n                address(this),\n                orderid_\n            )\n        );\n        _return(_result);\n    }\n\n    function d_orderCancel(uint256 order_) public onlyMarketOrder {\n        require(!STOP(), \"Contract stopped\");\n        Order.Info storage _order = _orders[order_];\n        require(\n            rep.MODETEST() || _order.account == _msgSender(),\n            \"Must be account==_msgSender or Mode Testing\"\n        );\n        _orderTerminate(_order, Order.State.Cancelled);\n        _orderDestroy(_order);\n    }\n}\n",
  "sourcePath": "contracts/Market/Order/Order.sol",
  "type": "contract"
}