{
  "abi": [
    {
      "inputs": [
        {
          "components": [
            {
              "internalType": "uint256",
              "name": "orderid",
              "type": "uint256"
            },
            {
              "internalType": "bytes32",
              "name": "addr",
              "type": "bytes32"
            },
            {
              "internalType": "uint256",
              "name": "qty",
              "type": "uint256"
            },
            {
              "internalType": "uint256",
              "name": "granularity",
              "type": "uint256"
            },
            {
              "internalType": "uint256",
              "name": "quote",
              "type": "uint256"
            },
            {
              "internalType": "uint256[]",
              "name": "delivery",
              "type": "uint256[]"
            }
          ],
          "internalType": "struct Solution[]",
          "name": "in_",
          "type": "tuple[]"
        },
        {
          "internalType": "uint256",
          "name": "start_",
          "type": "uint256"
        },
        {
          "components": [
            {
              "internalType": "bytes32",
              "name": "currency",
              "type": "bytes32"
            },
            {
              "internalType": "uint256",
              "name": "mingranularity",
              "type": "uint256"
            },
            {
              "internalType": "uint256",
              "name": "qty",
              "type": "uint256"
            },
            {
              "internalType": "bool",
              "name": "qtyismin",
              "type": "bool"
            },
            {
              "internalType": "bool",
              "name": "qtyismax",
              "type": "bool"
            },
            {
              "internalType": "uint256",
              "name": "maxcount",
              "type": "uint256"
            },
            {
              "internalType": "uint256[]",
              "name": "delivery",
              "type": "uint256[]"
            }
          ],
          "internalType": "struct MarketSearch.SearchArgTarget",
          "name": "target_",
          "type": "tuple"
        },
        {
          "components": [
            {
              "internalType": "uint256",
              "name": "maxquote",
              "type": "uint256"
            },
            {
              "internalType": "uint256",
              "name": "maxavgquote",
              "type": "uint256"
            },
            {
              "internalType": "uint256",
              "name": "maxtotal",
              "type": "uint256"
            },
            {
              "components": [
                {
                  "internalType": "uint256",
                  "name": "orderid",
                  "type": "uint256"
                },
                {
                  "internalType": "bytes32",
                  "name": "addr",
                  "type": "bytes32"
                },
                {
                  "internalType": "uint256",
                  "name": "qty",
                  "type": "uint256"
                },
                {
                  "internalType": "uint256",
                  "name": "granularity",
                  "type": "uint256"
                },
                {
                  "internalType": "uint256",
                  "name": "quote",
                  "type": "uint256"
                },
                {
                  "internalType": "uint256[]",
                  "name": "delivery",
                  "type": "uint256[]"
                }
              ],
              "internalType": "struct Solution[]",
              "name": "used",
              "type": "tuple[]"
            }
          ],
          "internalType": "struct MarketSearch.SearchArg",
          "name": "searcharg_",
          "type": "tuple"
        },
        {
          "components": [
            {
              "internalType": "uint256",
              "name": "orderid",
              "type": "uint256"
            },
            {
              "internalType": "bytes32",
              "name": "addr",
              "type": "bytes32"
            },
            {
              "internalType": "uint256",
              "name": "qty",
              "type": "uint256"
            },
            {
              "internalType": "uint256",
              "name": "granularity",
              "type": "uint256"
            },
            {
              "internalType": "uint256",
              "name": "quote",
              "type": "uint256"
            },
            {
              "internalType": "uint256[]",
              "name": "delivery",
              "type": "uint256[]"
            }
          ],
          "internalType": "struct Solution[]",
          "name": "recursestack_",
          "type": "tuple[]"
        }
      ],
      "name": "recurseSearch",
      "outputs": [
        {
          "components": [
            {
              "internalType": "uint256",
              "name": "orderid",
              "type": "uint256"
            },
            {
              "internalType": "bytes32",
              "name": "addr",
              "type": "bytes32"
            },
            {
              "internalType": "uint256",
              "name": "qty",
              "type": "uint256"
            },
            {
              "internalType": "uint256",
              "name": "granularity",
              "type": "uint256"
            },
            {
              "internalType": "uint256",
              "name": "quote",
              "type": "uint256"
            },
            {
              "internalType": "uint256[]",
              "name": "delivery",
              "type": "uint256[]"
            }
          ],
          "internalType": "struct Solution[]",
          "name": "out_",
          "type": "tuple[]"
        },
        {
          "internalType": "uint256",
          "name": "qty_",
          "type": "uint256"
        },
        {
          "components": [
            {
              "internalType": "uint256",
              "name": "quotemin",
              "type": "uint256"
            },
            {
              "internalType": "uint256",
              "name": "quoteavg",
              "type": "uint256"
            },
            {
              "internalType": "uint256",
              "name": "quotemax",
              "type": "uint256"
            }
          ],
          "internalType": "struct Quote",
          "name": "quote_",
          "type": "tuple"
        }
      ],
      "stateMutability": "pure",
      "type": "function"
    },
    {
      "inputs": [
        {
          "components": [
            {
              "internalType": "uint256",
              "name": "qty",
              "type": "uint256"
            },
            {
              "components": [
                {
                  "internalType": "uint256",
                  "name": "quotemin",
                  "type": "uint256"
                },
                {
                  "internalType": "uint256",
                  "name": "quoteavg",
                  "type": "uint256"
                },
                {
                  "internalType": "uint256",
                  "name": "quotemax",
                  "type": "uint256"
                }
              ],
              "internalType": "struct Quote",
              "name": "quote",
              "type": "tuple"
            },
            {
              "components": [
                {
                  "internalType": "bytes32[]",
                  "name": "path",
                  "type": "bytes32[]"
                },
                {
                  "internalType": "uint256",
                  "name": "qty",
                  "type": "uint256"
                },
                {
                  "components": [
                    {
                      "internalType": "uint256",
                      "name": "quotemin",
                      "type": "uint256"
                    },
                    {
                      "internalType": "uint256",
                      "name": "quoteavg",
                      "type": "uint256"
                    },
                    {
                      "internalType": "uint256",
                      "name": "quotemax",
                      "type": "uint256"
                    }
                  ],
                  "internalType": "struct Quote",
                  "name": "quote",
                  "type": "tuple"
                },
                {
                  "internalType": "uint256",
                  "name": "start",
                  "type": "uint256"
                },
                {
                  "internalType": "uint256",
                  "name": "count",
                  "type": "uint256"
                },
                {
                  "internalType": "uint256[]",
                  "name": "offset",
                  "type": "uint256[]"
                }
              ],
              "internalType": "struct SolutionSetDesc[]",
              "name": "descs",
              "type": "tuple[]"
            },
            {
              "components": [
                {
                  "internalType": "uint256",
                  "name": "orderid",
                  "type": "uint256"
                },
                {
                  "internalType": "bytes32",
                  "name": "addr",
                  "type": "bytes32"
                },
                {
                  "internalType": "uint256",
                  "name": "qty",
                  "type": "uint256"
                },
                {
                  "internalType": "uint256",
                  "name": "granularity",
                  "type": "uint256"
                },
                {
                  "internalType": "uint256",
                  "name": "quote",
                  "type": "uint256"
                },
                {
                  "internalType": "uint256[]",
                  "name": "delivery",
                  "type": "uint256[]"
                }
              ],
              "internalType": "struct Solution[]",
              "name": "solutions",
              "type": "tuple[]"
            }
          ],
          "internalType": "struct SolutionSet",
          "name": "in_",
          "type": "tuple"
        },
        {
          "internalType": "bytes32",
          "name": "current_",
          "type": "bytes32"
        },
        {
          "components": [
            {
              "internalType": "bytes32",
              "name": "currency",
              "type": "bytes32"
            },
            {
              "internalType": "uint256",
              "name": "mingranularity",
              "type": "uint256"
            },
            {
              "internalType": "uint256",
              "name": "qty",
              "type": "uint256"
            },
            {
              "internalType": "bool",
              "name": "qtyismin",
              "type": "bool"
            },
            {
              "internalType": "bool",
              "name": "qtyismax",
              "type": "bool"
            },
            {
              "internalType": "uint256",
              "name": "maxcount",
              "type": "uint256"
            },
            {
              "internalType": "uint256[]",
              "name": "delivery",
              "type": "uint256[]"
            }
          ],
          "internalType": "struct MarketSearch.SearchArgTarget",
          "name": "target_",
          "type": "tuple"
        },
        {
          "components": [
            {
              "internalType": "uint256",
              "name": "maxquote",
              "type": "uint256"
            },
            {
              "internalType": "uint256",
              "name": "maxavgquote",
              "type": "uint256"
            },
            {
              "internalType": "uint256",
              "name": "maxtotal",
              "type": "uint256"
            },
            {
              "components": [
                {
                  "internalType": "uint256",
                  "name": "orderid",
                  "type": "uint256"
                },
                {
                  "internalType": "bytes32",
                  "name": "addr",
                  "type": "bytes32"
                },
                {
                  "internalType": "uint256",
                  "name": "qty",
                  "type": "uint256"
                },
                {
                  "internalType": "uint256",
                  "name": "granularity",
                  "type": "uint256"
                },
                {
                  "internalType": "uint256",
                  "name": "quote",
                  "type": "uint256"
                },
                {
                  "internalType": "uint256[]",
                  "name": "delivery",
                  "type": "uint256[]"
                }
              ],
              "internalType": "struct Solution[]",
              "name": "used",
              "type": "tuple[]"
            }
          ],
          "internalType": "struct MarketSearch.SearchArg",
          "name": "searcharg_",
          "type": "tuple"
        }
      ],
      "name": "recurseSearchCFilter",
      "outputs": [
        {
          "components": [
            {
              "internalType": "uint256",
              "name": "qty",
              "type": "uint256"
            },
            {
              "components": [
                {
                  "internalType": "uint256",
                  "name": "quotemin",
                  "type": "uint256"
                },
                {
                  "internalType": "uint256",
                  "name": "quoteavg",
                  "type": "uint256"
                },
                {
                  "internalType": "uint256",
                  "name": "quotemax",
                  "type": "uint256"
                }
              ],
              "internalType": "struct Quote",
              "name": "quote",
              "type": "tuple"
            },
            {
              "components": [
                {
                  "internalType": "bytes32[]",
                  "name": "path",
                  "type": "bytes32[]"
                },
                {
                  "internalType": "uint256",
                  "name": "qty",
                  "type": "uint256"
                },
                {
                  "components": [
                    {
                      "internalType": "uint256",
                      "name": "quotemin",
                      "type": "uint256"
                    },
                    {
                      "internalType": "uint256",
                      "name": "quoteavg",
                      "type": "uint256"
                    },
                    {
                      "internalType": "uint256",
                      "name": "quotemax",
                      "type": "uint256"
                    }
                  ],
                  "internalType": "struct Quote",
                  "name": "quote",
                  "type": "tuple"
                },
                {
                  "internalType": "uint256",
                  "name": "start",
                  "type": "uint256"
                },
                {
                  "internalType": "uint256",
                  "name": "count",
                  "type": "uint256"
                },
                {
                  "internalType": "uint256[]",
                  "name": "offset",
                  "type": "uint256[]"
                }
              ],
              "internalType": "struct SolutionSetDesc[]",
              "name": "descs",
              "type": "tuple[]"
            },
            {
              "components": [
                {
                  "internalType": "uint256",
                  "name": "orderid",
                  "type": "uint256"
                },
                {
                  "internalType": "bytes32",
                  "name": "addr",
                  "type": "bytes32"
                },
                {
                  "internalType": "uint256",
                  "name": "qty",
                  "type": "uint256"
                },
                {
                  "internalType": "uint256",
                  "name": "granularity",
                  "type": "uint256"
                },
                {
                  "internalType": "uint256",
                  "name": "quote",
                  "type": "uint256"
                },
                {
                  "internalType": "uint256[]",
                  "name": "delivery",
                  "type": "uint256[]"
                }
              ],
              "internalType": "struct Solution[]",
              "name": "solutions",
              "type": "tuple[]"
            }
          ],
          "internalType": "struct SolutionSet",
          "name": "out_",
          "type": "tuple"
        }
      ],
      "stateMutability": "pure",
      "type": "function"
    }
  ],
  "bytecode": "6123d861003a600b82828239805160001a60731461002d57634e487b7160e01b600052600060045260246000fd5b30600052607381538281f3fe73000000000000000000000000000000000000000030146080604052600436106100405760003560e01c8063b51b8e8214610045578063f7ba752914610070575b600080fd5b610058610053366004611958565b610090565b60405161006793929190611adc565b60405180910390f35b61008361007e366004611b5a565b61113b565b6040516100679190611eb7565b606060006100b860405180606001604052806000815260200160008152602001600081525090565b6040860151158061014457506040516370306fb360e11b815273__MarketLib_____________________________9063e060df66906100fb908790600401611eca565b602060405180830381865af4158015610118573d6000803e3d6000fd5b505050506040513d601f19601f8201168201806040525081019061013c9190611edd565b866040015110155b6101d35760405162461bcd60e51b815260206004820152604f60248201527f726563757273655365617263682072657175697265207461726765745f2e717460448201527f793d3d30207c7c207461726765745f2e717479203e3d2073656172636861726760648201526e5f2e757365642e676574517479282960881b608482015260a4015b60405180910390fd5b600087895186516101e49190611f0c565b6101ee9190611f24565b6001600160401b03811115610205576102056115fb565b60405190808252806020026020018201604052801561027257816020015b61025f6040518060c001604052806000815260200160008019168152602001600081526020016000815260200160008152602001606081525090565b8152602001906001900390816102235790505b50905060005b85518110156102cb5785818151811061029357610293611f3b565b60200260200101518282815181106102ad576102ad611f3b565b602002602001018190525080806102c390611f51565b915050610278565b50845188801561033c575b8a5181101561033c578a6102eb600183611f24565b815181106102fb576102fb611f3b565b6020026020010151606001518b828151811061031957610319611f3b565b6020026020010151606001510361033c578061033481611f51565b9150506102d6565b8a5181101561112d57604089015180156105ed576040516366628d2760e01b815273__MarketLib_____________________________906366628d27906103899087908790600401611f6a565b602060405180830381865af41580156103a6573d6000803e3d6000fd5b505050506040513d601f19601f820116820180604052508101906103ca9190611edd565b8110156104375760405162461bcd60e51b815260206004820152603560248201527f72656375727365536561726368207265717569726520717479203e3d20737461604482015274636b2e67657451747928737461636b636f756e742960581b60648201526084016101ca565b6040516366628d2760e01b815273__MarketLib_____________________________906366628d27906104709087908790600401611f6a565b602060405180830381865af415801561048d573d6000803e3d6000fd5b505050506040513d601f19601f820116820180604052508101906104b19190611edd565b6104bb9082611f24565b905060008c83815181106104d1576104d1611f3b565b602002602001015160600151826104e89190611fa2565b11156105ed5789608001518015610500575089606001515b1561057e575b60018c516105149190611f24565b821015610578578b610527836001611f0c565b8151811061053757610537611f3b565b6020026020010151606001518c838151811061055557610555611f3b565b60200260200101516060015103610578578161057081611f51565b925050610506565b5061111b565b89608001516105aa578b828151811061059957610599611f3b565b6020026020010151606001516105ad565b60005b8c83815181106105bf576105bf611f3b565b602002602001015160600151826105d69190611fa2565b6105e09083611f24565b6105ea9190611f0c565b90505b80158061061f575061061c8c838151811061060a5761060a611f3b565b60200260200101518a606001516113dd565b81115b1561063c576106398c838151811061060a5761060a611f3b565b90505b8b828151811061064e5761064e611f3b565b602002602001015160600151811015610667575061111b565b60208901511580159061069a575088602001518c838151811061068c5761068c611f3b565b602002602001015160800151115b1561084e57600089602001518d84815181106106b8576106b8611f3b565b6020026020010151608001516106ce9190611f24565b604051636926b1ff60e11b815273__MarketLib_____________________________9063d24d63fe906107079089908990600401611f6a565b602060405180830381865af4158015610724573d6000803e3d6000fd5b505050506040513d601f19601f820116820180604052508101906107489190611edd565b60208c01516040516366628d2760e01b8152670de0b6b3a7640000919073__MarketLib_____________________________906366628d2790610791908c908c90600401611f6a565b602060405180830381865af41580156107ae573d6000803e3d6000fd5b505050506040513d601f19601f820116820180604052508101906107d29190611edd565b6107dc9190611fb6565b6107e69190611fd5565b6107f09190611f24565b61080290670de0b6b3a7640000611fb6565b61080c9190611fd5565b90508082111561084c578c838151811061082857610828611f3b565b6020026020010151606001518161083f9190611fa2565b6108499082611f24565b91505b505b6040890151156109615760008c838151811061086c5761086c611f3b565b6020026020010151608001518573__MarketLib_____________________________63d24d63fe9091876040518363ffffffff1660e01b81526004016108b3929190611f6a565b602060405180830381865af41580156108d0573d6000803e3d6000fd5b505050506040513d601f19601f820116820180604052508101906108f49190611edd565b8b604001516109039190611f24565b61091590670de0b6b3a7640000611fb6565b61091f9190611fd5565b90508082111561095f578c838151811061093b5761093b611f3b565b602002602001015160600151816109529190611fa2565b61095c9082611f24565b91505b505b8b828151811061097357610973611f3b565b6020026020010151606001518110156109f9575b60018c516109959190611f24565b821015610578578b6109a8836001611f0c565b815181106109b8576109b8611f3b565b6020026020010151606001518c83815181106109d6576109d6611f3b565b6020026020010151606001510361057857816109f181611f51565b925050610987565b60408a015115801590610a8857506040516366628d2760e01b815273__MarketLib_____________________________906366628d2790610a409087908790600401611f6a565b602060405180830381865af4158015610a5d573d6000803e3d6000fd5b505050506040513d601f19601f82011682018060405250810190610a819190611edd565b8a60400151115b15610b5c5760008080610b258f610aa0876001611f0c565b8f8f8b73__MarketLib_____________________________63f31d34b2909160008e6040518463ffffffff1660e01b8152600401610ae093929190611fe9565b600060405180830381865af4158015610afd573d6000803e3d6000fd5b505050506040513d6000823e601f3d908101601f191682016040526100539190810190612159565b92509250925081600014610b5857610b498d8d8b8b6020015186866020015161148d565b15610b58578299508198508097505b5050505b8b8281518110610b6e57610b6e611f3b565b602002602001015160000151848481518110610b8c57610b8c611f3b565b602002602001015160000181815250508b8281518110610bae57610bae611f3b565b602002602001015160200151848481518110610bcc57610bcc611f3b565b6020026020010151602001818152505080848481518110610bef57610bef611f3b565b602002602001015160400181815250508b8281518110610c1157610c11611f3b565b602002602001015160600151848481518110610c2f57610c2f611f3b565b602002602001015160600181815250508b8281518110610c5157610c51611f3b565b602002602001015160800151848481518110610c6f57610c6f611f3b565b602002602001015160800181815250508b8281518110610c9157610c91611f3b565b602002602001015160a00151848481518110610caf57610caf611f3b565b602002602001015160a001819052508280610cc990611f51565b935050610dd28a8a8888602001518873__MarketLib_____________________________6366628d2790918a6040518363ffffffff1660e01b8152600401610d12929190611f6a565b602060405180830381865af4158015610d2f573d6000803e3d6000fd5b505050506040513d601f19601f82011682018060405250810190610d539190611edd565b6040516326c67c8b60e21b815273__MarketLib_____________________________90639b19f22c90610d8c908d908d90600401611f6a565b602060405180830381865af4158015610da9573d6000803e3d6000fd5b505050506040513d601f19601f82011682018060405250810190610dcd9190611edd565b61148d565b15610fef5760405163798e9a5960e11b815273__MarketLib_____________________________9063f31d34b290610e139087906000908890600401611fe9565b600060405180830381865af4158015610e30573d6000803e3d6000fd5b505050506040513d6000823e601f3d908101601f19168201604052610e589190810190612159565b965060405180606001604052806000815260200160008152602001600081525094506000955060005b8751811015610fd85785511580610eb85750878181518110610ea557610ea5611f3b565b6020026020010151608001518660000151115b15610ee157878181518110610ecf57610ecf611f3b565b60209081029190910101516080015186525b60408601511580610f125750878181518110610eff57610eff611f3b565b6020026020010151608001518660400151105b15610f3f57878181518110610f2957610f29611f3b565b6020026020010151608001518660400181815250505b878181518110610f5157610f51611f3b565b602002602001015160800151888281518110610f6f57610f6f611f3b565b602002602001015160400151610f859190611fb6565b86602001818151610f969190611f0c565b9052508751889082908110610fad57610fad611f3b565b60200260200101516040015187610fc49190611f0c565b965080610fd081611f51565b915050610e81565b508585602001818151610feb9190611fd5565b9052505b60408a01511580159061107f57506040516366628d2760e01b815273__MarketLib_____________________________906366628d27906110369087908790600401611f6a565b602060405180830381865af4158015611053573d6000803e3d6000fd5b505050506040513d601f19601f820116820180604052508101906110779190611edd565b8a6040015111155b1561108a575061112d565b61109f8c838151811061060a5761060a611f3b565b811015611119575b60018c516110b59190611f24565b821015611119578b6110c8836001611f0c565b815181106110d8576110d8611f3b565b6020026020010151606001518c83815181106110f6576110f6611f3b565b60200260200101516060015103611119578161111181611f51565b9250506110a7565b505b8061112581611f51565b91505061033c565b505050955095509592505050565b611143611559565b61114b6115a3565b60408601515160005b8181101561132d57868860400151828151811061117357611173611f3b565b60200260200101516000015160008151811061119157611191611f3b565b602002602001015114801561120f5750855160408901518051839081106111ba576111ba611f3b565b60200260200101516000015160018a6040015184815181106111de576111de611f3b565b602002602001015160000151516111f59190611f24565b8151811061120557611205611f3b565b6020026020010151145b15611277576020830151158061125157508760400151818151811061123657611236611f3b565b60200260200101516040015160200151836040015160200151115b15611277578760400151818151811061126c5761126c611f3b565b602002602001015192505b8373__MarketLib_____________________________637513ce1b90918a6040015184815181106112aa576112aa611f3b565b60200260200101518b606001516040518463ffffffff1660e01b81526004016112d59392919061218d565b600060405180830381865af41580156112f2573d6000803e3d6000fd5b505050506040513d6000823e601f3d908101601f1916820160405261131a9190810190612200565b508061132581611f51565b915050611154565b50506020810151156113d45760208082015183526040808301519184019190915260608701519051637513ce1b60e01b815273__MarketLib_____________________________91637513ce1b9161138c91869186919060040161218d565b600060405180830381865af41580156113a9573d6000803e3d6000fd5b505050506040513d6000823e601f3d908101601f191682016040526113d19190810190612200565b91505b50949350505050565b8151604051635640453d60e01b815260009173__MarketLib_____________________________91635640453d9161141a91869190600401611f6a565b602060405180830381865af4158015611437573d6000803e3d6000fd5b505050506040513d601f19601f8201168201806040525081019061145b9190611edd565b836040015161146a9190611f24565b905082606001518161147c9190611fa2565b6114869082611f24565b9392505050565b600086604001516000146114dd57866080015180156114af5750866040015183115b156114bc5750600061154f565b866060015180156114d05750866040015183105b156114dd5750600061154f565b846000036114ed5750600161154f565b8660400151600003611502575083821161154f565b866040015183111561152a576115188486611fb6565b6115228385611fb6565b10905061154f565b8483111561153a5750600161154f565b84830361154b576115188486611fb6565b5060005b9695505050505050565b60405180608001604052806000815260200161158f60405180606001604052806000815260200160008152602001600081525090565b815260200160608152602001606081525090565b6040518060c0016040528060608152602001600081526020016115e060405180606001604052806000815260200160008152602001600081525090565b81526020016000815260200160008152602001606081525090565b634e487b7160e01b600052604160045260246000fd5b60405160c081016001600160401b0381118282101715611633576116336115fb565b60405290565b60405160e081016001600160401b0381118282101715611633576116336115fb565b604051608081016001600160401b0381118282101715611633576116336115fb565b604051606081016001600160401b0381118282101715611633576116336115fb565b604051601f8201601f191681016001600160401b03811182821017156116c7576116c76115fb565b604052919050565b60006001600160401b038211156116e8576116e86115fb565b5060051b60200190565b600082601f83011261170357600080fd5b81356020611718611713836116cf565b61169f565b82815260059290921b8401810191818101908684111561173757600080fd5b8286015b84811015611752578035835291830191830161173b565b509695505050505050565b600082601f83011261176e57600080fd5b8135602061177e611713836116cf565b82815260059290921b8401810191818101908684111561179d57600080fd5b8286015b848110156117525780356001600160401b03808211156117c15760008081fd5b9088019060c0828b03601f19018113156117db5760008081fd5b6117e3611611565b87840135815260408085013589830152606080860135828401526080915081860135818401525060a080860135828401528386013593508484111561182a57600091508182fd5b6118388e8b868901016116f2565b908301525086525050509183019183016117a1565b8035801515811461185d57600080fd5b919050565b600060e0828403121561187457600080fd5b61187c611639565b90508135815260208201356020820152604082013560408201526118a26060830161184d565b60608201526118b36080830161184d565b608082015260a082013560a082015260c08201356001600160401b038111156118db57600080fd5b6118e7848285016116f2565b60c08301525092915050565b60006080828403121561190557600080fd5b61190d61165b565b905081358152602082013560208201526040820135604082015260608201356001600160401b0381111561194057600080fd5b61194c8482850161175d565b60608301525092915050565b600080600080600060a0868803121561197057600080fd5b85356001600160401b038082111561198757600080fd5b61199389838a0161175d565b96506020880135955060408801359150808211156119b057600080fd5b6119bc89838a01611862565b945060608801359150808211156119d257600080fd5b6119de89838a016118f3565b935060808801359150808211156119f457600080fd5b50611a018882890161175d565b9150509295509295909350565b600081518084526020808501945080840160005b83811015611a3e57815187529582019590820190600101611a22565b509495945050505050565b600081518084526020808501808196508360051b8101915082860160005b85811015611acf578284038952815180518552858101518686015260408082015190860152606080820151908601526080808201519086015260a09081015160c091860182905290611abb81870183611a0e565b9a87019a9550505090840190600101611a67565b5091979650505050505050565b60a081526000611aef60a0830186611a49565b9050836020830152611b1860408301848051825260208082015190830152604090810151910152565b949350505050565b600060608284031215611b3257600080fd5b611b3a61167d565b905081358152602082013560208201526040820135604082015292915050565b60008060008060808587031215611b7057600080fd5b6001600160401b038086351115611b8657600080fd5b60c08635870188031215611b9957600080fd5b611ba161165b565b8635870180358252611bb7908990602001611b20565b60208201528160808835890101351115611bd057600080fd5b86358701608081013501601f81018913611be957600080fd5b611bf661171382356116cf565b81358082526020808301929160051b8401018b1015611c1457600080fd5b602083015b6020843560051b850101811015611ce8578581351115611c3857600080fd5b80358401610100818e03601f19011215611c5157600080fd5b611c59611611565b8760208301351115611c6a57600080fd5b611c7c8e6020808501358501016116f2565b815260408201356020820152611c958e60608401611b20565b604082015260c0820135606082015260e08201356080820152876101008301351115611cc057600080fd5b611cd48e60206101008501358501016116f2565b60a082015284525060209283019201611c19565b50604084015250508635870160a00135821015611d0457600080fd5b611d17888835890160a08101350161175d565b60608201529450602086013593506040860135811015611d3657600080fd5b611d468760408801358801611862565b92508060608701351115611d5957600080fd5b50611d6a86606087013587016118f3565b905092959194509250565b80516101008084528151908401819052600091610120850191602091820190845b81811015611db257825185529383019391830191600101611d96565b50505083810151908501526040808401518051828701526020810151606087015290810151608086015250606083015160a0850152608083015160c085015260a083015184820360e0860152611e088282611a0e565b95945050505050565b600060c0830182518452602080840151611e41828701828051825260208082015190830152604090810151910152565b50604084015160c0608087015282815180855260e08801915060e08160051b8901019450838301925060005b81811015611e9b5760df19898703018352611e89868551611d75565b95509284019291840191600101611e6d565b5050505050606083015184820360a0860152611e088282611a49565b6020815260006114866020830184611e11565b6020815260006114866020830184611a49565b600060208284031215611eef57600080fd5b5051919050565b634e487b7160e01b600052601160045260246000fd5b60008219821115611f1f57611f1f611ef6565b500190565b600082821015611f3657611f36611ef6565b500390565b634e487b7160e01b600052603260045260246000fd5b600060018201611f6357611f63611ef6565b5060010190565b604081526000611f7d6040830185611a49565b90508260208301529392505050565b634e487b7160e01b600052601260045260246000fd5b600082611fb157611fb1611f8c565b500690565b6000816000190483118215151615611fd057611fd0611ef6565b500290565b600082611fe457611fe4611f8c565b500490565b606081526000611ffc6060830186611a49565b60208301949094525060400152919050565b600082601f83011261201f57600080fd5b8151602061202f611713836116cf565b82815260059290921b8401810191818101908684111561204e57600080fd5b8286015b848110156117525780518352918301918301612052565b600082601f83011261207a57600080fd5b8151602061208a611713836116cf565b82815260059290921b840181019181810190868411156120a957600080fd5b8286015b848110156117525780516001600160401b03808211156120cd5760008081fd5b9088019060c0828b03601f19018113156120e75760008081fd5b6120ef611611565b87840151815260408085015189830152606080860151828401526080915081860151818401525060a080860151828401528386015193508484111561213657600091508182fd5b6121448e8b8689010161200e565b908301525086525050509183019183016120ad565b60006020828403121561216b57600080fd5b81516001600160401b0381111561218157600080fd5b611b1884828501612069565b6060815260006121a06060830186611e11565b82810360208401526121b28186611d75565b905082810360408401526113d18185611a49565b6000606082840312156121d857600080fd5b6121e061167d565b905081518152602082015160208201526040820151604082015292915050565b6000602080838503121561221357600080fd5b82516001600160401b038082111561222a57600080fd5b9084019060c0828703121561223e57600080fd5b61224661165b565b82518152612256878585016121c6565b8482015260808301518281111561226c57600080fd5b8301601f8101881361227d57600080fd5b805161228b611713826116cf565b81815260059190911b8201860190868101908a8311156122aa57600080fd5b8784015b8381101561236a578051878111156122c557600080fd5b8501610100818e03601f190112156122dc57600080fd5b6122e4611611565b8a820151898111156122f557600080fd5b6123038f8d8386010161200e565b82525060408201518b82015261231c8e606084016121c6565b604082015260c0820151606082015260e082015160808201526101008201518981111561234857600080fd5b6123568f8d8386010161200e565b60a0830152508452509188019188016122ae565b50604085015250505060a083015193508184111561238757600080fd5b61239387858501612069565b6060820152969550505050505056fea26469706673582212206a138452e2e707c4148c2d35c4336427eca1b639231ed09a090770660e37f37064736f6c634300080d0033",
  "bytecodeSha1": "fe3ee7f61c299a2f861da8d3e65eaafa96f5a306",
  "compiler": {
    "evm_version": "istanbul",
    "optimizer": {
      "enabled": true,
      "runs": 200
    },
    "version": "0.8.13+commit.abaa5c0e"
  },
  "contractName": "MarketSearchLib",
  "deployedBytecode": "73000000000000000000000000000000000000000030146080604052600436106100405760003560e01c8063b51b8e8214610045578063f7ba752914610070575b600080fd5b610058610053366004611958565b610090565b60405161006793929190611adc565b60405180910390f35b61008361007e366004611b5a565b61113b565b6040516100679190611eb7565b606060006100b860405180606001604052806000815260200160008152602001600081525090565b6040860151158061014457506040516370306fb360e11b815273__$2fc864095126d4d9b433a37f83d02318c7$__9063e060df66906100fb908790600401611eca565b602060405180830381865af4158015610118573d6000803e3d6000fd5b505050506040513d601f19601f8201168201806040525081019061013c9190611edd565b866040015110155b6101d35760405162461bcd60e51b815260206004820152604f60248201527f726563757273655365617263682072657175697265207461726765745f2e717460448201527f793d3d30207c7c207461726765745f2e717479203e3d2073656172636861726760648201526e5f2e757365642e676574517479282960881b608482015260a4015b60405180910390fd5b600087895186516101e49190611f0c565b6101ee9190611f24565b6001600160401b03811115610205576102056115fb565b60405190808252806020026020018201604052801561027257816020015b61025f6040518060c001604052806000815260200160008019168152602001600081526020016000815260200160008152602001606081525090565b8152602001906001900390816102235790505b50905060005b85518110156102cb5785818151811061029357610293611f3b565b60200260200101518282815181106102ad576102ad611f3b565b602002602001018190525080806102c390611f51565b915050610278565b50845188801561033c575b8a5181101561033c578a6102eb600183611f24565b815181106102fb576102fb611f3b565b6020026020010151606001518b828151811061031957610319611f3b565b6020026020010151606001510361033c578061033481611f51565b9150506102d6565b8a5181101561112d57604089015180156105ed576040516366628d2760e01b815273__$2fc864095126d4d9b433a37f83d02318c7$__906366628d27906103899087908790600401611f6a565b602060405180830381865af41580156103a6573d6000803e3d6000fd5b505050506040513d601f19601f820116820180604052508101906103ca9190611edd565b8110156104375760405162461bcd60e51b815260206004820152603560248201527f72656375727365536561726368207265717569726520717479203e3d20737461604482015274636b2e67657451747928737461636b636f756e742960581b60648201526084016101ca565b6040516366628d2760e01b815273__$2fc864095126d4d9b433a37f83d02318c7$__906366628d27906104709087908790600401611f6a565b602060405180830381865af415801561048d573d6000803e3d6000fd5b505050506040513d601f19601f820116820180604052508101906104b19190611edd565b6104bb9082611f24565b905060008c83815181106104d1576104d1611f3b565b602002602001015160600151826104e89190611fa2565b11156105ed5789608001518015610500575089606001515b1561057e575b60018c516105149190611f24565b821015610578578b610527836001611f0c565b8151811061053757610537611f3b565b6020026020010151606001518c838151811061055557610555611f3b565b60200260200101516060015103610578578161057081611f51565b925050610506565b5061111b565b89608001516105aa578b828151811061059957610599611f3b565b6020026020010151606001516105ad565b60005b8c83815181106105bf576105bf611f3b565b602002602001015160600151826105d69190611fa2565b6105e09083611f24565b6105ea9190611f0c565b90505b80158061061f575061061c8c838151811061060a5761060a611f3b565b60200260200101518a606001516113dd565b81115b1561063c576106398c838151811061060a5761060a611f3b565b90505b8b828151811061064e5761064e611f3b565b602002602001015160600151811015610667575061111b565b60208901511580159061069a575088602001518c838151811061068c5761068c611f3b565b602002602001015160800151115b1561084e57600089602001518d84815181106106b8576106b8611f3b565b6020026020010151608001516106ce9190611f24565b604051636926b1ff60e11b815273__$2fc864095126d4d9b433a37f83d02318c7$__9063d24d63fe906107079089908990600401611f6a565b602060405180830381865af4158015610724573d6000803e3d6000fd5b505050506040513d601f19601f820116820180604052508101906107489190611edd565b60208c01516040516366628d2760e01b8152670de0b6b3a7640000919073__$2fc864095126d4d9b433a37f83d02318c7$__906366628d2790610791908c908c90600401611f6a565b602060405180830381865af41580156107ae573d6000803e3d6000fd5b505050506040513d601f19601f820116820180604052508101906107d29190611edd565b6107dc9190611fb6565b6107e69190611fd5565b6107f09190611f24565b61080290670de0b6b3a7640000611fb6565b61080c9190611fd5565b90508082111561084c578c838151811061082857610828611f3b565b6020026020010151606001518161083f9190611fa2565b6108499082611f24565b91505b505b6040890151156109615760008c838151811061086c5761086c611f3b565b6020026020010151608001518573__$2fc864095126d4d9b433a37f83d02318c7$__63d24d63fe9091876040518363ffffffff1660e01b81526004016108b3929190611f6a565b602060405180830381865af41580156108d0573d6000803e3d6000fd5b505050506040513d601f19601f820116820180604052508101906108f49190611edd565b8b604001516109039190611f24565b61091590670de0b6b3a7640000611fb6565b61091f9190611fd5565b90508082111561095f578c838151811061093b5761093b611f3b565b602002602001015160600151816109529190611fa2565b61095c9082611f24565b91505b505b8b828151811061097357610973611f3b565b6020026020010151606001518110156109f9575b60018c516109959190611f24565b821015610578578b6109a8836001611f0c565b815181106109b8576109b8611f3b565b6020026020010151606001518c83815181106109d6576109d6611f3b565b6020026020010151606001510361057857816109f181611f51565b925050610987565b60408a015115801590610a8857506040516366628d2760e01b815273__$2fc864095126d4d9b433a37f83d02318c7$__906366628d2790610a409087908790600401611f6a565b602060405180830381865af4158015610a5d573d6000803e3d6000fd5b505050506040513d601f19601f82011682018060405250810190610a819190611edd565b8a60400151115b15610b5c5760008080610b258f610aa0876001611f0c565b8f8f8b73__$2fc864095126d4d9b433a37f83d02318c7$__63f31d34b2909160008e6040518463ffffffff1660e01b8152600401610ae093929190611fe9565b600060405180830381865af4158015610afd573d6000803e3d6000fd5b505050506040513d6000823e601f3d908101601f191682016040526100539190810190612159565b92509250925081600014610b5857610b498d8d8b8b6020015186866020015161148d565b15610b58578299508198508097505b5050505b8b8281518110610b6e57610b6e611f3b565b602002602001015160000151848481518110610b8c57610b8c611f3b565b602002602001015160000181815250508b8281518110610bae57610bae611f3b565b602002602001015160200151848481518110610bcc57610bcc611f3b565b6020026020010151602001818152505080848481518110610bef57610bef611f3b565b602002602001015160400181815250508b8281518110610c1157610c11611f3b565b602002602001015160600151848481518110610c2f57610c2f611f3b565b602002602001015160600181815250508b8281518110610c5157610c51611f3b565b602002602001015160800151848481518110610c6f57610c6f611f3b565b602002602001015160800181815250508b8281518110610c9157610c91611f3b565b602002602001015160a00151848481518110610caf57610caf611f3b565b602002602001015160a001819052508280610cc990611f51565b935050610dd28a8a8888602001518873__$2fc864095126d4d9b433a37f83d02318c7$__6366628d2790918a6040518363ffffffff1660e01b8152600401610d12929190611f6a565b602060405180830381865af4158015610d2f573d6000803e3d6000fd5b505050506040513d601f19601f82011682018060405250810190610d539190611edd565b6040516326c67c8b60e21b815273__$2fc864095126d4d9b433a37f83d02318c7$__90639b19f22c90610d8c908d908d90600401611f6a565b602060405180830381865af4158015610da9573d6000803e3d6000fd5b505050506040513d601f19601f82011682018060405250810190610dcd9190611edd565b61148d565b15610fef5760405163798e9a5960e11b815273__$2fc864095126d4d9b433a37f83d02318c7$__9063f31d34b290610e139087906000908890600401611fe9565b600060405180830381865af4158015610e30573d6000803e3d6000fd5b505050506040513d6000823e601f3d908101601f19168201604052610e589190810190612159565b965060405180606001604052806000815260200160008152602001600081525094506000955060005b8751811015610fd85785511580610eb85750878181518110610ea557610ea5611f3b565b6020026020010151608001518660000151115b15610ee157878181518110610ecf57610ecf611f3b565b60209081029190910101516080015186525b60408601511580610f125750878181518110610eff57610eff611f3b565b6020026020010151608001518660400151105b15610f3f57878181518110610f2957610f29611f3b565b6020026020010151608001518660400181815250505b878181518110610f5157610f51611f3b565b602002602001015160800151888281518110610f6f57610f6f611f3b565b602002602001015160400151610f859190611fb6565b86602001818151610f969190611f0c565b9052508751889082908110610fad57610fad611f3b565b60200260200101516040015187610fc49190611f0c565b965080610fd081611f51565b915050610e81565b508585602001818151610feb9190611fd5565b9052505b60408a01511580159061107f57506040516366628d2760e01b815273__$2fc864095126d4d9b433a37f83d02318c7$__906366628d27906110369087908790600401611f6a565b602060405180830381865af4158015611053573d6000803e3d6000fd5b505050506040513d601f19601f820116820180604052508101906110779190611edd565b8a6040015111155b1561108a575061112d565b61109f8c838151811061060a5761060a611f3b565b811015611119575b60018c516110b59190611f24565b821015611119578b6110c8836001611f0c565b815181106110d8576110d8611f3b565b6020026020010151606001518c83815181106110f6576110f6611f3b565b60200260200101516060015103611119578161111181611f51565b9250506110a7565b505b8061112581611f51565b91505061033c565b505050955095509592505050565b611143611559565b61114b6115a3565b60408601515160005b8181101561132d57868860400151828151811061117357611173611f3b565b60200260200101516000015160008151811061119157611191611f3b565b602002602001015114801561120f5750855160408901518051839081106111ba576111ba611f3b565b60200260200101516000015160018a6040015184815181106111de576111de611f3b565b602002602001015160000151516111f59190611f24565b8151811061120557611205611f3b565b6020026020010151145b15611277576020830151158061125157508760400151818151811061123657611236611f3b565b60200260200101516040015160200151836040015160200151115b15611277578760400151818151811061126c5761126c611f3b565b602002602001015192505b8373__$2fc864095126d4d9b433a37f83d02318c7$__637513ce1b90918a6040015184815181106112aa576112aa611f3b565b60200260200101518b606001516040518463ffffffff1660e01b81526004016112d59392919061218d565b600060405180830381865af41580156112f2573d6000803e3d6000fd5b505050506040513d6000823e601f3d908101601f1916820160405261131a9190810190612200565b508061132581611f51565b915050611154565b50506020810151156113d45760208082015183526040808301519184019190915260608701519051637513ce1b60e01b815273__$2fc864095126d4d9b433a37f83d02318c7$__91637513ce1b9161138c91869186919060040161218d565b600060405180830381865af41580156113a9573d6000803e3d6000fd5b505050506040513d6000823e601f3d908101601f191682016040526113d19190810190612200565b91505b50949350505050565b8151604051635640453d60e01b815260009173__$2fc864095126d4d9b433a37f83d02318c7$__91635640453d9161141a91869190600401611f6a565b602060405180830381865af4158015611437573d6000803e3d6000fd5b505050506040513d601f19601f8201168201806040525081019061145b9190611edd565b836040015161146a9190611f24565b905082606001518161147c9190611fa2565b6114869082611f24565b9392505050565b600086604001516000146114dd57866080015180156114af5750866040015183115b156114bc5750600061154f565b866060015180156114d05750866040015183105b156114dd5750600061154f565b846000036114ed5750600161154f565b8660400151600003611502575083821161154f565b866040015183111561152a576115188486611fb6565b6115228385611fb6565b10905061154f565b8483111561153a5750600161154f565b84830361154b576115188486611fb6565b5060005b9695505050505050565b60405180608001604052806000815260200161158f60405180606001604052806000815260200160008152602001600081525090565b815260200160608152602001606081525090565b6040518060c0016040528060608152602001600081526020016115e060405180606001604052806000815260200160008152602001600081525090565b81526020016000815260200160008152602001606081525090565b634e487b7160e01b600052604160045260246000fd5b60405160c081016001600160401b0381118282101715611633576116336115fb565b60405290565b60405160e081016001600160401b0381118282101715611633576116336115fb565b604051608081016001600160401b0381118282101715611633576116336115fb565b604051606081016001600160401b0381118282101715611633576116336115fb565b604051601f8201601f191681016001600160401b03811182821017156116c7576116c76115fb565b604052919050565b60006001600160401b038211156116e8576116e86115fb565b5060051b60200190565b600082601f83011261170357600080fd5b81356020611718611713836116cf565b61169f565b82815260059290921b8401810191818101908684111561173757600080fd5b8286015b84811015611752578035835291830191830161173b565b509695505050505050565b600082601f83011261176e57600080fd5b8135602061177e611713836116cf565b82815260059290921b8401810191818101908684111561179d57600080fd5b8286015b848110156117525780356001600160401b03808211156117c15760008081fd5b9088019060c0828b03601f19018113156117db5760008081fd5b6117e3611611565b87840135815260408085013589830152606080860135828401526080915081860135818401525060a080860135828401528386013593508484111561182a57600091508182fd5b6118388e8b868901016116f2565b908301525086525050509183019183016117a1565b8035801515811461185d57600080fd5b919050565b600060e0828403121561187457600080fd5b61187c611639565b90508135815260208201356020820152604082013560408201526118a26060830161184d565b60608201526118b36080830161184d565b608082015260a082013560a082015260c08201356001600160401b038111156118db57600080fd5b6118e7848285016116f2565b60c08301525092915050565b60006080828403121561190557600080fd5b61190d61165b565b905081358152602082013560208201526040820135604082015260608201356001600160401b0381111561194057600080fd5b61194c8482850161175d565b60608301525092915050565b600080600080600060a0868803121561197057600080fd5b85356001600160401b038082111561198757600080fd5b61199389838a0161175d565b96506020880135955060408801359150808211156119b057600080fd5b6119bc89838a01611862565b945060608801359150808211156119d257600080fd5b6119de89838a016118f3565b935060808801359150808211156119f457600080fd5b50611a018882890161175d565b9150509295509295909350565b600081518084526020808501945080840160005b83811015611a3e57815187529582019590820190600101611a22565b509495945050505050565b600081518084526020808501808196508360051b8101915082860160005b85811015611acf578284038952815180518552858101518686015260408082015190860152606080820151908601526080808201519086015260a09081015160c091860182905290611abb81870183611a0e565b9a87019a9550505090840190600101611a67565b5091979650505050505050565b60a081526000611aef60a0830186611a49565b9050836020830152611b1860408301848051825260208082015190830152604090810151910152565b949350505050565b600060608284031215611b3257600080fd5b611b3a61167d565b905081358152602082013560208201526040820135604082015292915050565b60008060008060808587031215611b7057600080fd5b6001600160401b038086351115611b8657600080fd5b60c08635870188031215611b9957600080fd5b611ba161165b565b8635870180358252611bb7908990602001611b20565b60208201528160808835890101351115611bd057600080fd5b86358701608081013501601f81018913611be957600080fd5b611bf661171382356116cf565b81358082526020808301929160051b8401018b1015611c1457600080fd5b602083015b6020843560051b850101811015611ce8578581351115611c3857600080fd5b80358401610100818e03601f19011215611c5157600080fd5b611c59611611565b8760208301351115611c6a57600080fd5b611c7c8e6020808501358501016116f2565b815260408201356020820152611c958e60608401611b20565b604082015260c0820135606082015260e08201356080820152876101008301351115611cc057600080fd5b611cd48e60206101008501358501016116f2565b60a082015284525060209283019201611c19565b50604084015250508635870160a00135821015611d0457600080fd5b611d17888835890160a08101350161175d565b60608201529450602086013593506040860135811015611d3657600080fd5b611d468760408801358801611862565b92508060608701351115611d5957600080fd5b50611d6a86606087013587016118f3565b905092959194509250565b80516101008084528151908401819052600091610120850191602091820190845b81811015611db257825185529383019391830191600101611d96565b50505083810151908501526040808401518051828701526020810151606087015290810151608086015250606083015160a0850152608083015160c085015260a083015184820360e0860152611e088282611a0e565b95945050505050565b600060c0830182518452602080840151611e41828701828051825260208082015190830152604090810151910152565b50604084015160c0608087015282815180855260e08801915060e08160051b8901019450838301925060005b81811015611e9b5760df19898703018352611e89868551611d75565b95509284019291840191600101611e6d565b5050505050606083015184820360a0860152611e088282611a49565b6020815260006114866020830184611e11565b6020815260006114866020830184611a49565b600060208284031215611eef57600080fd5b5051919050565b634e487b7160e01b600052601160045260246000fd5b60008219821115611f1f57611f1f611ef6565b500190565b600082821015611f3657611f36611ef6565b500390565b634e487b7160e01b600052603260045260246000fd5b600060018201611f6357611f63611ef6565b5060010190565b604081526000611f7d6040830185611a49565b90508260208301529392505050565b634e487b7160e01b600052601260045260246000fd5b600082611fb157611fb1611f8c565b500690565b6000816000190483118215151615611fd057611fd0611ef6565b500290565b600082611fe457611fe4611f8c565b500490565b606081526000611ffc6060830186611a49565b60208301949094525060400152919050565b600082601f83011261201f57600080fd5b8151602061202f611713836116cf565b82815260059290921b8401810191818101908684111561204e57600080fd5b8286015b848110156117525780518352918301918301612052565b600082601f83011261207a57600080fd5b8151602061208a611713836116cf565b82815260059290921b840181019181810190868411156120a957600080fd5b8286015b848110156117525780516001600160401b03808211156120cd5760008081fd5b9088019060c0828b03601f19018113156120e75760008081fd5b6120ef611611565b87840151815260408085015189830152606080860151828401526080915081860151818401525060a080860151828401528386015193508484111561213657600091508182fd5b6121448e8b8689010161200e565b908301525086525050509183019183016120ad565b60006020828403121561216b57600080fd5b81516001600160401b0381111561218157600080fd5b611b1884828501612069565b6060815260006121a06060830186611e11565b82810360208401526121b28186611d75565b905082810360408401526113d18185611a49565b6000606082840312156121d857600080fd5b6121e061167d565b905081518152602082015160208201526040820151604082015292915050565b6000602080838503121561221357600080fd5b82516001600160401b038082111561222a57600080fd5b9084019060c0828703121561223e57600080fd5b61224661165b565b82518152612256878585016121c6565b8482015260808301518281111561226c57600080fd5b8301601f8101881361227d57600080fd5b805161228b611713826116cf565b81815260059190911b8201860190868101908a8311156122aa57600080fd5b8784015b8381101561236a578051878111156122c557600080fd5b8501610100818e03601f190112156122dc57600080fd5b6122e4611611565b8a820151898111156122f557600080fd5b6123038f8d8386010161200e565b82525060408201518b82015261231c8e606084016121c6565b604082015260c0820151606082015260e082015160808201526101008201518981111561234857600080fd5b6123568f8d8386010161200e565b60a0830152508452509188019188016122ae565b50604085015250505060a083015193508184111561238757600080fd5b61239387858501612069565b6060820152969550505050505056fea26469706673582212206a138452e2e707c4148c2d35c4336427eca1b639231ed09a090770660e37f37064736f6c634300080d0033",
  "language": "Solidity",
  "natspec": {
    "kind": "dev",
    "methods": {
      "recurseSearch(Solution[],uint256,MarketSearch.SearchArgTarget,MarketSearch.SearchArg,Solution[])": {
        "details": "we iterate thru solution to seek best price solution in_ filtered solutions startin_ is used  for recusion qty_ target qty, assert if 0, remainer should be removed from qty before calling searcharg_      searcharg_.maxquote IGNORED     should be already filtered      searcharg_.maxavgquote          should be processed      searcharg_.maxcount IGNORED     is handled is __fromTo      searcharg_.used                 must be removed from solutions      searcharg_.remainer IGNORED     should be removed from qty_ before call used_ is the used order to exclude in recursion and count recusion"
      }
    },
    "version": 1
  },
  "opcodes": "PUSH20 0x0 ADDRESS EQ PUSH1 0x80 PUSH1 0x40 MSTORE PUSH1 0x4 CALLDATASIZE LT PUSH2 0x40 JUMPI PUSH1 0x0 CALLDATALOAD PUSH1 0xE0 SHR DUP1 PUSH4 0xB51B8E82 EQ PUSH2 0x45 JUMPI DUP1 PUSH4 0xF7BA7529 EQ PUSH2 0x70 JUMPI JUMPDEST PUSH1 0x0 DUP1 REVERT JUMPDEST PUSH2 0x58 PUSH2 0x53 CALLDATASIZE PUSH1 0x4 PUSH2 0x1958 JUMP JUMPDEST PUSH2 0x90 JUMP JUMPDEST PUSH1 0x40 MLOAD PUSH2 0x67 SWAP4 SWAP3 SWAP2 SWAP1 PUSH2 0x1ADC JUMP JUMPDEST PUSH1 0x40 MLOAD DUP1 SWAP2 SUB SWAP1 RETURN JUMPDEST PUSH2 0x83 PUSH2 0x7E CALLDATASIZE PUSH1 0x4 PUSH2 0x1B5A JUMP JUMPDEST PUSH2 0x113B JUMP JUMPDEST PUSH1 0x40 MLOAD PUSH2 0x67 SWAP2 SWAP1 PUSH2 0x1EB7 JUMP JUMPDEST PUSH1 0x60 PUSH1 0x0 PUSH2 0xB8 PUSH1 0x40 MLOAD DUP1 PUSH1 0x60 ADD PUSH1 0x40 MSTORE DUP1 PUSH1 0x0 DUP2 MSTORE PUSH1 0x20 ADD PUSH1 0x0 DUP2 MSTORE PUSH1 0x20 ADD PUSH1 0x0 DUP2 MSTORE POP SWAP1 JUMP JUMPDEST PUSH1 0x40 DUP7 ADD MLOAD ISZERO DUP1 PUSH2 0x144 JUMPI POP PUSH1 0x40 MLOAD PUSH4 0x70306FB3 PUSH1 0xE1 SHL DUP2 MSTORE PUSH20 0x0 SWAP1 PUSH4 0xE060DF66 SWAP1 PUSH2 0xFB SWAP1 DUP8 SWAP1 PUSH1 0x4 ADD PUSH2 0x1ECA JUMP JUMPDEST PUSH1 0x20 PUSH1 0x40 MLOAD DUP1 DUP4 SUB DUP2 DUP7 GAS DELEGATECALL ISZERO DUP1 ISZERO PUSH2 0x118 JUMPI RETURNDATASIZE PUSH1 0x0 DUP1 RETURNDATACOPY RETURNDATASIZE PUSH1 0x0 REVERT JUMPDEST POP POP POP POP PUSH1 0x40 MLOAD RETURNDATASIZE PUSH1 0x1F NOT PUSH1 0x1F DUP3 ADD AND DUP3 ADD DUP1 PUSH1 0x40 MSTORE POP DUP2 ADD SWAP1 PUSH2 0x13C SWAP2 SWAP1 PUSH2 0x1EDD JUMP JUMPDEST DUP7 PUSH1 0x40 ADD MLOAD LT ISZERO JUMPDEST PUSH2 0x1D3 JUMPI PUSH1 0x40 MLOAD PUSH3 0x461BCD PUSH1 0xE5 SHL DUP2 MSTORE PUSH1 0x20 PUSH1 0x4 DUP3 ADD MSTORE PUSH1 0x4F PUSH1 0x24 DUP3 ADD MSTORE PUSH32 0x726563757273655365617263682072657175697265207461726765745F2E7174 PUSH1 0x44 DUP3 ADD MSTORE PUSH32 0x793D3D30207C7C207461726765745F2E717479203E3D20736561726368617267 PUSH1 0x64 DUP3 ADD MSTORE PUSH15 0x5F2E757365642E6765745174792829 PUSH1 0x88 SHL PUSH1 0x84 DUP3 ADD MSTORE PUSH1 0xA4 ADD JUMPDEST PUSH1 0x40 MLOAD DUP1 SWAP2 SUB SWAP1 REVERT JUMPDEST PUSH1 0x0 DUP8 DUP10 MLOAD DUP7 MLOAD PUSH2 0x1E4 SWAP2 SWAP1 PUSH2 0x1F0C JUMP JUMPDEST PUSH2 0x1EE SWAP2 SWAP1 PUSH2 0x1F24 JUMP JUMPDEST PUSH1 0x1 PUSH1 0x1 PUSH1 0x40 SHL SUB DUP2 GT ISZERO PUSH2 0x205 JUMPI PUSH2 0x205 PUSH2 0x15FB JUMP JUMPDEST PUSH1 0x40 MLOAD SWAP1 DUP1 DUP3 MSTORE DUP1 PUSH1 0x20 MUL PUSH1 0x20 ADD DUP3 ADD PUSH1 0x40 MSTORE DUP1 ISZERO PUSH2 0x272 JUMPI DUP2 PUSH1 0x20 ADD JUMPDEST PUSH2 0x25F PUSH1 0x40 MLOAD DUP1 PUSH1 0xC0 ADD PUSH1 0x40 MSTORE DUP1 PUSH1 0x0 DUP2 MSTORE PUSH1 0x20 ADD PUSH1 0x0 DUP1 NOT AND DUP2 MSTORE PUSH1 0x20 ADD PUSH1 0x0 DUP2 MSTORE PUSH1 0x20 ADD PUSH1 0x0 DUP2 MSTORE PUSH1 0x20 ADD PUSH1 0x0 DUP2 MSTORE PUSH1 0x20 ADD PUSH1 0x60 DUP2 MSTORE POP SWAP1 JUMP JUMPDEST DUP2 MSTORE PUSH1 0x20 ADD SWAP1 PUSH1 0x1 SWAP1 SUB SWAP1 DUP2 PUSH2 0x223 JUMPI SWAP1 POP JUMPDEST POP SWAP1 POP PUSH1 0x0 JUMPDEST DUP6 MLOAD DUP2 LT ISZERO PUSH2 0x2CB JUMPI DUP6 DUP2 DUP2 MLOAD DUP2 LT PUSH2 0x293 JUMPI PUSH2 0x293 PUSH2 0x1F3B JUMP JUMPDEST PUSH1 0x20 MUL PUSH1 0x20 ADD ADD MLOAD DUP3 DUP3 DUP2 MLOAD DUP2 LT PUSH2 0x2AD JUMPI PUSH2 0x2AD PUSH2 0x1F3B JUMP JUMPDEST PUSH1 0x20 MUL PUSH1 0x20 ADD ADD DUP2 SWAP1 MSTORE POP DUP1 DUP1 PUSH2 0x2C3 SWAP1 PUSH2 0x1F51 JUMP JUMPDEST SWAP2 POP POP PUSH2 0x278 JUMP JUMPDEST POP DUP5 MLOAD DUP9 DUP1 ISZERO PUSH2 0x33C JUMPI JUMPDEST DUP11 MLOAD DUP2 LT ISZERO PUSH2 0x33C JUMPI DUP11 PUSH2 0x2EB PUSH1 0x1 DUP4 PUSH2 0x1F24 JUMP JUMPDEST DUP2 MLOAD DUP2 LT PUSH2 0x2FB JUMPI PUSH2 0x2FB PUSH2 0x1F3B JUMP JUMPDEST PUSH1 0x20 MUL PUSH1 0x20 ADD ADD MLOAD PUSH1 0x60 ADD MLOAD DUP12 DUP3 DUP2 MLOAD DUP2 LT PUSH2 0x319 JUMPI PUSH2 0x319 PUSH2 0x1F3B JUMP JUMPDEST PUSH1 0x20 MUL PUSH1 0x20 ADD ADD MLOAD PUSH1 0x60 ADD MLOAD SUB PUSH2 0x33C JUMPI DUP1 PUSH2 0x334 DUP2 PUSH2 0x1F51 JUMP JUMPDEST SWAP2 POP POP PUSH2 0x2D6 JUMP JUMPDEST DUP11 MLOAD DUP2 LT ISZERO PUSH2 0x112D JUMPI PUSH1 0x40 DUP10 ADD MLOAD DUP1 ISZERO PUSH2 0x5ED JUMPI PUSH1 0x40 MLOAD PUSH4 0x66628D27 PUSH1 0xE0 SHL DUP2 MSTORE PUSH20 0x0 SWAP1 PUSH4 0x66628D27 SWAP1 PUSH2 0x389 SWAP1 DUP8 SWAP1 DUP8 SWAP1 PUSH1 0x4 ADD PUSH2 0x1F6A JUMP JUMPDEST PUSH1 0x20 PUSH1 0x40 MLOAD DUP1 DUP4 SUB DUP2 DUP7 GAS DELEGATECALL ISZERO DUP1 ISZERO PUSH2 0x3A6 JUMPI RETURNDATASIZE PUSH1 0x0 DUP1 RETURNDATACOPY RETURNDATASIZE PUSH1 0x0 REVERT JUMPDEST POP POP POP POP PUSH1 0x40 MLOAD RETURNDATASIZE PUSH1 0x1F NOT PUSH1 0x1F DUP3 ADD AND DUP3 ADD DUP1 PUSH1 0x40 MSTORE POP DUP2 ADD SWAP1 PUSH2 0x3CA SWAP2 SWAP1 PUSH2 0x1EDD JUMP JUMPDEST DUP2 LT ISZERO PUSH2 0x437 JUMPI PUSH1 0x40 MLOAD PUSH3 0x461BCD PUSH1 0xE5 SHL DUP2 MSTORE PUSH1 0x20 PUSH1 0x4 DUP3 ADD MSTORE PUSH1 0x35 PUSH1 0x24 DUP3 ADD MSTORE PUSH32 0x72656375727365536561726368207265717569726520717479203E3D20737461 PUSH1 0x44 DUP3 ADD MSTORE PUSH21 0x636B2E67657451747928737461636B636F756E7429 PUSH1 0x58 SHL PUSH1 0x64 DUP3 ADD MSTORE PUSH1 0x84 ADD PUSH2 0x1CA JUMP JUMPDEST PUSH1 0x40 MLOAD PUSH4 0x66628D27 PUSH1 0xE0 SHL DUP2 MSTORE PUSH20 0x0 SWAP1 PUSH4 0x66628D27 SWAP1 PUSH2 0x470 SWAP1 DUP8 SWAP1 DUP8 SWAP1 PUSH1 0x4 ADD PUSH2 0x1F6A JUMP JUMPDEST PUSH1 0x20 PUSH1 0x40 MLOAD DUP1 DUP4 SUB DUP2 DUP7 GAS DELEGATECALL ISZERO DUP1 ISZERO PUSH2 0x48D JUMPI RETURNDATASIZE PUSH1 0x0 DUP1 RETURNDATACOPY RETURNDATASIZE PUSH1 0x0 REVERT JUMPDEST POP POP POP POP PUSH1 0x40 MLOAD RETURNDATASIZE PUSH1 0x1F NOT PUSH1 0x1F DUP3 ADD AND DUP3 ADD DUP1 PUSH1 0x40 MSTORE POP DUP2 ADD SWAP1 PUSH2 0x4B1 SWAP2 SWAP1 PUSH2 0x1EDD JUMP JUMPDEST PUSH2 0x4BB SWAP1 DUP3 PUSH2 0x1F24 JUMP JUMPDEST SWAP1 POP PUSH1 0x0 DUP13 DUP4 DUP2 MLOAD DUP2 LT PUSH2 0x4D1 JUMPI PUSH2 0x4D1 PUSH2 0x1F3B JUMP JUMPDEST PUSH1 0x20 MUL PUSH1 0x20 ADD ADD MLOAD PUSH1 0x60 ADD MLOAD DUP3 PUSH2 0x4E8 SWAP2 SWAP1 PUSH2 0x1FA2 JUMP JUMPDEST GT ISZERO PUSH2 0x5ED JUMPI DUP10 PUSH1 0x80 ADD MLOAD DUP1 ISZERO PUSH2 0x500 JUMPI POP DUP10 PUSH1 0x60 ADD MLOAD JUMPDEST ISZERO PUSH2 0x57E JUMPI JUMPDEST PUSH1 0x1 DUP13 MLOAD PUSH2 0x514 SWAP2 SWAP1 PUSH2 0x1F24 JUMP JUMPDEST DUP3 LT ISZERO PUSH2 0x578 JUMPI DUP12 PUSH2 0x527 DUP4 PUSH1 0x1 PUSH2 0x1F0C JUMP JUMPDEST DUP2 MLOAD DUP2 LT PUSH2 0x537 JUMPI PUSH2 0x537 PUSH2 0x1F3B JUMP JUMPDEST PUSH1 0x20 MUL PUSH1 0x20 ADD ADD MLOAD PUSH1 0x60 ADD MLOAD DUP13 DUP4 DUP2 MLOAD DUP2 LT PUSH2 0x555 JUMPI PUSH2 0x555 PUSH2 0x1F3B JUMP JUMPDEST PUSH1 0x20 MUL PUSH1 0x20 ADD ADD MLOAD PUSH1 0x60 ADD MLOAD SUB PUSH2 0x578 JUMPI DUP2 PUSH2 0x570 DUP2 PUSH2 0x1F51 JUMP JUMPDEST SWAP3 POP POP PUSH2 0x506 JUMP JUMPDEST POP PUSH2 0x111B JUMP JUMPDEST DUP10 PUSH1 0x80 ADD MLOAD PUSH2 0x5AA JUMPI DUP12 DUP3 DUP2 MLOAD DUP2 LT PUSH2 0x599 JUMPI PUSH2 0x599 PUSH2 0x1F3B JUMP JUMPDEST PUSH1 0x20 MUL PUSH1 0x20 ADD ADD MLOAD PUSH1 0x60 ADD MLOAD PUSH2 0x5AD JUMP JUMPDEST PUSH1 0x0 JUMPDEST DUP13 DUP4 DUP2 MLOAD DUP2 LT PUSH2 0x5BF JUMPI PUSH2 0x5BF PUSH2 0x1F3B JUMP JUMPDEST PUSH1 0x20 MUL PUSH1 0x20 ADD ADD MLOAD PUSH1 0x60 ADD MLOAD DUP3 PUSH2 0x5D6 SWAP2 SWAP1 PUSH2 0x1FA2 JUMP JUMPDEST PUSH2 0x5E0 SWAP1 DUP4 PUSH2 0x1F24 JUMP JUMPDEST PUSH2 0x5EA SWAP2 SWAP1 PUSH2 0x1F0C JUMP JUMPDEST SWAP1 POP JUMPDEST DUP1 ISZERO DUP1 PUSH2 0x61F JUMPI POP PUSH2 0x61C DUP13 DUP4 DUP2 MLOAD DUP2 LT PUSH2 0x60A JUMPI PUSH2 0x60A PUSH2 0x1F3B JUMP JUMPDEST PUSH1 0x20 MUL PUSH1 0x20 ADD ADD MLOAD DUP11 PUSH1 0x60 ADD MLOAD PUSH2 0x13DD JUMP JUMPDEST DUP2 GT JUMPDEST ISZERO PUSH2 0x63C JUMPI PUSH2 0x639 DUP13 DUP4 DUP2 MLOAD DUP2 LT PUSH2 0x60A JUMPI PUSH2 0x60A PUSH2 0x1F3B JUMP JUMPDEST SWAP1 POP JUMPDEST DUP12 DUP3 DUP2 MLOAD DUP2 LT PUSH2 0x64E JUMPI PUSH2 0x64E PUSH2 0x1F3B JUMP JUMPDEST PUSH1 0x20 MUL PUSH1 0x20 ADD ADD MLOAD PUSH1 0x60 ADD MLOAD DUP2 LT ISZERO PUSH2 0x667 JUMPI POP PUSH2 0x111B JUMP JUMPDEST PUSH1 0x20 DUP10 ADD MLOAD ISZERO DUP1 ISZERO SWAP1 PUSH2 0x69A JUMPI POP DUP9 PUSH1 0x20 ADD MLOAD DUP13 DUP4 DUP2 MLOAD DUP2 LT PUSH2 0x68C JUMPI PUSH2 0x68C PUSH2 0x1F3B JUMP JUMPDEST PUSH1 0x20 MUL PUSH1 0x20 ADD ADD MLOAD PUSH1 0x80 ADD MLOAD GT JUMPDEST ISZERO PUSH2 0x84E JUMPI PUSH1 0x0 DUP10 PUSH1 0x20 ADD MLOAD DUP14 DUP5 DUP2 MLOAD DUP2 LT PUSH2 0x6B8 JUMPI PUSH2 0x6B8 PUSH2 0x1F3B JUMP JUMPDEST PUSH1 0x20 MUL PUSH1 0x20 ADD ADD MLOAD PUSH1 0x80 ADD MLOAD PUSH2 0x6CE SWAP2 SWAP1 PUSH2 0x1F24 JUMP JUMPDEST PUSH1 0x40 MLOAD PUSH4 0x6926B1FF PUSH1 0xE1 SHL DUP2 MSTORE PUSH20 0x0 SWAP1 PUSH4 0xD24D63FE SWAP1 PUSH2 0x707 SWAP1 DUP10 SWAP1 DUP10 SWAP1 PUSH1 0x4 ADD PUSH2 0x1F6A JUMP JUMPDEST PUSH1 0x20 PUSH1 0x40 MLOAD DUP1 DUP4 SUB DUP2 DUP7 GAS DELEGATECALL ISZERO DUP1 ISZERO PUSH2 0x724 JUMPI RETURNDATASIZE PUSH1 0x0 DUP1 RETURNDATACOPY RETURNDATASIZE PUSH1 0x0 REVERT JUMPDEST POP POP POP POP PUSH1 0x40 MLOAD RETURNDATASIZE PUSH1 0x1F NOT PUSH1 0x1F DUP3 ADD AND DUP3 ADD DUP1 PUSH1 0x40 MSTORE POP DUP2 ADD SWAP1 PUSH2 0x748 SWAP2 SWAP1 PUSH2 0x1EDD JUMP JUMPDEST PUSH1 0x20 DUP13 ADD MLOAD PUSH1 0x40 MLOAD PUSH4 0x66628D27 PUSH1 0xE0 SHL DUP2 MSTORE PUSH8 0xDE0B6B3A7640000 SWAP2 SWAP1 PUSH20 0x0 SWAP1 PUSH4 0x66628D27 SWAP1 PUSH2 0x791 SWAP1 DUP13 SWAP1 DUP13 SWAP1 PUSH1 0x4 ADD PUSH2 0x1F6A JUMP JUMPDEST PUSH1 0x20 PUSH1 0x40 MLOAD DUP1 DUP4 SUB DUP2 DUP7 GAS DELEGATECALL ISZERO DUP1 ISZERO PUSH2 0x7AE JUMPI RETURNDATASIZE PUSH1 0x0 DUP1 RETURNDATACOPY RETURNDATASIZE PUSH1 0x0 REVERT JUMPDEST POP POP POP POP PUSH1 0x40 MLOAD RETURNDATASIZE PUSH1 0x1F NOT PUSH1 0x1F DUP3 ADD AND DUP3 ADD DUP1 PUSH1 0x40 MSTORE POP DUP2 ADD SWAP1 PUSH2 0x7D2 SWAP2 SWAP1 PUSH2 0x1EDD JUMP JUMPDEST PUSH2 0x7DC SWAP2 SWAP1 PUSH2 0x1FB6 JUMP JUMPDEST PUSH2 0x7E6 SWAP2 SWAP1 PUSH2 0x1FD5 JUMP JUMPDEST PUSH2 0x7F0 SWAP2 SWAP1 PUSH2 0x1F24 JUMP JUMPDEST PUSH2 0x802 SWAP1 PUSH8 0xDE0B6B3A7640000 PUSH2 0x1FB6 JUMP JUMPDEST PUSH2 0x80C SWAP2 SWAP1 PUSH2 0x1FD5 JUMP JUMPDEST SWAP1 POP DUP1 DUP3 GT ISZERO PUSH2 0x84C JUMPI DUP13 DUP4 DUP2 MLOAD DUP2 LT PUSH2 0x828 JUMPI PUSH2 0x828 PUSH2 0x1F3B JUMP JUMPDEST PUSH1 0x20 MUL PUSH1 0x20 ADD ADD MLOAD PUSH1 0x60 ADD MLOAD DUP2 PUSH2 0x83F SWAP2 SWAP1 PUSH2 0x1FA2 JUMP JUMPDEST PUSH2 0x849 SWAP1 DUP3 PUSH2 0x1F24 JUMP JUMPDEST SWAP2 POP JUMPDEST POP JUMPDEST PUSH1 0x40 DUP10 ADD MLOAD ISZERO PUSH2 0x961 JUMPI PUSH1 0x0 DUP13 DUP4 DUP2 MLOAD DUP2 LT PUSH2 0x86C JUMPI PUSH2 0x86C PUSH2 0x1F3B JUMP JUMPDEST PUSH1 0x20 MUL PUSH1 0x20 ADD ADD MLOAD PUSH1 0x80 ADD MLOAD DUP6 PUSH20 0x0 PUSH4 0xD24D63FE SWAP1 SWAP2 DUP8 PUSH1 0x40 MLOAD DUP4 PUSH4 0xFFFFFFFF AND PUSH1 0xE0 SHL DUP2 MSTORE PUSH1 0x4 ADD PUSH2 0x8B3 SWAP3 SWAP2 SWAP1 PUSH2 0x1F6A JUMP JUMPDEST PUSH1 0x20 PUSH1 0x40 MLOAD DUP1 DUP4 SUB DUP2 DUP7 GAS DELEGATECALL ISZERO DUP1 ISZERO PUSH2 0x8D0 JUMPI RETURNDATASIZE PUSH1 0x0 DUP1 RETURNDATACOPY RETURNDATASIZE PUSH1 0x0 REVERT JUMPDEST POP POP POP POP PUSH1 0x40 MLOAD RETURNDATASIZE PUSH1 0x1F NOT PUSH1 0x1F DUP3 ADD AND DUP3 ADD DUP1 PUSH1 0x40 MSTORE POP DUP2 ADD SWAP1 PUSH2 0x8F4 SWAP2 SWAP1 PUSH2 0x1EDD JUMP JUMPDEST DUP12 PUSH1 0x40 ADD MLOAD PUSH2 0x903 SWAP2 SWAP1 PUSH2 0x1F24 JUMP JUMPDEST PUSH2 0x915 SWAP1 PUSH8 0xDE0B6B3A7640000 PUSH2 0x1FB6 JUMP JUMPDEST PUSH2 0x91F SWAP2 SWAP1 PUSH2 0x1FD5 JUMP JUMPDEST SWAP1 POP DUP1 DUP3 GT ISZERO PUSH2 0x95F JUMPI DUP13 DUP4 DUP2 MLOAD DUP2 LT PUSH2 0x93B JUMPI PUSH2 0x93B PUSH2 0x1F3B JUMP JUMPDEST PUSH1 0x20 MUL PUSH1 0x20 ADD ADD MLOAD PUSH1 0x60 ADD MLOAD DUP2 PUSH2 0x952 SWAP2 SWAP1 PUSH2 0x1FA2 JUMP JUMPDEST PUSH2 0x95C SWAP1 DUP3 PUSH2 0x1F24 JUMP JUMPDEST SWAP2 POP JUMPDEST POP JUMPDEST DUP12 DUP3 DUP2 MLOAD DUP2 LT PUSH2 0x973 JUMPI PUSH2 0x973 PUSH2 0x1F3B JUMP JUMPDEST PUSH1 0x20 MUL PUSH1 0x20 ADD ADD MLOAD PUSH1 0x60 ADD MLOAD DUP2 LT ISZERO PUSH2 0x9F9 JUMPI JUMPDEST PUSH1 0x1 DUP13 MLOAD PUSH2 0x995 SWAP2 SWAP1 PUSH2 0x1F24 JUMP JUMPDEST DUP3 LT ISZERO PUSH2 0x578 JUMPI DUP12 PUSH2 0x9A8 DUP4 PUSH1 0x1 PUSH2 0x1F0C JUMP JUMPDEST DUP2 MLOAD DUP2 LT PUSH2 0x9B8 JUMPI PUSH2 0x9B8 PUSH2 0x1F3B JUMP JUMPDEST PUSH1 0x20 MUL PUSH1 0x20 ADD ADD MLOAD PUSH1 0x60 ADD MLOAD DUP13 DUP4 DUP2 MLOAD DUP2 LT PUSH2 0x9D6 JUMPI PUSH2 0x9D6 PUSH2 0x1F3B JUMP JUMPDEST PUSH1 0x20 MUL PUSH1 0x20 ADD ADD MLOAD PUSH1 0x60 ADD MLOAD SUB PUSH2 0x578 JUMPI DUP2 PUSH2 0x9F1 DUP2 PUSH2 0x1F51 JUMP JUMPDEST SWAP3 POP POP PUSH2 0x987 JUMP JUMPDEST PUSH1 0x40 DUP11 ADD MLOAD ISZERO DUP1 ISZERO SWAP1 PUSH2 0xA88 JUMPI POP PUSH1 0x40 MLOAD PUSH4 0x66628D27 PUSH1 0xE0 SHL DUP2 MSTORE PUSH20 0x0 SWAP1 PUSH4 0x66628D27 SWAP1 PUSH2 0xA40 SWAP1 DUP8 SWAP1 DUP8 SWAP1 PUSH1 0x4 ADD PUSH2 0x1F6A JUMP JUMPDEST PUSH1 0x20 PUSH1 0x40 MLOAD DUP1 DUP4 SUB DUP2 DUP7 GAS DELEGATECALL ISZERO DUP1 ISZERO PUSH2 0xA5D JUMPI RETURNDATASIZE PUSH1 0x0 DUP1 RETURNDATACOPY RETURNDATASIZE PUSH1 0x0 REVERT JUMPDEST POP POP POP POP PUSH1 0x40 MLOAD RETURNDATASIZE PUSH1 0x1F NOT PUSH1 0x1F DUP3 ADD AND DUP3 ADD DUP1 PUSH1 0x40 MSTORE POP DUP2 ADD SWAP1 PUSH2 0xA81 SWAP2 SWAP1 PUSH2 0x1EDD JUMP JUMPDEST DUP11 PUSH1 0x40 ADD MLOAD GT JUMPDEST ISZERO PUSH2 0xB5C JUMPI PUSH1 0x0 DUP1 DUP1 PUSH2 0xB25 DUP16 PUSH2 0xAA0 DUP8 PUSH1 0x1 PUSH2 0x1F0C JUMP JUMPDEST DUP16 DUP16 DUP12 PUSH20 0x0 PUSH4 0xF31D34B2 SWAP1 SWAP2 PUSH1 0x0 DUP15 PUSH1 0x40 MLOAD DUP5 PUSH4 0xFFFFFFFF AND PUSH1 0xE0 SHL DUP2 MSTORE PUSH1 0x4 ADD PUSH2 0xAE0 SWAP4 SWAP3 SWAP2 SWAP1 PUSH2 0x1FE9 JUMP JUMPDEST PUSH1 0x0 PUSH1 0x40 MLOAD DUP1 DUP4 SUB DUP2 DUP7 GAS DELEGATECALL ISZERO DUP1 ISZERO PUSH2 0xAFD JUMPI RETURNDATASIZE PUSH1 0x0 DUP1 RETURNDATACOPY RETURNDATASIZE PUSH1 0x0 REVERT JUMPDEST POP POP POP POP PUSH1 0x40 MLOAD RETURNDATASIZE PUSH1 0x0 DUP3 RETURNDATACOPY PUSH1 0x1F RETURNDATASIZE SWAP1 DUP2 ADD PUSH1 0x1F NOT AND DUP3 ADD PUSH1 0x40 MSTORE PUSH2 0x53 SWAP2 SWAP1 DUP2 ADD SWAP1 PUSH2 0x2159 JUMP JUMPDEST SWAP3 POP SWAP3 POP SWAP3 POP DUP2 PUSH1 0x0 EQ PUSH2 0xB58 JUMPI PUSH2 0xB49 DUP14 DUP14 DUP12 DUP12 PUSH1 0x20 ADD MLOAD DUP7 DUP7 PUSH1 0x20 ADD MLOAD PUSH2 0x148D JUMP JUMPDEST ISZERO PUSH2 0xB58 JUMPI DUP3 SWAP10 POP DUP2 SWAP9 POP DUP1 SWAP8 POP JUMPDEST POP POP POP JUMPDEST DUP12 DUP3 DUP2 MLOAD DUP2 LT PUSH2 0xB6E JUMPI PUSH2 0xB6E PUSH2 0x1F3B JUMP JUMPDEST PUSH1 0x20 MUL PUSH1 0x20 ADD ADD MLOAD PUSH1 0x0 ADD MLOAD DUP5 DUP5 DUP2 MLOAD DUP2 LT PUSH2 0xB8C JUMPI PUSH2 0xB8C PUSH2 0x1F3B JUMP JUMPDEST PUSH1 0x20 MUL PUSH1 0x20 ADD ADD MLOAD PUSH1 0x0 ADD DUP2 DUP2 MSTORE POP POP DUP12 DUP3 DUP2 MLOAD DUP2 LT PUSH2 0xBAE JUMPI PUSH2 0xBAE PUSH2 0x1F3B JUMP JUMPDEST PUSH1 0x20 MUL PUSH1 0x20 ADD ADD MLOAD PUSH1 0x20 ADD MLOAD DUP5 DUP5 DUP2 MLOAD DUP2 LT PUSH2 0xBCC JUMPI PUSH2 0xBCC PUSH2 0x1F3B JUMP JUMPDEST PUSH1 0x20 MUL PUSH1 0x20 ADD ADD MLOAD PUSH1 0x20 ADD DUP2 DUP2 MSTORE POP POP DUP1 DUP5 DUP5 DUP2 MLOAD DUP2 LT PUSH2 0xBEF JUMPI PUSH2 0xBEF PUSH2 0x1F3B JUMP JUMPDEST PUSH1 0x20 MUL PUSH1 0x20 ADD ADD MLOAD PUSH1 0x40 ADD DUP2 DUP2 MSTORE POP POP DUP12 DUP3 DUP2 MLOAD DUP2 LT PUSH2 0xC11 JUMPI PUSH2 0xC11 PUSH2 0x1F3B JUMP JUMPDEST PUSH1 0x20 MUL PUSH1 0x20 ADD ADD MLOAD PUSH1 0x60 ADD MLOAD DUP5 DUP5 DUP2 MLOAD DUP2 LT PUSH2 0xC2F JUMPI PUSH2 0xC2F PUSH2 0x1F3B JUMP JUMPDEST PUSH1 0x20 MUL PUSH1 0x20 ADD ADD MLOAD PUSH1 0x60 ADD DUP2 DUP2 MSTORE POP POP DUP12 DUP3 DUP2 MLOAD DUP2 LT PUSH2 0xC51 JUMPI PUSH2 0xC51 PUSH2 0x1F3B JUMP JUMPDEST PUSH1 0x20 MUL PUSH1 0x20 ADD ADD MLOAD PUSH1 0x80 ADD MLOAD DUP5 DUP5 DUP2 MLOAD DUP2 LT PUSH2 0xC6F JUMPI PUSH2 0xC6F PUSH2 0x1F3B JUMP JUMPDEST PUSH1 0x20 MUL PUSH1 0x20 ADD ADD MLOAD PUSH1 0x80 ADD DUP2 DUP2 MSTORE POP POP DUP12 DUP3 DUP2 MLOAD DUP2 LT PUSH2 0xC91 JUMPI PUSH2 0xC91 PUSH2 0x1F3B JUMP JUMPDEST PUSH1 0x20 MUL PUSH1 0x20 ADD ADD MLOAD PUSH1 0xA0 ADD MLOAD DUP5 DUP5 DUP2 MLOAD DUP2 LT PUSH2 0xCAF JUMPI PUSH2 0xCAF PUSH2 0x1F3B JUMP JUMPDEST PUSH1 0x20 MUL PUSH1 0x20 ADD ADD MLOAD PUSH1 0xA0 ADD DUP2 SWAP1 MSTORE POP DUP3 DUP1 PUSH2 0xCC9 SWAP1 PUSH2 0x1F51 JUMP JUMPDEST SWAP4 POP POP PUSH2 0xDD2 DUP11 DUP11 DUP9 DUP9 PUSH1 0x20 ADD MLOAD DUP9 PUSH20 0x0 PUSH4 0x66628D27 SWAP1 SWAP2 DUP11 PUSH1 0x40 MLOAD DUP4 PUSH4 0xFFFFFFFF AND PUSH1 0xE0 SHL DUP2 MSTORE PUSH1 0x4 ADD PUSH2 0xD12 SWAP3 SWAP2 SWAP1 PUSH2 0x1F6A JUMP JUMPDEST PUSH1 0x20 PUSH1 0x40 MLOAD DUP1 DUP4 SUB DUP2 DUP7 GAS DELEGATECALL ISZERO DUP1 ISZERO PUSH2 0xD2F JUMPI RETURNDATASIZE PUSH1 0x0 DUP1 RETURNDATACOPY RETURNDATASIZE PUSH1 0x0 REVERT JUMPDEST POP POP POP POP PUSH1 0x40 MLOAD RETURNDATASIZE PUSH1 0x1F NOT PUSH1 0x1F DUP3 ADD AND DUP3 ADD DUP1 PUSH1 0x40 MSTORE POP DUP2 ADD SWAP1 PUSH2 0xD53 SWAP2 SWAP1 PUSH2 0x1EDD JUMP JUMPDEST PUSH1 0x40 MLOAD PUSH4 0x26C67C8B PUSH1 0xE2 SHL DUP2 MSTORE PUSH20 0x0 SWAP1 PUSH4 0x9B19F22C SWAP1 PUSH2 0xD8C SWAP1 DUP14 SWAP1 DUP14 SWAP1 PUSH1 0x4 ADD PUSH2 0x1F6A JUMP JUMPDEST PUSH1 0x20 PUSH1 0x40 MLOAD DUP1 DUP4 SUB DUP2 DUP7 GAS DELEGATECALL ISZERO DUP1 ISZERO PUSH2 0xDA9 JUMPI RETURNDATASIZE PUSH1 0x0 DUP1 RETURNDATACOPY RETURNDATASIZE PUSH1 0x0 REVERT JUMPDEST POP POP POP POP PUSH1 0x40 MLOAD RETURNDATASIZE PUSH1 0x1F NOT PUSH1 0x1F DUP3 ADD AND DUP3 ADD DUP1 PUSH1 0x40 MSTORE POP DUP2 ADD SWAP1 PUSH2 0xDCD SWAP2 SWAP1 PUSH2 0x1EDD JUMP JUMPDEST PUSH2 0x148D JUMP JUMPDEST ISZERO PUSH2 0xFEF JUMPI PUSH1 0x40 MLOAD PUSH4 0x798E9A59 PUSH1 0xE1 SHL DUP2 MSTORE PUSH20 0x0 SWAP1 PUSH4 0xF31D34B2 SWAP1 PUSH2 0xE13 SWAP1 DUP8 SWAP1 PUSH1 0x0 SWAP1 DUP9 SWAP1 PUSH1 0x4 ADD PUSH2 0x1FE9 JUMP JUMPDEST PUSH1 0x0 PUSH1 0x40 MLOAD DUP1 DUP4 SUB DUP2 DUP7 GAS DELEGATECALL ISZERO DUP1 ISZERO PUSH2 0xE30 JUMPI RETURNDATASIZE PUSH1 0x0 DUP1 RETURNDATACOPY RETURNDATASIZE PUSH1 0x0 REVERT JUMPDEST POP POP POP POP PUSH1 0x40 MLOAD RETURNDATASIZE PUSH1 0x0 DUP3 RETURNDATACOPY PUSH1 0x1F RETURNDATASIZE SWAP1 DUP2 ADD PUSH1 0x1F NOT AND DUP3 ADD PUSH1 0x40 MSTORE PUSH2 0xE58 SWAP2 SWAP1 DUP2 ADD SWAP1 PUSH2 0x2159 JUMP JUMPDEST SWAP7 POP PUSH1 0x40 MLOAD DUP1 PUSH1 0x60 ADD PUSH1 0x40 MSTORE DUP1 PUSH1 0x0 DUP2 MSTORE PUSH1 0x20 ADD PUSH1 0x0 DUP2 MSTORE PUSH1 0x20 ADD PUSH1 0x0 DUP2 MSTORE POP SWAP5 POP PUSH1 0x0 SWAP6 POP PUSH1 0x0 JUMPDEST DUP8 MLOAD DUP2 LT ISZERO PUSH2 0xFD8 JUMPI DUP6 MLOAD ISZERO DUP1 PUSH2 0xEB8 JUMPI POP DUP8 DUP2 DUP2 MLOAD DUP2 LT PUSH2 0xEA5 JUMPI PUSH2 0xEA5 PUSH2 0x1F3B JUMP JUMPDEST PUSH1 0x20 MUL PUSH1 0x20 ADD ADD MLOAD PUSH1 0x80 ADD MLOAD DUP7 PUSH1 0x0 ADD MLOAD GT JUMPDEST ISZERO PUSH2 0xEE1 JUMPI DUP8 DUP2 DUP2 MLOAD DUP2 LT PUSH2 0xECF JUMPI PUSH2 0xECF PUSH2 0x1F3B JUMP JUMPDEST PUSH1 0x20 SWAP1 DUP2 MUL SWAP2 SWAP1 SWAP2 ADD ADD MLOAD PUSH1 0x80 ADD MLOAD DUP7 MSTORE JUMPDEST PUSH1 0x40 DUP7 ADD MLOAD ISZERO DUP1 PUSH2 0xF12 JUMPI POP DUP8 DUP2 DUP2 MLOAD DUP2 LT PUSH2 0xEFF JUMPI PUSH2 0xEFF PUSH2 0x1F3B JUMP JUMPDEST PUSH1 0x20 MUL PUSH1 0x20 ADD ADD MLOAD PUSH1 0x80 ADD MLOAD DUP7 PUSH1 0x40 ADD MLOAD LT JUMPDEST ISZERO PUSH2 0xF3F JUMPI DUP8 DUP2 DUP2 MLOAD DUP2 LT PUSH2 0xF29 JUMPI PUSH2 0xF29 PUSH2 0x1F3B JUMP JUMPDEST PUSH1 0x20 MUL PUSH1 0x20 ADD ADD MLOAD PUSH1 0x80 ADD MLOAD DUP7 PUSH1 0x40 ADD DUP2 DUP2 MSTORE POP POP JUMPDEST DUP8 DUP2 DUP2 MLOAD DUP2 LT PUSH2 0xF51 JUMPI PUSH2 0xF51 PUSH2 0x1F3B JUMP JUMPDEST PUSH1 0x20 MUL PUSH1 0x20 ADD ADD MLOAD PUSH1 0x80 ADD MLOAD DUP9 DUP3 DUP2 MLOAD DUP2 LT PUSH2 0xF6F JUMPI PUSH2 0xF6F PUSH2 0x1F3B JUMP JUMPDEST PUSH1 0x20 MUL PUSH1 0x20 ADD ADD MLOAD PUSH1 0x40 ADD MLOAD PUSH2 0xF85 SWAP2 SWAP1 PUSH2 0x1FB6 JUMP JUMPDEST DUP7 PUSH1 0x20 ADD DUP2 DUP2 MLOAD PUSH2 0xF96 SWAP2 SWAP1 PUSH2 0x1F0C JUMP JUMPDEST SWAP1 MSTORE POP DUP8 MLOAD DUP9 SWAP1 DUP3 SWAP1 DUP2 LT PUSH2 0xFAD JUMPI PUSH2 0xFAD PUSH2 0x1F3B JUMP JUMPDEST PUSH1 0x20 MUL PUSH1 0x20 ADD ADD MLOAD PUSH1 0x40 ADD MLOAD DUP8 PUSH2 0xFC4 SWAP2 SWAP1 PUSH2 0x1F0C JUMP JUMPDEST SWAP7 POP DUP1 PUSH2 0xFD0 DUP2 PUSH2 0x1F51 JUMP JUMPDEST SWAP2 POP POP PUSH2 0xE81 JUMP JUMPDEST POP DUP6 DUP6 PUSH1 0x20 ADD DUP2 DUP2 MLOAD PUSH2 0xFEB SWAP2 SWAP1 PUSH2 0x1FD5 JUMP JUMPDEST SWAP1 MSTORE POP JUMPDEST PUSH1 0x40 DUP11 ADD MLOAD ISZERO DUP1 ISZERO SWAP1 PUSH2 0x107F JUMPI POP PUSH1 0x40 MLOAD PUSH4 0x66628D27 PUSH1 0xE0 SHL DUP2 MSTORE PUSH20 0x0 SWAP1 PUSH4 0x66628D27 SWAP1 PUSH2 0x1036 SWAP1 DUP8 SWAP1 DUP8 SWAP1 PUSH1 0x4 ADD PUSH2 0x1F6A JUMP JUMPDEST PUSH1 0x20 PUSH1 0x40 MLOAD DUP1 DUP4 SUB DUP2 DUP7 GAS DELEGATECALL ISZERO DUP1 ISZERO PUSH2 0x1053 JUMPI RETURNDATASIZE PUSH1 0x0 DUP1 RETURNDATACOPY RETURNDATASIZE PUSH1 0x0 REVERT JUMPDEST POP POP POP POP PUSH1 0x40 MLOAD RETURNDATASIZE PUSH1 0x1F NOT PUSH1 0x1F DUP3 ADD AND DUP3 ADD DUP1 PUSH1 0x40 MSTORE POP DUP2 ADD SWAP1 PUSH2 0x1077 SWAP2 SWAP1 PUSH2 0x1EDD JUMP JUMPDEST DUP11 PUSH1 0x40 ADD MLOAD GT ISZERO JUMPDEST ISZERO PUSH2 0x108A JUMPI POP PUSH2 0x112D JUMP JUMPDEST PUSH2 0x109F DUP13 DUP4 DUP2 MLOAD DUP2 LT PUSH2 0x60A JUMPI PUSH2 0x60A PUSH2 0x1F3B JUMP JUMPDEST DUP2 LT ISZERO PUSH2 0x1119 JUMPI JUMPDEST PUSH1 0x1 DUP13 MLOAD PUSH2 0x10B5 SWAP2 SWAP1 PUSH2 0x1F24 JUMP JUMPDEST DUP3 LT ISZERO PUSH2 0x1119 JUMPI DUP12 PUSH2 0x10C8 DUP4 PUSH1 0x1 PUSH2 0x1F0C JUMP JUMPDEST DUP2 MLOAD DUP2 LT PUSH2 0x10D8 JUMPI PUSH2 0x10D8 PUSH2 0x1F3B JUMP JUMPDEST PUSH1 0x20 MUL PUSH1 0x20 ADD ADD MLOAD PUSH1 0x60 ADD MLOAD DUP13 DUP4 DUP2 MLOAD DUP2 LT PUSH2 0x10F6 JUMPI PUSH2 0x10F6 PUSH2 0x1F3B JUMP JUMPDEST PUSH1 0x20 MUL PUSH1 0x20 ADD ADD MLOAD PUSH1 0x60 ADD MLOAD SUB PUSH2 0x1119 JUMPI DUP2 PUSH2 0x1111 DUP2 PUSH2 0x1F51 JUMP JUMPDEST SWAP3 POP POP PUSH2 0x10A7 JUMP JUMPDEST POP JUMPDEST DUP1 PUSH2 0x1125 DUP2 PUSH2 0x1F51 JUMP JUMPDEST SWAP2 POP POP PUSH2 0x33C JUMP JUMPDEST POP POP POP SWAP6 POP SWAP6 POP SWAP6 SWAP3 POP POP POP JUMP JUMPDEST PUSH2 0x1143 PUSH2 0x1559 JUMP JUMPDEST PUSH2 0x114B PUSH2 0x15A3 JUMP JUMPDEST PUSH1 0x40 DUP7 ADD MLOAD MLOAD PUSH1 0x0 JUMPDEST DUP2 DUP2 LT ISZERO PUSH2 0x132D JUMPI DUP7 DUP9 PUSH1 0x40 ADD MLOAD DUP3 DUP2 MLOAD DUP2 LT PUSH2 0x1173 JUMPI PUSH2 0x1173 PUSH2 0x1F3B JUMP JUMPDEST PUSH1 0x20 MUL PUSH1 0x20 ADD ADD MLOAD PUSH1 0x0 ADD MLOAD PUSH1 0x0 DUP2 MLOAD DUP2 LT PUSH2 0x1191 JUMPI PUSH2 0x1191 PUSH2 0x1F3B JUMP JUMPDEST PUSH1 0x20 MUL PUSH1 0x20 ADD ADD MLOAD EQ DUP1 ISZERO PUSH2 0x120F JUMPI POP DUP6 MLOAD PUSH1 0x40 DUP10 ADD MLOAD DUP1 MLOAD DUP4 SWAP1 DUP2 LT PUSH2 0x11BA JUMPI PUSH2 0x11BA PUSH2 0x1F3B JUMP JUMPDEST PUSH1 0x20 MUL PUSH1 0x20 ADD ADD MLOAD PUSH1 0x0 ADD MLOAD PUSH1 0x1 DUP11 PUSH1 0x40 ADD MLOAD DUP5 DUP2 MLOAD DUP2 LT PUSH2 0x11DE JUMPI PUSH2 0x11DE PUSH2 0x1F3B JUMP JUMPDEST PUSH1 0x20 MUL PUSH1 0x20 ADD ADD MLOAD PUSH1 0x0 ADD MLOAD MLOAD PUSH2 0x11F5 SWAP2 SWAP1 PUSH2 0x1F24 JUMP JUMPDEST DUP2 MLOAD DUP2 LT PUSH2 0x1205 JUMPI PUSH2 0x1205 PUSH2 0x1F3B JUMP JUMPDEST PUSH1 0x20 MUL PUSH1 0x20 ADD ADD MLOAD EQ JUMPDEST ISZERO PUSH2 0x1277 JUMPI PUSH1 0x20 DUP4 ADD MLOAD ISZERO DUP1 PUSH2 0x1251 JUMPI POP DUP8 PUSH1 0x40 ADD MLOAD DUP2 DUP2 MLOAD DUP2 LT PUSH2 0x1236 JUMPI PUSH2 0x1236 PUSH2 0x1F3B JUMP JUMPDEST PUSH1 0x20 MUL PUSH1 0x20 ADD ADD MLOAD PUSH1 0x40 ADD MLOAD PUSH1 0x20 ADD MLOAD DUP4 PUSH1 0x40 ADD MLOAD PUSH1 0x20 ADD MLOAD GT JUMPDEST ISZERO PUSH2 0x1277 JUMPI DUP8 PUSH1 0x40 ADD MLOAD DUP2 DUP2 MLOAD DUP2 LT PUSH2 0x126C JUMPI PUSH2 0x126C PUSH2 0x1F3B JUMP JUMPDEST PUSH1 0x20 MUL PUSH1 0x20 ADD ADD MLOAD SWAP3 POP JUMPDEST DUP4 PUSH20 0x0 PUSH4 0x7513CE1B SWAP1 SWAP2 DUP11 PUSH1 0x40 ADD MLOAD DUP5 DUP2 MLOAD DUP2 LT PUSH2 0x12AA JUMPI PUSH2 0x12AA PUSH2 0x1F3B JUMP JUMPDEST PUSH1 0x20 MUL PUSH1 0x20 ADD ADD MLOAD DUP12 PUSH1 0x60 ADD MLOAD PUSH1 0x40 MLOAD DUP5 PUSH4 0xFFFFFFFF AND PUSH1 0xE0 SHL DUP2 MSTORE PUSH1 0x4 ADD PUSH2 0x12D5 SWAP4 SWAP3 SWAP2 SWAP1 PUSH2 0x218D JUMP JUMPDEST PUSH1 0x0 PUSH1 0x40 MLOAD DUP1 DUP4 SUB DUP2 DUP7 GAS DELEGATECALL ISZERO DUP1 ISZERO PUSH2 0x12F2 JUMPI RETURNDATASIZE PUSH1 0x0 DUP1 RETURNDATACOPY RETURNDATASIZE PUSH1 0x0 REVERT JUMPDEST POP POP POP POP PUSH1 0x40 MLOAD RETURNDATASIZE PUSH1 0x0 DUP3 RETURNDATACOPY PUSH1 0x1F RETURNDATASIZE SWAP1 DUP2 ADD PUSH1 0x1F NOT AND DUP3 ADD PUSH1 0x40 MSTORE PUSH2 0x131A SWAP2 SWAP1 DUP2 ADD SWAP1 PUSH2 0x2200 JUMP JUMPDEST POP DUP1 PUSH2 0x1325 DUP2 PUSH2 0x1F51 JUMP JUMPDEST SWAP2 POP POP PUSH2 0x1154 JUMP JUMPDEST POP POP PUSH1 0x20 DUP2 ADD MLOAD ISZERO PUSH2 0x13D4 JUMPI PUSH1 0x20 DUP1 DUP3 ADD MLOAD DUP4 MSTORE PUSH1 0x40 DUP1 DUP4 ADD MLOAD SWAP2 DUP5 ADD SWAP2 SWAP1 SWAP2 MSTORE PUSH1 0x60 DUP8 ADD MLOAD SWAP1 MLOAD PUSH4 0x7513CE1B PUSH1 0xE0 SHL DUP2 MSTORE PUSH20 0x0 SWAP2 PUSH4 0x7513CE1B SWAP2 PUSH2 0x138C SWAP2 DUP7 SWAP2 DUP7 SWAP2 SWAP1 PUSH1 0x4 ADD PUSH2 0x218D JUMP JUMPDEST PUSH1 0x0 PUSH1 0x40 MLOAD DUP1 DUP4 SUB DUP2 DUP7 GAS DELEGATECALL ISZERO DUP1 ISZERO PUSH2 0x13A9 JUMPI RETURNDATASIZE PUSH1 0x0 DUP1 RETURNDATACOPY RETURNDATASIZE PUSH1 0x0 REVERT JUMPDEST POP POP POP POP PUSH1 0x40 MLOAD RETURNDATASIZE PUSH1 0x0 DUP3 RETURNDATACOPY PUSH1 0x1F RETURNDATASIZE SWAP1 DUP2 ADD PUSH1 0x1F NOT AND DUP3 ADD PUSH1 0x40 MSTORE PUSH2 0x13D1 SWAP2 SWAP1 DUP2 ADD SWAP1 PUSH2 0x2200 JUMP JUMPDEST SWAP2 POP JUMPDEST POP SWAP5 SWAP4 POP POP POP POP JUMP JUMPDEST DUP2 MLOAD PUSH1 0x40 MLOAD PUSH4 0x5640453D PUSH1 0xE0 SHL DUP2 MSTORE PUSH1 0x0 SWAP2 PUSH20 0x0 SWAP2 PUSH4 0x5640453D SWAP2 PUSH2 0x141A SWAP2 DUP7 SWAP2 SWAP1 PUSH1 0x4 ADD PUSH2 0x1F6A JUMP JUMPDEST PUSH1 0x20 PUSH1 0x40 MLOAD DUP1 DUP4 SUB DUP2 DUP7 GAS DELEGATECALL ISZERO DUP1 ISZERO PUSH2 0x1437 JUMPI RETURNDATASIZE PUSH1 0x0 DUP1 RETURNDATACOPY RETURNDATASIZE PUSH1 0x0 REVERT JUMPDEST POP POP POP POP PUSH1 0x40 MLOAD RETURNDATASIZE PUSH1 0x1F NOT PUSH1 0x1F DUP3 ADD AND DUP3 ADD DUP1 PUSH1 0x40 MSTORE POP DUP2 ADD SWAP1 PUSH2 0x145B SWAP2 SWAP1 PUSH2 0x1EDD JUMP JUMPDEST DUP4 PUSH1 0x40 ADD MLOAD PUSH2 0x146A SWAP2 SWAP1 PUSH2 0x1F24 JUMP JUMPDEST SWAP1 POP DUP3 PUSH1 0x60 ADD MLOAD DUP2 PUSH2 0x147C SWAP2 SWAP1 PUSH2 0x1FA2 JUMP JUMPDEST PUSH2 0x1486 SWAP1 DUP3 PUSH2 0x1F24 JUMP JUMPDEST SWAP4 SWAP3 POP POP POP JUMP JUMPDEST PUSH1 0x0 DUP7 PUSH1 0x40 ADD MLOAD PUSH1 0x0 EQ PUSH2 0x14DD JUMPI DUP7 PUSH1 0x80 ADD MLOAD DUP1 ISZERO PUSH2 0x14AF JUMPI POP DUP7 PUSH1 0x40 ADD MLOAD DUP4 GT JUMPDEST ISZERO PUSH2 0x14BC JUMPI POP PUSH1 0x0 PUSH2 0x154F JUMP JUMPDEST DUP7 PUSH1 0x60 ADD MLOAD DUP1 ISZERO PUSH2 0x14D0 JUMPI POP DUP7 PUSH1 0x40 ADD MLOAD DUP4 LT JUMPDEST ISZERO PUSH2 0x14DD JUMPI POP PUSH1 0x0 PUSH2 0x154F JUMP JUMPDEST DUP5 PUSH1 0x0 SUB PUSH2 0x14ED JUMPI POP PUSH1 0x1 PUSH2 0x154F JUMP JUMPDEST DUP7 PUSH1 0x40 ADD MLOAD PUSH1 0x0 SUB PUSH2 0x1502 JUMPI POP DUP4 DUP3 GT PUSH2 0x154F JUMP JUMPDEST DUP7 PUSH1 0x40 ADD MLOAD DUP4 GT ISZERO PUSH2 0x152A JUMPI PUSH2 0x1518 DUP5 DUP7 PUSH2 0x1FB6 JUMP JUMPDEST PUSH2 0x1522 DUP4 DUP6 PUSH2 0x1FB6 JUMP JUMPDEST LT SWAP1 POP PUSH2 0x154F JUMP JUMPDEST DUP5 DUP4 GT ISZERO PUSH2 0x153A JUMPI POP PUSH1 0x1 PUSH2 0x154F JUMP JUMPDEST DUP5 DUP4 SUB PUSH2 0x154B JUMPI PUSH2 0x1518 DUP5 DUP7 PUSH2 0x1FB6 JUMP JUMPDEST POP PUSH1 0x0 JUMPDEST SWAP7 SWAP6 POP POP POP POP POP POP JUMP JUMPDEST PUSH1 0x40 MLOAD DUP1 PUSH1 0x80 ADD PUSH1 0x40 MSTORE DUP1 PUSH1 0x0 DUP2 MSTORE PUSH1 0x20 ADD PUSH2 0x158F PUSH1 0x40 MLOAD DUP1 PUSH1 0x60 ADD PUSH1 0x40 MSTORE DUP1 PUSH1 0x0 DUP2 MSTORE PUSH1 0x20 ADD PUSH1 0x0 DUP2 MSTORE PUSH1 0x20 ADD PUSH1 0x0 DUP2 MSTORE POP SWAP1 JUMP JUMPDEST DUP2 MSTORE PUSH1 0x20 ADD PUSH1 0x60 DUP2 MSTORE PUSH1 0x20 ADD PUSH1 0x60 DUP2 MSTORE POP SWAP1 JUMP JUMPDEST PUSH1 0x40 MLOAD DUP1 PUSH1 0xC0 ADD PUSH1 0x40 MSTORE DUP1 PUSH1 0x60 DUP2 MSTORE PUSH1 0x20 ADD PUSH1 0x0 DUP2 MSTORE PUSH1 0x20 ADD PUSH2 0x15E0 PUSH1 0x40 MLOAD DUP1 PUSH1 0x60 ADD PUSH1 0x40 MSTORE DUP1 PUSH1 0x0 DUP2 MSTORE PUSH1 0x20 ADD PUSH1 0x0 DUP2 MSTORE PUSH1 0x20 ADD PUSH1 0x0 DUP2 MSTORE POP SWAP1 JUMP JUMPDEST DUP2 MSTORE PUSH1 0x20 ADD PUSH1 0x0 DUP2 MSTORE PUSH1 0x20 ADD PUSH1 0x0 DUP2 MSTORE PUSH1 0x20 ADD PUSH1 0x60 DUP2 MSTORE POP SWAP1 JUMP JUMPDEST PUSH4 0x4E487B71 PUSH1 0xE0 SHL PUSH1 0x0 MSTORE PUSH1 0x41 PUSH1 0x4 MSTORE PUSH1 0x24 PUSH1 0x0 REVERT JUMPDEST PUSH1 0x40 MLOAD PUSH1 0xC0 DUP2 ADD PUSH1 0x1 PUSH1 0x1 PUSH1 0x40 SHL SUB DUP2 GT DUP3 DUP3 LT OR ISZERO PUSH2 0x1633 JUMPI PUSH2 0x1633 PUSH2 0x15FB JUMP JUMPDEST PUSH1 0x40 MSTORE SWAP1 JUMP JUMPDEST PUSH1 0x40 MLOAD PUSH1 0xE0 DUP2 ADD PUSH1 0x1 PUSH1 0x1 PUSH1 0x40 SHL SUB DUP2 GT DUP3 DUP3 LT OR ISZERO PUSH2 0x1633 JUMPI PUSH2 0x1633 PUSH2 0x15FB JUMP JUMPDEST PUSH1 0x40 MLOAD PUSH1 0x80 DUP2 ADD PUSH1 0x1 PUSH1 0x1 PUSH1 0x40 SHL SUB DUP2 GT DUP3 DUP3 LT OR ISZERO PUSH2 0x1633 JUMPI PUSH2 0x1633 PUSH2 0x15FB JUMP JUMPDEST PUSH1 0x40 MLOAD PUSH1 0x60 DUP2 ADD PUSH1 0x1 PUSH1 0x1 PUSH1 0x40 SHL SUB DUP2 GT DUP3 DUP3 LT OR ISZERO PUSH2 0x1633 JUMPI PUSH2 0x1633 PUSH2 0x15FB JUMP JUMPDEST PUSH1 0x40 MLOAD PUSH1 0x1F DUP3 ADD PUSH1 0x1F NOT AND DUP2 ADD PUSH1 0x1 PUSH1 0x1 PUSH1 0x40 SHL SUB DUP2 GT DUP3 DUP3 LT OR ISZERO PUSH2 0x16C7 JUMPI PUSH2 0x16C7 PUSH2 0x15FB JUMP JUMPDEST PUSH1 0x40 MSTORE SWAP2 SWAP1 POP JUMP JUMPDEST PUSH1 0x0 PUSH1 0x1 PUSH1 0x1 PUSH1 0x40 SHL SUB DUP3 GT ISZERO PUSH2 0x16E8 JUMPI PUSH2 0x16E8 PUSH2 0x15FB JUMP JUMPDEST POP PUSH1 0x5 SHL PUSH1 0x20 ADD SWAP1 JUMP JUMPDEST PUSH1 0x0 DUP3 PUSH1 0x1F DUP4 ADD SLT PUSH2 0x1703 JUMPI PUSH1 0x0 DUP1 REVERT JUMPDEST DUP2 CALLDATALOAD PUSH1 0x20 PUSH2 0x1718 PUSH2 0x1713 DUP4 PUSH2 0x16CF JUMP JUMPDEST PUSH2 0x169F JUMP JUMPDEST DUP3 DUP2 MSTORE PUSH1 0x5 SWAP3 SWAP1 SWAP3 SHL DUP5 ADD DUP2 ADD SWAP2 DUP2 DUP2 ADD SWAP1 DUP7 DUP5 GT ISZERO PUSH2 0x1737 JUMPI PUSH1 0x0 DUP1 REVERT JUMPDEST DUP3 DUP7 ADD JUMPDEST DUP5 DUP2 LT ISZERO PUSH2 0x1752 JUMPI DUP1 CALLDATALOAD DUP4 MSTORE SWAP2 DUP4 ADD SWAP2 DUP4 ADD PUSH2 0x173B JUMP JUMPDEST POP SWAP7 SWAP6 POP POP POP POP POP POP JUMP JUMPDEST PUSH1 0x0 DUP3 PUSH1 0x1F DUP4 ADD SLT PUSH2 0x176E JUMPI PUSH1 0x0 DUP1 REVERT JUMPDEST DUP2 CALLDATALOAD PUSH1 0x20 PUSH2 0x177E PUSH2 0x1713 DUP4 PUSH2 0x16CF JUMP JUMPDEST DUP3 DUP2 MSTORE PUSH1 0x5 SWAP3 SWAP1 SWAP3 SHL DUP5 ADD DUP2 ADD SWAP2 DUP2 DUP2 ADD SWAP1 DUP7 DUP5 GT ISZERO PUSH2 0x179D JUMPI PUSH1 0x0 DUP1 REVERT JUMPDEST DUP3 DUP7 ADD JUMPDEST DUP5 DUP2 LT ISZERO PUSH2 0x1752 JUMPI DUP1 CALLDATALOAD PUSH1 0x1 PUSH1 0x1 PUSH1 0x40 SHL SUB DUP1 DUP3 GT ISZERO PUSH2 0x17C1 JUMPI PUSH1 0x0 DUP1 DUP2 REVERT JUMPDEST SWAP1 DUP9 ADD SWAP1 PUSH1 0xC0 DUP3 DUP12 SUB PUSH1 0x1F NOT ADD DUP2 SGT ISZERO PUSH2 0x17DB JUMPI PUSH1 0x0 DUP1 DUP2 REVERT JUMPDEST PUSH2 0x17E3 PUSH2 0x1611 JUMP JUMPDEST DUP8 DUP5 ADD CALLDATALOAD DUP2 MSTORE PUSH1 0x40 DUP1 DUP6 ADD CALLDATALOAD DUP10 DUP4 ADD MSTORE PUSH1 0x60 DUP1 DUP7 ADD CALLDATALOAD DUP3 DUP5 ADD MSTORE PUSH1 0x80 SWAP2 POP DUP2 DUP7 ADD CALLDATALOAD DUP2 DUP5 ADD MSTORE POP PUSH1 0xA0 DUP1 DUP7 ADD CALLDATALOAD DUP3 DUP5 ADD MSTORE DUP4 DUP7 ADD CALLDATALOAD SWAP4 POP DUP5 DUP5 GT ISZERO PUSH2 0x182A JUMPI PUSH1 0x0 SWAP2 POP DUP2 DUP3 REVERT JUMPDEST PUSH2 0x1838 DUP15 DUP12 DUP7 DUP10 ADD ADD PUSH2 0x16F2 JUMP JUMPDEST SWAP1 DUP4 ADD MSTORE POP DUP7 MSTORE POP POP POP SWAP2 DUP4 ADD SWAP2 DUP4 ADD PUSH2 0x17A1 JUMP JUMPDEST DUP1 CALLDATALOAD DUP1 ISZERO ISZERO DUP2 EQ PUSH2 0x185D JUMPI PUSH1 0x0 DUP1 REVERT JUMPDEST SWAP2 SWAP1 POP JUMP JUMPDEST PUSH1 0x0 PUSH1 0xE0 DUP3 DUP5 SUB SLT ISZERO PUSH2 0x1874 JUMPI PUSH1 0x0 DUP1 REVERT JUMPDEST PUSH2 0x187C PUSH2 0x1639 JUMP JUMPDEST SWAP1 POP DUP2 CALLDATALOAD DUP2 MSTORE PUSH1 0x20 DUP3 ADD CALLDATALOAD PUSH1 0x20 DUP3 ADD MSTORE PUSH1 0x40 DUP3 ADD CALLDATALOAD PUSH1 0x40 DUP3 ADD MSTORE PUSH2 0x18A2 PUSH1 0x60 DUP4 ADD PUSH2 0x184D JUMP JUMPDEST PUSH1 0x60 DUP3 ADD MSTORE PUSH2 0x18B3 PUSH1 0x80 DUP4 ADD PUSH2 0x184D JUMP JUMPDEST PUSH1 0x80 DUP3 ADD MSTORE PUSH1 0xA0 DUP3 ADD CALLDATALOAD PUSH1 0xA0 DUP3 ADD MSTORE PUSH1 0xC0 DUP3 ADD CALLDATALOAD PUSH1 0x1 PUSH1 0x1 PUSH1 0x40 SHL SUB DUP2 GT ISZERO PUSH2 0x18DB JUMPI PUSH1 0x0 DUP1 REVERT JUMPDEST PUSH2 0x18E7 DUP5 DUP3 DUP6 ADD PUSH2 0x16F2 JUMP JUMPDEST PUSH1 0xC0 DUP4 ADD MSTORE POP SWAP3 SWAP2 POP POP JUMP JUMPDEST PUSH1 0x0 PUSH1 0x80 DUP3 DUP5 SUB SLT ISZERO PUSH2 0x1905 JUMPI PUSH1 0x0 DUP1 REVERT JUMPDEST PUSH2 0x190D PUSH2 0x165B JUMP JUMPDEST SWAP1 POP DUP2 CALLDATALOAD DUP2 MSTORE PUSH1 0x20 DUP3 ADD CALLDATALOAD PUSH1 0x20 DUP3 ADD MSTORE PUSH1 0x40 DUP3 ADD CALLDATALOAD PUSH1 0x40 DUP3 ADD MSTORE PUSH1 0x60 DUP3 ADD CALLDATALOAD PUSH1 0x1 PUSH1 0x1 PUSH1 0x40 SHL SUB DUP2 GT ISZERO PUSH2 0x1940 JUMPI PUSH1 0x0 DUP1 REVERT JUMPDEST PUSH2 0x194C DUP5 DUP3 DUP6 ADD PUSH2 0x175D JUMP JUMPDEST PUSH1 0x60 DUP4 ADD MSTORE POP SWAP3 SWAP2 POP POP JUMP JUMPDEST PUSH1 0x0 DUP1 PUSH1 0x0 DUP1 PUSH1 0x0 PUSH1 0xA0 DUP7 DUP9 SUB SLT ISZERO PUSH2 0x1970 JUMPI PUSH1 0x0 DUP1 REVERT JUMPDEST DUP6 CALLDATALOAD PUSH1 0x1 PUSH1 0x1 PUSH1 0x40 SHL SUB DUP1 DUP3 GT ISZERO PUSH2 0x1987 JUMPI PUSH1 0x0 DUP1 REVERT JUMPDEST PUSH2 0x1993 DUP10 DUP4 DUP11 ADD PUSH2 0x175D JUMP JUMPDEST SWAP7 POP PUSH1 0x20 DUP9 ADD CALLDATALOAD SWAP6 POP PUSH1 0x40 DUP9 ADD CALLDATALOAD SWAP2 POP DUP1 DUP3 GT ISZERO PUSH2 0x19B0 JUMPI PUSH1 0x0 DUP1 REVERT JUMPDEST PUSH2 0x19BC DUP10 DUP4 DUP11 ADD PUSH2 0x1862 JUMP JUMPDEST SWAP5 POP PUSH1 0x60 DUP9 ADD CALLDATALOAD SWAP2 POP DUP1 DUP3 GT ISZERO PUSH2 0x19D2 JUMPI PUSH1 0x0 DUP1 REVERT JUMPDEST PUSH2 0x19DE DUP10 DUP4 DUP11 ADD PUSH2 0x18F3 JUMP JUMPDEST SWAP4 POP PUSH1 0x80 DUP9 ADD CALLDATALOAD SWAP2 POP DUP1 DUP3 GT ISZERO PUSH2 0x19F4 JUMPI PUSH1 0x0 DUP1 REVERT JUMPDEST POP PUSH2 0x1A01 DUP9 DUP3 DUP10 ADD PUSH2 0x175D JUMP JUMPDEST SWAP2 POP POP SWAP3 SWAP6 POP SWAP3 SWAP6 SWAP1 SWAP4 POP JUMP JUMPDEST PUSH1 0x0 DUP2 MLOAD DUP1 DUP5 MSTORE PUSH1 0x20 DUP1 DUP6 ADD SWAP5 POP DUP1 DUP5 ADD PUSH1 0x0 JUMPDEST DUP4 DUP2 LT ISZERO PUSH2 0x1A3E JUMPI DUP2 MLOAD DUP8 MSTORE SWAP6 DUP3 ADD SWAP6 SWAP1 DUP3 ADD SWAP1 PUSH1 0x1 ADD PUSH2 0x1A22 JUMP JUMPDEST POP SWAP5 SWAP6 SWAP5 POP POP POP POP POP JUMP JUMPDEST PUSH1 0x0 DUP2 MLOAD DUP1 DUP5 MSTORE PUSH1 0x20 DUP1 DUP6 ADD DUP1 DUP2 SWAP7 POP DUP4 PUSH1 0x5 SHL DUP2 ADD SWAP2 POP DUP3 DUP7 ADD PUSH1 0x0 JUMPDEST DUP6 DUP2 LT ISZERO PUSH2 0x1ACF JUMPI DUP3 DUP5 SUB DUP10 MSTORE DUP2 MLOAD DUP1 MLOAD DUP6 MSTORE DUP6 DUP2 ADD MLOAD DUP7 DUP7 ADD MSTORE PUSH1 0x40 DUP1 DUP3 ADD MLOAD SWAP1 DUP7 ADD MSTORE PUSH1 0x60 DUP1 DUP3 ADD MLOAD SWAP1 DUP7 ADD MSTORE PUSH1 0x80 DUP1 DUP3 ADD MLOAD SWAP1 DUP7 ADD MSTORE PUSH1 0xA0 SWAP1 DUP2 ADD MLOAD PUSH1 0xC0 SWAP2 DUP7 ADD DUP3 SWAP1 MSTORE SWAP1 PUSH2 0x1ABB DUP2 DUP8 ADD DUP4 PUSH2 0x1A0E JUMP JUMPDEST SWAP11 DUP8 ADD SWAP11 SWAP6 POP POP POP SWAP1 DUP5 ADD SWAP1 PUSH1 0x1 ADD PUSH2 0x1A67 JUMP JUMPDEST POP SWAP2 SWAP8 SWAP7 POP POP POP POP POP POP POP JUMP JUMPDEST PUSH1 0xA0 DUP2 MSTORE PUSH1 0x0 PUSH2 0x1AEF PUSH1 0xA0 DUP4 ADD DUP7 PUSH2 0x1A49 JUMP JUMPDEST SWAP1 POP DUP4 PUSH1 0x20 DUP4 ADD MSTORE PUSH2 0x1B18 PUSH1 0x40 DUP4 ADD DUP5 DUP1 MLOAD DUP3 MSTORE PUSH1 0x20 DUP1 DUP3 ADD MLOAD SWAP1 DUP4 ADD MSTORE PUSH1 0x40 SWAP1 DUP2 ADD MLOAD SWAP2 ADD MSTORE JUMP JUMPDEST SWAP5 SWAP4 POP POP POP POP JUMP JUMPDEST PUSH1 0x0 PUSH1 0x60 DUP3 DUP5 SUB SLT ISZERO PUSH2 0x1B32 JUMPI PUSH1 0x0 DUP1 REVERT JUMPDEST PUSH2 0x1B3A PUSH2 0x167D JUMP JUMPDEST SWAP1 POP DUP2 CALLDATALOAD DUP2 MSTORE PUSH1 0x20 DUP3 ADD CALLDATALOAD PUSH1 0x20 DUP3 ADD MSTORE PUSH1 0x40 DUP3 ADD CALLDATALOAD PUSH1 0x40 DUP3 ADD MSTORE SWAP3 SWAP2 POP POP JUMP JUMPDEST PUSH1 0x0 DUP1 PUSH1 0x0 DUP1 PUSH1 0x80 DUP6 DUP8 SUB SLT ISZERO PUSH2 0x1B70 JUMPI PUSH1 0x0 DUP1 REVERT JUMPDEST PUSH1 0x1 PUSH1 0x1 PUSH1 0x40 SHL SUB DUP1 DUP7 CALLDATALOAD GT ISZERO PUSH2 0x1B86 JUMPI PUSH1 0x0 DUP1 REVERT JUMPDEST PUSH1 0xC0 DUP7 CALLDATALOAD DUP8 ADD DUP9 SUB SLT ISZERO PUSH2 0x1B99 JUMPI PUSH1 0x0 DUP1 REVERT JUMPDEST PUSH2 0x1BA1 PUSH2 0x165B JUMP JUMPDEST DUP7 CALLDATALOAD DUP8 ADD DUP1 CALLDATALOAD DUP3 MSTORE PUSH2 0x1BB7 SWAP1 DUP10 SWAP1 PUSH1 0x20 ADD PUSH2 0x1B20 JUMP JUMPDEST PUSH1 0x20 DUP3 ADD MSTORE DUP2 PUSH1 0x80 DUP9 CALLDATALOAD DUP10 ADD ADD CALLDATALOAD GT ISZERO PUSH2 0x1BD0 JUMPI PUSH1 0x0 DUP1 REVERT JUMPDEST DUP7 CALLDATALOAD DUP8 ADD PUSH1 0x80 DUP2 ADD CALLDATALOAD ADD PUSH1 0x1F DUP2 ADD DUP10 SGT PUSH2 0x1BE9 JUMPI PUSH1 0x0 DUP1 REVERT JUMPDEST PUSH2 0x1BF6 PUSH2 0x1713 DUP3 CALLDATALOAD PUSH2 0x16CF JUMP JUMPDEST DUP2 CALLDATALOAD DUP1 DUP3 MSTORE PUSH1 0x20 DUP1 DUP4 ADD SWAP3 SWAP2 PUSH1 0x5 SHL DUP5 ADD ADD DUP12 LT ISZERO PUSH2 0x1C14 JUMPI PUSH1 0x0 DUP1 REVERT JUMPDEST PUSH1 0x20 DUP4 ADD JUMPDEST PUSH1 0x20 DUP5 CALLDATALOAD PUSH1 0x5 SHL DUP6 ADD ADD DUP2 LT ISZERO PUSH2 0x1CE8 JUMPI DUP6 DUP2 CALLDATALOAD GT ISZERO PUSH2 0x1C38 JUMPI PUSH1 0x0 DUP1 REVERT JUMPDEST DUP1 CALLDATALOAD DUP5 ADD PUSH2 0x100 DUP2 DUP15 SUB PUSH1 0x1F NOT ADD SLT ISZERO PUSH2 0x1C51 JUMPI PUSH1 0x0 DUP1 REVERT JUMPDEST PUSH2 0x1C59 PUSH2 0x1611 JUMP JUMPDEST DUP8 PUSH1 0x20 DUP4 ADD CALLDATALOAD GT ISZERO PUSH2 0x1C6A JUMPI PUSH1 0x0 DUP1 REVERT JUMPDEST PUSH2 0x1C7C DUP15 PUSH1 0x20 DUP1 DUP6 ADD CALLDATALOAD DUP6 ADD ADD PUSH2 0x16F2 JUMP JUMPDEST DUP2 MSTORE PUSH1 0x40 DUP3 ADD CALLDATALOAD PUSH1 0x20 DUP3 ADD MSTORE PUSH2 0x1C95 DUP15 PUSH1 0x60 DUP5 ADD PUSH2 0x1B20 JUMP JUMPDEST PUSH1 0x40 DUP3 ADD MSTORE PUSH1 0xC0 DUP3 ADD CALLDATALOAD PUSH1 0x60 DUP3 ADD MSTORE PUSH1 0xE0 DUP3 ADD CALLDATALOAD PUSH1 0x80 DUP3 ADD MSTORE DUP8 PUSH2 0x100 DUP4 ADD CALLDATALOAD GT ISZERO PUSH2 0x1CC0 JUMPI PUSH1 0x0 DUP1 REVERT JUMPDEST PUSH2 0x1CD4 DUP15 PUSH1 0x20 PUSH2 0x100 DUP6 ADD CALLDATALOAD DUP6 ADD ADD PUSH2 0x16F2 JUMP JUMPDEST PUSH1 0xA0 DUP3 ADD MSTORE DUP5 MSTORE POP PUSH1 0x20 SWAP3 DUP4 ADD SWAP3 ADD PUSH2 0x1C19 JUMP JUMPDEST POP PUSH1 0x40 DUP5 ADD MSTORE POP POP DUP7 CALLDATALOAD DUP8 ADD PUSH1 0xA0 ADD CALLDATALOAD DUP3 LT ISZERO PUSH2 0x1D04 JUMPI PUSH1 0x0 DUP1 REVERT JUMPDEST PUSH2 0x1D17 DUP9 DUP9 CALLDATALOAD DUP10 ADD PUSH1 0xA0 DUP2 ADD CALLDATALOAD ADD PUSH2 0x175D JUMP JUMPDEST PUSH1 0x60 DUP3 ADD MSTORE SWAP5 POP PUSH1 0x20 DUP7 ADD CALLDATALOAD SWAP4 POP PUSH1 0x40 DUP7 ADD CALLDATALOAD DUP2 LT ISZERO PUSH2 0x1D36 JUMPI PUSH1 0x0 DUP1 REVERT JUMPDEST PUSH2 0x1D46 DUP8 PUSH1 0x40 DUP9 ADD CALLDATALOAD DUP9 ADD PUSH2 0x1862 JUMP JUMPDEST SWAP3 POP DUP1 PUSH1 0x60 DUP8 ADD CALLDATALOAD GT ISZERO PUSH2 0x1D59 JUMPI PUSH1 0x0 DUP1 REVERT JUMPDEST POP PUSH2 0x1D6A DUP7 PUSH1 0x60 DUP8 ADD CALLDATALOAD DUP8 ADD PUSH2 0x18F3 JUMP JUMPDEST SWAP1 POP SWAP3 SWAP6 SWAP2 SWAP5 POP SWAP3 POP JUMP JUMPDEST DUP1 MLOAD PUSH2 0x100 DUP1 DUP5 MSTORE DUP2 MLOAD SWAP1 DUP5 ADD DUP2 SWAP1 MSTORE PUSH1 0x0 SWAP2 PUSH2 0x120 DUP6 ADD SWAP2 PUSH1 0x20 SWAP2 DUP3 ADD SWAP1 DUP5 JUMPDEST DUP2 DUP2 LT ISZERO PUSH2 0x1DB2 JUMPI DUP3 MLOAD DUP6 MSTORE SWAP4 DUP4 ADD SWAP4 SWAP2 DUP4 ADD SWAP2 PUSH1 0x1 ADD PUSH2 0x1D96 JUMP JUMPDEST POP POP POP DUP4 DUP2 ADD MLOAD SWAP1 DUP6 ADD MSTORE PUSH1 0x40 DUP1 DUP5 ADD MLOAD DUP1 MLOAD DUP3 DUP8 ADD MSTORE PUSH1 0x20 DUP2 ADD MLOAD PUSH1 0x60 DUP8 ADD MSTORE SWAP1 DUP2 ADD MLOAD PUSH1 0x80 DUP7 ADD MSTORE POP PUSH1 0x60 DUP4 ADD MLOAD PUSH1 0xA0 DUP6 ADD MSTORE PUSH1 0x80 DUP4 ADD MLOAD PUSH1 0xC0 DUP6 ADD MSTORE PUSH1 0xA0 DUP4 ADD MLOAD DUP5 DUP3 SUB PUSH1 0xE0 DUP7 ADD MSTORE PUSH2 0x1E08 DUP3 DUP3 PUSH2 0x1A0E JUMP JUMPDEST SWAP6 SWAP5 POP POP POP POP POP JUMP JUMPDEST PUSH1 0x0 PUSH1 0xC0 DUP4 ADD DUP3 MLOAD DUP5 MSTORE PUSH1 0x20 DUP1 DUP5 ADD MLOAD PUSH2 0x1E41 DUP3 DUP8 ADD DUP3 DUP1 MLOAD DUP3 MSTORE PUSH1 0x20 DUP1 DUP3 ADD MLOAD SWAP1 DUP4 ADD MSTORE PUSH1 0x40 SWAP1 DUP2 ADD MLOAD SWAP2 ADD MSTORE JUMP JUMPDEST POP PUSH1 0x40 DUP5 ADD MLOAD PUSH1 0xC0 PUSH1 0x80 DUP8 ADD MSTORE DUP3 DUP2 MLOAD DUP1 DUP6 MSTORE PUSH1 0xE0 DUP9 ADD SWAP2 POP PUSH1 0xE0 DUP2 PUSH1 0x5 SHL DUP10 ADD ADD SWAP5 POP DUP4 DUP4 ADD SWAP3 POP PUSH1 0x0 JUMPDEST DUP2 DUP2 LT ISZERO PUSH2 0x1E9B JUMPI PUSH1 0xDF NOT DUP10 DUP8 SUB ADD DUP4 MSTORE PUSH2 0x1E89 DUP7 DUP6 MLOAD PUSH2 0x1D75 JUMP JUMPDEST SWAP6 POP SWAP3 DUP5 ADD SWAP3 SWAP2 DUP5 ADD SWAP2 PUSH1 0x1 ADD PUSH2 0x1E6D JUMP JUMPDEST POP POP POP POP POP PUSH1 0x60 DUP4 ADD MLOAD DUP5 DUP3 SUB PUSH1 0xA0 DUP7 ADD MSTORE PUSH2 0x1E08 DUP3 DUP3 PUSH2 0x1A49 JUMP JUMPDEST PUSH1 0x20 DUP2 MSTORE PUSH1 0x0 PUSH2 0x1486 PUSH1 0x20 DUP4 ADD DUP5 PUSH2 0x1E11 JUMP JUMPDEST PUSH1 0x20 DUP2 MSTORE PUSH1 0x0 PUSH2 0x1486 PUSH1 0x20 DUP4 ADD DUP5 PUSH2 0x1A49 JUMP JUMPDEST PUSH1 0x0 PUSH1 0x20 DUP3 DUP5 SUB SLT ISZERO PUSH2 0x1EEF JUMPI PUSH1 0x0 DUP1 REVERT JUMPDEST POP MLOAD SWAP2 SWAP1 POP JUMP JUMPDEST PUSH4 0x4E487B71 PUSH1 0xE0 SHL PUSH1 0x0 MSTORE PUSH1 0x11 PUSH1 0x4 MSTORE PUSH1 0x24 PUSH1 0x0 REVERT JUMPDEST PUSH1 0x0 DUP3 NOT DUP3 GT ISZERO PUSH2 0x1F1F JUMPI PUSH2 0x1F1F PUSH2 0x1EF6 JUMP JUMPDEST POP ADD SWAP1 JUMP JUMPDEST PUSH1 0x0 DUP3 DUP3 LT ISZERO PUSH2 0x1F36 JUMPI PUSH2 0x1F36 PUSH2 0x1EF6 JUMP JUMPDEST POP SUB SWAP1 JUMP JUMPDEST PUSH4 0x4E487B71 PUSH1 0xE0 SHL PUSH1 0x0 MSTORE PUSH1 0x32 PUSH1 0x4 MSTORE PUSH1 0x24 PUSH1 0x0 REVERT JUMPDEST PUSH1 0x0 PUSH1 0x1 DUP3 ADD PUSH2 0x1F63 JUMPI PUSH2 0x1F63 PUSH2 0x1EF6 JUMP JUMPDEST POP PUSH1 0x1 ADD SWAP1 JUMP JUMPDEST PUSH1 0x40 DUP2 MSTORE PUSH1 0x0 PUSH2 0x1F7D PUSH1 0x40 DUP4 ADD DUP6 PUSH2 0x1A49 JUMP JUMPDEST SWAP1 POP DUP3 PUSH1 0x20 DUP4 ADD MSTORE SWAP4 SWAP3 POP POP POP JUMP JUMPDEST PUSH4 0x4E487B71 PUSH1 0xE0 SHL PUSH1 0x0 MSTORE PUSH1 0x12 PUSH1 0x4 MSTORE PUSH1 0x24 PUSH1 0x0 REVERT JUMPDEST PUSH1 0x0 DUP3 PUSH2 0x1FB1 JUMPI PUSH2 0x1FB1 PUSH2 0x1F8C JUMP JUMPDEST POP MOD SWAP1 JUMP JUMPDEST PUSH1 0x0 DUP2 PUSH1 0x0 NOT DIV DUP4 GT DUP3 ISZERO ISZERO AND ISZERO PUSH2 0x1FD0 JUMPI PUSH2 0x1FD0 PUSH2 0x1EF6 JUMP JUMPDEST POP MUL SWAP1 JUMP JUMPDEST PUSH1 0x0 DUP3 PUSH2 0x1FE4 JUMPI PUSH2 0x1FE4 PUSH2 0x1F8C JUMP JUMPDEST POP DIV SWAP1 JUMP JUMPDEST PUSH1 0x60 DUP2 MSTORE PUSH1 0x0 PUSH2 0x1FFC PUSH1 0x60 DUP4 ADD DUP7 PUSH2 0x1A49 JUMP JUMPDEST PUSH1 0x20 DUP4 ADD SWAP5 SWAP1 SWAP5 MSTORE POP PUSH1 0x40 ADD MSTORE SWAP2 SWAP1 POP JUMP JUMPDEST PUSH1 0x0 DUP3 PUSH1 0x1F DUP4 ADD SLT PUSH2 0x201F JUMPI PUSH1 0x0 DUP1 REVERT JUMPDEST DUP2 MLOAD PUSH1 0x20 PUSH2 0x202F PUSH2 0x1713 DUP4 PUSH2 0x16CF JUMP JUMPDEST DUP3 DUP2 MSTORE PUSH1 0x5 SWAP3 SWAP1 SWAP3 SHL DUP5 ADD DUP2 ADD SWAP2 DUP2 DUP2 ADD SWAP1 DUP7 DUP5 GT ISZERO PUSH2 0x204E JUMPI PUSH1 0x0 DUP1 REVERT JUMPDEST DUP3 DUP7 ADD JUMPDEST DUP5 DUP2 LT ISZERO PUSH2 0x1752 JUMPI DUP1 MLOAD DUP4 MSTORE SWAP2 DUP4 ADD SWAP2 DUP4 ADD PUSH2 0x2052 JUMP JUMPDEST PUSH1 0x0 DUP3 PUSH1 0x1F DUP4 ADD SLT PUSH2 0x207A JUMPI PUSH1 0x0 DUP1 REVERT JUMPDEST DUP2 MLOAD PUSH1 0x20 PUSH2 0x208A PUSH2 0x1713 DUP4 PUSH2 0x16CF JUMP JUMPDEST DUP3 DUP2 MSTORE PUSH1 0x5 SWAP3 SWAP1 SWAP3 SHL DUP5 ADD DUP2 ADD SWAP2 DUP2 DUP2 ADD SWAP1 DUP7 DUP5 GT ISZERO PUSH2 0x20A9 JUMPI PUSH1 0x0 DUP1 REVERT JUMPDEST DUP3 DUP7 ADD JUMPDEST DUP5 DUP2 LT ISZERO PUSH2 0x1752 JUMPI DUP1 MLOAD PUSH1 0x1 PUSH1 0x1 PUSH1 0x40 SHL SUB DUP1 DUP3 GT ISZERO PUSH2 0x20CD JUMPI PUSH1 0x0 DUP1 DUP2 REVERT JUMPDEST SWAP1 DUP9 ADD SWAP1 PUSH1 0xC0 DUP3 DUP12 SUB PUSH1 0x1F NOT ADD DUP2 SGT ISZERO PUSH2 0x20E7 JUMPI PUSH1 0x0 DUP1 DUP2 REVERT JUMPDEST PUSH2 0x20EF PUSH2 0x1611 JUMP JUMPDEST DUP8 DUP5 ADD MLOAD DUP2 MSTORE PUSH1 0x40 DUP1 DUP6 ADD MLOAD DUP10 DUP4 ADD MSTORE PUSH1 0x60 DUP1 DUP7 ADD MLOAD DUP3 DUP5 ADD MSTORE PUSH1 0x80 SWAP2 POP DUP2 DUP7 ADD MLOAD DUP2 DUP5 ADD MSTORE POP PUSH1 0xA0 DUP1 DUP7 ADD MLOAD DUP3 DUP5 ADD MSTORE DUP4 DUP7 ADD MLOAD SWAP4 POP DUP5 DUP5 GT ISZERO PUSH2 0x2136 JUMPI PUSH1 0x0 SWAP2 POP DUP2 DUP3 REVERT JUMPDEST PUSH2 0x2144 DUP15 DUP12 DUP7 DUP10 ADD ADD PUSH2 0x200E JUMP JUMPDEST SWAP1 DUP4 ADD MSTORE POP DUP7 MSTORE POP POP POP SWAP2 DUP4 ADD SWAP2 DUP4 ADD PUSH2 0x20AD JUMP JUMPDEST PUSH1 0x0 PUSH1 0x20 DUP3 DUP5 SUB SLT ISZERO PUSH2 0x216B JUMPI PUSH1 0x0 DUP1 REVERT JUMPDEST DUP2 MLOAD PUSH1 0x1 PUSH1 0x1 PUSH1 0x40 SHL SUB DUP2 GT ISZERO PUSH2 0x2181 JUMPI PUSH1 0x0 DUP1 REVERT JUMPDEST PUSH2 0x1B18 DUP5 DUP3 DUP6 ADD PUSH2 0x2069 JUMP JUMPDEST PUSH1 0x60 DUP2 MSTORE PUSH1 0x0 PUSH2 0x21A0 PUSH1 0x60 DUP4 ADD DUP7 PUSH2 0x1E11 JUMP JUMPDEST DUP3 DUP2 SUB PUSH1 0x20 DUP5 ADD MSTORE PUSH2 0x21B2 DUP2 DUP7 PUSH2 0x1D75 JUMP JUMPDEST SWAP1 POP DUP3 DUP2 SUB PUSH1 0x40 DUP5 ADD MSTORE PUSH2 0x13D1 DUP2 DUP6 PUSH2 0x1A49 JUMP JUMPDEST PUSH1 0x0 PUSH1 0x60 DUP3 DUP5 SUB SLT ISZERO PUSH2 0x21D8 JUMPI PUSH1 0x0 DUP1 REVERT JUMPDEST PUSH2 0x21E0 PUSH2 0x167D JUMP JUMPDEST SWAP1 POP DUP2 MLOAD DUP2 MSTORE PUSH1 0x20 DUP3 ADD MLOAD PUSH1 0x20 DUP3 ADD MSTORE PUSH1 0x40 DUP3 ADD MLOAD PUSH1 0x40 DUP3 ADD MSTORE SWAP3 SWAP2 POP POP JUMP JUMPDEST PUSH1 0x0 PUSH1 0x20 DUP1 DUP4 DUP6 SUB SLT ISZERO PUSH2 0x2213 JUMPI PUSH1 0x0 DUP1 REVERT JUMPDEST DUP3 MLOAD PUSH1 0x1 PUSH1 0x1 PUSH1 0x40 SHL SUB DUP1 DUP3 GT ISZERO PUSH2 0x222A JUMPI PUSH1 0x0 DUP1 REVERT JUMPDEST SWAP1 DUP5 ADD SWAP1 PUSH1 0xC0 DUP3 DUP8 SUB SLT ISZERO PUSH2 0x223E JUMPI PUSH1 0x0 DUP1 REVERT JUMPDEST PUSH2 0x2246 PUSH2 0x165B JUMP JUMPDEST DUP3 MLOAD DUP2 MSTORE PUSH2 0x2256 DUP8 DUP6 DUP6 ADD PUSH2 0x21C6 JUMP JUMPDEST DUP5 DUP3 ADD MSTORE PUSH1 0x80 DUP4 ADD MLOAD DUP3 DUP2 GT ISZERO PUSH2 0x226C JUMPI PUSH1 0x0 DUP1 REVERT JUMPDEST DUP4 ADD PUSH1 0x1F DUP2 ADD DUP9 SGT PUSH2 0x227D JUMPI PUSH1 0x0 DUP1 REVERT JUMPDEST DUP1 MLOAD PUSH2 0x228B PUSH2 0x1713 DUP3 PUSH2 0x16CF JUMP JUMPDEST DUP2 DUP2 MSTORE PUSH1 0x5 SWAP2 SWAP1 SWAP2 SHL DUP3 ADD DUP7 ADD SWAP1 DUP7 DUP2 ADD SWAP1 DUP11 DUP4 GT ISZERO PUSH2 0x22AA JUMPI PUSH1 0x0 DUP1 REVERT JUMPDEST DUP8 DUP5 ADD JUMPDEST DUP4 DUP2 LT ISZERO PUSH2 0x236A JUMPI DUP1 MLOAD DUP8 DUP2 GT ISZERO PUSH2 0x22C5 JUMPI PUSH1 0x0 DUP1 REVERT JUMPDEST DUP6 ADD PUSH2 0x100 DUP2 DUP15 SUB PUSH1 0x1F NOT ADD SLT ISZERO PUSH2 0x22DC JUMPI PUSH1 0x0 DUP1 REVERT JUMPDEST PUSH2 0x22E4 PUSH2 0x1611 JUMP JUMPDEST DUP11 DUP3 ADD MLOAD DUP10 DUP2 GT ISZERO PUSH2 0x22F5 JUMPI PUSH1 0x0 DUP1 REVERT JUMPDEST PUSH2 0x2303 DUP16 DUP14 DUP4 DUP7 ADD ADD PUSH2 0x200E JUMP JUMPDEST DUP3 MSTORE POP PUSH1 0x40 DUP3 ADD MLOAD DUP12 DUP3 ADD MSTORE PUSH2 0x231C DUP15 PUSH1 0x60 DUP5 ADD PUSH2 0x21C6 JUMP JUMPDEST PUSH1 0x40 DUP3 ADD MSTORE PUSH1 0xC0 DUP3 ADD MLOAD PUSH1 0x60 DUP3 ADD MSTORE PUSH1 0xE0 DUP3 ADD MLOAD PUSH1 0x80 DUP3 ADD MSTORE PUSH2 0x100 DUP3 ADD MLOAD DUP10 DUP2 GT ISZERO PUSH2 0x2348 JUMPI PUSH1 0x0 DUP1 REVERT JUMPDEST PUSH2 0x2356 DUP16 DUP14 DUP4 DUP7 ADD ADD PUSH2 0x200E JUMP JUMPDEST PUSH1 0xA0 DUP4 ADD MSTORE POP DUP5 MSTORE POP SWAP2 DUP9 ADD SWAP2 DUP9 ADD PUSH2 0x22AE JUMP JUMPDEST POP PUSH1 0x40 DUP6 ADD MSTORE POP POP POP PUSH1 0xA0 DUP4 ADD MLOAD SWAP4 POP DUP2 DUP5 GT ISZERO PUSH2 0x2387 JUMPI PUSH1 0x0 DUP1 REVERT JUMPDEST PUSH2 0x2393 DUP8 DUP6 DUP6 ADD PUSH2 0x2069 JUMP JUMPDEST PUSH1 0x60 DUP3 ADD MSTORE SWAP7 SWAP6 POP POP POP POP POP POP JUMP INVALID LOG2 PUSH5 0x6970667358 0x22 SLT KECCAK256 PUSH11 0x138452E2E707C4148C2D35 0xC4 CALLER PUSH5 0x27ECA1B639 0x23 0x1E 0xD0 SWAP11 MULMOD SMOD PUSH17 0x660E37F37064736F6C634300080D003300 ",
  "sha1": "a5b6c26aeca250fb514e531c1a78f37f3e1bd399",
  "source": "// SPDX-License-Identifier: MIT\n// Beef Contracts v0.0.0 hello@mcdu.com\n\npragma solidity ^0.8.0;\nimport \"./../Market.sol\";\nimport \"./../Lib.sol\";\nimport \"./Search.sol\";\n//import \"../agnostic/StringLib.sol\";\n\nlibrary MarketSearchLib {\n    using StringLib for string;\n    using StringLib for uint;\n    using Array for address[];\n    using Array for uint64[];\n    using MarketLib for SolutionSetDesc;\n    using MarketLib for SolutionSet;\n    using MarketLib for Solution;\n    using MarketLib for Remainer[];\n    using MarketLib for Solution[];\n    using MarketLib for address[];\n\n    function selectable(\n        MarketSearch.SearchArgTarget memory target_,\n        MarketSearch.SearchArg memory searcharg_,\n        uint256 currentqty_,\n        uint256 currentquote_,\n        uint256 qty_,\n        uint256 quote_\n    ) private pure returns (bool) {\n\n        // qtymax qtymin watchdog\n        if (target_.qty != 0)\n        {\n            if (target_.qtyismax && qty_ > target_.qty)\n                return false;\n            if (target_.qtyismin && qty_ < target_.qty)\n                return false;\n        }\n\n        // None selected\n        if (currentqty_ == 0)\n            return true;\n\n        // here current is active\n\n        // qty unlimited \n        if (target_.qty == 0) \n            return qty_ > currentqty_;\n\n        // here target_.qty != 0\n\n        if (qty_ > target_.qty)\n            return qty_ * quote_ < currentqty_ * currentquote_;\n\n        // here qty <= target_.qty\n\n        if (qty_ > currentqty_) return true;\n\n        // here qty <= currentqty_\n\n        if (qty_ == currentqty_)\n            return qty_ * quote_ < currentqty_ * currentquote_; \n\n        // here qty < currentqty_\n\n        return false;\n    }\n\n    function solutionQtyAvail(Solution memory sol_, Solution[] memory used_)\n        private\n        pure\n        returns (uint256 qty_)\n    {\n        qty_ = sol_.qty - used_.getIdQty(sol_.orderid);\n        qty_ -= qty_ % sol_.granularity;\n    }\n\n\n    /*function recurseSearchBestQty(\n        Solution[] memory in_,\n        uint256 start_,\n        MarketSearch.SearchArgTarget memory target_,\n        MarketSearch.SearchArg memory searcharg_,\n        uint256 recurseqty_ \n    )\n        public\n        pure\n        returns (\n            uint256 qty_\n        )\n    {\n        require(target_.qty != 0,\"recurseSearchBestQty require target_.qty!=0\");\n        require(target_.qty >= recurseqty_,\n            \"recurseSearchBestQty require target_.qty >= recurseqty_\"\n        );\n\n        uint256 i = start_;\n        // _recurseFromTo must be align on new granularity\n        if (i > 0)\n        {\n            for (; i < in_.length; i++)\n                if (in_[i].granularity != in_[i - 1].granularity) break;\n            //require(false,StringLib.format(\"i={}\",i.toString()));\n        }\n        for (; i < in_.length; i++) {\n            // target qty\n            uint256 qty = target_.qty;\n\n            // if not qty unlimited\n            if (qty != 0) {\n                require(qty >= recurseqty_,\"recurseSearchBestQty require qty >= recurseqty_\");\n\n                // we remove was already have in stack\n                qty -= recurseqty_;\n\n                // we ajust qty based on granularity\n                if (qty % in_[i].granularity != 0)\n                {\n                    if (target_.qtyismax && target_.qtyismin)\n                    {\n                        // jump to next granularity\n                        for (; i < in_.length - 1; i++)\n                            if (in_[i].granularity != in_[i + 1].granularity) break;\n                        continue;\n                    }\n                    qty =qty - (qty % in_[i].granularity) + (target_.qtyismax  ? 0 : in_[i].granularity);\n                }\n            }\n\n            // here qty must be unlimited(0) or ajusted target_.qty\n\n            // we ajust the qty based on order qty\n            {\n                if (\n                    qty == 0 ||\n                    qty > solutionQtyAvail(in_[i], searcharg_.used)\n                ) qty = solutionQtyAvail(in_[i], searcharg_.used);\n            }\n            // nothing buyable on  this order if qty avail < granularity -> we jump to next\n            if (qty < in_[i].granularity) continue;\n\n\n            // here qty >= granularity\n            // we know we are going to use this order\n\n            // before adding this order,we make the recurse split to next granularity as is this order never existed\n            if (target_.qty > recurseqty_) {\n               uint256 recurseqty = recurseSearchBestQty(\n                        in_,\n                        i + 1,\n                        target_,\n                        searcharg_,\n                        recurseqty_\n                    );\n                if (recurseqty != 0)\n                {\n                    if (qty_== 0 ||(recurseqty<target_.qty && recurseqty>qty_) || (recurseqty>=target_.qty && (qty_<target_.qty ||recurseqty<qty_)))\n                        qty_ = recurseqty;\n                }\n            }\n            recurseqty_+=qty;\n            if (qty_== 0 || (recurseqty_<target_.qty && recurseqty_>qty_) || (recurseqty_>=target_.qty && (qty_<target_.qty ||recurseqty_<qty_)))\n                qty_ = recurseqty_;\n\n            if (target_.qty <= recurseqty_)\n                break;\n\n            // if we didnt used all the capacity\n            if (qty < solutionQtyAvail(in_[i], searcharg_.used)) {\n                // we jump to next granularity\n                for (; i < in_.length - 1; i++)\n                    if (in_[i].granularity != in_[i + 1].granularity) break;\n            }\n\n        }\n    }*/\n\n\n    /**\n     * @dev we iterate thru solution to seek best price solution\n     * in_ filtered solutions\n     * startin_ is used  for recusion\n     * qty_ target qty, assert if 0, remainer should be removed from qty before calling\n     * searcharg_\n     *      searcharg_.maxquote IGNORED     should be already filtered\n     *      searcharg_.maxavgquote          should be processed\n     *      searcharg_.maxcount IGNORED     is handled is __fromTo\n     *      searcharg_.used                 must be removed from solutions\n     *      searcharg_.remainer IGNORED     should be removed from qty_ before call\n     * used_ is the used order to exclude in recursion and count recusion\n     */\n    function recurseSearch(\n        Solution[] memory in_,\n        uint256 start_,\n        MarketSearch.SearchArgTarget memory target_,\n        MarketSearch.SearchArg memory searcharg_,\n        Solution[] memory recursestack_ //, // , maxcount should be ignored since its the best combinaison shoot\n    )\n        public\n        pure\n        returns (\n            Solution[] memory out_,\n            uint256 qty_,\n            Quote memory quote_\n        )\n    {\n        require(\n            target_.qty == 0 || target_.qty >= recursestack_.getQty(),\n            \"recurseSearch require target_.qty==0 || target_.qty >= searcharg_.used.getQty()\"\n        );\n        Solution[] memory stack = new Solution[](\n            recursestack_.length + in_.length - start_\n        );\n        for (uint256 j = 0; j < recursestack_.length; j++)\n            stack[j] = recursestack_[j];\n        uint256 stackcount = recursestack_.length;\n\n        uint256 i = start_;\n        // _recurseFromTo must be align on new granularity\n       if (i > 0)\n        {\n            for (; i < in_.length; i++)\n                if (in_[i].granularity != in_[i - 1].granularity) break;\n            //require(false,StringLib.format(\"i={}\",i.toString()));\n        }\n        for (; i < in_.length; i++) {\n            // target qty\n            uint256 qty = target_.qty;\n\n            // if not qty unlimited\n            if (qty != 0) {\n                require(qty >= stack.getQty(stackcount),\"recurseSearch require qty >= stack.getQty(stackcount)\");\n                /*require(\n                    qty >= stack.getQty(stackcount),\n                        StringLib.format(\"recurseSearch require qty >= stack.getQty(stackcount) qty={} stack.getQty={} target_.qty={}\",\n                            qty.toDecimalString(),\n                            stack.getQty(stackcount).toDecimalString(),\n                            target_.qty.toDecimalString())\n                );*/\n                //if (qty <= stack.getQty(stackcount))\n                //    break;\n\n                // we remove was already have in stack\n                qty -= stack.getQty(stackcount);\n\n                // we ajust qty based on granularity\n                if (qty % in_[i].granularity > 0)\n                {\n                    if (target_.qtyismax && target_.qtyismin)\n                    {\n                        // jump to next granularity\n                        for (; i < in_.length - 1; i++)\n                            if (in_[i].granularity != in_[i + 1].granularity) break;\n                        continue;\n                    }\n                    qty = qty - (qty % in_[i].granularity) + (target_.qtyismax ? 0 : in_[i].granularity);\n                }\n            }\n\n            // here qty must be unlimited(0) or ajusted target_.qty\n\n            // we ajust the qty based on order qty\n            {\n                if (\n                    qty == 0 ||\n                    qty > solutionQtyAvail(in_[i], searcharg_.used)\n                ) qty = solutionQtyAvail(in_[i], searcharg_.used);\n            }\n            // nothing buyable on  this order if qty avail < granularity -> we jump to next\n            if (qty < in_[i].granularity) continue;\n\n            // adjusting qty based on maxavgquote\n            if (\n                searcharg_.maxavgquote != 0 &&\n                in_[i].quote > searcharg_.maxavgquote\n            ) {\n                uint256 deltaqty = ((((stack.getQty(stackcount) *\n                    searcharg_.maxavgquote) / 10**18) -\n                    stack.getTotal(stackcount)) * 10**18) /\n                    (in_[i].quote - searcharg_.maxavgquote);\n\n                if (qty > deltaqty)\n                    qty = deltaqty - (deltaqty % in_[i].granularity);\n            }\n            if (searcharg_.maxtotal != 0) {\n                //uint256 _total = stack.getTotal(stackcount);\n                // PARANOIA\n                //require(searcharg_.maxtotal>_total,\"recurseSearch require searcharg_.maxtotal>_total\");\n\n                uint256 deltaqty = ((searcharg_.maxtotal -\n                    stack.getTotal(stackcount)) * 10**18) / in_[i].quote;\n\n                if (qty > deltaqty)\n                    qty = deltaqty - (deltaqty % in_[i].granularity);\n            }\n\n            // if we are under granularity here , means maxavgquote reached with granularity,\n            // useless to test same granularity orders because quote will be equal or higher\n            if (qty < in_[i].granularity) {\n                // jump to next granularity\n                for (; i < in_.length - 1; i++)\n                    if (in_[i].granularity != in_[i + 1].granularity) break;\n                continue;\n            }\n\n            // here qty >= granularity\n            // we know we are going to use this order\n\n            // before adding this order,we make the recurse split to next granularity as is this order never existed\n            if (target_.qty != 0 && target_.qty > stack.getQty(stackcount)) {\n                /*require(\n                    false,\n                        StringLib.format(\"recurseSearch target_.qty={} stack.getQty={}\",\n                            target_.qty.toDecimalString(),\n                            stack.getQty(stackcount).toDecimalString()\n                            )\n                );*/\n                (\n                    Solution[] memory recurseout,\n                    uint256 recurseqty,\n                    Quote memory recursequote\n                ) = recurseSearch(\n                        in_,\n                        i + 1,\n                        target_,\n                        searcharg_,\n                        stack.duplicate(0, stackcount)\n                    );\n                if (recurseqty != 0)\n                    if (\n                        selectable(\n                            target_,\n                            searcharg_,\n                            qty_,\n                            quote_.quoteavg,\n                            recurseqty,\n                            recursequote.quoteavg\n                        )\n                    ) //,0))\n                    {\n                        out_ = recurseout;\n                        qty_ = recurseqty;\n                        quote_ = recursequote;\n                    }\n            }\n\n            {\n                stack[stackcount].orderid = in_[i].orderid;\n                stack[stackcount].addr = in_[i].addr;\n                stack[stackcount].qty = qty;\n                stack[stackcount].granularity = in_[i].granularity;\n                stack[stackcount].quote = in_[i].quote;\n                stack[stackcount].delivery = in_[i].delivery;\n                stackcount++;\n            }\n\n            if (\n                selectable(\n                    target_,\n                    searcharg_,\n                    qty_,\n                    quote_.quoteavg,\n                    stack.getQty(stackcount),\n                    stack.getAvg(stackcount)\n                )\n            ) {\n                out_ = stack.duplicate(0, stackcount);\n                quote_ = Quote(0, 0, 0);\n                qty_ = 0;\n                for (uint256 j = 0; j < out_.length; j++) {\n                    if (quote_.quotemin == 0 || quote_.quotemin > out_[j].quote)\n                        quote_.quotemin = out_[j].quote;\n                    if (quote_.quotemax == 0 || quote_.quotemax < out_[j].quote)\n                        quote_.quotemax = out_[j].quote;\n                    quote_.quoteavg += (out_[j].qty * out_[j].quote);\n                    qty_ += out_[j].qty;\n                }\n                quote_.quoteavg /= qty_;\n            }\n\n            //if (searcharg_.maxcount!=0&&out_.length==searcharg_.maxcount)\n            //    break;\n            if (target_.qty != 0 && target_.qty <= stack.getQty(stackcount))\n            {\n                /*require(\n                    false,\n                        StringLib.format(\"recurseSearch target_.qty={} stack.getQty={}\",\n                            target_.qty.toDecimalString(),\n                            stack.getQty(stackcount).toDecimalString()\n                            )\n                );*/\n                break;\n            }\n            // if we didnt used all the capacity\n            if (qty < solutionQtyAvail(in_[i], searcharg_.used)) {\n                // we jump to next granularity\n                for (; i < in_.length - 1; i++)\n                    if (in_[i].granularity != in_[i + 1].granularity) break;\n            }\n\n        }\n    }\n\n    function recurseSearchCFilter(\n        SolutionSet memory in_,\n        bytes32 current_,\n        MarketSearch.SearchArgTarget memory target_,\n        MarketSearch.SearchArg memory searcharg_\n    )\n        public\n        pure\n        returns (SolutionSet memory out_)\n    {\n        SolutionSetDesc memory selecteddesc;\n        {\n            uint len = in_.descs.length;\n            for (uint i;i<len;i++)\n            {\n                if (in_.descs[i].path[0]==current_&&in_.descs[i].path[in_.descs[i].path.length-1]==target_.currency)\n                {\n                    if (selecteddesc.qty ==0 || selecteddesc.quote.quoteavg > in_.descs[i].quote.quoteavg)\n                        selecteddesc = in_.descs[i];\n                }\n                out_.add(in_.descs[i],in_.solutions);\n            }\n        }\n        if (selecteddesc.qty!=0)\n        {\n            out_.qty = selecteddesc.qty;\n            out_.quote=  selecteddesc.quote;\n            out_ = out_.add(selecteddesc,in_.solutions);\n        }\n    }\n}\n",
  "sourcePath": "contracts/Market/Reader/SearchLib.sol",
  "type": "library"
}