{
  "abi": [
    {
      "inputs": [],
      "name": "STOP",
      "outputs": [
        {
          "internalType": "bool",
          "name": "",
          "type": "bool"
        }
      ],
      "stateMutability": "view",
      "type": "function"
    },
    {
      "inputs": [],
      "name": "STOPFOREVER",
      "outputs": [
        {
          "internalType": "bool",
          "name": "",
          "type": "bool"
        }
      ],
      "stateMutability": "view",
      "type": "function"
    }
  ],
  "bytecode": "608060405234801561001057600080fd5b5060b38061001f6000396000f3fe6080604052348015600f57600080fd5b506004361060325760003560e01c8063854ba99d14603757806397962076146051575b600080fd5b603d6060565b604051901515815260200160405180910390f35b600054610100900460ff16603d565b6000805460ff168060785750600054610100900460ff165b90509056fea264697066735822122054643e5f8ea038751bd48b9e1ccb31de826677ec2eb4848e0e1458d81059fb0c64736f6c634300080d0033",
  "bytecodeSha1": "6308ccf614d5726d09ad7d5459d6369b324a343e",
  "compiler": {
    "evm_version": "istanbul",
    "optimizer": {
      "enabled": true,
      "runs": 200
    },
    "version": "0.8.13+commit.abaa5c0e"
  },
  "contractName": "ModeStop",
  "language": "Solidity",
  "natspec": {
    "kind": "dev",
    "methods": {},
    "version": 1
  },
  "opcodes": "PUSH1 0x80 PUSH1 0x40 MSTORE CALLVALUE DUP1 ISZERO PUSH1 0xF JUMPI PUSH1 0x0 DUP1 REVERT JUMPDEST POP PUSH1 0x4 CALLDATASIZE LT PUSH1 0x32 JUMPI PUSH1 0x0 CALLDATALOAD PUSH1 0xE0 SHR DUP1 PUSH4 0x854BA99D EQ PUSH1 0x37 JUMPI DUP1 PUSH4 0x97962076 EQ PUSH1 0x51 JUMPI JUMPDEST PUSH1 0x0 DUP1 REVERT JUMPDEST PUSH1 0x3D PUSH1 0x60 JUMP JUMPDEST PUSH1 0x40 MLOAD SWAP1 ISZERO ISZERO DUP2 MSTORE PUSH1 0x20 ADD PUSH1 0x40 MLOAD DUP1 SWAP2 SUB SWAP1 RETURN JUMPDEST PUSH1 0x0 SLOAD PUSH2 0x100 SWAP1 DIV PUSH1 0xFF AND PUSH1 0x3D JUMP JUMPDEST PUSH1 0x0 DUP1 SLOAD PUSH1 0xFF AND DUP1 PUSH1 0x78 JUMPI POP PUSH1 0x0 SLOAD PUSH2 0x100 SWAP1 DIV PUSH1 0xFF AND JUMPDEST SWAP1 POP SWAP1 JUMP INVALID LOG2 PUSH5 0x6970667358 0x22 SLT KECCAK256 SLOAD PUSH5 0x3E5F8EA038 PUSH22 0x1BD48B9E1CCB31DE826677EC2EB4848E0E1458D81059 0xFB 0xC PUSH5 0x736F6C6343 STOP ADDMOD 0xD STOP CALLER ",
  "sha1": "a277367e0540866636f965838b189643cbfad67d",
  "source": "// SPDX-License-Identifier: MIT\n// Beef Contracts v0.0.0 hello@mcdu.com\n\npragma solidity ^0.8.0;\n\n\ncontract ModeTest {\n    bool public immutable MODETEST;\n\n    //function MODETEST() public view returns (bool) { return _MODETEST;}\n\n    constructor(bool MODETEST_)  {\n        MODETEST = MODETEST_;\n    }\n}\n\ncontract ModeStop {\n    bool private _STOP;\n    bool private _STOPFOREVER;\n\n    function STOP() public view returns (bool) { return _STOP||_STOPFOREVER;}\n    function STOPFOREVER() public view returns (bool) { return _STOPFOREVER;}\n\n    function _setSTOPFOREVER() internal virtual { _STOPFOREVER= true;}\n    function _setSTOP() internal virtual { _STOP= true;}\n    function _unsetSTOP() internal virtual { _STOP= false;}\n}",
  "sourcePath": "contracts/agnostic/Mode.sol",
  "type": "contract"
}