{
  "abi": [
    {
      "inputs": [
        {
          "internalType": "bool",
          "name": "MODETEST_",
          "type": "bool"
        }
      ],
      "stateMutability": "nonpayable",
      "type": "constructor"
    },
    {
      "inputs": [],
      "name": "MODETEST",
      "outputs": [
        {
          "internalType": "bool",
          "name": "",
          "type": "bool"
        }
      ],
      "stateMutability": "view",
      "type": "function"
    }
  ],
  "bytecode": "60a060405234801561001057600080fd5b5060405161011738038061011783398101604081905261002f91610039565b1515608052610062565b60006020828403121561004b57600080fd5b8151801515811461005b57600080fd5b9392505050565b608051609d61007a600039600060310152609d6000f3fe6080604052348015600f57600080fd5b506004361060285760003560e01c80634635229b14602d575b600080fd5b60537f000000000000000000000000000000000000000000000000000000000000000081565b604051901515815260200160405180910390f3fea26469706673582212206752ad56fc7414623a5559897400b3b23b9a930a8478b892b4fcb9da827dd46864736f6c634300080d0033",
  "bytecodeSha1": "204e0624113269df6a0d81d1e4636e63901f6389",
  "compiler": {
    "evm_version": "istanbul",
    "optimizer": {
      "enabled": true,
      "runs": 200
    },
    "version": "0.8.13+commit.abaa5c0e"
  },
  "contractName": "ModeTest",
  "language": "Solidity",
  "natspec": {
    "kind": "dev",
    "methods": {},
    "version": 1
  },
  "opcodes": "PUSH1 0x80 PUSH1 0x40 MSTORE CALLVALUE DUP1 ISZERO PUSH1 0xF JUMPI PUSH1 0x0 DUP1 REVERT JUMPDEST POP PUSH1 0x4 CALLDATASIZE LT PUSH1 0x28 JUMPI PUSH1 0x0 CALLDATALOAD PUSH1 0xE0 SHR DUP1 PUSH4 0x4635229B EQ PUSH1 0x2D JUMPI JUMPDEST PUSH1 0x0 DUP1 REVERT JUMPDEST PUSH1 0x53 PUSH32 0x0 DUP2 JUMP JUMPDEST PUSH1 0x40 MLOAD SWAP1 ISZERO ISZERO DUP2 MSTORE PUSH1 0x20 ADD PUSH1 0x40 MLOAD DUP1 SWAP2 SUB SWAP1 RETURN INVALID LOG2 PUSH5 0x6970667358 0x22 SLT KECCAK256 PUSH8 0x52AD56FC7414623A SSTORE MSIZE DUP10 PUSH21 0xB3B23B9A930A8478B892B4FCB9DA827DD4686473 PUSH16 0x6C634300080D00330000000000000000 ",
  "sha1": "a277367e0540866636f965838b189643cbfad67d",
  "source": "// SPDX-License-Identifier: MIT\n// Beef Contracts v0.0.0 hello@mcdu.com\n\npragma solidity ^0.8.0;\n\n\ncontract ModeTest {\n    bool public immutable MODETEST;\n\n    //function MODETEST() public view returns (bool) { return _MODETEST;}\n\n    constructor(bool MODETEST_)  {\n        MODETEST = MODETEST_;\n    }\n}\n\ncontract ModeStop {\n    bool private _STOP;\n    bool private _STOPFOREVER;\n\n    function STOP() public view returns (bool) { return _STOP||_STOPFOREVER;}\n    function STOPFOREVER() public view returns (bool) { return _STOPFOREVER;}\n\n    function _setSTOPFOREVER() internal virtual { _STOPFOREVER= true;}\n    function _setSTOP() internal virtual { _STOP= true;}\n    function _unsetSTOP() internal virtual { _STOP= false;}\n}",
  "sourcePath": "contracts/agnostic/Mode.sol",
  "type": "contract"
}