{
  "abi": [
    {
      "inputs": [
        {
          "components": [
            {
              "internalType": "bytes32",
              "name": "fromto",
              "type": "bytes32"
            },
            {
              "internalType": "address",
              "name": "account",
              "type": "address"
            },
            {
              "internalType": "enum Order.State",
              "name": "state",
              "type": "Order.State"
            },
            {
              "internalType": "uint8",
              "name": "options",
              "type": "uint8"
            },
            {
              "internalType": "uint256",
              "name": "orderid",
              "type": "uint256"
            },
            {
              "internalType": "uint64",
              "name": "qty",
              "type": "uint64"
            },
            {
              "internalType": "uint64",
              "name": "qtydone",
              "type": "uint64"
            },
            {
              "internalType": "uint64",
              "name": "originalqty",
              "type": "uint64"
            },
            {
              "internalType": "uint64",
              "name": "quote",
              "type": "uint64"
            },
            {
              "internalType": "uint64",
              "name": "granularity",
              "type": "uint64"
            },
            {
              "internalType": "uint64",
              "name": "originalquote",
              "type": "uint64"
            },
            {
              "internalType": "uint64",
              "name": "originalbasedquote",
              "type": "uint64"
            }
          ],
          "internalType": "struct Order.Info",
          "name": "_order",
          "type": "tuple"
        }
      ],
      "name": "isExpired",
      "outputs": [
        {
          "internalType": "uint256",
          "name": "",
          "type": "uint256"
        }
      ],
      "stateMutability": "pure",
      "type": "function"
    },
    {
      "inputs": [
        {
          "internalType": "uint8",
          "name": "_options",
          "type": "uint8"
        }
      ],
      "name": "isHidden",
      "outputs": [
        {
          "internalType": "bool",
          "name": "",
          "type": "bool"
        }
      ],
      "stateMutability": "pure",
      "type": "function"
    },
    {
      "inputs": [
        {
          "internalType": "uint8",
          "name": "_options",
          "type": "uint8"
        }
      ],
      "name": "isIndexed",
      "outputs": [
        {
          "internalType": "bool",
          "name": "",
          "type": "bool"
        }
      ],
      "stateMutability": "pure",
      "type": "function"
    },
    {
      "inputs": [
        {
          "internalType": "uint8",
          "name": "_options",
          "type": "uint8"
        }
      ],
      "name": "isPack",
      "outputs": [
        {
          "internalType": "bool",
          "name": "",
          "type": "bool"
        }
      ],
      "stateMutability": "pure",
      "type": "function"
    },
    {
      "inputs": [
        {
          "internalType": "uint8",
          "name": "_options",
          "type": "uint8"
        }
      ],
      "name": "isReserved",
      "outputs": [
        {
          "internalType": "bool",
          "name": "",
          "type": "bool"
        }
      ],
      "stateMutability": "pure",
      "type": "function"
    }
  ],
  "bytecode": "6102b761003a600b82828239805160001a60731461002d57634e487b7160e01b600052600060045260246000fd5b30600052607381538281f3fe73000000000000000000000000000000000000000030146080604052600436106100615760003560e01c8063084b5b2c146100665780635640edc61461008d5780636c3036ce146100b3578063b6fa1ed2146100c9578063f0340a37146100df575b600080fd5b61007a610074366004610181565b50600090565b6040519081526020015b60405180910390f35b6100a361009b36600461025f565b600816151590565b6040519015158152602001610084565b6100a36100c136600461025f565b600216151590565b6100a36100d736600461025f565b600416151590565b6100a36100ed36600461025f565b600116151590565b604051610180810167ffffffffffffffff8111828210171561012757634e487b7160e01b600052604160045260246000fd5b60405290565b80356001600160a01b038116811461014457600080fd5b919050565b80356006811061014457600080fd5b803560ff8116811461014457600080fd5b803567ffffffffffffffff8116811461014457600080fd5b6000610180828403121561019457600080fd5b61019c6100f5565b823581526101ac6020840161012d565b60208201526101bd60408401610149565b60408201526101ce60608401610158565b6060820152608083013560808201526101e960a08401610169565b60a08201526101fa60c08401610169565b60c082015261020b60e08401610169565b60e082015261010061021e818501610169565b90820152610120610230848201610169565b90820152610140610242848201610169565b90820152610160610254848201610169565b908201529392505050565b60006020828403121561027157600080fd5b61027a82610158565b939250505056fea264697066735822122019abed2f64a671d3f5cc3162a2365d41482b56786d7878baea269bbf5a020ee564736f6c634300080d0033",
  "bytecodeSha1": "ebb9a867e1cdee894dd0304943c5b8cc80b787e5",
  "compiler": {
    "evm_version": "istanbul",
    "optimizer": {
      "enabled": true,
      "runs": 200
    },
    "version": "0.8.13+commit.abaa5c0e"
  },
  "contractName": "Order",
  "language": "Solidity",
  "natspec": {
    "kind": "dev",
    "methods": {},
    "version": 1
  },
  "opcodes": "PUSH20 0x0 ADDRESS EQ PUSH1 0x80 PUSH1 0x40 MSTORE PUSH1 0x4 CALLDATASIZE LT PUSH2 0x61 JUMPI PUSH1 0x0 CALLDATALOAD PUSH1 0xE0 SHR DUP1 PUSH4 0x84B5B2C EQ PUSH2 0x66 JUMPI DUP1 PUSH4 0x5640EDC6 EQ PUSH2 0x8D JUMPI DUP1 PUSH4 0x6C3036CE EQ PUSH2 0xB3 JUMPI DUP1 PUSH4 0xB6FA1ED2 EQ PUSH2 0xC9 JUMPI DUP1 PUSH4 0xF0340A37 EQ PUSH2 0xDF JUMPI JUMPDEST PUSH1 0x0 DUP1 REVERT JUMPDEST PUSH2 0x7A PUSH2 0x74 CALLDATASIZE PUSH1 0x4 PUSH2 0x181 JUMP JUMPDEST POP PUSH1 0x0 SWAP1 JUMP JUMPDEST PUSH1 0x40 MLOAD SWAP1 DUP2 MSTORE PUSH1 0x20 ADD JUMPDEST PUSH1 0x40 MLOAD DUP1 SWAP2 SUB SWAP1 RETURN JUMPDEST PUSH2 0xA3 PUSH2 0x9B CALLDATASIZE PUSH1 0x4 PUSH2 0x25F JUMP JUMPDEST PUSH1 0x8 AND ISZERO ISZERO SWAP1 JUMP JUMPDEST PUSH1 0x40 MLOAD SWAP1 ISZERO ISZERO DUP2 MSTORE PUSH1 0x20 ADD PUSH2 0x84 JUMP JUMPDEST PUSH2 0xA3 PUSH2 0xC1 CALLDATASIZE PUSH1 0x4 PUSH2 0x25F JUMP JUMPDEST PUSH1 0x2 AND ISZERO ISZERO SWAP1 JUMP JUMPDEST PUSH2 0xA3 PUSH2 0xD7 CALLDATASIZE PUSH1 0x4 PUSH2 0x25F JUMP JUMPDEST PUSH1 0x4 AND ISZERO ISZERO SWAP1 JUMP JUMPDEST PUSH2 0xA3 PUSH2 0xED CALLDATASIZE PUSH1 0x4 PUSH2 0x25F JUMP JUMPDEST PUSH1 0x1 AND ISZERO ISZERO SWAP1 JUMP JUMPDEST PUSH1 0x40 MLOAD PUSH2 0x180 DUP2 ADD PUSH8 0xFFFFFFFFFFFFFFFF DUP2 GT DUP3 DUP3 LT OR ISZERO PUSH2 0x127 JUMPI PUSH4 0x4E487B71 PUSH1 0xE0 SHL PUSH1 0x0 MSTORE PUSH1 0x41 PUSH1 0x4 MSTORE PUSH1 0x24 PUSH1 0x0 REVERT JUMPDEST PUSH1 0x40 MSTORE SWAP1 JUMP JUMPDEST DUP1 CALLDATALOAD PUSH1 0x1 PUSH1 0x1 PUSH1 0xA0 SHL SUB DUP2 AND DUP2 EQ PUSH2 0x144 JUMPI PUSH1 0x0 DUP1 REVERT JUMPDEST SWAP2 SWAP1 POP JUMP JUMPDEST DUP1 CALLDATALOAD PUSH1 0x6 DUP2 LT PUSH2 0x144 JUMPI PUSH1 0x0 DUP1 REVERT JUMPDEST DUP1 CALLDATALOAD PUSH1 0xFF DUP2 AND DUP2 EQ PUSH2 0x144 JUMPI PUSH1 0x0 DUP1 REVERT JUMPDEST DUP1 CALLDATALOAD PUSH8 0xFFFFFFFFFFFFFFFF DUP2 AND DUP2 EQ PUSH2 0x144 JUMPI PUSH1 0x0 DUP1 REVERT JUMPDEST PUSH1 0x0 PUSH2 0x180 DUP3 DUP5 SUB SLT ISZERO PUSH2 0x194 JUMPI PUSH1 0x0 DUP1 REVERT JUMPDEST PUSH2 0x19C PUSH2 0xF5 JUMP JUMPDEST DUP3 CALLDATALOAD DUP2 MSTORE PUSH2 0x1AC PUSH1 0x20 DUP5 ADD PUSH2 0x12D JUMP JUMPDEST PUSH1 0x20 DUP3 ADD MSTORE PUSH2 0x1BD PUSH1 0x40 DUP5 ADD PUSH2 0x149 JUMP JUMPDEST PUSH1 0x40 DUP3 ADD MSTORE PUSH2 0x1CE PUSH1 0x60 DUP5 ADD PUSH2 0x158 JUMP JUMPDEST PUSH1 0x60 DUP3 ADD MSTORE PUSH1 0x80 DUP4 ADD CALLDATALOAD PUSH1 0x80 DUP3 ADD MSTORE PUSH2 0x1E9 PUSH1 0xA0 DUP5 ADD PUSH2 0x169 JUMP JUMPDEST PUSH1 0xA0 DUP3 ADD MSTORE PUSH2 0x1FA PUSH1 0xC0 DUP5 ADD PUSH2 0x169 JUMP JUMPDEST PUSH1 0xC0 DUP3 ADD MSTORE PUSH2 0x20B PUSH1 0xE0 DUP5 ADD PUSH2 0x169 JUMP JUMPDEST PUSH1 0xE0 DUP3 ADD MSTORE PUSH2 0x100 PUSH2 0x21E DUP2 DUP6 ADD PUSH2 0x169 JUMP JUMPDEST SWAP1 DUP3 ADD MSTORE PUSH2 0x120 PUSH2 0x230 DUP5 DUP3 ADD PUSH2 0x169 JUMP JUMPDEST SWAP1 DUP3 ADD MSTORE PUSH2 0x140 PUSH2 0x242 DUP5 DUP3 ADD PUSH2 0x169 JUMP JUMPDEST SWAP1 DUP3 ADD MSTORE PUSH2 0x160 PUSH2 0x254 DUP5 DUP3 ADD PUSH2 0x169 JUMP JUMPDEST SWAP1 DUP3 ADD MSTORE SWAP4 SWAP3 POP POP POP JUMP JUMPDEST PUSH1 0x0 PUSH1 0x20 DUP3 DUP5 SUB SLT ISZERO PUSH2 0x271 JUMPI PUSH1 0x0 DUP1 REVERT JUMPDEST PUSH2 0x27A DUP3 PUSH2 0x158 JUMP JUMPDEST SWAP4 SWAP3 POP POP POP JUMP INVALID LOG2 PUSH5 0x6970667358 0x22 SLT KECCAK256 NOT 0xAB 0xED 0x2F PUSH5 0xA671D3F5CC BALANCE PUSH3 0xA2365D COINBASE BASEFEE 0x2B JUMP PUSH25 0x6D7878BAEA269BBF5A020EE564736F6C634300080D00330000 ",
  "sha1": "ce9321583dbd095246a7aef06664bfb8c4695ead",
  "source": "// SPDX-License-Identifier: MIT\n// Beef MarketPlace Contracts v0.0.0 hello@mcdu.com\n\npragma solidity ^0.8.0;\n\nimport \"../../agnostic/Token/TokenLib.sol\";\n\nlibrary Order {\n    /////////////////////////////////////////////////////////////////////////////////////////\n    //      MarketOrderState\n    //          Unknown         Unknown state\n    //          Active          Active Order\n    //          Completed       Completed Order (all _qty fully done)\n    //          Cancelled       Cancelleled by the user account (_qty can be partial)\n    //          Reverted        Reverted by MarketPlace due to ni liquidity (_qty can be partial)\n    /////////////////////////////////////////////////////////////////////////////////////////\n    enum State {\n        Unknown,\n        Cancelled, // -> Order cancelled by user\n        Reverted, // -> Order cancelled by the machine\n        Completed, // -> Order completed\n        // -> Values under active will be deleted ASAP\n\n        Active, // -> Order active\n        Suspended // -> Order pending liquidities\n    }\n\n    /*enum OrderExecutionType {\n        Unknown,\n        Immediat,\n        PlaceOrImmediat,\n        Place\n    }*/\n    uint8 constant Reserved = 0x1; // this order doesnt share the item, liquitities, it will be reverted at least, after shared orders, when not enought liquidities\n    uint8 constant Hidden = 0x2; // some order props are hidden from public transaction viewer\n    uint8 constant Indexed = 0x4; // order is indexedto quote\n    uint8 constant Pack = 0x8; // order must be fulfill fully\n\n    struct Info {\n        bytes32 fromto; // what you have in stack\n        address account; // the user/account/client/customer\n        Order.State state; // state of the order\n        uint8 options; // this order doesnt share the item, liquitities, it will be reverted at least, after shared orders, when not enought liquidities\n\n        //256bytes\n        uint256 orderid; // id of the order\n\n        //256bytes\n        uint64 qty; // qty to / you have\n        uint64 qtydone; // qty processed / you have left on this order\n        uint64 originalqty; // original qty when the order was placed (qty and quote can be ajusted)\n        uint64 quote; // current change quote : fromqty * quote = toqty\n\n        uint64 granularity; // qty granularity\n        uint64 originalquote; // original quote when the order was placed (qty and quote can be ajusted)\n        uint64 originalbasedquote; // original market quote when the order was placed (qty and quote can be ajusted)\n\n    }\n    struct InfoPublic {\n        address account; // the user/account/client/customer\n        bytes32 from;\n        bytes32 to;\n        //address fromaddr;\n        //address toaddr;\n        //uint256 fromid;\n        //uint256 toid;\n        uint256 orderid; // id of the order\n        uint256 qty; // active qty\n        uint256 granularity; // granularity\n        uint256 qtydone; // qty bought or sold\n        uint256 originalqty; // original qty when the order was placed (qty and quote can be ajusted)\n        uint256 quote; // current quote\n        uint256 originalquote; // original quote when the order was placed (qty and quote can be ajusted)\n        uint256 originalbasedquote; // original market quote when the order was placed (qty and quote can be ajusted)\n        uint256 expire;\n        Order.State state; // state of the order\n        uint8 options; // order options\n    }\n\n    function isExpired(Info memory _order) public pure returns (uint256) {\n        return 0;\n    }\n\n    function isHidden(uint8 _options) public pure returns (bool) {\n        return (_options & Order.Hidden) != 0;\n    }\n\n    function isReserved(uint8 _options) public pure returns (bool) {\n        return (_options & Order.Reserved) != 0;\n    }\n\n    function isIndexed(uint8 _options) public pure returns (bool) {\n        return (_options & Order.Indexed) != 0;\n    }\n\n    function isPack(uint8 _options) public pure returns (bool) {\n        return (_options & Order.Pack) != 0;\n    }\n}\n",
  "sourcePath": "contracts/Market/Order/Lib.sol",
  "type": "library"
}