{
  "abi": [
    {
      "inputs": [
        {
          "internalType": "contract Repository",
          "name": "rep_",
          "type": "address"
        }
      ],
      "stateMutability": "nonpayable",
      "type": "constructor"
    },
    {
      "anonymous": false,
      "inputs": [
        {
          "indexed": true,
          "internalType": "address",
          "name": "previousOwner",
          "type": "address"
        },
        {
          "indexed": true,
          "internalType": "address",
          "name": "newOwner",
          "type": "address"
        }
      ],
      "name": "OwnershipTransferred",
      "type": "event"
    },
    {
      "anonymous": false,
      "inputs": [
        {
          "indexed": true,
          "internalType": "address",
          "name": "left_",
          "type": "address"
        },
        {
          "indexed": true,
          "internalType": "address",
          "name": "right_",
          "type": "address"
        },
        {
          "indexed": false,
          "internalType": "enum QuoteSource",
          "name": "source_",
          "type": "uint8"
        },
        {
          "indexed": false,
          "internalType": "uint256",
          "name": "_quotemin_",
          "type": "uint256"
        },
        {
          "indexed": false,
          "internalType": "uint256",
          "name": "_quoteavg_",
          "type": "uint256"
        },
        {
          "indexed": false,
          "internalType": "uint256",
          "name": "quotemax_",
          "type": "uint256"
        }
      ],
      "name": "Quoted",
      "type": "event"
    },
    {
      "anonymous": false,
      "inputs": [
        {
          "indexed": false,
          "internalType": "address",
          "name": "left_",
          "type": "address"
        },
        {
          "indexed": false,
          "internalType": "address",
          "name": "right_",
          "type": "address"
        }
      ],
      "name": "Resolved",
      "type": "event"
    },
    {
      "anonymous": false,
      "inputs": [
        {
          "indexed": false,
          "internalType": "address",
          "name": "left_",
          "type": "address"
        },
        {
          "indexed": false,
          "internalType": "address",
          "name": "right_",
          "type": "address"
        }
      ],
      "name": "Unresolved",
      "type": "event"
    },
    {
      "stateMutability": "nonpayable",
      "type": "fallback"
    },
    {
      "inputs": [],
      "name": "STOP",
      "outputs": [
        {
          "internalType": "bool",
          "name": "",
          "type": "bool"
        }
      ],
      "stateMutability": "view",
      "type": "function"
    },
    {
      "inputs": [],
      "name": "STOPFOREVER",
      "outputs": [
        {
          "internalType": "bool",
          "name": "",
          "type": "bool"
        }
      ],
      "stateMutability": "view",
      "type": "function"
    },
    {
      "inputs": [
        {
          "internalType": "uint256",
          "name": "val_",
          "type": "uint256"
        }
      ],
      "name": "UInt256ToUInt32",
      "outputs": [
        {
          "internalType": "uint32",
          "name": "",
          "type": "uint32"
        }
      ],
      "stateMutability": "pure",
      "type": "function"
    },
    {
      "inputs": [
        {
          "internalType": "uint256",
          "name": "val_",
          "type": "uint256"
        }
      ],
      "name": "UInt256ToUInt48",
      "outputs": [
        {
          "internalType": "uint48",
          "name": "",
          "type": "uint48"
        }
      ],
      "stateMutability": "pure",
      "type": "function"
    },
    {
      "inputs": [
        {
          "internalType": "uint256",
          "name": "val_",
          "type": "uint256"
        }
      ],
      "name": "UInt256ToUInt64",
      "outputs": [
        {
          "internalType": "uint64",
          "name": "",
          "type": "uint64"
        }
      ],
      "stateMutability": "pure",
      "type": "function"
    },
    {
      "inputs": [
        {
          "internalType": "uint32",
          "name": "val_",
          "type": "uint32"
        }
      ],
      "name": "UInt32ToUInt256",
      "outputs": [
        {
          "internalType": "uint256",
          "name": "",
          "type": "uint256"
        }
      ],
      "stateMutability": "pure",
      "type": "function"
    },
    {
      "inputs": [
        {
          "internalType": "uint48",
          "name": "val_",
          "type": "uint48"
        }
      ],
      "name": "UInt48ToUInt256",
      "outputs": [
        {
          "internalType": "uint256",
          "name": "",
          "type": "uint256"
        }
      ],
      "stateMutability": "pure",
      "type": "function"
    },
    {
      "inputs": [
        {
          "internalType": "uint64",
          "name": "val_",
          "type": "uint64"
        }
      ],
      "name": "UInt64ToUInt256",
      "outputs": [
        {
          "internalType": "uint256",
          "name": "",
          "type": "uint256"
        }
      ],
      "stateMutability": "pure",
      "type": "function"
    },
    {
      "inputs": [
        {
          "internalType": "address",
          "name": "left_",
          "type": "address"
        },
        {
          "internalType": "address",
          "name": "right_",
          "type": "address"
        },
        {
          "internalType": "address",
          "name": "feedaddress_",
          "type": "address"
        }
      ],
      "name": "chainlinkSet",
      "outputs": [],
      "stateMutability": "nonpayable",
      "type": "function"
    },
    {
      "inputs": [
        {
          "components": [
            {
              "internalType": "address",
              "name": "_left",
              "type": "address"
            },
            {
              "internalType": "address",
              "name": "_right",
              "type": "address"
            }
          ],
          "internalType": "struct QuoteRef[][]",
          "name": "_convs",
          "type": "tuple[][]"
        }
      ],
      "name": "complexReadOnly",
      "outputs": [
        {
          "internalType": "uint256",
          "name": "",
          "type": "uint256"
        },
        {
          "internalType": "uint256",
          "name": "",
          "type": "uint256"
        },
        {
          "internalType": "uint256",
          "name": "",
          "type": "uint256"
        }
      ],
      "stateMutability": "view",
      "type": "function"
    },
    {
      "inputs": [
        {
          "internalType": "address",
          "name": "left_",
          "type": "address"
        },
        {
          "internalType": "address",
          "name": "right_",
          "type": "address"
        }
      ],
      "name": "complexSearch",
      "outputs": [
        {
          "components": [
            {
              "internalType": "address",
              "name": "_left",
              "type": "address"
            },
            {
              "internalType": "address",
              "name": "_right",
              "type": "address"
            }
          ],
          "internalType": "struct QuoteRef[][]",
          "name": "complex_",
          "type": "tuple[][]"
        }
      ],
      "stateMutability": "view",
      "type": "function"
    },
    {
      "inputs": [
        {
          "internalType": "uint256",
          "name": "val_",
          "type": "uint256"
        },
        {
          "internalType": "uint256",
          "name": "quote_",
          "type": "uint256"
        }
      ],
      "name": "convert",
      "outputs": [
        {
          "internalType": "uint256",
          "name": "",
          "type": "uint256"
        }
      ],
      "stateMutability": "pure",
      "type": "function"
    },
    {
      "inputs": [],
      "name": "id",
      "outputs": [
        {
          "internalType": "bytes32",
          "name": "",
          "type": "bytes32"
        }
      ],
      "stateMutability": "view",
      "type": "function"
    },
    {
      "inputs": [
        {
          "components": [
            {
              "components": [
                {
                  "internalType": "address",
                  "name": "_left",
                  "type": "address"
                },
                {
                  "internalType": "address",
                  "name": "_right",
                  "type": "address"
                }
              ],
              "internalType": "struct QuoteRef",
              "name": "_ref",
              "type": "tuple"
            },
            {
              "internalType": "enum QuoteSource",
              "name": "_source",
              "type": "uint8"
            },
            {
              "internalType": "uint64",
              "name": "_quotemin",
              "type": "uint64"
            },
            {
              "internalType": "uint64",
              "name": "_quoteavg",
              "type": "uint64"
            },
            {
              "internalType": "uint64",
              "name": "_quotemax",
              "type": "uint64"
            },
            {
              "internalType": "bytes4",
              "name": "_timestamp",
              "type": "bytes4"
            }
          ],
          "internalType": "struct QuoteInfo[]",
          "name": "quotes_",
          "type": "tuple[]"
        }
      ],
      "name": "internalMultiSet",
      "outputs": [],
      "stateMutability": "nonpayable",
      "type": "function"
    },
    {
      "inputs": [
        {
          "internalType": "address",
          "name": "left_",
          "type": "address"
        },
        {
          "internalType": "address",
          "name": "right_",
          "type": "address"
        },
        {
          "internalType": "uint256",
          "name": "quotemin_",
          "type": "uint256"
        },
        {
          "internalType": "uint256",
          "name": "quoteavg_",
          "type": "uint256"
        },
        {
          "internalType": "uint256",
          "name": "quotemax_",
          "type": "uint256"
        }
      ],
      "name": "internalSet",
      "outputs": [],
      "stateMutability": "nonpayable",
      "type": "function"
    },
    {
      "inputs": [
        {
          "internalType": "address",
          "name": "caller_",
          "type": "address"
        }
      ],
      "name": "isOwner",
      "outputs": [
        {
          "internalType": "bool",
          "name": "",
          "type": "bool"
        }
      ],
      "stateMutability": "view",
      "type": "function"
    },
    {
      "inputs": [],
      "name": "owner",
      "outputs": [
        {
          "internalType": "address",
          "name": "",
          "type": "address"
        }
      ],
      "stateMutability": "view",
      "type": "function"
    },
    {
      "inputs": [
        {
          "internalType": "bytes32",
          "name": "left_",
          "type": "bytes32"
        },
        {
          "internalType": "bytes32",
          "name": "right_",
          "type": "bytes32"
        }
      ],
      "name": "read",
      "outputs": [
        {
          "internalType": "uint256",
          "name": "",
          "type": "uint256"
        },
        {
          "internalType": "uint256",
          "name": "",
          "type": "uint256"
        },
        {
          "internalType": "uint256",
          "name": "",
          "type": "uint256"
        }
      ],
      "stateMutability": "nonpayable",
      "type": "function"
    },
    {
      "inputs": [
        {
          "internalType": "address",
          "name": "left_",
          "type": "address"
        },
        {
          "internalType": "address",
          "name": "right_",
          "type": "address"
        }
      ],
      "name": "read",
      "outputs": [
        {
          "internalType": "uint256",
          "name": "",
          "type": "uint256"
        },
        {
          "internalType": "uint256",
          "name": "",
          "type": "uint256"
        },
        {
          "internalType": "uint256",
          "name": "",
          "type": "uint256"
        }
      ],
      "stateMutability": "nonpayable",
      "type": "function"
    },
    {
      "inputs": [
        {
          "internalType": "address",
          "name": "left_",
          "type": "address"
        },
        {
          "internalType": "address",
          "name": "right_",
          "type": "address"
        }
      ],
      "name": "readOnly",
      "outputs": [
        {
          "internalType": "uint256",
          "name": "",
          "type": "uint256"
        },
        {
          "internalType": "uint256",
          "name": "",
          "type": "uint256"
        },
        {
          "internalType": "uint256",
          "name": "",
          "type": "uint256"
        }
      ],
      "stateMutability": "view",
      "type": "function"
    },
    {
      "inputs": [
        {
          "internalType": "bytes32",
          "name": "left_",
          "type": "bytes32"
        },
        {
          "internalType": "bytes32",
          "name": "right_",
          "type": "bytes32"
        }
      ],
      "name": "readOnly",
      "outputs": [
        {
          "internalType": "uint256",
          "name": "",
          "type": "uint256"
        },
        {
          "internalType": "uint256",
          "name": "",
          "type": "uint256"
        },
        {
          "internalType": "uint256",
          "name": "",
          "type": "uint256"
        }
      ],
      "stateMutability": "view",
      "type": "function"
    },
    {
      "inputs": [],
      "name": "renounceOwnership",
      "outputs": [],
      "stateMutability": "nonpayable",
      "type": "function"
    },
    {
      "inputs": [],
      "name": "rep",
      "outputs": [
        {
          "internalType": "contract Repository",
          "name": "",
          "type": "address"
        }
      ],
      "stateMutability": "view",
      "type": "function"
    },
    {
      "inputs": [],
      "name": "setSTOP",
      "outputs": [],
      "stateMutability": "nonpayable",
      "type": "function"
    },
    {
      "inputs": [],
      "name": "setSTOPFOREVER",
      "outputs": [],
      "stateMutability": "nonpayable",
      "type": "function"
    },
    {
      "inputs": [
        {
          "internalType": "address",
          "name": "left_",
          "type": "address"
        },
        {
          "internalType": "address",
          "name": "right_",
          "type": "address"
        },
        {
          "internalType": "uint256",
          "name": "quote_",
          "type": "uint256"
        }
      ],
      "name": "staticSet",
      "outputs": [],
      "stateMutability": "nonpayable",
      "type": "function"
    },
    {
      "inputs": [
        {
          "internalType": "bytes4",
          "name": "interfaceId",
          "type": "bytes4"
        }
      ],
      "name": "supportsInterface",
      "outputs": [
        {
          "internalType": "bool",
          "name": "",
          "type": "bool"
        }
      ],
      "stateMutability": "view",
      "type": "function"
    },
    {
      "inputs": [
        {
          "internalType": "address",
          "name": "newOwner",
          "type": "address"
        }
      ],
      "name": "transferOwnership",
      "outputs": [],
      "stateMutability": "nonpayable",
      "type": "function"
    },
    {
      "inputs": [],
      "name": "unsetSTOP",
      "outputs": [],
      "stateMutability": "nonpayable",
      "type": "function"
    }
  ],
  "bytecode": "60a06040523480156200001157600080fd5b5060405162003438380380620034388339810160408190526200003491620000ae565b80620000403362000053565b6001600160a01b031660805250620000e0565b600080546001600160a01b038381166201000081810262010000600160b01b0319851617855560405193049190911692909183917f8be0079c531659141344cd1fd0a4f28419497f9722a3daafe3b4186f6b6457e091a35050565b600060208284031215620000c157600080fd5b81516001600160a01b0381168114620000d957600080fd5b9392505050565b60805161332e6200010a6000396000818161049b0152818161053a01526105d8015261332e6000f3fe608060405234801561001057600080fd5b50600436106101cf5760003560e01c80637bb759ad11610104578063af640d0f116100a2578063d693585811610071578063d6935858146104bd578063e4b16144146104c5578063f2fde38b146104d8578063feab4454146104eb576101cf565b8063af640d0f1461044a578063b03fd40d14610470578063bd28703114610483578063ccc0795914610496576101cf565b80638da5cb5b116100de5780638da5cb5b146103e957806394f46f6f1461041457806396e4ee3d14610427578063979620761461043a576101cf565b80637bb759ad146103ae57806383e8531a146103ce578063854ba99d146103e1576101cf565b80636464b68a116101715780636968abd31161014b5780636968abd31461036a578063715018a61461037d57806372ea61bf146103855780637af6649a1461038d576101cf565b80636464b68a1461033d57806365a6b3631461035757806365e60ef21461033d576101cf565b80631e8d8223116101ad5780631e8d8223146102945780632203616d146102c25780632f54bf6e146102ea5780636296514114610312576101cf565b806301ffc9a71461025157806305d6bd9c146102795780630df7408414610281575b6101d7610515565b60006101e7602460043684612a4d565b8080601f016020809104026020016040519081016040528093929190818152602001838380828437600092018290525060208501519495509250503660231981019150601f19016004838037816024600437600080826000875af49250505061024f816106df565b005b61026461025f366004612a94565b6106f9565b60405190151581526020015b60405180910390f35b61024f610730565b61024f61028f366004612ac6565b610747565b6102a76102a2366004612b13565b6107ce565b60408051938452602084019290925290820152606001610270565b6102d56102d0366004612b46565b610b53565b60405163ffffffff9091168152602001610270565b6102646102f8366004612b5f565b6000546201000090046001600160a01b0390811691161490565b610325610320366004612b46565b610b64565b6040516001600160401b039091168152602001610270565b6102a761034b366004612b7a565b60008060009250925092565b61024f610365366004612ca1565b610b96565b6102a7610378366004612b13565b610c7d565b61024f6112de565b61024f6112f0565b6103a061039b366004612db7565b61130a565b604051908152602001610270565b6103c16103bc366004612b13565b611323565b6040516102709190612ddf565b6102a76103dc366004612e7f565b611380565b610264611539565b6000546201000090046001600160a01b03165b6040516001600160a01b039091168152602001610270565b61024f610422366004612f8e565b611557565b6103a0610435366004612b7a565b6115bc565b600054610100900460ff16610264565b7f3cb99135f7a7c088d9085b446345038a22a85f4e8fe072b0e1b66d97243e74586103a0565b6103a061047e366004612fca565b6115db565b61024f610491366004612fe5565b6115f5565b6103fc7f000000000000000000000000000000000000000000000000000000000000000081565b61024f6116e7565b6103a06104d3366004613028565b611703565b61024f6104e6366004612b5f565b61171a565b6104fe6104f9366004612b46565b611793565b60405165ffffffffffff9091168152602001610270565b6000546001600160a01b0362010000909104163314806105c857506001600160a01b037f0000000000000000000000000000000000000000000000000000000000000000166316279055336040516001600160e01b031960e084901b1681526001600160a01b039091166004820152602401602060405180830381865afa1580156105a4573d6000803e3d6000fd5b505050506040513d601f19601f820116820180604052508101906105c8919061304e565b8061066657506001600160a01b037f000000000000000000000000000000000000000000000000000000000000000016636d70f7ae336040516001600160e01b031960e084901b1681526001600160a01b039091166004820152602401602060405180830381865afa158015610642573d6000803e3d6000fd5b505050506040513d601f19601f82011682018060405250810190610666919061304e565b6106dd5760405162461bcd60e51b815260206004820152603960248201527f416c6c6f77616e63653a2063616c6c6572206d757374206265205265706f736960448201527f746f727920436f6e7472616374206f72204f70657261746f720000000000000060648201526084015b60405180910390fd5b565b3d6000803e8080156106f0573d6000f35b3d6000fd5b5050565b60006001600160e01b031982166301ffc9a760e01b148061072a57506001600160e01b031982166315d3789560e31b145b92915050565b610738610515565b6106dd6000805460ff19169055565b61074f610515565b610757612a0a565b80516001600160a01b03878116909152815190861660209182015260029082015261078184610b64565b6001600160401b0316604082015261079883610b64565b6001600160401b031660608201526107af82610b64565b6001600160401b031660808201526107c6816117a4565b505050505050565b60008060008085856040516020016107e7929190613086565b60408051601f19818403018152828252805160209182012060008181526001808452848220610100870190955284546001600160a01b0390811660c08801908152918601541660e087015285526002840154919550938493849384939083019060ff16600581111561085b5761085b613070565b600581111561086c5761086c613070565b8152600291909101546001600160401b03610100820481166020840152600160481b820481166040840152600160881b82041660608301526001600160e01b0319600160c81b90910460e01b1660809091015290506005816020015160058111156108d9576108d9613070565b036108f3576108e781611c39565b91955093509150610947565b60018160200151600581111561090b5761090b613070565b03610919576108e781611def565b60028160200151600581111561093157610931613070565b036109475761093f81611def565b919550935091505b821561095c575091955093509150610b4c9050565b888a60405160200161096f929190613086565b60408051601f1981840301815282825280516020918201206000818152600180845290849020610100860190945283546001600160a01b0390811660c08701908152918501541660e0860152845260028301549098509083019060ff1660058111156109dd576109dd613070565b60058111156109ee576109ee613070565b8152600291909101546001600160401b03610100820481166020840152600160481b820481166040840152600160881b82041660608301526001600160e01b0319600160c81b90910460e01b16608090910152600094508493508392509050600581602001516005811115610a6557610a65613070565b03610a7f57610a7381611c39565b91955093509150610ad3565b600181602001516005811115610a9757610a97613070565b03610aa557610a7381611def565b600281602001516005811115610abd57610abd613070565b03610ad357610acb81611def565b919550935091505b82600003610af05760008060009750975097505050505050610b4c565b610b09846ec097ce7bc90715b34b9f10000000006130c3565b9350610b24836ec097ce7bc90715b34b9f10000000006130c3565b9250610b3f826ec097ce7bc90715b34b9f10000000006130c3565b9397509195509193505050505b9250925092565b600061072a64e8d4a51000836130c3565b600080610b766402540be400846130c3565b905082610b88826402540be4006130e5565b111561072a5761072a613104565b610b9e610515565b60005b81518110156106f557610c6b828281518110610bbf57610bbf61311a565b60200260200101516000015160000151838381518110610be157610be161311a565b60200260200101516000015160200151848481518110610c0357610c0361311a565b6020026020010151604001516001600160401b0316858581518110610c2a57610c2a61311a565b6020026020010151606001516001600160401b0316868681518110610c5157610c5161311a565b6020026020010151608001516001600160401b0316610747565b80610c7581613130565b915050610ba1565b6000806000808585604051602001610c96929190613086565b60408051601f1981840301815291815281516020928301206000818152600190935291206002810154919250906001600160e01b0319438116600160c81b90920460e01b1603610d8857604080516001600160a01b03808a168252881660208201527f85fe05c69e32ec3aed403e05e055faa5b8f0dec24c0f5ef97a497b8f4b8228b5910160405180910390a16002810154610d3f9061010090046001600160401b03166115db565b6002820154610d5d90600160481b90046001600160401b03166115db565b6002830154610d7b90600160881b90046001600160401b03166115db565b9450945094505050610b4c565b600080806005600285015460ff166005811115610da757610da7613070565b03610e755760408051610100810190915284546001600160a01b0390811660c08301908152600187015490911660e083015281526002850154610e6991908690602083019060ff166005811115610e0057610e00613070565b6005811115610e1157610e11613070565b8152600291909101546001600160401b03610100820481166020840152600160481b820481166040840152600160881b82041660608301526001600160e01b0319600160c81b90910460e01b16608090910152611e28565b91945092509050610fcd565b6001600285015460ff166005811115610e9057610e90613070565b03610f525760408051610100810190915284546001600160a01b0390811660c08301908152600187015490911660e083015281526002850154610e6991908690602083019060ff166005811115610ee957610ee9613070565b6005811115610efa57610efa613070565b8152600291909101546001600160401b03610100820481166020840152600160481b820481166040840152600160881b82041660608301526001600160e01b0319600160c81b90910460e01b16608090910152611def565b60028085015460ff166005811115610f6c57610f6c613070565b03610fcd5760408051610100810190915284546001600160a01b0390811660c08301908152600187015490911660e083015281526002850154610fc591908690602083019060ff166005811115610ee957610ee9613070565b919450925090505b811561102557604080516001600160a01b03808d1682528b1660208201527f85fe05c69e32ec3aed403e05e055faa5b8f0dec24c0f5ef97a497b8f4b8228b5910160405180910390a191965094509250610b4c915050565b888a604051602001611038929190613086565b60408051601f19818403018152918152815160209283012060008181526001909352908220909650945092508291508190506005600285015460ff16600581111561108557611085613070565b036110ea5760408051610100810190915284546001600160a01b0390811660c08301908152600187015490911660e0830152815260028501546110de91908690602083019060ff166005811115610e0057610e00613070565b919450925090506111d9565b6001600285015460ff16600581111561110557611105613070565b0361115e5760408051610100810190915284546001600160a01b0390811660c08301908152600187015490911660e0830152815260028501546110de91908690602083019060ff166005811115610ee957610ee9613070565b60028085015460ff16600581111561117857611178613070565b036111d95760408051610100810190915284546001600160a01b0390811660c08301908152600187015490911660e0830152815260028501546111d191908690602083019060ff166005811115610ee957610ee9613070565b919450925090505b8160000361123957604080516001600160a01b03808d1682528b1660208201527f40431c410cc5180bf05a4efdfb1880b6095849d44d09b81b10b0aefbb6849edd910160405180910390a160008060009750975097505050505050610b4c565b611252836ec097ce7bc90715b34b9f10000000006130c3565b925061126d826ec097ce7bc90715b34b9f10000000006130c3565b9150611288816ec097ce7bc90715b34b9f10000000006130c3565b604080516001600160a01b03808e1682528c1660208201529192507f85fe05c69e32ec3aed403e05e055faa5b8f0dec24c0f5ef97a497b8f4b8228b5910160405180910390a19196509450925050509250925092565b6112e6611ec2565b6106dd6000611f23565b6112f8610515565b6106dd6000805460ff19166001179055565b600061072a65ffffffffffff831664174876e8006130e5565b606061137983836014600060405190808252806020026020018201604052801561137357816020015b604080518082019091526000808252602082015281526020019060019003908161134c5790505b50611f7e565b9392505050565b6000808080808080805b885181101561151b57670de0b6b3a7640000808060005b8c85815181106113b3576113b361311a565b6020026020010151518110156114b05760008d86815181106113d7576113d761311a565b602002602001015182815181106113f0576113f061311a565b602002602001015190506000806000611411846000015185602001516107ce565b9250925092508160000361143c5760008060009f509f509f5050505050505050505050505050611532565b670de0b6b3a764000061144f89856130e5565b61145991906130c3565b9750670de0b6b3a764000061146e88846130e5565b61147891906130c3565b9650670de0b6b3a764000061148d87836130e5565b61149791906130c3565b95505050505080806114a890613130565b9150506113a1565b508715806114bd57508288115b156114c6578297505b8415806114d257508085105b156114db578094505b856000036114eb578196506114f8565b6114f58288613149565b96505b8561150281613130565b965050505050808061151390613130565b91505061138a565b5061152682846130c3565b93965092945091925050505b9193909250565b6000805460ff16806115525750600054610100900460ff165b905090565b61155f610515565b611567612a0a565b80516001600160a01b03858116909152815190841660209182015260019082015261159182610b64565b6001600160401b0316608082018190526060820181905260408201526115b6816117a4565b50505050565b6000670de0b6b3a76400006115d183856130e5565b61137991906130c3565b600061072a6001600160401b0383166402540be4006130e5565b6115fd610515565b60008383604051602001611612929190613086565b60408051808303601f19018152918152815160209283012060008181526003909352912080546001600160a01b0319166001600160a01b03851617905590508161165a612a0a565b80516001600160a01b0387811690915281519086166020918201526005908201526000808061168884611c39565b92509250925061169783610b64565b6001600160401b031660408501526116ae82610b64565b6001600160401b031660608501526116c581610b64565b6001600160401b031660808501526116dc846117a4565b505050505050505050565b6116ef611ec2565b6106dd6000805461ff001916610100179055565b600061072a63ffffffff831664e8d4a510006130e5565b611722611ec2565b6001600160a01b0381166117875760405162461bcd60e51b815260206004820152602660248201527f4f776e61626c653a206e6577206f776e657220697320746865207a65726f206160448201526564647265737360d01b60648201526084016106d4565b61179081611f23565b50565b600061072a64174876e800836130c3565b805180516020918201516040516000936117c093929101613086565b60408051601f19818403018152828252805160209182012060008181526001808452848220610100870190955284546001600160a01b0390811660c08801908152918601541660e08701528552600284015491955093929183019060ff16600581111561182f5761182f613070565b600581111561184057611840613070565b81526002919091015461010081046001600160401b03908116602080850191909152600160481b830482166040850152600160881b83049091166060840152600160c81b90910460e01b6001600160e01b03191660809092019190915284015190915060058111156118b4576118b4613070565b816020015160058111156118ca576118ca613070565b14611a7c57825180516020909101516118e39190612704565b82515181516001600160a01b039182169052835160209081015183519216918101919091528084015190820190600581111561192157611921613070565b9081600581111561193457611934613070565b9052508251516001600160a01b0390811660009081526002602090815260409182902086519091015191516316f4b92960e21b815260048101919091529116602482015273__Array_________________________________90635bd2e4a490604401602060405180830381865af41580156119b4573d6000803e3d6000fd5b505050506040513d601f19601f820116820180604052508101906119d8919061304e565b5082516020908101516001600160a01b039081166000908152600290925260409182902085515192516316f4b92960e21b815260048101919091529116602482015273__Array_________________________________90635bd2e4a490604401602060405180830381865af4158015611a56573d6000803e3d6000fd5b505050506040513d601f19601f82011682018060405250810190611a7a919061304e565b505b6001600160e01b0319431660a0820152604080840151908201516001600160401b039081169116148015611ac9575082606001516001600160401b031681606001516001600160401b0316145b8015611aee575082608001516001600160401b031681608001516001600160401b0316145b15611af857505050565b6040838101516001600160401b039081168383015260608086015182169084015260808086015190911690830152600083815260016020818152929091208351805182546001600160a01b03199081166001600160a01b0392831617845591850151838501805490931691161790559183015160028301805485949360ff1990911690836005811115611b8d57611b8d613070565b02179055506040820151600290910180546060840151608085015160a09095015160e01c600160c81b0263ffffffff60c81b196001600160401b03968716600160881b02166bffffffffffffffffffffffff60881b19928716600160481b0270ffffffffffffffff0000000000000000001997909616610100029690961670ffffffffffffffffffffffffffffffff001990931692909217939093179290921692909217179055505050565b80518051602091820151604051600093849384938493611c599301613086565b60408051601f1981840301815282825280516020918201206000818152600390925282822054633fabe5a360e21b8552925190945090926001600160a01b039092169163feaf968c9160048083019260a09291908290030181865afa158015611cc6573d6000803e3d6000fd5b505050506040513d601f19601f82011682018060405250810190611cea919061317b565b50505091505060008113611d405760405162461bcd60e51b815260206004820181905260248201527f436861696e6c696e6b2071756f7465206d75737420626520706f73697469766560448201526064016106d4565b60008281526003602090815260409182902054825163313ce56760e01b8152925184936001600160a01b039092169263313ce56792600480820193918290030181865afa158015611d95573d6000803e3d6000fd5b505050506040513d601f19601f82011682018060405250810190611db991906131cb565b611dc490600a6132d2565b611dd690670de0b6b3a76400006130c3565b611de090826130e5565b97889750879650945050505050565b6000806000611e0184604001516115db565b611e0e85606001516115db565b611e1b86608001516115db565b9250925092509193909250565b60008060004360001b6001600160e01b0319168460a001516001600160e01b03191614611eb5576000806000611e5d87611c39565b925092509250611e6c83610b64565b6001600160401b03166040880152611e8382610b64565b6001600160401b03166060880152611e9a81610b64565b6001600160401b03166080880152611eb1876117a4565b5050505b611e0184604001516115db565b6000546001600160a01b03620100009091041633146106dd5760405162461bcd60e51b815260206004820152601f60248201527f416c6c6f77616e63653a2063616c6c6572206d757374206265204f776e65720060448201526064016106d4565b600080546001600160a01b038381166201000081810262010000600160b01b0319851617855560405193049190911692909183917f8be0079c531659141344cd1fd0a4f28419497f9722a3daafe3b4186f6b6457e091a35050565b6001600160a01b0384166000908152600260209081526040808320805482518185028101850190935280835260609493830182828015611fe757602002820191906000526020600020905b81546001600160a01b03168152600190910190602001808311611fc9575b5093945060009350611ff892505050565b60405190808252806020026020018201604052801561202b57816020015b60608152602001906001900390816120165790505b50915060005b81518110156126fa5760005b845181101561216c57876001600160a01b03168582815181106120625761206261311a565b6020026020010151600001516001600160a01b03161480156120cb57508282815181106120915761209161311a565b60200260200101516001600160a01b03168582815181106120b4576120b461311a565b6020026020010151602001516001600160a01b0316145b806121565750876001600160a01b03168582815181106120ed576120ed61311a565b6020026020010151602001516001600160a01b0316148015612156575082828151811061211c5761211c61311a565b60200260200101516001600160a01b031685828151811061213f5761213f61311a565b6020026020010151600001516001600160a01b0316145b61216c578061216481613130565b91505061203d565b845181101561217b57506126e8565b866001600160a01b03168383815181106121975761219761311a565b60200260200101516001600160a01b031603612439576000600160008a8a6040516020016121c6929190613086565b60408051601f1981840301815291815281516020928301208352908201929092520160002090506003600282015460ff16600581111561220857612208613070565b1415801561222f57506004600282015460ff16600581111561222c5761222c613070565b14155b15612437576000865160016122449190613149565b6001600160401b0381111561225b5761225b612b9c565b6040519080825280602002602001820160405280156122a057816020015b60408051808201909152600080825260208201528152602001906001900390816122795790505b509050600092505b86518310156122fb578683815181106122c3576122c361311a565b60200260200101518184815181106122dd576122dd61311a565b602002602001018190525082806122f390613130565b9350506122a8565b8981848151811061230e5761230e61311a565b6020026020010151600001906001600160a01b031690816001600160a01b031681525050888184815181106123455761234561311a565b6020908102919091018101516001600160a01b03909216910152855160009061236f906001613149565b6001600160401b0381111561238657612386612b9c565b6040519080825280602002602001820160405280156123b957816020015b60608152602001906001900390816123a45790505b509050600093505b8651841015612414578684815181106123dc576123dc61311a565b60200260200101518185815181106123f6576123f661311a565b6020026020010181905250838061240c90613130565b9450506123c1565b81818851815181106124285761242861311a565b60209081029190910101529550505b505b8560000361244757506126fa565b6000855160016124579190613149565b6001600160401b0381111561246e5761246e612b9c565b6040519080825280602002602001820160405280156124b357816020015b604080518082019091526000808252602082015281526020019060019003908161248c5790505b509050600091505b855182101561250e578582815181106124d6576124d661311a565b60200260200101518183815181106124f0576124f061311a565b6020026020010181905250818061250690613130565b9250506124bb565b888183815181106125215761252161311a565b60209081029190910101516001600160a01b039091169052835184908490811061254d5761254d61311a565b60200260200101518183815181106125675761256761311a565b6020026020010151602001906001600160a01b031690816001600160a01b03168152505060006125be8585815181106125a2576125a261311a565b60200260200101518a60018b6125b891906132e1565b85611f7e565b8051909150156126e4576000865182516125d89190613149565b6001600160401b038111156125ef576125ef612b9c565b60405190808252806020026020018201604052801561262257816020015b606081526020019060019003908161260d5790505b509050600093505b865184101561267d578684815181106126455761264561311a565b602002602001015181858151811061265f5761265f61311a565b6020026020010181905250838061267590613130565b94505061262a565b600093505b81518410156126e15781848151811061269d5761269d61311a565b6020026020010151818589516126b39190613149565b815181106126c3576126c361311a565b602002602001018190525083806126d990613130565b945050612682565b95505b5050505b806126f281613130565b915050612031565b5050949350505050565b60008282604051602001612719929190613086565b60408051601f19818403018152828252805160209182012060008181526001808452848220610100870190955284546001600160a01b0390811660c08801908152918601541660e08701528552600284015491955093929183019060ff16600581111561278857612788613070565b600581111561279957612799613070565b8152600291909101546001600160401b03610100820481166020840152600160481b820481166040840152600160881b82041660608301526001600160e01b0319600160c81b90910460e01b16608090910152905060008160200151600581111561280657612806613070565b036128115750505050565b60058160200151600581111561282957612829613070565b036128385761283884846129be565b8051516001600160a01b03908116600090815260026020908152604091829020845190910151915163edefe12d60e01b815260048101919091529116602482015273__Array_________________________________9063edefe12d90604401602060405180830381865af41580156128b5573d6000803e3d6000fd5b505050506040513d601f19601f820116820180604052508101906128d9919061304e565b5080516020908101516001600160a01b0390811660009081526002909252604091829020835151925163edefe12d60e01b815260048101919091529116602482015273__Array_________________________________9063edefe12d90604401602060405180830381865af4158015612957573d6000803e3d6000fd5b505050506040513d601f19601f8201168201806040525081019061297b919061304e565b5050600090815260016020819052604090912080546001600160a01b03199081168255918101805490921690915560020180546001600160e81b03191690555050565b600082826040516020016129d3929190613086565b60408051601f19818403018152918152815160209283012060009081526003909252902080546001600160a01b0319169055505050565b6040805161010081018252600060c0820181815260e08301829052825260208201819052918101829052606081018290526080810182905260a081019190915290565b60008085851115612a5d57600080fd5b83861115612a6a57600080fd5b5050820193919092039150565b80356001600160e01b031981168114612a8f57600080fd5b919050565b600060208284031215612aa657600080fd5b61137982612a77565b80356001600160a01b0381168114612a8f57600080fd5b600080600080600060a08688031215612ade57600080fd5b612ae786612aaf565b9450612af560208701612aaf565b94979496505050506040830135926060810135926080909101359150565b60008060408385031215612b2657600080fd5b612b2f83612aaf565b9150612b3d60208401612aaf565b90509250929050565b600060208284031215612b5857600080fd5b5035919050565b600060208284031215612b7157600080fd5b61137982612aaf565b60008060408385031215612b8d57600080fd5b50508035926020909101359150565b634e487b7160e01b600052604160045260246000fd5b60405160c081016001600160401b0381118282101715612bd457612bd4612b9c565b60405290565b604051601f8201601f191681016001600160401b0381118282101715612c0257612c02612b9c565b604052919050565b60006001600160401b03821115612c2357612c23612b9c565b5060051b60200190565b600060408284031215612c3f57600080fd5b604051604081018181106001600160401b0382111715612c6157612c61612b9c565b604052905080612c7083612aaf565b8152612c7e60208401612aaf565b60208201525092915050565b80356001600160401b0381168114612a8f57600080fd5b60006020808385031215612cb457600080fd5b82356001600160401b03811115612cca57600080fd5b8301601f81018513612cdb57600080fd5b8035612cee612ce982612c0a565b612bda565b81815260e09182028301840191848201919088841115612d0d57600080fd5b938501935b83851015612dab5780858a031215612d2a5760008081fd5b612d32612bb2565b612d3c8a87612c2d565b815260408087013560068110612d525760008081fd5b828901526060612d63888201612c8a565b8284015260809150612d76828901612c8a565b9083015260a0612d87888201612c8a565b82840152612d9760c08901612a77565b908301525083529384019391850191612d12565b50979650505050505050565b600060208284031215612dc957600080fd5b813565ffffffffffff8116811461137957600080fd5b60006020808301818452808551808352604092508286019150828160051b8701018488016000805b84811015612e7057898403603f19018652825180518086529089019089860190845b81811015612e5b57835180516001600160a01b039081168552908d0151168c840152928b0192918a0191600101612e29565b50509689019694505091870191600101612e07565b50919998505050505050505050565b60006020808385031215612e9257600080fd5b82356001600160401b0380821115612ea957600080fd5b818501915085601f830112612ebd57600080fd5b8135612ecb612ce982612c0a565b81815260059190911b83018401908481019088831115612eea57600080fd5b8585015b83811015612f8157803585811115612f065760008081fd5b8601603f81018b13612f185760008081fd5b878101356040612f2a612ce983612c0a565b82815260069290921b83018101918a8101908e841115612f4a5760008081fd5b938201935b83851015612f7057612f618f86612c2d565b825293820193908b0190612f4f565b875250505092870192508601612eee565b5098975050505050505050565b600080600060608486031215612fa357600080fd5b612fac84612aaf565b9250612fba60208501612aaf565b9150604084013590509250925092565b600060208284031215612fdc57600080fd5b61137982612c8a565b600080600060608486031215612ffa57600080fd5b61300384612aaf565b925061301160208501612aaf565b915061301f60408501612aaf565b90509250925092565b60006020828403121561303a57600080fd5b813563ffffffff8116811461137957600080fd5b60006020828403121561306057600080fd5b8151801515811461137957600080fd5b634e487b7160e01b600052602160045260246000fd5b6bffffffffffffffffffffffff19606093841b811682529190921b16601482015260280190565b634e487b7160e01b600052601160045260246000fd5b6000826130e057634e487b7160e01b600052601260045260246000fd5b500490565b60008160001904831182151516156130ff576130ff6130ad565b500290565b634e487b7160e01b600052600160045260246000fd5b634e487b7160e01b600052603260045260246000fd5b600060018201613142576131426130ad565b5060010190565b6000821982111561315c5761315c6130ad565b500190565b805169ffffffffffffffffffff81168114612a8f57600080fd5b600080600080600060a0868803121561319357600080fd5b61319c86613161565b94506020860151935060408601519250606086015191506131bf60808701613161565b90509295509295909350565b6000602082840312156131dd57600080fd5b815160ff8116811461137957600080fd5b600181815b8085111561322957816000190482111561320f5761320f6130ad565b8085161561321c57918102915b93841c93908002906131f3565b509250929050565b6000826132405750600161072a565b8161324d5750600061072a565b8160018114613263576002811461326d57613289565b600191505061072a565b60ff84111561327e5761327e6130ad565b50506001821b61072a565b5060208310610133831016604e8410600b84101617156132ac575081810a61072a565b6132b683836131ee565b80600019048211156132ca576132ca6130ad565b029392505050565b600061137960ff841683613231565b6000828210156132f3576132f36130ad565b50039056fea2646970667358221220c268adec4994263373b4010033b639d1b0e4cf82fafcbcb6d3a17b365908702064736f6c634300080d0033",
  "bytecodeSha1": "0ee44e5f39496cf0451295d9ebfe74bc21a475a6",
  "compiler": {
    "evm_version": "istanbul",
    "optimizer": {
      "enabled": true,
      "runs": 200
    },
    "version": "0.8.13+commit.abaa5c0e"
  },
  "contractName": "Quotator",
  "deployedBytecode": "608060405234801561001057600080fd5b50600436106101cf5760003560e01c80637bb759ad11610104578063af640d0f116100a2578063d693585811610071578063d6935858146104bd578063e4b16144146104c5578063f2fde38b146104d8578063feab4454146104eb576101cf565b8063af640d0f1461044a578063b03fd40d14610470578063bd28703114610483578063ccc0795914610496576101cf565b80638da5cb5b116100de5780638da5cb5b146103e957806394f46f6f1461041457806396e4ee3d14610427578063979620761461043a576101cf565b80637bb759ad146103ae57806383e8531a146103ce578063854ba99d146103e1576101cf565b80636464b68a116101715780636968abd31161014b5780636968abd31461036a578063715018a61461037d57806372ea61bf146103855780637af6649a1461038d576101cf565b80636464b68a1461033d57806365a6b3631461035757806365e60ef21461033d576101cf565b80631e8d8223116101ad5780631e8d8223146102945780632203616d146102c25780632f54bf6e146102ea5780636296514114610312576101cf565b806301ffc9a71461025157806305d6bd9c146102795780630df7408414610281575b6101d7610515565b60006101e7602460043684612a4d565b8080601f016020809104026020016040519081016040528093929190818152602001838380828437600092018290525060208501519495509250503660231981019150601f19016004838037816024600437600080826000875af49250505061024f816106df565b005b61026461025f366004612a94565b6106f9565b60405190151581526020015b60405180910390f35b61024f610730565b61024f61028f366004612ac6565b610747565b6102a76102a2366004612b13565b6107ce565b60408051938452602084019290925290820152606001610270565b6102d56102d0366004612b46565b610b53565b60405163ffffffff9091168152602001610270565b6102646102f8366004612b5f565b6000546201000090046001600160a01b0390811691161490565b610325610320366004612b46565b610b64565b6040516001600160401b039091168152602001610270565b6102a761034b366004612b7a565b60008060009250925092565b61024f610365366004612ca1565b610b96565b6102a7610378366004612b13565b610c7d565b61024f6112de565b61024f6112f0565b6103a061039b366004612db7565b61130a565b604051908152602001610270565b6103c16103bc366004612b13565b611323565b6040516102709190612ddf565b6102a76103dc366004612e7f565b611380565b610264611539565b6000546201000090046001600160a01b03165b6040516001600160a01b039091168152602001610270565b61024f610422366004612f8e565b611557565b6103a0610435366004612b7a565b6115bc565b600054610100900460ff16610264565b7f3cb99135f7a7c088d9085b446345038a22a85f4e8fe072b0e1b66d97243e74586103a0565b6103a061047e366004612fca565b6115db565b61024f610491366004612fe5565b6115f5565b6103fc7f000000000000000000000000000000000000000000000000000000000000000081565b61024f6116e7565b6103a06104d3366004613028565b611703565b61024f6104e6366004612b5f565b61171a565b6104fe6104f9366004612b46565b611793565b60405165ffffffffffff9091168152602001610270565b6000546001600160a01b0362010000909104163314806105c857506001600160a01b037f0000000000000000000000000000000000000000000000000000000000000000166316279055336040516001600160e01b031960e084901b1681526001600160a01b039091166004820152602401602060405180830381865afa1580156105a4573d6000803e3d6000fd5b505050506040513d601f19601f820116820180604052508101906105c8919061304e565b8061066657506001600160a01b037f000000000000000000000000000000000000000000000000000000000000000016636d70f7ae336040516001600160e01b031960e084901b1681526001600160a01b039091166004820152602401602060405180830381865afa158015610642573d6000803e3d6000fd5b505050506040513d601f19601f82011682018060405250810190610666919061304e565b6106dd5760405162461bcd60e51b815260206004820152603960248201527f416c6c6f77616e63653a2063616c6c6572206d757374206265205265706f736960448201527f746f727920436f6e7472616374206f72204f70657261746f720000000000000060648201526084015b60405180910390fd5b565b3d6000803e8080156106f0573d6000f35b3d6000fd5b5050565b60006001600160e01b031982166301ffc9a760e01b148061072a57506001600160e01b031982166315d3789560e31b145b92915050565b610738610515565b6106dd6000805460ff19169055565b61074f610515565b610757612a0a565b80516001600160a01b03878116909152815190861660209182015260029082015261078184610b64565b6001600160401b0316604082015261079883610b64565b6001600160401b031660608201526107af82610b64565b6001600160401b031660808201526107c6816117a4565b505050505050565b60008060008085856040516020016107e7929190613086565b60408051601f19818403018152828252805160209182012060008181526001808452848220610100870190955284546001600160a01b0390811660c08801908152918601541660e087015285526002840154919550938493849384939083019060ff16600581111561085b5761085b613070565b600581111561086c5761086c613070565b8152600291909101546001600160401b03610100820481166020840152600160481b820481166040840152600160881b82041660608301526001600160e01b0319600160c81b90910460e01b1660809091015290506005816020015160058111156108d9576108d9613070565b036108f3576108e781611c39565b91955093509150610947565b60018160200151600581111561090b5761090b613070565b03610919576108e781611def565b60028160200151600581111561093157610931613070565b036109475761093f81611def565b919550935091505b821561095c575091955093509150610b4c9050565b888a60405160200161096f929190613086565b60408051601f1981840301815282825280516020918201206000818152600180845290849020610100860190945283546001600160a01b0390811660c08701908152918501541660e0860152845260028301549098509083019060ff1660058111156109dd576109dd613070565b60058111156109ee576109ee613070565b8152600291909101546001600160401b03610100820481166020840152600160481b820481166040840152600160881b82041660608301526001600160e01b0319600160c81b90910460e01b16608090910152600094508493508392509050600581602001516005811115610a6557610a65613070565b03610a7f57610a7381611c39565b91955093509150610ad3565b600181602001516005811115610a9757610a97613070565b03610aa557610a7381611def565b600281602001516005811115610abd57610abd613070565b03610ad357610acb81611def565b919550935091505b82600003610af05760008060009750975097505050505050610b4c565b610b09846ec097ce7bc90715b34b9f10000000006130c3565b9350610b24836ec097ce7bc90715b34b9f10000000006130c3565b9250610b3f826ec097ce7bc90715b34b9f10000000006130c3565b9397509195509193505050505b9250925092565b600061072a64e8d4a51000836130c3565b600080610b766402540be400846130c3565b905082610b88826402540be4006130e5565b111561072a5761072a613104565b610b9e610515565b60005b81518110156106f557610c6b828281518110610bbf57610bbf61311a565b60200260200101516000015160000151838381518110610be157610be161311a565b60200260200101516000015160200151848481518110610c0357610c0361311a565b6020026020010151604001516001600160401b0316858581518110610c2a57610c2a61311a565b6020026020010151606001516001600160401b0316868681518110610c5157610c5161311a565b6020026020010151608001516001600160401b0316610747565b80610c7581613130565b915050610ba1565b6000806000808585604051602001610c96929190613086565b60408051601f1981840301815291815281516020928301206000818152600190935291206002810154919250906001600160e01b0319438116600160c81b90920460e01b1603610d8857604080516001600160a01b03808a168252881660208201527f85fe05c69e32ec3aed403e05e055faa5b8f0dec24c0f5ef97a497b8f4b8228b5910160405180910390a16002810154610d3f9061010090046001600160401b03166115db565b6002820154610d5d90600160481b90046001600160401b03166115db565b6002830154610d7b90600160881b90046001600160401b03166115db565b9450945094505050610b4c565b600080806005600285015460ff166005811115610da757610da7613070565b03610e755760408051610100810190915284546001600160a01b0390811660c08301908152600187015490911660e083015281526002850154610e6991908690602083019060ff166005811115610e0057610e00613070565b6005811115610e1157610e11613070565b8152600291909101546001600160401b03610100820481166020840152600160481b820481166040840152600160881b82041660608301526001600160e01b0319600160c81b90910460e01b16608090910152611e28565b91945092509050610fcd565b6001600285015460ff166005811115610e9057610e90613070565b03610f525760408051610100810190915284546001600160a01b0390811660c08301908152600187015490911660e083015281526002850154610e6991908690602083019060ff166005811115610ee957610ee9613070565b6005811115610efa57610efa613070565b8152600291909101546001600160401b03610100820481166020840152600160481b820481166040840152600160881b82041660608301526001600160e01b0319600160c81b90910460e01b16608090910152611def565b60028085015460ff166005811115610f6c57610f6c613070565b03610fcd5760408051610100810190915284546001600160a01b0390811660c08301908152600187015490911660e083015281526002850154610fc591908690602083019060ff166005811115610ee957610ee9613070565b919450925090505b811561102557604080516001600160a01b03808d1682528b1660208201527f85fe05c69e32ec3aed403e05e055faa5b8f0dec24c0f5ef97a497b8f4b8228b5910160405180910390a191965094509250610b4c915050565b888a604051602001611038929190613086565b60408051601f19818403018152918152815160209283012060008181526001909352908220909650945092508291508190506005600285015460ff16600581111561108557611085613070565b036110ea5760408051610100810190915284546001600160a01b0390811660c08301908152600187015490911660e0830152815260028501546110de91908690602083019060ff166005811115610e0057610e00613070565b919450925090506111d9565b6001600285015460ff16600581111561110557611105613070565b0361115e5760408051610100810190915284546001600160a01b0390811660c08301908152600187015490911660e0830152815260028501546110de91908690602083019060ff166005811115610ee957610ee9613070565b60028085015460ff16600581111561117857611178613070565b036111d95760408051610100810190915284546001600160a01b0390811660c08301908152600187015490911660e0830152815260028501546111d191908690602083019060ff166005811115610ee957610ee9613070565b919450925090505b8160000361123957604080516001600160a01b03808d1682528b1660208201527f40431c410cc5180bf05a4efdfb1880b6095849d44d09b81b10b0aefbb6849edd910160405180910390a160008060009750975097505050505050610b4c565b611252836ec097ce7bc90715b34b9f10000000006130c3565b925061126d826ec097ce7bc90715b34b9f10000000006130c3565b9150611288816ec097ce7bc90715b34b9f10000000006130c3565b604080516001600160a01b03808e1682528c1660208201529192507f85fe05c69e32ec3aed403e05e055faa5b8f0dec24c0f5ef97a497b8f4b8228b5910160405180910390a19196509450925050509250925092565b6112e6611ec2565b6106dd6000611f23565b6112f8610515565b6106dd6000805460ff19166001179055565b600061072a65ffffffffffff831664174876e8006130e5565b606061137983836014600060405190808252806020026020018201604052801561137357816020015b604080518082019091526000808252602082015281526020019060019003908161134c5790505b50611f7e565b9392505050565b6000808080808080805b885181101561151b57670de0b6b3a7640000808060005b8c85815181106113b3576113b361311a565b6020026020010151518110156114b05760008d86815181106113d7576113d761311a565b602002602001015182815181106113f0576113f061311a565b602002602001015190506000806000611411846000015185602001516107ce565b9250925092508160000361143c5760008060009f509f509f5050505050505050505050505050611532565b670de0b6b3a764000061144f89856130e5565b61145991906130c3565b9750670de0b6b3a764000061146e88846130e5565b61147891906130c3565b9650670de0b6b3a764000061148d87836130e5565b61149791906130c3565b95505050505080806114a890613130565b9150506113a1565b508715806114bd57508288115b156114c6578297505b8415806114d257508085105b156114db578094505b856000036114eb578196506114f8565b6114f58288613149565b96505b8561150281613130565b965050505050808061151390613130565b91505061138a565b5061152682846130c3565b93965092945091925050505b9193909250565b6000805460ff16806115525750600054610100900460ff165b905090565b61155f610515565b611567612a0a565b80516001600160a01b03858116909152815190841660209182015260019082015261159182610b64565b6001600160401b0316608082018190526060820181905260408201526115b6816117a4565b50505050565b6000670de0b6b3a76400006115d183856130e5565b61137991906130c3565b600061072a6001600160401b0383166402540be4006130e5565b6115fd610515565b60008383604051602001611612929190613086565b60408051808303601f19018152918152815160209283012060008181526003909352912080546001600160a01b0319166001600160a01b03851617905590508161165a612a0a565b80516001600160a01b0387811690915281519086166020918201526005908201526000808061168884611c39565b92509250925061169783610b64565b6001600160401b031660408501526116ae82610b64565b6001600160401b031660608501526116c581610b64565b6001600160401b031660808501526116dc846117a4565b505050505050505050565b6116ef611ec2565b6106dd6000805461ff001916610100179055565b600061072a63ffffffff831664e8d4a510006130e5565b611722611ec2565b6001600160a01b0381166117875760405162461bcd60e51b815260206004820152602660248201527f4f776e61626c653a206e6577206f776e657220697320746865207a65726f206160448201526564647265737360d01b60648201526084016106d4565b61179081611f23565b50565b600061072a64174876e800836130c3565b805180516020918201516040516000936117c093929101613086565b60408051601f19818403018152828252805160209182012060008181526001808452848220610100870190955284546001600160a01b0390811660c08801908152918601541660e08701528552600284015491955093929183019060ff16600581111561182f5761182f613070565b600581111561184057611840613070565b81526002919091015461010081046001600160401b03908116602080850191909152600160481b830482166040850152600160881b83049091166060840152600160c81b90910460e01b6001600160e01b03191660809092019190915284015190915060058111156118b4576118b4613070565b816020015160058111156118ca576118ca613070565b14611a7c57825180516020909101516118e39190612704565b82515181516001600160a01b039182169052835160209081015183519216918101919091528084015190820190600581111561192157611921613070565b9081600581111561193457611934613070565b9052508251516001600160a01b0390811660009081526002602090815260409182902086519091015191516316f4b92960e21b815260048101919091529116602482015273__$f71e59c5327218924d154e230469c101bd$__90635bd2e4a490604401602060405180830381865af41580156119b4573d6000803e3d6000fd5b505050506040513d601f19601f820116820180604052508101906119d8919061304e565b5082516020908101516001600160a01b039081166000908152600290925260409182902085515192516316f4b92960e21b815260048101919091529116602482015273__$f71e59c5327218924d154e230469c101bd$__90635bd2e4a490604401602060405180830381865af4158015611a56573d6000803e3d6000fd5b505050506040513d601f19601f82011682018060405250810190611a7a919061304e565b505b6001600160e01b0319431660a0820152604080840151908201516001600160401b039081169116148015611ac9575082606001516001600160401b031681606001516001600160401b0316145b8015611aee575082608001516001600160401b031681608001516001600160401b0316145b15611af857505050565b6040838101516001600160401b039081168383015260608086015182169084015260808086015190911690830152600083815260016020818152929091208351805182546001600160a01b03199081166001600160a01b0392831617845591850151838501805490931691161790559183015160028301805485949360ff1990911690836005811115611b8d57611b8d613070565b02179055506040820151600290910180546060840151608085015160a09095015160e01c600160c81b0263ffffffff60c81b196001600160401b03968716600160881b02166bffffffffffffffffffffffff60881b19928716600160481b0270ffffffffffffffff0000000000000000001997909616610100029690961670ffffffffffffffffffffffffffffffff001990931692909217939093179290921692909217179055505050565b80518051602091820151604051600093849384938493611c599301613086565b60408051601f1981840301815282825280516020918201206000818152600390925282822054633fabe5a360e21b8552925190945090926001600160a01b039092169163feaf968c9160048083019260a09291908290030181865afa158015611cc6573d6000803e3d6000fd5b505050506040513d601f19601f82011682018060405250810190611cea919061317b565b50505091505060008113611d405760405162461bcd60e51b815260206004820181905260248201527f436861696e6c696e6b2071756f7465206d75737420626520706f73697469766560448201526064016106d4565b60008281526003602090815260409182902054825163313ce56760e01b8152925184936001600160a01b039092169263313ce56792600480820193918290030181865afa158015611d95573d6000803e3d6000fd5b505050506040513d601f19601f82011682018060405250810190611db991906131cb565b611dc490600a6132d2565b611dd690670de0b6b3a76400006130c3565b611de090826130e5565b97889750879650945050505050565b6000806000611e0184604001516115db565b611e0e85606001516115db565b611e1b86608001516115db565b9250925092509193909250565b60008060004360001b6001600160e01b0319168460a001516001600160e01b03191614611eb5576000806000611e5d87611c39565b925092509250611e6c83610b64565b6001600160401b03166040880152611e8382610b64565b6001600160401b03166060880152611e9a81610b64565b6001600160401b03166080880152611eb1876117a4565b5050505b611e0184604001516115db565b6000546001600160a01b03620100009091041633146106dd5760405162461bcd60e51b815260206004820152601f60248201527f416c6c6f77616e63653a2063616c6c6572206d757374206265204f776e65720060448201526064016106d4565b600080546001600160a01b038381166201000081810262010000600160b01b0319851617855560405193049190911692909183917f8be0079c531659141344cd1fd0a4f28419497f9722a3daafe3b4186f6b6457e091a35050565b6001600160a01b0384166000908152600260209081526040808320805482518185028101850190935280835260609493830182828015611fe757602002820191906000526020600020905b81546001600160a01b03168152600190910190602001808311611fc9575b5093945060009350611ff892505050565b60405190808252806020026020018201604052801561202b57816020015b60608152602001906001900390816120165790505b50915060005b81518110156126fa5760005b845181101561216c57876001600160a01b03168582815181106120625761206261311a565b6020026020010151600001516001600160a01b03161480156120cb57508282815181106120915761209161311a565b60200260200101516001600160a01b03168582815181106120b4576120b461311a565b6020026020010151602001516001600160a01b0316145b806121565750876001600160a01b03168582815181106120ed576120ed61311a565b6020026020010151602001516001600160a01b0316148015612156575082828151811061211c5761211c61311a565b60200260200101516001600160a01b031685828151811061213f5761213f61311a565b6020026020010151600001516001600160a01b0316145b61216c578061216481613130565b91505061203d565b845181101561217b57506126e8565b866001600160a01b03168383815181106121975761219761311a565b60200260200101516001600160a01b031603612439576000600160008a8a6040516020016121c6929190613086565b60408051601f1981840301815291815281516020928301208352908201929092520160002090506003600282015460ff16600581111561220857612208613070565b1415801561222f57506004600282015460ff16600581111561222c5761222c613070565b14155b15612437576000865160016122449190613149565b6001600160401b0381111561225b5761225b612b9c565b6040519080825280602002602001820160405280156122a057816020015b60408051808201909152600080825260208201528152602001906001900390816122795790505b509050600092505b86518310156122fb578683815181106122c3576122c361311a565b60200260200101518184815181106122dd576122dd61311a565b602002602001018190525082806122f390613130565b9350506122a8565b8981848151811061230e5761230e61311a565b6020026020010151600001906001600160a01b031690816001600160a01b031681525050888184815181106123455761234561311a565b6020908102919091018101516001600160a01b03909216910152855160009061236f906001613149565b6001600160401b0381111561238657612386612b9c565b6040519080825280602002602001820160405280156123b957816020015b60608152602001906001900390816123a45790505b509050600093505b8651841015612414578684815181106123dc576123dc61311a565b60200260200101518185815181106123f6576123f661311a565b6020026020010181905250838061240c90613130565b9450506123c1565b81818851815181106124285761242861311a565b60209081029190910101529550505b505b8560000361244757506126fa565b6000855160016124579190613149565b6001600160401b0381111561246e5761246e612b9c565b6040519080825280602002602001820160405280156124b357816020015b604080518082019091526000808252602082015281526020019060019003908161248c5790505b509050600091505b855182101561250e578582815181106124d6576124d661311a565b60200260200101518183815181106124f0576124f061311a565b6020026020010181905250818061250690613130565b9250506124bb565b888183815181106125215761252161311a565b60209081029190910101516001600160a01b039091169052835184908490811061254d5761254d61311a565b60200260200101518183815181106125675761256761311a565b6020026020010151602001906001600160a01b031690816001600160a01b03168152505060006125be8585815181106125a2576125a261311a565b60200260200101518a60018b6125b891906132e1565b85611f7e565b8051909150156126e4576000865182516125d89190613149565b6001600160401b038111156125ef576125ef612b9c565b60405190808252806020026020018201604052801561262257816020015b606081526020019060019003908161260d5790505b509050600093505b865184101561267d578684815181106126455761264561311a565b602002602001015181858151811061265f5761265f61311a565b6020026020010181905250838061267590613130565b94505061262a565b600093505b81518410156126e15781848151811061269d5761269d61311a565b6020026020010151818589516126b39190613149565b815181106126c3576126c361311a565b602002602001018190525083806126d990613130565b945050612682565b95505b5050505b806126f281613130565b915050612031565b5050949350505050565b60008282604051602001612719929190613086565b60408051601f19818403018152828252805160209182012060008181526001808452848220610100870190955284546001600160a01b0390811660c08801908152918601541660e08701528552600284015491955093929183019060ff16600581111561278857612788613070565b600581111561279957612799613070565b8152600291909101546001600160401b03610100820481166020840152600160481b820481166040840152600160881b82041660608301526001600160e01b0319600160c81b90910460e01b16608090910152905060008160200151600581111561280657612806613070565b036128115750505050565b60058160200151600581111561282957612829613070565b036128385761283884846129be565b8051516001600160a01b03908116600090815260026020908152604091829020845190910151915163edefe12d60e01b815260048101919091529116602482015273__$f71e59c5327218924d154e230469c101bd$__9063edefe12d90604401602060405180830381865af41580156128b5573d6000803e3d6000fd5b505050506040513d601f19601f820116820180604052508101906128d9919061304e565b5080516020908101516001600160a01b0390811660009081526002909252604091829020835151925163edefe12d60e01b815260048101919091529116602482015273__$f71e59c5327218924d154e230469c101bd$__9063edefe12d90604401602060405180830381865af4158015612957573d6000803e3d6000fd5b505050506040513d601f19601f8201168201806040525081019061297b919061304e565b5050600090815260016020819052604090912080546001600160a01b03199081168255918101805490921690915560020180546001600160e81b03191690555050565b600082826040516020016129d3929190613086565b60408051601f19818403018152918152815160209283012060009081526003909252902080546001600160a01b0319169055505050565b6040805161010081018252600060c0820181815260e08301829052825260208201819052918101829052606081018290526080810182905260a081019190915290565b60008085851115612a5d57600080fd5b83861115612a6a57600080fd5b5050820193919092039150565b80356001600160e01b031981168114612a8f57600080fd5b919050565b600060208284031215612aa657600080fd5b61137982612a77565b80356001600160a01b0381168114612a8f57600080fd5b600080600080600060a08688031215612ade57600080fd5b612ae786612aaf565b9450612af560208701612aaf565b94979496505050506040830135926060810135926080909101359150565b60008060408385031215612b2657600080fd5b612b2f83612aaf565b9150612b3d60208401612aaf565b90509250929050565b600060208284031215612b5857600080fd5b5035919050565b600060208284031215612b7157600080fd5b61137982612aaf565b60008060408385031215612b8d57600080fd5b50508035926020909101359150565b634e487b7160e01b600052604160045260246000fd5b60405160c081016001600160401b0381118282101715612bd457612bd4612b9c565b60405290565b604051601f8201601f191681016001600160401b0381118282101715612c0257612c02612b9c565b604052919050565b60006001600160401b03821115612c2357612c23612b9c565b5060051b60200190565b600060408284031215612c3f57600080fd5b604051604081018181106001600160401b0382111715612c6157612c61612b9c565b604052905080612c7083612aaf565b8152612c7e60208401612aaf565b60208201525092915050565b80356001600160401b0381168114612a8f57600080fd5b60006020808385031215612cb457600080fd5b82356001600160401b03811115612cca57600080fd5b8301601f81018513612cdb57600080fd5b8035612cee612ce982612c0a565b612bda565b81815260e09182028301840191848201919088841115612d0d57600080fd5b938501935b83851015612dab5780858a031215612d2a5760008081fd5b612d32612bb2565b612d3c8a87612c2d565b815260408087013560068110612d525760008081fd5b828901526060612d63888201612c8a565b8284015260809150612d76828901612c8a565b9083015260a0612d87888201612c8a565b82840152612d9760c08901612a77565b908301525083529384019391850191612d12565b50979650505050505050565b600060208284031215612dc957600080fd5b813565ffffffffffff8116811461137957600080fd5b60006020808301818452808551808352604092508286019150828160051b8701018488016000805b84811015612e7057898403603f19018652825180518086529089019089860190845b81811015612e5b57835180516001600160a01b039081168552908d0151168c840152928b0192918a0191600101612e29565b50509689019694505091870191600101612e07565b50919998505050505050505050565b60006020808385031215612e9257600080fd5b82356001600160401b0380821115612ea957600080fd5b818501915085601f830112612ebd57600080fd5b8135612ecb612ce982612c0a565b81815260059190911b83018401908481019088831115612eea57600080fd5b8585015b83811015612f8157803585811115612f065760008081fd5b8601603f81018b13612f185760008081fd5b878101356040612f2a612ce983612c0a565b82815260069290921b83018101918a8101908e841115612f4a5760008081fd5b938201935b83851015612f7057612f618f86612c2d565b825293820193908b0190612f4f565b875250505092870192508601612eee565b5098975050505050505050565b600080600060608486031215612fa357600080fd5b612fac84612aaf565b9250612fba60208501612aaf565b9150604084013590509250925092565b600060208284031215612fdc57600080fd5b61137982612c8a565b600080600060608486031215612ffa57600080fd5b61300384612aaf565b925061301160208501612aaf565b915061301f60408501612aaf565b90509250925092565b60006020828403121561303a57600080fd5b813563ffffffff8116811461137957600080fd5b60006020828403121561306057600080fd5b8151801515811461137957600080fd5b634e487b7160e01b600052602160045260246000fd5b6bffffffffffffffffffffffff19606093841b811682529190921b16601482015260280190565b634e487b7160e01b600052601160045260246000fd5b6000826130e057634e487b7160e01b600052601260045260246000fd5b500490565b60008160001904831182151516156130ff576130ff6130ad565b500290565b634e487b7160e01b600052600160045260246000fd5b634e487b7160e01b600052603260045260246000fd5b600060018201613142576131426130ad565b5060010190565b6000821982111561315c5761315c6130ad565b500190565b805169ffffffffffffffffffff81168114612a8f57600080fd5b600080600080600060a0868803121561319357600080fd5b61319c86613161565b94506020860151935060408601519250606086015191506131bf60808701613161565b90509295509295909350565b6000602082840312156131dd57600080fd5b815160ff8116811461137957600080fd5b600181815b8085111561322957816000190482111561320f5761320f6130ad565b8085161561321c57918102915b93841c93908002906131f3565b509250929050565b6000826132405750600161072a565b8161324d5750600061072a565b8160018114613263576002811461326d57613289565b600191505061072a565b60ff84111561327e5761327e6130ad565b50506001821b61072a565b5060208310610133831016604e8410600b84101617156132ac575081810a61072a565b6132b683836131ee565b80600019048211156132ca576132ca6130ad565b029392505050565b600061137960ff841683613231565b6000828210156132f3576132f36130ad565b50039056fea2646970667358221220c268adec4994263373b4010033b639d1b0e4cf82fafcbcb6d3a17b365908702064736f6c634300080d0033",
  "language": "Solidity",
  "natspec": {
    "kind": "dev",
    "methods": {
      "ownerOf()": {
        "details": "Returns the address of the current owner."
      },
      "renounceOwnership()": {
        "details": "Leaves the contract without owner. It will not be possible to call `onlyOwner` functions anymore. Can only be called by the current owner. NOTE: Renouncing ownership will leave the contract without an owner, thereby removing any functionality that is only available to the owner."
      },
      "supportsInterface(bytes4)": {
        "details": "Returns true if this contract implements the interface defined by `interfaceId`. See the corresponding https://eips.ethereum.org/EIPS/eip-165#how-interfaces-are-identified[EIP section] to learn more about how these ids are created. This function call must use less than 30 000 gas."
      },
      "transferOwnership(address)": {
        "details": "Transfers ownership of the contract to a new account (`newOwner`). Can only be called by the current owner."
      }
    },
    "version": 1
  },
  "opcodes": "PUSH1 0x80 PUSH1 0x40 MSTORE CALLVALUE DUP1 ISZERO PUSH2 0x10 JUMPI PUSH1 0x0 DUP1 REVERT JUMPDEST POP PUSH1 0x4 CALLDATASIZE LT PUSH2 0x1CF JUMPI PUSH1 0x0 CALLDATALOAD PUSH1 0xE0 SHR DUP1 PUSH4 0x7BB759AD GT PUSH2 0x104 JUMPI DUP1 PUSH4 0xAF640D0F GT PUSH2 0xA2 JUMPI DUP1 PUSH4 0xD6935858 GT PUSH2 0x71 JUMPI DUP1 PUSH4 0xD6935858 EQ PUSH2 0x4BD JUMPI DUP1 PUSH4 0xE4B16144 EQ PUSH2 0x4C5 JUMPI DUP1 PUSH4 0xF2FDE38B EQ PUSH2 0x4D8 JUMPI DUP1 PUSH4 0xFEAB4454 EQ PUSH2 0x4EB JUMPI PUSH2 0x1CF JUMP JUMPDEST DUP1 PUSH4 0xAF640D0F EQ PUSH2 0x44A JUMPI DUP1 PUSH4 0xB03FD40D EQ PUSH2 0x470 JUMPI DUP1 PUSH4 0xBD287031 EQ PUSH2 0x483 JUMPI DUP1 PUSH4 0xCCC07959 EQ PUSH2 0x496 JUMPI PUSH2 0x1CF JUMP JUMPDEST DUP1 PUSH4 0x8DA5CB5B GT PUSH2 0xDE JUMPI DUP1 PUSH4 0x8DA5CB5B EQ PUSH2 0x3E9 JUMPI DUP1 PUSH4 0x94F46F6F EQ PUSH2 0x414 JUMPI DUP1 PUSH4 0x96E4EE3D EQ PUSH2 0x427 JUMPI DUP1 PUSH4 0x97962076 EQ PUSH2 0x43A JUMPI PUSH2 0x1CF JUMP JUMPDEST DUP1 PUSH4 0x7BB759AD EQ PUSH2 0x3AE JUMPI DUP1 PUSH4 0x83E8531A EQ PUSH2 0x3CE JUMPI DUP1 PUSH4 0x854BA99D EQ PUSH2 0x3E1 JUMPI PUSH2 0x1CF JUMP JUMPDEST DUP1 PUSH4 0x6464B68A GT PUSH2 0x171 JUMPI DUP1 PUSH4 0x6968ABD3 GT PUSH2 0x14B JUMPI DUP1 PUSH4 0x6968ABD3 EQ PUSH2 0x36A JUMPI DUP1 PUSH4 0x715018A6 EQ PUSH2 0x37D JUMPI DUP1 PUSH4 0x72EA61BF EQ PUSH2 0x385 JUMPI DUP1 PUSH4 0x7AF6649A EQ PUSH2 0x38D JUMPI PUSH2 0x1CF JUMP JUMPDEST DUP1 PUSH4 0x6464B68A EQ PUSH2 0x33D JUMPI DUP1 PUSH4 0x65A6B363 EQ PUSH2 0x357 JUMPI DUP1 PUSH4 0x65E60EF2 EQ PUSH2 0x33D JUMPI PUSH2 0x1CF JUMP JUMPDEST DUP1 PUSH4 0x1E8D8223 GT PUSH2 0x1AD JUMPI DUP1 PUSH4 0x1E8D8223 EQ PUSH2 0x294 JUMPI DUP1 PUSH4 0x2203616D EQ PUSH2 0x2C2 JUMPI DUP1 PUSH4 0x2F54BF6E EQ PUSH2 0x2EA JUMPI DUP1 PUSH4 0x62965141 EQ PUSH2 0x312 JUMPI PUSH2 0x1CF JUMP JUMPDEST DUP1 PUSH4 0x1FFC9A7 EQ PUSH2 0x251 JUMPI DUP1 PUSH4 0x5D6BD9C EQ PUSH2 0x279 JUMPI DUP1 PUSH4 0xDF74084 EQ PUSH2 0x281 JUMPI JUMPDEST PUSH2 0x1D7 PUSH2 0x515 JUMP JUMPDEST PUSH1 0x0 PUSH2 0x1E7 PUSH1 0x24 PUSH1 0x4 CALLDATASIZE DUP5 PUSH2 0x2A4D JUMP JUMPDEST DUP1 DUP1 PUSH1 0x1F ADD PUSH1 0x20 DUP1 SWAP2 DIV MUL PUSH1 0x20 ADD PUSH1 0x40 MLOAD SWAP1 DUP2 ADD PUSH1 0x40 MSTORE DUP1 SWAP4 SWAP3 SWAP2 SWAP1 DUP2 DUP2 MSTORE PUSH1 0x20 ADD DUP4 DUP4 DUP1 DUP3 DUP5 CALLDATACOPY PUSH1 0x0 SWAP3 ADD DUP3 SWAP1 MSTORE POP PUSH1 0x20 DUP6 ADD MLOAD SWAP5 SWAP6 POP SWAP3 POP POP CALLDATASIZE PUSH1 0x23 NOT DUP2 ADD SWAP2 POP PUSH1 0x1F NOT ADD PUSH1 0x4 DUP4 DUP1 CALLDATACOPY DUP2 PUSH1 0x24 PUSH1 0x4 CALLDATACOPY PUSH1 0x0 DUP1 DUP3 PUSH1 0x0 DUP8 GAS DELEGATECALL SWAP3 POP POP POP PUSH2 0x24F DUP2 PUSH2 0x6DF JUMP JUMPDEST STOP JUMPDEST PUSH2 0x264 PUSH2 0x25F CALLDATASIZE PUSH1 0x4 PUSH2 0x2A94 JUMP JUMPDEST PUSH2 0x6F9 JUMP JUMPDEST PUSH1 0x40 MLOAD SWAP1 ISZERO ISZERO DUP2 MSTORE PUSH1 0x20 ADD JUMPDEST PUSH1 0x40 MLOAD DUP1 SWAP2 SUB SWAP1 RETURN JUMPDEST PUSH2 0x24F PUSH2 0x730 JUMP JUMPDEST PUSH2 0x24F PUSH2 0x28F CALLDATASIZE PUSH1 0x4 PUSH2 0x2AC6 JUMP JUMPDEST PUSH2 0x747 JUMP JUMPDEST PUSH2 0x2A7 PUSH2 0x2A2 CALLDATASIZE PUSH1 0x4 PUSH2 0x2B13 JUMP JUMPDEST PUSH2 0x7CE JUMP JUMPDEST PUSH1 0x40 DUP1 MLOAD SWAP4 DUP5 MSTORE PUSH1 0x20 DUP5 ADD SWAP3 SWAP1 SWAP3 MSTORE SWAP1 DUP3 ADD MSTORE PUSH1 0x60 ADD PUSH2 0x270 JUMP JUMPDEST PUSH2 0x2D5 PUSH2 0x2D0 CALLDATASIZE PUSH1 0x4 PUSH2 0x2B46 JUMP JUMPDEST PUSH2 0xB53 JUMP JUMPDEST PUSH1 0x40 MLOAD PUSH4 0xFFFFFFFF SWAP1 SWAP2 AND DUP2 MSTORE PUSH1 0x20 ADD PUSH2 0x270 JUMP JUMPDEST PUSH2 0x264 PUSH2 0x2F8 CALLDATASIZE PUSH1 0x4 PUSH2 0x2B5F JUMP JUMPDEST PUSH1 0x0 SLOAD PUSH3 0x10000 SWAP1 DIV PUSH1 0x1 PUSH1 0x1 PUSH1 0xA0 SHL SUB SWAP1 DUP2 AND SWAP2 AND EQ SWAP1 JUMP JUMPDEST PUSH2 0x325 PUSH2 0x320 CALLDATASIZE PUSH1 0x4 PUSH2 0x2B46 JUMP JUMPDEST PUSH2 0xB64 JUMP JUMPDEST PUSH1 0x40 MLOAD PUSH1 0x1 PUSH1 0x1 PUSH1 0x40 SHL SUB SWAP1 SWAP2 AND DUP2 MSTORE PUSH1 0x20 ADD PUSH2 0x270 JUMP JUMPDEST PUSH2 0x2A7 PUSH2 0x34B CALLDATASIZE PUSH1 0x4 PUSH2 0x2B7A JUMP JUMPDEST PUSH1 0x0 DUP1 PUSH1 0x0 SWAP3 POP SWAP3 POP SWAP3 JUMP JUMPDEST PUSH2 0x24F PUSH2 0x365 CALLDATASIZE PUSH1 0x4 PUSH2 0x2CA1 JUMP JUMPDEST PUSH2 0xB96 JUMP JUMPDEST PUSH2 0x2A7 PUSH2 0x378 CALLDATASIZE PUSH1 0x4 PUSH2 0x2B13 JUMP JUMPDEST PUSH2 0xC7D JUMP JUMPDEST PUSH2 0x24F PUSH2 0x12DE JUMP JUMPDEST PUSH2 0x24F PUSH2 0x12F0 JUMP JUMPDEST PUSH2 0x3A0 PUSH2 0x39B CALLDATASIZE PUSH1 0x4 PUSH2 0x2DB7 JUMP JUMPDEST PUSH2 0x130A JUMP JUMPDEST PUSH1 0x40 MLOAD SWAP1 DUP2 MSTORE PUSH1 0x20 ADD PUSH2 0x270 JUMP JUMPDEST PUSH2 0x3C1 PUSH2 0x3BC CALLDATASIZE PUSH1 0x4 PUSH2 0x2B13 JUMP JUMPDEST PUSH2 0x1323 JUMP JUMPDEST PUSH1 0x40 MLOAD PUSH2 0x270 SWAP2 SWAP1 PUSH2 0x2DDF JUMP JUMPDEST PUSH2 0x2A7 PUSH2 0x3DC CALLDATASIZE PUSH1 0x4 PUSH2 0x2E7F JUMP JUMPDEST PUSH2 0x1380 JUMP JUMPDEST PUSH2 0x264 PUSH2 0x1539 JUMP JUMPDEST PUSH1 0x0 SLOAD PUSH3 0x10000 SWAP1 DIV PUSH1 0x1 PUSH1 0x1 PUSH1 0xA0 SHL SUB AND JUMPDEST PUSH1 0x40 MLOAD PUSH1 0x1 PUSH1 0x1 PUSH1 0xA0 SHL SUB SWAP1 SWAP2 AND DUP2 MSTORE PUSH1 0x20 ADD PUSH2 0x270 JUMP JUMPDEST PUSH2 0x24F PUSH2 0x422 CALLDATASIZE PUSH1 0x4 PUSH2 0x2F8E JUMP JUMPDEST PUSH2 0x1557 JUMP JUMPDEST PUSH2 0x3A0 PUSH2 0x435 CALLDATASIZE PUSH1 0x4 PUSH2 0x2B7A JUMP JUMPDEST PUSH2 0x15BC JUMP JUMPDEST PUSH1 0x0 SLOAD PUSH2 0x100 SWAP1 DIV PUSH1 0xFF AND PUSH2 0x264 JUMP JUMPDEST PUSH32 0x3CB99135F7A7C088D9085B446345038A22A85F4E8FE072B0E1B66D97243E7458 PUSH2 0x3A0 JUMP JUMPDEST PUSH2 0x3A0 PUSH2 0x47E CALLDATASIZE PUSH1 0x4 PUSH2 0x2FCA JUMP JUMPDEST PUSH2 0x15DB JUMP JUMPDEST PUSH2 0x24F PUSH2 0x491 CALLDATASIZE PUSH1 0x4 PUSH2 0x2FE5 JUMP JUMPDEST PUSH2 0x15F5 JUMP JUMPDEST PUSH2 0x3FC PUSH32 0x0 DUP2 JUMP JUMPDEST PUSH2 0x24F PUSH2 0x16E7 JUMP JUMPDEST PUSH2 0x3A0 PUSH2 0x4D3 CALLDATASIZE PUSH1 0x4 PUSH2 0x3028 JUMP JUMPDEST PUSH2 0x1703 JUMP JUMPDEST PUSH2 0x24F PUSH2 0x4E6 CALLDATASIZE PUSH1 0x4 PUSH2 0x2B5F JUMP JUMPDEST PUSH2 0x171A JUMP JUMPDEST PUSH2 0x4FE PUSH2 0x4F9 CALLDATASIZE PUSH1 0x4 PUSH2 0x2B46 JUMP JUMPDEST PUSH2 0x1793 JUMP JUMPDEST PUSH1 0x40 MLOAD PUSH6 0xFFFFFFFFFFFF SWAP1 SWAP2 AND DUP2 MSTORE PUSH1 0x20 ADD PUSH2 0x270 JUMP JUMPDEST PUSH1 0x0 SLOAD PUSH1 0x1 PUSH1 0x1 PUSH1 0xA0 SHL SUB PUSH3 0x10000 SWAP1 SWAP2 DIV AND CALLER EQ DUP1 PUSH2 0x5C8 JUMPI POP PUSH1 0x1 PUSH1 0x1 PUSH1 0xA0 SHL SUB PUSH32 0x0 AND PUSH4 0x16279055 CALLER PUSH1 0x40 MLOAD PUSH1 0x1 PUSH1 0x1 PUSH1 0xE0 SHL SUB NOT PUSH1 0xE0 DUP5 SWAP1 SHL AND DUP2 MSTORE PUSH1 0x1 PUSH1 0x1 PUSH1 0xA0 SHL SUB SWAP1 SWAP2 AND PUSH1 0x4 DUP3 ADD MSTORE PUSH1 0x24 ADD PUSH1 0x20 PUSH1 0x40 MLOAD DUP1 DUP4 SUB DUP2 DUP7 GAS STATICCALL ISZERO DUP1 ISZERO PUSH2 0x5A4 JUMPI RETURNDATASIZE PUSH1 0x0 DUP1 RETURNDATACOPY RETURNDATASIZE PUSH1 0x0 REVERT JUMPDEST POP POP POP POP PUSH1 0x40 MLOAD RETURNDATASIZE PUSH1 0x1F NOT PUSH1 0x1F DUP3 ADD AND DUP3 ADD DUP1 PUSH1 0x40 MSTORE POP DUP2 ADD SWAP1 PUSH2 0x5C8 SWAP2 SWAP1 PUSH2 0x304E JUMP JUMPDEST DUP1 PUSH2 0x666 JUMPI POP PUSH1 0x1 PUSH1 0x1 PUSH1 0xA0 SHL SUB PUSH32 0x0 AND PUSH4 0x6D70F7AE CALLER PUSH1 0x40 MLOAD PUSH1 0x1 PUSH1 0x1 PUSH1 0xE0 SHL SUB NOT PUSH1 0xE0 DUP5 SWAP1 SHL AND DUP2 MSTORE PUSH1 0x1 PUSH1 0x1 PUSH1 0xA0 SHL SUB SWAP1 SWAP2 AND PUSH1 0x4 DUP3 ADD MSTORE PUSH1 0x24 ADD PUSH1 0x20 PUSH1 0x40 MLOAD DUP1 DUP4 SUB DUP2 DUP7 GAS STATICCALL ISZERO DUP1 ISZERO PUSH2 0x642 JUMPI RETURNDATASIZE PUSH1 0x0 DUP1 RETURNDATACOPY RETURNDATASIZE PUSH1 0x0 REVERT JUMPDEST POP POP POP POP PUSH1 0x40 MLOAD RETURNDATASIZE PUSH1 0x1F NOT PUSH1 0x1F DUP3 ADD AND DUP3 ADD DUP1 PUSH1 0x40 MSTORE POP DUP2 ADD SWAP1 PUSH2 0x666 SWAP2 SWAP1 PUSH2 0x304E JUMP JUMPDEST PUSH2 0x6DD JUMPI PUSH1 0x40 MLOAD PUSH3 0x461BCD PUSH1 0xE5 SHL DUP2 MSTORE PUSH1 0x20 PUSH1 0x4 DUP3 ADD MSTORE PUSH1 0x39 PUSH1 0x24 DUP3 ADD MSTORE PUSH32 0x416C6C6F77616E63653A2063616C6C6572206D757374206265205265706F7369 PUSH1 0x44 DUP3 ADD MSTORE PUSH32 0x746F727920436F6E7472616374206F72204F70657261746F7200000000000000 PUSH1 0x64 DUP3 ADD MSTORE PUSH1 0x84 ADD JUMPDEST PUSH1 0x40 MLOAD DUP1 SWAP2 SUB SWAP1 REVERT JUMPDEST JUMP JUMPDEST RETURNDATASIZE PUSH1 0x0 DUP1 RETURNDATACOPY DUP1 DUP1 ISZERO PUSH2 0x6F0 JUMPI RETURNDATASIZE PUSH1 0x0 RETURN JUMPDEST RETURNDATASIZE PUSH1 0x0 REVERT JUMPDEST POP POP JUMP JUMPDEST PUSH1 0x0 PUSH1 0x1 PUSH1 0x1 PUSH1 0xE0 SHL SUB NOT DUP3 AND PUSH4 0x1FFC9A7 PUSH1 0xE0 SHL EQ DUP1 PUSH2 0x72A JUMPI POP PUSH1 0x1 PUSH1 0x1 PUSH1 0xE0 SHL SUB NOT DUP3 AND PUSH4 0x15D37895 PUSH1 0xE3 SHL EQ JUMPDEST SWAP3 SWAP2 POP POP JUMP JUMPDEST PUSH2 0x738 PUSH2 0x515 JUMP JUMPDEST PUSH2 0x6DD PUSH1 0x0 DUP1 SLOAD PUSH1 0xFF NOT AND SWAP1 SSTORE JUMP JUMPDEST PUSH2 0x74F PUSH2 0x515 JUMP JUMPDEST PUSH2 0x757 PUSH2 0x2A0A JUMP JUMPDEST DUP1 MLOAD PUSH1 0x1 PUSH1 0x1 PUSH1 0xA0 SHL SUB DUP8 DUP2 AND SWAP1 SWAP2 MSTORE DUP2 MLOAD SWAP1 DUP7 AND PUSH1 0x20 SWAP2 DUP3 ADD MSTORE PUSH1 0x2 SWAP1 DUP3 ADD MSTORE PUSH2 0x781 DUP5 PUSH2 0xB64 JUMP JUMPDEST PUSH1 0x1 PUSH1 0x1 PUSH1 0x40 SHL SUB AND PUSH1 0x40 DUP3 ADD MSTORE PUSH2 0x798 DUP4 PUSH2 0xB64 JUMP JUMPDEST PUSH1 0x1 PUSH1 0x1 PUSH1 0x40 SHL SUB AND PUSH1 0x60 DUP3 ADD MSTORE PUSH2 0x7AF DUP3 PUSH2 0xB64 JUMP JUMPDEST PUSH1 0x1 PUSH1 0x1 PUSH1 0x40 SHL SUB AND PUSH1 0x80 DUP3 ADD MSTORE PUSH2 0x7C6 DUP2 PUSH2 0x17A4 JUMP JUMPDEST POP POP POP POP POP POP JUMP JUMPDEST PUSH1 0x0 DUP1 PUSH1 0x0 DUP1 DUP6 DUP6 PUSH1 0x40 MLOAD PUSH1 0x20 ADD PUSH2 0x7E7 SWAP3 SWAP2 SWAP1 PUSH2 0x3086 JUMP JUMPDEST PUSH1 0x40 DUP1 MLOAD PUSH1 0x1F NOT DUP2 DUP5 SUB ADD DUP2 MSTORE DUP3 DUP3 MSTORE DUP1 MLOAD PUSH1 0x20 SWAP2 DUP3 ADD KECCAK256 PUSH1 0x0 DUP2 DUP2 MSTORE PUSH1 0x1 DUP1 DUP5 MSTORE DUP5 DUP3 KECCAK256 PUSH2 0x100 DUP8 ADD SWAP1 SWAP6 MSTORE DUP5 SLOAD PUSH1 0x1 PUSH1 0x1 PUSH1 0xA0 SHL SUB SWAP1 DUP2 AND PUSH1 0xC0 DUP9 ADD SWAP1 DUP2 MSTORE SWAP2 DUP7 ADD SLOAD AND PUSH1 0xE0 DUP8 ADD MSTORE DUP6 MSTORE PUSH1 0x2 DUP5 ADD SLOAD SWAP2 SWAP6 POP SWAP4 DUP5 SWAP4 DUP5 SWAP4 DUP5 SWAP4 SWAP1 DUP4 ADD SWAP1 PUSH1 0xFF AND PUSH1 0x5 DUP2 GT ISZERO PUSH2 0x85B JUMPI PUSH2 0x85B PUSH2 0x3070 JUMP JUMPDEST PUSH1 0x5 DUP2 GT ISZERO PUSH2 0x86C JUMPI PUSH2 0x86C PUSH2 0x3070 JUMP JUMPDEST DUP2 MSTORE PUSH1 0x2 SWAP2 SWAP1 SWAP2 ADD SLOAD PUSH1 0x1 PUSH1 0x1 PUSH1 0x40 SHL SUB PUSH2 0x100 DUP3 DIV DUP2 AND PUSH1 0x20 DUP5 ADD MSTORE PUSH1 0x1 PUSH1 0x48 SHL DUP3 DIV DUP2 AND PUSH1 0x40 DUP5 ADD MSTORE PUSH1 0x1 PUSH1 0x88 SHL DUP3 DIV AND PUSH1 0x60 DUP4 ADD MSTORE PUSH1 0x1 PUSH1 0x1 PUSH1 0xE0 SHL SUB NOT PUSH1 0x1 PUSH1 0xC8 SHL SWAP1 SWAP2 DIV PUSH1 0xE0 SHL AND PUSH1 0x80 SWAP1 SWAP2 ADD MSTORE SWAP1 POP PUSH1 0x5 DUP2 PUSH1 0x20 ADD MLOAD PUSH1 0x5 DUP2 GT ISZERO PUSH2 0x8D9 JUMPI PUSH2 0x8D9 PUSH2 0x3070 JUMP JUMPDEST SUB PUSH2 0x8F3 JUMPI PUSH2 0x8E7 DUP2 PUSH2 0x1C39 JUMP JUMPDEST SWAP2 SWAP6 POP SWAP4 POP SWAP2 POP PUSH2 0x947 JUMP JUMPDEST PUSH1 0x1 DUP2 PUSH1 0x20 ADD MLOAD PUSH1 0x5 DUP2 GT ISZERO PUSH2 0x90B JUMPI PUSH2 0x90B PUSH2 0x3070 JUMP JUMPDEST SUB PUSH2 0x919 JUMPI PUSH2 0x8E7 DUP2 PUSH2 0x1DEF JUMP JUMPDEST PUSH1 0x2 DUP2 PUSH1 0x20 ADD MLOAD PUSH1 0x5 DUP2 GT ISZERO PUSH2 0x931 JUMPI PUSH2 0x931 PUSH2 0x3070 JUMP JUMPDEST SUB PUSH2 0x947 JUMPI PUSH2 0x93F DUP2 PUSH2 0x1DEF JUMP JUMPDEST SWAP2 SWAP6 POP SWAP4 POP SWAP2 POP JUMPDEST DUP3 ISZERO PUSH2 0x95C JUMPI POP SWAP2 SWAP6 POP SWAP4 POP SWAP2 POP PUSH2 0xB4C SWAP1 POP JUMP JUMPDEST DUP9 DUP11 PUSH1 0x40 MLOAD PUSH1 0x20 ADD PUSH2 0x96F SWAP3 SWAP2 SWAP1 PUSH2 0x3086 JUMP JUMPDEST PUSH1 0x40 DUP1 MLOAD PUSH1 0x1F NOT DUP2 DUP5 SUB ADD DUP2 MSTORE DUP3 DUP3 MSTORE DUP1 MLOAD PUSH1 0x20 SWAP2 DUP3 ADD KECCAK256 PUSH1 0x0 DUP2 DUP2 MSTORE PUSH1 0x1 DUP1 DUP5 MSTORE SWAP1 DUP5 SWAP1 KECCAK256 PUSH2 0x100 DUP7 ADD SWAP1 SWAP5 MSTORE DUP4 SLOAD PUSH1 0x1 PUSH1 0x1 PUSH1 0xA0 SHL SUB SWAP1 DUP2 AND PUSH1 0xC0 DUP8 ADD SWAP1 DUP2 MSTORE SWAP2 DUP6 ADD SLOAD AND PUSH1 0xE0 DUP7 ADD MSTORE DUP5 MSTORE PUSH1 0x2 DUP4 ADD SLOAD SWAP1 SWAP9 POP SWAP1 DUP4 ADD SWAP1 PUSH1 0xFF AND PUSH1 0x5 DUP2 GT ISZERO PUSH2 0x9DD JUMPI PUSH2 0x9DD PUSH2 0x3070 JUMP JUMPDEST PUSH1 0x5 DUP2 GT ISZERO PUSH2 0x9EE JUMPI PUSH2 0x9EE PUSH2 0x3070 JUMP JUMPDEST DUP2 MSTORE PUSH1 0x2 SWAP2 SWAP1 SWAP2 ADD SLOAD PUSH1 0x1 PUSH1 0x1 PUSH1 0x40 SHL SUB PUSH2 0x100 DUP3 DIV DUP2 AND PUSH1 0x20 DUP5 ADD MSTORE PUSH1 0x1 PUSH1 0x48 SHL DUP3 DIV DUP2 AND PUSH1 0x40 DUP5 ADD MSTORE PUSH1 0x1 PUSH1 0x88 SHL DUP3 DIV AND PUSH1 0x60 DUP4 ADD MSTORE PUSH1 0x1 PUSH1 0x1 PUSH1 0xE0 SHL SUB NOT PUSH1 0x1 PUSH1 0xC8 SHL SWAP1 SWAP2 DIV PUSH1 0xE0 SHL AND PUSH1 0x80 SWAP1 SWAP2 ADD MSTORE PUSH1 0x0 SWAP5 POP DUP5 SWAP4 POP DUP4 SWAP3 POP SWAP1 POP PUSH1 0x5 DUP2 PUSH1 0x20 ADD MLOAD PUSH1 0x5 DUP2 GT ISZERO PUSH2 0xA65 JUMPI PUSH2 0xA65 PUSH2 0x3070 JUMP JUMPDEST SUB PUSH2 0xA7F JUMPI PUSH2 0xA73 DUP2 PUSH2 0x1C39 JUMP JUMPDEST SWAP2 SWAP6 POP SWAP4 POP SWAP2 POP PUSH2 0xAD3 JUMP JUMPDEST PUSH1 0x1 DUP2 PUSH1 0x20 ADD MLOAD PUSH1 0x5 DUP2 GT ISZERO PUSH2 0xA97 JUMPI PUSH2 0xA97 PUSH2 0x3070 JUMP JUMPDEST SUB PUSH2 0xAA5 JUMPI PUSH2 0xA73 DUP2 PUSH2 0x1DEF JUMP JUMPDEST PUSH1 0x2 DUP2 PUSH1 0x20 ADD MLOAD PUSH1 0x5 DUP2 GT ISZERO PUSH2 0xABD JUMPI PUSH2 0xABD PUSH2 0x3070 JUMP JUMPDEST SUB PUSH2 0xAD3 JUMPI PUSH2 0xACB DUP2 PUSH2 0x1DEF JUMP JUMPDEST SWAP2 SWAP6 POP SWAP4 POP SWAP2 POP JUMPDEST DUP3 PUSH1 0x0 SUB PUSH2 0xAF0 JUMPI PUSH1 0x0 DUP1 PUSH1 0x0 SWAP8 POP SWAP8 POP SWAP8 POP POP POP POP POP POP PUSH2 0xB4C JUMP JUMPDEST PUSH2 0xB09 DUP5 PUSH15 0xC097CE7BC90715B34B9F1000000000 PUSH2 0x30C3 JUMP JUMPDEST SWAP4 POP PUSH2 0xB24 DUP4 PUSH15 0xC097CE7BC90715B34B9F1000000000 PUSH2 0x30C3 JUMP JUMPDEST SWAP3 POP PUSH2 0xB3F DUP3 PUSH15 0xC097CE7BC90715B34B9F1000000000 PUSH2 0x30C3 JUMP JUMPDEST SWAP4 SWAP8 POP SWAP2 SWAP6 POP SWAP2 SWAP4 POP POP POP POP JUMPDEST SWAP3 POP SWAP3 POP SWAP3 JUMP JUMPDEST PUSH1 0x0 PUSH2 0x72A PUSH5 0xE8D4A51000 DUP4 PUSH2 0x30C3 JUMP JUMPDEST PUSH1 0x0 DUP1 PUSH2 0xB76 PUSH5 0x2540BE400 DUP5 PUSH2 0x30C3 JUMP JUMPDEST SWAP1 POP DUP3 PUSH2 0xB88 DUP3 PUSH5 0x2540BE400 PUSH2 0x30E5 JUMP JUMPDEST GT ISZERO PUSH2 0x72A JUMPI PUSH2 0x72A PUSH2 0x3104 JUMP JUMPDEST PUSH2 0xB9E PUSH2 0x515 JUMP JUMPDEST PUSH1 0x0 JUMPDEST DUP2 MLOAD DUP2 LT ISZERO PUSH2 0x6F5 JUMPI PUSH2 0xC6B DUP3 DUP3 DUP2 MLOAD DUP2 LT PUSH2 0xBBF JUMPI PUSH2 0xBBF PUSH2 0x311A JUMP JUMPDEST PUSH1 0x20 MUL PUSH1 0x20 ADD ADD MLOAD PUSH1 0x0 ADD MLOAD PUSH1 0x0 ADD MLOAD DUP4 DUP4 DUP2 MLOAD DUP2 LT PUSH2 0xBE1 JUMPI PUSH2 0xBE1 PUSH2 0x311A JUMP JUMPDEST PUSH1 0x20 MUL PUSH1 0x20 ADD ADD MLOAD PUSH1 0x0 ADD MLOAD PUSH1 0x20 ADD MLOAD DUP5 DUP5 DUP2 MLOAD DUP2 LT PUSH2 0xC03 JUMPI PUSH2 0xC03 PUSH2 0x311A JUMP JUMPDEST PUSH1 0x20 MUL PUSH1 0x20 ADD ADD MLOAD PUSH1 0x40 ADD MLOAD PUSH1 0x1 PUSH1 0x1 PUSH1 0x40 SHL SUB AND DUP6 DUP6 DUP2 MLOAD DUP2 LT PUSH2 0xC2A JUMPI PUSH2 0xC2A PUSH2 0x311A JUMP JUMPDEST PUSH1 0x20 MUL PUSH1 0x20 ADD ADD MLOAD PUSH1 0x60 ADD MLOAD PUSH1 0x1 PUSH1 0x1 PUSH1 0x40 SHL SUB AND DUP7 DUP7 DUP2 MLOAD DUP2 LT PUSH2 0xC51 JUMPI PUSH2 0xC51 PUSH2 0x311A JUMP JUMPDEST PUSH1 0x20 MUL PUSH1 0x20 ADD ADD MLOAD PUSH1 0x80 ADD MLOAD PUSH1 0x1 PUSH1 0x1 PUSH1 0x40 SHL SUB AND PUSH2 0x747 JUMP JUMPDEST DUP1 PUSH2 0xC75 DUP2 PUSH2 0x3130 JUMP JUMPDEST SWAP2 POP POP PUSH2 0xBA1 JUMP JUMPDEST PUSH1 0x0 DUP1 PUSH1 0x0 DUP1 DUP6 DUP6 PUSH1 0x40 MLOAD PUSH1 0x20 ADD PUSH2 0xC96 SWAP3 SWAP2 SWAP1 PUSH2 0x3086 JUMP JUMPDEST PUSH1 0x40 DUP1 MLOAD PUSH1 0x1F NOT DUP2 DUP5 SUB ADD DUP2 MSTORE SWAP2 DUP2 MSTORE DUP2 MLOAD PUSH1 0x20 SWAP3 DUP4 ADD KECCAK256 PUSH1 0x0 DUP2 DUP2 MSTORE PUSH1 0x1 SWAP1 SWAP4 MSTORE SWAP2 KECCAK256 PUSH1 0x2 DUP2 ADD SLOAD SWAP2 SWAP3 POP SWAP1 PUSH1 0x1 PUSH1 0x1 PUSH1 0xE0 SHL SUB NOT NUMBER DUP2 AND PUSH1 0x1 PUSH1 0xC8 SHL SWAP1 SWAP3 DIV PUSH1 0xE0 SHL AND SUB PUSH2 0xD88 JUMPI PUSH1 0x40 DUP1 MLOAD PUSH1 0x1 PUSH1 0x1 PUSH1 0xA0 SHL SUB DUP1 DUP11 AND DUP3 MSTORE DUP9 AND PUSH1 0x20 DUP3 ADD MSTORE PUSH32 0x85FE05C69E32EC3AED403E05E055FAA5B8F0DEC24C0F5EF97A497B8F4B8228B5 SWAP2 ADD PUSH1 0x40 MLOAD DUP1 SWAP2 SUB SWAP1 LOG1 PUSH1 0x2 DUP2 ADD SLOAD PUSH2 0xD3F SWAP1 PUSH2 0x100 SWAP1 DIV PUSH1 0x1 PUSH1 0x1 PUSH1 0x40 SHL SUB AND PUSH2 0x15DB JUMP JUMPDEST PUSH1 0x2 DUP3 ADD SLOAD PUSH2 0xD5D SWAP1 PUSH1 0x1 PUSH1 0x48 SHL SWAP1 DIV PUSH1 0x1 PUSH1 0x1 PUSH1 0x40 SHL SUB AND PUSH2 0x15DB JUMP JUMPDEST PUSH1 0x2 DUP4 ADD SLOAD PUSH2 0xD7B SWAP1 PUSH1 0x1 PUSH1 0x88 SHL SWAP1 DIV PUSH1 0x1 PUSH1 0x1 PUSH1 0x40 SHL SUB AND PUSH2 0x15DB JUMP JUMPDEST SWAP5 POP SWAP5 POP SWAP5 POP POP POP PUSH2 0xB4C JUMP JUMPDEST PUSH1 0x0 DUP1 DUP1 PUSH1 0x5 PUSH1 0x2 DUP6 ADD SLOAD PUSH1 0xFF AND PUSH1 0x5 DUP2 GT ISZERO PUSH2 0xDA7 JUMPI PUSH2 0xDA7 PUSH2 0x3070 JUMP JUMPDEST SUB PUSH2 0xE75 JUMPI PUSH1 0x40 DUP1 MLOAD PUSH2 0x100 DUP2 ADD SWAP1 SWAP2 MSTORE DUP5 SLOAD PUSH1 0x1 PUSH1 0x1 PUSH1 0xA0 SHL SUB SWAP1 DUP2 AND PUSH1 0xC0 DUP4 ADD SWAP1 DUP2 MSTORE PUSH1 0x1 DUP8 ADD SLOAD SWAP1 SWAP2 AND PUSH1 0xE0 DUP4 ADD MSTORE DUP2 MSTORE PUSH1 0x2 DUP6 ADD SLOAD PUSH2 0xE69 SWAP2 SWAP1 DUP7 SWAP1 PUSH1 0x20 DUP4 ADD SWAP1 PUSH1 0xFF AND PUSH1 0x5 DUP2 GT ISZERO PUSH2 0xE00 JUMPI PUSH2 0xE00 PUSH2 0x3070 JUMP JUMPDEST PUSH1 0x5 DUP2 GT ISZERO PUSH2 0xE11 JUMPI PUSH2 0xE11 PUSH2 0x3070 JUMP JUMPDEST DUP2 MSTORE PUSH1 0x2 SWAP2 SWAP1 SWAP2 ADD SLOAD PUSH1 0x1 PUSH1 0x1 PUSH1 0x40 SHL SUB PUSH2 0x100 DUP3 DIV DUP2 AND PUSH1 0x20 DUP5 ADD MSTORE PUSH1 0x1 PUSH1 0x48 SHL DUP3 DIV DUP2 AND PUSH1 0x40 DUP5 ADD MSTORE PUSH1 0x1 PUSH1 0x88 SHL DUP3 DIV AND PUSH1 0x60 DUP4 ADD MSTORE PUSH1 0x1 PUSH1 0x1 PUSH1 0xE0 SHL SUB NOT PUSH1 0x1 PUSH1 0xC8 SHL SWAP1 SWAP2 DIV PUSH1 0xE0 SHL AND PUSH1 0x80 SWAP1 SWAP2 ADD MSTORE PUSH2 0x1E28 JUMP JUMPDEST SWAP2 SWAP5 POP SWAP3 POP SWAP1 POP PUSH2 0xFCD JUMP JUMPDEST PUSH1 0x1 PUSH1 0x2 DUP6 ADD SLOAD PUSH1 0xFF AND PUSH1 0x5 DUP2 GT ISZERO PUSH2 0xE90 JUMPI PUSH2 0xE90 PUSH2 0x3070 JUMP JUMPDEST SUB PUSH2 0xF52 JUMPI PUSH1 0x40 DUP1 MLOAD PUSH2 0x100 DUP2 ADD SWAP1 SWAP2 MSTORE DUP5 SLOAD PUSH1 0x1 PUSH1 0x1 PUSH1 0xA0 SHL SUB SWAP1 DUP2 AND PUSH1 0xC0 DUP4 ADD SWAP1 DUP2 MSTORE PUSH1 0x1 DUP8 ADD SLOAD SWAP1 SWAP2 AND PUSH1 0xE0 DUP4 ADD MSTORE DUP2 MSTORE PUSH1 0x2 DUP6 ADD SLOAD PUSH2 0xE69 SWAP2 SWAP1 DUP7 SWAP1 PUSH1 0x20 DUP4 ADD SWAP1 PUSH1 0xFF AND PUSH1 0x5 DUP2 GT ISZERO PUSH2 0xEE9 JUMPI PUSH2 0xEE9 PUSH2 0x3070 JUMP JUMPDEST PUSH1 0x5 DUP2 GT ISZERO PUSH2 0xEFA JUMPI PUSH2 0xEFA PUSH2 0x3070 JUMP JUMPDEST DUP2 MSTORE PUSH1 0x2 SWAP2 SWAP1 SWAP2 ADD SLOAD PUSH1 0x1 PUSH1 0x1 PUSH1 0x40 SHL SUB PUSH2 0x100 DUP3 DIV DUP2 AND PUSH1 0x20 DUP5 ADD MSTORE PUSH1 0x1 PUSH1 0x48 SHL DUP3 DIV DUP2 AND PUSH1 0x40 DUP5 ADD MSTORE PUSH1 0x1 PUSH1 0x88 SHL DUP3 DIV AND PUSH1 0x60 DUP4 ADD MSTORE PUSH1 0x1 PUSH1 0x1 PUSH1 0xE0 SHL SUB NOT PUSH1 0x1 PUSH1 0xC8 SHL SWAP1 SWAP2 DIV PUSH1 0xE0 SHL AND PUSH1 0x80 SWAP1 SWAP2 ADD MSTORE PUSH2 0x1DEF JUMP JUMPDEST PUSH1 0x2 DUP1 DUP6 ADD SLOAD PUSH1 0xFF AND PUSH1 0x5 DUP2 GT ISZERO PUSH2 0xF6C JUMPI PUSH2 0xF6C PUSH2 0x3070 JUMP JUMPDEST SUB PUSH2 0xFCD JUMPI PUSH1 0x40 DUP1 MLOAD PUSH2 0x100 DUP2 ADD SWAP1 SWAP2 MSTORE DUP5 SLOAD PUSH1 0x1 PUSH1 0x1 PUSH1 0xA0 SHL SUB SWAP1 DUP2 AND PUSH1 0xC0 DUP4 ADD SWAP1 DUP2 MSTORE PUSH1 0x1 DUP8 ADD SLOAD SWAP1 SWAP2 AND PUSH1 0xE0 DUP4 ADD MSTORE DUP2 MSTORE PUSH1 0x2 DUP6 ADD SLOAD PUSH2 0xFC5 SWAP2 SWAP1 DUP7 SWAP1 PUSH1 0x20 DUP4 ADD SWAP1 PUSH1 0xFF AND PUSH1 0x5 DUP2 GT ISZERO PUSH2 0xEE9 JUMPI PUSH2 0xEE9 PUSH2 0x3070 JUMP JUMPDEST SWAP2 SWAP5 POP SWAP3 POP SWAP1 POP JUMPDEST DUP2 ISZERO PUSH2 0x1025 JUMPI PUSH1 0x40 DUP1 MLOAD PUSH1 0x1 PUSH1 0x1 PUSH1 0xA0 SHL SUB DUP1 DUP14 AND DUP3 MSTORE DUP12 AND PUSH1 0x20 DUP3 ADD MSTORE PUSH32 0x85FE05C69E32EC3AED403E05E055FAA5B8F0DEC24C0F5EF97A497B8F4B8228B5 SWAP2 ADD PUSH1 0x40 MLOAD DUP1 SWAP2 SUB SWAP1 LOG1 SWAP2 SWAP7 POP SWAP5 POP SWAP3 POP PUSH2 0xB4C SWAP2 POP POP JUMP JUMPDEST DUP9 DUP11 PUSH1 0x40 MLOAD PUSH1 0x20 ADD PUSH2 0x1038 SWAP3 SWAP2 SWAP1 PUSH2 0x3086 JUMP JUMPDEST PUSH1 0x40 DUP1 MLOAD PUSH1 0x1F NOT DUP2 DUP5 SUB ADD DUP2 MSTORE SWAP2 DUP2 MSTORE DUP2 MLOAD PUSH1 0x20 SWAP3 DUP4 ADD KECCAK256 PUSH1 0x0 DUP2 DUP2 MSTORE PUSH1 0x1 SWAP1 SWAP4 MSTORE SWAP1 DUP3 KECCAK256 SWAP1 SWAP7 POP SWAP5 POP SWAP3 POP DUP3 SWAP2 POP DUP2 SWAP1 POP PUSH1 0x5 PUSH1 0x2 DUP6 ADD SLOAD PUSH1 0xFF AND PUSH1 0x5 DUP2 GT ISZERO PUSH2 0x1085 JUMPI PUSH2 0x1085 PUSH2 0x3070 JUMP JUMPDEST SUB PUSH2 0x10EA JUMPI PUSH1 0x40 DUP1 MLOAD PUSH2 0x100 DUP2 ADD SWAP1 SWAP2 MSTORE DUP5 SLOAD PUSH1 0x1 PUSH1 0x1 PUSH1 0xA0 SHL SUB SWAP1 DUP2 AND PUSH1 0xC0 DUP4 ADD SWAP1 DUP2 MSTORE PUSH1 0x1 DUP8 ADD SLOAD SWAP1 SWAP2 AND PUSH1 0xE0 DUP4 ADD MSTORE DUP2 MSTORE PUSH1 0x2 DUP6 ADD SLOAD PUSH2 0x10DE SWAP2 SWAP1 DUP7 SWAP1 PUSH1 0x20 DUP4 ADD SWAP1 PUSH1 0xFF AND PUSH1 0x5 DUP2 GT ISZERO PUSH2 0xE00 JUMPI PUSH2 0xE00 PUSH2 0x3070 JUMP JUMPDEST SWAP2 SWAP5 POP SWAP3 POP SWAP1 POP PUSH2 0x11D9 JUMP JUMPDEST PUSH1 0x1 PUSH1 0x2 DUP6 ADD SLOAD PUSH1 0xFF AND PUSH1 0x5 DUP2 GT ISZERO PUSH2 0x1105 JUMPI PUSH2 0x1105 PUSH2 0x3070 JUMP JUMPDEST SUB PUSH2 0x115E JUMPI PUSH1 0x40 DUP1 MLOAD PUSH2 0x100 DUP2 ADD SWAP1 SWAP2 MSTORE DUP5 SLOAD PUSH1 0x1 PUSH1 0x1 PUSH1 0xA0 SHL SUB SWAP1 DUP2 AND PUSH1 0xC0 DUP4 ADD SWAP1 DUP2 MSTORE PUSH1 0x1 DUP8 ADD SLOAD SWAP1 SWAP2 AND PUSH1 0xE0 DUP4 ADD MSTORE DUP2 MSTORE PUSH1 0x2 DUP6 ADD SLOAD PUSH2 0x10DE SWAP2 SWAP1 DUP7 SWAP1 PUSH1 0x20 DUP4 ADD SWAP1 PUSH1 0xFF AND PUSH1 0x5 DUP2 GT ISZERO PUSH2 0xEE9 JUMPI PUSH2 0xEE9 PUSH2 0x3070 JUMP JUMPDEST PUSH1 0x2 DUP1 DUP6 ADD SLOAD PUSH1 0xFF AND PUSH1 0x5 DUP2 GT ISZERO PUSH2 0x1178 JUMPI PUSH2 0x1178 PUSH2 0x3070 JUMP JUMPDEST SUB PUSH2 0x11D9 JUMPI PUSH1 0x40 DUP1 MLOAD PUSH2 0x100 DUP2 ADD SWAP1 SWAP2 MSTORE DUP5 SLOAD PUSH1 0x1 PUSH1 0x1 PUSH1 0xA0 SHL SUB SWAP1 DUP2 AND PUSH1 0xC0 DUP4 ADD SWAP1 DUP2 MSTORE PUSH1 0x1 DUP8 ADD SLOAD SWAP1 SWAP2 AND PUSH1 0xE0 DUP4 ADD MSTORE DUP2 MSTORE PUSH1 0x2 DUP6 ADD SLOAD PUSH2 0x11D1 SWAP2 SWAP1 DUP7 SWAP1 PUSH1 0x20 DUP4 ADD SWAP1 PUSH1 0xFF AND PUSH1 0x5 DUP2 GT ISZERO PUSH2 0xEE9 JUMPI PUSH2 0xEE9 PUSH2 0x3070 JUMP JUMPDEST SWAP2 SWAP5 POP SWAP3 POP SWAP1 POP JUMPDEST DUP2 PUSH1 0x0 SUB PUSH2 0x1239 JUMPI PUSH1 0x40 DUP1 MLOAD PUSH1 0x1 PUSH1 0x1 PUSH1 0xA0 SHL SUB DUP1 DUP14 AND DUP3 MSTORE DUP12 AND PUSH1 0x20 DUP3 ADD MSTORE PUSH32 0x40431C410CC5180BF05A4EFDFB1880B6095849D44D09B81B10B0AEFBB6849EDD SWAP2 ADD PUSH1 0x40 MLOAD DUP1 SWAP2 SUB SWAP1 LOG1 PUSH1 0x0 DUP1 PUSH1 0x0 SWAP8 POP SWAP8 POP SWAP8 POP POP POP POP POP POP PUSH2 0xB4C JUMP JUMPDEST PUSH2 0x1252 DUP4 PUSH15 0xC097CE7BC90715B34B9F1000000000 PUSH2 0x30C3 JUMP JUMPDEST SWAP3 POP PUSH2 0x126D DUP3 PUSH15 0xC097CE7BC90715B34B9F1000000000 PUSH2 0x30C3 JUMP JUMPDEST SWAP2 POP PUSH2 0x1288 DUP2 PUSH15 0xC097CE7BC90715B34B9F1000000000 PUSH2 0x30C3 JUMP JUMPDEST PUSH1 0x40 DUP1 MLOAD PUSH1 0x1 PUSH1 0x1 PUSH1 0xA0 SHL SUB DUP1 DUP15 AND DUP3 MSTORE DUP13 AND PUSH1 0x20 DUP3 ADD MSTORE SWAP2 SWAP3 POP PUSH32 0x85FE05C69E32EC3AED403E05E055FAA5B8F0DEC24C0F5EF97A497B8F4B8228B5 SWAP2 ADD PUSH1 0x40 MLOAD DUP1 SWAP2 SUB SWAP1 LOG1 SWAP2 SWAP7 POP SWAP5 POP SWAP3 POP POP POP SWAP3 POP SWAP3 POP SWAP3 JUMP JUMPDEST PUSH2 0x12E6 PUSH2 0x1EC2 JUMP JUMPDEST PUSH2 0x6DD PUSH1 0x0 PUSH2 0x1F23 JUMP JUMPDEST PUSH2 0x12F8 PUSH2 0x515 JUMP JUMPDEST PUSH2 0x6DD PUSH1 0x0 DUP1 SLOAD PUSH1 0xFF NOT AND PUSH1 0x1 OR SWAP1 SSTORE JUMP JUMPDEST PUSH1 0x0 PUSH2 0x72A PUSH6 0xFFFFFFFFFFFF DUP4 AND PUSH5 0x174876E800 PUSH2 0x30E5 JUMP JUMPDEST PUSH1 0x60 PUSH2 0x1379 DUP4 DUP4 PUSH1 0x14 PUSH1 0x0 PUSH1 0x40 MLOAD SWAP1 DUP1 DUP3 MSTORE DUP1 PUSH1 0x20 MUL PUSH1 0x20 ADD DUP3 ADD PUSH1 0x40 MSTORE DUP1 ISZERO PUSH2 0x1373 JUMPI DUP2 PUSH1 0x20 ADD JUMPDEST PUSH1 0x40 DUP1 MLOAD DUP1 DUP3 ADD SWAP1 SWAP2 MSTORE PUSH1 0x0 DUP1 DUP3 MSTORE PUSH1 0x20 DUP3 ADD MSTORE DUP2 MSTORE PUSH1 0x20 ADD SWAP1 PUSH1 0x1 SWAP1 SUB SWAP1 DUP2 PUSH2 0x134C JUMPI SWAP1 POP JUMPDEST POP PUSH2 0x1F7E JUMP JUMPDEST SWAP4 SWAP3 POP POP POP JUMP JUMPDEST PUSH1 0x0 DUP1 DUP1 DUP1 DUP1 DUP1 DUP1 DUP1 JUMPDEST DUP9 MLOAD DUP2 LT ISZERO PUSH2 0x151B JUMPI PUSH8 0xDE0B6B3A7640000 DUP1 DUP1 PUSH1 0x0 JUMPDEST DUP13 DUP6 DUP2 MLOAD DUP2 LT PUSH2 0x13B3 JUMPI PUSH2 0x13B3 PUSH2 0x311A JUMP JUMPDEST PUSH1 0x20 MUL PUSH1 0x20 ADD ADD MLOAD MLOAD DUP2 LT ISZERO PUSH2 0x14B0 JUMPI PUSH1 0x0 DUP14 DUP7 DUP2 MLOAD DUP2 LT PUSH2 0x13D7 JUMPI PUSH2 0x13D7 PUSH2 0x311A JUMP JUMPDEST PUSH1 0x20 MUL PUSH1 0x20 ADD ADD MLOAD DUP3 DUP2 MLOAD DUP2 LT PUSH2 0x13F0 JUMPI PUSH2 0x13F0 PUSH2 0x311A JUMP JUMPDEST PUSH1 0x20 MUL PUSH1 0x20 ADD ADD MLOAD SWAP1 POP PUSH1 0x0 DUP1 PUSH1 0x0 PUSH2 0x1411 DUP5 PUSH1 0x0 ADD MLOAD DUP6 PUSH1 0x20 ADD MLOAD PUSH2 0x7CE JUMP JUMPDEST SWAP3 POP SWAP3 POP SWAP3 POP DUP2 PUSH1 0x0 SUB PUSH2 0x143C JUMPI PUSH1 0x0 DUP1 PUSH1 0x0 SWAP16 POP SWAP16 POP SWAP16 POP POP POP POP POP POP POP POP POP POP POP POP POP POP PUSH2 0x1532 JUMP JUMPDEST PUSH8 0xDE0B6B3A7640000 PUSH2 0x144F DUP10 DUP6 PUSH2 0x30E5 JUMP JUMPDEST PUSH2 0x1459 SWAP2 SWAP1 PUSH2 0x30C3 JUMP JUMPDEST SWAP8 POP PUSH8 0xDE0B6B3A7640000 PUSH2 0x146E DUP9 DUP5 PUSH2 0x30E5 JUMP JUMPDEST PUSH2 0x1478 SWAP2 SWAP1 PUSH2 0x30C3 JUMP JUMPDEST SWAP7 POP PUSH8 0xDE0B6B3A7640000 PUSH2 0x148D DUP8 DUP4 PUSH2 0x30E5 JUMP JUMPDEST PUSH2 0x1497 SWAP2 SWAP1 PUSH2 0x30C3 JUMP JUMPDEST SWAP6 POP POP POP POP POP DUP1 DUP1 PUSH2 0x14A8 SWAP1 PUSH2 0x3130 JUMP JUMPDEST SWAP2 POP POP PUSH2 0x13A1 JUMP JUMPDEST POP DUP8 ISZERO DUP1 PUSH2 0x14BD JUMPI POP DUP3 DUP9 GT JUMPDEST ISZERO PUSH2 0x14C6 JUMPI DUP3 SWAP8 POP JUMPDEST DUP5 ISZERO DUP1 PUSH2 0x14D2 JUMPI POP DUP1 DUP6 LT JUMPDEST ISZERO PUSH2 0x14DB JUMPI DUP1 SWAP5 POP JUMPDEST DUP6 PUSH1 0x0 SUB PUSH2 0x14EB JUMPI DUP2 SWAP7 POP PUSH2 0x14F8 JUMP JUMPDEST PUSH2 0x14F5 DUP3 DUP9 PUSH2 0x3149 JUMP JUMPDEST SWAP7 POP JUMPDEST DUP6 PUSH2 0x1502 DUP2 PUSH2 0x3130 JUMP JUMPDEST SWAP7 POP POP POP POP POP DUP1 DUP1 PUSH2 0x1513 SWAP1 PUSH2 0x3130 JUMP JUMPDEST SWAP2 POP POP PUSH2 0x138A JUMP JUMPDEST POP PUSH2 0x1526 DUP3 DUP5 PUSH2 0x30C3 JUMP JUMPDEST SWAP4 SWAP7 POP SWAP3 SWAP5 POP SWAP2 SWAP3 POP POP POP JUMPDEST SWAP2 SWAP4 SWAP1 SWAP3 POP JUMP JUMPDEST PUSH1 0x0 DUP1 SLOAD PUSH1 0xFF AND DUP1 PUSH2 0x1552 JUMPI POP PUSH1 0x0 SLOAD PUSH2 0x100 SWAP1 DIV PUSH1 0xFF AND JUMPDEST SWAP1 POP SWAP1 JUMP JUMPDEST PUSH2 0x155F PUSH2 0x515 JUMP JUMPDEST PUSH2 0x1567 PUSH2 0x2A0A JUMP JUMPDEST DUP1 MLOAD PUSH1 0x1 PUSH1 0x1 PUSH1 0xA0 SHL SUB DUP6 DUP2 AND SWAP1 SWAP2 MSTORE DUP2 MLOAD SWAP1 DUP5 AND PUSH1 0x20 SWAP2 DUP3 ADD MSTORE PUSH1 0x1 SWAP1 DUP3 ADD MSTORE PUSH2 0x1591 DUP3 PUSH2 0xB64 JUMP JUMPDEST PUSH1 0x1 PUSH1 0x1 PUSH1 0x40 SHL SUB AND PUSH1 0x80 DUP3 ADD DUP2 SWAP1 MSTORE PUSH1 0x60 DUP3 ADD DUP2 SWAP1 MSTORE PUSH1 0x40 DUP3 ADD MSTORE PUSH2 0x15B6 DUP2 PUSH2 0x17A4 JUMP JUMPDEST POP POP POP POP JUMP JUMPDEST PUSH1 0x0 PUSH8 0xDE0B6B3A7640000 PUSH2 0x15D1 DUP4 DUP6 PUSH2 0x30E5 JUMP JUMPDEST PUSH2 0x1379 SWAP2 SWAP1 PUSH2 0x30C3 JUMP JUMPDEST PUSH1 0x0 PUSH2 0x72A PUSH1 0x1 PUSH1 0x1 PUSH1 0x40 SHL SUB DUP4 AND PUSH5 0x2540BE400 PUSH2 0x30E5 JUMP JUMPDEST PUSH2 0x15FD PUSH2 0x515 JUMP JUMPDEST PUSH1 0x0 DUP4 DUP4 PUSH1 0x40 MLOAD PUSH1 0x20 ADD PUSH2 0x1612 SWAP3 SWAP2 SWAP1 PUSH2 0x3086 JUMP JUMPDEST PUSH1 0x40 DUP1 MLOAD DUP1 DUP4 SUB PUSH1 0x1F NOT ADD DUP2 MSTORE SWAP2 DUP2 MSTORE DUP2 MLOAD PUSH1 0x20 SWAP3 DUP4 ADD KECCAK256 PUSH1 0x0 DUP2 DUP2 MSTORE PUSH1 0x3 SWAP1 SWAP4 MSTORE SWAP2 KECCAK256 DUP1 SLOAD PUSH1 0x1 PUSH1 0x1 PUSH1 0xA0 SHL SUB NOT AND PUSH1 0x1 PUSH1 0x1 PUSH1 0xA0 SHL SUB DUP6 AND OR SWAP1 SSTORE SWAP1 POP DUP2 PUSH2 0x165A PUSH2 0x2A0A JUMP JUMPDEST DUP1 MLOAD PUSH1 0x1 PUSH1 0x1 PUSH1 0xA0 SHL SUB DUP8 DUP2 AND SWAP1 SWAP2 MSTORE DUP2 MLOAD SWAP1 DUP7 AND PUSH1 0x20 SWAP2 DUP3 ADD MSTORE PUSH1 0x5 SWAP1 DUP3 ADD MSTORE PUSH1 0x0 DUP1 DUP1 PUSH2 0x1688 DUP5 PUSH2 0x1C39 JUMP JUMPDEST SWAP3 POP SWAP3 POP SWAP3 POP PUSH2 0x1697 DUP4 PUSH2 0xB64 JUMP JUMPDEST PUSH1 0x1 PUSH1 0x1 PUSH1 0x40 SHL SUB AND PUSH1 0x40 DUP6 ADD MSTORE PUSH2 0x16AE DUP3 PUSH2 0xB64 JUMP JUMPDEST PUSH1 0x1 PUSH1 0x1 PUSH1 0x40 SHL SUB AND PUSH1 0x60 DUP6 ADD MSTORE PUSH2 0x16C5 DUP2 PUSH2 0xB64 JUMP JUMPDEST PUSH1 0x1 PUSH1 0x1 PUSH1 0x40 SHL SUB AND PUSH1 0x80 DUP6 ADD MSTORE PUSH2 0x16DC DUP5 PUSH2 0x17A4 JUMP JUMPDEST POP POP POP POP POP POP POP POP POP JUMP JUMPDEST PUSH2 0x16EF PUSH2 0x1EC2 JUMP JUMPDEST PUSH2 0x6DD PUSH1 0x0 DUP1 SLOAD PUSH2 0xFF00 NOT AND PUSH2 0x100 OR SWAP1 SSTORE JUMP JUMPDEST PUSH1 0x0 PUSH2 0x72A PUSH4 0xFFFFFFFF DUP4 AND PUSH5 0xE8D4A51000 PUSH2 0x30E5 JUMP JUMPDEST PUSH2 0x1722 PUSH2 0x1EC2 JUMP JUMPDEST PUSH1 0x1 PUSH1 0x1 PUSH1 0xA0 SHL SUB DUP2 AND PUSH2 0x1787 JUMPI PUSH1 0x40 MLOAD PUSH3 0x461BCD PUSH1 0xE5 SHL DUP2 MSTORE PUSH1 0x20 PUSH1 0x4 DUP3 ADD MSTORE PUSH1 0x26 PUSH1 0x24 DUP3 ADD MSTORE PUSH32 0x4F776E61626C653A206E6577206F776E657220697320746865207A65726F2061 PUSH1 0x44 DUP3 ADD MSTORE PUSH6 0x646472657373 PUSH1 0xD0 SHL PUSH1 0x64 DUP3 ADD MSTORE PUSH1 0x84 ADD PUSH2 0x6D4 JUMP JUMPDEST PUSH2 0x1790 DUP2 PUSH2 0x1F23 JUMP JUMPDEST POP JUMP JUMPDEST PUSH1 0x0 PUSH2 0x72A PUSH5 0x174876E800 DUP4 PUSH2 0x30C3 JUMP JUMPDEST DUP1 MLOAD DUP1 MLOAD PUSH1 0x20 SWAP2 DUP3 ADD MLOAD PUSH1 0x40 MLOAD PUSH1 0x0 SWAP4 PUSH2 0x17C0 SWAP4 SWAP3 SWAP2 ADD PUSH2 0x3086 JUMP JUMPDEST PUSH1 0x40 DUP1 MLOAD PUSH1 0x1F NOT DUP2 DUP5 SUB ADD DUP2 MSTORE DUP3 DUP3 MSTORE DUP1 MLOAD PUSH1 0x20 SWAP2 DUP3 ADD KECCAK256 PUSH1 0x0 DUP2 DUP2 MSTORE PUSH1 0x1 DUP1 DUP5 MSTORE DUP5 DUP3 KECCAK256 PUSH2 0x100 DUP8 ADD SWAP1 SWAP6 MSTORE DUP5 SLOAD PUSH1 0x1 PUSH1 0x1 PUSH1 0xA0 SHL SUB SWAP1 DUP2 AND PUSH1 0xC0 DUP9 ADD SWAP1 DUP2 MSTORE SWAP2 DUP7 ADD SLOAD AND PUSH1 0xE0 DUP8 ADD MSTORE DUP6 MSTORE PUSH1 0x2 DUP5 ADD SLOAD SWAP2 SWAP6 POP SWAP4 SWAP3 SWAP2 DUP4 ADD SWAP1 PUSH1 0xFF AND PUSH1 0x5 DUP2 GT ISZERO PUSH2 0x182F JUMPI PUSH2 0x182F PUSH2 0x3070 JUMP JUMPDEST PUSH1 0x5 DUP2 GT ISZERO PUSH2 0x1840 JUMPI PUSH2 0x1840 PUSH2 0x3070 JUMP JUMPDEST DUP2 MSTORE PUSH1 0x2 SWAP2 SWAP1 SWAP2 ADD SLOAD PUSH2 0x100 DUP2 DIV PUSH1 0x1 PUSH1 0x1 PUSH1 0x40 SHL SUB SWAP1 DUP2 AND PUSH1 0x20 DUP1 DUP6 ADD SWAP2 SWAP1 SWAP2 MSTORE PUSH1 0x1 PUSH1 0x48 SHL DUP4 DIV DUP3 AND PUSH1 0x40 DUP6 ADD MSTORE PUSH1 0x1 PUSH1 0x88 SHL DUP4 DIV SWAP1 SWAP2 AND PUSH1 0x60 DUP5 ADD MSTORE PUSH1 0x1 PUSH1 0xC8 SHL SWAP1 SWAP2 DIV PUSH1 0xE0 SHL PUSH1 0x1 PUSH1 0x1 PUSH1 0xE0 SHL SUB NOT AND PUSH1 0x80 SWAP1 SWAP3 ADD SWAP2 SWAP1 SWAP2 MSTORE DUP5 ADD MLOAD SWAP1 SWAP2 POP PUSH1 0x5 DUP2 GT ISZERO PUSH2 0x18B4 JUMPI PUSH2 0x18B4 PUSH2 0x3070 JUMP JUMPDEST DUP2 PUSH1 0x20 ADD MLOAD PUSH1 0x5 DUP2 GT ISZERO PUSH2 0x18CA JUMPI PUSH2 0x18CA PUSH2 0x3070 JUMP JUMPDEST EQ PUSH2 0x1A7C JUMPI DUP3 MLOAD DUP1 MLOAD PUSH1 0x20 SWAP1 SWAP2 ADD MLOAD PUSH2 0x18E3 SWAP2 SWAP1 PUSH2 0x2704 JUMP JUMPDEST DUP3 MLOAD MLOAD DUP2 MLOAD PUSH1 0x1 PUSH1 0x1 PUSH1 0xA0 SHL SUB SWAP2 DUP3 AND SWAP1 MSTORE DUP4 MLOAD PUSH1 0x20 SWAP1 DUP2 ADD MLOAD DUP4 MLOAD SWAP3 AND SWAP2 DUP2 ADD SWAP2 SWAP1 SWAP2 MSTORE DUP1 DUP5 ADD MLOAD SWAP1 DUP3 ADD SWAP1 PUSH1 0x5 DUP2 GT ISZERO PUSH2 0x1921 JUMPI PUSH2 0x1921 PUSH2 0x3070 JUMP JUMPDEST SWAP1 DUP2 PUSH1 0x5 DUP2 GT ISZERO PUSH2 0x1934 JUMPI PUSH2 0x1934 PUSH2 0x3070 JUMP JUMPDEST SWAP1 MSTORE POP DUP3 MLOAD MLOAD PUSH1 0x1 PUSH1 0x1 PUSH1 0xA0 SHL SUB SWAP1 DUP2 AND PUSH1 0x0 SWAP1 DUP2 MSTORE PUSH1 0x2 PUSH1 0x20 SWAP1 DUP2 MSTORE PUSH1 0x40 SWAP2 DUP3 SWAP1 KECCAK256 DUP7 MLOAD SWAP1 SWAP2 ADD MLOAD SWAP2 MLOAD PUSH4 0x16F4B929 PUSH1 0xE2 SHL DUP2 MSTORE PUSH1 0x4 DUP2 ADD SWAP2 SWAP1 SWAP2 MSTORE SWAP2 AND PUSH1 0x24 DUP3 ADD MSTORE PUSH20 0x0 SWAP1 PUSH4 0x5BD2E4A4 SWAP1 PUSH1 0x44 ADD PUSH1 0x20 PUSH1 0x40 MLOAD DUP1 DUP4 SUB DUP2 DUP7 GAS DELEGATECALL ISZERO DUP1 ISZERO PUSH2 0x19B4 JUMPI RETURNDATASIZE PUSH1 0x0 DUP1 RETURNDATACOPY RETURNDATASIZE PUSH1 0x0 REVERT JUMPDEST POP POP POP POP PUSH1 0x40 MLOAD RETURNDATASIZE PUSH1 0x1F NOT PUSH1 0x1F DUP3 ADD AND DUP3 ADD DUP1 PUSH1 0x40 MSTORE POP DUP2 ADD SWAP1 PUSH2 0x19D8 SWAP2 SWAP1 PUSH2 0x304E JUMP JUMPDEST POP DUP3 MLOAD PUSH1 0x20 SWAP1 DUP2 ADD MLOAD PUSH1 0x1 PUSH1 0x1 PUSH1 0xA0 SHL SUB SWAP1 DUP2 AND PUSH1 0x0 SWAP1 DUP2 MSTORE PUSH1 0x2 SWAP1 SWAP3 MSTORE PUSH1 0x40 SWAP2 DUP3 SWAP1 KECCAK256 DUP6 MLOAD MLOAD SWAP3 MLOAD PUSH4 0x16F4B929 PUSH1 0xE2 SHL DUP2 MSTORE PUSH1 0x4 DUP2 ADD SWAP2 SWAP1 SWAP2 MSTORE SWAP2 AND PUSH1 0x24 DUP3 ADD MSTORE PUSH20 0x0 SWAP1 PUSH4 0x5BD2E4A4 SWAP1 PUSH1 0x44 ADD PUSH1 0x20 PUSH1 0x40 MLOAD DUP1 DUP4 SUB DUP2 DUP7 GAS DELEGATECALL ISZERO DUP1 ISZERO PUSH2 0x1A56 JUMPI RETURNDATASIZE PUSH1 0x0 DUP1 RETURNDATACOPY RETURNDATASIZE PUSH1 0x0 REVERT JUMPDEST POP POP POP POP PUSH1 0x40 MLOAD RETURNDATASIZE PUSH1 0x1F NOT PUSH1 0x1F DUP3 ADD AND DUP3 ADD DUP1 PUSH1 0x40 MSTORE POP DUP2 ADD SWAP1 PUSH2 0x1A7A SWAP2 SWAP1 PUSH2 0x304E JUMP JUMPDEST POP JUMPDEST PUSH1 0x1 PUSH1 0x1 PUSH1 0xE0 SHL SUB NOT NUMBER AND PUSH1 0xA0 DUP3 ADD MSTORE PUSH1 0x40 DUP1 DUP5 ADD MLOAD SWAP1 DUP3 ADD MLOAD PUSH1 0x1 PUSH1 0x1 PUSH1 0x40 SHL SUB SWAP1 DUP2 AND SWAP2 AND EQ DUP1 ISZERO PUSH2 0x1AC9 JUMPI POP DUP3 PUSH1 0x60 ADD MLOAD PUSH1 0x1 PUSH1 0x1 PUSH1 0x40 SHL SUB AND DUP2 PUSH1 0x60 ADD MLOAD PUSH1 0x1 PUSH1 0x1 PUSH1 0x40 SHL SUB AND EQ JUMPDEST DUP1 ISZERO PUSH2 0x1AEE JUMPI POP DUP3 PUSH1 0x80 ADD MLOAD PUSH1 0x1 PUSH1 0x1 PUSH1 0x40 SHL SUB AND DUP2 PUSH1 0x80 ADD MLOAD PUSH1 0x1 PUSH1 0x1 PUSH1 0x40 SHL SUB AND EQ JUMPDEST ISZERO PUSH2 0x1AF8 JUMPI POP POP POP JUMP JUMPDEST PUSH1 0x40 DUP4 DUP2 ADD MLOAD PUSH1 0x1 PUSH1 0x1 PUSH1 0x40 SHL SUB SWAP1 DUP2 AND DUP4 DUP4 ADD MSTORE PUSH1 0x60 DUP1 DUP7 ADD MLOAD DUP3 AND SWAP1 DUP5 ADD MSTORE PUSH1 0x80 DUP1 DUP7 ADD MLOAD SWAP1 SWAP2 AND SWAP1 DUP4 ADD MSTORE PUSH1 0x0 DUP4 DUP2 MSTORE PUSH1 0x1 PUSH1 0x20 DUP2 DUP2 MSTORE SWAP3 SWAP1 SWAP2 KECCAK256 DUP4 MLOAD DUP1 MLOAD DUP3 SLOAD PUSH1 0x1 PUSH1 0x1 PUSH1 0xA0 SHL SUB NOT SWAP1 DUP2 AND PUSH1 0x1 PUSH1 0x1 PUSH1 0xA0 SHL SUB SWAP3 DUP4 AND OR DUP5 SSTORE SWAP2 DUP6 ADD MLOAD DUP4 DUP6 ADD DUP1 SLOAD SWAP1 SWAP4 AND SWAP2 AND OR SWAP1 SSTORE SWAP2 DUP4 ADD MLOAD PUSH1 0x2 DUP4 ADD DUP1 SLOAD DUP6 SWAP5 SWAP4 PUSH1 0xFF NOT SWAP1 SWAP2 AND SWAP1 DUP4 PUSH1 0x5 DUP2 GT ISZERO PUSH2 0x1B8D JUMPI PUSH2 0x1B8D PUSH2 0x3070 JUMP JUMPDEST MUL OR SWAP1 SSTORE POP PUSH1 0x40 DUP3 ADD MLOAD PUSH1 0x2 SWAP1 SWAP2 ADD DUP1 SLOAD PUSH1 0x60 DUP5 ADD MLOAD PUSH1 0x80 DUP6 ADD MLOAD PUSH1 0xA0 SWAP1 SWAP6 ADD MLOAD PUSH1 0xE0 SHR PUSH1 0x1 PUSH1 0xC8 SHL MUL PUSH4 0xFFFFFFFF PUSH1 0xC8 SHL NOT PUSH1 0x1 PUSH1 0x1 PUSH1 0x40 SHL SUB SWAP7 DUP8 AND PUSH1 0x1 PUSH1 0x88 SHL MUL AND PUSH12 0xFFFFFFFFFFFFFFFFFFFFFFFF PUSH1 0x88 SHL NOT SWAP3 DUP8 AND PUSH1 0x1 PUSH1 0x48 SHL MUL PUSH17 0xFFFFFFFFFFFFFFFF000000000000000000 NOT SWAP8 SWAP1 SWAP7 AND PUSH2 0x100 MUL SWAP7 SWAP1 SWAP7 AND PUSH17 0xFFFFFFFFFFFFFFFFFFFFFFFFFFFFFFFF00 NOT SWAP1 SWAP4 AND SWAP3 SWAP1 SWAP3 OR SWAP4 SWAP1 SWAP4 OR SWAP3 SWAP1 SWAP3 AND SWAP3 SWAP1 SWAP3 OR OR SWAP1 SSTORE POP POP POP JUMP JUMPDEST DUP1 MLOAD DUP1 MLOAD PUSH1 0x20 SWAP2 DUP3 ADD MLOAD PUSH1 0x40 MLOAD PUSH1 0x0 SWAP4 DUP5 SWAP4 DUP5 SWAP4 DUP5 SWAP4 PUSH2 0x1C59 SWAP4 ADD PUSH2 0x3086 JUMP JUMPDEST PUSH1 0x40 DUP1 MLOAD PUSH1 0x1F NOT DUP2 DUP5 SUB ADD DUP2 MSTORE DUP3 DUP3 MSTORE DUP1 MLOAD PUSH1 0x20 SWAP2 DUP3 ADD KECCAK256 PUSH1 0x0 DUP2 DUP2 MSTORE PUSH1 0x3 SWAP1 SWAP3 MSTORE DUP3 DUP3 KECCAK256 SLOAD PUSH4 0x3FABE5A3 PUSH1 0xE2 SHL DUP6 MSTORE SWAP3 MLOAD SWAP1 SWAP5 POP SWAP1 SWAP3 PUSH1 0x1 PUSH1 0x1 PUSH1 0xA0 SHL SUB SWAP1 SWAP3 AND SWAP2 PUSH4 0xFEAF968C SWAP2 PUSH1 0x4 DUP1 DUP4 ADD SWAP3 PUSH1 0xA0 SWAP3 SWAP2 SWAP1 DUP3 SWAP1 SUB ADD DUP2 DUP7 GAS STATICCALL ISZERO DUP1 ISZERO PUSH2 0x1CC6 JUMPI RETURNDATASIZE PUSH1 0x0 DUP1 RETURNDATACOPY RETURNDATASIZE PUSH1 0x0 REVERT JUMPDEST POP POP POP POP PUSH1 0x40 MLOAD RETURNDATASIZE PUSH1 0x1F NOT PUSH1 0x1F DUP3 ADD AND DUP3 ADD DUP1 PUSH1 0x40 MSTORE POP DUP2 ADD SWAP1 PUSH2 0x1CEA SWAP2 SWAP1 PUSH2 0x317B JUMP JUMPDEST POP POP POP SWAP2 POP POP PUSH1 0x0 DUP2 SGT PUSH2 0x1D40 JUMPI PUSH1 0x40 MLOAD PUSH3 0x461BCD PUSH1 0xE5 SHL DUP2 MSTORE PUSH1 0x20 PUSH1 0x4 DUP3 ADD DUP2 SWAP1 MSTORE PUSH1 0x24 DUP3 ADD MSTORE PUSH32 0x436861696E6C696E6B2071756F7465206D75737420626520706F736974697665 PUSH1 0x44 DUP3 ADD MSTORE PUSH1 0x64 ADD PUSH2 0x6D4 JUMP JUMPDEST PUSH1 0x0 DUP3 DUP2 MSTORE PUSH1 0x3 PUSH1 0x20 SWAP1 DUP2 MSTORE PUSH1 0x40 SWAP2 DUP3 SWAP1 KECCAK256 SLOAD DUP3 MLOAD PUSH4 0x313CE567 PUSH1 0xE0 SHL DUP2 MSTORE SWAP3 MLOAD DUP5 SWAP4 PUSH1 0x1 PUSH1 0x1 PUSH1 0xA0 SHL SUB SWAP1 SWAP3 AND SWAP3 PUSH4 0x313CE567 SWAP3 PUSH1 0x4 DUP1 DUP3 ADD SWAP4 SWAP2 DUP3 SWAP1 SUB ADD DUP2 DUP7 GAS STATICCALL ISZERO DUP1 ISZERO PUSH2 0x1D95 JUMPI RETURNDATASIZE PUSH1 0x0 DUP1 RETURNDATACOPY RETURNDATASIZE PUSH1 0x0 REVERT JUMPDEST POP POP POP POP PUSH1 0x40 MLOAD RETURNDATASIZE PUSH1 0x1F NOT PUSH1 0x1F DUP3 ADD AND DUP3 ADD DUP1 PUSH1 0x40 MSTORE POP DUP2 ADD SWAP1 PUSH2 0x1DB9 SWAP2 SWAP1 PUSH2 0x31CB JUMP JUMPDEST PUSH2 0x1DC4 SWAP1 PUSH1 0xA PUSH2 0x32D2 JUMP JUMPDEST PUSH2 0x1DD6 SWAP1 PUSH8 0xDE0B6B3A7640000 PUSH2 0x30C3 JUMP JUMPDEST PUSH2 0x1DE0 SWAP1 DUP3 PUSH2 0x30E5 JUMP JUMPDEST SWAP8 DUP9 SWAP8 POP DUP8 SWAP7 POP SWAP5 POP POP POP POP POP JUMP JUMPDEST PUSH1 0x0 DUP1 PUSH1 0x0 PUSH2 0x1E01 DUP5 PUSH1 0x40 ADD MLOAD PUSH2 0x15DB JUMP JUMPDEST PUSH2 0x1E0E DUP6 PUSH1 0x60 ADD MLOAD PUSH2 0x15DB JUMP JUMPDEST PUSH2 0x1E1B DUP7 PUSH1 0x80 ADD MLOAD PUSH2 0x15DB JUMP JUMPDEST SWAP3 POP SWAP3 POP SWAP3 POP SWAP2 SWAP4 SWAP1 SWAP3 POP JUMP JUMPDEST PUSH1 0x0 DUP1 PUSH1 0x0 NUMBER PUSH1 0x0 SHL PUSH1 0x1 PUSH1 0x1 PUSH1 0xE0 SHL SUB NOT AND DUP5 PUSH1 0xA0 ADD MLOAD PUSH1 0x1 PUSH1 0x1 PUSH1 0xE0 SHL SUB NOT AND EQ PUSH2 0x1EB5 JUMPI PUSH1 0x0 DUP1 PUSH1 0x0 PUSH2 0x1E5D DUP8 PUSH2 0x1C39 JUMP JUMPDEST SWAP3 POP SWAP3 POP SWAP3 POP PUSH2 0x1E6C DUP4 PUSH2 0xB64 JUMP JUMPDEST PUSH1 0x1 PUSH1 0x1 PUSH1 0x40 SHL SUB AND PUSH1 0x40 DUP9 ADD MSTORE PUSH2 0x1E83 DUP3 PUSH2 0xB64 JUMP JUMPDEST PUSH1 0x1 PUSH1 0x1 PUSH1 0x40 SHL SUB AND PUSH1 0x60 DUP9 ADD MSTORE PUSH2 0x1E9A DUP2 PUSH2 0xB64 JUMP JUMPDEST PUSH1 0x1 PUSH1 0x1 PUSH1 0x40 SHL SUB AND PUSH1 0x80 DUP9 ADD MSTORE PUSH2 0x1EB1 DUP8 PUSH2 0x17A4 JUMP JUMPDEST POP POP POP JUMPDEST PUSH2 0x1E01 DUP5 PUSH1 0x40 ADD MLOAD PUSH2 0x15DB JUMP JUMPDEST PUSH1 0x0 SLOAD PUSH1 0x1 PUSH1 0x1 PUSH1 0xA0 SHL SUB PUSH3 0x10000 SWAP1 SWAP2 DIV AND CALLER EQ PUSH2 0x6DD JUMPI PUSH1 0x40 MLOAD PUSH3 0x461BCD PUSH1 0xE5 SHL DUP2 MSTORE PUSH1 0x20 PUSH1 0x4 DUP3 ADD MSTORE PUSH1 0x1F PUSH1 0x24 DUP3 ADD MSTORE PUSH32 0x416C6C6F77616E63653A2063616C6C6572206D757374206265204F776E657200 PUSH1 0x44 DUP3 ADD MSTORE PUSH1 0x64 ADD PUSH2 0x6D4 JUMP JUMPDEST PUSH1 0x0 DUP1 SLOAD PUSH1 0x1 PUSH1 0x1 PUSH1 0xA0 SHL SUB DUP4 DUP2 AND PUSH3 0x10000 DUP2 DUP2 MUL PUSH3 0x10000 PUSH1 0x1 PUSH1 0xB0 SHL SUB NOT DUP6 AND OR DUP6 SSTORE PUSH1 0x40 MLOAD SWAP4 DIV SWAP2 SWAP1 SWAP2 AND SWAP3 SWAP1 SWAP2 DUP4 SWAP2 PUSH32 0x8BE0079C531659141344CD1FD0A4F28419497F9722A3DAAFE3B4186F6B6457E0 SWAP2 LOG3 POP POP JUMP JUMPDEST PUSH1 0x1 PUSH1 0x1 PUSH1 0xA0 SHL SUB DUP5 AND PUSH1 0x0 SWAP1 DUP2 MSTORE PUSH1 0x2 PUSH1 0x20 SWAP1 DUP2 MSTORE PUSH1 0x40 DUP1 DUP4 KECCAK256 DUP1 SLOAD DUP3 MLOAD DUP2 DUP6 MUL DUP2 ADD DUP6 ADD SWAP1 SWAP4 MSTORE DUP1 DUP4 MSTORE PUSH1 0x60 SWAP5 SWAP4 DUP4 ADD DUP3 DUP3 DUP1 ISZERO PUSH2 0x1FE7 JUMPI PUSH1 0x20 MUL DUP3 ADD SWAP2 SWAP1 PUSH1 0x0 MSTORE PUSH1 0x20 PUSH1 0x0 KECCAK256 SWAP1 JUMPDEST DUP2 SLOAD PUSH1 0x1 PUSH1 0x1 PUSH1 0xA0 SHL SUB AND DUP2 MSTORE PUSH1 0x1 SWAP1 SWAP2 ADD SWAP1 PUSH1 0x20 ADD DUP1 DUP4 GT PUSH2 0x1FC9 JUMPI JUMPDEST POP SWAP4 SWAP5 POP PUSH1 0x0 SWAP4 POP PUSH2 0x1FF8 SWAP3 POP POP POP JUMP JUMPDEST PUSH1 0x40 MLOAD SWAP1 DUP1 DUP3 MSTORE DUP1 PUSH1 0x20 MUL PUSH1 0x20 ADD DUP3 ADD PUSH1 0x40 MSTORE DUP1 ISZERO PUSH2 0x202B JUMPI DUP2 PUSH1 0x20 ADD JUMPDEST PUSH1 0x60 DUP2 MSTORE PUSH1 0x20 ADD SWAP1 PUSH1 0x1 SWAP1 SUB SWAP1 DUP2 PUSH2 0x2016 JUMPI SWAP1 POP JUMPDEST POP SWAP2 POP PUSH1 0x0 JUMPDEST DUP2 MLOAD DUP2 LT ISZERO PUSH2 0x26FA JUMPI PUSH1 0x0 JUMPDEST DUP5 MLOAD DUP2 LT ISZERO PUSH2 0x216C JUMPI DUP8 PUSH1 0x1 PUSH1 0x1 PUSH1 0xA0 SHL SUB AND DUP6 DUP3 DUP2 MLOAD DUP2 LT PUSH2 0x2062 JUMPI PUSH2 0x2062 PUSH2 0x311A JUMP JUMPDEST PUSH1 0x20 MUL PUSH1 0x20 ADD ADD MLOAD PUSH1 0x0 ADD MLOAD PUSH1 0x1 PUSH1 0x1 PUSH1 0xA0 SHL SUB AND EQ DUP1 ISZERO PUSH2 0x20CB JUMPI POP DUP3 DUP3 DUP2 MLOAD DUP2 LT PUSH2 0x2091 JUMPI PUSH2 0x2091 PUSH2 0x311A JUMP JUMPDEST PUSH1 0x20 MUL PUSH1 0x20 ADD ADD MLOAD PUSH1 0x1 PUSH1 0x1 PUSH1 0xA0 SHL SUB AND DUP6 DUP3 DUP2 MLOAD DUP2 LT PUSH2 0x20B4 JUMPI PUSH2 0x20B4 PUSH2 0x311A JUMP JUMPDEST PUSH1 0x20 MUL PUSH1 0x20 ADD ADD MLOAD PUSH1 0x20 ADD MLOAD PUSH1 0x1 PUSH1 0x1 PUSH1 0xA0 SHL SUB AND EQ JUMPDEST DUP1 PUSH2 0x2156 JUMPI POP DUP8 PUSH1 0x1 PUSH1 0x1 PUSH1 0xA0 SHL SUB AND DUP6 DUP3 DUP2 MLOAD DUP2 LT PUSH2 0x20ED JUMPI PUSH2 0x20ED PUSH2 0x311A JUMP JUMPDEST PUSH1 0x20 MUL PUSH1 0x20 ADD ADD MLOAD PUSH1 0x20 ADD MLOAD PUSH1 0x1 PUSH1 0x1 PUSH1 0xA0 SHL SUB AND EQ DUP1 ISZERO PUSH2 0x2156 JUMPI POP DUP3 DUP3 DUP2 MLOAD DUP2 LT PUSH2 0x211C JUMPI PUSH2 0x211C PUSH2 0x311A JUMP JUMPDEST PUSH1 0x20 MUL PUSH1 0x20 ADD ADD MLOAD PUSH1 0x1 PUSH1 0x1 PUSH1 0xA0 SHL SUB AND DUP6 DUP3 DUP2 MLOAD DUP2 LT PUSH2 0x213F JUMPI PUSH2 0x213F PUSH2 0x311A JUMP JUMPDEST PUSH1 0x20 MUL PUSH1 0x20 ADD ADD MLOAD PUSH1 0x0 ADD MLOAD PUSH1 0x1 PUSH1 0x1 PUSH1 0xA0 SHL SUB AND EQ JUMPDEST PUSH2 0x216C JUMPI DUP1 PUSH2 0x2164 DUP2 PUSH2 0x3130 JUMP JUMPDEST SWAP2 POP POP PUSH2 0x203D JUMP JUMPDEST DUP5 MLOAD DUP2 LT ISZERO PUSH2 0x217B JUMPI POP PUSH2 0x26E8 JUMP JUMPDEST DUP7 PUSH1 0x1 PUSH1 0x1 PUSH1 0xA0 SHL SUB AND DUP4 DUP4 DUP2 MLOAD DUP2 LT PUSH2 0x2197 JUMPI PUSH2 0x2197 PUSH2 0x311A JUMP JUMPDEST PUSH1 0x20 MUL PUSH1 0x20 ADD ADD MLOAD PUSH1 0x1 PUSH1 0x1 PUSH1 0xA0 SHL SUB AND SUB PUSH2 0x2439 JUMPI PUSH1 0x0 PUSH1 0x1 PUSH1 0x0 DUP11 DUP11 PUSH1 0x40 MLOAD PUSH1 0x20 ADD PUSH2 0x21C6 SWAP3 SWAP2 SWAP1 PUSH2 0x3086 JUMP JUMPDEST PUSH1 0x40 DUP1 MLOAD PUSH1 0x1F NOT DUP2 DUP5 SUB ADD DUP2 MSTORE SWAP2 DUP2 MSTORE DUP2 MLOAD PUSH1 0x20 SWAP3 DUP4 ADD KECCAK256 DUP4 MSTORE SWAP1 DUP3 ADD SWAP3 SWAP1 SWAP3 MSTORE ADD PUSH1 0x0 KECCAK256 SWAP1 POP PUSH1 0x3 PUSH1 0x2 DUP3 ADD SLOAD PUSH1 0xFF AND PUSH1 0x5 DUP2 GT ISZERO PUSH2 0x2208 JUMPI PUSH2 0x2208 PUSH2 0x3070 JUMP JUMPDEST EQ ISZERO DUP1 ISZERO PUSH2 0x222F JUMPI POP PUSH1 0x4 PUSH1 0x2 DUP3 ADD SLOAD PUSH1 0xFF AND PUSH1 0x5 DUP2 GT ISZERO PUSH2 0x222C JUMPI PUSH2 0x222C PUSH2 0x3070 JUMP JUMPDEST EQ ISZERO JUMPDEST ISZERO PUSH2 0x2437 JUMPI PUSH1 0x0 DUP7 MLOAD PUSH1 0x1 PUSH2 0x2244 SWAP2 SWAP1 PUSH2 0x3149 JUMP JUMPDEST PUSH1 0x1 PUSH1 0x1 PUSH1 0x40 SHL SUB DUP2 GT ISZERO PUSH2 0x225B JUMPI PUSH2 0x225B PUSH2 0x2B9C JUMP JUMPDEST PUSH1 0x40 MLOAD SWAP1 DUP1 DUP3 MSTORE DUP1 PUSH1 0x20 MUL PUSH1 0x20 ADD DUP3 ADD PUSH1 0x40 MSTORE DUP1 ISZERO PUSH2 0x22A0 JUMPI DUP2 PUSH1 0x20 ADD JUMPDEST PUSH1 0x40 DUP1 MLOAD DUP1 DUP3 ADD SWAP1 SWAP2 MSTORE PUSH1 0x0 DUP1 DUP3 MSTORE PUSH1 0x20 DUP3 ADD MSTORE DUP2 MSTORE PUSH1 0x20 ADD SWAP1 PUSH1 0x1 SWAP1 SUB SWAP1 DUP2 PUSH2 0x2279 JUMPI SWAP1 POP JUMPDEST POP SWAP1 POP PUSH1 0x0 SWAP3 POP JUMPDEST DUP7 MLOAD DUP4 LT ISZERO PUSH2 0x22FB JUMPI DUP7 DUP4 DUP2 MLOAD DUP2 LT PUSH2 0x22C3 JUMPI PUSH2 0x22C3 PUSH2 0x311A JUMP JUMPDEST PUSH1 0x20 MUL PUSH1 0x20 ADD ADD MLOAD DUP2 DUP5 DUP2 MLOAD DUP2 LT PUSH2 0x22DD JUMPI PUSH2 0x22DD PUSH2 0x311A JUMP JUMPDEST PUSH1 0x20 MUL PUSH1 0x20 ADD ADD DUP2 SWAP1 MSTORE POP DUP3 DUP1 PUSH2 0x22F3 SWAP1 PUSH2 0x3130 JUMP JUMPDEST SWAP4 POP POP PUSH2 0x22A8 JUMP JUMPDEST DUP10 DUP2 DUP5 DUP2 MLOAD DUP2 LT PUSH2 0x230E JUMPI PUSH2 0x230E PUSH2 0x311A JUMP JUMPDEST PUSH1 0x20 MUL PUSH1 0x20 ADD ADD MLOAD PUSH1 0x0 ADD SWAP1 PUSH1 0x1 PUSH1 0x1 PUSH1 0xA0 SHL SUB AND SWAP1 DUP2 PUSH1 0x1 PUSH1 0x1 PUSH1 0xA0 SHL SUB AND DUP2 MSTORE POP POP DUP9 DUP2 DUP5 DUP2 MLOAD DUP2 LT PUSH2 0x2345 JUMPI PUSH2 0x2345 PUSH2 0x311A JUMP JUMPDEST PUSH1 0x20 SWAP1 DUP2 MUL SWAP2 SWAP1 SWAP2 ADD DUP2 ADD MLOAD PUSH1 0x1 PUSH1 0x1 PUSH1 0xA0 SHL SUB SWAP1 SWAP3 AND SWAP2 ADD MSTORE DUP6 MLOAD PUSH1 0x0 SWAP1 PUSH2 0x236F SWAP1 PUSH1 0x1 PUSH2 0x3149 JUMP JUMPDEST PUSH1 0x1 PUSH1 0x1 PUSH1 0x40 SHL SUB DUP2 GT ISZERO PUSH2 0x2386 JUMPI PUSH2 0x2386 PUSH2 0x2B9C JUMP JUMPDEST PUSH1 0x40 MLOAD SWAP1 DUP1 DUP3 MSTORE DUP1 PUSH1 0x20 MUL PUSH1 0x20 ADD DUP3 ADD PUSH1 0x40 MSTORE DUP1 ISZERO PUSH2 0x23B9 JUMPI DUP2 PUSH1 0x20 ADD JUMPDEST PUSH1 0x60 DUP2 MSTORE PUSH1 0x20 ADD SWAP1 PUSH1 0x1 SWAP1 SUB SWAP1 DUP2 PUSH2 0x23A4 JUMPI SWAP1 POP JUMPDEST POP SWAP1 POP PUSH1 0x0 SWAP4 POP JUMPDEST DUP7 MLOAD DUP5 LT ISZERO PUSH2 0x2414 JUMPI DUP7 DUP5 DUP2 MLOAD DUP2 LT PUSH2 0x23DC JUMPI PUSH2 0x23DC PUSH2 0x311A JUMP JUMPDEST PUSH1 0x20 MUL PUSH1 0x20 ADD ADD MLOAD DUP2 DUP6 DUP2 MLOAD DUP2 LT PUSH2 0x23F6 JUMPI PUSH2 0x23F6 PUSH2 0x311A JUMP JUMPDEST PUSH1 0x20 MUL PUSH1 0x20 ADD ADD DUP2 SWAP1 MSTORE POP DUP4 DUP1 PUSH2 0x240C SWAP1 PUSH2 0x3130 JUMP JUMPDEST SWAP5 POP POP PUSH2 0x23C1 JUMP JUMPDEST DUP2 DUP2 DUP9 MLOAD DUP2 MLOAD DUP2 LT PUSH2 0x2428 JUMPI PUSH2 0x2428 PUSH2 0x311A JUMP JUMPDEST PUSH1 0x20 SWAP1 DUP2 MUL SWAP2 SWAP1 SWAP2 ADD ADD MSTORE SWAP6 POP POP JUMPDEST POP JUMPDEST DUP6 PUSH1 0x0 SUB PUSH2 0x2447 JUMPI POP PUSH2 0x26FA JUMP JUMPDEST PUSH1 0x0 DUP6 MLOAD PUSH1 0x1 PUSH2 0x2457 SWAP2 SWAP1 PUSH2 0x3149 JUMP JUMPDEST PUSH1 0x1 PUSH1 0x1 PUSH1 0x40 SHL SUB DUP2 GT ISZERO PUSH2 0x246E JUMPI PUSH2 0x246E PUSH2 0x2B9C JUMP JUMPDEST PUSH1 0x40 MLOAD SWAP1 DUP1 DUP3 MSTORE DUP1 PUSH1 0x20 MUL PUSH1 0x20 ADD DUP3 ADD PUSH1 0x40 MSTORE DUP1 ISZERO PUSH2 0x24B3 JUMPI DUP2 PUSH1 0x20 ADD JUMPDEST PUSH1 0x40 DUP1 MLOAD DUP1 DUP3 ADD SWAP1 SWAP2 MSTORE PUSH1 0x0 DUP1 DUP3 MSTORE PUSH1 0x20 DUP3 ADD MSTORE DUP2 MSTORE PUSH1 0x20 ADD SWAP1 PUSH1 0x1 SWAP1 SUB SWAP1 DUP2 PUSH2 0x248C JUMPI SWAP1 POP JUMPDEST POP SWAP1 POP PUSH1 0x0 SWAP2 POP JUMPDEST DUP6 MLOAD DUP3 LT ISZERO PUSH2 0x250E JUMPI DUP6 DUP3 DUP2 MLOAD DUP2 LT PUSH2 0x24D6 JUMPI PUSH2 0x24D6 PUSH2 0x311A JUMP JUMPDEST PUSH1 0x20 MUL PUSH1 0x20 ADD ADD MLOAD DUP2 DUP4 DUP2 MLOAD DUP2 LT PUSH2 0x24F0 JUMPI PUSH2 0x24F0 PUSH2 0x311A JUMP JUMPDEST PUSH1 0x20 MUL PUSH1 0x20 ADD ADD DUP2 SWAP1 MSTORE POP DUP2 DUP1 PUSH2 0x2506 SWAP1 PUSH2 0x3130 JUMP JUMPDEST SWAP3 POP POP PUSH2 0x24BB JUMP JUMPDEST DUP9 DUP2 DUP4 DUP2 MLOAD DUP2 LT PUSH2 0x2521 JUMPI PUSH2 0x2521 PUSH2 0x311A JUMP JUMPDEST PUSH1 0x20 SWAP1 DUP2 MUL SWAP2 SWAP1 SWAP2 ADD ADD MLOAD PUSH1 0x1 PUSH1 0x1 PUSH1 0xA0 SHL SUB SWAP1 SWAP2 AND SWAP1 MSTORE DUP4 MLOAD DUP5 SWAP1 DUP5 SWAP1 DUP2 LT PUSH2 0x254D JUMPI PUSH2 0x254D PUSH2 0x311A JUMP JUMPDEST PUSH1 0x20 MUL PUSH1 0x20 ADD ADD MLOAD DUP2 DUP4 DUP2 MLOAD DUP2 LT PUSH2 0x2567 JUMPI PUSH2 0x2567 PUSH2 0x311A JUMP JUMPDEST PUSH1 0x20 MUL PUSH1 0x20 ADD ADD MLOAD PUSH1 0x20 ADD SWAP1 PUSH1 0x1 PUSH1 0x1 PUSH1 0xA0 SHL SUB AND SWAP1 DUP2 PUSH1 0x1 PUSH1 0x1 PUSH1 0xA0 SHL SUB AND DUP2 MSTORE POP POP PUSH1 0x0 PUSH2 0x25BE DUP6 DUP6 DUP2 MLOAD DUP2 LT PUSH2 0x25A2 JUMPI PUSH2 0x25A2 PUSH2 0x311A JUMP JUMPDEST PUSH1 0x20 MUL PUSH1 0x20 ADD ADD MLOAD DUP11 PUSH1 0x1 DUP12 PUSH2 0x25B8 SWAP2 SWAP1 PUSH2 0x32E1 JUMP JUMPDEST DUP6 PUSH2 0x1F7E JUMP JUMPDEST DUP1 MLOAD SWAP1 SWAP2 POP ISZERO PUSH2 0x26E4 JUMPI PUSH1 0x0 DUP7 MLOAD DUP3 MLOAD PUSH2 0x25D8 SWAP2 SWAP1 PUSH2 0x3149 JUMP JUMPDEST PUSH1 0x1 PUSH1 0x1 PUSH1 0x40 SHL SUB DUP2 GT ISZERO PUSH2 0x25EF JUMPI PUSH2 0x25EF PUSH2 0x2B9C JUMP JUMPDEST PUSH1 0x40 MLOAD SWAP1 DUP1 DUP3 MSTORE DUP1 PUSH1 0x20 MUL PUSH1 0x20 ADD DUP3 ADD PUSH1 0x40 MSTORE DUP1 ISZERO PUSH2 0x2622 JUMPI DUP2 PUSH1 0x20 ADD JUMPDEST PUSH1 0x60 DUP2 MSTORE PUSH1 0x20 ADD SWAP1 PUSH1 0x1 SWAP1 SUB SWAP1 DUP2 PUSH2 0x260D JUMPI SWAP1 POP JUMPDEST POP SWAP1 POP PUSH1 0x0 SWAP4 POP JUMPDEST DUP7 MLOAD DUP5 LT ISZERO PUSH2 0x267D JUMPI DUP7 DUP5 DUP2 MLOAD DUP2 LT PUSH2 0x2645 JUMPI PUSH2 0x2645 PUSH2 0x311A JUMP JUMPDEST PUSH1 0x20 MUL PUSH1 0x20 ADD ADD MLOAD DUP2 DUP6 DUP2 MLOAD DUP2 LT PUSH2 0x265F JUMPI PUSH2 0x265F PUSH2 0x311A JUMP JUMPDEST PUSH1 0x20 MUL PUSH1 0x20 ADD ADD DUP2 SWAP1 MSTORE POP DUP4 DUP1 PUSH2 0x2675 SWAP1 PUSH2 0x3130 JUMP JUMPDEST SWAP5 POP POP PUSH2 0x262A JUMP JUMPDEST PUSH1 0x0 SWAP4 POP JUMPDEST DUP2 MLOAD DUP5 LT ISZERO PUSH2 0x26E1 JUMPI DUP2 DUP5 DUP2 MLOAD DUP2 LT PUSH2 0x269D JUMPI PUSH2 0x269D PUSH2 0x311A JUMP JUMPDEST PUSH1 0x20 MUL PUSH1 0x20 ADD ADD MLOAD DUP2 DUP6 DUP10 MLOAD PUSH2 0x26B3 SWAP2 SWAP1 PUSH2 0x3149 JUMP JUMPDEST DUP2 MLOAD DUP2 LT PUSH2 0x26C3 JUMPI PUSH2 0x26C3 PUSH2 0x311A JUMP JUMPDEST PUSH1 0x20 MUL PUSH1 0x20 ADD ADD DUP2 SWAP1 MSTORE POP DUP4 DUP1 PUSH2 0x26D9 SWAP1 PUSH2 0x3130 JUMP JUMPDEST SWAP5 POP POP PUSH2 0x2682 JUMP JUMPDEST SWAP6 POP JUMPDEST POP POP POP JUMPDEST DUP1 PUSH2 0x26F2 DUP2 PUSH2 0x3130 JUMP JUMPDEST SWAP2 POP POP PUSH2 0x2031 JUMP JUMPDEST POP POP SWAP5 SWAP4 POP POP POP POP JUMP JUMPDEST PUSH1 0x0 DUP3 DUP3 PUSH1 0x40 MLOAD PUSH1 0x20 ADD PUSH2 0x2719 SWAP3 SWAP2 SWAP1 PUSH2 0x3086 JUMP JUMPDEST PUSH1 0x40 DUP1 MLOAD PUSH1 0x1F NOT DUP2 DUP5 SUB ADD DUP2 MSTORE DUP3 DUP3 MSTORE DUP1 MLOAD PUSH1 0x20 SWAP2 DUP3 ADD KECCAK256 PUSH1 0x0 DUP2 DUP2 MSTORE PUSH1 0x1 DUP1 DUP5 MSTORE DUP5 DUP3 KECCAK256 PUSH2 0x100 DUP8 ADD SWAP1 SWAP6 MSTORE DUP5 SLOAD PUSH1 0x1 PUSH1 0x1 PUSH1 0xA0 SHL SUB SWAP1 DUP2 AND PUSH1 0xC0 DUP9 ADD SWAP1 DUP2 MSTORE SWAP2 DUP7 ADD SLOAD AND PUSH1 0xE0 DUP8 ADD MSTORE DUP6 MSTORE PUSH1 0x2 DUP5 ADD SLOAD SWAP2 SWAP6 POP SWAP4 SWAP3 SWAP2 DUP4 ADD SWAP1 PUSH1 0xFF AND PUSH1 0x5 DUP2 GT ISZERO PUSH2 0x2788 JUMPI PUSH2 0x2788 PUSH2 0x3070 JUMP JUMPDEST PUSH1 0x5 DUP2 GT ISZERO PUSH2 0x2799 JUMPI PUSH2 0x2799 PUSH2 0x3070 JUMP JUMPDEST DUP2 MSTORE PUSH1 0x2 SWAP2 SWAP1 SWAP2 ADD SLOAD PUSH1 0x1 PUSH1 0x1 PUSH1 0x40 SHL SUB PUSH2 0x100 DUP3 DIV DUP2 AND PUSH1 0x20 DUP5 ADD MSTORE PUSH1 0x1 PUSH1 0x48 SHL DUP3 DIV DUP2 AND PUSH1 0x40 DUP5 ADD MSTORE PUSH1 0x1 PUSH1 0x88 SHL DUP3 DIV AND PUSH1 0x60 DUP4 ADD MSTORE PUSH1 0x1 PUSH1 0x1 PUSH1 0xE0 SHL SUB NOT PUSH1 0x1 PUSH1 0xC8 SHL SWAP1 SWAP2 DIV PUSH1 0xE0 SHL AND PUSH1 0x80 SWAP1 SWAP2 ADD MSTORE SWAP1 POP PUSH1 0x0 DUP2 PUSH1 0x20 ADD MLOAD PUSH1 0x5 DUP2 GT ISZERO PUSH2 0x2806 JUMPI PUSH2 0x2806 PUSH2 0x3070 JUMP JUMPDEST SUB PUSH2 0x2811 JUMPI POP POP POP POP JUMP JUMPDEST PUSH1 0x5 DUP2 PUSH1 0x20 ADD MLOAD PUSH1 0x5 DUP2 GT ISZERO PUSH2 0x2829 JUMPI PUSH2 0x2829 PUSH2 0x3070 JUMP JUMPDEST SUB PUSH2 0x2838 JUMPI PUSH2 0x2838 DUP5 DUP5 PUSH2 0x29BE JUMP JUMPDEST DUP1 MLOAD MLOAD PUSH1 0x1 PUSH1 0x1 PUSH1 0xA0 SHL SUB SWAP1 DUP2 AND PUSH1 0x0 SWAP1 DUP2 MSTORE PUSH1 0x2 PUSH1 0x20 SWAP1 DUP2 MSTORE PUSH1 0x40 SWAP2 DUP3 SWAP1 KECCAK256 DUP5 MLOAD SWAP1 SWAP2 ADD MLOAD SWAP2 MLOAD PUSH4 0xEDEFE12D PUSH1 0xE0 SHL DUP2 MSTORE PUSH1 0x4 DUP2 ADD SWAP2 SWAP1 SWAP2 MSTORE SWAP2 AND PUSH1 0x24 DUP3 ADD MSTORE PUSH20 0x0 SWAP1 PUSH4 0xEDEFE12D SWAP1 PUSH1 0x44 ADD PUSH1 0x20 PUSH1 0x40 MLOAD DUP1 DUP4 SUB DUP2 DUP7 GAS DELEGATECALL ISZERO DUP1 ISZERO PUSH2 0x28B5 JUMPI RETURNDATASIZE PUSH1 0x0 DUP1 RETURNDATACOPY RETURNDATASIZE PUSH1 0x0 REVERT JUMPDEST POP POP POP POP PUSH1 0x40 MLOAD RETURNDATASIZE PUSH1 0x1F NOT PUSH1 0x1F DUP3 ADD AND DUP3 ADD DUP1 PUSH1 0x40 MSTORE POP DUP2 ADD SWAP1 PUSH2 0x28D9 SWAP2 SWAP1 PUSH2 0x304E JUMP JUMPDEST POP DUP1 MLOAD PUSH1 0x20 SWAP1 DUP2 ADD MLOAD PUSH1 0x1 PUSH1 0x1 PUSH1 0xA0 SHL SUB SWAP1 DUP2 AND PUSH1 0x0 SWAP1 DUP2 MSTORE PUSH1 0x2 SWAP1 SWAP3 MSTORE PUSH1 0x40 SWAP2 DUP3 SWAP1 KECCAK256 DUP4 MLOAD MLOAD SWAP3 MLOAD PUSH4 0xEDEFE12D PUSH1 0xE0 SHL DUP2 MSTORE PUSH1 0x4 DUP2 ADD SWAP2 SWAP1 SWAP2 MSTORE SWAP2 AND PUSH1 0x24 DUP3 ADD MSTORE PUSH20 0x0 SWAP1 PUSH4 0xEDEFE12D SWAP1 PUSH1 0x44 ADD PUSH1 0x20 PUSH1 0x40 MLOAD DUP1 DUP4 SUB DUP2 DUP7 GAS DELEGATECALL ISZERO DUP1 ISZERO PUSH2 0x2957 JUMPI RETURNDATASIZE PUSH1 0x0 DUP1 RETURNDATACOPY RETURNDATASIZE PUSH1 0x0 REVERT JUMPDEST POP POP POP POP PUSH1 0x40 MLOAD RETURNDATASIZE PUSH1 0x1F NOT PUSH1 0x1F DUP3 ADD AND DUP3 ADD DUP1 PUSH1 0x40 MSTORE POP DUP2 ADD SWAP1 PUSH2 0x297B SWAP2 SWAP1 PUSH2 0x304E JUMP JUMPDEST POP POP PUSH1 0x0 SWAP1 DUP2 MSTORE PUSH1 0x1 PUSH1 0x20 DUP2 SWAP1 MSTORE PUSH1 0x40 SWAP1 SWAP2 KECCAK256 DUP1 SLOAD PUSH1 0x1 PUSH1 0x1 PUSH1 0xA0 SHL SUB NOT SWAP1 DUP2 AND DUP3 SSTORE SWAP2 DUP2 ADD DUP1 SLOAD SWAP1 SWAP3 AND SWAP1 SWAP2 SSTORE PUSH1 0x2 ADD DUP1 SLOAD PUSH1 0x1 PUSH1 0x1 PUSH1 0xE8 SHL SUB NOT AND SWAP1 SSTORE POP POP JUMP JUMPDEST PUSH1 0x0 DUP3 DUP3 PUSH1 0x40 MLOAD PUSH1 0x20 ADD PUSH2 0x29D3 SWAP3 SWAP2 SWAP1 PUSH2 0x3086 JUMP JUMPDEST PUSH1 0x40 DUP1 MLOAD PUSH1 0x1F NOT DUP2 DUP5 SUB ADD DUP2 MSTORE SWAP2 DUP2 MSTORE DUP2 MLOAD PUSH1 0x20 SWAP3 DUP4 ADD KECCAK256 PUSH1 0x0 SWAP1 DUP2 MSTORE PUSH1 0x3 SWAP1 SWAP3 MSTORE SWAP1 KECCAK256 DUP1 SLOAD PUSH1 0x1 PUSH1 0x1 PUSH1 0xA0 SHL SUB NOT AND SWAP1 SSTORE POP POP POP JUMP JUMPDEST PUSH1 0x40 DUP1 MLOAD PUSH2 0x100 DUP2 ADD DUP3 MSTORE PUSH1 0x0 PUSH1 0xC0 DUP3 ADD DUP2 DUP2 MSTORE PUSH1 0xE0 DUP4 ADD DUP3 SWAP1 MSTORE DUP3 MSTORE PUSH1 0x20 DUP3 ADD DUP2 SWAP1 MSTORE SWAP2 DUP2 ADD DUP3 SWAP1 MSTORE PUSH1 0x60 DUP2 ADD DUP3 SWAP1 MSTORE PUSH1 0x80 DUP2 ADD DUP3 SWAP1 MSTORE PUSH1 0xA0 DUP2 ADD SWAP2 SWAP1 SWAP2 MSTORE SWAP1 JUMP JUMPDEST PUSH1 0x0 DUP1 DUP6 DUP6 GT ISZERO PUSH2 0x2A5D JUMPI PUSH1 0x0 DUP1 REVERT JUMPDEST DUP4 DUP7 GT ISZERO PUSH2 0x2A6A JUMPI PUSH1 0x0 DUP1 REVERT JUMPDEST POP POP DUP3 ADD SWAP4 SWAP2 SWAP1 SWAP3 SUB SWAP2 POP JUMP JUMPDEST DUP1 CALLDATALOAD PUSH1 0x1 PUSH1 0x1 PUSH1 0xE0 SHL SUB NOT DUP2 AND DUP2 EQ PUSH2 0x2A8F JUMPI PUSH1 0x0 DUP1 REVERT JUMPDEST SWAP2 SWAP1 POP JUMP JUMPDEST PUSH1 0x0 PUSH1 0x20 DUP3 DUP5 SUB SLT ISZERO PUSH2 0x2AA6 JUMPI PUSH1 0x0 DUP1 REVERT JUMPDEST PUSH2 0x1379 DUP3 PUSH2 0x2A77 JUMP JUMPDEST DUP1 CALLDATALOAD PUSH1 0x1 PUSH1 0x1 PUSH1 0xA0 SHL SUB DUP2 AND DUP2 EQ PUSH2 0x2A8F JUMPI PUSH1 0x0 DUP1 REVERT JUMPDEST PUSH1 0x0 DUP1 PUSH1 0x0 DUP1 PUSH1 0x0 PUSH1 0xA0 DUP7 DUP9 SUB SLT ISZERO PUSH2 0x2ADE JUMPI PUSH1 0x0 DUP1 REVERT JUMPDEST PUSH2 0x2AE7 DUP7 PUSH2 0x2AAF JUMP JUMPDEST SWAP5 POP PUSH2 0x2AF5 PUSH1 0x20 DUP8 ADD PUSH2 0x2AAF JUMP JUMPDEST SWAP5 SWAP8 SWAP5 SWAP7 POP POP POP POP PUSH1 0x40 DUP4 ADD CALLDATALOAD SWAP3 PUSH1 0x60 DUP2 ADD CALLDATALOAD SWAP3 PUSH1 0x80 SWAP1 SWAP2 ADD CALLDATALOAD SWAP2 POP JUMP JUMPDEST PUSH1 0x0 DUP1 PUSH1 0x40 DUP4 DUP6 SUB SLT ISZERO PUSH2 0x2B26 JUMPI PUSH1 0x0 DUP1 REVERT JUMPDEST PUSH2 0x2B2F DUP4 PUSH2 0x2AAF JUMP JUMPDEST SWAP2 POP PUSH2 0x2B3D PUSH1 0x20 DUP5 ADD PUSH2 0x2AAF JUMP JUMPDEST SWAP1 POP SWAP3 POP SWAP3 SWAP1 POP JUMP JUMPDEST PUSH1 0x0 PUSH1 0x20 DUP3 DUP5 SUB SLT ISZERO PUSH2 0x2B58 JUMPI PUSH1 0x0 DUP1 REVERT JUMPDEST POP CALLDATALOAD SWAP2 SWAP1 POP JUMP JUMPDEST PUSH1 0x0 PUSH1 0x20 DUP3 DUP5 SUB SLT ISZERO PUSH2 0x2B71 JUMPI PUSH1 0x0 DUP1 REVERT JUMPDEST PUSH2 0x1379 DUP3 PUSH2 0x2AAF JUMP JUMPDEST PUSH1 0x0 DUP1 PUSH1 0x40 DUP4 DUP6 SUB SLT ISZERO PUSH2 0x2B8D JUMPI PUSH1 0x0 DUP1 REVERT JUMPDEST POP POP DUP1 CALLDATALOAD SWAP3 PUSH1 0x20 SWAP1 SWAP2 ADD CALLDATALOAD SWAP2 POP JUMP JUMPDEST PUSH4 0x4E487B71 PUSH1 0xE0 SHL PUSH1 0x0 MSTORE PUSH1 0x41 PUSH1 0x4 MSTORE PUSH1 0x24 PUSH1 0x0 REVERT JUMPDEST PUSH1 0x40 MLOAD PUSH1 0xC0 DUP2 ADD PUSH1 0x1 PUSH1 0x1 PUSH1 0x40 SHL SUB DUP2 GT DUP3 DUP3 LT OR ISZERO PUSH2 0x2BD4 JUMPI PUSH2 0x2BD4 PUSH2 0x2B9C JUMP JUMPDEST PUSH1 0x40 MSTORE SWAP1 JUMP JUMPDEST PUSH1 0x40 MLOAD PUSH1 0x1F DUP3 ADD PUSH1 0x1F NOT AND DUP2 ADD PUSH1 0x1 PUSH1 0x1 PUSH1 0x40 SHL SUB DUP2 GT DUP3 DUP3 LT OR ISZERO PUSH2 0x2C02 JUMPI PUSH2 0x2C02 PUSH2 0x2B9C JUMP JUMPDEST PUSH1 0x40 MSTORE SWAP2 SWAP1 POP JUMP JUMPDEST PUSH1 0x0 PUSH1 0x1 PUSH1 0x1 PUSH1 0x40 SHL SUB DUP3 GT ISZERO PUSH2 0x2C23 JUMPI PUSH2 0x2C23 PUSH2 0x2B9C JUMP JUMPDEST POP PUSH1 0x5 SHL PUSH1 0x20 ADD SWAP1 JUMP JUMPDEST PUSH1 0x0 PUSH1 0x40 DUP3 DUP5 SUB SLT ISZERO PUSH2 0x2C3F JUMPI PUSH1 0x0 DUP1 REVERT JUMPDEST PUSH1 0x40 MLOAD PUSH1 0x40 DUP2 ADD DUP2 DUP2 LT PUSH1 0x1 PUSH1 0x1 PUSH1 0x40 SHL SUB DUP3 GT OR ISZERO PUSH2 0x2C61 JUMPI PUSH2 0x2C61 PUSH2 0x2B9C JUMP JUMPDEST PUSH1 0x40 MSTORE SWAP1 POP DUP1 PUSH2 0x2C70 DUP4 PUSH2 0x2AAF JUMP JUMPDEST DUP2 MSTORE PUSH2 0x2C7E PUSH1 0x20 DUP5 ADD PUSH2 0x2AAF JUMP JUMPDEST PUSH1 0x20 DUP3 ADD MSTORE POP SWAP3 SWAP2 POP POP JUMP JUMPDEST DUP1 CALLDATALOAD PUSH1 0x1 PUSH1 0x1 PUSH1 0x40 SHL SUB DUP2 AND DUP2 EQ PUSH2 0x2A8F JUMPI PUSH1 0x0 DUP1 REVERT JUMPDEST PUSH1 0x0 PUSH1 0x20 DUP1 DUP4 DUP6 SUB SLT ISZERO PUSH2 0x2CB4 JUMPI PUSH1 0x0 DUP1 REVERT JUMPDEST DUP3 CALLDATALOAD PUSH1 0x1 PUSH1 0x1 PUSH1 0x40 SHL SUB DUP2 GT ISZERO PUSH2 0x2CCA JUMPI PUSH1 0x0 DUP1 REVERT JUMPDEST DUP4 ADD PUSH1 0x1F DUP2 ADD DUP6 SGT PUSH2 0x2CDB JUMPI PUSH1 0x0 DUP1 REVERT JUMPDEST DUP1 CALLDATALOAD PUSH2 0x2CEE PUSH2 0x2CE9 DUP3 PUSH2 0x2C0A JUMP JUMPDEST PUSH2 0x2BDA JUMP JUMPDEST DUP2 DUP2 MSTORE PUSH1 0xE0 SWAP2 DUP3 MUL DUP4 ADD DUP5 ADD SWAP2 DUP5 DUP3 ADD SWAP2 SWAP1 DUP9 DUP5 GT ISZERO PUSH2 0x2D0D JUMPI PUSH1 0x0 DUP1 REVERT JUMPDEST SWAP4 DUP6 ADD SWAP4 JUMPDEST DUP4 DUP6 LT ISZERO PUSH2 0x2DAB JUMPI DUP1 DUP6 DUP11 SUB SLT ISZERO PUSH2 0x2D2A JUMPI PUSH1 0x0 DUP1 DUP2 REVERT JUMPDEST PUSH2 0x2D32 PUSH2 0x2BB2 JUMP JUMPDEST PUSH2 0x2D3C DUP11 DUP8 PUSH2 0x2C2D JUMP JUMPDEST DUP2 MSTORE PUSH1 0x40 DUP1 DUP8 ADD CALLDATALOAD PUSH1 0x6 DUP2 LT PUSH2 0x2D52 JUMPI PUSH1 0x0 DUP1 DUP2 REVERT JUMPDEST DUP3 DUP10 ADD MSTORE PUSH1 0x60 PUSH2 0x2D63 DUP9 DUP3 ADD PUSH2 0x2C8A JUMP JUMPDEST DUP3 DUP5 ADD MSTORE PUSH1 0x80 SWAP2 POP PUSH2 0x2D76 DUP3 DUP10 ADD PUSH2 0x2C8A JUMP JUMPDEST SWAP1 DUP4 ADD MSTORE PUSH1 0xA0 PUSH2 0x2D87 DUP9 DUP3 ADD PUSH2 0x2C8A JUMP JUMPDEST DUP3 DUP5 ADD MSTORE PUSH2 0x2D97 PUSH1 0xC0 DUP10 ADD PUSH2 0x2A77 JUMP JUMPDEST SWAP1 DUP4 ADD MSTORE POP DUP4 MSTORE SWAP4 DUP5 ADD SWAP4 SWAP2 DUP6 ADD SWAP2 PUSH2 0x2D12 JUMP JUMPDEST POP SWAP8 SWAP7 POP POP POP POP POP POP POP JUMP JUMPDEST PUSH1 0x0 PUSH1 0x20 DUP3 DUP5 SUB SLT ISZERO PUSH2 0x2DC9 JUMPI PUSH1 0x0 DUP1 REVERT JUMPDEST DUP2 CALLDATALOAD PUSH6 0xFFFFFFFFFFFF DUP2 AND DUP2 EQ PUSH2 0x1379 JUMPI PUSH1 0x0 DUP1 REVERT JUMPDEST PUSH1 0x0 PUSH1 0x20 DUP1 DUP4 ADD DUP2 DUP5 MSTORE DUP1 DUP6 MLOAD DUP1 DUP4 MSTORE PUSH1 0x40 SWAP3 POP DUP3 DUP7 ADD SWAP2 POP DUP3 DUP2 PUSH1 0x5 SHL DUP8 ADD ADD DUP5 DUP9 ADD PUSH1 0x0 DUP1 JUMPDEST DUP5 DUP2 LT ISZERO PUSH2 0x2E70 JUMPI DUP10 DUP5 SUB PUSH1 0x3F NOT ADD DUP7 MSTORE DUP3 MLOAD DUP1 MLOAD DUP1 DUP7 MSTORE SWAP1 DUP10 ADD SWAP1 DUP10 DUP7 ADD SWAP1 DUP5 JUMPDEST DUP2 DUP2 LT ISZERO PUSH2 0x2E5B JUMPI DUP4 MLOAD DUP1 MLOAD PUSH1 0x1 PUSH1 0x1 PUSH1 0xA0 SHL SUB SWAP1 DUP2 AND DUP6 MSTORE SWAP1 DUP14 ADD MLOAD AND DUP13 DUP5 ADD MSTORE SWAP3 DUP12 ADD SWAP3 SWAP2 DUP11 ADD SWAP2 PUSH1 0x1 ADD PUSH2 0x2E29 JUMP JUMPDEST POP POP SWAP7 DUP10 ADD SWAP7 SWAP5 POP POP SWAP2 DUP8 ADD SWAP2 PUSH1 0x1 ADD PUSH2 0x2E07 JUMP JUMPDEST POP SWAP2 SWAP10 SWAP9 POP POP POP POP POP POP POP POP POP JUMP JUMPDEST PUSH1 0x0 PUSH1 0x20 DUP1 DUP4 DUP6 SUB SLT ISZERO PUSH2 0x2E92 JUMPI PUSH1 0x0 DUP1 REVERT JUMPDEST DUP3 CALLDATALOAD PUSH1 0x1 PUSH1 0x1 PUSH1 0x40 SHL SUB DUP1 DUP3 GT ISZERO PUSH2 0x2EA9 JUMPI PUSH1 0x0 DUP1 REVERT JUMPDEST DUP2 DUP6 ADD SWAP2 POP DUP6 PUSH1 0x1F DUP4 ADD SLT PUSH2 0x2EBD JUMPI PUSH1 0x0 DUP1 REVERT JUMPDEST DUP2 CALLDATALOAD PUSH2 0x2ECB PUSH2 0x2CE9 DUP3 PUSH2 0x2C0A JUMP JUMPDEST DUP2 DUP2 MSTORE PUSH1 0x5 SWAP2 SWAP1 SWAP2 SHL DUP4 ADD DUP5 ADD SWAP1 DUP5 DUP2 ADD SWAP1 DUP9 DUP4 GT ISZERO PUSH2 0x2EEA JUMPI PUSH1 0x0 DUP1 REVERT JUMPDEST DUP6 DUP6 ADD JUMPDEST DUP4 DUP2 LT ISZERO PUSH2 0x2F81 JUMPI DUP1 CALLDATALOAD DUP6 DUP2 GT ISZERO PUSH2 0x2F06 JUMPI PUSH1 0x0 DUP1 DUP2 REVERT JUMPDEST DUP7 ADD PUSH1 0x3F DUP2 ADD DUP12 SGT PUSH2 0x2F18 JUMPI PUSH1 0x0 DUP1 DUP2 REVERT JUMPDEST DUP8 DUP2 ADD CALLDATALOAD PUSH1 0x40 PUSH2 0x2F2A PUSH2 0x2CE9 DUP4 PUSH2 0x2C0A JUMP JUMPDEST DUP3 DUP2 MSTORE PUSH1 0x6 SWAP3 SWAP1 SWAP3 SHL DUP4 ADD DUP2 ADD SWAP2 DUP11 DUP2 ADD SWAP1 DUP15 DUP5 GT ISZERO PUSH2 0x2F4A JUMPI PUSH1 0x0 DUP1 DUP2 REVERT JUMPDEST SWAP4 DUP3 ADD SWAP4 JUMPDEST DUP4 DUP6 LT ISZERO PUSH2 0x2F70 JUMPI PUSH2 0x2F61 DUP16 DUP7 PUSH2 0x2C2D JUMP JUMPDEST DUP3 MSTORE SWAP4 DUP3 ADD SWAP4 SWAP1 DUP12 ADD SWAP1 PUSH2 0x2F4F JUMP JUMPDEST DUP8 MSTORE POP POP POP SWAP3 DUP8 ADD SWAP3 POP DUP7 ADD PUSH2 0x2EEE JUMP JUMPDEST POP SWAP9 SWAP8 POP POP POP POP POP POP POP POP JUMP JUMPDEST PUSH1 0x0 DUP1 PUSH1 0x0 PUSH1 0x60 DUP5 DUP7 SUB SLT ISZERO PUSH2 0x2FA3 JUMPI PUSH1 0x0 DUP1 REVERT JUMPDEST PUSH2 0x2FAC DUP5 PUSH2 0x2AAF JUMP JUMPDEST SWAP3 POP PUSH2 0x2FBA PUSH1 0x20 DUP6 ADD PUSH2 0x2AAF JUMP JUMPDEST SWAP2 POP PUSH1 0x40 DUP5 ADD CALLDATALOAD SWAP1 POP SWAP3 POP SWAP3 POP SWAP3 JUMP JUMPDEST PUSH1 0x0 PUSH1 0x20 DUP3 DUP5 SUB SLT ISZERO PUSH2 0x2FDC JUMPI PUSH1 0x0 DUP1 REVERT JUMPDEST PUSH2 0x1379 DUP3 PUSH2 0x2C8A JUMP JUMPDEST PUSH1 0x0 DUP1 PUSH1 0x0 PUSH1 0x60 DUP5 DUP7 SUB SLT ISZERO PUSH2 0x2FFA JUMPI PUSH1 0x0 DUP1 REVERT JUMPDEST PUSH2 0x3003 DUP5 PUSH2 0x2AAF JUMP JUMPDEST SWAP3 POP PUSH2 0x3011 PUSH1 0x20 DUP6 ADD PUSH2 0x2AAF JUMP JUMPDEST SWAP2 POP PUSH2 0x301F PUSH1 0x40 DUP6 ADD PUSH2 0x2AAF JUMP JUMPDEST SWAP1 POP SWAP3 POP SWAP3 POP SWAP3 JUMP JUMPDEST PUSH1 0x0 PUSH1 0x20 DUP3 DUP5 SUB SLT ISZERO PUSH2 0x303A JUMPI PUSH1 0x0 DUP1 REVERT JUMPDEST DUP2 CALLDATALOAD PUSH4 0xFFFFFFFF DUP2 AND DUP2 EQ PUSH2 0x1379 JUMPI PUSH1 0x0 DUP1 REVERT JUMPDEST PUSH1 0x0 PUSH1 0x20 DUP3 DUP5 SUB SLT ISZERO PUSH2 0x3060 JUMPI PUSH1 0x0 DUP1 REVERT JUMPDEST DUP2 MLOAD DUP1 ISZERO ISZERO DUP2 EQ PUSH2 0x1379 JUMPI PUSH1 0x0 DUP1 REVERT JUMPDEST PUSH4 0x4E487B71 PUSH1 0xE0 SHL PUSH1 0x0 MSTORE PUSH1 0x21 PUSH1 0x4 MSTORE PUSH1 0x24 PUSH1 0x0 REVERT JUMPDEST PUSH12 0xFFFFFFFFFFFFFFFFFFFFFFFF NOT PUSH1 0x60 SWAP4 DUP5 SHL DUP2 AND DUP3 MSTORE SWAP2 SWAP1 SWAP3 SHL AND PUSH1 0x14 DUP3 ADD MSTORE PUSH1 0x28 ADD SWAP1 JUMP JUMPDEST PUSH4 0x4E487B71 PUSH1 0xE0 SHL PUSH1 0x0 MSTORE PUSH1 0x11 PUSH1 0x4 MSTORE PUSH1 0x24 PUSH1 0x0 REVERT JUMPDEST PUSH1 0x0 DUP3 PUSH2 0x30E0 JUMPI PUSH4 0x4E487B71 PUSH1 0xE0 SHL PUSH1 0x0 MSTORE PUSH1 0x12 PUSH1 0x4 MSTORE PUSH1 0x24 PUSH1 0x0 REVERT JUMPDEST POP DIV SWAP1 JUMP JUMPDEST PUSH1 0x0 DUP2 PUSH1 0x0 NOT DIV DUP4 GT DUP3 ISZERO ISZERO AND ISZERO PUSH2 0x30FF JUMPI PUSH2 0x30FF PUSH2 0x30AD JUMP JUMPDEST POP MUL SWAP1 JUMP JUMPDEST PUSH4 0x4E487B71 PUSH1 0xE0 SHL PUSH1 0x0 MSTORE PUSH1 0x1 PUSH1 0x4 MSTORE PUSH1 0x24 PUSH1 0x0 REVERT JUMPDEST PUSH4 0x4E487B71 PUSH1 0xE0 SHL PUSH1 0x0 MSTORE PUSH1 0x32 PUSH1 0x4 MSTORE PUSH1 0x24 PUSH1 0x0 REVERT JUMPDEST PUSH1 0x0 PUSH1 0x1 DUP3 ADD PUSH2 0x3142 JUMPI PUSH2 0x3142 PUSH2 0x30AD JUMP JUMPDEST POP PUSH1 0x1 ADD SWAP1 JUMP JUMPDEST PUSH1 0x0 DUP3 NOT DUP3 GT ISZERO PUSH2 0x315C JUMPI PUSH2 0x315C PUSH2 0x30AD JUMP JUMPDEST POP ADD SWAP1 JUMP JUMPDEST DUP1 MLOAD PUSH10 0xFFFFFFFFFFFFFFFFFFFF DUP2 AND DUP2 EQ PUSH2 0x2A8F JUMPI PUSH1 0x0 DUP1 REVERT JUMPDEST PUSH1 0x0 DUP1 PUSH1 0x0 DUP1 PUSH1 0x0 PUSH1 0xA0 DUP7 DUP9 SUB SLT ISZERO PUSH2 0x3193 JUMPI PUSH1 0x0 DUP1 REVERT JUMPDEST PUSH2 0x319C DUP7 PUSH2 0x3161 JUMP JUMPDEST SWAP5 POP PUSH1 0x20 DUP7 ADD MLOAD SWAP4 POP PUSH1 0x40 DUP7 ADD MLOAD SWAP3 POP PUSH1 0x60 DUP7 ADD MLOAD SWAP2 POP PUSH2 0x31BF PUSH1 0x80 DUP8 ADD PUSH2 0x3161 JUMP JUMPDEST SWAP1 POP SWAP3 SWAP6 POP SWAP3 SWAP6 SWAP1 SWAP4 POP JUMP JUMPDEST PUSH1 0x0 PUSH1 0x20 DUP3 DUP5 SUB SLT ISZERO PUSH2 0x31DD JUMPI PUSH1 0x0 DUP1 REVERT JUMPDEST DUP2 MLOAD PUSH1 0xFF DUP2 AND DUP2 EQ PUSH2 0x1379 JUMPI PUSH1 0x0 DUP1 REVERT JUMPDEST PUSH1 0x1 DUP2 DUP2 JUMPDEST DUP1 DUP6 GT ISZERO PUSH2 0x3229 JUMPI DUP2 PUSH1 0x0 NOT DIV DUP3 GT ISZERO PUSH2 0x320F JUMPI PUSH2 0x320F PUSH2 0x30AD JUMP JUMPDEST DUP1 DUP6 AND ISZERO PUSH2 0x321C JUMPI SWAP2 DUP2 MUL SWAP2 JUMPDEST SWAP4 DUP5 SHR SWAP4 SWAP1 DUP1 MUL SWAP1 PUSH2 0x31F3 JUMP JUMPDEST POP SWAP3 POP SWAP3 SWAP1 POP JUMP JUMPDEST PUSH1 0x0 DUP3 PUSH2 0x3240 JUMPI POP PUSH1 0x1 PUSH2 0x72A JUMP JUMPDEST DUP2 PUSH2 0x324D JUMPI POP PUSH1 0x0 PUSH2 0x72A JUMP JUMPDEST DUP2 PUSH1 0x1 DUP2 EQ PUSH2 0x3263 JUMPI PUSH1 0x2 DUP2 EQ PUSH2 0x326D JUMPI PUSH2 0x3289 JUMP JUMPDEST PUSH1 0x1 SWAP2 POP POP PUSH2 0x72A JUMP JUMPDEST PUSH1 0xFF DUP5 GT ISZERO PUSH2 0x327E JUMPI PUSH2 0x327E PUSH2 0x30AD JUMP JUMPDEST POP POP PUSH1 0x1 DUP3 SHL PUSH2 0x72A JUMP JUMPDEST POP PUSH1 0x20 DUP4 LT PUSH2 0x133 DUP4 LT AND PUSH1 0x4E DUP5 LT PUSH1 0xB DUP5 LT AND OR ISZERO PUSH2 0x32AC JUMPI POP DUP2 DUP2 EXP PUSH2 0x72A JUMP JUMPDEST PUSH2 0x32B6 DUP4 DUP4 PUSH2 0x31EE JUMP JUMPDEST DUP1 PUSH1 0x0 NOT DIV DUP3 GT ISZERO PUSH2 0x32CA JUMPI PUSH2 0x32CA PUSH2 0x30AD JUMP JUMPDEST MUL SWAP4 SWAP3 POP POP POP JUMP JUMPDEST PUSH1 0x0 PUSH2 0x1379 PUSH1 0xFF DUP5 AND DUP4 PUSH2 0x3231 JUMP JUMPDEST PUSH1 0x0 DUP3 DUP3 LT ISZERO PUSH2 0x32F3 JUMPI PUSH2 0x32F3 PUSH2 0x30AD JUMP JUMPDEST POP SUB SWAP1 JUMP INVALID LOG2 PUSH5 0x6970667358 0x22 SLT KECCAK256 0xC2 PUSH9 0xADEC4994263373B401 STOP CALLER 0xB6 CODECOPY 0xD1 0xB0 0xE4 0xCF DUP3 STATICCALL 0xFC 0xBC 0xB6 0xD3 LOG1 PUSH28 0x365908702064736F6C634300080D0033000000000000000000000000 ",
  "sha1": "a5180b99b49ca185f6e38dab191ae224dc14cfae",
  "source": "// SPDX-License-Identifier: MIT\n// Beef MarketPlace Contracts v0.0.0 hello@mcdu.com\n\npragma solidity ^0.8.0;\n\nimport \"@chainlink/contracts/src/v0.8/interfaces/AggregatorV3Interface.sol\";\nimport \"../agnostic/Array.sol\";\nimport \"../Repository/Repository.sol\";\nimport \"./QuoteLib.sol\";\nimport \"../agnostic/UIntConverter.sol\";\n\nbytes32 constant QUOTATOR = keccak256(\"Quotator\");\n\ncontract Quotator is RepositoryContract,UIntConverter {\n\n    function id() public view returns (bytes32) {return QUOTATOR;}\n\n    /////////////////////////////////////////////////////////////////////////////////////////\n    //      event\n    /////////////////////////////////////////////////////////////////////////////////////////\n    event Quoted(\n        address indexed left_,\n        address indexed right_,\n        QuoteSource source_,\n        uint256 _quotemin_,\n        uint256 _quoteavg_,\n        uint256 quotemax_\n    );\n    function _quoteChanged(address left_,address right_,uint256 quotemin_,uint256 quoteavg_,uint256 quotemax_) internal virtual\n    {\n        //address(rep).call(abi.encodeWithSelector(bytes4(keccak256(\"_quoteChanged(address,address,uint256,uint256,uint256)\")), left_,right_,quotemin_,quoteavg_,quotemax_));\n    }\n \n\n\n    constructor(Repository rep_) RepositoryContract(rep_) {\n    }\n\n    //function _liquidate() internal virtual override {}\n\n    uint256 constant MAXSTACKCALL = 20;\n    using Array for address[];\n    mapping(bytes32 => QuoteInfo) private _quotes;\n    mapping(address => address[]) private _quotetoquotes;\n\n    mapping(bytes32 => AggregatorV3Interface) private _chainlinks;\n\n    /////////////////////////////////////////////////////////////////////////////////////////\n    //      event for the Quotator Bot\n    /////////////////////////////////////////////////////////////////////////////////////////\n    event Unresolved(address left_, address right_);\n    event Resolved(address left_, address right_);\n\n    /////////////////////////////////////////////////////////////////////////////////////////\n    //      Quote\n    /////////////////////////////////////////////////////////////////////////////////////////\n\n    function __set(QuoteInfo memory quote_) private {\n        bytes32 _key = keccak256(\n            abi.encodePacked(quote_._ref._left, quote_._ref._right)\n        );\n        QuoteInfo memory _quote = _quotes[_key];\n        if (_quote._source != quote_._source) {\n            _clear(quote_._ref._left, quote_._ref._right);\n            _quote._ref._left = quote_._ref._left;\n            _quote._ref._right = quote_._ref._right;\n            _quote._source = quote_._source;\n            _quotetoquotes[quote_._ref._left].insert(quote_._ref._right);\n            _quotetoquotes[quote_._ref._right].insert(quote_._ref._left);\n        }\n        _quote._timestamp = bytes4(bytes32(block.number));\n        if (\n            _quote._quotemin == quote_._quotemin &&\n            _quote._quoteavg == quote_._quoteavg &&\n            _quote._quotemax == quote_._quotemax\n        ) return;\n        _quote._quotemin = quote_._quotemin;\n        _quote._quoteavg = quote_._quoteavg;\n        _quote._quotemax = quote_._quotemax;\n        _quotes[_key] = _quote;\n    }\n\n    function _clear(address left_, address right_)\n        private\n    {\n        bytes32 _key = keccak256(abi.encodePacked(left_, right_));\n        QuoteInfo memory _quote = _quotes[_key];\n        if (_quote._source == QuoteSource.None) return;\n        else if (_quote._source == QuoteSource.ChainLink)\n            __chainlinkClear(left_, right_);\n        //else if (_quote._source==QuoteSource.ComplexStatic||_quote._source==QuoteSource.ComplexDynamic)\n        //    __complexClear(left_,right_);\n        _quotetoquotes[_quote._ref._left].remove(_quote._ref._right);\n        _quotetoquotes[_quote._ref._right].remove(_quote._ref._left);\n\n        delete _quotes[_key];\n    }\n\n    /////////////////////////////////////////////////////////////////////////////////////////\n    //      ChainLink\n    /////////////////////////////////////////////////////////////////////////////////////////\n\n    function chainlinkSet(\n        address left_,\n        address right_,\n        address feedaddress_\n    ) external onlyContractsOrOperators {\n        bytes32 _key = keccak256(abi.encodePacked(left_, right_));\n\n        AggregatorV3Interface _feed = AggregatorV3Interface(feedaddress_);\n        _chainlinks[_key] = _feed;\n\n        QuoteInfo memory _quote;\n        _quote._ref._left = left_;\n        _quote._ref._right = right_;\n        _quote._source = QuoteSource.ChainLink;\n        (\n            uint256 _quotemin,\n            uint256 _quoteavg,\n            uint256 _quotemax\n        ) = __chainlinkReadOnly(_quote);\n        _quote._quotemin = UInt256ToUInt64(_quotemin);\n        _quote._quoteavg = UInt256ToUInt64(_quoteavg);\n        _quote._quotemax = UInt256ToUInt64(_quotemax);\n        __set(_quote);\n    }\n\n    function __chainlinkClear(address left_, address right_) private {\n        bytes32 _key = keccak256(abi.encodePacked(left_, right_));\n        delete _chainlinks[_key];\n    }\n\n    function __chainlinkReadOnly(QuoteInfo memory quote_)\n        private\n        view\n        returns (\n            uint256,\n            uint256,\n            uint256\n        )\n    {\n        bytes32 _key = keccak256(\n            abi.encodePacked(quote_._ref._left, quote_._ref._right)\n        );\n        (, int256 __answer, , , ) = _chainlinks[_key].latestRoundData();\n        require(__answer > 0, \"Chainlink quote must be positive\");\n        uint256 _answer = uint256(__answer);\n        _answer *= (10**18) / 10**_chainlinks[_key].decimals();\n        return (uint256(_answer), uint256(_answer), uint256(_answer));\n    }\n\n    function __chainlinkRead(QuoteInfo memory quote_)\n        private\n        returns (\n            uint256,\n            uint256,\n            uint256\n        )\n    {\n        if (quote_._timestamp != bytes4(bytes32(block.number))) {\n            (\n                uint256 _quotemin,\n                uint256 _quoteavg,\n                uint256 _quotemax\n            ) = __chainlinkReadOnly(quote_);\n            quote_._quotemin = UInt256ToUInt64(_quotemin);\n            quote_._quoteavg = UInt256ToUInt64(_quoteavg);\n            quote_._quotemax = UInt256ToUInt64(_quotemax);\n            __set(quote_);\n        }\n        return (\n            UInt64ToUInt256(quote_._quotemin),\n            UInt64ToUInt256(quote_._quoteavg),\n            UInt64ToUInt256(quote_._quotemax)\n        );\n    }\n\n    /////////////////////////////////////////////////////////////////////////////////////////\n    //      Static\n    /////////////////////////////////////////////////////////////////////////////////////////\n\n    function staticSet(\n        address left_,\n        address right_,\n        uint256 quote_\n    ) external onlyContractsOrOperators {\n        QuoteInfo memory _quote;\n        _quote._ref._left = left_;\n        _quote._ref._right = right_;\n        _quote._source = QuoteSource.Static;\n        _quote._quotemin = _quote._quoteavg = _quote._quotemax = UIntConverter\n            .UInt256ToUInt64(quote_);\n        __set(_quote);\n    }\n\n    function __staticRead(QuoteInfo memory _quote)\n        private\n        view\n        returns (\n            uint256,\n            uint256,\n            uint256\n        )\n    {\n        return (\n            UInt64ToUInt256(_quote._quotemin),\n            UInt64ToUInt256(_quote._quoteavg),\n            UInt64ToUInt256(_quote._quotemax)\n        );\n    }\n\n    /////////////////////////////////////////////////////////////////////////////////////////\n    //      Static\n    /////////////////////////////////////////////////////////////////////////////////////////\n\n    function internalMultiSet(QuoteInfo[] memory quotes_)\n        external\n        onlyContractsOrOperators\n    {\n        for (uint256 i; i < quotes_.length; i++)\n            internalSet(\n                quotes_[i]._ref._left,\n                quotes_[i]._ref._right,\n                quotes_[i]._quotemin,\n                quotes_[i]._quoteavg,\n                quotes_[i]._quotemax\n            );\n    }\n\n    function internalSet(\n        address left_,\n        address right_,\n        uint256 quotemin_,\n        uint256 quoteavg_,\n        uint256 quotemax_\n    ) public onlyContractsOrOperators {\n        QuoteInfo memory _quote;\n        _quote._ref._left = left_;\n        _quote._ref._right = right_;\n        _quote._source = QuoteSource.Internal;\n        _quote._quotemin = UInt256ToUInt64(quotemin_);\n        _quote._quoteavg = UInt256ToUInt64(quoteavg_);\n        _quote._quotemax = UInt256ToUInt64(quotemax_);\n        __set(_quote);\n    }\n\n    function __internalRead(QuoteInfo memory _quote)\n        private\n        view\n        returns (\n            uint256,\n            uint256,\n            uint256\n        )\n    {\n        return (\n            UInt64ToUInt256(_quote._quotemin),\n            UInt64ToUInt256(_quote._quoteavg),\n            UInt64ToUInt256(_quote._quotemax)\n        );\n    }\n\n    /////////////////////////////////////////////////////////////////////////////////////////\n    //      Complex\n    /////////////////////////////////////////////////////////////////////////////////////////\n\n    /*\n    struct QuoteRefList {\n        QuoteRef[] _list;\n    }\n    struct QuoteRefConv {\n        QuoteRefList[] _convs;\n    }\n\n    mapping(address => mapping(address => QuoteRef[][])) private _complexs;\n\n    function complexDynamicMultiSet(QuoteRef[][][] memory convs_) public onlyContractsOrOperators {\n        for (uint i;i<convs_.length;i++)\n            complexDynamicSet(convs_[i]);\n    }\n\n    function complexDynamicSet(QuoteRef[][] memory convs_) public onlyContractsOrOperators {\n\n        if (convs_.length==0) return;\n        if (convs_[0].length==0) return;\n\n\n        QuoteInfo memory _quote;\n        _quote._ref._left = convs_[0][0]._left;\n        _quote._ref._right = convs_[0][convs_[0].length-1]._right;\n        _quote._source = QuoteSource.ComplexDynamic;\n        for (uint i; i<convs_.length;i++)\n        {\n            if (convs_[i].length==0)\n                continue;\n            _complexs[_quote._ref._left][_quote._ref._right].push();\n            for (uint j;j<convs_[i].length;j++)\n            {\n                _complexs[_quote._ref._left][_quote._ref._right][i].push();\n                _complexs[_quote._ref._left][_quote._ref._right][i][j] = convs_[i][j];\n            }\n        }\n        (_quote._quotemin,_quote._quoteavg,_quote._quotemax) = __complexReadOnly(_quote);\n        __set(_quote);\n    }\n    function complexStaticMultiSet(QuoteRef[][][] memory convs_) public onlyContractsOrOperators {\n        for (uint i;i<convs_.length;i++)\n            complexStaticSet(convs_[i]);\n    }\n    function complexStaticSet(QuoteRef[][] memory convs_) public onlyContractsOrOperators {\n\n        if (convs_.length==0) return;\n        if (convs_[0].length==0) return;\n\n        QuoteInfo memory _quote;\n        _quote._ref._left = convs_[0][0]._left;\n        _quote._ref._right = convs_[0][convs_[0].length-1]._right;\n        _quote._source = QuoteSource.ComplexStatic;\n        for (uint i; i<convs_.length;i++)\n        {\n            _complexs[_quote._ref._left][_quote._ref._right].push();\n            for (uint j;j<convs_[i].length;j++)\n            {\n                _complexs[_quote._ref._left][_quote._ref._right][i].push();\n                _complexs[_quote._ref._left][_quote._ref._right][i][j] = convs_[i][j];\n            }\n        }\n        (_quote._quotemin,_quote._quoteavg,_quote._quotemax) = __complexReadOnly(_quote);\n        __set(_quote);\n    }\n    function complexGet(address left_, address right_) public view returns (QuoteRef[][] memory)\n    {\n        return _complexs[left_][right_];\n    }\n    function __complexClear(address left_, address right_) private\n    {\n        delete _complexs[left_][right_];\n    }*/\n    /*function __complexReadOnly(QuoteInfo memory quote_)\n        private view \n        returns (uint256,uint256,uint256)\n    {\n        return ___complexReadOnly(_complexs[quote_._ref._left][quote_._ref._right]);\n    }*/\n    function complexReadOnly(QuoteRef[][] memory _convs)\n        external\n        view\n        returns (\n            uint256,\n            uint256,\n            uint256\n        )\n    {\n        uint256 _quotemin = 0;\n        uint256 _quoteavg = 0;\n        uint256 _quoteavgcount = 0;\n        uint256 _quotemax = 0;\n        for (uint256 i; i < _convs.length; i++) {\n            uint256 __quotemin = 10**18;\n            uint256 __quoteavg = 10**18;\n            uint256 __quotemax = 10**18;\n            for (uint256 j = 0; j < _convs[i].length; j++) {\n                QuoteRef memory _ref = _convs[i][j];\n                (\n                    uint256 ___quotemin,\n                    uint256 ___quoteavg,\n                    uint256 ___quotemax\n                ) = readOnly(_ref._left, _ref._right);\n                if (___quoteavg == 0) return (0, 0, 0);\n                __quotemin = (___quotemin * __quotemin) / 10**18;\n                __quoteavg = (___quoteavg * __quoteavg) / 10**18;\n                __quotemax = (___quotemax * __quotemax) / 10**18;\n            }\n            if (_quotemin == 0 || _quotemin > __quotemin)\n                _quotemin = __quotemin;\n            if (_quotemax == 0 || _quotemax < __quotemax)\n                _quotemax = __quotemax;\n            if (_quoteavgcount == 0) _quoteavg = __quoteavg;\n            else _quoteavg += __quoteavg;\n            _quoteavgcount++;\n        }\n\n        _quoteavg /= _quoteavgcount;\n        return (_quotemin, _quoteavg, _quotemax);\n    }\n\n    function __complexSearch(\n        address current_,\n        address dest_,\n        uint256 callstack_,\n        QuoteRef[] memory pathused_\n    )\n        private\n        view\n        returns (\n            QuoteRef[][] memory complex_ // TODO , uint maxquote, uint minquote)\n        )\n    {\n        address[] memory __quotes = _quotetoquotes[current_];\n        complex_ = new QuoteRef[][](0);\n        for (uint256 i = 0; i < __quotes.length; i++) {\n            uint256 j;\n            // we check if the conv isnt already used in path / left to right but also right to left\n            for (j = 0; j < pathused_.length; j++)\n                if (\n                    (pathused_[j]._left == current_ &&\n                        pathused_[j]._right == __quotes[i]) ||\n                    (pathused_[j]._right == current_ &&\n                        pathused_[j]._left == __quotes[i])\n                ) break;\n            // we jump to next if used\n            if (j < pathused_.length) continue;\n\n            // did we found the resolution\n            if (__quotes[i] == dest_) {\n                QuoteInfo storage _quote = _quotes[\n                    keccak256(abi.encodePacked(current_, dest_))\n                ];\n                if (\n                    (_quote._source != QuoteSource.ComplexStatic) &&\n                    (_quote._source != QuoteSource.ComplexDynamic)\n                ) {\n                    QuoteRef[] memory newresolution_ = new QuoteRef[](\n                        pathused_.length + 1\n                    );\n                    // returns the path + this node\n                    for (j = 0; j < pathused_.length; j++)\n                        newresolution_[j] = pathused_[j];\n                    newresolution_[j]._left = current_;\n                    newresolution_[j]._right = dest_;\n\n                    QuoteRef[][] memory newcomplex_ = new QuoteRef[][](\n                        complex_.length + 1\n                    );\n                    for (j = 0; j < complex_.length; j++)\n                        newcomplex_[j] = complex_[j];\n                    newcomplex_[complex_.length] = newresolution_;\n\n                    complex_ = newcomplex_;\n                }\n            }\n            if (callstack_ == 0)\n                // we stop because if we did the max recursive, we break to check the opposite conversion if possible\n                break;\n            // we call recursive add our node to path\n            QuoteRef[] memory _newpathused = new QuoteRef[](\n                pathused_.length + 1\n            );\n            for (j = 0; j < pathused_.length; j++)\n                _newpathused[j] = pathused_[j];\n            _newpathused[j]._left = current_;\n            _newpathused[j]._right = __quotes[i];\n            QuoteRef[][] memory childcomplex_ = __complexSearch(\n                __quotes[i],\n                dest_,\n                callstack_ - 1,\n                _newpathused\n            );\n            if (childcomplex_.length > 0) {\n                QuoteRef[][] memory newcomplex_ = new QuoteRef[][](\n                    childcomplex_.length + complex_.length\n                );\n                for (j = 0; j < complex_.length; j++)\n                    newcomplex_[j] = complex_[j];\n                for (j = 0; j < childcomplex_.length; j++)\n                    newcomplex_[complex_.length + j] = childcomplex_[j];\n\n                complex_ = newcomplex_;\n            }\n        }\n\n        return complex_;\n    }\n\n    function complexSearch(address left_, address right_)\n        public\n        view\n        returns (QuoteRef[][] memory complex_)\n    {\n        return __complexSearch(left_, right_, MAXSTACKCALL, new QuoteRef[](0));\n    }\n\n    /*\n    function __complexRead(QuoteInfo memory quote_)\n        private\n        returns (uint256,uint256,uint256)\n    {\n        if (quote_._timestamp==block.number)\n            return (quote_._quotemin,quote_._quoteavg,quote_._quotemax);\n        (uint256 _quotemin,uint256 _quoteavg,uint256 _quotemax) = __complexReadOnly(quote_);\n        if (_quoteavg==0)\n        {\n            require(quote_._source == QuoteSource.ComplexDynamic,\"Quote Complex Static unresolved\");\n            //_quoteval = __complexSearchAndRead(quote_,_complexs[quote_._left][quote_._right]);\n        }\n        if (_quoteavg==0)\n        {\n            if (quote_._source == QuoteSource.ComplexDynamic)\n                clear(quote_._ref._left,quote_._ref._right);\n            return (0,0,0);\n        }\n        quote_._quotemin = _quotemin;\n        quote_._quoteavg = _quoteavg;\n        quote_._quotemax = _quotemax;\n        __set(quote_);\n        return (_quotemin,_quoteavg,_quotemax);\n    }*/\n\n    /////////////////////////////////////////////////////////////////////////////////////////\n    //      Quote\n    /////////////////////////////////////////////////////////////////////////////////////////\n    function readOnly(bytes32 left_, bytes32 right_)\n        public\n        view\n        returns (\n            uint256,\n            uint256,\n            uint256\n        )\n    {\n    }\n\n    function readOnly(address left_, address right_)\n        public\n        view\n        returns (\n            uint256,\n            uint256,\n            uint256\n        )\n    {\n        bytes32 _key = keccak256(abi.encodePacked(left_, right_));\n        uint256 _quotemin = 0;\n        uint256 _quoteavg = 0;\n        uint256 _quotemax = 0;\n        QuoteInfo memory _quote = _quotes[_key];\n        if (_quote._source == QuoteSource.ChainLink)\n            (_quotemin, _quoteavg, _quotemax) = __chainlinkReadOnly(_quote);\n        else if (_quote._source == QuoteSource.Static)\n            (_quotemin, _quoteavg, _quotemax) = __staticRead(_quote);\n        else if (_quote._source == QuoteSource.Internal)\n            (_quotemin, _quoteavg, _quotemax) = __internalRead(_quote);\n        //else if (_quote._source == QuoteSource.ComplexStatic ||_quote._source == QuoteSource.ComplexDynamic)\n        //    return __complexReadOnly(_quote);\n        if (_quoteavg != 0) {\n            return (_quotemin, _quoteavg, _quotemax);\n        }\n\n        _key = keccak256(abi.encodePacked(right_, left_));\n        _quote = _quotes[_key];\n        _quotemin = 0;\n        _quoteavg = 0;\n        _quotemax = 0;\n        if (_quote._source == QuoteSource.ChainLink)\n            (_quotemin, _quoteavg, _quotemax) = __chainlinkReadOnly(_quote);\n        else if (_quote._source == QuoteSource.Static)\n            (_quotemin, _quoteavg, _quotemax) = __staticRead(_quote);\n        else if (_quote._source == QuoteSource.Internal)\n            (_quotemin, _quoteavg, _quotemax) = __internalRead(_quote);\n        //else if (_quote._source == QuoteSource.ComplexStatic ||_quote._source == QuoteSource.ComplexDynamic)\n        //    (_quotemin,_quoteavg,_quotemax) = __complexReadOnly(_quote);\n        if (_quoteavg == 0) return (0, 0, 0);\n        _quotemin = 10**36 / _quotemin;\n        _quoteavg = 10**36 / _quoteavg;\n        _quotemax = 10**36 / _quotemax;\n        return (_quotemin, _quoteavg, _quotemax);\n    }\n\n    function read(bytes32 left_, bytes32 right_)\n        public\n        returns (\n            uint256,\n            uint256,\n            uint256\n        )\n    {\n\n    }\n    function read(address left_, address right_)\n        public\n        returns (\n            uint256,\n            uint256,\n            uint256\n        )\n    {\n        bytes32 _key = keccak256(abi.encodePacked(left_, right_));\n        QuoteInfo storage _quote = _quotes[_key];\n        if (_quote._timestamp == bytes4(bytes32(block.number))) {\n            emit Resolved(left_, right_);\n            return (\n                UInt64ToUInt256(_quote._quotemin),\n                UInt64ToUInt256(_quote._quoteavg),\n                UInt64ToUInt256(_quote._quotemax)\n            );\n        }\n        uint256 _quotemin = 0;\n        uint256 _quoteavg = 0;\n        uint256 _quotemax = 0;\n        if (_quote._source == QuoteSource.ChainLink)\n            (_quotemin, _quoteavg, _quotemax) = __chainlinkRead(_quote);\n        else if (_quote._source == QuoteSource.Static)\n            (_quotemin, _quoteavg, _quotemax) = __staticRead(_quote);\n        else if (_quote._source == QuoteSource.Internal)\n            (_quotemin, _quoteavg, _quotemax) = __internalRead(_quote);\n        //else if (_quote._source == QuoteSource.ComplexStatic ||_quote._source == QuoteSource.ComplexDynamic)\n        //    (_quotemin,_quoteavg,_quotemax) =  __complexRead(_quote);\n        if (_quoteavg != 0) {\n            emit Resolved(left_, right_);\n            return (_quotemin, _quoteavg, _quotemax);\n        }\n        _key = keccak256(abi.encodePacked(right_, left_));\n        _quote = _quotes[_key];\n        _quotemin = 0;\n        _quoteavg = 0;\n        _quotemax = 0;\n        if (_quote._source == QuoteSource.ChainLink)\n            (_quotemin, _quoteavg, _quotemax) = __chainlinkRead(_quote);\n        else if (_quote._source == QuoteSource.Static)\n            (_quotemin, _quoteavg, _quotemax) = __staticRead(_quote);\n        else if (_quote._source == QuoteSource.Internal)\n            (_quotemin, _quoteavg, _quotemax) = __internalRead(_quote);\n        //else if (_quote._source == QuoteSource.ComplexStatic ||_quote._source == QuoteSource.ComplexDynamic)\n        //    (_quotemin,_quoteavg,_quotemax) = __complexRead(_quote);\n        if (_quoteavg == 0) {\n            emit Unresolved(left_, right_);\n            return (0, 0, 0);\n        }\n        _quotemin = 10**36 / _quotemin;\n        _quoteavg = 10**36 / _quoteavg;\n        _quotemax = 10**36 / _quotemax;\n        emit Resolved(left_, right_);\n        return (_quotemin, _quoteavg, _quotemax);\n    }\n\n    function convert(uint256 val_, uint256 quote_)\n        public\n        pure\n        returns (uint256)\n    {\n        return (val_ * quote_) / 10**18;\n    }\n}\n",
  "sourcePath": "contracts/Quote/Quotator.sol",
  "type": "contract"
}