{
  "abi": [
    {
      "inputs": [],
      "name": "collect",
      "outputs": [],
      "stateMutability": "nonpayable",
      "type": "function"
    },
    {
      "stateMutability": "payable",
      "type": "receive"
    }
  ],
  "bytecode": "6080604052348015600f57600080fd5b5060a38061001e6000396000f3fe60806040526004361060205760003560e01c8063e522538114602b57600080fd5b36602657005b600080fd5b348015603657600080fd5b50603d603f565b005b60405133904780156108fc02916000818181858888f19350505050158015606a573d6000803e3d6000fd5b5056fea2646970667358221220e13808b28fb7c204b9836f169342a9f9115abd1b05498f31fa2d6a487de7353664736f6c634300080d0033",
  "bytecodeSha1": "4737688b82c080194f2927f131917b97640ff6ea",
  "compiler": {
    "evm_version": "istanbul",
    "optimizer": {
      "enabled": true,
      "runs": 200
    },
    "version": "0.8.13+commit.abaa5c0e"
  },
  "contractName": "TestStake",
  "language": "Solidity",
  "natspec": {
    "kind": "dev",
    "methods": {},
    "version": 1
  },
  "opcodes": "PUSH1 0x80 PUSH1 0x40 MSTORE PUSH1 0x4 CALLDATASIZE LT PUSH1 0x20 JUMPI PUSH1 0x0 CALLDATALOAD PUSH1 0xE0 SHR DUP1 PUSH4 0xE5225381 EQ PUSH1 0x2B JUMPI PUSH1 0x0 DUP1 REVERT JUMPDEST CALLDATASIZE PUSH1 0x26 JUMPI STOP JUMPDEST PUSH1 0x0 DUP1 REVERT JUMPDEST CALLVALUE DUP1 ISZERO PUSH1 0x36 JUMPI PUSH1 0x0 DUP1 REVERT JUMPDEST POP PUSH1 0x3D PUSH1 0x3F JUMP JUMPDEST STOP JUMPDEST PUSH1 0x40 MLOAD CALLER SWAP1 SELFBALANCE DUP1 ISZERO PUSH2 0x8FC MUL SWAP2 PUSH1 0x0 DUP2 DUP2 DUP2 DUP6 DUP9 DUP9 CALL SWAP4 POP POP POP POP ISZERO DUP1 ISZERO PUSH1 0x6A JUMPI RETURNDATASIZE PUSH1 0x0 DUP1 RETURNDATACOPY RETURNDATASIZE PUSH1 0x0 REVERT JUMPDEST POP JUMP INVALID LOG2 PUSH5 0x6970667358 0x22 SLT KECCAK256 0xE1 CODESIZE ADDMOD 0xB2 DUP16 0xB7 0xC2 DIV 0xB9 DUP4 PUSH16 0x169342A9F9115ABD1B05498F31FA2D6A BASEFEE PUSH30 0xE7353664736F6C634300080D003300000000000000000000000000000000 ",
  "sha1": "24bf9629341e6f2a97d6891c20baa92d39eacac2",
  "source": "// SPDX-License-Identifier: MIT\npragma solidity ^0.8.0;\n\nimport \"@openzeppelin/contracts/utils/Context.sol\";\n\ncontract TestStake is Context {\n    receive() external payable {\n    }\n    function collect() external {\n        //payable(_msgSender()).send(msg.value*2);\n        payable(_msgSender()).transfer(address(this).balance); //\n    }\n\n\n}\n",
  "sourcePath": "contracts/test/TestStake.sol",
  "type": "contract"
}