{
  "abi": [
    {
      "inputs": [],
      "name": "CURRENCY",
      "outputs": [
        {
          "internalType": "bytes32",
          "name": "",
          "type": "bytes32"
        }
      ],
      "stateMutability": "view",
      "type": "function"
    },
    {
      "inputs": [
        {
          "components": [
            {
              "internalType": "int8",
              "name": "granularity",
              "type": "int8"
            },
            {
              "internalType": "bool",
              "name": "nft",
              "type": "bool"
            },
            {
              "internalType": "uint64",
              "name": "features",
              "type": "uint64"
            }
          ],
          "internalType": "struct Token.Info",
          "name": "info_",
          "type": "tuple"
        }
      ],
      "name": "granularity",
      "outputs": [
        {
          "internalType": "uint256",
          "name": "",
          "type": "uint256"
        }
      ],
      "stateMutability": "pure",
      "type": "function"
    },
    {
      "inputs": [
        {
          "internalType": "address",
          "name": "tokenaddress_",
          "type": "address"
        },
        {
          "internalType": "uint256",
          "name": "tokenid_",
          "type": "uint256"
        },
        {
          "internalType": "bool",
          "name": "canfail_",
          "type": "bool"
        }
      ],
      "name": "tokenInfo",
      "outputs": [
        {
          "components": [
            {
              "internalType": "int8",
              "name": "granularity",
              "type": "int8"
            },
            {
              "internalType": "bool",
              "name": "nft",
              "type": "bool"
            },
            {
              "internalType": "uint64",
              "name": "features",
              "type": "uint64"
            }
          ],
          "internalType": "struct Token.Info",
          "name": "info_",
          "type": "tuple"
        }
      ],
      "stateMutability": "view",
      "type": "function"
    },
    {
      "inputs": [
        {
          "internalType": "address",
          "name": "tokenaddress_",
          "type": "address"
        },
        {
          "internalType": "uint256",
          "name": "tokenid_",
          "type": "uint256"
        }
      ],
      "name": "tokenInfo",
      "outputs": [
        {
          "components": [
            {
              "internalType": "int8",
              "name": "granularity",
              "type": "int8"
            },
            {
              "internalType": "bool",
              "name": "nft",
              "type": "bool"
            },
            {
              "internalType": "uint64",
              "name": "features",
              "type": "uint64"
            }
          ],
          "internalType": "struct Token.Info",
          "name": "info_",
          "type": "tuple"
        }
      ],
      "stateMutability": "view",
      "type": "function"
    },
    {
      "inputs": [
        {
          "internalType": "address",
          "name": "tokenaddress_",
          "type": "address"
        },
        {
          "internalType": "bool",
          "name": "canfail_",
          "type": "bool"
        }
      ],
      "name": "tokenInfo",
      "outputs": [
        {
          "components": [
            {
              "internalType": "int8",
              "name": "granularity",
              "type": "int8"
            },
            {
              "internalType": "bool",
              "name": "nft",
              "type": "bool"
            },
            {
              "internalType": "uint64",
              "name": "features",
              "type": "uint64"
            }
          ],
          "internalType": "struct Token.Info",
          "name": "info_",
          "type": "tuple"
        }
      ],
      "stateMutability": "view",
      "type": "function"
    },
    {
      "inputs": [
        {
          "internalType": "address",
          "name": "tokenaddress_",
          "type": "address"
        }
      ],
      "name": "tokenInfo",
      "outputs": [
        {
          "components": [
            {
              "internalType": "int8",
              "name": "granularity",
              "type": "int8"
            },
            {
              "internalType": "bool",
              "name": "nft",
              "type": "bool"
            },
            {
              "internalType": "uint64",
              "name": "features",
              "type": "uint64"
            }
          ],
          "internalType": "struct Token.Info",
          "name": "info_",
          "type": "tuple"
        }
      ],
      "stateMutability": "view",
      "type": "function"
    },
    {
      "inputs": [
        {
          "internalType": "address",
          "name": "tokenaddress_",
          "type": "address"
        },
        {
          "internalType": "uint256",
          "name": "tokenid_",
          "type": "uint256"
        },
        {
          "components": [
            {
              "internalType": "int8",
              "name": "granularity",
              "type": "int8"
            },
            {
              "internalType": "bool",
              "name": "nft",
              "type": "bool"
            },
            {
              "internalType": "uint64",
              "name": "features",
              "type": "uint64"
            }
          ],
          "internalType": "struct Token.Info",
          "name": "infoin_",
          "type": "tuple"
        },
        {
          "internalType": "bool",
          "name": "canfail_",
          "type": "bool"
        }
      ],
      "name": "tokenInfoEx",
      "outputs": [
        {
          "components": [
            {
              "internalType": "int8",
              "name": "granularity",
              "type": "int8"
            },
            {
              "internalType": "bool",
              "name": "nft",
              "type": "bool"
            },
            {
              "internalType": "uint64",
              "name": "features",
              "type": "uint64"
            }
          ],
          "internalType": "struct Token.Info",
          "name": "info_",
          "type": "tuple"
        }
      ],
      "stateMutability": "view",
      "type": "function"
    }
  ],
  "bytecode": "610b4061003a600b82828239805160001a60731461002d57634e487b7160e01b600052600060045260246000fd5b30600052607381538281f3fe73000000000000000000000000000000000000000030146080604052600436106100875760003560e01c8063bb7d88a911610065578063bb7d88a914610109578063cf131f3f1461011c578063f53612191461012f578063f5dab7111461015657600080fd5b80633646b5481461008c578063543af627146100b25780639ba23e1e146100f6575b600080fd5b61009f61009a36600461082f565b610169565b6040519081526020015b60405180910390f35b6100c56100c0366004610867565b6101a7565b60408051825160000b81526020808401511515908201529181015167ffffffffffffffff16908201526060016100a9565b6100c56101043660046108b7565b6106b9565b6100c56101173660046108f7565b61070a565b6100c561012a366004610921565b610733565b61009f7fad3228b676f7d3cd4284a5443f17f1962b36e491b30a40b2405849e597ba5fb581565b6100c5610164366004610958565b61075c565b6000816040015167ffffffffffffffff1660000361018957506000919050565b8151610196906012610989565b6101a190600a610ab0565b92915050565b6040805160608101825260008082526020820181905291810191909152836000036106ae5760111981526001600160a01b0385166101eb57600160408201526106b1565b6040516301ffc9a760e01b8082526001600160a01b038716916301ffc9a79161021691600401610abf565b602060405180830381865afa92505050801561024f575060408051601f3d908101601f1916820190925261024c91810190610ad4565b60015b1561026c57506040810180516102001767ffffffffffffffff1690525b604081015161020016156105d8576040516301ffc9a760e01b81526001600160a01b038616906301ffc9a7906102ad906336372b0760e01b90600401610abf565b602060405180830381865afa1580156102ca573d6000803e3d6000fd5b505050506040513d601f19601f820116820180604052508101906102ee9190610ad4565b156103095760408101805160021767ffffffffffffffff1690525b6040516301ffc9a760e01b81526001600160a01b038616906301ffc9a79061033c90637d0d601b60e11b90600401610abf565b602060405180830381865afa158015610359573d6000803e3d6000fd5b505050506040513d601f19601f8201168201806040525081019061037d9190610ad4565b15610399576040810180516108001767ffffffffffffffff1690525b6040516301ffc9a760e01b81526001600160a01b038616906301ffc9a7906103cc906336c5b61360e01b90600401610abf565b602060405180830381865afa1580156103e9573d6000803e3d6000fd5b505050506040513d601f19601f8201168201806040525081019061040d9190610ad4565b15610429576040810180516110001767ffffffffffffffff1690525b6040516301ffc9a760e01b81526001600160a01b038616906301ffc9a79061045c906315a78eb160e31b90600401610abf565b602060405180830381865afa158015610479573d6000803e3d6000fd5b505050506040513d601f19601f8201168201806040525081019061049d9190610ad4565b156104b9576040810180516120001767ffffffffffffffff1690525b6040516301ffc9a760e01b81526001600160a01b038616906301ffc9a7906104ec9063eeb0050b60e01b90600401610abf565b602060405180830381865afa158015610509573d6000803e3d6000fd5b505050506040513d601f19601f8201168201806040525081019061052d9190610ad4565b15610549576040810180516140001767ffffffffffffffff1690525b6040516301ffc9a760e01b81526001600160a01b038616906301ffc9a79061057690600090600401610abf565b602060405180830381865afa158015610593573d6000803e3d6000fd5b505050506040513d601f19601f820116820180604052508101906105b79190610ad4565b156105d3576040810180516181001767ffffffffffffffff1690525b61064e565b846001600160a01b03166318160ddd6040518163ffffffff1660e01b8152600401602060405180830381865afa925050508015610632575060408051601f3d908101601f1916820190925261062f91810190610af1565b60015b1561064e575060408101805160021767ffffffffffffffff1690525b604081015160ff161580156106605750815b156106a95760405162461bcd60e51b8152602060048201526015602482015274556e7265736f6c76656420746f6b656e207479706560581b604482015260640160405180910390fd5b6106b1565b50815b949350505050565b60408051606081018252600080825260208201819052918101919091526106e384600083856101a7565b6040810151909150610100161561070357610700848483856101a7565b90505b9392505050565b6040805160608101825260008082526020820181905291810191909152610703838360006106b9565b6040805160608101825260008082526020820181905291810191909152610703836000846106b9565b60408051606081018252600080825260208201819052918101919091526101a1826000806106b9565b801515811461079357600080fd5b50565b6000606082840312156107a857600080fd5b6040516060810167ffffffffffffffff82821081831117156107da57634e487b7160e01b600052604160045260246000fd5b81604052829350843591508160000b82146107f457600080fd5b90825260208401359061080682610785565b81602084015260408501359150808216821461082157600080fd5b506040919091015292915050565b60006060828403121561084157600080fd5b6107038383610796565b80356001600160a01b038116811461086257600080fd5b919050565b60008060008060c0858703121561087d57600080fd5b6108868561084b565b93506020850135925061089c8660408701610796565b915060a08501356108ac81610785565b939692955090935050565b6000806000606084860312156108cc57600080fd5b6108d58461084b565b92506020840135915060408401356108ec81610785565b809150509250925092565b6000806040838503121561090a57600080fd5b6109138361084b565b946020939093013593505050565b6000806040838503121561093457600080fd5b61093d8361084b565b9150602083013561094d81610785565b809150509250929050565b60006020828403121561096a57600080fd5b6107038261084b565b634e487b7160e01b600052601160045260246000fd5b60008160000b8360000b6000821282607f038213811516156109ad576109ad610973565b82607f190382128116156109c3576109c3610973565b50019392505050565b600181815b80851115610a075781600019048211156109ed576109ed610973565b808516156109fa57918102915b93841c93908002906109d1565b509250929050565b600082610a1e575060016101a1565b81610a2b575060006101a1565b8160018114610a415760028114610a4b57610a67565b60019150506101a1565b60ff841115610a5c57610a5c610973565b50506001821b6101a1565b5060208310610133831016604e8410600b8410161715610a8a575081810a6101a1565b610a9483836109cc565b8060001904821115610aa857610aa8610973565b029392505050565b600061070360ff841683610a0f565b6001600160e01b031991909116815260200190565b600060208284031215610ae657600080fd5b815161070381610785565b600060208284031215610b0357600080fd5b505191905056fea26469706673582212206f8944177978e58ddd32684f34911878e840be3d06f58a720429f74defaa676564736f6c634300080d0033",
  "bytecodeSha1": "d30d60af1b081761d967829055d895511a7cfb07",
  "compiler": {
    "evm_version": "istanbul",
    "optimizer": {
      "enabled": true,
      "runs": 200
    },
    "version": "0.8.13+commit.abaa5c0e"
  },
  "contractName": "Token",
  "language": "Solidity",
  "natspec": {
    "kind": "dev",
    "methods": {},
    "version": 1
  },
  "opcodes": "PUSH20 0x0 ADDRESS EQ PUSH1 0x80 PUSH1 0x40 MSTORE PUSH1 0x4 CALLDATASIZE LT PUSH2 0x87 JUMPI PUSH1 0x0 CALLDATALOAD PUSH1 0xE0 SHR DUP1 PUSH4 0xBB7D88A9 GT PUSH2 0x65 JUMPI DUP1 PUSH4 0xBB7D88A9 EQ PUSH2 0x109 JUMPI DUP1 PUSH4 0xCF131F3F EQ PUSH2 0x11C JUMPI DUP1 PUSH4 0xF5361219 EQ PUSH2 0x12F JUMPI DUP1 PUSH4 0xF5DAB711 EQ PUSH2 0x156 JUMPI PUSH1 0x0 DUP1 REVERT JUMPDEST DUP1 PUSH4 0x3646B548 EQ PUSH2 0x8C JUMPI DUP1 PUSH4 0x543AF627 EQ PUSH2 0xB2 JUMPI DUP1 PUSH4 0x9BA23E1E EQ PUSH2 0xF6 JUMPI JUMPDEST PUSH1 0x0 DUP1 REVERT JUMPDEST PUSH2 0x9F PUSH2 0x9A CALLDATASIZE PUSH1 0x4 PUSH2 0x82F JUMP JUMPDEST PUSH2 0x169 JUMP JUMPDEST PUSH1 0x40 MLOAD SWAP1 DUP2 MSTORE PUSH1 0x20 ADD JUMPDEST PUSH1 0x40 MLOAD DUP1 SWAP2 SUB SWAP1 RETURN JUMPDEST PUSH2 0xC5 PUSH2 0xC0 CALLDATASIZE PUSH1 0x4 PUSH2 0x867 JUMP JUMPDEST PUSH2 0x1A7 JUMP JUMPDEST PUSH1 0x40 DUP1 MLOAD DUP3 MLOAD PUSH1 0x0 SIGNEXTEND DUP2 MSTORE PUSH1 0x20 DUP1 DUP5 ADD MLOAD ISZERO ISZERO SWAP1 DUP3 ADD MSTORE SWAP2 DUP2 ADD MLOAD PUSH8 0xFFFFFFFFFFFFFFFF AND SWAP1 DUP3 ADD MSTORE PUSH1 0x60 ADD PUSH2 0xA9 JUMP JUMPDEST PUSH2 0xC5 PUSH2 0x104 CALLDATASIZE PUSH1 0x4 PUSH2 0x8B7 JUMP JUMPDEST PUSH2 0x6B9 JUMP JUMPDEST PUSH2 0xC5 PUSH2 0x117 CALLDATASIZE PUSH1 0x4 PUSH2 0x8F7 JUMP JUMPDEST PUSH2 0x70A JUMP JUMPDEST PUSH2 0xC5 PUSH2 0x12A CALLDATASIZE PUSH1 0x4 PUSH2 0x921 JUMP JUMPDEST PUSH2 0x733 JUMP JUMPDEST PUSH2 0x9F PUSH32 0xAD3228B676F7D3CD4284A5443F17F1962B36E491B30A40B2405849E597BA5FB5 DUP2 JUMP JUMPDEST PUSH2 0xC5 PUSH2 0x164 CALLDATASIZE PUSH1 0x4 PUSH2 0x958 JUMP JUMPDEST PUSH2 0x75C JUMP JUMPDEST PUSH1 0x0 DUP2 PUSH1 0x40 ADD MLOAD PUSH8 0xFFFFFFFFFFFFFFFF AND PUSH1 0x0 SUB PUSH2 0x189 JUMPI POP PUSH1 0x0 SWAP2 SWAP1 POP JUMP JUMPDEST DUP2 MLOAD PUSH2 0x196 SWAP1 PUSH1 0x12 PUSH2 0x989 JUMP JUMPDEST PUSH2 0x1A1 SWAP1 PUSH1 0xA PUSH2 0xAB0 JUMP JUMPDEST SWAP3 SWAP2 POP POP JUMP JUMPDEST PUSH1 0x40 DUP1 MLOAD PUSH1 0x60 DUP2 ADD DUP3 MSTORE PUSH1 0x0 DUP1 DUP3 MSTORE PUSH1 0x20 DUP3 ADD DUP2 SWAP1 MSTORE SWAP2 DUP2 ADD SWAP2 SWAP1 SWAP2 MSTORE DUP4 PUSH1 0x0 SUB PUSH2 0x6AE JUMPI PUSH1 0x11 NOT DUP2 MSTORE PUSH1 0x1 PUSH1 0x1 PUSH1 0xA0 SHL SUB DUP6 AND PUSH2 0x1EB JUMPI PUSH1 0x1 PUSH1 0x40 DUP3 ADD MSTORE PUSH2 0x6B1 JUMP JUMPDEST PUSH1 0x40 MLOAD PUSH4 0x1FFC9A7 PUSH1 0xE0 SHL DUP1 DUP3 MSTORE PUSH1 0x1 PUSH1 0x1 PUSH1 0xA0 SHL SUB DUP8 AND SWAP2 PUSH4 0x1FFC9A7 SWAP2 PUSH2 0x216 SWAP2 PUSH1 0x4 ADD PUSH2 0xABF JUMP JUMPDEST PUSH1 0x20 PUSH1 0x40 MLOAD DUP1 DUP4 SUB DUP2 DUP7 GAS STATICCALL SWAP3 POP POP POP DUP1 ISZERO PUSH2 0x24F JUMPI POP PUSH1 0x40 DUP1 MLOAD PUSH1 0x1F RETURNDATASIZE SWAP1 DUP2 ADD PUSH1 0x1F NOT AND DUP3 ADD SWAP1 SWAP3 MSTORE PUSH2 0x24C SWAP2 DUP2 ADD SWAP1 PUSH2 0xAD4 JUMP JUMPDEST PUSH1 0x1 JUMPDEST ISZERO PUSH2 0x26C JUMPI POP PUSH1 0x40 DUP2 ADD DUP1 MLOAD PUSH2 0x200 OR PUSH8 0xFFFFFFFFFFFFFFFF AND SWAP1 MSTORE JUMPDEST PUSH1 0x40 DUP2 ADD MLOAD PUSH2 0x200 AND ISZERO PUSH2 0x5D8 JUMPI PUSH1 0x40 MLOAD PUSH4 0x1FFC9A7 PUSH1 0xE0 SHL DUP2 MSTORE PUSH1 0x1 PUSH1 0x1 PUSH1 0xA0 SHL SUB DUP7 AND SWAP1 PUSH4 0x1FFC9A7 SWAP1 PUSH2 0x2AD SWAP1 PUSH4 0x36372B07 PUSH1 0xE0 SHL SWAP1 PUSH1 0x4 ADD PUSH2 0xABF JUMP JUMPDEST PUSH1 0x20 PUSH1 0x40 MLOAD DUP1 DUP4 SUB DUP2 DUP7 GAS STATICCALL ISZERO DUP1 ISZERO PUSH2 0x2CA JUMPI RETURNDATASIZE PUSH1 0x0 DUP1 RETURNDATACOPY RETURNDATASIZE PUSH1 0x0 REVERT JUMPDEST POP POP POP POP PUSH1 0x40 MLOAD RETURNDATASIZE PUSH1 0x1F NOT PUSH1 0x1F DUP3 ADD AND DUP3 ADD DUP1 PUSH1 0x40 MSTORE POP DUP2 ADD SWAP1 PUSH2 0x2EE SWAP2 SWAP1 PUSH2 0xAD4 JUMP JUMPDEST ISZERO PUSH2 0x309 JUMPI PUSH1 0x40 DUP2 ADD DUP1 MLOAD PUSH1 0x2 OR PUSH8 0xFFFFFFFFFFFFFFFF AND SWAP1 MSTORE JUMPDEST PUSH1 0x40 MLOAD PUSH4 0x1FFC9A7 PUSH1 0xE0 SHL DUP2 MSTORE PUSH1 0x1 PUSH1 0x1 PUSH1 0xA0 SHL SUB DUP7 AND SWAP1 PUSH4 0x1FFC9A7 SWAP1 PUSH2 0x33C SWAP1 PUSH4 0x7D0D601B PUSH1 0xE1 SHL SWAP1 PUSH1 0x4 ADD PUSH2 0xABF JUMP JUMPDEST PUSH1 0x20 PUSH1 0x40 MLOAD DUP1 DUP4 SUB DUP2 DUP7 GAS STATICCALL ISZERO DUP1 ISZERO PUSH2 0x359 JUMPI RETURNDATASIZE PUSH1 0x0 DUP1 RETURNDATACOPY RETURNDATASIZE PUSH1 0x0 REVERT JUMPDEST POP POP POP POP PUSH1 0x40 MLOAD RETURNDATASIZE PUSH1 0x1F NOT PUSH1 0x1F DUP3 ADD AND DUP3 ADD DUP1 PUSH1 0x40 MSTORE POP DUP2 ADD SWAP1 PUSH2 0x37D SWAP2 SWAP1 PUSH2 0xAD4 JUMP JUMPDEST ISZERO PUSH2 0x399 JUMPI PUSH1 0x40 DUP2 ADD DUP1 MLOAD PUSH2 0x800 OR PUSH8 0xFFFFFFFFFFFFFFFF AND SWAP1 MSTORE JUMPDEST PUSH1 0x40 MLOAD PUSH4 0x1FFC9A7 PUSH1 0xE0 SHL DUP2 MSTORE PUSH1 0x1 PUSH1 0x1 PUSH1 0xA0 SHL SUB DUP7 AND SWAP1 PUSH4 0x1FFC9A7 SWAP1 PUSH2 0x3CC SWAP1 PUSH4 0x36C5B613 PUSH1 0xE0 SHL SWAP1 PUSH1 0x4 ADD PUSH2 0xABF JUMP JUMPDEST PUSH1 0x20 PUSH1 0x40 MLOAD DUP1 DUP4 SUB DUP2 DUP7 GAS STATICCALL ISZERO DUP1 ISZERO PUSH2 0x3E9 JUMPI RETURNDATASIZE PUSH1 0x0 DUP1 RETURNDATACOPY RETURNDATASIZE PUSH1 0x0 REVERT JUMPDEST POP POP POP POP PUSH1 0x40 MLOAD RETURNDATASIZE PUSH1 0x1F NOT PUSH1 0x1F DUP3 ADD AND DUP3 ADD DUP1 PUSH1 0x40 MSTORE POP DUP2 ADD SWAP1 PUSH2 0x40D SWAP2 SWAP1 PUSH2 0xAD4 JUMP JUMPDEST ISZERO PUSH2 0x429 JUMPI PUSH1 0x40 DUP2 ADD DUP1 MLOAD PUSH2 0x1000 OR PUSH8 0xFFFFFFFFFFFFFFFF AND SWAP1 MSTORE JUMPDEST PUSH1 0x40 MLOAD PUSH4 0x1FFC9A7 PUSH1 0xE0 SHL DUP2 MSTORE PUSH1 0x1 PUSH1 0x1 PUSH1 0xA0 SHL SUB DUP7 AND SWAP1 PUSH4 0x1FFC9A7 SWAP1 PUSH2 0x45C SWAP1 PUSH4 0x15A78EB1 PUSH1 0xE3 SHL SWAP1 PUSH1 0x4 ADD PUSH2 0xABF JUMP JUMPDEST PUSH1 0x20 PUSH1 0x40 MLOAD DUP1 DUP4 SUB DUP2 DUP7 GAS STATICCALL ISZERO DUP1 ISZERO PUSH2 0x479 JUMPI RETURNDATASIZE PUSH1 0x0 DUP1 RETURNDATACOPY RETURNDATASIZE PUSH1 0x0 REVERT JUMPDEST POP POP POP POP PUSH1 0x40 MLOAD RETURNDATASIZE PUSH1 0x1F NOT PUSH1 0x1F DUP3 ADD AND DUP3 ADD DUP1 PUSH1 0x40 MSTORE POP DUP2 ADD SWAP1 PUSH2 0x49D SWAP2 SWAP1 PUSH2 0xAD4 JUMP JUMPDEST ISZERO PUSH2 0x4B9 JUMPI PUSH1 0x40 DUP2 ADD DUP1 MLOAD PUSH2 0x2000 OR PUSH8 0xFFFFFFFFFFFFFFFF AND SWAP1 MSTORE JUMPDEST PUSH1 0x40 MLOAD PUSH4 0x1FFC9A7 PUSH1 0xE0 SHL DUP2 MSTORE PUSH1 0x1 PUSH1 0x1 PUSH1 0xA0 SHL SUB DUP7 AND SWAP1 PUSH4 0x1FFC9A7 SWAP1 PUSH2 0x4EC SWAP1 PUSH4 0xEEB0050B PUSH1 0xE0 SHL SWAP1 PUSH1 0x4 ADD PUSH2 0xABF JUMP JUMPDEST PUSH1 0x20 PUSH1 0x40 MLOAD DUP1 DUP4 SUB DUP2 DUP7 GAS STATICCALL ISZERO DUP1 ISZERO PUSH2 0x509 JUMPI RETURNDATASIZE PUSH1 0x0 DUP1 RETURNDATACOPY RETURNDATASIZE PUSH1 0x0 REVERT JUMPDEST POP POP POP POP PUSH1 0x40 MLOAD RETURNDATASIZE PUSH1 0x1F NOT PUSH1 0x1F DUP3 ADD AND DUP3 ADD DUP1 PUSH1 0x40 MSTORE POP DUP2 ADD SWAP1 PUSH2 0x52D SWAP2 SWAP1 PUSH2 0xAD4 JUMP JUMPDEST ISZERO PUSH2 0x549 JUMPI PUSH1 0x40 DUP2 ADD DUP1 MLOAD PUSH2 0x4000 OR PUSH8 0xFFFFFFFFFFFFFFFF AND SWAP1 MSTORE JUMPDEST PUSH1 0x40 MLOAD PUSH4 0x1FFC9A7 PUSH1 0xE0 SHL DUP2 MSTORE PUSH1 0x1 PUSH1 0x1 PUSH1 0xA0 SHL SUB DUP7 AND SWAP1 PUSH4 0x1FFC9A7 SWAP1 PUSH2 0x576 SWAP1 PUSH1 0x0 SWAP1 PUSH1 0x4 ADD PUSH2 0xABF JUMP JUMPDEST PUSH1 0x20 PUSH1 0x40 MLOAD DUP1 DUP4 SUB DUP2 DUP7 GAS STATICCALL ISZERO DUP1 ISZERO PUSH2 0x593 JUMPI RETURNDATASIZE PUSH1 0x0 DUP1 RETURNDATACOPY RETURNDATASIZE PUSH1 0x0 REVERT JUMPDEST POP POP POP POP PUSH1 0x40 MLOAD RETURNDATASIZE PUSH1 0x1F NOT PUSH1 0x1F DUP3 ADD AND DUP3 ADD DUP1 PUSH1 0x40 MSTORE POP DUP2 ADD SWAP1 PUSH2 0x5B7 SWAP2 SWAP1 PUSH2 0xAD4 JUMP JUMPDEST ISZERO PUSH2 0x5D3 JUMPI PUSH1 0x40 DUP2 ADD DUP1 MLOAD PUSH2 0x8100 OR PUSH8 0xFFFFFFFFFFFFFFFF AND SWAP1 MSTORE JUMPDEST PUSH2 0x64E JUMP JUMPDEST DUP5 PUSH1 0x1 PUSH1 0x1 PUSH1 0xA0 SHL SUB AND PUSH4 0x18160DDD PUSH1 0x40 MLOAD DUP2 PUSH4 0xFFFFFFFF AND PUSH1 0xE0 SHL DUP2 MSTORE PUSH1 0x4 ADD PUSH1 0x20 PUSH1 0x40 MLOAD DUP1 DUP4 SUB DUP2 DUP7 GAS STATICCALL SWAP3 POP POP POP DUP1 ISZERO PUSH2 0x632 JUMPI POP PUSH1 0x40 DUP1 MLOAD PUSH1 0x1F RETURNDATASIZE SWAP1 DUP2 ADD PUSH1 0x1F NOT AND DUP3 ADD SWAP1 SWAP3 MSTORE PUSH2 0x62F SWAP2 DUP2 ADD SWAP1 PUSH2 0xAF1 JUMP JUMPDEST PUSH1 0x1 JUMPDEST ISZERO PUSH2 0x64E JUMPI POP PUSH1 0x40 DUP2 ADD DUP1 MLOAD PUSH1 0x2 OR PUSH8 0xFFFFFFFFFFFFFFFF AND SWAP1 MSTORE JUMPDEST PUSH1 0x40 DUP2 ADD MLOAD PUSH1 0xFF AND ISZERO DUP1 ISZERO PUSH2 0x660 JUMPI POP DUP2 JUMPDEST ISZERO PUSH2 0x6A9 JUMPI PUSH1 0x40 MLOAD PUSH3 0x461BCD PUSH1 0xE5 SHL DUP2 MSTORE PUSH1 0x20 PUSH1 0x4 DUP3 ADD MSTORE PUSH1 0x15 PUSH1 0x24 DUP3 ADD MSTORE PUSH21 0x556E7265736F6C76656420746F6B656E2074797065 PUSH1 0x58 SHL PUSH1 0x44 DUP3 ADD MSTORE PUSH1 0x64 ADD PUSH1 0x40 MLOAD DUP1 SWAP2 SUB SWAP1 REVERT JUMPDEST PUSH2 0x6B1 JUMP JUMPDEST POP DUP2 JUMPDEST SWAP5 SWAP4 POP POP POP POP JUMP JUMPDEST PUSH1 0x40 DUP1 MLOAD PUSH1 0x60 DUP2 ADD DUP3 MSTORE PUSH1 0x0 DUP1 DUP3 MSTORE PUSH1 0x20 DUP3 ADD DUP2 SWAP1 MSTORE SWAP2 DUP2 ADD SWAP2 SWAP1 SWAP2 MSTORE PUSH2 0x6E3 DUP5 PUSH1 0x0 DUP4 DUP6 PUSH2 0x1A7 JUMP JUMPDEST PUSH1 0x40 DUP2 ADD MLOAD SWAP1 SWAP2 POP PUSH2 0x100 AND ISZERO PUSH2 0x703 JUMPI PUSH2 0x700 DUP5 DUP5 DUP4 DUP6 PUSH2 0x1A7 JUMP JUMPDEST SWAP1 POP JUMPDEST SWAP4 SWAP3 POP POP POP JUMP JUMPDEST PUSH1 0x40 DUP1 MLOAD PUSH1 0x60 DUP2 ADD DUP3 MSTORE PUSH1 0x0 DUP1 DUP3 MSTORE PUSH1 0x20 DUP3 ADD DUP2 SWAP1 MSTORE SWAP2 DUP2 ADD SWAP2 SWAP1 SWAP2 MSTORE PUSH2 0x703 DUP4 DUP4 PUSH1 0x0 PUSH2 0x6B9 JUMP JUMPDEST PUSH1 0x40 DUP1 MLOAD PUSH1 0x60 DUP2 ADD DUP3 MSTORE PUSH1 0x0 DUP1 DUP3 MSTORE PUSH1 0x20 DUP3 ADD DUP2 SWAP1 MSTORE SWAP2 DUP2 ADD SWAP2 SWAP1 SWAP2 MSTORE PUSH2 0x703 DUP4 PUSH1 0x0 DUP5 PUSH2 0x6B9 JUMP JUMPDEST PUSH1 0x40 DUP1 MLOAD PUSH1 0x60 DUP2 ADD DUP3 MSTORE PUSH1 0x0 DUP1 DUP3 MSTORE PUSH1 0x20 DUP3 ADD DUP2 SWAP1 MSTORE SWAP2 DUP2 ADD SWAP2 SWAP1 SWAP2 MSTORE PUSH2 0x1A1 DUP3 PUSH1 0x0 DUP1 PUSH2 0x6B9 JUMP JUMPDEST DUP1 ISZERO ISZERO DUP2 EQ PUSH2 0x793 JUMPI PUSH1 0x0 DUP1 REVERT JUMPDEST POP JUMP JUMPDEST PUSH1 0x0 PUSH1 0x60 DUP3 DUP5 SUB SLT ISZERO PUSH2 0x7A8 JUMPI PUSH1 0x0 DUP1 REVERT JUMPDEST PUSH1 0x40 MLOAD PUSH1 0x60 DUP2 ADD PUSH8 0xFFFFFFFFFFFFFFFF DUP3 DUP3 LT DUP2 DUP4 GT OR ISZERO PUSH2 0x7DA JUMPI PUSH4 0x4E487B71 PUSH1 0xE0 SHL PUSH1 0x0 MSTORE PUSH1 0x41 PUSH1 0x4 MSTORE PUSH1 0x24 PUSH1 0x0 REVERT JUMPDEST DUP2 PUSH1 0x40 MSTORE DUP3 SWAP4 POP DUP5 CALLDATALOAD SWAP2 POP DUP2 PUSH1 0x0 SIGNEXTEND DUP3 EQ PUSH2 0x7F4 JUMPI PUSH1 0x0 DUP1 REVERT JUMPDEST SWAP1 DUP3 MSTORE PUSH1 0x20 DUP5 ADD CALLDATALOAD SWAP1 PUSH2 0x806 DUP3 PUSH2 0x785 JUMP JUMPDEST DUP2 PUSH1 0x20 DUP5 ADD MSTORE PUSH1 0x40 DUP6 ADD CALLDATALOAD SWAP2 POP DUP1 DUP3 AND DUP3 EQ PUSH2 0x821 JUMPI PUSH1 0x0 DUP1 REVERT JUMPDEST POP PUSH1 0x40 SWAP2 SWAP1 SWAP2 ADD MSTORE SWAP3 SWAP2 POP POP JUMP JUMPDEST PUSH1 0x0 PUSH1 0x60 DUP3 DUP5 SUB SLT ISZERO PUSH2 0x841 JUMPI PUSH1 0x0 DUP1 REVERT JUMPDEST PUSH2 0x703 DUP4 DUP4 PUSH2 0x796 JUMP JUMPDEST DUP1 CALLDATALOAD PUSH1 0x1 PUSH1 0x1 PUSH1 0xA0 SHL SUB DUP2 AND DUP2 EQ PUSH2 0x862 JUMPI PUSH1 0x0 DUP1 REVERT JUMPDEST SWAP2 SWAP1 POP JUMP JUMPDEST PUSH1 0x0 DUP1 PUSH1 0x0 DUP1 PUSH1 0xC0 DUP6 DUP8 SUB SLT ISZERO PUSH2 0x87D JUMPI PUSH1 0x0 DUP1 REVERT JUMPDEST PUSH2 0x886 DUP6 PUSH2 0x84B JUMP JUMPDEST SWAP4 POP PUSH1 0x20 DUP6 ADD CALLDATALOAD SWAP3 POP PUSH2 0x89C DUP7 PUSH1 0x40 DUP8 ADD PUSH2 0x796 JUMP JUMPDEST SWAP2 POP PUSH1 0xA0 DUP6 ADD CALLDATALOAD PUSH2 0x8AC DUP2 PUSH2 0x785 JUMP JUMPDEST SWAP4 SWAP7 SWAP3 SWAP6 POP SWAP1 SWAP4 POP POP JUMP JUMPDEST PUSH1 0x0 DUP1 PUSH1 0x0 PUSH1 0x60 DUP5 DUP7 SUB SLT ISZERO PUSH2 0x8CC JUMPI PUSH1 0x0 DUP1 REVERT JUMPDEST PUSH2 0x8D5 DUP5 PUSH2 0x84B JUMP JUMPDEST SWAP3 POP PUSH1 0x20 DUP5 ADD CALLDATALOAD SWAP2 POP PUSH1 0x40 DUP5 ADD CALLDATALOAD PUSH2 0x8EC DUP2 PUSH2 0x785 JUMP JUMPDEST DUP1 SWAP2 POP POP SWAP3 POP SWAP3 POP SWAP3 JUMP JUMPDEST PUSH1 0x0 DUP1 PUSH1 0x40 DUP4 DUP6 SUB SLT ISZERO PUSH2 0x90A JUMPI PUSH1 0x0 DUP1 REVERT JUMPDEST PUSH2 0x913 DUP4 PUSH2 0x84B JUMP JUMPDEST SWAP5 PUSH1 0x20 SWAP4 SWAP1 SWAP4 ADD CALLDATALOAD SWAP4 POP POP POP JUMP JUMPDEST PUSH1 0x0 DUP1 PUSH1 0x40 DUP4 DUP6 SUB SLT ISZERO PUSH2 0x934 JUMPI PUSH1 0x0 DUP1 REVERT JUMPDEST PUSH2 0x93D DUP4 PUSH2 0x84B JUMP JUMPDEST SWAP2 POP PUSH1 0x20 DUP4 ADD CALLDATALOAD PUSH2 0x94D DUP2 PUSH2 0x785 JUMP JUMPDEST DUP1 SWAP2 POP POP SWAP3 POP SWAP3 SWAP1 POP JUMP JUMPDEST PUSH1 0x0 PUSH1 0x20 DUP3 DUP5 SUB SLT ISZERO PUSH2 0x96A JUMPI PUSH1 0x0 DUP1 REVERT JUMPDEST PUSH2 0x703 DUP3 PUSH2 0x84B JUMP JUMPDEST PUSH4 0x4E487B71 PUSH1 0xE0 SHL PUSH1 0x0 MSTORE PUSH1 0x11 PUSH1 0x4 MSTORE PUSH1 0x24 PUSH1 0x0 REVERT JUMPDEST PUSH1 0x0 DUP2 PUSH1 0x0 SIGNEXTEND DUP4 PUSH1 0x0 SIGNEXTEND PUSH1 0x0 DUP3 SLT DUP3 PUSH1 0x7F SUB DUP3 SGT DUP2 ISZERO AND ISZERO PUSH2 0x9AD JUMPI PUSH2 0x9AD PUSH2 0x973 JUMP JUMPDEST DUP3 PUSH1 0x7F NOT SUB DUP3 SLT DUP2 AND ISZERO PUSH2 0x9C3 JUMPI PUSH2 0x9C3 PUSH2 0x973 JUMP JUMPDEST POP ADD SWAP4 SWAP3 POP POP POP JUMP JUMPDEST PUSH1 0x1 DUP2 DUP2 JUMPDEST DUP1 DUP6 GT ISZERO PUSH2 0xA07 JUMPI DUP2 PUSH1 0x0 NOT DIV DUP3 GT ISZERO PUSH2 0x9ED JUMPI PUSH2 0x9ED PUSH2 0x973 JUMP JUMPDEST DUP1 DUP6 AND ISZERO PUSH2 0x9FA JUMPI SWAP2 DUP2 MUL SWAP2 JUMPDEST SWAP4 DUP5 SHR SWAP4 SWAP1 DUP1 MUL SWAP1 PUSH2 0x9D1 JUMP JUMPDEST POP SWAP3 POP SWAP3 SWAP1 POP JUMP JUMPDEST PUSH1 0x0 DUP3 PUSH2 0xA1E JUMPI POP PUSH1 0x1 PUSH2 0x1A1 JUMP JUMPDEST DUP2 PUSH2 0xA2B JUMPI POP PUSH1 0x0 PUSH2 0x1A1 JUMP JUMPDEST DUP2 PUSH1 0x1 DUP2 EQ PUSH2 0xA41 JUMPI PUSH1 0x2 DUP2 EQ PUSH2 0xA4B JUMPI PUSH2 0xA67 JUMP JUMPDEST PUSH1 0x1 SWAP2 POP POP PUSH2 0x1A1 JUMP JUMPDEST PUSH1 0xFF DUP5 GT ISZERO PUSH2 0xA5C JUMPI PUSH2 0xA5C PUSH2 0x973 JUMP JUMPDEST POP POP PUSH1 0x1 DUP3 SHL PUSH2 0x1A1 JUMP JUMPDEST POP PUSH1 0x20 DUP4 LT PUSH2 0x133 DUP4 LT AND PUSH1 0x4E DUP5 LT PUSH1 0xB DUP5 LT AND OR ISZERO PUSH2 0xA8A JUMPI POP DUP2 DUP2 EXP PUSH2 0x1A1 JUMP JUMPDEST PUSH2 0xA94 DUP4 DUP4 PUSH2 0x9CC JUMP JUMPDEST DUP1 PUSH1 0x0 NOT DIV DUP3 GT ISZERO PUSH2 0xAA8 JUMPI PUSH2 0xAA8 PUSH2 0x973 JUMP JUMPDEST MUL SWAP4 SWAP3 POP POP POP JUMP JUMPDEST PUSH1 0x0 PUSH2 0x703 PUSH1 0xFF DUP5 AND DUP4 PUSH2 0xA0F JUMP JUMPDEST PUSH1 0x1 PUSH1 0x1 PUSH1 0xE0 SHL SUB NOT SWAP2 SWAP1 SWAP2 AND DUP2 MSTORE PUSH1 0x20 ADD SWAP1 JUMP JUMPDEST PUSH1 0x0 PUSH1 0x20 DUP3 DUP5 SUB SLT ISZERO PUSH2 0xAE6 JUMPI PUSH1 0x0 DUP1 REVERT JUMPDEST DUP2 MLOAD PUSH2 0x703 DUP2 PUSH2 0x785 JUMP JUMPDEST PUSH1 0x0 PUSH1 0x20 DUP3 DUP5 SUB SLT ISZERO PUSH2 0xB03 JUMPI PUSH1 0x0 DUP1 REVERT JUMPDEST POP MLOAD SWAP2 SWAP1 POP JUMP INVALID LOG2 PUSH5 0x6970667358 0x22 SLT KECCAK256 PUSH16 0x8944177978E58DDD32684F34911878E8 BLOCKHASH 0xBE RETURNDATASIZE MOD CREATE2 DUP11 PUSH19 0x429F74DEFAA676564736F6C634300080D0033 ",
  "sha1": "fffa20bce2f0846400cf5a041e2c2cabfcdbf55b",
  "source": "// SPDX-License-Identifier: MIT\n// Beef Contracts v0.0.0 hello@mcdu.com\n\npragma solidity ^0.8.0;\n\nimport \"@openzeppelin/contracts/utils/introspection/IERC165.sol\";\nimport \"@openzeppelin/contracts/token/ERC20/IERC20.sol\";\nimport \"./TradeableAndBankable.sol\";\nimport \"../../../interfaces/ITokenCertified.sol\";\nimport \"../../../interfaces/ITokenEquivalent.sol\";\nimport \"../../../interfaces/IPackedToken.sol\";\nimport \"../../../interfaces/ITokenWithId.sol\";\n\nlibrary Token {\n    /*enum Type {\n        Unknown,\n        Cur,\n        Erc20,\n        Max\n    }*/\n    bytes32 constant public CURRENCY = 0xad3228b676f7d3cd4284a5443f17f1962b36e491b30a40b2405849e597ba5fb5;\n\n    uint64 constant TypeMask =                  0xff;    // is TypeCurrency\n    uint64 constant TypeCurrency =              0x1;    // is TypeCurrency\n    uint64 constant TypeERC20 =                 0x2;    // is Test\n\n    uint64 constant isTokenWithId =          0x100;    // Contract needs tokenId\n    uint64 constant SupportERC165 =          0x200;    // Supports IERC265\n    //uint64 constant SupportERC20 =           0x400;    // Supports IERC20\n    uint64 constant SupportTradeable =       0x800;    // Supports ITradeable\n\n    uint64 constant SupportTokenCertified =  0x1000;    // Supports ITokenEquivalent\n    uint64 constant SupportTokenEquivalent = 0x2000;   // Supports ITokenEquivalent\n    uint64 constant SupportPackedToken =     0x4000;   // Supports IPackedToken\n    uint64 constant SupportTokenWithId =     0x8000;   // Supports ITokenWithId\n\n    struct Info {\n        //Type tokentype;\n        int8 granularity;\n        bool nft;\n        uint64 features;\n    }\n\n    function granularity(Info memory info_) public pure returns (uint256) {\n        if (info_.features==0)\n            return 0;\n        return 10**(uint8(18 + info_.granularity));\n    }\n    function tokenInfo(address tokenaddress_)\n        public\n        view\n        returns (Info memory info_)\n    {\n        return tokenInfo(tokenaddress_,0,false);\n    }\n    function tokenInfo(address tokenaddress_, bool canfail_)\n        public\n        view\n        returns (Info memory info_)\n    {\n        return tokenInfo(tokenaddress_,0,canfail_);\n    }\n    function tokenInfo(address tokenaddress_,uint256 tokenid_)\n        public\n        view\n        returns (Info memory info_)\n    {\n        return tokenInfo(tokenaddress_,tokenid_,false);\n    }\n    function tokenInfo(address tokenaddress_,uint256 tokenid_, bool canfail_)\n        public\n        view\n        returns (Info memory info_)\n    {\n        info_=tokenInfoEx(tokenaddress_,0,info_,canfail_);\n        if (info_.features & isTokenWithId != 0)\n            info_=tokenInfoEx(tokenaddress_,tokenid_,info_,canfail_);\n\n    }\n    function tokenInfoEx(address tokenaddress_,uint256 tokenid_, Info memory infoin_, bool canfail_)\n        public\n        view\n        returns (Info memory info_)\n    {\n        if (tokenid_==0)\n        while (true) {\n            info_.granularity = -18;\n            if (tokenaddress_ == address(0)) {\n                info_.features = TypeCurrency;\n                break;\n            }\n            try IERC165(tokenaddress_).supportsInterface(type(IERC165).interfaceId) {\n                info_.features |= SupportERC165;\n            } catch {}\n            if (info_.features & SupportERC165 != 0) {\n                if (IERC165(tokenaddress_).supportsInterface(type(IERC20).interfaceId))\n                    info_.features |= TypeERC20;\n                if (\n                    IERC165(tokenaddress_).supportsInterface(\n                        type(ITradeable).interfaceId\n                    )\n                ) info_.features |= SupportTradeable;\n                if (\n                    IERC165(tokenaddress_).supportsInterface(\n                        type(ITokenCertified).interfaceId\n                    )\n                ) info_.features |= SupportTokenCertified;\n                if (\n                    IERC165(tokenaddress_).supportsInterface(\n                        type(ITokenEquivalent).interfaceId\n                    )\n                ) info_.features |= SupportTokenEquivalent;\n                if (\n                    IERC165(tokenaddress_).supportsInterface(\n                        type(IPackedToken).interfaceId\n                    )\n                ) info_.features |= SupportPackedToken;\n                if (\n                    IERC165(tokenaddress_).supportsInterface(\n                        type(ITokenWithId).interfaceId\n                    )\n                ) info_.features |= SupportTokenWithId|isTokenWithId;\n            } else {\n                try IERC20(tokenaddress_).totalSupply() {\n                    info_.features |= TypeERC20;\n                } catch {}\n            }\n            if (info_.features&TypeMask==0&&canfail_) \n                require(false, \"Unresolved token type\");\n            break;\n        }\n        else\n        {\n            info_ = infoin_;\n        }\n    }\n}\n",
  "sourcePath": "contracts/agnostic/Token/TokenLib.sol",
  "type": "library"
}