{
  "abi": [
    {
      "inputs": [
        {
          "internalType": "address",
          "name": "token_",
          "type": "address"
        },
        {
          "internalType": "uint256",
          "name": "tokenId_",
          "type": "uint256"
        }
      ],
      "name": "features",
      "outputs": [
        {
          "internalType": "uint64",
          "name": "",
          "type": "uint64"
        }
      ],
      "stateMutability": "view",
      "type": "function"
    },
    {
      "inputs": [
        {
          "internalType": "address",
          "name": "token_",
          "type": "address"
        }
      ],
      "name": "features",
      "outputs": [
        {
          "internalType": "uint64",
          "name": "",
          "type": "uint64"
        }
      ],
      "stateMutability": "view",
      "type": "function"
    },
    {
      "inputs": [
        {
          "internalType": "address",
          "name": "token_",
          "type": "address"
        }
      ],
      "name": "granularity",
      "outputs": [
        {
          "internalType": "uint256",
          "name": "",
          "type": "uint256"
        }
      ],
      "stateMutability": "view",
      "type": "function"
    },
    {
      "inputs": [
        {
          "internalType": "address",
          "name": "token_",
          "type": "address"
        },
        {
          "internalType": "uint256",
          "name": "tokenId_",
          "type": "uint256"
        }
      ],
      "name": "granularity",
      "outputs": [
        {
          "internalType": "uint256",
          "name": "",
          "type": "uint256"
        }
      ],
      "stateMutability": "view",
      "type": "function"
    },
    {
      "inputs": [
        {
          "internalType": "address",
          "name": "token_",
          "type": "address"
        },
        {
          "internalType": "uint256",
          "name": "tokenId_",
          "type": "uint256"
        }
      ],
      "name": "image",
      "outputs": [
        {
          "internalType": "string",
          "name": "",
          "type": "string"
        }
      ],
      "stateMutability": "view",
      "type": "function"
    },
    {
      "inputs": [
        {
          "internalType": "address",
          "name": "token_",
          "type": "address"
        }
      ],
      "name": "image",
      "outputs": [
        {
          "internalType": "string",
          "name": "",
          "type": "string"
        }
      ],
      "stateMutability": "view",
      "type": "function"
    },
    {
      "inputs": [
        {
          "internalType": "address",
          "name": "token_",
          "type": "address"
        },
        {
          "internalType": "uint256",
          "name": "tokenId_",
          "type": "uint256"
        }
      ],
      "name": "nft",
      "outputs": [
        {
          "internalType": "bool",
          "name": "",
          "type": "bool"
        }
      ],
      "stateMutability": "view",
      "type": "function"
    },
    {
      "inputs": [
        {
          "internalType": "address",
          "name": "token_",
          "type": "address"
        }
      ],
      "name": "nft",
      "outputs": [
        {
          "internalType": "bool",
          "name": "",
          "type": "bool"
        }
      ],
      "stateMutability": "view",
      "type": "function"
    },
    {
      "inputs": [
        {
          "internalType": "address",
          "name": "token_",
          "type": "address"
        },
        {
          "internalType": "uint256",
          "name": "tokenid_",
          "type": "uint256"
        }
      ],
      "name": "token",
      "outputs": [],
      "stateMutability": "nonpayable",
      "type": "function"
    },
    {
      "inputs": [
        {
          "internalType": "address",
          "name": "token_",
          "type": "address"
        },
        {
          "internalType": "uint256",
          "name": "tokenId_",
          "type": "uint256"
        }
      ],
      "name": "tokenInfo",
      "outputs": [
        {
          "components": [
            {
              "internalType": "int8",
              "name": "granularity",
              "type": "int8"
            },
            {
              "internalType": "bool",
              "name": "nft",
              "type": "bool"
            },
            {
              "internalType": "uint64",
              "name": "features",
              "type": "uint64"
            }
          ],
          "internalType": "struct Token.Info",
          "name": "out_",
          "type": "tuple"
        }
      ],
      "stateMutability": "view",
      "type": "function"
    },
    {
      "inputs": [
        {
          "internalType": "address",
          "name": "token_",
          "type": "address"
        }
      ],
      "name": "tokenInfo",
      "outputs": [
        {
          "components": [
            {
              "internalType": "int8",
              "name": "granularity",
              "type": "int8"
            },
            {
              "internalType": "bool",
              "name": "nft",
              "type": "bool"
            },
            {
              "internalType": "uint64",
              "name": "features",
              "type": "uint64"
            }
          ],
          "internalType": "struct Token.Info",
          "name": "out_",
          "type": "tuple"
        }
      ],
      "stateMutability": "view",
      "type": "function"
    }
  ],
  "bytecode": "608060405234801561001057600080fd5b506110b6806100206000396000f3fe608060405234801561001057600080fd5b50600436106100a95760003560e01c80638d49d89b116100715780638d49d89b14610157578063a9d463261461016a578063b72a4a711461017d578063bb7d88a914610190578063c452e6b6146101b0578063f5dab711146101c357600080fd5b80630221c7de146100ae578063036995df146100de5780631d7a3b72146100ff578063552cdf981461011f5780636f45768314610142575b600080fd5b6100c16100bc366004610d31565b6101d6565b6040516001600160401b0390911681526020015b60405180910390f35b6100f16100ec366004610d5b565b610205565b6040519081526020016100d5565b61011261010d366004610d31565b610212565b6040516100d59190610da6565b61013261012d366004610d31565b610533565b60405190151581526020016100d5565b610155610150366004610d31565b610560565b005b6100c1610165366004610d5b565b610a1e565b610112610178366004610d5b565b610a2b565b6100f161018b366004610d31565b610a38565b6101a361019e366004610d31565b610ad8565b6040516100d59190610dd9565b6101326101be366004610d5b565b610ce0565b6101a36101d1366004610d5b565b610ced565b60006001600160a01b0383166101ee575060016101ff565b6101f88383610ad8565b6040015190505b92915050565b60006101ff826000610a38565b60606001600160a01b038316610242576040518060a001604052806075815260200161100c6075913990506101ff565b60405163d5f0b04d60e01b81526001600160a01b0384166004820152602481018390526000908190819073__BytesAndKeccakLib_____________________9063d5f0b04d90604401602060405180830381865af41580156102a8573d6000803e3d6000fd5b505050506040513d601f19601f820116820180604052508101906102cc9190610e08565b815260200190815260200160002080546102e590610e21565b80601f016020809104026020016040519081016040528092919081815260200182805461031190610e21565b801561035e5780601f106103335761010080835404028352916020019161035e565b820191906000526020600020905b81548152906001019060200180831161034157829003601f168201915b5050604080516000815260208101808352815190209596506103869450869350019050610e5b565b60405160208183030381529060405280519060200120146103a85790506101ff565b82156105125760405163d5f0b04d60e01b81526001600160a01b038516600482015260006024820181905290819073__BytesAndKeccakLib_____________________9063d5f0b04d90604401602060405180830381865af4158015610412573d6000803e3d6000fd5b505050506040513d601f19601f820116820180604052508101906104369190610e08565b8152602001908152602001600020805461044f90610e21565b80601f016020809104026020016040519081016040528092919081815260200182805461047b90610e21565b80156104c85780601f1061049d576101008083540402835291602001916104c8565b820191906000526020600020905b8154815290600101906020018083116104ab57829003601f168201915b5050604080516000815260208101808352815190209596506104f09450869350019050610e5b565b60405160208183030381529060405280519060200120146105125790506101ff565b6040518060a00160405280606c8152602001610fa0606c9139949350505050565b60006001600160a01b03831661054b575060006101ff565b6105558383610ad8565b602001519392505050565b60405163d5f0b04d60e01b81526001600160a01b038316600482015260006024820181905290819073__BytesAndKeccakLib_____________________9063d5f0b04d90604401602060405180830381865af41580156105c4573d6000803e3d6000fd5b505050506040513d601f19601f820116820180604052508101906105e89190610e08565b60008181526002602052604081208054909450919250620100009091046001600160401b0316900361077d57604051634dd11f0f60e11b81526001600160a01b0385166004820152600060248201526001604482015273__Token_________________________________90639ba23e1e90606401606060405180830381865af415801561067a573d6000803e3d6000fd5b505050506040513d601f19601f8201168201806040525081019061069e9190610e87565b6000828152600260209081526040918290208351815492850151948401516001600160401b0316620100000269ffffffffffffffff0000199515156101000261ffff1990941660ff90921691909117929092179390931617909155516316061a7160e21b815273__Array_________________________________9063581869c49061073a906001908590600401918252602082015260400190565b602060405180830381865af4158015610757573d6000803e3d6000fd5b505050506040513d601f19601f8201168201806040525081019061077b9190610f17565b505b81546201000090046001600160401b031660000361079d5761079d610f32565b8154620100009004610100166000036107b65750505050565b604080516060810182528354600081900b8252610100810460ff16151560208301526201000090046001600160401b031681830152905163d5f0b04d60e01b81526001600160a01b03861660048201526024810185905273__BytesAndKeccakLib_____________________9063d5f0b04d90604401602060405180830381865af4158015610849573d6000803e3d6000fd5b505050506040513d601f19601f8201168201806040525081019061086d9190610e08565b60008181526002602052604081208054909550919350620100009091046001600160401b031690036109f75760405163543af62760e01b815273__Token_________________________________9063543af627906108d790889088908690600190600401610f48565b606060405180830381865af41580156108f4573d6000803e3d6000fd5b505050506040513d601f19601f820116820180604052508101906109189190610e87565b6000838152600260209081526040918290208351815492850151948401516001600160401b0316620100000269ffffffffffffffff0000199515156101000261ffff1990941660ff90921691909117929092179390931617909155516316061a7160e21b815273__Array_________________________________9063581869c4906109b4906001908690600401918252602082015260400190565b602060405180830381865af41580156109d1573d6000803e3d6000fd5b505050506040513d601f19601f820116820180604052508101906109f59190610f17565b505b82546201000090046001600160401b0316600003610a1757610a17610f32565b5050505050565b60006101ff8260006101d6565b60606101ff826000610212565b60006001600160a01b038316610a50575060016101ff565b73__Token_________________________________633646b548610a748585610ad8565b6040518263ffffffff1660e01b8152600401610a909190610dd9565b602060405180830381865af4158015610aad573d6000803e3d6000fd5b505050506040513d601f19601f82011682018060405250810190610ad19190610e08565b9392505050565b60408051606081018252600080825260208201819052918101919091526001600160a01b038316610b285750604080516060810182526011198152600060208201526001918101919091526101ff565b60405163d5f0b04d60e01b81526001600160a01b038416600482015260006024820181905260029173__BytesAndKeccakLib_____________________9063d5f0b04d90604401602060405180830381865af4158015610b8c573d6000803e3d6000fd5b505050506040513d601f19601f82011682018060405250810190610bb09190610e08565b815260208082019290925260409081016000908120825160608101845290549182900b815261010080830460ff16151594820194909452620100009091046001600160401b03811692820192909252925016156101ff5760405163d5f0b04d60e01b81526001600160a01b03841660048201526024810183905260029060009073__BytesAndKeccakLib_____________________9063d5f0b04d90604401602060405180830381865af4158015610c6c573d6000803e3d6000fd5b505050506040513d601f19601f82011682018060405250810190610c909190610e08565b815260208082019290925260409081016000908120825160608101845290549182900b8152610100820460ff161515938101939093526201000090046001600160401b0316908201529392505050565b60006101ff826000610533565b60408051606081018252600080825260208201819052918101919091526101ff826000610ad8565b80356001600160a01b0381168114610d2c57600080fd5b919050565b60008060408385031215610d4457600080fd5b610d4d83610d15565b946020939093013593505050565b600060208284031215610d6d57600080fd5b610ad182610d15565b60005b83811015610d91578181015183820152602001610d79565b83811115610da0576000848401525b50505050565b6020815260008251806020840152610dc5816040850160208701610d76565b601f01601f19169190910160400192915050565b815160000b81526020808301511515908201526040808301516001600160401b031690820152606081016101ff565b600060208284031215610e1a57600080fd5b5051919050565b600181811c90821680610e3557607f821691505b602082108103610e5557634e487b7160e01b600052602260045260246000fd5b50919050565b60008251610e6d818460208701610d76565b9190910192915050565b80518015158114610d2c57600080fd5b600060608284031215610e9957600080fd5b604051606081016001600160401b038282108183111715610eca57634e487b7160e01b600052604160045260246000fd5b81604052845191508160000b8214610ee157600080fd5b818352610ef060208601610e77565b6020840152604085015191508082168214610f0a57600080fd5b5060408201529392505050565b600060208284031215610f2957600080fd5b610ad182610e77565b634e487b7160e01b600052600160045260246000fd5b6001600160a01b03851681526020810184905260c08101610f8e6040830185805160000b82526020808201511515908301526040908101516001600160401b0316910152565b82151560a08301529594505050505056fe68747470733a2f2f6769746875622e636f6d2f5061747269636b416c706861432f646566692d7374616b652d7969656c642d62726f776e69652d66726565636f64652f626c6f622f6d61696e2f66726f6e745f656e642f7372632f646170702e706e673f7261773d7472756568747470733a2f2f7261772e67697468756275736572636f6e74656e742e636f6d2f5061747269636b416c706861432f646566692d7374616b652d7969656c642d62726f776e69652d66726565636f64652f6d61696e2f66726f6e745f656e642f7372632f6574682e706e673f7261773d74727565a264697066735822122023ed7909b9b255aeb0434d3ca1bdc58aefb34aa0cfb02cf6878b6571267549b064736f6c634300080d0033",
  "bytecodeSha1": "13da0764dbc34d3af25b5643a31f9c1525bcb7e3",
  "compiler": {
    "evm_version": "istanbul",
    "optimizer": {
      "enabled": true,
      "runs": 200
    },
    "version": "0.8.13+commit.abaa5c0e"
  },
  "contractName": "Tokens",
  "deployedBytecode": "608060405234801561001057600080fd5b50600436106100a95760003560e01c80638d49d89b116100715780638d49d89b14610157578063a9d463261461016a578063b72a4a711461017d578063bb7d88a914610190578063c452e6b6146101b0578063f5dab711146101c357600080fd5b80630221c7de146100ae578063036995df146100de5780631d7a3b72146100ff578063552cdf981461011f5780636f45768314610142575b600080fd5b6100c16100bc366004610d31565b6101d6565b6040516001600160401b0390911681526020015b60405180910390f35b6100f16100ec366004610d5b565b610205565b6040519081526020016100d5565b61011261010d366004610d31565b610212565b6040516100d59190610da6565b61013261012d366004610d31565b610533565b60405190151581526020016100d5565b610155610150366004610d31565b610560565b005b6100c1610165366004610d5b565b610a1e565b610112610178366004610d5b565b610a2b565b6100f161018b366004610d31565b610a38565b6101a361019e366004610d31565b610ad8565b6040516100d59190610dd9565b6101326101be366004610d5b565b610ce0565b6101a36101d1366004610d5b565b610ced565b60006001600160a01b0383166101ee575060016101ff565b6101f88383610ad8565b6040015190505b92915050565b60006101ff826000610a38565b60606001600160a01b038316610242576040518060a001604052806075815260200161100c6075913990506101ff565b60405163d5f0b04d60e01b81526001600160a01b0384166004820152602481018390526000908190819073__$669c6e0eba2465bd6779ea6ec5db3af1b5$__9063d5f0b04d90604401602060405180830381865af41580156102a8573d6000803e3d6000fd5b505050506040513d601f19601f820116820180604052508101906102cc9190610e08565b815260200190815260200160002080546102e590610e21565b80601f016020809104026020016040519081016040528092919081815260200182805461031190610e21565b801561035e5780601f106103335761010080835404028352916020019161035e565b820191906000526020600020905b81548152906001019060200180831161034157829003601f168201915b5050604080516000815260208101808352815190209596506103869450869350019050610e5b565b60405160208183030381529060405280519060200120146103a85790506101ff565b82156105125760405163d5f0b04d60e01b81526001600160a01b038516600482015260006024820181905290819073__$669c6e0eba2465bd6779ea6ec5db3af1b5$__9063d5f0b04d90604401602060405180830381865af4158015610412573d6000803e3d6000fd5b505050506040513d601f19601f820116820180604052508101906104369190610e08565b8152602001908152602001600020805461044f90610e21565b80601f016020809104026020016040519081016040528092919081815260200182805461047b90610e21565b80156104c85780601f1061049d576101008083540402835291602001916104c8565b820191906000526020600020905b8154815290600101906020018083116104ab57829003601f168201915b5050604080516000815260208101808352815190209596506104f09450869350019050610e5b565b60405160208183030381529060405280519060200120146105125790506101ff565b6040518060a00160405280606c8152602001610fa0606c9139949350505050565b60006001600160a01b03831661054b575060006101ff565b6105558383610ad8565b602001519392505050565b60405163d5f0b04d60e01b81526001600160a01b038316600482015260006024820181905290819073__$669c6e0eba2465bd6779ea6ec5db3af1b5$__9063d5f0b04d90604401602060405180830381865af41580156105c4573d6000803e3d6000fd5b505050506040513d601f19601f820116820180604052508101906105e89190610e08565b60008181526002602052604081208054909450919250620100009091046001600160401b0316900361077d57604051634dd11f0f60e11b81526001600160a01b0385166004820152600060248201526001604482015273__$cc6df4ca04d157c820770f5225eff0121b$__90639ba23e1e90606401606060405180830381865af415801561067a573d6000803e3d6000fd5b505050506040513d601f19601f8201168201806040525081019061069e9190610e87565b6000828152600260209081526040918290208351815492850151948401516001600160401b0316620100000269ffffffffffffffff0000199515156101000261ffff1990941660ff90921691909117929092179390931617909155516316061a7160e21b815273__$f71e59c5327218924d154e230469c101bd$__9063581869c49061073a906001908590600401918252602082015260400190565b602060405180830381865af4158015610757573d6000803e3d6000fd5b505050506040513d601f19601f8201168201806040525081019061077b9190610f17565b505b81546201000090046001600160401b031660000361079d5761079d610f32565b8154620100009004610100166000036107b65750505050565b604080516060810182528354600081900b8252610100810460ff16151560208301526201000090046001600160401b031681830152905163d5f0b04d60e01b81526001600160a01b03861660048201526024810185905273__$669c6e0eba2465bd6779ea6ec5db3af1b5$__9063d5f0b04d90604401602060405180830381865af4158015610849573d6000803e3d6000fd5b505050506040513d601f19601f8201168201806040525081019061086d9190610e08565b60008181526002602052604081208054909550919350620100009091046001600160401b031690036109f75760405163543af62760e01b815273__$cc6df4ca04d157c820770f5225eff0121b$__9063543af627906108d790889088908690600190600401610f48565b606060405180830381865af41580156108f4573d6000803e3d6000fd5b505050506040513d601f19601f820116820180604052508101906109189190610e87565b6000838152600260209081526040918290208351815492850151948401516001600160401b0316620100000269ffffffffffffffff0000199515156101000261ffff1990941660ff90921691909117929092179390931617909155516316061a7160e21b815273__$f71e59c5327218924d154e230469c101bd$__9063581869c4906109b4906001908690600401918252602082015260400190565b602060405180830381865af41580156109d1573d6000803e3d6000fd5b505050506040513d601f19601f820116820180604052508101906109f59190610f17565b505b82546201000090046001600160401b0316600003610a1757610a17610f32565b5050505050565b60006101ff8260006101d6565b60606101ff826000610212565b60006001600160a01b038316610a50575060016101ff565b73__$cc6df4ca04d157c820770f5225eff0121b$__633646b548610a748585610ad8565b6040518263ffffffff1660e01b8152600401610a909190610dd9565b602060405180830381865af4158015610aad573d6000803e3d6000fd5b505050506040513d601f19601f82011682018060405250810190610ad19190610e08565b9392505050565b60408051606081018252600080825260208201819052918101919091526001600160a01b038316610b285750604080516060810182526011198152600060208201526001918101919091526101ff565b60405163d5f0b04d60e01b81526001600160a01b038416600482015260006024820181905260029173__$669c6e0eba2465bd6779ea6ec5db3af1b5$__9063d5f0b04d90604401602060405180830381865af4158015610b8c573d6000803e3d6000fd5b505050506040513d601f19601f82011682018060405250810190610bb09190610e08565b815260208082019290925260409081016000908120825160608101845290549182900b815261010080830460ff16151594820194909452620100009091046001600160401b03811692820192909252925016156101ff5760405163d5f0b04d60e01b81526001600160a01b03841660048201526024810183905260029060009073__$669c6e0eba2465bd6779ea6ec5db3af1b5$__9063d5f0b04d90604401602060405180830381865af4158015610c6c573d6000803e3d6000fd5b505050506040513d601f19601f82011682018060405250810190610c909190610e08565b815260208082019290925260409081016000908120825160608101845290549182900b8152610100820460ff161515938101939093526201000090046001600160401b0316908201529392505050565b60006101ff826000610533565b60408051606081018252600080825260208201819052918101919091526101ff826000610ad8565b80356001600160a01b0381168114610d2c57600080fd5b919050565b60008060408385031215610d4457600080fd5b610d4d83610d15565b946020939093013593505050565b600060208284031215610d6d57600080fd5b610ad182610d15565b60005b83811015610d91578181015183820152602001610d79565b83811115610da0576000848401525b50505050565b6020815260008251806020840152610dc5816040850160208701610d76565b601f01601f19169190910160400192915050565b815160000b81526020808301511515908201526040808301516001600160401b031690820152606081016101ff565b600060208284031215610e1a57600080fd5b5051919050565b600181811c90821680610e3557607f821691505b602082108103610e5557634e487b7160e01b600052602260045260246000fd5b50919050565b60008251610e6d818460208701610d76565b9190910192915050565b80518015158114610d2c57600080fd5b600060608284031215610e9957600080fd5b604051606081016001600160401b038282108183111715610eca57634e487b7160e01b600052604160045260246000fd5b81604052845191508160000b8214610ee157600080fd5b818352610ef060208601610e77565b6020840152604085015191508082168214610f0a57600080fd5b5060408201529392505050565b600060208284031215610f2957600080fd5b610ad182610e77565b634e487b7160e01b600052600160045260246000fd5b6001600160a01b03851681526020810184905260c08101610f8e6040830185805160000b82526020808201511515908301526040908101516001600160401b0316910152565b82151560a08301529594505050505056fe68747470733a2f2f6769746875622e636f6d2f5061747269636b416c706861432f646566692d7374616b652d7969656c642d62726f776e69652d66726565636f64652f626c6f622f6d61696e2f66726f6e745f656e642f7372632f646170702e706e673f7261773d7472756568747470733a2f2f7261772e67697468756275736572636f6e74656e742e636f6d2f5061747269636b416c706861432f646566692d7374616b652d7969656c642d62726f776e69652d66726565636f64652f6d61696e2f66726f6e745f656e642f7372632f6574682e706e673f7261773d74727565a264697066735822122023ed7909b9b255aeb0434d3ca1bdc58aefb34aa0cfb02cf6878b6571267549b064736f6c634300080d0033",
  "language": "Solidity",
  "natspec": {
    "kind": "dev",
    "methods": {},
    "version": 1
  },
  "opcodes": "PUSH1 0x80 PUSH1 0x40 MSTORE CALLVALUE DUP1 ISZERO PUSH2 0x10 JUMPI PUSH1 0x0 DUP1 REVERT JUMPDEST POP PUSH1 0x4 CALLDATASIZE LT PUSH2 0xA9 JUMPI PUSH1 0x0 CALLDATALOAD PUSH1 0xE0 SHR DUP1 PUSH4 0x8D49D89B GT PUSH2 0x71 JUMPI DUP1 PUSH4 0x8D49D89B EQ PUSH2 0x157 JUMPI DUP1 PUSH4 0xA9D46326 EQ PUSH2 0x16A JUMPI DUP1 PUSH4 0xB72A4A71 EQ PUSH2 0x17D JUMPI DUP1 PUSH4 0xBB7D88A9 EQ PUSH2 0x190 JUMPI DUP1 PUSH4 0xC452E6B6 EQ PUSH2 0x1B0 JUMPI DUP1 PUSH4 0xF5DAB711 EQ PUSH2 0x1C3 JUMPI PUSH1 0x0 DUP1 REVERT JUMPDEST DUP1 PUSH4 0x221C7DE EQ PUSH2 0xAE JUMPI DUP1 PUSH4 0x36995DF EQ PUSH2 0xDE JUMPI DUP1 PUSH4 0x1D7A3B72 EQ PUSH2 0xFF JUMPI DUP1 PUSH4 0x552CDF98 EQ PUSH2 0x11F JUMPI DUP1 PUSH4 0x6F457683 EQ PUSH2 0x142 JUMPI JUMPDEST PUSH1 0x0 DUP1 REVERT JUMPDEST PUSH2 0xC1 PUSH2 0xBC CALLDATASIZE PUSH1 0x4 PUSH2 0xD31 JUMP JUMPDEST PUSH2 0x1D6 JUMP JUMPDEST PUSH1 0x40 MLOAD PUSH1 0x1 PUSH1 0x1 PUSH1 0x40 SHL SUB SWAP1 SWAP2 AND DUP2 MSTORE PUSH1 0x20 ADD JUMPDEST PUSH1 0x40 MLOAD DUP1 SWAP2 SUB SWAP1 RETURN JUMPDEST PUSH2 0xF1 PUSH2 0xEC CALLDATASIZE PUSH1 0x4 PUSH2 0xD5B JUMP JUMPDEST PUSH2 0x205 JUMP JUMPDEST PUSH1 0x40 MLOAD SWAP1 DUP2 MSTORE PUSH1 0x20 ADD PUSH2 0xD5 JUMP JUMPDEST PUSH2 0x112 PUSH2 0x10D CALLDATASIZE PUSH1 0x4 PUSH2 0xD31 JUMP JUMPDEST PUSH2 0x212 JUMP JUMPDEST PUSH1 0x40 MLOAD PUSH2 0xD5 SWAP2 SWAP1 PUSH2 0xDA6 JUMP JUMPDEST PUSH2 0x132 PUSH2 0x12D CALLDATASIZE PUSH1 0x4 PUSH2 0xD31 JUMP JUMPDEST PUSH2 0x533 JUMP JUMPDEST PUSH1 0x40 MLOAD SWAP1 ISZERO ISZERO DUP2 MSTORE PUSH1 0x20 ADD PUSH2 0xD5 JUMP JUMPDEST PUSH2 0x155 PUSH2 0x150 CALLDATASIZE PUSH1 0x4 PUSH2 0xD31 JUMP JUMPDEST PUSH2 0x560 JUMP JUMPDEST STOP JUMPDEST PUSH2 0xC1 PUSH2 0x165 CALLDATASIZE PUSH1 0x4 PUSH2 0xD5B JUMP JUMPDEST PUSH2 0xA1E JUMP JUMPDEST PUSH2 0x112 PUSH2 0x178 CALLDATASIZE PUSH1 0x4 PUSH2 0xD5B JUMP JUMPDEST PUSH2 0xA2B JUMP JUMPDEST PUSH2 0xF1 PUSH2 0x18B CALLDATASIZE PUSH1 0x4 PUSH2 0xD31 JUMP JUMPDEST PUSH2 0xA38 JUMP JUMPDEST PUSH2 0x1A3 PUSH2 0x19E CALLDATASIZE PUSH1 0x4 PUSH2 0xD31 JUMP JUMPDEST PUSH2 0xAD8 JUMP JUMPDEST PUSH1 0x40 MLOAD PUSH2 0xD5 SWAP2 SWAP1 PUSH2 0xDD9 JUMP JUMPDEST PUSH2 0x132 PUSH2 0x1BE CALLDATASIZE PUSH1 0x4 PUSH2 0xD5B JUMP JUMPDEST PUSH2 0xCE0 JUMP JUMPDEST PUSH2 0x1A3 PUSH2 0x1D1 CALLDATASIZE PUSH1 0x4 PUSH2 0xD5B JUMP JUMPDEST PUSH2 0xCED JUMP JUMPDEST PUSH1 0x0 PUSH1 0x1 PUSH1 0x1 PUSH1 0xA0 SHL SUB DUP4 AND PUSH2 0x1EE JUMPI POP PUSH1 0x1 PUSH2 0x1FF JUMP JUMPDEST PUSH2 0x1F8 DUP4 DUP4 PUSH2 0xAD8 JUMP JUMPDEST PUSH1 0x40 ADD MLOAD SWAP1 POP JUMPDEST SWAP3 SWAP2 POP POP JUMP JUMPDEST PUSH1 0x0 PUSH2 0x1FF DUP3 PUSH1 0x0 PUSH2 0xA38 JUMP JUMPDEST PUSH1 0x60 PUSH1 0x1 PUSH1 0x1 PUSH1 0xA0 SHL SUB DUP4 AND PUSH2 0x242 JUMPI PUSH1 0x40 MLOAD DUP1 PUSH1 0xA0 ADD PUSH1 0x40 MSTORE DUP1 PUSH1 0x75 DUP2 MSTORE PUSH1 0x20 ADD PUSH2 0x100C PUSH1 0x75 SWAP2 CODECOPY SWAP1 POP PUSH2 0x1FF JUMP JUMPDEST PUSH1 0x40 MLOAD PUSH4 0xD5F0B04D PUSH1 0xE0 SHL DUP2 MSTORE PUSH1 0x1 PUSH1 0x1 PUSH1 0xA0 SHL SUB DUP5 AND PUSH1 0x4 DUP3 ADD MSTORE PUSH1 0x24 DUP2 ADD DUP4 SWAP1 MSTORE PUSH1 0x0 SWAP1 DUP2 SWAP1 DUP2 SWAP1 PUSH20 0x0 SWAP1 PUSH4 0xD5F0B04D SWAP1 PUSH1 0x44 ADD PUSH1 0x20 PUSH1 0x40 MLOAD DUP1 DUP4 SUB DUP2 DUP7 GAS DELEGATECALL ISZERO DUP1 ISZERO PUSH2 0x2A8 JUMPI RETURNDATASIZE PUSH1 0x0 DUP1 RETURNDATACOPY RETURNDATASIZE PUSH1 0x0 REVERT JUMPDEST POP POP POP POP PUSH1 0x40 MLOAD RETURNDATASIZE PUSH1 0x1F NOT PUSH1 0x1F DUP3 ADD AND DUP3 ADD DUP1 PUSH1 0x40 MSTORE POP DUP2 ADD SWAP1 PUSH2 0x2CC SWAP2 SWAP1 PUSH2 0xE08 JUMP JUMPDEST DUP2 MSTORE PUSH1 0x20 ADD SWAP1 DUP2 MSTORE PUSH1 0x20 ADD PUSH1 0x0 KECCAK256 DUP1 SLOAD PUSH2 0x2E5 SWAP1 PUSH2 0xE21 JUMP JUMPDEST DUP1 PUSH1 0x1F ADD PUSH1 0x20 DUP1 SWAP2 DIV MUL PUSH1 0x20 ADD PUSH1 0x40 MLOAD SWAP1 DUP2 ADD PUSH1 0x40 MSTORE DUP1 SWAP3 SWAP2 SWAP1 DUP2 DUP2 MSTORE PUSH1 0x20 ADD DUP3 DUP1 SLOAD PUSH2 0x311 SWAP1 PUSH2 0xE21 JUMP JUMPDEST DUP1 ISZERO PUSH2 0x35E JUMPI DUP1 PUSH1 0x1F LT PUSH2 0x333 JUMPI PUSH2 0x100 DUP1 DUP4 SLOAD DIV MUL DUP4 MSTORE SWAP2 PUSH1 0x20 ADD SWAP2 PUSH2 0x35E JUMP JUMPDEST DUP3 ADD SWAP2 SWAP1 PUSH1 0x0 MSTORE PUSH1 0x20 PUSH1 0x0 KECCAK256 SWAP1 JUMPDEST DUP2 SLOAD DUP2 MSTORE SWAP1 PUSH1 0x1 ADD SWAP1 PUSH1 0x20 ADD DUP1 DUP4 GT PUSH2 0x341 JUMPI DUP3 SWAP1 SUB PUSH1 0x1F AND DUP3 ADD SWAP2 JUMPDEST POP POP PUSH1 0x40 DUP1 MLOAD PUSH1 0x0 DUP2 MSTORE PUSH1 0x20 DUP2 ADD DUP1 DUP4 MSTORE DUP2 MLOAD SWAP1 KECCAK256 SWAP6 SWAP7 POP PUSH2 0x386 SWAP5 POP DUP7 SWAP4 POP ADD SWAP1 POP PUSH2 0xE5B JUMP JUMPDEST PUSH1 0x40 MLOAD PUSH1 0x20 DUP2 DUP4 SUB SUB DUP2 MSTORE SWAP1 PUSH1 0x40 MSTORE DUP1 MLOAD SWAP1 PUSH1 0x20 ADD KECCAK256 EQ PUSH2 0x3A8 JUMPI SWAP1 POP PUSH2 0x1FF JUMP JUMPDEST DUP3 ISZERO PUSH2 0x512 JUMPI PUSH1 0x40 MLOAD PUSH4 0xD5F0B04D PUSH1 0xE0 SHL DUP2 MSTORE PUSH1 0x1 PUSH1 0x1 PUSH1 0xA0 SHL SUB DUP6 AND PUSH1 0x4 DUP3 ADD MSTORE PUSH1 0x0 PUSH1 0x24 DUP3 ADD DUP2 SWAP1 MSTORE SWAP1 DUP2 SWAP1 PUSH20 0x0 SWAP1 PUSH4 0xD5F0B04D SWAP1 PUSH1 0x44 ADD PUSH1 0x20 PUSH1 0x40 MLOAD DUP1 DUP4 SUB DUP2 DUP7 GAS DELEGATECALL ISZERO DUP1 ISZERO PUSH2 0x412 JUMPI RETURNDATASIZE PUSH1 0x0 DUP1 RETURNDATACOPY RETURNDATASIZE PUSH1 0x0 REVERT JUMPDEST POP POP POP POP PUSH1 0x40 MLOAD RETURNDATASIZE PUSH1 0x1F NOT PUSH1 0x1F DUP3 ADD AND DUP3 ADD DUP1 PUSH1 0x40 MSTORE POP DUP2 ADD SWAP1 PUSH2 0x436 SWAP2 SWAP1 PUSH2 0xE08 JUMP JUMPDEST DUP2 MSTORE PUSH1 0x20 ADD SWAP1 DUP2 MSTORE PUSH1 0x20 ADD PUSH1 0x0 KECCAK256 DUP1 SLOAD PUSH2 0x44F SWAP1 PUSH2 0xE21 JUMP JUMPDEST DUP1 PUSH1 0x1F ADD PUSH1 0x20 DUP1 SWAP2 DIV MUL PUSH1 0x20 ADD PUSH1 0x40 MLOAD SWAP1 DUP2 ADD PUSH1 0x40 MSTORE DUP1 SWAP3 SWAP2 SWAP1 DUP2 DUP2 MSTORE PUSH1 0x20 ADD DUP3 DUP1 SLOAD PUSH2 0x47B SWAP1 PUSH2 0xE21 JUMP JUMPDEST DUP1 ISZERO PUSH2 0x4C8 JUMPI DUP1 PUSH1 0x1F LT PUSH2 0x49D JUMPI PUSH2 0x100 DUP1 DUP4 SLOAD DIV MUL DUP4 MSTORE SWAP2 PUSH1 0x20 ADD SWAP2 PUSH2 0x4C8 JUMP JUMPDEST DUP3 ADD SWAP2 SWAP1 PUSH1 0x0 MSTORE PUSH1 0x20 PUSH1 0x0 KECCAK256 SWAP1 JUMPDEST DUP2 SLOAD DUP2 MSTORE SWAP1 PUSH1 0x1 ADD SWAP1 PUSH1 0x20 ADD DUP1 DUP4 GT PUSH2 0x4AB JUMPI DUP3 SWAP1 SUB PUSH1 0x1F AND DUP3 ADD SWAP2 JUMPDEST POP POP PUSH1 0x40 DUP1 MLOAD PUSH1 0x0 DUP2 MSTORE PUSH1 0x20 DUP2 ADD DUP1 DUP4 MSTORE DUP2 MLOAD SWAP1 KECCAK256 SWAP6 SWAP7 POP PUSH2 0x4F0 SWAP5 POP DUP7 SWAP4 POP ADD SWAP1 POP PUSH2 0xE5B JUMP JUMPDEST PUSH1 0x40 MLOAD PUSH1 0x20 DUP2 DUP4 SUB SUB DUP2 MSTORE SWAP1 PUSH1 0x40 MSTORE DUP1 MLOAD SWAP1 PUSH1 0x20 ADD KECCAK256 EQ PUSH2 0x512 JUMPI SWAP1 POP PUSH2 0x1FF JUMP JUMPDEST PUSH1 0x40 MLOAD DUP1 PUSH1 0xA0 ADD PUSH1 0x40 MSTORE DUP1 PUSH1 0x6C DUP2 MSTORE PUSH1 0x20 ADD PUSH2 0xFA0 PUSH1 0x6C SWAP2 CODECOPY SWAP5 SWAP4 POP POP POP POP JUMP JUMPDEST PUSH1 0x0 PUSH1 0x1 PUSH1 0x1 PUSH1 0xA0 SHL SUB DUP4 AND PUSH2 0x54B JUMPI POP PUSH1 0x0 PUSH2 0x1FF JUMP JUMPDEST PUSH2 0x555 DUP4 DUP4 PUSH2 0xAD8 JUMP JUMPDEST PUSH1 0x20 ADD MLOAD SWAP4 SWAP3 POP POP POP JUMP JUMPDEST PUSH1 0x40 MLOAD PUSH4 0xD5F0B04D PUSH1 0xE0 SHL DUP2 MSTORE PUSH1 0x1 PUSH1 0x1 PUSH1 0xA0 SHL SUB DUP4 AND PUSH1 0x4 DUP3 ADD MSTORE PUSH1 0x0 PUSH1 0x24 DUP3 ADD DUP2 SWAP1 MSTORE SWAP1 DUP2 SWAP1 PUSH20 0x0 SWAP1 PUSH4 0xD5F0B04D SWAP1 PUSH1 0x44 ADD PUSH1 0x20 PUSH1 0x40 MLOAD DUP1 DUP4 SUB DUP2 DUP7 GAS DELEGATECALL ISZERO DUP1 ISZERO PUSH2 0x5C4 JUMPI RETURNDATASIZE PUSH1 0x0 DUP1 RETURNDATACOPY RETURNDATASIZE PUSH1 0x0 REVERT JUMPDEST POP POP POP POP PUSH1 0x40 MLOAD RETURNDATASIZE PUSH1 0x1F NOT PUSH1 0x1F DUP3 ADD AND DUP3 ADD DUP1 PUSH1 0x40 MSTORE POP DUP2 ADD SWAP1 PUSH2 0x5E8 SWAP2 SWAP1 PUSH2 0xE08 JUMP JUMPDEST PUSH1 0x0 DUP2 DUP2 MSTORE PUSH1 0x2 PUSH1 0x20 MSTORE PUSH1 0x40 DUP2 KECCAK256 DUP1 SLOAD SWAP1 SWAP5 POP SWAP2 SWAP3 POP PUSH3 0x10000 SWAP1 SWAP2 DIV PUSH1 0x1 PUSH1 0x1 PUSH1 0x40 SHL SUB AND SWAP1 SUB PUSH2 0x77D JUMPI PUSH1 0x40 MLOAD PUSH4 0x4DD11F0F PUSH1 0xE1 SHL DUP2 MSTORE PUSH1 0x1 PUSH1 0x1 PUSH1 0xA0 SHL SUB DUP6 AND PUSH1 0x4 DUP3 ADD MSTORE PUSH1 0x0 PUSH1 0x24 DUP3 ADD MSTORE PUSH1 0x1 PUSH1 0x44 DUP3 ADD MSTORE PUSH20 0x0 SWAP1 PUSH4 0x9BA23E1E SWAP1 PUSH1 0x64 ADD PUSH1 0x60 PUSH1 0x40 MLOAD DUP1 DUP4 SUB DUP2 DUP7 GAS DELEGATECALL ISZERO DUP1 ISZERO PUSH2 0x67A JUMPI RETURNDATASIZE PUSH1 0x0 DUP1 RETURNDATACOPY RETURNDATASIZE PUSH1 0x0 REVERT JUMPDEST POP POP POP POP PUSH1 0x40 MLOAD RETURNDATASIZE PUSH1 0x1F NOT PUSH1 0x1F DUP3 ADD AND DUP3 ADD DUP1 PUSH1 0x40 MSTORE POP DUP2 ADD SWAP1 PUSH2 0x69E SWAP2 SWAP1 PUSH2 0xE87 JUMP JUMPDEST PUSH1 0x0 DUP3 DUP2 MSTORE PUSH1 0x2 PUSH1 0x20 SWAP1 DUP2 MSTORE PUSH1 0x40 SWAP2 DUP3 SWAP1 KECCAK256 DUP4 MLOAD DUP2 SLOAD SWAP3 DUP6 ADD MLOAD SWAP5 DUP5 ADD MLOAD PUSH1 0x1 PUSH1 0x1 PUSH1 0x40 SHL SUB AND PUSH3 0x10000 MUL PUSH10 0xFFFFFFFFFFFFFFFF0000 NOT SWAP6 ISZERO ISZERO PUSH2 0x100 MUL PUSH2 0xFFFF NOT SWAP1 SWAP5 AND PUSH1 0xFF SWAP1 SWAP3 AND SWAP2 SWAP1 SWAP2 OR SWAP3 SWAP1 SWAP3 OR SWAP4 SWAP1 SWAP4 AND OR SWAP1 SWAP2 SSTORE MLOAD PUSH4 0x16061A71 PUSH1 0xE2 SHL DUP2 MSTORE PUSH20 0x0 SWAP1 PUSH4 0x581869C4 SWAP1 PUSH2 0x73A SWAP1 PUSH1 0x1 SWAP1 DUP6 SWAP1 PUSH1 0x4 ADD SWAP2 DUP3 MSTORE PUSH1 0x20 DUP3 ADD MSTORE PUSH1 0x40 ADD SWAP1 JUMP JUMPDEST PUSH1 0x20 PUSH1 0x40 MLOAD DUP1 DUP4 SUB DUP2 DUP7 GAS DELEGATECALL ISZERO DUP1 ISZERO PUSH2 0x757 JUMPI RETURNDATASIZE PUSH1 0x0 DUP1 RETURNDATACOPY RETURNDATASIZE PUSH1 0x0 REVERT JUMPDEST POP POP POP POP PUSH1 0x40 MLOAD RETURNDATASIZE PUSH1 0x1F NOT PUSH1 0x1F DUP3 ADD AND DUP3 ADD DUP1 PUSH1 0x40 MSTORE POP DUP2 ADD SWAP1 PUSH2 0x77B SWAP2 SWAP1 PUSH2 0xF17 JUMP JUMPDEST POP JUMPDEST DUP2 SLOAD PUSH3 0x10000 SWAP1 DIV PUSH1 0x1 PUSH1 0x1 PUSH1 0x40 SHL SUB AND PUSH1 0x0 SUB PUSH2 0x79D JUMPI PUSH2 0x79D PUSH2 0xF32 JUMP JUMPDEST DUP2 SLOAD PUSH3 0x10000 SWAP1 DIV PUSH2 0x100 AND PUSH1 0x0 SUB PUSH2 0x7B6 JUMPI POP POP POP POP JUMP JUMPDEST PUSH1 0x40 DUP1 MLOAD PUSH1 0x60 DUP2 ADD DUP3 MSTORE DUP4 SLOAD PUSH1 0x0 DUP2 SWAP1 SIGNEXTEND DUP3 MSTORE PUSH2 0x100 DUP2 DIV PUSH1 0xFF AND ISZERO ISZERO PUSH1 0x20 DUP4 ADD MSTORE PUSH3 0x10000 SWAP1 DIV PUSH1 0x1 PUSH1 0x1 PUSH1 0x40 SHL SUB AND DUP2 DUP4 ADD MSTORE SWAP1 MLOAD PUSH4 0xD5F0B04D PUSH1 0xE0 SHL DUP2 MSTORE PUSH1 0x1 PUSH1 0x1 PUSH1 0xA0 SHL SUB DUP7 AND PUSH1 0x4 DUP3 ADD MSTORE PUSH1 0x24 DUP2 ADD DUP6 SWAP1 MSTORE PUSH20 0x0 SWAP1 PUSH4 0xD5F0B04D SWAP1 PUSH1 0x44 ADD PUSH1 0x20 PUSH1 0x40 MLOAD DUP1 DUP4 SUB DUP2 DUP7 GAS DELEGATECALL ISZERO DUP1 ISZERO PUSH2 0x849 JUMPI RETURNDATASIZE PUSH1 0x0 DUP1 RETURNDATACOPY RETURNDATASIZE PUSH1 0x0 REVERT JUMPDEST POP POP POP POP PUSH1 0x40 MLOAD RETURNDATASIZE PUSH1 0x1F NOT PUSH1 0x1F DUP3 ADD AND DUP3 ADD DUP1 PUSH1 0x40 MSTORE POP DUP2 ADD SWAP1 PUSH2 0x86D SWAP2 SWAP1 PUSH2 0xE08 JUMP JUMPDEST PUSH1 0x0 DUP2 DUP2 MSTORE PUSH1 0x2 PUSH1 0x20 MSTORE PUSH1 0x40 DUP2 KECCAK256 DUP1 SLOAD SWAP1 SWAP6 POP SWAP2 SWAP4 POP PUSH3 0x10000 SWAP1 SWAP2 DIV PUSH1 0x1 PUSH1 0x1 PUSH1 0x40 SHL SUB AND SWAP1 SUB PUSH2 0x9F7 JUMPI PUSH1 0x40 MLOAD PUSH4 0x543AF627 PUSH1 0xE0 SHL DUP2 MSTORE PUSH20 0x0 SWAP1 PUSH4 0x543AF627 SWAP1 PUSH2 0x8D7 SWAP1 DUP9 SWAP1 DUP9 SWAP1 DUP7 SWAP1 PUSH1 0x1 SWAP1 PUSH1 0x4 ADD PUSH2 0xF48 JUMP JUMPDEST PUSH1 0x60 PUSH1 0x40 MLOAD DUP1 DUP4 SUB DUP2 DUP7 GAS DELEGATECALL ISZERO DUP1 ISZERO PUSH2 0x8F4 JUMPI RETURNDATASIZE PUSH1 0x0 DUP1 RETURNDATACOPY RETURNDATASIZE PUSH1 0x0 REVERT JUMPDEST POP POP POP POP PUSH1 0x40 MLOAD RETURNDATASIZE PUSH1 0x1F NOT PUSH1 0x1F DUP3 ADD AND DUP3 ADD DUP1 PUSH1 0x40 MSTORE POP DUP2 ADD SWAP1 PUSH2 0x918 SWAP2 SWAP1 PUSH2 0xE87 JUMP JUMPDEST PUSH1 0x0 DUP4 DUP2 MSTORE PUSH1 0x2 PUSH1 0x20 SWAP1 DUP2 MSTORE PUSH1 0x40 SWAP2 DUP3 SWAP1 KECCAK256 DUP4 MLOAD DUP2 SLOAD SWAP3 DUP6 ADD MLOAD SWAP5 DUP5 ADD MLOAD PUSH1 0x1 PUSH1 0x1 PUSH1 0x40 SHL SUB AND PUSH3 0x10000 MUL PUSH10 0xFFFFFFFFFFFFFFFF0000 NOT SWAP6 ISZERO ISZERO PUSH2 0x100 MUL PUSH2 0xFFFF NOT SWAP1 SWAP5 AND PUSH1 0xFF SWAP1 SWAP3 AND SWAP2 SWAP1 SWAP2 OR SWAP3 SWAP1 SWAP3 OR SWAP4 SWAP1 SWAP4 AND OR SWAP1 SWAP2 SSTORE MLOAD PUSH4 0x16061A71 PUSH1 0xE2 SHL DUP2 MSTORE PUSH20 0x0 SWAP1 PUSH4 0x581869C4 SWAP1 PUSH2 0x9B4 SWAP1 PUSH1 0x1 SWAP1 DUP7 SWAP1 PUSH1 0x4 ADD SWAP2 DUP3 MSTORE PUSH1 0x20 DUP3 ADD MSTORE PUSH1 0x40 ADD SWAP1 JUMP JUMPDEST PUSH1 0x20 PUSH1 0x40 MLOAD DUP1 DUP4 SUB DUP2 DUP7 GAS DELEGATECALL ISZERO DUP1 ISZERO PUSH2 0x9D1 JUMPI RETURNDATASIZE PUSH1 0x0 DUP1 RETURNDATACOPY RETURNDATASIZE PUSH1 0x0 REVERT JUMPDEST POP POP POP POP PUSH1 0x40 MLOAD RETURNDATASIZE PUSH1 0x1F NOT PUSH1 0x1F DUP3 ADD AND DUP3 ADD DUP1 PUSH1 0x40 MSTORE POP DUP2 ADD SWAP1 PUSH2 0x9F5 SWAP2 SWAP1 PUSH2 0xF17 JUMP JUMPDEST POP JUMPDEST DUP3 SLOAD PUSH3 0x10000 SWAP1 DIV PUSH1 0x1 PUSH1 0x1 PUSH1 0x40 SHL SUB AND PUSH1 0x0 SUB PUSH2 0xA17 JUMPI PUSH2 0xA17 PUSH2 0xF32 JUMP JUMPDEST POP POP POP POP POP JUMP JUMPDEST PUSH1 0x0 PUSH2 0x1FF DUP3 PUSH1 0x0 PUSH2 0x1D6 JUMP JUMPDEST PUSH1 0x60 PUSH2 0x1FF DUP3 PUSH1 0x0 PUSH2 0x212 JUMP JUMPDEST PUSH1 0x0 PUSH1 0x1 PUSH1 0x1 PUSH1 0xA0 SHL SUB DUP4 AND PUSH2 0xA50 JUMPI POP PUSH1 0x1 PUSH2 0x1FF JUMP JUMPDEST PUSH20 0x0 PUSH4 0x3646B548 PUSH2 0xA74 DUP6 DUP6 PUSH2 0xAD8 JUMP JUMPDEST PUSH1 0x40 MLOAD DUP3 PUSH4 0xFFFFFFFF AND PUSH1 0xE0 SHL DUP2 MSTORE PUSH1 0x4 ADD PUSH2 0xA90 SWAP2 SWAP1 PUSH2 0xDD9 JUMP JUMPDEST PUSH1 0x20 PUSH1 0x40 MLOAD DUP1 DUP4 SUB DUP2 DUP7 GAS DELEGATECALL ISZERO DUP1 ISZERO PUSH2 0xAAD JUMPI RETURNDATASIZE PUSH1 0x0 DUP1 RETURNDATACOPY RETURNDATASIZE PUSH1 0x0 REVERT JUMPDEST POP POP POP POP PUSH1 0x40 MLOAD RETURNDATASIZE PUSH1 0x1F NOT PUSH1 0x1F DUP3 ADD AND DUP3 ADD DUP1 PUSH1 0x40 MSTORE POP DUP2 ADD SWAP1 PUSH2 0xAD1 SWAP2 SWAP1 PUSH2 0xE08 JUMP JUMPDEST SWAP4 SWAP3 POP POP POP JUMP JUMPDEST PUSH1 0x40 DUP1 MLOAD PUSH1 0x60 DUP2 ADD DUP3 MSTORE PUSH1 0x0 DUP1 DUP3 MSTORE PUSH1 0x20 DUP3 ADD DUP2 SWAP1 MSTORE SWAP2 DUP2 ADD SWAP2 SWAP1 SWAP2 MSTORE PUSH1 0x1 PUSH1 0x1 PUSH1 0xA0 SHL SUB DUP4 AND PUSH2 0xB28 JUMPI POP PUSH1 0x40 DUP1 MLOAD PUSH1 0x60 DUP2 ADD DUP3 MSTORE PUSH1 0x11 NOT DUP2 MSTORE PUSH1 0x0 PUSH1 0x20 DUP3 ADD MSTORE PUSH1 0x1 SWAP2 DUP2 ADD SWAP2 SWAP1 SWAP2 MSTORE PUSH2 0x1FF JUMP JUMPDEST PUSH1 0x40 MLOAD PUSH4 0xD5F0B04D PUSH1 0xE0 SHL DUP2 MSTORE PUSH1 0x1 PUSH1 0x1 PUSH1 0xA0 SHL SUB DUP5 AND PUSH1 0x4 DUP3 ADD MSTORE PUSH1 0x0 PUSH1 0x24 DUP3 ADD DUP2 SWAP1 MSTORE PUSH1 0x2 SWAP2 PUSH20 0x0 SWAP1 PUSH4 0xD5F0B04D SWAP1 PUSH1 0x44 ADD PUSH1 0x20 PUSH1 0x40 MLOAD DUP1 DUP4 SUB DUP2 DUP7 GAS DELEGATECALL ISZERO DUP1 ISZERO PUSH2 0xB8C JUMPI RETURNDATASIZE PUSH1 0x0 DUP1 RETURNDATACOPY RETURNDATASIZE PUSH1 0x0 REVERT JUMPDEST POP POP POP POP PUSH1 0x40 MLOAD RETURNDATASIZE PUSH1 0x1F NOT PUSH1 0x1F DUP3 ADD AND DUP3 ADD DUP1 PUSH1 0x40 MSTORE POP DUP2 ADD SWAP1 PUSH2 0xBB0 SWAP2 SWAP1 PUSH2 0xE08 JUMP JUMPDEST DUP2 MSTORE PUSH1 0x20 DUP1 DUP3 ADD SWAP3 SWAP1 SWAP3 MSTORE PUSH1 0x40 SWAP1 DUP2 ADD PUSH1 0x0 SWAP1 DUP2 KECCAK256 DUP3 MLOAD PUSH1 0x60 DUP2 ADD DUP5 MSTORE SWAP1 SLOAD SWAP2 DUP3 SWAP1 SIGNEXTEND DUP2 MSTORE PUSH2 0x100 DUP1 DUP4 DIV PUSH1 0xFF AND ISZERO ISZERO SWAP5 DUP3 ADD SWAP5 SWAP1 SWAP5 MSTORE PUSH3 0x10000 SWAP1 SWAP2 DIV PUSH1 0x1 PUSH1 0x1 PUSH1 0x40 SHL SUB DUP2 AND SWAP3 DUP3 ADD SWAP3 SWAP1 SWAP3 MSTORE SWAP3 POP AND ISZERO PUSH2 0x1FF JUMPI PUSH1 0x40 MLOAD PUSH4 0xD5F0B04D PUSH1 0xE0 SHL DUP2 MSTORE PUSH1 0x1 PUSH1 0x1 PUSH1 0xA0 SHL SUB DUP5 AND PUSH1 0x4 DUP3 ADD MSTORE PUSH1 0x24 DUP2 ADD DUP4 SWAP1 MSTORE PUSH1 0x2 SWAP1 PUSH1 0x0 SWAP1 PUSH20 0x0 SWAP1 PUSH4 0xD5F0B04D SWAP1 PUSH1 0x44 ADD PUSH1 0x20 PUSH1 0x40 MLOAD DUP1 DUP4 SUB DUP2 DUP7 GAS DELEGATECALL ISZERO DUP1 ISZERO PUSH2 0xC6C JUMPI RETURNDATASIZE PUSH1 0x0 DUP1 RETURNDATACOPY RETURNDATASIZE PUSH1 0x0 REVERT JUMPDEST POP POP POP POP PUSH1 0x40 MLOAD RETURNDATASIZE PUSH1 0x1F NOT PUSH1 0x1F DUP3 ADD AND DUP3 ADD DUP1 PUSH1 0x40 MSTORE POP DUP2 ADD SWAP1 PUSH2 0xC90 SWAP2 SWAP1 PUSH2 0xE08 JUMP JUMPDEST DUP2 MSTORE PUSH1 0x20 DUP1 DUP3 ADD SWAP3 SWAP1 SWAP3 MSTORE PUSH1 0x40 SWAP1 DUP2 ADD PUSH1 0x0 SWAP1 DUP2 KECCAK256 DUP3 MLOAD PUSH1 0x60 DUP2 ADD DUP5 MSTORE SWAP1 SLOAD SWAP2 DUP3 SWAP1 SIGNEXTEND DUP2 MSTORE PUSH2 0x100 DUP3 DIV PUSH1 0xFF AND ISZERO ISZERO SWAP4 DUP2 ADD SWAP4 SWAP1 SWAP4 MSTORE PUSH3 0x10000 SWAP1 DIV PUSH1 0x1 PUSH1 0x1 PUSH1 0x40 SHL SUB AND SWAP1 DUP3 ADD MSTORE SWAP4 SWAP3 POP POP POP JUMP JUMPDEST PUSH1 0x0 PUSH2 0x1FF DUP3 PUSH1 0x0 PUSH2 0x533 JUMP JUMPDEST PUSH1 0x40 DUP1 MLOAD PUSH1 0x60 DUP2 ADD DUP3 MSTORE PUSH1 0x0 DUP1 DUP3 MSTORE PUSH1 0x20 DUP3 ADD DUP2 SWAP1 MSTORE SWAP2 DUP2 ADD SWAP2 SWAP1 SWAP2 MSTORE PUSH2 0x1FF DUP3 PUSH1 0x0 PUSH2 0xAD8 JUMP JUMPDEST DUP1 CALLDATALOAD PUSH1 0x1 PUSH1 0x1 PUSH1 0xA0 SHL SUB DUP2 AND DUP2 EQ PUSH2 0xD2C JUMPI PUSH1 0x0 DUP1 REVERT JUMPDEST SWAP2 SWAP1 POP JUMP JUMPDEST PUSH1 0x0 DUP1 PUSH1 0x40 DUP4 DUP6 SUB SLT ISZERO PUSH2 0xD44 JUMPI PUSH1 0x0 DUP1 REVERT JUMPDEST PUSH2 0xD4D DUP4 PUSH2 0xD15 JUMP JUMPDEST SWAP5 PUSH1 0x20 SWAP4 SWAP1 SWAP4 ADD CALLDATALOAD SWAP4 POP POP POP JUMP JUMPDEST PUSH1 0x0 PUSH1 0x20 DUP3 DUP5 SUB SLT ISZERO PUSH2 0xD6D JUMPI PUSH1 0x0 DUP1 REVERT JUMPDEST PUSH2 0xAD1 DUP3 PUSH2 0xD15 JUMP JUMPDEST PUSH1 0x0 JUMPDEST DUP4 DUP2 LT ISZERO PUSH2 0xD91 JUMPI DUP2 DUP2 ADD MLOAD DUP4 DUP3 ADD MSTORE PUSH1 0x20 ADD PUSH2 0xD79 JUMP JUMPDEST DUP4 DUP2 GT ISZERO PUSH2 0xDA0 JUMPI PUSH1 0x0 DUP5 DUP5 ADD MSTORE JUMPDEST POP POP POP POP JUMP JUMPDEST PUSH1 0x20 DUP2 MSTORE PUSH1 0x0 DUP3 MLOAD DUP1 PUSH1 0x20 DUP5 ADD MSTORE PUSH2 0xDC5 DUP2 PUSH1 0x40 DUP6 ADD PUSH1 0x20 DUP8 ADD PUSH2 0xD76 JUMP JUMPDEST PUSH1 0x1F ADD PUSH1 0x1F NOT AND SWAP2 SWAP1 SWAP2 ADD PUSH1 0x40 ADD SWAP3 SWAP2 POP POP JUMP JUMPDEST DUP2 MLOAD PUSH1 0x0 SIGNEXTEND DUP2 MSTORE PUSH1 0x20 DUP1 DUP4 ADD MLOAD ISZERO ISZERO SWAP1 DUP3 ADD MSTORE PUSH1 0x40 DUP1 DUP4 ADD MLOAD PUSH1 0x1 PUSH1 0x1 PUSH1 0x40 SHL SUB AND SWAP1 DUP3 ADD MSTORE PUSH1 0x60 DUP2 ADD PUSH2 0x1FF JUMP JUMPDEST PUSH1 0x0 PUSH1 0x20 DUP3 DUP5 SUB SLT ISZERO PUSH2 0xE1A JUMPI PUSH1 0x0 DUP1 REVERT JUMPDEST POP MLOAD SWAP2 SWAP1 POP JUMP JUMPDEST PUSH1 0x1 DUP2 DUP2 SHR SWAP1 DUP3 AND DUP1 PUSH2 0xE35 JUMPI PUSH1 0x7F DUP3 AND SWAP2 POP JUMPDEST PUSH1 0x20 DUP3 LT DUP2 SUB PUSH2 0xE55 JUMPI PUSH4 0x4E487B71 PUSH1 0xE0 SHL PUSH1 0x0 MSTORE PUSH1 0x22 PUSH1 0x4 MSTORE PUSH1 0x24 PUSH1 0x0 REVERT JUMPDEST POP SWAP2 SWAP1 POP JUMP JUMPDEST PUSH1 0x0 DUP3 MLOAD PUSH2 0xE6D DUP2 DUP5 PUSH1 0x20 DUP8 ADD PUSH2 0xD76 JUMP JUMPDEST SWAP2 SWAP1 SWAP2 ADD SWAP3 SWAP2 POP POP JUMP JUMPDEST DUP1 MLOAD DUP1 ISZERO ISZERO DUP2 EQ PUSH2 0xD2C JUMPI PUSH1 0x0 DUP1 REVERT JUMPDEST PUSH1 0x0 PUSH1 0x60 DUP3 DUP5 SUB SLT ISZERO PUSH2 0xE99 JUMPI PUSH1 0x0 DUP1 REVERT JUMPDEST PUSH1 0x40 MLOAD PUSH1 0x60 DUP2 ADD PUSH1 0x1 PUSH1 0x1 PUSH1 0x40 SHL SUB DUP3 DUP3 LT DUP2 DUP4 GT OR ISZERO PUSH2 0xECA JUMPI PUSH4 0x4E487B71 PUSH1 0xE0 SHL PUSH1 0x0 MSTORE PUSH1 0x41 PUSH1 0x4 MSTORE PUSH1 0x24 PUSH1 0x0 REVERT JUMPDEST DUP2 PUSH1 0x40 MSTORE DUP5 MLOAD SWAP2 POP DUP2 PUSH1 0x0 SIGNEXTEND DUP3 EQ PUSH2 0xEE1 JUMPI PUSH1 0x0 DUP1 REVERT JUMPDEST DUP2 DUP4 MSTORE PUSH2 0xEF0 PUSH1 0x20 DUP7 ADD PUSH2 0xE77 JUMP JUMPDEST PUSH1 0x20 DUP5 ADD MSTORE PUSH1 0x40 DUP6 ADD MLOAD SWAP2 POP DUP1 DUP3 AND DUP3 EQ PUSH2 0xF0A JUMPI PUSH1 0x0 DUP1 REVERT JUMPDEST POP PUSH1 0x40 DUP3 ADD MSTORE SWAP4 SWAP3 POP POP POP JUMP JUMPDEST PUSH1 0x0 PUSH1 0x20 DUP3 DUP5 SUB SLT ISZERO PUSH2 0xF29 JUMPI PUSH1 0x0 DUP1 REVERT JUMPDEST PUSH2 0xAD1 DUP3 PUSH2 0xE77 JUMP JUMPDEST PUSH4 0x4E487B71 PUSH1 0xE0 SHL PUSH1 0x0 MSTORE PUSH1 0x1 PUSH1 0x4 MSTORE PUSH1 0x24 PUSH1 0x0 REVERT JUMPDEST PUSH1 0x1 PUSH1 0x1 PUSH1 0xA0 SHL SUB DUP6 AND DUP2 MSTORE PUSH1 0x20 DUP2 ADD DUP5 SWAP1 MSTORE PUSH1 0xC0 DUP2 ADD PUSH2 0xF8E PUSH1 0x40 DUP4 ADD DUP6 DUP1 MLOAD PUSH1 0x0 SIGNEXTEND DUP3 MSTORE PUSH1 0x20 DUP1 DUP3 ADD MLOAD ISZERO ISZERO SWAP1 DUP4 ADD MSTORE PUSH1 0x40 SWAP1 DUP2 ADD MLOAD PUSH1 0x1 PUSH1 0x1 PUSH1 0x40 SHL SUB AND SWAP2 ADD MSTORE JUMP JUMPDEST DUP3 ISZERO ISZERO PUSH1 0xA0 DUP4 ADD MSTORE SWAP6 SWAP5 POP POP POP POP POP JUMP INVALID PUSH9 0x747470733A2F2F6769 PUSH21 0x6875622E636F6D2F5061747269636B416C70686143 0x2F PUSH5 0x6566692D73 PUSH21 0x616B652D7969656C642D62726F776E69652D667265 PUSH6 0x636F64652F62 PUSH13 0x6F622F6D61696E2F66726F6E74 0x5F PUSH6 0x6E642F737263 0x2F PUSH5 0x6170702E70 PUSH15 0x673F7261773D747275656874747073 GASPRICE 0x2F 0x2F PUSH19 0x61772E67697468756275736572636F6E74656E PUSH21 0x2E636F6D2F5061747269636B416C706861432F6465 PUSH7 0x692D7374616B65 0x2D PUSH26 0x69656C642D62726F776E69652D66726565636F64652F6D61696E 0x2F PUSH7 0x726F6E745F656E PUSH5 0x2F7372632F PUSH6 0x74682E706E67 EXTCODEHASH PUSH19 0x61773D74727565A264697066735822122023ED PUSH26 0x9B9B255AEB0434D3CA1BDC58AEFB34AA0CFB02CF6878B657126 PUSH22 0x49B064736F6C634300080D0033000000000000000000 ",
  "sha1": "13b436d014f186d70f39a78bce17d49e030f907b",
  "source": "// SPDX-License-Identifier: MIT\n// Beef Contracts v0.0.0 hello@mcdu.com\n\npragma solidity ^0.8.0;\n\nimport \"../Array.sol\";\nimport \"./TokenLib.sol\";\nimport \"../Keccak/BytesAndKeccakLib.sol\";\n\n/*contract TokenAllowing {\n    using Array for bytes32[];\n\n    bool private _allowed;\n    bytes32[] private _list;\n\n    function allowed(bytes32 token_) public view returns (bool) {\n        if (_list.s_exist(token_)) return _allowed;\n        else return !_allowed;\n    }\n\n    function _tokenAllowingModeChanged(bool modeallowed_) internal virtual {}\n\n    function _modeAllowed() internal {\n        if (_allowed) return;\n        _allowed = false;\n        delete _list;\n        _tokenAllowingModeChanged(_allowed);\n    }\n\n    function _modeForbidden() internal {\n        if (!_allowed) return;\n        _allowed = true;\n        delete _list;\n        _tokenAllowingModeChanged(_allowed);\n    }\n\n    function _tokenAllowingListChanged(bytes32[] memory tokens_)\n        internal\n        virtual\n    {}\n\n    function _listSet(bytes32[] memory tokenhashs_) internal {\n        _list = tokenhashs_;\n        _tokenAllowingListChanged(tokenhashs_);\n    }\n\n    function _tokenAllowingListAdded(bytes32 tokenhash_) internal virtual {}\n\n    function _tokenAllowingListRemoved(bytes32 tokenhash_) internal virtual {}\n\n    function _listAdd(bytes32 tokenhash_) internal {\n        if (_list.insert(tokenhash_)) _tokenAllowingListAdded(tokenhash_);\n    }\n\n    function _tokenAllowingModeListRemove(bytes32 tokenhash_) internal {\n        if (_list.remove(tokenhash_)) _tokenAllowingListRemoved(tokenhash_);\n    }\n}*/\n\ncontract Tokens  {\n    using Array for bytes32[];\n\n\n    mapping(bytes32 => string) private _images;\n    string constant _defaultimage =\n        \"https://github.com/PatrickAlphaC/defi-stake-yield-brownie-freecode/blob/main/front_end/src/dapp.png?raw=true\";\n    string constant _imageeth =\n        \"https://raw.githubusercontent.com/PatrickAlphaC/defi-stake-yield-brownie-freecode/main/front_end/src/eth.png?raw=true\";\n\n    bytes32[] private _tokens;\n    //bytes32[] private _equivtokens;\n    //mapping(bytes32 => bytes32[]) private _equivtokenstotokens;\n    mapping(bytes32 => Token.Info) private _tokeninfos;\n\n    function token(address token_,uint256 tokenid_) public\n    {\n        Token.Info storage out_;\n        bytes32 tokenhash = BytesAndKeccakLib.pureAddressUInt256(token_, 0);\n        out_=_tokeninfos[tokenhash];\n        if (out_.features==0)\n        {\n            _tokeninfos[tokenhash] = Token.tokenInfo(token_,0,true);\n            _tokens.insert(tokenhash);\n        }\n        assert(out_.features!=0);\n        if (out_.features& Token.isTokenWithId == 0)\n            return;\n        Token.Info memory outparent = out_;\n        tokenhash = BytesAndKeccakLib.pureAddressUInt256(token_, tokenid_);\n        out_=_tokeninfos[tokenhash];\n        if (out_.features==0)\n        {\n            _tokeninfos[tokenhash] = Token.tokenInfoEx(token_,tokenid_,outparent,true);\n            _tokens.insert(tokenhash);\n        }\n        assert(out_.features!=0);\n    }\n\n\n    /*function count() public view returns (uint256) {\n        return _tokens.length;\n    }\n\n    function equivCount() public view returns (uint256) {\n        return _equivtokens.length;\n    }\n\n    function get(uint256 _index) public view returns (bytes32) {\n        assert(_index < _tokens.length);\n        return _tokens[_index];\n    }\n\n    function equivGet(uint256 _index) public view returns (bytes32) {\n        assert(_index < _equivtokens.length);\n        return _equivtokens[_index];\n    }\n\n    function get() public view returns (bytes32[] memory) {\n        return _tokens;\n    }\n\n    function equivGet() public view returns (bytes32[] memory) {\n        return _equivtokens;\n    }*/\n\n    /*function tokenType(bytes32 token_) public view virtual returns (Token.Type) {\n        return _tokeninfos[token_].tokentype;\n    }*/\n    function tokenInfo(address token_) public view virtual returns (Token.Info memory out_) {\n        return tokenInfo(token_,0);\n    }\n    function tokenInfo(address token_,uint256 tokenId_) public view virtual returns (Token.Info memory out_) {\n        if (token_==address(0))\n            return Token.Info(-18,false,Token.TypeCurrency);\n        out_= _tokeninfos[BytesAndKeccakLib.pureAddressUInt256(token_, 0)];\n        if (out_.features& Token.isTokenWithId == 0)\n            return out_;\n        out_= _tokeninfos[BytesAndKeccakLib.pureAddressUInt256(token_, tokenId_)];\n    }\n    function features(address token_) public view virtual returns (uint64) {\n        return features(token_,0);\n    }\n    function features(address token_,uint256 tokenId_) public view virtual returns (uint64) {\n        if (token_==address(0))\n            return Token.TypeCurrency;\n        return tokenInfo(token_,tokenId_).features;\n    }\n    function nft(address token_) public view virtual returns (bool) {\n        return nft(token_,0);\n    }\n    function nft(address token_,uint256 tokenId_) public view virtual returns (bool) {\n        if (token_==address(0))\n            return false;\n        return tokenInfo(token_,tokenId_).nft;\n    }\n    function granularity(address token_) public view virtual returns (uint256) {\n        return granularity(token_,0);\n    }\n    function granularity(address token_,uint256 tokenId_) public view virtual returns (uint256) {\n        if (token_==address(0))\n            return 1;\n        return Token.granularity(tokenInfo(token_,tokenId_));\n    }\n    function image(address token_) public view virtual returns (string memory) {\n        return image(token_,0);\n    }\n    function image(address token_,uint256 tokenId_) public view virtual returns (string memory) {\n        if (token_==address(0)) return _imageeth;\n        string memory _image = _images[BytesAndKeccakLib.pureAddressUInt256(token_, tokenId_)];\n        if (\n            keccak256(abi.encodePacked((_image))) !=\n            keccak256(abi.encodePacked((\"\")))\n        ) return _image;\n        if (tokenId_!=0)\n        {\n            _image = _images[BytesAndKeccakLib.pureAddressUInt256(token_, 0)];\n            if (\n                keccak256(abi.encodePacked((_image))) !=\n                keccak256(abi.encodePacked((\"\")))\n            ) return _image;        \n        }\n        return _defaultimage;\n    }\n}\n",
  "sourcePath": "contracts/agnostic/Token/Tokens.sol",
  "type": "contract"
}