{
  "abi": [
    {
      "inputs": [
        {
          "internalType": "bool",
          "name": "tradeable_",
          "type": "bool"
        },
        {
          "internalType": "bool",
          "name": "onlyWithCurrency_",
          "type": "bool"
        }
      ],
      "stateMutability": "nonpayable",
      "type": "constructor"
    },
    {
      "inputs": [],
      "name": "onlyWithCurrency",
      "outputs": [
        {
          "internalType": "bool",
          "name": "",
          "type": "bool"
        }
      ],
      "stateMutability": "view",
      "type": "function"
    },
    {
      "inputs": [
        {
          "internalType": "bytes4",
          "name": "interfaceId",
          "type": "bytes4"
        }
      ],
      "name": "supportsInterface",
      "outputs": [
        {
          "internalType": "bool",
          "name": "",
          "type": "bool"
        }
      ],
      "stateMutability": "pure",
      "type": "function"
    },
    {
      "inputs": [],
      "name": "tradeable",
      "outputs": [
        {
          "internalType": "bool",
          "name": "",
          "type": "bool"
        }
      ],
      "stateMutability": "view",
      "type": "function"
    }
  ],
  "bytecode": "60c060405234801561001057600080fd5b506040516101cf3803806101cf83398101604081905261002f91610054565b901515608052151560a052610087565b8051801515811461004f57600080fd5b919050565b6000806040838503121561006757600080fd5b6100708361003f565b915061007e6020840161003f565b90509250929050565b60805160a0516101256100aa6000396000607801526000609d01526101256000f3fe6080604052348015600f57600080fd5b5060043610603c5760003560e01c806301ffc9a71460415780630e499427146076578063f5ac9db614609b575b600080fd5b6062604c36600460c0565b6001600160e01b031916637d0d601b60e11b1490565b604051901515815260200160405180910390f35b7f00000000000000000000000000000000000000000000000000000000000000006062565b7f00000000000000000000000000000000000000000000000000000000000000006062565b60006020828403121560d157600080fd5b81356001600160e01b03198116811460e857600080fd5b939250505056fea2646970667358221220025e5f8a75d48c22e2048f5d2b44a9700d45a22f12f1d0a0014deeb646f402ae64736f6c634300080d0033",
  "bytecodeSha1": "84c60f41847b09329fab8fc53ccf29b33b6886d5",
  "compiler": {
    "evm_version": "istanbul",
    "optimizer": {
      "enabled": true,
      "runs": 200
    },
    "version": "0.8.13+commit.abaa5c0e"
  },
  "contractName": "Tradeable",
  "language": "Solidity",
  "natspec": {
    "kind": "dev",
    "methods": {
      "supportsInterface(bytes4)": {
        "details": "Returns true if this contract implements the interface defined by `interfaceId`. See the corresponding https://eips.ethereum.org/EIPS/eip-165#how-interfaces-are-identified[EIP section] to learn more about how these ids are created. This function call must use less than 30 000 gas."
      }
    },
    "version": 1
  },
  "opcodes": "PUSH1 0x80 PUSH1 0x40 MSTORE CALLVALUE DUP1 ISZERO PUSH1 0xF JUMPI PUSH1 0x0 DUP1 REVERT JUMPDEST POP PUSH1 0x4 CALLDATASIZE LT PUSH1 0x3C JUMPI PUSH1 0x0 CALLDATALOAD PUSH1 0xE0 SHR DUP1 PUSH4 0x1FFC9A7 EQ PUSH1 0x41 JUMPI DUP1 PUSH4 0xE499427 EQ PUSH1 0x76 JUMPI DUP1 PUSH4 0xF5AC9DB6 EQ PUSH1 0x9B JUMPI JUMPDEST PUSH1 0x0 DUP1 REVERT JUMPDEST PUSH1 0x62 PUSH1 0x4C CALLDATASIZE PUSH1 0x4 PUSH1 0xC0 JUMP JUMPDEST PUSH1 0x1 PUSH1 0x1 PUSH1 0xE0 SHL SUB NOT AND PUSH4 0x7D0D601B PUSH1 0xE1 SHL EQ SWAP1 JUMP JUMPDEST PUSH1 0x40 MLOAD SWAP1 ISZERO ISZERO DUP2 MSTORE PUSH1 0x20 ADD PUSH1 0x40 MLOAD DUP1 SWAP2 SUB SWAP1 RETURN JUMPDEST PUSH32 0x0 PUSH1 0x62 JUMP JUMPDEST PUSH32 0x0 PUSH1 0x62 JUMP JUMPDEST PUSH1 0x0 PUSH1 0x20 DUP3 DUP5 SUB SLT ISZERO PUSH1 0xD1 JUMPI PUSH1 0x0 DUP1 REVERT JUMPDEST DUP2 CALLDATALOAD PUSH1 0x1 PUSH1 0x1 PUSH1 0xE0 SHL SUB NOT DUP2 AND DUP2 EQ PUSH1 0xE8 JUMPI PUSH1 0x0 DUP1 REVERT JUMPDEST SWAP4 SWAP3 POP POP POP JUMP INVALID LOG2 PUSH5 0x6970667358 0x22 SLT KECCAK256 MUL 0x5E 0x5F DUP11 PUSH22 0xD48C22E2048F5D2B44A9700D45A22F12F1D0A0014DEE 0xB6 CHAINID DELEGATECALL MUL 0xAE PUSH5 0x736F6C6343 STOP ADDMOD 0xD STOP CALLER ",
  "sha1": "b4bcb5712ebb4b647d0072975977f993cbb4ff6d",
  "source": "// SPDX-License-Identifier: MIT\n// Beef MarketPlace Contracts v0.0.0 hello@mcdu.com\n\npragma solidity ^0.8.0;\nimport \"../../../interfaces/ITradeableAndIBankable.sol\";\n\ncontract Tradeable is ITradeable {\n    bool immutable _tradeable;\n    bool immutable _onlyWithCurrency;\n\n    function supportsInterface(bytes4 interfaceId)\n        external\n        pure\n        returns (bool)\n    {\n        return interfaceId == type(ITradeable).interfaceId;\n    }\n\n    constructor(bool tradeable_, bool onlyWithCurrency_) {\n        _tradeable = tradeable_;\n        _onlyWithCurrency = onlyWithCurrency_;\n    }\n\n    function tradeable() external view returns (bool) {\n        return _tradeable;\n    }\n\n    function onlyWithCurrency() external view returns (bool) {\n        return _onlyWithCurrency;\n    }\n}\n\ncontract Bankeable is IBankeable {\n    function supportsInterface(bytes4 interfaceId)\n        external\n        pure\n        returns (bool)\n    {\n        return interfaceId == type(IBankeable).interfaceId;\n    }\n\n    bool immutable _bankeable;\n\n    constructor(bool bankeable_) {\n        _bankeable = bankeable_;\n    }\n\n    function bankeable() external view returns (bool) {\n        return _bankeable;\n    }\n}\n",
  "sourcePath": "contracts/agnostic/Token/TradeableAndBankable.sol",
  "type": "contract"
}