{
  "abi": [
    {
      "inputs": [
        {
          "internalType": "uint256",
          "name": "val_",
          "type": "uint256"
        }
      ],
      "name": "UInt256ToUInt32",
      "outputs": [
        {
          "internalType": "uint32",
          "name": "",
          "type": "uint32"
        }
      ],
      "stateMutability": "pure",
      "type": "function"
    },
    {
      "inputs": [
        {
          "internalType": "uint256",
          "name": "val_",
          "type": "uint256"
        }
      ],
      "name": "UInt256ToUInt48",
      "outputs": [
        {
          "internalType": "uint48",
          "name": "",
          "type": "uint48"
        }
      ],
      "stateMutability": "pure",
      "type": "function"
    },
    {
      "inputs": [
        {
          "internalType": "uint256",
          "name": "val_",
          "type": "uint256"
        }
      ],
      "name": "UInt256ToUInt64",
      "outputs": [
        {
          "internalType": "uint64",
          "name": "",
          "type": "uint64"
        }
      ],
      "stateMutability": "pure",
      "type": "function"
    },
    {
      "inputs": [
        {
          "internalType": "uint32",
          "name": "val_",
          "type": "uint32"
        }
      ],
      "name": "UInt32ToUInt256",
      "outputs": [
        {
          "internalType": "uint256",
          "name": "",
          "type": "uint256"
        }
      ],
      "stateMutability": "pure",
      "type": "function"
    },
    {
      "inputs": [
        {
          "internalType": "uint48",
          "name": "val_",
          "type": "uint48"
        }
      ],
      "name": "UInt48ToUInt256",
      "outputs": [
        {
          "internalType": "uint256",
          "name": "",
          "type": "uint256"
        }
      ],
      "stateMutability": "pure",
      "type": "function"
    },
    {
      "inputs": [
        {
          "internalType": "uint64",
          "name": "val_",
          "type": "uint64"
        }
      ],
      "name": "UInt64ToUInt256",
      "outputs": [
        {
          "internalType": "uint256",
          "name": "",
          "type": "uint256"
        }
      ],
      "stateMutability": "pure",
      "type": "function"
    }
  ],
  "bytecode": "608060405234801561001057600080fd5b50610309806100206000396000f3fe608060405234801561001057600080fd5b50600436106100625760003560e01c80632203616d1461006757806362965141146100945780637af6649a146100c0578063b03fd40d146100e1578063e4b16144146100f4578063feab445414610107575b600080fd5b61007a6100753660046101d6565b610131565b60405163ffffffff90911681526020015b60405180910390f35b6100a76100a23660046101d6565b610148565b60405167ffffffffffffffff909116815260200161008b565b6100d36100ce3660046101ef565b61017a565b60405190815260200161008b565b6100d36100ef36600461021e565b610193565b6100d3610102366004610248565b6101ae565b61011a6101153660046101d6565b6101c5565b60405165ffffffffffff909116815260200161008b565b600061014264e8d4a510008361026e565b92915050565b60008061015a6402540be4008461026e565b90508261016c826402540be400610290565b1115610142576101426102bd565b600061014265ffffffffffff831664174876e800610290565b600061014267ffffffffffffffff83166402540be400610290565b600061014263ffffffff831664e8d4a51000610290565b600061014264174876e8008361026e565b6000602082840312156101e857600080fd5b5035919050565b60006020828403121561020157600080fd5b813565ffffffffffff8116811461021757600080fd5b9392505050565b60006020828403121561023057600080fd5b813567ffffffffffffffff8116811461021757600080fd5b60006020828403121561025a57600080fd5b813563ffffffff8116811461021757600080fd5b60008261028b57634e487b7160e01b600052601260045260246000fd5b500490565b60008160001904831182151516156102b857634e487b7160e01b600052601160045260246000fd5b500290565b634e487b7160e01b600052600160045260246000fdfea2646970667358221220e9e7cc86c3c013a46450ea2d70584ef30b13a04f375040f3256adcb05c37eff264736f6c634300080d0033",
  "bytecodeSha1": "16a23b4d2660d23cfc1c0514bf4e49a0667a4530",
  "compiler": {
    "evm_version": "istanbul",
    "optimizer": {
      "enabled": true,
      "runs": 200
    },
    "version": "0.8.13+commit.abaa5c0e"
  },
  "contractName": "UIntConverter",
  "language": "Solidity",
  "natspec": {
    "kind": "dev",
    "methods": {},
    "version": 1
  },
  "opcodes": "PUSH1 0x80 PUSH1 0x40 MSTORE CALLVALUE DUP1 ISZERO PUSH2 0x10 JUMPI PUSH1 0x0 DUP1 REVERT JUMPDEST POP PUSH1 0x4 CALLDATASIZE LT PUSH2 0x62 JUMPI PUSH1 0x0 CALLDATALOAD PUSH1 0xE0 SHR DUP1 PUSH4 0x2203616D EQ PUSH2 0x67 JUMPI DUP1 PUSH4 0x62965141 EQ PUSH2 0x94 JUMPI DUP1 PUSH4 0x7AF6649A EQ PUSH2 0xC0 JUMPI DUP1 PUSH4 0xB03FD40D EQ PUSH2 0xE1 JUMPI DUP1 PUSH4 0xE4B16144 EQ PUSH2 0xF4 JUMPI DUP1 PUSH4 0xFEAB4454 EQ PUSH2 0x107 JUMPI JUMPDEST PUSH1 0x0 DUP1 REVERT JUMPDEST PUSH2 0x7A PUSH2 0x75 CALLDATASIZE PUSH1 0x4 PUSH2 0x1D6 JUMP JUMPDEST PUSH2 0x131 JUMP JUMPDEST PUSH1 0x40 MLOAD PUSH4 0xFFFFFFFF SWAP1 SWAP2 AND DUP2 MSTORE PUSH1 0x20 ADD JUMPDEST PUSH1 0x40 MLOAD DUP1 SWAP2 SUB SWAP1 RETURN JUMPDEST PUSH2 0xA7 PUSH2 0xA2 CALLDATASIZE PUSH1 0x4 PUSH2 0x1D6 JUMP JUMPDEST PUSH2 0x148 JUMP JUMPDEST PUSH1 0x40 MLOAD PUSH8 0xFFFFFFFFFFFFFFFF SWAP1 SWAP2 AND DUP2 MSTORE PUSH1 0x20 ADD PUSH2 0x8B JUMP JUMPDEST PUSH2 0xD3 PUSH2 0xCE CALLDATASIZE PUSH1 0x4 PUSH2 0x1EF JUMP JUMPDEST PUSH2 0x17A JUMP JUMPDEST PUSH1 0x40 MLOAD SWAP1 DUP2 MSTORE PUSH1 0x20 ADD PUSH2 0x8B JUMP JUMPDEST PUSH2 0xD3 PUSH2 0xEF CALLDATASIZE PUSH1 0x4 PUSH2 0x21E JUMP JUMPDEST PUSH2 0x193 JUMP JUMPDEST PUSH2 0xD3 PUSH2 0x102 CALLDATASIZE PUSH1 0x4 PUSH2 0x248 JUMP JUMPDEST PUSH2 0x1AE JUMP JUMPDEST PUSH2 0x11A PUSH2 0x115 CALLDATASIZE PUSH1 0x4 PUSH2 0x1D6 JUMP JUMPDEST PUSH2 0x1C5 JUMP JUMPDEST PUSH1 0x40 MLOAD PUSH6 0xFFFFFFFFFFFF SWAP1 SWAP2 AND DUP2 MSTORE PUSH1 0x20 ADD PUSH2 0x8B JUMP JUMPDEST PUSH1 0x0 PUSH2 0x142 PUSH5 0xE8D4A51000 DUP4 PUSH2 0x26E JUMP JUMPDEST SWAP3 SWAP2 POP POP JUMP JUMPDEST PUSH1 0x0 DUP1 PUSH2 0x15A PUSH5 0x2540BE400 DUP5 PUSH2 0x26E JUMP JUMPDEST SWAP1 POP DUP3 PUSH2 0x16C DUP3 PUSH5 0x2540BE400 PUSH2 0x290 JUMP JUMPDEST GT ISZERO PUSH2 0x142 JUMPI PUSH2 0x142 PUSH2 0x2BD JUMP JUMPDEST PUSH1 0x0 PUSH2 0x142 PUSH6 0xFFFFFFFFFFFF DUP4 AND PUSH5 0x174876E800 PUSH2 0x290 JUMP JUMPDEST PUSH1 0x0 PUSH2 0x142 PUSH8 0xFFFFFFFFFFFFFFFF DUP4 AND PUSH5 0x2540BE400 PUSH2 0x290 JUMP JUMPDEST PUSH1 0x0 PUSH2 0x142 PUSH4 0xFFFFFFFF DUP4 AND PUSH5 0xE8D4A51000 PUSH2 0x290 JUMP JUMPDEST PUSH1 0x0 PUSH2 0x142 PUSH5 0x174876E800 DUP4 PUSH2 0x26E JUMP JUMPDEST PUSH1 0x0 PUSH1 0x20 DUP3 DUP5 SUB SLT ISZERO PUSH2 0x1E8 JUMPI PUSH1 0x0 DUP1 REVERT JUMPDEST POP CALLDATALOAD SWAP2 SWAP1 POP JUMP JUMPDEST PUSH1 0x0 PUSH1 0x20 DUP3 DUP5 SUB SLT ISZERO PUSH2 0x201 JUMPI PUSH1 0x0 DUP1 REVERT JUMPDEST DUP2 CALLDATALOAD PUSH6 0xFFFFFFFFFFFF DUP2 AND DUP2 EQ PUSH2 0x217 JUMPI PUSH1 0x0 DUP1 REVERT JUMPDEST SWAP4 SWAP3 POP POP POP JUMP JUMPDEST PUSH1 0x0 PUSH1 0x20 DUP3 DUP5 SUB SLT ISZERO PUSH2 0x230 JUMPI PUSH1 0x0 DUP1 REVERT JUMPDEST DUP2 CALLDATALOAD PUSH8 0xFFFFFFFFFFFFFFFF DUP2 AND DUP2 EQ PUSH2 0x217 JUMPI PUSH1 0x0 DUP1 REVERT JUMPDEST PUSH1 0x0 PUSH1 0x20 DUP3 DUP5 SUB SLT ISZERO PUSH2 0x25A JUMPI PUSH1 0x0 DUP1 REVERT JUMPDEST DUP2 CALLDATALOAD PUSH4 0xFFFFFFFF DUP2 AND DUP2 EQ PUSH2 0x217 JUMPI PUSH1 0x0 DUP1 REVERT JUMPDEST PUSH1 0x0 DUP3 PUSH2 0x28B JUMPI PUSH4 0x4E487B71 PUSH1 0xE0 SHL PUSH1 0x0 MSTORE PUSH1 0x12 PUSH1 0x4 MSTORE PUSH1 0x24 PUSH1 0x0 REVERT JUMPDEST POP DIV SWAP1 JUMP JUMPDEST PUSH1 0x0 DUP2 PUSH1 0x0 NOT DIV DUP4 GT DUP3 ISZERO ISZERO AND ISZERO PUSH2 0x2B8 JUMPI PUSH4 0x4E487B71 PUSH1 0xE0 SHL PUSH1 0x0 MSTORE PUSH1 0x11 PUSH1 0x4 MSTORE PUSH1 0x24 PUSH1 0x0 REVERT JUMPDEST POP MUL SWAP1 JUMP JUMPDEST PUSH4 0x4E487B71 PUSH1 0xE0 SHL PUSH1 0x0 MSTORE PUSH1 0x1 PUSH1 0x4 MSTORE PUSH1 0x24 PUSH1 0x0 REVERT INVALID LOG2 PUSH5 0x6970667358 0x22 SLT KECCAK256 0xE9 0xE7 0xCC DUP7 0xC3 0xC0 SGT LOG4 PUSH5 0x50EA2D7058 0x4E RETURN SIGNEXTEND SGT LOG0 0x4F CALLDATACOPY POP BLOCKHASH RETURN 0x25 PUSH11 0xDCB05C37EFF264736F6C63 NUMBER STOP ADDMOD 0xD STOP CALLER ",
  "sha1": "13e00e24e5208cbc8d8513ab6356ed6dcf2e7361",
  "source": "// SPDX-License-Identifier: MIT\n// Beef Contracts v0.0.0 hello@mcdu.com\n\npragma solidity ^0.8.0;\n\n\ncontract UIntConverter {\n    function UInt64ToUInt256(uint64 val_) public pure returns (uint256) {\n        return uint256(val_) * 10**10;\n    }\n\n    function UInt256ToUInt64(uint256 val_) public pure returns (uint64) {\n        uint256 ret = val_ / 10**10;\n        assert(ret*10**10<=val_);\n        return uint64(ret);\n    }\n\n    function UInt48ToUInt256(uint48 val_) public pure returns (uint256) {\n        return uint256(val_) * 10**11;\n    }\n\n    function UInt256ToUInt48(uint256 val_) public pure returns (uint48) {\n        return uint48(val_ / 10**11);\n    }\n\n    function UInt32ToUInt256(uint32 val_) public pure returns (uint256) {\n        return uint256(val_) * 10**12;\n    }\n\n    function UInt256ToUInt32(uint256 val_) public pure returns (uint32) {\n        return uint32(val_ / 10**12);\n    }\n}\n",
  "sourcePath": "contracts/agnostic/UIntConverter.sol",
  "type": "contract"
}